{
	"contracts/Utils.sol": {
		"Utils": {
			"abi": [
				{
					"inputs": [
						{
							"internalType": "enum Utils.Statuses",
							"name": "_status",
							"type": "uint8"
						}
					],
					"name": "GetUsersByStatus",
					"outputs": [
						{
							"components": [
								{
									"internalType": "string",
									"name": "UserID",
									"type": "string"
								},
								{
									"internalType": "string",
									"name": "UserName",
									"type": "string"
								},
								{
									"internalType": "enum Utils.UserRoles",
									"name": "UserRole",
									"type": "uint8"
								},
								{
									"internalType": "enum Utils.Statuses",
									"name": "UserStatus",
									"type": "uint8"
								},
								{
									"internalType": "string",
									"name": "Latitude",
									"type": "string"
								},
								{
									"internalType": "string",
									"name": "Longitude",
									"type": "string"
								},
								{
									"internalType": "address",
									"name": "UserAddress",
									"type": "address"
								}
							],
							"internalType": "struct Utils.User[]",
							"name": "filteredUsers",
							"type": "tuple[]"
						}
					],
					"stateMutability": "view",
					"type": "function"
				},
				{
					"inputs": [
						{
							"internalType": "enum Utils.UserRoles",
							"name": "_role",
							"type": "uint8"
						}
					],
					"name": "GetUsersByType",
					"outputs": [
						{
							"components": [
								{
									"internalType": "string",
									"name": "UserID",
									"type": "string"
								},
								{
									"internalType": "string",
									"name": "UserName",
									"type": "string"
								},
								{
									"internalType": "enum Utils.UserRoles",
									"name": "UserRole",
									"type": "uint8"
								},
								{
									"internalType": "enum Utils.Statuses",
									"name": "UserStatus",
									"type": "uint8"
								},
								{
									"internalType": "string",
									"name": "Latitude",
									"type": "string"
								},
								{
									"internalType": "string",
									"name": "Longitude",
									"type": "string"
								},
								{
									"internalType": "address",
									"name": "UserAddress",
									"type": "address"
								}
							],
							"internalType": "struct Utils.User[]",
							"name": "filteredUsers",
							"type": "tuple[]"
						}
					],
					"stateMutability": "view",
					"type": "function"
				},
				{
					"inputs": [],
					"name": "Owner",
					"outputs": [
						{
							"internalType": "address",
							"name": "",
							"type": "address"
						}
					],
					"stateMutability": "view",
					"type": "function"
				},
				{
					"inputs": [
						{
							"internalType": "uint256",
							"name": "",
							"type": "uint256"
						}
					],
					"name": "PatchTrannsactions",
					"outputs": [
						{
							"internalType": "string",
							"name": "DrugRegNo",
							"type": "string"
						},
						{
							"internalType": "string",
							"name": "PatchNo",
							"type": "string"
						},
						{
							"internalType": "uint256",
							"name": "LineNo",
							"type": "uint256"
						},
						{
							"internalType": "address",
							"name": "FromID",
							"type": "address"
						},
						{
							"internalType": "address",
							"name": "ToID",
							"type": "address"
						},
						{
							"internalType": "uint256",
							"name": "Amount",
							"type": "uint256"
						},
						{
							"internalType": "uint256",
							"name": "TransactionDate",
							"type": "uint256"
						}
					],
					"stateMutability": "view",
					"type": "function"
				},
				{
					"inputs": [
						{
							"internalType": "string",
							"name": "_regno",
							"type": "string"
						}
					],
					"name": "ReadDrug",
					"outputs": [
						{
							"components": [
								{
									"internalType": "string",
									"name": "DrugName",
									"type": "string"
								},
								{
									"internalType": "address",
									"name": "Manufacturer",
									"type": "address"
								},
								{
									"internalType": "enum Utils.Statuses",
									"name": "DrugStatus",
									"type": "uint8"
								},
								{
									"internalType": "string",
									"name": "DrugRegNo",
									"type": "string"
								}
							],
							"internalType": "struct Utils.Drug",
							"name": "",
							"type": "tuple"
						}
					],
					"stateMutability": "view",
					"type": "function"
				},
				{
					"inputs": [
						{
							"internalType": "address",
							"name": "_useraddress",
							"type": "address"
						}
					],
					"name": "ReadDrugsByUser",
					"outputs": [
						{
							"components": [
								{
									"internalType": "string",
									"name": "DrugName",
									"type": "string"
								},
								{
									"internalType": "address",
									"name": "Manufacturer",
									"type": "address"
								},
								{
									"internalType": "enum Utils.Statuses",
									"name": "DrugStatus",
									"type": "uint8"
								},
								{
									"internalType": "string",
									"name": "DrugRegNo",
									"type": "string"
								}
							],
							"internalType": "struct Utils.Drug[]",
							"name": "DrugsList",
							"type": "tuple[]"
						}
					],
					"stateMutability": "view",
					"type": "function"
				},
				{
					"inputs": [
						{
							"internalType": "string",
							"name": "_patchno",
							"type": "string"
						},
						{
							"internalType": "string",
							"name": "_drugno",
							"type": "string"
						},
						{
							"internalType": "address",
							"name": "_fromaddress",
							"type": "address"
						}
					],
					"name": "ReadParentAndSiblingsTransactions",
					"outputs": [
						{
							"components": [
								{
									"internalType": "string",
									"name": "DrugRegNo",
									"type": "string"
								},
								{
									"internalType": "string",
									"name": "PatchNo",
									"type": "string"
								},
								{
									"internalType": "uint256",
									"name": "LineNo",
									"type": "uint256"
								},
								{
									"internalType": "address",
									"name": "FromID",
									"type": "address"
								},
								{
									"internalType": "address",
									"name": "ToID",
									"type": "address"
								},
								{
									"internalType": "uint256",
									"name": "Amount",
									"type": "uint256"
								},
								{
									"internalType": "uint256",
									"name": "TransactionDate",
									"type": "uint256"
								}
							],
							"internalType": "struct Utils.PatchTransaction[]",
							"name": "UserTransaction",
							"type": "tuple[]"
						}
					],
					"stateMutability": "view",
					"type": "function"
				},
				{
					"inputs": [],
					"name": "ReadRoleByUser",
					"outputs": [
						{
							"internalType": "enum Utils.UserRoles",
							"name": "_userrole",
							"type": "uint8"
						}
					],
					"stateMutability": "view",
					"type": "function"
				},
				{
					"inputs": [
						{
							"internalType": "string",
							"name": "_drugno",
							"type": "string"
						}
					],
					"name": "ReadTransactionsByDrug",
					"outputs": [
						{
							"components": [
								{
									"internalType": "string",
									"name": "DrugRegNo",
									"type": "string"
								},
								{
									"internalType": "string",
									"name": "PatchNo",
									"type": "string"
								},
								{
									"internalType": "uint256",
									"name": "LineNo",
									"type": "uint256"
								},
								{
									"internalType": "address",
									"name": "FromID",
									"type": "address"
								},
								{
									"internalType": "address",
									"name": "ToID",
									"type": "address"
								},
								{
									"internalType": "uint256",
									"name": "Amount",
									"type": "uint256"
								},
								{
									"internalType": "uint256",
									"name": "TransactionDate",
									"type": "uint256"
								}
							],
							"internalType": "struct Utils.PatchTransaction[]",
							"name": "UserTransaction",
							"type": "tuple[]"
						}
					],
					"stateMutability": "view",
					"type": "function"
				},
				{
					"inputs": [
						{
							"internalType": "string",
							"name": "_patchno",
							"type": "string"
						},
						{
							"internalType": "string",
							"name": "_drugno",
							"type": "string"
						}
					],
					"name": "ReadTransactionsByPatchNo",
					"outputs": [
						{
							"components": [
								{
									"internalType": "string",
									"name": "DrugRegNo",
									"type": "string"
								},
								{
									"internalType": "string",
									"name": "PatchNo",
									"type": "string"
								},
								{
									"internalType": "uint256",
									"name": "LineNo",
									"type": "uint256"
								},
								{
									"internalType": "address",
									"name": "FromID",
									"type": "address"
								},
								{
									"internalType": "address",
									"name": "ToID",
									"type": "address"
								},
								{
									"internalType": "uint256",
									"name": "Amount",
									"type": "uint256"
								},
								{
									"internalType": "uint256",
									"name": "TransactionDate",
									"type": "uint256"
								}
							],
							"internalType": "struct Utils.PatchTransaction[]",
							"name": "UserTransaction",
							"type": "tuple[]"
						}
					],
					"stateMutability": "view",
					"type": "function"
				},
				{
					"inputs": [
						{
							"internalType": "address",
							"name": "_useraddress",
							"type": "address"
						}
					],
					"name": "ReadTransactionsByUser",
					"outputs": [
						{
							"components": [
								{
									"internalType": "string",
									"name": "DrugRegNo",
									"type": "string"
								},
								{
									"internalType": "string",
									"name": "PatchNo",
									"type": "string"
								},
								{
									"internalType": "uint256",
									"name": "LineNo",
									"type": "uint256"
								},
								{
									"internalType": "address",
									"name": "FromID",
									"type": "address"
								},
								{
									"internalType": "address",
									"name": "ToID",
									"type": "address"
								},
								{
									"internalType": "uint256",
									"name": "Amount",
									"type": "uint256"
								},
								{
									"internalType": "uint256",
									"name": "TransactionDate",
									"type": "uint256"
								}
							],
							"internalType": "struct Utils.PatchTransaction[]",
							"name": "UserTransaction",
							"type": "tuple[]"
						}
					],
					"stateMutability": "view",
					"type": "function"
				},
				{
					"inputs": [
						{
							"internalType": "address",
							"name": "_address",
							"type": "address"
						}
					],
					"name": "ReadUser",
					"outputs": [
						{
							"components": [
								{
									"internalType": "string",
									"name": "UserID",
									"type": "string"
								},
								{
									"internalType": "string",
									"name": "UserName",
									"type": "string"
								},
								{
									"internalType": "enum Utils.UserRoles",
									"name": "UserRole",
									"type": "uint8"
								},
								{
									"internalType": "enum Utils.Statuses",
									"name": "UserStatus",
									"type": "uint8"
								},
								{
									"internalType": "string",
									"name": "Latitude",
									"type": "string"
								},
								{
									"internalType": "string",
									"name": "Longitude",
									"type": "string"
								},
								{
									"internalType": "address",
									"name": "UserAddress",
									"type": "address"
								}
							],
							"internalType": "struct Utils.User",
							"name": "",
							"type": "tuple"
						}
					],
					"stateMutability": "view",
					"type": "function"
				},
				{
					"inputs": [
						{
							"internalType": "string",
							"name": "_patchno",
							"type": "string"
						},
						{
							"internalType": "string",
							"name": "_drugno",
							"type": "string"
						},
						{
							"internalType": "address",
							"name": "_fromaddress",
							"type": "address"
						}
					],
					"name": "ReturnRemainingAmount",
					"outputs": [
						{
							"internalType": "uint256",
							"name": "_remainamount",
							"type": "uint256"
						}
					],
					"stateMutability": "view",
					"type": "function"
				},
				{
					"inputs": [
						{
							"internalType": "string",
							"name": "s1",
							"type": "string"
						},
						{
							"internalType": "string",
							"name": "s2",
							"type": "string"
						}
					],
					"name": "compareStringsbyBytes",
					"outputs": [
						{
							"internalType": "bool",
							"name": "",
							"type": "bool"
						}
					],
					"stateMutability": "pure",
					"type": "function"
				}
			],
			"devdoc": {
				"kind": "dev",
				"methods": {},
				"version": 1
			},
			"evm": {
				"assembly": "    /* \"contracts/Utils.sol\":95:9042  contract Utils {... */\n  mstore(0x40, 0x80)\n  callvalue\n  dup1\n  iszero\n  tag_1\n  jumpi\n  0x00\n  dup1\n  revert\ntag_1:\n  pop\n  dataSize(sub_0)\n  dup1\n  dataOffset(sub_0)\n  0x00\n  codecopy\n  0x00\n  return\nstop\n\nsub_0: assembly {\n        /* \"contracts/Utils.sol\":95:9042  contract Utils {... */\n      mstore(0x40, 0x80)\n      callvalue\n      dup1\n      iszero\n      tag_1\n      jumpi\n      0x00\n      dup1\n      revert\n    tag_1:\n      pop\n      jumpi(tag_2, lt(calldatasize, 0x04))\n      shr(0xe0, calldataload(0x00))\n      dup1\n      0x7a53c535\n      gt\n      tag_17\n      jumpi\n      dup1\n      0xcd1720d1\n      gt\n      tag_18\n      jumpi\n      dup1\n      0xcd1720d1\n      eq\n      tag_13\n      jumpi\n      dup1\n      0xcdf7e73d\n      eq\n      tag_14\n      jumpi\n      dup1\n      0xe9a734ff\n      eq\n      tag_15\n      jumpi\n      dup1\n      0xff946c85\n      eq\n      tag_16\n      jumpi\n      jump(tag_2)\n    tag_18:\n      dup1\n      0x7a53c535\n      eq\n      tag_10\n      jumpi\n      dup1\n      0x99b5bbdd\n      eq\n      tag_11\n      jumpi\n      dup1\n      0xb4a99a4e\n      eq\n      tag_12\n      jumpi\n      jump(tag_2)\n    tag_17:\n      dup1\n      0x40d37caf\n      gt\n      tag_19\n      jumpi\n      dup1\n      0x40d37caf\n      eq\n      tag_6\n      jumpi\n      dup1\n      0x4b2d14aa\n      eq\n      tag_7\n      jumpi\n      dup1\n      0x783a7895\n      eq\n      tag_8\n      jumpi\n      dup1\n      0x798d2122\n      eq\n      tag_9\n      jumpi\n      jump(tag_2)\n    tag_19:\n      dup1\n      0x0f9de977\n      eq\n      tag_3\n      jumpi\n      dup1\n      0x1567697c\n      eq\n      tag_4\n      jumpi\n      dup1\n      0x31a6db4d\n      eq\n      tag_5\n      jumpi\n    tag_2:\n      0x00\n      dup1\n      revert\n        /* \"contracts/Utils.sol\":1096:1752  function GetUsersByType(UserRoles _role)... */\n    tag_3:\n      tag_20\n      0x04\n      dup1\n      calldatasize\n      sub\n      dup2\n      add\n      swap1\n      tag_21\n      swap2\n      swap1\n      tag_22\n      jump\t// in\n    tag_21:\n      tag_23\n      jump\t// in\n    tag_20:\n      mload(0x40)\n      tag_24\n      swap2\n      swap1\n      tag_25\n      jump\t// in\n    tag_24:\n      mload(0x40)\n      dup1\n      swap2\n      sub\n      swap1\n      return\n        /* \"contracts/Utils.sol\":4229:4273  PatchTransaction[] public PatchTrannsactions */\n    tag_4:\n      tag_26\n      0x04\n      dup1\n      calldatasize\n      sub\n      dup2\n      add\n      swap1\n      tag_27\n      swap2\n      swap1\n      tag_28\n      jump\t// in\n    tag_27:\n      tag_29\n      jump\t// in\n    tag_26:\n      mload(0x40)\n      tag_30\n      swap8\n      swap7\n      swap6\n      swap5\n      swap4\n      swap3\n      swap2\n      swap1\n      tag_31\n      jump\t// in\n    tag_30:\n      mload(0x40)\n      dup1\n      swap2\n      sub\n      swap1\n      return\n        /* \"contracts/Utils.sol\":7020:8280  function ReadParentAndSiblingsTransactions(... */\n    tag_5:\n      tag_32\n      0x04\n      dup1\n      calldatasize\n      sub\n      dup2\n      add\n      swap1\n      tag_33\n      swap2\n      swap1\n      tag_34\n      jump\t// in\n    tag_33:\n      tag_35\n      jump\t// in\n    tag_32:\n      mload(0x40)\n      tag_36\n      swap2\n      swap1\n      tag_37\n      jump\t// in\n    tag_36:\n      mload(0x40)\n      dup1\n      swap2\n      sub\n      swap1\n      return\n        /* \"contracts/Utils.sol\":5982:7014  function ReadTransactionsByPatchNo(... */\n    tag_6:\n      tag_38\n      0x04\n      dup1\n      calldatasize\n      sub\n      dup2\n      add\n      swap1\n      tag_39\n      swap2\n      swap1\n      tag_40\n      jump\t// in\n    tag_39:\n      tag_41\n      jump\t// in\n    tag_38:\n      mload(0x40)\n      tag_42\n      swap2\n      swap1\n      tag_37\n      jump\t// in\n    tag_42:\n      mload(0x40)\n      dup1\n      swap2\n      sub\n      swap1\n      return\n        /* \"contracts/Utils.sol\":5105:5976  function ReadTransactionsByDrug(string memory _drugno)... */\n    tag_7:\n      tag_43\n      0x04\n      dup1\n      calldatasize\n      sub\n      dup2\n      add\n      swap1\n      tag_44\n      swap2\n      swap1\n      tag_45\n      jump\t// in\n    tag_44:\n      tag_46\n      jump\t// in\n    tag_43:\n      mload(0x40)\n      tag_47\n      swap2\n      swap1\n      tag_37\n      jump\t// in\n    tag_47:\n      mload(0x40)\n      dup1\n      swap2\n      sub\n      swap1\n      return\n        /* \"contracts/Utils.sol\":2427:2836  function ReadRoleByUser()... */\n    tag_8:\n      tag_48\n      tag_49\n      jump\t// in\n    tag_48:\n      mload(0x40)\n      tag_50\n      swap2\n      swap1\n      tag_51\n      jump\t// in\n    tag_50:\n      mload(0x40)\n      dup1\n      swap2\n      sub\n      swap1\n      return\n        /* \"contracts/Utils.sol\":8286:9040  function ReturnRemainingAmount(... */\n    tag_9:\n      tag_52\n      0x04\n      dup1\n      calldatasize\n      sub\n      dup2\n      add\n      swap1\n      tag_53\n      swap2\n      swap1\n      tag_34\n      jump\t// in\n    tag_53:\n      tag_54\n      jump\t// in\n    tag_52:\n      mload(0x40)\n      tag_55\n      swap2\n      swap1\n      tag_56\n      jump\t// in\n    tag_55:\n      mload(0x40)\n      dup1\n      swap2\n      sub\n      swap1\n      return\n        /* \"contracts/Utils.sol\":1758:2421  function GetUsersByStatus(Statuses _status)... */\n    tag_10:\n      tag_57\n      0x04\n      dup1\n      calldatasize\n      sub\n      dup2\n      add\n      swap1\n      tag_58\n      swap2\n      swap1\n      tag_59\n      jump\t// in\n    tag_58:\n      tag_60\n      jump\t// in\n    tag_57:\n      mload(0x40)\n      tag_61\n      swap2\n      swap1\n      tag_25\n      jump\t// in\n    tag_61:\n      mload(0x40)\n      dup1\n      swap2\n      sub\n      swap1\n      return\n        /* \"contracts/Utils.sol\":4280:5099  function ReadTransactionsByUser(address _useraddress)... */\n    tag_11:\n      tag_62\n      0x04\n      dup1\n      calldatasize\n      sub\n      dup2\n      add\n      swap1\n      tag_63\n      swap2\n      swap1\n      tag_64\n      jump\t// in\n    tag_63:\n      tag_65\n      jump\t// in\n    tag_62:\n      mload(0x40)\n      tag_66\n      swap2\n      swap1\n      tag_37\n      jump\t// in\n    tag_66:\n      mload(0x40)\n      dup1\n      swap2\n      sub\n      swap1\n      return\n        /* \"contracts/Utils.sol\":445:465  address public Owner */\n    tag_12:\n      tag_67\n      tag_68\n      jump\t// in\n    tag_67:\n      mload(0x40)\n      tag_69\n      swap2\n      swap1\n      tag_70\n      jump\t// in\n    tag_69:\n      mload(0x40)\n      dup1\n      swap2\n      sub\n      swap1\n      return\n        /* \"contracts/Utils.sol\":968:1090  function ReadUser(address _address) public view returns (User memory) {... */\n    tag_13:\n      tag_71\n      0x04\n      dup1\n      calldatasize\n      sub\n      dup2\n      add\n      swap1\n      tag_72\n      swap2\n      swap1\n      tag_64\n      jump\t// in\n    tag_72:\n      tag_73\n      jump\t// in\n    tag_71:\n      mload(0x40)\n      tag_74\n      swap2\n      swap1\n      tag_75\n      jump\t// in\n    tag_74:\n      mload(0x40)\n      dup1\n      swap2\n      sub\n      swap1\n      return\n        /* \"contracts/Utils.sol\":3244:3366  function ReadDrug(string memory _regno) public view returns (Drug memory) {... */\n    tag_14:\n      tag_76\n      0x04\n      dup1\n      calldatasize\n      sub\n      dup2\n      add\n      swap1\n      tag_77\n      swap2\n      swap1\n      tag_45\n      jump\t// in\n    tag_77:\n      tag_78\n      jump\t// in\n    tag_76:\n      mload(0x40)\n      tag_79\n      swap2\n      swap1\n      tag_80\n      jump\t// in\n    tag_79:\n      mload(0x40)\n      dup1\n      swap2\n      sub\n      swap1\n      return\n        /* \"contracts/Utils.sol\":203:427  function compareStringsbyBytes(string memory s1, string memory s2)... */\n    tag_15:\n      tag_81\n      0x04\n      dup1\n      calldatasize\n      sub\n      dup2\n      add\n      swap1\n      tag_82\n      swap2\n      swap1\n      tag_40\n      jump\t// in\n    tag_82:\n      tag_83\n      jump\t// in\n    tag_81:\n      mload(0x40)\n      tag_84\n      swap2\n      swap1\n      tag_85\n      jump\t// in\n    tag_84:\n      mload(0x40)\n      dup1\n      swap2\n      sub\n      swap1\n      return\n        /* \"contracts/Utils.sol\":3372:3990  function ReadDrugsByUser(address _useraddress) public view returns(Drug[] memory DrugsList){... */\n    tag_16:\n      tag_86\n      0x04\n      dup1\n      calldatasize\n      sub\n      dup2\n      add\n      swap1\n      tag_87\n      swap2\n      swap1\n      tag_64\n      jump\t// in\n    tag_87:\n      tag_88\n      jump\t// in\n    tag_86:\n      mload(0x40)\n      tag_89\n      swap2\n      swap1\n      tag_90\n      jump\t// in\n    tag_89:\n      mload(0x40)\n      dup1\n      swap2\n      sub\n      swap1\n      return\n        /* \"contracts/Utils.sol\":1096:1752  function GetUsersByType(UserRoles _role)... */\n    tag_23:\n        /* \"contracts/Utils.sol\":1182:1209  User[] memory filteredUsers */\n      0x60\n        /* \"contracts/Utils.sol\":1225:1243  uint256 usersCount */\n      0x00\n        /* \"contracts/Utils.sol\":1246:1260  UsersAddresses */\n      0x02\n        /* \"contracts/Utils.sol\":1246:1267  UsersAddresses.length */\n      dup1\n      sload\n      swap1\n      pop\n        /* \"contracts/Utils.sol\":1225:1267  uint256 usersCount = UsersAddresses.length */\n      swap1\n      pop\n        /* \"contracts/Utils.sol\":1277:1300  User[] memory usersTemp */\n      0x00\n        /* \"contracts/Utils.sol\":1314:1324  usersCount */\n      dup2\n        /* \"contracts/Utils.sol\":1303:1325  new User[](usersCount) */\n      0xffffffffffffffff\n      dup2\n      gt\n      iszero\n      tag_92\n      jumpi\n      tag_93\n      tag_94\n      jump\t// in\n    tag_93:\n    tag_92:\n      mload(0x40)\n      swap1\n      dup1\n      dup3\n      mstore\n      dup1\n      0x20\n      mul\n      0x20\n      add\n      dup3\n      add\n      0x40\n      mstore\n      dup1\n      iszero\n      tag_95\n      jumpi\n      dup2\n      0x20\n      add\n    tag_96:\n      tag_97\n      tag_98\n      jump\t// in\n    tag_97:\n      dup2\n      mstore\n      0x20\n      add\n      swap1\n      0x01\n      swap1\n      sub\n      swap1\n      dup2\n      tag_96\n      jumpi\n      swap1\n      pop\n    tag_95:\n      pop\n        /* \"contracts/Utils.sol\":1277:1325  User[] memory usersTemp = new User[](usersCount) */\n      swap1\n      pop\n        /* \"contracts/Utils.sol\":1335:1348  uint256 count */\n      0x00\n        /* \"contracts/Utils.sol\":1363:1372  uint256 i */\n      dup1\n        /* \"contracts/Utils.sol\":1375:1376  0 */\n      0x00\n        /* \"contracts/Utils.sol\":1363:1376  uint256 i = 0 */\n      swap1\n      pop\n        /* \"contracts/Utils.sol\":1358:1601  for (uint256 i = 0; i < usersCount; i++) {... */\n    tag_99:\n        /* \"contracts/Utils.sol\":1382:1392  usersCount */\n      dup4\n        /* \"contracts/Utils.sol\":1378:1379  i */\n      dup2\n        /* \"contracts/Utils.sol\":1378:1392  i < usersCount */\n      lt\n        /* \"contracts/Utils.sol\":1358:1601  for (uint256 i = 0; i < usersCount; i++) {... */\n      iszero\n      tag_100\n      jumpi\n        /* \"contracts/Utils.sol\":1467:1472  _role */\n      dup6\n        /* \"contracts/Utils.sol\":1417:1472  UserAddressMapping[UsersAddresses[i]].UserRole == _role */\n      0x08\n      dup2\n      gt\n      iszero\n      tag_102\n      jumpi\n      tag_103\n      tag_104\n      jump\t// in\n    tag_103:\n    tag_102:\n        /* \"contracts/Utils.sol\":1417:1435  UserAddressMapping */\n      0x01\n        /* \"contracts/Utils.sol\":1417:1454  UserAddressMapping[UsersAddresses[i]] */\n      0x00\n        /* \"contracts/Utils.sol\":1436:1450  UsersAddresses */\n      0x02\n        /* \"contracts/Utils.sol\":1451:1452  i */\n      dup5\n        /* \"contracts/Utils.sol\":1436:1453  UsersAddresses[i] */\n      dup2\n      sload\n      dup2\n      lt\n      tag_105\n      jumpi\n      tag_106\n      tag_107\n      jump\t// in\n    tag_106:\n    tag_105:\n      swap1\n      0x00\n      mstore\n      keccak256(0x00, 0x20)\n      add\n      0x00\n      swap1\n      sload\n      swap1\n      0x0100\n      exp\n      swap1\n      div\n      0xffffffffffffffffffffffffffffffffffffffff\n      and\n        /* \"contracts/Utils.sol\":1417:1454  UserAddressMapping[UsersAddresses[i]] */\n      0xffffffffffffffffffffffffffffffffffffffff\n      and\n      0xffffffffffffffffffffffffffffffffffffffff\n      and\n      dup2\n      mstore\n      0x20\n      add\n      swap1\n      dup2\n      mstore\n      0x20\n      add\n      0x00\n      keccak256\n        /* \"contracts/Utils.sol\":1417:1463  UserAddressMapping[UsersAddresses[i]].UserRole */\n      0x02\n      add\n      0x00\n      swap1\n      sload\n      swap1\n      0x0100\n      exp\n      swap1\n      div\n      0xff\n      and\n        /* \"contracts/Utils.sol\":1417:1472  UserAddressMapping[UsersAddresses[i]].UserRole == _role */\n      0x08\n      dup2\n      gt\n      iszero\n      tag_109\n      jumpi\n      tag_110\n      tag_104\n      jump\t// in\n    tag_110:\n    tag_109:\n      eq\n        /* \"contracts/Utils.sol\":1413:1591  if (UserAddressMapping[UsersAddresses[i]].UserRole == _role) {... */\n      iszero\n      tag_111\n      jumpi\n        /* \"contracts/Utils.sol\":1511:1529  UserAddressMapping */\n      0x01\n        /* \"contracts/Utils.sol\":1511:1548  UserAddressMapping[UsersAddresses[i]] */\n      0x00\n        /* \"contracts/Utils.sol\":1530:1544  UsersAddresses */\n      0x02\n        /* \"contracts/Utils.sol\":1545:1546  i */\n      dup4\n        /* \"contracts/Utils.sol\":1530:1547  UsersAddresses[i] */\n      dup2\n      sload\n      dup2\n      lt\n      tag_112\n      jumpi\n      tag_113\n      tag_107\n      jump\t// in\n    tag_113:\n    tag_112:\n      swap1\n      0x00\n      mstore\n      keccak256(0x00, 0x20)\n      add\n      0x00\n      swap1\n      sload\n      swap1\n      0x0100\n      exp\n      swap1\n      div\n      0xffffffffffffffffffffffffffffffffffffffff\n      and\n        /* \"contracts/Utils.sol\":1511:1548  UserAddressMapping[UsersAddresses[i]] */\n      0xffffffffffffffffffffffffffffffffffffffff\n      and\n      0xffffffffffffffffffffffffffffffffffffffff\n      and\n      dup2\n      mstore\n      0x20\n      add\n      swap1\n      dup2\n      mstore\n      0x20\n      add\n      0x00\n      keccak256\n        /* \"contracts/Utils.sol\":1492:1548  usersTemp[count] = UserAddressMapping[UsersAddresses[i]] */\n      mload(0x40)\n      dup1\n      0xe0\n      add\n      0x40\n      mstore\n      swap1\n      dup2\n      0x00\n      dup3\n      add\n      dup1\n      sload\n      tag_115\n      swap1\n      tag_116\n      jump\t// in\n    tag_115:\n      dup1\n      0x1f\n      add\n      0x20\n      dup1\n      swap2\n      div\n      mul\n      0x20\n      add\n      mload(0x40)\n      swap1\n      dup2\n      add\n      0x40\n      mstore\n      dup1\n      swap3\n      swap2\n      swap1\n      dup2\n      dup2\n      mstore\n      0x20\n      add\n      dup3\n      dup1\n      sload\n      tag_117\n      swap1\n      tag_116\n      jump\t// in\n    tag_117:\n      dup1\n      iszero\n      tag_118\n      jumpi\n      dup1\n      0x1f\n      lt\n      tag_119\n      jumpi\n      0x0100\n      dup1\n      dup4\n      sload\n      div\n      mul\n      dup4\n      mstore\n      swap2\n      0x20\n      add\n      swap2\n      jump(tag_118)\n    tag_119:\n      dup3\n      add\n      swap2\n      swap1\n      0x00\n      mstore\n      keccak256(0x00, 0x20)\n      swap1\n    tag_120:\n      dup2\n      sload\n      dup2\n      mstore\n      swap1\n      0x01\n      add\n      swap1\n      0x20\n      add\n      dup1\n      dup4\n      gt\n      tag_120\n      jumpi\n      dup3\n      swap1\n      sub\n      0x1f\n      and\n      dup3\n      add\n      swap2\n    tag_118:\n      pop\n      pop\n      pop\n      pop\n      pop\n      dup2\n      mstore\n      0x20\n      add\n      0x01\n      dup3\n      add\n      dup1\n      sload\n      tag_121\n      swap1\n      tag_116\n      jump\t// in\n    tag_121:\n      dup1\n      0x1f\n      add\n      0x20\n      dup1\n      swap2\n      div\n      mul\n      0x20\n      add\n      mload(0x40)\n      swap1\n      dup2\n      add\n      0x40\n      mstore\n      dup1\n      swap3\n      swap2\n      swap1\n      dup2\n      dup2\n      mstore\n      0x20\n      add\n      dup3\n      dup1\n      sload\n      tag_122\n      swap1\n      tag_116\n      jump\t// in\n    tag_122:\n      dup1\n      iszero\n      tag_123\n      jumpi\n      dup1\n      0x1f\n      lt\n      tag_124\n      jumpi\n      0x0100\n      dup1\n      dup4\n      sload\n      div\n      mul\n      dup4\n      mstore\n      swap2\n      0x20\n      add\n      swap2\n      jump(tag_123)\n    tag_124:\n      dup3\n      add\n      swap2\n      swap1\n      0x00\n      mstore\n      keccak256(0x00, 0x20)\n      swap1\n    tag_125:\n      dup2\n      sload\n      dup2\n      mstore\n      swap1\n      0x01\n      add\n      swap1\n      0x20\n      add\n      dup1\n      dup4\n      gt\n      tag_125\n      jumpi\n      dup3\n      swap1\n      sub\n      0x1f\n      and\n      dup3\n      add\n      swap2\n    tag_123:\n      pop\n      pop\n      pop\n      pop\n      pop\n      dup2\n      mstore\n      0x20\n      add\n      0x02\n      dup3\n      add\n      0x00\n      swap1\n      sload\n      swap1\n      0x0100\n      exp\n      swap1\n      div\n      0xff\n      and\n      0x08\n      dup2\n      gt\n      iszero\n      tag_126\n      jumpi\n      tag_127\n      tag_104\n      jump\t// in\n    tag_127:\n    tag_126:\n      0x08\n      dup2\n      gt\n      iszero\n      tag_128\n      jumpi\n      tag_129\n      tag_104\n      jump\t// in\n    tag_129:\n    tag_128:\n      dup2\n      mstore\n      0x20\n      add\n      0x02\n      dup3\n      add\n      0x01\n      swap1\n      sload\n      swap1\n      0x0100\n      exp\n      swap1\n      div\n      0xff\n      and\n      0x02\n      dup2\n      gt\n      iszero\n      tag_130\n      jumpi\n      tag_131\n      tag_104\n      jump\t// in\n    tag_131:\n    tag_130:\n      0x02\n      dup2\n      gt\n      iszero\n      tag_132\n      jumpi\n      tag_133\n      tag_104\n      jump\t// in\n    tag_133:\n    tag_132:\n      dup2\n      mstore\n      0x20\n      add\n      0x03\n      dup3\n      add\n      dup1\n      sload\n      tag_134\n      swap1\n      tag_116\n      jump\t// in\n    tag_134:\n      dup1\n      0x1f\n      add\n      0x20\n      dup1\n      swap2\n      div\n      mul\n      0x20\n      add\n      mload(0x40)\n      swap1\n      dup2\n      add\n      0x40\n      mstore\n      dup1\n      swap3\n      swap2\n      swap1\n      dup2\n      dup2\n      mstore\n      0x20\n      add\n      dup3\n      dup1\n      sload\n      tag_135\n      swap1\n      tag_116\n      jump\t// in\n    tag_135:\n      dup1\n      iszero\n      tag_136\n      jumpi\n      dup1\n      0x1f\n      lt\n      tag_137\n      jumpi\n      0x0100\n      dup1\n      dup4\n      sload\n      div\n      mul\n      dup4\n      mstore\n      swap2\n      0x20\n      add\n      swap2\n      jump(tag_136)\n    tag_137:\n      dup3\n      add\n      swap2\n      swap1\n      0x00\n      mstore\n      keccak256(0x00, 0x20)\n      swap1\n    tag_138:\n      dup2\n      sload\n      dup2\n      mstore\n      swap1\n      0x01\n      add\n      swap1\n      0x20\n      add\n      dup1\n      dup4\n      gt\n      tag_138\n      jumpi\n      dup3\n      swap1\n      sub\n      0x1f\n      and\n      dup3\n      add\n      swap2\n    tag_136:\n      pop\n      pop\n      pop\n      pop\n      pop\n      dup2\n      mstore\n      0x20\n      add\n      0x04\n      dup3\n      add\n      dup1\n      sload\n      tag_139\n      swap1\n      tag_116\n      jump\t// in\n    tag_139:\n      dup1\n      0x1f\n      add\n      0x20\n      dup1\n      swap2\n      div\n      mul\n      0x20\n      add\n      mload(0x40)\n      swap1\n      dup2\n      add\n      0x40\n      mstore\n      dup1\n      swap3\n      swap2\n      swap1\n      dup2\n      dup2\n      mstore\n      0x20\n      add\n      dup3\n      dup1\n      sload\n      tag_140\n      swap1\n      tag_116\n      jump\t// in\n    tag_140:\n      dup1\n      iszero\n      tag_141\n      jumpi\n      dup1\n      0x1f\n      lt\n      tag_142\n      jumpi\n      0x0100\n      dup1\n      dup4\n      sload\n      div\n      mul\n      dup4\n      mstore\n      swap2\n      0x20\n      add\n      swap2\n      jump(tag_141)\n    tag_142:\n      dup3\n      add\n      swap2\n      swap1\n      0x00\n      mstore\n      keccak256(0x00, 0x20)\n      swap1\n    tag_143:\n      dup2\n      sload\n      dup2\n      mstore\n      swap1\n      0x01\n      add\n      swap1\n      0x20\n      add\n      dup1\n      dup4\n      gt\n      tag_143\n      jumpi\n      dup3\n      swap1\n      sub\n      0x1f\n      and\n      dup3\n      add\n      swap2\n    tag_141:\n      pop\n      pop\n      pop\n      pop\n      pop\n      dup2\n      mstore\n      0x20\n      add\n      0x05\n      dup3\n      add\n      0x00\n      swap1\n      sload\n      swap1\n      0x0100\n      exp\n      swap1\n      div\n      0xffffffffffffffffffffffffffffffffffffffff\n      and\n      0xffffffffffffffffffffffffffffffffffffffff\n      and\n      0xffffffffffffffffffffffffffffffffffffffff\n      and\n      dup2\n      mstore\n      pop\n      pop\n        /* \"contracts/Utils.sol\":1492:1501  usersTemp */\n      dup4\n        /* \"contracts/Utils.sol\":1502:1507  count */\n      dup4\n        /* \"contracts/Utils.sol\":1492:1508  usersTemp[count] */\n      dup2\n      mload\n      dup2\n      lt\n      tag_144\n      jumpi\n      tag_145\n      tag_107\n      jump\t// in\n    tag_145:\n    tag_144:\n      0x20\n      mul\n      0x20\n      add\n      add\n        /* \"contracts/Utils.sol\":1492:1548  usersTemp[count] = UserAddressMapping[UsersAddresses[i]] */\n      dup2\n      swap1\n      mstore\n      pop\n        /* \"contracts/Utils.sol\":1575:1576  1 */\n      0x01\n        /* \"contracts/Utils.sol\":1566:1576  count += 1 */\n      dup3\n      tag_146\n      swap2\n      swap1\n      tag_147\n      jump\t// in\n    tag_146:\n      swap2\n      pop\n        /* \"contracts/Utils.sol\":1413:1591  if (UserAddressMapping[UsersAddresses[i]].UserRole == _role) {... */\n    tag_111:\n        /* \"contracts/Utils.sol\":1394:1397  i++ */\n      dup1\n      dup1\n      tag_148\n      swap1\n      tag_149\n      jump\t// in\n    tag_148:\n      swap2\n      pop\n      pop\n        /* \"contracts/Utils.sol\":1358:1601  for (uint256 i = 0; i < usersCount; i++) {... */\n      jump(tag_99)\n    tag_100:\n      pop\n        /* \"contracts/Utils.sol\":1638:1643  count */\n      dup1\n        /* \"contracts/Utils.sol\":1627:1644  new User[](count) */\n      0xffffffffffffffff\n      dup2\n      gt\n      iszero\n      tag_150\n      jumpi\n      tag_151\n      tag_94\n      jump\t// in\n    tag_151:\n    tag_150:\n      mload(0x40)\n      swap1\n      dup1\n      dup3\n      mstore\n      dup1\n      0x20\n      mul\n      0x20\n      add\n      dup3\n      add\n      0x40\n      mstore\n      dup1\n      iszero\n      tag_152\n      jumpi\n      dup2\n      0x20\n      add\n    tag_153:\n      tag_154\n      tag_98\n      jump\t// in\n    tag_154:\n      dup2\n      mstore\n      0x20\n      add\n      swap1\n      0x01\n      swap1\n      sub\n      swap1\n      dup2\n      tag_153\n      jumpi\n      swap1\n      pop\n    tag_152:\n      pop\n        /* \"contracts/Utils.sol\":1611:1644  filteredUsers = new User[](count) */\n      swap4\n      pop\n        /* \"contracts/Utils.sol\":1659:1668  uint256 i */\n      0x00\n        /* \"contracts/Utils.sol\":1654:1746  for (uint256 i = 0; i < count; i++) {... */\n    tag_155:\n        /* \"contracts/Utils.sol\":1678:1683  count */\n      dup2\n        /* \"contracts/Utils.sol\":1674:1675  i */\n      dup2\n        /* \"contracts/Utils.sol\":1674:1683  i < count */\n      lt\n        /* \"contracts/Utils.sol\":1654:1746  for (uint256 i = 0; i < count; i++) {... */\n      iszero\n      tag_156\n      jumpi\n        /* \"contracts/Utils.sol\":1723:1732  usersTemp */\n      dup3\n        /* \"contracts/Utils.sol\":1733:1734  i */\n      dup2\n        /* \"contracts/Utils.sol\":1723:1735  usersTemp[i] */\n      dup2\n      mload\n      dup2\n      lt\n      tag_158\n      jumpi\n      tag_159\n      tag_107\n      jump\t// in\n    tag_159:\n    tag_158:\n      0x20\n      mul\n      0x20\n      add\n      add\n      mload\n        /* \"contracts/Utils.sol\":1704:1717  filteredUsers */\n      dup6\n        /* \"contracts/Utils.sol\":1718:1719  i */\n      dup3\n        /* \"contracts/Utils.sol\":1704:1720  filteredUsers[i] */\n      dup2\n      mload\n      dup2\n      lt\n      tag_160\n      jumpi\n      tag_161\n      tag_107\n      jump\t// in\n    tag_161:\n    tag_160:\n      0x20\n      mul\n      0x20\n      add\n      add\n        /* \"contracts/Utils.sol\":1704:1735  filteredUsers[i] = usersTemp[i] */\n      dup2\n      swap1\n      mstore\n      pop\n        /* \"contracts/Utils.sol\":1685:1688  i++ */\n      dup1\n      dup1\n      tag_162\n      swap1\n      tag_149\n      jump\t// in\n    tag_162:\n      swap2\n      pop\n      pop\n        /* \"contracts/Utils.sol\":1654:1746  for (uint256 i = 0; i < count; i++) {... */\n      jump(tag_155)\n    tag_156:\n      pop\n        /* \"contracts/Utils.sol\":1215:1752  {... */\n      pop\n      pop\n      pop\n        /* \"contracts/Utils.sol\":1096:1752  function GetUsersByType(UserRoles _role)... */\n      swap2\n      swap1\n      pop\n      jump\t// out\n        /* \"contracts/Utils.sol\":4229:4273  PatchTransaction[] public PatchTrannsactions */\n    tag_29:\n      0x05\n      dup2\n      dup2\n      sload\n      dup2\n      lt\n      tag_163\n      jumpi\n      0x00\n      dup1\n      revert\n    tag_163:\n      swap1\n      0x00\n      mstore\n      keccak256(0x00, 0x20)\n      swap1\n      0x07\n      mul\n      add\n      0x00\n      swap2\n      pop\n      swap1\n      pop\n      dup1\n      0x00\n      add\n      dup1\n      sload\n      tag_165\n      swap1\n      tag_116\n      jump\t// in\n    tag_165:\n      dup1\n      0x1f\n      add\n      0x20\n      dup1\n      swap2\n      div\n      mul\n      0x20\n      add\n      mload(0x40)\n      swap1\n      dup2\n      add\n      0x40\n      mstore\n      dup1\n      swap3\n      swap2\n      swap1\n      dup2\n      dup2\n      mstore\n      0x20\n      add\n      dup3\n      dup1\n      sload\n      tag_166\n      swap1\n      tag_116\n      jump\t// in\n    tag_166:\n      dup1\n      iszero\n      tag_167\n      jumpi\n      dup1\n      0x1f\n      lt\n      tag_168\n      jumpi\n      0x0100\n      dup1\n      dup4\n      sload\n      div\n      mul\n      dup4\n      mstore\n      swap2\n      0x20\n      add\n      swap2\n      jump(tag_167)\n    tag_168:\n      dup3\n      add\n      swap2\n      swap1\n      0x00\n      mstore\n      keccak256(0x00, 0x20)\n      swap1\n    tag_169:\n      dup2\n      sload\n      dup2\n      mstore\n      swap1\n      0x01\n      add\n      swap1\n      0x20\n      add\n      dup1\n      dup4\n      gt\n      tag_169\n      jumpi\n      dup3\n      swap1\n      sub\n      0x1f\n      and\n      dup3\n      add\n      swap2\n    tag_167:\n      pop\n      pop\n      pop\n      pop\n      pop\n      swap1\n      dup1\n      0x01\n      add\n      dup1\n      sload\n      tag_170\n      swap1\n      tag_116\n      jump\t// in\n    tag_170:\n      dup1\n      0x1f\n      add\n      0x20\n      dup1\n      swap2\n      div\n      mul\n      0x20\n      add\n      mload(0x40)\n      swap1\n      dup2\n      add\n      0x40\n      mstore\n      dup1\n      swap3\n      swap2\n      swap1\n      dup2\n      dup2\n      mstore\n      0x20\n      add\n      dup3\n      dup1\n      sload\n      tag_171\n      swap1\n      tag_116\n      jump\t// in\n    tag_171:\n      dup1\n      iszero\n      tag_172\n      jumpi\n      dup1\n      0x1f\n      lt\n      tag_173\n      jumpi\n      0x0100\n      dup1\n      dup4\n      sload\n      div\n      mul\n      dup4\n      mstore\n      swap2\n      0x20\n      add\n      swap2\n      jump(tag_172)\n    tag_173:\n      dup3\n      add\n      swap2\n      swap1\n      0x00\n      mstore\n      keccak256(0x00, 0x20)\n      swap1\n    tag_174:\n      dup2\n      sload\n      dup2\n      mstore\n      swap1\n      0x01\n      add\n      swap1\n      0x20\n      add\n      dup1\n      dup4\n      gt\n      tag_174\n      jumpi\n      dup3\n      swap1\n      sub\n      0x1f\n      and\n      dup3\n      add\n      swap2\n    tag_172:\n      pop\n      pop\n      pop\n      pop\n      pop\n      swap1\n      dup1\n      0x02\n      add\n      sload\n      swap1\n      dup1\n      0x03\n      add\n      0x00\n      swap1\n      sload\n      swap1\n      0x0100\n      exp\n      swap1\n      div\n      0xffffffffffffffffffffffffffffffffffffffff\n      and\n      swap1\n      dup1\n      0x04\n      add\n      0x00\n      swap1\n      sload\n      swap1\n      0x0100\n      exp\n      swap1\n      div\n      0xffffffffffffffffffffffffffffffffffffffff\n      and\n      swap1\n      dup1\n      0x05\n      add\n      sload\n      swap1\n      dup1\n      0x06\n      add\n      sload\n      swap1\n      pop\n      dup8\n      jump\t// out\n        /* \"contracts/Utils.sol\":7020:8280  function ReadParentAndSiblingsTransactions(... */\n    tag_35:\n        /* \"contracts/Utils.sol\":7183:7224  PatchTransaction[] memory UserTransaction */\n      0x60\n        /* \"contracts/Utils.sol\":7236:7255  uint256 MatchedRows */\n      0x00\n        /* \"contracts/Utils.sol\":7265:7299  PatchTransaction[] memory TempTran */\n      dup1\n        /* \"contracts/Utils.sol\":7338:7356  PatchTrannsactions */\n      0x05\n        /* \"contracts/Utils.sol\":7338:7363  PatchTrannsactions.length */\n      dup1\n      sload\n      swap1\n      pop\n        /* \"contracts/Utils.sol\":7302:7373  new PatchTransaction[](... */\n      0xffffffffffffffff\n      dup2\n      gt\n      iszero\n      tag_176\n      jumpi\n      tag_177\n      tag_94\n      jump\t// in\n    tag_177:\n    tag_176:\n      mload(0x40)\n      swap1\n      dup1\n      dup3\n      mstore\n      dup1\n      0x20\n      mul\n      0x20\n      add\n      dup3\n      add\n      0x40\n      mstore\n      dup1\n      iszero\n      tag_178\n      jumpi\n      dup2\n      0x20\n      add\n    tag_179:\n      tag_180\n      tag_181\n      jump\t// in\n    tag_180:\n      dup2\n      mstore\n      0x20\n      add\n      swap1\n      0x01\n      swap1\n      sub\n      swap1\n      dup2\n      tag_179\n      jumpi\n      swap1\n      pop\n    tag_178:\n      pop\n        /* \"contracts/Utils.sol\":7265:7373  PatchTransaction[] memory TempTran = new PatchTransaction[](... */\n      swap1\n      pop\n        /* \"contracts/Utils.sol\":7388:7397  uint256 i */\n      0x00\n        /* \"contracts/Utils.sol\":7383:8050  for (uint256 i = 0; i < PatchTrannsactions.length; i++) {... */\n    tag_182:\n        /* \"contracts/Utils.sol\":7407:7425  PatchTrannsactions */\n      0x05\n        /* \"contracts/Utils.sol\":7407:7432  PatchTrannsactions.length */\n      dup1\n      sload\n      swap1\n      pop\n        /* \"contracts/Utils.sol\":7403:7404  i */\n      dup2\n        /* \"contracts/Utils.sol\":7403:7432  i < PatchTrannsactions.length */\n      lt\n        /* \"contracts/Utils.sol\":7383:8050  for (uint256 i = 0; i < PatchTrannsactions.length; i++) {... */\n      iszero\n      tag_183\n      jumpi\n        /* \"contracts/Utils.sol\":7523:7643  compareStringsbyBytes(... */\n      tag_185\n        /* \"contracts/Utils.sol\":7566:7584  PatchTrannsactions */\n      0x05\n        /* \"contracts/Utils.sol\":7585:7586  i */\n      dup3\n        /* \"contracts/Utils.sol\":7566:7587  PatchTrannsactions[i] */\n      dup2\n      sload\n      dup2\n      lt\n      tag_186\n      jumpi\n      tag_187\n      tag_107\n      jump\t// in\n    tag_187:\n    tag_186:\n      swap1\n      0x00\n      mstore\n      keccak256(0x00, 0x20)\n      swap1\n      0x07\n      mul\n      add\n        /* \"contracts/Utils.sol\":7566:7595  PatchTrannsactions[i].PatchNo */\n      0x01\n      add\n        /* \"contracts/Utils.sol\":7523:7643  compareStringsbyBytes(... */\n      dup1\n      sload\n      tag_189\n      swap1\n      tag_116\n      jump\t// in\n    tag_189:\n      dup1\n      0x1f\n      add\n      0x20\n      dup1\n      swap2\n      div\n      mul\n      0x20\n      add\n      mload(0x40)\n      swap1\n      dup2\n      add\n      0x40\n      mstore\n      dup1\n      swap3\n      swap2\n      swap1\n      dup2\n      dup2\n      mstore\n      0x20\n      add\n      dup3\n      dup1\n      sload\n      tag_190\n      swap1\n      tag_116\n      jump\t// in\n    tag_190:\n      dup1\n      iszero\n      tag_191\n      jumpi\n      dup1\n      0x1f\n      lt\n      tag_192\n      jumpi\n      0x0100\n      dup1\n      dup4\n      sload\n      div\n      mul\n      dup4\n      mstore\n      swap2\n      0x20\n      add\n      swap2\n      jump(tag_191)\n    tag_192:\n      dup3\n      add\n      swap2\n      swap1\n      0x00\n      mstore\n      keccak256(0x00, 0x20)\n      swap1\n    tag_193:\n      dup2\n      sload\n      dup2\n      mstore\n      swap1\n      0x01\n      add\n      swap1\n      0x20\n      add\n      dup1\n      dup4\n      gt\n      tag_193\n      jumpi\n      dup3\n      swap1\n      sub\n      0x1f\n      and\n      dup3\n      add\n      swap2\n    tag_191:\n      pop\n      pop\n      pop\n      pop\n      pop\n        /* \"contracts/Utils.sol\":7617:7625  _patchno */\n      dup9\n        /* \"contracts/Utils.sol\":7523:7544  compareStringsbyBytes */\n      tag_83\n        /* \"contracts/Utils.sol\":7523:7643  compareStringsbyBytes(... */\n      jump\t// in\n    tag_185:\n        /* \"contracts/Utils.sol\":7523:7784  compareStringsbyBytes(... */\n      dup1\n      iszero\n      tag_194\n      jumpi\n      pop\n        /* \"contracts/Utils.sol\":7663:7784  compareStringsbyBytes(... */\n      tag_195\n        /* \"contracts/Utils.sol\":7706:7724  PatchTrannsactions */\n      0x05\n        /* \"contracts/Utils.sol\":7725:7726  i */\n      dup3\n        /* \"contracts/Utils.sol\":7706:7727  PatchTrannsactions[i] */\n      dup2\n      sload\n      dup2\n      lt\n      tag_196\n      jumpi\n      tag_197\n      tag_107\n      jump\t// in\n    tag_197:\n    tag_196:\n      swap1\n      0x00\n      mstore\n      keccak256(0x00, 0x20)\n      swap1\n      0x07\n      mul\n      add\n        /* \"contracts/Utils.sol\":7706:7737  PatchTrannsactions[i].DrugRegNo */\n      0x00\n      add\n        /* \"contracts/Utils.sol\":7663:7784  compareStringsbyBytes(... */\n      dup1\n      sload\n      tag_199\n      swap1\n      tag_116\n      jump\t// in\n    tag_199:\n      dup1\n      0x1f\n      add\n      0x20\n      dup1\n      swap2\n      div\n      mul\n      0x20\n      add\n      mload(0x40)\n      swap1\n      dup2\n      add\n      0x40\n      mstore\n      dup1\n      swap3\n      swap2\n      swap1\n      dup2\n      dup2\n      mstore\n      0x20\n      add\n      dup3\n      dup1\n      sload\n      tag_200\n      swap1\n      tag_116\n      jump\t// in\n    tag_200:\n      dup1\n      iszero\n      tag_201\n      jumpi\n      dup1\n      0x1f\n      lt\n      tag_202\n      jumpi\n      0x0100\n      dup1\n      dup4\n      sload\n      div\n      mul\n      dup4\n      mstore\n      swap2\n      0x20\n      add\n      swap2\n      jump(tag_201)\n    tag_202:\n      dup3\n      add\n      swap2\n      swap1\n      0x00\n      mstore\n      keccak256(0x00, 0x20)\n      swap1\n    tag_203:\n      dup2\n      sload\n      dup2\n      mstore\n      swap1\n      0x01\n      add\n      swap1\n      0x20\n      add\n      dup1\n      dup4\n      gt\n      tag_203\n      jumpi\n      dup3\n      swap1\n      sub\n      0x1f\n      and\n      dup3\n      add\n      swap2\n    tag_201:\n      pop\n      pop\n      pop\n      pop\n      pop\n        /* \"contracts/Utils.sol\":7759:7766  _drugno */\n      dup8\n        /* \"contracts/Utils.sol\":7663:7684  compareStringsbyBytes */\n      tag_83\n        /* \"contracts/Utils.sol\":7663:7784  compareStringsbyBytes(... */\n      jump\t// in\n    tag_195:\n        /* \"contracts/Utils.sol\":7523:7784  compareStringsbyBytes(... */\n    tag_194:\n        /* \"contracts/Utils.sol\":7523:7916  compareStringsbyBytes(... */\n      dup1\n      iszero\n      tag_204\n      jumpi\n      pop\n        /* \"contracts/Utils.sol\":7835:7847  _fromaddress */\n      dup5\n        /* \"contracts/Utils.sol\":7805:7847  PatchTrannsactions[i].ToID == _fromaddress */\n      0xffffffffffffffffffffffffffffffffffffffff\n      and\n        /* \"contracts/Utils.sol\":7805:7823  PatchTrannsactions */\n      0x05\n        /* \"contracts/Utils.sol\":7824:7825  i */\n      dup3\n        /* \"contracts/Utils.sol\":7805:7826  PatchTrannsactions[i] */\n      dup2\n      sload\n      dup2\n      lt\n      tag_205\n      jumpi\n      tag_206\n      tag_107\n      jump\t// in\n    tag_206:\n    tag_205:\n      swap1\n      0x00\n      mstore\n      keccak256(0x00, 0x20)\n      swap1\n      0x07\n      mul\n      add\n        /* \"contracts/Utils.sol\":7805:7831  PatchTrannsactions[i].ToID */\n      0x04\n      add\n      0x00\n      swap1\n      sload\n      swap1\n      0x0100\n      exp\n      swap1\n      div\n      0xffffffffffffffffffffffffffffffffffffffff\n      and\n        /* \"contracts/Utils.sol\":7805:7847  PatchTrannsactions[i].ToID == _fromaddress */\n      0xffffffffffffffffffffffffffffffffffffffff\n      and\n      eq\n        /* \"contracts/Utils.sol\":7805:7915  PatchTrannsactions[i].ToID == _fromaddress ||... */\n      dup1\n      tag_208\n      jumpi\n      pop\n        /* \"contracts/Utils.sol\":7903:7915  _fromaddress */\n      dup5\n        /* \"contracts/Utils.sol\":7871:7915  PatchTrannsactions[i].FromID == _fromaddress */\n      0xffffffffffffffffffffffffffffffffffffffff\n      and\n        /* \"contracts/Utils.sol\":7871:7889  PatchTrannsactions */\n      0x05\n        /* \"contracts/Utils.sol\":7890:7891  i */\n      dup3\n        /* \"contracts/Utils.sol\":7871:7892  PatchTrannsactions[i] */\n      dup2\n      sload\n      dup2\n      lt\n      tag_209\n      jumpi\n      tag_210\n      tag_107\n      jump\t// in\n    tag_210:\n    tag_209:\n      swap1\n      0x00\n      mstore\n      keccak256(0x00, 0x20)\n      swap1\n      0x07\n      mul\n      add\n        /* \"contracts/Utils.sol\":7871:7899  PatchTrannsactions[i].FromID */\n      0x03\n      add\n      0x00\n      swap1\n      sload\n      swap1\n      0x0100\n      exp\n      swap1\n      div\n      0xffffffffffffffffffffffffffffffffffffffff\n      and\n        /* \"contracts/Utils.sol\":7871:7915  PatchTrannsactions[i].FromID == _fromaddress */\n      0xffffffffffffffffffffffffffffffffffffffff\n      and\n      eq\n        /* \"contracts/Utils.sol\":7805:7915  PatchTrannsactions[i].ToID == _fromaddress ||... */\n    tag_208:\n        /* \"contracts/Utils.sol\":7523:7916  compareStringsbyBytes(... */\n    tag_204:\n        /* \"contracts/Utils.sol\":7502:8040  if (... */\n      iszero\n      tag_212\n      jumpi\n        /* \"contracts/Utils.sol\":7973:7991  PatchTrannsactions */\n      0x05\n        /* \"contracts/Utils.sol\":7992:7993  i */\n      dup2\n        /* \"contracts/Utils.sol\":7973:7994  PatchTrannsactions[i] */\n      dup2\n      sload\n      dup2\n      lt\n      tag_213\n      jumpi\n      tag_214\n      tag_107\n      jump\t// in\n    tag_214:\n    tag_213:\n      swap1\n      0x00\n      mstore\n      keccak256(0x00, 0x20)\n      swap1\n      0x07\n      mul\n      add\n        /* \"contracts/Utils.sol\":7949:7994  TempTran[MatchedRows] = PatchTrannsactions[i] */\n      mload(0x40)\n      dup1\n      0xe0\n      add\n      0x40\n      mstore\n      swap1\n      dup2\n      0x00\n      dup3\n      add\n      dup1\n      sload\n      tag_216\n      swap1\n      tag_116\n      jump\t// in\n    tag_216:\n      dup1\n      0x1f\n      add\n      0x20\n      dup1\n      swap2\n      div\n      mul\n      0x20\n      add\n      mload(0x40)\n      swap1\n      dup2\n      add\n      0x40\n      mstore\n      dup1\n      swap3\n      swap2\n      swap1\n      dup2\n      dup2\n      mstore\n      0x20\n      add\n      dup3\n      dup1\n      sload\n      tag_217\n      swap1\n      tag_116\n      jump\t// in\n    tag_217:\n      dup1\n      iszero\n      tag_218\n      jumpi\n      dup1\n      0x1f\n      lt\n      tag_219\n      jumpi\n      0x0100\n      dup1\n      dup4\n      sload\n      div\n      mul\n      dup4\n      mstore\n      swap2\n      0x20\n      add\n      swap2\n      jump(tag_218)\n    tag_219:\n      dup3\n      add\n      swap2\n      swap1\n      0x00\n      mstore\n      keccak256(0x00, 0x20)\n      swap1\n    tag_220:\n      dup2\n      sload\n      dup2\n      mstore\n      swap1\n      0x01\n      add\n      swap1\n      0x20\n      add\n      dup1\n      dup4\n      gt\n      tag_220\n      jumpi\n      dup3\n      swap1\n      sub\n      0x1f\n      and\n      dup3\n      add\n      swap2\n    tag_218:\n      pop\n      pop\n      pop\n      pop\n      pop\n      dup2\n      mstore\n      0x20\n      add\n      0x01\n      dup3\n      add\n      dup1\n      sload\n      tag_221\n      swap1\n      tag_116\n      jump\t// in\n    tag_221:\n      dup1\n      0x1f\n      add\n      0x20\n      dup1\n      swap2\n      div\n      mul\n      0x20\n      add\n      mload(0x40)\n      swap1\n      dup2\n      add\n      0x40\n      mstore\n      dup1\n      swap3\n      swap2\n      swap1\n      dup2\n      dup2\n      mstore\n      0x20\n      add\n      dup3\n      dup1\n      sload\n      tag_222\n      swap1\n      tag_116\n      jump\t// in\n    tag_222:\n      dup1\n      iszero\n      tag_223\n      jumpi\n      dup1\n      0x1f\n      lt\n      tag_224\n      jumpi\n      0x0100\n      dup1\n      dup4\n      sload\n      div\n      mul\n      dup4\n      mstore\n      swap2\n      0x20\n      add\n      swap2\n      jump(tag_223)\n    tag_224:\n      dup3\n      add\n      swap2\n      swap1\n      0x00\n      mstore\n      keccak256(0x00, 0x20)\n      swap1\n    tag_225:\n      dup2\n      sload\n      dup2\n      mstore\n      swap1\n      0x01\n      add\n      swap1\n      0x20\n      add\n      dup1\n      dup4\n      gt\n      tag_225\n      jumpi\n      dup3\n      swap1\n      sub\n      0x1f\n      and\n      dup3\n      add\n      swap2\n    tag_223:\n      pop\n      pop\n      pop\n      pop\n      pop\n      dup2\n      mstore\n      0x20\n      add\n      0x02\n      dup3\n      add\n      sload\n      dup2\n      mstore\n      0x20\n      add\n      0x03\n      dup3\n      add\n      0x00\n      swap1\n      sload\n      swap1\n      0x0100\n      exp\n      swap1\n      div\n      0xffffffffffffffffffffffffffffffffffffffff\n      and\n      0xffffffffffffffffffffffffffffffffffffffff\n      and\n      0xffffffffffffffffffffffffffffffffffffffff\n      and\n      dup2\n      mstore\n      0x20\n      add\n      0x04\n      dup3\n      add\n      0x00\n      swap1\n      sload\n      swap1\n      0x0100\n      exp\n      swap1\n      div\n      0xffffffffffffffffffffffffffffffffffffffff\n      and\n      0xffffffffffffffffffffffffffffffffffffffff\n      and\n      0xffffffffffffffffffffffffffffffffffffffff\n      and\n      dup2\n      mstore\n      0x20\n      add\n      0x05\n      dup3\n      add\n      sload\n      dup2\n      mstore\n      0x20\n      add\n      0x06\n      dup3\n      add\n      sload\n      dup2\n      mstore\n      pop\n      pop\n        /* \"contracts/Utils.sol\":7949:7957  TempTran */\n      dup3\n        /* \"contracts/Utils.sol\":7958:7969  MatchedRows */\n      dup5\n        /* \"contracts/Utils.sol\":7949:7970  TempTran[MatchedRows] */\n      dup2\n      mload\n      dup2\n      lt\n      tag_226\n      jumpi\n      tag_227\n      tag_107\n      jump\t// in\n    tag_227:\n    tag_226:\n      0x20\n      mul\n      0x20\n      add\n      add\n        /* \"contracts/Utils.sol\":7949:7994  TempTran[MatchedRows] = PatchTrannsactions[i] */\n      dup2\n      swap1\n      mstore\n      pop\n        /* \"contracts/Utils.sol\":8012:8025  MatchedRows++ */\n      dup3\n      dup1\n      tag_228\n      swap1\n      tag_149\n      jump\t// in\n    tag_228:\n      swap4\n      pop\n      pop\n        /* \"contracts/Utils.sol\":7502:8040  if (... */\n    tag_212:\n        /* \"contracts/Utils.sol\":7434:7437  i++ */\n      dup1\n      dup1\n      tag_229\n      swap1\n      tag_149\n      jump\t// in\n    tag_229:\n      swap2\n      pop\n      pop\n        /* \"contracts/Utils.sol\":7383:8050  for (uint256 i = 0; i < PatchTrannsactions.length; i++) {... */\n      jump(tag_182)\n    tag_183:\n      pop\n        /* \"contracts/Utils.sol\":8100:8111  MatchedRows */\n      dup2\n        /* \"contracts/Utils.sol\":8077:8112  new PatchTransaction[](MatchedRows) */\n      0xffffffffffffffff\n      dup2\n      gt\n      iszero\n      tag_230\n      jumpi\n      tag_231\n      tag_94\n      jump\t// in\n    tag_231:\n    tag_230:\n      mload(0x40)\n      swap1\n      dup1\n      dup3\n      mstore\n      dup1\n      0x20\n      mul\n      0x20\n      add\n      dup3\n      add\n      0x40\n      mstore\n      dup1\n      iszero\n      tag_232\n      jumpi\n      dup2\n      0x20\n      add\n    tag_233:\n      tag_234\n      tag_181\n      jump\t// in\n    tag_234:\n      dup2\n      mstore\n      0x20\n      add\n      swap1\n      0x01\n      swap1\n      sub\n      swap1\n      dup2\n      tag_233\n      jumpi\n      swap1\n      pop\n    tag_232:\n      pop\n        /* \"contracts/Utils.sol\":8059:8112  UserTransaction = new PatchTransaction[](MatchedRows) */\n      swap3\n      pop\n        /* \"contracts/Utils.sol\":8140:8141  0 */\n      0x00\n        /* \"contracts/Utils.sol\":8126:8137  MatchedRows */\n      dup3\n        /* \"contracts/Utils.sol\":8126:8141  MatchedRows > 0 */\n      gt\n        /* \"contracts/Utils.sol\":8122:8274  if (MatchedRows > 0) {... */\n      iszero\n      tag_235\n      jumpi\n        /* \"contracts/Utils.sol\":8162:8171  uint256 i */\n      0x00\n        /* \"contracts/Utils.sol\":8157:8264  for (uint256 i = 0; i < MatchedRows; i++) {... */\n    tag_236:\n        /* \"contracts/Utils.sol\":8181:8192  MatchedRows */\n      dup3\n        /* \"contracts/Utils.sol\":8177:8178  i */\n      dup2\n        /* \"contracts/Utils.sol\":8177:8192  i < MatchedRows */\n      lt\n        /* \"contracts/Utils.sol\":8157:8264  for (uint256 i = 0; i < MatchedRows; i++) {... */\n      iszero\n      tag_237\n      jumpi\n        /* \"contracts/Utils.sol\":8238:8246  TempTran */\n      dup2\n        /* \"contracts/Utils.sol\":8247:8248  i */\n      dup2\n        /* \"contracts/Utils.sol\":8238:8249  TempTran[i] */\n      dup2\n      mload\n      dup2\n      lt\n      tag_239\n      jumpi\n      tag_240\n      tag_107\n      jump\t// in\n    tag_240:\n    tag_239:\n      0x20\n      mul\n      0x20\n      add\n      add\n      mload\n        /* \"contracts/Utils.sol\":8217:8232  UserTransaction */\n      dup5\n        /* \"contracts/Utils.sol\":8233:8234  i */\n      dup3\n        /* \"contracts/Utils.sol\":8217:8235  UserTransaction[i] */\n      dup2\n      mload\n      dup2\n      lt\n      tag_241\n      jumpi\n      tag_242\n      tag_107\n      jump\t// in\n    tag_242:\n    tag_241:\n      0x20\n      mul\n      0x20\n      add\n      add\n        /* \"contracts/Utils.sol\":8217:8249  UserTransaction[i] = TempTran[i] */\n      dup2\n      swap1\n      mstore\n      pop\n        /* \"contracts/Utils.sol\":8194:8197  i++ */\n      dup1\n      dup1\n      tag_243\n      swap1\n      tag_149\n      jump\t// in\n    tag_243:\n      swap2\n      pop\n      pop\n        /* \"contracts/Utils.sol\":8157:8264  for (uint256 i = 0; i < MatchedRows; i++) {... */\n      jump(tag_236)\n    tag_237:\n      pop\n        /* \"contracts/Utils.sol\":8122:8274  if (MatchedRows > 0) {... */\n    tag_235:\n        /* \"contracts/Utils.sol\":7226:8280  {... */\n      pop\n      pop\n        /* \"contracts/Utils.sol\":7020:8280  function ReadParentAndSiblingsTransactions(... */\n      swap4\n      swap3\n      pop\n      pop\n      pop\n      jump\t// out\n        /* \"contracts/Utils.sol\":5982:7014  function ReadTransactionsByPatchNo(... */\n    tag_41:\n        /* \"contracts/Utils.sol\":6107:6148  PatchTransaction[] memory UserTransaction */\n      0x60\n        /* \"contracts/Utils.sol\":6160:6179  uint256 MatchedRows */\n      0x00\n        /* \"contracts/Utils.sol\":6189:6223  PatchTransaction[] memory TempTran */\n      dup1\n        /* \"contracts/Utils.sol\":6262:6280  PatchTrannsactions */\n      0x05\n        /* \"contracts/Utils.sol\":6262:6287  PatchTrannsactions.length */\n      dup1\n      sload\n      swap1\n      pop\n        /* \"contracts/Utils.sol\":6226:6297  new PatchTransaction[](... */\n      0xffffffffffffffff\n      dup2\n      gt\n      iszero\n      tag_245\n      jumpi\n      tag_246\n      tag_94\n      jump\t// in\n    tag_246:\n    tag_245:\n      mload(0x40)\n      swap1\n      dup1\n      dup3\n      mstore\n      dup1\n      0x20\n      mul\n      0x20\n      add\n      dup3\n      add\n      0x40\n      mstore\n      dup1\n      iszero\n      tag_247\n      jumpi\n      dup2\n      0x20\n      add\n    tag_248:\n      tag_249\n      tag_181\n      jump\t// in\n    tag_249:\n      dup2\n      mstore\n      0x20\n      add\n      swap1\n      0x01\n      swap1\n      sub\n      swap1\n      dup2\n      tag_248\n      jumpi\n      swap1\n      pop\n    tag_247:\n      pop\n        /* \"contracts/Utils.sol\":6189:6297  PatchTransaction[] memory TempTran = new PatchTransaction[](... */\n      swap1\n      pop\n        /* \"contracts/Utils.sol\":6312:6321  uint256 i */\n      0x00\n        /* \"contracts/Utils.sol\":6307:6784  for (uint256 i = 0; i < PatchTrannsactions.length; i++) {... */\n    tag_250:\n        /* \"contracts/Utils.sol\":6331:6349  PatchTrannsactions */\n      0x05\n        /* \"contracts/Utils.sol\":6331:6356  PatchTrannsactions.length */\n      dup1\n      sload\n      swap1\n      pop\n        /* \"contracts/Utils.sol\":6327:6328  i */\n      dup2\n        /* \"contracts/Utils.sol\":6327:6356  i < PatchTrannsactions.length */\n      lt\n        /* \"contracts/Utils.sol\":6307:6784  for (uint256 i = 0; i < PatchTrannsactions.length; i++) {... */\n      iszero\n      tag_251\n      jumpi\n        /* \"contracts/Utils.sol\":6447:6567  compareStringsbyBytes(... */\n      tag_253\n        /* \"contracts/Utils.sol\":6490:6508  PatchTrannsactions */\n      0x05\n        /* \"contracts/Utils.sol\":6509:6510  i */\n      dup3\n        /* \"contracts/Utils.sol\":6490:6511  PatchTrannsactions[i] */\n      dup2\n      sload\n      dup2\n      lt\n      tag_254\n      jumpi\n      tag_255\n      tag_107\n      jump\t// in\n    tag_255:\n    tag_254:\n      swap1\n      0x00\n      mstore\n      keccak256(0x00, 0x20)\n      swap1\n      0x07\n      mul\n      add\n        /* \"contracts/Utils.sol\":6490:6519  PatchTrannsactions[i].PatchNo */\n      0x01\n      add\n        /* \"contracts/Utils.sol\":6447:6567  compareStringsbyBytes(... */\n      dup1\n      sload\n      tag_257\n      swap1\n      tag_116\n      jump\t// in\n    tag_257:\n      dup1\n      0x1f\n      add\n      0x20\n      dup1\n      swap2\n      div\n      mul\n      0x20\n      add\n      mload(0x40)\n      swap1\n      dup2\n      add\n      0x40\n      mstore\n      dup1\n      swap3\n      swap2\n      swap1\n      dup2\n      dup2\n      mstore\n      0x20\n      add\n      dup3\n      dup1\n      sload\n      tag_258\n      swap1\n      tag_116\n      jump\t// in\n    tag_258:\n      dup1\n      iszero\n      tag_259\n      jumpi\n      dup1\n      0x1f\n      lt\n      tag_260\n      jumpi\n      0x0100\n      dup1\n      dup4\n      sload\n      div\n      mul\n      dup4\n      mstore\n      swap2\n      0x20\n      add\n      swap2\n      jump(tag_259)\n    tag_260:\n      dup3\n      add\n      swap2\n      swap1\n      0x00\n      mstore\n      keccak256(0x00, 0x20)\n      swap1\n    tag_261:\n      dup2\n      sload\n      dup2\n      mstore\n      swap1\n      0x01\n      add\n      swap1\n      0x20\n      add\n      dup1\n      dup4\n      gt\n      tag_261\n      jumpi\n      dup3\n      swap1\n      sub\n      0x1f\n      and\n      dup3\n      add\n      swap2\n    tag_259:\n      pop\n      pop\n      pop\n      pop\n      pop\n        /* \"contracts/Utils.sol\":6541:6549  _patchno */\n      dup8\n        /* \"contracts/Utils.sol\":6447:6468  compareStringsbyBytes */\n      tag_83\n        /* \"contracts/Utils.sol\":6447:6567  compareStringsbyBytes(... */\n      jump\t// in\n    tag_253:\n        /* \"contracts/Utils.sol\":6447:6650  compareStringsbyBytes(... */\n      dup1\n      iszero\n      tag_262\n      jumpi\n      pop\n        /* \"contracts/Utils.sol\":6587:6650  compareStringsbyBytes(PatchTrannsactions[i].DrugRegNo, _drugno) */\n      tag_263\n        /* \"contracts/Utils.sol\":6609:6627  PatchTrannsactions */\n      0x05\n        /* \"contracts/Utils.sol\":6628:6629  i */\n      dup3\n        /* \"contracts/Utils.sol\":6609:6630  PatchTrannsactions[i] */\n      dup2\n      sload\n      dup2\n      lt\n      tag_264\n      jumpi\n      tag_265\n      tag_107\n      jump\t// in\n    tag_265:\n    tag_264:\n      swap1\n      0x00\n      mstore\n      keccak256(0x00, 0x20)\n      swap1\n      0x07\n      mul\n      add\n        /* \"contracts/Utils.sol\":6609:6640  PatchTrannsactions[i].DrugRegNo */\n      0x00\n      add\n        /* \"contracts/Utils.sol\":6587:6650  compareStringsbyBytes(PatchTrannsactions[i].DrugRegNo, _drugno) */\n      dup1\n      sload\n      tag_267\n      swap1\n      tag_116\n      jump\t// in\n    tag_267:\n      dup1\n      0x1f\n      add\n      0x20\n      dup1\n      swap2\n      div\n      mul\n      0x20\n      add\n      mload(0x40)\n      swap1\n      dup2\n      add\n      0x40\n      mstore\n      dup1\n      swap3\n      swap2\n      swap1\n      dup2\n      dup2\n      mstore\n      0x20\n      add\n      dup3\n      dup1\n      sload\n      tag_268\n      swap1\n      tag_116\n      jump\t// in\n    tag_268:\n      dup1\n      iszero\n      tag_269\n      jumpi\n      dup1\n      0x1f\n      lt\n      tag_270\n      jumpi\n      0x0100\n      dup1\n      dup4\n      sload\n      div\n      mul\n      dup4\n      mstore\n      swap2\n      0x20\n      add\n      swap2\n      jump(tag_269)\n    tag_270:\n      dup3\n      add\n      swap2\n      swap1\n      0x00\n      mstore\n      keccak256(0x00, 0x20)\n      swap1\n    tag_271:\n      dup2\n      sload\n      dup2\n      mstore\n      swap1\n      0x01\n      add\n      swap1\n      0x20\n      add\n      dup1\n      dup4\n      gt\n      tag_271\n      jumpi\n      dup3\n      swap1\n      sub\n      0x1f\n      and\n      dup3\n      add\n      swap2\n    tag_269:\n      pop\n      pop\n      pop\n      pop\n      pop\n        /* \"contracts/Utils.sol\":6642:6649  _drugno */\n      dup7\n        /* \"contracts/Utils.sol\":6587:6608  compareStringsbyBytes */\n      tag_83\n        /* \"contracts/Utils.sol\":6587:6650  compareStringsbyBytes(PatchTrannsactions[i].DrugRegNo, _drugno) */\n      jump\t// in\n    tag_263:\n        /* \"contracts/Utils.sol\":6447:6650  compareStringsbyBytes(... */\n    tag_262:\n        /* \"contracts/Utils.sol\":6426:6774  if (... */\n      iszero\n      tag_272\n      jumpi\n        /* \"contracts/Utils.sol\":6707:6725  PatchTrannsactions */\n      0x05\n        /* \"contracts/Utils.sol\":6726:6727  i */\n      dup2\n        /* \"contracts/Utils.sol\":6707:6728  PatchTrannsactions[i] */\n      dup2\n      sload\n      dup2\n      lt\n      tag_273\n      jumpi\n      tag_274\n      tag_107\n      jump\t// in\n    tag_274:\n    tag_273:\n      swap1\n      0x00\n      mstore\n      keccak256(0x00, 0x20)\n      swap1\n      0x07\n      mul\n      add\n        /* \"contracts/Utils.sol\":6683:6728  TempTran[MatchedRows] = PatchTrannsactions[i] */\n      mload(0x40)\n      dup1\n      0xe0\n      add\n      0x40\n      mstore\n      swap1\n      dup2\n      0x00\n      dup3\n      add\n      dup1\n      sload\n      tag_276\n      swap1\n      tag_116\n      jump\t// in\n    tag_276:\n      dup1\n      0x1f\n      add\n      0x20\n      dup1\n      swap2\n      div\n      mul\n      0x20\n      add\n      mload(0x40)\n      swap1\n      dup2\n      add\n      0x40\n      mstore\n      dup1\n      swap3\n      swap2\n      swap1\n      dup2\n      dup2\n      mstore\n      0x20\n      add\n      dup3\n      dup1\n      sload\n      tag_277\n      swap1\n      tag_116\n      jump\t// in\n    tag_277:\n      dup1\n      iszero\n      tag_278\n      jumpi\n      dup1\n      0x1f\n      lt\n      tag_279\n      jumpi\n      0x0100\n      dup1\n      dup4\n      sload\n      div\n      mul\n      dup4\n      mstore\n      swap2\n      0x20\n      add\n      swap2\n      jump(tag_278)\n    tag_279:\n      dup3\n      add\n      swap2\n      swap1\n      0x00\n      mstore\n      keccak256(0x00, 0x20)\n      swap1\n    tag_280:\n      dup2\n      sload\n      dup2\n      mstore\n      swap1\n      0x01\n      add\n      swap1\n      0x20\n      add\n      dup1\n      dup4\n      gt\n      tag_280\n      jumpi\n      dup3\n      swap1\n      sub\n      0x1f\n      and\n      dup3\n      add\n      swap2\n    tag_278:\n      pop\n      pop\n      pop\n      pop\n      pop\n      dup2\n      mstore\n      0x20\n      add\n      0x01\n      dup3\n      add\n      dup1\n      sload\n      tag_281\n      swap1\n      tag_116\n      jump\t// in\n    tag_281:\n      dup1\n      0x1f\n      add\n      0x20\n      dup1\n      swap2\n      div\n      mul\n      0x20\n      add\n      mload(0x40)\n      swap1\n      dup2\n      add\n      0x40\n      mstore\n      dup1\n      swap3\n      swap2\n      swap1\n      dup2\n      dup2\n      mstore\n      0x20\n      add\n      dup3\n      dup1\n      sload\n      tag_282\n      swap1\n      tag_116\n      jump\t// in\n    tag_282:\n      dup1\n      iszero\n      tag_283\n      jumpi\n      dup1\n      0x1f\n      lt\n      tag_284\n      jumpi\n      0x0100\n      dup1\n      dup4\n      sload\n      div\n      mul\n      dup4\n      mstore\n      swap2\n      0x20\n      add\n      swap2\n      jump(tag_283)\n    tag_284:\n      dup3\n      add\n      swap2\n      swap1\n      0x00\n      mstore\n      keccak256(0x00, 0x20)\n      swap1\n    tag_285:\n      dup2\n      sload\n      dup2\n      mstore\n      swap1\n      0x01\n      add\n      swap1\n      0x20\n      add\n      dup1\n      dup4\n      gt\n      tag_285\n      jumpi\n      dup3\n      swap1\n      sub\n      0x1f\n      and\n      dup3\n      add\n      swap2\n    tag_283:\n      pop\n      pop\n      pop\n      pop\n      pop\n      dup2\n      mstore\n      0x20\n      add\n      0x02\n      dup3\n      add\n      sload\n      dup2\n      mstore\n      0x20\n      add\n      0x03\n      dup3\n      add\n      0x00\n      swap1\n      sload\n      swap1\n      0x0100\n      exp\n      swap1\n      div\n      0xffffffffffffffffffffffffffffffffffffffff\n      and\n      0xffffffffffffffffffffffffffffffffffffffff\n      and\n      0xffffffffffffffffffffffffffffffffffffffff\n      and\n      dup2\n      mstore\n      0x20\n      add\n      0x04\n      dup3\n      add\n      0x00\n      swap1\n      sload\n      swap1\n      0x0100\n      exp\n      swap1\n      div\n      0xffffffffffffffffffffffffffffffffffffffff\n      and\n      0xffffffffffffffffffffffffffffffffffffffff\n      and\n      0xffffffffffffffffffffffffffffffffffffffff\n      and\n      dup2\n      mstore\n      0x20\n      add\n      0x05\n      dup3\n      add\n      sload\n      dup2\n      mstore\n      0x20\n      add\n      0x06\n      dup3\n      add\n      sload\n      dup2\n      mstore\n      pop\n      pop\n        /* \"contracts/Utils.sol\":6683:6691  TempTran */\n      dup3\n        /* \"contracts/Utils.sol\":6692:6703  MatchedRows */\n      dup5\n        /* \"contracts/Utils.sol\":6683:6704  TempTran[MatchedRows] */\n      dup2\n      mload\n      dup2\n      lt\n      tag_286\n      jumpi\n      tag_287\n      tag_107\n      jump\t// in\n    tag_287:\n    tag_286:\n      0x20\n      mul\n      0x20\n      add\n      add\n        /* \"contracts/Utils.sol\":6683:6728  TempTran[MatchedRows] = PatchTrannsactions[i] */\n      dup2\n      swap1\n      mstore\n      pop\n        /* \"contracts/Utils.sol\":6746:6759  MatchedRows++ */\n      dup3\n      dup1\n      tag_288\n      swap1\n      tag_149\n      jump\t// in\n    tag_288:\n      swap4\n      pop\n      pop\n        /* \"contracts/Utils.sol\":6426:6774  if (... */\n    tag_272:\n        /* \"contracts/Utils.sol\":6358:6361  i++ */\n      dup1\n      dup1\n      tag_289\n      swap1\n      tag_149\n      jump\t// in\n    tag_289:\n      swap2\n      pop\n      pop\n        /* \"contracts/Utils.sol\":6307:6784  for (uint256 i = 0; i < PatchTrannsactions.length; i++) {... */\n      jump(tag_250)\n    tag_251:\n      pop\n        /* \"contracts/Utils.sol\":6834:6845  MatchedRows */\n      dup2\n        /* \"contracts/Utils.sol\":6811:6846  new PatchTransaction[](MatchedRows) */\n      0xffffffffffffffff\n      dup2\n      gt\n      iszero\n      tag_290\n      jumpi\n      tag_291\n      tag_94\n      jump\t// in\n    tag_291:\n    tag_290:\n      mload(0x40)\n      swap1\n      dup1\n      dup3\n      mstore\n      dup1\n      0x20\n      mul\n      0x20\n      add\n      dup3\n      add\n      0x40\n      mstore\n      dup1\n      iszero\n      tag_292\n      jumpi\n      dup2\n      0x20\n      add\n    tag_293:\n      tag_294\n      tag_181\n      jump\t// in\n    tag_294:\n      dup2\n      mstore\n      0x20\n      add\n      swap1\n      0x01\n      swap1\n      sub\n      swap1\n      dup2\n      tag_293\n      jumpi\n      swap1\n      pop\n    tag_292:\n      pop\n        /* \"contracts/Utils.sol\":6793:6846  UserTransaction = new PatchTransaction[](MatchedRows) */\n      swap3\n      pop\n        /* \"contracts/Utils.sol\":6874:6875  0 */\n      0x00\n        /* \"contracts/Utils.sol\":6860:6871  MatchedRows */\n      dup3\n        /* \"contracts/Utils.sol\":6860:6875  MatchedRows > 0 */\n      gt\n        /* \"contracts/Utils.sol\":6856:7008  if (MatchedRows > 0) {... */\n      iszero\n      tag_295\n      jumpi\n        /* \"contracts/Utils.sol\":6896:6905  uint256 i */\n      0x00\n        /* \"contracts/Utils.sol\":6891:6998  for (uint256 i = 0; i < MatchedRows; i++) {... */\n    tag_296:\n        /* \"contracts/Utils.sol\":6915:6926  MatchedRows */\n      dup3\n        /* \"contracts/Utils.sol\":6911:6912  i */\n      dup2\n        /* \"contracts/Utils.sol\":6911:6926  i < MatchedRows */\n      lt\n        /* \"contracts/Utils.sol\":6891:6998  for (uint256 i = 0; i < MatchedRows; i++) {... */\n      iszero\n      tag_297\n      jumpi\n        /* \"contracts/Utils.sol\":6972:6980  TempTran */\n      dup2\n        /* \"contracts/Utils.sol\":6981:6982  i */\n      dup2\n        /* \"contracts/Utils.sol\":6972:6983  TempTran[i] */\n      dup2\n      mload\n      dup2\n      lt\n      tag_299\n      jumpi\n      tag_300\n      tag_107\n      jump\t// in\n    tag_300:\n    tag_299:\n      0x20\n      mul\n      0x20\n      add\n      add\n      mload\n        /* \"contracts/Utils.sol\":6951:6966  UserTransaction */\n      dup5\n        /* \"contracts/Utils.sol\":6967:6968  i */\n      dup3\n        /* \"contracts/Utils.sol\":6951:6969  UserTransaction[i] */\n      dup2\n      mload\n      dup2\n      lt\n      tag_301\n      jumpi\n      tag_302\n      tag_107\n      jump\t// in\n    tag_302:\n    tag_301:\n      0x20\n      mul\n      0x20\n      add\n      add\n        /* \"contracts/Utils.sol\":6951:6983  UserTransaction[i] = TempTran[i] */\n      dup2\n      swap1\n      mstore\n      pop\n        /* \"contracts/Utils.sol\":6928:6931  i++ */\n      dup1\n      dup1\n      tag_303\n      swap1\n      tag_149\n      jump\t// in\n    tag_303:\n      swap2\n      pop\n      pop\n        /* \"contracts/Utils.sol\":6891:6998  for (uint256 i = 0; i < MatchedRows; i++) {... */\n      jump(tag_296)\n    tag_297:\n      pop\n        /* \"contracts/Utils.sol\":6856:7008  if (MatchedRows > 0) {... */\n    tag_295:\n        /* \"contracts/Utils.sol\":6150:7014  {... */\n      pop\n      pop\n        /* \"contracts/Utils.sol\":5982:7014  function ReadTransactionsByPatchNo(... */\n      swap3\n      swap2\n      pop\n      pop\n      jump\t// out\n        /* \"contracts/Utils.sol\":5105:5976  function ReadTransactionsByDrug(string memory _drugno)... */\n    tag_46:\n        /* \"contracts/Utils.sol\":5205:5246  PatchTransaction[] memory UserTransaction */\n      0x60\n        /* \"contracts/Utils.sol\":5262:5281  uint256 MatchedRows */\n      0x00\n        /* \"contracts/Utils.sol\":5291:5325  PatchTransaction[] memory TempTran */\n      dup1\n        /* \"contracts/Utils.sol\":5364:5382  PatchTrannsactions */\n      0x05\n        /* \"contracts/Utils.sol\":5364:5389  PatchTrannsactions.length */\n      dup1\n      sload\n      swap1\n      pop\n        /* \"contracts/Utils.sol\":5328:5399  new PatchTransaction[](... */\n      0xffffffffffffffff\n      dup2\n      gt\n      iszero\n      tag_305\n      jumpi\n      tag_306\n      tag_94\n      jump\t// in\n    tag_306:\n    tag_305:\n      mload(0x40)\n      swap1\n      dup1\n      dup3\n      mstore\n      dup1\n      0x20\n      mul\n      0x20\n      add\n      dup3\n      add\n      0x40\n      mstore\n      dup1\n      iszero\n      tag_307\n      jumpi\n      dup2\n      0x20\n      add\n    tag_308:\n      tag_309\n      tag_181\n      jump\t// in\n    tag_309:\n      dup2\n      mstore\n      0x20\n      add\n      swap1\n      0x01\n      swap1\n      sub\n      swap1\n      dup2\n      tag_308\n      jumpi\n      swap1\n      pop\n    tag_307:\n      pop\n        /* \"contracts/Utils.sol\":5291:5399  PatchTransaction[] memory TempTran = new PatchTransaction[](... */\n      swap1\n      pop\n        /* \"contracts/Utils.sol\":5414:5423  uint256 i */\n      0x00\n        /* \"contracts/Utils.sol\":5409:5746  for (uint256 i = 0; i < PatchTrannsactions.length; i++) {... */\n    tag_310:\n        /* \"contracts/Utils.sol\":5433:5451  PatchTrannsactions */\n      0x05\n        /* \"contracts/Utils.sol\":5433:5458  PatchTrannsactions.length */\n      dup1\n      sload\n      swap1\n      pop\n        /* \"contracts/Utils.sol\":5429:5430  i */\n      dup2\n        /* \"contracts/Utils.sol\":5429:5458  i < PatchTrannsactions.length */\n      lt\n        /* \"contracts/Utils.sol\":5409:5746  for (uint256 i = 0; i < PatchTrannsactions.length; i++) {... */\n      iszero\n      tag_311\n      jumpi\n        /* \"contracts/Utils.sol\":5549:5612  compareStringsbyBytes(PatchTrannsactions[i].DrugRegNo, _drugno) */\n      tag_313\n        /* \"contracts/Utils.sol\":5571:5589  PatchTrannsactions */\n      0x05\n        /* \"contracts/Utils.sol\":5590:5591  i */\n      dup3\n        /* \"contracts/Utils.sol\":5571:5592  PatchTrannsactions[i] */\n      dup2\n      sload\n      dup2\n      lt\n      tag_314\n      jumpi\n      tag_315\n      tag_107\n      jump\t// in\n    tag_315:\n    tag_314:\n      swap1\n      0x00\n      mstore\n      keccak256(0x00, 0x20)\n      swap1\n      0x07\n      mul\n      add\n        /* \"contracts/Utils.sol\":5571:5602  PatchTrannsactions[i].DrugRegNo */\n      0x00\n      add\n        /* \"contracts/Utils.sol\":5549:5612  compareStringsbyBytes(PatchTrannsactions[i].DrugRegNo, _drugno) */\n      dup1\n      sload\n      tag_317\n      swap1\n      tag_116\n      jump\t// in\n    tag_317:\n      dup1\n      0x1f\n      add\n      0x20\n      dup1\n      swap2\n      div\n      mul\n      0x20\n      add\n      mload(0x40)\n      swap1\n      dup2\n      add\n      0x40\n      mstore\n      dup1\n      swap3\n      swap2\n      swap1\n      dup2\n      dup2\n      mstore\n      0x20\n      add\n      dup3\n      dup1\n      sload\n      tag_318\n      swap1\n      tag_116\n      jump\t// in\n    tag_318:\n      dup1\n      iszero\n      tag_319\n      jumpi\n      dup1\n      0x1f\n      lt\n      tag_320\n      jumpi\n      0x0100\n      dup1\n      dup4\n      sload\n      div\n      mul\n      dup4\n      mstore\n      swap2\n      0x20\n      add\n      swap2\n      jump(tag_319)\n    tag_320:\n      dup3\n      add\n      swap2\n      swap1\n      0x00\n      mstore\n      keccak256(0x00, 0x20)\n      swap1\n    tag_321:\n      dup2\n      sload\n      dup2\n      mstore\n      swap1\n      0x01\n      add\n      swap1\n      0x20\n      add\n      dup1\n      dup4\n      gt\n      tag_321\n      jumpi\n      dup3\n      swap1\n      sub\n      0x1f\n      and\n      dup3\n      add\n      swap2\n    tag_319:\n      pop\n      pop\n      pop\n      pop\n      pop\n        /* \"contracts/Utils.sol\":5604:5611  _drugno */\n      dup7\n        /* \"contracts/Utils.sol\":5549:5570  compareStringsbyBytes */\n      tag_83\n        /* \"contracts/Utils.sol\":5549:5612  compareStringsbyBytes(PatchTrannsactions[i].DrugRegNo, _drugno) */\n      jump\t// in\n    tag_313:\n        /* \"contracts/Utils.sol\":5528:5736  if (... */\n      iszero\n      tag_322\n      jumpi\n        /* \"contracts/Utils.sol\":5669:5687  PatchTrannsactions */\n      0x05\n        /* \"contracts/Utils.sol\":5688:5689  i */\n      dup2\n        /* \"contracts/Utils.sol\":5669:5690  PatchTrannsactions[i] */\n      dup2\n      sload\n      dup2\n      lt\n      tag_323\n      jumpi\n      tag_324\n      tag_107\n      jump\t// in\n    tag_324:\n    tag_323:\n      swap1\n      0x00\n      mstore\n      keccak256(0x00, 0x20)\n      swap1\n      0x07\n      mul\n      add\n        /* \"contracts/Utils.sol\":5645:5690  TempTran[MatchedRows] = PatchTrannsactions[i] */\n      mload(0x40)\n      dup1\n      0xe0\n      add\n      0x40\n      mstore\n      swap1\n      dup2\n      0x00\n      dup3\n      add\n      dup1\n      sload\n      tag_326\n      swap1\n      tag_116\n      jump\t// in\n    tag_326:\n      dup1\n      0x1f\n      add\n      0x20\n      dup1\n      swap2\n      div\n      mul\n      0x20\n      add\n      mload(0x40)\n      swap1\n      dup2\n      add\n      0x40\n      mstore\n      dup1\n      swap3\n      swap2\n      swap1\n      dup2\n      dup2\n      mstore\n      0x20\n      add\n      dup3\n      dup1\n      sload\n      tag_327\n      swap1\n      tag_116\n      jump\t// in\n    tag_327:\n      dup1\n      iszero\n      tag_328\n      jumpi\n      dup1\n      0x1f\n      lt\n      tag_329\n      jumpi\n      0x0100\n      dup1\n      dup4\n      sload\n      div\n      mul\n      dup4\n      mstore\n      swap2\n      0x20\n      add\n      swap2\n      jump(tag_328)\n    tag_329:\n      dup3\n      add\n      swap2\n      swap1\n      0x00\n      mstore\n      keccak256(0x00, 0x20)\n      swap1\n    tag_330:\n      dup2\n      sload\n      dup2\n      mstore\n      swap1\n      0x01\n      add\n      swap1\n      0x20\n      add\n      dup1\n      dup4\n      gt\n      tag_330\n      jumpi\n      dup3\n      swap1\n      sub\n      0x1f\n      and\n      dup3\n      add\n      swap2\n    tag_328:\n      pop\n      pop\n      pop\n      pop\n      pop\n      dup2\n      mstore\n      0x20\n      add\n      0x01\n      dup3\n      add\n      dup1\n      sload\n      tag_331\n      swap1\n      tag_116\n      jump\t// in\n    tag_331:\n      dup1\n      0x1f\n      add\n      0x20\n      dup1\n      swap2\n      div\n      mul\n      0x20\n      add\n      mload(0x40)\n      swap1\n      dup2\n      add\n      0x40\n      mstore\n      dup1\n      swap3\n      swap2\n      swap1\n      dup2\n      dup2\n      mstore\n      0x20\n      add\n      dup3\n      dup1\n      sload\n      tag_332\n      swap1\n      tag_116\n      jump\t// in\n    tag_332:\n      dup1\n      iszero\n      tag_333\n      jumpi\n      dup1\n      0x1f\n      lt\n      tag_334\n      jumpi\n      0x0100\n      dup1\n      dup4\n      sload\n      div\n      mul\n      dup4\n      mstore\n      swap2\n      0x20\n      add\n      swap2\n      jump(tag_333)\n    tag_334:\n      dup3\n      add\n      swap2\n      swap1\n      0x00\n      mstore\n      keccak256(0x00, 0x20)\n      swap1\n    tag_335:\n      dup2\n      sload\n      dup2\n      mstore\n      swap1\n      0x01\n      add\n      swap1\n      0x20\n      add\n      dup1\n      dup4\n      gt\n      tag_335\n      jumpi\n      dup3\n      swap1\n      sub\n      0x1f\n      and\n      dup3\n      add\n      swap2\n    tag_333:\n      pop\n      pop\n      pop\n      pop\n      pop\n      dup2\n      mstore\n      0x20\n      add\n      0x02\n      dup3\n      add\n      sload\n      dup2\n      mstore\n      0x20\n      add\n      0x03\n      dup3\n      add\n      0x00\n      swap1\n      sload\n      swap1\n      0x0100\n      exp\n      swap1\n      div\n      0xffffffffffffffffffffffffffffffffffffffff\n      and\n      0xffffffffffffffffffffffffffffffffffffffff\n      and\n      0xffffffffffffffffffffffffffffffffffffffff\n      and\n      dup2\n      mstore\n      0x20\n      add\n      0x04\n      dup3\n      add\n      0x00\n      swap1\n      sload\n      swap1\n      0x0100\n      exp\n      swap1\n      div\n      0xffffffffffffffffffffffffffffffffffffffff\n      and\n      0xffffffffffffffffffffffffffffffffffffffff\n      and\n      0xffffffffffffffffffffffffffffffffffffffff\n      and\n      dup2\n      mstore\n      0x20\n      add\n      0x05\n      dup3\n      add\n      sload\n      dup2\n      mstore\n      0x20\n      add\n      0x06\n      dup3\n      add\n      sload\n      dup2\n      mstore\n      pop\n      pop\n        /* \"contracts/Utils.sol\":5645:5653  TempTran */\n      dup3\n        /* \"contracts/Utils.sol\":5654:5665  MatchedRows */\n      dup5\n        /* \"contracts/Utils.sol\":5645:5666  TempTran[MatchedRows] */\n      dup2\n      mload\n      dup2\n      lt\n      tag_336\n      jumpi\n      tag_337\n      tag_107\n      jump\t// in\n    tag_337:\n    tag_336:\n      0x20\n      mul\n      0x20\n      add\n      add\n        /* \"contracts/Utils.sol\":5645:5690  TempTran[MatchedRows] = PatchTrannsactions[i] */\n      dup2\n      swap1\n      mstore\n      pop\n        /* \"contracts/Utils.sol\":5708:5721  MatchedRows++ */\n      dup3\n      dup1\n      tag_338\n      swap1\n      tag_149\n      jump\t// in\n    tag_338:\n      swap4\n      pop\n      pop\n        /* \"contracts/Utils.sol\":5528:5736  if (... */\n    tag_322:\n        /* \"contracts/Utils.sol\":5460:5463  i++ */\n      dup1\n      dup1\n      tag_339\n      swap1\n      tag_149\n      jump\t// in\n    tag_339:\n      swap2\n      pop\n      pop\n        /* \"contracts/Utils.sol\":5409:5746  for (uint256 i = 0; i < PatchTrannsactions.length; i++) {... */\n      jump(tag_310)\n    tag_311:\n      pop\n        /* \"contracts/Utils.sol\":5796:5807  MatchedRows */\n      dup2\n        /* \"contracts/Utils.sol\":5773:5808  new PatchTransaction[](MatchedRows) */\n      0xffffffffffffffff\n      dup2\n      gt\n      iszero\n      tag_340\n      jumpi\n      tag_341\n      tag_94\n      jump\t// in\n    tag_341:\n    tag_340:\n      mload(0x40)\n      swap1\n      dup1\n      dup3\n      mstore\n      dup1\n      0x20\n      mul\n      0x20\n      add\n      dup3\n      add\n      0x40\n      mstore\n      dup1\n      iszero\n      tag_342\n      jumpi\n      dup2\n      0x20\n      add\n    tag_343:\n      tag_344\n      tag_181\n      jump\t// in\n    tag_344:\n      dup2\n      mstore\n      0x20\n      add\n      swap1\n      0x01\n      swap1\n      sub\n      swap1\n      dup2\n      tag_343\n      jumpi\n      swap1\n      pop\n    tag_342:\n      pop\n        /* \"contracts/Utils.sol\":5755:5808  UserTransaction = new PatchTransaction[](MatchedRows) */\n      swap3\n      pop\n        /* \"contracts/Utils.sol\":5836:5837  0 */\n      0x00\n        /* \"contracts/Utils.sol\":5822:5833  MatchedRows */\n      dup3\n        /* \"contracts/Utils.sol\":5822:5837  MatchedRows > 0 */\n      gt\n        /* \"contracts/Utils.sol\":5818:5970  if (MatchedRows > 0) {... */\n      iszero\n      tag_345\n      jumpi\n        /* \"contracts/Utils.sol\":5858:5867  uint256 i */\n      0x00\n        /* \"contracts/Utils.sol\":5853:5960  for (uint256 i = 0; i < MatchedRows; i++) {... */\n    tag_346:\n        /* \"contracts/Utils.sol\":5877:5888  MatchedRows */\n      dup3\n        /* \"contracts/Utils.sol\":5873:5874  i */\n      dup2\n        /* \"contracts/Utils.sol\":5873:5888  i < MatchedRows */\n      lt\n        /* \"contracts/Utils.sol\":5853:5960  for (uint256 i = 0; i < MatchedRows; i++) {... */\n      iszero\n      tag_347\n      jumpi\n        /* \"contracts/Utils.sol\":5934:5942  TempTran */\n      dup2\n        /* \"contracts/Utils.sol\":5943:5944  i */\n      dup2\n        /* \"contracts/Utils.sol\":5934:5945  TempTran[i] */\n      dup2\n      mload\n      dup2\n      lt\n      tag_349\n      jumpi\n      tag_350\n      tag_107\n      jump\t// in\n    tag_350:\n    tag_349:\n      0x20\n      mul\n      0x20\n      add\n      add\n      mload\n        /* \"contracts/Utils.sol\":5913:5928  UserTransaction */\n      dup5\n        /* \"contracts/Utils.sol\":5929:5930  i */\n      dup3\n        /* \"contracts/Utils.sol\":5913:5931  UserTransaction[i] */\n      dup2\n      mload\n      dup2\n      lt\n      tag_351\n      jumpi\n      tag_352\n      tag_107\n      jump\t// in\n    tag_352:\n    tag_351:\n      0x20\n      mul\n      0x20\n      add\n      add\n        /* \"contracts/Utils.sol\":5913:5945  UserTransaction[i] = TempTran[i] */\n      dup2\n      swap1\n      mstore\n      pop\n        /* \"contracts/Utils.sol\":5890:5893  i++ */\n      dup1\n      dup1\n      tag_353\n      swap1\n      tag_149\n      jump\t// in\n    tag_353:\n      swap2\n      pop\n      pop\n        /* \"contracts/Utils.sol\":5853:5960  for (uint256 i = 0; i < MatchedRows; i++) {... */\n      jump(tag_346)\n    tag_347:\n      pop\n        /* \"contracts/Utils.sol\":5818:5970  if (MatchedRows > 0) {... */\n    tag_345:\n        /* \"contracts/Utils.sol\":5252:5976  {... */\n      pop\n      pop\n        /* \"contracts/Utils.sol\":5105:5976  function ReadTransactionsByDrug(string memory _drugno)... */\n      swap2\n      swap1\n      pop\n      jump\t// out\n        /* \"contracts/Utils.sol\":2427:2836  function ReadRoleByUser()... */\n    tag_49:\n        /* \"contracts/Utils.sol\":2498:2517  UserRoles _userrole */\n      0x00\n        /* \"contracts/Utils.sol\":2551:2556  Owner */\n      dup1\n      0x00\n      swap1\n      sload\n      swap1\n      0x0100\n      exp\n      swap1\n      div\n      0xffffffffffffffffffffffffffffffffffffffff\n      and\n        /* \"contracts/Utils.sol\":2537:2556  msg.sender == Owner */\n      0xffffffffffffffffffffffffffffffffffffffff\n      and\n        /* \"contracts/Utils.sol\":2537:2547  msg.sender */\n      caller\n        /* \"contracts/Utils.sol\":2537:2556  msg.sender == Owner */\n      0xffffffffffffffffffffffffffffffffffffffff\n      and\n      eq\n        /* \"contracts/Utils.sol\":2533:2830  if (msg.sender == Owner) {... */\n      iszero\n      tag_355\n      jumpi\n        /* \"contracts/Utils.sol\":2584:2603  UserRoles.Regulator */\n      0x01\n        /* \"contracts/Utils.sol\":2572:2603  _userrole = UserRoles.Regulator */\n      swap1\n      pop\n        /* \"contracts/Utils.sol\":2533:2830  if (msg.sender == Owner) {... */\n      jump(tag_356)\n    tag_355:\n        /* \"contracts/Utils.sol\":2677:2678  0 */\n      0x00\n        /* \"contracts/Utils.sol\":2623:2679  UserAddressMapping[msg.sender].UserAddress == address(0) */\n      0xffffffffffffffffffffffffffffffffffffffff\n      and\n        /* \"contracts/Utils.sol\":2623:2641  UserAddressMapping */\n      0x01\n        /* \"contracts/Utils.sol\":2623:2653  UserAddressMapping[msg.sender] */\n      0x00\n        /* \"contracts/Utils.sol\":2642:2652  msg.sender */\n      caller\n        /* \"contracts/Utils.sol\":2623:2653  UserAddressMapping[msg.sender] */\n      0xffffffffffffffffffffffffffffffffffffffff\n      and\n      0xffffffffffffffffffffffffffffffffffffffff\n      and\n      dup2\n      mstore\n      0x20\n      add\n      swap1\n      dup2\n      mstore\n      0x20\n      add\n      0x00\n      keccak256\n        /* \"contracts/Utils.sol\":2623:2665  UserAddressMapping[msg.sender].UserAddress */\n      0x05\n      add\n      0x00\n      swap1\n      sload\n      swap1\n      0x0100\n      exp\n      swap1\n      div\n      0xffffffffffffffffffffffffffffffffffffffff\n      and\n        /* \"contracts/Utils.sol\":2623:2679  UserAddressMapping[msg.sender].UserAddress == address(0) */\n      0xffffffffffffffffffffffffffffffffffffffff\n      and\n      eq\n        /* \"contracts/Utils.sol\":2619:2830  if (UserAddressMapping[msg.sender].UserAddress == address(0)){... */\n      iszero\n      tag_357\n      jumpi\n        /* \"contracts/Utils.sol\":2706:2728  UserRoles.Unregistered */\n      0x00\n        /* \"contracts/Utils.sol\":2694:2728  _userrole = UserRoles.Unregistered */\n      swap1\n      pop\n        /* \"contracts/Utils.sol\":2619:2830  if (UserAddressMapping[msg.sender].UserAddress == address(0)){... */\n      jump(tag_358)\n    tag_357:\n        /* \"contracts/Utils.sol\":2780:2798  UserAddressMapping */\n      0x01\n        /* \"contracts/Utils.sol\":2780:2810  UserAddressMapping[msg.sender] */\n      0x00\n        /* \"contracts/Utils.sol\":2799:2809  msg.sender */\n      caller\n        /* \"contracts/Utils.sol\":2780:2810  UserAddressMapping[msg.sender] */\n      0xffffffffffffffffffffffffffffffffffffffff\n      and\n      0xffffffffffffffffffffffffffffffffffffffff\n      and\n      dup2\n      mstore\n      0x20\n      add\n      swap1\n      dup2\n      mstore\n      0x20\n      add\n      0x00\n      keccak256\n        /* \"contracts/Utils.sol\":2780:2819  UserAddressMapping[msg.sender].UserRole */\n      0x02\n      add\n      0x00\n      swap1\n      sload\n      swap1\n      0x0100\n      exp\n      swap1\n      div\n      0xff\n      and\n        /* \"contracts/Utils.sol\":2768:2819  _userrole = UserAddressMapping[msg.sender].UserRole */\n      swap1\n      pop\n        /* \"contracts/Utils.sol\":2619:2830  if (UserAddressMapping[msg.sender].UserAddress == address(0)){... */\n    tag_358:\n        /* \"contracts/Utils.sol\":2533:2830  if (msg.sender == Owner) {... */\n    tag_356:\n        /* \"contracts/Utils.sol\":2427:2836  function ReadRoleByUser()... */\n      swap1\n      jump\t// out\n        /* \"contracts/Utils.sol\":8286:9040  function ReturnRemainingAmount(... */\n    tag_54:\n        /* \"contracts/Utils.sol\":8437:8458  uint256 _remainamount */\n      0x00\n        /* \"contracts/Utils.sol\":8470:8523  PatchTransaction[]... */\n      dup1\n        /* \"contracts/Utils.sol\":8526:8654  ReadParentAndSiblingsTransactions(... */\n      tag_360\n        /* \"contracts/Utils.sol\":8577:8585  _patchno */\n      dup6\n        /* \"contracts/Utils.sol\":8603:8610  _drugno */\n      dup6\n        /* \"contracts/Utils.sol\":8628:8640  _fromaddress */\n      dup6\n        /* \"contracts/Utils.sol\":8526:8559  ReadParentAndSiblingsTransactions */\n      tag_35\n        /* \"contracts/Utils.sol\":8526:8654  ReadParentAndSiblingsTransactions(... */\n      jump\t// in\n    tag_360:\n        /* \"contracts/Utils.sol\":8470:8654  PatchTransaction[]... */\n      swap1\n      pop\n        /* \"contracts/Utils.sol\":8664:8682  uint256 mainAmount */\n      0x00\n        /* \"contracts/Utils.sol\":8692:8708  uint256 toAmount */\n      dup1\n        /* \"contracts/Utils.sol\":8723:8732  uint256 i */\n      0x00\n        /* \"contracts/Utils.sol\":8718:8987  for (uint256 i = 0; i < UserTransaction.length; i++) {... */\n    tag_361:\n        /* \"contracts/Utils.sol\":8742:8757  UserTransaction */\n      dup4\n        /* \"contracts/Utils.sol\":8742:8764  UserTransaction.length */\n      mload\n        /* \"contracts/Utils.sol\":8738:8739  i */\n      dup2\n        /* \"contracts/Utils.sol\":8738:8764  i < UserTransaction.length */\n      lt\n        /* \"contracts/Utils.sol\":8718:8987  for (uint256 i = 0; i < UserTransaction.length; i++) {... */\n      iszero\n      tag_362\n      jumpi\n        /* \"contracts/Utils.sol\":8816:8828  _fromaddress */\n      dup6\n        /* \"contracts/Utils.sol\":8789:8828  UserTransaction[i].ToID == _fromaddress */\n      0xffffffffffffffffffffffffffffffffffffffff\n      and\n        /* \"contracts/Utils.sol\":8789:8804  UserTransaction */\n      dup5\n        /* \"contracts/Utils.sol\":8805:8806  i */\n      dup3\n        /* \"contracts/Utils.sol\":8789:8807  UserTransaction[i] */\n      dup2\n      mload\n      dup2\n      lt\n      tag_364\n      jumpi\n      tag_365\n      tag_107\n      jump\t// in\n    tag_365:\n    tag_364:\n      0x20\n      mul\n      0x20\n      add\n      add\n      mload\n        /* \"contracts/Utils.sol\":8789:8812  UserTransaction[i].ToID */\n      0x80\n      add\n      mload\n        /* \"contracts/Utils.sol\":8789:8828  UserTransaction[i].ToID == _fromaddress */\n      0xffffffffffffffffffffffffffffffffffffffff\n      and\n      eq\n        /* \"contracts/Utils.sol\":8785:8977  if (UserTransaction[i].ToID == _fromaddress) {... */\n      iszero\n      tag_366\n      jumpi\n        /* \"contracts/Utils.sol\":8861:8876  UserTransaction */\n      dup4\n        /* \"contracts/Utils.sol\":8877:8878  i */\n      dup2\n        /* \"contracts/Utils.sol\":8861:8879  UserTransaction[i] */\n      dup2\n      mload\n      dup2\n      lt\n      tag_367\n      jumpi\n      tag_368\n      tag_107\n      jump\t// in\n    tag_368:\n    tag_367:\n      0x20\n      mul\n      0x20\n      add\n      add\n      mload\n        /* \"contracts/Utils.sol\":8861:8886  UserTransaction[i].Amount */\n      0xa0\n      add\n      mload\n        /* \"contracts/Utils.sol\":8848:8886  mainAmount = UserTransaction[i].Amount */\n      swap3\n      pop\n        /* \"contracts/Utils.sol\":8785:8977  if (UserTransaction[i].ToID == _fromaddress) {... */\n      jump(tag_369)\n    tag_366:\n        /* \"contracts/Utils.sol\":8937:8952  UserTransaction */\n      dup4\n        /* \"contracts/Utils.sol\":8953:8954  i */\n      dup2\n        /* \"contracts/Utils.sol\":8937:8955  UserTransaction[i] */\n      dup2\n      mload\n      dup2\n      lt\n      tag_370\n      jumpi\n      tag_371\n      tag_107\n      jump\t// in\n    tag_371:\n    tag_370:\n      0x20\n      mul\n      0x20\n      add\n      add\n      mload\n        /* \"contracts/Utils.sol\":8937:8962  UserTransaction[i].Amount */\n      0xa0\n      add\n      mload\n        /* \"contracts/Utils.sol\":8925:8962  toAmount += UserTransaction[i].Amount */\n      dup3\n      tag_372\n      swap2\n      swap1\n      tag_147\n      jump\t// in\n    tag_372:\n      swap2\n      pop\n        /* \"contracts/Utils.sol\":8785:8977  if (UserTransaction[i].ToID == _fromaddress) {... */\n    tag_369:\n        /* \"contracts/Utils.sol\":8766:8769  i++ */\n      dup1\n      dup1\n      tag_373\n      swap1\n      tag_149\n      jump\t// in\n    tag_373:\n      swap2\n      pop\n      pop\n        /* \"contracts/Utils.sol\":8718:8987  for (uint256 i = 0; i < UserTransaction.length; i++) {... */\n      jump(tag_361)\n    tag_362:\n      pop\n        /* \"contracts/Utils.sol\":9025:9033  toAmount */\n      dup1\n        /* \"contracts/Utils.sol\":9012:9022  mainAmount */\n      dup3\n        /* \"contracts/Utils.sol\":9012:9033  mainAmount - toAmount */\n      tag_374\n      swap2\n      swap1\n      tag_375\n      jump\t// in\n    tag_374:\n        /* \"contracts/Utils.sol\":8996:9033  _remainamount = mainAmount - toAmount */\n      swap4\n      pop\n        /* \"contracts/Utils.sol\":8460:9040  {... */\n      pop\n      pop\n      pop\n        /* \"contracts/Utils.sol\":8286:9040  function ReturnRemainingAmount(... */\n      swap4\n      swap3\n      pop\n      pop\n      pop\n      jump\t// out\n        /* \"contracts/Utils.sol\":1758:2421  function GetUsersByStatus(Statuses _status)... */\n    tag_60:\n        /* \"contracts/Utils.sol\":1847:1874  User[] memory filteredUsers */\n      0x60\n        /* \"contracts/Utils.sol\":1890:1908  uint256 usersCount */\n      0x00\n        /* \"contracts/Utils.sol\":1911:1925  UsersAddresses */\n      0x02\n        /* \"contracts/Utils.sol\":1911:1932  UsersAddresses.length */\n      dup1\n      sload\n      swap1\n      pop\n        /* \"contracts/Utils.sol\":1890:1932  uint256 usersCount = UsersAddresses.length */\n      swap1\n      pop\n        /* \"contracts/Utils.sol\":1942:1965  User[] memory usersTemp */\n      0x00\n        /* \"contracts/Utils.sol\":1979:1989  usersCount */\n      dup2\n        /* \"contracts/Utils.sol\":1968:1990  new User[](usersCount) */\n      0xffffffffffffffff\n      dup2\n      gt\n      iszero\n      tag_377\n      jumpi\n      tag_378\n      tag_94\n      jump\t// in\n    tag_378:\n    tag_377:\n      mload(0x40)\n      swap1\n      dup1\n      dup3\n      mstore\n      dup1\n      0x20\n      mul\n      0x20\n      add\n      dup3\n      add\n      0x40\n      mstore\n      dup1\n      iszero\n      tag_379\n      jumpi\n      dup2\n      0x20\n      add\n    tag_380:\n      tag_381\n      tag_98\n      jump\t// in\n    tag_381:\n      dup2\n      mstore\n      0x20\n      add\n      swap1\n      0x01\n      swap1\n      sub\n      swap1\n      dup2\n      tag_380\n      jumpi\n      swap1\n      pop\n    tag_379:\n      pop\n        /* \"contracts/Utils.sol\":1942:1990  User[] memory usersTemp = new User[](usersCount) */\n      swap1\n      pop\n        /* \"contracts/Utils.sol\":2000:2013  uint256 count */\n      0x00\n        /* \"contracts/Utils.sol\":2028:2037  uint256 i */\n      dup1\n        /* \"contracts/Utils.sol\":2040:2041  0 */\n      0x00\n        /* \"contracts/Utils.sol\":2028:2041  uint256 i = 0 */\n      swap1\n      pop\n        /* \"contracts/Utils.sol\":2023:2270  for (uint256 i = 0; i < usersCount; i++) {... */\n    tag_382:\n        /* \"contracts/Utils.sol\":2047:2057  usersCount */\n      dup4\n        /* \"contracts/Utils.sol\":2043:2044  i */\n      dup2\n        /* \"contracts/Utils.sol\":2043:2057  i < usersCount */\n      lt\n        /* \"contracts/Utils.sol\":2023:2270  for (uint256 i = 0; i < usersCount; i++) {... */\n      iszero\n      tag_383\n      jumpi\n        /* \"contracts/Utils.sol\":2134:2141  _status */\n      dup6\n        /* \"contracts/Utils.sol\":2082:2141  UserAddressMapping[UsersAddresses[i]].UserStatus == _status */\n      0x02\n      dup2\n      gt\n      iszero\n      tag_385\n      jumpi\n      tag_386\n      tag_104\n      jump\t// in\n    tag_386:\n    tag_385:\n        /* \"contracts/Utils.sol\":2082:2100  UserAddressMapping */\n      0x01\n        /* \"contracts/Utils.sol\":2082:2119  UserAddressMapping[UsersAddresses[i]] */\n      0x00\n        /* \"contracts/Utils.sol\":2101:2115  UsersAddresses */\n      0x02\n        /* \"contracts/Utils.sol\":2116:2117  i */\n      dup5\n        /* \"contracts/Utils.sol\":2101:2118  UsersAddresses[i] */\n      dup2\n      sload\n      dup2\n      lt\n      tag_387\n      jumpi\n      tag_388\n      tag_107\n      jump\t// in\n    tag_388:\n    tag_387:\n      swap1\n      0x00\n      mstore\n      keccak256(0x00, 0x20)\n      add\n      0x00\n      swap1\n      sload\n      swap1\n      0x0100\n      exp\n      swap1\n      div\n      0xffffffffffffffffffffffffffffffffffffffff\n      and\n        /* \"contracts/Utils.sol\":2082:2119  UserAddressMapping[UsersAddresses[i]] */\n      0xffffffffffffffffffffffffffffffffffffffff\n      and\n      0xffffffffffffffffffffffffffffffffffffffff\n      and\n      dup2\n      mstore\n      0x20\n      add\n      swap1\n      dup2\n      mstore\n      0x20\n      add\n      0x00\n      keccak256\n        /* \"contracts/Utils.sol\":2082:2130  UserAddressMapping[UsersAddresses[i]].UserStatus */\n      0x02\n      add\n      0x01\n      swap1\n      sload\n      swap1\n      0x0100\n      exp\n      swap1\n      div\n      0xff\n      and\n        /* \"contracts/Utils.sol\":2082:2141  UserAddressMapping[UsersAddresses[i]].UserStatus == _status */\n      0x02\n      dup2\n      gt\n      iszero\n      tag_390\n      jumpi\n      tag_391\n      tag_104\n      jump\t// in\n    tag_391:\n    tag_390:\n      eq\n        /* \"contracts/Utils.sol\":2078:2260  if (UserAddressMapping[UsersAddresses[i]].UserStatus == _status) {... */\n      iszero\n      tag_392\n      jumpi\n        /* \"contracts/Utils.sol\":2180:2198  UserAddressMapping */\n      0x01\n        /* \"contracts/Utils.sol\":2180:2217  UserAddressMapping[UsersAddresses[i]] */\n      0x00\n        /* \"contracts/Utils.sol\":2199:2213  UsersAddresses */\n      0x02\n        /* \"contracts/Utils.sol\":2214:2215  i */\n      dup4\n        /* \"contracts/Utils.sol\":2199:2216  UsersAddresses[i] */\n      dup2\n      sload\n      dup2\n      lt\n      tag_393\n      jumpi\n      tag_394\n      tag_107\n      jump\t// in\n    tag_394:\n    tag_393:\n      swap1\n      0x00\n      mstore\n      keccak256(0x00, 0x20)\n      add\n      0x00\n      swap1\n      sload\n      swap1\n      0x0100\n      exp\n      swap1\n      div\n      0xffffffffffffffffffffffffffffffffffffffff\n      and\n        /* \"contracts/Utils.sol\":2180:2217  UserAddressMapping[UsersAddresses[i]] */\n      0xffffffffffffffffffffffffffffffffffffffff\n      and\n      0xffffffffffffffffffffffffffffffffffffffff\n      and\n      dup2\n      mstore\n      0x20\n      add\n      swap1\n      dup2\n      mstore\n      0x20\n      add\n      0x00\n      keccak256\n        /* \"contracts/Utils.sol\":2161:2217  usersTemp[count] = UserAddressMapping[UsersAddresses[i]] */\n      mload(0x40)\n      dup1\n      0xe0\n      add\n      0x40\n      mstore\n      swap1\n      dup2\n      0x00\n      dup3\n      add\n      dup1\n      sload\n      tag_396\n      swap1\n      tag_116\n      jump\t// in\n    tag_396:\n      dup1\n      0x1f\n      add\n      0x20\n      dup1\n      swap2\n      div\n      mul\n      0x20\n      add\n      mload(0x40)\n      swap1\n      dup2\n      add\n      0x40\n      mstore\n      dup1\n      swap3\n      swap2\n      swap1\n      dup2\n      dup2\n      mstore\n      0x20\n      add\n      dup3\n      dup1\n      sload\n      tag_397\n      swap1\n      tag_116\n      jump\t// in\n    tag_397:\n      dup1\n      iszero\n      tag_398\n      jumpi\n      dup1\n      0x1f\n      lt\n      tag_399\n      jumpi\n      0x0100\n      dup1\n      dup4\n      sload\n      div\n      mul\n      dup4\n      mstore\n      swap2\n      0x20\n      add\n      swap2\n      jump(tag_398)\n    tag_399:\n      dup3\n      add\n      swap2\n      swap1\n      0x00\n      mstore\n      keccak256(0x00, 0x20)\n      swap1\n    tag_400:\n      dup2\n      sload\n      dup2\n      mstore\n      swap1\n      0x01\n      add\n      swap1\n      0x20\n      add\n      dup1\n      dup4\n      gt\n      tag_400\n      jumpi\n      dup3\n      swap1\n      sub\n      0x1f\n      and\n      dup3\n      add\n      swap2\n    tag_398:\n      pop\n      pop\n      pop\n      pop\n      pop\n      dup2\n      mstore\n      0x20\n      add\n      0x01\n      dup3\n      add\n      dup1\n      sload\n      tag_401\n      swap1\n      tag_116\n      jump\t// in\n    tag_401:\n      dup1\n      0x1f\n      add\n      0x20\n      dup1\n      swap2\n      div\n      mul\n      0x20\n      add\n      mload(0x40)\n      swap1\n      dup2\n      add\n      0x40\n      mstore\n      dup1\n      swap3\n      swap2\n      swap1\n      dup2\n      dup2\n      mstore\n      0x20\n      add\n      dup3\n      dup1\n      sload\n      tag_402\n      swap1\n      tag_116\n      jump\t// in\n    tag_402:\n      dup1\n      iszero\n      tag_403\n      jumpi\n      dup1\n      0x1f\n      lt\n      tag_404\n      jumpi\n      0x0100\n      dup1\n      dup4\n      sload\n      div\n      mul\n      dup4\n      mstore\n      swap2\n      0x20\n      add\n      swap2\n      jump(tag_403)\n    tag_404:\n      dup3\n      add\n      swap2\n      swap1\n      0x00\n      mstore\n      keccak256(0x00, 0x20)\n      swap1\n    tag_405:\n      dup2\n      sload\n      dup2\n      mstore\n      swap1\n      0x01\n      add\n      swap1\n      0x20\n      add\n      dup1\n      dup4\n      gt\n      tag_405\n      jumpi\n      dup3\n      swap1\n      sub\n      0x1f\n      and\n      dup3\n      add\n      swap2\n    tag_403:\n      pop\n      pop\n      pop\n      pop\n      pop\n      dup2\n      mstore\n      0x20\n      add\n      0x02\n      dup3\n      add\n      0x00\n      swap1\n      sload\n      swap1\n      0x0100\n      exp\n      swap1\n      div\n      0xff\n      and\n      0x08\n      dup2\n      gt\n      iszero\n      tag_406\n      jumpi\n      tag_407\n      tag_104\n      jump\t// in\n    tag_407:\n    tag_406:\n      0x08\n      dup2\n      gt\n      iszero\n      tag_408\n      jumpi\n      tag_409\n      tag_104\n      jump\t// in\n    tag_409:\n    tag_408:\n      dup2\n      mstore\n      0x20\n      add\n      0x02\n      dup3\n      add\n      0x01\n      swap1\n      sload\n      swap1\n      0x0100\n      exp\n      swap1\n      div\n      0xff\n      and\n      0x02\n      dup2\n      gt\n      iszero\n      tag_410\n      jumpi\n      tag_411\n      tag_104\n      jump\t// in\n    tag_411:\n    tag_410:\n      0x02\n      dup2\n      gt\n      iszero\n      tag_412\n      jumpi\n      tag_413\n      tag_104\n      jump\t// in\n    tag_413:\n    tag_412:\n      dup2\n      mstore\n      0x20\n      add\n      0x03\n      dup3\n      add\n      dup1\n      sload\n      tag_414\n      swap1\n      tag_116\n      jump\t// in\n    tag_414:\n      dup1\n      0x1f\n      add\n      0x20\n      dup1\n      swap2\n      div\n      mul\n      0x20\n      add\n      mload(0x40)\n      swap1\n      dup2\n      add\n      0x40\n      mstore\n      dup1\n      swap3\n      swap2\n      swap1\n      dup2\n      dup2\n      mstore\n      0x20\n      add\n      dup3\n      dup1\n      sload\n      tag_415\n      swap1\n      tag_116\n      jump\t// in\n    tag_415:\n      dup1\n      iszero\n      tag_416\n      jumpi\n      dup1\n      0x1f\n      lt\n      tag_417\n      jumpi\n      0x0100\n      dup1\n      dup4\n      sload\n      div\n      mul\n      dup4\n      mstore\n      swap2\n      0x20\n      add\n      swap2\n      jump(tag_416)\n    tag_417:\n      dup3\n      add\n      swap2\n      swap1\n      0x00\n      mstore\n      keccak256(0x00, 0x20)\n      swap1\n    tag_418:\n      dup2\n      sload\n      dup2\n      mstore\n      swap1\n      0x01\n      add\n      swap1\n      0x20\n      add\n      dup1\n      dup4\n      gt\n      tag_418\n      jumpi\n      dup3\n      swap1\n      sub\n      0x1f\n      and\n      dup3\n      add\n      swap2\n    tag_416:\n      pop\n      pop\n      pop\n      pop\n      pop\n      dup2\n      mstore\n      0x20\n      add\n      0x04\n      dup3\n      add\n      dup1\n      sload\n      tag_419\n      swap1\n      tag_116\n      jump\t// in\n    tag_419:\n      dup1\n      0x1f\n      add\n      0x20\n      dup1\n      swap2\n      div\n      mul\n      0x20\n      add\n      mload(0x40)\n      swap1\n      dup2\n      add\n      0x40\n      mstore\n      dup1\n      swap3\n      swap2\n      swap1\n      dup2\n      dup2\n      mstore\n      0x20\n      add\n      dup3\n      dup1\n      sload\n      tag_420\n      swap1\n      tag_116\n      jump\t// in\n    tag_420:\n      dup1\n      iszero\n      tag_421\n      jumpi\n      dup1\n      0x1f\n      lt\n      tag_422\n      jumpi\n      0x0100\n      dup1\n      dup4\n      sload\n      div\n      mul\n      dup4\n      mstore\n      swap2\n      0x20\n      add\n      swap2\n      jump(tag_421)\n    tag_422:\n      dup3\n      add\n      swap2\n      swap1\n      0x00\n      mstore\n      keccak256(0x00, 0x20)\n      swap1\n    tag_423:\n      dup2\n      sload\n      dup2\n      mstore\n      swap1\n      0x01\n      add\n      swap1\n      0x20\n      add\n      dup1\n      dup4\n      gt\n      tag_423\n      jumpi\n      dup3\n      swap1\n      sub\n      0x1f\n      and\n      dup3\n      add\n      swap2\n    tag_421:\n      pop\n      pop\n      pop\n      pop\n      pop\n      dup2\n      mstore\n      0x20\n      add\n      0x05\n      dup3\n      add\n      0x00\n      swap1\n      sload\n      swap1\n      0x0100\n      exp\n      swap1\n      div\n      0xffffffffffffffffffffffffffffffffffffffff\n      and\n      0xffffffffffffffffffffffffffffffffffffffff\n      and\n      0xffffffffffffffffffffffffffffffffffffffff\n      and\n      dup2\n      mstore\n      pop\n      pop\n        /* \"contracts/Utils.sol\":2161:2170  usersTemp */\n      dup4\n        /* \"contracts/Utils.sol\":2171:2176  count */\n      dup4\n        /* \"contracts/Utils.sol\":2161:2177  usersTemp[count] */\n      dup2\n      mload\n      dup2\n      lt\n      tag_424\n      jumpi\n      tag_425\n      tag_107\n      jump\t// in\n    tag_425:\n    tag_424:\n      0x20\n      mul\n      0x20\n      add\n      add\n        /* \"contracts/Utils.sol\":2161:2217  usersTemp[count] = UserAddressMapping[UsersAddresses[i]] */\n      dup2\n      swap1\n      mstore\n      pop\n        /* \"contracts/Utils.sol\":2244:2245  1 */\n      0x01\n        /* \"contracts/Utils.sol\":2235:2245  count += 1 */\n      dup3\n      tag_426\n      swap2\n      swap1\n      tag_147\n      jump\t// in\n    tag_426:\n      swap2\n      pop\n        /* \"contracts/Utils.sol\":2078:2260  if (UserAddressMapping[UsersAddresses[i]].UserStatus == _status) {... */\n    tag_392:\n        /* \"contracts/Utils.sol\":2059:2062  i++ */\n      dup1\n      dup1\n      tag_427\n      swap1\n      tag_149\n      jump\t// in\n    tag_427:\n      swap2\n      pop\n      pop\n        /* \"contracts/Utils.sol\":2023:2270  for (uint256 i = 0; i < usersCount; i++) {... */\n      jump(tag_382)\n    tag_383:\n      pop\n        /* \"contracts/Utils.sol\":2307:2312  count */\n      dup1\n        /* \"contracts/Utils.sol\":2296:2313  new User[](count) */\n      0xffffffffffffffff\n      dup2\n      gt\n      iszero\n      tag_428\n      jumpi\n      tag_429\n      tag_94\n      jump\t// in\n    tag_429:\n    tag_428:\n      mload(0x40)\n      swap1\n      dup1\n      dup3\n      mstore\n      dup1\n      0x20\n      mul\n      0x20\n      add\n      dup3\n      add\n      0x40\n      mstore\n      dup1\n      iszero\n      tag_430\n      jumpi\n      dup2\n      0x20\n      add\n    tag_431:\n      tag_432\n      tag_98\n      jump\t// in\n    tag_432:\n      dup2\n      mstore\n      0x20\n      add\n      swap1\n      0x01\n      swap1\n      sub\n      swap1\n      dup2\n      tag_431\n      jumpi\n      swap1\n      pop\n    tag_430:\n      pop\n        /* \"contracts/Utils.sol\":2280:2313  filteredUsers = new User[](count) */\n      swap4\n      pop\n        /* \"contracts/Utils.sol\":2328:2337  uint256 i */\n      0x00\n        /* \"contracts/Utils.sol\":2323:2415  for (uint256 i = 0; i < count; i++) {... */\n    tag_433:\n        /* \"contracts/Utils.sol\":2347:2352  count */\n      dup2\n        /* \"contracts/Utils.sol\":2343:2344  i */\n      dup2\n        /* \"contracts/Utils.sol\":2343:2352  i < count */\n      lt\n        /* \"contracts/Utils.sol\":2323:2415  for (uint256 i = 0; i < count; i++) {... */\n      iszero\n      tag_434\n      jumpi\n        /* \"contracts/Utils.sol\":2392:2401  usersTemp */\n      dup3\n        /* \"contracts/Utils.sol\":2402:2403  i */\n      dup2\n        /* \"contracts/Utils.sol\":2392:2404  usersTemp[i] */\n      dup2\n      mload\n      dup2\n      lt\n      tag_436\n      jumpi\n      tag_437\n      tag_107\n      jump\t// in\n    tag_437:\n    tag_436:\n      0x20\n      mul\n      0x20\n      add\n      add\n      mload\n        /* \"contracts/Utils.sol\":2373:2386  filteredUsers */\n      dup6\n        /* \"contracts/Utils.sol\":2387:2388  i */\n      dup3\n        /* \"contracts/Utils.sol\":2373:2389  filteredUsers[i] */\n      dup2\n      mload\n      dup2\n      lt\n      tag_438\n      jumpi\n      tag_439\n      tag_107\n      jump\t// in\n    tag_439:\n    tag_438:\n      0x20\n      mul\n      0x20\n      add\n      add\n        /* \"contracts/Utils.sol\":2373:2404  filteredUsers[i] = usersTemp[i] */\n      dup2\n      swap1\n      mstore\n      pop\n        /* \"contracts/Utils.sol\":2354:2357  i++ */\n      dup1\n      dup1\n      tag_440\n      swap1\n      tag_149\n      jump\t// in\n    tag_440:\n      swap2\n      pop\n      pop\n        /* \"contracts/Utils.sol\":2323:2415  for (uint256 i = 0; i < count; i++) {... */\n      jump(tag_433)\n    tag_434:\n      pop\n        /* \"contracts/Utils.sol\":1880:2421  {... */\n      pop\n      pop\n      pop\n        /* \"contracts/Utils.sol\":1758:2421  function GetUsersByStatus(Statuses _status)... */\n      swap2\n      swap1\n      pop\n      jump\t// out\n        /* \"contracts/Utils.sol\":4280:5099  function ReadTransactionsByUser(address _useraddress)... */\n    tag_65:\n        /* \"contracts/Utils.sol\":4379:4420  PatchTransaction[] memory UserTransaction */\n      0x60\n        /* \"contracts/Utils.sol\":4436:4455  uint256 MatchedRows */\n      0x00\n        /* \"contracts/Utils.sol\":4465:4499  PatchTransaction[] memory TempTran */\n      dup1\n        /* \"contracts/Utils.sol\":4538:4556  PatchTrannsactions */\n      0x05\n        /* \"contracts/Utils.sol\":4538:4563  PatchTrannsactions.length */\n      dup1\n      sload\n      swap1\n      pop\n        /* \"contracts/Utils.sol\":4502:4573  new PatchTransaction[](... */\n      0xffffffffffffffff\n      dup2\n      gt\n      iszero\n      tag_442\n      jumpi\n      tag_443\n      tag_94\n      jump\t// in\n    tag_443:\n    tag_442:\n      mload(0x40)\n      swap1\n      dup1\n      dup3\n      mstore\n      dup1\n      0x20\n      mul\n      0x20\n      add\n      dup3\n      add\n      0x40\n      mstore\n      dup1\n      iszero\n      tag_444\n      jumpi\n      dup2\n      0x20\n      add\n    tag_445:\n      tag_446\n      tag_181\n      jump\t// in\n    tag_446:\n      dup2\n      mstore\n      0x20\n      add\n      swap1\n      0x01\n      swap1\n      sub\n      swap1\n      dup2\n      tag_445\n      jumpi\n      swap1\n      pop\n    tag_444:\n      pop\n        /* \"contracts/Utils.sol\":4465:4573  PatchTransaction[] memory TempTran = new PatchTransaction[](... */\n      swap1\n      pop\n        /* \"contracts/Utils.sol\":4588:4597  uint256 i */\n      0x00\n        /* \"contracts/Utils.sol\":4583:4869  for (uint256 i = 0; i < PatchTrannsactions.length; i++) {... */\n    tag_447:\n        /* \"contracts/Utils.sol\":4607:4625  PatchTrannsactions */\n      0x05\n        /* \"contracts/Utils.sol\":4607:4632  PatchTrannsactions.length */\n      dup1\n      sload\n      swap1\n      pop\n        /* \"contracts/Utils.sol\":4603:4604  i */\n      dup2\n        /* \"contracts/Utils.sol\":4603:4632  i < PatchTrannsactions.length */\n      lt\n        /* \"contracts/Utils.sol\":4583:4869  for (uint256 i = 0; i < PatchTrannsactions.length; i++) {... */\n      iszero\n      tag_448\n      jumpi\n        /* \"contracts/Utils.sol\":4736:4748  _useraddress */\n      dup5\n        /* \"contracts/Utils.sol\":4706:4748  PatchTrannsactions[i].ToID == _useraddress */\n      0xffffffffffffffffffffffffffffffffffffffff\n      and\n        /* \"contracts/Utils.sol\":4706:4724  PatchTrannsactions */\n      0x05\n        /* \"contracts/Utils.sol\":4725:4726  i */\n      dup3\n        /* \"contracts/Utils.sol\":4706:4727  PatchTrannsactions[i] */\n      dup2\n      sload\n      dup2\n      lt\n      tag_450\n      jumpi\n      tag_451\n      tag_107\n      jump\t// in\n    tag_451:\n    tag_450:\n      swap1\n      0x00\n      mstore\n      keccak256(0x00, 0x20)\n      swap1\n      0x07\n      mul\n      add\n        /* \"contracts/Utils.sol\":4706:4732  PatchTrannsactions[i].ToID */\n      0x04\n      add\n      0x00\n      swap1\n      sload\n      swap1\n      0x0100\n      exp\n      swap1\n      div\n      0xffffffffffffffffffffffffffffffffffffffff\n      and\n        /* \"contracts/Utils.sol\":4706:4748  PatchTrannsactions[i].ToID == _useraddress */\n      0xffffffffffffffffffffffffffffffffffffffff\n      and\n      eq\n        /* \"contracts/Utils.sol\":4702:4859  if (PatchTrannsactions[i].ToID == _useraddress) {... */\n      iszero\n      tag_453\n      jumpi\n        /* \"contracts/Utils.sol\":4792:4810  PatchTrannsactions */\n      0x05\n        /* \"contracts/Utils.sol\":4811:4812  i */\n      dup2\n        /* \"contracts/Utils.sol\":4792:4813  PatchTrannsactions[i] */\n      dup2\n      sload\n      dup2\n      lt\n      tag_454\n      jumpi\n      tag_455\n      tag_107\n      jump\t// in\n    tag_455:\n    tag_454:\n      swap1\n      0x00\n      mstore\n      keccak256(0x00, 0x20)\n      swap1\n      0x07\n      mul\n      add\n        /* \"contracts/Utils.sol\":4768:4813  TempTran[MatchedRows] = PatchTrannsactions[i] */\n      mload(0x40)\n      dup1\n      0xe0\n      add\n      0x40\n      mstore\n      swap1\n      dup2\n      0x00\n      dup3\n      add\n      dup1\n      sload\n      tag_457\n      swap1\n      tag_116\n      jump\t// in\n    tag_457:\n      dup1\n      0x1f\n      add\n      0x20\n      dup1\n      swap2\n      div\n      mul\n      0x20\n      add\n      mload(0x40)\n      swap1\n      dup2\n      add\n      0x40\n      mstore\n      dup1\n      swap3\n      swap2\n      swap1\n      dup2\n      dup2\n      mstore\n      0x20\n      add\n      dup3\n      dup1\n      sload\n      tag_458\n      swap1\n      tag_116\n      jump\t// in\n    tag_458:\n      dup1\n      iszero\n      tag_459\n      jumpi\n      dup1\n      0x1f\n      lt\n      tag_460\n      jumpi\n      0x0100\n      dup1\n      dup4\n      sload\n      div\n      mul\n      dup4\n      mstore\n      swap2\n      0x20\n      add\n      swap2\n      jump(tag_459)\n    tag_460:\n      dup3\n      add\n      swap2\n      swap1\n      0x00\n      mstore\n      keccak256(0x00, 0x20)\n      swap1\n    tag_461:\n      dup2\n      sload\n      dup2\n      mstore\n      swap1\n      0x01\n      add\n      swap1\n      0x20\n      add\n      dup1\n      dup4\n      gt\n      tag_461\n      jumpi\n      dup3\n      swap1\n      sub\n      0x1f\n      and\n      dup3\n      add\n      swap2\n    tag_459:\n      pop\n      pop\n      pop\n      pop\n      pop\n      dup2\n      mstore\n      0x20\n      add\n      0x01\n      dup3\n      add\n      dup1\n      sload\n      tag_462\n      swap1\n      tag_116\n      jump\t// in\n    tag_462:\n      dup1\n      0x1f\n      add\n      0x20\n      dup1\n      swap2\n      div\n      mul\n      0x20\n      add\n      mload(0x40)\n      swap1\n      dup2\n      add\n      0x40\n      mstore\n      dup1\n      swap3\n      swap2\n      swap1\n      dup2\n      dup2\n      mstore\n      0x20\n      add\n      dup3\n      dup1\n      sload\n      tag_463\n      swap1\n      tag_116\n      jump\t// in\n    tag_463:\n      dup1\n      iszero\n      tag_464\n      jumpi\n      dup1\n      0x1f\n      lt\n      tag_465\n      jumpi\n      0x0100\n      dup1\n      dup4\n      sload\n      div\n      mul\n      dup4\n      mstore\n      swap2\n      0x20\n      add\n      swap2\n      jump(tag_464)\n    tag_465:\n      dup3\n      add\n      swap2\n      swap1\n      0x00\n      mstore\n      keccak256(0x00, 0x20)\n      swap1\n    tag_466:\n      dup2\n      sload\n      dup2\n      mstore\n      swap1\n      0x01\n      add\n      swap1\n      0x20\n      add\n      dup1\n      dup4\n      gt\n      tag_466\n      jumpi\n      dup3\n      swap1\n      sub\n      0x1f\n      and\n      dup3\n      add\n      swap2\n    tag_464:\n      pop\n      pop\n      pop\n      pop\n      pop\n      dup2\n      mstore\n      0x20\n      add\n      0x02\n      dup3\n      add\n      sload\n      dup2\n      mstore\n      0x20\n      add\n      0x03\n      dup3\n      add\n      0x00\n      swap1\n      sload\n      swap1\n      0x0100\n      exp\n      swap1\n      div\n      0xffffffffffffffffffffffffffffffffffffffff\n      and\n      0xffffffffffffffffffffffffffffffffffffffff\n      and\n      0xffffffffffffffffffffffffffffffffffffffff\n      and\n      dup2\n      mstore\n      0x20\n      add\n      0x04\n      dup3\n      add\n      0x00\n      swap1\n      sload\n      swap1\n      0x0100\n      exp\n      swap1\n      div\n      0xffffffffffffffffffffffffffffffffffffffff\n      and\n      0xffffffffffffffffffffffffffffffffffffffff\n      and\n      0xffffffffffffffffffffffffffffffffffffffff\n      and\n      dup2\n      mstore\n      0x20\n      add\n      0x05\n      dup3\n      add\n      sload\n      dup2\n      mstore\n      0x20\n      add\n      0x06\n      dup3\n      add\n      sload\n      dup2\n      mstore\n      pop\n      pop\n        /* \"contracts/Utils.sol\":4768:4776  TempTran */\n      dup3\n        /* \"contracts/Utils.sol\":4777:4788  MatchedRows */\n      dup5\n        /* \"contracts/Utils.sol\":4768:4789  TempTran[MatchedRows] */\n      dup2\n      mload\n      dup2\n      lt\n      tag_467\n      jumpi\n      tag_468\n      tag_107\n      jump\t// in\n    tag_468:\n    tag_467:\n      0x20\n      mul\n      0x20\n      add\n      add\n        /* \"contracts/Utils.sol\":4768:4813  TempTran[MatchedRows] = PatchTrannsactions[i] */\n      dup2\n      swap1\n      mstore\n      pop\n        /* \"contracts/Utils.sol\":4831:4844  MatchedRows++ */\n      dup3\n      dup1\n      tag_469\n      swap1\n      tag_149\n      jump\t// in\n    tag_469:\n      swap4\n      pop\n      pop\n        /* \"contracts/Utils.sol\":4702:4859  if (PatchTrannsactions[i].ToID == _useraddress) {... */\n    tag_453:\n        /* \"contracts/Utils.sol\":4634:4637  i++ */\n      dup1\n      dup1\n      tag_470\n      swap1\n      tag_149\n      jump\t// in\n    tag_470:\n      swap2\n      pop\n      pop\n        /* \"contracts/Utils.sol\":4583:4869  for (uint256 i = 0; i < PatchTrannsactions.length; i++) {... */\n      jump(tag_447)\n    tag_448:\n      pop\n        /* \"contracts/Utils.sol\":4919:4930  MatchedRows */\n      dup2\n        /* \"contracts/Utils.sol\":4896:4931  new PatchTransaction[](MatchedRows) */\n      0xffffffffffffffff\n      dup2\n      gt\n      iszero\n      tag_471\n      jumpi\n      tag_472\n      tag_94\n      jump\t// in\n    tag_472:\n    tag_471:\n      mload(0x40)\n      swap1\n      dup1\n      dup3\n      mstore\n      dup1\n      0x20\n      mul\n      0x20\n      add\n      dup3\n      add\n      0x40\n      mstore\n      dup1\n      iszero\n      tag_473\n      jumpi\n      dup2\n      0x20\n      add\n    tag_474:\n      tag_475\n      tag_181\n      jump\t// in\n    tag_475:\n      dup2\n      mstore\n      0x20\n      add\n      swap1\n      0x01\n      swap1\n      sub\n      swap1\n      dup2\n      tag_474\n      jumpi\n      swap1\n      pop\n    tag_473:\n      pop\n        /* \"contracts/Utils.sol\":4878:4931  UserTransaction = new PatchTransaction[](MatchedRows) */\n      swap3\n      pop\n        /* \"contracts/Utils.sol\":4959:4960  0 */\n      0x00\n        /* \"contracts/Utils.sol\":4945:4956  MatchedRows */\n      dup3\n        /* \"contracts/Utils.sol\":4945:4960  MatchedRows > 0 */\n      gt\n        /* \"contracts/Utils.sol\":4941:5093  if (MatchedRows > 0) {... */\n      iszero\n      tag_476\n      jumpi\n        /* \"contracts/Utils.sol\":4981:4990  uint256 i */\n      0x00\n        /* \"contracts/Utils.sol\":4976:5083  for (uint256 i = 0; i < MatchedRows; i++) {... */\n    tag_477:\n        /* \"contracts/Utils.sol\":5000:5011  MatchedRows */\n      dup3\n        /* \"contracts/Utils.sol\":4996:4997  i */\n      dup2\n        /* \"contracts/Utils.sol\":4996:5011  i < MatchedRows */\n      lt\n        /* \"contracts/Utils.sol\":4976:5083  for (uint256 i = 0; i < MatchedRows; i++) {... */\n      iszero\n      tag_478\n      jumpi\n        /* \"contracts/Utils.sol\":5057:5065  TempTran */\n      dup2\n        /* \"contracts/Utils.sol\":5066:5067  i */\n      dup2\n        /* \"contracts/Utils.sol\":5057:5068  TempTran[i] */\n      dup2\n      mload\n      dup2\n      lt\n      tag_480\n      jumpi\n      tag_481\n      tag_107\n      jump\t// in\n    tag_481:\n    tag_480:\n      0x20\n      mul\n      0x20\n      add\n      add\n      mload\n        /* \"contracts/Utils.sol\":5036:5051  UserTransaction */\n      dup5\n        /* \"contracts/Utils.sol\":5052:5053  i */\n      dup3\n        /* \"contracts/Utils.sol\":5036:5054  UserTransaction[i] */\n      dup2\n      mload\n      dup2\n      lt\n      tag_482\n      jumpi\n      tag_483\n      tag_107\n      jump\t// in\n    tag_483:\n    tag_482:\n      0x20\n      mul\n      0x20\n      add\n      add\n        /* \"contracts/Utils.sol\":5036:5068  UserTransaction[i] = TempTran[i] */\n      dup2\n      swap1\n      mstore\n      pop\n        /* \"contracts/Utils.sol\":5013:5016  i++ */\n      dup1\n      dup1\n      tag_484\n      swap1\n      tag_149\n      jump\t// in\n    tag_484:\n      swap2\n      pop\n      pop\n        /* \"contracts/Utils.sol\":4976:5083  for (uint256 i = 0; i < MatchedRows; i++) {... */\n      jump(tag_477)\n    tag_478:\n      pop\n        /* \"contracts/Utils.sol\":4941:5093  if (MatchedRows > 0) {... */\n    tag_476:\n        /* \"contracts/Utils.sol\":4426:5099  {... */\n      pop\n      pop\n        /* \"contracts/Utils.sol\":4280:5099  function ReadTransactionsByUser(address _useraddress)... */\n      swap2\n      swap1\n      pop\n      jump\t// out\n        /* \"contracts/Utils.sol\":445:465  address public Owner */\n    tag_68:\n      0x00\n      dup1\n      sload\n      swap1\n      0x0100\n      exp\n      swap1\n      div\n      0xffffffffffffffffffffffffffffffffffffffff\n      and\n      dup2\n      jump\t// out\n        /* \"contracts/Utils.sol\":968:1090  function ReadUser(address _address) public view returns (User memory) {... */\n    tag_73:\n        /* \"contracts/Utils.sol\":1025:1036  User memory */\n      tag_485\n      tag_98\n      jump\t// in\n    tag_485:\n        /* \"contracts/Utils.sol\":1055:1073  UserAddressMapping */\n      0x01\n        /* \"contracts/Utils.sol\":1055:1083  UserAddressMapping[_address] */\n      0x00\n        /* \"contracts/Utils.sol\":1074:1082  _address */\n      dup4\n        /* \"contracts/Utils.sol\":1055:1083  UserAddressMapping[_address] */\n      0xffffffffffffffffffffffffffffffffffffffff\n      and\n      0xffffffffffffffffffffffffffffffffffffffff\n      and\n      dup2\n      mstore\n      0x20\n      add\n      swap1\n      dup2\n      mstore\n      0x20\n      add\n      0x00\n      keccak256\n        /* \"contracts/Utils.sol\":1048:1083  return UserAddressMapping[_address] */\n      mload(0x40)\n      dup1\n      0xe0\n      add\n      0x40\n      mstore\n      swap1\n      dup2\n      0x00\n      dup3\n      add\n      dup1\n      sload\n      tag_487\n      swap1\n      tag_116\n      jump\t// in\n    tag_487:\n      dup1\n      0x1f\n      add\n      0x20\n      dup1\n      swap2\n      div\n      mul\n      0x20\n      add\n      mload(0x40)\n      swap1\n      dup2\n      add\n      0x40\n      mstore\n      dup1\n      swap3\n      swap2\n      swap1\n      dup2\n      dup2\n      mstore\n      0x20\n      add\n      dup3\n      dup1\n      sload\n      tag_488\n      swap1\n      tag_116\n      jump\t// in\n    tag_488:\n      dup1\n      iszero\n      tag_489\n      jumpi\n      dup1\n      0x1f\n      lt\n      tag_490\n      jumpi\n      0x0100\n      dup1\n      dup4\n      sload\n      div\n      mul\n      dup4\n      mstore\n      swap2\n      0x20\n      add\n      swap2\n      jump(tag_489)\n    tag_490:\n      dup3\n      add\n      swap2\n      swap1\n      0x00\n      mstore\n      keccak256(0x00, 0x20)\n      swap1\n    tag_491:\n      dup2\n      sload\n      dup2\n      mstore\n      swap1\n      0x01\n      add\n      swap1\n      0x20\n      add\n      dup1\n      dup4\n      gt\n      tag_491\n      jumpi\n      dup3\n      swap1\n      sub\n      0x1f\n      and\n      dup3\n      add\n      swap2\n    tag_489:\n      pop\n      pop\n      pop\n      pop\n      pop\n      dup2\n      mstore\n      0x20\n      add\n      0x01\n      dup3\n      add\n      dup1\n      sload\n      tag_492\n      swap1\n      tag_116\n      jump\t// in\n    tag_492:\n      dup1\n      0x1f\n      add\n      0x20\n      dup1\n      swap2\n      div\n      mul\n      0x20\n      add\n      mload(0x40)\n      swap1\n      dup2\n      add\n      0x40\n      mstore\n      dup1\n      swap3\n      swap2\n      swap1\n      dup2\n      dup2\n      mstore\n      0x20\n      add\n      dup3\n      dup1\n      sload\n      tag_493\n      swap1\n      tag_116\n      jump\t// in\n    tag_493:\n      dup1\n      iszero\n      tag_494\n      jumpi\n      dup1\n      0x1f\n      lt\n      tag_495\n      jumpi\n      0x0100\n      dup1\n      dup4\n      sload\n      div\n      mul\n      dup4\n      mstore\n      swap2\n      0x20\n      add\n      swap2\n      jump(tag_494)\n    tag_495:\n      dup3\n      add\n      swap2\n      swap1\n      0x00\n      mstore\n      keccak256(0x00, 0x20)\n      swap1\n    tag_496:\n      dup2\n      sload\n      dup2\n      mstore\n      swap1\n      0x01\n      add\n      swap1\n      0x20\n      add\n      dup1\n      dup4\n      gt\n      tag_496\n      jumpi\n      dup3\n      swap1\n      sub\n      0x1f\n      and\n      dup3\n      add\n      swap2\n    tag_494:\n      pop\n      pop\n      pop\n      pop\n      pop\n      dup2\n      mstore\n      0x20\n      add\n      0x02\n      dup3\n      add\n      0x00\n      swap1\n      sload\n      swap1\n      0x0100\n      exp\n      swap1\n      div\n      0xff\n      and\n      0x08\n      dup2\n      gt\n      iszero\n      tag_497\n      jumpi\n      tag_498\n      tag_104\n      jump\t// in\n    tag_498:\n    tag_497:\n      0x08\n      dup2\n      gt\n      iszero\n      tag_499\n      jumpi\n      tag_500\n      tag_104\n      jump\t// in\n    tag_500:\n    tag_499:\n      dup2\n      mstore\n      0x20\n      add\n      0x02\n      dup3\n      add\n      0x01\n      swap1\n      sload\n      swap1\n      0x0100\n      exp\n      swap1\n      div\n      0xff\n      and\n      0x02\n      dup2\n      gt\n      iszero\n      tag_501\n      jumpi\n      tag_502\n      tag_104\n      jump\t// in\n    tag_502:\n    tag_501:\n      0x02\n      dup2\n      gt\n      iszero\n      tag_503\n      jumpi\n      tag_504\n      tag_104\n      jump\t// in\n    tag_504:\n    tag_503:\n      dup2\n      mstore\n      0x20\n      add\n      0x03\n      dup3\n      add\n      dup1\n      sload\n      tag_505\n      swap1\n      tag_116\n      jump\t// in\n    tag_505:\n      dup1\n      0x1f\n      add\n      0x20\n      dup1\n      swap2\n      div\n      mul\n      0x20\n      add\n      mload(0x40)\n      swap1\n      dup2\n      add\n      0x40\n      mstore\n      dup1\n      swap3\n      swap2\n      swap1\n      dup2\n      dup2\n      mstore\n      0x20\n      add\n      dup3\n      dup1\n      sload\n      tag_506\n      swap1\n      tag_116\n      jump\t// in\n    tag_506:\n      dup1\n      iszero\n      tag_507\n      jumpi\n      dup1\n      0x1f\n      lt\n      tag_508\n      jumpi\n      0x0100\n      dup1\n      dup4\n      sload\n      div\n      mul\n      dup4\n      mstore\n      swap2\n      0x20\n      add\n      swap2\n      jump(tag_507)\n    tag_508:\n      dup3\n      add\n      swap2\n      swap1\n      0x00\n      mstore\n      keccak256(0x00, 0x20)\n      swap1\n    tag_509:\n      dup2\n      sload\n      dup2\n      mstore\n      swap1\n      0x01\n      add\n      swap1\n      0x20\n      add\n      dup1\n      dup4\n      gt\n      tag_509\n      jumpi\n      dup3\n      swap1\n      sub\n      0x1f\n      and\n      dup3\n      add\n      swap2\n    tag_507:\n      pop\n      pop\n      pop\n      pop\n      pop\n      dup2\n      mstore\n      0x20\n      add\n      0x04\n      dup3\n      add\n      dup1\n      sload\n      tag_510\n      swap1\n      tag_116\n      jump\t// in\n    tag_510:\n      dup1\n      0x1f\n      add\n      0x20\n      dup1\n      swap2\n      div\n      mul\n      0x20\n      add\n      mload(0x40)\n      swap1\n      dup2\n      add\n      0x40\n      mstore\n      dup1\n      swap3\n      swap2\n      swap1\n      dup2\n      dup2\n      mstore\n      0x20\n      add\n      dup3\n      dup1\n      sload\n      tag_511\n      swap1\n      tag_116\n      jump\t// in\n    tag_511:\n      dup1\n      iszero\n      tag_512\n      jumpi\n      dup1\n      0x1f\n      lt\n      tag_513\n      jumpi\n      0x0100\n      dup1\n      dup4\n      sload\n      div\n      mul\n      dup4\n      mstore\n      swap2\n      0x20\n      add\n      swap2\n      jump(tag_512)\n    tag_513:\n      dup3\n      add\n      swap2\n      swap1\n      0x00\n      mstore\n      keccak256(0x00, 0x20)\n      swap1\n    tag_514:\n      dup2\n      sload\n      dup2\n      mstore\n      swap1\n      0x01\n      add\n      swap1\n      0x20\n      add\n      dup1\n      dup4\n      gt\n      tag_514\n      jumpi\n      dup3\n      swap1\n      sub\n      0x1f\n      and\n      dup3\n      add\n      swap2\n    tag_512:\n      pop\n      pop\n      pop\n      pop\n      pop\n      dup2\n      mstore\n      0x20\n      add\n      0x05\n      dup3\n      add\n      0x00\n      swap1\n      sload\n      swap1\n      0x0100\n      exp\n      swap1\n      div\n      0xffffffffffffffffffffffffffffffffffffffff\n      and\n      0xffffffffffffffffffffffffffffffffffffffff\n      and\n      0xffffffffffffffffffffffffffffffffffffffff\n      and\n      dup2\n      mstore\n      pop\n      pop\n      swap1\n      pop\n        /* \"contracts/Utils.sol\":968:1090  function ReadUser(address _address) public view returns (User memory) {... */\n      swap2\n      swap1\n      pop\n      jump\t// out\n        /* \"contracts/Utils.sol\":3244:3366  function ReadDrug(string memory _regno) public view returns (Drug memory) {... */\n    tag_78:\n        /* \"contracts/Utils.sol\":3305:3316  Drug memory */\n      tag_515\n      tag_516\n      jump\t// in\n    tag_515:\n        /* \"contracts/Utils.sol\":3335:3351  DrugRegNoMapping */\n      0x03\n        /* \"contracts/Utils.sol\":3352:3358  _regno */\n      dup3\n        /* \"contracts/Utils.sol\":3335:3359  DrugRegNoMapping[_regno] */\n      mload(0x40)\n      tag_518\n      swap2\n      swap1\n      tag_519\n      jump\t// in\n    tag_518:\n      swap1\n      dup2\n      mstore\n      0x20\n      add\n      mload(0x40)\n      dup1\n      swap2\n      sub\n      swap1\n      keccak256\n        /* \"contracts/Utils.sol\":3328:3359  return DrugRegNoMapping[_regno] */\n      mload(0x40)\n      dup1\n      0x80\n      add\n      0x40\n      mstore\n      swap1\n      dup2\n      0x00\n      dup3\n      add\n      dup1\n      sload\n      tag_520\n      swap1\n      tag_116\n      jump\t// in\n    tag_520:\n      dup1\n      0x1f\n      add\n      0x20\n      dup1\n      swap2\n      div\n      mul\n      0x20\n      add\n      mload(0x40)\n      swap1\n      dup2\n      add\n      0x40\n      mstore\n      dup1\n      swap3\n      swap2\n      swap1\n      dup2\n      dup2\n      mstore\n      0x20\n      add\n      dup3\n      dup1\n      sload\n      tag_521\n      swap1\n      tag_116\n      jump\t// in\n    tag_521:\n      dup1\n      iszero\n      tag_522\n      jumpi\n      dup1\n      0x1f\n      lt\n      tag_523\n      jumpi\n      0x0100\n      dup1\n      dup4\n      sload\n      div\n      mul\n      dup4\n      mstore\n      swap2\n      0x20\n      add\n      swap2\n      jump(tag_522)\n    tag_523:\n      dup3\n      add\n      swap2\n      swap1\n      0x00\n      mstore\n      keccak256(0x00, 0x20)\n      swap1\n    tag_524:\n      dup2\n      sload\n      dup2\n      mstore\n      swap1\n      0x01\n      add\n      swap1\n      0x20\n      add\n      dup1\n      dup4\n      gt\n      tag_524\n      jumpi\n      dup3\n      swap1\n      sub\n      0x1f\n      and\n      dup3\n      add\n      swap2\n    tag_522:\n      pop\n      pop\n      pop\n      pop\n      pop\n      dup2\n      mstore\n      0x20\n      add\n      0x01\n      dup3\n      add\n      0x00\n      swap1\n      sload\n      swap1\n      0x0100\n      exp\n      swap1\n      div\n      0xffffffffffffffffffffffffffffffffffffffff\n      and\n      0xffffffffffffffffffffffffffffffffffffffff\n      and\n      0xffffffffffffffffffffffffffffffffffffffff\n      and\n      dup2\n      mstore\n      0x20\n      add\n      0x01\n      dup3\n      add\n      0x14\n      swap1\n      sload\n      swap1\n      0x0100\n      exp\n      swap1\n      div\n      0xff\n      and\n      0x02\n      dup2\n      gt\n      iszero\n      tag_525\n      jumpi\n      tag_526\n      tag_104\n      jump\t// in\n    tag_526:\n    tag_525:\n      0x02\n      dup2\n      gt\n      iszero\n      tag_527\n      jumpi\n      tag_528\n      tag_104\n      jump\t// in\n    tag_528:\n    tag_527:\n      dup2\n      mstore\n      0x20\n      add\n      0x02\n      dup3\n      add\n      dup1\n      sload\n      tag_529\n      swap1\n      tag_116\n      jump\t// in\n    tag_529:\n      dup1\n      0x1f\n      add\n      0x20\n      dup1\n      swap2\n      div\n      mul\n      0x20\n      add\n      mload(0x40)\n      swap1\n      dup2\n      add\n      0x40\n      mstore\n      dup1\n      swap3\n      swap2\n      swap1\n      dup2\n      dup2\n      mstore\n      0x20\n      add\n      dup3\n      dup1\n      sload\n      tag_530\n      swap1\n      tag_116\n      jump\t// in\n    tag_530:\n      dup1\n      iszero\n      tag_531\n      jumpi\n      dup1\n      0x1f\n      lt\n      tag_532\n      jumpi\n      0x0100\n      dup1\n      dup4\n      sload\n      div\n      mul\n      dup4\n      mstore\n      swap2\n      0x20\n      add\n      swap2\n      jump(tag_531)\n    tag_532:\n      dup3\n      add\n      swap2\n      swap1\n      0x00\n      mstore\n      keccak256(0x00, 0x20)\n      swap1\n    tag_533:\n      dup2\n      sload\n      dup2\n      mstore\n      swap1\n      0x01\n      add\n      swap1\n      0x20\n      add\n      dup1\n      dup4\n      gt\n      tag_533\n      jumpi\n      dup3\n      swap1\n      sub\n      0x1f\n      and\n      dup3\n      add\n      swap2\n    tag_531:\n      pop\n      pop\n      pop\n      pop\n      pop\n      dup2\n      mstore\n      pop\n      pop\n      swap1\n      pop\n        /* \"contracts/Utils.sol\":3244:3366  function ReadDrug(string memory _regno) public view returns (Drug memory) {... */\n      swap2\n      swap1\n      pop\n      jump\t// out\n        /* \"contracts/Utils.sol\":203:427  function compareStringsbyBytes(string memory s1, string memory s2)... */\n    tag_83:\n        /* \"contracts/Utils.sol\":315:319  bool */\n      0x00\n        /* \"contracts/Utils.sol\":416:418  s2 */\n      dup2\n        /* \"contracts/Utils.sol\":399:419  abi.encodePacked(s2) */\n      add(0x20, mload(0x40))\n      tag_535\n      swap2\n      swap1\n      tag_519\n      jump\t// in\n    tag_535:\n      mload(0x40)\n      0x20\n      dup2\n      dup4\n      sub\n      sub\n      dup2\n      mstore\n      swap1\n      0x40\n      mstore\n        /* \"contracts/Utils.sol\":389:420  keccak256(abi.encodePacked(s2)) */\n      dup1\n      mload\n      swap1\n      0x20\n      add\n      keccak256\n        /* \"contracts/Utils.sol\":381:383  s1 */\n      dup4\n        /* \"contracts/Utils.sol\":364:384  abi.encodePacked(s1) */\n      add(0x20, mload(0x40))\n      tag_536\n      swap2\n      swap1\n      tag_519\n      jump\t// in\n    tag_536:\n      mload(0x40)\n      0x20\n      dup2\n      dup4\n      sub\n      sub\n      dup2\n      mstore\n      swap1\n      0x40\n      mstore\n        /* \"contracts/Utils.sol\":354:385  keccak256(abi.encodePacked(s1)) */\n      dup1\n      mload\n      swap1\n      0x20\n      add\n      keccak256\n        /* \"contracts/Utils.sol\":354:420  keccak256(abi.encodePacked(s1)) == keccak256(abi.encodePacked(s2)) */\n      eq\n        /* \"contracts/Utils.sol\":335:420  return... */\n      swap1\n      pop\n        /* \"contracts/Utils.sol\":203:427  function compareStringsbyBytes(string memory s1, string memory s2)... */\n      swap3\n      swap2\n      pop\n      pop\n      jump\t// out\n        /* \"contracts/Utils.sol\":3372:3990  function ReadDrugsByUser(address _useraddress) public view returns(Drug[] memory DrugsList){... */\n    tag_88:\n        /* \"contracts/Utils.sol\":3439:3462  Drug[] memory DrugsList */\n      0x60\n        /* \"contracts/Utils.sol\":3473:3491  uint256 drugsCount */\n      0x00\n        /* \"contracts/Utils.sol\":3494:3505  DrugsRegNos */\n      0x04\n        /* \"contracts/Utils.sol\":3494:3512  DrugsRegNos.length */\n      dup1\n      sload\n      swap1\n      pop\n        /* \"contracts/Utils.sol\":3473:3512  uint256 drugsCount = DrugsRegNos.length */\n      swap1\n      pop\n        /* \"contracts/Utils.sol\":3522:3545  Drug[] memory drugsTemp */\n      0x00\n        /* \"contracts/Utils.sol\":3559:3569  drugsCount */\n      dup2\n        /* \"contracts/Utils.sol\":3548:3570  new Drug[](drugsCount) */\n      0xffffffffffffffff\n      dup2\n      gt\n      iszero\n      tag_538\n      jumpi\n      tag_539\n      tag_94\n      jump\t// in\n    tag_539:\n    tag_538:\n      mload(0x40)\n      swap1\n      dup1\n      dup3\n      mstore\n      dup1\n      0x20\n      mul\n      0x20\n      add\n      dup3\n      add\n      0x40\n      mstore\n      dup1\n      iszero\n      tag_540\n      jumpi\n      dup2\n      0x20\n      add\n    tag_541:\n      tag_542\n      tag_516\n      jump\t// in\n    tag_542:\n      dup2\n      mstore\n      0x20\n      add\n      swap1\n      0x01\n      swap1\n      sub\n      swap1\n      dup2\n      tag_541\n      jumpi\n      swap1\n      pop\n    tag_540:\n      pop\n        /* \"contracts/Utils.sol\":3522:3570  Drug[] memory drugsTemp = new Drug[](drugsCount) */\n      swap1\n      pop\n        /* \"contracts/Utils.sol\":3580:3593  uint256 count */\n      0x00\n        /* \"contracts/Utils.sol\":3608:3617  uint256 i */\n      dup1\n        /* \"contracts/Utils.sol\":3620:3621  0 */\n      0x00\n        /* \"contracts/Utils.sol\":3608:3621  uint256 i = 0 */\n      swap1\n      pop\n        /* \"contracts/Utils.sol\":3603:3847  for (uint256 i = 0; i < drugsCount; i++) {... */\n    tag_543:\n        /* \"contracts/Utils.sol\":3627:3637  drugsCount */\n      dup4\n        /* \"contracts/Utils.sol\":3623:3624  i */\n      dup2\n        /* \"contracts/Utils.sol\":3623:3637  i < drugsCount */\n      lt\n        /* \"contracts/Utils.sol\":3603:3847  for (uint256 i = 0; i < drugsCount; i++) {... */\n      iszero\n      tag_544\n      jumpi\n        /* \"contracts/Utils.sol\":3711:3723  _useraddress */\n      dup6\n        /* \"contracts/Utils.sol\":3662:3723  DrugRegNoMapping[DrugsRegNos[i]].Manufacturer == _useraddress */\n      0xffffffffffffffffffffffffffffffffffffffff\n      and\n        /* \"contracts/Utils.sol\":3662:3678  DrugRegNoMapping */\n      0x03\n        /* \"contracts/Utils.sol\":3679:3690  DrugsRegNos */\n      0x04\n        /* \"contracts/Utils.sol\":3691:3692  i */\n      dup4\n        /* \"contracts/Utils.sol\":3679:3693  DrugsRegNos[i] */\n      dup2\n      sload\n      dup2\n      lt\n      tag_546\n      jumpi\n      tag_547\n      tag_107\n      jump\t// in\n    tag_547:\n    tag_546:\n      swap1\n      0x00\n      mstore\n      keccak256(0x00, 0x20)\n      add\n        /* \"contracts/Utils.sol\":3662:3694  DrugRegNoMapping[DrugsRegNos[i]] */\n      mload(0x40)\n      tag_549\n      swap2\n      swap1\n      tag_550\n      jump\t// in\n    tag_549:\n      swap1\n      dup2\n      mstore\n      0x20\n      add\n      mload(0x40)\n      dup1\n      swap2\n      sub\n      swap1\n      keccak256\n        /* \"contracts/Utils.sol\":3662:3707  DrugRegNoMapping[DrugsRegNos[i]].Manufacturer */\n      0x01\n      add\n      0x00\n      swap1\n      sload\n      swap1\n      0x0100\n      exp\n      swap1\n      div\n      0xffffffffffffffffffffffffffffffffffffffff\n      and\n        /* \"contracts/Utils.sol\":3662:3723  DrugRegNoMapping[DrugsRegNos[i]].Manufacturer == _useraddress */\n      0xffffffffffffffffffffffffffffffffffffffff\n      and\n      eq\n        /* \"contracts/Utils.sol\":3658:3837  if (DrugRegNoMapping[DrugsRegNos[i]].Manufacturer == _useraddress) {... */\n      iszero\n      tag_551\n      jumpi\n        /* \"contracts/Utils.sol\":3762:3778  DrugRegNoMapping */\n      0x03\n        /* \"contracts/Utils.sol\":3779:3790  DrugsRegNos */\n      0x04\n        /* \"contracts/Utils.sol\":3791:3792  i */\n      dup3\n        /* \"contracts/Utils.sol\":3779:3793  DrugsRegNos[i] */\n      dup2\n      sload\n      dup2\n      lt\n      tag_552\n      jumpi\n      tag_553\n      tag_107\n      jump\t// in\n    tag_553:\n    tag_552:\n      swap1\n      0x00\n      mstore\n      keccak256(0x00, 0x20)\n      add\n        /* \"contracts/Utils.sol\":3762:3794  DrugRegNoMapping[DrugsRegNos[i]] */\n      mload(0x40)\n      tag_555\n      swap2\n      swap1\n      tag_550\n      jump\t// in\n    tag_555:\n      swap1\n      dup2\n      mstore\n      0x20\n      add\n      mload(0x40)\n      dup1\n      swap2\n      sub\n      swap1\n      keccak256\n        /* \"contracts/Utils.sol\":3743:3794  drugsTemp[count] = DrugRegNoMapping[DrugsRegNos[i]] */\n      mload(0x40)\n      dup1\n      0x80\n      add\n      0x40\n      mstore\n      swap1\n      dup2\n      0x00\n      dup3\n      add\n      dup1\n      sload\n      tag_556\n      swap1\n      tag_116\n      jump\t// in\n    tag_556:\n      dup1\n      0x1f\n      add\n      0x20\n      dup1\n      swap2\n      div\n      mul\n      0x20\n      add\n      mload(0x40)\n      swap1\n      dup2\n      add\n      0x40\n      mstore\n      dup1\n      swap3\n      swap2\n      swap1\n      dup2\n      dup2\n      mstore\n      0x20\n      add\n      dup3\n      dup1\n      sload\n      tag_557\n      swap1\n      tag_116\n      jump\t// in\n    tag_557:\n      dup1\n      iszero\n      tag_558\n      jumpi\n      dup1\n      0x1f\n      lt\n      tag_559\n      jumpi\n      0x0100\n      dup1\n      dup4\n      sload\n      div\n      mul\n      dup4\n      mstore\n      swap2\n      0x20\n      add\n      swap2\n      jump(tag_558)\n    tag_559:\n      dup3\n      add\n      swap2\n      swap1\n      0x00\n      mstore\n      keccak256(0x00, 0x20)\n      swap1\n    tag_560:\n      dup2\n      sload\n      dup2\n      mstore\n      swap1\n      0x01\n      add\n      swap1\n      0x20\n      add\n      dup1\n      dup4\n      gt\n      tag_560\n      jumpi\n      dup3\n      swap1\n      sub\n      0x1f\n      and\n      dup3\n      add\n      swap2\n    tag_558:\n      pop\n      pop\n      pop\n      pop\n      pop\n      dup2\n      mstore\n      0x20\n      add\n      0x01\n      dup3\n      add\n      0x00\n      swap1\n      sload\n      swap1\n      0x0100\n      exp\n      swap1\n      div\n      0xffffffffffffffffffffffffffffffffffffffff\n      and\n      0xffffffffffffffffffffffffffffffffffffffff\n      and\n      0xffffffffffffffffffffffffffffffffffffffff\n      and\n      dup2\n      mstore\n      0x20\n      add\n      0x01\n      dup3\n      add\n      0x14\n      swap1\n      sload\n      swap1\n      0x0100\n      exp\n      swap1\n      div\n      0xff\n      and\n      0x02\n      dup2\n      gt\n      iszero\n      tag_561\n      jumpi\n      tag_562\n      tag_104\n      jump\t// in\n    tag_562:\n    tag_561:\n      0x02\n      dup2\n      gt\n      iszero\n      tag_563\n      jumpi\n      tag_564\n      tag_104\n      jump\t// in\n    tag_564:\n    tag_563:\n      dup2\n      mstore\n      0x20\n      add\n      0x02\n      dup3\n      add\n      dup1\n      sload\n      tag_565\n      swap1\n      tag_116\n      jump\t// in\n    tag_565:\n      dup1\n      0x1f\n      add\n      0x20\n      dup1\n      swap2\n      div\n      mul\n      0x20\n      add\n      mload(0x40)\n      swap1\n      dup2\n      add\n      0x40\n      mstore\n      dup1\n      swap3\n      swap2\n      swap1\n      dup2\n      dup2\n      mstore\n      0x20\n      add\n      dup3\n      dup1\n      sload\n      tag_566\n      swap1\n      tag_116\n      jump\t// in\n    tag_566:\n      dup1\n      iszero\n      tag_567\n      jumpi\n      dup1\n      0x1f\n      lt\n      tag_568\n      jumpi\n      0x0100\n      dup1\n      dup4\n      sload\n      div\n      mul\n      dup4\n      mstore\n      swap2\n      0x20\n      add\n      swap2\n      jump(tag_567)\n    tag_568:\n      dup3\n      add\n      swap2\n      swap1\n      0x00\n      mstore\n      keccak256(0x00, 0x20)\n      swap1\n    tag_569:\n      dup2\n      sload\n      dup2\n      mstore\n      swap1\n      0x01\n      add\n      swap1\n      0x20\n      add\n      dup1\n      dup4\n      gt\n      tag_569\n      jumpi\n      dup3\n      swap1\n      sub\n      0x1f\n      and\n      dup3\n      add\n      swap2\n    tag_567:\n      pop\n      pop\n      pop\n      pop\n      pop\n      dup2\n      mstore\n      pop\n      pop\n        /* \"contracts/Utils.sol\":3743:3752  drugsTemp */\n      dup4\n        /* \"contracts/Utils.sol\":3753:3758  count */\n      dup4\n        /* \"contracts/Utils.sol\":3743:3759  drugsTemp[count] */\n      dup2\n      mload\n      dup2\n      lt\n      tag_570\n      jumpi\n      tag_571\n      tag_107\n      jump\t// in\n    tag_571:\n    tag_570:\n      0x20\n      mul\n      0x20\n      add\n      add\n        /* \"contracts/Utils.sol\":3743:3794  drugsTemp[count] = DrugRegNoMapping[DrugsRegNos[i]] */\n      dup2\n      swap1\n      mstore\n      pop\n        /* \"contracts/Utils.sol\":3821:3822  1 */\n      0x01\n        /* \"contracts/Utils.sol\":3812:3822  count += 1 */\n      dup3\n      tag_572\n      swap2\n      swap1\n      tag_147\n      jump\t// in\n    tag_572:\n      swap2\n      pop\n        /* \"contracts/Utils.sol\":3658:3837  if (DrugRegNoMapping[DrugsRegNos[i]].Manufacturer == _useraddress) {... */\n    tag_551:\n        /* \"contracts/Utils.sol\":3639:3642  i++ */\n      dup1\n      dup1\n      tag_573\n      swap1\n      tag_149\n      jump\t// in\n    tag_573:\n      swap2\n      pop\n      pop\n        /* \"contracts/Utils.sol\":3603:3847  for (uint256 i = 0; i < drugsCount; i++) {... */\n      jump(tag_543)\n    tag_544:\n      pop\n        /* \"contracts/Utils.sol\":3880:3885  count */\n      dup1\n        /* \"contracts/Utils.sol\":3869:3886  new Drug[](count) */\n      0xffffffffffffffff\n      dup2\n      gt\n      iszero\n      tag_574\n      jumpi\n      tag_575\n      tag_94\n      jump\t// in\n    tag_575:\n    tag_574:\n      mload(0x40)\n      swap1\n      dup1\n      dup3\n      mstore\n      dup1\n      0x20\n      mul\n      0x20\n      add\n      dup3\n      add\n      0x40\n      mstore\n      dup1\n      iszero\n      tag_576\n      jumpi\n      dup2\n      0x20\n      add\n    tag_577:\n      tag_578\n      tag_516\n      jump\t// in\n    tag_578:\n      dup2\n      mstore\n      0x20\n      add\n      swap1\n      0x01\n      swap1\n      sub\n      swap1\n      dup2\n      tag_577\n      jumpi\n      swap1\n      pop\n    tag_576:\n      pop\n        /* \"contracts/Utils.sol\":3857:3886  DrugsList = new Drug[](count) */\n      swap4\n      pop\n        /* \"contracts/Utils.sol\":3901:3910  uint256 i */\n      0x00\n        /* \"contracts/Utils.sol\":3896:3984  for (uint256 i = 0; i < count; i++) {... */\n    tag_579:\n        /* \"contracts/Utils.sol\":3920:3925  count */\n      dup2\n        /* \"contracts/Utils.sol\":3916:3917  i */\n      dup2\n        /* \"contracts/Utils.sol\":3916:3925  i < count */\n      lt\n        /* \"contracts/Utils.sol\":3896:3984  for (uint256 i = 0; i < count; i++) {... */\n      iszero\n      tag_580\n      jumpi\n        /* \"contracts/Utils.sol\":3961:3970  drugsTemp */\n      dup3\n        /* \"contracts/Utils.sol\":3971:3972  i */\n      dup2\n        /* \"contracts/Utils.sol\":3961:3973  drugsTemp[i] */\n      dup2\n      mload\n      dup2\n      lt\n      tag_582\n      jumpi\n      tag_583\n      tag_107\n      jump\t// in\n    tag_583:\n    tag_582:\n      0x20\n      mul\n      0x20\n      add\n      add\n      mload\n        /* \"contracts/Utils.sol\":3946:3955  DrugsList */\n      dup6\n        /* \"contracts/Utils.sol\":3956:3957  i */\n      dup3\n        /* \"contracts/Utils.sol\":3946:3958  DrugsList[i] */\n      dup2\n      mload\n      dup2\n      lt\n      tag_584\n      jumpi\n      tag_585\n      tag_107\n      jump\t// in\n    tag_585:\n    tag_584:\n      0x20\n      mul\n      0x20\n      add\n      add\n        /* \"contracts/Utils.sol\":3946:3973  DrugsList[i] = drugsTemp[i] */\n      dup2\n      swap1\n      mstore\n      pop\n        /* \"contracts/Utils.sol\":3927:3930  i++ */\n      dup1\n      dup1\n      tag_586\n      swap1\n      tag_149\n      jump\t// in\n    tag_586:\n      swap2\n      pop\n      pop\n        /* \"contracts/Utils.sol\":3896:3984  for (uint256 i = 0; i < count; i++) {... */\n      jump(tag_579)\n    tag_580:\n      pop\n        /* \"contracts/Utils.sol\":3463:3990  {... */\n      pop\n      pop\n      pop\n        /* \"contracts/Utils.sol\":3372:3990  function ReadDrugsByUser(address _useraddress) public view returns(Drug[] memory DrugsList){... */\n      swap2\n      swap1\n      pop\n      jump\t// out\n    tag_98:\n      mload(0x40)\n      dup1\n      0xe0\n      add\n      0x40\n      mstore\n      dup1\n      0x60\n      dup2\n      mstore\n      0x20\n      add\n      0x60\n      dup2\n      mstore\n      0x20\n      add\n      0x00\n      0x08\n      dup2\n      gt\n      iszero\n      tag_587\n      jumpi\n      tag_588\n      tag_104\n      jump\t// in\n    tag_588:\n    tag_587:\n      dup2\n      mstore\n      0x20\n      add\n      0x00\n      0x02\n      dup2\n      gt\n      iszero\n      tag_589\n      jumpi\n      tag_590\n      tag_104\n      jump\t// in\n    tag_590:\n    tag_589:\n      dup2\n      mstore\n      0x20\n      add\n      0x60\n      dup2\n      mstore\n      0x20\n      add\n      0x60\n      dup2\n      mstore\n      0x20\n      add\n      and(0xffffffffffffffffffffffffffffffffffffffff, 0x00)\n      dup2\n      mstore\n      pop\n      swap1\n      jump\t// out\n    tag_181:\n      mload(0x40)\n      dup1\n      0xe0\n      add\n      0x40\n      mstore\n      dup1\n      0x60\n      dup2\n      mstore\n      0x20\n      add\n      0x60\n      dup2\n      mstore\n      0x20\n      add\n      0x00\n      dup2\n      mstore\n      0x20\n      add\n      and(0xffffffffffffffffffffffffffffffffffffffff, 0x00)\n      dup2\n      mstore\n      0x20\n      add\n      and(0xffffffffffffffffffffffffffffffffffffffff, 0x00)\n      dup2\n      mstore\n      0x20\n      add\n      0x00\n      dup2\n      mstore\n      0x20\n      add\n      0x00\n      dup2\n      mstore\n      pop\n      swap1\n      jump\t// out\n    tag_516:\n      mload(0x40)\n      dup1\n      0x80\n      add\n      0x40\n      mstore\n      dup1\n      0x60\n      dup2\n      mstore\n      0x20\n      add\n      and(0xffffffffffffffffffffffffffffffffffffffff, 0x00)\n      dup2\n      mstore\n      0x20\n      add\n      0x00\n      0x02\n      dup2\n      gt\n      iszero\n      tag_591\n      jumpi\n      tag_592\n      tag_104\n      jump\t// in\n    tag_592:\n    tag_591:\n      dup2\n      mstore\n      0x20\n      add\n      0x60\n      dup2\n      mstore\n      pop\n      swap1\n      jump\t// out\n        /* \"#utility.yul\":7:419   */\n    tag_594:\n        /* \"#utility.yul\":85:90   */\n      0x00\n        /* \"#utility.yul\":110:176   */\n      tag_596\n        /* \"#utility.yul\":126:175   */\n      tag_597\n        /* \"#utility.yul\":168:174   */\n      dup5\n        /* \"#utility.yul\":126:175   */\n      tag_598\n      jump\t// in\n    tag_597:\n        /* \"#utility.yul\":110:176   */\n      tag_599\n      jump\t// in\n    tag_596:\n        /* \"#utility.yul\":101:176   */\n      swap1\n      pop\n        /* \"#utility.yul\":199:205   */\n      dup3\n        /* \"#utility.yul\":192:197   */\n      dup2\n        /* \"#utility.yul\":185:206   */\n      mstore\n        /* \"#utility.yul\":237:241   */\n      0x20\n        /* \"#utility.yul\":230:235   */\n      dup2\n        /* \"#utility.yul\":226:242   */\n      add\n        /* \"#utility.yul\":275:278   */\n      dup5\n        /* \"#utility.yul\":266:272   */\n      dup5\n        /* \"#utility.yul\":261:264   */\n      dup5\n        /* \"#utility.yul\":257:273   */\n      add\n        /* \"#utility.yul\":254:279   */\n      gt\n        /* \"#utility.yul\":251:363   */\n      iszero\n      tag_600\n      jumpi\n        /* \"#utility.yul\":282:361   */\n      tag_601\n      tag_602\n      jump\t// in\n    tag_601:\n        /* \"#utility.yul\":251:363   */\n    tag_600:\n        /* \"#utility.yul\":372:413   */\n      tag_603\n        /* \"#utility.yul\":406:412   */\n      dup5\n        /* \"#utility.yul\":401:404   */\n      dup3\n        /* \"#utility.yul\":396:399   */\n      dup6\n        /* \"#utility.yul\":372:413   */\n      tag_604\n      jump\t// in\n    tag_603:\n        /* \"#utility.yul\":91:419   */\n      pop\n        /* \"#utility.yul\":7:419   */\n      swap4\n      swap3\n      pop\n      pop\n      pop\n      jump\t// out\n        /* \"#utility.yul\":425:564   */\n    tag_605:\n        /* \"#utility.yul\":471:476   */\n      0x00\n        /* \"#utility.yul\":509:515   */\n      dup2\n        /* \"#utility.yul\":496:516   */\n      calldataload\n        /* \"#utility.yul\":487:516   */\n      swap1\n      pop\n        /* \"#utility.yul\":525:558   */\n      tag_607\n        /* \"#utility.yul\":552:557   */\n      dup2\n        /* \"#utility.yul\":525:558   */\n      tag_608\n      jump\t// in\n    tag_607:\n        /* \"#utility.yul\":425:564   */\n      swap3\n      swap2\n      pop\n      pop\n      jump\t// out\n        /* \"#utility.yul\":570:729   */\n    tag_609:\n        /* \"#utility.yul\":626:631   */\n      0x00\n        /* \"#utility.yul\":664:670   */\n      dup2\n        /* \"#utility.yul\":651:671   */\n      calldataload\n        /* \"#utility.yul\":642:671   */\n      swap1\n      pop\n        /* \"#utility.yul\":680:723   */\n      tag_611\n        /* \"#utility.yul\":717:722   */\n      dup2\n        /* \"#utility.yul\":680:723   */\n      tag_612\n      jump\t// in\n    tag_611:\n        /* \"#utility.yul\":570:729   */\n      swap3\n      swap2\n      pop\n      pop\n      jump\t// out\n        /* \"#utility.yul\":735:898   */\n    tag_613:\n        /* \"#utility.yul\":793:798   */\n      0x00\n        /* \"#utility.yul\":831:837   */\n      dup2\n        /* \"#utility.yul\":818:838   */\n      calldataload\n        /* \"#utility.yul\":809:838   */\n      swap1\n      pop\n        /* \"#utility.yul\":847:892   */\n      tag_615\n        /* \"#utility.yul\":886:891   */\n      dup2\n        /* \"#utility.yul\":847:892   */\n      tag_616\n      jump\t// in\n    tag_615:\n        /* \"#utility.yul\":735:898   */\n      swap3\n      swap2\n      pop\n      pop\n      jump\t// out\n        /* \"#utility.yul\":918:1258   */\n    tag_617:\n        /* \"#utility.yul\":974:979   */\n      0x00\n        /* \"#utility.yul\":1023:1026   */\n      dup3\n        /* \"#utility.yul\":1016:1020   */\n      0x1f\n        /* \"#utility.yul\":1008:1014   */\n      dup4\n        /* \"#utility.yul\":1004:1021   */\n      add\n        /* \"#utility.yul\":1000:1027   */\n      slt\n        /* \"#utility.yul\":990:1112   */\n      tag_619\n      jumpi\n        /* \"#utility.yul\":1031:1110   */\n      tag_620\n      tag_621\n      jump\t// in\n    tag_620:\n        /* \"#utility.yul\":990:1112   */\n    tag_619:\n        /* \"#utility.yul\":1148:1154   */\n      dup2\n        /* \"#utility.yul\":1135:1155   */\n      calldataload\n        /* \"#utility.yul\":1173:1252   */\n      tag_622\n        /* \"#utility.yul\":1248:1251   */\n      dup5\n        /* \"#utility.yul\":1240:1246   */\n      dup3\n        /* \"#utility.yul\":1233:1237   */\n      0x20\n        /* \"#utility.yul\":1225:1231   */\n      dup7\n        /* \"#utility.yul\":1221:1238   */\n      add\n        /* \"#utility.yul\":1173:1252   */\n      tag_594\n      jump\t// in\n    tag_622:\n        /* \"#utility.yul\":1164:1252   */\n      swap2\n      pop\n        /* \"#utility.yul\":980:1258   */\n      pop\n        /* \"#utility.yul\":918:1258   */\n      swap3\n      swap2\n      pop\n      pop\n      jump\t// out\n        /* \"#utility.yul\":1264:1403   */\n    tag_623:\n        /* \"#utility.yul\":1310:1315   */\n      0x00\n        /* \"#utility.yul\":1348:1354   */\n      dup2\n        /* \"#utility.yul\":1335:1355   */\n      calldataload\n        /* \"#utility.yul\":1326:1355   */\n      swap1\n      pop\n        /* \"#utility.yul\":1364:1397   */\n      tag_625\n        /* \"#utility.yul\":1391:1396   */\n      dup2\n        /* \"#utility.yul\":1364:1397   */\n      tag_626\n      jump\t// in\n    tag_625:\n        /* \"#utility.yul\":1264:1403   */\n      swap3\n      swap2\n      pop\n      pop\n      jump\t// out\n        /* \"#utility.yul\":1409:1738   */\n    tag_64:\n        /* \"#utility.yul\":1468:1474   */\n      0x00\n        /* \"#utility.yul\":1517:1519   */\n      0x20\n        /* \"#utility.yul\":1505:1514   */\n      dup3\n        /* \"#utility.yul\":1496:1503   */\n      dup5\n        /* \"#utility.yul\":1492:1515   */\n      sub\n        /* \"#utility.yul\":1488:1520   */\n      slt\n        /* \"#utility.yul\":1485:1604   */\n      iszero\n      tag_628\n      jumpi\n        /* \"#utility.yul\":1523:1602   */\n      tag_629\n      tag_630\n      jump\t// in\n    tag_629:\n        /* \"#utility.yul\":1485:1604   */\n    tag_628:\n        /* \"#utility.yul\":1643:1644   */\n      0x00\n        /* \"#utility.yul\":1668:1721   */\n      tag_631\n        /* \"#utility.yul\":1713:1720   */\n      dup5\n        /* \"#utility.yul\":1704:1710   */\n      dup3\n        /* \"#utility.yul\":1693:1702   */\n      dup6\n        /* \"#utility.yul\":1689:1711   */\n      add\n        /* \"#utility.yul\":1668:1721   */\n      tag_605\n      jump\t// in\n    tag_631:\n        /* \"#utility.yul\":1658:1721   */\n      swap2\n      pop\n        /* \"#utility.yul\":1614:1731   */\n      pop\n        /* \"#utility.yul\":1409:1738   */\n      swap3\n      swap2\n      pop\n      pop\n      jump\t// out\n        /* \"#utility.yul\":1744:2093   */\n    tag_59:\n        /* \"#utility.yul\":1813:1819   */\n      0x00\n        /* \"#utility.yul\":1862:1864   */\n      0x20\n        /* \"#utility.yul\":1850:1859   */\n      dup3\n        /* \"#utility.yul\":1841:1848   */\n      dup5\n        /* \"#utility.yul\":1837:1860   */\n      sub\n        /* \"#utility.yul\":1833:1865   */\n      slt\n        /* \"#utility.yul\":1830:1949   */\n      iszero\n      tag_633\n      jumpi\n        /* \"#utility.yul\":1868:1947   */\n      tag_634\n      tag_630\n      jump\t// in\n    tag_634:\n        /* \"#utility.yul\":1830:1949   */\n    tag_633:\n        /* \"#utility.yul\":1988:1989   */\n      0x00\n        /* \"#utility.yul\":2013:2076   */\n      tag_635\n        /* \"#utility.yul\":2068:2075   */\n      dup5\n        /* \"#utility.yul\":2059:2065   */\n      dup3\n        /* \"#utility.yul\":2048:2057   */\n      dup6\n        /* \"#utility.yul\":2044:2066   */\n      add\n        /* \"#utility.yul\":2013:2076   */\n      tag_609\n      jump\t// in\n    tag_635:\n        /* \"#utility.yul\":2003:2076   */\n      swap2\n      pop\n        /* \"#utility.yul\":1959:2086   */\n      pop\n        /* \"#utility.yul\":1744:2093   */\n      swap3\n      swap2\n      pop\n      pop\n      jump\t// out\n        /* \"#utility.yul\":2099:2452   */\n    tag_22:\n        /* \"#utility.yul\":2170:2176   */\n      0x00\n        /* \"#utility.yul\":2219:2221   */\n      0x20\n        /* \"#utility.yul\":2207:2216   */\n      dup3\n        /* \"#utility.yul\":2198:2205   */\n      dup5\n        /* \"#utility.yul\":2194:2217   */\n      sub\n        /* \"#utility.yul\":2190:2222   */\n      slt\n        /* \"#utility.yul\":2187:2306   */\n      iszero\n      tag_637\n      jumpi\n        /* \"#utility.yul\":2225:2304   */\n      tag_638\n      tag_630\n      jump\t// in\n    tag_638:\n        /* \"#utility.yul\":2187:2306   */\n    tag_637:\n        /* \"#utility.yul\":2345:2346   */\n      0x00\n        /* \"#utility.yul\":2370:2435   */\n      tag_639\n        /* \"#utility.yul\":2427:2434   */\n      dup5\n        /* \"#utility.yul\":2418:2424   */\n      dup3\n        /* \"#utility.yul\":2407:2416   */\n      dup6\n        /* \"#utility.yul\":2403:2425   */\n      add\n        /* \"#utility.yul\":2370:2435   */\n      tag_613\n      jump\t// in\n    tag_639:\n        /* \"#utility.yul\":2360:2435   */\n      swap2\n      pop\n        /* \"#utility.yul\":2316:2445   */\n      pop\n        /* \"#utility.yul\":2099:2452   */\n      swap3\n      swap2\n      pop\n      pop\n      jump\t// out\n        /* \"#utility.yul\":2458:2967   */\n    tag_45:\n        /* \"#utility.yul\":2527:2533   */\n      0x00\n        /* \"#utility.yul\":2576:2578   */\n      0x20\n        /* \"#utility.yul\":2564:2573   */\n      dup3\n        /* \"#utility.yul\":2555:2562   */\n      dup5\n        /* \"#utility.yul\":2551:2574   */\n      sub\n        /* \"#utility.yul\":2547:2579   */\n      slt\n        /* \"#utility.yul\":2544:2663   */\n      iszero\n      tag_641\n      jumpi\n        /* \"#utility.yul\":2582:2661   */\n      tag_642\n      tag_630\n      jump\t// in\n    tag_642:\n        /* \"#utility.yul\":2544:2663   */\n    tag_641:\n        /* \"#utility.yul\":2730:2731   */\n      0x00\n        /* \"#utility.yul\":2719:2728   */\n      dup3\n        /* \"#utility.yul\":2715:2732   */\n      add\n        /* \"#utility.yul\":2702:2733   */\n      calldataload\n        /* \"#utility.yul\":2760:2778   */\n      0xffffffffffffffff\n        /* \"#utility.yul\":2752:2758   */\n      dup2\n        /* \"#utility.yul\":2749:2779   */\n      gt\n        /* \"#utility.yul\":2746:2863   */\n      iszero\n      tag_643\n      jumpi\n        /* \"#utility.yul\":2782:2861   */\n      tag_644\n      tag_645\n      jump\t// in\n    tag_644:\n        /* \"#utility.yul\":2746:2863   */\n    tag_643:\n        /* \"#utility.yul\":2887:2950   */\n      tag_646\n        /* \"#utility.yul\":2942:2949   */\n      dup5\n        /* \"#utility.yul\":2933:2939   */\n      dup3\n        /* \"#utility.yul\":2922:2931   */\n      dup6\n        /* \"#utility.yul\":2918:2940   */\n      add\n        /* \"#utility.yul\":2887:2950   */\n      tag_617\n      jump\t// in\n    tag_646:\n        /* \"#utility.yul\":2877:2950   */\n      swap2\n      pop\n        /* \"#utility.yul\":2673:2960   */\n      pop\n        /* \"#utility.yul\":2458:2967   */\n      swap3\n      swap2\n      pop\n      pop\n      jump\t// out\n        /* \"#utility.yul\":2973:3807   */\n    tag_40:\n        /* \"#utility.yul\":3061:3067   */\n      0x00\n        /* \"#utility.yul\":3069:3075   */\n      dup1\n        /* \"#utility.yul\":3118:3120   */\n      0x40\n        /* \"#utility.yul\":3106:3115   */\n      dup4\n        /* \"#utility.yul\":3097:3104   */\n      dup6\n        /* \"#utility.yul\":3093:3116   */\n      sub\n        /* \"#utility.yul\":3089:3121   */\n      slt\n        /* \"#utility.yul\":3086:3205   */\n      iszero\n      tag_648\n      jumpi\n        /* \"#utility.yul\":3124:3203   */\n      tag_649\n      tag_630\n      jump\t// in\n    tag_649:\n        /* \"#utility.yul\":3086:3205   */\n    tag_648:\n        /* \"#utility.yul\":3272:3273   */\n      0x00\n        /* \"#utility.yul\":3261:3270   */\n      dup4\n        /* \"#utility.yul\":3257:3274   */\n      add\n        /* \"#utility.yul\":3244:3275   */\n      calldataload\n        /* \"#utility.yul\":3302:3320   */\n      0xffffffffffffffff\n        /* \"#utility.yul\":3294:3300   */\n      dup2\n        /* \"#utility.yul\":3291:3321   */\n      gt\n        /* \"#utility.yul\":3288:3405   */\n      iszero\n      tag_650\n      jumpi\n        /* \"#utility.yul\":3324:3403   */\n      tag_651\n      tag_645\n      jump\t// in\n    tag_651:\n        /* \"#utility.yul\":3288:3405   */\n    tag_650:\n        /* \"#utility.yul\":3429:3492   */\n      tag_652\n        /* \"#utility.yul\":3484:3491   */\n      dup6\n        /* \"#utility.yul\":3475:3481   */\n      dup3\n        /* \"#utility.yul\":3464:3473   */\n      dup7\n        /* \"#utility.yul\":3460:3482   */\n      add\n        /* \"#utility.yul\":3429:3492   */\n      tag_617\n      jump\t// in\n    tag_652:\n        /* \"#utility.yul\":3419:3492   */\n      swap3\n      pop\n        /* \"#utility.yul\":3215:3502   */\n      pop\n        /* \"#utility.yul\":3569:3571   */\n      0x20\n        /* \"#utility.yul\":3558:3567   */\n      dup4\n        /* \"#utility.yul\":3554:3572   */\n      add\n        /* \"#utility.yul\":3541:3573   */\n      calldataload\n        /* \"#utility.yul\":3600:3618   */\n      0xffffffffffffffff\n        /* \"#utility.yul\":3592:3598   */\n      dup2\n        /* \"#utility.yul\":3589:3619   */\n      gt\n        /* \"#utility.yul\":3586:3703   */\n      iszero\n      tag_653\n      jumpi\n        /* \"#utility.yul\":3622:3701   */\n      tag_654\n      tag_645\n      jump\t// in\n    tag_654:\n        /* \"#utility.yul\":3586:3703   */\n    tag_653:\n        /* \"#utility.yul\":3727:3790   */\n      tag_655\n        /* \"#utility.yul\":3782:3789   */\n      dup6\n        /* \"#utility.yul\":3773:3779   */\n      dup3\n        /* \"#utility.yul\":3762:3771   */\n      dup7\n        /* \"#utility.yul\":3758:3780   */\n      add\n        /* \"#utility.yul\":3727:3790   */\n      tag_617\n      jump\t// in\n    tag_655:\n        /* \"#utility.yul\":3717:3790   */\n      swap2\n      pop\n        /* \"#utility.yul\":3512:3800   */\n      pop\n        /* \"#utility.yul\":2973:3807   */\n      swap3\n      pop\n      swap3\n      swap1\n      pop\n      jump\t// out\n        /* \"#utility.yul\":3813:4792   */\n    tag_34:\n        /* \"#utility.yul\":3910:3916   */\n      0x00\n        /* \"#utility.yul\":3918:3924   */\n      dup1\n        /* \"#utility.yul\":3926:3932   */\n      0x00\n        /* \"#utility.yul\":3975:3977   */\n      0x60\n        /* \"#utility.yul\":3963:3972   */\n      dup5\n        /* \"#utility.yul\":3954:3961   */\n      dup7\n        /* \"#utility.yul\":3950:3973   */\n      sub\n        /* \"#utility.yul\":3946:3978   */\n      slt\n        /* \"#utility.yul\":3943:4062   */\n      iszero\n      tag_657\n      jumpi\n        /* \"#utility.yul\":3981:4060   */\n      tag_658\n      tag_630\n      jump\t// in\n    tag_658:\n        /* \"#utility.yul\":3943:4062   */\n    tag_657:\n        /* \"#utility.yul\":4129:4130   */\n      0x00\n        /* \"#utility.yul\":4118:4127   */\n      dup5\n        /* \"#utility.yul\":4114:4131   */\n      add\n        /* \"#utility.yul\":4101:4132   */\n      calldataload\n        /* \"#utility.yul\":4159:4177   */\n      0xffffffffffffffff\n        /* \"#utility.yul\":4151:4157   */\n      dup2\n        /* \"#utility.yul\":4148:4178   */\n      gt\n        /* \"#utility.yul\":4145:4262   */\n      iszero\n      tag_659\n      jumpi\n        /* \"#utility.yul\":4181:4260   */\n      tag_660\n      tag_645\n      jump\t// in\n    tag_660:\n        /* \"#utility.yul\":4145:4262   */\n    tag_659:\n        /* \"#utility.yul\":4286:4349   */\n      tag_661\n        /* \"#utility.yul\":4341:4348   */\n      dup7\n        /* \"#utility.yul\":4332:4338   */\n      dup3\n        /* \"#utility.yul\":4321:4330   */\n      dup8\n        /* \"#utility.yul\":4317:4339   */\n      add\n        /* \"#utility.yul\":4286:4349   */\n      tag_617\n      jump\t// in\n    tag_661:\n        /* \"#utility.yul\":4276:4349   */\n      swap4\n      pop\n        /* \"#utility.yul\":4072:4359   */\n      pop\n        /* \"#utility.yul\":4426:4428   */\n      0x20\n        /* \"#utility.yul\":4415:4424   */\n      dup5\n        /* \"#utility.yul\":4411:4429   */\n      add\n        /* \"#utility.yul\":4398:4430   */\n      calldataload\n        /* \"#utility.yul\":4457:4475   */\n      0xffffffffffffffff\n        /* \"#utility.yul\":4449:4455   */\n      dup2\n        /* \"#utility.yul\":4446:4476   */\n      gt\n        /* \"#utility.yul\":4443:4560   */\n      iszero\n      tag_662\n      jumpi\n        /* \"#utility.yul\":4479:4558   */\n      tag_663\n      tag_645\n      jump\t// in\n    tag_663:\n        /* \"#utility.yul\":4443:4560   */\n    tag_662:\n        /* \"#utility.yul\":4584:4647   */\n      tag_664\n        /* \"#utility.yul\":4639:4646   */\n      dup7\n        /* \"#utility.yul\":4630:4636   */\n      dup3\n        /* \"#utility.yul\":4619:4628   */\n      dup8\n        /* \"#utility.yul\":4615:4637   */\n      add\n        /* \"#utility.yul\":4584:4647   */\n      tag_617\n      jump\t// in\n    tag_664:\n        /* \"#utility.yul\":4574:4647   */\n      swap3\n      pop\n        /* \"#utility.yul\":4369:4657   */\n      pop\n        /* \"#utility.yul\":4696:4698   */\n      0x40\n        /* \"#utility.yul\":4722:4775   */\n      tag_665\n        /* \"#utility.yul\":4767:4774   */\n      dup7\n        /* \"#utility.yul\":4758:4764   */\n      dup3\n        /* \"#utility.yul\":4747:4756   */\n      dup8\n        /* \"#utility.yul\":4743:4765   */\n      add\n        /* \"#utility.yul\":4722:4775   */\n      tag_605\n      jump\t// in\n    tag_665:\n        /* \"#utility.yul\":4712:4775   */\n      swap2\n      pop\n        /* \"#utility.yul\":4667:4785   */\n      pop\n        /* \"#utility.yul\":3813:4792   */\n      swap3\n      pop\n      swap3\n      pop\n      swap3\n      jump\t// out\n        /* \"#utility.yul\":4798:5127   */\n    tag_28:\n        /* \"#utility.yul\":4857:4863   */\n      0x00\n        /* \"#utility.yul\":4906:4908   */\n      0x20\n        /* \"#utility.yul\":4894:4903   */\n      dup3\n        /* \"#utility.yul\":4885:4892   */\n      dup5\n        /* \"#utility.yul\":4881:4904   */\n      sub\n        /* \"#utility.yul\":4877:4909   */\n      slt\n        /* \"#utility.yul\":4874:4993   */\n      iszero\n      tag_667\n      jumpi\n        /* \"#utility.yul\":4912:4991   */\n      tag_668\n      tag_630\n      jump\t// in\n    tag_668:\n        /* \"#utility.yul\":4874:4993   */\n    tag_667:\n        /* \"#utility.yul\":5032:5033   */\n      0x00\n        /* \"#utility.yul\":5057:5110   */\n      tag_669\n        /* \"#utility.yul\":5102:5109   */\n      dup5\n        /* \"#utility.yul\":5093:5099   */\n      dup3\n        /* \"#utility.yul\":5082:5091   */\n      dup6\n        /* \"#utility.yul\":5078:5100   */\n      add\n        /* \"#utility.yul\":5057:5110   */\n      tag_623\n      jump\t// in\n    tag_669:\n        /* \"#utility.yul\":5047:5110   */\n      swap2\n      pop\n        /* \"#utility.yul\":5003:5120   */\n      pop\n        /* \"#utility.yul\":4798:5127   */\n      swap3\n      swap2\n      pop\n      pop\n      jump\t// out\n        /* \"#utility.yul\":5133:5373   */\n    tag_670:\n        /* \"#utility.yul\":5244:5254   */\n      0x00\n        /* \"#utility.yul\":5279:5367   */\n      tag_672\n        /* \"#utility.yul\":5363:5366   */\n      dup4\n        /* \"#utility.yul\":5355:5361   */\n      dup4\n        /* \"#utility.yul\":5279:5367   */\n      tag_673\n      jump\t// in\n    tag_672:\n        /* \"#utility.yul\":5265:5367   */\n      swap1\n      pop\n        /* \"#utility.yul\":5133:5373   */\n      swap3\n      swap2\n      pop\n      pop\n      jump\t// out\n        /* \"#utility.yul\":5379:5667   */\n    tag_674:\n        /* \"#utility.yul\":5514:5524   */\n      0x00\n        /* \"#utility.yul\":5549:5661   */\n      tag_676\n        /* \"#utility.yul\":5657:5660   */\n      dup4\n        /* \"#utility.yul\":5649:5655   */\n      dup4\n        /* \"#utility.yul\":5549:5661   */\n      tag_677\n      jump\t// in\n    tag_676:\n        /* \"#utility.yul\":5535:5661   */\n      swap1\n      pop\n        /* \"#utility.yul\":5379:5667   */\n      swap3\n      swap2\n      pop\n      pop\n      jump\t// out\n        /* \"#utility.yul\":5673:5909   */\n    tag_678:\n        /* \"#utility.yul\":5782:5792   */\n      0x00\n        /* \"#utility.yul\":5817:5903   */\n      tag_680\n        /* \"#utility.yul\":5899:5902   */\n      dup4\n        /* \"#utility.yul\":5891:5897   */\n      dup4\n        /* \"#utility.yul\":5817:5903   */\n      tag_681\n      jump\t// in\n    tag_680:\n        /* \"#utility.yul\":5803:5903   */\n      swap1\n      pop\n        /* \"#utility.yul\":5673:5909   */\n      swap3\n      swap2\n      pop\n      pop\n      jump\t// out\n        /* \"#utility.yul\":5915:6023   */\n    tag_682:\n        /* \"#utility.yul\":5992:6016   */\n      tag_684\n        /* \"#utility.yul\":6010:6015   */\n      dup2\n        /* \"#utility.yul\":5992:6016   */\n      tag_685\n      jump\t// in\n    tag_684:\n        /* \"#utility.yul\":5987:5990   */\n      dup3\n        /* \"#utility.yul\":5980:6017   */\n      mstore\n        /* \"#utility.yul\":5915:6023   */\n      pop\n      pop\n      jump\t// out\n        /* \"#utility.yul\":6029:6147   */\n    tag_686:\n        /* \"#utility.yul\":6116:6140   */\n      tag_688\n        /* \"#utility.yul\":6134:6139   */\n      dup2\n        /* \"#utility.yul\":6116:6140   */\n      tag_685\n      jump\t// in\n    tag_688:\n        /* \"#utility.yul\":6111:6114   */\n      dup3\n        /* \"#utility.yul\":6104:6141   */\n      mstore\n        /* \"#utility.yul\":6029:6147   */\n      pop\n      pop\n      jump\t// out\n        /* \"#utility.yul\":6203:7282   */\n    tag_689:\n        /* \"#utility.yul\":6364:6367   */\n      0x00\n        /* \"#utility.yul\":6393:6468   */\n      tag_691\n        /* \"#utility.yul\":6462:6467   */\n      dup3\n        /* \"#utility.yul\":6393:6468   */\n      tag_692\n      jump\t// in\n    tag_691:\n        /* \"#utility.yul\":6484:6591   */\n      tag_693\n        /* \"#utility.yul\":6584:6590   */\n      dup2\n        /* \"#utility.yul\":6579:6582   */\n      dup6\n        /* \"#utility.yul\":6484:6591   */\n      tag_694\n      jump\t// in\n    tag_693:\n        /* \"#utility.yul\":6477:6591   */\n      swap4\n      pop\n        /* \"#utility.yul\":6617:6620   */\n      dup4\n        /* \"#utility.yul\":6662:6666   */\n      0x20\n        /* \"#utility.yul\":6654:6660   */\n      dup3\n        /* \"#utility.yul\":6650:6667   */\n      mul\n        /* \"#utility.yul\":6645:6648   */\n      dup6\n        /* \"#utility.yul\":6641:6668   */\n      add\n        /* \"#utility.yul\":6692:6769   */\n      tag_695\n        /* \"#utility.yul\":6763:6768   */\n      dup6\n        /* \"#utility.yul\":6692:6769   */\n      tag_696\n      jump\t// in\n    tag_695:\n        /* \"#utility.yul\":6792:6799   */\n      dup1\n        /* \"#utility.yul\":6823:6824   */\n      0x00\n        /* \"#utility.yul\":6808:7237   */\n    tag_697:\n        /* \"#utility.yul\":6833:6839   */\n      dup6\n        /* \"#utility.yul\":6830:6831   */\n      dup2\n        /* \"#utility.yul\":6827:6840   */\n      lt\n        /* \"#utility.yul\":6808:7237   */\n      iszero\n      tag_699\n      jumpi\n        /* \"#utility.yul\":6904:6913   */\n      dup5\n        /* \"#utility.yul\":6898:6902   */\n      dup5\n        /* \"#utility.yul\":6894:6914   */\n      sub\n        /* \"#utility.yul\":6889:6892   */\n      dup10\n        /* \"#utility.yul\":6882:6915   */\n      mstore\n        /* \"#utility.yul\":6955:6961   */\n      dup2\n        /* \"#utility.yul\":6949:6962   */\n      mload\n        /* \"#utility.yul\":6983:7089   */\n      tag_700\n        /* \"#utility.yul\":7084:7088   */\n      dup6\n        /* \"#utility.yul\":7069:7082   */\n      dup3\n        /* \"#utility.yul\":6983:7089   */\n      tag_670\n      jump\t// in\n    tag_700:\n        /* \"#utility.yul\":6975:7089   */\n      swap5\n      pop\n        /* \"#utility.yul\":7112:7193   */\n      tag_701\n        /* \"#utility.yul\":7186:7192   */\n      dup4\n        /* \"#utility.yul\":7112:7193   */\n      tag_702\n      jump\t// in\n    tag_701:\n        /* \"#utility.yul\":7102:7193   */\n      swap3\n      pop\n        /* \"#utility.yul\":7222:7226   */\n      0x20\n        /* \"#utility.yul\":7217:7220   */\n      dup11\n        /* \"#utility.yul\":7213:7227   */\n      add\n        /* \"#utility.yul\":7206:7227   */\n      swap10\n      pop\n        /* \"#utility.yul\":6868:7237   */\n      pop\n        /* \"#utility.yul\":6855:6856   */\n      0x01\n        /* \"#utility.yul\":6852:6853   */\n      dup2\n        /* \"#utility.yul\":6848:6857   */\n      add\n        /* \"#utility.yul\":6843:6857   */\n      swap1\n      pop\n        /* \"#utility.yul\":6808:7237   */\n      jump(tag_697)\n    tag_699:\n        /* \"#utility.yul\":6812:6826   */\n      pop\n        /* \"#utility.yul\":7253:7257   */\n      dup3\n        /* \"#utility.yul\":7246:7257   */\n      swap8\n      pop\n        /* \"#utility.yul\":7273:7276   */\n      dup8\n        /* \"#utility.yul\":7266:7276   */\n      swap6\n      pop\n        /* \"#utility.yul\":6369:7282   */\n      pop\n      pop\n      pop\n      pop\n      pop\n        /* \"#utility.yul\":6203:7282   */\n      swap3\n      swap2\n      pop\n      pop\n      jump\t// out\n        /* \"#utility.yul\":7362:8537   */\n    tag_703:\n        /* \"#utility.yul\":7547:7550   */\n      0x00\n        /* \"#utility.yul\":7576:7663   */\n      tag_705\n        /* \"#utility.yul\":7657:7662   */\n      dup3\n        /* \"#utility.yul\":7576:7663   */\n      tag_706\n      jump\t// in\n    tag_705:\n        /* \"#utility.yul\":7679:7798   */\n      tag_707\n        /* \"#utility.yul\":7791:7797   */\n      dup2\n        /* \"#utility.yul\":7786:7789   */\n      dup6\n        /* \"#utility.yul\":7679:7798   */\n      tag_708\n      jump\t// in\n    tag_707:\n        /* \"#utility.yul\":7672:7798   */\n      swap4\n      pop\n        /* \"#utility.yul\":7824:7827   */\n      dup4\n        /* \"#utility.yul\":7869:7873   */\n      0x20\n        /* \"#utility.yul\":7861:7867   */\n      dup3\n        /* \"#utility.yul\":7857:7874   */\n      mul\n        /* \"#utility.yul\":7852:7855   */\n      dup6\n        /* \"#utility.yul\":7848:7875   */\n      add\n        /* \"#utility.yul\":7899:7988   */\n      tag_709\n        /* \"#utility.yul\":7982:7987   */\n      dup6\n        /* \"#utility.yul\":7899:7988   */\n      tag_710\n      jump\t// in\n    tag_709:\n        /* \"#utility.yul\":8011:8018   */\n      dup1\n        /* \"#utility.yul\":8042:8043   */\n      0x00\n        /* \"#utility.yul\":8027:8492   */\n    tag_711:\n        /* \"#utility.yul\":8052:8058   */\n      dup6\n        /* \"#utility.yul\":8049:8050   */\n      dup2\n        /* \"#utility.yul\":8046:8059   */\n      lt\n        /* \"#utility.yul\":8027:8492   */\n      iszero\n      tag_713\n      jumpi\n        /* \"#utility.yul\":8123:8132   */\n      dup5\n        /* \"#utility.yul\":8117:8121   */\n      dup5\n        /* \"#utility.yul\":8113:8133   */\n      sub\n        /* \"#utility.yul\":8108:8111   */\n      dup10\n        /* \"#utility.yul\":8101:8134   */\n      mstore\n        /* \"#utility.yul\":8174:8180   */\n      dup2\n        /* \"#utility.yul\":8168:8181   */\n      mload\n        /* \"#utility.yul\":8202:8332   */\n      tag_714\n        /* \"#utility.yul\":8327:8331   */\n      dup6\n        /* \"#utility.yul\":8312:8325   */\n      dup3\n        /* \"#utility.yul\":8202:8332   */\n      tag_674\n      jump\t// in\n    tag_714:\n        /* \"#utility.yul\":8194:8332   */\n      swap5\n      pop\n        /* \"#utility.yul\":8355:8448   */\n      tag_715\n        /* \"#utility.yul\":8441:8447   */\n      dup4\n        /* \"#utility.yul\":8355:8448   */\n      tag_716\n      jump\t// in\n    tag_715:\n        /* \"#utility.yul\":8345:8448   */\n      swap3\n      pop\n        /* \"#utility.yul\":8477:8481   */\n      0x20\n        /* \"#utility.yul\":8472:8475   */\n      dup11\n        /* \"#utility.yul\":8468:8482   */\n      add\n        /* \"#utility.yul\":8461:8482   */\n      swap10\n      pop\n        /* \"#utility.yul\":8087:8492   */\n      pop\n        /* \"#utility.yul\":8074:8075   */\n      0x01\n        /* \"#utility.yul\":8071:8072   */\n      dup2\n        /* \"#utility.yul\":8067:8076   */\n      add\n        /* \"#utility.yul\":8062:8076   */\n      swap1\n      pop\n        /* \"#utility.yul\":8027:8492   */\n      jump(tag_711)\n    tag_713:\n        /* \"#utility.yul\":8031:8045   */\n      pop\n        /* \"#utility.yul\":8508:8512   */\n      dup3\n        /* \"#utility.yul\":8501:8512   */\n      swap8\n      pop\n        /* \"#utility.yul\":8528:8531   */\n      dup8\n        /* \"#utility.yul\":8521:8531   */\n      swap6\n      pop\n        /* \"#utility.yul\":7552:8537   */\n      pop\n      pop\n      pop\n      pop\n      pop\n        /* \"#utility.yul\":7362:8537   */\n      swap3\n      swap2\n      pop\n      pop\n      jump\t// out\n        /* \"#utility.yul\":8593:9664   */\n    tag_717:\n        /* \"#utility.yul\":8752:8755   */\n      0x00\n        /* \"#utility.yul\":8781:8855   */\n      tag_719\n        /* \"#utility.yul\":8849:8854   */\n      dup3\n        /* \"#utility.yul\":8781:8855   */\n      tag_720\n      jump\t// in\n    tag_719:\n        /* \"#utility.yul\":8871:8977   */\n      tag_721\n        /* \"#utility.yul\":8970:8976   */\n      dup2\n        /* \"#utility.yul\":8965:8968   */\n      dup6\n        /* \"#utility.yul\":8871:8977   */\n      tag_722\n      jump\t// in\n    tag_721:\n        /* \"#utility.yul\":8864:8977   */\n      swap4\n      pop\n        /* \"#utility.yul\":9003:9006   */\n      dup4\n        /* \"#utility.yul\":9048:9052   */\n      0x20\n        /* \"#utility.yul\":9040:9046   */\n      dup3\n        /* \"#utility.yul\":9036:9053   */\n      mul\n        /* \"#utility.yul\":9031:9034   */\n      dup6\n        /* \"#utility.yul\":9027:9054   */\n      add\n        /* \"#utility.yul\":9078:9154   */\n      tag_723\n        /* \"#utility.yul\":9148:9153   */\n      dup6\n        /* \"#utility.yul\":9078:9154   */\n      tag_724\n      jump\t// in\n    tag_723:\n        /* \"#utility.yul\":9177:9184   */\n      dup1\n        /* \"#utility.yul\":9208:9209   */\n      0x00\n        /* \"#utility.yul\":9193:9619   */\n    tag_725:\n        /* \"#utility.yul\":9218:9224   */\n      dup6\n        /* \"#utility.yul\":9215:9216   */\n      dup2\n        /* \"#utility.yul\":9212:9225   */\n      lt\n        /* \"#utility.yul\":9193:9619   */\n      iszero\n      tag_727\n      jumpi\n        /* \"#utility.yul\":9289:9298   */\n      dup5\n        /* \"#utility.yul\":9283:9287   */\n      dup5\n        /* \"#utility.yul\":9279:9299   */\n      sub\n        /* \"#utility.yul\":9274:9277   */\n      dup10\n        /* \"#utility.yul\":9267:9300   */\n      mstore\n        /* \"#utility.yul\":9340:9346   */\n      dup2\n        /* \"#utility.yul\":9334:9347   */\n      mload\n        /* \"#utility.yul\":9368:9472   */\n      tag_728\n        /* \"#utility.yul\":9467:9471   */\n      dup6\n        /* \"#utility.yul\":9452:9465   */\n      dup3\n        /* \"#utility.yul\":9368:9472   */\n      tag_678\n      jump\t// in\n    tag_728:\n        /* \"#utility.yul\":9360:9472   */\n      swap5\n      pop\n        /* \"#utility.yul\":9495:9575   */\n      tag_729\n        /* \"#utility.yul\":9568:9574   */\n      dup4\n        /* \"#utility.yul\":9495:9575   */\n      tag_730\n      jump\t// in\n    tag_729:\n        /* \"#utility.yul\":9485:9575   */\n      swap3\n      pop\n        /* \"#utility.yul\":9604:9608   */\n      0x20\n        /* \"#utility.yul\":9599:9602   */\n      dup11\n        /* \"#utility.yul\":9595:9609   */\n      add\n        /* \"#utility.yul\":9588:9609   */\n      swap10\n      pop\n        /* \"#utility.yul\":9253:9619   */\n      pop\n        /* \"#utility.yul\":9240:9241   */\n      0x01\n        /* \"#utility.yul\":9237:9238   */\n      dup2\n        /* \"#utility.yul\":9233:9242   */\n      add\n        /* \"#utility.yul\":9228:9242   */\n      swap1\n      pop\n        /* \"#utility.yul\":9193:9619   */\n      jump(tag_725)\n    tag_727:\n        /* \"#utility.yul\":9197:9211   */\n      pop\n        /* \"#utility.yul\":9635:9639   */\n      dup3\n        /* \"#utility.yul\":9628:9639   */\n      swap8\n      pop\n        /* \"#utility.yul\":9655:9658   */\n      dup8\n        /* \"#utility.yul\":9648:9658   */\n      swap6\n      pop\n        /* \"#utility.yul\":8757:9664   */\n      pop\n      pop\n      pop\n      pop\n      pop\n        /* \"#utility.yul\":8593:9664   */\n      swap3\n      swap2\n      pop\n      pop\n      jump\t// out\n        /* \"#utility.yul\":9670:9779   */\n    tag_731:\n        /* \"#utility.yul\":9751:9772   */\n      tag_733\n        /* \"#utility.yul\":9766:9771   */\n      dup2\n        /* \"#utility.yul\":9751:9772   */\n      tag_734\n      jump\t// in\n    tag_733:\n        /* \"#utility.yul\":9746:9749   */\n      dup3\n        /* \"#utility.yul\":9739:9773   */\n      mstore\n        /* \"#utility.yul\":9670:9779   */\n      pop\n      pop\n      jump\t// out\n        /* \"#utility.yul\":9785:9922   */\n    tag_735:\n        /* \"#utility.yul\":9870:9915   */\n      tag_737\n        /* \"#utility.yul\":9909:9914   */\n      dup2\n        /* \"#utility.yul\":9870:9915   */\n      tag_738\n      jump\t// in\n    tag_737:\n        /* \"#utility.yul\":9865:9868   */\n      dup3\n        /* \"#utility.yul\":9858:9916   */\n      mstore\n        /* \"#utility.yul\":9785:9922   */\n      pop\n      pop\n      jump\t// out\n        /* \"#utility.yul\":9928:10069   */\n    tag_739:\n        /* \"#utility.yul\":10015:10062   */\n      tag_741\n        /* \"#utility.yul\":10056:10061   */\n      dup2\n        /* \"#utility.yul\":10015:10062   */\n      tag_742\n      jump\t// in\n    tag_741:\n        /* \"#utility.yul\":10010:10013   */\n      dup3\n        /* \"#utility.yul\":10003:10063   */\n      mstore\n        /* \"#utility.yul\":9928:10069   */\n      pop\n      pop\n      jump\t// out\n        /* \"#utility.yul\":10075:10226   */\n    tag_743:\n        /* \"#utility.yul\":10172:10219   */\n      tag_745\n        /* \"#utility.yul\":10213:10218   */\n      dup2\n        /* \"#utility.yul\":10172:10219   */\n      tag_742\n      jump\t// in\n    tag_745:\n        /* \"#utility.yul\":10167:10170   */\n      dup3\n        /* \"#utility.yul\":10160:10220   */\n      mstore\n        /* \"#utility.yul\":10075:10226   */\n      pop\n      pop\n      jump\t// out\n        /* \"#utility.yul\":10232:10576   */\n    tag_746:\n        /* \"#utility.yul\":10310:10313   */\n      0x00\n        /* \"#utility.yul\":10338:10377   */\n      tag_748\n        /* \"#utility.yul\":10371:10376   */\n      dup3\n        /* \"#utility.yul\":10338:10377   */\n      tag_749\n      jump\t// in\n    tag_748:\n        /* \"#utility.yul\":10393:10454   */\n      tag_750\n        /* \"#utility.yul\":10447:10453   */\n      dup2\n        /* \"#utility.yul\":10442:10445   */\n      dup6\n        /* \"#utility.yul\":10393:10454   */\n      tag_751\n      jump\t// in\n    tag_750:\n        /* \"#utility.yul\":10386:10454   */\n      swap4\n      pop\n        /* \"#utility.yul\":10463:10515   */\n      tag_752\n        /* \"#utility.yul\":10508:10514   */\n      dup2\n        /* \"#utility.yul\":10503:10506   */\n      dup6\n        /* \"#utility.yul\":10496:10500   */\n      0x20\n        /* \"#utility.yul\":10489:10494   */\n      dup7\n        /* \"#utility.yul\":10485:10501   */\n      add\n        /* \"#utility.yul\":10463:10515   */\n      tag_753\n      jump\t// in\n    tag_752:\n        /* \"#utility.yul\":10540:10569   */\n      tag_754\n        /* \"#utility.yul\":10562:10568   */\n      dup2\n        /* \"#utility.yul\":10540:10569   */\n      tag_755\n      jump\t// in\n    tag_754:\n        /* \"#utility.yul\":10535:10538   */\n      dup5\n        /* \"#utility.yul\":10531:10570   */\n      add\n        /* \"#utility.yul\":10524:10570   */\n      swap2\n      pop\n        /* \"#utility.yul\":10314:10576   */\n      pop\n        /* \"#utility.yul\":10232:10576   */\n      swap3\n      swap2\n      pop\n      pop\n      jump\t// out\n        /* \"#utility.yul\":10582:10946   */\n    tag_756:\n        /* \"#utility.yul\":10670:10673   */\n      0x00\n        /* \"#utility.yul\":10698:10737   */\n      tag_758\n        /* \"#utility.yul\":10731:10736   */\n      dup3\n        /* \"#utility.yul\":10698:10737   */\n      tag_749\n      jump\t// in\n    tag_758:\n        /* \"#utility.yul\":10753:10824   */\n      tag_759\n        /* \"#utility.yul\":10817:10823   */\n      dup2\n        /* \"#utility.yul\":10812:10815   */\n      dup6\n        /* \"#utility.yul\":10753:10824   */\n      tag_760\n      jump\t// in\n    tag_759:\n        /* \"#utility.yul\":10746:10824   */\n      swap4\n      pop\n        /* \"#utility.yul\":10833:10885   */\n      tag_761\n        /* \"#utility.yul\":10878:10884   */\n      dup2\n        /* \"#utility.yul\":10873:10876   */\n      dup6\n        /* \"#utility.yul\":10866:10870   */\n      0x20\n        /* \"#utility.yul\":10859:10864   */\n      dup7\n        /* \"#utility.yul\":10855:10871   */\n      add\n        /* \"#utility.yul\":10833:10885   */\n      tag_753\n      jump\t// in\n    tag_761:\n        /* \"#utility.yul\":10910:10939   */\n      tag_762\n        /* \"#utility.yul\":10932:10938   */\n      dup2\n        /* \"#utility.yul\":10910:10939   */\n      tag_755\n      jump\t// in\n    tag_762:\n        /* \"#utility.yul\":10905:10908   */\n      dup5\n        /* \"#utility.yul\":10901:10940   */\n      add\n        /* \"#utility.yul\":10894:10940   */\n      swap2\n      pop\n        /* \"#utility.yul\":10674:10946   */\n      pop\n        /* \"#utility.yul\":10582:10946   */\n      swap3\n      swap2\n      pop\n      pop\n      jump\t// out\n        /* \"#utility.yul\":10952:11329   */\n    tag_763:\n        /* \"#utility.yul\":11058:11061   */\n      0x00\n        /* \"#utility.yul\":11086:11125   */\n      tag_765\n        /* \"#utility.yul\":11119:11124   */\n      dup3\n        /* \"#utility.yul\":11086:11125   */\n      tag_749\n      jump\t// in\n    tag_765:\n        /* \"#utility.yul\":11141:11230   */\n      tag_766\n        /* \"#utility.yul\":11223:11229   */\n      dup2\n        /* \"#utility.yul\":11218:11221   */\n      dup6\n        /* \"#utility.yul\":11141:11230   */\n      tag_767\n      jump\t// in\n    tag_766:\n        /* \"#utility.yul\":11134:11230   */\n      swap4\n      pop\n        /* \"#utility.yul\":11239:11291   */\n      tag_768\n        /* \"#utility.yul\":11284:11290   */\n      dup2\n        /* \"#utility.yul\":11279:11282   */\n      dup6\n        /* \"#utility.yul\":11272:11276   */\n      0x20\n        /* \"#utility.yul\":11265:11270   */\n      dup7\n        /* \"#utility.yul\":11261:11277   */\n      add\n        /* \"#utility.yul\":11239:11291   */\n      tag_753\n      jump\t// in\n    tag_768:\n        /* \"#utility.yul\":11316:11322   */\n      dup1\n        /* \"#utility.yul\":11311:11314   */\n      dup5\n        /* \"#utility.yul\":11307:11323   */\n      add\n        /* \"#utility.yul\":11300:11323   */\n      swap2\n      pop\n        /* \"#utility.yul\":11062:11329   */\n      pop\n        /* \"#utility.yul\":10952:11329   */\n      swap3\n      swap2\n      pop\n      pop\n      jump\t// out\n        /* \"#utility.yul\":11359:12204   */\n    tag_769:\n        /* \"#utility.yul\":11462:11465   */\n      0x00\n        /* \"#utility.yul\":11499:11504   */\n      dup2\n        /* \"#utility.yul\":11493:11505   */\n      sload\n        /* \"#utility.yul\":11528:11564   */\n      tag_771\n        /* \"#utility.yul\":11554:11563   */\n      dup2\n        /* \"#utility.yul\":11528:11564   */\n      tag_116\n      jump\t// in\n    tag_771:\n        /* \"#utility.yul\":11580:11669   */\n      tag_772\n        /* \"#utility.yul\":11662:11668   */\n      dup2\n        /* \"#utility.yul\":11657:11660   */\n      dup7\n        /* \"#utility.yul\":11580:11669   */\n      tag_767\n      jump\t// in\n    tag_772:\n        /* \"#utility.yul\":11573:11669   */\n      swap5\n      pop\n        /* \"#utility.yul\":11700:11701   */\n      0x01\n        /* \"#utility.yul\":11689:11698   */\n      dup3\n        /* \"#utility.yul\":11685:11702   */\n      and\n        /* \"#utility.yul\":11716:11717   */\n      0x00\n        /* \"#utility.yul\":11711:11848   */\n      dup2\n      eq\n      tag_774\n      jumpi\n        /* \"#utility.yul\":11862:11863   */\n      0x01\n        /* \"#utility.yul\":11857:12198   */\n      dup2\n      eq\n      tag_775\n      jumpi\n        /* \"#utility.yul\":11678:12198   */\n      jump(tag_773)\n        /* \"#utility.yul\":11711:11848   */\n    tag_774:\n        /* \"#utility.yul\":11795:11799   */\n      0xff\n        /* \"#utility.yul\":11791:11800   */\n      not\n        /* \"#utility.yul\":11780:11789   */\n      dup4\n        /* \"#utility.yul\":11776:11801   */\n      and\n        /* \"#utility.yul\":11771:11774   */\n      dup7\n        /* \"#utility.yul\":11764:11802   */\n      mstore\n        /* \"#utility.yul\":11831:11837   */\n      dup2\n        /* \"#utility.yul\":11826:11829   */\n      dup7\n        /* \"#utility.yul\":11822:11838   */\n      add\n        /* \"#utility.yul\":11815:11838   */\n      swap4\n      pop\n        /* \"#utility.yul\":11711:11848   */\n      jump(tag_773)\n        /* \"#utility.yul\":11857:12198   */\n    tag_775:\n        /* \"#utility.yul\":11924:11962   */\n      tag_776\n        /* \"#utility.yul\":11956:11961   */\n      dup6\n        /* \"#utility.yul\":11924:11962   */\n      tag_777\n      jump\t// in\n    tag_776:\n        /* \"#utility.yul\":11984:11985   */\n      0x00\n        /* \"#utility.yul\":11998:12152   */\n    tag_778:\n        /* \"#utility.yul\":12012:12018   */\n      dup4\n        /* \"#utility.yul\":12009:12010   */\n      dup2\n        /* \"#utility.yul\":12006:12019   */\n      lt\n        /* \"#utility.yul\":11998:12152   */\n      iszero\n      tag_780\n      jumpi\n        /* \"#utility.yul\":12086:12093   */\n      dup2\n        /* \"#utility.yul\":12080:12094   */\n      sload\n        /* \"#utility.yul\":12076:12077   */\n      dup2\n        /* \"#utility.yul\":12071:12074   */\n      dup10\n        /* \"#utility.yul\":12067:12078   */\n      add\n        /* \"#utility.yul\":12060:12095   */\n      mstore\n        /* \"#utility.yul\":12136:12137   */\n      0x01\n        /* \"#utility.yul\":12127:12134   */\n      dup3\n        /* \"#utility.yul\":12123:12138   */\n      add\n        /* \"#utility.yul\":12112:12138   */\n      swap2\n      pop\n        /* \"#utility.yul\":12034:12038   */\n      0x20\n        /* \"#utility.yul\":12031:12032   */\n      dup2\n        /* \"#utility.yul\":12027:12039   */\n      add\n        /* \"#utility.yul\":12022:12039   */\n      swap1\n      pop\n        /* \"#utility.yul\":11998:12152   */\n      jump(tag_778)\n    tag_780:\n        /* \"#utility.yul\":12181:12187   */\n      dup4\n        /* \"#utility.yul\":12176:12179   */\n      dup9\n        /* \"#utility.yul\":12172:12188   */\n      add\n        /* \"#utility.yul\":12165:12188   */\n      swap6\n      pop\n        /* \"#utility.yul\":11864:12198   */\n      pop\n      pop\n        /* \"#utility.yul\":11678:12198   */\n    tag_773:\n      pop\n        /* \"#utility.yul\":11466:12204   */\n      pop\n      pop\n        /* \"#utility.yul\":11359:12204   */\n      swap3\n      swap2\n      pop\n      pop\n      jump\t// out\n        /* \"#utility.yul\":12256:13294   */\n    tag_673:\n        /* \"#utility.yul\":12357:12360   */\n      0x00\n        /* \"#utility.yul\":12393:12397   */\n      0x80\n        /* \"#utility.yul\":12388:12391   */\n      dup4\n        /* \"#utility.yul\":12384:12398   */\n      add\n        /* \"#utility.yul\":12484:12488   */\n      0x00\n        /* \"#utility.yul\":12477:12482   */\n      dup4\n        /* \"#utility.yul\":12473:12489   */\n      add\n        /* \"#utility.yul\":12467:12490   */\n      mload\n        /* \"#utility.yul\":12537:12540   */\n      dup5\n        /* \"#utility.yul\":12531:12535   */\n      dup3\n        /* \"#utility.yul\":12527:12541   */\n      sub\n        /* \"#utility.yul\":12520:12524   */\n      0x00\n        /* \"#utility.yul\":12515:12518   */\n      dup7\n        /* \"#utility.yul\":12511:12525   */\n      add\n        /* \"#utility.yul\":12504:12542   */\n      mstore\n        /* \"#utility.yul\":12563:12636   */\n      tag_782\n        /* \"#utility.yul\":12631:12635   */\n      dup3\n        /* \"#utility.yul\":12617:12629   */\n      dup3\n        /* \"#utility.yul\":12563:12636   */\n      tag_746\n      jump\t// in\n    tag_782:\n        /* \"#utility.yul\":12555:12636   */\n      swap2\n      pop\n        /* \"#utility.yul\":12408:12647   */\n      pop\n        /* \"#utility.yul\":12737:12741   */\n      0x20\n        /* \"#utility.yul\":12730:12735   */\n      dup4\n        /* \"#utility.yul\":12726:12742   */\n      add\n        /* \"#utility.yul\":12720:12743   */\n      mload\n        /* \"#utility.yul\":12756:12819   */\n      tag_783\n        /* \"#utility.yul\":12813:12817   */\n      0x20\n        /* \"#utility.yul\":12808:12811   */\n      dup7\n        /* \"#utility.yul\":12804:12818   */\n      add\n        /* \"#utility.yul\":12790:12802   */\n      dup3\n        /* \"#utility.yul\":12756:12819   */\n      tag_682\n      jump\t// in\n    tag_783:\n        /* \"#utility.yul\":12657:12829   */\n      pop\n        /* \"#utility.yul\":12917:12921   */\n      0x40\n        /* \"#utility.yul\":12910:12915   */\n      dup4\n        /* \"#utility.yul\":12906:12922   */\n      add\n        /* \"#utility.yul\":12900:12923   */\n      mload\n        /* \"#utility.yul\":12936:13007   */\n      tag_784\n        /* \"#utility.yul\":13001:13005   */\n      0x40\n        /* \"#utility.yul\":12996:12999   */\n      dup7\n        /* \"#utility.yul\":12992:13006   */\n      add\n        /* \"#utility.yul\":12978:12990   */\n      dup3\n        /* \"#utility.yul\":12936:13007   */\n      tag_735\n      jump\t// in\n    tag_784:\n        /* \"#utility.yul\":12839:13017   */\n      pop\n        /* \"#utility.yul\":13104:13108   */\n      0x60\n        /* \"#utility.yul\":13097:13102   */\n      dup4\n        /* \"#utility.yul\":13093:13109   */\n      add\n        /* \"#utility.yul\":13087:13110   */\n      mload\n        /* \"#utility.yul\":13157:13160   */\n      dup5\n        /* \"#utility.yul\":13151:13155   */\n      dup3\n        /* \"#utility.yul\":13147:13161   */\n      sub\n        /* \"#utility.yul\":13140:13144   */\n      0x60\n        /* \"#utility.yul\":13135:13138   */\n      dup7\n        /* \"#utility.yul\":13131:13145   */\n      add\n        /* \"#utility.yul\":13124:13162   */\n      mstore\n        /* \"#utility.yul\":13183:13256   */\n      tag_785\n        /* \"#utility.yul\":13251:13255   */\n      dup3\n        /* \"#utility.yul\":13237:13249   */\n      dup3\n        /* \"#utility.yul\":13183:13256   */\n      tag_746\n      jump\t// in\n    tag_785:\n        /* \"#utility.yul\":13175:13256   */\n      swap2\n      pop\n        /* \"#utility.yul\":13027:13267   */\n      pop\n        /* \"#utility.yul\":13284:13288   */\n      dup1\n        /* \"#utility.yul\":13277:13288   */\n      swap2\n      pop\n        /* \"#utility.yul\":12362:13294   */\n      pop\n        /* \"#utility.yul\":12256:13294   */\n      swap3\n      swap2\n      pop\n      pop\n      jump\t// out\n        /* \"#utility.yul\":13346:14394   */\n    tag_786:\n        /* \"#utility.yul\":13457:13460   */\n      0x00\n        /* \"#utility.yul\":13493:13497   */\n      0x80\n        /* \"#utility.yul\":13488:13491   */\n      dup4\n        /* \"#utility.yul\":13484:13498   */\n      add\n        /* \"#utility.yul\":13584:13588   */\n      0x00\n        /* \"#utility.yul\":13577:13582   */\n      dup4\n        /* \"#utility.yul\":13573:13589   */\n      add\n        /* \"#utility.yul\":13567:13590   */\n      mload\n        /* \"#utility.yul\":13637:13640   */\n      dup5\n        /* \"#utility.yul\":13631:13635   */\n      dup3\n        /* \"#utility.yul\":13627:13641   */\n      sub\n        /* \"#utility.yul\":13620:13624   */\n      0x00\n        /* \"#utility.yul\":13615:13618   */\n      dup7\n        /* \"#utility.yul\":13611:13625   */\n      add\n        /* \"#utility.yul\":13604:13642   */\n      mstore\n        /* \"#utility.yul\":13663:13736   */\n      tag_788\n        /* \"#utility.yul\":13731:13735   */\n      dup3\n        /* \"#utility.yul\":13717:13729   */\n      dup3\n        /* \"#utility.yul\":13663:13736   */\n      tag_746\n      jump\t// in\n    tag_788:\n        /* \"#utility.yul\":13655:13736   */\n      swap2\n      pop\n        /* \"#utility.yul\":13508:13747   */\n      pop\n        /* \"#utility.yul\":13837:13841   */\n      0x20\n        /* \"#utility.yul\":13830:13835   */\n      dup4\n        /* \"#utility.yul\":13826:13842   */\n      add\n        /* \"#utility.yul\":13820:13843   */\n      mload\n        /* \"#utility.yul\":13856:13919   */\n      tag_789\n        /* \"#utility.yul\":13913:13917   */\n      0x20\n        /* \"#utility.yul\":13908:13911   */\n      dup7\n        /* \"#utility.yul\":13904:13918   */\n      add\n        /* \"#utility.yul\":13890:13902   */\n      dup3\n        /* \"#utility.yul\":13856:13919   */\n      tag_682\n      jump\t// in\n    tag_789:\n        /* \"#utility.yul\":13757:13929   */\n      pop\n        /* \"#utility.yul\":14017:14021   */\n      0x40\n        /* \"#utility.yul\":14010:14015   */\n      dup4\n        /* \"#utility.yul\":14006:14022   */\n      add\n        /* \"#utility.yul\":14000:14023   */\n      mload\n        /* \"#utility.yul\":14036:14107   */\n      tag_790\n        /* \"#utility.yul\":14101:14105   */\n      0x40\n        /* \"#utility.yul\":14096:14099   */\n      dup7\n        /* \"#utility.yul\":14092:14106   */\n      add\n        /* \"#utility.yul\":14078:14090   */\n      dup3\n        /* \"#utility.yul\":14036:14107   */\n      tag_735\n      jump\t// in\n    tag_790:\n        /* \"#utility.yul\":13939:14117   */\n      pop\n        /* \"#utility.yul\":14204:14208   */\n      0x60\n        /* \"#utility.yul\":14197:14202   */\n      dup4\n        /* \"#utility.yul\":14193:14209   */\n      add\n        /* \"#utility.yul\":14187:14210   */\n      mload\n        /* \"#utility.yul\":14257:14260   */\n      dup5\n        /* \"#utility.yul\":14251:14255   */\n      dup3\n        /* \"#utility.yul\":14247:14261   */\n      sub\n        /* \"#utility.yul\":14240:14244   */\n      0x60\n        /* \"#utility.yul\":14235:14238   */\n      dup7\n        /* \"#utility.yul\":14231:14245   */\n      add\n        /* \"#utility.yul\":14224:14262   */\n      mstore\n        /* \"#utility.yul\":14283:14356   */\n      tag_791\n        /* \"#utility.yul\":14351:14355   */\n      dup3\n        /* \"#utility.yul\":14337:14349   */\n      dup3\n        /* \"#utility.yul\":14283:14356   */\n      tag_746\n      jump\t// in\n    tag_791:\n        /* \"#utility.yul\":14275:14356   */\n      swap2\n      pop\n        /* \"#utility.yul\":14127:14367   */\n      pop\n        /* \"#utility.yul\":14384:14388   */\n      dup1\n        /* \"#utility.yul\":14377:14388   */\n      swap2\n      pop\n        /* \"#utility.yul\":13462:14394   */\n      pop\n        /* \"#utility.yul\":13346:14394   */\n      swap3\n      swap2\n      pop\n      pop\n      jump\t// out\n        /* \"#utility.yul\":14470:16048   */\n    tag_677:\n        /* \"#utility.yul\":14595:14598   */\n      0x00\n        /* \"#utility.yul\":14631:14635   */\n      0xe0\n        /* \"#utility.yul\":14626:14629   */\n      dup4\n        /* \"#utility.yul\":14622:14636   */\n      add\n        /* \"#utility.yul\":14723:14727   */\n      0x00\n        /* \"#utility.yul\":14716:14721   */\n      dup4\n        /* \"#utility.yul\":14712:14728   */\n      add\n        /* \"#utility.yul\":14706:14729   */\n      mload\n        /* \"#utility.yul\":14776:14779   */\n      dup5\n        /* \"#utility.yul\":14770:14774   */\n      dup3\n        /* \"#utility.yul\":14766:14780   */\n      sub\n        /* \"#utility.yul\":14759:14763   */\n      0x00\n        /* \"#utility.yul\":14754:14757   */\n      dup7\n        /* \"#utility.yul\":14750:14764   */\n      add\n        /* \"#utility.yul\":14743:14781   */\n      mstore\n        /* \"#utility.yul\":14802:14875   */\n      tag_793\n        /* \"#utility.yul\":14870:14874   */\n      dup3\n        /* \"#utility.yul\":14856:14868   */\n      dup3\n        /* \"#utility.yul\":14802:14875   */\n      tag_746\n      jump\t// in\n    tag_793:\n        /* \"#utility.yul\":14794:14875   */\n      swap2\n      pop\n        /* \"#utility.yul\":14646:14886   */\n      pop\n        /* \"#utility.yul\":14971:14975   */\n      0x20\n        /* \"#utility.yul\":14964:14969   */\n      dup4\n        /* \"#utility.yul\":14960:14976   */\n      add\n        /* \"#utility.yul\":14954:14977   */\n      mload\n        /* \"#utility.yul\":15024:15027   */\n      dup5\n        /* \"#utility.yul\":15018:15022   */\n      dup3\n        /* \"#utility.yul\":15014:15028   */\n      sub\n        /* \"#utility.yul\":15007:15011   */\n      0x20\n        /* \"#utility.yul\":15002:15005   */\n      dup7\n        /* \"#utility.yul\":14998:15012   */\n      add\n        /* \"#utility.yul\":14991:15029   */\n      mstore\n        /* \"#utility.yul\":15050:15123   */\n      tag_794\n        /* \"#utility.yul\":15118:15122   */\n      dup3\n        /* \"#utility.yul\":15104:15116   */\n      dup3\n        /* \"#utility.yul\":15050:15123   */\n      tag_746\n      jump\t// in\n    tag_794:\n        /* \"#utility.yul\":15042:15123   */\n      swap2\n      pop\n        /* \"#utility.yul\":14896:15134   */\n      pop\n        /* \"#utility.yul\":15218:15222   */\n      0x40\n        /* \"#utility.yul\":15211:15216   */\n      dup4\n        /* \"#utility.yul\":15207:15223   */\n      add\n        /* \"#utility.yul\":15201:15224   */\n      mload\n        /* \"#utility.yul\":15237:15300   */\n      tag_795\n        /* \"#utility.yul\":15294:15298   */\n      0x40\n        /* \"#utility.yul\":15289:15292   */\n      dup7\n        /* \"#utility.yul\":15285:15299   */\n      add\n        /* \"#utility.yul\":15271:15283   */\n      dup3\n        /* \"#utility.yul\":15237:15300   */\n      tag_796\n      jump\t// in\n    tag_795:\n        /* \"#utility.yul\":15144:15310   */\n      pop\n        /* \"#utility.yul\":15394:15398   */\n      0x60\n        /* \"#utility.yul\":15387:15392   */\n      dup4\n        /* \"#utility.yul\":15383:15399   */\n      add\n        /* \"#utility.yul\":15377:15400   */\n      mload\n        /* \"#utility.yul\":15413:15476   */\n      tag_797\n        /* \"#utility.yul\":15470:15474   */\n      0x60\n        /* \"#utility.yul\":15465:15468   */\n      dup7\n        /* \"#utility.yul\":15461:15475   */\n      add\n        /* \"#utility.yul\":15447:15459   */\n      dup3\n        /* \"#utility.yul\":15413:15476   */\n      tag_682\n      jump\t// in\n    tag_797:\n        /* \"#utility.yul\":15320:15486   */\n      pop\n        /* \"#utility.yul\":15568:15572   */\n      0x80\n        /* \"#utility.yul\":15561:15566   */\n      dup4\n        /* \"#utility.yul\":15557:15573   */\n      add\n        /* \"#utility.yul\":15551:15574   */\n      mload\n        /* \"#utility.yul\":15587:15650   */\n      tag_798\n        /* \"#utility.yul\":15644:15648   */\n      0x80\n        /* \"#utility.yul\":15639:15642   */\n      dup7\n        /* \"#utility.yul\":15635:15649   */\n      add\n        /* \"#utility.yul\":15621:15633   */\n      dup3\n        /* \"#utility.yul\":15587:15650   */\n      tag_682\n      jump\t// in\n    tag_798:\n        /* \"#utility.yul\":15496:15660   */\n      pop\n        /* \"#utility.yul\":15744:15748   */\n      0xa0\n        /* \"#utility.yul\":15737:15742   */\n      dup4\n        /* \"#utility.yul\":15733:15749   */\n      add\n        /* \"#utility.yul\":15727:15750   */\n      mload\n        /* \"#utility.yul\":15763:15826   */\n      tag_799\n        /* \"#utility.yul\":15820:15824   */\n      0xa0\n        /* \"#utility.yul\":15815:15818   */\n      dup7\n        /* \"#utility.yul\":15811:15825   */\n      add\n        /* \"#utility.yul\":15797:15809   */\n      dup3\n        /* \"#utility.yul\":15763:15826   */\n      tag_796\n      jump\t// in\n    tag_799:\n        /* \"#utility.yul\":15670:15836   */\n      pop\n        /* \"#utility.yul\":15929:15933   */\n      0xc0\n        /* \"#utility.yul\":15922:15927   */\n      dup4\n        /* \"#utility.yul\":15918:15934   */\n      add\n        /* \"#utility.yul\":15912:15935   */\n      mload\n        /* \"#utility.yul\":15948:16011   */\n      tag_800\n        /* \"#utility.yul\":16005:16009   */\n      0xc0\n        /* \"#utility.yul\":16000:16003   */\n      dup7\n        /* \"#utility.yul\":15996:16010   */\n      add\n        /* \"#utility.yul\":15982:15994   */\n      dup3\n        /* \"#utility.yul\":15948:16011   */\n      tag_796\n      jump\t// in\n    tag_800:\n        /* \"#utility.yul\":15846:16021   */\n      pop\n        /* \"#utility.yul\":16038:16042   */\n      dup1\n        /* \"#utility.yul\":16031:16042   */\n      swap2\n      pop\n        /* \"#utility.yul\":14600:16048   */\n      pop\n        /* \"#utility.yul\":14470:16048   */\n      swap3\n      swap2\n      pop\n      pop\n      jump\t// out\n        /* \"#utility.yul\":16100:17819   */\n    tag_681:\n        /* \"#utility.yul\":16199:16202   */\n      0x00\n        /* \"#utility.yul\":16235:16239   */\n      0xe0\n        /* \"#utility.yul\":16230:16233   */\n      dup4\n        /* \"#utility.yul\":16226:16240   */\n      add\n        /* \"#utility.yul\":16324:16328   */\n      0x00\n        /* \"#utility.yul\":16317:16322   */\n      dup4\n        /* \"#utility.yul\":16313:16329   */\n      add\n        /* \"#utility.yul\":16307:16330   */\n      mload\n        /* \"#utility.yul\":16377:16380   */\n      dup5\n        /* \"#utility.yul\":16371:16375   */\n      dup3\n        /* \"#utility.yul\":16367:16381   */\n      sub\n        /* \"#utility.yul\":16360:16364   */\n      0x00\n        /* \"#utility.yul\":16355:16358   */\n      dup7\n        /* \"#utility.yul\":16351:16365   */\n      add\n        /* \"#utility.yul\":16344:16382   */\n      mstore\n        /* \"#utility.yul\":16403:16476   */\n      tag_802\n        /* \"#utility.yul\":16471:16475   */\n      dup3\n        /* \"#utility.yul\":16457:16469   */\n      dup3\n        /* \"#utility.yul\":16403:16476   */\n      tag_746\n      jump\t// in\n    tag_802:\n        /* \"#utility.yul\":16395:16476   */\n      swap2\n      pop\n        /* \"#utility.yul\":16250:16487   */\n      pop\n        /* \"#utility.yul\":16573:16577   */\n      0x20\n        /* \"#utility.yul\":16566:16571   */\n      dup4\n        /* \"#utility.yul\":16562:16578   */\n      add\n        /* \"#utility.yul\":16556:16579   */\n      mload\n        /* \"#utility.yul\":16626:16629   */\n      dup5\n        /* \"#utility.yul\":16620:16624   */\n      dup3\n        /* \"#utility.yul\":16616:16630   */\n      sub\n        /* \"#utility.yul\":16609:16613   */\n      0x20\n        /* \"#utility.yul\":16604:16607   */\n      dup7\n        /* \"#utility.yul\":16600:16614   */\n      add\n        /* \"#utility.yul\":16593:16631   */\n      mstore\n        /* \"#utility.yul\":16652:16725   */\n      tag_803\n        /* \"#utility.yul\":16720:16724   */\n      dup3\n        /* \"#utility.yul\":16706:16718   */\n      dup3\n        /* \"#utility.yul\":16652:16725   */\n      tag_746\n      jump\t// in\n    tag_803:\n        /* \"#utility.yul\":16644:16725   */\n      swap2\n      pop\n        /* \"#utility.yul\":16497:16736   */\n      pop\n        /* \"#utility.yul\":16822:16826   */\n      0x40\n        /* \"#utility.yul\":16815:16820   */\n      dup4\n        /* \"#utility.yul\":16811:16827   */\n      add\n        /* \"#utility.yul\":16805:16828   */\n      mload\n        /* \"#utility.yul\":16841:16914   */\n      tag_804\n        /* \"#utility.yul\":16908:16912   */\n      0x40\n        /* \"#utility.yul\":16903:16906   */\n      dup7\n        /* \"#utility.yul\":16899:16913   */\n      add\n        /* \"#utility.yul\":16885:16897   */\n      dup3\n        /* \"#utility.yul\":16841:16914   */\n      tag_739\n      jump\t// in\n    tag_804:\n        /* \"#utility.yul\":16746:16924   */\n      pop\n        /* \"#utility.yul\":17012:17016   */\n      0x60\n        /* \"#utility.yul\":17005:17010   */\n      dup4\n        /* \"#utility.yul\":17001:17017   */\n      add\n        /* \"#utility.yul\":16995:17018   */\n      mload\n        /* \"#utility.yul\":17031:17102   */\n      tag_805\n        /* \"#utility.yul\":17096:17100   */\n      0x60\n        /* \"#utility.yul\":17091:17094   */\n      dup7\n        /* \"#utility.yul\":17087:17101   */\n      add\n        /* \"#utility.yul\":17073:17085   */\n      dup3\n        /* \"#utility.yul\":17031:17102   */\n      tag_735\n      jump\t// in\n    tag_805:\n        /* \"#utility.yul\":16934:17112   */\n      pop\n        /* \"#utility.yul\":17198:17202   */\n      0x80\n        /* \"#utility.yul\":17191:17196   */\n      dup4\n        /* \"#utility.yul\":17187:17203   */\n      add\n        /* \"#utility.yul\":17181:17204   */\n      mload\n        /* \"#utility.yul\":17251:17254   */\n      dup5\n        /* \"#utility.yul\":17245:17249   */\n      dup3\n        /* \"#utility.yul\":17241:17255   */\n      sub\n        /* \"#utility.yul\":17234:17238   */\n      0x80\n        /* \"#utility.yul\":17229:17232   */\n      dup7\n        /* \"#utility.yul\":17225:17239   */\n      add\n        /* \"#utility.yul\":17218:17256   */\n      mstore\n        /* \"#utility.yul\":17277:17350   */\n      tag_806\n        /* \"#utility.yul\":17345:17349   */\n      dup3\n        /* \"#utility.yul\":17331:17343   */\n      dup3\n        /* \"#utility.yul\":17277:17350   */\n      tag_746\n      jump\t// in\n    tag_806:\n        /* \"#utility.yul\":17269:17350   */\n      swap2\n      pop\n        /* \"#utility.yul\":17122:17361   */\n      pop\n        /* \"#utility.yul\":17448:17452   */\n      0xa0\n        /* \"#utility.yul\":17441:17446   */\n      dup4\n        /* \"#utility.yul\":17437:17453   */\n      add\n        /* \"#utility.yul\":17431:17454   */\n      mload\n        /* \"#utility.yul\":17501:17504   */\n      dup5\n        /* \"#utility.yul\":17495:17499   */\n      dup3\n        /* \"#utility.yul\":17491:17505   */\n      sub\n        /* \"#utility.yul\":17484:17488   */\n      0xa0\n        /* \"#utility.yul\":17479:17482   */\n      dup7\n        /* \"#utility.yul\":17475:17489   */\n      add\n        /* \"#utility.yul\":17468:17506   */\n      mstore\n        /* \"#utility.yul\":17527:17600   */\n      tag_807\n        /* \"#utility.yul\":17595:17599   */\n      dup3\n        /* \"#utility.yul\":17581:17593   */\n      dup3\n        /* \"#utility.yul\":17527:17600   */\n      tag_746\n      jump\t// in\n    tag_807:\n        /* \"#utility.yul\":17519:17600   */\n      swap2\n      pop\n        /* \"#utility.yul\":17371:17611   */\n      pop\n        /* \"#utility.yul\":17700:17704   */\n      0xc0\n        /* \"#utility.yul\":17693:17698   */\n      dup4\n        /* \"#utility.yul\":17689:17705   */\n      add\n        /* \"#utility.yul\":17683:17706   */\n      mload\n        /* \"#utility.yul\":17719:17782   */\n      tag_808\n        /* \"#utility.yul\":17776:17780   */\n      0xc0\n        /* \"#utility.yul\":17771:17774   */\n      dup7\n        /* \"#utility.yul\":17767:17781   */\n      add\n        /* \"#utility.yul\":17753:17765   */\n      dup3\n        /* \"#utility.yul\":17719:17782   */\n      tag_682\n      jump\t// in\n    tag_808:\n        /* \"#utility.yul\":17621:17792   */\n      pop\n        /* \"#utility.yul\":17809:17813   */\n      dup1\n        /* \"#utility.yul\":17802:17813   */\n      swap2\n      pop\n        /* \"#utility.yul\":16204:17819   */\n      pop\n        /* \"#utility.yul\":16100:17819   */\n      swap3\n      swap2\n      pop\n      pop\n      jump\t// out\n        /* \"#utility.yul\":17871:19600   */\n    tag_809:\n        /* \"#utility.yul\":17980:17983   */\n      0x00\n        /* \"#utility.yul\":18016:18020   */\n      0xe0\n        /* \"#utility.yul\":18011:18014   */\n      dup4\n        /* \"#utility.yul\":18007:18021   */\n      add\n        /* \"#utility.yul\":18105:18109   */\n      0x00\n        /* \"#utility.yul\":18098:18103   */\n      dup4\n        /* \"#utility.yul\":18094:18110   */\n      add\n        /* \"#utility.yul\":18088:18111   */\n      mload\n        /* \"#utility.yul\":18158:18161   */\n      dup5\n        /* \"#utility.yul\":18152:18156   */\n      dup3\n        /* \"#utility.yul\":18148:18162   */\n      sub\n        /* \"#utility.yul\":18141:18145   */\n      0x00\n        /* \"#utility.yul\":18136:18139   */\n      dup7\n        /* \"#utility.yul\":18132:18146   */\n      add\n        /* \"#utility.yul\":18125:18163   */\n      mstore\n        /* \"#utility.yul\":18184:18257   */\n      tag_811\n        /* \"#utility.yul\":18252:18256   */\n      dup3\n        /* \"#utility.yul\":18238:18250   */\n      dup3\n        /* \"#utility.yul\":18184:18257   */\n      tag_746\n      jump\t// in\n    tag_811:\n        /* \"#utility.yul\":18176:18257   */\n      swap2\n      pop\n        /* \"#utility.yul\":18031:18268   */\n      pop\n        /* \"#utility.yul\":18354:18358   */\n      0x20\n        /* \"#utility.yul\":18347:18352   */\n      dup4\n        /* \"#utility.yul\":18343:18359   */\n      add\n        /* \"#utility.yul\":18337:18360   */\n      mload\n        /* \"#utility.yul\":18407:18410   */\n      dup5\n        /* \"#utility.yul\":18401:18405   */\n      dup3\n        /* \"#utility.yul\":18397:18411   */\n      sub\n        /* \"#utility.yul\":18390:18394   */\n      0x20\n        /* \"#utility.yul\":18385:18388   */\n      dup7\n        /* \"#utility.yul\":18381:18395   */\n      add\n        /* \"#utility.yul\":18374:18412   */\n      mstore\n        /* \"#utility.yul\":18433:18506   */\n      tag_812\n        /* \"#utility.yul\":18501:18505   */\n      dup3\n        /* \"#utility.yul\":18487:18499   */\n      dup3\n        /* \"#utility.yul\":18433:18506   */\n      tag_746\n      jump\t// in\n    tag_812:\n        /* \"#utility.yul\":18425:18506   */\n      swap2\n      pop\n        /* \"#utility.yul\":18278:18517   */\n      pop\n        /* \"#utility.yul\":18603:18607   */\n      0x40\n        /* \"#utility.yul\":18596:18601   */\n      dup4\n        /* \"#utility.yul\":18592:18608   */\n      add\n        /* \"#utility.yul\":18586:18609   */\n      mload\n        /* \"#utility.yul\":18622:18695   */\n      tag_813\n        /* \"#utility.yul\":18689:18693   */\n      0x40\n        /* \"#utility.yul\":18684:18687   */\n      dup7\n        /* \"#utility.yul\":18680:18694   */\n      add\n        /* \"#utility.yul\":18666:18678   */\n      dup3\n        /* \"#utility.yul\":18622:18695   */\n      tag_739\n      jump\t// in\n    tag_813:\n        /* \"#utility.yul\":18527:18705   */\n      pop\n        /* \"#utility.yul\":18793:18797   */\n      0x60\n        /* \"#utility.yul\":18786:18791   */\n      dup4\n        /* \"#utility.yul\":18782:18798   */\n      add\n        /* \"#utility.yul\":18776:18799   */\n      mload\n        /* \"#utility.yul\":18812:18883   */\n      tag_814\n        /* \"#utility.yul\":18877:18881   */\n      0x60\n        /* \"#utility.yul\":18872:18875   */\n      dup7\n        /* \"#utility.yul\":18868:18882   */\n      add\n        /* \"#utility.yul\":18854:18866   */\n      dup3\n        /* \"#utility.yul\":18812:18883   */\n      tag_735\n      jump\t// in\n    tag_814:\n        /* \"#utility.yul\":18715:18893   */\n      pop\n        /* \"#utility.yul\":18979:18983   */\n      0x80\n        /* \"#utility.yul\":18972:18977   */\n      dup4\n        /* \"#utility.yul\":18968:18984   */\n      add\n        /* \"#utility.yul\":18962:18985   */\n      mload\n        /* \"#utility.yul\":19032:19035   */\n      dup5\n        /* \"#utility.yul\":19026:19030   */\n      dup3\n        /* \"#utility.yul\":19022:19036   */\n      sub\n        /* \"#utility.yul\":19015:19019   */\n      0x80\n        /* \"#utility.yul\":19010:19013   */\n      dup7\n        /* \"#utility.yul\":19006:19020   */\n      add\n        /* \"#utility.yul\":18999:19037   */\n      mstore\n        /* \"#utility.yul\":19058:19131   */\n      tag_815\n        /* \"#utility.yul\":19126:19130   */\n      dup3\n        /* \"#utility.yul\":19112:19124   */\n      dup3\n        /* \"#utility.yul\":19058:19131   */\n      tag_746\n      jump\t// in\n    tag_815:\n        /* \"#utility.yul\":19050:19131   */\n      swap2\n      pop\n        /* \"#utility.yul\":18903:19142   */\n      pop\n        /* \"#utility.yul\":19229:19233   */\n      0xa0\n        /* \"#utility.yul\":19222:19227   */\n      dup4\n        /* \"#utility.yul\":19218:19234   */\n      add\n        /* \"#utility.yul\":19212:19235   */\n      mload\n        /* \"#utility.yul\":19282:19285   */\n      dup5\n        /* \"#utility.yul\":19276:19280   */\n      dup3\n        /* \"#utility.yul\":19272:19286   */\n      sub\n        /* \"#utility.yul\":19265:19269   */\n      0xa0\n        /* \"#utility.yul\":19260:19263   */\n      dup7\n        /* \"#utility.yul\":19256:19270   */\n      add\n        /* \"#utility.yul\":19249:19287   */\n      mstore\n        /* \"#utility.yul\":19308:19381   */\n      tag_816\n        /* \"#utility.yul\":19376:19380   */\n      dup3\n        /* \"#utility.yul\":19362:19374   */\n      dup3\n        /* \"#utility.yul\":19308:19381   */\n      tag_746\n      jump\t// in\n    tag_816:\n        /* \"#utility.yul\":19300:19381   */\n      swap2\n      pop\n        /* \"#utility.yul\":19152:19392   */\n      pop\n        /* \"#utility.yul\":19481:19485   */\n      0xc0\n        /* \"#utility.yul\":19474:19479   */\n      dup4\n        /* \"#utility.yul\":19470:19486   */\n      add\n        /* \"#utility.yul\":19464:19487   */\n      mload\n        /* \"#utility.yul\":19500:19563   */\n      tag_817\n        /* \"#utility.yul\":19557:19561   */\n      0xc0\n        /* \"#utility.yul\":19552:19555   */\n      dup7\n        /* \"#utility.yul\":19548:19562   */\n      add\n        /* \"#utility.yul\":19534:19546   */\n      dup3\n        /* \"#utility.yul\":19500:19563   */\n      tag_682\n      jump\t// in\n    tag_817:\n        /* \"#utility.yul\":19402:19573   */\n      pop\n        /* \"#utility.yul\":19590:19594   */\n      dup1\n        /* \"#utility.yul\":19583:19594   */\n      swap2\n      pop\n        /* \"#utility.yul\":17985:19600   */\n      pop\n        /* \"#utility.yul\":17871:19600   */\n      swap3\n      swap2\n      pop\n      pop\n      jump\t// out\n        /* \"#utility.yul\":19606:19714   */\n    tag_796:\n        /* \"#utility.yul\":19683:19707   */\n      tag_819\n        /* \"#utility.yul\":19701:19706   */\n      dup2\n        /* \"#utility.yul\":19683:19707   */\n      tag_820\n      jump\t// in\n    tag_819:\n        /* \"#utility.yul\":19678:19681   */\n      dup3\n        /* \"#utility.yul\":19671:19708   */\n      mstore\n        /* \"#utility.yul\":19606:19714   */\n      pop\n      pop\n      jump\t// out\n        /* \"#utility.yul\":19720:19838   */\n    tag_821:\n        /* \"#utility.yul\":19807:19831   */\n      tag_823\n        /* \"#utility.yul\":19825:19830   */\n      dup2\n        /* \"#utility.yul\":19807:19831   */\n      tag_820\n      jump\t// in\n    tag_823:\n        /* \"#utility.yul\":19802:19805   */\n      dup3\n        /* \"#utility.yul\":19795:19832   */\n      mstore\n        /* \"#utility.yul\":19720:19838   */\n      pop\n      pop\n      jump\t// out\n        /* \"#utility.yul\":19844:20119   */\n    tag_519:\n        /* \"#utility.yul\":19976:19979   */\n      0x00\n        /* \"#utility.yul\":19998:20093   */\n      tag_825\n        /* \"#utility.yul\":20089:20092   */\n      dup3\n        /* \"#utility.yul\":20080:20086   */\n      dup5\n        /* \"#utility.yul\":19998:20093   */\n      tag_763\n      jump\t// in\n    tag_825:\n        /* \"#utility.yul\":19991:20093   */\n      swap2\n      pop\n        /* \"#utility.yul\":20110:20113   */\n      dup2\n        /* \"#utility.yul\":20103:20113   */\n      swap1\n      pop\n        /* \"#utility.yul\":19844:20119   */\n      swap3\n      swap2\n      pop\n      pop\n      jump\t// out\n        /* \"#utility.yul\":20125:20394   */\n    tag_550:\n        /* \"#utility.yul\":20254:20257   */\n      0x00\n        /* \"#utility.yul\":20276:20368   */\n      tag_827\n        /* \"#utility.yul\":20364:20367   */\n      dup3\n        /* \"#utility.yul\":20355:20361   */\n      dup5\n        /* \"#utility.yul\":20276:20368   */\n      tag_769\n      jump\t// in\n    tag_827:\n        /* \"#utility.yul\":20269:20368   */\n      swap2\n      pop\n        /* \"#utility.yul\":20385:20388   */\n      dup2\n        /* \"#utility.yul\":20378:20388   */\n      swap1\n      pop\n        /* \"#utility.yul\":20125:20394   */\n      swap3\n      swap2\n      pop\n      pop\n      jump\t// out\n        /* \"#utility.yul\":20400:20622   */\n    tag_70:\n        /* \"#utility.yul\":20493:20497   */\n      0x00\n        /* \"#utility.yul\":20531:20533   */\n      0x20\n        /* \"#utility.yul\":20520:20529   */\n      dup3\n        /* \"#utility.yul\":20516:20534   */\n      add\n        /* \"#utility.yul\":20508:20534   */\n      swap1\n      pop\n        /* \"#utility.yul\":20544:20615   */\n      tag_829\n        /* \"#utility.yul\":20612:20613   */\n      0x00\n        /* \"#utility.yul\":20601:20610   */\n      dup4\n        /* \"#utility.yul\":20597:20614   */\n      add\n        /* \"#utility.yul\":20588:20594   */\n      dup5\n        /* \"#utility.yul\":20544:20615   */\n      tag_686\n      jump\t// in\n    tag_829:\n        /* \"#utility.yul\":20400:20622   */\n      swap3\n      swap2\n      pop\n      pop\n      jump\t// out\n        /* \"#utility.yul\":20628:21085   */\n    tag_90:\n        /* \"#utility.yul\":20813:20817   */\n      0x00\n        /* \"#utility.yul\":20851:20853   */\n      0x20\n        /* \"#utility.yul\":20840:20849   */\n      dup3\n        /* \"#utility.yul\":20836:20854   */\n      add\n        /* \"#utility.yul\":20828:20854   */\n      swap1\n      pop\n        /* \"#utility.yul\":20900:20909   */\n      dup2\n        /* \"#utility.yul\":20894:20898   */\n      dup2\n        /* \"#utility.yul\":20890:20910   */\n      sub\n        /* \"#utility.yul\":20886:20887   */\n      0x00\n        /* \"#utility.yul\":20875:20884   */\n      dup4\n        /* \"#utility.yul\":20871:20888   */\n      add\n        /* \"#utility.yul\":20864:20911   */\n      mstore\n        /* \"#utility.yul\":20928:21078   */\n      tag_831\n        /* \"#utility.yul\":21073:21077   */\n      dup2\n        /* \"#utility.yul\":21064:21070   */\n      dup5\n        /* \"#utility.yul\":20928:21078   */\n      tag_689\n      jump\t// in\n    tag_831:\n        /* \"#utility.yul\":20920:21078   */\n      swap1\n      pop\n        /* \"#utility.yul\":20628:21085   */\n      swap3\n      swap2\n      pop\n      pop\n      jump\t// out\n        /* \"#utility.yul\":21091:21596   */\n    tag_37:\n        /* \"#utility.yul\":21300:21304   */\n      0x00\n        /* \"#utility.yul\":21338:21340   */\n      0x20\n        /* \"#utility.yul\":21327:21336   */\n      dup3\n        /* \"#utility.yul\":21323:21341   */\n      add\n        /* \"#utility.yul\":21315:21341   */\n      swap1\n      pop\n        /* \"#utility.yul\":21387:21396   */\n      dup2\n        /* \"#utility.yul\":21381:21385   */\n      dup2\n        /* \"#utility.yul\":21377:21397   */\n      sub\n        /* \"#utility.yul\":21373:21374   */\n      0x00\n        /* \"#utility.yul\":21362:21371   */\n      dup4\n        /* \"#utility.yul\":21358:21375   */\n      add\n        /* \"#utility.yul\":21351:21398   */\n      mstore\n        /* \"#utility.yul\":21415:21589   */\n      tag_833\n        /* \"#utility.yul\":21584:21588   */\n      dup2\n        /* \"#utility.yul\":21575:21581   */\n      dup5\n        /* \"#utility.yul\":21415:21589   */\n      tag_703\n      jump\t// in\n    tag_833:\n        /* \"#utility.yul\":21407:21589   */\n      swap1\n      pop\n        /* \"#utility.yul\":21091:21596   */\n      swap3\n      swap2\n      pop\n      pop\n      jump\t// out\n        /* \"#utility.yul\":21602:22055   */\n    tag_25:\n        /* \"#utility.yul\":21785:21789   */\n      0x00\n        /* \"#utility.yul\":21823:21825   */\n      0x20\n        /* \"#utility.yul\":21812:21821   */\n      dup3\n        /* \"#utility.yul\":21808:21826   */\n      add\n        /* \"#utility.yul\":21800:21826   */\n      swap1\n      pop\n        /* \"#utility.yul\":21872:21881   */\n      dup2\n        /* \"#utility.yul\":21866:21870   */\n      dup2\n        /* \"#utility.yul\":21862:21882   */\n      sub\n        /* \"#utility.yul\":21858:21859   */\n      0x00\n        /* \"#utility.yul\":21847:21856   */\n      dup4\n        /* \"#utility.yul\":21843:21860   */\n      add\n        /* \"#utility.yul\":21836:21883   */\n      mstore\n        /* \"#utility.yul\":21900:22048   */\n      tag_835\n        /* \"#utility.yul\":22043:22047   */\n      dup2\n        /* \"#utility.yul\":22034:22040   */\n      dup5\n        /* \"#utility.yul\":21900:22048   */\n      tag_717\n      jump\t// in\n    tag_835:\n        /* \"#utility.yul\":21892:22048   */\n      swap1\n      pop\n        /* \"#utility.yul\":21602:22055   */\n      swap3\n      swap2\n      pop\n      pop\n      jump\t// out\n        /* \"#utility.yul\":22061:22271   */\n    tag_85:\n        /* \"#utility.yul\":22148:22152   */\n      0x00\n        /* \"#utility.yul\":22186:22188   */\n      0x20\n        /* \"#utility.yul\":22175:22184   */\n      dup3\n        /* \"#utility.yul\":22171:22189   */\n      add\n        /* \"#utility.yul\":22163:22189   */\n      swap1\n      pop\n        /* \"#utility.yul\":22199:22264   */\n      tag_837\n        /* \"#utility.yul\":22261:22262   */\n      0x00\n        /* \"#utility.yul\":22250:22259   */\n      dup4\n        /* \"#utility.yul\":22246:22263   */\n      add\n        /* \"#utility.yul\":22237:22243   */\n      dup5\n        /* \"#utility.yul\":22199:22264   */\n      tag_731\n      jump\t// in\n    tag_837:\n        /* \"#utility.yul\":22061:22271   */\n      swap3\n      swap2\n      pop\n      pop\n      jump\t// out\n        /* \"#utility.yul\":22277:22519   */\n    tag_51:\n        /* \"#utility.yul\":22380:22384   */\n      0x00\n        /* \"#utility.yul\":22418:22420   */\n      0x20\n        /* \"#utility.yul\":22407:22416   */\n      dup3\n        /* \"#utility.yul\":22403:22421   */\n      add\n        /* \"#utility.yul\":22395:22421   */\n      swap1\n      pop\n        /* \"#utility.yul\":22431:22512   */\n      tag_839\n        /* \"#utility.yul\":22509:22510   */\n      0x00\n        /* \"#utility.yul\":22498:22507   */\n      dup4\n        /* \"#utility.yul\":22494:22511   */\n      add\n        /* \"#utility.yul\":22485:22491   */\n      dup5\n        /* \"#utility.yul\":22431:22512   */\n      tag_743\n      jump\t// in\n    tag_839:\n        /* \"#utility.yul\":22277:22519   */\n      swap3\n      swap2\n      pop\n      pop\n      jump\t// out\n        /* \"#utility.yul\":22525:23593   */\n    tag_31:\n        /* \"#utility.yul\":22826:22830   */\n      0x00\n        /* \"#utility.yul\":22864:22867   */\n      0xe0\n        /* \"#utility.yul\":22853:22862   */\n      dup3\n        /* \"#utility.yul\":22849:22868   */\n      add\n        /* \"#utility.yul\":22841:22868   */\n      swap1\n      pop\n        /* \"#utility.yul\":22914:22923   */\n      dup2\n        /* \"#utility.yul\":22908:22912   */\n      dup2\n        /* \"#utility.yul\":22904:22924   */\n      sub\n        /* \"#utility.yul\":22900:22901   */\n      0x00\n        /* \"#utility.yul\":22889:22898   */\n      dup4\n        /* \"#utility.yul\":22885:22902   */\n      add\n        /* \"#utility.yul\":22878:22925   */\n      mstore\n        /* \"#utility.yul\":22942:23020   */\n      tag_841\n        /* \"#utility.yul\":23015:23019   */\n      dup2\n        /* \"#utility.yul\":23006:23012   */\n      dup11\n        /* \"#utility.yul\":22942:23020   */\n      tag_756\n      jump\t// in\n    tag_841:\n        /* \"#utility.yul\":22934:23020   */\n      swap1\n      pop\n        /* \"#utility.yul\":23067:23076   */\n      dup2\n        /* \"#utility.yul\":23061:23065   */\n      dup2\n        /* \"#utility.yul\":23057:23077   */\n      sub\n        /* \"#utility.yul\":23052:23054   */\n      0x20\n        /* \"#utility.yul\":23041:23050   */\n      dup4\n        /* \"#utility.yul\":23037:23055   */\n      add\n        /* \"#utility.yul\":23030:23078   */\n      mstore\n        /* \"#utility.yul\":23095:23173   */\n      tag_842\n        /* \"#utility.yul\":23168:23172   */\n      dup2\n        /* \"#utility.yul\":23159:23165   */\n      dup10\n        /* \"#utility.yul\":23095:23173   */\n      tag_756\n      jump\t// in\n    tag_842:\n        /* \"#utility.yul\":23087:23173   */\n      swap1\n      pop\n        /* \"#utility.yul\":23183:23255   */\n      tag_843\n        /* \"#utility.yul\":23251:23253   */\n      0x40\n        /* \"#utility.yul\":23240:23249   */\n      dup4\n        /* \"#utility.yul\":23236:23254   */\n      add\n        /* \"#utility.yul\":23227:23233   */\n      dup9\n        /* \"#utility.yul\":23183:23255   */\n      tag_821\n      jump\t// in\n    tag_843:\n        /* \"#utility.yul\":23265:23337   */\n      tag_844\n        /* \"#utility.yul\":23333:23335   */\n      0x60\n        /* \"#utility.yul\":23322:23331   */\n      dup4\n        /* \"#utility.yul\":23318:23336   */\n      add\n        /* \"#utility.yul\":23309:23315   */\n      dup8\n        /* \"#utility.yul\":23265:23337   */\n      tag_686\n      jump\t// in\n    tag_844:\n        /* \"#utility.yul\":23347:23420   */\n      tag_845\n        /* \"#utility.yul\":23415:23418   */\n      0x80\n        /* \"#utility.yul\":23404:23413   */\n      dup4\n        /* \"#utility.yul\":23400:23419   */\n      add\n        /* \"#utility.yul\":23391:23397   */\n      dup7\n        /* \"#utility.yul\":23347:23420   */\n      tag_686\n      jump\t// in\n    tag_845:\n        /* \"#utility.yul\":23430:23503   */\n      tag_846\n        /* \"#utility.yul\":23498:23501   */\n      0xa0\n        /* \"#utility.yul\":23487:23496   */\n      dup4\n        /* \"#utility.yul\":23483:23502   */\n      add\n        /* \"#utility.yul\":23474:23480   */\n      dup6\n        /* \"#utility.yul\":23430:23503   */\n      tag_821\n      jump\t// in\n    tag_846:\n        /* \"#utility.yul\":23513:23586   */\n      tag_847\n        /* \"#utility.yul\":23581:23584   */\n      0xc0\n        /* \"#utility.yul\":23570:23579   */\n      dup4\n        /* \"#utility.yul\":23566:23585   */\n      add\n        /* \"#utility.yul\":23557:23563   */\n      dup5\n        /* \"#utility.yul\":23513:23586   */\n      tag_821\n      jump\t// in\n    tag_847:\n        /* \"#utility.yul\":22525:23593   */\n      swap9\n      swap8\n      pop\n      pop\n      pop\n      pop\n      pop\n      pop\n      pop\n      pop\n      jump\t// out\n        /* \"#utility.yul\":23599:23956   */\n    tag_80:\n        /* \"#utility.yul\":23734:23738   */\n      0x00\n        /* \"#utility.yul\":23772:23774   */\n      0x20\n        /* \"#utility.yul\":23761:23770   */\n      dup3\n        /* \"#utility.yul\":23757:23775   */\n      add\n        /* \"#utility.yul\":23749:23775   */\n      swap1\n      pop\n        /* \"#utility.yul\":23821:23830   */\n      dup2\n        /* \"#utility.yul\":23815:23819   */\n      dup2\n        /* \"#utility.yul\":23811:23831   */\n      sub\n        /* \"#utility.yul\":23807:23808   */\n      0x00\n        /* \"#utility.yul\":23796:23805   */\n      dup4\n        /* \"#utility.yul\":23792:23809   */\n      add\n        /* \"#utility.yul\":23785:23832   */\n      mstore\n        /* \"#utility.yul\":23849:23949   */\n      tag_849\n        /* \"#utility.yul\":23944:23948   */\n      dup2\n        /* \"#utility.yul\":23935:23941   */\n      dup5\n        /* \"#utility.yul\":23849:23949   */\n      tag_786\n      jump\t// in\n    tag_849:\n        /* \"#utility.yul\":23841:23949   */\n      swap1\n      pop\n        /* \"#utility.yul\":23599:23956   */\n      swap3\n      swap2\n      pop\n      pop\n      jump\t// out\n        /* \"#utility.yul\":23962:24315   */\n    tag_75:\n        /* \"#utility.yul\":24095:24099   */\n      0x00\n        /* \"#utility.yul\":24133:24135   */\n      0x20\n        /* \"#utility.yul\":24122:24131   */\n      dup3\n        /* \"#utility.yul\":24118:24136   */\n      add\n        /* \"#utility.yul\":24110:24136   */\n      swap1\n      pop\n        /* \"#utility.yul\":24182:24191   */\n      dup2\n        /* \"#utility.yul\":24176:24180   */\n      dup2\n        /* \"#utility.yul\":24172:24192   */\n      sub\n        /* \"#utility.yul\":24168:24169   */\n      0x00\n        /* \"#utility.yul\":24157:24166   */\n      dup4\n        /* \"#utility.yul\":24153:24170   */\n      add\n        /* \"#utility.yul\":24146:24193   */\n      mstore\n        /* \"#utility.yul\":24210:24308   */\n      tag_851\n        /* \"#utility.yul\":24303:24307   */\n      dup2\n        /* \"#utility.yul\":24294:24300   */\n      dup5\n        /* \"#utility.yul\":24210:24308   */\n      tag_809\n      jump\t// in\n    tag_851:\n        /* \"#utility.yul\":24202:24308   */\n      swap1\n      pop\n        /* \"#utility.yul\":23962:24315   */\n      swap3\n      swap2\n      pop\n      pop\n      jump\t// out\n        /* \"#utility.yul\":24321:24543   */\n    tag_56:\n        /* \"#utility.yul\":24414:24418   */\n      0x00\n        /* \"#utility.yul\":24452:24454   */\n      0x20\n        /* \"#utility.yul\":24441:24450   */\n      dup3\n        /* \"#utility.yul\":24437:24455   */\n      add\n        /* \"#utility.yul\":24429:24455   */\n      swap1\n      pop\n        /* \"#utility.yul\":24465:24536   */\n      tag_853\n        /* \"#utility.yul\":24533:24534   */\n      0x00\n        /* \"#utility.yul\":24522:24531   */\n      dup4\n        /* \"#utility.yul\":24518:24535   */\n      add\n        /* \"#utility.yul\":24509:24515   */\n      dup5\n        /* \"#utility.yul\":24465:24536   */\n      tag_821\n      jump\t// in\n    tag_853:\n        /* \"#utility.yul\":24321:24543   */\n      swap3\n      swap2\n      pop\n      pop\n      jump\t// out\n        /* \"#utility.yul\":24549:24678   */\n    tag_599:\n        /* \"#utility.yul\":24583:24589   */\n      0x00\n        /* \"#utility.yul\":24610:24630   */\n      tag_855\n      tag_856\n      jump\t// in\n    tag_855:\n        /* \"#utility.yul\":24600:24630   */\n      swap1\n      pop\n        /* \"#utility.yul\":24639:24672   */\n      tag_857\n        /* \"#utility.yul\":24667:24671   */\n      dup3\n        /* \"#utility.yul\":24659:24665   */\n      dup3\n        /* \"#utility.yul\":24639:24672   */\n      tag_858\n      jump\t// in\n    tag_857:\n        /* \"#utility.yul\":24549:24678   */\n      swap2\n      swap1\n      pop\n      jump\t// out\n        /* \"#utility.yul\":24684:24759   */\n    tag_856:\n        /* \"#utility.yul\":24717:24723   */\n      0x00\n        /* \"#utility.yul\":24750:24752   */\n      0x40\n        /* \"#utility.yul\":24744:24753   */\n      mload\n        /* \"#utility.yul\":24734:24753   */\n      swap1\n      pop\n        /* \"#utility.yul\":24684:24759   */\n      swap1\n      jump\t// out\n        /* \"#utility.yul\":24765:25073   */\n    tag_598:\n        /* \"#utility.yul\":24827:24831   */\n      0x00\n        /* \"#utility.yul\":24917:24935   */\n      0xffffffffffffffff\n        /* \"#utility.yul\":24909:24915   */\n      dup3\n        /* \"#utility.yul\":24906:24936   */\n      gt\n        /* \"#utility.yul\":24903:24959   */\n      iszero\n      tag_861\n      jumpi\n        /* \"#utility.yul\":24939:24957   */\n      tag_862\n      tag_94\n      jump\t// in\n    tag_862:\n        /* \"#utility.yul\":24903:24959   */\n    tag_861:\n        /* \"#utility.yul\":24977:25006   */\n      tag_863\n        /* \"#utility.yul\":24999:25005   */\n      dup3\n        /* \"#utility.yul\":24977:25006   */\n      tag_755\n      jump\t// in\n    tag_863:\n        /* \"#utility.yul\":24969:25006   */\n      swap1\n      pop\n        /* \"#utility.yul\":25061:25065   */\n      0x20\n        /* \"#utility.yul\":25055:25059   */\n      dup2\n        /* \"#utility.yul\":25051:25066   */\n      add\n        /* \"#utility.yul\":25043:25066   */\n      swap1\n      pop\n        /* \"#utility.yul\":24765:25073   */\n      swap2\n      swap1\n      pop\n      jump\t// out\n        /* \"#utility.yul\":25079:25232   */\n    tag_696:\n        /* \"#utility.yul\":25167:25171   */\n      0x00\n        /* \"#utility.yul\":25190:25193   */\n      dup2\n        /* \"#utility.yul\":25182:25193   */\n      swap1\n      pop\n        /* \"#utility.yul\":25220:25224   */\n      0x20\n        /* \"#utility.yul\":25215:25218   */\n      dup3\n        /* \"#utility.yul\":25211:25225   */\n      add\n        /* \"#utility.yul\":25203:25225   */\n      swap1\n      pop\n        /* \"#utility.yul\":25079:25232   */\n      swap2\n      swap1\n      pop\n      jump\t// out\n        /* \"#utility.yul\":25238:25403   */\n    tag_710:\n        /* \"#utility.yul\":25338:25342   */\n      0x00\n        /* \"#utility.yul\":25361:25364   */\n      dup2\n        /* \"#utility.yul\":25353:25364   */\n      swap1\n      pop\n        /* \"#utility.yul\":25391:25395   */\n      0x20\n        /* \"#utility.yul\":25386:25389   */\n      dup3\n        /* \"#utility.yul\":25382:25396   */\n      add\n        /* \"#utility.yul\":25374:25396   */\n      swap1\n      pop\n        /* \"#utility.yul\":25238:25403   */\n      swap2\n      swap1\n      pop\n      jump\t// out\n        /* \"#utility.yul\":25409:25561   */\n    tag_724:\n        /* \"#utility.yul\":25496:25500   */\n      0x00\n        /* \"#utility.yul\":25519:25522   */\n      dup2\n        /* \"#utility.yul\":25511:25522   */\n      swap1\n      pop\n        /* \"#utility.yul\":25549:25553   */\n      0x20\n        /* \"#utility.yul\":25544:25547   */\n      dup3\n        /* \"#utility.yul\":25540:25554   */\n      add\n        /* \"#utility.yul\":25532:25554   */\n      swap1\n      pop\n        /* \"#utility.yul\":25409:25561   */\n      swap2\n      swap1\n      pop\n      jump\t// out\n        /* \"#utility.yul\":25567:25708   */\n    tag_777:\n        /* \"#utility.yul\":25616:25620   */\n      0x00\n        /* \"#utility.yul\":25639:25642   */\n      dup2\n        /* \"#utility.yul\":25631:25642   */\n      swap1\n      pop\n        /* \"#utility.yul\":25662:25665   */\n      dup2\n        /* \"#utility.yul\":25659:25660   */\n      0x00\n        /* \"#utility.yul\":25652:25666   */\n      mstore\n        /* \"#utility.yul\":25696:25700   */\n      0x20\n        /* \"#utility.yul\":25693:25694   */\n      0x00\n        /* \"#utility.yul\":25683:25701   */\n      keccak256\n        /* \"#utility.yul\":25675:25701   */\n      swap1\n      pop\n        /* \"#utility.yul\":25567:25708   */\n      swap2\n      swap1\n      pop\n      jump\t// out\n        /* \"#utility.yul\":25714:25849   */\n    tag_692:\n        /* \"#utility.yul\":25802:25808   */\n      0x00\n        /* \"#utility.yul\":25836:25841   */\n      dup2\n        /* \"#utility.yul\":25830:25842   */\n      mload\n        /* \"#utility.yul\":25820:25842   */\n      swap1\n      pop\n        /* \"#utility.yul\":25714:25849   */\n      swap2\n      swap1\n      pop\n      jump\t// out\n        /* \"#utility.yul\":25855:26002   */\n    tag_706:\n        /* \"#utility.yul\":25955:25961   */\n      0x00\n        /* \"#utility.yul\":25989:25994   */\n      dup2\n        /* \"#utility.yul\":25983:25995   */\n      mload\n        /* \"#utility.yul\":25973:25995   */\n      swap1\n      pop\n        /* \"#utility.yul\":25855:26002   */\n      swap2\n      swap1\n      pop\n      jump\t// out\n        /* \"#utility.yul\":26008:26142   */\n    tag_720:\n        /* \"#utility.yul\":26095:26101   */\n      0x00\n        /* \"#utility.yul\":26129:26134   */\n      dup2\n        /* \"#utility.yul\":26123:26135   */\n      mload\n        /* \"#utility.yul\":26113:26135   */\n      swap1\n      pop\n        /* \"#utility.yul\":26008:26142   */\n      swap2\n      swap1\n      pop\n      jump\t// out\n        /* \"#utility.yul\":26148:26247   */\n    tag_749:\n        /* \"#utility.yul\":26200:26206   */\n      0x00\n        /* \"#utility.yul\":26234:26239   */\n      dup2\n        /* \"#utility.yul\":26228:26240   */\n      mload\n        /* \"#utility.yul\":26218:26240   */\n      swap1\n      pop\n        /* \"#utility.yul\":26148:26247   */\n      swap2\n      swap1\n      pop\n      jump\t// out\n        /* \"#utility.yul\":26253:26387   */\n    tag_702:\n        /* \"#utility.yul\":26344:26348   */\n      0x00\n        /* \"#utility.yul\":26376:26380   */\n      0x20\n        /* \"#utility.yul\":26371:26374   */\n      dup3\n        /* \"#utility.yul\":26367:26381   */\n      add\n        /* \"#utility.yul\":26359:26381   */\n      swap1\n      pop\n        /* \"#utility.yul\":26253:26387   */\n      swap2\n      swap1\n      pop\n      jump\t// out\n        /* \"#utility.yul\":26393:26539   */\n    tag_716:\n        /* \"#utility.yul\":26496:26500   */\n      0x00\n        /* \"#utility.yul\":26528:26532   */\n      0x20\n        /* \"#utility.yul\":26523:26526   */\n      dup3\n        /* \"#utility.yul\":26519:26533   */\n      add\n        /* \"#utility.yul\":26511:26533   */\n      swap1\n      pop\n        /* \"#utility.yul\":26393:26539   */\n      swap2\n      swap1\n      pop\n      jump\t// out\n        /* \"#utility.yul\":26545:26678   */\n    tag_730:\n        /* \"#utility.yul\":26635:26639   */\n      0x00\n        /* \"#utility.yul\":26667:26671   */\n      0x20\n        /* \"#utility.yul\":26662:26665   */\n      dup3\n        /* \"#utility.yul\":26658:26672   */\n      add\n        /* \"#utility.yul\":26650:26672   */\n      swap1\n      pop\n        /* \"#utility.yul\":26545:26678   */\n      swap2\n      swap1\n      pop\n      jump\t// out\n        /* \"#utility.yul\":26684:26889   */\n    tag_694:\n        /* \"#utility.yul\":26804:26815   */\n      0x00\n        /* \"#utility.yul\":26838:26844   */\n      dup3\n        /* \"#utility.yul\":26833:26836   */\n      dup3\n        /* \"#utility.yul\":26826:26845   */\n      mstore\n        /* \"#utility.yul\":26878:26882   */\n      0x20\n        /* \"#utility.yul\":26873:26876   */\n      dup3\n        /* \"#utility.yul\":26869:26883   */\n      add\n        /* \"#utility.yul\":26854:26883   */\n      swap1\n      pop\n        /* \"#utility.yul\":26684:26889   */\n      swap3\n      swap2\n      pop\n      pop\n      jump\t// out\n        /* \"#utility.yul\":26895:27112   */\n    tag_708:\n        /* \"#utility.yul\":27027:27038   */\n      0x00\n        /* \"#utility.yul\":27061:27067   */\n      dup3\n        /* \"#utility.yul\":27056:27059   */\n      dup3\n        /* \"#utility.yul\":27049:27068   */\n      mstore\n        /* \"#utility.yul\":27101:27105   */\n      0x20\n        /* \"#utility.yul\":27096:27099   */\n      dup3\n        /* \"#utility.yul\":27092:27106   */\n      add\n        /* \"#utility.yul\":27077:27106   */\n      swap1\n      pop\n        /* \"#utility.yul\":26895:27112   */\n      swap3\n      swap2\n      pop\n      pop\n      jump\t// out\n        /* \"#utility.yul\":27118:27322   */\n    tag_722:\n        /* \"#utility.yul\":27237:27248   */\n      0x00\n        /* \"#utility.yul\":27271:27277   */\n      dup3\n        /* \"#utility.yul\":27266:27269   */\n      dup3\n        /* \"#utility.yul\":27259:27278   */\n      mstore\n        /* \"#utility.yul\":27311:27315   */\n      0x20\n        /* \"#utility.yul\":27306:27309   */\n      dup3\n        /* \"#utility.yul\":27302:27316   */\n      add\n        /* \"#utility.yul\":27287:27316   */\n      swap1\n      pop\n        /* \"#utility.yul\":27118:27322   */\n      swap3\n      swap2\n      pop\n      pop\n      jump\t// out\n        /* \"#utility.yul\":27328:27487   */\n    tag_751:\n        /* \"#utility.yul\":27402:27413   */\n      0x00\n        /* \"#utility.yul\":27436:27442   */\n      dup3\n        /* \"#utility.yul\":27431:27434   */\n      dup3\n        /* \"#utility.yul\":27424:27443   */\n      mstore\n        /* \"#utility.yul\":27476:27480   */\n      0x20\n        /* \"#utility.yul\":27471:27474   */\n      dup3\n        /* \"#utility.yul\":27467:27481   */\n      add\n        /* \"#utility.yul\":27452:27481   */\n      swap1\n      pop\n        /* \"#utility.yul\":27328:27487   */\n      swap3\n      swap2\n      pop\n      pop\n      jump\t// out\n        /* \"#utility.yul\":27493:27662   */\n    tag_760:\n        /* \"#utility.yul\":27577:27588   */\n      0x00\n        /* \"#utility.yul\":27611:27617   */\n      dup3\n        /* \"#utility.yul\":27606:27609   */\n      dup3\n        /* \"#utility.yul\":27599:27618   */\n      mstore\n        /* \"#utility.yul\":27651:27655   */\n      0x20\n        /* \"#utility.yul\":27646:27649   */\n      dup3\n        /* \"#utility.yul\":27642:27656   */\n      add\n        /* \"#utility.yul\":27627:27656   */\n      swap1\n      pop\n        /* \"#utility.yul\":27493:27662   */\n      swap3\n      swap2\n      pop\n      pop\n      jump\t// out\n        /* \"#utility.yul\":27668:27816   */\n    tag_767:\n        /* \"#utility.yul\":27770:27781   */\n      0x00\n        /* \"#utility.yul\":27807:27810   */\n      dup2\n        /* \"#utility.yul\":27792:27810   */\n      swap1\n      pop\n        /* \"#utility.yul\":27668:27816   */\n      swap3\n      swap2\n      pop\n      pop\n      jump\t// out\n        /* \"#utility.yul\":27822:28127   */\n    tag_147:\n        /* \"#utility.yul\":27862:27865   */\n      0x00\n        /* \"#utility.yul\":27881:27901   */\n      tag_882\n        /* \"#utility.yul\":27899:27900   */\n      dup3\n        /* \"#utility.yul\":27881:27901   */\n      tag_820\n      jump\t// in\n    tag_882:\n        /* \"#utility.yul\":27876:27901   */\n      swap2\n      pop\n        /* \"#utility.yul\":27915:27935   */\n      tag_883\n        /* \"#utility.yul\":27933:27934   */\n      dup4\n        /* \"#utility.yul\":27915:27935   */\n      tag_820\n      jump\t// in\n    tag_883:\n        /* \"#utility.yul\":27910:27935   */\n      swap3\n      pop\n        /* \"#utility.yul\":28069:28070   */\n      dup3\n        /* \"#utility.yul\":28001:28067   */\n      0xffffffffffffffffffffffffffffffffffffffffffffffffffffffffffffffff\n        /* \"#utility.yul\":27997:28071   */\n      sub\n        /* \"#utility.yul\":27994:27995   */\n      dup3\n        /* \"#utility.yul\":27991:28072   */\n      gt\n        /* \"#utility.yul\":27988:28095   */\n      iszero\n      tag_884\n      jumpi\n        /* \"#utility.yul\":28075:28093   */\n      tag_885\n      tag_886\n      jump\t// in\n    tag_885:\n        /* \"#utility.yul\":27988:28095   */\n    tag_884:\n        /* \"#utility.yul\":28119:28120   */\n      dup3\n        /* \"#utility.yul\":28116:28117   */\n      dup3\n        /* \"#utility.yul\":28112:28121   */\n      add\n        /* \"#utility.yul\":28105:28121   */\n      swap1\n      pop\n        /* \"#utility.yul\":27822:28127   */\n      swap3\n      swap2\n      pop\n      pop\n      jump\t// out\n        /* \"#utility.yul\":28133:28324   */\n    tag_375:\n        /* \"#utility.yul\":28173:28177   */\n      0x00\n        /* \"#utility.yul\":28193:28213   */\n      tag_888\n        /* \"#utility.yul\":28211:28212   */\n      dup3\n        /* \"#utility.yul\":28193:28213   */\n      tag_820\n      jump\t// in\n    tag_888:\n        /* \"#utility.yul\":28188:28213   */\n      swap2\n      pop\n        /* \"#utility.yul\":28227:28247   */\n      tag_889\n        /* \"#utility.yul\":28245:28246   */\n      dup4\n        /* \"#utility.yul\":28227:28247   */\n      tag_820\n      jump\t// in\n    tag_889:\n        /* \"#utility.yul\":28222:28247   */\n      swap3\n      pop\n        /* \"#utility.yul\":28266:28267   */\n      dup3\n        /* \"#utility.yul\":28263:28264   */\n      dup3\n        /* \"#utility.yul\":28260:28268   */\n      lt\n        /* \"#utility.yul\":28257:28291   */\n      iszero\n      tag_890\n      jumpi\n        /* \"#utility.yul\":28271:28289   */\n      tag_891\n      tag_886\n      jump\t// in\n    tag_891:\n        /* \"#utility.yul\":28257:28291   */\n    tag_890:\n        /* \"#utility.yul\":28316:28317   */\n      dup3\n        /* \"#utility.yul\":28313:28314   */\n      dup3\n        /* \"#utility.yul\":28309:28318   */\n      sub\n        /* \"#utility.yul\":28301:28318   */\n      swap1\n      pop\n        /* \"#utility.yul\":28133:28324   */\n      swap3\n      swap2\n      pop\n      pop\n      jump\t// out\n        /* \"#utility.yul\":28330:28426   */\n    tag_685:\n        /* \"#utility.yul\":28367:28374   */\n      0x00\n        /* \"#utility.yul\":28396:28420   */\n      tag_893\n        /* \"#utility.yul\":28414:28419   */\n      dup3\n        /* \"#utility.yul\":28396:28420   */\n      tag_894\n      jump\t// in\n    tag_893:\n        /* \"#utility.yul\":28385:28420   */\n      swap1\n      pop\n        /* \"#utility.yul\":28330:28426   */\n      swap2\n      swap1\n      pop\n      jump\t// out\n        /* \"#utility.yul\":28432:28522   */\n    tag_734:\n        /* \"#utility.yul\":28466:28473   */\n      0x00\n        /* \"#utility.yul\":28509:28514   */\n      dup2\n        /* \"#utility.yul\":28502:28515   */\n      iszero\n        /* \"#utility.yul\":28495:28516   */\n      iszero\n        /* \"#utility.yul\":28484:28516   */\n      swap1\n      pop\n        /* \"#utility.yul\":28432:28522   */\n      swap2\n      swap1\n      pop\n      jump\t// out\n        /* \"#utility.yul\":28528:28659   */\n    tag_896:\n        /* \"#utility.yul\":28575:28582   */\n      0x00\n        /* \"#utility.yul\":28604:28609   */\n      dup2\n        /* \"#utility.yul\":28593:28609   */\n      swap1\n      pop\n        /* \"#utility.yul\":28610:28653   */\n      tag_898\n        /* \"#utility.yul\":28647:28652   */\n      dup3\n        /* \"#utility.yul\":28610:28653   */\n      tag_899\n      jump\t// in\n    tag_898:\n        /* \"#utility.yul\":28528:28659   */\n      swap2\n      swap1\n      pop\n      jump\t// out\n        /* \"#utility.yul\":28665:28800   */\n    tag_900:\n        /* \"#utility.yul\":28714:28721   */\n      0x00\n        /* \"#utility.yul\":28743:28748   */\n      dup2\n        /* \"#utility.yul\":28732:28748   */\n      swap1\n      pop\n        /* \"#utility.yul\":28749:28794   */\n      tag_902\n        /* \"#utility.yul\":28788:28793   */\n      dup3\n        /* \"#utility.yul\":28749:28794   */\n      tag_903\n      jump\t// in\n    tag_902:\n        /* \"#utility.yul\":28665:28800   */\n      swap2\n      swap1\n      pop\n      jump\t// out\n        /* \"#utility.yul\":28806:28932   */\n    tag_894:\n        /* \"#utility.yul\":28843:28850   */\n      0x00\n        /* \"#utility.yul\":28883:28925   */\n      0xffffffffffffffffffffffffffffffffffffffff\n        /* \"#utility.yul\":28876:28881   */\n      dup3\n        /* \"#utility.yul\":28872:28926   */\n      and\n        /* \"#utility.yul\":28861:28926   */\n      swap1\n      pop\n        /* \"#utility.yul\":28806:28932   */\n      swap2\n      swap1\n      pop\n      jump\t// out\n        /* \"#utility.yul\":28938:29015   */\n    tag_820:\n        /* \"#utility.yul\":28975:28982   */\n      0x00\n        /* \"#utility.yul\":29004:29009   */\n      dup2\n        /* \"#utility.yul\":28993:29009   */\n      swap1\n      pop\n        /* \"#utility.yul\":28938:29015   */\n      swap2\n      swap1\n      pop\n      jump\t// out\n        /* \"#utility.yul\":29021:29152   */\n    tag_738:\n        /* \"#utility.yul\":29079:29088   */\n      0x00\n        /* \"#utility.yul\":29112:29146   */\n      tag_907\n        /* \"#utility.yul\":29140:29145   */\n      dup3\n        /* \"#utility.yul\":29112:29146   */\n      tag_896\n      jump\t// in\n    tag_907:\n        /* \"#utility.yul\":29099:29146   */\n      swap1\n      pop\n        /* \"#utility.yul\":29021:29152   */\n      swap2\n      swap1\n      pop\n      jump\t// out\n        /* \"#utility.yul\":29158:29293   */\n    tag_742:\n        /* \"#utility.yul\":29218:29227   */\n      0x00\n        /* \"#utility.yul\":29251:29287   */\n      tag_909\n        /* \"#utility.yul\":29281:29286   */\n      dup3\n        /* \"#utility.yul\":29251:29287   */\n      tag_900\n      jump\t// in\n    tag_909:\n        /* \"#utility.yul\":29238:29287   */\n      swap1\n      pop\n        /* \"#utility.yul\":29158:29293   */\n      swap2\n      swap1\n      pop\n      jump\t// out\n        /* \"#utility.yul\":29299:29453   */\n    tag_604:\n        /* \"#utility.yul\":29383:29389   */\n      dup3\n        /* \"#utility.yul\":29378:29381   */\n      dup2\n        /* \"#utility.yul\":29373:29376   */\n      dup4\n        /* \"#utility.yul\":29360:29390   */\n      calldatacopy\n        /* \"#utility.yul\":29445:29446   */\n      0x00\n        /* \"#utility.yul\":29436:29442   */\n      dup4\n        /* \"#utility.yul\":29431:29434   */\n      dup4\n        /* \"#utility.yul\":29427:29443   */\n      add\n        /* \"#utility.yul\":29420:29447   */\n      mstore\n        /* \"#utility.yul\":29299:29453   */\n      pop\n      pop\n      pop\n      jump\t// out\n        /* \"#utility.yul\":29459:29766   */\n    tag_753:\n        /* \"#utility.yul\":29527:29528   */\n      0x00\n        /* \"#utility.yul\":29537:29650   */\n    tag_912:\n        /* \"#utility.yul\":29551:29557   */\n      dup4\n        /* \"#utility.yul\":29548:29549   */\n      dup2\n        /* \"#utility.yul\":29545:29558   */\n      lt\n        /* \"#utility.yul\":29537:29650   */\n      iszero\n      tag_914\n      jumpi\n        /* \"#utility.yul\":29636:29637   */\n      dup1\n        /* \"#utility.yul\":29631:29634   */\n      dup3\n        /* \"#utility.yul\":29627:29638   */\n      add\n        /* \"#utility.yul\":29621:29639   */\n      mload\n        /* \"#utility.yul\":29617:29618   */\n      dup2\n        /* \"#utility.yul\":29612:29615   */\n      dup5\n        /* \"#utility.yul\":29608:29619   */\n      add\n        /* \"#utility.yul\":29601:29640   */\n      mstore\n        /* \"#utility.yul\":29573:29575   */\n      0x20\n        /* \"#utility.yul\":29570:29571   */\n      dup2\n        /* \"#utility.yul\":29566:29576   */\n      add\n        /* \"#utility.yul\":29561:29576   */\n      swap1\n      pop\n        /* \"#utility.yul\":29537:29650   */\n      jump(tag_912)\n    tag_914:\n        /* \"#utility.yul\":29668:29674   */\n      dup4\n        /* \"#utility.yul\":29665:29666   */\n      dup2\n        /* \"#utility.yul\":29662:29675   */\n      gt\n        /* \"#utility.yul\":29659:29760   */\n      iszero\n      tag_915\n      jumpi\n        /* \"#utility.yul\":29748:29749   */\n      0x00\n        /* \"#utility.yul\":29739:29745   */\n      dup5\n        /* \"#utility.yul\":29734:29737   */\n      dup5\n        /* \"#utility.yul\":29730:29746   */\n      add\n        /* \"#utility.yul\":29723:29750   */\n      mstore\n        /* \"#utility.yul\":29659:29760   */\n    tag_915:\n        /* \"#utility.yul\":29508:29766   */\n      pop\n        /* \"#utility.yul\":29459:29766   */\n      pop\n      pop\n      pop\n      jump\t// out\n        /* \"#utility.yul\":29772:30092   */\n    tag_116:\n        /* \"#utility.yul\":29816:29822   */\n      0x00\n        /* \"#utility.yul\":29853:29854   */\n      0x02\n        /* \"#utility.yul\":29847:29851   */\n      dup3\n        /* \"#utility.yul\":29843:29855   */\n      div\n        /* \"#utility.yul\":29833:29855   */\n      swap1\n      pop\n        /* \"#utility.yul\":29900:29901   */\n      0x01\n        /* \"#utility.yul\":29894:29898   */\n      dup3\n        /* \"#utility.yul\":29890:29902   */\n      and\n        /* \"#utility.yul\":29921:29939   */\n      dup1\n        /* \"#utility.yul\":29911:29992   */\n      tag_917\n      jumpi\n        /* \"#utility.yul\":29977:29981   */\n      0x7f\n        /* \"#utility.yul\":29969:29975   */\n      dup3\n        /* \"#utility.yul\":29965:29982   */\n      and\n        /* \"#utility.yul\":29955:29982   */\n      swap2\n      pop\n        /* \"#utility.yul\":29911:29992   */\n    tag_917:\n        /* \"#utility.yul\":30039:30041   */\n      0x20\n        /* \"#utility.yul\":30031:30037   */\n      dup3\n        /* \"#utility.yul\":30028:30042   */\n      lt\n        /* \"#utility.yul\":30008:30026   */\n      dup2\n        /* \"#utility.yul\":30005:30043   */\n      eq\n        /* \"#utility.yul\":30002:30086   */\n      iszero\n      tag_918\n      jumpi\n        /* \"#utility.yul\":30058:30076   */\n      tag_919\n      tag_920\n      jump\t// in\n    tag_919:\n        /* \"#utility.yul\":30002:30086   */\n    tag_918:\n        /* \"#utility.yul\":29823:30092   */\n      pop\n        /* \"#utility.yul\":29772:30092   */\n      swap2\n      swap1\n      pop\n      jump\t// out\n        /* \"#utility.yul\":30098:30379   */\n    tag_858:\n        /* \"#utility.yul\":30181:30208   */\n      tag_922\n        /* \"#utility.yul\":30203:30207   */\n      dup3\n        /* \"#utility.yul\":30181:30208   */\n      tag_755\n      jump\t// in\n    tag_922:\n        /* \"#utility.yul\":30173:30179   */\n      dup2\n        /* \"#utility.yul\":30169:30209   */\n      add\n        /* \"#utility.yul\":30311:30317   */\n      dup2\n        /* \"#utility.yul\":30299:30309   */\n      dup2\n        /* \"#utility.yul\":30296:30318   */\n      lt\n        /* \"#utility.yul\":30275:30293   */\n      0xffffffffffffffff\n        /* \"#utility.yul\":30263:30273   */\n      dup3\n        /* \"#utility.yul\":30260:30294   */\n      gt\n        /* \"#utility.yul\":30257:30319   */\n      or\n        /* \"#utility.yul\":30254:30342   */\n      iszero\n      tag_923\n      jumpi\n        /* \"#utility.yul\":30322:30340   */\n      tag_924\n      tag_94\n      jump\t// in\n    tag_924:\n        /* \"#utility.yul\":30254:30342   */\n    tag_923:\n        /* \"#utility.yul\":30362:30372   */\n      dup1\n        /* \"#utility.yul\":30358:30360   */\n      0x40\n        /* \"#utility.yul\":30351:30373   */\n      mstore\n        /* \"#utility.yul\":30141:30379   */\n      pop\n        /* \"#utility.yul\":30098:30379   */\n      pop\n      pop\n      jump\t// out\n        /* \"#utility.yul\":30385:30618   */\n    tag_149:\n        /* \"#utility.yul\":30424:30427   */\n      0x00\n        /* \"#utility.yul\":30447:30471   */\n      tag_926\n        /* \"#utility.yul\":30465:30470   */\n      dup3\n        /* \"#utility.yul\":30447:30471   */\n      tag_820\n      jump\t// in\n    tag_926:\n        /* \"#utility.yul\":30438:30471   */\n      swap2\n      pop\n        /* \"#utility.yul\":30493:30559   */\n      0xffffffffffffffffffffffffffffffffffffffffffffffffffffffffffffffff\n        /* \"#utility.yul\":30486:30491   */\n      dup3\n        /* \"#utility.yul\":30483:30560   */\n      eq\n        /* \"#utility.yul\":30480:30583   */\n      iszero\n      tag_927\n      jumpi\n        /* \"#utility.yul\":30563:30581   */\n      tag_928\n      tag_886\n      jump\t// in\n    tag_928:\n        /* \"#utility.yul\":30480:30583   */\n    tag_927:\n        /* \"#utility.yul\":30610:30611   */\n      0x01\n        /* \"#utility.yul\":30603:30608   */\n      dup3\n        /* \"#utility.yul\":30599:30612   */\n      add\n        /* \"#utility.yul\":30592:30612   */\n      swap1\n      pop\n        /* \"#utility.yul\":30385:30618   */\n      swap2\n      swap1\n      pop\n      jump\t// out\n        /* \"#utility.yul\":30624:30804   */\n    tag_886:\n        /* \"#utility.yul\":30672:30749   */\n      0x4e487b7100000000000000000000000000000000000000000000000000000000\n        /* \"#utility.yul\":30669:30670   */\n      0x00\n        /* \"#utility.yul\":30662:30750   */\n      mstore\n        /* \"#utility.yul\":30769:30773   */\n      0x11\n        /* \"#utility.yul\":30766:30767   */\n      0x04\n        /* \"#utility.yul\":30759:30774   */\n      mstore\n        /* \"#utility.yul\":30793:30797   */\n      0x24\n        /* \"#utility.yul\":30790:30791   */\n      0x00\n        /* \"#utility.yul\":30783:30798   */\n      revert\n        /* \"#utility.yul\":30810:30990   */\n    tag_104:\n        /* \"#utility.yul\":30858:30935   */\n      0x4e487b7100000000000000000000000000000000000000000000000000000000\n        /* \"#utility.yul\":30855:30856   */\n      0x00\n        /* \"#utility.yul\":30848:30936   */\n      mstore\n        /* \"#utility.yul\":30955:30959   */\n      0x21\n        /* \"#utility.yul\":30952:30953   */\n      0x04\n        /* \"#utility.yul\":30945:30960   */\n      mstore\n        /* \"#utility.yul\":30979:30983   */\n      0x24\n        /* \"#utility.yul\":30976:30977   */\n      0x00\n        /* \"#utility.yul\":30969:30984   */\n      revert\n        /* \"#utility.yul\":30996:31176   */\n    tag_920:\n        /* \"#utility.yul\":31044:31121   */\n      0x4e487b7100000000000000000000000000000000000000000000000000000000\n        /* \"#utility.yul\":31041:31042   */\n      0x00\n        /* \"#utility.yul\":31034:31122   */\n      mstore\n        /* \"#utility.yul\":31141:31145   */\n      0x22\n        /* \"#utility.yul\":31138:31139   */\n      0x04\n        /* \"#utility.yul\":31131:31146   */\n      mstore\n        /* \"#utility.yul\":31165:31169   */\n      0x24\n        /* \"#utility.yul\":31162:31163   */\n      0x00\n        /* \"#utility.yul\":31155:31170   */\n      revert\n        /* \"#utility.yul\":31182:31362   */\n    tag_107:\n        /* \"#utility.yul\":31230:31307   */\n      0x4e487b7100000000000000000000000000000000000000000000000000000000\n        /* \"#utility.yul\":31227:31228   */\n      0x00\n        /* \"#utility.yul\":31220:31308   */\n      mstore\n        /* \"#utility.yul\":31327:31331   */\n      0x32\n        /* \"#utility.yul\":31324:31325   */\n      0x04\n        /* \"#utility.yul\":31317:31332   */\n      mstore\n        /* \"#utility.yul\":31351:31355   */\n      0x24\n        /* \"#utility.yul\":31348:31349   */\n      0x00\n        /* \"#utility.yul\":31341:31356   */\n      revert\n        /* \"#utility.yul\":31368:31548   */\n    tag_94:\n        /* \"#utility.yul\":31416:31493   */\n      0x4e487b7100000000000000000000000000000000000000000000000000000000\n        /* \"#utility.yul\":31413:31414   */\n      0x00\n        /* \"#utility.yul\":31406:31494   */\n      mstore\n        /* \"#utility.yul\":31513:31517   */\n      0x41\n        /* \"#utility.yul\":31510:31511   */\n      0x04\n        /* \"#utility.yul\":31503:31518   */\n      mstore\n        /* \"#utility.yul\":31537:31541   */\n      0x24\n        /* \"#utility.yul\":31534:31535   */\n      0x00\n        /* \"#utility.yul\":31527:31542   */\n      revert\n        /* \"#utility.yul\":31554:31671   */\n    tag_621:\n        /* \"#utility.yul\":31663:31664   */\n      0x00\n        /* \"#utility.yul\":31660:31661   */\n      dup1\n        /* \"#utility.yul\":31653:31665   */\n      revert\n        /* \"#utility.yul\":31677:31794   */\n    tag_602:\n        /* \"#utility.yul\":31786:31787   */\n      0x00\n        /* \"#utility.yul\":31783:31784   */\n      dup1\n        /* \"#utility.yul\":31776:31788   */\n      revert\n        /* \"#utility.yul\":31800:31917   */\n    tag_645:\n        /* \"#utility.yul\":31909:31910   */\n      0x00\n        /* \"#utility.yul\":31906:31907   */\n      dup1\n        /* \"#utility.yul\":31899:31911   */\n      revert\n        /* \"#utility.yul\":31923:32040   */\n    tag_630:\n        /* \"#utility.yul\":32032:32033   */\n      0x00\n        /* \"#utility.yul\":32029:32030   */\n      dup1\n        /* \"#utility.yul\":32022:32034   */\n      revert\n        /* \"#utility.yul\":32046:32148   */\n    tag_755:\n        /* \"#utility.yul\":32087:32093   */\n      0x00\n        /* \"#utility.yul\":32138:32140   */\n      0x1f\n        /* \"#utility.yul\":32134:32141   */\n      not\n        /* \"#utility.yul\":32129:32131   */\n      0x1f\n        /* \"#utility.yul\":32122:32127   */\n      dup4\n        /* \"#utility.yul\":32118:32132   */\n      add\n        /* \"#utility.yul\":32114:32142   */\n      and\n        /* \"#utility.yul\":32104:32142   */\n      swap1\n      pop\n        /* \"#utility.yul\":32046:32148   */\n      swap2\n      swap1\n      pop\n      jump\t// out\n        /* \"#utility.yul\":32154:32269   */\n    tag_899:\n        /* \"#utility.yul\":32237:32238   */\n      0x03\n        /* \"#utility.yul\":32230:32235   */\n      dup2\n        /* \"#utility.yul\":32227:32239   */\n      lt\n        /* \"#utility.yul\":32217:32263   */\n      tag_940\n      jumpi\n        /* \"#utility.yul\":32243:32261   */\n      tag_941\n      tag_104\n      jump\t// in\n    tag_941:\n        /* \"#utility.yul\":32217:32263   */\n    tag_940:\n        /* \"#utility.yul\":32154:32269   */\n      pop\n      jump\t// out\n        /* \"#utility.yul\":32275:32392   */\n    tag_903:\n        /* \"#utility.yul\":32360:32361   */\n      0x09\n        /* \"#utility.yul\":32353:32358   */\n      dup2\n        /* \"#utility.yul\":32350:32362   */\n      lt\n        /* \"#utility.yul\":32340:32386   */\n      tag_943\n      jumpi\n        /* \"#utility.yul\":32366:32384   */\n      tag_944\n      tag_104\n      jump\t// in\n    tag_944:\n        /* \"#utility.yul\":32340:32386   */\n    tag_943:\n        /* \"#utility.yul\":32275:32392   */\n      pop\n      jump\t// out\n        /* \"#utility.yul\":32398:32520   */\n    tag_608:\n        /* \"#utility.yul\":32471:32495   */\n      tag_946\n        /* \"#utility.yul\":32489:32494   */\n      dup2\n        /* \"#utility.yul\":32471:32495   */\n      tag_685\n      jump\t// in\n    tag_946:\n        /* \"#utility.yul\":32464:32469   */\n      dup2\n        /* \"#utility.yul\":32461:32496   */\n      eq\n        /* \"#utility.yul\":32451:32514   */\n      tag_947\n      jumpi\n        /* \"#utility.yul\":32510:32511   */\n      0x00\n        /* \"#utility.yul\":32507:32508   */\n      dup1\n        /* \"#utility.yul\":32500:32512   */\n      revert\n        /* \"#utility.yul\":32451:32514   */\n    tag_947:\n        /* \"#utility.yul\":32398:32520   */\n      pop\n      jump\t// out\n        /* \"#utility.yul\":32526:32635   */\n    tag_612:\n        /* \"#utility.yul\":32609:32610   */\n      0x03\n        /* \"#utility.yul\":32602:32607   */\n      dup2\n        /* \"#utility.yul\":32599:32611   */\n      lt\n        /* \"#utility.yul\":32589:32629   */\n      tag_949\n      jumpi\n        /* \"#utility.yul\":32625:32626   */\n      0x00\n        /* \"#utility.yul\":32622:32623   */\n      dup1\n        /* \"#utility.yul\":32615:32627   */\n      revert\n        /* \"#utility.yul\":32589:32629   */\n    tag_949:\n        /* \"#utility.yul\":32526:32635   */\n      pop\n      jump\t// out\n        /* \"#utility.yul\":32641:32752   */\n    tag_616:\n        /* \"#utility.yul\":32726:32727   */\n      0x09\n        /* \"#utility.yul\":32719:32724   */\n      dup2\n        /* \"#utility.yul\":32716:32728   */\n      lt\n        /* \"#utility.yul\":32706:32746   */\n      tag_951\n      jumpi\n        /* \"#utility.yul\":32742:32743   */\n      0x00\n        /* \"#utility.yul\":32739:32740   */\n      dup1\n        /* \"#utility.yul\":32732:32744   */\n      revert\n        /* \"#utility.yul\":32706:32746   */\n    tag_951:\n        /* \"#utility.yul\":32641:32752   */\n      pop\n      jump\t// out\n        /* \"#utility.yul\":32758:32880   */\n    tag_626:\n        /* \"#utility.yul\":32831:32855   */\n      tag_953\n        /* \"#utility.yul\":32849:32854   */\n      dup2\n        /* \"#utility.yul\":32831:32855   */\n      tag_820\n      jump\t// in\n    tag_953:\n        /* \"#utility.yul\":32824:32829   */\n      dup2\n        /* \"#utility.yul\":32821:32856   */\n      eq\n        /* \"#utility.yul\":32811:32874   */\n      tag_954\n      jumpi\n        /* \"#utility.yul\":32870:32871   */\n      0x00\n        /* \"#utility.yul\":32867:32868   */\n      dup1\n        /* \"#utility.yul\":32860:32872   */\n      revert\n        /* \"#utility.yul\":32811:32874   */\n    tag_954:\n        /* \"#utility.yul\":32758:32880   */\n      pop\n      jump\t// out\n\n    auxdata: 0xa2646970667358221220f3a54e405cf4e7f016d87599cb548e815a5c300223d1d6a98ba3736c3ae44cce64736f6c63430008070033\n}\n",
				"bytecode": {
					"linkReferences": {},
					"object": "608060405234801561001057600080fd5b506140d4806100206000396000f3fe608060405234801561001057600080fd5b50600436106100ea5760003560e01c80637a53c5351161008c578063cd1720d111610066578063cd1720d1146102b1578063cdf7e73d146102e1578063e9a734ff14610311578063ff946c8514610341576100ea565b80637a53c5351461023357806399b5bbdd14610263578063b4a99a4e14610293576100ea565b806340d37caf116100c857806340d37caf146101855780634b2d14aa146101b5578063783a7895146101e5578063798d212214610203576100ea565b80630f9de977146100ef5780631567697c1461011f57806331a6db4d14610155575b600080fd5b6101096004803603810190610104919061324b565b610371565b6040516101169190613a8c565b60405180910390f35b610139600480360381019061013491906133c4565b610932565b60405161014c9796959493929190613ae4565b60405180910390f35b61016f600480360381019061016a9190613339565b610ad4565b60405161017c9190613a6a565b60405180910390f35b61019f600480360381019061019a91906132c1565b6110d3565b6040516101ac9190613a6a565b60405180910390f35b6101cf60048036038101906101ca9190613278565b6115da565b6040516101dc9190613a6a565b60405180910390f35b6101ed611a21565b6040516101fa9190613ac9565b60405180910390f35b61021d60048036038101906102189190613339565b611b78565b60405161022a9190613ba5565b60405180910390f35b61024d6004803603810190610248919061321e565b611c68565b60405161025a9190613a8c565b60405180910390f35b61027d600480360381019061027891906131f1565b612229565b60405161028a9190613a6a565b60405180910390f35b61029b61262d565b6040516102a89190613a2d565b60405180910390f35b6102cb60048036038101906102c691906131f1565b612651565b6040516102d89190613b83565b60405180910390f35b6102fb60048036038101906102f69190613278565b6129be565b6040516103089190613b61565b60405180910390f35b61032b600480360381019061032691906132c1565b612bab565b6040516103389190613aae565b60405180910390f35b61035b600480360381019061035691906131f1565b612c04565b6040516103689190613a48565b60405180910390f35b60606000600280549050905060008167ffffffffffffffff81111561039957610398613fd4565b5b6040519080825280602002602001820160405280156103d257816020015b6103bf612ffd565b8152602001906001900390816103b75790505b509050600080600090505b8381101561087b578560088111156103f8576103f7613f47565b5b60016000600284815481106104105761040f613fa5565b5b9060005260206000200160009054906101000a900473ffffffffffffffffffffffffffffffffffffffff1673ffffffffffffffffffffffffffffffffffffffff1673ffffffffffffffffffffffffffffffffffffffff16815260200190815260200160002060020160009054906101000a900460ff16600881111561049857610497613f47565b5b14156108685760016000600283815481106104b6576104b5613fa5565b5b9060005260206000200160009054906101000a900473ffffffffffffffffffffffffffffffffffffffff1673ffffffffffffffffffffffffffffffffffffffff1673ffffffffffffffffffffffffffffffffffffffff1681526020019081526020016000206040518060e001604052908160008201805461053690613e6c565b80601f016020809104026020016040519081016040528092919081815260200182805461056290613e6c565b80156105af5780601f10610584576101008083540402835291602001916105af565b820191906000526020600020905b81548152906001019060200180831161059257829003601f168201915b505050505081526020016001820180546105c890613e6c565b80601f01602080910402602001604051908101604052809291908181526020018280546105f490613e6c565b80156106415780601f1061061657610100808354040283529160200191610641565b820191906000526020600020905b81548152906001019060200180831161062457829003601f168201915b505050505081526020016002820160009054906101000a900460ff16600881111561066f5761066e613f47565b5b600881111561068157610680613f47565b5b81526020016002820160019054906101000a900460ff1660028111156106aa576106a9613f47565b5b60028111156106bc576106bb613f47565b5b81526020016003820180546106d090613e6c565b80601f01602080910402602001604051908101604052809291908181526020018280546106fc90613e6c565b80156107495780601f1061071e57610100808354040283529160200191610749565b820191906000526020600020905b81548152906001019060200180831161072c57829003601f168201915b5050505050815260200160048201805461076290613e6c565b80601f016020809104026020016040519081016040528092919081815260200182805461078e90613e6c565b80156107db5780601f106107b0576101008083540402835291602001916107db565b820191906000526020600020905b8154815290600101906020018083116107be57829003601f168201915b505050505081526020016005820160009054906101000a900473ffffffffffffffffffffffffffffffffffffffff1673ffffffffffffffffffffffffffffffffffffffff1673ffffffffffffffffffffffffffffffffffffffff168152505083838151811061084d5761084c613fa5565b5b60200260200101819052506001826108659190613d0e565b91505b808061087390613ecf565b9150506103dd565b508067ffffffffffffffff81111561089657610895613fd4565b5b6040519080825280602002602001820160405280156108cf57816020015b6108bc612ffd565b8152602001906001900390816108b45790505b50935060005b81811015610929578281815181106108f0576108ef613fa5565b5b602002602001015185828151811061090b5761090a613fa5565b5b6020026020010181905250808061092190613ecf565b9150506108d5565b50505050919050565b6005818154811061094257600080fd5b906000526020600020906007020160009150905080600001805461096590613e6c565b80601f016020809104026020016040519081016040528092919081815260200182805461099190613e6c565b80156109de5780601f106109b3576101008083540402835291602001916109de565b820191906000526020600020905b8154815290600101906020018083116109c157829003601f168201915b5050505050908060010180546109f390613e6c565b80601f0160208091040260200160405190810160405280929190818152602001828054610a1f90613e6c565b8015610a6c5780601f10610a4157610100808354040283529160200191610a6c565b820191906000526020600020905b815481529060010190602001808311610a4f57829003601f168201915b5050505050908060020154908060030160009054906101000a900473ffffffffffffffffffffffffffffffffffffffff16908060040160009054906101000a900473ffffffffffffffffffffffffffffffffffffffff16908060050154908060060154905087565b606060008060058054905067ffffffffffffffff811115610af857610af7613fd4565b5b604051908082528060200260200182016040528015610b3157816020015b610b1e613074565b815260200190600190039081610b165790505b50905060005b60058054905081101561101157610bfb60058281548110610b5b57610b5a613fa5565b5b90600052602060002090600702016001018054610b7790613e6c565b80601f0160208091040260200160405190810160405280929190818152602001828054610ba390613e6c565b8015610bf05780601f10610bc557610100808354040283529160200191610bf0565b820191906000526020600020905b815481529060010190602001808311610bd357829003601f168201915b505050505088612bab565b8015610cba5750610cb960058281548110610c1957610c18613fa5565b5b90600052602060002090600702016000018054610c3590613e6c565b80601f0160208091040260200160405190810160405280929190818152602001828054610c6190613e6c565b8015610cae5780601f10610c8357610100808354040283529160200191610cae565b820191906000526020600020905b815481529060010190602001808311610c9157829003601f168201915b505050505087612bab565b5b8015610db157508473ffffffffffffffffffffffffffffffffffffffff1660058281548110610cec57610ceb613fa5565b5b906000526020600020906007020160040160009054906101000a900473ffffffffffffffffffffffffffffffffffffffff1673ffffffffffffffffffffffffffffffffffffffff161480610db057508473ffffffffffffffffffffffffffffffffffffffff1660058281548110610d6657610d65613fa5565b5b906000526020600020906007020160030160009054906101000a900473ffffffffffffffffffffffffffffffffffffffff1673ffffffffffffffffffffffffffffffffffffffff16145b5b15610ffe5760058181548110610dca57610dc9613fa5565b5b90600052602060002090600702016040518060e0016040529081600082018054610df390613e6c565b80601f0160208091040260200160405190810160405280929190818152602001828054610e1f90613e6c565b8015610e6c5780601f10610e4157610100808354040283529160200191610e6c565b820191906000526020600020905b815481529060010190602001808311610e4f57829003601f168201915b50505050508152602001600182018054610e8590613e6c565b80601f0160208091040260200160405190810160405280929190818152602001828054610eb190613e6c565b8015610efe5780601f10610ed357610100808354040283529160200191610efe565b820191906000526020600020905b815481529060010190602001808311610ee157829003601f168201915b50505050508152602001600282015481526020016003820160009054906101000a900473ffffffffffffffffffffffffffffffffffffffff1673ffffffffffffffffffffffffffffffffffffffff1673ffffffffffffffffffffffffffffffffffffffff1681526020016004820160009054906101000a900473ffffffffffffffffffffffffffffffffffffffff1673ffffffffffffffffffffffffffffffffffffffff1673ffffffffffffffffffffffffffffffffffffffff16815260200160058201548152602001600682015481525050828481518110610fe457610fe3613fa5565b5b60200260200101819052508280610ffa90613ecf565b9350505b808061100990613ecf565b915050610b37565b508167ffffffffffffffff81111561102c5761102b613fd4565b5b60405190808252806020026020018201604052801561106557816020015b611052613074565b81526020019060019003908161104a5790505b50925060008211156110ca5760005b828110156110c85781818151811061108f5761108e613fa5565b5b60200260200101518482815181106110aa576110a9613fa5565b5b602002602001018190525080806110c090613ecf565b915050611074565b505b50509392505050565b606060008060058054905067ffffffffffffffff8111156110f7576110f6613fd4565b5b60405190808252806020026020018201604052801561113057816020015b61111d613074565b8152602001906001900390816111155790505b50905060005b600580549050811015611519576111fa6005828154811061115a57611159613fa5565b5b9060005260206000209060070201600101805461117690613e6c565b80601f01602080910402602001604051908101604052809291908181526020018280546111a290613e6c565b80156111ef5780601f106111c4576101008083540402835291602001916111ef565b820191906000526020600020905b8154815290600101906020018083116111d257829003601f168201915b505050505087612bab565b80156112b957506112b86005828154811061121857611217613fa5565b5b9060005260206000209060070201600001805461123490613e6c565b80601f016020809104026020016040519081016040528092919081815260200182805461126090613e6c565b80156112ad5780601f10611282576101008083540402835291602001916112ad565b820191906000526020600020905b81548152906001019060200180831161129057829003601f168201915b505050505086612bab565b5b1561150657600581815481106112d2576112d1613fa5565b5b90600052602060002090600702016040518060e00160405290816000820180546112fb90613e6c565b80601f016020809104026020016040519081016040528092919081815260200182805461132790613e6c565b80156113745780601f1061134957610100808354040283529160200191611374565b820191906000526020600020905b81548152906001019060200180831161135757829003601f168201915b5050505050815260200160018201805461138d90613e6c565b80601f01602080910402602001604051908101604052809291908181526020018280546113b990613e6c565b80156114065780601f106113db57610100808354040283529160200191611406565b820191906000526020600020905b8154815290600101906020018083116113e957829003601f168201915b50505050508152602001600282015481526020016003820160009054906101000a900473ffffffffffffffffffffffffffffffffffffffff1673ffffffffffffffffffffffffffffffffffffffff1673ffffffffffffffffffffffffffffffffffffffff1681526020016004820160009054906101000a900473ffffffffffffffffffffffffffffffffffffffff1673ffffffffffffffffffffffffffffffffffffffff1673ffffffffffffffffffffffffffffffffffffffff168152602001600582015481526020016006820154815250508284815181106114ec576114eb613fa5565b5b6020026020010181905250828061150290613ecf565b9350505b808061151190613ecf565b915050611136565b508167ffffffffffffffff81111561153457611533613fd4565b5b60405190808252806020026020018201604052801561156d57816020015b61155a613074565b8152602001906001900390816115525790505b50925060008211156115d25760005b828110156115d05781818151811061159757611596613fa5565b5b60200260200101518482815181106115b2576115b1613fa5565b5b602002602001018190525080806115c890613ecf565b91505061157c565b505b505092915050565b606060008060058054905067ffffffffffffffff8111156115fe576115fd613fd4565b5b60405190808252806020026020018201604052801561163757816020015b611624613074565b81526020019060019003908161161c5790505b50905060005b600580549050811015611961576117016005828154811061166157611660613fa5565b5b9060005260206000209060070201600001805461167d90613e6c565b80601f01602080910402602001604051908101604052809291908181526020018280546116a990613e6c565b80156116f65780601f106116cb576101008083540402835291602001916116f6565b820191906000526020600020905b8154815290600101906020018083116116d957829003601f168201915b505050505086612bab565b1561194e576005818154811061171a57611719613fa5565b5b90600052602060002090600702016040518060e001604052908160008201805461174390613e6c565b80601f016020809104026020016040519081016040528092919081815260200182805461176f90613e6c565b80156117bc5780601f10611791576101008083540402835291602001916117bc565b820191906000526020600020905b81548152906001019060200180831161179f57829003601f168201915b505050505081526020016001820180546117d590613e6c565b80601f016020809104026020016040519081016040528092919081815260200182805461180190613e6c565b801561184e5780601f106118235761010080835404028352916020019161184e565b820191906000526020600020905b81548152906001019060200180831161183157829003601f168201915b50505050508152602001600282015481526020016003820160009054906101000a900473ffffffffffffffffffffffffffffffffffffffff1673ffffffffffffffffffffffffffffffffffffffff1673ffffffffffffffffffffffffffffffffffffffff1681526020016004820160009054906101000a900473ffffffffffffffffffffffffffffffffffffffff1673ffffffffffffffffffffffffffffffffffffffff1673ffffffffffffffffffffffffffffffffffffffff1681526020016005820154815260200160068201548152505082848151811061193457611933613fa5565b5b6020026020010181905250828061194a90613ecf565b9350505b808061195990613ecf565b91505061163d565b508167ffffffffffffffff81111561197c5761197b613fd4565b5b6040519080825280602002602001820160405280156119b557816020015b6119a2613074565b81526020019060019003908161199a5790505b5092506000821115611a1a5760005b82811015611a18578181815181106119df576119de613fa5565b5b60200260200101518482815181106119fa576119f9613fa5565b5b60200260200101819052508080611a1090613ecf565b9150506119c4565b505b5050919050565b60008060009054906101000a900473ffffffffffffffffffffffffffffffffffffffff1673ffffffffffffffffffffffffffffffffffffffff163373ffffffffffffffffffffffffffffffffffffffff161415611a815760019050611b75565b600073ffffffffffffffffffffffffffffffffffffffff16600160003373ffffffffffffffffffffffffffffffffffffffff1673ffffffffffffffffffffffffffffffffffffffff16815260200190815260200160002060050160009054906101000a900473ffffffffffffffffffffffffffffffffffffffff1673ffffffffffffffffffffffffffffffffffffffff161415611b215760009050611b74565b600160003373ffffffffffffffffffffffffffffffffffffffff1673ffffffffffffffffffffffffffffffffffffffff16815260200190815260200160002060020160009054906101000a900460ff1690505b5b90565b600080611b86858585610ad4565b905060008060005b8351811015611c4f578573ffffffffffffffffffffffffffffffffffffffff16848281518110611bc157611bc0613fa5565b5b60200260200101516080015173ffffffffffffffffffffffffffffffffffffffff161415611c0f57838181518110611bfc57611bfb613fa5565b5b602002602001015160a001519250611c3c565b838181518110611c2257611c21613fa5565b5b602002602001015160a0015182611c399190613d0e565b91505b8080611c4790613ecf565b915050611b8e565b508082611c5c9190613d64565b93505050509392505050565b60606000600280549050905060008167ffffffffffffffff811115611c9057611c8f613fd4565b5b604051908082528060200260200182016040528015611cc957816020015b611cb6612ffd565b815260200190600190039081611cae5790505b509050600080600090505b8381101561217257856002811115611cef57611cee613f47565b5b6001600060028481548110611d0757611d06613fa5565b5b9060005260206000200160009054906101000a900473ffffffffffffffffffffffffffffffffffffffff1673ffffffffffffffffffffffffffffffffffffffff1673ffffffffffffffffffffffffffffffffffffffff16815260200190815260200160002060020160019054906101000a900460ff166002811115611d8f57611d8e613f47565b5b141561215f576001600060028381548110611dad57611dac613fa5565b5b9060005260206000200160009054906101000a900473ffffffffffffffffffffffffffffffffffffffff1673ffffffffffffffffffffffffffffffffffffffff1673ffffffffffffffffffffffffffffffffffffffff1681526020019081526020016000206040518060e0016040529081600082018054611e2d90613e6c565b80601f0160208091040260200160405190810160405280929190818152602001828054611e5990613e6c565b8015611ea65780601f10611e7b57610100808354040283529160200191611ea6565b820191906000526020600020905b815481529060010190602001808311611e8957829003601f168201915b50505050508152602001600182018054611ebf90613e6c565b80601f0160208091040260200160405190810160405280929190818152602001828054611eeb90613e6c565b8015611f385780601f10611f0d57610100808354040283529160200191611f38565b820191906000526020600020905b815481529060010190602001808311611f1b57829003601f168201915b505050505081526020016002820160009054906101000a900460ff166008811115611f6657611f65613f47565b5b6008811115611f7857611f77613f47565b5b81526020016002820160019054906101000a900460ff166002811115611fa157611fa0613f47565b5b6002811115611fb357611fb2613f47565b5b8152602001600382018054611fc790613e6c565b80601f0160208091040260200160405190810160405280929190818152602001828054611ff390613e6c565b80156120405780601f1061201557610100808354040283529160200191612040565b820191906000526020600020905b81548152906001019060200180831161202357829003601f168201915b5050505050815260200160048201805461205990613e6c565b80601f016020809104026020016040519081016040528092919081815260200182805461208590613e6c565b80156120d25780601f106120a7576101008083540402835291602001916120d2565b820191906000526020600020905b8154815290600101906020018083116120b557829003601f168201915b505050505081526020016005820160009054906101000a900473ffffffffffffffffffffffffffffffffffffffff1673ffffffffffffffffffffffffffffffffffffffff1673ffffffffffffffffffffffffffffffffffffffff168152505083838151811061214457612143613fa5565b5b602002602001018190525060018261215c9190613d0e565b91505b808061216a90613ecf565b915050611cd4565b508067ffffffffffffffff81111561218d5761218c613fd4565b5b6040519080825280602002602001820160405280156121c657816020015b6121b3612ffd565b8152602001906001900390816121ab5790505b50935060005b81811015612220578281815181106121e7576121e6613fa5565b5b602002602001015185828151811061220257612201613fa5565b5b6020026020010181905250808061221890613ecf565b9150506121cc565b50505050919050565b606060008060058054905067ffffffffffffffff81111561224d5761224c613fd4565b5b60405190808252806020026020018201604052801561228657816020015b612273613074565b81526020019060019003908161226b5790505b50905060005b60058054905081101561256d578473ffffffffffffffffffffffffffffffffffffffff16600582815481106122c4576122c3613fa5565b5b906000526020600020906007020160040160009054906101000a900473ffffffffffffffffffffffffffffffffffffffff1673ffffffffffffffffffffffffffffffffffffffff16141561255a576005818154811061232657612325613fa5565b5b90600052602060002090600702016040518060e001604052908160008201805461234f90613e6c565b80601f016020809104026020016040519081016040528092919081815260200182805461237b90613e6c565b80156123c85780601f1061239d576101008083540402835291602001916123c8565b820191906000526020600020905b8154815290600101906020018083116123ab57829003601f168201915b505050505081526020016001820180546123e190613e6c565b80601f016020809104026020016040519081016040528092919081815260200182805461240d90613e6c565b801561245a5780601f1061242f5761010080835404028352916020019161245a565b820191906000526020600020905b81548152906001019060200180831161243d57829003601f168201915b50505050508152602001600282015481526020016003820160009054906101000a900473ffffffffffffffffffffffffffffffffffffffff1673ffffffffffffffffffffffffffffffffffffffff1673ffffffffffffffffffffffffffffffffffffffff1681526020016004820160009054906101000a900473ffffffffffffffffffffffffffffffffffffffff1673ffffffffffffffffffffffffffffffffffffffff1673ffffffffffffffffffffffffffffffffffffffff168152602001600582015481526020016006820154815250508284815181106125405761253f613fa5565b5b6020026020010181905250828061255690613ecf565b9350505b808061256590613ecf565b91505061228c565b508167ffffffffffffffff81111561258857612587613fd4565b5b6040519080825280602002602001820160405280156125c157816020015b6125ae613074565b8152602001906001900390816125a65790505b50925060008211156126265760005b82811015612624578181815181106125eb576125ea613fa5565b5b602002602001015184828151811061260657612605613fa5565b5b6020026020010181905250808061261c90613ecf565b9150506125d0565b505b5050919050565b60008054906101000a900473ffffffffffffffffffffffffffffffffffffffff1681565b612659612ffd565b600160008373ffffffffffffffffffffffffffffffffffffffff1673ffffffffffffffffffffffffffffffffffffffff1681526020019081526020016000206040518060e00160405290816000820180546126b390613e6c565b80601f01602080910402602001604051908101604052809291908181526020018280546126df90613e6c565b801561272c5780601f106127015761010080835404028352916020019161272c565b820191906000526020600020905b81548152906001019060200180831161270f57829003601f168201915b5050505050815260200160018201805461274590613e6c565b80601f016020809104026020016040519081016040528092919081815260200182805461277190613e6c565b80156127be5780601f10612793576101008083540402835291602001916127be565b820191906000526020600020905b8154815290600101906020018083116127a157829003601f168201915b505050505081526020016002820160009054906101000a900460ff1660088111156127ec576127eb613f47565b5b60088111156127fe576127fd613f47565b5b81526020016002820160019054906101000a900460ff16600281111561282757612826613f47565b5b600281111561283957612838613f47565b5b815260200160038201805461284d90613e6c565b80601f016020809104026020016040519081016040528092919081815260200182805461287990613e6c565b80156128c65780601f1061289b576101008083540402835291602001916128c6565b820191906000526020600020905b8154815290600101906020018083116128a957829003601f168201915b505050505081526020016004820180546128df90613e6c565b80601f016020809104026020016040519081016040528092919081815260200182805461290b90613e6c565b80156129585780601f1061292d57610100808354040283529160200191612958565b820191906000526020600020905b81548152906001019060200180831161293b57829003601f168201915b505050505081526020016005820160009054906101000a900473ffffffffffffffffffffffffffffffffffffffff1673ffffffffffffffffffffffffffffffffffffffff1673ffffffffffffffffffffffffffffffffffffffff16815250509050919050565b6129c66130dd565b6003826040516129d691906139ff565b90815260200160405180910390206040518060800160405290816000820180546129ff90613e6c565b80601f0160208091040260200160405190810160405280929190818152602001828054612a2b90613e6c565b8015612a785780601f10612a4d57610100808354040283529160200191612a78565b820191906000526020600020905b815481529060010190602001808311612a5b57829003601f168201915b505050505081526020016001820160009054906101000a900473ffffffffffffffffffffffffffffffffffffffff1673ffffffffffffffffffffffffffffffffffffffff1673ffffffffffffffffffffffffffffffffffffffff1681526020016001820160149054906101000a900460ff166002811115612afc57612afb613f47565b5b6002811115612b0e57612b0d613f47565b5b8152602001600282018054612b2290613e6c565b80601f0160208091040260200160405190810160405280929190818152602001828054612b4e90613e6c565b8015612b9b5780601f10612b7057610100808354040283529160200191612b9b565b820191906000526020600020905b815481529060010190602001808311612b7e57829003601f168201915b5050505050815250509050919050565b600081604051602001612bbe91906139ff565b6040516020818303038152906040528051906020012083604051602001612be591906139ff565b6040516020818303038152906040528051906020012014905092915050565b60606000600480549050905060008167ffffffffffffffff811115612c2c57612c2b613fd4565b5b604051908082528060200260200182016040528015612c6557816020015b612c526130dd565b815260200190600190039081612c4a5790505b509050600080600090505b83811015612f46578573ffffffffffffffffffffffffffffffffffffffff16600360048381548110612ca557612ca4613fa5565b5b90600052602060002001604051612cbc9190613a16565b908152602001604051809103902060010160009054906101000a900473ffffffffffffffffffffffffffffffffffffffff1673ffffffffffffffffffffffffffffffffffffffff161415612f3357600360048281548110612d2057612d1f613fa5565b5b90600052602060002001604051612d379190613a16565b9081526020016040518091039020604051806080016040529081600082018054612d6090613e6c565b80601f0160208091040260200160405190810160405280929190818152602001828054612d8c90613e6c565b8015612dd95780601f10612dae57610100808354040283529160200191612dd9565b820191906000526020600020905b815481529060010190602001808311612dbc57829003601f168201915b505050505081526020016001820160009054906101000a900473ffffffffffffffffffffffffffffffffffffffff1673ffffffffffffffffffffffffffffffffffffffff1673ffffffffffffffffffffffffffffffffffffffff1681526020016001820160149054906101000a900460ff166002811115612e5d57612e5c613f47565b5b6002811115612e6f57612e6e613f47565b5b8152602001600282018054612e8390613e6c565b80601f0160208091040260200160405190810160405280929190818152602001828054612eaf90613e6c565b8015612efc5780601f10612ed157610100808354040283529160200191612efc565b820191906000526020600020905b815481529060010190602001808311612edf57829003601f168201915b505050505081525050838381518110612f1857612f17613fa5565b5b6020026020010181905250600182612f309190613d0e565b91505b8080612f3e90613ecf565b915050612c70565b508067ffffffffffffffff811115612f6157612f60613fd4565b5b604051908082528060200260200182016040528015612f9a57816020015b612f876130dd565b815260200190600190039081612f7f5790505b50935060005b81811015612ff457828181518110612fbb57612fba613fa5565b5b6020026020010151858281518110612fd657612fd5613fa5565b5b60200260200101819052508080612fec90613ecf565b915050612fa0565b50505050919050565b6040518060e0016040528060608152602001606081526020016000600881111561302a57613029613f47565b5b81526020016000600281111561304357613042613f47565b5b81526020016060815260200160608152602001600073ffffffffffffffffffffffffffffffffffffffff1681525090565b6040518060e00160405280606081526020016060815260200160008152602001600073ffffffffffffffffffffffffffffffffffffffff168152602001600073ffffffffffffffffffffffffffffffffffffffff16815260200160008152602001600081525090565b604051806080016040528060608152602001600073ffffffffffffffffffffffffffffffffffffffff168152602001600060028111156131205761311f613f47565b5b8152602001606081525090565b600061314061313b84613be5565b613bc0565b90508281526020810184848401111561315c5761315b614008565b5b613167848285613e2a565b509392505050565b60008135905061317e81614050565b92915050565b60008135905061319381614067565b92915050565b6000813590506131a881614077565b92915050565b600082601f8301126131c3576131c2614003565b5b81356131d384826020860161312d565b91505092915050565b6000813590506131eb81614087565b92915050565b60006020828403121561320757613206614012565b5b60006132158482850161316f565b91505092915050565b60006020828403121561323457613233614012565b5b600061324284828501613184565b91505092915050565b60006020828403121561326157613260614012565b5b600061326f84828501613199565b91505092915050565b60006020828403121561328e5761328d614012565b5b600082013567ffffffffffffffff8111156132ac576132ab61400d565b5b6132b8848285016131ae565b91505092915050565b600080604083850312156132d8576132d7614012565b5b600083013567ffffffffffffffff8111156132f6576132f561400d565b5b613302858286016131ae565b925050602083013567ffffffffffffffff8111156133235761332261400d565b5b61332f858286016131ae565b9150509250929050565b60008060006060848603121561335257613351614012565b5b600084013567ffffffffffffffff8111156133705761336f61400d565b5b61337c868287016131ae565b935050602084013567ffffffffffffffff81111561339d5761339c61400d565b5b6133a9868287016131ae565b92505060406133ba8682870161316f565b9150509250925092565b6000602082840312156133da576133d9614012565b5b60006133e8848285016131dc565b91505092915050565b60006133fd8383613708565b905092915050565b600061341183836137dc565b905092915050565b6000613425838361387f565b905092915050565b61343681613d98565b82525050565b61344581613d98565b82525050565b600061345682613c5b565b6134608185613cae565b93508360208202850161347285613c16565b8060005b858110156134ae578484038952815161348f85826133f1565b945061349a83613c87565b925060208a01995050600181019050613476565b50829750879550505050505092915050565b60006134cb82613c66565b6134d58185613cbf565b9350836020820285016134e785613c26565b8060005b8581101561352357848403895281516135048582613405565b945061350f83613c94565b925060208a019950506001810190506134eb565b50829750879550505050505092915050565b600061354082613c71565b61354a8185613cd0565b93508360208202850161355c85613c36565b8060005b8581101561359857848403895281516135798582613419565b945061358483613ca1565b925060208a01995050600181019050613560565b50829750879550505050505092915050565b6135b381613daa565b82525050565b6135c281613e06565b82525050565b6135d181613e18565b82525050565b6135e081613e18565b82525050565b60006135f182613c7c565b6135fb8185613ce1565b935061360b818560208601613e39565b61361481614017565b840191505092915050565b600061362a82613c7c565b6136348185613cf2565b9350613644818560208601613e39565b61364d81614017565b840191505092915050565b600061366382613c7c565b61366d8185613d03565b935061367d818560208601613e39565b80840191505092915050565b6000815461369681613e6c565b6136a08186613d03565b945060018216600081146136bb57600181146136cc576136ff565b60ff198316865281860193506136ff565b6136d585613c46565b60005b838110156136f7578154818901526001820191506020810190506136d8565b838801955050505b50505092915050565b6000608083016000830151848203600086015261372582826135e6565b915050602083015161373a602086018261342d565b50604083015161374d60408601826135b9565b506060830151848203606086015261376582826135e6565b9150508091505092915050565b6000608083016000830151848203600086015261378f82826135e6565b91505060208301516137a4602086018261342d565b5060408301516137b760408601826135b9565b50606083015184820360608601526137cf82826135e6565b9150508091505092915050565b600060e08301600083015184820360008601526137f982826135e6565b9150506020830151848203602086015261381382826135e6565b915050604083015161382860408601826139e1565b50606083015161383b606086018261342d565b50608083015161384e608086018261342d565b5060a083015161386160a08601826139e1565b5060c083015161387460c08601826139e1565b508091505092915050565b600060e083016000830151848203600086015261389c82826135e6565b915050602083015184820360208601526138b682826135e6565b91505060408301516138cb60408601826135c8565b5060608301516138de60608601826135b9565b50608083015184820360808601526138f682826135e6565b91505060a083015184820360a086015261391082826135e6565b91505060c083015161392560c086018261342d565b508091505092915050565b600060e083016000830151848203600086015261394d82826135e6565b9150506020830151848203602086015261396782826135e6565b915050604083015161397c60408601826135c8565b50606083015161398f60608601826135b9565b50608083015184820360808601526139a782826135e6565b91505060a083015184820360a08601526139c182826135e6565b91505060c08301516139d660c086018261342d565b508091505092915050565b6139ea81613dfc565b82525050565b6139f981613dfc565b82525050565b6000613a0b8284613658565b915081905092915050565b6000613a228284613689565b915081905092915050565b6000602082019050613a42600083018461343c565b92915050565b60006020820190508181036000830152613a62818461344b565b905092915050565b60006020820190508181036000830152613a8481846134c0565b905092915050565b60006020820190508181036000830152613aa68184613535565b905092915050565b6000602082019050613ac360008301846135aa565b92915050565b6000602082019050613ade60008301846135d7565b92915050565b600060e0820190508181036000830152613afe818a61361f565b90508181036020830152613b12818961361f565b9050613b2160408301886139f0565b613b2e606083018761343c565b613b3b608083018661343c565b613b4860a08301856139f0565b613b5560c08301846139f0565b98975050505050505050565b60006020820190508181036000830152613b7b8184613772565b905092915050565b60006020820190508181036000830152613b9d8184613930565b905092915050565b6000602082019050613bba60008301846139f0565b92915050565b6000613bca613bdb565b9050613bd68282613e9e565b919050565b6000604051905090565b600067ffffffffffffffff821115613c0057613bff613fd4565b5b613c0982614017565b9050602081019050919050565b6000819050602082019050919050565b6000819050602082019050919050565b6000819050602082019050919050565b60008190508160005260206000209050919050565b600081519050919050565b600081519050919050565b600081519050919050565b600081519050919050565b6000602082019050919050565b6000602082019050919050565b6000602082019050919050565b600082825260208201905092915050565b600082825260208201905092915050565b600082825260208201905092915050565b600082825260208201905092915050565b600082825260208201905092915050565b600081905092915050565b6000613d1982613dfc565b9150613d2483613dfc565b9250827fffffffffffffffffffffffffffffffffffffffffffffffffffffffffffffffff03821115613d5957613d58613f18565b5b828201905092915050565b6000613d6f82613dfc565b9150613d7a83613dfc565b925082821015613d8d57613d8c613f18565b5b828203905092915050565b6000613da382613ddc565b9050919050565b60008115159050919050565b6000819050613dc482614028565b919050565b6000819050613dd78261403c565b919050565b600073ffffffffffffffffffffffffffffffffffffffff82169050919050565b6000819050919050565b6000613e1182613db6565b9050919050565b6000613e2382613dc9565b9050919050565b82818337600083830152505050565b60005b83811015613e57578082015181840152602081019050613e3c565b83811115613e66576000848401525b50505050565b60006002820490506001821680613e8457607f821691505b60208210811415613e9857613e97613f76565b5b50919050565b613ea782614017565b810181811067ffffffffffffffff82111715613ec657613ec5613fd4565b5b80604052505050565b6000613eda82613dfc565b91507fffffffffffffffffffffffffffffffffffffffffffffffffffffffffffffffff821415613f0d57613f0c613f18565b5b600182019050919050565b7f4e487b7100000000000000000000000000000000000000000000000000000000600052601160045260246000fd5b7f4e487b7100000000000000000000000000000000000000000000000000000000600052602160045260246000fd5b7f4e487b7100000000000000000000000000000000000000000000000000000000600052602260045260246000fd5b7f4e487b7100000000000000000000000000000000000000000000000000000000600052603260045260246000fd5b7f4e487b7100000000000000000000000000000000000000000000000000000000600052604160045260246000fd5b600080fd5b600080fd5b600080fd5b600080fd5b6000601f19601f8301169050919050565b6003811061403957614038613f47565b5b50565b6009811061404d5761404c613f47565b5b50565b61405981613d98565b811461406457600080fd5b50565b6003811061407457600080fd5b50565b6009811061408457600080fd5b50565b61409081613dfc565b811461409b57600080fd5b5056fea2646970667358221220f3a54e405cf4e7f016d87599cb548e815a5c300223d1d6a98ba3736c3ae44cce64736f6c63430008070033",
					"opcodes": "PUSH1 0x80 PUSH1 0x40 MSTORE CALLVALUE DUP1 ISZERO PUSH2 0x10 JUMPI PUSH1 0x0 DUP1 REVERT JUMPDEST POP PUSH2 0x40D4 DUP1 PUSH2 0x20 PUSH1 0x0 CODECOPY PUSH1 0x0 RETURN INVALID PUSH1 0x80 PUSH1 0x40 MSTORE CALLVALUE DUP1 ISZERO PUSH2 0x10 JUMPI PUSH1 0x0 DUP1 REVERT JUMPDEST POP PUSH1 0x4 CALLDATASIZE LT PUSH2 0xEA JUMPI PUSH1 0x0 CALLDATALOAD PUSH1 0xE0 SHR DUP1 PUSH4 0x7A53C535 GT PUSH2 0x8C JUMPI DUP1 PUSH4 0xCD1720D1 GT PUSH2 0x66 JUMPI DUP1 PUSH4 0xCD1720D1 EQ PUSH2 0x2B1 JUMPI DUP1 PUSH4 0xCDF7E73D EQ PUSH2 0x2E1 JUMPI DUP1 PUSH4 0xE9A734FF EQ PUSH2 0x311 JUMPI DUP1 PUSH4 0xFF946C85 EQ PUSH2 0x341 JUMPI PUSH2 0xEA JUMP JUMPDEST DUP1 PUSH4 0x7A53C535 EQ PUSH2 0x233 JUMPI DUP1 PUSH4 0x99B5BBDD EQ PUSH2 0x263 JUMPI DUP1 PUSH4 0xB4A99A4E EQ PUSH2 0x293 JUMPI PUSH2 0xEA JUMP JUMPDEST DUP1 PUSH4 0x40D37CAF GT PUSH2 0xC8 JUMPI DUP1 PUSH4 0x40D37CAF EQ PUSH2 0x185 JUMPI DUP1 PUSH4 0x4B2D14AA EQ PUSH2 0x1B5 JUMPI DUP1 PUSH4 0x783A7895 EQ PUSH2 0x1E5 JUMPI DUP1 PUSH4 0x798D2122 EQ PUSH2 0x203 JUMPI PUSH2 0xEA JUMP JUMPDEST DUP1 PUSH4 0xF9DE977 EQ PUSH2 0xEF JUMPI DUP1 PUSH4 0x1567697C EQ PUSH2 0x11F JUMPI DUP1 PUSH4 0x31A6DB4D EQ PUSH2 0x155 JUMPI JUMPDEST PUSH1 0x0 DUP1 REVERT JUMPDEST PUSH2 0x109 PUSH1 0x4 DUP1 CALLDATASIZE SUB DUP2 ADD SWAP1 PUSH2 0x104 SWAP2 SWAP1 PUSH2 0x324B JUMP JUMPDEST PUSH2 0x371 JUMP JUMPDEST PUSH1 0x40 MLOAD PUSH2 0x116 SWAP2 SWAP1 PUSH2 0x3A8C JUMP JUMPDEST PUSH1 0x40 MLOAD DUP1 SWAP2 SUB SWAP1 RETURN JUMPDEST PUSH2 0x139 PUSH1 0x4 DUP1 CALLDATASIZE SUB DUP2 ADD SWAP1 PUSH2 0x134 SWAP2 SWAP1 PUSH2 0x33C4 JUMP JUMPDEST PUSH2 0x932 JUMP JUMPDEST PUSH1 0x40 MLOAD PUSH2 0x14C SWAP8 SWAP7 SWAP6 SWAP5 SWAP4 SWAP3 SWAP2 SWAP1 PUSH2 0x3AE4 JUMP JUMPDEST PUSH1 0x40 MLOAD DUP1 SWAP2 SUB SWAP1 RETURN JUMPDEST PUSH2 0x16F PUSH1 0x4 DUP1 CALLDATASIZE SUB DUP2 ADD SWAP1 PUSH2 0x16A SWAP2 SWAP1 PUSH2 0x3339 JUMP JUMPDEST PUSH2 0xAD4 JUMP JUMPDEST PUSH1 0x40 MLOAD PUSH2 0x17C SWAP2 SWAP1 PUSH2 0x3A6A JUMP JUMPDEST PUSH1 0x40 MLOAD DUP1 SWAP2 SUB SWAP1 RETURN JUMPDEST PUSH2 0x19F PUSH1 0x4 DUP1 CALLDATASIZE SUB DUP2 ADD SWAP1 PUSH2 0x19A SWAP2 SWAP1 PUSH2 0x32C1 JUMP JUMPDEST PUSH2 0x10D3 JUMP JUMPDEST PUSH1 0x40 MLOAD PUSH2 0x1AC SWAP2 SWAP1 PUSH2 0x3A6A JUMP JUMPDEST PUSH1 0x40 MLOAD DUP1 SWAP2 SUB SWAP1 RETURN JUMPDEST PUSH2 0x1CF PUSH1 0x4 DUP1 CALLDATASIZE SUB DUP2 ADD SWAP1 PUSH2 0x1CA SWAP2 SWAP1 PUSH2 0x3278 JUMP JUMPDEST PUSH2 0x15DA JUMP JUMPDEST PUSH1 0x40 MLOAD PUSH2 0x1DC SWAP2 SWAP1 PUSH2 0x3A6A JUMP JUMPDEST PUSH1 0x40 MLOAD DUP1 SWAP2 SUB SWAP1 RETURN JUMPDEST PUSH2 0x1ED PUSH2 0x1A21 JUMP JUMPDEST PUSH1 0x40 MLOAD PUSH2 0x1FA SWAP2 SWAP1 PUSH2 0x3AC9 JUMP JUMPDEST PUSH1 0x40 MLOAD DUP1 SWAP2 SUB SWAP1 RETURN JUMPDEST PUSH2 0x21D PUSH1 0x4 DUP1 CALLDATASIZE SUB DUP2 ADD SWAP1 PUSH2 0x218 SWAP2 SWAP1 PUSH2 0x3339 JUMP JUMPDEST PUSH2 0x1B78 JUMP JUMPDEST PUSH1 0x40 MLOAD PUSH2 0x22A SWAP2 SWAP1 PUSH2 0x3BA5 JUMP JUMPDEST PUSH1 0x40 MLOAD DUP1 SWAP2 SUB SWAP1 RETURN JUMPDEST PUSH2 0x24D PUSH1 0x4 DUP1 CALLDATASIZE SUB DUP2 ADD SWAP1 PUSH2 0x248 SWAP2 SWAP1 PUSH2 0x321E JUMP JUMPDEST PUSH2 0x1C68 JUMP JUMPDEST PUSH1 0x40 MLOAD PUSH2 0x25A SWAP2 SWAP1 PUSH2 0x3A8C JUMP JUMPDEST PUSH1 0x40 MLOAD DUP1 SWAP2 SUB SWAP1 RETURN JUMPDEST PUSH2 0x27D PUSH1 0x4 DUP1 CALLDATASIZE SUB DUP2 ADD SWAP1 PUSH2 0x278 SWAP2 SWAP1 PUSH2 0x31F1 JUMP JUMPDEST PUSH2 0x2229 JUMP JUMPDEST PUSH1 0x40 MLOAD PUSH2 0x28A SWAP2 SWAP1 PUSH2 0x3A6A JUMP JUMPDEST PUSH1 0x40 MLOAD DUP1 SWAP2 SUB SWAP1 RETURN JUMPDEST PUSH2 0x29B PUSH2 0x262D JUMP JUMPDEST PUSH1 0x40 MLOAD PUSH2 0x2A8 SWAP2 SWAP1 PUSH2 0x3A2D JUMP JUMPDEST PUSH1 0x40 MLOAD DUP1 SWAP2 SUB SWAP1 RETURN JUMPDEST PUSH2 0x2CB PUSH1 0x4 DUP1 CALLDATASIZE SUB DUP2 ADD SWAP1 PUSH2 0x2C6 SWAP2 SWAP1 PUSH2 0x31F1 JUMP JUMPDEST PUSH2 0x2651 JUMP JUMPDEST PUSH1 0x40 MLOAD PUSH2 0x2D8 SWAP2 SWAP1 PUSH2 0x3B83 JUMP JUMPDEST PUSH1 0x40 MLOAD DUP1 SWAP2 SUB SWAP1 RETURN JUMPDEST PUSH2 0x2FB PUSH1 0x4 DUP1 CALLDATASIZE SUB DUP2 ADD SWAP1 PUSH2 0x2F6 SWAP2 SWAP1 PUSH2 0x3278 JUMP JUMPDEST PUSH2 0x29BE JUMP JUMPDEST PUSH1 0x40 MLOAD PUSH2 0x308 SWAP2 SWAP1 PUSH2 0x3B61 JUMP JUMPDEST PUSH1 0x40 MLOAD DUP1 SWAP2 SUB SWAP1 RETURN JUMPDEST PUSH2 0x32B PUSH1 0x4 DUP1 CALLDATASIZE SUB DUP2 ADD SWAP1 PUSH2 0x326 SWAP2 SWAP1 PUSH2 0x32C1 JUMP JUMPDEST PUSH2 0x2BAB JUMP JUMPDEST PUSH1 0x40 MLOAD PUSH2 0x338 SWAP2 SWAP1 PUSH2 0x3AAE JUMP JUMPDEST PUSH1 0x40 MLOAD DUP1 SWAP2 SUB SWAP1 RETURN JUMPDEST PUSH2 0x35B PUSH1 0x4 DUP1 CALLDATASIZE SUB DUP2 ADD SWAP1 PUSH2 0x356 SWAP2 SWAP1 PUSH2 0x31F1 JUMP JUMPDEST PUSH2 0x2C04 JUMP JUMPDEST PUSH1 0x40 MLOAD PUSH2 0x368 SWAP2 SWAP1 PUSH2 0x3A48 JUMP JUMPDEST PUSH1 0x40 MLOAD DUP1 SWAP2 SUB SWAP1 RETURN JUMPDEST PUSH1 0x60 PUSH1 0x0 PUSH1 0x2 DUP1 SLOAD SWAP1 POP SWAP1 POP PUSH1 0x0 DUP2 PUSH8 0xFFFFFFFFFFFFFFFF DUP2 GT ISZERO PUSH2 0x399 JUMPI PUSH2 0x398 PUSH2 0x3FD4 JUMP JUMPDEST JUMPDEST PUSH1 0x40 MLOAD SWAP1 DUP1 DUP3 MSTORE DUP1 PUSH1 0x20 MUL PUSH1 0x20 ADD DUP3 ADD PUSH1 0x40 MSTORE DUP1 ISZERO PUSH2 0x3D2 JUMPI DUP2 PUSH1 0x20 ADD JUMPDEST PUSH2 0x3BF PUSH2 0x2FFD JUMP JUMPDEST DUP2 MSTORE PUSH1 0x20 ADD SWAP1 PUSH1 0x1 SWAP1 SUB SWAP1 DUP2 PUSH2 0x3B7 JUMPI SWAP1 POP JUMPDEST POP SWAP1 POP PUSH1 0x0 DUP1 PUSH1 0x0 SWAP1 POP JUMPDEST DUP4 DUP2 LT ISZERO PUSH2 0x87B JUMPI DUP6 PUSH1 0x8 DUP2 GT ISZERO PUSH2 0x3F8 JUMPI PUSH2 0x3F7 PUSH2 0x3F47 JUMP JUMPDEST JUMPDEST PUSH1 0x1 PUSH1 0x0 PUSH1 0x2 DUP5 DUP2 SLOAD DUP2 LT PUSH2 0x410 JUMPI PUSH2 0x40F PUSH2 0x3FA5 JUMP JUMPDEST JUMPDEST SWAP1 PUSH1 0x0 MSTORE PUSH1 0x20 PUSH1 0x0 KECCAK256 ADD PUSH1 0x0 SWAP1 SLOAD SWAP1 PUSH2 0x100 EXP SWAP1 DIV PUSH20 0xFFFFFFFFFFFFFFFFFFFFFFFFFFFFFFFFFFFFFFFF AND PUSH20 0xFFFFFFFFFFFFFFFFFFFFFFFFFFFFFFFFFFFFFFFF AND PUSH20 0xFFFFFFFFFFFFFFFFFFFFFFFFFFFFFFFFFFFFFFFF AND DUP2 MSTORE PUSH1 0x20 ADD SWAP1 DUP2 MSTORE PUSH1 0x20 ADD PUSH1 0x0 KECCAK256 PUSH1 0x2 ADD PUSH1 0x0 SWAP1 SLOAD SWAP1 PUSH2 0x100 EXP SWAP1 DIV PUSH1 0xFF AND PUSH1 0x8 DUP2 GT ISZERO PUSH2 0x498 JUMPI PUSH2 0x497 PUSH2 0x3F47 JUMP JUMPDEST JUMPDEST EQ ISZERO PUSH2 0x868 JUMPI PUSH1 0x1 PUSH1 0x0 PUSH1 0x2 DUP4 DUP2 SLOAD DUP2 LT PUSH2 0x4B6 JUMPI PUSH2 0x4B5 PUSH2 0x3FA5 JUMP JUMPDEST JUMPDEST SWAP1 PUSH1 0x0 MSTORE PUSH1 0x20 PUSH1 0x0 KECCAK256 ADD PUSH1 0x0 SWAP1 SLOAD SWAP1 PUSH2 0x100 EXP SWAP1 DIV PUSH20 0xFFFFFFFFFFFFFFFFFFFFFFFFFFFFFFFFFFFFFFFF AND PUSH20 0xFFFFFFFFFFFFFFFFFFFFFFFFFFFFFFFFFFFFFFFF AND PUSH20 0xFFFFFFFFFFFFFFFFFFFFFFFFFFFFFFFFFFFFFFFF AND DUP2 MSTORE PUSH1 0x20 ADD SWAP1 DUP2 MSTORE PUSH1 0x20 ADD PUSH1 0x0 KECCAK256 PUSH1 0x40 MLOAD DUP1 PUSH1 0xE0 ADD PUSH1 0x40 MSTORE SWAP1 DUP2 PUSH1 0x0 DUP3 ADD DUP1 SLOAD PUSH2 0x536 SWAP1 PUSH2 0x3E6C JUMP JUMPDEST DUP1 PUSH1 0x1F ADD PUSH1 0x20 DUP1 SWAP2 DIV MUL PUSH1 0x20 ADD PUSH1 0x40 MLOAD SWAP1 DUP2 ADD PUSH1 0x40 MSTORE DUP1 SWAP3 SWAP2 SWAP1 DUP2 DUP2 MSTORE PUSH1 0x20 ADD DUP3 DUP1 SLOAD PUSH2 0x562 SWAP1 PUSH2 0x3E6C JUMP JUMPDEST DUP1 ISZERO PUSH2 0x5AF JUMPI DUP1 PUSH1 0x1F LT PUSH2 0x584 JUMPI PUSH2 0x100 DUP1 DUP4 SLOAD DIV MUL DUP4 MSTORE SWAP2 PUSH1 0x20 ADD SWAP2 PUSH2 0x5AF JUMP JUMPDEST DUP3 ADD SWAP2 SWAP1 PUSH1 0x0 MSTORE PUSH1 0x20 PUSH1 0x0 KECCAK256 SWAP1 JUMPDEST DUP2 SLOAD DUP2 MSTORE SWAP1 PUSH1 0x1 ADD SWAP1 PUSH1 0x20 ADD DUP1 DUP4 GT PUSH2 0x592 JUMPI DUP3 SWAP1 SUB PUSH1 0x1F AND DUP3 ADD SWAP2 JUMPDEST POP POP POP POP POP DUP2 MSTORE PUSH1 0x20 ADD PUSH1 0x1 DUP3 ADD DUP1 SLOAD PUSH2 0x5C8 SWAP1 PUSH2 0x3E6C JUMP JUMPDEST DUP1 PUSH1 0x1F ADD PUSH1 0x20 DUP1 SWAP2 DIV MUL PUSH1 0x20 ADD PUSH1 0x40 MLOAD SWAP1 DUP2 ADD PUSH1 0x40 MSTORE DUP1 SWAP3 SWAP2 SWAP1 DUP2 DUP2 MSTORE PUSH1 0x20 ADD DUP3 DUP1 SLOAD PUSH2 0x5F4 SWAP1 PUSH2 0x3E6C JUMP JUMPDEST DUP1 ISZERO PUSH2 0x641 JUMPI DUP1 PUSH1 0x1F LT PUSH2 0x616 JUMPI PUSH2 0x100 DUP1 DUP4 SLOAD DIV MUL DUP4 MSTORE SWAP2 PUSH1 0x20 ADD SWAP2 PUSH2 0x641 JUMP JUMPDEST DUP3 ADD SWAP2 SWAP1 PUSH1 0x0 MSTORE PUSH1 0x20 PUSH1 0x0 KECCAK256 SWAP1 JUMPDEST DUP2 SLOAD DUP2 MSTORE SWAP1 PUSH1 0x1 ADD SWAP1 PUSH1 0x20 ADD DUP1 DUP4 GT PUSH2 0x624 JUMPI DUP3 SWAP1 SUB PUSH1 0x1F AND DUP3 ADD SWAP2 JUMPDEST POP POP POP POP POP DUP2 MSTORE PUSH1 0x20 ADD PUSH1 0x2 DUP3 ADD PUSH1 0x0 SWAP1 SLOAD SWAP1 PUSH2 0x100 EXP SWAP1 DIV PUSH1 0xFF AND PUSH1 0x8 DUP2 GT ISZERO PUSH2 0x66F JUMPI PUSH2 0x66E PUSH2 0x3F47 JUMP JUMPDEST JUMPDEST PUSH1 0x8 DUP2 GT ISZERO PUSH2 0x681 JUMPI PUSH2 0x680 PUSH2 0x3F47 JUMP JUMPDEST JUMPDEST DUP2 MSTORE PUSH1 0x20 ADD PUSH1 0x2 DUP3 ADD PUSH1 0x1 SWAP1 SLOAD SWAP1 PUSH2 0x100 EXP SWAP1 DIV PUSH1 0xFF AND PUSH1 0x2 DUP2 GT ISZERO PUSH2 0x6AA JUMPI PUSH2 0x6A9 PUSH2 0x3F47 JUMP JUMPDEST JUMPDEST PUSH1 0x2 DUP2 GT ISZERO PUSH2 0x6BC JUMPI PUSH2 0x6BB PUSH2 0x3F47 JUMP JUMPDEST JUMPDEST DUP2 MSTORE PUSH1 0x20 ADD PUSH1 0x3 DUP3 ADD DUP1 SLOAD PUSH2 0x6D0 SWAP1 PUSH2 0x3E6C JUMP JUMPDEST DUP1 PUSH1 0x1F ADD PUSH1 0x20 DUP1 SWAP2 DIV MUL PUSH1 0x20 ADD PUSH1 0x40 MLOAD SWAP1 DUP2 ADD PUSH1 0x40 MSTORE DUP1 SWAP3 SWAP2 SWAP1 DUP2 DUP2 MSTORE PUSH1 0x20 ADD DUP3 DUP1 SLOAD PUSH2 0x6FC SWAP1 PUSH2 0x3E6C JUMP JUMPDEST DUP1 ISZERO PUSH2 0x749 JUMPI DUP1 PUSH1 0x1F LT PUSH2 0x71E JUMPI PUSH2 0x100 DUP1 DUP4 SLOAD DIV MUL DUP4 MSTORE SWAP2 PUSH1 0x20 ADD SWAP2 PUSH2 0x749 JUMP JUMPDEST DUP3 ADD SWAP2 SWAP1 PUSH1 0x0 MSTORE PUSH1 0x20 PUSH1 0x0 KECCAK256 SWAP1 JUMPDEST DUP2 SLOAD DUP2 MSTORE SWAP1 PUSH1 0x1 ADD SWAP1 PUSH1 0x20 ADD DUP1 DUP4 GT PUSH2 0x72C JUMPI DUP3 SWAP1 SUB PUSH1 0x1F AND DUP3 ADD SWAP2 JUMPDEST POP POP POP POP POP DUP2 MSTORE PUSH1 0x20 ADD PUSH1 0x4 DUP3 ADD DUP1 SLOAD PUSH2 0x762 SWAP1 PUSH2 0x3E6C JUMP JUMPDEST DUP1 PUSH1 0x1F ADD PUSH1 0x20 DUP1 SWAP2 DIV MUL PUSH1 0x20 ADD PUSH1 0x40 MLOAD SWAP1 DUP2 ADD PUSH1 0x40 MSTORE DUP1 SWAP3 SWAP2 SWAP1 DUP2 DUP2 MSTORE PUSH1 0x20 ADD DUP3 DUP1 SLOAD PUSH2 0x78E SWAP1 PUSH2 0x3E6C JUMP JUMPDEST DUP1 ISZERO PUSH2 0x7DB JUMPI DUP1 PUSH1 0x1F LT PUSH2 0x7B0 JUMPI PUSH2 0x100 DUP1 DUP4 SLOAD DIV MUL DUP4 MSTORE SWAP2 PUSH1 0x20 ADD SWAP2 PUSH2 0x7DB JUMP JUMPDEST DUP3 ADD SWAP2 SWAP1 PUSH1 0x0 MSTORE PUSH1 0x20 PUSH1 0x0 KECCAK256 SWAP1 JUMPDEST DUP2 SLOAD DUP2 MSTORE SWAP1 PUSH1 0x1 ADD SWAP1 PUSH1 0x20 ADD DUP1 DUP4 GT PUSH2 0x7BE JUMPI DUP3 SWAP1 SUB PUSH1 0x1F AND DUP3 ADD SWAP2 JUMPDEST POP POP POP POP POP DUP2 MSTORE PUSH1 0x20 ADD PUSH1 0x5 DUP3 ADD PUSH1 0x0 SWAP1 SLOAD SWAP1 PUSH2 0x100 EXP SWAP1 DIV PUSH20 0xFFFFFFFFFFFFFFFFFFFFFFFFFFFFFFFFFFFFFFFF AND PUSH20 0xFFFFFFFFFFFFFFFFFFFFFFFFFFFFFFFFFFFFFFFF AND PUSH20 0xFFFFFFFFFFFFFFFFFFFFFFFFFFFFFFFFFFFFFFFF AND DUP2 MSTORE POP POP DUP4 DUP4 DUP2 MLOAD DUP2 LT PUSH2 0x84D JUMPI PUSH2 0x84C PUSH2 0x3FA5 JUMP JUMPDEST JUMPDEST PUSH1 0x20 MUL PUSH1 0x20 ADD ADD DUP2 SWAP1 MSTORE POP PUSH1 0x1 DUP3 PUSH2 0x865 SWAP2 SWAP1 PUSH2 0x3D0E JUMP JUMPDEST SWAP2 POP JUMPDEST DUP1 DUP1 PUSH2 0x873 SWAP1 PUSH2 0x3ECF JUMP JUMPDEST SWAP2 POP POP PUSH2 0x3DD JUMP JUMPDEST POP DUP1 PUSH8 0xFFFFFFFFFFFFFFFF DUP2 GT ISZERO PUSH2 0x896 JUMPI PUSH2 0x895 PUSH2 0x3FD4 JUMP JUMPDEST JUMPDEST PUSH1 0x40 MLOAD SWAP1 DUP1 DUP3 MSTORE DUP1 PUSH1 0x20 MUL PUSH1 0x20 ADD DUP3 ADD PUSH1 0x40 MSTORE DUP1 ISZERO PUSH2 0x8CF JUMPI DUP2 PUSH1 0x20 ADD JUMPDEST PUSH2 0x8BC PUSH2 0x2FFD JUMP JUMPDEST DUP2 MSTORE PUSH1 0x20 ADD SWAP1 PUSH1 0x1 SWAP1 SUB SWAP1 DUP2 PUSH2 0x8B4 JUMPI SWAP1 POP JUMPDEST POP SWAP4 POP PUSH1 0x0 JUMPDEST DUP2 DUP2 LT ISZERO PUSH2 0x929 JUMPI DUP3 DUP2 DUP2 MLOAD DUP2 LT PUSH2 0x8F0 JUMPI PUSH2 0x8EF PUSH2 0x3FA5 JUMP JUMPDEST JUMPDEST PUSH1 0x20 MUL PUSH1 0x20 ADD ADD MLOAD DUP6 DUP3 DUP2 MLOAD DUP2 LT PUSH2 0x90B JUMPI PUSH2 0x90A PUSH2 0x3FA5 JUMP JUMPDEST JUMPDEST PUSH1 0x20 MUL PUSH1 0x20 ADD ADD DUP2 SWAP1 MSTORE POP DUP1 DUP1 PUSH2 0x921 SWAP1 PUSH2 0x3ECF JUMP JUMPDEST SWAP2 POP POP PUSH2 0x8D5 JUMP JUMPDEST POP POP POP POP SWAP2 SWAP1 POP JUMP JUMPDEST PUSH1 0x5 DUP2 DUP2 SLOAD DUP2 LT PUSH2 0x942 JUMPI PUSH1 0x0 DUP1 REVERT JUMPDEST SWAP1 PUSH1 0x0 MSTORE PUSH1 0x20 PUSH1 0x0 KECCAK256 SWAP1 PUSH1 0x7 MUL ADD PUSH1 0x0 SWAP2 POP SWAP1 POP DUP1 PUSH1 0x0 ADD DUP1 SLOAD PUSH2 0x965 SWAP1 PUSH2 0x3E6C JUMP JUMPDEST DUP1 PUSH1 0x1F ADD PUSH1 0x20 DUP1 SWAP2 DIV MUL PUSH1 0x20 ADD PUSH1 0x40 MLOAD SWAP1 DUP2 ADD PUSH1 0x40 MSTORE DUP1 SWAP3 SWAP2 SWAP1 DUP2 DUP2 MSTORE PUSH1 0x20 ADD DUP3 DUP1 SLOAD PUSH2 0x991 SWAP1 PUSH2 0x3E6C JUMP JUMPDEST DUP1 ISZERO PUSH2 0x9DE JUMPI DUP1 PUSH1 0x1F LT PUSH2 0x9B3 JUMPI PUSH2 0x100 DUP1 DUP4 SLOAD DIV MUL DUP4 MSTORE SWAP2 PUSH1 0x20 ADD SWAP2 PUSH2 0x9DE JUMP JUMPDEST DUP3 ADD SWAP2 SWAP1 PUSH1 0x0 MSTORE PUSH1 0x20 PUSH1 0x0 KECCAK256 SWAP1 JUMPDEST DUP2 SLOAD DUP2 MSTORE SWAP1 PUSH1 0x1 ADD SWAP1 PUSH1 0x20 ADD DUP1 DUP4 GT PUSH2 0x9C1 JUMPI DUP3 SWAP1 SUB PUSH1 0x1F AND DUP3 ADD SWAP2 JUMPDEST POP POP POP POP POP SWAP1 DUP1 PUSH1 0x1 ADD DUP1 SLOAD PUSH2 0x9F3 SWAP1 PUSH2 0x3E6C JUMP JUMPDEST DUP1 PUSH1 0x1F ADD PUSH1 0x20 DUP1 SWAP2 DIV MUL PUSH1 0x20 ADD PUSH1 0x40 MLOAD SWAP1 DUP2 ADD PUSH1 0x40 MSTORE DUP1 SWAP3 SWAP2 SWAP1 DUP2 DUP2 MSTORE PUSH1 0x20 ADD DUP3 DUP1 SLOAD PUSH2 0xA1F SWAP1 PUSH2 0x3E6C JUMP JUMPDEST DUP1 ISZERO PUSH2 0xA6C JUMPI DUP1 PUSH1 0x1F LT PUSH2 0xA41 JUMPI PUSH2 0x100 DUP1 DUP4 SLOAD DIV MUL DUP4 MSTORE SWAP2 PUSH1 0x20 ADD SWAP2 PUSH2 0xA6C JUMP JUMPDEST DUP3 ADD SWAP2 SWAP1 PUSH1 0x0 MSTORE PUSH1 0x20 PUSH1 0x0 KECCAK256 SWAP1 JUMPDEST DUP2 SLOAD DUP2 MSTORE SWAP1 PUSH1 0x1 ADD SWAP1 PUSH1 0x20 ADD DUP1 DUP4 GT PUSH2 0xA4F JUMPI DUP3 SWAP1 SUB PUSH1 0x1F AND DUP3 ADD SWAP2 JUMPDEST POP POP POP POP POP SWAP1 DUP1 PUSH1 0x2 ADD SLOAD SWAP1 DUP1 PUSH1 0x3 ADD PUSH1 0x0 SWAP1 SLOAD SWAP1 PUSH2 0x100 EXP SWAP1 DIV PUSH20 0xFFFFFFFFFFFFFFFFFFFFFFFFFFFFFFFFFFFFFFFF AND SWAP1 DUP1 PUSH1 0x4 ADD PUSH1 0x0 SWAP1 SLOAD SWAP1 PUSH2 0x100 EXP SWAP1 DIV PUSH20 0xFFFFFFFFFFFFFFFFFFFFFFFFFFFFFFFFFFFFFFFF AND SWAP1 DUP1 PUSH1 0x5 ADD SLOAD SWAP1 DUP1 PUSH1 0x6 ADD SLOAD SWAP1 POP DUP8 JUMP JUMPDEST PUSH1 0x60 PUSH1 0x0 DUP1 PUSH1 0x5 DUP1 SLOAD SWAP1 POP PUSH8 0xFFFFFFFFFFFFFFFF DUP2 GT ISZERO PUSH2 0xAF8 JUMPI PUSH2 0xAF7 PUSH2 0x3FD4 JUMP JUMPDEST JUMPDEST PUSH1 0x40 MLOAD SWAP1 DUP1 DUP3 MSTORE DUP1 PUSH1 0x20 MUL PUSH1 0x20 ADD DUP3 ADD PUSH1 0x40 MSTORE DUP1 ISZERO PUSH2 0xB31 JUMPI DUP2 PUSH1 0x20 ADD JUMPDEST PUSH2 0xB1E PUSH2 0x3074 JUMP JUMPDEST DUP2 MSTORE PUSH1 0x20 ADD SWAP1 PUSH1 0x1 SWAP1 SUB SWAP1 DUP2 PUSH2 0xB16 JUMPI SWAP1 POP JUMPDEST POP SWAP1 POP PUSH1 0x0 JUMPDEST PUSH1 0x5 DUP1 SLOAD SWAP1 POP DUP2 LT ISZERO PUSH2 0x1011 JUMPI PUSH2 0xBFB PUSH1 0x5 DUP3 DUP2 SLOAD DUP2 LT PUSH2 0xB5B JUMPI PUSH2 0xB5A PUSH2 0x3FA5 JUMP JUMPDEST JUMPDEST SWAP1 PUSH1 0x0 MSTORE PUSH1 0x20 PUSH1 0x0 KECCAK256 SWAP1 PUSH1 0x7 MUL ADD PUSH1 0x1 ADD DUP1 SLOAD PUSH2 0xB77 SWAP1 PUSH2 0x3E6C JUMP JUMPDEST DUP1 PUSH1 0x1F ADD PUSH1 0x20 DUP1 SWAP2 DIV MUL PUSH1 0x20 ADD PUSH1 0x40 MLOAD SWAP1 DUP2 ADD PUSH1 0x40 MSTORE DUP1 SWAP3 SWAP2 SWAP1 DUP2 DUP2 MSTORE PUSH1 0x20 ADD DUP3 DUP1 SLOAD PUSH2 0xBA3 SWAP1 PUSH2 0x3E6C JUMP JUMPDEST DUP1 ISZERO PUSH2 0xBF0 JUMPI DUP1 PUSH1 0x1F LT PUSH2 0xBC5 JUMPI PUSH2 0x100 DUP1 DUP4 SLOAD DIV MUL DUP4 MSTORE SWAP2 PUSH1 0x20 ADD SWAP2 PUSH2 0xBF0 JUMP JUMPDEST DUP3 ADD SWAP2 SWAP1 PUSH1 0x0 MSTORE PUSH1 0x20 PUSH1 0x0 KECCAK256 SWAP1 JUMPDEST DUP2 SLOAD DUP2 MSTORE SWAP1 PUSH1 0x1 ADD SWAP1 PUSH1 0x20 ADD DUP1 DUP4 GT PUSH2 0xBD3 JUMPI DUP3 SWAP1 SUB PUSH1 0x1F AND DUP3 ADD SWAP2 JUMPDEST POP POP POP POP POP DUP9 PUSH2 0x2BAB JUMP JUMPDEST DUP1 ISZERO PUSH2 0xCBA JUMPI POP PUSH2 0xCB9 PUSH1 0x5 DUP3 DUP2 SLOAD DUP2 LT PUSH2 0xC19 JUMPI PUSH2 0xC18 PUSH2 0x3FA5 JUMP JUMPDEST JUMPDEST SWAP1 PUSH1 0x0 MSTORE PUSH1 0x20 PUSH1 0x0 KECCAK256 SWAP1 PUSH1 0x7 MUL ADD PUSH1 0x0 ADD DUP1 SLOAD PUSH2 0xC35 SWAP1 PUSH2 0x3E6C JUMP JUMPDEST DUP1 PUSH1 0x1F ADD PUSH1 0x20 DUP1 SWAP2 DIV MUL PUSH1 0x20 ADD PUSH1 0x40 MLOAD SWAP1 DUP2 ADD PUSH1 0x40 MSTORE DUP1 SWAP3 SWAP2 SWAP1 DUP2 DUP2 MSTORE PUSH1 0x20 ADD DUP3 DUP1 SLOAD PUSH2 0xC61 SWAP1 PUSH2 0x3E6C JUMP JUMPDEST DUP1 ISZERO PUSH2 0xCAE JUMPI DUP1 PUSH1 0x1F LT PUSH2 0xC83 JUMPI PUSH2 0x100 DUP1 DUP4 SLOAD DIV MUL DUP4 MSTORE SWAP2 PUSH1 0x20 ADD SWAP2 PUSH2 0xCAE JUMP JUMPDEST DUP3 ADD SWAP2 SWAP1 PUSH1 0x0 MSTORE PUSH1 0x20 PUSH1 0x0 KECCAK256 SWAP1 JUMPDEST DUP2 SLOAD DUP2 MSTORE SWAP1 PUSH1 0x1 ADD SWAP1 PUSH1 0x20 ADD DUP1 DUP4 GT PUSH2 0xC91 JUMPI DUP3 SWAP1 SUB PUSH1 0x1F AND DUP3 ADD SWAP2 JUMPDEST POP POP POP POP POP DUP8 PUSH2 0x2BAB JUMP JUMPDEST JUMPDEST DUP1 ISZERO PUSH2 0xDB1 JUMPI POP DUP5 PUSH20 0xFFFFFFFFFFFFFFFFFFFFFFFFFFFFFFFFFFFFFFFF AND PUSH1 0x5 DUP3 DUP2 SLOAD DUP2 LT PUSH2 0xCEC JUMPI PUSH2 0xCEB PUSH2 0x3FA5 JUMP JUMPDEST JUMPDEST SWAP1 PUSH1 0x0 MSTORE PUSH1 0x20 PUSH1 0x0 KECCAK256 SWAP1 PUSH1 0x7 MUL ADD PUSH1 0x4 ADD PUSH1 0x0 SWAP1 SLOAD SWAP1 PUSH2 0x100 EXP SWAP1 DIV PUSH20 0xFFFFFFFFFFFFFFFFFFFFFFFFFFFFFFFFFFFFFFFF AND PUSH20 0xFFFFFFFFFFFFFFFFFFFFFFFFFFFFFFFFFFFFFFFF AND EQ DUP1 PUSH2 0xDB0 JUMPI POP DUP5 PUSH20 0xFFFFFFFFFFFFFFFFFFFFFFFFFFFFFFFFFFFFFFFF AND PUSH1 0x5 DUP3 DUP2 SLOAD DUP2 LT PUSH2 0xD66 JUMPI PUSH2 0xD65 PUSH2 0x3FA5 JUMP JUMPDEST JUMPDEST SWAP1 PUSH1 0x0 MSTORE PUSH1 0x20 PUSH1 0x0 KECCAK256 SWAP1 PUSH1 0x7 MUL ADD PUSH1 0x3 ADD PUSH1 0x0 SWAP1 SLOAD SWAP1 PUSH2 0x100 EXP SWAP1 DIV PUSH20 0xFFFFFFFFFFFFFFFFFFFFFFFFFFFFFFFFFFFFFFFF AND PUSH20 0xFFFFFFFFFFFFFFFFFFFFFFFFFFFFFFFFFFFFFFFF AND EQ JUMPDEST JUMPDEST ISZERO PUSH2 0xFFE JUMPI PUSH1 0x5 DUP2 DUP2 SLOAD DUP2 LT PUSH2 0xDCA JUMPI PUSH2 0xDC9 PUSH2 0x3FA5 JUMP JUMPDEST JUMPDEST SWAP1 PUSH1 0x0 MSTORE PUSH1 0x20 PUSH1 0x0 KECCAK256 SWAP1 PUSH1 0x7 MUL ADD PUSH1 0x40 MLOAD DUP1 PUSH1 0xE0 ADD PUSH1 0x40 MSTORE SWAP1 DUP2 PUSH1 0x0 DUP3 ADD DUP1 SLOAD PUSH2 0xDF3 SWAP1 PUSH2 0x3E6C JUMP JUMPDEST DUP1 PUSH1 0x1F ADD PUSH1 0x20 DUP1 SWAP2 DIV MUL PUSH1 0x20 ADD PUSH1 0x40 MLOAD SWAP1 DUP2 ADD PUSH1 0x40 MSTORE DUP1 SWAP3 SWAP2 SWAP1 DUP2 DUP2 MSTORE PUSH1 0x20 ADD DUP3 DUP1 SLOAD PUSH2 0xE1F SWAP1 PUSH2 0x3E6C JUMP JUMPDEST DUP1 ISZERO PUSH2 0xE6C JUMPI DUP1 PUSH1 0x1F LT PUSH2 0xE41 JUMPI PUSH2 0x100 DUP1 DUP4 SLOAD DIV MUL DUP4 MSTORE SWAP2 PUSH1 0x20 ADD SWAP2 PUSH2 0xE6C JUMP JUMPDEST DUP3 ADD SWAP2 SWAP1 PUSH1 0x0 MSTORE PUSH1 0x20 PUSH1 0x0 KECCAK256 SWAP1 JUMPDEST DUP2 SLOAD DUP2 MSTORE SWAP1 PUSH1 0x1 ADD SWAP1 PUSH1 0x20 ADD DUP1 DUP4 GT PUSH2 0xE4F JUMPI DUP3 SWAP1 SUB PUSH1 0x1F AND DUP3 ADD SWAP2 JUMPDEST POP POP POP POP POP DUP2 MSTORE PUSH1 0x20 ADD PUSH1 0x1 DUP3 ADD DUP1 SLOAD PUSH2 0xE85 SWAP1 PUSH2 0x3E6C JUMP JUMPDEST DUP1 PUSH1 0x1F ADD PUSH1 0x20 DUP1 SWAP2 DIV MUL PUSH1 0x20 ADD PUSH1 0x40 MLOAD SWAP1 DUP2 ADD PUSH1 0x40 MSTORE DUP1 SWAP3 SWAP2 SWAP1 DUP2 DUP2 MSTORE PUSH1 0x20 ADD DUP3 DUP1 SLOAD PUSH2 0xEB1 SWAP1 PUSH2 0x3E6C JUMP JUMPDEST DUP1 ISZERO PUSH2 0xEFE JUMPI DUP1 PUSH1 0x1F LT PUSH2 0xED3 JUMPI PUSH2 0x100 DUP1 DUP4 SLOAD DIV MUL DUP4 MSTORE SWAP2 PUSH1 0x20 ADD SWAP2 PUSH2 0xEFE JUMP JUMPDEST DUP3 ADD SWAP2 SWAP1 PUSH1 0x0 MSTORE PUSH1 0x20 PUSH1 0x0 KECCAK256 SWAP1 JUMPDEST DUP2 SLOAD DUP2 MSTORE SWAP1 PUSH1 0x1 ADD SWAP1 PUSH1 0x20 ADD DUP1 DUP4 GT PUSH2 0xEE1 JUMPI DUP3 SWAP1 SUB PUSH1 0x1F AND DUP3 ADD SWAP2 JUMPDEST POP POP POP POP POP DUP2 MSTORE PUSH1 0x20 ADD PUSH1 0x2 DUP3 ADD SLOAD DUP2 MSTORE PUSH1 0x20 ADD PUSH1 0x3 DUP3 ADD PUSH1 0x0 SWAP1 SLOAD SWAP1 PUSH2 0x100 EXP SWAP1 DIV PUSH20 0xFFFFFFFFFFFFFFFFFFFFFFFFFFFFFFFFFFFFFFFF AND PUSH20 0xFFFFFFFFFFFFFFFFFFFFFFFFFFFFFFFFFFFFFFFF AND PUSH20 0xFFFFFFFFFFFFFFFFFFFFFFFFFFFFFFFFFFFFFFFF AND DUP2 MSTORE PUSH1 0x20 ADD PUSH1 0x4 DUP3 ADD PUSH1 0x0 SWAP1 SLOAD SWAP1 PUSH2 0x100 EXP SWAP1 DIV PUSH20 0xFFFFFFFFFFFFFFFFFFFFFFFFFFFFFFFFFFFFFFFF AND PUSH20 0xFFFFFFFFFFFFFFFFFFFFFFFFFFFFFFFFFFFFFFFF AND PUSH20 0xFFFFFFFFFFFFFFFFFFFFFFFFFFFFFFFFFFFFFFFF AND DUP2 MSTORE PUSH1 0x20 ADD PUSH1 0x5 DUP3 ADD SLOAD DUP2 MSTORE PUSH1 0x20 ADD PUSH1 0x6 DUP3 ADD SLOAD DUP2 MSTORE POP POP DUP3 DUP5 DUP2 MLOAD DUP2 LT PUSH2 0xFE4 JUMPI PUSH2 0xFE3 PUSH2 0x3FA5 JUMP JUMPDEST JUMPDEST PUSH1 0x20 MUL PUSH1 0x20 ADD ADD DUP2 SWAP1 MSTORE POP DUP3 DUP1 PUSH2 0xFFA SWAP1 PUSH2 0x3ECF JUMP JUMPDEST SWAP4 POP POP JUMPDEST DUP1 DUP1 PUSH2 0x1009 SWAP1 PUSH2 0x3ECF JUMP JUMPDEST SWAP2 POP POP PUSH2 0xB37 JUMP JUMPDEST POP DUP2 PUSH8 0xFFFFFFFFFFFFFFFF DUP2 GT ISZERO PUSH2 0x102C JUMPI PUSH2 0x102B PUSH2 0x3FD4 JUMP JUMPDEST JUMPDEST PUSH1 0x40 MLOAD SWAP1 DUP1 DUP3 MSTORE DUP1 PUSH1 0x20 MUL PUSH1 0x20 ADD DUP3 ADD PUSH1 0x40 MSTORE DUP1 ISZERO PUSH2 0x1065 JUMPI DUP2 PUSH1 0x20 ADD JUMPDEST PUSH2 0x1052 PUSH2 0x3074 JUMP JUMPDEST DUP2 MSTORE PUSH1 0x20 ADD SWAP1 PUSH1 0x1 SWAP1 SUB SWAP1 DUP2 PUSH2 0x104A JUMPI SWAP1 POP JUMPDEST POP SWAP3 POP PUSH1 0x0 DUP3 GT ISZERO PUSH2 0x10CA JUMPI PUSH1 0x0 JUMPDEST DUP3 DUP2 LT ISZERO PUSH2 0x10C8 JUMPI DUP2 DUP2 DUP2 MLOAD DUP2 LT PUSH2 0x108F JUMPI PUSH2 0x108E PUSH2 0x3FA5 JUMP JUMPDEST JUMPDEST PUSH1 0x20 MUL PUSH1 0x20 ADD ADD MLOAD DUP5 DUP3 DUP2 MLOAD DUP2 LT PUSH2 0x10AA JUMPI PUSH2 0x10A9 PUSH2 0x3FA5 JUMP JUMPDEST JUMPDEST PUSH1 0x20 MUL PUSH1 0x20 ADD ADD DUP2 SWAP1 MSTORE POP DUP1 DUP1 PUSH2 0x10C0 SWAP1 PUSH2 0x3ECF JUMP JUMPDEST SWAP2 POP POP PUSH2 0x1074 JUMP JUMPDEST POP JUMPDEST POP POP SWAP4 SWAP3 POP POP POP JUMP JUMPDEST PUSH1 0x60 PUSH1 0x0 DUP1 PUSH1 0x5 DUP1 SLOAD SWAP1 POP PUSH8 0xFFFFFFFFFFFFFFFF DUP2 GT ISZERO PUSH2 0x10F7 JUMPI PUSH2 0x10F6 PUSH2 0x3FD4 JUMP JUMPDEST JUMPDEST PUSH1 0x40 MLOAD SWAP1 DUP1 DUP3 MSTORE DUP1 PUSH1 0x20 MUL PUSH1 0x20 ADD DUP3 ADD PUSH1 0x40 MSTORE DUP1 ISZERO PUSH2 0x1130 JUMPI DUP2 PUSH1 0x20 ADD JUMPDEST PUSH2 0x111D PUSH2 0x3074 JUMP JUMPDEST DUP2 MSTORE PUSH1 0x20 ADD SWAP1 PUSH1 0x1 SWAP1 SUB SWAP1 DUP2 PUSH2 0x1115 JUMPI SWAP1 POP JUMPDEST POP SWAP1 POP PUSH1 0x0 JUMPDEST PUSH1 0x5 DUP1 SLOAD SWAP1 POP DUP2 LT ISZERO PUSH2 0x1519 JUMPI PUSH2 0x11FA PUSH1 0x5 DUP3 DUP2 SLOAD DUP2 LT PUSH2 0x115A JUMPI PUSH2 0x1159 PUSH2 0x3FA5 JUMP JUMPDEST JUMPDEST SWAP1 PUSH1 0x0 MSTORE PUSH1 0x20 PUSH1 0x0 KECCAK256 SWAP1 PUSH1 0x7 MUL ADD PUSH1 0x1 ADD DUP1 SLOAD PUSH2 0x1176 SWAP1 PUSH2 0x3E6C JUMP JUMPDEST DUP1 PUSH1 0x1F ADD PUSH1 0x20 DUP1 SWAP2 DIV MUL PUSH1 0x20 ADD PUSH1 0x40 MLOAD SWAP1 DUP2 ADD PUSH1 0x40 MSTORE DUP1 SWAP3 SWAP2 SWAP1 DUP2 DUP2 MSTORE PUSH1 0x20 ADD DUP3 DUP1 SLOAD PUSH2 0x11A2 SWAP1 PUSH2 0x3E6C JUMP JUMPDEST DUP1 ISZERO PUSH2 0x11EF JUMPI DUP1 PUSH1 0x1F LT PUSH2 0x11C4 JUMPI PUSH2 0x100 DUP1 DUP4 SLOAD DIV MUL DUP4 MSTORE SWAP2 PUSH1 0x20 ADD SWAP2 PUSH2 0x11EF JUMP JUMPDEST DUP3 ADD SWAP2 SWAP1 PUSH1 0x0 MSTORE PUSH1 0x20 PUSH1 0x0 KECCAK256 SWAP1 JUMPDEST DUP2 SLOAD DUP2 MSTORE SWAP1 PUSH1 0x1 ADD SWAP1 PUSH1 0x20 ADD DUP1 DUP4 GT PUSH2 0x11D2 JUMPI DUP3 SWAP1 SUB PUSH1 0x1F AND DUP3 ADD SWAP2 JUMPDEST POP POP POP POP POP DUP8 PUSH2 0x2BAB JUMP JUMPDEST DUP1 ISZERO PUSH2 0x12B9 JUMPI POP PUSH2 0x12B8 PUSH1 0x5 DUP3 DUP2 SLOAD DUP2 LT PUSH2 0x1218 JUMPI PUSH2 0x1217 PUSH2 0x3FA5 JUMP JUMPDEST JUMPDEST SWAP1 PUSH1 0x0 MSTORE PUSH1 0x20 PUSH1 0x0 KECCAK256 SWAP1 PUSH1 0x7 MUL ADD PUSH1 0x0 ADD DUP1 SLOAD PUSH2 0x1234 SWAP1 PUSH2 0x3E6C JUMP JUMPDEST DUP1 PUSH1 0x1F ADD PUSH1 0x20 DUP1 SWAP2 DIV MUL PUSH1 0x20 ADD PUSH1 0x40 MLOAD SWAP1 DUP2 ADD PUSH1 0x40 MSTORE DUP1 SWAP3 SWAP2 SWAP1 DUP2 DUP2 MSTORE PUSH1 0x20 ADD DUP3 DUP1 SLOAD PUSH2 0x1260 SWAP1 PUSH2 0x3E6C JUMP JUMPDEST DUP1 ISZERO PUSH2 0x12AD JUMPI DUP1 PUSH1 0x1F LT PUSH2 0x1282 JUMPI PUSH2 0x100 DUP1 DUP4 SLOAD DIV MUL DUP4 MSTORE SWAP2 PUSH1 0x20 ADD SWAP2 PUSH2 0x12AD JUMP JUMPDEST DUP3 ADD SWAP2 SWAP1 PUSH1 0x0 MSTORE PUSH1 0x20 PUSH1 0x0 KECCAK256 SWAP1 JUMPDEST DUP2 SLOAD DUP2 MSTORE SWAP1 PUSH1 0x1 ADD SWAP1 PUSH1 0x20 ADD DUP1 DUP4 GT PUSH2 0x1290 JUMPI DUP3 SWAP1 SUB PUSH1 0x1F AND DUP3 ADD SWAP2 JUMPDEST POP POP POP POP POP DUP7 PUSH2 0x2BAB JUMP JUMPDEST JUMPDEST ISZERO PUSH2 0x1506 JUMPI PUSH1 0x5 DUP2 DUP2 SLOAD DUP2 LT PUSH2 0x12D2 JUMPI PUSH2 0x12D1 PUSH2 0x3FA5 JUMP JUMPDEST JUMPDEST SWAP1 PUSH1 0x0 MSTORE PUSH1 0x20 PUSH1 0x0 KECCAK256 SWAP1 PUSH1 0x7 MUL ADD PUSH1 0x40 MLOAD DUP1 PUSH1 0xE0 ADD PUSH1 0x40 MSTORE SWAP1 DUP2 PUSH1 0x0 DUP3 ADD DUP1 SLOAD PUSH2 0x12FB SWAP1 PUSH2 0x3E6C JUMP JUMPDEST DUP1 PUSH1 0x1F ADD PUSH1 0x20 DUP1 SWAP2 DIV MUL PUSH1 0x20 ADD PUSH1 0x40 MLOAD SWAP1 DUP2 ADD PUSH1 0x40 MSTORE DUP1 SWAP3 SWAP2 SWAP1 DUP2 DUP2 MSTORE PUSH1 0x20 ADD DUP3 DUP1 SLOAD PUSH2 0x1327 SWAP1 PUSH2 0x3E6C JUMP JUMPDEST DUP1 ISZERO PUSH2 0x1374 JUMPI DUP1 PUSH1 0x1F LT PUSH2 0x1349 JUMPI PUSH2 0x100 DUP1 DUP4 SLOAD DIV MUL DUP4 MSTORE SWAP2 PUSH1 0x20 ADD SWAP2 PUSH2 0x1374 JUMP JUMPDEST DUP3 ADD SWAP2 SWAP1 PUSH1 0x0 MSTORE PUSH1 0x20 PUSH1 0x0 KECCAK256 SWAP1 JUMPDEST DUP2 SLOAD DUP2 MSTORE SWAP1 PUSH1 0x1 ADD SWAP1 PUSH1 0x20 ADD DUP1 DUP4 GT PUSH2 0x1357 JUMPI DUP3 SWAP1 SUB PUSH1 0x1F AND DUP3 ADD SWAP2 JUMPDEST POP POP POP POP POP DUP2 MSTORE PUSH1 0x20 ADD PUSH1 0x1 DUP3 ADD DUP1 SLOAD PUSH2 0x138D SWAP1 PUSH2 0x3E6C JUMP JUMPDEST DUP1 PUSH1 0x1F ADD PUSH1 0x20 DUP1 SWAP2 DIV MUL PUSH1 0x20 ADD PUSH1 0x40 MLOAD SWAP1 DUP2 ADD PUSH1 0x40 MSTORE DUP1 SWAP3 SWAP2 SWAP1 DUP2 DUP2 MSTORE PUSH1 0x20 ADD DUP3 DUP1 SLOAD PUSH2 0x13B9 SWAP1 PUSH2 0x3E6C JUMP JUMPDEST DUP1 ISZERO PUSH2 0x1406 JUMPI DUP1 PUSH1 0x1F LT PUSH2 0x13DB JUMPI PUSH2 0x100 DUP1 DUP4 SLOAD DIV MUL DUP4 MSTORE SWAP2 PUSH1 0x20 ADD SWAP2 PUSH2 0x1406 JUMP JUMPDEST DUP3 ADD SWAP2 SWAP1 PUSH1 0x0 MSTORE PUSH1 0x20 PUSH1 0x0 KECCAK256 SWAP1 JUMPDEST DUP2 SLOAD DUP2 MSTORE SWAP1 PUSH1 0x1 ADD SWAP1 PUSH1 0x20 ADD DUP1 DUP4 GT PUSH2 0x13E9 JUMPI DUP3 SWAP1 SUB PUSH1 0x1F AND DUP3 ADD SWAP2 JUMPDEST POP POP POP POP POP DUP2 MSTORE PUSH1 0x20 ADD PUSH1 0x2 DUP3 ADD SLOAD DUP2 MSTORE PUSH1 0x20 ADD PUSH1 0x3 DUP3 ADD PUSH1 0x0 SWAP1 SLOAD SWAP1 PUSH2 0x100 EXP SWAP1 DIV PUSH20 0xFFFFFFFFFFFFFFFFFFFFFFFFFFFFFFFFFFFFFFFF AND PUSH20 0xFFFFFFFFFFFFFFFFFFFFFFFFFFFFFFFFFFFFFFFF AND PUSH20 0xFFFFFFFFFFFFFFFFFFFFFFFFFFFFFFFFFFFFFFFF AND DUP2 MSTORE PUSH1 0x20 ADD PUSH1 0x4 DUP3 ADD PUSH1 0x0 SWAP1 SLOAD SWAP1 PUSH2 0x100 EXP SWAP1 DIV PUSH20 0xFFFFFFFFFFFFFFFFFFFFFFFFFFFFFFFFFFFFFFFF AND PUSH20 0xFFFFFFFFFFFFFFFFFFFFFFFFFFFFFFFFFFFFFFFF AND PUSH20 0xFFFFFFFFFFFFFFFFFFFFFFFFFFFFFFFFFFFFFFFF AND DUP2 MSTORE PUSH1 0x20 ADD PUSH1 0x5 DUP3 ADD SLOAD DUP2 MSTORE PUSH1 0x20 ADD PUSH1 0x6 DUP3 ADD SLOAD DUP2 MSTORE POP POP DUP3 DUP5 DUP2 MLOAD DUP2 LT PUSH2 0x14EC JUMPI PUSH2 0x14EB PUSH2 0x3FA5 JUMP JUMPDEST JUMPDEST PUSH1 0x20 MUL PUSH1 0x20 ADD ADD DUP2 SWAP1 MSTORE POP DUP3 DUP1 PUSH2 0x1502 SWAP1 PUSH2 0x3ECF JUMP JUMPDEST SWAP4 POP POP JUMPDEST DUP1 DUP1 PUSH2 0x1511 SWAP1 PUSH2 0x3ECF JUMP JUMPDEST SWAP2 POP POP PUSH2 0x1136 JUMP JUMPDEST POP DUP2 PUSH8 0xFFFFFFFFFFFFFFFF DUP2 GT ISZERO PUSH2 0x1534 JUMPI PUSH2 0x1533 PUSH2 0x3FD4 JUMP JUMPDEST JUMPDEST PUSH1 0x40 MLOAD SWAP1 DUP1 DUP3 MSTORE DUP1 PUSH1 0x20 MUL PUSH1 0x20 ADD DUP3 ADD PUSH1 0x40 MSTORE DUP1 ISZERO PUSH2 0x156D JUMPI DUP2 PUSH1 0x20 ADD JUMPDEST PUSH2 0x155A PUSH2 0x3074 JUMP JUMPDEST DUP2 MSTORE PUSH1 0x20 ADD SWAP1 PUSH1 0x1 SWAP1 SUB SWAP1 DUP2 PUSH2 0x1552 JUMPI SWAP1 POP JUMPDEST POP SWAP3 POP PUSH1 0x0 DUP3 GT ISZERO PUSH2 0x15D2 JUMPI PUSH1 0x0 JUMPDEST DUP3 DUP2 LT ISZERO PUSH2 0x15D0 JUMPI DUP2 DUP2 DUP2 MLOAD DUP2 LT PUSH2 0x1597 JUMPI PUSH2 0x1596 PUSH2 0x3FA5 JUMP JUMPDEST JUMPDEST PUSH1 0x20 MUL PUSH1 0x20 ADD ADD MLOAD DUP5 DUP3 DUP2 MLOAD DUP2 LT PUSH2 0x15B2 JUMPI PUSH2 0x15B1 PUSH2 0x3FA5 JUMP JUMPDEST JUMPDEST PUSH1 0x20 MUL PUSH1 0x20 ADD ADD DUP2 SWAP1 MSTORE POP DUP1 DUP1 PUSH2 0x15C8 SWAP1 PUSH2 0x3ECF JUMP JUMPDEST SWAP2 POP POP PUSH2 0x157C JUMP JUMPDEST POP JUMPDEST POP POP SWAP3 SWAP2 POP POP JUMP JUMPDEST PUSH1 0x60 PUSH1 0x0 DUP1 PUSH1 0x5 DUP1 SLOAD SWAP1 POP PUSH8 0xFFFFFFFFFFFFFFFF DUP2 GT ISZERO PUSH2 0x15FE JUMPI PUSH2 0x15FD PUSH2 0x3FD4 JUMP JUMPDEST JUMPDEST PUSH1 0x40 MLOAD SWAP1 DUP1 DUP3 MSTORE DUP1 PUSH1 0x20 MUL PUSH1 0x20 ADD DUP3 ADD PUSH1 0x40 MSTORE DUP1 ISZERO PUSH2 0x1637 JUMPI DUP2 PUSH1 0x20 ADD JUMPDEST PUSH2 0x1624 PUSH2 0x3074 JUMP JUMPDEST DUP2 MSTORE PUSH1 0x20 ADD SWAP1 PUSH1 0x1 SWAP1 SUB SWAP1 DUP2 PUSH2 0x161C JUMPI SWAP1 POP JUMPDEST POP SWAP1 POP PUSH1 0x0 JUMPDEST PUSH1 0x5 DUP1 SLOAD SWAP1 POP DUP2 LT ISZERO PUSH2 0x1961 JUMPI PUSH2 0x1701 PUSH1 0x5 DUP3 DUP2 SLOAD DUP2 LT PUSH2 0x1661 JUMPI PUSH2 0x1660 PUSH2 0x3FA5 JUMP JUMPDEST JUMPDEST SWAP1 PUSH1 0x0 MSTORE PUSH1 0x20 PUSH1 0x0 KECCAK256 SWAP1 PUSH1 0x7 MUL ADD PUSH1 0x0 ADD DUP1 SLOAD PUSH2 0x167D SWAP1 PUSH2 0x3E6C JUMP JUMPDEST DUP1 PUSH1 0x1F ADD PUSH1 0x20 DUP1 SWAP2 DIV MUL PUSH1 0x20 ADD PUSH1 0x40 MLOAD SWAP1 DUP2 ADD PUSH1 0x40 MSTORE DUP1 SWAP3 SWAP2 SWAP1 DUP2 DUP2 MSTORE PUSH1 0x20 ADD DUP3 DUP1 SLOAD PUSH2 0x16A9 SWAP1 PUSH2 0x3E6C JUMP JUMPDEST DUP1 ISZERO PUSH2 0x16F6 JUMPI DUP1 PUSH1 0x1F LT PUSH2 0x16CB JUMPI PUSH2 0x100 DUP1 DUP4 SLOAD DIV MUL DUP4 MSTORE SWAP2 PUSH1 0x20 ADD SWAP2 PUSH2 0x16F6 JUMP JUMPDEST DUP3 ADD SWAP2 SWAP1 PUSH1 0x0 MSTORE PUSH1 0x20 PUSH1 0x0 KECCAK256 SWAP1 JUMPDEST DUP2 SLOAD DUP2 MSTORE SWAP1 PUSH1 0x1 ADD SWAP1 PUSH1 0x20 ADD DUP1 DUP4 GT PUSH2 0x16D9 JUMPI DUP3 SWAP1 SUB PUSH1 0x1F AND DUP3 ADD SWAP2 JUMPDEST POP POP POP POP POP DUP7 PUSH2 0x2BAB JUMP JUMPDEST ISZERO PUSH2 0x194E JUMPI PUSH1 0x5 DUP2 DUP2 SLOAD DUP2 LT PUSH2 0x171A JUMPI PUSH2 0x1719 PUSH2 0x3FA5 JUMP JUMPDEST JUMPDEST SWAP1 PUSH1 0x0 MSTORE PUSH1 0x20 PUSH1 0x0 KECCAK256 SWAP1 PUSH1 0x7 MUL ADD PUSH1 0x40 MLOAD DUP1 PUSH1 0xE0 ADD PUSH1 0x40 MSTORE SWAP1 DUP2 PUSH1 0x0 DUP3 ADD DUP1 SLOAD PUSH2 0x1743 SWAP1 PUSH2 0x3E6C JUMP JUMPDEST DUP1 PUSH1 0x1F ADD PUSH1 0x20 DUP1 SWAP2 DIV MUL PUSH1 0x20 ADD PUSH1 0x40 MLOAD SWAP1 DUP2 ADD PUSH1 0x40 MSTORE DUP1 SWAP3 SWAP2 SWAP1 DUP2 DUP2 MSTORE PUSH1 0x20 ADD DUP3 DUP1 SLOAD PUSH2 0x176F SWAP1 PUSH2 0x3E6C JUMP JUMPDEST DUP1 ISZERO PUSH2 0x17BC JUMPI DUP1 PUSH1 0x1F LT PUSH2 0x1791 JUMPI PUSH2 0x100 DUP1 DUP4 SLOAD DIV MUL DUP4 MSTORE SWAP2 PUSH1 0x20 ADD SWAP2 PUSH2 0x17BC JUMP JUMPDEST DUP3 ADD SWAP2 SWAP1 PUSH1 0x0 MSTORE PUSH1 0x20 PUSH1 0x0 KECCAK256 SWAP1 JUMPDEST DUP2 SLOAD DUP2 MSTORE SWAP1 PUSH1 0x1 ADD SWAP1 PUSH1 0x20 ADD DUP1 DUP4 GT PUSH2 0x179F JUMPI DUP3 SWAP1 SUB PUSH1 0x1F AND DUP3 ADD SWAP2 JUMPDEST POP POP POP POP POP DUP2 MSTORE PUSH1 0x20 ADD PUSH1 0x1 DUP3 ADD DUP1 SLOAD PUSH2 0x17D5 SWAP1 PUSH2 0x3E6C JUMP JUMPDEST DUP1 PUSH1 0x1F ADD PUSH1 0x20 DUP1 SWAP2 DIV MUL PUSH1 0x20 ADD PUSH1 0x40 MLOAD SWAP1 DUP2 ADD PUSH1 0x40 MSTORE DUP1 SWAP3 SWAP2 SWAP1 DUP2 DUP2 MSTORE PUSH1 0x20 ADD DUP3 DUP1 SLOAD PUSH2 0x1801 SWAP1 PUSH2 0x3E6C JUMP JUMPDEST DUP1 ISZERO PUSH2 0x184E JUMPI DUP1 PUSH1 0x1F LT PUSH2 0x1823 JUMPI PUSH2 0x100 DUP1 DUP4 SLOAD DIV MUL DUP4 MSTORE SWAP2 PUSH1 0x20 ADD SWAP2 PUSH2 0x184E JUMP JUMPDEST DUP3 ADD SWAP2 SWAP1 PUSH1 0x0 MSTORE PUSH1 0x20 PUSH1 0x0 KECCAK256 SWAP1 JUMPDEST DUP2 SLOAD DUP2 MSTORE SWAP1 PUSH1 0x1 ADD SWAP1 PUSH1 0x20 ADD DUP1 DUP4 GT PUSH2 0x1831 JUMPI DUP3 SWAP1 SUB PUSH1 0x1F AND DUP3 ADD SWAP2 JUMPDEST POP POP POP POP POP DUP2 MSTORE PUSH1 0x20 ADD PUSH1 0x2 DUP3 ADD SLOAD DUP2 MSTORE PUSH1 0x20 ADD PUSH1 0x3 DUP3 ADD PUSH1 0x0 SWAP1 SLOAD SWAP1 PUSH2 0x100 EXP SWAP1 DIV PUSH20 0xFFFFFFFFFFFFFFFFFFFFFFFFFFFFFFFFFFFFFFFF AND PUSH20 0xFFFFFFFFFFFFFFFFFFFFFFFFFFFFFFFFFFFFFFFF AND PUSH20 0xFFFFFFFFFFFFFFFFFFFFFFFFFFFFFFFFFFFFFFFF AND DUP2 MSTORE PUSH1 0x20 ADD PUSH1 0x4 DUP3 ADD PUSH1 0x0 SWAP1 SLOAD SWAP1 PUSH2 0x100 EXP SWAP1 DIV PUSH20 0xFFFFFFFFFFFFFFFFFFFFFFFFFFFFFFFFFFFFFFFF AND PUSH20 0xFFFFFFFFFFFFFFFFFFFFFFFFFFFFFFFFFFFFFFFF AND PUSH20 0xFFFFFFFFFFFFFFFFFFFFFFFFFFFFFFFFFFFFFFFF AND DUP2 MSTORE PUSH1 0x20 ADD PUSH1 0x5 DUP3 ADD SLOAD DUP2 MSTORE PUSH1 0x20 ADD PUSH1 0x6 DUP3 ADD SLOAD DUP2 MSTORE POP POP DUP3 DUP5 DUP2 MLOAD DUP2 LT PUSH2 0x1934 JUMPI PUSH2 0x1933 PUSH2 0x3FA5 JUMP JUMPDEST JUMPDEST PUSH1 0x20 MUL PUSH1 0x20 ADD ADD DUP2 SWAP1 MSTORE POP DUP3 DUP1 PUSH2 0x194A SWAP1 PUSH2 0x3ECF JUMP JUMPDEST SWAP4 POP POP JUMPDEST DUP1 DUP1 PUSH2 0x1959 SWAP1 PUSH2 0x3ECF JUMP JUMPDEST SWAP2 POP POP PUSH2 0x163D JUMP JUMPDEST POP DUP2 PUSH8 0xFFFFFFFFFFFFFFFF DUP2 GT ISZERO PUSH2 0x197C JUMPI PUSH2 0x197B PUSH2 0x3FD4 JUMP JUMPDEST JUMPDEST PUSH1 0x40 MLOAD SWAP1 DUP1 DUP3 MSTORE DUP1 PUSH1 0x20 MUL PUSH1 0x20 ADD DUP3 ADD PUSH1 0x40 MSTORE DUP1 ISZERO PUSH2 0x19B5 JUMPI DUP2 PUSH1 0x20 ADD JUMPDEST PUSH2 0x19A2 PUSH2 0x3074 JUMP JUMPDEST DUP2 MSTORE PUSH1 0x20 ADD SWAP1 PUSH1 0x1 SWAP1 SUB SWAP1 DUP2 PUSH2 0x199A JUMPI SWAP1 POP JUMPDEST POP SWAP3 POP PUSH1 0x0 DUP3 GT ISZERO PUSH2 0x1A1A JUMPI PUSH1 0x0 JUMPDEST DUP3 DUP2 LT ISZERO PUSH2 0x1A18 JUMPI DUP2 DUP2 DUP2 MLOAD DUP2 LT PUSH2 0x19DF JUMPI PUSH2 0x19DE PUSH2 0x3FA5 JUMP JUMPDEST JUMPDEST PUSH1 0x20 MUL PUSH1 0x20 ADD ADD MLOAD DUP5 DUP3 DUP2 MLOAD DUP2 LT PUSH2 0x19FA JUMPI PUSH2 0x19F9 PUSH2 0x3FA5 JUMP JUMPDEST JUMPDEST PUSH1 0x20 MUL PUSH1 0x20 ADD ADD DUP2 SWAP1 MSTORE POP DUP1 DUP1 PUSH2 0x1A10 SWAP1 PUSH2 0x3ECF JUMP JUMPDEST SWAP2 POP POP PUSH2 0x19C4 JUMP JUMPDEST POP JUMPDEST POP POP SWAP2 SWAP1 POP JUMP JUMPDEST PUSH1 0x0 DUP1 PUSH1 0x0 SWAP1 SLOAD SWAP1 PUSH2 0x100 EXP SWAP1 DIV PUSH20 0xFFFFFFFFFFFFFFFFFFFFFFFFFFFFFFFFFFFFFFFF AND PUSH20 0xFFFFFFFFFFFFFFFFFFFFFFFFFFFFFFFFFFFFFFFF AND CALLER PUSH20 0xFFFFFFFFFFFFFFFFFFFFFFFFFFFFFFFFFFFFFFFF AND EQ ISZERO PUSH2 0x1A81 JUMPI PUSH1 0x1 SWAP1 POP PUSH2 0x1B75 JUMP JUMPDEST PUSH1 0x0 PUSH20 0xFFFFFFFFFFFFFFFFFFFFFFFFFFFFFFFFFFFFFFFF AND PUSH1 0x1 PUSH1 0x0 CALLER PUSH20 0xFFFFFFFFFFFFFFFFFFFFFFFFFFFFFFFFFFFFFFFF AND PUSH20 0xFFFFFFFFFFFFFFFFFFFFFFFFFFFFFFFFFFFFFFFF AND DUP2 MSTORE PUSH1 0x20 ADD SWAP1 DUP2 MSTORE PUSH1 0x20 ADD PUSH1 0x0 KECCAK256 PUSH1 0x5 ADD PUSH1 0x0 SWAP1 SLOAD SWAP1 PUSH2 0x100 EXP SWAP1 DIV PUSH20 0xFFFFFFFFFFFFFFFFFFFFFFFFFFFFFFFFFFFFFFFF AND PUSH20 0xFFFFFFFFFFFFFFFFFFFFFFFFFFFFFFFFFFFFFFFF AND EQ ISZERO PUSH2 0x1B21 JUMPI PUSH1 0x0 SWAP1 POP PUSH2 0x1B74 JUMP JUMPDEST PUSH1 0x1 PUSH1 0x0 CALLER PUSH20 0xFFFFFFFFFFFFFFFFFFFFFFFFFFFFFFFFFFFFFFFF AND PUSH20 0xFFFFFFFFFFFFFFFFFFFFFFFFFFFFFFFFFFFFFFFF AND DUP2 MSTORE PUSH1 0x20 ADD SWAP1 DUP2 MSTORE PUSH1 0x20 ADD PUSH1 0x0 KECCAK256 PUSH1 0x2 ADD PUSH1 0x0 SWAP1 SLOAD SWAP1 PUSH2 0x100 EXP SWAP1 DIV PUSH1 0xFF AND SWAP1 POP JUMPDEST JUMPDEST SWAP1 JUMP JUMPDEST PUSH1 0x0 DUP1 PUSH2 0x1B86 DUP6 DUP6 DUP6 PUSH2 0xAD4 JUMP JUMPDEST SWAP1 POP PUSH1 0x0 DUP1 PUSH1 0x0 JUMPDEST DUP4 MLOAD DUP2 LT ISZERO PUSH2 0x1C4F JUMPI DUP6 PUSH20 0xFFFFFFFFFFFFFFFFFFFFFFFFFFFFFFFFFFFFFFFF AND DUP5 DUP3 DUP2 MLOAD DUP2 LT PUSH2 0x1BC1 JUMPI PUSH2 0x1BC0 PUSH2 0x3FA5 JUMP JUMPDEST JUMPDEST PUSH1 0x20 MUL PUSH1 0x20 ADD ADD MLOAD PUSH1 0x80 ADD MLOAD PUSH20 0xFFFFFFFFFFFFFFFFFFFFFFFFFFFFFFFFFFFFFFFF AND EQ ISZERO PUSH2 0x1C0F JUMPI DUP4 DUP2 DUP2 MLOAD DUP2 LT PUSH2 0x1BFC JUMPI PUSH2 0x1BFB PUSH2 0x3FA5 JUMP JUMPDEST JUMPDEST PUSH1 0x20 MUL PUSH1 0x20 ADD ADD MLOAD PUSH1 0xA0 ADD MLOAD SWAP3 POP PUSH2 0x1C3C JUMP JUMPDEST DUP4 DUP2 DUP2 MLOAD DUP2 LT PUSH2 0x1C22 JUMPI PUSH2 0x1C21 PUSH2 0x3FA5 JUMP JUMPDEST JUMPDEST PUSH1 0x20 MUL PUSH1 0x20 ADD ADD MLOAD PUSH1 0xA0 ADD MLOAD DUP3 PUSH2 0x1C39 SWAP2 SWAP1 PUSH2 0x3D0E JUMP JUMPDEST SWAP2 POP JUMPDEST DUP1 DUP1 PUSH2 0x1C47 SWAP1 PUSH2 0x3ECF JUMP JUMPDEST SWAP2 POP POP PUSH2 0x1B8E JUMP JUMPDEST POP DUP1 DUP3 PUSH2 0x1C5C SWAP2 SWAP1 PUSH2 0x3D64 JUMP JUMPDEST SWAP4 POP POP POP POP SWAP4 SWAP3 POP POP POP JUMP JUMPDEST PUSH1 0x60 PUSH1 0x0 PUSH1 0x2 DUP1 SLOAD SWAP1 POP SWAP1 POP PUSH1 0x0 DUP2 PUSH8 0xFFFFFFFFFFFFFFFF DUP2 GT ISZERO PUSH2 0x1C90 JUMPI PUSH2 0x1C8F PUSH2 0x3FD4 JUMP JUMPDEST JUMPDEST PUSH1 0x40 MLOAD SWAP1 DUP1 DUP3 MSTORE DUP1 PUSH1 0x20 MUL PUSH1 0x20 ADD DUP3 ADD PUSH1 0x40 MSTORE DUP1 ISZERO PUSH2 0x1CC9 JUMPI DUP2 PUSH1 0x20 ADD JUMPDEST PUSH2 0x1CB6 PUSH2 0x2FFD JUMP JUMPDEST DUP2 MSTORE PUSH1 0x20 ADD SWAP1 PUSH1 0x1 SWAP1 SUB SWAP1 DUP2 PUSH2 0x1CAE JUMPI SWAP1 POP JUMPDEST POP SWAP1 POP PUSH1 0x0 DUP1 PUSH1 0x0 SWAP1 POP JUMPDEST DUP4 DUP2 LT ISZERO PUSH2 0x2172 JUMPI DUP6 PUSH1 0x2 DUP2 GT ISZERO PUSH2 0x1CEF JUMPI PUSH2 0x1CEE PUSH2 0x3F47 JUMP JUMPDEST JUMPDEST PUSH1 0x1 PUSH1 0x0 PUSH1 0x2 DUP5 DUP2 SLOAD DUP2 LT PUSH2 0x1D07 JUMPI PUSH2 0x1D06 PUSH2 0x3FA5 JUMP JUMPDEST JUMPDEST SWAP1 PUSH1 0x0 MSTORE PUSH1 0x20 PUSH1 0x0 KECCAK256 ADD PUSH1 0x0 SWAP1 SLOAD SWAP1 PUSH2 0x100 EXP SWAP1 DIV PUSH20 0xFFFFFFFFFFFFFFFFFFFFFFFFFFFFFFFFFFFFFFFF AND PUSH20 0xFFFFFFFFFFFFFFFFFFFFFFFFFFFFFFFFFFFFFFFF AND PUSH20 0xFFFFFFFFFFFFFFFFFFFFFFFFFFFFFFFFFFFFFFFF AND DUP2 MSTORE PUSH1 0x20 ADD SWAP1 DUP2 MSTORE PUSH1 0x20 ADD PUSH1 0x0 KECCAK256 PUSH1 0x2 ADD PUSH1 0x1 SWAP1 SLOAD SWAP1 PUSH2 0x100 EXP SWAP1 DIV PUSH1 0xFF AND PUSH1 0x2 DUP2 GT ISZERO PUSH2 0x1D8F JUMPI PUSH2 0x1D8E PUSH2 0x3F47 JUMP JUMPDEST JUMPDEST EQ ISZERO PUSH2 0x215F JUMPI PUSH1 0x1 PUSH1 0x0 PUSH1 0x2 DUP4 DUP2 SLOAD DUP2 LT PUSH2 0x1DAD JUMPI PUSH2 0x1DAC PUSH2 0x3FA5 JUMP JUMPDEST JUMPDEST SWAP1 PUSH1 0x0 MSTORE PUSH1 0x20 PUSH1 0x0 KECCAK256 ADD PUSH1 0x0 SWAP1 SLOAD SWAP1 PUSH2 0x100 EXP SWAP1 DIV PUSH20 0xFFFFFFFFFFFFFFFFFFFFFFFFFFFFFFFFFFFFFFFF AND PUSH20 0xFFFFFFFFFFFFFFFFFFFFFFFFFFFFFFFFFFFFFFFF AND PUSH20 0xFFFFFFFFFFFFFFFFFFFFFFFFFFFFFFFFFFFFFFFF AND DUP2 MSTORE PUSH1 0x20 ADD SWAP1 DUP2 MSTORE PUSH1 0x20 ADD PUSH1 0x0 KECCAK256 PUSH1 0x40 MLOAD DUP1 PUSH1 0xE0 ADD PUSH1 0x40 MSTORE SWAP1 DUP2 PUSH1 0x0 DUP3 ADD DUP1 SLOAD PUSH2 0x1E2D SWAP1 PUSH2 0x3E6C JUMP JUMPDEST DUP1 PUSH1 0x1F ADD PUSH1 0x20 DUP1 SWAP2 DIV MUL PUSH1 0x20 ADD PUSH1 0x40 MLOAD SWAP1 DUP2 ADD PUSH1 0x40 MSTORE DUP1 SWAP3 SWAP2 SWAP1 DUP2 DUP2 MSTORE PUSH1 0x20 ADD DUP3 DUP1 SLOAD PUSH2 0x1E59 SWAP1 PUSH2 0x3E6C JUMP JUMPDEST DUP1 ISZERO PUSH2 0x1EA6 JUMPI DUP1 PUSH1 0x1F LT PUSH2 0x1E7B JUMPI PUSH2 0x100 DUP1 DUP4 SLOAD DIV MUL DUP4 MSTORE SWAP2 PUSH1 0x20 ADD SWAP2 PUSH2 0x1EA6 JUMP JUMPDEST DUP3 ADD SWAP2 SWAP1 PUSH1 0x0 MSTORE PUSH1 0x20 PUSH1 0x0 KECCAK256 SWAP1 JUMPDEST DUP2 SLOAD DUP2 MSTORE SWAP1 PUSH1 0x1 ADD SWAP1 PUSH1 0x20 ADD DUP1 DUP4 GT PUSH2 0x1E89 JUMPI DUP3 SWAP1 SUB PUSH1 0x1F AND DUP3 ADD SWAP2 JUMPDEST POP POP POP POP POP DUP2 MSTORE PUSH1 0x20 ADD PUSH1 0x1 DUP3 ADD DUP1 SLOAD PUSH2 0x1EBF SWAP1 PUSH2 0x3E6C JUMP JUMPDEST DUP1 PUSH1 0x1F ADD PUSH1 0x20 DUP1 SWAP2 DIV MUL PUSH1 0x20 ADD PUSH1 0x40 MLOAD SWAP1 DUP2 ADD PUSH1 0x40 MSTORE DUP1 SWAP3 SWAP2 SWAP1 DUP2 DUP2 MSTORE PUSH1 0x20 ADD DUP3 DUP1 SLOAD PUSH2 0x1EEB SWAP1 PUSH2 0x3E6C JUMP JUMPDEST DUP1 ISZERO PUSH2 0x1F38 JUMPI DUP1 PUSH1 0x1F LT PUSH2 0x1F0D JUMPI PUSH2 0x100 DUP1 DUP4 SLOAD DIV MUL DUP4 MSTORE SWAP2 PUSH1 0x20 ADD SWAP2 PUSH2 0x1F38 JUMP JUMPDEST DUP3 ADD SWAP2 SWAP1 PUSH1 0x0 MSTORE PUSH1 0x20 PUSH1 0x0 KECCAK256 SWAP1 JUMPDEST DUP2 SLOAD DUP2 MSTORE SWAP1 PUSH1 0x1 ADD SWAP1 PUSH1 0x20 ADD DUP1 DUP4 GT PUSH2 0x1F1B JUMPI DUP3 SWAP1 SUB PUSH1 0x1F AND DUP3 ADD SWAP2 JUMPDEST POP POP POP POP POP DUP2 MSTORE PUSH1 0x20 ADD PUSH1 0x2 DUP3 ADD PUSH1 0x0 SWAP1 SLOAD SWAP1 PUSH2 0x100 EXP SWAP1 DIV PUSH1 0xFF AND PUSH1 0x8 DUP2 GT ISZERO PUSH2 0x1F66 JUMPI PUSH2 0x1F65 PUSH2 0x3F47 JUMP JUMPDEST JUMPDEST PUSH1 0x8 DUP2 GT ISZERO PUSH2 0x1F78 JUMPI PUSH2 0x1F77 PUSH2 0x3F47 JUMP JUMPDEST JUMPDEST DUP2 MSTORE PUSH1 0x20 ADD PUSH1 0x2 DUP3 ADD PUSH1 0x1 SWAP1 SLOAD SWAP1 PUSH2 0x100 EXP SWAP1 DIV PUSH1 0xFF AND PUSH1 0x2 DUP2 GT ISZERO PUSH2 0x1FA1 JUMPI PUSH2 0x1FA0 PUSH2 0x3F47 JUMP JUMPDEST JUMPDEST PUSH1 0x2 DUP2 GT ISZERO PUSH2 0x1FB3 JUMPI PUSH2 0x1FB2 PUSH2 0x3F47 JUMP JUMPDEST JUMPDEST DUP2 MSTORE PUSH1 0x20 ADD PUSH1 0x3 DUP3 ADD DUP1 SLOAD PUSH2 0x1FC7 SWAP1 PUSH2 0x3E6C JUMP JUMPDEST DUP1 PUSH1 0x1F ADD PUSH1 0x20 DUP1 SWAP2 DIV MUL PUSH1 0x20 ADD PUSH1 0x40 MLOAD SWAP1 DUP2 ADD PUSH1 0x40 MSTORE DUP1 SWAP3 SWAP2 SWAP1 DUP2 DUP2 MSTORE PUSH1 0x20 ADD DUP3 DUP1 SLOAD PUSH2 0x1FF3 SWAP1 PUSH2 0x3E6C JUMP JUMPDEST DUP1 ISZERO PUSH2 0x2040 JUMPI DUP1 PUSH1 0x1F LT PUSH2 0x2015 JUMPI PUSH2 0x100 DUP1 DUP4 SLOAD DIV MUL DUP4 MSTORE SWAP2 PUSH1 0x20 ADD SWAP2 PUSH2 0x2040 JUMP JUMPDEST DUP3 ADD SWAP2 SWAP1 PUSH1 0x0 MSTORE PUSH1 0x20 PUSH1 0x0 KECCAK256 SWAP1 JUMPDEST DUP2 SLOAD DUP2 MSTORE SWAP1 PUSH1 0x1 ADD SWAP1 PUSH1 0x20 ADD DUP1 DUP4 GT PUSH2 0x2023 JUMPI DUP3 SWAP1 SUB PUSH1 0x1F AND DUP3 ADD SWAP2 JUMPDEST POP POP POP POP POP DUP2 MSTORE PUSH1 0x20 ADD PUSH1 0x4 DUP3 ADD DUP1 SLOAD PUSH2 0x2059 SWAP1 PUSH2 0x3E6C JUMP JUMPDEST DUP1 PUSH1 0x1F ADD PUSH1 0x20 DUP1 SWAP2 DIV MUL PUSH1 0x20 ADD PUSH1 0x40 MLOAD SWAP1 DUP2 ADD PUSH1 0x40 MSTORE DUP1 SWAP3 SWAP2 SWAP1 DUP2 DUP2 MSTORE PUSH1 0x20 ADD DUP3 DUP1 SLOAD PUSH2 0x2085 SWAP1 PUSH2 0x3E6C JUMP JUMPDEST DUP1 ISZERO PUSH2 0x20D2 JUMPI DUP1 PUSH1 0x1F LT PUSH2 0x20A7 JUMPI PUSH2 0x100 DUP1 DUP4 SLOAD DIV MUL DUP4 MSTORE SWAP2 PUSH1 0x20 ADD SWAP2 PUSH2 0x20D2 JUMP JUMPDEST DUP3 ADD SWAP2 SWAP1 PUSH1 0x0 MSTORE PUSH1 0x20 PUSH1 0x0 KECCAK256 SWAP1 JUMPDEST DUP2 SLOAD DUP2 MSTORE SWAP1 PUSH1 0x1 ADD SWAP1 PUSH1 0x20 ADD DUP1 DUP4 GT PUSH2 0x20B5 JUMPI DUP3 SWAP1 SUB PUSH1 0x1F AND DUP3 ADD SWAP2 JUMPDEST POP POP POP POP POP DUP2 MSTORE PUSH1 0x20 ADD PUSH1 0x5 DUP3 ADD PUSH1 0x0 SWAP1 SLOAD SWAP1 PUSH2 0x100 EXP SWAP1 DIV PUSH20 0xFFFFFFFFFFFFFFFFFFFFFFFFFFFFFFFFFFFFFFFF AND PUSH20 0xFFFFFFFFFFFFFFFFFFFFFFFFFFFFFFFFFFFFFFFF AND PUSH20 0xFFFFFFFFFFFFFFFFFFFFFFFFFFFFFFFFFFFFFFFF AND DUP2 MSTORE POP POP DUP4 DUP4 DUP2 MLOAD DUP2 LT PUSH2 0x2144 JUMPI PUSH2 0x2143 PUSH2 0x3FA5 JUMP JUMPDEST JUMPDEST PUSH1 0x20 MUL PUSH1 0x20 ADD ADD DUP2 SWAP1 MSTORE POP PUSH1 0x1 DUP3 PUSH2 0x215C SWAP2 SWAP1 PUSH2 0x3D0E JUMP JUMPDEST SWAP2 POP JUMPDEST DUP1 DUP1 PUSH2 0x216A SWAP1 PUSH2 0x3ECF JUMP JUMPDEST SWAP2 POP POP PUSH2 0x1CD4 JUMP JUMPDEST POP DUP1 PUSH8 0xFFFFFFFFFFFFFFFF DUP2 GT ISZERO PUSH2 0x218D JUMPI PUSH2 0x218C PUSH2 0x3FD4 JUMP JUMPDEST JUMPDEST PUSH1 0x40 MLOAD SWAP1 DUP1 DUP3 MSTORE DUP1 PUSH1 0x20 MUL PUSH1 0x20 ADD DUP3 ADD PUSH1 0x40 MSTORE DUP1 ISZERO PUSH2 0x21C6 JUMPI DUP2 PUSH1 0x20 ADD JUMPDEST PUSH2 0x21B3 PUSH2 0x2FFD JUMP JUMPDEST DUP2 MSTORE PUSH1 0x20 ADD SWAP1 PUSH1 0x1 SWAP1 SUB SWAP1 DUP2 PUSH2 0x21AB JUMPI SWAP1 POP JUMPDEST POP SWAP4 POP PUSH1 0x0 JUMPDEST DUP2 DUP2 LT ISZERO PUSH2 0x2220 JUMPI DUP3 DUP2 DUP2 MLOAD DUP2 LT PUSH2 0x21E7 JUMPI PUSH2 0x21E6 PUSH2 0x3FA5 JUMP JUMPDEST JUMPDEST PUSH1 0x20 MUL PUSH1 0x20 ADD ADD MLOAD DUP6 DUP3 DUP2 MLOAD DUP2 LT PUSH2 0x2202 JUMPI PUSH2 0x2201 PUSH2 0x3FA5 JUMP JUMPDEST JUMPDEST PUSH1 0x20 MUL PUSH1 0x20 ADD ADD DUP2 SWAP1 MSTORE POP DUP1 DUP1 PUSH2 0x2218 SWAP1 PUSH2 0x3ECF JUMP JUMPDEST SWAP2 POP POP PUSH2 0x21CC JUMP JUMPDEST POP POP POP POP SWAP2 SWAP1 POP JUMP JUMPDEST PUSH1 0x60 PUSH1 0x0 DUP1 PUSH1 0x5 DUP1 SLOAD SWAP1 POP PUSH8 0xFFFFFFFFFFFFFFFF DUP2 GT ISZERO PUSH2 0x224D JUMPI PUSH2 0x224C PUSH2 0x3FD4 JUMP JUMPDEST JUMPDEST PUSH1 0x40 MLOAD SWAP1 DUP1 DUP3 MSTORE DUP1 PUSH1 0x20 MUL PUSH1 0x20 ADD DUP3 ADD PUSH1 0x40 MSTORE DUP1 ISZERO PUSH2 0x2286 JUMPI DUP2 PUSH1 0x20 ADD JUMPDEST PUSH2 0x2273 PUSH2 0x3074 JUMP JUMPDEST DUP2 MSTORE PUSH1 0x20 ADD SWAP1 PUSH1 0x1 SWAP1 SUB SWAP1 DUP2 PUSH2 0x226B JUMPI SWAP1 POP JUMPDEST POP SWAP1 POP PUSH1 0x0 JUMPDEST PUSH1 0x5 DUP1 SLOAD SWAP1 POP DUP2 LT ISZERO PUSH2 0x256D JUMPI DUP5 PUSH20 0xFFFFFFFFFFFFFFFFFFFFFFFFFFFFFFFFFFFFFFFF AND PUSH1 0x5 DUP3 DUP2 SLOAD DUP2 LT PUSH2 0x22C4 JUMPI PUSH2 0x22C3 PUSH2 0x3FA5 JUMP JUMPDEST JUMPDEST SWAP1 PUSH1 0x0 MSTORE PUSH1 0x20 PUSH1 0x0 KECCAK256 SWAP1 PUSH1 0x7 MUL ADD PUSH1 0x4 ADD PUSH1 0x0 SWAP1 SLOAD SWAP1 PUSH2 0x100 EXP SWAP1 DIV PUSH20 0xFFFFFFFFFFFFFFFFFFFFFFFFFFFFFFFFFFFFFFFF AND PUSH20 0xFFFFFFFFFFFFFFFFFFFFFFFFFFFFFFFFFFFFFFFF AND EQ ISZERO PUSH2 0x255A JUMPI PUSH1 0x5 DUP2 DUP2 SLOAD DUP2 LT PUSH2 0x2326 JUMPI PUSH2 0x2325 PUSH2 0x3FA5 JUMP JUMPDEST JUMPDEST SWAP1 PUSH1 0x0 MSTORE PUSH1 0x20 PUSH1 0x0 KECCAK256 SWAP1 PUSH1 0x7 MUL ADD PUSH1 0x40 MLOAD DUP1 PUSH1 0xE0 ADD PUSH1 0x40 MSTORE SWAP1 DUP2 PUSH1 0x0 DUP3 ADD DUP1 SLOAD PUSH2 0x234F SWAP1 PUSH2 0x3E6C JUMP JUMPDEST DUP1 PUSH1 0x1F ADD PUSH1 0x20 DUP1 SWAP2 DIV MUL PUSH1 0x20 ADD PUSH1 0x40 MLOAD SWAP1 DUP2 ADD PUSH1 0x40 MSTORE DUP1 SWAP3 SWAP2 SWAP1 DUP2 DUP2 MSTORE PUSH1 0x20 ADD DUP3 DUP1 SLOAD PUSH2 0x237B SWAP1 PUSH2 0x3E6C JUMP JUMPDEST DUP1 ISZERO PUSH2 0x23C8 JUMPI DUP1 PUSH1 0x1F LT PUSH2 0x239D JUMPI PUSH2 0x100 DUP1 DUP4 SLOAD DIV MUL DUP4 MSTORE SWAP2 PUSH1 0x20 ADD SWAP2 PUSH2 0x23C8 JUMP JUMPDEST DUP3 ADD SWAP2 SWAP1 PUSH1 0x0 MSTORE PUSH1 0x20 PUSH1 0x0 KECCAK256 SWAP1 JUMPDEST DUP2 SLOAD DUP2 MSTORE SWAP1 PUSH1 0x1 ADD SWAP1 PUSH1 0x20 ADD DUP1 DUP4 GT PUSH2 0x23AB JUMPI DUP3 SWAP1 SUB PUSH1 0x1F AND DUP3 ADD SWAP2 JUMPDEST POP POP POP POP POP DUP2 MSTORE PUSH1 0x20 ADD PUSH1 0x1 DUP3 ADD DUP1 SLOAD PUSH2 0x23E1 SWAP1 PUSH2 0x3E6C JUMP JUMPDEST DUP1 PUSH1 0x1F ADD PUSH1 0x20 DUP1 SWAP2 DIV MUL PUSH1 0x20 ADD PUSH1 0x40 MLOAD SWAP1 DUP2 ADD PUSH1 0x40 MSTORE DUP1 SWAP3 SWAP2 SWAP1 DUP2 DUP2 MSTORE PUSH1 0x20 ADD DUP3 DUP1 SLOAD PUSH2 0x240D SWAP1 PUSH2 0x3E6C JUMP JUMPDEST DUP1 ISZERO PUSH2 0x245A JUMPI DUP1 PUSH1 0x1F LT PUSH2 0x242F JUMPI PUSH2 0x100 DUP1 DUP4 SLOAD DIV MUL DUP4 MSTORE SWAP2 PUSH1 0x20 ADD SWAP2 PUSH2 0x245A JUMP JUMPDEST DUP3 ADD SWAP2 SWAP1 PUSH1 0x0 MSTORE PUSH1 0x20 PUSH1 0x0 KECCAK256 SWAP1 JUMPDEST DUP2 SLOAD DUP2 MSTORE SWAP1 PUSH1 0x1 ADD SWAP1 PUSH1 0x20 ADD DUP1 DUP4 GT PUSH2 0x243D JUMPI DUP3 SWAP1 SUB PUSH1 0x1F AND DUP3 ADD SWAP2 JUMPDEST POP POP POP POP POP DUP2 MSTORE PUSH1 0x20 ADD PUSH1 0x2 DUP3 ADD SLOAD DUP2 MSTORE PUSH1 0x20 ADD PUSH1 0x3 DUP3 ADD PUSH1 0x0 SWAP1 SLOAD SWAP1 PUSH2 0x100 EXP SWAP1 DIV PUSH20 0xFFFFFFFFFFFFFFFFFFFFFFFFFFFFFFFFFFFFFFFF AND PUSH20 0xFFFFFFFFFFFFFFFFFFFFFFFFFFFFFFFFFFFFFFFF AND PUSH20 0xFFFFFFFFFFFFFFFFFFFFFFFFFFFFFFFFFFFFFFFF AND DUP2 MSTORE PUSH1 0x20 ADD PUSH1 0x4 DUP3 ADD PUSH1 0x0 SWAP1 SLOAD SWAP1 PUSH2 0x100 EXP SWAP1 DIV PUSH20 0xFFFFFFFFFFFFFFFFFFFFFFFFFFFFFFFFFFFFFFFF AND PUSH20 0xFFFFFFFFFFFFFFFFFFFFFFFFFFFFFFFFFFFFFFFF AND PUSH20 0xFFFFFFFFFFFFFFFFFFFFFFFFFFFFFFFFFFFFFFFF AND DUP2 MSTORE PUSH1 0x20 ADD PUSH1 0x5 DUP3 ADD SLOAD DUP2 MSTORE PUSH1 0x20 ADD PUSH1 0x6 DUP3 ADD SLOAD DUP2 MSTORE POP POP DUP3 DUP5 DUP2 MLOAD DUP2 LT PUSH2 0x2540 JUMPI PUSH2 0x253F PUSH2 0x3FA5 JUMP JUMPDEST JUMPDEST PUSH1 0x20 MUL PUSH1 0x20 ADD ADD DUP2 SWAP1 MSTORE POP DUP3 DUP1 PUSH2 0x2556 SWAP1 PUSH2 0x3ECF JUMP JUMPDEST SWAP4 POP POP JUMPDEST DUP1 DUP1 PUSH2 0x2565 SWAP1 PUSH2 0x3ECF JUMP JUMPDEST SWAP2 POP POP PUSH2 0x228C JUMP JUMPDEST POP DUP2 PUSH8 0xFFFFFFFFFFFFFFFF DUP2 GT ISZERO PUSH2 0x2588 JUMPI PUSH2 0x2587 PUSH2 0x3FD4 JUMP JUMPDEST JUMPDEST PUSH1 0x40 MLOAD SWAP1 DUP1 DUP3 MSTORE DUP1 PUSH1 0x20 MUL PUSH1 0x20 ADD DUP3 ADD PUSH1 0x40 MSTORE DUP1 ISZERO PUSH2 0x25C1 JUMPI DUP2 PUSH1 0x20 ADD JUMPDEST PUSH2 0x25AE PUSH2 0x3074 JUMP JUMPDEST DUP2 MSTORE PUSH1 0x20 ADD SWAP1 PUSH1 0x1 SWAP1 SUB SWAP1 DUP2 PUSH2 0x25A6 JUMPI SWAP1 POP JUMPDEST POP SWAP3 POP PUSH1 0x0 DUP3 GT ISZERO PUSH2 0x2626 JUMPI PUSH1 0x0 JUMPDEST DUP3 DUP2 LT ISZERO PUSH2 0x2624 JUMPI DUP2 DUP2 DUP2 MLOAD DUP2 LT PUSH2 0x25EB JUMPI PUSH2 0x25EA PUSH2 0x3FA5 JUMP JUMPDEST JUMPDEST PUSH1 0x20 MUL PUSH1 0x20 ADD ADD MLOAD DUP5 DUP3 DUP2 MLOAD DUP2 LT PUSH2 0x2606 JUMPI PUSH2 0x2605 PUSH2 0x3FA5 JUMP JUMPDEST JUMPDEST PUSH1 0x20 MUL PUSH1 0x20 ADD ADD DUP2 SWAP1 MSTORE POP DUP1 DUP1 PUSH2 0x261C SWAP1 PUSH2 0x3ECF JUMP JUMPDEST SWAP2 POP POP PUSH2 0x25D0 JUMP JUMPDEST POP JUMPDEST POP POP SWAP2 SWAP1 POP JUMP JUMPDEST PUSH1 0x0 DUP1 SLOAD SWAP1 PUSH2 0x100 EXP SWAP1 DIV PUSH20 0xFFFFFFFFFFFFFFFFFFFFFFFFFFFFFFFFFFFFFFFF AND DUP2 JUMP JUMPDEST PUSH2 0x2659 PUSH2 0x2FFD JUMP JUMPDEST PUSH1 0x1 PUSH1 0x0 DUP4 PUSH20 0xFFFFFFFFFFFFFFFFFFFFFFFFFFFFFFFFFFFFFFFF AND PUSH20 0xFFFFFFFFFFFFFFFFFFFFFFFFFFFFFFFFFFFFFFFF AND DUP2 MSTORE PUSH1 0x20 ADD SWAP1 DUP2 MSTORE PUSH1 0x20 ADD PUSH1 0x0 KECCAK256 PUSH1 0x40 MLOAD DUP1 PUSH1 0xE0 ADD PUSH1 0x40 MSTORE SWAP1 DUP2 PUSH1 0x0 DUP3 ADD DUP1 SLOAD PUSH2 0x26B3 SWAP1 PUSH2 0x3E6C JUMP JUMPDEST DUP1 PUSH1 0x1F ADD PUSH1 0x20 DUP1 SWAP2 DIV MUL PUSH1 0x20 ADD PUSH1 0x40 MLOAD SWAP1 DUP2 ADD PUSH1 0x40 MSTORE DUP1 SWAP3 SWAP2 SWAP1 DUP2 DUP2 MSTORE PUSH1 0x20 ADD DUP3 DUP1 SLOAD PUSH2 0x26DF SWAP1 PUSH2 0x3E6C JUMP JUMPDEST DUP1 ISZERO PUSH2 0x272C JUMPI DUP1 PUSH1 0x1F LT PUSH2 0x2701 JUMPI PUSH2 0x100 DUP1 DUP4 SLOAD DIV MUL DUP4 MSTORE SWAP2 PUSH1 0x20 ADD SWAP2 PUSH2 0x272C JUMP JUMPDEST DUP3 ADD SWAP2 SWAP1 PUSH1 0x0 MSTORE PUSH1 0x20 PUSH1 0x0 KECCAK256 SWAP1 JUMPDEST DUP2 SLOAD DUP2 MSTORE SWAP1 PUSH1 0x1 ADD SWAP1 PUSH1 0x20 ADD DUP1 DUP4 GT PUSH2 0x270F JUMPI DUP3 SWAP1 SUB PUSH1 0x1F AND DUP3 ADD SWAP2 JUMPDEST POP POP POP POP POP DUP2 MSTORE PUSH1 0x20 ADD PUSH1 0x1 DUP3 ADD DUP1 SLOAD PUSH2 0x2745 SWAP1 PUSH2 0x3E6C JUMP JUMPDEST DUP1 PUSH1 0x1F ADD PUSH1 0x20 DUP1 SWAP2 DIV MUL PUSH1 0x20 ADD PUSH1 0x40 MLOAD SWAP1 DUP2 ADD PUSH1 0x40 MSTORE DUP1 SWAP3 SWAP2 SWAP1 DUP2 DUP2 MSTORE PUSH1 0x20 ADD DUP3 DUP1 SLOAD PUSH2 0x2771 SWAP1 PUSH2 0x3E6C JUMP JUMPDEST DUP1 ISZERO PUSH2 0x27BE JUMPI DUP1 PUSH1 0x1F LT PUSH2 0x2793 JUMPI PUSH2 0x100 DUP1 DUP4 SLOAD DIV MUL DUP4 MSTORE SWAP2 PUSH1 0x20 ADD SWAP2 PUSH2 0x27BE JUMP JUMPDEST DUP3 ADD SWAP2 SWAP1 PUSH1 0x0 MSTORE PUSH1 0x20 PUSH1 0x0 KECCAK256 SWAP1 JUMPDEST DUP2 SLOAD DUP2 MSTORE SWAP1 PUSH1 0x1 ADD SWAP1 PUSH1 0x20 ADD DUP1 DUP4 GT PUSH2 0x27A1 JUMPI DUP3 SWAP1 SUB PUSH1 0x1F AND DUP3 ADD SWAP2 JUMPDEST POP POP POP POP POP DUP2 MSTORE PUSH1 0x20 ADD PUSH1 0x2 DUP3 ADD PUSH1 0x0 SWAP1 SLOAD SWAP1 PUSH2 0x100 EXP SWAP1 DIV PUSH1 0xFF AND PUSH1 0x8 DUP2 GT ISZERO PUSH2 0x27EC JUMPI PUSH2 0x27EB PUSH2 0x3F47 JUMP JUMPDEST JUMPDEST PUSH1 0x8 DUP2 GT ISZERO PUSH2 0x27FE JUMPI PUSH2 0x27FD PUSH2 0x3F47 JUMP JUMPDEST JUMPDEST DUP2 MSTORE PUSH1 0x20 ADD PUSH1 0x2 DUP3 ADD PUSH1 0x1 SWAP1 SLOAD SWAP1 PUSH2 0x100 EXP SWAP1 DIV PUSH1 0xFF AND PUSH1 0x2 DUP2 GT ISZERO PUSH2 0x2827 JUMPI PUSH2 0x2826 PUSH2 0x3F47 JUMP JUMPDEST JUMPDEST PUSH1 0x2 DUP2 GT ISZERO PUSH2 0x2839 JUMPI PUSH2 0x2838 PUSH2 0x3F47 JUMP JUMPDEST JUMPDEST DUP2 MSTORE PUSH1 0x20 ADD PUSH1 0x3 DUP3 ADD DUP1 SLOAD PUSH2 0x284D SWAP1 PUSH2 0x3E6C JUMP JUMPDEST DUP1 PUSH1 0x1F ADD PUSH1 0x20 DUP1 SWAP2 DIV MUL PUSH1 0x20 ADD PUSH1 0x40 MLOAD SWAP1 DUP2 ADD PUSH1 0x40 MSTORE DUP1 SWAP3 SWAP2 SWAP1 DUP2 DUP2 MSTORE PUSH1 0x20 ADD DUP3 DUP1 SLOAD PUSH2 0x2879 SWAP1 PUSH2 0x3E6C JUMP JUMPDEST DUP1 ISZERO PUSH2 0x28C6 JUMPI DUP1 PUSH1 0x1F LT PUSH2 0x289B JUMPI PUSH2 0x100 DUP1 DUP4 SLOAD DIV MUL DUP4 MSTORE SWAP2 PUSH1 0x20 ADD SWAP2 PUSH2 0x28C6 JUMP JUMPDEST DUP3 ADD SWAP2 SWAP1 PUSH1 0x0 MSTORE PUSH1 0x20 PUSH1 0x0 KECCAK256 SWAP1 JUMPDEST DUP2 SLOAD DUP2 MSTORE SWAP1 PUSH1 0x1 ADD SWAP1 PUSH1 0x20 ADD DUP1 DUP4 GT PUSH2 0x28A9 JUMPI DUP3 SWAP1 SUB PUSH1 0x1F AND DUP3 ADD SWAP2 JUMPDEST POP POP POP POP POP DUP2 MSTORE PUSH1 0x20 ADD PUSH1 0x4 DUP3 ADD DUP1 SLOAD PUSH2 0x28DF SWAP1 PUSH2 0x3E6C JUMP JUMPDEST DUP1 PUSH1 0x1F ADD PUSH1 0x20 DUP1 SWAP2 DIV MUL PUSH1 0x20 ADD PUSH1 0x40 MLOAD SWAP1 DUP2 ADD PUSH1 0x40 MSTORE DUP1 SWAP3 SWAP2 SWAP1 DUP2 DUP2 MSTORE PUSH1 0x20 ADD DUP3 DUP1 SLOAD PUSH2 0x290B SWAP1 PUSH2 0x3E6C JUMP JUMPDEST DUP1 ISZERO PUSH2 0x2958 JUMPI DUP1 PUSH1 0x1F LT PUSH2 0x292D JUMPI PUSH2 0x100 DUP1 DUP4 SLOAD DIV MUL DUP4 MSTORE SWAP2 PUSH1 0x20 ADD SWAP2 PUSH2 0x2958 JUMP JUMPDEST DUP3 ADD SWAP2 SWAP1 PUSH1 0x0 MSTORE PUSH1 0x20 PUSH1 0x0 KECCAK256 SWAP1 JUMPDEST DUP2 SLOAD DUP2 MSTORE SWAP1 PUSH1 0x1 ADD SWAP1 PUSH1 0x20 ADD DUP1 DUP4 GT PUSH2 0x293B JUMPI DUP3 SWAP1 SUB PUSH1 0x1F AND DUP3 ADD SWAP2 JUMPDEST POP POP POP POP POP DUP2 MSTORE PUSH1 0x20 ADD PUSH1 0x5 DUP3 ADD PUSH1 0x0 SWAP1 SLOAD SWAP1 PUSH2 0x100 EXP SWAP1 DIV PUSH20 0xFFFFFFFFFFFFFFFFFFFFFFFFFFFFFFFFFFFFFFFF AND PUSH20 0xFFFFFFFFFFFFFFFFFFFFFFFFFFFFFFFFFFFFFFFF AND PUSH20 0xFFFFFFFFFFFFFFFFFFFFFFFFFFFFFFFFFFFFFFFF AND DUP2 MSTORE POP POP SWAP1 POP SWAP2 SWAP1 POP JUMP JUMPDEST PUSH2 0x29C6 PUSH2 0x30DD JUMP JUMPDEST PUSH1 0x3 DUP3 PUSH1 0x40 MLOAD PUSH2 0x29D6 SWAP2 SWAP1 PUSH2 0x39FF JUMP JUMPDEST SWAP1 DUP2 MSTORE PUSH1 0x20 ADD PUSH1 0x40 MLOAD DUP1 SWAP2 SUB SWAP1 KECCAK256 PUSH1 0x40 MLOAD DUP1 PUSH1 0x80 ADD PUSH1 0x40 MSTORE SWAP1 DUP2 PUSH1 0x0 DUP3 ADD DUP1 SLOAD PUSH2 0x29FF SWAP1 PUSH2 0x3E6C JUMP JUMPDEST DUP1 PUSH1 0x1F ADD PUSH1 0x20 DUP1 SWAP2 DIV MUL PUSH1 0x20 ADD PUSH1 0x40 MLOAD SWAP1 DUP2 ADD PUSH1 0x40 MSTORE DUP1 SWAP3 SWAP2 SWAP1 DUP2 DUP2 MSTORE PUSH1 0x20 ADD DUP3 DUP1 SLOAD PUSH2 0x2A2B SWAP1 PUSH2 0x3E6C JUMP JUMPDEST DUP1 ISZERO PUSH2 0x2A78 JUMPI DUP1 PUSH1 0x1F LT PUSH2 0x2A4D JUMPI PUSH2 0x100 DUP1 DUP4 SLOAD DIV MUL DUP4 MSTORE SWAP2 PUSH1 0x20 ADD SWAP2 PUSH2 0x2A78 JUMP JUMPDEST DUP3 ADD SWAP2 SWAP1 PUSH1 0x0 MSTORE PUSH1 0x20 PUSH1 0x0 KECCAK256 SWAP1 JUMPDEST DUP2 SLOAD DUP2 MSTORE SWAP1 PUSH1 0x1 ADD SWAP1 PUSH1 0x20 ADD DUP1 DUP4 GT PUSH2 0x2A5B JUMPI DUP3 SWAP1 SUB PUSH1 0x1F AND DUP3 ADD SWAP2 JUMPDEST POP POP POP POP POP DUP2 MSTORE PUSH1 0x20 ADD PUSH1 0x1 DUP3 ADD PUSH1 0x0 SWAP1 SLOAD SWAP1 PUSH2 0x100 EXP SWAP1 DIV PUSH20 0xFFFFFFFFFFFFFFFFFFFFFFFFFFFFFFFFFFFFFFFF AND PUSH20 0xFFFFFFFFFFFFFFFFFFFFFFFFFFFFFFFFFFFFFFFF AND PUSH20 0xFFFFFFFFFFFFFFFFFFFFFFFFFFFFFFFFFFFFFFFF AND DUP2 MSTORE PUSH1 0x20 ADD PUSH1 0x1 DUP3 ADD PUSH1 0x14 SWAP1 SLOAD SWAP1 PUSH2 0x100 EXP SWAP1 DIV PUSH1 0xFF AND PUSH1 0x2 DUP2 GT ISZERO PUSH2 0x2AFC JUMPI PUSH2 0x2AFB PUSH2 0x3F47 JUMP JUMPDEST JUMPDEST PUSH1 0x2 DUP2 GT ISZERO PUSH2 0x2B0E JUMPI PUSH2 0x2B0D PUSH2 0x3F47 JUMP JUMPDEST JUMPDEST DUP2 MSTORE PUSH1 0x20 ADD PUSH1 0x2 DUP3 ADD DUP1 SLOAD PUSH2 0x2B22 SWAP1 PUSH2 0x3E6C JUMP JUMPDEST DUP1 PUSH1 0x1F ADD PUSH1 0x20 DUP1 SWAP2 DIV MUL PUSH1 0x20 ADD PUSH1 0x40 MLOAD SWAP1 DUP2 ADD PUSH1 0x40 MSTORE DUP1 SWAP3 SWAP2 SWAP1 DUP2 DUP2 MSTORE PUSH1 0x20 ADD DUP3 DUP1 SLOAD PUSH2 0x2B4E SWAP1 PUSH2 0x3E6C JUMP JUMPDEST DUP1 ISZERO PUSH2 0x2B9B JUMPI DUP1 PUSH1 0x1F LT PUSH2 0x2B70 JUMPI PUSH2 0x100 DUP1 DUP4 SLOAD DIV MUL DUP4 MSTORE SWAP2 PUSH1 0x20 ADD SWAP2 PUSH2 0x2B9B JUMP JUMPDEST DUP3 ADD SWAP2 SWAP1 PUSH1 0x0 MSTORE PUSH1 0x20 PUSH1 0x0 KECCAK256 SWAP1 JUMPDEST DUP2 SLOAD DUP2 MSTORE SWAP1 PUSH1 0x1 ADD SWAP1 PUSH1 0x20 ADD DUP1 DUP4 GT PUSH2 0x2B7E JUMPI DUP3 SWAP1 SUB PUSH1 0x1F AND DUP3 ADD SWAP2 JUMPDEST POP POP POP POP POP DUP2 MSTORE POP POP SWAP1 POP SWAP2 SWAP1 POP JUMP JUMPDEST PUSH1 0x0 DUP2 PUSH1 0x40 MLOAD PUSH1 0x20 ADD PUSH2 0x2BBE SWAP2 SWAP1 PUSH2 0x39FF JUMP JUMPDEST PUSH1 0x40 MLOAD PUSH1 0x20 DUP2 DUP4 SUB SUB DUP2 MSTORE SWAP1 PUSH1 0x40 MSTORE DUP1 MLOAD SWAP1 PUSH1 0x20 ADD KECCAK256 DUP4 PUSH1 0x40 MLOAD PUSH1 0x20 ADD PUSH2 0x2BE5 SWAP2 SWAP1 PUSH2 0x39FF JUMP JUMPDEST PUSH1 0x40 MLOAD PUSH1 0x20 DUP2 DUP4 SUB SUB DUP2 MSTORE SWAP1 PUSH1 0x40 MSTORE DUP1 MLOAD SWAP1 PUSH1 0x20 ADD KECCAK256 EQ SWAP1 POP SWAP3 SWAP2 POP POP JUMP JUMPDEST PUSH1 0x60 PUSH1 0x0 PUSH1 0x4 DUP1 SLOAD SWAP1 POP SWAP1 POP PUSH1 0x0 DUP2 PUSH8 0xFFFFFFFFFFFFFFFF DUP2 GT ISZERO PUSH2 0x2C2C JUMPI PUSH2 0x2C2B PUSH2 0x3FD4 JUMP JUMPDEST JUMPDEST PUSH1 0x40 MLOAD SWAP1 DUP1 DUP3 MSTORE DUP1 PUSH1 0x20 MUL PUSH1 0x20 ADD DUP3 ADD PUSH1 0x40 MSTORE DUP1 ISZERO PUSH2 0x2C65 JUMPI DUP2 PUSH1 0x20 ADD JUMPDEST PUSH2 0x2C52 PUSH2 0x30DD JUMP JUMPDEST DUP2 MSTORE PUSH1 0x20 ADD SWAP1 PUSH1 0x1 SWAP1 SUB SWAP1 DUP2 PUSH2 0x2C4A JUMPI SWAP1 POP JUMPDEST POP SWAP1 POP PUSH1 0x0 DUP1 PUSH1 0x0 SWAP1 POP JUMPDEST DUP4 DUP2 LT ISZERO PUSH2 0x2F46 JUMPI DUP6 PUSH20 0xFFFFFFFFFFFFFFFFFFFFFFFFFFFFFFFFFFFFFFFF AND PUSH1 0x3 PUSH1 0x4 DUP4 DUP2 SLOAD DUP2 LT PUSH2 0x2CA5 JUMPI PUSH2 0x2CA4 PUSH2 0x3FA5 JUMP JUMPDEST JUMPDEST SWAP1 PUSH1 0x0 MSTORE PUSH1 0x20 PUSH1 0x0 KECCAK256 ADD PUSH1 0x40 MLOAD PUSH2 0x2CBC SWAP2 SWAP1 PUSH2 0x3A16 JUMP JUMPDEST SWAP1 DUP2 MSTORE PUSH1 0x20 ADD PUSH1 0x40 MLOAD DUP1 SWAP2 SUB SWAP1 KECCAK256 PUSH1 0x1 ADD PUSH1 0x0 SWAP1 SLOAD SWAP1 PUSH2 0x100 EXP SWAP1 DIV PUSH20 0xFFFFFFFFFFFFFFFFFFFFFFFFFFFFFFFFFFFFFFFF AND PUSH20 0xFFFFFFFFFFFFFFFFFFFFFFFFFFFFFFFFFFFFFFFF AND EQ ISZERO PUSH2 0x2F33 JUMPI PUSH1 0x3 PUSH1 0x4 DUP3 DUP2 SLOAD DUP2 LT PUSH2 0x2D20 JUMPI PUSH2 0x2D1F PUSH2 0x3FA5 JUMP JUMPDEST JUMPDEST SWAP1 PUSH1 0x0 MSTORE PUSH1 0x20 PUSH1 0x0 KECCAK256 ADD PUSH1 0x40 MLOAD PUSH2 0x2D37 SWAP2 SWAP1 PUSH2 0x3A16 JUMP JUMPDEST SWAP1 DUP2 MSTORE PUSH1 0x20 ADD PUSH1 0x40 MLOAD DUP1 SWAP2 SUB SWAP1 KECCAK256 PUSH1 0x40 MLOAD DUP1 PUSH1 0x80 ADD PUSH1 0x40 MSTORE SWAP1 DUP2 PUSH1 0x0 DUP3 ADD DUP1 SLOAD PUSH2 0x2D60 SWAP1 PUSH2 0x3E6C JUMP JUMPDEST DUP1 PUSH1 0x1F ADD PUSH1 0x20 DUP1 SWAP2 DIV MUL PUSH1 0x20 ADD PUSH1 0x40 MLOAD SWAP1 DUP2 ADD PUSH1 0x40 MSTORE DUP1 SWAP3 SWAP2 SWAP1 DUP2 DUP2 MSTORE PUSH1 0x20 ADD DUP3 DUP1 SLOAD PUSH2 0x2D8C SWAP1 PUSH2 0x3E6C JUMP JUMPDEST DUP1 ISZERO PUSH2 0x2DD9 JUMPI DUP1 PUSH1 0x1F LT PUSH2 0x2DAE JUMPI PUSH2 0x100 DUP1 DUP4 SLOAD DIV MUL DUP4 MSTORE SWAP2 PUSH1 0x20 ADD SWAP2 PUSH2 0x2DD9 JUMP JUMPDEST DUP3 ADD SWAP2 SWAP1 PUSH1 0x0 MSTORE PUSH1 0x20 PUSH1 0x0 KECCAK256 SWAP1 JUMPDEST DUP2 SLOAD DUP2 MSTORE SWAP1 PUSH1 0x1 ADD SWAP1 PUSH1 0x20 ADD DUP1 DUP4 GT PUSH2 0x2DBC JUMPI DUP3 SWAP1 SUB PUSH1 0x1F AND DUP3 ADD SWAP2 JUMPDEST POP POP POP POP POP DUP2 MSTORE PUSH1 0x20 ADD PUSH1 0x1 DUP3 ADD PUSH1 0x0 SWAP1 SLOAD SWAP1 PUSH2 0x100 EXP SWAP1 DIV PUSH20 0xFFFFFFFFFFFFFFFFFFFFFFFFFFFFFFFFFFFFFFFF AND PUSH20 0xFFFFFFFFFFFFFFFFFFFFFFFFFFFFFFFFFFFFFFFF AND PUSH20 0xFFFFFFFFFFFFFFFFFFFFFFFFFFFFFFFFFFFFFFFF AND DUP2 MSTORE PUSH1 0x20 ADD PUSH1 0x1 DUP3 ADD PUSH1 0x14 SWAP1 SLOAD SWAP1 PUSH2 0x100 EXP SWAP1 DIV PUSH1 0xFF AND PUSH1 0x2 DUP2 GT ISZERO PUSH2 0x2E5D JUMPI PUSH2 0x2E5C PUSH2 0x3F47 JUMP JUMPDEST JUMPDEST PUSH1 0x2 DUP2 GT ISZERO PUSH2 0x2E6F JUMPI PUSH2 0x2E6E PUSH2 0x3F47 JUMP JUMPDEST JUMPDEST DUP2 MSTORE PUSH1 0x20 ADD PUSH1 0x2 DUP3 ADD DUP1 SLOAD PUSH2 0x2E83 SWAP1 PUSH2 0x3E6C JUMP JUMPDEST DUP1 PUSH1 0x1F ADD PUSH1 0x20 DUP1 SWAP2 DIV MUL PUSH1 0x20 ADD PUSH1 0x40 MLOAD SWAP1 DUP2 ADD PUSH1 0x40 MSTORE DUP1 SWAP3 SWAP2 SWAP1 DUP2 DUP2 MSTORE PUSH1 0x20 ADD DUP3 DUP1 SLOAD PUSH2 0x2EAF SWAP1 PUSH2 0x3E6C JUMP JUMPDEST DUP1 ISZERO PUSH2 0x2EFC JUMPI DUP1 PUSH1 0x1F LT PUSH2 0x2ED1 JUMPI PUSH2 0x100 DUP1 DUP4 SLOAD DIV MUL DUP4 MSTORE SWAP2 PUSH1 0x20 ADD SWAP2 PUSH2 0x2EFC JUMP JUMPDEST DUP3 ADD SWAP2 SWAP1 PUSH1 0x0 MSTORE PUSH1 0x20 PUSH1 0x0 KECCAK256 SWAP1 JUMPDEST DUP2 SLOAD DUP2 MSTORE SWAP1 PUSH1 0x1 ADD SWAP1 PUSH1 0x20 ADD DUP1 DUP4 GT PUSH2 0x2EDF JUMPI DUP3 SWAP1 SUB PUSH1 0x1F AND DUP3 ADD SWAP2 JUMPDEST POP POP POP POP POP DUP2 MSTORE POP POP DUP4 DUP4 DUP2 MLOAD DUP2 LT PUSH2 0x2F18 JUMPI PUSH2 0x2F17 PUSH2 0x3FA5 JUMP JUMPDEST JUMPDEST PUSH1 0x20 MUL PUSH1 0x20 ADD ADD DUP2 SWAP1 MSTORE POP PUSH1 0x1 DUP3 PUSH2 0x2F30 SWAP2 SWAP1 PUSH2 0x3D0E JUMP JUMPDEST SWAP2 POP JUMPDEST DUP1 DUP1 PUSH2 0x2F3E SWAP1 PUSH2 0x3ECF JUMP JUMPDEST SWAP2 POP POP PUSH2 0x2C70 JUMP JUMPDEST POP DUP1 PUSH8 0xFFFFFFFFFFFFFFFF DUP2 GT ISZERO PUSH2 0x2F61 JUMPI PUSH2 0x2F60 PUSH2 0x3FD4 JUMP JUMPDEST JUMPDEST PUSH1 0x40 MLOAD SWAP1 DUP1 DUP3 MSTORE DUP1 PUSH1 0x20 MUL PUSH1 0x20 ADD DUP3 ADD PUSH1 0x40 MSTORE DUP1 ISZERO PUSH2 0x2F9A JUMPI DUP2 PUSH1 0x20 ADD JUMPDEST PUSH2 0x2F87 PUSH2 0x30DD JUMP JUMPDEST DUP2 MSTORE PUSH1 0x20 ADD SWAP1 PUSH1 0x1 SWAP1 SUB SWAP1 DUP2 PUSH2 0x2F7F JUMPI SWAP1 POP JUMPDEST POP SWAP4 POP PUSH1 0x0 JUMPDEST DUP2 DUP2 LT ISZERO PUSH2 0x2FF4 JUMPI DUP3 DUP2 DUP2 MLOAD DUP2 LT PUSH2 0x2FBB JUMPI PUSH2 0x2FBA PUSH2 0x3FA5 JUMP JUMPDEST JUMPDEST PUSH1 0x20 MUL PUSH1 0x20 ADD ADD MLOAD DUP6 DUP3 DUP2 MLOAD DUP2 LT PUSH2 0x2FD6 JUMPI PUSH2 0x2FD5 PUSH2 0x3FA5 JUMP JUMPDEST JUMPDEST PUSH1 0x20 MUL PUSH1 0x20 ADD ADD DUP2 SWAP1 MSTORE POP DUP1 DUP1 PUSH2 0x2FEC SWAP1 PUSH2 0x3ECF JUMP JUMPDEST SWAP2 POP POP PUSH2 0x2FA0 JUMP JUMPDEST POP POP POP POP SWAP2 SWAP1 POP JUMP JUMPDEST PUSH1 0x40 MLOAD DUP1 PUSH1 0xE0 ADD PUSH1 0x40 MSTORE DUP1 PUSH1 0x60 DUP2 MSTORE PUSH1 0x20 ADD PUSH1 0x60 DUP2 MSTORE PUSH1 0x20 ADD PUSH1 0x0 PUSH1 0x8 DUP2 GT ISZERO PUSH2 0x302A JUMPI PUSH2 0x3029 PUSH2 0x3F47 JUMP JUMPDEST JUMPDEST DUP2 MSTORE PUSH1 0x20 ADD PUSH1 0x0 PUSH1 0x2 DUP2 GT ISZERO PUSH2 0x3043 JUMPI PUSH2 0x3042 PUSH2 0x3F47 JUMP JUMPDEST JUMPDEST DUP2 MSTORE PUSH1 0x20 ADD PUSH1 0x60 DUP2 MSTORE PUSH1 0x20 ADD PUSH1 0x60 DUP2 MSTORE PUSH1 0x20 ADD PUSH1 0x0 PUSH20 0xFFFFFFFFFFFFFFFFFFFFFFFFFFFFFFFFFFFFFFFF AND DUP2 MSTORE POP SWAP1 JUMP JUMPDEST PUSH1 0x40 MLOAD DUP1 PUSH1 0xE0 ADD PUSH1 0x40 MSTORE DUP1 PUSH1 0x60 DUP2 MSTORE PUSH1 0x20 ADD PUSH1 0x60 DUP2 MSTORE PUSH1 0x20 ADD PUSH1 0x0 DUP2 MSTORE PUSH1 0x20 ADD PUSH1 0x0 PUSH20 0xFFFFFFFFFFFFFFFFFFFFFFFFFFFFFFFFFFFFFFFF AND DUP2 MSTORE PUSH1 0x20 ADD PUSH1 0x0 PUSH20 0xFFFFFFFFFFFFFFFFFFFFFFFFFFFFFFFFFFFFFFFF AND DUP2 MSTORE PUSH1 0x20 ADD PUSH1 0x0 DUP2 MSTORE PUSH1 0x20 ADD PUSH1 0x0 DUP2 MSTORE POP SWAP1 JUMP JUMPDEST PUSH1 0x40 MLOAD DUP1 PUSH1 0x80 ADD PUSH1 0x40 MSTORE DUP1 PUSH1 0x60 DUP2 MSTORE PUSH1 0x20 ADD PUSH1 0x0 PUSH20 0xFFFFFFFFFFFFFFFFFFFFFFFFFFFFFFFFFFFFFFFF AND DUP2 MSTORE PUSH1 0x20 ADD PUSH1 0x0 PUSH1 0x2 DUP2 GT ISZERO PUSH2 0x3120 JUMPI PUSH2 0x311F PUSH2 0x3F47 JUMP JUMPDEST JUMPDEST DUP2 MSTORE PUSH1 0x20 ADD PUSH1 0x60 DUP2 MSTORE POP SWAP1 JUMP JUMPDEST PUSH1 0x0 PUSH2 0x3140 PUSH2 0x313B DUP5 PUSH2 0x3BE5 JUMP JUMPDEST PUSH2 0x3BC0 JUMP JUMPDEST SWAP1 POP DUP3 DUP2 MSTORE PUSH1 0x20 DUP2 ADD DUP5 DUP5 DUP5 ADD GT ISZERO PUSH2 0x315C JUMPI PUSH2 0x315B PUSH2 0x4008 JUMP JUMPDEST JUMPDEST PUSH2 0x3167 DUP5 DUP3 DUP6 PUSH2 0x3E2A JUMP JUMPDEST POP SWAP4 SWAP3 POP POP POP JUMP JUMPDEST PUSH1 0x0 DUP2 CALLDATALOAD SWAP1 POP PUSH2 0x317E DUP2 PUSH2 0x4050 JUMP JUMPDEST SWAP3 SWAP2 POP POP JUMP JUMPDEST PUSH1 0x0 DUP2 CALLDATALOAD SWAP1 POP PUSH2 0x3193 DUP2 PUSH2 0x4067 JUMP JUMPDEST SWAP3 SWAP2 POP POP JUMP JUMPDEST PUSH1 0x0 DUP2 CALLDATALOAD SWAP1 POP PUSH2 0x31A8 DUP2 PUSH2 0x4077 JUMP JUMPDEST SWAP3 SWAP2 POP POP JUMP JUMPDEST PUSH1 0x0 DUP3 PUSH1 0x1F DUP4 ADD SLT PUSH2 0x31C3 JUMPI PUSH2 0x31C2 PUSH2 0x4003 JUMP JUMPDEST JUMPDEST DUP2 CALLDATALOAD PUSH2 0x31D3 DUP5 DUP3 PUSH1 0x20 DUP7 ADD PUSH2 0x312D JUMP JUMPDEST SWAP2 POP POP SWAP3 SWAP2 POP POP JUMP JUMPDEST PUSH1 0x0 DUP2 CALLDATALOAD SWAP1 POP PUSH2 0x31EB DUP2 PUSH2 0x4087 JUMP JUMPDEST SWAP3 SWAP2 POP POP JUMP JUMPDEST PUSH1 0x0 PUSH1 0x20 DUP3 DUP5 SUB SLT ISZERO PUSH2 0x3207 JUMPI PUSH2 0x3206 PUSH2 0x4012 JUMP JUMPDEST JUMPDEST PUSH1 0x0 PUSH2 0x3215 DUP5 DUP3 DUP6 ADD PUSH2 0x316F JUMP JUMPDEST SWAP2 POP POP SWAP3 SWAP2 POP POP JUMP JUMPDEST PUSH1 0x0 PUSH1 0x20 DUP3 DUP5 SUB SLT ISZERO PUSH2 0x3234 JUMPI PUSH2 0x3233 PUSH2 0x4012 JUMP JUMPDEST JUMPDEST PUSH1 0x0 PUSH2 0x3242 DUP5 DUP3 DUP6 ADD PUSH2 0x3184 JUMP JUMPDEST SWAP2 POP POP SWAP3 SWAP2 POP POP JUMP JUMPDEST PUSH1 0x0 PUSH1 0x20 DUP3 DUP5 SUB SLT ISZERO PUSH2 0x3261 JUMPI PUSH2 0x3260 PUSH2 0x4012 JUMP JUMPDEST JUMPDEST PUSH1 0x0 PUSH2 0x326F DUP5 DUP3 DUP6 ADD PUSH2 0x3199 JUMP JUMPDEST SWAP2 POP POP SWAP3 SWAP2 POP POP JUMP JUMPDEST PUSH1 0x0 PUSH1 0x20 DUP3 DUP5 SUB SLT ISZERO PUSH2 0x328E JUMPI PUSH2 0x328D PUSH2 0x4012 JUMP JUMPDEST JUMPDEST PUSH1 0x0 DUP3 ADD CALLDATALOAD PUSH8 0xFFFFFFFFFFFFFFFF DUP2 GT ISZERO PUSH2 0x32AC JUMPI PUSH2 0x32AB PUSH2 0x400D JUMP JUMPDEST JUMPDEST PUSH2 0x32B8 DUP5 DUP3 DUP6 ADD PUSH2 0x31AE JUMP JUMPDEST SWAP2 POP POP SWAP3 SWAP2 POP POP JUMP JUMPDEST PUSH1 0x0 DUP1 PUSH1 0x40 DUP4 DUP6 SUB SLT ISZERO PUSH2 0x32D8 JUMPI PUSH2 0x32D7 PUSH2 0x4012 JUMP JUMPDEST JUMPDEST PUSH1 0x0 DUP4 ADD CALLDATALOAD PUSH8 0xFFFFFFFFFFFFFFFF DUP2 GT ISZERO PUSH2 0x32F6 JUMPI PUSH2 0x32F5 PUSH2 0x400D JUMP JUMPDEST JUMPDEST PUSH2 0x3302 DUP6 DUP3 DUP7 ADD PUSH2 0x31AE JUMP JUMPDEST SWAP3 POP POP PUSH1 0x20 DUP4 ADD CALLDATALOAD PUSH8 0xFFFFFFFFFFFFFFFF DUP2 GT ISZERO PUSH2 0x3323 JUMPI PUSH2 0x3322 PUSH2 0x400D JUMP JUMPDEST JUMPDEST PUSH2 0x332F DUP6 DUP3 DUP7 ADD PUSH2 0x31AE JUMP JUMPDEST SWAP2 POP POP SWAP3 POP SWAP3 SWAP1 POP JUMP JUMPDEST PUSH1 0x0 DUP1 PUSH1 0x0 PUSH1 0x60 DUP5 DUP7 SUB SLT ISZERO PUSH2 0x3352 JUMPI PUSH2 0x3351 PUSH2 0x4012 JUMP JUMPDEST JUMPDEST PUSH1 0x0 DUP5 ADD CALLDATALOAD PUSH8 0xFFFFFFFFFFFFFFFF DUP2 GT ISZERO PUSH2 0x3370 JUMPI PUSH2 0x336F PUSH2 0x400D JUMP JUMPDEST JUMPDEST PUSH2 0x337C DUP7 DUP3 DUP8 ADD PUSH2 0x31AE JUMP JUMPDEST SWAP4 POP POP PUSH1 0x20 DUP5 ADD CALLDATALOAD PUSH8 0xFFFFFFFFFFFFFFFF DUP2 GT ISZERO PUSH2 0x339D JUMPI PUSH2 0x339C PUSH2 0x400D JUMP JUMPDEST JUMPDEST PUSH2 0x33A9 DUP7 DUP3 DUP8 ADD PUSH2 0x31AE JUMP JUMPDEST SWAP3 POP POP PUSH1 0x40 PUSH2 0x33BA DUP7 DUP3 DUP8 ADD PUSH2 0x316F JUMP JUMPDEST SWAP2 POP POP SWAP3 POP SWAP3 POP SWAP3 JUMP JUMPDEST PUSH1 0x0 PUSH1 0x20 DUP3 DUP5 SUB SLT ISZERO PUSH2 0x33DA JUMPI PUSH2 0x33D9 PUSH2 0x4012 JUMP JUMPDEST JUMPDEST PUSH1 0x0 PUSH2 0x33E8 DUP5 DUP3 DUP6 ADD PUSH2 0x31DC JUMP JUMPDEST SWAP2 POP POP SWAP3 SWAP2 POP POP JUMP JUMPDEST PUSH1 0x0 PUSH2 0x33FD DUP4 DUP4 PUSH2 0x3708 JUMP JUMPDEST SWAP1 POP SWAP3 SWAP2 POP POP JUMP JUMPDEST PUSH1 0x0 PUSH2 0x3411 DUP4 DUP4 PUSH2 0x37DC JUMP JUMPDEST SWAP1 POP SWAP3 SWAP2 POP POP JUMP JUMPDEST PUSH1 0x0 PUSH2 0x3425 DUP4 DUP4 PUSH2 0x387F JUMP JUMPDEST SWAP1 POP SWAP3 SWAP2 POP POP JUMP JUMPDEST PUSH2 0x3436 DUP2 PUSH2 0x3D98 JUMP JUMPDEST DUP3 MSTORE POP POP JUMP JUMPDEST PUSH2 0x3445 DUP2 PUSH2 0x3D98 JUMP JUMPDEST DUP3 MSTORE POP POP JUMP JUMPDEST PUSH1 0x0 PUSH2 0x3456 DUP3 PUSH2 0x3C5B JUMP JUMPDEST PUSH2 0x3460 DUP2 DUP6 PUSH2 0x3CAE JUMP JUMPDEST SWAP4 POP DUP4 PUSH1 0x20 DUP3 MUL DUP6 ADD PUSH2 0x3472 DUP6 PUSH2 0x3C16 JUMP JUMPDEST DUP1 PUSH1 0x0 JUMPDEST DUP6 DUP2 LT ISZERO PUSH2 0x34AE JUMPI DUP5 DUP5 SUB DUP10 MSTORE DUP2 MLOAD PUSH2 0x348F DUP6 DUP3 PUSH2 0x33F1 JUMP JUMPDEST SWAP5 POP PUSH2 0x349A DUP4 PUSH2 0x3C87 JUMP JUMPDEST SWAP3 POP PUSH1 0x20 DUP11 ADD SWAP10 POP POP PUSH1 0x1 DUP2 ADD SWAP1 POP PUSH2 0x3476 JUMP JUMPDEST POP DUP3 SWAP8 POP DUP8 SWAP6 POP POP POP POP POP POP SWAP3 SWAP2 POP POP JUMP JUMPDEST PUSH1 0x0 PUSH2 0x34CB DUP3 PUSH2 0x3C66 JUMP JUMPDEST PUSH2 0x34D5 DUP2 DUP6 PUSH2 0x3CBF JUMP JUMPDEST SWAP4 POP DUP4 PUSH1 0x20 DUP3 MUL DUP6 ADD PUSH2 0x34E7 DUP6 PUSH2 0x3C26 JUMP JUMPDEST DUP1 PUSH1 0x0 JUMPDEST DUP6 DUP2 LT ISZERO PUSH2 0x3523 JUMPI DUP5 DUP5 SUB DUP10 MSTORE DUP2 MLOAD PUSH2 0x3504 DUP6 DUP3 PUSH2 0x3405 JUMP JUMPDEST SWAP5 POP PUSH2 0x350F DUP4 PUSH2 0x3C94 JUMP JUMPDEST SWAP3 POP PUSH1 0x20 DUP11 ADD SWAP10 POP POP PUSH1 0x1 DUP2 ADD SWAP1 POP PUSH2 0x34EB JUMP JUMPDEST POP DUP3 SWAP8 POP DUP8 SWAP6 POP POP POP POP POP POP SWAP3 SWAP2 POP POP JUMP JUMPDEST PUSH1 0x0 PUSH2 0x3540 DUP3 PUSH2 0x3C71 JUMP JUMPDEST PUSH2 0x354A DUP2 DUP6 PUSH2 0x3CD0 JUMP JUMPDEST SWAP4 POP DUP4 PUSH1 0x20 DUP3 MUL DUP6 ADD PUSH2 0x355C DUP6 PUSH2 0x3C36 JUMP JUMPDEST DUP1 PUSH1 0x0 JUMPDEST DUP6 DUP2 LT ISZERO PUSH2 0x3598 JUMPI DUP5 DUP5 SUB DUP10 MSTORE DUP2 MLOAD PUSH2 0x3579 DUP6 DUP3 PUSH2 0x3419 JUMP JUMPDEST SWAP5 POP PUSH2 0x3584 DUP4 PUSH2 0x3CA1 JUMP JUMPDEST SWAP3 POP PUSH1 0x20 DUP11 ADD SWAP10 POP POP PUSH1 0x1 DUP2 ADD SWAP1 POP PUSH2 0x3560 JUMP JUMPDEST POP DUP3 SWAP8 POP DUP8 SWAP6 POP POP POP POP POP POP SWAP3 SWAP2 POP POP JUMP JUMPDEST PUSH2 0x35B3 DUP2 PUSH2 0x3DAA JUMP JUMPDEST DUP3 MSTORE POP POP JUMP JUMPDEST PUSH2 0x35C2 DUP2 PUSH2 0x3E06 JUMP JUMPDEST DUP3 MSTORE POP POP JUMP JUMPDEST PUSH2 0x35D1 DUP2 PUSH2 0x3E18 JUMP JUMPDEST DUP3 MSTORE POP POP JUMP JUMPDEST PUSH2 0x35E0 DUP2 PUSH2 0x3E18 JUMP JUMPDEST DUP3 MSTORE POP POP JUMP JUMPDEST PUSH1 0x0 PUSH2 0x35F1 DUP3 PUSH2 0x3C7C JUMP JUMPDEST PUSH2 0x35FB DUP2 DUP6 PUSH2 0x3CE1 JUMP JUMPDEST SWAP4 POP PUSH2 0x360B DUP2 DUP6 PUSH1 0x20 DUP7 ADD PUSH2 0x3E39 JUMP JUMPDEST PUSH2 0x3614 DUP2 PUSH2 0x4017 JUMP JUMPDEST DUP5 ADD SWAP2 POP POP SWAP3 SWAP2 POP POP JUMP JUMPDEST PUSH1 0x0 PUSH2 0x362A DUP3 PUSH2 0x3C7C JUMP JUMPDEST PUSH2 0x3634 DUP2 DUP6 PUSH2 0x3CF2 JUMP JUMPDEST SWAP4 POP PUSH2 0x3644 DUP2 DUP6 PUSH1 0x20 DUP7 ADD PUSH2 0x3E39 JUMP JUMPDEST PUSH2 0x364D DUP2 PUSH2 0x4017 JUMP JUMPDEST DUP5 ADD SWAP2 POP POP SWAP3 SWAP2 POP POP JUMP JUMPDEST PUSH1 0x0 PUSH2 0x3663 DUP3 PUSH2 0x3C7C JUMP JUMPDEST PUSH2 0x366D DUP2 DUP6 PUSH2 0x3D03 JUMP JUMPDEST SWAP4 POP PUSH2 0x367D DUP2 DUP6 PUSH1 0x20 DUP7 ADD PUSH2 0x3E39 JUMP JUMPDEST DUP1 DUP5 ADD SWAP2 POP POP SWAP3 SWAP2 POP POP JUMP JUMPDEST PUSH1 0x0 DUP2 SLOAD PUSH2 0x3696 DUP2 PUSH2 0x3E6C JUMP JUMPDEST PUSH2 0x36A0 DUP2 DUP7 PUSH2 0x3D03 JUMP JUMPDEST SWAP5 POP PUSH1 0x1 DUP3 AND PUSH1 0x0 DUP2 EQ PUSH2 0x36BB JUMPI PUSH1 0x1 DUP2 EQ PUSH2 0x36CC JUMPI PUSH2 0x36FF JUMP JUMPDEST PUSH1 0xFF NOT DUP4 AND DUP7 MSTORE DUP2 DUP7 ADD SWAP4 POP PUSH2 0x36FF JUMP JUMPDEST PUSH2 0x36D5 DUP6 PUSH2 0x3C46 JUMP JUMPDEST PUSH1 0x0 JUMPDEST DUP4 DUP2 LT ISZERO PUSH2 0x36F7 JUMPI DUP2 SLOAD DUP2 DUP10 ADD MSTORE PUSH1 0x1 DUP3 ADD SWAP2 POP PUSH1 0x20 DUP2 ADD SWAP1 POP PUSH2 0x36D8 JUMP JUMPDEST DUP4 DUP9 ADD SWAP6 POP POP POP JUMPDEST POP POP POP SWAP3 SWAP2 POP POP JUMP JUMPDEST PUSH1 0x0 PUSH1 0x80 DUP4 ADD PUSH1 0x0 DUP4 ADD MLOAD DUP5 DUP3 SUB PUSH1 0x0 DUP7 ADD MSTORE PUSH2 0x3725 DUP3 DUP3 PUSH2 0x35E6 JUMP JUMPDEST SWAP2 POP POP PUSH1 0x20 DUP4 ADD MLOAD PUSH2 0x373A PUSH1 0x20 DUP7 ADD DUP3 PUSH2 0x342D JUMP JUMPDEST POP PUSH1 0x40 DUP4 ADD MLOAD PUSH2 0x374D PUSH1 0x40 DUP7 ADD DUP3 PUSH2 0x35B9 JUMP JUMPDEST POP PUSH1 0x60 DUP4 ADD MLOAD DUP5 DUP3 SUB PUSH1 0x60 DUP7 ADD MSTORE PUSH2 0x3765 DUP3 DUP3 PUSH2 0x35E6 JUMP JUMPDEST SWAP2 POP POP DUP1 SWAP2 POP POP SWAP3 SWAP2 POP POP JUMP JUMPDEST PUSH1 0x0 PUSH1 0x80 DUP4 ADD PUSH1 0x0 DUP4 ADD MLOAD DUP5 DUP3 SUB PUSH1 0x0 DUP7 ADD MSTORE PUSH2 0x378F DUP3 DUP3 PUSH2 0x35E6 JUMP JUMPDEST SWAP2 POP POP PUSH1 0x20 DUP4 ADD MLOAD PUSH2 0x37A4 PUSH1 0x20 DUP7 ADD DUP3 PUSH2 0x342D JUMP JUMPDEST POP PUSH1 0x40 DUP4 ADD MLOAD PUSH2 0x37B7 PUSH1 0x40 DUP7 ADD DUP3 PUSH2 0x35B9 JUMP JUMPDEST POP PUSH1 0x60 DUP4 ADD MLOAD DUP5 DUP3 SUB PUSH1 0x60 DUP7 ADD MSTORE PUSH2 0x37CF DUP3 DUP3 PUSH2 0x35E6 JUMP JUMPDEST SWAP2 POP POP DUP1 SWAP2 POP POP SWAP3 SWAP2 POP POP JUMP JUMPDEST PUSH1 0x0 PUSH1 0xE0 DUP4 ADD PUSH1 0x0 DUP4 ADD MLOAD DUP5 DUP3 SUB PUSH1 0x0 DUP7 ADD MSTORE PUSH2 0x37F9 DUP3 DUP3 PUSH2 0x35E6 JUMP JUMPDEST SWAP2 POP POP PUSH1 0x20 DUP4 ADD MLOAD DUP5 DUP3 SUB PUSH1 0x20 DUP7 ADD MSTORE PUSH2 0x3813 DUP3 DUP3 PUSH2 0x35E6 JUMP JUMPDEST SWAP2 POP POP PUSH1 0x40 DUP4 ADD MLOAD PUSH2 0x3828 PUSH1 0x40 DUP7 ADD DUP3 PUSH2 0x39E1 JUMP JUMPDEST POP PUSH1 0x60 DUP4 ADD MLOAD PUSH2 0x383B PUSH1 0x60 DUP7 ADD DUP3 PUSH2 0x342D JUMP JUMPDEST POP PUSH1 0x80 DUP4 ADD MLOAD PUSH2 0x384E PUSH1 0x80 DUP7 ADD DUP3 PUSH2 0x342D JUMP JUMPDEST POP PUSH1 0xA0 DUP4 ADD MLOAD PUSH2 0x3861 PUSH1 0xA0 DUP7 ADD DUP3 PUSH2 0x39E1 JUMP JUMPDEST POP PUSH1 0xC0 DUP4 ADD MLOAD PUSH2 0x3874 PUSH1 0xC0 DUP7 ADD DUP3 PUSH2 0x39E1 JUMP JUMPDEST POP DUP1 SWAP2 POP POP SWAP3 SWAP2 POP POP JUMP JUMPDEST PUSH1 0x0 PUSH1 0xE0 DUP4 ADD PUSH1 0x0 DUP4 ADD MLOAD DUP5 DUP3 SUB PUSH1 0x0 DUP7 ADD MSTORE PUSH2 0x389C DUP3 DUP3 PUSH2 0x35E6 JUMP JUMPDEST SWAP2 POP POP PUSH1 0x20 DUP4 ADD MLOAD DUP5 DUP3 SUB PUSH1 0x20 DUP7 ADD MSTORE PUSH2 0x38B6 DUP3 DUP3 PUSH2 0x35E6 JUMP JUMPDEST SWAP2 POP POP PUSH1 0x40 DUP4 ADD MLOAD PUSH2 0x38CB PUSH1 0x40 DUP7 ADD DUP3 PUSH2 0x35C8 JUMP JUMPDEST POP PUSH1 0x60 DUP4 ADD MLOAD PUSH2 0x38DE PUSH1 0x60 DUP7 ADD DUP3 PUSH2 0x35B9 JUMP JUMPDEST POP PUSH1 0x80 DUP4 ADD MLOAD DUP5 DUP3 SUB PUSH1 0x80 DUP7 ADD MSTORE PUSH2 0x38F6 DUP3 DUP3 PUSH2 0x35E6 JUMP JUMPDEST SWAP2 POP POP PUSH1 0xA0 DUP4 ADD MLOAD DUP5 DUP3 SUB PUSH1 0xA0 DUP7 ADD MSTORE PUSH2 0x3910 DUP3 DUP3 PUSH2 0x35E6 JUMP JUMPDEST SWAP2 POP POP PUSH1 0xC0 DUP4 ADD MLOAD PUSH2 0x3925 PUSH1 0xC0 DUP7 ADD DUP3 PUSH2 0x342D JUMP JUMPDEST POP DUP1 SWAP2 POP POP SWAP3 SWAP2 POP POP JUMP JUMPDEST PUSH1 0x0 PUSH1 0xE0 DUP4 ADD PUSH1 0x0 DUP4 ADD MLOAD DUP5 DUP3 SUB PUSH1 0x0 DUP7 ADD MSTORE PUSH2 0x394D DUP3 DUP3 PUSH2 0x35E6 JUMP JUMPDEST SWAP2 POP POP PUSH1 0x20 DUP4 ADD MLOAD DUP5 DUP3 SUB PUSH1 0x20 DUP7 ADD MSTORE PUSH2 0x3967 DUP3 DUP3 PUSH2 0x35E6 JUMP JUMPDEST SWAP2 POP POP PUSH1 0x40 DUP4 ADD MLOAD PUSH2 0x397C PUSH1 0x40 DUP7 ADD DUP3 PUSH2 0x35C8 JUMP JUMPDEST POP PUSH1 0x60 DUP4 ADD MLOAD PUSH2 0x398F PUSH1 0x60 DUP7 ADD DUP3 PUSH2 0x35B9 JUMP JUMPDEST POP PUSH1 0x80 DUP4 ADD MLOAD DUP5 DUP3 SUB PUSH1 0x80 DUP7 ADD MSTORE PUSH2 0x39A7 DUP3 DUP3 PUSH2 0x35E6 JUMP JUMPDEST SWAP2 POP POP PUSH1 0xA0 DUP4 ADD MLOAD DUP5 DUP3 SUB PUSH1 0xA0 DUP7 ADD MSTORE PUSH2 0x39C1 DUP3 DUP3 PUSH2 0x35E6 JUMP JUMPDEST SWAP2 POP POP PUSH1 0xC0 DUP4 ADD MLOAD PUSH2 0x39D6 PUSH1 0xC0 DUP7 ADD DUP3 PUSH2 0x342D JUMP JUMPDEST POP DUP1 SWAP2 POP POP SWAP3 SWAP2 POP POP JUMP JUMPDEST PUSH2 0x39EA DUP2 PUSH2 0x3DFC JUMP JUMPDEST DUP3 MSTORE POP POP JUMP JUMPDEST PUSH2 0x39F9 DUP2 PUSH2 0x3DFC JUMP JUMPDEST DUP3 MSTORE POP POP JUMP JUMPDEST PUSH1 0x0 PUSH2 0x3A0B DUP3 DUP5 PUSH2 0x3658 JUMP JUMPDEST SWAP2 POP DUP2 SWAP1 POP SWAP3 SWAP2 POP POP JUMP JUMPDEST PUSH1 0x0 PUSH2 0x3A22 DUP3 DUP5 PUSH2 0x3689 JUMP JUMPDEST SWAP2 POP DUP2 SWAP1 POP SWAP3 SWAP2 POP POP JUMP JUMPDEST PUSH1 0x0 PUSH1 0x20 DUP3 ADD SWAP1 POP PUSH2 0x3A42 PUSH1 0x0 DUP4 ADD DUP5 PUSH2 0x343C JUMP JUMPDEST SWAP3 SWAP2 POP POP JUMP JUMPDEST PUSH1 0x0 PUSH1 0x20 DUP3 ADD SWAP1 POP DUP2 DUP2 SUB PUSH1 0x0 DUP4 ADD MSTORE PUSH2 0x3A62 DUP2 DUP5 PUSH2 0x344B JUMP JUMPDEST SWAP1 POP SWAP3 SWAP2 POP POP JUMP JUMPDEST PUSH1 0x0 PUSH1 0x20 DUP3 ADD SWAP1 POP DUP2 DUP2 SUB PUSH1 0x0 DUP4 ADD MSTORE PUSH2 0x3A84 DUP2 DUP5 PUSH2 0x34C0 JUMP JUMPDEST SWAP1 POP SWAP3 SWAP2 POP POP JUMP JUMPDEST PUSH1 0x0 PUSH1 0x20 DUP3 ADD SWAP1 POP DUP2 DUP2 SUB PUSH1 0x0 DUP4 ADD MSTORE PUSH2 0x3AA6 DUP2 DUP5 PUSH2 0x3535 JUMP JUMPDEST SWAP1 POP SWAP3 SWAP2 POP POP JUMP JUMPDEST PUSH1 0x0 PUSH1 0x20 DUP3 ADD SWAP1 POP PUSH2 0x3AC3 PUSH1 0x0 DUP4 ADD DUP5 PUSH2 0x35AA JUMP JUMPDEST SWAP3 SWAP2 POP POP JUMP JUMPDEST PUSH1 0x0 PUSH1 0x20 DUP3 ADD SWAP1 POP PUSH2 0x3ADE PUSH1 0x0 DUP4 ADD DUP5 PUSH2 0x35D7 JUMP JUMPDEST SWAP3 SWAP2 POP POP JUMP JUMPDEST PUSH1 0x0 PUSH1 0xE0 DUP3 ADD SWAP1 POP DUP2 DUP2 SUB PUSH1 0x0 DUP4 ADD MSTORE PUSH2 0x3AFE DUP2 DUP11 PUSH2 0x361F JUMP JUMPDEST SWAP1 POP DUP2 DUP2 SUB PUSH1 0x20 DUP4 ADD MSTORE PUSH2 0x3B12 DUP2 DUP10 PUSH2 0x361F JUMP JUMPDEST SWAP1 POP PUSH2 0x3B21 PUSH1 0x40 DUP4 ADD DUP9 PUSH2 0x39F0 JUMP JUMPDEST PUSH2 0x3B2E PUSH1 0x60 DUP4 ADD DUP8 PUSH2 0x343C JUMP JUMPDEST PUSH2 0x3B3B PUSH1 0x80 DUP4 ADD DUP7 PUSH2 0x343C JUMP JUMPDEST PUSH2 0x3B48 PUSH1 0xA0 DUP4 ADD DUP6 PUSH2 0x39F0 JUMP JUMPDEST PUSH2 0x3B55 PUSH1 0xC0 DUP4 ADD DUP5 PUSH2 0x39F0 JUMP JUMPDEST SWAP9 SWAP8 POP POP POP POP POP POP POP POP JUMP JUMPDEST PUSH1 0x0 PUSH1 0x20 DUP3 ADD SWAP1 POP DUP2 DUP2 SUB PUSH1 0x0 DUP4 ADD MSTORE PUSH2 0x3B7B DUP2 DUP5 PUSH2 0x3772 JUMP JUMPDEST SWAP1 POP SWAP3 SWAP2 POP POP JUMP JUMPDEST PUSH1 0x0 PUSH1 0x20 DUP3 ADD SWAP1 POP DUP2 DUP2 SUB PUSH1 0x0 DUP4 ADD MSTORE PUSH2 0x3B9D DUP2 DUP5 PUSH2 0x3930 JUMP JUMPDEST SWAP1 POP SWAP3 SWAP2 POP POP JUMP JUMPDEST PUSH1 0x0 PUSH1 0x20 DUP3 ADD SWAP1 POP PUSH2 0x3BBA PUSH1 0x0 DUP4 ADD DUP5 PUSH2 0x39F0 JUMP JUMPDEST SWAP3 SWAP2 POP POP JUMP JUMPDEST PUSH1 0x0 PUSH2 0x3BCA PUSH2 0x3BDB JUMP JUMPDEST SWAP1 POP PUSH2 0x3BD6 DUP3 DUP3 PUSH2 0x3E9E JUMP JUMPDEST SWAP2 SWAP1 POP JUMP JUMPDEST PUSH1 0x0 PUSH1 0x40 MLOAD SWAP1 POP SWAP1 JUMP JUMPDEST PUSH1 0x0 PUSH8 0xFFFFFFFFFFFFFFFF DUP3 GT ISZERO PUSH2 0x3C00 JUMPI PUSH2 0x3BFF PUSH2 0x3FD4 JUMP JUMPDEST JUMPDEST PUSH2 0x3C09 DUP3 PUSH2 0x4017 JUMP JUMPDEST SWAP1 POP PUSH1 0x20 DUP2 ADD SWAP1 POP SWAP2 SWAP1 POP JUMP JUMPDEST PUSH1 0x0 DUP2 SWAP1 POP PUSH1 0x20 DUP3 ADD SWAP1 POP SWAP2 SWAP1 POP JUMP JUMPDEST PUSH1 0x0 DUP2 SWAP1 POP PUSH1 0x20 DUP3 ADD SWAP1 POP SWAP2 SWAP1 POP JUMP JUMPDEST PUSH1 0x0 DUP2 SWAP1 POP PUSH1 0x20 DUP3 ADD SWAP1 POP SWAP2 SWAP1 POP JUMP JUMPDEST PUSH1 0x0 DUP2 SWAP1 POP DUP2 PUSH1 0x0 MSTORE PUSH1 0x20 PUSH1 0x0 KECCAK256 SWAP1 POP SWAP2 SWAP1 POP JUMP JUMPDEST PUSH1 0x0 DUP2 MLOAD SWAP1 POP SWAP2 SWAP1 POP JUMP JUMPDEST PUSH1 0x0 DUP2 MLOAD SWAP1 POP SWAP2 SWAP1 POP JUMP JUMPDEST PUSH1 0x0 DUP2 MLOAD SWAP1 POP SWAP2 SWAP1 POP JUMP JUMPDEST PUSH1 0x0 DUP2 MLOAD SWAP1 POP SWAP2 SWAP1 POP JUMP JUMPDEST PUSH1 0x0 PUSH1 0x20 DUP3 ADD SWAP1 POP SWAP2 SWAP1 POP JUMP JUMPDEST PUSH1 0x0 PUSH1 0x20 DUP3 ADD SWAP1 POP SWAP2 SWAP1 POP JUMP JUMPDEST PUSH1 0x0 PUSH1 0x20 DUP3 ADD SWAP1 POP SWAP2 SWAP1 POP JUMP JUMPDEST PUSH1 0x0 DUP3 DUP3 MSTORE PUSH1 0x20 DUP3 ADD SWAP1 POP SWAP3 SWAP2 POP POP JUMP JUMPDEST PUSH1 0x0 DUP3 DUP3 MSTORE PUSH1 0x20 DUP3 ADD SWAP1 POP SWAP3 SWAP2 POP POP JUMP JUMPDEST PUSH1 0x0 DUP3 DUP3 MSTORE PUSH1 0x20 DUP3 ADD SWAP1 POP SWAP3 SWAP2 POP POP JUMP JUMPDEST PUSH1 0x0 DUP3 DUP3 MSTORE PUSH1 0x20 DUP3 ADD SWAP1 POP SWAP3 SWAP2 POP POP JUMP JUMPDEST PUSH1 0x0 DUP3 DUP3 MSTORE PUSH1 0x20 DUP3 ADD SWAP1 POP SWAP3 SWAP2 POP POP JUMP JUMPDEST PUSH1 0x0 DUP2 SWAP1 POP SWAP3 SWAP2 POP POP JUMP JUMPDEST PUSH1 0x0 PUSH2 0x3D19 DUP3 PUSH2 0x3DFC JUMP JUMPDEST SWAP2 POP PUSH2 0x3D24 DUP4 PUSH2 0x3DFC JUMP JUMPDEST SWAP3 POP DUP3 PUSH32 0xFFFFFFFFFFFFFFFFFFFFFFFFFFFFFFFFFFFFFFFFFFFFFFFFFFFFFFFFFFFFFFFF SUB DUP3 GT ISZERO PUSH2 0x3D59 JUMPI PUSH2 0x3D58 PUSH2 0x3F18 JUMP JUMPDEST JUMPDEST DUP3 DUP3 ADD SWAP1 POP SWAP3 SWAP2 POP POP JUMP JUMPDEST PUSH1 0x0 PUSH2 0x3D6F DUP3 PUSH2 0x3DFC JUMP JUMPDEST SWAP2 POP PUSH2 0x3D7A DUP4 PUSH2 0x3DFC JUMP JUMPDEST SWAP3 POP DUP3 DUP3 LT ISZERO PUSH2 0x3D8D JUMPI PUSH2 0x3D8C PUSH2 0x3F18 JUMP JUMPDEST JUMPDEST DUP3 DUP3 SUB SWAP1 POP SWAP3 SWAP2 POP POP JUMP JUMPDEST PUSH1 0x0 PUSH2 0x3DA3 DUP3 PUSH2 0x3DDC JUMP JUMPDEST SWAP1 POP SWAP2 SWAP1 POP JUMP JUMPDEST PUSH1 0x0 DUP2 ISZERO ISZERO SWAP1 POP SWAP2 SWAP1 POP JUMP JUMPDEST PUSH1 0x0 DUP2 SWAP1 POP PUSH2 0x3DC4 DUP3 PUSH2 0x4028 JUMP JUMPDEST SWAP2 SWAP1 POP JUMP JUMPDEST PUSH1 0x0 DUP2 SWAP1 POP PUSH2 0x3DD7 DUP3 PUSH2 0x403C JUMP JUMPDEST SWAP2 SWAP1 POP JUMP JUMPDEST PUSH1 0x0 PUSH20 0xFFFFFFFFFFFFFFFFFFFFFFFFFFFFFFFFFFFFFFFF DUP3 AND SWAP1 POP SWAP2 SWAP1 POP JUMP JUMPDEST PUSH1 0x0 DUP2 SWAP1 POP SWAP2 SWAP1 POP JUMP JUMPDEST PUSH1 0x0 PUSH2 0x3E11 DUP3 PUSH2 0x3DB6 JUMP JUMPDEST SWAP1 POP SWAP2 SWAP1 POP JUMP JUMPDEST PUSH1 0x0 PUSH2 0x3E23 DUP3 PUSH2 0x3DC9 JUMP JUMPDEST SWAP1 POP SWAP2 SWAP1 POP JUMP JUMPDEST DUP3 DUP2 DUP4 CALLDATACOPY PUSH1 0x0 DUP4 DUP4 ADD MSTORE POP POP POP JUMP JUMPDEST PUSH1 0x0 JUMPDEST DUP4 DUP2 LT ISZERO PUSH2 0x3E57 JUMPI DUP1 DUP3 ADD MLOAD DUP2 DUP5 ADD MSTORE PUSH1 0x20 DUP2 ADD SWAP1 POP PUSH2 0x3E3C JUMP JUMPDEST DUP4 DUP2 GT ISZERO PUSH2 0x3E66 JUMPI PUSH1 0x0 DUP5 DUP5 ADD MSTORE JUMPDEST POP POP POP POP JUMP JUMPDEST PUSH1 0x0 PUSH1 0x2 DUP3 DIV SWAP1 POP PUSH1 0x1 DUP3 AND DUP1 PUSH2 0x3E84 JUMPI PUSH1 0x7F DUP3 AND SWAP2 POP JUMPDEST PUSH1 0x20 DUP3 LT DUP2 EQ ISZERO PUSH2 0x3E98 JUMPI PUSH2 0x3E97 PUSH2 0x3F76 JUMP JUMPDEST JUMPDEST POP SWAP2 SWAP1 POP JUMP JUMPDEST PUSH2 0x3EA7 DUP3 PUSH2 0x4017 JUMP JUMPDEST DUP2 ADD DUP2 DUP2 LT PUSH8 0xFFFFFFFFFFFFFFFF DUP3 GT OR ISZERO PUSH2 0x3EC6 JUMPI PUSH2 0x3EC5 PUSH2 0x3FD4 JUMP JUMPDEST JUMPDEST DUP1 PUSH1 0x40 MSTORE POP POP POP JUMP JUMPDEST PUSH1 0x0 PUSH2 0x3EDA DUP3 PUSH2 0x3DFC JUMP JUMPDEST SWAP2 POP PUSH32 0xFFFFFFFFFFFFFFFFFFFFFFFFFFFFFFFFFFFFFFFFFFFFFFFFFFFFFFFFFFFFFFFF DUP3 EQ ISZERO PUSH2 0x3F0D JUMPI PUSH2 0x3F0C PUSH2 0x3F18 JUMP JUMPDEST JUMPDEST PUSH1 0x1 DUP3 ADD SWAP1 POP SWAP2 SWAP1 POP JUMP JUMPDEST PUSH32 0x4E487B7100000000000000000000000000000000000000000000000000000000 PUSH1 0x0 MSTORE PUSH1 0x11 PUSH1 0x4 MSTORE PUSH1 0x24 PUSH1 0x0 REVERT JUMPDEST PUSH32 0x4E487B7100000000000000000000000000000000000000000000000000000000 PUSH1 0x0 MSTORE PUSH1 0x21 PUSH1 0x4 MSTORE PUSH1 0x24 PUSH1 0x0 REVERT JUMPDEST PUSH32 0x4E487B7100000000000000000000000000000000000000000000000000000000 PUSH1 0x0 MSTORE PUSH1 0x22 PUSH1 0x4 MSTORE PUSH1 0x24 PUSH1 0x0 REVERT JUMPDEST PUSH32 0x4E487B7100000000000000000000000000000000000000000000000000000000 PUSH1 0x0 MSTORE PUSH1 0x32 PUSH1 0x4 MSTORE PUSH1 0x24 PUSH1 0x0 REVERT JUMPDEST PUSH32 0x4E487B7100000000000000000000000000000000000000000000000000000000 PUSH1 0x0 MSTORE PUSH1 0x41 PUSH1 0x4 MSTORE PUSH1 0x24 PUSH1 0x0 REVERT JUMPDEST PUSH1 0x0 DUP1 REVERT JUMPDEST PUSH1 0x0 DUP1 REVERT JUMPDEST PUSH1 0x0 DUP1 REVERT JUMPDEST PUSH1 0x0 DUP1 REVERT JUMPDEST PUSH1 0x0 PUSH1 0x1F NOT PUSH1 0x1F DUP4 ADD AND SWAP1 POP SWAP2 SWAP1 POP JUMP JUMPDEST PUSH1 0x3 DUP2 LT PUSH2 0x4039 JUMPI PUSH2 0x4038 PUSH2 0x3F47 JUMP JUMPDEST JUMPDEST POP JUMP JUMPDEST PUSH1 0x9 DUP2 LT PUSH2 0x404D JUMPI PUSH2 0x404C PUSH2 0x3F47 JUMP JUMPDEST JUMPDEST POP JUMP JUMPDEST PUSH2 0x4059 DUP2 PUSH2 0x3D98 JUMP JUMPDEST DUP2 EQ PUSH2 0x4064 JUMPI PUSH1 0x0 DUP1 REVERT JUMPDEST POP JUMP JUMPDEST PUSH1 0x3 DUP2 LT PUSH2 0x4074 JUMPI PUSH1 0x0 DUP1 REVERT JUMPDEST POP JUMP JUMPDEST PUSH1 0x9 DUP2 LT PUSH2 0x4084 JUMPI PUSH1 0x0 DUP1 REVERT JUMPDEST POP JUMP JUMPDEST PUSH2 0x4090 DUP2 PUSH2 0x3DFC JUMP JUMPDEST DUP2 EQ PUSH2 0x409B JUMPI PUSH1 0x0 DUP1 REVERT JUMPDEST POP JUMP INVALID LOG2 PUSH5 0x6970667358 0x22 SLT KECCAK256 RETURN 0xA5 0x4E BLOCKHASH 0x5C DELEGATECALL 0xE7 CREATE AND 0xD8 PUSH22 0x99CB548E815A5C300223D1D6A98BA3736C3AE44CCE64 PUSH20 0x6F6C634300080700330000000000000000000000 "
				},
				"gasEstimates": {
					"creation": {
						"codeDepositCost": "3319200",
						"executionCost": "3691",
						"totalCost": "3322891"
					},
					"external": {
						"GetUsersByStatus(uint8)": "infinite",
						"GetUsersByType(uint8)": "infinite",
						"Owner()": "2578",
						"PatchTrannsactions(uint256)": "infinite",
						"ReadDrug(string)": "infinite",
						"ReadDrugsByUser(address)": "infinite",
						"ReadParentAndSiblingsTransactions(string,string,address)": "infinite",
						"ReadRoleByUser()": "7174",
						"ReadTransactionsByDrug(string)": "infinite",
						"ReadTransactionsByPatchNo(string,string)": "infinite",
						"ReadTransactionsByUser(address)": "infinite",
						"ReadUser(address)": "infinite",
						"ReturnRemainingAmount(string,string,address)": "infinite",
						"compareStringsbyBytes(string,string)": "infinite"
					}
				},
				"methodIdentifiers": {
					"GetUsersByStatus(uint8)": "7a53c535",
					"GetUsersByType(uint8)": "0f9de977",
					"Owner()": "b4a99a4e",
					"PatchTrannsactions(uint256)": "1567697c",
					"ReadDrug(string)": "cdf7e73d",
					"ReadDrugsByUser(address)": "ff946c85",
					"ReadParentAndSiblingsTransactions(string,string,address)": "31a6db4d",
					"ReadRoleByUser()": "783a7895",
					"ReadTransactionsByDrug(string)": "4b2d14aa",
					"ReadTransactionsByPatchNo(string,string)": "40d37caf",
					"ReadTransactionsByUser(address)": "99b5bbdd",
					"ReadUser(address)": "cd1720d1",
					"ReturnRemainingAmount(string,string,address)": "798d2122",
					"compareStringsbyBytes(string,string)": "e9a734ff"
				}
			},
			"storageLayout": {
				"storage": [
					{
						"astId": 32,
						"contract": "contracts/Utils.sol:Utils",
						"label": "Owner",
						"offset": 0,
						"slot": "0",
						"type": "t_address"
					},
					{
						"astId": 64,
						"contract": "contracts/Utils.sol:Utils",
						"label": "UserAddressMapping",
						"offset": 0,
						"slot": "1",
						"type": "t_mapping(t_address,t_struct(User)59_storage)"
					},
					{
						"astId": 67,
						"contract": "contracts/Utils.sol:Utils",
						"label": "UsersAddresses",
						"offset": 0,
						"slot": "2",
						"type": "t_array(t_address)dyn_storage"
					},
					{
						"astId": 339,
						"contract": "contracts/Utils.sol:Utils",
						"label": "DrugRegNoMapping",
						"offset": 0,
						"slot": "3",
						"type": "t_mapping(t_string_memory_ptr,t_struct(Drug)326_storage)"
					},
					{
						"astId": 342,
						"contract": "contracts/Utils.sol:Utils",
						"label": "DrugsRegNos",
						"offset": 0,
						"slot": "4",
						"type": "t_array(t_string_storage)dyn_storage"
					},
					{
						"astId": 469,
						"contract": "contracts/Utils.sol:Utils",
						"label": "PatchTrannsactions",
						"offset": 0,
						"slot": "5",
						"type": "t_array(t_struct(PatchTransaction)465_storage)dyn_storage"
					}
				],
				"types": {
					"t_address": {
						"encoding": "inplace",
						"label": "address",
						"numberOfBytes": "20"
					},
					"t_array(t_address)dyn_storage": {
						"base": "t_address",
						"encoding": "dynamic_array",
						"label": "address[]",
						"numberOfBytes": "32"
					},
					"t_array(t_string_storage)dyn_storage": {
						"base": "t_string_storage",
						"encoding": "dynamic_array",
						"label": "string[]",
						"numberOfBytes": "32"
					},
					"t_array(t_struct(PatchTransaction)465_storage)dyn_storage": {
						"base": "t_struct(PatchTransaction)465_storage",
						"encoding": "dynamic_array",
						"label": "struct Utils.PatchTransaction[]",
						"numberOfBytes": "32"
					},
					"t_enum(Statuses)6": {
						"encoding": "inplace",
						"label": "enum Utils.Statuses",
						"numberOfBytes": "1"
					},
					"t_enum(UserRoles)42": {
						"encoding": "inplace",
						"label": "enum Utils.UserRoles",
						"numberOfBytes": "1"
					},
					"t_mapping(t_address,t_struct(User)59_storage)": {
						"encoding": "mapping",
						"key": "t_address",
						"label": "mapping(address => struct Utils.User)",
						"numberOfBytes": "32",
						"value": "t_struct(User)59_storage"
					},
					"t_mapping(t_string_memory_ptr,t_struct(Drug)326_storage)": {
						"encoding": "mapping",
						"key": "t_string_memory_ptr",
						"label": "mapping(string => struct Utils.Drug)",
						"numberOfBytes": "32",
						"value": "t_struct(Drug)326_storage"
					},
					"t_string_memory_ptr": {
						"encoding": "bytes",
						"label": "string",
						"numberOfBytes": "32"
					},
					"t_string_storage": {
						"encoding": "bytes",
						"label": "string",
						"numberOfBytes": "32"
					},
					"t_struct(Drug)326_storage": {
						"encoding": "inplace",
						"label": "struct Utils.Drug",
						"members": [
							{
								"astId": 318,
								"contract": "contracts/Utils.sol:Utils",
								"label": "DrugName",
								"offset": 0,
								"slot": "0",
								"type": "t_string_storage"
							},
							{
								"astId": 320,
								"contract": "contracts/Utils.sol:Utils",
								"label": "Manufacturer",
								"offset": 0,
								"slot": "1",
								"type": "t_address"
							},
							{
								"astId": 323,
								"contract": "contracts/Utils.sol:Utils",
								"label": "DrugStatus",
								"offset": 20,
								"slot": "1",
								"type": "t_enum(Statuses)6"
							},
							{
								"astId": 325,
								"contract": "contracts/Utils.sol:Utils",
								"label": "DrugRegNo",
								"offset": 0,
								"slot": "2",
								"type": "t_string_storage"
							}
						],
						"numberOfBytes": "96"
					},
					"t_struct(PatchTransaction)465_storage": {
						"encoding": "inplace",
						"label": "struct Utils.PatchTransaction",
						"members": [
							{
								"astId": 452,
								"contract": "contracts/Utils.sol:Utils",
								"label": "DrugRegNo",
								"offset": 0,
								"slot": "0",
								"type": "t_string_storage"
							},
							{
								"astId": 454,
								"contract": "contracts/Utils.sol:Utils",
								"label": "PatchNo",
								"offset": 0,
								"slot": "1",
								"type": "t_string_storage"
							},
							{
								"astId": 456,
								"contract": "contracts/Utils.sol:Utils",
								"label": "LineNo",
								"offset": 0,
								"slot": "2",
								"type": "t_uint256"
							},
							{
								"astId": 458,
								"contract": "contracts/Utils.sol:Utils",
								"label": "FromID",
								"offset": 0,
								"slot": "3",
								"type": "t_address"
							},
							{
								"astId": 460,
								"contract": "contracts/Utils.sol:Utils",
								"label": "ToID",
								"offset": 0,
								"slot": "4",
								"type": "t_address"
							},
							{
								"astId": 462,
								"contract": "contracts/Utils.sol:Utils",
								"label": "Amount",
								"offset": 0,
								"slot": "5",
								"type": "t_uint256"
							},
							{
								"astId": 464,
								"contract": "contracts/Utils.sol:Utils",
								"label": "TransactionDate",
								"offset": 0,
								"slot": "6",
								"type": "t_uint256"
							}
						],
						"numberOfBytes": "224"
					},
					"t_struct(User)59_storage": {
						"encoding": "inplace",
						"label": "struct Utils.User",
						"members": [
							{
								"astId": 44,
								"contract": "contracts/Utils.sol:Utils",
								"label": "UserID",
								"offset": 0,
								"slot": "0",
								"type": "t_string_storage"
							},
							{
								"astId": 46,
								"contract": "contracts/Utils.sol:Utils",
								"label": "UserName",
								"offset": 0,
								"slot": "1",
								"type": "t_string_storage"
							},
							{
								"astId": 49,
								"contract": "contracts/Utils.sol:Utils",
								"label": "UserRole",
								"offset": 0,
								"slot": "2",
								"type": "t_enum(UserRoles)42"
							},
							{
								"astId": 52,
								"contract": "contracts/Utils.sol:Utils",
								"label": "UserStatus",
								"offset": 1,
								"slot": "2",
								"type": "t_enum(Statuses)6"
							},
							{
								"astId": 54,
								"contract": "contracts/Utils.sol:Utils",
								"label": "Latitude",
								"offset": 0,
								"slot": "3",
								"type": "t_string_storage"
							},
							{
								"astId": 56,
								"contract": "contracts/Utils.sol:Utils",
								"label": "Longitude",
								"offset": 0,
								"slot": "4",
								"type": "t_string_storage"
							},
							{
								"astId": 58,
								"contract": "contracts/Utils.sol:Utils",
								"label": "UserAddress",
								"offset": 0,
								"slot": "5",
								"type": "t_address"
							}
						],
						"numberOfBytes": "192"
					},
					"t_uint256": {
						"encoding": "inplace",
						"label": "uint256",
						"numberOfBytes": "32"
					}
				}
			},
			"userdoc": {
				"kind": "user",
				"methods": {},
				"version": 1
			}
		}
	}
}