{
	"contracts/Drugs.sol": {
		"Drugs": {
			"abi": [
				{
					"inputs": [],
					"stateMutability": "nonpayable",
					"type": "constructor"
				},
				{
					"inputs": [
						{
							"internalType": "string",
							"name": "_regno",
							"type": "string"
						}
					],
					"name": "addDrug",
					"outputs": [],
					"stateMutability": "nonpayable",
					"type": "function"
				},
				{
					"inputs": [
						{
							"internalType": "uint256",
							"name": "_drugid",
							"type": "uint256"
						},
						{
							"internalType": "bool",
							"name": "_status",
							"type": "bool"
						}
					],
					"name": "changeDrugStatus",
					"outputs": [],
					"stateMutability": "nonpayable",
					"type": "function"
				},
				{
					"inputs": [
						{
							"internalType": "uint256",
							"name": "",
							"type": "uint256"
						}
					],
					"name": "drugs",
					"outputs": [
						{
							"internalType": "uint256",
							"name": "DrugID",
							"type": "uint256"
						},
						{
							"internalType": "string",
							"name": "RegNo",
							"type": "string"
						},
						{
							"internalType": "address",
							"name": "Manufacturer",
							"type": "address"
						},
						{
							"internalType": "bool",
							"name": "IsActive",
							"type": "bool"
						}
					],
					"stateMutability": "view",
					"type": "function"
				},
				{
					"inputs": [],
					"name": "drugsCount",
					"outputs": [
						{
							"internalType": "uint256",
							"name": "",
							"type": "uint256"
						}
					],
					"stateMutability": "view",
					"type": "function"
				},
				{
					"inputs": [
						{
							"internalType": "uint256",
							"name": "_drugid",
							"type": "uint256"
						}
					],
					"name": "get",
					"outputs": [
						{
							"components": [
								{
									"internalType": "uint256",
									"name": "DrugID",
									"type": "uint256"
								},
								{
									"internalType": "string",
									"name": "RegNo",
									"type": "string"
								},
								{
									"internalType": "address",
									"name": "Manufacturer",
									"type": "address"
								},
								{
									"internalType": "bool",
									"name": "IsActive",
									"type": "bool"
								}
							],
							"internalType": "struct Drugs.Drug",
							"name": "",
							"type": "tuple"
						}
					],
					"stateMutability": "view",
					"type": "function"
				},
				{
					"inputs": [],
					"name": "getDrug",
					"outputs": [
						{
							"internalType": "string[]",
							"name": "",
							"type": "string[]"
						},
						{
							"internalType": "address[]",
							"name": "",
							"type": "address[]"
						},
						{
							"internalType": "bool[]",
							"name": "",
							"type": "bool[]"
						}
					],
					"stateMutability": "view",
					"type": "function"
				},
				{
					"inputs": [],
					"name": "getDrugs",
					"outputs": [
						{
							"components": [
								{
									"internalType": "uint256",
									"name": "DrugID",
									"type": "uint256"
								},
								{
									"internalType": "string",
									"name": "RegNo",
									"type": "string"
								},
								{
									"internalType": "address",
									"name": "Manufacturer",
									"type": "address"
								},
								{
									"internalType": "bool",
									"name": "IsActive",
									"type": "bool"
								}
							],
							"internalType": "struct Drugs.Drug[]",
							"name": "",
							"type": "tuple[]"
						}
					],
					"stateMutability": "view",
					"type": "function"
				},
				{
					"inputs": [
						{
							"internalType": "string",
							"name": "",
							"type": "string"
						}
					],
					"name": "newdrugs",
					"outputs": [
						{
							"internalType": "uint256",
							"name": "DrugID",
							"type": "uint256"
						},
						{
							"internalType": "string",
							"name": "RegNo",
							"type": "string"
						},
						{
							"internalType": "address",
							"name": "Manufacturer",
							"type": "address"
						},
						{
							"internalType": "bool",
							"name": "IsActive",
							"type": "bool"
						}
					],
					"stateMutability": "view",
					"type": "function"
				}
			],
			"devdoc": {
				"kind": "dev",
				"methods": {},
				"version": 1
			},
			"evm": {
				"assembly": "    /* \"contracts/Drugs.sol\":97:2000  contract Drugs {\r... */\n  mstore(0x40, 0x80)\n    /* \"contracts/Drugs.sol\":517:594  constructor()  {\r... */\n  callvalue\n  dup1\n  iszero\n  tag_1\n  jumpi\n  0x00\n  dup1\n  revert\ntag_1:\n  pop\n    /* \"contracts/Drugs.sol\":556:557  0 */\n  0x00\n    /* \"contracts/Drugs.sol\":543:553  drugsCount */\n  0x03\n    /* \"contracts/Drugs.sol\":543:557  drugsCount = 0 */\n  dup2\n  swap1\n  sstore\n  pop\n    /* \"contracts/Drugs.sol\":576:586  msg.sender */\n  caller\n    /* \"contracts/Drugs.sol\":568:573  owner */\n  0x00\n  dup1\n    /* \"contracts/Drugs.sol\":568:586  owner = msg.sender */\n  0x0100\n  exp\n  dup2\n  sload\n  dup2\n  0xffffffffffffffffffffffffffffffffffffffff\n  mul\n  not\n  and\n  swap1\n  dup4\n  0xffffffffffffffffffffffffffffffffffffffff\n  and\n  mul\n  or\n  swap1\n  sstore\n  pop\n    /* \"contracts/Drugs.sol\":97:2000  contract Drugs {\r... */\n  dataSize(sub_0)\n  dup1\n  dataOffset(sub_0)\n  0x00\n  codecopy\n  0x00\n  return\nstop\n\nsub_0: assembly {\n        /* \"contracts/Drugs.sol\":97:2000  contract Drugs {\r... */\n      mstore(0x40, 0x80)\n      callvalue\n      dup1\n      iszero\n      tag_1\n      jumpi\n      0x00\n      dup1\n      revert\n    tag_1:\n      pop\n      jumpi(tag_2, lt(calldatasize, 0x04))\n      shr(0xe0, calldataload(0x00))\n      dup1\n      0xb0d548df\n      gt\n      tag_11\n      jumpi\n      dup1\n      0xb0d548df\n      eq\n      tag_7\n      jumpi\n      dup1\n      0xe259effa\n      eq\n      tag_8\n      jumpi\n      dup1\n      0xf2a50281\n      eq\n      tag_9\n      jumpi\n      dup1\n      0xfca5e61e\n      eq\n      tag_10\n      jumpi\n      jump(tag_2)\n    tag_11:\n      dup1\n      0x223883de\n      eq\n      tag_3\n      jumpi\n      dup1\n      0x5fb07a62\n      eq\n      tag_4\n      jumpi\n      dup1\n      0x92812e6f\n      eq\n      tag_5\n      jumpi\n      dup1\n      0x9507d39a\n      eq\n      tag_6\n      jumpi\n    tag_2:\n      0x00\n      dup1\n      revert\n        /* \"contracts/Drugs.sol\":600:749  function addDrug(string memory _regno) public{\r... */\n    tag_3:\n      tag_12\n      0x04\n      dup1\n      calldatasize\n      sub\n      dup2\n      add\n      swap1\n      tag_13\n      swap2\n      swap1\n      tag_14\n      jump\t// in\n    tag_13:\n      tag_15\n      jump\t// in\n    tag_12:\n      stop\n        /* \"contracts/Drugs.sol\":1599:1867  function getDrugs() public view returns (Drug[] memory){\r... */\n    tag_4:\n      tag_16\n      tag_17\n      jump\t// in\n    tag_16:\n      mload(0x40)\n      tag_18\n      swap2\n      swap1\n      tag_19\n      jump\t// in\n    tag_18:\n      mload(0x40)\n      dup1\n      swap2\n      sub\n      swap1\n      return\n        /* \"contracts/Drugs.sol\":488:510  uint public drugsCount */\n    tag_5:\n      tag_20\n      tag_21\n      jump\t// in\n    tag_20:\n      mload(0x40)\n      tag_22\n      swap2\n      swap1\n      tag_23\n      jump\t// in\n    tag_22:\n      mload(0x40)\n      dup1\n      swap2\n      sub\n      swap1\n      return\n        /* \"contracts/Drugs.sol\":786:886  function get(uint _drugid) public view returns(Drug memory) {\r... */\n    tag_6:\n      tag_24\n      0x04\n      dup1\n      calldatasize\n      sub\n      dup2\n      add\n      swap1\n      tag_25\n      swap2\n      swap1\n      tag_26\n      jump\t// in\n    tag_25:\n      tag_27\n      jump\t// in\n    tag_24:\n      mload(0x40)\n      tag_28\n      swap2\n      swap1\n      tag_29\n      jump\t// in\n    tag_28:\n      mload(0x40)\n      dup1\n      swap2\n      sub\n      swap1\n      return\n        /* \"contracts/Drugs.sol\":391:431  mapping (string => Drug) public newdrugs */\n    tag_7:\n      tag_30\n      0x04\n      dup1\n      calldatasize\n      sub\n      dup2\n      add\n      swap1\n      tag_31\n      swap2\n      swap1\n      tag_14\n      jump\t// in\n    tag_31:\n      tag_32\n      jump\t// in\n    tag_30:\n      mload(0x40)\n      tag_33\n      swap5\n      swap4\n      swap3\n      swap2\n      swap1\n      tag_34\n      jump\t// in\n    tag_33:\n      mload(0x40)\n      dup1\n      swap2\n      sub\n      swap1\n      return\n        /* \"contracts/Drugs.sol\":1873:1995  function changeDrugStatus(uint _drugid, bool _status) public onlyOwner{\r... */\n    tag_8:\n      tag_35\n      0x04\n      dup1\n      calldatasize\n      sub\n      dup2\n      add\n      swap1\n      tag_36\n      swap2\n      swap1\n      tag_37\n      jump\t// in\n    tag_36:\n      tag_38\n      jump\t// in\n    tag_35:\n      stop\n        /* \"contracts/Drugs.sol\":931:1560  function getDrug() public view returns (string[] memory, address[] memory, bool[] memory){\r... */\n    tag_9:\n      tag_39\n      tag_40\n      jump\t// in\n    tag_39:\n      mload(0x40)\n      tag_41\n      swap4\n      swap3\n      swap2\n      swap1\n      tag_42\n      jump\t// in\n    tag_41:\n      mload(0x40)\n      dup1\n      swap2\n      sub\n      swap1\n      return\n        /* \"contracts/Drugs.sol\":349:384  mapping (uint => Drug) public drugs */\n    tag_10:\n      tag_43\n      0x04\n      dup1\n      calldatasize\n      sub\n      dup2\n      add\n      swap1\n      tag_44\n      swap2\n      swap1\n      tag_26\n      jump\t// in\n    tag_44:\n      tag_45\n      jump\t// in\n    tag_43:\n      mload(0x40)\n      tag_46\n      swap5\n      swap4\n      swap3\n      swap2\n      swap1\n      tag_34\n      jump\t// in\n    tag_46:\n      mload(0x40)\n      dup1\n      swap2\n      sub\n      swap1\n      return\n        /* \"contracts/Drugs.sol\":600:749  function addDrug(string memory _regno) public{\r... */\n    tag_15:\n        /* \"contracts/Drugs.sol\":676:718  Drug(drugsCount, _regno,msg.sender , true) */\n      mload(0x40)\n      dup1\n      0x80\n      add\n      0x40\n      mstore\n      dup1\n        /* \"contracts/Drugs.sol\":681:691  drugsCount */\n      sload(0x03)\n        /* \"contracts/Drugs.sol\":676:718  Drug(drugsCount, _regno,msg.sender , true) */\n      dup2\n      mstore\n      0x20\n      add\n        /* \"contracts/Drugs.sol\":693:699  _regno */\n      dup3\n        /* \"contracts/Drugs.sol\":676:718  Drug(drugsCount, _regno,msg.sender , true) */\n      dup2\n      mstore\n      0x20\n      add\n        /* \"contracts/Drugs.sol\":700:710  msg.sender */\n      caller\n        /* \"contracts/Drugs.sol\":676:718  Drug(drugsCount, _regno,msg.sender , true) */\n      0xffffffffffffffffffffffffffffffffffffffff\n      and\n      dup2\n      mstore\n      0x20\n      add\n        /* \"contracts/Drugs.sol\":713:717  true */\n      0x01\n        /* \"contracts/Drugs.sol\":676:718  Drug(drugsCount, _regno,msg.sender , true) */\n      iszero\n      iszero\n      dup2\n      mstore\n      pop\n        /* \"contracts/Drugs.sol\":656:661  drugs */\n      0x01\n        /* \"contracts/Drugs.sol\":656:673  drugs[drugsCount] */\n      0x00\n        /* \"contracts/Drugs.sol\":662:672  drugsCount */\n      sload(0x03)\n        /* \"contracts/Drugs.sol\":656:673  drugs[drugsCount] */\n      dup2\n      mstore\n      0x20\n      add\n      swap1\n      dup2\n      mstore\n      0x20\n      add\n      0x00\n      keccak256\n        /* \"contracts/Drugs.sol\":656:718  drugs[drugsCount] = Drug(drugsCount, _regno,msg.sender , true) */\n      0x00\n      dup3\n      add\n      mload\n      dup2\n      0x00\n      add\n      sstore\n      0x20\n      dup3\n      add\n      mload\n      dup2\n      0x01\n      add\n      swap1\n      dup1\n      mload\n      swap1\n      0x20\n      add\n      swap1\n      tag_48\n      swap3\n      swap2\n      swap1\n      tag_49\n      jump\t// in\n    tag_48:\n      pop\n      0x40\n      dup3\n      add\n      mload\n      dup2\n      0x02\n      add\n      exp(0x0100, 0x00)\n      dup2\n      sload\n      dup2\n      0xffffffffffffffffffffffffffffffffffffffff\n      mul\n      not\n      and\n      swap1\n      dup4\n      0xffffffffffffffffffffffffffffffffffffffff\n      and\n      mul\n      or\n      swap1\n      sstore\n      pop\n      0x60\n      dup3\n      add\n      mload\n      dup2\n      0x02\n      add\n      exp(0x0100, 0x14)\n      dup2\n      sload\n      dup2\n      0xff\n      mul\n      not\n      and\n      swap1\n      dup4\n      iszero\n      iszero\n      mul\n      or\n      swap1\n      sstore\n      pop\n      swap1\n      pop\n      pop\n        /* \"contracts/Drugs.sol\":729:739  drugsCount */\n      0x03\n      0x00\n        /* \"contracts/Drugs.sol\":729:741  drugsCount++ */\n      dup2\n      sload\n      dup1\n      swap3\n      swap2\n      swap1\n      tag_50\n      swap1\n      tag_51\n      jump\t// in\n    tag_50:\n      swap2\n      swap1\n      pop\n      sstore\n      pop\n        /* \"contracts/Drugs.sol\":600:749  function addDrug(string memory _regno) public{\r... */\n      pop\n      jump\t// out\n        /* \"contracts/Drugs.sol\":1599:1867  function getDrugs() public view returns (Drug[] memory){\r... */\n    tag_17:\n        /* \"contracts/Drugs.sol\":1640:1653  Drug[] memory */\n      0x60\n        /* \"contracts/Drugs.sol\":1665:1684  Drug[]    memory id */\n      0x00\n        /* \"contracts/Drugs.sol\":1698:1708  drugsCount */\n      sload(0x03)\n        /* \"contracts/Drugs.sol\":1687:1709  new Drug[](drugsCount) */\n      0xffffffffffffffff\n      dup2\n      gt\n      iszero\n      tag_53\n      jumpi\n      tag_54\n      tag_55\n      jump\t// in\n    tag_54:\n    tag_53:\n      mload(0x40)\n      swap1\n      dup1\n      dup3\n      mstore\n      dup1\n      0x20\n      mul\n      0x20\n      add\n      dup3\n      add\n      0x40\n      mstore\n      dup1\n      iszero\n      tag_56\n      jumpi\n      dup2\n      0x20\n      add\n    tag_57:\n      tag_58\n      tag_59\n      jump\t// in\n    tag_58:\n      dup2\n      mstore\n      0x20\n      add\n      swap1\n      0x01\n      swap1\n      sub\n      swap1\n      dup2\n      tag_57\n      jumpi\n      swap1\n      pop\n    tag_56:\n      pop\n        /* \"contracts/Drugs.sol\":1665:1709  Drug[]    memory id = new Drug[](drugsCount) */\n      swap1\n      pop\n        /* \"contracts/Drugs.sol\":1725:1731  uint i */\n      0x00\n        /* \"contracts/Drugs.sol\":1720:1840  for (uint i = 0; i < drugsCount; i++) {\r... */\n    tag_60:\n        /* \"contracts/Drugs.sol\":1741:1751  drugsCount */\n      sload(0x03)\n        /* \"contracts/Drugs.sol\":1737:1738  i */\n      dup2\n        /* \"contracts/Drugs.sol\":1737:1751  i < drugsCount */\n      lt\n        /* \"contracts/Drugs.sol\":1720:1840  for (uint i = 0; i < drugsCount; i++) {\r... */\n      iszero\n      tag_61\n      jumpi\n        /* \"contracts/Drugs.sol\":1773:1790  Drug storage drug */\n      0x00\n        /* \"contracts/Drugs.sol\":1793:1798  drugs */\n      0x01\n        /* \"contracts/Drugs.sol\":1793:1801  drugs[i] */\n      0x00\n        /* \"contracts/Drugs.sol\":1799:1800  i */\n      dup4\n        /* \"contracts/Drugs.sol\":1793:1801  drugs[i] */\n      dup2\n      mstore\n      0x20\n      add\n      swap1\n      dup2\n      mstore\n      0x20\n      add\n      0x00\n      keccak256\n        /* \"contracts/Drugs.sol\":1773:1801  Drug storage drug = drugs[i] */\n      swap1\n      pop\n        /* \"contracts/Drugs.sol\":1824:1828  drug */\n      dup1\n        /* \"contracts/Drugs.sol\":1816:1828  id[i] = drug */\n      mload(0x40)\n      dup1\n      0x80\n      add\n      0x40\n      mstore\n      swap1\n      dup2\n      0x00\n      dup3\n      add\n      sload\n      dup2\n      mstore\n      0x20\n      add\n      0x01\n      dup3\n      add\n      dup1\n      sload\n      tag_63\n      swap1\n      tag_64\n      jump\t// in\n    tag_63:\n      dup1\n      0x1f\n      add\n      0x20\n      dup1\n      swap2\n      div\n      mul\n      0x20\n      add\n      mload(0x40)\n      swap1\n      dup2\n      add\n      0x40\n      mstore\n      dup1\n      swap3\n      swap2\n      swap1\n      dup2\n      dup2\n      mstore\n      0x20\n      add\n      dup3\n      dup1\n      sload\n      tag_65\n      swap1\n      tag_64\n      jump\t// in\n    tag_65:\n      dup1\n      iszero\n      tag_66\n      jumpi\n      dup1\n      0x1f\n      lt\n      tag_67\n      jumpi\n      0x0100\n      dup1\n      dup4\n      sload\n      div\n      mul\n      dup4\n      mstore\n      swap2\n      0x20\n      add\n      swap2\n      jump(tag_66)\n    tag_67:\n      dup3\n      add\n      swap2\n      swap1\n      0x00\n      mstore\n      keccak256(0x00, 0x20)\n      swap1\n    tag_68:\n      dup2\n      sload\n      dup2\n      mstore\n      swap1\n      0x01\n      add\n      swap1\n      0x20\n      add\n      dup1\n      dup4\n      gt\n      tag_68\n      jumpi\n      dup3\n      swap1\n      sub\n      0x1f\n      and\n      dup3\n      add\n      swap2\n    tag_66:\n      pop\n      pop\n      pop\n      pop\n      pop\n      dup2\n      mstore\n      0x20\n      add\n      0x02\n      dup3\n      add\n      0x00\n      swap1\n      sload\n      swap1\n      0x0100\n      exp\n      swap1\n      div\n      0xffffffffffffffffffffffffffffffffffffffff\n      and\n      0xffffffffffffffffffffffffffffffffffffffff\n      and\n      0xffffffffffffffffffffffffffffffffffffffff\n      and\n      dup2\n      mstore\n      0x20\n      add\n      0x02\n      dup3\n      add\n      0x14\n      swap1\n      sload\n      swap1\n      0x0100\n      exp\n      swap1\n      div\n      0xff\n      and\n      iszero\n      iszero\n      iszero\n      iszero\n      dup2\n      mstore\n      pop\n      pop\n        /* \"contracts/Drugs.sol\":1816:1818  id */\n      dup4\n        /* \"contracts/Drugs.sol\":1819:1820  i */\n      dup4\n        /* \"contracts/Drugs.sol\":1816:1821  id[i] */\n      dup2\n      mload\n      dup2\n      lt\n      tag_69\n      jumpi\n      tag_70\n      tag_71\n      jump\t// in\n    tag_70:\n    tag_69:\n      0x20\n      mul\n      0x20\n      add\n      add\n        /* \"contracts/Drugs.sol\":1816:1828  id[i] = drug */\n      dup2\n      swap1\n      mstore\n      pop\n        /* \"contracts/Drugs.sol\":1758:1840  {\r... */\n      pop\n        /* \"contracts/Drugs.sol\":1753:1756  i++ */\n      dup1\n      dup1\n      tag_72\n      swap1\n      tag_51\n      jump\t// in\n    tag_72:\n      swap2\n      pop\n      pop\n        /* \"contracts/Drugs.sol\":1720:1840  for (uint i = 0; i < drugsCount; i++) {\r... */\n      jump(tag_60)\n    tag_61:\n      pop\n        /* \"contracts/Drugs.sol\":1857:1859  id */\n      dup1\n        /* \"contracts/Drugs.sol\":1850:1859  return id */\n      swap2\n      pop\n      pop\n        /* \"contracts/Drugs.sol\":1599:1867  function getDrugs() public view returns (Drug[] memory){\r... */\n      swap1\n      jump\t// out\n        /* \"contracts/Drugs.sol\":488:510  uint public drugsCount */\n    tag_21:\n      sload(0x03)\n      dup2\n      jump\t// out\n        /* \"contracts/Drugs.sol\":786:886  function get(uint _drugid) public view returns(Drug memory) {\r... */\n    tag_27:\n        /* \"contracts/Drugs.sol\":833:844  Drug memory */\n      tag_73\n      tag_59\n      jump\t// in\n    tag_73:\n        /* \"contracts/Drugs.sol\":864:869  drugs */\n      0x01\n        /* \"contracts/Drugs.sol\":864:878  drugs[_drugid] */\n      0x00\n        /* \"contracts/Drugs.sol\":870:877  _drugid */\n      dup4\n        /* \"contracts/Drugs.sol\":864:878  drugs[_drugid] */\n      dup2\n      mstore\n      0x20\n      add\n      swap1\n      dup2\n      mstore\n      0x20\n      add\n      0x00\n      keccak256\n        /* \"contracts/Drugs.sol\":857:878  return drugs[_drugid] */\n      mload(0x40)\n      dup1\n      0x80\n      add\n      0x40\n      mstore\n      swap1\n      dup2\n      0x00\n      dup3\n      add\n      sload\n      dup2\n      mstore\n      0x20\n      add\n      0x01\n      dup3\n      add\n      dup1\n      sload\n      tag_75\n      swap1\n      tag_64\n      jump\t// in\n    tag_75:\n      dup1\n      0x1f\n      add\n      0x20\n      dup1\n      swap2\n      div\n      mul\n      0x20\n      add\n      mload(0x40)\n      swap1\n      dup2\n      add\n      0x40\n      mstore\n      dup1\n      swap3\n      swap2\n      swap1\n      dup2\n      dup2\n      mstore\n      0x20\n      add\n      dup3\n      dup1\n      sload\n      tag_76\n      swap1\n      tag_64\n      jump\t// in\n    tag_76:\n      dup1\n      iszero\n      tag_77\n      jumpi\n      dup1\n      0x1f\n      lt\n      tag_78\n      jumpi\n      0x0100\n      dup1\n      dup4\n      sload\n      div\n      mul\n      dup4\n      mstore\n      swap2\n      0x20\n      add\n      swap2\n      jump(tag_77)\n    tag_78:\n      dup3\n      add\n      swap2\n      swap1\n      0x00\n      mstore\n      keccak256(0x00, 0x20)\n      swap1\n    tag_79:\n      dup2\n      sload\n      dup2\n      mstore\n      swap1\n      0x01\n      add\n      swap1\n      0x20\n      add\n      dup1\n      dup4\n      gt\n      tag_79\n      jumpi\n      dup3\n      swap1\n      sub\n      0x1f\n      and\n      dup3\n      add\n      swap2\n    tag_77:\n      pop\n      pop\n      pop\n      pop\n      pop\n      dup2\n      mstore\n      0x20\n      add\n      0x02\n      dup3\n      add\n      0x00\n      swap1\n      sload\n      swap1\n      0x0100\n      exp\n      swap1\n      div\n      0xffffffffffffffffffffffffffffffffffffffff\n      and\n      0xffffffffffffffffffffffffffffffffffffffff\n      and\n      0xffffffffffffffffffffffffffffffffffffffff\n      and\n      dup2\n      mstore\n      0x20\n      add\n      0x02\n      dup3\n      add\n      0x14\n      swap1\n      sload\n      swap1\n      0x0100\n      exp\n      swap1\n      div\n      0xff\n      and\n      iszero\n      iszero\n      iszero\n      iszero\n      dup2\n      mstore\n      pop\n      pop\n      swap1\n      pop\n        /* \"contracts/Drugs.sol\":786:886  function get(uint _drugid) public view returns(Drug memory) {\r... */\n      swap2\n      swap1\n      pop\n      jump\t// out\n        /* \"contracts/Drugs.sol\":391:431  mapping (string => Drug) public newdrugs */\n    tag_32:\n      0x02\n      dup2\n      dup1\n      mload\n      0x20\n      dup2\n      add\n      dup3\n      add\n      dup1\n      mload\n      dup5\n      dup3\n      mstore\n      0x20\n      dup4\n      add\n      0x20\n      dup6\n      add\n      keccak256\n      dup2\n      dup4\n      mstore\n      dup1\n      swap6\n      pop\n      pop\n      pop\n      pop\n      pop\n      pop\n      0x00\n      swap2\n      pop\n      swap1\n      pop\n      dup1\n      0x00\n      add\n      sload\n      swap1\n      dup1\n      0x01\n      add\n      dup1\n      sload\n      tag_80\n      swap1\n      tag_64\n      jump\t// in\n    tag_80:\n      dup1\n      0x1f\n      add\n      0x20\n      dup1\n      swap2\n      div\n      mul\n      0x20\n      add\n      mload(0x40)\n      swap1\n      dup2\n      add\n      0x40\n      mstore\n      dup1\n      swap3\n      swap2\n      swap1\n      dup2\n      dup2\n      mstore\n      0x20\n      add\n      dup3\n      dup1\n      sload\n      tag_81\n      swap1\n      tag_64\n      jump\t// in\n    tag_81:\n      dup1\n      iszero\n      tag_82\n      jumpi\n      dup1\n      0x1f\n      lt\n      tag_83\n      jumpi\n      0x0100\n      dup1\n      dup4\n      sload\n      div\n      mul\n      dup4\n      mstore\n      swap2\n      0x20\n      add\n      swap2\n      jump(tag_82)\n    tag_83:\n      dup3\n      add\n      swap2\n      swap1\n      0x00\n      mstore\n      keccak256(0x00, 0x20)\n      swap1\n    tag_84:\n      dup2\n      sload\n      dup2\n      mstore\n      swap1\n      0x01\n      add\n      swap1\n      0x20\n      add\n      dup1\n      dup4\n      gt\n      tag_84\n      jumpi\n      dup3\n      swap1\n      sub\n      0x1f\n      and\n      dup3\n      add\n      swap2\n    tag_82:\n      pop\n      pop\n      pop\n      pop\n      pop\n      swap1\n      dup1\n      0x02\n      add\n      0x00\n      swap1\n      sload\n      swap1\n      0x0100\n      exp\n      swap1\n      div\n      0xffffffffffffffffffffffffffffffffffffffff\n      and\n      swap1\n      dup1\n      0x02\n      add\n      0x14\n      swap1\n      sload\n      swap1\n      0x0100\n      exp\n      swap1\n      div\n      0xff\n      and\n      swap1\n      pop\n      dup5\n      jump\t// out\n        /* \"contracts/Drugs.sol\":1873:1995  function changeDrugStatus(uint _drugid, bool _status) public onlyOwner{\r... */\n    tag_38:\n        /* \"contracts/Drugs.sol\":312:322  msg.sender */\n      caller\n        /* \"contracts/Drugs.sol\":303:322  owner == msg.sender */\n      0xffffffffffffffffffffffffffffffffffffffff\n      and\n        /* \"contracts/Drugs.sol\":303:308  owner */\n      0x00\n      dup1\n      sload\n      swap1\n      0x0100\n      exp\n      swap1\n      div\n      0xffffffffffffffffffffffffffffffffffffffff\n      and\n        /* \"contracts/Drugs.sol\":303:322  owner == msg.sender */\n      0xffffffffffffffffffffffffffffffffffffffff\n      and\n      eq\n        /* \"contracts/Drugs.sol\":295:323  require(owner == msg.sender) */\n      tag_86\n      jumpi\n      0x00\n      dup1\n      revert\n    tag_86:\n        /* \"contracts/Drugs.sol\":1980:1987  _status */\n      dup1\n        /* \"contracts/Drugs.sol\":1954:1959  drugs */\n      0x01\n        /* \"contracts/Drugs.sol\":1954:1968  drugs[_drugid] */\n      0x00\n        /* \"contracts/Drugs.sol\":1960:1967  _drugid */\n      dup5\n        /* \"contracts/Drugs.sol\":1954:1968  drugs[_drugid] */\n      dup2\n      mstore\n      0x20\n      add\n      swap1\n      dup2\n      mstore\n      0x20\n      add\n      0x00\n      keccak256\n        /* \"contracts/Drugs.sol\":1954:1977  drugs[_drugid].IsActive */\n      0x02\n      add\n      0x14\n        /* \"contracts/Drugs.sol\":1954:1987  drugs[_drugid].IsActive = _status */\n      0x0100\n      exp\n      dup2\n      sload\n      dup2\n      0xff\n      mul\n      not\n      and\n      swap1\n      dup4\n      iszero\n      iszero\n      mul\n      or\n      swap1\n      sstore\n      pop\n        /* \"contracts/Drugs.sol\":1873:1995  function changeDrugStatus(uint _drugid, bool _status) public onlyOwner{\r... */\n      pop\n      pop\n      jump\t// out\n        /* \"contracts/Drugs.sol\":931:1560  function getDrug() public view returns (string[] memory, address[] memory, bool[] memory){\r... */\n    tag_40:\n        /* \"contracts/Drugs.sol\":971:986  string[] memory */\n      0x60\n        /* \"contracts/Drugs.sol\":988:1004  address[] memory */\n      dup1\n        /* \"contracts/Drugs.sol\":1006:1019  bool[] memory */\n      0x60\n        /* \"contracts/Drugs.sol\":1031:1051  uint[] memory drugid */\n      0x00\n        /* \"contracts/Drugs.sol\":1065:1075  drugsCount */\n      sload(0x03)\n        /* \"contracts/Drugs.sol\":1054:1076  new uint[](drugsCount) */\n      0xffffffffffffffff\n      dup2\n      gt\n      iszero\n      tag_89\n      jumpi\n      tag_90\n      tag_55\n      jump\t// in\n    tag_90:\n    tag_89:\n      mload(0x40)\n      swap1\n      dup1\n      dup3\n      mstore\n      dup1\n      0x20\n      mul\n      0x20\n      add\n      dup3\n      add\n      0x40\n      mstore\n      dup1\n      iszero\n      tag_91\n      jumpi\n      dup2\n      0x20\n      add\n      0x20\n      dup3\n      mul\n      dup1\n      calldatasize\n      dup4\n      calldatacopy\n      dup1\n      dup3\n      add\n      swap2\n      pop\n      pop\n      swap1\n      pop\n    tag_91:\n      pop\n        /* \"contracts/Drugs.sol\":1031:1076  uint[] memory drugid = new uint[](drugsCount) */\n      swap1\n      pop\n        /* \"contracts/Drugs.sol\":1087:1109  string[]  memory regno */\n      0x00\n        /* \"contracts/Drugs.sol\":1125:1135  drugsCount */\n      sload(0x03)\n        /* \"contracts/Drugs.sol\":1112:1136  new string[](drugsCount) */\n      0xffffffffffffffff\n      dup2\n      gt\n      iszero\n      tag_92\n      jumpi\n      tag_93\n      tag_55\n      jump\t// in\n    tag_93:\n    tag_92:\n      mload(0x40)\n      swap1\n      dup1\n      dup3\n      mstore\n      dup1\n      0x20\n      mul\n      0x20\n      add\n      dup3\n      add\n      0x40\n      mstore\n      dup1\n      iszero\n      tag_94\n      jumpi\n      dup2\n      0x20\n      add\n    tag_95:\n      0x60\n      dup2\n      mstore\n      0x20\n      add\n      swap1\n      0x01\n      swap1\n      sub\n      swap1\n      dup2\n      tag_95\n      jumpi\n      swap1\n      pop\n    tag_94:\n      pop\n        /* \"contracts/Drugs.sol\":1087:1136  string[]  memory regno = new string[](drugsCount) */\n      swap1\n      pop\n        /* \"contracts/Drugs.sol\":1147:1177  address[]  memory manufacturer */\n      0x00\n        /* \"contracts/Drugs.sol\":1194:1204  drugsCount */\n      sload(0x03)\n        /* \"contracts/Drugs.sol\":1180:1205  new address[](drugsCount) */\n      0xffffffffffffffff\n      dup2\n      gt\n      iszero\n      tag_96\n      jumpi\n      tag_97\n      tag_55\n      jump\t// in\n    tag_97:\n    tag_96:\n      mload(0x40)\n      swap1\n      dup1\n      dup3\n      mstore\n      dup1\n      0x20\n      mul\n      0x20\n      add\n      dup3\n      add\n      0x40\n      mstore\n      dup1\n      iszero\n      tag_98\n      jumpi\n      dup2\n      0x20\n      add\n      0x20\n      dup3\n      mul\n      dup1\n      calldatasize\n      dup4\n      calldatacopy\n      dup1\n      dup3\n      add\n      swap2\n      pop\n      pop\n      swap1\n      pop\n    tag_98:\n      pop\n        /* \"contracts/Drugs.sol\":1147:1205  address[]  memory manufacturer = new address[](drugsCount) */\n      swap1\n      pop\n        /* \"contracts/Drugs.sol\":1219:1241  bool[] memory isactive */\n      0x00\n        /* \"contracts/Drugs.sol\":1255:1265  drugsCount */\n      sload(0x03)\n        /* \"contracts/Drugs.sol\":1244:1266  new bool[](drugsCount) */\n      0xffffffffffffffff\n      dup2\n      gt\n      iszero\n      tag_99\n      jumpi\n      tag_100\n      tag_55\n      jump\t// in\n    tag_100:\n    tag_99:\n      mload(0x40)\n      swap1\n      dup1\n      dup3\n      mstore\n      dup1\n      0x20\n      mul\n      0x20\n      add\n      dup3\n      add\n      0x40\n      mstore\n      dup1\n      iszero\n      tag_101\n      jumpi\n      dup2\n      0x20\n      add\n      0x20\n      dup3\n      mul\n      dup1\n      calldatasize\n      dup4\n      calldatacopy\n      dup1\n      dup3\n      add\n      swap2\n      pop\n      pop\n      swap1\n      pop\n    tag_101:\n      pop\n        /* \"contracts/Drugs.sol\":1219:1266  bool[] memory isactive = new bool[](drugsCount) */\n      swap1\n      pop\n        /* \"contracts/Drugs.sol\":1286:1292  uint i */\n      0x00\n        /* \"contracts/Drugs.sol\":1281:1504  for (uint i = 0; i < drugsCount; i++) {\r... */\n    tag_102:\n        /* \"contracts/Drugs.sol\":1302:1312  drugsCount */\n      sload(0x03)\n        /* \"contracts/Drugs.sol\":1298:1299  i */\n      dup2\n        /* \"contracts/Drugs.sol\":1298:1312  i < drugsCount */\n      lt\n        /* \"contracts/Drugs.sol\":1281:1504  for (uint i = 0; i < drugsCount; i++) {\r... */\n      iszero\n      tag_103\n      jumpi\n        /* \"contracts/Drugs.sol\":1334:1351  Drug storage drug */\n      0x00\n        /* \"contracts/Drugs.sol\":1354:1359  drugs */\n      0x01\n        /* \"contracts/Drugs.sol\":1354:1362  drugs[i] */\n      0x00\n        /* \"contracts/Drugs.sol\":1360:1361  i */\n      dup4\n        /* \"contracts/Drugs.sol\":1354:1362  drugs[i] */\n      dup2\n      mstore\n      0x20\n      add\n      swap1\n      dup2\n      mstore\n      0x20\n      add\n      0x00\n      keccak256\n        /* \"contracts/Drugs.sol\":1334:1362  Drug storage drug = drugs[i] */\n      swap1\n      pop\n        /* \"contracts/Drugs.sol\":1390:1394  drug */\n      dup1\n        /* \"contracts/Drugs.sol\":1390:1400  drug.RegNo */\n      0x01\n      add\n        /* \"contracts/Drugs.sol\":1379:1400  regno[i] = drug.RegNo */\n      dup1\n      sload\n      tag_105\n      swap1\n      tag_64\n      jump\t// in\n    tag_105:\n      dup1\n      0x1f\n      add\n      0x20\n      dup1\n      swap2\n      div\n      mul\n      0x20\n      add\n      mload(0x40)\n      swap1\n      dup2\n      add\n      0x40\n      mstore\n      dup1\n      swap3\n      swap2\n      swap1\n      dup2\n      dup2\n      mstore\n      0x20\n      add\n      dup3\n      dup1\n      sload\n      tag_106\n      swap1\n      tag_64\n      jump\t// in\n    tag_106:\n      dup1\n      iszero\n      tag_107\n      jumpi\n      dup1\n      0x1f\n      lt\n      tag_108\n      jumpi\n      0x0100\n      dup1\n      dup4\n      sload\n      div\n      mul\n      dup4\n      mstore\n      swap2\n      0x20\n      add\n      swap2\n      jump(tag_107)\n    tag_108:\n      dup3\n      add\n      swap2\n      swap1\n      0x00\n      mstore\n      keccak256(0x00, 0x20)\n      swap1\n    tag_109:\n      dup2\n      sload\n      dup2\n      mstore\n      swap1\n      0x01\n      add\n      swap1\n      0x20\n      add\n      dup1\n      dup4\n      gt\n      tag_109\n      jumpi\n      dup3\n      swap1\n      sub\n      0x1f\n      and\n      dup3\n      add\n      swap2\n    tag_107:\n      pop\n      pop\n      pop\n      pop\n      pop\n        /* \"contracts/Drugs.sol\":1379:1384  regno */\n      dup6\n        /* \"contracts/Drugs.sol\":1385:1386  i */\n      dup4\n        /* \"contracts/Drugs.sol\":1379:1387  regno[i] */\n      dup2\n      mload\n      dup2\n      lt\n      tag_110\n      jumpi\n      tag_111\n      tag_71\n      jump\t// in\n    tag_111:\n    tag_110:\n      0x20\n      mul\n      0x20\n      add\n      add\n        /* \"contracts/Drugs.sol\":1379:1400  regno[i] = drug.RegNo */\n      dup2\n      swap1\n      mstore\n      pop\n        /* \"contracts/Drugs.sol\":1433:1437  drug */\n      dup1\n        /* \"contracts/Drugs.sol\":1433:1450  drug.Manufacturer */\n      0x02\n      add\n      0x00\n      swap1\n      sload\n      swap1\n      0x0100\n      exp\n      swap1\n      div\n      0xffffffffffffffffffffffffffffffffffffffff\n      and\n        /* \"contracts/Drugs.sol\":1415:1427  manufacturer */\n      dup5\n        /* \"contracts/Drugs.sol\":1428:1429  i */\n      dup4\n        /* \"contracts/Drugs.sol\":1415:1430  manufacturer[i] */\n      dup2\n      mload\n      dup2\n      lt\n      tag_112\n      jumpi\n      tag_113\n      tag_71\n      jump\t// in\n    tag_113:\n    tag_112:\n      0x20\n      mul\n      0x20\n      add\n      add\n        /* \"contracts/Drugs.sol\":1415:1450  manufacturer[i] = drug.Manufacturer */\n      swap1\n      0xffffffffffffffffffffffffffffffffffffffff\n      and\n      swap1\n      dup2\n      0xffffffffffffffffffffffffffffffffffffffff\n      and\n      dup2\n      mstore\n      pop\n      pop\n        /* \"contracts/Drugs.sol\":1479:1483  drug */\n      dup1\n        /* \"contracts/Drugs.sol\":1479:1492  drug.IsActive */\n      0x02\n      add\n      0x14\n      swap1\n      sload\n      swap1\n      0x0100\n      exp\n      swap1\n      div\n      0xff\n      and\n        /* \"contracts/Drugs.sol\":1465:1473  isactive */\n      dup4\n        /* \"contracts/Drugs.sol\":1474:1475  i */\n      dup4\n        /* \"contracts/Drugs.sol\":1465:1476  isactive[i] */\n      dup2\n      mload\n      dup2\n      lt\n      tag_114\n      jumpi\n      tag_115\n      tag_71\n      jump\t// in\n    tag_115:\n    tag_114:\n      0x20\n      mul\n      0x20\n      add\n      add\n        /* \"contracts/Drugs.sol\":1465:1492  isactive[i] = drug.IsActive */\n      swap1\n      iszero\n      iszero\n      swap1\n      dup2\n      iszero\n      iszero\n      dup2\n      mstore\n      pop\n      pop\n        /* \"contracts/Drugs.sol\":1319:1504  {\r... */\n      pop\n        /* \"contracts/Drugs.sol\":1314:1317  i++ */\n      dup1\n      dup1\n      tag_116\n      swap1\n      tag_51\n      jump\t// in\n    tag_116:\n      swap2\n      pop\n      pop\n        /* \"contracts/Drugs.sol\":1281:1504  for (uint i = 0; i < drugsCount; i++) {\r... */\n      jump(tag_102)\n    tag_103:\n      pop\n        /* \"contracts/Drugs.sol\":1522:1527  regno */\n      dup3\n        /* \"contracts/Drugs.sol\":1529:1541  manufacturer */\n      dup3\n        /* \"contracts/Drugs.sol\":1543:1551  isactive */\n      dup3\n        /* \"contracts/Drugs.sol\":1514:1552  return (regno, manufacturer, isactive) */\n      swap7\n      pop\n      swap7\n      pop\n      swap7\n      pop\n      pop\n      pop\n      pop\n      pop\n        /* \"contracts/Drugs.sol\":931:1560  function getDrug() public view returns (string[] memory, address[] memory, bool[] memory){\r... */\n      swap1\n      swap2\n      swap3\n      jump\t// out\n        /* \"contracts/Drugs.sol\":349:384  mapping (uint => Drug) public drugs */\n    tag_45:\n      mstore(0x20, 0x01)\n      dup1\n      0x00\n      mstore\n      keccak256(0x00, 0x40)\n      0x00\n      swap2\n      pop\n      swap1\n      pop\n      dup1\n      0x00\n      add\n      sload\n      swap1\n      dup1\n      0x01\n      add\n      dup1\n      sload\n      tag_117\n      swap1\n      tag_64\n      jump\t// in\n    tag_117:\n      dup1\n      0x1f\n      add\n      0x20\n      dup1\n      swap2\n      div\n      mul\n      0x20\n      add\n      mload(0x40)\n      swap1\n      dup2\n      add\n      0x40\n      mstore\n      dup1\n      swap3\n      swap2\n      swap1\n      dup2\n      dup2\n      mstore\n      0x20\n      add\n      dup3\n      dup1\n      sload\n      tag_118\n      swap1\n      tag_64\n      jump\t// in\n    tag_118:\n      dup1\n      iszero\n      tag_119\n      jumpi\n      dup1\n      0x1f\n      lt\n      tag_120\n      jumpi\n      0x0100\n      dup1\n      dup4\n      sload\n      div\n      mul\n      dup4\n      mstore\n      swap2\n      0x20\n      add\n      swap2\n      jump(tag_119)\n    tag_120:\n      dup3\n      add\n      swap2\n      swap1\n      0x00\n      mstore\n      keccak256(0x00, 0x20)\n      swap1\n    tag_121:\n      dup2\n      sload\n      dup2\n      mstore\n      swap1\n      0x01\n      add\n      swap1\n      0x20\n      add\n      dup1\n      dup4\n      gt\n      tag_121\n      jumpi\n      dup3\n      swap1\n      sub\n      0x1f\n      and\n      dup3\n      add\n      swap2\n    tag_119:\n      pop\n      pop\n      pop\n      pop\n      pop\n      swap1\n      dup1\n      0x02\n      add\n      0x00\n      swap1\n      sload\n      swap1\n      0x0100\n      exp\n      swap1\n      div\n      0xffffffffffffffffffffffffffffffffffffffff\n      and\n      swap1\n      dup1\n      0x02\n      add\n      0x14\n      swap1\n      sload\n      swap1\n      0x0100\n      exp\n      swap1\n      div\n      0xff\n      and\n      swap1\n      pop\n      dup5\n      jump\t// out\n    tag_49:\n      dup3\n      dup1\n      sload\n      tag_122\n      swap1\n      tag_64\n      jump\t// in\n    tag_122:\n      swap1\n      0x00\n      mstore\n      keccak256(0x00, 0x20)\n      swap1\n      0x1f\n      add\n      0x20\n      swap1\n      div\n      dup2\n      add\n      swap3\n      dup3\n      tag_124\n      jumpi\n      0x00\n      dup6\n      sstore\n      jump(tag_123)\n    tag_124:\n      dup3\n      0x1f\n      lt\n      tag_125\n      jumpi\n      dup1\n      mload\n      not(0xff)\n      and\n      dup4\n      dup1\n      add\n      or\n      dup6\n      sstore\n      jump(tag_123)\n    tag_125:\n      dup3\n      dup1\n      add\n      0x01\n      add\n      dup6\n      sstore\n      dup3\n      iszero\n      tag_123\n      jumpi\n      swap2\n      dup3\n      add\n    tag_126:\n      dup3\n      dup2\n      gt\n      iszero\n      tag_127\n      jumpi\n      dup3\n      mload\n      dup3\n      sstore\n      swap2\n      0x20\n      add\n      swap2\n      swap1\n      0x01\n      add\n      swap1\n      jump(tag_126)\n    tag_127:\n    tag_123:\n      pop\n      swap1\n      pop\n      tag_128\n      swap2\n      swap1\n      tag_129\n      jump\t// in\n    tag_128:\n      pop\n      swap1\n      jump\t// out\n    tag_59:\n      mload(0x40)\n      dup1\n      0x80\n      add\n      0x40\n      mstore\n      dup1\n      0x00\n      dup2\n      mstore\n      0x20\n      add\n      0x60\n      dup2\n      mstore\n      0x20\n      add\n      and(0xffffffffffffffffffffffffffffffffffffffff, 0x00)\n      dup2\n      mstore\n      0x20\n      add\n      iszero(iszero(0x00))\n      dup2\n      mstore\n      pop\n      swap1\n      jump\t// out\n    tag_129:\n    tag_130:\n      dup1\n      dup3\n      gt\n      iszero\n      tag_131\n      jumpi\n      0x00\n      dup2\n      0x00\n      swap1\n      sstore\n      pop\n      0x01\n      add\n      jump(tag_130)\n    tag_131:\n      pop\n      swap1\n      jump\t// out\n        /* \"#utility.yul\":7:419   */\n    tag_133:\n        /* \"#utility.yul\":85:90   */\n      0x00\n        /* \"#utility.yul\":110:176   */\n      tag_135\n        /* \"#utility.yul\":126:175   */\n      tag_136\n        /* \"#utility.yul\":168:174   */\n      dup5\n        /* \"#utility.yul\":126:175   */\n      tag_137\n      jump\t// in\n    tag_136:\n        /* \"#utility.yul\":110:176   */\n      tag_138\n      jump\t// in\n    tag_135:\n        /* \"#utility.yul\":101:176   */\n      swap1\n      pop\n        /* \"#utility.yul\":199:205   */\n      dup3\n        /* \"#utility.yul\":192:197   */\n      dup2\n        /* \"#utility.yul\":185:206   */\n      mstore\n        /* \"#utility.yul\":237:241   */\n      0x20\n        /* \"#utility.yul\":230:235   */\n      dup2\n        /* \"#utility.yul\":226:242   */\n      add\n        /* \"#utility.yul\":275:278   */\n      dup5\n        /* \"#utility.yul\":266:272   */\n      dup5\n        /* \"#utility.yul\":261:264   */\n      dup5\n        /* \"#utility.yul\":257:273   */\n      add\n        /* \"#utility.yul\":254:279   */\n      gt\n        /* \"#utility.yul\":251:363   */\n      iszero\n      tag_139\n      jumpi\n        /* \"#utility.yul\":282:361   */\n      tag_140\n      tag_141\n      jump\t// in\n    tag_140:\n        /* \"#utility.yul\":251:363   */\n    tag_139:\n        /* \"#utility.yul\":372:413   */\n      tag_142\n        /* \"#utility.yul\":406:412   */\n      dup5\n        /* \"#utility.yul\":401:404   */\n      dup3\n        /* \"#utility.yul\":396:399   */\n      dup6\n        /* \"#utility.yul\":372:413   */\n      tag_143\n      jump\t// in\n    tag_142:\n        /* \"#utility.yul\":91:419   */\n      pop\n        /* \"#utility.yul\":7:419   */\n      swap4\n      swap3\n      pop\n      pop\n      pop\n      jump\t// out\n        /* \"#utility.yul\":425:558   */\n    tag_144:\n        /* \"#utility.yul\":468:473   */\n      0x00\n        /* \"#utility.yul\":506:512   */\n      dup2\n        /* \"#utility.yul\":493:513   */\n      calldataload\n        /* \"#utility.yul\":484:513   */\n      swap1\n      pop\n        /* \"#utility.yul\":522:552   */\n      tag_146\n        /* \"#utility.yul\":546:551   */\n      dup2\n        /* \"#utility.yul\":522:552   */\n      tag_147\n      jump\t// in\n    tag_146:\n        /* \"#utility.yul\":425:558   */\n      swap3\n      swap2\n      pop\n      pop\n      jump\t// out\n        /* \"#utility.yul\":578:918   */\n    tag_148:\n        /* \"#utility.yul\":634:639   */\n      0x00\n        /* \"#utility.yul\":683:686   */\n      dup3\n        /* \"#utility.yul\":676:680   */\n      0x1f\n        /* \"#utility.yul\":668:674   */\n      dup4\n        /* \"#utility.yul\":664:681   */\n      add\n        /* \"#utility.yul\":660:687   */\n      slt\n        /* \"#utility.yul\":650:772   */\n      tag_150\n      jumpi\n        /* \"#utility.yul\":691:770   */\n      tag_151\n      tag_152\n      jump\t// in\n    tag_151:\n        /* \"#utility.yul\":650:772   */\n    tag_150:\n        /* \"#utility.yul\":808:814   */\n      dup2\n        /* \"#utility.yul\":795:815   */\n      calldataload\n        /* \"#utility.yul\":833:912   */\n      tag_153\n        /* \"#utility.yul\":908:911   */\n      dup5\n        /* \"#utility.yul\":900:906   */\n      dup3\n        /* \"#utility.yul\":893:897   */\n      0x20\n        /* \"#utility.yul\":885:891   */\n      dup7\n        /* \"#utility.yul\":881:898   */\n      add\n        /* \"#utility.yul\":833:912   */\n      tag_133\n      jump\t// in\n    tag_153:\n        /* \"#utility.yul\":824:912   */\n      swap2\n      pop\n        /* \"#utility.yul\":640:918   */\n      pop\n        /* \"#utility.yul\":578:918   */\n      swap3\n      swap2\n      pop\n      pop\n      jump\t// out\n        /* \"#utility.yul\":924:1063   */\n    tag_154:\n        /* \"#utility.yul\":970:975   */\n      0x00\n        /* \"#utility.yul\":1008:1014   */\n      dup2\n        /* \"#utility.yul\":995:1015   */\n      calldataload\n        /* \"#utility.yul\":986:1015   */\n      swap1\n      pop\n        /* \"#utility.yul\":1024:1057   */\n      tag_156\n        /* \"#utility.yul\":1051:1056   */\n      dup2\n        /* \"#utility.yul\":1024:1057   */\n      tag_157\n      jump\t// in\n    tag_156:\n        /* \"#utility.yul\":924:1063   */\n      swap3\n      swap2\n      pop\n      pop\n      jump\t// out\n        /* \"#utility.yul\":1069:1578   */\n    tag_14:\n        /* \"#utility.yul\":1138:1144   */\n      0x00\n        /* \"#utility.yul\":1187:1189   */\n      0x20\n        /* \"#utility.yul\":1175:1184   */\n      dup3\n        /* \"#utility.yul\":1166:1173   */\n      dup5\n        /* \"#utility.yul\":1162:1185   */\n      sub\n        /* \"#utility.yul\":1158:1190   */\n      slt\n        /* \"#utility.yul\":1155:1274   */\n      iszero\n      tag_159\n      jumpi\n        /* \"#utility.yul\":1193:1272   */\n      tag_160\n      tag_161\n      jump\t// in\n    tag_160:\n        /* \"#utility.yul\":1155:1274   */\n    tag_159:\n        /* \"#utility.yul\":1341:1342   */\n      0x00\n        /* \"#utility.yul\":1330:1339   */\n      dup3\n        /* \"#utility.yul\":1326:1343   */\n      add\n        /* \"#utility.yul\":1313:1344   */\n      calldataload\n        /* \"#utility.yul\":1371:1389   */\n      0xffffffffffffffff\n        /* \"#utility.yul\":1363:1369   */\n      dup2\n        /* \"#utility.yul\":1360:1390   */\n      gt\n        /* \"#utility.yul\":1357:1474   */\n      iszero\n      tag_162\n      jumpi\n        /* \"#utility.yul\":1393:1472   */\n      tag_163\n      tag_164\n      jump\t// in\n    tag_163:\n        /* \"#utility.yul\":1357:1474   */\n    tag_162:\n        /* \"#utility.yul\":1498:1561   */\n      tag_165\n        /* \"#utility.yul\":1553:1560   */\n      dup5\n        /* \"#utility.yul\":1544:1550   */\n      dup3\n        /* \"#utility.yul\":1533:1542   */\n      dup6\n        /* \"#utility.yul\":1529:1551   */\n      add\n        /* \"#utility.yul\":1498:1561   */\n      tag_148\n      jump\t// in\n    tag_165:\n        /* \"#utility.yul\":1488:1561   */\n      swap2\n      pop\n        /* \"#utility.yul\":1284:1571   */\n      pop\n        /* \"#utility.yul\":1069:1578   */\n      swap3\n      swap2\n      pop\n      pop\n      jump\t// out\n        /* \"#utility.yul\":1584:1913   */\n    tag_26:\n        /* \"#utility.yul\":1643:1649   */\n      0x00\n        /* \"#utility.yul\":1692:1694   */\n      0x20\n        /* \"#utility.yul\":1680:1689   */\n      dup3\n        /* \"#utility.yul\":1671:1678   */\n      dup5\n        /* \"#utility.yul\":1667:1690   */\n      sub\n        /* \"#utility.yul\":1663:1695   */\n      slt\n        /* \"#utility.yul\":1660:1779   */\n      iszero\n      tag_167\n      jumpi\n        /* \"#utility.yul\":1698:1777   */\n      tag_168\n      tag_161\n      jump\t// in\n    tag_168:\n        /* \"#utility.yul\":1660:1779   */\n    tag_167:\n        /* \"#utility.yul\":1818:1819   */\n      0x00\n        /* \"#utility.yul\":1843:1896   */\n      tag_169\n        /* \"#utility.yul\":1888:1895   */\n      dup5\n        /* \"#utility.yul\":1879:1885   */\n      dup3\n        /* \"#utility.yul\":1868:1877   */\n      dup6\n        /* \"#utility.yul\":1864:1886   */\n      add\n        /* \"#utility.yul\":1843:1896   */\n      tag_154\n      jump\t// in\n    tag_169:\n        /* \"#utility.yul\":1833:1896   */\n      swap2\n      pop\n        /* \"#utility.yul\":1789:1906   */\n      pop\n        /* \"#utility.yul\":1584:1913   */\n      swap3\n      swap2\n      pop\n      pop\n      jump\t// out\n        /* \"#utility.yul\":1919:2387   */\n    tag_37:\n        /* \"#utility.yul\":1984:1990   */\n      0x00\n        /* \"#utility.yul\":1992:1998   */\n      dup1\n        /* \"#utility.yul\":2041:2043   */\n      0x40\n        /* \"#utility.yul\":2029:2038   */\n      dup4\n        /* \"#utility.yul\":2020:2027   */\n      dup6\n        /* \"#utility.yul\":2016:2039   */\n      sub\n        /* \"#utility.yul\":2012:2044   */\n      slt\n        /* \"#utility.yul\":2009:2128   */\n      iszero\n      tag_171\n      jumpi\n        /* \"#utility.yul\":2047:2126   */\n      tag_172\n      tag_161\n      jump\t// in\n    tag_172:\n        /* \"#utility.yul\":2009:2128   */\n    tag_171:\n        /* \"#utility.yul\":2167:2168   */\n      0x00\n        /* \"#utility.yul\":2192:2245   */\n      tag_173\n        /* \"#utility.yul\":2237:2244   */\n      dup6\n        /* \"#utility.yul\":2228:2234   */\n      dup3\n        /* \"#utility.yul\":2217:2226   */\n      dup7\n        /* \"#utility.yul\":2213:2235   */\n      add\n        /* \"#utility.yul\":2192:2245   */\n      tag_154\n      jump\t// in\n    tag_173:\n        /* \"#utility.yul\":2182:2245   */\n      swap3\n      pop\n        /* \"#utility.yul\":2138:2255   */\n      pop\n        /* \"#utility.yul\":2294:2296   */\n      0x20\n        /* \"#utility.yul\":2320:2370   */\n      tag_174\n        /* \"#utility.yul\":2362:2369   */\n      dup6\n        /* \"#utility.yul\":2353:2359   */\n      dup3\n        /* \"#utility.yul\":2342:2351   */\n      dup7\n        /* \"#utility.yul\":2338:2360   */\n      add\n        /* \"#utility.yul\":2320:2370   */\n      tag_144\n      jump\t// in\n    tag_174:\n        /* \"#utility.yul\":2310:2370   */\n      swap2\n      pop\n        /* \"#utility.yul\":2265:2380   */\n      pop\n        /* \"#utility.yul\":1919:2387   */\n      swap3\n      pop\n      swap3\n      swap1\n      pop\n      jump\t// out\n        /* \"#utility.yul\":2393:2572   */\n    tag_175:\n        /* \"#utility.yul\":2462:2472   */\n      0x00\n        /* \"#utility.yul\":2483:2529   */\n      tag_177\n        /* \"#utility.yul\":2525:2528   */\n      dup4\n        /* \"#utility.yul\":2517:2523   */\n      dup4\n        /* \"#utility.yul\":2483:2529   */\n      tag_178\n      jump\t// in\n    tag_177:\n        /* \"#utility.yul\":2561:2565   */\n      0x20\n        /* \"#utility.yul\":2556:2559   */\n      dup4\n        /* \"#utility.yul\":2552:2566   */\n      add\n        /* \"#utility.yul\":2538:2566   */\n      swap1\n      pop\n        /* \"#utility.yul\":2393:2572   */\n      swap3\n      swap2\n      pop\n      pop\n      jump\t// out\n        /* \"#utility.yul\":2578:2745   */\n    tag_179:\n        /* \"#utility.yul\":2641:2651   */\n      0x00\n        /* \"#utility.yul\":2662:2702   */\n      tag_181\n        /* \"#utility.yul\":2698:2701   */\n      dup4\n        /* \"#utility.yul\":2690:2696   */\n      dup4\n        /* \"#utility.yul\":2662:2702   */\n      tag_182\n      jump\t// in\n    tag_181:\n        /* \"#utility.yul\":2734:2738   */\n      0x20\n        /* \"#utility.yul\":2729:2732   */\n      dup4\n        /* \"#utility.yul\":2725:2739   */\n      add\n        /* \"#utility.yul\":2711:2739   */\n      swap1\n      pop\n        /* \"#utility.yul\":2578:2745   */\n      swap3\n      swap2\n      pop\n      pop\n      jump\t// out\n        /* \"#utility.yul\":2751:2947   */\n    tag_183:\n        /* \"#utility.yul\":2840:2850   */\n      0x00\n        /* \"#utility.yul\":2875:2941   */\n      tag_185\n        /* \"#utility.yul\":2937:2940   */\n      dup4\n        /* \"#utility.yul\":2929:2935   */\n      dup4\n        /* \"#utility.yul\":2875:2941   */\n      tag_186\n      jump\t// in\n    tag_185:\n        /* \"#utility.yul\":2861:2941   */\n      swap1\n      pop\n        /* \"#utility.yul\":2751:2947   */\n      swap3\n      swap2\n      pop\n      pop\n      jump\t// out\n        /* \"#utility.yul\":2953:3189   */\n    tag_187:\n        /* \"#utility.yul\":3062:3072   */\n      0x00\n        /* \"#utility.yul\":3097:3183   */\n      tag_189\n        /* \"#utility.yul\":3179:3182   */\n      dup4\n        /* \"#utility.yul\":3171:3177   */\n      dup4\n        /* \"#utility.yul\":3097:3183   */\n      tag_190\n      jump\t// in\n    tag_189:\n        /* \"#utility.yul\":3083:3183   */\n      swap1\n      pop\n        /* \"#utility.yul\":2953:3189   */\n      swap3\n      swap2\n      pop\n      pop\n      jump\t// out\n        /* \"#utility.yul\":3195:3303   */\n    tag_178:\n        /* \"#utility.yul\":3272:3296   */\n      tag_192\n        /* \"#utility.yul\":3290:3295   */\n      dup2\n        /* \"#utility.yul\":3272:3296   */\n      tag_193\n      jump\t// in\n    tag_192:\n        /* \"#utility.yul\":3267:3270   */\n      dup3\n        /* \"#utility.yul\":3260:3297   */\n      mstore\n        /* \"#utility.yul\":3195:3303   */\n      pop\n      pop\n      jump\t// out\n        /* \"#utility.yul\":3309:3427   */\n    tag_194:\n        /* \"#utility.yul\":3396:3420   */\n      tag_196\n        /* \"#utility.yul\":3414:3419   */\n      dup2\n        /* \"#utility.yul\":3396:3420   */\n      tag_193\n      jump\t// in\n    tag_196:\n        /* \"#utility.yul\":3391:3394   */\n      dup3\n        /* \"#utility.yul\":3384:3421   */\n      mstore\n        /* \"#utility.yul\":3309:3427   */\n      pop\n      pop\n      jump\t// out\n        /* \"#utility.yul\":3463:4195   */\n    tag_197:\n        /* \"#utility.yul\":3582:3585   */\n      0x00\n        /* \"#utility.yul\":3611:3665   */\n      tag_199\n        /* \"#utility.yul\":3659:3664   */\n      dup3\n        /* \"#utility.yul\":3611:3665   */\n      tag_200\n      jump\t// in\n    tag_199:\n        /* \"#utility.yul\":3681:3767   */\n      tag_201\n        /* \"#utility.yul\":3760:3766   */\n      dup2\n        /* \"#utility.yul\":3755:3758   */\n      dup6\n        /* \"#utility.yul\":3681:3767   */\n      tag_202\n      jump\t// in\n    tag_201:\n        /* \"#utility.yul\":3674:3767   */\n      swap4\n      pop\n        /* \"#utility.yul\":3791:3847   */\n      tag_203\n        /* \"#utility.yul\":3841:3846   */\n      dup4\n        /* \"#utility.yul\":3791:3847   */\n      tag_204\n      jump\t// in\n    tag_203:\n        /* \"#utility.yul\":3870:3877   */\n      dup1\n        /* \"#utility.yul\":3901:3902   */\n      0x00\n        /* \"#utility.yul\":3886:4170   */\n    tag_205:\n        /* \"#utility.yul\":3911:3917   */\n      dup4\n        /* \"#utility.yul\":3908:3909   */\n      dup2\n        /* \"#utility.yul\":3905:3918   */\n      lt\n        /* \"#utility.yul\":3886:4170   */\n      iszero\n      tag_207\n      jumpi\n        /* \"#utility.yul\":3987:3993   */\n      dup2\n        /* \"#utility.yul\":3981:3994   */\n      mload\n        /* \"#utility.yul\":4014:4077   */\n      tag_208\n        /* \"#utility.yul\":4073:4076   */\n      dup9\n        /* \"#utility.yul\":4058:4071   */\n      dup3\n        /* \"#utility.yul\":4014:4077   */\n      tag_175\n      jump\t// in\n    tag_208:\n        /* \"#utility.yul\":4007:4077   */\n      swap8\n      pop\n        /* \"#utility.yul\":4100:4160   */\n      tag_209\n        /* \"#utility.yul\":4153:4159   */\n      dup4\n        /* \"#utility.yul\":4100:4160   */\n      tag_210\n      jump\t// in\n    tag_209:\n        /* \"#utility.yul\":4090:4160   */\n      swap3\n      pop\n        /* \"#utility.yul\":3946:4170   */\n      pop\n        /* \"#utility.yul\":3933:3934   */\n      0x01\n        /* \"#utility.yul\":3930:3931   */\n      dup2\n        /* \"#utility.yul\":3926:3935   */\n      add\n        /* \"#utility.yul\":3921:3935   */\n      swap1\n      pop\n        /* \"#utility.yul\":3886:4170   */\n      jump(tag_205)\n    tag_207:\n        /* \"#utility.yul\":3890:3904   */\n      pop\n        /* \"#utility.yul\":4186:4189   */\n      dup6\n        /* \"#utility.yul\":4179:4189   */\n      swap4\n      pop\n        /* \"#utility.yul\":3587:4195   */\n      pop\n      pop\n      pop\n        /* \"#utility.yul\":3463:4195   */\n      swap3\n      swap2\n      pop\n      pop\n      jump\t// out\n        /* \"#utility.yul\":4225:4933   */\n    tag_211:\n        /* \"#utility.yul\":4338:4341   */\n      0x00\n        /* \"#utility.yul\":4367:4418   */\n      tag_213\n        /* \"#utility.yul\":4412:4417   */\n      dup3\n        /* \"#utility.yul\":4367:4418   */\n      tag_214\n      jump\t// in\n    tag_213:\n        /* \"#utility.yul\":4434:4517   */\n      tag_215\n        /* \"#utility.yul\":4510:4516   */\n      dup2\n        /* \"#utility.yul\":4505:4508   */\n      dup6\n        /* \"#utility.yul\":4434:4517   */\n      tag_216\n      jump\t// in\n    tag_215:\n        /* \"#utility.yul\":4427:4517   */\n      swap4\n      pop\n        /* \"#utility.yul\":4541:4594   */\n      tag_217\n        /* \"#utility.yul\":4588:4593   */\n      dup4\n        /* \"#utility.yul\":4541:4594   */\n      tag_218\n      jump\t// in\n    tag_217:\n        /* \"#utility.yul\":4617:4624   */\n      dup1\n        /* \"#utility.yul\":4648:4649   */\n      0x00\n        /* \"#utility.yul\":4633:4908   */\n    tag_219:\n        /* \"#utility.yul\":4658:4664   */\n      dup4\n        /* \"#utility.yul\":4655:4656   */\n      dup2\n        /* \"#utility.yul\":4652:4665   */\n      lt\n        /* \"#utility.yul\":4633:4908   */\n      iszero\n      tag_221\n      jumpi\n        /* \"#utility.yul\":4734:4740   */\n      dup2\n        /* \"#utility.yul\":4728:4741   */\n      mload\n        /* \"#utility.yul\":4761:4818   */\n      tag_222\n        /* \"#utility.yul\":4814:4817   */\n      dup9\n        /* \"#utility.yul\":4799:4812   */\n      dup3\n        /* \"#utility.yul\":4761:4818   */\n      tag_179\n      jump\t// in\n    tag_222:\n        /* \"#utility.yul\":4754:4818   */\n      swap8\n      pop\n        /* \"#utility.yul\":4841:4898   */\n      tag_223\n        /* \"#utility.yul\":4891:4897   */\n      dup4\n        /* \"#utility.yul\":4841:4898   */\n      tag_224\n      jump\t// in\n    tag_223:\n        /* \"#utility.yul\":4831:4898   */\n      swap3\n      pop\n        /* \"#utility.yul\":4693:4908   */\n      pop\n        /* \"#utility.yul\":4680:4681   */\n      0x01\n        /* \"#utility.yul\":4677:4678   */\n      dup2\n        /* \"#utility.yul\":4673:4682   */\n      add\n        /* \"#utility.yul\":4668:4682   */\n      swap1\n      pop\n        /* \"#utility.yul\":4633:4908   */\n      jump(tag_219)\n    tag_221:\n        /* \"#utility.yul\":4637:4651   */\n      pop\n        /* \"#utility.yul\":4924:4927   */\n      dup6\n        /* \"#utility.yul\":4917:4927   */\n      swap4\n      pop\n        /* \"#utility.yul\":4343:4933   */\n      pop\n      pop\n      pop\n        /* \"#utility.yul\":4225:4933   */\n      swap3\n      swap2\n      pop\n      pop\n      jump\t// out\n        /* \"#utility.yul\":4967:5958   */\n    tag_225:\n        /* \"#utility.yul\":5106:5109   */\n      0x00\n        /* \"#utility.yul\":5135:5199   */\n      tag_227\n        /* \"#utility.yul\":5193:5198   */\n      dup3\n        /* \"#utility.yul\":5135:5199   */\n      tag_228\n      jump\t// in\n    tag_227:\n        /* \"#utility.yul\":5215:5311   */\n      tag_229\n        /* \"#utility.yul\":5304:5310   */\n      dup2\n        /* \"#utility.yul\":5299:5302   */\n      dup6\n        /* \"#utility.yul\":5215:5311   */\n      tag_230\n      jump\t// in\n    tag_229:\n        /* \"#utility.yul\":5208:5311   */\n      swap4\n      pop\n        /* \"#utility.yul\":5337:5340   */\n      dup4\n        /* \"#utility.yul\":5382:5386   */\n      0x20\n        /* \"#utility.yul\":5374:5380   */\n      dup3\n        /* \"#utility.yul\":5370:5387   */\n      mul\n        /* \"#utility.yul\":5365:5368   */\n      dup6\n        /* \"#utility.yul\":5361:5388   */\n      add\n        /* \"#utility.yul\":5412:5478   */\n      tag_231\n        /* \"#utility.yul\":5472:5477   */\n      dup6\n        /* \"#utility.yul\":5412:5478   */\n      tag_232\n      jump\t// in\n    tag_231:\n        /* \"#utility.yul\":5501:5508   */\n      dup1\n        /* \"#utility.yul\":5532:5533   */\n      0x00\n        /* \"#utility.yul\":5517:5913   */\n    tag_233:\n        /* \"#utility.yul\":5542:5548   */\n      dup6\n        /* \"#utility.yul\":5539:5540   */\n      dup2\n        /* \"#utility.yul\":5536:5549   */\n      lt\n        /* \"#utility.yul\":5517:5913   */\n      iszero\n      tag_235\n      jumpi\n        /* \"#utility.yul\":5613:5622   */\n      dup5\n        /* \"#utility.yul\":5607:5611   */\n      dup5\n        /* \"#utility.yul\":5603:5623   */\n      sub\n        /* \"#utility.yul\":5598:5601   */\n      dup10\n        /* \"#utility.yul\":5591:5624   */\n      mstore\n        /* \"#utility.yul\":5664:5670   */\n      dup2\n        /* \"#utility.yul\":5658:5671   */\n      mload\n        /* \"#utility.yul\":5692:5776   */\n      tag_236\n        /* \"#utility.yul\":5771:5775   */\n      dup6\n        /* \"#utility.yul\":5756:5769   */\n      dup3\n        /* \"#utility.yul\":5692:5776   */\n      tag_183\n      jump\t// in\n    tag_236:\n        /* \"#utility.yul\":5684:5776   */\n      swap5\n      pop\n        /* \"#utility.yul\":5799:5869   */\n      tag_237\n        /* \"#utility.yul\":5862:5868   */\n      dup4\n        /* \"#utility.yul\":5799:5869   */\n      tag_238\n      jump\t// in\n    tag_237:\n        /* \"#utility.yul\":5789:5869   */\n      swap3\n      pop\n        /* \"#utility.yul\":5898:5902   */\n      0x20\n        /* \"#utility.yul\":5893:5896   */\n      dup11\n        /* \"#utility.yul\":5889:5903   */\n      add\n        /* \"#utility.yul\":5882:5903   */\n      swap10\n      pop\n        /* \"#utility.yul\":5577:5913   */\n      pop\n        /* \"#utility.yul\":5564:5565   */\n      0x01\n        /* \"#utility.yul\":5561:5562   */\n      dup2\n        /* \"#utility.yul\":5557:5566   */\n      add\n        /* \"#utility.yul\":5552:5566   */\n      swap1\n      pop\n        /* \"#utility.yul\":5517:5913   */\n      jump(tag_233)\n    tag_235:\n        /* \"#utility.yul\":5521:5535   */\n      pop\n        /* \"#utility.yul\":5929:5933   */\n      dup3\n        /* \"#utility.yul\":5922:5933   */\n      swap8\n      pop\n        /* \"#utility.yul\":5949:5952   */\n      dup8\n        /* \"#utility.yul\":5942:5952   */\n      swap6\n      pop\n        /* \"#utility.yul\":5111:5958   */\n      pop\n      pop\n      pop\n      pop\n      pop\n        /* \"#utility.yul\":4967:5958   */\n      swap3\n      swap2\n      pop\n      pop\n      jump\t// out\n        /* \"#utility.yul\":6014:7085   */\n    tag_239:\n        /* \"#utility.yul\":6173:6176   */\n      0x00\n        /* \"#utility.yul\":6202:6276   */\n      tag_241\n        /* \"#utility.yul\":6270:6275   */\n      dup3\n        /* \"#utility.yul\":6202:6276   */\n      tag_242\n      jump\t// in\n    tag_241:\n        /* \"#utility.yul\":6292:6398   */\n      tag_243\n        /* \"#utility.yul\":6391:6397   */\n      dup2\n        /* \"#utility.yul\":6386:6389   */\n      dup6\n        /* \"#utility.yul\":6292:6398   */\n      tag_244\n      jump\t// in\n    tag_243:\n        /* \"#utility.yul\":6285:6398   */\n      swap4\n      pop\n        /* \"#utility.yul\":6424:6427   */\n      dup4\n        /* \"#utility.yul\":6469:6473   */\n      0x20\n        /* \"#utility.yul\":6461:6467   */\n      dup3\n        /* \"#utility.yul\":6457:6474   */\n      mul\n        /* \"#utility.yul\":6452:6455   */\n      dup6\n        /* \"#utility.yul\":6448:6475   */\n      add\n        /* \"#utility.yul\":6499:6575   */\n      tag_245\n        /* \"#utility.yul\":6569:6574   */\n      dup6\n        /* \"#utility.yul\":6499:6575   */\n      tag_246\n      jump\t// in\n    tag_245:\n        /* \"#utility.yul\":6598:6605   */\n      dup1\n        /* \"#utility.yul\":6629:6630   */\n      0x00\n        /* \"#utility.yul\":6614:7040   */\n    tag_247:\n        /* \"#utility.yul\":6639:6645   */\n      dup6\n        /* \"#utility.yul\":6636:6637   */\n      dup2\n        /* \"#utility.yul\":6633:6646   */\n      lt\n        /* \"#utility.yul\":6614:7040   */\n      iszero\n      tag_249\n      jumpi\n        /* \"#utility.yul\":6710:6719   */\n      dup5\n        /* \"#utility.yul\":6704:6708   */\n      dup5\n        /* \"#utility.yul\":6700:6720   */\n      sub\n        /* \"#utility.yul\":6695:6698   */\n      dup10\n        /* \"#utility.yul\":6688:6721   */\n      mstore\n        /* \"#utility.yul\":6761:6767   */\n      dup2\n        /* \"#utility.yul\":6755:6768   */\n      mload\n        /* \"#utility.yul\":6789:6893   */\n      tag_250\n        /* \"#utility.yul\":6888:6892   */\n      dup6\n        /* \"#utility.yul\":6873:6886   */\n      dup3\n        /* \"#utility.yul\":6789:6893   */\n      tag_187\n      jump\t// in\n    tag_250:\n        /* \"#utility.yul\":6781:6893   */\n      swap5\n      pop\n        /* \"#utility.yul\":6916:6996   */\n      tag_251\n        /* \"#utility.yul\":6989:6995   */\n      dup4\n        /* \"#utility.yul\":6916:6996   */\n      tag_252\n      jump\t// in\n    tag_251:\n        /* \"#utility.yul\":6906:6996   */\n      swap3\n      pop\n        /* \"#utility.yul\":7025:7029   */\n      0x20\n        /* \"#utility.yul\":7020:7023   */\n      dup11\n        /* \"#utility.yul\":7016:7030   */\n      add\n        /* \"#utility.yul\":7009:7030   */\n      swap10\n      pop\n        /* \"#utility.yul\":6674:7040   */\n      pop\n        /* \"#utility.yul\":6661:6662   */\n      0x01\n        /* \"#utility.yul\":6658:6659   */\n      dup2\n        /* \"#utility.yul\":6654:6663   */\n      add\n        /* \"#utility.yul\":6649:6663   */\n      swap1\n      pop\n        /* \"#utility.yul\":6614:7040   */\n      jump(tag_247)\n    tag_249:\n        /* \"#utility.yul\":6618:6632   */\n      pop\n        /* \"#utility.yul\":7056:7060   */\n      dup3\n        /* \"#utility.yul\":7049:7060   */\n      swap8\n      pop\n        /* \"#utility.yul\":7076:7079   */\n      dup8\n        /* \"#utility.yul\":7069:7079   */\n      swap6\n      pop\n        /* \"#utility.yul\":6178:7085   */\n      pop\n      pop\n      pop\n      pop\n      pop\n        /* \"#utility.yul\":6014:7085   */\n      swap3\n      swap2\n      pop\n      pop\n      jump\t// out\n        /* \"#utility.yul\":7091:7190   */\n    tag_182:\n        /* \"#utility.yul\":7162:7183   */\n      tag_254\n        /* \"#utility.yul\":7177:7182   */\n      dup2\n        /* \"#utility.yul\":7162:7183   */\n      tag_255\n      jump\t// in\n    tag_254:\n        /* \"#utility.yul\":7157:7160   */\n      dup3\n        /* \"#utility.yul\":7150:7184   */\n      mstore\n        /* \"#utility.yul\":7091:7190   */\n      pop\n      pop\n      jump\t// out\n        /* \"#utility.yul\":7196:7305   */\n    tag_256:\n        /* \"#utility.yul\":7277:7298   */\n      tag_258\n        /* \"#utility.yul\":7292:7297   */\n      dup2\n        /* \"#utility.yul\":7277:7298   */\n      tag_255\n      jump\t// in\n    tag_258:\n        /* \"#utility.yul\":7272:7275   */\n      dup3\n        /* \"#utility.yul\":7265:7299   */\n      mstore\n        /* \"#utility.yul\":7196:7305   */\n      pop\n      pop\n      jump\t// out\n        /* \"#utility.yul\":7311:7655   */\n    tag_186:\n        /* \"#utility.yul\":7389:7392   */\n      0x00\n        /* \"#utility.yul\":7417:7456   */\n      tag_260\n        /* \"#utility.yul\":7450:7455   */\n      dup3\n        /* \"#utility.yul\":7417:7456   */\n      tag_261\n      jump\t// in\n    tag_260:\n        /* \"#utility.yul\":7472:7533   */\n      tag_262\n        /* \"#utility.yul\":7526:7532   */\n      dup2\n        /* \"#utility.yul\":7521:7524   */\n      dup6\n        /* \"#utility.yul\":7472:7533   */\n      tag_263\n      jump\t// in\n    tag_262:\n        /* \"#utility.yul\":7465:7533   */\n      swap4\n      pop\n        /* \"#utility.yul\":7542:7594   */\n      tag_264\n        /* \"#utility.yul\":7587:7593   */\n      dup2\n        /* \"#utility.yul\":7582:7585   */\n      dup6\n        /* \"#utility.yul\":7575:7579   */\n      0x20\n        /* \"#utility.yul\":7568:7573   */\n      dup7\n        /* \"#utility.yul\":7564:7580   */\n      add\n        /* \"#utility.yul\":7542:7594   */\n      tag_265\n      jump\t// in\n    tag_264:\n        /* \"#utility.yul\":7619:7648   */\n      tag_266\n        /* \"#utility.yul\":7641:7647   */\n      dup2\n        /* \"#utility.yul\":7619:7648   */\n      tag_267\n      jump\t// in\n    tag_266:\n        /* \"#utility.yul\":7614:7617   */\n      dup5\n        /* \"#utility.yul\":7610:7649   */\n      add\n        /* \"#utility.yul\":7603:7649   */\n      swap2\n      pop\n        /* \"#utility.yul\":7393:7655   */\n      pop\n        /* \"#utility.yul\":7311:7655   */\n      swap3\n      swap2\n      pop\n      pop\n      jump\t// out\n        /* \"#utility.yul\":7661:8025   */\n    tag_268:\n        /* \"#utility.yul\":7749:7752   */\n      0x00\n        /* \"#utility.yul\":7777:7816   */\n      tag_270\n        /* \"#utility.yul\":7810:7815   */\n      dup3\n        /* \"#utility.yul\":7777:7816   */\n      tag_261\n      jump\t// in\n    tag_270:\n        /* \"#utility.yul\":7832:7903   */\n      tag_271\n        /* \"#utility.yul\":7896:7902   */\n      dup2\n        /* \"#utility.yul\":7891:7894   */\n      dup6\n        /* \"#utility.yul\":7832:7903   */\n      tag_272\n      jump\t// in\n    tag_271:\n        /* \"#utility.yul\":7825:7903   */\n      swap4\n      pop\n        /* \"#utility.yul\":7912:7964   */\n      tag_273\n        /* \"#utility.yul\":7957:7963   */\n      dup2\n        /* \"#utility.yul\":7952:7955   */\n      dup6\n        /* \"#utility.yul\":7945:7949   */\n      0x20\n        /* \"#utility.yul\":7938:7943   */\n      dup7\n        /* \"#utility.yul\":7934:7950   */\n      add\n        /* \"#utility.yul\":7912:7964   */\n      tag_265\n      jump\t// in\n    tag_273:\n        /* \"#utility.yul\":7989:8018   */\n      tag_274\n        /* \"#utility.yul\":8011:8017   */\n      dup2\n        /* \"#utility.yul\":7989:8018   */\n      tag_267\n      jump\t// in\n    tag_274:\n        /* \"#utility.yul\":7984:7987   */\n      dup5\n        /* \"#utility.yul\":7980:8019   */\n      add\n        /* \"#utility.yul\":7973:8019   */\n      swap2\n      pop\n        /* \"#utility.yul\":7753:8025   */\n      pop\n        /* \"#utility.yul\":7661:8025   */\n      swap3\n      swap2\n      pop\n      pop\n      jump\t// out\n        /* \"#utility.yul\":8077:9020   */\n    tag_190:\n        /* \"#utility.yul\":8176:8179   */\n      0x00\n        /* \"#utility.yul\":8212:8216   */\n      0x80\n        /* \"#utility.yul\":8207:8210   */\n      dup4\n        /* \"#utility.yul\":8203:8217   */\n      add\n        /* \"#utility.yul\":8301:8305   */\n      0x00\n        /* \"#utility.yul\":8294:8299   */\n      dup4\n        /* \"#utility.yul\":8290:8306   */\n      add\n        /* \"#utility.yul\":8284:8307   */\n      mload\n        /* \"#utility.yul\":8320:8383   */\n      tag_276\n        /* \"#utility.yul\":8377:8381   */\n      0x00\n        /* \"#utility.yul\":8372:8375   */\n      dup7\n        /* \"#utility.yul\":8368:8382   */\n      add\n        /* \"#utility.yul\":8354:8366   */\n      dup3\n        /* \"#utility.yul\":8320:8383   */\n      tag_277\n      jump\t// in\n    tag_276:\n        /* \"#utility.yul\":8227:8393   */\n      pop\n        /* \"#utility.yul\":8476:8480   */\n      0x20\n        /* \"#utility.yul\":8469:8474   */\n      dup4\n        /* \"#utility.yul\":8465:8481   */\n      add\n        /* \"#utility.yul\":8459:8482   */\n      mload\n        /* \"#utility.yul\":8529:8532   */\n      dup5\n        /* \"#utility.yul\":8523:8527   */\n      dup3\n        /* \"#utility.yul\":8519:8533   */\n      sub\n        /* \"#utility.yul\":8512:8516   */\n      0x20\n        /* \"#utility.yul\":8507:8510   */\n      dup7\n        /* \"#utility.yul\":8503:8517   */\n      add\n        /* \"#utility.yul\":8496:8534   */\n      mstore\n        /* \"#utility.yul\":8555:8628   */\n      tag_278\n        /* \"#utility.yul\":8623:8627   */\n      dup3\n        /* \"#utility.yul\":8609:8621   */\n      dup3\n        /* \"#utility.yul\":8555:8628   */\n      tag_186\n      jump\t// in\n    tag_278:\n        /* \"#utility.yul\":8547:8628   */\n      swap2\n      pop\n        /* \"#utility.yul\":8403:8639   */\n      pop\n        /* \"#utility.yul\":8729:8733   */\n      0x40\n        /* \"#utility.yul\":8722:8727   */\n      dup4\n        /* \"#utility.yul\":8718:8734   */\n      add\n        /* \"#utility.yul\":8712:8735   */\n      mload\n        /* \"#utility.yul\":8748:8811   */\n      tag_279\n        /* \"#utility.yul\":8805:8809   */\n      0x40\n        /* \"#utility.yul\":8800:8803   */\n      dup7\n        /* \"#utility.yul\":8796:8810   */\n      add\n        /* \"#utility.yul\":8782:8794   */\n      dup3\n        /* \"#utility.yul\":8748:8811   */\n      tag_178\n      jump\t// in\n    tag_279:\n        /* \"#utility.yul\":8649:8821   */\n      pop\n        /* \"#utility.yul\":8907:8911   */\n      0x60\n        /* \"#utility.yul\":8900:8905   */\n      dup4\n        /* \"#utility.yul\":8896:8912   */\n      add\n        /* \"#utility.yul\":8890:8913   */\n      mload\n        /* \"#utility.yul\":8926:8983   */\n      tag_280\n        /* \"#utility.yul\":8977:8981   */\n      0x60\n        /* \"#utility.yul\":8972:8975   */\n      dup7\n        /* \"#utility.yul\":8968:8982   */\n      add\n        /* \"#utility.yul\":8954:8966   */\n      dup3\n        /* \"#utility.yul\":8926:8983   */\n      tag_182\n      jump\t// in\n    tag_280:\n        /* \"#utility.yul\":8831:8993   */\n      pop\n        /* \"#utility.yul\":9010:9014   */\n      dup1\n        /* \"#utility.yul\":9003:9014   */\n      swap2\n      pop\n        /* \"#utility.yul\":8181:9020   */\n      pop\n        /* \"#utility.yul\":8077:9020   */\n      swap3\n      swap2\n      pop\n      pop\n      jump\t// out\n        /* \"#utility.yul\":9072:10025   */\n    tag_281:\n        /* \"#utility.yul\":9181:9184   */\n      0x00\n        /* \"#utility.yul\":9217:9221   */\n      0x80\n        /* \"#utility.yul\":9212:9215   */\n      dup4\n        /* \"#utility.yul\":9208:9222   */\n      add\n        /* \"#utility.yul\":9306:9310   */\n      0x00\n        /* \"#utility.yul\":9299:9304   */\n      dup4\n        /* \"#utility.yul\":9295:9311   */\n      add\n        /* \"#utility.yul\":9289:9312   */\n      mload\n        /* \"#utility.yul\":9325:9388   */\n      tag_283\n        /* \"#utility.yul\":9382:9386   */\n      0x00\n        /* \"#utility.yul\":9377:9380   */\n      dup7\n        /* \"#utility.yul\":9373:9387   */\n      add\n        /* \"#utility.yul\":9359:9371   */\n      dup3\n        /* \"#utility.yul\":9325:9388   */\n      tag_277\n      jump\t// in\n    tag_283:\n        /* \"#utility.yul\":9232:9398   */\n      pop\n        /* \"#utility.yul\":9481:9485   */\n      0x20\n        /* \"#utility.yul\":9474:9479   */\n      dup4\n        /* \"#utility.yul\":9470:9486   */\n      add\n        /* \"#utility.yul\":9464:9487   */\n      mload\n        /* \"#utility.yul\":9534:9537   */\n      dup5\n        /* \"#utility.yul\":9528:9532   */\n      dup3\n        /* \"#utility.yul\":9524:9538   */\n      sub\n        /* \"#utility.yul\":9517:9521   */\n      0x20\n        /* \"#utility.yul\":9512:9515   */\n      dup7\n        /* \"#utility.yul\":9508:9522   */\n      add\n        /* \"#utility.yul\":9501:9539   */\n      mstore\n        /* \"#utility.yul\":9560:9633   */\n      tag_284\n        /* \"#utility.yul\":9628:9632   */\n      dup3\n        /* \"#utility.yul\":9614:9626   */\n      dup3\n        /* \"#utility.yul\":9560:9633   */\n      tag_186\n      jump\t// in\n    tag_284:\n        /* \"#utility.yul\":9552:9633   */\n      swap2\n      pop\n        /* \"#utility.yul\":9408:9644   */\n      pop\n        /* \"#utility.yul\":9734:9738   */\n      0x40\n        /* \"#utility.yul\":9727:9732   */\n      dup4\n        /* \"#utility.yul\":9723:9739   */\n      add\n        /* \"#utility.yul\":9717:9740   */\n      mload\n        /* \"#utility.yul\":9753:9816   */\n      tag_285\n        /* \"#utility.yul\":9810:9814   */\n      0x40\n        /* \"#utility.yul\":9805:9808   */\n      dup7\n        /* \"#utility.yul\":9801:9815   */\n      add\n        /* \"#utility.yul\":9787:9799   */\n      dup3\n        /* \"#utility.yul\":9753:9816   */\n      tag_178\n      jump\t// in\n    tag_285:\n        /* \"#utility.yul\":9654:9826   */\n      pop\n        /* \"#utility.yul\":9912:9916   */\n      0x60\n        /* \"#utility.yul\":9905:9910   */\n      dup4\n        /* \"#utility.yul\":9901:9917   */\n      add\n        /* \"#utility.yul\":9895:9918   */\n      mload\n        /* \"#utility.yul\":9931:9988   */\n      tag_286\n        /* \"#utility.yul\":9982:9986   */\n      0x60\n        /* \"#utility.yul\":9977:9980   */\n      dup7\n        /* \"#utility.yul\":9973:9987   */\n      add\n        /* \"#utility.yul\":9959:9971   */\n      dup3\n        /* \"#utility.yul\":9931:9988   */\n      tag_182\n      jump\t// in\n    tag_286:\n        /* \"#utility.yul\":9836:9998   */\n      pop\n        /* \"#utility.yul\":10015:10019   */\n      dup1\n        /* \"#utility.yul\":10008:10019   */\n      swap2\n      pop\n        /* \"#utility.yul\":9186:10025   */\n      pop\n        /* \"#utility.yul\":9072:10025   */\n      swap3\n      swap2\n      pop\n      pop\n      jump\t// out\n        /* \"#utility.yul\":10031:10139   */\n    tag_277:\n        /* \"#utility.yul\":10108:10132   */\n      tag_288\n        /* \"#utility.yul\":10126:10131   */\n      dup2\n        /* \"#utility.yul\":10108:10132   */\n      tag_289\n      jump\t// in\n    tag_288:\n        /* \"#utility.yul\":10103:10106   */\n      dup3\n        /* \"#utility.yul\":10096:10133   */\n      mstore\n        /* \"#utility.yul\":10031:10139   */\n      pop\n      pop\n      jump\t// out\n        /* \"#utility.yul\":10145:10263   */\n    tag_290:\n        /* \"#utility.yul\":10232:10256   */\n      tag_292\n        /* \"#utility.yul\":10250:10255   */\n      dup2\n        /* \"#utility.yul\":10232:10256   */\n      tag_289\n      jump\t// in\n    tag_292:\n        /* \"#utility.yul\":10227:10230   */\n      dup3\n        /* \"#utility.yul\":10220:10257   */\n      mstore\n        /* \"#utility.yul\":10145:10263   */\n      pop\n      pop\n      jump\t// out\n        /* \"#utility.yul\":10269:11192   */\n    tag_42:\n        /* \"#utility.yul\":10582:10586   */\n      0x00\n        /* \"#utility.yul\":10620:10622   */\n      0x60\n        /* \"#utility.yul\":10609:10618   */\n      dup3\n        /* \"#utility.yul\":10605:10623   */\n      add\n        /* \"#utility.yul\":10597:10623   */\n      swap1\n      pop\n        /* \"#utility.yul\":10669:10678   */\n      dup2\n        /* \"#utility.yul\":10663:10667   */\n      dup2\n        /* \"#utility.yul\":10659:10679   */\n      sub\n        /* \"#utility.yul\":10655:10656   */\n      0x00\n        /* \"#utility.yul\":10644:10653   */\n      dup4\n        /* \"#utility.yul\":10640:10657   */\n      add\n        /* \"#utility.yul\":10633:10680   */\n      mstore\n        /* \"#utility.yul\":10697:10825   */\n      tag_294\n        /* \"#utility.yul\":10820:10824   */\n      dup2\n        /* \"#utility.yul\":10811:10817   */\n      dup7\n        /* \"#utility.yul\":10697:10825   */\n      tag_225\n      jump\t// in\n    tag_294:\n        /* \"#utility.yul\":10689:10825   */\n      swap1\n      pop\n        /* \"#utility.yul\":10872:10881   */\n      dup2\n        /* \"#utility.yul\":10866:10870   */\n      dup2\n        /* \"#utility.yul\":10862:10882   */\n      sub\n        /* \"#utility.yul\":10857:10859   */\n      0x20\n        /* \"#utility.yul\":10846:10855   */\n      dup4\n        /* \"#utility.yul\":10842:10860   */\n      add\n        /* \"#utility.yul\":10835:10883   */\n      mstore\n        /* \"#utility.yul\":10900:11008   */\n      tag_295\n        /* \"#utility.yul\":11003:11007   */\n      dup2\n        /* \"#utility.yul\":10994:11000   */\n      dup6\n        /* \"#utility.yul\":10900:11008   */\n      tag_197\n      jump\t// in\n    tag_295:\n        /* \"#utility.yul\":10892:11008   */\n      swap1\n      pop\n        /* \"#utility.yul\":11055:11064   */\n      dup2\n        /* \"#utility.yul\":11049:11053   */\n      dup2\n        /* \"#utility.yul\":11045:11065   */\n      sub\n        /* \"#utility.yul\":11040:11042   */\n      0x40\n        /* \"#utility.yul\":11029:11038   */\n      dup4\n        /* \"#utility.yul\":11025:11043   */\n      add\n        /* \"#utility.yul\":11018:11066   */\n      mstore\n        /* \"#utility.yul\":11083:11185   */\n      tag_296\n        /* \"#utility.yul\":11180:11184   */\n      dup2\n        /* \"#utility.yul\":11171:11177   */\n      dup5\n        /* \"#utility.yul\":11083:11185   */\n      tag_211\n      jump\t// in\n    tag_296:\n        /* \"#utility.yul\":11075:11185   */\n      swap1\n      pop\n        /* \"#utility.yul\":10269:11192   */\n      swap5\n      swap4\n      pop\n      pop\n      pop\n      pop\n      jump\t// out\n        /* \"#utility.yul\":11198:11651   */\n    tag_19:\n        /* \"#utility.yul\":11381:11385   */\n      0x00\n        /* \"#utility.yul\":11419:11421   */\n      0x20\n        /* \"#utility.yul\":11408:11417   */\n      dup3\n        /* \"#utility.yul\":11404:11422   */\n      add\n        /* \"#utility.yul\":11396:11422   */\n      swap1\n      pop\n        /* \"#utility.yul\":11468:11477   */\n      dup2\n        /* \"#utility.yul\":11462:11466   */\n      dup2\n        /* \"#utility.yul\":11458:11478   */\n      sub\n        /* \"#utility.yul\":11454:11455   */\n      0x00\n        /* \"#utility.yul\":11443:11452   */\n      dup4\n        /* \"#utility.yul\":11439:11456   */\n      add\n        /* \"#utility.yul\":11432:11479   */\n      mstore\n        /* \"#utility.yul\":11496:11644   */\n      tag_298\n        /* \"#utility.yul\":11639:11643   */\n      dup2\n        /* \"#utility.yul\":11630:11636   */\n      dup5\n        /* \"#utility.yul\":11496:11644   */\n      tag_239\n      jump\t// in\n    tag_298:\n        /* \"#utility.yul\":11488:11644   */\n      swap1\n      pop\n        /* \"#utility.yul\":11198:11651   */\n      swap3\n      swap2\n      pop\n      pop\n      jump\t// out\n        /* \"#utility.yul\":11657:12010   */\n    tag_29:\n        /* \"#utility.yul\":11790:11794   */\n      0x00\n        /* \"#utility.yul\":11828:11830   */\n      0x20\n        /* \"#utility.yul\":11817:11826   */\n      dup3\n        /* \"#utility.yul\":11813:11831   */\n      add\n        /* \"#utility.yul\":11805:11831   */\n      swap1\n      pop\n        /* \"#utility.yul\":11877:11886   */\n      dup2\n        /* \"#utility.yul\":11871:11875   */\n      dup2\n        /* \"#utility.yul\":11867:11887   */\n      sub\n        /* \"#utility.yul\":11863:11864   */\n      0x00\n        /* \"#utility.yul\":11852:11861   */\n      dup4\n        /* \"#utility.yul\":11848:11865   */\n      add\n        /* \"#utility.yul\":11841:11888   */\n      mstore\n        /* \"#utility.yul\":11905:12003   */\n      tag_300\n        /* \"#utility.yul\":11998:12002   */\n      dup2\n        /* \"#utility.yul\":11989:11995   */\n      dup5\n        /* \"#utility.yul\":11905:12003   */\n      tag_281\n      jump\t// in\n    tag_300:\n        /* \"#utility.yul\":11897:12003   */\n      swap1\n      pop\n        /* \"#utility.yul\":11657:12010   */\n      swap3\n      swap2\n      pop\n      pop\n      jump\t// out\n        /* \"#utility.yul\":12016:12238   */\n    tag_23:\n        /* \"#utility.yul\":12109:12113   */\n      0x00\n        /* \"#utility.yul\":12147:12149   */\n      0x20\n        /* \"#utility.yul\":12136:12145   */\n      dup3\n        /* \"#utility.yul\":12132:12150   */\n      add\n        /* \"#utility.yul\":12124:12150   */\n      swap1\n      pop\n        /* \"#utility.yul\":12160:12231   */\n      tag_302\n        /* \"#utility.yul\":12228:12229   */\n      0x00\n        /* \"#utility.yul\":12217:12226   */\n      dup4\n        /* \"#utility.yul\":12213:12230   */\n      add\n        /* \"#utility.yul\":12204:12210   */\n      dup5\n        /* \"#utility.yul\":12160:12231   */\n      tag_290\n      jump\t// in\n    tag_302:\n        /* \"#utility.yul\":12016:12238   */\n      swap3\n      swap2\n      pop\n      pop\n      jump\t// out\n        /* \"#utility.yul\":12244:12876   */\n    tag_34:\n        /* \"#utility.yul\":12435:12439   */\n      0x00\n        /* \"#utility.yul\":12473:12476   */\n      0x80\n        /* \"#utility.yul\":12462:12471   */\n      dup3\n        /* \"#utility.yul\":12458:12477   */\n      add\n        /* \"#utility.yul\":12450:12477   */\n      swap1\n      pop\n        /* \"#utility.yul\":12487:12558   */\n      tag_304\n        /* \"#utility.yul\":12555:12556   */\n      0x00\n        /* \"#utility.yul\":12544:12553   */\n      dup4\n        /* \"#utility.yul\":12540:12557   */\n      add\n        /* \"#utility.yul\":12531:12537   */\n      dup8\n        /* \"#utility.yul\":12487:12558   */\n      tag_290\n      jump\t// in\n    tag_304:\n        /* \"#utility.yul\":12605:12614   */\n      dup2\n        /* \"#utility.yul\":12599:12603   */\n      dup2\n        /* \"#utility.yul\":12595:12615   */\n      sub\n        /* \"#utility.yul\":12590:12592   */\n      0x20\n        /* \"#utility.yul\":12579:12588   */\n      dup4\n        /* \"#utility.yul\":12575:12593   */\n      add\n        /* \"#utility.yul\":12568:12616   */\n      mstore\n        /* \"#utility.yul\":12633:12711   */\n      tag_305\n        /* \"#utility.yul\":12706:12710   */\n      dup2\n        /* \"#utility.yul\":12697:12703   */\n      dup7\n        /* \"#utility.yul\":12633:12711   */\n      tag_268\n      jump\t// in\n    tag_305:\n        /* \"#utility.yul\":12625:12711   */\n      swap1\n      pop\n        /* \"#utility.yul\":12721:12793   */\n      tag_306\n        /* \"#utility.yul\":12789:12791   */\n      0x40\n        /* \"#utility.yul\":12778:12787   */\n      dup4\n        /* \"#utility.yul\":12774:12792   */\n      add\n        /* \"#utility.yul\":12765:12771   */\n      dup6\n        /* \"#utility.yul\":12721:12793   */\n      tag_194\n      jump\t// in\n    tag_306:\n        /* \"#utility.yul\":12803:12869   */\n      tag_307\n        /* \"#utility.yul\":12865:12867   */\n      0x60\n        /* \"#utility.yul\":12854:12863   */\n      dup4\n        /* \"#utility.yul\":12850:12868   */\n      add\n        /* \"#utility.yul\":12841:12847   */\n      dup5\n        /* \"#utility.yul\":12803:12869   */\n      tag_256\n      jump\t// in\n    tag_307:\n        /* \"#utility.yul\":12244:12876   */\n      swap6\n      swap5\n      pop\n      pop\n      pop\n      pop\n      pop\n      jump\t// out\n        /* \"#utility.yul\":12882:13011   */\n    tag_138:\n        /* \"#utility.yul\":12916:12922   */\n      0x00\n        /* \"#utility.yul\":12943:12963   */\n      tag_309\n      tag_310\n      jump\t// in\n    tag_309:\n        /* \"#utility.yul\":12933:12963   */\n      swap1\n      pop\n        /* \"#utility.yul\":12972:13005   */\n      tag_311\n        /* \"#utility.yul\":13000:13004   */\n      dup3\n        /* \"#utility.yul\":12992:12998   */\n      dup3\n        /* \"#utility.yul\":12972:13005   */\n      tag_312\n      jump\t// in\n    tag_311:\n        /* \"#utility.yul\":12882:13011   */\n      swap2\n      swap1\n      pop\n      jump\t// out\n        /* \"#utility.yul\":13017:13092   */\n    tag_310:\n        /* \"#utility.yul\":13050:13056   */\n      0x00\n        /* \"#utility.yul\":13083:13085   */\n      0x40\n        /* \"#utility.yul\":13077:13086   */\n      mload\n        /* \"#utility.yul\":13067:13086   */\n      swap1\n      pop\n        /* \"#utility.yul\":13017:13092   */\n      swap1\n      jump\t// out\n        /* \"#utility.yul\":13098:13406   */\n    tag_137:\n        /* \"#utility.yul\":13160:13164   */\n      0x00\n        /* \"#utility.yul\":13250:13268   */\n      0xffffffffffffffff\n        /* \"#utility.yul\":13242:13248   */\n      dup3\n        /* \"#utility.yul\":13239:13269   */\n      gt\n        /* \"#utility.yul\":13236:13292   */\n      iszero\n      tag_315\n      jumpi\n        /* \"#utility.yul\":13272:13290   */\n      tag_316\n      tag_55\n      jump\t// in\n    tag_316:\n        /* \"#utility.yul\":13236:13292   */\n    tag_315:\n        /* \"#utility.yul\":13310:13339   */\n      tag_317\n        /* \"#utility.yul\":13332:13338   */\n      dup3\n        /* \"#utility.yul\":13310:13339   */\n      tag_267\n      jump\t// in\n    tag_317:\n        /* \"#utility.yul\":13302:13339   */\n      swap1\n      pop\n        /* \"#utility.yul\":13394:13398   */\n      0x20\n        /* \"#utility.yul\":13388:13392   */\n      dup2\n        /* \"#utility.yul\":13384:13399   */\n      add\n        /* \"#utility.yul\":13376:13399   */\n      swap1\n      pop\n        /* \"#utility.yul\":13098:13406   */\n      swap2\n      swap1\n      pop\n      jump\t// out\n        /* \"#utility.yul\":13412:13544   */\n    tag_204:\n        /* \"#utility.yul\":13479:13483   */\n      0x00\n        /* \"#utility.yul\":13502:13505   */\n      dup2\n        /* \"#utility.yul\":13494:13505   */\n      swap1\n      pop\n        /* \"#utility.yul\":13532:13536   */\n      0x20\n        /* \"#utility.yul\":13527:13530   */\n      dup3\n        /* \"#utility.yul\":13523:13537   */\n      add\n        /* \"#utility.yul\":13515:13537   */\n      swap1\n      pop\n        /* \"#utility.yul\":13412:13544   */\n      swap2\n      swap1\n      pop\n      jump\t// out\n        /* \"#utility.yul\":13550:13679   */\n    tag_218:\n        /* \"#utility.yul\":13614:13618   */\n      0x00\n        /* \"#utility.yul\":13637:13640   */\n      dup2\n        /* \"#utility.yul\":13629:13640   */\n      swap1\n      pop\n        /* \"#utility.yul\":13667:13671   */\n      0x20\n        /* \"#utility.yul\":13662:13665   */\n      dup3\n        /* \"#utility.yul\":13658:13672   */\n      add\n        /* \"#utility.yul\":13650:13672   */\n      swap1\n      pop\n        /* \"#utility.yul\":13550:13679   */\n      swap2\n      swap1\n      pop\n      jump\t// out\n        /* \"#utility.yul\":13685:13827   */\n    tag_232:\n        /* \"#utility.yul\":13762:13766   */\n      0x00\n        /* \"#utility.yul\":13785:13788   */\n      dup2\n        /* \"#utility.yul\":13777:13788   */\n      swap1\n      pop\n        /* \"#utility.yul\":13815:13819   */\n      0x20\n        /* \"#utility.yul\":13810:13813   */\n      dup3\n        /* \"#utility.yul\":13806:13820   */\n      add\n        /* \"#utility.yul\":13798:13820   */\n      swap1\n      pop\n        /* \"#utility.yul\":13685:13827   */\n      swap2\n      swap1\n      pop\n      jump\t// out\n        /* \"#utility.yul\":13833:13985   */\n    tag_246:\n        /* \"#utility.yul\":13920:13924   */\n      0x00\n        /* \"#utility.yul\":13943:13946   */\n      dup2\n        /* \"#utility.yul\":13935:13946   */\n      swap1\n      pop\n        /* \"#utility.yul\":13973:13977   */\n      0x20\n        /* \"#utility.yul\":13968:13971   */\n      dup3\n        /* \"#utility.yul\":13964:13978   */\n      add\n        /* \"#utility.yul\":13956:13978   */\n      swap1\n      pop\n        /* \"#utility.yul\":13833:13985   */\n      swap2\n      swap1\n      pop\n      jump\t// out\n        /* \"#utility.yul\":13991:14105   */\n    tag_200:\n        /* \"#utility.yul\":14058:14064   */\n      0x00\n        /* \"#utility.yul\":14092:14097   */\n      dup2\n        /* \"#utility.yul\":14086:14098   */\n      mload\n        /* \"#utility.yul\":14076:14098   */\n      swap1\n      pop\n        /* \"#utility.yul\":13991:14105   */\n      swap2\n      swap1\n      pop\n      jump\t// out\n        /* \"#utility.yul\":14111:14222   */\n    tag_214:\n        /* \"#utility.yul\":14175:14181   */\n      0x00\n        /* \"#utility.yul\":14209:14214   */\n      dup2\n        /* \"#utility.yul\":14203:14215   */\n      mload\n        /* \"#utility.yul\":14193:14215   */\n      swap1\n      pop\n        /* \"#utility.yul\":14111:14222   */\n      swap2\n      swap1\n      pop\n      jump\t// out\n        /* \"#utility.yul\":14228:14352   */\n    tag_228:\n        /* \"#utility.yul\":14305:14311   */\n      0x00\n        /* \"#utility.yul\":14339:14344   */\n      dup2\n        /* \"#utility.yul\":14333:14345   */\n      mload\n        /* \"#utility.yul\":14323:14345   */\n      swap1\n      pop\n        /* \"#utility.yul\":14228:14352   */\n      swap2\n      swap1\n      pop\n      jump\t// out\n        /* \"#utility.yul\":14358:14492   */\n    tag_242:\n        /* \"#utility.yul\":14445:14451   */\n      0x00\n        /* \"#utility.yul\":14479:14484   */\n      dup2\n        /* \"#utility.yul\":14473:14485   */\n      mload\n        /* \"#utility.yul\":14463:14485   */\n      swap1\n      pop\n        /* \"#utility.yul\":14358:14492   */\n      swap2\n      swap1\n      pop\n      jump\t// out\n        /* \"#utility.yul\":14498:14597   */\n    tag_261:\n        /* \"#utility.yul\":14550:14556   */\n      0x00\n        /* \"#utility.yul\":14584:14589   */\n      dup2\n        /* \"#utility.yul\":14578:14590   */\n      mload\n        /* \"#utility.yul\":14568:14590   */\n      swap1\n      pop\n        /* \"#utility.yul\":14498:14597   */\n      swap2\n      swap1\n      pop\n      jump\t// out\n        /* \"#utility.yul\":14603:14716   */\n    tag_210:\n        /* \"#utility.yul\":14673:14677   */\n      0x00\n        /* \"#utility.yul\":14705:14709   */\n      0x20\n        /* \"#utility.yul\":14700:14703   */\n      dup3\n        /* \"#utility.yul\":14696:14710   */\n      add\n        /* \"#utility.yul\":14688:14710   */\n      swap1\n      pop\n        /* \"#utility.yul\":14603:14716   */\n      swap2\n      swap1\n      pop\n      jump\t// out\n        /* \"#utility.yul\":14722:14832   */\n    tag_224:\n        /* \"#utility.yul\":14789:14793   */\n      0x00\n        /* \"#utility.yul\":14821:14825   */\n      0x20\n        /* \"#utility.yul\":14816:14819   */\n      dup3\n        /* \"#utility.yul\":14812:14826   */\n      add\n        /* \"#utility.yul\":14804:14826   */\n      swap1\n      pop\n        /* \"#utility.yul\":14722:14832   */\n      swap2\n      swap1\n      pop\n      jump\t// out\n        /* \"#utility.yul\":14838:14961   */\n    tag_238:\n        /* \"#utility.yul\":14918:14922   */\n      0x00\n        /* \"#utility.yul\":14950:14954   */\n      0x20\n        /* \"#utility.yul\":14945:14948   */\n      dup3\n        /* \"#utility.yul\":14941:14955   */\n      add\n        /* \"#utility.yul\":14933:14955   */\n      swap1\n      pop\n        /* \"#utility.yul\":14838:14961   */\n      swap2\n      swap1\n      pop\n      jump\t// out\n        /* \"#utility.yul\":14967:15100   */\n    tag_252:\n        /* \"#utility.yul\":15057:15061   */\n      0x00\n        /* \"#utility.yul\":15089:15093   */\n      0x20\n        /* \"#utility.yul\":15084:15087   */\n      dup3\n        /* \"#utility.yul\":15080:15094   */\n      add\n        /* \"#utility.yul\":15072:15094   */\n      swap1\n      pop\n        /* \"#utility.yul\":14967:15100   */\n      swap2\n      swap1\n      pop\n      jump\t// out\n        /* \"#utility.yul\":15106:15290   */\n    tag_202:\n        /* \"#utility.yul\":15205:15216   */\n      0x00\n        /* \"#utility.yul\":15239:15245   */\n      dup3\n        /* \"#utility.yul\":15234:15237   */\n      dup3\n        /* \"#utility.yul\":15227:15246   */\n      mstore\n        /* \"#utility.yul\":15279:15283   */\n      0x20\n        /* \"#utility.yul\":15274:15277   */\n      dup3\n        /* \"#utility.yul\":15270:15284   */\n      add\n        /* \"#utility.yul\":15255:15284   */\n      swap1\n      pop\n        /* \"#utility.yul\":15106:15290   */\n      swap3\n      swap2\n      pop\n      pop\n      jump\t// out\n        /* \"#utility.yul\":15296:15477   */\n    tag_216:\n        /* \"#utility.yul\":15392:15403   */\n      0x00\n        /* \"#utility.yul\":15426:15432   */\n      dup3\n        /* \"#utility.yul\":15421:15424   */\n      dup3\n        /* \"#utility.yul\":15414:15433   */\n      mstore\n        /* \"#utility.yul\":15466:15470   */\n      0x20\n        /* \"#utility.yul\":15461:15464   */\n      dup3\n        /* \"#utility.yul\":15457:15471   */\n      add\n        /* \"#utility.yul\":15442:15471   */\n      swap1\n      pop\n        /* \"#utility.yul\":15296:15477   */\n      swap3\n      swap2\n      pop\n      pop\n      jump\t// out\n        /* \"#utility.yul\":15483:15677   */\n    tag_230:\n        /* \"#utility.yul\":15592:15603   */\n      0x00\n        /* \"#utility.yul\":15626:15632   */\n      dup3\n        /* \"#utility.yul\":15621:15624   */\n      dup3\n        /* \"#utility.yul\":15614:15633   */\n      mstore\n        /* \"#utility.yul\":15666:15670   */\n      0x20\n        /* \"#utility.yul\":15661:15664   */\n      dup3\n        /* \"#utility.yul\":15657:15671   */\n      add\n        /* \"#utility.yul\":15642:15671   */\n      swap1\n      pop\n        /* \"#utility.yul\":15483:15677   */\n      swap3\n      swap2\n      pop\n      pop\n      jump\t// out\n        /* \"#utility.yul\":15683:15887   */\n    tag_244:\n        /* \"#utility.yul\":15802:15813   */\n      0x00\n        /* \"#utility.yul\":15836:15842   */\n      dup3\n        /* \"#utility.yul\":15831:15834   */\n      dup3\n        /* \"#utility.yul\":15824:15843   */\n      mstore\n        /* \"#utility.yul\":15876:15880   */\n      0x20\n        /* \"#utility.yul\":15871:15874   */\n      dup3\n        /* \"#utility.yul\":15867:15881   */\n      add\n        /* \"#utility.yul\":15852:15881   */\n      swap1\n      pop\n        /* \"#utility.yul\":15683:15887   */\n      swap3\n      swap2\n      pop\n      pop\n      jump\t// out\n        /* \"#utility.yul\":15893:16052   */\n    tag_263:\n        /* \"#utility.yul\":15967:15978   */\n      0x00\n        /* \"#utility.yul\":16001:16007   */\n      dup3\n        /* \"#utility.yul\":15996:15999   */\n      dup3\n        /* \"#utility.yul\":15989:16008   */\n      mstore\n        /* \"#utility.yul\":16041:16045   */\n      0x20\n        /* \"#utility.yul\":16036:16039   */\n      dup3\n        /* \"#utility.yul\":16032:16046   */\n      add\n        /* \"#utility.yul\":16017:16046   */\n      swap1\n      pop\n        /* \"#utility.yul\":15893:16052   */\n      swap3\n      swap2\n      pop\n      pop\n      jump\t// out\n        /* \"#utility.yul\":16058:16227   */\n    tag_272:\n        /* \"#utility.yul\":16142:16153   */\n      0x00\n        /* \"#utility.yul\":16176:16182   */\n      dup3\n        /* \"#utility.yul\":16171:16174   */\n      dup3\n        /* \"#utility.yul\":16164:16183   */\n      mstore\n        /* \"#utility.yul\":16216:16220   */\n      0x20\n        /* \"#utility.yul\":16211:16214   */\n      dup3\n        /* \"#utility.yul\":16207:16221   */\n      add\n        /* \"#utility.yul\":16192:16221   */\n      swap1\n      pop\n        /* \"#utility.yul\":16058:16227   */\n      swap3\n      swap2\n      pop\n      pop\n      jump\t// out\n        /* \"#utility.yul\":16233:16329   */\n    tag_193:\n        /* \"#utility.yul\":16270:16277   */\n      0x00\n        /* \"#utility.yul\":16299:16323   */\n      tag_338\n        /* \"#utility.yul\":16317:16322   */\n      dup3\n        /* \"#utility.yul\":16299:16323   */\n      tag_339\n      jump\t// in\n    tag_338:\n        /* \"#utility.yul\":16288:16323   */\n      swap1\n      pop\n        /* \"#utility.yul\":16233:16329   */\n      swap2\n      swap1\n      pop\n      jump\t// out\n        /* \"#utility.yul\":16335:16425   */\n    tag_255:\n        /* \"#utility.yul\":16369:16376   */\n      0x00\n        /* \"#utility.yul\":16412:16417   */\n      dup2\n        /* \"#utility.yul\":16405:16418   */\n      iszero\n        /* \"#utility.yul\":16398:16419   */\n      iszero\n        /* \"#utility.yul\":16387:16419   */\n      swap1\n      pop\n        /* \"#utility.yul\":16335:16425   */\n      swap2\n      swap1\n      pop\n      jump\t// out\n        /* \"#utility.yul\":16431:16557   */\n    tag_339:\n        /* \"#utility.yul\":16468:16475   */\n      0x00\n        /* \"#utility.yul\":16508:16550   */\n      0xffffffffffffffffffffffffffffffffffffffff\n        /* \"#utility.yul\":16501:16506   */\n      dup3\n        /* \"#utility.yul\":16497:16551   */\n      and\n        /* \"#utility.yul\":16486:16551   */\n      swap1\n      pop\n        /* \"#utility.yul\":16431:16557   */\n      swap2\n      swap1\n      pop\n      jump\t// out\n        /* \"#utility.yul\":16563:16640   */\n    tag_289:\n        /* \"#utility.yul\":16600:16607   */\n      0x00\n        /* \"#utility.yul\":16629:16634   */\n      dup2\n        /* \"#utility.yul\":16618:16634   */\n      swap1\n      pop\n        /* \"#utility.yul\":16563:16640   */\n      swap2\n      swap1\n      pop\n      jump\t// out\n        /* \"#utility.yul\":16646:16800   */\n    tag_143:\n        /* \"#utility.yul\":16730:16736   */\n      dup3\n        /* \"#utility.yul\":16725:16728   */\n      dup2\n        /* \"#utility.yul\":16720:16723   */\n      dup4\n        /* \"#utility.yul\":16707:16737   */\n      calldatacopy\n        /* \"#utility.yul\":16792:16793   */\n      0x00\n        /* \"#utility.yul\":16783:16789   */\n      dup4\n        /* \"#utility.yul\":16778:16781   */\n      dup4\n        /* \"#utility.yul\":16774:16790   */\n      add\n        /* \"#utility.yul\":16767:16794   */\n      mstore\n        /* \"#utility.yul\":16646:16800   */\n      pop\n      pop\n      pop\n      jump\t// out\n        /* \"#utility.yul\":16806:17113   */\n    tag_265:\n        /* \"#utility.yul\":16874:16875   */\n      0x00\n        /* \"#utility.yul\":16884:16997   */\n    tag_345:\n        /* \"#utility.yul\":16898:16904   */\n      dup4\n        /* \"#utility.yul\":16895:16896   */\n      dup2\n        /* \"#utility.yul\":16892:16905   */\n      lt\n        /* \"#utility.yul\":16884:16997   */\n      iszero\n      tag_347\n      jumpi\n        /* \"#utility.yul\":16983:16984   */\n      dup1\n        /* \"#utility.yul\":16978:16981   */\n      dup3\n        /* \"#utility.yul\":16974:16985   */\n      add\n        /* \"#utility.yul\":16968:16986   */\n      mload\n        /* \"#utility.yul\":16964:16965   */\n      dup2\n        /* \"#utility.yul\":16959:16962   */\n      dup5\n        /* \"#utility.yul\":16955:16966   */\n      add\n        /* \"#utility.yul\":16948:16987   */\n      mstore\n        /* \"#utility.yul\":16920:16922   */\n      0x20\n        /* \"#utility.yul\":16917:16918   */\n      dup2\n        /* \"#utility.yul\":16913:16923   */\n      add\n        /* \"#utility.yul\":16908:16923   */\n      swap1\n      pop\n        /* \"#utility.yul\":16884:16997   */\n      jump(tag_345)\n    tag_347:\n        /* \"#utility.yul\":17015:17021   */\n      dup4\n        /* \"#utility.yul\":17012:17013   */\n      dup2\n        /* \"#utility.yul\":17009:17022   */\n      gt\n        /* \"#utility.yul\":17006:17107   */\n      iszero\n      tag_348\n      jumpi\n        /* \"#utility.yul\":17095:17096   */\n      0x00\n        /* \"#utility.yul\":17086:17092   */\n      dup5\n        /* \"#utility.yul\":17081:17084   */\n      dup5\n        /* \"#utility.yul\":17077:17093   */\n      add\n        /* \"#utility.yul\":17070:17097   */\n      mstore\n        /* \"#utility.yul\":17006:17107   */\n    tag_348:\n        /* \"#utility.yul\":16855:17113   */\n      pop\n        /* \"#utility.yul\":16806:17113   */\n      pop\n      pop\n      pop\n      jump\t// out\n        /* \"#utility.yul\":17119:17439   */\n    tag_64:\n        /* \"#utility.yul\":17163:17169   */\n      0x00\n        /* \"#utility.yul\":17200:17201   */\n      0x02\n        /* \"#utility.yul\":17194:17198   */\n      dup3\n        /* \"#utility.yul\":17190:17202   */\n      div\n        /* \"#utility.yul\":17180:17202   */\n      swap1\n      pop\n        /* \"#utility.yul\":17247:17248   */\n      0x01\n        /* \"#utility.yul\":17241:17245   */\n      dup3\n        /* \"#utility.yul\":17237:17249   */\n      and\n        /* \"#utility.yul\":17268:17286   */\n      dup1\n        /* \"#utility.yul\":17258:17339   */\n      tag_350\n      jumpi\n        /* \"#utility.yul\":17324:17328   */\n      0x7f\n        /* \"#utility.yul\":17316:17322   */\n      dup3\n        /* \"#utility.yul\":17312:17329   */\n      and\n        /* \"#utility.yul\":17302:17329   */\n      swap2\n      pop\n        /* \"#utility.yul\":17258:17339   */\n    tag_350:\n        /* \"#utility.yul\":17386:17388   */\n      0x20\n        /* \"#utility.yul\":17378:17384   */\n      dup3\n        /* \"#utility.yul\":17375:17389   */\n      lt\n        /* \"#utility.yul\":17355:17373   */\n      dup2\n        /* \"#utility.yul\":17352:17390   */\n      eq\n        /* \"#utility.yul\":17349:17433   */\n      iszero\n      tag_351\n      jumpi\n        /* \"#utility.yul\":17405:17423   */\n      tag_352\n      tag_353\n      jump\t// in\n    tag_352:\n        /* \"#utility.yul\":17349:17433   */\n    tag_351:\n        /* \"#utility.yul\":17170:17439   */\n      pop\n        /* \"#utility.yul\":17119:17439   */\n      swap2\n      swap1\n      pop\n      jump\t// out\n        /* \"#utility.yul\":17445:17726   */\n    tag_312:\n        /* \"#utility.yul\":17528:17555   */\n      tag_355\n        /* \"#utility.yul\":17550:17554   */\n      dup3\n        /* \"#utility.yul\":17528:17555   */\n      tag_267\n      jump\t// in\n    tag_355:\n        /* \"#utility.yul\":17520:17526   */\n      dup2\n        /* \"#utility.yul\":17516:17556   */\n      add\n        /* \"#utility.yul\":17658:17664   */\n      dup2\n        /* \"#utility.yul\":17646:17656   */\n      dup2\n        /* \"#utility.yul\":17643:17665   */\n      lt\n        /* \"#utility.yul\":17622:17640   */\n      0xffffffffffffffff\n        /* \"#utility.yul\":17610:17620   */\n      dup3\n        /* \"#utility.yul\":17607:17641   */\n      gt\n        /* \"#utility.yul\":17604:17666   */\n      or\n        /* \"#utility.yul\":17601:17689   */\n      iszero\n      tag_356\n      jumpi\n        /* \"#utility.yul\":17669:17687   */\n      tag_357\n      tag_55\n      jump\t// in\n    tag_357:\n        /* \"#utility.yul\":17601:17689   */\n    tag_356:\n        /* \"#utility.yul\":17709:17719   */\n      dup1\n        /* \"#utility.yul\":17705:17707   */\n      0x40\n        /* \"#utility.yul\":17698:17720   */\n      mstore\n        /* \"#utility.yul\":17488:17726   */\n      pop\n        /* \"#utility.yul\":17445:17726   */\n      pop\n      pop\n      jump\t// out\n        /* \"#utility.yul\":17732:17965   */\n    tag_51:\n        /* \"#utility.yul\":17771:17774   */\n      0x00\n        /* \"#utility.yul\":17794:17818   */\n      tag_359\n        /* \"#utility.yul\":17812:17817   */\n      dup3\n        /* \"#utility.yul\":17794:17818   */\n      tag_289\n      jump\t// in\n    tag_359:\n        /* \"#utility.yul\":17785:17818   */\n      swap2\n      pop\n        /* \"#utility.yul\":17840:17906   */\n      0xffffffffffffffffffffffffffffffffffffffffffffffffffffffffffffffff\n        /* \"#utility.yul\":17833:17838   */\n      dup3\n        /* \"#utility.yul\":17830:17907   */\n      eq\n        /* \"#utility.yul\":17827:17930   */\n      iszero\n      tag_360\n      jumpi\n        /* \"#utility.yul\":17910:17928   */\n      tag_361\n      tag_362\n      jump\t// in\n    tag_361:\n        /* \"#utility.yul\":17827:17930   */\n    tag_360:\n        /* \"#utility.yul\":17957:17958   */\n      0x01\n        /* \"#utility.yul\":17950:17955   */\n      dup3\n        /* \"#utility.yul\":17946:17959   */\n      add\n        /* \"#utility.yul\":17939:17959   */\n      swap1\n      pop\n        /* \"#utility.yul\":17732:17965   */\n      swap2\n      swap1\n      pop\n      jump\t// out\n        /* \"#utility.yul\":17971:18151   */\n    tag_362:\n        /* \"#utility.yul\":18019:18096   */\n      0x4e487b7100000000000000000000000000000000000000000000000000000000\n        /* \"#utility.yul\":18016:18017   */\n      0x00\n        /* \"#utility.yul\":18009:18097   */\n      mstore\n        /* \"#utility.yul\":18116:18120   */\n      0x11\n        /* \"#utility.yul\":18113:18114   */\n      0x04\n        /* \"#utility.yul\":18106:18121   */\n      mstore\n        /* \"#utility.yul\":18140:18144   */\n      0x24\n        /* \"#utility.yul\":18137:18138   */\n      0x00\n        /* \"#utility.yul\":18130:18145   */\n      revert\n        /* \"#utility.yul\":18157:18337   */\n    tag_353:\n        /* \"#utility.yul\":18205:18282   */\n      0x4e487b7100000000000000000000000000000000000000000000000000000000\n        /* \"#utility.yul\":18202:18203   */\n      0x00\n        /* \"#utility.yul\":18195:18283   */\n      mstore\n        /* \"#utility.yul\":18302:18306   */\n      0x22\n        /* \"#utility.yul\":18299:18300   */\n      0x04\n        /* \"#utility.yul\":18292:18307   */\n      mstore\n        /* \"#utility.yul\":18326:18330   */\n      0x24\n        /* \"#utility.yul\":18323:18324   */\n      0x00\n        /* \"#utility.yul\":18316:18331   */\n      revert\n        /* \"#utility.yul\":18343:18523   */\n    tag_71:\n        /* \"#utility.yul\":18391:18468   */\n      0x4e487b7100000000000000000000000000000000000000000000000000000000\n        /* \"#utility.yul\":18388:18389   */\n      0x00\n        /* \"#utility.yul\":18381:18469   */\n      mstore\n        /* \"#utility.yul\":18488:18492   */\n      0x32\n        /* \"#utility.yul\":18485:18486   */\n      0x04\n        /* \"#utility.yul\":18478:18493   */\n      mstore\n        /* \"#utility.yul\":18512:18516   */\n      0x24\n        /* \"#utility.yul\":18509:18510   */\n      0x00\n        /* \"#utility.yul\":18502:18517   */\n      revert\n        /* \"#utility.yul\":18529:18709   */\n    tag_55:\n        /* \"#utility.yul\":18577:18654   */\n      0x4e487b7100000000000000000000000000000000000000000000000000000000\n        /* \"#utility.yul\":18574:18575   */\n      0x00\n        /* \"#utility.yul\":18567:18655   */\n      mstore\n        /* \"#utility.yul\":18674:18678   */\n      0x41\n        /* \"#utility.yul\":18671:18672   */\n      0x04\n        /* \"#utility.yul\":18664:18679   */\n      mstore\n        /* \"#utility.yul\":18698:18702   */\n      0x24\n        /* \"#utility.yul\":18695:18696   */\n      0x00\n        /* \"#utility.yul\":18688:18703   */\n      revert\n        /* \"#utility.yul\":18715:18832   */\n    tag_152:\n        /* \"#utility.yul\":18824:18825   */\n      0x00\n        /* \"#utility.yul\":18821:18822   */\n      dup1\n        /* \"#utility.yul\":18814:18826   */\n      revert\n        /* \"#utility.yul\":18838:18955   */\n    tag_141:\n        /* \"#utility.yul\":18947:18948   */\n      0x00\n        /* \"#utility.yul\":18944:18945   */\n      dup1\n        /* \"#utility.yul\":18937:18949   */\n      revert\n        /* \"#utility.yul\":18961:19078   */\n    tag_164:\n        /* \"#utility.yul\":19070:19071   */\n      0x00\n        /* \"#utility.yul\":19067:19068   */\n      dup1\n        /* \"#utility.yul\":19060:19072   */\n      revert\n        /* \"#utility.yul\":19084:19201   */\n    tag_161:\n        /* \"#utility.yul\":19193:19194   */\n      0x00\n        /* \"#utility.yul\":19190:19191   */\n      dup1\n        /* \"#utility.yul\":19183:19195   */\n      revert\n        /* \"#utility.yul\":19207:19309   */\n    tag_267:\n        /* \"#utility.yul\":19248:19254   */\n      0x00\n        /* \"#utility.yul\":19299:19301   */\n      0x1f\n        /* \"#utility.yul\":19295:19302   */\n      not\n        /* \"#utility.yul\":19290:19292   */\n      0x1f\n        /* \"#utility.yul\":19283:19288   */\n      dup4\n        /* \"#utility.yul\":19279:19293   */\n      add\n        /* \"#utility.yul\":19275:19303   */\n      and\n        /* \"#utility.yul\":19265:19303   */\n      swap1\n      pop\n        /* \"#utility.yul\":19207:19309   */\n      swap2\n      swap1\n      pop\n      jump\t// out\n        /* \"#utility.yul\":19315:19431   */\n    tag_147:\n        /* \"#utility.yul\":19385:19406   */\n      tag_373\n        /* \"#utility.yul\":19400:19405   */\n      dup2\n        /* \"#utility.yul\":19385:19406   */\n      tag_255\n      jump\t// in\n    tag_373:\n        /* \"#utility.yul\":19378:19383   */\n      dup2\n        /* \"#utility.yul\":19375:19407   */\n      eq\n        /* \"#utility.yul\":19365:19425   */\n      tag_374\n      jumpi\n        /* \"#utility.yul\":19421:19422   */\n      0x00\n        /* \"#utility.yul\":19418:19419   */\n      dup1\n        /* \"#utility.yul\":19411:19423   */\n      revert\n        /* \"#utility.yul\":19365:19425   */\n    tag_374:\n        /* \"#utility.yul\":19315:19431   */\n      pop\n      jump\t// out\n        /* \"#utility.yul\":19437:19559   */\n    tag_157:\n        /* \"#utility.yul\":19510:19534   */\n      tag_376\n        /* \"#utility.yul\":19528:19533   */\n      dup2\n        /* \"#utility.yul\":19510:19534   */\n      tag_289\n      jump\t// in\n    tag_376:\n        /* \"#utility.yul\":19503:19508   */\n      dup2\n        /* \"#utility.yul\":19500:19535   */\n      eq\n        /* \"#utility.yul\":19490:19553   */\n      tag_377\n      jumpi\n        /* \"#utility.yul\":19549:19550   */\n      0x00\n        /* \"#utility.yul\":19546:19547   */\n      dup1\n        /* \"#utility.yul\":19539:19551   */\n      revert\n        /* \"#utility.yul\":19490:19553   */\n    tag_377:\n        /* \"#utility.yul\":19437:19559   */\n      pop\n      jump\t// out\n\n    auxdata: 0xa264697066735822122081618568939ec837774e24d0fc25a4c7cf9970fd6a2e02004febe8de2343642e64736f6c63430008070033\n}\n",
				"bytecode": {
					"linkReferences": {},
					"object": "608060405234801561001057600080fd5b506000600381905550336000806101000a81548173ffffffffffffffffffffffffffffffffffffffff021916908373ffffffffffffffffffffffffffffffffffffffff1602179055506115b2806100686000396000f3fe608060405234801561001057600080fd5b50600436106100885760003560e01c8063b0d548df1161005b578063b0d548df14610115578063e259effa14610148578063f2a5028114610164578063fca5e61e1461018457610088565b8063223883de1461008d5780635fb07a62146100a957806392812e6f146100c75780639507d39a146100e5575b600080fd5b6100a760048036038101906100a29190610c93565b6101b7565b005b6100b16102b4565b6040516100be9190611125565b60405180910390f35b6100cf610487565b6040516100dc9190611169565b60405180910390f35b6100ff60048036038101906100fa9190610cdc565b61048d565b60405161010c9190611147565b60405180910390f35b61012f600480360381019061012a9190610c93565b6105c7565b60405161013f9493929190611184565b60405180910390f35b610162600480360381019061015d9190610d09565b6106c2565b005b61016c61074c565b60405161017b939291906110d9565b60405180910390f35b61019e60048036038101906101999190610cdc565b610a31565b6040516101ae9493929190611184565b60405180910390f35b604051806080016040528060035481526020018281526020013373ffffffffffffffffffffffffffffffffffffffff1681526020016001151581525060016000600354815260200190815260200160002060008201518160000155602082015181600101908051906020019061022e929190610b16565b5060408201518160020160006101000a81548173ffffffffffffffffffffffffffffffffffffffff021916908373ffffffffffffffffffffffffffffffffffffffff16021790555060608201518160020160146101000a81548160ff021916908315150217905550905050600360008154809291906102ac90611424565b919050555050565b6060600060035467ffffffffffffffff8111156102d4576102d36114fa565b5b60405190808252806020026020018201604052801561030d57816020015b6102fa610b9c565b8152602001906001900390816102f25790505b50905060005b60035481101561047f576000600160008381526020019081526020016000209050806040518060800160405290816000820154815260200160018201805461035a906113c1565b80601f0160208091040260200160405190810160405280929190818152602001828054610386906113c1565b80156103d35780601f106103a8576101008083540402835291602001916103d3565b820191906000526020600020905b8154815290600101906020018083116103b657829003601f168201915b505050505081526020016002820160009054906101000a900473ffffffffffffffffffffffffffffffffffffffff1673ffffffffffffffffffffffffffffffffffffffff1673ffffffffffffffffffffffffffffffffffffffff1681526020016002820160149054906101000a900460ff1615151515815250508383815181106104605761045f6114cb565b5b602002602001018190525050808061047790611424565b915050610313565b508091505090565b60035481565b610495610b9c565b60016000838152602001908152602001600020604051806080016040529081600082015481526020016001820180546104cd906113c1565b80601f01602080910402602001604051908101604052809291908181526020018280546104f9906113c1565b80156105465780601f1061051b57610100808354040283529160200191610546565b820191906000526020600020905b81548152906001019060200180831161052957829003601f168201915b505050505081526020016002820160009054906101000a900473ffffffffffffffffffffffffffffffffffffffff1673ffffffffffffffffffffffffffffffffffffffff1673ffffffffffffffffffffffffffffffffffffffff1681526020016002820160149054906101000a900460ff1615151515815250509050919050565b600281805160208101820180518482526020830160208501208183528095505050505050600091509050806000015490806001018054610606906113c1565b80601f0160208091040260200160405190810160405280929190818152602001828054610632906113c1565b801561067f5780601f106106545761010080835404028352916020019161067f565b820191906000526020600020905b81548152906001019060200180831161066257829003601f168201915b5050505050908060020160009054906101000a900473ffffffffffffffffffffffffffffffffffffffff16908060020160149054906101000a900460ff16905084565b3373ffffffffffffffffffffffffffffffffffffffff1660008054906101000a900473ffffffffffffffffffffffffffffffffffffffff1673ffffffffffffffffffffffffffffffffffffffff161461071a57600080fd5b806001600084815260200190815260200160002060020160146101000a81548160ff0219169083151502179055505050565b6060806060600060035467ffffffffffffffff81111561076f5761076e6114fa565b5b60405190808252806020026020018201604052801561079d5781602001602082028036833780820191505090505b509050600060035467ffffffffffffffff8111156107be576107bd6114fa565b5b6040519080825280602002602001820160405280156107f157816020015b60608152602001906001900390816107dc5790505b509050600060035467ffffffffffffffff811115610812576108116114fa565b5b6040519080825280602002602001820160405280156108405781602001602082028036833780820191505090505b509050600060035467ffffffffffffffff811115610861576108606114fa565b5b60405190808252806020026020018201604052801561088f5781602001602082028036833780820191505090505b50905060005b600354811015610a1e5760006001600083815260200190815260200160002090508060010180546108c5906113c1565b80601f01602080910402602001604051908101604052809291908181526020018280546108f1906113c1565b801561093e5780601f106109135761010080835404028352916020019161093e565b820191906000526020600020905b81548152906001019060200180831161092157829003601f168201915b5050505050858381518110610956576109556114cb565b5b60200260200101819052508060020160009054906101000a900473ffffffffffffffffffffffffffffffffffffffff16848381518110610999576109986114cb565b5b602002602001019073ffffffffffffffffffffffffffffffffffffffff16908173ffffffffffffffffffffffffffffffffffffffff16815250508060020160149054906101000a900460ff168383815181106109f8576109f76114cb565b5b602002602001019015159081151581525050508080610a1690611424565b915050610895565b5082828296509650965050505050909192565b6001602052806000526040600020600091509050806000015490806001018054610a5a906113c1565b80601f0160208091040260200160405190810160405280929190818152602001828054610a86906113c1565b8015610ad35780601f10610aa857610100808354040283529160200191610ad3565b820191906000526020600020905b815481529060010190602001808311610ab657829003601f168201915b5050505050908060020160009054906101000a900473ffffffffffffffffffffffffffffffffffffffff16908060020160149054906101000a900460ff16905084565b828054610b22906113c1565b90600052602060002090601f016020900481019282610b445760008555610b8b565b82601f10610b5d57805160ff1916838001178555610b8b565b82800160010185558215610b8b579182015b82811115610b8a578251825591602001919060010190610b6f565b5b509050610b989190610bdc565b5090565b60405180608001604052806000815260200160608152602001600073ffffffffffffffffffffffffffffffffffffffff1681526020016000151581525090565b5b80821115610bf5576000816000905550600101610bdd565b5090565b6000610c0c610c07846111f5565b6111d0565b905082815260208101848484011115610c2857610c2761152e565b5b610c3384828561137f565b509392505050565b600081359050610c4a8161154e565b92915050565b600082601f830112610c6557610c64611529565b5b8135610c75848260208601610bf9565b91505092915050565b600081359050610c8d81611565565b92915050565b600060208284031215610ca957610ca8611538565b5b600082013567ffffffffffffffff811115610cc757610cc6611533565b5b610cd384828501610c50565b91505092915050565b600060208284031215610cf257610cf1611538565b5b6000610d0084828501610c7e565b91505092915050565b60008060408385031215610d2057610d1f611538565b5b6000610d2e85828601610c7e565b9250506020610d3f85828601610c3b565b9150509250929050565b6000610d558383610da1565b60208301905092915050565b6000610d6d8383610f65565b60208301905092915050565b6000610d858383610f83565b905092915050565b6000610d998383610ff5565b905092915050565b610daa81611337565b82525050565b610db981611337565b82525050565b6000610dca82611266565b610dd481856112d1565b9350610ddf83611226565b8060005b83811015610e10578151610df78882610d49565b9750610e028361129d565b925050600181019050610de3565b5085935050505092915050565b6000610e2882611271565b610e3281856112e2565b9350610e3d83611236565b8060005b83811015610e6e578151610e558882610d61565b9750610e60836112aa565b925050600181019050610e41565b5085935050505092915050565b6000610e868261127c565b610e9081856112f3565b935083602082028501610ea285611246565b8060005b85811015610ede5784840389528151610ebf8582610d79565b9450610eca836112b7565b925060208a01995050600181019050610ea6565b50829750879550505050505092915050565b6000610efb82611287565b610f058185611304565b935083602082028501610f1785611256565b8060005b85811015610f535784840389528151610f348582610d8d565b9450610f3f836112c4565b925060208a01995050600181019050610f1b565b50829750879550505050505092915050565b610f6e81611349565b82525050565b610f7d81611349565b82525050565b6000610f8e82611292565b610f988185611315565b9350610fa881856020860161138e565b610fb18161153d565b840191505092915050565b6000610fc782611292565b610fd18185611326565b9350610fe181856020860161138e565b610fea8161153d565b840191505092915050565b600060808301600083015161100d60008601826110bb565b50602083015184820360208601526110258282610f83565b915050604083015161103a6040860182610da1565b50606083015161104d6060860182610f65565b508091505092915050565b600060808301600083015161107060008601826110bb565b50602083015184820360208601526110888282610f83565b915050604083015161109d6040860182610da1565b5060608301516110b06060860182610f65565b508091505092915050565b6110c481611375565b82525050565b6110d381611375565b82525050565b600060608201905081810360008301526110f38186610e7b565b905081810360208301526111078185610dbf565b9050818103604083015261111b8184610e1d565b9050949350505050565b6000602082019050818103600083015261113f8184610ef0565b905092915050565b600060208201905081810360008301526111618184611058565b905092915050565b600060208201905061117e60008301846110ca565b92915050565b600060808201905061119960008301876110ca565b81810360208301526111ab8186610fbc565b90506111ba6040830185610db0565b6111c76060830184610f74565b95945050505050565b60006111da6111eb565b90506111e682826113f3565b919050565b6000604051905090565b600067ffffffffffffffff8211156112105761120f6114fa565b5b6112198261153d565b9050602081019050919050565b6000819050602082019050919050565b6000819050602082019050919050565b6000819050602082019050919050565b6000819050602082019050919050565b600081519050919050565b600081519050919050565b600081519050919050565b600081519050919050565b600081519050919050565b6000602082019050919050565b6000602082019050919050565b6000602082019050919050565b6000602082019050919050565b600082825260208201905092915050565b600082825260208201905092915050565b600082825260208201905092915050565b600082825260208201905092915050565b600082825260208201905092915050565b600082825260208201905092915050565b600061134282611355565b9050919050565b60008115159050919050565b600073ffffffffffffffffffffffffffffffffffffffff82169050919050565b6000819050919050565b82818337600083830152505050565b60005b838110156113ac578082015181840152602081019050611391565b838111156113bb576000848401525b50505050565b600060028204905060018216806113d957607f821691505b602082108114156113ed576113ec61149c565b5b50919050565b6113fc8261153d565b810181811067ffffffffffffffff8211171561141b5761141a6114fa565b5b80604052505050565b600061142f82611375565b91507fffffffffffffffffffffffffffffffffffffffffffffffffffffffffffffffff8214156114625761146161146d565b5b600182019050919050565b7f4e487b7100000000000000000000000000000000000000000000000000000000600052601160045260246000fd5b7f4e487b7100000000000000000000000000000000000000000000000000000000600052602260045260246000fd5b7f4e487b7100000000000000000000000000000000000000000000000000000000600052603260045260246000fd5b7f4e487b7100000000000000000000000000000000000000000000000000000000600052604160045260246000fd5b600080fd5b600080fd5b600080fd5b600080fd5b6000601f19601f8301169050919050565b61155781611349565b811461156257600080fd5b50565b61156e81611375565b811461157957600080fd5b5056fea264697066735822122081618568939ec837774e24d0fc25a4c7cf9970fd6a2e02004febe8de2343642e64736f6c63430008070033",
					"opcodes": "PUSH1 0x80 PUSH1 0x40 MSTORE CALLVALUE DUP1 ISZERO PUSH2 0x10 JUMPI PUSH1 0x0 DUP1 REVERT JUMPDEST POP PUSH1 0x0 PUSH1 0x3 DUP2 SWAP1 SSTORE POP CALLER PUSH1 0x0 DUP1 PUSH2 0x100 EXP DUP2 SLOAD DUP2 PUSH20 0xFFFFFFFFFFFFFFFFFFFFFFFFFFFFFFFFFFFFFFFF MUL NOT AND SWAP1 DUP4 PUSH20 0xFFFFFFFFFFFFFFFFFFFFFFFFFFFFFFFFFFFFFFFF AND MUL OR SWAP1 SSTORE POP PUSH2 0x15B2 DUP1 PUSH2 0x68 PUSH1 0x0 CODECOPY PUSH1 0x0 RETURN INVALID PUSH1 0x80 PUSH1 0x40 MSTORE CALLVALUE DUP1 ISZERO PUSH2 0x10 JUMPI PUSH1 0x0 DUP1 REVERT JUMPDEST POP PUSH1 0x4 CALLDATASIZE LT PUSH2 0x88 JUMPI PUSH1 0x0 CALLDATALOAD PUSH1 0xE0 SHR DUP1 PUSH4 0xB0D548DF GT PUSH2 0x5B JUMPI DUP1 PUSH4 0xB0D548DF EQ PUSH2 0x115 JUMPI DUP1 PUSH4 0xE259EFFA EQ PUSH2 0x148 JUMPI DUP1 PUSH4 0xF2A50281 EQ PUSH2 0x164 JUMPI DUP1 PUSH4 0xFCA5E61E EQ PUSH2 0x184 JUMPI PUSH2 0x88 JUMP JUMPDEST DUP1 PUSH4 0x223883DE EQ PUSH2 0x8D JUMPI DUP1 PUSH4 0x5FB07A62 EQ PUSH2 0xA9 JUMPI DUP1 PUSH4 0x92812E6F EQ PUSH2 0xC7 JUMPI DUP1 PUSH4 0x9507D39A EQ PUSH2 0xE5 JUMPI JUMPDEST PUSH1 0x0 DUP1 REVERT JUMPDEST PUSH2 0xA7 PUSH1 0x4 DUP1 CALLDATASIZE SUB DUP2 ADD SWAP1 PUSH2 0xA2 SWAP2 SWAP1 PUSH2 0xC93 JUMP JUMPDEST PUSH2 0x1B7 JUMP JUMPDEST STOP JUMPDEST PUSH2 0xB1 PUSH2 0x2B4 JUMP JUMPDEST PUSH1 0x40 MLOAD PUSH2 0xBE SWAP2 SWAP1 PUSH2 0x1125 JUMP JUMPDEST PUSH1 0x40 MLOAD DUP1 SWAP2 SUB SWAP1 RETURN JUMPDEST PUSH2 0xCF PUSH2 0x487 JUMP JUMPDEST PUSH1 0x40 MLOAD PUSH2 0xDC SWAP2 SWAP1 PUSH2 0x1169 JUMP JUMPDEST PUSH1 0x40 MLOAD DUP1 SWAP2 SUB SWAP1 RETURN JUMPDEST PUSH2 0xFF PUSH1 0x4 DUP1 CALLDATASIZE SUB DUP2 ADD SWAP1 PUSH2 0xFA SWAP2 SWAP1 PUSH2 0xCDC JUMP JUMPDEST PUSH2 0x48D JUMP JUMPDEST PUSH1 0x40 MLOAD PUSH2 0x10C SWAP2 SWAP1 PUSH2 0x1147 JUMP JUMPDEST PUSH1 0x40 MLOAD DUP1 SWAP2 SUB SWAP1 RETURN JUMPDEST PUSH2 0x12F PUSH1 0x4 DUP1 CALLDATASIZE SUB DUP2 ADD SWAP1 PUSH2 0x12A SWAP2 SWAP1 PUSH2 0xC93 JUMP JUMPDEST PUSH2 0x5C7 JUMP JUMPDEST PUSH1 0x40 MLOAD PUSH2 0x13F SWAP5 SWAP4 SWAP3 SWAP2 SWAP1 PUSH2 0x1184 JUMP JUMPDEST PUSH1 0x40 MLOAD DUP1 SWAP2 SUB SWAP1 RETURN JUMPDEST PUSH2 0x162 PUSH1 0x4 DUP1 CALLDATASIZE SUB DUP2 ADD SWAP1 PUSH2 0x15D SWAP2 SWAP1 PUSH2 0xD09 JUMP JUMPDEST PUSH2 0x6C2 JUMP JUMPDEST STOP JUMPDEST PUSH2 0x16C PUSH2 0x74C JUMP JUMPDEST PUSH1 0x40 MLOAD PUSH2 0x17B SWAP4 SWAP3 SWAP2 SWAP1 PUSH2 0x10D9 JUMP JUMPDEST PUSH1 0x40 MLOAD DUP1 SWAP2 SUB SWAP1 RETURN JUMPDEST PUSH2 0x19E PUSH1 0x4 DUP1 CALLDATASIZE SUB DUP2 ADD SWAP1 PUSH2 0x199 SWAP2 SWAP1 PUSH2 0xCDC JUMP JUMPDEST PUSH2 0xA31 JUMP JUMPDEST PUSH1 0x40 MLOAD PUSH2 0x1AE SWAP5 SWAP4 SWAP3 SWAP2 SWAP1 PUSH2 0x1184 JUMP JUMPDEST PUSH1 0x40 MLOAD DUP1 SWAP2 SUB SWAP1 RETURN JUMPDEST PUSH1 0x40 MLOAD DUP1 PUSH1 0x80 ADD PUSH1 0x40 MSTORE DUP1 PUSH1 0x3 SLOAD DUP2 MSTORE PUSH1 0x20 ADD DUP3 DUP2 MSTORE PUSH1 0x20 ADD CALLER PUSH20 0xFFFFFFFFFFFFFFFFFFFFFFFFFFFFFFFFFFFFFFFF AND DUP2 MSTORE PUSH1 0x20 ADD PUSH1 0x1 ISZERO ISZERO DUP2 MSTORE POP PUSH1 0x1 PUSH1 0x0 PUSH1 0x3 SLOAD DUP2 MSTORE PUSH1 0x20 ADD SWAP1 DUP2 MSTORE PUSH1 0x20 ADD PUSH1 0x0 KECCAK256 PUSH1 0x0 DUP3 ADD MLOAD DUP2 PUSH1 0x0 ADD SSTORE PUSH1 0x20 DUP3 ADD MLOAD DUP2 PUSH1 0x1 ADD SWAP1 DUP1 MLOAD SWAP1 PUSH1 0x20 ADD SWAP1 PUSH2 0x22E SWAP3 SWAP2 SWAP1 PUSH2 0xB16 JUMP JUMPDEST POP PUSH1 0x40 DUP3 ADD MLOAD DUP2 PUSH1 0x2 ADD PUSH1 0x0 PUSH2 0x100 EXP DUP2 SLOAD DUP2 PUSH20 0xFFFFFFFFFFFFFFFFFFFFFFFFFFFFFFFFFFFFFFFF MUL NOT AND SWAP1 DUP4 PUSH20 0xFFFFFFFFFFFFFFFFFFFFFFFFFFFFFFFFFFFFFFFF AND MUL OR SWAP1 SSTORE POP PUSH1 0x60 DUP3 ADD MLOAD DUP2 PUSH1 0x2 ADD PUSH1 0x14 PUSH2 0x100 EXP DUP2 SLOAD DUP2 PUSH1 0xFF MUL NOT AND SWAP1 DUP4 ISZERO ISZERO MUL OR SWAP1 SSTORE POP SWAP1 POP POP PUSH1 0x3 PUSH1 0x0 DUP2 SLOAD DUP1 SWAP3 SWAP2 SWAP1 PUSH2 0x2AC SWAP1 PUSH2 0x1424 JUMP JUMPDEST SWAP2 SWAP1 POP SSTORE POP POP JUMP JUMPDEST PUSH1 0x60 PUSH1 0x0 PUSH1 0x3 SLOAD PUSH8 0xFFFFFFFFFFFFFFFF DUP2 GT ISZERO PUSH2 0x2D4 JUMPI PUSH2 0x2D3 PUSH2 0x14FA JUMP JUMPDEST JUMPDEST PUSH1 0x40 MLOAD SWAP1 DUP1 DUP3 MSTORE DUP1 PUSH1 0x20 MUL PUSH1 0x20 ADD DUP3 ADD PUSH1 0x40 MSTORE DUP1 ISZERO PUSH2 0x30D JUMPI DUP2 PUSH1 0x20 ADD JUMPDEST PUSH2 0x2FA PUSH2 0xB9C JUMP JUMPDEST DUP2 MSTORE PUSH1 0x20 ADD SWAP1 PUSH1 0x1 SWAP1 SUB SWAP1 DUP2 PUSH2 0x2F2 JUMPI SWAP1 POP JUMPDEST POP SWAP1 POP PUSH1 0x0 JUMPDEST PUSH1 0x3 SLOAD DUP2 LT ISZERO PUSH2 0x47F JUMPI PUSH1 0x0 PUSH1 0x1 PUSH1 0x0 DUP4 DUP2 MSTORE PUSH1 0x20 ADD SWAP1 DUP2 MSTORE PUSH1 0x20 ADD PUSH1 0x0 KECCAK256 SWAP1 POP DUP1 PUSH1 0x40 MLOAD DUP1 PUSH1 0x80 ADD PUSH1 0x40 MSTORE SWAP1 DUP2 PUSH1 0x0 DUP3 ADD SLOAD DUP2 MSTORE PUSH1 0x20 ADD PUSH1 0x1 DUP3 ADD DUP1 SLOAD PUSH2 0x35A SWAP1 PUSH2 0x13C1 JUMP JUMPDEST DUP1 PUSH1 0x1F ADD PUSH1 0x20 DUP1 SWAP2 DIV MUL PUSH1 0x20 ADD PUSH1 0x40 MLOAD SWAP1 DUP2 ADD PUSH1 0x40 MSTORE DUP1 SWAP3 SWAP2 SWAP1 DUP2 DUP2 MSTORE PUSH1 0x20 ADD DUP3 DUP1 SLOAD PUSH2 0x386 SWAP1 PUSH2 0x13C1 JUMP JUMPDEST DUP1 ISZERO PUSH2 0x3D3 JUMPI DUP1 PUSH1 0x1F LT PUSH2 0x3A8 JUMPI PUSH2 0x100 DUP1 DUP4 SLOAD DIV MUL DUP4 MSTORE SWAP2 PUSH1 0x20 ADD SWAP2 PUSH2 0x3D3 JUMP JUMPDEST DUP3 ADD SWAP2 SWAP1 PUSH1 0x0 MSTORE PUSH1 0x20 PUSH1 0x0 KECCAK256 SWAP1 JUMPDEST DUP2 SLOAD DUP2 MSTORE SWAP1 PUSH1 0x1 ADD SWAP1 PUSH1 0x20 ADD DUP1 DUP4 GT PUSH2 0x3B6 JUMPI DUP3 SWAP1 SUB PUSH1 0x1F AND DUP3 ADD SWAP2 JUMPDEST POP POP POP POP POP DUP2 MSTORE PUSH1 0x20 ADD PUSH1 0x2 DUP3 ADD PUSH1 0x0 SWAP1 SLOAD SWAP1 PUSH2 0x100 EXP SWAP1 DIV PUSH20 0xFFFFFFFFFFFFFFFFFFFFFFFFFFFFFFFFFFFFFFFF AND PUSH20 0xFFFFFFFFFFFFFFFFFFFFFFFFFFFFFFFFFFFFFFFF AND PUSH20 0xFFFFFFFFFFFFFFFFFFFFFFFFFFFFFFFFFFFFFFFF AND DUP2 MSTORE PUSH1 0x20 ADD PUSH1 0x2 DUP3 ADD PUSH1 0x14 SWAP1 SLOAD SWAP1 PUSH2 0x100 EXP SWAP1 DIV PUSH1 0xFF AND ISZERO ISZERO ISZERO ISZERO DUP2 MSTORE POP POP DUP4 DUP4 DUP2 MLOAD DUP2 LT PUSH2 0x460 JUMPI PUSH2 0x45F PUSH2 0x14CB JUMP JUMPDEST JUMPDEST PUSH1 0x20 MUL PUSH1 0x20 ADD ADD DUP2 SWAP1 MSTORE POP POP DUP1 DUP1 PUSH2 0x477 SWAP1 PUSH2 0x1424 JUMP JUMPDEST SWAP2 POP POP PUSH2 0x313 JUMP JUMPDEST POP DUP1 SWAP2 POP POP SWAP1 JUMP JUMPDEST PUSH1 0x3 SLOAD DUP2 JUMP JUMPDEST PUSH2 0x495 PUSH2 0xB9C JUMP JUMPDEST PUSH1 0x1 PUSH1 0x0 DUP4 DUP2 MSTORE PUSH1 0x20 ADD SWAP1 DUP2 MSTORE PUSH1 0x20 ADD PUSH1 0x0 KECCAK256 PUSH1 0x40 MLOAD DUP1 PUSH1 0x80 ADD PUSH1 0x40 MSTORE SWAP1 DUP2 PUSH1 0x0 DUP3 ADD SLOAD DUP2 MSTORE PUSH1 0x20 ADD PUSH1 0x1 DUP3 ADD DUP1 SLOAD PUSH2 0x4CD SWAP1 PUSH2 0x13C1 JUMP JUMPDEST DUP1 PUSH1 0x1F ADD PUSH1 0x20 DUP1 SWAP2 DIV MUL PUSH1 0x20 ADD PUSH1 0x40 MLOAD SWAP1 DUP2 ADD PUSH1 0x40 MSTORE DUP1 SWAP3 SWAP2 SWAP1 DUP2 DUP2 MSTORE PUSH1 0x20 ADD DUP3 DUP1 SLOAD PUSH2 0x4F9 SWAP1 PUSH2 0x13C1 JUMP JUMPDEST DUP1 ISZERO PUSH2 0x546 JUMPI DUP1 PUSH1 0x1F LT PUSH2 0x51B JUMPI PUSH2 0x100 DUP1 DUP4 SLOAD DIV MUL DUP4 MSTORE SWAP2 PUSH1 0x20 ADD SWAP2 PUSH2 0x546 JUMP JUMPDEST DUP3 ADD SWAP2 SWAP1 PUSH1 0x0 MSTORE PUSH1 0x20 PUSH1 0x0 KECCAK256 SWAP1 JUMPDEST DUP2 SLOAD DUP2 MSTORE SWAP1 PUSH1 0x1 ADD SWAP1 PUSH1 0x20 ADD DUP1 DUP4 GT PUSH2 0x529 JUMPI DUP3 SWAP1 SUB PUSH1 0x1F AND DUP3 ADD SWAP2 JUMPDEST POP POP POP POP POP DUP2 MSTORE PUSH1 0x20 ADD PUSH1 0x2 DUP3 ADD PUSH1 0x0 SWAP1 SLOAD SWAP1 PUSH2 0x100 EXP SWAP1 DIV PUSH20 0xFFFFFFFFFFFFFFFFFFFFFFFFFFFFFFFFFFFFFFFF AND PUSH20 0xFFFFFFFFFFFFFFFFFFFFFFFFFFFFFFFFFFFFFFFF AND PUSH20 0xFFFFFFFFFFFFFFFFFFFFFFFFFFFFFFFFFFFFFFFF AND DUP2 MSTORE PUSH1 0x20 ADD PUSH1 0x2 DUP3 ADD PUSH1 0x14 SWAP1 SLOAD SWAP1 PUSH2 0x100 EXP SWAP1 DIV PUSH1 0xFF AND ISZERO ISZERO ISZERO ISZERO DUP2 MSTORE POP POP SWAP1 POP SWAP2 SWAP1 POP JUMP JUMPDEST PUSH1 0x2 DUP2 DUP1 MLOAD PUSH1 0x20 DUP2 ADD DUP3 ADD DUP1 MLOAD DUP5 DUP3 MSTORE PUSH1 0x20 DUP4 ADD PUSH1 0x20 DUP6 ADD KECCAK256 DUP2 DUP4 MSTORE DUP1 SWAP6 POP POP POP POP POP POP PUSH1 0x0 SWAP2 POP SWAP1 POP DUP1 PUSH1 0x0 ADD SLOAD SWAP1 DUP1 PUSH1 0x1 ADD DUP1 SLOAD PUSH2 0x606 SWAP1 PUSH2 0x13C1 JUMP JUMPDEST DUP1 PUSH1 0x1F ADD PUSH1 0x20 DUP1 SWAP2 DIV MUL PUSH1 0x20 ADD PUSH1 0x40 MLOAD SWAP1 DUP2 ADD PUSH1 0x40 MSTORE DUP1 SWAP3 SWAP2 SWAP1 DUP2 DUP2 MSTORE PUSH1 0x20 ADD DUP3 DUP1 SLOAD PUSH2 0x632 SWAP1 PUSH2 0x13C1 JUMP JUMPDEST DUP1 ISZERO PUSH2 0x67F JUMPI DUP1 PUSH1 0x1F LT PUSH2 0x654 JUMPI PUSH2 0x100 DUP1 DUP4 SLOAD DIV MUL DUP4 MSTORE SWAP2 PUSH1 0x20 ADD SWAP2 PUSH2 0x67F JUMP JUMPDEST DUP3 ADD SWAP2 SWAP1 PUSH1 0x0 MSTORE PUSH1 0x20 PUSH1 0x0 KECCAK256 SWAP1 JUMPDEST DUP2 SLOAD DUP2 MSTORE SWAP1 PUSH1 0x1 ADD SWAP1 PUSH1 0x20 ADD DUP1 DUP4 GT PUSH2 0x662 JUMPI DUP3 SWAP1 SUB PUSH1 0x1F AND DUP3 ADD SWAP2 JUMPDEST POP POP POP POP POP SWAP1 DUP1 PUSH1 0x2 ADD PUSH1 0x0 SWAP1 SLOAD SWAP1 PUSH2 0x100 EXP SWAP1 DIV PUSH20 0xFFFFFFFFFFFFFFFFFFFFFFFFFFFFFFFFFFFFFFFF AND SWAP1 DUP1 PUSH1 0x2 ADD PUSH1 0x14 SWAP1 SLOAD SWAP1 PUSH2 0x100 EXP SWAP1 DIV PUSH1 0xFF AND SWAP1 POP DUP5 JUMP JUMPDEST CALLER PUSH20 0xFFFFFFFFFFFFFFFFFFFFFFFFFFFFFFFFFFFFFFFF AND PUSH1 0x0 DUP1 SLOAD SWAP1 PUSH2 0x100 EXP SWAP1 DIV PUSH20 0xFFFFFFFFFFFFFFFFFFFFFFFFFFFFFFFFFFFFFFFF AND PUSH20 0xFFFFFFFFFFFFFFFFFFFFFFFFFFFFFFFFFFFFFFFF AND EQ PUSH2 0x71A JUMPI PUSH1 0x0 DUP1 REVERT JUMPDEST DUP1 PUSH1 0x1 PUSH1 0x0 DUP5 DUP2 MSTORE PUSH1 0x20 ADD SWAP1 DUP2 MSTORE PUSH1 0x20 ADD PUSH1 0x0 KECCAK256 PUSH1 0x2 ADD PUSH1 0x14 PUSH2 0x100 EXP DUP2 SLOAD DUP2 PUSH1 0xFF MUL NOT AND SWAP1 DUP4 ISZERO ISZERO MUL OR SWAP1 SSTORE POP POP POP JUMP JUMPDEST PUSH1 0x60 DUP1 PUSH1 0x60 PUSH1 0x0 PUSH1 0x3 SLOAD PUSH8 0xFFFFFFFFFFFFFFFF DUP2 GT ISZERO PUSH2 0x76F JUMPI PUSH2 0x76E PUSH2 0x14FA JUMP JUMPDEST JUMPDEST PUSH1 0x40 MLOAD SWAP1 DUP1 DUP3 MSTORE DUP1 PUSH1 0x20 MUL PUSH1 0x20 ADD DUP3 ADD PUSH1 0x40 MSTORE DUP1 ISZERO PUSH2 0x79D JUMPI DUP2 PUSH1 0x20 ADD PUSH1 0x20 DUP3 MUL DUP1 CALLDATASIZE DUP4 CALLDATACOPY DUP1 DUP3 ADD SWAP2 POP POP SWAP1 POP JUMPDEST POP SWAP1 POP PUSH1 0x0 PUSH1 0x3 SLOAD PUSH8 0xFFFFFFFFFFFFFFFF DUP2 GT ISZERO PUSH2 0x7BE JUMPI PUSH2 0x7BD PUSH2 0x14FA JUMP JUMPDEST JUMPDEST PUSH1 0x40 MLOAD SWAP1 DUP1 DUP3 MSTORE DUP1 PUSH1 0x20 MUL PUSH1 0x20 ADD DUP3 ADD PUSH1 0x40 MSTORE DUP1 ISZERO PUSH2 0x7F1 JUMPI DUP2 PUSH1 0x20 ADD JUMPDEST PUSH1 0x60 DUP2 MSTORE PUSH1 0x20 ADD SWAP1 PUSH1 0x1 SWAP1 SUB SWAP1 DUP2 PUSH2 0x7DC JUMPI SWAP1 POP JUMPDEST POP SWAP1 POP PUSH1 0x0 PUSH1 0x3 SLOAD PUSH8 0xFFFFFFFFFFFFFFFF DUP2 GT ISZERO PUSH2 0x812 JUMPI PUSH2 0x811 PUSH2 0x14FA JUMP JUMPDEST JUMPDEST PUSH1 0x40 MLOAD SWAP1 DUP1 DUP3 MSTORE DUP1 PUSH1 0x20 MUL PUSH1 0x20 ADD DUP3 ADD PUSH1 0x40 MSTORE DUP1 ISZERO PUSH2 0x840 JUMPI DUP2 PUSH1 0x20 ADD PUSH1 0x20 DUP3 MUL DUP1 CALLDATASIZE DUP4 CALLDATACOPY DUP1 DUP3 ADD SWAP2 POP POP SWAP1 POP JUMPDEST POP SWAP1 POP PUSH1 0x0 PUSH1 0x3 SLOAD PUSH8 0xFFFFFFFFFFFFFFFF DUP2 GT ISZERO PUSH2 0x861 JUMPI PUSH2 0x860 PUSH2 0x14FA JUMP JUMPDEST JUMPDEST PUSH1 0x40 MLOAD SWAP1 DUP1 DUP3 MSTORE DUP1 PUSH1 0x20 MUL PUSH1 0x20 ADD DUP3 ADD PUSH1 0x40 MSTORE DUP1 ISZERO PUSH2 0x88F JUMPI DUP2 PUSH1 0x20 ADD PUSH1 0x20 DUP3 MUL DUP1 CALLDATASIZE DUP4 CALLDATACOPY DUP1 DUP3 ADD SWAP2 POP POP SWAP1 POP JUMPDEST POP SWAP1 POP PUSH1 0x0 JUMPDEST PUSH1 0x3 SLOAD DUP2 LT ISZERO PUSH2 0xA1E JUMPI PUSH1 0x0 PUSH1 0x1 PUSH1 0x0 DUP4 DUP2 MSTORE PUSH1 0x20 ADD SWAP1 DUP2 MSTORE PUSH1 0x20 ADD PUSH1 0x0 KECCAK256 SWAP1 POP DUP1 PUSH1 0x1 ADD DUP1 SLOAD PUSH2 0x8C5 SWAP1 PUSH2 0x13C1 JUMP JUMPDEST DUP1 PUSH1 0x1F ADD PUSH1 0x20 DUP1 SWAP2 DIV MUL PUSH1 0x20 ADD PUSH1 0x40 MLOAD SWAP1 DUP2 ADD PUSH1 0x40 MSTORE DUP1 SWAP3 SWAP2 SWAP1 DUP2 DUP2 MSTORE PUSH1 0x20 ADD DUP3 DUP1 SLOAD PUSH2 0x8F1 SWAP1 PUSH2 0x13C1 JUMP JUMPDEST DUP1 ISZERO PUSH2 0x93E JUMPI DUP1 PUSH1 0x1F LT PUSH2 0x913 JUMPI PUSH2 0x100 DUP1 DUP4 SLOAD DIV MUL DUP4 MSTORE SWAP2 PUSH1 0x20 ADD SWAP2 PUSH2 0x93E JUMP JUMPDEST DUP3 ADD SWAP2 SWAP1 PUSH1 0x0 MSTORE PUSH1 0x20 PUSH1 0x0 KECCAK256 SWAP1 JUMPDEST DUP2 SLOAD DUP2 MSTORE SWAP1 PUSH1 0x1 ADD SWAP1 PUSH1 0x20 ADD DUP1 DUP4 GT PUSH2 0x921 JUMPI DUP3 SWAP1 SUB PUSH1 0x1F AND DUP3 ADD SWAP2 JUMPDEST POP POP POP POP POP DUP6 DUP4 DUP2 MLOAD DUP2 LT PUSH2 0x956 JUMPI PUSH2 0x955 PUSH2 0x14CB JUMP JUMPDEST JUMPDEST PUSH1 0x20 MUL PUSH1 0x20 ADD ADD DUP2 SWAP1 MSTORE POP DUP1 PUSH1 0x2 ADD PUSH1 0x0 SWAP1 SLOAD SWAP1 PUSH2 0x100 EXP SWAP1 DIV PUSH20 0xFFFFFFFFFFFFFFFFFFFFFFFFFFFFFFFFFFFFFFFF AND DUP5 DUP4 DUP2 MLOAD DUP2 LT PUSH2 0x999 JUMPI PUSH2 0x998 PUSH2 0x14CB JUMP JUMPDEST JUMPDEST PUSH1 0x20 MUL PUSH1 0x20 ADD ADD SWAP1 PUSH20 0xFFFFFFFFFFFFFFFFFFFFFFFFFFFFFFFFFFFFFFFF AND SWAP1 DUP2 PUSH20 0xFFFFFFFFFFFFFFFFFFFFFFFFFFFFFFFFFFFFFFFF AND DUP2 MSTORE POP POP DUP1 PUSH1 0x2 ADD PUSH1 0x14 SWAP1 SLOAD SWAP1 PUSH2 0x100 EXP SWAP1 DIV PUSH1 0xFF AND DUP4 DUP4 DUP2 MLOAD DUP2 LT PUSH2 0x9F8 JUMPI PUSH2 0x9F7 PUSH2 0x14CB JUMP JUMPDEST JUMPDEST PUSH1 0x20 MUL PUSH1 0x20 ADD ADD SWAP1 ISZERO ISZERO SWAP1 DUP2 ISZERO ISZERO DUP2 MSTORE POP POP POP DUP1 DUP1 PUSH2 0xA16 SWAP1 PUSH2 0x1424 JUMP JUMPDEST SWAP2 POP POP PUSH2 0x895 JUMP JUMPDEST POP DUP3 DUP3 DUP3 SWAP7 POP SWAP7 POP SWAP7 POP POP POP POP POP SWAP1 SWAP2 SWAP3 JUMP JUMPDEST PUSH1 0x1 PUSH1 0x20 MSTORE DUP1 PUSH1 0x0 MSTORE PUSH1 0x40 PUSH1 0x0 KECCAK256 PUSH1 0x0 SWAP2 POP SWAP1 POP DUP1 PUSH1 0x0 ADD SLOAD SWAP1 DUP1 PUSH1 0x1 ADD DUP1 SLOAD PUSH2 0xA5A SWAP1 PUSH2 0x13C1 JUMP JUMPDEST DUP1 PUSH1 0x1F ADD PUSH1 0x20 DUP1 SWAP2 DIV MUL PUSH1 0x20 ADD PUSH1 0x40 MLOAD SWAP1 DUP2 ADD PUSH1 0x40 MSTORE DUP1 SWAP3 SWAP2 SWAP1 DUP2 DUP2 MSTORE PUSH1 0x20 ADD DUP3 DUP1 SLOAD PUSH2 0xA86 SWAP1 PUSH2 0x13C1 JUMP JUMPDEST DUP1 ISZERO PUSH2 0xAD3 JUMPI DUP1 PUSH1 0x1F LT PUSH2 0xAA8 JUMPI PUSH2 0x100 DUP1 DUP4 SLOAD DIV MUL DUP4 MSTORE SWAP2 PUSH1 0x20 ADD SWAP2 PUSH2 0xAD3 JUMP JUMPDEST DUP3 ADD SWAP2 SWAP1 PUSH1 0x0 MSTORE PUSH1 0x20 PUSH1 0x0 KECCAK256 SWAP1 JUMPDEST DUP2 SLOAD DUP2 MSTORE SWAP1 PUSH1 0x1 ADD SWAP1 PUSH1 0x20 ADD DUP1 DUP4 GT PUSH2 0xAB6 JUMPI DUP3 SWAP1 SUB PUSH1 0x1F AND DUP3 ADD SWAP2 JUMPDEST POP POP POP POP POP SWAP1 DUP1 PUSH1 0x2 ADD PUSH1 0x0 SWAP1 SLOAD SWAP1 PUSH2 0x100 EXP SWAP1 DIV PUSH20 0xFFFFFFFFFFFFFFFFFFFFFFFFFFFFFFFFFFFFFFFF AND SWAP1 DUP1 PUSH1 0x2 ADD PUSH1 0x14 SWAP1 SLOAD SWAP1 PUSH2 0x100 EXP SWAP1 DIV PUSH1 0xFF AND SWAP1 POP DUP5 JUMP JUMPDEST DUP3 DUP1 SLOAD PUSH2 0xB22 SWAP1 PUSH2 0x13C1 JUMP JUMPDEST SWAP1 PUSH1 0x0 MSTORE PUSH1 0x20 PUSH1 0x0 KECCAK256 SWAP1 PUSH1 0x1F ADD PUSH1 0x20 SWAP1 DIV DUP2 ADD SWAP3 DUP3 PUSH2 0xB44 JUMPI PUSH1 0x0 DUP6 SSTORE PUSH2 0xB8B JUMP JUMPDEST DUP3 PUSH1 0x1F LT PUSH2 0xB5D JUMPI DUP1 MLOAD PUSH1 0xFF NOT AND DUP4 DUP1 ADD OR DUP6 SSTORE PUSH2 0xB8B JUMP JUMPDEST DUP3 DUP1 ADD PUSH1 0x1 ADD DUP6 SSTORE DUP3 ISZERO PUSH2 0xB8B JUMPI SWAP2 DUP3 ADD JUMPDEST DUP3 DUP2 GT ISZERO PUSH2 0xB8A JUMPI DUP3 MLOAD DUP3 SSTORE SWAP2 PUSH1 0x20 ADD SWAP2 SWAP1 PUSH1 0x1 ADD SWAP1 PUSH2 0xB6F JUMP JUMPDEST JUMPDEST POP SWAP1 POP PUSH2 0xB98 SWAP2 SWAP1 PUSH2 0xBDC JUMP JUMPDEST POP SWAP1 JUMP JUMPDEST PUSH1 0x40 MLOAD DUP1 PUSH1 0x80 ADD PUSH1 0x40 MSTORE DUP1 PUSH1 0x0 DUP2 MSTORE PUSH1 0x20 ADD PUSH1 0x60 DUP2 MSTORE PUSH1 0x20 ADD PUSH1 0x0 PUSH20 0xFFFFFFFFFFFFFFFFFFFFFFFFFFFFFFFFFFFFFFFF AND DUP2 MSTORE PUSH1 0x20 ADD PUSH1 0x0 ISZERO ISZERO DUP2 MSTORE POP SWAP1 JUMP JUMPDEST JUMPDEST DUP1 DUP3 GT ISZERO PUSH2 0xBF5 JUMPI PUSH1 0x0 DUP2 PUSH1 0x0 SWAP1 SSTORE POP PUSH1 0x1 ADD PUSH2 0xBDD JUMP JUMPDEST POP SWAP1 JUMP JUMPDEST PUSH1 0x0 PUSH2 0xC0C PUSH2 0xC07 DUP5 PUSH2 0x11F5 JUMP JUMPDEST PUSH2 0x11D0 JUMP JUMPDEST SWAP1 POP DUP3 DUP2 MSTORE PUSH1 0x20 DUP2 ADD DUP5 DUP5 DUP5 ADD GT ISZERO PUSH2 0xC28 JUMPI PUSH2 0xC27 PUSH2 0x152E JUMP JUMPDEST JUMPDEST PUSH2 0xC33 DUP5 DUP3 DUP6 PUSH2 0x137F JUMP JUMPDEST POP SWAP4 SWAP3 POP POP POP JUMP JUMPDEST PUSH1 0x0 DUP2 CALLDATALOAD SWAP1 POP PUSH2 0xC4A DUP2 PUSH2 0x154E JUMP JUMPDEST SWAP3 SWAP2 POP POP JUMP JUMPDEST PUSH1 0x0 DUP3 PUSH1 0x1F DUP4 ADD SLT PUSH2 0xC65 JUMPI PUSH2 0xC64 PUSH2 0x1529 JUMP JUMPDEST JUMPDEST DUP2 CALLDATALOAD PUSH2 0xC75 DUP5 DUP3 PUSH1 0x20 DUP7 ADD PUSH2 0xBF9 JUMP JUMPDEST SWAP2 POP POP SWAP3 SWAP2 POP POP JUMP JUMPDEST PUSH1 0x0 DUP2 CALLDATALOAD SWAP1 POP PUSH2 0xC8D DUP2 PUSH2 0x1565 JUMP JUMPDEST SWAP3 SWAP2 POP POP JUMP JUMPDEST PUSH1 0x0 PUSH1 0x20 DUP3 DUP5 SUB SLT ISZERO PUSH2 0xCA9 JUMPI PUSH2 0xCA8 PUSH2 0x1538 JUMP JUMPDEST JUMPDEST PUSH1 0x0 DUP3 ADD CALLDATALOAD PUSH8 0xFFFFFFFFFFFFFFFF DUP2 GT ISZERO PUSH2 0xCC7 JUMPI PUSH2 0xCC6 PUSH2 0x1533 JUMP JUMPDEST JUMPDEST PUSH2 0xCD3 DUP5 DUP3 DUP6 ADD PUSH2 0xC50 JUMP JUMPDEST SWAP2 POP POP SWAP3 SWAP2 POP POP JUMP JUMPDEST PUSH1 0x0 PUSH1 0x20 DUP3 DUP5 SUB SLT ISZERO PUSH2 0xCF2 JUMPI PUSH2 0xCF1 PUSH2 0x1538 JUMP JUMPDEST JUMPDEST PUSH1 0x0 PUSH2 0xD00 DUP5 DUP3 DUP6 ADD PUSH2 0xC7E JUMP JUMPDEST SWAP2 POP POP SWAP3 SWAP2 POP POP JUMP JUMPDEST PUSH1 0x0 DUP1 PUSH1 0x40 DUP4 DUP6 SUB SLT ISZERO PUSH2 0xD20 JUMPI PUSH2 0xD1F PUSH2 0x1538 JUMP JUMPDEST JUMPDEST PUSH1 0x0 PUSH2 0xD2E DUP6 DUP3 DUP7 ADD PUSH2 0xC7E JUMP JUMPDEST SWAP3 POP POP PUSH1 0x20 PUSH2 0xD3F DUP6 DUP3 DUP7 ADD PUSH2 0xC3B JUMP JUMPDEST SWAP2 POP POP SWAP3 POP SWAP3 SWAP1 POP JUMP JUMPDEST PUSH1 0x0 PUSH2 0xD55 DUP4 DUP4 PUSH2 0xDA1 JUMP JUMPDEST PUSH1 0x20 DUP4 ADD SWAP1 POP SWAP3 SWAP2 POP POP JUMP JUMPDEST PUSH1 0x0 PUSH2 0xD6D DUP4 DUP4 PUSH2 0xF65 JUMP JUMPDEST PUSH1 0x20 DUP4 ADD SWAP1 POP SWAP3 SWAP2 POP POP JUMP JUMPDEST PUSH1 0x0 PUSH2 0xD85 DUP4 DUP4 PUSH2 0xF83 JUMP JUMPDEST SWAP1 POP SWAP3 SWAP2 POP POP JUMP JUMPDEST PUSH1 0x0 PUSH2 0xD99 DUP4 DUP4 PUSH2 0xFF5 JUMP JUMPDEST SWAP1 POP SWAP3 SWAP2 POP POP JUMP JUMPDEST PUSH2 0xDAA DUP2 PUSH2 0x1337 JUMP JUMPDEST DUP3 MSTORE POP POP JUMP JUMPDEST PUSH2 0xDB9 DUP2 PUSH2 0x1337 JUMP JUMPDEST DUP3 MSTORE POP POP JUMP JUMPDEST PUSH1 0x0 PUSH2 0xDCA DUP3 PUSH2 0x1266 JUMP JUMPDEST PUSH2 0xDD4 DUP2 DUP6 PUSH2 0x12D1 JUMP JUMPDEST SWAP4 POP PUSH2 0xDDF DUP4 PUSH2 0x1226 JUMP JUMPDEST DUP1 PUSH1 0x0 JUMPDEST DUP4 DUP2 LT ISZERO PUSH2 0xE10 JUMPI DUP2 MLOAD PUSH2 0xDF7 DUP9 DUP3 PUSH2 0xD49 JUMP JUMPDEST SWAP8 POP PUSH2 0xE02 DUP4 PUSH2 0x129D JUMP JUMPDEST SWAP3 POP POP PUSH1 0x1 DUP2 ADD SWAP1 POP PUSH2 0xDE3 JUMP JUMPDEST POP DUP6 SWAP4 POP POP POP POP SWAP3 SWAP2 POP POP JUMP JUMPDEST PUSH1 0x0 PUSH2 0xE28 DUP3 PUSH2 0x1271 JUMP JUMPDEST PUSH2 0xE32 DUP2 DUP6 PUSH2 0x12E2 JUMP JUMPDEST SWAP4 POP PUSH2 0xE3D DUP4 PUSH2 0x1236 JUMP JUMPDEST DUP1 PUSH1 0x0 JUMPDEST DUP4 DUP2 LT ISZERO PUSH2 0xE6E JUMPI DUP2 MLOAD PUSH2 0xE55 DUP9 DUP3 PUSH2 0xD61 JUMP JUMPDEST SWAP8 POP PUSH2 0xE60 DUP4 PUSH2 0x12AA JUMP JUMPDEST SWAP3 POP POP PUSH1 0x1 DUP2 ADD SWAP1 POP PUSH2 0xE41 JUMP JUMPDEST POP DUP6 SWAP4 POP POP POP POP SWAP3 SWAP2 POP POP JUMP JUMPDEST PUSH1 0x0 PUSH2 0xE86 DUP3 PUSH2 0x127C JUMP JUMPDEST PUSH2 0xE90 DUP2 DUP6 PUSH2 0x12F3 JUMP JUMPDEST SWAP4 POP DUP4 PUSH1 0x20 DUP3 MUL DUP6 ADD PUSH2 0xEA2 DUP6 PUSH2 0x1246 JUMP JUMPDEST DUP1 PUSH1 0x0 JUMPDEST DUP6 DUP2 LT ISZERO PUSH2 0xEDE JUMPI DUP5 DUP5 SUB DUP10 MSTORE DUP2 MLOAD PUSH2 0xEBF DUP6 DUP3 PUSH2 0xD79 JUMP JUMPDEST SWAP5 POP PUSH2 0xECA DUP4 PUSH2 0x12B7 JUMP JUMPDEST SWAP3 POP PUSH1 0x20 DUP11 ADD SWAP10 POP POP PUSH1 0x1 DUP2 ADD SWAP1 POP PUSH2 0xEA6 JUMP JUMPDEST POP DUP3 SWAP8 POP DUP8 SWAP6 POP POP POP POP POP POP SWAP3 SWAP2 POP POP JUMP JUMPDEST PUSH1 0x0 PUSH2 0xEFB DUP3 PUSH2 0x1287 JUMP JUMPDEST PUSH2 0xF05 DUP2 DUP6 PUSH2 0x1304 JUMP JUMPDEST SWAP4 POP DUP4 PUSH1 0x20 DUP3 MUL DUP6 ADD PUSH2 0xF17 DUP6 PUSH2 0x1256 JUMP JUMPDEST DUP1 PUSH1 0x0 JUMPDEST DUP6 DUP2 LT ISZERO PUSH2 0xF53 JUMPI DUP5 DUP5 SUB DUP10 MSTORE DUP2 MLOAD PUSH2 0xF34 DUP6 DUP3 PUSH2 0xD8D JUMP JUMPDEST SWAP5 POP PUSH2 0xF3F DUP4 PUSH2 0x12C4 JUMP JUMPDEST SWAP3 POP PUSH1 0x20 DUP11 ADD SWAP10 POP POP PUSH1 0x1 DUP2 ADD SWAP1 POP PUSH2 0xF1B JUMP JUMPDEST POP DUP3 SWAP8 POP DUP8 SWAP6 POP POP POP POP POP POP SWAP3 SWAP2 POP POP JUMP JUMPDEST PUSH2 0xF6E DUP2 PUSH2 0x1349 JUMP JUMPDEST DUP3 MSTORE POP POP JUMP JUMPDEST PUSH2 0xF7D DUP2 PUSH2 0x1349 JUMP JUMPDEST DUP3 MSTORE POP POP JUMP JUMPDEST PUSH1 0x0 PUSH2 0xF8E DUP3 PUSH2 0x1292 JUMP JUMPDEST PUSH2 0xF98 DUP2 DUP6 PUSH2 0x1315 JUMP JUMPDEST SWAP4 POP PUSH2 0xFA8 DUP2 DUP6 PUSH1 0x20 DUP7 ADD PUSH2 0x138E JUMP JUMPDEST PUSH2 0xFB1 DUP2 PUSH2 0x153D JUMP JUMPDEST DUP5 ADD SWAP2 POP POP SWAP3 SWAP2 POP POP JUMP JUMPDEST PUSH1 0x0 PUSH2 0xFC7 DUP3 PUSH2 0x1292 JUMP JUMPDEST PUSH2 0xFD1 DUP2 DUP6 PUSH2 0x1326 JUMP JUMPDEST SWAP4 POP PUSH2 0xFE1 DUP2 DUP6 PUSH1 0x20 DUP7 ADD PUSH2 0x138E JUMP JUMPDEST PUSH2 0xFEA DUP2 PUSH2 0x153D JUMP JUMPDEST DUP5 ADD SWAP2 POP POP SWAP3 SWAP2 POP POP JUMP JUMPDEST PUSH1 0x0 PUSH1 0x80 DUP4 ADD PUSH1 0x0 DUP4 ADD MLOAD PUSH2 0x100D PUSH1 0x0 DUP7 ADD DUP3 PUSH2 0x10BB JUMP JUMPDEST POP PUSH1 0x20 DUP4 ADD MLOAD DUP5 DUP3 SUB PUSH1 0x20 DUP7 ADD MSTORE PUSH2 0x1025 DUP3 DUP3 PUSH2 0xF83 JUMP JUMPDEST SWAP2 POP POP PUSH1 0x40 DUP4 ADD MLOAD PUSH2 0x103A PUSH1 0x40 DUP7 ADD DUP3 PUSH2 0xDA1 JUMP JUMPDEST POP PUSH1 0x60 DUP4 ADD MLOAD PUSH2 0x104D PUSH1 0x60 DUP7 ADD DUP3 PUSH2 0xF65 JUMP JUMPDEST POP DUP1 SWAP2 POP POP SWAP3 SWAP2 POP POP JUMP JUMPDEST PUSH1 0x0 PUSH1 0x80 DUP4 ADD PUSH1 0x0 DUP4 ADD MLOAD PUSH2 0x1070 PUSH1 0x0 DUP7 ADD DUP3 PUSH2 0x10BB JUMP JUMPDEST POP PUSH1 0x20 DUP4 ADD MLOAD DUP5 DUP3 SUB PUSH1 0x20 DUP7 ADD MSTORE PUSH2 0x1088 DUP3 DUP3 PUSH2 0xF83 JUMP JUMPDEST SWAP2 POP POP PUSH1 0x40 DUP4 ADD MLOAD PUSH2 0x109D PUSH1 0x40 DUP7 ADD DUP3 PUSH2 0xDA1 JUMP JUMPDEST POP PUSH1 0x60 DUP4 ADD MLOAD PUSH2 0x10B0 PUSH1 0x60 DUP7 ADD DUP3 PUSH2 0xF65 JUMP JUMPDEST POP DUP1 SWAP2 POP POP SWAP3 SWAP2 POP POP JUMP JUMPDEST PUSH2 0x10C4 DUP2 PUSH2 0x1375 JUMP JUMPDEST DUP3 MSTORE POP POP JUMP JUMPDEST PUSH2 0x10D3 DUP2 PUSH2 0x1375 JUMP JUMPDEST DUP3 MSTORE POP POP JUMP JUMPDEST PUSH1 0x0 PUSH1 0x60 DUP3 ADD SWAP1 POP DUP2 DUP2 SUB PUSH1 0x0 DUP4 ADD MSTORE PUSH2 0x10F3 DUP2 DUP7 PUSH2 0xE7B JUMP JUMPDEST SWAP1 POP DUP2 DUP2 SUB PUSH1 0x20 DUP4 ADD MSTORE PUSH2 0x1107 DUP2 DUP6 PUSH2 0xDBF JUMP JUMPDEST SWAP1 POP DUP2 DUP2 SUB PUSH1 0x40 DUP4 ADD MSTORE PUSH2 0x111B DUP2 DUP5 PUSH2 0xE1D JUMP JUMPDEST SWAP1 POP SWAP5 SWAP4 POP POP POP POP JUMP JUMPDEST PUSH1 0x0 PUSH1 0x20 DUP3 ADD SWAP1 POP DUP2 DUP2 SUB PUSH1 0x0 DUP4 ADD MSTORE PUSH2 0x113F DUP2 DUP5 PUSH2 0xEF0 JUMP JUMPDEST SWAP1 POP SWAP3 SWAP2 POP POP JUMP JUMPDEST PUSH1 0x0 PUSH1 0x20 DUP3 ADD SWAP1 POP DUP2 DUP2 SUB PUSH1 0x0 DUP4 ADD MSTORE PUSH2 0x1161 DUP2 DUP5 PUSH2 0x1058 JUMP JUMPDEST SWAP1 POP SWAP3 SWAP2 POP POP JUMP JUMPDEST PUSH1 0x0 PUSH1 0x20 DUP3 ADD SWAP1 POP PUSH2 0x117E PUSH1 0x0 DUP4 ADD DUP5 PUSH2 0x10CA JUMP JUMPDEST SWAP3 SWAP2 POP POP JUMP JUMPDEST PUSH1 0x0 PUSH1 0x80 DUP3 ADD SWAP1 POP PUSH2 0x1199 PUSH1 0x0 DUP4 ADD DUP8 PUSH2 0x10CA JUMP JUMPDEST DUP2 DUP2 SUB PUSH1 0x20 DUP4 ADD MSTORE PUSH2 0x11AB DUP2 DUP7 PUSH2 0xFBC JUMP JUMPDEST SWAP1 POP PUSH2 0x11BA PUSH1 0x40 DUP4 ADD DUP6 PUSH2 0xDB0 JUMP JUMPDEST PUSH2 0x11C7 PUSH1 0x60 DUP4 ADD DUP5 PUSH2 0xF74 JUMP JUMPDEST SWAP6 SWAP5 POP POP POP POP POP JUMP JUMPDEST PUSH1 0x0 PUSH2 0x11DA PUSH2 0x11EB JUMP JUMPDEST SWAP1 POP PUSH2 0x11E6 DUP3 DUP3 PUSH2 0x13F3 JUMP JUMPDEST SWAP2 SWAP1 POP JUMP JUMPDEST PUSH1 0x0 PUSH1 0x40 MLOAD SWAP1 POP SWAP1 JUMP JUMPDEST PUSH1 0x0 PUSH8 0xFFFFFFFFFFFFFFFF DUP3 GT ISZERO PUSH2 0x1210 JUMPI PUSH2 0x120F PUSH2 0x14FA JUMP JUMPDEST JUMPDEST PUSH2 0x1219 DUP3 PUSH2 0x153D JUMP JUMPDEST SWAP1 POP PUSH1 0x20 DUP2 ADD SWAP1 POP SWAP2 SWAP1 POP JUMP JUMPDEST PUSH1 0x0 DUP2 SWAP1 POP PUSH1 0x20 DUP3 ADD SWAP1 POP SWAP2 SWAP1 POP JUMP JUMPDEST PUSH1 0x0 DUP2 SWAP1 POP PUSH1 0x20 DUP3 ADD SWAP1 POP SWAP2 SWAP1 POP JUMP JUMPDEST PUSH1 0x0 DUP2 SWAP1 POP PUSH1 0x20 DUP3 ADD SWAP1 POP SWAP2 SWAP1 POP JUMP JUMPDEST PUSH1 0x0 DUP2 SWAP1 POP PUSH1 0x20 DUP3 ADD SWAP1 POP SWAP2 SWAP1 POP JUMP JUMPDEST PUSH1 0x0 DUP2 MLOAD SWAP1 POP SWAP2 SWAP1 POP JUMP JUMPDEST PUSH1 0x0 DUP2 MLOAD SWAP1 POP SWAP2 SWAP1 POP JUMP JUMPDEST PUSH1 0x0 DUP2 MLOAD SWAP1 POP SWAP2 SWAP1 POP JUMP JUMPDEST PUSH1 0x0 DUP2 MLOAD SWAP1 POP SWAP2 SWAP1 POP JUMP JUMPDEST PUSH1 0x0 DUP2 MLOAD SWAP1 POP SWAP2 SWAP1 POP JUMP JUMPDEST PUSH1 0x0 PUSH1 0x20 DUP3 ADD SWAP1 POP SWAP2 SWAP1 POP JUMP JUMPDEST PUSH1 0x0 PUSH1 0x20 DUP3 ADD SWAP1 POP SWAP2 SWAP1 POP JUMP JUMPDEST PUSH1 0x0 PUSH1 0x20 DUP3 ADD SWAP1 POP SWAP2 SWAP1 POP JUMP JUMPDEST PUSH1 0x0 PUSH1 0x20 DUP3 ADD SWAP1 POP SWAP2 SWAP1 POP JUMP JUMPDEST PUSH1 0x0 DUP3 DUP3 MSTORE PUSH1 0x20 DUP3 ADD SWAP1 POP SWAP3 SWAP2 POP POP JUMP JUMPDEST PUSH1 0x0 DUP3 DUP3 MSTORE PUSH1 0x20 DUP3 ADD SWAP1 POP SWAP3 SWAP2 POP POP JUMP JUMPDEST PUSH1 0x0 DUP3 DUP3 MSTORE PUSH1 0x20 DUP3 ADD SWAP1 POP SWAP3 SWAP2 POP POP JUMP JUMPDEST PUSH1 0x0 DUP3 DUP3 MSTORE PUSH1 0x20 DUP3 ADD SWAP1 POP SWAP3 SWAP2 POP POP JUMP JUMPDEST PUSH1 0x0 DUP3 DUP3 MSTORE PUSH1 0x20 DUP3 ADD SWAP1 POP SWAP3 SWAP2 POP POP JUMP JUMPDEST PUSH1 0x0 DUP3 DUP3 MSTORE PUSH1 0x20 DUP3 ADD SWAP1 POP SWAP3 SWAP2 POP POP JUMP JUMPDEST PUSH1 0x0 PUSH2 0x1342 DUP3 PUSH2 0x1355 JUMP JUMPDEST SWAP1 POP SWAP2 SWAP1 POP JUMP JUMPDEST PUSH1 0x0 DUP2 ISZERO ISZERO SWAP1 POP SWAP2 SWAP1 POP JUMP JUMPDEST PUSH1 0x0 PUSH20 0xFFFFFFFFFFFFFFFFFFFFFFFFFFFFFFFFFFFFFFFF DUP3 AND SWAP1 POP SWAP2 SWAP1 POP JUMP JUMPDEST PUSH1 0x0 DUP2 SWAP1 POP SWAP2 SWAP1 POP JUMP JUMPDEST DUP3 DUP2 DUP4 CALLDATACOPY PUSH1 0x0 DUP4 DUP4 ADD MSTORE POP POP POP JUMP JUMPDEST PUSH1 0x0 JUMPDEST DUP4 DUP2 LT ISZERO PUSH2 0x13AC JUMPI DUP1 DUP3 ADD MLOAD DUP2 DUP5 ADD MSTORE PUSH1 0x20 DUP2 ADD SWAP1 POP PUSH2 0x1391 JUMP JUMPDEST DUP4 DUP2 GT ISZERO PUSH2 0x13BB JUMPI PUSH1 0x0 DUP5 DUP5 ADD MSTORE JUMPDEST POP POP POP POP JUMP JUMPDEST PUSH1 0x0 PUSH1 0x2 DUP3 DIV SWAP1 POP PUSH1 0x1 DUP3 AND DUP1 PUSH2 0x13D9 JUMPI PUSH1 0x7F DUP3 AND SWAP2 POP JUMPDEST PUSH1 0x20 DUP3 LT DUP2 EQ ISZERO PUSH2 0x13ED JUMPI PUSH2 0x13EC PUSH2 0x149C JUMP JUMPDEST JUMPDEST POP SWAP2 SWAP1 POP JUMP JUMPDEST PUSH2 0x13FC DUP3 PUSH2 0x153D JUMP JUMPDEST DUP2 ADD DUP2 DUP2 LT PUSH8 0xFFFFFFFFFFFFFFFF DUP3 GT OR ISZERO PUSH2 0x141B JUMPI PUSH2 0x141A PUSH2 0x14FA JUMP JUMPDEST JUMPDEST DUP1 PUSH1 0x40 MSTORE POP POP POP JUMP JUMPDEST PUSH1 0x0 PUSH2 0x142F DUP3 PUSH2 0x1375 JUMP JUMPDEST SWAP2 POP PUSH32 0xFFFFFFFFFFFFFFFFFFFFFFFFFFFFFFFFFFFFFFFFFFFFFFFFFFFFFFFFFFFFFFFF DUP3 EQ ISZERO PUSH2 0x1462 JUMPI PUSH2 0x1461 PUSH2 0x146D JUMP JUMPDEST JUMPDEST PUSH1 0x1 DUP3 ADD SWAP1 POP SWAP2 SWAP1 POP JUMP JUMPDEST PUSH32 0x4E487B7100000000000000000000000000000000000000000000000000000000 PUSH1 0x0 MSTORE PUSH1 0x11 PUSH1 0x4 MSTORE PUSH1 0x24 PUSH1 0x0 REVERT JUMPDEST PUSH32 0x4E487B7100000000000000000000000000000000000000000000000000000000 PUSH1 0x0 MSTORE PUSH1 0x22 PUSH1 0x4 MSTORE PUSH1 0x24 PUSH1 0x0 REVERT JUMPDEST PUSH32 0x4E487B7100000000000000000000000000000000000000000000000000000000 PUSH1 0x0 MSTORE PUSH1 0x32 PUSH1 0x4 MSTORE PUSH1 0x24 PUSH1 0x0 REVERT JUMPDEST PUSH32 0x4E487B7100000000000000000000000000000000000000000000000000000000 PUSH1 0x0 MSTORE PUSH1 0x41 PUSH1 0x4 MSTORE PUSH1 0x24 PUSH1 0x0 REVERT JUMPDEST PUSH1 0x0 DUP1 REVERT JUMPDEST PUSH1 0x0 DUP1 REVERT JUMPDEST PUSH1 0x0 DUP1 REVERT JUMPDEST PUSH1 0x0 DUP1 REVERT JUMPDEST PUSH1 0x0 PUSH1 0x1F NOT PUSH1 0x1F DUP4 ADD AND SWAP1 POP SWAP2 SWAP1 POP JUMP JUMPDEST PUSH2 0x1557 DUP2 PUSH2 0x1349 JUMP JUMPDEST DUP2 EQ PUSH2 0x1562 JUMPI PUSH1 0x0 DUP1 REVERT JUMPDEST POP JUMP JUMPDEST PUSH2 0x156E DUP2 PUSH2 0x1375 JUMP JUMPDEST DUP2 EQ PUSH2 0x1579 JUMPI PUSH1 0x0 DUP1 REVERT JUMPDEST POP JUMP INVALID LOG2 PUSH5 0x6970667358 0x22 SLT KECCAK256 DUP2 PUSH2 0x8568 SWAP4 SWAP15 0xC8 CALLDATACOPY PUSH24 0x4E24D0FC25A4C7CF9970FD6A2E02004FEBE8DE2343642E64 PUSH20 0x6F6C634300080700330000000000000000000000 "
				},
				"gasEstimates": {
					"creation": {
						"codeDepositCost": "1110800",
						"executionCost": "30434",
						"totalCost": "1141234"
					},
					"external": {
						"addDrug(string)": "infinite",
						"changeDrugStatus(uint256,bool)": "27175",
						"drugs(uint256)": "infinite",
						"drugsCount()": "2474",
						"get(uint256)": "infinite",
						"getDrug()": "infinite",
						"getDrugs()": "infinite",
						"newdrugs(string)": "infinite"
					}
				},
				"methodIdentifiers": {
					"addDrug(string)": "223883de",
					"changeDrugStatus(uint256,bool)": "e259effa",
					"drugs(uint256)": "fca5e61e",
					"drugsCount()": "92812e6f",
					"get(uint256)": "9507d39a",
					"getDrug()": "f2a50281",
					"getDrugs()": "5fb07a62",
					"newdrugs(string)": "b0d548df"
				}
			},
			"storageLayout": {
				"storage": [
					{
						"astId": 13,
						"contract": "contracts/Drugs.sol:Drugs",
						"label": "owner",
						"offset": 0,
						"slot": "0",
						"type": "t_address"
					},
					{
						"astId": 29,
						"contract": "contracts/Drugs.sol:Drugs",
						"label": "drugs",
						"offset": 0,
						"slot": "1",
						"type": "t_mapping(t_uint256,t_struct(Drug)11_storage)"
					},
					{
						"astId": 34,
						"contract": "contracts/Drugs.sol:Drugs",
						"label": "newdrugs",
						"offset": 0,
						"slot": "2",
						"type": "t_mapping(t_string_memory_ptr,t_struct(Drug)11_storage)"
					},
					{
						"astId": 36,
						"contract": "contracts/Drugs.sol:Drugs",
						"label": "drugsCount",
						"offset": 0,
						"slot": "3",
						"type": "t_uint256"
					}
				],
				"types": {
					"t_address": {
						"encoding": "inplace",
						"label": "address",
						"numberOfBytes": "20"
					},
					"t_bool": {
						"encoding": "inplace",
						"label": "bool",
						"numberOfBytes": "1"
					},
					"t_mapping(t_string_memory_ptr,t_struct(Drug)11_storage)": {
						"encoding": "mapping",
						"key": "t_string_memory_ptr",
						"label": "mapping(string => struct Drugs.Drug)",
						"numberOfBytes": "32",
						"value": "t_struct(Drug)11_storage"
					},
					"t_mapping(t_uint256,t_struct(Drug)11_storage)": {
						"encoding": "mapping",
						"key": "t_uint256",
						"label": "mapping(uint256 => struct Drugs.Drug)",
						"numberOfBytes": "32",
						"value": "t_struct(Drug)11_storage"
					},
					"t_string_memory_ptr": {
						"encoding": "bytes",
						"label": "string",
						"numberOfBytes": "32"
					},
					"t_string_storage": {
						"encoding": "bytes",
						"label": "string",
						"numberOfBytes": "32"
					},
					"t_struct(Drug)11_storage": {
						"encoding": "inplace",
						"label": "struct Drugs.Drug",
						"members": [
							{
								"astId": 4,
								"contract": "contracts/Drugs.sol:Drugs",
								"label": "DrugID",
								"offset": 0,
								"slot": "0",
								"type": "t_uint256"
							},
							{
								"astId": 6,
								"contract": "contracts/Drugs.sol:Drugs",
								"label": "RegNo",
								"offset": 0,
								"slot": "1",
								"type": "t_string_storage"
							},
							{
								"astId": 8,
								"contract": "contracts/Drugs.sol:Drugs",
								"label": "Manufacturer",
								"offset": 0,
								"slot": "2",
								"type": "t_address"
							},
							{
								"astId": 10,
								"contract": "contracts/Drugs.sol:Drugs",
								"label": "IsActive",
								"offset": 20,
								"slot": "2",
								"type": "t_bool"
							}
						],
						"numberOfBytes": "96"
					},
					"t_uint256": {
						"encoding": "inplace",
						"label": "uint256",
						"numberOfBytes": "32"
					}
				}
			},
			"userdoc": {
				"kind": "user",
				"methods": {},
				"version": 1
			}
		}
	}
}