{
	"contracts/Drugs.sol": {
		"Drugs": {
			"abi": [
				{
					"inputs": [],
					"stateMutability": "nonpayable",
					"type": "constructor"
				},
				{
					"inputs": [
						{
							"internalType": "string",
							"name": "_regno",
							"type": "string"
						}
					],
					"name": "addDrug",
					"outputs": [],
					"stateMutability": "nonpayable",
					"type": "function"
				},
				{
					"inputs": [
						{
							"internalType": "uint256",
							"name": "_drugid",
							"type": "uint256"
						},
						{
							"internalType": "bool",
							"name": "_status",
							"type": "bool"
						}
					],
					"name": "changeDrugStatus",
					"outputs": [],
					"stateMutability": "nonpayable",
					"type": "function"
				},
				{
					"inputs": [
						{
							"internalType": "uint256",
							"name": "",
							"type": "uint256"
						}
					],
					"name": "drugs",
					"outputs": [
						{
							"internalType": "uint256",
							"name": "DrugID",
							"type": "uint256"
						},
						{
							"internalType": "string",
							"name": "RegNo",
							"type": "string"
						},
						{
							"internalType": "address",
							"name": "Manufacturer",
							"type": "address"
						},
						{
							"internalType": "bool",
							"name": "IsActive",
							"type": "bool"
						}
					],
					"stateMutability": "view",
					"type": "function"
				},
				{
					"inputs": [],
					"name": "drugsCount",
					"outputs": [
						{
							"internalType": "uint256",
							"name": "",
							"type": "uint256"
						}
					],
					"stateMutability": "view",
					"type": "function"
				},
				{
					"inputs": [
						{
							"internalType": "string",
							"name": "_regno",
							"type": "string"
						}
					],
					"name": "get",
					"outputs": [
						{
							"components": [
								{
									"internalType": "uint256",
									"name": "DrugID",
									"type": "uint256"
								},
								{
									"internalType": "string",
									"name": "RegNo",
									"type": "string"
								},
								{
									"internalType": "address",
									"name": "Manufacturer",
									"type": "address"
								},
								{
									"internalType": "bool",
									"name": "IsActive",
									"type": "bool"
								}
							],
							"internalType": "struct Drugs.Drug",
							"name": "",
							"type": "tuple"
						}
					],
					"stateMutability": "view",
					"type": "function"
				},
				{
					"inputs": [],
					"name": "getDrug",
					"outputs": [
						{
							"internalType": "string[]",
							"name": "",
							"type": "string[]"
						},
						{
							"internalType": "address[]",
							"name": "",
							"type": "address[]"
						},
						{
							"internalType": "bool[]",
							"name": "",
							"type": "bool[]"
						}
					],
					"stateMutability": "view",
					"type": "function"
				},
				{
					"inputs": [],
					"name": "getDrugs",
					"outputs": [
						{
							"components": [
								{
									"internalType": "uint256",
									"name": "DrugID",
									"type": "uint256"
								},
								{
									"internalType": "string",
									"name": "RegNo",
									"type": "string"
								},
								{
									"internalType": "address",
									"name": "Manufacturer",
									"type": "address"
								},
								{
									"internalType": "bool",
									"name": "IsActive",
									"type": "bool"
								}
							],
							"internalType": "struct Drugs.Drug[]",
							"name": "",
							"type": "tuple[]"
						}
					],
					"stateMutability": "view",
					"type": "function"
				},
				{
					"inputs": [
						{
							"internalType": "string",
							"name": "",
							"type": "string"
						}
					],
					"name": "newdrugs",
					"outputs": [
						{
							"internalType": "uint256",
							"name": "DrugID",
							"type": "uint256"
						},
						{
							"internalType": "string",
							"name": "RegNo",
							"type": "string"
						},
						{
							"internalType": "address",
							"name": "Manufacturer",
							"type": "address"
						},
						{
							"internalType": "bool",
							"name": "IsActive",
							"type": "bool"
						}
					],
					"stateMutability": "view",
					"type": "function"
				}
			],
			"devdoc": {
				"kind": "dev",
				"methods": {},
				"version": 1
			},
			"evm": {
				"assembly": "    /* \"contracts/Drugs.sol\":97:1951  contract Drugs {\r... */\n  mstore(0x40, 0x80)\n    /* \"contracts/Drugs.sol\":517:594  constructor()  {\r... */\n  callvalue\n  dup1\n  iszero\n  tag_1\n  jumpi\n  0x00\n  dup1\n  revert\ntag_1:\n  pop\n    /* \"contracts/Drugs.sol\":556:557  0 */\n  0x00\n    /* \"contracts/Drugs.sol\":543:553  drugsCount */\n  0x03\n    /* \"contracts/Drugs.sol\":543:557  drugsCount = 0 */\n  dup2\n  swap1\n  sstore\n  pop\n    /* \"contracts/Drugs.sol\":576:586  msg.sender */\n  caller\n    /* \"contracts/Drugs.sol\":568:573  owner */\n  0x00\n  dup1\n    /* \"contracts/Drugs.sol\":568:586  owner = msg.sender */\n  0x0100\n  exp\n  dup2\n  sload\n  dup2\n  0xffffffffffffffffffffffffffffffffffffffff\n  mul\n  not\n  and\n  swap1\n  dup4\n  0xffffffffffffffffffffffffffffffffffffffff\n  and\n  mul\n  or\n  swap1\n  sstore\n  pop\n    /* \"contracts/Drugs.sol\":97:1951  contract Drugs {\r... */\n  dataSize(sub_0)\n  dup1\n  dataOffset(sub_0)\n  0x00\n  codecopy\n  0x00\n  return\nstop\n\nsub_0: assembly {\n        /* \"contracts/Drugs.sol\":97:1951  contract Drugs {\r... */\n      mstore(0x40, 0x80)\n      callvalue\n      dup1\n      iszero\n      tag_1\n      jumpi\n      0x00\n      dup1\n      revert\n    tag_1:\n      pop\n      jumpi(tag_2, lt(calldatasize, 0x04))\n      shr(0xe0, calldataload(0x00))\n      dup1\n      0xb0d548df\n      gt\n      tag_11\n      jumpi\n      dup1\n      0xb0d548df\n      eq\n      tag_7\n      jumpi\n      dup1\n      0xe259effa\n      eq\n      tag_8\n      jumpi\n      dup1\n      0xf2a50281\n      eq\n      tag_9\n      jumpi\n      dup1\n      0xfca5e61e\n      eq\n      tag_10\n      jumpi\n      jump(tag_2)\n    tag_11:\n      dup1\n      0x223883de\n      eq\n      tag_3\n      jumpi\n      dup1\n      0x5fb07a62\n      eq\n      tag_4\n      jumpi\n      dup1\n      0x693ec85e\n      eq\n      tag_5\n      jumpi\n      dup1\n      0x92812e6f\n      eq\n      tag_6\n      jumpi\n    tag_2:\n      0x00\n      dup1\n      revert\n        /* \"contracts/Drugs.sol\":600:748  function addDrug(string memory _regno) public{\r... */\n    tag_3:\n      tag_12\n      0x04\n      dup1\n      calldatasize\n      sub\n      dup2\n      add\n      swap1\n      tag_13\n      swap2\n      swap1\n      tag_14\n      jump\t// in\n    tag_13:\n      tag_15\n      jump\t// in\n    tag_12:\n      stop\n        /* \"contracts/Drugs.sol\":1550:1818  function getDrugs() public view returns (Drug[] memory){\r... */\n    tag_4:\n      tag_16\n      tag_17\n      jump\t// in\n    tag_16:\n      mload(0x40)\n      tag_18\n      swap2\n      swap1\n      tag_19\n      jump\t// in\n    tag_18:\n      mload(0x40)\n      dup1\n      swap2\n      sub\n      swap1\n      return\n        /* \"contracts/Drugs.sol\":785:895  function get(string memory _regno) public view returns(Drug memory) {\r... */\n    tag_5:\n      tag_20\n      0x04\n      dup1\n      calldatasize\n      sub\n      dup2\n      add\n      swap1\n      tag_21\n      swap2\n      swap1\n      tag_14\n      jump\t// in\n    tag_21:\n      tag_22\n      jump\t// in\n    tag_20:\n      mload(0x40)\n      tag_23\n      swap2\n      swap1\n      tag_24\n      jump\t// in\n    tag_23:\n      mload(0x40)\n      dup1\n      swap2\n      sub\n      swap1\n      return\n        /* \"contracts/Drugs.sol\":488:510  uint public drugsCount */\n    tag_6:\n      tag_25\n      tag_26\n      jump\t// in\n    tag_25:\n      mload(0x40)\n      tag_27\n      swap2\n      swap1\n      tag_28\n      jump\t// in\n    tag_27:\n      mload(0x40)\n      dup1\n      swap2\n      sub\n      swap1\n      return\n        /* \"contracts/Drugs.sol\":391:431  mapping (string => Drug) public newdrugs */\n    tag_7:\n      tag_29\n      0x04\n      dup1\n      calldatasize\n      sub\n      dup2\n      add\n      swap1\n      tag_30\n      swap2\n      swap1\n      tag_14\n      jump\t// in\n    tag_30:\n      tag_31\n      jump\t// in\n    tag_29:\n      mload(0x40)\n      tag_32\n      swap5\n      swap4\n      swap3\n      swap2\n      swap1\n      tag_33\n      jump\t// in\n    tag_32:\n      mload(0x40)\n      dup1\n      swap2\n      sub\n      swap1\n      return\n        /* \"contracts/Drugs.sol\":1824:1946  function changeDrugStatus(uint _drugid, bool _status) public onlyOwner{\r... */\n    tag_8:\n      tag_34\n      0x04\n      dup1\n      calldatasize\n      sub\n      dup2\n      add\n      swap1\n      tag_35\n      swap2\n      swap1\n      tag_36\n      jump\t// in\n    tag_35:\n      tag_37\n      jump\t// in\n    tag_34:\n      stop\n        /* \"contracts/Drugs.sol\":940:1511  function getDrug() public view returns (string[] memory, address[] memory, bool[] memory){\r... */\n    tag_9:\n      tag_38\n      tag_39\n      jump\t// in\n    tag_38:\n      mload(0x40)\n      tag_40\n      swap4\n      swap3\n      swap2\n      swap1\n      tag_41\n      jump\t// in\n    tag_40:\n      mload(0x40)\n      dup1\n      swap2\n      sub\n      swap1\n      return\n        /* \"contracts/Drugs.sol\":349:384  mapping (uint => Drug) public drugs */\n    tag_10:\n      tag_42\n      0x04\n      dup1\n      calldatasize\n      sub\n      dup2\n      add\n      swap1\n      tag_43\n      swap2\n      swap1\n      tag_44\n      jump\t// in\n    tag_43:\n      tag_45\n      jump\t// in\n    tag_42:\n      mload(0x40)\n      tag_46\n      swap5\n      swap4\n      swap3\n      swap2\n      swap1\n      tag_33\n      jump\t// in\n    tag_46:\n      mload(0x40)\n      dup1\n      swap2\n      sub\n      swap1\n      return\n        /* \"contracts/Drugs.sol\":600:748  function addDrug(string memory _regno) public{\r... */\n    tag_15:\n        /* \"contracts/Drugs.sol\":675:717  Drug(drugsCount, _regno,msg.sender , true) */\n      mload(0x40)\n      dup1\n      0x80\n      add\n      0x40\n      mstore\n      dup1\n        /* \"contracts/Drugs.sol\":680:690  drugsCount */\n      sload(0x03)\n        /* \"contracts/Drugs.sol\":675:717  Drug(drugsCount, _regno,msg.sender , true) */\n      dup2\n      mstore\n      0x20\n      add\n        /* \"contracts/Drugs.sol\":692:698  _regno */\n      dup3\n        /* \"contracts/Drugs.sol\":675:717  Drug(drugsCount, _regno,msg.sender , true) */\n      dup2\n      mstore\n      0x20\n      add\n        /* \"contracts/Drugs.sol\":699:709  msg.sender */\n      caller\n        /* \"contracts/Drugs.sol\":675:717  Drug(drugsCount, _regno,msg.sender , true) */\n      0xffffffffffffffffffffffffffffffffffffffff\n      and\n      dup2\n      mstore\n      0x20\n      add\n        /* \"contracts/Drugs.sol\":712:716  true */\n      0x01\n        /* \"contracts/Drugs.sol\":675:717  Drug(drugsCount, _regno,msg.sender , true) */\n      iszero\n      iszero\n      dup2\n      mstore\n      pop\n        /* \"contracts/Drugs.sol\":656:664  newdrugs */\n      0x02\n        /* \"contracts/Drugs.sol\":665:671  _regno */\n      dup3\n        /* \"contracts/Drugs.sol\":656:672  newdrugs[_regno] */\n      mload(0x40)\n      tag_48\n      swap2\n      swap1\n      tag_49\n      jump\t// in\n    tag_48:\n      swap1\n      dup2\n      mstore\n      0x20\n      add\n      mload(0x40)\n      dup1\n      swap2\n      sub\n      swap1\n      keccak256\n        /* \"contracts/Drugs.sol\":656:717  newdrugs[_regno] = Drug(drugsCount, _regno,msg.sender , true) */\n      0x00\n      dup3\n      add\n      mload\n      dup2\n      0x00\n      add\n      sstore\n      0x20\n      dup3\n      add\n      mload\n      dup2\n      0x01\n      add\n      swap1\n      dup1\n      mload\n      swap1\n      0x20\n      add\n      swap1\n      tag_50\n      swap3\n      swap2\n      swap1\n      tag_51\n      jump\t// in\n    tag_50:\n      pop\n      0x40\n      dup3\n      add\n      mload\n      dup2\n      0x02\n      add\n      exp(0x0100, 0x00)\n      dup2\n      sload\n      dup2\n      0xffffffffffffffffffffffffffffffffffffffff\n      mul\n      not\n      and\n      swap1\n      dup4\n      0xffffffffffffffffffffffffffffffffffffffff\n      and\n      mul\n      or\n      swap1\n      sstore\n      pop\n      0x60\n      dup3\n      add\n      mload\n      dup2\n      0x02\n      add\n      exp(0x0100, 0x14)\n      dup2\n      sload\n      dup2\n      0xff\n      mul\n      not\n      and\n      swap1\n      dup4\n      iszero\n      iszero\n      mul\n      or\n      swap1\n      sstore\n      pop\n      swap1\n      pop\n      pop\n        /* \"contracts/Drugs.sol\":728:738  drugsCount */\n      0x03\n      0x00\n        /* \"contracts/Drugs.sol\":728:740  drugsCount++ */\n      dup2\n      sload\n      dup1\n      swap3\n      swap2\n      swap1\n      tag_52\n      swap1\n      tag_53\n      jump\t// in\n    tag_52:\n      swap2\n      swap1\n      pop\n      sstore\n      pop\n        /* \"contracts/Drugs.sol\":600:748  function addDrug(string memory _regno) public{\r... */\n      pop\n      jump\t// out\n        /* \"contracts/Drugs.sol\":1550:1818  function getDrugs() public view returns (Drug[] memory){\r... */\n    tag_17:\n        /* \"contracts/Drugs.sol\":1591:1604  Drug[] memory */\n      0x60\n        /* \"contracts/Drugs.sol\":1616:1635  Drug[]    memory id */\n      0x00\n        /* \"contracts/Drugs.sol\":1649:1659  drugsCount */\n      sload(0x03)\n        /* \"contracts/Drugs.sol\":1638:1660  new Drug[](drugsCount) */\n      0xffffffffffffffff\n      dup2\n      gt\n      iszero\n      tag_55\n      jumpi\n      tag_56\n      tag_57\n      jump\t// in\n    tag_56:\n    tag_55:\n      mload(0x40)\n      swap1\n      dup1\n      dup3\n      mstore\n      dup1\n      0x20\n      mul\n      0x20\n      add\n      dup3\n      add\n      0x40\n      mstore\n      dup1\n      iszero\n      tag_58\n      jumpi\n      dup2\n      0x20\n      add\n    tag_59:\n      tag_60\n      tag_61\n      jump\t// in\n    tag_60:\n      dup2\n      mstore\n      0x20\n      add\n      swap1\n      0x01\n      swap1\n      sub\n      swap1\n      dup2\n      tag_59\n      jumpi\n      swap1\n      pop\n    tag_58:\n      pop\n        /* \"contracts/Drugs.sol\":1616:1660  Drug[]    memory id = new Drug[](drugsCount) */\n      swap1\n      pop\n        /* \"contracts/Drugs.sol\":1676:1682  uint i */\n      0x00\n        /* \"contracts/Drugs.sol\":1671:1791  for (uint i = 0; i < drugsCount; i++) {\r... */\n    tag_62:\n        /* \"contracts/Drugs.sol\":1692:1702  drugsCount */\n      sload(0x03)\n        /* \"contracts/Drugs.sol\":1688:1689  i */\n      dup2\n        /* \"contracts/Drugs.sol\":1688:1702  i < drugsCount */\n      lt\n        /* \"contracts/Drugs.sol\":1671:1791  for (uint i = 0; i < drugsCount; i++) {\r... */\n      iszero\n      tag_63\n      jumpi\n        /* \"contracts/Drugs.sol\":1724:1741  Drug storage drug */\n      0x00\n        /* \"contracts/Drugs.sol\":1744:1749  drugs */\n      0x01\n        /* \"contracts/Drugs.sol\":1744:1752  drugs[i] */\n      0x00\n        /* \"contracts/Drugs.sol\":1750:1751  i */\n      dup4\n        /* \"contracts/Drugs.sol\":1744:1752  drugs[i] */\n      dup2\n      mstore\n      0x20\n      add\n      swap1\n      dup2\n      mstore\n      0x20\n      add\n      0x00\n      keccak256\n        /* \"contracts/Drugs.sol\":1724:1752  Drug storage drug = drugs[i] */\n      swap1\n      pop\n        /* \"contracts/Drugs.sol\":1775:1779  drug */\n      dup1\n        /* \"contracts/Drugs.sol\":1767:1779  id[i] = drug */\n      mload(0x40)\n      dup1\n      0x80\n      add\n      0x40\n      mstore\n      swap1\n      dup2\n      0x00\n      dup3\n      add\n      sload\n      dup2\n      mstore\n      0x20\n      add\n      0x01\n      dup3\n      add\n      dup1\n      sload\n      tag_65\n      swap1\n      tag_66\n      jump\t// in\n    tag_65:\n      dup1\n      0x1f\n      add\n      0x20\n      dup1\n      swap2\n      div\n      mul\n      0x20\n      add\n      mload(0x40)\n      swap1\n      dup2\n      add\n      0x40\n      mstore\n      dup1\n      swap3\n      swap2\n      swap1\n      dup2\n      dup2\n      mstore\n      0x20\n      add\n      dup3\n      dup1\n      sload\n      tag_67\n      swap1\n      tag_66\n      jump\t// in\n    tag_67:\n      dup1\n      iszero\n      tag_68\n      jumpi\n      dup1\n      0x1f\n      lt\n      tag_69\n      jumpi\n      0x0100\n      dup1\n      dup4\n      sload\n      div\n      mul\n      dup4\n      mstore\n      swap2\n      0x20\n      add\n      swap2\n      jump(tag_68)\n    tag_69:\n      dup3\n      add\n      swap2\n      swap1\n      0x00\n      mstore\n      keccak256(0x00, 0x20)\n      swap1\n    tag_70:\n      dup2\n      sload\n      dup2\n      mstore\n      swap1\n      0x01\n      add\n      swap1\n      0x20\n      add\n      dup1\n      dup4\n      gt\n      tag_70\n      jumpi\n      dup3\n      swap1\n      sub\n      0x1f\n      and\n      dup3\n      add\n      swap2\n    tag_68:\n      pop\n      pop\n      pop\n      pop\n      pop\n      dup2\n      mstore\n      0x20\n      add\n      0x02\n      dup3\n      add\n      0x00\n      swap1\n      sload\n      swap1\n      0x0100\n      exp\n      swap1\n      div\n      0xffffffffffffffffffffffffffffffffffffffff\n      and\n      0xffffffffffffffffffffffffffffffffffffffff\n      and\n      0xffffffffffffffffffffffffffffffffffffffff\n      and\n      dup2\n      mstore\n      0x20\n      add\n      0x02\n      dup3\n      add\n      0x14\n      swap1\n      sload\n      swap1\n      0x0100\n      exp\n      swap1\n      div\n      0xff\n      and\n      iszero\n      iszero\n      iszero\n      iszero\n      dup2\n      mstore\n      pop\n      pop\n        /* \"contracts/Drugs.sol\":1767:1769  id */\n      dup4\n        /* \"contracts/Drugs.sol\":1770:1771  i */\n      dup4\n        /* \"contracts/Drugs.sol\":1767:1772  id[i] */\n      dup2\n      mload\n      dup2\n      lt\n      tag_71\n      jumpi\n      tag_72\n      tag_73\n      jump\t// in\n    tag_72:\n    tag_71:\n      0x20\n      mul\n      0x20\n      add\n      add\n        /* \"contracts/Drugs.sol\":1767:1779  id[i] = drug */\n      dup2\n      swap1\n      mstore\n      pop\n        /* \"contracts/Drugs.sol\":1709:1791  {\r... */\n      pop\n        /* \"contracts/Drugs.sol\":1704:1707  i++ */\n      dup1\n      dup1\n      tag_74\n      swap1\n      tag_53\n      jump\t// in\n    tag_74:\n      swap2\n      pop\n      pop\n        /* \"contracts/Drugs.sol\":1671:1791  for (uint i = 0; i < drugsCount; i++) {\r... */\n      jump(tag_62)\n    tag_63:\n      pop\n        /* \"contracts/Drugs.sol\":1808:1810  id */\n      dup1\n        /* \"contracts/Drugs.sol\":1801:1810  return id */\n      swap2\n      pop\n      pop\n        /* \"contracts/Drugs.sol\":1550:1818  function getDrugs() public view returns (Drug[] memory){\r... */\n      swap1\n      jump\t// out\n        /* \"contracts/Drugs.sol\":785:895  function get(string memory _regno) public view returns(Drug memory) {\r... */\n    tag_22:\n        /* \"contracts/Drugs.sol\":840:851  Drug memory */\n      tag_75\n      tag_61\n      jump\t// in\n    tag_75:\n        /* \"contracts/Drugs.sol\":871:879  newdrugs */\n      0x02\n        /* \"contracts/Drugs.sol\":880:886  _regno */\n      dup3\n        /* \"contracts/Drugs.sol\":871:887  newdrugs[_regno] */\n      mload(0x40)\n      tag_77\n      swap2\n      swap1\n      tag_49\n      jump\t// in\n    tag_77:\n      swap1\n      dup2\n      mstore\n      0x20\n      add\n      mload(0x40)\n      dup1\n      swap2\n      sub\n      swap1\n      keccak256\n        /* \"contracts/Drugs.sol\":864:887  return newdrugs[_regno] */\n      mload(0x40)\n      dup1\n      0x80\n      add\n      0x40\n      mstore\n      swap1\n      dup2\n      0x00\n      dup3\n      add\n      sload\n      dup2\n      mstore\n      0x20\n      add\n      0x01\n      dup3\n      add\n      dup1\n      sload\n      tag_78\n      swap1\n      tag_66\n      jump\t// in\n    tag_78:\n      dup1\n      0x1f\n      add\n      0x20\n      dup1\n      swap2\n      div\n      mul\n      0x20\n      add\n      mload(0x40)\n      swap1\n      dup2\n      add\n      0x40\n      mstore\n      dup1\n      swap3\n      swap2\n      swap1\n      dup2\n      dup2\n      mstore\n      0x20\n      add\n      dup3\n      dup1\n      sload\n      tag_79\n      swap1\n      tag_66\n      jump\t// in\n    tag_79:\n      dup1\n      iszero\n      tag_80\n      jumpi\n      dup1\n      0x1f\n      lt\n      tag_81\n      jumpi\n      0x0100\n      dup1\n      dup4\n      sload\n      div\n      mul\n      dup4\n      mstore\n      swap2\n      0x20\n      add\n      swap2\n      jump(tag_80)\n    tag_81:\n      dup3\n      add\n      swap2\n      swap1\n      0x00\n      mstore\n      keccak256(0x00, 0x20)\n      swap1\n    tag_82:\n      dup2\n      sload\n      dup2\n      mstore\n      swap1\n      0x01\n      add\n      swap1\n      0x20\n      add\n      dup1\n      dup4\n      gt\n      tag_82\n      jumpi\n      dup3\n      swap1\n      sub\n      0x1f\n      and\n      dup3\n      add\n      swap2\n    tag_80:\n      pop\n      pop\n      pop\n      pop\n      pop\n      dup2\n      mstore\n      0x20\n      add\n      0x02\n      dup3\n      add\n      0x00\n      swap1\n      sload\n      swap1\n      0x0100\n      exp\n      swap1\n      div\n      0xffffffffffffffffffffffffffffffffffffffff\n      and\n      0xffffffffffffffffffffffffffffffffffffffff\n      and\n      0xffffffffffffffffffffffffffffffffffffffff\n      and\n      dup2\n      mstore\n      0x20\n      add\n      0x02\n      dup3\n      add\n      0x14\n      swap1\n      sload\n      swap1\n      0x0100\n      exp\n      swap1\n      div\n      0xff\n      and\n      iszero\n      iszero\n      iszero\n      iszero\n      dup2\n      mstore\n      pop\n      pop\n      swap1\n      pop\n        /* \"contracts/Drugs.sol\":785:895  function get(string memory _regno) public view returns(Drug memory) {\r... */\n      swap2\n      swap1\n      pop\n      jump\t// out\n        /* \"contracts/Drugs.sol\":488:510  uint public drugsCount */\n    tag_26:\n      sload(0x03)\n      dup2\n      jump\t// out\n        /* \"contracts/Drugs.sol\":391:431  mapping (string => Drug) public newdrugs */\n    tag_31:\n      0x02\n      dup2\n      dup1\n      mload\n      0x20\n      dup2\n      add\n      dup3\n      add\n      dup1\n      mload\n      dup5\n      dup3\n      mstore\n      0x20\n      dup4\n      add\n      0x20\n      dup6\n      add\n      keccak256\n      dup2\n      dup4\n      mstore\n      dup1\n      swap6\n      pop\n      pop\n      pop\n      pop\n      pop\n      pop\n      0x00\n      swap2\n      pop\n      swap1\n      pop\n      dup1\n      0x00\n      add\n      sload\n      swap1\n      dup1\n      0x01\n      add\n      dup1\n      sload\n      tag_83\n      swap1\n      tag_66\n      jump\t// in\n    tag_83:\n      dup1\n      0x1f\n      add\n      0x20\n      dup1\n      swap2\n      div\n      mul\n      0x20\n      add\n      mload(0x40)\n      swap1\n      dup2\n      add\n      0x40\n      mstore\n      dup1\n      swap3\n      swap2\n      swap1\n      dup2\n      dup2\n      mstore\n      0x20\n      add\n      dup3\n      dup1\n      sload\n      tag_84\n      swap1\n      tag_66\n      jump\t// in\n    tag_84:\n      dup1\n      iszero\n      tag_85\n      jumpi\n      dup1\n      0x1f\n      lt\n      tag_86\n      jumpi\n      0x0100\n      dup1\n      dup4\n      sload\n      div\n      mul\n      dup4\n      mstore\n      swap2\n      0x20\n      add\n      swap2\n      jump(tag_85)\n    tag_86:\n      dup3\n      add\n      swap2\n      swap1\n      0x00\n      mstore\n      keccak256(0x00, 0x20)\n      swap1\n    tag_87:\n      dup2\n      sload\n      dup2\n      mstore\n      swap1\n      0x01\n      add\n      swap1\n      0x20\n      add\n      dup1\n      dup4\n      gt\n      tag_87\n      jumpi\n      dup3\n      swap1\n      sub\n      0x1f\n      and\n      dup3\n      add\n      swap2\n    tag_85:\n      pop\n      pop\n      pop\n      pop\n      pop\n      swap1\n      dup1\n      0x02\n      add\n      0x00\n      swap1\n      sload\n      swap1\n      0x0100\n      exp\n      swap1\n      div\n      0xffffffffffffffffffffffffffffffffffffffff\n      and\n      swap1\n      dup1\n      0x02\n      add\n      0x14\n      swap1\n      sload\n      swap1\n      0x0100\n      exp\n      swap1\n      div\n      0xff\n      and\n      swap1\n      pop\n      dup5\n      jump\t// out\n        /* \"contracts/Drugs.sol\":1824:1946  function changeDrugStatus(uint _drugid, bool _status) public onlyOwner{\r... */\n    tag_37:\n        /* \"contracts/Drugs.sol\":312:322  msg.sender */\n      caller\n        /* \"contracts/Drugs.sol\":303:322  owner == msg.sender */\n      0xffffffffffffffffffffffffffffffffffffffff\n      and\n        /* \"contracts/Drugs.sol\":303:308  owner */\n      0x00\n      dup1\n      sload\n      swap1\n      0x0100\n      exp\n      swap1\n      div\n      0xffffffffffffffffffffffffffffffffffffffff\n      and\n        /* \"contracts/Drugs.sol\":303:322  owner == msg.sender */\n      0xffffffffffffffffffffffffffffffffffffffff\n      and\n      eq\n        /* \"contracts/Drugs.sol\":295:323  require(owner == msg.sender) */\n      tag_89\n      jumpi\n      0x00\n      dup1\n      revert\n    tag_89:\n        /* \"contracts/Drugs.sol\":1931:1938  _status */\n      dup1\n        /* \"contracts/Drugs.sol\":1905:1910  drugs */\n      0x01\n        /* \"contracts/Drugs.sol\":1905:1919  drugs[_drugid] */\n      0x00\n        /* \"contracts/Drugs.sol\":1911:1918  _drugid */\n      dup5\n        /* \"contracts/Drugs.sol\":1905:1919  drugs[_drugid] */\n      dup2\n      mstore\n      0x20\n      add\n      swap1\n      dup2\n      mstore\n      0x20\n      add\n      0x00\n      keccak256\n        /* \"contracts/Drugs.sol\":1905:1928  drugs[_drugid].IsActive */\n      0x02\n      add\n      0x14\n        /* \"contracts/Drugs.sol\":1905:1938  drugs[_drugid].IsActive = _status */\n      0x0100\n      exp\n      dup2\n      sload\n      dup2\n      0xff\n      mul\n      not\n      and\n      swap1\n      dup4\n      iszero\n      iszero\n      mul\n      or\n      swap1\n      sstore\n      pop\n        /* \"contracts/Drugs.sol\":1824:1946  function changeDrugStatus(uint _drugid, bool _status) public onlyOwner{\r... */\n      pop\n      pop\n      jump\t// out\n        /* \"contracts/Drugs.sol\":940:1511  function getDrug() public view returns (string[] memory, address[] memory, bool[] memory){\r... */\n    tag_39:\n        /* \"contracts/Drugs.sol\":980:995  string[] memory */\n      0x60\n        /* \"contracts/Drugs.sol\":997:1013  address[] memory */\n      dup1\n        /* \"contracts/Drugs.sol\":1015:1028  bool[] memory */\n      0x60\n        /* \"contracts/Drugs.sol\":1040:1062  string[]  memory regno */\n      0x00\n        /* \"contracts/Drugs.sol\":1078:1088  drugsCount */\n      sload(0x03)\n        /* \"contracts/Drugs.sol\":1065:1089  new string[](drugsCount) */\n      0xffffffffffffffff\n      dup2\n      gt\n      iszero\n      tag_92\n      jumpi\n      tag_93\n      tag_57\n      jump\t// in\n    tag_93:\n    tag_92:\n      mload(0x40)\n      swap1\n      dup1\n      dup3\n      mstore\n      dup1\n      0x20\n      mul\n      0x20\n      add\n      dup3\n      add\n      0x40\n      mstore\n      dup1\n      iszero\n      tag_94\n      jumpi\n      dup2\n      0x20\n      add\n    tag_95:\n      0x60\n      dup2\n      mstore\n      0x20\n      add\n      swap1\n      0x01\n      swap1\n      sub\n      swap1\n      dup2\n      tag_95\n      jumpi\n      swap1\n      pop\n    tag_94:\n      pop\n        /* \"contracts/Drugs.sol\":1040:1089  string[]  memory regno = new string[](drugsCount) */\n      swap1\n      pop\n        /* \"contracts/Drugs.sol\":1100:1130  address[]  memory manufacturer */\n      0x00\n        /* \"contracts/Drugs.sol\":1147:1157  drugsCount */\n      sload(0x03)\n        /* \"contracts/Drugs.sol\":1133:1158  new address[](drugsCount) */\n      0xffffffffffffffff\n      dup2\n      gt\n      iszero\n      tag_96\n      jumpi\n      tag_97\n      tag_57\n      jump\t// in\n    tag_97:\n    tag_96:\n      mload(0x40)\n      swap1\n      dup1\n      dup3\n      mstore\n      dup1\n      0x20\n      mul\n      0x20\n      add\n      dup3\n      add\n      0x40\n      mstore\n      dup1\n      iszero\n      tag_98\n      jumpi\n      dup2\n      0x20\n      add\n      0x20\n      dup3\n      mul\n      dup1\n      calldatasize\n      dup4\n      calldatacopy\n      dup1\n      dup3\n      add\n      swap2\n      pop\n      pop\n      swap1\n      pop\n    tag_98:\n      pop\n        /* \"contracts/Drugs.sol\":1100:1158  address[]  memory manufacturer = new address[](drugsCount) */\n      swap1\n      pop\n        /* \"contracts/Drugs.sol\":1172:1194  bool[] memory isactive */\n      0x00\n        /* \"contracts/Drugs.sol\":1208:1218  drugsCount */\n      sload(0x03)\n        /* \"contracts/Drugs.sol\":1197:1219  new bool[](drugsCount) */\n      0xffffffffffffffff\n      dup2\n      gt\n      iszero\n      tag_99\n      jumpi\n      tag_100\n      tag_57\n      jump\t// in\n    tag_100:\n    tag_99:\n      mload(0x40)\n      swap1\n      dup1\n      dup3\n      mstore\n      dup1\n      0x20\n      mul\n      0x20\n      add\n      dup3\n      add\n      0x40\n      mstore\n      dup1\n      iszero\n      tag_101\n      jumpi\n      dup2\n      0x20\n      add\n      0x20\n      dup3\n      mul\n      dup1\n      calldatasize\n      dup4\n      calldatacopy\n      dup1\n      dup3\n      add\n      swap2\n      pop\n      pop\n      swap1\n      pop\n    tag_101:\n      pop\n        /* \"contracts/Drugs.sol\":1172:1219  bool[] memory isactive = new bool[](drugsCount) */\n      swap1\n      pop\n        /* \"contracts/Drugs.sol\":1239:1245  uint i */\n      0x00\n        /* \"contracts/Drugs.sol\":1234:1455  for (uint i = 0; i < drugsCount; i++) {\r... */\n    tag_102:\n        /* \"contracts/Drugs.sol\":1255:1265  drugsCount */\n      sload(0x03)\n        /* \"contracts/Drugs.sol\":1251:1252  i */\n      dup2\n        /* \"contracts/Drugs.sol\":1251:1265  i < drugsCount */\n      lt\n        /* \"contracts/Drugs.sol\":1234:1455  for (uint i = 0; i < drugsCount; i++) {\r... */\n      iszero\n      tag_103\n      jumpi\n        /* \"contracts/Drugs.sol\":1287:1304  Drug storage drug */\n      0x00\n        /* \"contracts/Drugs.sol\":1307:1312  drugs */\n      0x01\n        /* \"contracts/Drugs.sol\":1307:1315  drugs[i] */\n      0x00\n        /* \"contracts/Drugs.sol\":1313:1314  i */\n      dup4\n        /* \"contracts/Drugs.sol\":1307:1315  drugs[i] */\n      dup2\n      mstore\n      0x20\n      add\n      swap1\n      dup2\n      mstore\n      0x20\n      add\n      0x00\n      keccak256\n        /* \"contracts/Drugs.sol\":1287:1315  Drug storage drug = drugs[i] */\n      swap1\n      pop\n        /* \"contracts/Drugs.sol\":1341:1345  drug */\n      dup1\n        /* \"contracts/Drugs.sol\":1341:1351  drug.RegNo */\n      0x01\n      add\n        /* \"contracts/Drugs.sol\":1330:1351  regno[i] = drug.RegNo */\n      dup1\n      sload\n      tag_105\n      swap1\n      tag_66\n      jump\t// in\n    tag_105:\n      dup1\n      0x1f\n      add\n      0x20\n      dup1\n      swap2\n      div\n      mul\n      0x20\n      add\n      mload(0x40)\n      swap1\n      dup2\n      add\n      0x40\n      mstore\n      dup1\n      swap3\n      swap2\n      swap1\n      dup2\n      dup2\n      mstore\n      0x20\n      add\n      dup3\n      dup1\n      sload\n      tag_106\n      swap1\n      tag_66\n      jump\t// in\n    tag_106:\n      dup1\n      iszero\n      tag_107\n      jumpi\n      dup1\n      0x1f\n      lt\n      tag_108\n      jumpi\n      0x0100\n      dup1\n      dup4\n      sload\n      div\n      mul\n      dup4\n      mstore\n      swap2\n      0x20\n      add\n      swap2\n      jump(tag_107)\n    tag_108:\n      dup3\n      add\n      swap2\n      swap1\n      0x00\n      mstore\n      keccak256(0x00, 0x20)\n      swap1\n    tag_109:\n      dup2\n      sload\n      dup2\n      mstore\n      swap1\n      0x01\n      add\n      swap1\n      0x20\n      add\n      dup1\n      dup4\n      gt\n      tag_109\n      jumpi\n      dup3\n      swap1\n      sub\n      0x1f\n      and\n      dup3\n      add\n      swap2\n    tag_107:\n      pop\n      pop\n      pop\n      pop\n      pop\n        /* \"contracts/Drugs.sol\":1330:1335  regno */\n      dup6\n        /* \"contracts/Drugs.sol\":1336:1337  i */\n      dup4\n        /* \"contracts/Drugs.sol\":1330:1338  regno[i] */\n      dup2\n      mload\n      dup2\n      lt\n      tag_110\n      jumpi\n      tag_111\n      tag_73\n      jump\t// in\n    tag_111:\n    tag_110:\n      0x20\n      mul\n      0x20\n      add\n      add\n        /* \"contracts/Drugs.sol\":1330:1351  regno[i] = drug.RegNo */\n      dup2\n      swap1\n      mstore\n      pop\n        /* \"contracts/Drugs.sol\":1384:1388  drug */\n      dup1\n        /* \"contracts/Drugs.sol\":1384:1401  drug.Manufacturer */\n      0x02\n      add\n      0x00\n      swap1\n      sload\n      swap1\n      0x0100\n      exp\n      swap1\n      div\n      0xffffffffffffffffffffffffffffffffffffffff\n      and\n        /* \"contracts/Drugs.sol\":1366:1378  manufacturer */\n      dup5\n        /* \"contracts/Drugs.sol\":1379:1380  i */\n      dup4\n        /* \"contracts/Drugs.sol\":1366:1381  manufacturer[i] */\n      dup2\n      mload\n      dup2\n      lt\n      tag_112\n      jumpi\n      tag_113\n      tag_73\n      jump\t// in\n    tag_113:\n    tag_112:\n      0x20\n      mul\n      0x20\n      add\n      add\n        /* \"contracts/Drugs.sol\":1366:1401  manufacturer[i] = drug.Manufacturer */\n      swap1\n      0xffffffffffffffffffffffffffffffffffffffff\n      and\n      swap1\n      dup2\n      0xffffffffffffffffffffffffffffffffffffffff\n      and\n      dup2\n      mstore\n      pop\n      pop\n        /* \"contracts/Drugs.sol\":1430:1434  drug */\n      dup1\n        /* \"contracts/Drugs.sol\":1430:1443  drug.IsActive */\n      0x02\n      add\n      0x14\n      swap1\n      sload\n      swap1\n      0x0100\n      exp\n      swap1\n      div\n      0xff\n      and\n        /* \"contracts/Drugs.sol\":1416:1424  isactive */\n      dup4\n        /* \"contracts/Drugs.sol\":1425:1426  i */\n      dup4\n        /* \"contracts/Drugs.sol\":1416:1427  isactive[i] */\n      dup2\n      mload\n      dup2\n      lt\n      tag_114\n      jumpi\n      tag_115\n      tag_73\n      jump\t// in\n    tag_115:\n    tag_114:\n      0x20\n      mul\n      0x20\n      add\n      add\n        /* \"contracts/Drugs.sol\":1416:1443  isactive[i] = drug.IsActive */\n      swap1\n      iszero\n      iszero\n      swap1\n      dup2\n      iszero\n      iszero\n      dup2\n      mstore\n      pop\n      pop\n        /* \"contracts/Drugs.sol\":1272:1455  {\r... */\n      pop\n        /* \"contracts/Drugs.sol\":1267:1270  i++ */\n      dup1\n      dup1\n      tag_116\n      swap1\n      tag_53\n      jump\t// in\n    tag_116:\n      swap2\n      pop\n      pop\n        /* \"contracts/Drugs.sol\":1234:1455  for (uint i = 0; i < drugsCount; i++) {\r... */\n      jump(tag_102)\n    tag_103:\n      pop\n        /* \"contracts/Drugs.sol\":1473:1478  regno */\n      dup3\n        /* \"contracts/Drugs.sol\":1480:1492  manufacturer */\n      dup3\n        /* \"contracts/Drugs.sol\":1494:1502  isactive */\n      dup3\n        /* \"contracts/Drugs.sol\":1465:1503  return (regno, manufacturer, isactive) */\n      swap6\n      pop\n      swap6\n      pop\n      swap6\n      pop\n      pop\n      pop\n      pop\n        /* \"contracts/Drugs.sol\":940:1511  function getDrug() public view returns (string[] memory, address[] memory, bool[] memory){\r... */\n      swap1\n      swap2\n      swap3\n      jump\t// out\n        /* \"contracts/Drugs.sol\":349:384  mapping (uint => Drug) public drugs */\n    tag_45:\n      mstore(0x20, 0x01)\n      dup1\n      0x00\n      mstore\n      keccak256(0x00, 0x40)\n      0x00\n      swap2\n      pop\n      swap1\n      pop\n      dup1\n      0x00\n      add\n      sload\n      swap1\n      dup1\n      0x01\n      add\n      dup1\n      sload\n      tag_117\n      swap1\n      tag_66\n      jump\t// in\n    tag_117:\n      dup1\n      0x1f\n      add\n      0x20\n      dup1\n      swap2\n      div\n      mul\n      0x20\n      add\n      mload(0x40)\n      swap1\n      dup2\n      add\n      0x40\n      mstore\n      dup1\n      swap3\n      swap2\n      swap1\n      dup2\n      dup2\n      mstore\n      0x20\n      add\n      dup3\n      dup1\n      sload\n      tag_118\n      swap1\n      tag_66\n      jump\t// in\n    tag_118:\n      dup1\n      iszero\n      tag_119\n      jumpi\n      dup1\n      0x1f\n      lt\n      tag_120\n      jumpi\n      0x0100\n      dup1\n      dup4\n      sload\n      div\n      mul\n      dup4\n      mstore\n      swap2\n      0x20\n      add\n      swap2\n      jump(tag_119)\n    tag_120:\n      dup3\n      add\n      swap2\n      swap1\n      0x00\n      mstore\n      keccak256(0x00, 0x20)\n      swap1\n    tag_121:\n      dup2\n      sload\n      dup2\n      mstore\n      swap1\n      0x01\n      add\n      swap1\n      0x20\n      add\n      dup1\n      dup4\n      gt\n      tag_121\n      jumpi\n      dup3\n      swap1\n      sub\n      0x1f\n      and\n      dup3\n      add\n      swap2\n    tag_119:\n      pop\n      pop\n      pop\n      pop\n      pop\n      swap1\n      dup1\n      0x02\n      add\n      0x00\n      swap1\n      sload\n      swap1\n      0x0100\n      exp\n      swap1\n      div\n      0xffffffffffffffffffffffffffffffffffffffff\n      and\n      swap1\n      dup1\n      0x02\n      add\n      0x14\n      swap1\n      sload\n      swap1\n      0x0100\n      exp\n      swap1\n      div\n      0xff\n      and\n      swap1\n      pop\n      dup5\n      jump\t// out\n    tag_51:\n      dup3\n      dup1\n      sload\n      tag_122\n      swap1\n      tag_66\n      jump\t// in\n    tag_122:\n      swap1\n      0x00\n      mstore\n      keccak256(0x00, 0x20)\n      swap1\n      0x1f\n      add\n      0x20\n      swap1\n      div\n      dup2\n      add\n      swap3\n      dup3\n      tag_124\n      jumpi\n      0x00\n      dup6\n      sstore\n      jump(tag_123)\n    tag_124:\n      dup3\n      0x1f\n      lt\n      tag_125\n      jumpi\n      dup1\n      mload\n      not(0xff)\n      and\n      dup4\n      dup1\n      add\n      or\n      dup6\n      sstore\n      jump(tag_123)\n    tag_125:\n      dup3\n      dup1\n      add\n      0x01\n      add\n      dup6\n      sstore\n      dup3\n      iszero\n      tag_123\n      jumpi\n      swap2\n      dup3\n      add\n    tag_126:\n      dup3\n      dup2\n      gt\n      iszero\n      tag_127\n      jumpi\n      dup3\n      mload\n      dup3\n      sstore\n      swap2\n      0x20\n      add\n      swap2\n      swap1\n      0x01\n      add\n      swap1\n      jump(tag_126)\n    tag_127:\n    tag_123:\n      pop\n      swap1\n      pop\n      tag_128\n      swap2\n      swap1\n      tag_129\n      jump\t// in\n    tag_128:\n      pop\n      swap1\n      jump\t// out\n    tag_61:\n      mload(0x40)\n      dup1\n      0x80\n      add\n      0x40\n      mstore\n      dup1\n      0x00\n      dup2\n      mstore\n      0x20\n      add\n      0x60\n      dup2\n      mstore\n      0x20\n      add\n      and(0xffffffffffffffffffffffffffffffffffffffff, 0x00)\n      dup2\n      mstore\n      0x20\n      add\n      iszero(iszero(0x00))\n      dup2\n      mstore\n      pop\n      swap1\n      jump\t// out\n    tag_129:\n    tag_130:\n      dup1\n      dup3\n      gt\n      iszero\n      tag_131\n      jumpi\n      0x00\n      dup2\n      0x00\n      swap1\n      sstore\n      pop\n      0x01\n      add\n      jump(tag_130)\n    tag_131:\n      pop\n      swap1\n      jump\t// out\n        /* \"#utility.yul\":7:419   */\n    tag_133:\n        /* \"#utility.yul\":85:90   */\n      0x00\n        /* \"#utility.yul\":110:176   */\n      tag_135\n        /* \"#utility.yul\":126:175   */\n      tag_136\n        /* \"#utility.yul\":168:174   */\n      dup5\n        /* \"#utility.yul\":126:175   */\n      tag_137\n      jump\t// in\n    tag_136:\n        /* \"#utility.yul\":110:176   */\n      tag_138\n      jump\t// in\n    tag_135:\n        /* \"#utility.yul\":101:176   */\n      swap1\n      pop\n        /* \"#utility.yul\":199:205   */\n      dup3\n        /* \"#utility.yul\":192:197   */\n      dup2\n        /* \"#utility.yul\":185:206   */\n      mstore\n        /* \"#utility.yul\":237:241   */\n      0x20\n        /* \"#utility.yul\":230:235   */\n      dup2\n        /* \"#utility.yul\":226:242   */\n      add\n        /* \"#utility.yul\":275:278   */\n      dup5\n        /* \"#utility.yul\":266:272   */\n      dup5\n        /* \"#utility.yul\":261:264   */\n      dup5\n        /* \"#utility.yul\":257:273   */\n      add\n        /* \"#utility.yul\":254:279   */\n      gt\n        /* \"#utility.yul\":251:363   */\n      iszero\n      tag_139\n      jumpi\n        /* \"#utility.yul\":282:361   */\n      tag_140\n      tag_141\n      jump\t// in\n    tag_140:\n        /* \"#utility.yul\":251:363   */\n    tag_139:\n        /* \"#utility.yul\":372:413   */\n      tag_142\n        /* \"#utility.yul\":406:412   */\n      dup5\n        /* \"#utility.yul\":401:404   */\n      dup3\n        /* \"#utility.yul\":396:399   */\n      dup6\n        /* \"#utility.yul\":372:413   */\n      tag_143\n      jump\t// in\n    tag_142:\n        /* \"#utility.yul\":91:419   */\n      pop\n        /* \"#utility.yul\":7:419   */\n      swap4\n      swap3\n      pop\n      pop\n      pop\n      jump\t// out\n        /* \"#utility.yul\":425:558   */\n    tag_144:\n        /* \"#utility.yul\":468:473   */\n      0x00\n        /* \"#utility.yul\":506:512   */\n      dup2\n        /* \"#utility.yul\":493:513   */\n      calldataload\n        /* \"#utility.yul\":484:513   */\n      swap1\n      pop\n        /* \"#utility.yul\":522:552   */\n      tag_146\n        /* \"#utility.yul\":546:551   */\n      dup2\n        /* \"#utility.yul\":522:552   */\n      tag_147\n      jump\t// in\n    tag_146:\n        /* \"#utility.yul\":425:558   */\n      swap3\n      swap2\n      pop\n      pop\n      jump\t// out\n        /* \"#utility.yul\":578:918   */\n    tag_148:\n        /* \"#utility.yul\":634:639   */\n      0x00\n        /* \"#utility.yul\":683:686   */\n      dup3\n        /* \"#utility.yul\":676:680   */\n      0x1f\n        /* \"#utility.yul\":668:674   */\n      dup4\n        /* \"#utility.yul\":664:681   */\n      add\n        /* \"#utility.yul\":660:687   */\n      slt\n        /* \"#utility.yul\":650:772   */\n      tag_150\n      jumpi\n        /* \"#utility.yul\":691:770   */\n      tag_151\n      tag_152\n      jump\t// in\n    tag_151:\n        /* \"#utility.yul\":650:772   */\n    tag_150:\n        /* \"#utility.yul\":808:814   */\n      dup2\n        /* \"#utility.yul\":795:815   */\n      calldataload\n        /* \"#utility.yul\":833:912   */\n      tag_153\n        /* \"#utility.yul\":908:911   */\n      dup5\n        /* \"#utility.yul\":900:906   */\n      dup3\n        /* \"#utility.yul\":893:897   */\n      0x20\n        /* \"#utility.yul\":885:891   */\n      dup7\n        /* \"#utility.yul\":881:898   */\n      add\n        /* \"#utility.yul\":833:912   */\n      tag_133\n      jump\t// in\n    tag_153:\n        /* \"#utility.yul\":824:912   */\n      swap2\n      pop\n        /* \"#utility.yul\":640:918   */\n      pop\n        /* \"#utility.yul\":578:918   */\n      swap3\n      swap2\n      pop\n      pop\n      jump\t// out\n        /* \"#utility.yul\":924:1063   */\n    tag_154:\n        /* \"#utility.yul\":970:975   */\n      0x00\n        /* \"#utility.yul\":1008:1014   */\n      dup2\n        /* \"#utility.yul\":995:1015   */\n      calldataload\n        /* \"#utility.yul\":986:1015   */\n      swap1\n      pop\n        /* \"#utility.yul\":1024:1057   */\n      tag_156\n        /* \"#utility.yul\":1051:1056   */\n      dup2\n        /* \"#utility.yul\":1024:1057   */\n      tag_157\n      jump\t// in\n    tag_156:\n        /* \"#utility.yul\":924:1063   */\n      swap3\n      swap2\n      pop\n      pop\n      jump\t// out\n        /* \"#utility.yul\":1069:1578   */\n    tag_14:\n        /* \"#utility.yul\":1138:1144   */\n      0x00\n        /* \"#utility.yul\":1187:1189   */\n      0x20\n        /* \"#utility.yul\":1175:1184   */\n      dup3\n        /* \"#utility.yul\":1166:1173   */\n      dup5\n        /* \"#utility.yul\":1162:1185   */\n      sub\n        /* \"#utility.yul\":1158:1190   */\n      slt\n        /* \"#utility.yul\":1155:1274   */\n      iszero\n      tag_159\n      jumpi\n        /* \"#utility.yul\":1193:1272   */\n      tag_160\n      tag_161\n      jump\t// in\n    tag_160:\n        /* \"#utility.yul\":1155:1274   */\n    tag_159:\n        /* \"#utility.yul\":1341:1342   */\n      0x00\n        /* \"#utility.yul\":1330:1339   */\n      dup3\n        /* \"#utility.yul\":1326:1343   */\n      add\n        /* \"#utility.yul\":1313:1344   */\n      calldataload\n        /* \"#utility.yul\":1371:1389   */\n      0xffffffffffffffff\n        /* \"#utility.yul\":1363:1369   */\n      dup2\n        /* \"#utility.yul\":1360:1390   */\n      gt\n        /* \"#utility.yul\":1357:1474   */\n      iszero\n      tag_162\n      jumpi\n        /* \"#utility.yul\":1393:1472   */\n      tag_163\n      tag_164\n      jump\t// in\n    tag_163:\n        /* \"#utility.yul\":1357:1474   */\n    tag_162:\n        /* \"#utility.yul\":1498:1561   */\n      tag_165\n        /* \"#utility.yul\":1553:1560   */\n      dup5\n        /* \"#utility.yul\":1544:1550   */\n      dup3\n        /* \"#utility.yul\":1533:1542   */\n      dup6\n        /* \"#utility.yul\":1529:1551   */\n      add\n        /* \"#utility.yul\":1498:1561   */\n      tag_148\n      jump\t// in\n    tag_165:\n        /* \"#utility.yul\":1488:1561   */\n      swap2\n      pop\n        /* \"#utility.yul\":1284:1571   */\n      pop\n        /* \"#utility.yul\":1069:1578   */\n      swap3\n      swap2\n      pop\n      pop\n      jump\t// out\n        /* \"#utility.yul\":1584:1913   */\n    tag_44:\n        /* \"#utility.yul\":1643:1649   */\n      0x00\n        /* \"#utility.yul\":1692:1694   */\n      0x20\n        /* \"#utility.yul\":1680:1689   */\n      dup3\n        /* \"#utility.yul\":1671:1678   */\n      dup5\n        /* \"#utility.yul\":1667:1690   */\n      sub\n        /* \"#utility.yul\":1663:1695   */\n      slt\n        /* \"#utility.yul\":1660:1779   */\n      iszero\n      tag_167\n      jumpi\n        /* \"#utility.yul\":1698:1777   */\n      tag_168\n      tag_161\n      jump\t// in\n    tag_168:\n        /* \"#utility.yul\":1660:1779   */\n    tag_167:\n        /* \"#utility.yul\":1818:1819   */\n      0x00\n        /* \"#utility.yul\":1843:1896   */\n      tag_169\n        /* \"#utility.yul\":1888:1895   */\n      dup5\n        /* \"#utility.yul\":1879:1885   */\n      dup3\n        /* \"#utility.yul\":1868:1877   */\n      dup6\n        /* \"#utility.yul\":1864:1886   */\n      add\n        /* \"#utility.yul\":1843:1896   */\n      tag_154\n      jump\t// in\n    tag_169:\n        /* \"#utility.yul\":1833:1896   */\n      swap2\n      pop\n        /* \"#utility.yul\":1789:1906   */\n      pop\n        /* \"#utility.yul\":1584:1913   */\n      swap3\n      swap2\n      pop\n      pop\n      jump\t// out\n        /* \"#utility.yul\":1919:2387   */\n    tag_36:\n        /* \"#utility.yul\":1984:1990   */\n      0x00\n        /* \"#utility.yul\":1992:1998   */\n      dup1\n        /* \"#utility.yul\":2041:2043   */\n      0x40\n        /* \"#utility.yul\":2029:2038   */\n      dup4\n        /* \"#utility.yul\":2020:2027   */\n      dup6\n        /* \"#utility.yul\":2016:2039   */\n      sub\n        /* \"#utility.yul\":2012:2044   */\n      slt\n        /* \"#utility.yul\":2009:2128   */\n      iszero\n      tag_171\n      jumpi\n        /* \"#utility.yul\":2047:2126   */\n      tag_172\n      tag_161\n      jump\t// in\n    tag_172:\n        /* \"#utility.yul\":2009:2128   */\n    tag_171:\n        /* \"#utility.yul\":2167:2168   */\n      0x00\n        /* \"#utility.yul\":2192:2245   */\n      tag_173\n        /* \"#utility.yul\":2237:2244   */\n      dup6\n        /* \"#utility.yul\":2228:2234   */\n      dup3\n        /* \"#utility.yul\":2217:2226   */\n      dup7\n        /* \"#utility.yul\":2213:2235   */\n      add\n        /* \"#utility.yul\":2192:2245   */\n      tag_154\n      jump\t// in\n    tag_173:\n        /* \"#utility.yul\":2182:2245   */\n      swap3\n      pop\n        /* \"#utility.yul\":2138:2255   */\n      pop\n        /* \"#utility.yul\":2294:2296   */\n      0x20\n        /* \"#utility.yul\":2320:2370   */\n      tag_174\n        /* \"#utility.yul\":2362:2369   */\n      dup6\n        /* \"#utility.yul\":2353:2359   */\n      dup3\n        /* \"#utility.yul\":2342:2351   */\n      dup7\n        /* \"#utility.yul\":2338:2360   */\n      add\n        /* \"#utility.yul\":2320:2370   */\n      tag_144\n      jump\t// in\n    tag_174:\n        /* \"#utility.yul\":2310:2370   */\n      swap2\n      pop\n        /* \"#utility.yul\":2265:2380   */\n      pop\n        /* \"#utility.yul\":1919:2387   */\n      swap3\n      pop\n      swap3\n      swap1\n      pop\n      jump\t// out\n        /* \"#utility.yul\":2393:2572   */\n    tag_175:\n        /* \"#utility.yul\":2462:2472   */\n      0x00\n        /* \"#utility.yul\":2483:2529   */\n      tag_177\n        /* \"#utility.yul\":2525:2528   */\n      dup4\n        /* \"#utility.yul\":2517:2523   */\n      dup4\n        /* \"#utility.yul\":2483:2529   */\n      tag_178\n      jump\t// in\n    tag_177:\n        /* \"#utility.yul\":2561:2565   */\n      0x20\n        /* \"#utility.yul\":2556:2559   */\n      dup4\n        /* \"#utility.yul\":2552:2566   */\n      add\n        /* \"#utility.yul\":2538:2566   */\n      swap1\n      pop\n        /* \"#utility.yul\":2393:2572   */\n      swap3\n      swap2\n      pop\n      pop\n      jump\t// out\n        /* \"#utility.yul\":2578:2745   */\n    tag_179:\n        /* \"#utility.yul\":2641:2651   */\n      0x00\n        /* \"#utility.yul\":2662:2702   */\n      tag_181\n        /* \"#utility.yul\":2698:2701   */\n      dup4\n        /* \"#utility.yul\":2690:2696   */\n      dup4\n        /* \"#utility.yul\":2662:2702   */\n      tag_182\n      jump\t// in\n    tag_181:\n        /* \"#utility.yul\":2734:2738   */\n      0x20\n        /* \"#utility.yul\":2729:2732   */\n      dup4\n        /* \"#utility.yul\":2725:2739   */\n      add\n        /* \"#utility.yul\":2711:2739   */\n      swap1\n      pop\n        /* \"#utility.yul\":2578:2745   */\n      swap3\n      swap2\n      pop\n      pop\n      jump\t// out\n        /* \"#utility.yul\":2751:2947   */\n    tag_183:\n        /* \"#utility.yul\":2840:2850   */\n      0x00\n        /* \"#utility.yul\":2875:2941   */\n      tag_185\n        /* \"#utility.yul\":2937:2940   */\n      dup4\n        /* \"#utility.yul\":2929:2935   */\n      dup4\n        /* \"#utility.yul\":2875:2941   */\n      tag_186\n      jump\t// in\n    tag_185:\n        /* \"#utility.yul\":2861:2941   */\n      swap1\n      pop\n        /* \"#utility.yul\":2751:2947   */\n      swap3\n      swap2\n      pop\n      pop\n      jump\t// out\n        /* \"#utility.yul\":2953:3189   */\n    tag_187:\n        /* \"#utility.yul\":3062:3072   */\n      0x00\n        /* \"#utility.yul\":3097:3183   */\n      tag_189\n        /* \"#utility.yul\":3179:3182   */\n      dup4\n        /* \"#utility.yul\":3171:3177   */\n      dup4\n        /* \"#utility.yul\":3097:3183   */\n      tag_190\n      jump\t// in\n    tag_189:\n        /* \"#utility.yul\":3083:3183   */\n      swap1\n      pop\n        /* \"#utility.yul\":2953:3189   */\n      swap3\n      swap2\n      pop\n      pop\n      jump\t// out\n        /* \"#utility.yul\":3195:3303   */\n    tag_178:\n        /* \"#utility.yul\":3272:3296   */\n      tag_192\n        /* \"#utility.yul\":3290:3295   */\n      dup2\n        /* \"#utility.yul\":3272:3296   */\n      tag_193\n      jump\t// in\n    tag_192:\n        /* \"#utility.yul\":3267:3270   */\n      dup3\n        /* \"#utility.yul\":3260:3297   */\n      mstore\n        /* \"#utility.yul\":3195:3303   */\n      pop\n      pop\n      jump\t// out\n        /* \"#utility.yul\":3309:3427   */\n    tag_194:\n        /* \"#utility.yul\":3396:3420   */\n      tag_196\n        /* \"#utility.yul\":3414:3419   */\n      dup2\n        /* \"#utility.yul\":3396:3420   */\n      tag_193\n      jump\t// in\n    tag_196:\n        /* \"#utility.yul\":3391:3394   */\n      dup3\n        /* \"#utility.yul\":3384:3421   */\n      mstore\n        /* \"#utility.yul\":3309:3427   */\n      pop\n      pop\n      jump\t// out\n        /* \"#utility.yul\":3463:4195   */\n    tag_197:\n        /* \"#utility.yul\":3582:3585   */\n      0x00\n        /* \"#utility.yul\":3611:3665   */\n      tag_199\n        /* \"#utility.yul\":3659:3664   */\n      dup3\n        /* \"#utility.yul\":3611:3665   */\n      tag_200\n      jump\t// in\n    tag_199:\n        /* \"#utility.yul\":3681:3767   */\n      tag_201\n        /* \"#utility.yul\":3760:3766   */\n      dup2\n        /* \"#utility.yul\":3755:3758   */\n      dup6\n        /* \"#utility.yul\":3681:3767   */\n      tag_202\n      jump\t// in\n    tag_201:\n        /* \"#utility.yul\":3674:3767   */\n      swap4\n      pop\n        /* \"#utility.yul\":3791:3847   */\n      tag_203\n        /* \"#utility.yul\":3841:3846   */\n      dup4\n        /* \"#utility.yul\":3791:3847   */\n      tag_204\n      jump\t// in\n    tag_203:\n        /* \"#utility.yul\":3870:3877   */\n      dup1\n        /* \"#utility.yul\":3901:3902   */\n      0x00\n        /* \"#utility.yul\":3886:4170   */\n    tag_205:\n        /* \"#utility.yul\":3911:3917   */\n      dup4\n        /* \"#utility.yul\":3908:3909   */\n      dup2\n        /* \"#utility.yul\":3905:3918   */\n      lt\n        /* \"#utility.yul\":3886:4170   */\n      iszero\n      tag_207\n      jumpi\n        /* \"#utility.yul\":3987:3993   */\n      dup2\n        /* \"#utility.yul\":3981:3994   */\n      mload\n        /* \"#utility.yul\":4014:4077   */\n      tag_208\n        /* \"#utility.yul\":4073:4076   */\n      dup9\n        /* \"#utility.yul\":4058:4071   */\n      dup3\n        /* \"#utility.yul\":4014:4077   */\n      tag_175\n      jump\t// in\n    tag_208:\n        /* \"#utility.yul\":4007:4077   */\n      swap8\n      pop\n        /* \"#utility.yul\":4100:4160   */\n      tag_209\n        /* \"#utility.yul\":4153:4159   */\n      dup4\n        /* \"#utility.yul\":4100:4160   */\n      tag_210\n      jump\t// in\n    tag_209:\n        /* \"#utility.yul\":4090:4160   */\n      swap3\n      pop\n        /* \"#utility.yul\":3946:4170   */\n      pop\n        /* \"#utility.yul\":3933:3934   */\n      0x01\n        /* \"#utility.yul\":3930:3931   */\n      dup2\n        /* \"#utility.yul\":3926:3935   */\n      add\n        /* \"#utility.yul\":3921:3935   */\n      swap1\n      pop\n        /* \"#utility.yul\":3886:4170   */\n      jump(tag_205)\n    tag_207:\n        /* \"#utility.yul\":3890:3904   */\n      pop\n        /* \"#utility.yul\":4186:4189   */\n      dup6\n        /* \"#utility.yul\":4179:4189   */\n      swap4\n      pop\n        /* \"#utility.yul\":3587:4195   */\n      pop\n      pop\n      pop\n        /* \"#utility.yul\":3463:4195   */\n      swap3\n      swap2\n      pop\n      pop\n      jump\t// out\n        /* \"#utility.yul\":4225:4933   */\n    tag_211:\n        /* \"#utility.yul\":4338:4341   */\n      0x00\n        /* \"#utility.yul\":4367:4418   */\n      tag_213\n        /* \"#utility.yul\":4412:4417   */\n      dup3\n        /* \"#utility.yul\":4367:4418   */\n      tag_214\n      jump\t// in\n    tag_213:\n        /* \"#utility.yul\":4434:4517   */\n      tag_215\n        /* \"#utility.yul\":4510:4516   */\n      dup2\n        /* \"#utility.yul\":4505:4508   */\n      dup6\n        /* \"#utility.yul\":4434:4517   */\n      tag_216\n      jump\t// in\n    tag_215:\n        /* \"#utility.yul\":4427:4517   */\n      swap4\n      pop\n        /* \"#utility.yul\":4541:4594   */\n      tag_217\n        /* \"#utility.yul\":4588:4593   */\n      dup4\n        /* \"#utility.yul\":4541:4594   */\n      tag_218\n      jump\t// in\n    tag_217:\n        /* \"#utility.yul\":4617:4624   */\n      dup1\n        /* \"#utility.yul\":4648:4649   */\n      0x00\n        /* \"#utility.yul\":4633:4908   */\n    tag_219:\n        /* \"#utility.yul\":4658:4664   */\n      dup4\n        /* \"#utility.yul\":4655:4656   */\n      dup2\n        /* \"#utility.yul\":4652:4665   */\n      lt\n        /* \"#utility.yul\":4633:4908   */\n      iszero\n      tag_221\n      jumpi\n        /* \"#utility.yul\":4734:4740   */\n      dup2\n        /* \"#utility.yul\":4728:4741   */\n      mload\n        /* \"#utility.yul\":4761:4818   */\n      tag_222\n        /* \"#utility.yul\":4814:4817   */\n      dup9\n        /* \"#utility.yul\":4799:4812   */\n      dup3\n        /* \"#utility.yul\":4761:4818   */\n      tag_179\n      jump\t// in\n    tag_222:\n        /* \"#utility.yul\":4754:4818   */\n      swap8\n      pop\n        /* \"#utility.yul\":4841:4898   */\n      tag_223\n        /* \"#utility.yul\":4891:4897   */\n      dup4\n        /* \"#utility.yul\":4841:4898   */\n      tag_224\n      jump\t// in\n    tag_223:\n        /* \"#utility.yul\":4831:4898   */\n      swap3\n      pop\n        /* \"#utility.yul\":4693:4908   */\n      pop\n        /* \"#utility.yul\":4680:4681   */\n      0x01\n        /* \"#utility.yul\":4677:4678   */\n      dup2\n        /* \"#utility.yul\":4673:4682   */\n      add\n        /* \"#utility.yul\":4668:4682   */\n      swap1\n      pop\n        /* \"#utility.yul\":4633:4908   */\n      jump(tag_219)\n    tag_221:\n        /* \"#utility.yul\":4637:4651   */\n      pop\n        /* \"#utility.yul\":4924:4927   */\n      dup6\n        /* \"#utility.yul\":4917:4927   */\n      swap4\n      pop\n        /* \"#utility.yul\":4343:4933   */\n      pop\n      pop\n      pop\n        /* \"#utility.yul\":4225:4933   */\n      swap3\n      swap2\n      pop\n      pop\n      jump\t// out\n        /* \"#utility.yul\":4967:5958   */\n    tag_225:\n        /* \"#utility.yul\":5106:5109   */\n      0x00\n        /* \"#utility.yul\":5135:5199   */\n      tag_227\n        /* \"#utility.yul\":5193:5198   */\n      dup3\n        /* \"#utility.yul\":5135:5199   */\n      tag_228\n      jump\t// in\n    tag_227:\n        /* \"#utility.yul\":5215:5311   */\n      tag_229\n        /* \"#utility.yul\":5304:5310   */\n      dup2\n        /* \"#utility.yul\":5299:5302   */\n      dup6\n        /* \"#utility.yul\":5215:5311   */\n      tag_230\n      jump\t// in\n    tag_229:\n        /* \"#utility.yul\":5208:5311   */\n      swap4\n      pop\n        /* \"#utility.yul\":5337:5340   */\n      dup4\n        /* \"#utility.yul\":5382:5386   */\n      0x20\n        /* \"#utility.yul\":5374:5380   */\n      dup3\n        /* \"#utility.yul\":5370:5387   */\n      mul\n        /* \"#utility.yul\":5365:5368   */\n      dup6\n        /* \"#utility.yul\":5361:5388   */\n      add\n        /* \"#utility.yul\":5412:5478   */\n      tag_231\n        /* \"#utility.yul\":5472:5477   */\n      dup6\n        /* \"#utility.yul\":5412:5478   */\n      tag_232\n      jump\t// in\n    tag_231:\n        /* \"#utility.yul\":5501:5508   */\n      dup1\n        /* \"#utility.yul\":5532:5533   */\n      0x00\n        /* \"#utility.yul\":5517:5913   */\n    tag_233:\n        /* \"#utility.yul\":5542:5548   */\n      dup6\n        /* \"#utility.yul\":5539:5540   */\n      dup2\n        /* \"#utility.yul\":5536:5549   */\n      lt\n        /* \"#utility.yul\":5517:5913   */\n      iszero\n      tag_235\n      jumpi\n        /* \"#utility.yul\":5613:5622   */\n      dup5\n        /* \"#utility.yul\":5607:5611   */\n      dup5\n        /* \"#utility.yul\":5603:5623   */\n      sub\n        /* \"#utility.yul\":5598:5601   */\n      dup10\n        /* \"#utility.yul\":5591:5624   */\n      mstore\n        /* \"#utility.yul\":5664:5670   */\n      dup2\n        /* \"#utility.yul\":5658:5671   */\n      mload\n        /* \"#utility.yul\":5692:5776   */\n      tag_236\n        /* \"#utility.yul\":5771:5775   */\n      dup6\n        /* \"#utility.yul\":5756:5769   */\n      dup3\n        /* \"#utility.yul\":5692:5776   */\n      tag_183\n      jump\t// in\n    tag_236:\n        /* \"#utility.yul\":5684:5776   */\n      swap5\n      pop\n        /* \"#utility.yul\":5799:5869   */\n      tag_237\n        /* \"#utility.yul\":5862:5868   */\n      dup4\n        /* \"#utility.yul\":5799:5869   */\n      tag_238\n      jump\t// in\n    tag_237:\n        /* \"#utility.yul\":5789:5869   */\n      swap3\n      pop\n        /* \"#utility.yul\":5898:5902   */\n      0x20\n        /* \"#utility.yul\":5893:5896   */\n      dup11\n        /* \"#utility.yul\":5889:5903   */\n      add\n        /* \"#utility.yul\":5882:5903   */\n      swap10\n      pop\n        /* \"#utility.yul\":5577:5913   */\n      pop\n        /* \"#utility.yul\":5564:5565   */\n      0x01\n        /* \"#utility.yul\":5561:5562   */\n      dup2\n        /* \"#utility.yul\":5557:5566   */\n      add\n        /* \"#utility.yul\":5552:5566   */\n      swap1\n      pop\n        /* \"#utility.yul\":5517:5913   */\n      jump(tag_233)\n    tag_235:\n        /* \"#utility.yul\":5521:5535   */\n      pop\n        /* \"#utility.yul\":5929:5933   */\n      dup3\n        /* \"#utility.yul\":5922:5933   */\n      swap8\n      pop\n        /* \"#utility.yul\":5949:5952   */\n      dup8\n        /* \"#utility.yul\":5942:5952   */\n      swap6\n      pop\n        /* \"#utility.yul\":5111:5958   */\n      pop\n      pop\n      pop\n      pop\n      pop\n        /* \"#utility.yul\":4967:5958   */\n      swap3\n      swap2\n      pop\n      pop\n      jump\t// out\n        /* \"#utility.yul\":6014:7085   */\n    tag_239:\n        /* \"#utility.yul\":6173:6176   */\n      0x00\n        /* \"#utility.yul\":6202:6276   */\n      tag_241\n        /* \"#utility.yul\":6270:6275   */\n      dup3\n        /* \"#utility.yul\":6202:6276   */\n      tag_242\n      jump\t// in\n    tag_241:\n        /* \"#utility.yul\":6292:6398   */\n      tag_243\n        /* \"#utility.yul\":6391:6397   */\n      dup2\n        /* \"#utility.yul\":6386:6389   */\n      dup6\n        /* \"#utility.yul\":6292:6398   */\n      tag_244\n      jump\t// in\n    tag_243:\n        /* \"#utility.yul\":6285:6398   */\n      swap4\n      pop\n        /* \"#utility.yul\":6424:6427   */\n      dup4\n        /* \"#utility.yul\":6469:6473   */\n      0x20\n        /* \"#utility.yul\":6461:6467   */\n      dup3\n        /* \"#utility.yul\":6457:6474   */\n      mul\n        /* \"#utility.yul\":6452:6455   */\n      dup6\n        /* \"#utility.yul\":6448:6475   */\n      add\n        /* \"#utility.yul\":6499:6575   */\n      tag_245\n        /* \"#utility.yul\":6569:6574   */\n      dup6\n        /* \"#utility.yul\":6499:6575   */\n      tag_246\n      jump\t// in\n    tag_245:\n        /* \"#utility.yul\":6598:6605   */\n      dup1\n        /* \"#utility.yul\":6629:6630   */\n      0x00\n        /* \"#utility.yul\":6614:7040   */\n    tag_247:\n        /* \"#utility.yul\":6639:6645   */\n      dup6\n        /* \"#utility.yul\":6636:6637   */\n      dup2\n        /* \"#utility.yul\":6633:6646   */\n      lt\n        /* \"#utility.yul\":6614:7040   */\n      iszero\n      tag_249\n      jumpi\n        /* \"#utility.yul\":6710:6719   */\n      dup5\n        /* \"#utility.yul\":6704:6708   */\n      dup5\n        /* \"#utility.yul\":6700:6720   */\n      sub\n        /* \"#utility.yul\":6695:6698   */\n      dup10\n        /* \"#utility.yul\":6688:6721   */\n      mstore\n        /* \"#utility.yul\":6761:6767   */\n      dup2\n        /* \"#utility.yul\":6755:6768   */\n      mload\n        /* \"#utility.yul\":6789:6893   */\n      tag_250\n        /* \"#utility.yul\":6888:6892   */\n      dup6\n        /* \"#utility.yul\":6873:6886   */\n      dup3\n        /* \"#utility.yul\":6789:6893   */\n      tag_187\n      jump\t// in\n    tag_250:\n        /* \"#utility.yul\":6781:6893   */\n      swap5\n      pop\n        /* \"#utility.yul\":6916:6996   */\n      tag_251\n        /* \"#utility.yul\":6989:6995   */\n      dup4\n        /* \"#utility.yul\":6916:6996   */\n      tag_252\n      jump\t// in\n    tag_251:\n        /* \"#utility.yul\":6906:6996   */\n      swap3\n      pop\n        /* \"#utility.yul\":7025:7029   */\n      0x20\n        /* \"#utility.yul\":7020:7023   */\n      dup11\n        /* \"#utility.yul\":7016:7030   */\n      add\n        /* \"#utility.yul\":7009:7030   */\n      swap10\n      pop\n        /* \"#utility.yul\":6674:7040   */\n      pop\n        /* \"#utility.yul\":6661:6662   */\n      0x01\n        /* \"#utility.yul\":6658:6659   */\n      dup2\n        /* \"#utility.yul\":6654:6663   */\n      add\n        /* \"#utility.yul\":6649:6663   */\n      swap1\n      pop\n        /* \"#utility.yul\":6614:7040   */\n      jump(tag_247)\n    tag_249:\n        /* \"#utility.yul\":6618:6632   */\n      pop\n        /* \"#utility.yul\":7056:7060   */\n      dup3\n        /* \"#utility.yul\":7049:7060   */\n      swap8\n      pop\n        /* \"#utility.yul\":7076:7079   */\n      dup8\n        /* \"#utility.yul\":7069:7079   */\n      swap6\n      pop\n        /* \"#utility.yul\":6178:7085   */\n      pop\n      pop\n      pop\n      pop\n      pop\n        /* \"#utility.yul\":6014:7085   */\n      swap3\n      swap2\n      pop\n      pop\n      jump\t// out\n        /* \"#utility.yul\":7091:7190   */\n    tag_182:\n        /* \"#utility.yul\":7162:7183   */\n      tag_254\n        /* \"#utility.yul\":7177:7182   */\n      dup2\n        /* \"#utility.yul\":7162:7183   */\n      tag_255\n      jump\t// in\n    tag_254:\n        /* \"#utility.yul\":7157:7160   */\n      dup3\n        /* \"#utility.yul\":7150:7184   */\n      mstore\n        /* \"#utility.yul\":7091:7190   */\n      pop\n      pop\n      jump\t// out\n        /* \"#utility.yul\":7196:7305   */\n    tag_256:\n        /* \"#utility.yul\":7277:7298   */\n      tag_258\n        /* \"#utility.yul\":7292:7297   */\n      dup2\n        /* \"#utility.yul\":7277:7298   */\n      tag_255\n      jump\t// in\n    tag_258:\n        /* \"#utility.yul\":7272:7275   */\n      dup3\n        /* \"#utility.yul\":7265:7299   */\n      mstore\n        /* \"#utility.yul\":7196:7305   */\n      pop\n      pop\n      jump\t// out\n        /* \"#utility.yul\":7311:7655   */\n    tag_186:\n        /* \"#utility.yul\":7389:7392   */\n      0x00\n        /* \"#utility.yul\":7417:7456   */\n      tag_260\n        /* \"#utility.yul\":7450:7455   */\n      dup3\n        /* \"#utility.yul\":7417:7456   */\n      tag_261\n      jump\t// in\n    tag_260:\n        /* \"#utility.yul\":7472:7533   */\n      tag_262\n        /* \"#utility.yul\":7526:7532   */\n      dup2\n        /* \"#utility.yul\":7521:7524   */\n      dup6\n        /* \"#utility.yul\":7472:7533   */\n      tag_263\n      jump\t// in\n    tag_262:\n        /* \"#utility.yul\":7465:7533   */\n      swap4\n      pop\n        /* \"#utility.yul\":7542:7594   */\n      tag_264\n        /* \"#utility.yul\":7587:7593   */\n      dup2\n        /* \"#utility.yul\":7582:7585   */\n      dup6\n        /* \"#utility.yul\":7575:7579   */\n      0x20\n        /* \"#utility.yul\":7568:7573   */\n      dup7\n        /* \"#utility.yul\":7564:7580   */\n      add\n        /* \"#utility.yul\":7542:7594   */\n      tag_265\n      jump\t// in\n    tag_264:\n        /* \"#utility.yul\":7619:7648   */\n      tag_266\n        /* \"#utility.yul\":7641:7647   */\n      dup2\n        /* \"#utility.yul\":7619:7648   */\n      tag_267\n      jump\t// in\n    tag_266:\n        /* \"#utility.yul\":7614:7617   */\n      dup5\n        /* \"#utility.yul\":7610:7649   */\n      add\n        /* \"#utility.yul\":7603:7649   */\n      swap2\n      pop\n        /* \"#utility.yul\":7393:7655   */\n      pop\n        /* \"#utility.yul\":7311:7655   */\n      swap3\n      swap2\n      pop\n      pop\n      jump\t// out\n        /* \"#utility.yul\":7661:8025   */\n    tag_268:\n        /* \"#utility.yul\":7749:7752   */\n      0x00\n        /* \"#utility.yul\":7777:7816   */\n      tag_270\n        /* \"#utility.yul\":7810:7815   */\n      dup3\n        /* \"#utility.yul\":7777:7816   */\n      tag_261\n      jump\t// in\n    tag_270:\n        /* \"#utility.yul\":7832:7903   */\n      tag_271\n        /* \"#utility.yul\":7896:7902   */\n      dup2\n        /* \"#utility.yul\":7891:7894   */\n      dup6\n        /* \"#utility.yul\":7832:7903   */\n      tag_272\n      jump\t// in\n    tag_271:\n        /* \"#utility.yul\":7825:7903   */\n      swap4\n      pop\n        /* \"#utility.yul\":7912:7964   */\n      tag_273\n        /* \"#utility.yul\":7957:7963   */\n      dup2\n        /* \"#utility.yul\":7952:7955   */\n      dup6\n        /* \"#utility.yul\":7945:7949   */\n      0x20\n        /* \"#utility.yul\":7938:7943   */\n      dup7\n        /* \"#utility.yul\":7934:7950   */\n      add\n        /* \"#utility.yul\":7912:7964   */\n      tag_265\n      jump\t// in\n    tag_273:\n        /* \"#utility.yul\":7989:8018   */\n      tag_274\n        /* \"#utility.yul\":8011:8017   */\n      dup2\n        /* \"#utility.yul\":7989:8018   */\n      tag_267\n      jump\t// in\n    tag_274:\n        /* \"#utility.yul\":7984:7987   */\n      dup5\n        /* \"#utility.yul\":7980:8019   */\n      add\n        /* \"#utility.yul\":7973:8019   */\n      swap2\n      pop\n        /* \"#utility.yul\":7753:8025   */\n      pop\n        /* \"#utility.yul\":7661:8025   */\n      swap3\n      swap2\n      pop\n      pop\n      jump\t// out\n        /* \"#utility.yul\":8031:8408   */\n    tag_275:\n        /* \"#utility.yul\":8137:8140   */\n      0x00\n        /* \"#utility.yul\":8165:8204   */\n      tag_277\n        /* \"#utility.yul\":8198:8203   */\n      dup3\n        /* \"#utility.yul\":8165:8204   */\n      tag_261\n      jump\t// in\n    tag_277:\n        /* \"#utility.yul\":8220:8309   */\n      tag_278\n        /* \"#utility.yul\":8302:8308   */\n      dup2\n        /* \"#utility.yul\":8297:8300   */\n      dup6\n        /* \"#utility.yul\":8220:8309   */\n      tag_279\n      jump\t// in\n    tag_278:\n        /* \"#utility.yul\":8213:8309   */\n      swap4\n      pop\n        /* \"#utility.yul\":8318:8370   */\n      tag_280\n        /* \"#utility.yul\":8363:8369   */\n      dup2\n        /* \"#utility.yul\":8358:8361   */\n      dup6\n        /* \"#utility.yul\":8351:8355   */\n      0x20\n        /* \"#utility.yul\":8344:8349   */\n      dup7\n        /* \"#utility.yul\":8340:8356   */\n      add\n        /* \"#utility.yul\":8318:8370   */\n      tag_265\n      jump\t// in\n    tag_280:\n        /* \"#utility.yul\":8395:8401   */\n      dup1\n        /* \"#utility.yul\":8390:8393   */\n      dup5\n        /* \"#utility.yul\":8386:8402   */\n      add\n        /* \"#utility.yul\":8379:8402   */\n      swap2\n      pop\n        /* \"#utility.yul\":8141:8408   */\n      pop\n        /* \"#utility.yul\":8031:8408   */\n      swap3\n      swap2\n      pop\n      pop\n      jump\t// out\n        /* \"#utility.yul\":8460:9403   */\n    tag_190:\n        /* \"#utility.yul\":8559:8562   */\n      0x00\n        /* \"#utility.yul\":8595:8599   */\n      0x80\n        /* \"#utility.yul\":8590:8593   */\n      dup4\n        /* \"#utility.yul\":8586:8600   */\n      add\n        /* \"#utility.yul\":8684:8688   */\n      0x00\n        /* \"#utility.yul\":8677:8682   */\n      dup4\n        /* \"#utility.yul\":8673:8689   */\n      add\n        /* \"#utility.yul\":8667:8690   */\n      mload\n        /* \"#utility.yul\":8703:8766   */\n      tag_282\n        /* \"#utility.yul\":8760:8764   */\n      0x00\n        /* \"#utility.yul\":8755:8758   */\n      dup7\n        /* \"#utility.yul\":8751:8765   */\n      add\n        /* \"#utility.yul\":8737:8749   */\n      dup3\n        /* \"#utility.yul\":8703:8766   */\n      tag_283\n      jump\t// in\n    tag_282:\n        /* \"#utility.yul\":8610:8776   */\n      pop\n        /* \"#utility.yul\":8859:8863   */\n      0x20\n        /* \"#utility.yul\":8852:8857   */\n      dup4\n        /* \"#utility.yul\":8848:8864   */\n      add\n        /* \"#utility.yul\":8842:8865   */\n      mload\n        /* \"#utility.yul\":8912:8915   */\n      dup5\n        /* \"#utility.yul\":8906:8910   */\n      dup3\n        /* \"#utility.yul\":8902:8916   */\n      sub\n        /* \"#utility.yul\":8895:8899   */\n      0x20\n        /* \"#utility.yul\":8890:8893   */\n      dup7\n        /* \"#utility.yul\":8886:8900   */\n      add\n        /* \"#utility.yul\":8879:8917   */\n      mstore\n        /* \"#utility.yul\":8938:9011   */\n      tag_284\n        /* \"#utility.yul\":9006:9010   */\n      dup3\n        /* \"#utility.yul\":8992:9004   */\n      dup3\n        /* \"#utility.yul\":8938:9011   */\n      tag_186\n      jump\t// in\n    tag_284:\n        /* \"#utility.yul\":8930:9011   */\n      swap2\n      pop\n        /* \"#utility.yul\":8786:9022   */\n      pop\n        /* \"#utility.yul\":9112:9116   */\n      0x40\n        /* \"#utility.yul\":9105:9110   */\n      dup4\n        /* \"#utility.yul\":9101:9117   */\n      add\n        /* \"#utility.yul\":9095:9118   */\n      mload\n        /* \"#utility.yul\":9131:9194   */\n      tag_285\n        /* \"#utility.yul\":9188:9192   */\n      0x40\n        /* \"#utility.yul\":9183:9186   */\n      dup7\n        /* \"#utility.yul\":9179:9193   */\n      add\n        /* \"#utility.yul\":9165:9177   */\n      dup3\n        /* \"#utility.yul\":9131:9194   */\n      tag_178\n      jump\t// in\n    tag_285:\n        /* \"#utility.yul\":9032:9204   */\n      pop\n        /* \"#utility.yul\":9290:9294   */\n      0x60\n        /* \"#utility.yul\":9283:9288   */\n      dup4\n        /* \"#utility.yul\":9279:9295   */\n      add\n        /* \"#utility.yul\":9273:9296   */\n      mload\n        /* \"#utility.yul\":9309:9366   */\n      tag_286\n        /* \"#utility.yul\":9360:9364   */\n      0x60\n        /* \"#utility.yul\":9355:9358   */\n      dup7\n        /* \"#utility.yul\":9351:9365   */\n      add\n        /* \"#utility.yul\":9337:9349   */\n      dup3\n        /* \"#utility.yul\":9309:9366   */\n      tag_182\n      jump\t// in\n    tag_286:\n        /* \"#utility.yul\":9214:9376   */\n      pop\n        /* \"#utility.yul\":9393:9397   */\n      dup1\n        /* \"#utility.yul\":9386:9397   */\n      swap2\n      pop\n        /* \"#utility.yul\":8564:9403   */\n      pop\n        /* \"#utility.yul\":8460:9403   */\n      swap3\n      swap2\n      pop\n      pop\n      jump\t// out\n        /* \"#utility.yul\":9455:10408   */\n    tag_287:\n        /* \"#utility.yul\":9564:9567   */\n      0x00\n        /* \"#utility.yul\":9600:9604   */\n      0x80\n        /* \"#utility.yul\":9595:9598   */\n      dup4\n        /* \"#utility.yul\":9591:9605   */\n      add\n        /* \"#utility.yul\":9689:9693   */\n      0x00\n        /* \"#utility.yul\":9682:9687   */\n      dup4\n        /* \"#utility.yul\":9678:9694   */\n      add\n        /* \"#utility.yul\":9672:9695   */\n      mload\n        /* \"#utility.yul\":9708:9771   */\n      tag_289\n        /* \"#utility.yul\":9765:9769   */\n      0x00\n        /* \"#utility.yul\":9760:9763   */\n      dup7\n        /* \"#utility.yul\":9756:9770   */\n      add\n        /* \"#utility.yul\":9742:9754   */\n      dup3\n        /* \"#utility.yul\":9708:9771   */\n      tag_283\n      jump\t// in\n    tag_289:\n        /* \"#utility.yul\":9615:9781   */\n      pop\n        /* \"#utility.yul\":9864:9868   */\n      0x20\n        /* \"#utility.yul\":9857:9862   */\n      dup4\n        /* \"#utility.yul\":9853:9869   */\n      add\n        /* \"#utility.yul\":9847:9870   */\n      mload\n        /* \"#utility.yul\":9917:9920   */\n      dup5\n        /* \"#utility.yul\":9911:9915   */\n      dup3\n        /* \"#utility.yul\":9907:9921   */\n      sub\n        /* \"#utility.yul\":9900:9904   */\n      0x20\n        /* \"#utility.yul\":9895:9898   */\n      dup7\n        /* \"#utility.yul\":9891:9905   */\n      add\n        /* \"#utility.yul\":9884:9922   */\n      mstore\n        /* \"#utility.yul\":9943:10016   */\n      tag_290\n        /* \"#utility.yul\":10011:10015   */\n      dup3\n        /* \"#utility.yul\":9997:10009   */\n      dup3\n        /* \"#utility.yul\":9943:10016   */\n      tag_186\n      jump\t// in\n    tag_290:\n        /* \"#utility.yul\":9935:10016   */\n      swap2\n      pop\n        /* \"#utility.yul\":9791:10027   */\n      pop\n        /* \"#utility.yul\":10117:10121   */\n      0x40\n        /* \"#utility.yul\":10110:10115   */\n      dup4\n        /* \"#utility.yul\":10106:10122   */\n      add\n        /* \"#utility.yul\":10100:10123   */\n      mload\n        /* \"#utility.yul\":10136:10199   */\n      tag_291\n        /* \"#utility.yul\":10193:10197   */\n      0x40\n        /* \"#utility.yul\":10188:10191   */\n      dup7\n        /* \"#utility.yul\":10184:10198   */\n      add\n        /* \"#utility.yul\":10170:10182   */\n      dup3\n        /* \"#utility.yul\":10136:10199   */\n      tag_178\n      jump\t// in\n    tag_291:\n        /* \"#utility.yul\":10037:10209   */\n      pop\n        /* \"#utility.yul\":10295:10299   */\n      0x60\n        /* \"#utility.yul\":10288:10293   */\n      dup4\n        /* \"#utility.yul\":10284:10300   */\n      add\n        /* \"#utility.yul\":10278:10301   */\n      mload\n        /* \"#utility.yul\":10314:10371   */\n      tag_292\n        /* \"#utility.yul\":10365:10369   */\n      0x60\n        /* \"#utility.yul\":10360:10363   */\n      dup7\n        /* \"#utility.yul\":10356:10370   */\n      add\n        /* \"#utility.yul\":10342:10354   */\n      dup3\n        /* \"#utility.yul\":10314:10371   */\n      tag_182\n      jump\t// in\n    tag_292:\n        /* \"#utility.yul\":10219:10381   */\n      pop\n        /* \"#utility.yul\":10398:10402   */\n      dup1\n        /* \"#utility.yul\":10391:10402   */\n      swap2\n      pop\n        /* \"#utility.yul\":9569:10408   */\n      pop\n        /* \"#utility.yul\":9455:10408   */\n      swap3\n      swap2\n      pop\n      pop\n      jump\t// out\n        /* \"#utility.yul\":10414:10522   */\n    tag_283:\n        /* \"#utility.yul\":10491:10515   */\n      tag_294\n        /* \"#utility.yul\":10509:10514   */\n      dup2\n        /* \"#utility.yul\":10491:10515   */\n      tag_295\n      jump\t// in\n    tag_294:\n        /* \"#utility.yul\":10486:10489   */\n      dup3\n        /* \"#utility.yul\":10479:10516   */\n      mstore\n        /* \"#utility.yul\":10414:10522   */\n      pop\n      pop\n      jump\t// out\n        /* \"#utility.yul\":10528:10646   */\n    tag_296:\n        /* \"#utility.yul\":10615:10639   */\n      tag_298\n        /* \"#utility.yul\":10633:10638   */\n      dup2\n        /* \"#utility.yul\":10615:10639   */\n      tag_295\n      jump\t// in\n    tag_298:\n        /* \"#utility.yul\":10610:10613   */\n      dup3\n        /* \"#utility.yul\":10603:10640   */\n      mstore\n        /* \"#utility.yul\":10528:10646   */\n      pop\n      pop\n      jump\t// out\n        /* \"#utility.yul\":10652:10927   */\n    tag_49:\n        /* \"#utility.yul\":10784:10787   */\n      0x00\n        /* \"#utility.yul\":10806:10901   */\n      tag_300\n        /* \"#utility.yul\":10897:10900   */\n      dup3\n        /* \"#utility.yul\":10888:10894   */\n      dup5\n        /* \"#utility.yul\":10806:10901   */\n      tag_275\n      jump\t// in\n    tag_300:\n        /* \"#utility.yul\":10799:10901   */\n      swap2\n      pop\n        /* \"#utility.yul\":10918:10921   */\n      dup2\n        /* \"#utility.yul\":10911:10921   */\n      swap1\n      pop\n        /* \"#utility.yul\":10652:10927   */\n      swap3\n      swap2\n      pop\n      pop\n      jump\t// out\n        /* \"#utility.yul\":10933:11856   */\n    tag_41:\n        /* \"#utility.yul\":11246:11250   */\n      0x00\n        /* \"#utility.yul\":11284:11286   */\n      0x60\n        /* \"#utility.yul\":11273:11282   */\n      dup3\n        /* \"#utility.yul\":11269:11287   */\n      add\n        /* \"#utility.yul\":11261:11287   */\n      swap1\n      pop\n        /* \"#utility.yul\":11333:11342   */\n      dup2\n        /* \"#utility.yul\":11327:11331   */\n      dup2\n        /* \"#utility.yul\":11323:11343   */\n      sub\n        /* \"#utility.yul\":11319:11320   */\n      0x00\n        /* \"#utility.yul\":11308:11317   */\n      dup4\n        /* \"#utility.yul\":11304:11321   */\n      add\n        /* \"#utility.yul\":11297:11344   */\n      mstore\n        /* \"#utility.yul\":11361:11489   */\n      tag_302\n        /* \"#utility.yul\":11484:11488   */\n      dup2\n        /* \"#utility.yul\":11475:11481   */\n      dup7\n        /* \"#utility.yul\":11361:11489   */\n      tag_225\n      jump\t// in\n    tag_302:\n        /* \"#utility.yul\":11353:11489   */\n      swap1\n      pop\n        /* \"#utility.yul\":11536:11545   */\n      dup2\n        /* \"#utility.yul\":11530:11534   */\n      dup2\n        /* \"#utility.yul\":11526:11546   */\n      sub\n        /* \"#utility.yul\":11521:11523   */\n      0x20\n        /* \"#utility.yul\":11510:11519   */\n      dup4\n        /* \"#utility.yul\":11506:11524   */\n      add\n        /* \"#utility.yul\":11499:11547   */\n      mstore\n        /* \"#utility.yul\":11564:11672   */\n      tag_303\n        /* \"#utility.yul\":11667:11671   */\n      dup2\n        /* \"#utility.yul\":11658:11664   */\n      dup6\n        /* \"#utility.yul\":11564:11672   */\n      tag_197\n      jump\t// in\n    tag_303:\n        /* \"#utility.yul\":11556:11672   */\n      swap1\n      pop\n        /* \"#utility.yul\":11719:11728   */\n      dup2\n        /* \"#utility.yul\":11713:11717   */\n      dup2\n        /* \"#utility.yul\":11709:11729   */\n      sub\n        /* \"#utility.yul\":11704:11706   */\n      0x40\n        /* \"#utility.yul\":11693:11702   */\n      dup4\n        /* \"#utility.yul\":11689:11707   */\n      add\n        /* \"#utility.yul\":11682:11730   */\n      mstore\n        /* \"#utility.yul\":11747:11849   */\n      tag_304\n        /* \"#utility.yul\":11844:11848   */\n      dup2\n        /* \"#utility.yul\":11835:11841   */\n      dup5\n        /* \"#utility.yul\":11747:11849   */\n      tag_211\n      jump\t// in\n    tag_304:\n        /* \"#utility.yul\":11739:11849   */\n      swap1\n      pop\n        /* \"#utility.yul\":10933:11856   */\n      swap5\n      swap4\n      pop\n      pop\n      pop\n      pop\n      jump\t// out\n        /* \"#utility.yul\":11862:12315   */\n    tag_19:\n        /* \"#utility.yul\":12045:12049   */\n      0x00\n        /* \"#utility.yul\":12083:12085   */\n      0x20\n        /* \"#utility.yul\":12072:12081   */\n      dup3\n        /* \"#utility.yul\":12068:12086   */\n      add\n        /* \"#utility.yul\":12060:12086   */\n      swap1\n      pop\n        /* \"#utility.yul\":12132:12141   */\n      dup2\n        /* \"#utility.yul\":12126:12130   */\n      dup2\n        /* \"#utility.yul\":12122:12142   */\n      sub\n        /* \"#utility.yul\":12118:12119   */\n      0x00\n        /* \"#utility.yul\":12107:12116   */\n      dup4\n        /* \"#utility.yul\":12103:12120   */\n      add\n        /* \"#utility.yul\":12096:12143   */\n      mstore\n        /* \"#utility.yul\":12160:12308   */\n      tag_306\n        /* \"#utility.yul\":12303:12307   */\n      dup2\n        /* \"#utility.yul\":12294:12300   */\n      dup5\n        /* \"#utility.yul\":12160:12308   */\n      tag_239\n      jump\t// in\n    tag_306:\n        /* \"#utility.yul\":12152:12308   */\n      swap1\n      pop\n        /* \"#utility.yul\":11862:12315   */\n      swap3\n      swap2\n      pop\n      pop\n      jump\t// out\n        /* \"#utility.yul\":12321:12674   */\n    tag_24:\n        /* \"#utility.yul\":12454:12458   */\n      0x00\n        /* \"#utility.yul\":12492:12494   */\n      0x20\n        /* \"#utility.yul\":12481:12490   */\n      dup3\n        /* \"#utility.yul\":12477:12495   */\n      add\n        /* \"#utility.yul\":12469:12495   */\n      swap1\n      pop\n        /* \"#utility.yul\":12541:12550   */\n      dup2\n        /* \"#utility.yul\":12535:12539   */\n      dup2\n        /* \"#utility.yul\":12531:12551   */\n      sub\n        /* \"#utility.yul\":12527:12528   */\n      0x00\n        /* \"#utility.yul\":12516:12525   */\n      dup4\n        /* \"#utility.yul\":12512:12529   */\n      add\n        /* \"#utility.yul\":12505:12552   */\n      mstore\n        /* \"#utility.yul\":12569:12667   */\n      tag_308\n        /* \"#utility.yul\":12662:12666   */\n      dup2\n        /* \"#utility.yul\":12653:12659   */\n      dup5\n        /* \"#utility.yul\":12569:12667   */\n      tag_287\n      jump\t// in\n    tag_308:\n        /* \"#utility.yul\":12561:12667   */\n      swap1\n      pop\n        /* \"#utility.yul\":12321:12674   */\n      swap3\n      swap2\n      pop\n      pop\n      jump\t// out\n        /* \"#utility.yul\":12680:12902   */\n    tag_28:\n        /* \"#utility.yul\":12773:12777   */\n      0x00\n        /* \"#utility.yul\":12811:12813   */\n      0x20\n        /* \"#utility.yul\":12800:12809   */\n      dup3\n        /* \"#utility.yul\":12796:12814   */\n      add\n        /* \"#utility.yul\":12788:12814   */\n      swap1\n      pop\n        /* \"#utility.yul\":12824:12895   */\n      tag_310\n        /* \"#utility.yul\":12892:12893   */\n      0x00\n        /* \"#utility.yul\":12881:12890   */\n      dup4\n        /* \"#utility.yul\":12877:12894   */\n      add\n        /* \"#utility.yul\":12868:12874   */\n      dup5\n        /* \"#utility.yul\":12824:12895   */\n      tag_296\n      jump\t// in\n    tag_310:\n        /* \"#utility.yul\":12680:12902   */\n      swap3\n      swap2\n      pop\n      pop\n      jump\t// out\n        /* \"#utility.yul\":12908:13540   */\n    tag_33:\n        /* \"#utility.yul\":13099:13103   */\n      0x00\n        /* \"#utility.yul\":13137:13140   */\n      0x80\n        /* \"#utility.yul\":13126:13135   */\n      dup3\n        /* \"#utility.yul\":13122:13141   */\n      add\n        /* \"#utility.yul\":13114:13141   */\n      swap1\n      pop\n        /* \"#utility.yul\":13151:13222   */\n      tag_312\n        /* \"#utility.yul\":13219:13220   */\n      0x00\n        /* \"#utility.yul\":13208:13217   */\n      dup4\n        /* \"#utility.yul\":13204:13221   */\n      add\n        /* \"#utility.yul\":13195:13201   */\n      dup8\n        /* \"#utility.yul\":13151:13222   */\n      tag_296\n      jump\t// in\n    tag_312:\n        /* \"#utility.yul\":13269:13278   */\n      dup2\n        /* \"#utility.yul\":13263:13267   */\n      dup2\n        /* \"#utility.yul\":13259:13279   */\n      sub\n        /* \"#utility.yul\":13254:13256   */\n      0x20\n        /* \"#utility.yul\":13243:13252   */\n      dup4\n        /* \"#utility.yul\":13239:13257   */\n      add\n        /* \"#utility.yul\":13232:13280   */\n      mstore\n        /* \"#utility.yul\":13297:13375   */\n      tag_313\n        /* \"#utility.yul\":13370:13374   */\n      dup2\n        /* \"#utility.yul\":13361:13367   */\n      dup7\n        /* \"#utility.yul\":13297:13375   */\n      tag_268\n      jump\t// in\n    tag_313:\n        /* \"#utility.yul\":13289:13375   */\n      swap1\n      pop\n        /* \"#utility.yul\":13385:13457   */\n      tag_314\n        /* \"#utility.yul\":13453:13455   */\n      0x40\n        /* \"#utility.yul\":13442:13451   */\n      dup4\n        /* \"#utility.yul\":13438:13456   */\n      add\n        /* \"#utility.yul\":13429:13435   */\n      dup6\n        /* \"#utility.yul\":13385:13457   */\n      tag_194\n      jump\t// in\n    tag_314:\n        /* \"#utility.yul\":13467:13533   */\n      tag_315\n        /* \"#utility.yul\":13529:13531   */\n      0x60\n        /* \"#utility.yul\":13518:13527   */\n      dup4\n        /* \"#utility.yul\":13514:13532   */\n      add\n        /* \"#utility.yul\":13505:13511   */\n      dup5\n        /* \"#utility.yul\":13467:13533   */\n      tag_256\n      jump\t// in\n    tag_315:\n        /* \"#utility.yul\":12908:13540   */\n      swap6\n      swap5\n      pop\n      pop\n      pop\n      pop\n      pop\n      jump\t// out\n        /* \"#utility.yul\":13546:13675   */\n    tag_138:\n        /* \"#utility.yul\":13580:13586   */\n      0x00\n        /* \"#utility.yul\":13607:13627   */\n      tag_317\n      tag_318\n      jump\t// in\n    tag_317:\n        /* \"#utility.yul\":13597:13627   */\n      swap1\n      pop\n        /* \"#utility.yul\":13636:13669   */\n      tag_319\n        /* \"#utility.yul\":13664:13668   */\n      dup3\n        /* \"#utility.yul\":13656:13662   */\n      dup3\n        /* \"#utility.yul\":13636:13669   */\n      tag_320\n      jump\t// in\n    tag_319:\n        /* \"#utility.yul\":13546:13675   */\n      swap2\n      swap1\n      pop\n      jump\t// out\n        /* \"#utility.yul\":13681:13756   */\n    tag_318:\n        /* \"#utility.yul\":13714:13720   */\n      0x00\n        /* \"#utility.yul\":13747:13749   */\n      0x40\n        /* \"#utility.yul\":13741:13750   */\n      mload\n        /* \"#utility.yul\":13731:13750   */\n      swap1\n      pop\n        /* \"#utility.yul\":13681:13756   */\n      swap1\n      jump\t// out\n        /* \"#utility.yul\":13762:14070   */\n    tag_137:\n        /* \"#utility.yul\":13824:13828   */\n      0x00\n        /* \"#utility.yul\":13914:13932   */\n      0xffffffffffffffff\n        /* \"#utility.yul\":13906:13912   */\n      dup3\n        /* \"#utility.yul\":13903:13933   */\n      gt\n        /* \"#utility.yul\":13900:13956   */\n      iszero\n      tag_323\n      jumpi\n        /* \"#utility.yul\":13936:13954   */\n      tag_324\n      tag_57\n      jump\t// in\n    tag_324:\n        /* \"#utility.yul\":13900:13956   */\n    tag_323:\n        /* \"#utility.yul\":13974:14003   */\n      tag_325\n        /* \"#utility.yul\":13996:14002   */\n      dup3\n        /* \"#utility.yul\":13974:14003   */\n      tag_267\n      jump\t// in\n    tag_325:\n        /* \"#utility.yul\":13966:14003   */\n      swap1\n      pop\n        /* \"#utility.yul\":14058:14062   */\n      0x20\n        /* \"#utility.yul\":14052:14056   */\n      dup2\n        /* \"#utility.yul\":14048:14063   */\n      add\n        /* \"#utility.yul\":14040:14063   */\n      swap1\n      pop\n        /* \"#utility.yul\":13762:14070   */\n      swap2\n      swap1\n      pop\n      jump\t// out\n        /* \"#utility.yul\":14076:14208   */\n    tag_204:\n        /* \"#utility.yul\":14143:14147   */\n      0x00\n        /* \"#utility.yul\":14166:14169   */\n      dup2\n        /* \"#utility.yul\":14158:14169   */\n      swap1\n      pop\n        /* \"#utility.yul\":14196:14200   */\n      0x20\n        /* \"#utility.yul\":14191:14194   */\n      dup3\n        /* \"#utility.yul\":14187:14201   */\n      add\n        /* \"#utility.yul\":14179:14201   */\n      swap1\n      pop\n        /* \"#utility.yul\":14076:14208   */\n      swap2\n      swap1\n      pop\n      jump\t// out\n        /* \"#utility.yul\":14214:14343   */\n    tag_218:\n        /* \"#utility.yul\":14278:14282   */\n      0x00\n        /* \"#utility.yul\":14301:14304   */\n      dup2\n        /* \"#utility.yul\":14293:14304   */\n      swap1\n      pop\n        /* \"#utility.yul\":14331:14335   */\n      0x20\n        /* \"#utility.yul\":14326:14329   */\n      dup3\n        /* \"#utility.yul\":14322:14336   */\n      add\n        /* \"#utility.yul\":14314:14336   */\n      swap1\n      pop\n        /* \"#utility.yul\":14214:14343   */\n      swap2\n      swap1\n      pop\n      jump\t// out\n        /* \"#utility.yul\":14349:14491   */\n    tag_232:\n        /* \"#utility.yul\":14426:14430   */\n      0x00\n        /* \"#utility.yul\":14449:14452   */\n      dup2\n        /* \"#utility.yul\":14441:14452   */\n      swap1\n      pop\n        /* \"#utility.yul\":14479:14483   */\n      0x20\n        /* \"#utility.yul\":14474:14477   */\n      dup3\n        /* \"#utility.yul\":14470:14484   */\n      add\n        /* \"#utility.yul\":14462:14484   */\n      swap1\n      pop\n        /* \"#utility.yul\":14349:14491   */\n      swap2\n      swap1\n      pop\n      jump\t// out\n        /* \"#utility.yul\":14497:14649   */\n    tag_246:\n        /* \"#utility.yul\":14584:14588   */\n      0x00\n        /* \"#utility.yul\":14607:14610   */\n      dup2\n        /* \"#utility.yul\":14599:14610   */\n      swap1\n      pop\n        /* \"#utility.yul\":14637:14641   */\n      0x20\n        /* \"#utility.yul\":14632:14635   */\n      dup3\n        /* \"#utility.yul\":14628:14642   */\n      add\n        /* \"#utility.yul\":14620:14642   */\n      swap1\n      pop\n        /* \"#utility.yul\":14497:14649   */\n      swap2\n      swap1\n      pop\n      jump\t// out\n        /* \"#utility.yul\":14655:14769   */\n    tag_200:\n        /* \"#utility.yul\":14722:14728   */\n      0x00\n        /* \"#utility.yul\":14756:14761   */\n      dup2\n        /* \"#utility.yul\":14750:14762   */\n      mload\n        /* \"#utility.yul\":14740:14762   */\n      swap1\n      pop\n        /* \"#utility.yul\":14655:14769   */\n      swap2\n      swap1\n      pop\n      jump\t// out\n        /* \"#utility.yul\":14775:14886   */\n    tag_214:\n        /* \"#utility.yul\":14839:14845   */\n      0x00\n        /* \"#utility.yul\":14873:14878   */\n      dup2\n        /* \"#utility.yul\":14867:14879   */\n      mload\n        /* \"#utility.yul\":14857:14879   */\n      swap1\n      pop\n        /* \"#utility.yul\":14775:14886   */\n      swap2\n      swap1\n      pop\n      jump\t// out\n        /* \"#utility.yul\":14892:15016   */\n    tag_228:\n        /* \"#utility.yul\":14969:14975   */\n      0x00\n        /* \"#utility.yul\":15003:15008   */\n      dup2\n        /* \"#utility.yul\":14997:15009   */\n      mload\n        /* \"#utility.yul\":14987:15009   */\n      swap1\n      pop\n        /* \"#utility.yul\":14892:15016   */\n      swap2\n      swap1\n      pop\n      jump\t// out\n        /* \"#utility.yul\":15022:15156   */\n    tag_242:\n        /* \"#utility.yul\":15109:15115   */\n      0x00\n        /* \"#utility.yul\":15143:15148   */\n      dup2\n        /* \"#utility.yul\":15137:15149   */\n      mload\n        /* \"#utility.yul\":15127:15149   */\n      swap1\n      pop\n        /* \"#utility.yul\":15022:15156   */\n      swap2\n      swap1\n      pop\n      jump\t// out\n        /* \"#utility.yul\":15162:15261   */\n    tag_261:\n        /* \"#utility.yul\":15214:15220   */\n      0x00\n        /* \"#utility.yul\":15248:15253   */\n      dup2\n        /* \"#utility.yul\":15242:15254   */\n      mload\n        /* \"#utility.yul\":15232:15254   */\n      swap1\n      pop\n        /* \"#utility.yul\":15162:15261   */\n      swap2\n      swap1\n      pop\n      jump\t// out\n        /* \"#utility.yul\":15267:15380   */\n    tag_210:\n        /* \"#utility.yul\":15337:15341   */\n      0x00\n        /* \"#utility.yul\":15369:15373   */\n      0x20\n        /* \"#utility.yul\":15364:15367   */\n      dup3\n        /* \"#utility.yul\":15360:15374   */\n      add\n        /* \"#utility.yul\":15352:15374   */\n      swap1\n      pop\n        /* \"#utility.yul\":15267:15380   */\n      swap2\n      swap1\n      pop\n      jump\t// out\n        /* \"#utility.yul\":15386:15496   */\n    tag_224:\n        /* \"#utility.yul\":15453:15457   */\n      0x00\n        /* \"#utility.yul\":15485:15489   */\n      0x20\n        /* \"#utility.yul\":15480:15483   */\n      dup3\n        /* \"#utility.yul\":15476:15490   */\n      add\n        /* \"#utility.yul\":15468:15490   */\n      swap1\n      pop\n        /* \"#utility.yul\":15386:15496   */\n      swap2\n      swap1\n      pop\n      jump\t// out\n        /* \"#utility.yul\":15502:15625   */\n    tag_238:\n        /* \"#utility.yul\":15582:15586   */\n      0x00\n        /* \"#utility.yul\":15614:15618   */\n      0x20\n        /* \"#utility.yul\":15609:15612   */\n      dup3\n        /* \"#utility.yul\":15605:15619   */\n      add\n        /* \"#utility.yul\":15597:15619   */\n      swap1\n      pop\n        /* \"#utility.yul\":15502:15625   */\n      swap2\n      swap1\n      pop\n      jump\t// out\n        /* \"#utility.yul\":15631:15764   */\n    tag_252:\n        /* \"#utility.yul\":15721:15725   */\n      0x00\n        /* \"#utility.yul\":15753:15757   */\n      0x20\n        /* \"#utility.yul\":15748:15751   */\n      dup3\n        /* \"#utility.yul\":15744:15758   */\n      add\n        /* \"#utility.yul\":15736:15758   */\n      swap1\n      pop\n        /* \"#utility.yul\":15631:15764   */\n      swap2\n      swap1\n      pop\n      jump\t// out\n        /* \"#utility.yul\":15770:15954   */\n    tag_202:\n        /* \"#utility.yul\":15869:15880   */\n      0x00\n        /* \"#utility.yul\":15903:15909   */\n      dup3\n        /* \"#utility.yul\":15898:15901   */\n      dup3\n        /* \"#utility.yul\":15891:15910   */\n      mstore\n        /* \"#utility.yul\":15943:15947   */\n      0x20\n        /* \"#utility.yul\":15938:15941   */\n      dup3\n        /* \"#utility.yul\":15934:15948   */\n      add\n        /* \"#utility.yul\":15919:15948   */\n      swap1\n      pop\n        /* \"#utility.yul\":15770:15954   */\n      swap3\n      swap2\n      pop\n      pop\n      jump\t// out\n        /* \"#utility.yul\":15960:16141   */\n    tag_216:\n        /* \"#utility.yul\":16056:16067   */\n      0x00\n        /* \"#utility.yul\":16090:16096   */\n      dup3\n        /* \"#utility.yul\":16085:16088   */\n      dup3\n        /* \"#utility.yul\":16078:16097   */\n      mstore\n        /* \"#utility.yul\":16130:16134   */\n      0x20\n        /* \"#utility.yul\":16125:16128   */\n      dup3\n        /* \"#utility.yul\":16121:16135   */\n      add\n        /* \"#utility.yul\":16106:16135   */\n      swap1\n      pop\n        /* \"#utility.yul\":15960:16141   */\n      swap3\n      swap2\n      pop\n      pop\n      jump\t// out\n        /* \"#utility.yul\":16147:16341   */\n    tag_230:\n        /* \"#utility.yul\":16256:16267   */\n      0x00\n        /* \"#utility.yul\":16290:16296   */\n      dup3\n        /* \"#utility.yul\":16285:16288   */\n      dup3\n        /* \"#utility.yul\":16278:16297   */\n      mstore\n        /* \"#utility.yul\":16330:16334   */\n      0x20\n        /* \"#utility.yul\":16325:16328   */\n      dup3\n        /* \"#utility.yul\":16321:16335   */\n      add\n        /* \"#utility.yul\":16306:16335   */\n      swap1\n      pop\n        /* \"#utility.yul\":16147:16341   */\n      swap3\n      swap2\n      pop\n      pop\n      jump\t// out\n        /* \"#utility.yul\":16347:16551   */\n    tag_244:\n        /* \"#utility.yul\":16466:16477   */\n      0x00\n        /* \"#utility.yul\":16500:16506   */\n      dup3\n        /* \"#utility.yul\":16495:16498   */\n      dup3\n        /* \"#utility.yul\":16488:16507   */\n      mstore\n        /* \"#utility.yul\":16540:16544   */\n      0x20\n        /* \"#utility.yul\":16535:16538   */\n      dup3\n        /* \"#utility.yul\":16531:16545   */\n      add\n        /* \"#utility.yul\":16516:16545   */\n      swap1\n      pop\n        /* \"#utility.yul\":16347:16551   */\n      swap3\n      swap2\n      pop\n      pop\n      jump\t// out\n        /* \"#utility.yul\":16557:16716   */\n    tag_263:\n        /* \"#utility.yul\":16631:16642   */\n      0x00\n        /* \"#utility.yul\":16665:16671   */\n      dup3\n        /* \"#utility.yul\":16660:16663   */\n      dup3\n        /* \"#utility.yul\":16653:16672   */\n      mstore\n        /* \"#utility.yul\":16705:16709   */\n      0x20\n        /* \"#utility.yul\":16700:16703   */\n      dup3\n        /* \"#utility.yul\":16696:16710   */\n      add\n        /* \"#utility.yul\":16681:16710   */\n      swap1\n      pop\n        /* \"#utility.yul\":16557:16716   */\n      swap3\n      swap2\n      pop\n      pop\n      jump\t// out\n        /* \"#utility.yul\":16722:16891   */\n    tag_272:\n        /* \"#utility.yul\":16806:16817   */\n      0x00\n        /* \"#utility.yul\":16840:16846   */\n      dup3\n        /* \"#utility.yul\":16835:16838   */\n      dup3\n        /* \"#utility.yul\":16828:16847   */\n      mstore\n        /* \"#utility.yul\":16880:16884   */\n      0x20\n        /* \"#utility.yul\":16875:16878   */\n      dup3\n        /* \"#utility.yul\":16871:16885   */\n      add\n        /* \"#utility.yul\":16856:16885   */\n      swap1\n      pop\n        /* \"#utility.yul\":16722:16891   */\n      swap3\n      swap2\n      pop\n      pop\n      jump\t// out\n        /* \"#utility.yul\":16897:17045   */\n    tag_279:\n        /* \"#utility.yul\":16999:17010   */\n      0x00\n        /* \"#utility.yul\":17036:17039   */\n      dup2\n        /* \"#utility.yul\":17021:17039   */\n      swap1\n      pop\n        /* \"#utility.yul\":16897:17045   */\n      swap3\n      swap2\n      pop\n      pop\n      jump\t// out\n        /* \"#utility.yul\":17051:17147   */\n    tag_193:\n        /* \"#utility.yul\":17088:17095   */\n      0x00\n        /* \"#utility.yul\":17117:17141   */\n      tag_347\n        /* \"#utility.yul\":17135:17140   */\n      dup3\n        /* \"#utility.yul\":17117:17141   */\n      tag_348\n      jump\t// in\n    tag_347:\n        /* \"#utility.yul\":17106:17141   */\n      swap1\n      pop\n        /* \"#utility.yul\":17051:17147   */\n      swap2\n      swap1\n      pop\n      jump\t// out\n        /* \"#utility.yul\":17153:17243   */\n    tag_255:\n        /* \"#utility.yul\":17187:17194   */\n      0x00\n        /* \"#utility.yul\":17230:17235   */\n      dup2\n        /* \"#utility.yul\":17223:17236   */\n      iszero\n        /* \"#utility.yul\":17216:17237   */\n      iszero\n        /* \"#utility.yul\":17205:17237   */\n      swap1\n      pop\n        /* \"#utility.yul\":17153:17243   */\n      swap2\n      swap1\n      pop\n      jump\t// out\n        /* \"#utility.yul\":17249:17375   */\n    tag_348:\n        /* \"#utility.yul\":17286:17293   */\n      0x00\n        /* \"#utility.yul\":17326:17368   */\n      0xffffffffffffffffffffffffffffffffffffffff\n        /* \"#utility.yul\":17319:17324   */\n      dup3\n        /* \"#utility.yul\":17315:17369   */\n      and\n        /* \"#utility.yul\":17304:17369   */\n      swap1\n      pop\n        /* \"#utility.yul\":17249:17375   */\n      swap2\n      swap1\n      pop\n      jump\t// out\n        /* \"#utility.yul\":17381:17458   */\n    tag_295:\n        /* \"#utility.yul\":17418:17425   */\n      0x00\n        /* \"#utility.yul\":17447:17452   */\n      dup2\n        /* \"#utility.yul\":17436:17452   */\n      swap1\n      pop\n        /* \"#utility.yul\":17381:17458   */\n      swap2\n      swap1\n      pop\n      jump\t// out\n        /* \"#utility.yul\":17464:17618   */\n    tag_143:\n        /* \"#utility.yul\":17548:17554   */\n      dup3\n        /* \"#utility.yul\":17543:17546   */\n      dup2\n        /* \"#utility.yul\":17538:17541   */\n      dup4\n        /* \"#utility.yul\":17525:17555   */\n      calldatacopy\n        /* \"#utility.yul\":17610:17611   */\n      0x00\n        /* \"#utility.yul\":17601:17607   */\n      dup4\n        /* \"#utility.yul\":17596:17599   */\n      dup4\n        /* \"#utility.yul\":17592:17608   */\n      add\n        /* \"#utility.yul\":17585:17612   */\n      mstore\n        /* \"#utility.yul\":17464:17618   */\n      pop\n      pop\n      pop\n      jump\t// out\n        /* \"#utility.yul\":17624:17931   */\n    tag_265:\n        /* \"#utility.yul\":17692:17693   */\n      0x00\n        /* \"#utility.yul\":17702:17815   */\n    tag_354:\n        /* \"#utility.yul\":17716:17722   */\n      dup4\n        /* \"#utility.yul\":17713:17714   */\n      dup2\n        /* \"#utility.yul\":17710:17723   */\n      lt\n        /* \"#utility.yul\":17702:17815   */\n      iszero\n      tag_356\n      jumpi\n        /* \"#utility.yul\":17801:17802   */\n      dup1\n        /* \"#utility.yul\":17796:17799   */\n      dup3\n        /* \"#utility.yul\":17792:17803   */\n      add\n        /* \"#utility.yul\":17786:17804   */\n      mload\n        /* \"#utility.yul\":17782:17783   */\n      dup2\n        /* \"#utility.yul\":17777:17780   */\n      dup5\n        /* \"#utility.yul\":17773:17784   */\n      add\n        /* \"#utility.yul\":17766:17805   */\n      mstore\n        /* \"#utility.yul\":17738:17740   */\n      0x20\n        /* \"#utility.yul\":17735:17736   */\n      dup2\n        /* \"#utility.yul\":17731:17741   */\n      add\n        /* \"#utility.yul\":17726:17741   */\n      swap1\n      pop\n        /* \"#utility.yul\":17702:17815   */\n      jump(tag_354)\n    tag_356:\n        /* \"#utility.yul\":17833:17839   */\n      dup4\n        /* \"#utility.yul\":17830:17831   */\n      dup2\n        /* \"#utility.yul\":17827:17840   */\n      gt\n        /* \"#utility.yul\":17824:17925   */\n      iszero\n      tag_357\n      jumpi\n        /* \"#utility.yul\":17913:17914   */\n      0x00\n        /* \"#utility.yul\":17904:17910   */\n      dup5\n        /* \"#utility.yul\":17899:17902   */\n      dup5\n        /* \"#utility.yul\":17895:17911   */\n      add\n        /* \"#utility.yul\":17888:17915   */\n      mstore\n        /* \"#utility.yul\":17824:17925   */\n    tag_357:\n        /* \"#utility.yul\":17673:17931   */\n      pop\n        /* \"#utility.yul\":17624:17931   */\n      pop\n      pop\n      pop\n      jump\t// out\n        /* \"#utility.yul\":17937:18257   */\n    tag_66:\n        /* \"#utility.yul\":17981:17987   */\n      0x00\n        /* \"#utility.yul\":18018:18019   */\n      0x02\n        /* \"#utility.yul\":18012:18016   */\n      dup3\n        /* \"#utility.yul\":18008:18020   */\n      div\n        /* \"#utility.yul\":17998:18020   */\n      swap1\n      pop\n        /* \"#utility.yul\":18065:18066   */\n      0x01\n        /* \"#utility.yul\":18059:18063   */\n      dup3\n        /* \"#utility.yul\":18055:18067   */\n      and\n        /* \"#utility.yul\":18086:18104   */\n      dup1\n        /* \"#utility.yul\":18076:18157   */\n      tag_359\n      jumpi\n        /* \"#utility.yul\":18142:18146   */\n      0x7f\n        /* \"#utility.yul\":18134:18140   */\n      dup3\n        /* \"#utility.yul\":18130:18147   */\n      and\n        /* \"#utility.yul\":18120:18147   */\n      swap2\n      pop\n        /* \"#utility.yul\":18076:18157   */\n    tag_359:\n        /* \"#utility.yul\":18204:18206   */\n      0x20\n        /* \"#utility.yul\":18196:18202   */\n      dup3\n        /* \"#utility.yul\":18193:18207   */\n      lt\n        /* \"#utility.yul\":18173:18191   */\n      dup2\n        /* \"#utility.yul\":18170:18208   */\n      eq\n        /* \"#utility.yul\":18167:18251   */\n      iszero\n      tag_360\n      jumpi\n        /* \"#utility.yul\":18223:18241   */\n      tag_361\n      tag_362\n      jump\t// in\n    tag_361:\n        /* \"#utility.yul\":18167:18251   */\n    tag_360:\n        /* \"#utility.yul\":17988:18257   */\n      pop\n        /* \"#utility.yul\":17937:18257   */\n      swap2\n      swap1\n      pop\n      jump\t// out\n        /* \"#utility.yul\":18263:18544   */\n    tag_320:\n        /* \"#utility.yul\":18346:18373   */\n      tag_364\n        /* \"#utility.yul\":18368:18372   */\n      dup3\n        /* \"#utility.yul\":18346:18373   */\n      tag_267\n      jump\t// in\n    tag_364:\n        /* \"#utility.yul\":18338:18344   */\n      dup2\n        /* \"#utility.yul\":18334:18374   */\n      add\n        /* \"#utility.yul\":18476:18482   */\n      dup2\n        /* \"#utility.yul\":18464:18474   */\n      dup2\n        /* \"#utility.yul\":18461:18483   */\n      lt\n        /* \"#utility.yul\":18440:18458   */\n      0xffffffffffffffff\n        /* \"#utility.yul\":18428:18438   */\n      dup3\n        /* \"#utility.yul\":18425:18459   */\n      gt\n        /* \"#utility.yul\":18422:18484   */\n      or\n        /* \"#utility.yul\":18419:18507   */\n      iszero\n      tag_365\n      jumpi\n        /* \"#utility.yul\":18487:18505   */\n      tag_366\n      tag_57\n      jump\t// in\n    tag_366:\n        /* \"#utility.yul\":18419:18507   */\n    tag_365:\n        /* \"#utility.yul\":18527:18537   */\n      dup1\n        /* \"#utility.yul\":18523:18525   */\n      0x40\n        /* \"#utility.yul\":18516:18538   */\n      mstore\n        /* \"#utility.yul\":18306:18544   */\n      pop\n        /* \"#utility.yul\":18263:18544   */\n      pop\n      pop\n      jump\t// out\n        /* \"#utility.yul\":18550:18783   */\n    tag_53:\n        /* \"#utility.yul\":18589:18592   */\n      0x00\n        /* \"#utility.yul\":18612:18636   */\n      tag_368\n        /* \"#utility.yul\":18630:18635   */\n      dup3\n        /* \"#utility.yul\":18612:18636   */\n      tag_295\n      jump\t// in\n    tag_368:\n        /* \"#utility.yul\":18603:18636   */\n      swap2\n      pop\n        /* \"#utility.yul\":18658:18724   */\n      0xffffffffffffffffffffffffffffffffffffffffffffffffffffffffffffffff\n        /* \"#utility.yul\":18651:18656   */\n      dup3\n        /* \"#utility.yul\":18648:18725   */\n      eq\n        /* \"#utility.yul\":18645:18748   */\n      iszero\n      tag_369\n      jumpi\n        /* \"#utility.yul\":18728:18746   */\n      tag_370\n      tag_371\n      jump\t// in\n    tag_370:\n        /* \"#utility.yul\":18645:18748   */\n    tag_369:\n        /* \"#utility.yul\":18775:18776   */\n      0x01\n        /* \"#utility.yul\":18768:18773   */\n      dup3\n        /* \"#utility.yul\":18764:18777   */\n      add\n        /* \"#utility.yul\":18757:18777   */\n      swap1\n      pop\n        /* \"#utility.yul\":18550:18783   */\n      swap2\n      swap1\n      pop\n      jump\t// out\n        /* \"#utility.yul\":18789:18969   */\n    tag_371:\n        /* \"#utility.yul\":18837:18914   */\n      0x4e487b7100000000000000000000000000000000000000000000000000000000\n        /* \"#utility.yul\":18834:18835   */\n      0x00\n        /* \"#utility.yul\":18827:18915   */\n      mstore\n        /* \"#utility.yul\":18934:18938   */\n      0x11\n        /* \"#utility.yul\":18931:18932   */\n      0x04\n        /* \"#utility.yul\":18924:18939   */\n      mstore\n        /* \"#utility.yul\":18958:18962   */\n      0x24\n        /* \"#utility.yul\":18955:18956   */\n      0x00\n        /* \"#utility.yul\":18948:18963   */\n      revert\n        /* \"#utility.yul\":18975:19155   */\n    tag_362:\n        /* \"#utility.yul\":19023:19100   */\n      0x4e487b7100000000000000000000000000000000000000000000000000000000\n        /* \"#utility.yul\":19020:19021   */\n      0x00\n        /* \"#utility.yul\":19013:19101   */\n      mstore\n        /* \"#utility.yul\":19120:19124   */\n      0x22\n        /* \"#utility.yul\":19117:19118   */\n      0x04\n        /* \"#utility.yul\":19110:19125   */\n      mstore\n        /* \"#utility.yul\":19144:19148   */\n      0x24\n        /* \"#utility.yul\":19141:19142   */\n      0x00\n        /* \"#utility.yul\":19134:19149   */\n      revert\n        /* \"#utility.yul\":19161:19341   */\n    tag_73:\n        /* \"#utility.yul\":19209:19286   */\n      0x4e487b7100000000000000000000000000000000000000000000000000000000\n        /* \"#utility.yul\":19206:19207   */\n      0x00\n        /* \"#utility.yul\":19199:19287   */\n      mstore\n        /* \"#utility.yul\":19306:19310   */\n      0x32\n        /* \"#utility.yul\":19303:19304   */\n      0x04\n        /* \"#utility.yul\":19296:19311   */\n      mstore\n        /* \"#utility.yul\":19330:19334   */\n      0x24\n        /* \"#utility.yul\":19327:19328   */\n      0x00\n        /* \"#utility.yul\":19320:19335   */\n      revert\n        /* \"#utility.yul\":19347:19527   */\n    tag_57:\n        /* \"#utility.yul\":19395:19472   */\n      0x4e487b7100000000000000000000000000000000000000000000000000000000\n        /* \"#utility.yul\":19392:19393   */\n      0x00\n        /* \"#utility.yul\":19385:19473   */\n      mstore\n        /* \"#utility.yul\":19492:19496   */\n      0x41\n        /* \"#utility.yul\":19489:19490   */\n      0x04\n        /* \"#utility.yul\":19482:19497   */\n      mstore\n        /* \"#utility.yul\":19516:19520   */\n      0x24\n        /* \"#utility.yul\":19513:19514   */\n      0x00\n        /* \"#utility.yul\":19506:19521   */\n      revert\n        /* \"#utility.yul\":19533:19650   */\n    tag_152:\n        /* \"#utility.yul\":19642:19643   */\n      0x00\n        /* \"#utility.yul\":19639:19640   */\n      dup1\n        /* \"#utility.yul\":19632:19644   */\n      revert\n        /* \"#utility.yul\":19656:19773   */\n    tag_141:\n        /* \"#utility.yul\":19765:19766   */\n      0x00\n        /* \"#utility.yul\":19762:19763   */\n      dup1\n        /* \"#utility.yul\":19755:19767   */\n      revert\n        /* \"#utility.yul\":19779:19896   */\n    tag_164:\n        /* \"#utility.yul\":19888:19889   */\n      0x00\n        /* \"#utility.yul\":19885:19886   */\n      dup1\n        /* \"#utility.yul\":19878:19890   */\n      revert\n        /* \"#utility.yul\":19902:20019   */\n    tag_161:\n        /* \"#utility.yul\":20011:20012   */\n      0x00\n        /* \"#utility.yul\":20008:20009   */\n      dup1\n        /* \"#utility.yul\":20001:20013   */\n      revert\n        /* \"#utility.yul\":20025:20127   */\n    tag_267:\n        /* \"#utility.yul\":20066:20072   */\n      0x00\n        /* \"#utility.yul\":20117:20119   */\n      0x1f\n        /* \"#utility.yul\":20113:20120   */\n      not\n        /* \"#utility.yul\":20108:20110   */\n      0x1f\n        /* \"#utility.yul\":20101:20106   */\n      dup4\n        /* \"#utility.yul\":20097:20111   */\n      add\n        /* \"#utility.yul\":20093:20121   */\n      and\n        /* \"#utility.yul\":20083:20121   */\n      swap1\n      pop\n        /* \"#utility.yul\":20025:20127   */\n      swap2\n      swap1\n      pop\n      jump\t// out\n        /* \"#utility.yul\":20133:20249   */\n    tag_147:\n        /* \"#utility.yul\":20203:20224   */\n      tag_382\n        /* \"#utility.yul\":20218:20223   */\n      dup2\n        /* \"#utility.yul\":20203:20224   */\n      tag_255\n      jump\t// in\n    tag_382:\n        /* \"#utility.yul\":20196:20201   */\n      dup2\n        /* \"#utility.yul\":20193:20225   */\n      eq\n        /* \"#utility.yul\":20183:20243   */\n      tag_383\n      jumpi\n        /* \"#utility.yul\":20239:20240   */\n      0x00\n        /* \"#utility.yul\":20236:20237   */\n      dup1\n        /* \"#utility.yul\":20229:20241   */\n      revert\n        /* \"#utility.yul\":20183:20243   */\n    tag_383:\n        /* \"#utility.yul\":20133:20249   */\n      pop\n      jump\t// out\n        /* \"#utility.yul\":20255:20377   */\n    tag_157:\n        /* \"#utility.yul\":20328:20352   */\n      tag_385\n        /* \"#utility.yul\":20346:20351   */\n      dup2\n        /* \"#utility.yul\":20328:20352   */\n      tag_295\n      jump\t// in\n    tag_385:\n        /* \"#utility.yul\":20321:20326   */\n      dup2\n        /* \"#utility.yul\":20318:20353   */\n      eq\n        /* \"#utility.yul\":20308:20371   */\n      tag_386\n      jumpi\n        /* \"#utility.yul\":20367:20368   */\n      0x00\n        /* \"#utility.yul\":20364:20365   */\n      dup1\n        /* \"#utility.yul\":20357:20369   */\n      revert\n        /* \"#utility.yul\":20308:20371   */\n    tag_386:\n        /* \"#utility.yul\":20255:20377   */\n      pop\n      jump\t// out\n\n    auxdata: 0xa2646970667358221220075eba382d25bef5e215ee7fd6ffc837d075e55495b933b7499d82472fdfcfb964736f6c63430008070033\n}\n",
				"bytecode": {
					"linkReferences": {},
					"object": "608060405234801561001057600080fd5b506000600381905550336000806101000a81548173ffffffffffffffffffffffffffffffffffffffff021916908373ffffffffffffffffffffffffffffffffffffffff1602179055506115c9806100686000396000f3fe608060405234801561001057600080fd5b50600436106100885760003560e01c8063b0d548df1161005b578063b0d548df14610115578063e259effa14610148578063f2a5028114610164578063fca5e61e1461018457610088565b8063223883de1461008d5780635fb07a62146100a9578063693ec85e146100c757806392812e6f146100f7575b600080fd5b6100a760048036038101906100a29190610c57565b6101b7565b005b6100b16102bd565b6040516100be9190611131565b60405180910390f35b6100e160048036038101906100dc9190610c57565b610490565b6040516100ee9190611153565b60405180910390f35b6100ff6105d5565b60405161010c9190611175565b60405180910390f35b61012f600480360381019061012a9190610c57565b6105db565b60405161013f9493929190611190565b60405180910390f35b610162600480360381019061015d9190610ccd565b6106d6565b005b61016c610760565b60405161017b939291906110e5565b60405180910390f35b61019e60048036038101906101999190610ca0565b6109f5565b6040516101ae9493929190611190565b60405180910390f35b604051806080016040528060035481526020018281526020013373ffffffffffffffffffffffffffffffffffffffff1681526020016001151581525060028260405161020391906110ce565b9081526020016040518091039020600082015181600001556020820151816001019080519060200190610237929190610ada565b5060408201518160020160006101000a81548173ffffffffffffffffffffffffffffffffffffffff021916908373ffffffffffffffffffffffffffffffffffffffff16021790555060608201518160020160146101000a81548160ff021916908315150217905550905050600360008154809291906102b59061143b565b919050555050565b6060600060035467ffffffffffffffff8111156102dd576102dc611511565b5b60405190808252806020026020018201604052801561031657816020015b610303610b60565b8152602001906001900390816102fb5790505b50905060005b6003548110156104885760006001600083815260200190815260200160002090508060405180608001604052908160008201548152602001600182018054610363906113d8565b80601f016020809104026020016040519081016040528092919081815260200182805461038f906113d8565b80156103dc5780601f106103b1576101008083540402835291602001916103dc565b820191906000526020600020905b8154815290600101906020018083116103bf57829003601f168201915b505050505081526020016002820160009054906101000a900473ffffffffffffffffffffffffffffffffffffffff1673ffffffffffffffffffffffffffffffffffffffff1673ffffffffffffffffffffffffffffffffffffffff1681526020016002820160149054906101000a900460ff161515151581525050838381518110610469576104686114e2565b5b60200260200101819052505080806104809061143b565b91505061031c565b508091505090565b610498610b60565b6002826040516104a891906110ce565b9081526020016040518091039020604051806080016040529081600082015481526020016001820180546104db906113d8565b80601f0160208091040260200160405190810160405280929190818152602001828054610507906113d8565b80156105545780601f1061052957610100808354040283529160200191610554565b820191906000526020600020905b81548152906001019060200180831161053757829003601f168201915b505050505081526020016002820160009054906101000a900473ffffffffffffffffffffffffffffffffffffffff1673ffffffffffffffffffffffffffffffffffffffff1673ffffffffffffffffffffffffffffffffffffffff1681526020016002820160149054906101000a900460ff1615151515815250509050919050565b60035481565b60028180516020810182018051848252602083016020850120818352809550505050505060009150905080600001549080600101805461061a906113d8565b80601f0160208091040260200160405190810160405280929190818152602001828054610646906113d8565b80156106935780601f1061066857610100808354040283529160200191610693565b820191906000526020600020905b81548152906001019060200180831161067657829003601f168201915b5050505050908060020160009054906101000a900473ffffffffffffffffffffffffffffffffffffffff16908060020160149054906101000a900460ff16905084565b3373ffffffffffffffffffffffffffffffffffffffff1660008054906101000a900473ffffffffffffffffffffffffffffffffffffffff1673ffffffffffffffffffffffffffffffffffffffff161461072e57600080fd5b806001600084815260200190815260200160002060020160146101000a81548160ff0219169083151502179055505050565b6060806060600060035467ffffffffffffffff81111561078357610782611511565b5b6040519080825280602002602001820160405280156107b657816020015b60608152602001906001900390816107a15790505b509050600060035467ffffffffffffffff8111156107d7576107d6611511565b5b6040519080825280602002602001820160405280156108055781602001602082028036833780820191505090505b509050600060035467ffffffffffffffff81111561082657610825611511565b5b6040519080825280602002602001820160405280156108545781602001602082028036833780820191505090505b50905060005b6003548110156109e357600060016000838152602001908152602001600020905080600101805461088a906113d8565b80601f01602080910402602001604051908101604052809291908181526020018280546108b6906113d8565b80156109035780601f106108d857610100808354040283529160200191610903565b820191906000526020600020905b8154815290600101906020018083116108e657829003601f168201915b505050505085838151811061091b5761091a6114e2565b5b60200260200101819052508060020160009054906101000a900473ffffffffffffffffffffffffffffffffffffffff1684838151811061095e5761095d6114e2565b5b602002602001019073ffffffffffffffffffffffffffffffffffffffff16908173ffffffffffffffffffffffffffffffffffffffff16815250508060020160149054906101000a900460ff168383815181106109bd576109bc6114e2565b5b6020026020010190151590811515815250505080806109db9061143b565b91505061085a565b50828282955095509550505050909192565b6001602052806000526040600020600091509050806000015490806001018054610a1e906113d8565b80601f0160208091040260200160405190810160405280929190818152602001828054610a4a906113d8565b8015610a975780601f10610a6c57610100808354040283529160200191610a97565b820191906000526020600020905b815481529060010190602001808311610a7a57829003601f168201915b5050505050908060020160009054906101000a900473ffffffffffffffffffffffffffffffffffffffff16908060020160149054906101000a900460ff16905084565b828054610ae6906113d8565b90600052602060002090601f016020900481019282610b085760008555610b4f565b82601f10610b2157805160ff1916838001178555610b4f565b82800160010185558215610b4f579182015b82811115610b4e578251825591602001919060010190610b33565b5b509050610b5c9190610ba0565b5090565b60405180608001604052806000815260200160608152602001600073ffffffffffffffffffffffffffffffffffffffff1681526020016000151581525090565b5b80821115610bb9576000816000905550600101610ba1565b5090565b6000610bd0610bcb84611201565b6111dc565b905082815260208101848484011115610bec57610beb611545565b5b610bf7848285611396565b509392505050565b600081359050610c0e81611565565b92915050565b600082601f830112610c2957610c28611540565b5b8135610c39848260208601610bbd565b91505092915050565b600081359050610c518161157c565b92915050565b600060208284031215610c6d57610c6c61154f565b5b600082013567ffffffffffffffff811115610c8b57610c8a61154a565b5b610c9784828501610c14565b91505092915050565b600060208284031215610cb657610cb561154f565b5b6000610cc484828501610c42565b91505092915050565b60008060408385031215610ce457610ce361154f565b5b6000610cf285828601610c42565b9250506020610d0385828601610bff565b9150509250929050565b6000610d198383610d65565b60208301905092915050565b6000610d318383610f29565b60208301905092915050565b6000610d498383610f47565b905092915050565b6000610d5d8383610fea565b905092915050565b610d6e8161134e565b82525050565b610d7d8161134e565b82525050565b6000610d8e82611272565b610d9881856112dd565b9350610da383611232565b8060005b83811015610dd4578151610dbb8882610d0d565b9750610dc6836112a9565b925050600181019050610da7565b5085935050505092915050565b6000610dec8261127d565b610df681856112ee565b9350610e0183611242565b8060005b83811015610e32578151610e198882610d25565b9750610e24836112b6565b925050600181019050610e05565b5085935050505092915050565b6000610e4a82611288565b610e5481856112ff565b935083602082028501610e6685611252565b8060005b85811015610ea25784840389528151610e838582610d3d565b9450610e8e836112c3565b925060208a01995050600181019050610e6a565b50829750879550505050505092915050565b6000610ebf82611293565b610ec98185611310565b935083602082028501610edb85611262565b8060005b85811015610f175784840389528151610ef88582610d51565b9450610f03836112d0565b925060208a01995050600181019050610edf565b50829750879550505050505092915050565b610f3281611360565b82525050565b610f4181611360565b82525050565b6000610f528261129e565b610f5c8185611321565b9350610f6c8185602086016113a5565b610f7581611554565b840191505092915050565b6000610f8b8261129e565b610f958185611332565b9350610fa58185602086016113a5565b610fae81611554565b840191505092915050565b6000610fc48261129e565b610fce8185611343565b9350610fde8185602086016113a5565b80840191505092915050565b600060808301600083015161100260008601826110b0565b506020830151848203602086015261101a8282610f47565b915050604083015161102f6040860182610d65565b5060608301516110426060860182610f29565b508091505092915050565b600060808301600083015161106560008601826110b0565b506020830151848203602086015261107d8282610f47565b91505060408301516110926040860182610d65565b5060608301516110a56060860182610f29565b508091505092915050565b6110b98161138c565b82525050565b6110c88161138c565b82525050565b60006110da8284610fb9565b915081905092915050565b600060608201905081810360008301526110ff8186610e3f565b905081810360208301526111138185610d83565b905081810360408301526111278184610de1565b9050949350505050565b6000602082019050818103600083015261114b8184610eb4565b905092915050565b6000602082019050818103600083015261116d818461104d565b905092915050565b600060208201905061118a60008301846110bf565b92915050565b60006080820190506111a560008301876110bf565b81810360208301526111b78186610f80565b90506111c66040830185610d74565b6111d36060830184610f38565b95945050505050565b60006111e66111f7565b90506111f2828261140a565b919050565b6000604051905090565b600067ffffffffffffffff82111561121c5761121b611511565b5b61122582611554565b9050602081019050919050565b6000819050602082019050919050565b6000819050602082019050919050565b6000819050602082019050919050565b6000819050602082019050919050565b600081519050919050565b600081519050919050565b600081519050919050565b600081519050919050565b600081519050919050565b6000602082019050919050565b6000602082019050919050565b6000602082019050919050565b6000602082019050919050565b600082825260208201905092915050565b600082825260208201905092915050565b600082825260208201905092915050565b600082825260208201905092915050565b600082825260208201905092915050565b600082825260208201905092915050565b600081905092915050565b60006113598261136c565b9050919050565b60008115159050919050565b600073ffffffffffffffffffffffffffffffffffffffff82169050919050565b6000819050919050565b82818337600083830152505050565b60005b838110156113c35780820151818401526020810190506113a8565b838111156113d2576000848401525b50505050565b600060028204905060018216806113f057607f821691505b60208210811415611404576114036114b3565b5b50919050565b61141382611554565b810181811067ffffffffffffffff8211171561143257611431611511565b5b80604052505050565b60006114468261138c565b91507fffffffffffffffffffffffffffffffffffffffffffffffffffffffffffffffff82141561147957611478611484565b5b600182019050919050565b7f4e487b7100000000000000000000000000000000000000000000000000000000600052601160045260246000fd5b7f4e487b7100000000000000000000000000000000000000000000000000000000600052602260045260246000fd5b7f4e487b7100000000000000000000000000000000000000000000000000000000600052603260045260246000fd5b7f4e487b7100000000000000000000000000000000000000000000000000000000600052604160045260246000fd5b600080fd5b600080fd5b600080fd5b600080fd5b6000601f19601f8301169050919050565b61156e81611360565b811461157957600080fd5b50565b6115858161138c565b811461159057600080fd5b5056fea2646970667358221220075eba382d25bef5e215ee7fd6ffc837d075e55495b933b7499d82472fdfcfb964736f6c63430008070033",
					"opcodes": "PUSH1 0x80 PUSH1 0x40 MSTORE CALLVALUE DUP1 ISZERO PUSH2 0x10 JUMPI PUSH1 0x0 DUP1 REVERT JUMPDEST POP PUSH1 0x0 PUSH1 0x3 DUP2 SWAP1 SSTORE POP CALLER PUSH1 0x0 DUP1 PUSH2 0x100 EXP DUP2 SLOAD DUP2 PUSH20 0xFFFFFFFFFFFFFFFFFFFFFFFFFFFFFFFFFFFFFFFF MUL NOT AND SWAP1 DUP4 PUSH20 0xFFFFFFFFFFFFFFFFFFFFFFFFFFFFFFFFFFFFFFFF AND MUL OR SWAP1 SSTORE POP PUSH2 0x15C9 DUP1 PUSH2 0x68 PUSH1 0x0 CODECOPY PUSH1 0x0 RETURN INVALID PUSH1 0x80 PUSH1 0x40 MSTORE CALLVALUE DUP1 ISZERO PUSH2 0x10 JUMPI PUSH1 0x0 DUP1 REVERT JUMPDEST POP PUSH1 0x4 CALLDATASIZE LT PUSH2 0x88 JUMPI PUSH1 0x0 CALLDATALOAD PUSH1 0xE0 SHR DUP1 PUSH4 0xB0D548DF GT PUSH2 0x5B JUMPI DUP1 PUSH4 0xB0D548DF EQ PUSH2 0x115 JUMPI DUP1 PUSH4 0xE259EFFA EQ PUSH2 0x148 JUMPI DUP1 PUSH4 0xF2A50281 EQ PUSH2 0x164 JUMPI DUP1 PUSH4 0xFCA5E61E EQ PUSH2 0x184 JUMPI PUSH2 0x88 JUMP JUMPDEST DUP1 PUSH4 0x223883DE EQ PUSH2 0x8D JUMPI DUP1 PUSH4 0x5FB07A62 EQ PUSH2 0xA9 JUMPI DUP1 PUSH4 0x693EC85E EQ PUSH2 0xC7 JUMPI DUP1 PUSH4 0x92812E6F EQ PUSH2 0xF7 JUMPI JUMPDEST PUSH1 0x0 DUP1 REVERT JUMPDEST PUSH2 0xA7 PUSH1 0x4 DUP1 CALLDATASIZE SUB DUP2 ADD SWAP1 PUSH2 0xA2 SWAP2 SWAP1 PUSH2 0xC57 JUMP JUMPDEST PUSH2 0x1B7 JUMP JUMPDEST STOP JUMPDEST PUSH2 0xB1 PUSH2 0x2BD JUMP JUMPDEST PUSH1 0x40 MLOAD PUSH2 0xBE SWAP2 SWAP1 PUSH2 0x1131 JUMP JUMPDEST PUSH1 0x40 MLOAD DUP1 SWAP2 SUB SWAP1 RETURN JUMPDEST PUSH2 0xE1 PUSH1 0x4 DUP1 CALLDATASIZE SUB DUP2 ADD SWAP1 PUSH2 0xDC SWAP2 SWAP1 PUSH2 0xC57 JUMP JUMPDEST PUSH2 0x490 JUMP JUMPDEST PUSH1 0x40 MLOAD PUSH2 0xEE SWAP2 SWAP1 PUSH2 0x1153 JUMP JUMPDEST PUSH1 0x40 MLOAD DUP1 SWAP2 SUB SWAP1 RETURN JUMPDEST PUSH2 0xFF PUSH2 0x5D5 JUMP JUMPDEST PUSH1 0x40 MLOAD PUSH2 0x10C SWAP2 SWAP1 PUSH2 0x1175 JUMP JUMPDEST PUSH1 0x40 MLOAD DUP1 SWAP2 SUB SWAP1 RETURN JUMPDEST PUSH2 0x12F PUSH1 0x4 DUP1 CALLDATASIZE SUB DUP2 ADD SWAP1 PUSH2 0x12A SWAP2 SWAP1 PUSH2 0xC57 JUMP JUMPDEST PUSH2 0x5DB JUMP JUMPDEST PUSH1 0x40 MLOAD PUSH2 0x13F SWAP5 SWAP4 SWAP3 SWAP2 SWAP1 PUSH2 0x1190 JUMP JUMPDEST PUSH1 0x40 MLOAD DUP1 SWAP2 SUB SWAP1 RETURN JUMPDEST PUSH2 0x162 PUSH1 0x4 DUP1 CALLDATASIZE SUB DUP2 ADD SWAP1 PUSH2 0x15D SWAP2 SWAP1 PUSH2 0xCCD JUMP JUMPDEST PUSH2 0x6D6 JUMP JUMPDEST STOP JUMPDEST PUSH2 0x16C PUSH2 0x760 JUMP JUMPDEST PUSH1 0x40 MLOAD PUSH2 0x17B SWAP4 SWAP3 SWAP2 SWAP1 PUSH2 0x10E5 JUMP JUMPDEST PUSH1 0x40 MLOAD DUP1 SWAP2 SUB SWAP1 RETURN JUMPDEST PUSH2 0x19E PUSH1 0x4 DUP1 CALLDATASIZE SUB DUP2 ADD SWAP1 PUSH2 0x199 SWAP2 SWAP1 PUSH2 0xCA0 JUMP JUMPDEST PUSH2 0x9F5 JUMP JUMPDEST PUSH1 0x40 MLOAD PUSH2 0x1AE SWAP5 SWAP4 SWAP3 SWAP2 SWAP1 PUSH2 0x1190 JUMP JUMPDEST PUSH1 0x40 MLOAD DUP1 SWAP2 SUB SWAP1 RETURN JUMPDEST PUSH1 0x40 MLOAD DUP1 PUSH1 0x80 ADD PUSH1 0x40 MSTORE DUP1 PUSH1 0x3 SLOAD DUP2 MSTORE PUSH1 0x20 ADD DUP3 DUP2 MSTORE PUSH1 0x20 ADD CALLER PUSH20 0xFFFFFFFFFFFFFFFFFFFFFFFFFFFFFFFFFFFFFFFF AND DUP2 MSTORE PUSH1 0x20 ADD PUSH1 0x1 ISZERO ISZERO DUP2 MSTORE POP PUSH1 0x2 DUP3 PUSH1 0x40 MLOAD PUSH2 0x203 SWAP2 SWAP1 PUSH2 0x10CE JUMP JUMPDEST SWAP1 DUP2 MSTORE PUSH1 0x20 ADD PUSH1 0x40 MLOAD DUP1 SWAP2 SUB SWAP1 KECCAK256 PUSH1 0x0 DUP3 ADD MLOAD DUP2 PUSH1 0x0 ADD SSTORE PUSH1 0x20 DUP3 ADD MLOAD DUP2 PUSH1 0x1 ADD SWAP1 DUP1 MLOAD SWAP1 PUSH1 0x20 ADD SWAP1 PUSH2 0x237 SWAP3 SWAP2 SWAP1 PUSH2 0xADA JUMP JUMPDEST POP PUSH1 0x40 DUP3 ADD MLOAD DUP2 PUSH1 0x2 ADD PUSH1 0x0 PUSH2 0x100 EXP DUP2 SLOAD DUP2 PUSH20 0xFFFFFFFFFFFFFFFFFFFFFFFFFFFFFFFFFFFFFFFF MUL NOT AND SWAP1 DUP4 PUSH20 0xFFFFFFFFFFFFFFFFFFFFFFFFFFFFFFFFFFFFFFFF AND MUL OR SWAP1 SSTORE POP PUSH1 0x60 DUP3 ADD MLOAD DUP2 PUSH1 0x2 ADD PUSH1 0x14 PUSH2 0x100 EXP DUP2 SLOAD DUP2 PUSH1 0xFF MUL NOT AND SWAP1 DUP4 ISZERO ISZERO MUL OR SWAP1 SSTORE POP SWAP1 POP POP PUSH1 0x3 PUSH1 0x0 DUP2 SLOAD DUP1 SWAP3 SWAP2 SWAP1 PUSH2 0x2B5 SWAP1 PUSH2 0x143B JUMP JUMPDEST SWAP2 SWAP1 POP SSTORE POP POP JUMP JUMPDEST PUSH1 0x60 PUSH1 0x0 PUSH1 0x3 SLOAD PUSH8 0xFFFFFFFFFFFFFFFF DUP2 GT ISZERO PUSH2 0x2DD JUMPI PUSH2 0x2DC PUSH2 0x1511 JUMP JUMPDEST JUMPDEST PUSH1 0x40 MLOAD SWAP1 DUP1 DUP3 MSTORE DUP1 PUSH1 0x20 MUL PUSH1 0x20 ADD DUP3 ADD PUSH1 0x40 MSTORE DUP1 ISZERO PUSH2 0x316 JUMPI DUP2 PUSH1 0x20 ADD JUMPDEST PUSH2 0x303 PUSH2 0xB60 JUMP JUMPDEST DUP2 MSTORE PUSH1 0x20 ADD SWAP1 PUSH1 0x1 SWAP1 SUB SWAP1 DUP2 PUSH2 0x2FB JUMPI SWAP1 POP JUMPDEST POP SWAP1 POP PUSH1 0x0 JUMPDEST PUSH1 0x3 SLOAD DUP2 LT ISZERO PUSH2 0x488 JUMPI PUSH1 0x0 PUSH1 0x1 PUSH1 0x0 DUP4 DUP2 MSTORE PUSH1 0x20 ADD SWAP1 DUP2 MSTORE PUSH1 0x20 ADD PUSH1 0x0 KECCAK256 SWAP1 POP DUP1 PUSH1 0x40 MLOAD DUP1 PUSH1 0x80 ADD PUSH1 0x40 MSTORE SWAP1 DUP2 PUSH1 0x0 DUP3 ADD SLOAD DUP2 MSTORE PUSH1 0x20 ADD PUSH1 0x1 DUP3 ADD DUP1 SLOAD PUSH2 0x363 SWAP1 PUSH2 0x13D8 JUMP JUMPDEST DUP1 PUSH1 0x1F ADD PUSH1 0x20 DUP1 SWAP2 DIV MUL PUSH1 0x20 ADD PUSH1 0x40 MLOAD SWAP1 DUP2 ADD PUSH1 0x40 MSTORE DUP1 SWAP3 SWAP2 SWAP1 DUP2 DUP2 MSTORE PUSH1 0x20 ADD DUP3 DUP1 SLOAD PUSH2 0x38F SWAP1 PUSH2 0x13D8 JUMP JUMPDEST DUP1 ISZERO PUSH2 0x3DC JUMPI DUP1 PUSH1 0x1F LT PUSH2 0x3B1 JUMPI PUSH2 0x100 DUP1 DUP4 SLOAD DIV MUL DUP4 MSTORE SWAP2 PUSH1 0x20 ADD SWAP2 PUSH2 0x3DC JUMP JUMPDEST DUP3 ADD SWAP2 SWAP1 PUSH1 0x0 MSTORE PUSH1 0x20 PUSH1 0x0 KECCAK256 SWAP1 JUMPDEST DUP2 SLOAD DUP2 MSTORE SWAP1 PUSH1 0x1 ADD SWAP1 PUSH1 0x20 ADD DUP1 DUP4 GT PUSH2 0x3BF JUMPI DUP3 SWAP1 SUB PUSH1 0x1F AND DUP3 ADD SWAP2 JUMPDEST POP POP POP POP POP DUP2 MSTORE PUSH1 0x20 ADD PUSH1 0x2 DUP3 ADD PUSH1 0x0 SWAP1 SLOAD SWAP1 PUSH2 0x100 EXP SWAP1 DIV PUSH20 0xFFFFFFFFFFFFFFFFFFFFFFFFFFFFFFFFFFFFFFFF AND PUSH20 0xFFFFFFFFFFFFFFFFFFFFFFFFFFFFFFFFFFFFFFFF AND PUSH20 0xFFFFFFFFFFFFFFFFFFFFFFFFFFFFFFFFFFFFFFFF AND DUP2 MSTORE PUSH1 0x20 ADD PUSH1 0x2 DUP3 ADD PUSH1 0x14 SWAP1 SLOAD SWAP1 PUSH2 0x100 EXP SWAP1 DIV PUSH1 0xFF AND ISZERO ISZERO ISZERO ISZERO DUP2 MSTORE POP POP DUP4 DUP4 DUP2 MLOAD DUP2 LT PUSH2 0x469 JUMPI PUSH2 0x468 PUSH2 0x14E2 JUMP JUMPDEST JUMPDEST PUSH1 0x20 MUL PUSH1 0x20 ADD ADD DUP2 SWAP1 MSTORE POP POP DUP1 DUP1 PUSH2 0x480 SWAP1 PUSH2 0x143B JUMP JUMPDEST SWAP2 POP POP PUSH2 0x31C JUMP JUMPDEST POP DUP1 SWAP2 POP POP SWAP1 JUMP JUMPDEST PUSH2 0x498 PUSH2 0xB60 JUMP JUMPDEST PUSH1 0x2 DUP3 PUSH1 0x40 MLOAD PUSH2 0x4A8 SWAP2 SWAP1 PUSH2 0x10CE JUMP JUMPDEST SWAP1 DUP2 MSTORE PUSH1 0x20 ADD PUSH1 0x40 MLOAD DUP1 SWAP2 SUB SWAP1 KECCAK256 PUSH1 0x40 MLOAD DUP1 PUSH1 0x80 ADD PUSH1 0x40 MSTORE SWAP1 DUP2 PUSH1 0x0 DUP3 ADD SLOAD DUP2 MSTORE PUSH1 0x20 ADD PUSH1 0x1 DUP3 ADD DUP1 SLOAD PUSH2 0x4DB SWAP1 PUSH2 0x13D8 JUMP JUMPDEST DUP1 PUSH1 0x1F ADD PUSH1 0x20 DUP1 SWAP2 DIV MUL PUSH1 0x20 ADD PUSH1 0x40 MLOAD SWAP1 DUP2 ADD PUSH1 0x40 MSTORE DUP1 SWAP3 SWAP2 SWAP1 DUP2 DUP2 MSTORE PUSH1 0x20 ADD DUP3 DUP1 SLOAD PUSH2 0x507 SWAP1 PUSH2 0x13D8 JUMP JUMPDEST DUP1 ISZERO PUSH2 0x554 JUMPI DUP1 PUSH1 0x1F LT PUSH2 0x529 JUMPI PUSH2 0x100 DUP1 DUP4 SLOAD DIV MUL DUP4 MSTORE SWAP2 PUSH1 0x20 ADD SWAP2 PUSH2 0x554 JUMP JUMPDEST DUP3 ADD SWAP2 SWAP1 PUSH1 0x0 MSTORE PUSH1 0x20 PUSH1 0x0 KECCAK256 SWAP1 JUMPDEST DUP2 SLOAD DUP2 MSTORE SWAP1 PUSH1 0x1 ADD SWAP1 PUSH1 0x20 ADD DUP1 DUP4 GT PUSH2 0x537 JUMPI DUP3 SWAP1 SUB PUSH1 0x1F AND DUP3 ADD SWAP2 JUMPDEST POP POP POP POP POP DUP2 MSTORE PUSH1 0x20 ADD PUSH1 0x2 DUP3 ADD PUSH1 0x0 SWAP1 SLOAD SWAP1 PUSH2 0x100 EXP SWAP1 DIV PUSH20 0xFFFFFFFFFFFFFFFFFFFFFFFFFFFFFFFFFFFFFFFF AND PUSH20 0xFFFFFFFFFFFFFFFFFFFFFFFFFFFFFFFFFFFFFFFF AND PUSH20 0xFFFFFFFFFFFFFFFFFFFFFFFFFFFFFFFFFFFFFFFF AND DUP2 MSTORE PUSH1 0x20 ADD PUSH1 0x2 DUP3 ADD PUSH1 0x14 SWAP1 SLOAD SWAP1 PUSH2 0x100 EXP SWAP1 DIV PUSH1 0xFF AND ISZERO ISZERO ISZERO ISZERO DUP2 MSTORE POP POP SWAP1 POP SWAP2 SWAP1 POP JUMP JUMPDEST PUSH1 0x3 SLOAD DUP2 JUMP JUMPDEST PUSH1 0x2 DUP2 DUP1 MLOAD PUSH1 0x20 DUP2 ADD DUP3 ADD DUP1 MLOAD DUP5 DUP3 MSTORE PUSH1 0x20 DUP4 ADD PUSH1 0x20 DUP6 ADD KECCAK256 DUP2 DUP4 MSTORE DUP1 SWAP6 POP POP POP POP POP POP PUSH1 0x0 SWAP2 POP SWAP1 POP DUP1 PUSH1 0x0 ADD SLOAD SWAP1 DUP1 PUSH1 0x1 ADD DUP1 SLOAD PUSH2 0x61A SWAP1 PUSH2 0x13D8 JUMP JUMPDEST DUP1 PUSH1 0x1F ADD PUSH1 0x20 DUP1 SWAP2 DIV MUL PUSH1 0x20 ADD PUSH1 0x40 MLOAD SWAP1 DUP2 ADD PUSH1 0x40 MSTORE DUP1 SWAP3 SWAP2 SWAP1 DUP2 DUP2 MSTORE PUSH1 0x20 ADD DUP3 DUP1 SLOAD PUSH2 0x646 SWAP1 PUSH2 0x13D8 JUMP JUMPDEST DUP1 ISZERO PUSH2 0x693 JUMPI DUP1 PUSH1 0x1F LT PUSH2 0x668 JUMPI PUSH2 0x100 DUP1 DUP4 SLOAD DIV MUL DUP4 MSTORE SWAP2 PUSH1 0x20 ADD SWAP2 PUSH2 0x693 JUMP JUMPDEST DUP3 ADD SWAP2 SWAP1 PUSH1 0x0 MSTORE PUSH1 0x20 PUSH1 0x0 KECCAK256 SWAP1 JUMPDEST DUP2 SLOAD DUP2 MSTORE SWAP1 PUSH1 0x1 ADD SWAP1 PUSH1 0x20 ADD DUP1 DUP4 GT PUSH2 0x676 JUMPI DUP3 SWAP1 SUB PUSH1 0x1F AND DUP3 ADD SWAP2 JUMPDEST POP POP POP POP POP SWAP1 DUP1 PUSH1 0x2 ADD PUSH1 0x0 SWAP1 SLOAD SWAP1 PUSH2 0x100 EXP SWAP1 DIV PUSH20 0xFFFFFFFFFFFFFFFFFFFFFFFFFFFFFFFFFFFFFFFF AND SWAP1 DUP1 PUSH1 0x2 ADD PUSH1 0x14 SWAP1 SLOAD SWAP1 PUSH2 0x100 EXP SWAP1 DIV PUSH1 0xFF AND SWAP1 POP DUP5 JUMP JUMPDEST CALLER PUSH20 0xFFFFFFFFFFFFFFFFFFFFFFFFFFFFFFFFFFFFFFFF AND PUSH1 0x0 DUP1 SLOAD SWAP1 PUSH2 0x100 EXP SWAP1 DIV PUSH20 0xFFFFFFFFFFFFFFFFFFFFFFFFFFFFFFFFFFFFFFFF AND PUSH20 0xFFFFFFFFFFFFFFFFFFFFFFFFFFFFFFFFFFFFFFFF AND EQ PUSH2 0x72E JUMPI PUSH1 0x0 DUP1 REVERT JUMPDEST DUP1 PUSH1 0x1 PUSH1 0x0 DUP5 DUP2 MSTORE PUSH1 0x20 ADD SWAP1 DUP2 MSTORE PUSH1 0x20 ADD PUSH1 0x0 KECCAK256 PUSH1 0x2 ADD PUSH1 0x14 PUSH2 0x100 EXP DUP2 SLOAD DUP2 PUSH1 0xFF MUL NOT AND SWAP1 DUP4 ISZERO ISZERO MUL OR SWAP1 SSTORE POP POP POP JUMP JUMPDEST PUSH1 0x60 DUP1 PUSH1 0x60 PUSH1 0x0 PUSH1 0x3 SLOAD PUSH8 0xFFFFFFFFFFFFFFFF DUP2 GT ISZERO PUSH2 0x783 JUMPI PUSH2 0x782 PUSH2 0x1511 JUMP JUMPDEST JUMPDEST PUSH1 0x40 MLOAD SWAP1 DUP1 DUP3 MSTORE DUP1 PUSH1 0x20 MUL PUSH1 0x20 ADD DUP3 ADD PUSH1 0x40 MSTORE DUP1 ISZERO PUSH2 0x7B6 JUMPI DUP2 PUSH1 0x20 ADD JUMPDEST PUSH1 0x60 DUP2 MSTORE PUSH1 0x20 ADD SWAP1 PUSH1 0x1 SWAP1 SUB SWAP1 DUP2 PUSH2 0x7A1 JUMPI SWAP1 POP JUMPDEST POP SWAP1 POP PUSH1 0x0 PUSH1 0x3 SLOAD PUSH8 0xFFFFFFFFFFFFFFFF DUP2 GT ISZERO PUSH2 0x7D7 JUMPI PUSH2 0x7D6 PUSH2 0x1511 JUMP JUMPDEST JUMPDEST PUSH1 0x40 MLOAD SWAP1 DUP1 DUP3 MSTORE DUP1 PUSH1 0x20 MUL PUSH1 0x20 ADD DUP3 ADD PUSH1 0x40 MSTORE DUP1 ISZERO PUSH2 0x805 JUMPI DUP2 PUSH1 0x20 ADD PUSH1 0x20 DUP3 MUL DUP1 CALLDATASIZE DUP4 CALLDATACOPY DUP1 DUP3 ADD SWAP2 POP POP SWAP1 POP JUMPDEST POP SWAP1 POP PUSH1 0x0 PUSH1 0x3 SLOAD PUSH8 0xFFFFFFFFFFFFFFFF DUP2 GT ISZERO PUSH2 0x826 JUMPI PUSH2 0x825 PUSH2 0x1511 JUMP JUMPDEST JUMPDEST PUSH1 0x40 MLOAD SWAP1 DUP1 DUP3 MSTORE DUP1 PUSH1 0x20 MUL PUSH1 0x20 ADD DUP3 ADD PUSH1 0x40 MSTORE DUP1 ISZERO PUSH2 0x854 JUMPI DUP2 PUSH1 0x20 ADD PUSH1 0x20 DUP3 MUL DUP1 CALLDATASIZE DUP4 CALLDATACOPY DUP1 DUP3 ADD SWAP2 POP POP SWAP1 POP JUMPDEST POP SWAP1 POP PUSH1 0x0 JUMPDEST PUSH1 0x3 SLOAD DUP2 LT ISZERO PUSH2 0x9E3 JUMPI PUSH1 0x0 PUSH1 0x1 PUSH1 0x0 DUP4 DUP2 MSTORE PUSH1 0x20 ADD SWAP1 DUP2 MSTORE PUSH1 0x20 ADD PUSH1 0x0 KECCAK256 SWAP1 POP DUP1 PUSH1 0x1 ADD DUP1 SLOAD PUSH2 0x88A SWAP1 PUSH2 0x13D8 JUMP JUMPDEST DUP1 PUSH1 0x1F ADD PUSH1 0x20 DUP1 SWAP2 DIV MUL PUSH1 0x20 ADD PUSH1 0x40 MLOAD SWAP1 DUP2 ADD PUSH1 0x40 MSTORE DUP1 SWAP3 SWAP2 SWAP1 DUP2 DUP2 MSTORE PUSH1 0x20 ADD DUP3 DUP1 SLOAD PUSH2 0x8B6 SWAP1 PUSH2 0x13D8 JUMP JUMPDEST DUP1 ISZERO PUSH2 0x903 JUMPI DUP1 PUSH1 0x1F LT PUSH2 0x8D8 JUMPI PUSH2 0x100 DUP1 DUP4 SLOAD DIV MUL DUP4 MSTORE SWAP2 PUSH1 0x20 ADD SWAP2 PUSH2 0x903 JUMP JUMPDEST DUP3 ADD SWAP2 SWAP1 PUSH1 0x0 MSTORE PUSH1 0x20 PUSH1 0x0 KECCAK256 SWAP1 JUMPDEST DUP2 SLOAD DUP2 MSTORE SWAP1 PUSH1 0x1 ADD SWAP1 PUSH1 0x20 ADD DUP1 DUP4 GT PUSH2 0x8E6 JUMPI DUP3 SWAP1 SUB PUSH1 0x1F AND DUP3 ADD SWAP2 JUMPDEST POP POP POP POP POP DUP6 DUP4 DUP2 MLOAD DUP2 LT PUSH2 0x91B JUMPI PUSH2 0x91A PUSH2 0x14E2 JUMP JUMPDEST JUMPDEST PUSH1 0x20 MUL PUSH1 0x20 ADD ADD DUP2 SWAP1 MSTORE POP DUP1 PUSH1 0x2 ADD PUSH1 0x0 SWAP1 SLOAD SWAP1 PUSH2 0x100 EXP SWAP1 DIV PUSH20 0xFFFFFFFFFFFFFFFFFFFFFFFFFFFFFFFFFFFFFFFF AND DUP5 DUP4 DUP2 MLOAD DUP2 LT PUSH2 0x95E JUMPI PUSH2 0x95D PUSH2 0x14E2 JUMP JUMPDEST JUMPDEST PUSH1 0x20 MUL PUSH1 0x20 ADD ADD SWAP1 PUSH20 0xFFFFFFFFFFFFFFFFFFFFFFFFFFFFFFFFFFFFFFFF AND SWAP1 DUP2 PUSH20 0xFFFFFFFFFFFFFFFFFFFFFFFFFFFFFFFFFFFFFFFF AND DUP2 MSTORE POP POP DUP1 PUSH1 0x2 ADD PUSH1 0x14 SWAP1 SLOAD SWAP1 PUSH2 0x100 EXP SWAP1 DIV PUSH1 0xFF AND DUP4 DUP4 DUP2 MLOAD DUP2 LT PUSH2 0x9BD JUMPI PUSH2 0x9BC PUSH2 0x14E2 JUMP JUMPDEST JUMPDEST PUSH1 0x20 MUL PUSH1 0x20 ADD ADD SWAP1 ISZERO ISZERO SWAP1 DUP2 ISZERO ISZERO DUP2 MSTORE POP POP POP DUP1 DUP1 PUSH2 0x9DB SWAP1 PUSH2 0x143B JUMP JUMPDEST SWAP2 POP POP PUSH2 0x85A JUMP JUMPDEST POP DUP3 DUP3 DUP3 SWAP6 POP SWAP6 POP SWAP6 POP POP POP POP SWAP1 SWAP2 SWAP3 JUMP JUMPDEST PUSH1 0x1 PUSH1 0x20 MSTORE DUP1 PUSH1 0x0 MSTORE PUSH1 0x40 PUSH1 0x0 KECCAK256 PUSH1 0x0 SWAP2 POP SWAP1 POP DUP1 PUSH1 0x0 ADD SLOAD SWAP1 DUP1 PUSH1 0x1 ADD DUP1 SLOAD PUSH2 0xA1E SWAP1 PUSH2 0x13D8 JUMP JUMPDEST DUP1 PUSH1 0x1F ADD PUSH1 0x20 DUP1 SWAP2 DIV MUL PUSH1 0x20 ADD PUSH1 0x40 MLOAD SWAP1 DUP2 ADD PUSH1 0x40 MSTORE DUP1 SWAP3 SWAP2 SWAP1 DUP2 DUP2 MSTORE PUSH1 0x20 ADD DUP3 DUP1 SLOAD PUSH2 0xA4A SWAP1 PUSH2 0x13D8 JUMP JUMPDEST DUP1 ISZERO PUSH2 0xA97 JUMPI DUP1 PUSH1 0x1F LT PUSH2 0xA6C JUMPI PUSH2 0x100 DUP1 DUP4 SLOAD DIV MUL DUP4 MSTORE SWAP2 PUSH1 0x20 ADD SWAP2 PUSH2 0xA97 JUMP JUMPDEST DUP3 ADD SWAP2 SWAP1 PUSH1 0x0 MSTORE PUSH1 0x20 PUSH1 0x0 KECCAK256 SWAP1 JUMPDEST DUP2 SLOAD DUP2 MSTORE SWAP1 PUSH1 0x1 ADD SWAP1 PUSH1 0x20 ADD DUP1 DUP4 GT PUSH2 0xA7A JUMPI DUP3 SWAP1 SUB PUSH1 0x1F AND DUP3 ADD SWAP2 JUMPDEST POP POP POP POP POP SWAP1 DUP1 PUSH1 0x2 ADD PUSH1 0x0 SWAP1 SLOAD SWAP1 PUSH2 0x100 EXP SWAP1 DIV PUSH20 0xFFFFFFFFFFFFFFFFFFFFFFFFFFFFFFFFFFFFFFFF AND SWAP1 DUP1 PUSH1 0x2 ADD PUSH1 0x14 SWAP1 SLOAD SWAP1 PUSH2 0x100 EXP SWAP1 DIV PUSH1 0xFF AND SWAP1 POP DUP5 JUMP JUMPDEST DUP3 DUP1 SLOAD PUSH2 0xAE6 SWAP1 PUSH2 0x13D8 JUMP JUMPDEST SWAP1 PUSH1 0x0 MSTORE PUSH1 0x20 PUSH1 0x0 KECCAK256 SWAP1 PUSH1 0x1F ADD PUSH1 0x20 SWAP1 DIV DUP2 ADD SWAP3 DUP3 PUSH2 0xB08 JUMPI PUSH1 0x0 DUP6 SSTORE PUSH2 0xB4F JUMP JUMPDEST DUP3 PUSH1 0x1F LT PUSH2 0xB21 JUMPI DUP1 MLOAD PUSH1 0xFF NOT AND DUP4 DUP1 ADD OR DUP6 SSTORE PUSH2 0xB4F JUMP JUMPDEST DUP3 DUP1 ADD PUSH1 0x1 ADD DUP6 SSTORE DUP3 ISZERO PUSH2 0xB4F JUMPI SWAP2 DUP3 ADD JUMPDEST DUP3 DUP2 GT ISZERO PUSH2 0xB4E JUMPI DUP3 MLOAD DUP3 SSTORE SWAP2 PUSH1 0x20 ADD SWAP2 SWAP1 PUSH1 0x1 ADD SWAP1 PUSH2 0xB33 JUMP JUMPDEST JUMPDEST POP SWAP1 POP PUSH2 0xB5C SWAP2 SWAP1 PUSH2 0xBA0 JUMP JUMPDEST POP SWAP1 JUMP JUMPDEST PUSH1 0x40 MLOAD DUP1 PUSH1 0x80 ADD PUSH1 0x40 MSTORE DUP1 PUSH1 0x0 DUP2 MSTORE PUSH1 0x20 ADD PUSH1 0x60 DUP2 MSTORE PUSH1 0x20 ADD PUSH1 0x0 PUSH20 0xFFFFFFFFFFFFFFFFFFFFFFFFFFFFFFFFFFFFFFFF AND DUP2 MSTORE PUSH1 0x20 ADD PUSH1 0x0 ISZERO ISZERO DUP2 MSTORE POP SWAP1 JUMP JUMPDEST JUMPDEST DUP1 DUP3 GT ISZERO PUSH2 0xBB9 JUMPI PUSH1 0x0 DUP2 PUSH1 0x0 SWAP1 SSTORE POP PUSH1 0x1 ADD PUSH2 0xBA1 JUMP JUMPDEST POP SWAP1 JUMP JUMPDEST PUSH1 0x0 PUSH2 0xBD0 PUSH2 0xBCB DUP5 PUSH2 0x1201 JUMP JUMPDEST PUSH2 0x11DC JUMP JUMPDEST SWAP1 POP DUP3 DUP2 MSTORE PUSH1 0x20 DUP2 ADD DUP5 DUP5 DUP5 ADD GT ISZERO PUSH2 0xBEC JUMPI PUSH2 0xBEB PUSH2 0x1545 JUMP JUMPDEST JUMPDEST PUSH2 0xBF7 DUP5 DUP3 DUP6 PUSH2 0x1396 JUMP JUMPDEST POP SWAP4 SWAP3 POP POP POP JUMP JUMPDEST PUSH1 0x0 DUP2 CALLDATALOAD SWAP1 POP PUSH2 0xC0E DUP2 PUSH2 0x1565 JUMP JUMPDEST SWAP3 SWAP2 POP POP JUMP JUMPDEST PUSH1 0x0 DUP3 PUSH1 0x1F DUP4 ADD SLT PUSH2 0xC29 JUMPI PUSH2 0xC28 PUSH2 0x1540 JUMP JUMPDEST JUMPDEST DUP2 CALLDATALOAD PUSH2 0xC39 DUP5 DUP3 PUSH1 0x20 DUP7 ADD PUSH2 0xBBD JUMP JUMPDEST SWAP2 POP POP SWAP3 SWAP2 POP POP JUMP JUMPDEST PUSH1 0x0 DUP2 CALLDATALOAD SWAP1 POP PUSH2 0xC51 DUP2 PUSH2 0x157C JUMP JUMPDEST SWAP3 SWAP2 POP POP JUMP JUMPDEST PUSH1 0x0 PUSH1 0x20 DUP3 DUP5 SUB SLT ISZERO PUSH2 0xC6D JUMPI PUSH2 0xC6C PUSH2 0x154F JUMP JUMPDEST JUMPDEST PUSH1 0x0 DUP3 ADD CALLDATALOAD PUSH8 0xFFFFFFFFFFFFFFFF DUP2 GT ISZERO PUSH2 0xC8B JUMPI PUSH2 0xC8A PUSH2 0x154A JUMP JUMPDEST JUMPDEST PUSH2 0xC97 DUP5 DUP3 DUP6 ADD PUSH2 0xC14 JUMP JUMPDEST SWAP2 POP POP SWAP3 SWAP2 POP POP JUMP JUMPDEST PUSH1 0x0 PUSH1 0x20 DUP3 DUP5 SUB SLT ISZERO PUSH2 0xCB6 JUMPI PUSH2 0xCB5 PUSH2 0x154F JUMP JUMPDEST JUMPDEST PUSH1 0x0 PUSH2 0xCC4 DUP5 DUP3 DUP6 ADD PUSH2 0xC42 JUMP JUMPDEST SWAP2 POP POP SWAP3 SWAP2 POP POP JUMP JUMPDEST PUSH1 0x0 DUP1 PUSH1 0x40 DUP4 DUP6 SUB SLT ISZERO PUSH2 0xCE4 JUMPI PUSH2 0xCE3 PUSH2 0x154F JUMP JUMPDEST JUMPDEST PUSH1 0x0 PUSH2 0xCF2 DUP6 DUP3 DUP7 ADD PUSH2 0xC42 JUMP JUMPDEST SWAP3 POP POP PUSH1 0x20 PUSH2 0xD03 DUP6 DUP3 DUP7 ADD PUSH2 0xBFF JUMP JUMPDEST SWAP2 POP POP SWAP3 POP SWAP3 SWAP1 POP JUMP JUMPDEST PUSH1 0x0 PUSH2 0xD19 DUP4 DUP4 PUSH2 0xD65 JUMP JUMPDEST PUSH1 0x20 DUP4 ADD SWAP1 POP SWAP3 SWAP2 POP POP JUMP JUMPDEST PUSH1 0x0 PUSH2 0xD31 DUP4 DUP4 PUSH2 0xF29 JUMP JUMPDEST PUSH1 0x20 DUP4 ADD SWAP1 POP SWAP3 SWAP2 POP POP JUMP JUMPDEST PUSH1 0x0 PUSH2 0xD49 DUP4 DUP4 PUSH2 0xF47 JUMP JUMPDEST SWAP1 POP SWAP3 SWAP2 POP POP JUMP JUMPDEST PUSH1 0x0 PUSH2 0xD5D DUP4 DUP4 PUSH2 0xFEA JUMP JUMPDEST SWAP1 POP SWAP3 SWAP2 POP POP JUMP JUMPDEST PUSH2 0xD6E DUP2 PUSH2 0x134E JUMP JUMPDEST DUP3 MSTORE POP POP JUMP JUMPDEST PUSH2 0xD7D DUP2 PUSH2 0x134E JUMP JUMPDEST DUP3 MSTORE POP POP JUMP JUMPDEST PUSH1 0x0 PUSH2 0xD8E DUP3 PUSH2 0x1272 JUMP JUMPDEST PUSH2 0xD98 DUP2 DUP6 PUSH2 0x12DD JUMP JUMPDEST SWAP4 POP PUSH2 0xDA3 DUP4 PUSH2 0x1232 JUMP JUMPDEST DUP1 PUSH1 0x0 JUMPDEST DUP4 DUP2 LT ISZERO PUSH2 0xDD4 JUMPI DUP2 MLOAD PUSH2 0xDBB DUP9 DUP3 PUSH2 0xD0D JUMP JUMPDEST SWAP8 POP PUSH2 0xDC6 DUP4 PUSH2 0x12A9 JUMP JUMPDEST SWAP3 POP POP PUSH1 0x1 DUP2 ADD SWAP1 POP PUSH2 0xDA7 JUMP JUMPDEST POP DUP6 SWAP4 POP POP POP POP SWAP3 SWAP2 POP POP JUMP JUMPDEST PUSH1 0x0 PUSH2 0xDEC DUP3 PUSH2 0x127D JUMP JUMPDEST PUSH2 0xDF6 DUP2 DUP6 PUSH2 0x12EE JUMP JUMPDEST SWAP4 POP PUSH2 0xE01 DUP4 PUSH2 0x1242 JUMP JUMPDEST DUP1 PUSH1 0x0 JUMPDEST DUP4 DUP2 LT ISZERO PUSH2 0xE32 JUMPI DUP2 MLOAD PUSH2 0xE19 DUP9 DUP3 PUSH2 0xD25 JUMP JUMPDEST SWAP8 POP PUSH2 0xE24 DUP4 PUSH2 0x12B6 JUMP JUMPDEST SWAP3 POP POP PUSH1 0x1 DUP2 ADD SWAP1 POP PUSH2 0xE05 JUMP JUMPDEST POP DUP6 SWAP4 POP POP POP POP SWAP3 SWAP2 POP POP JUMP JUMPDEST PUSH1 0x0 PUSH2 0xE4A DUP3 PUSH2 0x1288 JUMP JUMPDEST PUSH2 0xE54 DUP2 DUP6 PUSH2 0x12FF JUMP JUMPDEST SWAP4 POP DUP4 PUSH1 0x20 DUP3 MUL DUP6 ADD PUSH2 0xE66 DUP6 PUSH2 0x1252 JUMP JUMPDEST DUP1 PUSH1 0x0 JUMPDEST DUP6 DUP2 LT ISZERO PUSH2 0xEA2 JUMPI DUP5 DUP5 SUB DUP10 MSTORE DUP2 MLOAD PUSH2 0xE83 DUP6 DUP3 PUSH2 0xD3D JUMP JUMPDEST SWAP5 POP PUSH2 0xE8E DUP4 PUSH2 0x12C3 JUMP JUMPDEST SWAP3 POP PUSH1 0x20 DUP11 ADD SWAP10 POP POP PUSH1 0x1 DUP2 ADD SWAP1 POP PUSH2 0xE6A JUMP JUMPDEST POP DUP3 SWAP8 POP DUP8 SWAP6 POP POP POP POP POP POP SWAP3 SWAP2 POP POP JUMP JUMPDEST PUSH1 0x0 PUSH2 0xEBF DUP3 PUSH2 0x1293 JUMP JUMPDEST PUSH2 0xEC9 DUP2 DUP6 PUSH2 0x1310 JUMP JUMPDEST SWAP4 POP DUP4 PUSH1 0x20 DUP3 MUL DUP6 ADD PUSH2 0xEDB DUP6 PUSH2 0x1262 JUMP JUMPDEST DUP1 PUSH1 0x0 JUMPDEST DUP6 DUP2 LT ISZERO PUSH2 0xF17 JUMPI DUP5 DUP5 SUB DUP10 MSTORE DUP2 MLOAD PUSH2 0xEF8 DUP6 DUP3 PUSH2 0xD51 JUMP JUMPDEST SWAP5 POP PUSH2 0xF03 DUP4 PUSH2 0x12D0 JUMP JUMPDEST SWAP3 POP PUSH1 0x20 DUP11 ADD SWAP10 POP POP PUSH1 0x1 DUP2 ADD SWAP1 POP PUSH2 0xEDF JUMP JUMPDEST POP DUP3 SWAP8 POP DUP8 SWAP6 POP POP POP POP POP POP SWAP3 SWAP2 POP POP JUMP JUMPDEST PUSH2 0xF32 DUP2 PUSH2 0x1360 JUMP JUMPDEST DUP3 MSTORE POP POP JUMP JUMPDEST PUSH2 0xF41 DUP2 PUSH2 0x1360 JUMP JUMPDEST DUP3 MSTORE POP POP JUMP JUMPDEST PUSH1 0x0 PUSH2 0xF52 DUP3 PUSH2 0x129E JUMP JUMPDEST PUSH2 0xF5C DUP2 DUP6 PUSH2 0x1321 JUMP JUMPDEST SWAP4 POP PUSH2 0xF6C DUP2 DUP6 PUSH1 0x20 DUP7 ADD PUSH2 0x13A5 JUMP JUMPDEST PUSH2 0xF75 DUP2 PUSH2 0x1554 JUMP JUMPDEST DUP5 ADD SWAP2 POP POP SWAP3 SWAP2 POP POP JUMP JUMPDEST PUSH1 0x0 PUSH2 0xF8B DUP3 PUSH2 0x129E JUMP JUMPDEST PUSH2 0xF95 DUP2 DUP6 PUSH2 0x1332 JUMP JUMPDEST SWAP4 POP PUSH2 0xFA5 DUP2 DUP6 PUSH1 0x20 DUP7 ADD PUSH2 0x13A5 JUMP JUMPDEST PUSH2 0xFAE DUP2 PUSH2 0x1554 JUMP JUMPDEST DUP5 ADD SWAP2 POP POP SWAP3 SWAP2 POP POP JUMP JUMPDEST PUSH1 0x0 PUSH2 0xFC4 DUP3 PUSH2 0x129E JUMP JUMPDEST PUSH2 0xFCE DUP2 DUP6 PUSH2 0x1343 JUMP JUMPDEST SWAP4 POP PUSH2 0xFDE DUP2 DUP6 PUSH1 0x20 DUP7 ADD PUSH2 0x13A5 JUMP JUMPDEST DUP1 DUP5 ADD SWAP2 POP POP SWAP3 SWAP2 POP POP JUMP JUMPDEST PUSH1 0x0 PUSH1 0x80 DUP4 ADD PUSH1 0x0 DUP4 ADD MLOAD PUSH2 0x1002 PUSH1 0x0 DUP7 ADD DUP3 PUSH2 0x10B0 JUMP JUMPDEST POP PUSH1 0x20 DUP4 ADD MLOAD DUP5 DUP3 SUB PUSH1 0x20 DUP7 ADD MSTORE PUSH2 0x101A DUP3 DUP3 PUSH2 0xF47 JUMP JUMPDEST SWAP2 POP POP PUSH1 0x40 DUP4 ADD MLOAD PUSH2 0x102F PUSH1 0x40 DUP7 ADD DUP3 PUSH2 0xD65 JUMP JUMPDEST POP PUSH1 0x60 DUP4 ADD MLOAD PUSH2 0x1042 PUSH1 0x60 DUP7 ADD DUP3 PUSH2 0xF29 JUMP JUMPDEST POP DUP1 SWAP2 POP POP SWAP3 SWAP2 POP POP JUMP JUMPDEST PUSH1 0x0 PUSH1 0x80 DUP4 ADD PUSH1 0x0 DUP4 ADD MLOAD PUSH2 0x1065 PUSH1 0x0 DUP7 ADD DUP3 PUSH2 0x10B0 JUMP JUMPDEST POP PUSH1 0x20 DUP4 ADD MLOAD DUP5 DUP3 SUB PUSH1 0x20 DUP7 ADD MSTORE PUSH2 0x107D DUP3 DUP3 PUSH2 0xF47 JUMP JUMPDEST SWAP2 POP POP PUSH1 0x40 DUP4 ADD MLOAD PUSH2 0x1092 PUSH1 0x40 DUP7 ADD DUP3 PUSH2 0xD65 JUMP JUMPDEST POP PUSH1 0x60 DUP4 ADD MLOAD PUSH2 0x10A5 PUSH1 0x60 DUP7 ADD DUP3 PUSH2 0xF29 JUMP JUMPDEST POP DUP1 SWAP2 POP POP SWAP3 SWAP2 POP POP JUMP JUMPDEST PUSH2 0x10B9 DUP2 PUSH2 0x138C JUMP JUMPDEST DUP3 MSTORE POP POP JUMP JUMPDEST PUSH2 0x10C8 DUP2 PUSH2 0x138C JUMP JUMPDEST DUP3 MSTORE POP POP JUMP JUMPDEST PUSH1 0x0 PUSH2 0x10DA DUP3 DUP5 PUSH2 0xFB9 JUMP JUMPDEST SWAP2 POP DUP2 SWAP1 POP SWAP3 SWAP2 POP POP JUMP JUMPDEST PUSH1 0x0 PUSH1 0x60 DUP3 ADD SWAP1 POP DUP2 DUP2 SUB PUSH1 0x0 DUP4 ADD MSTORE PUSH2 0x10FF DUP2 DUP7 PUSH2 0xE3F JUMP JUMPDEST SWAP1 POP DUP2 DUP2 SUB PUSH1 0x20 DUP4 ADD MSTORE PUSH2 0x1113 DUP2 DUP6 PUSH2 0xD83 JUMP JUMPDEST SWAP1 POP DUP2 DUP2 SUB PUSH1 0x40 DUP4 ADD MSTORE PUSH2 0x1127 DUP2 DUP5 PUSH2 0xDE1 JUMP JUMPDEST SWAP1 POP SWAP5 SWAP4 POP POP POP POP JUMP JUMPDEST PUSH1 0x0 PUSH1 0x20 DUP3 ADD SWAP1 POP DUP2 DUP2 SUB PUSH1 0x0 DUP4 ADD MSTORE PUSH2 0x114B DUP2 DUP5 PUSH2 0xEB4 JUMP JUMPDEST SWAP1 POP SWAP3 SWAP2 POP POP JUMP JUMPDEST PUSH1 0x0 PUSH1 0x20 DUP3 ADD SWAP1 POP DUP2 DUP2 SUB PUSH1 0x0 DUP4 ADD MSTORE PUSH2 0x116D DUP2 DUP5 PUSH2 0x104D JUMP JUMPDEST SWAP1 POP SWAP3 SWAP2 POP POP JUMP JUMPDEST PUSH1 0x0 PUSH1 0x20 DUP3 ADD SWAP1 POP PUSH2 0x118A PUSH1 0x0 DUP4 ADD DUP5 PUSH2 0x10BF JUMP JUMPDEST SWAP3 SWAP2 POP POP JUMP JUMPDEST PUSH1 0x0 PUSH1 0x80 DUP3 ADD SWAP1 POP PUSH2 0x11A5 PUSH1 0x0 DUP4 ADD DUP8 PUSH2 0x10BF JUMP JUMPDEST DUP2 DUP2 SUB PUSH1 0x20 DUP4 ADD MSTORE PUSH2 0x11B7 DUP2 DUP7 PUSH2 0xF80 JUMP JUMPDEST SWAP1 POP PUSH2 0x11C6 PUSH1 0x40 DUP4 ADD DUP6 PUSH2 0xD74 JUMP JUMPDEST PUSH2 0x11D3 PUSH1 0x60 DUP4 ADD DUP5 PUSH2 0xF38 JUMP JUMPDEST SWAP6 SWAP5 POP POP POP POP POP JUMP JUMPDEST PUSH1 0x0 PUSH2 0x11E6 PUSH2 0x11F7 JUMP JUMPDEST SWAP1 POP PUSH2 0x11F2 DUP3 DUP3 PUSH2 0x140A JUMP JUMPDEST SWAP2 SWAP1 POP JUMP JUMPDEST PUSH1 0x0 PUSH1 0x40 MLOAD SWAP1 POP SWAP1 JUMP JUMPDEST PUSH1 0x0 PUSH8 0xFFFFFFFFFFFFFFFF DUP3 GT ISZERO PUSH2 0x121C JUMPI PUSH2 0x121B PUSH2 0x1511 JUMP JUMPDEST JUMPDEST PUSH2 0x1225 DUP3 PUSH2 0x1554 JUMP JUMPDEST SWAP1 POP PUSH1 0x20 DUP2 ADD SWAP1 POP SWAP2 SWAP1 POP JUMP JUMPDEST PUSH1 0x0 DUP2 SWAP1 POP PUSH1 0x20 DUP3 ADD SWAP1 POP SWAP2 SWAP1 POP JUMP JUMPDEST PUSH1 0x0 DUP2 SWAP1 POP PUSH1 0x20 DUP3 ADD SWAP1 POP SWAP2 SWAP1 POP JUMP JUMPDEST PUSH1 0x0 DUP2 SWAP1 POP PUSH1 0x20 DUP3 ADD SWAP1 POP SWAP2 SWAP1 POP JUMP JUMPDEST PUSH1 0x0 DUP2 SWAP1 POP PUSH1 0x20 DUP3 ADD SWAP1 POP SWAP2 SWAP1 POP JUMP JUMPDEST PUSH1 0x0 DUP2 MLOAD SWAP1 POP SWAP2 SWAP1 POP JUMP JUMPDEST PUSH1 0x0 DUP2 MLOAD SWAP1 POP SWAP2 SWAP1 POP JUMP JUMPDEST PUSH1 0x0 DUP2 MLOAD SWAP1 POP SWAP2 SWAP1 POP JUMP JUMPDEST PUSH1 0x0 DUP2 MLOAD SWAP1 POP SWAP2 SWAP1 POP JUMP JUMPDEST PUSH1 0x0 DUP2 MLOAD SWAP1 POP SWAP2 SWAP1 POP JUMP JUMPDEST PUSH1 0x0 PUSH1 0x20 DUP3 ADD SWAP1 POP SWAP2 SWAP1 POP JUMP JUMPDEST PUSH1 0x0 PUSH1 0x20 DUP3 ADD SWAP1 POP SWAP2 SWAP1 POP JUMP JUMPDEST PUSH1 0x0 PUSH1 0x20 DUP3 ADD SWAP1 POP SWAP2 SWAP1 POP JUMP JUMPDEST PUSH1 0x0 PUSH1 0x20 DUP3 ADD SWAP1 POP SWAP2 SWAP1 POP JUMP JUMPDEST PUSH1 0x0 DUP3 DUP3 MSTORE PUSH1 0x20 DUP3 ADD SWAP1 POP SWAP3 SWAP2 POP POP JUMP JUMPDEST PUSH1 0x0 DUP3 DUP3 MSTORE PUSH1 0x20 DUP3 ADD SWAP1 POP SWAP3 SWAP2 POP POP JUMP JUMPDEST PUSH1 0x0 DUP3 DUP3 MSTORE PUSH1 0x20 DUP3 ADD SWAP1 POP SWAP3 SWAP2 POP POP JUMP JUMPDEST PUSH1 0x0 DUP3 DUP3 MSTORE PUSH1 0x20 DUP3 ADD SWAP1 POP SWAP3 SWAP2 POP POP JUMP JUMPDEST PUSH1 0x0 DUP3 DUP3 MSTORE PUSH1 0x20 DUP3 ADD SWAP1 POP SWAP3 SWAP2 POP POP JUMP JUMPDEST PUSH1 0x0 DUP3 DUP3 MSTORE PUSH1 0x20 DUP3 ADD SWAP1 POP SWAP3 SWAP2 POP POP JUMP JUMPDEST PUSH1 0x0 DUP2 SWAP1 POP SWAP3 SWAP2 POP POP JUMP JUMPDEST PUSH1 0x0 PUSH2 0x1359 DUP3 PUSH2 0x136C JUMP JUMPDEST SWAP1 POP SWAP2 SWAP1 POP JUMP JUMPDEST PUSH1 0x0 DUP2 ISZERO ISZERO SWAP1 POP SWAP2 SWAP1 POP JUMP JUMPDEST PUSH1 0x0 PUSH20 0xFFFFFFFFFFFFFFFFFFFFFFFFFFFFFFFFFFFFFFFF DUP3 AND SWAP1 POP SWAP2 SWAP1 POP JUMP JUMPDEST PUSH1 0x0 DUP2 SWAP1 POP SWAP2 SWAP1 POP JUMP JUMPDEST DUP3 DUP2 DUP4 CALLDATACOPY PUSH1 0x0 DUP4 DUP4 ADD MSTORE POP POP POP JUMP JUMPDEST PUSH1 0x0 JUMPDEST DUP4 DUP2 LT ISZERO PUSH2 0x13C3 JUMPI DUP1 DUP3 ADD MLOAD DUP2 DUP5 ADD MSTORE PUSH1 0x20 DUP2 ADD SWAP1 POP PUSH2 0x13A8 JUMP JUMPDEST DUP4 DUP2 GT ISZERO PUSH2 0x13D2 JUMPI PUSH1 0x0 DUP5 DUP5 ADD MSTORE JUMPDEST POP POP POP POP JUMP JUMPDEST PUSH1 0x0 PUSH1 0x2 DUP3 DIV SWAP1 POP PUSH1 0x1 DUP3 AND DUP1 PUSH2 0x13F0 JUMPI PUSH1 0x7F DUP3 AND SWAP2 POP JUMPDEST PUSH1 0x20 DUP3 LT DUP2 EQ ISZERO PUSH2 0x1404 JUMPI PUSH2 0x1403 PUSH2 0x14B3 JUMP JUMPDEST JUMPDEST POP SWAP2 SWAP1 POP JUMP JUMPDEST PUSH2 0x1413 DUP3 PUSH2 0x1554 JUMP JUMPDEST DUP2 ADD DUP2 DUP2 LT PUSH8 0xFFFFFFFFFFFFFFFF DUP3 GT OR ISZERO PUSH2 0x1432 JUMPI PUSH2 0x1431 PUSH2 0x1511 JUMP JUMPDEST JUMPDEST DUP1 PUSH1 0x40 MSTORE POP POP POP JUMP JUMPDEST PUSH1 0x0 PUSH2 0x1446 DUP3 PUSH2 0x138C JUMP JUMPDEST SWAP2 POP PUSH32 0xFFFFFFFFFFFFFFFFFFFFFFFFFFFFFFFFFFFFFFFFFFFFFFFFFFFFFFFFFFFFFFFF DUP3 EQ ISZERO PUSH2 0x1479 JUMPI PUSH2 0x1478 PUSH2 0x1484 JUMP JUMPDEST JUMPDEST PUSH1 0x1 DUP3 ADD SWAP1 POP SWAP2 SWAP1 POP JUMP JUMPDEST PUSH32 0x4E487B7100000000000000000000000000000000000000000000000000000000 PUSH1 0x0 MSTORE PUSH1 0x11 PUSH1 0x4 MSTORE PUSH1 0x24 PUSH1 0x0 REVERT JUMPDEST PUSH32 0x4E487B7100000000000000000000000000000000000000000000000000000000 PUSH1 0x0 MSTORE PUSH1 0x22 PUSH1 0x4 MSTORE PUSH1 0x24 PUSH1 0x0 REVERT JUMPDEST PUSH32 0x4E487B7100000000000000000000000000000000000000000000000000000000 PUSH1 0x0 MSTORE PUSH1 0x32 PUSH1 0x4 MSTORE PUSH1 0x24 PUSH1 0x0 REVERT JUMPDEST PUSH32 0x4E487B7100000000000000000000000000000000000000000000000000000000 PUSH1 0x0 MSTORE PUSH1 0x41 PUSH1 0x4 MSTORE PUSH1 0x24 PUSH1 0x0 REVERT JUMPDEST PUSH1 0x0 DUP1 REVERT JUMPDEST PUSH1 0x0 DUP1 REVERT JUMPDEST PUSH1 0x0 DUP1 REVERT JUMPDEST PUSH1 0x0 DUP1 REVERT JUMPDEST PUSH1 0x0 PUSH1 0x1F NOT PUSH1 0x1F DUP4 ADD AND SWAP1 POP SWAP2 SWAP1 POP JUMP JUMPDEST PUSH2 0x156E DUP2 PUSH2 0x1360 JUMP JUMPDEST DUP2 EQ PUSH2 0x1579 JUMPI PUSH1 0x0 DUP1 REVERT JUMPDEST POP JUMP JUMPDEST PUSH2 0x1585 DUP2 PUSH2 0x138C JUMP JUMPDEST DUP2 EQ PUSH2 0x1590 JUMPI PUSH1 0x0 DUP1 REVERT JUMPDEST POP JUMP INVALID LOG2 PUSH5 0x6970667358 0x22 SLT KECCAK256 SMOD 0x5E 0xBA CODESIZE 0x2D 0x25 0xBE CREATE2 0xE2 ISZERO 0xEE PUSH32 0xD6FFC837D075E55495B933B7499D82472FDFCFB964736F6C6343000807003300 "
				},
				"gasEstimates": {
					"creation": {
						"codeDepositCost": "1115400",
						"executionCost": "30440",
						"totalCost": "1145840"
					},
					"external": {
						"addDrug(string)": "infinite",
						"changeDrugStatus(uint256,bool)": "27175",
						"drugs(uint256)": "infinite",
						"drugsCount()": "2496",
						"get(string)": "infinite",
						"getDrug()": "infinite",
						"getDrugs()": "infinite",
						"newdrugs(string)": "infinite"
					}
				},
				"methodIdentifiers": {
					"addDrug(string)": "223883de",
					"changeDrugStatus(uint256,bool)": "e259effa",
					"drugs(uint256)": "fca5e61e",
					"drugsCount()": "92812e6f",
					"get(string)": "693ec85e",
					"getDrug()": "f2a50281",
					"getDrugs()": "5fb07a62",
					"newdrugs(string)": "b0d548df"
				}
			},
			"storageLayout": {
				"storage": [
					{
						"astId": 13,
						"contract": "contracts/Drugs.sol:Drugs",
						"label": "owner",
						"offset": 0,
						"slot": "0",
						"type": "t_address"
					},
					{
						"astId": 29,
						"contract": "contracts/Drugs.sol:Drugs",
						"label": "drugs",
						"offset": 0,
						"slot": "1",
						"type": "t_mapping(t_uint256,t_struct(Drug)11_storage)"
					},
					{
						"astId": 34,
						"contract": "contracts/Drugs.sol:Drugs",
						"label": "newdrugs",
						"offset": 0,
						"slot": "2",
						"type": "t_mapping(t_string_memory_ptr,t_struct(Drug)11_storage)"
					},
					{
						"astId": 36,
						"contract": "contracts/Drugs.sol:Drugs",
						"label": "drugsCount",
						"offset": 0,
						"slot": "3",
						"type": "t_uint256"
					}
				],
				"types": {
					"t_address": {
						"encoding": "inplace",
						"label": "address",
						"numberOfBytes": "20"
					},
					"t_bool": {
						"encoding": "inplace",
						"label": "bool",
						"numberOfBytes": "1"
					},
					"t_mapping(t_string_memory_ptr,t_struct(Drug)11_storage)": {
						"encoding": "mapping",
						"key": "t_string_memory_ptr",
						"label": "mapping(string => struct Drugs.Drug)",
						"numberOfBytes": "32",
						"value": "t_struct(Drug)11_storage"
					},
					"t_mapping(t_uint256,t_struct(Drug)11_storage)": {
						"encoding": "mapping",
						"key": "t_uint256",
						"label": "mapping(uint256 => struct Drugs.Drug)",
						"numberOfBytes": "32",
						"value": "t_struct(Drug)11_storage"
					},
					"t_string_memory_ptr": {
						"encoding": "bytes",
						"label": "string",
						"numberOfBytes": "32"
					},
					"t_string_storage": {
						"encoding": "bytes",
						"label": "string",
						"numberOfBytes": "32"
					},
					"t_struct(Drug)11_storage": {
						"encoding": "inplace",
						"label": "struct Drugs.Drug",
						"members": [
							{
								"astId": 4,
								"contract": "contracts/Drugs.sol:Drugs",
								"label": "DrugID",
								"offset": 0,
								"slot": "0",
								"type": "t_uint256"
							},
							{
								"astId": 6,
								"contract": "contracts/Drugs.sol:Drugs",
								"label": "RegNo",
								"offset": 0,
								"slot": "1",
								"type": "t_string_storage"
							},
							{
								"astId": 8,
								"contract": "contracts/Drugs.sol:Drugs",
								"label": "Manufacturer",
								"offset": 0,
								"slot": "2",
								"type": "t_address"
							},
							{
								"astId": 10,
								"contract": "contracts/Drugs.sol:Drugs",
								"label": "IsActive",
								"offset": 20,
								"slot": "2",
								"type": "t_bool"
							}
						],
						"numberOfBytes": "96"
					},
					"t_uint256": {
						"encoding": "inplace",
						"label": "uint256",
						"numberOfBytes": "32"
					}
				}
			},
			"userdoc": {
				"kind": "user",
				"methods": {},
				"version": 1
			}
		}
	}
}