{
	"contracts/Utils.sol": {
		"Utils": {
			"abi": [
				{
					"inputs": [
						{
							"internalType": "enum Utils.UserRoles",
							"name": "_role",
							"type": "uint8"
						}
					],
					"name": "GetUsersByType",
					"outputs": [
						{
							"components": [
								{
									"internalType": "string",
									"name": "UserID",
									"type": "string"
								},
								{
									"internalType": "string",
									"name": "UserName",
									"type": "string"
								},
								{
									"internalType": "enum Utils.UserRoles",
									"name": "UserRole",
									"type": "uint8"
								},
								{
									"internalType": "enum Utils.Statuses",
									"name": "UserStatus",
									"type": "uint8"
								},
								{
									"internalType": "uint256",
									"name": "Latitude",
									"type": "uint256"
								},
								{
									"internalType": "uint256",
									"name": "Longitude",
									"type": "uint256"
								},
								{
									"internalType": "address",
									"name": "UserAddress",
									"type": "address"
								}
							],
							"internalType": "struct Utils.User[]",
							"name": "filteredUsers",
							"type": "tuple[]"
						}
					],
					"stateMutability": "view",
					"type": "function"
				},
				{
					"inputs": [
						{
							"internalType": "string",
							"name": "_regno",
							"type": "string"
						}
					],
					"name": "ReadDrug",
					"outputs": [
						{
							"components": [
								{
									"internalType": "string",
									"name": "DrugName",
									"type": "string"
								},
								{
									"internalType": "address",
									"name": "Manufacturer",
									"type": "address"
								},
								{
									"internalType": "enum Utils.Statuses",
									"name": "DrugStatus",
									"type": "uint8"
								}
							],
							"internalType": "struct Utils.Drug",
							"name": "",
							"type": "tuple"
						}
					],
					"stateMutability": "view",
					"type": "function"
				},
				{
					"inputs": [
						{
							"internalType": "address",
							"name": "_address",
							"type": "address"
						}
					],
					"name": "ReadUser",
					"outputs": [
						{
							"components": [
								{
									"internalType": "string",
									"name": "UserID",
									"type": "string"
								},
								{
									"internalType": "string",
									"name": "UserName",
									"type": "string"
								},
								{
									"internalType": "enum Utils.UserRoles",
									"name": "UserRole",
									"type": "uint8"
								},
								{
									"internalType": "enum Utils.Statuses",
									"name": "UserStatus",
									"type": "uint8"
								},
								{
									"internalType": "uint256",
									"name": "Latitude",
									"type": "uint256"
								},
								{
									"internalType": "uint256",
									"name": "Longitude",
									"type": "uint256"
								},
								{
									"internalType": "address",
									"name": "UserAddress",
									"type": "address"
								}
							],
							"internalType": "struct Utils.User",
							"name": "",
							"type": "tuple"
						}
					],
					"stateMutability": "view",
					"type": "function"
				}
			],
			"devdoc": {
				"kind": "dev",
				"methods": {},
				"version": 1
			},
			"evm": {
				"assembly": "    /* \"contracts/Utils.sol\":99:2052  contract Utils{\r... */\n  mstore(0x40, 0x80)\n  callvalue\n  dup1\n  iszero\n  tag_1\n  jumpi\n  0x00\n  dup1\n  revert\ntag_1:\n  pop\n  dataSize(sub_0)\n  dup1\n  dataOffset(sub_0)\n  0x00\n  codecopy\n  0x00\n  return\nstop\n\nsub_0: assembly {\n        /* \"contracts/Utils.sol\":99:2052  contract Utils{\r... */\n      mstore(0x40, 0x80)\n      callvalue\n      dup1\n      iszero\n      tag_1\n      jumpi\n      0x00\n      dup1\n      revert\n    tag_1:\n      pop\n      jumpi(tag_2, lt(calldatasize, 0x04))\n      shr(0xe0, calldataload(0x00))\n      dup1\n      0x0f9de977\n      eq\n      tag_3\n      jumpi\n      dup1\n      0xcd1720d1\n      eq\n      tag_4\n      jumpi\n      dup1\n      0xcdf7e73d\n      eq\n      tag_5\n      jumpi\n    tag_2:\n      0x00\n      dup1\n      revert\n        /* \"contracts/Utils.sol\":837:1512  function GetUsersByType(UserRoles _role)\r... */\n    tag_3:\n      tag_6\n      0x04\n      dup1\n      calldatasize\n      sub\n      dup2\n      add\n      swap1\n      tag_7\n      swap2\n      swap1\n      tag_8\n      jump\t// in\n    tag_7:\n      tag_9\n      jump\t// in\n    tag_6:\n      mload(0x40)\n      tag_10\n      swap2\n      swap1\n      tag_11\n      jump\t// in\n    tag_10:\n      mload(0x40)\n      dup1\n      swap2\n      sub\n      swap1\n      return\n        /* \"contracts/Utils.sol\":701:825  function ReadUser(address _address) public view returns (User memory) {\r... */\n    tag_4:\n      tag_12\n      0x04\n      dup1\n      calldatasize\n      sub\n      dup2\n      add\n      swap1\n      tag_13\n      swap2\n      swap1\n      tag_14\n      jump\t// in\n    tag_13:\n      tag_15\n      jump\t// in\n    tag_12:\n      mload(0x40)\n      tag_16\n      swap2\n      swap1\n      tag_17\n      jump\t// in\n    tag_16:\n      mload(0x40)\n      dup1\n      swap2\n      sub\n      swap1\n      return\n        /* \"contracts/Utils.sol\":1925:2049  function ReadDrug(string memory _regno) public view returns (Drug memory) {\r... */\n    tag_5:\n      tag_18\n      0x04\n      dup1\n      calldatasize\n      sub\n      dup2\n      add\n      swap1\n      tag_19\n      swap2\n      swap1\n      tag_20\n      jump\t// in\n    tag_19:\n      tag_21\n      jump\t// in\n    tag_18:\n      mload(0x40)\n      tag_22\n      swap2\n      swap1\n      tag_23\n      jump\t// in\n    tag_22:\n      mload(0x40)\n      dup1\n      swap2\n      sub\n      swap1\n      return\n        /* \"contracts/Utils.sol\":837:1512  function GetUsersByType(UserRoles _role)\r... */\n    tag_9:\n        /* \"contracts/Utils.sol\":926:953  User[] memory filteredUsers */\n      0x60\n        /* \"contracts/Utils.sol\":971:989  uint256 usersCount */\n      0x00\n        /* \"contracts/Utils.sol\":992:1006  UsersAddresses */\n      0x01\n        /* \"contracts/Utils.sol\":992:1013  UsersAddresses.length */\n      dup1\n      sload\n      swap1\n      pop\n        /* \"contracts/Utils.sol\":971:1013  uint256 usersCount = UsersAddresses.length */\n      swap1\n      pop\n        /* \"contracts/Utils.sol\":1024:1047  User[] memory usersTemp */\n      0x00\n        /* \"contracts/Utils.sol\":1061:1071  usersCount */\n      dup2\n        /* \"contracts/Utils.sol\":1050:1072  new User[](usersCount) */\n      0xffffffffffffffff\n      dup2\n      gt\n      iszero\n      tag_25\n      jumpi\n      tag_26\n      tag_27\n      jump\t// in\n    tag_26:\n    tag_25:\n      mload(0x40)\n      swap1\n      dup1\n      dup3\n      mstore\n      dup1\n      0x20\n      mul\n      0x20\n      add\n      dup3\n      add\n      0x40\n      mstore\n      dup1\n      iszero\n      tag_28\n      jumpi\n      dup2\n      0x20\n      add\n    tag_29:\n      tag_30\n      tag_31\n      jump\t// in\n    tag_30:\n      dup2\n      mstore\n      0x20\n      add\n      swap1\n      0x01\n      swap1\n      sub\n      swap1\n      dup2\n      tag_29\n      jumpi\n      swap1\n      pop\n    tag_28:\n      pop\n        /* \"contracts/Utils.sol\":1024:1072  User[] memory usersTemp = new User[](usersCount) */\n      swap1\n      pop\n        /* \"contracts/Utils.sol\":1083:1096  uint256 count */\n      0x00\n        /* \"contracts/Utils.sol\":1112:1121  uint256 i */\n      dup1\n        /* \"contracts/Utils.sol\":1124:1125  0 */\n      0x00\n        /* \"contracts/Utils.sol\":1112:1125  uint256 i = 0 */\n      swap1\n      pop\n        /* \"contracts/Utils.sol\":1107:1355  for (uint256 i = 0; i < usersCount; i++) {\r... */\n    tag_32:\n        /* \"contracts/Utils.sol\":1131:1141  usersCount */\n      dup4\n        /* \"contracts/Utils.sol\":1127:1128  i */\n      dup2\n        /* \"contracts/Utils.sol\":1127:1141  i < usersCount */\n      lt\n        /* \"contracts/Utils.sol\":1107:1355  for (uint256 i = 0; i < usersCount; i++) {\r... */\n      iszero\n      tag_33\n      jumpi\n        /* \"contracts/Utils.sol\":1217:1222  _role */\n      dup6\n        /* \"contracts/Utils.sol\":1167:1222  UserAddressMapping[UsersAddresses[i]].UserRole == _role */\n      0x06\n      dup2\n      gt\n      iszero\n      tag_35\n      jumpi\n      tag_36\n      tag_37\n      jump\t// in\n    tag_36:\n    tag_35:\n        /* \"contracts/Utils.sol\":1167:1185  UserAddressMapping */\n      0x00\n        /* \"contracts/Utils.sol\":1167:1204  UserAddressMapping[UsersAddresses[i]] */\n      dup1\n        /* \"contracts/Utils.sol\":1186:1200  UsersAddresses */\n      0x01\n        /* \"contracts/Utils.sol\":1201:1202  i */\n      dup5\n        /* \"contracts/Utils.sol\":1186:1203  UsersAddresses[i] */\n      dup2\n      sload\n      dup2\n      lt\n      tag_38\n      jumpi\n      tag_39\n      tag_40\n      jump\t// in\n    tag_39:\n    tag_38:\n      swap1\n      0x00\n      mstore\n      keccak256(0x00, 0x20)\n      add\n      0x00\n      swap1\n      sload\n      swap1\n      0x0100\n      exp\n      swap1\n      div\n      0xffffffffffffffffffffffffffffffffffffffff\n      and\n        /* \"contracts/Utils.sol\":1167:1204  UserAddressMapping[UsersAddresses[i]] */\n      0xffffffffffffffffffffffffffffffffffffffff\n      and\n      0xffffffffffffffffffffffffffffffffffffffff\n      and\n      dup2\n      mstore\n      0x20\n      add\n      swap1\n      dup2\n      mstore\n      0x20\n      add\n      0x00\n      keccak256\n        /* \"contracts/Utils.sol\":1167:1213  UserAddressMapping[UsersAddresses[i]].UserRole */\n      0x02\n      add\n      0x00\n      swap1\n      sload\n      swap1\n      0x0100\n      exp\n      swap1\n      div\n      0xff\n      and\n        /* \"contracts/Utils.sol\":1167:1222  UserAddressMapping[UsersAddresses[i]].UserRole == _role */\n      0x06\n      dup2\n      gt\n      iszero\n      tag_42\n      jumpi\n      tag_43\n      tag_37\n      jump\t// in\n    tag_43:\n    tag_42:\n      eq\n        /* \"contracts/Utils.sol\":1163:1344  if (UserAddressMapping[UsersAddresses[i]].UserRole == _role) {\r... */\n      iszero\n      tag_44\n      jumpi\n        /* \"contracts/Utils.sol\":1262:1280  UserAddressMapping */\n      0x00\n        /* \"contracts/Utils.sol\":1262:1299  UserAddressMapping[UsersAddresses[i]] */\n      dup1\n        /* \"contracts/Utils.sol\":1281:1295  UsersAddresses */\n      0x01\n        /* \"contracts/Utils.sol\":1296:1297  i */\n      dup4\n        /* \"contracts/Utils.sol\":1281:1298  UsersAddresses[i] */\n      dup2\n      sload\n      dup2\n      lt\n      tag_45\n      jumpi\n      tag_46\n      tag_40\n      jump\t// in\n    tag_46:\n    tag_45:\n      swap1\n      0x00\n      mstore\n      keccak256(0x00, 0x20)\n      add\n      0x00\n      swap1\n      sload\n      swap1\n      0x0100\n      exp\n      swap1\n      div\n      0xffffffffffffffffffffffffffffffffffffffff\n      and\n        /* \"contracts/Utils.sol\":1262:1299  UserAddressMapping[UsersAddresses[i]] */\n      0xffffffffffffffffffffffffffffffffffffffff\n      and\n      0xffffffffffffffffffffffffffffffffffffffff\n      and\n      dup2\n      mstore\n      0x20\n      add\n      swap1\n      dup2\n      mstore\n      0x20\n      add\n      0x00\n      keccak256\n        /* \"contracts/Utils.sol\":1243:1299  usersTemp[count] = UserAddressMapping[UsersAddresses[i]] */\n      mload(0x40)\n      dup1\n      0xe0\n      add\n      0x40\n      mstore\n      swap1\n      dup2\n      0x00\n      dup3\n      add\n      dup1\n      sload\n      tag_48\n      swap1\n      tag_49\n      jump\t// in\n    tag_48:\n      dup1\n      0x1f\n      add\n      0x20\n      dup1\n      swap2\n      div\n      mul\n      0x20\n      add\n      mload(0x40)\n      swap1\n      dup2\n      add\n      0x40\n      mstore\n      dup1\n      swap3\n      swap2\n      swap1\n      dup2\n      dup2\n      mstore\n      0x20\n      add\n      dup3\n      dup1\n      sload\n      tag_50\n      swap1\n      tag_49\n      jump\t// in\n    tag_50:\n      dup1\n      iszero\n      tag_51\n      jumpi\n      dup1\n      0x1f\n      lt\n      tag_52\n      jumpi\n      0x0100\n      dup1\n      dup4\n      sload\n      div\n      mul\n      dup4\n      mstore\n      swap2\n      0x20\n      add\n      swap2\n      jump(tag_51)\n    tag_52:\n      dup3\n      add\n      swap2\n      swap1\n      0x00\n      mstore\n      keccak256(0x00, 0x20)\n      swap1\n    tag_53:\n      dup2\n      sload\n      dup2\n      mstore\n      swap1\n      0x01\n      add\n      swap1\n      0x20\n      add\n      dup1\n      dup4\n      gt\n      tag_53\n      jumpi\n      dup3\n      swap1\n      sub\n      0x1f\n      and\n      dup3\n      add\n      swap2\n    tag_51:\n      pop\n      pop\n      pop\n      pop\n      pop\n      dup2\n      mstore\n      0x20\n      add\n      0x01\n      dup3\n      add\n      dup1\n      sload\n      tag_54\n      swap1\n      tag_49\n      jump\t// in\n    tag_54:\n      dup1\n      0x1f\n      add\n      0x20\n      dup1\n      swap2\n      div\n      mul\n      0x20\n      add\n      mload(0x40)\n      swap1\n      dup2\n      add\n      0x40\n      mstore\n      dup1\n      swap3\n      swap2\n      swap1\n      dup2\n      dup2\n      mstore\n      0x20\n      add\n      dup3\n      dup1\n      sload\n      tag_55\n      swap1\n      tag_49\n      jump\t// in\n    tag_55:\n      dup1\n      iszero\n      tag_56\n      jumpi\n      dup1\n      0x1f\n      lt\n      tag_57\n      jumpi\n      0x0100\n      dup1\n      dup4\n      sload\n      div\n      mul\n      dup4\n      mstore\n      swap2\n      0x20\n      add\n      swap2\n      jump(tag_56)\n    tag_57:\n      dup3\n      add\n      swap2\n      swap1\n      0x00\n      mstore\n      keccak256(0x00, 0x20)\n      swap1\n    tag_58:\n      dup2\n      sload\n      dup2\n      mstore\n      swap1\n      0x01\n      add\n      swap1\n      0x20\n      add\n      dup1\n      dup4\n      gt\n      tag_58\n      jumpi\n      dup3\n      swap1\n      sub\n      0x1f\n      and\n      dup3\n      add\n      swap2\n    tag_56:\n      pop\n      pop\n      pop\n      pop\n      pop\n      dup2\n      mstore\n      0x20\n      add\n      0x02\n      dup3\n      add\n      0x00\n      swap1\n      sload\n      swap1\n      0x0100\n      exp\n      swap1\n      div\n      0xff\n      and\n      0x06\n      dup2\n      gt\n      iszero\n      tag_59\n      jumpi\n      tag_60\n      tag_37\n      jump\t// in\n    tag_60:\n    tag_59:\n      0x06\n      dup2\n      gt\n      iszero\n      tag_61\n      jumpi\n      tag_62\n      tag_37\n      jump\t// in\n    tag_62:\n    tag_61:\n      dup2\n      mstore\n      0x20\n      add\n      0x02\n      dup3\n      add\n      0x01\n      swap1\n      sload\n      swap1\n      0x0100\n      exp\n      swap1\n      div\n      0xff\n      and\n      0x02\n      dup2\n      gt\n      iszero\n      tag_63\n      jumpi\n      tag_64\n      tag_37\n      jump\t// in\n    tag_64:\n    tag_63:\n      0x02\n      dup2\n      gt\n      iszero\n      tag_65\n      jumpi\n      tag_66\n      tag_37\n      jump\t// in\n    tag_66:\n    tag_65:\n      dup2\n      mstore\n      0x20\n      add\n      0x03\n      dup3\n      add\n      sload\n      dup2\n      mstore\n      0x20\n      add\n      0x04\n      dup3\n      add\n      sload\n      dup2\n      mstore\n      0x20\n      add\n      0x05\n      dup3\n      add\n      0x00\n      swap1\n      sload\n      swap1\n      0x0100\n      exp\n      swap1\n      div\n      0xffffffffffffffffffffffffffffffffffffffff\n      and\n      0xffffffffffffffffffffffffffffffffffffffff\n      and\n      0xffffffffffffffffffffffffffffffffffffffff\n      and\n      dup2\n      mstore\n      pop\n      pop\n        /* \"contracts/Utils.sol\":1243:1252  usersTemp */\n      dup4\n        /* \"contracts/Utils.sol\":1253:1258  count */\n      dup4\n        /* \"contracts/Utils.sol\":1243:1259  usersTemp[count] */\n      dup2\n      mload\n      dup2\n      lt\n      tag_67\n      jumpi\n      tag_68\n      tag_40\n      jump\t// in\n    tag_68:\n    tag_67:\n      0x20\n      mul\n      0x20\n      add\n      add\n        /* \"contracts/Utils.sol\":1243:1299  usersTemp[count] = UserAddressMapping[UsersAddresses[i]] */\n      dup2\n      swap1\n      mstore\n      pop\n        /* \"contracts/Utils.sol\":1327:1328  1 */\n      0x01\n        /* \"contracts/Utils.sol\":1318:1328  count += 1 */\n      dup3\n      tag_69\n      swap2\n      swap1\n      tag_70\n      jump\t// in\n    tag_69:\n      swap2\n      pop\n        /* \"contracts/Utils.sol\":1163:1344  if (UserAddressMapping[UsersAddresses[i]].UserRole == _role) {\r... */\n    tag_44:\n        /* \"contracts/Utils.sol\":1143:1146  i++ */\n      dup1\n      dup1\n      tag_71\n      swap1\n      tag_72\n      jump\t// in\n    tag_71:\n      swap2\n      pop\n      pop\n        /* \"contracts/Utils.sol\":1107:1355  for (uint256 i = 0; i < usersCount; i++) {\r... */\n      jump(tag_32)\n    tag_33:\n      pop\n        /* \"contracts/Utils.sol\":1394:1399  count */\n      dup1\n        /* \"contracts/Utils.sol\":1383:1400  new User[](count) */\n      0xffffffffffffffff\n      dup2\n      gt\n      iszero\n      tag_73\n      jumpi\n      tag_74\n      tag_27\n      jump\t// in\n    tag_74:\n    tag_73:\n      mload(0x40)\n      swap1\n      dup1\n      dup3\n      mstore\n      dup1\n      0x20\n      mul\n      0x20\n      add\n      dup3\n      add\n      0x40\n      mstore\n      dup1\n      iszero\n      tag_75\n      jumpi\n      dup2\n      0x20\n      add\n    tag_76:\n      tag_77\n      tag_31\n      jump\t// in\n    tag_77:\n      dup2\n      mstore\n      0x20\n      add\n      swap1\n      0x01\n      swap1\n      sub\n      swap1\n      dup2\n      tag_76\n      jumpi\n      swap1\n      pop\n    tag_75:\n      pop\n        /* \"contracts/Utils.sol\":1367:1400  filteredUsers = new User[](count) */\n      swap4\n      pop\n        /* \"contracts/Utils.sol\":1416:1425  uint256 i */\n      0x00\n        /* \"contracts/Utils.sol\":1411:1505  for (uint256 i = 0; i < count; i++) {\r... */\n    tag_78:\n        /* \"contracts/Utils.sol\":1435:1440  count */\n      dup2\n        /* \"contracts/Utils.sol\":1431:1432  i */\n      dup2\n        /* \"contracts/Utils.sol\":1431:1440  i < count */\n      lt\n        /* \"contracts/Utils.sol\":1411:1505  for (uint256 i = 0; i < count; i++) {\r... */\n      iszero\n      tag_79\n      jumpi\n        /* \"contracts/Utils.sol\":1481:1490  usersTemp */\n      dup3\n        /* \"contracts/Utils.sol\":1491:1492  i */\n      dup2\n        /* \"contracts/Utils.sol\":1481:1493  usersTemp[i] */\n      dup2\n      mload\n      dup2\n      lt\n      tag_81\n      jumpi\n      tag_82\n      tag_40\n      jump\t// in\n    tag_82:\n    tag_81:\n      0x20\n      mul\n      0x20\n      add\n      add\n      mload\n        /* \"contracts/Utils.sol\":1462:1475  filteredUsers */\n      dup6\n        /* \"contracts/Utils.sol\":1476:1477  i */\n      dup3\n        /* \"contracts/Utils.sol\":1462:1478  filteredUsers[i] */\n      dup2\n      mload\n      dup2\n      lt\n      tag_83\n      jumpi\n      tag_84\n      tag_40\n      jump\t// in\n    tag_84:\n    tag_83:\n      0x20\n      mul\n      0x20\n      add\n      add\n        /* \"contracts/Utils.sol\":1462:1493  filteredUsers[i] = usersTemp[i] */\n      dup2\n      swap1\n      mstore\n      pop\n        /* \"contracts/Utils.sol\":1442:1445  i++ */\n      dup1\n      dup1\n      tag_85\n      swap1\n      tag_72\n      jump\t// in\n    tag_85:\n      swap2\n      pop\n      pop\n        /* \"contracts/Utils.sol\":1411:1505  for (uint256 i = 0; i < count; i++) {\r... */\n      jump(tag_78)\n    tag_79:\n      pop\n        /* \"contracts/Utils.sol\":960:1512  {\r... */\n      pop\n      pop\n      pop\n        /* \"contracts/Utils.sol\":837:1512  function GetUsersByType(UserRoles _role)\r... */\n      swap2\n      swap1\n      pop\n      jump\t// out\n        /* \"contracts/Utils.sol\":701:825  function ReadUser(address _address) public view returns (User memory) {\r... */\n    tag_15:\n        /* \"contracts/Utils.sol\":758:769  User memory */\n      tag_86\n      tag_31\n      jump\t// in\n    tag_86:\n        /* \"contracts/Utils.sol\":789:807  UserAddressMapping */\n      0x00\n        /* \"contracts/Utils.sol\":789:817  UserAddressMapping[_address] */\n      dup1\n        /* \"contracts/Utils.sol\":808:816  _address */\n      dup4\n        /* \"contracts/Utils.sol\":789:817  UserAddressMapping[_address] */\n      0xffffffffffffffffffffffffffffffffffffffff\n      and\n      0xffffffffffffffffffffffffffffffffffffffff\n      and\n      dup2\n      mstore\n      0x20\n      add\n      swap1\n      dup2\n      mstore\n      0x20\n      add\n      0x00\n      keccak256\n        /* \"contracts/Utils.sol\":782:817  return UserAddressMapping[_address] */\n      mload(0x40)\n      dup1\n      0xe0\n      add\n      0x40\n      mstore\n      swap1\n      dup2\n      0x00\n      dup3\n      add\n      dup1\n      sload\n      tag_88\n      swap1\n      tag_49\n      jump\t// in\n    tag_88:\n      dup1\n      0x1f\n      add\n      0x20\n      dup1\n      swap2\n      div\n      mul\n      0x20\n      add\n      mload(0x40)\n      swap1\n      dup2\n      add\n      0x40\n      mstore\n      dup1\n      swap3\n      swap2\n      swap1\n      dup2\n      dup2\n      mstore\n      0x20\n      add\n      dup3\n      dup1\n      sload\n      tag_89\n      swap1\n      tag_49\n      jump\t// in\n    tag_89:\n      dup1\n      iszero\n      tag_90\n      jumpi\n      dup1\n      0x1f\n      lt\n      tag_91\n      jumpi\n      0x0100\n      dup1\n      dup4\n      sload\n      div\n      mul\n      dup4\n      mstore\n      swap2\n      0x20\n      add\n      swap2\n      jump(tag_90)\n    tag_91:\n      dup3\n      add\n      swap2\n      swap1\n      0x00\n      mstore\n      keccak256(0x00, 0x20)\n      swap1\n    tag_92:\n      dup2\n      sload\n      dup2\n      mstore\n      swap1\n      0x01\n      add\n      swap1\n      0x20\n      add\n      dup1\n      dup4\n      gt\n      tag_92\n      jumpi\n      dup3\n      swap1\n      sub\n      0x1f\n      and\n      dup3\n      add\n      swap2\n    tag_90:\n      pop\n      pop\n      pop\n      pop\n      pop\n      dup2\n      mstore\n      0x20\n      add\n      0x01\n      dup3\n      add\n      dup1\n      sload\n      tag_93\n      swap1\n      tag_49\n      jump\t// in\n    tag_93:\n      dup1\n      0x1f\n      add\n      0x20\n      dup1\n      swap2\n      div\n      mul\n      0x20\n      add\n      mload(0x40)\n      swap1\n      dup2\n      add\n      0x40\n      mstore\n      dup1\n      swap3\n      swap2\n      swap1\n      dup2\n      dup2\n      mstore\n      0x20\n      add\n      dup3\n      dup1\n      sload\n      tag_94\n      swap1\n      tag_49\n      jump\t// in\n    tag_94:\n      dup1\n      iszero\n      tag_95\n      jumpi\n      dup1\n      0x1f\n      lt\n      tag_96\n      jumpi\n      0x0100\n      dup1\n      dup4\n      sload\n      div\n      mul\n      dup4\n      mstore\n      swap2\n      0x20\n      add\n      swap2\n      jump(tag_95)\n    tag_96:\n      dup3\n      add\n      swap2\n      swap1\n      0x00\n      mstore\n      keccak256(0x00, 0x20)\n      swap1\n    tag_97:\n      dup2\n      sload\n      dup2\n      mstore\n      swap1\n      0x01\n      add\n      swap1\n      0x20\n      add\n      dup1\n      dup4\n      gt\n      tag_97\n      jumpi\n      dup3\n      swap1\n      sub\n      0x1f\n      and\n      dup3\n      add\n      swap2\n    tag_95:\n      pop\n      pop\n      pop\n      pop\n      pop\n      dup2\n      mstore\n      0x20\n      add\n      0x02\n      dup3\n      add\n      0x00\n      swap1\n      sload\n      swap1\n      0x0100\n      exp\n      swap1\n      div\n      0xff\n      and\n      0x06\n      dup2\n      gt\n      iszero\n      tag_98\n      jumpi\n      tag_99\n      tag_37\n      jump\t// in\n    tag_99:\n    tag_98:\n      0x06\n      dup2\n      gt\n      iszero\n      tag_100\n      jumpi\n      tag_101\n      tag_37\n      jump\t// in\n    tag_101:\n    tag_100:\n      dup2\n      mstore\n      0x20\n      add\n      0x02\n      dup3\n      add\n      0x01\n      swap1\n      sload\n      swap1\n      0x0100\n      exp\n      swap1\n      div\n      0xff\n      and\n      0x02\n      dup2\n      gt\n      iszero\n      tag_102\n      jumpi\n      tag_103\n      tag_37\n      jump\t// in\n    tag_103:\n    tag_102:\n      0x02\n      dup2\n      gt\n      iszero\n      tag_104\n      jumpi\n      tag_105\n      tag_37\n      jump\t// in\n    tag_105:\n    tag_104:\n      dup2\n      mstore\n      0x20\n      add\n      0x03\n      dup3\n      add\n      sload\n      dup2\n      mstore\n      0x20\n      add\n      0x04\n      dup3\n      add\n      sload\n      dup2\n      mstore\n      0x20\n      add\n      0x05\n      dup3\n      add\n      0x00\n      swap1\n      sload\n      swap1\n      0x0100\n      exp\n      swap1\n      div\n      0xffffffffffffffffffffffffffffffffffffffff\n      and\n      0xffffffffffffffffffffffffffffffffffffffff\n      and\n      0xffffffffffffffffffffffffffffffffffffffff\n      and\n      dup2\n      mstore\n      pop\n      pop\n      swap1\n      pop\n        /* \"contracts/Utils.sol\":701:825  function ReadUser(address _address) public view returns (User memory) {\r... */\n      swap2\n      swap1\n      pop\n      jump\t// out\n        /* \"contracts/Utils.sol\":1925:2049  function ReadDrug(string memory _regno) public view returns (Drug memory) {\r... */\n    tag_21:\n        /* \"contracts/Utils.sol\":1986:1997  Drug memory */\n      tag_106\n      tag_107\n      jump\t// in\n    tag_106:\n        /* \"contracts/Utils.sol\":2017:2033  DrugRegNoMapping */\n      0x02\n        /* \"contracts/Utils.sol\":2034:2040  _regno */\n      dup3\n        /* \"contracts/Utils.sol\":2017:2041  DrugRegNoMapping[_regno] */\n      mload(0x40)\n      tag_109\n      swap2\n      swap1\n      tag_110\n      jump\t// in\n    tag_109:\n      swap1\n      dup2\n      mstore\n      0x20\n      add\n      mload(0x40)\n      dup1\n      swap2\n      sub\n      swap1\n      keccak256\n        /* \"contracts/Utils.sol\":2010:2041  return DrugRegNoMapping[_regno] */\n      mload(0x40)\n      dup1\n      0x60\n      add\n      0x40\n      mstore\n      swap1\n      dup2\n      0x00\n      dup3\n      add\n      dup1\n      sload\n      tag_111\n      swap1\n      tag_49\n      jump\t// in\n    tag_111:\n      dup1\n      0x1f\n      add\n      0x20\n      dup1\n      swap2\n      div\n      mul\n      0x20\n      add\n      mload(0x40)\n      swap1\n      dup2\n      add\n      0x40\n      mstore\n      dup1\n      swap3\n      swap2\n      swap1\n      dup2\n      dup2\n      mstore\n      0x20\n      add\n      dup3\n      dup1\n      sload\n      tag_112\n      swap1\n      tag_49\n      jump\t// in\n    tag_112:\n      dup1\n      iszero\n      tag_113\n      jumpi\n      dup1\n      0x1f\n      lt\n      tag_114\n      jumpi\n      0x0100\n      dup1\n      dup4\n      sload\n      div\n      mul\n      dup4\n      mstore\n      swap2\n      0x20\n      add\n      swap2\n      jump(tag_113)\n    tag_114:\n      dup3\n      add\n      swap2\n      swap1\n      0x00\n      mstore\n      keccak256(0x00, 0x20)\n      swap1\n    tag_115:\n      dup2\n      sload\n      dup2\n      mstore\n      swap1\n      0x01\n      add\n      swap1\n      0x20\n      add\n      dup1\n      dup4\n      gt\n      tag_115\n      jumpi\n      dup3\n      swap1\n      sub\n      0x1f\n      and\n      dup3\n      add\n      swap2\n    tag_113:\n      pop\n      pop\n      pop\n      pop\n      pop\n      dup2\n      mstore\n      0x20\n      add\n      0x01\n      dup3\n      add\n      0x00\n      swap1\n      sload\n      swap1\n      0x0100\n      exp\n      swap1\n      div\n      0xffffffffffffffffffffffffffffffffffffffff\n      and\n      0xffffffffffffffffffffffffffffffffffffffff\n      and\n      0xffffffffffffffffffffffffffffffffffffffff\n      and\n      dup2\n      mstore\n      0x20\n      add\n      0x01\n      dup3\n      add\n      0x14\n      swap1\n      sload\n      swap1\n      0x0100\n      exp\n      swap1\n      div\n      0xff\n      and\n      0x02\n      dup2\n      gt\n      iszero\n      tag_116\n      jumpi\n      tag_117\n      tag_37\n      jump\t// in\n    tag_117:\n    tag_116:\n      0x02\n      dup2\n      gt\n      iszero\n      tag_118\n      jumpi\n      tag_119\n      tag_37\n      jump\t// in\n    tag_119:\n    tag_118:\n      dup2\n      mstore\n      pop\n      pop\n      swap1\n      pop\n        /* \"contracts/Utils.sol\":1925:2049  function ReadDrug(string memory _regno) public view returns (Drug memory) {\r... */\n      swap2\n      swap1\n      pop\n      jump\t// out\n    tag_31:\n      mload(0x40)\n      dup1\n      0xe0\n      add\n      0x40\n      mstore\n      dup1\n      0x60\n      dup2\n      mstore\n      0x20\n      add\n      0x60\n      dup2\n      mstore\n      0x20\n      add\n      0x00\n      0x06\n      dup2\n      gt\n      iszero\n      tag_120\n      jumpi\n      tag_121\n      tag_37\n      jump\t// in\n    tag_121:\n    tag_120:\n      dup2\n      mstore\n      0x20\n      add\n      0x00\n      0x02\n      dup2\n      gt\n      iszero\n      tag_122\n      jumpi\n      tag_123\n      tag_37\n      jump\t// in\n    tag_123:\n    tag_122:\n      dup2\n      mstore\n      0x20\n      add\n      0x00\n      dup2\n      mstore\n      0x20\n      add\n      0x00\n      dup2\n      mstore\n      0x20\n      add\n      and(0xffffffffffffffffffffffffffffffffffffffff, 0x00)\n      dup2\n      mstore\n      pop\n      swap1\n      jump\t// out\n    tag_107:\n      mload(0x40)\n      dup1\n      0x60\n      add\n      0x40\n      mstore\n      dup1\n      0x60\n      dup2\n      mstore\n      0x20\n      add\n      and(0xffffffffffffffffffffffffffffffffffffffff, 0x00)\n      dup2\n      mstore\n      0x20\n      add\n      0x00\n      0x02\n      dup2\n      gt\n      iszero\n      tag_124\n      jumpi\n      tag_125\n      tag_37\n      jump\t// in\n    tag_125:\n    tag_124:\n      dup2\n      mstore\n      pop\n      swap1\n      jump\t// out\n        /* \"#utility.yul\":7:419   */\n    tag_127:\n        /* \"#utility.yul\":85:90   */\n      0x00\n        /* \"#utility.yul\":110:176   */\n      tag_129\n        /* \"#utility.yul\":126:175   */\n      tag_130\n        /* \"#utility.yul\":168:174   */\n      dup5\n        /* \"#utility.yul\":126:175   */\n      tag_131\n      jump\t// in\n    tag_130:\n        /* \"#utility.yul\":110:176   */\n      tag_132\n      jump\t// in\n    tag_129:\n        /* \"#utility.yul\":101:176   */\n      swap1\n      pop\n        /* \"#utility.yul\":199:205   */\n      dup3\n        /* \"#utility.yul\":192:197   */\n      dup2\n        /* \"#utility.yul\":185:206   */\n      mstore\n        /* \"#utility.yul\":237:241   */\n      0x20\n        /* \"#utility.yul\":230:235   */\n      dup2\n        /* \"#utility.yul\":226:242   */\n      add\n        /* \"#utility.yul\":275:278   */\n      dup5\n        /* \"#utility.yul\":266:272   */\n      dup5\n        /* \"#utility.yul\":261:264   */\n      dup5\n        /* \"#utility.yul\":257:273   */\n      add\n        /* \"#utility.yul\":254:279   */\n      gt\n        /* \"#utility.yul\":251:363   */\n      iszero\n      tag_133\n      jumpi\n        /* \"#utility.yul\":282:361   */\n      tag_134\n      tag_135\n      jump\t// in\n    tag_134:\n        /* \"#utility.yul\":251:363   */\n    tag_133:\n        /* \"#utility.yul\":372:413   */\n      tag_136\n        /* \"#utility.yul\":406:412   */\n      dup5\n        /* \"#utility.yul\":401:404   */\n      dup3\n        /* \"#utility.yul\":396:399   */\n      dup6\n        /* \"#utility.yul\":372:413   */\n      tag_137\n      jump\t// in\n    tag_136:\n        /* \"#utility.yul\":91:419   */\n      pop\n        /* \"#utility.yul\":7:419   */\n      swap4\n      swap3\n      pop\n      pop\n      pop\n      jump\t// out\n        /* \"#utility.yul\":425:564   */\n    tag_138:\n        /* \"#utility.yul\":471:476   */\n      0x00\n        /* \"#utility.yul\":509:515   */\n      dup2\n        /* \"#utility.yul\":496:516   */\n      calldataload\n        /* \"#utility.yul\":487:516   */\n      swap1\n      pop\n        /* \"#utility.yul\":525:558   */\n      tag_140\n        /* \"#utility.yul\":552:557   */\n      dup2\n        /* \"#utility.yul\":525:558   */\n      tag_141\n      jump\t// in\n    tag_140:\n        /* \"#utility.yul\":425:564   */\n      swap3\n      swap2\n      pop\n      pop\n      jump\t// out\n        /* \"#utility.yul\":570:733   */\n    tag_142:\n        /* \"#utility.yul\":628:633   */\n      0x00\n        /* \"#utility.yul\":666:672   */\n      dup2\n        /* \"#utility.yul\":653:673   */\n      calldataload\n        /* \"#utility.yul\":644:673   */\n      swap1\n      pop\n        /* \"#utility.yul\":682:727   */\n      tag_144\n        /* \"#utility.yul\":721:726   */\n      dup2\n        /* \"#utility.yul\":682:727   */\n      tag_145\n      jump\t// in\n    tag_144:\n        /* \"#utility.yul\":570:733   */\n      swap3\n      swap2\n      pop\n      pop\n      jump\t// out\n        /* \"#utility.yul\":753:1093   */\n    tag_146:\n        /* \"#utility.yul\":809:814   */\n      0x00\n        /* \"#utility.yul\":858:861   */\n      dup3\n        /* \"#utility.yul\":851:855   */\n      0x1f\n        /* \"#utility.yul\":843:849   */\n      dup4\n        /* \"#utility.yul\":839:856   */\n      add\n        /* \"#utility.yul\":835:862   */\n      slt\n        /* \"#utility.yul\":825:947   */\n      tag_148\n      jumpi\n        /* \"#utility.yul\":866:945   */\n      tag_149\n      tag_150\n      jump\t// in\n    tag_149:\n        /* \"#utility.yul\":825:947   */\n    tag_148:\n        /* \"#utility.yul\":983:989   */\n      dup2\n        /* \"#utility.yul\":970:990   */\n      calldataload\n        /* \"#utility.yul\":1008:1087   */\n      tag_151\n        /* \"#utility.yul\":1083:1086   */\n      dup5\n        /* \"#utility.yul\":1075:1081   */\n      dup3\n        /* \"#utility.yul\":1068:1072   */\n      0x20\n        /* \"#utility.yul\":1060:1066   */\n      dup7\n        /* \"#utility.yul\":1056:1073   */\n      add\n        /* \"#utility.yul\":1008:1087   */\n      tag_127\n      jump\t// in\n    tag_151:\n        /* \"#utility.yul\":999:1087   */\n      swap2\n      pop\n        /* \"#utility.yul\":815:1093   */\n      pop\n        /* \"#utility.yul\":753:1093   */\n      swap3\n      swap2\n      pop\n      pop\n      jump\t// out\n        /* \"#utility.yul\":1099:1428   */\n    tag_14:\n        /* \"#utility.yul\":1158:1164   */\n      0x00\n        /* \"#utility.yul\":1207:1209   */\n      0x20\n        /* \"#utility.yul\":1195:1204   */\n      dup3\n        /* \"#utility.yul\":1186:1193   */\n      dup5\n        /* \"#utility.yul\":1182:1205   */\n      sub\n        /* \"#utility.yul\":1178:1210   */\n      slt\n        /* \"#utility.yul\":1175:1294   */\n      iszero\n      tag_153\n      jumpi\n        /* \"#utility.yul\":1213:1292   */\n      tag_154\n      tag_155\n      jump\t// in\n    tag_154:\n        /* \"#utility.yul\":1175:1294   */\n    tag_153:\n        /* \"#utility.yul\":1333:1334   */\n      0x00\n        /* \"#utility.yul\":1358:1411   */\n      tag_156\n        /* \"#utility.yul\":1403:1410   */\n      dup5\n        /* \"#utility.yul\":1394:1400   */\n      dup3\n        /* \"#utility.yul\":1383:1392   */\n      dup6\n        /* \"#utility.yul\":1379:1401   */\n      add\n        /* \"#utility.yul\":1358:1411   */\n      tag_138\n      jump\t// in\n    tag_156:\n        /* \"#utility.yul\":1348:1411   */\n      swap2\n      pop\n        /* \"#utility.yul\":1304:1421   */\n      pop\n        /* \"#utility.yul\":1099:1428   */\n      swap3\n      swap2\n      pop\n      pop\n      jump\t// out\n        /* \"#utility.yul\":1434:1787   */\n    tag_8:\n        /* \"#utility.yul\":1505:1511   */\n      0x00\n        /* \"#utility.yul\":1554:1556   */\n      0x20\n        /* \"#utility.yul\":1542:1551   */\n      dup3\n        /* \"#utility.yul\":1533:1540   */\n      dup5\n        /* \"#utility.yul\":1529:1552   */\n      sub\n        /* \"#utility.yul\":1525:1557   */\n      slt\n        /* \"#utility.yul\":1522:1641   */\n      iszero\n      tag_158\n      jumpi\n        /* \"#utility.yul\":1560:1639   */\n      tag_159\n      tag_155\n      jump\t// in\n    tag_159:\n        /* \"#utility.yul\":1522:1641   */\n    tag_158:\n        /* \"#utility.yul\":1680:1681   */\n      0x00\n        /* \"#utility.yul\":1705:1770   */\n      tag_160\n        /* \"#utility.yul\":1762:1769   */\n      dup5\n        /* \"#utility.yul\":1753:1759   */\n      dup3\n        /* \"#utility.yul\":1742:1751   */\n      dup6\n        /* \"#utility.yul\":1738:1760   */\n      add\n        /* \"#utility.yul\":1705:1770   */\n      tag_142\n      jump\t// in\n    tag_160:\n        /* \"#utility.yul\":1695:1770   */\n      swap2\n      pop\n        /* \"#utility.yul\":1651:1780   */\n      pop\n        /* \"#utility.yul\":1434:1787   */\n      swap3\n      swap2\n      pop\n      pop\n      jump\t// out\n        /* \"#utility.yul\":1793:2302   */\n    tag_20:\n        /* \"#utility.yul\":1862:1868   */\n      0x00\n        /* \"#utility.yul\":1911:1913   */\n      0x20\n        /* \"#utility.yul\":1899:1908   */\n      dup3\n        /* \"#utility.yul\":1890:1897   */\n      dup5\n        /* \"#utility.yul\":1886:1909   */\n      sub\n        /* \"#utility.yul\":1882:1914   */\n      slt\n        /* \"#utility.yul\":1879:1998   */\n      iszero\n      tag_162\n      jumpi\n        /* \"#utility.yul\":1917:1996   */\n      tag_163\n      tag_155\n      jump\t// in\n    tag_163:\n        /* \"#utility.yul\":1879:1998   */\n    tag_162:\n        /* \"#utility.yul\":2065:2066   */\n      0x00\n        /* \"#utility.yul\":2054:2063   */\n      dup3\n        /* \"#utility.yul\":2050:2067   */\n      add\n        /* \"#utility.yul\":2037:2068   */\n      calldataload\n        /* \"#utility.yul\":2095:2113   */\n      0xffffffffffffffff\n        /* \"#utility.yul\":2087:2093   */\n      dup2\n        /* \"#utility.yul\":2084:2114   */\n      gt\n        /* \"#utility.yul\":2081:2198   */\n      iszero\n      tag_164\n      jumpi\n        /* \"#utility.yul\":2117:2196   */\n      tag_165\n      tag_166\n      jump\t// in\n    tag_165:\n        /* \"#utility.yul\":2081:2198   */\n    tag_164:\n        /* \"#utility.yul\":2222:2285   */\n      tag_167\n        /* \"#utility.yul\":2277:2284   */\n      dup5\n        /* \"#utility.yul\":2268:2274   */\n      dup3\n        /* \"#utility.yul\":2257:2266   */\n      dup6\n        /* \"#utility.yul\":2253:2275   */\n      add\n        /* \"#utility.yul\":2222:2285   */\n      tag_146\n      jump\t// in\n    tag_167:\n        /* \"#utility.yul\":2212:2285   */\n      swap2\n      pop\n        /* \"#utility.yul\":2008:2295   */\n      pop\n        /* \"#utility.yul\":1793:2302   */\n      swap3\n      swap2\n      pop\n      pop\n      jump\t// out\n        /* \"#utility.yul\":2308:2544   */\n    tag_168:\n        /* \"#utility.yul\":2417:2427   */\n      0x00\n        /* \"#utility.yul\":2452:2538   */\n      tag_170\n        /* \"#utility.yul\":2534:2537   */\n      dup4\n        /* \"#utility.yul\":2526:2532   */\n      dup4\n        /* \"#utility.yul\":2452:2538   */\n      tag_171\n      jump\t// in\n    tag_170:\n        /* \"#utility.yul\":2438:2538   */\n      swap1\n      pop\n        /* \"#utility.yul\":2308:2544   */\n      swap3\n      swap2\n      pop\n      pop\n      jump\t// out\n        /* \"#utility.yul\":2550:2658   */\n    tag_172:\n        /* \"#utility.yul\":2627:2651   */\n      tag_174\n        /* \"#utility.yul\":2645:2650   */\n      dup2\n        /* \"#utility.yul\":2627:2651   */\n      tag_175\n      jump\t// in\n    tag_174:\n        /* \"#utility.yul\":2622:2625   */\n      dup3\n        /* \"#utility.yul\":2615:2652   */\n      mstore\n        /* \"#utility.yul\":2550:2658   */\n      pop\n      pop\n      jump\t// out\n        /* \"#utility.yul\":2714:3785   */\n    tag_176:\n        /* \"#utility.yul\":2873:2876   */\n      0x00\n        /* \"#utility.yul\":2902:2976   */\n      tag_178\n        /* \"#utility.yul\":2970:2975   */\n      dup3\n        /* \"#utility.yul\":2902:2976   */\n      tag_179\n      jump\t// in\n    tag_178:\n        /* \"#utility.yul\":2992:3098   */\n      tag_180\n        /* \"#utility.yul\":3091:3097   */\n      dup2\n        /* \"#utility.yul\":3086:3089   */\n      dup6\n        /* \"#utility.yul\":2992:3098   */\n      tag_181\n      jump\t// in\n    tag_180:\n        /* \"#utility.yul\":2985:3098   */\n      swap4\n      pop\n        /* \"#utility.yul\":3124:3127   */\n      dup4\n        /* \"#utility.yul\":3169:3173   */\n      0x20\n        /* \"#utility.yul\":3161:3167   */\n      dup3\n        /* \"#utility.yul\":3157:3174   */\n      mul\n        /* \"#utility.yul\":3152:3155   */\n      dup6\n        /* \"#utility.yul\":3148:3175   */\n      add\n        /* \"#utility.yul\":3199:3275   */\n      tag_182\n        /* \"#utility.yul\":3269:3274   */\n      dup6\n        /* \"#utility.yul\":3199:3275   */\n      tag_183\n      jump\t// in\n    tag_182:\n        /* \"#utility.yul\":3298:3305   */\n      dup1\n        /* \"#utility.yul\":3329:3330   */\n      0x00\n        /* \"#utility.yul\":3314:3740   */\n    tag_184:\n        /* \"#utility.yul\":3339:3345   */\n      dup6\n        /* \"#utility.yul\":3336:3337   */\n      dup2\n        /* \"#utility.yul\":3333:3346   */\n      lt\n        /* \"#utility.yul\":3314:3740   */\n      iszero\n      tag_186\n      jumpi\n        /* \"#utility.yul\":3410:3419   */\n      dup5\n        /* \"#utility.yul\":3404:3408   */\n      dup5\n        /* \"#utility.yul\":3400:3420   */\n      sub\n        /* \"#utility.yul\":3395:3398   */\n      dup10\n        /* \"#utility.yul\":3388:3421   */\n      mstore\n        /* \"#utility.yul\":3461:3467   */\n      dup2\n        /* \"#utility.yul\":3455:3468   */\n      mload\n        /* \"#utility.yul\":3489:3593   */\n      tag_187\n        /* \"#utility.yul\":3588:3592   */\n      dup6\n        /* \"#utility.yul\":3573:3586   */\n      dup3\n        /* \"#utility.yul\":3489:3593   */\n      tag_168\n      jump\t// in\n    tag_187:\n        /* \"#utility.yul\":3481:3593   */\n      swap5\n      pop\n        /* \"#utility.yul\":3616:3696   */\n      tag_188\n        /* \"#utility.yul\":3689:3695   */\n      dup4\n        /* \"#utility.yul\":3616:3696   */\n      tag_189\n      jump\t// in\n    tag_188:\n        /* \"#utility.yul\":3606:3696   */\n      swap3\n      pop\n        /* \"#utility.yul\":3725:3729   */\n      0x20\n        /* \"#utility.yul\":3720:3723   */\n      dup11\n        /* \"#utility.yul\":3716:3730   */\n      add\n        /* \"#utility.yul\":3709:3730   */\n      swap10\n      pop\n        /* \"#utility.yul\":3374:3740   */\n      pop\n        /* \"#utility.yul\":3361:3362   */\n      0x01\n        /* \"#utility.yul\":3358:3359   */\n      dup2\n        /* \"#utility.yul\":3354:3363   */\n      add\n        /* \"#utility.yul\":3349:3363   */\n      swap1\n      pop\n        /* \"#utility.yul\":3314:3740   */\n      jump(tag_184)\n    tag_186:\n        /* \"#utility.yul\":3318:3332   */\n      pop\n        /* \"#utility.yul\":3756:3760   */\n      dup3\n        /* \"#utility.yul\":3749:3760   */\n      swap8\n      pop\n        /* \"#utility.yul\":3776:3779   */\n      dup8\n        /* \"#utility.yul\":3769:3779   */\n      swap6\n      pop\n        /* \"#utility.yul\":2878:3785   */\n      pop\n      pop\n      pop\n      pop\n      pop\n        /* \"#utility.yul\":2714:3785   */\n      swap3\n      swap2\n      pop\n      pop\n      jump\t// out\n        /* \"#utility.yul\":3791:3928   */\n    tag_190:\n        /* \"#utility.yul\":3876:3921   */\n      tag_192\n        /* \"#utility.yul\":3915:3920   */\n      dup2\n        /* \"#utility.yul\":3876:3921   */\n      tag_193\n      jump\t// in\n    tag_192:\n        /* \"#utility.yul\":3871:3874   */\n      dup3\n        /* \"#utility.yul\":3864:3922   */\n      mstore\n        /* \"#utility.yul\":3791:3928   */\n      pop\n      pop\n      jump\t// out\n        /* \"#utility.yul\":3934:4075   */\n    tag_194:\n        /* \"#utility.yul\":4021:4068   */\n      tag_196\n        /* \"#utility.yul\":4062:4067   */\n      dup2\n        /* \"#utility.yul\":4021:4068   */\n      tag_197\n      jump\t// in\n    tag_196:\n        /* \"#utility.yul\":4016:4019   */\n      dup3\n        /* \"#utility.yul\":4009:4069   */\n      mstore\n        /* \"#utility.yul\":3934:4075   */\n      pop\n      pop\n      jump\t// out\n        /* \"#utility.yul\":4081:4425   */\n    tag_198:\n        /* \"#utility.yul\":4159:4162   */\n      0x00\n        /* \"#utility.yul\":4187:4226   */\n      tag_200\n        /* \"#utility.yul\":4220:4225   */\n      dup3\n        /* \"#utility.yul\":4187:4226   */\n      tag_201\n      jump\t// in\n    tag_200:\n        /* \"#utility.yul\":4242:4303   */\n      tag_202\n        /* \"#utility.yul\":4296:4302   */\n      dup2\n        /* \"#utility.yul\":4291:4294   */\n      dup6\n        /* \"#utility.yul\":4242:4303   */\n      tag_203\n      jump\t// in\n    tag_202:\n        /* \"#utility.yul\":4235:4303   */\n      swap4\n      pop\n        /* \"#utility.yul\":4312:4364   */\n      tag_204\n        /* \"#utility.yul\":4357:4363   */\n      dup2\n        /* \"#utility.yul\":4352:4355   */\n      dup6\n        /* \"#utility.yul\":4345:4349   */\n      0x20\n        /* \"#utility.yul\":4338:4343   */\n      dup7\n        /* \"#utility.yul\":4334:4350   */\n      add\n        /* \"#utility.yul\":4312:4364   */\n      tag_205\n      jump\t// in\n    tag_204:\n        /* \"#utility.yul\":4389:4418   */\n      tag_206\n        /* \"#utility.yul\":4411:4417   */\n      dup2\n        /* \"#utility.yul\":4389:4418   */\n      tag_207\n      jump\t// in\n    tag_206:\n        /* \"#utility.yul\":4384:4387   */\n      dup5\n        /* \"#utility.yul\":4380:4419   */\n      add\n        /* \"#utility.yul\":4373:4419   */\n      swap2\n      pop\n        /* \"#utility.yul\":4163:4425   */\n      pop\n        /* \"#utility.yul\":4081:4425   */\n      swap3\n      swap2\n      pop\n      pop\n      jump\t// out\n        /* \"#utility.yul\":4431:4808   */\n    tag_208:\n        /* \"#utility.yul\":4537:4540   */\n      0x00\n        /* \"#utility.yul\":4565:4604   */\n      tag_210\n        /* \"#utility.yul\":4598:4603   */\n      dup3\n        /* \"#utility.yul\":4565:4604   */\n      tag_201\n      jump\t// in\n    tag_210:\n        /* \"#utility.yul\":4620:4709   */\n      tag_211\n        /* \"#utility.yul\":4702:4708   */\n      dup2\n        /* \"#utility.yul\":4697:4700   */\n      dup6\n        /* \"#utility.yul\":4620:4709   */\n      tag_212\n      jump\t// in\n    tag_211:\n        /* \"#utility.yul\":4613:4709   */\n      swap4\n      pop\n        /* \"#utility.yul\":4718:4770   */\n      tag_213\n        /* \"#utility.yul\":4763:4769   */\n      dup2\n        /* \"#utility.yul\":4758:4761   */\n      dup6\n        /* \"#utility.yul\":4751:4755   */\n      0x20\n        /* \"#utility.yul\":4744:4749   */\n      dup7\n        /* \"#utility.yul\":4740:4756   */\n      add\n        /* \"#utility.yul\":4718:4770   */\n      tag_205\n      jump\t// in\n    tag_213:\n        /* \"#utility.yul\":4795:4801   */\n      dup1\n        /* \"#utility.yul\":4790:4793   */\n      dup5\n        /* \"#utility.yul\":4786:4802   */\n      add\n        /* \"#utility.yul\":4779:4802   */\n      swap2\n      pop\n        /* \"#utility.yul\":4541:4808   */\n      pop\n        /* \"#utility.yul\":4431:4808   */\n      swap3\n      swap2\n      pop\n      pop\n      jump\t// out\n        /* \"#utility.yul\":4860:5658   */\n    tag_214:\n        /* \"#utility.yul\":4971:4974   */\n      0x00\n        /* \"#utility.yul\":5007:5011   */\n      0x60\n        /* \"#utility.yul\":5002:5005   */\n      dup4\n        /* \"#utility.yul\":4998:5012   */\n      add\n        /* \"#utility.yul\":5098:5102   */\n      0x00\n        /* \"#utility.yul\":5091:5096   */\n      dup4\n        /* \"#utility.yul\":5087:5103   */\n      add\n        /* \"#utility.yul\":5081:5104   */\n      mload\n        /* \"#utility.yul\":5151:5154   */\n      dup5\n        /* \"#utility.yul\":5145:5149   */\n      dup3\n        /* \"#utility.yul\":5141:5155   */\n      sub\n        /* \"#utility.yul\":5134:5138   */\n      0x00\n        /* \"#utility.yul\":5129:5132   */\n      dup7\n        /* \"#utility.yul\":5125:5139   */\n      add\n        /* \"#utility.yul\":5118:5156   */\n      mstore\n        /* \"#utility.yul\":5177:5250   */\n      tag_216\n        /* \"#utility.yul\":5245:5249   */\n      dup3\n        /* \"#utility.yul\":5231:5243   */\n      dup3\n        /* \"#utility.yul\":5177:5250   */\n      tag_198\n      jump\t// in\n    tag_216:\n        /* \"#utility.yul\":5169:5250   */\n      swap2\n      pop\n        /* \"#utility.yul\":5022:5261   */\n      pop\n        /* \"#utility.yul\":5351:5355   */\n      0x20\n        /* \"#utility.yul\":5344:5349   */\n      dup4\n        /* \"#utility.yul\":5340:5356   */\n      add\n        /* \"#utility.yul\":5334:5357   */\n      mload\n        /* \"#utility.yul\":5370:5433   */\n      tag_217\n        /* \"#utility.yul\":5427:5431   */\n      0x20\n        /* \"#utility.yul\":5422:5425   */\n      dup7\n        /* \"#utility.yul\":5418:5432   */\n      add\n        /* \"#utility.yul\":5404:5416   */\n      dup3\n        /* \"#utility.yul\":5370:5433   */\n      tag_172\n      jump\t// in\n    tag_217:\n        /* \"#utility.yul\":5271:5443   */\n      pop\n        /* \"#utility.yul\":5531:5535   */\n      0x40\n        /* \"#utility.yul\":5524:5529   */\n      dup4\n        /* \"#utility.yul\":5520:5536   */\n      add\n        /* \"#utility.yul\":5514:5537   */\n      mload\n        /* \"#utility.yul\":5550:5621   */\n      tag_218\n        /* \"#utility.yul\":5615:5619   */\n      0x40\n        /* \"#utility.yul\":5610:5613   */\n      dup7\n        /* \"#utility.yul\":5606:5620   */\n      add\n        /* \"#utility.yul\":5592:5604   */\n      dup3\n        /* \"#utility.yul\":5550:5621   */\n      tag_190\n      jump\t// in\n    tag_218:\n        /* \"#utility.yul\":5453:5631   */\n      pop\n        /* \"#utility.yul\":5648:5652   */\n      dup1\n        /* \"#utility.yul\":5641:5652   */\n      swap2\n      pop\n        /* \"#utility.yul\":4976:5658   */\n      pop\n        /* \"#utility.yul\":4860:5658   */\n      swap3\n      swap2\n      pop\n      pop\n      jump\t// out\n        /* \"#utility.yul\":5710:7287   */\n    tag_171:\n        /* \"#utility.yul\":5809:5812   */\n      0x00\n        /* \"#utility.yul\":5845:5849   */\n      0xe0\n        /* \"#utility.yul\":5840:5843   */\n      dup4\n        /* \"#utility.yul\":5836:5850   */\n      add\n        /* \"#utility.yul\":5934:5938   */\n      0x00\n        /* \"#utility.yul\":5927:5932   */\n      dup4\n        /* \"#utility.yul\":5923:5939   */\n      add\n        /* \"#utility.yul\":5917:5940   */\n      mload\n        /* \"#utility.yul\":5987:5990   */\n      dup5\n        /* \"#utility.yul\":5981:5985   */\n      dup3\n        /* \"#utility.yul\":5977:5991   */\n      sub\n        /* \"#utility.yul\":5970:5974   */\n      0x00\n        /* \"#utility.yul\":5965:5968   */\n      dup7\n        /* \"#utility.yul\":5961:5975   */\n      add\n        /* \"#utility.yul\":5954:5992   */\n      mstore\n        /* \"#utility.yul\":6013:6086   */\n      tag_220\n        /* \"#utility.yul\":6081:6085   */\n      dup3\n        /* \"#utility.yul\":6067:6079   */\n      dup3\n        /* \"#utility.yul\":6013:6086   */\n      tag_198\n      jump\t// in\n    tag_220:\n        /* \"#utility.yul\":6005:6086   */\n      swap2\n      pop\n        /* \"#utility.yul\":5860:6097   */\n      pop\n        /* \"#utility.yul\":6183:6187   */\n      0x20\n        /* \"#utility.yul\":6176:6181   */\n      dup4\n        /* \"#utility.yul\":6172:6188   */\n      add\n        /* \"#utility.yul\":6166:6189   */\n      mload\n        /* \"#utility.yul\":6236:6239   */\n      dup5\n        /* \"#utility.yul\":6230:6234   */\n      dup3\n        /* \"#utility.yul\":6226:6240   */\n      sub\n        /* \"#utility.yul\":6219:6223   */\n      0x20\n        /* \"#utility.yul\":6214:6217   */\n      dup7\n        /* \"#utility.yul\":6210:6224   */\n      add\n        /* \"#utility.yul\":6203:6241   */\n      mstore\n        /* \"#utility.yul\":6262:6335   */\n      tag_221\n        /* \"#utility.yul\":6330:6334   */\n      dup3\n        /* \"#utility.yul\":6316:6328   */\n      dup3\n        /* \"#utility.yul\":6262:6335   */\n      tag_198\n      jump\t// in\n    tag_221:\n        /* \"#utility.yul\":6254:6335   */\n      swap2\n      pop\n        /* \"#utility.yul\":6107:6346   */\n      pop\n        /* \"#utility.yul\":6432:6436   */\n      0x40\n        /* \"#utility.yul\":6425:6430   */\n      dup4\n        /* \"#utility.yul\":6421:6437   */\n      add\n        /* \"#utility.yul\":6415:6438   */\n      mload\n        /* \"#utility.yul\":6451:6524   */\n      tag_222\n        /* \"#utility.yul\":6518:6522   */\n      0x40\n        /* \"#utility.yul\":6513:6516   */\n      dup7\n        /* \"#utility.yul\":6509:6523   */\n      add\n        /* \"#utility.yul\":6495:6507   */\n      dup3\n        /* \"#utility.yul\":6451:6524   */\n      tag_194\n      jump\t// in\n    tag_222:\n        /* \"#utility.yul\":6356:6534   */\n      pop\n        /* \"#utility.yul\":6622:6626   */\n      0x60\n        /* \"#utility.yul\":6615:6620   */\n      dup4\n        /* \"#utility.yul\":6611:6627   */\n      add\n        /* \"#utility.yul\":6605:6628   */\n      mload\n        /* \"#utility.yul\":6641:6712   */\n      tag_223\n        /* \"#utility.yul\":6706:6710   */\n      0x60\n        /* \"#utility.yul\":6701:6704   */\n      dup7\n        /* \"#utility.yul\":6697:6711   */\n      add\n        /* \"#utility.yul\":6683:6695   */\n      dup3\n        /* \"#utility.yul\":6641:6712   */\n      tag_190\n      jump\t// in\n    tag_223:\n        /* \"#utility.yul\":6544:6722   */\n      pop\n        /* \"#utility.yul\":6808:6812   */\n      0x80\n        /* \"#utility.yul\":6801:6806   */\n      dup4\n        /* \"#utility.yul\":6797:6813   */\n      add\n        /* \"#utility.yul\":6791:6814   */\n      mload\n        /* \"#utility.yul\":6827:6890   */\n      tag_224\n        /* \"#utility.yul\":6884:6888   */\n      0x80\n        /* \"#utility.yul\":6879:6882   */\n      dup7\n        /* \"#utility.yul\":6875:6889   */\n      add\n        /* \"#utility.yul\":6861:6873   */\n      dup3\n        /* \"#utility.yul\":6827:6890   */\n      tag_225\n      jump\t// in\n    tag_224:\n        /* \"#utility.yul\":6732:6900   */\n      pop\n        /* \"#utility.yul\":6987:6991   */\n      0xa0\n        /* \"#utility.yul\":6980:6985   */\n      dup4\n        /* \"#utility.yul\":6976:6992   */\n      add\n        /* \"#utility.yul\":6970:6993   */\n      mload\n        /* \"#utility.yul\":7006:7069   */\n      tag_226\n        /* \"#utility.yul\":7063:7067   */\n      0xa0\n        /* \"#utility.yul\":7058:7061   */\n      dup7\n        /* \"#utility.yul\":7054:7068   */\n      add\n        /* \"#utility.yul\":7040:7052   */\n      dup3\n        /* \"#utility.yul\":7006:7069   */\n      tag_225\n      jump\t// in\n    tag_226:\n        /* \"#utility.yul\":6910:7079   */\n      pop\n        /* \"#utility.yul\":7168:7172   */\n      0xc0\n        /* \"#utility.yul\":7161:7166   */\n      dup4\n        /* \"#utility.yul\":7157:7173   */\n      add\n        /* \"#utility.yul\":7151:7174   */\n      mload\n        /* \"#utility.yul\":7187:7250   */\n      tag_227\n        /* \"#utility.yul\":7244:7248   */\n      0xc0\n        /* \"#utility.yul\":7239:7242   */\n      dup7\n        /* \"#utility.yul\":7235:7249   */\n      add\n        /* \"#utility.yul\":7221:7233   */\n      dup3\n        /* \"#utility.yul\":7187:7250   */\n      tag_172\n      jump\t// in\n    tag_227:\n        /* \"#utility.yul\":7089:7260   */\n      pop\n        /* \"#utility.yul\":7277:7281   */\n      dup1\n        /* \"#utility.yul\":7270:7281   */\n      swap2\n      pop\n        /* \"#utility.yul\":5814:7287   */\n      pop\n        /* \"#utility.yul\":5710:7287   */\n      swap3\n      swap2\n      pop\n      pop\n      jump\t// out\n        /* \"#utility.yul\":7339:8926   */\n    tag_228:\n        /* \"#utility.yul\":7448:7451   */\n      0x00\n        /* \"#utility.yul\":7484:7488   */\n      0xe0\n        /* \"#utility.yul\":7479:7482   */\n      dup4\n        /* \"#utility.yul\":7475:7489   */\n      add\n        /* \"#utility.yul\":7573:7577   */\n      0x00\n        /* \"#utility.yul\":7566:7571   */\n      dup4\n        /* \"#utility.yul\":7562:7578   */\n      add\n        /* \"#utility.yul\":7556:7579   */\n      mload\n        /* \"#utility.yul\":7626:7629   */\n      dup5\n        /* \"#utility.yul\":7620:7624   */\n      dup3\n        /* \"#utility.yul\":7616:7630   */\n      sub\n        /* \"#utility.yul\":7609:7613   */\n      0x00\n        /* \"#utility.yul\":7604:7607   */\n      dup7\n        /* \"#utility.yul\":7600:7614   */\n      add\n        /* \"#utility.yul\":7593:7631   */\n      mstore\n        /* \"#utility.yul\":7652:7725   */\n      tag_230\n        /* \"#utility.yul\":7720:7724   */\n      dup3\n        /* \"#utility.yul\":7706:7718   */\n      dup3\n        /* \"#utility.yul\":7652:7725   */\n      tag_198\n      jump\t// in\n    tag_230:\n        /* \"#utility.yul\":7644:7725   */\n      swap2\n      pop\n        /* \"#utility.yul\":7499:7736   */\n      pop\n        /* \"#utility.yul\":7822:7826   */\n      0x20\n        /* \"#utility.yul\":7815:7820   */\n      dup4\n        /* \"#utility.yul\":7811:7827   */\n      add\n        /* \"#utility.yul\":7805:7828   */\n      mload\n        /* \"#utility.yul\":7875:7878   */\n      dup5\n        /* \"#utility.yul\":7869:7873   */\n      dup3\n        /* \"#utility.yul\":7865:7879   */\n      sub\n        /* \"#utility.yul\":7858:7862   */\n      0x20\n        /* \"#utility.yul\":7853:7856   */\n      dup7\n        /* \"#utility.yul\":7849:7863   */\n      add\n        /* \"#utility.yul\":7842:7880   */\n      mstore\n        /* \"#utility.yul\":7901:7974   */\n      tag_231\n        /* \"#utility.yul\":7969:7973   */\n      dup3\n        /* \"#utility.yul\":7955:7967   */\n      dup3\n        /* \"#utility.yul\":7901:7974   */\n      tag_198\n      jump\t// in\n    tag_231:\n        /* \"#utility.yul\":7893:7974   */\n      swap2\n      pop\n        /* \"#utility.yul\":7746:7985   */\n      pop\n        /* \"#utility.yul\":8071:8075   */\n      0x40\n        /* \"#utility.yul\":8064:8069   */\n      dup4\n        /* \"#utility.yul\":8060:8076   */\n      add\n        /* \"#utility.yul\":8054:8077   */\n      mload\n        /* \"#utility.yul\":8090:8163   */\n      tag_232\n        /* \"#utility.yul\":8157:8161   */\n      0x40\n        /* \"#utility.yul\":8152:8155   */\n      dup7\n        /* \"#utility.yul\":8148:8162   */\n      add\n        /* \"#utility.yul\":8134:8146   */\n      dup3\n        /* \"#utility.yul\":8090:8163   */\n      tag_194\n      jump\t// in\n    tag_232:\n        /* \"#utility.yul\":7995:8173   */\n      pop\n        /* \"#utility.yul\":8261:8265   */\n      0x60\n        /* \"#utility.yul\":8254:8259   */\n      dup4\n        /* \"#utility.yul\":8250:8266   */\n      add\n        /* \"#utility.yul\":8244:8267   */\n      mload\n        /* \"#utility.yul\":8280:8351   */\n      tag_233\n        /* \"#utility.yul\":8345:8349   */\n      0x60\n        /* \"#utility.yul\":8340:8343   */\n      dup7\n        /* \"#utility.yul\":8336:8350   */\n      add\n        /* \"#utility.yul\":8322:8334   */\n      dup3\n        /* \"#utility.yul\":8280:8351   */\n      tag_190\n      jump\t// in\n    tag_233:\n        /* \"#utility.yul\":8183:8361   */\n      pop\n        /* \"#utility.yul\":8447:8451   */\n      0x80\n        /* \"#utility.yul\":8440:8445   */\n      dup4\n        /* \"#utility.yul\":8436:8452   */\n      add\n        /* \"#utility.yul\":8430:8453   */\n      mload\n        /* \"#utility.yul\":8466:8529   */\n      tag_234\n        /* \"#utility.yul\":8523:8527   */\n      0x80\n        /* \"#utility.yul\":8518:8521   */\n      dup7\n        /* \"#utility.yul\":8514:8528   */\n      add\n        /* \"#utility.yul\":8500:8512   */\n      dup3\n        /* \"#utility.yul\":8466:8529   */\n      tag_225\n      jump\t// in\n    tag_234:\n        /* \"#utility.yul\":8371:8539   */\n      pop\n        /* \"#utility.yul\":8626:8630   */\n      0xa0\n        /* \"#utility.yul\":8619:8624   */\n      dup4\n        /* \"#utility.yul\":8615:8631   */\n      add\n        /* \"#utility.yul\":8609:8632   */\n      mload\n        /* \"#utility.yul\":8645:8708   */\n      tag_235\n        /* \"#utility.yul\":8702:8706   */\n      0xa0\n        /* \"#utility.yul\":8697:8700   */\n      dup7\n        /* \"#utility.yul\":8693:8707   */\n      add\n        /* \"#utility.yul\":8679:8691   */\n      dup3\n        /* \"#utility.yul\":8645:8708   */\n      tag_225\n      jump\t// in\n    tag_235:\n        /* \"#utility.yul\":8549:8718   */\n      pop\n        /* \"#utility.yul\":8807:8811   */\n      0xc0\n        /* \"#utility.yul\":8800:8805   */\n      dup4\n        /* \"#utility.yul\":8796:8812   */\n      add\n        /* \"#utility.yul\":8790:8813   */\n      mload\n        /* \"#utility.yul\":8826:8889   */\n      tag_236\n        /* \"#utility.yul\":8883:8887   */\n      0xc0\n        /* \"#utility.yul\":8878:8881   */\n      dup7\n        /* \"#utility.yul\":8874:8888   */\n      add\n        /* \"#utility.yul\":8860:8872   */\n      dup3\n        /* \"#utility.yul\":8826:8889   */\n      tag_172\n      jump\t// in\n    tag_236:\n        /* \"#utility.yul\":8728:8899   */\n      pop\n        /* \"#utility.yul\":8916:8920   */\n      dup1\n        /* \"#utility.yul\":8909:8920   */\n      swap2\n      pop\n        /* \"#utility.yul\":7453:8926   */\n      pop\n        /* \"#utility.yul\":7339:8926   */\n      swap3\n      swap2\n      pop\n      pop\n      jump\t// out\n        /* \"#utility.yul\":8932:9040   */\n    tag_225:\n        /* \"#utility.yul\":9009:9033   */\n      tag_238\n        /* \"#utility.yul\":9027:9032   */\n      dup2\n        /* \"#utility.yul\":9009:9033   */\n      tag_239\n      jump\t// in\n    tag_238:\n        /* \"#utility.yul\":9004:9007   */\n      dup3\n        /* \"#utility.yul\":8997:9034   */\n      mstore\n        /* \"#utility.yul\":8932:9040   */\n      pop\n      pop\n      jump\t// out\n        /* \"#utility.yul\":9046:9321   */\n    tag_110:\n        /* \"#utility.yul\":9178:9181   */\n      0x00\n        /* \"#utility.yul\":9200:9295   */\n      tag_241\n        /* \"#utility.yul\":9291:9294   */\n      dup3\n        /* \"#utility.yul\":9282:9288   */\n      dup5\n        /* \"#utility.yul\":9200:9295   */\n      tag_208\n      jump\t// in\n    tag_241:\n        /* \"#utility.yul\":9193:9295   */\n      swap2\n      pop\n        /* \"#utility.yul\":9312:9315   */\n      dup2\n        /* \"#utility.yul\":9305:9315   */\n      swap1\n      pop\n        /* \"#utility.yul\":9046:9321   */\n      swap3\n      swap2\n      pop\n      pop\n      jump\t// out\n        /* \"#utility.yul\":9327:9780   */\n    tag_11:\n        /* \"#utility.yul\":9510:9514   */\n      0x00\n        /* \"#utility.yul\":9548:9550   */\n      0x20\n        /* \"#utility.yul\":9537:9546   */\n      dup3\n        /* \"#utility.yul\":9533:9551   */\n      add\n        /* \"#utility.yul\":9525:9551   */\n      swap1\n      pop\n        /* \"#utility.yul\":9597:9606   */\n      dup2\n        /* \"#utility.yul\":9591:9595   */\n      dup2\n        /* \"#utility.yul\":9587:9607   */\n      sub\n        /* \"#utility.yul\":9583:9584   */\n      0x00\n        /* \"#utility.yul\":9572:9581   */\n      dup4\n        /* \"#utility.yul\":9568:9585   */\n      add\n        /* \"#utility.yul\":9561:9608   */\n      mstore\n        /* \"#utility.yul\":9625:9773   */\n      tag_243\n        /* \"#utility.yul\":9768:9772   */\n      dup2\n        /* \"#utility.yul\":9759:9765   */\n      dup5\n        /* \"#utility.yul\":9625:9773   */\n      tag_176\n      jump\t// in\n    tag_243:\n        /* \"#utility.yul\":9617:9773   */\n      swap1\n      pop\n        /* \"#utility.yul\":9327:9780   */\n      swap3\n      swap2\n      pop\n      pop\n      jump\t// out\n        /* \"#utility.yul\":9786:10143   */\n    tag_23:\n        /* \"#utility.yul\":9921:9925   */\n      0x00\n        /* \"#utility.yul\":9959:9961   */\n      0x20\n        /* \"#utility.yul\":9948:9957   */\n      dup3\n        /* \"#utility.yul\":9944:9962   */\n      add\n        /* \"#utility.yul\":9936:9962   */\n      swap1\n      pop\n        /* \"#utility.yul\":10008:10017   */\n      dup2\n        /* \"#utility.yul\":10002:10006   */\n      dup2\n        /* \"#utility.yul\":9998:10018   */\n      sub\n        /* \"#utility.yul\":9994:9995   */\n      0x00\n        /* \"#utility.yul\":9983:9992   */\n      dup4\n        /* \"#utility.yul\":9979:9996   */\n      add\n        /* \"#utility.yul\":9972:10019   */\n      mstore\n        /* \"#utility.yul\":10036:10136   */\n      tag_245\n        /* \"#utility.yul\":10131:10135   */\n      dup2\n        /* \"#utility.yul\":10122:10128   */\n      dup5\n        /* \"#utility.yul\":10036:10136   */\n      tag_214\n      jump\t// in\n    tag_245:\n        /* \"#utility.yul\":10028:10136   */\n      swap1\n      pop\n        /* \"#utility.yul\":9786:10143   */\n      swap3\n      swap2\n      pop\n      pop\n      jump\t// out\n        /* \"#utility.yul\":10149:10502   */\n    tag_17:\n        /* \"#utility.yul\":10282:10286   */\n      0x00\n        /* \"#utility.yul\":10320:10322   */\n      0x20\n        /* \"#utility.yul\":10309:10318   */\n      dup3\n        /* \"#utility.yul\":10305:10323   */\n      add\n        /* \"#utility.yul\":10297:10323   */\n      swap1\n      pop\n        /* \"#utility.yul\":10369:10378   */\n      dup2\n        /* \"#utility.yul\":10363:10367   */\n      dup2\n        /* \"#utility.yul\":10359:10379   */\n      sub\n        /* \"#utility.yul\":10355:10356   */\n      0x00\n        /* \"#utility.yul\":10344:10353   */\n      dup4\n        /* \"#utility.yul\":10340:10357   */\n      add\n        /* \"#utility.yul\":10333:10380   */\n      mstore\n        /* \"#utility.yul\":10397:10495   */\n      tag_247\n        /* \"#utility.yul\":10490:10494   */\n      dup2\n        /* \"#utility.yul\":10481:10487   */\n      dup5\n        /* \"#utility.yul\":10397:10495   */\n      tag_228\n      jump\t// in\n    tag_247:\n        /* \"#utility.yul\":10389:10495   */\n      swap1\n      pop\n        /* \"#utility.yul\":10149:10502   */\n      swap3\n      swap2\n      pop\n      pop\n      jump\t// out\n        /* \"#utility.yul\":10508:10637   */\n    tag_132:\n        /* \"#utility.yul\":10542:10548   */\n      0x00\n        /* \"#utility.yul\":10569:10589   */\n      tag_249\n      tag_250\n      jump\t// in\n    tag_249:\n        /* \"#utility.yul\":10559:10589   */\n      swap1\n      pop\n        /* \"#utility.yul\":10598:10631   */\n      tag_251\n        /* \"#utility.yul\":10626:10630   */\n      dup3\n        /* \"#utility.yul\":10618:10624   */\n      dup3\n        /* \"#utility.yul\":10598:10631   */\n      tag_252\n      jump\t// in\n    tag_251:\n        /* \"#utility.yul\":10508:10637   */\n      swap2\n      swap1\n      pop\n      jump\t// out\n        /* \"#utility.yul\":10643:10718   */\n    tag_250:\n        /* \"#utility.yul\":10676:10682   */\n      0x00\n        /* \"#utility.yul\":10709:10711   */\n      0x40\n        /* \"#utility.yul\":10703:10712   */\n      mload\n        /* \"#utility.yul\":10693:10712   */\n      swap1\n      pop\n        /* \"#utility.yul\":10643:10718   */\n      swap1\n      jump\t// out\n        /* \"#utility.yul\":10724:11032   */\n    tag_131:\n        /* \"#utility.yul\":10786:10790   */\n      0x00\n        /* \"#utility.yul\":10876:10894   */\n      0xffffffffffffffff\n        /* \"#utility.yul\":10868:10874   */\n      dup3\n        /* \"#utility.yul\":10865:10895   */\n      gt\n        /* \"#utility.yul\":10862:10918   */\n      iszero\n      tag_255\n      jumpi\n        /* \"#utility.yul\":10898:10916   */\n      tag_256\n      tag_27\n      jump\t// in\n    tag_256:\n        /* \"#utility.yul\":10862:10918   */\n    tag_255:\n        /* \"#utility.yul\":10936:10965   */\n      tag_257\n        /* \"#utility.yul\":10958:10964   */\n      dup3\n        /* \"#utility.yul\":10936:10965   */\n      tag_207\n      jump\t// in\n    tag_257:\n        /* \"#utility.yul\":10928:10965   */\n      swap1\n      pop\n        /* \"#utility.yul\":11020:11024   */\n      0x20\n        /* \"#utility.yul\":11014:11018   */\n      dup2\n        /* \"#utility.yul\":11010:11025   */\n      add\n        /* \"#utility.yul\":11002:11025   */\n      swap1\n      pop\n        /* \"#utility.yul\":10724:11032   */\n      swap2\n      swap1\n      pop\n      jump\t// out\n        /* \"#utility.yul\":11038:11190   */\n    tag_183:\n        /* \"#utility.yul\":11125:11129   */\n      0x00\n        /* \"#utility.yul\":11148:11151   */\n      dup2\n        /* \"#utility.yul\":11140:11151   */\n      swap1\n      pop\n        /* \"#utility.yul\":11178:11182   */\n      0x20\n        /* \"#utility.yul\":11173:11176   */\n      dup3\n        /* \"#utility.yul\":11169:11183   */\n      add\n        /* \"#utility.yul\":11161:11183   */\n      swap1\n      pop\n        /* \"#utility.yul\":11038:11190   */\n      swap2\n      swap1\n      pop\n      jump\t// out\n        /* \"#utility.yul\":11196:11330   */\n    tag_179:\n        /* \"#utility.yul\":11283:11289   */\n      0x00\n        /* \"#utility.yul\":11317:11322   */\n      dup2\n        /* \"#utility.yul\":11311:11323   */\n      mload\n        /* \"#utility.yul\":11301:11323   */\n      swap1\n      pop\n        /* \"#utility.yul\":11196:11330   */\n      swap2\n      swap1\n      pop\n      jump\t// out\n        /* \"#utility.yul\":11336:11435   */\n    tag_201:\n        /* \"#utility.yul\":11388:11394   */\n      0x00\n        /* \"#utility.yul\":11422:11427   */\n      dup2\n        /* \"#utility.yul\":11416:11428   */\n      mload\n        /* \"#utility.yul\":11406:11428   */\n      swap1\n      pop\n        /* \"#utility.yul\":11336:11435   */\n      swap2\n      swap1\n      pop\n      jump\t// out\n        /* \"#utility.yul\":11441:11574   */\n    tag_189:\n        /* \"#utility.yul\":11531:11535   */\n      0x00\n        /* \"#utility.yul\":11563:11567   */\n      0x20\n        /* \"#utility.yul\":11558:11561   */\n      dup3\n        /* \"#utility.yul\":11554:11568   */\n      add\n        /* \"#utility.yul\":11546:11568   */\n      swap1\n      pop\n        /* \"#utility.yul\":11441:11574   */\n      swap2\n      swap1\n      pop\n      jump\t// out\n        /* \"#utility.yul\":11580:11784   */\n    tag_181:\n        /* \"#utility.yul\":11699:11710   */\n      0x00\n        /* \"#utility.yul\":11733:11739   */\n      dup3\n        /* \"#utility.yul\":11728:11731   */\n      dup3\n        /* \"#utility.yul\":11721:11740   */\n      mstore\n        /* \"#utility.yul\":11773:11777   */\n      0x20\n        /* \"#utility.yul\":11768:11771   */\n      dup3\n        /* \"#utility.yul\":11764:11778   */\n      add\n        /* \"#utility.yul\":11749:11778   */\n      swap1\n      pop\n        /* \"#utility.yul\":11580:11784   */\n      swap3\n      swap2\n      pop\n      pop\n      jump\t// out\n        /* \"#utility.yul\":11790:11949   */\n    tag_203:\n        /* \"#utility.yul\":11864:11875   */\n      0x00\n        /* \"#utility.yul\":11898:11904   */\n      dup3\n        /* \"#utility.yul\":11893:11896   */\n      dup3\n        /* \"#utility.yul\":11886:11905   */\n      mstore\n        /* \"#utility.yul\":11938:11942   */\n      0x20\n        /* \"#utility.yul\":11933:11936   */\n      dup3\n        /* \"#utility.yul\":11929:11943   */\n      add\n        /* \"#utility.yul\":11914:11943   */\n      swap1\n      pop\n        /* \"#utility.yul\":11790:11949   */\n      swap3\n      swap2\n      pop\n      pop\n      jump\t// out\n        /* \"#utility.yul\":11955:12103   */\n    tag_212:\n        /* \"#utility.yul\":12057:12068   */\n      0x00\n        /* \"#utility.yul\":12094:12097   */\n      dup2\n        /* \"#utility.yul\":12079:12097   */\n      swap1\n      pop\n        /* \"#utility.yul\":11955:12103   */\n      swap3\n      swap2\n      pop\n      pop\n      jump\t// out\n        /* \"#utility.yul\":12109:12414   */\n    tag_70:\n        /* \"#utility.yul\":12149:12152   */\n      0x00\n        /* \"#utility.yul\":12168:12188   */\n      tag_266\n        /* \"#utility.yul\":12186:12187   */\n      dup3\n        /* \"#utility.yul\":12168:12188   */\n      tag_239\n      jump\t// in\n    tag_266:\n        /* \"#utility.yul\":12163:12188   */\n      swap2\n      pop\n        /* \"#utility.yul\":12202:12222   */\n      tag_267\n        /* \"#utility.yul\":12220:12221   */\n      dup4\n        /* \"#utility.yul\":12202:12222   */\n      tag_239\n      jump\t// in\n    tag_267:\n        /* \"#utility.yul\":12197:12222   */\n      swap3\n      pop\n        /* \"#utility.yul\":12356:12357   */\n      dup3\n        /* \"#utility.yul\":12288:12354   */\n      0xffffffffffffffffffffffffffffffffffffffffffffffffffffffffffffffff\n        /* \"#utility.yul\":12284:12358   */\n      sub\n        /* \"#utility.yul\":12281:12282   */\n      dup3\n        /* \"#utility.yul\":12278:12359   */\n      gt\n        /* \"#utility.yul\":12275:12382   */\n      iszero\n      tag_268\n      jumpi\n        /* \"#utility.yul\":12362:12380   */\n      tag_269\n      tag_270\n      jump\t// in\n    tag_269:\n        /* \"#utility.yul\":12275:12382   */\n    tag_268:\n        /* \"#utility.yul\":12406:12407   */\n      dup3\n        /* \"#utility.yul\":12403:12404   */\n      dup3\n        /* \"#utility.yul\":12399:12408   */\n      add\n        /* \"#utility.yul\":12392:12408   */\n      swap1\n      pop\n        /* \"#utility.yul\":12109:12414   */\n      swap3\n      swap2\n      pop\n      pop\n      jump\t// out\n        /* \"#utility.yul\":12420:12516   */\n    tag_175:\n        /* \"#utility.yul\":12457:12464   */\n      0x00\n        /* \"#utility.yul\":12486:12510   */\n      tag_272\n        /* \"#utility.yul\":12504:12509   */\n      dup3\n        /* \"#utility.yul\":12486:12510   */\n      tag_273\n      jump\t// in\n    tag_272:\n        /* \"#utility.yul\":12475:12510   */\n      swap1\n      pop\n        /* \"#utility.yul\":12420:12516   */\n      swap2\n      swap1\n      pop\n      jump\t// out\n        /* \"#utility.yul\":12522:12653   */\n    tag_274:\n        /* \"#utility.yul\":12569:12576   */\n      0x00\n        /* \"#utility.yul\":12598:12603   */\n      dup2\n        /* \"#utility.yul\":12587:12603   */\n      swap1\n      pop\n        /* \"#utility.yul\":12604:12647   */\n      tag_276\n        /* \"#utility.yul\":12641:12646   */\n      dup3\n        /* \"#utility.yul\":12604:12647   */\n      tag_277\n      jump\t// in\n    tag_276:\n        /* \"#utility.yul\":12522:12653   */\n      swap2\n      swap1\n      pop\n      jump\t// out\n        /* \"#utility.yul\":12659:12794   */\n    tag_278:\n        /* \"#utility.yul\":12708:12715   */\n      0x00\n        /* \"#utility.yul\":12737:12742   */\n      dup2\n        /* \"#utility.yul\":12726:12742   */\n      swap1\n      pop\n        /* \"#utility.yul\":12743:12788   */\n      tag_280\n        /* \"#utility.yul\":12782:12787   */\n      dup3\n        /* \"#utility.yul\":12743:12788   */\n      tag_281\n      jump\t// in\n    tag_280:\n        /* \"#utility.yul\":12659:12794   */\n      swap2\n      swap1\n      pop\n      jump\t// out\n        /* \"#utility.yul\":12800:12926   */\n    tag_273:\n        /* \"#utility.yul\":12837:12844   */\n      0x00\n        /* \"#utility.yul\":12877:12919   */\n      0xffffffffffffffffffffffffffffffffffffffff\n        /* \"#utility.yul\":12870:12875   */\n      dup3\n        /* \"#utility.yul\":12866:12920   */\n      and\n        /* \"#utility.yul\":12855:12920   */\n      swap1\n      pop\n        /* \"#utility.yul\":12800:12926   */\n      swap2\n      swap1\n      pop\n      jump\t// out\n        /* \"#utility.yul\":12932:13009   */\n    tag_239:\n        /* \"#utility.yul\":12969:12976   */\n      0x00\n        /* \"#utility.yul\":12998:13003   */\n      dup2\n        /* \"#utility.yul\":12987:13003   */\n      swap1\n      pop\n        /* \"#utility.yul\":12932:13009   */\n      swap2\n      swap1\n      pop\n      jump\t// out\n        /* \"#utility.yul\":13015:13146   */\n    tag_193:\n        /* \"#utility.yul\":13073:13082   */\n      0x00\n        /* \"#utility.yul\":13106:13140   */\n      tag_285\n        /* \"#utility.yul\":13134:13139   */\n      dup3\n        /* \"#utility.yul\":13106:13140   */\n      tag_274\n      jump\t// in\n    tag_285:\n        /* \"#utility.yul\":13093:13140   */\n      swap1\n      pop\n        /* \"#utility.yul\":13015:13146   */\n      swap2\n      swap1\n      pop\n      jump\t// out\n        /* \"#utility.yul\":13152:13287   */\n    tag_197:\n        /* \"#utility.yul\":13212:13221   */\n      0x00\n        /* \"#utility.yul\":13245:13281   */\n      tag_287\n        /* \"#utility.yul\":13275:13280   */\n      dup3\n        /* \"#utility.yul\":13245:13281   */\n      tag_278\n      jump\t// in\n    tag_287:\n        /* \"#utility.yul\":13232:13281   */\n      swap1\n      pop\n        /* \"#utility.yul\":13152:13287   */\n      swap2\n      swap1\n      pop\n      jump\t// out\n        /* \"#utility.yul\":13293:13447   */\n    tag_137:\n        /* \"#utility.yul\":13377:13383   */\n      dup3\n        /* \"#utility.yul\":13372:13375   */\n      dup2\n        /* \"#utility.yul\":13367:13370   */\n      dup4\n        /* \"#utility.yul\":13354:13384   */\n      calldatacopy\n        /* \"#utility.yul\":13439:13440   */\n      0x00\n        /* \"#utility.yul\":13430:13436   */\n      dup4\n        /* \"#utility.yul\":13425:13428   */\n      dup4\n        /* \"#utility.yul\":13421:13437   */\n      add\n        /* \"#utility.yul\":13414:13441   */\n      mstore\n        /* \"#utility.yul\":13293:13447   */\n      pop\n      pop\n      pop\n      jump\t// out\n        /* \"#utility.yul\":13453:13760   */\n    tag_205:\n        /* \"#utility.yul\":13521:13522   */\n      0x00\n        /* \"#utility.yul\":13531:13644   */\n    tag_290:\n        /* \"#utility.yul\":13545:13551   */\n      dup4\n        /* \"#utility.yul\":13542:13543   */\n      dup2\n        /* \"#utility.yul\":13539:13552   */\n      lt\n        /* \"#utility.yul\":13531:13644   */\n      iszero\n      tag_292\n      jumpi\n        /* \"#utility.yul\":13630:13631   */\n      dup1\n        /* \"#utility.yul\":13625:13628   */\n      dup3\n        /* \"#utility.yul\":13621:13632   */\n      add\n        /* \"#utility.yul\":13615:13633   */\n      mload\n        /* \"#utility.yul\":13611:13612   */\n      dup2\n        /* \"#utility.yul\":13606:13609   */\n      dup5\n        /* \"#utility.yul\":13602:13613   */\n      add\n        /* \"#utility.yul\":13595:13634   */\n      mstore\n        /* \"#utility.yul\":13567:13569   */\n      0x20\n        /* \"#utility.yul\":13564:13565   */\n      dup2\n        /* \"#utility.yul\":13560:13570   */\n      add\n        /* \"#utility.yul\":13555:13570   */\n      swap1\n      pop\n        /* \"#utility.yul\":13531:13644   */\n      jump(tag_290)\n    tag_292:\n        /* \"#utility.yul\":13662:13668   */\n      dup4\n        /* \"#utility.yul\":13659:13660   */\n      dup2\n        /* \"#utility.yul\":13656:13669   */\n      gt\n        /* \"#utility.yul\":13653:13754   */\n      iszero\n      tag_293\n      jumpi\n        /* \"#utility.yul\":13742:13743   */\n      0x00\n        /* \"#utility.yul\":13733:13739   */\n      dup5\n        /* \"#utility.yul\":13728:13731   */\n      dup5\n        /* \"#utility.yul\":13724:13740   */\n      add\n        /* \"#utility.yul\":13717:13744   */\n      mstore\n        /* \"#utility.yul\":13653:13754   */\n    tag_293:\n        /* \"#utility.yul\":13502:13760   */\n      pop\n        /* \"#utility.yul\":13453:13760   */\n      pop\n      pop\n      pop\n      jump\t// out\n        /* \"#utility.yul\":13766:14086   */\n    tag_49:\n        /* \"#utility.yul\":13810:13816   */\n      0x00\n        /* \"#utility.yul\":13847:13848   */\n      0x02\n        /* \"#utility.yul\":13841:13845   */\n      dup3\n        /* \"#utility.yul\":13837:13849   */\n      div\n        /* \"#utility.yul\":13827:13849   */\n      swap1\n      pop\n        /* \"#utility.yul\":13894:13895   */\n      0x01\n        /* \"#utility.yul\":13888:13892   */\n      dup3\n        /* \"#utility.yul\":13884:13896   */\n      and\n        /* \"#utility.yul\":13915:13933   */\n      dup1\n        /* \"#utility.yul\":13905:13986   */\n      tag_295\n      jumpi\n        /* \"#utility.yul\":13971:13975   */\n      0x7f\n        /* \"#utility.yul\":13963:13969   */\n      dup3\n        /* \"#utility.yul\":13959:13976   */\n      and\n        /* \"#utility.yul\":13949:13976   */\n      swap2\n      pop\n        /* \"#utility.yul\":13905:13986   */\n    tag_295:\n        /* \"#utility.yul\":14033:14035   */\n      0x20\n        /* \"#utility.yul\":14025:14031   */\n      dup3\n        /* \"#utility.yul\":14022:14036   */\n      lt\n        /* \"#utility.yul\":14002:14020   */\n      dup2\n        /* \"#utility.yul\":13999:14037   */\n      eq\n        /* \"#utility.yul\":13996:14080   */\n      iszero\n      tag_296\n      jumpi\n        /* \"#utility.yul\":14052:14070   */\n      tag_297\n      tag_298\n      jump\t// in\n    tag_297:\n        /* \"#utility.yul\":13996:14080   */\n    tag_296:\n        /* \"#utility.yul\":13817:14086   */\n      pop\n        /* \"#utility.yul\":13766:14086   */\n      swap2\n      swap1\n      pop\n      jump\t// out\n        /* \"#utility.yul\":14092:14373   */\n    tag_252:\n        /* \"#utility.yul\":14175:14202   */\n      tag_300\n        /* \"#utility.yul\":14197:14201   */\n      dup3\n        /* \"#utility.yul\":14175:14202   */\n      tag_207\n      jump\t// in\n    tag_300:\n        /* \"#utility.yul\":14167:14173   */\n      dup2\n        /* \"#utility.yul\":14163:14203   */\n      add\n        /* \"#utility.yul\":14305:14311   */\n      dup2\n        /* \"#utility.yul\":14293:14303   */\n      dup2\n        /* \"#utility.yul\":14290:14312   */\n      lt\n        /* \"#utility.yul\":14269:14287   */\n      0xffffffffffffffff\n        /* \"#utility.yul\":14257:14267   */\n      dup3\n        /* \"#utility.yul\":14254:14288   */\n      gt\n        /* \"#utility.yul\":14251:14313   */\n      or\n        /* \"#utility.yul\":14248:14336   */\n      iszero\n      tag_301\n      jumpi\n        /* \"#utility.yul\":14316:14334   */\n      tag_302\n      tag_27\n      jump\t// in\n    tag_302:\n        /* \"#utility.yul\":14248:14336   */\n    tag_301:\n        /* \"#utility.yul\":14356:14366   */\n      dup1\n        /* \"#utility.yul\":14352:14354   */\n      0x40\n        /* \"#utility.yul\":14345:14367   */\n      mstore\n        /* \"#utility.yul\":14135:14373   */\n      pop\n        /* \"#utility.yul\":14092:14373   */\n      pop\n      pop\n      jump\t// out\n        /* \"#utility.yul\":14379:14612   */\n    tag_72:\n        /* \"#utility.yul\":14418:14421   */\n      0x00\n        /* \"#utility.yul\":14441:14465   */\n      tag_304\n        /* \"#utility.yul\":14459:14464   */\n      dup3\n        /* \"#utility.yul\":14441:14465   */\n      tag_239\n      jump\t// in\n    tag_304:\n        /* \"#utility.yul\":14432:14465   */\n      swap2\n      pop\n        /* \"#utility.yul\":14487:14553   */\n      0xffffffffffffffffffffffffffffffffffffffffffffffffffffffffffffffff\n        /* \"#utility.yul\":14480:14485   */\n      dup3\n        /* \"#utility.yul\":14477:14554   */\n      eq\n        /* \"#utility.yul\":14474:14577   */\n      iszero\n      tag_305\n      jumpi\n        /* \"#utility.yul\":14557:14575   */\n      tag_306\n      tag_270\n      jump\t// in\n    tag_306:\n        /* \"#utility.yul\":14474:14577   */\n    tag_305:\n        /* \"#utility.yul\":14604:14605   */\n      0x01\n        /* \"#utility.yul\":14597:14602   */\n      dup3\n        /* \"#utility.yul\":14593:14606   */\n      add\n        /* \"#utility.yul\":14586:14606   */\n      swap1\n      pop\n        /* \"#utility.yul\":14379:14612   */\n      swap2\n      swap1\n      pop\n      jump\t// out\n        /* \"#utility.yul\":14618:14798   */\n    tag_270:\n        /* \"#utility.yul\":14666:14743   */\n      0x4e487b7100000000000000000000000000000000000000000000000000000000\n        /* \"#utility.yul\":14663:14664   */\n      0x00\n        /* \"#utility.yul\":14656:14744   */\n      mstore\n        /* \"#utility.yul\":14763:14767   */\n      0x11\n        /* \"#utility.yul\":14760:14761   */\n      0x04\n        /* \"#utility.yul\":14753:14768   */\n      mstore\n        /* \"#utility.yul\":14787:14791   */\n      0x24\n        /* \"#utility.yul\":14784:14785   */\n      0x00\n        /* \"#utility.yul\":14777:14792   */\n      revert\n        /* \"#utility.yul\":14804:14984   */\n    tag_37:\n        /* \"#utility.yul\":14852:14929   */\n      0x4e487b7100000000000000000000000000000000000000000000000000000000\n        /* \"#utility.yul\":14849:14850   */\n      0x00\n        /* \"#utility.yul\":14842:14930   */\n      mstore\n        /* \"#utility.yul\":14949:14953   */\n      0x21\n        /* \"#utility.yul\":14946:14947   */\n      0x04\n        /* \"#utility.yul\":14939:14954   */\n      mstore\n        /* \"#utility.yul\":14973:14977   */\n      0x24\n        /* \"#utility.yul\":14970:14971   */\n      0x00\n        /* \"#utility.yul\":14963:14978   */\n      revert\n        /* \"#utility.yul\":14990:15170   */\n    tag_298:\n        /* \"#utility.yul\":15038:15115   */\n      0x4e487b7100000000000000000000000000000000000000000000000000000000\n        /* \"#utility.yul\":15035:15036   */\n      0x00\n        /* \"#utility.yul\":15028:15116   */\n      mstore\n        /* \"#utility.yul\":15135:15139   */\n      0x22\n        /* \"#utility.yul\":15132:15133   */\n      0x04\n        /* \"#utility.yul\":15125:15140   */\n      mstore\n        /* \"#utility.yul\":15159:15163   */\n      0x24\n        /* \"#utility.yul\":15156:15157   */\n      0x00\n        /* \"#utility.yul\":15149:15164   */\n      revert\n        /* \"#utility.yul\":15176:15356   */\n    tag_40:\n        /* \"#utility.yul\":15224:15301   */\n      0x4e487b7100000000000000000000000000000000000000000000000000000000\n        /* \"#utility.yul\":15221:15222   */\n      0x00\n        /* \"#utility.yul\":15214:15302   */\n      mstore\n        /* \"#utility.yul\":15321:15325   */\n      0x32\n        /* \"#utility.yul\":15318:15319   */\n      0x04\n        /* \"#utility.yul\":15311:15326   */\n      mstore\n        /* \"#utility.yul\":15345:15349   */\n      0x24\n        /* \"#utility.yul\":15342:15343   */\n      0x00\n        /* \"#utility.yul\":15335:15350   */\n      revert\n        /* \"#utility.yul\":15362:15542   */\n    tag_27:\n        /* \"#utility.yul\":15410:15487   */\n      0x4e487b7100000000000000000000000000000000000000000000000000000000\n        /* \"#utility.yul\":15407:15408   */\n      0x00\n        /* \"#utility.yul\":15400:15488   */\n      mstore\n        /* \"#utility.yul\":15507:15511   */\n      0x41\n        /* \"#utility.yul\":15504:15505   */\n      0x04\n        /* \"#utility.yul\":15497:15512   */\n      mstore\n        /* \"#utility.yul\":15531:15535   */\n      0x24\n        /* \"#utility.yul\":15528:15529   */\n      0x00\n        /* \"#utility.yul\":15521:15536   */\n      revert\n        /* \"#utility.yul\":15548:15665   */\n    tag_150:\n        /* \"#utility.yul\":15657:15658   */\n      0x00\n        /* \"#utility.yul\":15654:15655   */\n      dup1\n        /* \"#utility.yul\":15647:15659   */\n      revert\n        /* \"#utility.yul\":15671:15788   */\n    tag_135:\n        /* \"#utility.yul\":15780:15781   */\n      0x00\n        /* \"#utility.yul\":15777:15778   */\n      dup1\n        /* \"#utility.yul\":15770:15782   */\n      revert\n        /* \"#utility.yul\":15794:15911   */\n    tag_166:\n        /* \"#utility.yul\":15903:15904   */\n      0x00\n        /* \"#utility.yul\":15900:15901   */\n      dup1\n        /* \"#utility.yul\":15893:15905   */\n      revert\n        /* \"#utility.yul\":15917:16034   */\n    tag_155:\n        /* \"#utility.yul\":16026:16027   */\n      0x00\n        /* \"#utility.yul\":16023:16024   */\n      dup1\n        /* \"#utility.yul\":16016:16028   */\n      revert\n        /* \"#utility.yul\":16040:16142   */\n    tag_207:\n        /* \"#utility.yul\":16081:16087   */\n      0x00\n        /* \"#utility.yul\":16132:16134   */\n      0x1f\n        /* \"#utility.yul\":16128:16135   */\n      not\n        /* \"#utility.yul\":16123:16125   */\n      0x1f\n        /* \"#utility.yul\":16116:16121   */\n      dup4\n        /* \"#utility.yul\":16112:16126   */\n      add\n        /* \"#utility.yul\":16108:16136   */\n      and\n        /* \"#utility.yul\":16098:16136   */\n      swap1\n      pop\n        /* \"#utility.yul\":16040:16142   */\n      swap2\n      swap1\n      pop\n      jump\t// out\n        /* \"#utility.yul\":16148:16263   */\n    tag_277:\n        /* \"#utility.yul\":16231:16232   */\n      0x03\n        /* \"#utility.yul\":16224:16229   */\n      dup2\n        /* \"#utility.yul\":16221:16233   */\n      lt\n        /* \"#utility.yul\":16211:16257   */\n      tag_318\n      jumpi\n        /* \"#utility.yul\":16237:16255   */\n      tag_319\n      tag_37\n      jump\t// in\n    tag_319:\n        /* \"#utility.yul\":16211:16257   */\n    tag_318:\n        /* \"#utility.yul\":16148:16263   */\n      pop\n      jump\t// out\n        /* \"#utility.yul\":16269:16386   */\n    tag_281:\n        /* \"#utility.yul\":16354:16355   */\n      0x07\n        /* \"#utility.yul\":16347:16352   */\n      dup2\n        /* \"#utility.yul\":16344:16356   */\n      lt\n        /* \"#utility.yul\":16334:16380   */\n      tag_321\n      jumpi\n        /* \"#utility.yul\":16360:16378   */\n      tag_322\n      tag_37\n      jump\t// in\n    tag_322:\n        /* \"#utility.yul\":16334:16380   */\n    tag_321:\n        /* \"#utility.yul\":16269:16386   */\n      pop\n      jump\t// out\n        /* \"#utility.yul\":16392:16514   */\n    tag_141:\n        /* \"#utility.yul\":16465:16489   */\n      tag_324\n        /* \"#utility.yul\":16483:16488   */\n      dup2\n        /* \"#utility.yul\":16465:16489   */\n      tag_175\n      jump\t// in\n    tag_324:\n        /* \"#utility.yul\":16458:16463   */\n      dup2\n        /* \"#utility.yul\":16455:16490   */\n      eq\n        /* \"#utility.yul\":16445:16508   */\n      tag_325\n      jumpi\n        /* \"#utility.yul\":16504:16505   */\n      0x00\n        /* \"#utility.yul\":16501:16502   */\n      dup1\n        /* \"#utility.yul\":16494:16506   */\n      revert\n        /* \"#utility.yul\":16445:16508   */\n    tag_325:\n        /* \"#utility.yul\":16392:16514   */\n      pop\n      jump\t// out\n        /* \"#utility.yul\":16520:16631   */\n    tag_145:\n        /* \"#utility.yul\":16605:16606   */\n      0x07\n        /* \"#utility.yul\":16598:16603   */\n      dup2\n        /* \"#utility.yul\":16595:16607   */\n      lt\n        /* \"#utility.yul\":16585:16625   */\n      tag_327\n      jumpi\n        /* \"#utility.yul\":16621:16622   */\n      0x00\n        /* \"#utility.yul\":16618:16619   */\n      dup1\n        /* \"#utility.yul\":16611:16623   */\n      revert\n        /* \"#utility.yul\":16585:16625   */\n    tag_327:\n        /* \"#utility.yul\":16520:16631   */\n      pop\n      jump\t// out\n\n    auxdata: 0xa26469706673582212204c852a23d4ad5e609db9d710965afa5daaf1aaee70c9087049c09d30f265e91b64736f6c63430008070033\n}\n",
				"bytecode": {
					"linkReferences": {},
					"object": "608060405234801561001057600080fd5b50611290806100206000396000f3fe608060405234801561001057600080fd5b50600436106100415760003560e01c80630f9de97714610046578063cd1720d114610076578063cdf7e73d146100a6575b600080fd5b610060600480360381019061005b9190610ac3565b6100d6565b60405161006d9190610e15565b60405180910390f35b610090600480360381019061008b9190610a96565b610585565b60405161009d9190610e59565b60405180910390f35b6100c060048036038101906100bb9190610af0565b6107e1565b6040516100cd9190610e37565b60405180910390f35b60606000600180549050905060008167ffffffffffffffff8111156100fe576100fd6111b7565b5b60405190808252806020026020018201604052801561013757816020015b61012461093c565b81526020019060019003908161011c5790505b509050600080600090505b838110156104ce5785600681111561015d5761015c61112a565b5b6000806001848154811061017457610173611188565b5b9060005260206000200160009054906101000a900473ffffffffffffffffffffffffffffffffffffffff1673ffffffffffffffffffffffffffffffffffffffff1673ffffffffffffffffffffffffffffffffffffffff16815260200190815260200160002060020160009054906101000a900460ff1660068111156101fc576101fb61112a565b5b14156104bb576000806001838154811061021957610218611188565b5b9060005260206000200160009054906101000a900473ffffffffffffffffffffffffffffffffffffffff1673ffffffffffffffffffffffffffffffffffffffff1673ffffffffffffffffffffffffffffffffffffffff1681526020019081526020016000206040518060e00160405290816000820180546102999061104f565b80601f01602080910402602001604051908101604052809291908181526020018280546102c59061104f565b80156103125780601f106102e757610100808354040283529160200191610312565b820191906000526020600020905b8154815290600101906020018083116102f557829003601f168201915b5050505050815260200160018201805461032b9061104f565b80601f01602080910402602001604051908101604052809291908181526020018280546103579061104f565b80156103a45780601f10610379576101008083540402835291602001916103a4565b820191906000526020600020905b81548152906001019060200180831161038757829003601f168201915b505050505081526020016002820160009054906101000a900460ff1660068111156103d2576103d161112a565b5b60068111156103e4576103e361112a565b5b81526020016002820160019054906101000a900460ff16600281111561040d5761040c61112a565b5b600281111561041f5761041e61112a565b5b815260200160038201548152602001600482015481526020016005820160009054906101000a900473ffffffffffffffffffffffffffffffffffffffff1673ffffffffffffffffffffffffffffffffffffffff1673ffffffffffffffffffffffffffffffffffffffff16815250508383815181106104a05761049f611188565b5b60200260200101819052506001826104b89190610f31565b91505b80806104c6906110b2565b915050610142565b508067ffffffffffffffff8111156104e9576104e86111b7565b5b60405190808252806020026020018201604052801561052257816020015b61050f61093c565b8152602001906001900390816105075790505b50935060005b8181101561057c5782818151811061054357610542611188565b5b602002602001015185828151811061055e5761055d611188565b5b60200260200101819052508080610574906110b2565b915050610528565b50505050919050565b61058d61093c565b6000808373ffffffffffffffffffffffffffffffffffffffff1673ffffffffffffffffffffffffffffffffffffffff1681526020019081526020016000206040518060e00160405290816000820180546105e69061104f565b80601f01602080910402602001604051908101604052809291908181526020018280546106129061104f565b801561065f5780601f106106345761010080835404028352916020019161065f565b820191906000526020600020905b81548152906001019060200180831161064257829003601f168201915b505050505081526020016001820180546106789061104f565b80601f01602080910402602001604051908101604052809291908181526020018280546106a49061104f565b80156106f15780601f106106c6576101008083540402835291602001916106f1565b820191906000526020600020905b8154815290600101906020018083116106d457829003601f168201915b505050505081526020016002820160009054906101000a900460ff16600681111561071f5761071e61112a565b5b60068111156107315761073061112a565b5b81526020016002820160019054906101000a900460ff16600281111561075a5761075961112a565b5b600281111561076c5761076b61112a565b5b815260200160038201548152602001600482015481526020016005820160009054906101000a900473ffffffffffffffffffffffffffffffffffffffff1673ffffffffffffffffffffffffffffffffffffffff1673ffffffffffffffffffffffffffffffffffffffff16815250509050919050565b6107e96109b3565b6002826040516107f99190610dfe565b90815260200160405180910390206040518060600160405290816000820180546108229061104f565b80601f016020809104026020016040519081016040528092919081815260200182805461084e9061104f565b801561089b5780601f106108705761010080835404028352916020019161089b565b820191906000526020600020905b81548152906001019060200180831161087e57829003601f168201915b505050505081526020016001820160009054906101000a900473ffffffffffffffffffffffffffffffffffffffff1673ffffffffffffffffffffffffffffffffffffffff1673ffffffffffffffffffffffffffffffffffffffff1681526020016001820160149054906101000a900460ff16600281111561091f5761091e61112a565b5b60028111156109315761093061112a565b5b815250509050919050565b6040518060e001604052806060815260200160608152602001600060068111156109695761096861112a565b5b8152602001600060028111156109825761098161112a565b5b81526020016000815260200160008152602001600073ffffffffffffffffffffffffffffffffffffffff1681525090565b604051806060016040528060608152602001600073ffffffffffffffffffffffffffffffffffffffff168152602001600060028111156109f6576109f561112a565b5b81525090565b6000610a0f610a0a84610ea0565b610e7b565b905082815260208101848484011115610a2b57610a2a6111eb565b5b610a3684828561100d565b509392505050565b600081359050610a4d81611233565b92915050565b600081359050610a628161124a565b92915050565b600082601f830112610a7d57610a7c6111e6565b5b8135610a8d8482602086016109fc565b91505092915050565b600060208284031215610aac57610aab6111f5565b5b6000610aba84828501610a3e565b91505092915050565b600060208284031215610ad957610ad86111f5565b5b6000610ae784828501610a53565b91505092915050565b600060208284031215610b0657610b056111f5565b5b600082013567ffffffffffffffff811115610b2457610b236111f0565b5b610b3084828501610a68565b91505092915050565b6000610b458383610ca9565b905092915050565b610b5681610f87565b82525050565b6000610b6782610ee1565b610b718185610f04565b935083602082028501610b8385610ed1565b8060005b85811015610bbf5784840389528151610ba08582610b39565b9450610bab83610ef7565b925060208a01995050600181019050610b87565b50829750879550505050505092915050565b610bda81610fe9565b82525050565b610be981610ffb565b82525050565b6000610bfa82610eec565b610c048185610f15565b9350610c1481856020860161101c565b610c1d816111fa565b840191505092915050565b6000610c3382610eec565b610c3d8185610f26565b9350610c4d81856020860161101c565b80840191505092915050565b60006060830160008301518482036000860152610c768282610bef565b9150506020830151610c8b6020860182610b4d565b506040830151610c9e6040860182610bd1565b508091505092915050565b600060e0830160008301518482036000860152610cc68282610bef565b91505060208301518482036020860152610ce08282610bef565b9150506040830151610cf56040860182610be0565b506060830151610d086060860182610bd1565b506080830151610d1b6080860182610def565b5060a0830151610d2e60a0860182610def565b5060c0830151610d4160c0860182610b4d565b508091505092915050565b600060e0830160008301518482036000860152610d698282610bef565b91505060208301518482036020860152610d838282610bef565b9150506040830151610d986040860182610be0565b506060830151610dab6060860182610bd1565b506080830151610dbe6080860182610def565b5060a0830151610dd160a0860182610def565b5060c0830151610de460c0860182610b4d565b508091505092915050565b610df881610fdf565b82525050565b6000610e0a8284610c28565b915081905092915050565b60006020820190508181036000830152610e2f8184610b5c565b905092915050565b60006020820190508181036000830152610e518184610c59565b905092915050565b60006020820190508181036000830152610e738184610d4c565b905092915050565b6000610e85610e96565b9050610e918282611081565b919050565b6000604051905090565b600067ffffffffffffffff821115610ebb57610eba6111b7565b5b610ec4826111fa565b9050602081019050919050565b6000819050602082019050919050565b600081519050919050565b600081519050919050565b6000602082019050919050565b600082825260208201905092915050565b600082825260208201905092915050565b600081905092915050565b6000610f3c82610fdf565b9150610f4783610fdf565b9250827fffffffffffffffffffffffffffffffffffffffffffffffffffffffffffffffff03821115610f7c57610f7b6110fb565b5b828201905092915050565b6000610f9282610fbf565b9050919050565b6000819050610fa78261120b565b919050565b6000819050610fba8261121f565b919050565b600073ffffffffffffffffffffffffffffffffffffffff82169050919050565b6000819050919050565b6000610ff482610f99565b9050919050565b600061100682610fac565b9050919050565b82818337600083830152505050565b60005b8381101561103a57808201518184015260208101905061101f565b83811115611049576000848401525b50505050565b6000600282049050600182168061106757607f821691505b6020821081141561107b5761107a611159565b5b50919050565b61108a826111fa565b810181811067ffffffffffffffff821117156110a9576110a86111b7565b5b80604052505050565b60006110bd82610fdf565b91507fffffffffffffffffffffffffffffffffffffffffffffffffffffffffffffffff8214156110f0576110ef6110fb565b5b600182019050919050565b7f4e487b7100000000000000000000000000000000000000000000000000000000600052601160045260246000fd5b7f4e487b7100000000000000000000000000000000000000000000000000000000600052602160045260246000fd5b7f4e487b7100000000000000000000000000000000000000000000000000000000600052602260045260246000fd5b7f4e487b7100000000000000000000000000000000000000000000000000000000600052603260045260246000fd5b7f4e487b7100000000000000000000000000000000000000000000000000000000600052604160045260246000fd5b600080fd5b600080fd5b600080fd5b600080fd5b6000601f19601f8301169050919050565b6003811061121c5761121b61112a565b5b50565b600781106112305761122f61112a565b5b50565b61123c81610f87565b811461124757600080fd5b50565b6007811061125757600080fd5b5056fea26469706673582212204c852a23d4ad5e609db9d710965afa5daaf1aaee70c9087049c09d30f265e91b64736f6c63430008070033",
					"opcodes": "PUSH1 0x80 PUSH1 0x40 MSTORE CALLVALUE DUP1 ISZERO PUSH2 0x10 JUMPI PUSH1 0x0 DUP1 REVERT JUMPDEST POP PUSH2 0x1290 DUP1 PUSH2 0x20 PUSH1 0x0 CODECOPY PUSH1 0x0 RETURN INVALID PUSH1 0x80 PUSH1 0x40 MSTORE CALLVALUE DUP1 ISZERO PUSH2 0x10 JUMPI PUSH1 0x0 DUP1 REVERT JUMPDEST POP PUSH1 0x4 CALLDATASIZE LT PUSH2 0x41 JUMPI PUSH1 0x0 CALLDATALOAD PUSH1 0xE0 SHR DUP1 PUSH4 0xF9DE977 EQ PUSH2 0x46 JUMPI DUP1 PUSH4 0xCD1720D1 EQ PUSH2 0x76 JUMPI DUP1 PUSH4 0xCDF7E73D EQ PUSH2 0xA6 JUMPI JUMPDEST PUSH1 0x0 DUP1 REVERT JUMPDEST PUSH2 0x60 PUSH1 0x4 DUP1 CALLDATASIZE SUB DUP2 ADD SWAP1 PUSH2 0x5B SWAP2 SWAP1 PUSH2 0xAC3 JUMP JUMPDEST PUSH2 0xD6 JUMP JUMPDEST PUSH1 0x40 MLOAD PUSH2 0x6D SWAP2 SWAP1 PUSH2 0xE15 JUMP JUMPDEST PUSH1 0x40 MLOAD DUP1 SWAP2 SUB SWAP1 RETURN JUMPDEST PUSH2 0x90 PUSH1 0x4 DUP1 CALLDATASIZE SUB DUP2 ADD SWAP1 PUSH2 0x8B SWAP2 SWAP1 PUSH2 0xA96 JUMP JUMPDEST PUSH2 0x585 JUMP JUMPDEST PUSH1 0x40 MLOAD PUSH2 0x9D SWAP2 SWAP1 PUSH2 0xE59 JUMP JUMPDEST PUSH1 0x40 MLOAD DUP1 SWAP2 SUB SWAP1 RETURN JUMPDEST PUSH2 0xC0 PUSH1 0x4 DUP1 CALLDATASIZE SUB DUP2 ADD SWAP1 PUSH2 0xBB SWAP2 SWAP1 PUSH2 0xAF0 JUMP JUMPDEST PUSH2 0x7E1 JUMP JUMPDEST PUSH1 0x40 MLOAD PUSH2 0xCD SWAP2 SWAP1 PUSH2 0xE37 JUMP JUMPDEST PUSH1 0x40 MLOAD DUP1 SWAP2 SUB SWAP1 RETURN JUMPDEST PUSH1 0x60 PUSH1 0x0 PUSH1 0x1 DUP1 SLOAD SWAP1 POP SWAP1 POP PUSH1 0x0 DUP2 PUSH8 0xFFFFFFFFFFFFFFFF DUP2 GT ISZERO PUSH2 0xFE JUMPI PUSH2 0xFD PUSH2 0x11B7 JUMP JUMPDEST JUMPDEST PUSH1 0x40 MLOAD SWAP1 DUP1 DUP3 MSTORE DUP1 PUSH1 0x20 MUL PUSH1 0x20 ADD DUP3 ADD PUSH1 0x40 MSTORE DUP1 ISZERO PUSH2 0x137 JUMPI DUP2 PUSH1 0x20 ADD JUMPDEST PUSH2 0x124 PUSH2 0x93C JUMP JUMPDEST DUP2 MSTORE PUSH1 0x20 ADD SWAP1 PUSH1 0x1 SWAP1 SUB SWAP1 DUP2 PUSH2 0x11C JUMPI SWAP1 POP JUMPDEST POP SWAP1 POP PUSH1 0x0 DUP1 PUSH1 0x0 SWAP1 POP JUMPDEST DUP4 DUP2 LT ISZERO PUSH2 0x4CE JUMPI DUP6 PUSH1 0x6 DUP2 GT ISZERO PUSH2 0x15D JUMPI PUSH2 0x15C PUSH2 0x112A JUMP JUMPDEST JUMPDEST PUSH1 0x0 DUP1 PUSH1 0x1 DUP5 DUP2 SLOAD DUP2 LT PUSH2 0x174 JUMPI PUSH2 0x173 PUSH2 0x1188 JUMP JUMPDEST JUMPDEST SWAP1 PUSH1 0x0 MSTORE PUSH1 0x20 PUSH1 0x0 KECCAK256 ADD PUSH1 0x0 SWAP1 SLOAD SWAP1 PUSH2 0x100 EXP SWAP1 DIV PUSH20 0xFFFFFFFFFFFFFFFFFFFFFFFFFFFFFFFFFFFFFFFF AND PUSH20 0xFFFFFFFFFFFFFFFFFFFFFFFFFFFFFFFFFFFFFFFF AND PUSH20 0xFFFFFFFFFFFFFFFFFFFFFFFFFFFFFFFFFFFFFFFF AND DUP2 MSTORE PUSH1 0x20 ADD SWAP1 DUP2 MSTORE PUSH1 0x20 ADD PUSH1 0x0 KECCAK256 PUSH1 0x2 ADD PUSH1 0x0 SWAP1 SLOAD SWAP1 PUSH2 0x100 EXP SWAP1 DIV PUSH1 0xFF AND PUSH1 0x6 DUP2 GT ISZERO PUSH2 0x1FC JUMPI PUSH2 0x1FB PUSH2 0x112A JUMP JUMPDEST JUMPDEST EQ ISZERO PUSH2 0x4BB JUMPI PUSH1 0x0 DUP1 PUSH1 0x1 DUP4 DUP2 SLOAD DUP2 LT PUSH2 0x219 JUMPI PUSH2 0x218 PUSH2 0x1188 JUMP JUMPDEST JUMPDEST SWAP1 PUSH1 0x0 MSTORE PUSH1 0x20 PUSH1 0x0 KECCAK256 ADD PUSH1 0x0 SWAP1 SLOAD SWAP1 PUSH2 0x100 EXP SWAP1 DIV PUSH20 0xFFFFFFFFFFFFFFFFFFFFFFFFFFFFFFFFFFFFFFFF AND PUSH20 0xFFFFFFFFFFFFFFFFFFFFFFFFFFFFFFFFFFFFFFFF AND PUSH20 0xFFFFFFFFFFFFFFFFFFFFFFFFFFFFFFFFFFFFFFFF AND DUP2 MSTORE PUSH1 0x20 ADD SWAP1 DUP2 MSTORE PUSH1 0x20 ADD PUSH1 0x0 KECCAK256 PUSH1 0x40 MLOAD DUP1 PUSH1 0xE0 ADD PUSH1 0x40 MSTORE SWAP1 DUP2 PUSH1 0x0 DUP3 ADD DUP1 SLOAD PUSH2 0x299 SWAP1 PUSH2 0x104F JUMP JUMPDEST DUP1 PUSH1 0x1F ADD PUSH1 0x20 DUP1 SWAP2 DIV MUL PUSH1 0x20 ADD PUSH1 0x40 MLOAD SWAP1 DUP2 ADD PUSH1 0x40 MSTORE DUP1 SWAP3 SWAP2 SWAP1 DUP2 DUP2 MSTORE PUSH1 0x20 ADD DUP3 DUP1 SLOAD PUSH2 0x2C5 SWAP1 PUSH2 0x104F JUMP JUMPDEST DUP1 ISZERO PUSH2 0x312 JUMPI DUP1 PUSH1 0x1F LT PUSH2 0x2E7 JUMPI PUSH2 0x100 DUP1 DUP4 SLOAD DIV MUL DUP4 MSTORE SWAP2 PUSH1 0x20 ADD SWAP2 PUSH2 0x312 JUMP JUMPDEST DUP3 ADD SWAP2 SWAP1 PUSH1 0x0 MSTORE PUSH1 0x20 PUSH1 0x0 KECCAK256 SWAP1 JUMPDEST DUP2 SLOAD DUP2 MSTORE SWAP1 PUSH1 0x1 ADD SWAP1 PUSH1 0x20 ADD DUP1 DUP4 GT PUSH2 0x2F5 JUMPI DUP3 SWAP1 SUB PUSH1 0x1F AND DUP3 ADD SWAP2 JUMPDEST POP POP POP POP POP DUP2 MSTORE PUSH1 0x20 ADD PUSH1 0x1 DUP3 ADD DUP1 SLOAD PUSH2 0x32B SWAP1 PUSH2 0x104F JUMP JUMPDEST DUP1 PUSH1 0x1F ADD PUSH1 0x20 DUP1 SWAP2 DIV MUL PUSH1 0x20 ADD PUSH1 0x40 MLOAD SWAP1 DUP2 ADD PUSH1 0x40 MSTORE DUP1 SWAP3 SWAP2 SWAP1 DUP2 DUP2 MSTORE PUSH1 0x20 ADD DUP3 DUP1 SLOAD PUSH2 0x357 SWAP1 PUSH2 0x104F JUMP JUMPDEST DUP1 ISZERO PUSH2 0x3A4 JUMPI DUP1 PUSH1 0x1F LT PUSH2 0x379 JUMPI PUSH2 0x100 DUP1 DUP4 SLOAD DIV MUL DUP4 MSTORE SWAP2 PUSH1 0x20 ADD SWAP2 PUSH2 0x3A4 JUMP JUMPDEST DUP3 ADD SWAP2 SWAP1 PUSH1 0x0 MSTORE PUSH1 0x20 PUSH1 0x0 KECCAK256 SWAP1 JUMPDEST DUP2 SLOAD DUP2 MSTORE SWAP1 PUSH1 0x1 ADD SWAP1 PUSH1 0x20 ADD DUP1 DUP4 GT PUSH2 0x387 JUMPI DUP3 SWAP1 SUB PUSH1 0x1F AND DUP3 ADD SWAP2 JUMPDEST POP POP POP POP POP DUP2 MSTORE PUSH1 0x20 ADD PUSH1 0x2 DUP3 ADD PUSH1 0x0 SWAP1 SLOAD SWAP1 PUSH2 0x100 EXP SWAP1 DIV PUSH1 0xFF AND PUSH1 0x6 DUP2 GT ISZERO PUSH2 0x3D2 JUMPI PUSH2 0x3D1 PUSH2 0x112A JUMP JUMPDEST JUMPDEST PUSH1 0x6 DUP2 GT ISZERO PUSH2 0x3E4 JUMPI PUSH2 0x3E3 PUSH2 0x112A JUMP JUMPDEST JUMPDEST DUP2 MSTORE PUSH1 0x20 ADD PUSH1 0x2 DUP3 ADD PUSH1 0x1 SWAP1 SLOAD SWAP1 PUSH2 0x100 EXP SWAP1 DIV PUSH1 0xFF AND PUSH1 0x2 DUP2 GT ISZERO PUSH2 0x40D JUMPI PUSH2 0x40C PUSH2 0x112A JUMP JUMPDEST JUMPDEST PUSH1 0x2 DUP2 GT ISZERO PUSH2 0x41F JUMPI PUSH2 0x41E PUSH2 0x112A JUMP JUMPDEST JUMPDEST DUP2 MSTORE PUSH1 0x20 ADD PUSH1 0x3 DUP3 ADD SLOAD DUP2 MSTORE PUSH1 0x20 ADD PUSH1 0x4 DUP3 ADD SLOAD DUP2 MSTORE PUSH1 0x20 ADD PUSH1 0x5 DUP3 ADD PUSH1 0x0 SWAP1 SLOAD SWAP1 PUSH2 0x100 EXP SWAP1 DIV PUSH20 0xFFFFFFFFFFFFFFFFFFFFFFFFFFFFFFFFFFFFFFFF AND PUSH20 0xFFFFFFFFFFFFFFFFFFFFFFFFFFFFFFFFFFFFFFFF AND PUSH20 0xFFFFFFFFFFFFFFFFFFFFFFFFFFFFFFFFFFFFFFFF AND DUP2 MSTORE POP POP DUP4 DUP4 DUP2 MLOAD DUP2 LT PUSH2 0x4A0 JUMPI PUSH2 0x49F PUSH2 0x1188 JUMP JUMPDEST JUMPDEST PUSH1 0x20 MUL PUSH1 0x20 ADD ADD DUP2 SWAP1 MSTORE POP PUSH1 0x1 DUP3 PUSH2 0x4B8 SWAP2 SWAP1 PUSH2 0xF31 JUMP JUMPDEST SWAP2 POP JUMPDEST DUP1 DUP1 PUSH2 0x4C6 SWAP1 PUSH2 0x10B2 JUMP JUMPDEST SWAP2 POP POP PUSH2 0x142 JUMP JUMPDEST POP DUP1 PUSH8 0xFFFFFFFFFFFFFFFF DUP2 GT ISZERO PUSH2 0x4E9 JUMPI PUSH2 0x4E8 PUSH2 0x11B7 JUMP JUMPDEST JUMPDEST PUSH1 0x40 MLOAD SWAP1 DUP1 DUP3 MSTORE DUP1 PUSH1 0x20 MUL PUSH1 0x20 ADD DUP3 ADD PUSH1 0x40 MSTORE DUP1 ISZERO PUSH2 0x522 JUMPI DUP2 PUSH1 0x20 ADD JUMPDEST PUSH2 0x50F PUSH2 0x93C JUMP JUMPDEST DUP2 MSTORE PUSH1 0x20 ADD SWAP1 PUSH1 0x1 SWAP1 SUB SWAP1 DUP2 PUSH2 0x507 JUMPI SWAP1 POP JUMPDEST POP SWAP4 POP PUSH1 0x0 JUMPDEST DUP2 DUP2 LT ISZERO PUSH2 0x57C JUMPI DUP3 DUP2 DUP2 MLOAD DUP2 LT PUSH2 0x543 JUMPI PUSH2 0x542 PUSH2 0x1188 JUMP JUMPDEST JUMPDEST PUSH1 0x20 MUL PUSH1 0x20 ADD ADD MLOAD DUP6 DUP3 DUP2 MLOAD DUP2 LT PUSH2 0x55E JUMPI PUSH2 0x55D PUSH2 0x1188 JUMP JUMPDEST JUMPDEST PUSH1 0x20 MUL PUSH1 0x20 ADD ADD DUP2 SWAP1 MSTORE POP DUP1 DUP1 PUSH2 0x574 SWAP1 PUSH2 0x10B2 JUMP JUMPDEST SWAP2 POP POP PUSH2 0x528 JUMP JUMPDEST POP POP POP POP SWAP2 SWAP1 POP JUMP JUMPDEST PUSH2 0x58D PUSH2 0x93C JUMP JUMPDEST PUSH1 0x0 DUP1 DUP4 PUSH20 0xFFFFFFFFFFFFFFFFFFFFFFFFFFFFFFFFFFFFFFFF AND PUSH20 0xFFFFFFFFFFFFFFFFFFFFFFFFFFFFFFFFFFFFFFFF AND DUP2 MSTORE PUSH1 0x20 ADD SWAP1 DUP2 MSTORE PUSH1 0x20 ADD PUSH1 0x0 KECCAK256 PUSH1 0x40 MLOAD DUP1 PUSH1 0xE0 ADD PUSH1 0x40 MSTORE SWAP1 DUP2 PUSH1 0x0 DUP3 ADD DUP1 SLOAD PUSH2 0x5E6 SWAP1 PUSH2 0x104F JUMP JUMPDEST DUP1 PUSH1 0x1F ADD PUSH1 0x20 DUP1 SWAP2 DIV MUL PUSH1 0x20 ADD PUSH1 0x40 MLOAD SWAP1 DUP2 ADD PUSH1 0x40 MSTORE DUP1 SWAP3 SWAP2 SWAP1 DUP2 DUP2 MSTORE PUSH1 0x20 ADD DUP3 DUP1 SLOAD PUSH2 0x612 SWAP1 PUSH2 0x104F JUMP JUMPDEST DUP1 ISZERO PUSH2 0x65F JUMPI DUP1 PUSH1 0x1F LT PUSH2 0x634 JUMPI PUSH2 0x100 DUP1 DUP4 SLOAD DIV MUL DUP4 MSTORE SWAP2 PUSH1 0x20 ADD SWAP2 PUSH2 0x65F JUMP JUMPDEST DUP3 ADD SWAP2 SWAP1 PUSH1 0x0 MSTORE PUSH1 0x20 PUSH1 0x0 KECCAK256 SWAP1 JUMPDEST DUP2 SLOAD DUP2 MSTORE SWAP1 PUSH1 0x1 ADD SWAP1 PUSH1 0x20 ADD DUP1 DUP4 GT PUSH2 0x642 JUMPI DUP3 SWAP1 SUB PUSH1 0x1F AND DUP3 ADD SWAP2 JUMPDEST POP POP POP POP POP DUP2 MSTORE PUSH1 0x20 ADD PUSH1 0x1 DUP3 ADD DUP1 SLOAD PUSH2 0x678 SWAP1 PUSH2 0x104F JUMP JUMPDEST DUP1 PUSH1 0x1F ADD PUSH1 0x20 DUP1 SWAP2 DIV MUL PUSH1 0x20 ADD PUSH1 0x40 MLOAD SWAP1 DUP2 ADD PUSH1 0x40 MSTORE DUP1 SWAP3 SWAP2 SWAP1 DUP2 DUP2 MSTORE PUSH1 0x20 ADD DUP3 DUP1 SLOAD PUSH2 0x6A4 SWAP1 PUSH2 0x104F JUMP JUMPDEST DUP1 ISZERO PUSH2 0x6F1 JUMPI DUP1 PUSH1 0x1F LT PUSH2 0x6C6 JUMPI PUSH2 0x100 DUP1 DUP4 SLOAD DIV MUL DUP4 MSTORE SWAP2 PUSH1 0x20 ADD SWAP2 PUSH2 0x6F1 JUMP JUMPDEST DUP3 ADD SWAP2 SWAP1 PUSH1 0x0 MSTORE PUSH1 0x20 PUSH1 0x0 KECCAK256 SWAP1 JUMPDEST DUP2 SLOAD DUP2 MSTORE SWAP1 PUSH1 0x1 ADD SWAP1 PUSH1 0x20 ADD DUP1 DUP4 GT PUSH2 0x6D4 JUMPI DUP3 SWAP1 SUB PUSH1 0x1F AND DUP3 ADD SWAP2 JUMPDEST POP POP POP POP POP DUP2 MSTORE PUSH1 0x20 ADD PUSH1 0x2 DUP3 ADD PUSH1 0x0 SWAP1 SLOAD SWAP1 PUSH2 0x100 EXP SWAP1 DIV PUSH1 0xFF AND PUSH1 0x6 DUP2 GT ISZERO PUSH2 0x71F JUMPI PUSH2 0x71E PUSH2 0x112A JUMP JUMPDEST JUMPDEST PUSH1 0x6 DUP2 GT ISZERO PUSH2 0x731 JUMPI PUSH2 0x730 PUSH2 0x112A JUMP JUMPDEST JUMPDEST DUP2 MSTORE PUSH1 0x20 ADD PUSH1 0x2 DUP3 ADD PUSH1 0x1 SWAP1 SLOAD SWAP1 PUSH2 0x100 EXP SWAP1 DIV PUSH1 0xFF AND PUSH1 0x2 DUP2 GT ISZERO PUSH2 0x75A JUMPI PUSH2 0x759 PUSH2 0x112A JUMP JUMPDEST JUMPDEST PUSH1 0x2 DUP2 GT ISZERO PUSH2 0x76C JUMPI PUSH2 0x76B PUSH2 0x112A JUMP JUMPDEST JUMPDEST DUP2 MSTORE PUSH1 0x20 ADD PUSH1 0x3 DUP3 ADD SLOAD DUP2 MSTORE PUSH1 0x20 ADD PUSH1 0x4 DUP3 ADD SLOAD DUP2 MSTORE PUSH1 0x20 ADD PUSH1 0x5 DUP3 ADD PUSH1 0x0 SWAP1 SLOAD SWAP1 PUSH2 0x100 EXP SWAP1 DIV PUSH20 0xFFFFFFFFFFFFFFFFFFFFFFFFFFFFFFFFFFFFFFFF AND PUSH20 0xFFFFFFFFFFFFFFFFFFFFFFFFFFFFFFFFFFFFFFFF AND PUSH20 0xFFFFFFFFFFFFFFFFFFFFFFFFFFFFFFFFFFFFFFFF AND DUP2 MSTORE POP POP SWAP1 POP SWAP2 SWAP1 POP JUMP JUMPDEST PUSH2 0x7E9 PUSH2 0x9B3 JUMP JUMPDEST PUSH1 0x2 DUP3 PUSH1 0x40 MLOAD PUSH2 0x7F9 SWAP2 SWAP1 PUSH2 0xDFE JUMP JUMPDEST SWAP1 DUP2 MSTORE PUSH1 0x20 ADD PUSH1 0x40 MLOAD DUP1 SWAP2 SUB SWAP1 KECCAK256 PUSH1 0x40 MLOAD DUP1 PUSH1 0x60 ADD PUSH1 0x40 MSTORE SWAP1 DUP2 PUSH1 0x0 DUP3 ADD DUP1 SLOAD PUSH2 0x822 SWAP1 PUSH2 0x104F JUMP JUMPDEST DUP1 PUSH1 0x1F ADD PUSH1 0x20 DUP1 SWAP2 DIV MUL PUSH1 0x20 ADD PUSH1 0x40 MLOAD SWAP1 DUP2 ADD PUSH1 0x40 MSTORE DUP1 SWAP3 SWAP2 SWAP1 DUP2 DUP2 MSTORE PUSH1 0x20 ADD DUP3 DUP1 SLOAD PUSH2 0x84E SWAP1 PUSH2 0x104F JUMP JUMPDEST DUP1 ISZERO PUSH2 0x89B JUMPI DUP1 PUSH1 0x1F LT PUSH2 0x870 JUMPI PUSH2 0x100 DUP1 DUP4 SLOAD DIV MUL DUP4 MSTORE SWAP2 PUSH1 0x20 ADD SWAP2 PUSH2 0x89B JUMP JUMPDEST DUP3 ADD SWAP2 SWAP1 PUSH1 0x0 MSTORE PUSH1 0x20 PUSH1 0x0 KECCAK256 SWAP1 JUMPDEST DUP2 SLOAD DUP2 MSTORE SWAP1 PUSH1 0x1 ADD SWAP1 PUSH1 0x20 ADD DUP1 DUP4 GT PUSH2 0x87E JUMPI DUP3 SWAP1 SUB PUSH1 0x1F AND DUP3 ADD SWAP2 JUMPDEST POP POP POP POP POP DUP2 MSTORE PUSH1 0x20 ADD PUSH1 0x1 DUP3 ADD PUSH1 0x0 SWAP1 SLOAD SWAP1 PUSH2 0x100 EXP SWAP1 DIV PUSH20 0xFFFFFFFFFFFFFFFFFFFFFFFFFFFFFFFFFFFFFFFF AND PUSH20 0xFFFFFFFFFFFFFFFFFFFFFFFFFFFFFFFFFFFFFFFF AND PUSH20 0xFFFFFFFFFFFFFFFFFFFFFFFFFFFFFFFFFFFFFFFF AND DUP2 MSTORE PUSH1 0x20 ADD PUSH1 0x1 DUP3 ADD PUSH1 0x14 SWAP1 SLOAD SWAP1 PUSH2 0x100 EXP SWAP1 DIV PUSH1 0xFF AND PUSH1 0x2 DUP2 GT ISZERO PUSH2 0x91F JUMPI PUSH2 0x91E PUSH2 0x112A JUMP JUMPDEST JUMPDEST PUSH1 0x2 DUP2 GT ISZERO PUSH2 0x931 JUMPI PUSH2 0x930 PUSH2 0x112A JUMP JUMPDEST JUMPDEST DUP2 MSTORE POP POP SWAP1 POP SWAP2 SWAP1 POP JUMP JUMPDEST PUSH1 0x40 MLOAD DUP1 PUSH1 0xE0 ADD PUSH1 0x40 MSTORE DUP1 PUSH1 0x60 DUP2 MSTORE PUSH1 0x20 ADD PUSH1 0x60 DUP2 MSTORE PUSH1 0x20 ADD PUSH1 0x0 PUSH1 0x6 DUP2 GT ISZERO PUSH2 0x969 JUMPI PUSH2 0x968 PUSH2 0x112A JUMP JUMPDEST JUMPDEST DUP2 MSTORE PUSH1 0x20 ADD PUSH1 0x0 PUSH1 0x2 DUP2 GT ISZERO PUSH2 0x982 JUMPI PUSH2 0x981 PUSH2 0x112A JUMP JUMPDEST JUMPDEST DUP2 MSTORE PUSH1 0x20 ADD PUSH1 0x0 DUP2 MSTORE PUSH1 0x20 ADD PUSH1 0x0 DUP2 MSTORE PUSH1 0x20 ADD PUSH1 0x0 PUSH20 0xFFFFFFFFFFFFFFFFFFFFFFFFFFFFFFFFFFFFFFFF AND DUP2 MSTORE POP SWAP1 JUMP JUMPDEST PUSH1 0x40 MLOAD DUP1 PUSH1 0x60 ADD PUSH1 0x40 MSTORE DUP1 PUSH1 0x60 DUP2 MSTORE PUSH1 0x20 ADD PUSH1 0x0 PUSH20 0xFFFFFFFFFFFFFFFFFFFFFFFFFFFFFFFFFFFFFFFF AND DUP2 MSTORE PUSH1 0x20 ADD PUSH1 0x0 PUSH1 0x2 DUP2 GT ISZERO PUSH2 0x9F6 JUMPI PUSH2 0x9F5 PUSH2 0x112A JUMP JUMPDEST JUMPDEST DUP2 MSTORE POP SWAP1 JUMP JUMPDEST PUSH1 0x0 PUSH2 0xA0F PUSH2 0xA0A DUP5 PUSH2 0xEA0 JUMP JUMPDEST PUSH2 0xE7B JUMP JUMPDEST SWAP1 POP DUP3 DUP2 MSTORE PUSH1 0x20 DUP2 ADD DUP5 DUP5 DUP5 ADD GT ISZERO PUSH2 0xA2B JUMPI PUSH2 0xA2A PUSH2 0x11EB JUMP JUMPDEST JUMPDEST PUSH2 0xA36 DUP5 DUP3 DUP6 PUSH2 0x100D JUMP JUMPDEST POP SWAP4 SWAP3 POP POP POP JUMP JUMPDEST PUSH1 0x0 DUP2 CALLDATALOAD SWAP1 POP PUSH2 0xA4D DUP2 PUSH2 0x1233 JUMP JUMPDEST SWAP3 SWAP2 POP POP JUMP JUMPDEST PUSH1 0x0 DUP2 CALLDATALOAD SWAP1 POP PUSH2 0xA62 DUP2 PUSH2 0x124A JUMP JUMPDEST SWAP3 SWAP2 POP POP JUMP JUMPDEST PUSH1 0x0 DUP3 PUSH1 0x1F DUP4 ADD SLT PUSH2 0xA7D JUMPI PUSH2 0xA7C PUSH2 0x11E6 JUMP JUMPDEST JUMPDEST DUP2 CALLDATALOAD PUSH2 0xA8D DUP5 DUP3 PUSH1 0x20 DUP7 ADD PUSH2 0x9FC JUMP JUMPDEST SWAP2 POP POP SWAP3 SWAP2 POP POP JUMP JUMPDEST PUSH1 0x0 PUSH1 0x20 DUP3 DUP5 SUB SLT ISZERO PUSH2 0xAAC JUMPI PUSH2 0xAAB PUSH2 0x11F5 JUMP JUMPDEST JUMPDEST PUSH1 0x0 PUSH2 0xABA DUP5 DUP3 DUP6 ADD PUSH2 0xA3E JUMP JUMPDEST SWAP2 POP POP SWAP3 SWAP2 POP POP JUMP JUMPDEST PUSH1 0x0 PUSH1 0x20 DUP3 DUP5 SUB SLT ISZERO PUSH2 0xAD9 JUMPI PUSH2 0xAD8 PUSH2 0x11F5 JUMP JUMPDEST JUMPDEST PUSH1 0x0 PUSH2 0xAE7 DUP5 DUP3 DUP6 ADD PUSH2 0xA53 JUMP JUMPDEST SWAP2 POP POP SWAP3 SWAP2 POP POP JUMP JUMPDEST PUSH1 0x0 PUSH1 0x20 DUP3 DUP5 SUB SLT ISZERO PUSH2 0xB06 JUMPI PUSH2 0xB05 PUSH2 0x11F5 JUMP JUMPDEST JUMPDEST PUSH1 0x0 DUP3 ADD CALLDATALOAD PUSH8 0xFFFFFFFFFFFFFFFF DUP2 GT ISZERO PUSH2 0xB24 JUMPI PUSH2 0xB23 PUSH2 0x11F0 JUMP JUMPDEST JUMPDEST PUSH2 0xB30 DUP5 DUP3 DUP6 ADD PUSH2 0xA68 JUMP JUMPDEST SWAP2 POP POP SWAP3 SWAP2 POP POP JUMP JUMPDEST PUSH1 0x0 PUSH2 0xB45 DUP4 DUP4 PUSH2 0xCA9 JUMP JUMPDEST SWAP1 POP SWAP3 SWAP2 POP POP JUMP JUMPDEST PUSH2 0xB56 DUP2 PUSH2 0xF87 JUMP JUMPDEST DUP3 MSTORE POP POP JUMP JUMPDEST PUSH1 0x0 PUSH2 0xB67 DUP3 PUSH2 0xEE1 JUMP JUMPDEST PUSH2 0xB71 DUP2 DUP6 PUSH2 0xF04 JUMP JUMPDEST SWAP4 POP DUP4 PUSH1 0x20 DUP3 MUL DUP6 ADD PUSH2 0xB83 DUP6 PUSH2 0xED1 JUMP JUMPDEST DUP1 PUSH1 0x0 JUMPDEST DUP6 DUP2 LT ISZERO PUSH2 0xBBF JUMPI DUP5 DUP5 SUB DUP10 MSTORE DUP2 MLOAD PUSH2 0xBA0 DUP6 DUP3 PUSH2 0xB39 JUMP JUMPDEST SWAP5 POP PUSH2 0xBAB DUP4 PUSH2 0xEF7 JUMP JUMPDEST SWAP3 POP PUSH1 0x20 DUP11 ADD SWAP10 POP POP PUSH1 0x1 DUP2 ADD SWAP1 POP PUSH2 0xB87 JUMP JUMPDEST POP DUP3 SWAP8 POP DUP8 SWAP6 POP POP POP POP POP POP SWAP3 SWAP2 POP POP JUMP JUMPDEST PUSH2 0xBDA DUP2 PUSH2 0xFE9 JUMP JUMPDEST DUP3 MSTORE POP POP JUMP JUMPDEST PUSH2 0xBE9 DUP2 PUSH2 0xFFB JUMP JUMPDEST DUP3 MSTORE POP POP JUMP JUMPDEST PUSH1 0x0 PUSH2 0xBFA DUP3 PUSH2 0xEEC JUMP JUMPDEST PUSH2 0xC04 DUP2 DUP6 PUSH2 0xF15 JUMP JUMPDEST SWAP4 POP PUSH2 0xC14 DUP2 DUP6 PUSH1 0x20 DUP7 ADD PUSH2 0x101C JUMP JUMPDEST PUSH2 0xC1D DUP2 PUSH2 0x11FA JUMP JUMPDEST DUP5 ADD SWAP2 POP POP SWAP3 SWAP2 POP POP JUMP JUMPDEST PUSH1 0x0 PUSH2 0xC33 DUP3 PUSH2 0xEEC JUMP JUMPDEST PUSH2 0xC3D DUP2 DUP6 PUSH2 0xF26 JUMP JUMPDEST SWAP4 POP PUSH2 0xC4D DUP2 DUP6 PUSH1 0x20 DUP7 ADD PUSH2 0x101C JUMP JUMPDEST DUP1 DUP5 ADD SWAP2 POP POP SWAP3 SWAP2 POP POP JUMP JUMPDEST PUSH1 0x0 PUSH1 0x60 DUP4 ADD PUSH1 0x0 DUP4 ADD MLOAD DUP5 DUP3 SUB PUSH1 0x0 DUP7 ADD MSTORE PUSH2 0xC76 DUP3 DUP3 PUSH2 0xBEF JUMP JUMPDEST SWAP2 POP POP PUSH1 0x20 DUP4 ADD MLOAD PUSH2 0xC8B PUSH1 0x20 DUP7 ADD DUP3 PUSH2 0xB4D JUMP JUMPDEST POP PUSH1 0x40 DUP4 ADD MLOAD PUSH2 0xC9E PUSH1 0x40 DUP7 ADD DUP3 PUSH2 0xBD1 JUMP JUMPDEST POP DUP1 SWAP2 POP POP SWAP3 SWAP2 POP POP JUMP JUMPDEST PUSH1 0x0 PUSH1 0xE0 DUP4 ADD PUSH1 0x0 DUP4 ADD MLOAD DUP5 DUP3 SUB PUSH1 0x0 DUP7 ADD MSTORE PUSH2 0xCC6 DUP3 DUP3 PUSH2 0xBEF JUMP JUMPDEST SWAP2 POP POP PUSH1 0x20 DUP4 ADD MLOAD DUP5 DUP3 SUB PUSH1 0x20 DUP7 ADD MSTORE PUSH2 0xCE0 DUP3 DUP3 PUSH2 0xBEF JUMP JUMPDEST SWAP2 POP POP PUSH1 0x40 DUP4 ADD MLOAD PUSH2 0xCF5 PUSH1 0x40 DUP7 ADD DUP3 PUSH2 0xBE0 JUMP JUMPDEST POP PUSH1 0x60 DUP4 ADD MLOAD PUSH2 0xD08 PUSH1 0x60 DUP7 ADD DUP3 PUSH2 0xBD1 JUMP JUMPDEST POP PUSH1 0x80 DUP4 ADD MLOAD PUSH2 0xD1B PUSH1 0x80 DUP7 ADD DUP3 PUSH2 0xDEF JUMP JUMPDEST POP PUSH1 0xA0 DUP4 ADD MLOAD PUSH2 0xD2E PUSH1 0xA0 DUP7 ADD DUP3 PUSH2 0xDEF JUMP JUMPDEST POP PUSH1 0xC0 DUP4 ADD MLOAD PUSH2 0xD41 PUSH1 0xC0 DUP7 ADD DUP3 PUSH2 0xB4D JUMP JUMPDEST POP DUP1 SWAP2 POP POP SWAP3 SWAP2 POP POP JUMP JUMPDEST PUSH1 0x0 PUSH1 0xE0 DUP4 ADD PUSH1 0x0 DUP4 ADD MLOAD DUP5 DUP3 SUB PUSH1 0x0 DUP7 ADD MSTORE PUSH2 0xD69 DUP3 DUP3 PUSH2 0xBEF JUMP JUMPDEST SWAP2 POP POP PUSH1 0x20 DUP4 ADD MLOAD DUP5 DUP3 SUB PUSH1 0x20 DUP7 ADD MSTORE PUSH2 0xD83 DUP3 DUP3 PUSH2 0xBEF JUMP JUMPDEST SWAP2 POP POP PUSH1 0x40 DUP4 ADD MLOAD PUSH2 0xD98 PUSH1 0x40 DUP7 ADD DUP3 PUSH2 0xBE0 JUMP JUMPDEST POP PUSH1 0x60 DUP4 ADD MLOAD PUSH2 0xDAB PUSH1 0x60 DUP7 ADD DUP3 PUSH2 0xBD1 JUMP JUMPDEST POP PUSH1 0x80 DUP4 ADD MLOAD PUSH2 0xDBE PUSH1 0x80 DUP7 ADD DUP3 PUSH2 0xDEF JUMP JUMPDEST POP PUSH1 0xA0 DUP4 ADD MLOAD PUSH2 0xDD1 PUSH1 0xA0 DUP7 ADD DUP3 PUSH2 0xDEF JUMP JUMPDEST POP PUSH1 0xC0 DUP4 ADD MLOAD PUSH2 0xDE4 PUSH1 0xC0 DUP7 ADD DUP3 PUSH2 0xB4D JUMP JUMPDEST POP DUP1 SWAP2 POP POP SWAP3 SWAP2 POP POP JUMP JUMPDEST PUSH2 0xDF8 DUP2 PUSH2 0xFDF JUMP JUMPDEST DUP3 MSTORE POP POP JUMP JUMPDEST PUSH1 0x0 PUSH2 0xE0A DUP3 DUP5 PUSH2 0xC28 JUMP JUMPDEST SWAP2 POP DUP2 SWAP1 POP SWAP3 SWAP2 POP POP JUMP JUMPDEST PUSH1 0x0 PUSH1 0x20 DUP3 ADD SWAP1 POP DUP2 DUP2 SUB PUSH1 0x0 DUP4 ADD MSTORE PUSH2 0xE2F DUP2 DUP5 PUSH2 0xB5C JUMP JUMPDEST SWAP1 POP SWAP3 SWAP2 POP POP JUMP JUMPDEST PUSH1 0x0 PUSH1 0x20 DUP3 ADD SWAP1 POP DUP2 DUP2 SUB PUSH1 0x0 DUP4 ADD MSTORE PUSH2 0xE51 DUP2 DUP5 PUSH2 0xC59 JUMP JUMPDEST SWAP1 POP SWAP3 SWAP2 POP POP JUMP JUMPDEST PUSH1 0x0 PUSH1 0x20 DUP3 ADD SWAP1 POP DUP2 DUP2 SUB PUSH1 0x0 DUP4 ADD MSTORE PUSH2 0xE73 DUP2 DUP5 PUSH2 0xD4C JUMP JUMPDEST SWAP1 POP SWAP3 SWAP2 POP POP JUMP JUMPDEST PUSH1 0x0 PUSH2 0xE85 PUSH2 0xE96 JUMP JUMPDEST SWAP1 POP PUSH2 0xE91 DUP3 DUP3 PUSH2 0x1081 JUMP JUMPDEST SWAP2 SWAP1 POP JUMP JUMPDEST PUSH1 0x0 PUSH1 0x40 MLOAD SWAP1 POP SWAP1 JUMP JUMPDEST PUSH1 0x0 PUSH8 0xFFFFFFFFFFFFFFFF DUP3 GT ISZERO PUSH2 0xEBB JUMPI PUSH2 0xEBA PUSH2 0x11B7 JUMP JUMPDEST JUMPDEST PUSH2 0xEC4 DUP3 PUSH2 0x11FA JUMP JUMPDEST SWAP1 POP PUSH1 0x20 DUP2 ADD SWAP1 POP SWAP2 SWAP1 POP JUMP JUMPDEST PUSH1 0x0 DUP2 SWAP1 POP PUSH1 0x20 DUP3 ADD SWAP1 POP SWAP2 SWAP1 POP JUMP JUMPDEST PUSH1 0x0 DUP2 MLOAD SWAP1 POP SWAP2 SWAP1 POP JUMP JUMPDEST PUSH1 0x0 DUP2 MLOAD SWAP1 POP SWAP2 SWAP1 POP JUMP JUMPDEST PUSH1 0x0 PUSH1 0x20 DUP3 ADD SWAP1 POP SWAP2 SWAP1 POP JUMP JUMPDEST PUSH1 0x0 DUP3 DUP3 MSTORE PUSH1 0x20 DUP3 ADD SWAP1 POP SWAP3 SWAP2 POP POP JUMP JUMPDEST PUSH1 0x0 DUP3 DUP3 MSTORE PUSH1 0x20 DUP3 ADD SWAP1 POP SWAP3 SWAP2 POP POP JUMP JUMPDEST PUSH1 0x0 DUP2 SWAP1 POP SWAP3 SWAP2 POP POP JUMP JUMPDEST PUSH1 0x0 PUSH2 0xF3C DUP3 PUSH2 0xFDF JUMP JUMPDEST SWAP2 POP PUSH2 0xF47 DUP4 PUSH2 0xFDF JUMP JUMPDEST SWAP3 POP DUP3 PUSH32 0xFFFFFFFFFFFFFFFFFFFFFFFFFFFFFFFFFFFFFFFFFFFFFFFFFFFFFFFFFFFFFFFF SUB DUP3 GT ISZERO PUSH2 0xF7C JUMPI PUSH2 0xF7B PUSH2 0x10FB JUMP JUMPDEST JUMPDEST DUP3 DUP3 ADD SWAP1 POP SWAP3 SWAP2 POP POP JUMP JUMPDEST PUSH1 0x0 PUSH2 0xF92 DUP3 PUSH2 0xFBF JUMP JUMPDEST SWAP1 POP SWAP2 SWAP1 POP JUMP JUMPDEST PUSH1 0x0 DUP2 SWAP1 POP PUSH2 0xFA7 DUP3 PUSH2 0x120B JUMP JUMPDEST SWAP2 SWAP1 POP JUMP JUMPDEST PUSH1 0x0 DUP2 SWAP1 POP PUSH2 0xFBA DUP3 PUSH2 0x121F JUMP JUMPDEST SWAP2 SWAP1 POP JUMP JUMPDEST PUSH1 0x0 PUSH20 0xFFFFFFFFFFFFFFFFFFFFFFFFFFFFFFFFFFFFFFFF DUP3 AND SWAP1 POP SWAP2 SWAP1 POP JUMP JUMPDEST PUSH1 0x0 DUP2 SWAP1 POP SWAP2 SWAP1 POP JUMP JUMPDEST PUSH1 0x0 PUSH2 0xFF4 DUP3 PUSH2 0xF99 JUMP JUMPDEST SWAP1 POP SWAP2 SWAP1 POP JUMP JUMPDEST PUSH1 0x0 PUSH2 0x1006 DUP3 PUSH2 0xFAC JUMP JUMPDEST SWAP1 POP SWAP2 SWAP1 POP JUMP JUMPDEST DUP3 DUP2 DUP4 CALLDATACOPY PUSH1 0x0 DUP4 DUP4 ADD MSTORE POP POP POP JUMP JUMPDEST PUSH1 0x0 JUMPDEST DUP4 DUP2 LT ISZERO PUSH2 0x103A JUMPI DUP1 DUP3 ADD MLOAD DUP2 DUP5 ADD MSTORE PUSH1 0x20 DUP2 ADD SWAP1 POP PUSH2 0x101F JUMP JUMPDEST DUP4 DUP2 GT ISZERO PUSH2 0x1049 JUMPI PUSH1 0x0 DUP5 DUP5 ADD MSTORE JUMPDEST POP POP POP POP JUMP JUMPDEST PUSH1 0x0 PUSH1 0x2 DUP3 DIV SWAP1 POP PUSH1 0x1 DUP3 AND DUP1 PUSH2 0x1067 JUMPI PUSH1 0x7F DUP3 AND SWAP2 POP JUMPDEST PUSH1 0x20 DUP3 LT DUP2 EQ ISZERO PUSH2 0x107B JUMPI PUSH2 0x107A PUSH2 0x1159 JUMP JUMPDEST JUMPDEST POP SWAP2 SWAP1 POP JUMP JUMPDEST PUSH2 0x108A DUP3 PUSH2 0x11FA JUMP JUMPDEST DUP2 ADD DUP2 DUP2 LT PUSH8 0xFFFFFFFFFFFFFFFF DUP3 GT OR ISZERO PUSH2 0x10A9 JUMPI PUSH2 0x10A8 PUSH2 0x11B7 JUMP JUMPDEST JUMPDEST DUP1 PUSH1 0x40 MSTORE POP POP POP JUMP JUMPDEST PUSH1 0x0 PUSH2 0x10BD DUP3 PUSH2 0xFDF JUMP JUMPDEST SWAP2 POP PUSH32 0xFFFFFFFFFFFFFFFFFFFFFFFFFFFFFFFFFFFFFFFFFFFFFFFFFFFFFFFFFFFFFFFF DUP3 EQ ISZERO PUSH2 0x10F0 JUMPI PUSH2 0x10EF PUSH2 0x10FB JUMP JUMPDEST JUMPDEST PUSH1 0x1 DUP3 ADD SWAP1 POP SWAP2 SWAP1 POP JUMP JUMPDEST PUSH32 0x4E487B7100000000000000000000000000000000000000000000000000000000 PUSH1 0x0 MSTORE PUSH1 0x11 PUSH1 0x4 MSTORE PUSH1 0x24 PUSH1 0x0 REVERT JUMPDEST PUSH32 0x4E487B7100000000000000000000000000000000000000000000000000000000 PUSH1 0x0 MSTORE PUSH1 0x21 PUSH1 0x4 MSTORE PUSH1 0x24 PUSH1 0x0 REVERT JUMPDEST PUSH32 0x4E487B7100000000000000000000000000000000000000000000000000000000 PUSH1 0x0 MSTORE PUSH1 0x22 PUSH1 0x4 MSTORE PUSH1 0x24 PUSH1 0x0 REVERT JUMPDEST PUSH32 0x4E487B7100000000000000000000000000000000000000000000000000000000 PUSH1 0x0 MSTORE PUSH1 0x32 PUSH1 0x4 MSTORE PUSH1 0x24 PUSH1 0x0 REVERT JUMPDEST PUSH32 0x4E487B7100000000000000000000000000000000000000000000000000000000 PUSH1 0x0 MSTORE PUSH1 0x41 PUSH1 0x4 MSTORE PUSH1 0x24 PUSH1 0x0 REVERT JUMPDEST PUSH1 0x0 DUP1 REVERT JUMPDEST PUSH1 0x0 DUP1 REVERT JUMPDEST PUSH1 0x0 DUP1 REVERT JUMPDEST PUSH1 0x0 DUP1 REVERT JUMPDEST PUSH1 0x0 PUSH1 0x1F NOT PUSH1 0x1F DUP4 ADD AND SWAP1 POP SWAP2 SWAP1 POP JUMP JUMPDEST PUSH1 0x3 DUP2 LT PUSH2 0x121C JUMPI PUSH2 0x121B PUSH2 0x112A JUMP JUMPDEST JUMPDEST POP JUMP JUMPDEST PUSH1 0x7 DUP2 LT PUSH2 0x1230 JUMPI PUSH2 0x122F PUSH2 0x112A JUMP JUMPDEST JUMPDEST POP JUMP JUMPDEST PUSH2 0x123C DUP2 PUSH2 0xF87 JUMP JUMPDEST DUP2 EQ PUSH2 0x1247 JUMPI PUSH1 0x0 DUP1 REVERT JUMPDEST POP JUMP JUMPDEST PUSH1 0x7 DUP2 LT PUSH2 0x1257 JUMPI PUSH1 0x0 DUP1 REVERT JUMPDEST POP JUMP INVALID LOG2 PUSH5 0x6970667358 0x22 SLT KECCAK256 0x4C DUP6 0x2A 0x23 0xD4 0xAD 0x5E PUSH1 0x9D 0xB9 0xD7 LT SWAP7 GAS STATICCALL 0x5D 0xAA CALL 0xAA 0xEE PUSH17 0xC9087049C09D30F265E91B64736F6C6343 STOP ADDMOD SMOD STOP CALLER "
				},
				"gasEstimates": {
					"creation": {
						"codeDepositCost": "950400",
						"executionCost": "988",
						"totalCost": "951388"
					},
					"external": {
						"GetUsersByType(uint8)": "infinite",
						"ReadDrug(string)": "infinite",
						"ReadUser(address)": "infinite"
					}
				},
				"methodIdentifiers": {
					"GetUsersByType(uint8)": "0f9de977",
					"ReadDrug(string)": "cdf7e73d",
					"ReadUser(address)": "cd1720d1"
				}
			},
			"storageLayout": {
				"storage": [
					{
						"astId": 36,
						"contract": "contracts/Utils.sol:Utils",
						"label": "UserAddressMapping",
						"offset": 0,
						"slot": "0",
						"type": "t_mapping(t_address,t_struct(User)31_storage)"
					},
					{
						"astId": 39,
						"contract": "contracts/Utils.sol:Utils",
						"label": "UsersAddresses",
						"offset": 0,
						"slot": "1",
						"type": "t_array(t_address)dyn_storage"
					},
					{
						"astId": 169,
						"contract": "contracts/Utils.sol:Utils",
						"label": "DrugRegNoMapping",
						"offset": 0,
						"slot": "2",
						"type": "t_mapping(t_string_memory_ptr,t_struct(Drug)156_storage)"
					},
					{
						"astId": 172,
						"contract": "contracts/Utils.sol:Utils",
						"label": "DrugsRegNos",
						"offset": 0,
						"slot": "3",
						"type": "t_array(t_string_storage)dyn_storage"
					}
				],
				"types": {
					"t_address": {
						"encoding": "inplace",
						"label": "address",
						"numberOfBytes": "20"
					},
					"t_array(t_address)dyn_storage": {
						"base": "t_address",
						"encoding": "dynamic_array",
						"label": "address[]",
						"numberOfBytes": "32"
					},
					"t_array(t_string_storage)dyn_storage": {
						"base": "t_string_storage",
						"encoding": "dynamic_array",
						"label": "string[]",
						"numberOfBytes": "32"
					},
					"t_enum(Statuses)6": {
						"encoding": "inplace",
						"label": "enum Utils.Statuses",
						"numberOfBytes": "1"
					},
					"t_enum(UserRoles)14": {
						"encoding": "inplace",
						"label": "enum Utils.UserRoles",
						"numberOfBytes": "1"
					},
					"t_mapping(t_address,t_struct(User)31_storage)": {
						"encoding": "mapping",
						"key": "t_address",
						"label": "mapping(address => struct Utils.User)",
						"numberOfBytes": "32",
						"value": "t_struct(User)31_storage"
					},
					"t_mapping(t_string_memory_ptr,t_struct(Drug)156_storage)": {
						"encoding": "mapping",
						"key": "t_string_memory_ptr",
						"label": "mapping(string => struct Utils.Drug)",
						"numberOfBytes": "32",
						"value": "t_struct(Drug)156_storage"
					},
					"t_string_memory_ptr": {
						"encoding": "bytes",
						"label": "string",
						"numberOfBytes": "32"
					},
					"t_string_storage": {
						"encoding": "bytes",
						"label": "string",
						"numberOfBytes": "32"
					},
					"t_struct(Drug)156_storage": {
						"encoding": "inplace",
						"label": "struct Utils.Drug",
						"members": [
							{
								"astId": 150,
								"contract": "contracts/Utils.sol:Utils",
								"label": "DrugName",
								"offset": 0,
								"slot": "0",
								"type": "t_string_storage"
							},
							{
								"astId": 152,
								"contract": "contracts/Utils.sol:Utils",
								"label": "Manufacturer",
								"offset": 0,
								"slot": "1",
								"type": "t_address"
							},
							{
								"astId": 155,
								"contract": "contracts/Utils.sol:Utils",
								"label": "DrugStatus",
								"offset": 20,
								"slot": "1",
								"type": "t_enum(Statuses)6"
							}
						],
						"numberOfBytes": "64"
					},
					"t_struct(User)31_storage": {
						"encoding": "inplace",
						"label": "struct Utils.User",
						"members": [
							{
								"astId": 16,
								"contract": "contracts/Utils.sol:Utils",
								"label": "UserID",
								"offset": 0,
								"slot": "0",
								"type": "t_string_storage"
							},
							{
								"astId": 18,
								"contract": "contracts/Utils.sol:Utils",
								"label": "UserName",
								"offset": 0,
								"slot": "1",
								"type": "t_string_storage"
							},
							{
								"astId": 21,
								"contract": "contracts/Utils.sol:Utils",
								"label": "UserRole",
								"offset": 0,
								"slot": "2",
								"type": "t_enum(UserRoles)14"
							},
							{
								"astId": 24,
								"contract": "contracts/Utils.sol:Utils",
								"label": "UserStatus",
								"offset": 1,
								"slot": "2",
								"type": "t_enum(Statuses)6"
							},
							{
								"astId": 26,
								"contract": "contracts/Utils.sol:Utils",
								"label": "Latitude",
								"offset": 0,
								"slot": "3",
								"type": "t_uint256"
							},
							{
								"astId": 28,
								"contract": "contracts/Utils.sol:Utils",
								"label": "Longitude",
								"offset": 0,
								"slot": "4",
								"type": "t_uint256"
							},
							{
								"astId": 30,
								"contract": "contracts/Utils.sol:Utils",
								"label": "UserAddress",
								"offset": 0,
								"slot": "5",
								"type": "t_address"
							}
						],
						"numberOfBytes": "192"
					},
					"t_uint256": {
						"encoding": "inplace",
						"label": "uint256",
						"numberOfBytes": "32"
					}
				}
			},
			"userdoc": {
				"kind": "user",
				"methods": {},
				"version": 1
			}
		}
	}
}