{
	"contracts/Users.sol": {
		"Users": {
			"abi": [
				{
					"inputs": [
						{
							"internalType": "string",
							"name": "_id",
							"type": "string"
						},
						{
							"internalType": "string",
							"name": "_username",
							"type": "string"
						},
						{
							"internalType": "enum Utils.UserRoles",
							"name": "_userrole",
							"type": "uint8"
						},
						{
							"internalType": "uint256",
							"name": "_lat",
							"type": "uint256"
						},
						{
							"internalType": "uint256",
							"name": "_long",
							"type": "uint256"
						}
					],
					"name": "CreateUser",
					"outputs": [
						{
							"internalType": "bool",
							"name": "",
							"type": "bool"
						}
					],
					"stateMutability": "nonpayable",
					"type": "function"
				},
				{
					"inputs": [
						{
							"internalType": "string",
							"name": "_regno",
							"type": "string"
						}
					],
					"name": "ReadDrug",
					"outputs": [
						{
							"components": [
								{
									"internalType": "string",
									"name": "DrugName",
									"type": "string"
								},
								{
									"internalType": "address",
									"name": "Manufacturer",
									"type": "address"
								},
								{
									"internalType": "enum Utils.Statuses",
									"name": "DrugStatus",
									"type": "uint8"
								}
							],
							"internalType": "struct Utils.Drug",
							"name": "",
							"type": "tuple"
						}
					],
					"stateMutability": "view",
					"type": "function"
				}
			],
			"devdoc": {
				"kind": "dev",
				"methods": {},
				"version": 1
			},
			"evm": {
				"assembly": "    /* \"contracts/Users.sol\":120:840  contract Users is Utils {\r... */\n  mstore(0x40, 0x80)\n  callvalue\n  dup1\n  iszero\n  tag_1\n  jumpi\n  0x00\n  dup1\n  revert\ntag_1:\n  pop\n  dataSize(sub_0)\n  dup1\n  dataOffset(sub_0)\n  0x00\n  codecopy\n  0x00\n  return\nstop\n\nsub_0: assembly {\n        /* \"contracts/Users.sol\":120:840  contract Users is Utils {\r... */\n      mstore(0x40, 0x80)\n      callvalue\n      dup1\n      iszero\n      tag_1\n      jumpi\n      0x00\n      dup1\n      revert\n    tag_1:\n      pop\n      jumpi(tag_2, lt(calldatasize, 0x04))\n      shr(0xe0, calldataload(0x00))\n      dup1\n      0x64819ae0\n      eq\n      tag_3\n      jumpi\n      dup1\n      0xcdf7e73d\n      eq\n      tag_4\n      jumpi\n    tag_2:\n      0x00\n      dup1\n      revert\n        /* \"contracts/Users.sol\":157:835  function CreateUser(\r... */\n    tag_3:\n      tag_5\n      0x04\n      dup1\n      calldatasize\n      sub\n      dup2\n      add\n      swap1\n      tag_6\n      swap2\n      swap1\n      tag_7\n      jump\t// in\n    tag_6:\n      tag_8\n      jump\t// in\n    tag_5:\n      mload(0x40)\n      tag_9\n      swap2\n      swap1\n      tag_10\n      jump\t// in\n    tag_9:\n      mload(0x40)\n      dup1\n      swap2\n      sub\n      swap1\n      return\n        /* \"contracts/Utils.sol\":1072:1196  function ReadDrug(string memory _regno) public view returns (Drug memory) {\r... */\n    tag_4:\n      tag_11\n      0x04\n      dup1\n      calldatasize\n      sub\n      dup2\n      add\n      swap1\n      tag_12\n      swap2\n      swap1\n      tag_13\n      jump\t// in\n    tag_12:\n      tag_14\n      jump\t// in\n    tag_11:\n      mload(0x40)\n      tag_15\n      swap2\n      swap1\n      tag_16\n      jump\t// in\n    tag_15:\n      mload(0x40)\n      dup1\n      swap2\n      sub\n      swap1\n      return\n        /* \"contracts/Users.sol\":157:835  function CreateUser(\r... */\n    tag_8:\n        /* \"contracts/Users.sol\":339:343  bool */\n      0x00\n        /* \"contracts/Users.sol\":356:376  Statuses _activeUser */\n      dup1\n        /* \"contracts/Users.sol\":403:422  UserRoles.Physician */\n      0x05\n        /* \"contracts/Users.sol\":390:422  _userrole == UserRoles.Physician */\n      0x06\n      dup2\n      gt\n      iszero\n      tag_18\n      jumpi\n      tag_19\n      tag_20\n      jump\t// in\n    tag_19:\n    tag_18:\n        /* \"contracts/Users.sol\":390:399  _userrole */\n      dup6\n        /* \"contracts/Users.sol\":390:422  _userrole == UserRoles.Physician */\n      0x06\n      dup2\n      gt\n      iszero\n      tag_21\n      jumpi\n      tag_22\n      tag_20\n      jump\t// in\n    tag_22:\n    tag_21:\n      eq\n        /* \"contracts/Users.sol\":390:456  _userrole == UserRoles.Physician || _userrole == UserRoles.Patient */\n      dup1\n      tag_23\n      jumpi\n      pop\n        /* \"contracts/Users.sol\":439:456  UserRoles.Patient */\n      0x06\n        /* \"contracts/Users.sol\":426:456  _userrole == UserRoles.Patient */\n      dup1\n      dup2\n      gt\n      iszero\n      tag_24\n      jumpi\n      tag_25\n      tag_20\n      jump\t// in\n    tag_25:\n    tag_24:\n        /* \"contracts/Users.sol\":426:435  _userrole */\n      dup6\n        /* \"contracts/Users.sol\":426:456  _userrole == UserRoles.Patient */\n      0x06\n      dup2\n      gt\n      iszero\n      tag_26\n      jumpi\n      tag_27\n      tag_20\n      jump\t// in\n    tag_27:\n    tag_26:\n      eq\n        /* \"contracts/Users.sol\":390:456  _userrole == UserRoles.Physician || _userrole == UserRoles.Patient */\n    tag_23:\n        /* \"contracts/Users.sol\":387:580  if(_userrole == UserRoles.Physician || _userrole == UserRoles.Patient){\r... */\n      iszero\n      tag_28\n      jumpi\n        /* \"contracts/Users.sol\":486:501  Statuses.Active */\n      0x01\n        /* \"contracts/Users.sol\":472:501  _activeUser = Statuses.Active */\n      swap1\n      pop\n        /* \"contracts/Users.sol\":387:580  if(_userrole == UserRoles.Physician || _userrole == UserRoles.Patient){\r... */\n      jump(tag_29)\n    tag_28:\n        /* \"contracts/Users.sol\":556:568  Statuses.New */\n      0x00\n        /* \"contracts/Users.sol\":542:568  _activeUser = Statuses.New */\n      swap1\n      pop\n        /* \"contracts/Users.sol\":387:580  if(_userrole == UserRoles.Physician || _userrole == UserRoles.Patient){\r... */\n    tag_29:\n        /* \"contracts/Users.sol\":612:776  User(\r... */\n      mload(0x40)\n      dup1\n      0xc0\n      add\n      0x40\n      mstore\n      dup1\n        /* \"contracts/Users.sol\":631:640  _username */\n      dup8\n        /* \"contracts/Users.sol\":612:776  User(\r... */\n      dup2\n      mstore\n      0x20\n      add\n        /* \"contracts/Users.sol\":665:674  _userrole */\n      dup7\n        /* \"contracts/Users.sol\":612:776  User(\r... */\n      0x06\n      dup2\n      gt\n      iszero\n      tag_30\n      jumpi\n      tag_31\n      tag_20\n      jump\t// in\n    tag_31:\n    tag_30:\n      dup2\n      mstore\n      0x20\n      add\n        /* \"contracts/Users.sol\":690:701  _activeUser */\n      dup3\n        /* \"contracts/Users.sol\":612:776  User(\r... */\n      0x02\n      dup2\n      gt\n      iszero\n      tag_32\n      jumpi\n      tag_33\n      tag_20\n      jump\t// in\n    tag_33:\n    tag_32:\n      dup2\n      mstore\n      0x20\n      add\n        /* \"contracts/Users.sol\":716:720  _lat */\n      dup6\n        /* \"contracts/Users.sol\":612:776  User(\r... */\n      dup2\n      mstore\n      0x20\n      add\n        /* \"contracts/Users.sol\":735:740  _long */\n      dup5\n        /* \"contracts/Users.sol\":612:776  User(\r... */\n      dup2\n      mstore\n      0x20\n      add\n        /* \"contracts/Users.sol\":755:765  msg.sender */\n      caller\n        /* \"contracts/Users.sol\":612:776  User(\r... */\n      0xffffffffffffffffffffffffffffffffffffffff\n      and\n      dup2\n      mstore\n      pop\n        /* \"contracts/Users.sol\":590:604  UserIDsMapping */\n      0x00\n        /* \"contracts/Users.sol\":605:608  _id */\n      dup9\n        /* \"contracts/Users.sol\":590:609  UserIDsMapping[_id] */\n      mload(0x40)\n      tag_34\n      swap2\n      swap1\n      tag_35\n      jump\t// in\n    tag_34:\n      swap1\n      dup2\n      mstore\n      0x20\n      add\n      mload(0x40)\n      dup1\n      swap2\n      sub\n      swap1\n      keccak256\n        /* \"contracts/Users.sol\":590:776  UserIDsMapping[_id] = User(\r... */\n      0x00\n      dup3\n      add\n      mload\n      dup2\n      0x00\n      add\n      swap1\n      dup1\n      mload\n      swap1\n      0x20\n      add\n      swap1\n      tag_36\n      swap3\n      swap2\n      swap1\n      tag_37\n      jump\t// in\n    tag_36:\n      pop\n      0x20\n      dup3\n      add\n      mload\n      dup2\n      0x01\n      add\n      exp(0x0100, 0x00)\n      dup2\n      sload\n      dup2\n      0xff\n      mul\n      not\n      and\n      swap1\n      dup4\n      0x06\n      dup2\n      gt\n      iszero\n      tag_38\n      jumpi\n      tag_39\n      tag_20\n      jump\t// in\n    tag_39:\n    tag_38:\n      mul\n      or\n      swap1\n      sstore\n      pop\n      0x40\n      dup3\n      add\n      mload\n      dup2\n      0x01\n      add\n      exp(0x0100, 0x01)\n      dup2\n      sload\n      dup2\n      0xff\n      mul\n      not\n      and\n      swap1\n      dup4\n      0x02\n      dup2\n      gt\n      iszero\n      tag_40\n      jumpi\n      tag_41\n      tag_20\n      jump\t// in\n    tag_41:\n    tag_40:\n      mul\n      or\n      swap1\n      sstore\n      pop\n      0x60\n      dup3\n      add\n      mload\n      dup2\n      0x02\n      add\n      sstore\n      0x80\n      dup3\n      add\n      mload\n      dup2\n      0x03\n      add\n      sstore\n      0xa0\n      dup3\n      add\n      mload\n      dup2\n      0x04\n      add\n      exp(0x0100, 0x00)\n      dup2\n      sload\n      dup2\n      0xffffffffffffffffffffffffffffffffffffffff\n      mul\n      not\n      and\n      swap1\n      dup4\n      0xffffffffffffffffffffffffffffffffffffffff\n      and\n      mul\n      or\n      swap1\n      sstore\n      pop\n      swap1\n      pop\n      pop\n        /* \"contracts/Users.sol\":787:795  UsersIDs */\n      0x01\n        /* \"contracts/Users.sol\":801:804  _id */\n      dup8\n        /* \"contracts/Users.sol\":787:805  UsersIDs.push(_id) */\n      swap1\n      dup1\n      0x01\n      dup2\n      sload\n      add\n      dup1\n      dup3\n      sstore\n      dup1\n      swap2\n      pop\n      pop\n      0x01\n      swap1\n      sub\n      swap1\n      0x00\n      mstore\n      keccak256(0x00, 0x20)\n      add\n      0x00\n      swap1\n      swap2\n      swap1\n      swap2\n      swap1\n      swap2\n      pop\n      swap1\n      dup1\n      mload\n      swap1\n      0x20\n      add\n      swap1\n      tag_43\n      swap3\n      swap2\n      swap1\n      tag_37\n      jump\t// in\n    tag_43:\n      pop\n        /* \"contracts/Users.sol\":823:827  true */\n      0x01\n        /* \"contracts/Users.sol\":816:827  return true */\n      swap2\n      pop\n      pop\n        /* \"contracts/Users.sol\":157:835  function CreateUser(\r... */\n      swap6\n      swap5\n      pop\n      pop\n      pop\n      pop\n      pop\n      jump\t// out\n        /* \"contracts/Utils.sol\":1072:1196  function ReadDrug(string memory _regno) public view returns (Drug memory) {\r... */\n    tag_14:\n        /* \"contracts/Utils.sol\":1133:1144  Drug memory */\n      tag_44\n      tag_45\n      jump\t// in\n    tag_44:\n        /* \"contracts/Utils.sol\":1164:1180  DrugRegNoMapping */\n      0x02\n        /* \"contracts/Utils.sol\":1181:1187  _regno */\n      dup3\n        /* \"contracts/Utils.sol\":1164:1188  DrugRegNoMapping[_regno] */\n      mload(0x40)\n      tag_47\n      swap2\n      swap1\n      tag_35\n      jump\t// in\n    tag_47:\n      swap1\n      dup2\n      mstore\n      0x20\n      add\n      mload(0x40)\n      dup1\n      swap2\n      sub\n      swap1\n      keccak256\n        /* \"contracts/Utils.sol\":1157:1188  return DrugRegNoMapping[_regno] */\n      mload(0x40)\n      dup1\n      0x60\n      add\n      0x40\n      mstore\n      swap1\n      dup2\n      0x00\n      dup3\n      add\n      dup1\n      sload\n      tag_48\n      swap1\n      tag_49\n      jump\t// in\n    tag_48:\n      dup1\n      0x1f\n      add\n      0x20\n      dup1\n      swap2\n      div\n      mul\n      0x20\n      add\n      mload(0x40)\n      swap1\n      dup2\n      add\n      0x40\n      mstore\n      dup1\n      swap3\n      swap2\n      swap1\n      dup2\n      dup2\n      mstore\n      0x20\n      add\n      dup3\n      dup1\n      sload\n      tag_50\n      swap1\n      tag_49\n      jump\t// in\n    tag_50:\n      dup1\n      iszero\n      tag_51\n      jumpi\n      dup1\n      0x1f\n      lt\n      tag_52\n      jumpi\n      0x0100\n      dup1\n      dup4\n      sload\n      div\n      mul\n      dup4\n      mstore\n      swap2\n      0x20\n      add\n      swap2\n      jump(tag_51)\n    tag_52:\n      dup3\n      add\n      swap2\n      swap1\n      0x00\n      mstore\n      keccak256(0x00, 0x20)\n      swap1\n    tag_53:\n      dup2\n      sload\n      dup2\n      mstore\n      swap1\n      0x01\n      add\n      swap1\n      0x20\n      add\n      dup1\n      dup4\n      gt\n      tag_53\n      jumpi\n      dup3\n      swap1\n      sub\n      0x1f\n      and\n      dup3\n      add\n      swap2\n    tag_51:\n      pop\n      pop\n      pop\n      pop\n      pop\n      dup2\n      mstore\n      0x20\n      add\n      0x01\n      dup3\n      add\n      0x00\n      swap1\n      sload\n      swap1\n      0x0100\n      exp\n      swap1\n      div\n      0xffffffffffffffffffffffffffffffffffffffff\n      and\n      0xffffffffffffffffffffffffffffffffffffffff\n      and\n      0xffffffffffffffffffffffffffffffffffffffff\n      and\n      dup2\n      mstore\n      0x20\n      add\n      0x01\n      dup3\n      add\n      0x14\n      swap1\n      sload\n      swap1\n      0x0100\n      exp\n      swap1\n      div\n      0xff\n      and\n      0x02\n      dup2\n      gt\n      iszero\n      tag_54\n      jumpi\n      tag_55\n      tag_20\n      jump\t// in\n    tag_55:\n    tag_54:\n      0x02\n      dup2\n      gt\n      iszero\n      tag_56\n      jumpi\n      tag_57\n      tag_20\n      jump\t// in\n    tag_57:\n    tag_56:\n      dup2\n      mstore\n      pop\n      pop\n      swap1\n      pop\n        /* \"contracts/Utils.sol\":1072:1196  function ReadDrug(string memory _regno) public view returns (Drug memory) {\r... */\n      swap2\n      swap1\n      pop\n      jump\t// out\n    tag_37:\n      dup3\n      dup1\n      sload\n      tag_58\n      swap1\n      tag_49\n      jump\t// in\n    tag_58:\n      swap1\n      0x00\n      mstore\n      keccak256(0x00, 0x20)\n      swap1\n      0x1f\n      add\n      0x20\n      swap1\n      div\n      dup2\n      add\n      swap3\n      dup3\n      tag_60\n      jumpi\n      0x00\n      dup6\n      sstore\n      jump(tag_59)\n    tag_60:\n      dup3\n      0x1f\n      lt\n      tag_61\n      jumpi\n      dup1\n      mload\n      not(0xff)\n      and\n      dup4\n      dup1\n      add\n      or\n      dup6\n      sstore\n      jump(tag_59)\n    tag_61:\n      dup3\n      dup1\n      add\n      0x01\n      add\n      dup6\n      sstore\n      dup3\n      iszero\n      tag_59\n      jumpi\n      swap2\n      dup3\n      add\n    tag_62:\n      dup3\n      dup2\n      gt\n      iszero\n      tag_63\n      jumpi\n      dup3\n      mload\n      dup3\n      sstore\n      swap2\n      0x20\n      add\n      swap2\n      swap1\n      0x01\n      add\n      swap1\n      jump(tag_62)\n    tag_63:\n    tag_59:\n      pop\n      swap1\n      pop\n      tag_64\n      swap2\n      swap1\n      tag_65\n      jump\t// in\n    tag_64:\n      pop\n      swap1\n      jump\t// out\n    tag_45:\n      mload(0x40)\n      dup1\n      0x60\n      add\n      0x40\n      mstore\n      dup1\n      0x60\n      dup2\n      mstore\n      0x20\n      add\n      and(0xffffffffffffffffffffffffffffffffffffffff, 0x00)\n      dup2\n      mstore\n      0x20\n      add\n      0x00\n      0x02\n      dup2\n      gt\n      iszero\n      tag_66\n      jumpi\n      tag_67\n      tag_20\n      jump\t// in\n    tag_67:\n    tag_66:\n      dup2\n      mstore\n      pop\n      swap1\n      jump\t// out\n    tag_65:\n    tag_68:\n      dup1\n      dup3\n      gt\n      iszero\n      tag_69\n      jumpi\n      0x00\n      dup2\n      0x00\n      swap1\n      sstore\n      pop\n      0x01\n      add\n      jump(tag_68)\n    tag_69:\n      pop\n      swap1\n      jump\t// out\n        /* \"#utility.yul\":7:419   */\n    tag_71:\n        /* \"#utility.yul\":85:90   */\n      0x00\n        /* \"#utility.yul\":110:176   */\n      tag_73\n        /* \"#utility.yul\":126:175   */\n      tag_74\n        /* \"#utility.yul\":168:174   */\n      dup5\n        /* \"#utility.yul\":126:175   */\n      tag_75\n      jump\t// in\n    tag_74:\n        /* \"#utility.yul\":110:176   */\n      tag_76\n      jump\t// in\n    tag_73:\n        /* \"#utility.yul\":101:176   */\n      swap1\n      pop\n        /* \"#utility.yul\":199:205   */\n      dup3\n        /* \"#utility.yul\":192:197   */\n      dup2\n        /* \"#utility.yul\":185:206   */\n      mstore\n        /* \"#utility.yul\":237:241   */\n      0x20\n        /* \"#utility.yul\":230:235   */\n      dup2\n        /* \"#utility.yul\":226:242   */\n      add\n        /* \"#utility.yul\":275:278   */\n      dup5\n        /* \"#utility.yul\":266:272   */\n      dup5\n        /* \"#utility.yul\":261:264   */\n      dup5\n        /* \"#utility.yul\":257:273   */\n      add\n        /* \"#utility.yul\":254:279   */\n      gt\n        /* \"#utility.yul\":251:363   */\n      iszero\n      tag_77\n      jumpi\n        /* \"#utility.yul\":282:361   */\n      tag_78\n      tag_79\n      jump\t// in\n    tag_78:\n        /* \"#utility.yul\":251:363   */\n    tag_77:\n        /* \"#utility.yul\":372:413   */\n      tag_80\n        /* \"#utility.yul\":406:412   */\n      dup5\n        /* \"#utility.yul\":401:404   */\n      dup3\n        /* \"#utility.yul\":396:399   */\n      dup6\n        /* \"#utility.yul\":372:413   */\n      tag_81\n      jump\t// in\n    tag_80:\n        /* \"#utility.yul\":91:419   */\n      pop\n        /* \"#utility.yul\":7:419   */\n      swap4\n      swap3\n      pop\n      pop\n      pop\n      jump\t// out\n        /* \"#utility.yul\":425:588   */\n    tag_82:\n        /* \"#utility.yul\":483:488   */\n      0x00\n        /* \"#utility.yul\":521:527   */\n      dup2\n        /* \"#utility.yul\":508:528   */\n      calldataload\n        /* \"#utility.yul\":499:528   */\n      swap1\n      pop\n        /* \"#utility.yul\":537:582   */\n      tag_84\n        /* \"#utility.yul\":576:581   */\n      dup2\n        /* \"#utility.yul\":537:582   */\n      tag_85\n      jump\t// in\n    tag_84:\n        /* \"#utility.yul\":425:588   */\n      swap3\n      swap2\n      pop\n      pop\n      jump\t// out\n        /* \"#utility.yul\":608:948   */\n    tag_86:\n        /* \"#utility.yul\":664:669   */\n      0x00\n        /* \"#utility.yul\":713:716   */\n      dup3\n        /* \"#utility.yul\":706:710   */\n      0x1f\n        /* \"#utility.yul\":698:704   */\n      dup4\n        /* \"#utility.yul\":694:711   */\n      add\n        /* \"#utility.yul\":690:717   */\n      slt\n        /* \"#utility.yul\":680:802   */\n      tag_88\n      jumpi\n        /* \"#utility.yul\":721:800   */\n      tag_89\n      tag_90\n      jump\t// in\n    tag_89:\n        /* \"#utility.yul\":680:802   */\n    tag_88:\n        /* \"#utility.yul\":838:844   */\n      dup2\n        /* \"#utility.yul\":825:845   */\n      calldataload\n        /* \"#utility.yul\":863:942   */\n      tag_91\n        /* \"#utility.yul\":938:941   */\n      dup5\n        /* \"#utility.yul\":930:936   */\n      dup3\n        /* \"#utility.yul\":923:927   */\n      0x20\n        /* \"#utility.yul\":915:921   */\n      dup7\n        /* \"#utility.yul\":911:928   */\n      add\n        /* \"#utility.yul\":863:942   */\n      tag_71\n      jump\t// in\n    tag_91:\n        /* \"#utility.yul\":854:942   */\n      swap2\n      pop\n        /* \"#utility.yul\":670:948   */\n      pop\n        /* \"#utility.yul\":608:948   */\n      swap3\n      swap2\n      pop\n      pop\n      jump\t// out\n        /* \"#utility.yul\":954:1093   */\n    tag_92:\n        /* \"#utility.yul\":1000:1005   */\n      0x00\n        /* \"#utility.yul\":1038:1044   */\n      dup2\n        /* \"#utility.yul\":1025:1045   */\n      calldataload\n        /* \"#utility.yul\":1016:1045   */\n      swap1\n      pop\n        /* \"#utility.yul\":1054:1087   */\n      tag_94\n        /* \"#utility.yul\":1081:1086   */\n      dup2\n        /* \"#utility.yul\":1054:1087   */\n      tag_95\n      jump\t// in\n    tag_94:\n        /* \"#utility.yul\":954:1093   */\n      swap3\n      swap2\n      pop\n      pop\n      jump\t// out\n        /* \"#utility.yul\":1099:1608   */\n    tag_13:\n        /* \"#utility.yul\":1168:1174   */\n      0x00\n        /* \"#utility.yul\":1217:1219   */\n      0x20\n        /* \"#utility.yul\":1205:1214   */\n      dup3\n        /* \"#utility.yul\":1196:1203   */\n      dup5\n        /* \"#utility.yul\":1192:1215   */\n      sub\n        /* \"#utility.yul\":1188:1220   */\n      slt\n        /* \"#utility.yul\":1185:1304   */\n      iszero\n      tag_97\n      jumpi\n        /* \"#utility.yul\":1223:1302   */\n      tag_98\n      tag_99\n      jump\t// in\n    tag_98:\n        /* \"#utility.yul\":1185:1304   */\n    tag_97:\n        /* \"#utility.yul\":1371:1372   */\n      0x00\n        /* \"#utility.yul\":1360:1369   */\n      dup3\n        /* \"#utility.yul\":1356:1373   */\n      add\n        /* \"#utility.yul\":1343:1374   */\n      calldataload\n        /* \"#utility.yul\":1401:1419   */\n      0xffffffffffffffff\n        /* \"#utility.yul\":1393:1399   */\n      dup2\n        /* \"#utility.yul\":1390:1420   */\n      gt\n        /* \"#utility.yul\":1387:1504   */\n      iszero\n      tag_100\n      jumpi\n        /* \"#utility.yul\":1423:1502   */\n      tag_101\n      tag_102\n      jump\t// in\n    tag_101:\n        /* \"#utility.yul\":1387:1504   */\n    tag_100:\n        /* \"#utility.yul\":1528:1591   */\n      tag_103\n        /* \"#utility.yul\":1583:1590   */\n      dup5\n        /* \"#utility.yul\":1574:1580   */\n      dup3\n        /* \"#utility.yul\":1563:1572   */\n      dup6\n        /* \"#utility.yul\":1559:1581   */\n      add\n        /* \"#utility.yul\":1528:1591   */\n      tag_86\n      jump\t// in\n    tag_103:\n        /* \"#utility.yul\":1518:1591   */\n      swap2\n      pop\n        /* \"#utility.yul\":1314:1601   */\n      pop\n        /* \"#utility.yul\":1099:1608   */\n      swap3\n      swap2\n      pop\n      pop\n      jump\t// out\n        /* \"#utility.yul\":1614:2909   */\n    tag_7:\n        /* \"#utility.yul\":1741:1747   */\n      0x00\n        /* \"#utility.yul\":1749:1755   */\n      dup1\n        /* \"#utility.yul\":1757:1763   */\n      0x00\n        /* \"#utility.yul\":1765:1771   */\n      dup1\n        /* \"#utility.yul\":1773:1779   */\n      0x00\n        /* \"#utility.yul\":1822:1825   */\n      0xa0\n        /* \"#utility.yul\":1810:1819   */\n      dup7\n        /* \"#utility.yul\":1801:1808   */\n      dup9\n        /* \"#utility.yul\":1797:1820   */\n      sub\n        /* \"#utility.yul\":1793:1826   */\n      slt\n        /* \"#utility.yul\":1790:1910   */\n      iszero\n      tag_105\n      jumpi\n        /* \"#utility.yul\":1829:1908   */\n      tag_106\n      tag_99\n      jump\t// in\n    tag_106:\n        /* \"#utility.yul\":1790:1910   */\n    tag_105:\n        /* \"#utility.yul\":1977:1978   */\n      0x00\n        /* \"#utility.yul\":1966:1975   */\n      dup7\n        /* \"#utility.yul\":1962:1979   */\n      add\n        /* \"#utility.yul\":1949:1980   */\n      calldataload\n        /* \"#utility.yul\":2007:2025   */\n      0xffffffffffffffff\n        /* \"#utility.yul\":1999:2005   */\n      dup2\n        /* \"#utility.yul\":1996:2026   */\n      gt\n        /* \"#utility.yul\":1993:2110   */\n      iszero\n      tag_107\n      jumpi\n        /* \"#utility.yul\":2029:2108   */\n      tag_108\n      tag_102\n      jump\t// in\n    tag_108:\n        /* \"#utility.yul\":1993:2110   */\n    tag_107:\n        /* \"#utility.yul\":2134:2197   */\n      tag_109\n        /* \"#utility.yul\":2189:2196   */\n      dup9\n        /* \"#utility.yul\":2180:2186   */\n      dup3\n        /* \"#utility.yul\":2169:2178   */\n      dup10\n        /* \"#utility.yul\":2165:2187   */\n      add\n        /* \"#utility.yul\":2134:2197   */\n      tag_86\n      jump\t// in\n    tag_109:\n        /* \"#utility.yul\":2124:2197   */\n      swap6\n      pop\n        /* \"#utility.yul\":1920:2207   */\n      pop\n        /* \"#utility.yul\":2274:2276   */\n      0x20\n        /* \"#utility.yul\":2263:2272   */\n      dup7\n        /* \"#utility.yul\":2259:2277   */\n      add\n        /* \"#utility.yul\":2246:2278   */\n      calldataload\n        /* \"#utility.yul\":2305:2323   */\n      0xffffffffffffffff\n        /* \"#utility.yul\":2297:2303   */\n      dup2\n        /* \"#utility.yul\":2294:2324   */\n      gt\n        /* \"#utility.yul\":2291:2408   */\n      iszero\n      tag_110\n      jumpi\n        /* \"#utility.yul\":2327:2406   */\n      tag_111\n      tag_102\n      jump\t// in\n    tag_111:\n        /* \"#utility.yul\":2291:2408   */\n    tag_110:\n        /* \"#utility.yul\":2432:2495   */\n      tag_112\n        /* \"#utility.yul\":2487:2494   */\n      dup9\n        /* \"#utility.yul\":2478:2484   */\n      dup3\n        /* \"#utility.yul\":2467:2476   */\n      dup10\n        /* \"#utility.yul\":2463:2485   */\n      add\n        /* \"#utility.yul\":2432:2495   */\n      tag_86\n      jump\t// in\n    tag_112:\n        /* \"#utility.yul\":2422:2495   */\n      swap5\n      pop\n        /* \"#utility.yul\":2217:2505   */\n      pop\n        /* \"#utility.yul\":2544:2546   */\n      0x40\n        /* \"#utility.yul\":2570:2635   */\n      tag_113\n        /* \"#utility.yul\":2627:2634   */\n      dup9\n        /* \"#utility.yul\":2618:2624   */\n      dup3\n        /* \"#utility.yul\":2607:2616   */\n      dup10\n        /* \"#utility.yul\":2603:2625   */\n      add\n        /* \"#utility.yul\":2570:2635   */\n      tag_82\n      jump\t// in\n    tag_113:\n        /* \"#utility.yul\":2560:2635   */\n      swap4\n      pop\n        /* \"#utility.yul\":2515:2645   */\n      pop\n        /* \"#utility.yul\":2684:2686   */\n      0x60\n        /* \"#utility.yul\":2710:2763   */\n      tag_114\n        /* \"#utility.yul\":2755:2762   */\n      dup9\n        /* \"#utility.yul\":2746:2752   */\n      dup3\n        /* \"#utility.yul\":2735:2744   */\n      dup10\n        /* \"#utility.yul\":2731:2753   */\n      add\n        /* \"#utility.yul\":2710:2763   */\n      tag_92\n      jump\t// in\n    tag_114:\n        /* \"#utility.yul\":2700:2763   */\n      swap3\n      pop\n        /* \"#utility.yul\":2655:2773   */\n      pop\n        /* \"#utility.yul\":2812:2815   */\n      0x80\n        /* \"#utility.yul\":2839:2892   */\n      tag_115\n        /* \"#utility.yul\":2884:2891   */\n      dup9\n        /* \"#utility.yul\":2875:2881   */\n      dup3\n        /* \"#utility.yul\":2864:2873   */\n      dup10\n        /* \"#utility.yul\":2860:2882   */\n      add\n        /* \"#utility.yul\":2839:2892   */\n      tag_92\n      jump\t// in\n    tag_115:\n        /* \"#utility.yul\":2829:2892   */\n      swap2\n      pop\n        /* \"#utility.yul\":2783:2902   */\n      pop\n        /* \"#utility.yul\":1614:2909   */\n      swap3\n      swap6\n      pop\n      swap3\n      swap6\n      swap1\n      swap4\n      pop\n      jump\t// out\n        /* \"#utility.yul\":2915:3023   */\n    tag_116:\n        /* \"#utility.yul\":2992:3016   */\n      tag_118\n        /* \"#utility.yul\":3010:3015   */\n      dup2\n        /* \"#utility.yul\":2992:3016   */\n      tag_119\n      jump\t// in\n    tag_118:\n        /* \"#utility.yul\":2987:2990   */\n      dup3\n        /* \"#utility.yul\":2980:3017   */\n      mstore\n        /* \"#utility.yul\":2915:3023   */\n      pop\n      pop\n      jump\t// out\n        /* \"#utility.yul\":3029:3138   */\n    tag_120:\n        /* \"#utility.yul\":3110:3131   */\n      tag_122\n        /* \"#utility.yul\":3125:3130   */\n      dup2\n        /* \"#utility.yul\":3110:3131   */\n      tag_123\n      jump\t// in\n    tag_122:\n        /* \"#utility.yul\":3105:3108   */\n      dup3\n        /* \"#utility.yul\":3098:3132   */\n      mstore\n        /* \"#utility.yul\":3029:3138   */\n      pop\n      pop\n      jump\t// out\n        /* \"#utility.yul\":3144:3283   */\n    tag_124:\n        /* \"#utility.yul\":3230:3276   */\n      tag_126\n        /* \"#utility.yul\":3270:3275   */\n      dup2\n        /* \"#utility.yul\":3230:3276   */\n      tag_127\n      jump\t// in\n    tag_126:\n        /* \"#utility.yul\":3225:3228   */\n      dup3\n        /* \"#utility.yul\":3218:3277   */\n      mstore\n        /* \"#utility.yul\":3144:3283   */\n      pop\n      pop\n      jump\t// out\n        /* \"#utility.yul\":3289:3633   */\n    tag_128:\n        /* \"#utility.yul\":3367:3370   */\n      0x00\n        /* \"#utility.yul\":3395:3434   */\n      tag_130\n        /* \"#utility.yul\":3428:3433   */\n      dup3\n        /* \"#utility.yul\":3395:3434   */\n      tag_131\n      jump\t// in\n    tag_130:\n        /* \"#utility.yul\":3450:3511   */\n      tag_132\n        /* \"#utility.yul\":3504:3510   */\n      dup2\n        /* \"#utility.yul\":3499:3502   */\n      dup6\n        /* \"#utility.yul\":3450:3511   */\n      tag_133\n      jump\t// in\n    tag_132:\n        /* \"#utility.yul\":3443:3511   */\n      swap4\n      pop\n        /* \"#utility.yul\":3520:3572   */\n      tag_134\n        /* \"#utility.yul\":3565:3571   */\n      dup2\n        /* \"#utility.yul\":3560:3563   */\n      dup6\n        /* \"#utility.yul\":3553:3557   */\n      0x20\n        /* \"#utility.yul\":3546:3551   */\n      dup7\n        /* \"#utility.yul\":3542:3558   */\n      add\n        /* \"#utility.yul\":3520:3572   */\n      tag_135\n      jump\t// in\n    tag_134:\n        /* \"#utility.yul\":3597:3626   */\n      tag_136\n        /* \"#utility.yul\":3619:3625   */\n      dup2\n        /* \"#utility.yul\":3597:3626   */\n      tag_137\n      jump\t// in\n    tag_136:\n        /* \"#utility.yul\":3592:3595   */\n      dup5\n        /* \"#utility.yul\":3588:3627   */\n      add\n        /* \"#utility.yul\":3581:3627   */\n      swap2\n      pop\n        /* \"#utility.yul\":3371:3633   */\n      pop\n        /* \"#utility.yul\":3289:3633   */\n      swap3\n      swap2\n      pop\n      pop\n      jump\t// out\n        /* \"#utility.yul\":3639:4016   */\n    tag_138:\n        /* \"#utility.yul\":3745:3748   */\n      0x00\n        /* \"#utility.yul\":3773:3812   */\n      tag_140\n        /* \"#utility.yul\":3806:3811   */\n      dup3\n        /* \"#utility.yul\":3773:3812   */\n      tag_131\n      jump\t// in\n    tag_140:\n        /* \"#utility.yul\":3828:3917   */\n      tag_141\n        /* \"#utility.yul\":3910:3916   */\n      dup2\n        /* \"#utility.yul\":3905:3908   */\n      dup6\n        /* \"#utility.yul\":3828:3917   */\n      tag_142\n      jump\t// in\n    tag_141:\n        /* \"#utility.yul\":3821:3917   */\n      swap4\n      pop\n        /* \"#utility.yul\":3926:3978   */\n      tag_143\n        /* \"#utility.yul\":3971:3977   */\n      dup2\n        /* \"#utility.yul\":3966:3969   */\n      dup6\n        /* \"#utility.yul\":3959:3963   */\n      0x20\n        /* \"#utility.yul\":3952:3957   */\n      dup7\n        /* \"#utility.yul\":3948:3964   */\n      add\n        /* \"#utility.yul\":3926:3978   */\n      tag_135\n      jump\t// in\n    tag_143:\n        /* \"#utility.yul\":4003:4009   */\n      dup1\n        /* \"#utility.yul\":3998:4001   */\n      dup5\n        /* \"#utility.yul\":3994:4010   */\n      add\n        /* \"#utility.yul\":3987:4010   */\n      swap2\n      pop\n        /* \"#utility.yul\":3749:4016   */\n      pop\n        /* \"#utility.yul\":3639:4016   */\n      swap3\n      swap2\n      pop\n      pop\n      jump\t// out\n        /* \"#utility.yul\":4068:4867   */\n    tag_144:\n        /* \"#utility.yul\":4179:4182   */\n      0x00\n        /* \"#utility.yul\":4215:4219   */\n      0x60\n        /* \"#utility.yul\":4210:4213   */\n      dup4\n        /* \"#utility.yul\":4206:4220   */\n      add\n        /* \"#utility.yul\":4306:4310   */\n      0x00\n        /* \"#utility.yul\":4299:4304   */\n      dup4\n        /* \"#utility.yul\":4295:4311   */\n      add\n        /* \"#utility.yul\":4289:4312   */\n      mload\n        /* \"#utility.yul\":4359:4362   */\n      dup5\n        /* \"#utility.yul\":4353:4357   */\n      dup3\n        /* \"#utility.yul\":4349:4363   */\n      sub\n        /* \"#utility.yul\":4342:4346   */\n      0x00\n        /* \"#utility.yul\":4337:4340   */\n      dup7\n        /* \"#utility.yul\":4333:4347   */\n      add\n        /* \"#utility.yul\":4326:4364   */\n      mstore\n        /* \"#utility.yul\":4385:4458   */\n      tag_146\n        /* \"#utility.yul\":4453:4457   */\n      dup3\n        /* \"#utility.yul\":4439:4451   */\n      dup3\n        /* \"#utility.yul\":4385:4458   */\n      tag_128\n      jump\t// in\n    tag_146:\n        /* \"#utility.yul\":4377:4458   */\n      swap2\n      pop\n        /* \"#utility.yul\":4230:4469   */\n      pop\n        /* \"#utility.yul\":4559:4563   */\n      0x20\n        /* \"#utility.yul\":4552:4557   */\n      dup4\n        /* \"#utility.yul\":4548:4564   */\n      add\n        /* \"#utility.yul\":4542:4565   */\n      mload\n        /* \"#utility.yul\":4578:4641   */\n      tag_147\n        /* \"#utility.yul\":4635:4639   */\n      0x20\n        /* \"#utility.yul\":4630:4633   */\n      dup7\n        /* \"#utility.yul\":4626:4640   */\n      add\n        /* \"#utility.yul\":4612:4624   */\n      dup3\n        /* \"#utility.yul\":4578:4641   */\n      tag_116\n      jump\t// in\n    tag_147:\n        /* \"#utility.yul\":4479:4651   */\n      pop\n        /* \"#utility.yul\":4739:4743   */\n      0x40\n        /* \"#utility.yul\":4732:4737   */\n      dup4\n        /* \"#utility.yul\":4728:4744   */\n      add\n        /* \"#utility.yul\":4722:4745   */\n      mload\n        /* \"#utility.yul\":4758:4830   */\n      tag_148\n        /* \"#utility.yul\":4824:4828   */\n      0x40\n        /* \"#utility.yul\":4819:4822   */\n      dup7\n        /* \"#utility.yul\":4815:4829   */\n      add\n        /* \"#utility.yul\":4801:4813   */\n      dup3\n        /* \"#utility.yul\":4758:4830   */\n      tag_124\n      jump\t// in\n    tag_148:\n        /* \"#utility.yul\":4661:4840   */\n      pop\n        /* \"#utility.yul\":4857:4861   */\n      dup1\n        /* \"#utility.yul\":4850:4861   */\n      swap2\n      pop\n        /* \"#utility.yul\":4184:4867   */\n      pop\n        /* \"#utility.yul\":4068:4867   */\n      swap3\n      swap2\n      pop\n      pop\n      jump\t// out\n        /* \"#utility.yul\":4873:5148   */\n    tag_35:\n        /* \"#utility.yul\":5005:5008   */\n      0x00\n        /* \"#utility.yul\":5027:5122   */\n      tag_150\n        /* \"#utility.yul\":5118:5121   */\n      dup3\n        /* \"#utility.yul\":5109:5115   */\n      dup5\n        /* \"#utility.yul\":5027:5122   */\n      tag_138\n      jump\t// in\n    tag_150:\n        /* \"#utility.yul\":5020:5122   */\n      swap2\n      pop\n        /* \"#utility.yul\":5139:5142   */\n      dup2\n        /* \"#utility.yul\":5132:5142   */\n      swap1\n      pop\n        /* \"#utility.yul\":4873:5148   */\n      swap3\n      swap2\n      pop\n      pop\n      jump\t// out\n        /* \"#utility.yul\":5154:5364   */\n    tag_10:\n        /* \"#utility.yul\":5241:5245   */\n      0x00\n        /* \"#utility.yul\":5279:5281   */\n      0x20\n        /* \"#utility.yul\":5268:5277   */\n      dup3\n        /* \"#utility.yul\":5264:5282   */\n      add\n        /* \"#utility.yul\":5256:5282   */\n      swap1\n      pop\n        /* \"#utility.yul\":5292:5357   */\n      tag_152\n        /* \"#utility.yul\":5354:5355   */\n      0x00\n        /* \"#utility.yul\":5343:5352   */\n      dup4\n        /* \"#utility.yul\":5339:5356   */\n      add\n        /* \"#utility.yul\":5330:5336   */\n      dup5\n        /* \"#utility.yul\":5292:5357   */\n      tag_120\n      jump\t// in\n    tag_152:\n        /* \"#utility.yul\":5154:5364   */\n      swap3\n      swap2\n      pop\n      pop\n      jump\t// out\n        /* \"#utility.yul\":5370:5727   */\n    tag_16:\n        /* \"#utility.yul\":5505:5509   */\n      0x00\n        /* \"#utility.yul\":5543:5545   */\n      0x20\n        /* \"#utility.yul\":5532:5541   */\n      dup3\n        /* \"#utility.yul\":5528:5546   */\n      add\n        /* \"#utility.yul\":5520:5546   */\n      swap1\n      pop\n        /* \"#utility.yul\":5592:5601   */\n      dup2\n        /* \"#utility.yul\":5586:5590   */\n      dup2\n        /* \"#utility.yul\":5582:5602   */\n      sub\n        /* \"#utility.yul\":5578:5579   */\n      0x00\n        /* \"#utility.yul\":5567:5576   */\n      dup4\n        /* \"#utility.yul\":5563:5580   */\n      add\n        /* \"#utility.yul\":5556:5603   */\n      mstore\n        /* \"#utility.yul\":5620:5720   */\n      tag_154\n        /* \"#utility.yul\":5715:5719   */\n      dup2\n        /* \"#utility.yul\":5706:5712   */\n      dup5\n        /* \"#utility.yul\":5620:5720   */\n      tag_144\n      jump\t// in\n    tag_154:\n        /* \"#utility.yul\":5612:5720   */\n      swap1\n      pop\n        /* \"#utility.yul\":5370:5727   */\n      swap3\n      swap2\n      pop\n      pop\n      jump\t// out\n        /* \"#utility.yul\":5733:5862   */\n    tag_76:\n        /* \"#utility.yul\":5767:5773   */\n      0x00\n        /* \"#utility.yul\":5794:5814   */\n      tag_156\n      tag_157\n      jump\t// in\n    tag_156:\n        /* \"#utility.yul\":5784:5814   */\n      swap1\n      pop\n        /* \"#utility.yul\":5823:5856   */\n      tag_158\n        /* \"#utility.yul\":5851:5855   */\n      dup3\n        /* \"#utility.yul\":5843:5849   */\n      dup3\n        /* \"#utility.yul\":5823:5856   */\n      tag_159\n      jump\t// in\n    tag_158:\n        /* \"#utility.yul\":5733:5862   */\n      swap2\n      swap1\n      pop\n      jump\t// out\n        /* \"#utility.yul\":5868:5943   */\n    tag_157:\n        /* \"#utility.yul\":5901:5907   */\n      0x00\n        /* \"#utility.yul\":5934:5936   */\n      0x40\n        /* \"#utility.yul\":5928:5937   */\n      mload\n        /* \"#utility.yul\":5918:5937   */\n      swap1\n      pop\n        /* \"#utility.yul\":5868:5943   */\n      swap1\n      jump\t// out\n        /* \"#utility.yul\":5949:6257   */\n    tag_75:\n        /* \"#utility.yul\":6011:6015   */\n      0x00\n        /* \"#utility.yul\":6101:6119   */\n      0xffffffffffffffff\n        /* \"#utility.yul\":6093:6099   */\n      dup3\n        /* \"#utility.yul\":6090:6120   */\n      gt\n        /* \"#utility.yul\":6087:6143   */\n      iszero\n      tag_162\n      jumpi\n        /* \"#utility.yul\":6123:6141   */\n      tag_163\n      tag_164\n      jump\t// in\n    tag_163:\n        /* \"#utility.yul\":6087:6143   */\n    tag_162:\n        /* \"#utility.yul\":6161:6190   */\n      tag_165\n        /* \"#utility.yul\":6183:6189   */\n      dup3\n        /* \"#utility.yul\":6161:6190   */\n      tag_137\n      jump\t// in\n    tag_165:\n        /* \"#utility.yul\":6153:6190   */\n      swap1\n      pop\n        /* \"#utility.yul\":6245:6249   */\n      0x20\n        /* \"#utility.yul\":6239:6243   */\n      dup2\n        /* \"#utility.yul\":6235:6250   */\n      add\n        /* \"#utility.yul\":6227:6250   */\n      swap1\n      pop\n        /* \"#utility.yul\":5949:6257   */\n      swap2\n      swap1\n      pop\n      jump\t// out\n        /* \"#utility.yul\":6263:6362   */\n    tag_131:\n        /* \"#utility.yul\":6315:6321   */\n      0x00\n        /* \"#utility.yul\":6349:6354   */\n      dup2\n        /* \"#utility.yul\":6343:6355   */\n      mload\n        /* \"#utility.yul\":6333:6355   */\n      swap1\n      pop\n        /* \"#utility.yul\":6263:6362   */\n      swap2\n      swap1\n      pop\n      jump\t// out\n        /* \"#utility.yul\":6368:6527   */\n    tag_133:\n        /* \"#utility.yul\":6442:6453   */\n      0x00\n        /* \"#utility.yul\":6476:6482   */\n      dup3\n        /* \"#utility.yul\":6471:6474   */\n      dup3\n        /* \"#utility.yul\":6464:6483   */\n      mstore\n        /* \"#utility.yul\":6516:6520   */\n      0x20\n        /* \"#utility.yul\":6511:6514   */\n      dup3\n        /* \"#utility.yul\":6507:6521   */\n      add\n        /* \"#utility.yul\":6492:6521   */\n      swap1\n      pop\n        /* \"#utility.yul\":6368:6527   */\n      swap3\n      swap2\n      pop\n      pop\n      jump\t// out\n        /* \"#utility.yul\":6533:6681   */\n    tag_142:\n        /* \"#utility.yul\":6635:6646   */\n      0x00\n        /* \"#utility.yul\":6672:6675   */\n      dup2\n        /* \"#utility.yul\":6657:6675   */\n      swap1\n      pop\n        /* \"#utility.yul\":6533:6681   */\n      swap3\n      swap2\n      pop\n      pop\n      jump\t// out\n        /* \"#utility.yul\":6687:6783   */\n    tag_119:\n        /* \"#utility.yul\":6724:6731   */\n      0x00\n        /* \"#utility.yul\":6753:6777   */\n      tag_170\n        /* \"#utility.yul\":6771:6776   */\n      dup3\n        /* \"#utility.yul\":6753:6777   */\n      tag_171\n      jump\t// in\n    tag_170:\n        /* \"#utility.yul\":6742:6777   */\n      swap1\n      pop\n        /* \"#utility.yul\":6687:6783   */\n      swap2\n      swap1\n      pop\n      jump\t// out\n        /* \"#utility.yul\":6789:6879   */\n    tag_123:\n        /* \"#utility.yul\":6823:6830   */\n      0x00\n        /* \"#utility.yul\":6866:6871   */\n      dup2\n        /* \"#utility.yul\":6859:6872   */\n      iszero\n        /* \"#utility.yul\":6852:6873   */\n      iszero\n        /* \"#utility.yul\":6841:6873   */\n      swap1\n      pop\n        /* \"#utility.yul\":6789:6879   */\n      swap2\n      swap1\n      pop\n      jump\t// out\n        /* \"#utility.yul\":6885:7018   */\n    tag_173:\n        /* \"#utility.yul\":6933:6940   */\n      0x00\n        /* \"#utility.yul\":6962:6967   */\n      dup2\n        /* \"#utility.yul\":6951:6967   */\n      swap1\n      pop\n        /* \"#utility.yul\":6968:7012   */\n      tag_175\n        /* \"#utility.yul\":7006:7011   */\n      dup3\n        /* \"#utility.yul\":6968:7012   */\n      tag_176\n      jump\t// in\n    tag_175:\n        /* \"#utility.yul\":6885:7018   */\n      swap2\n      swap1\n      pop\n      jump\t// out\n        /* \"#utility.yul\":7024:7150   */\n    tag_171:\n        /* \"#utility.yul\":7061:7068   */\n      0x00\n        /* \"#utility.yul\":7101:7143   */\n      0xffffffffffffffffffffffffffffffffffffffff\n        /* \"#utility.yul\":7094:7099   */\n      dup3\n        /* \"#utility.yul\":7090:7144   */\n      and\n        /* \"#utility.yul\":7079:7144   */\n      swap1\n      pop\n        /* \"#utility.yul\":7024:7150   */\n      swap2\n      swap1\n      pop\n      jump\t// out\n        /* \"#utility.yul\":7156:7233   */\n    tag_178:\n        /* \"#utility.yul\":7193:7200   */\n      0x00\n        /* \"#utility.yul\":7222:7227   */\n      dup2\n        /* \"#utility.yul\":7211:7227   */\n      swap1\n      pop\n        /* \"#utility.yul\":7156:7233   */\n      swap2\n      swap1\n      pop\n      jump\t// out\n        /* \"#utility.yul\":7239:7372   */\n    tag_127:\n        /* \"#utility.yul\":7298:7307   */\n      0x00\n        /* \"#utility.yul\":7331:7366   */\n      tag_181\n        /* \"#utility.yul\":7360:7365   */\n      dup3\n        /* \"#utility.yul\":7331:7366   */\n      tag_173\n      jump\t// in\n    tag_181:\n        /* \"#utility.yul\":7318:7366   */\n      swap1\n      pop\n        /* \"#utility.yul\":7239:7372   */\n      swap2\n      swap1\n      pop\n      jump\t// out\n        /* \"#utility.yul\":7378:7532   */\n    tag_81:\n        /* \"#utility.yul\":7462:7468   */\n      dup3\n        /* \"#utility.yul\":7457:7460   */\n      dup2\n        /* \"#utility.yul\":7452:7455   */\n      dup4\n        /* \"#utility.yul\":7439:7469   */\n      calldatacopy\n        /* \"#utility.yul\":7524:7525   */\n      0x00\n        /* \"#utility.yul\":7515:7521   */\n      dup4\n        /* \"#utility.yul\":7510:7513   */\n      dup4\n        /* \"#utility.yul\":7506:7522   */\n      add\n        /* \"#utility.yul\":7499:7526   */\n      mstore\n        /* \"#utility.yul\":7378:7532   */\n      pop\n      pop\n      pop\n      jump\t// out\n        /* \"#utility.yul\":7538:7845   */\n    tag_135:\n        /* \"#utility.yul\":7606:7607   */\n      0x00\n        /* \"#utility.yul\":7616:7729   */\n    tag_184:\n        /* \"#utility.yul\":7630:7636   */\n      dup4\n        /* \"#utility.yul\":7627:7628   */\n      dup2\n        /* \"#utility.yul\":7624:7637   */\n      lt\n        /* \"#utility.yul\":7616:7729   */\n      iszero\n      tag_186\n      jumpi\n        /* \"#utility.yul\":7715:7716   */\n      dup1\n        /* \"#utility.yul\":7710:7713   */\n      dup3\n        /* \"#utility.yul\":7706:7717   */\n      add\n        /* \"#utility.yul\":7700:7718   */\n      mload\n        /* \"#utility.yul\":7696:7697   */\n      dup2\n        /* \"#utility.yul\":7691:7694   */\n      dup5\n        /* \"#utility.yul\":7687:7698   */\n      add\n        /* \"#utility.yul\":7680:7719   */\n      mstore\n        /* \"#utility.yul\":7652:7654   */\n      0x20\n        /* \"#utility.yul\":7649:7650   */\n      dup2\n        /* \"#utility.yul\":7645:7655   */\n      add\n        /* \"#utility.yul\":7640:7655   */\n      swap1\n      pop\n        /* \"#utility.yul\":7616:7729   */\n      jump(tag_184)\n    tag_186:\n        /* \"#utility.yul\":7747:7753   */\n      dup4\n        /* \"#utility.yul\":7744:7745   */\n      dup2\n        /* \"#utility.yul\":7741:7754   */\n      gt\n        /* \"#utility.yul\":7738:7839   */\n      iszero\n      tag_187\n      jumpi\n        /* \"#utility.yul\":7827:7828   */\n      0x00\n        /* \"#utility.yul\":7818:7824   */\n      dup5\n        /* \"#utility.yul\":7813:7816   */\n      dup5\n        /* \"#utility.yul\":7809:7825   */\n      add\n        /* \"#utility.yul\":7802:7829   */\n      mstore\n        /* \"#utility.yul\":7738:7839   */\n    tag_187:\n        /* \"#utility.yul\":7587:7845   */\n      pop\n        /* \"#utility.yul\":7538:7845   */\n      pop\n      pop\n      pop\n      jump\t// out\n        /* \"#utility.yul\":7851:8171   */\n    tag_49:\n        /* \"#utility.yul\":7895:7901   */\n      0x00\n        /* \"#utility.yul\":7932:7933   */\n      0x02\n        /* \"#utility.yul\":7926:7930   */\n      dup3\n        /* \"#utility.yul\":7922:7934   */\n      div\n        /* \"#utility.yul\":7912:7934   */\n      swap1\n      pop\n        /* \"#utility.yul\":7979:7980   */\n      0x01\n        /* \"#utility.yul\":7973:7977   */\n      dup3\n        /* \"#utility.yul\":7969:7981   */\n      and\n        /* \"#utility.yul\":8000:8018   */\n      dup1\n        /* \"#utility.yul\":7990:8071   */\n      tag_189\n      jumpi\n        /* \"#utility.yul\":8056:8060   */\n      0x7f\n        /* \"#utility.yul\":8048:8054   */\n      dup3\n        /* \"#utility.yul\":8044:8061   */\n      and\n        /* \"#utility.yul\":8034:8061   */\n      swap2\n      pop\n        /* \"#utility.yul\":7990:8071   */\n    tag_189:\n        /* \"#utility.yul\":8118:8120   */\n      0x20\n        /* \"#utility.yul\":8110:8116   */\n      dup3\n        /* \"#utility.yul\":8107:8121   */\n      lt\n        /* \"#utility.yul\":8087:8105   */\n      dup2\n        /* \"#utility.yul\":8084:8122   */\n      eq\n        /* \"#utility.yul\":8081:8165   */\n      iszero\n      tag_190\n      jumpi\n        /* \"#utility.yul\":8137:8155   */\n      tag_191\n      tag_192\n      jump\t// in\n    tag_191:\n        /* \"#utility.yul\":8081:8165   */\n    tag_190:\n        /* \"#utility.yul\":7902:8171   */\n      pop\n        /* \"#utility.yul\":7851:8171   */\n      swap2\n      swap1\n      pop\n      jump\t// out\n        /* \"#utility.yul\":8177:8458   */\n    tag_159:\n        /* \"#utility.yul\":8260:8287   */\n      tag_194\n        /* \"#utility.yul\":8282:8286   */\n      dup3\n        /* \"#utility.yul\":8260:8287   */\n      tag_137\n      jump\t// in\n    tag_194:\n        /* \"#utility.yul\":8252:8258   */\n      dup2\n        /* \"#utility.yul\":8248:8288   */\n      add\n        /* \"#utility.yul\":8390:8396   */\n      dup2\n        /* \"#utility.yul\":8378:8388   */\n      dup2\n        /* \"#utility.yul\":8375:8397   */\n      lt\n        /* \"#utility.yul\":8354:8372   */\n      0xffffffffffffffff\n        /* \"#utility.yul\":8342:8352   */\n      dup3\n        /* \"#utility.yul\":8339:8373   */\n      gt\n        /* \"#utility.yul\":8336:8398   */\n      or\n        /* \"#utility.yul\":8333:8421   */\n      iszero\n      tag_195\n      jumpi\n        /* \"#utility.yul\":8401:8419   */\n      tag_196\n      tag_164\n      jump\t// in\n    tag_196:\n        /* \"#utility.yul\":8333:8421   */\n    tag_195:\n        /* \"#utility.yul\":8441:8451   */\n      dup1\n        /* \"#utility.yul\":8437:8439   */\n      0x40\n        /* \"#utility.yul\":8430:8452   */\n      mstore\n        /* \"#utility.yul\":8220:8458   */\n      pop\n        /* \"#utility.yul\":8177:8458   */\n      pop\n      pop\n      jump\t// out\n        /* \"#utility.yul\":8464:8644   */\n    tag_20:\n        /* \"#utility.yul\":8512:8589   */\n      0x4e487b7100000000000000000000000000000000000000000000000000000000\n        /* \"#utility.yul\":8509:8510   */\n      0x00\n        /* \"#utility.yul\":8502:8590   */\n      mstore\n        /* \"#utility.yul\":8609:8613   */\n      0x21\n        /* \"#utility.yul\":8606:8607   */\n      0x04\n        /* \"#utility.yul\":8599:8614   */\n      mstore\n        /* \"#utility.yul\":8633:8637   */\n      0x24\n        /* \"#utility.yul\":8630:8631   */\n      0x00\n        /* \"#utility.yul\":8623:8638   */\n      revert\n        /* \"#utility.yul\":8650:8830   */\n    tag_192:\n        /* \"#utility.yul\":8698:8775   */\n      0x4e487b7100000000000000000000000000000000000000000000000000000000\n        /* \"#utility.yul\":8695:8696   */\n      0x00\n        /* \"#utility.yul\":8688:8776   */\n      mstore\n        /* \"#utility.yul\":8795:8799   */\n      0x22\n        /* \"#utility.yul\":8792:8793   */\n      0x04\n        /* \"#utility.yul\":8785:8800   */\n      mstore\n        /* \"#utility.yul\":8819:8823   */\n      0x24\n        /* \"#utility.yul\":8816:8817   */\n      0x00\n        /* \"#utility.yul\":8809:8824   */\n      revert\n        /* \"#utility.yul\":8836:9016   */\n    tag_164:\n        /* \"#utility.yul\":8884:8961   */\n      0x4e487b7100000000000000000000000000000000000000000000000000000000\n        /* \"#utility.yul\":8881:8882   */\n      0x00\n        /* \"#utility.yul\":8874:8962   */\n      mstore\n        /* \"#utility.yul\":8981:8985   */\n      0x41\n        /* \"#utility.yul\":8978:8979   */\n      0x04\n        /* \"#utility.yul\":8971:8986   */\n      mstore\n        /* \"#utility.yul\":9005:9009   */\n      0x24\n        /* \"#utility.yul\":9002:9003   */\n      0x00\n        /* \"#utility.yul\":8995:9010   */\n      revert\n        /* \"#utility.yul\":9022:9139   */\n    tag_90:\n        /* \"#utility.yul\":9131:9132   */\n      0x00\n        /* \"#utility.yul\":9128:9129   */\n      dup1\n        /* \"#utility.yul\":9121:9133   */\n      revert\n        /* \"#utility.yul\":9145:9262   */\n    tag_79:\n        /* \"#utility.yul\":9254:9255   */\n      0x00\n        /* \"#utility.yul\":9251:9252   */\n      dup1\n        /* \"#utility.yul\":9244:9256   */\n      revert\n        /* \"#utility.yul\":9268:9385   */\n    tag_102:\n        /* \"#utility.yul\":9377:9378   */\n      0x00\n        /* \"#utility.yul\":9374:9375   */\n      dup1\n        /* \"#utility.yul\":9367:9379   */\n      revert\n        /* \"#utility.yul\":9391:9508   */\n    tag_99:\n        /* \"#utility.yul\":9500:9501   */\n      0x00\n        /* \"#utility.yul\":9497:9498   */\n      dup1\n        /* \"#utility.yul\":9490:9502   */\n      revert\n        /* \"#utility.yul\":9514:9616   */\n    tag_137:\n        /* \"#utility.yul\":9555:9561   */\n      0x00\n        /* \"#utility.yul\":9606:9608   */\n      0x1f\n        /* \"#utility.yul\":9602:9609   */\n      not\n        /* \"#utility.yul\":9597:9599   */\n      0x1f\n        /* \"#utility.yul\":9590:9595   */\n      dup4\n        /* \"#utility.yul\":9586:9600   */\n      add\n        /* \"#utility.yul\":9582:9610   */\n      and\n        /* \"#utility.yul\":9572:9610   */\n      swap1\n      pop\n        /* \"#utility.yul\":9514:9616   */\n      swap2\n      swap1\n      pop\n      jump\t// out\n        /* \"#utility.yul\":9622:9738   */\n    tag_176:\n        /* \"#utility.yul\":9706:9707   */\n      0x03\n        /* \"#utility.yul\":9699:9704   */\n      dup2\n        /* \"#utility.yul\":9696:9708   */\n      lt\n        /* \"#utility.yul\":9686:9732   */\n      tag_206\n      jumpi\n        /* \"#utility.yul\":9712:9730   */\n      tag_207\n      tag_20\n      jump\t// in\n    tag_207:\n        /* \"#utility.yul\":9686:9732   */\n    tag_206:\n        /* \"#utility.yul\":9622:9738   */\n      pop\n      jump\t// out\n        /* \"#utility.yul\":9744:9855   */\n    tag_85:\n        /* \"#utility.yul\":9829:9830   */\n      0x07\n        /* \"#utility.yul\":9822:9827   */\n      dup2\n        /* \"#utility.yul\":9819:9831   */\n      lt\n        /* \"#utility.yul\":9809:9849   */\n      tag_209\n      jumpi\n        /* \"#utility.yul\":9845:9846   */\n      0x00\n        /* \"#utility.yul\":9842:9843   */\n      dup1\n        /* \"#utility.yul\":9835:9847   */\n      revert\n        /* \"#utility.yul\":9809:9849   */\n    tag_209:\n        /* \"#utility.yul\":9744:9855   */\n      pop\n      jump\t// out\n        /* \"#utility.yul\":9861:9983   */\n    tag_95:\n        /* \"#utility.yul\":9934:9958   */\n      tag_211\n        /* \"#utility.yul\":9952:9957   */\n      dup2\n        /* \"#utility.yul\":9934:9958   */\n      tag_178\n      jump\t// in\n    tag_211:\n        /* \"#utility.yul\":9927:9932   */\n      dup2\n        /* \"#utility.yul\":9924:9959   */\n      eq\n        /* \"#utility.yul\":9914:9977   */\n      tag_212\n      jumpi\n        /* \"#utility.yul\":9973:9974   */\n      0x00\n        /* \"#utility.yul\":9970:9971   */\n      dup1\n        /* \"#utility.yul\":9963:9975   */\n      revert\n        /* \"#utility.yul\":9914:9977   */\n    tag_212:\n        /* \"#utility.yul\":9861:9983   */\n      pop\n      jump\t// out\n\n    auxdata: 0xa2646970667358221220179c00587916d67df71c50d858474f1fdaefc242b42e2a162607b53a3c2a900664736f6c63430008070033\n}\n",
				"bytecode": {
					"linkReferences": {},
					"object": "608060405234801561001057600080fd5b50610a7b806100206000396000f3fe608060405234801561001057600080fd5b50600436106100365760003560e01c806364819ae01461003b578063cdf7e73d1461006b575b600080fd5b610055600480360381019061005091906105db565b61009b565b604051610062919061078c565b60405180910390f35b61008560048036038101906100809190610592565b6102b1565b60405161009291906107a7565b60405180910390f35b600080600560068111156100b2576100b1610958565b5b8560068111156100c5576100c4610958565b5b14806100f457506006808111156100df576100de610958565b5b8560068111156100f2576100f1610958565b5b145b156101025760019050610107565b600090505b6040518060c0016040528087815260200186600681111561012b5761012a610958565b5b815260200182600281111561014357610142610958565b5b81526020018581526020018481526020013373ffffffffffffffffffffffffffffffffffffffff1681525060008860405161017e9190610775565b908152602001604051809103902060008201518160000190805190602001906101a892919061040c565b5060208201518160010160006101000a81548160ff021916908360068111156101d4576101d3610958565b5b021790555060408201518160010160016101000a81548160ff0219169083600281111561020457610203610958565b5b0217905550606082015181600201556080820151816003015560a08201518160040160006101000a81548173ffffffffffffffffffffffffffffffffffffffff021916908373ffffffffffffffffffffffffffffffffffffffff1602179055509050506001879080600181540180825580915050600190039060005260206000200160009091909190915090805190602001906102a292919061040c565b50600191505095945050505050565b6102b9610492565b6002826040516102c99190610775565b90815260200160405180910390206040518060600160405290816000820180546102f2906108f5565b80601f016020809104026020016040519081016040528092919081815260200182805461031e906108f5565b801561036b5780601f106103405761010080835404028352916020019161036b565b820191906000526020600020905b81548152906001019060200180831161034e57829003601f168201915b505050505081526020016001820160009054906101000a900473ffffffffffffffffffffffffffffffffffffffff1673ffffffffffffffffffffffffffffffffffffffff1673ffffffffffffffffffffffffffffffffffffffff1681526020016001820160149054906101000a900460ff1660028111156103ef576103ee610958565b5b600281111561040157610400610958565b5b815250509050919050565b828054610418906108f5565b90600052602060002090601f01602090048101928261043a5760008555610481565b82601f1061045357805160ff1916838001178555610481565b82800160010185558215610481579182015b82811115610480578251825591602001919060010190610465565b5b50905061048e91906104db565b5090565b604051806060016040528060608152602001600073ffffffffffffffffffffffffffffffffffffffff168152602001600060028111156104d5576104d4610958565b5b81525090565b5b808211156104f45760008160009055506001016104dc565b5090565b600061050b610506846107ee565b6107c9565b905082815260208101848484011115610527576105266109ea565b5b6105328482856108b3565b509392505050565b60008135905061054981610a1e565b92915050565b600082601f830112610564576105636109e5565b5b81356105748482602086016104f8565b91505092915050565b60008135905061058c81610a2e565b92915050565b6000602082840312156105a8576105a76109f4565b5b600082013567ffffffffffffffff8111156105c6576105c56109ef565b5b6105d28482850161054f565b91505092915050565b600080600080600060a086880312156105f7576105f66109f4565b5b600086013567ffffffffffffffff811115610615576106146109ef565b5b6106218882890161054f565b955050602086013567ffffffffffffffff811115610642576106416109ef565b5b61064e8882890161054f565b945050604061065f8882890161053a565b93505060606106708882890161057d565b92505060806106818882890161057d565b9150509295509295909350565b61069781610846565b82525050565b6106a681610858565b82525050565b6106b5816108a1565b82525050565b60006106c68261081f565b6106d0818561082a565b93506106e08185602086016108c2565b6106e9816109f9565b840191505092915050565b60006106ff8261081f565b610709818561083b565b93506107198185602086016108c2565b80840191505092915050565b6000606083016000830151848203600086015261074282826106bb565b9150506020830151610757602086018261068e565b50604083015161076a60408601826106ac565b508091505092915050565b600061078182846106f4565b915081905092915050565b60006020820190506107a1600083018461069d565b92915050565b600060208201905081810360008301526107c18184610725565b905092915050565b60006107d36107e4565b90506107df8282610927565b919050565b6000604051905090565b600067ffffffffffffffff821115610809576108086109b6565b5b610812826109f9565b9050602081019050919050565b600081519050919050565b600082825260208201905092915050565b600081905092915050565b600061085182610877565b9050919050565b60008115159050919050565b600081905061087282610a0a565b919050565b600073ffffffffffffffffffffffffffffffffffffffff82169050919050565b6000819050919050565b60006108ac82610864565b9050919050565b82818337600083830152505050565b60005b838110156108e05780820151818401526020810190506108c5565b838111156108ef576000848401525b50505050565b6000600282049050600182168061090d57607f821691505b6020821081141561092157610920610987565b5b50919050565b610930826109f9565b810181811067ffffffffffffffff8211171561094f5761094e6109b6565b5b80604052505050565b7f4e487b7100000000000000000000000000000000000000000000000000000000600052602160045260246000fd5b7f4e487b7100000000000000000000000000000000000000000000000000000000600052602260045260246000fd5b7f4e487b7100000000000000000000000000000000000000000000000000000000600052604160045260246000fd5b600080fd5b600080fd5b600080fd5b600080fd5b6000601f19601f8301169050919050565b60038110610a1b57610a1a610958565b5b50565b60078110610a2b57600080fd5b50565b610a3781610897565b8114610a4257600080fd5b5056fea2646970667358221220179c00587916d67df71c50d858474f1fdaefc242b42e2a162607b53a3c2a900664736f6c63430008070033",
					"opcodes": "PUSH1 0x80 PUSH1 0x40 MSTORE CALLVALUE DUP1 ISZERO PUSH2 0x10 JUMPI PUSH1 0x0 DUP1 REVERT JUMPDEST POP PUSH2 0xA7B DUP1 PUSH2 0x20 PUSH1 0x0 CODECOPY PUSH1 0x0 RETURN INVALID PUSH1 0x80 PUSH1 0x40 MSTORE CALLVALUE DUP1 ISZERO PUSH2 0x10 JUMPI PUSH1 0x0 DUP1 REVERT JUMPDEST POP PUSH1 0x4 CALLDATASIZE LT PUSH2 0x36 JUMPI PUSH1 0x0 CALLDATALOAD PUSH1 0xE0 SHR DUP1 PUSH4 0x64819AE0 EQ PUSH2 0x3B JUMPI DUP1 PUSH4 0xCDF7E73D EQ PUSH2 0x6B JUMPI JUMPDEST PUSH1 0x0 DUP1 REVERT JUMPDEST PUSH2 0x55 PUSH1 0x4 DUP1 CALLDATASIZE SUB DUP2 ADD SWAP1 PUSH2 0x50 SWAP2 SWAP1 PUSH2 0x5DB JUMP JUMPDEST PUSH2 0x9B JUMP JUMPDEST PUSH1 0x40 MLOAD PUSH2 0x62 SWAP2 SWAP1 PUSH2 0x78C JUMP JUMPDEST PUSH1 0x40 MLOAD DUP1 SWAP2 SUB SWAP1 RETURN JUMPDEST PUSH2 0x85 PUSH1 0x4 DUP1 CALLDATASIZE SUB DUP2 ADD SWAP1 PUSH2 0x80 SWAP2 SWAP1 PUSH2 0x592 JUMP JUMPDEST PUSH2 0x2B1 JUMP JUMPDEST PUSH1 0x40 MLOAD PUSH2 0x92 SWAP2 SWAP1 PUSH2 0x7A7 JUMP JUMPDEST PUSH1 0x40 MLOAD DUP1 SWAP2 SUB SWAP1 RETURN JUMPDEST PUSH1 0x0 DUP1 PUSH1 0x5 PUSH1 0x6 DUP2 GT ISZERO PUSH2 0xB2 JUMPI PUSH2 0xB1 PUSH2 0x958 JUMP JUMPDEST JUMPDEST DUP6 PUSH1 0x6 DUP2 GT ISZERO PUSH2 0xC5 JUMPI PUSH2 0xC4 PUSH2 0x958 JUMP JUMPDEST JUMPDEST EQ DUP1 PUSH2 0xF4 JUMPI POP PUSH1 0x6 DUP1 DUP2 GT ISZERO PUSH2 0xDF JUMPI PUSH2 0xDE PUSH2 0x958 JUMP JUMPDEST JUMPDEST DUP6 PUSH1 0x6 DUP2 GT ISZERO PUSH2 0xF2 JUMPI PUSH2 0xF1 PUSH2 0x958 JUMP JUMPDEST JUMPDEST EQ JUMPDEST ISZERO PUSH2 0x102 JUMPI PUSH1 0x1 SWAP1 POP PUSH2 0x107 JUMP JUMPDEST PUSH1 0x0 SWAP1 POP JUMPDEST PUSH1 0x40 MLOAD DUP1 PUSH1 0xC0 ADD PUSH1 0x40 MSTORE DUP1 DUP8 DUP2 MSTORE PUSH1 0x20 ADD DUP7 PUSH1 0x6 DUP2 GT ISZERO PUSH2 0x12B JUMPI PUSH2 0x12A PUSH2 0x958 JUMP JUMPDEST JUMPDEST DUP2 MSTORE PUSH1 0x20 ADD DUP3 PUSH1 0x2 DUP2 GT ISZERO PUSH2 0x143 JUMPI PUSH2 0x142 PUSH2 0x958 JUMP JUMPDEST JUMPDEST DUP2 MSTORE PUSH1 0x20 ADD DUP6 DUP2 MSTORE PUSH1 0x20 ADD DUP5 DUP2 MSTORE PUSH1 0x20 ADD CALLER PUSH20 0xFFFFFFFFFFFFFFFFFFFFFFFFFFFFFFFFFFFFFFFF AND DUP2 MSTORE POP PUSH1 0x0 DUP9 PUSH1 0x40 MLOAD PUSH2 0x17E SWAP2 SWAP1 PUSH2 0x775 JUMP JUMPDEST SWAP1 DUP2 MSTORE PUSH1 0x20 ADD PUSH1 0x40 MLOAD DUP1 SWAP2 SUB SWAP1 KECCAK256 PUSH1 0x0 DUP3 ADD MLOAD DUP2 PUSH1 0x0 ADD SWAP1 DUP1 MLOAD SWAP1 PUSH1 0x20 ADD SWAP1 PUSH2 0x1A8 SWAP3 SWAP2 SWAP1 PUSH2 0x40C JUMP JUMPDEST POP PUSH1 0x20 DUP3 ADD MLOAD DUP2 PUSH1 0x1 ADD PUSH1 0x0 PUSH2 0x100 EXP DUP2 SLOAD DUP2 PUSH1 0xFF MUL NOT AND SWAP1 DUP4 PUSH1 0x6 DUP2 GT ISZERO PUSH2 0x1D4 JUMPI PUSH2 0x1D3 PUSH2 0x958 JUMP JUMPDEST JUMPDEST MUL OR SWAP1 SSTORE POP PUSH1 0x40 DUP3 ADD MLOAD DUP2 PUSH1 0x1 ADD PUSH1 0x1 PUSH2 0x100 EXP DUP2 SLOAD DUP2 PUSH1 0xFF MUL NOT AND SWAP1 DUP4 PUSH1 0x2 DUP2 GT ISZERO PUSH2 0x204 JUMPI PUSH2 0x203 PUSH2 0x958 JUMP JUMPDEST JUMPDEST MUL OR SWAP1 SSTORE POP PUSH1 0x60 DUP3 ADD MLOAD DUP2 PUSH1 0x2 ADD SSTORE PUSH1 0x80 DUP3 ADD MLOAD DUP2 PUSH1 0x3 ADD SSTORE PUSH1 0xA0 DUP3 ADD MLOAD DUP2 PUSH1 0x4 ADD PUSH1 0x0 PUSH2 0x100 EXP DUP2 SLOAD DUP2 PUSH20 0xFFFFFFFFFFFFFFFFFFFFFFFFFFFFFFFFFFFFFFFF MUL NOT AND SWAP1 DUP4 PUSH20 0xFFFFFFFFFFFFFFFFFFFFFFFFFFFFFFFFFFFFFFFF AND MUL OR SWAP1 SSTORE POP SWAP1 POP POP PUSH1 0x1 DUP8 SWAP1 DUP1 PUSH1 0x1 DUP2 SLOAD ADD DUP1 DUP3 SSTORE DUP1 SWAP2 POP POP PUSH1 0x1 SWAP1 SUB SWAP1 PUSH1 0x0 MSTORE PUSH1 0x20 PUSH1 0x0 KECCAK256 ADD PUSH1 0x0 SWAP1 SWAP2 SWAP1 SWAP2 SWAP1 SWAP2 POP SWAP1 DUP1 MLOAD SWAP1 PUSH1 0x20 ADD SWAP1 PUSH2 0x2A2 SWAP3 SWAP2 SWAP1 PUSH2 0x40C JUMP JUMPDEST POP PUSH1 0x1 SWAP2 POP POP SWAP6 SWAP5 POP POP POP POP POP JUMP JUMPDEST PUSH2 0x2B9 PUSH2 0x492 JUMP JUMPDEST PUSH1 0x2 DUP3 PUSH1 0x40 MLOAD PUSH2 0x2C9 SWAP2 SWAP1 PUSH2 0x775 JUMP JUMPDEST SWAP1 DUP2 MSTORE PUSH1 0x20 ADD PUSH1 0x40 MLOAD DUP1 SWAP2 SUB SWAP1 KECCAK256 PUSH1 0x40 MLOAD DUP1 PUSH1 0x60 ADD PUSH1 0x40 MSTORE SWAP1 DUP2 PUSH1 0x0 DUP3 ADD DUP1 SLOAD PUSH2 0x2F2 SWAP1 PUSH2 0x8F5 JUMP JUMPDEST DUP1 PUSH1 0x1F ADD PUSH1 0x20 DUP1 SWAP2 DIV MUL PUSH1 0x20 ADD PUSH1 0x40 MLOAD SWAP1 DUP2 ADD PUSH1 0x40 MSTORE DUP1 SWAP3 SWAP2 SWAP1 DUP2 DUP2 MSTORE PUSH1 0x20 ADD DUP3 DUP1 SLOAD PUSH2 0x31E SWAP1 PUSH2 0x8F5 JUMP JUMPDEST DUP1 ISZERO PUSH2 0x36B JUMPI DUP1 PUSH1 0x1F LT PUSH2 0x340 JUMPI PUSH2 0x100 DUP1 DUP4 SLOAD DIV MUL DUP4 MSTORE SWAP2 PUSH1 0x20 ADD SWAP2 PUSH2 0x36B JUMP JUMPDEST DUP3 ADD SWAP2 SWAP1 PUSH1 0x0 MSTORE PUSH1 0x20 PUSH1 0x0 KECCAK256 SWAP1 JUMPDEST DUP2 SLOAD DUP2 MSTORE SWAP1 PUSH1 0x1 ADD SWAP1 PUSH1 0x20 ADD DUP1 DUP4 GT PUSH2 0x34E JUMPI DUP3 SWAP1 SUB PUSH1 0x1F AND DUP3 ADD SWAP2 JUMPDEST POP POP POP POP POP DUP2 MSTORE PUSH1 0x20 ADD PUSH1 0x1 DUP3 ADD PUSH1 0x0 SWAP1 SLOAD SWAP1 PUSH2 0x100 EXP SWAP1 DIV PUSH20 0xFFFFFFFFFFFFFFFFFFFFFFFFFFFFFFFFFFFFFFFF AND PUSH20 0xFFFFFFFFFFFFFFFFFFFFFFFFFFFFFFFFFFFFFFFF AND PUSH20 0xFFFFFFFFFFFFFFFFFFFFFFFFFFFFFFFFFFFFFFFF AND DUP2 MSTORE PUSH1 0x20 ADD PUSH1 0x1 DUP3 ADD PUSH1 0x14 SWAP1 SLOAD SWAP1 PUSH2 0x100 EXP SWAP1 DIV PUSH1 0xFF AND PUSH1 0x2 DUP2 GT ISZERO PUSH2 0x3EF JUMPI PUSH2 0x3EE PUSH2 0x958 JUMP JUMPDEST JUMPDEST PUSH1 0x2 DUP2 GT ISZERO PUSH2 0x401 JUMPI PUSH2 0x400 PUSH2 0x958 JUMP JUMPDEST JUMPDEST DUP2 MSTORE POP POP SWAP1 POP SWAP2 SWAP1 POP JUMP JUMPDEST DUP3 DUP1 SLOAD PUSH2 0x418 SWAP1 PUSH2 0x8F5 JUMP JUMPDEST SWAP1 PUSH1 0x0 MSTORE PUSH1 0x20 PUSH1 0x0 KECCAK256 SWAP1 PUSH1 0x1F ADD PUSH1 0x20 SWAP1 DIV DUP2 ADD SWAP3 DUP3 PUSH2 0x43A JUMPI PUSH1 0x0 DUP6 SSTORE PUSH2 0x481 JUMP JUMPDEST DUP3 PUSH1 0x1F LT PUSH2 0x453 JUMPI DUP1 MLOAD PUSH1 0xFF NOT AND DUP4 DUP1 ADD OR DUP6 SSTORE PUSH2 0x481 JUMP JUMPDEST DUP3 DUP1 ADD PUSH1 0x1 ADD DUP6 SSTORE DUP3 ISZERO PUSH2 0x481 JUMPI SWAP2 DUP3 ADD JUMPDEST DUP3 DUP2 GT ISZERO PUSH2 0x480 JUMPI DUP3 MLOAD DUP3 SSTORE SWAP2 PUSH1 0x20 ADD SWAP2 SWAP1 PUSH1 0x1 ADD SWAP1 PUSH2 0x465 JUMP JUMPDEST JUMPDEST POP SWAP1 POP PUSH2 0x48E SWAP2 SWAP1 PUSH2 0x4DB JUMP JUMPDEST POP SWAP1 JUMP JUMPDEST PUSH1 0x40 MLOAD DUP1 PUSH1 0x60 ADD PUSH1 0x40 MSTORE DUP1 PUSH1 0x60 DUP2 MSTORE PUSH1 0x20 ADD PUSH1 0x0 PUSH20 0xFFFFFFFFFFFFFFFFFFFFFFFFFFFFFFFFFFFFFFFF AND DUP2 MSTORE PUSH1 0x20 ADD PUSH1 0x0 PUSH1 0x2 DUP2 GT ISZERO PUSH2 0x4D5 JUMPI PUSH2 0x4D4 PUSH2 0x958 JUMP JUMPDEST JUMPDEST DUP2 MSTORE POP SWAP1 JUMP JUMPDEST JUMPDEST DUP1 DUP3 GT ISZERO PUSH2 0x4F4 JUMPI PUSH1 0x0 DUP2 PUSH1 0x0 SWAP1 SSTORE POP PUSH1 0x1 ADD PUSH2 0x4DC JUMP JUMPDEST POP SWAP1 JUMP JUMPDEST PUSH1 0x0 PUSH2 0x50B PUSH2 0x506 DUP5 PUSH2 0x7EE JUMP JUMPDEST PUSH2 0x7C9 JUMP JUMPDEST SWAP1 POP DUP3 DUP2 MSTORE PUSH1 0x20 DUP2 ADD DUP5 DUP5 DUP5 ADD GT ISZERO PUSH2 0x527 JUMPI PUSH2 0x526 PUSH2 0x9EA JUMP JUMPDEST JUMPDEST PUSH2 0x532 DUP5 DUP3 DUP6 PUSH2 0x8B3 JUMP JUMPDEST POP SWAP4 SWAP3 POP POP POP JUMP JUMPDEST PUSH1 0x0 DUP2 CALLDATALOAD SWAP1 POP PUSH2 0x549 DUP2 PUSH2 0xA1E JUMP JUMPDEST SWAP3 SWAP2 POP POP JUMP JUMPDEST PUSH1 0x0 DUP3 PUSH1 0x1F DUP4 ADD SLT PUSH2 0x564 JUMPI PUSH2 0x563 PUSH2 0x9E5 JUMP JUMPDEST JUMPDEST DUP2 CALLDATALOAD PUSH2 0x574 DUP5 DUP3 PUSH1 0x20 DUP7 ADD PUSH2 0x4F8 JUMP JUMPDEST SWAP2 POP POP SWAP3 SWAP2 POP POP JUMP JUMPDEST PUSH1 0x0 DUP2 CALLDATALOAD SWAP1 POP PUSH2 0x58C DUP2 PUSH2 0xA2E JUMP JUMPDEST SWAP3 SWAP2 POP POP JUMP JUMPDEST PUSH1 0x0 PUSH1 0x20 DUP3 DUP5 SUB SLT ISZERO PUSH2 0x5A8 JUMPI PUSH2 0x5A7 PUSH2 0x9F4 JUMP JUMPDEST JUMPDEST PUSH1 0x0 DUP3 ADD CALLDATALOAD PUSH8 0xFFFFFFFFFFFFFFFF DUP2 GT ISZERO PUSH2 0x5C6 JUMPI PUSH2 0x5C5 PUSH2 0x9EF JUMP JUMPDEST JUMPDEST PUSH2 0x5D2 DUP5 DUP3 DUP6 ADD PUSH2 0x54F JUMP JUMPDEST SWAP2 POP POP SWAP3 SWAP2 POP POP JUMP JUMPDEST PUSH1 0x0 DUP1 PUSH1 0x0 DUP1 PUSH1 0x0 PUSH1 0xA0 DUP7 DUP9 SUB SLT ISZERO PUSH2 0x5F7 JUMPI PUSH2 0x5F6 PUSH2 0x9F4 JUMP JUMPDEST JUMPDEST PUSH1 0x0 DUP7 ADD CALLDATALOAD PUSH8 0xFFFFFFFFFFFFFFFF DUP2 GT ISZERO PUSH2 0x615 JUMPI PUSH2 0x614 PUSH2 0x9EF JUMP JUMPDEST JUMPDEST PUSH2 0x621 DUP9 DUP3 DUP10 ADD PUSH2 0x54F JUMP JUMPDEST SWAP6 POP POP PUSH1 0x20 DUP7 ADD CALLDATALOAD PUSH8 0xFFFFFFFFFFFFFFFF DUP2 GT ISZERO PUSH2 0x642 JUMPI PUSH2 0x641 PUSH2 0x9EF JUMP JUMPDEST JUMPDEST PUSH2 0x64E DUP9 DUP3 DUP10 ADD PUSH2 0x54F JUMP JUMPDEST SWAP5 POP POP PUSH1 0x40 PUSH2 0x65F DUP9 DUP3 DUP10 ADD PUSH2 0x53A JUMP JUMPDEST SWAP4 POP POP PUSH1 0x60 PUSH2 0x670 DUP9 DUP3 DUP10 ADD PUSH2 0x57D JUMP JUMPDEST SWAP3 POP POP PUSH1 0x80 PUSH2 0x681 DUP9 DUP3 DUP10 ADD PUSH2 0x57D JUMP JUMPDEST SWAP2 POP POP SWAP3 SWAP6 POP SWAP3 SWAP6 SWAP1 SWAP4 POP JUMP JUMPDEST PUSH2 0x697 DUP2 PUSH2 0x846 JUMP JUMPDEST DUP3 MSTORE POP POP JUMP JUMPDEST PUSH2 0x6A6 DUP2 PUSH2 0x858 JUMP JUMPDEST DUP3 MSTORE POP POP JUMP JUMPDEST PUSH2 0x6B5 DUP2 PUSH2 0x8A1 JUMP JUMPDEST DUP3 MSTORE POP POP JUMP JUMPDEST PUSH1 0x0 PUSH2 0x6C6 DUP3 PUSH2 0x81F JUMP JUMPDEST PUSH2 0x6D0 DUP2 DUP6 PUSH2 0x82A JUMP JUMPDEST SWAP4 POP PUSH2 0x6E0 DUP2 DUP6 PUSH1 0x20 DUP7 ADD PUSH2 0x8C2 JUMP JUMPDEST PUSH2 0x6E9 DUP2 PUSH2 0x9F9 JUMP JUMPDEST DUP5 ADD SWAP2 POP POP SWAP3 SWAP2 POP POP JUMP JUMPDEST PUSH1 0x0 PUSH2 0x6FF DUP3 PUSH2 0x81F JUMP JUMPDEST PUSH2 0x709 DUP2 DUP6 PUSH2 0x83B JUMP JUMPDEST SWAP4 POP PUSH2 0x719 DUP2 DUP6 PUSH1 0x20 DUP7 ADD PUSH2 0x8C2 JUMP JUMPDEST DUP1 DUP5 ADD SWAP2 POP POP SWAP3 SWAP2 POP POP JUMP JUMPDEST PUSH1 0x0 PUSH1 0x60 DUP4 ADD PUSH1 0x0 DUP4 ADD MLOAD DUP5 DUP3 SUB PUSH1 0x0 DUP7 ADD MSTORE PUSH2 0x742 DUP3 DUP3 PUSH2 0x6BB JUMP JUMPDEST SWAP2 POP POP PUSH1 0x20 DUP4 ADD MLOAD PUSH2 0x757 PUSH1 0x20 DUP7 ADD DUP3 PUSH2 0x68E JUMP JUMPDEST POP PUSH1 0x40 DUP4 ADD MLOAD PUSH2 0x76A PUSH1 0x40 DUP7 ADD DUP3 PUSH2 0x6AC JUMP JUMPDEST POP DUP1 SWAP2 POP POP SWAP3 SWAP2 POP POP JUMP JUMPDEST PUSH1 0x0 PUSH2 0x781 DUP3 DUP5 PUSH2 0x6F4 JUMP JUMPDEST SWAP2 POP DUP2 SWAP1 POP SWAP3 SWAP2 POP POP JUMP JUMPDEST PUSH1 0x0 PUSH1 0x20 DUP3 ADD SWAP1 POP PUSH2 0x7A1 PUSH1 0x0 DUP4 ADD DUP5 PUSH2 0x69D JUMP JUMPDEST SWAP3 SWAP2 POP POP JUMP JUMPDEST PUSH1 0x0 PUSH1 0x20 DUP3 ADD SWAP1 POP DUP2 DUP2 SUB PUSH1 0x0 DUP4 ADD MSTORE PUSH2 0x7C1 DUP2 DUP5 PUSH2 0x725 JUMP JUMPDEST SWAP1 POP SWAP3 SWAP2 POP POP JUMP JUMPDEST PUSH1 0x0 PUSH2 0x7D3 PUSH2 0x7E4 JUMP JUMPDEST SWAP1 POP PUSH2 0x7DF DUP3 DUP3 PUSH2 0x927 JUMP JUMPDEST SWAP2 SWAP1 POP JUMP JUMPDEST PUSH1 0x0 PUSH1 0x40 MLOAD SWAP1 POP SWAP1 JUMP JUMPDEST PUSH1 0x0 PUSH8 0xFFFFFFFFFFFFFFFF DUP3 GT ISZERO PUSH2 0x809 JUMPI PUSH2 0x808 PUSH2 0x9B6 JUMP JUMPDEST JUMPDEST PUSH2 0x812 DUP3 PUSH2 0x9F9 JUMP JUMPDEST SWAP1 POP PUSH1 0x20 DUP2 ADD SWAP1 POP SWAP2 SWAP1 POP JUMP JUMPDEST PUSH1 0x0 DUP2 MLOAD SWAP1 POP SWAP2 SWAP1 POP JUMP JUMPDEST PUSH1 0x0 DUP3 DUP3 MSTORE PUSH1 0x20 DUP3 ADD SWAP1 POP SWAP3 SWAP2 POP POP JUMP JUMPDEST PUSH1 0x0 DUP2 SWAP1 POP SWAP3 SWAP2 POP POP JUMP JUMPDEST PUSH1 0x0 PUSH2 0x851 DUP3 PUSH2 0x877 JUMP JUMPDEST SWAP1 POP SWAP2 SWAP1 POP JUMP JUMPDEST PUSH1 0x0 DUP2 ISZERO ISZERO SWAP1 POP SWAP2 SWAP1 POP JUMP JUMPDEST PUSH1 0x0 DUP2 SWAP1 POP PUSH2 0x872 DUP3 PUSH2 0xA0A JUMP JUMPDEST SWAP2 SWAP1 POP JUMP JUMPDEST PUSH1 0x0 PUSH20 0xFFFFFFFFFFFFFFFFFFFFFFFFFFFFFFFFFFFFFFFF DUP3 AND SWAP1 POP SWAP2 SWAP1 POP JUMP JUMPDEST PUSH1 0x0 DUP2 SWAP1 POP SWAP2 SWAP1 POP JUMP JUMPDEST PUSH1 0x0 PUSH2 0x8AC DUP3 PUSH2 0x864 JUMP JUMPDEST SWAP1 POP SWAP2 SWAP1 POP JUMP JUMPDEST DUP3 DUP2 DUP4 CALLDATACOPY PUSH1 0x0 DUP4 DUP4 ADD MSTORE POP POP POP JUMP JUMPDEST PUSH1 0x0 JUMPDEST DUP4 DUP2 LT ISZERO PUSH2 0x8E0 JUMPI DUP1 DUP3 ADD MLOAD DUP2 DUP5 ADD MSTORE PUSH1 0x20 DUP2 ADD SWAP1 POP PUSH2 0x8C5 JUMP JUMPDEST DUP4 DUP2 GT ISZERO PUSH2 0x8EF JUMPI PUSH1 0x0 DUP5 DUP5 ADD MSTORE JUMPDEST POP POP POP POP JUMP JUMPDEST PUSH1 0x0 PUSH1 0x2 DUP3 DIV SWAP1 POP PUSH1 0x1 DUP3 AND DUP1 PUSH2 0x90D JUMPI PUSH1 0x7F DUP3 AND SWAP2 POP JUMPDEST PUSH1 0x20 DUP3 LT DUP2 EQ ISZERO PUSH2 0x921 JUMPI PUSH2 0x920 PUSH2 0x987 JUMP JUMPDEST JUMPDEST POP SWAP2 SWAP1 POP JUMP JUMPDEST PUSH2 0x930 DUP3 PUSH2 0x9F9 JUMP JUMPDEST DUP2 ADD DUP2 DUP2 LT PUSH8 0xFFFFFFFFFFFFFFFF DUP3 GT OR ISZERO PUSH2 0x94F JUMPI PUSH2 0x94E PUSH2 0x9B6 JUMP JUMPDEST JUMPDEST DUP1 PUSH1 0x40 MSTORE POP POP POP JUMP JUMPDEST PUSH32 0x4E487B7100000000000000000000000000000000000000000000000000000000 PUSH1 0x0 MSTORE PUSH1 0x21 PUSH1 0x4 MSTORE PUSH1 0x24 PUSH1 0x0 REVERT JUMPDEST PUSH32 0x4E487B7100000000000000000000000000000000000000000000000000000000 PUSH1 0x0 MSTORE PUSH1 0x22 PUSH1 0x4 MSTORE PUSH1 0x24 PUSH1 0x0 REVERT JUMPDEST PUSH32 0x4E487B7100000000000000000000000000000000000000000000000000000000 PUSH1 0x0 MSTORE PUSH1 0x41 PUSH1 0x4 MSTORE PUSH1 0x24 PUSH1 0x0 REVERT JUMPDEST PUSH1 0x0 DUP1 REVERT JUMPDEST PUSH1 0x0 DUP1 REVERT JUMPDEST PUSH1 0x0 DUP1 REVERT JUMPDEST PUSH1 0x0 DUP1 REVERT JUMPDEST PUSH1 0x0 PUSH1 0x1F NOT PUSH1 0x1F DUP4 ADD AND SWAP1 POP SWAP2 SWAP1 POP JUMP JUMPDEST PUSH1 0x3 DUP2 LT PUSH2 0xA1B JUMPI PUSH2 0xA1A PUSH2 0x958 JUMP JUMPDEST JUMPDEST POP JUMP JUMPDEST PUSH1 0x7 DUP2 LT PUSH2 0xA2B JUMPI PUSH1 0x0 DUP1 REVERT JUMPDEST POP JUMP JUMPDEST PUSH2 0xA37 DUP2 PUSH2 0x897 JUMP JUMPDEST DUP2 EQ PUSH2 0xA42 JUMPI PUSH1 0x0 DUP1 REVERT JUMPDEST POP JUMP INVALID LOG2 PUSH5 0x6970667358 0x22 SLT KECCAK256 OR SWAP13 STOP PC PUSH26 0x16D67DF71C50D858474F1FDAEFC242B42E2A162607B53A3C2A90 MOD PUSH5 0x736F6C6343 STOP ADDMOD SMOD STOP CALLER "
				},
				"gasEstimates": {
					"creation": {
						"codeDepositCost": "536600",
						"executionCost": "568",
						"totalCost": "537168"
					},
					"external": {
						"CreateUser(string,string,uint8,uint256,uint256)": "infinite",
						"ReadDrug(string)": "infinite"
					}
				},
				"methodIdentifiers": {
					"CreateUser(string,string,uint8,uint256,uint256)": "64819ae0",
					"ReadDrug(string)": "cdf7e73d"
				}
			},
			"storageLayout": {
				"storage": [
					{
						"astId": 108,
						"contract": "contracts/Users.sol:Users",
						"label": "UserIDsMapping",
						"offset": 0,
						"slot": "0",
						"type": "t_mapping(t_string_memory_ptr,t_struct(User)103_storage)"
					},
					{
						"astId": 111,
						"contract": "contracts/Users.sol:Users",
						"label": "UsersIDs",
						"offset": 0,
						"slot": "1",
						"type": "t_array(t_string_storage)dyn_storage"
					},
					{
						"astId": 132,
						"contract": "contracts/Users.sol:Users",
						"label": "DrugRegNoMapping",
						"offset": 0,
						"slot": "2",
						"type": "t_mapping(t_string_memory_ptr,t_struct(Drug)119_storage)"
					},
					{
						"astId": 135,
						"contract": "contracts/Users.sol:Users",
						"label": "DrugsRegNos",
						"offset": 0,
						"slot": "3",
						"type": "t_array(t_string_storage)dyn_storage"
					}
				],
				"types": {
					"t_address": {
						"encoding": "inplace",
						"label": "address",
						"numberOfBytes": "20"
					},
					"t_array(t_string_storage)dyn_storage": {
						"base": "t_string_storage",
						"encoding": "dynamic_array",
						"label": "string[]",
						"numberOfBytes": "32"
					},
					"t_enum(Statuses)80": {
						"encoding": "inplace",
						"label": "enum Utils.Statuses",
						"numberOfBytes": "1"
					},
					"t_enum(UserRoles)88": {
						"encoding": "inplace",
						"label": "enum Utils.UserRoles",
						"numberOfBytes": "1"
					},
					"t_mapping(t_string_memory_ptr,t_struct(Drug)119_storage)": {
						"encoding": "mapping",
						"key": "t_string_memory_ptr",
						"label": "mapping(string => struct Utils.Drug)",
						"numberOfBytes": "32",
						"value": "t_struct(Drug)119_storage"
					},
					"t_mapping(t_string_memory_ptr,t_struct(User)103_storage)": {
						"encoding": "mapping",
						"key": "t_string_memory_ptr",
						"label": "mapping(string => struct Utils.User)",
						"numberOfBytes": "32",
						"value": "t_struct(User)103_storage"
					},
					"t_string_memory_ptr": {
						"encoding": "bytes",
						"label": "string",
						"numberOfBytes": "32"
					},
					"t_string_storage": {
						"encoding": "bytes",
						"label": "string",
						"numberOfBytes": "32"
					},
					"t_struct(Drug)119_storage": {
						"encoding": "inplace",
						"label": "struct Utils.Drug",
						"members": [
							{
								"astId": 113,
								"contract": "contracts/Users.sol:Users",
								"label": "DrugName",
								"offset": 0,
								"slot": "0",
								"type": "t_string_storage"
							},
							{
								"astId": 115,
								"contract": "contracts/Users.sol:Users",
								"label": "Manufacturer",
								"offset": 0,
								"slot": "1",
								"type": "t_address"
							},
							{
								"astId": 118,
								"contract": "contracts/Users.sol:Users",
								"label": "DrugStatus",
								"offset": 20,
								"slot": "1",
								"type": "t_enum(Statuses)80"
							}
						],
						"numberOfBytes": "64"
					},
					"t_struct(User)103_storage": {
						"encoding": "inplace",
						"label": "struct Utils.User",
						"members": [
							{
								"astId": 90,
								"contract": "contracts/Users.sol:Users",
								"label": "UserName",
								"offset": 0,
								"slot": "0",
								"type": "t_string_storage"
							},
							{
								"astId": 93,
								"contract": "contracts/Users.sol:Users",
								"label": "UserRole",
								"offset": 0,
								"slot": "1",
								"type": "t_enum(UserRoles)88"
							},
							{
								"astId": 96,
								"contract": "contracts/Users.sol:Users",
								"label": "UserStatus",
								"offset": 1,
								"slot": "1",
								"type": "t_enum(Statuses)80"
							},
							{
								"astId": 98,
								"contract": "contracts/Users.sol:Users",
								"label": "Latitude",
								"offset": 0,
								"slot": "2",
								"type": "t_uint256"
							},
							{
								"astId": 100,
								"contract": "contracts/Users.sol:Users",
								"label": "Longitude",
								"offset": 0,
								"slot": "3",
								"type": "t_uint256"
							},
							{
								"astId": 102,
								"contract": "contracts/Users.sol:Users",
								"label": "UserAddress",
								"offset": 0,
								"slot": "4",
								"type": "t_address"
							}
						],
						"numberOfBytes": "160"
					},
					"t_uint256": {
						"encoding": "inplace",
						"label": "uint256",
						"numberOfBytes": "32"
					}
				}
			},
			"userdoc": {
				"kind": "user",
				"methods": {},
				"version": 1
			}
		}
	}
}