{
	"contracts/Transaction.sol": {
		"Transactions": {
			"abi": [
				{
					"inputs": [],
					"stateMutability": "nonpayable",
					"type": "constructor"
				},
				{
					"inputs": [
						{
							"internalType": "uint256",
							"name": "_patchno",
							"type": "uint256"
						},
						{
							"internalType": "uint256",
							"name": "_currentowner",
							"type": "uint256"
						},
						{
							"internalType": "uint256",
							"name": "_fromowner",
							"type": "uint256"
						},
						{
							"internalType": "uint256",
							"name": "_transamount",
							"type": "uint256"
						},
						{
							"internalType": "uint256",
							"name": "_transdate",
							"type": "uint256"
						}
					],
					"name": "addTransaction",
					"outputs": [],
					"stateMutability": "nonpayable",
					"type": "function"
				},
				{
					"inputs": [
						{
							"internalType": "uint256",
							"name": "_transid",
							"type": "uint256"
						}
					],
					"name": "get",
					"outputs": [
						{
							"components": [
								{
									"internalType": "uint256",
									"name": "TransactionID",
									"type": "uint256"
								},
								{
									"internalType": "uint256",
									"name": "PatchNo",
									"type": "uint256"
								},
								{
									"internalType": "uint256",
									"name": "CurrentOwner",
									"type": "uint256"
								},
								{
									"internalType": "uint256",
									"name": "FromOwner",
									"type": "uint256"
								},
								{
									"internalType": "uint256",
									"name": "TransferedAmount",
									"type": "uint256"
								},
								{
									"internalType": "uint256",
									"name": "TransactionDate",
									"type": "uint256"
								}
							],
							"internalType": "struct Transactions.Transaction",
							"name": "",
							"type": "tuple"
						}
					],
					"stateMutability": "view",
					"type": "function"
				},
				{
					"inputs": [],
					"name": "getTransaction",
					"outputs": [
						{
							"internalType": "uint256[]",
							"name": "",
							"type": "uint256[]"
						},
						{
							"internalType": "uint256[]",
							"name": "",
							"type": "uint256[]"
						},
						{
							"internalType": "uint256[]",
							"name": "",
							"type": "uint256[]"
						},
						{
							"internalType": "uint256[]",
							"name": "",
							"type": "uint256[]"
						},
						{
							"internalType": "uint256[]",
							"name": "",
							"type": "uint256[]"
						},
						{
							"internalType": "uint256[]",
							"name": "",
							"type": "uint256[]"
						}
					],
					"stateMutability": "view",
					"type": "function"
				},
				{
					"inputs": [],
					"name": "getTransactions",
					"outputs": [
						{
							"components": [
								{
									"internalType": "uint256",
									"name": "TransactionID",
									"type": "uint256"
								},
								{
									"internalType": "uint256",
									"name": "PatchNo",
									"type": "uint256"
								},
								{
									"internalType": "uint256",
									"name": "CurrentOwner",
									"type": "uint256"
								},
								{
									"internalType": "uint256",
									"name": "FromOwner",
									"type": "uint256"
								},
								{
									"internalType": "uint256",
									"name": "TransferedAmount",
									"type": "uint256"
								},
								{
									"internalType": "uint256",
									"name": "TransactionDate",
									"type": "uint256"
								}
							],
							"internalType": "struct Transactions.Transaction[]",
							"name": "",
							"type": "tuple[]"
						}
					],
					"stateMutability": "view",
					"type": "function"
				},
				{
					"inputs": [
						{
							"internalType": "uint256",
							"name": "",
							"type": "uint256"
						}
					],
					"name": "transactions",
					"outputs": [
						{
							"internalType": "uint256",
							"name": "TransactionID",
							"type": "uint256"
						},
						{
							"internalType": "uint256",
							"name": "PatchNo",
							"type": "uint256"
						},
						{
							"internalType": "uint256",
							"name": "CurrentOwner",
							"type": "uint256"
						},
						{
							"internalType": "uint256",
							"name": "FromOwner",
							"type": "uint256"
						},
						{
							"internalType": "uint256",
							"name": "TransferedAmount",
							"type": "uint256"
						},
						{
							"internalType": "uint256",
							"name": "TransactionDate",
							"type": "uint256"
						}
					],
					"stateMutability": "view",
					"type": "function"
				},
				{
					"inputs": [],
					"name": "transactionsCount",
					"outputs": [
						{
							"internalType": "uint256",
							"name": "",
							"type": "uint256"
						}
					],
					"stateMutability": "view",
					"type": "function"
				}
			],
			"devdoc": {
				"kind": "dev",
				"methods": {},
				"version": 1
			},
			"evm": {
				"assembly": "    /* \"contracts/Transaction.sol\":62:2392  contract Transactions{\r... */\n  mstore(0x40, 0x80)\n    /* \"contracts/Transaction.sol\":434:489  constructor()  {\r... */\n  callvalue\n  dup1\n  iszero\n  tag_1\n  jumpi\n  0x00\n  dup1\n  revert\ntag_1:\n  pop\n    /* \"contracts/Transaction.sol\":480:481  0 */\n  0x00\n    /* \"contracts/Transaction.sol\":460:477  transactionsCount */\n  0x01\n    /* \"contracts/Transaction.sol\":460:481  transactionsCount = 0 */\n  dup2\n  swap1\n  sstore\n  pop\n    /* \"contracts/Transaction.sol\":62:2392  contract Transactions{\r... */\n  dataSize(sub_0)\n  dup1\n  dataOffset(sub_0)\n  0x00\n  codecopy\n  0x00\n  return\nstop\n\nsub_0: assembly {\n        /* \"contracts/Transaction.sol\":62:2392  contract Transactions{\r... */\n      mstore(0x40, 0x80)\n      callvalue\n      dup1\n      iszero\n      tag_1\n      jumpi\n      0x00\n      dup1\n      revert\n    tag_1:\n      pop\n      jumpi(tag_2, lt(calldatasize, 0x04))\n      shr(0xe0, calldataload(0x00))\n      dup1\n      0x59705f81\n      eq\n      tag_3\n      jumpi\n      dup1\n      0x634e1a29\n      eq\n      tag_4\n      jumpi\n      dup1\n      0x83920e90\n      eq\n      tag_5\n      jumpi\n      dup1\n      0x9507d39a\n      eq\n      tag_6\n      jumpi\n      dup1\n      0x9ace38c2\n      eq\n      tag_7\n      jumpi\n      dup1\n      0xfd99a746\n      eq\n      tag_8\n      jumpi\n    tag_2:\n      0x00\n      dup1\n      revert\n        /* \"contracts/Transaction.sol\":960:2026  function getTransaction() public view returns (uint[] memory, uint[] memory, uint[] memory, uint[] memory, uint[] memory, uint[] memory){\r... */\n    tag_3:\n      tag_9\n      tag_10\n      jump\t// in\n    tag_9:\n      mload(0x40)\n      tag_11\n      swap7\n      swap6\n      swap5\n      swap4\n      swap3\n      swap2\n      swap1\n      tag_12\n      jump\t// in\n    tag_11:\n      mload(0x40)\n      dup1\n      swap2\n      sub\n      swap1\n      return\n        /* \"contracts/Transaction.sol\":497:791  function addTransaction(uint _patchno, uint _currentowner, uint _fromowner, uint _transamount, uint _transdate) public {\r... */\n    tag_4:\n      tag_13\n      0x04\n      dup1\n      calldatasize\n      sub\n      dup2\n      add\n      swap1\n      tag_14\n      swap2\n      swap1\n      tag_15\n      jump\t// in\n    tag_14:\n      tag_16\n      jump\t// in\n    tag_13:\n      stop\n        /* \"contracts/Transaction.sol\":2063:2387  function getTransactions() public view returns (Transaction[] memory){\r... */\n    tag_5:\n      tag_17\n      tag_18\n      jump\t// in\n    tag_17:\n      mload(0x40)\n      tag_19\n      swap2\n      swap1\n      tag_20\n      jump\t// in\n    tag_19:\n      mload(0x40)\n      dup1\n      swap2\n      sub\n      swap1\n      return\n        /* \"contracts/Transaction.sol\":799:915  function get(uint _transid) public view returns(Transaction memory) {\r... */\n    tag_6:\n      tag_21\n      0x04\n      dup1\n      calldatasize\n      sub\n      dup2\n      add\n      swap1\n      tag_22\n      swap2\n      swap1\n      tag_23\n      jump\t// in\n    tag_22:\n      tag_24\n      jump\t// in\n    tag_21:\n      mload(0x40)\n      tag_25\n      swap2\n      swap1\n      tag_26\n      jump\t// in\n    tag_25:\n      mload(0x40)\n      dup1\n      swap2\n      sub\n      swap1\n      return\n        /* \"contracts/Transaction.sol\":292:341  mapping (uint => Transaction) public transactions */\n    tag_7:\n      tag_27\n      0x04\n      dup1\n      calldatasize\n      sub\n      dup2\n      add\n      swap1\n      tag_28\n      swap2\n      swap1\n      tag_23\n      jump\t// in\n    tag_28:\n      tag_29\n      jump\t// in\n    tag_27:\n      mload(0x40)\n      tag_30\n      swap7\n      swap6\n      swap5\n      swap4\n      swap3\n      swap2\n      swap1\n      tag_31\n      jump\t// in\n    tag_30:\n      mload(0x40)\n      dup1\n      swap2\n      sub\n      swap1\n      return\n        /* \"contracts/Transaction.sol\":398:427  uint public transactionsCount */\n    tag_8:\n      tag_32\n      tag_33\n      jump\t// in\n    tag_32:\n      mload(0x40)\n      tag_34\n      swap2\n      swap1\n      tag_35\n      jump\t// in\n    tag_34:\n      mload(0x40)\n      dup1\n      swap2\n      sub\n      swap1\n      return\n        /* \"contracts/Transaction.sol\":960:2026  function getTransaction() public view returns (uint[] memory, uint[] memory, uint[] memory, uint[] memory, uint[] memory, uint[] memory){\r... */\n    tag_10:\n        /* \"contracts/Transaction.sol\":1007:1020  uint[] memory */\n      0x60\n        /* \"contracts/Transaction.sol\":1022:1035  uint[] memory */\n      dup1\n        /* \"contracts/Transaction.sol\":1037:1050  uint[] memory */\n      0x60\n        /* \"contracts/Transaction.sol\":1052:1065  uint[] memory */\n      dup1\n        /* \"contracts/Transaction.sol\":1067:1080  uint[] memory */\n      0x60\n        /* \"contracts/Transaction.sol\":1082:1095  uint[] memory */\n      dup1\n        /* \"contracts/Transaction.sol\":1105:1127  uint[]  memory patchno */\n      0x00\n        /* \"contracts/Transaction.sol\":1141:1158  transactionsCount */\n      sload(0x01)\n        /* \"contracts/Transaction.sol\":1130:1159  new uint[](transactionsCount) */\n      0xffffffffffffffff\n      dup2\n      gt\n      iszero\n      tag_37\n      jumpi\n      tag_38\n      tag_39\n      jump\t// in\n    tag_38:\n    tag_37:\n      mload(0x40)\n      swap1\n      dup1\n      dup3\n      mstore\n      dup1\n      0x20\n      mul\n      0x20\n      add\n      dup3\n      add\n      0x40\n      mstore\n      dup1\n      iszero\n      tag_40\n      jumpi\n      dup2\n      0x20\n      add\n      0x20\n      dup3\n      mul\n      dup1\n      calldatasize\n      dup4\n      calldatacopy\n      dup1\n      dup3\n      add\n      swap2\n      pop\n      pop\n      swap1\n      pop\n    tag_40:\n      pop\n        /* \"contracts/Transaction.sol\":1105:1159  uint[]  memory patchno = new uint[](transactionsCount) */\n      swap1\n      pop\n        /* \"contracts/Transaction.sol\":1168:1190  uint[]  memory transid */\n      0x00\n        /* \"contracts/Transaction.sol\":1204:1221  transactionsCount */\n      sload(0x01)\n        /* \"contracts/Transaction.sol\":1193:1222  new uint[](transactionsCount) */\n      0xffffffffffffffff\n      dup2\n      gt\n      iszero\n      tag_41\n      jumpi\n      tag_42\n      tag_39\n      jump\t// in\n    tag_42:\n    tag_41:\n      mload(0x40)\n      swap1\n      dup1\n      dup3\n      mstore\n      dup1\n      0x20\n      mul\n      0x20\n      add\n      dup3\n      add\n      0x40\n      mstore\n      dup1\n      iszero\n      tag_43\n      jumpi\n      dup2\n      0x20\n      add\n      0x20\n      dup3\n      mul\n      dup1\n      calldatasize\n      dup4\n      calldatacopy\n      dup1\n      dup3\n      add\n      swap2\n      pop\n      pop\n      swap1\n      pop\n    tag_43:\n      pop\n        /* \"contracts/Transaction.sol\":1168:1222  uint[]  memory transid = new uint[](transactionsCount) */\n      swap1\n      pop\n        /* \"contracts/Transaction.sol\":1231:1258  uint[]  memory currentowner */\n      0x00\n        /* \"contracts/Transaction.sol\":1272:1289  transactionsCount */\n      sload(0x01)\n        /* \"contracts/Transaction.sol\":1261:1290  new uint[](transactionsCount) */\n      0xffffffffffffffff\n      dup2\n      gt\n      iszero\n      tag_44\n      jumpi\n      tag_45\n      tag_39\n      jump\t// in\n    tag_45:\n    tag_44:\n      mload(0x40)\n      swap1\n      dup1\n      dup3\n      mstore\n      dup1\n      0x20\n      mul\n      0x20\n      add\n      dup3\n      add\n      0x40\n      mstore\n      dup1\n      iszero\n      tag_46\n      jumpi\n      dup2\n      0x20\n      add\n      0x20\n      dup3\n      mul\n      dup1\n      calldatasize\n      dup4\n      calldatacopy\n      dup1\n      dup3\n      add\n      swap2\n      pop\n      pop\n      swap1\n      pop\n    tag_46:\n      pop\n        /* \"contracts/Transaction.sol\":1231:1290  uint[]  memory currentowner = new uint[](transactionsCount) */\n      swap1\n      pop\n        /* \"contracts/Transaction.sol\":1299:1323  uint[]  memory fromowner */\n      0x00\n        /* \"contracts/Transaction.sol\":1337:1354  transactionsCount */\n      sload(0x01)\n        /* \"contracts/Transaction.sol\":1326:1355  new uint[](transactionsCount) */\n      0xffffffffffffffff\n      dup2\n      gt\n      iszero\n      tag_47\n      jumpi\n      tag_48\n      tag_39\n      jump\t// in\n    tag_48:\n    tag_47:\n      mload(0x40)\n      swap1\n      dup1\n      dup3\n      mstore\n      dup1\n      0x20\n      mul\n      0x20\n      add\n      dup3\n      add\n      0x40\n      mstore\n      dup1\n      iszero\n      tag_49\n      jumpi\n      dup2\n      0x20\n      add\n      0x20\n      dup3\n      mul\n      dup1\n      calldatasize\n      dup4\n      calldatacopy\n      dup1\n      dup3\n      add\n      swap2\n      pop\n      pop\n      swap1\n      pop\n    tag_49:\n      pop\n        /* \"contracts/Transaction.sol\":1299:1355  uint[]  memory fromowner = new uint[](transactionsCount) */\n      swap1\n      pop\n        /* \"contracts/Transaction.sol\":1364:1390  uint[]  memory transamount */\n      0x00\n        /* \"contracts/Transaction.sol\":1404:1421  transactionsCount */\n      sload(0x01)\n        /* \"contracts/Transaction.sol\":1393:1422  new uint[](transactionsCount) */\n      0xffffffffffffffff\n      dup2\n      gt\n      iszero\n      tag_50\n      jumpi\n      tag_51\n      tag_39\n      jump\t// in\n    tag_51:\n    tag_50:\n      mload(0x40)\n      swap1\n      dup1\n      dup3\n      mstore\n      dup1\n      0x20\n      mul\n      0x20\n      add\n      dup3\n      add\n      0x40\n      mstore\n      dup1\n      iszero\n      tag_52\n      jumpi\n      dup2\n      0x20\n      add\n      0x20\n      dup3\n      mul\n      dup1\n      calldatasize\n      dup4\n      calldatacopy\n      dup1\n      dup3\n      add\n      swap2\n      pop\n      pop\n      swap1\n      pop\n    tag_52:\n      pop\n        /* \"contracts/Transaction.sol\":1364:1422  uint[]  memory transamount = new uint[](transactionsCount) */\n      swap1\n      pop\n        /* \"contracts/Transaction.sol\":1431:1455  uint[]  memory transdate */\n      0x00\n        /* \"contracts/Transaction.sol\":1469:1486  transactionsCount */\n      sload(0x01)\n        /* \"contracts/Transaction.sol\":1458:1487  new uint[](transactionsCount) */\n      0xffffffffffffffff\n      dup2\n      gt\n      iszero\n      tag_53\n      jumpi\n      tag_54\n      tag_39\n      jump\t// in\n    tag_54:\n    tag_53:\n      mload(0x40)\n      swap1\n      dup1\n      dup3\n      mstore\n      dup1\n      0x20\n      mul\n      0x20\n      add\n      dup3\n      add\n      0x40\n      mstore\n      dup1\n      iszero\n      tag_55\n      jumpi\n      dup2\n      0x20\n      add\n      0x20\n      dup3\n      mul\n      dup1\n      calldatasize\n      dup4\n      calldatacopy\n      dup1\n      dup3\n      add\n      swap2\n      pop\n      pop\n      swap1\n      pop\n    tag_55:\n      pop\n        /* \"contracts/Transaction.sol\":1431:1487  uint[]  memory transdate = new uint[](transactionsCount) */\n      swap1\n      pop\n        /* \"contracts/Transaction.sol\":1509:1515  uint i */\n      0x00\n        /* \"contracts/Transaction.sol\":1504:1934  for (uint i = 0; i < transactionsCount; i++) {\r... */\n    tag_56:\n        /* \"contracts/Transaction.sol\":1525:1542  transactionsCount */\n      sload(0x01)\n        /* \"contracts/Transaction.sol\":1521:1522  i */\n      dup2\n        /* \"contracts/Transaction.sol\":1521:1542  i < transactionsCount */\n      lt\n        /* \"contracts/Transaction.sol\":1504:1934  for (uint i = 0; i < transactionsCount; i++) {\r... */\n      iszero\n      tag_57\n      jumpi\n        /* \"contracts/Transaction.sol\":1562:1593  Transaction storage transaction */\n      0x00\n        /* \"contracts/Transaction.sol\":1596:1608  transactions */\n      dup1\n        /* \"contracts/Transaction.sol\":1596:1611  transactions[i] */\n      0x00\n        /* \"contracts/Transaction.sol\":1609:1610  i */\n      dup4\n        /* \"contracts/Transaction.sol\":1596:1611  transactions[i] */\n      dup2\n      mstore\n      0x20\n      add\n      swap1\n      dup2\n      mstore\n      0x20\n      add\n      0x00\n      keccak256\n        /* \"contracts/Transaction.sol\":1562:1611  Transaction storage transaction = transactions[i] */\n      swap1\n      pop\n        /* \"contracts/Transaction.sol\":1637:1648  transaction */\n      dup1\n        /* \"contracts/Transaction.sol\":1637:1656  transaction.PatchNo */\n      0x01\n      add\n      sload\n        /* \"contracts/Transaction.sol\":1624:1631  patchno */\n      dup9\n        /* \"contracts/Transaction.sol\":1632:1633  i */\n      dup4\n        /* \"contracts/Transaction.sol\":1624:1634  patchno[i] */\n      dup2\n      mload\n      dup2\n      lt\n      tag_59\n      jumpi\n      tag_60\n      tag_61\n      jump\t// in\n    tag_60:\n    tag_59:\n      0x20\n      mul\n      0x20\n      add\n      add\n        /* \"contracts/Transaction.sol\":1624:1656  patchno[i] = transaction.PatchNo */\n      dup2\n      dup2\n      mstore\n      pop\n      pop\n        /* \"contracts/Transaction.sol\":1682:1693  transaction */\n      dup1\n        /* \"contracts/Transaction.sol\":1682:1707  transaction.TransactionID */\n      0x00\n      add\n      sload\n        /* \"contracts/Transaction.sol\":1669:1676  transid */\n      dup8\n        /* \"contracts/Transaction.sol\":1677:1678  i */\n      dup4\n        /* \"contracts/Transaction.sol\":1669:1679  transid[i] */\n      dup2\n      mload\n      dup2\n      lt\n      tag_62\n      jumpi\n      tag_63\n      tag_61\n      jump\t// in\n    tag_63:\n    tag_62:\n      0x20\n      mul\n      0x20\n      add\n      add\n        /* \"contracts/Transaction.sol\":1669:1707  transid[i] = transaction.TransactionID */\n      dup2\n      dup2\n      mstore\n      pop\n      pop\n        /* \"contracts/Transaction.sol\":1737:1748  transaction */\n      dup1\n        /* \"contracts/Transaction.sol\":1737:1765  transaction.TransferedAmount */\n      0x04\n      add\n      sload\n        /* \"contracts/Transaction.sol\":1720:1731  transamount */\n      dup5\n        /* \"contracts/Transaction.sol\":1732:1733  i */\n      dup4\n        /* \"contracts/Transaction.sol\":1720:1734  transamount[i] */\n      dup2\n      mload\n      dup2\n      lt\n      tag_64\n      jumpi\n      tag_65\n      tag_61\n      jump\t// in\n    tag_65:\n    tag_64:\n      0x20\n      mul\n      0x20\n      add\n      add\n        /* \"contracts/Transaction.sol\":1720:1765  transamount[i] = transaction.TransferedAmount */\n      dup2\n      dup2\n      mstore\n      pop\n      pop\n        /* \"contracts/Transaction.sol\":1793:1804  transaction */\n      dup1\n        /* \"contracts/Transaction.sol\":1793:1820  transaction.TransactionDate */\n      0x05\n      add\n      sload\n        /* \"contracts/Transaction.sol\":1778:1787  transdate */\n      dup4\n        /* \"contracts/Transaction.sol\":1788:1789  i */\n      dup4\n        /* \"contracts/Transaction.sol\":1778:1790  transdate[i] */\n      dup2\n      mload\n      dup2\n      lt\n      tag_66\n      jumpi\n      tag_67\n      tag_61\n      jump\t// in\n    tag_67:\n    tag_66:\n      0x20\n      mul\n      0x20\n      add\n      add\n        /* \"contracts/Transaction.sol\":1778:1820  transdate[i] = transaction.TransactionDate */\n      dup2\n      dup2\n      mstore\n      pop\n      pop\n        /* \"contracts/Transaction.sol\":1851:1862  transaction */\n      dup1\n        /* \"contracts/Transaction.sol\":1851:1875  transaction.CurrentOwner */\n      0x02\n      add\n      sload\n        /* \"contracts/Transaction.sol\":1833:1845  currentowner */\n      dup7\n        /* \"contracts/Transaction.sol\":1846:1847  i */\n      dup4\n        /* \"contracts/Transaction.sol\":1833:1848  currentowner[i] */\n      dup2\n      mload\n      dup2\n      lt\n      tag_68\n      jumpi\n      tag_69\n      tag_61\n      jump\t// in\n    tag_69:\n    tag_68:\n      0x20\n      mul\n      0x20\n      add\n      add\n        /* \"contracts/Transaction.sol\":1833:1875  currentowner[i] = transaction.CurrentOwner */\n      dup2\n      dup2\n      mstore\n      pop\n      pop\n        /* \"contracts/Transaction.sol\":1903:1914  transaction */\n      dup1\n        /* \"contracts/Transaction.sol\":1903:1924  transaction.FromOwner */\n      0x03\n      add\n      sload\n        /* \"contracts/Transaction.sol\":1888:1897  fromowner */\n      dup6\n        /* \"contracts/Transaction.sol\":1898:1899  i */\n      dup4\n        /* \"contracts/Transaction.sol\":1888:1900  fromowner[i] */\n      dup2\n      mload\n      dup2\n      lt\n      tag_70\n      jumpi\n      tag_71\n      tag_61\n      jump\t// in\n    tag_71:\n    tag_70:\n      0x20\n      mul\n      0x20\n      add\n      add\n        /* \"contracts/Transaction.sol\":1888:1924  fromowner[i] = transaction.FromOwner */\n      dup2\n      dup2\n      mstore\n      pop\n      pop\n        /* \"contracts/Transaction.sol\":1549:1934  {\r... */\n      pop\n        /* \"contracts/Transaction.sol\":1544:1547  i++ */\n      dup1\n      dup1\n      tag_72\n      swap1\n      tag_73\n      jump\t// in\n    tag_72:\n      swap2\n      pop\n      pop\n        /* \"contracts/Transaction.sol\":1504:1934  for (uint i = 0; i < transactionsCount; i++) {\r... */\n      jump(tag_56)\n    tag_57:\n      pop\n        /* \"contracts/Transaction.sol\":1952:1959  patchno */\n      dup6\n        /* \"contracts/Transaction.sol\":1961:1968  transid */\n      dup6\n        /* \"contracts/Transaction.sol\":1970:1981  transamount */\n      dup4\n        /* \"contracts/Transaction.sol\":1983:1992  transdate */\n      dup4\n        /* \"contracts/Transaction.sol\":1994:2006  currentowner */\n      dup8\n        /* \"contracts/Transaction.sol\":2008:2017  fromowner */\n      dup8\n        /* \"contracts/Transaction.sol\":1944:2018  return (patchno, transid, transamount, transdate, currentowner, fromowner) */\n      swap12\n      pop\n      swap12\n      pop\n      swap12\n      pop\n      swap12\n      pop\n      swap12\n      pop\n      swap12\n      pop\n      pop\n      pop\n      pop\n      pop\n      pop\n      pop\n        /* \"contracts/Transaction.sol\":960:2026  function getTransaction() public view returns (uint[] memory, uint[] memory, uint[] memory, uint[] memory, uint[] memory, uint[] memory){\r... */\n      swap1\n      swap2\n      swap3\n      swap4\n      swap5\n      swap6\n      jump\t// out\n        /* \"contracts/Transaction.sol\":497:791  function addTransaction(uint _patchno, uint _currentowner, uint _fromowner, uint _transamount, uint _transdate) public {\r... */\n    tag_16:\n        /* \"contracts/Transaction.sol\":661:753  Transaction(transactionsCount,_patchno, _currentowner, _fromowner, _transamount, _transdate) */\n      mload(0x40)\n      dup1\n      0xc0\n      add\n      0x40\n      mstore\n      dup1\n        /* \"contracts/Transaction.sol\":673:690  transactionsCount */\n      sload(0x01)\n        /* \"contracts/Transaction.sol\":661:753  Transaction(transactionsCount,_patchno, _currentowner, _fromowner, _transamount, _transdate) */\n      dup2\n      mstore\n      0x20\n      add\n        /* \"contracts/Transaction.sol\":691:699  _patchno */\n      dup7\n        /* \"contracts/Transaction.sol\":661:753  Transaction(transactionsCount,_patchno, _currentowner, _fromowner, _transamount, _transdate) */\n      dup2\n      mstore\n      0x20\n      add\n        /* \"contracts/Transaction.sol\":701:714  _currentowner */\n      dup6\n        /* \"contracts/Transaction.sol\":661:753  Transaction(transactionsCount,_patchno, _currentowner, _fromowner, _transamount, _transdate) */\n      dup2\n      mstore\n      0x20\n      add\n        /* \"contracts/Transaction.sol\":716:726  _fromowner */\n      dup5\n        /* \"contracts/Transaction.sol\":661:753  Transaction(transactionsCount,_patchno, _currentowner, _fromowner, _transamount, _transdate) */\n      dup2\n      mstore\n      0x20\n      add\n        /* \"contracts/Transaction.sol\":728:740  _transamount */\n      dup4\n        /* \"contracts/Transaction.sol\":661:753  Transaction(transactionsCount,_patchno, _currentowner, _fromowner, _transamount, _transdate) */\n      dup2\n      mstore\n      0x20\n      add\n        /* \"contracts/Transaction.sol\":742:752  _transdate */\n      dup3\n        /* \"contracts/Transaction.sol\":661:753  Transaction(transactionsCount,_patchno, _currentowner, _fromowner, _transamount, _transdate) */\n      dup2\n      mstore\n      pop\n        /* \"contracts/Transaction.sol\":627:639  transactions */\n      0x00\n        /* \"contracts/Transaction.sol\":627:658  transactions[transactionsCount] */\n      dup1\n        /* \"contracts/Transaction.sol\":640:657  transactionsCount */\n      sload(0x01)\n        /* \"contracts/Transaction.sol\":627:658  transactions[transactionsCount] */\n      dup2\n      mstore\n      0x20\n      add\n      swap1\n      dup2\n      mstore\n      0x20\n      add\n      0x00\n      keccak256\n        /* \"contracts/Transaction.sol\":627:753  transactions[transactionsCount] = Transaction(transactionsCount,_patchno, _currentowner, _fromowner, _transamount, _transdate) */\n      0x00\n      dup3\n      add\n      mload\n      dup2\n      0x00\n      add\n      sstore\n      0x20\n      dup3\n      add\n      mload\n      dup2\n      0x01\n      add\n      sstore\n      0x40\n      dup3\n      add\n      mload\n      dup2\n      0x02\n      add\n      sstore\n      0x60\n      dup3\n      add\n      mload\n      dup2\n      0x03\n      add\n      sstore\n      0x80\n      dup3\n      add\n      mload\n      dup2\n      0x04\n      add\n      sstore\n      0xa0\n      dup3\n      add\n      mload\n      dup2\n      0x05\n      add\n      sstore\n      swap1\n      pop\n      pop\n        /* \"contracts/Transaction.sol\":764:781  transactionsCount */\n      0x01\n      0x00\n        /* \"contracts/Transaction.sol\":764:783  transactionsCount++ */\n      dup2\n      sload\n      dup1\n      swap3\n      swap2\n      swap1\n      tag_75\n      swap1\n      tag_73\n      jump\t// in\n    tag_75:\n      swap2\n      swap1\n      pop\n      sstore\n      pop\n        /* \"contracts/Transaction.sol\":497:791  function addTransaction(uint _patchno, uint _currentowner, uint _fromowner, uint _transamount, uint _transdate) public {\r... */\n      pop\n      pop\n      pop\n      pop\n      pop\n      jump\t// out\n        /* \"contracts/Transaction.sol\":2063:2387  function getTransactions() public view returns (Transaction[] memory){\r... */\n    tag_18:\n        /* \"contracts/Transaction.sol\":2111:2131  Transaction[] memory */\n      0x60\n        /* \"contracts/Transaction.sol\":2141:2167  Transaction[]    memory id */\n      0x00\n        /* \"contracts/Transaction.sol\":2188:2205  transactionsCount */\n      sload(0x01)\n        /* \"contracts/Transaction.sol\":2170:2206  new Transaction[](transactionsCount) */\n      0xffffffffffffffff\n      dup2\n      gt\n      iszero\n      tag_77\n      jumpi\n      tag_78\n      tag_39\n      jump\t// in\n    tag_78:\n    tag_77:\n      mload(0x40)\n      swap1\n      dup1\n      dup3\n      mstore\n      dup1\n      0x20\n      mul\n      0x20\n      add\n      dup3\n      add\n      0x40\n      mstore\n      dup1\n      iszero\n      tag_79\n      jumpi\n      dup2\n      0x20\n      add\n    tag_80:\n      tag_81\n      tag_82\n      jump\t// in\n    tag_81:\n      dup2\n      mstore\n      0x20\n      add\n      swap1\n      0x01\n      swap1\n      sub\n      swap1\n      dup2\n      tag_80\n      jumpi\n      swap1\n      pop\n    tag_79:\n      pop\n        /* \"contracts/Transaction.sol\":2141:2206  Transaction[]    memory id = new Transaction[](transactionsCount) */\n      swap1\n      pop\n        /* \"contracts/Transaction.sol\":2220:2226  uint i */\n      0x00\n        /* \"contracts/Transaction.sol\":2215:2364  for (uint i = 0; i < transactionsCount; i++) {\r... */\n    tag_83:\n        /* \"contracts/Transaction.sol\":2236:2253  transactionsCount */\n      sload(0x01)\n        /* \"contracts/Transaction.sol\":2232:2233  i */\n      dup2\n        /* \"contracts/Transaction.sol\":2232:2253  i < transactionsCount */\n      lt\n        /* \"contracts/Transaction.sol\":2215:2364  for (uint i = 0; i < transactionsCount; i++) {\r... */\n      iszero\n      tag_84\n      jumpi\n        /* \"contracts/Transaction.sol\":2273:2304  Transaction storage transaction */\n      0x00\n        /* \"contracts/Transaction.sol\":2307:2319  transactions */\n      dup1\n        /* \"contracts/Transaction.sol\":2307:2322  transactions[i] */\n      0x00\n        /* \"contracts/Transaction.sol\":2320:2321  i */\n      dup4\n        /* \"contracts/Transaction.sol\":2307:2322  transactions[i] */\n      dup2\n      mstore\n      0x20\n      add\n      swap1\n      dup2\n      mstore\n      0x20\n      add\n      0x00\n      keccak256\n        /* \"contracts/Transaction.sol\":2273:2322  Transaction storage transaction = transactions[i] */\n      swap1\n      pop\n        /* \"contracts/Transaction.sol\":2343:2354  transaction */\n      dup1\n        /* \"contracts/Transaction.sol\":2335:2354  id[i] = transaction */\n      mload(0x40)\n      dup1\n      0xc0\n      add\n      0x40\n      mstore\n      swap1\n      dup2\n      0x00\n      dup3\n      add\n      sload\n      dup2\n      mstore\n      0x20\n      add\n      0x01\n      dup3\n      add\n      sload\n      dup2\n      mstore\n      0x20\n      add\n      0x02\n      dup3\n      add\n      sload\n      dup2\n      mstore\n      0x20\n      add\n      0x03\n      dup3\n      add\n      sload\n      dup2\n      mstore\n      0x20\n      add\n      0x04\n      dup3\n      add\n      sload\n      dup2\n      mstore\n      0x20\n      add\n      0x05\n      dup3\n      add\n      sload\n      dup2\n      mstore\n      pop\n      pop\n        /* \"contracts/Transaction.sol\":2335:2337  id */\n      dup4\n        /* \"contracts/Transaction.sol\":2338:2339  i */\n      dup4\n        /* \"contracts/Transaction.sol\":2335:2340  id[i] */\n      dup2\n      mload\n      dup2\n      lt\n      tag_86\n      jumpi\n      tag_87\n      tag_61\n      jump\t// in\n    tag_87:\n    tag_86:\n      0x20\n      mul\n      0x20\n      add\n      add\n        /* \"contracts/Transaction.sol\":2335:2354  id[i] = transaction */\n      dup2\n      swap1\n      mstore\n      pop\n        /* \"contracts/Transaction.sol\":2260:2364  {\r... */\n      pop\n        /* \"contracts/Transaction.sol\":2255:2258  i++ */\n      dup1\n      dup1\n      tag_88\n      swap1\n      tag_73\n      jump\t// in\n    tag_88:\n      swap2\n      pop\n      pop\n        /* \"contracts/Transaction.sol\":2215:2364  for (uint i = 0; i < transactionsCount; i++) {\r... */\n      jump(tag_83)\n    tag_84:\n      pop\n        /* \"contracts/Transaction.sol\":2379:2381  id */\n      dup1\n        /* \"contracts/Transaction.sol\":2372:2381  return id */\n      swap2\n      pop\n      pop\n        /* \"contracts/Transaction.sol\":2063:2387  function getTransactions() public view returns (Transaction[] memory){\r... */\n      swap1\n      jump\t// out\n        /* \"contracts/Transaction.sol\":799:915  function get(uint _transid) public view returns(Transaction memory) {\r... */\n    tag_24:\n        /* \"contracts/Transaction.sol\":847:865  Transaction memory */\n      tag_89\n      tag_82\n      jump\t// in\n    tag_89:\n        /* \"contracts/Transaction.sol\":885:897  transactions */\n      0x00\n        /* \"contracts/Transaction.sol\":885:907  transactions[_transid] */\n      dup1\n        /* \"contracts/Transaction.sol\":898:906  _transid */\n      dup4\n        /* \"contracts/Transaction.sol\":885:907  transactions[_transid] */\n      dup2\n      mstore\n      0x20\n      add\n      swap1\n      dup2\n      mstore\n      0x20\n      add\n      0x00\n      keccak256\n        /* \"contracts/Transaction.sol\":878:907  return transactions[_transid] */\n      mload(0x40)\n      dup1\n      0xc0\n      add\n      0x40\n      mstore\n      swap1\n      dup2\n      0x00\n      dup3\n      add\n      sload\n      dup2\n      mstore\n      0x20\n      add\n      0x01\n      dup3\n      add\n      sload\n      dup2\n      mstore\n      0x20\n      add\n      0x02\n      dup3\n      add\n      sload\n      dup2\n      mstore\n      0x20\n      add\n      0x03\n      dup3\n      add\n      sload\n      dup2\n      mstore\n      0x20\n      add\n      0x04\n      dup3\n      add\n      sload\n      dup2\n      mstore\n      0x20\n      add\n      0x05\n      dup3\n      add\n      sload\n      dup2\n      mstore\n      pop\n      pop\n      swap1\n      pop\n        /* \"contracts/Transaction.sol\":799:915  function get(uint _transid) public view returns(Transaction memory) {\r... */\n      swap2\n      swap1\n      pop\n      jump\t// out\n        /* \"contracts/Transaction.sol\":292:341  mapping (uint => Transaction) public transactions */\n    tag_29:\n      mstore(0x20, 0x00)\n      dup1\n      0x00\n      mstore\n      keccak256(0x00, 0x40)\n      0x00\n      swap2\n      pop\n      swap1\n      pop\n      dup1\n      0x00\n      add\n      sload\n      swap1\n      dup1\n      0x01\n      add\n      sload\n      swap1\n      dup1\n      0x02\n      add\n      sload\n      swap1\n      dup1\n      0x03\n      add\n      sload\n      swap1\n      dup1\n      0x04\n      add\n      sload\n      swap1\n      dup1\n      0x05\n      add\n      sload\n      swap1\n      pop\n      dup7\n      jump\t// out\n        /* \"contracts/Transaction.sol\":398:427  uint public transactionsCount */\n    tag_33:\n      sload(0x01)\n      dup2\n      jump\t// out\n    tag_82:\n      mload(0x40)\n      dup1\n      0xc0\n      add\n      0x40\n      mstore\n      dup1\n      0x00\n      dup2\n      mstore\n      0x20\n      add\n      0x00\n      dup2\n      mstore\n      0x20\n      add\n      0x00\n      dup2\n      mstore\n      0x20\n      add\n      0x00\n      dup2\n      mstore\n      0x20\n      add\n      0x00\n      dup2\n      mstore\n      0x20\n      add\n      0x00\n      dup2\n      mstore\n      pop\n      swap1\n      jump\t// out\n        /* \"#utility.yul\":7:146   */\n    tag_92:\n        /* \"#utility.yul\":53:58   */\n      0x00\n        /* \"#utility.yul\":91:97   */\n      dup2\n        /* \"#utility.yul\":78:98   */\n      calldataload\n        /* \"#utility.yul\":69:98   */\n      swap1\n      pop\n        /* \"#utility.yul\":107:140   */\n      tag_94\n        /* \"#utility.yul\":134:139   */\n      dup2\n        /* \"#utility.yul\":107:140   */\n      tag_95\n      jump\t// in\n    tag_94:\n        /* \"#utility.yul\":7:146   */\n      swap3\n      swap2\n      pop\n      pop\n      jump\t// out\n        /* \"#utility.yul\":152:481   */\n    tag_23:\n        /* \"#utility.yul\":211:217   */\n      0x00\n        /* \"#utility.yul\":260:262   */\n      0x20\n        /* \"#utility.yul\":248:257   */\n      dup3\n        /* \"#utility.yul\":239:246   */\n      dup5\n        /* \"#utility.yul\":235:258   */\n      sub\n        /* \"#utility.yul\":231:263   */\n      slt\n        /* \"#utility.yul\":228:347   */\n      iszero\n      tag_97\n      jumpi\n        /* \"#utility.yul\":266:345   */\n      tag_98\n      tag_99\n      jump\t// in\n    tag_98:\n        /* \"#utility.yul\":228:347   */\n    tag_97:\n        /* \"#utility.yul\":386:387   */\n      0x00\n        /* \"#utility.yul\":411:464   */\n      tag_100\n        /* \"#utility.yul\":456:463   */\n      dup5\n        /* \"#utility.yul\":447:453   */\n      dup3\n        /* \"#utility.yul\":436:445   */\n      dup6\n        /* \"#utility.yul\":432:454   */\n      add\n        /* \"#utility.yul\":411:464   */\n      tag_92\n      jump\t// in\n    tag_100:\n        /* \"#utility.yul\":401:464   */\n      swap2\n      pop\n        /* \"#utility.yul\":357:474   */\n      pop\n        /* \"#utility.yul\":152:481   */\n      swap3\n      swap2\n      pop\n      pop\n      jump\t// out\n        /* \"#utility.yul\":487:1398   */\n    tag_15:\n        /* \"#utility.yul\":582:588   */\n      0x00\n        /* \"#utility.yul\":590:596   */\n      dup1\n        /* \"#utility.yul\":598:604   */\n      0x00\n        /* \"#utility.yul\":606:612   */\n      dup1\n        /* \"#utility.yul\":614:620   */\n      0x00\n        /* \"#utility.yul\":663:666   */\n      0xa0\n        /* \"#utility.yul\":651:660   */\n      dup7\n        /* \"#utility.yul\":642:649   */\n      dup9\n        /* \"#utility.yul\":638:661   */\n      sub\n        /* \"#utility.yul\":634:667   */\n      slt\n        /* \"#utility.yul\":631:751   */\n      iszero\n      tag_102\n      jumpi\n        /* \"#utility.yul\":670:749   */\n      tag_103\n      tag_99\n      jump\t// in\n    tag_103:\n        /* \"#utility.yul\":631:751   */\n    tag_102:\n        /* \"#utility.yul\":790:791   */\n      0x00\n        /* \"#utility.yul\":815:868   */\n      tag_104\n        /* \"#utility.yul\":860:867   */\n      dup9\n        /* \"#utility.yul\":851:857   */\n      dup3\n        /* \"#utility.yul\":840:849   */\n      dup10\n        /* \"#utility.yul\":836:858   */\n      add\n        /* \"#utility.yul\":815:868   */\n      tag_92\n      jump\t// in\n    tag_104:\n        /* \"#utility.yul\":805:868   */\n      swap6\n      pop\n        /* \"#utility.yul\":761:878   */\n      pop\n        /* \"#utility.yul\":917:919   */\n      0x20\n        /* \"#utility.yul\":943:996   */\n      tag_105\n        /* \"#utility.yul\":988:995   */\n      dup9\n        /* \"#utility.yul\":979:985   */\n      dup3\n        /* \"#utility.yul\":968:977   */\n      dup10\n        /* \"#utility.yul\":964:986   */\n      add\n        /* \"#utility.yul\":943:996   */\n      tag_92\n      jump\t// in\n    tag_105:\n        /* \"#utility.yul\":933:996   */\n      swap5\n      pop\n        /* \"#utility.yul\":888:1006   */\n      pop\n        /* \"#utility.yul\":1045:1047   */\n      0x40\n        /* \"#utility.yul\":1071:1124   */\n      tag_106\n        /* \"#utility.yul\":1116:1123   */\n      dup9\n        /* \"#utility.yul\":1107:1113   */\n      dup3\n        /* \"#utility.yul\":1096:1105   */\n      dup10\n        /* \"#utility.yul\":1092:1114   */\n      add\n        /* \"#utility.yul\":1071:1124   */\n      tag_92\n      jump\t// in\n    tag_106:\n        /* \"#utility.yul\":1061:1124   */\n      swap4\n      pop\n        /* \"#utility.yul\":1016:1134   */\n      pop\n        /* \"#utility.yul\":1173:1175   */\n      0x60\n        /* \"#utility.yul\":1199:1252   */\n      tag_107\n        /* \"#utility.yul\":1244:1251   */\n      dup9\n        /* \"#utility.yul\":1235:1241   */\n      dup3\n        /* \"#utility.yul\":1224:1233   */\n      dup10\n        /* \"#utility.yul\":1220:1242   */\n      add\n        /* \"#utility.yul\":1199:1252   */\n      tag_92\n      jump\t// in\n    tag_107:\n        /* \"#utility.yul\":1189:1252   */\n      swap3\n      pop\n        /* \"#utility.yul\":1144:1262   */\n      pop\n        /* \"#utility.yul\":1301:1304   */\n      0x80\n        /* \"#utility.yul\":1328:1381   */\n      tag_108\n        /* \"#utility.yul\":1373:1380   */\n      dup9\n        /* \"#utility.yul\":1364:1370   */\n      dup3\n        /* \"#utility.yul\":1353:1362   */\n      dup10\n        /* \"#utility.yul\":1349:1371   */\n      add\n        /* \"#utility.yul\":1328:1381   */\n      tag_92\n      jump\t// in\n    tag_108:\n        /* \"#utility.yul\":1318:1381   */\n      swap2\n      pop\n        /* \"#utility.yul\":1272:1391   */\n      pop\n        /* \"#utility.yul\":487:1398   */\n      swap3\n      swap6\n      pop\n      swap3\n      swap6\n      swap1\n      swap4\n      pop\n      jump\t// out\n        /* \"#utility.yul\":1404:1691   */\n    tag_109:\n        /* \"#utility.yul\":1527:1537   */\n      0x00\n        /* \"#utility.yul\":1548:1648   */\n      tag_111\n        /* \"#utility.yul\":1644:1647   */\n      dup4\n        /* \"#utility.yul\":1636:1642   */\n      dup4\n        /* \"#utility.yul\":1548:1648   */\n      tag_112\n      jump\t// in\n    tag_111:\n        /* \"#utility.yul\":1680:1684   */\n      0xc0\n        /* \"#utility.yul\":1675:1678   */\n      dup4\n        /* \"#utility.yul\":1671:1685   */\n      add\n        /* \"#utility.yul\":1657:1685   */\n      swap1\n      pop\n        /* \"#utility.yul\":1404:1691   */\n      swap3\n      swap2\n      pop\n      pop\n      jump\t// out\n        /* \"#utility.yul\":1697:1876   */\n    tag_113:\n        /* \"#utility.yul\":1766:1776   */\n      0x00\n        /* \"#utility.yul\":1787:1833   */\n      tag_115\n        /* \"#utility.yul\":1829:1832   */\n      dup4\n        /* \"#utility.yul\":1821:1827   */\n      dup4\n        /* \"#utility.yul\":1787:1833   */\n      tag_116\n      jump\t// in\n    tag_115:\n        /* \"#utility.yul\":1865:1869   */\n      0x20\n        /* \"#utility.yul\":1860:1863   */\n      dup4\n        /* \"#utility.yul\":1856:1870   */\n      add\n        /* \"#utility.yul\":1842:1870   */\n      swap1\n      pop\n        /* \"#utility.yul\":1697:1876   */\n      swap3\n      swap2\n      pop\n      pop\n      jump\t// out\n        /* \"#utility.yul\":1960:2908   */\n    tag_117:\n        /* \"#utility.yul\":2133:2136   */\n      0x00\n        /* \"#utility.yul\":2162:2243   */\n      tag_119\n        /* \"#utility.yul\":2237:2242   */\n      dup3\n        /* \"#utility.yul\":2162:2243   */\n      tag_120\n      jump\t// in\n    tag_119:\n        /* \"#utility.yul\":2259:2372   */\n      tag_121\n        /* \"#utility.yul\":2365:2371   */\n      dup2\n        /* \"#utility.yul\":2360:2363   */\n      dup6\n        /* \"#utility.yul\":2259:2372   */\n      tag_122\n      jump\t// in\n    tag_121:\n        /* \"#utility.yul\":2252:2372   */\n      swap4\n      pop\n        /* \"#utility.yul\":2396:2479   */\n      tag_123\n        /* \"#utility.yul\":2473:2478   */\n      dup4\n        /* \"#utility.yul\":2396:2479   */\n      tag_124\n      jump\t// in\n    tag_123:\n        /* \"#utility.yul\":2502:2509   */\n      dup1\n        /* \"#utility.yul\":2533:2534   */\n      0x00\n        /* \"#utility.yul\":2518:2883   */\n    tag_125:\n        /* \"#utility.yul\":2543:2549   */\n      dup4\n        /* \"#utility.yul\":2540:2541   */\n      dup2\n        /* \"#utility.yul\":2537:2550   */\n      lt\n        /* \"#utility.yul\":2518:2883   */\n      iszero\n      tag_127\n      jumpi\n        /* \"#utility.yul\":2619:2625   */\n      dup2\n        /* \"#utility.yul\":2613:2626   */\n      mload\n        /* \"#utility.yul\":2646:2763   */\n      tag_128\n        /* \"#utility.yul\":2759:2762   */\n      dup9\n        /* \"#utility.yul\":2744:2757   */\n      dup3\n        /* \"#utility.yul\":2646:2763   */\n      tag_109\n      jump\t// in\n    tag_128:\n        /* \"#utility.yul\":2639:2763   */\n      swap8\n      pop\n        /* \"#utility.yul\":2786:2873   */\n      tag_129\n        /* \"#utility.yul\":2866:2872   */\n      dup4\n        /* \"#utility.yul\":2786:2873   */\n      tag_130\n      jump\t// in\n    tag_129:\n        /* \"#utility.yul\":2776:2873   */\n      swap3\n      pop\n        /* \"#utility.yul\":2578:2883   */\n      pop\n        /* \"#utility.yul\":2565:2566   */\n      0x01\n        /* \"#utility.yul\":2562:2563   */\n      dup2\n        /* \"#utility.yul\":2558:2567   */\n      add\n        /* \"#utility.yul\":2553:2567   */\n      swap1\n      pop\n        /* \"#utility.yul\":2518:2883   */\n      jump(tag_125)\n    tag_127:\n        /* \"#utility.yul\":2522:2536   */\n      pop\n        /* \"#utility.yul\":2899:2902   */\n      dup6\n        /* \"#utility.yul\":2892:2902   */\n      swap4\n      pop\n        /* \"#utility.yul\":2138:2908   */\n      pop\n      pop\n      pop\n        /* \"#utility.yul\":1960:2908   */\n      swap3\n      swap2\n      pop\n      pop\n      jump\t// out\n        /* \"#utility.yul\":2944:3676   */\n    tag_131:\n        /* \"#utility.yul\":3063:3066   */\n      0x00\n        /* \"#utility.yul\":3092:3146   */\n      tag_133\n        /* \"#utility.yul\":3140:3145   */\n      dup3\n        /* \"#utility.yul\":3092:3146   */\n      tag_134\n      jump\t// in\n    tag_133:\n        /* \"#utility.yul\":3162:3248   */\n      tag_135\n        /* \"#utility.yul\":3241:3247   */\n      dup2\n        /* \"#utility.yul\":3236:3239   */\n      dup6\n        /* \"#utility.yul\":3162:3248   */\n      tag_136\n      jump\t// in\n    tag_135:\n        /* \"#utility.yul\":3155:3248   */\n      swap4\n      pop\n        /* \"#utility.yul\":3272:3328   */\n      tag_137\n        /* \"#utility.yul\":3322:3327   */\n      dup4\n        /* \"#utility.yul\":3272:3328   */\n      tag_138\n      jump\t// in\n    tag_137:\n        /* \"#utility.yul\":3351:3358   */\n      dup1\n        /* \"#utility.yul\":3382:3383   */\n      0x00\n        /* \"#utility.yul\":3367:3651   */\n    tag_139:\n        /* \"#utility.yul\":3392:3398   */\n      dup4\n        /* \"#utility.yul\":3389:3390   */\n      dup2\n        /* \"#utility.yul\":3386:3399   */\n      lt\n        /* \"#utility.yul\":3367:3651   */\n      iszero\n      tag_141\n      jumpi\n        /* \"#utility.yul\":3468:3474   */\n      dup2\n        /* \"#utility.yul\":3462:3475   */\n      mload\n        /* \"#utility.yul\":3495:3558   */\n      tag_142\n        /* \"#utility.yul\":3554:3557   */\n      dup9\n        /* \"#utility.yul\":3539:3552   */\n      dup3\n        /* \"#utility.yul\":3495:3558   */\n      tag_113\n      jump\t// in\n    tag_142:\n        /* \"#utility.yul\":3488:3558   */\n      swap8\n      pop\n        /* \"#utility.yul\":3581:3641   */\n      tag_143\n        /* \"#utility.yul\":3634:3640   */\n      dup4\n        /* \"#utility.yul\":3581:3641   */\n      tag_144\n      jump\t// in\n    tag_143:\n        /* \"#utility.yul\":3571:3641   */\n      swap3\n      pop\n        /* \"#utility.yul\":3427:3651   */\n      pop\n        /* \"#utility.yul\":3414:3415   */\n      0x01\n        /* \"#utility.yul\":3411:3412   */\n      dup2\n        /* \"#utility.yul\":3407:3416   */\n      add\n        /* \"#utility.yul\":3402:3416   */\n      swap1\n      pop\n        /* \"#utility.yul\":3367:3651   */\n      jump(tag_139)\n    tag_141:\n        /* \"#utility.yul\":3371:3385   */\n      pop\n        /* \"#utility.yul\":3667:3670   */\n      dup6\n        /* \"#utility.yul\":3660:3670   */\n      swap4\n      pop\n        /* \"#utility.yul\":3068:3676   */\n      pop\n      pop\n      pop\n        /* \"#utility.yul\":2944:3676   */\n      swap3\n      swap2\n      pop\n      pop\n      jump\t// out\n        /* \"#utility.yul\":3756:5001   */\n    tag_112:\n        /* \"#utility.yul\":3897:3901   */\n      0xc0\n        /* \"#utility.yul\":3892:3895   */\n      dup3\n        /* \"#utility.yul\":3888:3902   */\n      add\n        /* \"#utility.yul\":3993:3997   */\n      0x00\n        /* \"#utility.yul\":3986:3991   */\n      dup3\n        /* \"#utility.yul\":3982:3998   */\n      add\n        /* \"#utility.yul\":3976:3999   */\n      mload\n        /* \"#utility.yul\":4012:4075   */\n      tag_146\n        /* \"#utility.yul\":4069:4073   */\n      0x00\n        /* \"#utility.yul\":4064:4067   */\n      dup6\n        /* \"#utility.yul\":4060:4074   */\n      add\n        /* \"#utility.yul\":4046:4058   */\n      dup3\n        /* \"#utility.yul\":4012:4075   */\n      tag_116\n      jump\t// in\n    tag_146:\n        /* \"#utility.yul\":3912:4085   */\n      pop\n        /* \"#utility.yul\":4170:4174   */\n      0x20\n        /* \"#utility.yul\":4163:4168   */\n      dup3\n        /* \"#utility.yul\":4159:4175   */\n      add\n        /* \"#utility.yul\":4153:4176   */\n      mload\n        /* \"#utility.yul\":4189:4252   */\n      tag_147\n        /* \"#utility.yul\":4246:4250   */\n      0x20\n        /* \"#utility.yul\":4241:4244   */\n      dup6\n        /* \"#utility.yul\":4237:4251   */\n      add\n        /* \"#utility.yul\":4223:4235   */\n      dup3\n        /* \"#utility.yul\":4189:4252   */\n      tag_116\n      jump\t// in\n    tag_147:\n        /* \"#utility.yul\":4095:4262   */\n      pop\n        /* \"#utility.yul\":4352:4356   */\n      0x40\n        /* \"#utility.yul\":4345:4350   */\n      dup3\n        /* \"#utility.yul\":4341:4357   */\n      add\n        /* \"#utility.yul\":4335:4358   */\n      mload\n        /* \"#utility.yul\":4371:4434   */\n      tag_148\n        /* \"#utility.yul\":4428:4432   */\n      0x40\n        /* \"#utility.yul\":4423:4426   */\n      dup6\n        /* \"#utility.yul\":4419:4433   */\n      add\n        /* \"#utility.yul\":4405:4417   */\n      dup3\n        /* \"#utility.yul\":4371:4434   */\n      tag_116\n      jump\t// in\n    tag_148:\n        /* \"#utility.yul\":4272:4444   */\n      pop\n        /* \"#utility.yul\":4531:4535   */\n      0x60\n        /* \"#utility.yul\":4524:4529   */\n      dup3\n        /* \"#utility.yul\":4520:4536   */\n      add\n        /* \"#utility.yul\":4514:4537   */\n      mload\n        /* \"#utility.yul\":4550:4613   */\n      tag_149\n        /* \"#utility.yul\":4607:4611   */\n      0x60\n        /* \"#utility.yul\":4602:4605   */\n      dup6\n        /* \"#utility.yul\":4598:4612   */\n      add\n        /* \"#utility.yul\":4584:4596   */\n      dup3\n        /* \"#utility.yul\":4550:4613   */\n      tag_116\n      jump\t// in\n    tag_149:\n        /* \"#utility.yul\":4454:4623   */\n      pop\n        /* \"#utility.yul\":4717:4721   */\n      0x80\n        /* \"#utility.yul\":4710:4715   */\n      dup3\n        /* \"#utility.yul\":4706:4722   */\n      add\n        /* \"#utility.yul\":4700:4723   */\n      mload\n        /* \"#utility.yul\":4736:4799   */\n      tag_150\n        /* \"#utility.yul\":4793:4797   */\n      0x80\n        /* \"#utility.yul\":4788:4791   */\n      dup6\n        /* \"#utility.yul\":4784:4798   */\n      add\n        /* \"#utility.yul\":4770:4782   */\n      dup3\n        /* \"#utility.yul\":4736:4799   */\n      tag_116\n      jump\t// in\n    tag_150:\n        /* \"#utility.yul\":4633:4809   */\n      pop\n        /* \"#utility.yul\":4902:4906   */\n      0xa0\n        /* \"#utility.yul\":4895:4900   */\n      dup3\n        /* \"#utility.yul\":4891:4907   */\n      add\n        /* \"#utility.yul\":4885:4908   */\n      mload\n        /* \"#utility.yul\":4921:4984   */\n      tag_151\n        /* \"#utility.yul\":4978:4982   */\n      0xa0\n        /* \"#utility.yul\":4973:4976   */\n      dup6\n        /* \"#utility.yul\":4969:4983   */\n      add\n        /* \"#utility.yul\":4955:4967   */\n      dup3\n        /* \"#utility.yul\":4921:4984   */\n      tag_116\n      jump\t// in\n    tag_151:\n        /* \"#utility.yul\":4819:4994   */\n      pop\n        /* \"#utility.yul\":3866:5001   */\n      pop\n        /* \"#utility.yul\":3756:5001   */\n      pop\n      pop\n      jump\t// out\n        /* \"#utility.yul\":5081:6336   */\n    tag_152:\n        /* \"#utility.yul\":5232:5236   */\n      0xc0\n        /* \"#utility.yul\":5227:5230   */\n      dup3\n        /* \"#utility.yul\":5223:5237   */\n      add\n        /* \"#utility.yul\":5328:5332   */\n      0x00\n        /* \"#utility.yul\":5321:5326   */\n      dup3\n        /* \"#utility.yul\":5317:5333   */\n      add\n        /* \"#utility.yul\":5311:5334   */\n      mload\n        /* \"#utility.yul\":5347:5410   */\n      tag_154\n        /* \"#utility.yul\":5404:5408   */\n      0x00\n        /* \"#utility.yul\":5399:5402   */\n      dup6\n        /* \"#utility.yul\":5395:5409   */\n      add\n        /* \"#utility.yul\":5381:5393   */\n      dup3\n        /* \"#utility.yul\":5347:5410   */\n      tag_116\n      jump\t// in\n    tag_154:\n        /* \"#utility.yul\":5247:5420   */\n      pop\n        /* \"#utility.yul\":5505:5509   */\n      0x20\n        /* \"#utility.yul\":5498:5503   */\n      dup3\n        /* \"#utility.yul\":5494:5510   */\n      add\n        /* \"#utility.yul\":5488:5511   */\n      mload\n        /* \"#utility.yul\":5524:5587   */\n      tag_155\n        /* \"#utility.yul\":5581:5585   */\n      0x20\n        /* \"#utility.yul\":5576:5579   */\n      dup6\n        /* \"#utility.yul\":5572:5586   */\n      add\n        /* \"#utility.yul\":5558:5570   */\n      dup3\n        /* \"#utility.yul\":5524:5587   */\n      tag_116\n      jump\t// in\n    tag_155:\n        /* \"#utility.yul\":5430:5597   */\n      pop\n        /* \"#utility.yul\":5687:5691   */\n      0x40\n        /* \"#utility.yul\":5680:5685   */\n      dup3\n        /* \"#utility.yul\":5676:5692   */\n      add\n        /* \"#utility.yul\":5670:5693   */\n      mload\n        /* \"#utility.yul\":5706:5769   */\n      tag_156\n        /* \"#utility.yul\":5763:5767   */\n      0x40\n        /* \"#utility.yul\":5758:5761   */\n      dup6\n        /* \"#utility.yul\":5754:5768   */\n      add\n        /* \"#utility.yul\":5740:5752   */\n      dup3\n        /* \"#utility.yul\":5706:5769   */\n      tag_116\n      jump\t// in\n    tag_156:\n        /* \"#utility.yul\":5607:5779   */\n      pop\n        /* \"#utility.yul\":5866:5870   */\n      0x60\n        /* \"#utility.yul\":5859:5864   */\n      dup3\n        /* \"#utility.yul\":5855:5871   */\n      add\n        /* \"#utility.yul\":5849:5872   */\n      mload\n        /* \"#utility.yul\":5885:5948   */\n      tag_157\n        /* \"#utility.yul\":5942:5946   */\n      0x60\n        /* \"#utility.yul\":5937:5940   */\n      dup6\n        /* \"#utility.yul\":5933:5947   */\n      add\n        /* \"#utility.yul\":5919:5931   */\n      dup3\n        /* \"#utility.yul\":5885:5948   */\n      tag_116\n      jump\t// in\n    tag_157:\n        /* \"#utility.yul\":5789:5958   */\n      pop\n        /* \"#utility.yul\":6052:6056   */\n      0x80\n        /* \"#utility.yul\":6045:6050   */\n      dup3\n        /* \"#utility.yul\":6041:6057   */\n      add\n        /* \"#utility.yul\":6035:6058   */\n      mload\n        /* \"#utility.yul\":6071:6134   */\n      tag_158\n        /* \"#utility.yul\":6128:6132   */\n      0x80\n        /* \"#utility.yul\":6123:6126   */\n      dup6\n        /* \"#utility.yul\":6119:6133   */\n      add\n        /* \"#utility.yul\":6105:6117   */\n      dup3\n        /* \"#utility.yul\":6071:6134   */\n      tag_116\n      jump\t// in\n    tag_158:\n        /* \"#utility.yul\":5968:6144   */\n      pop\n        /* \"#utility.yul\":6237:6241   */\n      0xa0\n        /* \"#utility.yul\":6230:6235   */\n      dup3\n        /* \"#utility.yul\":6226:6242   */\n      add\n        /* \"#utility.yul\":6220:6243   */\n      mload\n        /* \"#utility.yul\":6256:6319   */\n      tag_159\n        /* \"#utility.yul\":6313:6317   */\n      0xa0\n        /* \"#utility.yul\":6308:6311   */\n      dup6\n        /* \"#utility.yul\":6304:6318   */\n      add\n        /* \"#utility.yul\":6290:6302   */\n      dup3\n        /* \"#utility.yul\":6256:6319   */\n      tag_116\n      jump\t// in\n    tag_159:\n        /* \"#utility.yul\":6154:6329   */\n      pop\n        /* \"#utility.yul\":5201:6336   */\n      pop\n        /* \"#utility.yul\":5081:6336   */\n      pop\n      pop\n      jump\t// out\n        /* \"#utility.yul\":6342:6450   */\n    tag_116:\n        /* \"#utility.yul\":6419:6443   */\n      tag_161\n        /* \"#utility.yul\":6437:6442   */\n      dup2\n        /* \"#utility.yul\":6419:6443   */\n      tag_162\n      jump\t// in\n    tag_161:\n        /* \"#utility.yul\":6414:6417   */\n      dup3\n        /* \"#utility.yul\":6407:6444   */\n      mstore\n        /* \"#utility.yul\":6342:6450   */\n      pop\n      pop\n      jump\t// out\n        /* \"#utility.yul\":6456:6574   */\n    tag_163:\n        /* \"#utility.yul\":6543:6567   */\n      tag_165\n        /* \"#utility.yul\":6561:6566   */\n      dup2\n        /* \"#utility.yul\":6543:6567   */\n      tag_162\n      jump\t// in\n    tag_165:\n        /* \"#utility.yul\":6538:6541   */\n      dup3\n        /* \"#utility.yul\":6531:6568   */\n      mstore\n        /* \"#utility.yul\":6456:6574   */\n      pop\n      pop\n      jump\t// out\n        /* \"#utility.yul\":6580:7061   */\n    tag_20:\n        /* \"#utility.yul\":6777:6781   */\n      0x00\n        /* \"#utility.yul\":6815:6817   */\n      0x20\n        /* \"#utility.yul\":6804:6813   */\n      dup3\n        /* \"#utility.yul\":6800:6818   */\n      add\n        /* \"#utility.yul\":6792:6818   */\n      swap1\n      pop\n        /* \"#utility.yul\":6864:6873   */\n      dup2\n        /* \"#utility.yul\":6858:6862   */\n      dup2\n        /* \"#utility.yul\":6854:6874   */\n      sub\n        /* \"#utility.yul\":6850:6851   */\n      0x00\n        /* \"#utility.yul\":6839:6848   */\n      dup4\n        /* \"#utility.yul\":6835:6852   */\n      add\n        /* \"#utility.yul\":6828:6875   */\n      mstore\n        /* \"#utility.yul\":6892:7054   */\n      tag_167\n        /* \"#utility.yul\":7049:7053   */\n      dup2\n        /* \"#utility.yul\":7040:7046   */\n      dup5\n        /* \"#utility.yul\":6892:7054   */\n      tag_117\n      jump\t// in\n    tag_167:\n        /* \"#utility.yul\":6884:7054   */\n      swap1\n      pop\n        /* \"#utility.yul\":6580:7061   */\n      swap3\n      swap2\n      pop\n      pop\n      jump\t// out\n        /* \"#utility.yul\":7067:8748   */\n    tag_12:\n        /* \"#utility.yul\":7600:7604   */\n      0x00\n        /* \"#utility.yul\":7638:7641   */\n      0xc0\n        /* \"#utility.yul\":7627:7636   */\n      dup3\n        /* \"#utility.yul\":7623:7642   */\n      add\n        /* \"#utility.yul\":7615:7642   */\n      swap1\n      pop\n        /* \"#utility.yul\":7688:7697   */\n      dup2\n        /* \"#utility.yul\":7682:7686   */\n      dup2\n        /* \"#utility.yul\":7678:7698   */\n      sub\n        /* \"#utility.yul\":7674:7675   */\n      0x00\n        /* \"#utility.yul\":7663:7672   */\n      dup4\n        /* \"#utility.yul\":7659:7676   */\n      add\n        /* \"#utility.yul\":7652:7699   */\n      mstore\n        /* \"#utility.yul\":7716:7824   */\n      tag_169\n        /* \"#utility.yul\":7819:7823   */\n      dup2\n        /* \"#utility.yul\":7810:7816   */\n      dup10\n        /* \"#utility.yul\":7716:7824   */\n      tag_131\n      jump\t// in\n    tag_169:\n        /* \"#utility.yul\":7708:7824   */\n      swap1\n      pop\n        /* \"#utility.yul\":7871:7880   */\n      dup2\n        /* \"#utility.yul\":7865:7869   */\n      dup2\n        /* \"#utility.yul\":7861:7881   */\n      sub\n        /* \"#utility.yul\":7856:7858   */\n      0x20\n        /* \"#utility.yul\":7845:7854   */\n      dup4\n        /* \"#utility.yul\":7841:7859   */\n      add\n        /* \"#utility.yul\":7834:7882   */\n      mstore\n        /* \"#utility.yul\":7899:8007   */\n      tag_170\n        /* \"#utility.yul\":8002:8006   */\n      dup2\n        /* \"#utility.yul\":7993:7999   */\n      dup9\n        /* \"#utility.yul\":7899:8007   */\n      tag_131\n      jump\t// in\n    tag_170:\n        /* \"#utility.yul\":7891:8007   */\n      swap1\n      pop\n        /* \"#utility.yul\":8054:8063   */\n      dup2\n        /* \"#utility.yul\":8048:8052   */\n      dup2\n        /* \"#utility.yul\":8044:8064   */\n      sub\n        /* \"#utility.yul\":8039:8041   */\n      0x40\n        /* \"#utility.yul\":8028:8037   */\n      dup4\n        /* \"#utility.yul\":8024:8042   */\n      add\n        /* \"#utility.yul\":8017:8065   */\n      mstore\n        /* \"#utility.yul\":8082:8190   */\n      tag_171\n        /* \"#utility.yul\":8185:8189   */\n      dup2\n        /* \"#utility.yul\":8176:8182   */\n      dup8\n        /* \"#utility.yul\":8082:8190   */\n      tag_131\n      jump\t// in\n    tag_171:\n        /* \"#utility.yul\":8074:8190   */\n      swap1\n      pop\n        /* \"#utility.yul\":8237:8246   */\n      dup2\n        /* \"#utility.yul\":8231:8235   */\n      dup2\n        /* \"#utility.yul\":8227:8247   */\n      sub\n        /* \"#utility.yul\":8222:8224   */\n      0x60\n        /* \"#utility.yul\":8211:8220   */\n      dup4\n        /* \"#utility.yul\":8207:8225   */\n      add\n        /* \"#utility.yul\":8200:8248   */\n      mstore\n        /* \"#utility.yul\":8265:8373   */\n      tag_172\n        /* \"#utility.yul\":8368:8372   */\n      dup2\n        /* \"#utility.yul\":8359:8365   */\n      dup7\n        /* \"#utility.yul\":8265:8373   */\n      tag_131\n      jump\t// in\n    tag_172:\n        /* \"#utility.yul\":8257:8373   */\n      swap1\n      pop\n        /* \"#utility.yul\":8421:8430   */\n      dup2\n        /* \"#utility.yul\":8415:8419   */\n      dup2\n        /* \"#utility.yul\":8411:8431   */\n      sub\n        /* \"#utility.yul\":8405:8408   */\n      0x80\n        /* \"#utility.yul\":8394:8403   */\n      dup4\n        /* \"#utility.yul\":8390:8409   */\n      add\n        /* \"#utility.yul\":8383:8432   */\n      mstore\n        /* \"#utility.yul\":8449:8557   */\n      tag_173\n        /* \"#utility.yul\":8552:8556   */\n      dup2\n        /* \"#utility.yul\":8543:8549   */\n      dup6\n        /* \"#utility.yul\":8449:8557   */\n      tag_131\n      jump\t// in\n    tag_173:\n        /* \"#utility.yul\":8441:8557   */\n      swap1\n      pop\n        /* \"#utility.yul\":8605:8614   */\n      dup2\n        /* \"#utility.yul\":8599:8603   */\n      dup2\n        /* \"#utility.yul\":8595:8615   */\n      sub\n        /* \"#utility.yul\":8589:8592   */\n      0xa0\n        /* \"#utility.yul\":8578:8587   */\n      dup4\n        /* \"#utility.yul\":8574:8593   */\n      add\n        /* \"#utility.yul\":8567:8616   */\n      mstore\n        /* \"#utility.yul\":8633:8741   */\n      tag_174\n        /* \"#utility.yul\":8736:8740   */\n      dup2\n        /* \"#utility.yul\":8727:8733   */\n      dup5\n        /* \"#utility.yul\":8633:8741   */\n      tag_131\n      jump\t// in\n    tag_174:\n        /* \"#utility.yul\":8625:8741   */\n      swap1\n      pop\n        /* \"#utility.yul\":7067:8748   */\n      swap8\n      swap7\n      pop\n      pop\n      pop\n      pop\n      pop\n      pop\n      pop\n      jump\t// out\n        /* \"#utility.yul\":8754:9085   */\n    tag_26:\n        /* \"#utility.yul\":8901:8905   */\n      0x00\n        /* \"#utility.yul\":8939:8942   */\n      0xc0\n        /* \"#utility.yul\":8928:8937   */\n      dup3\n        /* \"#utility.yul\":8924:8943   */\n      add\n        /* \"#utility.yul\":8916:8943   */\n      swap1\n      pop\n        /* \"#utility.yul\":8953:9078   */\n      tag_176\n        /* \"#utility.yul\":9075:9076   */\n      0x00\n        /* \"#utility.yul\":9064:9073   */\n      dup4\n        /* \"#utility.yul\":9060:9077   */\n      add\n        /* \"#utility.yul\":9051:9057   */\n      dup5\n        /* \"#utility.yul\":8953:9078   */\n      tag_152\n      jump\t// in\n    tag_176:\n        /* \"#utility.yul\":8754:9085   */\n      swap3\n      swap2\n      pop\n      pop\n      jump\t// out\n        /* \"#utility.yul\":9091:9313   */\n    tag_35:\n        /* \"#utility.yul\":9184:9188   */\n      0x00\n        /* \"#utility.yul\":9222:9224   */\n      0x20\n        /* \"#utility.yul\":9211:9220   */\n      dup3\n        /* \"#utility.yul\":9207:9225   */\n      add\n        /* \"#utility.yul\":9199:9225   */\n      swap1\n      pop\n        /* \"#utility.yul\":9235:9306   */\n      tag_178\n        /* \"#utility.yul\":9303:9304   */\n      0x00\n        /* \"#utility.yul\":9292:9301   */\n      dup4\n        /* \"#utility.yul\":9288:9305   */\n      add\n        /* \"#utility.yul\":9279:9285   */\n      dup5\n        /* \"#utility.yul\":9235:9306   */\n      tag_163\n      jump\t// in\n    tag_178:\n        /* \"#utility.yul\":9091:9313   */\n      swap3\n      swap2\n      pop\n      pop\n      jump\t// out\n        /* \"#utility.yul\":9319:10094   */\n    tag_31:\n        /* \"#utility.yul\":9552:9556   */\n      0x00\n        /* \"#utility.yul\":9590:9593   */\n      0xc0\n        /* \"#utility.yul\":9579:9588   */\n      dup3\n        /* \"#utility.yul\":9575:9594   */\n      add\n        /* \"#utility.yul\":9567:9594   */\n      swap1\n      pop\n        /* \"#utility.yul\":9604:9675   */\n      tag_180\n        /* \"#utility.yul\":9672:9673   */\n      0x00\n        /* \"#utility.yul\":9661:9670   */\n      dup4\n        /* \"#utility.yul\":9657:9674   */\n      add\n        /* \"#utility.yul\":9648:9654   */\n      dup10\n        /* \"#utility.yul\":9604:9675   */\n      tag_163\n      jump\t// in\n    tag_180:\n        /* \"#utility.yul\":9685:9757   */\n      tag_181\n        /* \"#utility.yul\":9753:9755   */\n      0x20\n        /* \"#utility.yul\":9742:9751   */\n      dup4\n        /* \"#utility.yul\":9738:9756   */\n      add\n        /* \"#utility.yul\":9729:9735   */\n      dup9\n        /* \"#utility.yul\":9685:9757   */\n      tag_163\n      jump\t// in\n    tag_181:\n        /* \"#utility.yul\":9767:9839   */\n      tag_182\n        /* \"#utility.yul\":9835:9837   */\n      0x40\n        /* \"#utility.yul\":9824:9833   */\n      dup4\n        /* \"#utility.yul\":9820:9838   */\n      add\n        /* \"#utility.yul\":9811:9817   */\n      dup8\n        /* \"#utility.yul\":9767:9839   */\n      tag_163\n      jump\t// in\n    tag_182:\n        /* \"#utility.yul\":9849:9921   */\n      tag_183\n        /* \"#utility.yul\":9917:9919   */\n      0x60\n        /* \"#utility.yul\":9906:9915   */\n      dup4\n        /* \"#utility.yul\":9902:9920   */\n      add\n        /* \"#utility.yul\":9893:9899   */\n      dup7\n        /* \"#utility.yul\":9849:9921   */\n      tag_163\n      jump\t// in\n    tag_183:\n        /* \"#utility.yul\":9931:10004   */\n      tag_184\n        /* \"#utility.yul\":9999:10002   */\n      0x80\n        /* \"#utility.yul\":9988:9997   */\n      dup4\n        /* \"#utility.yul\":9984:10003   */\n      add\n        /* \"#utility.yul\":9975:9981   */\n      dup6\n        /* \"#utility.yul\":9931:10004   */\n      tag_163\n      jump\t// in\n    tag_184:\n        /* \"#utility.yul\":10014:10087   */\n      tag_185\n        /* \"#utility.yul\":10082:10085   */\n      0xa0\n        /* \"#utility.yul\":10071:10080   */\n      dup4\n        /* \"#utility.yul\":10067:10086   */\n      add\n        /* \"#utility.yul\":10058:10064   */\n      dup5\n        /* \"#utility.yul\":10014:10087   */\n      tag_163\n      jump\t// in\n    tag_185:\n        /* \"#utility.yul\":9319:10094   */\n      swap8\n      swap7\n      pop\n      pop\n      pop\n      pop\n      pop\n      pop\n      pop\n      jump\t// out\n        /* \"#utility.yul\":10181:10340   */\n    tag_124:\n        /* \"#utility.yul\":10275:10279   */\n      0x00\n        /* \"#utility.yul\":10298:10301   */\n      dup2\n        /* \"#utility.yul\":10290:10301   */\n      swap1\n      pop\n        /* \"#utility.yul\":10328:10332   */\n      0x20\n        /* \"#utility.yul\":10323:10326   */\n      dup3\n        /* \"#utility.yul\":10319:10333   */\n      add\n        /* \"#utility.yul\":10311:10333   */\n      swap1\n      pop\n        /* \"#utility.yul\":10181:10340   */\n      swap2\n      swap1\n      pop\n      jump\t// out\n        /* \"#utility.yul\":10346:10478   */\n    tag_138:\n        /* \"#utility.yul\":10413:10417   */\n      0x00\n        /* \"#utility.yul\":10436:10439   */\n      dup2\n        /* \"#utility.yul\":10428:10439   */\n      swap1\n      pop\n        /* \"#utility.yul\":10466:10470   */\n      0x20\n        /* \"#utility.yul\":10461:10464   */\n      dup3\n        /* \"#utility.yul\":10457:10471   */\n      add\n        /* \"#utility.yul\":10449:10471   */\n      swap1\n      pop\n        /* \"#utility.yul\":10346:10478   */\n      swap2\n      swap1\n      pop\n      jump\t// out\n        /* \"#utility.yul\":10484:10625   */\n    tag_120:\n        /* \"#utility.yul\":10578:10584   */\n      0x00\n        /* \"#utility.yul\":10612:10617   */\n      dup2\n        /* \"#utility.yul\":10606:10618   */\n      mload\n        /* \"#utility.yul\":10596:10618   */\n      swap1\n      pop\n        /* \"#utility.yul\":10484:10625   */\n      swap2\n      swap1\n      pop\n      jump\t// out\n        /* \"#utility.yul\":10631:10745   */\n    tag_134:\n        /* \"#utility.yul\":10698:10704   */\n      0x00\n        /* \"#utility.yul\":10732:10737   */\n      dup2\n        /* \"#utility.yul\":10726:10738   */\n      mload\n        /* \"#utility.yul\":10716:10738   */\n      swap1\n      pop\n        /* \"#utility.yul\":10631:10745   */\n      swap2\n      swap1\n      pop\n      jump\t// out\n        /* \"#utility.yul\":10751:10891   */\n    tag_130:\n        /* \"#utility.yul\":10848:10852   */\n      0x00\n        /* \"#utility.yul\":10880:10884   */\n      0x20\n        /* \"#utility.yul\":10875:10878   */\n      dup3\n        /* \"#utility.yul\":10871:10885   */\n      add\n        /* \"#utility.yul\":10863:10885   */\n      swap1\n      pop\n        /* \"#utility.yul\":10751:10891   */\n      swap2\n      swap1\n      pop\n      jump\t// out\n        /* \"#utility.yul\":10897:11010   */\n    tag_144:\n        /* \"#utility.yul\":10967:10971   */\n      0x00\n        /* \"#utility.yul\":10999:11003   */\n      0x20\n        /* \"#utility.yul\":10994:10997   */\n      dup3\n        /* \"#utility.yul\":10990:11004   */\n      add\n        /* \"#utility.yul\":10982:11004   */\n      swap1\n      pop\n        /* \"#utility.yul\":10897:11010   */\n      swap2\n      swap1\n      pop\n      jump\t// out\n        /* \"#utility.yul\":11016:11227   */\n    tag_122:\n        /* \"#utility.yul\":11142:11153   */\n      0x00\n        /* \"#utility.yul\":11176:11182   */\n      dup3\n        /* \"#utility.yul\":11171:11174   */\n      dup3\n        /* \"#utility.yul\":11164:11183   */\n      mstore\n        /* \"#utility.yul\":11216:11220   */\n      0x20\n        /* \"#utility.yul\":11211:11214   */\n      dup3\n        /* \"#utility.yul\":11207:11221   */\n      add\n        /* \"#utility.yul\":11192:11221   */\n      swap1\n      pop\n        /* \"#utility.yul\":11016:11227   */\n      swap3\n      swap2\n      pop\n      pop\n      jump\t// out\n        /* \"#utility.yul\":11233:11417   */\n    tag_136:\n        /* \"#utility.yul\":11332:11343   */\n      0x00\n        /* \"#utility.yul\":11366:11372   */\n      dup3\n        /* \"#utility.yul\":11361:11364   */\n      dup3\n        /* \"#utility.yul\":11354:11373   */\n      mstore\n        /* \"#utility.yul\":11406:11410   */\n      0x20\n        /* \"#utility.yul\":11401:11404   */\n      dup3\n        /* \"#utility.yul\":11397:11411   */\n      add\n        /* \"#utility.yul\":11382:11411   */\n      swap1\n      pop\n        /* \"#utility.yul\":11233:11417   */\n      swap3\n      swap2\n      pop\n      pop\n      jump\t// out\n        /* \"#utility.yul\":11423:11500   */\n    tag_162:\n        /* \"#utility.yul\":11460:11467   */\n      0x00\n        /* \"#utility.yul\":11489:11494   */\n      dup2\n        /* \"#utility.yul\":11478:11494   */\n      swap1\n      pop\n        /* \"#utility.yul\":11423:11500   */\n      swap2\n      swap1\n      pop\n      jump\t// out\n        /* \"#utility.yul\":11506:11739   */\n    tag_73:\n        /* \"#utility.yul\":11545:11548   */\n      0x00\n        /* \"#utility.yul\":11568:11592   */\n      tag_198\n        /* \"#utility.yul\":11586:11591   */\n      dup3\n        /* \"#utility.yul\":11568:11592   */\n      tag_162\n      jump\t// in\n    tag_198:\n        /* \"#utility.yul\":11559:11592   */\n      swap2\n      pop\n        /* \"#utility.yul\":11614:11680   */\n      0xffffffffffffffffffffffffffffffffffffffffffffffffffffffffffffffff\n        /* \"#utility.yul\":11607:11612   */\n      dup3\n        /* \"#utility.yul\":11604:11681   */\n      eq\n        /* \"#utility.yul\":11601:11704   */\n      iszero\n      tag_199\n      jumpi\n        /* \"#utility.yul\":11684:11702   */\n      tag_200\n      tag_201\n      jump\t// in\n    tag_200:\n        /* \"#utility.yul\":11601:11704   */\n    tag_199:\n        /* \"#utility.yul\":11731:11732   */\n      0x01\n        /* \"#utility.yul\":11724:11729   */\n      dup3\n        /* \"#utility.yul\":11720:11733   */\n      add\n        /* \"#utility.yul\":11713:11733   */\n      swap1\n      pop\n        /* \"#utility.yul\":11506:11739   */\n      swap2\n      swap1\n      pop\n      jump\t// out\n        /* \"#utility.yul\":11745:11925   */\n    tag_201:\n        /* \"#utility.yul\":11793:11870   */\n      0x4e487b7100000000000000000000000000000000000000000000000000000000\n        /* \"#utility.yul\":11790:11791   */\n      0x00\n        /* \"#utility.yul\":11783:11871   */\n      mstore\n        /* \"#utility.yul\":11890:11894   */\n      0x11\n        /* \"#utility.yul\":11887:11888   */\n      0x04\n        /* \"#utility.yul\":11880:11895   */\n      mstore\n        /* \"#utility.yul\":11914:11918   */\n      0x24\n        /* \"#utility.yul\":11911:11912   */\n      0x00\n        /* \"#utility.yul\":11904:11919   */\n      revert\n        /* \"#utility.yul\":11931:12111   */\n    tag_61:\n        /* \"#utility.yul\":11979:12056   */\n      0x4e487b7100000000000000000000000000000000000000000000000000000000\n        /* \"#utility.yul\":11976:11977   */\n      0x00\n        /* \"#utility.yul\":11969:12057   */\n      mstore\n        /* \"#utility.yul\":12076:12080   */\n      0x32\n        /* \"#utility.yul\":12073:12074   */\n      0x04\n        /* \"#utility.yul\":12066:12081   */\n      mstore\n        /* \"#utility.yul\":12100:12104   */\n      0x24\n        /* \"#utility.yul\":12097:12098   */\n      0x00\n        /* \"#utility.yul\":12090:12105   */\n      revert\n        /* \"#utility.yul\":12117:12297   */\n    tag_39:\n        /* \"#utility.yul\":12165:12242   */\n      0x4e487b7100000000000000000000000000000000000000000000000000000000\n        /* \"#utility.yul\":12162:12163   */\n      0x00\n        /* \"#utility.yul\":12155:12243   */\n      mstore\n        /* \"#utility.yul\":12262:12266   */\n      0x41\n        /* \"#utility.yul\":12259:12260   */\n      0x04\n        /* \"#utility.yul\":12252:12267   */\n      mstore\n        /* \"#utility.yul\":12286:12290   */\n      0x24\n        /* \"#utility.yul\":12283:12284   */\n      0x00\n        /* \"#utility.yul\":12276:12291   */\n      revert\n        /* \"#utility.yul\":12426:12543   */\n    tag_99:\n        /* \"#utility.yul\":12535:12536   */\n      0x00\n        /* \"#utility.yul\":12532:12533   */\n      dup1\n        /* \"#utility.yul\":12525:12537   */\n      revert\n        /* \"#utility.yul\":12549:12671   */\n    tag_95:\n        /* \"#utility.yul\":12622:12646   */\n      tag_209\n        /* \"#utility.yul\":12640:12645   */\n      dup2\n        /* \"#utility.yul\":12622:12646   */\n      tag_162\n      jump\t// in\n    tag_209:\n        /* \"#utility.yul\":12615:12620   */\n      dup2\n        /* \"#utility.yul\":12612:12647   */\n      eq\n        /* \"#utility.yul\":12602:12665   */\n      tag_210\n      jumpi\n        /* \"#utility.yul\":12661:12662   */\n      0x00\n        /* \"#utility.yul\":12658:12659   */\n      dup1\n        /* \"#utility.yul\":12651:12663   */\n      revert\n        /* \"#utility.yul\":12602:12665   */\n    tag_210:\n        /* \"#utility.yul\":12549:12671   */\n      pop\n      jump\t// out\n\n    auxdata: 0xa26469706673582212200478b2e1a4c7ddc14204f76bc26c6166677e4a280d0fbbf53f26b93c5e45cca964736f6c63430008070033\n}\n",
				"bytecode": {
					"linkReferences": {},
					"object": "608060405234801561001057600080fd5b506000600181905550610c81806100286000396000f3fe608060405234801561001057600080fd5b50600436106100625760003560e01c806359705f8114610067578063634e1a291461008a57806383920e90146100a65780639507d39a146100c45780639ace38c2146100f4578063fd99a74614610129575b600080fd5b61006f610147565b604051610081969594939291906109bb565b60405180910390f35b6100a4600480360381019061009f919061071e565b61045a565b005b6100ae6104fb565b6040516100bb9190610999565b60405180910390f35b6100de60048036038101906100d991906106f1565b6105fc565b6040516100eb9190610a46565b60405180910390f35b61010e600480360381019061010991906106f1565b610664565b60405161012096959493929190610a7c565b60405180910390f35b6101316106a0565b60405161013e9190610a61565b60405180910390f35b606080606080606080600060015467ffffffffffffffff81111561016e5761016d610c00565b5b60405190808252806020026020018201604052801561019c5781602001602082028036833780820191505090505b509050600060015467ffffffffffffffff8111156101bd576101bc610c00565b5b6040519080825280602002602001820160405280156101eb5781602001602082028036833780820191505090505b509050600060015467ffffffffffffffff81111561020c5761020b610c00565b5b60405190808252806020026020018201604052801561023a5781602001602082028036833780820191505090505b509050600060015467ffffffffffffffff81111561025b5761025a610c00565b5b6040519080825280602002602001820160405280156102895781602001602082028036833780820191505090505b509050600060015467ffffffffffffffff8111156102aa576102a9610c00565b5b6040519080825280602002602001820160405280156102d85781602001602082028036833780820191505090505b509050600060015467ffffffffffffffff8111156102f9576102f8610c00565b5b6040519080825280602002602001820160405280156103275781602001602082028036833780820191505090505b50905060005b6001548110156104395760008060008381526020019081526020016000209050806001015488838151811061036557610364610bd1565b5b602002602001018181525050806000015487838151811061038957610388610bd1565b5b60200260200101818152505080600401548483815181106103ad576103ac610bd1565b5b60200260200101818152505080600501548383815181106103d1576103d0610bd1565b5b60200260200101818152505080600201548683815181106103f5576103f4610bd1565b5b602002602001018181525050806003015485838151811061041957610418610bd1565b5b60200260200101818152505050808061043190610b59565b91505061032d565b508585838387879b509b509b509b509b509b50505050505050909192939495565b6040518060c001604052806001548152602001868152602001858152602001848152602001838152602001828152506000806001548152602001908152602001600020600082015181600001556020820151816001015560408201518160020155606082015181600301556080820151816004015560a08201518160050155905050600160008154809291906104ef90610b59565b91905055505050505050565b6060600060015467ffffffffffffffff81111561051b5761051a610c00565b5b60405190808252806020026020018201604052801561055457816020015b6105416106a6565b8152602001906001900390816105395790505b50905060005b6001548110156105f45760008060008381526020019081526020016000209050806040518060c001604052908160008201548152602001600182015481526020016002820154815260200160038201548152602001600482015481526020016005820154815250508383815181106105d5576105d4610bd1565b5b60200260200101819052505080806105ec90610b59565b91505061055a565b508091505090565b6106046106a6565b6000808381526020019081526020016000206040518060c001604052908160008201548152602001600182015481526020016002820154815260200160038201548152602001600482015481526020016005820154815250509050919050565b60006020528060005260406000206000915090508060000154908060010154908060020154908060030154908060040154908060050154905086565b60015481565b6040518060c001604052806000815260200160008152602001600081526020016000815260200160008152602001600081525090565b6000813590506106eb81610c34565b92915050565b60006020828403121561070757610706610c2f565b5b6000610715848285016106dc565b91505092915050565b600080600080600060a0868803121561073a57610739610c2f565b5b6000610748888289016106dc565b9550506020610759888289016106dc565b945050604061076a888289016106dc565b935050606061077b888289016106dc565b925050608061078c888289016106dc565b9150509295509295909350565b60006107a58383610885565b60c08301905092915050565b60006107bd838361097b565b60208301905092915050565b60006107d482610afd565b6107de8185610b2d565b93506107e983610add565b8060005b8381101561081a5781516108018882610799565b975061080c83610b13565b9250506001810190506107ed565b5085935050505092915050565b600061083282610b08565b61083c8185610b3e565b935061084783610aed565b8060005b8381101561087857815161085f88826107b1565b975061086a83610b20565b92505060018101905061084b565b5085935050505092915050565b60c08201600082015161089b600085018261097b565b5060208201516108ae602085018261097b565b5060408201516108c1604085018261097b565b5060608201516108d4606085018261097b565b5060808201516108e7608085018261097b565b5060a08201516108fa60a085018261097b565b50505050565b60c082016000820151610916600085018261097b565b506020820151610929602085018261097b565b50604082015161093c604085018261097b565b50606082015161094f606085018261097b565b506080820151610962608085018261097b565b5060a082015161097560a085018261097b565b50505050565b61098481610b4f565b82525050565b61099381610b4f565b82525050565b600060208201905081810360008301526109b381846107c9565b905092915050565b600060c08201905081810360008301526109d58189610827565b905081810360208301526109e98188610827565b905081810360408301526109fd8187610827565b90508181036060830152610a118186610827565b90508181036080830152610a258185610827565b905081810360a0830152610a398184610827565b9050979650505050505050565b600060c082019050610a5b6000830184610900565b92915050565b6000602082019050610a76600083018461098a565b92915050565b600060c082019050610a91600083018961098a565b610a9e602083018861098a565b610aab604083018761098a565b610ab8606083018661098a565b610ac5608083018561098a565b610ad260a083018461098a565b979650505050505050565b6000819050602082019050919050565b6000819050602082019050919050565b600081519050919050565b600081519050919050565b6000602082019050919050565b6000602082019050919050565b600082825260208201905092915050565b600082825260208201905092915050565b6000819050919050565b6000610b6482610b4f565b91507fffffffffffffffffffffffffffffffffffffffffffffffffffffffffffffffff821415610b9757610b96610ba2565b5b600182019050919050565b7f4e487b7100000000000000000000000000000000000000000000000000000000600052601160045260246000fd5b7f4e487b7100000000000000000000000000000000000000000000000000000000600052603260045260246000fd5b7f4e487b7100000000000000000000000000000000000000000000000000000000600052604160045260246000fd5b600080fd5b610c3d81610b4f565b8114610c4857600080fd5b5056fea26469706673582212200478b2e1a4c7ddc14204f76bc26c6166677e4a280d0fbbf53f26b93c5e45cca964736f6c63430008070033",
					"opcodes": "PUSH1 0x80 PUSH1 0x40 MSTORE CALLVALUE DUP1 ISZERO PUSH2 0x10 JUMPI PUSH1 0x0 DUP1 REVERT JUMPDEST POP PUSH1 0x0 PUSH1 0x1 DUP2 SWAP1 SSTORE POP PUSH2 0xC81 DUP1 PUSH2 0x28 PUSH1 0x0 CODECOPY PUSH1 0x0 RETURN INVALID PUSH1 0x80 PUSH1 0x40 MSTORE CALLVALUE DUP1 ISZERO PUSH2 0x10 JUMPI PUSH1 0x0 DUP1 REVERT JUMPDEST POP PUSH1 0x4 CALLDATASIZE LT PUSH2 0x62 JUMPI PUSH1 0x0 CALLDATALOAD PUSH1 0xE0 SHR DUP1 PUSH4 0x59705F81 EQ PUSH2 0x67 JUMPI DUP1 PUSH4 0x634E1A29 EQ PUSH2 0x8A JUMPI DUP1 PUSH4 0x83920E90 EQ PUSH2 0xA6 JUMPI DUP1 PUSH4 0x9507D39A EQ PUSH2 0xC4 JUMPI DUP1 PUSH4 0x9ACE38C2 EQ PUSH2 0xF4 JUMPI DUP1 PUSH4 0xFD99A746 EQ PUSH2 0x129 JUMPI JUMPDEST PUSH1 0x0 DUP1 REVERT JUMPDEST PUSH2 0x6F PUSH2 0x147 JUMP JUMPDEST PUSH1 0x40 MLOAD PUSH2 0x81 SWAP7 SWAP6 SWAP5 SWAP4 SWAP3 SWAP2 SWAP1 PUSH2 0x9BB JUMP JUMPDEST PUSH1 0x40 MLOAD DUP1 SWAP2 SUB SWAP1 RETURN JUMPDEST PUSH2 0xA4 PUSH1 0x4 DUP1 CALLDATASIZE SUB DUP2 ADD SWAP1 PUSH2 0x9F SWAP2 SWAP1 PUSH2 0x71E JUMP JUMPDEST PUSH2 0x45A JUMP JUMPDEST STOP JUMPDEST PUSH2 0xAE PUSH2 0x4FB JUMP JUMPDEST PUSH1 0x40 MLOAD PUSH2 0xBB SWAP2 SWAP1 PUSH2 0x999 JUMP JUMPDEST PUSH1 0x40 MLOAD DUP1 SWAP2 SUB SWAP1 RETURN JUMPDEST PUSH2 0xDE PUSH1 0x4 DUP1 CALLDATASIZE SUB DUP2 ADD SWAP1 PUSH2 0xD9 SWAP2 SWAP1 PUSH2 0x6F1 JUMP JUMPDEST PUSH2 0x5FC JUMP JUMPDEST PUSH1 0x40 MLOAD PUSH2 0xEB SWAP2 SWAP1 PUSH2 0xA46 JUMP JUMPDEST PUSH1 0x40 MLOAD DUP1 SWAP2 SUB SWAP1 RETURN JUMPDEST PUSH2 0x10E PUSH1 0x4 DUP1 CALLDATASIZE SUB DUP2 ADD SWAP1 PUSH2 0x109 SWAP2 SWAP1 PUSH2 0x6F1 JUMP JUMPDEST PUSH2 0x664 JUMP JUMPDEST PUSH1 0x40 MLOAD PUSH2 0x120 SWAP7 SWAP6 SWAP5 SWAP4 SWAP3 SWAP2 SWAP1 PUSH2 0xA7C JUMP JUMPDEST PUSH1 0x40 MLOAD DUP1 SWAP2 SUB SWAP1 RETURN JUMPDEST PUSH2 0x131 PUSH2 0x6A0 JUMP JUMPDEST PUSH1 0x40 MLOAD PUSH2 0x13E SWAP2 SWAP1 PUSH2 0xA61 JUMP JUMPDEST PUSH1 0x40 MLOAD DUP1 SWAP2 SUB SWAP1 RETURN JUMPDEST PUSH1 0x60 DUP1 PUSH1 0x60 DUP1 PUSH1 0x60 DUP1 PUSH1 0x0 PUSH1 0x1 SLOAD PUSH8 0xFFFFFFFFFFFFFFFF DUP2 GT ISZERO PUSH2 0x16E JUMPI PUSH2 0x16D PUSH2 0xC00 JUMP JUMPDEST JUMPDEST PUSH1 0x40 MLOAD SWAP1 DUP1 DUP3 MSTORE DUP1 PUSH1 0x20 MUL PUSH1 0x20 ADD DUP3 ADD PUSH1 0x40 MSTORE DUP1 ISZERO PUSH2 0x19C JUMPI DUP2 PUSH1 0x20 ADD PUSH1 0x20 DUP3 MUL DUP1 CALLDATASIZE DUP4 CALLDATACOPY DUP1 DUP3 ADD SWAP2 POP POP SWAP1 POP JUMPDEST POP SWAP1 POP PUSH1 0x0 PUSH1 0x1 SLOAD PUSH8 0xFFFFFFFFFFFFFFFF DUP2 GT ISZERO PUSH2 0x1BD JUMPI PUSH2 0x1BC PUSH2 0xC00 JUMP JUMPDEST JUMPDEST PUSH1 0x40 MLOAD SWAP1 DUP1 DUP3 MSTORE DUP1 PUSH1 0x20 MUL PUSH1 0x20 ADD DUP3 ADD PUSH1 0x40 MSTORE DUP1 ISZERO PUSH2 0x1EB JUMPI DUP2 PUSH1 0x20 ADD PUSH1 0x20 DUP3 MUL DUP1 CALLDATASIZE DUP4 CALLDATACOPY DUP1 DUP3 ADD SWAP2 POP POP SWAP1 POP JUMPDEST POP SWAP1 POP PUSH1 0x0 PUSH1 0x1 SLOAD PUSH8 0xFFFFFFFFFFFFFFFF DUP2 GT ISZERO PUSH2 0x20C JUMPI PUSH2 0x20B PUSH2 0xC00 JUMP JUMPDEST JUMPDEST PUSH1 0x40 MLOAD SWAP1 DUP1 DUP3 MSTORE DUP1 PUSH1 0x20 MUL PUSH1 0x20 ADD DUP3 ADD PUSH1 0x40 MSTORE DUP1 ISZERO PUSH2 0x23A JUMPI DUP2 PUSH1 0x20 ADD PUSH1 0x20 DUP3 MUL DUP1 CALLDATASIZE DUP4 CALLDATACOPY DUP1 DUP3 ADD SWAP2 POP POP SWAP1 POP JUMPDEST POP SWAP1 POP PUSH1 0x0 PUSH1 0x1 SLOAD PUSH8 0xFFFFFFFFFFFFFFFF DUP2 GT ISZERO PUSH2 0x25B JUMPI PUSH2 0x25A PUSH2 0xC00 JUMP JUMPDEST JUMPDEST PUSH1 0x40 MLOAD SWAP1 DUP1 DUP3 MSTORE DUP1 PUSH1 0x20 MUL PUSH1 0x20 ADD DUP3 ADD PUSH1 0x40 MSTORE DUP1 ISZERO PUSH2 0x289 JUMPI DUP2 PUSH1 0x20 ADD PUSH1 0x20 DUP3 MUL DUP1 CALLDATASIZE DUP4 CALLDATACOPY DUP1 DUP3 ADD SWAP2 POP POP SWAP1 POP JUMPDEST POP SWAP1 POP PUSH1 0x0 PUSH1 0x1 SLOAD PUSH8 0xFFFFFFFFFFFFFFFF DUP2 GT ISZERO PUSH2 0x2AA JUMPI PUSH2 0x2A9 PUSH2 0xC00 JUMP JUMPDEST JUMPDEST PUSH1 0x40 MLOAD SWAP1 DUP1 DUP3 MSTORE DUP1 PUSH1 0x20 MUL PUSH1 0x20 ADD DUP3 ADD PUSH1 0x40 MSTORE DUP1 ISZERO PUSH2 0x2D8 JUMPI DUP2 PUSH1 0x20 ADD PUSH1 0x20 DUP3 MUL DUP1 CALLDATASIZE DUP4 CALLDATACOPY DUP1 DUP3 ADD SWAP2 POP POP SWAP1 POP JUMPDEST POP SWAP1 POP PUSH1 0x0 PUSH1 0x1 SLOAD PUSH8 0xFFFFFFFFFFFFFFFF DUP2 GT ISZERO PUSH2 0x2F9 JUMPI PUSH2 0x2F8 PUSH2 0xC00 JUMP JUMPDEST JUMPDEST PUSH1 0x40 MLOAD SWAP1 DUP1 DUP3 MSTORE DUP1 PUSH1 0x20 MUL PUSH1 0x20 ADD DUP3 ADD PUSH1 0x40 MSTORE DUP1 ISZERO PUSH2 0x327 JUMPI DUP2 PUSH1 0x20 ADD PUSH1 0x20 DUP3 MUL DUP1 CALLDATASIZE DUP4 CALLDATACOPY DUP1 DUP3 ADD SWAP2 POP POP SWAP1 POP JUMPDEST POP SWAP1 POP PUSH1 0x0 JUMPDEST PUSH1 0x1 SLOAD DUP2 LT ISZERO PUSH2 0x439 JUMPI PUSH1 0x0 DUP1 PUSH1 0x0 DUP4 DUP2 MSTORE PUSH1 0x20 ADD SWAP1 DUP2 MSTORE PUSH1 0x20 ADD PUSH1 0x0 KECCAK256 SWAP1 POP DUP1 PUSH1 0x1 ADD SLOAD DUP9 DUP4 DUP2 MLOAD DUP2 LT PUSH2 0x365 JUMPI PUSH2 0x364 PUSH2 0xBD1 JUMP JUMPDEST JUMPDEST PUSH1 0x20 MUL PUSH1 0x20 ADD ADD DUP2 DUP2 MSTORE POP POP DUP1 PUSH1 0x0 ADD SLOAD DUP8 DUP4 DUP2 MLOAD DUP2 LT PUSH2 0x389 JUMPI PUSH2 0x388 PUSH2 0xBD1 JUMP JUMPDEST JUMPDEST PUSH1 0x20 MUL PUSH1 0x20 ADD ADD DUP2 DUP2 MSTORE POP POP DUP1 PUSH1 0x4 ADD SLOAD DUP5 DUP4 DUP2 MLOAD DUP2 LT PUSH2 0x3AD JUMPI PUSH2 0x3AC PUSH2 0xBD1 JUMP JUMPDEST JUMPDEST PUSH1 0x20 MUL PUSH1 0x20 ADD ADD DUP2 DUP2 MSTORE POP POP DUP1 PUSH1 0x5 ADD SLOAD DUP4 DUP4 DUP2 MLOAD DUP2 LT PUSH2 0x3D1 JUMPI PUSH2 0x3D0 PUSH2 0xBD1 JUMP JUMPDEST JUMPDEST PUSH1 0x20 MUL PUSH1 0x20 ADD ADD DUP2 DUP2 MSTORE POP POP DUP1 PUSH1 0x2 ADD SLOAD DUP7 DUP4 DUP2 MLOAD DUP2 LT PUSH2 0x3F5 JUMPI PUSH2 0x3F4 PUSH2 0xBD1 JUMP JUMPDEST JUMPDEST PUSH1 0x20 MUL PUSH1 0x20 ADD ADD DUP2 DUP2 MSTORE POP POP DUP1 PUSH1 0x3 ADD SLOAD DUP6 DUP4 DUP2 MLOAD DUP2 LT PUSH2 0x419 JUMPI PUSH2 0x418 PUSH2 0xBD1 JUMP JUMPDEST JUMPDEST PUSH1 0x20 MUL PUSH1 0x20 ADD ADD DUP2 DUP2 MSTORE POP POP POP DUP1 DUP1 PUSH2 0x431 SWAP1 PUSH2 0xB59 JUMP JUMPDEST SWAP2 POP POP PUSH2 0x32D JUMP JUMPDEST POP DUP6 DUP6 DUP4 DUP4 DUP8 DUP8 SWAP12 POP SWAP12 POP SWAP12 POP SWAP12 POP SWAP12 POP SWAP12 POP POP POP POP POP POP POP SWAP1 SWAP2 SWAP3 SWAP4 SWAP5 SWAP6 JUMP JUMPDEST PUSH1 0x40 MLOAD DUP1 PUSH1 0xC0 ADD PUSH1 0x40 MSTORE DUP1 PUSH1 0x1 SLOAD DUP2 MSTORE PUSH1 0x20 ADD DUP7 DUP2 MSTORE PUSH1 0x20 ADD DUP6 DUP2 MSTORE PUSH1 0x20 ADD DUP5 DUP2 MSTORE PUSH1 0x20 ADD DUP4 DUP2 MSTORE PUSH1 0x20 ADD DUP3 DUP2 MSTORE POP PUSH1 0x0 DUP1 PUSH1 0x1 SLOAD DUP2 MSTORE PUSH1 0x20 ADD SWAP1 DUP2 MSTORE PUSH1 0x20 ADD PUSH1 0x0 KECCAK256 PUSH1 0x0 DUP3 ADD MLOAD DUP2 PUSH1 0x0 ADD SSTORE PUSH1 0x20 DUP3 ADD MLOAD DUP2 PUSH1 0x1 ADD SSTORE PUSH1 0x40 DUP3 ADD MLOAD DUP2 PUSH1 0x2 ADD SSTORE PUSH1 0x60 DUP3 ADD MLOAD DUP2 PUSH1 0x3 ADD SSTORE PUSH1 0x80 DUP3 ADD MLOAD DUP2 PUSH1 0x4 ADD SSTORE PUSH1 0xA0 DUP3 ADD MLOAD DUP2 PUSH1 0x5 ADD SSTORE SWAP1 POP POP PUSH1 0x1 PUSH1 0x0 DUP2 SLOAD DUP1 SWAP3 SWAP2 SWAP1 PUSH2 0x4EF SWAP1 PUSH2 0xB59 JUMP JUMPDEST SWAP2 SWAP1 POP SSTORE POP POP POP POP POP POP JUMP JUMPDEST PUSH1 0x60 PUSH1 0x0 PUSH1 0x1 SLOAD PUSH8 0xFFFFFFFFFFFFFFFF DUP2 GT ISZERO PUSH2 0x51B JUMPI PUSH2 0x51A PUSH2 0xC00 JUMP JUMPDEST JUMPDEST PUSH1 0x40 MLOAD SWAP1 DUP1 DUP3 MSTORE DUP1 PUSH1 0x20 MUL PUSH1 0x20 ADD DUP3 ADD PUSH1 0x40 MSTORE DUP1 ISZERO PUSH2 0x554 JUMPI DUP2 PUSH1 0x20 ADD JUMPDEST PUSH2 0x541 PUSH2 0x6A6 JUMP JUMPDEST DUP2 MSTORE PUSH1 0x20 ADD SWAP1 PUSH1 0x1 SWAP1 SUB SWAP1 DUP2 PUSH2 0x539 JUMPI SWAP1 POP JUMPDEST POP SWAP1 POP PUSH1 0x0 JUMPDEST PUSH1 0x1 SLOAD DUP2 LT ISZERO PUSH2 0x5F4 JUMPI PUSH1 0x0 DUP1 PUSH1 0x0 DUP4 DUP2 MSTORE PUSH1 0x20 ADD SWAP1 DUP2 MSTORE PUSH1 0x20 ADD PUSH1 0x0 KECCAK256 SWAP1 POP DUP1 PUSH1 0x40 MLOAD DUP1 PUSH1 0xC0 ADD PUSH1 0x40 MSTORE SWAP1 DUP2 PUSH1 0x0 DUP3 ADD SLOAD DUP2 MSTORE PUSH1 0x20 ADD PUSH1 0x1 DUP3 ADD SLOAD DUP2 MSTORE PUSH1 0x20 ADD PUSH1 0x2 DUP3 ADD SLOAD DUP2 MSTORE PUSH1 0x20 ADD PUSH1 0x3 DUP3 ADD SLOAD DUP2 MSTORE PUSH1 0x20 ADD PUSH1 0x4 DUP3 ADD SLOAD DUP2 MSTORE PUSH1 0x20 ADD PUSH1 0x5 DUP3 ADD SLOAD DUP2 MSTORE POP POP DUP4 DUP4 DUP2 MLOAD DUP2 LT PUSH2 0x5D5 JUMPI PUSH2 0x5D4 PUSH2 0xBD1 JUMP JUMPDEST JUMPDEST PUSH1 0x20 MUL PUSH1 0x20 ADD ADD DUP2 SWAP1 MSTORE POP POP DUP1 DUP1 PUSH2 0x5EC SWAP1 PUSH2 0xB59 JUMP JUMPDEST SWAP2 POP POP PUSH2 0x55A JUMP JUMPDEST POP DUP1 SWAP2 POP POP SWAP1 JUMP JUMPDEST PUSH2 0x604 PUSH2 0x6A6 JUMP JUMPDEST PUSH1 0x0 DUP1 DUP4 DUP2 MSTORE PUSH1 0x20 ADD SWAP1 DUP2 MSTORE PUSH1 0x20 ADD PUSH1 0x0 KECCAK256 PUSH1 0x40 MLOAD DUP1 PUSH1 0xC0 ADD PUSH1 0x40 MSTORE SWAP1 DUP2 PUSH1 0x0 DUP3 ADD SLOAD DUP2 MSTORE PUSH1 0x20 ADD PUSH1 0x1 DUP3 ADD SLOAD DUP2 MSTORE PUSH1 0x20 ADD PUSH1 0x2 DUP3 ADD SLOAD DUP2 MSTORE PUSH1 0x20 ADD PUSH1 0x3 DUP3 ADD SLOAD DUP2 MSTORE PUSH1 0x20 ADD PUSH1 0x4 DUP3 ADD SLOAD DUP2 MSTORE PUSH1 0x20 ADD PUSH1 0x5 DUP3 ADD SLOAD DUP2 MSTORE POP POP SWAP1 POP SWAP2 SWAP1 POP JUMP JUMPDEST PUSH1 0x0 PUSH1 0x20 MSTORE DUP1 PUSH1 0x0 MSTORE PUSH1 0x40 PUSH1 0x0 KECCAK256 PUSH1 0x0 SWAP2 POP SWAP1 POP DUP1 PUSH1 0x0 ADD SLOAD SWAP1 DUP1 PUSH1 0x1 ADD SLOAD SWAP1 DUP1 PUSH1 0x2 ADD SLOAD SWAP1 DUP1 PUSH1 0x3 ADD SLOAD SWAP1 DUP1 PUSH1 0x4 ADD SLOAD SWAP1 DUP1 PUSH1 0x5 ADD SLOAD SWAP1 POP DUP7 JUMP JUMPDEST PUSH1 0x1 SLOAD DUP2 JUMP JUMPDEST PUSH1 0x40 MLOAD DUP1 PUSH1 0xC0 ADD PUSH1 0x40 MSTORE DUP1 PUSH1 0x0 DUP2 MSTORE PUSH1 0x20 ADD PUSH1 0x0 DUP2 MSTORE PUSH1 0x20 ADD PUSH1 0x0 DUP2 MSTORE PUSH1 0x20 ADD PUSH1 0x0 DUP2 MSTORE PUSH1 0x20 ADD PUSH1 0x0 DUP2 MSTORE PUSH1 0x20 ADD PUSH1 0x0 DUP2 MSTORE POP SWAP1 JUMP JUMPDEST PUSH1 0x0 DUP2 CALLDATALOAD SWAP1 POP PUSH2 0x6EB DUP2 PUSH2 0xC34 JUMP JUMPDEST SWAP3 SWAP2 POP POP JUMP JUMPDEST PUSH1 0x0 PUSH1 0x20 DUP3 DUP5 SUB SLT ISZERO PUSH2 0x707 JUMPI PUSH2 0x706 PUSH2 0xC2F JUMP JUMPDEST JUMPDEST PUSH1 0x0 PUSH2 0x715 DUP5 DUP3 DUP6 ADD PUSH2 0x6DC JUMP JUMPDEST SWAP2 POP POP SWAP3 SWAP2 POP POP JUMP JUMPDEST PUSH1 0x0 DUP1 PUSH1 0x0 DUP1 PUSH1 0x0 PUSH1 0xA0 DUP7 DUP9 SUB SLT ISZERO PUSH2 0x73A JUMPI PUSH2 0x739 PUSH2 0xC2F JUMP JUMPDEST JUMPDEST PUSH1 0x0 PUSH2 0x748 DUP9 DUP3 DUP10 ADD PUSH2 0x6DC JUMP JUMPDEST SWAP6 POP POP PUSH1 0x20 PUSH2 0x759 DUP9 DUP3 DUP10 ADD PUSH2 0x6DC JUMP JUMPDEST SWAP5 POP POP PUSH1 0x40 PUSH2 0x76A DUP9 DUP3 DUP10 ADD PUSH2 0x6DC JUMP JUMPDEST SWAP4 POP POP PUSH1 0x60 PUSH2 0x77B DUP9 DUP3 DUP10 ADD PUSH2 0x6DC JUMP JUMPDEST SWAP3 POP POP PUSH1 0x80 PUSH2 0x78C DUP9 DUP3 DUP10 ADD PUSH2 0x6DC JUMP JUMPDEST SWAP2 POP POP SWAP3 SWAP6 POP SWAP3 SWAP6 SWAP1 SWAP4 POP JUMP JUMPDEST PUSH1 0x0 PUSH2 0x7A5 DUP4 DUP4 PUSH2 0x885 JUMP JUMPDEST PUSH1 0xC0 DUP4 ADD SWAP1 POP SWAP3 SWAP2 POP POP JUMP JUMPDEST PUSH1 0x0 PUSH2 0x7BD DUP4 DUP4 PUSH2 0x97B JUMP JUMPDEST PUSH1 0x20 DUP4 ADD SWAP1 POP SWAP3 SWAP2 POP POP JUMP JUMPDEST PUSH1 0x0 PUSH2 0x7D4 DUP3 PUSH2 0xAFD JUMP JUMPDEST PUSH2 0x7DE DUP2 DUP6 PUSH2 0xB2D JUMP JUMPDEST SWAP4 POP PUSH2 0x7E9 DUP4 PUSH2 0xADD JUMP JUMPDEST DUP1 PUSH1 0x0 JUMPDEST DUP4 DUP2 LT ISZERO PUSH2 0x81A JUMPI DUP2 MLOAD PUSH2 0x801 DUP9 DUP3 PUSH2 0x799 JUMP JUMPDEST SWAP8 POP PUSH2 0x80C DUP4 PUSH2 0xB13 JUMP JUMPDEST SWAP3 POP POP PUSH1 0x1 DUP2 ADD SWAP1 POP PUSH2 0x7ED JUMP JUMPDEST POP DUP6 SWAP4 POP POP POP POP SWAP3 SWAP2 POP POP JUMP JUMPDEST PUSH1 0x0 PUSH2 0x832 DUP3 PUSH2 0xB08 JUMP JUMPDEST PUSH2 0x83C DUP2 DUP6 PUSH2 0xB3E JUMP JUMPDEST SWAP4 POP PUSH2 0x847 DUP4 PUSH2 0xAED JUMP JUMPDEST DUP1 PUSH1 0x0 JUMPDEST DUP4 DUP2 LT ISZERO PUSH2 0x878 JUMPI DUP2 MLOAD PUSH2 0x85F DUP9 DUP3 PUSH2 0x7B1 JUMP JUMPDEST SWAP8 POP PUSH2 0x86A DUP4 PUSH2 0xB20 JUMP JUMPDEST SWAP3 POP POP PUSH1 0x1 DUP2 ADD SWAP1 POP PUSH2 0x84B JUMP JUMPDEST POP DUP6 SWAP4 POP POP POP POP SWAP3 SWAP2 POP POP JUMP JUMPDEST PUSH1 0xC0 DUP3 ADD PUSH1 0x0 DUP3 ADD MLOAD PUSH2 0x89B PUSH1 0x0 DUP6 ADD DUP3 PUSH2 0x97B JUMP JUMPDEST POP PUSH1 0x20 DUP3 ADD MLOAD PUSH2 0x8AE PUSH1 0x20 DUP6 ADD DUP3 PUSH2 0x97B JUMP JUMPDEST POP PUSH1 0x40 DUP3 ADD MLOAD PUSH2 0x8C1 PUSH1 0x40 DUP6 ADD DUP3 PUSH2 0x97B JUMP JUMPDEST POP PUSH1 0x60 DUP3 ADD MLOAD PUSH2 0x8D4 PUSH1 0x60 DUP6 ADD DUP3 PUSH2 0x97B JUMP JUMPDEST POP PUSH1 0x80 DUP3 ADD MLOAD PUSH2 0x8E7 PUSH1 0x80 DUP6 ADD DUP3 PUSH2 0x97B JUMP JUMPDEST POP PUSH1 0xA0 DUP3 ADD MLOAD PUSH2 0x8FA PUSH1 0xA0 DUP6 ADD DUP3 PUSH2 0x97B JUMP JUMPDEST POP POP POP POP JUMP JUMPDEST PUSH1 0xC0 DUP3 ADD PUSH1 0x0 DUP3 ADD MLOAD PUSH2 0x916 PUSH1 0x0 DUP6 ADD DUP3 PUSH2 0x97B JUMP JUMPDEST POP PUSH1 0x20 DUP3 ADD MLOAD PUSH2 0x929 PUSH1 0x20 DUP6 ADD DUP3 PUSH2 0x97B JUMP JUMPDEST POP PUSH1 0x40 DUP3 ADD MLOAD PUSH2 0x93C PUSH1 0x40 DUP6 ADD DUP3 PUSH2 0x97B JUMP JUMPDEST POP PUSH1 0x60 DUP3 ADD MLOAD PUSH2 0x94F PUSH1 0x60 DUP6 ADD DUP3 PUSH2 0x97B JUMP JUMPDEST POP PUSH1 0x80 DUP3 ADD MLOAD PUSH2 0x962 PUSH1 0x80 DUP6 ADD DUP3 PUSH2 0x97B JUMP JUMPDEST POP PUSH1 0xA0 DUP3 ADD MLOAD PUSH2 0x975 PUSH1 0xA0 DUP6 ADD DUP3 PUSH2 0x97B JUMP JUMPDEST POP POP POP POP JUMP JUMPDEST PUSH2 0x984 DUP2 PUSH2 0xB4F JUMP JUMPDEST DUP3 MSTORE POP POP JUMP JUMPDEST PUSH2 0x993 DUP2 PUSH2 0xB4F JUMP JUMPDEST DUP3 MSTORE POP POP JUMP JUMPDEST PUSH1 0x0 PUSH1 0x20 DUP3 ADD SWAP1 POP DUP2 DUP2 SUB PUSH1 0x0 DUP4 ADD MSTORE PUSH2 0x9B3 DUP2 DUP5 PUSH2 0x7C9 JUMP JUMPDEST SWAP1 POP SWAP3 SWAP2 POP POP JUMP JUMPDEST PUSH1 0x0 PUSH1 0xC0 DUP3 ADD SWAP1 POP DUP2 DUP2 SUB PUSH1 0x0 DUP4 ADD MSTORE PUSH2 0x9D5 DUP2 DUP10 PUSH2 0x827 JUMP JUMPDEST SWAP1 POP DUP2 DUP2 SUB PUSH1 0x20 DUP4 ADD MSTORE PUSH2 0x9E9 DUP2 DUP9 PUSH2 0x827 JUMP JUMPDEST SWAP1 POP DUP2 DUP2 SUB PUSH1 0x40 DUP4 ADD MSTORE PUSH2 0x9FD DUP2 DUP8 PUSH2 0x827 JUMP JUMPDEST SWAP1 POP DUP2 DUP2 SUB PUSH1 0x60 DUP4 ADD MSTORE PUSH2 0xA11 DUP2 DUP7 PUSH2 0x827 JUMP JUMPDEST SWAP1 POP DUP2 DUP2 SUB PUSH1 0x80 DUP4 ADD MSTORE PUSH2 0xA25 DUP2 DUP6 PUSH2 0x827 JUMP JUMPDEST SWAP1 POP DUP2 DUP2 SUB PUSH1 0xA0 DUP4 ADD MSTORE PUSH2 0xA39 DUP2 DUP5 PUSH2 0x827 JUMP JUMPDEST SWAP1 POP SWAP8 SWAP7 POP POP POP POP POP POP POP JUMP JUMPDEST PUSH1 0x0 PUSH1 0xC0 DUP3 ADD SWAP1 POP PUSH2 0xA5B PUSH1 0x0 DUP4 ADD DUP5 PUSH2 0x900 JUMP JUMPDEST SWAP3 SWAP2 POP POP JUMP JUMPDEST PUSH1 0x0 PUSH1 0x20 DUP3 ADD SWAP1 POP PUSH2 0xA76 PUSH1 0x0 DUP4 ADD DUP5 PUSH2 0x98A JUMP JUMPDEST SWAP3 SWAP2 POP POP JUMP JUMPDEST PUSH1 0x0 PUSH1 0xC0 DUP3 ADD SWAP1 POP PUSH2 0xA91 PUSH1 0x0 DUP4 ADD DUP10 PUSH2 0x98A JUMP JUMPDEST PUSH2 0xA9E PUSH1 0x20 DUP4 ADD DUP9 PUSH2 0x98A JUMP JUMPDEST PUSH2 0xAAB PUSH1 0x40 DUP4 ADD DUP8 PUSH2 0x98A JUMP JUMPDEST PUSH2 0xAB8 PUSH1 0x60 DUP4 ADD DUP7 PUSH2 0x98A JUMP JUMPDEST PUSH2 0xAC5 PUSH1 0x80 DUP4 ADD DUP6 PUSH2 0x98A JUMP JUMPDEST PUSH2 0xAD2 PUSH1 0xA0 DUP4 ADD DUP5 PUSH2 0x98A JUMP JUMPDEST SWAP8 SWAP7 POP POP POP POP POP POP POP JUMP JUMPDEST PUSH1 0x0 DUP2 SWAP1 POP PUSH1 0x20 DUP3 ADD SWAP1 POP SWAP2 SWAP1 POP JUMP JUMPDEST PUSH1 0x0 DUP2 SWAP1 POP PUSH1 0x20 DUP3 ADD SWAP1 POP SWAP2 SWAP1 POP JUMP JUMPDEST PUSH1 0x0 DUP2 MLOAD SWAP1 POP SWAP2 SWAP1 POP JUMP JUMPDEST PUSH1 0x0 DUP2 MLOAD SWAP1 POP SWAP2 SWAP1 POP JUMP JUMPDEST PUSH1 0x0 PUSH1 0x20 DUP3 ADD SWAP1 POP SWAP2 SWAP1 POP JUMP JUMPDEST PUSH1 0x0 PUSH1 0x20 DUP3 ADD SWAP1 POP SWAP2 SWAP1 POP JUMP JUMPDEST PUSH1 0x0 DUP3 DUP3 MSTORE PUSH1 0x20 DUP3 ADD SWAP1 POP SWAP3 SWAP2 POP POP JUMP JUMPDEST PUSH1 0x0 DUP3 DUP3 MSTORE PUSH1 0x20 DUP3 ADD SWAP1 POP SWAP3 SWAP2 POP POP JUMP JUMPDEST PUSH1 0x0 DUP2 SWAP1 POP SWAP2 SWAP1 POP JUMP JUMPDEST PUSH1 0x0 PUSH2 0xB64 DUP3 PUSH2 0xB4F JUMP JUMPDEST SWAP2 POP PUSH32 0xFFFFFFFFFFFFFFFFFFFFFFFFFFFFFFFFFFFFFFFFFFFFFFFFFFFFFFFFFFFFFFFF DUP3 EQ ISZERO PUSH2 0xB97 JUMPI PUSH2 0xB96 PUSH2 0xBA2 JUMP JUMPDEST JUMPDEST PUSH1 0x1 DUP3 ADD SWAP1 POP SWAP2 SWAP1 POP JUMP JUMPDEST PUSH32 0x4E487B7100000000000000000000000000000000000000000000000000000000 PUSH1 0x0 MSTORE PUSH1 0x11 PUSH1 0x4 MSTORE PUSH1 0x24 PUSH1 0x0 REVERT JUMPDEST PUSH32 0x4E487B7100000000000000000000000000000000000000000000000000000000 PUSH1 0x0 MSTORE PUSH1 0x32 PUSH1 0x4 MSTORE PUSH1 0x24 PUSH1 0x0 REVERT JUMPDEST PUSH32 0x4E487B7100000000000000000000000000000000000000000000000000000000 PUSH1 0x0 MSTORE PUSH1 0x41 PUSH1 0x4 MSTORE PUSH1 0x24 PUSH1 0x0 REVERT JUMPDEST PUSH1 0x0 DUP1 REVERT JUMPDEST PUSH2 0xC3D DUP2 PUSH2 0xB4F JUMP JUMPDEST DUP2 EQ PUSH2 0xC48 JUMPI PUSH1 0x0 DUP1 REVERT JUMPDEST POP JUMP INVALID LOG2 PUSH5 0x6970667358 0x22 SLT KECCAK256 DIV PUSH25 0xB2E1A4C7DDC14204F76BC26C6166677E4A280D0FBBF53F26B9 EXTCODECOPY 0x5E GASLIMIT 0xCC 0xA9 PUSH5 0x736F6C6343 STOP ADDMOD SMOD STOP CALLER "
				},
				"gasEstimates": {
					"creation": {
						"codeDepositCost": "640200",
						"executionCost": "5690",
						"totalCost": "645890"
					},
					"external": {
						"addTransaction(uint256,uint256,uint256,uint256,uint256)": "infinite",
						"get(uint256)": "infinite",
						"getTransaction()": "infinite",
						"getTransactions()": "infinite",
						"transactions(uint256)": "infinite",
						"transactionsCount()": "2517"
					}
				},
				"methodIdentifiers": {
					"addTransaction(uint256,uint256,uint256,uint256,uint256)": "634e1a29",
					"get(uint256)": "9507d39a",
					"getTransaction()": "59705f81",
					"getTransactions()": "83920e90",
					"transactions(uint256)": "9ace38c2",
					"transactionsCount()": "fd99a746"
				}
			},
			"storageLayout": {
				"storage": [
					{
						"astId": 19,
						"contract": "contracts/Transaction.sol:Transactions",
						"label": "transactions",
						"offset": 0,
						"slot": "0",
						"type": "t_mapping(t_uint256,t_struct(Transaction)14_storage)"
					},
					{
						"astId": 21,
						"contract": "contracts/Transaction.sol:Transactions",
						"label": "transactionsCount",
						"offset": 0,
						"slot": "1",
						"type": "t_uint256"
					}
				],
				"types": {
					"t_mapping(t_uint256,t_struct(Transaction)14_storage)": {
						"encoding": "mapping",
						"key": "t_uint256",
						"label": "mapping(uint256 => struct Transactions.Transaction)",
						"numberOfBytes": "32",
						"value": "t_struct(Transaction)14_storage"
					},
					"t_struct(Transaction)14_storage": {
						"encoding": "inplace",
						"label": "struct Transactions.Transaction",
						"members": [
							{
								"astId": 3,
								"contract": "contracts/Transaction.sol:Transactions",
								"label": "TransactionID",
								"offset": 0,
								"slot": "0",
								"type": "t_uint256"
							},
							{
								"astId": 5,
								"contract": "contracts/Transaction.sol:Transactions",
								"label": "PatchNo",
								"offset": 0,
								"slot": "1",
								"type": "t_uint256"
							},
							{
								"astId": 7,
								"contract": "contracts/Transaction.sol:Transactions",
								"label": "CurrentOwner",
								"offset": 0,
								"slot": "2",
								"type": "t_uint256"
							},
							{
								"astId": 9,
								"contract": "contracts/Transaction.sol:Transactions",
								"label": "FromOwner",
								"offset": 0,
								"slot": "3",
								"type": "t_uint256"
							},
							{
								"astId": 11,
								"contract": "contracts/Transaction.sol:Transactions",
								"label": "TransferedAmount",
								"offset": 0,
								"slot": "4",
								"type": "t_uint256"
							},
							{
								"astId": 13,
								"contract": "contracts/Transaction.sol:Transactions",
								"label": "TransactionDate",
								"offset": 0,
								"slot": "5",
								"type": "t_uint256"
							}
						],
						"numberOfBytes": "192"
					},
					"t_uint256": {
						"encoding": "inplace",
						"label": "uint256",
						"numberOfBytes": "32"
					}
				}
			},
			"userdoc": {
				"kind": "user",
				"methods": {},
				"version": 1
			}
		}
	}
}