{
	"contracts/Utils.sol": {
		"Utils": {
			"abi": [
				{
					"inputs": [
						{
							"internalType": "enum Utils.UserRoles",
							"name": "_role",
							"type": "uint8"
						}
					],
					"name": "GetUsersByType",
					"outputs": [
						{
							"components": [
								{
									"internalType": "string",
									"name": "UserID",
									"type": "string"
								},
								{
									"internalType": "string",
									"name": "UserName",
									"type": "string"
								},
								{
									"internalType": "enum Utils.UserRoles",
									"name": "UserRole",
									"type": "uint8"
								},
								{
									"internalType": "enum Utils.Statuses",
									"name": "UserStatus",
									"type": "uint8"
								},
								{
									"internalType": "uint256",
									"name": "Latitude",
									"type": "uint256"
								},
								{
									"internalType": "uint256",
									"name": "Longitude",
									"type": "uint256"
								},
								{
									"internalType": "address",
									"name": "UserAddress",
									"type": "address"
								}
							],
							"internalType": "struct Utils.User[]",
							"name": "filteredUsers",
							"type": "tuple[]"
						}
					],
					"stateMutability": "view",
					"type": "function"
				},
				{
					"inputs": [
						{
							"internalType": "string",
							"name": "_regno",
							"type": "string"
						}
					],
					"name": "ReadDrug",
					"outputs": [
						{
							"components": [
								{
									"internalType": "string",
									"name": "DrugName",
									"type": "string"
								},
								{
									"internalType": "address",
									"name": "Manufacturer",
									"type": "address"
								},
								{
									"internalType": "enum Utils.Statuses",
									"name": "DrugStatus",
									"type": "uint8"
								}
							],
							"internalType": "struct Utils.Drug",
							"name": "",
							"type": "tuple"
						}
					],
					"stateMutability": "view",
					"type": "function"
				},
				{
					"inputs": [
						{
							"internalType": "address",
							"name": "_address",
							"type": "address"
						}
					],
					"name": "ReadUser",
					"outputs": [
						{
							"components": [
								{
									"internalType": "string",
									"name": "UserID",
									"type": "string"
								},
								{
									"internalType": "string",
									"name": "UserName",
									"type": "string"
								},
								{
									"internalType": "enum Utils.UserRoles",
									"name": "UserRole",
									"type": "uint8"
								},
								{
									"internalType": "enum Utils.Statuses",
									"name": "UserStatus",
									"type": "uint8"
								},
								{
									"internalType": "uint256",
									"name": "Latitude",
									"type": "uint256"
								},
								{
									"internalType": "uint256",
									"name": "Longitude",
									"type": "uint256"
								},
								{
									"internalType": "address",
									"name": "UserAddress",
									"type": "address"
								}
							],
							"internalType": "struct Utils.User",
							"name": "",
							"type": "tuple"
						}
					],
					"stateMutability": "view",
					"type": "function"
				},
				{
					"inputs": [
						{
							"internalType": "string",
							"name": "s1",
							"type": "string"
						},
						{
							"internalType": "string",
							"name": "s2",
							"type": "string"
						}
					],
					"name": "compareStringsbyBytes",
					"outputs": [
						{
							"internalType": "bool",
							"name": "",
							"type": "bool"
						}
					],
					"stateMutability": "pure",
					"type": "function"
				}
			],
			"devdoc": {
				"kind": "dev",
				"methods": {},
				"version": 1
			},
			"evm": {
				"assembly": "    /* \"contracts/Utils.sol\":95:2204  contract Utils {... */\n  mstore(0x40, 0x80)\n  callvalue\n  dup1\n  iszero\n  tag_1\n  jumpi\n  0x00\n  dup1\n  revert\ntag_1:\n  pop\n  dataSize(sub_0)\n  dup1\n  dataOffset(sub_0)\n  0x00\n  codecopy\n  0x00\n  return\nstop\n\nsub_0: assembly {\n        /* \"contracts/Utils.sol\":95:2204  contract Utils {... */\n      mstore(0x40, 0x80)\n      callvalue\n      dup1\n      iszero\n      tag_1\n      jumpi\n      0x00\n      dup1\n      revert\n    tag_1:\n      pop\n      jumpi(tag_2, lt(calldatasize, 0x04))\n      shr(0xe0, calldataload(0x00))\n      dup1\n      0x0f9de977\n      eq\n      tag_3\n      jumpi\n      dup1\n      0xcd1720d1\n      eq\n      tag_4\n      jumpi\n      dup1\n      0xcdf7e73d\n      eq\n      tag_5\n      jumpi\n      dup1\n      0xe9a734ff\n      eq\n      tag_6\n      jumpi\n    tag_2:\n      0x00\n      dup1\n      revert\n        /* \"contracts/Utils.sol\":1024:1680  function GetUsersByType(UserRoles _role)... */\n    tag_3:\n      tag_7\n      0x04\n      dup1\n      calldatasize\n      sub\n      dup2\n      add\n      swap1\n      tag_8\n      swap2\n      swap1\n      tag_9\n      jump\t// in\n    tag_8:\n      tag_10\n      jump\t// in\n    tag_7:\n      mload(0x40)\n      tag_11\n      swap2\n      swap1\n      tag_12\n      jump\t// in\n    tag_11:\n      mload(0x40)\n      dup1\n      swap2\n      sub\n      swap1\n      return\n        /* \"contracts/Utils.sol\":896:1018  function ReadUser(address _address) public view returns (User memory) {... */\n    tag_4:\n      tag_13\n      0x04\n      dup1\n      calldatasize\n      sub\n      dup2\n      add\n      swap1\n      tag_14\n      swap2\n      swap1\n      tag_15\n      jump\t// in\n    tag_14:\n      tag_16\n      jump\t// in\n    tag_13:\n      mload(0x40)\n      tag_17\n      swap2\n      swap1\n      tag_18\n      jump\t// in\n    tag_17:\n      mload(0x40)\n      dup1\n      swap2\n      sub\n      swap1\n      return\n        /* \"contracts/Utils.sol\":2074:2196  function ReadDrug(string memory _regno) public view returns (Drug memory) {... */\n    tag_5:\n      tag_19\n      0x04\n      dup1\n      calldatasize\n      sub\n      dup2\n      add\n      swap1\n      tag_20\n      swap2\n      swap1\n      tag_21\n      jump\t// in\n    tag_20:\n      tag_22\n      jump\t// in\n    tag_19:\n      mload(0x40)\n      tag_23\n      swap2\n      swap1\n      tag_24\n      jump\t// in\n    tag_23:\n      mload(0x40)\n      dup1\n      swap2\n      sub\n      swap1\n      return\n        /* \"contracts/Utils.sol\":203:427  function compareStringsbyBytes(string memory s1, string memory s2)... */\n    tag_6:\n      tag_25\n      0x04\n      dup1\n      calldatasize\n      sub\n      dup2\n      add\n      swap1\n      tag_26\n      swap2\n      swap1\n      tag_27\n      jump\t// in\n    tag_26:\n      tag_28\n      jump\t// in\n    tag_25:\n      mload(0x40)\n      tag_29\n      swap2\n      swap1\n      tag_30\n      jump\t// in\n    tag_29:\n      mload(0x40)\n      dup1\n      swap2\n      sub\n      swap1\n      return\n        /* \"contracts/Utils.sol\":1024:1680  function GetUsersByType(UserRoles _role)... */\n    tag_10:\n        /* \"contracts/Utils.sol\":1110:1137  User[] memory filteredUsers */\n      0x60\n        /* \"contracts/Utils.sol\":1153:1171  uint256 usersCount */\n      0x00\n        /* \"contracts/Utils.sol\":1174:1188  UsersAddresses */\n      0x01\n        /* \"contracts/Utils.sol\":1174:1195  UsersAddresses.length */\n      dup1\n      sload\n      swap1\n      pop\n        /* \"contracts/Utils.sol\":1153:1195  uint256 usersCount = UsersAddresses.length */\n      swap1\n      pop\n        /* \"contracts/Utils.sol\":1205:1228  User[] memory usersTemp */\n      0x00\n        /* \"contracts/Utils.sol\":1242:1252  usersCount */\n      dup2\n        /* \"contracts/Utils.sol\":1231:1253  new User[](usersCount) */\n      0xffffffffffffffff\n      dup2\n      gt\n      iszero\n      tag_32\n      jumpi\n      tag_33\n      tag_34\n      jump\t// in\n    tag_33:\n    tag_32:\n      mload(0x40)\n      swap1\n      dup1\n      dup3\n      mstore\n      dup1\n      0x20\n      mul\n      0x20\n      add\n      dup3\n      add\n      0x40\n      mstore\n      dup1\n      iszero\n      tag_35\n      jumpi\n      dup2\n      0x20\n      add\n    tag_36:\n      tag_37\n      tag_38\n      jump\t// in\n    tag_37:\n      dup2\n      mstore\n      0x20\n      add\n      swap1\n      0x01\n      swap1\n      sub\n      swap1\n      dup2\n      tag_36\n      jumpi\n      swap1\n      pop\n    tag_35:\n      pop\n        /* \"contracts/Utils.sol\":1205:1253  User[] memory usersTemp = new User[](usersCount) */\n      swap1\n      pop\n        /* \"contracts/Utils.sol\":1263:1276  uint256 count */\n      0x00\n        /* \"contracts/Utils.sol\":1291:1300  uint256 i */\n      dup1\n        /* \"contracts/Utils.sol\":1303:1304  0 */\n      0x00\n        /* \"contracts/Utils.sol\":1291:1304  uint256 i = 0 */\n      swap1\n      pop\n        /* \"contracts/Utils.sol\":1286:1529  for (uint256 i = 0; i < usersCount; i++) {... */\n    tag_39:\n        /* \"contracts/Utils.sol\":1310:1320  usersCount */\n      dup4\n        /* \"contracts/Utils.sol\":1306:1307  i */\n      dup2\n        /* \"contracts/Utils.sol\":1306:1320  i < usersCount */\n      lt\n        /* \"contracts/Utils.sol\":1286:1529  for (uint256 i = 0; i < usersCount; i++) {... */\n      iszero\n      tag_40\n      jumpi\n        /* \"contracts/Utils.sol\":1395:1400  _role */\n      dup6\n        /* \"contracts/Utils.sol\":1345:1400  UserAddressMapping[UsersAddresses[i]].UserRole == _role */\n      0x06\n      dup2\n      gt\n      iszero\n      tag_42\n      jumpi\n      tag_43\n      tag_44\n      jump\t// in\n    tag_43:\n    tag_42:\n        /* \"contracts/Utils.sol\":1345:1363  UserAddressMapping */\n      0x00\n        /* \"contracts/Utils.sol\":1345:1382  UserAddressMapping[UsersAddresses[i]] */\n      dup1\n        /* \"contracts/Utils.sol\":1364:1378  UsersAddresses */\n      0x01\n        /* \"contracts/Utils.sol\":1379:1380  i */\n      dup5\n        /* \"contracts/Utils.sol\":1364:1381  UsersAddresses[i] */\n      dup2\n      sload\n      dup2\n      lt\n      tag_45\n      jumpi\n      tag_46\n      tag_47\n      jump\t// in\n    tag_46:\n    tag_45:\n      swap1\n      0x00\n      mstore\n      keccak256(0x00, 0x20)\n      add\n      0x00\n      swap1\n      sload\n      swap1\n      0x0100\n      exp\n      swap1\n      div\n      0xffffffffffffffffffffffffffffffffffffffff\n      and\n        /* \"contracts/Utils.sol\":1345:1382  UserAddressMapping[UsersAddresses[i]] */\n      0xffffffffffffffffffffffffffffffffffffffff\n      and\n      0xffffffffffffffffffffffffffffffffffffffff\n      and\n      dup2\n      mstore\n      0x20\n      add\n      swap1\n      dup2\n      mstore\n      0x20\n      add\n      0x00\n      keccak256\n        /* \"contracts/Utils.sol\":1345:1391  UserAddressMapping[UsersAddresses[i]].UserRole */\n      0x02\n      add\n      0x00\n      swap1\n      sload\n      swap1\n      0x0100\n      exp\n      swap1\n      div\n      0xff\n      and\n        /* \"contracts/Utils.sol\":1345:1400  UserAddressMapping[UsersAddresses[i]].UserRole == _role */\n      0x06\n      dup2\n      gt\n      iszero\n      tag_49\n      jumpi\n      tag_50\n      tag_44\n      jump\t// in\n    tag_50:\n    tag_49:\n      eq\n        /* \"contracts/Utils.sol\":1341:1519  if (UserAddressMapping[UsersAddresses[i]].UserRole == _role) {... */\n      iszero\n      tag_51\n      jumpi\n        /* \"contracts/Utils.sol\":1439:1457  UserAddressMapping */\n      0x00\n        /* \"contracts/Utils.sol\":1439:1476  UserAddressMapping[UsersAddresses[i]] */\n      dup1\n        /* \"contracts/Utils.sol\":1458:1472  UsersAddresses */\n      0x01\n        /* \"contracts/Utils.sol\":1473:1474  i */\n      dup4\n        /* \"contracts/Utils.sol\":1458:1475  UsersAddresses[i] */\n      dup2\n      sload\n      dup2\n      lt\n      tag_52\n      jumpi\n      tag_53\n      tag_47\n      jump\t// in\n    tag_53:\n    tag_52:\n      swap1\n      0x00\n      mstore\n      keccak256(0x00, 0x20)\n      add\n      0x00\n      swap1\n      sload\n      swap1\n      0x0100\n      exp\n      swap1\n      div\n      0xffffffffffffffffffffffffffffffffffffffff\n      and\n        /* \"contracts/Utils.sol\":1439:1476  UserAddressMapping[UsersAddresses[i]] */\n      0xffffffffffffffffffffffffffffffffffffffff\n      and\n      0xffffffffffffffffffffffffffffffffffffffff\n      and\n      dup2\n      mstore\n      0x20\n      add\n      swap1\n      dup2\n      mstore\n      0x20\n      add\n      0x00\n      keccak256\n        /* \"contracts/Utils.sol\":1420:1476  usersTemp[count] = UserAddressMapping[UsersAddresses[i]] */\n      mload(0x40)\n      dup1\n      0xe0\n      add\n      0x40\n      mstore\n      swap1\n      dup2\n      0x00\n      dup3\n      add\n      dup1\n      sload\n      tag_55\n      swap1\n      tag_56\n      jump\t// in\n    tag_55:\n      dup1\n      0x1f\n      add\n      0x20\n      dup1\n      swap2\n      div\n      mul\n      0x20\n      add\n      mload(0x40)\n      swap1\n      dup2\n      add\n      0x40\n      mstore\n      dup1\n      swap3\n      swap2\n      swap1\n      dup2\n      dup2\n      mstore\n      0x20\n      add\n      dup3\n      dup1\n      sload\n      tag_57\n      swap1\n      tag_56\n      jump\t// in\n    tag_57:\n      dup1\n      iszero\n      tag_58\n      jumpi\n      dup1\n      0x1f\n      lt\n      tag_59\n      jumpi\n      0x0100\n      dup1\n      dup4\n      sload\n      div\n      mul\n      dup4\n      mstore\n      swap2\n      0x20\n      add\n      swap2\n      jump(tag_58)\n    tag_59:\n      dup3\n      add\n      swap2\n      swap1\n      0x00\n      mstore\n      keccak256(0x00, 0x20)\n      swap1\n    tag_60:\n      dup2\n      sload\n      dup2\n      mstore\n      swap1\n      0x01\n      add\n      swap1\n      0x20\n      add\n      dup1\n      dup4\n      gt\n      tag_60\n      jumpi\n      dup3\n      swap1\n      sub\n      0x1f\n      and\n      dup3\n      add\n      swap2\n    tag_58:\n      pop\n      pop\n      pop\n      pop\n      pop\n      dup2\n      mstore\n      0x20\n      add\n      0x01\n      dup3\n      add\n      dup1\n      sload\n      tag_61\n      swap1\n      tag_56\n      jump\t// in\n    tag_61:\n      dup1\n      0x1f\n      add\n      0x20\n      dup1\n      swap2\n      div\n      mul\n      0x20\n      add\n      mload(0x40)\n      swap1\n      dup2\n      add\n      0x40\n      mstore\n      dup1\n      swap3\n      swap2\n      swap1\n      dup2\n      dup2\n      mstore\n      0x20\n      add\n      dup3\n      dup1\n      sload\n      tag_62\n      swap1\n      tag_56\n      jump\t// in\n    tag_62:\n      dup1\n      iszero\n      tag_63\n      jumpi\n      dup1\n      0x1f\n      lt\n      tag_64\n      jumpi\n      0x0100\n      dup1\n      dup4\n      sload\n      div\n      mul\n      dup4\n      mstore\n      swap2\n      0x20\n      add\n      swap2\n      jump(tag_63)\n    tag_64:\n      dup3\n      add\n      swap2\n      swap1\n      0x00\n      mstore\n      keccak256(0x00, 0x20)\n      swap1\n    tag_65:\n      dup2\n      sload\n      dup2\n      mstore\n      swap1\n      0x01\n      add\n      swap1\n      0x20\n      add\n      dup1\n      dup4\n      gt\n      tag_65\n      jumpi\n      dup3\n      swap1\n      sub\n      0x1f\n      and\n      dup3\n      add\n      swap2\n    tag_63:\n      pop\n      pop\n      pop\n      pop\n      pop\n      dup2\n      mstore\n      0x20\n      add\n      0x02\n      dup3\n      add\n      0x00\n      swap1\n      sload\n      swap1\n      0x0100\n      exp\n      swap1\n      div\n      0xff\n      and\n      0x06\n      dup2\n      gt\n      iszero\n      tag_66\n      jumpi\n      tag_67\n      tag_44\n      jump\t// in\n    tag_67:\n    tag_66:\n      0x06\n      dup2\n      gt\n      iszero\n      tag_68\n      jumpi\n      tag_69\n      tag_44\n      jump\t// in\n    tag_69:\n    tag_68:\n      dup2\n      mstore\n      0x20\n      add\n      0x02\n      dup3\n      add\n      0x01\n      swap1\n      sload\n      swap1\n      0x0100\n      exp\n      swap1\n      div\n      0xff\n      and\n      0x02\n      dup2\n      gt\n      iszero\n      tag_70\n      jumpi\n      tag_71\n      tag_44\n      jump\t// in\n    tag_71:\n    tag_70:\n      0x02\n      dup2\n      gt\n      iszero\n      tag_72\n      jumpi\n      tag_73\n      tag_44\n      jump\t// in\n    tag_73:\n    tag_72:\n      dup2\n      mstore\n      0x20\n      add\n      0x03\n      dup3\n      add\n      sload\n      dup2\n      mstore\n      0x20\n      add\n      0x04\n      dup3\n      add\n      sload\n      dup2\n      mstore\n      0x20\n      add\n      0x05\n      dup3\n      add\n      0x00\n      swap1\n      sload\n      swap1\n      0x0100\n      exp\n      swap1\n      div\n      0xffffffffffffffffffffffffffffffffffffffff\n      and\n      0xffffffffffffffffffffffffffffffffffffffff\n      and\n      0xffffffffffffffffffffffffffffffffffffffff\n      and\n      dup2\n      mstore\n      pop\n      pop\n        /* \"contracts/Utils.sol\":1420:1429  usersTemp */\n      dup4\n        /* \"contracts/Utils.sol\":1430:1435  count */\n      dup4\n        /* \"contracts/Utils.sol\":1420:1436  usersTemp[count] */\n      dup2\n      mload\n      dup2\n      lt\n      tag_74\n      jumpi\n      tag_75\n      tag_47\n      jump\t// in\n    tag_75:\n    tag_74:\n      0x20\n      mul\n      0x20\n      add\n      add\n        /* \"contracts/Utils.sol\":1420:1476  usersTemp[count] = UserAddressMapping[UsersAddresses[i]] */\n      dup2\n      swap1\n      mstore\n      pop\n        /* \"contracts/Utils.sol\":1503:1504  1 */\n      0x01\n        /* \"contracts/Utils.sol\":1494:1504  count += 1 */\n      dup3\n      tag_76\n      swap2\n      swap1\n      tag_77\n      jump\t// in\n    tag_76:\n      swap2\n      pop\n        /* \"contracts/Utils.sol\":1341:1519  if (UserAddressMapping[UsersAddresses[i]].UserRole == _role) {... */\n    tag_51:\n        /* \"contracts/Utils.sol\":1322:1325  i++ */\n      dup1\n      dup1\n      tag_78\n      swap1\n      tag_79\n      jump\t// in\n    tag_78:\n      swap2\n      pop\n      pop\n        /* \"contracts/Utils.sol\":1286:1529  for (uint256 i = 0; i < usersCount; i++) {... */\n      jump(tag_39)\n    tag_40:\n      pop\n        /* \"contracts/Utils.sol\":1566:1571  count */\n      dup1\n        /* \"contracts/Utils.sol\":1555:1572  new User[](count) */\n      0xffffffffffffffff\n      dup2\n      gt\n      iszero\n      tag_80\n      jumpi\n      tag_81\n      tag_34\n      jump\t// in\n    tag_81:\n    tag_80:\n      mload(0x40)\n      swap1\n      dup1\n      dup3\n      mstore\n      dup1\n      0x20\n      mul\n      0x20\n      add\n      dup3\n      add\n      0x40\n      mstore\n      dup1\n      iszero\n      tag_82\n      jumpi\n      dup2\n      0x20\n      add\n    tag_83:\n      tag_84\n      tag_38\n      jump\t// in\n    tag_84:\n      dup2\n      mstore\n      0x20\n      add\n      swap1\n      0x01\n      swap1\n      sub\n      swap1\n      dup2\n      tag_83\n      jumpi\n      swap1\n      pop\n    tag_82:\n      pop\n        /* \"contracts/Utils.sol\":1539:1572  filteredUsers = new User[](count) */\n      swap4\n      pop\n        /* \"contracts/Utils.sol\":1587:1596  uint256 i */\n      0x00\n        /* \"contracts/Utils.sol\":1582:1674  for (uint256 i = 0; i < count; i++) {... */\n    tag_85:\n        /* \"contracts/Utils.sol\":1606:1611  count */\n      dup2\n        /* \"contracts/Utils.sol\":1602:1603  i */\n      dup2\n        /* \"contracts/Utils.sol\":1602:1611  i < count */\n      lt\n        /* \"contracts/Utils.sol\":1582:1674  for (uint256 i = 0; i < count; i++) {... */\n      iszero\n      tag_86\n      jumpi\n        /* \"contracts/Utils.sol\":1651:1660  usersTemp */\n      dup3\n        /* \"contracts/Utils.sol\":1661:1662  i */\n      dup2\n        /* \"contracts/Utils.sol\":1651:1663  usersTemp[i] */\n      dup2\n      mload\n      dup2\n      lt\n      tag_88\n      jumpi\n      tag_89\n      tag_47\n      jump\t// in\n    tag_89:\n    tag_88:\n      0x20\n      mul\n      0x20\n      add\n      add\n      mload\n        /* \"contracts/Utils.sol\":1632:1645  filteredUsers */\n      dup6\n        /* \"contracts/Utils.sol\":1646:1647  i */\n      dup3\n        /* \"contracts/Utils.sol\":1632:1648  filteredUsers[i] */\n      dup2\n      mload\n      dup2\n      lt\n      tag_90\n      jumpi\n      tag_91\n      tag_47\n      jump\t// in\n    tag_91:\n    tag_90:\n      0x20\n      mul\n      0x20\n      add\n      add\n        /* \"contracts/Utils.sol\":1632:1663  filteredUsers[i] = usersTemp[i] */\n      dup2\n      swap1\n      mstore\n      pop\n        /* \"contracts/Utils.sol\":1613:1616  i++ */\n      dup1\n      dup1\n      tag_92\n      swap1\n      tag_79\n      jump\t// in\n    tag_92:\n      swap2\n      pop\n      pop\n        /* \"contracts/Utils.sol\":1582:1674  for (uint256 i = 0; i < count; i++) {... */\n      jump(tag_85)\n    tag_86:\n      pop\n        /* \"contracts/Utils.sol\":1143:1680  {... */\n      pop\n      pop\n      pop\n        /* \"contracts/Utils.sol\":1024:1680  function GetUsersByType(UserRoles _role)... */\n      swap2\n      swap1\n      pop\n      jump\t// out\n        /* \"contracts/Utils.sol\":896:1018  function ReadUser(address _address) public view returns (User memory) {... */\n    tag_16:\n        /* \"contracts/Utils.sol\":953:964  User memory */\n      tag_93\n      tag_38\n      jump\t// in\n    tag_93:\n        /* \"contracts/Utils.sol\":983:1001  UserAddressMapping */\n      0x00\n        /* \"contracts/Utils.sol\":983:1011  UserAddressMapping[_address] */\n      dup1\n        /* \"contracts/Utils.sol\":1002:1010  _address */\n      dup4\n        /* \"contracts/Utils.sol\":983:1011  UserAddressMapping[_address] */\n      0xffffffffffffffffffffffffffffffffffffffff\n      and\n      0xffffffffffffffffffffffffffffffffffffffff\n      and\n      dup2\n      mstore\n      0x20\n      add\n      swap1\n      dup2\n      mstore\n      0x20\n      add\n      0x00\n      keccak256\n        /* \"contracts/Utils.sol\":976:1011  return UserAddressMapping[_address] */\n      mload(0x40)\n      dup1\n      0xe0\n      add\n      0x40\n      mstore\n      swap1\n      dup2\n      0x00\n      dup3\n      add\n      dup1\n      sload\n      tag_95\n      swap1\n      tag_56\n      jump\t// in\n    tag_95:\n      dup1\n      0x1f\n      add\n      0x20\n      dup1\n      swap2\n      div\n      mul\n      0x20\n      add\n      mload(0x40)\n      swap1\n      dup2\n      add\n      0x40\n      mstore\n      dup1\n      swap3\n      swap2\n      swap1\n      dup2\n      dup2\n      mstore\n      0x20\n      add\n      dup3\n      dup1\n      sload\n      tag_96\n      swap1\n      tag_56\n      jump\t// in\n    tag_96:\n      dup1\n      iszero\n      tag_97\n      jumpi\n      dup1\n      0x1f\n      lt\n      tag_98\n      jumpi\n      0x0100\n      dup1\n      dup4\n      sload\n      div\n      mul\n      dup4\n      mstore\n      swap2\n      0x20\n      add\n      swap2\n      jump(tag_97)\n    tag_98:\n      dup3\n      add\n      swap2\n      swap1\n      0x00\n      mstore\n      keccak256(0x00, 0x20)\n      swap1\n    tag_99:\n      dup2\n      sload\n      dup2\n      mstore\n      swap1\n      0x01\n      add\n      swap1\n      0x20\n      add\n      dup1\n      dup4\n      gt\n      tag_99\n      jumpi\n      dup3\n      swap1\n      sub\n      0x1f\n      and\n      dup3\n      add\n      swap2\n    tag_97:\n      pop\n      pop\n      pop\n      pop\n      pop\n      dup2\n      mstore\n      0x20\n      add\n      0x01\n      dup3\n      add\n      dup1\n      sload\n      tag_100\n      swap1\n      tag_56\n      jump\t// in\n    tag_100:\n      dup1\n      0x1f\n      add\n      0x20\n      dup1\n      swap2\n      div\n      mul\n      0x20\n      add\n      mload(0x40)\n      swap1\n      dup2\n      add\n      0x40\n      mstore\n      dup1\n      swap3\n      swap2\n      swap1\n      dup2\n      dup2\n      mstore\n      0x20\n      add\n      dup3\n      dup1\n      sload\n      tag_101\n      swap1\n      tag_56\n      jump\t// in\n    tag_101:\n      dup1\n      iszero\n      tag_102\n      jumpi\n      dup1\n      0x1f\n      lt\n      tag_103\n      jumpi\n      0x0100\n      dup1\n      dup4\n      sload\n      div\n      mul\n      dup4\n      mstore\n      swap2\n      0x20\n      add\n      swap2\n      jump(tag_102)\n    tag_103:\n      dup3\n      add\n      swap2\n      swap1\n      0x00\n      mstore\n      keccak256(0x00, 0x20)\n      swap1\n    tag_104:\n      dup2\n      sload\n      dup2\n      mstore\n      swap1\n      0x01\n      add\n      swap1\n      0x20\n      add\n      dup1\n      dup4\n      gt\n      tag_104\n      jumpi\n      dup3\n      swap1\n      sub\n      0x1f\n      and\n      dup3\n      add\n      swap2\n    tag_102:\n      pop\n      pop\n      pop\n      pop\n      pop\n      dup2\n      mstore\n      0x20\n      add\n      0x02\n      dup3\n      add\n      0x00\n      swap1\n      sload\n      swap1\n      0x0100\n      exp\n      swap1\n      div\n      0xff\n      and\n      0x06\n      dup2\n      gt\n      iszero\n      tag_105\n      jumpi\n      tag_106\n      tag_44\n      jump\t// in\n    tag_106:\n    tag_105:\n      0x06\n      dup2\n      gt\n      iszero\n      tag_107\n      jumpi\n      tag_108\n      tag_44\n      jump\t// in\n    tag_108:\n    tag_107:\n      dup2\n      mstore\n      0x20\n      add\n      0x02\n      dup3\n      add\n      0x01\n      swap1\n      sload\n      swap1\n      0x0100\n      exp\n      swap1\n      div\n      0xff\n      and\n      0x02\n      dup2\n      gt\n      iszero\n      tag_109\n      jumpi\n      tag_110\n      tag_44\n      jump\t// in\n    tag_110:\n    tag_109:\n      0x02\n      dup2\n      gt\n      iszero\n      tag_111\n      jumpi\n      tag_112\n      tag_44\n      jump\t// in\n    tag_112:\n    tag_111:\n      dup2\n      mstore\n      0x20\n      add\n      0x03\n      dup3\n      add\n      sload\n      dup2\n      mstore\n      0x20\n      add\n      0x04\n      dup3\n      add\n      sload\n      dup2\n      mstore\n      0x20\n      add\n      0x05\n      dup3\n      add\n      0x00\n      swap1\n      sload\n      swap1\n      0x0100\n      exp\n      swap1\n      div\n      0xffffffffffffffffffffffffffffffffffffffff\n      and\n      0xffffffffffffffffffffffffffffffffffffffff\n      and\n      0xffffffffffffffffffffffffffffffffffffffff\n      and\n      dup2\n      mstore\n      pop\n      pop\n      swap1\n      pop\n        /* \"contracts/Utils.sol\":896:1018  function ReadUser(address _address) public view returns (User memory) {... */\n      swap2\n      swap1\n      pop\n      jump\t// out\n        /* \"contracts/Utils.sol\":2074:2196  function ReadDrug(string memory _regno) public view returns (Drug memory) {... */\n    tag_22:\n        /* \"contracts/Utils.sol\":2135:2146  Drug memory */\n      tag_113\n      tag_114\n      jump\t// in\n    tag_113:\n        /* \"contracts/Utils.sol\":2165:2181  DrugRegNoMapping */\n      0x02\n        /* \"contracts/Utils.sol\":2182:2188  _regno */\n      dup3\n        /* \"contracts/Utils.sol\":2165:2189  DrugRegNoMapping[_regno] */\n      mload(0x40)\n      tag_116\n      swap2\n      swap1\n      tag_117\n      jump\t// in\n    tag_116:\n      swap1\n      dup2\n      mstore\n      0x20\n      add\n      mload(0x40)\n      dup1\n      swap2\n      sub\n      swap1\n      keccak256\n        /* \"contracts/Utils.sol\":2158:2189  return DrugRegNoMapping[_regno] */\n      mload(0x40)\n      dup1\n      0x60\n      add\n      0x40\n      mstore\n      swap1\n      dup2\n      0x00\n      dup3\n      add\n      dup1\n      sload\n      tag_118\n      swap1\n      tag_56\n      jump\t// in\n    tag_118:\n      dup1\n      0x1f\n      add\n      0x20\n      dup1\n      swap2\n      div\n      mul\n      0x20\n      add\n      mload(0x40)\n      swap1\n      dup2\n      add\n      0x40\n      mstore\n      dup1\n      swap3\n      swap2\n      swap1\n      dup2\n      dup2\n      mstore\n      0x20\n      add\n      dup3\n      dup1\n      sload\n      tag_119\n      swap1\n      tag_56\n      jump\t// in\n    tag_119:\n      dup1\n      iszero\n      tag_120\n      jumpi\n      dup1\n      0x1f\n      lt\n      tag_121\n      jumpi\n      0x0100\n      dup1\n      dup4\n      sload\n      div\n      mul\n      dup4\n      mstore\n      swap2\n      0x20\n      add\n      swap2\n      jump(tag_120)\n    tag_121:\n      dup3\n      add\n      swap2\n      swap1\n      0x00\n      mstore\n      keccak256(0x00, 0x20)\n      swap1\n    tag_122:\n      dup2\n      sload\n      dup2\n      mstore\n      swap1\n      0x01\n      add\n      swap1\n      0x20\n      add\n      dup1\n      dup4\n      gt\n      tag_122\n      jumpi\n      dup3\n      swap1\n      sub\n      0x1f\n      and\n      dup3\n      add\n      swap2\n    tag_120:\n      pop\n      pop\n      pop\n      pop\n      pop\n      dup2\n      mstore\n      0x20\n      add\n      0x01\n      dup3\n      add\n      0x00\n      swap1\n      sload\n      swap1\n      0x0100\n      exp\n      swap1\n      div\n      0xffffffffffffffffffffffffffffffffffffffff\n      and\n      0xffffffffffffffffffffffffffffffffffffffff\n      and\n      0xffffffffffffffffffffffffffffffffffffffff\n      and\n      dup2\n      mstore\n      0x20\n      add\n      0x01\n      dup3\n      add\n      0x14\n      swap1\n      sload\n      swap1\n      0x0100\n      exp\n      swap1\n      div\n      0xff\n      and\n      0x02\n      dup2\n      gt\n      iszero\n      tag_123\n      jumpi\n      tag_124\n      tag_44\n      jump\t// in\n    tag_124:\n    tag_123:\n      0x02\n      dup2\n      gt\n      iszero\n      tag_125\n      jumpi\n      tag_126\n      tag_44\n      jump\t// in\n    tag_126:\n    tag_125:\n      dup2\n      mstore\n      pop\n      pop\n      swap1\n      pop\n        /* \"contracts/Utils.sol\":2074:2196  function ReadDrug(string memory _regno) public view returns (Drug memory) {... */\n      swap2\n      swap1\n      pop\n      jump\t// out\n        /* \"contracts/Utils.sol\":203:427  function compareStringsbyBytes(string memory s1, string memory s2)... */\n    tag_28:\n        /* \"contracts/Utils.sol\":315:319  bool */\n      0x00\n        /* \"contracts/Utils.sol\":416:418  s2 */\n      dup2\n        /* \"contracts/Utils.sol\":399:419  abi.encodePacked(s2) */\n      add(0x20, mload(0x40))\n      tag_128\n      swap2\n      swap1\n      tag_117\n      jump\t// in\n    tag_128:\n      mload(0x40)\n      0x20\n      dup2\n      dup4\n      sub\n      sub\n      dup2\n      mstore\n      swap1\n      0x40\n      mstore\n        /* \"contracts/Utils.sol\":389:420  keccak256(abi.encodePacked(s2)) */\n      dup1\n      mload\n      swap1\n      0x20\n      add\n      keccak256\n        /* \"contracts/Utils.sol\":381:383  s1 */\n      dup4\n        /* \"contracts/Utils.sol\":364:384  abi.encodePacked(s1) */\n      add(0x20, mload(0x40))\n      tag_129\n      swap2\n      swap1\n      tag_117\n      jump\t// in\n    tag_129:\n      mload(0x40)\n      0x20\n      dup2\n      dup4\n      sub\n      sub\n      dup2\n      mstore\n      swap1\n      0x40\n      mstore\n        /* \"contracts/Utils.sol\":354:385  keccak256(abi.encodePacked(s1)) */\n      dup1\n      mload\n      swap1\n      0x20\n      add\n      keccak256\n        /* \"contracts/Utils.sol\":354:420  keccak256(abi.encodePacked(s1)) == keccak256(abi.encodePacked(s2)) */\n      eq\n        /* \"contracts/Utils.sol\":335:420  return... */\n      swap1\n      pop\n        /* \"contracts/Utils.sol\":203:427  function compareStringsbyBytes(string memory s1, string memory s2)... */\n      swap3\n      swap2\n      pop\n      pop\n      jump\t// out\n    tag_38:\n      mload(0x40)\n      dup1\n      0xe0\n      add\n      0x40\n      mstore\n      dup1\n      0x60\n      dup2\n      mstore\n      0x20\n      add\n      0x60\n      dup2\n      mstore\n      0x20\n      add\n      0x00\n      0x06\n      dup2\n      gt\n      iszero\n      tag_130\n      jumpi\n      tag_131\n      tag_44\n      jump\t// in\n    tag_131:\n    tag_130:\n      dup2\n      mstore\n      0x20\n      add\n      0x00\n      0x02\n      dup2\n      gt\n      iszero\n      tag_132\n      jumpi\n      tag_133\n      tag_44\n      jump\t// in\n    tag_133:\n    tag_132:\n      dup2\n      mstore\n      0x20\n      add\n      0x00\n      dup2\n      mstore\n      0x20\n      add\n      0x00\n      dup2\n      mstore\n      0x20\n      add\n      and(0xffffffffffffffffffffffffffffffffffffffff, 0x00)\n      dup2\n      mstore\n      pop\n      swap1\n      jump\t// out\n    tag_114:\n      mload(0x40)\n      dup1\n      0x60\n      add\n      0x40\n      mstore\n      dup1\n      0x60\n      dup2\n      mstore\n      0x20\n      add\n      and(0xffffffffffffffffffffffffffffffffffffffff, 0x00)\n      dup2\n      mstore\n      0x20\n      add\n      0x00\n      0x02\n      dup2\n      gt\n      iszero\n      tag_134\n      jumpi\n      tag_135\n      tag_44\n      jump\t// in\n    tag_135:\n    tag_134:\n      dup2\n      mstore\n      pop\n      swap1\n      jump\t// out\n        /* \"#utility.yul\":7:419   */\n    tag_137:\n        /* \"#utility.yul\":85:90   */\n      0x00\n        /* \"#utility.yul\":110:176   */\n      tag_139\n        /* \"#utility.yul\":126:175   */\n      tag_140\n        /* \"#utility.yul\":168:174   */\n      dup5\n        /* \"#utility.yul\":126:175   */\n      tag_141\n      jump\t// in\n    tag_140:\n        /* \"#utility.yul\":110:176   */\n      tag_142\n      jump\t// in\n    tag_139:\n        /* \"#utility.yul\":101:176   */\n      swap1\n      pop\n        /* \"#utility.yul\":199:205   */\n      dup3\n        /* \"#utility.yul\":192:197   */\n      dup2\n        /* \"#utility.yul\":185:206   */\n      mstore\n        /* \"#utility.yul\":237:241   */\n      0x20\n        /* \"#utility.yul\":230:235   */\n      dup2\n        /* \"#utility.yul\":226:242   */\n      add\n        /* \"#utility.yul\":275:278   */\n      dup5\n        /* \"#utility.yul\":266:272   */\n      dup5\n        /* \"#utility.yul\":261:264   */\n      dup5\n        /* \"#utility.yul\":257:273   */\n      add\n        /* \"#utility.yul\":254:279   */\n      gt\n        /* \"#utility.yul\":251:363   */\n      iszero\n      tag_143\n      jumpi\n        /* \"#utility.yul\":282:361   */\n      tag_144\n      tag_145\n      jump\t// in\n    tag_144:\n        /* \"#utility.yul\":251:363   */\n    tag_143:\n        /* \"#utility.yul\":372:413   */\n      tag_146\n        /* \"#utility.yul\":406:412   */\n      dup5\n        /* \"#utility.yul\":401:404   */\n      dup3\n        /* \"#utility.yul\":396:399   */\n      dup6\n        /* \"#utility.yul\":372:413   */\n      tag_147\n      jump\t// in\n    tag_146:\n        /* \"#utility.yul\":91:419   */\n      pop\n        /* \"#utility.yul\":7:419   */\n      swap4\n      swap3\n      pop\n      pop\n      pop\n      jump\t// out\n        /* \"#utility.yul\":425:564   */\n    tag_148:\n        /* \"#utility.yul\":471:476   */\n      0x00\n        /* \"#utility.yul\":509:515   */\n      dup2\n        /* \"#utility.yul\":496:516   */\n      calldataload\n        /* \"#utility.yul\":487:516   */\n      swap1\n      pop\n        /* \"#utility.yul\":525:558   */\n      tag_150\n        /* \"#utility.yul\":552:557   */\n      dup2\n        /* \"#utility.yul\":525:558   */\n      tag_151\n      jump\t// in\n    tag_150:\n        /* \"#utility.yul\":425:564   */\n      swap3\n      swap2\n      pop\n      pop\n      jump\t// out\n        /* \"#utility.yul\":570:735   */\n    tag_152:\n        /* \"#utility.yul\":629:634   */\n      0x00\n        /* \"#utility.yul\":667:673   */\n      dup2\n        /* \"#utility.yul\":654:674   */\n      calldataload\n        /* \"#utility.yul\":645:674   */\n      swap1\n      pop\n        /* \"#utility.yul\":683:729   */\n      tag_154\n        /* \"#utility.yul\":723:728   */\n      dup2\n        /* \"#utility.yul\":683:729   */\n      tag_155\n      jump\t// in\n    tag_154:\n        /* \"#utility.yul\":570:735   */\n      swap3\n      swap2\n      pop\n      pop\n      jump\t// out\n        /* \"#utility.yul\":755:1095   */\n    tag_156:\n        /* \"#utility.yul\":811:816   */\n      0x00\n        /* \"#utility.yul\":860:863   */\n      dup3\n        /* \"#utility.yul\":853:857   */\n      0x1f\n        /* \"#utility.yul\":845:851   */\n      dup4\n        /* \"#utility.yul\":841:858   */\n      add\n        /* \"#utility.yul\":837:864   */\n      slt\n        /* \"#utility.yul\":827:949   */\n      tag_158\n      jumpi\n        /* \"#utility.yul\":868:947   */\n      tag_159\n      tag_160\n      jump\t// in\n    tag_159:\n        /* \"#utility.yul\":827:949   */\n    tag_158:\n        /* \"#utility.yul\":985:991   */\n      dup2\n        /* \"#utility.yul\":972:992   */\n      calldataload\n        /* \"#utility.yul\":1010:1089   */\n      tag_161\n        /* \"#utility.yul\":1085:1088   */\n      dup5\n        /* \"#utility.yul\":1077:1083   */\n      dup3\n        /* \"#utility.yul\":1070:1074   */\n      0x20\n        /* \"#utility.yul\":1062:1068   */\n      dup7\n        /* \"#utility.yul\":1058:1075   */\n      add\n        /* \"#utility.yul\":1010:1089   */\n      tag_137\n      jump\t// in\n    tag_161:\n        /* \"#utility.yul\":1001:1089   */\n      swap2\n      pop\n        /* \"#utility.yul\":817:1095   */\n      pop\n        /* \"#utility.yul\":755:1095   */\n      swap3\n      swap2\n      pop\n      pop\n      jump\t// out\n        /* \"#utility.yul\":1101:1430   */\n    tag_15:\n        /* \"#utility.yul\":1160:1166   */\n      0x00\n        /* \"#utility.yul\":1209:1211   */\n      0x20\n        /* \"#utility.yul\":1197:1206   */\n      dup3\n        /* \"#utility.yul\":1188:1195   */\n      dup5\n        /* \"#utility.yul\":1184:1207   */\n      sub\n        /* \"#utility.yul\":1180:1212   */\n      slt\n        /* \"#utility.yul\":1177:1296   */\n      iszero\n      tag_163\n      jumpi\n        /* \"#utility.yul\":1215:1294   */\n      tag_164\n      tag_165\n      jump\t// in\n    tag_164:\n        /* \"#utility.yul\":1177:1296   */\n    tag_163:\n        /* \"#utility.yul\":1335:1336   */\n      0x00\n        /* \"#utility.yul\":1360:1413   */\n      tag_166\n        /* \"#utility.yul\":1405:1412   */\n      dup5\n        /* \"#utility.yul\":1396:1402   */\n      dup3\n        /* \"#utility.yul\":1385:1394   */\n      dup6\n        /* \"#utility.yul\":1381:1403   */\n      add\n        /* \"#utility.yul\":1360:1413   */\n      tag_148\n      jump\t// in\n    tag_166:\n        /* \"#utility.yul\":1350:1413   */\n      swap2\n      pop\n        /* \"#utility.yul\":1306:1423   */\n      pop\n        /* \"#utility.yul\":1101:1430   */\n      swap3\n      swap2\n      pop\n      pop\n      jump\t// out\n        /* \"#utility.yul\":1436:1791   */\n    tag_9:\n        /* \"#utility.yul\":1508:1514   */\n      0x00\n        /* \"#utility.yul\":1557:1559   */\n      0x20\n        /* \"#utility.yul\":1545:1554   */\n      dup3\n        /* \"#utility.yul\":1536:1543   */\n      dup5\n        /* \"#utility.yul\":1532:1555   */\n      sub\n        /* \"#utility.yul\":1528:1560   */\n      slt\n        /* \"#utility.yul\":1525:1644   */\n      iszero\n      tag_168\n      jumpi\n        /* \"#utility.yul\":1563:1642   */\n      tag_169\n      tag_165\n      jump\t// in\n    tag_169:\n        /* \"#utility.yul\":1525:1644   */\n    tag_168:\n        /* \"#utility.yul\":1683:1684   */\n      0x00\n        /* \"#utility.yul\":1708:1774   */\n      tag_170\n        /* \"#utility.yul\":1766:1773   */\n      dup5\n        /* \"#utility.yul\":1757:1763   */\n      dup3\n        /* \"#utility.yul\":1746:1755   */\n      dup6\n        /* \"#utility.yul\":1742:1764   */\n      add\n        /* \"#utility.yul\":1708:1774   */\n      tag_152\n      jump\t// in\n    tag_170:\n        /* \"#utility.yul\":1698:1774   */\n      swap2\n      pop\n        /* \"#utility.yul\":1654:1784   */\n      pop\n        /* \"#utility.yul\":1436:1791   */\n      swap3\n      swap2\n      pop\n      pop\n      jump\t// out\n        /* \"#utility.yul\":1797:2306   */\n    tag_21:\n        /* \"#utility.yul\":1866:1872   */\n      0x00\n        /* \"#utility.yul\":1915:1917   */\n      0x20\n        /* \"#utility.yul\":1903:1912   */\n      dup3\n        /* \"#utility.yul\":1894:1901   */\n      dup5\n        /* \"#utility.yul\":1890:1913   */\n      sub\n        /* \"#utility.yul\":1886:1918   */\n      slt\n        /* \"#utility.yul\":1883:2002   */\n      iszero\n      tag_172\n      jumpi\n        /* \"#utility.yul\":1921:2000   */\n      tag_173\n      tag_165\n      jump\t// in\n    tag_173:\n        /* \"#utility.yul\":1883:2002   */\n    tag_172:\n        /* \"#utility.yul\":2069:2070   */\n      0x00\n        /* \"#utility.yul\":2058:2067   */\n      dup3\n        /* \"#utility.yul\":2054:2071   */\n      add\n        /* \"#utility.yul\":2041:2072   */\n      calldataload\n        /* \"#utility.yul\":2099:2117   */\n      0xffffffffffffffff\n        /* \"#utility.yul\":2091:2097   */\n      dup2\n        /* \"#utility.yul\":2088:2118   */\n      gt\n        /* \"#utility.yul\":2085:2202   */\n      iszero\n      tag_174\n      jumpi\n        /* \"#utility.yul\":2121:2200   */\n      tag_175\n      tag_176\n      jump\t// in\n    tag_175:\n        /* \"#utility.yul\":2085:2202   */\n    tag_174:\n        /* \"#utility.yul\":2226:2289   */\n      tag_177\n        /* \"#utility.yul\":2281:2288   */\n      dup5\n        /* \"#utility.yul\":2272:2278   */\n      dup3\n        /* \"#utility.yul\":2261:2270   */\n      dup6\n        /* \"#utility.yul\":2257:2279   */\n      add\n        /* \"#utility.yul\":2226:2289   */\n      tag_156\n      jump\t// in\n    tag_177:\n        /* \"#utility.yul\":2216:2289   */\n      swap2\n      pop\n        /* \"#utility.yul\":2012:2299   */\n      pop\n        /* \"#utility.yul\":1797:2306   */\n      swap3\n      swap2\n      pop\n      pop\n      jump\t// out\n        /* \"#utility.yul\":2312:3146   */\n    tag_27:\n        /* \"#utility.yul\":2400:2406   */\n      0x00\n        /* \"#utility.yul\":2408:2414   */\n      dup1\n        /* \"#utility.yul\":2457:2459   */\n      0x40\n        /* \"#utility.yul\":2445:2454   */\n      dup4\n        /* \"#utility.yul\":2436:2443   */\n      dup6\n        /* \"#utility.yul\":2432:2455   */\n      sub\n        /* \"#utility.yul\":2428:2460   */\n      slt\n        /* \"#utility.yul\":2425:2544   */\n      iszero\n      tag_179\n      jumpi\n        /* \"#utility.yul\":2463:2542   */\n      tag_180\n      tag_165\n      jump\t// in\n    tag_180:\n        /* \"#utility.yul\":2425:2544   */\n    tag_179:\n        /* \"#utility.yul\":2611:2612   */\n      0x00\n        /* \"#utility.yul\":2600:2609   */\n      dup4\n        /* \"#utility.yul\":2596:2613   */\n      add\n        /* \"#utility.yul\":2583:2614   */\n      calldataload\n        /* \"#utility.yul\":2641:2659   */\n      0xffffffffffffffff\n        /* \"#utility.yul\":2633:2639   */\n      dup2\n        /* \"#utility.yul\":2630:2660   */\n      gt\n        /* \"#utility.yul\":2627:2744   */\n      iszero\n      tag_181\n      jumpi\n        /* \"#utility.yul\":2663:2742   */\n      tag_182\n      tag_176\n      jump\t// in\n    tag_182:\n        /* \"#utility.yul\":2627:2744   */\n    tag_181:\n        /* \"#utility.yul\":2768:2831   */\n      tag_183\n        /* \"#utility.yul\":2823:2830   */\n      dup6\n        /* \"#utility.yul\":2814:2820   */\n      dup3\n        /* \"#utility.yul\":2803:2812   */\n      dup7\n        /* \"#utility.yul\":2799:2821   */\n      add\n        /* \"#utility.yul\":2768:2831   */\n      tag_156\n      jump\t// in\n    tag_183:\n        /* \"#utility.yul\":2758:2831   */\n      swap3\n      pop\n        /* \"#utility.yul\":2554:2841   */\n      pop\n        /* \"#utility.yul\":2908:2910   */\n      0x20\n        /* \"#utility.yul\":2897:2906   */\n      dup4\n        /* \"#utility.yul\":2893:2911   */\n      add\n        /* \"#utility.yul\":2880:2912   */\n      calldataload\n        /* \"#utility.yul\":2939:2957   */\n      0xffffffffffffffff\n        /* \"#utility.yul\":2931:2937   */\n      dup2\n        /* \"#utility.yul\":2928:2958   */\n      gt\n        /* \"#utility.yul\":2925:3042   */\n      iszero\n      tag_184\n      jumpi\n        /* \"#utility.yul\":2961:3040   */\n      tag_185\n      tag_176\n      jump\t// in\n    tag_185:\n        /* \"#utility.yul\":2925:3042   */\n    tag_184:\n        /* \"#utility.yul\":3066:3129   */\n      tag_186\n        /* \"#utility.yul\":3121:3128   */\n      dup6\n        /* \"#utility.yul\":3112:3118   */\n      dup3\n        /* \"#utility.yul\":3101:3110   */\n      dup7\n        /* \"#utility.yul\":3097:3119   */\n      add\n        /* \"#utility.yul\":3066:3129   */\n      tag_156\n      jump\t// in\n    tag_186:\n        /* \"#utility.yul\":3056:3129   */\n      swap2\n      pop\n        /* \"#utility.yul\":2851:3139   */\n      pop\n        /* \"#utility.yul\":2312:3146   */\n      swap3\n      pop\n      swap3\n      swap1\n      pop\n      jump\t// out\n        /* \"#utility.yul\":3152:3392   */\n    tag_187:\n        /* \"#utility.yul\":3263:3273   */\n      0x00\n        /* \"#utility.yul\":3298:3386   */\n      tag_189\n        /* \"#utility.yul\":3382:3385   */\n      dup4\n        /* \"#utility.yul\":3374:3380   */\n      dup4\n        /* \"#utility.yul\":3298:3386   */\n      tag_190\n      jump\t// in\n    tag_189:\n        /* \"#utility.yul\":3284:3386   */\n      swap1\n      pop\n        /* \"#utility.yul\":3152:3392   */\n      swap3\n      swap2\n      pop\n      pop\n      jump\t// out\n        /* \"#utility.yul\":3398:3506   */\n    tag_191:\n        /* \"#utility.yul\":3475:3499   */\n      tag_193\n        /* \"#utility.yul\":3493:3498   */\n      dup2\n        /* \"#utility.yul\":3475:3499   */\n      tag_194\n      jump\t// in\n    tag_193:\n        /* \"#utility.yul\":3470:3473   */\n      dup3\n        /* \"#utility.yul\":3463:3500   */\n      mstore\n        /* \"#utility.yul\":3398:3506   */\n      pop\n      pop\n      jump\t// out\n        /* \"#utility.yul\":3562:4641   */\n    tag_195:\n        /* \"#utility.yul\":3723:3726   */\n      0x00\n        /* \"#utility.yul\":3752:3827   */\n      tag_197\n        /* \"#utility.yul\":3821:3826   */\n      dup3\n        /* \"#utility.yul\":3752:3827   */\n      tag_198\n      jump\t// in\n    tag_197:\n        /* \"#utility.yul\":3843:3950   */\n      tag_199\n        /* \"#utility.yul\":3943:3949   */\n      dup2\n        /* \"#utility.yul\":3938:3941   */\n      dup6\n        /* \"#utility.yul\":3843:3950   */\n      tag_200\n      jump\t// in\n    tag_199:\n        /* \"#utility.yul\":3836:3950   */\n      swap4\n      pop\n        /* \"#utility.yul\":3976:3979   */\n      dup4\n        /* \"#utility.yul\":4021:4025   */\n      0x20\n        /* \"#utility.yul\":4013:4019   */\n      dup3\n        /* \"#utility.yul\":4009:4026   */\n      mul\n        /* \"#utility.yul\":4004:4007   */\n      dup6\n        /* \"#utility.yul\":4000:4027   */\n      add\n        /* \"#utility.yul\":4051:4128   */\n      tag_201\n        /* \"#utility.yul\":4122:4127   */\n      dup6\n        /* \"#utility.yul\":4051:4128   */\n      tag_202\n      jump\t// in\n    tag_201:\n        /* \"#utility.yul\":4151:4158   */\n      dup1\n        /* \"#utility.yul\":4182:4183   */\n      0x00\n        /* \"#utility.yul\":4167:4596   */\n    tag_203:\n        /* \"#utility.yul\":4192:4198   */\n      dup6\n        /* \"#utility.yul\":4189:4190   */\n      dup2\n        /* \"#utility.yul\":4186:4199   */\n      lt\n        /* \"#utility.yul\":4167:4596   */\n      iszero\n      tag_205\n      jumpi\n        /* \"#utility.yul\":4263:4272   */\n      dup5\n        /* \"#utility.yul\":4257:4261   */\n      dup5\n        /* \"#utility.yul\":4253:4273   */\n      sub\n        /* \"#utility.yul\":4248:4251   */\n      dup10\n        /* \"#utility.yul\":4241:4274   */\n      mstore\n        /* \"#utility.yul\":4314:4320   */\n      dup2\n        /* \"#utility.yul\":4308:4321   */\n      mload\n        /* \"#utility.yul\":4342:4448   */\n      tag_206\n        /* \"#utility.yul\":4443:4447   */\n      dup6\n        /* \"#utility.yul\":4428:4441   */\n      dup3\n        /* \"#utility.yul\":4342:4448   */\n      tag_187\n      jump\t// in\n    tag_206:\n        /* \"#utility.yul\":4334:4448   */\n      swap5\n      pop\n        /* \"#utility.yul\":4471:4552   */\n      tag_207\n        /* \"#utility.yul\":4545:4551   */\n      dup4\n        /* \"#utility.yul\":4471:4552   */\n      tag_208\n      jump\t// in\n    tag_207:\n        /* \"#utility.yul\":4461:4552   */\n      swap3\n      pop\n        /* \"#utility.yul\":4581:4585   */\n      0x20\n        /* \"#utility.yul\":4576:4579   */\n      dup11\n        /* \"#utility.yul\":4572:4586   */\n      add\n        /* \"#utility.yul\":4565:4586   */\n      swap10\n      pop\n        /* \"#utility.yul\":4227:4596   */\n      pop\n        /* \"#utility.yul\":4214:4215   */\n      0x01\n        /* \"#utility.yul\":4211:4212   */\n      dup2\n        /* \"#utility.yul\":4207:4216   */\n      add\n        /* \"#utility.yul\":4202:4216   */\n      swap1\n      pop\n        /* \"#utility.yul\":4167:4596   */\n      jump(tag_203)\n    tag_205:\n        /* \"#utility.yul\":4171:4185   */\n      pop\n        /* \"#utility.yul\":4612:4616   */\n      dup3\n        /* \"#utility.yul\":4605:4616   */\n      swap8\n      pop\n        /* \"#utility.yul\":4632:4635   */\n      dup8\n        /* \"#utility.yul\":4625:4635   */\n      swap6\n      pop\n        /* \"#utility.yul\":3728:4641   */\n      pop\n      pop\n      pop\n      pop\n      pop\n        /* \"#utility.yul\":3562:4641   */\n      swap3\n      swap2\n      pop\n      pop\n      jump\t// out\n        /* \"#utility.yul\":4647:4756   */\n    tag_209:\n        /* \"#utility.yul\":4728:4749   */\n      tag_211\n        /* \"#utility.yul\":4743:4748   */\n      dup2\n        /* \"#utility.yul\":4728:4749   */\n      tag_212\n      jump\t// in\n    tag_211:\n        /* \"#utility.yul\":4723:4726   */\n      dup3\n        /* \"#utility.yul\":4716:4750   */\n      mstore\n        /* \"#utility.yul\":4647:4756   */\n      pop\n      pop\n      jump\t// out\n        /* \"#utility.yul\":4762:4903   */\n    tag_213:\n        /* \"#utility.yul\":4849:4896   */\n      tag_215\n        /* \"#utility.yul\":4890:4895   */\n      dup2\n        /* \"#utility.yul\":4849:4896   */\n      tag_216\n      jump\t// in\n    tag_215:\n        /* \"#utility.yul\":4844:4847   */\n      dup3\n        /* \"#utility.yul\":4837:4897   */\n      mstore\n        /* \"#utility.yul\":4762:4903   */\n      pop\n      pop\n      jump\t// out\n        /* \"#utility.yul\":4909:5052   */\n    tag_217:\n        /* \"#utility.yul\":4997:5045   */\n      tag_219\n        /* \"#utility.yul\":5039:5044   */\n      dup2\n        /* \"#utility.yul\":4997:5045   */\n      tag_220\n      jump\t// in\n    tag_219:\n        /* \"#utility.yul\":4992:4995   */\n      dup3\n        /* \"#utility.yul\":4985:5046   */\n      mstore\n        /* \"#utility.yul\":4909:5052   */\n      pop\n      pop\n      jump\t// out\n        /* \"#utility.yul\":5058:5402   */\n    tag_221:\n        /* \"#utility.yul\":5136:5139   */\n      0x00\n        /* \"#utility.yul\":5164:5203   */\n      tag_223\n        /* \"#utility.yul\":5197:5202   */\n      dup3\n        /* \"#utility.yul\":5164:5203   */\n      tag_224\n      jump\t// in\n    tag_223:\n        /* \"#utility.yul\":5219:5280   */\n      tag_225\n        /* \"#utility.yul\":5273:5279   */\n      dup2\n        /* \"#utility.yul\":5268:5271   */\n      dup6\n        /* \"#utility.yul\":5219:5280   */\n      tag_226\n      jump\t// in\n    tag_225:\n        /* \"#utility.yul\":5212:5280   */\n      swap4\n      pop\n        /* \"#utility.yul\":5289:5341   */\n      tag_227\n        /* \"#utility.yul\":5334:5340   */\n      dup2\n        /* \"#utility.yul\":5329:5332   */\n      dup6\n        /* \"#utility.yul\":5322:5326   */\n      0x20\n        /* \"#utility.yul\":5315:5320   */\n      dup7\n        /* \"#utility.yul\":5311:5327   */\n      add\n        /* \"#utility.yul\":5289:5341   */\n      tag_228\n      jump\t// in\n    tag_227:\n        /* \"#utility.yul\":5366:5395   */\n      tag_229\n        /* \"#utility.yul\":5388:5394   */\n      dup2\n        /* \"#utility.yul\":5366:5395   */\n      tag_230\n      jump\t// in\n    tag_229:\n        /* \"#utility.yul\":5361:5364   */\n      dup5\n        /* \"#utility.yul\":5357:5396   */\n      add\n        /* \"#utility.yul\":5350:5396   */\n      swap2\n      pop\n        /* \"#utility.yul\":5140:5402   */\n      pop\n        /* \"#utility.yul\":5058:5402   */\n      swap3\n      swap2\n      pop\n      pop\n      jump\t// out\n        /* \"#utility.yul\":5408:5785   */\n    tag_231:\n        /* \"#utility.yul\":5514:5517   */\n      0x00\n        /* \"#utility.yul\":5542:5581   */\n      tag_233\n        /* \"#utility.yul\":5575:5580   */\n      dup3\n        /* \"#utility.yul\":5542:5581   */\n      tag_224\n      jump\t// in\n    tag_233:\n        /* \"#utility.yul\":5597:5686   */\n      tag_234\n        /* \"#utility.yul\":5679:5685   */\n      dup2\n        /* \"#utility.yul\":5674:5677   */\n      dup6\n        /* \"#utility.yul\":5597:5686   */\n      tag_235\n      jump\t// in\n    tag_234:\n        /* \"#utility.yul\":5590:5686   */\n      swap4\n      pop\n        /* \"#utility.yul\":5695:5747   */\n      tag_236\n        /* \"#utility.yul\":5740:5746   */\n      dup2\n        /* \"#utility.yul\":5735:5738   */\n      dup6\n        /* \"#utility.yul\":5728:5732   */\n      0x20\n        /* \"#utility.yul\":5721:5726   */\n      dup7\n        /* \"#utility.yul\":5717:5733   */\n      add\n        /* \"#utility.yul\":5695:5747   */\n      tag_228\n      jump\t// in\n    tag_236:\n        /* \"#utility.yul\":5772:5778   */\n      dup1\n        /* \"#utility.yul\":5767:5770   */\n      dup5\n        /* \"#utility.yul\":5763:5779   */\n      add\n        /* \"#utility.yul\":5756:5779   */\n      swap2\n      pop\n        /* \"#utility.yul\":5518:5785   */\n      pop\n        /* \"#utility.yul\":5408:5785   */\n      swap3\n      swap2\n      pop\n      pop\n      jump\t// out\n        /* \"#utility.yul\":5837:6637   */\n    tag_237:\n        /* \"#utility.yul\":5948:5951   */\n      0x00\n        /* \"#utility.yul\":5984:5988   */\n      0x60\n        /* \"#utility.yul\":5979:5982   */\n      dup4\n        /* \"#utility.yul\":5975:5989   */\n      add\n        /* \"#utility.yul\":6075:6079   */\n      0x00\n        /* \"#utility.yul\":6068:6073   */\n      dup4\n        /* \"#utility.yul\":6064:6080   */\n      add\n        /* \"#utility.yul\":6058:6081   */\n      mload\n        /* \"#utility.yul\":6128:6131   */\n      dup5\n        /* \"#utility.yul\":6122:6126   */\n      dup3\n        /* \"#utility.yul\":6118:6132   */\n      sub\n        /* \"#utility.yul\":6111:6115   */\n      0x00\n        /* \"#utility.yul\":6106:6109   */\n      dup7\n        /* \"#utility.yul\":6102:6116   */\n      add\n        /* \"#utility.yul\":6095:6133   */\n      mstore\n        /* \"#utility.yul\":6154:6227   */\n      tag_239\n        /* \"#utility.yul\":6222:6226   */\n      dup3\n        /* \"#utility.yul\":6208:6220   */\n      dup3\n        /* \"#utility.yul\":6154:6227   */\n      tag_221\n      jump\t// in\n    tag_239:\n        /* \"#utility.yul\":6146:6227   */\n      swap2\n      pop\n        /* \"#utility.yul\":5999:6238   */\n      pop\n        /* \"#utility.yul\":6328:6332   */\n      0x20\n        /* \"#utility.yul\":6321:6326   */\n      dup4\n        /* \"#utility.yul\":6317:6333   */\n      add\n        /* \"#utility.yul\":6311:6334   */\n      mload\n        /* \"#utility.yul\":6347:6410   */\n      tag_240\n        /* \"#utility.yul\":6404:6408   */\n      0x20\n        /* \"#utility.yul\":6399:6402   */\n      dup7\n        /* \"#utility.yul\":6395:6409   */\n      add\n        /* \"#utility.yul\":6381:6393   */\n      dup3\n        /* \"#utility.yul\":6347:6410   */\n      tag_191\n      jump\t// in\n    tag_240:\n        /* \"#utility.yul\":6248:6420   */\n      pop\n        /* \"#utility.yul\":6508:6512   */\n      0x40\n        /* \"#utility.yul\":6501:6506   */\n      dup4\n        /* \"#utility.yul\":6497:6513   */\n      add\n        /* \"#utility.yul\":6491:6514   */\n      mload\n        /* \"#utility.yul\":6527:6600   */\n      tag_241\n        /* \"#utility.yul\":6594:6598   */\n      0x40\n        /* \"#utility.yul\":6589:6592   */\n      dup7\n        /* \"#utility.yul\":6585:6599   */\n      add\n        /* \"#utility.yul\":6571:6583   */\n      dup3\n        /* \"#utility.yul\":6527:6600   */\n      tag_213\n      jump\t// in\n    tag_241:\n        /* \"#utility.yul\":6430:6610   */\n      pop\n        /* \"#utility.yul\":6627:6631   */\n      dup1\n        /* \"#utility.yul\":6620:6631   */\n      swap2\n      pop\n        /* \"#utility.yul\":5953:6637   */\n      pop\n        /* \"#utility.yul\":5837:6637   */\n      swap3\n      swap2\n      pop\n      pop\n      jump\t// out\n        /* \"#utility.yul\":6689:8271   */\n    tag_190:\n        /* \"#utility.yul\":6790:6793   */\n      0x00\n        /* \"#utility.yul\":6826:6830   */\n      0xe0\n        /* \"#utility.yul\":6821:6824   */\n      dup4\n        /* \"#utility.yul\":6817:6831   */\n      add\n        /* \"#utility.yul\":6915:6919   */\n      0x00\n        /* \"#utility.yul\":6908:6913   */\n      dup4\n        /* \"#utility.yul\":6904:6920   */\n      add\n        /* \"#utility.yul\":6898:6921   */\n      mload\n        /* \"#utility.yul\":6968:6971   */\n      dup5\n        /* \"#utility.yul\":6962:6966   */\n      dup3\n        /* \"#utility.yul\":6958:6972   */\n      sub\n        /* \"#utility.yul\":6951:6955   */\n      0x00\n        /* \"#utility.yul\":6946:6949   */\n      dup7\n        /* \"#utility.yul\":6942:6956   */\n      add\n        /* \"#utility.yul\":6935:6973   */\n      mstore\n        /* \"#utility.yul\":6994:7067   */\n      tag_243\n        /* \"#utility.yul\":7062:7066   */\n      dup3\n        /* \"#utility.yul\":7048:7060   */\n      dup3\n        /* \"#utility.yul\":6994:7067   */\n      tag_221\n      jump\t// in\n    tag_243:\n        /* \"#utility.yul\":6986:7067   */\n      swap2\n      pop\n        /* \"#utility.yul\":6841:7078   */\n      pop\n        /* \"#utility.yul\":7164:7168   */\n      0x20\n        /* \"#utility.yul\":7157:7162   */\n      dup4\n        /* \"#utility.yul\":7153:7169   */\n      add\n        /* \"#utility.yul\":7147:7170   */\n      mload\n        /* \"#utility.yul\":7217:7220   */\n      dup5\n        /* \"#utility.yul\":7211:7215   */\n      dup3\n        /* \"#utility.yul\":7207:7221   */\n      sub\n        /* \"#utility.yul\":7200:7204   */\n      0x20\n        /* \"#utility.yul\":7195:7198   */\n      dup7\n        /* \"#utility.yul\":7191:7205   */\n      add\n        /* \"#utility.yul\":7184:7222   */\n      mstore\n        /* \"#utility.yul\":7243:7316   */\n      tag_244\n        /* \"#utility.yul\":7311:7315   */\n      dup3\n        /* \"#utility.yul\":7297:7309   */\n      dup3\n        /* \"#utility.yul\":7243:7316   */\n      tag_221\n      jump\t// in\n    tag_244:\n        /* \"#utility.yul\":7235:7316   */\n      swap2\n      pop\n        /* \"#utility.yul\":7088:7327   */\n      pop\n        /* \"#utility.yul\":7413:7417   */\n      0x40\n        /* \"#utility.yul\":7406:7411   */\n      dup4\n        /* \"#utility.yul\":7402:7418   */\n      add\n        /* \"#utility.yul\":7396:7419   */\n      mload\n        /* \"#utility.yul\":7432:7506   */\n      tag_245\n        /* \"#utility.yul\":7500:7504   */\n      0x40\n        /* \"#utility.yul\":7495:7498   */\n      dup7\n        /* \"#utility.yul\":7491:7505   */\n      add\n        /* \"#utility.yul\":7477:7489   */\n      dup3\n        /* \"#utility.yul\":7432:7506   */\n      tag_217\n      jump\t// in\n    tag_245:\n        /* \"#utility.yul\":7337:7516   */\n      pop\n        /* \"#utility.yul\":7604:7608   */\n      0x60\n        /* \"#utility.yul\":7597:7602   */\n      dup4\n        /* \"#utility.yul\":7593:7609   */\n      add\n        /* \"#utility.yul\":7587:7610   */\n      mload\n        /* \"#utility.yul\":7623:7696   */\n      tag_246\n        /* \"#utility.yul\":7690:7694   */\n      0x60\n        /* \"#utility.yul\":7685:7688   */\n      dup7\n        /* \"#utility.yul\":7681:7695   */\n      add\n        /* \"#utility.yul\":7667:7679   */\n      dup3\n        /* \"#utility.yul\":7623:7696   */\n      tag_213\n      jump\t// in\n    tag_246:\n        /* \"#utility.yul\":7526:7706   */\n      pop\n        /* \"#utility.yul\":7792:7796   */\n      0x80\n        /* \"#utility.yul\":7785:7790   */\n      dup4\n        /* \"#utility.yul\":7781:7797   */\n      add\n        /* \"#utility.yul\":7775:7798   */\n      mload\n        /* \"#utility.yul\":7811:7874   */\n      tag_247\n        /* \"#utility.yul\":7868:7872   */\n      0x80\n        /* \"#utility.yul\":7863:7866   */\n      dup7\n        /* \"#utility.yul\":7859:7873   */\n      add\n        /* \"#utility.yul\":7845:7857   */\n      dup3\n        /* \"#utility.yul\":7811:7874   */\n      tag_248\n      jump\t// in\n    tag_247:\n        /* \"#utility.yul\":7716:7884   */\n      pop\n        /* \"#utility.yul\":7971:7975   */\n      0xa0\n        /* \"#utility.yul\":7964:7969   */\n      dup4\n        /* \"#utility.yul\":7960:7976   */\n      add\n        /* \"#utility.yul\":7954:7977   */\n      mload\n        /* \"#utility.yul\":7990:8053   */\n      tag_249\n        /* \"#utility.yul\":8047:8051   */\n      0xa0\n        /* \"#utility.yul\":8042:8045   */\n      dup7\n        /* \"#utility.yul\":8038:8052   */\n      add\n        /* \"#utility.yul\":8024:8036   */\n      dup3\n        /* \"#utility.yul\":7990:8053   */\n      tag_248\n      jump\t// in\n    tag_249:\n        /* \"#utility.yul\":7894:8063   */\n      pop\n        /* \"#utility.yul\":8152:8156   */\n      0xc0\n        /* \"#utility.yul\":8145:8150   */\n      dup4\n        /* \"#utility.yul\":8141:8157   */\n      add\n        /* \"#utility.yul\":8135:8158   */\n      mload\n        /* \"#utility.yul\":8171:8234   */\n      tag_250\n        /* \"#utility.yul\":8228:8232   */\n      0xc0\n        /* \"#utility.yul\":8223:8226   */\n      dup7\n        /* \"#utility.yul\":8219:8233   */\n      add\n        /* \"#utility.yul\":8205:8217   */\n      dup3\n        /* \"#utility.yul\":8171:8234   */\n      tag_191\n      jump\t// in\n    tag_250:\n        /* \"#utility.yul\":8073:8244   */\n      pop\n        /* \"#utility.yul\":8261:8265   */\n      dup1\n        /* \"#utility.yul\":8254:8265   */\n      swap2\n      pop\n        /* \"#utility.yul\":6795:8271   */\n      pop\n        /* \"#utility.yul\":6689:8271   */\n      swap3\n      swap2\n      pop\n      pop\n      jump\t// out\n        /* \"#utility.yul\":8323:9915   */\n    tag_251:\n        /* \"#utility.yul\":8434:8437   */\n      0x00\n        /* \"#utility.yul\":8470:8474   */\n      0xe0\n        /* \"#utility.yul\":8465:8468   */\n      dup4\n        /* \"#utility.yul\":8461:8475   */\n      add\n        /* \"#utility.yul\":8559:8563   */\n      0x00\n        /* \"#utility.yul\":8552:8557   */\n      dup4\n        /* \"#utility.yul\":8548:8564   */\n      add\n        /* \"#utility.yul\":8542:8565   */\n      mload\n        /* \"#utility.yul\":8612:8615   */\n      dup5\n        /* \"#utility.yul\":8606:8610   */\n      dup3\n        /* \"#utility.yul\":8602:8616   */\n      sub\n        /* \"#utility.yul\":8595:8599   */\n      0x00\n        /* \"#utility.yul\":8590:8593   */\n      dup7\n        /* \"#utility.yul\":8586:8600   */\n      add\n        /* \"#utility.yul\":8579:8617   */\n      mstore\n        /* \"#utility.yul\":8638:8711   */\n      tag_253\n        /* \"#utility.yul\":8706:8710   */\n      dup3\n        /* \"#utility.yul\":8692:8704   */\n      dup3\n        /* \"#utility.yul\":8638:8711   */\n      tag_221\n      jump\t// in\n    tag_253:\n        /* \"#utility.yul\":8630:8711   */\n      swap2\n      pop\n        /* \"#utility.yul\":8485:8722   */\n      pop\n        /* \"#utility.yul\":8808:8812   */\n      0x20\n        /* \"#utility.yul\":8801:8806   */\n      dup4\n        /* \"#utility.yul\":8797:8813   */\n      add\n        /* \"#utility.yul\":8791:8814   */\n      mload\n        /* \"#utility.yul\":8861:8864   */\n      dup5\n        /* \"#utility.yul\":8855:8859   */\n      dup3\n        /* \"#utility.yul\":8851:8865   */\n      sub\n        /* \"#utility.yul\":8844:8848   */\n      0x20\n        /* \"#utility.yul\":8839:8842   */\n      dup7\n        /* \"#utility.yul\":8835:8849   */\n      add\n        /* \"#utility.yul\":8828:8866   */\n      mstore\n        /* \"#utility.yul\":8887:8960   */\n      tag_254\n        /* \"#utility.yul\":8955:8959   */\n      dup3\n        /* \"#utility.yul\":8941:8953   */\n      dup3\n        /* \"#utility.yul\":8887:8960   */\n      tag_221\n      jump\t// in\n    tag_254:\n        /* \"#utility.yul\":8879:8960   */\n      swap2\n      pop\n        /* \"#utility.yul\":8732:8971   */\n      pop\n        /* \"#utility.yul\":9057:9061   */\n      0x40\n        /* \"#utility.yul\":9050:9055   */\n      dup4\n        /* \"#utility.yul\":9046:9062   */\n      add\n        /* \"#utility.yul\":9040:9063   */\n      mload\n        /* \"#utility.yul\":9076:9150   */\n      tag_255\n        /* \"#utility.yul\":9144:9148   */\n      0x40\n        /* \"#utility.yul\":9139:9142   */\n      dup7\n        /* \"#utility.yul\":9135:9149   */\n      add\n        /* \"#utility.yul\":9121:9133   */\n      dup3\n        /* \"#utility.yul\":9076:9150   */\n      tag_217\n      jump\t// in\n    tag_255:\n        /* \"#utility.yul\":8981:9160   */\n      pop\n        /* \"#utility.yul\":9248:9252   */\n      0x60\n        /* \"#utility.yul\":9241:9246   */\n      dup4\n        /* \"#utility.yul\":9237:9253   */\n      add\n        /* \"#utility.yul\":9231:9254   */\n      mload\n        /* \"#utility.yul\":9267:9340   */\n      tag_256\n        /* \"#utility.yul\":9334:9338   */\n      0x60\n        /* \"#utility.yul\":9329:9332   */\n      dup7\n        /* \"#utility.yul\":9325:9339   */\n      add\n        /* \"#utility.yul\":9311:9323   */\n      dup3\n        /* \"#utility.yul\":9267:9340   */\n      tag_213\n      jump\t// in\n    tag_256:\n        /* \"#utility.yul\":9170:9350   */\n      pop\n        /* \"#utility.yul\":9436:9440   */\n      0x80\n        /* \"#utility.yul\":9429:9434   */\n      dup4\n        /* \"#utility.yul\":9425:9441   */\n      add\n        /* \"#utility.yul\":9419:9442   */\n      mload\n        /* \"#utility.yul\":9455:9518   */\n      tag_257\n        /* \"#utility.yul\":9512:9516   */\n      0x80\n        /* \"#utility.yul\":9507:9510   */\n      dup7\n        /* \"#utility.yul\":9503:9517   */\n      add\n        /* \"#utility.yul\":9489:9501   */\n      dup3\n        /* \"#utility.yul\":9455:9518   */\n      tag_248\n      jump\t// in\n    tag_257:\n        /* \"#utility.yul\":9360:9528   */\n      pop\n        /* \"#utility.yul\":9615:9619   */\n      0xa0\n        /* \"#utility.yul\":9608:9613   */\n      dup4\n        /* \"#utility.yul\":9604:9620   */\n      add\n        /* \"#utility.yul\":9598:9621   */\n      mload\n        /* \"#utility.yul\":9634:9697   */\n      tag_258\n        /* \"#utility.yul\":9691:9695   */\n      0xa0\n        /* \"#utility.yul\":9686:9689   */\n      dup7\n        /* \"#utility.yul\":9682:9696   */\n      add\n        /* \"#utility.yul\":9668:9680   */\n      dup3\n        /* \"#utility.yul\":9634:9697   */\n      tag_248\n      jump\t// in\n    tag_258:\n        /* \"#utility.yul\":9538:9707   */\n      pop\n        /* \"#utility.yul\":9796:9800   */\n      0xc0\n        /* \"#utility.yul\":9789:9794   */\n      dup4\n        /* \"#utility.yul\":9785:9801   */\n      add\n        /* \"#utility.yul\":9779:9802   */\n      mload\n        /* \"#utility.yul\":9815:9878   */\n      tag_259\n        /* \"#utility.yul\":9872:9876   */\n      0xc0\n        /* \"#utility.yul\":9867:9870   */\n      dup7\n        /* \"#utility.yul\":9863:9877   */\n      add\n        /* \"#utility.yul\":9849:9861   */\n      dup3\n        /* \"#utility.yul\":9815:9878   */\n      tag_191\n      jump\t// in\n    tag_259:\n        /* \"#utility.yul\":9717:9888   */\n      pop\n        /* \"#utility.yul\":9905:9909   */\n      dup1\n        /* \"#utility.yul\":9898:9909   */\n      swap2\n      pop\n        /* \"#utility.yul\":8439:9915   */\n      pop\n        /* \"#utility.yul\":8323:9915   */\n      swap3\n      swap2\n      pop\n      pop\n      jump\t// out\n        /* \"#utility.yul\":9921:10029   */\n    tag_248:\n        /* \"#utility.yul\":9998:10022   */\n      tag_261\n        /* \"#utility.yul\":10016:10021   */\n      dup2\n        /* \"#utility.yul\":9998:10022   */\n      tag_262\n      jump\t// in\n    tag_261:\n        /* \"#utility.yul\":9993:9996   */\n      dup3\n        /* \"#utility.yul\":9986:10023   */\n      mstore\n        /* \"#utility.yul\":9921:10029   */\n      pop\n      pop\n      jump\t// out\n        /* \"#utility.yul\":10035:10310   */\n    tag_117:\n        /* \"#utility.yul\":10167:10170   */\n      0x00\n        /* \"#utility.yul\":10189:10284   */\n      tag_264\n        /* \"#utility.yul\":10280:10283   */\n      dup3\n        /* \"#utility.yul\":10271:10277   */\n      dup5\n        /* \"#utility.yul\":10189:10284   */\n      tag_231\n      jump\t// in\n    tag_264:\n        /* \"#utility.yul\":10182:10284   */\n      swap2\n      pop\n        /* \"#utility.yul\":10301:10304   */\n      dup2\n        /* \"#utility.yul\":10294:10304   */\n      swap1\n      pop\n        /* \"#utility.yul\":10035:10310   */\n      swap3\n      swap2\n      pop\n      pop\n      jump\t// out\n        /* \"#utility.yul\":10316:10773   */\n    tag_12:\n        /* \"#utility.yul\":10501:10505   */\n      0x00\n        /* \"#utility.yul\":10539:10541   */\n      0x20\n        /* \"#utility.yul\":10528:10537   */\n      dup3\n        /* \"#utility.yul\":10524:10542   */\n      add\n        /* \"#utility.yul\":10516:10542   */\n      swap1\n      pop\n        /* \"#utility.yul\":10588:10597   */\n      dup2\n        /* \"#utility.yul\":10582:10586   */\n      dup2\n        /* \"#utility.yul\":10578:10598   */\n      sub\n        /* \"#utility.yul\":10574:10575   */\n      0x00\n        /* \"#utility.yul\":10563:10572   */\n      dup4\n        /* \"#utility.yul\":10559:10576   */\n      add\n        /* \"#utility.yul\":10552:10599   */\n      mstore\n        /* \"#utility.yul\":10616:10766   */\n      tag_266\n        /* \"#utility.yul\":10761:10765   */\n      dup2\n        /* \"#utility.yul\":10752:10758   */\n      dup5\n        /* \"#utility.yul\":10616:10766   */\n      tag_195\n      jump\t// in\n    tag_266:\n        /* \"#utility.yul\":10608:10766   */\n      swap1\n      pop\n        /* \"#utility.yul\":10316:10773   */\n      swap3\n      swap2\n      pop\n      pop\n      jump\t// out\n        /* \"#utility.yul\":10779:10989   */\n    tag_30:\n        /* \"#utility.yul\":10866:10870   */\n      0x00\n        /* \"#utility.yul\":10904:10906   */\n      0x20\n        /* \"#utility.yul\":10893:10902   */\n      dup3\n        /* \"#utility.yul\":10889:10907   */\n      add\n        /* \"#utility.yul\":10881:10907   */\n      swap1\n      pop\n        /* \"#utility.yul\":10917:10982   */\n      tag_268\n        /* \"#utility.yul\":10979:10980   */\n      0x00\n        /* \"#utility.yul\":10968:10977   */\n      dup4\n        /* \"#utility.yul\":10964:10981   */\n      add\n        /* \"#utility.yul\":10955:10961   */\n      dup5\n        /* \"#utility.yul\":10917:10982   */\n      tag_209\n      jump\t// in\n    tag_268:\n        /* \"#utility.yul\":10779:10989   */\n      swap3\n      swap2\n      pop\n      pop\n      jump\t// out\n        /* \"#utility.yul\":10995:11352   */\n    tag_24:\n        /* \"#utility.yul\":11130:11134   */\n      0x00\n        /* \"#utility.yul\":11168:11170   */\n      0x20\n        /* \"#utility.yul\":11157:11166   */\n      dup3\n        /* \"#utility.yul\":11153:11171   */\n      add\n        /* \"#utility.yul\":11145:11171   */\n      swap1\n      pop\n        /* \"#utility.yul\":11217:11226   */\n      dup2\n        /* \"#utility.yul\":11211:11215   */\n      dup2\n        /* \"#utility.yul\":11207:11227   */\n      sub\n        /* \"#utility.yul\":11203:11204   */\n      0x00\n        /* \"#utility.yul\":11192:11201   */\n      dup4\n        /* \"#utility.yul\":11188:11205   */\n      add\n        /* \"#utility.yul\":11181:11228   */\n      mstore\n        /* \"#utility.yul\":11245:11345   */\n      tag_270\n        /* \"#utility.yul\":11340:11344   */\n      dup2\n        /* \"#utility.yul\":11331:11337   */\n      dup5\n        /* \"#utility.yul\":11245:11345   */\n      tag_237\n      jump\t// in\n    tag_270:\n        /* \"#utility.yul\":11237:11345   */\n      swap1\n      pop\n        /* \"#utility.yul\":10995:11352   */\n      swap3\n      swap2\n      pop\n      pop\n      jump\t// out\n        /* \"#utility.yul\":11358:11715   */\n    tag_18:\n        /* \"#utility.yul\":11493:11497   */\n      0x00\n        /* \"#utility.yul\":11531:11533   */\n      0x20\n        /* \"#utility.yul\":11520:11529   */\n      dup3\n        /* \"#utility.yul\":11516:11534   */\n      add\n        /* \"#utility.yul\":11508:11534   */\n      swap1\n      pop\n        /* \"#utility.yul\":11580:11589   */\n      dup2\n        /* \"#utility.yul\":11574:11578   */\n      dup2\n        /* \"#utility.yul\":11570:11590   */\n      sub\n        /* \"#utility.yul\":11566:11567   */\n      0x00\n        /* \"#utility.yul\":11555:11564   */\n      dup4\n        /* \"#utility.yul\":11551:11568   */\n      add\n        /* \"#utility.yul\":11544:11591   */\n      mstore\n        /* \"#utility.yul\":11608:11708   */\n      tag_272\n        /* \"#utility.yul\":11703:11707   */\n      dup2\n        /* \"#utility.yul\":11694:11700   */\n      dup5\n        /* \"#utility.yul\":11608:11708   */\n      tag_251\n      jump\t// in\n    tag_272:\n        /* \"#utility.yul\":11600:11708   */\n      swap1\n      pop\n        /* \"#utility.yul\":11358:11715   */\n      swap3\n      swap2\n      pop\n      pop\n      jump\t// out\n        /* \"#utility.yul\":11721:11850   */\n    tag_142:\n        /* \"#utility.yul\":11755:11761   */\n      0x00\n        /* \"#utility.yul\":11782:11802   */\n      tag_274\n      tag_275\n      jump\t// in\n    tag_274:\n        /* \"#utility.yul\":11772:11802   */\n      swap1\n      pop\n        /* \"#utility.yul\":11811:11844   */\n      tag_276\n        /* \"#utility.yul\":11839:11843   */\n      dup3\n        /* \"#utility.yul\":11831:11837   */\n      dup3\n        /* \"#utility.yul\":11811:11844   */\n      tag_277\n      jump\t// in\n    tag_276:\n        /* \"#utility.yul\":11721:11850   */\n      swap2\n      swap1\n      pop\n      jump\t// out\n        /* \"#utility.yul\":11856:11931   */\n    tag_275:\n        /* \"#utility.yul\":11889:11895   */\n      0x00\n        /* \"#utility.yul\":11922:11924   */\n      0x40\n        /* \"#utility.yul\":11916:11925   */\n      mload\n        /* \"#utility.yul\":11906:11925   */\n      swap1\n      pop\n        /* \"#utility.yul\":11856:11931   */\n      swap1\n      jump\t// out\n        /* \"#utility.yul\":11937:12245   */\n    tag_141:\n        /* \"#utility.yul\":11999:12003   */\n      0x00\n        /* \"#utility.yul\":12089:12107   */\n      0xffffffffffffffff\n        /* \"#utility.yul\":12081:12087   */\n      dup3\n        /* \"#utility.yul\":12078:12108   */\n      gt\n        /* \"#utility.yul\":12075:12131   */\n      iszero\n      tag_280\n      jumpi\n        /* \"#utility.yul\":12111:12129   */\n      tag_281\n      tag_34\n      jump\t// in\n    tag_281:\n        /* \"#utility.yul\":12075:12131   */\n    tag_280:\n        /* \"#utility.yul\":12149:12178   */\n      tag_282\n        /* \"#utility.yul\":12171:12177   */\n      dup3\n        /* \"#utility.yul\":12149:12178   */\n      tag_230\n      jump\t// in\n    tag_282:\n        /* \"#utility.yul\":12141:12178   */\n      swap1\n      pop\n        /* \"#utility.yul\":12233:12237   */\n      0x20\n        /* \"#utility.yul\":12227:12231   */\n      dup2\n        /* \"#utility.yul\":12223:12238   */\n      add\n        /* \"#utility.yul\":12215:12238   */\n      swap1\n      pop\n        /* \"#utility.yul\":11937:12245   */\n      swap2\n      swap1\n      pop\n      jump\t// out\n        /* \"#utility.yul\":12251:12404   */\n    tag_202:\n        /* \"#utility.yul\":12339:12343   */\n      0x00\n        /* \"#utility.yul\":12362:12365   */\n      dup2\n        /* \"#utility.yul\":12354:12365   */\n      swap1\n      pop\n        /* \"#utility.yul\":12392:12396   */\n      0x20\n        /* \"#utility.yul\":12387:12390   */\n      dup3\n        /* \"#utility.yul\":12383:12397   */\n      add\n        /* \"#utility.yul\":12375:12397   */\n      swap1\n      pop\n        /* \"#utility.yul\":12251:12404   */\n      swap2\n      swap1\n      pop\n      jump\t// out\n        /* \"#utility.yul\":12410:12545   */\n    tag_198:\n        /* \"#utility.yul\":12498:12504   */\n      0x00\n        /* \"#utility.yul\":12532:12537   */\n      dup2\n        /* \"#utility.yul\":12526:12538   */\n      mload\n        /* \"#utility.yul\":12516:12538   */\n      swap1\n      pop\n        /* \"#utility.yul\":12410:12545   */\n      swap2\n      swap1\n      pop\n      jump\t// out\n        /* \"#utility.yul\":12551:12650   */\n    tag_224:\n        /* \"#utility.yul\":12603:12609   */\n      0x00\n        /* \"#utility.yul\":12637:12642   */\n      dup2\n        /* \"#utility.yul\":12631:12643   */\n      mload\n        /* \"#utility.yul\":12621:12643   */\n      swap1\n      pop\n        /* \"#utility.yul\":12551:12650   */\n      swap2\n      swap1\n      pop\n      jump\t// out\n        /* \"#utility.yul\":12656:12790   */\n    tag_208:\n        /* \"#utility.yul\":12747:12751   */\n      0x00\n        /* \"#utility.yul\":12779:12783   */\n      0x20\n        /* \"#utility.yul\":12774:12777   */\n      dup3\n        /* \"#utility.yul\":12770:12784   */\n      add\n        /* \"#utility.yul\":12762:12784   */\n      swap1\n      pop\n        /* \"#utility.yul\":12656:12790   */\n      swap2\n      swap1\n      pop\n      jump\t// out\n        /* \"#utility.yul\":12796:13001   */\n    tag_200:\n        /* \"#utility.yul\":12916:12927   */\n      0x00\n        /* \"#utility.yul\":12950:12956   */\n      dup3\n        /* \"#utility.yul\":12945:12948   */\n      dup3\n        /* \"#utility.yul\":12938:12957   */\n      mstore\n        /* \"#utility.yul\":12990:12994   */\n      0x20\n        /* \"#utility.yul\":12985:12988   */\n      dup3\n        /* \"#utility.yul\":12981:12995   */\n      add\n        /* \"#utility.yul\":12966:12995   */\n      swap1\n      pop\n        /* \"#utility.yul\":12796:13001   */\n      swap3\n      swap2\n      pop\n      pop\n      jump\t// out\n        /* \"#utility.yul\":13007:13166   */\n    tag_226:\n        /* \"#utility.yul\":13081:13092   */\n      0x00\n        /* \"#utility.yul\":13115:13121   */\n      dup3\n        /* \"#utility.yul\":13110:13113   */\n      dup3\n        /* \"#utility.yul\":13103:13122   */\n      mstore\n        /* \"#utility.yul\":13155:13159   */\n      0x20\n        /* \"#utility.yul\":13150:13153   */\n      dup3\n        /* \"#utility.yul\":13146:13160   */\n      add\n        /* \"#utility.yul\":13131:13160   */\n      swap1\n      pop\n        /* \"#utility.yul\":13007:13166   */\n      swap3\n      swap2\n      pop\n      pop\n      jump\t// out\n        /* \"#utility.yul\":13172:13320   */\n    tag_235:\n        /* \"#utility.yul\":13274:13285   */\n      0x00\n        /* \"#utility.yul\":13311:13314   */\n      dup2\n        /* \"#utility.yul\":13296:13314   */\n      swap1\n      pop\n        /* \"#utility.yul\":13172:13320   */\n      swap3\n      swap2\n      pop\n      pop\n      jump\t// out\n        /* \"#utility.yul\":13326:13631   */\n    tag_77:\n        /* \"#utility.yul\":13366:13369   */\n      0x00\n        /* \"#utility.yul\":13385:13405   */\n      tag_291\n        /* \"#utility.yul\":13403:13404   */\n      dup3\n        /* \"#utility.yul\":13385:13405   */\n      tag_262\n      jump\t// in\n    tag_291:\n        /* \"#utility.yul\":13380:13405   */\n      swap2\n      pop\n        /* \"#utility.yul\":13419:13439   */\n      tag_292\n        /* \"#utility.yul\":13437:13438   */\n      dup4\n        /* \"#utility.yul\":13419:13439   */\n      tag_262\n      jump\t// in\n    tag_292:\n        /* \"#utility.yul\":13414:13439   */\n      swap3\n      pop\n        /* \"#utility.yul\":13573:13574   */\n      dup3\n        /* \"#utility.yul\":13505:13571   */\n      0xffffffffffffffffffffffffffffffffffffffffffffffffffffffffffffffff\n        /* \"#utility.yul\":13501:13575   */\n      sub\n        /* \"#utility.yul\":13498:13499   */\n      dup3\n        /* \"#utility.yul\":13495:13576   */\n      gt\n        /* \"#utility.yul\":13492:13599   */\n      iszero\n      tag_293\n      jumpi\n        /* \"#utility.yul\":13579:13597   */\n      tag_294\n      tag_295\n      jump\t// in\n    tag_294:\n        /* \"#utility.yul\":13492:13599   */\n    tag_293:\n        /* \"#utility.yul\":13623:13624   */\n      dup3\n        /* \"#utility.yul\":13620:13621   */\n      dup3\n        /* \"#utility.yul\":13616:13625   */\n      add\n        /* \"#utility.yul\":13609:13625   */\n      swap1\n      pop\n        /* \"#utility.yul\":13326:13631   */\n      swap3\n      swap2\n      pop\n      pop\n      jump\t// out\n        /* \"#utility.yul\":13637:13733   */\n    tag_194:\n        /* \"#utility.yul\":13674:13681   */\n      0x00\n        /* \"#utility.yul\":13703:13727   */\n      tag_297\n        /* \"#utility.yul\":13721:13726   */\n      dup3\n        /* \"#utility.yul\":13703:13727   */\n      tag_298\n      jump\t// in\n    tag_297:\n        /* \"#utility.yul\":13692:13727   */\n      swap1\n      pop\n        /* \"#utility.yul\":13637:13733   */\n      swap2\n      swap1\n      pop\n      jump\t// out\n        /* \"#utility.yul\":13739:13829   */\n    tag_212:\n        /* \"#utility.yul\":13773:13780   */\n      0x00\n        /* \"#utility.yul\":13816:13821   */\n      dup2\n        /* \"#utility.yul\":13809:13822   */\n      iszero\n        /* \"#utility.yul\":13802:13823   */\n      iszero\n        /* \"#utility.yul\":13791:13823   */\n      swap1\n      pop\n        /* \"#utility.yul\":13739:13829   */\n      swap2\n      swap1\n      pop\n      jump\t// out\n        /* \"#utility.yul\":13835:13970   */\n    tag_300:\n        /* \"#utility.yul\":13884:13891   */\n      0x00\n        /* \"#utility.yul\":13913:13918   */\n      dup2\n        /* \"#utility.yul\":13902:13918   */\n      swap1\n      pop\n        /* \"#utility.yul\":13919:13964   */\n      tag_302\n        /* \"#utility.yul\":13958:13963   */\n      dup3\n        /* \"#utility.yul\":13919:13964   */\n      tag_303\n      jump\t// in\n    tag_302:\n        /* \"#utility.yul\":13835:13970   */\n      swap2\n      swap1\n      pop\n      jump\t// out\n        /* \"#utility.yul\":13976:14113   */\n    tag_304:\n        /* \"#utility.yul\":14026:14033   */\n      0x00\n        /* \"#utility.yul\":14055:14060   */\n      dup2\n        /* \"#utility.yul\":14044:14060   */\n      swap1\n      pop\n        /* \"#utility.yul\":14061:14107   */\n      tag_306\n        /* \"#utility.yul\":14101:14106   */\n      dup3\n        /* \"#utility.yul\":14061:14107   */\n      tag_307\n      jump\t// in\n    tag_306:\n        /* \"#utility.yul\":13976:14113   */\n      swap2\n      swap1\n      pop\n      jump\t// out\n        /* \"#utility.yul\":14119:14245   */\n    tag_298:\n        /* \"#utility.yul\":14156:14163   */\n      0x00\n        /* \"#utility.yul\":14196:14238   */\n      0xffffffffffffffffffffffffffffffffffffffff\n        /* \"#utility.yul\":14189:14194   */\n      dup3\n        /* \"#utility.yul\":14185:14239   */\n      and\n        /* \"#utility.yul\":14174:14239   */\n      swap1\n      pop\n        /* \"#utility.yul\":14119:14245   */\n      swap2\n      swap1\n      pop\n      jump\t// out\n        /* \"#utility.yul\":14251:14328   */\n    tag_262:\n        /* \"#utility.yul\":14288:14295   */\n      0x00\n        /* \"#utility.yul\":14317:14322   */\n      dup2\n        /* \"#utility.yul\":14306:14322   */\n      swap1\n      pop\n        /* \"#utility.yul\":14251:14328   */\n      swap2\n      swap1\n      pop\n      jump\t// out\n        /* \"#utility.yul\":14334:14469   */\n    tag_216:\n        /* \"#utility.yul\":14394:14403   */\n      0x00\n        /* \"#utility.yul\":14427:14463   */\n      tag_311\n        /* \"#utility.yul\":14457:14462   */\n      dup3\n        /* \"#utility.yul\":14427:14463   */\n      tag_300\n      jump\t// in\n    tag_311:\n        /* \"#utility.yul\":14414:14463   */\n      swap1\n      pop\n        /* \"#utility.yul\":14334:14469   */\n      swap2\n      swap1\n      pop\n      jump\t// out\n        /* \"#utility.yul\":14475:14612   */\n    tag_220:\n        /* \"#utility.yul\":14536:14545   */\n      0x00\n        /* \"#utility.yul\":14569:14606   */\n      tag_313\n        /* \"#utility.yul\":14600:14605   */\n      dup3\n        /* \"#utility.yul\":14569:14606   */\n      tag_304\n      jump\t// in\n    tag_313:\n        /* \"#utility.yul\":14556:14606   */\n      swap1\n      pop\n        /* \"#utility.yul\":14475:14612   */\n      swap2\n      swap1\n      pop\n      jump\t// out\n        /* \"#utility.yul\":14618:14772   */\n    tag_147:\n        /* \"#utility.yul\":14702:14708   */\n      dup3\n        /* \"#utility.yul\":14697:14700   */\n      dup2\n        /* \"#utility.yul\":14692:14695   */\n      dup4\n        /* \"#utility.yul\":14679:14709   */\n      calldatacopy\n        /* \"#utility.yul\":14764:14765   */\n      0x00\n        /* \"#utility.yul\":14755:14761   */\n      dup4\n        /* \"#utility.yul\":14750:14753   */\n      dup4\n        /* \"#utility.yul\":14746:14762   */\n      add\n        /* \"#utility.yul\":14739:14766   */\n      mstore\n        /* \"#utility.yul\":14618:14772   */\n      pop\n      pop\n      pop\n      jump\t// out\n        /* \"#utility.yul\":14778:15085   */\n    tag_228:\n        /* \"#utility.yul\":14846:14847   */\n      0x00\n        /* \"#utility.yul\":14856:14969   */\n    tag_316:\n        /* \"#utility.yul\":14870:14876   */\n      dup4\n        /* \"#utility.yul\":14867:14868   */\n      dup2\n        /* \"#utility.yul\":14864:14877   */\n      lt\n        /* \"#utility.yul\":14856:14969   */\n      iszero\n      tag_318\n      jumpi\n        /* \"#utility.yul\":14955:14956   */\n      dup1\n        /* \"#utility.yul\":14950:14953   */\n      dup3\n        /* \"#utility.yul\":14946:14957   */\n      add\n        /* \"#utility.yul\":14940:14958   */\n      mload\n        /* \"#utility.yul\":14936:14937   */\n      dup2\n        /* \"#utility.yul\":14931:14934   */\n      dup5\n        /* \"#utility.yul\":14927:14938   */\n      add\n        /* \"#utility.yul\":14920:14959   */\n      mstore\n        /* \"#utility.yul\":14892:14894   */\n      0x20\n        /* \"#utility.yul\":14889:14890   */\n      dup2\n        /* \"#utility.yul\":14885:14895   */\n      add\n        /* \"#utility.yul\":14880:14895   */\n      swap1\n      pop\n        /* \"#utility.yul\":14856:14969   */\n      jump(tag_316)\n    tag_318:\n        /* \"#utility.yul\":14987:14993   */\n      dup4\n        /* \"#utility.yul\":14984:14985   */\n      dup2\n        /* \"#utility.yul\":14981:14994   */\n      gt\n        /* \"#utility.yul\":14978:15079   */\n      iszero\n      tag_319\n      jumpi\n        /* \"#utility.yul\":15067:15068   */\n      0x00\n        /* \"#utility.yul\":15058:15064   */\n      dup5\n        /* \"#utility.yul\":15053:15056   */\n      dup5\n        /* \"#utility.yul\":15049:15065   */\n      add\n        /* \"#utility.yul\":15042:15069   */\n      mstore\n        /* \"#utility.yul\":14978:15079   */\n    tag_319:\n        /* \"#utility.yul\":14827:15085   */\n      pop\n        /* \"#utility.yul\":14778:15085   */\n      pop\n      pop\n      pop\n      jump\t// out\n        /* \"#utility.yul\":15091:15411   */\n    tag_56:\n        /* \"#utility.yul\":15135:15141   */\n      0x00\n        /* \"#utility.yul\":15172:15173   */\n      0x02\n        /* \"#utility.yul\":15166:15170   */\n      dup3\n        /* \"#utility.yul\":15162:15174   */\n      div\n        /* \"#utility.yul\":15152:15174   */\n      swap1\n      pop\n        /* \"#utility.yul\":15219:15220   */\n      0x01\n        /* \"#utility.yul\":15213:15217   */\n      dup3\n        /* \"#utility.yul\":15209:15221   */\n      and\n        /* \"#utility.yul\":15240:15258   */\n      dup1\n        /* \"#utility.yul\":15230:15311   */\n      tag_321\n      jumpi\n        /* \"#utility.yul\":15296:15300   */\n      0x7f\n        /* \"#utility.yul\":15288:15294   */\n      dup3\n        /* \"#utility.yul\":15284:15301   */\n      and\n        /* \"#utility.yul\":15274:15301   */\n      swap2\n      pop\n        /* \"#utility.yul\":15230:15311   */\n    tag_321:\n        /* \"#utility.yul\":15358:15360   */\n      0x20\n        /* \"#utility.yul\":15350:15356   */\n      dup3\n        /* \"#utility.yul\":15347:15361   */\n      lt\n        /* \"#utility.yul\":15327:15345   */\n      dup2\n        /* \"#utility.yul\":15324:15362   */\n      eq\n        /* \"#utility.yul\":15321:15405   */\n      iszero\n      tag_322\n      jumpi\n        /* \"#utility.yul\":15377:15395   */\n      tag_323\n      tag_324\n      jump\t// in\n    tag_323:\n        /* \"#utility.yul\":15321:15405   */\n    tag_322:\n        /* \"#utility.yul\":15142:15411   */\n      pop\n        /* \"#utility.yul\":15091:15411   */\n      swap2\n      swap1\n      pop\n      jump\t// out\n        /* \"#utility.yul\":15417:15698   */\n    tag_277:\n        /* \"#utility.yul\":15500:15527   */\n      tag_326\n        /* \"#utility.yul\":15522:15526   */\n      dup3\n        /* \"#utility.yul\":15500:15527   */\n      tag_230\n      jump\t// in\n    tag_326:\n        /* \"#utility.yul\":15492:15498   */\n      dup2\n        /* \"#utility.yul\":15488:15528   */\n      add\n        /* \"#utility.yul\":15630:15636   */\n      dup2\n        /* \"#utility.yul\":15618:15628   */\n      dup2\n        /* \"#utility.yul\":15615:15637   */\n      lt\n        /* \"#utility.yul\":15594:15612   */\n      0xffffffffffffffff\n        /* \"#utility.yul\":15582:15592   */\n      dup3\n        /* \"#utility.yul\":15579:15613   */\n      gt\n        /* \"#utility.yul\":15576:15638   */\n      or\n        /* \"#utility.yul\":15573:15661   */\n      iszero\n      tag_327\n      jumpi\n        /* \"#utility.yul\":15641:15659   */\n      tag_328\n      tag_34\n      jump\t// in\n    tag_328:\n        /* \"#utility.yul\":15573:15661   */\n    tag_327:\n        /* \"#utility.yul\":15681:15691   */\n      dup1\n        /* \"#utility.yul\":15677:15679   */\n      0x40\n        /* \"#utility.yul\":15670:15692   */\n      mstore\n        /* \"#utility.yul\":15460:15698   */\n      pop\n        /* \"#utility.yul\":15417:15698   */\n      pop\n      pop\n      jump\t// out\n        /* \"#utility.yul\":15704:15937   */\n    tag_79:\n        /* \"#utility.yul\":15743:15746   */\n      0x00\n        /* \"#utility.yul\":15766:15790   */\n      tag_330\n        /* \"#utility.yul\":15784:15789   */\n      dup3\n        /* \"#utility.yul\":15766:15790   */\n      tag_262\n      jump\t// in\n    tag_330:\n        /* \"#utility.yul\":15757:15790   */\n      swap2\n      pop\n        /* \"#utility.yul\":15812:15878   */\n      0xffffffffffffffffffffffffffffffffffffffffffffffffffffffffffffffff\n        /* \"#utility.yul\":15805:15810   */\n      dup3\n        /* \"#utility.yul\":15802:15879   */\n      eq\n        /* \"#utility.yul\":15799:15902   */\n      iszero\n      tag_331\n      jumpi\n        /* \"#utility.yul\":15882:15900   */\n      tag_332\n      tag_295\n      jump\t// in\n    tag_332:\n        /* \"#utility.yul\":15799:15902   */\n    tag_331:\n        /* \"#utility.yul\":15929:15930   */\n      0x01\n        /* \"#utility.yul\":15922:15927   */\n      dup3\n        /* \"#utility.yul\":15918:15931   */\n      add\n        /* \"#utility.yul\":15911:15931   */\n      swap1\n      pop\n        /* \"#utility.yul\":15704:15937   */\n      swap2\n      swap1\n      pop\n      jump\t// out\n        /* \"#utility.yul\":15943:16123   */\n    tag_295:\n        /* \"#utility.yul\":15991:16068   */\n      0x4e487b7100000000000000000000000000000000000000000000000000000000\n        /* \"#utility.yul\":15988:15989   */\n      0x00\n        /* \"#utility.yul\":15981:16069   */\n      mstore\n        /* \"#utility.yul\":16088:16092   */\n      0x11\n        /* \"#utility.yul\":16085:16086   */\n      0x04\n        /* \"#utility.yul\":16078:16093   */\n      mstore\n        /* \"#utility.yul\":16112:16116   */\n      0x24\n        /* \"#utility.yul\":16109:16110   */\n      0x00\n        /* \"#utility.yul\":16102:16117   */\n      revert\n        /* \"#utility.yul\":16129:16309   */\n    tag_44:\n        /* \"#utility.yul\":16177:16254   */\n      0x4e487b7100000000000000000000000000000000000000000000000000000000\n        /* \"#utility.yul\":16174:16175   */\n      0x00\n        /* \"#utility.yul\":16167:16255   */\n      mstore\n        /* \"#utility.yul\":16274:16278   */\n      0x21\n        /* \"#utility.yul\":16271:16272   */\n      0x04\n        /* \"#utility.yul\":16264:16279   */\n      mstore\n        /* \"#utility.yul\":16298:16302   */\n      0x24\n        /* \"#utility.yul\":16295:16296   */\n      0x00\n        /* \"#utility.yul\":16288:16303   */\n      revert\n        /* \"#utility.yul\":16315:16495   */\n    tag_324:\n        /* \"#utility.yul\":16363:16440   */\n      0x4e487b7100000000000000000000000000000000000000000000000000000000\n        /* \"#utility.yul\":16360:16361   */\n      0x00\n        /* \"#utility.yul\":16353:16441   */\n      mstore\n        /* \"#utility.yul\":16460:16464   */\n      0x22\n        /* \"#utility.yul\":16457:16458   */\n      0x04\n        /* \"#utility.yul\":16450:16465   */\n      mstore\n        /* \"#utility.yul\":16484:16488   */\n      0x24\n        /* \"#utility.yul\":16481:16482   */\n      0x00\n        /* \"#utility.yul\":16474:16489   */\n      revert\n        /* \"#utility.yul\":16501:16681   */\n    tag_47:\n        /* \"#utility.yul\":16549:16626   */\n      0x4e487b7100000000000000000000000000000000000000000000000000000000\n        /* \"#utility.yul\":16546:16547   */\n      0x00\n        /* \"#utility.yul\":16539:16627   */\n      mstore\n        /* \"#utility.yul\":16646:16650   */\n      0x32\n        /* \"#utility.yul\":16643:16644   */\n      0x04\n        /* \"#utility.yul\":16636:16651   */\n      mstore\n        /* \"#utility.yul\":16670:16674   */\n      0x24\n        /* \"#utility.yul\":16667:16668   */\n      0x00\n        /* \"#utility.yul\":16660:16675   */\n      revert\n        /* \"#utility.yul\":16687:16867   */\n    tag_34:\n        /* \"#utility.yul\":16735:16812   */\n      0x4e487b7100000000000000000000000000000000000000000000000000000000\n        /* \"#utility.yul\":16732:16733   */\n      0x00\n        /* \"#utility.yul\":16725:16813   */\n      mstore\n        /* \"#utility.yul\":16832:16836   */\n      0x41\n        /* \"#utility.yul\":16829:16830   */\n      0x04\n        /* \"#utility.yul\":16822:16837   */\n      mstore\n        /* \"#utility.yul\":16856:16860   */\n      0x24\n        /* \"#utility.yul\":16853:16854   */\n      0x00\n        /* \"#utility.yul\":16846:16861   */\n      revert\n        /* \"#utility.yul\":16873:16990   */\n    tag_160:\n        /* \"#utility.yul\":16982:16983   */\n      0x00\n        /* \"#utility.yul\":16979:16980   */\n      dup1\n        /* \"#utility.yul\":16972:16984   */\n      revert\n        /* \"#utility.yul\":16996:17113   */\n    tag_145:\n        /* \"#utility.yul\":17105:17106   */\n      0x00\n        /* \"#utility.yul\":17102:17103   */\n      dup1\n        /* \"#utility.yul\":17095:17107   */\n      revert\n        /* \"#utility.yul\":17119:17236   */\n    tag_176:\n        /* \"#utility.yul\":17228:17229   */\n      0x00\n        /* \"#utility.yul\":17225:17226   */\n      dup1\n        /* \"#utility.yul\":17218:17230   */\n      revert\n        /* \"#utility.yul\":17242:17359   */\n    tag_165:\n        /* \"#utility.yul\":17351:17352   */\n      0x00\n        /* \"#utility.yul\":17348:17349   */\n      dup1\n        /* \"#utility.yul\":17341:17353   */\n      revert\n        /* \"#utility.yul\":17365:17467   */\n    tag_230:\n        /* \"#utility.yul\":17406:17412   */\n      0x00\n        /* \"#utility.yul\":17457:17459   */\n      0x1f\n        /* \"#utility.yul\":17453:17460   */\n      not\n        /* \"#utility.yul\":17448:17450   */\n      0x1f\n        /* \"#utility.yul\":17441:17446   */\n      dup4\n        /* \"#utility.yul\":17437:17451   */\n      add\n        /* \"#utility.yul\":17433:17461   */\n      and\n        /* \"#utility.yul\":17423:17461   */\n      swap1\n      pop\n        /* \"#utility.yul\":17365:17467   */\n      swap2\n      swap1\n      pop\n      jump\t// out\n        /* \"#utility.yul\":17473:17590   */\n    tag_303:\n        /* \"#utility.yul\":17558:17559   */\n      0x03\n        /* \"#utility.yul\":17551:17556   */\n      dup2\n        /* \"#utility.yul\":17548:17560   */\n      lt\n        /* \"#utility.yul\":17538:17584   */\n      tag_344\n      jumpi\n        /* \"#utility.yul\":17564:17582   */\n      tag_345\n      tag_44\n      jump\t// in\n    tag_345:\n        /* \"#utility.yul\":17538:17584   */\n    tag_344:\n        /* \"#utility.yul\":17473:17590   */\n      pop\n      jump\t// out\n        /* \"#utility.yul\":17596:17714   */\n    tag_307:\n        /* \"#utility.yul\":17682:17683   */\n      0x07\n        /* \"#utility.yul\":17675:17680   */\n      dup2\n        /* \"#utility.yul\":17672:17684   */\n      lt\n        /* \"#utility.yul\":17662:17708   */\n      tag_347\n      jumpi\n        /* \"#utility.yul\":17688:17706   */\n      tag_348\n      tag_44\n      jump\t// in\n    tag_348:\n        /* \"#utility.yul\":17662:17708   */\n    tag_347:\n        /* \"#utility.yul\":17596:17714   */\n      pop\n      jump\t// out\n        /* \"#utility.yul\":17720:17842   */\n    tag_151:\n        /* \"#utility.yul\":17793:17817   */\n      tag_350\n        /* \"#utility.yul\":17811:17816   */\n      dup2\n        /* \"#utility.yul\":17793:17817   */\n      tag_194\n      jump\t// in\n    tag_350:\n        /* \"#utility.yul\":17786:17791   */\n      dup2\n        /* \"#utility.yul\":17783:17818   */\n      eq\n        /* \"#utility.yul\":17773:17836   */\n      tag_351\n      jumpi\n        /* \"#utility.yul\":17832:17833   */\n      0x00\n        /* \"#utility.yul\":17829:17830   */\n      dup1\n        /* \"#utility.yul\":17822:17834   */\n      revert\n        /* \"#utility.yul\":17773:17836   */\n    tag_351:\n        /* \"#utility.yul\":17720:17842   */\n      pop\n      jump\t// out\n        /* \"#utility.yul\":17848:17960   */\n    tag_155:\n        /* \"#utility.yul\":17934:17935   */\n      0x07\n        /* \"#utility.yul\":17927:17932   */\n      dup2\n        /* \"#utility.yul\":17924:17936   */\n      lt\n        /* \"#utility.yul\":17914:17954   */\n      tag_353\n      jumpi\n        /* \"#utility.yul\":17950:17951   */\n      0x00\n        /* \"#utility.yul\":17947:17948   */\n      dup1\n        /* \"#utility.yul\":17940:17952   */\n      revert\n        /* \"#utility.yul\":17914:17954   */\n    tag_353:\n        /* \"#utility.yul\":17848:17960   */\n      pop\n      jump\t// out\n\n    auxdata: 0xa26469706673582212205abf15e188ae1a9717b61a2a017741e1e3e9e113aed8d689738707e7e531b4fc64736f6c63430008070033\n}\n",
				"bytecode": {
					"linkReferences": {},
					"object": "608060405234801561001057600080fd5b506113d2806100206000396000f3fe608060405234801561001057600080fd5b506004361061004c5760003560e01c80630f9de97714610051578063cd1720d114610081578063cdf7e73d146100b1578063e9a734ff146100e1575b600080fd5b61006b60048036038101906100669190610b57565b610111565b6040516100789190610f30565b60405180910390f35b61009b60048036038101906100969190610b2a565b6105c0565b6040516100a89190610f8f565b60405180910390f35b6100cb60048036038101906100c69190610b84565b61081c565b6040516100d89190610f6d565b60405180910390f35b6100fb60048036038101906100f69190610bcd565b610977565b6040516101089190610f52565b60405180910390f35b60606000600180549050905060008167ffffffffffffffff811115610139576101386112f9565b5b60405190808252806020026020018201604052801561017257816020015b61015f6109d0565b8152602001906001900390816101575790505b509050600080600090505b83811015610509578560068111156101985761019761126c565b5b600080600184815481106101af576101ae6112ca565b5b9060005260206000200160009054906101000a900473ffffffffffffffffffffffffffffffffffffffff1673ffffffffffffffffffffffffffffffffffffffff1673ffffffffffffffffffffffffffffffffffffffff16815260200190815260200160002060020160009054906101000a900460ff1660068111156102375761023661126c565b5b14156104f65760008060018381548110610254576102536112ca565b5b9060005260206000200160009054906101000a900473ffffffffffffffffffffffffffffffffffffffff1673ffffffffffffffffffffffffffffffffffffffff1673ffffffffffffffffffffffffffffffffffffffff1681526020019081526020016000206040518060e00160405290816000820180546102d490611191565b80601f016020809104026020016040519081016040528092919081815260200182805461030090611191565b801561034d5780601f106103225761010080835404028352916020019161034d565b820191906000526020600020905b81548152906001019060200180831161033057829003601f168201915b5050505050815260200160018201805461036690611191565b80601f016020809104026020016040519081016040528092919081815260200182805461039290611191565b80156103df5780601f106103b4576101008083540402835291602001916103df565b820191906000526020600020905b8154815290600101906020018083116103c257829003601f168201915b505050505081526020016002820160009054906101000a900460ff16600681111561040d5761040c61126c565b5b600681111561041f5761041e61126c565b5b81526020016002820160019054906101000a900460ff1660028111156104485761044761126c565b5b600281111561045a5761045961126c565b5b815260200160038201548152602001600482015481526020016005820160009054906101000a900473ffffffffffffffffffffffffffffffffffffffff1673ffffffffffffffffffffffffffffffffffffffff1673ffffffffffffffffffffffffffffffffffffffff16815250508383815181106104db576104da6112ca565b5b60200260200101819052506001826104f39190611067565b91505b8080610501906111f4565b91505061017d565b508067ffffffffffffffff811115610524576105236112f9565b5b60405190808252806020026020018201604052801561055d57816020015b61054a6109d0565b8152602001906001900390816105425790505b50935060005b818110156105b75782818151811061057e5761057d6112ca565b5b6020026020010151858281518110610599576105986112ca565b5b602002602001018190525080806105af906111f4565b915050610563565b50505050919050565b6105c86109d0565b6000808373ffffffffffffffffffffffffffffffffffffffff1673ffffffffffffffffffffffffffffffffffffffff1681526020019081526020016000206040518060e001604052908160008201805461062190611191565b80601f016020809104026020016040519081016040528092919081815260200182805461064d90611191565b801561069a5780601f1061066f5761010080835404028352916020019161069a565b820191906000526020600020905b81548152906001019060200180831161067d57829003601f168201915b505050505081526020016001820180546106b390611191565b80601f01602080910402602001604051908101604052809291908181526020018280546106df90611191565b801561072c5780601f106107015761010080835404028352916020019161072c565b820191906000526020600020905b81548152906001019060200180831161070f57829003601f168201915b505050505081526020016002820160009054906101000a900460ff16600681111561075a5761075961126c565b5b600681111561076c5761076b61126c565b5b81526020016002820160019054906101000a900460ff1660028111156107955761079461126c565b5b60028111156107a7576107a661126c565b5b815260200160038201548152602001600482015481526020016005820160009054906101000a900473ffffffffffffffffffffffffffffffffffffffff1673ffffffffffffffffffffffffffffffffffffffff1673ffffffffffffffffffffffffffffffffffffffff16815250509050919050565b610824610a47565b6002826040516108349190610f19565b908152602001604051809103902060405180606001604052908160008201805461085d90611191565b80601f016020809104026020016040519081016040528092919081815260200182805461088990611191565b80156108d65780601f106108ab576101008083540402835291602001916108d6565b820191906000526020600020905b8154815290600101906020018083116108b957829003601f168201915b505050505081526020016001820160009054906101000a900473ffffffffffffffffffffffffffffffffffffffff1673ffffffffffffffffffffffffffffffffffffffff1673ffffffffffffffffffffffffffffffffffffffff1681526020016001820160149054906101000a900460ff16600281111561095a5761095961126c565b5b600281111561096c5761096b61126c565b5b815250509050919050565b60008160405160200161098a9190610f19565b60405160208183030381529060405280519060200120836040516020016109b19190610f19565b6040516020818303038152906040528051906020012014905092915050565b6040518060e001604052806060815260200160608152602001600060068111156109fd576109fc61126c565b5b815260200160006002811115610a1657610a1561126c565b5b81526020016000815260200160008152602001600073ffffffffffffffffffffffffffffffffffffffff1681525090565b604051806060016040528060608152602001600073ffffffffffffffffffffffffffffffffffffffff16815260200160006002811115610a8a57610a8961126c565b5b81525090565b6000610aa3610a9e84610fd6565b610fb1565b905082815260208101848484011115610abf57610abe61132d565b5b610aca84828561114f565b509392505050565b600081359050610ae181611375565b92915050565b600081359050610af68161138c565b92915050565b600082601f830112610b1157610b10611328565b5b8135610b21848260208601610a90565b91505092915050565b600060208284031215610b4057610b3f611337565b5b6000610b4e84828501610ad2565b91505092915050565b600060208284031215610b6d57610b6c611337565b5b6000610b7b84828501610ae7565b91505092915050565b600060208284031215610b9a57610b99611337565b5b600082013567ffffffffffffffff811115610bb857610bb7611332565b5b610bc484828501610afc565b91505092915050565b60008060408385031215610be457610be3611337565b5b600083013567ffffffffffffffff811115610c0257610c01611332565b5b610c0e85828601610afc565b925050602083013567ffffffffffffffff811115610c2f57610c2e611332565b5b610c3b85828601610afc565b9150509250929050565b6000610c518383610dc4565b905092915050565b610c62816110bd565b82525050565b6000610c7382611017565b610c7d818561103a565b935083602082028501610c8f85611007565b8060005b85811015610ccb5784840389528151610cac8582610c45565b9450610cb78361102d565b925060208a01995050600181019050610c93565b50829750879550505050505092915050565b610ce6816110cf565b82525050565b610cf58161112b565b82525050565b610d048161113d565b82525050565b6000610d1582611022565b610d1f818561104b565b9350610d2f81856020860161115e565b610d388161133c565b840191505092915050565b6000610d4e82611022565b610d58818561105c565b9350610d6881856020860161115e565b80840191505092915050565b60006060830160008301518482036000860152610d918282610d0a565b9150506020830151610da66020860182610c59565b506040830151610db96040860182610cec565b508091505092915050565b600060e0830160008301518482036000860152610de18282610d0a565b91505060208301518482036020860152610dfb8282610d0a565b9150506040830151610e106040860182610cfb565b506060830151610e236060860182610cec565b506080830151610e366080860182610f0a565b5060a0830151610e4960a0860182610f0a565b5060c0830151610e5c60c0860182610c59565b508091505092915050565b600060e0830160008301518482036000860152610e848282610d0a565b91505060208301518482036020860152610e9e8282610d0a565b9150506040830151610eb36040860182610cfb565b506060830151610ec66060860182610cec565b506080830151610ed96080860182610f0a565b5060a0830151610eec60a0860182610f0a565b5060c0830151610eff60c0860182610c59565b508091505092915050565b610f1381611121565b82525050565b6000610f258284610d43565b915081905092915050565b60006020820190508181036000830152610f4a8184610c68565b905092915050565b6000602082019050610f676000830184610cdd565b92915050565b60006020820190508181036000830152610f878184610d74565b905092915050565b60006020820190508181036000830152610fa98184610e67565b905092915050565b6000610fbb610fcc565b9050610fc782826111c3565b919050565b6000604051905090565b600067ffffffffffffffff821115610ff157610ff06112f9565b5b610ffa8261133c565b9050602081019050919050565b6000819050602082019050919050565b600081519050919050565b600081519050919050565b6000602082019050919050565b600082825260208201905092915050565b600082825260208201905092915050565b600081905092915050565b600061107282611121565b915061107d83611121565b9250827fffffffffffffffffffffffffffffffffffffffffffffffffffffffffffffffff038211156110b2576110b161123d565b5b828201905092915050565b60006110c882611101565b9050919050565b60008115159050919050565b60008190506110e98261134d565b919050565b60008190506110fc82611361565b919050565b600073ffffffffffffffffffffffffffffffffffffffff82169050919050565b6000819050919050565b6000611136826110db565b9050919050565b6000611148826110ee565b9050919050565b82818337600083830152505050565b60005b8381101561117c578082015181840152602081019050611161565b8381111561118b576000848401525b50505050565b600060028204905060018216806111a957607f821691505b602082108114156111bd576111bc61129b565b5b50919050565b6111cc8261133c565b810181811067ffffffffffffffff821117156111eb576111ea6112f9565b5b80604052505050565b60006111ff82611121565b91507fffffffffffffffffffffffffffffffffffffffffffffffffffffffffffffffff8214156112325761123161123d565b5b600182019050919050565b7f4e487b7100000000000000000000000000000000000000000000000000000000600052601160045260246000fd5b7f4e487b7100000000000000000000000000000000000000000000000000000000600052602160045260246000fd5b7f4e487b7100000000000000000000000000000000000000000000000000000000600052602260045260246000fd5b7f4e487b7100000000000000000000000000000000000000000000000000000000600052603260045260246000fd5b7f4e487b7100000000000000000000000000000000000000000000000000000000600052604160045260246000fd5b600080fd5b600080fd5b600080fd5b600080fd5b6000601f19601f8301169050919050565b6003811061135e5761135d61126c565b5b50565b600781106113725761137161126c565b5b50565b61137e816110bd565b811461138957600080fd5b50565b6007811061139957600080fd5b5056fea26469706673582212205abf15e188ae1a9717b61a2a017741e1e3e9e113aed8d689738707e7e531b4fc64736f6c63430008070033",
					"opcodes": "PUSH1 0x80 PUSH1 0x40 MSTORE CALLVALUE DUP1 ISZERO PUSH2 0x10 JUMPI PUSH1 0x0 DUP1 REVERT JUMPDEST POP PUSH2 0x13D2 DUP1 PUSH2 0x20 PUSH1 0x0 CODECOPY PUSH1 0x0 RETURN INVALID PUSH1 0x80 PUSH1 0x40 MSTORE CALLVALUE DUP1 ISZERO PUSH2 0x10 JUMPI PUSH1 0x0 DUP1 REVERT JUMPDEST POP PUSH1 0x4 CALLDATASIZE LT PUSH2 0x4C JUMPI PUSH1 0x0 CALLDATALOAD PUSH1 0xE0 SHR DUP1 PUSH4 0xF9DE977 EQ PUSH2 0x51 JUMPI DUP1 PUSH4 0xCD1720D1 EQ PUSH2 0x81 JUMPI DUP1 PUSH4 0xCDF7E73D EQ PUSH2 0xB1 JUMPI DUP1 PUSH4 0xE9A734FF EQ PUSH2 0xE1 JUMPI JUMPDEST PUSH1 0x0 DUP1 REVERT JUMPDEST PUSH2 0x6B PUSH1 0x4 DUP1 CALLDATASIZE SUB DUP2 ADD SWAP1 PUSH2 0x66 SWAP2 SWAP1 PUSH2 0xB57 JUMP JUMPDEST PUSH2 0x111 JUMP JUMPDEST PUSH1 0x40 MLOAD PUSH2 0x78 SWAP2 SWAP1 PUSH2 0xF30 JUMP JUMPDEST PUSH1 0x40 MLOAD DUP1 SWAP2 SUB SWAP1 RETURN JUMPDEST PUSH2 0x9B PUSH1 0x4 DUP1 CALLDATASIZE SUB DUP2 ADD SWAP1 PUSH2 0x96 SWAP2 SWAP1 PUSH2 0xB2A JUMP JUMPDEST PUSH2 0x5C0 JUMP JUMPDEST PUSH1 0x40 MLOAD PUSH2 0xA8 SWAP2 SWAP1 PUSH2 0xF8F JUMP JUMPDEST PUSH1 0x40 MLOAD DUP1 SWAP2 SUB SWAP1 RETURN JUMPDEST PUSH2 0xCB PUSH1 0x4 DUP1 CALLDATASIZE SUB DUP2 ADD SWAP1 PUSH2 0xC6 SWAP2 SWAP1 PUSH2 0xB84 JUMP JUMPDEST PUSH2 0x81C JUMP JUMPDEST PUSH1 0x40 MLOAD PUSH2 0xD8 SWAP2 SWAP1 PUSH2 0xF6D JUMP JUMPDEST PUSH1 0x40 MLOAD DUP1 SWAP2 SUB SWAP1 RETURN JUMPDEST PUSH2 0xFB PUSH1 0x4 DUP1 CALLDATASIZE SUB DUP2 ADD SWAP1 PUSH2 0xF6 SWAP2 SWAP1 PUSH2 0xBCD JUMP JUMPDEST PUSH2 0x977 JUMP JUMPDEST PUSH1 0x40 MLOAD PUSH2 0x108 SWAP2 SWAP1 PUSH2 0xF52 JUMP JUMPDEST PUSH1 0x40 MLOAD DUP1 SWAP2 SUB SWAP1 RETURN JUMPDEST PUSH1 0x60 PUSH1 0x0 PUSH1 0x1 DUP1 SLOAD SWAP1 POP SWAP1 POP PUSH1 0x0 DUP2 PUSH8 0xFFFFFFFFFFFFFFFF DUP2 GT ISZERO PUSH2 0x139 JUMPI PUSH2 0x138 PUSH2 0x12F9 JUMP JUMPDEST JUMPDEST PUSH1 0x40 MLOAD SWAP1 DUP1 DUP3 MSTORE DUP1 PUSH1 0x20 MUL PUSH1 0x20 ADD DUP3 ADD PUSH1 0x40 MSTORE DUP1 ISZERO PUSH2 0x172 JUMPI DUP2 PUSH1 0x20 ADD JUMPDEST PUSH2 0x15F PUSH2 0x9D0 JUMP JUMPDEST DUP2 MSTORE PUSH1 0x20 ADD SWAP1 PUSH1 0x1 SWAP1 SUB SWAP1 DUP2 PUSH2 0x157 JUMPI SWAP1 POP JUMPDEST POP SWAP1 POP PUSH1 0x0 DUP1 PUSH1 0x0 SWAP1 POP JUMPDEST DUP4 DUP2 LT ISZERO PUSH2 0x509 JUMPI DUP6 PUSH1 0x6 DUP2 GT ISZERO PUSH2 0x198 JUMPI PUSH2 0x197 PUSH2 0x126C JUMP JUMPDEST JUMPDEST PUSH1 0x0 DUP1 PUSH1 0x1 DUP5 DUP2 SLOAD DUP2 LT PUSH2 0x1AF JUMPI PUSH2 0x1AE PUSH2 0x12CA JUMP JUMPDEST JUMPDEST SWAP1 PUSH1 0x0 MSTORE PUSH1 0x20 PUSH1 0x0 KECCAK256 ADD PUSH1 0x0 SWAP1 SLOAD SWAP1 PUSH2 0x100 EXP SWAP1 DIV PUSH20 0xFFFFFFFFFFFFFFFFFFFFFFFFFFFFFFFFFFFFFFFF AND PUSH20 0xFFFFFFFFFFFFFFFFFFFFFFFFFFFFFFFFFFFFFFFF AND PUSH20 0xFFFFFFFFFFFFFFFFFFFFFFFFFFFFFFFFFFFFFFFF AND DUP2 MSTORE PUSH1 0x20 ADD SWAP1 DUP2 MSTORE PUSH1 0x20 ADD PUSH1 0x0 KECCAK256 PUSH1 0x2 ADD PUSH1 0x0 SWAP1 SLOAD SWAP1 PUSH2 0x100 EXP SWAP1 DIV PUSH1 0xFF AND PUSH1 0x6 DUP2 GT ISZERO PUSH2 0x237 JUMPI PUSH2 0x236 PUSH2 0x126C JUMP JUMPDEST JUMPDEST EQ ISZERO PUSH2 0x4F6 JUMPI PUSH1 0x0 DUP1 PUSH1 0x1 DUP4 DUP2 SLOAD DUP2 LT PUSH2 0x254 JUMPI PUSH2 0x253 PUSH2 0x12CA JUMP JUMPDEST JUMPDEST SWAP1 PUSH1 0x0 MSTORE PUSH1 0x20 PUSH1 0x0 KECCAK256 ADD PUSH1 0x0 SWAP1 SLOAD SWAP1 PUSH2 0x100 EXP SWAP1 DIV PUSH20 0xFFFFFFFFFFFFFFFFFFFFFFFFFFFFFFFFFFFFFFFF AND PUSH20 0xFFFFFFFFFFFFFFFFFFFFFFFFFFFFFFFFFFFFFFFF AND PUSH20 0xFFFFFFFFFFFFFFFFFFFFFFFFFFFFFFFFFFFFFFFF AND DUP2 MSTORE PUSH1 0x20 ADD SWAP1 DUP2 MSTORE PUSH1 0x20 ADD PUSH1 0x0 KECCAK256 PUSH1 0x40 MLOAD DUP1 PUSH1 0xE0 ADD PUSH1 0x40 MSTORE SWAP1 DUP2 PUSH1 0x0 DUP3 ADD DUP1 SLOAD PUSH2 0x2D4 SWAP1 PUSH2 0x1191 JUMP JUMPDEST DUP1 PUSH1 0x1F ADD PUSH1 0x20 DUP1 SWAP2 DIV MUL PUSH1 0x20 ADD PUSH1 0x40 MLOAD SWAP1 DUP2 ADD PUSH1 0x40 MSTORE DUP1 SWAP3 SWAP2 SWAP1 DUP2 DUP2 MSTORE PUSH1 0x20 ADD DUP3 DUP1 SLOAD PUSH2 0x300 SWAP1 PUSH2 0x1191 JUMP JUMPDEST DUP1 ISZERO PUSH2 0x34D JUMPI DUP1 PUSH1 0x1F LT PUSH2 0x322 JUMPI PUSH2 0x100 DUP1 DUP4 SLOAD DIV MUL DUP4 MSTORE SWAP2 PUSH1 0x20 ADD SWAP2 PUSH2 0x34D JUMP JUMPDEST DUP3 ADD SWAP2 SWAP1 PUSH1 0x0 MSTORE PUSH1 0x20 PUSH1 0x0 KECCAK256 SWAP1 JUMPDEST DUP2 SLOAD DUP2 MSTORE SWAP1 PUSH1 0x1 ADD SWAP1 PUSH1 0x20 ADD DUP1 DUP4 GT PUSH2 0x330 JUMPI DUP3 SWAP1 SUB PUSH1 0x1F AND DUP3 ADD SWAP2 JUMPDEST POP POP POP POP POP DUP2 MSTORE PUSH1 0x20 ADD PUSH1 0x1 DUP3 ADD DUP1 SLOAD PUSH2 0x366 SWAP1 PUSH2 0x1191 JUMP JUMPDEST DUP1 PUSH1 0x1F ADD PUSH1 0x20 DUP1 SWAP2 DIV MUL PUSH1 0x20 ADD PUSH1 0x40 MLOAD SWAP1 DUP2 ADD PUSH1 0x40 MSTORE DUP1 SWAP3 SWAP2 SWAP1 DUP2 DUP2 MSTORE PUSH1 0x20 ADD DUP3 DUP1 SLOAD PUSH2 0x392 SWAP1 PUSH2 0x1191 JUMP JUMPDEST DUP1 ISZERO PUSH2 0x3DF JUMPI DUP1 PUSH1 0x1F LT PUSH2 0x3B4 JUMPI PUSH2 0x100 DUP1 DUP4 SLOAD DIV MUL DUP4 MSTORE SWAP2 PUSH1 0x20 ADD SWAP2 PUSH2 0x3DF JUMP JUMPDEST DUP3 ADD SWAP2 SWAP1 PUSH1 0x0 MSTORE PUSH1 0x20 PUSH1 0x0 KECCAK256 SWAP1 JUMPDEST DUP2 SLOAD DUP2 MSTORE SWAP1 PUSH1 0x1 ADD SWAP1 PUSH1 0x20 ADD DUP1 DUP4 GT PUSH2 0x3C2 JUMPI DUP3 SWAP1 SUB PUSH1 0x1F AND DUP3 ADD SWAP2 JUMPDEST POP POP POP POP POP DUP2 MSTORE PUSH1 0x20 ADD PUSH1 0x2 DUP3 ADD PUSH1 0x0 SWAP1 SLOAD SWAP1 PUSH2 0x100 EXP SWAP1 DIV PUSH1 0xFF AND PUSH1 0x6 DUP2 GT ISZERO PUSH2 0x40D JUMPI PUSH2 0x40C PUSH2 0x126C JUMP JUMPDEST JUMPDEST PUSH1 0x6 DUP2 GT ISZERO PUSH2 0x41F JUMPI PUSH2 0x41E PUSH2 0x126C JUMP JUMPDEST JUMPDEST DUP2 MSTORE PUSH1 0x20 ADD PUSH1 0x2 DUP3 ADD PUSH1 0x1 SWAP1 SLOAD SWAP1 PUSH2 0x100 EXP SWAP1 DIV PUSH1 0xFF AND PUSH1 0x2 DUP2 GT ISZERO PUSH2 0x448 JUMPI PUSH2 0x447 PUSH2 0x126C JUMP JUMPDEST JUMPDEST PUSH1 0x2 DUP2 GT ISZERO PUSH2 0x45A JUMPI PUSH2 0x459 PUSH2 0x126C JUMP JUMPDEST JUMPDEST DUP2 MSTORE PUSH1 0x20 ADD PUSH1 0x3 DUP3 ADD SLOAD DUP2 MSTORE PUSH1 0x20 ADD PUSH1 0x4 DUP3 ADD SLOAD DUP2 MSTORE PUSH1 0x20 ADD PUSH1 0x5 DUP3 ADD PUSH1 0x0 SWAP1 SLOAD SWAP1 PUSH2 0x100 EXP SWAP1 DIV PUSH20 0xFFFFFFFFFFFFFFFFFFFFFFFFFFFFFFFFFFFFFFFF AND PUSH20 0xFFFFFFFFFFFFFFFFFFFFFFFFFFFFFFFFFFFFFFFF AND PUSH20 0xFFFFFFFFFFFFFFFFFFFFFFFFFFFFFFFFFFFFFFFF AND DUP2 MSTORE POP POP DUP4 DUP4 DUP2 MLOAD DUP2 LT PUSH2 0x4DB JUMPI PUSH2 0x4DA PUSH2 0x12CA JUMP JUMPDEST JUMPDEST PUSH1 0x20 MUL PUSH1 0x20 ADD ADD DUP2 SWAP1 MSTORE POP PUSH1 0x1 DUP3 PUSH2 0x4F3 SWAP2 SWAP1 PUSH2 0x1067 JUMP JUMPDEST SWAP2 POP JUMPDEST DUP1 DUP1 PUSH2 0x501 SWAP1 PUSH2 0x11F4 JUMP JUMPDEST SWAP2 POP POP PUSH2 0x17D JUMP JUMPDEST POP DUP1 PUSH8 0xFFFFFFFFFFFFFFFF DUP2 GT ISZERO PUSH2 0x524 JUMPI PUSH2 0x523 PUSH2 0x12F9 JUMP JUMPDEST JUMPDEST PUSH1 0x40 MLOAD SWAP1 DUP1 DUP3 MSTORE DUP1 PUSH1 0x20 MUL PUSH1 0x20 ADD DUP3 ADD PUSH1 0x40 MSTORE DUP1 ISZERO PUSH2 0x55D JUMPI DUP2 PUSH1 0x20 ADD JUMPDEST PUSH2 0x54A PUSH2 0x9D0 JUMP JUMPDEST DUP2 MSTORE PUSH1 0x20 ADD SWAP1 PUSH1 0x1 SWAP1 SUB SWAP1 DUP2 PUSH2 0x542 JUMPI SWAP1 POP JUMPDEST POP SWAP4 POP PUSH1 0x0 JUMPDEST DUP2 DUP2 LT ISZERO PUSH2 0x5B7 JUMPI DUP3 DUP2 DUP2 MLOAD DUP2 LT PUSH2 0x57E JUMPI PUSH2 0x57D PUSH2 0x12CA JUMP JUMPDEST JUMPDEST PUSH1 0x20 MUL PUSH1 0x20 ADD ADD MLOAD DUP6 DUP3 DUP2 MLOAD DUP2 LT PUSH2 0x599 JUMPI PUSH2 0x598 PUSH2 0x12CA JUMP JUMPDEST JUMPDEST PUSH1 0x20 MUL PUSH1 0x20 ADD ADD DUP2 SWAP1 MSTORE POP DUP1 DUP1 PUSH2 0x5AF SWAP1 PUSH2 0x11F4 JUMP JUMPDEST SWAP2 POP POP PUSH2 0x563 JUMP JUMPDEST POP POP POP POP SWAP2 SWAP1 POP JUMP JUMPDEST PUSH2 0x5C8 PUSH2 0x9D0 JUMP JUMPDEST PUSH1 0x0 DUP1 DUP4 PUSH20 0xFFFFFFFFFFFFFFFFFFFFFFFFFFFFFFFFFFFFFFFF AND PUSH20 0xFFFFFFFFFFFFFFFFFFFFFFFFFFFFFFFFFFFFFFFF AND DUP2 MSTORE PUSH1 0x20 ADD SWAP1 DUP2 MSTORE PUSH1 0x20 ADD PUSH1 0x0 KECCAK256 PUSH1 0x40 MLOAD DUP1 PUSH1 0xE0 ADD PUSH1 0x40 MSTORE SWAP1 DUP2 PUSH1 0x0 DUP3 ADD DUP1 SLOAD PUSH2 0x621 SWAP1 PUSH2 0x1191 JUMP JUMPDEST DUP1 PUSH1 0x1F ADD PUSH1 0x20 DUP1 SWAP2 DIV MUL PUSH1 0x20 ADD PUSH1 0x40 MLOAD SWAP1 DUP2 ADD PUSH1 0x40 MSTORE DUP1 SWAP3 SWAP2 SWAP1 DUP2 DUP2 MSTORE PUSH1 0x20 ADD DUP3 DUP1 SLOAD PUSH2 0x64D SWAP1 PUSH2 0x1191 JUMP JUMPDEST DUP1 ISZERO PUSH2 0x69A JUMPI DUP1 PUSH1 0x1F LT PUSH2 0x66F JUMPI PUSH2 0x100 DUP1 DUP4 SLOAD DIV MUL DUP4 MSTORE SWAP2 PUSH1 0x20 ADD SWAP2 PUSH2 0x69A JUMP JUMPDEST DUP3 ADD SWAP2 SWAP1 PUSH1 0x0 MSTORE PUSH1 0x20 PUSH1 0x0 KECCAK256 SWAP1 JUMPDEST DUP2 SLOAD DUP2 MSTORE SWAP1 PUSH1 0x1 ADD SWAP1 PUSH1 0x20 ADD DUP1 DUP4 GT PUSH2 0x67D JUMPI DUP3 SWAP1 SUB PUSH1 0x1F AND DUP3 ADD SWAP2 JUMPDEST POP POP POP POP POP DUP2 MSTORE PUSH1 0x20 ADD PUSH1 0x1 DUP3 ADD DUP1 SLOAD PUSH2 0x6B3 SWAP1 PUSH2 0x1191 JUMP JUMPDEST DUP1 PUSH1 0x1F ADD PUSH1 0x20 DUP1 SWAP2 DIV MUL PUSH1 0x20 ADD PUSH1 0x40 MLOAD SWAP1 DUP2 ADD PUSH1 0x40 MSTORE DUP1 SWAP3 SWAP2 SWAP1 DUP2 DUP2 MSTORE PUSH1 0x20 ADD DUP3 DUP1 SLOAD PUSH2 0x6DF SWAP1 PUSH2 0x1191 JUMP JUMPDEST DUP1 ISZERO PUSH2 0x72C JUMPI DUP1 PUSH1 0x1F LT PUSH2 0x701 JUMPI PUSH2 0x100 DUP1 DUP4 SLOAD DIV MUL DUP4 MSTORE SWAP2 PUSH1 0x20 ADD SWAP2 PUSH2 0x72C JUMP JUMPDEST DUP3 ADD SWAP2 SWAP1 PUSH1 0x0 MSTORE PUSH1 0x20 PUSH1 0x0 KECCAK256 SWAP1 JUMPDEST DUP2 SLOAD DUP2 MSTORE SWAP1 PUSH1 0x1 ADD SWAP1 PUSH1 0x20 ADD DUP1 DUP4 GT PUSH2 0x70F JUMPI DUP3 SWAP1 SUB PUSH1 0x1F AND DUP3 ADD SWAP2 JUMPDEST POP POP POP POP POP DUP2 MSTORE PUSH1 0x20 ADD PUSH1 0x2 DUP3 ADD PUSH1 0x0 SWAP1 SLOAD SWAP1 PUSH2 0x100 EXP SWAP1 DIV PUSH1 0xFF AND PUSH1 0x6 DUP2 GT ISZERO PUSH2 0x75A JUMPI PUSH2 0x759 PUSH2 0x126C JUMP JUMPDEST JUMPDEST PUSH1 0x6 DUP2 GT ISZERO PUSH2 0x76C JUMPI PUSH2 0x76B PUSH2 0x126C JUMP JUMPDEST JUMPDEST DUP2 MSTORE PUSH1 0x20 ADD PUSH1 0x2 DUP3 ADD PUSH1 0x1 SWAP1 SLOAD SWAP1 PUSH2 0x100 EXP SWAP1 DIV PUSH1 0xFF AND PUSH1 0x2 DUP2 GT ISZERO PUSH2 0x795 JUMPI PUSH2 0x794 PUSH2 0x126C JUMP JUMPDEST JUMPDEST PUSH1 0x2 DUP2 GT ISZERO PUSH2 0x7A7 JUMPI PUSH2 0x7A6 PUSH2 0x126C JUMP JUMPDEST JUMPDEST DUP2 MSTORE PUSH1 0x20 ADD PUSH1 0x3 DUP3 ADD SLOAD DUP2 MSTORE PUSH1 0x20 ADD PUSH1 0x4 DUP3 ADD SLOAD DUP2 MSTORE PUSH1 0x20 ADD PUSH1 0x5 DUP3 ADD PUSH1 0x0 SWAP1 SLOAD SWAP1 PUSH2 0x100 EXP SWAP1 DIV PUSH20 0xFFFFFFFFFFFFFFFFFFFFFFFFFFFFFFFFFFFFFFFF AND PUSH20 0xFFFFFFFFFFFFFFFFFFFFFFFFFFFFFFFFFFFFFFFF AND PUSH20 0xFFFFFFFFFFFFFFFFFFFFFFFFFFFFFFFFFFFFFFFF AND DUP2 MSTORE POP POP SWAP1 POP SWAP2 SWAP1 POP JUMP JUMPDEST PUSH2 0x824 PUSH2 0xA47 JUMP JUMPDEST PUSH1 0x2 DUP3 PUSH1 0x40 MLOAD PUSH2 0x834 SWAP2 SWAP1 PUSH2 0xF19 JUMP JUMPDEST SWAP1 DUP2 MSTORE PUSH1 0x20 ADD PUSH1 0x40 MLOAD DUP1 SWAP2 SUB SWAP1 KECCAK256 PUSH1 0x40 MLOAD DUP1 PUSH1 0x60 ADD PUSH1 0x40 MSTORE SWAP1 DUP2 PUSH1 0x0 DUP3 ADD DUP1 SLOAD PUSH2 0x85D SWAP1 PUSH2 0x1191 JUMP JUMPDEST DUP1 PUSH1 0x1F ADD PUSH1 0x20 DUP1 SWAP2 DIV MUL PUSH1 0x20 ADD PUSH1 0x40 MLOAD SWAP1 DUP2 ADD PUSH1 0x40 MSTORE DUP1 SWAP3 SWAP2 SWAP1 DUP2 DUP2 MSTORE PUSH1 0x20 ADD DUP3 DUP1 SLOAD PUSH2 0x889 SWAP1 PUSH2 0x1191 JUMP JUMPDEST DUP1 ISZERO PUSH2 0x8D6 JUMPI DUP1 PUSH1 0x1F LT PUSH2 0x8AB JUMPI PUSH2 0x100 DUP1 DUP4 SLOAD DIV MUL DUP4 MSTORE SWAP2 PUSH1 0x20 ADD SWAP2 PUSH2 0x8D6 JUMP JUMPDEST DUP3 ADD SWAP2 SWAP1 PUSH1 0x0 MSTORE PUSH1 0x20 PUSH1 0x0 KECCAK256 SWAP1 JUMPDEST DUP2 SLOAD DUP2 MSTORE SWAP1 PUSH1 0x1 ADD SWAP1 PUSH1 0x20 ADD DUP1 DUP4 GT PUSH2 0x8B9 JUMPI DUP3 SWAP1 SUB PUSH1 0x1F AND DUP3 ADD SWAP2 JUMPDEST POP POP POP POP POP DUP2 MSTORE PUSH1 0x20 ADD PUSH1 0x1 DUP3 ADD PUSH1 0x0 SWAP1 SLOAD SWAP1 PUSH2 0x100 EXP SWAP1 DIV PUSH20 0xFFFFFFFFFFFFFFFFFFFFFFFFFFFFFFFFFFFFFFFF AND PUSH20 0xFFFFFFFFFFFFFFFFFFFFFFFFFFFFFFFFFFFFFFFF AND PUSH20 0xFFFFFFFFFFFFFFFFFFFFFFFFFFFFFFFFFFFFFFFF AND DUP2 MSTORE PUSH1 0x20 ADD PUSH1 0x1 DUP3 ADD PUSH1 0x14 SWAP1 SLOAD SWAP1 PUSH2 0x100 EXP SWAP1 DIV PUSH1 0xFF AND PUSH1 0x2 DUP2 GT ISZERO PUSH2 0x95A JUMPI PUSH2 0x959 PUSH2 0x126C JUMP JUMPDEST JUMPDEST PUSH1 0x2 DUP2 GT ISZERO PUSH2 0x96C JUMPI PUSH2 0x96B PUSH2 0x126C JUMP JUMPDEST JUMPDEST DUP2 MSTORE POP POP SWAP1 POP SWAP2 SWAP1 POP JUMP JUMPDEST PUSH1 0x0 DUP2 PUSH1 0x40 MLOAD PUSH1 0x20 ADD PUSH2 0x98A SWAP2 SWAP1 PUSH2 0xF19 JUMP JUMPDEST PUSH1 0x40 MLOAD PUSH1 0x20 DUP2 DUP4 SUB SUB DUP2 MSTORE SWAP1 PUSH1 0x40 MSTORE DUP1 MLOAD SWAP1 PUSH1 0x20 ADD KECCAK256 DUP4 PUSH1 0x40 MLOAD PUSH1 0x20 ADD PUSH2 0x9B1 SWAP2 SWAP1 PUSH2 0xF19 JUMP JUMPDEST PUSH1 0x40 MLOAD PUSH1 0x20 DUP2 DUP4 SUB SUB DUP2 MSTORE SWAP1 PUSH1 0x40 MSTORE DUP1 MLOAD SWAP1 PUSH1 0x20 ADD KECCAK256 EQ SWAP1 POP SWAP3 SWAP2 POP POP JUMP JUMPDEST PUSH1 0x40 MLOAD DUP1 PUSH1 0xE0 ADD PUSH1 0x40 MSTORE DUP1 PUSH1 0x60 DUP2 MSTORE PUSH1 0x20 ADD PUSH1 0x60 DUP2 MSTORE PUSH1 0x20 ADD PUSH1 0x0 PUSH1 0x6 DUP2 GT ISZERO PUSH2 0x9FD JUMPI PUSH2 0x9FC PUSH2 0x126C JUMP JUMPDEST JUMPDEST DUP2 MSTORE PUSH1 0x20 ADD PUSH1 0x0 PUSH1 0x2 DUP2 GT ISZERO PUSH2 0xA16 JUMPI PUSH2 0xA15 PUSH2 0x126C JUMP JUMPDEST JUMPDEST DUP2 MSTORE PUSH1 0x20 ADD PUSH1 0x0 DUP2 MSTORE PUSH1 0x20 ADD PUSH1 0x0 DUP2 MSTORE PUSH1 0x20 ADD PUSH1 0x0 PUSH20 0xFFFFFFFFFFFFFFFFFFFFFFFFFFFFFFFFFFFFFFFF AND DUP2 MSTORE POP SWAP1 JUMP JUMPDEST PUSH1 0x40 MLOAD DUP1 PUSH1 0x60 ADD PUSH1 0x40 MSTORE DUP1 PUSH1 0x60 DUP2 MSTORE PUSH1 0x20 ADD PUSH1 0x0 PUSH20 0xFFFFFFFFFFFFFFFFFFFFFFFFFFFFFFFFFFFFFFFF AND DUP2 MSTORE PUSH1 0x20 ADD PUSH1 0x0 PUSH1 0x2 DUP2 GT ISZERO PUSH2 0xA8A JUMPI PUSH2 0xA89 PUSH2 0x126C JUMP JUMPDEST JUMPDEST DUP2 MSTORE POP SWAP1 JUMP JUMPDEST PUSH1 0x0 PUSH2 0xAA3 PUSH2 0xA9E DUP5 PUSH2 0xFD6 JUMP JUMPDEST PUSH2 0xFB1 JUMP JUMPDEST SWAP1 POP DUP3 DUP2 MSTORE PUSH1 0x20 DUP2 ADD DUP5 DUP5 DUP5 ADD GT ISZERO PUSH2 0xABF JUMPI PUSH2 0xABE PUSH2 0x132D JUMP JUMPDEST JUMPDEST PUSH2 0xACA DUP5 DUP3 DUP6 PUSH2 0x114F JUMP JUMPDEST POP SWAP4 SWAP3 POP POP POP JUMP JUMPDEST PUSH1 0x0 DUP2 CALLDATALOAD SWAP1 POP PUSH2 0xAE1 DUP2 PUSH2 0x1375 JUMP JUMPDEST SWAP3 SWAP2 POP POP JUMP JUMPDEST PUSH1 0x0 DUP2 CALLDATALOAD SWAP1 POP PUSH2 0xAF6 DUP2 PUSH2 0x138C JUMP JUMPDEST SWAP3 SWAP2 POP POP JUMP JUMPDEST PUSH1 0x0 DUP3 PUSH1 0x1F DUP4 ADD SLT PUSH2 0xB11 JUMPI PUSH2 0xB10 PUSH2 0x1328 JUMP JUMPDEST JUMPDEST DUP2 CALLDATALOAD PUSH2 0xB21 DUP5 DUP3 PUSH1 0x20 DUP7 ADD PUSH2 0xA90 JUMP JUMPDEST SWAP2 POP POP SWAP3 SWAP2 POP POP JUMP JUMPDEST PUSH1 0x0 PUSH1 0x20 DUP3 DUP5 SUB SLT ISZERO PUSH2 0xB40 JUMPI PUSH2 0xB3F PUSH2 0x1337 JUMP JUMPDEST JUMPDEST PUSH1 0x0 PUSH2 0xB4E DUP5 DUP3 DUP6 ADD PUSH2 0xAD2 JUMP JUMPDEST SWAP2 POP POP SWAP3 SWAP2 POP POP JUMP JUMPDEST PUSH1 0x0 PUSH1 0x20 DUP3 DUP5 SUB SLT ISZERO PUSH2 0xB6D JUMPI PUSH2 0xB6C PUSH2 0x1337 JUMP JUMPDEST JUMPDEST PUSH1 0x0 PUSH2 0xB7B DUP5 DUP3 DUP6 ADD PUSH2 0xAE7 JUMP JUMPDEST SWAP2 POP POP SWAP3 SWAP2 POP POP JUMP JUMPDEST PUSH1 0x0 PUSH1 0x20 DUP3 DUP5 SUB SLT ISZERO PUSH2 0xB9A JUMPI PUSH2 0xB99 PUSH2 0x1337 JUMP JUMPDEST JUMPDEST PUSH1 0x0 DUP3 ADD CALLDATALOAD PUSH8 0xFFFFFFFFFFFFFFFF DUP2 GT ISZERO PUSH2 0xBB8 JUMPI PUSH2 0xBB7 PUSH2 0x1332 JUMP JUMPDEST JUMPDEST PUSH2 0xBC4 DUP5 DUP3 DUP6 ADD PUSH2 0xAFC JUMP JUMPDEST SWAP2 POP POP SWAP3 SWAP2 POP POP JUMP JUMPDEST PUSH1 0x0 DUP1 PUSH1 0x40 DUP4 DUP6 SUB SLT ISZERO PUSH2 0xBE4 JUMPI PUSH2 0xBE3 PUSH2 0x1337 JUMP JUMPDEST JUMPDEST PUSH1 0x0 DUP4 ADD CALLDATALOAD PUSH8 0xFFFFFFFFFFFFFFFF DUP2 GT ISZERO PUSH2 0xC02 JUMPI PUSH2 0xC01 PUSH2 0x1332 JUMP JUMPDEST JUMPDEST PUSH2 0xC0E DUP6 DUP3 DUP7 ADD PUSH2 0xAFC JUMP JUMPDEST SWAP3 POP POP PUSH1 0x20 DUP4 ADD CALLDATALOAD PUSH8 0xFFFFFFFFFFFFFFFF DUP2 GT ISZERO PUSH2 0xC2F JUMPI PUSH2 0xC2E PUSH2 0x1332 JUMP JUMPDEST JUMPDEST PUSH2 0xC3B DUP6 DUP3 DUP7 ADD PUSH2 0xAFC JUMP JUMPDEST SWAP2 POP POP SWAP3 POP SWAP3 SWAP1 POP JUMP JUMPDEST PUSH1 0x0 PUSH2 0xC51 DUP4 DUP4 PUSH2 0xDC4 JUMP JUMPDEST SWAP1 POP SWAP3 SWAP2 POP POP JUMP JUMPDEST PUSH2 0xC62 DUP2 PUSH2 0x10BD JUMP JUMPDEST DUP3 MSTORE POP POP JUMP JUMPDEST PUSH1 0x0 PUSH2 0xC73 DUP3 PUSH2 0x1017 JUMP JUMPDEST PUSH2 0xC7D DUP2 DUP6 PUSH2 0x103A JUMP JUMPDEST SWAP4 POP DUP4 PUSH1 0x20 DUP3 MUL DUP6 ADD PUSH2 0xC8F DUP6 PUSH2 0x1007 JUMP JUMPDEST DUP1 PUSH1 0x0 JUMPDEST DUP6 DUP2 LT ISZERO PUSH2 0xCCB JUMPI DUP5 DUP5 SUB DUP10 MSTORE DUP2 MLOAD PUSH2 0xCAC DUP6 DUP3 PUSH2 0xC45 JUMP JUMPDEST SWAP5 POP PUSH2 0xCB7 DUP4 PUSH2 0x102D JUMP JUMPDEST SWAP3 POP PUSH1 0x20 DUP11 ADD SWAP10 POP POP PUSH1 0x1 DUP2 ADD SWAP1 POP PUSH2 0xC93 JUMP JUMPDEST POP DUP3 SWAP8 POP DUP8 SWAP6 POP POP POP POP POP POP SWAP3 SWAP2 POP POP JUMP JUMPDEST PUSH2 0xCE6 DUP2 PUSH2 0x10CF JUMP JUMPDEST DUP3 MSTORE POP POP JUMP JUMPDEST PUSH2 0xCF5 DUP2 PUSH2 0x112B JUMP JUMPDEST DUP3 MSTORE POP POP JUMP JUMPDEST PUSH2 0xD04 DUP2 PUSH2 0x113D JUMP JUMPDEST DUP3 MSTORE POP POP JUMP JUMPDEST PUSH1 0x0 PUSH2 0xD15 DUP3 PUSH2 0x1022 JUMP JUMPDEST PUSH2 0xD1F DUP2 DUP6 PUSH2 0x104B JUMP JUMPDEST SWAP4 POP PUSH2 0xD2F DUP2 DUP6 PUSH1 0x20 DUP7 ADD PUSH2 0x115E JUMP JUMPDEST PUSH2 0xD38 DUP2 PUSH2 0x133C JUMP JUMPDEST DUP5 ADD SWAP2 POP POP SWAP3 SWAP2 POP POP JUMP JUMPDEST PUSH1 0x0 PUSH2 0xD4E DUP3 PUSH2 0x1022 JUMP JUMPDEST PUSH2 0xD58 DUP2 DUP6 PUSH2 0x105C JUMP JUMPDEST SWAP4 POP PUSH2 0xD68 DUP2 DUP6 PUSH1 0x20 DUP7 ADD PUSH2 0x115E JUMP JUMPDEST DUP1 DUP5 ADD SWAP2 POP POP SWAP3 SWAP2 POP POP JUMP JUMPDEST PUSH1 0x0 PUSH1 0x60 DUP4 ADD PUSH1 0x0 DUP4 ADD MLOAD DUP5 DUP3 SUB PUSH1 0x0 DUP7 ADD MSTORE PUSH2 0xD91 DUP3 DUP3 PUSH2 0xD0A JUMP JUMPDEST SWAP2 POP POP PUSH1 0x20 DUP4 ADD MLOAD PUSH2 0xDA6 PUSH1 0x20 DUP7 ADD DUP3 PUSH2 0xC59 JUMP JUMPDEST POP PUSH1 0x40 DUP4 ADD MLOAD PUSH2 0xDB9 PUSH1 0x40 DUP7 ADD DUP3 PUSH2 0xCEC JUMP JUMPDEST POP DUP1 SWAP2 POP POP SWAP3 SWAP2 POP POP JUMP JUMPDEST PUSH1 0x0 PUSH1 0xE0 DUP4 ADD PUSH1 0x0 DUP4 ADD MLOAD DUP5 DUP3 SUB PUSH1 0x0 DUP7 ADD MSTORE PUSH2 0xDE1 DUP3 DUP3 PUSH2 0xD0A JUMP JUMPDEST SWAP2 POP POP PUSH1 0x20 DUP4 ADD MLOAD DUP5 DUP3 SUB PUSH1 0x20 DUP7 ADD MSTORE PUSH2 0xDFB DUP3 DUP3 PUSH2 0xD0A JUMP JUMPDEST SWAP2 POP POP PUSH1 0x40 DUP4 ADD MLOAD PUSH2 0xE10 PUSH1 0x40 DUP7 ADD DUP3 PUSH2 0xCFB JUMP JUMPDEST POP PUSH1 0x60 DUP4 ADD MLOAD PUSH2 0xE23 PUSH1 0x60 DUP7 ADD DUP3 PUSH2 0xCEC JUMP JUMPDEST POP PUSH1 0x80 DUP4 ADD MLOAD PUSH2 0xE36 PUSH1 0x80 DUP7 ADD DUP3 PUSH2 0xF0A JUMP JUMPDEST POP PUSH1 0xA0 DUP4 ADD MLOAD PUSH2 0xE49 PUSH1 0xA0 DUP7 ADD DUP3 PUSH2 0xF0A JUMP JUMPDEST POP PUSH1 0xC0 DUP4 ADD MLOAD PUSH2 0xE5C PUSH1 0xC0 DUP7 ADD DUP3 PUSH2 0xC59 JUMP JUMPDEST POP DUP1 SWAP2 POP POP SWAP3 SWAP2 POP POP JUMP JUMPDEST PUSH1 0x0 PUSH1 0xE0 DUP4 ADD PUSH1 0x0 DUP4 ADD MLOAD DUP5 DUP3 SUB PUSH1 0x0 DUP7 ADD MSTORE PUSH2 0xE84 DUP3 DUP3 PUSH2 0xD0A JUMP JUMPDEST SWAP2 POP POP PUSH1 0x20 DUP4 ADD MLOAD DUP5 DUP3 SUB PUSH1 0x20 DUP7 ADD MSTORE PUSH2 0xE9E DUP3 DUP3 PUSH2 0xD0A JUMP JUMPDEST SWAP2 POP POP PUSH1 0x40 DUP4 ADD MLOAD PUSH2 0xEB3 PUSH1 0x40 DUP7 ADD DUP3 PUSH2 0xCFB JUMP JUMPDEST POP PUSH1 0x60 DUP4 ADD MLOAD PUSH2 0xEC6 PUSH1 0x60 DUP7 ADD DUP3 PUSH2 0xCEC JUMP JUMPDEST POP PUSH1 0x80 DUP4 ADD MLOAD PUSH2 0xED9 PUSH1 0x80 DUP7 ADD DUP3 PUSH2 0xF0A JUMP JUMPDEST POP PUSH1 0xA0 DUP4 ADD MLOAD PUSH2 0xEEC PUSH1 0xA0 DUP7 ADD DUP3 PUSH2 0xF0A JUMP JUMPDEST POP PUSH1 0xC0 DUP4 ADD MLOAD PUSH2 0xEFF PUSH1 0xC0 DUP7 ADD DUP3 PUSH2 0xC59 JUMP JUMPDEST POP DUP1 SWAP2 POP POP SWAP3 SWAP2 POP POP JUMP JUMPDEST PUSH2 0xF13 DUP2 PUSH2 0x1121 JUMP JUMPDEST DUP3 MSTORE POP POP JUMP JUMPDEST PUSH1 0x0 PUSH2 0xF25 DUP3 DUP5 PUSH2 0xD43 JUMP JUMPDEST SWAP2 POP DUP2 SWAP1 POP SWAP3 SWAP2 POP POP JUMP JUMPDEST PUSH1 0x0 PUSH1 0x20 DUP3 ADD SWAP1 POP DUP2 DUP2 SUB PUSH1 0x0 DUP4 ADD MSTORE PUSH2 0xF4A DUP2 DUP5 PUSH2 0xC68 JUMP JUMPDEST SWAP1 POP SWAP3 SWAP2 POP POP JUMP JUMPDEST PUSH1 0x0 PUSH1 0x20 DUP3 ADD SWAP1 POP PUSH2 0xF67 PUSH1 0x0 DUP4 ADD DUP5 PUSH2 0xCDD JUMP JUMPDEST SWAP3 SWAP2 POP POP JUMP JUMPDEST PUSH1 0x0 PUSH1 0x20 DUP3 ADD SWAP1 POP DUP2 DUP2 SUB PUSH1 0x0 DUP4 ADD MSTORE PUSH2 0xF87 DUP2 DUP5 PUSH2 0xD74 JUMP JUMPDEST SWAP1 POP SWAP3 SWAP2 POP POP JUMP JUMPDEST PUSH1 0x0 PUSH1 0x20 DUP3 ADD SWAP1 POP DUP2 DUP2 SUB PUSH1 0x0 DUP4 ADD MSTORE PUSH2 0xFA9 DUP2 DUP5 PUSH2 0xE67 JUMP JUMPDEST SWAP1 POP SWAP3 SWAP2 POP POP JUMP JUMPDEST PUSH1 0x0 PUSH2 0xFBB PUSH2 0xFCC JUMP JUMPDEST SWAP1 POP PUSH2 0xFC7 DUP3 DUP3 PUSH2 0x11C3 JUMP JUMPDEST SWAP2 SWAP1 POP JUMP JUMPDEST PUSH1 0x0 PUSH1 0x40 MLOAD SWAP1 POP SWAP1 JUMP JUMPDEST PUSH1 0x0 PUSH8 0xFFFFFFFFFFFFFFFF DUP3 GT ISZERO PUSH2 0xFF1 JUMPI PUSH2 0xFF0 PUSH2 0x12F9 JUMP JUMPDEST JUMPDEST PUSH2 0xFFA DUP3 PUSH2 0x133C JUMP JUMPDEST SWAP1 POP PUSH1 0x20 DUP2 ADD SWAP1 POP SWAP2 SWAP1 POP JUMP JUMPDEST PUSH1 0x0 DUP2 SWAP1 POP PUSH1 0x20 DUP3 ADD SWAP1 POP SWAP2 SWAP1 POP JUMP JUMPDEST PUSH1 0x0 DUP2 MLOAD SWAP1 POP SWAP2 SWAP1 POP JUMP JUMPDEST PUSH1 0x0 DUP2 MLOAD SWAP1 POP SWAP2 SWAP1 POP JUMP JUMPDEST PUSH1 0x0 PUSH1 0x20 DUP3 ADD SWAP1 POP SWAP2 SWAP1 POP JUMP JUMPDEST PUSH1 0x0 DUP3 DUP3 MSTORE PUSH1 0x20 DUP3 ADD SWAP1 POP SWAP3 SWAP2 POP POP JUMP JUMPDEST PUSH1 0x0 DUP3 DUP3 MSTORE PUSH1 0x20 DUP3 ADD SWAP1 POP SWAP3 SWAP2 POP POP JUMP JUMPDEST PUSH1 0x0 DUP2 SWAP1 POP SWAP3 SWAP2 POP POP JUMP JUMPDEST PUSH1 0x0 PUSH2 0x1072 DUP3 PUSH2 0x1121 JUMP JUMPDEST SWAP2 POP PUSH2 0x107D DUP4 PUSH2 0x1121 JUMP JUMPDEST SWAP3 POP DUP3 PUSH32 0xFFFFFFFFFFFFFFFFFFFFFFFFFFFFFFFFFFFFFFFFFFFFFFFFFFFFFFFFFFFFFFFF SUB DUP3 GT ISZERO PUSH2 0x10B2 JUMPI PUSH2 0x10B1 PUSH2 0x123D JUMP JUMPDEST JUMPDEST DUP3 DUP3 ADD SWAP1 POP SWAP3 SWAP2 POP POP JUMP JUMPDEST PUSH1 0x0 PUSH2 0x10C8 DUP3 PUSH2 0x1101 JUMP JUMPDEST SWAP1 POP SWAP2 SWAP1 POP JUMP JUMPDEST PUSH1 0x0 DUP2 ISZERO ISZERO SWAP1 POP SWAP2 SWAP1 POP JUMP JUMPDEST PUSH1 0x0 DUP2 SWAP1 POP PUSH2 0x10E9 DUP3 PUSH2 0x134D JUMP JUMPDEST SWAP2 SWAP1 POP JUMP JUMPDEST PUSH1 0x0 DUP2 SWAP1 POP PUSH2 0x10FC DUP3 PUSH2 0x1361 JUMP JUMPDEST SWAP2 SWAP1 POP JUMP JUMPDEST PUSH1 0x0 PUSH20 0xFFFFFFFFFFFFFFFFFFFFFFFFFFFFFFFFFFFFFFFF DUP3 AND SWAP1 POP SWAP2 SWAP1 POP JUMP JUMPDEST PUSH1 0x0 DUP2 SWAP1 POP SWAP2 SWAP1 POP JUMP JUMPDEST PUSH1 0x0 PUSH2 0x1136 DUP3 PUSH2 0x10DB JUMP JUMPDEST SWAP1 POP SWAP2 SWAP1 POP JUMP JUMPDEST PUSH1 0x0 PUSH2 0x1148 DUP3 PUSH2 0x10EE JUMP JUMPDEST SWAP1 POP SWAP2 SWAP1 POP JUMP JUMPDEST DUP3 DUP2 DUP4 CALLDATACOPY PUSH1 0x0 DUP4 DUP4 ADD MSTORE POP POP POP JUMP JUMPDEST PUSH1 0x0 JUMPDEST DUP4 DUP2 LT ISZERO PUSH2 0x117C JUMPI DUP1 DUP3 ADD MLOAD DUP2 DUP5 ADD MSTORE PUSH1 0x20 DUP2 ADD SWAP1 POP PUSH2 0x1161 JUMP JUMPDEST DUP4 DUP2 GT ISZERO PUSH2 0x118B JUMPI PUSH1 0x0 DUP5 DUP5 ADD MSTORE JUMPDEST POP POP POP POP JUMP JUMPDEST PUSH1 0x0 PUSH1 0x2 DUP3 DIV SWAP1 POP PUSH1 0x1 DUP3 AND DUP1 PUSH2 0x11A9 JUMPI PUSH1 0x7F DUP3 AND SWAP2 POP JUMPDEST PUSH1 0x20 DUP3 LT DUP2 EQ ISZERO PUSH2 0x11BD JUMPI PUSH2 0x11BC PUSH2 0x129B JUMP JUMPDEST JUMPDEST POP SWAP2 SWAP1 POP JUMP JUMPDEST PUSH2 0x11CC DUP3 PUSH2 0x133C JUMP JUMPDEST DUP2 ADD DUP2 DUP2 LT PUSH8 0xFFFFFFFFFFFFFFFF DUP3 GT OR ISZERO PUSH2 0x11EB JUMPI PUSH2 0x11EA PUSH2 0x12F9 JUMP JUMPDEST JUMPDEST DUP1 PUSH1 0x40 MSTORE POP POP POP JUMP JUMPDEST PUSH1 0x0 PUSH2 0x11FF DUP3 PUSH2 0x1121 JUMP JUMPDEST SWAP2 POP PUSH32 0xFFFFFFFFFFFFFFFFFFFFFFFFFFFFFFFFFFFFFFFFFFFFFFFFFFFFFFFFFFFFFFFF DUP3 EQ ISZERO PUSH2 0x1232 JUMPI PUSH2 0x1231 PUSH2 0x123D JUMP JUMPDEST JUMPDEST PUSH1 0x1 DUP3 ADD SWAP1 POP SWAP2 SWAP1 POP JUMP JUMPDEST PUSH32 0x4E487B7100000000000000000000000000000000000000000000000000000000 PUSH1 0x0 MSTORE PUSH1 0x11 PUSH1 0x4 MSTORE PUSH1 0x24 PUSH1 0x0 REVERT JUMPDEST PUSH32 0x4E487B7100000000000000000000000000000000000000000000000000000000 PUSH1 0x0 MSTORE PUSH1 0x21 PUSH1 0x4 MSTORE PUSH1 0x24 PUSH1 0x0 REVERT JUMPDEST PUSH32 0x4E487B7100000000000000000000000000000000000000000000000000000000 PUSH1 0x0 MSTORE PUSH1 0x22 PUSH1 0x4 MSTORE PUSH1 0x24 PUSH1 0x0 REVERT JUMPDEST PUSH32 0x4E487B7100000000000000000000000000000000000000000000000000000000 PUSH1 0x0 MSTORE PUSH1 0x32 PUSH1 0x4 MSTORE PUSH1 0x24 PUSH1 0x0 REVERT JUMPDEST PUSH32 0x4E487B7100000000000000000000000000000000000000000000000000000000 PUSH1 0x0 MSTORE PUSH1 0x41 PUSH1 0x4 MSTORE PUSH1 0x24 PUSH1 0x0 REVERT JUMPDEST PUSH1 0x0 DUP1 REVERT JUMPDEST PUSH1 0x0 DUP1 REVERT JUMPDEST PUSH1 0x0 DUP1 REVERT JUMPDEST PUSH1 0x0 DUP1 REVERT JUMPDEST PUSH1 0x0 PUSH1 0x1F NOT PUSH1 0x1F DUP4 ADD AND SWAP1 POP SWAP2 SWAP1 POP JUMP JUMPDEST PUSH1 0x3 DUP2 LT PUSH2 0x135E JUMPI PUSH2 0x135D PUSH2 0x126C JUMP JUMPDEST JUMPDEST POP JUMP JUMPDEST PUSH1 0x7 DUP2 LT PUSH2 0x1372 JUMPI PUSH2 0x1371 PUSH2 0x126C JUMP JUMPDEST JUMPDEST POP JUMP JUMPDEST PUSH2 0x137E DUP2 PUSH2 0x10BD JUMP JUMPDEST DUP2 EQ PUSH2 0x1389 JUMPI PUSH1 0x0 DUP1 REVERT JUMPDEST POP JUMP JUMPDEST PUSH1 0x7 DUP2 LT PUSH2 0x1399 JUMPI PUSH1 0x0 DUP1 REVERT JUMPDEST POP JUMP INVALID LOG2 PUSH5 0x6970667358 0x22 SLT KECCAK256 GAS 0xBF ISZERO 0xE1 DUP9 0xAE BYTE SWAP8 OR 0xB6 BYTE 0x2A ADD PUSH24 0x41E1E3E9E113AED8D689738707E7E531B4FC64736F6C6343 STOP ADDMOD SMOD STOP CALLER "
				},
				"gasEstimates": {
					"creation": {
						"codeDepositCost": "1014800",
						"executionCost": "1054",
						"totalCost": "1015854"
					},
					"external": {
						"GetUsersByType(uint8)": "infinite",
						"ReadDrug(string)": "infinite",
						"ReadUser(address)": "infinite",
						"compareStringsbyBytes(string,string)": "infinite"
					}
				},
				"methodIdentifiers": {
					"GetUsersByType(uint8)": "0f9de977",
					"ReadDrug(string)": "cdf7e73d",
					"ReadUser(address)": "cd1720d1",
					"compareStringsbyBytes(string,string)": "e9a734ff"
				}
			},
			"storageLayout": {
				"storage": [
					{
						"astId": 648,
						"contract": "contracts/Utils.sol:Utils",
						"label": "UserAddressMapping",
						"offset": 0,
						"slot": "0",
						"type": "t_mapping(t_address,t_struct(User)643_storage)"
					},
					{
						"astId": 651,
						"contract": "contracts/Utils.sol:Utils",
						"label": "UsersAddresses",
						"offset": 0,
						"slot": "1",
						"type": "t_array(t_address)dyn_storage"
					},
					{
						"astId": 781,
						"contract": "contracts/Utils.sol:Utils",
						"label": "DrugRegNoMapping",
						"offset": 0,
						"slot": "2",
						"type": "t_mapping(t_string_memory_ptr,t_struct(Drug)768_storage)"
					},
					{
						"astId": 784,
						"contract": "contracts/Utils.sol:Utils",
						"label": "DrugsRegNos",
						"offset": 0,
						"slot": "3",
						"type": "t_array(t_string_storage)dyn_storage"
					}
				],
				"types": {
					"t_address": {
						"encoding": "inplace",
						"label": "address",
						"numberOfBytes": "20"
					},
					"t_array(t_address)dyn_storage": {
						"base": "t_address",
						"encoding": "dynamic_array",
						"label": "address[]",
						"numberOfBytes": "32"
					},
					"t_array(t_string_storage)dyn_storage": {
						"base": "t_string_storage",
						"encoding": "dynamic_array",
						"label": "string[]",
						"numberOfBytes": "32"
					},
					"t_enum(Statuses)594": {
						"encoding": "inplace",
						"label": "enum Utils.Statuses",
						"numberOfBytes": "1"
					},
					"t_enum(UserRoles)626": {
						"encoding": "inplace",
						"label": "enum Utils.UserRoles",
						"numberOfBytes": "1"
					},
					"t_mapping(t_address,t_struct(User)643_storage)": {
						"encoding": "mapping",
						"key": "t_address",
						"label": "mapping(address => struct Utils.User)",
						"numberOfBytes": "32",
						"value": "t_struct(User)643_storage"
					},
					"t_mapping(t_string_memory_ptr,t_struct(Drug)768_storage)": {
						"encoding": "mapping",
						"key": "t_string_memory_ptr",
						"label": "mapping(string => struct Utils.Drug)",
						"numberOfBytes": "32",
						"value": "t_struct(Drug)768_storage"
					},
					"t_string_memory_ptr": {
						"encoding": "bytes",
						"label": "string",
						"numberOfBytes": "32"
					},
					"t_string_storage": {
						"encoding": "bytes",
						"label": "string",
						"numberOfBytes": "32"
					},
					"t_struct(Drug)768_storage": {
						"encoding": "inplace",
						"label": "struct Utils.Drug",
						"members": [
							{
								"astId": 762,
								"contract": "contracts/Utils.sol:Utils",
								"label": "DrugName",
								"offset": 0,
								"slot": "0",
								"type": "t_string_storage"
							},
							{
								"astId": 764,
								"contract": "contracts/Utils.sol:Utils",
								"label": "Manufacturer",
								"offset": 0,
								"slot": "1",
								"type": "t_address"
							},
							{
								"astId": 767,
								"contract": "contracts/Utils.sol:Utils",
								"label": "DrugStatus",
								"offset": 20,
								"slot": "1",
								"type": "t_enum(Statuses)594"
							}
						],
						"numberOfBytes": "64"
					},
					"t_struct(User)643_storage": {
						"encoding": "inplace",
						"label": "struct Utils.User",
						"members": [
							{
								"astId": 628,
								"contract": "contracts/Utils.sol:Utils",
								"label": "UserID",
								"offset": 0,
								"slot": "0",
								"type": "t_string_storage"
							},
							{
								"astId": 630,
								"contract": "contracts/Utils.sol:Utils",
								"label": "UserName",
								"offset": 0,
								"slot": "1",
								"type": "t_string_storage"
							},
							{
								"astId": 633,
								"contract": "contracts/Utils.sol:Utils",
								"label": "UserRole",
								"offset": 0,
								"slot": "2",
								"type": "t_enum(UserRoles)626"
							},
							{
								"astId": 636,
								"contract": "contracts/Utils.sol:Utils",
								"label": "UserStatus",
								"offset": 1,
								"slot": "2",
								"type": "t_enum(Statuses)594"
							},
							{
								"astId": 638,
								"contract": "contracts/Utils.sol:Utils",
								"label": "Latitude",
								"offset": 0,
								"slot": "3",
								"type": "t_uint256"
							},
							{
								"astId": 640,
								"contract": "contracts/Utils.sol:Utils",
								"label": "Longitude",
								"offset": 0,
								"slot": "4",
								"type": "t_uint256"
							},
							{
								"astId": 642,
								"contract": "contracts/Utils.sol:Utils",
								"label": "UserAddress",
								"offset": 0,
								"slot": "5",
								"type": "t_address"
							}
						],
						"numberOfBytes": "192"
					},
					"t_uint256": {
						"encoding": "inplace",
						"label": "uint256",
						"numberOfBytes": "32"
					}
				}
			},
			"userdoc": {
				"kind": "user",
				"methods": {},
				"version": 1
			}
		}
	}
}