{
	"contracts/NewRegulator.sol": {
		"Regulator": {
			"abi": [
				{
					"inputs": [
						{
							"internalType": "string",
							"name": "_username",
							"type": "string"
						},
						{
							"internalType": "enum Regulator.UserRoles",
							"name": "_userrole",
							"type": "uint8"
						},
						{
							"internalType": "uint256",
							"name": "_lat",
							"type": "uint256"
						},
						{
							"internalType": "uint256",
							"name": "_long",
							"type": "uint256"
						},
						{
							"internalType": "address",
							"name": "_address",
							"type": "address"
						}
					],
					"name": "CreateUser",
					"outputs": [
						{
							"internalType": "bool",
							"name": "",
							"type": "bool"
						}
					],
					"stateMutability": "nonpayable",
					"type": "function"
				},
				{
					"inputs": [
						{
							"internalType": "uint256",
							"name": "_index",
							"type": "uint256"
						},
						{
							"internalType": "bool",
							"name": "_status",
							"type": "bool"
						}
					],
					"name": "DeActivateUser",
					"outputs": [
						{
							"internalType": "bool",
							"name": "",
							"type": "bool"
						}
					],
					"stateMutability": "nonpayable",
					"type": "function"
				},
				{
					"inputs": [
						{
							"internalType": "enum Regulator.UserRoles",
							"name": "_role",
							"type": "uint8"
						}
					],
					"name": "GetUsersByType",
					"outputs": [
						{
							"components": [
								{
									"internalType": "string",
									"name": "UserName",
									"type": "string"
								},
								{
									"internalType": "enum Regulator.UserRoles",
									"name": "UserRole",
									"type": "uint8"
								},
								{
									"internalType": "bool",
									"name": "IsActive",
									"type": "bool"
								},
								{
									"internalType": "uint256",
									"name": "Latitude",
									"type": "uint256"
								},
								{
									"internalType": "uint256",
									"name": "Longitude",
									"type": "uint256"
								},
								{
									"internalType": "address",
									"name": "UserAddress",
									"type": "address"
								}
							],
							"internalType": "struct Regulator.User[]",
							"name": "filteredUsers",
							"type": "tuple[]"
						}
					],
					"stateMutability": "view",
					"type": "function"
				},
				{
					"inputs": [
						{
							"internalType": "uint256",
							"name": "_index",
							"type": "uint256"
						}
					],
					"name": "ReadUser",
					"outputs": [
						{
							"components": [
								{
									"internalType": "string",
									"name": "UserName",
									"type": "string"
								},
								{
									"internalType": "enum Regulator.UserRoles",
									"name": "UserRole",
									"type": "uint8"
								},
								{
									"internalType": "bool",
									"name": "IsActive",
									"type": "bool"
								},
								{
									"internalType": "uint256",
									"name": "Latitude",
									"type": "uint256"
								},
								{
									"internalType": "uint256",
									"name": "Longitude",
									"type": "uint256"
								},
								{
									"internalType": "address",
									"name": "UserAddress",
									"type": "address"
								}
							],
							"internalType": "struct Regulator.User",
							"name": "",
							"type": "tuple"
						}
					],
					"stateMutability": "view",
					"type": "function"
				}
			],
			"devdoc": {
				"kind": "dev",
				"methods": {},
				"version": 1
			},
			"evm": {
				"assembly": "    /* \"contracts/NewRegulator.sol\":99:2055  contract Regulator {\r... */\n  mstore(0x40, 0x80)\n  callvalue\n  dup1\n  iszero\n  tag_1\n  jumpi\n  0x00\n  dup1\n  revert\ntag_1:\n  pop\n  dataSize(sub_0)\n  dup1\n  dataOffset(sub_0)\n  0x00\n  codecopy\n  0x00\n  return\nstop\n\nsub_0: assembly {\n        /* \"contracts/NewRegulator.sol\":99:2055  contract Regulator {\r... */\n      mstore(0x40, 0x80)\n      callvalue\n      dup1\n      iszero\n      tag_1\n      jumpi\n      0x00\n      dup1\n      revert\n    tag_1:\n      pop\n      jumpi(tag_2, lt(calldatasize, 0x04))\n      shr(0xe0, calldataload(0x00))\n      dup1\n      0x0f9de977\n      eq\n      tag_3\n      jumpi\n      dup1\n      0x596f5a4b\n      eq\n      tag_4\n      jumpi\n      dup1\n      0x5cbfc0da\n      eq\n      tag_5\n      jumpi\n      dup1\n      0x71417e16\n      eq\n      tag_6\n      jumpi\n    tag_2:\n      0x00\n      dup1\n      revert\n        /* \"contracts/NewRegulator.sol\":1462:2052  function GetUsersByType(UserRoles _role)\r... */\n    tag_3:\n      tag_7\n      0x04\n      dup1\n      calldatasize\n      sub\n      dup2\n      add\n      swap1\n      tag_8\n      swap2\n      swap1\n      tag_9\n      jump\t// in\n    tag_8:\n      tag_10\n      jump\t// in\n    tag_7:\n      mload(0x40)\n      tag_11\n      swap2\n      swap1\n      tag_12\n      jump\t// in\n    tag_11:\n      mload(0x40)\n      dup1\n      swap2\n      sub\n      swap1\n      return\n        /* \"contracts/NewRegulator.sol\":1030:1147  function ReadUser(uint _index) public view returns (User memory) {\r... */\n    tag_4:\n      tag_13\n      0x04\n      dup1\n      calldatasize\n      sub\n      dup2\n      add\n      swap1\n      tag_14\n      swap2\n      swap1\n      tag_15\n      jump\t// in\n    tag_14:\n      tag_16\n      jump\t// in\n    tag_13:\n      mload(0x40)\n      tag_17\n      swap2\n      swap1\n      tag_18\n      jump\t// in\n    tag_17:\n      mload(0x40)\n      dup1\n      swap2\n      sub\n      swap1\n      return\n        /* \"contracts/NewRegulator.sol\":1155:1337  function DeActivateUser(uint _index, bool _status)\r... */\n    tag_5:\n      tag_19\n      0x04\n      dup1\n      calldatasize\n      sub\n      dup2\n      add\n      swap1\n      tag_20\n      swap2\n      swap1\n      tag_21\n      jump\t// in\n    tag_20:\n      tag_22\n      jump\t// in\n    tag_19:\n      mload(0x40)\n      tag_23\n      swap2\n      swap1\n      tag_24\n      jump\t// in\n    tag_23:\n      mload(0x40)\n      dup1\n      swap2\n      sub\n      swap1\n      return\n        /* \"contracts/NewRegulator.sol\":566:1022  function CreateUser(\r... */\n    tag_6:\n      tag_25\n      0x04\n      dup1\n      calldatasize\n      sub\n      dup2\n      add\n      swap1\n      tag_26\n      swap2\n      swap1\n      tag_27\n      jump\t// in\n    tag_26:\n      tag_28\n      jump\t// in\n    tag_25:\n      mload(0x40)\n      tag_29\n      swap2\n      swap1\n      tag_24\n      jump\t// in\n    tag_29:\n      mload(0x40)\n      dup1\n      swap2\n      sub\n      swap1\n      return\n        /* \"contracts/NewRegulator.sol\":1462:2052  function GetUsersByType(UserRoles _role)\r... */\n    tag_10:\n        /* \"contracts/NewRegulator.sol\":1551:1578  User[] memory filteredUsers */\n      0x60\n        /* \"contracts/NewRegulator.sol\":1596:1619  User[] memory usersTemp */\n      0x00\n        /* \"contracts/NewRegulator.sol\":1633:1643  usersCount */\n      dup1\n      sload\n        /* \"contracts/NewRegulator.sol\":1622:1644  new User[](usersCount) */\n      0xffffffffffffffff\n      dup2\n      gt\n      iszero\n      tag_31\n      jumpi\n      tag_32\n      tag_33\n      jump\t// in\n    tag_32:\n    tag_31:\n      mload(0x40)\n      swap1\n      dup1\n      dup3\n      mstore\n      dup1\n      0x20\n      mul\n      0x20\n      add\n      dup3\n      add\n      0x40\n      mstore\n      dup1\n      iszero\n      tag_34\n      jumpi\n      dup2\n      0x20\n      add\n    tag_35:\n      tag_36\n      tag_37\n      jump\t// in\n    tag_36:\n      dup2\n      mstore\n      0x20\n      add\n      swap1\n      0x01\n      swap1\n      sub\n      swap1\n      dup2\n      tag_35\n      jumpi\n      swap1\n      pop\n    tag_34:\n      pop\n        /* \"contracts/NewRegulator.sol\":1596:1644  User[] memory usersTemp = new User[](usersCount) */\n      swap1\n      pop\n        /* \"contracts/NewRegulator.sol\":1655:1668  uint256 count */\n      0x00\n        /* \"contracts/NewRegulator.sol\":1684:1693  uint256 i */\n      dup1\n        /* \"contracts/NewRegulator.sol\":1696:1697  0 */\n      0x00\n        /* \"contracts/NewRegulator.sol\":1684:1697  uint256 i = 0 */\n      swap1\n      pop\n        /* \"contracts/NewRegulator.sol\":1679:1895  for (uint256 i = 0; i < usersCount; i++) {\r... */\n    tag_38:\n        /* \"contracts/NewRegulator.sol\":1703:1713  usersCount */\n      sload(0x00)\n        /* \"contracts/NewRegulator.sol\":1699:1700  i */\n      dup2\n        /* \"contracts/NewRegulator.sol\":1699:1713  i < usersCount */\n      lt\n        /* \"contracts/NewRegulator.sol\":1679:1895  for (uint256 i = 0; i < usersCount; i++) {\r... */\n      iszero\n      tag_39\n      jumpi\n        /* \"contracts/NewRegulator.sol\":1773:1778  _role */\n      dup5\n        /* \"contracts/NewRegulator.sol\":1739:1778  UserAddressMapping[i].UserRole == _role */\n      0x06\n      dup2\n      gt\n      iszero\n      tag_41\n      jumpi\n      tag_42\n      tag_43\n      jump\t// in\n    tag_42:\n    tag_41:\n        /* \"contracts/NewRegulator.sol\":1739:1757  UserAddressMapping */\n      0x01\n        /* \"contracts/NewRegulator.sol\":1739:1760  UserAddressMapping[i] */\n      0x00\n        /* \"contracts/NewRegulator.sol\":1758:1759  i */\n      dup4\n        /* \"contracts/NewRegulator.sol\":1739:1760  UserAddressMapping[i] */\n      dup2\n      mstore\n      0x20\n      add\n      swap1\n      dup2\n      mstore\n      0x20\n      add\n      0x00\n      keccak256\n        /* \"contracts/NewRegulator.sol\":1739:1769  UserAddressMapping[i].UserRole */\n      0x01\n      add\n      0x00\n      swap1\n      sload\n      swap1\n      0x0100\n      exp\n      swap1\n      div\n      0xff\n      and\n        /* \"contracts/NewRegulator.sol\":1739:1778  UserAddressMapping[i].UserRole == _role */\n      0x06\n      dup2\n      gt\n      iszero\n      tag_44\n      jumpi\n      tag_45\n      tag_43\n      jump\t// in\n    tag_45:\n    tag_44:\n      eq\n        /* \"contracts/NewRegulator.sol\":1735:1884  if (UserAddressMapping[i].UserRole == _role) {\r... */\n      iszero\n      tag_46\n      jumpi\n        /* \"contracts/NewRegulator.sol\":1818:1836  UserAddressMapping */\n      0x01\n        /* \"contracts/NewRegulator.sol\":1818:1839  UserAddressMapping[i] */\n      0x00\n        /* \"contracts/NewRegulator.sol\":1837:1838  i */\n      dup3\n        /* \"contracts/NewRegulator.sol\":1818:1839  UserAddressMapping[i] */\n      dup2\n      mstore\n      0x20\n      add\n      swap1\n      dup2\n      mstore\n      0x20\n      add\n      0x00\n      keccak256\n        /* \"contracts/NewRegulator.sol\":1799:1839  usersTemp[count] = UserAddressMapping[i] */\n      mload(0x40)\n      dup1\n      0xc0\n      add\n      0x40\n      mstore\n      swap1\n      dup2\n      0x00\n      dup3\n      add\n      dup1\n      sload\n      tag_47\n      swap1\n      tag_48\n      jump\t// in\n    tag_47:\n      dup1\n      0x1f\n      add\n      0x20\n      dup1\n      swap2\n      div\n      mul\n      0x20\n      add\n      mload(0x40)\n      swap1\n      dup2\n      add\n      0x40\n      mstore\n      dup1\n      swap3\n      swap2\n      swap1\n      dup2\n      dup2\n      mstore\n      0x20\n      add\n      dup3\n      dup1\n      sload\n      tag_49\n      swap1\n      tag_48\n      jump\t// in\n    tag_49:\n      dup1\n      iszero\n      tag_50\n      jumpi\n      dup1\n      0x1f\n      lt\n      tag_51\n      jumpi\n      0x0100\n      dup1\n      dup4\n      sload\n      div\n      mul\n      dup4\n      mstore\n      swap2\n      0x20\n      add\n      swap2\n      jump(tag_50)\n    tag_51:\n      dup3\n      add\n      swap2\n      swap1\n      0x00\n      mstore\n      keccak256(0x00, 0x20)\n      swap1\n    tag_52:\n      dup2\n      sload\n      dup2\n      mstore\n      swap1\n      0x01\n      add\n      swap1\n      0x20\n      add\n      dup1\n      dup4\n      gt\n      tag_52\n      jumpi\n      dup3\n      swap1\n      sub\n      0x1f\n      and\n      dup3\n      add\n      swap2\n    tag_50:\n      pop\n      pop\n      pop\n      pop\n      pop\n      dup2\n      mstore\n      0x20\n      add\n      0x01\n      dup3\n      add\n      0x00\n      swap1\n      sload\n      swap1\n      0x0100\n      exp\n      swap1\n      div\n      0xff\n      and\n      0x06\n      dup2\n      gt\n      iszero\n      tag_53\n      jumpi\n      tag_54\n      tag_43\n      jump\t// in\n    tag_54:\n    tag_53:\n      0x06\n      dup2\n      gt\n      iszero\n      tag_55\n      jumpi\n      tag_56\n      tag_43\n      jump\t// in\n    tag_56:\n    tag_55:\n      dup2\n      mstore\n      0x20\n      add\n      0x01\n      dup3\n      add\n      0x01\n      swap1\n      sload\n      swap1\n      0x0100\n      exp\n      swap1\n      div\n      0xff\n      and\n      iszero\n      iszero\n      iszero\n      iszero\n      dup2\n      mstore\n      0x20\n      add\n      0x02\n      dup3\n      add\n      sload\n      dup2\n      mstore\n      0x20\n      add\n      0x03\n      dup3\n      add\n      sload\n      dup2\n      mstore\n      0x20\n      add\n      0x04\n      dup3\n      add\n      0x00\n      swap1\n      sload\n      swap1\n      0x0100\n      exp\n      swap1\n      div\n      0xffffffffffffffffffffffffffffffffffffffff\n      and\n      0xffffffffffffffffffffffffffffffffffffffff\n      and\n      0xffffffffffffffffffffffffffffffffffffffff\n      and\n      dup2\n      mstore\n      pop\n      pop\n        /* \"contracts/NewRegulator.sol\":1799:1808  usersTemp */\n      dup4\n        /* \"contracts/NewRegulator.sol\":1809:1814  count */\n      dup4\n        /* \"contracts/NewRegulator.sol\":1799:1815  usersTemp[count] */\n      dup2\n      mload\n      dup2\n      lt\n      tag_57\n      jumpi\n      tag_58\n      tag_59\n      jump\t// in\n    tag_58:\n    tag_57:\n      0x20\n      mul\n      0x20\n      add\n      add\n        /* \"contracts/NewRegulator.sol\":1799:1839  usersTemp[count] = UserAddressMapping[i] */\n      dup2\n      swap1\n      mstore\n      pop\n        /* \"contracts/NewRegulator.sol\":1867:1868  1 */\n      0x01\n        /* \"contracts/NewRegulator.sol\":1858:1868  count += 1 */\n      dup3\n      tag_60\n      swap2\n      swap1\n      tag_61\n      jump\t// in\n    tag_60:\n      swap2\n      pop\n        /* \"contracts/NewRegulator.sol\":1735:1884  if (UserAddressMapping[i].UserRole == _role) {\r... */\n    tag_46:\n        /* \"contracts/NewRegulator.sol\":1715:1718  i++ */\n      dup1\n      dup1\n      tag_62\n      swap1\n      tag_63\n      jump\t// in\n    tag_62:\n      swap2\n      pop\n      pop\n        /* \"contracts/NewRegulator.sol\":1679:1895  for (uint256 i = 0; i < usersCount; i++) {\r... */\n      jump(tag_38)\n    tag_39:\n      pop\n        /* \"contracts/NewRegulator.sol\":1934:1939  count */\n      dup1\n        /* \"contracts/NewRegulator.sol\":1923:1940  new User[](count) */\n      0xffffffffffffffff\n      dup2\n      gt\n      iszero\n      tag_64\n      jumpi\n      tag_65\n      tag_33\n      jump\t// in\n    tag_65:\n    tag_64:\n      mload(0x40)\n      swap1\n      dup1\n      dup3\n      mstore\n      dup1\n      0x20\n      mul\n      0x20\n      add\n      dup3\n      add\n      0x40\n      mstore\n      dup1\n      iszero\n      tag_66\n      jumpi\n      dup2\n      0x20\n      add\n    tag_67:\n      tag_68\n      tag_37\n      jump\t// in\n    tag_68:\n      dup2\n      mstore\n      0x20\n      add\n      swap1\n      0x01\n      swap1\n      sub\n      swap1\n      dup2\n      tag_67\n      jumpi\n      swap1\n      pop\n    tag_66:\n      pop\n        /* \"contracts/NewRegulator.sol\":1907:1940  filteredUsers = new User[](count) */\n      swap3\n      pop\n        /* \"contracts/NewRegulator.sol\":1956:1965  uint256 i */\n      0x00\n        /* \"contracts/NewRegulator.sol\":1951:2045  for (uint256 i = 0; i < count; i++) {\r... */\n    tag_69:\n        /* \"contracts/NewRegulator.sol\":1975:1980  count */\n      dup2\n        /* \"contracts/NewRegulator.sol\":1971:1972  i */\n      dup2\n        /* \"contracts/NewRegulator.sol\":1971:1980  i < count */\n      lt\n        /* \"contracts/NewRegulator.sol\":1951:2045  for (uint256 i = 0; i < count; i++) {\r... */\n      iszero\n      tag_70\n      jumpi\n        /* \"contracts/NewRegulator.sol\":2021:2030  usersTemp */\n      dup3\n        /* \"contracts/NewRegulator.sol\":2031:2032  i */\n      dup2\n        /* \"contracts/NewRegulator.sol\":2021:2033  usersTemp[i] */\n      dup2\n      mload\n      dup2\n      lt\n      tag_72\n      jumpi\n      tag_73\n      tag_59\n      jump\t// in\n    tag_73:\n    tag_72:\n      0x20\n      mul\n      0x20\n      add\n      add\n      mload\n        /* \"contracts/NewRegulator.sol\":2002:2015  filteredUsers */\n      dup5\n        /* \"contracts/NewRegulator.sol\":2016:2017  i */\n      dup3\n        /* \"contracts/NewRegulator.sol\":2002:2018  filteredUsers[i] */\n      dup2\n      mload\n      dup2\n      lt\n      tag_74\n      jumpi\n      tag_75\n      tag_59\n      jump\t// in\n    tag_75:\n    tag_74:\n      0x20\n      mul\n      0x20\n      add\n      add\n        /* \"contracts/NewRegulator.sol\":2002:2033  filteredUsers[i] = usersTemp[i] */\n      dup2\n      swap1\n      mstore\n      pop\n        /* \"contracts/NewRegulator.sol\":1982:1985  i++ */\n      dup1\n      dup1\n      tag_76\n      swap1\n      tag_63\n      jump\t// in\n    tag_76:\n      swap2\n      pop\n      pop\n        /* \"contracts/NewRegulator.sol\":1951:2045  for (uint256 i = 0; i < count; i++) {\r... */\n      jump(tag_69)\n    tag_70:\n      pop\n        /* \"contracts/NewRegulator.sol\":1585:2052  {\r... */\n      pop\n      pop\n        /* \"contracts/NewRegulator.sol\":1462:2052  function GetUsersByType(UserRoles _role)\r... */\n      swap2\n      swap1\n      pop\n      jump\t// out\n        /* \"contracts/NewRegulator.sol\":1030:1147  function ReadUser(uint _index) public view returns (User memory) {\r... */\n    tag_16:\n        /* \"contracts/NewRegulator.sol\":1082:1093  User memory */\n      tag_77\n      tag_37\n      jump\t// in\n    tag_77:\n        /* \"contracts/NewRegulator.sol\":1113:1131  UserAddressMapping */\n      0x01\n        /* \"contracts/NewRegulator.sol\":1113:1139  UserAddressMapping[_index] */\n      0x00\n        /* \"contracts/NewRegulator.sol\":1132:1138  _index */\n      dup4\n        /* \"contracts/NewRegulator.sol\":1113:1139  UserAddressMapping[_index] */\n      dup2\n      mstore\n      0x20\n      add\n      swap1\n      dup2\n      mstore\n      0x20\n      add\n      0x00\n      keccak256\n        /* \"contracts/NewRegulator.sol\":1106:1139  return UserAddressMapping[_index] */\n      mload(0x40)\n      dup1\n      0xc0\n      add\n      0x40\n      mstore\n      swap1\n      dup2\n      0x00\n      dup3\n      add\n      dup1\n      sload\n      tag_79\n      swap1\n      tag_48\n      jump\t// in\n    tag_79:\n      dup1\n      0x1f\n      add\n      0x20\n      dup1\n      swap2\n      div\n      mul\n      0x20\n      add\n      mload(0x40)\n      swap1\n      dup2\n      add\n      0x40\n      mstore\n      dup1\n      swap3\n      swap2\n      swap1\n      dup2\n      dup2\n      mstore\n      0x20\n      add\n      dup3\n      dup1\n      sload\n      tag_80\n      swap1\n      tag_48\n      jump\t// in\n    tag_80:\n      dup1\n      iszero\n      tag_81\n      jumpi\n      dup1\n      0x1f\n      lt\n      tag_82\n      jumpi\n      0x0100\n      dup1\n      dup4\n      sload\n      div\n      mul\n      dup4\n      mstore\n      swap2\n      0x20\n      add\n      swap2\n      jump(tag_81)\n    tag_82:\n      dup3\n      add\n      swap2\n      swap1\n      0x00\n      mstore\n      keccak256(0x00, 0x20)\n      swap1\n    tag_83:\n      dup2\n      sload\n      dup2\n      mstore\n      swap1\n      0x01\n      add\n      swap1\n      0x20\n      add\n      dup1\n      dup4\n      gt\n      tag_83\n      jumpi\n      dup3\n      swap1\n      sub\n      0x1f\n      and\n      dup3\n      add\n      swap2\n    tag_81:\n      pop\n      pop\n      pop\n      pop\n      pop\n      dup2\n      mstore\n      0x20\n      add\n      0x01\n      dup3\n      add\n      0x00\n      swap1\n      sload\n      swap1\n      0x0100\n      exp\n      swap1\n      div\n      0xff\n      and\n      0x06\n      dup2\n      gt\n      iszero\n      tag_84\n      jumpi\n      tag_85\n      tag_43\n      jump\t// in\n    tag_85:\n    tag_84:\n      0x06\n      dup2\n      gt\n      iszero\n      tag_86\n      jumpi\n      tag_87\n      tag_43\n      jump\t// in\n    tag_87:\n    tag_86:\n      dup2\n      mstore\n      0x20\n      add\n      0x01\n      dup3\n      add\n      0x01\n      swap1\n      sload\n      swap1\n      0x0100\n      exp\n      swap1\n      div\n      0xff\n      and\n      iszero\n      iszero\n      iszero\n      iszero\n      dup2\n      mstore\n      0x20\n      add\n      0x02\n      dup3\n      add\n      sload\n      dup2\n      mstore\n      0x20\n      add\n      0x03\n      dup3\n      add\n      sload\n      dup2\n      mstore\n      0x20\n      add\n      0x04\n      dup3\n      add\n      0x00\n      swap1\n      sload\n      swap1\n      0x0100\n      exp\n      swap1\n      div\n      0xffffffffffffffffffffffffffffffffffffffff\n      and\n      0xffffffffffffffffffffffffffffffffffffffff\n      and\n      0xffffffffffffffffffffffffffffffffffffffff\n      and\n      dup2\n      mstore\n      pop\n      pop\n      swap1\n      pop\n        /* \"contracts/NewRegulator.sol\":1030:1147  function ReadUser(uint _index) public view returns (User memory) {\r... */\n      swap2\n      swap1\n      pop\n      jump\t// out\n        /* \"contracts/NewRegulator.sol\":1155:1337  function DeActivateUser(uint _index, bool _status)\r... */\n    tag_22:\n        /* \"contracts/NewRegulator.sol\":1240:1244  bool */\n      0x00\n        /* \"contracts/NewRegulator.sol\":1300:1307  _status */\n      dup2\n        /* \"contracts/NewRegulator.sol\":1262:1280  UserAddressMapping */\n      0x01\n        /* \"contracts/NewRegulator.sol\":1262:1288  UserAddressMapping[_index] */\n      0x00\n        /* \"contracts/NewRegulator.sol\":1281:1287  _index */\n      dup6\n        /* \"contracts/NewRegulator.sol\":1262:1288  UserAddressMapping[_index] */\n      dup2\n      mstore\n      0x20\n      add\n      swap1\n      dup2\n      mstore\n      0x20\n      add\n      0x00\n      keccak256\n        /* \"contracts/NewRegulator.sol\":1262:1297  UserAddressMapping[_index].IsActive */\n      0x01\n      add\n      0x01\n        /* \"contracts/NewRegulator.sol\":1262:1307  UserAddressMapping[_index].IsActive = _status */\n      0x0100\n      exp\n      dup2\n      sload\n      dup2\n      0xff\n      mul\n      not\n      and\n      swap1\n      dup4\n      iszero\n      iszero\n      mul\n      or\n      swap1\n      sstore\n      pop\n        /* \"contracts/NewRegulator.sol\":1325:1329  true */\n      0x01\n        /* \"contracts/NewRegulator.sol\":1318:1329  return true */\n      swap1\n      pop\n        /* \"contracts/NewRegulator.sol\":1155:1337  function DeActivateUser(uint _index, bool _status)\r... */\n      swap3\n      swap2\n      pop\n      pop\n      jump\t// out\n        /* \"contracts/NewRegulator.sol\":566:1022  function CreateUser(\r... */\n    tag_28:\n        /* \"contracts/NewRegulator.sol\":747:751  bool */\n      0x00\n        /* \"contracts/NewRegulator.sol\":797:966  User(\r... */\n      mload(0x40)\n      dup1\n      0xc0\n      add\n      0x40\n      mstore\n      dup1\n        /* \"contracts/NewRegulator.sol\":830:839  _username */\n      dup8\n        /* \"contracts/NewRegulator.sol\":797:966  User(\r... */\n      dup2\n      mstore\n      0x20\n      add\n        /* \"contracts/NewRegulator.sol\":864:873  _userrole */\n      dup7\n        /* \"contracts/NewRegulator.sol\":797:966  User(\r... */\n      0x06\n      dup2\n      gt\n      iszero\n      tag_90\n      jumpi\n      tag_91\n      tag_43\n      jump\t// in\n    tag_91:\n    tag_90:\n      dup2\n      mstore\n      0x20\n      add\n        /* \"contracts/NewRegulator.sol\":889:893  true */\n      0x01\n        /* \"contracts/NewRegulator.sol\":797:966  User(\r... */\n      iszero\n      iszero\n      dup2\n      mstore\n      0x20\n      add\n        /* \"contracts/NewRegulator.sol\":908:912  _lat */\n      dup6\n        /* \"contracts/NewRegulator.sol\":797:966  User(\r... */\n      dup2\n      mstore\n      0x20\n      add\n        /* \"contracts/NewRegulator.sol\":927:932  _long */\n      dup5\n        /* \"contracts/NewRegulator.sol\":797:966  User(\r... */\n      dup2\n      mstore\n      0x20\n      add\n        /* \"contracts/NewRegulator.sol\":947:955  _address */\n      dup4\n        /* \"contracts/NewRegulator.sol\":797:966  User(\r... */\n      0xffffffffffffffffffffffffffffffffffffffff\n      and\n      dup2\n      mstore\n      pop\n        /* \"contracts/NewRegulator.sol\":764:782  UserAddressMapping */\n      0x01\n        /* \"contracts/NewRegulator.sol\":764:794  UserAddressMapping[usersCount] */\n      0x00\n        /* \"contracts/NewRegulator.sol\":783:793  usersCount */\n      dup1\n      sload\n        /* \"contracts/NewRegulator.sol\":764:794  UserAddressMapping[usersCount] */\n      dup2\n      mstore\n      0x20\n      add\n      swap1\n      dup2\n      mstore\n      0x20\n      add\n      0x00\n      keccak256\n        /* \"contracts/NewRegulator.sol\":764:966  UserAddressMapping[usersCount] = User(\r... */\n      0x00\n      dup3\n      add\n      mload\n      dup2\n      0x00\n      add\n      swap1\n      dup1\n      mload\n      swap1\n      0x20\n      add\n      swap1\n      tag_92\n      swap3\n      swap2\n      swap1\n      tag_93\n      jump\t// in\n    tag_92:\n      pop\n      0x20\n      dup3\n      add\n      mload\n      dup2\n      0x01\n      add\n      exp(0x0100, 0x00)\n      dup2\n      sload\n      dup2\n      0xff\n      mul\n      not\n      and\n      swap1\n      dup4\n      0x06\n      dup2\n      gt\n      iszero\n      tag_94\n      jumpi\n      tag_95\n      tag_43\n      jump\t// in\n    tag_95:\n    tag_94:\n      mul\n      or\n      swap1\n      sstore\n      pop\n      0x40\n      dup3\n      add\n      mload\n      dup2\n      0x01\n      add\n      exp(0x0100, 0x01)\n      dup2\n      sload\n      dup2\n      0xff\n      mul\n      not\n      and\n      swap1\n      dup4\n      iszero\n      iszero\n      mul\n      or\n      swap1\n      sstore\n      pop\n      0x60\n      dup3\n      add\n      mload\n      dup2\n      0x02\n      add\n      sstore\n      0x80\n      dup3\n      add\n      mload\n      dup2\n      0x03\n      add\n      sstore\n      0xa0\n      dup3\n      add\n      mload\n      dup2\n      0x04\n      add\n      exp(0x0100, 0x00)\n      dup2\n      sload\n      dup2\n      0xffffffffffffffffffffffffffffffffffffffff\n      mul\n      not\n      and\n      swap1\n      dup4\n      0xffffffffffffffffffffffffffffffffffffffff\n      and\n      mul\n      or\n      swap1\n      sstore\n      pop\n      swap1\n      pop\n      pop\n        /* \"contracts/NewRegulator.sol\":991:992  1 */\n      0x01\n        /* \"contracts/NewRegulator.sol\":977:987  usersCount */\n      0x00\n      dup1\n        /* \"contracts/NewRegulator.sol\":977:992  usersCount += 1 */\n      dup3\n      dup3\n      sload\n      tag_96\n      swap2\n      swap1\n      tag_61\n      jump\t// in\n    tag_96:\n      swap3\n      pop\n      pop\n      dup2\n      swap1\n      sstore\n      pop\n        /* \"contracts/NewRegulator.sol\":1010:1014  true */\n      0x01\n        /* \"contracts/NewRegulator.sol\":1003:1014  return true */\n      swap1\n      pop\n        /* \"contracts/NewRegulator.sol\":566:1022  function CreateUser(\r... */\n      swap6\n      swap5\n      pop\n      pop\n      pop\n      pop\n      pop\n      jump\t// out\n    tag_37:\n      mload(0x40)\n      dup1\n      0xc0\n      add\n      0x40\n      mstore\n      dup1\n      0x60\n      dup2\n      mstore\n      0x20\n      add\n      0x00\n      0x06\n      dup2\n      gt\n      iszero\n      tag_97\n      jumpi\n      tag_98\n      tag_43\n      jump\t// in\n    tag_98:\n    tag_97:\n      dup2\n      mstore\n      0x20\n      add\n      iszero(iszero(0x00))\n      dup2\n      mstore\n      0x20\n      add\n      0x00\n      dup2\n      mstore\n      0x20\n      add\n      0x00\n      dup2\n      mstore\n      0x20\n      add\n      and(0xffffffffffffffffffffffffffffffffffffffff, 0x00)\n      dup2\n      mstore\n      pop\n      swap1\n      jump\t// out\n    tag_93:\n      dup3\n      dup1\n      sload\n      tag_99\n      swap1\n      tag_48\n      jump\t// in\n    tag_99:\n      swap1\n      0x00\n      mstore\n      keccak256(0x00, 0x20)\n      swap1\n      0x1f\n      add\n      0x20\n      swap1\n      div\n      dup2\n      add\n      swap3\n      dup3\n      tag_101\n      jumpi\n      0x00\n      dup6\n      sstore\n      jump(tag_100)\n    tag_101:\n      dup3\n      0x1f\n      lt\n      tag_102\n      jumpi\n      dup1\n      mload\n      not(0xff)\n      and\n      dup4\n      dup1\n      add\n      or\n      dup6\n      sstore\n      jump(tag_100)\n    tag_102:\n      dup3\n      dup1\n      add\n      0x01\n      add\n      dup6\n      sstore\n      dup3\n      iszero\n      tag_100\n      jumpi\n      swap2\n      dup3\n      add\n    tag_103:\n      dup3\n      dup2\n      gt\n      iszero\n      tag_104\n      jumpi\n      dup3\n      mload\n      dup3\n      sstore\n      swap2\n      0x20\n      add\n      swap2\n      swap1\n      0x01\n      add\n      swap1\n      jump(tag_103)\n    tag_104:\n    tag_100:\n      pop\n      swap1\n      pop\n      tag_105\n      swap2\n      swap1\n      tag_106\n      jump\t// in\n    tag_105:\n      pop\n      swap1\n      jump\t// out\n    tag_106:\n    tag_107:\n      dup1\n      dup3\n      gt\n      iszero\n      tag_108\n      jumpi\n      0x00\n      dup2\n      0x00\n      swap1\n      sstore\n      pop\n      0x01\n      add\n      jump(tag_107)\n    tag_108:\n      pop\n      swap1\n      jump\t// out\n        /* \"#utility.yul\":7:419   */\n    tag_110:\n        /* \"#utility.yul\":85:90   */\n      0x00\n        /* \"#utility.yul\":110:176   */\n      tag_112\n        /* \"#utility.yul\":126:175   */\n      tag_113\n        /* \"#utility.yul\":168:174   */\n      dup5\n        /* \"#utility.yul\":126:175   */\n      tag_114\n      jump\t// in\n    tag_113:\n        /* \"#utility.yul\":110:176   */\n      tag_115\n      jump\t// in\n    tag_112:\n        /* \"#utility.yul\":101:176   */\n      swap1\n      pop\n        /* \"#utility.yul\":199:205   */\n      dup3\n        /* \"#utility.yul\":192:197   */\n      dup2\n        /* \"#utility.yul\":185:206   */\n      mstore\n        /* \"#utility.yul\":237:241   */\n      0x20\n        /* \"#utility.yul\":230:235   */\n      dup2\n        /* \"#utility.yul\":226:242   */\n      add\n        /* \"#utility.yul\":275:278   */\n      dup5\n        /* \"#utility.yul\":266:272   */\n      dup5\n        /* \"#utility.yul\":261:264   */\n      dup5\n        /* \"#utility.yul\":257:273   */\n      add\n        /* \"#utility.yul\":254:279   */\n      gt\n        /* \"#utility.yul\":251:363   */\n      iszero\n      tag_116\n      jumpi\n        /* \"#utility.yul\":282:361   */\n      tag_117\n      tag_118\n      jump\t// in\n    tag_117:\n        /* \"#utility.yul\":251:363   */\n    tag_116:\n        /* \"#utility.yul\":372:413   */\n      tag_119\n        /* \"#utility.yul\":406:412   */\n      dup5\n        /* \"#utility.yul\":401:404   */\n      dup3\n        /* \"#utility.yul\":396:399   */\n      dup6\n        /* \"#utility.yul\":372:413   */\n      tag_120\n      jump\t// in\n    tag_119:\n        /* \"#utility.yul\":91:419   */\n      pop\n        /* \"#utility.yul\":7:419   */\n      swap4\n      swap3\n      pop\n      pop\n      pop\n      jump\t// out\n        /* \"#utility.yul\":425:564   */\n    tag_121:\n        /* \"#utility.yul\":471:476   */\n      0x00\n        /* \"#utility.yul\":509:515   */\n      dup2\n        /* \"#utility.yul\":496:516   */\n      calldataload\n        /* \"#utility.yul\":487:516   */\n      swap1\n      pop\n        /* \"#utility.yul\":525:558   */\n      tag_123\n        /* \"#utility.yul\":552:557   */\n      dup2\n        /* \"#utility.yul\":525:558   */\n      tag_124\n      jump\t// in\n    tag_123:\n        /* \"#utility.yul\":425:564   */\n      swap3\n      swap2\n      pop\n      pop\n      jump\t// out\n        /* \"#utility.yul\":570:703   */\n    tag_125:\n        /* \"#utility.yul\":613:618   */\n      0x00\n        /* \"#utility.yul\":651:657   */\n      dup2\n        /* \"#utility.yul\":638:658   */\n      calldataload\n        /* \"#utility.yul\":629:658   */\n      swap1\n      pop\n        /* \"#utility.yul\":667:697   */\n      tag_127\n        /* \"#utility.yul\":691:696   */\n      dup2\n        /* \"#utility.yul\":667:697   */\n      tag_128\n      jump\t// in\n    tag_127:\n        /* \"#utility.yul\":570:703   */\n      swap3\n      swap2\n      pop\n      pop\n      jump\t// out\n        /* \"#utility.yul\":709:872   */\n    tag_129:\n        /* \"#utility.yul\":767:772   */\n      0x00\n        /* \"#utility.yul\":805:811   */\n      dup2\n        /* \"#utility.yul\":792:812   */\n      calldataload\n        /* \"#utility.yul\":783:812   */\n      swap1\n      pop\n        /* \"#utility.yul\":821:866   */\n      tag_131\n        /* \"#utility.yul\":860:865   */\n      dup2\n        /* \"#utility.yul\":821:866   */\n      tag_132\n      jump\t// in\n    tag_131:\n        /* \"#utility.yul\":709:872   */\n      swap3\n      swap2\n      pop\n      pop\n      jump\t// out\n        /* \"#utility.yul\":892:1232   */\n    tag_133:\n        /* \"#utility.yul\":948:953   */\n      0x00\n        /* \"#utility.yul\":997:1000   */\n      dup3\n        /* \"#utility.yul\":990:994   */\n      0x1f\n        /* \"#utility.yul\":982:988   */\n      dup4\n        /* \"#utility.yul\":978:995   */\n      add\n        /* \"#utility.yul\":974:1001   */\n      slt\n        /* \"#utility.yul\":964:1086   */\n      tag_135\n      jumpi\n        /* \"#utility.yul\":1005:1084   */\n      tag_136\n      tag_137\n      jump\t// in\n    tag_136:\n        /* \"#utility.yul\":964:1086   */\n    tag_135:\n        /* \"#utility.yul\":1122:1128   */\n      dup2\n        /* \"#utility.yul\":1109:1129   */\n      calldataload\n        /* \"#utility.yul\":1147:1226   */\n      tag_138\n        /* \"#utility.yul\":1222:1225   */\n      dup5\n        /* \"#utility.yul\":1214:1220   */\n      dup3\n        /* \"#utility.yul\":1207:1211   */\n      0x20\n        /* \"#utility.yul\":1199:1205   */\n      dup7\n        /* \"#utility.yul\":1195:1212   */\n      add\n        /* \"#utility.yul\":1147:1226   */\n      tag_110\n      jump\t// in\n    tag_138:\n        /* \"#utility.yul\":1138:1226   */\n      swap2\n      pop\n        /* \"#utility.yul\":954:1232   */\n      pop\n        /* \"#utility.yul\":892:1232   */\n      swap3\n      swap2\n      pop\n      pop\n      jump\t// out\n        /* \"#utility.yul\":1238:1377   */\n    tag_139:\n        /* \"#utility.yul\":1284:1289   */\n      0x00\n        /* \"#utility.yul\":1322:1328   */\n      dup2\n        /* \"#utility.yul\":1309:1329   */\n      calldataload\n        /* \"#utility.yul\":1300:1329   */\n      swap1\n      pop\n        /* \"#utility.yul\":1338:1371   */\n      tag_141\n        /* \"#utility.yul\":1365:1370   */\n      dup2\n        /* \"#utility.yul\":1338:1371   */\n      tag_142\n      jump\t// in\n    tag_141:\n        /* \"#utility.yul\":1238:1377   */\n      swap3\n      swap2\n      pop\n      pop\n      jump\t// out\n        /* \"#utility.yul\":1383:1736   */\n    tag_9:\n        /* \"#utility.yul\":1454:1460   */\n      0x00\n        /* \"#utility.yul\":1503:1505   */\n      0x20\n        /* \"#utility.yul\":1491:1500   */\n      dup3\n        /* \"#utility.yul\":1482:1489   */\n      dup5\n        /* \"#utility.yul\":1478:1501   */\n      sub\n        /* \"#utility.yul\":1474:1506   */\n      slt\n        /* \"#utility.yul\":1471:1590   */\n      iszero\n      tag_144\n      jumpi\n        /* \"#utility.yul\":1509:1588   */\n      tag_145\n      tag_146\n      jump\t// in\n    tag_145:\n        /* \"#utility.yul\":1471:1590   */\n    tag_144:\n        /* \"#utility.yul\":1629:1630   */\n      0x00\n        /* \"#utility.yul\":1654:1719   */\n      tag_147\n        /* \"#utility.yul\":1711:1718   */\n      dup5\n        /* \"#utility.yul\":1702:1708   */\n      dup3\n        /* \"#utility.yul\":1691:1700   */\n      dup6\n        /* \"#utility.yul\":1687:1709   */\n      add\n        /* \"#utility.yul\":1654:1719   */\n      tag_129\n      jump\t// in\n    tag_147:\n        /* \"#utility.yul\":1644:1719   */\n      swap2\n      pop\n        /* \"#utility.yul\":1600:1729   */\n      pop\n        /* \"#utility.yul\":1383:1736   */\n      swap3\n      swap2\n      pop\n      pop\n      jump\t// out\n        /* \"#utility.yul\":1742:2857   */\n    tag_27:\n        /* \"#utility.yul\":1859:1865   */\n      0x00\n        /* \"#utility.yul\":1867:1873   */\n      dup1\n        /* \"#utility.yul\":1875:1881   */\n      0x00\n        /* \"#utility.yul\":1883:1889   */\n      dup1\n        /* \"#utility.yul\":1891:1897   */\n      0x00\n        /* \"#utility.yul\":1940:1943   */\n      0xa0\n        /* \"#utility.yul\":1928:1937   */\n      dup7\n        /* \"#utility.yul\":1919:1926   */\n      dup9\n        /* \"#utility.yul\":1915:1938   */\n      sub\n        /* \"#utility.yul\":1911:1944   */\n      slt\n        /* \"#utility.yul\":1908:2028   */\n      iszero\n      tag_149\n      jumpi\n        /* \"#utility.yul\":1947:2026   */\n      tag_150\n      tag_146\n      jump\t// in\n    tag_150:\n        /* \"#utility.yul\":1908:2028   */\n    tag_149:\n        /* \"#utility.yul\":2095:2096   */\n      0x00\n        /* \"#utility.yul\":2084:2093   */\n      dup7\n        /* \"#utility.yul\":2080:2097   */\n      add\n        /* \"#utility.yul\":2067:2098   */\n      calldataload\n        /* \"#utility.yul\":2125:2143   */\n      0xffffffffffffffff\n        /* \"#utility.yul\":2117:2123   */\n      dup2\n        /* \"#utility.yul\":2114:2144   */\n      gt\n        /* \"#utility.yul\":2111:2228   */\n      iszero\n      tag_151\n      jumpi\n        /* \"#utility.yul\":2147:2226   */\n      tag_152\n      tag_153\n      jump\t// in\n    tag_152:\n        /* \"#utility.yul\":2111:2228   */\n    tag_151:\n        /* \"#utility.yul\":2252:2315   */\n      tag_154\n        /* \"#utility.yul\":2307:2314   */\n      dup9\n        /* \"#utility.yul\":2298:2304   */\n      dup3\n        /* \"#utility.yul\":2287:2296   */\n      dup10\n        /* \"#utility.yul\":2283:2305   */\n      add\n        /* \"#utility.yul\":2252:2315   */\n      tag_133\n      jump\t// in\n    tag_154:\n        /* \"#utility.yul\":2242:2315   */\n      swap6\n      pop\n        /* \"#utility.yul\":2038:2325   */\n      pop\n        /* \"#utility.yul\":2364:2366   */\n      0x20\n        /* \"#utility.yul\":2390:2455   */\n      tag_155\n        /* \"#utility.yul\":2447:2454   */\n      dup9\n        /* \"#utility.yul\":2438:2444   */\n      dup3\n        /* \"#utility.yul\":2427:2436   */\n      dup10\n        /* \"#utility.yul\":2423:2445   */\n      add\n        /* \"#utility.yul\":2390:2455   */\n      tag_129\n      jump\t// in\n    tag_155:\n        /* \"#utility.yul\":2380:2455   */\n      swap5\n      pop\n        /* \"#utility.yul\":2335:2465   */\n      pop\n        /* \"#utility.yul\":2504:2506   */\n      0x40\n        /* \"#utility.yul\":2530:2583   */\n      tag_156\n        /* \"#utility.yul\":2575:2582   */\n      dup9\n        /* \"#utility.yul\":2566:2572   */\n      dup3\n        /* \"#utility.yul\":2555:2564   */\n      dup10\n        /* \"#utility.yul\":2551:2573   */\n      add\n        /* \"#utility.yul\":2530:2583   */\n      tag_139\n      jump\t// in\n    tag_156:\n        /* \"#utility.yul\":2520:2583   */\n      swap4\n      pop\n        /* \"#utility.yul\":2475:2593   */\n      pop\n        /* \"#utility.yul\":2632:2634   */\n      0x60\n        /* \"#utility.yul\":2658:2711   */\n      tag_157\n        /* \"#utility.yul\":2703:2710   */\n      dup9\n        /* \"#utility.yul\":2694:2700   */\n      dup3\n        /* \"#utility.yul\":2683:2692   */\n      dup10\n        /* \"#utility.yul\":2679:2701   */\n      add\n        /* \"#utility.yul\":2658:2711   */\n      tag_139\n      jump\t// in\n    tag_157:\n        /* \"#utility.yul\":2648:2711   */\n      swap3\n      pop\n        /* \"#utility.yul\":2603:2721   */\n      pop\n        /* \"#utility.yul\":2760:2763   */\n      0x80\n        /* \"#utility.yul\":2787:2840   */\n      tag_158\n        /* \"#utility.yul\":2832:2839   */\n      dup9\n        /* \"#utility.yul\":2823:2829   */\n      dup3\n        /* \"#utility.yul\":2812:2821   */\n      dup10\n        /* \"#utility.yul\":2808:2830   */\n      add\n        /* \"#utility.yul\":2787:2840   */\n      tag_121\n      jump\t// in\n    tag_158:\n        /* \"#utility.yul\":2777:2840   */\n      swap2\n      pop\n        /* \"#utility.yul\":2731:2850   */\n      pop\n        /* \"#utility.yul\":1742:2857   */\n      swap3\n      swap6\n      pop\n      swap3\n      swap6\n      swap1\n      swap4\n      pop\n      jump\t// out\n        /* \"#utility.yul\":2863:3192   */\n    tag_15:\n        /* \"#utility.yul\":2922:2928   */\n      0x00\n        /* \"#utility.yul\":2971:2973   */\n      0x20\n        /* \"#utility.yul\":2959:2968   */\n      dup3\n        /* \"#utility.yul\":2950:2957   */\n      dup5\n        /* \"#utility.yul\":2946:2969   */\n      sub\n        /* \"#utility.yul\":2942:2974   */\n      slt\n        /* \"#utility.yul\":2939:3058   */\n      iszero\n      tag_160\n      jumpi\n        /* \"#utility.yul\":2977:3056   */\n      tag_161\n      tag_146\n      jump\t// in\n    tag_161:\n        /* \"#utility.yul\":2939:3058   */\n    tag_160:\n        /* \"#utility.yul\":3097:3098   */\n      0x00\n        /* \"#utility.yul\":3122:3175   */\n      tag_162\n        /* \"#utility.yul\":3167:3174   */\n      dup5\n        /* \"#utility.yul\":3158:3164   */\n      dup3\n        /* \"#utility.yul\":3147:3156   */\n      dup6\n        /* \"#utility.yul\":3143:3165   */\n      add\n        /* \"#utility.yul\":3122:3175   */\n      tag_139\n      jump\t// in\n    tag_162:\n        /* \"#utility.yul\":3112:3175   */\n      swap2\n      pop\n        /* \"#utility.yul\":3068:3185   */\n      pop\n        /* \"#utility.yul\":2863:3192   */\n      swap3\n      swap2\n      pop\n      pop\n      jump\t// out\n        /* \"#utility.yul\":3198:3666   */\n    tag_21:\n        /* \"#utility.yul\":3263:3269   */\n      0x00\n        /* \"#utility.yul\":3271:3277   */\n      dup1\n        /* \"#utility.yul\":3320:3322   */\n      0x40\n        /* \"#utility.yul\":3308:3317   */\n      dup4\n        /* \"#utility.yul\":3299:3306   */\n      dup6\n        /* \"#utility.yul\":3295:3318   */\n      sub\n        /* \"#utility.yul\":3291:3323   */\n      slt\n        /* \"#utility.yul\":3288:3407   */\n      iszero\n      tag_164\n      jumpi\n        /* \"#utility.yul\":3326:3405   */\n      tag_165\n      tag_146\n      jump\t// in\n    tag_165:\n        /* \"#utility.yul\":3288:3407   */\n    tag_164:\n        /* \"#utility.yul\":3446:3447   */\n      0x00\n        /* \"#utility.yul\":3471:3524   */\n      tag_166\n        /* \"#utility.yul\":3516:3523   */\n      dup6\n        /* \"#utility.yul\":3507:3513   */\n      dup3\n        /* \"#utility.yul\":3496:3505   */\n      dup7\n        /* \"#utility.yul\":3492:3514   */\n      add\n        /* \"#utility.yul\":3471:3524   */\n      tag_139\n      jump\t// in\n    tag_166:\n        /* \"#utility.yul\":3461:3524   */\n      swap3\n      pop\n        /* \"#utility.yul\":3417:3534   */\n      pop\n        /* \"#utility.yul\":3573:3575   */\n      0x20\n        /* \"#utility.yul\":3599:3649   */\n      tag_167\n        /* \"#utility.yul\":3641:3648   */\n      dup6\n        /* \"#utility.yul\":3632:3638   */\n      dup3\n        /* \"#utility.yul\":3621:3630   */\n      dup7\n        /* \"#utility.yul\":3617:3639   */\n      add\n        /* \"#utility.yul\":3599:3649   */\n      tag_125\n      jump\t// in\n    tag_167:\n        /* \"#utility.yul\":3589:3649   */\n      swap2\n      pop\n        /* \"#utility.yul\":3544:3659   */\n      pop\n        /* \"#utility.yul\":3198:3666   */\n      swap3\n      pop\n      swap3\n      swap1\n      pop\n      jump\t// out\n        /* \"#utility.yul\":3672:3908   */\n    tag_168:\n        /* \"#utility.yul\":3781:3791   */\n      0x00\n        /* \"#utility.yul\":3816:3902   */\n      tag_170\n        /* \"#utility.yul\":3898:3901   */\n      dup4\n        /* \"#utility.yul\":3890:3896   */\n      dup4\n        /* \"#utility.yul\":3816:3902   */\n      tag_171\n      jump\t// in\n    tag_170:\n        /* \"#utility.yul\":3802:3902   */\n      swap1\n      pop\n        /* \"#utility.yul\":3672:3908   */\n      swap3\n      swap2\n      pop\n      pop\n      jump\t// out\n        /* \"#utility.yul\":3914:4022   */\n    tag_172:\n        /* \"#utility.yul\":3991:4015   */\n      tag_174\n        /* \"#utility.yul\":4009:4014   */\n      dup2\n        /* \"#utility.yul\":3991:4015   */\n      tag_175\n      jump\t// in\n    tag_174:\n        /* \"#utility.yul\":3986:3989   */\n      dup3\n        /* \"#utility.yul\":3979:4016   */\n      mstore\n        /* \"#utility.yul\":3914:4022   */\n      pop\n      pop\n      jump\t// out\n        /* \"#utility.yul\":4086:5157   */\n    tag_176:\n        /* \"#utility.yul\":4245:4248   */\n      0x00\n        /* \"#utility.yul\":4274:4348   */\n      tag_178\n        /* \"#utility.yul\":4342:4347   */\n      dup3\n        /* \"#utility.yul\":4274:4348   */\n      tag_179\n      jump\t// in\n    tag_178:\n        /* \"#utility.yul\":4364:4470   */\n      tag_180\n        /* \"#utility.yul\":4463:4469   */\n      dup2\n        /* \"#utility.yul\":4458:4461   */\n      dup6\n        /* \"#utility.yul\":4364:4470   */\n      tag_181\n      jump\t// in\n    tag_180:\n        /* \"#utility.yul\":4357:4470   */\n      swap4\n      pop\n        /* \"#utility.yul\":4496:4499   */\n      dup4\n        /* \"#utility.yul\":4541:4545   */\n      0x20\n        /* \"#utility.yul\":4533:4539   */\n      dup3\n        /* \"#utility.yul\":4529:4546   */\n      mul\n        /* \"#utility.yul\":4524:4527   */\n      dup6\n        /* \"#utility.yul\":4520:4547   */\n      add\n        /* \"#utility.yul\":4571:4647   */\n      tag_182\n        /* \"#utility.yul\":4641:4646   */\n      dup6\n        /* \"#utility.yul\":4571:4647   */\n      tag_183\n      jump\t// in\n    tag_182:\n        /* \"#utility.yul\":4670:4677   */\n      dup1\n        /* \"#utility.yul\":4701:4702   */\n      0x00\n        /* \"#utility.yul\":4686:5112   */\n    tag_184:\n        /* \"#utility.yul\":4711:4717   */\n      dup6\n        /* \"#utility.yul\":4708:4709   */\n      dup2\n        /* \"#utility.yul\":4705:4718   */\n      lt\n        /* \"#utility.yul\":4686:5112   */\n      iszero\n      tag_186\n      jumpi\n        /* \"#utility.yul\":4782:4791   */\n      dup5\n        /* \"#utility.yul\":4776:4780   */\n      dup5\n        /* \"#utility.yul\":4772:4792   */\n      sub\n        /* \"#utility.yul\":4767:4770   */\n      dup10\n        /* \"#utility.yul\":4760:4793   */\n      mstore\n        /* \"#utility.yul\":4833:4839   */\n      dup2\n        /* \"#utility.yul\":4827:4840   */\n      mload\n        /* \"#utility.yul\":4861:4965   */\n      tag_187\n        /* \"#utility.yul\":4960:4964   */\n      dup6\n        /* \"#utility.yul\":4945:4958   */\n      dup3\n        /* \"#utility.yul\":4861:4965   */\n      tag_168\n      jump\t// in\n    tag_187:\n        /* \"#utility.yul\":4853:4965   */\n      swap5\n      pop\n        /* \"#utility.yul\":4988:5068   */\n      tag_188\n        /* \"#utility.yul\":5061:5067   */\n      dup4\n        /* \"#utility.yul\":4988:5068   */\n      tag_189\n      jump\t// in\n    tag_188:\n        /* \"#utility.yul\":4978:5068   */\n      swap3\n      pop\n        /* \"#utility.yul\":5097:5101   */\n      0x20\n        /* \"#utility.yul\":5092:5095   */\n      dup11\n        /* \"#utility.yul\":5088:5102   */\n      add\n        /* \"#utility.yul\":5081:5102   */\n      swap10\n      pop\n        /* \"#utility.yul\":4746:5112   */\n      pop\n        /* \"#utility.yul\":4733:4734   */\n      0x01\n        /* \"#utility.yul\":4730:4731   */\n      dup2\n        /* \"#utility.yul\":4726:4735   */\n      add\n        /* \"#utility.yul\":4721:4735   */\n      swap1\n      pop\n        /* \"#utility.yul\":4686:5112   */\n      jump(tag_184)\n    tag_186:\n        /* \"#utility.yul\":4690:4704   */\n      pop\n        /* \"#utility.yul\":5128:5132   */\n      dup3\n        /* \"#utility.yul\":5121:5132   */\n      swap8\n      pop\n        /* \"#utility.yul\":5148:5151   */\n      dup8\n        /* \"#utility.yul\":5141:5151   */\n      swap6\n      pop\n        /* \"#utility.yul\":4250:5157   */\n      pop\n      pop\n      pop\n      pop\n      pop\n        /* \"#utility.yul\":4086:5157   */\n      swap3\n      swap2\n      pop\n      pop\n      jump\t// out\n        /* \"#utility.yul\":5163:5262   */\n    tag_190:\n        /* \"#utility.yul\":5234:5255   */\n      tag_192\n        /* \"#utility.yul\":5249:5254   */\n      dup2\n        /* \"#utility.yul\":5234:5255   */\n      tag_193\n      jump\t// in\n    tag_192:\n        /* \"#utility.yul\":5229:5232   */\n      dup3\n        /* \"#utility.yul\":5222:5256   */\n      mstore\n        /* \"#utility.yul\":5163:5262   */\n      pop\n      pop\n      jump\t// out\n        /* \"#utility.yul\":5268:5377   */\n    tag_194:\n        /* \"#utility.yul\":5349:5370   */\n      tag_196\n        /* \"#utility.yul\":5364:5369   */\n      dup2\n        /* \"#utility.yul\":5349:5370   */\n      tag_193\n      jump\t// in\n    tag_196:\n        /* \"#utility.yul\":5344:5347   */\n      dup3\n        /* \"#utility.yul\":5337:5371   */\n      mstore\n        /* \"#utility.yul\":5268:5377   */\n      pop\n      pop\n      jump\t// out\n        /* \"#utility.yul\":5383:5524   */\n    tag_197:\n        /* \"#utility.yul\":5470:5517   */\n      tag_199\n        /* \"#utility.yul\":5511:5516   */\n      dup2\n        /* \"#utility.yul\":5470:5517   */\n      tag_200\n      jump\t// in\n    tag_199:\n        /* \"#utility.yul\":5465:5468   */\n      dup3\n        /* \"#utility.yul\":5458:5518   */\n      mstore\n        /* \"#utility.yul\":5383:5524   */\n      pop\n      pop\n      jump\t// out\n        /* \"#utility.yul\":5530:5874   */\n    tag_201:\n        /* \"#utility.yul\":5608:5611   */\n      0x00\n        /* \"#utility.yul\":5636:5675   */\n      tag_203\n        /* \"#utility.yul\":5669:5674   */\n      dup3\n        /* \"#utility.yul\":5636:5675   */\n      tag_204\n      jump\t// in\n    tag_203:\n        /* \"#utility.yul\":5691:5752   */\n      tag_205\n        /* \"#utility.yul\":5745:5751   */\n      dup2\n        /* \"#utility.yul\":5740:5743   */\n      dup6\n        /* \"#utility.yul\":5691:5752   */\n      tag_206\n      jump\t// in\n    tag_205:\n        /* \"#utility.yul\":5684:5752   */\n      swap4\n      pop\n        /* \"#utility.yul\":5761:5813   */\n      tag_207\n        /* \"#utility.yul\":5806:5812   */\n      dup2\n        /* \"#utility.yul\":5801:5804   */\n      dup6\n        /* \"#utility.yul\":5794:5798   */\n      0x20\n        /* \"#utility.yul\":5787:5792   */\n      dup7\n        /* \"#utility.yul\":5783:5799   */\n      add\n        /* \"#utility.yul\":5761:5813   */\n      tag_208\n      jump\t// in\n    tag_207:\n        /* \"#utility.yul\":5838:5867   */\n      tag_209\n        /* \"#utility.yul\":5860:5866   */\n      dup2\n        /* \"#utility.yul\":5838:5867   */\n      tag_210\n      jump\t// in\n    tag_209:\n        /* \"#utility.yul\":5833:5836   */\n      dup5\n        /* \"#utility.yul\":5829:5868   */\n      add\n        /* \"#utility.yul\":5822:5868   */\n      swap2\n      pop\n        /* \"#utility.yul\":5612:5874   */\n      pop\n        /* \"#utility.yul\":5530:5874   */\n      swap3\n      swap2\n      pop\n      pop\n      jump\t// out\n        /* \"#utility.yul\":5934:7248   */\n    tag_171:\n        /* \"#utility.yul\":6033:6036   */\n      0x00\n        /* \"#utility.yul\":6069:6073   */\n      0xc0\n        /* \"#utility.yul\":6064:6067   */\n      dup4\n        /* \"#utility.yul\":6060:6074   */\n      add\n        /* \"#utility.yul\":6160:6164   */\n      0x00\n        /* \"#utility.yul\":6153:6158   */\n      dup4\n        /* \"#utility.yul\":6149:6165   */\n      add\n        /* \"#utility.yul\":6143:6166   */\n      mload\n        /* \"#utility.yul\":6213:6216   */\n      dup5\n        /* \"#utility.yul\":6207:6211   */\n      dup3\n        /* \"#utility.yul\":6203:6217   */\n      sub\n        /* \"#utility.yul\":6196:6200   */\n      0x00\n        /* \"#utility.yul\":6191:6194   */\n      dup7\n        /* \"#utility.yul\":6187:6201   */\n      add\n        /* \"#utility.yul\":6180:6218   */\n      mstore\n        /* \"#utility.yul\":6239:6312   */\n      tag_212\n        /* \"#utility.yul\":6307:6311   */\n      dup3\n        /* \"#utility.yul\":6293:6305   */\n      dup3\n        /* \"#utility.yul\":6239:6312   */\n      tag_201\n      jump\t// in\n    tag_212:\n        /* \"#utility.yul\":6231:6312   */\n      swap2\n      pop\n        /* \"#utility.yul\":6084:6323   */\n      pop\n        /* \"#utility.yul\":6409:6413   */\n      0x20\n        /* \"#utility.yul\":6402:6407   */\n      dup4\n        /* \"#utility.yul\":6398:6414   */\n      add\n        /* \"#utility.yul\":6392:6415   */\n      mload\n        /* \"#utility.yul\":6428:6501   */\n      tag_213\n        /* \"#utility.yul\":6495:6499   */\n      0x20\n        /* \"#utility.yul\":6490:6493   */\n      dup7\n        /* \"#utility.yul\":6486:6500   */\n      add\n        /* \"#utility.yul\":6472:6484   */\n      dup3\n        /* \"#utility.yul\":6428:6501   */\n      tag_197\n      jump\t// in\n    tag_213:\n        /* \"#utility.yul\":6333:6511   */\n      pop\n        /* \"#utility.yul\":6597:6601   */\n      0x40\n        /* \"#utility.yul\":6590:6595   */\n      dup4\n        /* \"#utility.yul\":6586:6602   */\n      add\n        /* \"#utility.yul\":6580:6603   */\n      mload\n        /* \"#utility.yul\":6616:6673   */\n      tag_214\n        /* \"#utility.yul\":6667:6671   */\n      0x40\n        /* \"#utility.yul\":6662:6665   */\n      dup7\n        /* \"#utility.yul\":6658:6672   */\n      add\n        /* \"#utility.yul\":6644:6656   */\n      dup3\n        /* \"#utility.yul\":6616:6673   */\n      tag_190\n      jump\t// in\n    tag_214:\n        /* \"#utility.yul\":6521:6683   */\n      pop\n        /* \"#utility.yul\":6769:6773   */\n      0x60\n        /* \"#utility.yul\":6762:6767   */\n      dup4\n        /* \"#utility.yul\":6758:6774   */\n      add\n        /* \"#utility.yul\":6752:6775   */\n      mload\n        /* \"#utility.yul\":6788:6851   */\n      tag_215\n        /* \"#utility.yul\":6845:6849   */\n      0x60\n        /* \"#utility.yul\":6840:6843   */\n      dup7\n        /* \"#utility.yul\":6836:6850   */\n      add\n        /* \"#utility.yul\":6822:6834   */\n      dup3\n        /* \"#utility.yul\":6788:6851   */\n      tag_216\n      jump\t// in\n    tag_215:\n        /* \"#utility.yul\":6693:6861   */\n      pop\n        /* \"#utility.yul\":6948:6952   */\n      0x80\n        /* \"#utility.yul\":6941:6946   */\n      dup4\n        /* \"#utility.yul\":6937:6953   */\n      add\n        /* \"#utility.yul\":6931:6954   */\n      mload\n        /* \"#utility.yul\":6967:7030   */\n      tag_217\n        /* \"#utility.yul\":7024:7028   */\n      0x80\n        /* \"#utility.yul\":7019:7022   */\n      dup7\n        /* \"#utility.yul\":7015:7029   */\n      add\n        /* \"#utility.yul\":7001:7013   */\n      dup3\n        /* \"#utility.yul\":6967:7030   */\n      tag_216\n      jump\t// in\n    tag_217:\n        /* \"#utility.yul\":6871:7040   */\n      pop\n        /* \"#utility.yul\":7129:7133   */\n      0xa0\n        /* \"#utility.yul\":7122:7127   */\n      dup4\n        /* \"#utility.yul\":7118:7134   */\n      add\n        /* \"#utility.yul\":7112:7135   */\n      mload\n        /* \"#utility.yul\":7148:7211   */\n      tag_218\n        /* \"#utility.yul\":7205:7209   */\n      0xa0\n        /* \"#utility.yul\":7200:7203   */\n      dup7\n        /* \"#utility.yul\":7196:7210   */\n      add\n        /* \"#utility.yul\":7182:7194   */\n      dup3\n        /* \"#utility.yul\":7148:7211   */\n      tag_172\n      jump\t// in\n    tag_218:\n        /* \"#utility.yul\":7050:7221   */\n      pop\n        /* \"#utility.yul\":7238:7242   */\n      dup1\n        /* \"#utility.yul\":7231:7242   */\n      swap2\n      pop\n        /* \"#utility.yul\":6038:7248   */\n      pop\n        /* \"#utility.yul\":5934:7248   */\n      swap3\n      swap2\n      pop\n      pop\n      jump\t// out\n        /* \"#utility.yul\":7308:8632   */\n    tag_219:\n        /* \"#utility.yul\":7417:7420   */\n      0x00\n        /* \"#utility.yul\":7453:7457   */\n      0xc0\n        /* \"#utility.yul\":7448:7451   */\n      dup4\n        /* \"#utility.yul\":7444:7458   */\n      add\n        /* \"#utility.yul\":7544:7548   */\n      0x00\n        /* \"#utility.yul\":7537:7542   */\n      dup4\n        /* \"#utility.yul\":7533:7549   */\n      add\n        /* \"#utility.yul\":7527:7550   */\n      mload\n        /* \"#utility.yul\":7597:7600   */\n      dup5\n        /* \"#utility.yul\":7591:7595   */\n      dup3\n        /* \"#utility.yul\":7587:7601   */\n      sub\n        /* \"#utility.yul\":7580:7584   */\n      0x00\n        /* \"#utility.yul\":7575:7578   */\n      dup7\n        /* \"#utility.yul\":7571:7585   */\n      add\n        /* \"#utility.yul\":7564:7602   */\n      mstore\n        /* \"#utility.yul\":7623:7696   */\n      tag_221\n        /* \"#utility.yul\":7691:7695   */\n      dup3\n        /* \"#utility.yul\":7677:7689   */\n      dup3\n        /* \"#utility.yul\":7623:7696   */\n      tag_201\n      jump\t// in\n    tag_221:\n        /* \"#utility.yul\":7615:7696   */\n      swap2\n      pop\n        /* \"#utility.yul\":7468:7707   */\n      pop\n        /* \"#utility.yul\":7793:7797   */\n      0x20\n        /* \"#utility.yul\":7786:7791   */\n      dup4\n        /* \"#utility.yul\":7782:7798   */\n      add\n        /* \"#utility.yul\":7776:7799   */\n      mload\n        /* \"#utility.yul\":7812:7885   */\n      tag_222\n        /* \"#utility.yul\":7879:7883   */\n      0x20\n        /* \"#utility.yul\":7874:7877   */\n      dup7\n        /* \"#utility.yul\":7870:7884   */\n      add\n        /* \"#utility.yul\":7856:7868   */\n      dup3\n        /* \"#utility.yul\":7812:7885   */\n      tag_197\n      jump\t// in\n    tag_222:\n        /* \"#utility.yul\":7717:7895   */\n      pop\n        /* \"#utility.yul\":7981:7985   */\n      0x40\n        /* \"#utility.yul\":7974:7979   */\n      dup4\n        /* \"#utility.yul\":7970:7986   */\n      add\n        /* \"#utility.yul\":7964:7987   */\n      mload\n        /* \"#utility.yul\":8000:8057   */\n      tag_223\n        /* \"#utility.yul\":8051:8055   */\n      0x40\n        /* \"#utility.yul\":8046:8049   */\n      dup7\n        /* \"#utility.yul\":8042:8056   */\n      add\n        /* \"#utility.yul\":8028:8040   */\n      dup3\n        /* \"#utility.yul\":8000:8057   */\n      tag_190\n      jump\t// in\n    tag_223:\n        /* \"#utility.yul\":7905:8067   */\n      pop\n        /* \"#utility.yul\":8153:8157   */\n      0x60\n        /* \"#utility.yul\":8146:8151   */\n      dup4\n        /* \"#utility.yul\":8142:8158   */\n      add\n        /* \"#utility.yul\":8136:8159   */\n      mload\n        /* \"#utility.yul\":8172:8235   */\n      tag_224\n        /* \"#utility.yul\":8229:8233   */\n      0x60\n        /* \"#utility.yul\":8224:8227   */\n      dup7\n        /* \"#utility.yul\":8220:8234   */\n      add\n        /* \"#utility.yul\":8206:8218   */\n      dup3\n        /* \"#utility.yul\":8172:8235   */\n      tag_216\n      jump\t// in\n    tag_224:\n        /* \"#utility.yul\":8077:8245   */\n      pop\n        /* \"#utility.yul\":8332:8336   */\n      0x80\n        /* \"#utility.yul\":8325:8330   */\n      dup4\n        /* \"#utility.yul\":8321:8337   */\n      add\n        /* \"#utility.yul\":8315:8338   */\n      mload\n        /* \"#utility.yul\":8351:8414   */\n      tag_225\n        /* \"#utility.yul\":8408:8412   */\n      0x80\n        /* \"#utility.yul\":8403:8406   */\n      dup7\n        /* \"#utility.yul\":8399:8413   */\n      add\n        /* \"#utility.yul\":8385:8397   */\n      dup3\n        /* \"#utility.yul\":8351:8414   */\n      tag_216\n      jump\t// in\n    tag_225:\n        /* \"#utility.yul\":8255:8424   */\n      pop\n        /* \"#utility.yul\":8513:8517   */\n      0xa0\n        /* \"#utility.yul\":8506:8511   */\n      dup4\n        /* \"#utility.yul\":8502:8518   */\n      add\n        /* \"#utility.yul\":8496:8519   */\n      mload\n        /* \"#utility.yul\":8532:8595   */\n      tag_226\n        /* \"#utility.yul\":8589:8593   */\n      0xa0\n        /* \"#utility.yul\":8584:8587   */\n      dup7\n        /* \"#utility.yul\":8580:8594   */\n      add\n        /* \"#utility.yul\":8566:8578   */\n      dup3\n        /* \"#utility.yul\":8532:8595   */\n      tag_172\n      jump\t// in\n    tag_226:\n        /* \"#utility.yul\":8434:8605   */\n      pop\n        /* \"#utility.yul\":8622:8626   */\n      dup1\n        /* \"#utility.yul\":8615:8626   */\n      swap2\n      pop\n        /* \"#utility.yul\":7422:8632   */\n      pop\n        /* \"#utility.yul\":7308:8632   */\n      swap3\n      swap2\n      pop\n      pop\n      jump\t// out\n        /* \"#utility.yul\":8638:8746   */\n    tag_216:\n        /* \"#utility.yul\":8715:8739   */\n      tag_228\n        /* \"#utility.yul\":8733:8738   */\n      dup2\n        /* \"#utility.yul\":8715:8739   */\n      tag_229\n      jump\t// in\n    tag_228:\n        /* \"#utility.yul\":8710:8713   */\n      dup3\n        /* \"#utility.yul\":8703:8740   */\n      mstore\n        /* \"#utility.yul\":8638:8746   */\n      pop\n      pop\n      jump\t// out\n        /* \"#utility.yul\":8752:9205   */\n    tag_12:\n        /* \"#utility.yul\":8935:8939   */\n      0x00\n        /* \"#utility.yul\":8973:8975   */\n      0x20\n        /* \"#utility.yul\":8962:8971   */\n      dup3\n        /* \"#utility.yul\":8958:8976   */\n      add\n        /* \"#utility.yul\":8950:8976   */\n      swap1\n      pop\n        /* \"#utility.yul\":9022:9031   */\n      dup2\n        /* \"#utility.yul\":9016:9020   */\n      dup2\n        /* \"#utility.yul\":9012:9032   */\n      sub\n        /* \"#utility.yul\":9008:9009   */\n      0x00\n        /* \"#utility.yul\":8997:9006   */\n      dup4\n        /* \"#utility.yul\":8993:9010   */\n      add\n        /* \"#utility.yul\":8986:9033   */\n      mstore\n        /* \"#utility.yul\":9050:9198   */\n      tag_231\n        /* \"#utility.yul\":9193:9197   */\n      dup2\n        /* \"#utility.yul\":9184:9190   */\n      dup5\n        /* \"#utility.yul\":9050:9198   */\n      tag_176\n      jump\t// in\n    tag_231:\n        /* \"#utility.yul\":9042:9198   */\n      swap1\n      pop\n        /* \"#utility.yul\":8752:9205   */\n      swap3\n      swap2\n      pop\n      pop\n      jump\t// out\n        /* \"#utility.yul\":9211:9421   */\n    tag_24:\n        /* \"#utility.yul\":9298:9302   */\n      0x00\n        /* \"#utility.yul\":9336:9338   */\n      0x20\n        /* \"#utility.yul\":9325:9334   */\n      dup3\n        /* \"#utility.yul\":9321:9339   */\n      add\n        /* \"#utility.yul\":9313:9339   */\n      swap1\n      pop\n        /* \"#utility.yul\":9349:9414   */\n      tag_233\n        /* \"#utility.yul\":9411:9412   */\n      0x00\n        /* \"#utility.yul\":9400:9409   */\n      dup4\n        /* \"#utility.yul\":9396:9413   */\n      add\n        /* \"#utility.yul\":9387:9393   */\n      dup5\n        /* \"#utility.yul\":9349:9414   */\n      tag_194\n      jump\t// in\n    tag_233:\n        /* \"#utility.yul\":9211:9421   */\n      swap3\n      swap2\n      pop\n      pop\n      jump\t// out\n        /* \"#utility.yul\":9427:9780   */\n    tag_18:\n        /* \"#utility.yul\":9560:9564   */\n      0x00\n        /* \"#utility.yul\":9598:9600   */\n      0x20\n        /* \"#utility.yul\":9587:9596   */\n      dup3\n        /* \"#utility.yul\":9583:9601   */\n      add\n        /* \"#utility.yul\":9575:9601   */\n      swap1\n      pop\n        /* \"#utility.yul\":9647:9656   */\n      dup2\n        /* \"#utility.yul\":9641:9645   */\n      dup2\n        /* \"#utility.yul\":9637:9657   */\n      sub\n        /* \"#utility.yul\":9633:9634   */\n      0x00\n        /* \"#utility.yul\":9622:9631   */\n      dup4\n        /* \"#utility.yul\":9618:9635   */\n      add\n        /* \"#utility.yul\":9611:9658   */\n      mstore\n        /* \"#utility.yul\":9675:9773   */\n      tag_235\n        /* \"#utility.yul\":9768:9772   */\n      dup2\n        /* \"#utility.yul\":9759:9765   */\n      dup5\n        /* \"#utility.yul\":9675:9773   */\n      tag_219\n      jump\t// in\n    tag_235:\n        /* \"#utility.yul\":9667:9773   */\n      swap1\n      pop\n        /* \"#utility.yul\":9427:9780   */\n      swap3\n      swap2\n      pop\n      pop\n      jump\t// out\n        /* \"#utility.yul\":9786:9915   */\n    tag_115:\n        /* \"#utility.yul\":9820:9826   */\n      0x00\n        /* \"#utility.yul\":9847:9867   */\n      tag_237\n      tag_238\n      jump\t// in\n    tag_237:\n        /* \"#utility.yul\":9837:9867   */\n      swap1\n      pop\n        /* \"#utility.yul\":9876:9909   */\n      tag_239\n        /* \"#utility.yul\":9904:9908   */\n      dup3\n        /* \"#utility.yul\":9896:9902   */\n      dup3\n        /* \"#utility.yul\":9876:9909   */\n      tag_240\n      jump\t// in\n    tag_239:\n        /* \"#utility.yul\":9786:9915   */\n      swap2\n      swap1\n      pop\n      jump\t// out\n        /* \"#utility.yul\":9921:9996   */\n    tag_238:\n        /* \"#utility.yul\":9954:9960   */\n      0x00\n        /* \"#utility.yul\":9987:9989   */\n      0x40\n        /* \"#utility.yul\":9981:9990   */\n      mload\n        /* \"#utility.yul\":9971:9990   */\n      swap1\n      pop\n        /* \"#utility.yul\":9921:9996   */\n      swap1\n      jump\t// out\n        /* \"#utility.yul\":10002:10310   */\n    tag_114:\n        /* \"#utility.yul\":10064:10068   */\n      0x00\n        /* \"#utility.yul\":10154:10172   */\n      0xffffffffffffffff\n        /* \"#utility.yul\":10146:10152   */\n      dup3\n        /* \"#utility.yul\":10143:10173   */\n      gt\n        /* \"#utility.yul\":10140:10196   */\n      iszero\n      tag_243\n      jumpi\n        /* \"#utility.yul\":10176:10194   */\n      tag_244\n      tag_33\n      jump\t// in\n    tag_244:\n        /* \"#utility.yul\":10140:10196   */\n    tag_243:\n        /* \"#utility.yul\":10214:10243   */\n      tag_245\n        /* \"#utility.yul\":10236:10242   */\n      dup3\n        /* \"#utility.yul\":10214:10243   */\n      tag_210\n      jump\t// in\n    tag_245:\n        /* \"#utility.yul\":10206:10243   */\n      swap1\n      pop\n        /* \"#utility.yul\":10298:10302   */\n      0x20\n        /* \"#utility.yul\":10292:10296   */\n      dup2\n        /* \"#utility.yul\":10288:10303   */\n      add\n        /* \"#utility.yul\":10280:10303   */\n      swap1\n      pop\n        /* \"#utility.yul\":10002:10310   */\n      swap2\n      swap1\n      pop\n      jump\t// out\n        /* \"#utility.yul\":10316:10468   */\n    tag_183:\n        /* \"#utility.yul\":10403:10407   */\n      0x00\n        /* \"#utility.yul\":10426:10429   */\n      dup2\n        /* \"#utility.yul\":10418:10429   */\n      swap1\n      pop\n        /* \"#utility.yul\":10456:10460   */\n      0x20\n        /* \"#utility.yul\":10451:10454   */\n      dup3\n        /* \"#utility.yul\":10447:10461   */\n      add\n        /* \"#utility.yul\":10439:10461   */\n      swap1\n      pop\n        /* \"#utility.yul\":10316:10468   */\n      swap2\n      swap1\n      pop\n      jump\t// out\n        /* \"#utility.yul\":10474:10608   */\n    tag_179:\n        /* \"#utility.yul\":10561:10567   */\n      0x00\n        /* \"#utility.yul\":10595:10600   */\n      dup2\n        /* \"#utility.yul\":10589:10601   */\n      mload\n        /* \"#utility.yul\":10579:10601   */\n      swap1\n      pop\n        /* \"#utility.yul\":10474:10608   */\n      swap2\n      swap1\n      pop\n      jump\t// out\n        /* \"#utility.yul\":10614:10713   */\n    tag_204:\n        /* \"#utility.yul\":10666:10672   */\n      0x00\n        /* \"#utility.yul\":10700:10705   */\n      dup2\n        /* \"#utility.yul\":10694:10706   */\n      mload\n        /* \"#utility.yul\":10684:10706   */\n      swap1\n      pop\n        /* \"#utility.yul\":10614:10713   */\n      swap2\n      swap1\n      pop\n      jump\t// out\n        /* \"#utility.yul\":10719:10852   */\n    tag_189:\n        /* \"#utility.yul\":10809:10813   */\n      0x00\n        /* \"#utility.yul\":10841:10845   */\n      0x20\n        /* \"#utility.yul\":10836:10839   */\n      dup3\n        /* \"#utility.yul\":10832:10846   */\n      add\n        /* \"#utility.yul\":10824:10846   */\n      swap1\n      pop\n        /* \"#utility.yul\":10719:10852   */\n      swap2\n      swap1\n      pop\n      jump\t// out\n        /* \"#utility.yul\":10858:11062   */\n    tag_181:\n        /* \"#utility.yul\":10977:10988   */\n      0x00\n        /* \"#utility.yul\":11011:11017   */\n      dup3\n        /* \"#utility.yul\":11006:11009   */\n      dup3\n        /* \"#utility.yul\":10999:11018   */\n      mstore\n        /* \"#utility.yul\":11051:11055   */\n      0x20\n        /* \"#utility.yul\":11046:11049   */\n      dup3\n        /* \"#utility.yul\":11042:11056   */\n      add\n        /* \"#utility.yul\":11027:11056   */\n      swap1\n      pop\n        /* \"#utility.yul\":10858:11062   */\n      swap3\n      swap2\n      pop\n      pop\n      jump\t// out\n        /* \"#utility.yul\":11068:11227   */\n    tag_206:\n        /* \"#utility.yul\":11142:11153   */\n      0x00\n        /* \"#utility.yul\":11176:11182   */\n      dup3\n        /* \"#utility.yul\":11171:11174   */\n      dup3\n        /* \"#utility.yul\":11164:11183   */\n      mstore\n        /* \"#utility.yul\":11216:11220   */\n      0x20\n        /* \"#utility.yul\":11211:11214   */\n      dup3\n        /* \"#utility.yul\":11207:11221   */\n      add\n        /* \"#utility.yul\":11192:11221   */\n      swap1\n      pop\n        /* \"#utility.yul\":11068:11227   */\n      swap3\n      swap2\n      pop\n      pop\n      jump\t// out\n        /* \"#utility.yul\":11233:11538   */\n    tag_61:\n        /* \"#utility.yul\":11273:11276   */\n      0x00\n        /* \"#utility.yul\":11292:11312   */\n      tag_253\n        /* \"#utility.yul\":11310:11311   */\n      dup3\n        /* \"#utility.yul\":11292:11312   */\n      tag_229\n      jump\t// in\n    tag_253:\n        /* \"#utility.yul\":11287:11312   */\n      swap2\n      pop\n        /* \"#utility.yul\":11326:11346   */\n      tag_254\n        /* \"#utility.yul\":11344:11345   */\n      dup4\n        /* \"#utility.yul\":11326:11346   */\n      tag_229\n      jump\t// in\n    tag_254:\n        /* \"#utility.yul\":11321:11346   */\n      swap3\n      pop\n        /* \"#utility.yul\":11480:11481   */\n      dup3\n        /* \"#utility.yul\":11412:11478   */\n      0xffffffffffffffffffffffffffffffffffffffffffffffffffffffffffffffff\n        /* \"#utility.yul\":11408:11482   */\n      sub\n        /* \"#utility.yul\":11405:11406   */\n      dup3\n        /* \"#utility.yul\":11402:11483   */\n      gt\n        /* \"#utility.yul\":11399:11506   */\n      iszero\n      tag_255\n      jumpi\n        /* \"#utility.yul\":11486:11504   */\n      tag_256\n      tag_257\n      jump\t// in\n    tag_256:\n        /* \"#utility.yul\":11399:11506   */\n    tag_255:\n        /* \"#utility.yul\":11530:11531   */\n      dup3\n        /* \"#utility.yul\":11527:11528   */\n      dup3\n        /* \"#utility.yul\":11523:11532   */\n      add\n        /* \"#utility.yul\":11516:11532   */\n      swap1\n      pop\n        /* \"#utility.yul\":11233:11538   */\n      swap3\n      swap2\n      pop\n      pop\n      jump\t// out\n        /* \"#utility.yul\":11544:11640   */\n    tag_175:\n        /* \"#utility.yul\":11581:11588   */\n      0x00\n        /* \"#utility.yul\":11610:11634   */\n      tag_259\n        /* \"#utility.yul\":11628:11633   */\n      dup3\n        /* \"#utility.yul\":11610:11634   */\n      tag_260\n      jump\t// in\n    tag_259:\n        /* \"#utility.yul\":11599:11634   */\n      swap1\n      pop\n        /* \"#utility.yul\":11544:11640   */\n      swap2\n      swap1\n      pop\n      jump\t// out\n        /* \"#utility.yul\":11646:11736   */\n    tag_193:\n        /* \"#utility.yul\":11680:11687   */\n      0x00\n        /* \"#utility.yul\":11723:11728   */\n      dup2\n        /* \"#utility.yul\":11716:11729   */\n      iszero\n        /* \"#utility.yul\":11709:11730   */\n      iszero\n        /* \"#utility.yul\":11698:11730   */\n      swap1\n      pop\n        /* \"#utility.yul\":11646:11736   */\n      swap2\n      swap1\n      pop\n      jump\t// out\n        /* \"#utility.yul\":11742:11877   */\n    tag_262:\n        /* \"#utility.yul\":11791:11798   */\n      0x00\n        /* \"#utility.yul\":11820:11825   */\n      dup2\n        /* \"#utility.yul\":11809:11825   */\n      swap1\n      pop\n        /* \"#utility.yul\":11826:11871   */\n      tag_264\n        /* \"#utility.yul\":11865:11870   */\n      dup3\n        /* \"#utility.yul\":11826:11871   */\n      tag_265\n      jump\t// in\n    tag_264:\n        /* \"#utility.yul\":11742:11877   */\n      swap2\n      swap1\n      pop\n      jump\t// out\n        /* \"#utility.yul\":11883:12009   */\n    tag_260:\n        /* \"#utility.yul\":11920:11927   */\n      0x00\n        /* \"#utility.yul\":11960:12002   */\n      0xffffffffffffffffffffffffffffffffffffffff\n        /* \"#utility.yul\":11953:11958   */\n      dup3\n        /* \"#utility.yul\":11949:12003   */\n      and\n        /* \"#utility.yul\":11938:12003   */\n      swap1\n      pop\n        /* \"#utility.yul\":11883:12009   */\n      swap2\n      swap1\n      pop\n      jump\t// out\n        /* \"#utility.yul\":12015:12092   */\n    tag_229:\n        /* \"#utility.yul\":12052:12059   */\n      0x00\n        /* \"#utility.yul\":12081:12086   */\n      dup2\n        /* \"#utility.yul\":12070:12086   */\n      swap1\n      pop\n        /* \"#utility.yul\":12015:12092   */\n      swap2\n      swap1\n      pop\n      jump\t// out\n        /* \"#utility.yul\":12098:12233   */\n    tag_200:\n        /* \"#utility.yul\":12158:12167   */\n      0x00\n        /* \"#utility.yul\":12191:12227   */\n      tag_269\n        /* \"#utility.yul\":12221:12226   */\n      dup3\n        /* \"#utility.yul\":12191:12227   */\n      tag_262\n      jump\t// in\n    tag_269:\n        /* \"#utility.yul\":12178:12227   */\n      swap1\n      pop\n        /* \"#utility.yul\":12098:12233   */\n      swap2\n      swap1\n      pop\n      jump\t// out\n        /* \"#utility.yul\":12239:12393   */\n    tag_120:\n        /* \"#utility.yul\":12323:12329   */\n      dup3\n        /* \"#utility.yul\":12318:12321   */\n      dup2\n        /* \"#utility.yul\":12313:12316   */\n      dup4\n        /* \"#utility.yul\":12300:12330   */\n      calldatacopy\n        /* \"#utility.yul\":12385:12386   */\n      0x00\n        /* \"#utility.yul\":12376:12382   */\n      dup4\n        /* \"#utility.yul\":12371:12374   */\n      dup4\n        /* \"#utility.yul\":12367:12383   */\n      add\n        /* \"#utility.yul\":12360:12387   */\n      mstore\n        /* \"#utility.yul\":12239:12393   */\n      pop\n      pop\n      pop\n      jump\t// out\n        /* \"#utility.yul\":12399:12706   */\n    tag_208:\n        /* \"#utility.yul\":12467:12468   */\n      0x00\n        /* \"#utility.yul\":12477:12590   */\n    tag_272:\n        /* \"#utility.yul\":12491:12497   */\n      dup4\n        /* \"#utility.yul\":12488:12489   */\n      dup2\n        /* \"#utility.yul\":12485:12498   */\n      lt\n        /* \"#utility.yul\":12477:12590   */\n      iszero\n      tag_274\n      jumpi\n        /* \"#utility.yul\":12576:12577   */\n      dup1\n        /* \"#utility.yul\":12571:12574   */\n      dup3\n        /* \"#utility.yul\":12567:12578   */\n      add\n        /* \"#utility.yul\":12561:12579   */\n      mload\n        /* \"#utility.yul\":12557:12558   */\n      dup2\n        /* \"#utility.yul\":12552:12555   */\n      dup5\n        /* \"#utility.yul\":12548:12559   */\n      add\n        /* \"#utility.yul\":12541:12580   */\n      mstore\n        /* \"#utility.yul\":12513:12515   */\n      0x20\n        /* \"#utility.yul\":12510:12511   */\n      dup2\n        /* \"#utility.yul\":12506:12516   */\n      add\n        /* \"#utility.yul\":12501:12516   */\n      swap1\n      pop\n        /* \"#utility.yul\":12477:12590   */\n      jump(tag_272)\n    tag_274:\n        /* \"#utility.yul\":12608:12614   */\n      dup4\n        /* \"#utility.yul\":12605:12606   */\n      dup2\n        /* \"#utility.yul\":12602:12615   */\n      gt\n        /* \"#utility.yul\":12599:12700   */\n      iszero\n      tag_275\n      jumpi\n        /* \"#utility.yul\":12688:12689   */\n      0x00\n        /* \"#utility.yul\":12679:12685   */\n      dup5\n        /* \"#utility.yul\":12674:12677   */\n      dup5\n        /* \"#utility.yul\":12670:12686   */\n      add\n        /* \"#utility.yul\":12663:12690   */\n      mstore\n        /* \"#utility.yul\":12599:12700   */\n    tag_275:\n        /* \"#utility.yul\":12448:12706   */\n      pop\n        /* \"#utility.yul\":12399:12706   */\n      pop\n      pop\n      pop\n      jump\t// out\n        /* \"#utility.yul\":12712:13032   */\n    tag_48:\n        /* \"#utility.yul\":12756:12762   */\n      0x00\n        /* \"#utility.yul\":12793:12794   */\n      0x02\n        /* \"#utility.yul\":12787:12791   */\n      dup3\n        /* \"#utility.yul\":12783:12795   */\n      div\n        /* \"#utility.yul\":12773:12795   */\n      swap1\n      pop\n        /* \"#utility.yul\":12840:12841   */\n      0x01\n        /* \"#utility.yul\":12834:12838   */\n      dup3\n        /* \"#utility.yul\":12830:12842   */\n      and\n        /* \"#utility.yul\":12861:12879   */\n      dup1\n        /* \"#utility.yul\":12851:12932   */\n      tag_277\n      jumpi\n        /* \"#utility.yul\":12917:12921   */\n      0x7f\n        /* \"#utility.yul\":12909:12915   */\n      dup3\n        /* \"#utility.yul\":12905:12922   */\n      and\n        /* \"#utility.yul\":12895:12922   */\n      swap2\n      pop\n        /* \"#utility.yul\":12851:12932   */\n    tag_277:\n        /* \"#utility.yul\":12979:12981   */\n      0x20\n        /* \"#utility.yul\":12971:12977   */\n      dup3\n        /* \"#utility.yul\":12968:12982   */\n      lt\n        /* \"#utility.yul\":12948:12966   */\n      dup2\n        /* \"#utility.yul\":12945:12983   */\n      eq\n        /* \"#utility.yul\":12942:13026   */\n      iszero\n      tag_278\n      jumpi\n        /* \"#utility.yul\":12998:13016   */\n      tag_279\n      tag_280\n      jump\t// in\n    tag_279:\n        /* \"#utility.yul\":12942:13026   */\n    tag_278:\n        /* \"#utility.yul\":12763:13032   */\n      pop\n        /* \"#utility.yul\":12712:13032   */\n      swap2\n      swap1\n      pop\n      jump\t// out\n        /* \"#utility.yul\":13038:13319   */\n    tag_240:\n        /* \"#utility.yul\":13121:13148   */\n      tag_282\n        /* \"#utility.yul\":13143:13147   */\n      dup3\n        /* \"#utility.yul\":13121:13148   */\n      tag_210\n      jump\t// in\n    tag_282:\n        /* \"#utility.yul\":13113:13119   */\n      dup2\n        /* \"#utility.yul\":13109:13149   */\n      add\n        /* \"#utility.yul\":13251:13257   */\n      dup2\n        /* \"#utility.yul\":13239:13249   */\n      dup2\n        /* \"#utility.yul\":13236:13258   */\n      lt\n        /* \"#utility.yul\":13215:13233   */\n      0xffffffffffffffff\n        /* \"#utility.yul\":13203:13213   */\n      dup3\n        /* \"#utility.yul\":13200:13234   */\n      gt\n        /* \"#utility.yul\":13197:13259   */\n      or\n        /* \"#utility.yul\":13194:13282   */\n      iszero\n      tag_283\n      jumpi\n        /* \"#utility.yul\":13262:13280   */\n      tag_284\n      tag_33\n      jump\t// in\n    tag_284:\n        /* \"#utility.yul\":13194:13282   */\n    tag_283:\n        /* \"#utility.yul\":13302:13312   */\n      dup1\n        /* \"#utility.yul\":13298:13300   */\n      0x40\n        /* \"#utility.yul\":13291:13313   */\n      mstore\n        /* \"#utility.yul\":13081:13319   */\n      pop\n        /* \"#utility.yul\":13038:13319   */\n      pop\n      pop\n      jump\t// out\n        /* \"#utility.yul\":13325:13558   */\n    tag_63:\n        /* \"#utility.yul\":13364:13367   */\n      0x00\n        /* \"#utility.yul\":13387:13411   */\n      tag_286\n        /* \"#utility.yul\":13405:13410   */\n      dup3\n        /* \"#utility.yul\":13387:13411   */\n      tag_229\n      jump\t// in\n    tag_286:\n        /* \"#utility.yul\":13378:13411   */\n      swap2\n      pop\n        /* \"#utility.yul\":13433:13499   */\n      0xffffffffffffffffffffffffffffffffffffffffffffffffffffffffffffffff\n        /* \"#utility.yul\":13426:13431   */\n      dup3\n        /* \"#utility.yul\":13423:13500   */\n      eq\n        /* \"#utility.yul\":13420:13523   */\n      iszero\n      tag_287\n      jumpi\n        /* \"#utility.yul\":13503:13521   */\n      tag_288\n      tag_257\n      jump\t// in\n    tag_288:\n        /* \"#utility.yul\":13420:13523   */\n    tag_287:\n        /* \"#utility.yul\":13550:13551   */\n      0x01\n        /* \"#utility.yul\":13543:13548   */\n      dup3\n        /* \"#utility.yul\":13539:13552   */\n      add\n        /* \"#utility.yul\":13532:13552   */\n      swap1\n      pop\n        /* \"#utility.yul\":13325:13558   */\n      swap2\n      swap1\n      pop\n      jump\t// out\n        /* \"#utility.yul\":13564:13744   */\n    tag_257:\n        /* \"#utility.yul\":13612:13689   */\n      0x4e487b7100000000000000000000000000000000000000000000000000000000\n        /* \"#utility.yul\":13609:13610   */\n      0x00\n        /* \"#utility.yul\":13602:13690   */\n      mstore\n        /* \"#utility.yul\":13709:13713   */\n      0x11\n        /* \"#utility.yul\":13706:13707   */\n      0x04\n        /* \"#utility.yul\":13699:13714   */\n      mstore\n        /* \"#utility.yul\":13733:13737   */\n      0x24\n        /* \"#utility.yul\":13730:13731   */\n      0x00\n        /* \"#utility.yul\":13723:13738   */\n      revert\n        /* \"#utility.yul\":13750:13930   */\n    tag_43:\n        /* \"#utility.yul\":13798:13875   */\n      0x4e487b7100000000000000000000000000000000000000000000000000000000\n        /* \"#utility.yul\":13795:13796   */\n      0x00\n        /* \"#utility.yul\":13788:13876   */\n      mstore\n        /* \"#utility.yul\":13895:13899   */\n      0x21\n        /* \"#utility.yul\":13892:13893   */\n      0x04\n        /* \"#utility.yul\":13885:13900   */\n      mstore\n        /* \"#utility.yul\":13919:13923   */\n      0x24\n        /* \"#utility.yul\":13916:13917   */\n      0x00\n        /* \"#utility.yul\":13909:13924   */\n      revert\n        /* \"#utility.yul\":13936:14116   */\n    tag_280:\n        /* \"#utility.yul\":13984:14061   */\n      0x4e487b7100000000000000000000000000000000000000000000000000000000\n        /* \"#utility.yul\":13981:13982   */\n      0x00\n        /* \"#utility.yul\":13974:14062   */\n      mstore\n        /* \"#utility.yul\":14081:14085   */\n      0x22\n        /* \"#utility.yul\":14078:14079   */\n      0x04\n        /* \"#utility.yul\":14071:14086   */\n      mstore\n        /* \"#utility.yul\":14105:14109   */\n      0x24\n        /* \"#utility.yul\":14102:14103   */\n      0x00\n        /* \"#utility.yul\":14095:14110   */\n      revert\n        /* \"#utility.yul\":14122:14302   */\n    tag_59:\n        /* \"#utility.yul\":14170:14247   */\n      0x4e487b7100000000000000000000000000000000000000000000000000000000\n        /* \"#utility.yul\":14167:14168   */\n      0x00\n        /* \"#utility.yul\":14160:14248   */\n      mstore\n        /* \"#utility.yul\":14267:14271   */\n      0x32\n        /* \"#utility.yul\":14264:14265   */\n      0x04\n        /* \"#utility.yul\":14257:14272   */\n      mstore\n        /* \"#utility.yul\":14291:14295   */\n      0x24\n        /* \"#utility.yul\":14288:14289   */\n      0x00\n        /* \"#utility.yul\":14281:14296   */\n      revert\n        /* \"#utility.yul\":14308:14488   */\n    tag_33:\n        /* \"#utility.yul\":14356:14433   */\n      0x4e487b7100000000000000000000000000000000000000000000000000000000\n        /* \"#utility.yul\":14353:14354   */\n      0x00\n        /* \"#utility.yul\":14346:14434   */\n      mstore\n        /* \"#utility.yul\":14453:14457   */\n      0x41\n        /* \"#utility.yul\":14450:14451   */\n      0x04\n        /* \"#utility.yul\":14443:14458   */\n      mstore\n        /* \"#utility.yul\":14477:14481   */\n      0x24\n        /* \"#utility.yul\":14474:14475   */\n      0x00\n        /* \"#utility.yul\":14467:14482   */\n      revert\n        /* \"#utility.yul\":14494:14611   */\n    tag_137:\n        /* \"#utility.yul\":14603:14604   */\n      0x00\n        /* \"#utility.yul\":14600:14601   */\n      dup1\n        /* \"#utility.yul\":14593:14605   */\n      revert\n        /* \"#utility.yul\":14617:14734   */\n    tag_118:\n        /* \"#utility.yul\":14726:14727   */\n      0x00\n        /* \"#utility.yul\":14723:14724   */\n      dup1\n        /* \"#utility.yul\":14716:14728   */\n      revert\n        /* \"#utility.yul\":14740:14857   */\n    tag_153:\n        /* \"#utility.yul\":14849:14850   */\n      0x00\n        /* \"#utility.yul\":14846:14847   */\n      dup1\n        /* \"#utility.yul\":14839:14851   */\n      revert\n        /* \"#utility.yul\":14863:14980   */\n    tag_146:\n        /* \"#utility.yul\":14972:14973   */\n      0x00\n        /* \"#utility.yul\":14969:14970   */\n      dup1\n        /* \"#utility.yul\":14962:14974   */\n      revert\n        /* \"#utility.yul\":14986:15088   */\n    tag_210:\n        /* \"#utility.yul\":15027:15033   */\n      0x00\n        /* \"#utility.yul\":15078:15080   */\n      0x1f\n        /* \"#utility.yul\":15074:15081   */\n      not\n        /* \"#utility.yul\":15069:15071   */\n      0x1f\n        /* \"#utility.yul\":15062:15067   */\n      dup4\n        /* \"#utility.yul\":15058:15072   */\n      add\n        /* \"#utility.yul\":15054:15082   */\n      and\n        /* \"#utility.yul\":15044:15082   */\n      swap1\n      pop\n        /* \"#utility.yul\":14986:15088   */\n      swap2\n      swap1\n      pop\n      jump\t// out\n        /* \"#utility.yul\":15094:15211   */\n    tag_265:\n        /* \"#utility.yul\":15179:15180   */\n      0x07\n        /* \"#utility.yul\":15172:15177   */\n      dup2\n        /* \"#utility.yul\":15169:15181   */\n      lt\n        /* \"#utility.yul\":15159:15205   */\n      tag_300\n      jumpi\n        /* \"#utility.yul\":15185:15203   */\n      tag_301\n      tag_43\n      jump\t// in\n    tag_301:\n        /* \"#utility.yul\":15159:15205   */\n    tag_300:\n        /* \"#utility.yul\":15094:15211   */\n      pop\n      jump\t// out\n        /* \"#utility.yul\":15217:15339   */\n    tag_124:\n        /* \"#utility.yul\":15290:15314   */\n      tag_303\n        /* \"#utility.yul\":15308:15313   */\n      dup2\n        /* \"#utility.yul\":15290:15314   */\n      tag_175\n      jump\t// in\n    tag_303:\n        /* \"#utility.yul\":15283:15288   */\n      dup2\n        /* \"#utility.yul\":15280:15315   */\n      eq\n        /* \"#utility.yul\":15270:15333   */\n      tag_304\n      jumpi\n        /* \"#utility.yul\":15329:15330   */\n      0x00\n        /* \"#utility.yul\":15326:15327   */\n      dup1\n        /* \"#utility.yul\":15319:15331   */\n      revert\n        /* \"#utility.yul\":15270:15333   */\n    tag_304:\n        /* \"#utility.yul\":15217:15339   */\n      pop\n      jump\t// out\n        /* \"#utility.yul\":15345:15461   */\n    tag_128:\n        /* \"#utility.yul\":15415:15436   */\n      tag_306\n        /* \"#utility.yul\":15430:15435   */\n      dup2\n        /* \"#utility.yul\":15415:15436   */\n      tag_193\n      jump\t// in\n    tag_306:\n        /* \"#utility.yul\":15408:15413   */\n      dup2\n        /* \"#utility.yul\":15405:15437   */\n      eq\n        /* \"#utility.yul\":15395:15455   */\n      tag_307\n      jumpi\n        /* \"#utility.yul\":15451:15452   */\n      0x00\n        /* \"#utility.yul\":15448:15449   */\n      dup1\n        /* \"#utility.yul\":15441:15453   */\n      revert\n        /* \"#utility.yul\":15395:15455   */\n    tag_307:\n        /* \"#utility.yul\":15345:15461   */\n      pop\n      jump\t// out\n        /* \"#utility.yul\":15467:15578   */\n    tag_132:\n        /* \"#utility.yul\":15552:15553   */\n      0x07\n        /* \"#utility.yul\":15545:15550   */\n      dup2\n        /* \"#utility.yul\":15542:15554   */\n      lt\n        /* \"#utility.yul\":15532:15572   */\n      tag_309\n      jumpi\n        /* \"#utility.yul\":15568:15569   */\n      0x00\n        /* \"#utility.yul\":15565:15566   */\n      dup1\n        /* \"#utility.yul\":15558:15570   */\n      revert\n        /* \"#utility.yul\":15532:15572   */\n    tag_309:\n        /* \"#utility.yul\":15467:15578   */\n      pop\n      jump\t// out\n        /* \"#utility.yul\":15584:15706   */\n    tag_142:\n        /* \"#utility.yul\":15657:15681   */\n      tag_311\n        /* \"#utility.yul\":15675:15680   */\n      dup2\n        /* \"#utility.yul\":15657:15681   */\n      tag_229\n      jump\t// in\n    tag_311:\n        /* \"#utility.yul\":15650:15655   */\n      dup2\n        /* \"#utility.yul\":15647:15682   */\n      eq\n        /* \"#utility.yul\":15637:15700   */\n      tag_312\n      jumpi\n        /* \"#utility.yul\":15696:15697   */\n      0x00\n        /* \"#utility.yul\":15693:15694   */\n      dup1\n        /* \"#utility.yul\":15686:15698   */\n      revert\n        /* \"#utility.yul\":15637:15700   */\n    tag_312:\n        /* \"#utility.yul\":15584:15706   */\n      pop\n      jump\t// out\n\n    auxdata: 0xa26469706673582212206f9911134c23c51754a1bd1901957f5c3b268a97cd94623e825a8d98dba9fa3c64736f6c63430008070033\n}\n",
				"bytecode": {
					"linkReferences": {},
					"object": "608060405234801561001057600080fd5b506110cd806100206000396000f3fe608060405234801561001057600080fd5b506004361061004c5760003560e01c80630f9de97714610051578063596f5a4b146100815780635cbfc0da146100b157806371417e16146100e1575b600080fd5b61006b60048036038101906100669190610913565b610111565b6040516100789190610c63565b60405180910390f35b61009b600480360381019061009691906109d7565b610434565b6040516100a89190610ca0565b60405180910390f35b6100cb60048036038101906100c69190610a04565b6105b3565b6040516100d89190610c85565b60405180910390f35b6100fb60048036038101906100f69190610940565b6105ed565b6040516101089190610c85565b60405180910390f35b60606000805467ffffffffffffffff8111156101305761012f610fda565b5b60405190808252806020026020018201604052801561016957816020015b61015661074c565b81526020019060019003908161014e5790505b509050600080600090505b60005481101561037e5784600681111561019157610190610f4d565b5b6001600083815260200190815260200160002060010160009054906101000a900460ff1660068111156101c7576101c6610f4d565b5b141561036b57600160008281526020019081526020016000206040518060c00160405290816000820180546101fb90610e72565b80601f016020809104026020016040519081016040528092919081815260200182805461022790610e72565b80156102745780601f1061024957610100808354040283529160200191610274565b820191906000526020600020905b81548152906001019060200180831161025757829003601f168201915b505050505081526020016001820160009054906101000a900460ff1660068111156102a2576102a1610f4d565b5b60068111156102b4576102b3610f4d565b5b81526020016001820160019054906101000a900460ff1615151515815260200160028201548152602001600382015481526020016004820160009054906101000a900473ffffffffffffffffffffffffffffffffffffffff1673ffffffffffffffffffffffffffffffffffffffff1673ffffffffffffffffffffffffffffffffffffffff16815250508383815181106103505761034f610fab565b5b60200260200101819052506001826103689190610d6d565b91505b808061037690610ed5565b915050610174565b508067ffffffffffffffff81111561039957610398610fda565b5b6040519080825280602002602001820160405280156103d257816020015b6103bf61074c565b8152602001906001900390816103b75790505b50925060005b8181101561042c578281815181106103f3576103f2610fab565b5b602002602001015184828151811061040e5761040d610fab565b5b6020026020010181905250808061042490610ed5565b9150506103d8565b505050919050565b61043c61074c565b600160008381526020019081526020016000206040518060c001604052908160008201805461046a90610e72565b80601f016020809104026020016040519081016040528092919081815260200182805461049690610e72565b80156104e35780601f106104b8576101008083540402835291602001916104e3565b820191906000526020600020905b8154815290600101906020018083116104c657829003601f168201915b505050505081526020016001820160009054906101000a900460ff16600681111561051157610510610f4d565b5b600681111561052357610522610f4d565b5b81526020016001820160019054906101000a900460ff1615151515815260200160028201548152602001600382015481526020016004820160009054906101000a900473ffffffffffffffffffffffffffffffffffffffff1673ffffffffffffffffffffffffffffffffffffffff1673ffffffffffffffffffffffffffffffffffffffff16815250509050919050565b6000816001600085815260200190815260200160002060010160016101000a81548160ff0219169083151502179055506001905092915050565b60006040518060c0016040528087815260200186600681111561061357610612610f4d565b5b81526020016001151581526020018581526020018481526020018373ffffffffffffffffffffffffffffffffffffffff16815250600160008054815260200190815260200160002060008201518160000190805190602001906106779291906107ac565b5060208201518160010160006101000a81548160ff021916908360068111156106a3576106a2610f4d565b5b021790555060408201518160010160016101000a81548160ff021916908315150217905550606082015181600201556080820151816003015560a08201518160040160006101000a81548173ffffffffffffffffffffffffffffffffffffffff021916908373ffffffffffffffffffffffffffffffffffffffff16021790555090505060016000808282546107389190610d6d565b925050819055506001905095945050505050565b6040518060c00160405280606081526020016000600681111561077257610771610f4d565b5b81526020016000151581526020016000815260200160008152602001600073ffffffffffffffffffffffffffffffffffffffff1681525090565b8280546107b890610e72565b90600052602060002090601f0160209004810192826107da5760008555610821565b82601f106107f357805160ff1916838001178555610821565b82800160010185558215610821579182015b82811115610820578251825591602001919060010190610805565b5b50905061082e9190610832565b5090565b5b8082111561084b576000816000905550600101610833565b5090565b600061086261085d84610ce7565b610cc2565b90508281526020810184848401111561087e5761087d61100e565b5b610889848285610e30565b509392505050565b6000813590506108a081611042565b92915050565b6000813590506108b581611059565b92915050565b6000813590506108ca81611070565b92915050565b600082601f8301126108e5576108e4611009565b5b81356108f584826020860161084f565b91505092915050565b60008135905061090d81611080565b92915050565b60006020828403121561092957610928611018565b5b6000610937848285016108bb565b91505092915050565b600080600080600060a0868803121561095c5761095b611018565b5b600086013567ffffffffffffffff81111561097a57610979611013565b5b610986888289016108d0565b9550506020610997888289016108bb565b94505060406109a8888289016108fe565b93505060606109b9888289016108fe565b92505060806109ca88828901610891565b9150509295509295909350565b6000602082840312156109ed576109ec611018565b5b60006109fb848285016108fe565b91505092915050565b60008060408385031215610a1b57610a1a611018565b5b6000610a29858286016108fe565b9250506020610a3a858286016108a6565b9150509250929050565b6000610a508383610b42565b905092915050565b610a6181610dc3565b82525050565b6000610a7282610d28565b610a7c8185610d4b565b935083602082028501610a8e85610d18565b8060005b85811015610aca5784840389528151610aab8582610a44565b9450610ab683610d3e565b925060208a01995050600181019050610a92565b50829750879550505050505092915050565b610ae581610dd5565b82525050565b610af481610dd5565b82525050565b610b0381610e1e565b82525050565b6000610b1482610d33565b610b1e8185610d5c565b9350610b2e818560208601610e3f565b610b378161101d565b840191505092915050565b600060c0830160008301518482036000860152610b5f8282610b09565b9150506020830151610b746020860182610afa565b506040830151610b876040860182610adc565b506060830151610b9a6060860182610c54565b506080830151610bad6080860182610c54565b5060a0830151610bc060a0860182610a58565b508091505092915050565b600060c0830160008301518482036000860152610be88282610b09565b9150506020830151610bfd6020860182610afa565b506040830151610c106040860182610adc565b506060830151610c236060860182610c54565b506080830151610c366080860182610c54565b5060a0830151610c4960a0860182610a58565b508091505092915050565b610c5d81610e14565b82525050565b60006020820190508181036000830152610c7d8184610a67565b905092915050565b6000602082019050610c9a6000830184610aeb565b92915050565b60006020820190508181036000830152610cba8184610bcb565b905092915050565b6000610ccc610cdd565b9050610cd88282610ea4565b919050565b6000604051905090565b600067ffffffffffffffff821115610d0257610d01610fda565b5b610d0b8261101d565b9050602081019050919050565b6000819050602082019050919050565b600081519050919050565b600081519050919050565b6000602082019050919050565b600082825260208201905092915050565b600082825260208201905092915050565b6000610d7882610e14565b9150610d8383610e14565b9250827fffffffffffffffffffffffffffffffffffffffffffffffffffffffffffffffff03821115610db857610db7610f1e565b5b828201905092915050565b6000610dce82610df4565b9050919050565b60008115159050919050565b6000819050610def8261102e565b919050565b600073ffffffffffffffffffffffffffffffffffffffff82169050919050565b6000819050919050565b6000610e2982610de1565b9050919050565b82818337600083830152505050565b60005b83811015610e5d578082015181840152602081019050610e42565b83811115610e6c576000848401525b50505050565b60006002820490506001821680610e8a57607f821691505b60208210811415610e9e57610e9d610f7c565b5b50919050565b610ead8261101d565b810181811067ffffffffffffffff82111715610ecc57610ecb610fda565b5b80604052505050565b6000610ee082610e14565b91507fffffffffffffffffffffffffffffffffffffffffffffffffffffffffffffffff821415610f1357610f12610f1e565b5b600182019050919050565b7f4e487b7100000000000000000000000000000000000000000000000000000000600052601160045260246000fd5b7f4e487b7100000000000000000000000000000000000000000000000000000000600052602160045260246000fd5b7f4e487b7100000000000000000000000000000000000000000000000000000000600052602260045260246000fd5b7f4e487b7100000000000000000000000000000000000000000000000000000000600052603260045260246000fd5b7f4e487b7100000000000000000000000000000000000000000000000000000000600052604160045260246000fd5b600080fd5b600080fd5b600080fd5b600080fd5b6000601f19601f8301169050919050565b6007811061103f5761103e610f4d565b5b50565b61104b81610dc3565b811461105657600080fd5b50565b61106281610dd5565b811461106d57600080fd5b50565b6007811061107d57600080fd5b50565b61108981610e14565b811461109457600080fd5b5056fea26469706673582212206f9911134c23c51754a1bd1901957f5c3b268a97cd94623e825a8d98dba9fa3c64736f6c63430008070033",
					"opcodes": "PUSH1 0x80 PUSH1 0x40 MSTORE CALLVALUE DUP1 ISZERO PUSH2 0x10 JUMPI PUSH1 0x0 DUP1 REVERT JUMPDEST POP PUSH2 0x10CD DUP1 PUSH2 0x20 PUSH1 0x0 CODECOPY PUSH1 0x0 RETURN INVALID PUSH1 0x80 PUSH1 0x40 MSTORE CALLVALUE DUP1 ISZERO PUSH2 0x10 JUMPI PUSH1 0x0 DUP1 REVERT JUMPDEST POP PUSH1 0x4 CALLDATASIZE LT PUSH2 0x4C JUMPI PUSH1 0x0 CALLDATALOAD PUSH1 0xE0 SHR DUP1 PUSH4 0xF9DE977 EQ PUSH2 0x51 JUMPI DUP1 PUSH4 0x596F5A4B EQ PUSH2 0x81 JUMPI DUP1 PUSH4 0x5CBFC0DA EQ PUSH2 0xB1 JUMPI DUP1 PUSH4 0x71417E16 EQ PUSH2 0xE1 JUMPI JUMPDEST PUSH1 0x0 DUP1 REVERT JUMPDEST PUSH2 0x6B PUSH1 0x4 DUP1 CALLDATASIZE SUB DUP2 ADD SWAP1 PUSH2 0x66 SWAP2 SWAP1 PUSH2 0x913 JUMP JUMPDEST PUSH2 0x111 JUMP JUMPDEST PUSH1 0x40 MLOAD PUSH2 0x78 SWAP2 SWAP1 PUSH2 0xC63 JUMP JUMPDEST PUSH1 0x40 MLOAD DUP1 SWAP2 SUB SWAP1 RETURN JUMPDEST PUSH2 0x9B PUSH1 0x4 DUP1 CALLDATASIZE SUB DUP2 ADD SWAP1 PUSH2 0x96 SWAP2 SWAP1 PUSH2 0x9D7 JUMP JUMPDEST PUSH2 0x434 JUMP JUMPDEST PUSH1 0x40 MLOAD PUSH2 0xA8 SWAP2 SWAP1 PUSH2 0xCA0 JUMP JUMPDEST PUSH1 0x40 MLOAD DUP1 SWAP2 SUB SWAP1 RETURN JUMPDEST PUSH2 0xCB PUSH1 0x4 DUP1 CALLDATASIZE SUB DUP2 ADD SWAP1 PUSH2 0xC6 SWAP2 SWAP1 PUSH2 0xA04 JUMP JUMPDEST PUSH2 0x5B3 JUMP JUMPDEST PUSH1 0x40 MLOAD PUSH2 0xD8 SWAP2 SWAP1 PUSH2 0xC85 JUMP JUMPDEST PUSH1 0x40 MLOAD DUP1 SWAP2 SUB SWAP1 RETURN JUMPDEST PUSH2 0xFB PUSH1 0x4 DUP1 CALLDATASIZE SUB DUP2 ADD SWAP1 PUSH2 0xF6 SWAP2 SWAP1 PUSH2 0x940 JUMP JUMPDEST PUSH2 0x5ED JUMP JUMPDEST PUSH1 0x40 MLOAD PUSH2 0x108 SWAP2 SWAP1 PUSH2 0xC85 JUMP JUMPDEST PUSH1 0x40 MLOAD DUP1 SWAP2 SUB SWAP1 RETURN JUMPDEST PUSH1 0x60 PUSH1 0x0 DUP1 SLOAD PUSH8 0xFFFFFFFFFFFFFFFF DUP2 GT ISZERO PUSH2 0x130 JUMPI PUSH2 0x12F PUSH2 0xFDA JUMP JUMPDEST JUMPDEST PUSH1 0x40 MLOAD SWAP1 DUP1 DUP3 MSTORE DUP1 PUSH1 0x20 MUL PUSH1 0x20 ADD DUP3 ADD PUSH1 0x40 MSTORE DUP1 ISZERO PUSH2 0x169 JUMPI DUP2 PUSH1 0x20 ADD JUMPDEST PUSH2 0x156 PUSH2 0x74C JUMP JUMPDEST DUP2 MSTORE PUSH1 0x20 ADD SWAP1 PUSH1 0x1 SWAP1 SUB SWAP1 DUP2 PUSH2 0x14E JUMPI SWAP1 POP JUMPDEST POP SWAP1 POP PUSH1 0x0 DUP1 PUSH1 0x0 SWAP1 POP JUMPDEST PUSH1 0x0 SLOAD DUP2 LT ISZERO PUSH2 0x37E JUMPI DUP5 PUSH1 0x6 DUP2 GT ISZERO PUSH2 0x191 JUMPI PUSH2 0x190 PUSH2 0xF4D JUMP JUMPDEST JUMPDEST PUSH1 0x1 PUSH1 0x0 DUP4 DUP2 MSTORE PUSH1 0x20 ADD SWAP1 DUP2 MSTORE PUSH1 0x20 ADD PUSH1 0x0 KECCAK256 PUSH1 0x1 ADD PUSH1 0x0 SWAP1 SLOAD SWAP1 PUSH2 0x100 EXP SWAP1 DIV PUSH1 0xFF AND PUSH1 0x6 DUP2 GT ISZERO PUSH2 0x1C7 JUMPI PUSH2 0x1C6 PUSH2 0xF4D JUMP JUMPDEST JUMPDEST EQ ISZERO PUSH2 0x36B JUMPI PUSH1 0x1 PUSH1 0x0 DUP3 DUP2 MSTORE PUSH1 0x20 ADD SWAP1 DUP2 MSTORE PUSH1 0x20 ADD PUSH1 0x0 KECCAK256 PUSH1 0x40 MLOAD DUP1 PUSH1 0xC0 ADD PUSH1 0x40 MSTORE SWAP1 DUP2 PUSH1 0x0 DUP3 ADD DUP1 SLOAD PUSH2 0x1FB SWAP1 PUSH2 0xE72 JUMP JUMPDEST DUP1 PUSH1 0x1F ADD PUSH1 0x20 DUP1 SWAP2 DIV MUL PUSH1 0x20 ADD PUSH1 0x40 MLOAD SWAP1 DUP2 ADD PUSH1 0x40 MSTORE DUP1 SWAP3 SWAP2 SWAP1 DUP2 DUP2 MSTORE PUSH1 0x20 ADD DUP3 DUP1 SLOAD PUSH2 0x227 SWAP1 PUSH2 0xE72 JUMP JUMPDEST DUP1 ISZERO PUSH2 0x274 JUMPI DUP1 PUSH1 0x1F LT PUSH2 0x249 JUMPI PUSH2 0x100 DUP1 DUP4 SLOAD DIV MUL DUP4 MSTORE SWAP2 PUSH1 0x20 ADD SWAP2 PUSH2 0x274 JUMP JUMPDEST DUP3 ADD SWAP2 SWAP1 PUSH1 0x0 MSTORE PUSH1 0x20 PUSH1 0x0 KECCAK256 SWAP1 JUMPDEST DUP2 SLOAD DUP2 MSTORE SWAP1 PUSH1 0x1 ADD SWAP1 PUSH1 0x20 ADD DUP1 DUP4 GT PUSH2 0x257 JUMPI DUP3 SWAP1 SUB PUSH1 0x1F AND DUP3 ADD SWAP2 JUMPDEST POP POP POP POP POP DUP2 MSTORE PUSH1 0x20 ADD PUSH1 0x1 DUP3 ADD PUSH1 0x0 SWAP1 SLOAD SWAP1 PUSH2 0x100 EXP SWAP1 DIV PUSH1 0xFF AND PUSH1 0x6 DUP2 GT ISZERO PUSH2 0x2A2 JUMPI PUSH2 0x2A1 PUSH2 0xF4D JUMP JUMPDEST JUMPDEST PUSH1 0x6 DUP2 GT ISZERO PUSH2 0x2B4 JUMPI PUSH2 0x2B3 PUSH2 0xF4D JUMP JUMPDEST JUMPDEST DUP2 MSTORE PUSH1 0x20 ADD PUSH1 0x1 DUP3 ADD PUSH1 0x1 SWAP1 SLOAD SWAP1 PUSH2 0x100 EXP SWAP1 DIV PUSH1 0xFF AND ISZERO ISZERO ISZERO ISZERO DUP2 MSTORE PUSH1 0x20 ADD PUSH1 0x2 DUP3 ADD SLOAD DUP2 MSTORE PUSH1 0x20 ADD PUSH1 0x3 DUP3 ADD SLOAD DUP2 MSTORE PUSH1 0x20 ADD PUSH1 0x4 DUP3 ADD PUSH1 0x0 SWAP1 SLOAD SWAP1 PUSH2 0x100 EXP SWAP1 DIV PUSH20 0xFFFFFFFFFFFFFFFFFFFFFFFFFFFFFFFFFFFFFFFF AND PUSH20 0xFFFFFFFFFFFFFFFFFFFFFFFFFFFFFFFFFFFFFFFF AND PUSH20 0xFFFFFFFFFFFFFFFFFFFFFFFFFFFFFFFFFFFFFFFF AND DUP2 MSTORE POP POP DUP4 DUP4 DUP2 MLOAD DUP2 LT PUSH2 0x350 JUMPI PUSH2 0x34F PUSH2 0xFAB JUMP JUMPDEST JUMPDEST PUSH1 0x20 MUL PUSH1 0x20 ADD ADD DUP2 SWAP1 MSTORE POP PUSH1 0x1 DUP3 PUSH2 0x368 SWAP2 SWAP1 PUSH2 0xD6D JUMP JUMPDEST SWAP2 POP JUMPDEST DUP1 DUP1 PUSH2 0x376 SWAP1 PUSH2 0xED5 JUMP JUMPDEST SWAP2 POP POP PUSH2 0x174 JUMP JUMPDEST POP DUP1 PUSH8 0xFFFFFFFFFFFFFFFF DUP2 GT ISZERO PUSH2 0x399 JUMPI PUSH2 0x398 PUSH2 0xFDA JUMP JUMPDEST JUMPDEST PUSH1 0x40 MLOAD SWAP1 DUP1 DUP3 MSTORE DUP1 PUSH1 0x20 MUL PUSH1 0x20 ADD DUP3 ADD PUSH1 0x40 MSTORE DUP1 ISZERO PUSH2 0x3D2 JUMPI DUP2 PUSH1 0x20 ADD JUMPDEST PUSH2 0x3BF PUSH2 0x74C JUMP JUMPDEST DUP2 MSTORE PUSH1 0x20 ADD SWAP1 PUSH1 0x1 SWAP1 SUB SWAP1 DUP2 PUSH2 0x3B7 JUMPI SWAP1 POP JUMPDEST POP SWAP3 POP PUSH1 0x0 JUMPDEST DUP2 DUP2 LT ISZERO PUSH2 0x42C JUMPI DUP3 DUP2 DUP2 MLOAD DUP2 LT PUSH2 0x3F3 JUMPI PUSH2 0x3F2 PUSH2 0xFAB JUMP JUMPDEST JUMPDEST PUSH1 0x20 MUL PUSH1 0x20 ADD ADD MLOAD DUP5 DUP3 DUP2 MLOAD DUP2 LT PUSH2 0x40E JUMPI PUSH2 0x40D PUSH2 0xFAB JUMP JUMPDEST JUMPDEST PUSH1 0x20 MUL PUSH1 0x20 ADD ADD DUP2 SWAP1 MSTORE POP DUP1 DUP1 PUSH2 0x424 SWAP1 PUSH2 0xED5 JUMP JUMPDEST SWAP2 POP POP PUSH2 0x3D8 JUMP JUMPDEST POP POP POP SWAP2 SWAP1 POP JUMP JUMPDEST PUSH2 0x43C PUSH2 0x74C JUMP JUMPDEST PUSH1 0x1 PUSH1 0x0 DUP4 DUP2 MSTORE PUSH1 0x20 ADD SWAP1 DUP2 MSTORE PUSH1 0x20 ADD PUSH1 0x0 KECCAK256 PUSH1 0x40 MLOAD DUP1 PUSH1 0xC0 ADD PUSH1 0x40 MSTORE SWAP1 DUP2 PUSH1 0x0 DUP3 ADD DUP1 SLOAD PUSH2 0x46A SWAP1 PUSH2 0xE72 JUMP JUMPDEST DUP1 PUSH1 0x1F ADD PUSH1 0x20 DUP1 SWAP2 DIV MUL PUSH1 0x20 ADD PUSH1 0x40 MLOAD SWAP1 DUP2 ADD PUSH1 0x40 MSTORE DUP1 SWAP3 SWAP2 SWAP1 DUP2 DUP2 MSTORE PUSH1 0x20 ADD DUP3 DUP1 SLOAD PUSH2 0x496 SWAP1 PUSH2 0xE72 JUMP JUMPDEST DUP1 ISZERO PUSH2 0x4E3 JUMPI DUP1 PUSH1 0x1F LT PUSH2 0x4B8 JUMPI PUSH2 0x100 DUP1 DUP4 SLOAD DIV MUL DUP4 MSTORE SWAP2 PUSH1 0x20 ADD SWAP2 PUSH2 0x4E3 JUMP JUMPDEST DUP3 ADD SWAP2 SWAP1 PUSH1 0x0 MSTORE PUSH1 0x20 PUSH1 0x0 KECCAK256 SWAP1 JUMPDEST DUP2 SLOAD DUP2 MSTORE SWAP1 PUSH1 0x1 ADD SWAP1 PUSH1 0x20 ADD DUP1 DUP4 GT PUSH2 0x4C6 JUMPI DUP3 SWAP1 SUB PUSH1 0x1F AND DUP3 ADD SWAP2 JUMPDEST POP POP POP POP POP DUP2 MSTORE PUSH1 0x20 ADD PUSH1 0x1 DUP3 ADD PUSH1 0x0 SWAP1 SLOAD SWAP1 PUSH2 0x100 EXP SWAP1 DIV PUSH1 0xFF AND PUSH1 0x6 DUP2 GT ISZERO PUSH2 0x511 JUMPI PUSH2 0x510 PUSH2 0xF4D JUMP JUMPDEST JUMPDEST PUSH1 0x6 DUP2 GT ISZERO PUSH2 0x523 JUMPI PUSH2 0x522 PUSH2 0xF4D JUMP JUMPDEST JUMPDEST DUP2 MSTORE PUSH1 0x20 ADD PUSH1 0x1 DUP3 ADD PUSH1 0x1 SWAP1 SLOAD SWAP1 PUSH2 0x100 EXP SWAP1 DIV PUSH1 0xFF AND ISZERO ISZERO ISZERO ISZERO DUP2 MSTORE PUSH1 0x20 ADD PUSH1 0x2 DUP3 ADD SLOAD DUP2 MSTORE PUSH1 0x20 ADD PUSH1 0x3 DUP3 ADD SLOAD DUP2 MSTORE PUSH1 0x20 ADD PUSH1 0x4 DUP3 ADD PUSH1 0x0 SWAP1 SLOAD SWAP1 PUSH2 0x100 EXP SWAP1 DIV PUSH20 0xFFFFFFFFFFFFFFFFFFFFFFFFFFFFFFFFFFFFFFFF AND PUSH20 0xFFFFFFFFFFFFFFFFFFFFFFFFFFFFFFFFFFFFFFFF AND PUSH20 0xFFFFFFFFFFFFFFFFFFFFFFFFFFFFFFFFFFFFFFFF AND DUP2 MSTORE POP POP SWAP1 POP SWAP2 SWAP1 POP JUMP JUMPDEST PUSH1 0x0 DUP2 PUSH1 0x1 PUSH1 0x0 DUP6 DUP2 MSTORE PUSH1 0x20 ADD SWAP1 DUP2 MSTORE PUSH1 0x20 ADD PUSH1 0x0 KECCAK256 PUSH1 0x1 ADD PUSH1 0x1 PUSH2 0x100 EXP DUP2 SLOAD DUP2 PUSH1 0xFF MUL NOT AND SWAP1 DUP4 ISZERO ISZERO MUL OR SWAP1 SSTORE POP PUSH1 0x1 SWAP1 POP SWAP3 SWAP2 POP POP JUMP JUMPDEST PUSH1 0x0 PUSH1 0x40 MLOAD DUP1 PUSH1 0xC0 ADD PUSH1 0x40 MSTORE DUP1 DUP8 DUP2 MSTORE PUSH1 0x20 ADD DUP7 PUSH1 0x6 DUP2 GT ISZERO PUSH2 0x613 JUMPI PUSH2 0x612 PUSH2 0xF4D JUMP JUMPDEST JUMPDEST DUP2 MSTORE PUSH1 0x20 ADD PUSH1 0x1 ISZERO ISZERO DUP2 MSTORE PUSH1 0x20 ADD DUP6 DUP2 MSTORE PUSH1 0x20 ADD DUP5 DUP2 MSTORE PUSH1 0x20 ADD DUP4 PUSH20 0xFFFFFFFFFFFFFFFFFFFFFFFFFFFFFFFFFFFFFFFF AND DUP2 MSTORE POP PUSH1 0x1 PUSH1 0x0 DUP1 SLOAD DUP2 MSTORE PUSH1 0x20 ADD SWAP1 DUP2 MSTORE PUSH1 0x20 ADD PUSH1 0x0 KECCAK256 PUSH1 0x0 DUP3 ADD MLOAD DUP2 PUSH1 0x0 ADD SWAP1 DUP1 MLOAD SWAP1 PUSH1 0x20 ADD SWAP1 PUSH2 0x677 SWAP3 SWAP2 SWAP1 PUSH2 0x7AC JUMP JUMPDEST POP PUSH1 0x20 DUP3 ADD MLOAD DUP2 PUSH1 0x1 ADD PUSH1 0x0 PUSH2 0x100 EXP DUP2 SLOAD DUP2 PUSH1 0xFF MUL NOT AND SWAP1 DUP4 PUSH1 0x6 DUP2 GT ISZERO PUSH2 0x6A3 JUMPI PUSH2 0x6A2 PUSH2 0xF4D JUMP JUMPDEST JUMPDEST MUL OR SWAP1 SSTORE POP PUSH1 0x40 DUP3 ADD MLOAD DUP2 PUSH1 0x1 ADD PUSH1 0x1 PUSH2 0x100 EXP DUP2 SLOAD DUP2 PUSH1 0xFF MUL NOT AND SWAP1 DUP4 ISZERO ISZERO MUL OR SWAP1 SSTORE POP PUSH1 0x60 DUP3 ADD MLOAD DUP2 PUSH1 0x2 ADD SSTORE PUSH1 0x80 DUP3 ADD MLOAD DUP2 PUSH1 0x3 ADD SSTORE PUSH1 0xA0 DUP3 ADD MLOAD DUP2 PUSH1 0x4 ADD PUSH1 0x0 PUSH2 0x100 EXP DUP2 SLOAD DUP2 PUSH20 0xFFFFFFFFFFFFFFFFFFFFFFFFFFFFFFFFFFFFFFFF MUL NOT AND SWAP1 DUP4 PUSH20 0xFFFFFFFFFFFFFFFFFFFFFFFFFFFFFFFFFFFFFFFF AND MUL OR SWAP1 SSTORE POP SWAP1 POP POP PUSH1 0x1 PUSH1 0x0 DUP1 DUP3 DUP3 SLOAD PUSH2 0x738 SWAP2 SWAP1 PUSH2 0xD6D JUMP JUMPDEST SWAP3 POP POP DUP2 SWAP1 SSTORE POP PUSH1 0x1 SWAP1 POP SWAP6 SWAP5 POP POP POP POP POP JUMP JUMPDEST PUSH1 0x40 MLOAD DUP1 PUSH1 0xC0 ADD PUSH1 0x40 MSTORE DUP1 PUSH1 0x60 DUP2 MSTORE PUSH1 0x20 ADD PUSH1 0x0 PUSH1 0x6 DUP2 GT ISZERO PUSH2 0x772 JUMPI PUSH2 0x771 PUSH2 0xF4D JUMP JUMPDEST JUMPDEST DUP2 MSTORE PUSH1 0x20 ADD PUSH1 0x0 ISZERO ISZERO DUP2 MSTORE PUSH1 0x20 ADD PUSH1 0x0 DUP2 MSTORE PUSH1 0x20 ADD PUSH1 0x0 DUP2 MSTORE PUSH1 0x20 ADD PUSH1 0x0 PUSH20 0xFFFFFFFFFFFFFFFFFFFFFFFFFFFFFFFFFFFFFFFF AND DUP2 MSTORE POP SWAP1 JUMP JUMPDEST DUP3 DUP1 SLOAD PUSH2 0x7B8 SWAP1 PUSH2 0xE72 JUMP JUMPDEST SWAP1 PUSH1 0x0 MSTORE PUSH1 0x20 PUSH1 0x0 KECCAK256 SWAP1 PUSH1 0x1F ADD PUSH1 0x20 SWAP1 DIV DUP2 ADD SWAP3 DUP3 PUSH2 0x7DA JUMPI PUSH1 0x0 DUP6 SSTORE PUSH2 0x821 JUMP JUMPDEST DUP3 PUSH1 0x1F LT PUSH2 0x7F3 JUMPI DUP1 MLOAD PUSH1 0xFF NOT AND DUP4 DUP1 ADD OR DUP6 SSTORE PUSH2 0x821 JUMP JUMPDEST DUP3 DUP1 ADD PUSH1 0x1 ADD DUP6 SSTORE DUP3 ISZERO PUSH2 0x821 JUMPI SWAP2 DUP3 ADD JUMPDEST DUP3 DUP2 GT ISZERO PUSH2 0x820 JUMPI DUP3 MLOAD DUP3 SSTORE SWAP2 PUSH1 0x20 ADD SWAP2 SWAP1 PUSH1 0x1 ADD SWAP1 PUSH2 0x805 JUMP JUMPDEST JUMPDEST POP SWAP1 POP PUSH2 0x82E SWAP2 SWAP1 PUSH2 0x832 JUMP JUMPDEST POP SWAP1 JUMP JUMPDEST JUMPDEST DUP1 DUP3 GT ISZERO PUSH2 0x84B JUMPI PUSH1 0x0 DUP2 PUSH1 0x0 SWAP1 SSTORE POP PUSH1 0x1 ADD PUSH2 0x833 JUMP JUMPDEST POP SWAP1 JUMP JUMPDEST PUSH1 0x0 PUSH2 0x862 PUSH2 0x85D DUP5 PUSH2 0xCE7 JUMP JUMPDEST PUSH2 0xCC2 JUMP JUMPDEST SWAP1 POP DUP3 DUP2 MSTORE PUSH1 0x20 DUP2 ADD DUP5 DUP5 DUP5 ADD GT ISZERO PUSH2 0x87E JUMPI PUSH2 0x87D PUSH2 0x100E JUMP JUMPDEST JUMPDEST PUSH2 0x889 DUP5 DUP3 DUP6 PUSH2 0xE30 JUMP JUMPDEST POP SWAP4 SWAP3 POP POP POP JUMP JUMPDEST PUSH1 0x0 DUP2 CALLDATALOAD SWAP1 POP PUSH2 0x8A0 DUP2 PUSH2 0x1042 JUMP JUMPDEST SWAP3 SWAP2 POP POP JUMP JUMPDEST PUSH1 0x0 DUP2 CALLDATALOAD SWAP1 POP PUSH2 0x8B5 DUP2 PUSH2 0x1059 JUMP JUMPDEST SWAP3 SWAP2 POP POP JUMP JUMPDEST PUSH1 0x0 DUP2 CALLDATALOAD SWAP1 POP PUSH2 0x8CA DUP2 PUSH2 0x1070 JUMP JUMPDEST SWAP3 SWAP2 POP POP JUMP JUMPDEST PUSH1 0x0 DUP3 PUSH1 0x1F DUP4 ADD SLT PUSH2 0x8E5 JUMPI PUSH2 0x8E4 PUSH2 0x1009 JUMP JUMPDEST JUMPDEST DUP2 CALLDATALOAD PUSH2 0x8F5 DUP5 DUP3 PUSH1 0x20 DUP7 ADD PUSH2 0x84F JUMP JUMPDEST SWAP2 POP POP SWAP3 SWAP2 POP POP JUMP JUMPDEST PUSH1 0x0 DUP2 CALLDATALOAD SWAP1 POP PUSH2 0x90D DUP2 PUSH2 0x1080 JUMP JUMPDEST SWAP3 SWAP2 POP POP JUMP JUMPDEST PUSH1 0x0 PUSH1 0x20 DUP3 DUP5 SUB SLT ISZERO PUSH2 0x929 JUMPI PUSH2 0x928 PUSH2 0x1018 JUMP JUMPDEST JUMPDEST PUSH1 0x0 PUSH2 0x937 DUP5 DUP3 DUP6 ADD PUSH2 0x8BB JUMP JUMPDEST SWAP2 POP POP SWAP3 SWAP2 POP POP JUMP JUMPDEST PUSH1 0x0 DUP1 PUSH1 0x0 DUP1 PUSH1 0x0 PUSH1 0xA0 DUP7 DUP9 SUB SLT ISZERO PUSH2 0x95C JUMPI PUSH2 0x95B PUSH2 0x1018 JUMP JUMPDEST JUMPDEST PUSH1 0x0 DUP7 ADD CALLDATALOAD PUSH8 0xFFFFFFFFFFFFFFFF DUP2 GT ISZERO PUSH2 0x97A JUMPI PUSH2 0x979 PUSH2 0x1013 JUMP JUMPDEST JUMPDEST PUSH2 0x986 DUP9 DUP3 DUP10 ADD PUSH2 0x8D0 JUMP JUMPDEST SWAP6 POP POP PUSH1 0x20 PUSH2 0x997 DUP9 DUP3 DUP10 ADD PUSH2 0x8BB JUMP JUMPDEST SWAP5 POP POP PUSH1 0x40 PUSH2 0x9A8 DUP9 DUP3 DUP10 ADD PUSH2 0x8FE JUMP JUMPDEST SWAP4 POP POP PUSH1 0x60 PUSH2 0x9B9 DUP9 DUP3 DUP10 ADD PUSH2 0x8FE JUMP JUMPDEST SWAP3 POP POP PUSH1 0x80 PUSH2 0x9CA DUP9 DUP3 DUP10 ADD PUSH2 0x891 JUMP JUMPDEST SWAP2 POP POP SWAP3 SWAP6 POP SWAP3 SWAP6 SWAP1 SWAP4 POP JUMP JUMPDEST PUSH1 0x0 PUSH1 0x20 DUP3 DUP5 SUB SLT ISZERO PUSH2 0x9ED JUMPI PUSH2 0x9EC PUSH2 0x1018 JUMP JUMPDEST JUMPDEST PUSH1 0x0 PUSH2 0x9FB DUP5 DUP3 DUP6 ADD PUSH2 0x8FE JUMP JUMPDEST SWAP2 POP POP SWAP3 SWAP2 POP POP JUMP JUMPDEST PUSH1 0x0 DUP1 PUSH1 0x40 DUP4 DUP6 SUB SLT ISZERO PUSH2 0xA1B JUMPI PUSH2 0xA1A PUSH2 0x1018 JUMP JUMPDEST JUMPDEST PUSH1 0x0 PUSH2 0xA29 DUP6 DUP3 DUP7 ADD PUSH2 0x8FE JUMP JUMPDEST SWAP3 POP POP PUSH1 0x20 PUSH2 0xA3A DUP6 DUP3 DUP7 ADD PUSH2 0x8A6 JUMP JUMPDEST SWAP2 POP POP SWAP3 POP SWAP3 SWAP1 POP JUMP JUMPDEST PUSH1 0x0 PUSH2 0xA50 DUP4 DUP4 PUSH2 0xB42 JUMP JUMPDEST SWAP1 POP SWAP3 SWAP2 POP POP JUMP JUMPDEST PUSH2 0xA61 DUP2 PUSH2 0xDC3 JUMP JUMPDEST DUP3 MSTORE POP POP JUMP JUMPDEST PUSH1 0x0 PUSH2 0xA72 DUP3 PUSH2 0xD28 JUMP JUMPDEST PUSH2 0xA7C DUP2 DUP6 PUSH2 0xD4B JUMP JUMPDEST SWAP4 POP DUP4 PUSH1 0x20 DUP3 MUL DUP6 ADD PUSH2 0xA8E DUP6 PUSH2 0xD18 JUMP JUMPDEST DUP1 PUSH1 0x0 JUMPDEST DUP6 DUP2 LT ISZERO PUSH2 0xACA JUMPI DUP5 DUP5 SUB DUP10 MSTORE DUP2 MLOAD PUSH2 0xAAB DUP6 DUP3 PUSH2 0xA44 JUMP JUMPDEST SWAP5 POP PUSH2 0xAB6 DUP4 PUSH2 0xD3E JUMP JUMPDEST SWAP3 POP PUSH1 0x20 DUP11 ADD SWAP10 POP POP PUSH1 0x1 DUP2 ADD SWAP1 POP PUSH2 0xA92 JUMP JUMPDEST POP DUP3 SWAP8 POP DUP8 SWAP6 POP POP POP POP POP POP SWAP3 SWAP2 POP POP JUMP JUMPDEST PUSH2 0xAE5 DUP2 PUSH2 0xDD5 JUMP JUMPDEST DUP3 MSTORE POP POP JUMP JUMPDEST PUSH2 0xAF4 DUP2 PUSH2 0xDD5 JUMP JUMPDEST DUP3 MSTORE POP POP JUMP JUMPDEST PUSH2 0xB03 DUP2 PUSH2 0xE1E JUMP JUMPDEST DUP3 MSTORE POP POP JUMP JUMPDEST PUSH1 0x0 PUSH2 0xB14 DUP3 PUSH2 0xD33 JUMP JUMPDEST PUSH2 0xB1E DUP2 DUP6 PUSH2 0xD5C JUMP JUMPDEST SWAP4 POP PUSH2 0xB2E DUP2 DUP6 PUSH1 0x20 DUP7 ADD PUSH2 0xE3F JUMP JUMPDEST PUSH2 0xB37 DUP2 PUSH2 0x101D JUMP JUMPDEST DUP5 ADD SWAP2 POP POP SWAP3 SWAP2 POP POP JUMP JUMPDEST PUSH1 0x0 PUSH1 0xC0 DUP4 ADD PUSH1 0x0 DUP4 ADD MLOAD DUP5 DUP3 SUB PUSH1 0x0 DUP7 ADD MSTORE PUSH2 0xB5F DUP3 DUP3 PUSH2 0xB09 JUMP JUMPDEST SWAP2 POP POP PUSH1 0x20 DUP4 ADD MLOAD PUSH2 0xB74 PUSH1 0x20 DUP7 ADD DUP3 PUSH2 0xAFA JUMP JUMPDEST POP PUSH1 0x40 DUP4 ADD MLOAD PUSH2 0xB87 PUSH1 0x40 DUP7 ADD DUP3 PUSH2 0xADC JUMP JUMPDEST POP PUSH1 0x60 DUP4 ADD MLOAD PUSH2 0xB9A PUSH1 0x60 DUP7 ADD DUP3 PUSH2 0xC54 JUMP JUMPDEST POP PUSH1 0x80 DUP4 ADD MLOAD PUSH2 0xBAD PUSH1 0x80 DUP7 ADD DUP3 PUSH2 0xC54 JUMP JUMPDEST POP PUSH1 0xA0 DUP4 ADD MLOAD PUSH2 0xBC0 PUSH1 0xA0 DUP7 ADD DUP3 PUSH2 0xA58 JUMP JUMPDEST POP DUP1 SWAP2 POP POP SWAP3 SWAP2 POP POP JUMP JUMPDEST PUSH1 0x0 PUSH1 0xC0 DUP4 ADD PUSH1 0x0 DUP4 ADD MLOAD DUP5 DUP3 SUB PUSH1 0x0 DUP7 ADD MSTORE PUSH2 0xBE8 DUP3 DUP3 PUSH2 0xB09 JUMP JUMPDEST SWAP2 POP POP PUSH1 0x20 DUP4 ADD MLOAD PUSH2 0xBFD PUSH1 0x20 DUP7 ADD DUP3 PUSH2 0xAFA JUMP JUMPDEST POP PUSH1 0x40 DUP4 ADD MLOAD PUSH2 0xC10 PUSH1 0x40 DUP7 ADD DUP3 PUSH2 0xADC JUMP JUMPDEST POP PUSH1 0x60 DUP4 ADD MLOAD PUSH2 0xC23 PUSH1 0x60 DUP7 ADD DUP3 PUSH2 0xC54 JUMP JUMPDEST POP PUSH1 0x80 DUP4 ADD MLOAD PUSH2 0xC36 PUSH1 0x80 DUP7 ADD DUP3 PUSH2 0xC54 JUMP JUMPDEST POP PUSH1 0xA0 DUP4 ADD MLOAD PUSH2 0xC49 PUSH1 0xA0 DUP7 ADD DUP3 PUSH2 0xA58 JUMP JUMPDEST POP DUP1 SWAP2 POP POP SWAP3 SWAP2 POP POP JUMP JUMPDEST PUSH2 0xC5D DUP2 PUSH2 0xE14 JUMP JUMPDEST DUP3 MSTORE POP POP JUMP JUMPDEST PUSH1 0x0 PUSH1 0x20 DUP3 ADD SWAP1 POP DUP2 DUP2 SUB PUSH1 0x0 DUP4 ADD MSTORE PUSH2 0xC7D DUP2 DUP5 PUSH2 0xA67 JUMP JUMPDEST SWAP1 POP SWAP3 SWAP2 POP POP JUMP JUMPDEST PUSH1 0x0 PUSH1 0x20 DUP3 ADD SWAP1 POP PUSH2 0xC9A PUSH1 0x0 DUP4 ADD DUP5 PUSH2 0xAEB JUMP JUMPDEST SWAP3 SWAP2 POP POP JUMP JUMPDEST PUSH1 0x0 PUSH1 0x20 DUP3 ADD SWAP1 POP DUP2 DUP2 SUB PUSH1 0x0 DUP4 ADD MSTORE PUSH2 0xCBA DUP2 DUP5 PUSH2 0xBCB JUMP JUMPDEST SWAP1 POP SWAP3 SWAP2 POP POP JUMP JUMPDEST PUSH1 0x0 PUSH2 0xCCC PUSH2 0xCDD JUMP JUMPDEST SWAP1 POP PUSH2 0xCD8 DUP3 DUP3 PUSH2 0xEA4 JUMP JUMPDEST SWAP2 SWAP1 POP JUMP JUMPDEST PUSH1 0x0 PUSH1 0x40 MLOAD SWAP1 POP SWAP1 JUMP JUMPDEST PUSH1 0x0 PUSH8 0xFFFFFFFFFFFFFFFF DUP3 GT ISZERO PUSH2 0xD02 JUMPI PUSH2 0xD01 PUSH2 0xFDA JUMP JUMPDEST JUMPDEST PUSH2 0xD0B DUP3 PUSH2 0x101D JUMP JUMPDEST SWAP1 POP PUSH1 0x20 DUP2 ADD SWAP1 POP SWAP2 SWAP1 POP JUMP JUMPDEST PUSH1 0x0 DUP2 SWAP1 POP PUSH1 0x20 DUP3 ADD SWAP1 POP SWAP2 SWAP1 POP JUMP JUMPDEST PUSH1 0x0 DUP2 MLOAD SWAP1 POP SWAP2 SWAP1 POP JUMP JUMPDEST PUSH1 0x0 DUP2 MLOAD SWAP1 POP SWAP2 SWAP1 POP JUMP JUMPDEST PUSH1 0x0 PUSH1 0x20 DUP3 ADD SWAP1 POP SWAP2 SWAP1 POP JUMP JUMPDEST PUSH1 0x0 DUP3 DUP3 MSTORE PUSH1 0x20 DUP3 ADD SWAP1 POP SWAP3 SWAP2 POP POP JUMP JUMPDEST PUSH1 0x0 DUP3 DUP3 MSTORE PUSH1 0x20 DUP3 ADD SWAP1 POP SWAP3 SWAP2 POP POP JUMP JUMPDEST PUSH1 0x0 PUSH2 0xD78 DUP3 PUSH2 0xE14 JUMP JUMPDEST SWAP2 POP PUSH2 0xD83 DUP4 PUSH2 0xE14 JUMP JUMPDEST SWAP3 POP DUP3 PUSH32 0xFFFFFFFFFFFFFFFFFFFFFFFFFFFFFFFFFFFFFFFFFFFFFFFFFFFFFFFFFFFFFFFF SUB DUP3 GT ISZERO PUSH2 0xDB8 JUMPI PUSH2 0xDB7 PUSH2 0xF1E JUMP JUMPDEST JUMPDEST DUP3 DUP3 ADD SWAP1 POP SWAP3 SWAP2 POP POP JUMP JUMPDEST PUSH1 0x0 PUSH2 0xDCE DUP3 PUSH2 0xDF4 JUMP JUMPDEST SWAP1 POP SWAP2 SWAP1 POP JUMP JUMPDEST PUSH1 0x0 DUP2 ISZERO ISZERO SWAP1 POP SWAP2 SWAP1 POP JUMP JUMPDEST PUSH1 0x0 DUP2 SWAP1 POP PUSH2 0xDEF DUP3 PUSH2 0x102E JUMP JUMPDEST SWAP2 SWAP1 POP JUMP JUMPDEST PUSH1 0x0 PUSH20 0xFFFFFFFFFFFFFFFFFFFFFFFFFFFFFFFFFFFFFFFF DUP3 AND SWAP1 POP SWAP2 SWAP1 POP JUMP JUMPDEST PUSH1 0x0 DUP2 SWAP1 POP SWAP2 SWAP1 POP JUMP JUMPDEST PUSH1 0x0 PUSH2 0xE29 DUP3 PUSH2 0xDE1 JUMP JUMPDEST SWAP1 POP SWAP2 SWAP1 POP JUMP JUMPDEST DUP3 DUP2 DUP4 CALLDATACOPY PUSH1 0x0 DUP4 DUP4 ADD MSTORE POP POP POP JUMP JUMPDEST PUSH1 0x0 JUMPDEST DUP4 DUP2 LT ISZERO PUSH2 0xE5D JUMPI DUP1 DUP3 ADD MLOAD DUP2 DUP5 ADD MSTORE PUSH1 0x20 DUP2 ADD SWAP1 POP PUSH2 0xE42 JUMP JUMPDEST DUP4 DUP2 GT ISZERO PUSH2 0xE6C JUMPI PUSH1 0x0 DUP5 DUP5 ADD MSTORE JUMPDEST POP POP POP POP JUMP JUMPDEST PUSH1 0x0 PUSH1 0x2 DUP3 DIV SWAP1 POP PUSH1 0x1 DUP3 AND DUP1 PUSH2 0xE8A JUMPI PUSH1 0x7F DUP3 AND SWAP2 POP JUMPDEST PUSH1 0x20 DUP3 LT DUP2 EQ ISZERO PUSH2 0xE9E JUMPI PUSH2 0xE9D PUSH2 0xF7C JUMP JUMPDEST JUMPDEST POP SWAP2 SWAP1 POP JUMP JUMPDEST PUSH2 0xEAD DUP3 PUSH2 0x101D JUMP JUMPDEST DUP2 ADD DUP2 DUP2 LT PUSH8 0xFFFFFFFFFFFFFFFF DUP3 GT OR ISZERO PUSH2 0xECC JUMPI PUSH2 0xECB PUSH2 0xFDA JUMP JUMPDEST JUMPDEST DUP1 PUSH1 0x40 MSTORE POP POP POP JUMP JUMPDEST PUSH1 0x0 PUSH2 0xEE0 DUP3 PUSH2 0xE14 JUMP JUMPDEST SWAP2 POP PUSH32 0xFFFFFFFFFFFFFFFFFFFFFFFFFFFFFFFFFFFFFFFFFFFFFFFFFFFFFFFFFFFFFFFF DUP3 EQ ISZERO PUSH2 0xF13 JUMPI PUSH2 0xF12 PUSH2 0xF1E JUMP JUMPDEST JUMPDEST PUSH1 0x1 DUP3 ADD SWAP1 POP SWAP2 SWAP1 POP JUMP JUMPDEST PUSH32 0x4E487B7100000000000000000000000000000000000000000000000000000000 PUSH1 0x0 MSTORE PUSH1 0x11 PUSH1 0x4 MSTORE PUSH1 0x24 PUSH1 0x0 REVERT JUMPDEST PUSH32 0x4E487B7100000000000000000000000000000000000000000000000000000000 PUSH1 0x0 MSTORE PUSH1 0x21 PUSH1 0x4 MSTORE PUSH1 0x24 PUSH1 0x0 REVERT JUMPDEST PUSH32 0x4E487B7100000000000000000000000000000000000000000000000000000000 PUSH1 0x0 MSTORE PUSH1 0x22 PUSH1 0x4 MSTORE PUSH1 0x24 PUSH1 0x0 REVERT JUMPDEST PUSH32 0x4E487B7100000000000000000000000000000000000000000000000000000000 PUSH1 0x0 MSTORE PUSH1 0x32 PUSH1 0x4 MSTORE PUSH1 0x24 PUSH1 0x0 REVERT JUMPDEST PUSH32 0x4E487B7100000000000000000000000000000000000000000000000000000000 PUSH1 0x0 MSTORE PUSH1 0x41 PUSH1 0x4 MSTORE PUSH1 0x24 PUSH1 0x0 REVERT JUMPDEST PUSH1 0x0 DUP1 REVERT JUMPDEST PUSH1 0x0 DUP1 REVERT JUMPDEST PUSH1 0x0 DUP1 REVERT JUMPDEST PUSH1 0x0 DUP1 REVERT JUMPDEST PUSH1 0x0 PUSH1 0x1F NOT PUSH1 0x1F DUP4 ADD AND SWAP1 POP SWAP2 SWAP1 POP JUMP JUMPDEST PUSH1 0x7 DUP2 LT PUSH2 0x103F JUMPI PUSH2 0x103E PUSH2 0xF4D JUMP JUMPDEST JUMPDEST POP JUMP JUMPDEST PUSH2 0x104B DUP2 PUSH2 0xDC3 JUMP JUMPDEST DUP2 EQ PUSH2 0x1056 JUMPI PUSH1 0x0 DUP1 REVERT JUMPDEST POP JUMP JUMPDEST PUSH2 0x1062 DUP2 PUSH2 0xDD5 JUMP JUMPDEST DUP2 EQ PUSH2 0x106D JUMPI PUSH1 0x0 DUP1 REVERT JUMPDEST POP JUMP JUMPDEST PUSH1 0x7 DUP2 LT PUSH2 0x107D JUMPI PUSH1 0x0 DUP1 REVERT JUMPDEST POP JUMP JUMPDEST PUSH2 0x1089 DUP2 PUSH2 0xE14 JUMP JUMPDEST DUP2 EQ PUSH2 0x1094 JUMPI PUSH1 0x0 DUP1 REVERT JUMPDEST POP JUMP INVALID LOG2 PUSH5 0x6970667358 0x22 SLT KECCAK256 PUSH16 0x9911134C23C51754A1BD1901957F5C3B 0x26 DUP11 SWAP8 0xCD SWAP5 PUSH3 0x3E825A DUP14 SWAP9 0xDB 0xA9 STATICCALL EXTCODECOPY PUSH5 0x736F6C6343 STOP ADDMOD SMOD STOP CALLER "
				},
				"gasEstimates": {
					"creation": {
						"codeDepositCost": "860200",
						"executionCost": "896",
						"totalCost": "861096"
					},
					"external": {
						"CreateUser(string,uint8,uint256,uint256,address)": "infinite",
						"DeActivateUser(uint256,bool)": "infinite",
						"GetUsersByType(uint8)": "infinite",
						"ReadUser(uint256)": "infinite"
					}
				},
				"methodIdentifiers": {
					"CreateUser(string,uint8,uint256,uint256,address)": "71417e16",
					"DeActivateUser(uint256,bool)": "5cbfc0da",
					"GetUsersByType(uint8)": "0f9de977",
					"ReadUser(uint256)": "596f5a4b"
				}
			},
			"storageLayout": {
				"storage": [
					{
						"astId": 26,
						"contract": "contracts/NewRegulator.sol:Regulator",
						"label": "usersCount",
						"offset": 0,
						"slot": "0",
						"type": "t_uint256"
					},
					{
						"astId": 31,
						"contract": "contracts/NewRegulator.sol:Regulator",
						"label": "UserAddressMapping",
						"offset": 0,
						"slot": "1",
						"type": "t_mapping(t_uint256,t_struct(User)24_storage)"
					}
				],
				"types": {
					"t_address": {
						"encoding": "inplace",
						"label": "address",
						"numberOfBytes": "20"
					},
					"t_bool": {
						"encoding": "inplace",
						"label": "bool",
						"numberOfBytes": "1"
					},
					"t_enum(UserRoles)10": {
						"encoding": "inplace",
						"label": "enum Regulator.UserRoles",
						"numberOfBytes": "1"
					},
					"t_mapping(t_uint256,t_struct(User)24_storage)": {
						"encoding": "mapping",
						"key": "t_uint256",
						"label": "mapping(uint256 => struct Regulator.User)",
						"numberOfBytes": "32",
						"value": "t_struct(User)24_storage"
					},
					"t_string_storage": {
						"encoding": "bytes",
						"label": "string",
						"numberOfBytes": "32"
					},
					"t_struct(User)24_storage": {
						"encoding": "inplace",
						"label": "struct Regulator.User",
						"members": [
							{
								"astId": 12,
								"contract": "contracts/NewRegulator.sol:Regulator",
								"label": "UserName",
								"offset": 0,
								"slot": "0",
								"type": "t_string_storage"
							},
							{
								"astId": 15,
								"contract": "contracts/NewRegulator.sol:Regulator",
								"label": "UserRole",
								"offset": 0,
								"slot": "1",
								"type": "t_enum(UserRoles)10"
							},
							{
								"astId": 17,
								"contract": "contracts/NewRegulator.sol:Regulator",
								"label": "IsActive",
								"offset": 1,
								"slot": "1",
								"type": "t_bool"
							},
							{
								"astId": 19,
								"contract": "contracts/NewRegulator.sol:Regulator",
								"label": "Latitude",
								"offset": 0,
								"slot": "2",
								"type": "t_uint256"
							},
							{
								"astId": 21,
								"contract": "contracts/NewRegulator.sol:Regulator",
								"label": "Longitude",
								"offset": 0,
								"slot": "3",
								"type": "t_uint256"
							},
							{
								"astId": 23,
								"contract": "contracts/NewRegulator.sol:Regulator",
								"label": "UserAddress",
								"offset": 0,
								"slot": "4",
								"type": "t_address"
							}
						],
						"numberOfBytes": "160"
					},
					"t_uint256": {
						"encoding": "inplace",
						"label": "uint256",
						"numberOfBytes": "32"
					}
				}
			},
			"userdoc": {
				"kind": "user",
				"methods": {},
				"version": 1
			}
		}
	}
}