{
	"contracts/Test.sol": {
		"CrudApp": {
			"abi": [
				{
					"inputs": [],
					"stateMutability": "nonpayable",
					"type": "constructor"
				},
				{
					"anonymous": false,
					"inputs": [
						{
							"indexed": false,
							"internalType": "string",
							"name": "countryName",
							"type": "string"
						}
					],
					"name": "CountryDelete",
					"type": "event"
				},
				{
					"anonymous": false,
					"inputs": [
						{
							"indexed": false,
							"internalType": "string",
							"name": "countryName",
							"type": "string"
						},
						{
							"indexed": false,
							"internalType": "string",
							"name": "leader",
							"type": "string"
						},
						{
							"indexed": false,
							"internalType": "uint256",
							"name": "population",
							"type": "uint256"
						}
					],
					"name": "CountryEvent",
					"type": "event"
				},
				{
					"anonymous": false,
					"inputs": [
						{
							"indexed": false,
							"internalType": "string",
							"name": "countryName",
							"type": "string"
						},
						{
							"indexed": false,
							"internalType": "string",
							"name": "leader",
							"type": "string"
						}
					],
					"name": "LeaderUpdated",
					"type": "event"
				},
				{
					"inputs": [
						{
							"internalType": "uint256",
							"name": "",
							"type": "uint256"
						}
					],
					"name": "countries",
					"outputs": [
						{
							"internalType": "string",
							"name": "name",
							"type": "string"
						},
						{
							"internalType": "string",
							"name": "leader",
							"type": "string"
						},
						{
							"internalType": "uint256",
							"name": "population",
							"type": "uint256"
						}
					],
					"stateMutability": "view",
					"type": "function"
				},
				{
					"inputs": [
						{
							"internalType": "string",
							"name": "countryName",
							"type": "string"
						}
					],
					"name": "deleteCountry",
					"outputs": [
						{
							"internalType": "bool",
							"name": "success",
							"type": "bool"
						}
					],
					"stateMutability": "nonpayable",
					"type": "function"
				},
				{
					"inputs": [],
					"name": "getCountries",
					"outputs": [
						{
							"components": [
								{
									"internalType": "string",
									"name": "name",
									"type": "string"
								},
								{
									"internalType": "string",
									"name": "leader",
									"type": "string"
								},
								{
									"internalType": "uint256",
									"name": "population",
									"type": "uint256"
								}
							],
							"internalType": "struct CrudApp.country[]",
							"name": "allCountries",
							"type": "tuple[]"
						}
					],
					"stateMutability": "view",
					"type": "function"
				},
				{
					"inputs": [
						{
							"internalType": "string",
							"name": "countryName",
							"type": "string"
						}
					],
					"name": "getCountry",
					"outputs": [
						{
							"internalType": "string",
							"name": "name",
							"type": "string"
						},
						{
							"internalType": "string",
							"name": "leader",
							"type": "string"
						},
						{
							"internalType": "uint256",
							"name": "population",
							"type": "uint256"
						}
					],
					"stateMutability": "view",
					"type": "function"
				},
				{
					"inputs": [],
					"name": "getTotalCountries",
					"outputs": [
						{
							"internalType": "uint256",
							"name": "length",
							"type": "uint256"
						}
					],
					"stateMutability": "view",
					"type": "function"
				},
				{
					"inputs": [
						{
							"internalType": "string",
							"name": "countryName",
							"type": "string"
						},
						{
							"internalType": "string",
							"name": "leader",
							"type": "string"
						},
						{
							"internalType": "uint256",
							"name": "population",
							"type": "uint256"
						}
					],
					"name": "insert",
					"outputs": [
						{
							"internalType": "uint256",
							"name": "_totalCountries",
							"type": "uint256"
						}
					],
					"stateMutability": "nonpayable",
					"type": "function"
				},
				{
					"inputs": [],
					"name": "totalCountries",
					"outputs": [
						{
							"internalType": "uint256",
							"name": "",
							"type": "uint256"
						}
					],
					"stateMutability": "view",
					"type": "function"
				},
				{
					"inputs": [
						{
							"internalType": "string",
							"name": "countryName",
							"type": "string"
						},
						{
							"internalType": "string",
							"name": "newLeader",
							"type": "string"
						}
					],
					"name": "updateLeader",
					"outputs": [
						{
							"internalType": "bool",
							"name": "success",
							"type": "bool"
						}
					],
					"stateMutability": "nonpayable",
					"type": "function"
				}
			],
			"devdoc": {
				"kind": "dev",
				"methods": {},
				"version": 1
			},
			"evm": {
				"assembly": "    /* \"contracts/Test.sol\":97:3453  contract CrudApp {\r... */\n  mstore(0x40, 0x80)\n    /* \"contracts/Test.sol\":304:353  constructor() {\r... */\n  callvalue\n  dup1\n  iszero\n  tag_1\n  jumpi\n  0x00\n  dup1\n  revert\ntag_1:\n  pop\n    /* \"contracts/Test.sol\":345:346  0 */\n  0x00\n    /* \"contracts/Test.sol\":328:342  totalCountries */\n  0x01\n    /* \"contracts/Test.sol\":328:346  totalCountries = 0 */\n  dup2\n  swap1\n  sstore\n  pop\n    /* \"contracts/Test.sol\":97:3453  contract CrudApp {\r... */\n  dataSize(sub_0)\n  dup1\n  dataOffset(sub_0)\n  0x00\n  codecopy\n  0x00\n  return\nstop\n\nsub_0: assembly {\n        /* \"contracts/Test.sol\":97:3453  contract CrudApp {\r... */\n      mstore(0x40, 0x80)\n      callvalue\n      dup1\n      iszero\n      tag_1\n      jumpi\n      0x00\n      dup1\n      revert\n    tag_1:\n      pop\n      jumpi(tag_2, lt(calldatasize, 0x04))\n      shr(0xe0, calldataload(0x00))\n      dup1\n      0xacf75458\n      gt\n      tag_11\n      jumpi\n      dup1\n      0xacf75458\n      eq\n      tag_7\n      jumpi\n      dup1\n      0xbeca8009\n      eq\n      tag_8\n      jumpi\n      dup1\n      0xc1356d26\n      eq\n      tag_9\n      jumpi\n      dup1\n      0xcae65058\n      eq\n      tag_10\n      jumpi\n      jump(tag_2)\n    tag_11:\n      dup1\n      0x08e9daa5\n      eq\n      tag_3\n      jumpi\n      dup1\n      0x62738129\n      eq\n      tag_4\n      jumpi\n      dup1\n      0x81ba02be\n      eq\n      tag_5\n      jumpi\n      dup1\n      0x848924cb\n      eq\n      tag_6\n      jumpi\n    tag_2:\n      0x00\n      dup1\n      revert\n        /* \"contracts/Test.sol\":225:251  country[] public countries */\n    tag_3:\n      tag_12\n      0x04\n      dup1\n      calldatasize\n      sub\n      dup2\n      add\n      swap1\n      tag_13\n      swap2\n      swap1\n      tag_14\n      jump\t// in\n    tag_13:\n      tag_15\n      jump\t// in\n    tag_12:\n      mload(0x40)\n      tag_16\n      swap4\n      swap3\n      swap2\n      swap1\n      tag_17\n      jump\t// in\n    tag_16:\n      mload(0x40)\n      dup1\n      swap2\n      sub\n      swap1\n      return\n        /* \"contracts/Test.sol\":260:289  uint256 public totalCountries */\n    tag_4:\n      tag_18\n      tag_19\n      jump\t// in\n    tag_18:\n      mload(0x40)\n      tag_20\n      swap2\n      swap1\n      tag_21\n      jump\t// in\n    tag_20:\n      mload(0x40)\n      dup1\n      swap2\n      sub\n      swap1\n      return\n        /* \"contracts/Test.sol\":968:1418  function updateLeader(string memory countryName, string memory newLeader) public returns (bool success){\r... */\n    tag_5:\n      tag_22\n      0x04\n      dup1\n      calldatasize\n      sub\n      dup2\n      add\n      swap1\n      tag_23\n      swap2\n      swap1\n      tag_24\n      jump\t// in\n    tag_23:\n      tag_25\n      jump\t// in\n    tag_22:\n      mload(0x40)\n      tag_26\n      swap2\n      swap1\n      tag_27\n      jump\t// in\n    tag_26:\n      mload(0x40)\n      dup1\n      swap2\n      sub\n      swap1\n      return\n        /* \"contracts/Test.sol\":2158:2591  function getCountry(string memory countryName) public view returns(string memory name , string memory leader , uint256 population){\r... */\n    tag_6:\n      tag_28\n      0x04\n      dup1\n      calldatasize\n      sub\n      dup2\n      add\n      swap1\n      tag_29\n      swap2\n      swap1\n      tag_30\n      jump\t// in\n    tag_29:\n      tag_31\n      jump\t// in\n    tag_28:\n      mload(0x40)\n      tag_32\n      swap4\n      swap3\n      swap2\n      swap1\n      tag_17\n      jump\t// in\n    tag_32:\n      mload(0x40)\n      dup1\n      swap2\n      sub\n      swap1\n      return\n        /* \"contracts/Test.sol\":2796:2900  function getTotalCountries() public view returns (uint256 length){\r... */\n    tag_7:\n      tag_33\n      tag_34\n      jump\t// in\n    tag_33:\n      mload(0x40)\n      tag_35\n      swap2\n      swap1\n      tag_21\n      jump\t// in\n    tag_35:\n      mload(0x40)\n      dup1\n      swap2\n      sub\n      swap1\n      return\n        /* \"contracts/Test.sol\":2907:3450  function getCountries() public view returns (country[] memory allCountries){\r... */\n    tag_8:\n      tag_36\n      tag_37\n      jump\t// in\n    tag_36:\n      mload(0x40)\n      tag_38\n      swap2\n      swap1\n      tag_39\n      jump\t// in\n    tag_38:\n      mload(0x40)\n      dup1\n      swap2\n      sub\n      swap1\n      return\n        /* \"contracts/Test.sol\":561:958  function insert( string memory countryName , string memory leader , uint256 population) public returns (uint256 _totalCountries){\r... */\n    tag_9:\n      tag_40\n      0x04\n      dup1\n      calldatasize\n      sub\n      dup2\n      add\n      swap1\n      tag_41\n      swap2\n      swap1\n      tag_42\n      jump\t// in\n    tag_41:\n      tag_43\n      jump\t// in\n    tag_40:\n      mload(0x40)\n      tag_44\n      swap2\n      swap1\n      tag_21\n      jump\t// in\n    tag_44:\n      mload(0x40)\n      dup1\n      swap2\n      sub\n      swap1\n      return\n        /* \"contracts/Test.sol\":1428:2141  function deleteCountry(string memory countryName) public returns(bool success){\r... */\n    tag_10:\n      tag_45\n      0x04\n      dup1\n      calldatasize\n      sub\n      dup2\n      add\n      swap1\n      tag_46\n      swap2\n      swap1\n      tag_30\n      jump\t// in\n    tag_46:\n      tag_47\n      jump\t// in\n    tag_45:\n      mload(0x40)\n      tag_48\n      swap2\n      swap1\n      tag_27\n      jump\t// in\n    tag_48:\n      mload(0x40)\n      dup1\n      swap2\n      sub\n      swap1\n      return\n        /* \"contracts/Test.sol\":225:251  country[] public countries */\n    tag_15:\n      0x00\n      dup2\n      dup2\n      sload\n      dup2\n      lt\n      tag_49\n      jumpi\n      0x00\n      dup1\n      revert\n    tag_49:\n      swap1\n      0x00\n      mstore\n      keccak256(0x00, 0x20)\n      swap1\n      0x03\n      mul\n      add\n      0x00\n      swap2\n      pop\n      swap1\n      pop\n      dup1\n      0x00\n      add\n      dup1\n      sload\n      tag_51\n      swap1\n      tag_52\n      jump\t// in\n    tag_51:\n      dup1\n      0x1f\n      add\n      0x20\n      dup1\n      swap2\n      div\n      mul\n      0x20\n      add\n      mload(0x40)\n      swap1\n      dup2\n      add\n      0x40\n      mstore\n      dup1\n      swap3\n      swap2\n      swap1\n      dup2\n      dup2\n      mstore\n      0x20\n      add\n      dup3\n      dup1\n      sload\n      tag_53\n      swap1\n      tag_52\n      jump\t// in\n    tag_53:\n      dup1\n      iszero\n      tag_54\n      jumpi\n      dup1\n      0x1f\n      lt\n      tag_55\n      jumpi\n      0x0100\n      dup1\n      dup4\n      sload\n      div\n      mul\n      dup4\n      mstore\n      swap2\n      0x20\n      add\n      swap2\n      jump(tag_54)\n    tag_55:\n      dup3\n      add\n      swap2\n      swap1\n      0x00\n      mstore\n      keccak256(0x00, 0x20)\n      swap1\n    tag_56:\n      dup2\n      sload\n      dup2\n      mstore\n      swap1\n      0x01\n      add\n      swap1\n      0x20\n      add\n      dup1\n      dup4\n      gt\n      tag_56\n      jumpi\n      dup3\n      swap1\n      sub\n      0x1f\n      and\n      dup3\n      add\n      swap2\n    tag_54:\n      pop\n      pop\n      pop\n      pop\n      pop\n      swap1\n      dup1\n      0x01\n      add\n      dup1\n      sload\n      tag_57\n      swap1\n      tag_52\n      jump\t// in\n    tag_57:\n      dup1\n      0x1f\n      add\n      0x20\n      dup1\n      swap2\n      div\n      mul\n      0x20\n      add\n      mload(0x40)\n      swap1\n      dup2\n      add\n      0x40\n      mstore\n      dup1\n      swap3\n      swap2\n      swap1\n      dup2\n      dup2\n      mstore\n      0x20\n      add\n      dup3\n      dup1\n      sload\n      tag_58\n      swap1\n      tag_52\n      jump\t// in\n    tag_58:\n      dup1\n      iszero\n      tag_59\n      jumpi\n      dup1\n      0x1f\n      lt\n      tag_60\n      jumpi\n      0x0100\n      dup1\n      dup4\n      sload\n      div\n      mul\n      dup4\n      mstore\n      swap2\n      0x20\n      add\n      swap2\n      jump(tag_59)\n    tag_60:\n      dup3\n      add\n      swap2\n      swap1\n      0x00\n      mstore\n      keccak256(0x00, 0x20)\n      swap1\n    tag_61:\n      dup2\n      sload\n      dup2\n      mstore\n      swap1\n      0x01\n      add\n      swap1\n      0x20\n      add\n      dup1\n      dup4\n      gt\n      tag_61\n      jumpi\n      dup3\n      swap1\n      sub\n      0x1f\n      and\n      dup3\n      add\n      swap2\n    tag_59:\n      pop\n      pop\n      pop\n      pop\n      pop\n      swap1\n      dup1\n      0x02\n      add\n      sload\n      swap1\n      pop\n      dup4\n      jump\t// out\n        /* \"contracts/Test.sol\":260:289  uint256 public totalCountries */\n    tag_19:\n      sload(0x01)\n      dup2\n      jump\t// out\n        /* \"contracts/Test.sol\":968:1418  function updateLeader(string memory countryName, string memory newLeader) public returns (bool success){\r... */\n    tag_25:\n        /* \"contracts/Test.sol\":1058:1070  bool success */\n      0x00\n        /* \"contracts/Test.sol\":1127:1136  uint256 i */\n      dup1\n        /* \"contracts/Test.sol\":1138:1139  0 */\n      0x00\n        /* \"contracts/Test.sol\":1127:1139  uint256 i =0 */\n      swap1\n      pop\n        /* \"contracts/Test.sol\":1123:1390  for(uint256 i =0; i< totalCountries; i++){\r... */\n    tag_63:\n        /* \"contracts/Test.sol\":1144:1158  totalCountries */\n      sload(0x01)\n        /* \"contracts/Test.sol\":1141:1142  i */\n      dup2\n        /* \"contracts/Test.sol\":1141:1158  i< totalCountries */\n      lt\n        /* \"contracts/Test.sol\":1123:1390  for(uint256 i =0; i< totalCountries; i++){\r... */\n      iszero\n      tag_64\n      jumpi\n        /* \"contracts/Test.sol\":1181:1227  compareStrings(countries[i].name ,countryName) */\n      tag_66\n        /* \"contracts/Test.sol\":1196:1205  countries */\n      0x00\n        /* \"contracts/Test.sol\":1206:1207  i */\n      dup3\n        /* \"contracts/Test.sol\":1196:1208  countries[i] */\n      dup2\n      sload\n      dup2\n      lt\n      tag_67\n      jumpi\n      tag_68\n      tag_69\n      jump\t// in\n    tag_68:\n    tag_67:\n      swap1\n      0x00\n      mstore\n      keccak256(0x00, 0x20)\n      swap1\n      0x03\n      mul\n      add\n        /* \"contracts/Test.sol\":1196:1213  countries[i].name */\n      0x00\n      add\n        /* \"contracts/Test.sol\":1181:1227  compareStrings(countries[i].name ,countryName) */\n      dup1\n      sload\n      tag_71\n      swap1\n      tag_52\n      jump\t// in\n    tag_71:\n      dup1\n      0x1f\n      add\n      0x20\n      dup1\n      swap2\n      div\n      mul\n      0x20\n      add\n      mload(0x40)\n      swap1\n      dup2\n      add\n      0x40\n      mstore\n      dup1\n      swap3\n      swap2\n      swap1\n      dup2\n      dup2\n      mstore\n      0x20\n      add\n      dup3\n      dup1\n      sload\n      tag_72\n      swap1\n      tag_52\n      jump\t// in\n    tag_72:\n      dup1\n      iszero\n      tag_73\n      jumpi\n      dup1\n      0x1f\n      lt\n      tag_74\n      jumpi\n      0x0100\n      dup1\n      dup4\n      sload\n      div\n      mul\n      dup4\n      mstore\n      swap2\n      0x20\n      add\n      swap2\n      jump(tag_73)\n    tag_74:\n      dup3\n      add\n      swap2\n      swap1\n      0x00\n      mstore\n      keccak256(0x00, 0x20)\n      swap1\n    tag_75:\n      dup2\n      sload\n      dup2\n      mstore\n      swap1\n      0x01\n      add\n      swap1\n      0x20\n      add\n      dup1\n      dup4\n      gt\n      tag_75\n      jumpi\n      dup3\n      swap1\n      sub\n      0x1f\n      and\n      dup3\n      add\n      swap2\n    tag_73:\n      pop\n      pop\n      pop\n      pop\n      pop\n        /* \"contracts/Test.sol\":1215:1226  countryName */\n      dup6\n        /* \"contracts/Test.sol\":1181:1195  compareStrings */\n      tag_76\n        /* \"contracts/Test.sol\":1181:1227  compareStrings(countries[i].name ,countryName) */\n      jump\t// in\n    tag_66:\n        /* \"contracts/Test.sol\":1178:1380  if(compareStrings(countries[i].name ,countryName)){\r... */\n      iszero\n      tag_77\n      jumpi\n        /* \"contracts/Test.sol\":1267:1276  newLeader */\n      dup3\n        /* \"contracts/Test.sol\":1245:1254  countries */\n      0x00\n        /* \"contracts/Test.sol\":1255:1256  i */\n      dup3\n        /* \"contracts/Test.sol\":1245:1257  countries[i] */\n      dup2\n      sload\n      dup2\n      lt\n      tag_78\n      jumpi\n      tag_79\n      tag_69\n      jump\t// in\n    tag_79:\n    tag_78:\n      swap1\n      0x00\n      mstore\n      keccak256(0x00, 0x20)\n      swap1\n      0x03\n      mul\n      add\n        /* \"contracts/Test.sol\":1245:1264  countries[i].leader */\n      0x01\n      add\n        /* \"contracts/Test.sol\":1245:1276  countries[i].leader = newLeader */\n      swap1\n      dup1\n      mload\n      swap1\n      0x20\n      add\n      swap1\n      tag_81\n      swap3\n      swap2\n      swap1\n      tag_82\n      jump\t// in\n    tag_81:\n      pop\n        /* \"contracts/Test.sol\":1361:1365  true */\n      0x01\n        /* \"contracts/Test.sol\":1354:1365  return true */\n      swap2\n      pop\n      pop\n      jump(tag_62)\n        /* \"contracts/Test.sol\":1178:1380  if(compareStrings(countries[i].name ,countryName)){\r... */\n    tag_77:\n        /* \"contracts/Test.sol\":1160:1163  i++ */\n      dup1\n      dup1\n      tag_83\n      swap1\n      tag_84\n      jump\t// in\n    tag_83:\n      swap2\n      pop\n      pop\n        /* \"contracts/Test.sol\":1123:1390  for(uint256 i =0; i< totalCountries; i++){\r... */\n      jump(tag_63)\n    tag_64:\n      pop\n        /* \"contracts/Test.sol\":1406:1411  false */\n      0x00\n        /* \"contracts/Test.sol\":1399:1411  return false */\n      swap1\n      pop\n        /* \"contracts/Test.sol\":968:1418  function updateLeader(string memory countryName, string memory newLeader) public returns (bool success){\r... */\n    tag_62:\n      swap3\n      swap2\n      pop\n      pop\n      jump\t// out\n        /* \"contracts/Test.sol\":2158:2591  function getCountry(string memory countryName) public view returns(string memory name , string memory leader , uint256 population){\r... */\n    tag_31:\n        /* \"contracts/Test.sol\":2225:2243  string memory name */\n      0x60\n        /* \"contracts/Test.sol\":2246:2266  string memory leader */\n      dup1\n        /* \"contracts/Test.sol\":2269:2287  uint256 population */\n      0x00\n        /* \"contracts/Test.sol\":2303:2312  uint256 i */\n      dup1\n        /* \"contracts/Test.sol\":2314:2315  0 */\n      0x00\n        /* \"contracts/Test.sol\":2303:2315  uint256 i =0 */\n      swap1\n      pop\n        /* \"contracts/Test.sol\":2299:2548  for(uint256 i =0; i< totalCountries; i++){\r... */\n    tag_86:\n        /* \"contracts/Test.sol\":2320:2334  totalCountries */\n      sload(0x01)\n        /* \"contracts/Test.sol\":2317:2318  i */\n      dup2\n        /* \"contracts/Test.sol\":2317:2334  i< totalCountries */\n      lt\n        /* \"contracts/Test.sol\":2299:2548  for(uint256 i =0; i< totalCountries; i++){\r... */\n      iszero\n      tag_87\n      jumpi\n        /* \"contracts/Test.sol\":2357:2403  compareStrings(countries[i].name, countryName) */\n      tag_89\n        /* \"contracts/Test.sol\":2372:2381  countries */\n      0x00\n        /* \"contracts/Test.sol\":2382:2383  i */\n      dup3\n        /* \"contracts/Test.sol\":2372:2384  countries[i] */\n      dup2\n      sload\n      dup2\n      lt\n      tag_90\n      jumpi\n      tag_91\n      tag_69\n      jump\t// in\n    tag_91:\n    tag_90:\n      swap1\n      0x00\n      mstore\n      keccak256(0x00, 0x20)\n      swap1\n      0x03\n      mul\n      add\n        /* \"contracts/Test.sol\":2372:2389  countries[i].name */\n      0x00\n      add\n        /* \"contracts/Test.sol\":2357:2403  compareStrings(countries[i].name, countryName) */\n      dup1\n      sload\n      tag_93\n      swap1\n      tag_52\n      jump\t// in\n    tag_93:\n      dup1\n      0x1f\n      add\n      0x20\n      dup1\n      swap2\n      div\n      mul\n      0x20\n      add\n      mload(0x40)\n      swap1\n      dup2\n      add\n      0x40\n      mstore\n      dup1\n      swap3\n      swap2\n      swap1\n      dup2\n      dup2\n      mstore\n      0x20\n      add\n      dup3\n      dup1\n      sload\n      tag_94\n      swap1\n      tag_52\n      jump\t// in\n    tag_94:\n      dup1\n      iszero\n      tag_95\n      jumpi\n      dup1\n      0x1f\n      lt\n      tag_96\n      jumpi\n      0x0100\n      dup1\n      dup4\n      sload\n      div\n      mul\n      dup4\n      mstore\n      swap2\n      0x20\n      add\n      swap2\n      jump(tag_95)\n    tag_96:\n      dup3\n      add\n      swap2\n      swap1\n      0x00\n      mstore\n      keccak256(0x00, 0x20)\n      swap1\n    tag_97:\n      dup2\n      sload\n      dup2\n      mstore\n      swap1\n      0x01\n      add\n      swap1\n      0x20\n      add\n      dup1\n      dup4\n      gt\n      tag_97\n      jumpi\n      dup3\n      swap1\n      sub\n      0x1f\n      and\n      dup3\n      add\n      swap2\n    tag_95:\n      pop\n      pop\n      pop\n      pop\n      pop\n        /* \"contracts/Test.sol\":2391:2402  countryName */\n      dup7\n        /* \"contracts/Test.sol\":2357:2371  compareStrings */\n      tag_76\n        /* \"contracts/Test.sol\":2357:2403  compareStrings(countries[i].name, countryName) */\n      jump\t// in\n    tag_89:\n        /* \"contracts/Test.sol\":2354:2538  if(compareStrings(countries[i].name, countryName)){\r... */\n      iszero\n      tag_98\n      jumpi\n        /* \"contracts/Test.sol\":2457:2466  countries */\n      0x00\n        /* \"contracts/Test.sol\":2467:2468  i */\n      dup2\n        /* \"contracts/Test.sol\":2457:2469  countries[i] */\n      dup2\n      sload\n      dup2\n      lt\n      tag_99\n      jumpi\n      tag_100\n      tag_69\n      jump\t// in\n    tag_100:\n    tag_99:\n      swap1\n      0x00\n      mstore\n      keccak256(0x00, 0x20)\n      swap1\n      0x03\n      mul\n      add\n        /* \"contracts/Test.sol\":2457:2474  countries[i].name */\n      0x00\n      add\n        /* \"contracts/Test.sol\":2477:2486  countries */\n      0x00\n        /* \"contracts/Test.sol\":2487:2488  i */\n      dup3\n        /* \"contracts/Test.sol\":2477:2489  countries[i] */\n      dup2\n      sload\n      dup2\n      lt\n      tag_102\n      jumpi\n      tag_103\n      tag_69\n      jump\t// in\n    tag_103:\n    tag_102:\n      swap1\n      0x00\n      mstore\n      keccak256(0x00, 0x20)\n      swap1\n      0x03\n      mul\n      add\n        /* \"contracts/Test.sol\":2477:2496  countries[i].leader */\n      0x01\n      add\n        /* \"contracts/Test.sol\":2499:2508  countries */\n      0x00\n        /* \"contracts/Test.sol\":2509:2510  i */\n      dup4\n        /* \"contracts/Test.sol\":2499:2511  countries[i] */\n      dup2\n      sload\n      dup2\n      lt\n      tag_105\n      jumpi\n      tag_106\n      tag_69\n      jump\t// in\n    tag_106:\n    tag_105:\n      swap1\n      0x00\n      mstore\n      keccak256(0x00, 0x20)\n      swap1\n      0x03\n      mul\n      add\n        /* \"contracts/Test.sol\":2499:2522  countries[i].population */\n      0x02\n      add\n      sload\n        /* \"contracts/Test.sol\":2449:2523  return (countries[i].name , countries[i].leader , countries[i].population) */\n      dup3\n      dup1\n      sload\n      tag_108\n      swap1\n      tag_52\n      jump\t// in\n    tag_108:\n      dup1\n      0x1f\n      add\n      0x20\n      dup1\n      swap2\n      div\n      mul\n      0x20\n      add\n      mload(0x40)\n      swap1\n      dup2\n      add\n      0x40\n      mstore\n      dup1\n      swap3\n      swap2\n      swap1\n      dup2\n      dup2\n      mstore\n      0x20\n      add\n      dup3\n      dup1\n      sload\n      tag_109\n      swap1\n      tag_52\n      jump\t// in\n    tag_109:\n      dup1\n      iszero\n      tag_110\n      jumpi\n      dup1\n      0x1f\n      lt\n      tag_111\n      jumpi\n      0x0100\n      dup1\n      dup4\n      sload\n      div\n      mul\n      dup4\n      mstore\n      swap2\n      0x20\n      add\n      swap2\n      jump(tag_110)\n    tag_111:\n      dup3\n      add\n      swap2\n      swap1\n      0x00\n      mstore\n      keccak256(0x00, 0x20)\n      swap1\n    tag_112:\n      dup2\n      sload\n      dup2\n      mstore\n      swap1\n      0x01\n      add\n      swap1\n      0x20\n      add\n      dup1\n      dup4\n      gt\n      tag_112\n      jumpi\n      dup3\n      swap1\n      sub\n      0x1f\n      and\n      dup3\n      add\n      swap2\n    tag_110:\n      pop\n      pop\n      pop\n      pop\n      pop\n      swap3\n      pop\n      dup2\n      dup1\n      sload\n      tag_113\n      swap1\n      tag_52\n      jump\t// in\n    tag_113:\n      dup1\n      0x1f\n      add\n      0x20\n      dup1\n      swap2\n      div\n      mul\n      0x20\n      add\n      mload(0x40)\n      swap1\n      dup2\n      add\n      0x40\n      mstore\n      dup1\n      swap3\n      swap2\n      swap1\n      dup2\n      dup2\n      mstore\n      0x20\n      add\n      dup3\n      dup1\n      sload\n      tag_114\n      swap1\n      tag_52\n      jump\t// in\n    tag_114:\n      dup1\n      iszero\n      tag_115\n      jumpi\n      dup1\n      0x1f\n      lt\n      tag_116\n      jumpi\n      0x0100\n      dup1\n      dup4\n      sload\n      div\n      mul\n      dup4\n      mstore\n      swap2\n      0x20\n      add\n      swap2\n      jump(tag_115)\n    tag_116:\n      dup3\n      add\n      swap2\n      swap1\n      0x00\n      mstore\n      keccak256(0x00, 0x20)\n      swap1\n    tag_117:\n      dup2\n      sload\n      dup2\n      mstore\n      swap1\n      0x01\n      add\n      swap1\n      0x20\n      add\n      dup1\n      dup4\n      gt\n      tag_117\n      jumpi\n      dup3\n      swap1\n      sub\n      0x1f\n      and\n      dup3\n      add\n      swap2\n    tag_115:\n      pop\n      pop\n      pop\n      pop\n      pop\n      swap2\n      pop\n      swap4\n      pop\n      swap4\n      pop\n      swap4\n      pop\n      pop\n      jump(tag_85)\n        /* \"contracts/Test.sol\":2354:2538  if(compareStrings(countries[i].name, countryName)){\r... */\n    tag_98:\n        /* \"contracts/Test.sol\":2336:2339  i++ */\n      dup1\n      dup1\n      tag_118\n      swap1\n      tag_84\n      jump\t// in\n    tag_118:\n      swap2\n      pop\n      pop\n        /* \"contracts/Test.sol\":2299:2548  for(uint256 i =0; i< totalCountries; i++){\r... */\n      jump(tag_86)\n    tag_87:\n      pop\n        /* \"contracts/Test.sol\":2557:2584  revert('country not found') */\n      mload(0x40)\n      0x08c379a000000000000000000000000000000000000000000000000000000000\n      dup2\n      mstore\n      0x04\n      add\n      tag_119\n      swap1\n      tag_120\n      jump\t// in\n    tag_119:\n      mload(0x40)\n      dup1\n      swap2\n      sub\n      swap1\n      revert\n        /* \"contracts/Test.sol\":2158:2591  function getCountry(string memory countryName) public view returns(string memory name , string memory leader , uint256 population){\r... */\n    tag_85:\n      swap2\n      swap4\n      swap1\n      swap3\n      pop\n      jump\t// out\n        /* \"contracts/Test.sol\":2796:2900  function getTotalCountries() public view returns (uint256 length){\r... */\n    tag_34:\n        /* \"contracts/Test.sol\":2846:2860  uint256 length */\n      0x00\n        /* \"contracts/Test.sol\":2877:2886  countries */\n      dup1\n        /* \"contracts/Test.sol\":2877:2893  countries.length */\n      dup1\n      sload\n      swap1\n      pop\n        /* \"contracts/Test.sol\":2870:2893  return countries.length */\n      swap1\n      pop\n        /* \"contracts/Test.sol\":2796:2900  function getTotalCountries() public view returns (uint256 length){\r... */\n      swap1\n      jump\t// out\n        /* \"contracts/Test.sol\":2907:3450  function getCountries() public view returns (country[] memory allCountries){\r... */\n    tag_37:\n        /* \"contracts/Test.sol\":2952:2981  country[] memory allCountries */\n      0x60\n        /* \"contracts/Test.sol\":3017:3046  country[] memory CountriesArr */\n      0x00\n        /* \"contracts/Test.sol\":3063:3077  totalCountries */\n      sload(0x01)\n        /* \"contracts/Test.sol\":3049:3078  new country[](totalCountries) */\n      0xffffffffffffffff\n      dup2\n      gt\n      iszero\n      tag_123\n      jumpi\n      tag_124\n      tag_125\n      jump\t// in\n    tag_124:\n    tag_123:\n      mload(0x40)\n      swap1\n      dup1\n      dup3\n      mstore\n      dup1\n      0x20\n      mul\n      0x20\n      add\n      dup3\n      add\n      0x40\n      mstore\n      dup1\n      iszero\n      tag_126\n      jumpi\n      dup2\n      0x20\n      add\n    tag_127:\n      tag_128\n      tag_129\n      jump\t// in\n    tag_128:\n      dup2\n      mstore\n      0x20\n      add\n      swap1\n      0x01\n      swap1\n      sub\n      swap1\n      dup2\n      tag_127\n      jumpi\n      swap1\n      pop\n    tag_126:\n      pop\n        /* \"contracts/Test.sol\":3017:3078  country[] memory CountriesArr = new country[](totalCountries) */\n      swap1\n      pop\n        /* \"contracts/Test.sol\":3094:3100  uint i */\n      0x00\n        /* \"contracts/Test.sol\":3089:3384  for (uint i = 0; i < totalCountries; i++) {\r... */\n    tag_130:\n        /* \"contracts/Test.sol\":3110:3124  totalCountries */\n      sload(0x01)\n        /* \"contracts/Test.sol\":3106:3107  i */\n      dup2\n        /* \"contracts/Test.sol\":3106:3124  i < totalCountries */\n      lt\n        /* \"contracts/Test.sol\":3089:3384  for (uint i = 0; i < totalCountries; i++) {\r... */\n      iszero\n      tag_131\n      jumpi\n        /* \"contracts/Test.sol\":3360:3369  countries */\n      0x00\n        /* \"contracts/Test.sol\":3370:3371  i */\n      dup2\n        /* \"contracts/Test.sol\":3360:3372  countries[i] */\n      dup2\n      sload\n      dup2\n      lt\n      tag_133\n      jumpi\n      tag_134\n      tag_69\n      jump\t// in\n    tag_134:\n    tag_133:\n      swap1\n      0x00\n      mstore\n      keccak256(0x00, 0x20)\n      swap1\n      0x03\n      mul\n      add\n        /* \"contracts/Test.sol\":3342:3372  CountriesArr[i] = countries[i] */\n      mload(0x40)\n      dup1\n      0x60\n      add\n      0x40\n      mstore\n      swap1\n      dup2\n      0x00\n      dup3\n      add\n      dup1\n      sload\n      tag_136\n      swap1\n      tag_52\n      jump\t// in\n    tag_136:\n      dup1\n      0x1f\n      add\n      0x20\n      dup1\n      swap2\n      div\n      mul\n      0x20\n      add\n      mload(0x40)\n      swap1\n      dup2\n      add\n      0x40\n      mstore\n      dup1\n      swap3\n      swap2\n      swap1\n      dup2\n      dup2\n      mstore\n      0x20\n      add\n      dup3\n      dup1\n      sload\n      tag_137\n      swap1\n      tag_52\n      jump\t// in\n    tag_137:\n      dup1\n      iszero\n      tag_138\n      jumpi\n      dup1\n      0x1f\n      lt\n      tag_139\n      jumpi\n      0x0100\n      dup1\n      dup4\n      sload\n      div\n      mul\n      dup4\n      mstore\n      swap2\n      0x20\n      add\n      swap2\n      jump(tag_138)\n    tag_139:\n      dup3\n      add\n      swap2\n      swap1\n      0x00\n      mstore\n      keccak256(0x00, 0x20)\n      swap1\n    tag_140:\n      dup2\n      sload\n      dup2\n      mstore\n      swap1\n      0x01\n      add\n      swap1\n      0x20\n      add\n      dup1\n      dup4\n      gt\n      tag_140\n      jumpi\n      dup3\n      swap1\n      sub\n      0x1f\n      and\n      dup3\n      add\n      swap2\n    tag_138:\n      pop\n      pop\n      pop\n      pop\n      pop\n      dup2\n      mstore\n      0x20\n      add\n      0x01\n      dup3\n      add\n      dup1\n      sload\n      tag_141\n      swap1\n      tag_52\n      jump\t// in\n    tag_141:\n      dup1\n      0x1f\n      add\n      0x20\n      dup1\n      swap2\n      div\n      mul\n      0x20\n      add\n      mload(0x40)\n      swap1\n      dup2\n      add\n      0x40\n      mstore\n      dup1\n      swap3\n      swap2\n      swap1\n      dup2\n      dup2\n      mstore\n      0x20\n      add\n      dup3\n      dup1\n      sload\n      tag_142\n      swap1\n      tag_52\n      jump\t// in\n    tag_142:\n      dup1\n      iszero\n      tag_143\n      jumpi\n      dup1\n      0x1f\n      lt\n      tag_144\n      jumpi\n      0x0100\n      dup1\n      dup4\n      sload\n      div\n      mul\n      dup4\n      mstore\n      swap2\n      0x20\n      add\n      swap2\n      jump(tag_143)\n    tag_144:\n      dup3\n      add\n      swap2\n      swap1\n      0x00\n      mstore\n      keccak256(0x00, 0x20)\n      swap1\n    tag_145:\n      dup2\n      sload\n      dup2\n      mstore\n      swap1\n      0x01\n      add\n      swap1\n      0x20\n      add\n      dup1\n      dup4\n      gt\n      tag_145\n      jumpi\n      dup3\n      swap1\n      sub\n      0x1f\n      and\n      dup3\n      add\n      swap2\n    tag_143:\n      pop\n      pop\n      pop\n      pop\n      pop\n      dup2\n      mstore\n      0x20\n      add\n      0x02\n      dup3\n      add\n      sload\n      dup2\n      mstore\n      pop\n      pop\n        /* \"contracts/Test.sol\":3342:3354  CountriesArr */\n      dup3\n        /* \"contracts/Test.sol\":3355:3356  i */\n      dup3\n        /* \"contracts/Test.sol\":3342:3357  CountriesArr[i] */\n      dup2\n      mload\n      dup2\n      lt\n      tag_146\n      jumpi\n      tag_147\n      tag_69\n      jump\t// in\n    tag_147:\n    tag_146:\n      0x20\n      mul\n      0x20\n      add\n      add\n        /* \"contracts/Test.sol\":3342:3372  CountriesArr[i] = countries[i] */\n      dup2\n      swap1\n      mstore\n      pop\n        /* \"contracts/Test.sol\":3126:3129  i++ */\n      dup1\n      dup1\n      tag_148\n      swap1\n      tag_84\n      jump\t// in\n    tag_148:\n      swap2\n      pop\n      pop\n        /* \"contracts/Test.sol\":3089:3384  for (uint i = 0; i < totalCountries; i++) {\r... */\n      jump(tag_130)\n    tag_131:\n      pop\n        /* \"contracts/Test.sol\":3401:3413  CountriesArr */\n      dup1\n        /* \"contracts/Test.sol\":3394:3413  return CountriesArr */\n      swap2\n      pop\n      pop\n        /* \"contracts/Test.sol\":2907:3450  function getCountries() public view returns (country[] memory allCountries){\r... */\n      swap1\n      jump\t// out\n        /* \"contracts/Test.sol\":561:958  function insert( string memory countryName , string memory leader , uint256 population) public returns (uint256 _totalCountries){\r... */\n    tag_43:\n        /* \"contracts/Test.sol\":665:688  uint256 _totalCountries */\n      0x00\n        /* \"contracts/Test.sol\":700:725  country memory newCountry */\n      dup1\n        /* \"contracts/Test.sol\":728:769  country(countryName , leader, population) */\n      mload(0x40)\n      dup1\n      0x60\n      add\n      0x40\n      mstore\n      dup1\n        /* \"contracts/Test.sol\":736:747  countryName */\n      dup7\n        /* \"contracts/Test.sol\":728:769  country(countryName , leader, population) */\n      dup2\n      mstore\n      0x20\n      add\n        /* \"contracts/Test.sol\":750:756  leader */\n      dup6\n        /* \"contracts/Test.sol\":728:769  country(countryName , leader, population) */\n      dup2\n      mstore\n      0x20\n      add\n        /* \"contracts/Test.sol\":758:768  population */\n      dup5\n        /* \"contracts/Test.sol\":728:769  country(countryName , leader, population) */\n      dup2\n      mstore\n      pop\n        /* \"contracts/Test.sol\":700:769  country memory newCountry = country(countryName , leader, population) */\n      swap1\n      pop\n        /* \"contracts/Test.sol\":780:789  countries */\n      0x00\n        /* \"contracts/Test.sol\":795:805  newCountry */\n      dup2\n        /* \"contracts/Test.sol\":780:806  countries.push(newCountry) */\n      swap1\n      dup1\n      0x01\n      dup2\n      sload\n      add\n      dup1\n      dup3\n      sstore\n      dup1\n      swap2\n      pop\n      pop\n      0x01\n      swap1\n      sub\n      swap1\n      0x00\n      mstore\n      keccak256(0x00, 0x20)\n      swap1\n      0x03\n      mul\n      add\n      0x00\n      swap1\n      swap2\n      swap1\n      swap2\n      swap1\n      swap2\n      pop\n      0x00\n      dup3\n      add\n      mload\n      dup2\n      0x00\n      add\n      swap1\n      dup1\n      mload\n      swap1\n      0x20\n      add\n      swap1\n      tag_151\n      swap3\n      swap2\n      swap1\n      tag_82\n      jump\t// in\n    tag_151:\n      pop\n      0x20\n      dup3\n      add\n      mload\n      dup2\n      0x01\n      add\n      swap1\n      dup1\n      mload\n      swap1\n      0x20\n      add\n      swap1\n      tag_152\n      swap3\n      swap2\n      swap1\n      tag_82\n      jump\t// in\n    tag_152:\n      pop\n      0x40\n      dup3\n      add\n      mload\n      dup2\n      0x02\n      add\n      sstore\n      pop\n      pop\n        /* \"contracts/Test.sol\":817:831  totalCountries */\n      0x01\n      0x00\n        /* \"contracts/Test.sol\":817:833  totalCountries++ */\n      dup2\n      sload\n      dup1\n      swap3\n      swap2\n      swap1\n      tag_153\n      swap1\n      tag_84\n      jump\t// in\n    tag_153:\n      swap2\n      swap1\n      pop\n      sstore\n      pop\n        /* \"contracts/Test.sol\":937:951  totalCountries */\n      sload(0x01)\n        /* \"contracts/Test.sol\":930:951  return totalCountries */\n      swap2\n      pop\n      pop\n        /* \"contracts/Test.sol\":561:958  function insert( string memory countryName , string memory leader , uint256 population) public returns (uint256 _totalCountries){\r... */\n      swap4\n      swap3\n      pop\n      pop\n      pop\n      jump\t// out\n        /* \"contracts/Test.sol\":1428:2141  function deleteCountry(string memory countryName) public returns(bool success){\r... */\n    tag_47:\n        /* \"contracts/Test.sol\":1493:1505  bool success */\n      0x00\n        /* \"contracts/Test.sol\":1542:1543  0 */\n      dup1\n        /* \"contracts/Test.sol\":1525:1539  totalCountries */\n      sload(0x01)\n        /* \"contracts/Test.sol\":1525:1543  totalCountries > 0 */\n      gt\n        /* \"contracts/Test.sol\":1517:1544  require(totalCountries > 0) */\n      tag_155\n      jumpi\n      0x00\n      dup1\n      revert\n    tag_155:\n        /* \"contracts/Test.sol\":1559:1568  uint256 i */\n      0x00\n        /* \"contracts/Test.sol\":1555:2113  for(uint256 i =0; i< totalCountries; i++){\r... */\n    tag_156:\n        /* \"contracts/Test.sol\":1576:1590  totalCountries */\n      sload(0x01)\n        /* \"contracts/Test.sol\":1573:1574  i */\n      dup2\n        /* \"contracts/Test.sol\":1573:1590  i< totalCountries */\n      lt\n        /* \"contracts/Test.sol\":1555:2113  for(uint256 i =0; i< totalCountries; i++){\r... */\n      iszero\n      tag_157\n      jumpi\n        /* \"contracts/Test.sol\":1613:1660  compareStrings(countries[i].name , countryName) */\n      tag_159\n        /* \"contracts/Test.sol\":1628:1637  countries */\n      0x00\n        /* \"contracts/Test.sol\":1638:1639  i */\n      dup3\n        /* \"contracts/Test.sol\":1628:1640  countries[i] */\n      dup2\n      sload\n      dup2\n      lt\n      tag_160\n      jumpi\n      tag_161\n      tag_69\n      jump\t// in\n    tag_161:\n    tag_160:\n      swap1\n      0x00\n      mstore\n      keccak256(0x00, 0x20)\n      swap1\n      0x03\n      mul\n      add\n        /* \"contracts/Test.sol\":1628:1645  countries[i].name */\n      0x00\n      add\n        /* \"contracts/Test.sol\":1613:1660  compareStrings(countries[i].name , countryName) */\n      dup1\n      sload\n      tag_163\n      swap1\n      tag_52\n      jump\t// in\n    tag_163:\n      dup1\n      0x1f\n      add\n      0x20\n      dup1\n      swap2\n      div\n      mul\n      0x20\n      add\n      mload(0x40)\n      swap1\n      dup2\n      add\n      0x40\n      mstore\n      dup1\n      swap3\n      swap2\n      swap1\n      dup2\n      dup2\n      mstore\n      0x20\n      add\n      dup3\n      dup1\n      sload\n      tag_164\n      swap1\n      tag_52\n      jump\t// in\n    tag_164:\n      dup1\n      iszero\n      tag_165\n      jumpi\n      dup1\n      0x1f\n      lt\n      tag_166\n      jumpi\n      0x0100\n      dup1\n      dup4\n      sload\n      div\n      mul\n      dup4\n      mstore\n      swap2\n      0x20\n      add\n      swap2\n      jump(tag_165)\n    tag_166:\n      dup3\n      add\n      swap2\n      swap1\n      0x00\n      mstore\n      keccak256(0x00, 0x20)\n      swap1\n    tag_167:\n      dup2\n      sload\n      dup2\n      mstore\n      swap1\n      0x01\n      add\n      swap1\n      0x20\n      add\n      dup1\n      dup4\n      gt\n      tag_167\n      jumpi\n      dup3\n      swap1\n      sub\n      0x1f\n      and\n      dup3\n      add\n      swap2\n    tag_165:\n      pop\n      pop\n      pop\n      pop\n      pop\n        /* \"contracts/Test.sol\":1648:1659  countryName */\n      dup5\n        /* \"contracts/Test.sol\":1613:1627  compareStrings */\n      tag_76\n        /* \"contracts/Test.sol\":1613:1660  compareStrings(countries[i].name , countryName) */\n      jump\t// in\n    tag_159:\n        /* \"contracts/Test.sol\":1610:2103  if(compareStrings(countries[i].name , countryName)){\r... */\n      iszero\n      tag_168\n      jumpi\n        /* \"contracts/Test.sol\":1693:1702  countries */\n      0x00\n        /* \"contracts/Test.sol\":1718:1719  1 */\n      0x01\n        /* \"contracts/Test.sol\":1703:1717  totalCountries */\n      dup1\n      sload\n        /* \"contracts/Test.sol\":1703:1719  totalCountries-1 */\n      tag_169\n      swap2\n      swap1\n      tag_170\n      jump\t// in\n    tag_169:\n        /* \"contracts/Test.sol\":1693:1720  countries[totalCountries-1] */\n      dup2\n      sload\n      dup2\n      lt\n      tag_171\n      jumpi\n      tag_172\n      tag_69\n      jump\t// in\n    tag_172:\n    tag_171:\n      swap1\n      0x00\n      mstore\n      keccak256(0x00, 0x20)\n      swap1\n      0x03\n      mul\n      add\n        /* \"contracts/Test.sol\":1678:1687  countries */\n      0x00\n        /* \"contracts/Test.sol\":1688:1689  i */\n      dup3\n        /* \"contracts/Test.sol\":1678:1690  countries[i] */\n      dup2\n      sload\n      dup2\n      lt\n      tag_174\n      jumpi\n      tag_175\n      tag_69\n      jump\t// in\n    tag_175:\n    tag_174:\n      swap1\n      0x00\n      mstore\n      keccak256(0x00, 0x20)\n      swap1\n      0x03\n      mul\n      add\n        /* \"contracts/Test.sol\":1678:1720  countries[i] = countries[totalCountries-1] */\n      0x00\n      dup3\n      add\n      dup2\n      0x00\n      add\n      swap1\n      dup1\n      sload\n      tag_177\n      swap1\n      tag_52\n      jump\t// in\n    tag_177:\n      tag_178\n      swap3\n      swap2\n      swap1\n      tag_179\n      jump\t// in\n    tag_178:\n      pop\n      0x01\n      dup3\n      add\n      dup2\n      0x01\n      add\n      swap1\n      dup1\n      sload\n      tag_180\n      swap1\n      tag_52\n      jump\t// in\n    tag_180:\n      tag_181\n      swap3\n      swap2\n      swap1\n      tag_179\n      jump\t// in\n    tag_181:\n      pop\n      0x02\n      dup3\n      add\n      sload\n      dup2\n      0x02\n      add\n      sstore\n      swap1\n      pop\n      pop\n        /* \"contracts/Test.sol\":1808:1817  countries */\n      0x00\n        /* \"contracts/Test.sol\":1833:1834  1 */\n      0x01\n        /* \"contracts/Test.sol\":1818:1832  totalCountries */\n      dup1\n      sload\n        /* \"contracts/Test.sol\":1818:1834  totalCountries-1 */\n      tag_182\n      swap2\n      swap1\n      tag_170\n      jump\t// in\n    tag_182:\n        /* \"contracts/Test.sol\":1808:1835  countries[totalCountries-1] */\n      dup2\n      sload\n      dup2\n      lt\n      tag_183\n      jumpi\n      tag_184\n      tag_69\n      jump\t// in\n    tag_184:\n    tag_183:\n      swap1\n      0x00\n      mstore\n      keccak256(0x00, 0x20)\n      swap1\n      0x03\n      mul\n      add\n      0x00\n        /* \"contracts/Test.sol\":1801:1835  delete countries[totalCountries-1] */\n      dup1\n      dup3\n      add\n      0x00\n      tag_186\n      swap2\n      swap1\n      tag_187\n      jump\t// in\n    tag_186:\n      0x01\n      dup3\n      add\n      0x00\n      tag_188\n      swap2\n      swap1\n      tag_187\n      jump\t// in\n    tag_188:\n      0x02\n      dup3\n      add\n      0x00\n      swap1\n      sstore\n      pop\n      pop\n        /* \"contracts/Test.sol\":1880:1894  totalCountries */\n      0x01\n      0x00\n        /* \"contracts/Test.sol\":1880:1896  totalCountries-- */\n      dup2\n      sload\n      dup1\n      swap3\n      swap2\n      swap1\n      tag_189\n      swap1\n      tag_190\n      jump\t// in\n    tag_189:\n      swap2\n      swap1\n      pop\n      sstore\n      pop\n        /* \"contracts/Test.sol\":2084:2088  true */\n      0x01\n        /* \"contracts/Test.sol\":2077:2088  return true */\n      swap2\n      pop\n      pop\n      jump(tag_154)\n        /* \"contracts/Test.sol\":1610:2103  if(compareStrings(countries[i].name , countryName)){\r... */\n    tag_168:\n        /* \"contracts/Test.sol\":1592:1595  i++ */\n      dup1\n      dup1\n      tag_191\n      swap1\n      tag_84\n      jump\t// in\n    tag_191:\n      swap2\n      pop\n      pop\n        /* \"contracts/Test.sol\":1555:2113  for(uint256 i =0; i< totalCountries; i++){\r... */\n      jump(tag_156)\n    tag_157:\n      pop\n        /* \"contracts/Test.sol\":2129:2134  false */\n      0x00\n        /* \"contracts/Test.sol\":2122:2134  return false */\n      swap1\n      pop\n        /* \"contracts/Test.sol\":1428:2141  function deleteCountry(string memory countryName) public returns(bool success){\r... */\n    tag_154:\n      swap2\n      swap1\n      pop\n      jump\t// out\n        /* \"contracts/Test.sol\":2605:2781  function compareStrings (string memory a, string memory b)  internal pure returns (bool){\r... */\n    tag_76:\n        /* \"contracts/Test.sol\":2688:2692  bool */\n      0x00\n        /* \"contracts/Test.sol\":2771:2772  b */\n      dup2\n        /* \"contracts/Test.sol\":2754:2773  abi.encodePacked(b) */\n      add(0x20, mload(0x40))\n      tag_193\n      swap2\n      swap1\n      tag_194\n      jump\t// in\n    tag_193:\n      mload(0x40)\n      0x20\n      dup2\n      dup4\n      sub\n      sub\n      dup2\n      mstore\n      swap1\n      0x40\n      mstore\n        /* \"contracts/Test.sol\":2744:2774  keccak256(abi.encodePacked(b)) */\n      dup1\n      mload\n      swap1\n      0x20\n      add\n      keccak256\n        /* \"contracts/Test.sol\":2737:2738  a */\n      dup4\n        /* \"contracts/Test.sol\":2720:2739  abi.encodePacked(a) */\n      add(0x20, mload(0x40))\n      tag_195\n      swap2\n      swap1\n      tag_194\n      jump\t// in\n    tag_195:\n      mload(0x40)\n      0x20\n      dup2\n      dup4\n      sub\n      sub\n      dup2\n      mstore\n      swap1\n      0x40\n      mstore\n        /* \"contracts/Test.sol\":2710:2740  keccak256(abi.encodePacked(a)) */\n      dup1\n      mload\n      swap1\n      0x20\n      add\n      keccak256\n        /* \"contracts/Test.sol\":2710:2774  keccak256(abi.encodePacked(a)) == keccak256(abi.encodePacked(b)) */\n      eq\n        /* \"contracts/Test.sol\":2703:2774  return keccak256(abi.encodePacked(a)) == keccak256(abi.encodePacked(b)) */\n      swap1\n      pop\n        /* \"contracts/Test.sol\":2605:2781  function compareStrings (string memory a, string memory b)  internal pure returns (bool){\r... */\n      swap3\n      swap2\n      pop\n      pop\n      jump\t// out\n    tag_82:\n      dup3\n      dup1\n      sload\n      tag_196\n      swap1\n      tag_52\n      jump\t// in\n    tag_196:\n      swap1\n      0x00\n      mstore\n      keccak256(0x00, 0x20)\n      swap1\n      0x1f\n      add\n      0x20\n      swap1\n      div\n      dup2\n      add\n      swap3\n      dup3\n      tag_198\n      jumpi\n      0x00\n      dup6\n      sstore\n      jump(tag_197)\n    tag_198:\n      dup3\n      0x1f\n      lt\n      tag_199\n      jumpi\n      dup1\n      mload\n      not(0xff)\n      and\n      dup4\n      dup1\n      add\n      or\n      dup6\n      sstore\n      jump(tag_197)\n    tag_199:\n      dup3\n      dup1\n      add\n      0x01\n      add\n      dup6\n      sstore\n      dup3\n      iszero\n      tag_197\n      jumpi\n      swap2\n      dup3\n      add\n    tag_200:\n      dup3\n      dup2\n      gt\n      iszero\n      tag_201\n      jumpi\n      dup3\n      mload\n      dup3\n      sstore\n      swap2\n      0x20\n      add\n      swap2\n      swap1\n      0x01\n      add\n      swap1\n      jump(tag_200)\n    tag_201:\n    tag_197:\n      pop\n      swap1\n      pop\n      tag_202\n      swap2\n      swap1\n      tag_203\n      jump\t// in\n    tag_202:\n      pop\n      swap1\n      jump\t// out\n    tag_129:\n      mload(0x40)\n      dup1\n      0x60\n      add\n      0x40\n      mstore\n      dup1\n      0x60\n      dup2\n      mstore\n      0x20\n      add\n      0x60\n      dup2\n      mstore\n      0x20\n      add\n      0x00\n      dup2\n      mstore\n      pop\n      swap1\n      jump\t// out\n    tag_179:\n      dup3\n      dup1\n      sload\n      tag_204\n      swap1\n      tag_52\n      jump\t// in\n    tag_204:\n      swap1\n      0x00\n      mstore\n      keccak256(0x00, 0x20)\n      swap1\n      0x1f\n      add\n      0x20\n      swap1\n      div\n      dup2\n      add\n      swap3\n      dup3\n      tag_206\n      jumpi\n      0x00\n      dup6\n      sstore\n      jump(tag_205)\n    tag_206:\n      dup3\n      0x1f\n      lt\n      tag_207\n      jumpi\n      dup1\n      sload\n      dup6\n      sstore\n      jump(tag_205)\n    tag_207:\n      dup3\n      dup1\n      add\n      0x01\n      add\n      dup6\n      sstore\n      dup3\n      iszero\n      tag_205\n      jumpi\n      0x00\n      mstore\n      keccak256(0x00, 0x20)\n      swap2\n      0x1f\n      add\n      0x20\n      swap1\n      div\n      dup3\n      add\n    tag_208:\n      dup3\n      dup2\n      gt\n      iszero\n      tag_209\n      jumpi\n      dup3\n      sload\n      dup3\n      sstore\n      swap2\n      0x01\n      add\n      swap2\n      swap1\n      0x01\n      add\n      swap1\n      jump(tag_208)\n    tag_209:\n    tag_205:\n      pop\n      swap1\n      pop\n      tag_210\n      swap2\n      swap1\n      tag_203\n      jump\t// in\n    tag_210:\n      pop\n      swap1\n      jump\t// out\n    tag_187:\n      pop\n      dup1\n      sload\n      tag_211\n      swap1\n      tag_52\n      jump\t// in\n    tag_211:\n      0x00\n      dup3\n      sstore\n      dup1\n      0x1f\n      lt\n      tag_213\n      jumpi\n      pop\n      jump(tag_212)\n    tag_213:\n      0x1f\n      add\n      0x20\n      swap1\n      div\n      swap1\n      0x00\n      mstore\n      keccak256(0x00, 0x20)\n      swap1\n      dup2\n      add\n      swap1\n      tag_214\n      swap2\n      swap1\n      tag_203\n      jump\t// in\n    tag_214:\n    tag_212:\n      pop\n      jump\t// out\n    tag_203:\n    tag_215:\n      dup1\n      dup3\n      gt\n      iszero\n      tag_216\n      jumpi\n      0x00\n      dup2\n      0x00\n      swap1\n      sstore\n      pop\n      0x01\n      add\n      jump(tag_215)\n    tag_216:\n      pop\n      swap1\n      jump\t// out\n        /* \"#utility.yul\":7:419   */\n    tag_218:\n        /* \"#utility.yul\":85:90   */\n      0x00\n        /* \"#utility.yul\":110:176   */\n      tag_220\n        /* \"#utility.yul\":126:175   */\n      tag_221\n        /* \"#utility.yul\":168:174   */\n      dup5\n        /* \"#utility.yul\":126:175   */\n      tag_222\n      jump\t// in\n    tag_221:\n        /* \"#utility.yul\":110:176   */\n      tag_223\n      jump\t// in\n    tag_220:\n        /* \"#utility.yul\":101:176   */\n      swap1\n      pop\n        /* \"#utility.yul\":199:205   */\n      dup3\n        /* \"#utility.yul\":192:197   */\n      dup2\n        /* \"#utility.yul\":185:206   */\n      mstore\n        /* \"#utility.yul\":237:241   */\n      0x20\n        /* \"#utility.yul\":230:235   */\n      dup2\n        /* \"#utility.yul\":226:242   */\n      add\n        /* \"#utility.yul\":275:278   */\n      dup5\n        /* \"#utility.yul\":266:272   */\n      dup5\n        /* \"#utility.yul\":261:264   */\n      dup5\n        /* \"#utility.yul\":257:273   */\n      add\n        /* \"#utility.yul\":254:279   */\n      gt\n        /* \"#utility.yul\":251:363   */\n      iszero\n      tag_224\n      jumpi\n        /* \"#utility.yul\":282:361   */\n      tag_225\n      tag_226\n      jump\t// in\n    tag_225:\n        /* \"#utility.yul\":251:363   */\n    tag_224:\n        /* \"#utility.yul\":372:413   */\n      tag_227\n        /* \"#utility.yul\":406:412   */\n      dup5\n        /* \"#utility.yul\":401:404   */\n      dup3\n        /* \"#utility.yul\":396:399   */\n      dup6\n        /* \"#utility.yul\":372:413   */\n      tag_228\n      jump\t// in\n    tag_227:\n        /* \"#utility.yul\":91:419   */\n      pop\n        /* \"#utility.yul\":7:419   */\n      swap4\n      swap3\n      pop\n      pop\n      pop\n      jump\t// out\n        /* \"#utility.yul\":439:779   */\n    tag_229:\n        /* \"#utility.yul\":495:500   */\n      0x00\n        /* \"#utility.yul\":544:547   */\n      dup3\n        /* \"#utility.yul\":537:541   */\n      0x1f\n        /* \"#utility.yul\":529:535   */\n      dup4\n        /* \"#utility.yul\":525:542   */\n      add\n        /* \"#utility.yul\":521:548   */\n      slt\n        /* \"#utility.yul\":511:633   */\n      tag_231\n      jumpi\n        /* \"#utility.yul\":552:631   */\n      tag_232\n      tag_233\n      jump\t// in\n    tag_232:\n        /* \"#utility.yul\":511:633   */\n    tag_231:\n        /* \"#utility.yul\":669:675   */\n      dup2\n        /* \"#utility.yul\":656:676   */\n      calldataload\n        /* \"#utility.yul\":694:773   */\n      tag_234\n        /* \"#utility.yul\":769:772   */\n      dup5\n        /* \"#utility.yul\":761:767   */\n      dup3\n        /* \"#utility.yul\":754:758   */\n      0x20\n        /* \"#utility.yul\":746:752   */\n      dup7\n        /* \"#utility.yul\":742:759   */\n      add\n        /* \"#utility.yul\":694:773   */\n      tag_218\n      jump\t// in\n    tag_234:\n        /* \"#utility.yul\":685:773   */\n      swap2\n      pop\n        /* \"#utility.yul\":501:779   */\n      pop\n        /* \"#utility.yul\":439:779   */\n      swap3\n      swap2\n      pop\n      pop\n      jump\t// out\n        /* \"#utility.yul\":785:924   */\n    tag_235:\n        /* \"#utility.yul\":831:836   */\n      0x00\n        /* \"#utility.yul\":869:875   */\n      dup2\n        /* \"#utility.yul\":856:876   */\n      calldataload\n        /* \"#utility.yul\":847:876   */\n      swap1\n      pop\n        /* \"#utility.yul\":885:918   */\n      tag_237\n        /* \"#utility.yul\":912:917   */\n      dup2\n        /* \"#utility.yul\":885:918   */\n      tag_238\n      jump\t// in\n    tag_237:\n        /* \"#utility.yul\":785:924   */\n      swap3\n      swap2\n      pop\n      pop\n      jump\t// out\n        /* \"#utility.yul\":930:1439   */\n    tag_30:\n        /* \"#utility.yul\":999:1005   */\n      0x00\n        /* \"#utility.yul\":1048:1050   */\n      0x20\n        /* \"#utility.yul\":1036:1045   */\n      dup3\n        /* \"#utility.yul\":1027:1034   */\n      dup5\n        /* \"#utility.yul\":1023:1046   */\n      sub\n        /* \"#utility.yul\":1019:1051   */\n      slt\n        /* \"#utility.yul\":1016:1135   */\n      iszero\n      tag_240\n      jumpi\n        /* \"#utility.yul\":1054:1133   */\n      tag_241\n      tag_242\n      jump\t// in\n    tag_241:\n        /* \"#utility.yul\":1016:1135   */\n    tag_240:\n        /* \"#utility.yul\":1202:1203   */\n      0x00\n        /* \"#utility.yul\":1191:1200   */\n      dup3\n        /* \"#utility.yul\":1187:1204   */\n      add\n        /* \"#utility.yul\":1174:1205   */\n      calldataload\n        /* \"#utility.yul\":1232:1250   */\n      0xffffffffffffffff\n        /* \"#utility.yul\":1224:1230   */\n      dup2\n        /* \"#utility.yul\":1221:1251   */\n      gt\n        /* \"#utility.yul\":1218:1335   */\n      iszero\n      tag_243\n      jumpi\n        /* \"#utility.yul\":1254:1333   */\n      tag_244\n      tag_245\n      jump\t// in\n    tag_244:\n        /* \"#utility.yul\":1218:1335   */\n    tag_243:\n        /* \"#utility.yul\":1359:1422   */\n      tag_246\n        /* \"#utility.yul\":1414:1421   */\n      dup5\n        /* \"#utility.yul\":1405:1411   */\n      dup3\n        /* \"#utility.yul\":1394:1403   */\n      dup6\n        /* \"#utility.yul\":1390:1412   */\n      add\n        /* \"#utility.yul\":1359:1422   */\n      tag_229\n      jump\t// in\n    tag_246:\n        /* \"#utility.yul\":1349:1422   */\n      swap2\n      pop\n        /* \"#utility.yul\":1145:1432   */\n      pop\n        /* \"#utility.yul\":930:1439   */\n      swap3\n      swap2\n      pop\n      pop\n      jump\t// out\n        /* \"#utility.yul\":1445:2279   */\n    tag_24:\n        /* \"#utility.yul\":1533:1539   */\n      0x00\n        /* \"#utility.yul\":1541:1547   */\n      dup1\n        /* \"#utility.yul\":1590:1592   */\n      0x40\n        /* \"#utility.yul\":1578:1587   */\n      dup4\n        /* \"#utility.yul\":1569:1576   */\n      dup6\n        /* \"#utility.yul\":1565:1588   */\n      sub\n        /* \"#utility.yul\":1561:1593   */\n      slt\n        /* \"#utility.yul\":1558:1677   */\n      iszero\n      tag_248\n      jumpi\n        /* \"#utility.yul\":1596:1675   */\n      tag_249\n      tag_242\n      jump\t// in\n    tag_249:\n        /* \"#utility.yul\":1558:1677   */\n    tag_248:\n        /* \"#utility.yul\":1744:1745   */\n      0x00\n        /* \"#utility.yul\":1733:1742   */\n      dup4\n        /* \"#utility.yul\":1729:1746   */\n      add\n        /* \"#utility.yul\":1716:1747   */\n      calldataload\n        /* \"#utility.yul\":1774:1792   */\n      0xffffffffffffffff\n        /* \"#utility.yul\":1766:1772   */\n      dup2\n        /* \"#utility.yul\":1763:1793   */\n      gt\n        /* \"#utility.yul\":1760:1877   */\n      iszero\n      tag_250\n      jumpi\n        /* \"#utility.yul\":1796:1875   */\n      tag_251\n      tag_245\n      jump\t// in\n    tag_251:\n        /* \"#utility.yul\":1760:1877   */\n    tag_250:\n        /* \"#utility.yul\":1901:1964   */\n      tag_252\n        /* \"#utility.yul\":1956:1963   */\n      dup6\n        /* \"#utility.yul\":1947:1953   */\n      dup3\n        /* \"#utility.yul\":1936:1945   */\n      dup7\n        /* \"#utility.yul\":1932:1954   */\n      add\n        /* \"#utility.yul\":1901:1964   */\n      tag_229\n      jump\t// in\n    tag_252:\n        /* \"#utility.yul\":1891:1964   */\n      swap3\n      pop\n        /* \"#utility.yul\":1687:1974   */\n      pop\n        /* \"#utility.yul\":2041:2043   */\n      0x20\n        /* \"#utility.yul\":2030:2039   */\n      dup4\n        /* \"#utility.yul\":2026:2044   */\n      add\n        /* \"#utility.yul\":2013:2045   */\n      calldataload\n        /* \"#utility.yul\":2072:2090   */\n      0xffffffffffffffff\n        /* \"#utility.yul\":2064:2070   */\n      dup2\n        /* \"#utility.yul\":2061:2091   */\n      gt\n        /* \"#utility.yul\":2058:2175   */\n      iszero\n      tag_253\n      jumpi\n        /* \"#utility.yul\":2094:2173   */\n      tag_254\n      tag_245\n      jump\t// in\n    tag_254:\n        /* \"#utility.yul\":2058:2175   */\n    tag_253:\n        /* \"#utility.yul\":2199:2262   */\n      tag_255\n        /* \"#utility.yul\":2254:2261   */\n      dup6\n        /* \"#utility.yul\":2245:2251   */\n      dup3\n        /* \"#utility.yul\":2234:2243   */\n      dup7\n        /* \"#utility.yul\":2230:2252   */\n      add\n        /* \"#utility.yul\":2199:2262   */\n      tag_229\n      jump\t// in\n    tag_255:\n        /* \"#utility.yul\":2189:2262   */\n      swap2\n      pop\n        /* \"#utility.yul\":1984:2272   */\n      pop\n        /* \"#utility.yul\":1445:2279   */\n      swap3\n      pop\n      swap3\n      swap1\n      pop\n      jump\t// out\n        /* \"#utility.yul\":2285:3264   */\n    tag_42:\n        /* \"#utility.yul\":2382:2388   */\n      0x00\n        /* \"#utility.yul\":2390:2396   */\n      dup1\n        /* \"#utility.yul\":2398:2404   */\n      0x00\n        /* \"#utility.yul\":2447:2449   */\n      0x60\n        /* \"#utility.yul\":2435:2444   */\n      dup5\n        /* \"#utility.yul\":2426:2433   */\n      dup7\n        /* \"#utility.yul\":2422:2445   */\n      sub\n        /* \"#utility.yul\":2418:2450   */\n      slt\n        /* \"#utility.yul\":2415:2534   */\n      iszero\n      tag_257\n      jumpi\n        /* \"#utility.yul\":2453:2532   */\n      tag_258\n      tag_242\n      jump\t// in\n    tag_258:\n        /* \"#utility.yul\":2415:2534   */\n    tag_257:\n        /* \"#utility.yul\":2601:2602   */\n      0x00\n        /* \"#utility.yul\":2590:2599   */\n      dup5\n        /* \"#utility.yul\":2586:2603   */\n      add\n        /* \"#utility.yul\":2573:2604   */\n      calldataload\n        /* \"#utility.yul\":2631:2649   */\n      0xffffffffffffffff\n        /* \"#utility.yul\":2623:2629   */\n      dup2\n        /* \"#utility.yul\":2620:2650   */\n      gt\n        /* \"#utility.yul\":2617:2734   */\n      iszero\n      tag_259\n      jumpi\n        /* \"#utility.yul\":2653:2732   */\n      tag_260\n      tag_245\n      jump\t// in\n    tag_260:\n        /* \"#utility.yul\":2617:2734   */\n    tag_259:\n        /* \"#utility.yul\":2758:2821   */\n      tag_261\n        /* \"#utility.yul\":2813:2820   */\n      dup7\n        /* \"#utility.yul\":2804:2810   */\n      dup3\n        /* \"#utility.yul\":2793:2802   */\n      dup8\n        /* \"#utility.yul\":2789:2811   */\n      add\n        /* \"#utility.yul\":2758:2821   */\n      tag_229\n      jump\t// in\n    tag_261:\n        /* \"#utility.yul\":2748:2821   */\n      swap4\n      pop\n        /* \"#utility.yul\":2544:2831   */\n      pop\n        /* \"#utility.yul\":2898:2900   */\n      0x20\n        /* \"#utility.yul\":2887:2896   */\n      dup5\n        /* \"#utility.yul\":2883:2901   */\n      add\n        /* \"#utility.yul\":2870:2902   */\n      calldataload\n        /* \"#utility.yul\":2929:2947   */\n      0xffffffffffffffff\n        /* \"#utility.yul\":2921:2927   */\n      dup2\n        /* \"#utility.yul\":2918:2948   */\n      gt\n        /* \"#utility.yul\":2915:3032   */\n      iszero\n      tag_262\n      jumpi\n        /* \"#utility.yul\":2951:3030   */\n      tag_263\n      tag_245\n      jump\t// in\n    tag_263:\n        /* \"#utility.yul\":2915:3032   */\n    tag_262:\n        /* \"#utility.yul\":3056:3119   */\n      tag_264\n        /* \"#utility.yul\":3111:3118   */\n      dup7\n        /* \"#utility.yul\":3102:3108   */\n      dup3\n        /* \"#utility.yul\":3091:3100   */\n      dup8\n        /* \"#utility.yul\":3087:3109   */\n      add\n        /* \"#utility.yul\":3056:3119   */\n      tag_229\n      jump\t// in\n    tag_264:\n        /* \"#utility.yul\":3046:3119   */\n      swap3\n      pop\n        /* \"#utility.yul\":2841:3129   */\n      pop\n        /* \"#utility.yul\":3168:3170   */\n      0x40\n        /* \"#utility.yul\":3194:3247   */\n      tag_265\n        /* \"#utility.yul\":3239:3246   */\n      dup7\n        /* \"#utility.yul\":3230:3236   */\n      dup3\n        /* \"#utility.yul\":3219:3228   */\n      dup8\n        /* \"#utility.yul\":3215:3237   */\n      add\n        /* \"#utility.yul\":3194:3247   */\n      tag_235\n      jump\t// in\n    tag_265:\n        /* \"#utility.yul\":3184:3247   */\n      swap2\n      pop\n        /* \"#utility.yul\":3139:3257   */\n      pop\n        /* \"#utility.yul\":2285:3264   */\n      swap3\n      pop\n      swap3\n      pop\n      swap3\n      jump\t// out\n        /* \"#utility.yul\":3270:3599   */\n    tag_14:\n        /* \"#utility.yul\":3329:3335   */\n      0x00\n        /* \"#utility.yul\":3378:3380   */\n      0x20\n        /* \"#utility.yul\":3366:3375   */\n      dup3\n        /* \"#utility.yul\":3357:3364   */\n      dup5\n        /* \"#utility.yul\":3353:3376   */\n      sub\n        /* \"#utility.yul\":3349:3381   */\n      slt\n        /* \"#utility.yul\":3346:3465   */\n      iszero\n      tag_267\n      jumpi\n        /* \"#utility.yul\":3384:3463   */\n      tag_268\n      tag_242\n      jump\t// in\n    tag_268:\n        /* \"#utility.yul\":3346:3465   */\n    tag_267:\n        /* \"#utility.yul\":3504:3505   */\n      0x00\n        /* \"#utility.yul\":3529:3582   */\n      tag_269\n        /* \"#utility.yul\":3574:3581   */\n      dup5\n        /* \"#utility.yul\":3565:3571   */\n      dup3\n        /* \"#utility.yul\":3554:3563   */\n      dup6\n        /* \"#utility.yul\":3550:3572   */\n      add\n        /* \"#utility.yul\":3529:3582   */\n      tag_235\n      jump\t// in\n    tag_269:\n        /* \"#utility.yul\":3519:3582   */\n      swap2\n      pop\n        /* \"#utility.yul\":3475:3592   */\n      pop\n        /* \"#utility.yul\":3270:3599   */\n      swap3\n      swap2\n      pop\n      pop\n      jump\t// out\n        /* \"#utility.yul\":3605:3849   */\n    tag_270:\n        /* \"#utility.yul\":3718:3728   */\n      0x00\n        /* \"#utility.yul\":3753:3843   */\n      tag_272\n        /* \"#utility.yul\":3839:3842   */\n      dup4\n        /* \"#utility.yul\":3831:3837   */\n      dup4\n        /* \"#utility.yul\":3753:3843   */\n      tag_273\n      jump\t// in\n    tag_272:\n        /* \"#utility.yul\":3739:3843   */\n      swap1\n      pop\n        /* \"#utility.yul\":3605:3849   */\n      swap3\n      swap2\n      pop\n      pop\n      jump\t// out\n        /* \"#utility.yul\":3915:5002   */\n    tag_274:\n        /* \"#utility.yul\":4078:4081   */\n      0x00\n        /* \"#utility.yul\":4107:4183   */\n      tag_276\n        /* \"#utility.yul\":4177:4182   */\n      dup3\n        /* \"#utility.yul\":4107:4183   */\n      tag_277\n      jump\t// in\n    tag_276:\n        /* \"#utility.yul\":4199:4307   */\n      tag_278\n        /* \"#utility.yul\":4300:4306   */\n      dup2\n        /* \"#utility.yul\":4295:4298   */\n      dup6\n        /* \"#utility.yul\":4199:4307   */\n      tag_279\n      jump\t// in\n    tag_278:\n        /* \"#utility.yul\":4192:4307   */\n      swap4\n      pop\n        /* \"#utility.yul\":4333:4336   */\n      dup4\n        /* \"#utility.yul\":4378:4382   */\n      0x20\n        /* \"#utility.yul\":4370:4376   */\n      dup3\n        /* \"#utility.yul\":4366:4383   */\n      mul\n        /* \"#utility.yul\":4361:4364   */\n      dup6\n        /* \"#utility.yul\":4357:4384   */\n      add\n        /* \"#utility.yul\":4408:4486   */\n      tag_280\n        /* \"#utility.yul\":4480:4485   */\n      dup6\n        /* \"#utility.yul\":4408:4486   */\n      tag_281\n      jump\t// in\n    tag_280:\n        /* \"#utility.yul\":4509:4516   */\n      dup1\n        /* \"#utility.yul\":4540:4541   */\n      0x00\n        /* \"#utility.yul\":4525:4957   */\n    tag_282:\n        /* \"#utility.yul\":4550:4556   */\n      dup6\n        /* \"#utility.yul\":4547:4548   */\n      dup2\n        /* \"#utility.yul\":4544:4557   */\n      lt\n        /* \"#utility.yul\":4525:4957   */\n      iszero\n      tag_284\n      jumpi\n        /* \"#utility.yul\":4621:4630   */\n      dup5\n        /* \"#utility.yul\":4615:4619   */\n      dup5\n        /* \"#utility.yul\":4611:4631   */\n      sub\n        /* \"#utility.yul\":4606:4609   */\n      dup10\n        /* \"#utility.yul\":4599:4632   */\n      mstore\n        /* \"#utility.yul\":4672:4678   */\n      dup2\n        /* \"#utility.yul\":4666:4679   */\n      mload\n        /* \"#utility.yul\":4700:4808   */\n      tag_285\n        /* \"#utility.yul\":4803:4807   */\n      dup6\n        /* \"#utility.yul\":4788:4801   */\n      dup3\n        /* \"#utility.yul\":4700:4808   */\n      tag_270\n      jump\t// in\n    tag_285:\n        /* \"#utility.yul\":4692:4808   */\n      swap5\n      pop\n        /* \"#utility.yul\":4831:4913   */\n      tag_286\n        /* \"#utility.yul\":4906:4912   */\n      dup4\n        /* \"#utility.yul\":4831:4913   */\n      tag_287\n      jump\t// in\n    tag_286:\n        /* \"#utility.yul\":4821:4913   */\n      swap3\n      pop\n        /* \"#utility.yul\":4942:4946   */\n      0x20\n        /* \"#utility.yul\":4937:4940   */\n      dup11\n        /* \"#utility.yul\":4933:4947   */\n      add\n        /* \"#utility.yul\":4926:4947   */\n      swap10\n      pop\n        /* \"#utility.yul\":4585:4957   */\n      pop\n        /* \"#utility.yul\":4572:4573   */\n      0x01\n        /* \"#utility.yul\":4569:4570   */\n      dup2\n        /* \"#utility.yul\":4565:4574   */\n      add\n        /* \"#utility.yul\":4560:4574   */\n      swap1\n      pop\n        /* \"#utility.yul\":4525:4957   */\n      jump(tag_282)\n    tag_284:\n        /* \"#utility.yul\":4529:4543   */\n      pop\n        /* \"#utility.yul\":4973:4977   */\n      dup3\n        /* \"#utility.yul\":4966:4977   */\n      swap8\n      pop\n        /* \"#utility.yul\":4993:4996   */\n      dup8\n        /* \"#utility.yul\":4986:4996   */\n      swap6\n      pop\n        /* \"#utility.yul\":4083:5002   */\n      pop\n      pop\n      pop\n      pop\n      pop\n        /* \"#utility.yul\":3915:5002   */\n      swap3\n      swap2\n      pop\n      pop\n      jump\t// out\n        /* \"#utility.yul\":5008:5117   */\n    tag_288:\n        /* \"#utility.yul\":5089:5110   */\n      tag_290\n        /* \"#utility.yul\":5104:5109   */\n      dup2\n        /* \"#utility.yul\":5089:5110   */\n      tag_291\n      jump\t// in\n    tag_290:\n        /* \"#utility.yul\":5084:5087   */\n      dup3\n        /* \"#utility.yul\":5077:5111   */\n      mstore\n        /* \"#utility.yul\":5008:5117   */\n      pop\n      pop\n      jump\t// out\n        /* \"#utility.yul\":5123:5467   */\n    tag_292:\n        /* \"#utility.yul\":5201:5204   */\n      0x00\n        /* \"#utility.yul\":5229:5268   */\n      tag_294\n        /* \"#utility.yul\":5262:5267   */\n      dup3\n        /* \"#utility.yul\":5229:5268   */\n      tag_295\n      jump\t// in\n    tag_294:\n        /* \"#utility.yul\":5284:5345   */\n      tag_296\n        /* \"#utility.yul\":5338:5344   */\n      dup2\n        /* \"#utility.yul\":5333:5336   */\n      dup6\n        /* \"#utility.yul\":5284:5345   */\n      tag_297\n      jump\t// in\n    tag_296:\n        /* \"#utility.yul\":5277:5345   */\n      swap4\n      pop\n        /* \"#utility.yul\":5354:5406   */\n      tag_298\n        /* \"#utility.yul\":5399:5405   */\n      dup2\n        /* \"#utility.yul\":5394:5397   */\n      dup6\n        /* \"#utility.yul\":5387:5391   */\n      0x20\n        /* \"#utility.yul\":5380:5385   */\n      dup7\n        /* \"#utility.yul\":5376:5392   */\n      add\n        /* \"#utility.yul\":5354:5406   */\n      tag_299\n      jump\t// in\n    tag_298:\n        /* \"#utility.yul\":5431:5460   */\n      tag_300\n        /* \"#utility.yul\":5453:5459   */\n      dup2\n        /* \"#utility.yul\":5431:5460   */\n      tag_301\n      jump\t// in\n    tag_300:\n        /* \"#utility.yul\":5426:5429   */\n      dup5\n        /* \"#utility.yul\":5422:5461   */\n      add\n        /* \"#utility.yul\":5415:5461   */\n      swap2\n      pop\n        /* \"#utility.yul\":5205:5467   */\n      pop\n        /* \"#utility.yul\":5123:5467   */\n      swap3\n      swap2\n      pop\n      pop\n      jump\t// out\n        /* \"#utility.yul\":5473:5837   */\n    tag_302:\n        /* \"#utility.yul\":5561:5564   */\n      0x00\n        /* \"#utility.yul\":5589:5628   */\n      tag_304\n        /* \"#utility.yul\":5622:5627   */\n      dup3\n        /* \"#utility.yul\":5589:5628   */\n      tag_295\n      jump\t// in\n    tag_304:\n        /* \"#utility.yul\":5644:5715   */\n      tag_305\n        /* \"#utility.yul\":5708:5714   */\n      dup2\n        /* \"#utility.yul\":5703:5706   */\n      dup6\n        /* \"#utility.yul\":5644:5715   */\n      tag_306\n      jump\t// in\n    tag_305:\n        /* \"#utility.yul\":5637:5715   */\n      swap4\n      pop\n        /* \"#utility.yul\":5724:5776   */\n      tag_307\n        /* \"#utility.yul\":5769:5775   */\n      dup2\n        /* \"#utility.yul\":5764:5767   */\n      dup6\n        /* \"#utility.yul\":5757:5761   */\n      0x20\n        /* \"#utility.yul\":5750:5755   */\n      dup7\n        /* \"#utility.yul\":5746:5762   */\n      add\n        /* \"#utility.yul\":5724:5776   */\n      tag_299\n      jump\t// in\n    tag_307:\n        /* \"#utility.yul\":5801:5830   */\n      tag_308\n        /* \"#utility.yul\":5823:5829   */\n      dup2\n        /* \"#utility.yul\":5801:5830   */\n      tag_301\n      jump\t// in\n    tag_308:\n        /* \"#utility.yul\":5796:5799   */\n      dup5\n        /* \"#utility.yul\":5792:5831   */\n      add\n        /* \"#utility.yul\":5785:5831   */\n      swap2\n      pop\n        /* \"#utility.yul\":5565:5837   */\n      pop\n        /* \"#utility.yul\":5473:5837   */\n      swap3\n      swap2\n      pop\n      pop\n      jump\t// out\n        /* \"#utility.yul\":5843:6220   */\n    tag_309:\n        /* \"#utility.yul\":5949:5952   */\n      0x00\n        /* \"#utility.yul\":5977:6016   */\n      tag_311\n        /* \"#utility.yul\":6010:6015   */\n      dup3\n        /* \"#utility.yul\":5977:6016   */\n      tag_295\n      jump\t// in\n    tag_311:\n        /* \"#utility.yul\":6032:6121   */\n      tag_312\n        /* \"#utility.yul\":6114:6120   */\n      dup2\n        /* \"#utility.yul\":6109:6112   */\n      dup6\n        /* \"#utility.yul\":6032:6121   */\n      tag_313\n      jump\t// in\n    tag_312:\n        /* \"#utility.yul\":6025:6121   */\n      swap4\n      pop\n        /* \"#utility.yul\":6130:6182   */\n      tag_314\n        /* \"#utility.yul\":6175:6181   */\n      dup2\n        /* \"#utility.yul\":6170:6173   */\n      dup6\n        /* \"#utility.yul\":6163:6167   */\n      0x20\n        /* \"#utility.yul\":6156:6161   */\n      dup7\n        /* \"#utility.yul\":6152:6168   */\n      add\n        /* \"#utility.yul\":6130:6182   */\n      tag_299\n      jump\t// in\n    tag_314:\n        /* \"#utility.yul\":6207:6213   */\n      dup1\n        /* \"#utility.yul\":6202:6205   */\n      dup5\n        /* \"#utility.yul\":6198:6214   */\n      add\n        /* \"#utility.yul\":6191:6214   */\n      swap2\n      pop\n        /* \"#utility.yul\":5953:6220   */\n      pop\n        /* \"#utility.yul\":5843:6220   */\n      swap3\n      swap2\n      pop\n      pop\n      jump\t// out\n        /* \"#utility.yul\":6226:6592   */\n    tag_315:\n        /* \"#utility.yul\":6368:6371   */\n      0x00\n        /* \"#utility.yul\":6389:6456   */\n      tag_317\n        /* \"#utility.yul\":6453:6455   */\n      0x11\n        /* \"#utility.yul\":6448:6451   */\n      dup4\n        /* \"#utility.yul\":6389:6456   */\n      tag_306\n      jump\t// in\n    tag_317:\n        /* \"#utility.yul\":6382:6456   */\n      swap2\n      pop\n        /* \"#utility.yul\":6465:6558   */\n      tag_318\n        /* \"#utility.yul\":6554:6557   */\n      dup3\n        /* \"#utility.yul\":6465:6558   */\n      tag_319\n      jump\t// in\n    tag_318:\n        /* \"#utility.yul\":6583:6585   */\n      0x20\n        /* \"#utility.yul\":6578:6581   */\n      dup3\n        /* \"#utility.yul\":6574:6586   */\n      add\n        /* \"#utility.yul\":6567:6586   */\n      swap1\n      pop\n        /* \"#utility.yul\":6226:6592   */\n      swap2\n      swap1\n      pop\n      jump\t// out\n        /* \"#utility.yul\":6654:7497   */\n    tag_273:\n        /* \"#utility.yul\":6757:6760   */\n      0x00\n        /* \"#utility.yul\":6793:6797   */\n      0x60\n        /* \"#utility.yul\":6788:6791   */\n      dup4\n        /* \"#utility.yul\":6784:6798   */\n      add\n        /* \"#utility.yul\":6880:6884   */\n      0x00\n        /* \"#utility.yul\":6873:6878   */\n      dup4\n        /* \"#utility.yul\":6869:6885   */\n      add\n        /* \"#utility.yul\":6863:6886   */\n      mload\n        /* \"#utility.yul\":6933:6936   */\n      dup5\n        /* \"#utility.yul\":6927:6931   */\n      dup3\n        /* \"#utility.yul\":6923:6937   */\n      sub\n        /* \"#utility.yul\":6916:6920   */\n      0x00\n        /* \"#utility.yul\":6911:6914   */\n      dup7\n        /* \"#utility.yul\":6907:6921   */\n      add\n        /* \"#utility.yul\":6900:6938   */\n      mstore\n        /* \"#utility.yul\":6959:7032   */\n      tag_321\n        /* \"#utility.yul\":7027:7031   */\n      dup3\n        /* \"#utility.yul\":7013:7025   */\n      dup3\n        /* \"#utility.yul\":6959:7032   */\n      tag_292\n      jump\t// in\n    tag_321:\n        /* \"#utility.yul\":6951:7032   */\n      swap2\n      pop\n        /* \"#utility.yul\":6808:7043   */\n      pop\n        /* \"#utility.yul\":7127:7131   */\n      0x20\n        /* \"#utility.yul\":7120:7125   */\n      dup4\n        /* \"#utility.yul\":7116:7132   */\n      add\n        /* \"#utility.yul\":7110:7133   */\n      mload\n        /* \"#utility.yul\":7180:7183   */\n      dup5\n        /* \"#utility.yul\":7174:7178   */\n      dup3\n        /* \"#utility.yul\":7170:7184   */\n      sub\n        /* \"#utility.yul\":7163:7167   */\n      0x20\n        /* \"#utility.yul\":7158:7161   */\n      dup7\n        /* \"#utility.yul\":7154:7168   */\n      add\n        /* \"#utility.yul\":7147:7185   */\n      mstore\n        /* \"#utility.yul\":7206:7279   */\n      tag_322\n        /* \"#utility.yul\":7274:7278   */\n      dup3\n        /* \"#utility.yul\":7260:7272   */\n      dup3\n        /* \"#utility.yul\":7206:7279   */\n      tag_292\n      jump\t// in\n    tag_322:\n        /* \"#utility.yul\":7198:7279   */\n      swap2\n      pop\n        /* \"#utility.yul\":7053:7290   */\n      pop\n        /* \"#utility.yul\":7378:7382   */\n      0x40\n        /* \"#utility.yul\":7371:7376   */\n      dup4\n        /* \"#utility.yul\":7367:7383   */\n      add\n        /* \"#utility.yul\":7361:7384   */\n      mload\n        /* \"#utility.yul\":7397:7460   */\n      tag_323\n        /* \"#utility.yul\":7454:7458   */\n      0x40\n        /* \"#utility.yul\":7449:7452   */\n      dup7\n        /* \"#utility.yul\":7445:7459   */\n      add\n        /* \"#utility.yul\":7431:7443   */\n      dup3\n        /* \"#utility.yul\":7397:7460   */\n      tag_324\n      jump\t// in\n    tag_323:\n        /* \"#utility.yul\":7300:7470   */\n      pop\n        /* \"#utility.yul\":7487:7491   */\n      dup1\n        /* \"#utility.yul\":7480:7491   */\n      swap2\n      pop\n        /* \"#utility.yul\":6762:7497   */\n      pop\n        /* \"#utility.yul\":6654:7497   */\n      swap3\n      swap2\n      pop\n      pop\n      jump\t// out\n        /* \"#utility.yul\":7503:7611   */\n    tag_324:\n        /* \"#utility.yul\":7580:7604   */\n      tag_326\n        /* \"#utility.yul\":7598:7603   */\n      dup2\n        /* \"#utility.yul\":7580:7604   */\n      tag_327\n      jump\t// in\n    tag_326:\n        /* \"#utility.yul\":7575:7578   */\n      dup3\n        /* \"#utility.yul\":7568:7605   */\n      mstore\n        /* \"#utility.yul\":7503:7611   */\n      pop\n      pop\n      jump\t// out\n        /* \"#utility.yul\":7617:7735   */\n    tag_328:\n        /* \"#utility.yul\":7704:7728   */\n      tag_330\n        /* \"#utility.yul\":7722:7727   */\n      dup2\n        /* \"#utility.yul\":7704:7728   */\n      tag_327\n      jump\t// in\n    tag_330:\n        /* \"#utility.yul\":7699:7702   */\n      dup3\n        /* \"#utility.yul\":7692:7729   */\n      mstore\n        /* \"#utility.yul\":7617:7735   */\n      pop\n      pop\n      jump\t// out\n        /* \"#utility.yul\":7741:8016   */\n    tag_194:\n        /* \"#utility.yul\":7873:7876   */\n      0x00\n        /* \"#utility.yul\":7895:7990   */\n      tag_332\n        /* \"#utility.yul\":7986:7989   */\n      dup3\n        /* \"#utility.yul\":7977:7983   */\n      dup5\n        /* \"#utility.yul\":7895:7990   */\n      tag_309\n      jump\t// in\n    tag_332:\n        /* \"#utility.yul\":7888:7990   */\n      swap2\n      pop\n        /* \"#utility.yul\":8007:8010   */\n      dup2\n        /* \"#utility.yul\":8000:8010   */\n      swap1\n      pop\n        /* \"#utility.yul\":7741:8016   */\n      swap3\n      swap2\n      pop\n      pop\n      jump\t// out\n        /* \"#utility.yul\":8022:8483   */\n    tag_39:\n        /* \"#utility.yul\":8209:8213   */\n      0x00\n        /* \"#utility.yul\":8247:8249   */\n      0x20\n        /* \"#utility.yul\":8236:8245   */\n      dup3\n        /* \"#utility.yul\":8232:8250   */\n      add\n        /* \"#utility.yul\":8224:8250   */\n      swap1\n      pop\n        /* \"#utility.yul\":8296:8305   */\n      dup2\n        /* \"#utility.yul\":8290:8294   */\n      dup2\n        /* \"#utility.yul\":8286:8306   */\n      sub\n        /* \"#utility.yul\":8282:8283   */\n      0x00\n        /* \"#utility.yul\":8271:8280   */\n      dup4\n        /* \"#utility.yul\":8267:8284   */\n      add\n        /* \"#utility.yul\":8260:8307   */\n      mstore\n        /* \"#utility.yul\":8324:8476   */\n      tag_334\n        /* \"#utility.yul\":8471:8475   */\n      dup2\n        /* \"#utility.yul\":8462:8468   */\n      dup5\n        /* \"#utility.yul\":8324:8476   */\n      tag_274\n      jump\t// in\n    tag_334:\n        /* \"#utility.yul\":8316:8476   */\n      swap1\n      pop\n        /* \"#utility.yul\":8022:8483   */\n      swap3\n      swap2\n      pop\n      pop\n      jump\t// out\n        /* \"#utility.yul\":8489:8699   */\n    tag_27:\n        /* \"#utility.yul\":8576:8580   */\n      0x00\n        /* \"#utility.yul\":8614:8616   */\n      0x20\n        /* \"#utility.yul\":8603:8612   */\n      dup3\n        /* \"#utility.yul\":8599:8617   */\n      add\n        /* \"#utility.yul\":8591:8617   */\n      swap1\n      pop\n        /* \"#utility.yul\":8627:8692   */\n      tag_336\n        /* \"#utility.yul\":8689:8690   */\n      0x00\n        /* \"#utility.yul\":8678:8687   */\n      dup4\n        /* \"#utility.yul\":8674:8691   */\n      add\n        /* \"#utility.yul\":8665:8671   */\n      dup5\n        /* \"#utility.yul\":8627:8692   */\n      tag_288\n      jump\t// in\n    tag_336:\n        /* \"#utility.yul\":8489:8699   */\n      swap3\n      swap2\n      pop\n      pop\n      jump\t// out\n        /* \"#utility.yul\":8705:9329   */\n    tag_17:\n        /* \"#utility.yul\":8894:8898   */\n      0x00\n        /* \"#utility.yul\":8932:8934   */\n      0x60\n        /* \"#utility.yul\":8921:8930   */\n      dup3\n        /* \"#utility.yul\":8917:8935   */\n      add\n        /* \"#utility.yul\":8909:8935   */\n      swap1\n      pop\n        /* \"#utility.yul\":8981:8990   */\n      dup2\n        /* \"#utility.yul\":8975:8979   */\n      dup2\n        /* \"#utility.yul\":8971:8991   */\n      sub\n        /* \"#utility.yul\":8967:8968   */\n      0x00\n        /* \"#utility.yul\":8956:8965   */\n      dup4\n        /* \"#utility.yul\":8952:8969   */\n      add\n        /* \"#utility.yul\":8945:8992   */\n      mstore\n        /* \"#utility.yul\":9009:9087   */\n      tag_338\n        /* \"#utility.yul\":9082:9086   */\n      dup2\n        /* \"#utility.yul\":9073:9079   */\n      dup7\n        /* \"#utility.yul\":9009:9087   */\n      tag_302\n      jump\t// in\n    tag_338:\n        /* \"#utility.yul\":9001:9087   */\n      swap1\n      pop\n        /* \"#utility.yul\":9134:9143   */\n      dup2\n        /* \"#utility.yul\":9128:9132   */\n      dup2\n        /* \"#utility.yul\":9124:9144   */\n      sub\n        /* \"#utility.yul\":9119:9121   */\n      0x20\n        /* \"#utility.yul\":9108:9117   */\n      dup4\n        /* \"#utility.yul\":9104:9122   */\n      add\n        /* \"#utility.yul\":9097:9145   */\n      mstore\n        /* \"#utility.yul\":9162:9240   */\n      tag_339\n        /* \"#utility.yul\":9235:9239   */\n      dup2\n        /* \"#utility.yul\":9226:9232   */\n      dup6\n        /* \"#utility.yul\":9162:9240   */\n      tag_302\n      jump\t// in\n    tag_339:\n        /* \"#utility.yul\":9154:9240   */\n      swap1\n      pop\n        /* \"#utility.yul\":9250:9322   */\n      tag_340\n        /* \"#utility.yul\":9318:9320   */\n      0x40\n        /* \"#utility.yul\":9307:9316   */\n      dup4\n        /* \"#utility.yul\":9303:9321   */\n      add\n        /* \"#utility.yul\":9294:9300   */\n      dup5\n        /* \"#utility.yul\":9250:9322   */\n      tag_328\n      jump\t// in\n    tag_340:\n        /* \"#utility.yul\":8705:9329   */\n      swap5\n      swap4\n      pop\n      pop\n      pop\n      pop\n      jump\t// out\n        /* \"#utility.yul\":9335:9754   */\n    tag_120:\n        /* \"#utility.yul\":9501:9505   */\n      0x00\n        /* \"#utility.yul\":9539:9541   */\n      0x20\n        /* \"#utility.yul\":9528:9537   */\n      dup3\n        /* \"#utility.yul\":9524:9542   */\n      add\n        /* \"#utility.yul\":9516:9542   */\n      swap1\n      pop\n        /* \"#utility.yul\":9588:9597   */\n      dup2\n        /* \"#utility.yul\":9582:9586   */\n      dup2\n        /* \"#utility.yul\":9578:9598   */\n      sub\n        /* \"#utility.yul\":9574:9575   */\n      0x00\n        /* \"#utility.yul\":9563:9572   */\n      dup4\n        /* \"#utility.yul\":9559:9576   */\n      add\n        /* \"#utility.yul\":9552:9599   */\n      mstore\n        /* \"#utility.yul\":9616:9747   */\n      tag_342\n        /* \"#utility.yul\":9742:9746   */\n      dup2\n        /* \"#utility.yul\":9616:9747   */\n      tag_315\n      jump\t// in\n    tag_342:\n        /* \"#utility.yul\":9608:9747   */\n      swap1\n      pop\n        /* \"#utility.yul\":9335:9754   */\n      swap2\n      swap1\n      pop\n      jump\t// out\n        /* \"#utility.yul\":9760:9982   */\n    tag_21:\n        /* \"#utility.yul\":9853:9857   */\n      0x00\n        /* \"#utility.yul\":9891:9893   */\n      0x20\n        /* \"#utility.yul\":9880:9889   */\n      dup3\n        /* \"#utility.yul\":9876:9894   */\n      add\n        /* \"#utility.yul\":9868:9894   */\n      swap1\n      pop\n        /* \"#utility.yul\":9904:9975   */\n      tag_344\n        /* \"#utility.yul\":9972:9973   */\n      0x00\n        /* \"#utility.yul\":9961:9970   */\n      dup4\n        /* \"#utility.yul\":9957:9974   */\n      add\n        /* \"#utility.yul\":9948:9954   */\n      dup5\n        /* \"#utility.yul\":9904:9975   */\n      tag_328\n      jump\t// in\n    tag_344:\n        /* \"#utility.yul\":9760:9982   */\n      swap3\n      swap2\n      pop\n      pop\n      jump\t// out\n        /* \"#utility.yul\":9988:10117   */\n    tag_223:\n        /* \"#utility.yul\":10022:10028   */\n      0x00\n        /* \"#utility.yul\":10049:10069   */\n      tag_346\n      tag_347\n      jump\t// in\n    tag_346:\n        /* \"#utility.yul\":10039:10069   */\n      swap1\n      pop\n        /* \"#utility.yul\":10078:10111   */\n      tag_348\n        /* \"#utility.yul\":10106:10110   */\n      dup3\n        /* \"#utility.yul\":10098:10104   */\n      dup3\n        /* \"#utility.yul\":10078:10111   */\n      tag_349\n      jump\t// in\n    tag_348:\n        /* \"#utility.yul\":9988:10117   */\n      swap2\n      swap1\n      pop\n      jump\t// out\n        /* \"#utility.yul\":10123:10198   */\n    tag_347:\n        /* \"#utility.yul\":10156:10162   */\n      0x00\n        /* \"#utility.yul\":10189:10191   */\n      0x40\n        /* \"#utility.yul\":10183:10192   */\n      mload\n        /* \"#utility.yul\":10173:10192   */\n      swap1\n      pop\n        /* \"#utility.yul\":10123:10198   */\n      swap1\n      jump\t// out\n        /* \"#utility.yul\":10204:10512   */\n    tag_222:\n        /* \"#utility.yul\":10266:10270   */\n      0x00\n        /* \"#utility.yul\":10356:10374   */\n      0xffffffffffffffff\n        /* \"#utility.yul\":10348:10354   */\n      dup3\n        /* \"#utility.yul\":10345:10375   */\n      gt\n        /* \"#utility.yul\":10342:10398   */\n      iszero\n      tag_352\n      jumpi\n        /* \"#utility.yul\":10378:10396   */\n      tag_353\n      tag_125\n      jump\t// in\n    tag_353:\n        /* \"#utility.yul\":10342:10398   */\n    tag_352:\n        /* \"#utility.yul\":10416:10445   */\n      tag_354\n        /* \"#utility.yul\":10438:10444   */\n      dup3\n        /* \"#utility.yul\":10416:10445   */\n      tag_301\n      jump\t// in\n    tag_354:\n        /* \"#utility.yul\":10408:10445   */\n      swap1\n      pop\n        /* \"#utility.yul\":10500:10504   */\n      0x20\n        /* \"#utility.yul\":10494:10498   */\n      dup2\n        /* \"#utility.yul\":10490:10505   */\n      add\n        /* \"#utility.yul\":10482:10505   */\n      swap1\n      pop\n        /* \"#utility.yul\":10204:10512   */\n      swap2\n      swap1\n      pop\n      jump\t// out\n        /* \"#utility.yul\":10518:10672   */\n    tag_281:\n        /* \"#utility.yul\":10607:10611   */\n      0x00\n        /* \"#utility.yul\":10630:10633   */\n      dup2\n        /* \"#utility.yul\":10622:10633   */\n      swap1\n      pop\n        /* \"#utility.yul\":10660:10664   */\n      0x20\n        /* \"#utility.yul\":10655:10658   */\n      dup3\n        /* \"#utility.yul\":10651:10665   */\n      add\n        /* \"#utility.yul\":10643:10665   */\n      swap1\n      pop\n        /* \"#utility.yul\":10518:10672   */\n      swap2\n      swap1\n      pop\n      jump\t// out\n        /* \"#utility.yul\":10678:10814   */\n    tag_277:\n        /* \"#utility.yul\":10767:10773   */\n      0x00\n        /* \"#utility.yul\":10801:10806   */\n      dup2\n        /* \"#utility.yul\":10795:10807   */\n      mload\n        /* \"#utility.yul\":10785:10807   */\n      swap1\n      pop\n        /* \"#utility.yul\":10678:10814   */\n      swap2\n      swap1\n      pop\n      jump\t// out\n        /* \"#utility.yul\":10820:10919   */\n    tag_295:\n        /* \"#utility.yul\":10872:10878   */\n      0x00\n        /* \"#utility.yul\":10906:10911   */\n      dup2\n        /* \"#utility.yul\":10900:10912   */\n      mload\n        /* \"#utility.yul\":10890:10912   */\n      swap1\n      pop\n        /* \"#utility.yul\":10820:10919   */\n      swap2\n      swap1\n      pop\n      jump\t// out\n        /* \"#utility.yul\":10925:11060   */\n    tag_287:\n        /* \"#utility.yul\":11017:11021   */\n      0x00\n        /* \"#utility.yul\":11049:11053   */\n      0x20\n        /* \"#utility.yul\":11044:11047   */\n      dup3\n        /* \"#utility.yul\":11040:11054   */\n      add\n        /* \"#utility.yul\":11032:11054   */\n      swap1\n      pop\n        /* \"#utility.yul\":10925:11060   */\n      swap2\n      swap1\n      pop\n      jump\t// out\n        /* \"#utility.yul\":11066:11272   */\n    tag_279:\n        /* \"#utility.yul\":11187:11198   */\n      0x00\n        /* \"#utility.yul\":11221:11227   */\n      dup3\n        /* \"#utility.yul\":11216:11219   */\n      dup3\n        /* \"#utility.yul\":11209:11228   */\n      mstore\n        /* \"#utility.yul\":11261:11265   */\n      0x20\n        /* \"#utility.yul\":11256:11259   */\n      dup3\n        /* \"#utility.yul\":11252:11266   */\n      add\n        /* \"#utility.yul\":11237:11266   */\n      swap1\n      pop\n        /* \"#utility.yul\":11066:11272   */\n      swap3\n      swap2\n      pop\n      pop\n      jump\t// out\n        /* \"#utility.yul\":11278:11437   */\n    tag_297:\n        /* \"#utility.yul\":11352:11363   */\n      0x00\n        /* \"#utility.yul\":11386:11392   */\n      dup3\n        /* \"#utility.yul\":11381:11384   */\n      dup3\n        /* \"#utility.yul\":11374:11393   */\n      mstore\n        /* \"#utility.yul\":11426:11430   */\n      0x20\n        /* \"#utility.yul\":11421:11424   */\n      dup3\n        /* \"#utility.yul\":11417:11431   */\n      add\n        /* \"#utility.yul\":11402:11431   */\n      swap1\n      pop\n        /* \"#utility.yul\":11278:11437   */\n      swap3\n      swap2\n      pop\n      pop\n      jump\t// out\n        /* \"#utility.yul\":11443:11612   */\n    tag_306:\n        /* \"#utility.yul\":11527:11538   */\n      0x00\n        /* \"#utility.yul\":11561:11567   */\n      dup3\n        /* \"#utility.yul\":11556:11559   */\n      dup3\n        /* \"#utility.yul\":11549:11568   */\n      mstore\n        /* \"#utility.yul\":11601:11605   */\n      0x20\n        /* \"#utility.yul\":11596:11599   */\n      dup3\n        /* \"#utility.yul\":11592:11606   */\n      add\n        /* \"#utility.yul\":11577:11606   */\n      swap1\n      pop\n        /* \"#utility.yul\":11443:11612   */\n      swap3\n      swap2\n      pop\n      pop\n      jump\t// out\n        /* \"#utility.yul\":11618:11766   */\n    tag_313:\n        /* \"#utility.yul\":11720:11731   */\n      0x00\n        /* \"#utility.yul\":11757:11760   */\n      dup2\n        /* \"#utility.yul\":11742:11760   */\n      swap1\n      pop\n        /* \"#utility.yul\":11618:11766   */\n      swap3\n      swap2\n      pop\n      pop\n      jump\t// out\n        /* \"#utility.yul\":11772:11963   */\n    tag_170:\n        /* \"#utility.yul\":11812:11816   */\n      0x00\n        /* \"#utility.yul\":11832:11852   */\n      tag_364\n        /* \"#utility.yul\":11850:11851   */\n      dup3\n        /* \"#utility.yul\":11832:11852   */\n      tag_327\n      jump\t// in\n    tag_364:\n        /* \"#utility.yul\":11827:11852   */\n      swap2\n      pop\n        /* \"#utility.yul\":11866:11886   */\n      tag_365\n        /* \"#utility.yul\":11884:11885   */\n      dup4\n        /* \"#utility.yul\":11866:11886   */\n      tag_327\n      jump\t// in\n    tag_365:\n        /* \"#utility.yul\":11861:11886   */\n      swap3\n      pop\n        /* \"#utility.yul\":11905:11906   */\n      dup3\n        /* \"#utility.yul\":11902:11903   */\n      dup3\n        /* \"#utility.yul\":11899:11907   */\n      lt\n        /* \"#utility.yul\":11896:11930   */\n      iszero\n      tag_366\n      jumpi\n        /* \"#utility.yul\":11910:11928   */\n      tag_367\n      tag_368\n      jump\t// in\n    tag_367:\n        /* \"#utility.yul\":11896:11930   */\n    tag_366:\n        /* \"#utility.yul\":11955:11956   */\n      dup3\n        /* \"#utility.yul\":11952:11953   */\n      dup3\n        /* \"#utility.yul\":11948:11957   */\n      sub\n        /* \"#utility.yul\":11940:11957   */\n      swap1\n      pop\n        /* \"#utility.yul\":11772:11963   */\n      swap3\n      swap2\n      pop\n      pop\n      jump\t// out\n        /* \"#utility.yul\":11969:12059   */\n    tag_291:\n        /* \"#utility.yul\":12003:12010   */\n      0x00\n        /* \"#utility.yul\":12046:12051   */\n      dup2\n        /* \"#utility.yul\":12039:12052   */\n      iszero\n        /* \"#utility.yul\":12032:12053   */\n      iszero\n        /* \"#utility.yul\":12021:12053   */\n      swap1\n      pop\n        /* \"#utility.yul\":11969:12059   */\n      swap2\n      swap1\n      pop\n      jump\t// out\n        /* \"#utility.yul\":12065:12142   */\n    tag_327:\n        /* \"#utility.yul\":12102:12109   */\n      0x00\n        /* \"#utility.yul\":12131:12136   */\n      dup2\n        /* \"#utility.yul\":12120:12136   */\n      swap1\n      pop\n        /* \"#utility.yul\":12065:12142   */\n      swap2\n      swap1\n      pop\n      jump\t// out\n        /* \"#utility.yul\":12148:12302   */\n    tag_228:\n        /* \"#utility.yul\":12232:12238   */\n      dup3\n        /* \"#utility.yul\":12227:12230   */\n      dup2\n        /* \"#utility.yul\":12222:12225   */\n      dup4\n        /* \"#utility.yul\":12209:12239   */\n      calldatacopy\n        /* \"#utility.yul\":12294:12295   */\n      0x00\n        /* \"#utility.yul\":12285:12291   */\n      dup4\n        /* \"#utility.yul\":12280:12283   */\n      dup4\n        /* \"#utility.yul\":12276:12292   */\n      add\n        /* \"#utility.yul\":12269:12296   */\n      mstore\n        /* \"#utility.yul\":12148:12302   */\n      pop\n      pop\n      pop\n      jump\t// out\n        /* \"#utility.yul\":12308:12615   */\n    tag_299:\n        /* \"#utility.yul\":12376:12377   */\n      0x00\n        /* \"#utility.yul\":12386:12499   */\n    tag_373:\n        /* \"#utility.yul\":12400:12406   */\n      dup4\n        /* \"#utility.yul\":12397:12398   */\n      dup2\n        /* \"#utility.yul\":12394:12407   */\n      lt\n        /* \"#utility.yul\":12386:12499   */\n      iszero\n      tag_375\n      jumpi\n        /* \"#utility.yul\":12485:12486   */\n      dup1\n        /* \"#utility.yul\":12480:12483   */\n      dup3\n        /* \"#utility.yul\":12476:12487   */\n      add\n        /* \"#utility.yul\":12470:12488   */\n      mload\n        /* \"#utility.yul\":12466:12467   */\n      dup2\n        /* \"#utility.yul\":12461:12464   */\n      dup5\n        /* \"#utility.yul\":12457:12468   */\n      add\n        /* \"#utility.yul\":12450:12489   */\n      mstore\n        /* \"#utility.yul\":12422:12424   */\n      0x20\n        /* \"#utility.yul\":12419:12420   */\n      dup2\n        /* \"#utility.yul\":12415:12425   */\n      add\n        /* \"#utility.yul\":12410:12425   */\n      swap1\n      pop\n        /* \"#utility.yul\":12386:12499   */\n      jump(tag_373)\n    tag_375:\n        /* \"#utility.yul\":12517:12523   */\n      dup4\n        /* \"#utility.yul\":12514:12515   */\n      dup2\n        /* \"#utility.yul\":12511:12524   */\n      gt\n        /* \"#utility.yul\":12508:12609   */\n      iszero\n      tag_376\n      jumpi\n        /* \"#utility.yul\":12597:12598   */\n      0x00\n        /* \"#utility.yul\":12588:12594   */\n      dup5\n        /* \"#utility.yul\":12583:12586   */\n      dup5\n        /* \"#utility.yul\":12579:12595   */\n      add\n        /* \"#utility.yul\":12572:12599   */\n      mstore\n        /* \"#utility.yul\":12508:12609   */\n    tag_376:\n        /* \"#utility.yul\":12357:12615   */\n      pop\n        /* \"#utility.yul\":12308:12615   */\n      pop\n      pop\n      pop\n      jump\t// out\n        /* \"#utility.yul\":12621:12792   */\n    tag_190:\n        /* \"#utility.yul\":12660:12663   */\n      0x00\n        /* \"#utility.yul\":12683:12707   */\n      tag_378\n        /* \"#utility.yul\":12701:12706   */\n      dup3\n        /* \"#utility.yul\":12683:12707   */\n      tag_327\n      jump\t// in\n    tag_378:\n        /* \"#utility.yul\":12674:12707   */\n      swap2\n      pop\n        /* \"#utility.yul\":12729:12733   */\n      0x00\n        /* \"#utility.yul\":12722:12727   */\n      dup3\n        /* \"#utility.yul\":12719:12734   */\n      eq\n        /* \"#utility.yul\":12716:12757   */\n      iszero\n      tag_379\n      jumpi\n        /* \"#utility.yul\":12737:12755   */\n      tag_380\n      tag_368\n      jump\t// in\n    tag_380:\n        /* \"#utility.yul\":12716:12757   */\n    tag_379:\n        /* \"#utility.yul\":12784:12785   */\n      0x01\n        /* \"#utility.yul\":12777:12782   */\n      dup3\n        /* \"#utility.yul\":12773:12786   */\n      sub\n        /* \"#utility.yul\":12766:12786   */\n      swap1\n      pop\n        /* \"#utility.yul\":12621:12792   */\n      swap2\n      swap1\n      pop\n      jump\t// out\n        /* \"#utility.yul\":12798:13118   */\n    tag_52:\n        /* \"#utility.yul\":12842:12848   */\n      0x00\n        /* \"#utility.yul\":12879:12880   */\n      0x02\n        /* \"#utility.yul\":12873:12877   */\n      dup3\n        /* \"#utility.yul\":12869:12881   */\n      div\n        /* \"#utility.yul\":12859:12881   */\n      swap1\n      pop\n        /* \"#utility.yul\":12926:12927   */\n      0x01\n        /* \"#utility.yul\":12920:12924   */\n      dup3\n        /* \"#utility.yul\":12916:12928   */\n      and\n        /* \"#utility.yul\":12947:12965   */\n      dup1\n        /* \"#utility.yul\":12937:13018   */\n      tag_382\n      jumpi\n        /* \"#utility.yul\":13003:13007   */\n      0x7f\n        /* \"#utility.yul\":12995:13001   */\n      dup3\n        /* \"#utility.yul\":12991:13008   */\n      and\n        /* \"#utility.yul\":12981:13008   */\n      swap2\n      pop\n        /* \"#utility.yul\":12937:13018   */\n    tag_382:\n        /* \"#utility.yul\":13065:13067   */\n      0x20\n        /* \"#utility.yul\":13057:13063   */\n      dup3\n        /* \"#utility.yul\":13054:13068   */\n      lt\n        /* \"#utility.yul\":13034:13052   */\n      dup2\n        /* \"#utility.yul\":13031:13069   */\n      eq\n        /* \"#utility.yul\":13028:13112   */\n      iszero\n      tag_383\n      jumpi\n        /* \"#utility.yul\":13084:13102   */\n      tag_384\n      tag_385\n      jump\t// in\n    tag_384:\n        /* \"#utility.yul\":13028:13112   */\n    tag_383:\n        /* \"#utility.yul\":12849:13118   */\n      pop\n        /* \"#utility.yul\":12798:13118   */\n      swap2\n      swap1\n      pop\n      jump\t// out\n        /* \"#utility.yul\":13124:13405   */\n    tag_349:\n        /* \"#utility.yul\":13207:13234   */\n      tag_387\n        /* \"#utility.yul\":13229:13233   */\n      dup3\n        /* \"#utility.yul\":13207:13234   */\n      tag_301\n      jump\t// in\n    tag_387:\n        /* \"#utility.yul\":13199:13205   */\n      dup2\n        /* \"#utility.yul\":13195:13235   */\n      add\n        /* \"#utility.yul\":13337:13343   */\n      dup2\n        /* \"#utility.yul\":13325:13335   */\n      dup2\n        /* \"#utility.yul\":13322:13344   */\n      lt\n        /* \"#utility.yul\":13301:13319   */\n      0xffffffffffffffff\n        /* \"#utility.yul\":13289:13299   */\n      dup3\n        /* \"#utility.yul\":13286:13320   */\n      gt\n        /* \"#utility.yul\":13283:13345   */\n      or\n        /* \"#utility.yul\":13280:13368   */\n      iszero\n      tag_388\n      jumpi\n        /* \"#utility.yul\":13348:13366   */\n      tag_389\n      tag_125\n      jump\t// in\n    tag_389:\n        /* \"#utility.yul\":13280:13368   */\n    tag_388:\n        /* \"#utility.yul\":13388:13398   */\n      dup1\n        /* \"#utility.yul\":13384:13386   */\n      0x40\n        /* \"#utility.yul\":13377:13399   */\n      mstore\n        /* \"#utility.yul\":13167:13405   */\n      pop\n        /* \"#utility.yul\":13124:13405   */\n      pop\n      pop\n      jump\t// out\n        /* \"#utility.yul\":13411:13644   */\n    tag_84:\n        /* \"#utility.yul\":13450:13453   */\n      0x00\n        /* \"#utility.yul\":13473:13497   */\n      tag_391\n        /* \"#utility.yul\":13491:13496   */\n      dup3\n        /* \"#utility.yul\":13473:13497   */\n      tag_327\n      jump\t// in\n    tag_391:\n        /* \"#utility.yul\":13464:13497   */\n      swap2\n      pop\n        /* \"#utility.yul\":13519:13585   */\n      0xffffffffffffffffffffffffffffffffffffffffffffffffffffffffffffffff\n        /* \"#utility.yul\":13512:13517   */\n      dup3\n        /* \"#utility.yul\":13509:13586   */\n      eq\n        /* \"#utility.yul\":13506:13609   */\n      iszero\n      tag_392\n      jumpi\n        /* \"#utility.yul\":13589:13607   */\n      tag_393\n      tag_368\n      jump\t// in\n    tag_393:\n        /* \"#utility.yul\":13506:13609   */\n    tag_392:\n        /* \"#utility.yul\":13636:13637   */\n      0x01\n        /* \"#utility.yul\":13629:13634   */\n      dup3\n        /* \"#utility.yul\":13625:13638   */\n      add\n        /* \"#utility.yul\":13618:13638   */\n      swap1\n      pop\n        /* \"#utility.yul\":13411:13644   */\n      swap2\n      swap1\n      pop\n      jump\t// out\n        /* \"#utility.yul\":13650:13830   */\n    tag_368:\n        /* \"#utility.yul\":13698:13775   */\n      0x4e487b7100000000000000000000000000000000000000000000000000000000\n        /* \"#utility.yul\":13695:13696   */\n      0x00\n        /* \"#utility.yul\":13688:13776   */\n      mstore\n        /* \"#utility.yul\":13795:13799   */\n      0x11\n        /* \"#utility.yul\":13792:13793   */\n      0x04\n        /* \"#utility.yul\":13785:13800   */\n      mstore\n        /* \"#utility.yul\":13819:13823   */\n      0x24\n        /* \"#utility.yul\":13816:13817   */\n      0x00\n        /* \"#utility.yul\":13809:13824   */\n      revert\n        /* \"#utility.yul\":13836:14016   */\n    tag_385:\n        /* \"#utility.yul\":13884:13961   */\n      0x4e487b7100000000000000000000000000000000000000000000000000000000\n        /* \"#utility.yul\":13881:13882   */\n      0x00\n        /* \"#utility.yul\":13874:13962   */\n      mstore\n        /* \"#utility.yul\":13981:13985   */\n      0x22\n        /* \"#utility.yul\":13978:13979   */\n      0x04\n        /* \"#utility.yul\":13971:13986   */\n      mstore\n        /* \"#utility.yul\":14005:14009   */\n      0x24\n        /* \"#utility.yul\":14002:14003   */\n      0x00\n        /* \"#utility.yul\":13995:14010   */\n      revert\n        /* \"#utility.yul\":14022:14202   */\n    tag_69:\n        /* \"#utility.yul\":14070:14147   */\n      0x4e487b7100000000000000000000000000000000000000000000000000000000\n        /* \"#utility.yul\":14067:14068   */\n      0x00\n        /* \"#utility.yul\":14060:14148   */\n      mstore\n        /* \"#utility.yul\":14167:14171   */\n      0x32\n        /* \"#utility.yul\":14164:14165   */\n      0x04\n        /* \"#utility.yul\":14157:14172   */\n      mstore\n        /* \"#utility.yul\":14191:14195   */\n      0x24\n        /* \"#utility.yul\":14188:14189   */\n      0x00\n        /* \"#utility.yul\":14181:14196   */\n      revert\n        /* \"#utility.yul\":14208:14388   */\n    tag_125:\n        /* \"#utility.yul\":14256:14333   */\n      0x4e487b7100000000000000000000000000000000000000000000000000000000\n        /* \"#utility.yul\":14253:14254   */\n      0x00\n        /* \"#utility.yul\":14246:14334   */\n      mstore\n        /* \"#utility.yul\":14353:14357   */\n      0x41\n        /* \"#utility.yul\":14350:14351   */\n      0x04\n        /* \"#utility.yul\":14343:14358   */\n      mstore\n        /* \"#utility.yul\":14377:14381   */\n      0x24\n        /* \"#utility.yul\":14374:14375   */\n      0x00\n        /* \"#utility.yul\":14367:14382   */\n      revert\n        /* \"#utility.yul\":14394:14511   */\n    tag_233:\n        /* \"#utility.yul\":14503:14504   */\n      0x00\n        /* \"#utility.yul\":14500:14501   */\n      dup1\n        /* \"#utility.yul\":14493:14505   */\n      revert\n        /* \"#utility.yul\":14517:14634   */\n    tag_226:\n        /* \"#utility.yul\":14626:14627   */\n      0x00\n        /* \"#utility.yul\":14623:14624   */\n      dup1\n        /* \"#utility.yul\":14616:14628   */\n      revert\n        /* \"#utility.yul\":14640:14757   */\n    tag_245:\n        /* \"#utility.yul\":14749:14750   */\n      0x00\n        /* \"#utility.yul\":14746:14747   */\n      dup1\n        /* \"#utility.yul\":14739:14751   */\n      revert\n        /* \"#utility.yul\":14763:14880   */\n    tag_242:\n        /* \"#utility.yul\":14872:14873   */\n      0x00\n        /* \"#utility.yul\":14869:14870   */\n      dup1\n        /* \"#utility.yul\":14862:14874   */\n      revert\n        /* \"#utility.yul\":14886:14988   */\n    tag_301:\n        /* \"#utility.yul\":14927:14933   */\n      0x00\n        /* \"#utility.yul\":14978:14980   */\n      0x1f\n        /* \"#utility.yul\":14974:14981   */\n      not\n        /* \"#utility.yul\":14969:14971   */\n      0x1f\n        /* \"#utility.yul\":14962:14967   */\n      dup4\n        /* \"#utility.yul\":14958:14972   */\n      add\n        /* \"#utility.yul\":14954:14982   */\n      and\n        /* \"#utility.yul\":14944:14982   */\n      swap1\n      pop\n        /* \"#utility.yul\":14886:14988   */\n      swap2\n      swap1\n      pop\n      jump\t// out\n        /* \"#utility.yul\":14994:15161   */\n    tag_319:\n        /* \"#utility.yul\":15134:15153   */\n      0x636f756e747279206e6f7420666f756e64000000000000000000000000000000\n        /* \"#utility.yul\":15130:15131   */\n      0x00\n        /* \"#utility.yul\":15122:15128   */\n      dup3\n        /* \"#utility.yul\":15118:15132   */\n      add\n        /* \"#utility.yul\":15111:15154   */\n      mstore\n        /* \"#utility.yul\":14994:15161   */\n      pop\n      jump\t// out\n        /* \"#utility.yul\":15167:15289   */\n    tag_238:\n        /* \"#utility.yul\":15240:15264   */\n      tag_405\n        /* \"#utility.yul\":15258:15263   */\n      dup2\n        /* \"#utility.yul\":15240:15264   */\n      tag_327\n      jump\t// in\n    tag_405:\n        /* \"#utility.yul\":15233:15238   */\n      dup2\n        /* \"#utility.yul\":15230:15265   */\n      eq\n        /* \"#utility.yul\":15220:15283   */\n      tag_406\n      jumpi\n        /* \"#utility.yul\":15279:15280   */\n      0x00\n        /* \"#utility.yul\":15276:15277   */\n      dup1\n        /* \"#utility.yul\":15269:15281   */\n      revert\n        /* \"#utility.yul\":15220:15283   */\n    tag_406:\n        /* \"#utility.yul\":15167:15289   */\n      pop\n      jump\t// out\n\n    auxdata: 0xa2646970667358221220d8241a02dac66d39c2c8173027868be18c8b66df22b939d74211f73a812458c864736f6c63430008070033\n}\n",
				"bytecode": {
					"linkReferences": {},
					"object": "608060405234801561001057600080fd5b5060006001819055506115f7806100286000396000f3fe608060405234801561001057600080fd5b50600436106100885760003560e01c8063acf754581161005b578063acf754581461013f578063beca80091461015d578063c1356d261461017b578063cae65058146101ab57610088565b806308e9daa51461008d57806362738129146100bf57806381ba02be146100dd578063848924cb1461010d575b600080fd5b6100a760048036038101906100a29190610fa3565b6101db565b6040516100b6939291906111f7565b60405180910390f35b6100c7610325565b6040516100d4919061125c565b60405180910390f35b6100f760048036038101906100f29190610ea0565b61032b565b60405161010491906111dc565b60405180910390f35b61012760048036038101906101229190610e57565b61045c565b604051610136939291906111f7565b60405180910390f35b610147610717565b604051610154919061125c565b60405180910390f35b610165610723565b60405161017291906111ba565b60405180910390f35b61019560048036038101906101909190610f18565b610920565b6040516101a2919061125c565b60405180910390f35b6101c560048036038101906101c09190610e57565b6109d7565b6040516101d291906111dc565b60405180910390f35b600081815481106101eb57600080fd5b906000526020600020906003020160009150905080600001805461020e906113f4565b80601f016020809104026020016040519081016040528092919081815260200182805461023a906113f4565b80156102875780601f1061025c57610100808354040283529160200191610287565b820191906000526020600020905b81548152906001019060200180831161026a57829003601f168201915b50505050509080600101805461029c906113f4565b80601f01602080910402602001604051908101604052809291908181526020018280546102c8906113f4565b80156103155780601f106102ea57610100808354040283529160200191610315565b820191906000526020600020905b8154815290600101906020018083116102f857829003601f168201915b5050505050908060020154905083565b60015481565b600080600090505b600154811015610450576103f460008281548110610354576103536114fe565b5b90600052602060002090600302016000018054610370906113f4565b80601f016020809104026020016040519081016040528092919081815260200182805461039c906113f4565b80156103e95780601f106103be576101008083540402835291602001916103e9565b820191906000526020600020905b8154815290600101906020018083116103cc57829003601f168201915b505050505085610be8565b1561043d57826000828154811061040e5761040d6114fe565b5b90600052602060002090600302016001019080519060200190610432929190610c41565b506001915050610456565b808061044890611457565b915050610333565b50600090505b92915050565b606080600080600090505b6001548110156106d45761052860008281548110610488576104876114fe565b5b906000526020600020906003020160000180546104a4906113f4565b80601f01602080910402602001604051908101604052809291908181526020018280546104d0906113f4565b801561051d5780601f106104f25761010080835404028352916020019161051d565b820191906000526020600020905b81548152906001019060200180831161050057829003601f168201915b505050505086610be8565b156106c15760008181548110610541576105406114fe565b5b906000526020600020906003020160000160008281548110610566576105656114fe565b5b90600052602060002090600302016001016000838154811061058b5761058a6114fe565b5b9060005260206000209060030201600201548280546105a9906113f4565b80601f01602080910402602001604051908101604052809291908181526020018280546105d5906113f4565b80156106225780601f106105f757610100808354040283529160200191610622565b820191906000526020600020905b81548152906001019060200180831161060557829003601f168201915b50505050509250818054610635906113f4565b80601f0160208091040260200160405190810160405280929190818152602001828054610661906113f4565b80156106ae5780601f10610683576101008083540402835291602001916106ae565b820191906000526020600020905b81548152906001019060200180831161069157829003601f168201915b5050505050915093509350935050610710565b80806106cc90611457565b915050610467565b506040517f08c379a00000000000000000000000000000000000000000000000000000000081526004016107079061123c565b60405180910390fd5b9193909250565b60008080549050905090565b6060600060015467ffffffffffffffff8111156107435761074261152d565b5b60405190808252806020026020018201604052801561077c57816020015b610769610cc7565b8152602001906001900390816107615790505b50905060005b60015481101561091857600081815481106107a05761079f6114fe565b5b90600052602060002090600302016040518060600160405290816000820180546107c9906113f4565b80601f01602080910402602001604051908101604052809291908181526020018280546107f5906113f4565b80156108425780601f1061081757610100808354040283529160200191610842565b820191906000526020600020905b81548152906001019060200180831161082557829003601f168201915b5050505050815260200160018201805461085b906113f4565b80601f0160208091040260200160405190810160405280929190818152602001828054610887906113f4565b80156108d45780601f106108a9576101008083540402835291602001916108d4565b820191906000526020600020905b8154815290600101906020018083116108b757829003601f168201915b505050505081526020016002820154815250508282815181106108fa576108f96114fe565b5b6020026020010181905250808061091090611457565b915050610782565b508091505090565b600080604051806060016040528086815260200185815260200184815250905060008190806001815401808255809150506001900390600052602060002090600302016000909190919091506000820151816000019080519060200190610988929190610c41565b5060208201518160010190805190602001906109a5929190610c41565b50604082015181600201555050600160008154809291906109c590611457565b91905055506001549150509392505050565b600080600154116109e757600080fd5b60005b600154811015610bdd57610aab60008281548110610a0b57610a0a6114fe565b5b90600052602060002090600302016000018054610a27906113f4565b80601f0160208091040260200160405190810160405280929190818152602001828054610a53906113f4565b8015610aa05780601f10610a7557610100808354040283529160200191610aa0565b820191906000526020600020905b815481529060010190602001808311610a8357829003601f168201915b505050505084610be8565b15610bca57600060018054610ac0919061133e565b81548110610ad157610ad06114fe565b5b906000526020600020906003020160008281548110610af357610af26114fe565b5b90600052602060002090600302016000820181600001908054610b15906113f4565b610b20929190610ce8565b506001820181600101908054610b35906113f4565b610b40929190610ce8565b5060028201548160020155905050600060018054610b5e919061133e565b81548110610b6f57610b6e6114fe565b5b906000526020600020906003020160008082016000610b8e9190610d75565b600182016000610b9e9190610d75565b6002820160009055505060016000815480929190610bbb906113ca565b91905055506001915050610be3565b8080610bd590611457565b9150506109ea565b50600090505b919050565b600081604051602001610bfb91906111a3565b6040516020818303038152906040528051906020012083604051602001610c2291906111a3565b6040516020818303038152906040528051906020012014905092915050565b828054610c4d906113f4565b90600052602060002090601f016020900481019282610c6f5760008555610cb6565b82601f10610c8857805160ff1916838001178555610cb6565b82800160010185558215610cb6579182015b82811115610cb5578251825591602001919060010190610c9a565b5b509050610cc39190610db5565b5090565b60405180606001604052806060815260200160608152602001600081525090565b828054610cf4906113f4565b90600052602060002090601f016020900481019282610d165760008555610d64565b82601f10610d275780548555610d64565b82800160010185558215610d6457600052602060002091601f016020900482015b82811115610d63578254825591600101919060010190610d48565b5b509050610d719190610db5565b5090565b508054610d81906113f4565b6000825580601f10610d935750610db2565b601f016020900490600052602060002090810190610db19190610db5565b5b50565b5b80821115610dce576000816000905550600101610db6565b5090565b6000610de5610de08461129c565b611277565b905082815260208101848484011115610e0157610e00611561565b5b610e0c848285611388565b509392505050565b600082601f830112610e2957610e2861155c565b5b8135610e39848260208601610dd2565b91505092915050565b600081359050610e51816115aa565b92915050565b600060208284031215610e6d57610e6c61156b565b5b600082013567ffffffffffffffff811115610e8b57610e8a611566565b5b610e9784828501610e14565b91505092915050565b60008060408385031215610eb757610eb661156b565b5b600083013567ffffffffffffffff811115610ed557610ed4611566565b5b610ee185828601610e14565b925050602083013567ffffffffffffffff811115610f0257610f01611566565b5b610f0e85828601610e14565b9150509250929050565b600080600060608486031215610f3157610f3061156b565b5b600084013567ffffffffffffffff811115610f4f57610f4e611566565b5b610f5b86828701610e14565b935050602084013567ffffffffffffffff811115610f7c57610f7b611566565b5b610f8886828701610e14565b9250506040610f9986828701610e42565b9150509250925092565b600060208284031215610fb957610fb861156b565b5b6000610fc784828501610e42565b91505092915050565b6000610fdc838361112e565b905092915050565b6000610fef826112dd565b610ff98185611300565b93508360208202850161100b856112cd565b8060005b8581101561104757848403895281516110288582610fd0565b9450611033836112f3565b925060208a0199505060018101905061100f565b50829750879550505050505092915050565b61106281611372565b82525050565b6000611073826112e8565b61107d8185611311565b935061108d818560208601611397565b61109681611570565b840191505092915050565b60006110ac826112e8565b6110b68185611322565b93506110c6818560208601611397565b6110cf81611570565b840191505092915050565b60006110e5826112e8565b6110ef8185611333565b93506110ff818560208601611397565b80840191505092915050565b6000611118601183611322565b915061112382611581565b602082019050919050565b6000606083016000830151848203600086015261114b8282611068565b915050602083015184820360208601526111658282611068565b915050604083015161117a6040860182611185565b508091505092915050565b61118e8161137e565b82525050565b61119d8161137e565b82525050565b60006111af82846110da565b915081905092915050565b600060208201905081810360008301526111d48184610fe4565b905092915050565b60006020820190506111f16000830184611059565b92915050565b6000606082019050818103600083015261121181866110a1565b9050818103602083015261122581856110a1565b90506112346040830184611194565b949350505050565b600060208201905081810360008301526112558161110b565b9050919050565b60006020820190506112716000830184611194565b92915050565b6000611281611292565b905061128d8282611426565b919050565b6000604051905090565b600067ffffffffffffffff8211156112b7576112b661152d565b5b6112c082611570565b9050602081019050919050565b6000819050602082019050919050565b600081519050919050565b600081519050919050565b6000602082019050919050565b600082825260208201905092915050565b600082825260208201905092915050565b600082825260208201905092915050565b600081905092915050565b60006113498261137e565b91506113548361137e565b925082821015611367576113666114a0565b5b828203905092915050565b60008115159050919050565b6000819050919050565b82818337600083830152505050565b60005b838110156113b557808201518184015260208101905061139a565b838111156113c4576000848401525b50505050565b60006113d58261137e565b915060008214156113e9576113e86114a0565b5b600182039050919050565b6000600282049050600182168061140c57607f821691505b602082108114156114205761141f6114cf565b5b50919050565b61142f82611570565b810181811067ffffffffffffffff8211171561144e5761144d61152d565b5b80604052505050565b60006114628261137e565b91507fffffffffffffffffffffffffffffffffffffffffffffffffffffffffffffffff821415611495576114946114a0565b5b600182019050919050565b7f4e487b7100000000000000000000000000000000000000000000000000000000600052601160045260246000fd5b7f4e487b7100000000000000000000000000000000000000000000000000000000600052602260045260246000fd5b7f4e487b7100000000000000000000000000000000000000000000000000000000600052603260045260246000fd5b7f4e487b7100000000000000000000000000000000000000000000000000000000600052604160045260246000fd5b600080fd5b600080fd5b600080fd5b600080fd5b6000601f19601f8301169050919050565b7f636f756e747279206e6f7420666f756e64000000000000000000000000000000600082015250565b6115b38161137e565b81146115be57600080fd5b5056fea2646970667358221220d8241a02dac66d39c2c8173027868be18c8b66df22b939d74211f73a812458c864736f6c63430008070033",
					"opcodes": "PUSH1 0x80 PUSH1 0x40 MSTORE CALLVALUE DUP1 ISZERO PUSH2 0x10 JUMPI PUSH1 0x0 DUP1 REVERT JUMPDEST POP PUSH1 0x0 PUSH1 0x1 DUP2 SWAP1 SSTORE POP PUSH2 0x15F7 DUP1 PUSH2 0x28 PUSH1 0x0 CODECOPY PUSH1 0x0 RETURN INVALID PUSH1 0x80 PUSH1 0x40 MSTORE CALLVALUE DUP1 ISZERO PUSH2 0x10 JUMPI PUSH1 0x0 DUP1 REVERT JUMPDEST POP PUSH1 0x4 CALLDATASIZE LT PUSH2 0x88 JUMPI PUSH1 0x0 CALLDATALOAD PUSH1 0xE0 SHR DUP1 PUSH4 0xACF75458 GT PUSH2 0x5B JUMPI DUP1 PUSH4 0xACF75458 EQ PUSH2 0x13F JUMPI DUP1 PUSH4 0xBECA8009 EQ PUSH2 0x15D JUMPI DUP1 PUSH4 0xC1356D26 EQ PUSH2 0x17B JUMPI DUP1 PUSH4 0xCAE65058 EQ PUSH2 0x1AB JUMPI PUSH2 0x88 JUMP JUMPDEST DUP1 PUSH4 0x8E9DAA5 EQ PUSH2 0x8D JUMPI DUP1 PUSH4 0x62738129 EQ PUSH2 0xBF JUMPI DUP1 PUSH4 0x81BA02BE EQ PUSH2 0xDD JUMPI DUP1 PUSH4 0x848924CB EQ PUSH2 0x10D JUMPI JUMPDEST PUSH1 0x0 DUP1 REVERT JUMPDEST PUSH2 0xA7 PUSH1 0x4 DUP1 CALLDATASIZE SUB DUP2 ADD SWAP1 PUSH2 0xA2 SWAP2 SWAP1 PUSH2 0xFA3 JUMP JUMPDEST PUSH2 0x1DB JUMP JUMPDEST PUSH1 0x40 MLOAD PUSH2 0xB6 SWAP4 SWAP3 SWAP2 SWAP1 PUSH2 0x11F7 JUMP JUMPDEST PUSH1 0x40 MLOAD DUP1 SWAP2 SUB SWAP1 RETURN JUMPDEST PUSH2 0xC7 PUSH2 0x325 JUMP JUMPDEST PUSH1 0x40 MLOAD PUSH2 0xD4 SWAP2 SWAP1 PUSH2 0x125C JUMP JUMPDEST PUSH1 0x40 MLOAD DUP1 SWAP2 SUB SWAP1 RETURN JUMPDEST PUSH2 0xF7 PUSH1 0x4 DUP1 CALLDATASIZE SUB DUP2 ADD SWAP1 PUSH2 0xF2 SWAP2 SWAP1 PUSH2 0xEA0 JUMP JUMPDEST PUSH2 0x32B JUMP JUMPDEST PUSH1 0x40 MLOAD PUSH2 0x104 SWAP2 SWAP1 PUSH2 0x11DC JUMP JUMPDEST PUSH1 0x40 MLOAD DUP1 SWAP2 SUB SWAP1 RETURN JUMPDEST PUSH2 0x127 PUSH1 0x4 DUP1 CALLDATASIZE SUB DUP2 ADD SWAP1 PUSH2 0x122 SWAP2 SWAP1 PUSH2 0xE57 JUMP JUMPDEST PUSH2 0x45C JUMP JUMPDEST PUSH1 0x40 MLOAD PUSH2 0x136 SWAP4 SWAP3 SWAP2 SWAP1 PUSH2 0x11F7 JUMP JUMPDEST PUSH1 0x40 MLOAD DUP1 SWAP2 SUB SWAP1 RETURN JUMPDEST PUSH2 0x147 PUSH2 0x717 JUMP JUMPDEST PUSH1 0x40 MLOAD PUSH2 0x154 SWAP2 SWAP1 PUSH2 0x125C JUMP JUMPDEST PUSH1 0x40 MLOAD DUP1 SWAP2 SUB SWAP1 RETURN JUMPDEST PUSH2 0x165 PUSH2 0x723 JUMP JUMPDEST PUSH1 0x40 MLOAD PUSH2 0x172 SWAP2 SWAP1 PUSH2 0x11BA JUMP JUMPDEST PUSH1 0x40 MLOAD DUP1 SWAP2 SUB SWAP1 RETURN JUMPDEST PUSH2 0x195 PUSH1 0x4 DUP1 CALLDATASIZE SUB DUP2 ADD SWAP1 PUSH2 0x190 SWAP2 SWAP1 PUSH2 0xF18 JUMP JUMPDEST PUSH2 0x920 JUMP JUMPDEST PUSH1 0x40 MLOAD PUSH2 0x1A2 SWAP2 SWAP1 PUSH2 0x125C JUMP JUMPDEST PUSH1 0x40 MLOAD DUP1 SWAP2 SUB SWAP1 RETURN JUMPDEST PUSH2 0x1C5 PUSH1 0x4 DUP1 CALLDATASIZE SUB DUP2 ADD SWAP1 PUSH2 0x1C0 SWAP2 SWAP1 PUSH2 0xE57 JUMP JUMPDEST PUSH2 0x9D7 JUMP JUMPDEST PUSH1 0x40 MLOAD PUSH2 0x1D2 SWAP2 SWAP1 PUSH2 0x11DC JUMP JUMPDEST PUSH1 0x40 MLOAD DUP1 SWAP2 SUB SWAP1 RETURN JUMPDEST PUSH1 0x0 DUP2 DUP2 SLOAD DUP2 LT PUSH2 0x1EB JUMPI PUSH1 0x0 DUP1 REVERT JUMPDEST SWAP1 PUSH1 0x0 MSTORE PUSH1 0x20 PUSH1 0x0 KECCAK256 SWAP1 PUSH1 0x3 MUL ADD PUSH1 0x0 SWAP2 POP SWAP1 POP DUP1 PUSH1 0x0 ADD DUP1 SLOAD PUSH2 0x20E SWAP1 PUSH2 0x13F4 JUMP JUMPDEST DUP1 PUSH1 0x1F ADD PUSH1 0x20 DUP1 SWAP2 DIV MUL PUSH1 0x20 ADD PUSH1 0x40 MLOAD SWAP1 DUP2 ADD PUSH1 0x40 MSTORE DUP1 SWAP3 SWAP2 SWAP1 DUP2 DUP2 MSTORE PUSH1 0x20 ADD DUP3 DUP1 SLOAD PUSH2 0x23A SWAP1 PUSH2 0x13F4 JUMP JUMPDEST DUP1 ISZERO PUSH2 0x287 JUMPI DUP1 PUSH1 0x1F LT PUSH2 0x25C JUMPI PUSH2 0x100 DUP1 DUP4 SLOAD DIV MUL DUP4 MSTORE SWAP2 PUSH1 0x20 ADD SWAP2 PUSH2 0x287 JUMP JUMPDEST DUP3 ADD SWAP2 SWAP1 PUSH1 0x0 MSTORE PUSH1 0x20 PUSH1 0x0 KECCAK256 SWAP1 JUMPDEST DUP2 SLOAD DUP2 MSTORE SWAP1 PUSH1 0x1 ADD SWAP1 PUSH1 0x20 ADD DUP1 DUP4 GT PUSH2 0x26A JUMPI DUP3 SWAP1 SUB PUSH1 0x1F AND DUP3 ADD SWAP2 JUMPDEST POP POP POP POP POP SWAP1 DUP1 PUSH1 0x1 ADD DUP1 SLOAD PUSH2 0x29C SWAP1 PUSH2 0x13F4 JUMP JUMPDEST DUP1 PUSH1 0x1F ADD PUSH1 0x20 DUP1 SWAP2 DIV MUL PUSH1 0x20 ADD PUSH1 0x40 MLOAD SWAP1 DUP2 ADD PUSH1 0x40 MSTORE DUP1 SWAP3 SWAP2 SWAP1 DUP2 DUP2 MSTORE PUSH1 0x20 ADD DUP3 DUP1 SLOAD PUSH2 0x2C8 SWAP1 PUSH2 0x13F4 JUMP JUMPDEST DUP1 ISZERO PUSH2 0x315 JUMPI DUP1 PUSH1 0x1F LT PUSH2 0x2EA JUMPI PUSH2 0x100 DUP1 DUP4 SLOAD DIV MUL DUP4 MSTORE SWAP2 PUSH1 0x20 ADD SWAP2 PUSH2 0x315 JUMP JUMPDEST DUP3 ADD SWAP2 SWAP1 PUSH1 0x0 MSTORE PUSH1 0x20 PUSH1 0x0 KECCAK256 SWAP1 JUMPDEST DUP2 SLOAD DUP2 MSTORE SWAP1 PUSH1 0x1 ADD SWAP1 PUSH1 0x20 ADD DUP1 DUP4 GT PUSH2 0x2F8 JUMPI DUP3 SWAP1 SUB PUSH1 0x1F AND DUP3 ADD SWAP2 JUMPDEST POP POP POP POP POP SWAP1 DUP1 PUSH1 0x2 ADD SLOAD SWAP1 POP DUP4 JUMP JUMPDEST PUSH1 0x1 SLOAD DUP2 JUMP JUMPDEST PUSH1 0x0 DUP1 PUSH1 0x0 SWAP1 POP JUMPDEST PUSH1 0x1 SLOAD DUP2 LT ISZERO PUSH2 0x450 JUMPI PUSH2 0x3F4 PUSH1 0x0 DUP3 DUP2 SLOAD DUP2 LT PUSH2 0x354 JUMPI PUSH2 0x353 PUSH2 0x14FE JUMP JUMPDEST JUMPDEST SWAP1 PUSH1 0x0 MSTORE PUSH1 0x20 PUSH1 0x0 KECCAK256 SWAP1 PUSH1 0x3 MUL ADD PUSH1 0x0 ADD DUP1 SLOAD PUSH2 0x370 SWAP1 PUSH2 0x13F4 JUMP JUMPDEST DUP1 PUSH1 0x1F ADD PUSH1 0x20 DUP1 SWAP2 DIV MUL PUSH1 0x20 ADD PUSH1 0x40 MLOAD SWAP1 DUP2 ADD PUSH1 0x40 MSTORE DUP1 SWAP3 SWAP2 SWAP1 DUP2 DUP2 MSTORE PUSH1 0x20 ADD DUP3 DUP1 SLOAD PUSH2 0x39C SWAP1 PUSH2 0x13F4 JUMP JUMPDEST DUP1 ISZERO PUSH2 0x3E9 JUMPI DUP1 PUSH1 0x1F LT PUSH2 0x3BE JUMPI PUSH2 0x100 DUP1 DUP4 SLOAD DIV MUL DUP4 MSTORE SWAP2 PUSH1 0x20 ADD SWAP2 PUSH2 0x3E9 JUMP JUMPDEST DUP3 ADD SWAP2 SWAP1 PUSH1 0x0 MSTORE PUSH1 0x20 PUSH1 0x0 KECCAK256 SWAP1 JUMPDEST DUP2 SLOAD DUP2 MSTORE SWAP1 PUSH1 0x1 ADD SWAP1 PUSH1 0x20 ADD DUP1 DUP4 GT PUSH2 0x3CC JUMPI DUP3 SWAP1 SUB PUSH1 0x1F AND DUP3 ADD SWAP2 JUMPDEST POP POP POP POP POP DUP6 PUSH2 0xBE8 JUMP JUMPDEST ISZERO PUSH2 0x43D JUMPI DUP3 PUSH1 0x0 DUP3 DUP2 SLOAD DUP2 LT PUSH2 0x40E JUMPI PUSH2 0x40D PUSH2 0x14FE JUMP JUMPDEST JUMPDEST SWAP1 PUSH1 0x0 MSTORE PUSH1 0x20 PUSH1 0x0 KECCAK256 SWAP1 PUSH1 0x3 MUL ADD PUSH1 0x1 ADD SWAP1 DUP1 MLOAD SWAP1 PUSH1 0x20 ADD SWAP1 PUSH2 0x432 SWAP3 SWAP2 SWAP1 PUSH2 0xC41 JUMP JUMPDEST POP PUSH1 0x1 SWAP2 POP POP PUSH2 0x456 JUMP JUMPDEST DUP1 DUP1 PUSH2 0x448 SWAP1 PUSH2 0x1457 JUMP JUMPDEST SWAP2 POP POP PUSH2 0x333 JUMP JUMPDEST POP PUSH1 0x0 SWAP1 POP JUMPDEST SWAP3 SWAP2 POP POP JUMP JUMPDEST PUSH1 0x60 DUP1 PUSH1 0x0 DUP1 PUSH1 0x0 SWAP1 POP JUMPDEST PUSH1 0x1 SLOAD DUP2 LT ISZERO PUSH2 0x6D4 JUMPI PUSH2 0x528 PUSH1 0x0 DUP3 DUP2 SLOAD DUP2 LT PUSH2 0x488 JUMPI PUSH2 0x487 PUSH2 0x14FE JUMP JUMPDEST JUMPDEST SWAP1 PUSH1 0x0 MSTORE PUSH1 0x20 PUSH1 0x0 KECCAK256 SWAP1 PUSH1 0x3 MUL ADD PUSH1 0x0 ADD DUP1 SLOAD PUSH2 0x4A4 SWAP1 PUSH2 0x13F4 JUMP JUMPDEST DUP1 PUSH1 0x1F ADD PUSH1 0x20 DUP1 SWAP2 DIV MUL PUSH1 0x20 ADD PUSH1 0x40 MLOAD SWAP1 DUP2 ADD PUSH1 0x40 MSTORE DUP1 SWAP3 SWAP2 SWAP1 DUP2 DUP2 MSTORE PUSH1 0x20 ADD DUP3 DUP1 SLOAD PUSH2 0x4D0 SWAP1 PUSH2 0x13F4 JUMP JUMPDEST DUP1 ISZERO PUSH2 0x51D JUMPI DUP1 PUSH1 0x1F LT PUSH2 0x4F2 JUMPI PUSH2 0x100 DUP1 DUP4 SLOAD DIV MUL DUP4 MSTORE SWAP2 PUSH1 0x20 ADD SWAP2 PUSH2 0x51D JUMP JUMPDEST DUP3 ADD SWAP2 SWAP1 PUSH1 0x0 MSTORE PUSH1 0x20 PUSH1 0x0 KECCAK256 SWAP1 JUMPDEST DUP2 SLOAD DUP2 MSTORE SWAP1 PUSH1 0x1 ADD SWAP1 PUSH1 0x20 ADD DUP1 DUP4 GT PUSH2 0x500 JUMPI DUP3 SWAP1 SUB PUSH1 0x1F AND DUP3 ADD SWAP2 JUMPDEST POP POP POP POP POP DUP7 PUSH2 0xBE8 JUMP JUMPDEST ISZERO PUSH2 0x6C1 JUMPI PUSH1 0x0 DUP2 DUP2 SLOAD DUP2 LT PUSH2 0x541 JUMPI PUSH2 0x540 PUSH2 0x14FE JUMP JUMPDEST JUMPDEST SWAP1 PUSH1 0x0 MSTORE PUSH1 0x20 PUSH1 0x0 KECCAK256 SWAP1 PUSH1 0x3 MUL ADD PUSH1 0x0 ADD PUSH1 0x0 DUP3 DUP2 SLOAD DUP2 LT PUSH2 0x566 JUMPI PUSH2 0x565 PUSH2 0x14FE JUMP JUMPDEST JUMPDEST SWAP1 PUSH1 0x0 MSTORE PUSH1 0x20 PUSH1 0x0 KECCAK256 SWAP1 PUSH1 0x3 MUL ADD PUSH1 0x1 ADD PUSH1 0x0 DUP4 DUP2 SLOAD DUP2 LT PUSH2 0x58B JUMPI PUSH2 0x58A PUSH2 0x14FE JUMP JUMPDEST JUMPDEST SWAP1 PUSH1 0x0 MSTORE PUSH1 0x20 PUSH1 0x0 KECCAK256 SWAP1 PUSH1 0x3 MUL ADD PUSH1 0x2 ADD SLOAD DUP3 DUP1 SLOAD PUSH2 0x5A9 SWAP1 PUSH2 0x13F4 JUMP JUMPDEST DUP1 PUSH1 0x1F ADD PUSH1 0x20 DUP1 SWAP2 DIV MUL PUSH1 0x20 ADD PUSH1 0x40 MLOAD SWAP1 DUP2 ADD PUSH1 0x40 MSTORE DUP1 SWAP3 SWAP2 SWAP1 DUP2 DUP2 MSTORE PUSH1 0x20 ADD DUP3 DUP1 SLOAD PUSH2 0x5D5 SWAP1 PUSH2 0x13F4 JUMP JUMPDEST DUP1 ISZERO PUSH2 0x622 JUMPI DUP1 PUSH1 0x1F LT PUSH2 0x5F7 JUMPI PUSH2 0x100 DUP1 DUP4 SLOAD DIV MUL DUP4 MSTORE SWAP2 PUSH1 0x20 ADD SWAP2 PUSH2 0x622 JUMP JUMPDEST DUP3 ADD SWAP2 SWAP1 PUSH1 0x0 MSTORE PUSH1 0x20 PUSH1 0x0 KECCAK256 SWAP1 JUMPDEST DUP2 SLOAD DUP2 MSTORE SWAP1 PUSH1 0x1 ADD SWAP1 PUSH1 0x20 ADD DUP1 DUP4 GT PUSH2 0x605 JUMPI DUP3 SWAP1 SUB PUSH1 0x1F AND DUP3 ADD SWAP2 JUMPDEST POP POP POP POP POP SWAP3 POP DUP2 DUP1 SLOAD PUSH2 0x635 SWAP1 PUSH2 0x13F4 JUMP JUMPDEST DUP1 PUSH1 0x1F ADD PUSH1 0x20 DUP1 SWAP2 DIV MUL PUSH1 0x20 ADD PUSH1 0x40 MLOAD SWAP1 DUP2 ADD PUSH1 0x40 MSTORE DUP1 SWAP3 SWAP2 SWAP1 DUP2 DUP2 MSTORE PUSH1 0x20 ADD DUP3 DUP1 SLOAD PUSH2 0x661 SWAP1 PUSH2 0x13F4 JUMP JUMPDEST DUP1 ISZERO PUSH2 0x6AE JUMPI DUP1 PUSH1 0x1F LT PUSH2 0x683 JUMPI PUSH2 0x100 DUP1 DUP4 SLOAD DIV MUL DUP4 MSTORE SWAP2 PUSH1 0x20 ADD SWAP2 PUSH2 0x6AE JUMP JUMPDEST DUP3 ADD SWAP2 SWAP1 PUSH1 0x0 MSTORE PUSH1 0x20 PUSH1 0x0 KECCAK256 SWAP1 JUMPDEST DUP2 SLOAD DUP2 MSTORE SWAP1 PUSH1 0x1 ADD SWAP1 PUSH1 0x20 ADD DUP1 DUP4 GT PUSH2 0x691 JUMPI DUP3 SWAP1 SUB PUSH1 0x1F AND DUP3 ADD SWAP2 JUMPDEST POP POP POP POP POP SWAP2 POP SWAP4 POP SWAP4 POP SWAP4 POP POP PUSH2 0x710 JUMP JUMPDEST DUP1 DUP1 PUSH2 0x6CC SWAP1 PUSH2 0x1457 JUMP JUMPDEST SWAP2 POP POP PUSH2 0x467 JUMP JUMPDEST POP PUSH1 0x40 MLOAD PUSH32 0x8C379A000000000000000000000000000000000000000000000000000000000 DUP2 MSTORE PUSH1 0x4 ADD PUSH2 0x707 SWAP1 PUSH2 0x123C JUMP JUMPDEST PUSH1 0x40 MLOAD DUP1 SWAP2 SUB SWAP1 REVERT JUMPDEST SWAP2 SWAP4 SWAP1 SWAP3 POP JUMP JUMPDEST PUSH1 0x0 DUP1 DUP1 SLOAD SWAP1 POP SWAP1 POP SWAP1 JUMP JUMPDEST PUSH1 0x60 PUSH1 0x0 PUSH1 0x1 SLOAD PUSH8 0xFFFFFFFFFFFFFFFF DUP2 GT ISZERO PUSH2 0x743 JUMPI PUSH2 0x742 PUSH2 0x152D JUMP JUMPDEST JUMPDEST PUSH1 0x40 MLOAD SWAP1 DUP1 DUP3 MSTORE DUP1 PUSH1 0x20 MUL PUSH1 0x20 ADD DUP3 ADD PUSH1 0x40 MSTORE DUP1 ISZERO PUSH2 0x77C JUMPI DUP2 PUSH1 0x20 ADD JUMPDEST PUSH2 0x769 PUSH2 0xCC7 JUMP JUMPDEST DUP2 MSTORE PUSH1 0x20 ADD SWAP1 PUSH1 0x1 SWAP1 SUB SWAP1 DUP2 PUSH2 0x761 JUMPI SWAP1 POP JUMPDEST POP SWAP1 POP PUSH1 0x0 JUMPDEST PUSH1 0x1 SLOAD DUP2 LT ISZERO PUSH2 0x918 JUMPI PUSH1 0x0 DUP2 DUP2 SLOAD DUP2 LT PUSH2 0x7A0 JUMPI PUSH2 0x79F PUSH2 0x14FE JUMP JUMPDEST JUMPDEST SWAP1 PUSH1 0x0 MSTORE PUSH1 0x20 PUSH1 0x0 KECCAK256 SWAP1 PUSH1 0x3 MUL ADD PUSH1 0x40 MLOAD DUP1 PUSH1 0x60 ADD PUSH1 0x40 MSTORE SWAP1 DUP2 PUSH1 0x0 DUP3 ADD DUP1 SLOAD PUSH2 0x7C9 SWAP1 PUSH2 0x13F4 JUMP JUMPDEST DUP1 PUSH1 0x1F ADD PUSH1 0x20 DUP1 SWAP2 DIV MUL PUSH1 0x20 ADD PUSH1 0x40 MLOAD SWAP1 DUP2 ADD PUSH1 0x40 MSTORE DUP1 SWAP3 SWAP2 SWAP1 DUP2 DUP2 MSTORE PUSH1 0x20 ADD DUP3 DUP1 SLOAD PUSH2 0x7F5 SWAP1 PUSH2 0x13F4 JUMP JUMPDEST DUP1 ISZERO PUSH2 0x842 JUMPI DUP1 PUSH1 0x1F LT PUSH2 0x817 JUMPI PUSH2 0x100 DUP1 DUP4 SLOAD DIV MUL DUP4 MSTORE SWAP2 PUSH1 0x20 ADD SWAP2 PUSH2 0x842 JUMP JUMPDEST DUP3 ADD SWAP2 SWAP1 PUSH1 0x0 MSTORE PUSH1 0x20 PUSH1 0x0 KECCAK256 SWAP1 JUMPDEST DUP2 SLOAD DUP2 MSTORE SWAP1 PUSH1 0x1 ADD SWAP1 PUSH1 0x20 ADD DUP1 DUP4 GT PUSH2 0x825 JUMPI DUP3 SWAP1 SUB PUSH1 0x1F AND DUP3 ADD SWAP2 JUMPDEST POP POP POP POP POP DUP2 MSTORE PUSH1 0x20 ADD PUSH1 0x1 DUP3 ADD DUP1 SLOAD PUSH2 0x85B SWAP1 PUSH2 0x13F4 JUMP JUMPDEST DUP1 PUSH1 0x1F ADD PUSH1 0x20 DUP1 SWAP2 DIV MUL PUSH1 0x20 ADD PUSH1 0x40 MLOAD SWAP1 DUP2 ADD PUSH1 0x40 MSTORE DUP1 SWAP3 SWAP2 SWAP1 DUP2 DUP2 MSTORE PUSH1 0x20 ADD DUP3 DUP1 SLOAD PUSH2 0x887 SWAP1 PUSH2 0x13F4 JUMP JUMPDEST DUP1 ISZERO PUSH2 0x8D4 JUMPI DUP1 PUSH1 0x1F LT PUSH2 0x8A9 JUMPI PUSH2 0x100 DUP1 DUP4 SLOAD DIV MUL DUP4 MSTORE SWAP2 PUSH1 0x20 ADD SWAP2 PUSH2 0x8D4 JUMP JUMPDEST DUP3 ADD SWAP2 SWAP1 PUSH1 0x0 MSTORE PUSH1 0x20 PUSH1 0x0 KECCAK256 SWAP1 JUMPDEST DUP2 SLOAD DUP2 MSTORE SWAP1 PUSH1 0x1 ADD SWAP1 PUSH1 0x20 ADD DUP1 DUP4 GT PUSH2 0x8B7 JUMPI DUP3 SWAP1 SUB PUSH1 0x1F AND DUP3 ADD SWAP2 JUMPDEST POP POP POP POP POP DUP2 MSTORE PUSH1 0x20 ADD PUSH1 0x2 DUP3 ADD SLOAD DUP2 MSTORE POP POP DUP3 DUP3 DUP2 MLOAD DUP2 LT PUSH2 0x8FA JUMPI PUSH2 0x8F9 PUSH2 0x14FE JUMP JUMPDEST JUMPDEST PUSH1 0x20 MUL PUSH1 0x20 ADD ADD DUP2 SWAP1 MSTORE POP DUP1 DUP1 PUSH2 0x910 SWAP1 PUSH2 0x1457 JUMP JUMPDEST SWAP2 POP POP PUSH2 0x782 JUMP JUMPDEST POP DUP1 SWAP2 POP POP SWAP1 JUMP JUMPDEST PUSH1 0x0 DUP1 PUSH1 0x40 MLOAD DUP1 PUSH1 0x60 ADD PUSH1 0x40 MSTORE DUP1 DUP7 DUP2 MSTORE PUSH1 0x20 ADD DUP6 DUP2 MSTORE PUSH1 0x20 ADD DUP5 DUP2 MSTORE POP SWAP1 POP PUSH1 0x0 DUP2 SWAP1 DUP1 PUSH1 0x1 DUP2 SLOAD ADD DUP1 DUP3 SSTORE DUP1 SWAP2 POP POP PUSH1 0x1 SWAP1 SUB SWAP1 PUSH1 0x0 MSTORE PUSH1 0x20 PUSH1 0x0 KECCAK256 SWAP1 PUSH1 0x3 MUL ADD PUSH1 0x0 SWAP1 SWAP2 SWAP1 SWAP2 SWAP1 SWAP2 POP PUSH1 0x0 DUP3 ADD MLOAD DUP2 PUSH1 0x0 ADD SWAP1 DUP1 MLOAD SWAP1 PUSH1 0x20 ADD SWAP1 PUSH2 0x988 SWAP3 SWAP2 SWAP1 PUSH2 0xC41 JUMP JUMPDEST POP PUSH1 0x20 DUP3 ADD MLOAD DUP2 PUSH1 0x1 ADD SWAP1 DUP1 MLOAD SWAP1 PUSH1 0x20 ADD SWAP1 PUSH2 0x9A5 SWAP3 SWAP2 SWAP1 PUSH2 0xC41 JUMP JUMPDEST POP PUSH1 0x40 DUP3 ADD MLOAD DUP2 PUSH1 0x2 ADD SSTORE POP POP PUSH1 0x1 PUSH1 0x0 DUP2 SLOAD DUP1 SWAP3 SWAP2 SWAP1 PUSH2 0x9C5 SWAP1 PUSH2 0x1457 JUMP JUMPDEST SWAP2 SWAP1 POP SSTORE POP PUSH1 0x1 SLOAD SWAP2 POP POP SWAP4 SWAP3 POP POP POP JUMP JUMPDEST PUSH1 0x0 DUP1 PUSH1 0x1 SLOAD GT PUSH2 0x9E7 JUMPI PUSH1 0x0 DUP1 REVERT JUMPDEST PUSH1 0x0 JUMPDEST PUSH1 0x1 SLOAD DUP2 LT ISZERO PUSH2 0xBDD JUMPI PUSH2 0xAAB PUSH1 0x0 DUP3 DUP2 SLOAD DUP2 LT PUSH2 0xA0B JUMPI PUSH2 0xA0A PUSH2 0x14FE JUMP JUMPDEST JUMPDEST SWAP1 PUSH1 0x0 MSTORE PUSH1 0x20 PUSH1 0x0 KECCAK256 SWAP1 PUSH1 0x3 MUL ADD PUSH1 0x0 ADD DUP1 SLOAD PUSH2 0xA27 SWAP1 PUSH2 0x13F4 JUMP JUMPDEST DUP1 PUSH1 0x1F ADD PUSH1 0x20 DUP1 SWAP2 DIV MUL PUSH1 0x20 ADD PUSH1 0x40 MLOAD SWAP1 DUP2 ADD PUSH1 0x40 MSTORE DUP1 SWAP3 SWAP2 SWAP1 DUP2 DUP2 MSTORE PUSH1 0x20 ADD DUP3 DUP1 SLOAD PUSH2 0xA53 SWAP1 PUSH2 0x13F4 JUMP JUMPDEST DUP1 ISZERO PUSH2 0xAA0 JUMPI DUP1 PUSH1 0x1F LT PUSH2 0xA75 JUMPI PUSH2 0x100 DUP1 DUP4 SLOAD DIV MUL DUP4 MSTORE SWAP2 PUSH1 0x20 ADD SWAP2 PUSH2 0xAA0 JUMP JUMPDEST DUP3 ADD SWAP2 SWAP1 PUSH1 0x0 MSTORE PUSH1 0x20 PUSH1 0x0 KECCAK256 SWAP1 JUMPDEST DUP2 SLOAD DUP2 MSTORE SWAP1 PUSH1 0x1 ADD SWAP1 PUSH1 0x20 ADD DUP1 DUP4 GT PUSH2 0xA83 JUMPI DUP3 SWAP1 SUB PUSH1 0x1F AND DUP3 ADD SWAP2 JUMPDEST POP POP POP POP POP DUP5 PUSH2 0xBE8 JUMP JUMPDEST ISZERO PUSH2 0xBCA JUMPI PUSH1 0x0 PUSH1 0x1 DUP1 SLOAD PUSH2 0xAC0 SWAP2 SWAP1 PUSH2 0x133E JUMP JUMPDEST DUP2 SLOAD DUP2 LT PUSH2 0xAD1 JUMPI PUSH2 0xAD0 PUSH2 0x14FE JUMP JUMPDEST JUMPDEST SWAP1 PUSH1 0x0 MSTORE PUSH1 0x20 PUSH1 0x0 KECCAK256 SWAP1 PUSH1 0x3 MUL ADD PUSH1 0x0 DUP3 DUP2 SLOAD DUP2 LT PUSH2 0xAF3 JUMPI PUSH2 0xAF2 PUSH2 0x14FE JUMP JUMPDEST JUMPDEST SWAP1 PUSH1 0x0 MSTORE PUSH1 0x20 PUSH1 0x0 KECCAK256 SWAP1 PUSH1 0x3 MUL ADD PUSH1 0x0 DUP3 ADD DUP2 PUSH1 0x0 ADD SWAP1 DUP1 SLOAD PUSH2 0xB15 SWAP1 PUSH2 0x13F4 JUMP JUMPDEST PUSH2 0xB20 SWAP3 SWAP2 SWAP1 PUSH2 0xCE8 JUMP JUMPDEST POP PUSH1 0x1 DUP3 ADD DUP2 PUSH1 0x1 ADD SWAP1 DUP1 SLOAD PUSH2 0xB35 SWAP1 PUSH2 0x13F4 JUMP JUMPDEST PUSH2 0xB40 SWAP3 SWAP2 SWAP1 PUSH2 0xCE8 JUMP JUMPDEST POP PUSH1 0x2 DUP3 ADD SLOAD DUP2 PUSH1 0x2 ADD SSTORE SWAP1 POP POP PUSH1 0x0 PUSH1 0x1 DUP1 SLOAD PUSH2 0xB5E SWAP2 SWAP1 PUSH2 0x133E JUMP JUMPDEST DUP2 SLOAD DUP2 LT PUSH2 0xB6F JUMPI PUSH2 0xB6E PUSH2 0x14FE JUMP JUMPDEST JUMPDEST SWAP1 PUSH1 0x0 MSTORE PUSH1 0x20 PUSH1 0x0 KECCAK256 SWAP1 PUSH1 0x3 MUL ADD PUSH1 0x0 DUP1 DUP3 ADD PUSH1 0x0 PUSH2 0xB8E SWAP2 SWAP1 PUSH2 0xD75 JUMP JUMPDEST PUSH1 0x1 DUP3 ADD PUSH1 0x0 PUSH2 0xB9E SWAP2 SWAP1 PUSH2 0xD75 JUMP JUMPDEST PUSH1 0x2 DUP3 ADD PUSH1 0x0 SWAP1 SSTORE POP POP PUSH1 0x1 PUSH1 0x0 DUP2 SLOAD DUP1 SWAP3 SWAP2 SWAP1 PUSH2 0xBBB SWAP1 PUSH2 0x13CA JUMP JUMPDEST SWAP2 SWAP1 POP SSTORE POP PUSH1 0x1 SWAP2 POP POP PUSH2 0xBE3 JUMP JUMPDEST DUP1 DUP1 PUSH2 0xBD5 SWAP1 PUSH2 0x1457 JUMP JUMPDEST SWAP2 POP POP PUSH2 0x9EA JUMP JUMPDEST POP PUSH1 0x0 SWAP1 POP JUMPDEST SWAP2 SWAP1 POP JUMP JUMPDEST PUSH1 0x0 DUP2 PUSH1 0x40 MLOAD PUSH1 0x20 ADD PUSH2 0xBFB SWAP2 SWAP1 PUSH2 0x11A3 JUMP JUMPDEST PUSH1 0x40 MLOAD PUSH1 0x20 DUP2 DUP4 SUB SUB DUP2 MSTORE SWAP1 PUSH1 0x40 MSTORE DUP1 MLOAD SWAP1 PUSH1 0x20 ADD KECCAK256 DUP4 PUSH1 0x40 MLOAD PUSH1 0x20 ADD PUSH2 0xC22 SWAP2 SWAP1 PUSH2 0x11A3 JUMP JUMPDEST PUSH1 0x40 MLOAD PUSH1 0x20 DUP2 DUP4 SUB SUB DUP2 MSTORE SWAP1 PUSH1 0x40 MSTORE DUP1 MLOAD SWAP1 PUSH1 0x20 ADD KECCAK256 EQ SWAP1 POP SWAP3 SWAP2 POP POP JUMP JUMPDEST DUP3 DUP1 SLOAD PUSH2 0xC4D SWAP1 PUSH2 0x13F4 JUMP JUMPDEST SWAP1 PUSH1 0x0 MSTORE PUSH1 0x20 PUSH1 0x0 KECCAK256 SWAP1 PUSH1 0x1F ADD PUSH1 0x20 SWAP1 DIV DUP2 ADD SWAP3 DUP3 PUSH2 0xC6F JUMPI PUSH1 0x0 DUP6 SSTORE PUSH2 0xCB6 JUMP JUMPDEST DUP3 PUSH1 0x1F LT PUSH2 0xC88 JUMPI DUP1 MLOAD PUSH1 0xFF NOT AND DUP4 DUP1 ADD OR DUP6 SSTORE PUSH2 0xCB6 JUMP JUMPDEST DUP3 DUP1 ADD PUSH1 0x1 ADD DUP6 SSTORE DUP3 ISZERO PUSH2 0xCB6 JUMPI SWAP2 DUP3 ADD JUMPDEST DUP3 DUP2 GT ISZERO PUSH2 0xCB5 JUMPI DUP3 MLOAD DUP3 SSTORE SWAP2 PUSH1 0x20 ADD SWAP2 SWAP1 PUSH1 0x1 ADD SWAP1 PUSH2 0xC9A JUMP JUMPDEST JUMPDEST POP SWAP1 POP PUSH2 0xCC3 SWAP2 SWAP1 PUSH2 0xDB5 JUMP JUMPDEST POP SWAP1 JUMP JUMPDEST PUSH1 0x40 MLOAD DUP1 PUSH1 0x60 ADD PUSH1 0x40 MSTORE DUP1 PUSH1 0x60 DUP2 MSTORE PUSH1 0x20 ADD PUSH1 0x60 DUP2 MSTORE PUSH1 0x20 ADD PUSH1 0x0 DUP2 MSTORE POP SWAP1 JUMP JUMPDEST DUP3 DUP1 SLOAD PUSH2 0xCF4 SWAP1 PUSH2 0x13F4 JUMP JUMPDEST SWAP1 PUSH1 0x0 MSTORE PUSH1 0x20 PUSH1 0x0 KECCAK256 SWAP1 PUSH1 0x1F ADD PUSH1 0x20 SWAP1 DIV DUP2 ADD SWAP3 DUP3 PUSH2 0xD16 JUMPI PUSH1 0x0 DUP6 SSTORE PUSH2 0xD64 JUMP JUMPDEST DUP3 PUSH1 0x1F LT PUSH2 0xD27 JUMPI DUP1 SLOAD DUP6 SSTORE PUSH2 0xD64 JUMP JUMPDEST DUP3 DUP1 ADD PUSH1 0x1 ADD DUP6 SSTORE DUP3 ISZERO PUSH2 0xD64 JUMPI PUSH1 0x0 MSTORE PUSH1 0x20 PUSH1 0x0 KECCAK256 SWAP2 PUSH1 0x1F ADD PUSH1 0x20 SWAP1 DIV DUP3 ADD JUMPDEST DUP3 DUP2 GT ISZERO PUSH2 0xD63 JUMPI DUP3 SLOAD DUP3 SSTORE SWAP2 PUSH1 0x1 ADD SWAP2 SWAP1 PUSH1 0x1 ADD SWAP1 PUSH2 0xD48 JUMP JUMPDEST JUMPDEST POP SWAP1 POP PUSH2 0xD71 SWAP2 SWAP1 PUSH2 0xDB5 JUMP JUMPDEST POP SWAP1 JUMP JUMPDEST POP DUP1 SLOAD PUSH2 0xD81 SWAP1 PUSH2 0x13F4 JUMP JUMPDEST PUSH1 0x0 DUP3 SSTORE DUP1 PUSH1 0x1F LT PUSH2 0xD93 JUMPI POP PUSH2 0xDB2 JUMP JUMPDEST PUSH1 0x1F ADD PUSH1 0x20 SWAP1 DIV SWAP1 PUSH1 0x0 MSTORE PUSH1 0x20 PUSH1 0x0 KECCAK256 SWAP1 DUP2 ADD SWAP1 PUSH2 0xDB1 SWAP2 SWAP1 PUSH2 0xDB5 JUMP JUMPDEST JUMPDEST POP JUMP JUMPDEST JUMPDEST DUP1 DUP3 GT ISZERO PUSH2 0xDCE JUMPI PUSH1 0x0 DUP2 PUSH1 0x0 SWAP1 SSTORE POP PUSH1 0x1 ADD PUSH2 0xDB6 JUMP JUMPDEST POP SWAP1 JUMP JUMPDEST PUSH1 0x0 PUSH2 0xDE5 PUSH2 0xDE0 DUP5 PUSH2 0x129C JUMP JUMPDEST PUSH2 0x1277 JUMP JUMPDEST SWAP1 POP DUP3 DUP2 MSTORE PUSH1 0x20 DUP2 ADD DUP5 DUP5 DUP5 ADD GT ISZERO PUSH2 0xE01 JUMPI PUSH2 0xE00 PUSH2 0x1561 JUMP JUMPDEST JUMPDEST PUSH2 0xE0C DUP5 DUP3 DUP6 PUSH2 0x1388 JUMP JUMPDEST POP SWAP4 SWAP3 POP POP POP JUMP JUMPDEST PUSH1 0x0 DUP3 PUSH1 0x1F DUP4 ADD SLT PUSH2 0xE29 JUMPI PUSH2 0xE28 PUSH2 0x155C JUMP JUMPDEST JUMPDEST DUP2 CALLDATALOAD PUSH2 0xE39 DUP5 DUP3 PUSH1 0x20 DUP7 ADD PUSH2 0xDD2 JUMP JUMPDEST SWAP2 POP POP SWAP3 SWAP2 POP POP JUMP JUMPDEST PUSH1 0x0 DUP2 CALLDATALOAD SWAP1 POP PUSH2 0xE51 DUP2 PUSH2 0x15AA JUMP JUMPDEST SWAP3 SWAP2 POP POP JUMP JUMPDEST PUSH1 0x0 PUSH1 0x20 DUP3 DUP5 SUB SLT ISZERO PUSH2 0xE6D JUMPI PUSH2 0xE6C PUSH2 0x156B JUMP JUMPDEST JUMPDEST PUSH1 0x0 DUP3 ADD CALLDATALOAD PUSH8 0xFFFFFFFFFFFFFFFF DUP2 GT ISZERO PUSH2 0xE8B JUMPI PUSH2 0xE8A PUSH2 0x1566 JUMP JUMPDEST JUMPDEST PUSH2 0xE97 DUP5 DUP3 DUP6 ADD PUSH2 0xE14 JUMP JUMPDEST SWAP2 POP POP SWAP3 SWAP2 POP POP JUMP JUMPDEST PUSH1 0x0 DUP1 PUSH1 0x40 DUP4 DUP6 SUB SLT ISZERO PUSH2 0xEB7 JUMPI PUSH2 0xEB6 PUSH2 0x156B JUMP JUMPDEST JUMPDEST PUSH1 0x0 DUP4 ADD CALLDATALOAD PUSH8 0xFFFFFFFFFFFFFFFF DUP2 GT ISZERO PUSH2 0xED5 JUMPI PUSH2 0xED4 PUSH2 0x1566 JUMP JUMPDEST JUMPDEST PUSH2 0xEE1 DUP6 DUP3 DUP7 ADD PUSH2 0xE14 JUMP JUMPDEST SWAP3 POP POP PUSH1 0x20 DUP4 ADD CALLDATALOAD PUSH8 0xFFFFFFFFFFFFFFFF DUP2 GT ISZERO PUSH2 0xF02 JUMPI PUSH2 0xF01 PUSH2 0x1566 JUMP JUMPDEST JUMPDEST PUSH2 0xF0E DUP6 DUP3 DUP7 ADD PUSH2 0xE14 JUMP JUMPDEST SWAP2 POP POP SWAP3 POP SWAP3 SWAP1 POP JUMP JUMPDEST PUSH1 0x0 DUP1 PUSH1 0x0 PUSH1 0x60 DUP5 DUP7 SUB SLT ISZERO PUSH2 0xF31 JUMPI PUSH2 0xF30 PUSH2 0x156B JUMP JUMPDEST JUMPDEST PUSH1 0x0 DUP5 ADD CALLDATALOAD PUSH8 0xFFFFFFFFFFFFFFFF DUP2 GT ISZERO PUSH2 0xF4F JUMPI PUSH2 0xF4E PUSH2 0x1566 JUMP JUMPDEST JUMPDEST PUSH2 0xF5B DUP7 DUP3 DUP8 ADD PUSH2 0xE14 JUMP JUMPDEST SWAP4 POP POP PUSH1 0x20 DUP5 ADD CALLDATALOAD PUSH8 0xFFFFFFFFFFFFFFFF DUP2 GT ISZERO PUSH2 0xF7C JUMPI PUSH2 0xF7B PUSH2 0x1566 JUMP JUMPDEST JUMPDEST PUSH2 0xF88 DUP7 DUP3 DUP8 ADD PUSH2 0xE14 JUMP JUMPDEST SWAP3 POP POP PUSH1 0x40 PUSH2 0xF99 DUP7 DUP3 DUP8 ADD PUSH2 0xE42 JUMP JUMPDEST SWAP2 POP POP SWAP3 POP SWAP3 POP SWAP3 JUMP JUMPDEST PUSH1 0x0 PUSH1 0x20 DUP3 DUP5 SUB SLT ISZERO PUSH2 0xFB9 JUMPI PUSH2 0xFB8 PUSH2 0x156B JUMP JUMPDEST JUMPDEST PUSH1 0x0 PUSH2 0xFC7 DUP5 DUP3 DUP6 ADD PUSH2 0xE42 JUMP JUMPDEST SWAP2 POP POP SWAP3 SWAP2 POP POP JUMP JUMPDEST PUSH1 0x0 PUSH2 0xFDC DUP4 DUP4 PUSH2 0x112E JUMP JUMPDEST SWAP1 POP SWAP3 SWAP2 POP POP JUMP JUMPDEST PUSH1 0x0 PUSH2 0xFEF DUP3 PUSH2 0x12DD JUMP JUMPDEST PUSH2 0xFF9 DUP2 DUP6 PUSH2 0x1300 JUMP JUMPDEST SWAP4 POP DUP4 PUSH1 0x20 DUP3 MUL DUP6 ADD PUSH2 0x100B DUP6 PUSH2 0x12CD JUMP JUMPDEST DUP1 PUSH1 0x0 JUMPDEST DUP6 DUP2 LT ISZERO PUSH2 0x1047 JUMPI DUP5 DUP5 SUB DUP10 MSTORE DUP2 MLOAD PUSH2 0x1028 DUP6 DUP3 PUSH2 0xFD0 JUMP JUMPDEST SWAP5 POP PUSH2 0x1033 DUP4 PUSH2 0x12F3 JUMP JUMPDEST SWAP3 POP PUSH1 0x20 DUP11 ADD SWAP10 POP POP PUSH1 0x1 DUP2 ADD SWAP1 POP PUSH2 0x100F JUMP JUMPDEST POP DUP3 SWAP8 POP DUP8 SWAP6 POP POP POP POP POP POP SWAP3 SWAP2 POP POP JUMP JUMPDEST PUSH2 0x1062 DUP2 PUSH2 0x1372 JUMP JUMPDEST DUP3 MSTORE POP POP JUMP JUMPDEST PUSH1 0x0 PUSH2 0x1073 DUP3 PUSH2 0x12E8 JUMP JUMPDEST PUSH2 0x107D DUP2 DUP6 PUSH2 0x1311 JUMP JUMPDEST SWAP4 POP PUSH2 0x108D DUP2 DUP6 PUSH1 0x20 DUP7 ADD PUSH2 0x1397 JUMP JUMPDEST PUSH2 0x1096 DUP2 PUSH2 0x1570 JUMP JUMPDEST DUP5 ADD SWAP2 POP POP SWAP3 SWAP2 POP POP JUMP JUMPDEST PUSH1 0x0 PUSH2 0x10AC DUP3 PUSH2 0x12E8 JUMP JUMPDEST PUSH2 0x10B6 DUP2 DUP6 PUSH2 0x1322 JUMP JUMPDEST SWAP4 POP PUSH2 0x10C6 DUP2 DUP6 PUSH1 0x20 DUP7 ADD PUSH2 0x1397 JUMP JUMPDEST PUSH2 0x10CF DUP2 PUSH2 0x1570 JUMP JUMPDEST DUP5 ADD SWAP2 POP POP SWAP3 SWAP2 POP POP JUMP JUMPDEST PUSH1 0x0 PUSH2 0x10E5 DUP3 PUSH2 0x12E8 JUMP JUMPDEST PUSH2 0x10EF DUP2 DUP6 PUSH2 0x1333 JUMP JUMPDEST SWAP4 POP PUSH2 0x10FF DUP2 DUP6 PUSH1 0x20 DUP7 ADD PUSH2 0x1397 JUMP JUMPDEST DUP1 DUP5 ADD SWAP2 POP POP SWAP3 SWAP2 POP POP JUMP JUMPDEST PUSH1 0x0 PUSH2 0x1118 PUSH1 0x11 DUP4 PUSH2 0x1322 JUMP JUMPDEST SWAP2 POP PUSH2 0x1123 DUP3 PUSH2 0x1581 JUMP JUMPDEST PUSH1 0x20 DUP3 ADD SWAP1 POP SWAP2 SWAP1 POP JUMP JUMPDEST PUSH1 0x0 PUSH1 0x60 DUP4 ADD PUSH1 0x0 DUP4 ADD MLOAD DUP5 DUP3 SUB PUSH1 0x0 DUP7 ADD MSTORE PUSH2 0x114B DUP3 DUP3 PUSH2 0x1068 JUMP JUMPDEST SWAP2 POP POP PUSH1 0x20 DUP4 ADD MLOAD DUP5 DUP3 SUB PUSH1 0x20 DUP7 ADD MSTORE PUSH2 0x1165 DUP3 DUP3 PUSH2 0x1068 JUMP JUMPDEST SWAP2 POP POP PUSH1 0x40 DUP4 ADD MLOAD PUSH2 0x117A PUSH1 0x40 DUP7 ADD DUP3 PUSH2 0x1185 JUMP JUMPDEST POP DUP1 SWAP2 POP POP SWAP3 SWAP2 POP POP JUMP JUMPDEST PUSH2 0x118E DUP2 PUSH2 0x137E JUMP JUMPDEST DUP3 MSTORE POP POP JUMP JUMPDEST PUSH2 0x119D DUP2 PUSH2 0x137E JUMP JUMPDEST DUP3 MSTORE POP POP JUMP JUMPDEST PUSH1 0x0 PUSH2 0x11AF DUP3 DUP5 PUSH2 0x10DA JUMP JUMPDEST SWAP2 POP DUP2 SWAP1 POP SWAP3 SWAP2 POP POP JUMP JUMPDEST PUSH1 0x0 PUSH1 0x20 DUP3 ADD SWAP1 POP DUP2 DUP2 SUB PUSH1 0x0 DUP4 ADD MSTORE PUSH2 0x11D4 DUP2 DUP5 PUSH2 0xFE4 JUMP JUMPDEST SWAP1 POP SWAP3 SWAP2 POP POP JUMP JUMPDEST PUSH1 0x0 PUSH1 0x20 DUP3 ADD SWAP1 POP PUSH2 0x11F1 PUSH1 0x0 DUP4 ADD DUP5 PUSH2 0x1059 JUMP JUMPDEST SWAP3 SWAP2 POP POP JUMP JUMPDEST PUSH1 0x0 PUSH1 0x60 DUP3 ADD SWAP1 POP DUP2 DUP2 SUB PUSH1 0x0 DUP4 ADD MSTORE PUSH2 0x1211 DUP2 DUP7 PUSH2 0x10A1 JUMP JUMPDEST SWAP1 POP DUP2 DUP2 SUB PUSH1 0x20 DUP4 ADD MSTORE PUSH2 0x1225 DUP2 DUP6 PUSH2 0x10A1 JUMP JUMPDEST SWAP1 POP PUSH2 0x1234 PUSH1 0x40 DUP4 ADD DUP5 PUSH2 0x1194 JUMP JUMPDEST SWAP5 SWAP4 POP POP POP POP JUMP JUMPDEST PUSH1 0x0 PUSH1 0x20 DUP3 ADD SWAP1 POP DUP2 DUP2 SUB PUSH1 0x0 DUP4 ADD MSTORE PUSH2 0x1255 DUP2 PUSH2 0x110B JUMP JUMPDEST SWAP1 POP SWAP2 SWAP1 POP JUMP JUMPDEST PUSH1 0x0 PUSH1 0x20 DUP3 ADD SWAP1 POP PUSH2 0x1271 PUSH1 0x0 DUP4 ADD DUP5 PUSH2 0x1194 JUMP JUMPDEST SWAP3 SWAP2 POP POP JUMP JUMPDEST PUSH1 0x0 PUSH2 0x1281 PUSH2 0x1292 JUMP JUMPDEST SWAP1 POP PUSH2 0x128D DUP3 DUP3 PUSH2 0x1426 JUMP JUMPDEST SWAP2 SWAP1 POP JUMP JUMPDEST PUSH1 0x0 PUSH1 0x40 MLOAD SWAP1 POP SWAP1 JUMP JUMPDEST PUSH1 0x0 PUSH8 0xFFFFFFFFFFFFFFFF DUP3 GT ISZERO PUSH2 0x12B7 JUMPI PUSH2 0x12B6 PUSH2 0x152D JUMP JUMPDEST JUMPDEST PUSH2 0x12C0 DUP3 PUSH2 0x1570 JUMP JUMPDEST SWAP1 POP PUSH1 0x20 DUP2 ADD SWAP1 POP SWAP2 SWAP1 POP JUMP JUMPDEST PUSH1 0x0 DUP2 SWAP1 POP PUSH1 0x20 DUP3 ADD SWAP1 POP SWAP2 SWAP1 POP JUMP JUMPDEST PUSH1 0x0 DUP2 MLOAD SWAP1 POP SWAP2 SWAP1 POP JUMP JUMPDEST PUSH1 0x0 DUP2 MLOAD SWAP1 POP SWAP2 SWAP1 POP JUMP JUMPDEST PUSH1 0x0 PUSH1 0x20 DUP3 ADD SWAP1 POP SWAP2 SWAP1 POP JUMP JUMPDEST PUSH1 0x0 DUP3 DUP3 MSTORE PUSH1 0x20 DUP3 ADD SWAP1 POP SWAP3 SWAP2 POP POP JUMP JUMPDEST PUSH1 0x0 DUP3 DUP3 MSTORE PUSH1 0x20 DUP3 ADD SWAP1 POP SWAP3 SWAP2 POP POP JUMP JUMPDEST PUSH1 0x0 DUP3 DUP3 MSTORE PUSH1 0x20 DUP3 ADD SWAP1 POP SWAP3 SWAP2 POP POP JUMP JUMPDEST PUSH1 0x0 DUP2 SWAP1 POP SWAP3 SWAP2 POP POP JUMP JUMPDEST PUSH1 0x0 PUSH2 0x1349 DUP3 PUSH2 0x137E JUMP JUMPDEST SWAP2 POP PUSH2 0x1354 DUP4 PUSH2 0x137E JUMP JUMPDEST SWAP3 POP DUP3 DUP3 LT ISZERO PUSH2 0x1367 JUMPI PUSH2 0x1366 PUSH2 0x14A0 JUMP JUMPDEST JUMPDEST DUP3 DUP3 SUB SWAP1 POP SWAP3 SWAP2 POP POP JUMP JUMPDEST PUSH1 0x0 DUP2 ISZERO ISZERO SWAP1 POP SWAP2 SWAP1 POP JUMP JUMPDEST PUSH1 0x0 DUP2 SWAP1 POP SWAP2 SWAP1 POP JUMP JUMPDEST DUP3 DUP2 DUP4 CALLDATACOPY PUSH1 0x0 DUP4 DUP4 ADD MSTORE POP POP POP JUMP JUMPDEST PUSH1 0x0 JUMPDEST DUP4 DUP2 LT ISZERO PUSH2 0x13B5 JUMPI DUP1 DUP3 ADD MLOAD DUP2 DUP5 ADD MSTORE PUSH1 0x20 DUP2 ADD SWAP1 POP PUSH2 0x139A JUMP JUMPDEST DUP4 DUP2 GT ISZERO PUSH2 0x13C4 JUMPI PUSH1 0x0 DUP5 DUP5 ADD MSTORE JUMPDEST POP POP POP POP JUMP JUMPDEST PUSH1 0x0 PUSH2 0x13D5 DUP3 PUSH2 0x137E JUMP JUMPDEST SWAP2 POP PUSH1 0x0 DUP3 EQ ISZERO PUSH2 0x13E9 JUMPI PUSH2 0x13E8 PUSH2 0x14A0 JUMP JUMPDEST JUMPDEST PUSH1 0x1 DUP3 SUB SWAP1 POP SWAP2 SWAP1 POP JUMP JUMPDEST PUSH1 0x0 PUSH1 0x2 DUP3 DIV SWAP1 POP PUSH1 0x1 DUP3 AND DUP1 PUSH2 0x140C JUMPI PUSH1 0x7F DUP3 AND SWAP2 POP JUMPDEST PUSH1 0x20 DUP3 LT DUP2 EQ ISZERO PUSH2 0x1420 JUMPI PUSH2 0x141F PUSH2 0x14CF JUMP JUMPDEST JUMPDEST POP SWAP2 SWAP1 POP JUMP JUMPDEST PUSH2 0x142F DUP3 PUSH2 0x1570 JUMP JUMPDEST DUP2 ADD DUP2 DUP2 LT PUSH8 0xFFFFFFFFFFFFFFFF DUP3 GT OR ISZERO PUSH2 0x144E JUMPI PUSH2 0x144D PUSH2 0x152D JUMP JUMPDEST JUMPDEST DUP1 PUSH1 0x40 MSTORE POP POP POP JUMP JUMPDEST PUSH1 0x0 PUSH2 0x1462 DUP3 PUSH2 0x137E JUMP JUMPDEST SWAP2 POP PUSH32 0xFFFFFFFFFFFFFFFFFFFFFFFFFFFFFFFFFFFFFFFFFFFFFFFFFFFFFFFFFFFFFFFF DUP3 EQ ISZERO PUSH2 0x1495 JUMPI PUSH2 0x1494 PUSH2 0x14A0 JUMP JUMPDEST JUMPDEST PUSH1 0x1 DUP3 ADD SWAP1 POP SWAP2 SWAP1 POP JUMP JUMPDEST PUSH32 0x4E487B7100000000000000000000000000000000000000000000000000000000 PUSH1 0x0 MSTORE PUSH1 0x11 PUSH1 0x4 MSTORE PUSH1 0x24 PUSH1 0x0 REVERT JUMPDEST PUSH32 0x4E487B7100000000000000000000000000000000000000000000000000000000 PUSH1 0x0 MSTORE PUSH1 0x22 PUSH1 0x4 MSTORE PUSH1 0x24 PUSH1 0x0 REVERT JUMPDEST PUSH32 0x4E487B7100000000000000000000000000000000000000000000000000000000 PUSH1 0x0 MSTORE PUSH1 0x32 PUSH1 0x4 MSTORE PUSH1 0x24 PUSH1 0x0 REVERT JUMPDEST PUSH32 0x4E487B7100000000000000000000000000000000000000000000000000000000 PUSH1 0x0 MSTORE PUSH1 0x41 PUSH1 0x4 MSTORE PUSH1 0x24 PUSH1 0x0 REVERT JUMPDEST PUSH1 0x0 DUP1 REVERT JUMPDEST PUSH1 0x0 DUP1 REVERT JUMPDEST PUSH1 0x0 DUP1 REVERT JUMPDEST PUSH1 0x0 DUP1 REVERT JUMPDEST PUSH1 0x0 PUSH1 0x1F NOT PUSH1 0x1F DUP4 ADD AND SWAP1 POP SWAP2 SWAP1 POP JUMP JUMPDEST PUSH32 0x636F756E747279206E6F7420666F756E64000000000000000000000000000000 PUSH1 0x0 DUP3 ADD MSTORE POP JUMP JUMPDEST PUSH2 0x15B3 DUP2 PUSH2 0x137E JUMP JUMPDEST DUP2 EQ PUSH2 0x15BE JUMPI PUSH1 0x0 DUP1 REVERT JUMPDEST POP JUMP INVALID LOG2 PUSH5 0x6970667358 0x22 SLT KECCAK256 0xD8 0x24 BYTE MUL 0xDA 0xC6 PUSH14 0x39C2C8173027868BE18C8B66DF22 0xB9 CODECOPY 0xD7 TIMESTAMP GT 0xF7 GASPRICE DUP2 0x24 PC 0xC8 PUSH5 0x736F6C6343 STOP ADDMOD SMOD STOP CALLER "
				},
				"gasEstimates": {
					"creation": {
						"codeDepositCost": "1124600",
						"executionCost": "6181",
						"totalCost": "1130781"
					},
					"external": {
						"countries(uint256)": "infinite",
						"deleteCountry(string)": "infinite",
						"getCountries()": "infinite",
						"getCountry(string)": "infinite",
						"getTotalCountries()": "2445",
						"insert(string,string,uint256)": "infinite",
						"totalCountries()": "2452",
						"updateLeader(string,string)": "infinite"
					},
					"internal": {
						"compareStrings(string memory,string memory)": "infinite"
					}
				},
				"methodIdentifiers": {
					"countries(uint256)": "08e9daa5",
					"deleteCountry(string)": "cae65058",
					"getCountries()": "beca8009",
					"getCountry(string)": "848924cb",
					"getTotalCountries()": "acf75458",
					"insert(string,string,uint256)": "c1356d26",
					"totalCountries()": "62738129",
					"updateLeader(string,string)": "81ba02be"
				}
			},
			"storageLayout": {
				"storage": [
					{
						"astId": 13,
						"contract": "contracts/Test.sol:CrudApp",
						"label": "countries",
						"offset": 0,
						"slot": "0",
						"type": "t_array(t_struct(country)9_storage)dyn_storage"
					},
					{
						"astId": 15,
						"contract": "contracts/Test.sol:CrudApp",
						"label": "totalCountries",
						"offset": 0,
						"slot": "1",
						"type": "t_uint256"
					}
				],
				"types": {
					"t_array(t_struct(country)9_storage)dyn_storage": {
						"base": "t_struct(country)9_storage",
						"encoding": "dynamic_array",
						"label": "struct CrudApp.country[]",
						"numberOfBytes": "32"
					},
					"t_string_storage": {
						"encoding": "bytes",
						"label": "string",
						"numberOfBytes": "32"
					},
					"t_struct(country)9_storage": {
						"encoding": "inplace",
						"label": "struct CrudApp.country",
						"members": [
							{
								"astId": 4,
								"contract": "contracts/Test.sol:CrudApp",
								"label": "name",
								"offset": 0,
								"slot": "0",
								"type": "t_string_storage"
							},
							{
								"astId": 6,
								"contract": "contracts/Test.sol:CrudApp",
								"label": "leader",
								"offset": 0,
								"slot": "1",
								"type": "t_string_storage"
							},
							{
								"astId": 8,
								"contract": "contracts/Test.sol:CrudApp",
								"label": "population",
								"offset": 0,
								"slot": "2",
								"type": "t_uint256"
							}
						],
						"numberOfBytes": "96"
					},
					"t_uint256": {
						"encoding": "inplace",
						"label": "uint256",
						"numberOfBytes": "32"
					}
				}
			},
			"userdoc": {
				"kind": "user",
				"methods": {},
				"version": 1
			}
		}
	}
}