{
	"contracts/Transaction.sol": {
		"Transactions": {
			"abi": [
				{
					"inputs": [],
					"stateMutability": "nonpayable",
					"type": "constructor"
				},
				{
					"inputs": [
						{
							"internalType": "uint256",
							"name": "_patchno",
							"type": "uint256"
						},
						{
							"internalType": "uint256",
							"name": "_currentowner",
							"type": "uint256"
						},
						{
							"internalType": "uint256",
							"name": "_fromowner",
							"type": "uint256"
						},
						{
							"internalType": "uint256",
							"name": "_transamount",
							"type": "uint256"
						},
						{
							"internalType": "uint256",
							"name": "_transdate",
							"type": "uint256"
						}
					],
					"name": "addTransaction",
					"outputs": [],
					"stateMutability": "nonpayable",
					"type": "function"
				},
				{
					"inputs": [
						{
							"internalType": "uint256",
							"name": "_transid",
							"type": "uint256"
						}
					],
					"name": "get",
					"outputs": [
						{
							"components": [
								{
									"internalType": "uint256",
									"name": "TransactionID",
									"type": "uint256"
								},
								{
									"internalType": "uint256",
									"name": "PatchNo",
									"type": "uint256"
								},
								{
									"internalType": "uint256",
									"name": "CurrentOwner",
									"type": "uint256"
								},
								{
									"internalType": "uint256",
									"name": "FromOwner",
									"type": "uint256"
								},
								{
									"internalType": "uint256",
									"name": "TransferedAmount",
									"type": "uint256"
								},
								{
									"internalType": "uint256",
									"name": "TransactionDate",
									"type": "uint256"
								}
							],
							"internalType": "struct Transactions.Transaction",
							"name": "",
							"type": "tuple"
						}
					],
					"stateMutability": "view",
					"type": "function"
				},
				{
					"inputs": [],
					"name": "getTransactions",
					"outputs": [
						{
							"components": [
								{
									"internalType": "uint256",
									"name": "TransactionID",
									"type": "uint256"
								},
								{
									"internalType": "uint256",
									"name": "PatchNo",
									"type": "uint256"
								},
								{
									"internalType": "uint256",
									"name": "CurrentOwner",
									"type": "uint256"
								},
								{
									"internalType": "uint256",
									"name": "FromOwner",
									"type": "uint256"
								},
								{
									"internalType": "uint256",
									"name": "TransferedAmount",
									"type": "uint256"
								},
								{
									"internalType": "uint256",
									"name": "TransactionDate",
									"type": "uint256"
								}
							],
							"internalType": "struct Transactions.Transaction[]",
							"name": "",
							"type": "tuple[]"
						}
					],
					"stateMutability": "view",
					"type": "function"
				},
				{
					"inputs": [
						{
							"internalType": "uint256",
							"name": "",
							"type": "uint256"
						}
					],
					"name": "transactions",
					"outputs": [
						{
							"internalType": "uint256",
							"name": "TransactionID",
							"type": "uint256"
						},
						{
							"internalType": "uint256",
							"name": "PatchNo",
							"type": "uint256"
						},
						{
							"internalType": "uint256",
							"name": "CurrentOwner",
							"type": "uint256"
						},
						{
							"internalType": "uint256",
							"name": "FromOwner",
							"type": "uint256"
						},
						{
							"internalType": "uint256",
							"name": "TransferedAmount",
							"type": "uint256"
						},
						{
							"internalType": "uint256",
							"name": "TransactionDate",
							"type": "uint256"
						}
					],
					"stateMutability": "view",
					"type": "function"
				},
				{
					"inputs": [],
					"name": "transactionsCount",
					"outputs": [
						{
							"internalType": "uint256",
							"name": "",
							"type": "uint256"
						}
					],
					"stateMutability": "view",
					"type": "function"
				}
			],
			"devdoc": {
				"kind": "dev",
				"methods": {},
				"version": 1
			},
			"evm": {
				"assembly": "    /* \"contracts/Transaction.sol\":62:1285  contract Transactions{\r... */\n  mstore(0x40, 0x80)\n    /* \"contracts/Transaction.sol\":434:489  constructor()  {\r... */\n  callvalue\n  dup1\n  iszero\n  tag_1\n  jumpi\n  0x00\n  dup1\n  revert\ntag_1:\n  pop\n    /* \"contracts/Transaction.sol\":480:481  0 */\n  0x00\n    /* \"contracts/Transaction.sol\":460:477  transactionsCount */\n  0x01\n    /* \"contracts/Transaction.sol\":460:481  transactionsCount = 0 */\n  dup2\n  swap1\n  sstore\n  pop\n    /* \"contracts/Transaction.sol\":62:1285  contract Transactions{\r... */\n  dataSize(sub_0)\n  dup1\n  dataOffset(sub_0)\n  0x00\n  codecopy\n  0x00\n  return\nstop\n\nsub_0: assembly {\n        /* \"contracts/Transaction.sol\":62:1285  contract Transactions{\r... */\n      mstore(0x40, 0x80)\n      callvalue\n      dup1\n      iszero\n      tag_1\n      jumpi\n      0x00\n      dup1\n      revert\n    tag_1:\n      pop\n      jumpi(tag_2, lt(calldatasize, 0x04))\n      shr(0xe0, calldataload(0x00))\n      dup1\n      0x634e1a29\n      eq\n      tag_3\n      jumpi\n      dup1\n      0x83920e90\n      eq\n      tag_4\n      jumpi\n      dup1\n      0x9507d39a\n      eq\n      tag_5\n      jumpi\n      dup1\n      0x9ace38c2\n      eq\n      tag_6\n      jumpi\n      dup1\n      0xfd99a746\n      eq\n      tag_7\n      jumpi\n    tag_2:\n      0x00\n      dup1\n      revert\n        /* \"contracts/Transaction.sol\":497:791  function addTransaction(uint _patchno, uint _currentowner, uint _fromowner, uint _transamount, uint _transdate) public {\r... */\n    tag_3:\n      tag_8\n      0x04\n      dup1\n      calldatasize\n      sub\n      dup2\n      add\n      swap1\n      tag_9\n      swap2\n      swap1\n      tag_10\n      jump\t// in\n    tag_9:\n      tag_11\n      jump\t// in\n    tag_8:\n      stop\n        /* \"contracts/Transaction.sol\":956:1280  function getTransactions() public view returns (Transaction[] memory){\r... */\n    tag_4:\n      tag_12\n      tag_13\n      jump\t// in\n    tag_12:\n      mload(0x40)\n      tag_14\n      swap2\n      swap1\n      tag_15\n      jump\t// in\n    tag_14:\n      mload(0x40)\n      dup1\n      swap2\n      sub\n      swap1\n      return\n        /* \"contracts/Transaction.sol\":799:915  function get(uint _transid) public view returns(Transaction memory) {\r... */\n    tag_5:\n      tag_16\n      0x04\n      dup1\n      calldatasize\n      sub\n      dup2\n      add\n      swap1\n      tag_17\n      swap2\n      swap1\n      tag_18\n      jump\t// in\n    tag_17:\n      tag_19\n      jump\t// in\n    tag_16:\n      mload(0x40)\n      tag_20\n      swap2\n      swap1\n      tag_21\n      jump\t// in\n    tag_20:\n      mload(0x40)\n      dup1\n      swap2\n      sub\n      swap1\n      return\n        /* \"contracts/Transaction.sol\":292:341  mapping (uint => Transaction) public transactions */\n    tag_6:\n      tag_22\n      0x04\n      dup1\n      calldatasize\n      sub\n      dup2\n      add\n      swap1\n      tag_23\n      swap2\n      swap1\n      tag_18\n      jump\t// in\n    tag_23:\n      tag_24\n      jump\t// in\n    tag_22:\n      mload(0x40)\n      tag_25\n      swap7\n      swap6\n      swap5\n      swap4\n      swap3\n      swap2\n      swap1\n      tag_26\n      jump\t// in\n    tag_25:\n      mload(0x40)\n      dup1\n      swap2\n      sub\n      swap1\n      return\n        /* \"contracts/Transaction.sol\":398:427  uint public transactionsCount */\n    tag_7:\n      tag_27\n      tag_28\n      jump\t// in\n    tag_27:\n      mload(0x40)\n      tag_29\n      swap2\n      swap1\n      tag_30\n      jump\t// in\n    tag_29:\n      mload(0x40)\n      dup1\n      swap2\n      sub\n      swap1\n      return\n        /* \"contracts/Transaction.sol\":497:791  function addTransaction(uint _patchno, uint _currentowner, uint _fromowner, uint _transamount, uint _transdate) public {\r... */\n    tag_11:\n        /* \"contracts/Transaction.sol\":661:753  Transaction(transactionsCount,_patchno, _currentowner, _fromowner, _transamount, _transdate) */\n      mload(0x40)\n      dup1\n      0xc0\n      add\n      0x40\n      mstore\n      dup1\n        /* \"contracts/Transaction.sol\":673:690  transactionsCount */\n      sload(0x01)\n        /* \"contracts/Transaction.sol\":661:753  Transaction(transactionsCount,_patchno, _currentowner, _fromowner, _transamount, _transdate) */\n      dup2\n      mstore\n      0x20\n      add\n        /* \"contracts/Transaction.sol\":691:699  _patchno */\n      dup7\n        /* \"contracts/Transaction.sol\":661:753  Transaction(transactionsCount,_patchno, _currentowner, _fromowner, _transamount, _transdate) */\n      dup2\n      mstore\n      0x20\n      add\n        /* \"contracts/Transaction.sol\":701:714  _currentowner */\n      dup6\n        /* \"contracts/Transaction.sol\":661:753  Transaction(transactionsCount,_patchno, _currentowner, _fromowner, _transamount, _transdate) */\n      dup2\n      mstore\n      0x20\n      add\n        /* \"contracts/Transaction.sol\":716:726  _fromowner */\n      dup5\n        /* \"contracts/Transaction.sol\":661:753  Transaction(transactionsCount,_patchno, _currentowner, _fromowner, _transamount, _transdate) */\n      dup2\n      mstore\n      0x20\n      add\n        /* \"contracts/Transaction.sol\":728:740  _transamount */\n      dup4\n        /* \"contracts/Transaction.sol\":661:753  Transaction(transactionsCount,_patchno, _currentowner, _fromowner, _transamount, _transdate) */\n      dup2\n      mstore\n      0x20\n      add\n        /* \"contracts/Transaction.sol\":742:752  _transdate */\n      dup3\n        /* \"contracts/Transaction.sol\":661:753  Transaction(transactionsCount,_patchno, _currentowner, _fromowner, _transamount, _transdate) */\n      dup2\n      mstore\n      pop\n        /* \"contracts/Transaction.sol\":627:639  transactions */\n      0x00\n        /* \"contracts/Transaction.sol\":627:658  transactions[transactionsCount] */\n      dup1\n        /* \"contracts/Transaction.sol\":640:657  transactionsCount */\n      sload(0x01)\n        /* \"contracts/Transaction.sol\":627:658  transactions[transactionsCount] */\n      dup2\n      mstore\n      0x20\n      add\n      swap1\n      dup2\n      mstore\n      0x20\n      add\n      0x00\n      keccak256\n        /* \"contracts/Transaction.sol\":627:753  transactions[transactionsCount] = Transaction(transactionsCount,_patchno, _currentowner, _fromowner, _transamount, _transdate) */\n      0x00\n      dup3\n      add\n      mload\n      dup2\n      0x00\n      add\n      sstore\n      0x20\n      dup3\n      add\n      mload\n      dup2\n      0x01\n      add\n      sstore\n      0x40\n      dup3\n      add\n      mload\n      dup2\n      0x02\n      add\n      sstore\n      0x60\n      dup3\n      add\n      mload\n      dup2\n      0x03\n      add\n      sstore\n      0x80\n      dup3\n      add\n      mload\n      dup2\n      0x04\n      add\n      sstore\n      0xa0\n      dup3\n      add\n      mload\n      dup2\n      0x05\n      add\n      sstore\n      swap1\n      pop\n      pop\n        /* \"contracts/Transaction.sol\":764:781  transactionsCount */\n      0x01\n      0x00\n        /* \"contracts/Transaction.sol\":764:783  transactionsCount++ */\n      dup2\n      sload\n      dup1\n      swap3\n      swap2\n      swap1\n      tag_32\n      swap1\n      tag_33\n      jump\t// in\n    tag_32:\n      swap2\n      swap1\n      pop\n      sstore\n      pop\n        /* \"contracts/Transaction.sol\":497:791  function addTransaction(uint _patchno, uint _currentowner, uint _fromowner, uint _transamount, uint _transdate) public {\r... */\n      pop\n      pop\n      pop\n      pop\n      pop\n      jump\t// out\n        /* \"contracts/Transaction.sol\":956:1280  function getTransactions() public view returns (Transaction[] memory){\r... */\n    tag_13:\n        /* \"contracts/Transaction.sol\":1004:1024  Transaction[] memory */\n      0x60\n        /* \"contracts/Transaction.sol\":1034:1060  Transaction[]    memory id */\n      0x00\n        /* \"contracts/Transaction.sol\":1081:1098  transactionsCount */\n      sload(0x01)\n        /* \"contracts/Transaction.sol\":1063:1099  new Transaction[](transactionsCount) */\n      0xffffffffffffffff\n      dup2\n      gt\n      iszero\n      tag_35\n      jumpi\n      tag_36\n      tag_37\n      jump\t// in\n    tag_36:\n    tag_35:\n      mload(0x40)\n      swap1\n      dup1\n      dup3\n      mstore\n      dup1\n      0x20\n      mul\n      0x20\n      add\n      dup3\n      add\n      0x40\n      mstore\n      dup1\n      iszero\n      tag_38\n      jumpi\n      dup2\n      0x20\n      add\n    tag_39:\n      tag_40\n      tag_41\n      jump\t// in\n    tag_40:\n      dup2\n      mstore\n      0x20\n      add\n      swap1\n      0x01\n      swap1\n      sub\n      swap1\n      dup2\n      tag_39\n      jumpi\n      swap1\n      pop\n    tag_38:\n      pop\n        /* \"contracts/Transaction.sol\":1034:1099  Transaction[]    memory id = new Transaction[](transactionsCount) */\n      swap1\n      pop\n        /* \"contracts/Transaction.sol\":1113:1119  uint i */\n      0x00\n        /* \"contracts/Transaction.sol\":1108:1257  for (uint i = 0; i < transactionsCount; i++) {\r... */\n    tag_42:\n        /* \"contracts/Transaction.sol\":1129:1146  transactionsCount */\n      sload(0x01)\n        /* \"contracts/Transaction.sol\":1125:1126  i */\n      dup2\n        /* \"contracts/Transaction.sol\":1125:1146  i < transactionsCount */\n      lt\n        /* \"contracts/Transaction.sol\":1108:1257  for (uint i = 0; i < transactionsCount; i++) {\r... */\n      iszero\n      tag_43\n      jumpi\n        /* \"contracts/Transaction.sol\":1166:1197  Transaction storage transaction */\n      0x00\n        /* \"contracts/Transaction.sol\":1200:1212  transactions */\n      dup1\n        /* \"contracts/Transaction.sol\":1200:1215  transactions[i] */\n      0x00\n        /* \"contracts/Transaction.sol\":1213:1214  i */\n      dup4\n        /* \"contracts/Transaction.sol\":1200:1215  transactions[i] */\n      dup2\n      mstore\n      0x20\n      add\n      swap1\n      dup2\n      mstore\n      0x20\n      add\n      0x00\n      keccak256\n        /* \"contracts/Transaction.sol\":1166:1215  Transaction storage transaction = transactions[i] */\n      swap1\n      pop\n        /* \"contracts/Transaction.sol\":1236:1247  transaction */\n      dup1\n        /* \"contracts/Transaction.sol\":1228:1247  id[i] = transaction */\n      mload(0x40)\n      dup1\n      0xc0\n      add\n      0x40\n      mstore\n      swap1\n      dup2\n      0x00\n      dup3\n      add\n      sload\n      dup2\n      mstore\n      0x20\n      add\n      0x01\n      dup3\n      add\n      sload\n      dup2\n      mstore\n      0x20\n      add\n      0x02\n      dup3\n      add\n      sload\n      dup2\n      mstore\n      0x20\n      add\n      0x03\n      dup3\n      add\n      sload\n      dup2\n      mstore\n      0x20\n      add\n      0x04\n      dup3\n      add\n      sload\n      dup2\n      mstore\n      0x20\n      add\n      0x05\n      dup3\n      add\n      sload\n      dup2\n      mstore\n      pop\n      pop\n        /* \"contracts/Transaction.sol\":1228:1230  id */\n      dup4\n        /* \"contracts/Transaction.sol\":1231:1232  i */\n      dup4\n        /* \"contracts/Transaction.sol\":1228:1233  id[i] */\n      dup2\n      mload\n      dup2\n      lt\n      tag_45\n      jumpi\n      tag_46\n      tag_47\n      jump\t// in\n    tag_46:\n    tag_45:\n      0x20\n      mul\n      0x20\n      add\n      add\n        /* \"contracts/Transaction.sol\":1228:1247  id[i] = transaction */\n      dup2\n      swap1\n      mstore\n      pop\n        /* \"contracts/Transaction.sol\":1153:1257  {\r... */\n      pop\n        /* \"contracts/Transaction.sol\":1148:1151  i++ */\n      dup1\n      dup1\n      tag_48\n      swap1\n      tag_33\n      jump\t// in\n    tag_48:\n      swap2\n      pop\n      pop\n        /* \"contracts/Transaction.sol\":1108:1257  for (uint i = 0; i < transactionsCount; i++) {\r... */\n      jump(tag_42)\n    tag_43:\n      pop\n        /* \"contracts/Transaction.sol\":1272:1274  id */\n      dup1\n        /* \"contracts/Transaction.sol\":1265:1274  return id */\n      swap2\n      pop\n      pop\n        /* \"contracts/Transaction.sol\":956:1280  function getTransactions() public view returns (Transaction[] memory){\r... */\n      swap1\n      jump\t// out\n        /* \"contracts/Transaction.sol\":799:915  function get(uint _transid) public view returns(Transaction memory) {\r... */\n    tag_19:\n        /* \"contracts/Transaction.sol\":847:865  Transaction memory */\n      tag_49\n      tag_41\n      jump\t// in\n    tag_49:\n        /* \"contracts/Transaction.sol\":885:897  transactions */\n      0x00\n        /* \"contracts/Transaction.sol\":885:907  transactions[_transid] */\n      dup1\n        /* \"contracts/Transaction.sol\":898:906  _transid */\n      dup4\n        /* \"contracts/Transaction.sol\":885:907  transactions[_transid] */\n      dup2\n      mstore\n      0x20\n      add\n      swap1\n      dup2\n      mstore\n      0x20\n      add\n      0x00\n      keccak256\n        /* \"contracts/Transaction.sol\":878:907  return transactions[_transid] */\n      mload(0x40)\n      dup1\n      0xc0\n      add\n      0x40\n      mstore\n      swap1\n      dup2\n      0x00\n      dup3\n      add\n      sload\n      dup2\n      mstore\n      0x20\n      add\n      0x01\n      dup3\n      add\n      sload\n      dup2\n      mstore\n      0x20\n      add\n      0x02\n      dup3\n      add\n      sload\n      dup2\n      mstore\n      0x20\n      add\n      0x03\n      dup3\n      add\n      sload\n      dup2\n      mstore\n      0x20\n      add\n      0x04\n      dup3\n      add\n      sload\n      dup2\n      mstore\n      0x20\n      add\n      0x05\n      dup3\n      add\n      sload\n      dup2\n      mstore\n      pop\n      pop\n      swap1\n      pop\n        /* \"contracts/Transaction.sol\":799:915  function get(uint _transid) public view returns(Transaction memory) {\r... */\n      swap2\n      swap1\n      pop\n      jump\t// out\n        /* \"contracts/Transaction.sol\":292:341  mapping (uint => Transaction) public transactions */\n    tag_24:\n      mstore(0x20, 0x00)\n      dup1\n      0x00\n      mstore\n      keccak256(0x00, 0x40)\n      0x00\n      swap2\n      pop\n      swap1\n      pop\n      dup1\n      0x00\n      add\n      sload\n      swap1\n      dup1\n      0x01\n      add\n      sload\n      swap1\n      dup1\n      0x02\n      add\n      sload\n      swap1\n      dup1\n      0x03\n      add\n      sload\n      swap1\n      dup1\n      0x04\n      add\n      sload\n      swap1\n      dup1\n      0x05\n      add\n      sload\n      swap1\n      pop\n      dup7\n      jump\t// out\n        /* \"contracts/Transaction.sol\":398:427  uint public transactionsCount */\n    tag_28:\n      sload(0x01)\n      dup2\n      jump\t// out\n    tag_41:\n      mload(0x40)\n      dup1\n      0xc0\n      add\n      0x40\n      mstore\n      dup1\n      0x00\n      dup2\n      mstore\n      0x20\n      add\n      0x00\n      dup2\n      mstore\n      0x20\n      add\n      0x00\n      dup2\n      mstore\n      0x20\n      add\n      0x00\n      dup2\n      mstore\n      0x20\n      add\n      0x00\n      dup2\n      mstore\n      0x20\n      add\n      0x00\n      dup2\n      mstore\n      pop\n      swap1\n      jump\t// out\n        /* \"#utility.yul\":7:146   */\n    tag_52:\n        /* \"#utility.yul\":53:58   */\n      0x00\n        /* \"#utility.yul\":91:97   */\n      dup2\n        /* \"#utility.yul\":78:98   */\n      calldataload\n        /* \"#utility.yul\":69:98   */\n      swap1\n      pop\n        /* \"#utility.yul\":107:140   */\n      tag_54\n        /* \"#utility.yul\":134:139   */\n      dup2\n        /* \"#utility.yul\":107:140   */\n      tag_55\n      jump\t// in\n    tag_54:\n        /* \"#utility.yul\":7:146   */\n      swap3\n      swap2\n      pop\n      pop\n      jump\t// out\n        /* \"#utility.yul\":152:481   */\n    tag_18:\n        /* \"#utility.yul\":211:217   */\n      0x00\n        /* \"#utility.yul\":260:262   */\n      0x20\n        /* \"#utility.yul\":248:257   */\n      dup3\n        /* \"#utility.yul\":239:246   */\n      dup5\n        /* \"#utility.yul\":235:258   */\n      sub\n        /* \"#utility.yul\":231:263   */\n      slt\n        /* \"#utility.yul\":228:347   */\n      iszero\n      tag_57\n      jumpi\n        /* \"#utility.yul\":266:345   */\n      tag_58\n      tag_59\n      jump\t// in\n    tag_58:\n        /* \"#utility.yul\":228:347   */\n    tag_57:\n        /* \"#utility.yul\":386:387   */\n      0x00\n        /* \"#utility.yul\":411:464   */\n      tag_60\n        /* \"#utility.yul\":456:463   */\n      dup5\n        /* \"#utility.yul\":447:453   */\n      dup3\n        /* \"#utility.yul\":436:445   */\n      dup6\n        /* \"#utility.yul\":432:454   */\n      add\n        /* \"#utility.yul\":411:464   */\n      tag_52\n      jump\t// in\n    tag_60:\n        /* \"#utility.yul\":401:464   */\n      swap2\n      pop\n        /* \"#utility.yul\":357:474   */\n      pop\n        /* \"#utility.yul\":152:481   */\n      swap3\n      swap2\n      pop\n      pop\n      jump\t// out\n        /* \"#utility.yul\":487:1398   */\n    tag_10:\n        /* \"#utility.yul\":582:588   */\n      0x00\n        /* \"#utility.yul\":590:596   */\n      dup1\n        /* \"#utility.yul\":598:604   */\n      0x00\n        /* \"#utility.yul\":606:612   */\n      dup1\n        /* \"#utility.yul\":614:620   */\n      0x00\n        /* \"#utility.yul\":663:666   */\n      0xa0\n        /* \"#utility.yul\":651:660   */\n      dup7\n        /* \"#utility.yul\":642:649   */\n      dup9\n        /* \"#utility.yul\":638:661   */\n      sub\n        /* \"#utility.yul\":634:667   */\n      slt\n        /* \"#utility.yul\":631:751   */\n      iszero\n      tag_62\n      jumpi\n        /* \"#utility.yul\":670:749   */\n      tag_63\n      tag_59\n      jump\t// in\n    tag_63:\n        /* \"#utility.yul\":631:751   */\n    tag_62:\n        /* \"#utility.yul\":790:791   */\n      0x00\n        /* \"#utility.yul\":815:868   */\n      tag_64\n        /* \"#utility.yul\":860:867   */\n      dup9\n        /* \"#utility.yul\":851:857   */\n      dup3\n        /* \"#utility.yul\":840:849   */\n      dup10\n        /* \"#utility.yul\":836:858   */\n      add\n        /* \"#utility.yul\":815:868   */\n      tag_52\n      jump\t// in\n    tag_64:\n        /* \"#utility.yul\":805:868   */\n      swap6\n      pop\n        /* \"#utility.yul\":761:878   */\n      pop\n        /* \"#utility.yul\":917:919   */\n      0x20\n        /* \"#utility.yul\":943:996   */\n      tag_65\n        /* \"#utility.yul\":988:995   */\n      dup9\n        /* \"#utility.yul\":979:985   */\n      dup3\n        /* \"#utility.yul\":968:977   */\n      dup10\n        /* \"#utility.yul\":964:986   */\n      add\n        /* \"#utility.yul\":943:996   */\n      tag_52\n      jump\t// in\n    tag_65:\n        /* \"#utility.yul\":933:996   */\n      swap5\n      pop\n        /* \"#utility.yul\":888:1006   */\n      pop\n        /* \"#utility.yul\":1045:1047   */\n      0x40\n        /* \"#utility.yul\":1071:1124   */\n      tag_66\n        /* \"#utility.yul\":1116:1123   */\n      dup9\n        /* \"#utility.yul\":1107:1113   */\n      dup3\n        /* \"#utility.yul\":1096:1105   */\n      dup10\n        /* \"#utility.yul\":1092:1114   */\n      add\n        /* \"#utility.yul\":1071:1124   */\n      tag_52\n      jump\t// in\n    tag_66:\n        /* \"#utility.yul\":1061:1124   */\n      swap4\n      pop\n        /* \"#utility.yul\":1016:1134   */\n      pop\n        /* \"#utility.yul\":1173:1175   */\n      0x60\n        /* \"#utility.yul\":1199:1252   */\n      tag_67\n        /* \"#utility.yul\":1244:1251   */\n      dup9\n        /* \"#utility.yul\":1235:1241   */\n      dup3\n        /* \"#utility.yul\":1224:1233   */\n      dup10\n        /* \"#utility.yul\":1220:1242   */\n      add\n        /* \"#utility.yul\":1199:1252   */\n      tag_52\n      jump\t// in\n    tag_67:\n        /* \"#utility.yul\":1189:1252   */\n      swap3\n      pop\n        /* \"#utility.yul\":1144:1262   */\n      pop\n        /* \"#utility.yul\":1301:1304   */\n      0x80\n        /* \"#utility.yul\":1328:1381   */\n      tag_68\n        /* \"#utility.yul\":1373:1380   */\n      dup9\n        /* \"#utility.yul\":1364:1370   */\n      dup3\n        /* \"#utility.yul\":1353:1362   */\n      dup10\n        /* \"#utility.yul\":1349:1371   */\n      add\n        /* \"#utility.yul\":1328:1381   */\n      tag_52\n      jump\t// in\n    tag_68:\n        /* \"#utility.yul\":1318:1381   */\n      swap2\n      pop\n        /* \"#utility.yul\":1272:1391   */\n      pop\n        /* \"#utility.yul\":487:1398   */\n      swap3\n      swap6\n      pop\n      swap3\n      swap6\n      swap1\n      swap4\n      pop\n      jump\t// out\n        /* \"#utility.yul\":1404:1691   */\n    tag_69:\n        /* \"#utility.yul\":1527:1537   */\n      0x00\n        /* \"#utility.yul\":1548:1648   */\n      tag_71\n        /* \"#utility.yul\":1644:1647   */\n      dup4\n        /* \"#utility.yul\":1636:1642   */\n      dup4\n        /* \"#utility.yul\":1548:1648   */\n      tag_72\n      jump\t// in\n    tag_71:\n        /* \"#utility.yul\":1680:1684   */\n      0xc0\n        /* \"#utility.yul\":1675:1678   */\n      dup4\n        /* \"#utility.yul\":1671:1685   */\n      add\n        /* \"#utility.yul\":1657:1685   */\n      swap1\n      pop\n        /* \"#utility.yul\":1404:1691   */\n      swap3\n      swap2\n      pop\n      pop\n      jump\t// out\n        /* \"#utility.yul\":1775:2723   */\n    tag_73:\n        /* \"#utility.yul\":1948:1951   */\n      0x00\n        /* \"#utility.yul\":1977:2058   */\n      tag_75\n        /* \"#utility.yul\":2052:2057   */\n      dup3\n        /* \"#utility.yul\":1977:2058   */\n      tag_76\n      jump\t// in\n    tag_75:\n        /* \"#utility.yul\":2074:2187   */\n      tag_77\n        /* \"#utility.yul\":2180:2186   */\n      dup2\n        /* \"#utility.yul\":2175:2178   */\n      dup6\n        /* \"#utility.yul\":2074:2187   */\n      tag_78\n      jump\t// in\n    tag_77:\n        /* \"#utility.yul\":2067:2187   */\n      swap4\n      pop\n        /* \"#utility.yul\":2211:2294   */\n      tag_79\n        /* \"#utility.yul\":2288:2293   */\n      dup4\n        /* \"#utility.yul\":2211:2294   */\n      tag_80\n      jump\t// in\n    tag_79:\n        /* \"#utility.yul\":2317:2324   */\n      dup1\n        /* \"#utility.yul\":2348:2349   */\n      0x00\n        /* \"#utility.yul\":2333:2698   */\n    tag_81:\n        /* \"#utility.yul\":2358:2364   */\n      dup4\n        /* \"#utility.yul\":2355:2356   */\n      dup2\n        /* \"#utility.yul\":2352:2365   */\n      lt\n        /* \"#utility.yul\":2333:2698   */\n      iszero\n      tag_83\n      jumpi\n        /* \"#utility.yul\":2434:2440   */\n      dup2\n        /* \"#utility.yul\":2428:2441   */\n      mload\n        /* \"#utility.yul\":2461:2578   */\n      tag_84\n        /* \"#utility.yul\":2574:2577   */\n      dup9\n        /* \"#utility.yul\":2559:2572   */\n      dup3\n        /* \"#utility.yul\":2461:2578   */\n      tag_69\n      jump\t// in\n    tag_84:\n        /* \"#utility.yul\":2454:2578   */\n      swap8\n      pop\n        /* \"#utility.yul\":2601:2688   */\n      tag_85\n        /* \"#utility.yul\":2681:2687   */\n      dup4\n        /* \"#utility.yul\":2601:2688   */\n      tag_86\n      jump\t// in\n    tag_85:\n        /* \"#utility.yul\":2591:2688   */\n      swap3\n      pop\n        /* \"#utility.yul\":2393:2698   */\n      pop\n        /* \"#utility.yul\":2380:2381   */\n      0x01\n        /* \"#utility.yul\":2377:2378   */\n      dup2\n        /* \"#utility.yul\":2373:2382   */\n      add\n        /* \"#utility.yul\":2368:2382   */\n      swap1\n      pop\n        /* \"#utility.yul\":2333:2698   */\n      jump(tag_81)\n    tag_83:\n        /* \"#utility.yul\":2337:2351   */\n      pop\n        /* \"#utility.yul\":2714:2717   */\n      dup6\n        /* \"#utility.yul\":2707:2717   */\n      swap4\n      pop\n        /* \"#utility.yul\":1953:2723   */\n      pop\n      pop\n      pop\n        /* \"#utility.yul\":1775:2723   */\n      swap3\n      swap2\n      pop\n      pop\n      jump\t// out\n        /* \"#utility.yul\":2803:4048   */\n    tag_72:\n        /* \"#utility.yul\":2944:2948   */\n      0xc0\n        /* \"#utility.yul\":2939:2942   */\n      dup3\n        /* \"#utility.yul\":2935:2949   */\n      add\n        /* \"#utility.yul\":3040:3044   */\n      0x00\n        /* \"#utility.yul\":3033:3038   */\n      dup3\n        /* \"#utility.yul\":3029:3045   */\n      add\n        /* \"#utility.yul\":3023:3046   */\n      mload\n        /* \"#utility.yul\":3059:3122   */\n      tag_88\n        /* \"#utility.yul\":3116:3120   */\n      0x00\n        /* \"#utility.yul\":3111:3114   */\n      dup6\n        /* \"#utility.yul\":3107:3121   */\n      add\n        /* \"#utility.yul\":3093:3105   */\n      dup3\n        /* \"#utility.yul\":3059:3122   */\n      tag_89\n      jump\t// in\n    tag_88:\n        /* \"#utility.yul\":2959:3132   */\n      pop\n        /* \"#utility.yul\":3217:3221   */\n      0x20\n        /* \"#utility.yul\":3210:3215   */\n      dup3\n        /* \"#utility.yul\":3206:3222   */\n      add\n        /* \"#utility.yul\":3200:3223   */\n      mload\n        /* \"#utility.yul\":3236:3299   */\n      tag_90\n        /* \"#utility.yul\":3293:3297   */\n      0x20\n        /* \"#utility.yul\":3288:3291   */\n      dup6\n        /* \"#utility.yul\":3284:3298   */\n      add\n        /* \"#utility.yul\":3270:3282   */\n      dup3\n        /* \"#utility.yul\":3236:3299   */\n      tag_89\n      jump\t// in\n    tag_90:\n        /* \"#utility.yul\":3142:3309   */\n      pop\n        /* \"#utility.yul\":3399:3403   */\n      0x40\n        /* \"#utility.yul\":3392:3397   */\n      dup3\n        /* \"#utility.yul\":3388:3404   */\n      add\n        /* \"#utility.yul\":3382:3405   */\n      mload\n        /* \"#utility.yul\":3418:3481   */\n      tag_91\n        /* \"#utility.yul\":3475:3479   */\n      0x40\n        /* \"#utility.yul\":3470:3473   */\n      dup6\n        /* \"#utility.yul\":3466:3480   */\n      add\n        /* \"#utility.yul\":3452:3464   */\n      dup3\n        /* \"#utility.yul\":3418:3481   */\n      tag_89\n      jump\t// in\n    tag_91:\n        /* \"#utility.yul\":3319:3491   */\n      pop\n        /* \"#utility.yul\":3578:3582   */\n      0x60\n        /* \"#utility.yul\":3571:3576   */\n      dup3\n        /* \"#utility.yul\":3567:3583   */\n      add\n        /* \"#utility.yul\":3561:3584   */\n      mload\n        /* \"#utility.yul\":3597:3660   */\n      tag_92\n        /* \"#utility.yul\":3654:3658   */\n      0x60\n        /* \"#utility.yul\":3649:3652   */\n      dup6\n        /* \"#utility.yul\":3645:3659   */\n      add\n        /* \"#utility.yul\":3631:3643   */\n      dup3\n        /* \"#utility.yul\":3597:3660   */\n      tag_89\n      jump\t// in\n    tag_92:\n        /* \"#utility.yul\":3501:3670   */\n      pop\n        /* \"#utility.yul\":3764:3768   */\n      0x80\n        /* \"#utility.yul\":3757:3762   */\n      dup3\n        /* \"#utility.yul\":3753:3769   */\n      add\n        /* \"#utility.yul\":3747:3770   */\n      mload\n        /* \"#utility.yul\":3783:3846   */\n      tag_93\n        /* \"#utility.yul\":3840:3844   */\n      0x80\n        /* \"#utility.yul\":3835:3838   */\n      dup6\n        /* \"#utility.yul\":3831:3845   */\n      add\n        /* \"#utility.yul\":3817:3829   */\n      dup3\n        /* \"#utility.yul\":3783:3846   */\n      tag_89\n      jump\t// in\n    tag_93:\n        /* \"#utility.yul\":3680:3856   */\n      pop\n        /* \"#utility.yul\":3949:3953   */\n      0xa0\n        /* \"#utility.yul\":3942:3947   */\n      dup3\n        /* \"#utility.yul\":3938:3954   */\n      add\n        /* \"#utility.yul\":3932:3955   */\n      mload\n        /* \"#utility.yul\":3968:4031   */\n      tag_94\n        /* \"#utility.yul\":4025:4029   */\n      0xa0\n        /* \"#utility.yul\":4020:4023   */\n      dup6\n        /* \"#utility.yul\":4016:4030   */\n      add\n        /* \"#utility.yul\":4002:4014   */\n      dup3\n        /* \"#utility.yul\":3968:4031   */\n      tag_89\n      jump\t// in\n    tag_94:\n        /* \"#utility.yul\":3866:4041   */\n      pop\n        /* \"#utility.yul\":2913:4048   */\n      pop\n        /* \"#utility.yul\":2803:4048   */\n      pop\n      pop\n      jump\t// out\n        /* \"#utility.yul\":4128:5383   */\n    tag_95:\n        /* \"#utility.yul\":4279:4283   */\n      0xc0\n        /* \"#utility.yul\":4274:4277   */\n      dup3\n        /* \"#utility.yul\":4270:4284   */\n      add\n        /* \"#utility.yul\":4375:4379   */\n      0x00\n        /* \"#utility.yul\":4368:4373   */\n      dup3\n        /* \"#utility.yul\":4364:4380   */\n      add\n        /* \"#utility.yul\":4358:4381   */\n      mload\n        /* \"#utility.yul\":4394:4457   */\n      tag_97\n        /* \"#utility.yul\":4451:4455   */\n      0x00\n        /* \"#utility.yul\":4446:4449   */\n      dup6\n        /* \"#utility.yul\":4442:4456   */\n      add\n        /* \"#utility.yul\":4428:4440   */\n      dup3\n        /* \"#utility.yul\":4394:4457   */\n      tag_89\n      jump\t// in\n    tag_97:\n        /* \"#utility.yul\":4294:4467   */\n      pop\n        /* \"#utility.yul\":4552:4556   */\n      0x20\n        /* \"#utility.yul\":4545:4550   */\n      dup3\n        /* \"#utility.yul\":4541:4557   */\n      add\n        /* \"#utility.yul\":4535:4558   */\n      mload\n        /* \"#utility.yul\":4571:4634   */\n      tag_98\n        /* \"#utility.yul\":4628:4632   */\n      0x20\n        /* \"#utility.yul\":4623:4626   */\n      dup6\n        /* \"#utility.yul\":4619:4633   */\n      add\n        /* \"#utility.yul\":4605:4617   */\n      dup3\n        /* \"#utility.yul\":4571:4634   */\n      tag_89\n      jump\t// in\n    tag_98:\n        /* \"#utility.yul\":4477:4644   */\n      pop\n        /* \"#utility.yul\":4734:4738   */\n      0x40\n        /* \"#utility.yul\":4727:4732   */\n      dup3\n        /* \"#utility.yul\":4723:4739   */\n      add\n        /* \"#utility.yul\":4717:4740   */\n      mload\n        /* \"#utility.yul\":4753:4816   */\n      tag_99\n        /* \"#utility.yul\":4810:4814   */\n      0x40\n        /* \"#utility.yul\":4805:4808   */\n      dup6\n        /* \"#utility.yul\":4801:4815   */\n      add\n        /* \"#utility.yul\":4787:4799   */\n      dup3\n        /* \"#utility.yul\":4753:4816   */\n      tag_89\n      jump\t// in\n    tag_99:\n        /* \"#utility.yul\":4654:4826   */\n      pop\n        /* \"#utility.yul\":4913:4917   */\n      0x60\n        /* \"#utility.yul\":4906:4911   */\n      dup3\n        /* \"#utility.yul\":4902:4918   */\n      add\n        /* \"#utility.yul\":4896:4919   */\n      mload\n        /* \"#utility.yul\":4932:4995   */\n      tag_100\n        /* \"#utility.yul\":4989:4993   */\n      0x60\n        /* \"#utility.yul\":4984:4987   */\n      dup6\n        /* \"#utility.yul\":4980:4994   */\n      add\n        /* \"#utility.yul\":4966:4978   */\n      dup3\n        /* \"#utility.yul\":4932:4995   */\n      tag_89\n      jump\t// in\n    tag_100:\n        /* \"#utility.yul\":4836:5005   */\n      pop\n        /* \"#utility.yul\":5099:5103   */\n      0x80\n        /* \"#utility.yul\":5092:5097   */\n      dup3\n        /* \"#utility.yul\":5088:5104   */\n      add\n        /* \"#utility.yul\":5082:5105   */\n      mload\n        /* \"#utility.yul\":5118:5181   */\n      tag_101\n        /* \"#utility.yul\":5175:5179   */\n      0x80\n        /* \"#utility.yul\":5170:5173   */\n      dup6\n        /* \"#utility.yul\":5166:5180   */\n      add\n        /* \"#utility.yul\":5152:5164   */\n      dup3\n        /* \"#utility.yul\":5118:5181   */\n      tag_89\n      jump\t// in\n    tag_101:\n        /* \"#utility.yul\":5015:5191   */\n      pop\n        /* \"#utility.yul\":5284:5288   */\n      0xa0\n        /* \"#utility.yul\":5277:5282   */\n      dup3\n        /* \"#utility.yul\":5273:5289   */\n      add\n        /* \"#utility.yul\":5267:5290   */\n      mload\n        /* \"#utility.yul\":5303:5366   */\n      tag_102\n        /* \"#utility.yul\":5360:5364   */\n      0xa0\n        /* \"#utility.yul\":5355:5358   */\n      dup6\n        /* \"#utility.yul\":5351:5365   */\n      add\n        /* \"#utility.yul\":5337:5349   */\n      dup3\n        /* \"#utility.yul\":5303:5366   */\n      tag_89\n      jump\t// in\n    tag_102:\n        /* \"#utility.yul\":5201:5376   */\n      pop\n        /* \"#utility.yul\":4248:5383   */\n      pop\n        /* \"#utility.yul\":4128:5383   */\n      pop\n      pop\n      jump\t// out\n        /* \"#utility.yul\":5389:5497   */\n    tag_89:\n        /* \"#utility.yul\":5466:5490   */\n      tag_104\n        /* \"#utility.yul\":5484:5489   */\n      dup2\n        /* \"#utility.yul\":5466:5490   */\n      tag_105\n      jump\t// in\n    tag_104:\n        /* \"#utility.yul\":5461:5464   */\n      dup3\n        /* \"#utility.yul\":5454:5491   */\n      mstore\n        /* \"#utility.yul\":5389:5497   */\n      pop\n      pop\n      jump\t// out\n        /* \"#utility.yul\":5503:5621   */\n    tag_106:\n        /* \"#utility.yul\":5590:5614   */\n      tag_108\n        /* \"#utility.yul\":5608:5613   */\n      dup2\n        /* \"#utility.yul\":5590:5614   */\n      tag_105\n      jump\t// in\n    tag_108:\n        /* \"#utility.yul\":5585:5588   */\n      dup3\n        /* \"#utility.yul\":5578:5615   */\n      mstore\n        /* \"#utility.yul\":5503:5621   */\n      pop\n      pop\n      jump\t// out\n        /* \"#utility.yul\":5627:6108   */\n    tag_15:\n        /* \"#utility.yul\":5824:5828   */\n      0x00\n        /* \"#utility.yul\":5862:5864   */\n      0x20\n        /* \"#utility.yul\":5851:5860   */\n      dup3\n        /* \"#utility.yul\":5847:5865   */\n      add\n        /* \"#utility.yul\":5839:5865   */\n      swap1\n      pop\n        /* \"#utility.yul\":5911:5920   */\n      dup2\n        /* \"#utility.yul\":5905:5909   */\n      dup2\n        /* \"#utility.yul\":5901:5921   */\n      sub\n        /* \"#utility.yul\":5897:5898   */\n      0x00\n        /* \"#utility.yul\":5886:5895   */\n      dup4\n        /* \"#utility.yul\":5882:5899   */\n      add\n        /* \"#utility.yul\":5875:5922   */\n      mstore\n        /* \"#utility.yul\":5939:6101   */\n      tag_110\n        /* \"#utility.yul\":6096:6100   */\n      dup2\n        /* \"#utility.yul\":6087:6093   */\n      dup5\n        /* \"#utility.yul\":5939:6101   */\n      tag_73\n      jump\t// in\n    tag_110:\n        /* \"#utility.yul\":5931:6101   */\n      swap1\n      pop\n        /* \"#utility.yul\":5627:6108   */\n      swap3\n      swap2\n      pop\n      pop\n      jump\t// out\n        /* \"#utility.yul\":6114:6445   */\n    tag_21:\n        /* \"#utility.yul\":6261:6265   */\n      0x00\n        /* \"#utility.yul\":6299:6302   */\n      0xc0\n        /* \"#utility.yul\":6288:6297   */\n      dup3\n        /* \"#utility.yul\":6284:6303   */\n      add\n        /* \"#utility.yul\":6276:6303   */\n      swap1\n      pop\n        /* \"#utility.yul\":6313:6438   */\n      tag_112\n        /* \"#utility.yul\":6435:6436   */\n      0x00\n        /* \"#utility.yul\":6424:6433   */\n      dup4\n        /* \"#utility.yul\":6420:6437   */\n      add\n        /* \"#utility.yul\":6411:6417   */\n      dup5\n        /* \"#utility.yul\":6313:6438   */\n      tag_95\n      jump\t// in\n    tag_112:\n        /* \"#utility.yul\":6114:6445   */\n      swap3\n      swap2\n      pop\n      pop\n      jump\t// out\n        /* \"#utility.yul\":6451:6673   */\n    tag_30:\n        /* \"#utility.yul\":6544:6548   */\n      0x00\n        /* \"#utility.yul\":6582:6584   */\n      0x20\n        /* \"#utility.yul\":6571:6580   */\n      dup3\n        /* \"#utility.yul\":6567:6585   */\n      add\n        /* \"#utility.yul\":6559:6585   */\n      swap1\n      pop\n        /* \"#utility.yul\":6595:6666   */\n      tag_114\n        /* \"#utility.yul\":6663:6664   */\n      0x00\n        /* \"#utility.yul\":6652:6661   */\n      dup4\n        /* \"#utility.yul\":6648:6665   */\n      add\n        /* \"#utility.yul\":6639:6645   */\n      dup5\n        /* \"#utility.yul\":6595:6666   */\n      tag_106\n      jump\t// in\n    tag_114:\n        /* \"#utility.yul\":6451:6673   */\n      swap3\n      swap2\n      pop\n      pop\n      jump\t// out\n        /* \"#utility.yul\":6679:7454   */\n    tag_26:\n        /* \"#utility.yul\":6912:6916   */\n      0x00\n        /* \"#utility.yul\":6950:6953   */\n      0xc0\n        /* \"#utility.yul\":6939:6948   */\n      dup3\n        /* \"#utility.yul\":6935:6954   */\n      add\n        /* \"#utility.yul\":6927:6954   */\n      swap1\n      pop\n        /* \"#utility.yul\":6964:7035   */\n      tag_116\n        /* \"#utility.yul\":7032:7033   */\n      0x00\n        /* \"#utility.yul\":7021:7030   */\n      dup4\n        /* \"#utility.yul\":7017:7034   */\n      add\n        /* \"#utility.yul\":7008:7014   */\n      dup10\n        /* \"#utility.yul\":6964:7035   */\n      tag_106\n      jump\t// in\n    tag_116:\n        /* \"#utility.yul\":7045:7117   */\n      tag_117\n        /* \"#utility.yul\":7113:7115   */\n      0x20\n        /* \"#utility.yul\":7102:7111   */\n      dup4\n        /* \"#utility.yul\":7098:7116   */\n      add\n        /* \"#utility.yul\":7089:7095   */\n      dup9\n        /* \"#utility.yul\":7045:7117   */\n      tag_106\n      jump\t// in\n    tag_117:\n        /* \"#utility.yul\":7127:7199   */\n      tag_118\n        /* \"#utility.yul\":7195:7197   */\n      0x40\n        /* \"#utility.yul\":7184:7193   */\n      dup4\n        /* \"#utility.yul\":7180:7198   */\n      add\n        /* \"#utility.yul\":7171:7177   */\n      dup8\n        /* \"#utility.yul\":7127:7199   */\n      tag_106\n      jump\t// in\n    tag_118:\n        /* \"#utility.yul\":7209:7281   */\n      tag_119\n        /* \"#utility.yul\":7277:7279   */\n      0x60\n        /* \"#utility.yul\":7266:7275   */\n      dup4\n        /* \"#utility.yul\":7262:7280   */\n      add\n        /* \"#utility.yul\":7253:7259   */\n      dup7\n        /* \"#utility.yul\":7209:7281   */\n      tag_106\n      jump\t// in\n    tag_119:\n        /* \"#utility.yul\":7291:7364   */\n      tag_120\n        /* \"#utility.yul\":7359:7362   */\n      0x80\n        /* \"#utility.yul\":7348:7357   */\n      dup4\n        /* \"#utility.yul\":7344:7363   */\n      add\n        /* \"#utility.yul\":7335:7341   */\n      dup6\n        /* \"#utility.yul\":7291:7364   */\n      tag_106\n      jump\t// in\n    tag_120:\n        /* \"#utility.yul\":7374:7447   */\n      tag_121\n        /* \"#utility.yul\":7442:7445   */\n      0xa0\n        /* \"#utility.yul\":7431:7440   */\n      dup4\n        /* \"#utility.yul\":7427:7446   */\n      add\n        /* \"#utility.yul\":7418:7424   */\n      dup5\n        /* \"#utility.yul\":7374:7447   */\n      tag_106\n      jump\t// in\n    tag_121:\n        /* \"#utility.yul\":6679:7454   */\n      swap8\n      swap7\n      pop\n      pop\n      pop\n      pop\n      pop\n      pop\n      pop\n      jump\t// out\n        /* \"#utility.yul\":7541:7700   */\n    tag_80:\n        /* \"#utility.yul\":7635:7639   */\n      0x00\n        /* \"#utility.yul\":7658:7661   */\n      dup2\n        /* \"#utility.yul\":7650:7661   */\n      swap1\n      pop\n        /* \"#utility.yul\":7688:7692   */\n      0x20\n        /* \"#utility.yul\":7683:7686   */\n      dup3\n        /* \"#utility.yul\":7679:7693   */\n      add\n        /* \"#utility.yul\":7671:7693   */\n      swap1\n      pop\n        /* \"#utility.yul\":7541:7700   */\n      swap2\n      swap1\n      pop\n      jump\t// out\n        /* \"#utility.yul\":7706:7847   */\n    tag_76:\n        /* \"#utility.yul\":7800:7806   */\n      0x00\n        /* \"#utility.yul\":7834:7839   */\n      dup2\n        /* \"#utility.yul\":7828:7840   */\n      mload\n        /* \"#utility.yul\":7818:7840   */\n      swap1\n      pop\n        /* \"#utility.yul\":7706:7847   */\n      swap2\n      swap1\n      pop\n      jump\t// out\n        /* \"#utility.yul\":7853:7993   */\n    tag_86:\n        /* \"#utility.yul\":7950:7954   */\n      0x00\n        /* \"#utility.yul\":7982:7986   */\n      0x20\n        /* \"#utility.yul\":7977:7980   */\n      dup3\n        /* \"#utility.yul\":7973:7987   */\n      add\n        /* \"#utility.yul\":7965:7987   */\n      swap1\n      pop\n        /* \"#utility.yul\":7853:7993   */\n      swap2\n      swap1\n      pop\n      jump\t// out\n        /* \"#utility.yul\":7999:8210   */\n    tag_78:\n        /* \"#utility.yul\":8125:8136   */\n      0x00\n        /* \"#utility.yul\":8159:8165   */\n      dup3\n        /* \"#utility.yul\":8154:8157   */\n      dup3\n        /* \"#utility.yul\":8147:8166   */\n      mstore\n        /* \"#utility.yul\":8199:8203   */\n      0x20\n        /* \"#utility.yul\":8194:8197   */\n      dup3\n        /* \"#utility.yul\":8190:8204   */\n      add\n        /* \"#utility.yul\":8175:8204   */\n      swap1\n      pop\n        /* \"#utility.yul\":7999:8210   */\n      swap3\n      swap2\n      pop\n      pop\n      jump\t// out\n        /* \"#utility.yul\":8216:8293   */\n    tag_105:\n        /* \"#utility.yul\":8253:8260   */\n      0x00\n        /* \"#utility.yul\":8282:8287   */\n      dup2\n        /* \"#utility.yul\":8271:8287   */\n      swap1\n      pop\n        /* \"#utility.yul\":8216:8293   */\n      swap2\n      swap1\n      pop\n      jump\t// out\n        /* \"#utility.yul\":8299:8532   */\n    tag_33:\n        /* \"#utility.yul\":8338:8341   */\n      0x00\n        /* \"#utility.yul\":8361:8385   */\n      tag_130\n        /* \"#utility.yul\":8379:8384   */\n      dup3\n        /* \"#utility.yul\":8361:8385   */\n      tag_105\n      jump\t// in\n    tag_130:\n        /* \"#utility.yul\":8352:8385   */\n      swap2\n      pop\n        /* \"#utility.yul\":8407:8473   */\n      0xffffffffffffffffffffffffffffffffffffffffffffffffffffffffffffffff\n        /* \"#utility.yul\":8400:8405   */\n      dup3\n        /* \"#utility.yul\":8397:8474   */\n      eq\n        /* \"#utility.yul\":8394:8497   */\n      iszero\n      tag_131\n      jumpi\n        /* \"#utility.yul\":8477:8495   */\n      tag_132\n      tag_133\n      jump\t// in\n    tag_132:\n        /* \"#utility.yul\":8394:8497   */\n    tag_131:\n        /* \"#utility.yul\":8524:8525   */\n      0x01\n        /* \"#utility.yul\":8517:8522   */\n      dup3\n        /* \"#utility.yul\":8513:8526   */\n      add\n        /* \"#utility.yul\":8506:8526   */\n      swap1\n      pop\n        /* \"#utility.yul\":8299:8532   */\n      swap2\n      swap1\n      pop\n      jump\t// out\n        /* \"#utility.yul\":8538:8718   */\n    tag_133:\n        /* \"#utility.yul\":8586:8663   */\n      0x4e487b7100000000000000000000000000000000000000000000000000000000\n        /* \"#utility.yul\":8583:8584   */\n      0x00\n        /* \"#utility.yul\":8576:8664   */\n      mstore\n        /* \"#utility.yul\":8683:8687   */\n      0x11\n        /* \"#utility.yul\":8680:8681   */\n      0x04\n        /* \"#utility.yul\":8673:8688   */\n      mstore\n        /* \"#utility.yul\":8707:8711   */\n      0x24\n        /* \"#utility.yul\":8704:8705   */\n      0x00\n        /* \"#utility.yul\":8697:8712   */\n      revert\n        /* \"#utility.yul\":8724:8904   */\n    tag_47:\n        /* \"#utility.yul\":8772:8849   */\n      0x4e487b7100000000000000000000000000000000000000000000000000000000\n        /* \"#utility.yul\":8769:8770   */\n      0x00\n        /* \"#utility.yul\":8762:8850   */\n      mstore\n        /* \"#utility.yul\":8869:8873   */\n      0x32\n        /* \"#utility.yul\":8866:8867   */\n      0x04\n        /* \"#utility.yul\":8859:8874   */\n      mstore\n        /* \"#utility.yul\":8893:8897   */\n      0x24\n        /* \"#utility.yul\":8890:8891   */\n      0x00\n        /* \"#utility.yul\":8883:8898   */\n      revert\n        /* \"#utility.yul\":8910:9090   */\n    tag_37:\n        /* \"#utility.yul\":8958:9035   */\n      0x4e487b7100000000000000000000000000000000000000000000000000000000\n        /* \"#utility.yul\":8955:8956   */\n      0x00\n        /* \"#utility.yul\":8948:9036   */\n      mstore\n        /* \"#utility.yul\":9055:9059   */\n      0x41\n        /* \"#utility.yul\":9052:9053   */\n      0x04\n        /* \"#utility.yul\":9045:9060   */\n      mstore\n        /* \"#utility.yul\":9079:9083   */\n      0x24\n        /* \"#utility.yul\":9076:9077   */\n      0x00\n        /* \"#utility.yul\":9069:9084   */\n      revert\n        /* \"#utility.yul\":9219:9336   */\n    tag_59:\n        /* \"#utility.yul\":9328:9329   */\n      0x00\n        /* \"#utility.yul\":9325:9326   */\n      dup1\n        /* \"#utility.yul\":9318:9330   */\n      revert\n        /* \"#utility.yul\":9342:9464   */\n    tag_55:\n        /* \"#utility.yul\":9415:9439   */\n      tag_141\n        /* \"#utility.yul\":9433:9438   */\n      dup2\n        /* \"#utility.yul\":9415:9439   */\n      tag_105\n      jump\t// in\n    tag_141:\n        /* \"#utility.yul\":9408:9413   */\n      dup2\n        /* \"#utility.yul\":9405:9440   */\n      eq\n        /* \"#utility.yul\":9395:9458   */\n      tag_142\n      jumpi\n        /* \"#utility.yul\":9454:9455   */\n      0x00\n        /* \"#utility.yul\":9451:9452   */\n      dup1\n        /* \"#utility.yul\":9444:9456   */\n      revert\n        /* \"#utility.yul\":9395:9458   */\n    tag_142:\n        /* \"#utility.yul\":9342:9464   */\n      pop\n      jump\t// out\n\n    auxdata: 0xa2646970667358221220fd98a085ea26bc886b4ededc0456d1b243efc6ae3086c6203386690495cbe03f64736f6c63430008070033\n}\n",
				"bytecode": {
					"linkReferences": {},
					"object": "608060405234801561001057600080fd5b506000600181905550610806806100286000396000f3fe608060405234801561001057600080fd5b50600436106100575760003560e01c8063634e1a291461005c57806383920e90146100785780639507d39a146100965780639ace38c2146100c6578063fd99a746146100fb575b600080fd5b610076600480360381019061007191906103dd565b610119565b005b6100806101ba565b60405161008d91906105e2565b60405180910390f35b6100b060048036038101906100ab91906103b0565b6102bb565b6040516100bd9190610604565b60405180910390f35b6100e060048036038101906100db91906103b0565b610323565b6040516100f29695949392919061063a565b60405180910390f35b61010361035f565b604051610110919061061f565b60405180910390f35b6040518060c001604052806001548152602001868152602001858152602001848152602001838152602001828152506000806001548152602001908152602001600020600082015181600001556020820151816001015560408201518160020155606082015181600301556080820151816004015560a08201518160050155905050600160008154809291906101ae906106de565b91905055505050505050565b6060600060015467ffffffffffffffff8111156101da576101d9610785565b5b60405190808252806020026020018201604052801561021357816020015b610200610365565b8152602001906001900390816101f85790505b50905060005b6001548110156102b35760008060008381526020019081526020016000209050806040518060c0016040529081600082015481526020016001820154815260200160028201548152602001600382015481526020016004820154815260200160058201548152505083838151811061029457610293610756565b5b60200260200101819052505080806102ab906106de565b915050610219565b508091505090565b6102c3610365565b6000808381526020019081526020016000206040518060c001604052908160008201548152602001600182015481526020016002820154815260200160038201548152602001600482015481526020016005820154815250509050919050565b60006020528060005260406000206000915090508060000154908060010154908060020154908060030154908060040154908060050154905086565b60015481565b6040518060c001604052806000815260200160008152602001600081526020016000815260200160008152602001600081525090565b6000813590506103aa816107b9565b92915050565b6000602082840312156103c6576103c56107b4565b5b60006103d48482850161039b565b91505092915050565b600080600080600060a086880312156103f9576103f86107b4565b5b60006104078882890161039b565b95505060206104188882890161039b565b94505060406104298882890161039b565b935050606061043a8882890161039b565b925050608061044b8882890161039b565b9150509295509295909350565b600061046483836104ce565b60c08301905092915050565b600061047b826106ab565b61048581856106c3565b93506104908361069b565b8060005b838110156104c15781516104a88882610458565b97506104b3836106b6565b925050600181019050610494565b5085935050505092915050565b60c0820160008201516104e460008501826105c4565b5060208201516104f760208501826105c4565b50604082015161050a60408501826105c4565b50606082015161051d60608501826105c4565b50608082015161053060808501826105c4565b5060a082015161054360a08501826105c4565b50505050565b60c08201600082015161055f60008501826105c4565b50602082015161057260208501826105c4565b50604082015161058560408501826105c4565b50606082015161059860608501826105c4565b5060808201516105ab60808501826105c4565b5060a08201516105be60a08501826105c4565b50505050565b6105cd816106d4565b82525050565b6105dc816106d4565b82525050565b600060208201905081810360008301526105fc8184610470565b905092915050565b600060c0820190506106196000830184610549565b92915050565b600060208201905061063460008301846105d3565b92915050565b600060c08201905061064f60008301896105d3565b61065c60208301886105d3565b61066960408301876105d3565b61067660608301866105d3565b61068360808301856105d3565b61069060a08301846105d3565b979650505050505050565b6000819050602082019050919050565b600081519050919050565b6000602082019050919050565b600082825260208201905092915050565b6000819050919050565b60006106e9826106d4565b91507fffffffffffffffffffffffffffffffffffffffffffffffffffffffffffffffff82141561071c5761071b610727565b5b600182019050919050565b7f4e487b7100000000000000000000000000000000000000000000000000000000600052601160045260246000fd5b7f4e487b7100000000000000000000000000000000000000000000000000000000600052603260045260246000fd5b7f4e487b7100000000000000000000000000000000000000000000000000000000600052604160045260246000fd5b600080fd5b6107c2816106d4565b81146107cd57600080fd5b5056fea2646970667358221220fd98a085ea26bc886b4ededc0456d1b243efc6ae3086c6203386690495cbe03f64736f6c63430008070033",
					"opcodes": "PUSH1 0x80 PUSH1 0x40 MSTORE CALLVALUE DUP1 ISZERO PUSH2 0x10 JUMPI PUSH1 0x0 DUP1 REVERT JUMPDEST POP PUSH1 0x0 PUSH1 0x1 DUP2 SWAP1 SSTORE POP PUSH2 0x806 DUP1 PUSH2 0x28 PUSH1 0x0 CODECOPY PUSH1 0x0 RETURN INVALID PUSH1 0x80 PUSH1 0x40 MSTORE CALLVALUE DUP1 ISZERO PUSH2 0x10 JUMPI PUSH1 0x0 DUP1 REVERT JUMPDEST POP PUSH1 0x4 CALLDATASIZE LT PUSH2 0x57 JUMPI PUSH1 0x0 CALLDATALOAD PUSH1 0xE0 SHR DUP1 PUSH4 0x634E1A29 EQ PUSH2 0x5C JUMPI DUP1 PUSH4 0x83920E90 EQ PUSH2 0x78 JUMPI DUP1 PUSH4 0x9507D39A EQ PUSH2 0x96 JUMPI DUP1 PUSH4 0x9ACE38C2 EQ PUSH2 0xC6 JUMPI DUP1 PUSH4 0xFD99A746 EQ PUSH2 0xFB JUMPI JUMPDEST PUSH1 0x0 DUP1 REVERT JUMPDEST PUSH2 0x76 PUSH1 0x4 DUP1 CALLDATASIZE SUB DUP2 ADD SWAP1 PUSH2 0x71 SWAP2 SWAP1 PUSH2 0x3DD JUMP JUMPDEST PUSH2 0x119 JUMP JUMPDEST STOP JUMPDEST PUSH2 0x80 PUSH2 0x1BA JUMP JUMPDEST PUSH1 0x40 MLOAD PUSH2 0x8D SWAP2 SWAP1 PUSH2 0x5E2 JUMP JUMPDEST PUSH1 0x40 MLOAD DUP1 SWAP2 SUB SWAP1 RETURN JUMPDEST PUSH2 0xB0 PUSH1 0x4 DUP1 CALLDATASIZE SUB DUP2 ADD SWAP1 PUSH2 0xAB SWAP2 SWAP1 PUSH2 0x3B0 JUMP JUMPDEST PUSH2 0x2BB JUMP JUMPDEST PUSH1 0x40 MLOAD PUSH2 0xBD SWAP2 SWAP1 PUSH2 0x604 JUMP JUMPDEST PUSH1 0x40 MLOAD DUP1 SWAP2 SUB SWAP1 RETURN JUMPDEST PUSH2 0xE0 PUSH1 0x4 DUP1 CALLDATASIZE SUB DUP2 ADD SWAP1 PUSH2 0xDB SWAP2 SWAP1 PUSH2 0x3B0 JUMP JUMPDEST PUSH2 0x323 JUMP JUMPDEST PUSH1 0x40 MLOAD PUSH2 0xF2 SWAP7 SWAP6 SWAP5 SWAP4 SWAP3 SWAP2 SWAP1 PUSH2 0x63A JUMP JUMPDEST PUSH1 0x40 MLOAD DUP1 SWAP2 SUB SWAP1 RETURN JUMPDEST PUSH2 0x103 PUSH2 0x35F JUMP JUMPDEST PUSH1 0x40 MLOAD PUSH2 0x110 SWAP2 SWAP1 PUSH2 0x61F JUMP JUMPDEST PUSH1 0x40 MLOAD DUP1 SWAP2 SUB SWAP1 RETURN JUMPDEST PUSH1 0x40 MLOAD DUP1 PUSH1 0xC0 ADD PUSH1 0x40 MSTORE DUP1 PUSH1 0x1 SLOAD DUP2 MSTORE PUSH1 0x20 ADD DUP7 DUP2 MSTORE PUSH1 0x20 ADD DUP6 DUP2 MSTORE PUSH1 0x20 ADD DUP5 DUP2 MSTORE PUSH1 0x20 ADD DUP4 DUP2 MSTORE PUSH1 0x20 ADD DUP3 DUP2 MSTORE POP PUSH1 0x0 DUP1 PUSH1 0x1 SLOAD DUP2 MSTORE PUSH1 0x20 ADD SWAP1 DUP2 MSTORE PUSH1 0x20 ADD PUSH1 0x0 KECCAK256 PUSH1 0x0 DUP3 ADD MLOAD DUP2 PUSH1 0x0 ADD SSTORE PUSH1 0x20 DUP3 ADD MLOAD DUP2 PUSH1 0x1 ADD SSTORE PUSH1 0x40 DUP3 ADD MLOAD DUP2 PUSH1 0x2 ADD SSTORE PUSH1 0x60 DUP3 ADD MLOAD DUP2 PUSH1 0x3 ADD SSTORE PUSH1 0x80 DUP3 ADD MLOAD DUP2 PUSH1 0x4 ADD SSTORE PUSH1 0xA0 DUP3 ADD MLOAD DUP2 PUSH1 0x5 ADD SSTORE SWAP1 POP POP PUSH1 0x1 PUSH1 0x0 DUP2 SLOAD DUP1 SWAP3 SWAP2 SWAP1 PUSH2 0x1AE SWAP1 PUSH2 0x6DE JUMP JUMPDEST SWAP2 SWAP1 POP SSTORE POP POP POP POP POP POP JUMP JUMPDEST PUSH1 0x60 PUSH1 0x0 PUSH1 0x1 SLOAD PUSH8 0xFFFFFFFFFFFFFFFF DUP2 GT ISZERO PUSH2 0x1DA JUMPI PUSH2 0x1D9 PUSH2 0x785 JUMP JUMPDEST JUMPDEST PUSH1 0x40 MLOAD SWAP1 DUP1 DUP3 MSTORE DUP1 PUSH1 0x20 MUL PUSH1 0x20 ADD DUP3 ADD PUSH1 0x40 MSTORE DUP1 ISZERO PUSH2 0x213 JUMPI DUP2 PUSH1 0x20 ADD JUMPDEST PUSH2 0x200 PUSH2 0x365 JUMP JUMPDEST DUP2 MSTORE PUSH1 0x20 ADD SWAP1 PUSH1 0x1 SWAP1 SUB SWAP1 DUP2 PUSH2 0x1F8 JUMPI SWAP1 POP JUMPDEST POP SWAP1 POP PUSH1 0x0 JUMPDEST PUSH1 0x1 SLOAD DUP2 LT ISZERO PUSH2 0x2B3 JUMPI PUSH1 0x0 DUP1 PUSH1 0x0 DUP4 DUP2 MSTORE PUSH1 0x20 ADD SWAP1 DUP2 MSTORE PUSH1 0x20 ADD PUSH1 0x0 KECCAK256 SWAP1 POP DUP1 PUSH1 0x40 MLOAD DUP1 PUSH1 0xC0 ADD PUSH1 0x40 MSTORE SWAP1 DUP2 PUSH1 0x0 DUP3 ADD SLOAD DUP2 MSTORE PUSH1 0x20 ADD PUSH1 0x1 DUP3 ADD SLOAD DUP2 MSTORE PUSH1 0x20 ADD PUSH1 0x2 DUP3 ADD SLOAD DUP2 MSTORE PUSH1 0x20 ADD PUSH1 0x3 DUP3 ADD SLOAD DUP2 MSTORE PUSH1 0x20 ADD PUSH1 0x4 DUP3 ADD SLOAD DUP2 MSTORE PUSH1 0x20 ADD PUSH1 0x5 DUP3 ADD SLOAD DUP2 MSTORE POP POP DUP4 DUP4 DUP2 MLOAD DUP2 LT PUSH2 0x294 JUMPI PUSH2 0x293 PUSH2 0x756 JUMP JUMPDEST JUMPDEST PUSH1 0x20 MUL PUSH1 0x20 ADD ADD DUP2 SWAP1 MSTORE POP POP DUP1 DUP1 PUSH2 0x2AB SWAP1 PUSH2 0x6DE JUMP JUMPDEST SWAP2 POP POP PUSH2 0x219 JUMP JUMPDEST POP DUP1 SWAP2 POP POP SWAP1 JUMP JUMPDEST PUSH2 0x2C3 PUSH2 0x365 JUMP JUMPDEST PUSH1 0x0 DUP1 DUP4 DUP2 MSTORE PUSH1 0x20 ADD SWAP1 DUP2 MSTORE PUSH1 0x20 ADD PUSH1 0x0 KECCAK256 PUSH1 0x40 MLOAD DUP1 PUSH1 0xC0 ADD PUSH1 0x40 MSTORE SWAP1 DUP2 PUSH1 0x0 DUP3 ADD SLOAD DUP2 MSTORE PUSH1 0x20 ADD PUSH1 0x1 DUP3 ADD SLOAD DUP2 MSTORE PUSH1 0x20 ADD PUSH1 0x2 DUP3 ADD SLOAD DUP2 MSTORE PUSH1 0x20 ADD PUSH1 0x3 DUP3 ADD SLOAD DUP2 MSTORE PUSH1 0x20 ADD PUSH1 0x4 DUP3 ADD SLOAD DUP2 MSTORE PUSH1 0x20 ADD PUSH1 0x5 DUP3 ADD SLOAD DUP2 MSTORE POP POP SWAP1 POP SWAP2 SWAP1 POP JUMP JUMPDEST PUSH1 0x0 PUSH1 0x20 MSTORE DUP1 PUSH1 0x0 MSTORE PUSH1 0x40 PUSH1 0x0 KECCAK256 PUSH1 0x0 SWAP2 POP SWAP1 POP DUP1 PUSH1 0x0 ADD SLOAD SWAP1 DUP1 PUSH1 0x1 ADD SLOAD SWAP1 DUP1 PUSH1 0x2 ADD SLOAD SWAP1 DUP1 PUSH1 0x3 ADD SLOAD SWAP1 DUP1 PUSH1 0x4 ADD SLOAD SWAP1 DUP1 PUSH1 0x5 ADD SLOAD SWAP1 POP DUP7 JUMP JUMPDEST PUSH1 0x1 SLOAD DUP2 JUMP JUMPDEST PUSH1 0x40 MLOAD DUP1 PUSH1 0xC0 ADD PUSH1 0x40 MSTORE DUP1 PUSH1 0x0 DUP2 MSTORE PUSH1 0x20 ADD PUSH1 0x0 DUP2 MSTORE PUSH1 0x20 ADD PUSH1 0x0 DUP2 MSTORE PUSH1 0x20 ADD PUSH1 0x0 DUP2 MSTORE PUSH1 0x20 ADD PUSH1 0x0 DUP2 MSTORE PUSH1 0x20 ADD PUSH1 0x0 DUP2 MSTORE POP SWAP1 JUMP JUMPDEST PUSH1 0x0 DUP2 CALLDATALOAD SWAP1 POP PUSH2 0x3AA DUP2 PUSH2 0x7B9 JUMP JUMPDEST SWAP3 SWAP2 POP POP JUMP JUMPDEST PUSH1 0x0 PUSH1 0x20 DUP3 DUP5 SUB SLT ISZERO PUSH2 0x3C6 JUMPI PUSH2 0x3C5 PUSH2 0x7B4 JUMP JUMPDEST JUMPDEST PUSH1 0x0 PUSH2 0x3D4 DUP5 DUP3 DUP6 ADD PUSH2 0x39B JUMP JUMPDEST SWAP2 POP POP SWAP3 SWAP2 POP POP JUMP JUMPDEST PUSH1 0x0 DUP1 PUSH1 0x0 DUP1 PUSH1 0x0 PUSH1 0xA0 DUP7 DUP9 SUB SLT ISZERO PUSH2 0x3F9 JUMPI PUSH2 0x3F8 PUSH2 0x7B4 JUMP JUMPDEST JUMPDEST PUSH1 0x0 PUSH2 0x407 DUP9 DUP3 DUP10 ADD PUSH2 0x39B JUMP JUMPDEST SWAP6 POP POP PUSH1 0x20 PUSH2 0x418 DUP9 DUP3 DUP10 ADD PUSH2 0x39B JUMP JUMPDEST SWAP5 POP POP PUSH1 0x40 PUSH2 0x429 DUP9 DUP3 DUP10 ADD PUSH2 0x39B JUMP JUMPDEST SWAP4 POP POP PUSH1 0x60 PUSH2 0x43A DUP9 DUP3 DUP10 ADD PUSH2 0x39B JUMP JUMPDEST SWAP3 POP POP PUSH1 0x80 PUSH2 0x44B DUP9 DUP3 DUP10 ADD PUSH2 0x39B JUMP JUMPDEST SWAP2 POP POP SWAP3 SWAP6 POP SWAP3 SWAP6 SWAP1 SWAP4 POP JUMP JUMPDEST PUSH1 0x0 PUSH2 0x464 DUP4 DUP4 PUSH2 0x4CE JUMP JUMPDEST PUSH1 0xC0 DUP4 ADD SWAP1 POP SWAP3 SWAP2 POP POP JUMP JUMPDEST PUSH1 0x0 PUSH2 0x47B DUP3 PUSH2 0x6AB JUMP JUMPDEST PUSH2 0x485 DUP2 DUP6 PUSH2 0x6C3 JUMP JUMPDEST SWAP4 POP PUSH2 0x490 DUP4 PUSH2 0x69B JUMP JUMPDEST DUP1 PUSH1 0x0 JUMPDEST DUP4 DUP2 LT ISZERO PUSH2 0x4C1 JUMPI DUP2 MLOAD PUSH2 0x4A8 DUP9 DUP3 PUSH2 0x458 JUMP JUMPDEST SWAP8 POP PUSH2 0x4B3 DUP4 PUSH2 0x6B6 JUMP JUMPDEST SWAP3 POP POP PUSH1 0x1 DUP2 ADD SWAP1 POP PUSH2 0x494 JUMP JUMPDEST POP DUP6 SWAP4 POP POP POP POP SWAP3 SWAP2 POP POP JUMP JUMPDEST PUSH1 0xC0 DUP3 ADD PUSH1 0x0 DUP3 ADD MLOAD PUSH2 0x4E4 PUSH1 0x0 DUP6 ADD DUP3 PUSH2 0x5C4 JUMP JUMPDEST POP PUSH1 0x20 DUP3 ADD MLOAD PUSH2 0x4F7 PUSH1 0x20 DUP6 ADD DUP3 PUSH2 0x5C4 JUMP JUMPDEST POP PUSH1 0x40 DUP3 ADD MLOAD PUSH2 0x50A PUSH1 0x40 DUP6 ADD DUP3 PUSH2 0x5C4 JUMP JUMPDEST POP PUSH1 0x60 DUP3 ADD MLOAD PUSH2 0x51D PUSH1 0x60 DUP6 ADD DUP3 PUSH2 0x5C4 JUMP JUMPDEST POP PUSH1 0x80 DUP3 ADD MLOAD PUSH2 0x530 PUSH1 0x80 DUP6 ADD DUP3 PUSH2 0x5C4 JUMP JUMPDEST POP PUSH1 0xA0 DUP3 ADD MLOAD PUSH2 0x543 PUSH1 0xA0 DUP6 ADD DUP3 PUSH2 0x5C4 JUMP JUMPDEST POP POP POP POP JUMP JUMPDEST PUSH1 0xC0 DUP3 ADD PUSH1 0x0 DUP3 ADD MLOAD PUSH2 0x55F PUSH1 0x0 DUP6 ADD DUP3 PUSH2 0x5C4 JUMP JUMPDEST POP PUSH1 0x20 DUP3 ADD MLOAD PUSH2 0x572 PUSH1 0x20 DUP6 ADD DUP3 PUSH2 0x5C4 JUMP JUMPDEST POP PUSH1 0x40 DUP3 ADD MLOAD PUSH2 0x585 PUSH1 0x40 DUP6 ADD DUP3 PUSH2 0x5C4 JUMP JUMPDEST POP PUSH1 0x60 DUP3 ADD MLOAD PUSH2 0x598 PUSH1 0x60 DUP6 ADD DUP3 PUSH2 0x5C4 JUMP JUMPDEST POP PUSH1 0x80 DUP3 ADD MLOAD PUSH2 0x5AB PUSH1 0x80 DUP6 ADD DUP3 PUSH2 0x5C4 JUMP JUMPDEST POP PUSH1 0xA0 DUP3 ADD MLOAD PUSH2 0x5BE PUSH1 0xA0 DUP6 ADD DUP3 PUSH2 0x5C4 JUMP JUMPDEST POP POP POP POP JUMP JUMPDEST PUSH2 0x5CD DUP2 PUSH2 0x6D4 JUMP JUMPDEST DUP3 MSTORE POP POP JUMP JUMPDEST PUSH2 0x5DC DUP2 PUSH2 0x6D4 JUMP JUMPDEST DUP3 MSTORE POP POP JUMP JUMPDEST PUSH1 0x0 PUSH1 0x20 DUP3 ADD SWAP1 POP DUP2 DUP2 SUB PUSH1 0x0 DUP4 ADD MSTORE PUSH2 0x5FC DUP2 DUP5 PUSH2 0x470 JUMP JUMPDEST SWAP1 POP SWAP3 SWAP2 POP POP JUMP JUMPDEST PUSH1 0x0 PUSH1 0xC0 DUP3 ADD SWAP1 POP PUSH2 0x619 PUSH1 0x0 DUP4 ADD DUP5 PUSH2 0x549 JUMP JUMPDEST SWAP3 SWAP2 POP POP JUMP JUMPDEST PUSH1 0x0 PUSH1 0x20 DUP3 ADD SWAP1 POP PUSH2 0x634 PUSH1 0x0 DUP4 ADD DUP5 PUSH2 0x5D3 JUMP JUMPDEST SWAP3 SWAP2 POP POP JUMP JUMPDEST PUSH1 0x0 PUSH1 0xC0 DUP3 ADD SWAP1 POP PUSH2 0x64F PUSH1 0x0 DUP4 ADD DUP10 PUSH2 0x5D3 JUMP JUMPDEST PUSH2 0x65C PUSH1 0x20 DUP4 ADD DUP9 PUSH2 0x5D3 JUMP JUMPDEST PUSH2 0x669 PUSH1 0x40 DUP4 ADD DUP8 PUSH2 0x5D3 JUMP JUMPDEST PUSH2 0x676 PUSH1 0x60 DUP4 ADD DUP7 PUSH2 0x5D3 JUMP JUMPDEST PUSH2 0x683 PUSH1 0x80 DUP4 ADD DUP6 PUSH2 0x5D3 JUMP JUMPDEST PUSH2 0x690 PUSH1 0xA0 DUP4 ADD DUP5 PUSH2 0x5D3 JUMP JUMPDEST SWAP8 SWAP7 POP POP POP POP POP POP POP JUMP JUMPDEST PUSH1 0x0 DUP2 SWAP1 POP PUSH1 0x20 DUP3 ADD SWAP1 POP SWAP2 SWAP1 POP JUMP JUMPDEST PUSH1 0x0 DUP2 MLOAD SWAP1 POP SWAP2 SWAP1 POP JUMP JUMPDEST PUSH1 0x0 PUSH1 0x20 DUP3 ADD SWAP1 POP SWAP2 SWAP1 POP JUMP JUMPDEST PUSH1 0x0 DUP3 DUP3 MSTORE PUSH1 0x20 DUP3 ADD SWAP1 POP SWAP3 SWAP2 POP POP JUMP JUMPDEST PUSH1 0x0 DUP2 SWAP1 POP SWAP2 SWAP1 POP JUMP JUMPDEST PUSH1 0x0 PUSH2 0x6E9 DUP3 PUSH2 0x6D4 JUMP JUMPDEST SWAP2 POP PUSH32 0xFFFFFFFFFFFFFFFFFFFFFFFFFFFFFFFFFFFFFFFFFFFFFFFFFFFFFFFFFFFFFFFF DUP3 EQ ISZERO PUSH2 0x71C JUMPI PUSH2 0x71B PUSH2 0x727 JUMP JUMPDEST JUMPDEST PUSH1 0x1 DUP3 ADD SWAP1 POP SWAP2 SWAP1 POP JUMP JUMPDEST PUSH32 0x4E487B7100000000000000000000000000000000000000000000000000000000 PUSH1 0x0 MSTORE PUSH1 0x11 PUSH1 0x4 MSTORE PUSH1 0x24 PUSH1 0x0 REVERT JUMPDEST PUSH32 0x4E487B7100000000000000000000000000000000000000000000000000000000 PUSH1 0x0 MSTORE PUSH1 0x32 PUSH1 0x4 MSTORE PUSH1 0x24 PUSH1 0x0 REVERT JUMPDEST PUSH32 0x4E487B7100000000000000000000000000000000000000000000000000000000 PUSH1 0x0 MSTORE PUSH1 0x41 PUSH1 0x4 MSTORE PUSH1 0x24 PUSH1 0x0 REVERT JUMPDEST PUSH1 0x0 DUP1 REVERT JUMPDEST PUSH2 0x7C2 DUP2 PUSH2 0x6D4 JUMP JUMPDEST DUP2 EQ PUSH2 0x7CD JUMPI PUSH1 0x0 DUP1 REVERT JUMPDEST POP JUMP INVALID LOG2 PUSH5 0x6970667358 0x22 SLT KECCAK256 REVERT SWAP9 LOG0 DUP6 0xEA 0x26 0xBC DUP9 PUSH12 0x4EDEDC0456D1B243EFC6AE30 DUP7 0xC6 KECCAK256 CALLER DUP7 PUSH10 0x495CBE03F64736F6C63 NUMBER STOP ADDMOD SMOD STOP CALLER "
				},
				"gasEstimates": {
					"creation": {
						"codeDepositCost": "410800",
						"executionCost": "5463",
						"totalCost": "416263"
					},
					"external": {
						"addTransaction(uint256,uint256,uint256,uint256,uint256)": "infinite",
						"get(uint256)": "infinite",
						"getTransactions()": "infinite",
						"transactions(uint256)": "infinite",
						"transactionsCount()": "2495"
					}
				},
				"methodIdentifiers": {
					"addTransaction(uint256,uint256,uint256,uint256,uint256)": "634e1a29",
					"get(uint256)": "9507d39a",
					"getTransactions()": "83920e90",
					"transactions(uint256)": "9ace38c2",
					"transactionsCount()": "fd99a746"
				}
			},
			"storageLayout": {
				"storage": [
					{
						"astId": 19,
						"contract": "contracts/Transaction.sol:Transactions",
						"label": "transactions",
						"offset": 0,
						"slot": "0",
						"type": "t_mapping(t_uint256,t_struct(Transaction)14_storage)"
					},
					{
						"astId": 21,
						"contract": "contracts/Transaction.sol:Transactions",
						"label": "transactionsCount",
						"offset": 0,
						"slot": "1",
						"type": "t_uint256"
					}
				],
				"types": {
					"t_mapping(t_uint256,t_struct(Transaction)14_storage)": {
						"encoding": "mapping",
						"key": "t_uint256",
						"label": "mapping(uint256 => struct Transactions.Transaction)",
						"numberOfBytes": "32",
						"value": "t_struct(Transaction)14_storage"
					},
					"t_struct(Transaction)14_storage": {
						"encoding": "inplace",
						"label": "struct Transactions.Transaction",
						"members": [
							{
								"astId": 3,
								"contract": "contracts/Transaction.sol:Transactions",
								"label": "TransactionID",
								"offset": 0,
								"slot": "0",
								"type": "t_uint256"
							},
							{
								"astId": 5,
								"contract": "contracts/Transaction.sol:Transactions",
								"label": "PatchNo",
								"offset": 0,
								"slot": "1",
								"type": "t_uint256"
							},
							{
								"astId": 7,
								"contract": "contracts/Transaction.sol:Transactions",
								"label": "CurrentOwner",
								"offset": 0,
								"slot": "2",
								"type": "t_uint256"
							},
							{
								"astId": 9,
								"contract": "contracts/Transaction.sol:Transactions",
								"label": "FromOwner",
								"offset": 0,
								"slot": "3",
								"type": "t_uint256"
							},
							{
								"astId": 11,
								"contract": "contracts/Transaction.sol:Transactions",
								"label": "TransferedAmount",
								"offset": 0,
								"slot": "4",
								"type": "t_uint256"
							},
							{
								"astId": 13,
								"contract": "contracts/Transaction.sol:Transactions",
								"label": "TransactionDate",
								"offset": 0,
								"slot": "5",
								"type": "t_uint256"
							}
						],
						"numberOfBytes": "192"
					},
					"t_uint256": {
						"encoding": "inplace",
						"label": "uint256",
						"numberOfBytes": "32"
					}
				}
			},
			"userdoc": {
				"kind": "user",
				"methods": {},
				"version": 1
			}
		}
	}
}