{
	"contracts/Test.sol": {
		"CrudApp": {
			"abi": [
				{
					"inputs": [],
					"stateMutability": "nonpayable",
					"type": "constructor"
				},
				{
					"anonymous": false,
					"inputs": [
						{
							"indexed": false,
							"internalType": "string",
							"name": "countryName",
							"type": "string"
						}
					],
					"name": "CountryDelete",
					"type": "event"
				},
				{
					"anonymous": false,
					"inputs": [
						{
							"indexed": false,
							"internalType": "string",
							"name": "countryName",
							"type": "string"
						},
						{
							"indexed": false,
							"internalType": "string",
							"name": "leader",
							"type": "string"
						},
						{
							"indexed": false,
							"internalType": "uint256",
							"name": "population",
							"type": "uint256"
						}
					],
					"name": "CountryEvent",
					"type": "event"
				},
				{
					"anonymous": false,
					"inputs": [
						{
							"indexed": false,
							"internalType": "string",
							"name": "countryName",
							"type": "string"
						},
						{
							"indexed": false,
							"internalType": "string",
							"name": "leader",
							"type": "string"
						}
					],
					"name": "LeaderUpdated",
					"type": "event"
				},
				{
					"inputs": [
						{
							"internalType": "uint256",
							"name": "",
							"type": "uint256"
						}
					],
					"name": "countries",
					"outputs": [
						{
							"internalType": "string",
							"name": "name",
							"type": "string"
						},
						{
							"internalType": "string",
							"name": "leader",
							"type": "string"
						},
						{
							"internalType": "uint256",
							"name": "population",
							"type": "uint256"
						}
					],
					"stateMutability": "view",
					"type": "function"
				},
				{
					"inputs": [
						{
							"internalType": "string",
							"name": "countryName",
							"type": "string"
						}
					],
					"name": "deleteCountry",
					"outputs": [
						{
							"internalType": "bool",
							"name": "success",
							"type": "bool"
						}
					],
					"stateMutability": "nonpayable",
					"type": "function"
				},
				{
					"inputs": [
						{
							"internalType": "string",
							"name": "countryName",
							"type": "string"
						}
					],
					"name": "getCountry",
					"outputs": [
						{
							"internalType": "string",
							"name": "name",
							"type": "string"
						},
						{
							"internalType": "string",
							"name": "leader",
							"type": "string"
						},
						{
							"internalType": "uint256",
							"name": "population",
							"type": "uint256"
						}
					],
					"stateMutability": "view",
					"type": "function"
				},
				{
					"inputs": [],
					"name": "getTotalCountries",
					"outputs": [
						{
							"internalType": "uint256",
							"name": "length",
							"type": "uint256"
						}
					],
					"stateMutability": "view",
					"type": "function"
				},
				{
					"inputs": [
						{
							"internalType": "string",
							"name": "countryName",
							"type": "string"
						},
						{
							"internalType": "string",
							"name": "leader",
							"type": "string"
						},
						{
							"internalType": "uint256",
							"name": "population",
							"type": "uint256"
						}
					],
					"name": "insert",
					"outputs": [
						{
							"internalType": "uint256",
							"name": "_totalCountries",
							"type": "uint256"
						}
					],
					"stateMutability": "nonpayable",
					"type": "function"
				},
				{
					"inputs": [],
					"name": "totalCountries",
					"outputs": [
						{
							"internalType": "uint256",
							"name": "",
							"type": "uint256"
						}
					],
					"stateMutability": "view",
					"type": "function"
				},
				{
					"inputs": [
						{
							"internalType": "string",
							"name": "countryName",
							"type": "string"
						},
						{
							"internalType": "string",
							"name": "newLeader",
							"type": "string"
						}
					],
					"name": "updateLeader",
					"outputs": [
						{
							"internalType": "bool",
							"name": "success",
							"type": "bool"
						}
					],
					"stateMutability": "nonpayable",
					"type": "function"
				}
			],
			"devdoc": {
				"kind": "dev",
				"methods": {},
				"version": 1
			},
			"evm": {
				"assembly": "    /* \"contracts/Test.sol\":97:3026  contract CrudApp {\r... */\n  mstore(0x40, 0x80)\n    /* \"contracts/Test.sol\":304:353  constructor() {\r... */\n  callvalue\n  dup1\n  iszero\n  tag_1\n  jumpi\n  0x00\n  dup1\n  revert\ntag_1:\n  pop\n    /* \"contracts/Test.sol\":345:346  0 */\n  0x00\n    /* \"contracts/Test.sol\":328:342  totalCountries */\n  0x01\n    /* \"contracts/Test.sol\":328:346  totalCountries = 0 */\n  dup2\n  swap1\n  sstore\n  pop\n    /* \"contracts/Test.sol\":97:3026  contract CrudApp {\r... */\n  dataSize(sub_0)\n  dup1\n  dataOffset(sub_0)\n  0x00\n  codecopy\n  0x00\n  return\nstop\n\nsub_0: assembly {\n        /* \"contracts/Test.sol\":97:3026  contract CrudApp {\r... */\n      mstore(0x40, 0x80)\n      callvalue\n      dup1\n      iszero\n      tag_1\n      jumpi\n      0x00\n      dup1\n      revert\n    tag_1:\n      pop\n      jumpi(tag_2, lt(calldatasize, 0x04))\n      shr(0xe0, calldataload(0x00))\n      dup1\n      0x848924cb\n      gt\n      tag_10\n      jumpi\n      dup1\n      0x848924cb\n      eq\n      tag_6\n      jumpi\n      dup1\n      0xacf75458\n      eq\n      tag_7\n      jumpi\n      dup1\n      0xc1356d26\n      eq\n      tag_8\n      jumpi\n      dup1\n      0xcae65058\n      eq\n      tag_9\n      jumpi\n      jump(tag_2)\n    tag_10:\n      dup1\n      0x08e9daa5\n      eq\n      tag_3\n      jumpi\n      dup1\n      0x62738129\n      eq\n      tag_4\n      jumpi\n      dup1\n      0x81ba02be\n      eq\n      tag_5\n      jumpi\n    tag_2:\n      0x00\n      dup1\n      revert\n        /* \"contracts/Test.sol\":225:251  country[] public countries */\n    tag_3:\n      tag_11\n      0x04\n      dup1\n      calldatasize\n      sub\n      dup2\n      add\n      swap1\n      tag_12\n      swap2\n      swap1\n      tag_13\n      jump\t// in\n    tag_12:\n      tag_14\n      jump\t// in\n    tag_11:\n      mload(0x40)\n      tag_15\n      swap4\n      swap3\n      swap2\n      swap1\n      tag_16\n      jump\t// in\n    tag_15:\n      mload(0x40)\n      dup1\n      swap2\n      sub\n      swap1\n      return\n        /* \"contracts/Test.sol\":260:289  uint256 public totalCountries */\n    tag_4:\n      tag_17\n      tag_18\n      jump\t// in\n    tag_17:\n      mload(0x40)\n      tag_19\n      swap2\n      swap1\n      tag_20\n      jump\t// in\n    tag_19:\n      mload(0x40)\n      dup1\n      swap2\n      sub\n      swap1\n      return\n        /* \"contracts/Test.sol\":968:1418  function updateLeader(string memory countryName, string memory newLeader) public returns (bool success){\r... */\n    tag_5:\n      tag_21\n      0x04\n      dup1\n      calldatasize\n      sub\n      dup2\n      add\n      swap1\n      tag_22\n      swap2\n      swap1\n      tag_23\n      jump\t// in\n    tag_22:\n      tag_24\n      jump\t// in\n    tag_21:\n      mload(0x40)\n      tag_25\n      swap2\n      swap1\n      tag_26\n      jump\t// in\n    tag_25:\n      mload(0x40)\n      dup1\n      swap2\n      sub\n      swap1\n      return\n        /* \"contracts/Test.sol\":2158:2591  function getCountry(string memory countryName) public view returns(string memory name , string memory leader , uint256 population){\r... */\n    tag_6:\n      tag_27\n      0x04\n      dup1\n      calldatasize\n      sub\n      dup2\n      add\n      swap1\n      tag_28\n      swap2\n      swap1\n      tag_29\n      jump\t// in\n    tag_28:\n      tag_30\n      jump\t// in\n    tag_27:\n      mload(0x40)\n      tag_31\n      swap4\n      swap3\n      swap2\n      swap1\n      tag_16\n      jump\t// in\n    tag_31:\n      mload(0x40)\n      dup1\n      swap2\n      sub\n      swap1\n      return\n        /* \"contracts/Test.sol\":2796:2900  function getTotalCountries() public view returns (uint256 length){\r... */\n    tag_7:\n      tag_32\n      tag_33\n      jump\t// in\n    tag_32:\n      mload(0x40)\n      tag_34\n      swap2\n      swap1\n      tag_20\n      jump\t// in\n    tag_34:\n      mload(0x40)\n      dup1\n      swap2\n      sub\n      swap1\n      return\n        /* \"contracts/Test.sol\":561:958  function insert( string memory countryName , string memory leader , uint256 population) public returns (uint256 _totalCountries){\r... */\n    tag_8:\n      tag_35\n      0x04\n      dup1\n      calldatasize\n      sub\n      dup2\n      add\n      swap1\n      tag_36\n      swap2\n      swap1\n      tag_37\n      jump\t// in\n    tag_36:\n      tag_38\n      jump\t// in\n    tag_35:\n      mload(0x40)\n      tag_39\n      swap2\n      swap1\n      tag_20\n      jump\t// in\n    tag_39:\n      mload(0x40)\n      dup1\n      swap2\n      sub\n      swap1\n      return\n        /* \"contracts/Test.sol\":1428:2141  function deleteCountry(string memory countryName) public returns(bool success){\r... */\n    tag_9:\n      tag_40\n      0x04\n      dup1\n      calldatasize\n      sub\n      dup2\n      add\n      swap1\n      tag_41\n      swap2\n      swap1\n      tag_29\n      jump\t// in\n    tag_41:\n      tag_42\n      jump\t// in\n    tag_40:\n      mload(0x40)\n      tag_43\n      swap2\n      swap1\n      tag_26\n      jump\t// in\n    tag_43:\n      mload(0x40)\n      dup1\n      swap2\n      sub\n      swap1\n      return\n        /* \"contracts/Test.sol\":225:251  country[] public countries */\n    tag_14:\n      0x00\n      dup2\n      dup2\n      sload\n      dup2\n      lt\n      tag_44\n      jumpi\n      0x00\n      dup1\n      revert\n    tag_44:\n      swap1\n      0x00\n      mstore\n      keccak256(0x00, 0x20)\n      swap1\n      0x03\n      mul\n      add\n      0x00\n      swap2\n      pop\n      swap1\n      pop\n      dup1\n      0x00\n      add\n      dup1\n      sload\n      tag_46\n      swap1\n      tag_47\n      jump\t// in\n    tag_46:\n      dup1\n      0x1f\n      add\n      0x20\n      dup1\n      swap2\n      div\n      mul\n      0x20\n      add\n      mload(0x40)\n      swap1\n      dup2\n      add\n      0x40\n      mstore\n      dup1\n      swap3\n      swap2\n      swap1\n      dup2\n      dup2\n      mstore\n      0x20\n      add\n      dup3\n      dup1\n      sload\n      tag_48\n      swap1\n      tag_47\n      jump\t// in\n    tag_48:\n      dup1\n      iszero\n      tag_49\n      jumpi\n      dup1\n      0x1f\n      lt\n      tag_50\n      jumpi\n      0x0100\n      dup1\n      dup4\n      sload\n      div\n      mul\n      dup4\n      mstore\n      swap2\n      0x20\n      add\n      swap2\n      jump(tag_49)\n    tag_50:\n      dup3\n      add\n      swap2\n      swap1\n      0x00\n      mstore\n      keccak256(0x00, 0x20)\n      swap1\n    tag_51:\n      dup2\n      sload\n      dup2\n      mstore\n      swap1\n      0x01\n      add\n      swap1\n      0x20\n      add\n      dup1\n      dup4\n      gt\n      tag_51\n      jumpi\n      dup3\n      swap1\n      sub\n      0x1f\n      and\n      dup3\n      add\n      swap2\n    tag_49:\n      pop\n      pop\n      pop\n      pop\n      pop\n      swap1\n      dup1\n      0x01\n      add\n      dup1\n      sload\n      tag_52\n      swap1\n      tag_47\n      jump\t// in\n    tag_52:\n      dup1\n      0x1f\n      add\n      0x20\n      dup1\n      swap2\n      div\n      mul\n      0x20\n      add\n      mload(0x40)\n      swap1\n      dup2\n      add\n      0x40\n      mstore\n      dup1\n      swap3\n      swap2\n      swap1\n      dup2\n      dup2\n      mstore\n      0x20\n      add\n      dup3\n      dup1\n      sload\n      tag_53\n      swap1\n      tag_47\n      jump\t// in\n    tag_53:\n      dup1\n      iszero\n      tag_54\n      jumpi\n      dup1\n      0x1f\n      lt\n      tag_55\n      jumpi\n      0x0100\n      dup1\n      dup4\n      sload\n      div\n      mul\n      dup4\n      mstore\n      swap2\n      0x20\n      add\n      swap2\n      jump(tag_54)\n    tag_55:\n      dup3\n      add\n      swap2\n      swap1\n      0x00\n      mstore\n      keccak256(0x00, 0x20)\n      swap1\n    tag_56:\n      dup2\n      sload\n      dup2\n      mstore\n      swap1\n      0x01\n      add\n      swap1\n      0x20\n      add\n      dup1\n      dup4\n      gt\n      tag_56\n      jumpi\n      dup3\n      swap1\n      sub\n      0x1f\n      and\n      dup3\n      add\n      swap2\n    tag_54:\n      pop\n      pop\n      pop\n      pop\n      pop\n      swap1\n      dup1\n      0x02\n      add\n      sload\n      swap1\n      pop\n      dup4\n      jump\t// out\n        /* \"contracts/Test.sol\":260:289  uint256 public totalCountries */\n    tag_18:\n      sload(0x01)\n      dup2\n      jump\t// out\n        /* \"contracts/Test.sol\":968:1418  function updateLeader(string memory countryName, string memory newLeader) public returns (bool success){\r... */\n    tag_24:\n        /* \"contracts/Test.sol\":1058:1070  bool success */\n      0x00\n        /* \"contracts/Test.sol\":1127:1136  uint256 i */\n      dup1\n        /* \"contracts/Test.sol\":1138:1139  0 */\n      0x00\n        /* \"contracts/Test.sol\":1127:1139  uint256 i =0 */\n      swap1\n      pop\n        /* \"contracts/Test.sol\":1123:1390  for(uint256 i =0; i< totalCountries; i++){\r... */\n    tag_58:\n        /* \"contracts/Test.sol\":1144:1158  totalCountries */\n      sload(0x01)\n        /* \"contracts/Test.sol\":1141:1142  i */\n      dup2\n        /* \"contracts/Test.sol\":1141:1158  i< totalCountries */\n      lt\n        /* \"contracts/Test.sol\":1123:1390  for(uint256 i =0; i< totalCountries; i++){\r... */\n      iszero\n      tag_59\n      jumpi\n        /* \"contracts/Test.sol\":1181:1227  compareStrings(countries[i].name ,countryName) */\n      tag_61\n        /* \"contracts/Test.sol\":1196:1205  countries */\n      0x00\n        /* \"contracts/Test.sol\":1206:1207  i */\n      dup3\n        /* \"contracts/Test.sol\":1196:1208  countries[i] */\n      dup2\n      sload\n      dup2\n      lt\n      tag_62\n      jumpi\n      tag_63\n      tag_64\n      jump\t// in\n    tag_63:\n    tag_62:\n      swap1\n      0x00\n      mstore\n      keccak256(0x00, 0x20)\n      swap1\n      0x03\n      mul\n      add\n        /* \"contracts/Test.sol\":1196:1213  countries[i].name */\n      0x00\n      add\n        /* \"contracts/Test.sol\":1181:1227  compareStrings(countries[i].name ,countryName) */\n      dup1\n      sload\n      tag_66\n      swap1\n      tag_47\n      jump\t// in\n    tag_66:\n      dup1\n      0x1f\n      add\n      0x20\n      dup1\n      swap2\n      div\n      mul\n      0x20\n      add\n      mload(0x40)\n      swap1\n      dup2\n      add\n      0x40\n      mstore\n      dup1\n      swap3\n      swap2\n      swap1\n      dup2\n      dup2\n      mstore\n      0x20\n      add\n      dup3\n      dup1\n      sload\n      tag_67\n      swap1\n      tag_47\n      jump\t// in\n    tag_67:\n      dup1\n      iszero\n      tag_68\n      jumpi\n      dup1\n      0x1f\n      lt\n      tag_69\n      jumpi\n      0x0100\n      dup1\n      dup4\n      sload\n      div\n      mul\n      dup4\n      mstore\n      swap2\n      0x20\n      add\n      swap2\n      jump(tag_68)\n    tag_69:\n      dup3\n      add\n      swap2\n      swap1\n      0x00\n      mstore\n      keccak256(0x00, 0x20)\n      swap1\n    tag_70:\n      dup2\n      sload\n      dup2\n      mstore\n      swap1\n      0x01\n      add\n      swap1\n      0x20\n      add\n      dup1\n      dup4\n      gt\n      tag_70\n      jumpi\n      dup3\n      swap1\n      sub\n      0x1f\n      and\n      dup3\n      add\n      swap2\n    tag_68:\n      pop\n      pop\n      pop\n      pop\n      pop\n        /* \"contracts/Test.sol\":1215:1226  countryName */\n      dup6\n        /* \"contracts/Test.sol\":1181:1195  compareStrings */\n      tag_71\n        /* \"contracts/Test.sol\":1181:1227  compareStrings(countries[i].name ,countryName) */\n      jump\t// in\n    tag_61:\n        /* \"contracts/Test.sol\":1178:1380  if(compareStrings(countries[i].name ,countryName)){\r... */\n      iszero\n      tag_72\n      jumpi\n        /* \"contracts/Test.sol\":1267:1276  newLeader */\n      dup3\n        /* \"contracts/Test.sol\":1245:1254  countries */\n      0x00\n        /* \"contracts/Test.sol\":1255:1256  i */\n      dup3\n        /* \"contracts/Test.sol\":1245:1257  countries[i] */\n      dup2\n      sload\n      dup2\n      lt\n      tag_73\n      jumpi\n      tag_74\n      tag_64\n      jump\t// in\n    tag_74:\n    tag_73:\n      swap1\n      0x00\n      mstore\n      keccak256(0x00, 0x20)\n      swap1\n      0x03\n      mul\n      add\n        /* \"contracts/Test.sol\":1245:1264  countries[i].leader */\n      0x01\n      add\n        /* \"contracts/Test.sol\":1245:1276  countries[i].leader = newLeader */\n      swap1\n      dup1\n      mload\n      swap1\n      0x20\n      add\n      swap1\n      tag_76\n      swap3\n      swap2\n      swap1\n      tag_77\n      jump\t// in\n    tag_76:\n      pop\n        /* \"contracts/Test.sol\":1361:1365  true */\n      0x01\n        /* \"contracts/Test.sol\":1354:1365  return true */\n      swap2\n      pop\n      pop\n      jump(tag_57)\n        /* \"contracts/Test.sol\":1178:1380  if(compareStrings(countries[i].name ,countryName)){\r... */\n    tag_72:\n        /* \"contracts/Test.sol\":1160:1163  i++ */\n      dup1\n      dup1\n      tag_78\n      swap1\n      tag_79\n      jump\t// in\n    tag_78:\n      swap2\n      pop\n      pop\n        /* \"contracts/Test.sol\":1123:1390  for(uint256 i =0; i< totalCountries; i++){\r... */\n      jump(tag_58)\n    tag_59:\n      pop\n        /* \"contracts/Test.sol\":1406:1411  false */\n      0x00\n        /* \"contracts/Test.sol\":1399:1411  return false */\n      swap1\n      pop\n        /* \"contracts/Test.sol\":968:1418  function updateLeader(string memory countryName, string memory newLeader) public returns (bool success){\r... */\n    tag_57:\n      swap3\n      swap2\n      pop\n      pop\n      jump\t// out\n        /* \"contracts/Test.sol\":2158:2591  function getCountry(string memory countryName) public view returns(string memory name , string memory leader , uint256 population){\r... */\n    tag_30:\n        /* \"contracts/Test.sol\":2225:2243  string memory name */\n      0x60\n        /* \"contracts/Test.sol\":2246:2266  string memory leader */\n      dup1\n        /* \"contracts/Test.sol\":2269:2287  uint256 population */\n      0x00\n        /* \"contracts/Test.sol\":2303:2312  uint256 i */\n      dup1\n        /* \"contracts/Test.sol\":2314:2315  0 */\n      0x00\n        /* \"contracts/Test.sol\":2303:2315  uint256 i =0 */\n      swap1\n      pop\n        /* \"contracts/Test.sol\":2299:2548  for(uint256 i =0; i< totalCountries; i++){\r... */\n    tag_81:\n        /* \"contracts/Test.sol\":2320:2334  totalCountries */\n      sload(0x01)\n        /* \"contracts/Test.sol\":2317:2318  i */\n      dup2\n        /* \"contracts/Test.sol\":2317:2334  i< totalCountries */\n      lt\n        /* \"contracts/Test.sol\":2299:2548  for(uint256 i =0; i< totalCountries; i++){\r... */\n      iszero\n      tag_82\n      jumpi\n        /* \"contracts/Test.sol\":2357:2403  compareStrings(countries[i].name, countryName) */\n      tag_84\n        /* \"contracts/Test.sol\":2372:2381  countries */\n      0x00\n        /* \"contracts/Test.sol\":2382:2383  i */\n      dup3\n        /* \"contracts/Test.sol\":2372:2384  countries[i] */\n      dup2\n      sload\n      dup2\n      lt\n      tag_85\n      jumpi\n      tag_86\n      tag_64\n      jump\t// in\n    tag_86:\n    tag_85:\n      swap1\n      0x00\n      mstore\n      keccak256(0x00, 0x20)\n      swap1\n      0x03\n      mul\n      add\n        /* \"contracts/Test.sol\":2372:2389  countries[i].name */\n      0x00\n      add\n        /* \"contracts/Test.sol\":2357:2403  compareStrings(countries[i].name, countryName) */\n      dup1\n      sload\n      tag_88\n      swap1\n      tag_47\n      jump\t// in\n    tag_88:\n      dup1\n      0x1f\n      add\n      0x20\n      dup1\n      swap2\n      div\n      mul\n      0x20\n      add\n      mload(0x40)\n      swap1\n      dup2\n      add\n      0x40\n      mstore\n      dup1\n      swap3\n      swap2\n      swap1\n      dup2\n      dup2\n      mstore\n      0x20\n      add\n      dup3\n      dup1\n      sload\n      tag_89\n      swap1\n      tag_47\n      jump\t// in\n    tag_89:\n      dup1\n      iszero\n      tag_90\n      jumpi\n      dup1\n      0x1f\n      lt\n      tag_91\n      jumpi\n      0x0100\n      dup1\n      dup4\n      sload\n      div\n      mul\n      dup4\n      mstore\n      swap2\n      0x20\n      add\n      swap2\n      jump(tag_90)\n    tag_91:\n      dup3\n      add\n      swap2\n      swap1\n      0x00\n      mstore\n      keccak256(0x00, 0x20)\n      swap1\n    tag_92:\n      dup2\n      sload\n      dup2\n      mstore\n      swap1\n      0x01\n      add\n      swap1\n      0x20\n      add\n      dup1\n      dup4\n      gt\n      tag_92\n      jumpi\n      dup3\n      swap1\n      sub\n      0x1f\n      and\n      dup3\n      add\n      swap2\n    tag_90:\n      pop\n      pop\n      pop\n      pop\n      pop\n        /* \"contracts/Test.sol\":2391:2402  countryName */\n      dup7\n        /* \"contracts/Test.sol\":2357:2371  compareStrings */\n      tag_71\n        /* \"contracts/Test.sol\":2357:2403  compareStrings(countries[i].name, countryName) */\n      jump\t// in\n    tag_84:\n        /* \"contracts/Test.sol\":2354:2538  if(compareStrings(countries[i].name, countryName)){\r... */\n      iszero\n      tag_93\n      jumpi\n        /* \"contracts/Test.sol\":2457:2466  countries */\n      0x00\n        /* \"contracts/Test.sol\":2467:2468  i */\n      dup2\n        /* \"contracts/Test.sol\":2457:2469  countries[i] */\n      dup2\n      sload\n      dup2\n      lt\n      tag_94\n      jumpi\n      tag_95\n      tag_64\n      jump\t// in\n    tag_95:\n    tag_94:\n      swap1\n      0x00\n      mstore\n      keccak256(0x00, 0x20)\n      swap1\n      0x03\n      mul\n      add\n        /* \"contracts/Test.sol\":2457:2474  countries[i].name */\n      0x00\n      add\n        /* \"contracts/Test.sol\":2477:2486  countries */\n      0x00\n        /* \"contracts/Test.sol\":2487:2488  i */\n      dup3\n        /* \"contracts/Test.sol\":2477:2489  countries[i] */\n      dup2\n      sload\n      dup2\n      lt\n      tag_97\n      jumpi\n      tag_98\n      tag_64\n      jump\t// in\n    tag_98:\n    tag_97:\n      swap1\n      0x00\n      mstore\n      keccak256(0x00, 0x20)\n      swap1\n      0x03\n      mul\n      add\n        /* \"contracts/Test.sol\":2477:2496  countries[i].leader */\n      0x01\n      add\n        /* \"contracts/Test.sol\":2499:2508  countries */\n      0x00\n        /* \"contracts/Test.sol\":2509:2510  i */\n      dup4\n        /* \"contracts/Test.sol\":2499:2511  countries[i] */\n      dup2\n      sload\n      dup2\n      lt\n      tag_100\n      jumpi\n      tag_101\n      tag_64\n      jump\t// in\n    tag_101:\n    tag_100:\n      swap1\n      0x00\n      mstore\n      keccak256(0x00, 0x20)\n      swap1\n      0x03\n      mul\n      add\n        /* \"contracts/Test.sol\":2499:2522  countries[i].population */\n      0x02\n      add\n      sload\n        /* \"contracts/Test.sol\":2449:2523  return (countries[i].name , countries[i].leader , countries[i].population) */\n      dup3\n      dup1\n      sload\n      tag_103\n      swap1\n      tag_47\n      jump\t// in\n    tag_103:\n      dup1\n      0x1f\n      add\n      0x20\n      dup1\n      swap2\n      div\n      mul\n      0x20\n      add\n      mload(0x40)\n      swap1\n      dup2\n      add\n      0x40\n      mstore\n      dup1\n      swap3\n      swap2\n      swap1\n      dup2\n      dup2\n      mstore\n      0x20\n      add\n      dup3\n      dup1\n      sload\n      tag_104\n      swap1\n      tag_47\n      jump\t// in\n    tag_104:\n      dup1\n      iszero\n      tag_105\n      jumpi\n      dup1\n      0x1f\n      lt\n      tag_106\n      jumpi\n      0x0100\n      dup1\n      dup4\n      sload\n      div\n      mul\n      dup4\n      mstore\n      swap2\n      0x20\n      add\n      swap2\n      jump(tag_105)\n    tag_106:\n      dup3\n      add\n      swap2\n      swap1\n      0x00\n      mstore\n      keccak256(0x00, 0x20)\n      swap1\n    tag_107:\n      dup2\n      sload\n      dup2\n      mstore\n      swap1\n      0x01\n      add\n      swap1\n      0x20\n      add\n      dup1\n      dup4\n      gt\n      tag_107\n      jumpi\n      dup3\n      swap1\n      sub\n      0x1f\n      and\n      dup3\n      add\n      swap2\n    tag_105:\n      pop\n      pop\n      pop\n      pop\n      pop\n      swap3\n      pop\n      dup2\n      dup1\n      sload\n      tag_108\n      swap1\n      tag_47\n      jump\t// in\n    tag_108:\n      dup1\n      0x1f\n      add\n      0x20\n      dup1\n      swap2\n      div\n      mul\n      0x20\n      add\n      mload(0x40)\n      swap1\n      dup2\n      add\n      0x40\n      mstore\n      dup1\n      swap3\n      swap2\n      swap1\n      dup2\n      dup2\n      mstore\n      0x20\n      add\n      dup3\n      dup1\n      sload\n      tag_109\n      swap1\n      tag_47\n      jump\t// in\n    tag_109:\n      dup1\n      iszero\n      tag_110\n      jumpi\n      dup1\n      0x1f\n      lt\n      tag_111\n      jumpi\n      0x0100\n      dup1\n      dup4\n      sload\n      div\n      mul\n      dup4\n      mstore\n      swap2\n      0x20\n      add\n      swap2\n      jump(tag_110)\n    tag_111:\n      dup3\n      add\n      swap2\n      swap1\n      0x00\n      mstore\n      keccak256(0x00, 0x20)\n      swap1\n    tag_112:\n      dup2\n      sload\n      dup2\n      mstore\n      swap1\n      0x01\n      add\n      swap1\n      0x20\n      add\n      dup1\n      dup4\n      gt\n      tag_112\n      jumpi\n      dup3\n      swap1\n      sub\n      0x1f\n      and\n      dup3\n      add\n      swap2\n    tag_110:\n      pop\n      pop\n      pop\n      pop\n      pop\n      swap2\n      pop\n      swap4\n      pop\n      swap4\n      pop\n      swap4\n      pop\n      pop\n      jump(tag_80)\n        /* \"contracts/Test.sol\":2354:2538  if(compareStrings(countries[i].name, countryName)){\r... */\n    tag_93:\n        /* \"contracts/Test.sol\":2336:2339  i++ */\n      dup1\n      dup1\n      tag_113\n      swap1\n      tag_79\n      jump\t// in\n    tag_113:\n      swap2\n      pop\n      pop\n        /* \"contracts/Test.sol\":2299:2548  for(uint256 i =0; i< totalCountries; i++){\r... */\n      jump(tag_81)\n    tag_82:\n      pop\n        /* \"contracts/Test.sol\":2557:2584  revert('country not found') */\n      mload(0x40)\n      0x08c379a000000000000000000000000000000000000000000000000000000000\n      dup2\n      mstore\n      0x04\n      add\n      tag_114\n      swap1\n      tag_115\n      jump\t// in\n    tag_114:\n      mload(0x40)\n      dup1\n      swap2\n      sub\n      swap1\n      revert\n        /* \"contracts/Test.sol\":2158:2591  function getCountry(string memory countryName) public view returns(string memory name , string memory leader , uint256 population){\r... */\n    tag_80:\n      swap2\n      swap4\n      swap1\n      swap3\n      pop\n      jump\t// out\n        /* \"contracts/Test.sol\":2796:2900  function getTotalCountries() public view returns (uint256 length){\r... */\n    tag_33:\n        /* \"contracts/Test.sol\":2846:2860  uint256 length */\n      0x00\n        /* \"contracts/Test.sol\":2877:2886  countries */\n      dup1\n        /* \"contracts/Test.sol\":2877:2893  countries.length */\n      dup1\n      sload\n      swap1\n      pop\n        /* \"contracts/Test.sol\":2870:2893  return countries.length */\n      swap1\n      pop\n        /* \"contracts/Test.sol\":2796:2900  function getTotalCountries() public view returns (uint256 length){\r... */\n      swap1\n      jump\t// out\n        /* \"contracts/Test.sol\":561:958  function insert( string memory countryName , string memory leader , uint256 population) public returns (uint256 _totalCountries){\r... */\n    tag_38:\n        /* \"contracts/Test.sol\":665:688  uint256 _totalCountries */\n      0x00\n        /* \"contracts/Test.sol\":700:725  country memory newCountry */\n      dup1\n        /* \"contracts/Test.sol\":728:769  country(countryName , leader, population) */\n      mload(0x40)\n      dup1\n      0x60\n      add\n      0x40\n      mstore\n      dup1\n        /* \"contracts/Test.sol\":736:747  countryName */\n      dup7\n        /* \"contracts/Test.sol\":728:769  country(countryName , leader, population) */\n      dup2\n      mstore\n      0x20\n      add\n        /* \"contracts/Test.sol\":750:756  leader */\n      dup6\n        /* \"contracts/Test.sol\":728:769  country(countryName , leader, population) */\n      dup2\n      mstore\n      0x20\n      add\n        /* \"contracts/Test.sol\":758:768  population */\n      dup5\n        /* \"contracts/Test.sol\":728:769  country(countryName , leader, population) */\n      dup2\n      mstore\n      pop\n        /* \"contracts/Test.sol\":700:769  country memory newCountry = country(countryName , leader, population) */\n      swap1\n      pop\n        /* \"contracts/Test.sol\":780:789  countries */\n      0x00\n        /* \"contracts/Test.sol\":795:805  newCountry */\n      dup2\n        /* \"contracts/Test.sol\":780:806  countries.push(newCountry) */\n      swap1\n      dup1\n      0x01\n      dup2\n      sload\n      add\n      dup1\n      dup3\n      sstore\n      dup1\n      swap2\n      pop\n      pop\n      0x01\n      swap1\n      sub\n      swap1\n      0x00\n      mstore\n      keccak256(0x00, 0x20)\n      swap1\n      0x03\n      mul\n      add\n      0x00\n      swap1\n      swap2\n      swap1\n      swap2\n      swap1\n      swap2\n      pop\n      0x00\n      dup3\n      add\n      mload\n      dup2\n      0x00\n      add\n      swap1\n      dup1\n      mload\n      swap1\n      0x20\n      add\n      swap1\n      tag_119\n      swap3\n      swap2\n      swap1\n      tag_77\n      jump\t// in\n    tag_119:\n      pop\n      0x20\n      dup3\n      add\n      mload\n      dup2\n      0x01\n      add\n      swap1\n      dup1\n      mload\n      swap1\n      0x20\n      add\n      swap1\n      tag_120\n      swap3\n      swap2\n      swap1\n      tag_77\n      jump\t// in\n    tag_120:\n      pop\n      0x40\n      dup3\n      add\n      mload\n      dup2\n      0x02\n      add\n      sstore\n      pop\n      pop\n        /* \"contracts/Test.sol\":817:831  totalCountries */\n      0x01\n      0x00\n        /* \"contracts/Test.sol\":817:833  totalCountries++ */\n      dup2\n      sload\n      dup1\n      swap3\n      swap2\n      swap1\n      tag_121\n      swap1\n      tag_79\n      jump\t// in\n    tag_121:\n      swap2\n      swap1\n      pop\n      sstore\n      pop\n        /* \"contracts/Test.sol\":937:951  totalCountries */\n      sload(0x01)\n        /* \"contracts/Test.sol\":930:951  return totalCountries */\n      swap2\n      pop\n      pop\n        /* \"contracts/Test.sol\":561:958  function insert( string memory countryName , string memory leader , uint256 population) public returns (uint256 _totalCountries){\r... */\n      swap4\n      swap3\n      pop\n      pop\n      pop\n      jump\t// out\n        /* \"contracts/Test.sol\":1428:2141  function deleteCountry(string memory countryName) public returns(bool success){\r... */\n    tag_42:\n        /* \"contracts/Test.sol\":1493:1505  bool success */\n      0x00\n        /* \"contracts/Test.sol\":1542:1543  0 */\n      dup1\n        /* \"contracts/Test.sol\":1525:1539  totalCountries */\n      sload(0x01)\n        /* \"contracts/Test.sol\":1525:1543  totalCountries > 0 */\n      gt\n        /* \"contracts/Test.sol\":1517:1544  require(totalCountries > 0) */\n      tag_123\n      jumpi\n      0x00\n      dup1\n      revert\n    tag_123:\n        /* \"contracts/Test.sol\":1559:1568  uint256 i */\n      0x00\n        /* \"contracts/Test.sol\":1555:2113  for(uint256 i =0; i< totalCountries; i++){\r... */\n    tag_124:\n        /* \"contracts/Test.sol\":1576:1590  totalCountries */\n      sload(0x01)\n        /* \"contracts/Test.sol\":1573:1574  i */\n      dup2\n        /* \"contracts/Test.sol\":1573:1590  i< totalCountries */\n      lt\n        /* \"contracts/Test.sol\":1555:2113  for(uint256 i =0; i< totalCountries; i++){\r... */\n      iszero\n      tag_125\n      jumpi\n        /* \"contracts/Test.sol\":1613:1660  compareStrings(countries[i].name , countryName) */\n      tag_127\n        /* \"contracts/Test.sol\":1628:1637  countries */\n      0x00\n        /* \"contracts/Test.sol\":1638:1639  i */\n      dup3\n        /* \"contracts/Test.sol\":1628:1640  countries[i] */\n      dup2\n      sload\n      dup2\n      lt\n      tag_128\n      jumpi\n      tag_129\n      tag_64\n      jump\t// in\n    tag_129:\n    tag_128:\n      swap1\n      0x00\n      mstore\n      keccak256(0x00, 0x20)\n      swap1\n      0x03\n      mul\n      add\n        /* \"contracts/Test.sol\":1628:1645  countries[i].name */\n      0x00\n      add\n        /* \"contracts/Test.sol\":1613:1660  compareStrings(countries[i].name , countryName) */\n      dup1\n      sload\n      tag_131\n      swap1\n      tag_47\n      jump\t// in\n    tag_131:\n      dup1\n      0x1f\n      add\n      0x20\n      dup1\n      swap2\n      div\n      mul\n      0x20\n      add\n      mload(0x40)\n      swap1\n      dup2\n      add\n      0x40\n      mstore\n      dup1\n      swap3\n      swap2\n      swap1\n      dup2\n      dup2\n      mstore\n      0x20\n      add\n      dup3\n      dup1\n      sload\n      tag_132\n      swap1\n      tag_47\n      jump\t// in\n    tag_132:\n      dup1\n      iszero\n      tag_133\n      jumpi\n      dup1\n      0x1f\n      lt\n      tag_134\n      jumpi\n      0x0100\n      dup1\n      dup4\n      sload\n      div\n      mul\n      dup4\n      mstore\n      swap2\n      0x20\n      add\n      swap2\n      jump(tag_133)\n    tag_134:\n      dup3\n      add\n      swap2\n      swap1\n      0x00\n      mstore\n      keccak256(0x00, 0x20)\n      swap1\n    tag_135:\n      dup2\n      sload\n      dup2\n      mstore\n      swap1\n      0x01\n      add\n      swap1\n      0x20\n      add\n      dup1\n      dup4\n      gt\n      tag_135\n      jumpi\n      dup3\n      swap1\n      sub\n      0x1f\n      and\n      dup3\n      add\n      swap2\n    tag_133:\n      pop\n      pop\n      pop\n      pop\n      pop\n        /* \"contracts/Test.sol\":1648:1659  countryName */\n      dup5\n        /* \"contracts/Test.sol\":1613:1627  compareStrings */\n      tag_71\n        /* \"contracts/Test.sol\":1613:1660  compareStrings(countries[i].name , countryName) */\n      jump\t// in\n    tag_127:\n        /* \"contracts/Test.sol\":1610:2103  if(compareStrings(countries[i].name , countryName)){\r... */\n      iszero\n      tag_136\n      jumpi\n        /* \"contracts/Test.sol\":1693:1702  countries */\n      0x00\n        /* \"contracts/Test.sol\":1718:1719  1 */\n      0x01\n        /* \"contracts/Test.sol\":1703:1717  totalCountries */\n      dup1\n      sload\n        /* \"contracts/Test.sol\":1703:1719  totalCountries-1 */\n      tag_137\n      swap2\n      swap1\n      tag_138\n      jump\t// in\n    tag_137:\n        /* \"contracts/Test.sol\":1693:1720  countries[totalCountries-1] */\n      dup2\n      sload\n      dup2\n      lt\n      tag_139\n      jumpi\n      tag_140\n      tag_64\n      jump\t// in\n    tag_140:\n    tag_139:\n      swap1\n      0x00\n      mstore\n      keccak256(0x00, 0x20)\n      swap1\n      0x03\n      mul\n      add\n        /* \"contracts/Test.sol\":1678:1687  countries */\n      0x00\n        /* \"contracts/Test.sol\":1688:1689  i */\n      dup3\n        /* \"contracts/Test.sol\":1678:1690  countries[i] */\n      dup2\n      sload\n      dup2\n      lt\n      tag_142\n      jumpi\n      tag_143\n      tag_64\n      jump\t// in\n    tag_143:\n    tag_142:\n      swap1\n      0x00\n      mstore\n      keccak256(0x00, 0x20)\n      swap1\n      0x03\n      mul\n      add\n        /* \"contracts/Test.sol\":1678:1720  countries[i] = countries[totalCountries-1] */\n      0x00\n      dup3\n      add\n      dup2\n      0x00\n      add\n      swap1\n      dup1\n      sload\n      tag_145\n      swap1\n      tag_47\n      jump\t// in\n    tag_145:\n      tag_146\n      swap3\n      swap2\n      swap1\n      tag_147\n      jump\t// in\n    tag_146:\n      pop\n      0x01\n      dup3\n      add\n      dup2\n      0x01\n      add\n      swap1\n      dup1\n      sload\n      tag_148\n      swap1\n      tag_47\n      jump\t// in\n    tag_148:\n      tag_149\n      swap3\n      swap2\n      swap1\n      tag_147\n      jump\t// in\n    tag_149:\n      pop\n      0x02\n      dup3\n      add\n      sload\n      dup2\n      0x02\n      add\n      sstore\n      swap1\n      pop\n      pop\n        /* \"contracts/Test.sol\":1808:1817  countries */\n      0x00\n        /* \"contracts/Test.sol\":1833:1834  1 */\n      0x01\n        /* \"contracts/Test.sol\":1818:1832  totalCountries */\n      dup1\n      sload\n        /* \"contracts/Test.sol\":1818:1834  totalCountries-1 */\n      tag_150\n      swap2\n      swap1\n      tag_138\n      jump\t// in\n    tag_150:\n        /* \"contracts/Test.sol\":1808:1835  countries[totalCountries-1] */\n      dup2\n      sload\n      dup2\n      lt\n      tag_151\n      jumpi\n      tag_152\n      tag_64\n      jump\t// in\n    tag_152:\n    tag_151:\n      swap1\n      0x00\n      mstore\n      keccak256(0x00, 0x20)\n      swap1\n      0x03\n      mul\n      add\n      0x00\n        /* \"contracts/Test.sol\":1801:1835  delete countries[totalCountries-1] */\n      dup1\n      dup3\n      add\n      0x00\n      tag_154\n      swap2\n      swap1\n      tag_155\n      jump\t// in\n    tag_154:\n      0x01\n      dup3\n      add\n      0x00\n      tag_156\n      swap2\n      swap1\n      tag_155\n      jump\t// in\n    tag_156:\n      0x02\n      dup3\n      add\n      0x00\n      swap1\n      sstore\n      pop\n      pop\n        /* \"contracts/Test.sol\":1880:1894  totalCountries */\n      0x01\n      0x00\n        /* \"contracts/Test.sol\":1880:1896  totalCountries-- */\n      dup2\n      sload\n      dup1\n      swap3\n      swap2\n      swap1\n      tag_157\n      swap1\n      tag_158\n      jump\t// in\n    tag_157:\n      swap2\n      swap1\n      pop\n      sstore\n      pop\n        /* \"contracts/Test.sol\":2084:2088  true */\n      0x01\n        /* \"contracts/Test.sol\":2077:2088  return true */\n      swap2\n      pop\n      pop\n      jump(tag_122)\n        /* \"contracts/Test.sol\":1610:2103  if(compareStrings(countries[i].name , countryName)){\r... */\n    tag_136:\n        /* \"contracts/Test.sol\":1592:1595  i++ */\n      dup1\n      dup1\n      tag_159\n      swap1\n      tag_79\n      jump\t// in\n    tag_159:\n      swap2\n      pop\n      pop\n        /* \"contracts/Test.sol\":1555:2113  for(uint256 i =0; i< totalCountries; i++){\r... */\n      jump(tag_124)\n    tag_125:\n      pop\n        /* \"contracts/Test.sol\":2129:2134  false */\n      0x00\n        /* \"contracts/Test.sol\":2122:2134  return false */\n      swap1\n      pop\n        /* \"contracts/Test.sol\":1428:2141  function deleteCountry(string memory countryName) public returns(bool success){\r... */\n    tag_122:\n      swap2\n      swap1\n      pop\n      jump\t// out\n        /* \"contracts/Test.sol\":2605:2781  function compareStrings (string memory a, string memory b)  internal pure returns (bool){\r... */\n    tag_71:\n        /* \"contracts/Test.sol\":2688:2692  bool */\n      0x00\n        /* \"contracts/Test.sol\":2771:2772  b */\n      dup2\n        /* \"contracts/Test.sol\":2754:2773  abi.encodePacked(b) */\n      add(0x20, mload(0x40))\n      tag_161\n      swap2\n      swap1\n      tag_162\n      jump\t// in\n    tag_161:\n      mload(0x40)\n      0x20\n      dup2\n      dup4\n      sub\n      sub\n      dup2\n      mstore\n      swap1\n      0x40\n      mstore\n        /* \"contracts/Test.sol\":2744:2774  keccak256(abi.encodePacked(b)) */\n      dup1\n      mload\n      swap1\n      0x20\n      add\n      keccak256\n        /* \"contracts/Test.sol\":2737:2738  a */\n      dup4\n        /* \"contracts/Test.sol\":2720:2739  abi.encodePacked(a) */\n      add(0x20, mload(0x40))\n      tag_163\n      swap2\n      swap1\n      tag_162\n      jump\t// in\n    tag_163:\n      mload(0x40)\n      0x20\n      dup2\n      dup4\n      sub\n      sub\n      dup2\n      mstore\n      swap1\n      0x40\n      mstore\n        /* \"contracts/Test.sol\":2710:2740  keccak256(abi.encodePacked(a)) */\n      dup1\n      mload\n      swap1\n      0x20\n      add\n      keccak256\n        /* \"contracts/Test.sol\":2710:2774  keccak256(abi.encodePacked(a)) == keccak256(abi.encodePacked(b)) */\n      eq\n        /* \"contracts/Test.sol\":2703:2774  return keccak256(abi.encodePacked(a)) == keccak256(abi.encodePacked(b)) */\n      swap1\n      pop\n        /* \"contracts/Test.sol\":2605:2781  function compareStrings (string memory a, string memory b)  internal pure returns (bool){\r... */\n      swap3\n      swap2\n      pop\n      pop\n      jump\t// out\n    tag_77:\n      dup3\n      dup1\n      sload\n      tag_164\n      swap1\n      tag_47\n      jump\t// in\n    tag_164:\n      swap1\n      0x00\n      mstore\n      keccak256(0x00, 0x20)\n      swap1\n      0x1f\n      add\n      0x20\n      swap1\n      div\n      dup2\n      add\n      swap3\n      dup3\n      tag_166\n      jumpi\n      0x00\n      dup6\n      sstore\n      jump(tag_165)\n    tag_166:\n      dup3\n      0x1f\n      lt\n      tag_167\n      jumpi\n      dup1\n      mload\n      not(0xff)\n      and\n      dup4\n      dup1\n      add\n      or\n      dup6\n      sstore\n      jump(tag_165)\n    tag_167:\n      dup3\n      dup1\n      add\n      0x01\n      add\n      dup6\n      sstore\n      dup3\n      iszero\n      tag_165\n      jumpi\n      swap2\n      dup3\n      add\n    tag_168:\n      dup3\n      dup2\n      gt\n      iszero\n      tag_169\n      jumpi\n      dup3\n      mload\n      dup3\n      sstore\n      swap2\n      0x20\n      add\n      swap2\n      swap1\n      0x01\n      add\n      swap1\n      jump(tag_168)\n    tag_169:\n    tag_165:\n      pop\n      swap1\n      pop\n      tag_170\n      swap2\n      swap1\n      tag_171\n      jump\t// in\n    tag_170:\n      pop\n      swap1\n      jump\t// out\n    tag_147:\n      dup3\n      dup1\n      sload\n      tag_172\n      swap1\n      tag_47\n      jump\t// in\n    tag_172:\n      swap1\n      0x00\n      mstore\n      keccak256(0x00, 0x20)\n      swap1\n      0x1f\n      add\n      0x20\n      swap1\n      div\n      dup2\n      add\n      swap3\n      dup3\n      tag_174\n      jumpi\n      0x00\n      dup6\n      sstore\n      jump(tag_173)\n    tag_174:\n      dup3\n      0x1f\n      lt\n      tag_175\n      jumpi\n      dup1\n      sload\n      dup6\n      sstore\n      jump(tag_173)\n    tag_175:\n      dup3\n      dup1\n      add\n      0x01\n      add\n      dup6\n      sstore\n      dup3\n      iszero\n      tag_173\n      jumpi\n      0x00\n      mstore\n      keccak256(0x00, 0x20)\n      swap2\n      0x1f\n      add\n      0x20\n      swap1\n      div\n      dup3\n      add\n    tag_176:\n      dup3\n      dup2\n      gt\n      iszero\n      tag_177\n      jumpi\n      dup3\n      sload\n      dup3\n      sstore\n      swap2\n      0x01\n      add\n      swap2\n      swap1\n      0x01\n      add\n      swap1\n      jump(tag_176)\n    tag_177:\n    tag_173:\n      pop\n      swap1\n      pop\n      tag_178\n      swap2\n      swap1\n      tag_171\n      jump\t// in\n    tag_178:\n      pop\n      swap1\n      jump\t// out\n    tag_155:\n      pop\n      dup1\n      sload\n      tag_179\n      swap1\n      tag_47\n      jump\t// in\n    tag_179:\n      0x00\n      dup3\n      sstore\n      dup1\n      0x1f\n      lt\n      tag_181\n      jumpi\n      pop\n      jump(tag_180)\n    tag_181:\n      0x1f\n      add\n      0x20\n      swap1\n      div\n      swap1\n      0x00\n      mstore\n      keccak256(0x00, 0x20)\n      swap1\n      dup2\n      add\n      swap1\n      tag_182\n      swap2\n      swap1\n      tag_171\n      jump\t// in\n    tag_182:\n    tag_180:\n      pop\n      jump\t// out\n    tag_171:\n    tag_183:\n      dup1\n      dup3\n      gt\n      iszero\n      tag_184\n      jumpi\n      0x00\n      dup2\n      0x00\n      swap1\n      sstore\n      pop\n      0x01\n      add\n      jump(tag_183)\n    tag_184:\n      pop\n      swap1\n      jump\t// out\n        /* \"#utility.yul\":7:419   */\n    tag_186:\n        /* \"#utility.yul\":85:90   */\n      0x00\n        /* \"#utility.yul\":110:176   */\n      tag_188\n        /* \"#utility.yul\":126:175   */\n      tag_189\n        /* \"#utility.yul\":168:174   */\n      dup5\n        /* \"#utility.yul\":126:175   */\n      tag_190\n      jump\t// in\n    tag_189:\n        /* \"#utility.yul\":110:176   */\n      tag_191\n      jump\t// in\n    tag_188:\n        /* \"#utility.yul\":101:176   */\n      swap1\n      pop\n        /* \"#utility.yul\":199:205   */\n      dup3\n        /* \"#utility.yul\":192:197   */\n      dup2\n        /* \"#utility.yul\":185:206   */\n      mstore\n        /* \"#utility.yul\":237:241   */\n      0x20\n        /* \"#utility.yul\":230:235   */\n      dup2\n        /* \"#utility.yul\":226:242   */\n      add\n        /* \"#utility.yul\":275:278   */\n      dup5\n        /* \"#utility.yul\":266:272   */\n      dup5\n        /* \"#utility.yul\":261:264   */\n      dup5\n        /* \"#utility.yul\":257:273   */\n      add\n        /* \"#utility.yul\":254:279   */\n      gt\n        /* \"#utility.yul\":251:363   */\n      iszero\n      tag_192\n      jumpi\n        /* \"#utility.yul\":282:361   */\n      tag_193\n      tag_194\n      jump\t// in\n    tag_193:\n        /* \"#utility.yul\":251:363   */\n    tag_192:\n        /* \"#utility.yul\":372:413   */\n      tag_195\n        /* \"#utility.yul\":406:412   */\n      dup5\n        /* \"#utility.yul\":401:404   */\n      dup3\n        /* \"#utility.yul\":396:399   */\n      dup6\n        /* \"#utility.yul\":372:413   */\n      tag_196\n      jump\t// in\n    tag_195:\n        /* \"#utility.yul\":91:419   */\n      pop\n        /* \"#utility.yul\":7:419   */\n      swap4\n      swap3\n      pop\n      pop\n      pop\n      jump\t// out\n        /* \"#utility.yul\":439:779   */\n    tag_197:\n        /* \"#utility.yul\":495:500   */\n      0x00\n        /* \"#utility.yul\":544:547   */\n      dup3\n        /* \"#utility.yul\":537:541   */\n      0x1f\n        /* \"#utility.yul\":529:535   */\n      dup4\n        /* \"#utility.yul\":525:542   */\n      add\n        /* \"#utility.yul\":521:548   */\n      slt\n        /* \"#utility.yul\":511:633   */\n      tag_199\n      jumpi\n        /* \"#utility.yul\":552:631   */\n      tag_200\n      tag_201\n      jump\t// in\n    tag_200:\n        /* \"#utility.yul\":511:633   */\n    tag_199:\n        /* \"#utility.yul\":669:675   */\n      dup2\n        /* \"#utility.yul\":656:676   */\n      calldataload\n        /* \"#utility.yul\":694:773   */\n      tag_202\n        /* \"#utility.yul\":769:772   */\n      dup5\n        /* \"#utility.yul\":761:767   */\n      dup3\n        /* \"#utility.yul\":754:758   */\n      0x20\n        /* \"#utility.yul\":746:752   */\n      dup7\n        /* \"#utility.yul\":742:759   */\n      add\n        /* \"#utility.yul\":694:773   */\n      tag_186\n      jump\t// in\n    tag_202:\n        /* \"#utility.yul\":685:773   */\n      swap2\n      pop\n        /* \"#utility.yul\":501:779   */\n      pop\n        /* \"#utility.yul\":439:779   */\n      swap3\n      swap2\n      pop\n      pop\n      jump\t// out\n        /* \"#utility.yul\":785:924   */\n    tag_203:\n        /* \"#utility.yul\":831:836   */\n      0x00\n        /* \"#utility.yul\":869:875   */\n      dup2\n        /* \"#utility.yul\":856:876   */\n      calldataload\n        /* \"#utility.yul\":847:876   */\n      swap1\n      pop\n        /* \"#utility.yul\":885:918   */\n      tag_205\n        /* \"#utility.yul\":912:917   */\n      dup2\n        /* \"#utility.yul\":885:918   */\n      tag_206\n      jump\t// in\n    tag_205:\n        /* \"#utility.yul\":785:924   */\n      swap3\n      swap2\n      pop\n      pop\n      jump\t// out\n        /* \"#utility.yul\":930:1439   */\n    tag_29:\n        /* \"#utility.yul\":999:1005   */\n      0x00\n        /* \"#utility.yul\":1048:1050   */\n      0x20\n        /* \"#utility.yul\":1036:1045   */\n      dup3\n        /* \"#utility.yul\":1027:1034   */\n      dup5\n        /* \"#utility.yul\":1023:1046   */\n      sub\n        /* \"#utility.yul\":1019:1051   */\n      slt\n        /* \"#utility.yul\":1016:1135   */\n      iszero\n      tag_208\n      jumpi\n        /* \"#utility.yul\":1054:1133   */\n      tag_209\n      tag_210\n      jump\t// in\n    tag_209:\n        /* \"#utility.yul\":1016:1135   */\n    tag_208:\n        /* \"#utility.yul\":1202:1203   */\n      0x00\n        /* \"#utility.yul\":1191:1200   */\n      dup3\n        /* \"#utility.yul\":1187:1204   */\n      add\n        /* \"#utility.yul\":1174:1205   */\n      calldataload\n        /* \"#utility.yul\":1232:1250   */\n      0xffffffffffffffff\n        /* \"#utility.yul\":1224:1230   */\n      dup2\n        /* \"#utility.yul\":1221:1251   */\n      gt\n        /* \"#utility.yul\":1218:1335   */\n      iszero\n      tag_211\n      jumpi\n        /* \"#utility.yul\":1254:1333   */\n      tag_212\n      tag_213\n      jump\t// in\n    tag_212:\n        /* \"#utility.yul\":1218:1335   */\n    tag_211:\n        /* \"#utility.yul\":1359:1422   */\n      tag_214\n        /* \"#utility.yul\":1414:1421   */\n      dup5\n        /* \"#utility.yul\":1405:1411   */\n      dup3\n        /* \"#utility.yul\":1394:1403   */\n      dup6\n        /* \"#utility.yul\":1390:1412   */\n      add\n        /* \"#utility.yul\":1359:1422   */\n      tag_197\n      jump\t// in\n    tag_214:\n        /* \"#utility.yul\":1349:1422   */\n      swap2\n      pop\n        /* \"#utility.yul\":1145:1432   */\n      pop\n        /* \"#utility.yul\":930:1439   */\n      swap3\n      swap2\n      pop\n      pop\n      jump\t// out\n        /* \"#utility.yul\":1445:2279   */\n    tag_23:\n        /* \"#utility.yul\":1533:1539   */\n      0x00\n        /* \"#utility.yul\":1541:1547   */\n      dup1\n        /* \"#utility.yul\":1590:1592   */\n      0x40\n        /* \"#utility.yul\":1578:1587   */\n      dup4\n        /* \"#utility.yul\":1569:1576   */\n      dup6\n        /* \"#utility.yul\":1565:1588   */\n      sub\n        /* \"#utility.yul\":1561:1593   */\n      slt\n        /* \"#utility.yul\":1558:1677   */\n      iszero\n      tag_216\n      jumpi\n        /* \"#utility.yul\":1596:1675   */\n      tag_217\n      tag_210\n      jump\t// in\n    tag_217:\n        /* \"#utility.yul\":1558:1677   */\n    tag_216:\n        /* \"#utility.yul\":1744:1745   */\n      0x00\n        /* \"#utility.yul\":1733:1742   */\n      dup4\n        /* \"#utility.yul\":1729:1746   */\n      add\n        /* \"#utility.yul\":1716:1747   */\n      calldataload\n        /* \"#utility.yul\":1774:1792   */\n      0xffffffffffffffff\n        /* \"#utility.yul\":1766:1772   */\n      dup2\n        /* \"#utility.yul\":1763:1793   */\n      gt\n        /* \"#utility.yul\":1760:1877   */\n      iszero\n      tag_218\n      jumpi\n        /* \"#utility.yul\":1796:1875   */\n      tag_219\n      tag_213\n      jump\t// in\n    tag_219:\n        /* \"#utility.yul\":1760:1877   */\n    tag_218:\n        /* \"#utility.yul\":1901:1964   */\n      tag_220\n        /* \"#utility.yul\":1956:1963   */\n      dup6\n        /* \"#utility.yul\":1947:1953   */\n      dup3\n        /* \"#utility.yul\":1936:1945   */\n      dup7\n        /* \"#utility.yul\":1932:1954   */\n      add\n        /* \"#utility.yul\":1901:1964   */\n      tag_197\n      jump\t// in\n    tag_220:\n        /* \"#utility.yul\":1891:1964   */\n      swap3\n      pop\n        /* \"#utility.yul\":1687:1974   */\n      pop\n        /* \"#utility.yul\":2041:2043   */\n      0x20\n        /* \"#utility.yul\":2030:2039   */\n      dup4\n        /* \"#utility.yul\":2026:2044   */\n      add\n        /* \"#utility.yul\":2013:2045   */\n      calldataload\n        /* \"#utility.yul\":2072:2090   */\n      0xffffffffffffffff\n        /* \"#utility.yul\":2064:2070   */\n      dup2\n        /* \"#utility.yul\":2061:2091   */\n      gt\n        /* \"#utility.yul\":2058:2175   */\n      iszero\n      tag_221\n      jumpi\n        /* \"#utility.yul\":2094:2173   */\n      tag_222\n      tag_213\n      jump\t// in\n    tag_222:\n        /* \"#utility.yul\":2058:2175   */\n    tag_221:\n        /* \"#utility.yul\":2199:2262   */\n      tag_223\n        /* \"#utility.yul\":2254:2261   */\n      dup6\n        /* \"#utility.yul\":2245:2251   */\n      dup3\n        /* \"#utility.yul\":2234:2243   */\n      dup7\n        /* \"#utility.yul\":2230:2252   */\n      add\n        /* \"#utility.yul\":2199:2262   */\n      tag_197\n      jump\t// in\n    tag_223:\n        /* \"#utility.yul\":2189:2262   */\n      swap2\n      pop\n        /* \"#utility.yul\":1984:2272   */\n      pop\n        /* \"#utility.yul\":1445:2279   */\n      swap3\n      pop\n      swap3\n      swap1\n      pop\n      jump\t// out\n        /* \"#utility.yul\":2285:3264   */\n    tag_37:\n        /* \"#utility.yul\":2382:2388   */\n      0x00\n        /* \"#utility.yul\":2390:2396   */\n      dup1\n        /* \"#utility.yul\":2398:2404   */\n      0x00\n        /* \"#utility.yul\":2447:2449   */\n      0x60\n        /* \"#utility.yul\":2435:2444   */\n      dup5\n        /* \"#utility.yul\":2426:2433   */\n      dup7\n        /* \"#utility.yul\":2422:2445   */\n      sub\n        /* \"#utility.yul\":2418:2450   */\n      slt\n        /* \"#utility.yul\":2415:2534   */\n      iszero\n      tag_225\n      jumpi\n        /* \"#utility.yul\":2453:2532   */\n      tag_226\n      tag_210\n      jump\t// in\n    tag_226:\n        /* \"#utility.yul\":2415:2534   */\n    tag_225:\n        /* \"#utility.yul\":2601:2602   */\n      0x00\n        /* \"#utility.yul\":2590:2599   */\n      dup5\n        /* \"#utility.yul\":2586:2603   */\n      add\n        /* \"#utility.yul\":2573:2604   */\n      calldataload\n        /* \"#utility.yul\":2631:2649   */\n      0xffffffffffffffff\n        /* \"#utility.yul\":2623:2629   */\n      dup2\n        /* \"#utility.yul\":2620:2650   */\n      gt\n        /* \"#utility.yul\":2617:2734   */\n      iszero\n      tag_227\n      jumpi\n        /* \"#utility.yul\":2653:2732   */\n      tag_228\n      tag_213\n      jump\t// in\n    tag_228:\n        /* \"#utility.yul\":2617:2734   */\n    tag_227:\n        /* \"#utility.yul\":2758:2821   */\n      tag_229\n        /* \"#utility.yul\":2813:2820   */\n      dup7\n        /* \"#utility.yul\":2804:2810   */\n      dup3\n        /* \"#utility.yul\":2793:2802   */\n      dup8\n        /* \"#utility.yul\":2789:2811   */\n      add\n        /* \"#utility.yul\":2758:2821   */\n      tag_197\n      jump\t// in\n    tag_229:\n        /* \"#utility.yul\":2748:2821   */\n      swap4\n      pop\n        /* \"#utility.yul\":2544:2831   */\n      pop\n        /* \"#utility.yul\":2898:2900   */\n      0x20\n        /* \"#utility.yul\":2887:2896   */\n      dup5\n        /* \"#utility.yul\":2883:2901   */\n      add\n        /* \"#utility.yul\":2870:2902   */\n      calldataload\n        /* \"#utility.yul\":2929:2947   */\n      0xffffffffffffffff\n        /* \"#utility.yul\":2921:2927   */\n      dup2\n        /* \"#utility.yul\":2918:2948   */\n      gt\n        /* \"#utility.yul\":2915:3032   */\n      iszero\n      tag_230\n      jumpi\n        /* \"#utility.yul\":2951:3030   */\n      tag_231\n      tag_213\n      jump\t// in\n    tag_231:\n        /* \"#utility.yul\":2915:3032   */\n    tag_230:\n        /* \"#utility.yul\":3056:3119   */\n      tag_232\n        /* \"#utility.yul\":3111:3118   */\n      dup7\n        /* \"#utility.yul\":3102:3108   */\n      dup3\n        /* \"#utility.yul\":3091:3100   */\n      dup8\n        /* \"#utility.yul\":3087:3109   */\n      add\n        /* \"#utility.yul\":3056:3119   */\n      tag_197\n      jump\t// in\n    tag_232:\n        /* \"#utility.yul\":3046:3119   */\n      swap3\n      pop\n        /* \"#utility.yul\":2841:3129   */\n      pop\n        /* \"#utility.yul\":3168:3170   */\n      0x40\n        /* \"#utility.yul\":3194:3247   */\n      tag_233\n        /* \"#utility.yul\":3239:3246   */\n      dup7\n        /* \"#utility.yul\":3230:3236   */\n      dup3\n        /* \"#utility.yul\":3219:3228   */\n      dup8\n        /* \"#utility.yul\":3215:3237   */\n      add\n        /* \"#utility.yul\":3194:3247   */\n      tag_203\n      jump\t// in\n    tag_233:\n        /* \"#utility.yul\":3184:3247   */\n      swap2\n      pop\n        /* \"#utility.yul\":3139:3257   */\n      pop\n        /* \"#utility.yul\":2285:3264   */\n      swap3\n      pop\n      swap3\n      pop\n      swap3\n      jump\t// out\n        /* \"#utility.yul\":3270:3599   */\n    tag_13:\n        /* \"#utility.yul\":3329:3335   */\n      0x00\n        /* \"#utility.yul\":3378:3380   */\n      0x20\n        /* \"#utility.yul\":3366:3375   */\n      dup3\n        /* \"#utility.yul\":3357:3364   */\n      dup5\n        /* \"#utility.yul\":3353:3376   */\n      sub\n        /* \"#utility.yul\":3349:3381   */\n      slt\n        /* \"#utility.yul\":3346:3465   */\n      iszero\n      tag_235\n      jumpi\n        /* \"#utility.yul\":3384:3463   */\n      tag_236\n      tag_210\n      jump\t// in\n    tag_236:\n        /* \"#utility.yul\":3346:3465   */\n    tag_235:\n        /* \"#utility.yul\":3504:3505   */\n      0x00\n        /* \"#utility.yul\":3529:3582   */\n      tag_237\n        /* \"#utility.yul\":3574:3581   */\n      dup5\n        /* \"#utility.yul\":3565:3571   */\n      dup3\n        /* \"#utility.yul\":3554:3563   */\n      dup6\n        /* \"#utility.yul\":3550:3572   */\n      add\n        /* \"#utility.yul\":3529:3582   */\n      tag_203\n      jump\t// in\n    tag_237:\n        /* \"#utility.yul\":3519:3582   */\n      swap2\n      pop\n        /* \"#utility.yul\":3475:3592   */\n      pop\n        /* \"#utility.yul\":3270:3599   */\n      swap3\n      swap2\n      pop\n      pop\n      jump\t// out\n        /* \"#utility.yul\":3605:3714   */\n    tag_238:\n        /* \"#utility.yul\":3686:3707   */\n      tag_240\n        /* \"#utility.yul\":3701:3706   */\n      dup2\n        /* \"#utility.yul\":3686:3707   */\n      tag_241\n      jump\t// in\n    tag_240:\n        /* \"#utility.yul\":3681:3684   */\n      dup3\n        /* \"#utility.yul\":3674:3708   */\n      mstore\n        /* \"#utility.yul\":3605:3714   */\n      pop\n      pop\n      jump\t// out\n        /* \"#utility.yul\":3720:4084   */\n    tag_242:\n        /* \"#utility.yul\":3808:3811   */\n      0x00\n        /* \"#utility.yul\":3836:3875   */\n      tag_244\n        /* \"#utility.yul\":3869:3874   */\n      dup3\n        /* \"#utility.yul\":3836:3875   */\n      tag_245\n      jump\t// in\n    tag_244:\n        /* \"#utility.yul\":3891:3962   */\n      tag_246\n        /* \"#utility.yul\":3955:3961   */\n      dup2\n        /* \"#utility.yul\":3950:3953   */\n      dup6\n        /* \"#utility.yul\":3891:3962   */\n      tag_247\n      jump\t// in\n    tag_246:\n        /* \"#utility.yul\":3884:3962   */\n      swap4\n      pop\n        /* \"#utility.yul\":3971:4023   */\n      tag_248\n        /* \"#utility.yul\":4016:4022   */\n      dup2\n        /* \"#utility.yul\":4011:4014   */\n      dup6\n        /* \"#utility.yul\":4004:4008   */\n      0x20\n        /* \"#utility.yul\":3997:4002   */\n      dup7\n        /* \"#utility.yul\":3993:4009   */\n      add\n        /* \"#utility.yul\":3971:4023   */\n      tag_249\n      jump\t// in\n    tag_248:\n        /* \"#utility.yul\":4048:4077   */\n      tag_250\n        /* \"#utility.yul\":4070:4076   */\n      dup2\n        /* \"#utility.yul\":4048:4077   */\n      tag_251\n      jump\t// in\n    tag_250:\n        /* \"#utility.yul\":4043:4046   */\n      dup5\n        /* \"#utility.yul\":4039:4078   */\n      add\n        /* \"#utility.yul\":4032:4078   */\n      swap2\n      pop\n        /* \"#utility.yul\":3812:4084   */\n      pop\n        /* \"#utility.yul\":3720:4084   */\n      swap3\n      swap2\n      pop\n      pop\n      jump\t// out\n        /* \"#utility.yul\":4090:4467   */\n    tag_252:\n        /* \"#utility.yul\":4196:4199   */\n      0x00\n        /* \"#utility.yul\":4224:4263   */\n      tag_254\n        /* \"#utility.yul\":4257:4262   */\n      dup3\n        /* \"#utility.yul\":4224:4263   */\n      tag_245\n      jump\t// in\n    tag_254:\n        /* \"#utility.yul\":4279:4368   */\n      tag_255\n        /* \"#utility.yul\":4361:4367   */\n      dup2\n        /* \"#utility.yul\":4356:4359   */\n      dup6\n        /* \"#utility.yul\":4279:4368   */\n      tag_256\n      jump\t// in\n    tag_255:\n        /* \"#utility.yul\":4272:4368   */\n      swap4\n      pop\n        /* \"#utility.yul\":4377:4429   */\n      tag_257\n        /* \"#utility.yul\":4422:4428   */\n      dup2\n        /* \"#utility.yul\":4417:4420   */\n      dup6\n        /* \"#utility.yul\":4410:4414   */\n      0x20\n        /* \"#utility.yul\":4403:4408   */\n      dup7\n        /* \"#utility.yul\":4399:4415   */\n      add\n        /* \"#utility.yul\":4377:4429   */\n      tag_249\n      jump\t// in\n    tag_257:\n        /* \"#utility.yul\":4454:4460   */\n      dup1\n        /* \"#utility.yul\":4449:4452   */\n      dup5\n        /* \"#utility.yul\":4445:4461   */\n      add\n        /* \"#utility.yul\":4438:4461   */\n      swap2\n      pop\n        /* \"#utility.yul\":4200:4467   */\n      pop\n        /* \"#utility.yul\":4090:4467   */\n      swap3\n      swap2\n      pop\n      pop\n      jump\t// out\n        /* \"#utility.yul\":4473:4839   */\n    tag_258:\n        /* \"#utility.yul\":4615:4618   */\n      0x00\n        /* \"#utility.yul\":4636:4703   */\n      tag_260\n        /* \"#utility.yul\":4700:4702   */\n      0x11\n        /* \"#utility.yul\":4695:4698   */\n      dup4\n        /* \"#utility.yul\":4636:4703   */\n      tag_247\n      jump\t// in\n    tag_260:\n        /* \"#utility.yul\":4629:4703   */\n      swap2\n      pop\n        /* \"#utility.yul\":4712:4805   */\n      tag_261\n        /* \"#utility.yul\":4801:4804   */\n      dup3\n        /* \"#utility.yul\":4712:4805   */\n      tag_262\n      jump\t// in\n    tag_261:\n        /* \"#utility.yul\":4830:4832   */\n      0x20\n        /* \"#utility.yul\":4825:4828   */\n      dup3\n        /* \"#utility.yul\":4821:4833   */\n      add\n        /* \"#utility.yul\":4814:4833   */\n      swap1\n      pop\n        /* \"#utility.yul\":4473:4839   */\n      swap2\n      swap1\n      pop\n      jump\t// out\n        /* \"#utility.yul\":4845:4963   */\n    tag_263:\n        /* \"#utility.yul\":4932:4956   */\n      tag_265\n        /* \"#utility.yul\":4950:4955   */\n      dup2\n        /* \"#utility.yul\":4932:4956   */\n      tag_266\n      jump\t// in\n    tag_265:\n        /* \"#utility.yul\":4927:4930   */\n      dup3\n        /* \"#utility.yul\":4920:4957   */\n      mstore\n        /* \"#utility.yul\":4845:4963   */\n      pop\n      pop\n      jump\t// out\n        /* \"#utility.yul\":4969:5244   */\n    tag_162:\n        /* \"#utility.yul\":5101:5104   */\n      0x00\n        /* \"#utility.yul\":5123:5218   */\n      tag_268\n        /* \"#utility.yul\":5214:5217   */\n      dup3\n        /* \"#utility.yul\":5205:5211   */\n      dup5\n        /* \"#utility.yul\":5123:5218   */\n      tag_252\n      jump\t// in\n    tag_268:\n        /* \"#utility.yul\":5116:5218   */\n      swap2\n      pop\n        /* \"#utility.yul\":5235:5238   */\n      dup2\n        /* \"#utility.yul\":5228:5238   */\n      swap1\n      pop\n        /* \"#utility.yul\":4969:5244   */\n      swap3\n      swap2\n      pop\n      pop\n      jump\t// out\n        /* \"#utility.yul\":5250:5460   */\n    tag_26:\n        /* \"#utility.yul\":5337:5341   */\n      0x00\n        /* \"#utility.yul\":5375:5377   */\n      0x20\n        /* \"#utility.yul\":5364:5373   */\n      dup3\n        /* \"#utility.yul\":5360:5378   */\n      add\n        /* \"#utility.yul\":5352:5378   */\n      swap1\n      pop\n        /* \"#utility.yul\":5388:5453   */\n      tag_270\n        /* \"#utility.yul\":5450:5451   */\n      0x00\n        /* \"#utility.yul\":5439:5448   */\n      dup4\n        /* \"#utility.yul\":5435:5452   */\n      add\n        /* \"#utility.yul\":5426:5432   */\n      dup5\n        /* \"#utility.yul\":5388:5453   */\n      tag_238\n      jump\t// in\n    tag_270:\n        /* \"#utility.yul\":5250:5460   */\n      swap3\n      swap2\n      pop\n      pop\n      jump\t// out\n        /* \"#utility.yul\":5466:6090   */\n    tag_16:\n        /* \"#utility.yul\":5655:5659   */\n      0x00\n        /* \"#utility.yul\":5693:5695   */\n      0x60\n        /* \"#utility.yul\":5682:5691   */\n      dup3\n        /* \"#utility.yul\":5678:5696   */\n      add\n        /* \"#utility.yul\":5670:5696   */\n      swap1\n      pop\n        /* \"#utility.yul\":5742:5751   */\n      dup2\n        /* \"#utility.yul\":5736:5740   */\n      dup2\n        /* \"#utility.yul\":5732:5752   */\n      sub\n        /* \"#utility.yul\":5728:5729   */\n      0x00\n        /* \"#utility.yul\":5717:5726   */\n      dup4\n        /* \"#utility.yul\":5713:5730   */\n      add\n        /* \"#utility.yul\":5706:5753   */\n      mstore\n        /* \"#utility.yul\":5770:5848   */\n      tag_272\n        /* \"#utility.yul\":5843:5847   */\n      dup2\n        /* \"#utility.yul\":5834:5840   */\n      dup7\n        /* \"#utility.yul\":5770:5848   */\n      tag_242\n      jump\t// in\n    tag_272:\n        /* \"#utility.yul\":5762:5848   */\n      swap1\n      pop\n        /* \"#utility.yul\":5895:5904   */\n      dup2\n        /* \"#utility.yul\":5889:5893   */\n      dup2\n        /* \"#utility.yul\":5885:5905   */\n      sub\n        /* \"#utility.yul\":5880:5882   */\n      0x20\n        /* \"#utility.yul\":5869:5878   */\n      dup4\n        /* \"#utility.yul\":5865:5883   */\n      add\n        /* \"#utility.yul\":5858:5906   */\n      mstore\n        /* \"#utility.yul\":5923:6001   */\n      tag_273\n        /* \"#utility.yul\":5996:6000   */\n      dup2\n        /* \"#utility.yul\":5987:5993   */\n      dup6\n        /* \"#utility.yul\":5923:6001   */\n      tag_242\n      jump\t// in\n    tag_273:\n        /* \"#utility.yul\":5915:6001   */\n      swap1\n      pop\n        /* \"#utility.yul\":6011:6083   */\n      tag_274\n        /* \"#utility.yul\":6079:6081   */\n      0x40\n        /* \"#utility.yul\":6068:6077   */\n      dup4\n        /* \"#utility.yul\":6064:6082   */\n      add\n        /* \"#utility.yul\":6055:6061   */\n      dup5\n        /* \"#utility.yul\":6011:6083   */\n      tag_263\n      jump\t// in\n    tag_274:\n        /* \"#utility.yul\":5466:6090   */\n      swap5\n      swap4\n      pop\n      pop\n      pop\n      pop\n      jump\t// out\n        /* \"#utility.yul\":6096:6515   */\n    tag_115:\n        /* \"#utility.yul\":6262:6266   */\n      0x00\n        /* \"#utility.yul\":6300:6302   */\n      0x20\n        /* \"#utility.yul\":6289:6298   */\n      dup3\n        /* \"#utility.yul\":6285:6303   */\n      add\n        /* \"#utility.yul\":6277:6303   */\n      swap1\n      pop\n        /* \"#utility.yul\":6349:6358   */\n      dup2\n        /* \"#utility.yul\":6343:6347   */\n      dup2\n        /* \"#utility.yul\":6339:6359   */\n      sub\n        /* \"#utility.yul\":6335:6336   */\n      0x00\n        /* \"#utility.yul\":6324:6333   */\n      dup4\n        /* \"#utility.yul\":6320:6337   */\n      add\n        /* \"#utility.yul\":6313:6360   */\n      mstore\n        /* \"#utility.yul\":6377:6508   */\n      tag_276\n        /* \"#utility.yul\":6503:6507   */\n      dup2\n        /* \"#utility.yul\":6377:6508   */\n      tag_258\n      jump\t// in\n    tag_276:\n        /* \"#utility.yul\":6369:6508   */\n      swap1\n      pop\n        /* \"#utility.yul\":6096:6515   */\n      swap2\n      swap1\n      pop\n      jump\t// out\n        /* \"#utility.yul\":6521:6743   */\n    tag_20:\n        /* \"#utility.yul\":6614:6618   */\n      0x00\n        /* \"#utility.yul\":6652:6654   */\n      0x20\n        /* \"#utility.yul\":6641:6650   */\n      dup3\n        /* \"#utility.yul\":6637:6655   */\n      add\n        /* \"#utility.yul\":6629:6655   */\n      swap1\n      pop\n        /* \"#utility.yul\":6665:6736   */\n      tag_278\n        /* \"#utility.yul\":6733:6734   */\n      0x00\n        /* \"#utility.yul\":6722:6731   */\n      dup4\n        /* \"#utility.yul\":6718:6735   */\n      add\n        /* \"#utility.yul\":6709:6715   */\n      dup5\n        /* \"#utility.yul\":6665:6736   */\n      tag_263\n      jump\t// in\n    tag_278:\n        /* \"#utility.yul\":6521:6743   */\n      swap3\n      swap2\n      pop\n      pop\n      jump\t// out\n        /* \"#utility.yul\":6749:6878   */\n    tag_191:\n        /* \"#utility.yul\":6783:6789   */\n      0x00\n        /* \"#utility.yul\":6810:6830   */\n      tag_280\n      tag_281\n      jump\t// in\n    tag_280:\n        /* \"#utility.yul\":6800:6830   */\n      swap1\n      pop\n        /* \"#utility.yul\":6839:6872   */\n      tag_282\n        /* \"#utility.yul\":6867:6871   */\n      dup3\n        /* \"#utility.yul\":6859:6865   */\n      dup3\n        /* \"#utility.yul\":6839:6872   */\n      tag_283\n      jump\t// in\n    tag_282:\n        /* \"#utility.yul\":6749:6878   */\n      swap2\n      swap1\n      pop\n      jump\t// out\n        /* \"#utility.yul\":6884:6959   */\n    tag_281:\n        /* \"#utility.yul\":6917:6923   */\n      0x00\n        /* \"#utility.yul\":6950:6952   */\n      0x40\n        /* \"#utility.yul\":6944:6953   */\n      mload\n        /* \"#utility.yul\":6934:6953   */\n      swap1\n      pop\n        /* \"#utility.yul\":6884:6959   */\n      swap1\n      jump\t// out\n        /* \"#utility.yul\":6965:7273   */\n    tag_190:\n        /* \"#utility.yul\":7027:7031   */\n      0x00\n        /* \"#utility.yul\":7117:7135   */\n      0xffffffffffffffff\n        /* \"#utility.yul\":7109:7115   */\n      dup3\n        /* \"#utility.yul\":7106:7136   */\n      gt\n        /* \"#utility.yul\":7103:7159   */\n      iszero\n      tag_286\n      jumpi\n        /* \"#utility.yul\":7139:7157   */\n      tag_287\n      tag_288\n      jump\t// in\n    tag_287:\n        /* \"#utility.yul\":7103:7159   */\n    tag_286:\n        /* \"#utility.yul\":7177:7206   */\n      tag_289\n        /* \"#utility.yul\":7199:7205   */\n      dup3\n        /* \"#utility.yul\":7177:7206   */\n      tag_251\n      jump\t// in\n    tag_289:\n        /* \"#utility.yul\":7169:7206   */\n      swap1\n      pop\n        /* \"#utility.yul\":7261:7265   */\n      0x20\n        /* \"#utility.yul\":7255:7259   */\n      dup2\n        /* \"#utility.yul\":7251:7266   */\n      add\n        /* \"#utility.yul\":7243:7266   */\n      swap1\n      pop\n        /* \"#utility.yul\":6965:7273   */\n      swap2\n      swap1\n      pop\n      jump\t// out\n        /* \"#utility.yul\":7279:7378   */\n    tag_245:\n        /* \"#utility.yul\":7331:7337   */\n      0x00\n        /* \"#utility.yul\":7365:7370   */\n      dup2\n        /* \"#utility.yul\":7359:7371   */\n      mload\n        /* \"#utility.yul\":7349:7371   */\n      swap1\n      pop\n        /* \"#utility.yul\":7279:7378   */\n      swap2\n      swap1\n      pop\n      jump\t// out\n        /* \"#utility.yul\":7384:7553   */\n    tag_247:\n        /* \"#utility.yul\":7468:7479   */\n      0x00\n        /* \"#utility.yul\":7502:7508   */\n      dup3\n        /* \"#utility.yul\":7497:7500   */\n      dup3\n        /* \"#utility.yul\":7490:7509   */\n      mstore\n        /* \"#utility.yul\":7542:7546   */\n      0x20\n        /* \"#utility.yul\":7537:7540   */\n      dup3\n        /* \"#utility.yul\":7533:7547   */\n      add\n        /* \"#utility.yul\":7518:7547   */\n      swap1\n      pop\n        /* \"#utility.yul\":7384:7553   */\n      swap3\n      swap2\n      pop\n      pop\n      jump\t// out\n        /* \"#utility.yul\":7559:7707   */\n    tag_256:\n        /* \"#utility.yul\":7661:7672   */\n      0x00\n        /* \"#utility.yul\":7698:7701   */\n      dup2\n        /* \"#utility.yul\":7683:7701   */\n      swap1\n      pop\n        /* \"#utility.yul\":7559:7707   */\n      swap3\n      swap2\n      pop\n      pop\n      jump\t// out\n        /* \"#utility.yul\":7713:7904   */\n    tag_138:\n        /* \"#utility.yul\":7753:7757   */\n      0x00\n        /* \"#utility.yul\":7773:7793   */\n      tag_294\n        /* \"#utility.yul\":7791:7792   */\n      dup3\n        /* \"#utility.yul\":7773:7793   */\n      tag_266\n      jump\t// in\n    tag_294:\n        /* \"#utility.yul\":7768:7793   */\n      swap2\n      pop\n        /* \"#utility.yul\":7807:7827   */\n      tag_295\n        /* \"#utility.yul\":7825:7826   */\n      dup4\n        /* \"#utility.yul\":7807:7827   */\n      tag_266\n      jump\t// in\n    tag_295:\n        /* \"#utility.yul\":7802:7827   */\n      swap3\n      pop\n        /* \"#utility.yul\":7846:7847   */\n      dup3\n        /* \"#utility.yul\":7843:7844   */\n      dup3\n        /* \"#utility.yul\":7840:7848   */\n      lt\n        /* \"#utility.yul\":7837:7871   */\n      iszero\n      tag_296\n      jumpi\n        /* \"#utility.yul\":7851:7869   */\n      tag_297\n      tag_298\n      jump\t// in\n    tag_297:\n        /* \"#utility.yul\":7837:7871   */\n    tag_296:\n        /* \"#utility.yul\":7896:7897   */\n      dup3\n        /* \"#utility.yul\":7893:7894   */\n      dup3\n        /* \"#utility.yul\":7889:7898   */\n      sub\n        /* \"#utility.yul\":7881:7898   */\n      swap1\n      pop\n        /* \"#utility.yul\":7713:7904   */\n      swap3\n      swap2\n      pop\n      pop\n      jump\t// out\n        /* \"#utility.yul\":7910:8000   */\n    tag_241:\n        /* \"#utility.yul\":7944:7951   */\n      0x00\n        /* \"#utility.yul\":7987:7992   */\n      dup2\n        /* \"#utility.yul\":7980:7993   */\n      iszero\n        /* \"#utility.yul\":7973:7994   */\n      iszero\n        /* \"#utility.yul\":7962:7994   */\n      swap1\n      pop\n        /* \"#utility.yul\":7910:8000   */\n      swap2\n      swap1\n      pop\n      jump\t// out\n        /* \"#utility.yul\":8006:8083   */\n    tag_266:\n        /* \"#utility.yul\":8043:8050   */\n      0x00\n        /* \"#utility.yul\":8072:8077   */\n      dup2\n        /* \"#utility.yul\":8061:8077   */\n      swap1\n      pop\n        /* \"#utility.yul\":8006:8083   */\n      swap2\n      swap1\n      pop\n      jump\t// out\n        /* \"#utility.yul\":8089:8243   */\n    tag_196:\n        /* \"#utility.yul\":8173:8179   */\n      dup3\n        /* \"#utility.yul\":8168:8171   */\n      dup2\n        /* \"#utility.yul\":8163:8166   */\n      dup4\n        /* \"#utility.yul\":8150:8180   */\n      calldatacopy\n        /* \"#utility.yul\":8235:8236   */\n      0x00\n        /* \"#utility.yul\":8226:8232   */\n      dup4\n        /* \"#utility.yul\":8221:8224   */\n      dup4\n        /* \"#utility.yul\":8217:8233   */\n      add\n        /* \"#utility.yul\":8210:8237   */\n      mstore\n        /* \"#utility.yul\":8089:8243   */\n      pop\n      pop\n      pop\n      jump\t// out\n        /* \"#utility.yul\":8249:8556   */\n    tag_249:\n        /* \"#utility.yul\":8317:8318   */\n      0x00\n        /* \"#utility.yul\":8327:8440   */\n    tag_303:\n        /* \"#utility.yul\":8341:8347   */\n      dup4\n        /* \"#utility.yul\":8338:8339   */\n      dup2\n        /* \"#utility.yul\":8335:8348   */\n      lt\n        /* \"#utility.yul\":8327:8440   */\n      iszero\n      tag_305\n      jumpi\n        /* \"#utility.yul\":8426:8427   */\n      dup1\n        /* \"#utility.yul\":8421:8424   */\n      dup3\n        /* \"#utility.yul\":8417:8428   */\n      add\n        /* \"#utility.yul\":8411:8429   */\n      mload\n        /* \"#utility.yul\":8407:8408   */\n      dup2\n        /* \"#utility.yul\":8402:8405   */\n      dup5\n        /* \"#utility.yul\":8398:8409   */\n      add\n        /* \"#utility.yul\":8391:8430   */\n      mstore\n        /* \"#utility.yul\":8363:8365   */\n      0x20\n        /* \"#utility.yul\":8360:8361   */\n      dup2\n        /* \"#utility.yul\":8356:8366   */\n      add\n        /* \"#utility.yul\":8351:8366   */\n      swap1\n      pop\n        /* \"#utility.yul\":8327:8440   */\n      jump(tag_303)\n    tag_305:\n        /* \"#utility.yul\":8458:8464   */\n      dup4\n        /* \"#utility.yul\":8455:8456   */\n      dup2\n        /* \"#utility.yul\":8452:8465   */\n      gt\n        /* \"#utility.yul\":8449:8550   */\n      iszero\n      tag_306\n      jumpi\n        /* \"#utility.yul\":8538:8539   */\n      0x00\n        /* \"#utility.yul\":8529:8535   */\n      dup5\n        /* \"#utility.yul\":8524:8527   */\n      dup5\n        /* \"#utility.yul\":8520:8536   */\n      add\n        /* \"#utility.yul\":8513:8540   */\n      mstore\n        /* \"#utility.yul\":8449:8550   */\n    tag_306:\n        /* \"#utility.yul\":8298:8556   */\n      pop\n        /* \"#utility.yul\":8249:8556   */\n      pop\n      pop\n      pop\n      jump\t// out\n        /* \"#utility.yul\":8562:8733   */\n    tag_158:\n        /* \"#utility.yul\":8601:8604   */\n      0x00\n        /* \"#utility.yul\":8624:8648   */\n      tag_308\n        /* \"#utility.yul\":8642:8647   */\n      dup3\n        /* \"#utility.yul\":8624:8648   */\n      tag_266\n      jump\t// in\n    tag_308:\n        /* \"#utility.yul\":8615:8648   */\n      swap2\n      pop\n        /* \"#utility.yul\":8670:8674   */\n      0x00\n        /* \"#utility.yul\":8663:8668   */\n      dup3\n        /* \"#utility.yul\":8660:8675   */\n      eq\n        /* \"#utility.yul\":8657:8698   */\n      iszero\n      tag_309\n      jumpi\n        /* \"#utility.yul\":8678:8696   */\n      tag_310\n      tag_298\n      jump\t// in\n    tag_310:\n        /* \"#utility.yul\":8657:8698   */\n    tag_309:\n        /* \"#utility.yul\":8725:8726   */\n      0x01\n        /* \"#utility.yul\":8718:8723   */\n      dup3\n        /* \"#utility.yul\":8714:8727   */\n      sub\n        /* \"#utility.yul\":8707:8727   */\n      swap1\n      pop\n        /* \"#utility.yul\":8562:8733   */\n      swap2\n      swap1\n      pop\n      jump\t// out\n        /* \"#utility.yul\":8739:9059   */\n    tag_47:\n        /* \"#utility.yul\":8783:8789   */\n      0x00\n        /* \"#utility.yul\":8820:8821   */\n      0x02\n        /* \"#utility.yul\":8814:8818   */\n      dup3\n        /* \"#utility.yul\":8810:8822   */\n      div\n        /* \"#utility.yul\":8800:8822   */\n      swap1\n      pop\n        /* \"#utility.yul\":8867:8868   */\n      0x01\n        /* \"#utility.yul\":8861:8865   */\n      dup3\n        /* \"#utility.yul\":8857:8869   */\n      and\n        /* \"#utility.yul\":8888:8906   */\n      dup1\n        /* \"#utility.yul\":8878:8959   */\n      tag_312\n      jumpi\n        /* \"#utility.yul\":8944:8948   */\n      0x7f\n        /* \"#utility.yul\":8936:8942   */\n      dup3\n        /* \"#utility.yul\":8932:8949   */\n      and\n        /* \"#utility.yul\":8922:8949   */\n      swap2\n      pop\n        /* \"#utility.yul\":8878:8959   */\n    tag_312:\n        /* \"#utility.yul\":9006:9008   */\n      0x20\n        /* \"#utility.yul\":8998:9004   */\n      dup3\n        /* \"#utility.yul\":8995:9009   */\n      lt\n        /* \"#utility.yul\":8975:8993   */\n      dup2\n        /* \"#utility.yul\":8972:9010   */\n      eq\n        /* \"#utility.yul\":8969:9053   */\n      iszero\n      tag_313\n      jumpi\n        /* \"#utility.yul\":9025:9043   */\n      tag_314\n      tag_315\n      jump\t// in\n    tag_314:\n        /* \"#utility.yul\":8969:9053   */\n    tag_313:\n        /* \"#utility.yul\":8790:9059   */\n      pop\n        /* \"#utility.yul\":8739:9059   */\n      swap2\n      swap1\n      pop\n      jump\t// out\n        /* \"#utility.yul\":9065:9346   */\n    tag_283:\n        /* \"#utility.yul\":9148:9175   */\n      tag_317\n        /* \"#utility.yul\":9170:9174   */\n      dup3\n        /* \"#utility.yul\":9148:9175   */\n      tag_251\n      jump\t// in\n    tag_317:\n        /* \"#utility.yul\":9140:9146   */\n      dup2\n        /* \"#utility.yul\":9136:9176   */\n      add\n        /* \"#utility.yul\":9278:9284   */\n      dup2\n        /* \"#utility.yul\":9266:9276   */\n      dup2\n        /* \"#utility.yul\":9263:9285   */\n      lt\n        /* \"#utility.yul\":9242:9260   */\n      0xffffffffffffffff\n        /* \"#utility.yul\":9230:9240   */\n      dup3\n        /* \"#utility.yul\":9227:9261   */\n      gt\n        /* \"#utility.yul\":9224:9286   */\n      or\n        /* \"#utility.yul\":9221:9309   */\n      iszero\n      tag_318\n      jumpi\n        /* \"#utility.yul\":9289:9307   */\n      tag_319\n      tag_288\n      jump\t// in\n    tag_319:\n        /* \"#utility.yul\":9221:9309   */\n    tag_318:\n        /* \"#utility.yul\":9329:9339   */\n      dup1\n        /* \"#utility.yul\":9325:9327   */\n      0x40\n        /* \"#utility.yul\":9318:9340   */\n      mstore\n        /* \"#utility.yul\":9108:9346   */\n      pop\n        /* \"#utility.yul\":9065:9346   */\n      pop\n      pop\n      jump\t// out\n        /* \"#utility.yul\":9352:9585   */\n    tag_79:\n        /* \"#utility.yul\":9391:9394   */\n      0x00\n        /* \"#utility.yul\":9414:9438   */\n      tag_321\n        /* \"#utility.yul\":9432:9437   */\n      dup3\n        /* \"#utility.yul\":9414:9438   */\n      tag_266\n      jump\t// in\n    tag_321:\n        /* \"#utility.yul\":9405:9438   */\n      swap2\n      pop\n        /* \"#utility.yul\":9460:9526   */\n      0xffffffffffffffffffffffffffffffffffffffffffffffffffffffffffffffff\n        /* \"#utility.yul\":9453:9458   */\n      dup3\n        /* \"#utility.yul\":9450:9527   */\n      eq\n        /* \"#utility.yul\":9447:9550   */\n      iszero\n      tag_322\n      jumpi\n        /* \"#utility.yul\":9530:9548   */\n      tag_323\n      tag_298\n      jump\t// in\n    tag_323:\n        /* \"#utility.yul\":9447:9550   */\n    tag_322:\n        /* \"#utility.yul\":9577:9578   */\n      0x01\n        /* \"#utility.yul\":9570:9575   */\n      dup3\n        /* \"#utility.yul\":9566:9579   */\n      add\n        /* \"#utility.yul\":9559:9579   */\n      swap1\n      pop\n        /* \"#utility.yul\":9352:9585   */\n      swap2\n      swap1\n      pop\n      jump\t// out\n        /* \"#utility.yul\":9591:9771   */\n    tag_298:\n        /* \"#utility.yul\":9639:9716   */\n      0x4e487b7100000000000000000000000000000000000000000000000000000000\n        /* \"#utility.yul\":9636:9637   */\n      0x00\n        /* \"#utility.yul\":9629:9717   */\n      mstore\n        /* \"#utility.yul\":9736:9740   */\n      0x11\n        /* \"#utility.yul\":9733:9734   */\n      0x04\n        /* \"#utility.yul\":9726:9741   */\n      mstore\n        /* \"#utility.yul\":9760:9764   */\n      0x24\n        /* \"#utility.yul\":9757:9758   */\n      0x00\n        /* \"#utility.yul\":9750:9765   */\n      revert\n        /* \"#utility.yul\":9777:9957   */\n    tag_315:\n        /* \"#utility.yul\":9825:9902   */\n      0x4e487b7100000000000000000000000000000000000000000000000000000000\n        /* \"#utility.yul\":9822:9823   */\n      0x00\n        /* \"#utility.yul\":9815:9903   */\n      mstore\n        /* \"#utility.yul\":9922:9926   */\n      0x22\n        /* \"#utility.yul\":9919:9920   */\n      0x04\n        /* \"#utility.yul\":9912:9927   */\n      mstore\n        /* \"#utility.yul\":9946:9950   */\n      0x24\n        /* \"#utility.yul\":9943:9944   */\n      0x00\n        /* \"#utility.yul\":9936:9951   */\n      revert\n        /* \"#utility.yul\":9963:10143   */\n    tag_64:\n        /* \"#utility.yul\":10011:10088   */\n      0x4e487b7100000000000000000000000000000000000000000000000000000000\n        /* \"#utility.yul\":10008:10009   */\n      0x00\n        /* \"#utility.yul\":10001:10089   */\n      mstore\n        /* \"#utility.yul\":10108:10112   */\n      0x32\n        /* \"#utility.yul\":10105:10106   */\n      0x04\n        /* \"#utility.yul\":10098:10113   */\n      mstore\n        /* \"#utility.yul\":10132:10136   */\n      0x24\n        /* \"#utility.yul\":10129:10130   */\n      0x00\n        /* \"#utility.yul\":10122:10137   */\n      revert\n        /* \"#utility.yul\":10149:10329   */\n    tag_288:\n        /* \"#utility.yul\":10197:10274   */\n      0x4e487b7100000000000000000000000000000000000000000000000000000000\n        /* \"#utility.yul\":10194:10195   */\n      0x00\n        /* \"#utility.yul\":10187:10275   */\n      mstore\n        /* \"#utility.yul\":10294:10298   */\n      0x41\n        /* \"#utility.yul\":10291:10292   */\n      0x04\n        /* \"#utility.yul\":10284:10299   */\n      mstore\n        /* \"#utility.yul\":10318:10322   */\n      0x24\n        /* \"#utility.yul\":10315:10316   */\n      0x00\n        /* \"#utility.yul\":10308:10323   */\n      revert\n        /* \"#utility.yul\":10335:10452   */\n    tag_201:\n        /* \"#utility.yul\":10444:10445   */\n      0x00\n        /* \"#utility.yul\":10441:10442   */\n      dup1\n        /* \"#utility.yul\":10434:10446   */\n      revert\n        /* \"#utility.yul\":10458:10575   */\n    tag_194:\n        /* \"#utility.yul\":10567:10568   */\n      0x00\n        /* \"#utility.yul\":10564:10565   */\n      dup1\n        /* \"#utility.yul\":10557:10569   */\n      revert\n        /* \"#utility.yul\":10581:10698   */\n    tag_213:\n        /* \"#utility.yul\":10690:10691   */\n      0x00\n        /* \"#utility.yul\":10687:10688   */\n      dup1\n        /* \"#utility.yul\":10680:10692   */\n      revert\n        /* \"#utility.yul\":10704:10821   */\n    tag_210:\n        /* \"#utility.yul\":10813:10814   */\n      0x00\n        /* \"#utility.yul\":10810:10811   */\n      dup1\n        /* \"#utility.yul\":10803:10815   */\n      revert\n        /* \"#utility.yul\":10827:10929   */\n    tag_251:\n        /* \"#utility.yul\":10868:10874   */\n      0x00\n        /* \"#utility.yul\":10919:10921   */\n      0x1f\n        /* \"#utility.yul\":10915:10922   */\n      not\n        /* \"#utility.yul\":10910:10912   */\n      0x1f\n        /* \"#utility.yul\":10903:10908   */\n      dup4\n        /* \"#utility.yul\":10899:10913   */\n      add\n        /* \"#utility.yul\":10895:10923   */\n      and\n        /* \"#utility.yul\":10885:10923   */\n      swap1\n      pop\n        /* \"#utility.yul\":10827:10929   */\n      swap2\n      swap1\n      pop\n      jump\t// out\n        /* \"#utility.yul\":10935:11102   */\n    tag_262:\n        /* \"#utility.yul\":11075:11094   */\n      0x636f756e747279206e6f7420666f756e64000000000000000000000000000000\n        /* \"#utility.yul\":11071:11072   */\n      0x00\n        /* \"#utility.yul\":11063:11069   */\n      dup3\n        /* \"#utility.yul\":11059:11073   */\n      add\n        /* \"#utility.yul\":11052:11095   */\n      mstore\n        /* \"#utility.yul\":10935:11102   */\n      pop\n      jump\t// out\n        /* \"#utility.yul\":11108:11230   */\n    tag_206:\n        /* \"#utility.yul\":11181:11205   */\n      tag_335\n        /* \"#utility.yul\":11199:11204   */\n      dup2\n        /* \"#utility.yul\":11181:11205   */\n      tag_266\n      jump\t// in\n    tag_335:\n        /* \"#utility.yul\":11174:11179   */\n      dup2\n        /* \"#utility.yul\":11171:11206   */\n      eq\n        /* \"#utility.yul\":11161:11224   */\n      tag_336\n      jumpi\n        /* \"#utility.yul\":11220:11221   */\n      0x00\n        /* \"#utility.yul\":11217:11218   */\n      dup1\n        /* \"#utility.yul\":11210:11222   */\n      revert\n        /* \"#utility.yul\":11161:11224   */\n    tag_336:\n        /* \"#utility.yul\":11108:11230   */\n      pop\n      jump\t// out\n\n    auxdata: 0xa2646970667358221220dd81233e1e6024b75fd9b1198a7c027b2ddb2f95dc6ffd34bc9da16c5b40988764736f6c63430008070033\n}\n",
				"bytecode": {
					"linkReferences": {},
					"object": "608060405234801561001057600080fd5b50600060018190555061121c806100286000396000f3fe608060405234801561001057600080fd5b506004361061007d5760003560e01c8063848924cb1161005b578063848924cb14610102578063acf7545814610134578063c1356d2614610152578063cae65058146101825761007d565b806308e9daa51461008257806362738129146100b457806381ba02be146100d2575b600080fd5b61009c60048036038101906100979190610d5c565b6101b2565b6040516100ab93929190610e66565b60405180910390f35b6100bc6102fc565b6040516100c99190610ecb565b60405180910390f35b6100ec60048036038101906100e79190610c59565b610302565b6040516100f99190610e4b565b60405180910390f35b61011c60048036038101906101179190610c10565b610433565b60405161012b93929190610e66565b60405180910390f35b61013c6106ee565b6040516101499190610ecb565b60405180910390f35b61016c60048036038101906101679190610cd1565b6106fa565b6040516101799190610ecb565b60405180910390f35b61019c60048036038101906101979190610c10565b6107b1565b6040516101a99190610e4b565b60405180910390f35b600081815481106101c257600080fd5b90600052602060002090600302016000915090508060000180546101e590611019565b80601f016020809104026020016040519081016040528092919081815260200182805461021190611019565b801561025e5780601f106102335761010080835404028352916020019161025e565b820191906000526020600020905b81548152906001019060200180831161024157829003601f168201915b50505050509080600101805461027390611019565b80601f016020809104026020016040519081016040528092919081815260200182805461029f90611019565b80156102ec5780601f106102c1576101008083540402835291602001916102ec565b820191906000526020600020905b8154815290600101906020018083116102cf57829003601f168201915b5050505050908060020154905083565b60015481565b600080600090505b600154811015610427576103cb6000828154811061032b5761032a611123565b5b9060005260206000209060030201600001805461034790611019565b80601f016020809104026020016040519081016040528092919081815260200182805461037390611019565b80156103c05780601f10610395576101008083540402835291602001916103c0565b820191906000526020600020905b8154815290600101906020018083116103a357829003601f168201915b5050505050856109c2565b156104145782600082815481106103e5576103e4611123565b5b90600052602060002090600302016001019080519060200190610409929190610a1b565b50600191505061042d565b808061041f9061107c565b91505061030a565b50600090505b92915050565b606080600080600090505b6001548110156106ab576104ff6000828154811061045f5761045e611123565b5b9060005260206000209060030201600001805461047b90611019565b80601f01602080910402602001604051908101604052809291908181526020018280546104a790611019565b80156104f45780601f106104c9576101008083540402835291602001916104f4565b820191906000526020600020905b8154815290600101906020018083116104d757829003601f168201915b5050505050866109c2565b15610698576000818154811061051857610517611123565b5b90600052602060002090600302016000016000828154811061053d5761053c611123565b5b90600052602060002090600302016001016000838154811061056257610561611123565b5b90600052602060002090600302016002015482805461058090611019565b80601f01602080910402602001604051908101604052809291908181526020018280546105ac90611019565b80156105f95780601f106105ce576101008083540402835291602001916105f9565b820191906000526020600020905b8154815290600101906020018083116105dc57829003601f168201915b5050505050925081805461060c90611019565b80601f016020809104026020016040519081016040528092919081815260200182805461063890611019565b80156106855780601f1061065a57610100808354040283529160200191610685565b820191906000526020600020905b81548152906001019060200180831161066857829003601f168201915b50505050509150935093509350506106e7565b80806106a39061107c565b91505061043e565b506040517f08c379a00000000000000000000000000000000000000000000000000000000081526004016106de90610eab565b60405180910390fd5b9193909250565b60008080549050905090565b600080604051806060016040528086815260200185815260200184815250905060008190806001815401808255809150506001900390600052602060002090600302016000909190919091506000820151816000019080519060200190610762929190610a1b565b50602082015181600101908051906020019061077f929190610a1b565b506040820151816002015550506001600081548092919061079f9061107c565b91905055506001549150509392505050565b600080600154116107c157600080fd5b60005b6001548110156109b757610885600082815481106107e5576107e4611123565b5b9060005260206000209060030201600001805461080190611019565b80601f016020809104026020016040519081016040528092919081815260200182805461082d90611019565b801561087a5780601f1061084f5761010080835404028352916020019161087a565b820191906000526020600020905b81548152906001019060200180831161085d57829003601f168201915b5050505050846109c2565b156109a45760006001805461089a9190610f63565b815481106108ab576108aa611123565b5b9060005260206000209060030201600082815481106108cd576108cc611123565b5b906000526020600020906003020160008201816000019080546108ef90611019565b6108fa929190610aa1565b50600182018160010190805461090f90611019565b61091a929190610aa1565b50600282015481600201559050506000600180546109389190610f63565b8154811061094957610948611123565b5b9060005260206000209060030201600080820160006109689190610b2e565b6001820160006109789190610b2e565b600282016000905550506001600081548092919061099590610fef565b919050555060019150506109bd565b80806109af9061107c565b9150506107c4565b50600090505b919050565b6000816040516020016109d59190610e34565b60405160208183030381529060405280519060200120836040516020016109fc9190610e34565b6040516020818303038152906040528051906020012014905092915050565b828054610a2790611019565b90600052602060002090601f016020900481019282610a495760008555610a90565b82601f10610a6257805160ff1916838001178555610a90565b82800160010185558215610a90579182015b82811115610a8f578251825591602001919060010190610a74565b5b509050610a9d9190610b6e565b5090565b828054610aad90611019565b90600052602060002090601f016020900481019282610acf5760008555610b1d565b82601f10610ae05780548555610b1d565b82800160010185558215610b1d57600052602060002091601f016020900482015b82811115610b1c578254825591600101919060010190610b01565b5b509050610b2a9190610b6e565b5090565b508054610b3a90611019565b6000825580601f10610b4c5750610b6b565b601f016020900490600052602060002090810190610b6a9190610b6e565b5b50565b5b80821115610b87576000816000905550600101610b6f565b5090565b6000610b9e610b9984610f0b565b610ee6565b905082815260208101848484011115610bba57610bb9611186565b5b610bc5848285610fad565b509392505050565b600082601f830112610be257610be1611181565b5b8135610bf2848260208601610b8b565b91505092915050565b600081359050610c0a816111cf565b92915050565b600060208284031215610c2657610c25611190565b5b600082013567ffffffffffffffff811115610c4457610c4361118b565b5b610c5084828501610bcd565b91505092915050565b60008060408385031215610c7057610c6f611190565b5b600083013567ffffffffffffffff811115610c8e57610c8d61118b565b5b610c9a85828601610bcd565b925050602083013567ffffffffffffffff811115610cbb57610cba61118b565b5b610cc785828601610bcd565b9150509250929050565b600080600060608486031215610cea57610ce9611190565b5b600084013567ffffffffffffffff811115610d0857610d0761118b565b5b610d1486828701610bcd565b935050602084013567ffffffffffffffff811115610d3557610d3461118b565b5b610d4186828701610bcd565b9250506040610d5286828701610bfb565b9150509250925092565b600060208284031215610d7257610d71611190565b5b6000610d8084828501610bfb565b91505092915050565b610d9281610f97565b82525050565b6000610da382610f3c565b610dad8185610f47565b9350610dbd818560208601610fbc565b610dc681611195565b840191505092915050565b6000610ddc82610f3c565b610de68185610f58565b9350610df6818560208601610fbc565b80840191505092915050565b6000610e0f601183610f47565b9150610e1a826111a6565b602082019050919050565b610e2e81610fa3565b82525050565b6000610e408284610dd1565b915081905092915050565b6000602082019050610e606000830184610d89565b92915050565b60006060820190508181036000830152610e808186610d98565b90508181036020830152610e948185610d98565b9050610ea36040830184610e25565b949350505050565b60006020820190508181036000830152610ec481610e02565b9050919050565b6000602082019050610ee06000830184610e25565b92915050565b6000610ef0610f01565b9050610efc828261104b565b919050565b6000604051905090565b600067ffffffffffffffff821115610f2657610f25611152565b5b610f2f82611195565b9050602081019050919050565b600081519050919050565b600082825260208201905092915050565b600081905092915050565b6000610f6e82610fa3565b9150610f7983610fa3565b925082821015610f8c57610f8b6110c5565b5b828203905092915050565b60008115159050919050565b6000819050919050565b82818337600083830152505050565b60005b83811015610fda578082015181840152602081019050610fbf565b83811115610fe9576000848401525b50505050565b6000610ffa82610fa3565b9150600082141561100e5761100d6110c5565b5b600182039050919050565b6000600282049050600182168061103157607f821691505b60208210811415611045576110446110f4565b5b50919050565b61105482611195565b810181811067ffffffffffffffff8211171561107357611072611152565b5b80604052505050565b600061108782610fa3565b91507fffffffffffffffffffffffffffffffffffffffffffffffffffffffffffffffff8214156110ba576110b96110c5565b5b600182019050919050565b7f4e487b7100000000000000000000000000000000000000000000000000000000600052601160045260246000fd5b7f4e487b7100000000000000000000000000000000000000000000000000000000600052602260045260246000fd5b7f4e487b7100000000000000000000000000000000000000000000000000000000600052603260045260246000fd5b7f4e487b7100000000000000000000000000000000000000000000000000000000600052604160045260246000fd5b600080fd5b600080fd5b600080fd5b600080fd5b6000601f19601f8301169050919050565b7f636f756e747279206e6f7420666f756e64000000000000000000000000000000600082015250565b6111d881610fa3565b81146111e357600080fd5b5056fea2646970667358221220dd81233e1e6024b75fd9b1198a7c027b2ddb2f95dc6ffd34bc9da16c5b40988764736f6c63430008070033",
					"opcodes": "PUSH1 0x80 PUSH1 0x40 MSTORE CALLVALUE DUP1 ISZERO PUSH2 0x10 JUMPI PUSH1 0x0 DUP1 REVERT JUMPDEST POP PUSH1 0x0 PUSH1 0x1 DUP2 SWAP1 SSTORE POP PUSH2 0x121C DUP1 PUSH2 0x28 PUSH1 0x0 CODECOPY PUSH1 0x0 RETURN INVALID PUSH1 0x80 PUSH1 0x40 MSTORE CALLVALUE DUP1 ISZERO PUSH2 0x10 JUMPI PUSH1 0x0 DUP1 REVERT JUMPDEST POP PUSH1 0x4 CALLDATASIZE LT PUSH2 0x7D JUMPI PUSH1 0x0 CALLDATALOAD PUSH1 0xE0 SHR DUP1 PUSH4 0x848924CB GT PUSH2 0x5B JUMPI DUP1 PUSH4 0x848924CB EQ PUSH2 0x102 JUMPI DUP1 PUSH4 0xACF75458 EQ PUSH2 0x134 JUMPI DUP1 PUSH4 0xC1356D26 EQ PUSH2 0x152 JUMPI DUP1 PUSH4 0xCAE65058 EQ PUSH2 0x182 JUMPI PUSH2 0x7D JUMP JUMPDEST DUP1 PUSH4 0x8E9DAA5 EQ PUSH2 0x82 JUMPI DUP1 PUSH4 0x62738129 EQ PUSH2 0xB4 JUMPI DUP1 PUSH4 0x81BA02BE EQ PUSH2 0xD2 JUMPI JUMPDEST PUSH1 0x0 DUP1 REVERT JUMPDEST PUSH2 0x9C PUSH1 0x4 DUP1 CALLDATASIZE SUB DUP2 ADD SWAP1 PUSH2 0x97 SWAP2 SWAP1 PUSH2 0xD5C JUMP JUMPDEST PUSH2 0x1B2 JUMP JUMPDEST PUSH1 0x40 MLOAD PUSH2 0xAB SWAP4 SWAP3 SWAP2 SWAP1 PUSH2 0xE66 JUMP JUMPDEST PUSH1 0x40 MLOAD DUP1 SWAP2 SUB SWAP1 RETURN JUMPDEST PUSH2 0xBC PUSH2 0x2FC JUMP JUMPDEST PUSH1 0x40 MLOAD PUSH2 0xC9 SWAP2 SWAP1 PUSH2 0xECB JUMP JUMPDEST PUSH1 0x40 MLOAD DUP1 SWAP2 SUB SWAP1 RETURN JUMPDEST PUSH2 0xEC PUSH1 0x4 DUP1 CALLDATASIZE SUB DUP2 ADD SWAP1 PUSH2 0xE7 SWAP2 SWAP1 PUSH2 0xC59 JUMP JUMPDEST PUSH2 0x302 JUMP JUMPDEST PUSH1 0x40 MLOAD PUSH2 0xF9 SWAP2 SWAP1 PUSH2 0xE4B JUMP JUMPDEST PUSH1 0x40 MLOAD DUP1 SWAP2 SUB SWAP1 RETURN JUMPDEST PUSH2 0x11C PUSH1 0x4 DUP1 CALLDATASIZE SUB DUP2 ADD SWAP1 PUSH2 0x117 SWAP2 SWAP1 PUSH2 0xC10 JUMP JUMPDEST PUSH2 0x433 JUMP JUMPDEST PUSH1 0x40 MLOAD PUSH2 0x12B SWAP4 SWAP3 SWAP2 SWAP1 PUSH2 0xE66 JUMP JUMPDEST PUSH1 0x40 MLOAD DUP1 SWAP2 SUB SWAP1 RETURN JUMPDEST PUSH2 0x13C PUSH2 0x6EE JUMP JUMPDEST PUSH1 0x40 MLOAD PUSH2 0x149 SWAP2 SWAP1 PUSH2 0xECB JUMP JUMPDEST PUSH1 0x40 MLOAD DUP1 SWAP2 SUB SWAP1 RETURN JUMPDEST PUSH2 0x16C PUSH1 0x4 DUP1 CALLDATASIZE SUB DUP2 ADD SWAP1 PUSH2 0x167 SWAP2 SWAP1 PUSH2 0xCD1 JUMP JUMPDEST PUSH2 0x6FA JUMP JUMPDEST PUSH1 0x40 MLOAD PUSH2 0x179 SWAP2 SWAP1 PUSH2 0xECB JUMP JUMPDEST PUSH1 0x40 MLOAD DUP1 SWAP2 SUB SWAP1 RETURN JUMPDEST PUSH2 0x19C PUSH1 0x4 DUP1 CALLDATASIZE SUB DUP2 ADD SWAP1 PUSH2 0x197 SWAP2 SWAP1 PUSH2 0xC10 JUMP JUMPDEST PUSH2 0x7B1 JUMP JUMPDEST PUSH1 0x40 MLOAD PUSH2 0x1A9 SWAP2 SWAP1 PUSH2 0xE4B JUMP JUMPDEST PUSH1 0x40 MLOAD DUP1 SWAP2 SUB SWAP1 RETURN JUMPDEST PUSH1 0x0 DUP2 DUP2 SLOAD DUP2 LT PUSH2 0x1C2 JUMPI PUSH1 0x0 DUP1 REVERT JUMPDEST SWAP1 PUSH1 0x0 MSTORE PUSH1 0x20 PUSH1 0x0 KECCAK256 SWAP1 PUSH1 0x3 MUL ADD PUSH1 0x0 SWAP2 POP SWAP1 POP DUP1 PUSH1 0x0 ADD DUP1 SLOAD PUSH2 0x1E5 SWAP1 PUSH2 0x1019 JUMP JUMPDEST DUP1 PUSH1 0x1F ADD PUSH1 0x20 DUP1 SWAP2 DIV MUL PUSH1 0x20 ADD PUSH1 0x40 MLOAD SWAP1 DUP2 ADD PUSH1 0x40 MSTORE DUP1 SWAP3 SWAP2 SWAP1 DUP2 DUP2 MSTORE PUSH1 0x20 ADD DUP3 DUP1 SLOAD PUSH2 0x211 SWAP1 PUSH2 0x1019 JUMP JUMPDEST DUP1 ISZERO PUSH2 0x25E JUMPI DUP1 PUSH1 0x1F LT PUSH2 0x233 JUMPI PUSH2 0x100 DUP1 DUP4 SLOAD DIV MUL DUP4 MSTORE SWAP2 PUSH1 0x20 ADD SWAP2 PUSH2 0x25E JUMP JUMPDEST DUP3 ADD SWAP2 SWAP1 PUSH1 0x0 MSTORE PUSH1 0x20 PUSH1 0x0 KECCAK256 SWAP1 JUMPDEST DUP2 SLOAD DUP2 MSTORE SWAP1 PUSH1 0x1 ADD SWAP1 PUSH1 0x20 ADD DUP1 DUP4 GT PUSH2 0x241 JUMPI DUP3 SWAP1 SUB PUSH1 0x1F AND DUP3 ADD SWAP2 JUMPDEST POP POP POP POP POP SWAP1 DUP1 PUSH1 0x1 ADD DUP1 SLOAD PUSH2 0x273 SWAP1 PUSH2 0x1019 JUMP JUMPDEST DUP1 PUSH1 0x1F ADD PUSH1 0x20 DUP1 SWAP2 DIV MUL PUSH1 0x20 ADD PUSH1 0x40 MLOAD SWAP1 DUP2 ADD PUSH1 0x40 MSTORE DUP1 SWAP3 SWAP2 SWAP1 DUP2 DUP2 MSTORE PUSH1 0x20 ADD DUP3 DUP1 SLOAD PUSH2 0x29F SWAP1 PUSH2 0x1019 JUMP JUMPDEST DUP1 ISZERO PUSH2 0x2EC JUMPI DUP1 PUSH1 0x1F LT PUSH2 0x2C1 JUMPI PUSH2 0x100 DUP1 DUP4 SLOAD DIV MUL DUP4 MSTORE SWAP2 PUSH1 0x20 ADD SWAP2 PUSH2 0x2EC JUMP JUMPDEST DUP3 ADD SWAP2 SWAP1 PUSH1 0x0 MSTORE PUSH1 0x20 PUSH1 0x0 KECCAK256 SWAP1 JUMPDEST DUP2 SLOAD DUP2 MSTORE SWAP1 PUSH1 0x1 ADD SWAP1 PUSH1 0x20 ADD DUP1 DUP4 GT PUSH2 0x2CF JUMPI DUP3 SWAP1 SUB PUSH1 0x1F AND DUP3 ADD SWAP2 JUMPDEST POP POP POP POP POP SWAP1 DUP1 PUSH1 0x2 ADD SLOAD SWAP1 POP DUP4 JUMP JUMPDEST PUSH1 0x1 SLOAD DUP2 JUMP JUMPDEST PUSH1 0x0 DUP1 PUSH1 0x0 SWAP1 POP JUMPDEST PUSH1 0x1 SLOAD DUP2 LT ISZERO PUSH2 0x427 JUMPI PUSH2 0x3CB PUSH1 0x0 DUP3 DUP2 SLOAD DUP2 LT PUSH2 0x32B JUMPI PUSH2 0x32A PUSH2 0x1123 JUMP JUMPDEST JUMPDEST SWAP1 PUSH1 0x0 MSTORE PUSH1 0x20 PUSH1 0x0 KECCAK256 SWAP1 PUSH1 0x3 MUL ADD PUSH1 0x0 ADD DUP1 SLOAD PUSH2 0x347 SWAP1 PUSH2 0x1019 JUMP JUMPDEST DUP1 PUSH1 0x1F ADD PUSH1 0x20 DUP1 SWAP2 DIV MUL PUSH1 0x20 ADD PUSH1 0x40 MLOAD SWAP1 DUP2 ADD PUSH1 0x40 MSTORE DUP1 SWAP3 SWAP2 SWAP1 DUP2 DUP2 MSTORE PUSH1 0x20 ADD DUP3 DUP1 SLOAD PUSH2 0x373 SWAP1 PUSH2 0x1019 JUMP JUMPDEST DUP1 ISZERO PUSH2 0x3C0 JUMPI DUP1 PUSH1 0x1F LT PUSH2 0x395 JUMPI PUSH2 0x100 DUP1 DUP4 SLOAD DIV MUL DUP4 MSTORE SWAP2 PUSH1 0x20 ADD SWAP2 PUSH2 0x3C0 JUMP JUMPDEST DUP3 ADD SWAP2 SWAP1 PUSH1 0x0 MSTORE PUSH1 0x20 PUSH1 0x0 KECCAK256 SWAP1 JUMPDEST DUP2 SLOAD DUP2 MSTORE SWAP1 PUSH1 0x1 ADD SWAP1 PUSH1 0x20 ADD DUP1 DUP4 GT PUSH2 0x3A3 JUMPI DUP3 SWAP1 SUB PUSH1 0x1F AND DUP3 ADD SWAP2 JUMPDEST POP POP POP POP POP DUP6 PUSH2 0x9C2 JUMP JUMPDEST ISZERO PUSH2 0x414 JUMPI DUP3 PUSH1 0x0 DUP3 DUP2 SLOAD DUP2 LT PUSH2 0x3E5 JUMPI PUSH2 0x3E4 PUSH2 0x1123 JUMP JUMPDEST JUMPDEST SWAP1 PUSH1 0x0 MSTORE PUSH1 0x20 PUSH1 0x0 KECCAK256 SWAP1 PUSH1 0x3 MUL ADD PUSH1 0x1 ADD SWAP1 DUP1 MLOAD SWAP1 PUSH1 0x20 ADD SWAP1 PUSH2 0x409 SWAP3 SWAP2 SWAP1 PUSH2 0xA1B JUMP JUMPDEST POP PUSH1 0x1 SWAP2 POP POP PUSH2 0x42D JUMP JUMPDEST DUP1 DUP1 PUSH2 0x41F SWAP1 PUSH2 0x107C JUMP JUMPDEST SWAP2 POP POP PUSH2 0x30A JUMP JUMPDEST POP PUSH1 0x0 SWAP1 POP JUMPDEST SWAP3 SWAP2 POP POP JUMP JUMPDEST PUSH1 0x60 DUP1 PUSH1 0x0 DUP1 PUSH1 0x0 SWAP1 POP JUMPDEST PUSH1 0x1 SLOAD DUP2 LT ISZERO PUSH2 0x6AB JUMPI PUSH2 0x4FF PUSH1 0x0 DUP3 DUP2 SLOAD DUP2 LT PUSH2 0x45F JUMPI PUSH2 0x45E PUSH2 0x1123 JUMP JUMPDEST JUMPDEST SWAP1 PUSH1 0x0 MSTORE PUSH1 0x20 PUSH1 0x0 KECCAK256 SWAP1 PUSH1 0x3 MUL ADD PUSH1 0x0 ADD DUP1 SLOAD PUSH2 0x47B SWAP1 PUSH2 0x1019 JUMP JUMPDEST DUP1 PUSH1 0x1F ADD PUSH1 0x20 DUP1 SWAP2 DIV MUL PUSH1 0x20 ADD PUSH1 0x40 MLOAD SWAP1 DUP2 ADD PUSH1 0x40 MSTORE DUP1 SWAP3 SWAP2 SWAP1 DUP2 DUP2 MSTORE PUSH1 0x20 ADD DUP3 DUP1 SLOAD PUSH2 0x4A7 SWAP1 PUSH2 0x1019 JUMP JUMPDEST DUP1 ISZERO PUSH2 0x4F4 JUMPI DUP1 PUSH1 0x1F LT PUSH2 0x4C9 JUMPI PUSH2 0x100 DUP1 DUP4 SLOAD DIV MUL DUP4 MSTORE SWAP2 PUSH1 0x20 ADD SWAP2 PUSH2 0x4F4 JUMP JUMPDEST DUP3 ADD SWAP2 SWAP1 PUSH1 0x0 MSTORE PUSH1 0x20 PUSH1 0x0 KECCAK256 SWAP1 JUMPDEST DUP2 SLOAD DUP2 MSTORE SWAP1 PUSH1 0x1 ADD SWAP1 PUSH1 0x20 ADD DUP1 DUP4 GT PUSH2 0x4D7 JUMPI DUP3 SWAP1 SUB PUSH1 0x1F AND DUP3 ADD SWAP2 JUMPDEST POP POP POP POP POP DUP7 PUSH2 0x9C2 JUMP JUMPDEST ISZERO PUSH2 0x698 JUMPI PUSH1 0x0 DUP2 DUP2 SLOAD DUP2 LT PUSH2 0x518 JUMPI PUSH2 0x517 PUSH2 0x1123 JUMP JUMPDEST JUMPDEST SWAP1 PUSH1 0x0 MSTORE PUSH1 0x20 PUSH1 0x0 KECCAK256 SWAP1 PUSH1 0x3 MUL ADD PUSH1 0x0 ADD PUSH1 0x0 DUP3 DUP2 SLOAD DUP2 LT PUSH2 0x53D JUMPI PUSH2 0x53C PUSH2 0x1123 JUMP JUMPDEST JUMPDEST SWAP1 PUSH1 0x0 MSTORE PUSH1 0x20 PUSH1 0x0 KECCAK256 SWAP1 PUSH1 0x3 MUL ADD PUSH1 0x1 ADD PUSH1 0x0 DUP4 DUP2 SLOAD DUP2 LT PUSH2 0x562 JUMPI PUSH2 0x561 PUSH2 0x1123 JUMP JUMPDEST JUMPDEST SWAP1 PUSH1 0x0 MSTORE PUSH1 0x20 PUSH1 0x0 KECCAK256 SWAP1 PUSH1 0x3 MUL ADD PUSH1 0x2 ADD SLOAD DUP3 DUP1 SLOAD PUSH2 0x580 SWAP1 PUSH2 0x1019 JUMP JUMPDEST DUP1 PUSH1 0x1F ADD PUSH1 0x20 DUP1 SWAP2 DIV MUL PUSH1 0x20 ADD PUSH1 0x40 MLOAD SWAP1 DUP2 ADD PUSH1 0x40 MSTORE DUP1 SWAP3 SWAP2 SWAP1 DUP2 DUP2 MSTORE PUSH1 0x20 ADD DUP3 DUP1 SLOAD PUSH2 0x5AC SWAP1 PUSH2 0x1019 JUMP JUMPDEST DUP1 ISZERO PUSH2 0x5F9 JUMPI DUP1 PUSH1 0x1F LT PUSH2 0x5CE JUMPI PUSH2 0x100 DUP1 DUP4 SLOAD DIV MUL DUP4 MSTORE SWAP2 PUSH1 0x20 ADD SWAP2 PUSH2 0x5F9 JUMP JUMPDEST DUP3 ADD SWAP2 SWAP1 PUSH1 0x0 MSTORE PUSH1 0x20 PUSH1 0x0 KECCAK256 SWAP1 JUMPDEST DUP2 SLOAD DUP2 MSTORE SWAP1 PUSH1 0x1 ADD SWAP1 PUSH1 0x20 ADD DUP1 DUP4 GT PUSH2 0x5DC JUMPI DUP3 SWAP1 SUB PUSH1 0x1F AND DUP3 ADD SWAP2 JUMPDEST POP POP POP POP POP SWAP3 POP DUP2 DUP1 SLOAD PUSH2 0x60C SWAP1 PUSH2 0x1019 JUMP JUMPDEST DUP1 PUSH1 0x1F ADD PUSH1 0x20 DUP1 SWAP2 DIV MUL PUSH1 0x20 ADD PUSH1 0x40 MLOAD SWAP1 DUP2 ADD PUSH1 0x40 MSTORE DUP1 SWAP3 SWAP2 SWAP1 DUP2 DUP2 MSTORE PUSH1 0x20 ADD DUP3 DUP1 SLOAD PUSH2 0x638 SWAP1 PUSH2 0x1019 JUMP JUMPDEST DUP1 ISZERO PUSH2 0x685 JUMPI DUP1 PUSH1 0x1F LT PUSH2 0x65A JUMPI PUSH2 0x100 DUP1 DUP4 SLOAD DIV MUL DUP4 MSTORE SWAP2 PUSH1 0x20 ADD SWAP2 PUSH2 0x685 JUMP JUMPDEST DUP3 ADD SWAP2 SWAP1 PUSH1 0x0 MSTORE PUSH1 0x20 PUSH1 0x0 KECCAK256 SWAP1 JUMPDEST DUP2 SLOAD DUP2 MSTORE SWAP1 PUSH1 0x1 ADD SWAP1 PUSH1 0x20 ADD DUP1 DUP4 GT PUSH2 0x668 JUMPI DUP3 SWAP1 SUB PUSH1 0x1F AND DUP3 ADD SWAP2 JUMPDEST POP POP POP POP POP SWAP2 POP SWAP4 POP SWAP4 POP SWAP4 POP POP PUSH2 0x6E7 JUMP JUMPDEST DUP1 DUP1 PUSH2 0x6A3 SWAP1 PUSH2 0x107C JUMP JUMPDEST SWAP2 POP POP PUSH2 0x43E JUMP JUMPDEST POP PUSH1 0x40 MLOAD PUSH32 0x8C379A000000000000000000000000000000000000000000000000000000000 DUP2 MSTORE PUSH1 0x4 ADD PUSH2 0x6DE SWAP1 PUSH2 0xEAB JUMP JUMPDEST PUSH1 0x40 MLOAD DUP1 SWAP2 SUB SWAP1 REVERT JUMPDEST SWAP2 SWAP4 SWAP1 SWAP3 POP JUMP JUMPDEST PUSH1 0x0 DUP1 DUP1 SLOAD SWAP1 POP SWAP1 POP SWAP1 JUMP JUMPDEST PUSH1 0x0 DUP1 PUSH1 0x40 MLOAD DUP1 PUSH1 0x60 ADD PUSH1 0x40 MSTORE DUP1 DUP7 DUP2 MSTORE PUSH1 0x20 ADD DUP6 DUP2 MSTORE PUSH1 0x20 ADD DUP5 DUP2 MSTORE POP SWAP1 POP PUSH1 0x0 DUP2 SWAP1 DUP1 PUSH1 0x1 DUP2 SLOAD ADD DUP1 DUP3 SSTORE DUP1 SWAP2 POP POP PUSH1 0x1 SWAP1 SUB SWAP1 PUSH1 0x0 MSTORE PUSH1 0x20 PUSH1 0x0 KECCAK256 SWAP1 PUSH1 0x3 MUL ADD PUSH1 0x0 SWAP1 SWAP2 SWAP1 SWAP2 SWAP1 SWAP2 POP PUSH1 0x0 DUP3 ADD MLOAD DUP2 PUSH1 0x0 ADD SWAP1 DUP1 MLOAD SWAP1 PUSH1 0x20 ADD SWAP1 PUSH2 0x762 SWAP3 SWAP2 SWAP1 PUSH2 0xA1B JUMP JUMPDEST POP PUSH1 0x20 DUP3 ADD MLOAD DUP2 PUSH1 0x1 ADD SWAP1 DUP1 MLOAD SWAP1 PUSH1 0x20 ADD SWAP1 PUSH2 0x77F SWAP3 SWAP2 SWAP1 PUSH2 0xA1B JUMP JUMPDEST POP PUSH1 0x40 DUP3 ADD MLOAD DUP2 PUSH1 0x2 ADD SSTORE POP POP PUSH1 0x1 PUSH1 0x0 DUP2 SLOAD DUP1 SWAP3 SWAP2 SWAP1 PUSH2 0x79F SWAP1 PUSH2 0x107C JUMP JUMPDEST SWAP2 SWAP1 POP SSTORE POP PUSH1 0x1 SLOAD SWAP2 POP POP SWAP4 SWAP3 POP POP POP JUMP JUMPDEST PUSH1 0x0 DUP1 PUSH1 0x1 SLOAD GT PUSH2 0x7C1 JUMPI PUSH1 0x0 DUP1 REVERT JUMPDEST PUSH1 0x0 JUMPDEST PUSH1 0x1 SLOAD DUP2 LT ISZERO PUSH2 0x9B7 JUMPI PUSH2 0x885 PUSH1 0x0 DUP3 DUP2 SLOAD DUP2 LT PUSH2 0x7E5 JUMPI PUSH2 0x7E4 PUSH2 0x1123 JUMP JUMPDEST JUMPDEST SWAP1 PUSH1 0x0 MSTORE PUSH1 0x20 PUSH1 0x0 KECCAK256 SWAP1 PUSH1 0x3 MUL ADD PUSH1 0x0 ADD DUP1 SLOAD PUSH2 0x801 SWAP1 PUSH2 0x1019 JUMP JUMPDEST DUP1 PUSH1 0x1F ADD PUSH1 0x20 DUP1 SWAP2 DIV MUL PUSH1 0x20 ADD PUSH1 0x40 MLOAD SWAP1 DUP2 ADD PUSH1 0x40 MSTORE DUP1 SWAP3 SWAP2 SWAP1 DUP2 DUP2 MSTORE PUSH1 0x20 ADD DUP3 DUP1 SLOAD PUSH2 0x82D SWAP1 PUSH2 0x1019 JUMP JUMPDEST DUP1 ISZERO PUSH2 0x87A JUMPI DUP1 PUSH1 0x1F LT PUSH2 0x84F JUMPI PUSH2 0x100 DUP1 DUP4 SLOAD DIV MUL DUP4 MSTORE SWAP2 PUSH1 0x20 ADD SWAP2 PUSH2 0x87A JUMP JUMPDEST DUP3 ADD SWAP2 SWAP1 PUSH1 0x0 MSTORE PUSH1 0x20 PUSH1 0x0 KECCAK256 SWAP1 JUMPDEST DUP2 SLOAD DUP2 MSTORE SWAP1 PUSH1 0x1 ADD SWAP1 PUSH1 0x20 ADD DUP1 DUP4 GT PUSH2 0x85D JUMPI DUP3 SWAP1 SUB PUSH1 0x1F AND DUP3 ADD SWAP2 JUMPDEST POP POP POP POP POP DUP5 PUSH2 0x9C2 JUMP JUMPDEST ISZERO PUSH2 0x9A4 JUMPI PUSH1 0x0 PUSH1 0x1 DUP1 SLOAD PUSH2 0x89A SWAP2 SWAP1 PUSH2 0xF63 JUMP JUMPDEST DUP2 SLOAD DUP2 LT PUSH2 0x8AB JUMPI PUSH2 0x8AA PUSH2 0x1123 JUMP JUMPDEST JUMPDEST SWAP1 PUSH1 0x0 MSTORE PUSH1 0x20 PUSH1 0x0 KECCAK256 SWAP1 PUSH1 0x3 MUL ADD PUSH1 0x0 DUP3 DUP2 SLOAD DUP2 LT PUSH2 0x8CD JUMPI PUSH2 0x8CC PUSH2 0x1123 JUMP JUMPDEST JUMPDEST SWAP1 PUSH1 0x0 MSTORE PUSH1 0x20 PUSH1 0x0 KECCAK256 SWAP1 PUSH1 0x3 MUL ADD PUSH1 0x0 DUP3 ADD DUP2 PUSH1 0x0 ADD SWAP1 DUP1 SLOAD PUSH2 0x8EF SWAP1 PUSH2 0x1019 JUMP JUMPDEST PUSH2 0x8FA SWAP3 SWAP2 SWAP1 PUSH2 0xAA1 JUMP JUMPDEST POP PUSH1 0x1 DUP3 ADD DUP2 PUSH1 0x1 ADD SWAP1 DUP1 SLOAD PUSH2 0x90F SWAP1 PUSH2 0x1019 JUMP JUMPDEST PUSH2 0x91A SWAP3 SWAP2 SWAP1 PUSH2 0xAA1 JUMP JUMPDEST POP PUSH1 0x2 DUP3 ADD SLOAD DUP2 PUSH1 0x2 ADD SSTORE SWAP1 POP POP PUSH1 0x0 PUSH1 0x1 DUP1 SLOAD PUSH2 0x938 SWAP2 SWAP1 PUSH2 0xF63 JUMP JUMPDEST DUP2 SLOAD DUP2 LT PUSH2 0x949 JUMPI PUSH2 0x948 PUSH2 0x1123 JUMP JUMPDEST JUMPDEST SWAP1 PUSH1 0x0 MSTORE PUSH1 0x20 PUSH1 0x0 KECCAK256 SWAP1 PUSH1 0x3 MUL ADD PUSH1 0x0 DUP1 DUP3 ADD PUSH1 0x0 PUSH2 0x968 SWAP2 SWAP1 PUSH2 0xB2E JUMP JUMPDEST PUSH1 0x1 DUP3 ADD PUSH1 0x0 PUSH2 0x978 SWAP2 SWAP1 PUSH2 0xB2E JUMP JUMPDEST PUSH1 0x2 DUP3 ADD PUSH1 0x0 SWAP1 SSTORE POP POP PUSH1 0x1 PUSH1 0x0 DUP2 SLOAD DUP1 SWAP3 SWAP2 SWAP1 PUSH2 0x995 SWAP1 PUSH2 0xFEF JUMP JUMPDEST SWAP2 SWAP1 POP SSTORE POP PUSH1 0x1 SWAP2 POP POP PUSH2 0x9BD JUMP JUMPDEST DUP1 DUP1 PUSH2 0x9AF SWAP1 PUSH2 0x107C JUMP JUMPDEST SWAP2 POP POP PUSH2 0x7C4 JUMP JUMPDEST POP PUSH1 0x0 SWAP1 POP JUMPDEST SWAP2 SWAP1 POP JUMP JUMPDEST PUSH1 0x0 DUP2 PUSH1 0x40 MLOAD PUSH1 0x20 ADD PUSH2 0x9D5 SWAP2 SWAP1 PUSH2 0xE34 JUMP JUMPDEST PUSH1 0x40 MLOAD PUSH1 0x20 DUP2 DUP4 SUB SUB DUP2 MSTORE SWAP1 PUSH1 0x40 MSTORE DUP1 MLOAD SWAP1 PUSH1 0x20 ADD KECCAK256 DUP4 PUSH1 0x40 MLOAD PUSH1 0x20 ADD PUSH2 0x9FC SWAP2 SWAP1 PUSH2 0xE34 JUMP JUMPDEST PUSH1 0x40 MLOAD PUSH1 0x20 DUP2 DUP4 SUB SUB DUP2 MSTORE SWAP1 PUSH1 0x40 MSTORE DUP1 MLOAD SWAP1 PUSH1 0x20 ADD KECCAK256 EQ SWAP1 POP SWAP3 SWAP2 POP POP JUMP JUMPDEST DUP3 DUP1 SLOAD PUSH2 0xA27 SWAP1 PUSH2 0x1019 JUMP JUMPDEST SWAP1 PUSH1 0x0 MSTORE PUSH1 0x20 PUSH1 0x0 KECCAK256 SWAP1 PUSH1 0x1F ADD PUSH1 0x20 SWAP1 DIV DUP2 ADD SWAP3 DUP3 PUSH2 0xA49 JUMPI PUSH1 0x0 DUP6 SSTORE PUSH2 0xA90 JUMP JUMPDEST DUP3 PUSH1 0x1F LT PUSH2 0xA62 JUMPI DUP1 MLOAD PUSH1 0xFF NOT AND DUP4 DUP1 ADD OR DUP6 SSTORE PUSH2 0xA90 JUMP JUMPDEST DUP3 DUP1 ADD PUSH1 0x1 ADD DUP6 SSTORE DUP3 ISZERO PUSH2 0xA90 JUMPI SWAP2 DUP3 ADD JUMPDEST DUP3 DUP2 GT ISZERO PUSH2 0xA8F JUMPI DUP3 MLOAD DUP3 SSTORE SWAP2 PUSH1 0x20 ADD SWAP2 SWAP1 PUSH1 0x1 ADD SWAP1 PUSH2 0xA74 JUMP JUMPDEST JUMPDEST POP SWAP1 POP PUSH2 0xA9D SWAP2 SWAP1 PUSH2 0xB6E JUMP JUMPDEST POP SWAP1 JUMP JUMPDEST DUP3 DUP1 SLOAD PUSH2 0xAAD SWAP1 PUSH2 0x1019 JUMP JUMPDEST SWAP1 PUSH1 0x0 MSTORE PUSH1 0x20 PUSH1 0x0 KECCAK256 SWAP1 PUSH1 0x1F ADD PUSH1 0x20 SWAP1 DIV DUP2 ADD SWAP3 DUP3 PUSH2 0xACF JUMPI PUSH1 0x0 DUP6 SSTORE PUSH2 0xB1D JUMP JUMPDEST DUP3 PUSH1 0x1F LT PUSH2 0xAE0 JUMPI DUP1 SLOAD DUP6 SSTORE PUSH2 0xB1D JUMP JUMPDEST DUP3 DUP1 ADD PUSH1 0x1 ADD DUP6 SSTORE DUP3 ISZERO PUSH2 0xB1D JUMPI PUSH1 0x0 MSTORE PUSH1 0x20 PUSH1 0x0 KECCAK256 SWAP2 PUSH1 0x1F ADD PUSH1 0x20 SWAP1 DIV DUP3 ADD JUMPDEST DUP3 DUP2 GT ISZERO PUSH2 0xB1C JUMPI DUP3 SLOAD DUP3 SSTORE SWAP2 PUSH1 0x1 ADD SWAP2 SWAP1 PUSH1 0x1 ADD SWAP1 PUSH2 0xB01 JUMP JUMPDEST JUMPDEST POP SWAP1 POP PUSH2 0xB2A SWAP2 SWAP1 PUSH2 0xB6E JUMP JUMPDEST POP SWAP1 JUMP JUMPDEST POP DUP1 SLOAD PUSH2 0xB3A SWAP1 PUSH2 0x1019 JUMP JUMPDEST PUSH1 0x0 DUP3 SSTORE DUP1 PUSH1 0x1F LT PUSH2 0xB4C JUMPI POP PUSH2 0xB6B JUMP JUMPDEST PUSH1 0x1F ADD PUSH1 0x20 SWAP1 DIV SWAP1 PUSH1 0x0 MSTORE PUSH1 0x20 PUSH1 0x0 KECCAK256 SWAP1 DUP2 ADD SWAP1 PUSH2 0xB6A SWAP2 SWAP1 PUSH2 0xB6E JUMP JUMPDEST JUMPDEST POP JUMP JUMPDEST JUMPDEST DUP1 DUP3 GT ISZERO PUSH2 0xB87 JUMPI PUSH1 0x0 DUP2 PUSH1 0x0 SWAP1 SSTORE POP PUSH1 0x1 ADD PUSH2 0xB6F JUMP JUMPDEST POP SWAP1 JUMP JUMPDEST PUSH1 0x0 PUSH2 0xB9E PUSH2 0xB99 DUP5 PUSH2 0xF0B JUMP JUMPDEST PUSH2 0xEE6 JUMP JUMPDEST SWAP1 POP DUP3 DUP2 MSTORE PUSH1 0x20 DUP2 ADD DUP5 DUP5 DUP5 ADD GT ISZERO PUSH2 0xBBA JUMPI PUSH2 0xBB9 PUSH2 0x1186 JUMP JUMPDEST JUMPDEST PUSH2 0xBC5 DUP5 DUP3 DUP6 PUSH2 0xFAD JUMP JUMPDEST POP SWAP4 SWAP3 POP POP POP JUMP JUMPDEST PUSH1 0x0 DUP3 PUSH1 0x1F DUP4 ADD SLT PUSH2 0xBE2 JUMPI PUSH2 0xBE1 PUSH2 0x1181 JUMP JUMPDEST JUMPDEST DUP2 CALLDATALOAD PUSH2 0xBF2 DUP5 DUP3 PUSH1 0x20 DUP7 ADD PUSH2 0xB8B JUMP JUMPDEST SWAP2 POP POP SWAP3 SWAP2 POP POP JUMP JUMPDEST PUSH1 0x0 DUP2 CALLDATALOAD SWAP1 POP PUSH2 0xC0A DUP2 PUSH2 0x11CF JUMP JUMPDEST SWAP3 SWAP2 POP POP JUMP JUMPDEST PUSH1 0x0 PUSH1 0x20 DUP3 DUP5 SUB SLT ISZERO PUSH2 0xC26 JUMPI PUSH2 0xC25 PUSH2 0x1190 JUMP JUMPDEST JUMPDEST PUSH1 0x0 DUP3 ADD CALLDATALOAD PUSH8 0xFFFFFFFFFFFFFFFF DUP2 GT ISZERO PUSH2 0xC44 JUMPI PUSH2 0xC43 PUSH2 0x118B JUMP JUMPDEST JUMPDEST PUSH2 0xC50 DUP5 DUP3 DUP6 ADD PUSH2 0xBCD JUMP JUMPDEST SWAP2 POP POP SWAP3 SWAP2 POP POP JUMP JUMPDEST PUSH1 0x0 DUP1 PUSH1 0x40 DUP4 DUP6 SUB SLT ISZERO PUSH2 0xC70 JUMPI PUSH2 0xC6F PUSH2 0x1190 JUMP JUMPDEST JUMPDEST PUSH1 0x0 DUP4 ADD CALLDATALOAD PUSH8 0xFFFFFFFFFFFFFFFF DUP2 GT ISZERO PUSH2 0xC8E JUMPI PUSH2 0xC8D PUSH2 0x118B JUMP JUMPDEST JUMPDEST PUSH2 0xC9A DUP6 DUP3 DUP7 ADD PUSH2 0xBCD JUMP JUMPDEST SWAP3 POP POP PUSH1 0x20 DUP4 ADD CALLDATALOAD PUSH8 0xFFFFFFFFFFFFFFFF DUP2 GT ISZERO PUSH2 0xCBB JUMPI PUSH2 0xCBA PUSH2 0x118B JUMP JUMPDEST JUMPDEST PUSH2 0xCC7 DUP6 DUP3 DUP7 ADD PUSH2 0xBCD JUMP JUMPDEST SWAP2 POP POP SWAP3 POP SWAP3 SWAP1 POP JUMP JUMPDEST PUSH1 0x0 DUP1 PUSH1 0x0 PUSH1 0x60 DUP5 DUP7 SUB SLT ISZERO PUSH2 0xCEA JUMPI PUSH2 0xCE9 PUSH2 0x1190 JUMP JUMPDEST JUMPDEST PUSH1 0x0 DUP5 ADD CALLDATALOAD PUSH8 0xFFFFFFFFFFFFFFFF DUP2 GT ISZERO PUSH2 0xD08 JUMPI PUSH2 0xD07 PUSH2 0x118B JUMP JUMPDEST JUMPDEST PUSH2 0xD14 DUP7 DUP3 DUP8 ADD PUSH2 0xBCD JUMP JUMPDEST SWAP4 POP POP PUSH1 0x20 DUP5 ADD CALLDATALOAD PUSH8 0xFFFFFFFFFFFFFFFF DUP2 GT ISZERO PUSH2 0xD35 JUMPI PUSH2 0xD34 PUSH2 0x118B JUMP JUMPDEST JUMPDEST PUSH2 0xD41 DUP7 DUP3 DUP8 ADD PUSH2 0xBCD JUMP JUMPDEST SWAP3 POP POP PUSH1 0x40 PUSH2 0xD52 DUP7 DUP3 DUP8 ADD PUSH2 0xBFB JUMP JUMPDEST SWAP2 POP POP SWAP3 POP SWAP3 POP SWAP3 JUMP JUMPDEST PUSH1 0x0 PUSH1 0x20 DUP3 DUP5 SUB SLT ISZERO PUSH2 0xD72 JUMPI PUSH2 0xD71 PUSH2 0x1190 JUMP JUMPDEST JUMPDEST PUSH1 0x0 PUSH2 0xD80 DUP5 DUP3 DUP6 ADD PUSH2 0xBFB JUMP JUMPDEST SWAP2 POP POP SWAP3 SWAP2 POP POP JUMP JUMPDEST PUSH2 0xD92 DUP2 PUSH2 0xF97 JUMP JUMPDEST DUP3 MSTORE POP POP JUMP JUMPDEST PUSH1 0x0 PUSH2 0xDA3 DUP3 PUSH2 0xF3C JUMP JUMPDEST PUSH2 0xDAD DUP2 DUP6 PUSH2 0xF47 JUMP JUMPDEST SWAP4 POP PUSH2 0xDBD DUP2 DUP6 PUSH1 0x20 DUP7 ADD PUSH2 0xFBC JUMP JUMPDEST PUSH2 0xDC6 DUP2 PUSH2 0x1195 JUMP JUMPDEST DUP5 ADD SWAP2 POP POP SWAP3 SWAP2 POP POP JUMP JUMPDEST PUSH1 0x0 PUSH2 0xDDC DUP3 PUSH2 0xF3C JUMP JUMPDEST PUSH2 0xDE6 DUP2 DUP6 PUSH2 0xF58 JUMP JUMPDEST SWAP4 POP PUSH2 0xDF6 DUP2 DUP6 PUSH1 0x20 DUP7 ADD PUSH2 0xFBC JUMP JUMPDEST DUP1 DUP5 ADD SWAP2 POP POP SWAP3 SWAP2 POP POP JUMP JUMPDEST PUSH1 0x0 PUSH2 0xE0F PUSH1 0x11 DUP4 PUSH2 0xF47 JUMP JUMPDEST SWAP2 POP PUSH2 0xE1A DUP3 PUSH2 0x11A6 JUMP JUMPDEST PUSH1 0x20 DUP3 ADD SWAP1 POP SWAP2 SWAP1 POP JUMP JUMPDEST PUSH2 0xE2E DUP2 PUSH2 0xFA3 JUMP JUMPDEST DUP3 MSTORE POP POP JUMP JUMPDEST PUSH1 0x0 PUSH2 0xE40 DUP3 DUP5 PUSH2 0xDD1 JUMP JUMPDEST SWAP2 POP DUP2 SWAP1 POP SWAP3 SWAP2 POP POP JUMP JUMPDEST PUSH1 0x0 PUSH1 0x20 DUP3 ADD SWAP1 POP PUSH2 0xE60 PUSH1 0x0 DUP4 ADD DUP5 PUSH2 0xD89 JUMP JUMPDEST SWAP3 SWAP2 POP POP JUMP JUMPDEST PUSH1 0x0 PUSH1 0x60 DUP3 ADD SWAP1 POP DUP2 DUP2 SUB PUSH1 0x0 DUP4 ADD MSTORE PUSH2 0xE80 DUP2 DUP7 PUSH2 0xD98 JUMP JUMPDEST SWAP1 POP DUP2 DUP2 SUB PUSH1 0x20 DUP4 ADD MSTORE PUSH2 0xE94 DUP2 DUP6 PUSH2 0xD98 JUMP JUMPDEST SWAP1 POP PUSH2 0xEA3 PUSH1 0x40 DUP4 ADD DUP5 PUSH2 0xE25 JUMP JUMPDEST SWAP5 SWAP4 POP POP POP POP JUMP JUMPDEST PUSH1 0x0 PUSH1 0x20 DUP3 ADD SWAP1 POP DUP2 DUP2 SUB PUSH1 0x0 DUP4 ADD MSTORE PUSH2 0xEC4 DUP2 PUSH2 0xE02 JUMP JUMPDEST SWAP1 POP SWAP2 SWAP1 POP JUMP JUMPDEST PUSH1 0x0 PUSH1 0x20 DUP3 ADD SWAP1 POP PUSH2 0xEE0 PUSH1 0x0 DUP4 ADD DUP5 PUSH2 0xE25 JUMP JUMPDEST SWAP3 SWAP2 POP POP JUMP JUMPDEST PUSH1 0x0 PUSH2 0xEF0 PUSH2 0xF01 JUMP JUMPDEST SWAP1 POP PUSH2 0xEFC DUP3 DUP3 PUSH2 0x104B JUMP JUMPDEST SWAP2 SWAP1 POP JUMP JUMPDEST PUSH1 0x0 PUSH1 0x40 MLOAD SWAP1 POP SWAP1 JUMP JUMPDEST PUSH1 0x0 PUSH8 0xFFFFFFFFFFFFFFFF DUP3 GT ISZERO PUSH2 0xF26 JUMPI PUSH2 0xF25 PUSH2 0x1152 JUMP JUMPDEST JUMPDEST PUSH2 0xF2F DUP3 PUSH2 0x1195 JUMP JUMPDEST SWAP1 POP PUSH1 0x20 DUP2 ADD SWAP1 POP SWAP2 SWAP1 POP JUMP JUMPDEST PUSH1 0x0 DUP2 MLOAD SWAP1 POP SWAP2 SWAP1 POP JUMP JUMPDEST PUSH1 0x0 DUP3 DUP3 MSTORE PUSH1 0x20 DUP3 ADD SWAP1 POP SWAP3 SWAP2 POP POP JUMP JUMPDEST PUSH1 0x0 DUP2 SWAP1 POP SWAP3 SWAP2 POP POP JUMP JUMPDEST PUSH1 0x0 PUSH2 0xF6E DUP3 PUSH2 0xFA3 JUMP JUMPDEST SWAP2 POP PUSH2 0xF79 DUP4 PUSH2 0xFA3 JUMP JUMPDEST SWAP3 POP DUP3 DUP3 LT ISZERO PUSH2 0xF8C JUMPI PUSH2 0xF8B PUSH2 0x10C5 JUMP JUMPDEST JUMPDEST DUP3 DUP3 SUB SWAP1 POP SWAP3 SWAP2 POP POP JUMP JUMPDEST PUSH1 0x0 DUP2 ISZERO ISZERO SWAP1 POP SWAP2 SWAP1 POP JUMP JUMPDEST PUSH1 0x0 DUP2 SWAP1 POP SWAP2 SWAP1 POP JUMP JUMPDEST DUP3 DUP2 DUP4 CALLDATACOPY PUSH1 0x0 DUP4 DUP4 ADD MSTORE POP POP POP JUMP JUMPDEST PUSH1 0x0 JUMPDEST DUP4 DUP2 LT ISZERO PUSH2 0xFDA JUMPI DUP1 DUP3 ADD MLOAD DUP2 DUP5 ADD MSTORE PUSH1 0x20 DUP2 ADD SWAP1 POP PUSH2 0xFBF JUMP JUMPDEST DUP4 DUP2 GT ISZERO PUSH2 0xFE9 JUMPI PUSH1 0x0 DUP5 DUP5 ADD MSTORE JUMPDEST POP POP POP POP JUMP JUMPDEST PUSH1 0x0 PUSH2 0xFFA DUP3 PUSH2 0xFA3 JUMP JUMPDEST SWAP2 POP PUSH1 0x0 DUP3 EQ ISZERO PUSH2 0x100E JUMPI PUSH2 0x100D PUSH2 0x10C5 JUMP JUMPDEST JUMPDEST PUSH1 0x1 DUP3 SUB SWAP1 POP SWAP2 SWAP1 POP JUMP JUMPDEST PUSH1 0x0 PUSH1 0x2 DUP3 DIV SWAP1 POP PUSH1 0x1 DUP3 AND DUP1 PUSH2 0x1031 JUMPI PUSH1 0x7F DUP3 AND SWAP2 POP JUMPDEST PUSH1 0x20 DUP3 LT DUP2 EQ ISZERO PUSH2 0x1045 JUMPI PUSH2 0x1044 PUSH2 0x10F4 JUMP JUMPDEST JUMPDEST POP SWAP2 SWAP1 POP JUMP JUMPDEST PUSH2 0x1054 DUP3 PUSH2 0x1195 JUMP JUMPDEST DUP2 ADD DUP2 DUP2 LT PUSH8 0xFFFFFFFFFFFFFFFF DUP3 GT OR ISZERO PUSH2 0x1073 JUMPI PUSH2 0x1072 PUSH2 0x1152 JUMP JUMPDEST JUMPDEST DUP1 PUSH1 0x40 MSTORE POP POP POP JUMP JUMPDEST PUSH1 0x0 PUSH2 0x1087 DUP3 PUSH2 0xFA3 JUMP JUMPDEST SWAP2 POP PUSH32 0xFFFFFFFFFFFFFFFFFFFFFFFFFFFFFFFFFFFFFFFFFFFFFFFFFFFFFFFFFFFFFFFF DUP3 EQ ISZERO PUSH2 0x10BA JUMPI PUSH2 0x10B9 PUSH2 0x10C5 JUMP JUMPDEST JUMPDEST PUSH1 0x1 DUP3 ADD SWAP1 POP SWAP2 SWAP1 POP JUMP JUMPDEST PUSH32 0x4E487B7100000000000000000000000000000000000000000000000000000000 PUSH1 0x0 MSTORE PUSH1 0x11 PUSH1 0x4 MSTORE PUSH1 0x24 PUSH1 0x0 REVERT JUMPDEST PUSH32 0x4E487B7100000000000000000000000000000000000000000000000000000000 PUSH1 0x0 MSTORE PUSH1 0x22 PUSH1 0x4 MSTORE PUSH1 0x24 PUSH1 0x0 REVERT JUMPDEST PUSH32 0x4E487B7100000000000000000000000000000000000000000000000000000000 PUSH1 0x0 MSTORE PUSH1 0x32 PUSH1 0x4 MSTORE PUSH1 0x24 PUSH1 0x0 REVERT JUMPDEST PUSH32 0x4E487B7100000000000000000000000000000000000000000000000000000000 PUSH1 0x0 MSTORE PUSH1 0x41 PUSH1 0x4 MSTORE PUSH1 0x24 PUSH1 0x0 REVERT JUMPDEST PUSH1 0x0 DUP1 REVERT JUMPDEST PUSH1 0x0 DUP1 REVERT JUMPDEST PUSH1 0x0 DUP1 REVERT JUMPDEST PUSH1 0x0 DUP1 REVERT JUMPDEST PUSH1 0x0 PUSH1 0x1F NOT PUSH1 0x1F DUP4 ADD AND SWAP1 POP SWAP2 SWAP1 POP JUMP JUMPDEST PUSH32 0x636F756E747279206E6F7420666F756E64000000000000000000000000000000 PUSH1 0x0 DUP3 ADD MSTORE POP JUMP JUMPDEST PUSH2 0x11D8 DUP2 PUSH2 0xFA3 JUMP JUMPDEST DUP2 EQ PUSH2 0x11E3 JUMPI PUSH1 0x0 DUP1 REVERT JUMPDEST POP JUMP INVALID LOG2 PUSH5 0x6970667358 0x22 SLT KECCAK256 0xDD DUP2 0x23 RETURNDATACOPY 0x1E PUSH1 0x24 0xB7 0x5F 0xD9 0xB1 NOT DUP11 PUSH29 0x27B2DDB2F95DC6FFD34BC9DA16C5B40988764736F6C63430008070033 "
				},
				"gasEstimates": {
					"creation": {
						"codeDepositCost": "927200",
						"executionCost": "5976",
						"totalCost": "933176"
					},
					"external": {
						"countries(uint256)": "infinite",
						"deleteCountry(string)": "infinite",
						"getCountry(string)": "infinite",
						"getTotalCountries()": "2467",
						"insert(string,string,uint256)": "infinite",
						"totalCountries()": "2452",
						"updateLeader(string,string)": "infinite"
					},
					"internal": {
						"compareStrings(string memory,string memory)": "infinite"
					}
				},
				"methodIdentifiers": {
					"countries(uint256)": "08e9daa5",
					"deleteCountry(string)": "cae65058",
					"getCountry(string)": "848924cb",
					"getTotalCountries()": "acf75458",
					"insert(string,string,uint256)": "c1356d26",
					"totalCountries()": "62738129",
					"updateLeader(string,string)": "81ba02be"
				}
			},
			"storageLayout": {
				"storage": [
					{
						"astId": 13,
						"contract": "contracts/Test.sol:CrudApp",
						"label": "countries",
						"offset": 0,
						"slot": "0",
						"type": "t_array(t_struct(country)9_storage)dyn_storage"
					},
					{
						"astId": 15,
						"contract": "contracts/Test.sol:CrudApp",
						"label": "totalCountries",
						"offset": 0,
						"slot": "1",
						"type": "t_uint256"
					}
				],
				"types": {
					"t_array(t_struct(country)9_storage)dyn_storage": {
						"base": "t_struct(country)9_storage",
						"encoding": "dynamic_array",
						"label": "struct CrudApp.country[]",
						"numberOfBytes": "32"
					},
					"t_string_storage": {
						"encoding": "bytes",
						"label": "string",
						"numberOfBytes": "32"
					},
					"t_struct(country)9_storage": {
						"encoding": "inplace",
						"label": "struct CrudApp.country",
						"members": [
							{
								"astId": 4,
								"contract": "contracts/Test.sol:CrudApp",
								"label": "name",
								"offset": 0,
								"slot": "0",
								"type": "t_string_storage"
							},
							{
								"astId": 6,
								"contract": "contracts/Test.sol:CrudApp",
								"label": "leader",
								"offset": 0,
								"slot": "1",
								"type": "t_string_storage"
							},
							{
								"astId": 8,
								"contract": "contracts/Test.sol:CrudApp",
								"label": "population",
								"offset": 0,
								"slot": "2",
								"type": "t_uint256"
							}
						],
						"numberOfBytes": "96"
					},
					"t_uint256": {
						"encoding": "inplace",
						"label": "uint256",
						"numberOfBytes": "32"
					}
				}
			},
			"userdoc": {
				"kind": "user",
				"methods": {},
				"version": 1
			}
		}
	}
}