{
	"contracts/Drugs.sol": {
		"Drugs": {
			"abi": [
				{
					"inputs": [],
					"stateMutability": "nonpayable",
					"type": "constructor"
				},
				{
					"inputs": [
						{
							"internalType": "string",
							"name": "_regno",
							"type": "string"
						},
						{
							"internalType": "string",
							"name": "_drugname",
							"type": "string"
						}
					],
					"name": "CreateDrug",
					"outputs": [
						{
							"internalType": "bool",
							"name": "",
							"type": "bool"
						}
					],
					"stateMutability": "nonpayable",
					"type": "function"
				},
				{
					"inputs": [
						{
							"internalType": "string",
							"name": "_regno",
							"type": "string"
						}
					],
					"name": "ReadDrug",
					"outputs": [
						{
							"components": [
								{
									"internalType": "string",
									"name": "DrugName",
									"type": "string"
								},
								{
									"internalType": "address",
									"name": "Manufacturer",
									"type": "address"
								},
								{
									"internalType": "enum Utils.Statuses",
									"name": "DrugStatus",
									"type": "uint8"
								}
							],
							"internalType": "struct Utils.Drug",
							"name": "",
							"type": "tuple"
						}
					],
					"stateMutability": "view",
					"type": "function"
				},
				{
					"inputs": [
						{
							"internalType": "string",
							"name": "_regno",
							"type": "string"
						}
					],
					"name": "SetDrugStatus",
					"outputs": [
						{
							"internalType": "bool",
							"name": "",
							"type": "bool"
						}
					],
					"stateMutability": "nonpayable",
					"type": "function"
				}
			],
			"devdoc": {
				"kind": "dev",
				"methods": {},
				"version": 1
			},
			"evm": {
				"assembly": "    /* \"contracts/Drugs.sol\":116:886  contract Drugs is Utils{... */\n  mstore(0x40, 0x80)\n    /* \"contracts/Drugs.sol\":146:201  constructor() {... */\n  callvalue\n  dup1\n  iszero\n  tag_1\n  jumpi\n  0x00\n  dup1\n  revert\ntag_1:\n  pop\n    /* \"contracts/Drugs.sol\":116:886  contract Drugs is Utils{... */\n  dataSize(sub_0)\n  dup1\n  dataOffset(sub_0)\n  0x00\n  codecopy\n  0x00\n  return\nstop\n\nsub_0: assembly {\n        /* \"contracts/Drugs.sol\":116:886  contract Drugs is Utils{... */\n      mstore(0x40, 0x80)\n      callvalue\n      dup1\n      iszero\n      tag_1\n      jumpi\n      0x00\n      dup1\n      revert\n    tag_1:\n      pop\n      jumpi(tag_2, lt(calldatasize, 0x04))\n      shr(0xe0, calldataload(0x00))\n      dup1\n      0x9581a3ca\n      eq\n      tag_3\n      jumpi\n      dup1\n      0xcdf7e73d\n      eq\n      tag_4\n      jumpi\n      dup1\n      0xe3ac2a27\n      eq\n      tag_5\n      jumpi\n    tag_2:\n      0x00\n      dup1\n      revert\n        /* \"contracts/Drugs.sol\":329:626  function CreateDrug(... */\n    tag_3:\n      tag_6\n      0x04\n      dup1\n      calldatasize\n      sub\n      dup2\n      add\n      swap1\n      tag_7\n      swap2\n      swap1\n      tag_8\n      jump\t// in\n    tag_7:\n      tag_9\n      jump\t// in\n    tag_6:\n      mload(0x40)\n      tag_10\n      swap2\n      swap1\n      tag_11\n      jump\t// in\n    tag_10:\n      mload(0x40)\n      dup1\n      swap2\n      sub\n      swap1\n      return\n        /* \"contracts/Utils.sol\":1072:1196  function ReadDrug(string memory _regno) public view returns (Drug memory) {\r... */\n    tag_4:\n      tag_12\n      0x04\n      dup1\n      calldatasize\n      sub\n      dup2\n      add\n      swap1\n      tag_13\n      swap2\n      swap1\n      tag_14\n      jump\t// in\n    tag_13:\n      tag_15\n      jump\t// in\n    tag_12:\n      mload(0x40)\n      tag_16\n      swap2\n      swap1\n      tag_17\n      jump\t// in\n    tag_16:\n      mload(0x40)\n      dup1\n      swap2\n      sub\n      swap1\n      return\n        /* \"contracts/Drugs.sol\":632:876  function SetDrugStatus(string memory _regno)... */\n    tag_5:\n      tag_18\n      0x04\n      dup1\n      calldatasize\n      sub\n      dup2\n      add\n      swap1\n      tag_19\n      swap2\n      swap1\n      tag_14\n      jump\t// in\n    tag_19:\n      tag_20\n      jump\t// in\n    tag_18:\n      mload(0x40)\n      tag_21\n      swap2\n      swap1\n      tag_11\n      jump\t// in\n    tag_21:\n      mload(0x40)\n      dup1\n      swap2\n      sub\n      swap1\n      return\n        /* \"contracts/Drugs.sol\":329:626  function CreateDrug(... */\n    tag_9:\n        /* \"contracts/Drugs.sol\":434:438  bool */\n      0x00\n        /* \"contracts/Drugs.sol\":477:564  Drug(... */\n      mload(0x40)\n      dup1\n      0x60\n      add\n      0x40\n      mstore\n      dup1\n        /* \"contracts/Drugs.sol\":495:504  _drugname */\n      dup4\n        /* \"contracts/Drugs.sol\":477:564  Drug(... */\n      dup2\n      mstore\n      0x20\n      add\n        /* \"contracts/Drugs.sol\":518:528  msg.sender */\n      caller\n        /* \"contracts/Drugs.sol\":477:564  Drug(... */\n      0xffffffffffffffffffffffffffffffffffffffff\n      and\n      dup2\n      mstore\n      0x20\n      add\n        /* \"contracts/Drugs.sol\":542:554  Statuses.New */\n      0x00\n        /* \"contracts/Drugs.sol\":477:564  Drug(... */\n      0x02\n      dup2\n      gt\n      iszero\n      tag_23\n      jumpi\n      tag_24\n      tag_25\n      jump\t// in\n    tag_24:\n    tag_23:\n      dup2\n      mstore\n      pop\n        /* \"contracts/Drugs.sol\":450:466  DrugRegNoMapping */\n      0x02\n        /* \"contracts/Drugs.sol\":467:473  _regno */\n      dup5\n        /* \"contracts/Drugs.sol\":450:474  DrugRegNoMapping[_regno] */\n      mload(0x40)\n      tag_26\n      swap2\n      swap1\n      tag_27\n      jump\t// in\n    tag_26:\n      swap1\n      dup2\n      mstore\n      0x20\n      add\n      mload(0x40)\n      dup1\n      swap2\n      sub\n      swap1\n      keccak256\n        /* \"contracts/Drugs.sol\":450:564  DrugRegNoMapping[_regno] = Drug(... */\n      0x00\n      dup3\n      add\n      mload\n      dup2\n      0x00\n      add\n      swap1\n      dup1\n      mload\n      swap1\n      0x20\n      add\n      swap1\n      tag_28\n      swap3\n      swap2\n      swap1\n      tag_29\n      jump\t// in\n    tag_28:\n      pop\n      0x20\n      dup3\n      add\n      mload\n      dup2\n      0x01\n      add\n      exp(0x0100, 0x00)\n      dup2\n      sload\n      dup2\n      0xffffffffffffffffffffffffffffffffffffffff\n      mul\n      not\n      and\n      swap1\n      dup4\n      0xffffffffffffffffffffffffffffffffffffffff\n      and\n      mul\n      or\n      swap1\n      sstore\n      pop\n      0x40\n      dup3\n      add\n      mload\n      dup2\n      0x01\n      add\n      exp(0x0100, 0x14)\n      dup2\n      sload\n      dup2\n      0xff\n      mul\n      not\n      and\n      swap1\n      dup4\n      0x02\n      dup2\n      gt\n      iszero\n      tag_30\n      jumpi\n      tag_31\n      tag_25\n      jump\t// in\n    tag_31:\n    tag_30:\n      mul\n      or\n      swap1\n      sstore\n      pop\n      swap1\n      pop\n      pop\n        /* \"contracts/Drugs.sol\":574:585  DrugsRegNos */\n      0x03\n        /* \"contracts/Drugs.sol\":591:597  _regno */\n      dup4\n        /* \"contracts/Drugs.sol\":574:598  DrugsRegNos.push(_regno) */\n      swap1\n      dup1\n      0x01\n      dup2\n      sload\n      add\n      dup1\n      dup3\n      sstore\n      dup1\n      swap2\n      pop\n      pop\n      0x01\n      swap1\n      sub\n      swap1\n      0x00\n      mstore\n      keccak256(0x00, 0x20)\n      add\n      0x00\n      swap1\n      swap2\n      swap1\n      swap2\n      swap1\n      swap2\n      pop\n      swap1\n      dup1\n      mload\n      swap1\n      0x20\n      add\n      swap1\n      tag_33\n      swap3\n      swap2\n      swap1\n      tag_29\n      jump\t// in\n    tag_33:\n      pop\n        /* \"contracts/Drugs.sol\":615:619  true */\n      0x01\n        /* \"contracts/Drugs.sol\":608:619  return true */\n      swap1\n      pop\n        /* \"contracts/Drugs.sol\":329:626  function CreateDrug(... */\n      swap3\n      swap2\n      pop\n      pop\n      jump\t// out\n        /* \"contracts/Utils.sol\":1072:1196  function ReadDrug(string memory _regno) public view returns (Drug memory) {\r... */\n    tag_15:\n        /* \"contracts/Utils.sol\":1133:1144  Drug memory */\n      tag_34\n      tag_35\n      jump\t// in\n    tag_34:\n        /* \"contracts/Utils.sol\":1164:1180  DrugRegNoMapping */\n      0x02\n        /* \"contracts/Utils.sol\":1181:1187  _regno */\n      dup3\n        /* \"contracts/Utils.sol\":1164:1188  DrugRegNoMapping[_regno] */\n      mload(0x40)\n      tag_37\n      swap2\n      swap1\n      tag_27\n      jump\t// in\n    tag_37:\n      swap1\n      dup2\n      mstore\n      0x20\n      add\n      mload(0x40)\n      dup1\n      swap2\n      sub\n      swap1\n      keccak256\n        /* \"contracts/Utils.sol\":1157:1188  return DrugRegNoMapping[_regno] */\n      mload(0x40)\n      dup1\n      0x60\n      add\n      0x40\n      mstore\n      swap1\n      dup2\n      0x00\n      dup3\n      add\n      dup1\n      sload\n      tag_38\n      swap1\n      tag_39\n      jump\t// in\n    tag_38:\n      dup1\n      0x1f\n      add\n      0x20\n      dup1\n      swap2\n      div\n      mul\n      0x20\n      add\n      mload(0x40)\n      swap1\n      dup2\n      add\n      0x40\n      mstore\n      dup1\n      swap3\n      swap2\n      swap1\n      dup2\n      dup2\n      mstore\n      0x20\n      add\n      dup3\n      dup1\n      sload\n      tag_40\n      swap1\n      tag_39\n      jump\t// in\n    tag_40:\n      dup1\n      iszero\n      tag_41\n      jumpi\n      dup1\n      0x1f\n      lt\n      tag_42\n      jumpi\n      0x0100\n      dup1\n      dup4\n      sload\n      div\n      mul\n      dup4\n      mstore\n      swap2\n      0x20\n      add\n      swap2\n      jump(tag_41)\n    tag_42:\n      dup3\n      add\n      swap2\n      swap1\n      0x00\n      mstore\n      keccak256(0x00, 0x20)\n      swap1\n    tag_43:\n      dup2\n      sload\n      dup2\n      mstore\n      swap1\n      0x01\n      add\n      swap1\n      0x20\n      add\n      dup1\n      dup4\n      gt\n      tag_43\n      jumpi\n      dup3\n      swap1\n      sub\n      0x1f\n      and\n      dup3\n      add\n      swap2\n    tag_41:\n      pop\n      pop\n      pop\n      pop\n      pop\n      dup2\n      mstore\n      0x20\n      add\n      0x01\n      dup3\n      add\n      0x00\n      swap1\n      sload\n      swap1\n      0x0100\n      exp\n      swap1\n      div\n      0xffffffffffffffffffffffffffffffffffffffff\n      and\n      0xffffffffffffffffffffffffffffffffffffffff\n      and\n      0xffffffffffffffffffffffffffffffffffffffff\n      and\n      dup2\n      mstore\n      0x20\n      add\n      0x01\n      dup3\n      add\n      0x14\n      swap1\n      sload\n      swap1\n      0x0100\n      exp\n      swap1\n      div\n      0xff\n      and\n      0x02\n      dup2\n      gt\n      iszero\n      tag_44\n      jumpi\n      tag_45\n      tag_25\n      jump\t// in\n    tag_45:\n    tag_44:\n      0x02\n      dup2\n      gt\n      iszero\n      tag_46\n      jumpi\n      tag_47\n      tag_25\n      jump\t// in\n    tag_47:\n    tag_46:\n      dup2\n      mstore\n      pop\n      pop\n      swap1\n      pop\n        /* \"contracts/Utils.sol\":1072:1196  function ReadDrug(string memory _regno) public view returns (Drug memory) {\r... */\n      swap2\n      swap1\n      pop\n      jump\t// out\n        /* \"contracts/Drugs.sol\":632:876  function SetDrugStatus(string memory _regno)... */\n    tag_20:\n        /* \"contracts/Drugs.sol\":709:713  bool */\n      0x00\n        /* \"contracts/Drugs.sol\":771:781  msg.sender */\n      caller\n        /* \"contracts/Drugs.sol\":738:781  ReadDrug(_regno).Manufacturer == msg.sender */\n      0xffffffffffffffffffffffffffffffffffffffff\n      and\n        /* \"contracts/Drugs.sol\":738:754  ReadDrug(_regno) */\n      tag_49\n        /* \"contracts/Drugs.sol\":747:753  _regno */\n      dup4\n        /* \"contracts/Drugs.sol\":738:746  ReadDrug */\n      tag_15\n        /* \"contracts/Drugs.sol\":738:754  ReadDrug(_regno) */\n      jump\t// in\n    tag_49:\n        /* \"contracts/Drugs.sol\":738:767  ReadDrug(_regno).Manufacturer */\n      0x20\n      add\n      mload\n        /* \"contracts/Drugs.sol\":738:781  ReadDrug(_regno).Manufacturer == msg.sender */\n      0xffffffffffffffffffffffffffffffffffffffff\n      and\n      eq\n        /* \"contracts/Drugs.sol\":729:782  require (ReadDrug(_regno).Manufacturer == msg.sender) */\n      tag_50\n      jumpi\n      0x00\n      dup1\n      revert\n    tag_50:\n        /* \"contracts/Drugs.sol\":830:848  Statuses.Suspended */\n      0x02\n        /* \"contracts/Drugs.sol\":792:808  DrugRegNoMapping */\n      dup1\n        /* \"contracts/Drugs.sol\":809:815  _regno */\n      dup4\n        /* \"contracts/Drugs.sol\":792:816  DrugRegNoMapping[_regno] */\n      mload(0x40)\n      tag_51\n      swap2\n      swap1\n      tag_27\n      jump\t// in\n    tag_51:\n      swap1\n      dup2\n      mstore\n      0x20\n      add\n      mload(0x40)\n      dup1\n      swap2\n      sub\n      swap1\n      keccak256\n        /* \"contracts/Drugs.sol\":792:827  DrugRegNoMapping[_regno].DrugStatus */\n      0x01\n      add\n      0x14\n        /* \"contracts/Drugs.sol\":792:848  DrugRegNoMapping[_regno].DrugStatus = Statuses.Suspended */\n      0x0100\n      exp\n      dup2\n      sload\n      dup2\n      0xff\n      mul\n      not\n      and\n      swap1\n      dup4\n      0x02\n      dup2\n      gt\n      iszero\n      tag_52\n      jumpi\n      tag_53\n      tag_25\n      jump\t// in\n    tag_53:\n    tag_52:\n      mul\n      or\n      swap1\n      sstore\n      pop\n        /* \"contracts/Drugs.sol\":865:869  true */\n      0x01\n        /* \"contracts/Drugs.sol\":858:869  return true */\n      swap1\n      pop\n        /* \"contracts/Drugs.sol\":632:876  function SetDrugStatus(string memory _regno)... */\n      swap2\n      swap1\n      pop\n      jump\t// out\n    tag_29:\n      dup3\n      dup1\n      sload\n      tag_54\n      swap1\n      tag_39\n      jump\t// in\n    tag_54:\n      swap1\n      0x00\n      mstore\n      keccak256(0x00, 0x20)\n      swap1\n      0x1f\n      add\n      0x20\n      swap1\n      div\n      dup2\n      add\n      swap3\n      dup3\n      tag_56\n      jumpi\n      0x00\n      dup6\n      sstore\n      jump(tag_55)\n    tag_56:\n      dup3\n      0x1f\n      lt\n      tag_57\n      jumpi\n      dup1\n      mload\n      not(0xff)\n      and\n      dup4\n      dup1\n      add\n      or\n      dup6\n      sstore\n      jump(tag_55)\n    tag_57:\n      dup3\n      dup1\n      add\n      0x01\n      add\n      dup6\n      sstore\n      dup3\n      iszero\n      tag_55\n      jumpi\n      swap2\n      dup3\n      add\n    tag_58:\n      dup3\n      dup2\n      gt\n      iszero\n      tag_59\n      jumpi\n      dup3\n      mload\n      dup3\n      sstore\n      swap2\n      0x20\n      add\n      swap2\n      swap1\n      0x01\n      add\n      swap1\n      jump(tag_58)\n    tag_59:\n    tag_55:\n      pop\n      swap1\n      pop\n      tag_60\n      swap2\n      swap1\n      tag_61\n      jump\t// in\n    tag_60:\n      pop\n      swap1\n      jump\t// out\n    tag_35:\n      mload(0x40)\n      dup1\n      0x60\n      add\n      0x40\n      mstore\n      dup1\n      0x60\n      dup2\n      mstore\n      0x20\n      add\n      and(0xffffffffffffffffffffffffffffffffffffffff, 0x00)\n      dup2\n      mstore\n      0x20\n      add\n      0x00\n      0x02\n      dup2\n      gt\n      iszero\n      tag_62\n      jumpi\n      tag_63\n      tag_25\n      jump\t// in\n    tag_63:\n    tag_62:\n      dup2\n      mstore\n      pop\n      swap1\n      jump\t// out\n    tag_61:\n    tag_64:\n      dup1\n      dup3\n      gt\n      iszero\n      tag_65\n      jumpi\n      0x00\n      dup2\n      0x00\n      swap1\n      sstore\n      pop\n      0x01\n      add\n      jump(tag_64)\n    tag_65:\n      pop\n      swap1\n      jump\t// out\n        /* \"#utility.yul\":7:419   */\n    tag_67:\n        /* \"#utility.yul\":85:90   */\n      0x00\n        /* \"#utility.yul\":110:176   */\n      tag_69\n        /* \"#utility.yul\":126:175   */\n      tag_70\n        /* \"#utility.yul\":168:174   */\n      dup5\n        /* \"#utility.yul\":126:175   */\n      tag_71\n      jump\t// in\n    tag_70:\n        /* \"#utility.yul\":110:176   */\n      tag_72\n      jump\t// in\n    tag_69:\n        /* \"#utility.yul\":101:176   */\n      swap1\n      pop\n        /* \"#utility.yul\":199:205   */\n      dup3\n        /* \"#utility.yul\":192:197   */\n      dup2\n        /* \"#utility.yul\":185:206   */\n      mstore\n        /* \"#utility.yul\":237:241   */\n      0x20\n        /* \"#utility.yul\":230:235   */\n      dup2\n        /* \"#utility.yul\":226:242   */\n      add\n        /* \"#utility.yul\":275:278   */\n      dup5\n        /* \"#utility.yul\":266:272   */\n      dup5\n        /* \"#utility.yul\":261:264   */\n      dup5\n        /* \"#utility.yul\":257:273   */\n      add\n        /* \"#utility.yul\":254:279   */\n      gt\n        /* \"#utility.yul\":251:363   */\n      iszero\n      tag_73\n      jumpi\n        /* \"#utility.yul\":282:361   */\n      tag_74\n      tag_75\n      jump\t// in\n    tag_74:\n        /* \"#utility.yul\":251:363   */\n    tag_73:\n        /* \"#utility.yul\":372:413   */\n      tag_76\n        /* \"#utility.yul\":406:412   */\n      dup5\n        /* \"#utility.yul\":401:404   */\n      dup3\n        /* \"#utility.yul\":396:399   */\n      dup6\n        /* \"#utility.yul\":372:413   */\n      tag_77\n      jump\t// in\n    tag_76:\n        /* \"#utility.yul\":91:419   */\n      pop\n        /* \"#utility.yul\":7:419   */\n      swap4\n      swap3\n      pop\n      pop\n      pop\n      jump\t// out\n        /* \"#utility.yul\":439:779   */\n    tag_78:\n        /* \"#utility.yul\":495:500   */\n      0x00\n        /* \"#utility.yul\":544:547   */\n      dup3\n        /* \"#utility.yul\":537:541   */\n      0x1f\n        /* \"#utility.yul\":529:535   */\n      dup4\n        /* \"#utility.yul\":525:542   */\n      add\n        /* \"#utility.yul\":521:548   */\n      slt\n        /* \"#utility.yul\":511:633   */\n      tag_80\n      jumpi\n        /* \"#utility.yul\":552:631   */\n      tag_81\n      tag_82\n      jump\t// in\n    tag_81:\n        /* \"#utility.yul\":511:633   */\n    tag_80:\n        /* \"#utility.yul\":669:675   */\n      dup2\n        /* \"#utility.yul\":656:676   */\n      calldataload\n        /* \"#utility.yul\":694:773   */\n      tag_83\n        /* \"#utility.yul\":769:772   */\n      dup5\n        /* \"#utility.yul\":761:767   */\n      dup3\n        /* \"#utility.yul\":754:758   */\n      0x20\n        /* \"#utility.yul\":746:752   */\n      dup7\n        /* \"#utility.yul\":742:759   */\n      add\n        /* \"#utility.yul\":694:773   */\n      tag_67\n      jump\t// in\n    tag_83:\n        /* \"#utility.yul\":685:773   */\n      swap2\n      pop\n        /* \"#utility.yul\":501:779   */\n      pop\n        /* \"#utility.yul\":439:779   */\n      swap3\n      swap2\n      pop\n      pop\n      jump\t// out\n        /* \"#utility.yul\":785:1294   */\n    tag_14:\n        /* \"#utility.yul\":854:860   */\n      0x00\n        /* \"#utility.yul\":903:905   */\n      0x20\n        /* \"#utility.yul\":891:900   */\n      dup3\n        /* \"#utility.yul\":882:889   */\n      dup5\n        /* \"#utility.yul\":878:901   */\n      sub\n        /* \"#utility.yul\":874:906   */\n      slt\n        /* \"#utility.yul\":871:990   */\n      iszero\n      tag_85\n      jumpi\n        /* \"#utility.yul\":909:988   */\n      tag_86\n      tag_87\n      jump\t// in\n    tag_86:\n        /* \"#utility.yul\":871:990   */\n    tag_85:\n        /* \"#utility.yul\":1057:1058   */\n      0x00\n        /* \"#utility.yul\":1046:1055   */\n      dup3\n        /* \"#utility.yul\":1042:1059   */\n      add\n        /* \"#utility.yul\":1029:1060   */\n      calldataload\n        /* \"#utility.yul\":1087:1105   */\n      0xffffffffffffffff\n        /* \"#utility.yul\":1079:1085   */\n      dup2\n        /* \"#utility.yul\":1076:1106   */\n      gt\n        /* \"#utility.yul\":1073:1190   */\n      iszero\n      tag_88\n      jumpi\n        /* \"#utility.yul\":1109:1188   */\n      tag_89\n      tag_90\n      jump\t// in\n    tag_89:\n        /* \"#utility.yul\":1073:1190   */\n    tag_88:\n        /* \"#utility.yul\":1214:1277   */\n      tag_91\n        /* \"#utility.yul\":1269:1276   */\n      dup5\n        /* \"#utility.yul\":1260:1266   */\n      dup3\n        /* \"#utility.yul\":1249:1258   */\n      dup6\n        /* \"#utility.yul\":1245:1267   */\n      add\n        /* \"#utility.yul\":1214:1277   */\n      tag_78\n      jump\t// in\n    tag_91:\n        /* \"#utility.yul\":1204:1277   */\n      swap2\n      pop\n        /* \"#utility.yul\":1000:1287   */\n      pop\n        /* \"#utility.yul\":785:1294   */\n      swap3\n      swap2\n      pop\n      pop\n      jump\t// out\n        /* \"#utility.yul\":1300:2134   */\n    tag_8:\n        /* \"#utility.yul\":1388:1394   */\n      0x00\n        /* \"#utility.yul\":1396:1402   */\n      dup1\n        /* \"#utility.yul\":1445:1447   */\n      0x40\n        /* \"#utility.yul\":1433:1442   */\n      dup4\n        /* \"#utility.yul\":1424:1431   */\n      dup6\n        /* \"#utility.yul\":1420:1443   */\n      sub\n        /* \"#utility.yul\":1416:1448   */\n      slt\n        /* \"#utility.yul\":1413:1532   */\n      iszero\n      tag_93\n      jumpi\n        /* \"#utility.yul\":1451:1530   */\n      tag_94\n      tag_87\n      jump\t// in\n    tag_94:\n        /* \"#utility.yul\":1413:1532   */\n    tag_93:\n        /* \"#utility.yul\":1599:1600   */\n      0x00\n        /* \"#utility.yul\":1588:1597   */\n      dup4\n        /* \"#utility.yul\":1584:1601   */\n      add\n        /* \"#utility.yul\":1571:1602   */\n      calldataload\n        /* \"#utility.yul\":1629:1647   */\n      0xffffffffffffffff\n        /* \"#utility.yul\":1621:1627   */\n      dup2\n        /* \"#utility.yul\":1618:1648   */\n      gt\n        /* \"#utility.yul\":1615:1732   */\n      iszero\n      tag_95\n      jumpi\n        /* \"#utility.yul\":1651:1730   */\n      tag_96\n      tag_90\n      jump\t// in\n    tag_96:\n        /* \"#utility.yul\":1615:1732   */\n    tag_95:\n        /* \"#utility.yul\":1756:1819   */\n      tag_97\n        /* \"#utility.yul\":1811:1818   */\n      dup6\n        /* \"#utility.yul\":1802:1808   */\n      dup3\n        /* \"#utility.yul\":1791:1800   */\n      dup7\n        /* \"#utility.yul\":1787:1809   */\n      add\n        /* \"#utility.yul\":1756:1819   */\n      tag_78\n      jump\t// in\n    tag_97:\n        /* \"#utility.yul\":1746:1819   */\n      swap3\n      pop\n        /* \"#utility.yul\":1542:1829   */\n      pop\n        /* \"#utility.yul\":1896:1898   */\n      0x20\n        /* \"#utility.yul\":1885:1894   */\n      dup4\n        /* \"#utility.yul\":1881:1899   */\n      add\n        /* \"#utility.yul\":1868:1900   */\n      calldataload\n        /* \"#utility.yul\":1927:1945   */\n      0xffffffffffffffff\n        /* \"#utility.yul\":1919:1925   */\n      dup2\n        /* \"#utility.yul\":1916:1946   */\n      gt\n        /* \"#utility.yul\":1913:2030   */\n      iszero\n      tag_98\n      jumpi\n        /* \"#utility.yul\":1949:2028   */\n      tag_99\n      tag_90\n      jump\t// in\n    tag_99:\n        /* \"#utility.yul\":1913:2030   */\n    tag_98:\n        /* \"#utility.yul\":2054:2117   */\n      tag_100\n        /* \"#utility.yul\":2109:2116   */\n      dup6\n        /* \"#utility.yul\":2100:2106   */\n      dup3\n        /* \"#utility.yul\":2089:2098   */\n      dup7\n        /* \"#utility.yul\":2085:2107   */\n      add\n        /* \"#utility.yul\":2054:2117   */\n      tag_78\n      jump\t// in\n    tag_100:\n        /* \"#utility.yul\":2044:2117   */\n      swap2\n      pop\n        /* \"#utility.yul\":1839:2127   */\n      pop\n        /* \"#utility.yul\":1300:2134   */\n      swap3\n      pop\n      swap3\n      swap1\n      pop\n      jump\t// out\n        /* \"#utility.yul\":2140:2248   */\n    tag_101:\n        /* \"#utility.yul\":2217:2241   */\n      tag_103\n        /* \"#utility.yul\":2235:2240   */\n      dup2\n        /* \"#utility.yul\":2217:2241   */\n      tag_104\n      jump\t// in\n    tag_103:\n        /* \"#utility.yul\":2212:2215   */\n      dup3\n        /* \"#utility.yul\":2205:2242   */\n      mstore\n        /* \"#utility.yul\":2140:2248   */\n      pop\n      pop\n      jump\t// out\n        /* \"#utility.yul\":2254:2363   */\n    tag_105:\n        /* \"#utility.yul\":2335:2356   */\n      tag_107\n        /* \"#utility.yul\":2350:2355   */\n      dup2\n        /* \"#utility.yul\":2335:2356   */\n      tag_108\n      jump\t// in\n    tag_107:\n        /* \"#utility.yul\":2330:2333   */\n      dup3\n        /* \"#utility.yul\":2323:2357   */\n      mstore\n        /* \"#utility.yul\":2254:2363   */\n      pop\n      pop\n      jump\t// out\n        /* \"#utility.yul\":2369:2508   */\n    tag_109:\n        /* \"#utility.yul\":2455:2501   */\n      tag_111\n        /* \"#utility.yul\":2495:2500   */\n      dup2\n        /* \"#utility.yul\":2455:2501   */\n      tag_112\n      jump\t// in\n    tag_111:\n        /* \"#utility.yul\":2450:2453   */\n      dup3\n        /* \"#utility.yul\":2443:2502   */\n      mstore\n        /* \"#utility.yul\":2369:2508   */\n      pop\n      pop\n      jump\t// out\n        /* \"#utility.yul\":2514:2858   */\n    tag_113:\n        /* \"#utility.yul\":2592:2595   */\n      0x00\n        /* \"#utility.yul\":2620:2659   */\n      tag_115\n        /* \"#utility.yul\":2653:2658   */\n      dup3\n        /* \"#utility.yul\":2620:2659   */\n      tag_116\n      jump\t// in\n    tag_115:\n        /* \"#utility.yul\":2675:2736   */\n      tag_117\n        /* \"#utility.yul\":2729:2735   */\n      dup2\n        /* \"#utility.yul\":2724:2727   */\n      dup6\n        /* \"#utility.yul\":2675:2736   */\n      tag_118\n      jump\t// in\n    tag_117:\n        /* \"#utility.yul\":2668:2736   */\n      swap4\n      pop\n        /* \"#utility.yul\":2745:2797   */\n      tag_119\n        /* \"#utility.yul\":2790:2796   */\n      dup2\n        /* \"#utility.yul\":2785:2788   */\n      dup6\n        /* \"#utility.yul\":2778:2782   */\n      0x20\n        /* \"#utility.yul\":2771:2776   */\n      dup7\n        /* \"#utility.yul\":2767:2783   */\n      add\n        /* \"#utility.yul\":2745:2797   */\n      tag_120\n      jump\t// in\n    tag_119:\n        /* \"#utility.yul\":2822:2851   */\n      tag_121\n        /* \"#utility.yul\":2844:2850   */\n      dup2\n        /* \"#utility.yul\":2822:2851   */\n      tag_122\n      jump\t// in\n    tag_121:\n        /* \"#utility.yul\":2817:2820   */\n      dup5\n        /* \"#utility.yul\":2813:2852   */\n      add\n        /* \"#utility.yul\":2806:2852   */\n      swap2\n      pop\n        /* \"#utility.yul\":2596:2858   */\n      pop\n        /* \"#utility.yul\":2514:2858   */\n      swap3\n      swap2\n      pop\n      pop\n      jump\t// out\n        /* \"#utility.yul\":2864:3241   */\n    tag_123:\n        /* \"#utility.yul\":2970:2973   */\n      0x00\n        /* \"#utility.yul\":2998:3037   */\n      tag_125\n        /* \"#utility.yul\":3031:3036   */\n      dup3\n        /* \"#utility.yul\":2998:3037   */\n      tag_116\n      jump\t// in\n    tag_125:\n        /* \"#utility.yul\":3053:3142   */\n      tag_126\n        /* \"#utility.yul\":3135:3141   */\n      dup2\n        /* \"#utility.yul\":3130:3133   */\n      dup6\n        /* \"#utility.yul\":3053:3142   */\n      tag_127\n      jump\t// in\n    tag_126:\n        /* \"#utility.yul\":3046:3142   */\n      swap4\n      pop\n        /* \"#utility.yul\":3151:3203   */\n      tag_128\n        /* \"#utility.yul\":3196:3202   */\n      dup2\n        /* \"#utility.yul\":3191:3194   */\n      dup6\n        /* \"#utility.yul\":3184:3188   */\n      0x20\n        /* \"#utility.yul\":3177:3182   */\n      dup7\n        /* \"#utility.yul\":3173:3189   */\n      add\n        /* \"#utility.yul\":3151:3203   */\n      tag_120\n      jump\t// in\n    tag_128:\n        /* \"#utility.yul\":3228:3234   */\n      dup1\n        /* \"#utility.yul\":3223:3226   */\n      dup5\n        /* \"#utility.yul\":3219:3235   */\n      add\n        /* \"#utility.yul\":3212:3235   */\n      swap2\n      pop\n        /* \"#utility.yul\":2974:3241   */\n      pop\n        /* \"#utility.yul\":2864:3241   */\n      swap3\n      swap2\n      pop\n      pop\n      jump\t// out\n        /* \"#utility.yul\":3293:4092   */\n    tag_129:\n        /* \"#utility.yul\":3404:3407   */\n      0x00\n        /* \"#utility.yul\":3440:3444   */\n      0x60\n        /* \"#utility.yul\":3435:3438   */\n      dup4\n        /* \"#utility.yul\":3431:3445   */\n      add\n        /* \"#utility.yul\":3531:3535   */\n      0x00\n        /* \"#utility.yul\":3524:3529   */\n      dup4\n        /* \"#utility.yul\":3520:3536   */\n      add\n        /* \"#utility.yul\":3514:3537   */\n      mload\n        /* \"#utility.yul\":3584:3587   */\n      dup5\n        /* \"#utility.yul\":3578:3582   */\n      dup3\n        /* \"#utility.yul\":3574:3588   */\n      sub\n        /* \"#utility.yul\":3567:3571   */\n      0x00\n        /* \"#utility.yul\":3562:3565   */\n      dup7\n        /* \"#utility.yul\":3558:3572   */\n      add\n        /* \"#utility.yul\":3551:3589   */\n      mstore\n        /* \"#utility.yul\":3610:3683   */\n      tag_131\n        /* \"#utility.yul\":3678:3682   */\n      dup3\n        /* \"#utility.yul\":3664:3676   */\n      dup3\n        /* \"#utility.yul\":3610:3683   */\n      tag_113\n      jump\t// in\n    tag_131:\n        /* \"#utility.yul\":3602:3683   */\n      swap2\n      pop\n        /* \"#utility.yul\":3455:3694   */\n      pop\n        /* \"#utility.yul\":3784:3788   */\n      0x20\n        /* \"#utility.yul\":3777:3782   */\n      dup4\n        /* \"#utility.yul\":3773:3789   */\n      add\n        /* \"#utility.yul\":3767:3790   */\n      mload\n        /* \"#utility.yul\":3803:3866   */\n      tag_132\n        /* \"#utility.yul\":3860:3864   */\n      0x20\n        /* \"#utility.yul\":3855:3858   */\n      dup7\n        /* \"#utility.yul\":3851:3865   */\n      add\n        /* \"#utility.yul\":3837:3849   */\n      dup3\n        /* \"#utility.yul\":3803:3866   */\n      tag_101\n      jump\t// in\n    tag_132:\n        /* \"#utility.yul\":3704:3876   */\n      pop\n        /* \"#utility.yul\":3964:3968   */\n      0x40\n        /* \"#utility.yul\":3957:3962   */\n      dup4\n        /* \"#utility.yul\":3953:3969   */\n      add\n        /* \"#utility.yul\":3947:3970   */\n      mload\n        /* \"#utility.yul\":3983:4055   */\n      tag_133\n        /* \"#utility.yul\":4049:4053   */\n      0x40\n        /* \"#utility.yul\":4044:4047   */\n      dup7\n        /* \"#utility.yul\":4040:4054   */\n      add\n        /* \"#utility.yul\":4026:4038   */\n      dup3\n        /* \"#utility.yul\":3983:4055   */\n      tag_109\n      jump\t// in\n    tag_133:\n        /* \"#utility.yul\":3886:4065   */\n      pop\n        /* \"#utility.yul\":4082:4086   */\n      dup1\n        /* \"#utility.yul\":4075:4086   */\n      swap2\n      pop\n        /* \"#utility.yul\":3409:4092   */\n      pop\n        /* \"#utility.yul\":3293:4092   */\n      swap3\n      swap2\n      pop\n      pop\n      jump\t// out\n        /* \"#utility.yul\":4098:4373   */\n    tag_27:\n        /* \"#utility.yul\":4230:4233   */\n      0x00\n        /* \"#utility.yul\":4252:4347   */\n      tag_135\n        /* \"#utility.yul\":4343:4346   */\n      dup3\n        /* \"#utility.yul\":4334:4340   */\n      dup5\n        /* \"#utility.yul\":4252:4347   */\n      tag_123\n      jump\t// in\n    tag_135:\n        /* \"#utility.yul\":4245:4347   */\n      swap2\n      pop\n        /* \"#utility.yul\":4364:4367   */\n      dup2\n        /* \"#utility.yul\":4357:4367   */\n      swap1\n      pop\n        /* \"#utility.yul\":4098:4373   */\n      swap3\n      swap2\n      pop\n      pop\n      jump\t// out\n        /* \"#utility.yul\":4379:4589   */\n    tag_11:\n        /* \"#utility.yul\":4466:4470   */\n      0x00\n        /* \"#utility.yul\":4504:4506   */\n      0x20\n        /* \"#utility.yul\":4493:4502   */\n      dup3\n        /* \"#utility.yul\":4489:4507   */\n      add\n        /* \"#utility.yul\":4481:4507   */\n      swap1\n      pop\n        /* \"#utility.yul\":4517:4582   */\n      tag_137\n        /* \"#utility.yul\":4579:4580   */\n      0x00\n        /* \"#utility.yul\":4568:4577   */\n      dup4\n        /* \"#utility.yul\":4564:4581   */\n      add\n        /* \"#utility.yul\":4555:4561   */\n      dup5\n        /* \"#utility.yul\":4517:4582   */\n      tag_105\n      jump\t// in\n    tag_137:\n        /* \"#utility.yul\":4379:4589   */\n      swap3\n      swap2\n      pop\n      pop\n      jump\t// out\n        /* \"#utility.yul\":4595:4952   */\n    tag_17:\n        /* \"#utility.yul\":4730:4734   */\n      0x00\n        /* \"#utility.yul\":4768:4770   */\n      0x20\n        /* \"#utility.yul\":4757:4766   */\n      dup3\n        /* \"#utility.yul\":4753:4771   */\n      add\n        /* \"#utility.yul\":4745:4771   */\n      swap1\n      pop\n        /* \"#utility.yul\":4817:4826   */\n      dup2\n        /* \"#utility.yul\":4811:4815   */\n      dup2\n        /* \"#utility.yul\":4807:4827   */\n      sub\n        /* \"#utility.yul\":4803:4804   */\n      0x00\n        /* \"#utility.yul\":4792:4801   */\n      dup4\n        /* \"#utility.yul\":4788:4805   */\n      add\n        /* \"#utility.yul\":4781:4828   */\n      mstore\n        /* \"#utility.yul\":4845:4945   */\n      tag_139\n        /* \"#utility.yul\":4940:4944   */\n      dup2\n        /* \"#utility.yul\":4931:4937   */\n      dup5\n        /* \"#utility.yul\":4845:4945   */\n      tag_129\n      jump\t// in\n    tag_139:\n        /* \"#utility.yul\":4837:4945   */\n      swap1\n      pop\n        /* \"#utility.yul\":4595:4952   */\n      swap3\n      swap2\n      pop\n      pop\n      jump\t// out\n        /* \"#utility.yul\":4958:5087   */\n    tag_72:\n        /* \"#utility.yul\":4992:4998   */\n      0x00\n        /* \"#utility.yul\":5019:5039   */\n      tag_141\n      tag_142\n      jump\t// in\n    tag_141:\n        /* \"#utility.yul\":5009:5039   */\n      swap1\n      pop\n        /* \"#utility.yul\":5048:5081   */\n      tag_143\n        /* \"#utility.yul\":5076:5080   */\n      dup3\n        /* \"#utility.yul\":5068:5074   */\n      dup3\n        /* \"#utility.yul\":5048:5081   */\n      tag_144\n      jump\t// in\n    tag_143:\n        /* \"#utility.yul\":4958:5087   */\n      swap2\n      swap1\n      pop\n      jump\t// out\n        /* \"#utility.yul\":5093:5168   */\n    tag_142:\n        /* \"#utility.yul\":5126:5132   */\n      0x00\n        /* \"#utility.yul\":5159:5161   */\n      0x40\n        /* \"#utility.yul\":5153:5162   */\n      mload\n        /* \"#utility.yul\":5143:5162   */\n      swap1\n      pop\n        /* \"#utility.yul\":5093:5168   */\n      swap1\n      jump\t// out\n        /* \"#utility.yul\":5174:5482   */\n    tag_71:\n        /* \"#utility.yul\":5236:5240   */\n      0x00\n        /* \"#utility.yul\":5326:5344   */\n      0xffffffffffffffff\n        /* \"#utility.yul\":5318:5324   */\n      dup3\n        /* \"#utility.yul\":5315:5345   */\n      gt\n        /* \"#utility.yul\":5312:5368   */\n      iszero\n      tag_147\n      jumpi\n        /* \"#utility.yul\":5348:5366   */\n      tag_148\n      tag_149\n      jump\t// in\n    tag_148:\n        /* \"#utility.yul\":5312:5368   */\n    tag_147:\n        /* \"#utility.yul\":5386:5415   */\n      tag_150\n        /* \"#utility.yul\":5408:5414   */\n      dup3\n        /* \"#utility.yul\":5386:5415   */\n      tag_122\n      jump\t// in\n    tag_150:\n        /* \"#utility.yul\":5378:5415   */\n      swap1\n      pop\n        /* \"#utility.yul\":5470:5474   */\n      0x20\n        /* \"#utility.yul\":5464:5468   */\n      dup2\n        /* \"#utility.yul\":5460:5475   */\n      add\n        /* \"#utility.yul\":5452:5475   */\n      swap1\n      pop\n        /* \"#utility.yul\":5174:5482   */\n      swap2\n      swap1\n      pop\n      jump\t// out\n        /* \"#utility.yul\":5488:5587   */\n    tag_116:\n        /* \"#utility.yul\":5540:5546   */\n      0x00\n        /* \"#utility.yul\":5574:5579   */\n      dup2\n        /* \"#utility.yul\":5568:5580   */\n      mload\n        /* \"#utility.yul\":5558:5580   */\n      swap1\n      pop\n        /* \"#utility.yul\":5488:5587   */\n      swap2\n      swap1\n      pop\n      jump\t// out\n        /* \"#utility.yul\":5593:5752   */\n    tag_118:\n        /* \"#utility.yul\":5667:5678   */\n      0x00\n        /* \"#utility.yul\":5701:5707   */\n      dup3\n        /* \"#utility.yul\":5696:5699   */\n      dup3\n        /* \"#utility.yul\":5689:5708   */\n      mstore\n        /* \"#utility.yul\":5741:5745   */\n      0x20\n        /* \"#utility.yul\":5736:5739   */\n      dup3\n        /* \"#utility.yul\":5732:5746   */\n      add\n        /* \"#utility.yul\":5717:5746   */\n      swap1\n      pop\n        /* \"#utility.yul\":5593:5752   */\n      swap3\n      swap2\n      pop\n      pop\n      jump\t// out\n        /* \"#utility.yul\":5758:5906   */\n    tag_127:\n        /* \"#utility.yul\":5860:5871   */\n      0x00\n        /* \"#utility.yul\":5897:5900   */\n      dup2\n        /* \"#utility.yul\":5882:5900   */\n      swap1\n      pop\n        /* \"#utility.yul\":5758:5906   */\n      swap3\n      swap2\n      pop\n      pop\n      jump\t// out\n        /* \"#utility.yul\":5912:6008   */\n    tag_104:\n        /* \"#utility.yul\":5949:5956   */\n      0x00\n        /* \"#utility.yul\":5978:6002   */\n      tag_155\n        /* \"#utility.yul\":5996:6001   */\n      dup3\n        /* \"#utility.yul\":5978:6002   */\n      tag_156\n      jump\t// in\n    tag_155:\n        /* \"#utility.yul\":5967:6002   */\n      swap1\n      pop\n        /* \"#utility.yul\":5912:6008   */\n      swap2\n      swap1\n      pop\n      jump\t// out\n        /* \"#utility.yul\":6014:6104   */\n    tag_108:\n        /* \"#utility.yul\":6048:6055   */\n      0x00\n        /* \"#utility.yul\":6091:6096   */\n      dup2\n        /* \"#utility.yul\":6084:6097   */\n      iszero\n        /* \"#utility.yul\":6077:6098   */\n      iszero\n        /* \"#utility.yul\":6066:6098   */\n      swap1\n      pop\n        /* \"#utility.yul\":6014:6104   */\n      swap2\n      swap1\n      pop\n      jump\t// out\n        /* \"#utility.yul\":6110:6243   */\n    tag_158:\n        /* \"#utility.yul\":6158:6165   */\n      0x00\n        /* \"#utility.yul\":6187:6192   */\n      dup2\n        /* \"#utility.yul\":6176:6192   */\n      swap1\n      pop\n        /* \"#utility.yul\":6193:6237   */\n      tag_160\n        /* \"#utility.yul\":6231:6236   */\n      dup3\n        /* \"#utility.yul\":6193:6237   */\n      tag_161\n      jump\t// in\n    tag_160:\n        /* \"#utility.yul\":6110:6243   */\n      swap2\n      swap1\n      pop\n      jump\t// out\n        /* \"#utility.yul\":6249:6375   */\n    tag_156:\n        /* \"#utility.yul\":6286:6293   */\n      0x00\n        /* \"#utility.yul\":6326:6368   */\n      0xffffffffffffffffffffffffffffffffffffffff\n        /* \"#utility.yul\":6319:6324   */\n      dup3\n        /* \"#utility.yul\":6315:6369   */\n      and\n        /* \"#utility.yul\":6304:6369   */\n      swap1\n      pop\n        /* \"#utility.yul\":6249:6375   */\n      swap2\n      swap1\n      pop\n      jump\t// out\n        /* \"#utility.yul\":6381:6514   */\n    tag_112:\n        /* \"#utility.yul\":6440:6449   */\n      0x00\n        /* \"#utility.yul\":6473:6508   */\n      tag_164\n        /* \"#utility.yul\":6502:6507   */\n      dup3\n        /* \"#utility.yul\":6473:6508   */\n      tag_158\n      jump\t// in\n    tag_164:\n        /* \"#utility.yul\":6460:6508   */\n      swap1\n      pop\n        /* \"#utility.yul\":6381:6514   */\n      swap2\n      swap1\n      pop\n      jump\t// out\n        /* \"#utility.yul\":6520:6674   */\n    tag_77:\n        /* \"#utility.yul\":6604:6610   */\n      dup3\n        /* \"#utility.yul\":6599:6602   */\n      dup2\n        /* \"#utility.yul\":6594:6597   */\n      dup4\n        /* \"#utility.yul\":6581:6611   */\n      calldatacopy\n        /* \"#utility.yul\":6666:6667   */\n      0x00\n        /* \"#utility.yul\":6657:6663   */\n      dup4\n        /* \"#utility.yul\":6652:6655   */\n      dup4\n        /* \"#utility.yul\":6648:6664   */\n      add\n        /* \"#utility.yul\":6641:6668   */\n      mstore\n        /* \"#utility.yul\":6520:6674   */\n      pop\n      pop\n      pop\n      jump\t// out\n        /* \"#utility.yul\":6680:6987   */\n    tag_120:\n        /* \"#utility.yul\":6748:6749   */\n      0x00\n        /* \"#utility.yul\":6758:6871   */\n    tag_167:\n        /* \"#utility.yul\":6772:6778   */\n      dup4\n        /* \"#utility.yul\":6769:6770   */\n      dup2\n        /* \"#utility.yul\":6766:6779   */\n      lt\n        /* \"#utility.yul\":6758:6871   */\n      iszero\n      tag_169\n      jumpi\n        /* \"#utility.yul\":6857:6858   */\n      dup1\n        /* \"#utility.yul\":6852:6855   */\n      dup3\n        /* \"#utility.yul\":6848:6859   */\n      add\n        /* \"#utility.yul\":6842:6860   */\n      mload\n        /* \"#utility.yul\":6838:6839   */\n      dup2\n        /* \"#utility.yul\":6833:6836   */\n      dup5\n        /* \"#utility.yul\":6829:6840   */\n      add\n        /* \"#utility.yul\":6822:6861   */\n      mstore\n        /* \"#utility.yul\":6794:6796   */\n      0x20\n        /* \"#utility.yul\":6791:6792   */\n      dup2\n        /* \"#utility.yul\":6787:6797   */\n      add\n        /* \"#utility.yul\":6782:6797   */\n      swap1\n      pop\n        /* \"#utility.yul\":6758:6871   */\n      jump(tag_167)\n    tag_169:\n        /* \"#utility.yul\":6889:6895   */\n      dup4\n        /* \"#utility.yul\":6886:6887   */\n      dup2\n        /* \"#utility.yul\":6883:6896   */\n      gt\n        /* \"#utility.yul\":6880:6981   */\n      iszero\n      tag_170\n      jumpi\n        /* \"#utility.yul\":6969:6970   */\n      0x00\n        /* \"#utility.yul\":6960:6966   */\n      dup5\n        /* \"#utility.yul\":6955:6958   */\n      dup5\n        /* \"#utility.yul\":6951:6967   */\n      add\n        /* \"#utility.yul\":6944:6971   */\n      mstore\n        /* \"#utility.yul\":6880:6981   */\n    tag_170:\n        /* \"#utility.yul\":6729:6987   */\n      pop\n        /* \"#utility.yul\":6680:6987   */\n      pop\n      pop\n      pop\n      jump\t// out\n        /* \"#utility.yul\":6993:7313   */\n    tag_39:\n        /* \"#utility.yul\":7037:7043   */\n      0x00\n        /* \"#utility.yul\":7074:7075   */\n      0x02\n        /* \"#utility.yul\":7068:7072   */\n      dup3\n        /* \"#utility.yul\":7064:7076   */\n      div\n        /* \"#utility.yul\":7054:7076   */\n      swap1\n      pop\n        /* \"#utility.yul\":7121:7122   */\n      0x01\n        /* \"#utility.yul\":7115:7119   */\n      dup3\n        /* \"#utility.yul\":7111:7123   */\n      and\n        /* \"#utility.yul\":7142:7160   */\n      dup1\n        /* \"#utility.yul\":7132:7213   */\n      tag_172\n      jumpi\n        /* \"#utility.yul\":7198:7202   */\n      0x7f\n        /* \"#utility.yul\":7190:7196   */\n      dup3\n        /* \"#utility.yul\":7186:7203   */\n      and\n        /* \"#utility.yul\":7176:7203   */\n      swap2\n      pop\n        /* \"#utility.yul\":7132:7213   */\n    tag_172:\n        /* \"#utility.yul\":7260:7262   */\n      0x20\n        /* \"#utility.yul\":7252:7258   */\n      dup3\n        /* \"#utility.yul\":7249:7263   */\n      lt\n        /* \"#utility.yul\":7229:7247   */\n      dup2\n        /* \"#utility.yul\":7226:7264   */\n      eq\n        /* \"#utility.yul\":7223:7307   */\n      iszero\n      tag_173\n      jumpi\n        /* \"#utility.yul\":7279:7297   */\n      tag_174\n      tag_175\n      jump\t// in\n    tag_174:\n        /* \"#utility.yul\":7223:7307   */\n    tag_173:\n        /* \"#utility.yul\":7044:7313   */\n      pop\n        /* \"#utility.yul\":6993:7313   */\n      swap2\n      swap1\n      pop\n      jump\t// out\n        /* \"#utility.yul\":7319:7600   */\n    tag_144:\n        /* \"#utility.yul\":7402:7429   */\n      tag_177\n        /* \"#utility.yul\":7424:7428   */\n      dup3\n        /* \"#utility.yul\":7402:7429   */\n      tag_122\n      jump\t// in\n    tag_177:\n        /* \"#utility.yul\":7394:7400   */\n      dup2\n        /* \"#utility.yul\":7390:7430   */\n      add\n        /* \"#utility.yul\":7532:7538   */\n      dup2\n        /* \"#utility.yul\":7520:7530   */\n      dup2\n        /* \"#utility.yul\":7517:7539   */\n      lt\n        /* \"#utility.yul\":7496:7514   */\n      0xffffffffffffffff\n        /* \"#utility.yul\":7484:7494   */\n      dup3\n        /* \"#utility.yul\":7481:7515   */\n      gt\n        /* \"#utility.yul\":7478:7540   */\n      or\n        /* \"#utility.yul\":7475:7563   */\n      iszero\n      tag_178\n      jumpi\n        /* \"#utility.yul\":7543:7561   */\n      tag_179\n      tag_149\n      jump\t// in\n    tag_179:\n        /* \"#utility.yul\":7475:7563   */\n    tag_178:\n        /* \"#utility.yul\":7583:7593   */\n      dup1\n        /* \"#utility.yul\":7579:7581   */\n      0x40\n        /* \"#utility.yul\":7572:7594   */\n      mstore\n        /* \"#utility.yul\":7362:7600   */\n      pop\n        /* \"#utility.yul\":7319:7600   */\n      pop\n      pop\n      jump\t// out\n        /* \"#utility.yul\":7606:7786   */\n    tag_25:\n        /* \"#utility.yul\":7654:7731   */\n      0x4e487b7100000000000000000000000000000000000000000000000000000000\n        /* \"#utility.yul\":7651:7652   */\n      0x00\n        /* \"#utility.yul\":7644:7732   */\n      mstore\n        /* \"#utility.yul\":7751:7755   */\n      0x21\n        /* \"#utility.yul\":7748:7749   */\n      0x04\n        /* \"#utility.yul\":7741:7756   */\n      mstore\n        /* \"#utility.yul\":7775:7779   */\n      0x24\n        /* \"#utility.yul\":7772:7773   */\n      0x00\n        /* \"#utility.yul\":7765:7780   */\n      revert\n        /* \"#utility.yul\":7792:7972   */\n    tag_175:\n        /* \"#utility.yul\":7840:7917   */\n      0x4e487b7100000000000000000000000000000000000000000000000000000000\n        /* \"#utility.yul\":7837:7838   */\n      0x00\n        /* \"#utility.yul\":7830:7918   */\n      mstore\n        /* \"#utility.yul\":7937:7941   */\n      0x22\n        /* \"#utility.yul\":7934:7935   */\n      0x04\n        /* \"#utility.yul\":7927:7942   */\n      mstore\n        /* \"#utility.yul\":7961:7965   */\n      0x24\n        /* \"#utility.yul\":7958:7959   */\n      0x00\n        /* \"#utility.yul\":7951:7966   */\n      revert\n        /* \"#utility.yul\":7978:8158   */\n    tag_149:\n        /* \"#utility.yul\":8026:8103   */\n      0x4e487b7100000000000000000000000000000000000000000000000000000000\n        /* \"#utility.yul\":8023:8024   */\n      0x00\n        /* \"#utility.yul\":8016:8104   */\n      mstore\n        /* \"#utility.yul\":8123:8127   */\n      0x41\n        /* \"#utility.yul\":8120:8121   */\n      0x04\n        /* \"#utility.yul\":8113:8128   */\n      mstore\n        /* \"#utility.yul\":8147:8151   */\n      0x24\n        /* \"#utility.yul\":8144:8145   */\n      0x00\n        /* \"#utility.yul\":8137:8152   */\n      revert\n        /* \"#utility.yul\":8164:8281   */\n    tag_82:\n        /* \"#utility.yul\":8273:8274   */\n      0x00\n        /* \"#utility.yul\":8270:8271   */\n      dup1\n        /* \"#utility.yul\":8263:8275   */\n      revert\n        /* \"#utility.yul\":8287:8404   */\n    tag_75:\n        /* \"#utility.yul\":8396:8397   */\n      0x00\n        /* \"#utility.yul\":8393:8394   */\n      dup1\n        /* \"#utility.yul\":8386:8398   */\n      revert\n        /* \"#utility.yul\":8410:8527   */\n    tag_90:\n        /* \"#utility.yul\":8519:8520   */\n      0x00\n        /* \"#utility.yul\":8516:8517   */\n      dup1\n        /* \"#utility.yul\":8509:8521   */\n      revert\n        /* \"#utility.yul\":8533:8650   */\n    tag_87:\n        /* \"#utility.yul\":8642:8643   */\n      0x00\n        /* \"#utility.yul\":8639:8640   */\n      dup1\n        /* \"#utility.yul\":8632:8644   */\n      revert\n        /* \"#utility.yul\":8656:8758   */\n    tag_122:\n        /* \"#utility.yul\":8697:8703   */\n      0x00\n        /* \"#utility.yul\":8748:8750   */\n      0x1f\n        /* \"#utility.yul\":8744:8751   */\n      not\n        /* \"#utility.yul\":8739:8741   */\n      0x1f\n        /* \"#utility.yul\":8732:8737   */\n      dup4\n        /* \"#utility.yul\":8728:8742   */\n      add\n        /* \"#utility.yul\":8724:8752   */\n      and\n        /* \"#utility.yul\":8714:8752   */\n      swap1\n      pop\n        /* \"#utility.yul\":8656:8758   */\n      swap2\n      swap1\n      pop\n      jump\t// out\n        /* \"#utility.yul\":8764:8880   */\n    tag_161:\n        /* \"#utility.yul\":8848:8849   */\n      0x03\n        /* \"#utility.yul\":8841:8846   */\n      dup2\n        /* \"#utility.yul\":8838:8850   */\n      lt\n        /* \"#utility.yul\":8828:8874   */\n      tag_189\n      jumpi\n        /* \"#utility.yul\":8854:8872   */\n      tag_190\n      tag_25\n      jump\t// in\n    tag_190:\n        /* \"#utility.yul\":8828:8874   */\n    tag_189:\n        /* \"#utility.yul\":8764:8880   */\n      pop\n      jump\t// out\n\n    auxdata: 0xa26469706673582212202565c012c9d51c973f657beac155cc8bf84a39ba2726af3e9d9082813dac6dab64736f6c63430008070033\n}\n",
				"bytecode": {
					"linkReferences": {},
					"object": "608060405234801561001057600080fd5b506109e3806100206000396000f3fe608060405234801561001057600080fd5b50600436106100415760003560e01c80639581a3ca14610046578063cdf7e73d14610076578063e3ac2a27146100a6575b600080fd5b610060600480360381019061005b91906105af565b6100d6565b60405161006d9190610725565b60405180910390f35b610090600480360381019061008b9190610566565b610217565b60405161009d9190610740565b60405180910390f35b6100c060048036038101906100bb9190610566565b610372565b6040516100cd9190610725565b60405180910390f35b600060405180606001604052808381526020013373ffffffffffffffffffffffffffffffffffffffff16815260200160006002811115610119576101186108e7565b5b81525060028460405161012c919061070e565b9081526020016040518091039020600082015181600001908051906020019061015692919061040a565b5060208201518160010160006101000a81548173ffffffffffffffffffffffffffffffffffffffff021916908373ffffffffffffffffffffffffffffffffffffffff16021790555060408201518160010160146101000a81548160ff021916908360028111156101c9576101c86108e7565b5b021790555090505060038390806001815401808255809150506001900390600052602060002001600090919091909150908051906020019061020c92919061040a565b506001905092915050565b61021f610490565b60028260405161022f919061070e565b908152602001604051809103902060405180606001604052908160008201805461025890610884565b80601f016020809104026020016040519081016040528092919081815260200182805461028490610884565b80156102d15780601f106102a6576101008083540402835291602001916102d1565b820191906000526020600020905b8154815290600101906020018083116102b457829003601f168201915b505050505081526020016001820160009054906101000a900473ffffffffffffffffffffffffffffffffffffffff1673ffffffffffffffffffffffffffffffffffffffff1673ffffffffffffffffffffffffffffffffffffffff1681526020016001820160149054906101000a900460ff166002811115610355576103546108e7565b5b6002811115610367576103666108e7565b5b815250509050919050565b60003373ffffffffffffffffffffffffffffffffffffffff1661039483610217565b6020015173ffffffffffffffffffffffffffffffffffffffff16146103b857600080fd5b600280836040516103c9919061070e565b908152602001604051809103902060010160146101000a81548160ff021916908360028111156103fc576103fb6108e7565b5b021790555060019050919050565b82805461041690610884565b90600052602060002090601f016020900481019282610438576000855561047f565b82601f1061045157805160ff191683800117855561047f565b8280016001018555821561047f579182015b8281111561047e578251825591602001919060010190610463565b5b50905061048c91906104d9565b5090565b604051806060016040528060608152602001600073ffffffffffffffffffffffffffffffffffffffff168152602001600060028111156104d3576104d26108e7565b5b81525090565b5b808211156104f25760008160009055506001016104da565b5090565b600061050961050484610787565b610762565b90508281526020810184848401111561052557610524610979565b5b610530848285610842565b509392505050565b600082601f83011261054d5761054c610974565b5b813561055d8482602086016104f6565b91505092915050565b60006020828403121561057c5761057b610983565b5b600082013567ffffffffffffffff81111561059a5761059961097e565b5b6105a684828501610538565b91505092915050565b600080604083850312156105c6576105c5610983565b5b600083013567ffffffffffffffff8111156105e4576105e361097e565b5b6105f085828601610538565b925050602083013567ffffffffffffffff8111156106115761061061097e565b5b61061d85828601610538565b9150509250929050565b610630816107df565b82525050565b61063f816107f1565b82525050565b61064e81610830565b82525050565b600061065f826107b8565b61066981856107c3565b9350610679818560208601610851565b61068281610988565b840191505092915050565b6000610698826107b8565b6106a281856107d4565b93506106b2818560208601610851565b80840191505092915050565b600060608301600083015184820360008601526106db8282610654565b91505060208301516106f06020860182610627565b5060408301516107036040860182610645565b508091505092915050565b600061071a828461068d565b915081905092915050565b600060208201905061073a6000830184610636565b92915050565b6000602082019050818103600083015261075a81846106be565b905092915050565b600061076c61077d565b905061077882826108b6565b919050565b6000604051905090565b600067ffffffffffffffff8211156107a2576107a1610945565b5b6107ab82610988565b9050602081019050919050565b600081519050919050565b600082825260208201905092915050565b600081905092915050565b60006107ea82610810565b9050919050565b60008115159050919050565b600081905061080b82610999565b919050565b600073ffffffffffffffffffffffffffffffffffffffff82169050919050565b600061083b826107fd565b9050919050565b82818337600083830152505050565b60005b8381101561086f578082015181840152602081019050610854565b8381111561087e576000848401525b50505050565b6000600282049050600182168061089c57607f821691505b602082108114156108b0576108af610916565b5b50919050565b6108bf82610988565b810181811067ffffffffffffffff821117156108de576108dd610945565b5b80604052505050565b7f4e487b7100000000000000000000000000000000000000000000000000000000600052602160045260246000fd5b7f4e487b7100000000000000000000000000000000000000000000000000000000600052602260045260246000fd5b7f4e487b7100000000000000000000000000000000000000000000000000000000600052604160045260246000fd5b600080fd5b600080fd5b600080fd5b600080fd5b6000601f19601f8301169050919050565b600381106109aa576109a96108e7565b5b5056fea26469706673582212202565c012c9d51c973f657beac155cc8bf84a39ba2726af3e9d9082813dac6dab64736f6c63430008070033",
					"opcodes": "PUSH1 0x80 PUSH1 0x40 MSTORE CALLVALUE DUP1 ISZERO PUSH2 0x10 JUMPI PUSH1 0x0 DUP1 REVERT JUMPDEST POP PUSH2 0x9E3 DUP1 PUSH2 0x20 PUSH1 0x0 CODECOPY PUSH1 0x0 RETURN INVALID PUSH1 0x80 PUSH1 0x40 MSTORE CALLVALUE DUP1 ISZERO PUSH2 0x10 JUMPI PUSH1 0x0 DUP1 REVERT JUMPDEST POP PUSH1 0x4 CALLDATASIZE LT PUSH2 0x41 JUMPI PUSH1 0x0 CALLDATALOAD PUSH1 0xE0 SHR DUP1 PUSH4 0x9581A3CA EQ PUSH2 0x46 JUMPI DUP1 PUSH4 0xCDF7E73D EQ PUSH2 0x76 JUMPI DUP1 PUSH4 0xE3AC2A27 EQ PUSH2 0xA6 JUMPI JUMPDEST PUSH1 0x0 DUP1 REVERT JUMPDEST PUSH2 0x60 PUSH1 0x4 DUP1 CALLDATASIZE SUB DUP2 ADD SWAP1 PUSH2 0x5B SWAP2 SWAP1 PUSH2 0x5AF JUMP JUMPDEST PUSH2 0xD6 JUMP JUMPDEST PUSH1 0x40 MLOAD PUSH2 0x6D SWAP2 SWAP1 PUSH2 0x725 JUMP JUMPDEST PUSH1 0x40 MLOAD DUP1 SWAP2 SUB SWAP1 RETURN JUMPDEST PUSH2 0x90 PUSH1 0x4 DUP1 CALLDATASIZE SUB DUP2 ADD SWAP1 PUSH2 0x8B SWAP2 SWAP1 PUSH2 0x566 JUMP JUMPDEST PUSH2 0x217 JUMP JUMPDEST PUSH1 0x40 MLOAD PUSH2 0x9D SWAP2 SWAP1 PUSH2 0x740 JUMP JUMPDEST PUSH1 0x40 MLOAD DUP1 SWAP2 SUB SWAP1 RETURN JUMPDEST PUSH2 0xC0 PUSH1 0x4 DUP1 CALLDATASIZE SUB DUP2 ADD SWAP1 PUSH2 0xBB SWAP2 SWAP1 PUSH2 0x566 JUMP JUMPDEST PUSH2 0x372 JUMP JUMPDEST PUSH1 0x40 MLOAD PUSH2 0xCD SWAP2 SWAP1 PUSH2 0x725 JUMP JUMPDEST PUSH1 0x40 MLOAD DUP1 SWAP2 SUB SWAP1 RETURN JUMPDEST PUSH1 0x0 PUSH1 0x40 MLOAD DUP1 PUSH1 0x60 ADD PUSH1 0x40 MSTORE DUP1 DUP4 DUP2 MSTORE PUSH1 0x20 ADD CALLER PUSH20 0xFFFFFFFFFFFFFFFFFFFFFFFFFFFFFFFFFFFFFFFF AND DUP2 MSTORE PUSH1 0x20 ADD PUSH1 0x0 PUSH1 0x2 DUP2 GT ISZERO PUSH2 0x119 JUMPI PUSH2 0x118 PUSH2 0x8E7 JUMP JUMPDEST JUMPDEST DUP2 MSTORE POP PUSH1 0x2 DUP5 PUSH1 0x40 MLOAD PUSH2 0x12C SWAP2 SWAP1 PUSH2 0x70E JUMP JUMPDEST SWAP1 DUP2 MSTORE PUSH1 0x20 ADD PUSH1 0x40 MLOAD DUP1 SWAP2 SUB SWAP1 KECCAK256 PUSH1 0x0 DUP3 ADD MLOAD DUP2 PUSH1 0x0 ADD SWAP1 DUP1 MLOAD SWAP1 PUSH1 0x20 ADD SWAP1 PUSH2 0x156 SWAP3 SWAP2 SWAP1 PUSH2 0x40A JUMP JUMPDEST POP PUSH1 0x20 DUP3 ADD MLOAD DUP2 PUSH1 0x1 ADD PUSH1 0x0 PUSH2 0x100 EXP DUP2 SLOAD DUP2 PUSH20 0xFFFFFFFFFFFFFFFFFFFFFFFFFFFFFFFFFFFFFFFF MUL NOT AND SWAP1 DUP4 PUSH20 0xFFFFFFFFFFFFFFFFFFFFFFFFFFFFFFFFFFFFFFFF AND MUL OR SWAP1 SSTORE POP PUSH1 0x40 DUP3 ADD MLOAD DUP2 PUSH1 0x1 ADD PUSH1 0x14 PUSH2 0x100 EXP DUP2 SLOAD DUP2 PUSH1 0xFF MUL NOT AND SWAP1 DUP4 PUSH1 0x2 DUP2 GT ISZERO PUSH2 0x1C9 JUMPI PUSH2 0x1C8 PUSH2 0x8E7 JUMP JUMPDEST JUMPDEST MUL OR SWAP1 SSTORE POP SWAP1 POP POP PUSH1 0x3 DUP4 SWAP1 DUP1 PUSH1 0x1 DUP2 SLOAD ADD DUP1 DUP3 SSTORE DUP1 SWAP2 POP POP PUSH1 0x1 SWAP1 SUB SWAP1 PUSH1 0x0 MSTORE PUSH1 0x20 PUSH1 0x0 KECCAK256 ADD PUSH1 0x0 SWAP1 SWAP2 SWAP1 SWAP2 SWAP1 SWAP2 POP SWAP1 DUP1 MLOAD SWAP1 PUSH1 0x20 ADD SWAP1 PUSH2 0x20C SWAP3 SWAP2 SWAP1 PUSH2 0x40A JUMP JUMPDEST POP PUSH1 0x1 SWAP1 POP SWAP3 SWAP2 POP POP JUMP JUMPDEST PUSH2 0x21F PUSH2 0x490 JUMP JUMPDEST PUSH1 0x2 DUP3 PUSH1 0x40 MLOAD PUSH2 0x22F SWAP2 SWAP1 PUSH2 0x70E JUMP JUMPDEST SWAP1 DUP2 MSTORE PUSH1 0x20 ADD PUSH1 0x40 MLOAD DUP1 SWAP2 SUB SWAP1 KECCAK256 PUSH1 0x40 MLOAD DUP1 PUSH1 0x60 ADD PUSH1 0x40 MSTORE SWAP1 DUP2 PUSH1 0x0 DUP3 ADD DUP1 SLOAD PUSH2 0x258 SWAP1 PUSH2 0x884 JUMP JUMPDEST DUP1 PUSH1 0x1F ADD PUSH1 0x20 DUP1 SWAP2 DIV MUL PUSH1 0x20 ADD PUSH1 0x40 MLOAD SWAP1 DUP2 ADD PUSH1 0x40 MSTORE DUP1 SWAP3 SWAP2 SWAP1 DUP2 DUP2 MSTORE PUSH1 0x20 ADD DUP3 DUP1 SLOAD PUSH2 0x284 SWAP1 PUSH2 0x884 JUMP JUMPDEST DUP1 ISZERO PUSH2 0x2D1 JUMPI DUP1 PUSH1 0x1F LT PUSH2 0x2A6 JUMPI PUSH2 0x100 DUP1 DUP4 SLOAD DIV MUL DUP4 MSTORE SWAP2 PUSH1 0x20 ADD SWAP2 PUSH2 0x2D1 JUMP JUMPDEST DUP3 ADD SWAP2 SWAP1 PUSH1 0x0 MSTORE PUSH1 0x20 PUSH1 0x0 KECCAK256 SWAP1 JUMPDEST DUP2 SLOAD DUP2 MSTORE SWAP1 PUSH1 0x1 ADD SWAP1 PUSH1 0x20 ADD DUP1 DUP4 GT PUSH2 0x2B4 JUMPI DUP3 SWAP1 SUB PUSH1 0x1F AND DUP3 ADD SWAP2 JUMPDEST POP POP POP POP POP DUP2 MSTORE PUSH1 0x20 ADD PUSH1 0x1 DUP3 ADD PUSH1 0x0 SWAP1 SLOAD SWAP1 PUSH2 0x100 EXP SWAP1 DIV PUSH20 0xFFFFFFFFFFFFFFFFFFFFFFFFFFFFFFFFFFFFFFFF AND PUSH20 0xFFFFFFFFFFFFFFFFFFFFFFFFFFFFFFFFFFFFFFFF AND PUSH20 0xFFFFFFFFFFFFFFFFFFFFFFFFFFFFFFFFFFFFFFFF AND DUP2 MSTORE PUSH1 0x20 ADD PUSH1 0x1 DUP3 ADD PUSH1 0x14 SWAP1 SLOAD SWAP1 PUSH2 0x100 EXP SWAP1 DIV PUSH1 0xFF AND PUSH1 0x2 DUP2 GT ISZERO PUSH2 0x355 JUMPI PUSH2 0x354 PUSH2 0x8E7 JUMP JUMPDEST JUMPDEST PUSH1 0x2 DUP2 GT ISZERO PUSH2 0x367 JUMPI PUSH2 0x366 PUSH2 0x8E7 JUMP JUMPDEST JUMPDEST DUP2 MSTORE POP POP SWAP1 POP SWAP2 SWAP1 POP JUMP JUMPDEST PUSH1 0x0 CALLER PUSH20 0xFFFFFFFFFFFFFFFFFFFFFFFFFFFFFFFFFFFFFFFF AND PUSH2 0x394 DUP4 PUSH2 0x217 JUMP JUMPDEST PUSH1 0x20 ADD MLOAD PUSH20 0xFFFFFFFFFFFFFFFFFFFFFFFFFFFFFFFFFFFFFFFF AND EQ PUSH2 0x3B8 JUMPI PUSH1 0x0 DUP1 REVERT JUMPDEST PUSH1 0x2 DUP1 DUP4 PUSH1 0x40 MLOAD PUSH2 0x3C9 SWAP2 SWAP1 PUSH2 0x70E JUMP JUMPDEST SWAP1 DUP2 MSTORE PUSH1 0x20 ADD PUSH1 0x40 MLOAD DUP1 SWAP2 SUB SWAP1 KECCAK256 PUSH1 0x1 ADD PUSH1 0x14 PUSH2 0x100 EXP DUP2 SLOAD DUP2 PUSH1 0xFF MUL NOT AND SWAP1 DUP4 PUSH1 0x2 DUP2 GT ISZERO PUSH2 0x3FC JUMPI PUSH2 0x3FB PUSH2 0x8E7 JUMP JUMPDEST JUMPDEST MUL OR SWAP1 SSTORE POP PUSH1 0x1 SWAP1 POP SWAP2 SWAP1 POP JUMP JUMPDEST DUP3 DUP1 SLOAD PUSH2 0x416 SWAP1 PUSH2 0x884 JUMP JUMPDEST SWAP1 PUSH1 0x0 MSTORE PUSH1 0x20 PUSH1 0x0 KECCAK256 SWAP1 PUSH1 0x1F ADD PUSH1 0x20 SWAP1 DIV DUP2 ADD SWAP3 DUP3 PUSH2 0x438 JUMPI PUSH1 0x0 DUP6 SSTORE PUSH2 0x47F JUMP JUMPDEST DUP3 PUSH1 0x1F LT PUSH2 0x451 JUMPI DUP1 MLOAD PUSH1 0xFF NOT AND DUP4 DUP1 ADD OR DUP6 SSTORE PUSH2 0x47F JUMP JUMPDEST DUP3 DUP1 ADD PUSH1 0x1 ADD DUP6 SSTORE DUP3 ISZERO PUSH2 0x47F JUMPI SWAP2 DUP3 ADD JUMPDEST DUP3 DUP2 GT ISZERO PUSH2 0x47E JUMPI DUP3 MLOAD DUP3 SSTORE SWAP2 PUSH1 0x20 ADD SWAP2 SWAP1 PUSH1 0x1 ADD SWAP1 PUSH2 0x463 JUMP JUMPDEST JUMPDEST POP SWAP1 POP PUSH2 0x48C SWAP2 SWAP1 PUSH2 0x4D9 JUMP JUMPDEST POP SWAP1 JUMP JUMPDEST PUSH1 0x40 MLOAD DUP1 PUSH1 0x60 ADD PUSH1 0x40 MSTORE DUP1 PUSH1 0x60 DUP2 MSTORE PUSH1 0x20 ADD PUSH1 0x0 PUSH20 0xFFFFFFFFFFFFFFFFFFFFFFFFFFFFFFFFFFFFFFFF AND DUP2 MSTORE PUSH1 0x20 ADD PUSH1 0x0 PUSH1 0x2 DUP2 GT ISZERO PUSH2 0x4D3 JUMPI PUSH2 0x4D2 PUSH2 0x8E7 JUMP JUMPDEST JUMPDEST DUP2 MSTORE POP SWAP1 JUMP JUMPDEST JUMPDEST DUP1 DUP3 GT ISZERO PUSH2 0x4F2 JUMPI PUSH1 0x0 DUP2 PUSH1 0x0 SWAP1 SSTORE POP PUSH1 0x1 ADD PUSH2 0x4DA JUMP JUMPDEST POP SWAP1 JUMP JUMPDEST PUSH1 0x0 PUSH2 0x509 PUSH2 0x504 DUP5 PUSH2 0x787 JUMP JUMPDEST PUSH2 0x762 JUMP JUMPDEST SWAP1 POP DUP3 DUP2 MSTORE PUSH1 0x20 DUP2 ADD DUP5 DUP5 DUP5 ADD GT ISZERO PUSH2 0x525 JUMPI PUSH2 0x524 PUSH2 0x979 JUMP JUMPDEST JUMPDEST PUSH2 0x530 DUP5 DUP3 DUP6 PUSH2 0x842 JUMP JUMPDEST POP SWAP4 SWAP3 POP POP POP JUMP JUMPDEST PUSH1 0x0 DUP3 PUSH1 0x1F DUP4 ADD SLT PUSH2 0x54D JUMPI PUSH2 0x54C PUSH2 0x974 JUMP JUMPDEST JUMPDEST DUP2 CALLDATALOAD PUSH2 0x55D DUP5 DUP3 PUSH1 0x20 DUP7 ADD PUSH2 0x4F6 JUMP JUMPDEST SWAP2 POP POP SWAP3 SWAP2 POP POP JUMP JUMPDEST PUSH1 0x0 PUSH1 0x20 DUP3 DUP5 SUB SLT ISZERO PUSH2 0x57C JUMPI PUSH2 0x57B PUSH2 0x983 JUMP JUMPDEST JUMPDEST PUSH1 0x0 DUP3 ADD CALLDATALOAD PUSH8 0xFFFFFFFFFFFFFFFF DUP2 GT ISZERO PUSH2 0x59A JUMPI PUSH2 0x599 PUSH2 0x97E JUMP JUMPDEST JUMPDEST PUSH2 0x5A6 DUP5 DUP3 DUP6 ADD PUSH2 0x538 JUMP JUMPDEST SWAP2 POP POP SWAP3 SWAP2 POP POP JUMP JUMPDEST PUSH1 0x0 DUP1 PUSH1 0x40 DUP4 DUP6 SUB SLT ISZERO PUSH2 0x5C6 JUMPI PUSH2 0x5C5 PUSH2 0x983 JUMP JUMPDEST JUMPDEST PUSH1 0x0 DUP4 ADD CALLDATALOAD PUSH8 0xFFFFFFFFFFFFFFFF DUP2 GT ISZERO PUSH2 0x5E4 JUMPI PUSH2 0x5E3 PUSH2 0x97E JUMP JUMPDEST JUMPDEST PUSH2 0x5F0 DUP6 DUP3 DUP7 ADD PUSH2 0x538 JUMP JUMPDEST SWAP3 POP POP PUSH1 0x20 DUP4 ADD CALLDATALOAD PUSH8 0xFFFFFFFFFFFFFFFF DUP2 GT ISZERO PUSH2 0x611 JUMPI PUSH2 0x610 PUSH2 0x97E JUMP JUMPDEST JUMPDEST PUSH2 0x61D DUP6 DUP3 DUP7 ADD PUSH2 0x538 JUMP JUMPDEST SWAP2 POP POP SWAP3 POP SWAP3 SWAP1 POP JUMP JUMPDEST PUSH2 0x630 DUP2 PUSH2 0x7DF JUMP JUMPDEST DUP3 MSTORE POP POP JUMP JUMPDEST PUSH2 0x63F DUP2 PUSH2 0x7F1 JUMP JUMPDEST DUP3 MSTORE POP POP JUMP JUMPDEST PUSH2 0x64E DUP2 PUSH2 0x830 JUMP JUMPDEST DUP3 MSTORE POP POP JUMP JUMPDEST PUSH1 0x0 PUSH2 0x65F DUP3 PUSH2 0x7B8 JUMP JUMPDEST PUSH2 0x669 DUP2 DUP6 PUSH2 0x7C3 JUMP JUMPDEST SWAP4 POP PUSH2 0x679 DUP2 DUP6 PUSH1 0x20 DUP7 ADD PUSH2 0x851 JUMP JUMPDEST PUSH2 0x682 DUP2 PUSH2 0x988 JUMP JUMPDEST DUP5 ADD SWAP2 POP POP SWAP3 SWAP2 POP POP JUMP JUMPDEST PUSH1 0x0 PUSH2 0x698 DUP3 PUSH2 0x7B8 JUMP JUMPDEST PUSH2 0x6A2 DUP2 DUP6 PUSH2 0x7D4 JUMP JUMPDEST SWAP4 POP PUSH2 0x6B2 DUP2 DUP6 PUSH1 0x20 DUP7 ADD PUSH2 0x851 JUMP JUMPDEST DUP1 DUP5 ADD SWAP2 POP POP SWAP3 SWAP2 POP POP JUMP JUMPDEST PUSH1 0x0 PUSH1 0x60 DUP4 ADD PUSH1 0x0 DUP4 ADD MLOAD DUP5 DUP3 SUB PUSH1 0x0 DUP7 ADD MSTORE PUSH2 0x6DB DUP3 DUP3 PUSH2 0x654 JUMP JUMPDEST SWAP2 POP POP PUSH1 0x20 DUP4 ADD MLOAD PUSH2 0x6F0 PUSH1 0x20 DUP7 ADD DUP3 PUSH2 0x627 JUMP JUMPDEST POP PUSH1 0x40 DUP4 ADD MLOAD PUSH2 0x703 PUSH1 0x40 DUP7 ADD DUP3 PUSH2 0x645 JUMP JUMPDEST POP DUP1 SWAP2 POP POP SWAP3 SWAP2 POP POP JUMP JUMPDEST PUSH1 0x0 PUSH2 0x71A DUP3 DUP5 PUSH2 0x68D JUMP JUMPDEST SWAP2 POP DUP2 SWAP1 POP SWAP3 SWAP2 POP POP JUMP JUMPDEST PUSH1 0x0 PUSH1 0x20 DUP3 ADD SWAP1 POP PUSH2 0x73A PUSH1 0x0 DUP4 ADD DUP5 PUSH2 0x636 JUMP JUMPDEST SWAP3 SWAP2 POP POP JUMP JUMPDEST PUSH1 0x0 PUSH1 0x20 DUP3 ADD SWAP1 POP DUP2 DUP2 SUB PUSH1 0x0 DUP4 ADD MSTORE PUSH2 0x75A DUP2 DUP5 PUSH2 0x6BE JUMP JUMPDEST SWAP1 POP SWAP3 SWAP2 POP POP JUMP JUMPDEST PUSH1 0x0 PUSH2 0x76C PUSH2 0x77D JUMP JUMPDEST SWAP1 POP PUSH2 0x778 DUP3 DUP3 PUSH2 0x8B6 JUMP JUMPDEST SWAP2 SWAP1 POP JUMP JUMPDEST PUSH1 0x0 PUSH1 0x40 MLOAD SWAP1 POP SWAP1 JUMP JUMPDEST PUSH1 0x0 PUSH8 0xFFFFFFFFFFFFFFFF DUP3 GT ISZERO PUSH2 0x7A2 JUMPI PUSH2 0x7A1 PUSH2 0x945 JUMP JUMPDEST JUMPDEST PUSH2 0x7AB DUP3 PUSH2 0x988 JUMP JUMPDEST SWAP1 POP PUSH1 0x20 DUP2 ADD SWAP1 POP SWAP2 SWAP1 POP JUMP JUMPDEST PUSH1 0x0 DUP2 MLOAD SWAP1 POP SWAP2 SWAP1 POP JUMP JUMPDEST PUSH1 0x0 DUP3 DUP3 MSTORE PUSH1 0x20 DUP3 ADD SWAP1 POP SWAP3 SWAP2 POP POP JUMP JUMPDEST PUSH1 0x0 DUP2 SWAP1 POP SWAP3 SWAP2 POP POP JUMP JUMPDEST PUSH1 0x0 PUSH2 0x7EA DUP3 PUSH2 0x810 JUMP JUMPDEST SWAP1 POP SWAP2 SWAP1 POP JUMP JUMPDEST PUSH1 0x0 DUP2 ISZERO ISZERO SWAP1 POP SWAP2 SWAP1 POP JUMP JUMPDEST PUSH1 0x0 DUP2 SWAP1 POP PUSH2 0x80B DUP3 PUSH2 0x999 JUMP JUMPDEST SWAP2 SWAP1 POP JUMP JUMPDEST PUSH1 0x0 PUSH20 0xFFFFFFFFFFFFFFFFFFFFFFFFFFFFFFFFFFFFFFFF DUP3 AND SWAP1 POP SWAP2 SWAP1 POP JUMP JUMPDEST PUSH1 0x0 PUSH2 0x83B DUP3 PUSH2 0x7FD JUMP JUMPDEST SWAP1 POP SWAP2 SWAP1 POP JUMP JUMPDEST DUP3 DUP2 DUP4 CALLDATACOPY PUSH1 0x0 DUP4 DUP4 ADD MSTORE POP POP POP JUMP JUMPDEST PUSH1 0x0 JUMPDEST DUP4 DUP2 LT ISZERO PUSH2 0x86F JUMPI DUP1 DUP3 ADD MLOAD DUP2 DUP5 ADD MSTORE PUSH1 0x20 DUP2 ADD SWAP1 POP PUSH2 0x854 JUMP JUMPDEST DUP4 DUP2 GT ISZERO PUSH2 0x87E JUMPI PUSH1 0x0 DUP5 DUP5 ADD MSTORE JUMPDEST POP POP POP POP JUMP JUMPDEST PUSH1 0x0 PUSH1 0x2 DUP3 DIV SWAP1 POP PUSH1 0x1 DUP3 AND DUP1 PUSH2 0x89C JUMPI PUSH1 0x7F DUP3 AND SWAP2 POP JUMPDEST PUSH1 0x20 DUP3 LT DUP2 EQ ISZERO PUSH2 0x8B0 JUMPI PUSH2 0x8AF PUSH2 0x916 JUMP JUMPDEST JUMPDEST POP SWAP2 SWAP1 POP JUMP JUMPDEST PUSH2 0x8BF DUP3 PUSH2 0x988 JUMP JUMPDEST DUP2 ADD DUP2 DUP2 LT PUSH8 0xFFFFFFFFFFFFFFFF DUP3 GT OR ISZERO PUSH2 0x8DE JUMPI PUSH2 0x8DD PUSH2 0x945 JUMP JUMPDEST JUMPDEST DUP1 PUSH1 0x40 MSTORE POP POP POP JUMP JUMPDEST PUSH32 0x4E487B7100000000000000000000000000000000000000000000000000000000 PUSH1 0x0 MSTORE PUSH1 0x21 PUSH1 0x4 MSTORE PUSH1 0x24 PUSH1 0x0 REVERT JUMPDEST PUSH32 0x4E487B7100000000000000000000000000000000000000000000000000000000 PUSH1 0x0 MSTORE PUSH1 0x22 PUSH1 0x4 MSTORE PUSH1 0x24 PUSH1 0x0 REVERT JUMPDEST PUSH32 0x4E487B7100000000000000000000000000000000000000000000000000000000 PUSH1 0x0 MSTORE PUSH1 0x41 PUSH1 0x4 MSTORE PUSH1 0x24 PUSH1 0x0 REVERT JUMPDEST PUSH1 0x0 DUP1 REVERT JUMPDEST PUSH1 0x0 DUP1 REVERT JUMPDEST PUSH1 0x0 DUP1 REVERT JUMPDEST PUSH1 0x0 DUP1 REVERT JUMPDEST PUSH1 0x0 PUSH1 0x1F NOT PUSH1 0x1F DUP4 ADD AND SWAP1 POP SWAP2 SWAP1 POP JUMP JUMPDEST PUSH1 0x3 DUP2 LT PUSH2 0x9AA JUMPI PUSH2 0x9A9 PUSH2 0x8E7 JUMP JUMPDEST JUMPDEST POP JUMP INVALID LOG2 PUSH5 0x6970667358 0x22 SLT KECCAK256 0x25 PUSH6 0xC012C9D51C97 EXTCODEHASH PUSH6 0x7BEAC155CC8B 0xF8 0x4A CODECOPY 0xBA 0x27 0x26 0xAF RETURNDATACOPY SWAP14 SWAP1 DUP3 DUP2 RETURNDATASIZE 0xAC PUSH14 0xAB64736F6C634300080700330000 "
				},
				"gasEstimates": {
					"creation": {
						"codeDepositCost": "506200",
						"executionCost": "543",
						"totalCost": "506743"
					},
					"external": {
						"CreateDrug(string,string)": "infinite",
						"ReadDrug(string)": "infinite",
						"SetDrugStatus(string)": "infinite"
					}
				},
				"methodIdentifiers": {
					"CreateDrug(string,string)": "9581a3ca",
					"ReadDrug(string)": "cdf7e73d",
					"SetDrugStatus(string)": "e3ac2a27"
				}
			},
			"storageLayout": {
				"storage": [
					{
						"astId": 117,
						"contract": "contracts/Drugs.sol:Drugs",
						"label": "UserIDsMapping",
						"offset": 0,
						"slot": "0",
						"type": "t_mapping(t_string_memory_ptr,t_struct(User)112_storage)"
					},
					{
						"astId": 120,
						"contract": "contracts/Drugs.sol:Drugs",
						"label": "UsersIDs",
						"offset": 0,
						"slot": "1",
						"type": "t_array(t_string_storage)dyn_storage"
					},
					{
						"astId": 141,
						"contract": "contracts/Drugs.sol:Drugs",
						"label": "DrugRegNoMapping",
						"offset": 0,
						"slot": "2",
						"type": "t_mapping(t_string_memory_ptr,t_struct(Drug)128_storage)"
					},
					{
						"astId": 144,
						"contract": "contracts/Drugs.sol:Drugs",
						"label": "DrugsRegNos",
						"offset": 0,
						"slot": "3",
						"type": "t_array(t_string_storage)dyn_storage"
					}
				],
				"types": {
					"t_address": {
						"encoding": "inplace",
						"label": "address",
						"numberOfBytes": "20"
					},
					"t_array(t_string_storage)dyn_storage": {
						"base": "t_string_storage",
						"encoding": "dynamic_array",
						"label": "string[]",
						"numberOfBytes": "32"
					},
					"t_enum(Statuses)89": {
						"encoding": "inplace",
						"label": "enum Utils.Statuses",
						"numberOfBytes": "1"
					},
					"t_enum(UserRoles)97": {
						"encoding": "inplace",
						"label": "enum Utils.UserRoles",
						"numberOfBytes": "1"
					},
					"t_mapping(t_string_memory_ptr,t_struct(Drug)128_storage)": {
						"encoding": "mapping",
						"key": "t_string_memory_ptr",
						"label": "mapping(string => struct Utils.Drug)",
						"numberOfBytes": "32",
						"value": "t_struct(Drug)128_storage"
					},
					"t_mapping(t_string_memory_ptr,t_struct(User)112_storage)": {
						"encoding": "mapping",
						"key": "t_string_memory_ptr",
						"label": "mapping(string => struct Utils.User)",
						"numberOfBytes": "32",
						"value": "t_struct(User)112_storage"
					},
					"t_string_memory_ptr": {
						"encoding": "bytes",
						"label": "string",
						"numberOfBytes": "32"
					},
					"t_string_storage": {
						"encoding": "bytes",
						"label": "string",
						"numberOfBytes": "32"
					},
					"t_struct(Drug)128_storage": {
						"encoding": "inplace",
						"label": "struct Utils.Drug",
						"members": [
							{
								"astId": 122,
								"contract": "contracts/Drugs.sol:Drugs",
								"label": "DrugName",
								"offset": 0,
								"slot": "0",
								"type": "t_string_storage"
							},
							{
								"astId": 124,
								"contract": "contracts/Drugs.sol:Drugs",
								"label": "Manufacturer",
								"offset": 0,
								"slot": "1",
								"type": "t_address"
							},
							{
								"astId": 127,
								"contract": "contracts/Drugs.sol:Drugs",
								"label": "DrugStatus",
								"offset": 20,
								"slot": "1",
								"type": "t_enum(Statuses)89"
							}
						],
						"numberOfBytes": "64"
					},
					"t_struct(User)112_storage": {
						"encoding": "inplace",
						"label": "struct Utils.User",
						"members": [
							{
								"astId": 99,
								"contract": "contracts/Drugs.sol:Drugs",
								"label": "UserName",
								"offset": 0,
								"slot": "0",
								"type": "t_string_storage"
							},
							{
								"astId": 102,
								"contract": "contracts/Drugs.sol:Drugs",
								"label": "UserRole",
								"offset": 0,
								"slot": "1",
								"type": "t_enum(UserRoles)97"
							},
							{
								"astId": 105,
								"contract": "contracts/Drugs.sol:Drugs",
								"label": "UserStatus",
								"offset": 1,
								"slot": "1",
								"type": "t_enum(Statuses)89"
							},
							{
								"astId": 107,
								"contract": "contracts/Drugs.sol:Drugs",
								"label": "Latitude",
								"offset": 0,
								"slot": "2",
								"type": "t_uint256"
							},
							{
								"astId": 109,
								"contract": "contracts/Drugs.sol:Drugs",
								"label": "Longitude",
								"offset": 0,
								"slot": "3",
								"type": "t_uint256"
							},
							{
								"astId": 111,
								"contract": "contracts/Drugs.sol:Drugs",
								"label": "UserAddress",
								"offset": 0,
								"slot": "4",
								"type": "t_address"
							}
						],
						"numberOfBytes": "160"
					},
					"t_uint256": {
						"encoding": "inplace",
						"label": "uint256",
						"numberOfBytes": "32"
					}
				}
			},
			"userdoc": {
				"kind": "user",
				"methods": {},
				"version": 1
			}
		}
	}
}