{
	"contracts/Utils.sol": {
		"Utils": {
			"abi": [
				{
					"inputs": [
						{
							"internalType": "string",
							"name": "_regno",
							"type": "string"
						}
					],
					"name": "ReadDrug",
					"outputs": [
						{
							"components": [
								{
									"internalType": "string",
									"name": "DrugName",
									"type": "string"
								},
								{
									"internalType": "address",
									"name": "Manufacturer",
									"type": "address"
								},
								{
									"internalType": "enum Utils.Statuses",
									"name": "DrugStatus",
									"type": "uint8"
								}
							],
							"internalType": "struct Utils.Drug",
							"name": "",
							"type": "tuple"
						}
					],
					"stateMutability": "view",
					"type": "function"
				}
			],
			"devdoc": {
				"kind": "dev",
				"methods": {},
				"version": 1
			},
			"evm": {
				"assembly": "    /* \"contracts/Utils.sol\":99:1199  contract Utils{\r... */\n  mstore(0x40, 0x80)\n  callvalue\n  dup1\n  iszero\n  tag_1\n  jumpi\n  0x00\n  dup1\n  revert\ntag_1:\n  pop\n  dataSize(sub_0)\n  dup1\n  dataOffset(sub_0)\n  0x00\n  codecopy\n  0x00\n  return\nstop\n\nsub_0: assembly {\n        /* \"contracts/Utils.sol\":99:1199  contract Utils{\r... */\n      mstore(0x40, 0x80)\n      callvalue\n      dup1\n      iszero\n      tag_1\n      jumpi\n      0x00\n      dup1\n      revert\n    tag_1:\n      pop\n      jumpi(tag_2, lt(calldatasize, 0x04))\n      shr(0xe0, calldataload(0x00))\n      dup1\n      0xcdf7e73d\n      eq\n      tag_3\n      jumpi\n    tag_2:\n      0x00\n      dup1\n      revert\n        /* \"contracts/Utils.sol\":1072:1196  function ReadDrug(string memory _regno) public view returns (Drug memory) {\r... */\n    tag_3:\n      tag_4\n      0x04\n      dup1\n      calldatasize\n      sub\n      dup2\n      add\n      swap1\n      tag_5\n      swap2\n      swap1\n      tag_6\n      jump\t// in\n    tag_5:\n      tag_7\n      jump\t// in\n    tag_4:\n      mload(0x40)\n      tag_8\n      swap2\n      swap1\n      tag_9\n      jump\t// in\n    tag_8:\n      mload(0x40)\n      dup1\n      swap2\n      sub\n      swap1\n      return\n    tag_7:\n        /* \"contracts/Utils.sol\":1133:1144  Drug memory */\n      tag_10\n      tag_11\n      jump\t// in\n    tag_10:\n        /* \"contracts/Utils.sol\":1164:1180  DrugRegNoMapping */\n      0x02\n        /* \"contracts/Utils.sol\":1181:1187  _regno */\n      dup3\n        /* \"contracts/Utils.sol\":1164:1188  DrugRegNoMapping[_regno] */\n      mload(0x40)\n      tag_13\n      swap2\n      swap1\n      tag_14\n      jump\t// in\n    tag_13:\n      swap1\n      dup2\n      mstore\n      0x20\n      add\n      mload(0x40)\n      dup1\n      swap2\n      sub\n      swap1\n      keccak256\n        /* \"contracts/Utils.sol\":1157:1188  return DrugRegNoMapping[_regno] */\n      mload(0x40)\n      dup1\n      0x60\n      add\n      0x40\n      mstore\n      swap1\n      dup2\n      0x00\n      dup3\n      add\n      dup1\n      sload\n      tag_15\n      swap1\n      tag_16\n      jump\t// in\n    tag_15:\n      dup1\n      0x1f\n      add\n      0x20\n      dup1\n      swap2\n      div\n      mul\n      0x20\n      add\n      mload(0x40)\n      swap1\n      dup2\n      add\n      0x40\n      mstore\n      dup1\n      swap3\n      swap2\n      swap1\n      dup2\n      dup2\n      mstore\n      0x20\n      add\n      dup3\n      dup1\n      sload\n      tag_17\n      swap1\n      tag_16\n      jump\t// in\n    tag_17:\n      dup1\n      iszero\n      tag_18\n      jumpi\n      dup1\n      0x1f\n      lt\n      tag_19\n      jumpi\n      0x0100\n      dup1\n      dup4\n      sload\n      div\n      mul\n      dup4\n      mstore\n      swap2\n      0x20\n      add\n      swap2\n      jump(tag_18)\n    tag_19:\n      dup3\n      add\n      swap2\n      swap1\n      0x00\n      mstore\n      keccak256(0x00, 0x20)\n      swap1\n    tag_20:\n      dup2\n      sload\n      dup2\n      mstore\n      swap1\n      0x01\n      add\n      swap1\n      0x20\n      add\n      dup1\n      dup4\n      gt\n      tag_20\n      jumpi\n      dup3\n      swap1\n      sub\n      0x1f\n      and\n      dup3\n      add\n      swap2\n    tag_18:\n      pop\n      pop\n      pop\n      pop\n      pop\n      dup2\n      mstore\n      0x20\n      add\n      0x01\n      dup3\n      add\n      0x00\n      swap1\n      sload\n      swap1\n      0x0100\n      exp\n      swap1\n      div\n      0xffffffffffffffffffffffffffffffffffffffff\n      and\n      0xffffffffffffffffffffffffffffffffffffffff\n      and\n      0xffffffffffffffffffffffffffffffffffffffff\n      and\n      dup2\n      mstore\n      0x20\n      add\n      0x01\n      dup3\n      add\n      0x14\n      swap1\n      sload\n      swap1\n      0x0100\n      exp\n      swap1\n      div\n      0xff\n      and\n      0x02\n      dup2\n      gt\n      iszero\n      tag_21\n      jumpi\n      tag_22\n      tag_23\n      jump\t// in\n    tag_22:\n    tag_21:\n      0x02\n      dup2\n      gt\n      iszero\n      tag_24\n      jumpi\n      tag_25\n      tag_23\n      jump\t// in\n    tag_25:\n    tag_24:\n      dup2\n      mstore\n      pop\n      pop\n      swap1\n      pop\n        /* \"contracts/Utils.sol\":1072:1196  function ReadDrug(string memory _regno) public view returns (Drug memory) {\r... */\n      swap2\n      swap1\n      pop\n      jump\t// out\n    tag_11:\n      mload(0x40)\n      dup1\n      0x60\n      add\n      0x40\n      mstore\n      dup1\n      0x60\n      dup2\n      mstore\n      0x20\n      add\n      and(0xffffffffffffffffffffffffffffffffffffffff, 0x00)\n      dup2\n      mstore\n      0x20\n      add\n      0x00\n      0x02\n      dup2\n      gt\n      iszero\n      tag_26\n      jumpi\n      tag_27\n      tag_23\n      jump\t// in\n    tag_27:\n    tag_26:\n      dup2\n      mstore\n      pop\n      swap1\n      jump\t// out\n        /* \"#utility.yul\":7:419   */\n    tag_29:\n        /* \"#utility.yul\":85:90   */\n      0x00\n        /* \"#utility.yul\":110:176   */\n      tag_31\n        /* \"#utility.yul\":126:175   */\n      tag_32\n        /* \"#utility.yul\":168:174   */\n      dup5\n        /* \"#utility.yul\":126:175   */\n      tag_33\n      jump\t// in\n    tag_32:\n        /* \"#utility.yul\":110:176   */\n      tag_34\n      jump\t// in\n    tag_31:\n        /* \"#utility.yul\":101:176   */\n      swap1\n      pop\n        /* \"#utility.yul\":199:205   */\n      dup3\n        /* \"#utility.yul\":192:197   */\n      dup2\n        /* \"#utility.yul\":185:206   */\n      mstore\n        /* \"#utility.yul\":237:241   */\n      0x20\n        /* \"#utility.yul\":230:235   */\n      dup2\n        /* \"#utility.yul\":226:242   */\n      add\n        /* \"#utility.yul\":275:278   */\n      dup5\n        /* \"#utility.yul\":266:272   */\n      dup5\n        /* \"#utility.yul\":261:264   */\n      dup5\n        /* \"#utility.yul\":257:273   */\n      add\n        /* \"#utility.yul\":254:279   */\n      gt\n        /* \"#utility.yul\":251:363   */\n      iszero\n      tag_35\n      jumpi\n        /* \"#utility.yul\":282:361   */\n      tag_36\n      tag_37\n      jump\t// in\n    tag_36:\n        /* \"#utility.yul\":251:363   */\n    tag_35:\n        /* \"#utility.yul\":372:413   */\n      tag_38\n        /* \"#utility.yul\":406:412   */\n      dup5\n        /* \"#utility.yul\":401:404   */\n      dup3\n        /* \"#utility.yul\":396:399   */\n      dup6\n        /* \"#utility.yul\":372:413   */\n      tag_39\n      jump\t// in\n    tag_38:\n        /* \"#utility.yul\":91:419   */\n      pop\n        /* \"#utility.yul\":7:419   */\n      swap4\n      swap3\n      pop\n      pop\n      pop\n      jump\t// out\n        /* \"#utility.yul\":439:779   */\n    tag_40:\n        /* \"#utility.yul\":495:500   */\n      0x00\n        /* \"#utility.yul\":544:547   */\n      dup3\n        /* \"#utility.yul\":537:541   */\n      0x1f\n        /* \"#utility.yul\":529:535   */\n      dup4\n        /* \"#utility.yul\":525:542   */\n      add\n        /* \"#utility.yul\":521:548   */\n      slt\n        /* \"#utility.yul\":511:633   */\n      tag_42\n      jumpi\n        /* \"#utility.yul\":552:631   */\n      tag_43\n      tag_44\n      jump\t// in\n    tag_43:\n        /* \"#utility.yul\":511:633   */\n    tag_42:\n        /* \"#utility.yul\":669:675   */\n      dup2\n        /* \"#utility.yul\":656:676   */\n      calldataload\n        /* \"#utility.yul\":694:773   */\n      tag_45\n        /* \"#utility.yul\":769:772   */\n      dup5\n        /* \"#utility.yul\":761:767   */\n      dup3\n        /* \"#utility.yul\":754:758   */\n      0x20\n        /* \"#utility.yul\":746:752   */\n      dup7\n        /* \"#utility.yul\":742:759   */\n      add\n        /* \"#utility.yul\":694:773   */\n      tag_29\n      jump\t// in\n    tag_45:\n        /* \"#utility.yul\":685:773   */\n      swap2\n      pop\n        /* \"#utility.yul\":501:779   */\n      pop\n        /* \"#utility.yul\":439:779   */\n      swap3\n      swap2\n      pop\n      pop\n      jump\t// out\n        /* \"#utility.yul\":785:1294   */\n    tag_6:\n        /* \"#utility.yul\":854:860   */\n      0x00\n        /* \"#utility.yul\":903:905   */\n      0x20\n        /* \"#utility.yul\":891:900   */\n      dup3\n        /* \"#utility.yul\":882:889   */\n      dup5\n        /* \"#utility.yul\":878:901   */\n      sub\n        /* \"#utility.yul\":874:906   */\n      slt\n        /* \"#utility.yul\":871:990   */\n      iszero\n      tag_47\n      jumpi\n        /* \"#utility.yul\":909:988   */\n      tag_48\n      tag_49\n      jump\t// in\n    tag_48:\n        /* \"#utility.yul\":871:990   */\n    tag_47:\n        /* \"#utility.yul\":1057:1058   */\n      0x00\n        /* \"#utility.yul\":1046:1055   */\n      dup3\n        /* \"#utility.yul\":1042:1059   */\n      add\n        /* \"#utility.yul\":1029:1060   */\n      calldataload\n        /* \"#utility.yul\":1087:1105   */\n      0xffffffffffffffff\n        /* \"#utility.yul\":1079:1085   */\n      dup2\n        /* \"#utility.yul\":1076:1106   */\n      gt\n        /* \"#utility.yul\":1073:1190   */\n      iszero\n      tag_50\n      jumpi\n        /* \"#utility.yul\":1109:1188   */\n      tag_51\n      tag_52\n      jump\t// in\n    tag_51:\n        /* \"#utility.yul\":1073:1190   */\n    tag_50:\n        /* \"#utility.yul\":1214:1277   */\n      tag_53\n        /* \"#utility.yul\":1269:1276   */\n      dup5\n        /* \"#utility.yul\":1260:1266   */\n      dup3\n        /* \"#utility.yul\":1249:1258   */\n      dup6\n        /* \"#utility.yul\":1245:1267   */\n      add\n        /* \"#utility.yul\":1214:1277   */\n      tag_40\n      jump\t// in\n    tag_53:\n        /* \"#utility.yul\":1204:1277   */\n      swap2\n      pop\n        /* \"#utility.yul\":1000:1287   */\n      pop\n        /* \"#utility.yul\":785:1294   */\n      swap3\n      swap2\n      pop\n      pop\n      jump\t// out\n        /* \"#utility.yul\":1300:1408   */\n    tag_54:\n        /* \"#utility.yul\":1377:1401   */\n      tag_56\n        /* \"#utility.yul\":1395:1400   */\n      dup2\n        /* \"#utility.yul\":1377:1401   */\n      tag_57\n      jump\t// in\n    tag_56:\n        /* \"#utility.yul\":1372:1375   */\n      dup3\n        /* \"#utility.yul\":1365:1402   */\n      mstore\n        /* \"#utility.yul\":1300:1408   */\n      pop\n      pop\n      jump\t// out\n        /* \"#utility.yul\":1414:1553   */\n    tag_58:\n        /* \"#utility.yul\":1500:1546   */\n      tag_60\n        /* \"#utility.yul\":1540:1545   */\n      dup2\n        /* \"#utility.yul\":1500:1546   */\n      tag_61\n      jump\t// in\n    tag_60:\n        /* \"#utility.yul\":1495:1498   */\n      dup3\n        /* \"#utility.yul\":1488:1547   */\n      mstore\n        /* \"#utility.yul\":1414:1553   */\n      pop\n      pop\n      jump\t// out\n        /* \"#utility.yul\":1559:1903   */\n    tag_62:\n        /* \"#utility.yul\":1637:1640   */\n      0x00\n        /* \"#utility.yul\":1665:1704   */\n      tag_64\n        /* \"#utility.yul\":1698:1703   */\n      dup3\n        /* \"#utility.yul\":1665:1704   */\n      tag_65\n      jump\t// in\n    tag_64:\n        /* \"#utility.yul\":1720:1781   */\n      tag_66\n        /* \"#utility.yul\":1774:1780   */\n      dup2\n        /* \"#utility.yul\":1769:1772   */\n      dup6\n        /* \"#utility.yul\":1720:1781   */\n      tag_67\n      jump\t// in\n    tag_66:\n        /* \"#utility.yul\":1713:1781   */\n      swap4\n      pop\n        /* \"#utility.yul\":1790:1842   */\n      tag_68\n        /* \"#utility.yul\":1835:1841   */\n      dup2\n        /* \"#utility.yul\":1830:1833   */\n      dup6\n        /* \"#utility.yul\":1823:1827   */\n      0x20\n        /* \"#utility.yul\":1816:1821   */\n      dup7\n        /* \"#utility.yul\":1812:1828   */\n      add\n        /* \"#utility.yul\":1790:1842   */\n      tag_69\n      jump\t// in\n    tag_68:\n        /* \"#utility.yul\":1867:1896   */\n      tag_70\n        /* \"#utility.yul\":1889:1895   */\n      dup2\n        /* \"#utility.yul\":1867:1896   */\n      tag_71\n      jump\t// in\n    tag_70:\n        /* \"#utility.yul\":1862:1865   */\n      dup5\n        /* \"#utility.yul\":1858:1897   */\n      add\n        /* \"#utility.yul\":1851:1897   */\n      swap2\n      pop\n        /* \"#utility.yul\":1641:1903   */\n      pop\n        /* \"#utility.yul\":1559:1903   */\n      swap3\n      swap2\n      pop\n      pop\n      jump\t// out\n        /* \"#utility.yul\":1909:2286   */\n    tag_72:\n        /* \"#utility.yul\":2015:2018   */\n      0x00\n        /* \"#utility.yul\":2043:2082   */\n      tag_74\n        /* \"#utility.yul\":2076:2081   */\n      dup3\n        /* \"#utility.yul\":2043:2082   */\n      tag_65\n      jump\t// in\n    tag_74:\n        /* \"#utility.yul\":2098:2187   */\n      tag_75\n        /* \"#utility.yul\":2180:2186   */\n      dup2\n        /* \"#utility.yul\":2175:2178   */\n      dup6\n        /* \"#utility.yul\":2098:2187   */\n      tag_76\n      jump\t// in\n    tag_75:\n        /* \"#utility.yul\":2091:2187   */\n      swap4\n      pop\n        /* \"#utility.yul\":2196:2248   */\n      tag_77\n        /* \"#utility.yul\":2241:2247   */\n      dup2\n        /* \"#utility.yul\":2236:2239   */\n      dup6\n        /* \"#utility.yul\":2229:2233   */\n      0x20\n        /* \"#utility.yul\":2222:2227   */\n      dup7\n        /* \"#utility.yul\":2218:2234   */\n      add\n        /* \"#utility.yul\":2196:2248   */\n      tag_69\n      jump\t// in\n    tag_77:\n        /* \"#utility.yul\":2273:2279   */\n      dup1\n        /* \"#utility.yul\":2268:2271   */\n      dup5\n        /* \"#utility.yul\":2264:2280   */\n      add\n        /* \"#utility.yul\":2257:2280   */\n      swap2\n      pop\n        /* \"#utility.yul\":2019:2286   */\n      pop\n        /* \"#utility.yul\":1909:2286   */\n      swap3\n      swap2\n      pop\n      pop\n      jump\t// out\n        /* \"#utility.yul\":2338:3137   */\n    tag_78:\n        /* \"#utility.yul\":2449:2452   */\n      0x00\n        /* \"#utility.yul\":2485:2489   */\n      0x60\n        /* \"#utility.yul\":2480:2483   */\n      dup4\n        /* \"#utility.yul\":2476:2490   */\n      add\n        /* \"#utility.yul\":2576:2580   */\n      0x00\n        /* \"#utility.yul\":2569:2574   */\n      dup4\n        /* \"#utility.yul\":2565:2581   */\n      add\n        /* \"#utility.yul\":2559:2582   */\n      mload\n        /* \"#utility.yul\":2629:2632   */\n      dup5\n        /* \"#utility.yul\":2623:2627   */\n      dup3\n        /* \"#utility.yul\":2619:2633   */\n      sub\n        /* \"#utility.yul\":2612:2616   */\n      0x00\n        /* \"#utility.yul\":2607:2610   */\n      dup7\n        /* \"#utility.yul\":2603:2617   */\n      add\n        /* \"#utility.yul\":2596:2634   */\n      mstore\n        /* \"#utility.yul\":2655:2728   */\n      tag_80\n        /* \"#utility.yul\":2723:2727   */\n      dup3\n        /* \"#utility.yul\":2709:2721   */\n      dup3\n        /* \"#utility.yul\":2655:2728   */\n      tag_62\n      jump\t// in\n    tag_80:\n        /* \"#utility.yul\":2647:2728   */\n      swap2\n      pop\n        /* \"#utility.yul\":2500:2739   */\n      pop\n        /* \"#utility.yul\":2829:2833   */\n      0x20\n        /* \"#utility.yul\":2822:2827   */\n      dup4\n        /* \"#utility.yul\":2818:2834   */\n      add\n        /* \"#utility.yul\":2812:2835   */\n      mload\n        /* \"#utility.yul\":2848:2911   */\n      tag_81\n        /* \"#utility.yul\":2905:2909   */\n      0x20\n        /* \"#utility.yul\":2900:2903   */\n      dup7\n        /* \"#utility.yul\":2896:2910   */\n      add\n        /* \"#utility.yul\":2882:2894   */\n      dup3\n        /* \"#utility.yul\":2848:2911   */\n      tag_54\n      jump\t// in\n    tag_81:\n        /* \"#utility.yul\":2749:2921   */\n      pop\n        /* \"#utility.yul\":3009:3013   */\n      0x40\n        /* \"#utility.yul\":3002:3007   */\n      dup4\n        /* \"#utility.yul\":2998:3014   */\n      add\n        /* \"#utility.yul\":2992:3015   */\n      mload\n        /* \"#utility.yul\":3028:3100   */\n      tag_82\n        /* \"#utility.yul\":3094:3098   */\n      0x40\n        /* \"#utility.yul\":3089:3092   */\n      dup7\n        /* \"#utility.yul\":3085:3099   */\n      add\n        /* \"#utility.yul\":3071:3083   */\n      dup3\n        /* \"#utility.yul\":3028:3100   */\n      tag_58\n      jump\t// in\n    tag_82:\n        /* \"#utility.yul\":2931:3110   */\n      pop\n        /* \"#utility.yul\":3127:3131   */\n      dup1\n        /* \"#utility.yul\":3120:3131   */\n      swap2\n      pop\n        /* \"#utility.yul\":2454:3137   */\n      pop\n        /* \"#utility.yul\":2338:3137   */\n      swap3\n      swap2\n      pop\n      pop\n      jump\t// out\n        /* \"#utility.yul\":3143:3418   */\n    tag_14:\n        /* \"#utility.yul\":3275:3278   */\n      0x00\n        /* \"#utility.yul\":3297:3392   */\n      tag_84\n        /* \"#utility.yul\":3388:3391   */\n      dup3\n        /* \"#utility.yul\":3379:3385   */\n      dup5\n        /* \"#utility.yul\":3297:3392   */\n      tag_72\n      jump\t// in\n    tag_84:\n        /* \"#utility.yul\":3290:3392   */\n      swap2\n      pop\n        /* \"#utility.yul\":3409:3412   */\n      dup2\n        /* \"#utility.yul\":3402:3412   */\n      swap1\n      pop\n        /* \"#utility.yul\":3143:3418   */\n      swap3\n      swap2\n      pop\n      pop\n      jump\t// out\n        /* \"#utility.yul\":3424:3781   */\n    tag_9:\n        /* \"#utility.yul\":3559:3563   */\n      0x00\n        /* \"#utility.yul\":3597:3599   */\n      0x20\n        /* \"#utility.yul\":3586:3595   */\n      dup3\n        /* \"#utility.yul\":3582:3600   */\n      add\n        /* \"#utility.yul\":3574:3600   */\n      swap1\n      pop\n        /* \"#utility.yul\":3646:3655   */\n      dup2\n        /* \"#utility.yul\":3640:3644   */\n      dup2\n        /* \"#utility.yul\":3636:3656   */\n      sub\n        /* \"#utility.yul\":3632:3633   */\n      0x00\n        /* \"#utility.yul\":3621:3630   */\n      dup4\n        /* \"#utility.yul\":3617:3634   */\n      add\n        /* \"#utility.yul\":3610:3657   */\n      mstore\n        /* \"#utility.yul\":3674:3774   */\n      tag_86\n        /* \"#utility.yul\":3769:3773   */\n      dup2\n        /* \"#utility.yul\":3760:3766   */\n      dup5\n        /* \"#utility.yul\":3674:3774   */\n      tag_78\n      jump\t// in\n    tag_86:\n        /* \"#utility.yul\":3666:3774   */\n      swap1\n      pop\n        /* \"#utility.yul\":3424:3781   */\n      swap3\n      swap2\n      pop\n      pop\n      jump\t// out\n        /* \"#utility.yul\":3787:3916   */\n    tag_34:\n        /* \"#utility.yul\":3821:3827   */\n      0x00\n        /* \"#utility.yul\":3848:3868   */\n      tag_88\n      tag_89\n      jump\t// in\n    tag_88:\n        /* \"#utility.yul\":3838:3868   */\n      swap1\n      pop\n        /* \"#utility.yul\":3877:3910   */\n      tag_90\n        /* \"#utility.yul\":3905:3909   */\n      dup3\n        /* \"#utility.yul\":3897:3903   */\n      dup3\n        /* \"#utility.yul\":3877:3910   */\n      tag_91\n      jump\t// in\n    tag_90:\n        /* \"#utility.yul\":3787:3916   */\n      swap2\n      swap1\n      pop\n      jump\t// out\n        /* \"#utility.yul\":3922:3997   */\n    tag_89:\n        /* \"#utility.yul\":3955:3961   */\n      0x00\n        /* \"#utility.yul\":3988:3990   */\n      0x40\n        /* \"#utility.yul\":3982:3991   */\n      mload\n        /* \"#utility.yul\":3972:3991   */\n      swap1\n      pop\n        /* \"#utility.yul\":3922:3997   */\n      swap1\n      jump\t// out\n        /* \"#utility.yul\":4003:4311   */\n    tag_33:\n        /* \"#utility.yul\":4065:4069   */\n      0x00\n        /* \"#utility.yul\":4155:4173   */\n      0xffffffffffffffff\n        /* \"#utility.yul\":4147:4153   */\n      dup3\n        /* \"#utility.yul\":4144:4174   */\n      gt\n        /* \"#utility.yul\":4141:4197   */\n      iszero\n      tag_94\n      jumpi\n        /* \"#utility.yul\":4177:4195   */\n      tag_95\n      tag_96\n      jump\t// in\n    tag_95:\n        /* \"#utility.yul\":4141:4197   */\n    tag_94:\n        /* \"#utility.yul\":4215:4244   */\n      tag_97\n        /* \"#utility.yul\":4237:4243   */\n      dup3\n        /* \"#utility.yul\":4215:4244   */\n      tag_71\n      jump\t// in\n    tag_97:\n        /* \"#utility.yul\":4207:4244   */\n      swap1\n      pop\n        /* \"#utility.yul\":4299:4303   */\n      0x20\n        /* \"#utility.yul\":4293:4297   */\n      dup2\n        /* \"#utility.yul\":4289:4304   */\n      add\n        /* \"#utility.yul\":4281:4304   */\n      swap1\n      pop\n        /* \"#utility.yul\":4003:4311   */\n      swap2\n      swap1\n      pop\n      jump\t// out\n        /* \"#utility.yul\":4317:4416   */\n    tag_65:\n        /* \"#utility.yul\":4369:4375   */\n      0x00\n        /* \"#utility.yul\":4403:4408   */\n      dup2\n        /* \"#utility.yul\":4397:4409   */\n      mload\n        /* \"#utility.yul\":4387:4409   */\n      swap1\n      pop\n        /* \"#utility.yul\":4317:4416   */\n      swap2\n      swap1\n      pop\n      jump\t// out\n        /* \"#utility.yul\":4422:4581   */\n    tag_67:\n        /* \"#utility.yul\":4496:4507   */\n      0x00\n        /* \"#utility.yul\":4530:4536   */\n      dup3\n        /* \"#utility.yul\":4525:4528   */\n      dup3\n        /* \"#utility.yul\":4518:4537   */\n      mstore\n        /* \"#utility.yul\":4570:4574   */\n      0x20\n        /* \"#utility.yul\":4565:4568   */\n      dup3\n        /* \"#utility.yul\":4561:4575   */\n      add\n        /* \"#utility.yul\":4546:4575   */\n      swap1\n      pop\n        /* \"#utility.yul\":4422:4581   */\n      swap3\n      swap2\n      pop\n      pop\n      jump\t// out\n        /* \"#utility.yul\":4587:4735   */\n    tag_76:\n        /* \"#utility.yul\":4689:4700   */\n      0x00\n        /* \"#utility.yul\":4726:4729   */\n      dup2\n        /* \"#utility.yul\":4711:4729   */\n      swap1\n      pop\n        /* \"#utility.yul\":4587:4735   */\n      swap3\n      swap2\n      pop\n      pop\n      jump\t// out\n        /* \"#utility.yul\":4741:4837   */\n    tag_57:\n        /* \"#utility.yul\":4778:4785   */\n      0x00\n        /* \"#utility.yul\":4807:4831   */\n      tag_102\n        /* \"#utility.yul\":4825:4830   */\n      dup3\n        /* \"#utility.yul\":4807:4831   */\n      tag_103\n      jump\t// in\n    tag_102:\n        /* \"#utility.yul\":4796:4831   */\n      swap1\n      pop\n        /* \"#utility.yul\":4741:4837   */\n      swap2\n      swap1\n      pop\n      jump\t// out\n        /* \"#utility.yul\":4843:4976   */\n    tag_104:\n        /* \"#utility.yul\":4891:4898   */\n      0x00\n        /* \"#utility.yul\":4920:4925   */\n      dup2\n        /* \"#utility.yul\":4909:4925   */\n      swap1\n      pop\n        /* \"#utility.yul\":4926:4970   */\n      tag_106\n        /* \"#utility.yul\":4964:4969   */\n      dup3\n        /* \"#utility.yul\":4926:4970   */\n      tag_107\n      jump\t// in\n    tag_106:\n        /* \"#utility.yul\":4843:4976   */\n      swap2\n      swap1\n      pop\n      jump\t// out\n        /* \"#utility.yul\":4982:5108   */\n    tag_103:\n        /* \"#utility.yul\":5019:5026   */\n      0x00\n        /* \"#utility.yul\":5059:5101   */\n      0xffffffffffffffffffffffffffffffffffffffff\n        /* \"#utility.yul\":5052:5057   */\n      dup3\n        /* \"#utility.yul\":5048:5102   */\n      and\n        /* \"#utility.yul\":5037:5102   */\n      swap1\n      pop\n        /* \"#utility.yul\":4982:5108   */\n      swap2\n      swap1\n      pop\n      jump\t// out\n        /* \"#utility.yul\":5114:5247   */\n    tag_61:\n        /* \"#utility.yul\":5173:5182   */\n      0x00\n        /* \"#utility.yul\":5206:5241   */\n      tag_110\n        /* \"#utility.yul\":5235:5240   */\n      dup3\n        /* \"#utility.yul\":5206:5241   */\n      tag_104\n      jump\t// in\n    tag_110:\n        /* \"#utility.yul\":5193:5241   */\n      swap1\n      pop\n        /* \"#utility.yul\":5114:5247   */\n      swap2\n      swap1\n      pop\n      jump\t// out\n        /* \"#utility.yul\":5253:5407   */\n    tag_39:\n        /* \"#utility.yul\":5337:5343   */\n      dup3\n        /* \"#utility.yul\":5332:5335   */\n      dup2\n        /* \"#utility.yul\":5327:5330   */\n      dup4\n        /* \"#utility.yul\":5314:5344   */\n      calldatacopy\n        /* \"#utility.yul\":5399:5400   */\n      0x00\n        /* \"#utility.yul\":5390:5396   */\n      dup4\n        /* \"#utility.yul\":5385:5388   */\n      dup4\n        /* \"#utility.yul\":5381:5397   */\n      add\n        /* \"#utility.yul\":5374:5401   */\n      mstore\n        /* \"#utility.yul\":5253:5407   */\n      pop\n      pop\n      pop\n      jump\t// out\n        /* \"#utility.yul\":5413:5720   */\n    tag_69:\n        /* \"#utility.yul\":5481:5482   */\n      0x00\n        /* \"#utility.yul\":5491:5604   */\n    tag_113:\n        /* \"#utility.yul\":5505:5511   */\n      dup4\n        /* \"#utility.yul\":5502:5503   */\n      dup2\n        /* \"#utility.yul\":5499:5512   */\n      lt\n        /* \"#utility.yul\":5491:5604   */\n      iszero\n      tag_115\n      jumpi\n        /* \"#utility.yul\":5590:5591   */\n      dup1\n        /* \"#utility.yul\":5585:5588   */\n      dup3\n        /* \"#utility.yul\":5581:5592   */\n      add\n        /* \"#utility.yul\":5575:5593   */\n      mload\n        /* \"#utility.yul\":5571:5572   */\n      dup2\n        /* \"#utility.yul\":5566:5569   */\n      dup5\n        /* \"#utility.yul\":5562:5573   */\n      add\n        /* \"#utility.yul\":5555:5594   */\n      mstore\n        /* \"#utility.yul\":5527:5529   */\n      0x20\n        /* \"#utility.yul\":5524:5525   */\n      dup2\n        /* \"#utility.yul\":5520:5530   */\n      add\n        /* \"#utility.yul\":5515:5530   */\n      swap1\n      pop\n        /* \"#utility.yul\":5491:5604   */\n      jump(tag_113)\n    tag_115:\n        /* \"#utility.yul\":5622:5628   */\n      dup4\n        /* \"#utility.yul\":5619:5620   */\n      dup2\n        /* \"#utility.yul\":5616:5629   */\n      gt\n        /* \"#utility.yul\":5613:5714   */\n      iszero\n      tag_116\n      jumpi\n        /* \"#utility.yul\":5702:5703   */\n      0x00\n        /* \"#utility.yul\":5693:5699   */\n      dup5\n        /* \"#utility.yul\":5688:5691   */\n      dup5\n        /* \"#utility.yul\":5684:5700   */\n      add\n        /* \"#utility.yul\":5677:5704   */\n      mstore\n        /* \"#utility.yul\":5613:5714   */\n    tag_116:\n        /* \"#utility.yul\":5462:5720   */\n      pop\n        /* \"#utility.yul\":5413:5720   */\n      pop\n      pop\n      pop\n      jump\t// out\n        /* \"#utility.yul\":5726:6046   */\n    tag_16:\n        /* \"#utility.yul\":5770:5776   */\n      0x00\n        /* \"#utility.yul\":5807:5808   */\n      0x02\n        /* \"#utility.yul\":5801:5805   */\n      dup3\n        /* \"#utility.yul\":5797:5809   */\n      div\n        /* \"#utility.yul\":5787:5809   */\n      swap1\n      pop\n        /* \"#utility.yul\":5854:5855   */\n      0x01\n        /* \"#utility.yul\":5848:5852   */\n      dup3\n        /* \"#utility.yul\":5844:5856   */\n      and\n        /* \"#utility.yul\":5875:5893   */\n      dup1\n        /* \"#utility.yul\":5865:5946   */\n      tag_118\n      jumpi\n        /* \"#utility.yul\":5931:5935   */\n      0x7f\n        /* \"#utility.yul\":5923:5929   */\n      dup3\n        /* \"#utility.yul\":5919:5936   */\n      and\n        /* \"#utility.yul\":5909:5936   */\n      swap2\n      pop\n        /* \"#utility.yul\":5865:5946   */\n    tag_118:\n        /* \"#utility.yul\":5993:5995   */\n      0x20\n        /* \"#utility.yul\":5985:5991   */\n      dup3\n        /* \"#utility.yul\":5982:5996   */\n      lt\n        /* \"#utility.yul\":5962:5980   */\n      dup2\n        /* \"#utility.yul\":5959:5997   */\n      eq\n        /* \"#utility.yul\":5956:6040   */\n      iszero\n      tag_119\n      jumpi\n        /* \"#utility.yul\":6012:6030   */\n      tag_120\n      tag_121\n      jump\t// in\n    tag_120:\n        /* \"#utility.yul\":5956:6040   */\n    tag_119:\n        /* \"#utility.yul\":5777:6046   */\n      pop\n        /* \"#utility.yul\":5726:6046   */\n      swap2\n      swap1\n      pop\n      jump\t// out\n        /* \"#utility.yul\":6052:6333   */\n    tag_91:\n        /* \"#utility.yul\":6135:6162   */\n      tag_123\n        /* \"#utility.yul\":6157:6161   */\n      dup3\n        /* \"#utility.yul\":6135:6162   */\n      tag_71\n      jump\t// in\n    tag_123:\n        /* \"#utility.yul\":6127:6133   */\n      dup2\n        /* \"#utility.yul\":6123:6163   */\n      add\n        /* \"#utility.yul\":6265:6271   */\n      dup2\n        /* \"#utility.yul\":6253:6263   */\n      dup2\n        /* \"#utility.yul\":6250:6272   */\n      lt\n        /* \"#utility.yul\":6229:6247   */\n      0xffffffffffffffff\n        /* \"#utility.yul\":6217:6227   */\n      dup3\n        /* \"#utility.yul\":6214:6248   */\n      gt\n        /* \"#utility.yul\":6211:6273   */\n      or\n        /* \"#utility.yul\":6208:6296   */\n      iszero\n      tag_124\n      jumpi\n        /* \"#utility.yul\":6276:6294   */\n      tag_125\n      tag_96\n      jump\t// in\n    tag_125:\n        /* \"#utility.yul\":6208:6296   */\n    tag_124:\n        /* \"#utility.yul\":6316:6326   */\n      dup1\n        /* \"#utility.yul\":6312:6314   */\n      0x40\n        /* \"#utility.yul\":6305:6327   */\n      mstore\n        /* \"#utility.yul\":6095:6333   */\n      pop\n        /* \"#utility.yul\":6052:6333   */\n      pop\n      pop\n      jump\t// out\n        /* \"#utility.yul\":6339:6519   */\n    tag_23:\n        /* \"#utility.yul\":6387:6464   */\n      0x4e487b7100000000000000000000000000000000000000000000000000000000\n        /* \"#utility.yul\":6384:6385   */\n      0x00\n        /* \"#utility.yul\":6377:6465   */\n      mstore\n        /* \"#utility.yul\":6484:6488   */\n      0x21\n        /* \"#utility.yul\":6481:6482   */\n      0x04\n        /* \"#utility.yul\":6474:6489   */\n      mstore\n        /* \"#utility.yul\":6508:6512   */\n      0x24\n        /* \"#utility.yul\":6505:6506   */\n      0x00\n        /* \"#utility.yul\":6498:6513   */\n      revert\n        /* \"#utility.yul\":6525:6705   */\n    tag_121:\n        /* \"#utility.yul\":6573:6650   */\n      0x4e487b7100000000000000000000000000000000000000000000000000000000\n        /* \"#utility.yul\":6570:6571   */\n      0x00\n        /* \"#utility.yul\":6563:6651   */\n      mstore\n        /* \"#utility.yul\":6670:6674   */\n      0x22\n        /* \"#utility.yul\":6667:6668   */\n      0x04\n        /* \"#utility.yul\":6660:6675   */\n      mstore\n        /* \"#utility.yul\":6694:6698   */\n      0x24\n        /* \"#utility.yul\":6691:6692   */\n      0x00\n        /* \"#utility.yul\":6684:6699   */\n      revert\n        /* \"#utility.yul\":6711:6891   */\n    tag_96:\n        /* \"#utility.yul\":6759:6836   */\n      0x4e487b7100000000000000000000000000000000000000000000000000000000\n        /* \"#utility.yul\":6756:6757   */\n      0x00\n        /* \"#utility.yul\":6749:6837   */\n      mstore\n        /* \"#utility.yul\":6856:6860   */\n      0x41\n        /* \"#utility.yul\":6853:6854   */\n      0x04\n        /* \"#utility.yul\":6846:6861   */\n      mstore\n        /* \"#utility.yul\":6880:6884   */\n      0x24\n        /* \"#utility.yul\":6877:6878   */\n      0x00\n        /* \"#utility.yul\":6870:6885   */\n      revert\n        /* \"#utility.yul\":6897:7014   */\n    tag_44:\n        /* \"#utility.yul\":7006:7007   */\n      0x00\n        /* \"#utility.yul\":7003:7004   */\n      dup1\n        /* \"#utility.yul\":6996:7008   */\n      revert\n        /* \"#utility.yul\":7020:7137   */\n    tag_37:\n        /* \"#utility.yul\":7129:7130   */\n      0x00\n        /* \"#utility.yul\":7126:7127   */\n      dup1\n        /* \"#utility.yul\":7119:7131   */\n      revert\n        /* \"#utility.yul\":7143:7260   */\n    tag_52:\n        /* \"#utility.yul\":7252:7253   */\n      0x00\n        /* \"#utility.yul\":7249:7250   */\n      dup1\n        /* \"#utility.yul\":7242:7254   */\n      revert\n        /* \"#utility.yul\":7266:7383   */\n    tag_49:\n        /* \"#utility.yul\":7375:7376   */\n      0x00\n        /* \"#utility.yul\":7372:7373   */\n      dup1\n        /* \"#utility.yul\":7365:7377   */\n      revert\n        /* \"#utility.yul\":7389:7491   */\n    tag_71:\n        /* \"#utility.yul\":7430:7436   */\n      0x00\n        /* \"#utility.yul\":7481:7483   */\n      0x1f\n        /* \"#utility.yul\":7477:7484   */\n      not\n        /* \"#utility.yul\":7472:7474   */\n      0x1f\n        /* \"#utility.yul\":7465:7470   */\n      dup4\n        /* \"#utility.yul\":7461:7475   */\n      add\n        /* \"#utility.yul\":7457:7485   */\n      and\n        /* \"#utility.yul\":7447:7485   */\n      swap1\n      pop\n        /* \"#utility.yul\":7389:7491   */\n      swap2\n      swap1\n      pop\n      jump\t// out\n        /* \"#utility.yul\":7497:7613   */\n    tag_107:\n        /* \"#utility.yul\":7581:7582   */\n      0x03\n        /* \"#utility.yul\":7574:7579   */\n      dup2\n        /* \"#utility.yul\":7571:7583   */\n      lt\n        /* \"#utility.yul\":7561:7607   */\n      tag_135\n      jumpi\n        /* \"#utility.yul\":7587:7605   */\n      tag_136\n      tag_23\n      jump\t// in\n    tag_136:\n        /* \"#utility.yul\":7561:7607   */\n    tag_135:\n        /* \"#utility.yul\":7497:7613   */\n      pop\n      jump\t// out\n\n    auxdata: 0xa26469706673582212202efb83d181d15818abc9560378b8f7f596ed859571cd2b73eb5cd290340e4d8164736f6c63430008070033\n}\n",
				"bytecode": {
					"linkReferences": {},
					"object": "608060405234801561001057600080fd5b50610643806100206000396000f3fe608060405234801561001057600080fd5b506004361061002b5760003560e01c8063cdf7e73d14610030575b600080fd5b61004a60048036038101906100459190610274565b610060565b60405161005791906103ac565b60405180910390f35b6100686101bb565b6002826040516100789190610395565b90815260200160405180910390206040518060600160405290816000820180546100a1906104e4565b80601f01602080910402602001604051908101604052809291908181526020018280546100cd906104e4565b801561011a5780601f106100ef5761010080835404028352916020019161011a565b820191906000526020600020905b8154815290600101906020018083116100fd57829003601f168201915b505050505081526020016001820160009054906101000a900473ffffffffffffffffffffffffffffffffffffffff1673ffffffffffffffffffffffffffffffffffffffff1673ffffffffffffffffffffffffffffffffffffffff1681526020016001820160149054906101000a900460ff16600281111561019e5761019d610547565b5b60028111156101b0576101af610547565b5b815250509050919050565b604051806060016040528060608152602001600073ffffffffffffffffffffffffffffffffffffffff168152602001600060028111156101fe576101fd610547565b5b81525090565b6000610217610212846103f3565b6103ce565b905082815260208101848484011115610233576102326105d9565b5b61023e8482856104a2565b509392505050565b600082601f83011261025b5761025a6105d4565b5b813561026b848260208601610204565b91505092915050565b60006020828403121561028a576102896105e3565b5b600082013567ffffffffffffffff8111156102a8576102a76105de565b5b6102b484828501610246565b91505092915050565b6102c68161044b565b82525050565b6102d581610490565b82525050565b60006102e682610424565b6102f0818561042f565b93506103008185602086016104b1565b610309816105e8565b840191505092915050565b600061031f82610424565b6103298185610440565b93506103398185602086016104b1565b80840191505092915050565b6000606083016000830151848203600086015261036282826102db565b915050602083015161037760208601826102bd565b50604083015161038a60408601826102cc565b508091505092915050565b60006103a18284610314565b915081905092915050565b600060208201905081810360008301526103c68184610345565b905092915050565b60006103d86103e9565b90506103e48282610516565b919050565b6000604051905090565b600067ffffffffffffffff82111561040e5761040d6105a5565b5b610417826105e8565b9050602081019050919050565b600081519050919050565b600082825260208201905092915050565b600081905092915050565b600061045682610470565b9050919050565b600081905061046b826105f9565b919050565b600073ffffffffffffffffffffffffffffffffffffffff82169050919050565b600061049b8261045d565b9050919050565b82818337600083830152505050565b60005b838110156104cf5780820151818401526020810190506104b4565b838111156104de576000848401525b50505050565b600060028204905060018216806104fc57607f821691505b602082108114156105105761050f610576565b5b50919050565b61051f826105e8565b810181811067ffffffffffffffff8211171561053e5761053d6105a5565b5b80604052505050565b7f4e487b7100000000000000000000000000000000000000000000000000000000600052602160045260246000fd5b7f4e487b7100000000000000000000000000000000000000000000000000000000600052602260045260246000fd5b7f4e487b7100000000000000000000000000000000000000000000000000000000600052604160045260246000fd5b600080fd5b600080fd5b600080fd5b600080fd5b6000601f19601f8301169050919050565b6003811061060a57610609610547565b5b5056fea26469706673582212202efb83d181d15818abc9560378b8f7f596ed859571cd2b73eb5cd290340e4d8164736f6c63430008070033",
					"opcodes": "PUSH1 0x80 PUSH1 0x40 MSTORE CALLVALUE DUP1 ISZERO PUSH2 0x10 JUMPI PUSH1 0x0 DUP1 REVERT JUMPDEST POP PUSH2 0x643 DUP1 PUSH2 0x20 PUSH1 0x0 CODECOPY PUSH1 0x0 RETURN INVALID PUSH1 0x80 PUSH1 0x40 MSTORE CALLVALUE DUP1 ISZERO PUSH2 0x10 JUMPI PUSH1 0x0 DUP1 REVERT JUMPDEST POP PUSH1 0x4 CALLDATASIZE LT PUSH2 0x2B JUMPI PUSH1 0x0 CALLDATALOAD PUSH1 0xE0 SHR DUP1 PUSH4 0xCDF7E73D EQ PUSH2 0x30 JUMPI JUMPDEST PUSH1 0x0 DUP1 REVERT JUMPDEST PUSH2 0x4A PUSH1 0x4 DUP1 CALLDATASIZE SUB DUP2 ADD SWAP1 PUSH2 0x45 SWAP2 SWAP1 PUSH2 0x274 JUMP JUMPDEST PUSH2 0x60 JUMP JUMPDEST PUSH1 0x40 MLOAD PUSH2 0x57 SWAP2 SWAP1 PUSH2 0x3AC JUMP JUMPDEST PUSH1 0x40 MLOAD DUP1 SWAP2 SUB SWAP1 RETURN JUMPDEST PUSH2 0x68 PUSH2 0x1BB JUMP JUMPDEST PUSH1 0x2 DUP3 PUSH1 0x40 MLOAD PUSH2 0x78 SWAP2 SWAP1 PUSH2 0x395 JUMP JUMPDEST SWAP1 DUP2 MSTORE PUSH1 0x20 ADD PUSH1 0x40 MLOAD DUP1 SWAP2 SUB SWAP1 KECCAK256 PUSH1 0x40 MLOAD DUP1 PUSH1 0x60 ADD PUSH1 0x40 MSTORE SWAP1 DUP2 PUSH1 0x0 DUP3 ADD DUP1 SLOAD PUSH2 0xA1 SWAP1 PUSH2 0x4E4 JUMP JUMPDEST DUP1 PUSH1 0x1F ADD PUSH1 0x20 DUP1 SWAP2 DIV MUL PUSH1 0x20 ADD PUSH1 0x40 MLOAD SWAP1 DUP2 ADD PUSH1 0x40 MSTORE DUP1 SWAP3 SWAP2 SWAP1 DUP2 DUP2 MSTORE PUSH1 0x20 ADD DUP3 DUP1 SLOAD PUSH2 0xCD SWAP1 PUSH2 0x4E4 JUMP JUMPDEST DUP1 ISZERO PUSH2 0x11A JUMPI DUP1 PUSH1 0x1F LT PUSH2 0xEF JUMPI PUSH2 0x100 DUP1 DUP4 SLOAD DIV MUL DUP4 MSTORE SWAP2 PUSH1 0x20 ADD SWAP2 PUSH2 0x11A JUMP JUMPDEST DUP3 ADD SWAP2 SWAP1 PUSH1 0x0 MSTORE PUSH1 0x20 PUSH1 0x0 KECCAK256 SWAP1 JUMPDEST DUP2 SLOAD DUP2 MSTORE SWAP1 PUSH1 0x1 ADD SWAP1 PUSH1 0x20 ADD DUP1 DUP4 GT PUSH2 0xFD JUMPI DUP3 SWAP1 SUB PUSH1 0x1F AND DUP3 ADD SWAP2 JUMPDEST POP POP POP POP POP DUP2 MSTORE PUSH1 0x20 ADD PUSH1 0x1 DUP3 ADD PUSH1 0x0 SWAP1 SLOAD SWAP1 PUSH2 0x100 EXP SWAP1 DIV PUSH20 0xFFFFFFFFFFFFFFFFFFFFFFFFFFFFFFFFFFFFFFFF AND PUSH20 0xFFFFFFFFFFFFFFFFFFFFFFFFFFFFFFFFFFFFFFFF AND PUSH20 0xFFFFFFFFFFFFFFFFFFFFFFFFFFFFFFFFFFFFFFFF AND DUP2 MSTORE PUSH1 0x20 ADD PUSH1 0x1 DUP3 ADD PUSH1 0x14 SWAP1 SLOAD SWAP1 PUSH2 0x100 EXP SWAP1 DIV PUSH1 0xFF AND PUSH1 0x2 DUP2 GT ISZERO PUSH2 0x19E JUMPI PUSH2 0x19D PUSH2 0x547 JUMP JUMPDEST JUMPDEST PUSH1 0x2 DUP2 GT ISZERO PUSH2 0x1B0 JUMPI PUSH2 0x1AF PUSH2 0x547 JUMP JUMPDEST JUMPDEST DUP2 MSTORE POP POP SWAP1 POP SWAP2 SWAP1 POP JUMP JUMPDEST PUSH1 0x40 MLOAD DUP1 PUSH1 0x60 ADD PUSH1 0x40 MSTORE DUP1 PUSH1 0x60 DUP2 MSTORE PUSH1 0x20 ADD PUSH1 0x0 PUSH20 0xFFFFFFFFFFFFFFFFFFFFFFFFFFFFFFFFFFFFFFFF AND DUP2 MSTORE PUSH1 0x20 ADD PUSH1 0x0 PUSH1 0x2 DUP2 GT ISZERO PUSH2 0x1FE JUMPI PUSH2 0x1FD PUSH2 0x547 JUMP JUMPDEST JUMPDEST DUP2 MSTORE POP SWAP1 JUMP JUMPDEST PUSH1 0x0 PUSH2 0x217 PUSH2 0x212 DUP5 PUSH2 0x3F3 JUMP JUMPDEST PUSH2 0x3CE JUMP JUMPDEST SWAP1 POP DUP3 DUP2 MSTORE PUSH1 0x20 DUP2 ADD DUP5 DUP5 DUP5 ADD GT ISZERO PUSH2 0x233 JUMPI PUSH2 0x232 PUSH2 0x5D9 JUMP JUMPDEST JUMPDEST PUSH2 0x23E DUP5 DUP3 DUP6 PUSH2 0x4A2 JUMP JUMPDEST POP SWAP4 SWAP3 POP POP POP JUMP JUMPDEST PUSH1 0x0 DUP3 PUSH1 0x1F DUP4 ADD SLT PUSH2 0x25B JUMPI PUSH2 0x25A PUSH2 0x5D4 JUMP JUMPDEST JUMPDEST DUP2 CALLDATALOAD PUSH2 0x26B DUP5 DUP3 PUSH1 0x20 DUP7 ADD PUSH2 0x204 JUMP JUMPDEST SWAP2 POP POP SWAP3 SWAP2 POP POP JUMP JUMPDEST PUSH1 0x0 PUSH1 0x20 DUP3 DUP5 SUB SLT ISZERO PUSH2 0x28A JUMPI PUSH2 0x289 PUSH2 0x5E3 JUMP JUMPDEST JUMPDEST PUSH1 0x0 DUP3 ADD CALLDATALOAD PUSH8 0xFFFFFFFFFFFFFFFF DUP2 GT ISZERO PUSH2 0x2A8 JUMPI PUSH2 0x2A7 PUSH2 0x5DE JUMP JUMPDEST JUMPDEST PUSH2 0x2B4 DUP5 DUP3 DUP6 ADD PUSH2 0x246 JUMP JUMPDEST SWAP2 POP POP SWAP3 SWAP2 POP POP JUMP JUMPDEST PUSH2 0x2C6 DUP2 PUSH2 0x44B JUMP JUMPDEST DUP3 MSTORE POP POP JUMP JUMPDEST PUSH2 0x2D5 DUP2 PUSH2 0x490 JUMP JUMPDEST DUP3 MSTORE POP POP JUMP JUMPDEST PUSH1 0x0 PUSH2 0x2E6 DUP3 PUSH2 0x424 JUMP JUMPDEST PUSH2 0x2F0 DUP2 DUP6 PUSH2 0x42F JUMP JUMPDEST SWAP4 POP PUSH2 0x300 DUP2 DUP6 PUSH1 0x20 DUP7 ADD PUSH2 0x4B1 JUMP JUMPDEST PUSH2 0x309 DUP2 PUSH2 0x5E8 JUMP JUMPDEST DUP5 ADD SWAP2 POP POP SWAP3 SWAP2 POP POP JUMP JUMPDEST PUSH1 0x0 PUSH2 0x31F DUP3 PUSH2 0x424 JUMP JUMPDEST PUSH2 0x329 DUP2 DUP6 PUSH2 0x440 JUMP JUMPDEST SWAP4 POP PUSH2 0x339 DUP2 DUP6 PUSH1 0x20 DUP7 ADD PUSH2 0x4B1 JUMP JUMPDEST DUP1 DUP5 ADD SWAP2 POP POP SWAP3 SWAP2 POP POP JUMP JUMPDEST PUSH1 0x0 PUSH1 0x60 DUP4 ADD PUSH1 0x0 DUP4 ADD MLOAD DUP5 DUP3 SUB PUSH1 0x0 DUP7 ADD MSTORE PUSH2 0x362 DUP3 DUP3 PUSH2 0x2DB JUMP JUMPDEST SWAP2 POP POP PUSH1 0x20 DUP4 ADD MLOAD PUSH2 0x377 PUSH1 0x20 DUP7 ADD DUP3 PUSH2 0x2BD JUMP JUMPDEST POP PUSH1 0x40 DUP4 ADD MLOAD PUSH2 0x38A PUSH1 0x40 DUP7 ADD DUP3 PUSH2 0x2CC JUMP JUMPDEST POP DUP1 SWAP2 POP POP SWAP3 SWAP2 POP POP JUMP JUMPDEST PUSH1 0x0 PUSH2 0x3A1 DUP3 DUP5 PUSH2 0x314 JUMP JUMPDEST SWAP2 POP DUP2 SWAP1 POP SWAP3 SWAP2 POP POP JUMP JUMPDEST PUSH1 0x0 PUSH1 0x20 DUP3 ADD SWAP1 POP DUP2 DUP2 SUB PUSH1 0x0 DUP4 ADD MSTORE PUSH2 0x3C6 DUP2 DUP5 PUSH2 0x345 JUMP JUMPDEST SWAP1 POP SWAP3 SWAP2 POP POP JUMP JUMPDEST PUSH1 0x0 PUSH2 0x3D8 PUSH2 0x3E9 JUMP JUMPDEST SWAP1 POP PUSH2 0x3E4 DUP3 DUP3 PUSH2 0x516 JUMP JUMPDEST SWAP2 SWAP1 POP JUMP JUMPDEST PUSH1 0x0 PUSH1 0x40 MLOAD SWAP1 POP SWAP1 JUMP JUMPDEST PUSH1 0x0 PUSH8 0xFFFFFFFFFFFFFFFF DUP3 GT ISZERO PUSH2 0x40E JUMPI PUSH2 0x40D PUSH2 0x5A5 JUMP JUMPDEST JUMPDEST PUSH2 0x417 DUP3 PUSH2 0x5E8 JUMP JUMPDEST SWAP1 POP PUSH1 0x20 DUP2 ADD SWAP1 POP SWAP2 SWAP1 POP JUMP JUMPDEST PUSH1 0x0 DUP2 MLOAD SWAP1 POP SWAP2 SWAP1 POP JUMP JUMPDEST PUSH1 0x0 DUP3 DUP3 MSTORE PUSH1 0x20 DUP3 ADD SWAP1 POP SWAP3 SWAP2 POP POP JUMP JUMPDEST PUSH1 0x0 DUP2 SWAP1 POP SWAP3 SWAP2 POP POP JUMP JUMPDEST PUSH1 0x0 PUSH2 0x456 DUP3 PUSH2 0x470 JUMP JUMPDEST SWAP1 POP SWAP2 SWAP1 POP JUMP JUMPDEST PUSH1 0x0 DUP2 SWAP1 POP PUSH2 0x46B DUP3 PUSH2 0x5F9 JUMP JUMPDEST SWAP2 SWAP1 POP JUMP JUMPDEST PUSH1 0x0 PUSH20 0xFFFFFFFFFFFFFFFFFFFFFFFFFFFFFFFFFFFFFFFF DUP3 AND SWAP1 POP SWAP2 SWAP1 POP JUMP JUMPDEST PUSH1 0x0 PUSH2 0x49B DUP3 PUSH2 0x45D JUMP JUMPDEST SWAP1 POP SWAP2 SWAP1 POP JUMP JUMPDEST DUP3 DUP2 DUP4 CALLDATACOPY PUSH1 0x0 DUP4 DUP4 ADD MSTORE POP POP POP JUMP JUMPDEST PUSH1 0x0 JUMPDEST DUP4 DUP2 LT ISZERO PUSH2 0x4CF JUMPI DUP1 DUP3 ADD MLOAD DUP2 DUP5 ADD MSTORE PUSH1 0x20 DUP2 ADD SWAP1 POP PUSH2 0x4B4 JUMP JUMPDEST DUP4 DUP2 GT ISZERO PUSH2 0x4DE JUMPI PUSH1 0x0 DUP5 DUP5 ADD MSTORE JUMPDEST POP POP POP POP JUMP JUMPDEST PUSH1 0x0 PUSH1 0x2 DUP3 DIV SWAP1 POP PUSH1 0x1 DUP3 AND DUP1 PUSH2 0x4FC JUMPI PUSH1 0x7F DUP3 AND SWAP2 POP JUMPDEST PUSH1 0x20 DUP3 LT DUP2 EQ ISZERO PUSH2 0x510 JUMPI PUSH2 0x50F PUSH2 0x576 JUMP JUMPDEST JUMPDEST POP SWAP2 SWAP1 POP JUMP JUMPDEST PUSH2 0x51F DUP3 PUSH2 0x5E8 JUMP JUMPDEST DUP2 ADD DUP2 DUP2 LT PUSH8 0xFFFFFFFFFFFFFFFF DUP3 GT OR ISZERO PUSH2 0x53E JUMPI PUSH2 0x53D PUSH2 0x5A5 JUMP JUMPDEST JUMPDEST DUP1 PUSH1 0x40 MSTORE POP POP POP JUMP JUMPDEST PUSH32 0x4E487B7100000000000000000000000000000000000000000000000000000000 PUSH1 0x0 MSTORE PUSH1 0x21 PUSH1 0x4 MSTORE PUSH1 0x24 PUSH1 0x0 REVERT JUMPDEST PUSH32 0x4E487B7100000000000000000000000000000000000000000000000000000000 PUSH1 0x0 MSTORE PUSH1 0x22 PUSH1 0x4 MSTORE PUSH1 0x24 PUSH1 0x0 REVERT JUMPDEST PUSH32 0x4E487B7100000000000000000000000000000000000000000000000000000000 PUSH1 0x0 MSTORE PUSH1 0x41 PUSH1 0x4 MSTORE PUSH1 0x24 PUSH1 0x0 REVERT JUMPDEST PUSH1 0x0 DUP1 REVERT JUMPDEST PUSH1 0x0 DUP1 REVERT JUMPDEST PUSH1 0x0 DUP1 REVERT JUMPDEST PUSH1 0x0 DUP1 REVERT JUMPDEST PUSH1 0x0 PUSH1 0x1F NOT PUSH1 0x1F DUP4 ADD AND SWAP1 POP SWAP2 SWAP1 POP JUMP JUMPDEST PUSH1 0x3 DUP2 LT PUSH2 0x60A JUMPI PUSH2 0x609 PUSH2 0x547 JUMP JUMPDEST JUMPDEST POP JUMP INVALID LOG2 PUSH5 0x6970667358 0x22 SLT KECCAK256 0x2E 0xFB DUP4 0xD1 DUP2 0xD1 PC XOR 0xAB 0xC9 JUMP SUB PUSH25 0xB8F7F596ED859571CD2B73EB5CD290340E4D8164736F6C6343 STOP ADDMOD SMOD STOP CALLER "
				},
				"gasEstimates": {
					"creation": {
						"codeDepositCost": "320600",
						"executionCost": "362",
						"totalCost": "320962"
					},
					"external": {
						"ReadDrug(string)": "infinite"
					}
				},
				"methodIdentifiers": {
					"ReadDrug(string)": "cdf7e73d"
				}
			},
			"storageLayout": {
				"storage": [
					{
						"astId": 117,
						"contract": "contracts/Utils.sol:Utils",
						"label": "UserIDsMapping",
						"offset": 0,
						"slot": "0",
						"type": "t_mapping(t_string_memory_ptr,t_struct(User)112_storage)"
					},
					{
						"astId": 120,
						"contract": "contracts/Utils.sol:Utils",
						"label": "UsersIDs",
						"offset": 0,
						"slot": "1",
						"type": "t_array(t_string_storage)dyn_storage"
					},
					{
						"astId": 141,
						"contract": "contracts/Utils.sol:Utils",
						"label": "DrugRegNoMapping",
						"offset": 0,
						"slot": "2",
						"type": "t_mapping(t_string_memory_ptr,t_struct(Drug)128_storage)"
					},
					{
						"astId": 144,
						"contract": "contracts/Utils.sol:Utils",
						"label": "DrugsRegNos",
						"offset": 0,
						"slot": "3",
						"type": "t_array(t_string_storage)dyn_storage"
					}
				],
				"types": {
					"t_address": {
						"encoding": "inplace",
						"label": "address",
						"numberOfBytes": "20"
					},
					"t_array(t_string_storage)dyn_storage": {
						"base": "t_string_storage",
						"encoding": "dynamic_array",
						"label": "string[]",
						"numberOfBytes": "32"
					},
					"t_enum(Statuses)89": {
						"encoding": "inplace",
						"label": "enum Utils.Statuses",
						"numberOfBytes": "1"
					},
					"t_enum(UserRoles)97": {
						"encoding": "inplace",
						"label": "enum Utils.UserRoles",
						"numberOfBytes": "1"
					},
					"t_mapping(t_string_memory_ptr,t_struct(Drug)128_storage)": {
						"encoding": "mapping",
						"key": "t_string_memory_ptr",
						"label": "mapping(string => struct Utils.Drug)",
						"numberOfBytes": "32",
						"value": "t_struct(Drug)128_storage"
					},
					"t_mapping(t_string_memory_ptr,t_struct(User)112_storage)": {
						"encoding": "mapping",
						"key": "t_string_memory_ptr",
						"label": "mapping(string => struct Utils.User)",
						"numberOfBytes": "32",
						"value": "t_struct(User)112_storage"
					},
					"t_string_memory_ptr": {
						"encoding": "bytes",
						"label": "string",
						"numberOfBytes": "32"
					},
					"t_string_storage": {
						"encoding": "bytes",
						"label": "string",
						"numberOfBytes": "32"
					},
					"t_struct(Drug)128_storage": {
						"encoding": "inplace",
						"label": "struct Utils.Drug",
						"members": [
							{
								"astId": 122,
								"contract": "contracts/Utils.sol:Utils",
								"label": "DrugName",
								"offset": 0,
								"slot": "0",
								"type": "t_string_storage"
							},
							{
								"astId": 124,
								"contract": "contracts/Utils.sol:Utils",
								"label": "Manufacturer",
								"offset": 0,
								"slot": "1",
								"type": "t_address"
							},
							{
								"astId": 127,
								"contract": "contracts/Utils.sol:Utils",
								"label": "DrugStatus",
								"offset": 20,
								"slot": "1",
								"type": "t_enum(Statuses)89"
							}
						],
						"numberOfBytes": "64"
					},
					"t_struct(User)112_storage": {
						"encoding": "inplace",
						"label": "struct Utils.User",
						"members": [
							{
								"astId": 99,
								"contract": "contracts/Utils.sol:Utils",
								"label": "UserName",
								"offset": 0,
								"slot": "0",
								"type": "t_string_storage"
							},
							{
								"astId": 102,
								"contract": "contracts/Utils.sol:Utils",
								"label": "UserRole",
								"offset": 0,
								"slot": "1",
								"type": "t_enum(UserRoles)97"
							},
							{
								"astId": 105,
								"contract": "contracts/Utils.sol:Utils",
								"label": "UserStatus",
								"offset": 1,
								"slot": "1",
								"type": "t_enum(Statuses)89"
							},
							{
								"astId": 107,
								"contract": "contracts/Utils.sol:Utils",
								"label": "Latitude",
								"offset": 0,
								"slot": "2",
								"type": "t_uint256"
							},
							{
								"astId": 109,
								"contract": "contracts/Utils.sol:Utils",
								"label": "Longitude",
								"offset": 0,
								"slot": "3",
								"type": "t_uint256"
							},
							{
								"astId": 111,
								"contract": "contracts/Utils.sol:Utils",
								"label": "UserAddress",
								"offset": 0,
								"slot": "4",
								"type": "t_address"
							}
						],
						"numberOfBytes": "160"
					},
					"t_uint256": {
						"encoding": "inplace",
						"label": "uint256",
						"numberOfBytes": "32"
					}
				}
			},
			"userdoc": {
				"kind": "user",
				"methods": {},
				"version": 1
			}
		}
	}
}