{
	"contracts/Test.sol": {
		"CrudApp": {
			"abi": [
				{
					"inputs": [],
					"stateMutability": "nonpayable",
					"type": "constructor"
				},
				{
					"anonymous": false,
					"inputs": [
						{
							"indexed": false,
							"internalType": "string",
							"name": "countryName",
							"type": "string"
						}
					],
					"name": "CountryDelete",
					"type": "event"
				},
				{
					"anonymous": false,
					"inputs": [
						{
							"indexed": false,
							"internalType": "string",
							"name": "countryName",
							"type": "string"
						},
						{
							"indexed": false,
							"internalType": "string",
							"name": "leader",
							"type": "string"
						},
						{
							"indexed": false,
							"internalType": "uint256",
							"name": "population",
							"type": "uint256"
						}
					],
					"name": "CountryEvent",
					"type": "event"
				},
				{
					"anonymous": false,
					"inputs": [
						{
							"indexed": false,
							"internalType": "string",
							"name": "countryName",
							"type": "string"
						},
						{
							"indexed": false,
							"internalType": "string",
							"name": "leader",
							"type": "string"
						}
					],
					"name": "LeaderUpdated",
					"type": "event"
				},
				{
					"inputs": [
						{
							"internalType": "uint256",
							"name": "",
							"type": "uint256"
						}
					],
					"name": "countries",
					"outputs": [
						{
							"internalType": "string",
							"name": "name",
							"type": "string"
						},
						{
							"internalType": "string",
							"name": "leader",
							"type": "string"
						},
						{
							"internalType": "uint256",
							"name": "population",
							"type": "uint256"
						}
					],
					"stateMutability": "view",
					"type": "function"
				},
				{
					"inputs": [
						{
							"internalType": "string",
							"name": "countryName",
							"type": "string"
						}
					],
					"name": "deleteCountry",
					"outputs": [
						{
							"internalType": "bool",
							"name": "success",
							"type": "bool"
						}
					],
					"stateMutability": "nonpayable",
					"type": "function"
				},
				{
					"inputs": [],
					"name": "getCountries",
					"outputs": [
						{
							"internalType": "uint256",
							"name": "length",
							"type": "uint256"
						}
					],
					"stateMutability": "view",
					"type": "function"
				},
				{
					"inputs": [
						{
							"internalType": "string",
							"name": "countryName",
							"type": "string"
						}
					],
					"name": "getCountry",
					"outputs": [
						{
							"internalType": "string",
							"name": "name",
							"type": "string"
						},
						{
							"internalType": "string",
							"name": "leader",
							"type": "string"
						},
						{
							"internalType": "uint256",
							"name": "population",
							"type": "uint256"
						}
					],
					"stateMutability": "view",
					"type": "function"
				},
				{
					"inputs": [],
					"name": "getTotalCountries",
					"outputs": [
						{
							"internalType": "uint256",
							"name": "length",
							"type": "uint256"
						}
					],
					"stateMutability": "view",
					"type": "function"
				},
				{
					"inputs": [
						{
							"internalType": "string",
							"name": "countryName",
							"type": "string"
						},
						{
							"internalType": "string",
							"name": "leader",
							"type": "string"
						},
						{
							"internalType": "uint256",
							"name": "population",
							"type": "uint256"
						}
					],
					"name": "insert",
					"outputs": [
						{
							"internalType": "uint256",
							"name": "_totalCountries",
							"type": "uint256"
						}
					],
					"stateMutability": "nonpayable",
					"type": "function"
				},
				{
					"inputs": [],
					"name": "totalCountries",
					"outputs": [
						{
							"internalType": "uint256",
							"name": "",
							"type": "uint256"
						}
					],
					"stateMutability": "view",
					"type": "function"
				},
				{
					"inputs": [
						{
							"internalType": "string",
							"name": "countryName",
							"type": "string"
						},
						{
							"internalType": "string",
							"name": "newLeader",
							"type": "string"
						}
					],
					"name": "updateLeader",
					"outputs": [
						{
							"internalType": "bool",
							"name": "success",
							"type": "bool"
						}
					],
					"stateMutability": "nonpayable",
					"type": "function"
				}
			],
			"devdoc": {
				"kind": "dev",
				"methods": {},
				"version": 1
			},
			"evm": {
				"assembly": "    /* \"contracts/Test.sol\":97:3003  contract CrudApp {\r... */\n  mstore(0x40, 0x80)\n    /* \"contracts/Test.sol\":304:353  constructor() {\r... */\n  callvalue\n  dup1\n  iszero\n  tag_1\n  jumpi\n  0x00\n  dup1\n  revert\ntag_1:\n  pop\n    /* \"contracts/Test.sol\":345:346  0 */\n  0x00\n    /* \"contracts/Test.sol\":328:342  totalCountries */\n  0x01\n    /* \"contracts/Test.sol\":328:346  totalCountries = 0 */\n  dup2\n  swap1\n  sstore\n  pop\n    /* \"contracts/Test.sol\":97:3003  contract CrudApp {\r... */\n  dataSize(sub_0)\n  dup1\n  dataOffset(sub_0)\n  0x00\n  codecopy\n  0x00\n  return\nstop\n\nsub_0: assembly {\n        /* \"contracts/Test.sol\":97:3003  contract CrudApp {\r... */\n      mstore(0x40, 0x80)\n      callvalue\n      dup1\n      iszero\n      tag_1\n      jumpi\n      0x00\n      dup1\n      revert\n    tag_1:\n      pop\n      jumpi(tag_2, lt(calldatasize, 0x04))\n      shr(0xe0, calldataload(0x00))\n      dup1\n      0xacf75458\n      gt\n      tag_11\n      jumpi\n      dup1\n      0xacf75458\n      eq\n      tag_7\n      jumpi\n      dup1\n      0xbeca8009\n      eq\n      tag_8\n      jumpi\n      dup1\n      0xc1356d26\n      eq\n      tag_9\n      jumpi\n      dup1\n      0xcae65058\n      eq\n      tag_10\n      jumpi\n      jump(tag_2)\n    tag_11:\n      dup1\n      0x08e9daa5\n      eq\n      tag_3\n      jumpi\n      dup1\n      0x62738129\n      eq\n      tag_4\n      jumpi\n      dup1\n      0x81ba02be\n      eq\n      tag_5\n      jumpi\n      dup1\n      0x848924cb\n      eq\n      tag_6\n      jumpi\n    tag_2:\n      0x00\n      dup1\n      revert\n        /* \"contracts/Test.sol\":225:251  country[] public countries */\n    tag_3:\n      tag_12\n      0x04\n      dup1\n      calldatasize\n      sub\n      dup2\n      add\n      swap1\n      tag_13\n      swap2\n      swap1\n      tag_14\n      jump\t// in\n    tag_13:\n      tag_15\n      jump\t// in\n    tag_12:\n      mload(0x40)\n      tag_16\n      swap4\n      swap3\n      swap2\n      swap1\n      tag_17\n      jump\t// in\n    tag_16:\n      mload(0x40)\n      dup1\n      swap2\n      sub\n      swap1\n      return\n        /* \"contracts/Test.sol\":260:289  uint256 public totalCountries */\n    tag_4:\n      tag_18\n      tag_19\n      jump\t// in\n    tag_18:\n      mload(0x40)\n      tag_20\n      swap2\n      swap1\n      tag_21\n      jump\t// in\n    tag_20:\n      mload(0x40)\n      dup1\n      swap2\n      sub\n      swap1\n      return\n        /* \"contracts/Test.sol\":966:1414  function updateLeader(string memory countryName, string memory newLeader) public returns (bool success){\r... */\n    tag_5:\n      tag_22\n      0x04\n      dup1\n      calldatasize\n      sub\n      dup2\n      add\n      swap1\n      tag_23\n      swap2\n      swap1\n      tag_24\n      jump\t// in\n    tag_23:\n      tag_25\n      jump\t// in\n    tag_22:\n      mload(0x40)\n      tag_26\n      swap2\n      swap1\n      tag_27\n      jump\t// in\n    tag_26:\n      mload(0x40)\n      dup1\n      swap2\n      sub\n      swap1\n      return\n        /* \"contracts/Test.sol\":2152:2585  function getCountry(string memory countryName) public view returns(string memory name , string memory leader , uint256 population){\r... */\n    tag_6:\n      tag_28\n      0x04\n      dup1\n      calldatasize\n      sub\n      dup2\n      add\n      swap1\n      tag_29\n      swap2\n      swap1\n      tag_30\n      jump\t// in\n    tag_29:\n      tag_31\n      jump\t// in\n    tag_28:\n      mload(0x40)\n      tag_32\n      swap4\n      swap3\n      swap2\n      swap1\n      tag_17\n      jump\t// in\n    tag_32:\n      mload(0x40)\n      dup1\n      swap2\n      sub\n      swap1\n      return\n        /* \"contracts/Test.sol\":2790:2894  function getTotalCountries() public view returns (uint256 length){\r... */\n    tag_7:\n      tag_33\n      tag_34\n      jump\t// in\n    tag_33:\n      mload(0x40)\n      tag_35\n      swap2\n      swap1\n      tag_21\n      jump\t// in\n    tag_35:\n      mload(0x40)\n      dup1\n      swap2\n      sub\n      swap1\n      return\n        /* \"contracts/Test.sol\":2901:3000  function getCountries() public view returns (uint256 length){\r... */\n    tag_8:\n      tag_36\n      tag_37\n      jump\t// in\n    tag_36:\n      mload(0x40)\n      tag_38\n      swap2\n      swap1\n      tag_21\n      jump\t// in\n    tag_38:\n      mload(0x40)\n      dup1\n      swap2\n      sub\n      swap1\n      return\n        /* \"contracts/Test.sol\":561:956  function insert( string memory countryName , string memory leader , uint256 population) public returns (uint256 _totalCountries){\r... */\n    tag_9:\n      tag_39\n      0x04\n      dup1\n      calldatasize\n      sub\n      dup2\n      add\n      swap1\n      tag_40\n      swap2\n      swap1\n      tag_41\n      jump\t// in\n    tag_40:\n      tag_42\n      jump\t// in\n    tag_39:\n      mload(0x40)\n      tag_43\n      swap2\n      swap1\n      tag_21\n      jump\t// in\n    tag_43:\n      mload(0x40)\n      dup1\n      swap2\n      sub\n      swap1\n      return\n        /* \"contracts/Test.sol\":1424:2135  function deleteCountry(string memory countryName) public returns(bool success){\r... */\n    tag_10:\n      tag_44\n      0x04\n      dup1\n      calldatasize\n      sub\n      dup2\n      add\n      swap1\n      tag_45\n      swap2\n      swap1\n      tag_30\n      jump\t// in\n    tag_45:\n      tag_46\n      jump\t// in\n    tag_44:\n      mload(0x40)\n      tag_47\n      swap2\n      swap1\n      tag_27\n      jump\t// in\n    tag_47:\n      mload(0x40)\n      dup1\n      swap2\n      sub\n      swap1\n      return\n        /* \"contracts/Test.sol\":225:251  country[] public countries */\n    tag_15:\n      0x00\n      dup2\n      dup2\n      sload\n      dup2\n      lt\n      tag_48\n      jumpi\n      0x00\n      dup1\n      revert\n    tag_48:\n      swap1\n      0x00\n      mstore\n      keccak256(0x00, 0x20)\n      swap1\n      0x03\n      mul\n      add\n      0x00\n      swap2\n      pop\n      swap1\n      pop\n      dup1\n      0x00\n      add\n      dup1\n      sload\n      tag_50\n      swap1\n      tag_51\n      jump\t// in\n    tag_50:\n      dup1\n      0x1f\n      add\n      0x20\n      dup1\n      swap2\n      div\n      mul\n      0x20\n      add\n      mload(0x40)\n      swap1\n      dup2\n      add\n      0x40\n      mstore\n      dup1\n      swap3\n      swap2\n      swap1\n      dup2\n      dup2\n      mstore\n      0x20\n      add\n      dup3\n      dup1\n      sload\n      tag_52\n      swap1\n      tag_51\n      jump\t// in\n    tag_52:\n      dup1\n      iszero\n      tag_53\n      jumpi\n      dup1\n      0x1f\n      lt\n      tag_54\n      jumpi\n      0x0100\n      dup1\n      dup4\n      sload\n      div\n      mul\n      dup4\n      mstore\n      swap2\n      0x20\n      add\n      swap2\n      jump(tag_53)\n    tag_54:\n      dup3\n      add\n      swap2\n      swap1\n      0x00\n      mstore\n      keccak256(0x00, 0x20)\n      swap1\n    tag_55:\n      dup2\n      sload\n      dup2\n      mstore\n      swap1\n      0x01\n      add\n      swap1\n      0x20\n      add\n      dup1\n      dup4\n      gt\n      tag_55\n      jumpi\n      dup3\n      swap1\n      sub\n      0x1f\n      and\n      dup3\n      add\n      swap2\n    tag_53:\n      pop\n      pop\n      pop\n      pop\n      pop\n      swap1\n      dup1\n      0x01\n      add\n      dup1\n      sload\n      tag_56\n      swap1\n      tag_51\n      jump\t// in\n    tag_56:\n      dup1\n      0x1f\n      add\n      0x20\n      dup1\n      swap2\n      div\n      mul\n      0x20\n      add\n      mload(0x40)\n      swap1\n      dup2\n      add\n      0x40\n      mstore\n      dup1\n      swap3\n      swap2\n      swap1\n      dup2\n      dup2\n      mstore\n      0x20\n      add\n      dup3\n      dup1\n      sload\n      tag_57\n      swap1\n      tag_51\n      jump\t// in\n    tag_57:\n      dup1\n      iszero\n      tag_58\n      jumpi\n      dup1\n      0x1f\n      lt\n      tag_59\n      jumpi\n      0x0100\n      dup1\n      dup4\n      sload\n      div\n      mul\n      dup4\n      mstore\n      swap2\n      0x20\n      add\n      swap2\n      jump(tag_58)\n    tag_59:\n      dup3\n      add\n      swap2\n      swap1\n      0x00\n      mstore\n      keccak256(0x00, 0x20)\n      swap1\n    tag_60:\n      dup2\n      sload\n      dup2\n      mstore\n      swap1\n      0x01\n      add\n      swap1\n      0x20\n      add\n      dup1\n      dup4\n      gt\n      tag_60\n      jumpi\n      dup3\n      swap1\n      sub\n      0x1f\n      and\n      dup3\n      add\n      swap2\n    tag_58:\n      pop\n      pop\n      pop\n      pop\n      pop\n      swap1\n      dup1\n      0x02\n      add\n      sload\n      swap1\n      pop\n      dup4\n      jump\t// out\n        /* \"contracts/Test.sol\":260:289  uint256 public totalCountries */\n    tag_19:\n      sload(0x01)\n      dup2\n      jump\t// out\n        /* \"contracts/Test.sol\":966:1414  function updateLeader(string memory countryName, string memory newLeader) public returns (bool success){\r... */\n    tag_25:\n        /* \"contracts/Test.sol\":1056:1068  bool success */\n      0x00\n        /* \"contracts/Test.sol\":1125:1134  uint256 i */\n      dup1\n        /* \"contracts/Test.sol\":1136:1137  0 */\n      0x00\n        /* \"contracts/Test.sol\":1125:1137  uint256 i =0 */\n      swap1\n      pop\n        /* \"contracts/Test.sol\":1121:1386  for(uint256 i =0; i< totalCountries; i++){\r... */\n    tag_62:\n        /* \"contracts/Test.sol\":1142:1156  totalCountries */\n      sload(0x01)\n        /* \"contracts/Test.sol\":1139:1140  i */\n      dup2\n        /* \"contracts/Test.sol\":1139:1156  i< totalCountries */\n      lt\n        /* \"contracts/Test.sol\":1121:1386  for(uint256 i =0; i< totalCountries; i++){\r... */\n      iszero\n      tag_63\n      jumpi\n        /* \"contracts/Test.sol\":1179:1225  compareStrings(countries[i].name ,countryName) */\n      tag_65\n        /* \"contracts/Test.sol\":1194:1203  countries */\n      0x00\n        /* \"contracts/Test.sol\":1204:1205  i */\n      dup3\n        /* \"contracts/Test.sol\":1194:1206  countries[i] */\n      dup2\n      sload\n      dup2\n      lt\n      tag_66\n      jumpi\n      tag_67\n      tag_68\n      jump\t// in\n    tag_67:\n    tag_66:\n      swap1\n      0x00\n      mstore\n      keccak256(0x00, 0x20)\n      swap1\n      0x03\n      mul\n      add\n        /* \"contracts/Test.sol\":1194:1211  countries[i].name */\n      0x00\n      add\n        /* \"contracts/Test.sol\":1179:1225  compareStrings(countries[i].name ,countryName) */\n      dup1\n      sload\n      tag_70\n      swap1\n      tag_51\n      jump\t// in\n    tag_70:\n      dup1\n      0x1f\n      add\n      0x20\n      dup1\n      swap2\n      div\n      mul\n      0x20\n      add\n      mload(0x40)\n      swap1\n      dup2\n      add\n      0x40\n      mstore\n      dup1\n      swap3\n      swap2\n      swap1\n      dup2\n      dup2\n      mstore\n      0x20\n      add\n      dup3\n      dup1\n      sload\n      tag_71\n      swap1\n      tag_51\n      jump\t// in\n    tag_71:\n      dup1\n      iszero\n      tag_72\n      jumpi\n      dup1\n      0x1f\n      lt\n      tag_73\n      jumpi\n      0x0100\n      dup1\n      dup4\n      sload\n      div\n      mul\n      dup4\n      mstore\n      swap2\n      0x20\n      add\n      swap2\n      jump(tag_72)\n    tag_73:\n      dup3\n      add\n      swap2\n      swap1\n      0x00\n      mstore\n      keccak256(0x00, 0x20)\n      swap1\n    tag_74:\n      dup2\n      sload\n      dup2\n      mstore\n      swap1\n      0x01\n      add\n      swap1\n      0x20\n      add\n      dup1\n      dup4\n      gt\n      tag_74\n      jumpi\n      dup3\n      swap1\n      sub\n      0x1f\n      and\n      dup3\n      add\n      swap2\n    tag_72:\n      pop\n      pop\n      pop\n      pop\n      pop\n        /* \"contracts/Test.sol\":1213:1224  countryName */\n      dup6\n        /* \"contracts/Test.sol\":1179:1193  compareStrings */\n      tag_75\n        /* \"contracts/Test.sol\":1179:1225  compareStrings(countries[i].name ,countryName) */\n      jump\t// in\n    tag_65:\n        /* \"contracts/Test.sol\":1176:1376  if(compareStrings(countries[i].name ,countryName)){\r... */\n      iszero\n      tag_76\n      jumpi\n        /* \"contracts/Test.sol\":1265:1274  newLeader */\n      dup3\n        /* \"contracts/Test.sol\":1243:1252  countries */\n      0x00\n        /* \"contracts/Test.sol\":1253:1254  i */\n      dup3\n        /* \"contracts/Test.sol\":1243:1255  countries[i] */\n      dup2\n      sload\n      dup2\n      lt\n      tag_77\n      jumpi\n      tag_78\n      tag_68\n      jump\t// in\n    tag_78:\n    tag_77:\n      swap1\n      0x00\n      mstore\n      keccak256(0x00, 0x20)\n      swap1\n      0x03\n      mul\n      add\n        /* \"contracts/Test.sol\":1243:1262  countries[i].leader */\n      0x01\n      add\n        /* \"contracts/Test.sol\":1243:1274  countries[i].leader = newLeader */\n      swap1\n      dup1\n      mload\n      swap1\n      0x20\n      add\n      swap1\n      tag_80\n      swap3\n      swap2\n      swap1\n      tag_81\n      jump\t// in\n    tag_80:\n      pop\n        /* \"contracts/Test.sol\":1296:1333  LeaderUpdated(countryName, newLeader) */\n      0xdcbffcd2bd990a26d28efebebb6f9a7a35f2abf2f0e25720c56a457fce221158\n        /* \"contracts/Test.sol\":1310:1321  countryName */\n      dup5\n        /* \"contracts/Test.sol\":1323:1332  newLeader */\n      dup5\n        /* \"contracts/Test.sol\":1296:1333  LeaderUpdated(countryName, newLeader) */\n      mload(0x40)\n      tag_82\n      swap3\n      swap2\n      swap1\n      tag_83\n      jump\t// in\n    tag_82:\n      mload(0x40)\n      dup1\n      swap2\n      sub\n      swap1\n      log1\n        /* \"contracts/Test.sol\":1357:1361  true */\n      0x01\n        /* \"contracts/Test.sol\":1350:1361  return true */\n      swap2\n      pop\n      pop\n      jump(tag_61)\n        /* \"contracts/Test.sol\":1176:1376  if(compareStrings(countries[i].name ,countryName)){\r... */\n    tag_76:\n        /* \"contracts/Test.sol\":1158:1161  i++ */\n      dup1\n      dup1\n      tag_84\n      swap1\n      tag_85\n      jump\t// in\n    tag_84:\n      swap2\n      pop\n      pop\n        /* \"contracts/Test.sol\":1121:1386  for(uint256 i =0; i< totalCountries; i++){\r... */\n      jump(tag_62)\n    tag_63:\n      pop\n        /* \"contracts/Test.sol\":1402:1407  false */\n      0x00\n        /* \"contracts/Test.sol\":1395:1407  return false */\n      swap1\n      pop\n        /* \"contracts/Test.sol\":966:1414  function updateLeader(string memory countryName, string memory newLeader) public returns (bool success){\r... */\n    tag_61:\n      swap3\n      swap2\n      pop\n      pop\n      jump\t// out\n        /* \"contracts/Test.sol\":2152:2585  function getCountry(string memory countryName) public view returns(string memory name , string memory leader , uint256 population){\r... */\n    tag_31:\n        /* \"contracts/Test.sol\":2219:2237  string memory name */\n      0x60\n        /* \"contracts/Test.sol\":2240:2260  string memory leader */\n      dup1\n        /* \"contracts/Test.sol\":2263:2281  uint256 population */\n      0x00\n        /* \"contracts/Test.sol\":2297:2306  uint256 i */\n      dup1\n        /* \"contracts/Test.sol\":2308:2309  0 */\n      0x00\n        /* \"contracts/Test.sol\":2297:2309  uint256 i =0 */\n      swap1\n      pop\n        /* \"contracts/Test.sol\":2293:2542  for(uint256 i =0; i< totalCountries; i++){\r... */\n    tag_87:\n        /* \"contracts/Test.sol\":2314:2328  totalCountries */\n      sload(0x01)\n        /* \"contracts/Test.sol\":2311:2312  i */\n      dup2\n        /* \"contracts/Test.sol\":2311:2328  i< totalCountries */\n      lt\n        /* \"contracts/Test.sol\":2293:2542  for(uint256 i =0; i< totalCountries; i++){\r... */\n      iszero\n      tag_88\n      jumpi\n        /* \"contracts/Test.sol\":2351:2397  compareStrings(countries[i].name, countryName) */\n      tag_90\n        /* \"contracts/Test.sol\":2366:2375  countries */\n      0x00\n        /* \"contracts/Test.sol\":2376:2377  i */\n      dup3\n        /* \"contracts/Test.sol\":2366:2378  countries[i] */\n      dup2\n      sload\n      dup2\n      lt\n      tag_91\n      jumpi\n      tag_92\n      tag_68\n      jump\t// in\n    tag_92:\n    tag_91:\n      swap1\n      0x00\n      mstore\n      keccak256(0x00, 0x20)\n      swap1\n      0x03\n      mul\n      add\n        /* \"contracts/Test.sol\":2366:2383  countries[i].name */\n      0x00\n      add\n        /* \"contracts/Test.sol\":2351:2397  compareStrings(countries[i].name, countryName) */\n      dup1\n      sload\n      tag_94\n      swap1\n      tag_51\n      jump\t// in\n    tag_94:\n      dup1\n      0x1f\n      add\n      0x20\n      dup1\n      swap2\n      div\n      mul\n      0x20\n      add\n      mload(0x40)\n      swap1\n      dup2\n      add\n      0x40\n      mstore\n      dup1\n      swap3\n      swap2\n      swap1\n      dup2\n      dup2\n      mstore\n      0x20\n      add\n      dup3\n      dup1\n      sload\n      tag_95\n      swap1\n      tag_51\n      jump\t// in\n    tag_95:\n      dup1\n      iszero\n      tag_96\n      jumpi\n      dup1\n      0x1f\n      lt\n      tag_97\n      jumpi\n      0x0100\n      dup1\n      dup4\n      sload\n      div\n      mul\n      dup4\n      mstore\n      swap2\n      0x20\n      add\n      swap2\n      jump(tag_96)\n    tag_97:\n      dup3\n      add\n      swap2\n      swap1\n      0x00\n      mstore\n      keccak256(0x00, 0x20)\n      swap1\n    tag_98:\n      dup2\n      sload\n      dup2\n      mstore\n      swap1\n      0x01\n      add\n      swap1\n      0x20\n      add\n      dup1\n      dup4\n      gt\n      tag_98\n      jumpi\n      dup3\n      swap1\n      sub\n      0x1f\n      and\n      dup3\n      add\n      swap2\n    tag_96:\n      pop\n      pop\n      pop\n      pop\n      pop\n        /* \"contracts/Test.sol\":2385:2396  countryName */\n      dup7\n        /* \"contracts/Test.sol\":2351:2365  compareStrings */\n      tag_75\n        /* \"contracts/Test.sol\":2351:2397  compareStrings(countries[i].name, countryName) */\n      jump\t// in\n    tag_90:\n        /* \"contracts/Test.sol\":2348:2532  if(compareStrings(countries[i].name, countryName)){\r... */\n      iszero\n      tag_99\n      jumpi\n        /* \"contracts/Test.sol\":2451:2460  countries */\n      0x00\n        /* \"contracts/Test.sol\":2461:2462  i */\n      dup2\n        /* \"contracts/Test.sol\":2451:2463  countries[i] */\n      dup2\n      sload\n      dup2\n      lt\n      tag_100\n      jumpi\n      tag_101\n      tag_68\n      jump\t// in\n    tag_101:\n    tag_100:\n      swap1\n      0x00\n      mstore\n      keccak256(0x00, 0x20)\n      swap1\n      0x03\n      mul\n      add\n        /* \"contracts/Test.sol\":2451:2468  countries[i].name */\n      0x00\n      add\n        /* \"contracts/Test.sol\":2471:2480  countries */\n      0x00\n        /* \"contracts/Test.sol\":2481:2482  i */\n      dup3\n        /* \"contracts/Test.sol\":2471:2483  countries[i] */\n      dup2\n      sload\n      dup2\n      lt\n      tag_103\n      jumpi\n      tag_104\n      tag_68\n      jump\t// in\n    tag_104:\n    tag_103:\n      swap1\n      0x00\n      mstore\n      keccak256(0x00, 0x20)\n      swap1\n      0x03\n      mul\n      add\n        /* \"contracts/Test.sol\":2471:2490  countries[i].leader */\n      0x01\n      add\n        /* \"contracts/Test.sol\":2493:2502  countries */\n      0x00\n        /* \"contracts/Test.sol\":2503:2504  i */\n      dup4\n        /* \"contracts/Test.sol\":2493:2505  countries[i] */\n      dup2\n      sload\n      dup2\n      lt\n      tag_106\n      jumpi\n      tag_107\n      tag_68\n      jump\t// in\n    tag_107:\n    tag_106:\n      swap1\n      0x00\n      mstore\n      keccak256(0x00, 0x20)\n      swap1\n      0x03\n      mul\n      add\n        /* \"contracts/Test.sol\":2493:2516  countries[i].population */\n      0x02\n      add\n      sload\n        /* \"contracts/Test.sol\":2443:2517  return (countries[i].name , countries[i].leader , countries[i].population) */\n      dup3\n      dup1\n      sload\n      tag_109\n      swap1\n      tag_51\n      jump\t// in\n    tag_109:\n      dup1\n      0x1f\n      add\n      0x20\n      dup1\n      swap2\n      div\n      mul\n      0x20\n      add\n      mload(0x40)\n      swap1\n      dup2\n      add\n      0x40\n      mstore\n      dup1\n      swap3\n      swap2\n      swap1\n      dup2\n      dup2\n      mstore\n      0x20\n      add\n      dup3\n      dup1\n      sload\n      tag_110\n      swap1\n      tag_51\n      jump\t// in\n    tag_110:\n      dup1\n      iszero\n      tag_111\n      jumpi\n      dup1\n      0x1f\n      lt\n      tag_112\n      jumpi\n      0x0100\n      dup1\n      dup4\n      sload\n      div\n      mul\n      dup4\n      mstore\n      swap2\n      0x20\n      add\n      swap2\n      jump(tag_111)\n    tag_112:\n      dup3\n      add\n      swap2\n      swap1\n      0x00\n      mstore\n      keccak256(0x00, 0x20)\n      swap1\n    tag_113:\n      dup2\n      sload\n      dup2\n      mstore\n      swap1\n      0x01\n      add\n      swap1\n      0x20\n      add\n      dup1\n      dup4\n      gt\n      tag_113\n      jumpi\n      dup3\n      swap1\n      sub\n      0x1f\n      and\n      dup3\n      add\n      swap2\n    tag_111:\n      pop\n      pop\n      pop\n      pop\n      pop\n      swap3\n      pop\n      dup2\n      dup1\n      sload\n      tag_114\n      swap1\n      tag_51\n      jump\t// in\n    tag_114:\n      dup1\n      0x1f\n      add\n      0x20\n      dup1\n      swap2\n      div\n      mul\n      0x20\n      add\n      mload(0x40)\n      swap1\n      dup2\n      add\n      0x40\n      mstore\n      dup1\n      swap3\n      swap2\n      swap1\n      dup2\n      dup2\n      mstore\n      0x20\n      add\n      dup3\n      dup1\n      sload\n      tag_115\n      swap1\n      tag_51\n      jump\t// in\n    tag_115:\n      dup1\n      iszero\n      tag_116\n      jumpi\n      dup1\n      0x1f\n      lt\n      tag_117\n      jumpi\n      0x0100\n      dup1\n      dup4\n      sload\n      div\n      mul\n      dup4\n      mstore\n      swap2\n      0x20\n      add\n      swap2\n      jump(tag_116)\n    tag_117:\n      dup3\n      add\n      swap2\n      swap1\n      0x00\n      mstore\n      keccak256(0x00, 0x20)\n      swap1\n    tag_118:\n      dup2\n      sload\n      dup2\n      mstore\n      swap1\n      0x01\n      add\n      swap1\n      0x20\n      add\n      dup1\n      dup4\n      gt\n      tag_118\n      jumpi\n      dup3\n      swap1\n      sub\n      0x1f\n      and\n      dup3\n      add\n      swap2\n    tag_116:\n      pop\n      pop\n      pop\n      pop\n      pop\n      swap2\n      pop\n      swap4\n      pop\n      swap4\n      pop\n      swap4\n      pop\n      pop\n      jump(tag_86)\n        /* \"contracts/Test.sol\":2348:2532  if(compareStrings(countries[i].name, countryName)){\r... */\n    tag_99:\n        /* \"contracts/Test.sol\":2330:2333  i++ */\n      dup1\n      dup1\n      tag_119\n      swap1\n      tag_85\n      jump\t// in\n    tag_119:\n      swap2\n      pop\n      pop\n        /* \"contracts/Test.sol\":2293:2542  for(uint256 i =0; i< totalCountries; i++){\r... */\n      jump(tag_87)\n    tag_88:\n      pop\n        /* \"contracts/Test.sol\":2551:2578  revert('country not found') */\n      mload(0x40)\n      0x08c379a000000000000000000000000000000000000000000000000000000000\n      dup2\n      mstore\n      0x04\n      add\n      tag_120\n      swap1\n      tag_121\n      jump\t// in\n    tag_120:\n      mload(0x40)\n      dup1\n      swap2\n      sub\n      swap1\n      revert\n        /* \"contracts/Test.sol\":2152:2585  function getCountry(string memory countryName) public view returns(string memory name , string memory leader , uint256 population){\r... */\n    tag_86:\n      swap2\n      swap4\n      swap1\n      swap3\n      pop\n      jump\t// out\n        /* \"contracts/Test.sol\":2790:2894  function getTotalCountries() public view returns (uint256 length){\r... */\n    tag_34:\n        /* \"contracts/Test.sol\":2840:2854  uint256 length */\n      0x00\n        /* \"contracts/Test.sol\":2871:2880  countries */\n      dup1\n        /* \"contracts/Test.sol\":2871:2887  countries.length */\n      dup1\n      sload\n      swap1\n      pop\n        /* \"contracts/Test.sol\":2864:2887  return countries.length */\n      swap1\n      pop\n        /* \"contracts/Test.sol\":2790:2894  function getTotalCountries() public view returns (uint256 length){\r... */\n      swap1\n      jump\t// out\n        /* \"contracts/Test.sol\":2901:3000  function getCountries() public view returns (uint256 length){\r... */\n    tag_37:\n        /* \"contracts/Test.sol\":2946:2960  uint256 length */\n      0x00\n        /* \"contracts/Test.sol\":2977:2986  countries */\n      dup1\n        /* \"contracts/Test.sol\":2977:2993  countries.length */\n      dup1\n      sload\n      swap1\n      pop\n        /* \"contracts/Test.sol\":2970:2993  return countries.length */\n      swap1\n      pop\n        /* \"contracts/Test.sol\":2901:3000  function getCountries() public view returns (uint256 length){\r... */\n      swap1\n      jump\t// out\n        /* \"contracts/Test.sol\":561:956  function insert( string memory countryName , string memory leader , uint256 population) public returns (uint256 _totalCountries){\r... */\n    tag_42:\n        /* \"contracts/Test.sol\":665:688  uint256 _totalCountries */\n      0x00\n        /* \"contracts/Test.sol\":700:725  country memory newCountry */\n      dup1\n        /* \"contracts/Test.sol\":728:769  country(countryName , leader, population) */\n      mload(0x40)\n      dup1\n      0x60\n      add\n      0x40\n      mstore\n      dup1\n        /* \"contracts/Test.sol\":736:747  countryName */\n      dup7\n        /* \"contracts/Test.sol\":728:769  country(countryName , leader, population) */\n      dup2\n      mstore\n      0x20\n      add\n        /* \"contracts/Test.sol\":750:756  leader */\n      dup6\n        /* \"contracts/Test.sol\":728:769  country(countryName , leader, population) */\n      dup2\n      mstore\n      0x20\n      add\n        /* \"contracts/Test.sol\":758:768  population */\n      dup5\n        /* \"contracts/Test.sol\":728:769  country(countryName , leader, population) */\n      dup2\n      mstore\n      pop\n        /* \"contracts/Test.sol\":700:769  country memory newCountry = country(countryName , leader, population) */\n      swap1\n      pop\n        /* \"contracts/Test.sol\":780:789  countries */\n      0x00\n        /* \"contracts/Test.sol\":795:805  newCountry */\n      dup2\n        /* \"contracts/Test.sol\":780:806  countries.push(newCountry) */\n      swap1\n      dup1\n      0x01\n      dup2\n      sload\n      add\n      dup1\n      dup3\n      sstore\n      dup1\n      swap2\n      pop\n      pop\n      0x01\n      swap1\n      sub\n      swap1\n      0x00\n      mstore\n      keccak256(0x00, 0x20)\n      swap1\n      0x03\n      mul\n      add\n      0x00\n      swap1\n      swap2\n      swap1\n      swap2\n      swap1\n      swap2\n      pop\n      0x00\n      dup3\n      add\n      mload\n      dup2\n      0x00\n      add\n      swap1\n      dup1\n      mload\n      swap1\n      0x20\n      add\n      swap1\n      tag_126\n      swap3\n      swap2\n      swap1\n      tag_81\n      jump\t// in\n    tag_126:\n      pop\n      0x20\n      dup3\n      add\n      mload\n      dup2\n      0x01\n      add\n      swap1\n      dup1\n      mload\n      swap1\n      0x20\n      add\n      swap1\n      tag_127\n      swap3\n      swap2\n      swap1\n      tag_81\n      jump\t// in\n    tag_127:\n      pop\n      0x40\n      dup3\n      add\n      mload\n      dup2\n      0x02\n      add\n      sstore\n      pop\n      pop\n        /* \"contracts/Test.sol\":817:831  totalCountries */\n      0x01\n      0x00\n        /* \"contracts/Test.sol\":817:833  totalCountries++ */\n      dup2\n      sload\n      dup1\n      swap3\n      swap2\n      swap1\n      tag_128\n      swap1\n      tag_85\n      jump\t// in\n    tag_128:\n      swap2\n      swap1\n      pop\n      sstore\n      pop\n        /* \"contracts/Test.sol\":871:917  CountryEvent (countryName, leader, population) */\n      0x0468dc69df7bee8f1d38fbb57d4c42ac20476b6d66c4477d41c677b7e2d63893\n        /* \"contracts/Test.sol\":885:896  countryName */\n      dup6\n        /* \"contracts/Test.sol\":898:904  leader */\n      dup6\n        /* \"contracts/Test.sol\":906:916  population */\n      dup6\n        /* \"contracts/Test.sol\":871:917  CountryEvent (countryName, leader, population) */\n      mload(0x40)\n      tag_129\n      swap4\n      swap3\n      swap2\n      swap1\n      tag_17\n      jump\t// in\n    tag_129:\n      mload(0x40)\n      dup1\n      swap2\n      sub\n      swap1\n      log1\n        /* \"contracts/Test.sol\":935:949  totalCountries */\n      sload(0x01)\n        /* \"contracts/Test.sol\":928:949  return totalCountries */\n      swap2\n      pop\n      pop\n        /* \"contracts/Test.sol\":561:956  function insert( string memory countryName , string memory leader , uint256 population) public returns (uint256 _totalCountries){\r... */\n      swap4\n      swap3\n      pop\n      pop\n      pop\n      jump\t// out\n        /* \"contracts/Test.sol\":1424:2135  function deleteCountry(string memory countryName) public returns(bool success){\r... */\n    tag_46:\n        /* \"contracts/Test.sol\":1489:1501  bool success */\n      0x00\n        /* \"contracts/Test.sol\":1538:1539  0 */\n      dup1\n        /* \"contracts/Test.sol\":1521:1535  totalCountries */\n      sload(0x01)\n        /* \"contracts/Test.sol\":1521:1539  totalCountries > 0 */\n      gt\n        /* \"contracts/Test.sol\":1513:1540  require(totalCountries > 0) */\n      tag_131\n      jumpi\n      0x00\n      dup1\n      revert\n    tag_131:\n        /* \"contracts/Test.sol\":1555:1564  uint256 i */\n      0x00\n        /* \"contracts/Test.sol\":1551:2107  for(uint256 i =0; i< totalCountries; i++){\r... */\n    tag_132:\n        /* \"contracts/Test.sol\":1572:1586  totalCountries */\n      sload(0x01)\n        /* \"contracts/Test.sol\":1569:1570  i */\n      dup2\n        /* \"contracts/Test.sol\":1569:1586  i< totalCountries */\n      lt\n        /* \"contracts/Test.sol\":1551:2107  for(uint256 i =0; i< totalCountries; i++){\r... */\n      iszero\n      tag_133\n      jumpi\n        /* \"contracts/Test.sol\":1609:1656  compareStrings(countries[i].name , countryName) */\n      tag_135\n        /* \"contracts/Test.sol\":1624:1633  countries */\n      0x00\n        /* \"contracts/Test.sol\":1634:1635  i */\n      dup3\n        /* \"contracts/Test.sol\":1624:1636  countries[i] */\n      dup2\n      sload\n      dup2\n      lt\n      tag_136\n      jumpi\n      tag_137\n      tag_68\n      jump\t// in\n    tag_137:\n    tag_136:\n      swap1\n      0x00\n      mstore\n      keccak256(0x00, 0x20)\n      swap1\n      0x03\n      mul\n      add\n        /* \"contracts/Test.sol\":1624:1641  countries[i].name */\n      0x00\n      add\n        /* \"contracts/Test.sol\":1609:1656  compareStrings(countries[i].name , countryName) */\n      dup1\n      sload\n      tag_139\n      swap1\n      tag_51\n      jump\t// in\n    tag_139:\n      dup1\n      0x1f\n      add\n      0x20\n      dup1\n      swap2\n      div\n      mul\n      0x20\n      add\n      mload(0x40)\n      swap1\n      dup2\n      add\n      0x40\n      mstore\n      dup1\n      swap3\n      swap2\n      swap1\n      dup2\n      dup2\n      mstore\n      0x20\n      add\n      dup3\n      dup1\n      sload\n      tag_140\n      swap1\n      tag_51\n      jump\t// in\n    tag_140:\n      dup1\n      iszero\n      tag_141\n      jumpi\n      dup1\n      0x1f\n      lt\n      tag_142\n      jumpi\n      0x0100\n      dup1\n      dup4\n      sload\n      div\n      mul\n      dup4\n      mstore\n      swap2\n      0x20\n      add\n      swap2\n      jump(tag_141)\n    tag_142:\n      dup3\n      add\n      swap2\n      swap1\n      0x00\n      mstore\n      keccak256(0x00, 0x20)\n      swap1\n    tag_143:\n      dup2\n      sload\n      dup2\n      mstore\n      swap1\n      0x01\n      add\n      swap1\n      0x20\n      add\n      dup1\n      dup4\n      gt\n      tag_143\n      jumpi\n      dup3\n      swap1\n      sub\n      0x1f\n      and\n      dup3\n      add\n      swap2\n    tag_141:\n      pop\n      pop\n      pop\n      pop\n      pop\n        /* \"contracts/Test.sol\":1644:1655  countryName */\n      dup5\n        /* \"contracts/Test.sol\":1609:1623  compareStrings */\n      tag_75\n        /* \"contracts/Test.sol\":1609:1656  compareStrings(countries[i].name , countryName) */\n      jump\t// in\n    tag_135:\n        /* \"contracts/Test.sol\":1606:2097  if(compareStrings(countries[i].name , countryName)){\r... */\n      iszero\n      tag_144\n      jumpi\n        /* \"contracts/Test.sol\":1689:1698  countries */\n      0x00\n        /* \"contracts/Test.sol\":1714:1715  1 */\n      0x01\n        /* \"contracts/Test.sol\":1699:1713  totalCountries */\n      dup1\n      sload\n        /* \"contracts/Test.sol\":1699:1715  totalCountries-1 */\n      tag_145\n      swap2\n      swap1\n      tag_146\n      jump\t// in\n    tag_145:\n        /* \"contracts/Test.sol\":1689:1716  countries[totalCountries-1] */\n      dup2\n      sload\n      dup2\n      lt\n      tag_147\n      jumpi\n      tag_148\n      tag_68\n      jump\t// in\n    tag_148:\n    tag_147:\n      swap1\n      0x00\n      mstore\n      keccak256(0x00, 0x20)\n      swap1\n      0x03\n      mul\n      add\n        /* \"contracts/Test.sol\":1674:1683  countries */\n      0x00\n        /* \"contracts/Test.sol\":1684:1685  i */\n      dup3\n        /* \"contracts/Test.sol\":1674:1686  countries[i] */\n      dup2\n      sload\n      dup2\n      lt\n      tag_150\n      jumpi\n      tag_151\n      tag_68\n      jump\t// in\n    tag_151:\n    tag_150:\n      swap1\n      0x00\n      mstore\n      keccak256(0x00, 0x20)\n      swap1\n      0x03\n      mul\n      add\n        /* \"contracts/Test.sol\":1674:1716  countries[i] = countries[totalCountries-1] */\n      0x00\n      dup3\n      add\n      dup2\n      0x00\n      add\n      swap1\n      dup1\n      sload\n      tag_153\n      swap1\n      tag_51\n      jump\t// in\n    tag_153:\n      tag_154\n      swap3\n      swap2\n      swap1\n      tag_155\n      jump\t// in\n    tag_154:\n      pop\n      0x01\n      dup3\n      add\n      dup2\n      0x01\n      add\n      swap1\n      dup1\n      sload\n      tag_156\n      swap1\n      tag_51\n      jump\t// in\n    tag_156:\n      tag_157\n      swap3\n      swap2\n      swap1\n      tag_155\n      jump\t// in\n    tag_157:\n      pop\n      0x02\n      dup3\n      add\n      sload\n      dup2\n      0x02\n      add\n      sstore\n      swap1\n      pop\n      pop\n        /* \"contracts/Test.sol\":1804:1813  countries */\n      0x00\n        /* \"contracts/Test.sol\":1829:1830  1 */\n      0x01\n        /* \"contracts/Test.sol\":1814:1828  totalCountries */\n      dup1\n      sload\n        /* \"contracts/Test.sol\":1814:1830  totalCountries-1 */\n      tag_158\n      swap2\n      swap1\n      tag_146\n      jump\t// in\n    tag_158:\n        /* \"contracts/Test.sol\":1804:1831  countries[totalCountries-1] */\n      dup2\n      sload\n      dup2\n      lt\n      tag_159\n      jumpi\n      tag_160\n      tag_68\n      jump\t// in\n    tag_160:\n    tag_159:\n      swap1\n      0x00\n      mstore\n      keccak256(0x00, 0x20)\n      swap1\n      0x03\n      mul\n      add\n      0x00\n        /* \"contracts/Test.sol\":1797:1831  delete countries[totalCountries-1] */\n      dup1\n      dup3\n      add\n      0x00\n      tag_162\n      swap2\n      swap1\n      tag_163\n      jump\t// in\n    tag_162:\n      0x01\n      dup3\n      add\n      0x00\n      tag_164\n      swap2\n      swap1\n      tag_163\n      jump\t// in\n    tag_164:\n      0x02\n      dup3\n      add\n      0x00\n      swap1\n      sstore\n      pop\n      pop\n        /* \"contracts/Test.sol\":1876:1890  totalCountries */\n      0x01\n      0x00\n        /* \"contracts/Test.sol\":1876:1892  totalCountries-- */\n      dup2\n      sload\n      dup1\n      swap3\n      swap2\n      swap1\n      tag_165\n      swap1\n      tag_166\n      jump\t// in\n    tag_165:\n      swap2\n      swap1\n      pop\n      sstore\n      pop\n        /* \"contracts/Test.sol\":2028:2054  CountryDelete(countryName) */\n      0x1aae94a171c3e578099f7103bbb8a169533e0d22f84eb9807747a1c5bebbbc41\n        /* \"contracts/Test.sol\":2042:2053  countryName */\n      dup4\n        /* \"contracts/Test.sol\":2028:2054  CountryDelete(countryName) */\n      mload(0x40)\n      tag_167\n      swap2\n      swap1\n      tag_168\n      jump\t// in\n    tag_167:\n      mload(0x40)\n      dup1\n      swap2\n      sub\n      swap1\n      log1\n        /* \"contracts/Test.sol\":2078:2082  true */\n      0x01\n        /* \"contracts/Test.sol\":2071:2082  return true */\n      swap2\n      pop\n      pop\n      jump(tag_130)\n        /* \"contracts/Test.sol\":1606:2097  if(compareStrings(countries[i].name , countryName)){\r... */\n    tag_144:\n        /* \"contracts/Test.sol\":1588:1591  i++ */\n      dup1\n      dup1\n      tag_169\n      swap1\n      tag_85\n      jump\t// in\n    tag_169:\n      swap2\n      pop\n      pop\n        /* \"contracts/Test.sol\":1551:2107  for(uint256 i =0; i< totalCountries; i++){\r... */\n      jump(tag_132)\n    tag_133:\n      pop\n        /* \"contracts/Test.sol\":2123:2128  false */\n      0x00\n        /* \"contracts/Test.sol\":2116:2128  return false */\n      swap1\n      pop\n        /* \"contracts/Test.sol\":1424:2135  function deleteCountry(string memory countryName) public returns(bool success){\r... */\n    tag_130:\n      swap2\n      swap1\n      pop\n      jump\t// out\n        /* \"contracts/Test.sol\":2599:2775  function compareStrings (string memory a, string memory b)  internal pure returns (bool){\r... */\n    tag_75:\n        /* \"contracts/Test.sol\":2682:2686  bool */\n      0x00\n        /* \"contracts/Test.sol\":2765:2766  b */\n      dup2\n        /* \"contracts/Test.sol\":2748:2767  abi.encodePacked(b) */\n      add(0x20, mload(0x40))\n      tag_171\n      swap2\n      swap1\n      tag_172\n      jump\t// in\n    tag_171:\n      mload(0x40)\n      0x20\n      dup2\n      dup4\n      sub\n      sub\n      dup2\n      mstore\n      swap1\n      0x40\n      mstore\n        /* \"contracts/Test.sol\":2738:2768  keccak256(abi.encodePacked(b)) */\n      dup1\n      mload\n      swap1\n      0x20\n      add\n      keccak256\n        /* \"contracts/Test.sol\":2731:2732  a */\n      dup4\n        /* \"contracts/Test.sol\":2714:2733  abi.encodePacked(a) */\n      add(0x20, mload(0x40))\n      tag_173\n      swap2\n      swap1\n      tag_172\n      jump\t// in\n    tag_173:\n      mload(0x40)\n      0x20\n      dup2\n      dup4\n      sub\n      sub\n      dup2\n      mstore\n      swap1\n      0x40\n      mstore\n        /* \"contracts/Test.sol\":2704:2734  keccak256(abi.encodePacked(a)) */\n      dup1\n      mload\n      swap1\n      0x20\n      add\n      keccak256\n        /* \"contracts/Test.sol\":2704:2768  keccak256(abi.encodePacked(a)) == keccak256(abi.encodePacked(b)) */\n      eq\n        /* \"contracts/Test.sol\":2697:2768  return keccak256(abi.encodePacked(a)) == keccak256(abi.encodePacked(b)) */\n      swap1\n      pop\n        /* \"contracts/Test.sol\":2599:2775  function compareStrings (string memory a, string memory b)  internal pure returns (bool){\r... */\n      swap3\n      swap2\n      pop\n      pop\n      jump\t// out\n    tag_81:\n      dup3\n      dup1\n      sload\n      tag_174\n      swap1\n      tag_51\n      jump\t// in\n    tag_174:\n      swap1\n      0x00\n      mstore\n      keccak256(0x00, 0x20)\n      swap1\n      0x1f\n      add\n      0x20\n      swap1\n      div\n      dup2\n      add\n      swap3\n      dup3\n      tag_176\n      jumpi\n      0x00\n      dup6\n      sstore\n      jump(tag_175)\n    tag_176:\n      dup3\n      0x1f\n      lt\n      tag_177\n      jumpi\n      dup1\n      mload\n      not(0xff)\n      and\n      dup4\n      dup1\n      add\n      or\n      dup6\n      sstore\n      jump(tag_175)\n    tag_177:\n      dup3\n      dup1\n      add\n      0x01\n      add\n      dup6\n      sstore\n      dup3\n      iszero\n      tag_175\n      jumpi\n      swap2\n      dup3\n      add\n    tag_178:\n      dup3\n      dup2\n      gt\n      iszero\n      tag_179\n      jumpi\n      dup3\n      mload\n      dup3\n      sstore\n      swap2\n      0x20\n      add\n      swap2\n      swap1\n      0x01\n      add\n      swap1\n      jump(tag_178)\n    tag_179:\n    tag_175:\n      pop\n      swap1\n      pop\n      tag_180\n      swap2\n      swap1\n      tag_181\n      jump\t// in\n    tag_180:\n      pop\n      swap1\n      jump\t// out\n    tag_155:\n      dup3\n      dup1\n      sload\n      tag_182\n      swap1\n      tag_51\n      jump\t// in\n    tag_182:\n      swap1\n      0x00\n      mstore\n      keccak256(0x00, 0x20)\n      swap1\n      0x1f\n      add\n      0x20\n      swap1\n      div\n      dup2\n      add\n      swap3\n      dup3\n      tag_184\n      jumpi\n      0x00\n      dup6\n      sstore\n      jump(tag_183)\n    tag_184:\n      dup3\n      0x1f\n      lt\n      tag_185\n      jumpi\n      dup1\n      sload\n      dup6\n      sstore\n      jump(tag_183)\n    tag_185:\n      dup3\n      dup1\n      add\n      0x01\n      add\n      dup6\n      sstore\n      dup3\n      iszero\n      tag_183\n      jumpi\n      0x00\n      mstore\n      keccak256(0x00, 0x20)\n      swap2\n      0x1f\n      add\n      0x20\n      swap1\n      div\n      dup3\n      add\n    tag_186:\n      dup3\n      dup2\n      gt\n      iszero\n      tag_187\n      jumpi\n      dup3\n      sload\n      dup3\n      sstore\n      swap2\n      0x01\n      add\n      swap2\n      swap1\n      0x01\n      add\n      swap1\n      jump(tag_186)\n    tag_187:\n    tag_183:\n      pop\n      swap1\n      pop\n      tag_188\n      swap2\n      swap1\n      tag_181\n      jump\t// in\n    tag_188:\n      pop\n      swap1\n      jump\t// out\n    tag_163:\n      pop\n      dup1\n      sload\n      tag_189\n      swap1\n      tag_51\n      jump\t// in\n    tag_189:\n      0x00\n      dup3\n      sstore\n      dup1\n      0x1f\n      lt\n      tag_191\n      jumpi\n      pop\n      jump(tag_190)\n    tag_191:\n      0x1f\n      add\n      0x20\n      swap1\n      div\n      swap1\n      0x00\n      mstore\n      keccak256(0x00, 0x20)\n      swap1\n      dup2\n      add\n      swap1\n      tag_192\n      swap2\n      swap1\n      tag_181\n      jump\t// in\n    tag_192:\n    tag_190:\n      pop\n      jump\t// out\n    tag_181:\n    tag_193:\n      dup1\n      dup3\n      gt\n      iszero\n      tag_194\n      jumpi\n      0x00\n      dup2\n      0x00\n      swap1\n      sstore\n      pop\n      0x01\n      add\n      jump(tag_193)\n    tag_194:\n      pop\n      swap1\n      jump\t// out\n        /* \"#utility.yul\":7:419   */\n    tag_196:\n        /* \"#utility.yul\":85:90   */\n      0x00\n        /* \"#utility.yul\":110:176   */\n      tag_198\n        /* \"#utility.yul\":126:175   */\n      tag_199\n        /* \"#utility.yul\":168:174   */\n      dup5\n        /* \"#utility.yul\":126:175   */\n      tag_200\n      jump\t// in\n    tag_199:\n        /* \"#utility.yul\":110:176   */\n      tag_201\n      jump\t// in\n    tag_198:\n        /* \"#utility.yul\":101:176   */\n      swap1\n      pop\n        /* \"#utility.yul\":199:205   */\n      dup3\n        /* \"#utility.yul\":192:197   */\n      dup2\n        /* \"#utility.yul\":185:206   */\n      mstore\n        /* \"#utility.yul\":237:241   */\n      0x20\n        /* \"#utility.yul\":230:235   */\n      dup2\n        /* \"#utility.yul\":226:242   */\n      add\n        /* \"#utility.yul\":275:278   */\n      dup5\n        /* \"#utility.yul\":266:272   */\n      dup5\n        /* \"#utility.yul\":261:264   */\n      dup5\n        /* \"#utility.yul\":257:273   */\n      add\n        /* \"#utility.yul\":254:279   */\n      gt\n        /* \"#utility.yul\":251:363   */\n      iszero\n      tag_202\n      jumpi\n        /* \"#utility.yul\":282:361   */\n      tag_203\n      tag_204\n      jump\t// in\n    tag_203:\n        /* \"#utility.yul\":251:363   */\n    tag_202:\n        /* \"#utility.yul\":372:413   */\n      tag_205\n        /* \"#utility.yul\":406:412   */\n      dup5\n        /* \"#utility.yul\":401:404   */\n      dup3\n        /* \"#utility.yul\":396:399   */\n      dup6\n        /* \"#utility.yul\":372:413   */\n      tag_206\n      jump\t// in\n    tag_205:\n        /* \"#utility.yul\":91:419   */\n      pop\n        /* \"#utility.yul\":7:419   */\n      swap4\n      swap3\n      pop\n      pop\n      pop\n      jump\t// out\n        /* \"#utility.yul\":439:779   */\n    tag_207:\n        /* \"#utility.yul\":495:500   */\n      0x00\n        /* \"#utility.yul\":544:547   */\n      dup3\n        /* \"#utility.yul\":537:541   */\n      0x1f\n        /* \"#utility.yul\":529:535   */\n      dup4\n        /* \"#utility.yul\":525:542   */\n      add\n        /* \"#utility.yul\":521:548   */\n      slt\n        /* \"#utility.yul\":511:633   */\n      tag_209\n      jumpi\n        /* \"#utility.yul\":552:631   */\n      tag_210\n      tag_211\n      jump\t// in\n    tag_210:\n        /* \"#utility.yul\":511:633   */\n    tag_209:\n        /* \"#utility.yul\":669:675   */\n      dup2\n        /* \"#utility.yul\":656:676   */\n      calldataload\n        /* \"#utility.yul\":694:773   */\n      tag_212\n        /* \"#utility.yul\":769:772   */\n      dup5\n        /* \"#utility.yul\":761:767   */\n      dup3\n        /* \"#utility.yul\":754:758   */\n      0x20\n        /* \"#utility.yul\":746:752   */\n      dup7\n        /* \"#utility.yul\":742:759   */\n      add\n        /* \"#utility.yul\":694:773   */\n      tag_196\n      jump\t// in\n    tag_212:\n        /* \"#utility.yul\":685:773   */\n      swap2\n      pop\n        /* \"#utility.yul\":501:779   */\n      pop\n        /* \"#utility.yul\":439:779   */\n      swap3\n      swap2\n      pop\n      pop\n      jump\t// out\n        /* \"#utility.yul\":785:924   */\n    tag_213:\n        /* \"#utility.yul\":831:836   */\n      0x00\n        /* \"#utility.yul\":869:875   */\n      dup2\n        /* \"#utility.yul\":856:876   */\n      calldataload\n        /* \"#utility.yul\":847:876   */\n      swap1\n      pop\n        /* \"#utility.yul\":885:918   */\n      tag_215\n        /* \"#utility.yul\":912:917   */\n      dup2\n        /* \"#utility.yul\":885:918   */\n      tag_216\n      jump\t// in\n    tag_215:\n        /* \"#utility.yul\":785:924   */\n      swap3\n      swap2\n      pop\n      pop\n      jump\t// out\n        /* \"#utility.yul\":930:1439   */\n    tag_30:\n        /* \"#utility.yul\":999:1005   */\n      0x00\n        /* \"#utility.yul\":1048:1050   */\n      0x20\n        /* \"#utility.yul\":1036:1045   */\n      dup3\n        /* \"#utility.yul\":1027:1034   */\n      dup5\n        /* \"#utility.yul\":1023:1046   */\n      sub\n        /* \"#utility.yul\":1019:1051   */\n      slt\n        /* \"#utility.yul\":1016:1135   */\n      iszero\n      tag_218\n      jumpi\n        /* \"#utility.yul\":1054:1133   */\n      tag_219\n      tag_220\n      jump\t// in\n    tag_219:\n        /* \"#utility.yul\":1016:1135   */\n    tag_218:\n        /* \"#utility.yul\":1202:1203   */\n      0x00\n        /* \"#utility.yul\":1191:1200   */\n      dup3\n        /* \"#utility.yul\":1187:1204   */\n      add\n        /* \"#utility.yul\":1174:1205   */\n      calldataload\n        /* \"#utility.yul\":1232:1250   */\n      0xffffffffffffffff\n        /* \"#utility.yul\":1224:1230   */\n      dup2\n        /* \"#utility.yul\":1221:1251   */\n      gt\n        /* \"#utility.yul\":1218:1335   */\n      iszero\n      tag_221\n      jumpi\n        /* \"#utility.yul\":1254:1333   */\n      tag_222\n      tag_223\n      jump\t// in\n    tag_222:\n        /* \"#utility.yul\":1218:1335   */\n    tag_221:\n        /* \"#utility.yul\":1359:1422   */\n      tag_224\n        /* \"#utility.yul\":1414:1421   */\n      dup5\n        /* \"#utility.yul\":1405:1411   */\n      dup3\n        /* \"#utility.yul\":1394:1403   */\n      dup6\n        /* \"#utility.yul\":1390:1412   */\n      add\n        /* \"#utility.yul\":1359:1422   */\n      tag_207\n      jump\t// in\n    tag_224:\n        /* \"#utility.yul\":1349:1422   */\n      swap2\n      pop\n        /* \"#utility.yul\":1145:1432   */\n      pop\n        /* \"#utility.yul\":930:1439   */\n      swap3\n      swap2\n      pop\n      pop\n      jump\t// out\n        /* \"#utility.yul\":1445:2279   */\n    tag_24:\n        /* \"#utility.yul\":1533:1539   */\n      0x00\n        /* \"#utility.yul\":1541:1547   */\n      dup1\n        /* \"#utility.yul\":1590:1592   */\n      0x40\n        /* \"#utility.yul\":1578:1587   */\n      dup4\n        /* \"#utility.yul\":1569:1576   */\n      dup6\n        /* \"#utility.yul\":1565:1588   */\n      sub\n        /* \"#utility.yul\":1561:1593   */\n      slt\n        /* \"#utility.yul\":1558:1677   */\n      iszero\n      tag_226\n      jumpi\n        /* \"#utility.yul\":1596:1675   */\n      tag_227\n      tag_220\n      jump\t// in\n    tag_227:\n        /* \"#utility.yul\":1558:1677   */\n    tag_226:\n        /* \"#utility.yul\":1744:1745   */\n      0x00\n        /* \"#utility.yul\":1733:1742   */\n      dup4\n        /* \"#utility.yul\":1729:1746   */\n      add\n        /* \"#utility.yul\":1716:1747   */\n      calldataload\n        /* \"#utility.yul\":1774:1792   */\n      0xffffffffffffffff\n        /* \"#utility.yul\":1766:1772   */\n      dup2\n        /* \"#utility.yul\":1763:1793   */\n      gt\n        /* \"#utility.yul\":1760:1877   */\n      iszero\n      tag_228\n      jumpi\n        /* \"#utility.yul\":1796:1875   */\n      tag_229\n      tag_223\n      jump\t// in\n    tag_229:\n        /* \"#utility.yul\":1760:1877   */\n    tag_228:\n        /* \"#utility.yul\":1901:1964   */\n      tag_230\n        /* \"#utility.yul\":1956:1963   */\n      dup6\n        /* \"#utility.yul\":1947:1953   */\n      dup3\n        /* \"#utility.yul\":1936:1945   */\n      dup7\n        /* \"#utility.yul\":1932:1954   */\n      add\n        /* \"#utility.yul\":1901:1964   */\n      tag_207\n      jump\t// in\n    tag_230:\n        /* \"#utility.yul\":1891:1964   */\n      swap3\n      pop\n        /* \"#utility.yul\":1687:1974   */\n      pop\n        /* \"#utility.yul\":2041:2043   */\n      0x20\n        /* \"#utility.yul\":2030:2039   */\n      dup4\n        /* \"#utility.yul\":2026:2044   */\n      add\n        /* \"#utility.yul\":2013:2045   */\n      calldataload\n        /* \"#utility.yul\":2072:2090   */\n      0xffffffffffffffff\n        /* \"#utility.yul\":2064:2070   */\n      dup2\n        /* \"#utility.yul\":2061:2091   */\n      gt\n        /* \"#utility.yul\":2058:2175   */\n      iszero\n      tag_231\n      jumpi\n        /* \"#utility.yul\":2094:2173   */\n      tag_232\n      tag_223\n      jump\t// in\n    tag_232:\n        /* \"#utility.yul\":2058:2175   */\n    tag_231:\n        /* \"#utility.yul\":2199:2262   */\n      tag_233\n        /* \"#utility.yul\":2254:2261   */\n      dup6\n        /* \"#utility.yul\":2245:2251   */\n      dup3\n        /* \"#utility.yul\":2234:2243   */\n      dup7\n        /* \"#utility.yul\":2230:2252   */\n      add\n        /* \"#utility.yul\":2199:2262   */\n      tag_207\n      jump\t// in\n    tag_233:\n        /* \"#utility.yul\":2189:2262   */\n      swap2\n      pop\n        /* \"#utility.yul\":1984:2272   */\n      pop\n        /* \"#utility.yul\":1445:2279   */\n      swap3\n      pop\n      swap3\n      swap1\n      pop\n      jump\t// out\n        /* \"#utility.yul\":2285:3264   */\n    tag_41:\n        /* \"#utility.yul\":2382:2388   */\n      0x00\n        /* \"#utility.yul\":2390:2396   */\n      dup1\n        /* \"#utility.yul\":2398:2404   */\n      0x00\n        /* \"#utility.yul\":2447:2449   */\n      0x60\n        /* \"#utility.yul\":2435:2444   */\n      dup5\n        /* \"#utility.yul\":2426:2433   */\n      dup7\n        /* \"#utility.yul\":2422:2445   */\n      sub\n        /* \"#utility.yul\":2418:2450   */\n      slt\n        /* \"#utility.yul\":2415:2534   */\n      iszero\n      tag_235\n      jumpi\n        /* \"#utility.yul\":2453:2532   */\n      tag_236\n      tag_220\n      jump\t// in\n    tag_236:\n        /* \"#utility.yul\":2415:2534   */\n    tag_235:\n        /* \"#utility.yul\":2601:2602   */\n      0x00\n        /* \"#utility.yul\":2590:2599   */\n      dup5\n        /* \"#utility.yul\":2586:2603   */\n      add\n        /* \"#utility.yul\":2573:2604   */\n      calldataload\n        /* \"#utility.yul\":2631:2649   */\n      0xffffffffffffffff\n        /* \"#utility.yul\":2623:2629   */\n      dup2\n        /* \"#utility.yul\":2620:2650   */\n      gt\n        /* \"#utility.yul\":2617:2734   */\n      iszero\n      tag_237\n      jumpi\n        /* \"#utility.yul\":2653:2732   */\n      tag_238\n      tag_223\n      jump\t// in\n    tag_238:\n        /* \"#utility.yul\":2617:2734   */\n    tag_237:\n        /* \"#utility.yul\":2758:2821   */\n      tag_239\n        /* \"#utility.yul\":2813:2820   */\n      dup7\n        /* \"#utility.yul\":2804:2810   */\n      dup3\n        /* \"#utility.yul\":2793:2802   */\n      dup8\n        /* \"#utility.yul\":2789:2811   */\n      add\n        /* \"#utility.yul\":2758:2821   */\n      tag_207\n      jump\t// in\n    tag_239:\n        /* \"#utility.yul\":2748:2821   */\n      swap4\n      pop\n        /* \"#utility.yul\":2544:2831   */\n      pop\n        /* \"#utility.yul\":2898:2900   */\n      0x20\n        /* \"#utility.yul\":2887:2896   */\n      dup5\n        /* \"#utility.yul\":2883:2901   */\n      add\n        /* \"#utility.yul\":2870:2902   */\n      calldataload\n        /* \"#utility.yul\":2929:2947   */\n      0xffffffffffffffff\n        /* \"#utility.yul\":2921:2927   */\n      dup2\n        /* \"#utility.yul\":2918:2948   */\n      gt\n        /* \"#utility.yul\":2915:3032   */\n      iszero\n      tag_240\n      jumpi\n        /* \"#utility.yul\":2951:3030   */\n      tag_241\n      tag_223\n      jump\t// in\n    tag_241:\n        /* \"#utility.yul\":2915:3032   */\n    tag_240:\n        /* \"#utility.yul\":3056:3119   */\n      tag_242\n        /* \"#utility.yul\":3111:3118   */\n      dup7\n        /* \"#utility.yul\":3102:3108   */\n      dup3\n        /* \"#utility.yul\":3091:3100   */\n      dup8\n        /* \"#utility.yul\":3087:3109   */\n      add\n        /* \"#utility.yul\":3056:3119   */\n      tag_207\n      jump\t// in\n    tag_242:\n        /* \"#utility.yul\":3046:3119   */\n      swap3\n      pop\n        /* \"#utility.yul\":2841:3129   */\n      pop\n        /* \"#utility.yul\":3168:3170   */\n      0x40\n        /* \"#utility.yul\":3194:3247   */\n      tag_243\n        /* \"#utility.yul\":3239:3246   */\n      dup7\n        /* \"#utility.yul\":3230:3236   */\n      dup3\n        /* \"#utility.yul\":3219:3228   */\n      dup8\n        /* \"#utility.yul\":3215:3237   */\n      add\n        /* \"#utility.yul\":3194:3247   */\n      tag_213\n      jump\t// in\n    tag_243:\n        /* \"#utility.yul\":3184:3247   */\n      swap2\n      pop\n        /* \"#utility.yul\":3139:3257   */\n      pop\n        /* \"#utility.yul\":2285:3264   */\n      swap3\n      pop\n      swap3\n      pop\n      swap3\n      jump\t// out\n        /* \"#utility.yul\":3270:3599   */\n    tag_14:\n        /* \"#utility.yul\":3329:3335   */\n      0x00\n        /* \"#utility.yul\":3378:3380   */\n      0x20\n        /* \"#utility.yul\":3366:3375   */\n      dup3\n        /* \"#utility.yul\":3357:3364   */\n      dup5\n        /* \"#utility.yul\":3353:3376   */\n      sub\n        /* \"#utility.yul\":3349:3381   */\n      slt\n        /* \"#utility.yul\":3346:3465   */\n      iszero\n      tag_245\n      jumpi\n        /* \"#utility.yul\":3384:3463   */\n      tag_246\n      tag_220\n      jump\t// in\n    tag_246:\n        /* \"#utility.yul\":3346:3465   */\n    tag_245:\n        /* \"#utility.yul\":3504:3505   */\n      0x00\n        /* \"#utility.yul\":3529:3582   */\n      tag_247\n        /* \"#utility.yul\":3574:3581   */\n      dup5\n        /* \"#utility.yul\":3565:3571   */\n      dup3\n        /* \"#utility.yul\":3554:3563   */\n      dup6\n        /* \"#utility.yul\":3550:3572   */\n      add\n        /* \"#utility.yul\":3529:3582   */\n      tag_213\n      jump\t// in\n    tag_247:\n        /* \"#utility.yul\":3519:3582   */\n      swap2\n      pop\n        /* \"#utility.yul\":3475:3592   */\n      pop\n        /* \"#utility.yul\":3270:3599   */\n      swap3\n      swap2\n      pop\n      pop\n      jump\t// out\n        /* \"#utility.yul\":3605:3714   */\n    tag_248:\n        /* \"#utility.yul\":3686:3707   */\n      tag_250\n        /* \"#utility.yul\":3701:3706   */\n      dup2\n        /* \"#utility.yul\":3686:3707   */\n      tag_251\n      jump\t// in\n    tag_250:\n        /* \"#utility.yul\":3681:3684   */\n      dup3\n        /* \"#utility.yul\":3674:3708   */\n      mstore\n        /* \"#utility.yul\":3605:3714   */\n      pop\n      pop\n      jump\t// out\n        /* \"#utility.yul\":3720:4084   */\n    tag_252:\n        /* \"#utility.yul\":3808:3811   */\n      0x00\n        /* \"#utility.yul\":3836:3875   */\n      tag_254\n        /* \"#utility.yul\":3869:3874   */\n      dup3\n        /* \"#utility.yul\":3836:3875   */\n      tag_255\n      jump\t// in\n    tag_254:\n        /* \"#utility.yul\":3891:3962   */\n      tag_256\n        /* \"#utility.yul\":3955:3961   */\n      dup2\n        /* \"#utility.yul\":3950:3953   */\n      dup6\n        /* \"#utility.yul\":3891:3962   */\n      tag_257\n      jump\t// in\n    tag_256:\n        /* \"#utility.yul\":3884:3962   */\n      swap4\n      pop\n        /* \"#utility.yul\":3971:4023   */\n      tag_258\n        /* \"#utility.yul\":4016:4022   */\n      dup2\n        /* \"#utility.yul\":4011:4014   */\n      dup6\n        /* \"#utility.yul\":4004:4008   */\n      0x20\n        /* \"#utility.yul\":3997:4002   */\n      dup7\n        /* \"#utility.yul\":3993:4009   */\n      add\n        /* \"#utility.yul\":3971:4023   */\n      tag_259\n      jump\t// in\n    tag_258:\n        /* \"#utility.yul\":4048:4077   */\n      tag_260\n        /* \"#utility.yul\":4070:4076   */\n      dup2\n        /* \"#utility.yul\":4048:4077   */\n      tag_261\n      jump\t// in\n    tag_260:\n        /* \"#utility.yul\":4043:4046   */\n      dup5\n        /* \"#utility.yul\":4039:4078   */\n      add\n        /* \"#utility.yul\":4032:4078   */\n      swap2\n      pop\n        /* \"#utility.yul\":3812:4084   */\n      pop\n        /* \"#utility.yul\":3720:4084   */\n      swap3\n      swap2\n      pop\n      pop\n      jump\t// out\n        /* \"#utility.yul\":4090:4467   */\n    tag_262:\n        /* \"#utility.yul\":4196:4199   */\n      0x00\n        /* \"#utility.yul\":4224:4263   */\n      tag_264\n        /* \"#utility.yul\":4257:4262   */\n      dup3\n        /* \"#utility.yul\":4224:4263   */\n      tag_255\n      jump\t// in\n    tag_264:\n        /* \"#utility.yul\":4279:4368   */\n      tag_265\n        /* \"#utility.yul\":4361:4367   */\n      dup2\n        /* \"#utility.yul\":4356:4359   */\n      dup6\n        /* \"#utility.yul\":4279:4368   */\n      tag_266\n      jump\t// in\n    tag_265:\n        /* \"#utility.yul\":4272:4368   */\n      swap4\n      pop\n        /* \"#utility.yul\":4377:4429   */\n      tag_267\n        /* \"#utility.yul\":4422:4428   */\n      dup2\n        /* \"#utility.yul\":4417:4420   */\n      dup6\n        /* \"#utility.yul\":4410:4414   */\n      0x20\n        /* \"#utility.yul\":4403:4408   */\n      dup7\n        /* \"#utility.yul\":4399:4415   */\n      add\n        /* \"#utility.yul\":4377:4429   */\n      tag_259\n      jump\t// in\n    tag_267:\n        /* \"#utility.yul\":4454:4460   */\n      dup1\n        /* \"#utility.yul\":4449:4452   */\n      dup5\n        /* \"#utility.yul\":4445:4461   */\n      add\n        /* \"#utility.yul\":4438:4461   */\n      swap2\n      pop\n        /* \"#utility.yul\":4200:4467   */\n      pop\n        /* \"#utility.yul\":4090:4467   */\n      swap3\n      swap2\n      pop\n      pop\n      jump\t// out\n        /* \"#utility.yul\":4473:4839   */\n    tag_268:\n        /* \"#utility.yul\":4615:4618   */\n      0x00\n        /* \"#utility.yul\":4636:4703   */\n      tag_270\n        /* \"#utility.yul\":4700:4702   */\n      0x11\n        /* \"#utility.yul\":4695:4698   */\n      dup4\n        /* \"#utility.yul\":4636:4703   */\n      tag_257\n      jump\t// in\n    tag_270:\n        /* \"#utility.yul\":4629:4703   */\n      swap2\n      pop\n        /* \"#utility.yul\":4712:4805   */\n      tag_271\n        /* \"#utility.yul\":4801:4804   */\n      dup3\n        /* \"#utility.yul\":4712:4805   */\n      tag_272\n      jump\t// in\n    tag_271:\n        /* \"#utility.yul\":4830:4832   */\n      0x20\n        /* \"#utility.yul\":4825:4828   */\n      dup3\n        /* \"#utility.yul\":4821:4833   */\n      add\n        /* \"#utility.yul\":4814:4833   */\n      swap1\n      pop\n        /* \"#utility.yul\":4473:4839   */\n      swap2\n      swap1\n      pop\n      jump\t// out\n        /* \"#utility.yul\":4845:4963   */\n    tag_273:\n        /* \"#utility.yul\":4932:4956   */\n      tag_275\n        /* \"#utility.yul\":4950:4955   */\n      dup2\n        /* \"#utility.yul\":4932:4956   */\n      tag_276\n      jump\t// in\n    tag_275:\n        /* \"#utility.yul\":4927:4930   */\n      dup3\n        /* \"#utility.yul\":4920:4957   */\n      mstore\n        /* \"#utility.yul\":4845:4963   */\n      pop\n      pop\n      jump\t// out\n        /* \"#utility.yul\":4969:5244   */\n    tag_172:\n        /* \"#utility.yul\":5101:5104   */\n      0x00\n        /* \"#utility.yul\":5123:5218   */\n      tag_278\n        /* \"#utility.yul\":5214:5217   */\n      dup3\n        /* \"#utility.yul\":5205:5211   */\n      dup5\n        /* \"#utility.yul\":5123:5218   */\n      tag_262\n      jump\t// in\n    tag_278:\n        /* \"#utility.yul\":5116:5218   */\n      swap2\n      pop\n        /* \"#utility.yul\":5235:5238   */\n      dup2\n        /* \"#utility.yul\":5228:5238   */\n      swap1\n      pop\n        /* \"#utility.yul\":4969:5244   */\n      swap3\n      swap2\n      pop\n      pop\n      jump\t// out\n        /* \"#utility.yul\":5250:5460   */\n    tag_27:\n        /* \"#utility.yul\":5337:5341   */\n      0x00\n        /* \"#utility.yul\":5375:5377   */\n      0x20\n        /* \"#utility.yul\":5364:5373   */\n      dup3\n        /* \"#utility.yul\":5360:5378   */\n      add\n        /* \"#utility.yul\":5352:5378   */\n      swap1\n      pop\n        /* \"#utility.yul\":5388:5453   */\n      tag_280\n        /* \"#utility.yul\":5450:5451   */\n      0x00\n        /* \"#utility.yul\":5439:5448   */\n      dup4\n        /* \"#utility.yul\":5435:5452   */\n      add\n        /* \"#utility.yul\":5426:5432   */\n      dup5\n        /* \"#utility.yul\":5388:5453   */\n      tag_248\n      jump\t// in\n    tag_280:\n        /* \"#utility.yul\":5250:5460   */\n      swap3\n      swap2\n      pop\n      pop\n      jump\t// out\n        /* \"#utility.yul\":5466:5779   */\n    tag_168:\n        /* \"#utility.yul\":5579:5583   */\n      0x00\n        /* \"#utility.yul\":5617:5619   */\n      0x20\n        /* \"#utility.yul\":5606:5615   */\n      dup3\n        /* \"#utility.yul\":5602:5620   */\n      add\n        /* \"#utility.yul\":5594:5620   */\n      swap1\n      pop\n        /* \"#utility.yul\":5666:5675   */\n      dup2\n        /* \"#utility.yul\":5660:5664   */\n      dup2\n        /* \"#utility.yul\":5656:5676   */\n      sub\n        /* \"#utility.yul\":5652:5653   */\n      0x00\n        /* \"#utility.yul\":5641:5650   */\n      dup4\n        /* \"#utility.yul\":5637:5654   */\n      add\n        /* \"#utility.yul\":5630:5677   */\n      mstore\n        /* \"#utility.yul\":5694:5772   */\n      tag_282\n        /* \"#utility.yul\":5767:5771   */\n      dup2\n        /* \"#utility.yul\":5758:5764   */\n      dup5\n        /* \"#utility.yul\":5694:5772   */\n      tag_252\n      jump\t// in\n    tag_282:\n        /* \"#utility.yul\":5686:5772   */\n      swap1\n      pop\n        /* \"#utility.yul\":5466:5779   */\n      swap3\n      swap2\n      pop\n      pop\n      jump\t// out\n        /* \"#utility.yul\":5785:6299   */\n    tag_83:\n        /* \"#utility.yul\":5946:5950   */\n      0x00\n        /* \"#utility.yul\":5984:5986   */\n      0x40\n        /* \"#utility.yul\":5973:5982   */\n      dup3\n        /* \"#utility.yul\":5969:5987   */\n      add\n        /* \"#utility.yul\":5961:5987   */\n      swap1\n      pop\n        /* \"#utility.yul\":6033:6042   */\n      dup2\n        /* \"#utility.yul\":6027:6031   */\n      dup2\n        /* \"#utility.yul\":6023:6043   */\n      sub\n        /* \"#utility.yul\":6019:6020   */\n      0x00\n        /* \"#utility.yul\":6008:6017   */\n      dup4\n        /* \"#utility.yul\":6004:6021   */\n      add\n        /* \"#utility.yul\":5997:6044   */\n      mstore\n        /* \"#utility.yul\":6061:6139   */\n      tag_284\n        /* \"#utility.yul\":6134:6138   */\n      dup2\n        /* \"#utility.yul\":6125:6131   */\n      dup6\n        /* \"#utility.yul\":6061:6139   */\n      tag_252\n      jump\t// in\n    tag_284:\n        /* \"#utility.yul\":6053:6139   */\n      swap1\n      pop\n        /* \"#utility.yul\":6186:6195   */\n      dup2\n        /* \"#utility.yul\":6180:6184   */\n      dup2\n        /* \"#utility.yul\":6176:6196   */\n      sub\n        /* \"#utility.yul\":6171:6173   */\n      0x20\n        /* \"#utility.yul\":6160:6169   */\n      dup4\n        /* \"#utility.yul\":6156:6174   */\n      add\n        /* \"#utility.yul\":6149:6197   */\n      mstore\n        /* \"#utility.yul\":6214:6292   */\n      tag_285\n        /* \"#utility.yul\":6287:6291   */\n      dup2\n        /* \"#utility.yul\":6278:6284   */\n      dup5\n        /* \"#utility.yul\":6214:6292   */\n      tag_252\n      jump\t// in\n    tag_285:\n        /* \"#utility.yul\":6206:6292   */\n      swap1\n      pop\n        /* \"#utility.yul\":5785:6299   */\n      swap4\n      swap3\n      pop\n      pop\n      pop\n      jump\t// out\n        /* \"#utility.yul\":6305:6929   */\n    tag_17:\n        /* \"#utility.yul\":6494:6498   */\n      0x00\n        /* \"#utility.yul\":6532:6534   */\n      0x60\n        /* \"#utility.yul\":6521:6530   */\n      dup3\n        /* \"#utility.yul\":6517:6535   */\n      add\n        /* \"#utility.yul\":6509:6535   */\n      swap1\n      pop\n        /* \"#utility.yul\":6581:6590   */\n      dup2\n        /* \"#utility.yul\":6575:6579   */\n      dup2\n        /* \"#utility.yul\":6571:6591   */\n      sub\n        /* \"#utility.yul\":6567:6568   */\n      0x00\n        /* \"#utility.yul\":6556:6565   */\n      dup4\n        /* \"#utility.yul\":6552:6569   */\n      add\n        /* \"#utility.yul\":6545:6592   */\n      mstore\n        /* \"#utility.yul\":6609:6687   */\n      tag_287\n        /* \"#utility.yul\":6682:6686   */\n      dup2\n        /* \"#utility.yul\":6673:6679   */\n      dup7\n        /* \"#utility.yul\":6609:6687   */\n      tag_252\n      jump\t// in\n    tag_287:\n        /* \"#utility.yul\":6601:6687   */\n      swap1\n      pop\n        /* \"#utility.yul\":6734:6743   */\n      dup2\n        /* \"#utility.yul\":6728:6732   */\n      dup2\n        /* \"#utility.yul\":6724:6744   */\n      sub\n        /* \"#utility.yul\":6719:6721   */\n      0x20\n        /* \"#utility.yul\":6708:6717   */\n      dup4\n        /* \"#utility.yul\":6704:6722   */\n      add\n        /* \"#utility.yul\":6697:6745   */\n      mstore\n        /* \"#utility.yul\":6762:6840   */\n      tag_288\n        /* \"#utility.yul\":6835:6839   */\n      dup2\n        /* \"#utility.yul\":6826:6832   */\n      dup6\n        /* \"#utility.yul\":6762:6840   */\n      tag_252\n      jump\t// in\n    tag_288:\n        /* \"#utility.yul\":6754:6840   */\n      swap1\n      pop\n        /* \"#utility.yul\":6850:6922   */\n      tag_289\n        /* \"#utility.yul\":6918:6920   */\n      0x40\n        /* \"#utility.yul\":6907:6916   */\n      dup4\n        /* \"#utility.yul\":6903:6921   */\n      add\n        /* \"#utility.yul\":6894:6900   */\n      dup5\n        /* \"#utility.yul\":6850:6922   */\n      tag_273\n      jump\t// in\n    tag_289:\n        /* \"#utility.yul\":6305:6929   */\n      swap5\n      swap4\n      pop\n      pop\n      pop\n      pop\n      jump\t// out\n        /* \"#utility.yul\":6935:7354   */\n    tag_121:\n        /* \"#utility.yul\":7101:7105   */\n      0x00\n        /* \"#utility.yul\":7139:7141   */\n      0x20\n        /* \"#utility.yul\":7128:7137   */\n      dup3\n        /* \"#utility.yul\":7124:7142   */\n      add\n        /* \"#utility.yul\":7116:7142   */\n      swap1\n      pop\n        /* \"#utility.yul\":7188:7197   */\n      dup2\n        /* \"#utility.yul\":7182:7186   */\n      dup2\n        /* \"#utility.yul\":7178:7198   */\n      sub\n        /* \"#utility.yul\":7174:7175   */\n      0x00\n        /* \"#utility.yul\":7163:7172   */\n      dup4\n        /* \"#utility.yul\":7159:7176   */\n      add\n        /* \"#utility.yul\":7152:7199   */\n      mstore\n        /* \"#utility.yul\":7216:7347   */\n      tag_291\n        /* \"#utility.yul\":7342:7346   */\n      dup2\n        /* \"#utility.yul\":7216:7347   */\n      tag_268\n      jump\t// in\n    tag_291:\n        /* \"#utility.yul\":7208:7347   */\n      swap1\n      pop\n        /* \"#utility.yul\":6935:7354   */\n      swap2\n      swap1\n      pop\n      jump\t// out\n        /* \"#utility.yul\":7360:7582   */\n    tag_21:\n        /* \"#utility.yul\":7453:7457   */\n      0x00\n        /* \"#utility.yul\":7491:7493   */\n      0x20\n        /* \"#utility.yul\":7480:7489   */\n      dup3\n        /* \"#utility.yul\":7476:7494   */\n      add\n        /* \"#utility.yul\":7468:7494   */\n      swap1\n      pop\n        /* \"#utility.yul\":7504:7575   */\n      tag_293\n        /* \"#utility.yul\":7572:7573   */\n      0x00\n        /* \"#utility.yul\":7561:7570   */\n      dup4\n        /* \"#utility.yul\":7557:7574   */\n      add\n        /* \"#utility.yul\":7548:7554   */\n      dup5\n        /* \"#utility.yul\":7504:7575   */\n      tag_273\n      jump\t// in\n    tag_293:\n        /* \"#utility.yul\":7360:7582   */\n      swap3\n      swap2\n      pop\n      pop\n      jump\t// out\n        /* \"#utility.yul\":7588:7717   */\n    tag_201:\n        /* \"#utility.yul\":7622:7628   */\n      0x00\n        /* \"#utility.yul\":7649:7669   */\n      tag_295\n      tag_296\n      jump\t// in\n    tag_295:\n        /* \"#utility.yul\":7639:7669   */\n      swap1\n      pop\n        /* \"#utility.yul\":7678:7711   */\n      tag_297\n        /* \"#utility.yul\":7706:7710   */\n      dup3\n        /* \"#utility.yul\":7698:7704   */\n      dup3\n        /* \"#utility.yul\":7678:7711   */\n      tag_298\n      jump\t// in\n    tag_297:\n        /* \"#utility.yul\":7588:7717   */\n      swap2\n      swap1\n      pop\n      jump\t// out\n        /* \"#utility.yul\":7723:7798   */\n    tag_296:\n        /* \"#utility.yul\":7756:7762   */\n      0x00\n        /* \"#utility.yul\":7789:7791   */\n      0x40\n        /* \"#utility.yul\":7783:7792   */\n      mload\n        /* \"#utility.yul\":7773:7792   */\n      swap1\n      pop\n        /* \"#utility.yul\":7723:7798   */\n      swap1\n      jump\t// out\n        /* \"#utility.yul\":7804:8112   */\n    tag_200:\n        /* \"#utility.yul\":7866:7870   */\n      0x00\n        /* \"#utility.yul\":7956:7974   */\n      0xffffffffffffffff\n        /* \"#utility.yul\":7948:7954   */\n      dup3\n        /* \"#utility.yul\":7945:7975   */\n      gt\n        /* \"#utility.yul\":7942:7998   */\n      iszero\n      tag_301\n      jumpi\n        /* \"#utility.yul\":7978:7996   */\n      tag_302\n      tag_303\n      jump\t// in\n    tag_302:\n        /* \"#utility.yul\":7942:7998   */\n    tag_301:\n        /* \"#utility.yul\":8016:8045   */\n      tag_304\n        /* \"#utility.yul\":8038:8044   */\n      dup3\n        /* \"#utility.yul\":8016:8045   */\n      tag_261\n      jump\t// in\n    tag_304:\n        /* \"#utility.yul\":8008:8045   */\n      swap1\n      pop\n        /* \"#utility.yul\":8100:8104   */\n      0x20\n        /* \"#utility.yul\":8094:8098   */\n      dup2\n        /* \"#utility.yul\":8090:8105   */\n      add\n        /* \"#utility.yul\":8082:8105   */\n      swap1\n      pop\n        /* \"#utility.yul\":7804:8112   */\n      swap2\n      swap1\n      pop\n      jump\t// out\n        /* \"#utility.yul\":8118:8217   */\n    tag_255:\n        /* \"#utility.yul\":8170:8176   */\n      0x00\n        /* \"#utility.yul\":8204:8209   */\n      dup2\n        /* \"#utility.yul\":8198:8210   */\n      mload\n        /* \"#utility.yul\":8188:8210   */\n      swap1\n      pop\n        /* \"#utility.yul\":8118:8217   */\n      swap2\n      swap1\n      pop\n      jump\t// out\n        /* \"#utility.yul\":8223:8392   */\n    tag_257:\n        /* \"#utility.yul\":8307:8318   */\n      0x00\n        /* \"#utility.yul\":8341:8347   */\n      dup3\n        /* \"#utility.yul\":8336:8339   */\n      dup3\n        /* \"#utility.yul\":8329:8348   */\n      mstore\n        /* \"#utility.yul\":8381:8385   */\n      0x20\n        /* \"#utility.yul\":8376:8379   */\n      dup3\n        /* \"#utility.yul\":8372:8386   */\n      add\n        /* \"#utility.yul\":8357:8386   */\n      swap1\n      pop\n        /* \"#utility.yul\":8223:8392   */\n      swap3\n      swap2\n      pop\n      pop\n      jump\t// out\n        /* \"#utility.yul\":8398:8546   */\n    tag_266:\n        /* \"#utility.yul\":8500:8511   */\n      0x00\n        /* \"#utility.yul\":8537:8540   */\n      dup2\n        /* \"#utility.yul\":8522:8540   */\n      swap1\n      pop\n        /* \"#utility.yul\":8398:8546   */\n      swap3\n      swap2\n      pop\n      pop\n      jump\t// out\n        /* \"#utility.yul\":8552:8743   */\n    tag_146:\n        /* \"#utility.yul\":8592:8596   */\n      0x00\n        /* \"#utility.yul\":8612:8632   */\n      tag_309\n        /* \"#utility.yul\":8630:8631   */\n      dup3\n        /* \"#utility.yul\":8612:8632   */\n      tag_276\n      jump\t// in\n    tag_309:\n        /* \"#utility.yul\":8607:8632   */\n      swap2\n      pop\n        /* \"#utility.yul\":8646:8666   */\n      tag_310\n        /* \"#utility.yul\":8664:8665   */\n      dup4\n        /* \"#utility.yul\":8646:8666   */\n      tag_276\n      jump\t// in\n    tag_310:\n        /* \"#utility.yul\":8641:8666   */\n      swap3\n      pop\n        /* \"#utility.yul\":8685:8686   */\n      dup3\n        /* \"#utility.yul\":8682:8683   */\n      dup3\n        /* \"#utility.yul\":8679:8687   */\n      lt\n        /* \"#utility.yul\":8676:8710   */\n      iszero\n      tag_311\n      jumpi\n        /* \"#utility.yul\":8690:8708   */\n      tag_312\n      tag_313\n      jump\t// in\n    tag_312:\n        /* \"#utility.yul\":8676:8710   */\n    tag_311:\n        /* \"#utility.yul\":8735:8736   */\n      dup3\n        /* \"#utility.yul\":8732:8733   */\n      dup3\n        /* \"#utility.yul\":8728:8737   */\n      sub\n        /* \"#utility.yul\":8720:8737   */\n      swap1\n      pop\n        /* \"#utility.yul\":8552:8743   */\n      swap3\n      swap2\n      pop\n      pop\n      jump\t// out\n        /* \"#utility.yul\":8749:8839   */\n    tag_251:\n        /* \"#utility.yul\":8783:8790   */\n      0x00\n        /* \"#utility.yul\":8826:8831   */\n      dup2\n        /* \"#utility.yul\":8819:8832   */\n      iszero\n        /* \"#utility.yul\":8812:8833   */\n      iszero\n        /* \"#utility.yul\":8801:8833   */\n      swap1\n      pop\n        /* \"#utility.yul\":8749:8839   */\n      swap2\n      swap1\n      pop\n      jump\t// out\n        /* \"#utility.yul\":8845:8922   */\n    tag_276:\n        /* \"#utility.yul\":8882:8889   */\n      0x00\n        /* \"#utility.yul\":8911:8916   */\n      dup2\n        /* \"#utility.yul\":8900:8916   */\n      swap1\n      pop\n        /* \"#utility.yul\":8845:8922   */\n      swap2\n      swap1\n      pop\n      jump\t// out\n        /* \"#utility.yul\":8928:9082   */\n    tag_206:\n        /* \"#utility.yul\":9012:9018   */\n      dup3\n        /* \"#utility.yul\":9007:9010   */\n      dup2\n        /* \"#utility.yul\":9002:9005   */\n      dup4\n        /* \"#utility.yul\":8989:9019   */\n      calldatacopy\n        /* \"#utility.yul\":9074:9075   */\n      0x00\n        /* \"#utility.yul\":9065:9071   */\n      dup4\n        /* \"#utility.yul\":9060:9063   */\n      dup4\n        /* \"#utility.yul\":9056:9072   */\n      add\n        /* \"#utility.yul\":9049:9076   */\n      mstore\n        /* \"#utility.yul\":8928:9082   */\n      pop\n      pop\n      pop\n      jump\t// out\n        /* \"#utility.yul\":9088:9395   */\n    tag_259:\n        /* \"#utility.yul\":9156:9157   */\n      0x00\n        /* \"#utility.yul\":9166:9279   */\n    tag_318:\n        /* \"#utility.yul\":9180:9186   */\n      dup4\n        /* \"#utility.yul\":9177:9178   */\n      dup2\n        /* \"#utility.yul\":9174:9187   */\n      lt\n        /* \"#utility.yul\":9166:9279   */\n      iszero\n      tag_320\n      jumpi\n        /* \"#utility.yul\":9265:9266   */\n      dup1\n        /* \"#utility.yul\":9260:9263   */\n      dup3\n        /* \"#utility.yul\":9256:9267   */\n      add\n        /* \"#utility.yul\":9250:9268   */\n      mload\n        /* \"#utility.yul\":9246:9247   */\n      dup2\n        /* \"#utility.yul\":9241:9244   */\n      dup5\n        /* \"#utility.yul\":9237:9248   */\n      add\n        /* \"#utility.yul\":9230:9269   */\n      mstore\n        /* \"#utility.yul\":9202:9204   */\n      0x20\n        /* \"#utility.yul\":9199:9200   */\n      dup2\n        /* \"#utility.yul\":9195:9205   */\n      add\n        /* \"#utility.yul\":9190:9205   */\n      swap1\n      pop\n        /* \"#utility.yul\":9166:9279   */\n      jump(tag_318)\n    tag_320:\n        /* \"#utility.yul\":9297:9303   */\n      dup4\n        /* \"#utility.yul\":9294:9295   */\n      dup2\n        /* \"#utility.yul\":9291:9304   */\n      gt\n        /* \"#utility.yul\":9288:9389   */\n      iszero\n      tag_321\n      jumpi\n        /* \"#utility.yul\":9377:9378   */\n      0x00\n        /* \"#utility.yul\":9368:9374   */\n      dup5\n        /* \"#utility.yul\":9363:9366   */\n      dup5\n        /* \"#utility.yul\":9359:9375   */\n      add\n        /* \"#utility.yul\":9352:9379   */\n      mstore\n        /* \"#utility.yul\":9288:9389   */\n    tag_321:\n        /* \"#utility.yul\":9137:9395   */\n      pop\n        /* \"#utility.yul\":9088:9395   */\n      pop\n      pop\n      pop\n      jump\t// out\n        /* \"#utility.yul\":9401:9572   */\n    tag_166:\n        /* \"#utility.yul\":9440:9443   */\n      0x00\n        /* \"#utility.yul\":9463:9487   */\n      tag_323\n        /* \"#utility.yul\":9481:9486   */\n      dup3\n        /* \"#utility.yul\":9463:9487   */\n      tag_276\n      jump\t// in\n    tag_323:\n        /* \"#utility.yul\":9454:9487   */\n      swap2\n      pop\n        /* \"#utility.yul\":9509:9513   */\n      0x00\n        /* \"#utility.yul\":9502:9507   */\n      dup3\n        /* \"#utility.yul\":9499:9514   */\n      eq\n        /* \"#utility.yul\":9496:9537   */\n      iszero\n      tag_324\n      jumpi\n        /* \"#utility.yul\":9517:9535   */\n      tag_325\n      tag_313\n      jump\t// in\n    tag_325:\n        /* \"#utility.yul\":9496:9537   */\n    tag_324:\n        /* \"#utility.yul\":9564:9565   */\n      0x01\n        /* \"#utility.yul\":9557:9562   */\n      dup3\n        /* \"#utility.yul\":9553:9566   */\n      sub\n        /* \"#utility.yul\":9546:9566   */\n      swap1\n      pop\n        /* \"#utility.yul\":9401:9572   */\n      swap2\n      swap1\n      pop\n      jump\t// out\n        /* \"#utility.yul\":9578:9898   */\n    tag_51:\n        /* \"#utility.yul\":9622:9628   */\n      0x00\n        /* \"#utility.yul\":9659:9660   */\n      0x02\n        /* \"#utility.yul\":9653:9657   */\n      dup3\n        /* \"#utility.yul\":9649:9661   */\n      div\n        /* \"#utility.yul\":9639:9661   */\n      swap1\n      pop\n        /* \"#utility.yul\":9706:9707   */\n      0x01\n        /* \"#utility.yul\":9700:9704   */\n      dup3\n        /* \"#utility.yul\":9696:9708   */\n      and\n        /* \"#utility.yul\":9727:9745   */\n      dup1\n        /* \"#utility.yul\":9717:9798   */\n      tag_327\n      jumpi\n        /* \"#utility.yul\":9783:9787   */\n      0x7f\n        /* \"#utility.yul\":9775:9781   */\n      dup3\n        /* \"#utility.yul\":9771:9788   */\n      and\n        /* \"#utility.yul\":9761:9788   */\n      swap2\n      pop\n        /* \"#utility.yul\":9717:9798   */\n    tag_327:\n        /* \"#utility.yul\":9845:9847   */\n      0x20\n        /* \"#utility.yul\":9837:9843   */\n      dup3\n        /* \"#utility.yul\":9834:9848   */\n      lt\n        /* \"#utility.yul\":9814:9832   */\n      dup2\n        /* \"#utility.yul\":9811:9849   */\n      eq\n        /* \"#utility.yul\":9808:9892   */\n      iszero\n      tag_328\n      jumpi\n        /* \"#utility.yul\":9864:9882   */\n      tag_329\n      tag_330\n      jump\t// in\n    tag_329:\n        /* \"#utility.yul\":9808:9892   */\n    tag_328:\n        /* \"#utility.yul\":9629:9898   */\n      pop\n        /* \"#utility.yul\":9578:9898   */\n      swap2\n      swap1\n      pop\n      jump\t// out\n        /* \"#utility.yul\":9904:10185   */\n    tag_298:\n        /* \"#utility.yul\":9987:10014   */\n      tag_332\n        /* \"#utility.yul\":10009:10013   */\n      dup3\n        /* \"#utility.yul\":9987:10014   */\n      tag_261\n      jump\t// in\n    tag_332:\n        /* \"#utility.yul\":9979:9985   */\n      dup2\n        /* \"#utility.yul\":9975:10015   */\n      add\n        /* \"#utility.yul\":10117:10123   */\n      dup2\n        /* \"#utility.yul\":10105:10115   */\n      dup2\n        /* \"#utility.yul\":10102:10124   */\n      lt\n        /* \"#utility.yul\":10081:10099   */\n      0xffffffffffffffff\n        /* \"#utility.yul\":10069:10079   */\n      dup3\n        /* \"#utility.yul\":10066:10100   */\n      gt\n        /* \"#utility.yul\":10063:10125   */\n      or\n        /* \"#utility.yul\":10060:10148   */\n      iszero\n      tag_333\n      jumpi\n        /* \"#utility.yul\":10128:10146   */\n      tag_334\n      tag_303\n      jump\t// in\n    tag_334:\n        /* \"#utility.yul\":10060:10148   */\n    tag_333:\n        /* \"#utility.yul\":10168:10178   */\n      dup1\n        /* \"#utility.yul\":10164:10166   */\n      0x40\n        /* \"#utility.yul\":10157:10179   */\n      mstore\n        /* \"#utility.yul\":9947:10185   */\n      pop\n        /* \"#utility.yul\":9904:10185   */\n      pop\n      pop\n      jump\t// out\n        /* \"#utility.yul\":10191:10424   */\n    tag_85:\n        /* \"#utility.yul\":10230:10233   */\n      0x00\n        /* \"#utility.yul\":10253:10277   */\n      tag_336\n        /* \"#utility.yul\":10271:10276   */\n      dup3\n        /* \"#utility.yul\":10253:10277   */\n      tag_276\n      jump\t// in\n    tag_336:\n        /* \"#utility.yul\":10244:10277   */\n      swap2\n      pop\n        /* \"#utility.yul\":10299:10365   */\n      0xffffffffffffffffffffffffffffffffffffffffffffffffffffffffffffffff\n        /* \"#utility.yul\":10292:10297   */\n      dup3\n        /* \"#utility.yul\":10289:10366   */\n      eq\n        /* \"#utility.yul\":10286:10389   */\n      iszero\n      tag_337\n      jumpi\n        /* \"#utility.yul\":10369:10387   */\n      tag_338\n      tag_313\n      jump\t// in\n    tag_338:\n        /* \"#utility.yul\":10286:10389   */\n    tag_337:\n        /* \"#utility.yul\":10416:10417   */\n      0x01\n        /* \"#utility.yul\":10409:10414   */\n      dup3\n        /* \"#utility.yul\":10405:10418   */\n      add\n        /* \"#utility.yul\":10398:10418   */\n      swap1\n      pop\n        /* \"#utility.yul\":10191:10424   */\n      swap2\n      swap1\n      pop\n      jump\t// out\n        /* \"#utility.yul\":10430:10610   */\n    tag_313:\n        /* \"#utility.yul\":10478:10555   */\n      0x4e487b7100000000000000000000000000000000000000000000000000000000\n        /* \"#utility.yul\":10475:10476   */\n      0x00\n        /* \"#utility.yul\":10468:10556   */\n      mstore\n        /* \"#utility.yul\":10575:10579   */\n      0x11\n        /* \"#utility.yul\":10572:10573   */\n      0x04\n        /* \"#utility.yul\":10565:10580   */\n      mstore\n        /* \"#utility.yul\":10599:10603   */\n      0x24\n        /* \"#utility.yul\":10596:10597   */\n      0x00\n        /* \"#utility.yul\":10589:10604   */\n      revert\n        /* \"#utility.yul\":10616:10796   */\n    tag_330:\n        /* \"#utility.yul\":10664:10741   */\n      0x4e487b7100000000000000000000000000000000000000000000000000000000\n        /* \"#utility.yul\":10661:10662   */\n      0x00\n        /* \"#utility.yul\":10654:10742   */\n      mstore\n        /* \"#utility.yul\":10761:10765   */\n      0x22\n        /* \"#utility.yul\":10758:10759   */\n      0x04\n        /* \"#utility.yul\":10751:10766   */\n      mstore\n        /* \"#utility.yul\":10785:10789   */\n      0x24\n        /* \"#utility.yul\":10782:10783   */\n      0x00\n        /* \"#utility.yul\":10775:10790   */\n      revert\n        /* \"#utility.yul\":10802:10982   */\n    tag_68:\n        /* \"#utility.yul\":10850:10927   */\n      0x4e487b7100000000000000000000000000000000000000000000000000000000\n        /* \"#utility.yul\":10847:10848   */\n      0x00\n        /* \"#utility.yul\":10840:10928   */\n      mstore\n        /* \"#utility.yul\":10947:10951   */\n      0x32\n        /* \"#utility.yul\":10944:10945   */\n      0x04\n        /* \"#utility.yul\":10937:10952   */\n      mstore\n        /* \"#utility.yul\":10971:10975   */\n      0x24\n        /* \"#utility.yul\":10968:10969   */\n      0x00\n        /* \"#utility.yul\":10961:10976   */\n      revert\n        /* \"#utility.yul\":10988:11168   */\n    tag_303:\n        /* \"#utility.yul\":11036:11113   */\n      0x4e487b7100000000000000000000000000000000000000000000000000000000\n        /* \"#utility.yul\":11033:11034   */\n      0x00\n        /* \"#utility.yul\":11026:11114   */\n      mstore\n        /* \"#utility.yul\":11133:11137   */\n      0x41\n        /* \"#utility.yul\":11130:11131   */\n      0x04\n        /* \"#utility.yul\":11123:11138   */\n      mstore\n        /* \"#utility.yul\":11157:11161   */\n      0x24\n        /* \"#utility.yul\":11154:11155   */\n      0x00\n        /* \"#utility.yul\":11147:11162   */\n      revert\n        /* \"#utility.yul\":11174:11291   */\n    tag_211:\n        /* \"#utility.yul\":11283:11284   */\n      0x00\n        /* \"#utility.yul\":11280:11281   */\n      dup1\n        /* \"#utility.yul\":11273:11285   */\n      revert\n        /* \"#utility.yul\":11297:11414   */\n    tag_204:\n        /* \"#utility.yul\":11406:11407   */\n      0x00\n        /* \"#utility.yul\":11403:11404   */\n      dup1\n        /* \"#utility.yul\":11396:11408   */\n      revert\n        /* \"#utility.yul\":11420:11537   */\n    tag_223:\n        /* \"#utility.yul\":11529:11530   */\n      0x00\n        /* \"#utility.yul\":11526:11527   */\n      dup1\n        /* \"#utility.yul\":11519:11531   */\n      revert\n        /* \"#utility.yul\":11543:11660   */\n    tag_220:\n        /* \"#utility.yul\":11652:11653   */\n      0x00\n        /* \"#utility.yul\":11649:11650   */\n      dup1\n        /* \"#utility.yul\":11642:11654   */\n      revert\n        /* \"#utility.yul\":11666:11768   */\n    tag_261:\n        /* \"#utility.yul\":11707:11713   */\n      0x00\n        /* \"#utility.yul\":11758:11760   */\n      0x1f\n        /* \"#utility.yul\":11754:11761   */\n      not\n        /* \"#utility.yul\":11749:11751   */\n      0x1f\n        /* \"#utility.yul\":11742:11747   */\n      dup4\n        /* \"#utility.yul\":11738:11752   */\n      add\n        /* \"#utility.yul\":11734:11762   */\n      and\n        /* \"#utility.yul\":11724:11762   */\n      swap1\n      pop\n        /* \"#utility.yul\":11666:11768   */\n      swap2\n      swap1\n      pop\n      jump\t// out\n        /* \"#utility.yul\":11774:11941   */\n    tag_272:\n        /* \"#utility.yul\":11914:11933   */\n      0x636f756e747279206e6f7420666f756e64000000000000000000000000000000\n        /* \"#utility.yul\":11910:11911   */\n      0x00\n        /* \"#utility.yul\":11902:11908   */\n      dup3\n        /* \"#utility.yul\":11898:11912   */\n      add\n        /* \"#utility.yul\":11891:11934   */\n      mstore\n        /* \"#utility.yul\":11774:11941   */\n      pop\n      jump\t// out\n        /* \"#utility.yul\":11947:12069   */\n    tag_216:\n        /* \"#utility.yul\":12020:12044   */\n      tag_350\n        /* \"#utility.yul\":12038:12043   */\n      dup2\n        /* \"#utility.yul\":12020:12044   */\n      tag_276\n      jump\t// in\n    tag_350:\n        /* \"#utility.yul\":12013:12018   */\n      dup2\n        /* \"#utility.yul\":12010:12045   */\n      eq\n        /* \"#utility.yul\":12000:12063   */\n      tag_351\n      jumpi\n        /* \"#utility.yul\":12059:12060   */\n      0x00\n        /* \"#utility.yul\":12056:12057   */\n      dup1\n        /* \"#utility.yul\":12049:12061   */\n      revert\n        /* \"#utility.yul\":12000:12063   */\n    tag_351:\n        /* \"#utility.yul\":11947:12069   */\n      pop\n      jump\t// out\n\n    auxdata: 0xa2646970667358221220ed1e2251b1e50fdf5a4a8a399d2548aa322037b2ec29237d8ee42268ec5f1e6064736f6c63430008070033\n}\n",
				"bytecode": {
					"linkReferences": {},
					"object": "608060405234801561001057600080fd5b506000600181905550611355806100286000396000f3fe608060405234801561001057600080fd5b50600436106100885760003560e01c8063acf754581161005b578063acf754581461013f578063beca80091461015d578063c1356d261461017b578063cae65058146101ab57610088565b806308e9daa51461008d57806362738129146100bf57806381ba02be146100dd578063848924cb1461010d575b600080fd5b6100a760048036038101906100a29190610e3c565b6101db565b6040516100b693929190610f9f565b60405180910390f35b6100c7610325565b6040516100d49190611004565b60405180910390f35b6100f760048036038101906100f29190610d39565b61032b565b6040516101049190610f2b565b60405180910390f35b61012760048036038101906101229190610cf0565b610495565b60405161013693929190610f9f565b60405180910390f35b610147610750565b6040516101549190611004565b60405180910390f35b61016561075c565b6040516101729190611004565b60405180910390f35b61019560048036038101906101909190610db1565b610768565b6040516101a29190611004565b60405180910390f35b6101c560048036038101906101c09190610cf0565b61085a565b6040516101d29190610f2b565b60405180910390f35b600081815481106101eb57600080fd5b906000526020600020906003020160009150905080600001805461020e90611152565b80601f016020809104026020016040519081016040528092919081815260200182805461023a90611152565b80156102875780601f1061025c57610100808354040283529160200191610287565b820191906000526020600020905b81548152906001019060200180831161026a57829003601f168201915b50505050509080600101805461029c90611152565b80601f01602080910402602001604051908101604052809291908181526020018280546102c890611152565b80156103155780601f106102ea57610100808354040283529160200191610315565b820191906000526020600020905b8154815290600101906020018083116102f857829003601f168201915b5050505050908060020154905083565b60015481565b600080600090505b600154811015610489576103f4600082815481106103545761035361125c565b5b9060005260206000209060030201600001805461037090611152565b80601f016020809104026020016040519081016040528092919081815260200182805461039c90611152565b80156103e95780601f106103be576101008083540402835291602001916103e9565b820191906000526020600020905b8154815290600101906020018083116103cc57829003601f168201915b505050505085610aa2565b1561047657826000828154811061040e5761040d61125c565b5b90600052602060002090600302016001019080519060200190610432929190610afb565b507fdcbffcd2bd990a26d28efebebb6f9a7a35f2abf2f0e25720c56a457fce2211588484604051610464929190610f68565b60405180910390a1600191505061048f565b8080610481906111b5565b915050610333565b50600090505b92915050565b606080600080600090505b60015481101561070d57610561600082815481106104c1576104c061125c565b5b906000526020600020906003020160000180546104dd90611152565b80601f016020809104026020016040519081016040528092919081815260200182805461050990611152565b80156105565780601f1061052b57610100808354040283529160200191610556565b820191906000526020600020905b81548152906001019060200180831161053957829003601f168201915b505050505086610aa2565b156106fa576000818154811061057a5761057961125c565b5b90600052602060002090600302016000016000828154811061059f5761059e61125c565b5b9060005260206000209060030201600101600083815481106105c4576105c361125c565b5b9060005260206000209060030201600201548280546105e290611152565b80601f016020809104026020016040519081016040528092919081815260200182805461060e90611152565b801561065b5780601f106106305761010080835404028352916020019161065b565b820191906000526020600020905b81548152906001019060200180831161063e57829003601f168201915b5050505050925081805461066e90611152565b80601f016020809104026020016040519081016040528092919081815260200182805461069a90611152565b80156106e75780601f106106bc576101008083540402835291602001916106e7565b820191906000526020600020905b8154815290600101906020018083116106ca57829003601f168201915b5050505050915093509350935050610749565b8080610705906111b5565b9150506104a0565b506040517f08c379a000000000000000000000000000000000000000000000000000000000815260040161074090610fe4565b60405180910390fd5b9193909250565b60008080549050905090565b60008080549050905090565b6000806040518060600160405280868152602001858152602001848152509050600081908060018154018082558091505060019003906000526020600020906003020160009091909190915060008201518160000190805190602001906107d0929190610afb565b5060208201518160010190805190602001906107ed929190610afb565b506040820151816002015550506001600081548092919061080d906111b5565b91905055507f0468dc69df7bee8f1d38fbb57d4c42ac20476b6d66c4477d41c677b7e2d6389385858560405161084593929190610f9f565b60405180910390a16001549150509392505050565b6000806001541161086a57600080fd5b60005b600154811015610a975761092e6000828154811061088e5761088d61125c565b5b906000526020600020906003020160000180546108aa90611152565b80601f01602080910402602001604051908101604052809291908181526020018280546108d690611152565b80156109235780601f106108f857610100808354040283529160200191610923565b820191906000526020600020905b81548152906001019060200180831161090657829003601f168201915b505050505084610aa2565b15610a8457600060018054610943919061109c565b815481106109545761095361125c565b5b9060005260206000209060030201600082815481106109765761097561125c565b5b9060005260206000209060030201600082018160000190805461099890611152565b6109a3929190610b81565b5060018201816001019080546109b890611152565b6109c3929190610b81565b50600282015481600201559050506000600180546109e1919061109c565b815481106109f2576109f161125c565b5b906000526020600020906003020160008082016000610a119190610c0e565b600182016000610a219190610c0e565b6002820160009055505060016000815480929190610a3e90611128565b91905055507f1aae94a171c3e578099f7103bbb8a169533e0d22f84eb9807747a1c5bebbbc4183604051610a729190610f46565b60405180910390a16001915050610a9d565b8080610a8f906111b5565b91505061086d565b50600090505b919050565b600081604051602001610ab59190610f14565b6040516020818303038152906040528051906020012083604051602001610adc9190610f14565b6040516020818303038152906040528051906020012014905092915050565b828054610b0790611152565b90600052602060002090601f016020900481019282610b295760008555610b70565b82601f10610b4257805160ff1916838001178555610b70565b82800160010185558215610b70579182015b82811115610b6f578251825591602001919060010190610b54565b5b509050610b7d9190610c4e565b5090565b828054610b8d90611152565b90600052602060002090601f016020900481019282610baf5760008555610bfd565b82601f10610bc05780548555610bfd565b82800160010185558215610bfd57600052602060002091601f016020900482015b82811115610bfc578254825591600101919060010190610be1565b5b509050610c0a9190610c4e565b5090565b508054610c1a90611152565b6000825580601f10610c2c5750610c4b565b601f016020900490600052602060002090810190610c4a9190610c4e565b5b50565b5b80821115610c67576000816000905550600101610c4f565b5090565b6000610c7e610c7984611044565b61101f565b905082815260208101848484011115610c9a57610c996112bf565b5b610ca58482856110e6565b509392505050565b600082601f830112610cc257610cc16112ba565b5b8135610cd2848260208601610c6b565b91505092915050565b600081359050610cea81611308565b92915050565b600060208284031215610d0657610d056112c9565b5b600082013567ffffffffffffffff811115610d2457610d236112c4565b5b610d3084828501610cad565b91505092915050565b60008060408385031215610d5057610d4f6112c9565b5b600083013567ffffffffffffffff811115610d6e57610d6d6112c4565b5b610d7a85828601610cad565b925050602083013567ffffffffffffffff811115610d9b57610d9a6112c4565b5b610da785828601610cad565b9150509250929050565b600080600060608486031215610dca57610dc96112c9565b5b600084013567ffffffffffffffff811115610de857610de76112c4565b5b610df486828701610cad565b935050602084013567ffffffffffffffff811115610e1557610e146112c4565b5b610e2186828701610cad565b9250506040610e3286828701610cdb565b9150509250925092565b600060208284031215610e5257610e516112c9565b5b6000610e6084828501610cdb565b91505092915050565b610e72816110d0565b82525050565b6000610e8382611075565b610e8d8185611080565b9350610e9d8185602086016110f5565b610ea6816112ce565b840191505092915050565b6000610ebc82611075565b610ec68185611091565b9350610ed68185602086016110f5565b80840191505092915050565b6000610eef601183611080565b9150610efa826112df565b602082019050919050565b610f0e816110dc565b82525050565b6000610f208284610eb1565b915081905092915050565b6000602082019050610f406000830184610e69565b92915050565b60006020820190508181036000830152610f608184610e78565b905092915050565b60006040820190508181036000830152610f828185610e78565b90508181036020830152610f968184610e78565b90509392505050565b60006060820190508181036000830152610fb98186610e78565b90508181036020830152610fcd8185610e78565b9050610fdc6040830184610f05565b949350505050565b60006020820190508181036000830152610ffd81610ee2565b9050919050565b60006020820190506110196000830184610f05565b92915050565b600061102961103a565b90506110358282611184565b919050565b6000604051905090565b600067ffffffffffffffff82111561105f5761105e61128b565b5b611068826112ce565b9050602081019050919050565b600081519050919050565b600082825260208201905092915050565b600081905092915050565b60006110a7826110dc565b91506110b2836110dc565b9250828210156110c5576110c46111fe565b5b828203905092915050565b60008115159050919050565b6000819050919050565b82818337600083830152505050565b60005b838110156111135780820151818401526020810190506110f8565b83811115611122576000848401525b50505050565b6000611133826110dc565b91506000821415611147576111466111fe565b5b600182039050919050565b6000600282049050600182168061116a57607f821691505b6020821081141561117e5761117d61122d565b5b50919050565b61118d826112ce565b810181811067ffffffffffffffff821117156111ac576111ab61128b565b5b80604052505050565b60006111c0826110dc565b91507fffffffffffffffffffffffffffffffffffffffffffffffffffffffffffffffff8214156111f3576111f26111fe565b5b600182019050919050565b7f4e487b7100000000000000000000000000000000000000000000000000000000600052601160045260246000fd5b7f4e487b7100000000000000000000000000000000000000000000000000000000600052602260045260246000fd5b7f4e487b7100000000000000000000000000000000000000000000000000000000600052603260045260246000fd5b7f4e487b7100000000000000000000000000000000000000000000000000000000600052604160045260246000fd5b600080fd5b600080fd5b600080fd5b600080fd5b6000601f19601f8301169050919050565b7f636f756e747279206e6f7420666f756e64000000000000000000000000000000600082015250565b611311816110dc565b811461131c57600080fd5b5056fea2646970667358221220ed1e2251b1e50fdf5a4a8a399d2548aa322037b2ec29237d8ee42268ec5f1e6064736f6c63430008070033",
					"opcodes": "PUSH1 0x80 PUSH1 0x40 MSTORE CALLVALUE DUP1 ISZERO PUSH2 0x10 JUMPI PUSH1 0x0 DUP1 REVERT JUMPDEST POP PUSH1 0x0 PUSH1 0x1 DUP2 SWAP1 SSTORE POP PUSH2 0x1355 DUP1 PUSH2 0x28 PUSH1 0x0 CODECOPY PUSH1 0x0 RETURN INVALID PUSH1 0x80 PUSH1 0x40 MSTORE CALLVALUE DUP1 ISZERO PUSH2 0x10 JUMPI PUSH1 0x0 DUP1 REVERT JUMPDEST POP PUSH1 0x4 CALLDATASIZE LT PUSH2 0x88 JUMPI PUSH1 0x0 CALLDATALOAD PUSH1 0xE0 SHR DUP1 PUSH4 0xACF75458 GT PUSH2 0x5B JUMPI DUP1 PUSH4 0xACF75458 EQ PUSH2 0x13F JUMPI DUP1 PUSH4 0xBECA8009 EQ PUSH2 0x15D JUMPI DUP1 PUSH4 0xC1356D26 EQ PUSH2 0x17B JUMPI DUP1 PUSH4 0xCAE65058 EQ PUSH2 0x1AB JUMPI PUSH2 0x88 JUMP JUMPDEST DUP1 PUSH4 0x8E9DAA5 EQ PUSH2 0x8D JUMPI DUP1 PUSH4 0x62738129 EQ PUSH2 0xBF JUMPI DUP1 PUSH4 0x81BA02BE EQ PUSH2 0xDD JUMPI DUP1 PUSH4 0x848924CB EQ PUSH2 0x10D JUMPI JUMPDEST PUSH1 0x0 DUP1 REVERT JUMPDEST PUSH2 0xA7 PUSH1 0x4 DUP1 CALLDATASIZE SUB DUP2 ADD SWAP1 PUSH2 0xA2 SWAP2 SWAP1 PUSH2 0xE3C JUMP JUMPDEST PUSH2 0x1DB JUMP JUMPDEST PUSH1 0x40 MLOAD PUSH2 0xB6 SWAP4 SWAP3 SWAP2 SWAP1 PUSH2 0xF9F JUMP JUMPDEST PUSH1 0x40 MLOAD DUP1 SWAP2 SUB SWAP1 RETURN JUMPDEST PUSH2 0xC7 PUSH2 0x325 JUMP JUMPDEST PUSH1 0x40 MLOAD PUSH2 0xD4 SWAP2 SWAP1 PUSH2 0x1004 JUMP JUMPDEST PUSH1 0x40 MLOAD DUP1 SWAP2 SUB SWAP1 RETURN JUMPDEST PUSH2 0xF7 PUSH1 0x4 DUP1 CALLDATASIZE SUB DUP2 ADD SWAP1 PUSH2 0xF2 SWAP2 SWAP1 PUSH2 0xD39 JUMP JUMPDEST PUSH2 0x32B JUMP JUMPDEST PUSH1 0x40 MLOAD PUSH2 0x104 SWAP2 SWAP1 PUSH2 0xF2B JUMP JUMPDEST PUSH1 0x40 MLOAD DUP1 SWAP2 SUB SWAP1 RETURN JUMPDEST PUSH2 0x127 PUSH1 0x4 DUP1 CALLDATASIZE SUB DUP2 ADD SWAP1 PUSH2 0x122 SWAP2 SWAP1 PUSH2 0xCF0 JUMP JUMPDEST PUSH2 0x495 JUMP JUMPDEST PUSH1 0x40 MLOAD PUSH2 0x136 SWAP4 SWAP3 SWAP2 SWAP1 PUSH2 0xF9F JUMP JUMPDEST PUSH1 0x40 MLOAD DUP1 SWAP2 SUB SWAP1 RETURN JUMPDEST PUSH2 0x147 PUSH2 0x750 JUMP JUMPDEST PUSH1 0x40 MLOAD PUSH2 0x154 SWAP2 SWAP1 PUSH2 0x1004 JUMP JUMPDEST PUSH1 0x40 MLOAD DUP1 SWAP2 SUB SWAP1 RETURN JUMPDEST PUSH2 0x165 PUSH2 0x75C JUMP JUMPDEST PUSH1 0x40 MLOAD PUSH2 0x172 SWAP2 SWAP1 PUSH2 0x1004 JUMP JUMPDEST PUSH1 0x40 MLOAD DUP1 SWAP2 SUB SWAP1 RETURN JUMPDEST PUSH2 0x195 PUSH1 0x4 DUP1 CALLDATASIZE SUB DUP2 ADD SWAP1 PUSH2 0x190 SWAP2 SWAP1 PUSH2 0xDB1 JUMP JUMPDEST PUSH2 0x768 JUMP JUMPDEST PUSH1 0x40 MLOAD PUSH2 0x1A2 SWAP2 SWAP1 PUSH2 0x1004 JUMP JUMPDEST PUSH1 0x40 MLOAD DUP1 SWAP2 SUB SWAP1 RETURN JUMPDEST PUSH2 0x1C5 PUSH1 0x4 DUP1 CALLDATASIZE SUB DUP2 ADD SWAP1 PUSH2 0x1C0 SWAP2 SWAP1 PUSH2 0xCF0 JUMP JUMPDEST PUSH2 0x85A JUMP JUMPDEST PUSH1 0x40 MLOAD PUSH2 0x1D2 SWAP2 SWAP1 PUSH2 0xF2B JUMP JUMPDEST PUSH1 0x40 MLOAD DUP1 SWAP2 SUB SWAP1 RETURN JUMPDEST PUSH1 0x0 DUP2 DUP2 SLOAD DUP2 LT PUSH2 0x1EB JUMPI PUSH1 0x0 DUP1 REVERT JUMPDEST SWAP1 PUSH1 0x0 MSTORE PUSH1 0x20 PUSH1 0x0 KECCAK256 SWAP1 PUSH1 0x3 MUL ADD PUSH1 0x0 SWAP2 POP SWAP1 POP DUP1 PUSH1 0x0 ADD DUP1 SLOAD PUSH2 0x20E SWAP1 PUSH2 0x1152 JUMP JUMPDEST DUP1 PUSH1 0x1F ADD PUSH1 0x20 DUP1 SWAP2 DIV MUL PUSH1 0x20 ADD PUSH1 0x40 MLOAD SWAP1 DUP2 ADD PUSH1 0x40 MSTORE DUP1 SWAP3 SWAP2 SWAP1 DUP2 DUP2 MSTORE PUSH1 0x20 ADD DUP3 DUP1 SLOAD PUSH2 0x23A SWAP1 PUSH2 0x1152 JUMP JUMPDEST DUP1 ISZERO PUSH2 0x287 JUMPI DUP1 PUSH1 0x1F LT PUSH2 0x25C JUMPI PUSH2 0x100 DUP1 DUP4 SLOAD DIV MUL DUP4 MSTORE SWAP2 PUSH1 0x20 ADD SWAP2 PUSH2 0x287 JUMP JUMPDEST DUP3 ADD SWAP2 SWAP1 PUSH1 0x0 MSTORE PUSH1 0x20 PUSH1 0x0 KECCAK256 SWAP1 JUMPDEST DUP2 SLOAD DUP2 MSTORE SWAP1 PUSH1 0x1 ADD SWAP1 PUSH1 0x20 ADD DUP1 DUP4 GT PUSH2 0x26A JUMPI DUP3 SWAP1 SUB PUSH1 0x1F AND DUP3 ADD SWAP2 JUMPDEST POP POP POP POP POP SWAP1 DUP1 PUSH1 0x1 ADD DUP1 SLOAD PUSH2 0x29C SWAP1 PUSH2 0x1152 JUMP JUMPDEST DUP1 PUSH1 0x1F ADD PUSH1 0x20 DUP1 SWAP2 DIV MUL PUSH1 0x20 ADD PUSH1 0x40 MLOAD SWAP1 DUP2 ADD PUSH1 0x40 MSTORE DUP1 SWAP3 SWAP2 SWAP1 DUP2 DUP2 MSTORE PUSH1 0x20 ADD DUP3 DUP1 SLOAD PUSH2 0x2C8 SWAP1 PUSH2 0x1152 JUMP JUMPDEST DUP1 ISZERO PUSH2 0x315 JUMPI DUP1 PUSH1 0x1F LT PUSH2 0x2EA JUMPI PUSH2 0x100 DUP1 DUP4 SLOAD DIV MUL DUP4 MSTORE SWAP2 PUSH1 0x20 ADD SWAP2 PUSH2 0x315 JUMP JUMPDEST DUP3 ADD SWAP2 SWAP1 PUSH1 0x0 MSTORE PUSH1 0x20 PUSH1 0x0 KECCAK256 SWAP1 JUMPDEST DUP2 SLOAD DUP2 MSTORE SWAP1 PUSH1 0x1 ADD SWAP1 PUSH1 0x20 ADD DUP1 DUP4 GT PUSH2 0x2F8 JUMPI DUP3 SWAP1 SUB PUSH1 0x1F AND DUP3 ADD SWAP2 JUMPDEST POP POP POP POP POP SWAP1 DUP1 PUSH1 0x2 ADD SLOAD SWAP1 POP DUP4 JUMP JUMPDEST PUSH1 0x1 SLOAD DUP2 JUMP JUMPDEST PUSH1 0x0 DUP1 PUSH1 0x0 SWAP1 POP JUMPDEST PUSH1 0x1 SLOAD DUP2 LT ISZERO PUSH2 0x489 JUMPI PUSH2 0x3F4 PUSH1 0x0 DUP3 DUP2 SLOAD DUP2 LT PUSH2 0x354 JUMPI PUSH2 0x353 PUSH2 0x125C JUMP JUMPDEST JUMPDEST SWAP1 PUSH1 0x0 MSTORE PUSH1 0x20 PUSH1 0x0 KECCAK256 SWAP1 PUSH1 0x3 MUL ADD PUSH1 0x0 ADD DUP1 SLOAD PUSH2 0x370 SWAP1 PUSH2 0x1152 JUMP JUMPDEST DUP1 PUSH1 0x1F ADD PUSH1 0x20 DUP1 SWAP2 DIV MUL PUSH1 0x20 ADD PUSH1 0x40 MLOAD SWAP1 DUP2 ADD PUSH1 0x40 MSTORE DUP1 SWAP3 SWAP2 SWAP1 DUP2 DUP2 MSTORE PUSH1 0x20 ADD DUP3 DUP1 SLOAD PUSH2 0x39C SWAP1 PUSH2 0x1152 JUMP JUMPDEST DUP1 ISZERO PUSH2 0x3E9 JUMPI DUP1 PUSH1 0x1F LT PUSH2 0x3BE JUMPI PUSH2 0x100 DUP1 DUP4 SLOAD DIV MUL DUP4 MSTORE SWAP2 PUSH1 0x20 ADD SWAP2 PUSH2 0x3E9 JUMP JUMPDEST DUP3 ADD SWAP2 SWAP1 PUSH1 0x0 MSTORE PUSH1 0x20 PUSH1 0x0 KECCAK256 SWAP1 JUMPDEST DUP2 SLOAD DUP2 MSTORE SWAP1 PUSH1 0x1 ADD SWAP1 PUSH1 0x20 ADD DUP1 DUP4 GT PUSH2 0x3CC JUMPI DUP3 SWAP1 SUB PUSH1 0x1F AND DUP3 ADD SWAP2 JUMPDEST POP POP POP POP POP DUP6 PUSH2 0xAA2 JUMP JUMPDEST ISZERO PUSH2 0x476 JUMPI DUP3 PUSH1 0x0 DUP3 DUP2 SLOAD DUP2 LT PUSH2 0x40E JUMPI PUSH2 0x40D PUSH2 0x125C JUMP JUMPDEST JUMPDEST SWAP1 PUSH1 0x0 MSTORE PUSH1 0x20 PUSH1 0x0 KECCAK256 SWAP1 PUSH1 0x3 MUL ADD PUSH1 0x1 ADD SWAP1 DUP1 MLOAD SWAP1 PUSH1 0x20 ADD SWAP1 PUSH2 0x432 SWAP3 SWAP2 SWAP1 PUSH2 0xAFB JUMP JUMPDEST POP PUSH32 0xDCBFFCD2BD990A26D28EFEBEBB6F9A7A35F2ABF2F0E25720C56A457FCE221158 DUP5 DUP5 PUSH1 0x40 MLOAD PUSH2 0x464 SWAP3 SWAP2 SWAP1 PUSH2 0xF68 JUMP JUMPDEST PUSH1 0x40 MLOAD DUP1 SWAP2 SUB SWAP1 LOG1 PUSH1 0x1 SWAP2 POP POP PUSH2 0x48F JUMP JUMPDEST DUP1 DUP1 PUSH2 0x481 SWAP1 PUSH2 0x11B5 JUMP JUMPDEST SWAP2 POP POP PUSH2 0x333 JUMP JUMPDEST POP PUSH1 0x0 SWAP1 POP JUMPDEST SWAP3 SWAP2 POP POP JUMP JUMPDEST PUSH1 0x60 DUP1 PUSH1 0x0 DUP1 PUSH1 0x0 SWAP1 POP JUMPDEST PUSH1 0x1 SLOAD DUP2 LT ISZERO PUSH2 0x70D JUMPI PUSH2 0x561 PUSH1 0x0 DUP3 DUP2 SLOAD DUP2 LT PUSH2 0x4C1 JUMPI PUSH2 0x4C0 PUSH2 0x125C JUMP JUMPDEST JUMPDEST SWAP1 PUSH1 0x0 MSTORE PUSH1 0x20 PUSH1 0x0 KECCAK256 SWAP1 PUSH1 0x3 MUL ADD PUSH1 0x0 ADD DUP1 SLOAD PUSH2 0x4DD SWAP1 PUSH2 0x1152 JUMP JUMPDEST DUP1 PUSH1 0x1F ADD PUSH1 0x20 DUP1 SWAP2 DIV MUL PUSH1 0x20 ADD PUSH1 0x40 MLOAD SWAP1 DUP2 ADD PUSH1 0x40 MSTORE DUP1 SWAP3 SWAP2 SWAP1 DUP2 DUP2 MSTORE PUSH1 0x20 ADD DUP3 DUP1 SLOAD PUSH2 0x509 SWAP1 PUSH2 0x1152 JUMP JUMPDEST DUP1 ISZERO PUSH2 0x556 JUMPI DUP1 PUSH1 0x1F LT PUSH2 0x52B JUMPI PUSH2 0x100 DUP1 DUP4 SLOAD DIV MUL DUP4 MSTORE SWAP2 PUSH1 0x20 ADD SWAP2 PUSH2 0x556 JUMP JUMPDEST DUP3 ADD SWAP2 SWAP1 PUSH1 0x0 MSTORE PUSH1 0x20 PUSH1 0x0 KECCAK256 SWAP1 JUMPDEST DUP2 SLOAD DUP2 MSTORE SWAP1 PUSH1 0x1 ADD SWAP1 PUSH1 0x20 ADD DUP1 DUP4 GT PUSH2 0x539 JUMPI DUP3 SWAP1 SUB PUSH1 0x1F AND DUP3 ADD SWAP2 JUMPDEST POP POP POP POP POP DUP7 PUSH2 0xAA2 JUMP JUMPDEST ISZERO PUSH2 0x6FA JUMPI PUSH1 0x0 DUP2 DUP2 SLOAD DUP2 LT PUSH2 0x57A JUMPI PUSH2 0x579 PUSH2 0x125C JUMP JUMPDEST JUMPDEST SWAP1 PUSH1 0x0 MSTORE PUSH1 0x20 PUSH1 0x0 KECCAK256 SWAP1 PUSH1 0x3 MUL ADD PUSH1 0x0 ADD PUSH1 0x0 DUP3 DUP2 SLOAD DUP2 LT PUSH2 0x59F JUMPI PUSH2 0x59E PUSH2 0x125C JUMP JUMPDEST JUMPDEST SWAP1 PUSH1 0x0 MSTORE PUSH1 0x20 PUSH1 0x0 KECCAK256 SWAP1 PUSH1 0x3 MUL ADD PUSH1 0x1 ADD PUSH1 0x0 DUP4 DUP2 SLOAD DUP2 LT PUSH2 0x5C4 JUMPI PUSH2 0x5C3 PUSH2 0x125C JUMP JUMPDEST JUMPDEST SWAP1 PUSH1 0x0 MSTORE PUSH1 0x20 PUSH1 0x0 KECCAK256 SWAP1 PUSH1 0x3 MUL ADD PUSH1 0x2 ADD SLOAD DUP3 DUP1 SLOAD PUSH2 0x5E2 SWAP1 PUSH2 0x1152 JUMP JUMPDEST DUP1 PUSH1 0x1F ADD PUSH1 0x20 DUP1 SWAP2 DIV MUL PUSH1 0x20 ADD PUSH1 0x40 MLOAD SWAP1 DUP2 ADD PUSH1 0x40 MSTORE DUP1 SWAP3 SWAP2 SWAP1 DUP2 DUP2 MSTORE PUSH1 0x20 ADD DUP3 DUP1 SLOAD PUSH2 0x60E SWAP1 PUSH2 0x1152 JUMP JUMPDEST DUP1 ISZERO PUSH2 0x65B JUMPI DUP1 PUSH1 0x1F LT PUSH2 0x630 JUMPI PUSH2 0x100 DUP1 DUP4 SLOAD DIV MUL DUP4 MSTORE SWAP2 PUSH1 0x20 ADD SWAP2 PUSH2 0x65B JUMP JUMPDEST DUP3 ADD SWAP2 SWAP1 PUSH1 0x0 MSTORE PUSH1 0x20 PUSH1 0x0 KECCAK256 SWAP1 JUMPDEST DUP2 SLOAD DUP2 MSTORE SWAP1 PUSH1 0x1 ADD SWAP1 PUSH1 0x20 ADD DUP1 DUP4 GT PUSH2 0x63E JUMPI DUP3 SWAP1 SUB PUSH1 0x1F AND DUP3 ADD SWAP2 JUMPDEST POP POP POP POP POP SWAP3 POP DUP2 DUP1 SLOAD PUSH2 0x66E SWAP1 PUSH2 0x1152 JUMP JUMPDEST DUP1 PUSH1 0x1F ADD PUSH1 0x20 DUP1 SWAP2 DIV MUL PUSH1 0x20 ADD PUSH1 0x40 MLOAD SWAP1 DUP2 ADD PUSH1 0x40 MSTORE DUP1 SWAP3 SWAP2 SWAP1 DUP2 DUP2 MSTORE PUSH1 0x20 ADD DUP3 DUP1 SLOAD PUSH2 0x69A SWAP1 PUSH2 0x1152 JUMP JUMPDEST DUP1 ISZERO PUSH2 0x6E7 JUMPI DUP1 PUSH1 0x1F LT PUSH2 0x6BC JUMPI PUSH2 0x100 DUP1 DUP4 SLOAD DIV MUL DUP4 MSTORE SWAP2 PUSH1 0x20 ADD SWAP2 PUSH2 0x6E7 JUMP JUMPDEST DUP3 ADD SWAP2 SWAP1 PUSH1 0x0 MSTORE PUSH1 0x20 PUSH1 0x0 KECCAK256 SWAP1 JUMPDEST DUP2 SLOAD DUP2 MSTORE SWAP1 PUSH1 0x1 ADD SWAP1 PUSH1 0x20 ADD DUP1 DUP4 GT PUSH2 0x6CA JUMPI DUP3 SWAP1 SUB PUSH1 0x1F AND DUP3 ADD SWAP2 JUMPDEST POP POP POP POP POP SWAP2 POP SWAP4 POP SWAP4 POP SWAP4 POP POP PUSH2 0x749 JUMP JUMPDEST DUP1 DUP1 PUSH2 0x705 SWAP1 PUSH2 0x11B5 JUMP JUMPDEST SWAP2 POP POP PUSH2 0x4A0 JUMP JUMPDEST POP PUSH1 0x40 MLOAD PUSH32 0x8C379A000000000000000000000000000000000000000000000000000000000 DUP2 MSTORE PUSH1 0x4 ADD PUSH2 0x740 SWAP1 PUSH2 0xFE4 JUMP JUMPDEST PUSH1 0x40 MLOAD DUP1 SWAP2 SUB SWAP1 REVERT JUMPDEST SWAP2 SWAP4 SWAP1 SWAP3 POP JUMP JUMPDEST PUSH1 0x0 DUP1 DUP1 SLOAD SWAP1 POP SWAP1 POP SWAP1 JUMP JUMPDEST PUSH1 0x0 DUP1 DUP1 SLOAD SWAP1 POP SWAP1 POP SWAP1 JUMP JUMPDEST PUSH1 0x0 DUP1 PUSH1 0x40 MLOAD DUP1 PUSH1 0x60 ADD PUSH1 0x40 MSTORE DUP1 DUP7 DUP2 MSTORE PUSH1 0x20 ADD DUP6 DUP2 MSTORE PUSH1 0x20 ADD DUP5 DUP2 MSTORE POP SWAP1 POP PUSH1 0x0 DUP2 SWAP1 DUP1 PUSH1 0x1 DUP2 SLOAD ADD DUP1 DUP3 SSTORE DUP1 SWAP2 POP POP PUSH1 0x1 SWAP1 SUB SWAP1 PUSH1 0x0 MSTORE PUSH1 0x20 PUSH1 0x0 KECCAK256 SWAP1 PUSH1 0x3 MUL ADD PUSH1 0x0 SWAP1 SWAP2 SWAP1 SWAP2 SWAP1 SWAP2 POP PUSH1 0x0 DUP3 ADD MLOAD DUP2 PUSH1 0x0 ADD SWAP1 DUP1 MLOAD SWAP1 PUSH1 0x20 ADD SWAP1 PUSH2 0x7D0 SWAP3 SWAP2 SWAP1 PUSH2 0xAFB JUMP JUMPDEST POP PUSH1 0x20 DUP3 ADD MLOAD DUP2 PUSH1 0x1 ADD SWAP1 DUP1 MLOAD SWAP1 PUSH1 0x20 ADD SWAP1 PUSH2 0x7ED SWAP3 SWAP2 SWAP1 PUSH2 0xAFB JUMP JUMPDEST POP PUSH1 0x40 DUP3 ADD MLOAD DUP2 PUSH1 0x2 ADD SSTORE POP POP PUSH1 0x1 PUSH1 0x0 DUP2 SLOAD DUP1 SWAP3 SWAP2 SWAP1 PUSH2 0x80D SWAP1 PUSH2 0x11B5 JUMP JUMPDEST SWAP2 SWAP1 POP SSTORE POP PUSH32 0x468DC69DF7BEE8F1D38FBB57D4C42AC20476B6D66C4477D41C677B7E2D63893 DUP6 DUP6 DUP6 PUSH1 0x40 MLOAD PUSH2 0x845 SWAP4 SWAP3 SWAP2 SWAP1 PUSH2 0xF9F JUMP JUMPDEST PUSH1 0x40 MLOAD DUP1 SWAP2 SUB SWAP1 LOG1 PUSH1 0x1 SLOAD SWAP2 POP POP SWAP4 SWAP3 POP POP POP JUMP JUMPDEST PUSH1 0x0 DUP1 PUSH1 0x1 SLOAD GT PUSH2 0x86A JUMPI PUSH1 0x0 DUP1 REVERT JUMPDEST PUSH1 0x0 JUMPDEST PUSH1 0x1 SLOAD DUP2 LT ISZERO PUSH2 0xA97 JUMPI PUSH2 0x92E PUSH1 0x0 DUP3 DUP2 SLOAD DUP2 LT PUSH2 0x88E JUMPI PUSH2 0x88D PUSH2 0x125C JUMP JUMPDEST JUMPDEST SWAP1 PUSH1 0x0 MSTORE PUSH1 0x20 PUSH1 0x0 KECCAK256 SWAP1 PUSH1 0x3 MUL ADD PUSH1 0x0 ADD DUP1 SLOAD PUSH2 0x8AA SWAP1 PUSH2 0x1152 JUMP JUMPDEST DUP1 PUSH1 0x1F ADD PUSH1 0x20 DUP1 SWAP2 DIV MUL PUSH1 0x20 ADD PUSH1 0x40 MLOAD SWAP1 DUP2 ADD PUSH1 0x40 MSTORE DUP1 SWAP3 SWAP2 SWAP1 DUP2 DUP2 MSTORE PUSH1 0x20 ADD DUP3 DUP1 SLOAD PUSH2 0x8D6 SWAP1 PUSH2 0x1152 JUMP JUMPDEST DUP1 ISZERO PUSH2 0x923 JUMPI DUP1 PUSH1 0x1F LT PUSH2 0x8F8 JUMPI PUSH2 0x100 DUP1 DUP4 SLOAD DIV MUL DUP4 MSTORE SWAP2 PUSH1 0x20 ADD SWAP2 PUSH2 0x923 JUMP JUMPDEST DUP3 ADD SWAP2 SWAP1 PUSH1 0x0 MSTORE PUSH1 0x20 PUSH1 0x0 KECCAK256 SWAP1 JUMPDEST DUP2 SLOAD DUP2 MSTORE SWAP1 PUSH1 0x1 ADD SWAP1 PUSH1 0x20 ADD DUP1 DUP4 GT PUSH2 0x906 JUMPI DUP3 SWAP1 SUB PUSH1 0x1F AND DUP3 ADD SWAP2 JUMPDEST POP POP POP POP POP DUP5 PUSH2 0xAA2 JUMP JUMPDEST ISZERO PUSH2 0xA84 JUMPI PUSH1 0x0 PUSH1 0x1 DUP1 SLOAD PUSH2 0x943 SWAP2 SWAP1 PUSH2 0x109C JUMP JUMPDEST DUP2 SLOAD DUP2 LT PUSH2 0x954 JUMPI PUSH2 0x953 PUSH2 0x125C JUMP JUMPDEST JUMPDEST SWAP1 PUSH1 0x0 MSTORE PUSH1 0x20 PUSH1 0x0 KECCAK256 SWAP1 PUSH1 0x3 MUL ADD PUSH1 0x0 DUP3 DUP2 SLOAD DUP2 LT PUSH2 0x976 JUMPI PUSH2 0x975 PUSH2 0x125C JUMP JUMPDEST JUMPDEST SWAP1 PUSH1 0x0 MSTORE PUSH1 0x20 PUSH1 0x0 KECCAK256 SWAP1 PUSH1 0x3 MUL ADD PUSH1 0x0 DUP3 ADD DUP2 PUSH1 0x0 ADD SWAP1 DUP1 SLOAD PUSH2 0x998 SWAP1 PUSH2 0x1152 JUMP JUMPDEST PUSH2 0x9A3 SWAP3 SWAP2 SWAP1 PUSH2 0xB81 JUMP JUMPDEST POP PUSH1 0x1 DUP3 ADD DUP2 PUSH1 0x1 ADD SWAP1 DUP1 SLOAD PUSH2 0x9B8 SWAP1 PUSH2 0x1152 JUMP JUMPDEST PUSH2 0x9C3 SWAP3 SWAP2 SWAP1 PUSH2 0xB81 JUMP JUMPDEST POP PUSH1 0x2 DUP3 ADD SLOAD DUP2 PUSH1 0x2 ADD SSTORE SWAP1 POP POP PUSH1 0x0 PUSH1 0x1 DUP1 SLOAD PUSH2 0x9E1 SWAP2 SWAP1 PUSH2 0x109C JUMP JUMPDEST DUP2 SLOAD DUP2 LT PUSH2 0x9F2 JUMPI PUSH2 0x9F1 PUSH2 0x125C JUMP JUMPDEST JUMPDEST SWAP1 PUSH1 0x0 MSTORE PUSH1 0x20 PUSH1 0x0 KECCAK256 SWAP1 PUSH1 0x3 MUL ADD PUSH1 0x0 DUP1 DUP3 ADD PUSH1 0x0 PUSH2 0xA11 SWAP2 SWAP1 PUSH2 0xC0E JUMP JUMPDEST PUSH1 0x1 DUP3 ADD PUSH1 0x0 PUSH2 0xA21 SWAP2 SWAP1 PUSH2 0xC0E JUMP JUMPDEST PUSH1 0x2 DUP3 ADD PUSH1 0x0 SWAP1 SSTORE POP POP PUSH1 0x1 PUSH1 0x0 DUP2 SLOAD DUP1 SWAP3 SWAP2 SWAP1 PUSH2 0xA3E SWAP1 PUSH2 0x1128 JUMP JUMPDEST SWAP2 SWAP1 POP SSTORE POP PUSH32 0x1AAE94A171C3E578099F7103BBB8A169533E0D22F84EB9807747A1C5BEBBBC41 DUP4 PUSH1 0x40 MLOAD PUSH2 0xA72 SWAP2 SWAP1 PUSH2 0xF46 JUMP JUMPDEST PUSH1 0x40 MLOAD DUP1 SWAP2 SUB SWAP1 LOG1 PUSH1 0x1 SWAP2 POP POP PUSH2 0xA9D JUMP JUMPDEST DUP1 DUP1 PUSH2 0xA8F SWAP1 PUSH2 0x11B5 JUMP JUMPDEST SWAP2 POP POP PUSH2 0x86D JUMP JUMPDEST POP PUSH1 0x0 SWAP1 POP JUMPDEST SWAP2 SWAP1 POP JUMP JUMPDEST PUSH1 0x0 DUP2 PUSH1 0x40 MLOAD PUSH1 0x20 ADD PUSH2 0xAB5 SWAP2 SWAP1 PUSH2 0xF14 JUMP JUMPDEST PUSH1 0x40 MLOAD PUSH1 0x20 DUP2 DUP4 SUB SUB DUP2 MSTORE SWAP1 PUSH1 0x40 MSTORE DUP1 MLOAD SWAP1 PUSH1 0x20 ADD KECCAK256 DUP4 PUSH1 0x40 MLOAD PUSH1 0x20 ADD PUSH2 0xADC SWAP2 SWAP1 PUSH2 0xF14 JUMP JUMPDEST PUSH1 0x40 MLOAD PUSH1 0x20 DUP2 DUP4 SUB SUB DUP2 MSTORE SWAP1 PUSH1 0x40 MSTORE DUP1 MLOAD SWAP1 PUSH1 0x20 ADD KECCAK256 EQ SWAP1 POP SWAP3 SWAP2 POP POP JUMP JUMPDEST DUP3 DUP1 SLOAD PUSH2 0xB07 SWAP1 PUSH2 0x1152 JUMP JUMPDEST SWAP1 PUSH1 0x0 MSTORE PUSH1 0x20 PUSH1 0x0 KECCAK256 SWAP1 PUSH1 0x1F ADD PUSH1 0x20 SWAP1 DIV DUP2 ADD SWAP3 DUP3 PUSH2 0xB29 JUMPI PUSH1 0x0 DUP6 SSTORE PUSH2 0xB70 JUMP JUMPDEST DUP3 PUSH1 0x1F LT PUSH2 0xB42 JUMPI DUP1 MLOAD PUSH1 0xFF NOT AND DUP4 DUP1 ADD OR DUP6 SSTORE PUSH2 0xB70 JUMP JUMPDEST DUP3 DUP1 ADD PUSH1 0x1 ADD DUP6 SSTORE DUP3 ISZERO PUSH2 0xB70 JUMPI SWAP2 DUP3 ADD JUMPDEST DUP3 DUP2 GT ISZERO PUSH2 0xB6F JUMPI DUP3 MLOAD DUP3 SSTORE SWAP2 PUSH1 0x20 ADD SWAP2 SWAP1 PUSH1 0x1 ADD SWAP1 PUSH2 0xB54 JUMP JUMPDEST JUMPDEST POP SWAP1 POP PUSH2 0xB7D SWAP2 SWAP1 PUSH2 0xC4E JUMP JUMPDEST POP SWAP1 JUMP JUMPDEST DUP3 DUP1 SLOAD PUSH2 0xB8D SWAP1 PUSH2 0x1152 JUMP JUMPDEST SWAP1 PUSH1 0x0 MSTORE PUSH1 0x20 PUSH1 0x0 KECCAK256 SWAP1 PUSH1 0x1F ADD PUSH1 0x20 SWAP1 DIV DUP2 ADD SWAP3 DUP3 PUSH2 0xBAF JUMPI PUSH1 0x0 DUP6 SSTORE PUSH2 0xBFD JUMP JUMPDEST DUP3 PUSH1 0x1F LT PUSH2 0xBC0 JUMPI DUP1 SLOAD DUP6 SSTORE PUSH2 0xBFD JUMP JUMPDEST DUP3 DUP1 ADD PUSH1 0x1 ADD DUP6 SSTORE DUP3 ISZERO PUSH2 0xBFD JUMPI PUSH1 0x0 MSTORE PUSH1 0x20 PUSH1 0x0 KECCAK256 SWAP2 PUSH1 0x1F ADD PUSH1 0x20 SWAP1 DIV DUP3 ADD JUMPDEST DUP3 DUP2 GT ISZERO PUSH2 0xBFC JUMPI DUP3 SLOAD DUP3 SSTORE SWAP2 PUSH1 0x1 ADD SWAP2 SWAP1 PUSH1 0x1 ADD SWAP1 PUSH2 0xBE1 JUMP JUMPDEST JUMPDEST POP SWAP1 POP PUSH2 0xC0A SWAP2 SWAP1 PUSH2 0xC4E JUMP JUMPDEST POP SWAP1 JUMP JUMPDEST POP DUP1 SLOAD PUSH2 0xC1A SWAP1 PUSH2 0x1152 JUMP JUMPDEST PUSH1 0x0 DUP3 SSTORE DUP1 PUSH1 0x1F LT PUSH2 0xC2C JUMPI POP PUSH2 0xC4B JUMP JUMPDEST PUSH1 0x1F ADD PUSH1 0x20 SWAP1 DIV SWAP1 PUSH1 0x0 MSTORE PUSH1 0x20 PUSH1 0x0 KECCAK256 SWAP1 DUP2 ADD SWAP1 PUSH2 0xC4A SWAP2 SWAP1 PUSH2 0xC4E JUMP JUMPDEST JUMPDEST POP JUMP JUMPDEST JUMPDEST DUP1 DUP3 GT ISZERO PUSH2 0xC67 JUMPI PUSH1 0x0 DUP2 PUSH1 0x0 SWAP1 SSTORE POP PUSH1 0x1 ADD PUSH2 0xC4F JUMP JUMPDEST POP SWAP1 JUMP JUMPDEST PUSH1 0x0 PUSH2 0xC7E PUSH2 0xC79 DUP5 PUSH2 0x1044 JUMP JUMPDEST PUSH2 0x101F JUMP JUMPDEST SWAP1 POP DUP3 DUP2 MSTORE PUSH1 0x20 DUP2 ADD DUP5 DUP5 DUP5 ADD GT ISZERO PUSH2 0xC9A JUMPI PUSH2 0xC99 PUSH2 0x12BF JUMP JUMPDEST JUMPDEST PUSH2 0xCA5 DUP5 DUP3 DUP6 PUSH2 0x10E6 JUMP JUMPDEST POP SWAP4 SWAP3 POP POP POP JUMP JUMPDEST PUSH1 0x0 DUP3 PUSH1 0x1F DUP4 ADD SLT PUSH2 0xCC2 JUMPI PUSH2 0xCC1 PUSH2 0x12BA JUMP JUMPDEST JUMPDEST DUP2 CALLDATALOAD PUSH2 0xCD2 DUP5 DUP3 PUSH1 0x20 DUP7 ADD PUSH2 0xC6B JUMP JUMPDEST SWAP2 POP POP SWAP3 SWAP2 POP POP JUMP JUMPDEST PUSH1 0x0 DUP2 CALLDATALOAD SWAP1 POP PUSH2 0xCEA DUP2 PUSH2 0x1308 JUMP JUMPDEST SWAP3 SWAP2 POP POP JUMP JUMPDEST PUSH1 0x0 PUSH1 0x20 DUP3 DUP5 SUB SLT ISZERO PUSH2 0xD06 JUMPI PUSH2 0xD05 PUSH2 0x12C9 JUMP JUMPDEST JUMPDEST PUSH1 0x0 DUP3 ADD CALLDATALOAD PUSH8 0xFFFFFFFFFFFFFFFF DUP2 GT ISZERO PUSH2 0xD24 JUMPI PUSH2 0xD23 PUSH2 0x12C4 JUMP JUMPDEST JUMPDEST PUSH2 0xD30 DUP5 DUP3 DUP6 ADD PUSH2 0xCAD JUMP JUMPDEST SWAP2 POP POP SWAP3 SWAP2 POP POP JUMP JUMPDEST PUSH1 0x0 DUP1 PUSH1 0x40 DUP4 DUP6 SUB SLT ISZERO PUSH2 0xD50 JUMPI PUSH2 0xD4F PUSH2 0x12C9 JUMP JUMPDEST JUMPDEST PUSH1 0x0 DUP4 ADD CALLDATALOAD PUSH8 0xFFFFFFFFFFFFFFFF DUP2 GT ISZERO PUSH2 0xD6E JUMPI PUSH2 0xD6D PUSH2 0x12C4 JUMP JUMPDEST JUMPDEST PUSH2 0xD7A DUP6 DUP3 DUP7 ADD PUSH2 0xCAD JUMP JUMPDEST SWAP3 POP POP PUSH1 0x20 DUP4 ADD CALLDATALOAD PUSH8 0xFFFFFFFFFFFFFFFF DUP2 GT ISZERO PUSH2 0xD9B JUMPI PUSH2 0xD9A PUSH2 0x12C4 JUMP JUMPDEST JUMPDEST PUSH2 0xDA7 DUP6 DUP3 DUP7 ADD PUSH2 0xCAD JUMP JUMPDEST SWAP2 POP POP SWAP3 POP SWAP3 SWAP1 POP JUMP JUMPDEST PUSH1 0x0 DUP1 PUSH1 0x0 PUSH1 0x60 DUP5 DUP7 SUB SLT ISZERO PUSH2 0xDCA JUMPI PUSH2 0xDC9 PUSH2 0x12C9 JUMP JUMPDEST JUMPDEST PUSH1 0x0 DUP5 ADD CALLDATALOAD PUSH8 0xFFFFFFFFFFFFFFFF DUP2 GT ISZERO PUSH2 0xDE8 JUMPI PUSH2 0xDE7 PUSH2 0x12C4 JUMP JUMPDEST JUMPDEST PUSH2 0xDF4 DUP7 DUP3 DUP8 ADD PUSH2 0xCAD JUMP JUMPDEST SWAP4 POP POP PUSH1 0x20 DUP5 ADD CALLDATALOAD PUSH8 0xFFFFFFFFFFFFFFFF DUP2 GT ISZERO PUSH2 0xE15 JUMPI PUSH2 0xE14 PUSH2 0x12C4 JUMP JUMPDEST JUMPDEST PUSH2 0xE21 DUP7 DUP3 DUP8 ADD PUSH2 0xCAD JUMP JUMPDEST SWAP3 POP POP PUSH1 0x40 PUSH2 0xE32 DUP7 DUP3 DUP8 ADD PUSH2 0xCDB JUMP JUMPDEST SWAP2 POP POP SWAP3 POP SWAP3 POP SWAP3 JUMP JUMPDEST PUSH1 0x0 PUSH1 0x20 DUP3 DUP5 SUB SLT ISZERO PUSH2 0xE52 JUMPI PUSH2 0xE51 PUSH2 0x12C9 JUMP JUMPDEST JUMPDEST PUSH1 0x0 PUSH2 0xE60 DUP5 DUP3 DUP6 ADD PUSH2 0xCDB JUMP JUMPDEST SWAP2 POP POP SWAP3 SWAP2 POP POP JUMP JUMPDEST PUSH2 0xE72 DUP2 PUSH2 0x10D0 JUMP JUMPDEST DUP3 MSTORE POP POP JUMP JUMPDEST PUSH1 0x0 PUSH2 0xE83 DUP3 PUSH2 0x1075 JUMP JUMPDEST PUSH2 0xE8D DUP2 DUP6 PUSH2 0x1080 JUMP JUMPDEST SWAP4 POP PUSH2 0xE9D DUP2 DUP6 PUSH1 0x20 DUP7 ADD PUSH2 0x10F5 JUMP JUMPDEST PUSH2 0xEA6 DUP2 PUSH2 0x12CE JUMP JUMPDEST DUP5 ADD SWAP2 POP POP SWAP3 SWAP2 POP POP JUMP JUMPDEST PUSH1 0x0 PUSH2 0xEBC DUP3 PUSH2 0x1075 JUMP JUMPDEST PUSH2 0xEC6 DUP2 DUP6 PUSH2 0x1091 JUMP JUMPDEST SWAP4 POP PUSH2 0xED6 DUP2 DUP6 PUSH1 0x20 DUP7 ADD PUSH2 0x10F5 JUMP JUMPDEST DUP1 DUP5 ADD SWAP2 POP POP SWAP3 SWAP2 POP POP JUMP JUMPDEST PUSH1 0x0 PUSH2 0xEEF PUSH1 0x11 DUP4 PUSH2 0x1080 JUMP JUMPDEST SWAP2 POP PUSH2 0xEFA DUP3 PUSH2 0x12DF JUMP JUMPDEST PUSH1 0x20 DUP3 ADD SWAP1 POP SWAP2 SWAP1 POP JUMP JUMPDEST PUSH2 0xF0E DUP2 PUSH2 0x10DC JUMP JUMPDEST DUP3 MSTORE POP POP JUMP JUMPDEST PUSH1 0x0 PUSH2 0xF20 DUP3 DUP5 PUSH2 0xEB1 JUMP JUMPDEST SWAP2 POP DUP2 SWAP1 POP SWAP3 SWAP2 POP POP JUMP JUMPDEST PUSH1 0x0 PUSH1 0x20 DUP3 ADD SWAP1 POP PUSH2 0xF40 PUSH1 0x0 DUP4 ADD DUP5 PUSH2 0xE69 JUMP JUMPDEST SWAP3 SWAP2 POP POP JUMP JUMPDEST PUSH1 0x0 PUSH1 0x20 DUP3 ADD SWAP1 POP DUP2 DUP2 SUB PUSH1 0x0 DUP4 ADD MSTORE PUSH2 0xF60 DUP2 DUP5 PUSH2 0xE78 JUMP JUMPDEST SWAP1 POP SWAP3 SWAP2 POP POP JUMP JUMPDEST PUSH1 0x0 PUSH1 0x40 DUP3 ADD SWAP1 POP DUP2 DUP2 SUB PUSH1 0x0 DUP4 ADD MSTORE PUSH2 0xF82 DUP2 DUP6 PUSH2 0xE78 JUMP JUMPDEST SWAP1 POP DUP2 DUP2 SUB PUSH1 0x20 DUP4 ADD MSTORE PUSH2 0xF96 DUP2 DUP5 PUSH2 0xE78 JUMP JUMPDEST SWAP1 POP SWAP4 SWAP3 POP POP POP JUMP JUMPDEST PUSH1 0x0 PUSH1 0x60 DUP3 ADD SWAP1 POP DUP2 DUP2 SUB PUSH1 0x0 DUP4 ADD MSTORE PUSH2 0xFB9 DUP2 DUP7 PUSH2 0xE78 JUMP JUMPDEST SWAP1 POP DUP2 DUP2 SUB PUSH1 0x20 DUP4 ADD MSTORE PUSH2 0xFCD DUP2 DUP6 PUSH2 0xE78 JUMP JUMPDEST SWAP1 POP PUSH2 0xFDC PUSH1 0x40 DUP4 ADD DUP5 PUSH2 0xF05 JUMP JUMPDEST SWAP5 SWAP4 POP POP POP POP JUMP JUMPDEST PUSH1 0x0 PUSH1 0x20 DUP3 ADD SWAP1 POP DUP2 DUP2 SUB PUSH1 0x0 DUP4 ADD MSTORE PUSH2 0xFFD DUP2 PUSH2 0xEE2 JUMP JUMPDEST SWAP1 POP SWAP2 SWAP1 POP JUMP JUMPDEST PUSH1 0x0 PUSH1 0x20 DUP3 ADD SWAP1 POP PUSH2 0x1019 PUSH1 0x0 DUP4 ADD DUP5 PUSH2 0xF05 JUMP JUMPDEST SWAP3 SWAP2 POP POP JUMP JUMPDEST PUSH1 0x0 PUSH2 0x1029 PUSH2 0x103A JUMP JUMPDEST SWAP1 POP PUSH2 0x1035 DUP3 DUP3 PUSH2 0x1184 JUMP JUMPDEST SWAP2 SWAP1 POP JUMP JUMPDEST PUSH1 0x0 PUSH1 0x40 MLOAD SWAP1 POP SWAP1 JUMP JUMPDEST PUSH1 0x0 PUSH8 0xFFFFFFFFFFFFFFFF DUP3 GT ISZERO PUSH2 0x105F JUMPI PUSH2 0x105E PUSH2 0x128B JUMP JUMPDEST JUMPDEST PUSH2 0x1068 DUP3 PUSH2 0x12CE JUMP JUMPDEST SWAP1 POP PUSH1 0x20 DUP2 ADD SWAP1 POP SWAP2 SWAP1 POP JUMP JUMPDEST PUSH1 0x0 DUP2 MLOAD SWAP1 POP SWAP2 SWAP1 POP JUMP JUMPDEST PUSH1 0x0 DUP3 DUP3 MSTORE PUSH1 0x20 DUP3 ADD SWAP1 POP SWAP3 SWAP2 POP POP JUMP JUMPDEST PUSH1 0x0 DUP2 SWAP1 POP SWAP3 SWAP2 POP POP JUMP JUMPDEST PUSH1 0x0 PUSH2 0x10A7 DUP3 PUSH2 0x10DC JUMP JUMPDEST SWAP2 POP PUSH2 0x10B2 DUP4 PUSH2 0x10DC JUMP JUMPDEST SWAP3 POP DUP3 DUP3 LT ISZERO PUSH2 0x10C5 JUMPI PUSH2 0x10C4 PUSH2 0x11FE JUMP JUMPDEST JUMPDEST DUP3 DUP3 SUB SWAP1 POP SWAP3 SWAP2 POP POP JUMP JUMPDEST PUSH1 0x0 DUP2 ISZERO ISZERO SWAP1 POP SWAP2 SWAP1 POP JUMP JUMPDEST PUSH1 0x0 DUP2 SWAP1 POP SWAP2 SWAP1 POP JUMP JUMPDEST DUP3 DUP2 DUP4 CALLDATACOPY PUSH1 0x0 DUP4 DUP4 ADD MSTORE POP POP POP JUMP JUMPDEST PUSH1 0x0 JUMPDEST DUP4 DUP2 LT ISZERO PUSH2 0x1113 JUMPI DUP1 DUP3 ADD MLOAD DUP2 DUP5 ADD MSTORE PUSH1 0x20 DUP2 ADD SWAP1 POP PUSH2 0x10F8 JUMP JUMPDEST DUP4 DUP2 GT ISZERO PUSH2 0x1122 JUMPI PUSH1 0x0 DUP5 DUP5 ADD MSTORE JUMPDEST POP POP POP POP JUMP JUMPDEST PUSH1 0x0 PUSH2 0x1133 DUP3 PUSH2 0x10DC JUMP JUMPDEST SWAP2 POP PUSH1 0x0 DUP3 EQ ISZERO PUSH2 0x1147 JUMPI PUSH2 0x1146 PUSH2 0x11FE JUMP JUMPDEST JUMPDEST PUSH1 0x1 DUP3 SUB SWAP1 POP SWAP2 SWAP1 POP JUMP JUMPDEST PUSH1 0x0 PUSH1 0x2 DUP3 DIV SWAP1 POP PUSH1 0x1 DUP3 AND DUP1 PUSH2 0x116A JUMPI PUSH1 0x7F DUP3 AND SWAP2 POP JUMPDEST PUSH1 0x20 DUP3 LT DUP2 EQ ISZERO PUSH2 0x117E JUMPI PUSH2 0x117D PUSH2 0x122D JUMP JUMPDEST JUMPDEST POP SWAP2 SWAP1 POP JUMP JUMPDEST PUSH2 0x118D DUP3 PUSH2 0x12CE JUMP JUMPDEST DUP2 ADD DUP2 DUP2 LT PUSH8 0xFFFFFFFFFFFFFFFF DUP3 GT OR ISZERO PUSH2 0x11AC JUMPI PUSH2 0x11AB PUSH2 0x128B JUMP JUMPDEST JUMPDEST DUP1 PUSH1 0x40 MSTORE POP POP POP JUMP JUMPDEST PUSH1 0x0 PUSH2 0x11C0 DUP3 PUSH2 0x10DC JUMP JUMPDEST SWAP2 POP PUSH32 0xFFFFFFFFFFFFFFFFFFFFFFFFFFFFFFFFFFFFFFFFFFFFFFFFFFFFFFFFFFFFFFFF DUP3 EQ ISZERO PUSH2 0x11F3 JUMPI PUSH2 0x11F2 PUSH2 0x11FE JUMP JUMPDEST JUMPDEST PUSH1 0x1 DUP3 ADD SWAP1 POP SWAP2 SWAP1 POP JUMP JUMPDEST PUSH32 0x4E487B7100000000000000000000000000000000000000000000000000000000 PUSH1 0x0 MSTORE PUSH1 0x11 PUSH1 0x4 MSTORE PUSH1 0x24 PUSH1 0x0 REVERT JUMPDEST PUSH32 0x4E487B7100000000000000000000000000000000000000000000000000000000 PUSH1 0x0 MSTORE PUSH1 0x22 PUSH1 0x4 MSTORE PUSH1 0x24 PUSH1 0x0 REVERT JUMPDEST PUSH32 0x4E487B7100000000000000000000000000000000000000000000000000000000 PUSH1 0x0 MSTORE PUSH1 0x32 PUSH1 0x4 MSTORE PUSH1 0x24 PUSH1 0x0 REVERT JUMPDEST PUSH32 0x4E487B7100000000000000000000000000000000000000000000000000000000 PUSH1 0x0 MSTORE PUSH1 0x41 PUSH1 0x4 MSTORE PUSH1 0x24 PUSH1 0x0 REVERT JUMPDEST PUSH1 0x0 DUP1 REVERT JUMPDEST PUSH1 0x0 DUP1 REVERT JUMPDEST PUSH1 0x0 DUP1 REVERT JUMPDEST PUSH1 0x0 DUP1 REVERT JUMPDEST PUSH1 0x0 PUSH1 0x1F NOT PUSH1 0x1F DUP4 ADD AND SWAP1 POP SWAP2 SWAP1 POP JUMP JUMPDEST PUSH32 0x636F756E747279206E6F7420666F756E64000000000000000000000000000000 PUSH1 0x0 DUP3 ADD MSTORE POP JUMP JUMPDEST PUSH2 0x1311 DUP2 PUSH2 0x10DC JUMP JUMPDEST DUP2 EQ PUSH2 0x131C JUMPI PUSH1 0x0 DUP1 REVERT JUMPDEST POP JUMP INVALID LOG2 PUSH5 0x6970667358 0x22 SLT KECCAK256 0xED 0x1E 0x22 MLOAD 0xB1 0xE5 0xF 0xDF GAS 0x4A DUP11 CODECOPY SWAP14 0x25 BASEFEE 0xAA ORIGIN KECCAK256 CALLDATACOPY 0xB2 0xEC 0x29 0x23 PUSH30 0x8EE42268EC5F1E6064736F6C634300080700330000000000000000000000 "
				},
				"gasEstimates": {
					"creation": {
						"codeDepositCost": "989800",
						"executionCost": "6041",
						"totalCost": "995841"
					},
					"external": {
						"countries(uint256)": "infinite",
						"deleteCountry(string)": "infinite",
						"getCountries()": "2467",
						"getCountry(string)": "infinite",
						"getTotalCountries()": "2445",
						"insert(string,string,uint256)": "infinite",
						"totalCountries()": "2452",
						"updateLeader(string,string)": "infinite"
					},
					"internal": {
						"compareStrings(string memory,string memory)": "infinite"
					}
				},
				"methodIdentifiers": {
					"countries(uint256)": "08e9daa5",
					"deleteCountry(string)": "cae65058",
					"getCountries()": "beca8009",
					"getCountry(string)": "848924cb",
					"getTotalCountries()": "acf75458",
					"insert(string,string,uint256)": "c1356d26",
					"totalCountries()": "62738129",
					"updateLeader(string,string)": "81ba02be"
				}
			},
			"storageLayout": {
				"storage": [
					{
						"astId": 13,
						"contract": "contracts/Test.sol:CrudApp",
						"label": "countries",
						"offset": 0,
						"slot": "0",
						"type": "t_array(t_struct(country)9_storage)dyn_storage"
					},
					{
						"astId": 15,
						"contract": "contracts/Test.sol:CrudApp",
						"label": "totalCountries",
						"offset": 0,
						"slot": "1",
						"type": "t_uint256"
					}
				],
				"types": {
					"t_array(t_struct(country)9_storage)dyn_storage": {
						"base": "t_struct(country)9_storage",
						"encoding": "dynamic_array",
						"label": "struct CrudApp.country[]",
						"numberOfBytes": "32"
					},
					"t_string_storage": {
						"encoding": "bytes",
						"label": "string",
						"numberOfBytes": "32"
					},
					"t_struct(country)9_storage": {
						"encoding": "inplace",
						"label": "struct CrudApp.country",
						"members": [
							{
								"astId": 4,
								"contract": "contracts/Test.sol:CrudApp",
								"label": "name",
								"offset": 0,
								"slot": "0",
								"type": "t_string_storage"
							},
							{
								"astId": 6,
								"contract": "contracts/Test.sol:CrudApp",
								"label": "leader",
								"offset": 0,
								"slot": "1",
								"type": "t_string_storage"
							},
							{
								"astId": 8,
								"contract": "contracts/Test.sol:CrudApp",
								"label": "population",
								"offset": 0,
								"slot": "2",
								"type": "t_uint256"
							}
						],
						"numberOfBytes": "96"
					},
					"t_uint256": {
						"encoding": "inplace",
						"label": "uint256",
						"numberOfBytes": "32"
					}
				}
			},
			"userdoc": {
				"kind": "user",
				"methods": {},
				"version": 1
			}
		}
	}
}