{
	"contracts/Utils.sol": {
		"Utils": {
			"abi": [
				{
					"inputs": [
						{
							"internalType": "enum Utils.UserRoles",
							"name": "_role",
							"type": "uint8"
						}
					],
					"name": "GetUsersByType",
					"outputs": [
						{
							"components": [
								{
									"internalType": "string",
									"name": "UserID",
									"type": "string"
								},
								{
									"internalType": "string",
									"name": "UserName",
									"type": "string"
								},
								{
									"internalType": "enum Utils.UserRoles",
									"name": "UserRole",
									"type": "uint8"
								},
								{
									"internalType": "enum Utils.Statuses",
									"name": "UserStatus",
									"type": "uint8"
								},
								{
									"internalType": "uint256",
									"name": "Latitude",
									"type": "uint256"
								},
								{
									"internalType": "uint256",
									"name": "Longitude",
									"type": "uint256"
								},
								{
									"internalType": "address",
									"name": "UserAddress",
									"type": "address"
								}
							],
							"internalType": "struct Utils.User[]",
							"name": "filteredUsers",
							"type": "tuple[]"
						}
					],
					"stateMutability": "view",
					"type": "function"
				},
				{
					"inputs": [
						{
							"internalType": "uint256",
							"name": "",
							"type": "uint256"
						}
					],
					"name": "PatchTrannsactions",
					"outputs": [
						{
							"internalType": "string",
							"name": "DrugRegNo",
							"type": "string"
						},
						{
							"internalType": "string",
							"name": "PatchNo",
							"type": "string"
						},
						{
							"internalType": "uint256",
							"name": "LineNo",
							"type": "uint256"
						},
						{
							"internalType": "address",
							"name": "FromID",
							"type": "address"
						},
						{
							"internalType": "address",
							"name": "ToID",
							"type": "address"
						},
						{
							"internalType": "uint256",
							"name": "Amount",
							"type": "uint256"
						}
					],
					"stateMutability": "view",
					"type": "function"
				},
				{
					"inputs": [
						{
							"internalType": "string",
							"name": "_regno",
							"type": "string"
						}
					],
					"name": "ReadDrug",
					"outputs": [
						{
							"components": [
								{
									"internalType": "string",
									"name": "DrugName",
									"type": "string"
								},
								{
									"internalType": "address",
									"name": "Manufacturer",
									"type": "address"
								},
								{
									"internalType": "enum Utils.Statuses",
									"name": "DrugStatus",
									"type": "uint8"
								}
							],
							"internalType": "struct Utils.Drug",
							"name": "",
							"type": "tuple"
						}
					],
					"stateMutability": "view",
					"type": "function"
				},
				{
					"inputs": [
						{
							"internalType": "string",
							"name": "_drugno",
							"type": "string"
						}
					],
					"name": "ReadTransactionsByDrug",
					"outputs": [
						{
							"components": [
								{
									"internalType": "string",
									"name": "DrugRegNo",
									"type": "string"
								},
								{
									"internalType": "string",
									"name": "PatchNo",
									"type": "string"
								},
								{
									"internalType": "uint256",
									"name": "LineNo",
									"type": "uint256"
								},
								{
									"internalType": "address",
									"name": "FromID",
									"type": "address"
								},
								{
									"internalType": "address",
									"name": "ToID",
									"type": "address"
								},
								{
									"internalType": "uint256",
									"name": "Amount",
									"type": "uint256"
								}
							],
							"internalType": "struct Utils.PatchTransaction[]",
							"name": "UserTransaction",
							"type": "tuple[]"
						}
					],
					"stateMutability": "view",
					"type": "function"
				},
				{
					"inputs": [
						{
							"internalType": "address",
							"name": "_useraddress",
							"type": "address"
						}
					],
					"name": "ReadTransactionsByUser",
					"outputs": [
						{
							"components": [
								{
									"internalType": "string",
									"name": "DrugRegNo",
									"type": "string"
								},
								{
									"internalType": "string",
									"name": "PatchNo",
									"type": "string"
								},
								{
									"internalType": "uint256",
									"name": "LineNo",
									"type": "uint256"
								},
								{
									"internalType": "address",
									"name": "FromID",
									"type": "address"
								},
								{
									"internalType": "address",
									"name": "ToID",
									"type": "address"
								},
								{
									"internalType": "uint256",
									"name": "Amount",
									"type": "uint256"
								}
							],
							"internalType": "struct Utils.PatchTransaction[]",
							"name": "UserTransaction",
							"type": "tuple[]"
						}
					],
					"stateMutability": "view",
					"type": "function"
				},
				{
					"inputs": [
						{
							"internalType": "address",
							"name": "_address",
							"type": "address"
						}
					],
					"name": "ReadUser",
					"outputs": [
						{
							"components": [
								{
									"internalType": "string",
									"name": "UserID",
									"type": "string"
								},
								{
									"internalType": "string",
									"name": "UserName",
									"type": "string"
								},
								{
									"internalType": "enum Utils.UserRoles",
									"name": "UserRole",
									"type": "uint8"
								},
								{
									"internalType": "enum Utils.Statuses",
									"name": "UserStatus",
									"type": "uint8"
								},
								{
									"internalType": "uint256",
									"name": "Latitude",
									"type": "uint256"
								},
								{
									"internalType": "uint256",
									"name": "Longitude",
									"type": "uint256"
								},
								{
									"internalType": "address",
									"name": "UserAddress",
									"type": "address"
								}
							],
							"internalType": "struct Utils.User",
							"name": "",
							"type": "tuple"
						}
					],
					"stateMutability": "view",
					"type": "function"
				},
				{
					"inputs": [
						{
							"internalType": "string",
							"name": "s1",
							"type": "string"
						},
						{
							"internalType": "string",
							"name": "s2",
							"type": "string"
						}
					],
					"name": "compareStringsbyBytes",
					"outputs": [
						{
							"internalType": "bool",
							"name": "",
							"type": "bool"
						}
					],
					"stateMutability": "pure",
					"type": "function"
				}
			],
			"devdoc": {
				"kind": "dev",
				"methods": {},
				"version": 1
			},
			"evm": {
				"assembly": "    /* \"contracts/Utils.sol\":95:4122  contract Utils {... */\n  mstore(0x40, 0x80)\n  callvalue\n  dup1\n  iszero\n  tag_1\n  jumpi\n  0x00\n  dup1\n  revert\ntag_1:\n  pop\n  dataSize(sub_0)\n  dup1\n  dataOffset(sub_0)\n  0x00\n  codecopy\n  0x00\n  return\nstop\n\nsub_0: assembly {\n        /* \"contracts/Utils.sol\":95:4122  contract Utils {... */\n      mstore(0x40, 0x80)\n      callvalue\n      dup1\n      iszero\n      tag_1\n      jumpi\n      0x00\n      dup1\n      revert\n    tag_1:\n      pop\n      jumpi(tag_2, lt(calldatasize, 0x04))\n      shr(0xe0, calldataload(0x00))\n      dup1\n      0x99b5bbdd\n      gt\n      tag_10\n      jumpi\n      dup1\n      0x99b5bbdd\n      eq\n      tag_6\n      jumpi\n      dup1\n      0xcd1720d1\n      eq\n      tag_7\n      jumpi\n      dup1\n      0xcdf7e73d\n      eq\n      tag_8\n      jumpi\n      dup1\n      0xe9a734ff\n      eq\n      tag_9\n      jumpi\n      jump(tag_2)\n    tag_10:\n      dup1\n      0x0f9de977\n      eq\n      tag_3\n      jumpi\n      dup1\n      0x1567697c\n      eq\n      tag_4\n      jumpi\n      dup1\n      0x4b2d14aa\n      eq\n      tag_5\n      jumpi\n    tag_2:\n      0x00\n      dup1\n      revert\n        /* \"contracts/Utils.sol\":1024:1680  function GetUsersByType(UserRoles _role)... */\n    tag_3:\n      tag_11\n      0x04\n      dup1\n      calldatasize\n      sub\n      dup2\n      add\n      swap1\n      tag_12\n      swap2\n      swap1\n      tag_13\n      jump\t// in\n    tag_12:\n      tag_14\n      jump\t// in\n    tag_11:\n      mload(0x40)\n      tag_15\n      swap2\n      swap1\n      tag_16\n      jump\t// in\n    tag_15:\n      mload(0x40)\n      dup1\n      swap2\n      sub\n      swap1\n      return\n        /* \"contracts/Utils.sol\":2402:2446  PatchTransaction[] public PatchTrannsactions */\n    tag_4:\n      tag_17\n      0x04\n      dup1\n      calldatasize\n      sub\n      dup2\n      add\n      swap1\n      tag_18\n      swap2\n      swap1\n      tag_19\n      jump\t// in\n    tag_18:\n      tag_20\n      jump\t// in\n    tag_17:\n      mload(0x40)\n      tag_21\n      swap7\n      swap6\n      swap5\n      swap4\n      swap3\n      swap2\n      swap1\n      tag_22\n      jump\t// in\n    tag_21:\n      mload(0x40)\n      dup1\n      swap2\n      sub\n      swap1\n      return\n        /* \"contracts/Utils.sol\":3278:4120  function ReadTransactionsByDrug(string memory _drugno)... */\n    tag_5:\n      tag_23\n      0x04\n      dup1\n      calldatasize\n      sub\n      dup2\n      add\n      swap1\n      tag_24\n      swap2\n      swap1\n      tag_25\n      jump\t// in\n    tag_24:\n      tag_26\n      jump\t// in\n    tag_23:\n      mload(0x40)\n      tag_27\n      swap2\n      swap1\n      tag_28\n      jump\t// in\n    tag_27:\n      mload(0x40)\n      dup1\n      swap2\n      sub\n      swap1\n      return\n        /* \"contracts/Utils.sol\":2453:3272  function ReadTransactionsByUser(address _useraddress)... */\n    tag_6:\n      tag_29\n      0x04\n      dup1\n      calldatasize\n      sub\n      dup2\n      add\n      swap1\n      tag_30\n      swap2\n      swap1\n      tag_31\n      jump\t// in\n    tag_30:\n      tag_32\n      jump\t// in\n    tag_29:\n      mload(0x40)\n      tag_33\n      swap2\n      swap1\n      tag_28\n      jump\t// in\n    tag_33:\n      mload(0x40)\n      dup1\n      swap2\n      sub\n      swap1\n      return\n        /* \"contracts/Utils.sol\":896:1018  function ReadUser(address _address) public view returns (User memory) {... */\n    tag_7:\n      tag_34\n      0x04\n      dup1\n      calldatasize\n      sub\n      dup2\n      add\n      swap1\n      tag_35\n      swap2\n      swap1\n      tag_31\n      jump\t// in\n    tag_35:\n      tag_36\n      jump\t// in\n    tag_34:\n      mload(0x40)\n      tag_37\n      swap2\n      swap1\n      tag_38\n      jump\t// in\n    tag_37:\n      mload(0x40)\n      dup1\n      swap2\n      sub\n      swap1\n      return\n        /* \"contracts/Utils.sol\":2074:2196  function ReadDrug(string memory _regno) public view returns (Drug memory) {... */\n    tag_8:\n      tag_39\n      0x04\n      dup1\n      calldatasize\n      sub\n      dup2\n      add\n      swap1\n      tag_40\n      swap2\n      swap1\n      tag_25\n      jump\t// in\n    tag_40:\n      tag_41\n      jump\t// in\n    tag_39:\n      mload(0x40)\n      tag_42\n      swap2\n      swap1\n      tag_43\n      jump\t// in\n    tag_42:\n      mload(0x40)\n      dup1\n      swap2\n      sub\n      swap1\n      return\n        /* \"contracts/Utils.sol\":203:427  function compareStringsbyBytes(string memory s1, string memory s2)... */\n    tag_9:\n      tag_44\n      0x04\n      dup1\n      calldatasize\n      sub\n      dup2\n      add\n      swap1\n      tag_45\n      swap2\n      swap1\n      tag_46\n      jump\t// in\n    tag_45:\n      tag_47\n      jump\t// in\n    tag_44:\n      mload(0x40)\n      tag_48\n      swap2\n      swap1\n      tag_49\n      jump\t// in\n    tag_48:\n      mload(0x40)\n      dup1\n      swap2\n      sub\n      swap1\n      return\n        /* \"contracts/Utils.sol\":1024:1680  function GetUsersByType(UserRoles _role)... */\n    tag_14:\n        /* \"contracts/Utils.sol\":1110:1137  User[] memory filteredUsers */\n      0x60\n        /* \"contracts/Utils.sol\":1153:1171  uint256 usersCount */\n      0x00\n        /* \"contracts/Utils.sol\":1174:1188  UsersAddresses */\n      0x01\n        /* \"contracts/Utils.sol\":1174:1195  UsersAddresses.length */\n      dup1\n      sload\n      swap1\n      pop\n        /* \"contracts/Utils.sol\":1153:1195  uint256 usersCount = UsersAddresses.length */\n      swap1\n      pop\n        /* \"contracts/Utils.sol\":1205:1228  User[] memory usersTemp */\n      0x00\n        /* \"contracts/Utils.sol\":1242:1252  usersCount */\n      dup2\n        /* \"contracts/Utils.sol\":1231:1253  new User[](usersCount) */\n      0xffffffffffffffff\n      dup2\n      gt\n      iszero\n      tag_51\n      jumpi\n      tag_52\n      tag_53\n      jump\t// in\n    tag_52:\n    tag_51:\n      mload(0x40)\n      swap1\n      dup1\n      dup3\n      mstore\n      dup1\n      0x20\n      mul\n      0x20\n      add\n      dup3\n      add\n      0x40\n      mstore\n      dup1\n      iszero\n      tag_54\n      jumpi\n      dup2\n      0x20\n      add\n    tag_55:\n      tag_56\n      tag_57\n      jump\t// in\n    tag_56:\n      dup2\n      mstore\n      0x20\n      add\n      swap1\n      0x01\n      swap1\n      sub\n      swap1\n      dup2\n      tag_55\n      jumpi\n      swap1\n      pop\n    tag_54:\n      pop\n        /* \"contracts/Utils.sol\":1205:1253  User[] memory usersTemp = new User[](usersCount) */\n      swap1\n      pop\n        /* \"contracts/Utils.sol\":1263:1276  uint256 count */\n      0x00\n        /* \"contracts/Utils.sol\":1291:1300  uint256 i */\n      dup1\n        /* \"contracts/Utils.sol\":1303:1304  0 */\n      0x00\n        /* \"contracts/Utils.sol\":1291:1304  uint256 i = 0 */\n      swap1\n      pop\n        /* \"contracts/Utils.sol\":1286:1529  for (uint256 i = 0; i < usersCount; i++) {... */\n    tag_58:\n        /* \"contracts/Utils.sol\":1310:1320  usersCount */\n      dup4\n        /* \"contracts/Utils.sol\":1306:1307  i */\n      dup2\n        /* \"contracts/Utils.sol\":1306:1320  i < usersCount */\n      lt\n        /* \"contracts/Utils.sol\":1286:1529  for (uint256 i = 0; i < usersCount; i++) {... */\n      iszero\n      tag_59\n      jumpi\n        /* \"contracts/Utils.sol\":1395:1400  _role */\n      dup6\n        /* \"contracts/Utils.sol\":1345:1400  UserAddressMapping[UsersAddresses[i]].UserRole == _role */\n      0x06\n      dup2\n      gt\n      iszero\n      tag_61\n      jumpi\n      tag_62\n      tag_63\n      jump\t// in\n    tag_62:\n    tag_61:\n        /* \"contracts/Utils.sol\":1345:1363  UserAddressMapping */\n      0x00\n        /* \"contracts/Utils.sol\":1345:1382  UserAddressMapping[UsersAddresses[i]] */\n      dup1\n        /* \"contracts/Utils.sol\":1364:1378  UsersAddresses */\n      0x01\n        /* \"contracts/Utils.sol\":1379:1380  i */\n      dup5\n        /* \"contracts/Utils.sol\":1364:1381  UsersAddresses[i] */\n      dup2\n      sload\n      dup2\n      lt\n      tag_64\n      jumpi\n      tag_65\n      tag_66\n      jump\t// in\n    tag_65:\n    tag_64:\n      swap1\n      0x00\n      mstore\n      keccak256(0x00, 0x20)\n      add\n      0x00\n      swap1\n      sload\n      swap1\n      0x0100\n      exp\n      swap1\n      div\n      0xffffffffffffffffffffffffffffffffffffffff\n      and\n        /* \"contracts/Utils.sol\":1345:1382  UserAddressMapping[UsersAddresses[i]] */\n      0xffffffffffffffffffffffffffffffffffffffff\n      and\n      0xffffffffffffffffffffffffffffffffffffffff\n      and\n      dup2\n      mstore\n      0x20\n      add\n      swap1\n      dup2\n      mstore\n      0x20\n      add\n      0x00\n      keccak256\n        /* \"contracts/Utils.sol\":1345:1391  UserAddressMapping[UsersAddresses[i]].UserRole */\n      0x02\n      add\n      0x00\n      swap1\n      sload\n      swap1\n      0x0100\n      exp\n      swap1\n      div\n      0xff\n      and\n        /* \"contracts/Utils.sol\":1345:1400  UserAddressMapping[UsersAddresses[i]].UserRole == _role */\n      0x06\n      dup2\n      gt\n      iszero\n      tag_68\n      jumpi\n      tag_69\n      tag_63\n      jump\t// in\n    tag_69:\n    tag_68:\n      eq\n        /* \"contracts/Utils.sol\":1341:1519  if (UserAddressMapping[UsersAddresses[i]].UserRole == _role) {... */\n      iszero\n      tag_70\n      jumpi\n        /* \"contracts/Utils.sol\":1439:1457  UserAddressMapping */\n      0x00\n        /* \"contracts/Utils.sol\":1439:1476  UserAddressMapping[UsersAddresses[i]] */\n      dup1\n        /* \"contracts/Utils.sol\":1458:1472  UsersAddresses */\n      0x01\n        /* \"contracts/Utils.sol\":1473:1474  i */\n      dup4\n        /* \"contracts/Utils.sol\":1458:1475  UsersAddresses[i] */\n      dup2\n      sload\n      dup2\n      lt\n      tag_71\n      jumpi\n      tag_72\n      tag_66\n      jump\t// in\n    tag_72:\n    tag_71:\n      swap1\n      0x00\n      mstore\n      keccak256(0x00, 0x20)\n      add\n      0x00\n      swap1\n      sload\n      swap1\n      0x0100\n      exp\n      swap1\n      div\n      0xffffffffffffffffffffffffffffffffffffffff\n      and\n        /* \"contracts/Utils.sol\":1439:1476  UserAddressMapping[UsersAddresses[i]] */\n      0xffffffffffffffffffffffffffffffffffffffff\n      and\n      0xffffffffffffffffffffffffffffffffffffffff\n      and\n      dup2\n      mstore\n      0x20\n      add\n      swap1\n      dup2\n      mstore\n      0x20\n      add\n      0x00\n      keccak256\n        /* \"contracts/Utils.sol\":1420:1476  usersTemp[count] = UserAddressMapping[UsersAddresses[i]] */\n      mload(0x40)\n      dup1\n      0xe0\n      add\n      0x40\n      mstore\n      swap1\n      dup2\n      0x00\n      dup3\n      add\n      dup1\n      sload\n      tag_74\n      swap1\n      tag_75\n      jump\t// in\n    tag_74:\n      dup1\n      0x1f\n      add\n      0x20\n      dup1\n      swap2\n      div\n      mul\n      0x20\n      add\n      mload(0x40)\n      swap1\n      dup2\n      add\n      0x40\n      mstore\n      dup1\n      swap3\n      swap2\n      swap1\n      dup2\n      dup2\n      mstore\n      0x20\n      add\n      dup3\n      dup1\n      sload\n      tag_76\n      swap1\n      tag_75\n      jump\t// in\n    tag_76:\n      dup1\n      iszero\n      tag_77\n      jumpi\n      dup1\n      0x1f\n      lt\n      tag_78\n      jumpi\n      0x0100\n      dup1\n      dup4\n      sload\n      div\n      mul\n      dup4\n      mstore\n      swap2\n      0x20\n      add\n      swap2\n      jump(tag_77)\n    tag_78:\n      dup3\n      add\n      swap2\n      swap1\n      0x00\n      mstore\n      keccak256(0x00, 0x20)\n      swap1\n    tag_79:\n      dup2\n      sload\n      dup2\n      mstore\n      swap1\n      0x01\n      add\n      swap1\n      0x20\n      add\n      dup1\n      dup4\n      gt\n      tag_79\n      jumpi\n      dup3\n      swap1\n      sub\n      0x1f\n      and\n      dup3\n      add\n      swap2\n    tag_77:\n      pop\n      pop\n      pop\n      pop\n      pop\n      dup2\n      mstore\n      0x20\n      add\n      0x01\n      dup3\n      add\n      dup1\n      sload\n      tag_80\n      swap1\n      tag_75\n      jump\t// in\n    tag_80:\n      dup1\n      0x1f\n      add\n      0x20\n      dup1\n      swap2\n      div\n      mul\n      0x20\n      add\n      mload(0x40)\n      swap1\n      dup2\n      add\n      0x40\n      mstore\n      dup1\n      swap3\n      swap2\n      swap1\n      dup2\n      dup2\n      mstore\n      0x20\n      add\n      dup3\n      dup1\n      sload\n      tag_81\n      swap1\n      tag_75\n      jump\t// in\n    tag_81:\n      dup1\n      iszero\n      tag_82\n      jumpi\n      dup1\n      0x1f\n      lt\n      tag_83\n      jumpi\n      0x0100\n      dup1\n      dup4\n      sload\n      div\n      mul\n      dup4\n      mstore\n      swap2\n      0x20\n      add\n      swap2\n      jump(tag_82)\n    tag_83:\n      dup3\n      add\n      swap2\n      swap1\n      0x00\n      mstore\n      keccak256(0x00, 0x20)\n      swap1\n    tag_84:\n      dup2\n      sload\n      dup2\n      mstore\n      swap1\n      0x01\n      add\n      swap1\n      0x20\n      add\n      dup1\n      dup4\n      gt\n      tag_84\n      jumpi\n      dup3\n      swap1\n      sub\n      0x1f\n      and\n      dup3\n      add\n      swap2\n    tag_82:\n      pop\n      pop\n      pop\n      pop\n      pop\n      dup2\n      mstore\n      0x20\n      add\n      0x02\n      dup3\n      add\n      0x00\n      swap1\n      sload\n      swap1\n      0x0100\n      exp\n      swap1\n      div\n      0xff\n      and\n      0x06\n      dup2\n      gt\n      iszero\n      tag_85\n      jumpi\n      tag_86\n      tag_63\n      jump\t// in\n    tag_86:\n    tag_85:\n      0x06\n      dup2\n      gt\n      iszero\n      tag_87\n      jumpi\n      tag_88\n      tag_63\n      jump\t// in\n    tag_88:\n    tag_87:\n      dup2\n      mstore\n      0x20\n      add\n      0x02\n      dup3\n      add\n      0x01\n      swap1\n      sload\n      swap1\n      0x0100\n      exp\n      swap1\n      div\n      0xff\n      and\n      0x02\n      dup2\n      gt\n      iszero\n      tag_89\n      jumpi\n      tag_90\n      tag_63\n      jump\t// in\n    tag_90:\n    tag_89:\n      0x02\n      dup2\n      gt\n      iszero\n      tag_91\n      jumpi\n      tag_92\n      tag_63\n      jump\t// in\n    tag_92:\n    tag_91:\n      dup2\n      mstore\n      0x20\n      add\n      0x03\n      dup3\n      add\n      sload\n      dup2\n      mstore\n      0x20\n      add\n      0x04\n      dup3\n      add\n      sload\n      dup2\n      mstore\n      0x20\n      add\n      0x05\n      dup3\n      add\n      0x00\n      swap1\n      sload\n      swap1\n      0x0100\n      exp\n      swap1\n      div\n      0xffffffffffffffffffffffffffffffffffffffff\n      and\n      0xffffffffffffffffffffffffffffffffffffffff\n      and\n      0xffffffffffffffffffffffffffffffffffffffff\n      and\n      dup2\n      mstore\n      pop\n      pop\n        /* \"contracts/Utils.sol\":1420:1429  usersTemp */\n      dup4\n        /* \"contracts/Utils.sol\":1430:1435  count */\n      dup4\n        /* \"contracts/Utils.sol\":1420:1436  usersTemp[count] */\n      dup2\n      mload\n      dup2\n      lt\n      tag_93\n      jumpi\n      tag_94\n      tag_66\n      jump\t// in\n    tag_94:\n    tag_93:\n      0x20\n      mul\n      0x20\n      add\n      add\n        /* \"contracts/Utils.sol\":1420:1476  usersTemp[count] = UserAddressMapping[UsersAddresses[i]] */\n      dup2\n      swap1\n      mstore\n      pop\n        /* \"contracts/Utils.sol\":1503:1504  1 */\n      0x01\n        /* \"contracts/Utils.sol\":1494:1504  count += 1 */\n      dup3\n      tag_95\n      swap2\n      swap1\n      tag_96\n      jump\t// in\n    tag_95:\n      swap2\n      pop\n        /* \"contracts/Utils.sol\":1341:1519  if (UserAddressMapping[UsersAddresses[i]].UserRole == _role) {... */\n    tag_70:\n        /* \"contracts/Utils.sol\":1322:1325  i++ */\n      dup1\n      dup1\n      tag_97\n      swap1\n      tag_98\n      jump\t// in\n    tag_97:\n      swap2\n      pop\n      pop\n        /* \"contracts/Utils.sol\":1286:1529  for (uint256 i = 0; i < usersCount; i++) {... */\n      jump(tag_58)\n    tag_59:\n      pop\n        /* \"contracts/Utils.sol\":1566:1571  count */\n      dup1\n        /* \"contracts/Utils.sol\":1555:1572  new User[](count) */\n      0xffffffffffffffff\n      dup2\n      gt\n      iszero\n      tag_99\n      jumpi\n      tag_100\n      tag_53\n      jump\t// in\n    tag_100:\n    tag_99:\n      mload(0x40)\n      swap1\n      dup1\n      dup3\n      mstore\n      dup1\n      0x20\n      mul\n      0x20\n      add\n      dup3\n      add\n      0x40\n      mstore\n      dup1\n      iszero\n      tag_101\n      jumpi\n      dup2\n      0x20\n      add\n    tag_102:\n      tag_103\n      tag_57\n      jump\t// in\n    tag_103:\n      dup2\n      mstore\n      0x20\n      add\n      swap1\n      0x01\n      swap1\n      sub\n      swap1\n      dup2\n      tag_102\n      jumpi\n      swap1\n      pop\n    tag_101:\n      pop\n        /* \"contracts/Utils.sol\":1539:1572  filteredUsers = new User[](count) */\n      swap4\n      pop\n        /* \"contracts/Utils.sol\":1587:1596  uint256 i */\n      0x00\n        /* \"contracts/Utils.sol\":1582:1674  for (uint256 i = 0; i < count; i++) {... */\n    tag_104:\n        /* \"contracts/Utils.sol\":1606:1611  count */\n      dup2\n        /* \"contracts/Utils.sol\":1602:1603  i */\n      dup2\n        /* \"contracts/Utils.sol\":1602:1611  i < count */\n      lt\n        /* \"contracts/Utils.sol\":1582:1674  for (uint256 i = 0; i < count; i++) {... */\n      iszero\n      tag_105\n      jumpi\n        /* \"contracts/Utils.sol\":1651:1660  usersTemp */\n      dup3\n        /* \"contracts/Utils.sol\":1661:1662  i */\n      dup2\n        /* \"contracts/Utils.sol\":1651:1663  usersTemp[i] */\n      dup2\n      mload\n      dup2\n      lt\n      tag_107\n      jumpi\n      tag_108\n      tag_66\n      jump\t// in\n    tag_108:\n    tag_107:\n      0x20\n      mul\n      0x20\n      add\n      add\n      mload\n        /* \"contracts/Utils.sol\":1632:1645  filteredUsers */\n      dup6\n        /* \"contracts/Utils.sol\":1646:1647  i */\n      dup3\n        /* \"contracts/Utils.sol\":1632:1648  filteredUsers[i] */\n      dup2\n      mload\n      dup2\n      lt\n      tag_109\n      jumpi\n      tag_110\n      tag_66\n      jump\t// in\n    tag_110:\n    tag_109:\n      0x20\n      mul\n      0x20\n      add\n      add\n        /* \"contracts/Utils.sol\":1632:1663  filteredUsers[i] = usersTemp[i] */\n      dup2\n      swap1\n      mstore\n      pop\n        /* \"contracts/Utils.sol\":1613:1616  i++ */\n      dup1\n      dup1\n      tag_111\n      swap1\n      tag_98\n      jump\t// in\n    tag_111:\n      swap2\n      pop\n      pop\n        /* \"contracts/Utils.sol\":1582:1674  for (uint256 i = 0; i < count; i++) {... */\n      jump(tag_104)\n    tag_105:\n      pop\n        /* \"contracts/Utils.sol\":1143:1680  {... */\n      pop\n      pop\n      pop\n        /* \"contracts/Utils.sol\":1024:1680  function GetUsersByType(UserRoles _role)... */\n      swap2\n      swap1\n      pop\n      jump\t// out\n        /* \"contracts/Utils.sol\":2402:2446  PatchTransaction[] public PatchTrannsactions */\n    tag_20:\n      0x04\n      dup2\n      dup2\n      sload\n      dup2\n      lt\n      tag_112\n      jumpi\n      0x00\n      dup1\n      revert\n    tag_112:\n      swap1\n      0x00\n      mstore\n      keccak256(0x00, 0x20)\n      swap1\n      0x06\n      mul\n      add\n      0x00\n      swap2\n      pop\n      swap1\n      pop\n      dup1\n      0x00\n      add\n      dup1\n      sload\n      tag_114\n      swap1\n      tag_75\n      jump\t// in\n    tag_114:\n      dup1\n      0x1f\n      add\n      0x20\n      dup1\n      swap2\n      div\n      mul\n      0x20\n      add\n      mload(0x40)\n      swap1\n      dup2\n      add\n      0x40\n      mstore\n      dup1\n      swap3\n      swap2\n      swap1\n      dup2\n      dup2\n      mstore\n      0x20\n      add\n      dup3\n      dup1\n      sload\n      tag_115\n      swap1\n      tag_75\n      jump\t// in\n    tag_115:\n      dup1\n      iszero\n      tag_116\n      jumpi\n      dup1\n      0x1f\n      lt\n      tag_117\n      jumpi\n      0x0100\n      dup1\n      dup4\n      sload\n      div\n      mul\n      dup4\n      mstore\n      swap2\n      0x20\n      add\n      swap2\n      jump(tag_116)\n    tag_117:\n      dup3\n      add\n      swap2\n      swap1\n      0x00\n      mstore\n      keccak256(0x00, 0x20)\n      swap1\n    tag_118:\n      dup2\n      sload\n      dup2\n      mstore\n      swap1\n      0x01\n      add\n      swap1\n      0x20\n      add\n      dup1\n      dup4\n      gt\n      tag_118\n      jumpi\n      dup3\n      swap1\n      sub\n      0x1f\n      and\n      dup3\n      add\n      swap2\n    tag_116:\n      pop\n      pop\n      pop\n      pop\n      pop\n      swap1\n      dup1\n      0x01\n      add\n      dup1\n      sload\n      tag_119\n      swap1\n      tag_75\n      jump\t// in\n    tag_119:\n      dup1\n      0x1f\n      add\n      0x20\n      dup1\n      swap2\n      div\n      mul\n      0x20\n      add\n      mload(0x40)\n      swap1\n      dup2\n      add\n      0x40\n      mstore\n      dup1\n      swap3\n      swap2\n      swap1\n      dup2\n      dup2\n      mstore\n      0x20\n      add\n      dup3\n      dup1\n      sload\n      tag_120\n      swap1\n      tag_75\n      jump\t// in\n    tag_120:\n      dup1\n      iszero\n      tag_121\n      jumpi\n      dup1\n      0x1f\n      lt\n      tag_122\n      jumpi\n      0x0100\n      dup1\n      dup4\n      sload\n      div\n      mul\n      dup4\n      mstore\n      swap2\n      0x20\n      add\n      swap2\n      jump(tag_121)\n    tag_122:\n      dup3\n      add\n      swap2\n      swap1\n      0x00\n      mstore\n      keccak256(0x00, 0x20)\n      swap1\n    tag_123:\n      dup2\n      sload\n      dup2\n      mstore\n      swap1\n      0x01\n      add\n      swap1\n      0x20\n      add\n      dup1\n      dup4\n      gt\n      tag_123\n      jumpi\n      dup3\n      swap1\n      sub\n      0x1f\n      and\n      dup3\n      add\n      swap2\n    tag_121:\n      pop\n      pop\n      pop\n      pop\n      pop\n      swap1\n      dup1\n      0x02\n      add\n      sload\n      swap1\n      dup1\n      0x03\n      add\n      0x00\n      swap1\n      sload\n      swap1\n      0x0100\n      exp\n      swap1\n      div\n      0xffffffffffffffffffffffffffffffffffffffff\n      and\n      swap1\n      dup1\n      0x04\n      add\n      0x00\n      swap1\n      sload\n      swap1\n      0x0100\n      exp\n      swap1\n      div\n      0xffffffffffffffffffffffffffffffffffffffff\n      and\n      swap1\n      dup1\n      0x05\n      add\n      sload\n      swap1\n      pop\n      dup7\n      jump\t// out\n        /* \"contracts/Utils.sol\":3278:4120  function ReadTransactionsByDrug(string memory _drugno)... */\n    tag_26:\n        /* \"contracts/Utils.sol\":3378:3419  PatchTransaction[] memory UserTransaction */\n      0x60\n        /* \"contracts/Utils.sol\":3435:3454  uint256 MatchedRows */\n      0x00\n        /* \"contracts/Utils.sol\":3464:3498  PatchTransaction[] memory TempTran */\n      dup1\n        /* \"contracts/Utils.sol\":3537:3555  PatchTrannsactions */\n      0x04\n        /* \"contracts/Utils.sol\":3537:3562  PatchTrannsactions.length */\n      dup1\n      sload\n      swap1\n      pop\n        /* \"contracts/Utils.sol\":3501:3572  new PatchTransaction[](... */\n      0xffffffffffffffff\n      dup2\n      gt\n      iszero\n      tag_125\n      jumpi\n      tag_126\n      tag_53\n      jump\t// in\n    tag_126:\n    tag_125:\n      mload(0x40)\n      swap1\n      dup1\n      dup3\n      mstore\n      dup1\n      0x20\n      mul\n      0x20\n      add\n      dup3\n      add\n      0x40\n      mstore\n      dup1\n      iszero\n      tag_127\n      jumpi\n      dup2\n      0x20\n      add\n    tag_128:\n      tag_129\n      tag_130\n      jump\t// in\n    tag_129:\n      dup2\n      mstore\n      0x20\n      add\n      swap1\n      0x01\n      swap1\n      sub\n      swap1\n      dup2\n      tag_128\n      jumpi\n      swap1\n      pop\n    tag_127:\n      pop\n        /* \"contracts/Utils.sol\":3464:3572  PatchTransaction[] memory TempTran = new PatchTransaction[](... */\n      swap1\n      pop\n        /* \"contracts/Utils.sol\":3587:3596  uint256 i */\n      0x00\n        /* \"contracts/Utils.sol\":3582:3890  for (uint256 i = 0; i < PatchTrannsactions.length; i++) {... */\n    tag_131:\n        /* \"contracts/Utils.sol\":3606:3624  PatchTrannsactions */\n      0x04\n        /* \"contracts/Utils.sol\":3606:3631  PatchTrannsactions.length */\n      dup1\n      sload\n      swap1\n      pop\n        /* \"contracts/Utils.sol\":3602:3603  i */\n      dup2\n        /* \"contracts/Utils.sol\":3602:3631  i < PatchTrannsactions.length */\n      lt\n        /* \"contracts/Utils.sol\":3582:3890  for (uint256 i = 0; i < PatchTrannsactions.length; i++) {... */\n      iszero\n      tag_132\n      jumpi\n        /* \"contracts/Utils.sol\":3705:3769  compareStringsbyBytes(PatchTrannsactions[i].DrugRegNo , _drugno) */\n      tag_134\n        /* \"contracts/Utils.sol\":3727:3745  PatchTrannsactions */\n      0x04\n        /* \"contracts/Utils.sol\":3746:3747  i */\n      dup3\n        /* \"contracts/Utils.sol\":3727:3748  PatchTrannsactions[i] */\n      dup2\n      sload\n      dup2\n      lt\n      tag_135\n      jumpi\n      tag_136\n      tag_66\n      jump\t// in\n    tag_136:\n    tag_135:\n      swap1\n      0x00\n      mstore\n      keccak256(0x00, 0x20)\n      swap1\n      0x06\n      mul\n      add\n        /* \"contracts/Utils.sol\":3727:3758  PatchTrannsactions[i].DrugRegNo */\n      0x00\n      add\n        /* \"contracts/Utils.sol\":3705:3769  compareStringsbyBytes(PatchTrannsactions[i].DrugRegNo , _drugno) */\n      dup1\n      sload\n      tag_138\n      swap1\n      tag_75\n      jump\t// in\n    tag_138:\n      dup1\n      0x1f\n      add\n      0x20\n      dup1\n      swap2\n      div\n      mul\n      0x20\n      add\n      mload(0x40)\n      swap1\n      dup2\n      add\n      0x40\n      mstore\n      dup1\n      swap3\n      swap2\n      swap1\n      dup2\n      dup2\n      mstore\n      0x20\n      add\n      dup3\n      dup1\n      sload\n      tag_139\n      swap1\n      tag_75\n      jump\t// in\n    tag_139:\n      dup1\n      iszero\n      tag_140\n      jumpi\n      dup1\n      0x1f\n      lt\n      tag_141\n      jumpi\n      0x0100\n      dup1\n      dup4\n      sload\n      div\n      mul\n      dup4\n      mstore\n      swap2\n      0x20\n      add\n      swap2\n      jump(tag_140)\n    tag_141:\n      dup3\n      add\n      swap2\n      swap1\n      0x00\n      mstore\n      keccak256(0x00, 0x20)\n      swap1\n    tag_142:\n      dup2\n      sload\n      dup2\n      mstore\n      swap1\n      0x01\n      add\n      swap1\n      0x20\n      add\n      dup1\n      dup4\n      gt\n      tag_142\n      jumpi\n      dup3\n      swap1\n      sub\n      0x1f\n      and\n      dup3\n      add\n      swap2\n    tag_140:\n      pop\n      pop\n      pop\n      pop\n      pop\n        /* \"contracts/Utils.sol\":3761:3768  _drugno */\n      dup7\n        /* \"contracts/Utils.sol\":3705:3726  compareStringsbyBytes */\n      tag_47\n        /* \"contracts/Utils.sol\":3705:3769  compareStringsbyBytes(PatchTrannsactions[i].DrugRegNo , _drugno) */\n      jump\t// in\n    tag_134:\n        /* \"contracts/Utils.sol\":3701:3880  if (compareStringsbyBytes(PatchTrannsactions[i].DrugRegNo , _drugno)) {... */\n      iszero\n      tag_143\n      jumpi\n        /* \"contracts/Utils.sol\":3813:3831  PatchTrannsactions */\n      0x04\n        /* \"contracts/Utils.sol\":3832:3833  i */\n      dup2\n        /* \"contracts/Utils.sol\":3813:3834  PatchTrannsactions[i] */\n      dup2\n      sload\n      dup2\n      lt\n      tag_144\n      jumpi\n      tag_145\n      tag_66\n      jump\t// in\n    tag_145:\n    tag_144:\n      swap1\n      0x00\n      mstore\n      keccak256(0x00, 0x20)\n      swap1\n      0x06\n      mul\n      add\n        /* \"contracts/Utils.sol\":3789:3834  TempTran[MatchedRows] = PatchTrannsactions[i] */\n      mload(0x40)\n      dup1\n      0xc0\n      add\n      0x40\n      mstore\n      swap1\n      dup2\n      0x00\n      dup3\n      add\n      dup1\n      sload\n      tag_147\n      swap1\n      tag_75\n      jump\t// in\n    tag_147:\n      dup1\n      0x1f\n      add\n      0x20\n      dup1\n      swap2\n      div\n      mul\n      0x20\n      add\n      mload(0x40)\n      swap1\n      dup2\n      add\n      0x40\n      mstore\n      dup1\n      swap3\n      swap2\n      swap1\n      dup2\n      dup2\n      mstore\n      0x20\n      add\n      dup3\n      dup1\n      sload\n      tag_148\n      swap1\n      tag_75\n      jump\t// in\n    tag_148:\n      dup1\n      iszero\n      tag_149\n      jumpi\n      dup1\n      0x1f\n      lt\n      tag_150\n      jumpi\n      0x0100\n      dup1\n      dup4\n      sload\n      div\n      mul\n      dup4\n      mstore\n      swap2\n      0x20\n      add\n      swap2\n      jump(tag_149)\n    tag_150:\n      dup3\n      add\n      swap2\n      swap1\n      0x00\n      mstore\n      keccak256(0x00, 0x20)\n      swap1\n    tag_151:\n      dup2\n      sload\n      dup2\n      mstore\n      swap1\n      0x01\n      add\n      swap1\n      0x20\n      add\n      dup1\n      dup4\n      gt\n      tag_151\n      jumpi\n      dup3\n      swap1\n      sub\n      0x1f\n      and\n      dup3\n      add\n      swap2\n    tag_149:\n      pop\n      pop\n      pop\n      pop\n      pop\n      dup2\n      mstore\n      0x20\n      add\n      0x01\n      dup3\n      add\n      dup1\n      sload\n      tag_152\n      swap1\n      tag_75\n      jump\t// in\n    tag_152:\n      dup1\n      0x1f\n      add\n      0x20\n      dup1\n      swap2\n      div\n      mul\n      0x20\n      add\n      mload(0x40)\n      swap1\n      dup2\n      add\n      0x40\n      mstore\n      dup1\n      swap3\n      swap2\n      swap1\n      dup2\n      dup2\n      mstore\n      0x20\n      add\n      dup3\n      dup1\n      sload\n      tag_153\n      swap1\n      tag_75\n      jump\t// in\n    tag_153:\n      dup1\n      iszero\n      tag_154\n      jumpi\n      dup1\n      0x1f\n      lt\n      tag_155\n      jumpi\n      0x0100\n      dup1\n      dup4\n      sload\n      div\n      mul\n      dup4\n      mstore\n      swap2\n      0x20\n      add\n      swap2\n      jump(tag_154)\n    tag_155:\n      dup3\n      add\n      swap2\n      swap1\n      0x00\n      mstore\n      keccak256(0x00, 0x20)\n      swap1\n    tag_156:\n      dup2\n      sload\n      dup2\n      mstore\n      swap1\n      0x01\n      add\n      swap1\n      0x20\n      add\n      dup1\n      dup4\n      gt\n      tag_156\n      jumpi\n      dup3\n      swap1\n      sub\n      0x1f\n      and\n      dup3\n      add\n      swap2\n    tag_154:\n      pop\n      pop\n      pop\n      pop\n      pop\n      dup2\n      mstore\n      0x20\n      add\n      0x02\n      dup3\n      add\n      sload\n      dup2\n      mstore\n      0x20\n      add\n      0x03\n      dup3\n      add\n      0x00\n      swap1\n      sload\n      swap1\n      0x0100\n      exp\n      swap1\n      div\n      0xffffffffffffffffffffffffffffffffffffffff\n      and\n      0xffffffffffffffffffffffffffffffffffffffff\n      and\n      0xffffffffffffffffffffffffffffffffffffffff\n      and\n      dup2\n      mstore\n      0x20\n      add\n      0x04\n      dup3\n      add\n      0x00\n      swap1\n      sload\n      swap1\n      0x0100\n      exp\n      swap1\n      div\n      0xffffffffffffffffffffffffffffffffffffffff\n      and\n      0xffffffffffffffffffffffffffffffffffffffff\n      and\n      0xffffffffffffffffffffffffffffffffffffffff\n      and\n      dup2\n      mstore\n      0x20\n      add\n      0x05\n      dup3\n      add\n      sload\n      dup2\n      mstore\n      pop\n      pop\n        /* \"contracts/Utils.sol\":3789:3797  TempTran */\n      dup3\n        /* \"contracts/Utils.sol\":3798:3809  MatchedRows */\n      dup5\n        /* \"contracts/Utils.sol\":3789:3810  TempTran[MatchedRows] */\n      dup2\n      mload\n      dup2\n      lt\n      tag_157\n      jumpi\n      tag_158\n      tag_66\n      jump\t// in\n    tag_158:\n    tag_157:\n      0x20\n      mul\n      0x20\n      add\n      add\n        /* \"contracts/Utils.sol\":3789:3834  TempTran[MatchedRows] = PatchTrannsactions[i] */\n      dup2\n      swap1\n      mstore\n      pop\n        /* \"contracts/Utils.sol\":3852:3865  MatchedRows++ */\n      dup3\n      dup1\n      tag_159\n      swap1\n      tag_98\n      jump\t// in\n    tag_159:\n      swap4\n      pop\n      pop\n        /* \"contracts/Utils.sol\":3701:3880  if (compareStringsbyBytes(PatchTrannsactions[i].DrugRegNo , _drugno)) {... */\n    tag_143:\n        /* \"contracts/Utils.sol\":3633:3636  i++ */\n      dup1\n      dup1\n      tag_160\n      swap1\n      tag_98\n      jump\t// in\n    tag_160:\n      swap2\n      pop\n      pop\n        /* \"contracts/Utils.sol\":3582:3890  for (uint256 i = 0; i < PatchTrannsactions.length; i++) {... */\n      jump(tag_131)\n    tag_132:\n      pop\n        /* \"contracts/Utils.sol\":3940:3951  MatchedRows */\n      dup2\n        /* \"contracts/Utils.sol\":3917:3952  new PatchTransaction[](MatchedRows) */\n      0xffffffffffffffff\n      dup2\n      gt\n      iszero\n      tag_161\n      jumpi\n      tag_162\n      tag_53\n      jump\t// in\n    tag_162:\n    tag_161:\n      mload(0x40)\n      swap1\n      dup1\n      dup3\n      mstore\n      dup1\n      0x20\n      mul\n      0x20\n      add\n      dup3\n      add\n      0x40\n      mstore\n      dup1\n      iszero\n      tag_163\n      jumpi\n      dup2\n      0x20\n      add\n    tag_164:\n      tag_165\n      tag_130\n      jump\t// in\n    tag_165:\n      dup2\n      mstore\n      0x20\n      add\n      swap1\n      0x01\n      swap1\n      sub\n      swap1\n      dup2\n      tag_164\n      jumpi\n      swap1\n      pop\n    tag_163:\n      pop\n        /* \"contracts/Utils.sol\":3899:3952  UserTransaction = new PatchTransaction[](MatchedRows) */\n      swap3\n      pop\n        /* \"contracts/Utils.sol\":3980:3981  0 */\n      0x00\n        /* \"contracts/Utils.sol\":3966:3977  MatchedRows */\n      dup3\n        /* \"contracts/Utils.sol\":3966:3981  MatchedRows > 0 */\n      gt\n        /* \"contracts/Utils.sol\":3962:4114  if (MatchedRows > 0) {... */\n      iszero\n      tag_166\n      jumpi\n        /* \"contracts/Utils.sol\":4002:4011  uint256 i */\n      0x00\n        /* \"contracts/Utils.sol\":3997:4104  for (uint256 i = 0; i < MatchedRows; i++) {... */\n    tag_167:\n        /* \"contracts/Utils.sol\":4021:4032  MatchedRows */\n      dup3\n        /* \"contracts/Utils.sol\":4017:4018  i */\n      dup2\n        /* \"contracts/Utils.sol\":4017:4032  i < MatchedRows */\n      lt\n        /* \"contracts/Utils.sol\":3997:4104  for (uint256 i = 0; i < MatchedRows; i++) {... */\n      iszero\n      tag_168\n      jumpi\n        /* \"contracts/Utils.sol\":4078:4086  TempTran */\n      dup2\n        /* \"contracts/Utils.sol\":4087:4088  i */\n      dup2\n        /* \"contracts/Utils.sol\":4078:4089  TempTran[i] */\n      dup2\n      mload\n      dup2\n      lt\n      tag_170\n      jumpi\n      tag_171\n      tag_66\n      jump\t// in\n    tag_171:\n    tag_170:\n      0x20\n      mul\n      0x20\n      add\n      add\n      mload\n        /* \"contracts/Utils.sol\":4057:4072  UserTransaction */\n      dup5\n        /* \"contracts/Utils.sol\":4073:4074  i */\n      dup3\n        /* \"contracts/Utils.sol\":4057:4075  UserTransaction[i] */\n      dup2\n      mload\n      dup2\n      lt\n      tag_172\n      jumpi\n      tag_173\n      tag_66\n      jump\t// in\n    tag_173:\n    tag_172:\n      0x20\n      mul\n      0x20\n      add\n      add\n        /* \"contracts/Utils.sol\":4057:4089  UserTransaction[i] = TempTran[i] */\n      dup2\n      swap1\n      mstore\n      pop\n        /* \"contracts/Utils.sol\":4034:4037  i++ */\n      dup1\n      dup1\n      tag_174\n      swap1\n      tag_98\n      jump\t// in\n    tag_174:\n      swap2\n      pop\n      pop\n        /* \"contracts/Utils.sol\":3997:4104  for (uint256 i = 0; i < MatchedRows; i++) {... */\n      jump(tag_167)\n    tag_168:\n      pop\n        /* \"contracts/Utils.sol\":3962:4114  if (MatchedRows > 0) {... */\n    tag_166:\n        /* \"contracts/Utils.sol\":3425:4120  {... */\n      pop\n      pop\n        /* \"contracts/Utils.sol\":3278:4120  function ReadTransactionsByDrug(string memory _drugno)... */\n      swap2\n      swap1\n      pop\n      jump\t// out\n        /* \"contracts/Utils.sol\":2453:3272  function ReadTransactionsByUser(address _useraddress)... */\n    tag_32:\n        /* \"contracts/Utils.sol\":2552:2593  PatchTransaction[] memory UserTransaction */\n      0x60\n        /* \"contracts/Utils.sol\":2609:2628  uint256 MatchedRows */\n      0x00\n        /* \"contracts/Utils.sol\":2638:2672  PatchTransaction[] memory TempTran */\n      dup1\n        /* \"contracts/Utils.sol\":2711:2729  PatchTrannsactions */\n      0x04\n        /* \"contracts/Utils.sol\":2711:2736  PatchTrannsactions.length */\n      dup1\n      sload\n      swap1\n      pop\n        /* \"contracts/Utils.sol\":2675:2746  new PatchTransaction[](... */\n      0xffffffffffffffff\n      dup2\n      gt\n      iszero\n      tag_176\n      jumpi\n      tag_177\n      tag_53\n      jump\t// in\n    tag_177:\n    tag_176:\n      mload(0x40)\n      swap1\n      dup1\n      dup3\n      mstore\n      dup1\n      0x20\n      mul\n      0x20\n      add\n      dup3\n      add\n      0x40\n      mstore\n      dup1\n      iszero\n      tag_178\n      jumpi\n      dup2\n      0x20\n      add\n    tag_179:\n      tag_180\n      tag_130\n      jump\t// in\n    tag_180:\n      dup2\n      mstore\n      0x20\n      add\n      swap1\n      0x01\n      swap1\n      sub\n      swap1\n      dup2\n      tag_179\n      jumpi\n      swap1\n      pop\n    tag_178:\n      pop\n        /* \"contracts/Utils.sol\":2638:2746  PatchTransaction[] memory TempTran = new PatchTransaction[](... */\n      swap1\n      pop\n        /* \"contracts/Utils.sol\":2761:2770  uint256 i */\n      0x00\n        /* \"contracts/Utils.sol\":2756:3042  for (uint256 i = 0; i < PatchTrannsactions.length; i++) {... */\n    tag_181:\n        /* \"contracts/Utils.sol\":2780:2798  PatchTrannsactions */\n      0x04\n        /* \"contracts/Utils.sol\":2780:2805  PatchTrannsactions.length */\n      dup1\n      sload\n      swap1\n      pop\n        /* \"contracts/Utils.sol\":2776:2777  i */\n      dup2\n        /* \"contracts/Utils.sol\":2776:2805  i < PatchTrannsactions.length */\n      lt\n        /* \"contracts/Utils.sol\":2756:3042  for (uint256 i = 0; i < PatchTrannsactions.length; i++) {... */\n      iszero\n      tag_182\n      jumpi\n        /* \"contracts/Utils.sol\":2909:2921  _useraddress */\n      dup5\n        /* \"contracts/Utils.sol\":2879:2921  PatchTrannsactions[i].ToID == _useraddress */\n      0xffffffffffffffffffffffffffffffffffffffff\n      and\n        /* \"contracts/Utils.sol\":2879:2897  PatchTrannsactions */\n      0x04\n        /* \"contracts/Utils.sol\":2898:2899  i */\n      dup3\n        /* \"contracts/Utils.sol\":2879:2900  PatchTrannsactions[i] */\n      dup2\n      sload\n      dup2\n      lt\n      tag_184\n      jumpi\n      tag_185\n      tag_66\n      jump\t// in\n    tag_185:\n    tag_184:\n      swap1\n      0x00\n      mstore\n      keccak256(0x00, 0x20)\n      swap1\n      0x06\n      mul\n      add\n        /* \"contracts/Utils.sol\":2879:2905  PatchTrannsactions[i].ToID */\n      0x04\n      add\n      0x00\n      swap1\n      sload\n      swap1\n      0x0100\n      exp\n      swap1\n      div\n      0xffffffffffffffffffffffffffffffffffffffff\n      and\n        /* \"contracts/Utils.sol\":2879:2921  PatchTrannsactions[i].ToID == _useraddress */\n      0xffffffffffffffffffffffffffffffffffffffff\n      and\n      eq\n        /* \"contracts/Utils.sol\":2875:3032  if (PatchTrannsactions[i].ToID == _useraddress) {... */\n      iszero\n      tag_187\n      jumpi\n        /* \"contracts/Utils.sol\":2965:2983  PatchTrannsactions */\n      0x04\n        /* \"contracts/Utils.sol\":2984:2985  i */\n      dup2\n        /* \"contracts/Utils.sol\":2965:2986  PatchTrannsactions[i] */\n      dup2\n      sload\n      dup2\n      lt\n      tag_188\n      jumpi\n      tag_189\n      tag_66\n      jump\t// in\n    tag_189:\n    tag_188:\n      swap1\n      0x00\n      mstore\n      keccak256(0x00, 0x20)\n      swap1\n      0x06\n      mul\n      add\n        /* \"contracts/Utils.sol\":2941:2986  TempTran[MatchedRows] = PatchTrannsactions[i] */\n      mload(0x40)\n      dup1\n      0xc0\n      add\n      0x40\n      mstore\n      swap1\n      dup2\n      0x00\n      dup3\n      add\n      dup1\n      sload\n      tag_191\n      swap1\n      tag_75\n      jump\t// in\n    tag_191:\n      dup1\n      0x1f\n      add\n      0x20\n      dup1\n      swap2\n      div\n      mul\n      0x20\n      add\n      mload(0x40)\n      swap1\n      dup2\n      add\n      0x40\n      mstore\n      dup1\n      swap3\n      swap2\n      swap1\n      dup2\n      dup2\n      mstore\n      0x20\n      add\n      dup3\n      dup1\n      sload\n      tag_192\n      swap1\n      tag_75\n      jump\t// in\n    tag_192:\n      dup1\n      iszero\n      tag_193\n      jumpi\n      dup1\n      0x1f\n      lt\n      tag_194\n      jumpi\n      0x0100\n      dup1\n      dup4\n      sload\n      div\n      mul\n      dup4\n      mstore\n      swap2\n      0x20\n      add\n      swap2\n      jump(tag_193)\n    tag_194:\n      dup3\n      add\n      swap2\n      swap1\n      0x00\n      mstore\n      keccak256(0x00, 0x20)\n      swap1\n    tag_195:\n      dup2\n      sload\n      dup2\n      mstore\n      swap1\n      0x01\n      add\n      swap1\n      0x20\n      add\n      dup1\n      dup4\n      gt\n      tag_195\n      jumpi\n      dup3\n      swap1\n      sub\n      0x1f\n      and\n      dup3\n      add\n      swap2\n    tag_193:\n      pop\n      pop\n      pop\n      pop\n      pop\n      dup2\n      mstore\n      0x20\n      add\n      0x01\n      dup3\n      add\n      dup1\n      sload\n      tag_196\n      swap1\n      tag_75\n      jump\t// in\n    tag_196:\n      dup1\n      0x1f\n      add\n      0x20\n      dup1\n      swap2\n      div\n      mul\n      0x20\n      add\n      mload(0x40)\n      swap1\n      dup2\n      add\n      0x40\n      mstore\n      dup1\n      swap3\n      swap2\n      swap1\n      dup2\n      dup2\n      mstore\n      0x20\n      add\n      dup3\n      dup1\n      sload\n      tag_197\n      swap1\n      tag_75\n      jump\t// in\n    tag_197:\n      dup1\n      iszero\n      tag_198\n      jumpi\n      dup1\n      0x1f\n      lt\n      tag_199\n      jumpi\n      0x0100\n      dup1\n      dup4\n      sload\n      div\n      mul\n      dup4\n      mstore\n      swap2\n      0x20\n      add\n      swap2\n      jump(tag_198)\n    tag_199:\n      dup3\n      add\n      swap2\n      swap1\n      0x00\n      mstore\n      keccak256(0x00, 0x20)\n      swap1\n    tag_200:\n      dup2\n      sload\n      dup2\n      mstore\n      swap1\n      0x01\n      add\n      swap1\n      0x20\n      add\n      dup1\n      dup4\n      gt\n      tag_200\n      jumpi\n      dup3\n      swap1\n      sub\n      0x1f\n      and\n      dup3\n      add\n      swap2\n    tag_198:\n      pop\n      pop\n      pop\n      pop\n      pop\n      dup2\n      mstore\n      0x20\n      add\n      0x02\n      dup3\n      add\n      sload\n      dup2\n      mstore\n      0x20\n      add\n      0x03\n      dup3\n      add\n      0x00\n      swap1\n      sload\n      swap1\n      0x0100\n      exp\n      swap1\n      div\n      0xffffffffffffffffffffffffffffffffffffffff\n      and\n      0xffffffffffffffffffffffffffffffffffffffff\n      and\n      0xffffffffffffffffffffffffffffffffffffffff\n      and\n      dup2\n      mstore\n      0x20\n      add\n      0x04\n      dup3\n      add\n      0x00\n      swap1\n      sload\n      swap1\n      0x0100\n      exp\n      swap1\n      div\n      0xffffffffffffffffffffffffffffffffffffffff\n      and\n      0xffffffffffffffffffffffffffffffffffffffff\n      and\n      0xffffffffffffffffffffffffffffffffffffffff\n      and\n      dup2\n      mstore\n      0x20\n      add\n      0x05\n      dup3\n      add\n      sload\n      dup2\n      mstore\n      pop\n      pop\n        /* \"contracts/Utils.sol\":2941:2949  TempTran */\n      dup3\n        /* \"contracts/Utils.sol\":2950:2961  MatchedRows */\n      dup5\n        /* \"contracts/Utils.sol\":2941:2962  TempTran[MatchedRows] */\n      dup2\n      mload\n      dup2\n      lt\n      tag_201\n      jumpi\n      tag_202\n      tag_66\n      jump\t// in\n    tag_202:\n    tag_201:\n      0x20\n      mul\n      0x20\n      add\n      add\n        /* \"contracts/Utils.sol\":2941:2986  TempTran[MatchedRows] = PatchTrannsactions[i] */\n      dup2\n      swap1\n      mstore\n      pop\n        /* \"contracts/Utils.sol\":3004:3017  MatchedRows++ */\n      dup3\n      dup1\n      tag_203\n      swap1\n      tag_98\n      jump\t// in\n    tag_203:\n      swap4\n      pop\n      pop\n        /* \"contracts/Utils.sol\":2875:3032  if (PatchTrannsactions[i].ToID == _useraddress) {... */\n    tag_187:\n        /* \"contracts/Utils.sol\":2807:2810  i++ */\n      dup1\n      dup1\n      tag_204\n      swap1\n      tag_98\n      jump\t// in\n    tag_204:\n      swap2\n      pop\n      pop\n        /* \"contracts/Utils.sol\":2756:3042  for (uint256 i = 0; i < PatchTrannsactions.length; i++) {... */\n      jump(tag_181)\n    tag_182:\n      pop\n        /* \"contracts/Utils.sol\":3092:3103  MatchedRows */\n      dup2\n        /* \"contracts/Utils.sol\":3069:3104  new PatchTransaction[](MatchedRows) */\n      0xffffffffffffffff\n      dup2\n      gt\n      iszero\n      tag_205\n      jumpi\n      tag_206\n      tag_53\n      jump\t// in\n    tag_206:\n    tag_205:\n      mload(0x40)\n      swap1\n      dup1\n      dup3\n      mstore\n      dup1\n      0x20\n      mul\n      0x20\n      add\n      dup3\n      add\n      0x40\n      mstore\n      dup1\n      iszero\n      tag_207\n      jumpi\n      dup2\n      0x20\n      add\n    tag_208:\n      tag_209\n      tag_130\n      jump\t// in\n    tag_209:\n      dup2\n      mstore\n      0x20\n      add\n      swap1\n      0x01\n      swap1\n      sub\n      swap1\n      dup2\n      tag_208\n      jumpi\n      swap1\n      pop\n    tag_207:\n      pop\n        /* \"contracts/Utils.sol\":3051:3104  UserTransaction = new PatchTransaction[](MatchedRows) */\n      swap3\n      pop\n        /* \"contracts/Utils.sol\":3132:3133  0 */\n      0x00\n        /* \"contracts/Utils.sol\":3118:3129  MatchedRows */\n      dup3\n        /* \"contracts/Utils.sol\":3118:3133  MatchedRows > 0 */\n      gt\n        /* \"contracts/Utils.sol\":3114:3266  if (MatchedRows > 0) {... */\n      iszero\n      tag_210\n      jumpi\n        /* \"contracts/Utils.sol\":3154:3163  uint256 i */\n      0x00\n        /* \"contracts/Utils.sol\":3149:3256  for (uint256 i = 0; i < MatchedRows; i++) {... */\n    tag_211:\n        /* \"contracts/Utils.sol\":3173:3184  MatchedRows */\n      dup3\n        /* \"contracts/Utils.sol\":3169:3170  i */\n      dup2\n        /* \"contracts/Utils.sol\":3169:3184  i < MatchedRows */\n      lt\n        /* \"contracts/Utils.sol\":3149:3256  for (uint256 i = 0; i < MatchedRows; i++) {... */\n      iszero\n      tag_212\n      jumpi\n        /* \"contracts/Utils.sol\":3230:3238  TempTran */\n      dup2\n        /* \"contracts/Utils.sol\":3239:3240  i */\n      dup2\n        /* \"contracts/Utils.sol\":3230:3241  TempTran[i] */\n      dup2\n      mload\n      dup2\n      lt\n      tag_214\n      jumpi\n      tag_215\n      tag_66\n      jump\t// in\n    tag_215:\n    tag_214:\n      0x20\n      mul\n      0x20\n      add\n      add\n      mload\n        /* \"contracts/Utils.sol\":3209:3224  UserTransaction */\n      dup5\n        /* \"contracts/Utils.sol\":3225:3226  i */\n      dup3\n        /* \"contracts/Utils.sol\":3209:3227  UserTransaction[i] */\n      dup2\n      mload\n      dup2\n      lt\n      tag_216\n      jumpi\n      tag_217\n      tag_66\n      jump\t// in\n    tag_217:\n    tag_216:\n      0x20\n      mul\n      0x20\n      add\n      add\n        /* \"contracts/Utils.sol\":3209:3241  UserTransaction[i] = TempTran[i] */\n      dup2\n      swap1\n      mstore\n      pop\n        /* \"contracts/Utils.sol\":3186:3189  i++ */\n      dup1\n      dup1\n      tag_218\n      swap1\n      tag_98\n      jump\t// in\n    tag_218:\n      swap2\n      pop\n      pop\n        /* \"contracts/Utils.sol\":3149:3256  for (uint256 i = 0; i < MatchedRows; i++) {... */\n      jump(tag_211)\n    tag_212:\n      pop\n        /* \"contracts/Utils.sol\":3114:3266  if (MatchedRows > 0) {... */\n    tag_210:\n        /* \"contracts/Utils.sol\":2599:3272  {... */\n      pop\n      pop\n        /* \"contracts/Utils.sol\":2453:3272  function ReadTransactionsByUser(address _useraddress)... */\n      swap2\n      swap1\n      pop\n      jump\t// out\n        /* \"contracts/Utils.sol\":896:1018  function ReadUser(address _address) public view returns (User memory) {... */\n    tag_36:\n        /* \"contracts/Utils.sol\":953:964  User memory */\n      tag_219\n      tag_57\n      jump\t// in\n    tag_219:\n        /* \"contracts/Utils.sol\":983:1001  UserAddressMapping */\n      0x00\n        /* \"contracts/Utils.sol\":983:1011  UserAddressMapping[_address] */\n      dup1\n        /* \"contracts/Utils.sol\":1002:1010  _address */\n      dup4\n        /* \"contracts/Utils.sol\":983:1011  UserAddressMapping[_address] */\n      0xffffffffffffffffffffffffffffffffffffffff\n      and\n      0xffffffffffffffffffffffffffffffffffffffff\n      and\n      dup2\n      mstore\n      0x20\n      add\n      swap1\n      dup2\n      mstore\n      0x20\n      add\n      0x00\n      keccak256\n        /* \"contracts/Utils.sol\":976:1011  return UserAddressMapping[_address] */\n      mload(0x40)\n      dup1\n      0xe0\n      add\n      0x40\n      mstore\n      swap1\n      dup2\n      0x00\n      dup3\n      add\n      dup1\n      sload\n      tag_221\n      swap1\n      tag_75\n      jump\t// in\n    tag_221:\n      dup1\n      0x1f\n      add\n      0x20\n      dup1\n      swap2\n      div\n      mul\n      0x20\n      add\n      mload(0x40)\n      swap1\n      dup2\n      add\n      0x40\n      mstore\n      dup1\n      swap3\n      swap2\n      swap1\n      dup2\n      dup2\n      mstore\n      0x20\n      add\n      dup3\n      dup1\n      sload\n      tag_222\n      swap1\n      tag_75\n      jump\t// in\n    tag_222:\n      dup1\n      iszero\n      tag_223\n      jumpi\n      dup1\n      0x1f\n      lt\n      tag_224\n      jumpi\n      0x0100\n      dup1\n      dup4\n      sload\n      div\n      mul\n      dup4\n      mstore\n      swap2\n      0x20\n      add\n      swap2\n      jump(tag_223)\n    tag_224:\n      dup3\n      add\n      swap2\n      swap1\n      0x00\n      mstore\n      keccak256(0x00, 0x20)\n      swap1\n    tag_225:\n      dup2\n      sload\n      dup2\n      mstore\n      swap1\n      0x01\n      add\n      swap1\n      0x20\n      add\n      dup1\n      dup4\n      gt\n      tag_225\n      jumpi\n      dup3\n      swap1\n      sub\n      0x1f\n      and\n      dup3\n      add\n      swap2\n    tag_223:\n      pop\n      pop\n      pop\n      pop\n      pop\n      dup2\n      mstore\n      0x20\n      add\n      0x01\n      dup3\n      add\n      dup1\n      sload\n      tag_226\n      swap1\n      tag_75\n      jump\t// in\n    tag_226:\n      dup1\n      0x1f\n      add\n      0x20\n      dup1\n      swap2\n      div\n      mul\n      0x20\n      add\n      mload(0x40)\n      swap1\n      dup2\n      add\n      0x40\n      mstore\n      dup1\n      swap3\n      swap2\n      swap1\n      dup2\n      dup2\n      mstore\n      0x20\n      add\n      dup3\n      dup1\n      sload\n      tag_227\n      swap1\n      tag_75\n      jump\t// in\n    tag_227:\n      dup1\n      iszero\n      tag_228\n      jumpi\n      dup1\n      0x1f\n      lt\n      tag_229\n      jumpi\n      0x0100\n      dup1\n      dup4\n      sload\n      div\n      mul\n      dup4\n      mstore\n      swap2\n      0x20\n      add\n      swap2\n      jump(tag_228)\n    tag_229:\n      dup3\n      add\n      swap2\n      swap1\n      0x00\n      mstore\n      keccak256(0x00, 0x20)\n      swap1\n    tag_230:\n      dup2\n      sload\n      dup2\n      mstore\n      swap1\n      0x01\n      add\n      swap1\n      0x20\n      add\n      dup1\n      dup4\n      gt\n      tag_230\n      jumpi\n      dup3\n      swap1\n      sub\n      0x1f\n      and\n      dup3\n      add\n      swap2\n    tag_228:\n      pop\n      pop\n      pop\n      pop\n      pop\n      dup2\n      mstore\n      0x20\n      add\n      0x02\n      dup3\n      add\n      0x00\n      swap1\n      sload\n      swap1\n      0x0100\n      exp\n      swap1\n      div\n      0xff\n      and\n      0x06\n      dup2\n      gt\n      iszero\n      tag_231\n      jumpi\n      tag_232\n      tag_63\n      jump\t// in\n    tag_232:\n    tag_231:\n      0x06\n      dup2\n      gt\n      iszero\n      tag_233\n      jumpi\n      tag_234\n      tag_63\n      jump\t// in\n    tag_234:\n    tag_233:\n      dup2\n      mstore\n      0x20\n      add\n      0x02\n      dup3\n      add\n      0x01\n      swap1\n      sload\n      swap1\n      0x0100\n      exp\n      swap1\n      div\n      0xff\n      and\n      0x02\n      dup2\n      gt\n      iszero\n      tag_235\n      jumpi\n      tag_236\n      tag_63\n      jump\t// in\n    tag_236:\n    tag_235:\n      0x02\n      dup2\n      gt\n      iszero\n      tag_237\n      jumpi\n      tag_238\n      tag_63\n      jump\t// in\n    tag_238:\n    tag_237:\n      dup2\n      mstore\n      0x20\n      add\n      0x03\n      dup3\n      add\n      sload\n      dup2\n      mstore\n      0x20\n      add\n      0x04\n      dup3\n      add\n      sload\n      dup2\n      mstore\n      0x20\n      add\n      0x05\n      dup3\n      add\n      0x00\n      swap1\n      sload\n      swap1\n      0x0100\n      exp\n      swap1\n      div\n      0xffffffffffffffffffffffffffffffffffffffff\n      and\n      0xffffffffffffffffffffffffffffffffffffffff\n      and\n      0xffffffffffffffffffffffffffffffffffffffff\n      and\n      dup2\n      mstore\n      pop\n      pop\n      swap1\n      pop\n        /* \"contracts/Utils.sol\":896:1018  function ReadUser(address _address) public view returns (User memory) {... */\n      swap2\n      swap1\n      pop\n      jump\t// out\n        /* \"contracts/Utils.sol\":2074:2196  function ReadDrug(string memory _regno) public view returns (Drug memory) {... */\n    tag_41:\n        /* \"contracts/Utils.sol\":2135:2146  Drug memory */\n      tag_239\n      tag_240\n      jump\t// in\n    tag_239:\n        /* \"contracts/Utils.sol\":2165:2181  DrugRegNoMapping */\n      0x02\n        /* \"contracts/Utils.sol\":2182:2188  _regno */\n      dup3\n        /* \"contracts/Utils.sol\":2165:2189  DrugRegNoMapping[_regno] */\n      mload(0x40)\n      tag_242\n      swap2\n      swap1\n      tag_243\n      jump\t// in\n    tag_242:\n      swap1\n      dup2\n      mstore\n      0x20\n      add\n      mload(0x40)\n      dup1\n      swap2\n      sub\n      swap1\n      keccak256\n        /* \"contracts/Utils.sol\":2158:2189  return DrugRegNoMapping[_regno] */\n      mload(0x40)\n      dup1\n      0x60\n      add\n      0x40\n      mstore\n      swap1\n      dup2\n      0x00\n      dup3\n      add\n      dup1\n      sload\n      tag_244\n      swap1\n      tag_75\n      jump\t// in\n    tag_244:\n      dup1\n      0x1f\n      add\n      0x20\n      dup1\n      swap2\n      div\n      mul\n      0x20\n      add\n      mload(0x40)\n      swap1\n      dup2\n      add\n      0x40\n      mstore\n      dup1\n      swap3\n      swap2\n      swap1\n      dup2\n      dup2\n      mstore\n      0x20\n      add\n      dup3\n      dup1\n      sload\n      tag_245\n      swap1\n      tag_75\n      jump\t// in\n    tag_245:\n      dup1\n      iszero\n      tag_246\n      jumpi\n      dup1\n      0x1f\n      lt\n      tag_247\n      jumpi\n      0x0100\n      dup1\n      dup4\n      sload\n      div\n      mul\n      dup4\n      mstore\n      swap2\n      0x20\n      add\n      swap2\n      jump(tag_246)\n    tag_247:\n      dup3\n      add\n      swap2\n      swap1\n      0x00\n      mstore\n      keccak256(0x00, 0x20)\n      swap1\n    tag_248:\n      dup2\n      sload\n      dup2\n      mstore\n      swap1\n      0x01\n      add\n      swap1\n      0x20\n      add\n      dup1\n      dup4\n      gt\n      tag_248\n      jumpi\n      dup3\n      swap1\n      sub\n      0x1f\n      and\n      dup3\n      add\n      swap2\n    tag_246:\n      pop\n      pop\n      pop\n      pop\n      pop\n      dup2\n      mstore\n      0x20\n      add\n      0x01\n      dup3\n      add\n      0x00\n      swap1\n      sload\n      swap1\n      0x0100\n      exp\n      swap1\n      div\n      0xffffffffffffffffffffffffffffffffffffffff\n      and\n      0xffffffffffffffffffffffffffffffffffffffff\n      and\n      0xffffffffffffffffffffffffffffffffffffffff\n      and\n      dup2\n      mstore\n      0x20\n      add\n      0x01\n      dup3\n      add\n      0x14\n      swap1\n      sload\n      swap1\n      0x0100\n      exp\n      swap1\n      div\n      0xff\n      and\n      0x02\n      dup2\n      gt\n      iszero\n      tag_249\n      jumpi\n      tag_250\n      tag_63\n      jump\t// in\n    tag_250:\n    tag_249:\n      0x02\n      dup2\n      gt\n      iszero\n      tag_251\n      jumpi\n      tag_252\n      tag_63\n      jump\t// in\n    tag_252:\n    tag_251:\n      dup2\n      mstore\n      pop\n      pop\n      swap1\n      pop\n        /* \"contracts/Utils.sol\":2074:2196  function ReadDrug(string memory _regno) public view returns (Drug memory) {... */\n      swap2\n      swap1\n      pop\n      jump\t// out\n        /* \"contracts/Utils.sol\":203:427  function compareStringsbyBytes(string memory s1, string memory s2)... */\n    tag_47:\n        /* \"contracts/Utils.sol\":315:319  bool */\n      0x00\n        /* \"contracts/Utils.sol\":416:418  s2 */\n      dup2\n        /* \"contracts/Utils.sol\":399:419  abi.encodePacked(s2) */\n      add(0x20, mload(0x40))\n      tag_254\n      swap2\n      swap1\n      tag_243\n      jump\t// in\n    tag_254:\n      mload(0x40)\n      0x20\n      dup2\n      dup4\n      sub\n      sub\n      dup2\n      mstore\n      swap1\n      0x40\n      mstore\n        /* \"contracts/Utils.sol\":389:420  keccak256(abi.encodePacked(s2)) */\n      dup1\n      mload\n      swap1\n      0x20\n      add\n      keccak256\n        /* \"contracts/Utils.sol\":381:383  s1 */\n      dup4\n        /* \"contracts/Utils.sol\":364:384  abi.encodePacked(s1) */\n      add(0x20, mload(0x40))\n      tag_255\n      swap2\n      swap1\n      tag_243\n      jump\t// in\n    tag_255:\n      mload(0x40)\n      0x20\n      dup2\n      dup4\n      sub\n      sub\n      dup2\n      mstore\n      swap1\n      0x40\n      mstore\n        /* \"contracts/Utils.sol\":354:385  keccak256(abi.encodePacked(s1)) */\n      dup1\n      mload\n      swap1\n      0x20\n      add\n      keccak256\n        /* \"contracts/Utils.sol\":354:420  keccak256(abi.encodePacked(s1)) == keccak256(abi.encodePacked(s2)) */\n      eq\n        /* \"contracts/Utils.sol\":335:420  return... */\n      swap1\n      pop\n        /* \"contracts/Utils.sol\":203:427  function compareStringsbyBytes(string memory s1, string memory s2)... */\n      swap3\n      swap2\n      pop\n      pop\n      jump\t// out\n    tag_57:\n      mload(0x40)\n      dup1\n      0xe0\n      add\n      0x40\n      mstore\n      dup1\n      0x60\n      dup2\n      mstore\n      0x20\n      add\n      0x60\n      dup2\n      mstore\n      0x20\n      add\n      0x00\n      0x06\n      dup2\n      gt\n      iszero\n      tag_256\n      jumpi\n      tag_257\n      tag_63\n      jump\t// in\n    tag_257:\n    tag_256:\n      dup2\n      mstore\n      0x20\n      add\n      0x00\n      0x02\n      dup2\n      gt\n      iszero\n      tag_258\n      jumpi\n      tag_259\n      tag_63\n      jump\t// in\n    tag_259:\n    tag_258:\n      dup2\n      mstore\n      0x20\n      add\n      0x00\n      dup2\n      mstore\n      0x20\n      add\n      0x00\n      dup2\n      mstore\n      0x20\n      add\n      and(0xffffffffffffffffffffffffffffffffffffffff, 0x00)\n      dup2\n      mstore\n      pop\n      swap1\n      jump\t// out\n    tag_130:\n      mload(0x40)\n      dup1\n      0xc0\n      add\n      0x40\n      mstore\n      dup1\n      0x60\n      dup2\n      mstore\n      0x20\n      add\n      0x60\n      dup2\n      mstore\n      0x20\n      add\n      0x00\n      dup2\n      mstore\n      0x20\n      add\n      and(0xffffffffffffffffffffffffffffffffffffffff, 0x00)\n      dup2\n      mstore\n      0x20\n      add\n      and(0xffffffffffffffffffffffffffffffffffffffff, 0x00)\n      dup2\n      mstore\n      0x20\n      add\n      0x00\n      dup2\n      mstore\n      pop\n      swap1\n      jump\t// out\n    tag_240:\n      mload(0x40)\n      dup1\n      0x60\n      add\n      0x40\n      mstore\n      dup1\n      0x60\n      dup2\n      mstore\n      0x20\n      add\n      and(0xffffffffffffffffffffffffffffffffffffffff, 0x00)\n      dup2\n      mstore\n      0x20\n      add\n      0x00\n      0x02\n      dup2\n      gt\n      iszero\n      tag_260\n      jumpi\n      tag_261\n      tag_63\n      jump\t// in\n    tag_261:\n    tag_260:\n      dup2\n      mstore\n      pop\n      swap1\n      jump\t// out\n        /* \"#utility.yul\":7:419   */\n    tag_263:\n        /* \"#utility.yul\":85:90   */\n      0x00\n        /* \"#utility.yul\":110:176   */\n      tag_265\n        /* \"#utility.yul\":126:175   */\n      tag_266\n        /* \"#utility.yul\":168:174   */\n      dup5\n        /* \"#utility.yul\":126:175   */\n      tag_267\n      jump\t// in\n    tag_266:\n        /* \"#utility.yul\":110:176   */\n      tag_268\n      jump\t// in\n    tag_265:\n        /* \"#utility.yul\":101:176   */\n      swap1\n      pop\n        /* \"#utility.yul\":199:205   */\n      dup3\n        /* \"#utility.yul\":192:197   */\n      dup2\n        /* \"#utility.yul\":185:206   */\n      mstore\n        /* \"#utility.yul\":237:241   */\n      0x20\n        /* \"#utility.yul\":230:235   */\n      dup2\n        /* \"#utility.yul\":226:242   */\n      add\n        /* \"#utility.yul\":275:278   */\n      dup5\n        /* \"#utility.yul\":266:272   */\n      dup5\n        /* \"#utility.yul\":261:264   */\n      dup5\n        /* \"#utility.yul\":257:273   */\n      add\n        /* \"#utility.yul\":254:279   */\n      gt\n        /* \"#utility.yul\":251:363   */\n      iszero\n      tag_269\n      jumpi\n        /* \"#utility.yul\":282:361   */\n      tag_270\n      tag_271\n      jump\t// in\n    tag_270:\n        /* \"#utility.yul\":251:363   */\n    tag_269:\n        /* \"#utility.yul\":372:413   */\n      tag_272\n        /* \"#utility.yul\":406:412   */\n      dup5\n        /* \"#utility.yul\":401:404   */\n      dup3\n        /* \"#utility.yul\":396:399   */\n      dup6\n        /* \"#utility.yul\":372:413   */\n      tag_273\n      jump\t// in\n    tag_272:\n        /* \"#utility.yul\":91:419   */\n      pop\n        /* \"#utility.yul\":7:419   */\n      swap4\n      swap3\n      pop\n      pop\n      pop\n      jump\t// out\n        /* \"#utility.yul\":425:564   */\n    tag_274:\n        /* \"#utility.yul\":471:476   */\n      0x00\n        /* \"#utility.yul\":509:515   */\n      dup2\n        /* \"#utility.yul\":496:516   */\n      calldataload\n        /* \"#utility.yul\":487:516   */\n      swap1\n      pop\n        /* \"#utility.yul\":525:558   */\n      tag_276\n        /* \"#utility.yul\":552:557   */\n      dup2\n        /* \"#utility.yul\":525:558   */\n      tag_277\n      jump\t// in\n    tag_276:\n        /* \"#utility.yul\":425:564   */\n      swap3\n      swap2\n      pop\n      pop\n      jump\t// out\n        /* \"#utility.yul\":570:733   */\n    tag_278:\n        /* \"#utility.yul\":628:633   */\n      0x00\n        /* \"#utility.yul\":666:672   */\n      dup2\n        /* \"#utility.yul\":653:673   */\n      calldataload\n        /* \"#utility.yul\":644:673   */\n      swap1\n      pop\n        /* \"#utility.yul\":682:727   */\n      tag_280\n        /* \"#utility.yul\":721:726   */\n      dup2\n        /* \"#utility.yul\":682:727   */\n      tag_281\n      jump\t// in\n    tag_280:\n        /* \"#utility.yul\":570:733   */\n      swap3\n      swap2\n      pop\n      pop\n      jump\t// out\n        /* \"#utility.yul\":753:1093   */\n    tag_282:\n        /* \"#utility.yul\":809:814   */\n      0x00\n        /* \"#utility.yul\":858:861   */\n      dup3\n        /* \"#utility.yul\":851:855   */\n      0x1f\n        /* \"#utility.yul\":843:849   */\n      dup4\n        /* \"#utility.yul\":839:856   */\n      add\n        /* \"#utility.yul\":835:862   */\n      slt\n        /* \"#utility.yul\":825:947   */\n      tag_284\n      jumpi\n        /* \"#utility.yul\":866:945   */\n      tag_285\n      tag_286\n      jump\t// in\n    tag_285:\n        /* \"#utility.yul\":825:947   */\n    tag_284:\n        /* \"#utility.yul\":983:989   */\n      dup2\n        /* \"#utility.yul\":970:990   */\n      calldataload\n        /* \"#utility.yul\":1008:1087   */\n      tag_287\n        /* \"#utility.yul\":1083:1086   */\n      dup5\n        /* \"#utility.yul\":1075:1081   */\n      dup3\n        /* \"#utility.yul\":1068:1072   */\n      0x20\n        /* \"#utility.yul\":1060:1066   */\n      dup7\n        /* \"#utility.yul\":1056:1073   */\n      add\n        /* \"#utility.yul\":1008:1087   */\n      tag_263\n      jump\t// in\n    tag_287:\n        /* \"#utility.yul\":999:1087   */\n      swap2\n      pop\n        /* \"#utility.yul\":815:1093   */\n      pop\n        /* \"#utility.yul\":753:1093   */\n      swap3\n      swap2\n      pop\n      pop\n      jump\t// out\n        /* \"#utility.yul\":1099:1238   */\n    tag_288:\n        /* \"#utility.yul\":1145:1150   */\n      0x00\n        /* \"#utility.yul\":1183:1189   */\n      dup2\n        /* \"#utility.yul\":1170:1190   */\n      calldataload\n        /* \"#utility.yul\":1161:1190   */\n      swap1\n      pop\n        /* \"#utility.yul\":1199:1232   */\n      tag_290\n        /* \"#utility.yul\":1226:1231   */\n      dup2\n        /* \"#utility.yul\":1199:1232   */\n      tag_291\n      jump\t// in\n    tag_290:\n        /* \"#utility.yul\":1099:1238   */\n      swap3\n      swap2\n      pop\n      pop\n      jump\t// out\n        /* \"#utility.yul\":1244:1573   */\n    tag_31:\n        /* \"#utility.yul\":1303:1309   */\n      0x00\n        /* \"#utility.yul\":1352:1354   */\n      0x20\n        /* \"#utility.yul\":1340:1349   */\n      dup3\n        /* \"#utility.yul\":1331:1338   */\n      dup5\n        /* \"#utility.yul\":1327:1350   */\n      sub\n        /* \"#utility.yul\":1323:1355   */\n      slt\n        /* \"#utility.yul\":1320:1439   */\n      iszero\n      tag_293\n      jumpi\n        /* \"#utility.yul\":1358:1437   */\n      tag_294\n      tag_295\n      jump\t// in\n    tag_294:\n        /* \"#utility.yul\":1320:1439   */\n    tag_293:\n        /* \"#utility.yul\":1478:1479   */\n      0x00\n        /* \"#utility.yul\":1503:1556   */\n      tag_296\n        /* \"#utility.yul\":1548:1555   */\n      dup5\n        /* \"#utility.yul\":1539:1545   */\n      dup3\n        /* \"#utility.yul\":1528:1537   */\n      dup6\n        /* \"#utility.yul\":1524:1546   */\n      add\n        /* \"#utility.yul\":1503:1556   */\n      tag_274\n      jump\t// in\n    tag_296:\n        /* \"#utility.yul\":1493:1556   */\n      swap2\n      pop\n        /* \"#utility.yul\":1449:1566   */\n      pop\n        /* \"#utility.yul\":1244:1573   */\n      swap3\n      swap2\n      pop\n      pop\n      jump\t// out\n        /* \"#utility.yul\":1579:1932   */\n    tag_13:\n        /* \"#utility.yul\":1650:1656   */\n      0x00\n        /* \"#utility.yul\":1699:1701   */\n      0x20\n        /* \"#utility.yul\":1687:1696   */\n      dup3\n        /* \"#utility.yul\":1678:1685   */\n      dup5\n        /* \"#utility.yul\":1674:1697   */\n      sub\n        /* \"#utility.yul\":1670:1702   */\n      slt\n        /* \"#utility.yul\":1667:1786   */\n      iszero\n      tag_298\n      jumpi\n        /* \"#utility.yul\":1705:1784   */\n      tag_299\n      tag_295\n      jump\t// in\n    tag_299:\n        /* \"#utility.yul\":1667:1786   */\n    tag_298:\n        /* \"#utility.yul\":1825:1826   */\n      0x00\n        /* \"#utility.yul\":1850:1915   */\n      tag_300\n        /* \"#utility.yul\":1907:1914   */\n      dup5\n        /* \"#utility.yul\":1898:1904   */\n      dup3\n        /* \"#utility.yul\":1887:1896   */\n      dup6\n        /* \"#utility.yul\":1883:1905   */\n      add\n        /* \"#utility.yul\":1850:1915   */\n      tag_278\n      jump\t// in\n    tag_300:\n        /* \"#utility.yul\":1840:1915   */\n      swap2\n      pop\n        /* \"#utility.yul\":1796:1925   */\n      pop\n        /* \"#utility.yul\":1579:1932   */\n      swap3\n      swap2\n      pop\n      pop\n      jump\t// out\n        /* \"#utility.yul\":1938:2447   */\n    tag_25:\n        /* \"#utility.yul\":2007:2013   */\n      0x00\n        /* \"#utility.yul\":2056:2058   */\n      0x20\n        /* \"#utility.yul\":2044:2053   */\n      dup3\n        /* \"#utility.yul\":2035:2042   */\n      dup5\n        /* \"#utility.yul\":2031:2054   */\n      sub\n        /* \"#utility.yul\":2027:2059   */\n      slt\n        /* \"#utility.yul\":2024:2143   */\n      iszero\n      tag_302\n      jumpi\n        /* \"#utility.yul\":2062:2141   */\n      tag_303\n      tag_295\n      jump\t// in\n    tag_303:\n        /* \"#utility.yul\":2024:2143   */\n    tag_302:\n        /* \"#utility.yul\":2210:2211   */\n      0x00\n        /* \"#utility.yul\":2199:2208   */\n      dup3\n        /* \"#utility.yul\":2195:2212   */\n      add\n        /* \"#utility.yul\":2182:2213   */\n      calldataload\n        /* \"#utility.yul\":2240:2258   */\n      0xffffffffffffffff\n        /* \"#utility.yul\":2232:2238   */\n      dup2\n        /* \"#utility.yul\":2229:2259   */\n      gt\n        /* \"#utility.yul\":2226:2343   */\n      iszero\n      tag_304\n      jumpi\n        /* \"#utility.yul\":2262:2341   */\n      tag_305\n      tag_306\n      jump\t// in\n    tag_305:\n        /* \"#utility.yul\":2226:2343   */\n    tag_304:\n        /* \"#utility.yul\":2367:2430   */\n      tag_307\n        /* \"#utility.yul\":2422:2429   */\n      dup5\n        /* \"#utility.yul\":2413:2419   */\n      dup3\n        /* \"#utility.yul\":2402:2411   */\n      dup6\n        /* \"#utility.yul\":2398:2420   */\n      add\n        /* \"#utility.yul\":2367:2430   */\n      tag_282\n      jump\t// in\n    tag_307:\n        /* \"#utility.yul\":2357:2430   */\n      swap2\n      pop\n        /* \"#utility.yul\":2153:2440   */\n      pop\n        /* \"#utility.yul\":1938:2447   */\n      swap3\n      swap2\n      pop\n      pop\n      jump\t// out\n        /* \"#utility.yul\":2453:3287   */\n    tag_46:\n        /* \"#utility.yul\":2541:2547   */\n      0x00\n        /* \"#utility.yul\":2549:2555   */\n      dup1\n        /* \"#utility.yul\":2598:2600   */\n      0x40\n        /* \"#utility.yul\":2586:2595   */\n      dup4\n        /* \"#utility.yul\":2577:2584   */\n      dup6\n        /* \"#utility.yul\":2573:2596   */\n      sub\n        /* \"#utility.yul\":2569:2601   */\n      slt\n        /* \"#utility.yul\":2566:2685   */\n      iszero\n      tag_309\n      jumpi\n        /* \"#utility.yul\":2604:2683   */\n      tag_310\n      tag_295\n      jump\t// in\n    tag_310:\n        /* \"#utility.yul\":2566:2685   */\n    tag_309:\n        /* \"#utility.yul\":2752:2753   */\n      0x00\n        /* \"#utility.yul\":2741:2750   */\n      dup4\n        /* \"#utility.yul\":2737:2754   */\n      add\n        /* \"#utility.yul\":2724:2755   */\n      calldataload\n        /* \"#utility.yul\":2782:2800   */\n      0xffffffffffffffff\n        /* \"#utility.yul\":2774:2780   */\n      dup2\n        /* \"#utility.yul\":2771:2801   */\n      gt\n        /* \"#utility.yul\":2768:2885   */\n      iszero\n      tag_311\n      jumpi\n        /* \"#utility.yul\":2804:2883   */\n      tag_312\n      tag_306\n      jump\t// in\n    tag_312:\n        /* \"#utility.yul\":2768:2885   */\n    tag_311:\n        /* \"#utility.yul\":2909:2972   */\n      tag_313\n        /* \"#utility.yul\":2964:2971   */\n      dup6\n        /* \"#utility.yul\":2955:2961   */\n      dup3\n        /* \"#utility.yul\":2944:2953   */\n      dup7\n        /* \"#utility.yul\":2940:2962   */\n      add\n        /* \"#utility.yul\":2909:2972   */\n      tag_282\n      jump\t// in\n    tag_313:\n        /* \"#utility.yul\":2899:2972   */\n      swap3\n      pop\n        /* \"#utility.yul\":2695:2982   */\n      pop\n        /* \"#utility.yul\":3049:3051   */\n      0x20\n        /* \"#utility.yul\":3038:3047   */\n      dup4\n        /* \"#utility.yul\":3034:3052   */\n      add\n        /* \"#utility.yul\":3021:3053   */\n      calldataload\n        /* \"#utility.yul\":3080:3098   */\n      0xffffffffffffffff\n        /* \"#utility.yul\":3072:3078   */\n      dup2\n        /* \"#utility.yul\":3069:3099   */\n      gt\n        /* \"#utility.yul\":3066:3183   */\n      iszero\n      tag_314\n      jumpi\n        /* \"#utility.yul\":3102:3181   */\n      tag_315\n      tag_306\n      jump\t// in\n    tag_315:\n        /* \"#utility.yul\":3066:3183   */\n    tag_314:\n        /* \"#utility.yul\":3207:3270   */\n      tag_316\n        /* \"#utility.yul\":3262:3269   */\n      dup6\n        /* \"#utility.yul\":3253:3259   */\n      dup3\n        /* \"#utility.yul\":3242:3251   */\n      dup7\n        /* \"#utility.yul\":3238:3260   */\n      add\n        /* \"#utility.yul\":3207:3270   */\n      tag_282\n      jump\t// in\n    tag_316:\n        /* \"#utility.yul\":3197:3270   */\n      swap2\n      pop\n        /* \"#utility.yul\":2992:3280   */\n      pop\n        /* \"#utility.yul\":2453:3287   */\n      swap3\n      pop\n      swap3\n      swap1\n      pop\n      jump\t// out\n        /* \"#utility.yul\":3293:3622   */\n    tag_19:\n        /* \"#utility.yul\":3352:3358   */\n      0x00\n        /* \"#utility.yul\":3401:3403   */\n      0x20\n        /* \"#utility.yul\":3389:3398   */\n      dup3\n        /* \"#utility.yul\":3380:3387   */\n      dup5\n        /* \"#utility.yul\":3376:3399   */\n      sub\n        /* \"#utility.yul\":3372:3404   */\n      slt\n        /* \"#utility.yul\":3369:3488   */\n      iszero\n      tag_318\n      jumpi\n        /* \"#utility.yul\":3407:3486   */\n      tag_319\n      tag_295\n      jump\t// in\n    tag_319:\n        /* \"#utility.yul\":3369:3488   */\n    tag_318:\n        /* \"#utility.yul\":3527:3528   */\n      0x00\n        /* \"#utility.yul\":3552:3605   */\n      tag_320\n        /* \"#utility.yul\":3597:3604   */\n      dup5\n        /* \"#utility.yul\":3588:3594   */\n      dup3\n        /* \"#utility.yul\":3577:3586   */\n      dup6\n        /* \"#utility.yul\":3573:3595   */\n      add\n        /* \"#utility.yul\":3552:3605   */\n      tag_288\n      jump\t// in\n    tag_320:\n        /* \"#utility.yul\":3542:3605   */\n      swap2\n      pop\n        /* \"#utility.yul\":3498:3615   */\n      pop\n        /* \"#utility.yul\":3293:3622   */\n      swap3\n      swap2\n      pop\n      pop\n      jump\t// out\n        /* \"#utility.yul\":3628:3916   */\n    tag_321:\n        /* \"#utility.yul\":3763:3773   */\n      0x00\n        /* \"#utility.yul\":3798:3910   */\n      tag_323\n        /* \"#utility.yul\":3906:3909   */\n      dup4\n        /* \"#utility.yul\":3898:3904   */\n      dup4\n        /* \"#utility.yul\":3798:3910   */\n      tag_324\n      jump\t// in\n    tag_323:\n        /* \"#utility.yul\":3784:3910   */\n      swap1\n      pop\n        /* \"#utility.yul\":3628:3916   */\n      swap3\n      swap2\n      pop\n      pop\n      jump\t// out\n        /* \"#utility.yul\":3922:4158   */\n    tag_325:\n        /* \"#utility.yul\":4031:4041   */\n      0x00\n        /* \"#utility.yul\":4066:4152   */\n      tag_327\n        /* \"#utility.yul\":4148:4151   */\n      dup4\n        /* \"#utility.yul\":4140:4146   */\n      dup4\n        /* \"#utility.yul\":4066:4152   */\n      tag_328\n      jump\t// in\n    tag_327:\n        /* \"#utility.yul\":4052:4152   */\n      swap1\n      pop\n        /* \"#utility.yul\":3922:4158   */\n      swap3\n      swap2\n      pop\n      pop\n      jump\t// out\n        /* \"#utility.yul\":4164:4272   */\n    tag_329:\n        /* \"#utility.yul\":4241:4265   */\n      tag_331\n        /* \"#utility.yul\":4259:4264   */\n      dup2\n        /* \"#utility.yul\":4241:4265   */\n      tag_332\n      jump\t// in\n    tag_331:\n        /* \"#utility.yul\":4236:4239   */\n      dup3\n        /* \"#utility.yul\":4229:4266   */\n      mstore\n        /* \"#utility.yul\":4164:4272   */\n      pop\n      pop\n      jump\t// out\n        /* \"#utility.yul\":4278:4396   */\n    tag_333:\n        /* \"#utility.yul\":4365:4389   */\n      tag_335\n        /* \"#utility.yul\":4383:4388   */\n      dup2\n        /* \"#utility.yul\":4365:4389   */\n      tag_332\n      jump\t// in\n    tag_335:\n        /* \"#utility.yul\":4360:4363   */\n      dup3\n        /* \"#utility.yul\":4353:4390   */\n      mstore\n        /* \"#utility.yul\":4278:4396   */\n      pop\n      pop\n      jump\t// out\n        /* \"#utility.yul\":4476:5651   */\n    tag_336:\n        /* \"#utility.yul\":4661:4664   */\n      0x00\n        /* \"#utility.yul\":4690:4777   */\n      tag_338\n        /* \"#utility.yul\":4771:4776   */\n      dup3\n        /* \"#utility.yul\":4690:4777   */\n      tag_339\n      jump\t// in\n    tag_338:\n        /* \"#utility.yul\":4793:4912   */\n      tag_340\n        /* \"#utility.yul\":4905:4911   */\n      dup2\n        /* \"#utility.yul\":4900:4903   */\n      dup6\n        /* \"#utility.yul\":4793:4912   */\n      tag_341\n      jump\t// in\n    tag_340:\n        /* \"#utility.yul\":4786:4912   */\n      swap4\n      pop\n        /* \"#utility.yul\":4938:4941   */\n      dup4\n        /* \"#utility.yul\":4983:4987   */\n      0x20\n        /* \"#utility.yul\":4975:4981   */\n      dup3\n        /* \"#utility.yul\":4971:4988   */\n      mul\n        /* \"#utility.yul\":4966:4969   */\n      dup6\n        /* \"#utility.yul\":4962:4989   */\n      add\n        /* \"#utility.yul\":5013:5102   */\n      tag_342\n        /* \"#utility.yul\":5096:5101   */\n      dup6\n        /* \"#utility.yul\":5013:5102   */\n      tag_343\n      jump\t// in\n    tag_342:\n        /* \"#utility.yul\":5125:5132   */\n      dup1\n        /* \"#utility.yul\":5156:5157   */\n      0x00\n        /* \"#utility.yul\":5141:5606   */\n    tag_344:\n        /* \"#utility.yul\":5166:5172   */\n      dup6\n        /* \"#utility.yul\":5163:5164   */\n      dup2\n        /* \"#utility.yul\":5160:5173   */\n      lt\n        /* \"#utility.yul\":5141:5606   */\n      iszero\n      tag_346\n      jumpi\n        /* \"#utility.yul\":5237:5246   */\n      dup5\n        /* \"#utility.yul\":5231:5235   */\n      dup5\n        /* \"#utility.yul\":5227:5247   */\n      sub\n        /* \"#utility.yul\":5222:5225   */\n      dup10\n        /* \"#utility.yul\":5215:5248   */\n      mstore\n        /* \"#utility.yul\":5288:5294   */\n      dup2\n        /* \"#utility.yul\":5282:5295   */\n      mload\n        /* \"#utility.yul\":5316:5446   */\n      tag_347\n        /* \"#utility.yul\":5441:5445   */\n      dup6\n        /* \"#utility.yul\":5426:5439   */\n      dup3\n        /* \"#utility.yul\":5316:5446   */\n      tag_321\n      jump\t// in\n    tag_347:\n        /* \"#utility.yul\":5308:5446   */\n      swap5\n      pop\n        /* \"#utility.yul\":5469:5562   */\n      tag_348\n        /* \"#utility.yul\":5555:5561   */\n      dup4\n        /* \"#utility.yul\":5469:5562   */\n      tag_349\n      jump\t// in\n    tag_348:\n        /* \"#utility.yul\":5459:5562   */\n      swap3\n      pop\n        /* \"#utility.yul\":5591:5595   */\n      0x20\n        /* \"#utility.yul\":5586:5589   */\n      dup11\n        /* \"#utility.yul\":5582:5596   */\n      add\n        /* \"#utility.yul\":5575:5596   */\n      swap10\n      pop\n        /* \"#utility.yul\":5201:5606   */\n      pop\n        /* \"#utility.yul\":5188:5189   */\n      0x01\n        /* \"#utility.yul\":5185:5186   */\n      dup2\n        /* \"#utility.yul\":5181:5190   */\n      add\n        /* \"#utility.yul\":5176:5190   */\n      swap1\n      pop\n        /* \"#utility.yul\":5141:5606   */\n      jump(tag_344)\n    tag_346:\n        /* \"#utility.yul\":5145:5159   */\n      pop\n        /* \"#utility.yul\":5622:5626   */\n      dup3\n        /* \"#utility.yul\":5615:5626   */\n      swap8\n      pop\n        /* \"#utility.yul\":5642:5645   */\n      dup8\n        /* \"#utility.yul\":5635:5645   */\n      swap6\n      pop\n        /* \"#utility.yul\":4666:5651   */\n      pop\n      pop\n      pop\n      pop\n      pop\n        /* \"#utility.yul\":4476:5651   */\n      swap3\n      swap2\n      pop\n      pop\n      jump\t// out\n        /* \"#utility.yul\":5707:6778   */\n    tag_350:\n        /* \"#utility.yul\":5866:5869   */\n      0x00\n        /* \"#utility.yul\":5895:5969   */\n      tag_352\n        /* \"#utility.yul\":5963:5968   */\n      dup3\n        /* \"#utility.yul\":5895:5969   */\n      tag_353\n      jump\t// in\n    tag_352:\n        /* \"#utility.yul\":5985:6091   */\n      tag_354\n        /* \"#utility.yul\":6084:6090   */\n      dup2\n        /* \"#utility.yul\":6079:6082   */\n      dup6\n        /* \"#utility.yul\":5985:6091   */\n      tag_355\n      jump\t// in\n    tag_354:\n        /* \"#utility.yul\":5978:6091   */\n      swap4\n      pop\n        /* \"#utility.yul\":6117:6120   */\n      dup4\n        /* \"#utility.yul\":6162:6166   */\n      0x20\n        /* \"#utility.yul\":6154:6160   */\n      dup3\n        /* \"#utility.yul\":6150:6167   */\n      mul\n        /* \"#utility.yul\":6145:6148   */\n      dup6\n        /* \"#utility.yul\":6141:6168   */\n      add\n        /* \"#utility.yul\":6192:6268   */\n      tag_356\n        /* \"#utility.yul\":6262:6267   */\n      dup6\n        /* \"#utility.yul\":6192:6268   */\n      tag_357\n      jump\t// in\n    tag_356:\n        /* \"#utility.yul\":6291:6298   */\n      dup1\n        /* \"#utility.yul\":6322:6323   */\n      0x00\n        /* \"#utility.yul\":6307:6733   */\n    tag_358:\n        /* \"#utility.yul\":6332:6338   */\n      dup6\n        /* \"#utility.yul\":6329:6330   */\n      dup2\n        /* \"#utility.yul\":6326:6339   */\n      lt\n        /* \"#utility.yul\":6307:6733   */\n      iszero\n      tag_360\n      jumpi\n        /* \"#utility.yul\":6403:6412   */\n      dup5\n        /* \"#utility.yul\":6397:6401   */\n      dup5\n        /* \"#utility.yul\":6393:6413   */\n      sub\n        /* \"#utility.yul\":6388:6391   */\n      dup10\n        /* \"#utility.yul\":6381:6414   */\n      mstore\n        /* \"#utility.yul\":6454:6460   */\n      dup2\n        /* \"#utility.yul\":6448:6461   */\n      mload\n        /* \"#utility.yul\":6482:6586   */\n      tag_361\n        /* \"#utility.yul\":6581:6585   */\n      dup6\n        /* \"#utility.yul\":6566:6579   */\n      dup3\n        /* \"#utility.yul\":6482:6586   */\n      tag_325\n      jump\t// in\n    tag_361:\n        /* \"#utility.yul\":6474:6586   */\n      swap5\n      pop\n        /* \"#utility.yul\":6609:6689   */\n      tag_362\n        /* \"#utility.yul\":6682:6688   */\n      dup4\n        /* \"#utility.yul\":6609:6689   */\n      tag_363\n      jump\t// in\n    tag_362:\n        /* \"#utility.yul\":6599:6689   */\n      swap3\n      pop\n        /* \"#utility.yul\":6718:6722   */\n      0x20\n        /* \"#utility.yul\":6713:6716   */\n      dup11\n        /* \"#utility.yul\":6709:6723   */\n      add\n        /* \"#utility.yul\":6702:6723   */\n      swap10\n      pop\n        /* \"#utility.yul\":6367:6733   */\n      pop\n        /* \"#utility.yul\":6354:6355   */\n      0x01\n        /* \"#utility.yul\":6351:6352   */\n      dup2\n        /* \"#utility.yul\":6347:6356   */\n      add\n        /* \"#utility.yul\":6342:6356   */\n      swap1\n      pop\n        /* \"#utility.yul\":6307:6733   */\n      jump(tag_358)\n    tag_360:\n        /* \"#utility.yul\":6311:6325   */\n      pop\n        /* \"#utility.yul\":6749:6753   */\n      dup3\n        /* \"#utility.yul\":6742:6753   */\n      swap8\n      pop\n        /* \"#utility.yul\":6769:6772   */\n      dup8\n        /* \"#utility.yul\":6762:6772   */\n      swap6\n      pop\n        /* \"#utility.yul\":5871:6778   */\n      pop\n      pop\n      pop\n      pop\n      pop\n        /* \"#utility.yul\":5707:6778   */\n      swap3\n      swap2\n      pop\n      pop\n      jump\t// out\n        /* \"#utility.yul\":6784:6893   */\n    tag_364:\n        /* \"#utility.yul\":6865:6886   */\n      tag_366\n        /* \"#utility.yul\":6880:6885   */\n      dup2\n        /* \"#utility.yul\":6865:6886   */\n      tag_367\n      jump\t// in\n    tag_366:\n        /* \"#utility.yul\":6860:6863   */\n      dup3\n        /* \"#utility.yul\":6853:6887   */\n      mstore\n        /* \"#utility.yul\":6784:6893   */\n      pop\n      pop\n      jump\t// out\n        /* \"#utility.yul\":6899:7036   */\n    tag_368:\n        /* \"#utility.yul\":6984:7029   */\n      tag_370\n        /* \"#utility.yul\":7023:7028   */\n      dup2\n        /* \"#utility.yul\":6984:7029   */\n      tag_371\n      jump\t// in\n    tag_370:\n        /* \"#utility.yul\":6979:6982   */\n      dup3\n        /* \"#utility.yul\":6972:7030   */\n      mstore\n        /* \"#utility.yul\":6899:7036   */\n      pop\n      pop\n      jump\t// out\n        /* \"#utility.yul\":7042:7183   */\n    tag_372:\n        /* \"#utility.yul\":7129:7176   */\n      tag_374\n        /* \"#utility.yul\":7170:7175   */\n      dup2\n        /* \"#utility.yul\":7129:7176   */\n      tag_375\n      jump\t// in\n    tag_374:\n        /* \"#utility.yul\":7124:7127   */\n      dup3\n        /* \"#utility.yul\":7117:7177   */\n      mstore\n        /* \"#utility.yul\":7042:7183   */\n      pop\n      pop\n      jump\t// out\n        /* \"#utility.yul\":7189:7533   */\n    tag_376:\n        /* \"#utility.yul\":7267:7270   */\n      0x00\n        /* \"#utility.yul\":7295:7334   */\n      tag_378\n        /* \"#utility.yul\":7328:7333   */\n      dup3\n        /* \"#utility.yul\":7295:7334   */\n      tag_379\n      jump\t// in\n    tag_378:\n        /* \"#utility.yul\":7350:7411   */\n      tag_380\n        /* \"#utility.yul\":7404:7410   */\n      dup2\n        /* \"#utility.yul\":7399:7402   */\n      dup6\n        /* \"#utility.yul\":7350:7411   */\n      tag_381\n      jump\t// in\n    tag_380:\n        /* \"#utility.yul\":7343:7411   */\n      swap4\n      pop\n        /* \"#utility.yul\":7420:7472   */\n      tag_382\n        /* \"#utility.yul\":7465:7471   */\n      dup2\n        /* \"#utility.yul\":7460:7463   */\n      dup6\n        /* \"#utility.yul\":7453:7457   */\n      0x20\n        /* \"#utility.yul\":7446:7451   */\n      dup7\n        /* \"#utility.yul\":7442:7458   */\n      add\n        /* \"#utility.yul\":7420:7472   */\n      tag_383\n      jump\t// in\n    tag_382:\n        /* \"#utility.yul\":7497:7526   */\n      tag_384\n        /* \"#utility.yul\":7519:7525   */\n      dup2\n        /* \"#utility.yul\":7497:7526   */\n      tag_385\n      jump\t// in\n    tag_384:\n        /* \"#utility.yul\":7492:7495   */\n      dup5\n        /* \"#utility.yul\":7488:7527   */\n      add\n        /* \"#utility.yul\":7481:7527   */\n      swap2\n      pop\n        /* \"#utility.yul\":7271:7533   */\n      pop\n        /* \"#utility.yul\":7189:7533   */\n      swap3\n      swap2\n      pop\n      pop\n      jump\t// out\n        /* \"#utility.yul\":7539:7903   */\n    tag_386:\n        /* \"#utility.yul\":7627:7630   */\n      0x00\n        /* \"#utility.yul\":7655:7694   */\n      tag_388\n        /* \"#utility.yul\":7688:7693   */\n      dup3\n        /* \"#utility.yul\":7655:7694   */\n      tag_379\n      jump\t// in\n    tag_388:\n        /* \"#utility.yul\":7710:7781   */\n      tag_389\n        /* \"#utility.yul\":7774:7780   */\n      dup2\n        /* \"#utility.yul\":7769:7772   */\n      dup6\n        /* \"#utility.yul\":7710:7781   */\n      tag_390\n      jump\t// in\n    tag_389:\n        /* \"#utility.yul\":7703:7781   */\n      swap4\n      pop\n        /* \"#utility.yul\":7790:7842   */\n      tag_391\n        /* \"#utility.yul\":7835:7841   */\n      dup2\n        /* \"#utility.yul\":7830:7833   */\n      dup6\n        /* \"#utility.yul\":7823:7827   */\n      0x20\n        /* \"#utility.yul\":7816:7821   */\n      dup7\n        /* \"#utility.yul\":7812:7828   */\n      add\n        /* \"#utility.yul\":7790:7842   */\n      tag_383\n      jump\t// in\n    tag_391:\n        /* \"#utility.yul\":7867:7896   */\n      tag_392\n        /* \"#utility.yul\":7889:7895   */\n      dup2\n        /* \"#utility.yul\":7867:7896   */\n      tag_385\n      jump\t// in\n    tag_392:\n        /* \"#utility.yul\":7862:7865   */\n      dup5\n        /* \"#utility.yul\":7858:7897   */\n      add\n        /* \"#utility.yul\":7851:7897   */\n      swap2\n      pop\n        /* \"#utility.yul\":7631:7903   */\n      pop\n        /* \"#utility.yul\":7539:7903   */\n      swap3\n      swap2\n      pop\n      pop\n      jump\t// out\n        /* \"#utility.yul\":7909:8286   */\n    tag_393:\n        /* \"#utility.yul\":8015:8018   */\n      0x00\n        /* \"#utility.yul\":8043:8082   */\n      tag_395\n        /* \"#utility.yul\":8076:8081   */\n      dup3\n        /* \"#utility.yul\":8043:8082   */\n      tag_379\n      jump\t// in\n    tag_395:\n        /* \"#utility.yul\":8098:8187   */\n      tag_396\n        /* \"#utility.yul\":8180:8186   */\n      dup2\n        /* \"#utility.yul\":8175:8178   */\n      dup6\n        /* \"#utility.yul\":8098:8187   */\n      tag_397\n      jump\t// in\n    tag_396:\n        /* \"#utility.yul\":8091:8187   */\n      swap4\n      pop\n        /* \"#utility.yul\":8196:8248   */\n      tag_398\n        /* \"#utility.yul\":8241:8247   */\n      dup2\n        /* \"#utility.yul\":8236:8239   */\n      dup6\n        /* \"#utility.yul\":8229:8233   */\n      0x20\n        /* \"#utility.yul\":8222:8227   */\n      dup7\n        /* \"#utility.yul\":8218:8234   */\n      add\n        /* \"#utility.yul\":8196:8248   */\n      tag_383\n      jump\t// in\n    tag_398:\n        /* \"#utility.yul\":8273:8279   */\n      dup1\n        /* \"#utility.yul\":8268:8271   */\n      dup5\n        /* \"#utility.yul\":8264:8280   */\n      add\n        /* \"#utility.yul\":8257:8280   */\n      swap2\n      pop\n        /* \"#utility.yul\":8019:8286   */\n      pop\n        /* \"#utility.yul\":7909:8286   */\n      swap3\n      swap2\n      pop\n      pop\n      jump\t// out\n        /* \"#utility.yul\":8338:9136   */\n    tag_399:\n        /* \"#utility.yul\":8449:8452   */\n      0x00\n        /* \"#utility.yul\":8485:8489   */\n      0x60\n        /* \"#utility.yul\":8480:8483   */\n      dup4\n        /* \"#utility.yul\":8476:8490   */\n      add\n        /* \"#utility.yul\":8576:8580   */\n      0x00\n        /* \"#utility.yul\":8569:8574   */\n      dup4\n        /* \"#utility.yul\":8565:8581   */\n      add\n        /* \"#utility.yul\":8559:8582   */\n      mload\n        /* \"#utility.yul\":8629:8632   */\n      dup5\n        /* \"#utility.yul\":8623:8627   */\n      dup3\n        /* \"#utility.yul\":8619:8633   */\n      sub\n        /* \"#utility.yul\":8612:8616   */\n      0x00\n        /* \"#utility.yul\":8607:8610   */\n      dup7\n        /* \"#utility.yul\":8603:8617   */\n      add\n        /* \"#utility.yul\":8596:8634   */\n      mstore\n        /* \"#utility.yul\":8655:8728   */\n      tag_401\n        /* \"#utility.yul\":8723:8727   */\n      dup3\n        /* \"#utility.yul\":8709:8721   */\n      dup3\n        /* \"#utility.yul\":8655:8728   */\n      tag_376\n      jump\t// in\n    tag_401:\n        /* \"#utility.yul\":8647:8728   */\n      swap2\n      pop\n        /* \"#utility.yul\":8500:8739   */\n      pop\n        /* \"#utility.yul\":8829:8833   */\n      0x20\n        /* \"#utility.yul\":8822:8827   */\n      dup4\n        /* \"#utility.yul\":8818:8834   */\n      add\n        /* \"#utility.yul\":8812:8835   */\n      mload\n        /* \"#utility.yul\":8848:8911   */\n      tag_402\n        /* \"#utility.yul\":8905:8909   */\n      0x20\n        /* \"#utility.yul\":8900:8903   */\n      dup7\n        /* \"#utility.yul\":8896:8910   */\n      add\n        /* \"#utility.yul\":8882:8894   */\n      dup3\n        /* \"#utility.yul\":8848:8911   */\n      tag_329\n      jump\t// in\n    tag_402:\n        /* \"#utility.yul\":8749:8921   */\n      pop\n        /* \"#utility.yul\":9009:9013   */\n      0x40\n        /* \"#utility.yul\":9002:9007   */\n      dup4\n        /* \"#utility.yul\":8998:9014   */\n      add\n        /* \"#utility.yul\":8992:9015   */\n      mload\n        /* \"#utility.yul\":9028:9099   */\n      tag_403\n        /* \"#utility.yul\":9093:9097   */\n      0x40\n        /* \"#utility.yul\":9088:9091   */\n      dup7\n        /* \"#utility.yul\":9084:9098   */\n      add\n        /* \"#utility.yul\":9070:9082   */\n      dup3\n        /* \"#utility.yul\":9028:9099   */\n      tag_368\n      jump\t// in\n    tag_403:\n        /* \"#utility.yul\":8931:9109   */\n      pop\n        /* \"#utility.yul\":9126:9130   */\n      dup1\n        /* \"#utility.yul\":9119:9130   */\n      swap2\n      pop\n        /* \"#utility.yul\":8454:9136   */\n      pop\n        /* \"#utility.yul\":8338:9136   */\n      swap3\n      swap2\n      pop\n      pop\n      jump\t// out\n        /* \"#utility.yul\":9212:10605   */\n    tag_324:\n        /* \"#utility.yul\":9337:9340   */\n      0x00\n        /* \"#utility.yul\":9373:9377   */\n      0xc0\n        /* \"#utility.yul\":9368:9371   */\n      dup4\n        /* \"#utility.yul\":9364:9378   */\n      add\n        /* \"#utility.yul\":9465:9469   */\n      0x00\n        /* \"#utility.yul\":9458:9463   */\n      dup4\n        /* \"#utility.yul\":9454:9470   */\n      add\n        /* \"#utility.yul\":9448:9471   */\n      mload\n        /* \"#utility.yul\":9518:9521   */\n      dup5\n        /* \"#utility.yul\":9512:9516   */\n      dup3\n        /* \"#utility.yul\":9508:9522   */\n      sub\n        /* \"#utility.yul\":9501:9505   */\n      0x00\n        /* \"#utility.yul\":9496:9499   */\n      dup7\n        /* \"#utility.yul\":9492:9506   */\n      add\n        /* \"#utility.yul\":9485:9523   */\n      mstore\n        /* \"#utility.yul\":9544:9617   */\n      tag_405\n        /* \"#utility.yul\":9612:9616   */\n      dup3\n        /* \"#utility.yul\":9598:9610   */\n      dup3\n        /* \"#utility.yul\":9544:9617   */\n      tag_376\n      jump\t// in\n    tag_405:\n        /* \"#utility.yul\":9536:9617   */\n      swap2\n      pop\n        /* \"#utility.yul\":9388:9628   */\n      pop\n        /* \"#utility.yul\":9713:9717   */\n      0x20\n        /* \"#utility.yul\":9706:9711   */\n      dup4\n        /* \"#utility.yul\":9702:9718   */\n      add\n        /* \"#utility.yul\":9696:9719   */\n      mload\n        /* \"#utility.yul\":9766:9769   */\n      dup5\n        /* \"#utility.yul\":9760:9764   */\n      dup3\n        /* \"#utility.yul\":9756:9770   */\n      sub\n        /* \"#utility.yul\":9749:9753   */\n      0x20\n        /* \"#utility.yul\":9744:9747   */\n      dup7\n        /* \"#utility.yul\":9740:9754   */\n      add\n        /* \"#utility.yul\":9733:9771   */\n      mstore\n        /* \"#utility.yul\":9792:9865   */\n      tag_406\n        /* \"#utility.yul\":9860:9864   */\n      dup3\n        /* \"#utility.yul\":9846:9858   */\n      dup3\n        /* \"#utility.yul\":9792:9865   */\n      tag_376\n      jump\t// in\n    tag_406:\n        /* \"#utility.yul\":9784:9865   */\n      swap2\n      pop\n        /* \"#utility.yul\":9638:9876   */\n      pop\n        /* \"#utility.yul\":9960:9964   */\n      0x40\n        /* \"#utility.yul\":9953:9958   */\n      dup4\n        /* \"#utility.yul\":9949:9965   */\n      add\n        /* \"#utility.yul\":9943:9966   */\n      mload\n        /* \"#utility.yul\":9979:10042   */\n      tag_407\n        /* \"#utility.yul\":10036:10040   */\n      0x40\n        /* \"#utility.yul\":10031:10034   */\n      dup7\n        /* \"#utility.yul\":10027:10041   */\n      add\n        /* \"#utility.yul\":10013:10025   */\n      dup3\n        /* \"#utility.yul\":9979:10042   */\n      tag_408\n      jump\t// in\n    tag_407:\n        /* \"#utility.yul\":9886:10052   */\n      pop\n        /* \"#utility.yul\":10136:10140   */\n      0x60\n        /* \"#utility.yul\":10129:10134   */\n      dup4\n        /* \"#utility.yul\":10125:10141   */\n      add\n        /* \"#utility.yul\":10119:10142   */\n      mload\n        /* \"#utility.yul\":10155:10218   */\n      tag_409\n        /* \"#utility.yul\":10212:10216   */\n      0x60\n        /* \"#utility.yul\":10207:10210   */\n      dup7\n        /* \"#utility.yul\":10203:10217   */\n      add\n        /* \"#utility.yul\":10189:10201   */\n      dup3\n        /* \"#utility.yul\":10155:10218   */\n      tag_329\n      jump\t// in\n    tag_409:\n        /* \"#utility.yul\":10062:10228   */\n      pop\n        /* \"#utility.yul\":10310:10314   */\n      0x80\n        /* \"#utility.yul\":10303:10308   */\n      dup4\n        /* \"#utility.yul\":10299:10315   */\n      add\n        /* \"#utility.yul\":10293:10316   */\n      mload\n        /* \"#utility.yul\":10329:10392   */\n      tag_410\n        /* \"#utility.yul\":10386:10390   */\n      0x80\n        /* \"#utility.yul\":10381:10384   */\n      dup7\n        /* \"#utility.yul\":10377:10391   */\n      add\n        /* \"#utility.yul\":10363:10375   */\n      dup3\n        /* \"#utility.yul\":10329:10392   */\n      tag_329\n      jump\t// in\n    tag_410:\n        /* \"#utility.yul\":10238:10402   */\n      pop\n        /* \"#utility.yul\":10486:10490   */\n      0xa0\n        /* \"#utility.yul\":10479:10484   */\n      dup4\n        /* \"#utility.yul\":10475:10491   */\n      add\n        /* \"#utility.yul\":10469:10492   */\n      mload\n        /* \"#utility.yul\":10505:10568   */\n      tag_411\n        /* \"#utility.yul\":10562:10566   */\n      0xa0\n        /* \"#utility.yul\":10557:10560   */\n      dup7\n        /* \"#utility.yul\":10553:10567   */\n      add\n        /* \"#utility.yul\":10539:10551   */\n      dup3\n        /* \"#utility.yul\":10505:10568   */\n      tag_408\n      jump\t// in\n    tag_411:\n        /* \"#utility.yul\":10412:10578   */\n      pop\n        /* \"#utility.yul\":10595:10599   */\n      dup1\n        /* \"#utility.yul\":10588:10599   */\n      swap2\n      pop\n        /* \"#utility.yul\":9342:10605   */\n      pop\n        /* \"#utility.yul\":9212:10605   */\n      swap3\n      swap2\n      pop\n      pop\n      jump\t// out\n        /* \"#utility.yul\":10657:12234   */\n    tag_328:\n        /* \"#utility.yul\":10756:10759   */\n      0x00\n        /* \"#utility.yul\":10792:10796   */\n      0xe0\n        /* \"#utility.yul\":10787:10790   */\n      dup4\n        /* \"#utility.yul\":10783:10797   */\n      add\n        /* \"#utility.yul\":10881:10885   */\n      0x00\n        /* \"#utility.yul\":10874:10879   */\n      dup4\n        /* \"#utility.yul\":10870:10886   */\n      add\n        /* \"#utility.yul\":10864:10887   */\n      mload\n        /* \"#utility.yul\":10934:10937   */\n      dup5\n        /* \"#utility.yul\":10928:10932   */\n      dup3\n        /* \"#utility.yul\":10924:10938   */\n      sub\n        /* \"#utility.yul\":10917:10921   */\n      0x00\n        /* \"#utility.yul\":10912:10915   */\n      dup7\n        /* \"#utility.yul\":10908:10922   */\n      add\n        /* \"#utility.yul\":10901:10939   */\n      mstore\n        /* \"#utility.yul\":10960:11033   */\n      tag_413\n        /* \"#utility.yul\":11028:11032   */\n      dup3\n        /* \"#utility.yul\":11014:11026   */\n      dup3\n        /* \"#utility.yul\":10960:11033   */\n      tag_376\n      jump\t// in\n    tag_413:\n        /* \"#utility.yul\":10952:11033   */\n      swap2\n      pop\n        /* \"#utility.yul\":10807:11044   */\n      pop\n        /* \"#utility.yul\":11130:11134   */\n      0x20\n        /* \"#utility.yul\":11123:11128   */\n      dup4\n        /* \"#utility.yul\":11119:11135   */\n      add\n        /* \"#utility.yul\":11113:11136   */\n      mload\n        /* \"#utility.yul\":11183:11186   */\n      dup5\n        /* \"#utility.yul\":11177:11181   */\n      dup3\n        /* \"#utility.yul\":11173:11187   */\n      sub\n        /* \"#utility.yul\":11166:11170   */\n      0x20\n        /* \"#utility.yul\":11161:11164   */\n      dup7\n        /* \"#utility.yul\":11157:11171   */\n      add\n        /* \"#utility.yul\":11150:11188   */\n      mstore\n        /* \"#utility.yul\":11209:11282   */\n      tag_414\n        /* \"#utility.yul\":11277:11281   */\n      dup3\n        /* \"#utility.yul\":11263:11275   */\n      dup3\n        /* \"#utility.yul\":11209:11282   */\n      tag_376\n      jump\t// in\n    tag_414:\n        /* \"#utility.yul\":11201:11282   */\n      swap2\n      pop\n        /* \"#utility.yul\":11054:11293   */\n      pop\n        /* \"#utility.yul\":11379:11383   */\n      0x40\n        /* \"#utility.yul\":11372:11377   */\n      dup4\n        /* \"#utility.yul\":11368:11384   */\n      add\n        /* \"#utility.yul\":11362:11385   */\n      mload\n        /* \"#utility.yul\":11398:11471   */\n      tag_415\n        /* \"#utility.yul\":11465:11469   */\n      0x40\n        /* \"#utility.yul\":11460:11463   */\n      dup7\n        /* \"#utility.yul\":11456:11470   */\n      add\n        /* \"#utility.yul\":11442:11454   */\n      dup3\n        /* \"#utility.yul\":11398:11471   */\n      tag_372\n      jump\t// in\n    tag_415:\n        /* \"#utility.yul\":11303:11481   */\n      pop\n        /* \"#utility.yul\":11569:11573   */\n      0x60\n        /* \"#utility.yul\":11562:11567   */\n      dup4\n        /* \"#utility.yul\":11558:11574   */\n      add\n        /* \"#utility.yul\":11552:11575   */\n      mload\n        /* \"#utility.yul\":11588:11659   */\n      tag_416\n        /* \"#utility.yul\":11653:11657   */\n      0x60\n        /* \"#utility.yul\":11648:11651   */\n      dup7\n        /* \"#utility.yul\":11644:11658   */\n      add\n        /* \"#utility.yul\":11630:11642   */\n      dup3\n        /* \"#utility.yul\":11588:11659   */\n      tag_368\n      jump\t// in\n    tag_416:\n        /* \"#utility.yul\":11491:11669   */\n      pop\n        /* \"#utility.yul\":11755:11759   */\n      0x80\n        /* \"#utility.yul\":11748:11753   */\n      dup4\n        /* \"#utility.yul\":11744:11760   */\n      add\n        /* \"#utility.yul\":11738:11761   */\n      mload\n        /* \"#utility.yul\":11774:11837   */\n      tag_417\n        /* \"#utility.yul\":11831:11835   */\n      0x80\n        /* \"#utility.yul\":11826:11829   */\n      dup7\n        /* \"#utility.yul\":11822:11836   */\n      add\n        /* \"#utility.yul\":11808:11820   */\n      dup3\n        /* \"#utility.yul\":11774:11837   */\n      tag_408\n      jump\t// in\n    tag_417:\n        /* \"#utility.yul\":11679:11847   */\n      pop\n        /* \"#utility.yul\":11934:11938   */\n      0xa0\n        /* \"#utility.yul\":11927:11932   */\n      dup4\n        /* \"#utility.yul\":11923:11939   */\n      add\n        /* \"#utility.yul\":11917:11940   */\n      mload\n        /* \"#utility.yul\":11953:12016   */\n      tag_418\n        /* \"#utility.yul\":12010:12014   */\n      0xa0\n        /* \"#utility.yul\":12005:12008   */\n      dup7\n        /* \"#utility.yul\":12001:12015   */\n      add\n        /* \"#utility.yul\":11987:11999   */\n      dup3\n        /* \"#utility.yul\":11953:12016   */\n      tag_408\n      jump\t// in\n    tag_418:\n        /* \"#utility.yul\":11857:12026   */\n      pop\n        /* \"#utility.yul\":12115:12119   */\n      0xc0\n        /* \"#utility.yul\":12108:12113   */\n      dup4\n        /* \"#utility.yul\":12104:12120   */\n      add\n        /* \"#utility.yul\":12098:12121   */\n      mload\n        /* \"#utility.yul\":12134:12197   */\n      tag_419\n        /* \"#utility.yul\":12191:12195   */\n      0xc0\n        /* \"#utility.yul\":12186:12189   */\n      dup7\n        /* \"#utility.yul\":12182:12196   */\n      add\n        /* \"#utility.yul\":12168:12180   */\n      dup3\n        /* \"#utility.yul\":12134:12197   */\n      tag_329\n      jump\t// in\n    tag_419:\n        /* \"#utility.yul\":12036:12207   */\n      pop\n        /* \"#utility.yul\":12224:12228   */\n      dup1\n        /* \"#utility.yul\":12217:12228   */\n      swap2\n      pop\n        /* \"#utility.yul\":10761:12234   */\n      pop\n        /* \"#utility.yul\":10657:12234   */\n      swap3\n      swap2\n      pop\n      pop\n      jump\t// out\n        /* \"#utility.yul\":12286:13873   */\n    tag_420:\n        /* \"#utility.yul\":12395:12398   */\n      0x00\n        /* \"#utility.yul\":12431:12435   */\n      0xe0\n        /* \"#utility.yul\":12426:12429   */\n      dup4\n        /* \"#utility.yul\":12422:12436   */\n      add\n        /* \"#utility.yul\":12520:12524   */\n      0x00\n        /* \"#utility.yul\":12513:12518   */\n      dup4\n        /* \"#utility.yul\":12509:12525   */\n      add\n        /* \"#utility.yul\":12503:12526   */\n      mload\n        /* \"#utility.yul\":12573:12576   */\n      dup5\n        /* \"#utility.yul\":12567:12571   */\n      dup3\n        /* \"#utility.yul\":12563:12577   */\n      sub\n        /* \"#utility.yul\":12556:12560   */\n      0x00\n        /* \"#utility.yul\":12551:12554   */\n      dup7\n        /* \"#utility.yul\":12547:12561   */\n      add\n        /* \"#utility.yul\":12540:12578   */\n      mstore\n        /* \"#utility.yul\":12599:12672   */\n      tag_422\n        /* \"#utility.yul\":12667:12671   */\n      dup3\n        /* \"#utility.yul\":12653:12665   */\n      dup3\n        /* \"#utility.yul\":12599:12672   */\n      tag_376\n      jump\t// in\n    tag_422:\n        /* \"#utility.yul\":12591:12672   */\n      swap2\n      pop\n        /* \"#utility.yul\":12446:12683   */\n      pop\n        /* \"#utility.yul\":12769:12773   */\n      0x20\n        /* \"#utility.yul\":12762:12767   */\n      dup4\n        /* \"#utility.yul\":12758:12774   */\n      add\n        /* \"#utility.yul\":12752:12775   */\n      mload\n        /* \"#utility.yul\":12822:12825   */\n      dup5\n        /* \"#utility.yul\":12816:12820   */\n      dup3\n        /* \"#utility.yul\":12812:12826   */\n      sub\n        /* \"#utility.yul\":12805:12809   */\n      0x20\n        /* \"#utility.yul\":12800:12803   */\n      dup7\n        /* \"#utility.yul\":12796:12810   */\n      add\n        /* \"#utility.yul\":12789:12827   */\n      mstore\n        /* \"#utility.yul\":12848:12921   */\n      tag_423\n        /* \"#utility.yul\":12916:12920   */\n      dup3\n        /* \"#utility.yul\":12902:12914   */\n      dup3\n        /* \"#utility.yul\":12848:12921   */\n      tag_376\n      jump\t// in\n    tag_423:\n        /* \"#utility.yul\":12840:12921   */\n      swap2\n      pop\n        /* \"#utility.yul\":12693:12932   */\n      pop\n        /* \"#utility.yul\":13018:13022   */\n      0x40\n        /* \"#utility.yul\":13011:13016   */\n      dup4\n        /* \"#utility.yul\":13007:13023   */\n      add\n        /* \"#utility.yul\":13001:13024   */\n      mload\n        /* \"#utility.yul\":13037:13110   */\n      tag_424\n        /* \"#utility.yul\":13104:13108   */\n      0x40\n        /* \"#utility.yul\":13099:13102   */\n      dup7\n        /* \"#utility.yul\":13095:13109   */\n      add\n        /* \"#utility.yul\":13081:13093   */\n      dup3\n        /* \"#utility.yul\":13037:13110   */\n      tag_372\n      jump\t// in\n    tag_424:\n        /* \"#utility.yul\":12942:13120   */\n      pop\n        /* \"#utility.yul\":13208:13212   */\n      0x60\n        /* \"#utility.yul\":13201:13206   */\n      dup4\n        /* \"#utility.yul\":13197:13213   */\n      add\n        /* \"#utility.yul\":13191:13214   */\n      mload\n        /* \"#utility.yul\":13227:13298   */\n      tag_425\n        /* \"#utility.yul\":13292:13296   */\n      0x60\n        /* \"#utility.yul\":13287:13290   */\n      dup7\n        /* \"#utility.yul\":13283:13297   */\n      add\n        /* \"#utility.yul\":13269:13281   */\n      dup3\n        /* \"#utility.yul\":13227:13298   */\n      tag_368\n      jump\t// in\n    tag_425:\n        /* \"#utility.yul\":13130:13308   */\n      pop\n        /* \"#utility.yul\":13394:13398   */\n      0x80\n        /* \"#utility.yul\":13387:13392   */\n      dup4\n        /* \"#utility.yul\":13383:13399   */\n      add\n        /* \"#utility.yul\":13377:13400   */\n      mload\n        /* \"#utility.yul\":13413:13476   */\n      tag_426\n        /* \"#utility.yul\":13470:13474   */\n      0x80\n        /* \"#utility.yul\":13465:13468   */\n      dup7\n        /* \"#utility.yul\":13461:13475   */\n      add\n        /* \"#utility.yul\":13447:13459   */\n      dup3\n        /* \"#utility.yul\":13413:13476   */\n      tag_408\n      jump\t// in\n    tag_426:\n        /* \"#utility.yul\":13318:13486   */\n      pop\n        /* \"#utility.yul\":13573:13577   */\n      0xa0\n        /* \"#utility.yul\":13566:13571   */\n      dup4\n        /* \"#utility.yul\":13562:13578   */\n      add\n        /* \"#utility.yul\":13556:13579   */\n      mload\n        /* \"#utility.yul\":13592:13655   */\n      tag_427\n        /* \"#utility.yul\":13649:13653   */\n      0xa0\n        /* \"#utility.yul\":13644:13647   */\n      dup7\n        /* \"#utility.yul\":13640:13654   */\n      add\n        /* \"#utility.yul\":13626:13638   */\n      dup3\n        /* \"#utility.yul\":13592:13655   */\n      tag_408\n      jump\t// in\n    tag_427:\n        /* \"#utility.yul\":13496:13665   */\n      pop\n        /* \"#utility.yul\":13754:13758   */\n      0xc0\n        /* \"#utility.yul\":13747:13752   */\n      dup4\n        /* \"#utility.yul\":13743:13759   */\n      add\n        /* \"#utility.yul\":13737:13760   */\n      mload\n        /* \"#utility.yul\":13773:13836   */\n      tag_428\n        /* \"#utility.yul\":13830:13834   */\n      0xc0\n        /* \"#utility.yul\":13825:13828   */\n      dup7\n        /* \"#utility.yul\":13821:13835   */\n      add\n        /* \"#utility.yul\":13807:13819   */\n      dup3\n        /* \"#utility.yul\":13773:13836   */\n      tag_329\n      jump\t// in\n    tag_428:\n        /* \"#utility.yul\":13675:13846   */\n      pop\n        /* \"#utility.yul\":13863:13867   */\n      dup1\n        /* \"#utility.yul\":13856:13867   */\n      swap2\n      pop\n        /* \"#utility.yul\":12400:13873   */\n      pop\n        /* \"#utility.yul\":12286:13873   */\n      swap3\n      swap2\n      pop\n      pop\n      jump\t// out\n        /* \"#utility.yul\":13879:13987   */\n    tag_408:\n        /* \"#utility.yul\":13956:13980   */\n      tag_430\n        /* \"#utility.yul\":13974:13979   */\n      dup2\n        /* \"#utility.yul\":13956:13980   */\n      tag_431\n      jump\t// in\n    tag_430:\n        /* \"#utility.yul\":13951:13954   */\n      dup3\n        /* \"#utility.yul\":13944:13981   */\n      mstore\n        /* \"#utility.yul\":13879:13987   */\n      pop\n      pop\n      jump\t// out\n        /* \"#utility.yul\":13993:14111   */\n    tag_432:\n        /* \"#utility.yul\":14080:14104   */\n      tag_434\n        /* \"#utility.yul\":14098:14103   */\n      dup2\n        /* \"#utility.yul\":14080:14104   */\n      tag_431\n      jump\t// in\n    tag_434:\n        /* \"#utility.yul\":14075:14078   */\n      dup3\n        /* \"#utility.yul\":14068:14105   */\n      mstore\n        /* \"#utility.yul\":13993:14111   */\n      pop\n      pop\n      jump\t// out\n        /* \"#utility.yul\":14117:14392   */\n    tag_243:\n        /* \"#utility.yul\":14249:14252   */\n      0x00\n        /* \"#utility.yul\":14271:14366   */\n      tag_436\n        /* \"#utility.yul\":14362:14365   */\n      dup3\n        /* \"#utility.yul\":14353:14359   */\n      dup5\n        /* \"#utility.yul\":14271:14366   */\n      tag_393\n      jump\t// in\n    tag_436:\n        /* \"#utility.yul\":14264:14366   */\n      swap2\n      pop\n        /* \"#utility.yul\":14383:14386   */\n      dup2\n        /* \"#utility.yul\":14376:14386   */\n      swap1\n      pop\n        /* \"#utility.yul\":14117:14392   */\n      swap3\n      swap2\n      pop\n      pop\n      jump\t// out\n        /* \"#utility.yul\":14398:14903   */\n    tag_28:\n        /* \"#utility.yul\":14607:14611   */\n      0x00\n        /* \"#utility.yul\":14645:14647   */\n      0x20\n        /* \"#utility.yul\":14634:14643   */\n      dup3\n        /* \"#utility.yul\":14630:14648   */\n      add\n        /* \"#utility.yul\":14622:14648   */\n      swap1\n      pop\n        /* \"#utility.yul\":14694:14703   */\n      dup2\n        /* \"#utility.yul\":14688:14692   */\n      dup2\n        /* \"#utility.yul\":14684:14704   */\n      sub\n        /* \"#utility.yul\":14680:14681   */\n      0x00\n        /* \"#utility.yul\":14669:14678   */\n      dup4\n        /* \"#utility.yul\":14665:14682   */\n      add\n        /* \"#utility.yul\":14658:14705   */\n      mstore\n        /* \"#utility.yul\":14722:14896   */\n      tag_438\n        /* \"#utility.yul\":14891:14895   */\n      dup2\n        /* \"#utility.yul\":14882:14888   */\n      dup5\n        /* \"#utility.yul\":14722:14896   */\n      tag_336\n      jump\t// in\n    tag_438:\n        /* \"#utility.yul\":14714:14896   */\n      swap1\n      pop\n        /* \"#utility.yul\":14398:14903   */\n      swap3\n      swap2\n      pop\n      pop\n      jump\t// out\n        /* \"#utility.yul\":14909:15362   */\n    tag_16:\n        /* \"#utility.yul\":15092:15096   */\n      0x00\n        /* \"#utility.yul\":15130:15132   */\n      0x20\n        /* \"#utility.yul\":15119:15128   */\n      dup3\n        /* \"#utility.yul\":15115:15133   */\n      add\n        /* \"#utility.yul\":15107:15133   */\n      swap1\n      pop\n        /* \"#utility.yul\":15179:15188   */\n      dup2\n        /* \"#utility.yul\":15173:15177   */\n      dup2\n        /* \"#utility.yul\":15169:15189   */\n      sub\n        /* \"#utility.yul\":15165:15166   */\n      0x00\n        /* \"#utility.yul\":15154:15163   */\n      dup4\n        /* \"#utility.yul\":15150:15167   */\n      add\n        /* \"#utility.yul\":15143:15190   */\n      mstore\n        /* \"#utility.yul\":15207:15355   */\n      tag_440\n        /* \"#utility.yul\":15350:15354   */\n      dup2\n        /* \"#utility.yul\":15341:15347   */\n      dup5\n        /* \"#utility.yul\":15207:15355   */\n      tag_350\n      jump\t// in\n    tag_440:\n        /* \"#utility.yul\":15199:15355   */\n      swap1\n      pop\n        /* \"#utility.yul\":14909:15362   */\n      swap3\n      swap2\n      pop\n      pop\n      jump\t// out\n        /* \"#utility.yul\":15368:15578   */\n    tag_49:\n        /* \"#utility.yul\":15455:15459   */\n      0x00\n        /* \"#utility.yul\":15493:15495   */\n      0x20\n        /* \"#utility.yul\":15482:15491   */\n      dup3\n        /* \"#utility.yul\":15478:15496   */\n      add\n        /* \"#utility.yul\":15470:15496   */\n      swap1\n      pop\n        /* \"#utility.yul\":15506:15571   */\n      tag_442\n        /* \"#utility.yul\":15568:15569   */\n      0x00\n        /* \"#utility.yul\":15557:15566   */\n      dup4\n        /* \"#utility.yul\":15553:15570   */\n      add\n        /* \"#utility.yul\":15544:15550   */\n      dup5\n        /* \"#utility.yul\":15506:15571   */\n      tag_364\n      jump\t// in\n    tag_442:\n        /* \"#utility.yul\":15368:15578   */\n      swap3\n      swap2\n      pop\n      pop\n      jump\t// out\n        /* \"#utility.yul\":15584:16541   */\n    tag_22:\n        /* \"#utility.yul\":15857:15861   */\n      0x00\n        /* \"#utility.yul\":15895:15898   */\n      0xc0\n        /* \"#utility.yul\":15884:15893   */\n      dup3\n        /* \"#utility.yul\":15880:15899   */\n      add\n        /* \"#utility.yul\":15872:15899   */\n      swap1\n      pop\n        /* \"#utility.yul\":15945:15954   */\n      dup2\n        /* \"#utility.yul\":15939:15943   */\n      dup2\n        /* \"#utility.yul\":15935:15955   */\n      sub\n        /* \"#utility.yul\":15931:15932   */\n      0x00\n        /* \"#utility.yul\":15920:15929   */\n      dup4\n        /* \"#utility.yul\":15916:15933   */\n      add\n        /* \"#utility.yul\":15909:15956   */\n      mstore\n        /* \"#utility.yul\":15973:16051   */\n      tag_444\n        /* \"#utility.yul\":16046:16050   */\n      dup2\n        /* \"#utility.yul\":16037:16043   */\n      dup10\n        /* \"#utility.yul\":15973:16051   */\n      tag_386\n      jump\t// in\n    tag_444:\n        /* \"#utility.yul\":15965:16051   */\n      swap1\n      pop\n        /* \"#utility.yul\":16098:16107   */\n      dup2\n        /* \"#utility.yul\":16092:16096   */\n      dup2\n        /* \"#utility.yul\":16088:16108   */\n      sub\n        /* \"#utility.yul\":16083:16085   */\n      0x20\n        /* \"#utility.yul\":16072:16081   */\n      dup4\n        /* \"#utility.yul\":16068:16086   */\n      add\n        /* \"#utility.yul\":16061:16109   */\n      mstore\n        /* \"#utility.yul\":16126:16204   */\n      tag_445\n        /* \"#utility.yul\":16199:16203   */\n      dup2\n        /* \"#utility.yul\":16190:16196   */\n      dup9\n        /* \"#utility.yul\":16126:16204   */\n      tag_386\n      jump\t// in\n    tag_445:\n        /* \"#utility.yul\":16118:16204   */\n      swap1\n      pop\n        /* \"#utility.yul\":16214:16286   */\n      tag_446\n        /* \"#utility.yul\":16282:16284   */\n      0x40\n        /* \"#utility.yul\":16271:16280   */\n      dup4\n        /* \"#utility.yul\":16267:16285   */\n      add\n        /* \"#utility.yul\":16258:16264   */\n      dup8\n        /* \"#utility.yul\":16214:16286   */\n      tag_432\n      jump\t// in\n    tag_446:\n        /* \"#utility.yul\":16296:16368   */\n      tag_447\n        /* \"#utility.yul\":16364:16366   */\n      0x60\n        /* \"#utility.yul\":16353:16362   */\n      dup4\n        /* \"#utility.yul\":16349:16367   */\n      add\n        /* \"#utility.yul\":16340:16346   */\n      dup7\n        /* \"#utility.yul\":16296:16368   */\n      tag_333\n      jump\t// in\n    tag_447:\n        /* \"#utility.yul\":16378:16451   */\n      tag_448\n        /* \"#utility.yul\":16446:16449   */\n      0x80\n        /* \"#utility.yul\":16435:16444   */\n      dup4\n        /* \"#utility.yul\":16431:16450   */\n      add\n        /* \"#utility.yul\":16422:16428   */\n      dup6\n        /* \"#utility.yul\":16378:16451   */\n      tag_333\n      jump\t// in\n    tag_448:\n        /* \"#utility.yul\":16461:16534   */\n      tag_449\n        /* \"#utility.yul\":16529:16532   */\n      0xa0\n        /* \"#utility.yul\":16518:16527   */\n      dup4\n        /* \"#utility.yul\":16514:16533   */\n      add\n        /* \"#utility.yul\":16505:16511   */\n      dup5\n        /* \"#utility.yul\":16461:16534   */\n      tag_432\n      jump\t// in\n    tag_449:\n        /* \"#utility.yul\":15584:16541   */\n      swap8\n      swap7\n      pop\n      pop\n      pop\n      pop\n      pop\n      pop\n      pop\n      jump\t// out\n        /* \"#utility.yul\":16547:16904   */\n    tag_43:\n        /* \"#utility.yul\":16682:16686   */\n      0x00\n        /* \"#utility.yul\":16720:16722   */\n      0x20\n        /* \"#utility.yul\":16709:16718   */\n      dup3\n        /* \"#utility.yul\":16705:16723   */\n      add\n        /* \"#utility.yul\":16697:16723   */\n      swap1\n      pop\n        /* \"#utility.yul\":16769:16778   */\n      dup2\n        /* \"#utility.yul\":16763:16767   */\n      dup2\n        /* \"#utility.yul\":16759:16779   */\n      sub\n        /* \"#utility.yul\":16755:16756   */\n      0x00\n        /* \"#utility.yul\":16744:16753   */\n      dup4\n        /* \"#utility.yul\":16740:16757   */\n      add\n        /* \"#utility.yul\":16733:16780   */\n      mstore\n        /* \"#utility.yul\":16797:16897   */\n      tag_451\n        /* \"#utility.yul\":16892:16896   */\n      dup2\n        /* \"#utility.yul\":16883:16889   */\n      dup5\n        /* \"#utility.yul\":16797:16897   */\n      tag_399\n      jump\t// in\n    tag_451:\n        /* \"#utility.yul\":16789:16897   */\n      swap1\n      pop\n        /* \"#utility.yul\":16547:16904   */\n      swap3\n      swap2\n      pop\n      pop\n      jump\t// out\n        /* \"#utility.yul\":16910:17263   */\n    tag_38:\n        /* \"#utility.yul\":17043:17047   */\n      0x00\n        /* \"#utility.yul\":17081:17083   */\n      0x20\n        /* \"#utility.yul\":17070:17079   */\n      dup3\n        /* \"#utility.yul\":17066:17084   */\n      add\n        /* \"#utility.yul\":17058:17084   */\n      swap1\n      pop\n        /* \"#utility.yul\":17130:17139   */\n      dup2\n        /* \"#utility.yul\":17124:17128   */\n      dup2\n        /* \"#utility.yul\":17120:17140   */\n      sub\n        /* \"#utility.yul\":17116:17117   */\n      0x00\n        /* \"#utility.yul\":17105:17114   */\n      dup4\n        /* \"#utility.yul\":17101:17118   */\n      add\n        /* \"#utility.yul\":17094:17141   */\n      mstore\n        /* \"#utility.yul\":17158:17256   */\n      tag_453\n        /* \"#utility.yul\":17251:17255   */\n      dup2\n        /* \"#utility.yul\":17242:17248   */\n      dup5\n        /* \"#utility.yul\":17158:17256   */\n      tag_420\n      jump\t// in\n    tag_453:\n        /* \"#utility.yul\":17150:17256   */\n      swap1\n      pop\n        /* \"#utility.yul\":16910:17263   */\n      swap3\n      swap2\n      pop\n      pop\n      jump\t// out\n        /* \"#utility.yul\":17269:17398   */\n    tag_268:\n        /* \"#utility.yul\":17303:17309   */\n      0x00\n        /* \"#utility.yul\":17330:17350   */\n      tag_455\n      tag_456\n      jump\t// in\n    tag_455:\n        /* \"#utility.yul\":17320:17350   */\n      swap1\n      pop\n        /* \"#utility.yul\":17359:17392   */\n      tag_457\n        /* \"#utility.yul\":17387:17391   */\n      dup3\n        /* \"#utility.yul\":17379:17385   */\n      dup3\n        /* \"#utility.yul\":17359:17392   */\n      tag_458\n      jump\t// in\n    tag_457:\n        /* \"#utility.yul\":17269:17398   */\n      swap2\n      swap1\n      pop\n      jump\t// out\n        /* \"#utility.yul\":17404:17479   */\n    tag_456:\n        /* \"#utility.yul\":17437:17443   */\n      0x00\n        /* \"#utility.yul\":17470:17472   */\n      0x40\n        /* \"#utility.yul\":17464:17473   */\n      mload\n        /* \"#utility.yul\":17454:17473   */\n      swap1\n      pop\n        /* \"#utility.yul\":17404:17479   */\n      swap1\n      jump\t// out\n        /* \"#utility.yul\":17485:17793   */\n    tag_267:\n        /* \"#utility.yul\":17547:17551   */\n      0x00\n        /* \"#utility.yul\":17637:17655   */\n      0xffffffffffffffff\n        /* \"#utility.yul\":17629:17635   */\n      dup3\n        /* \"#utility.yul\":17626:17656   */\n      gt\n        /* \"#utility.yul\":17623:17679   */\n      iszero\n      tag_461\n      jumpi\n        /* \"#utility.yul\":17659:17677   */\n      tag_462\n      tag_53\n      jump\t// in\n    tag_462:\n        /* \"#utility.yul\":17623:17679   */\n    tag_461:\n        /* \"#utility.yul\":17697:17726   */\n      tag_463\n        /* \"#utility.yul\":17719:17725   */\n      dup3\n        /* \"#utility.yul\":17697:17726   */\n      tag_385\n      jump\t// in\n    tag_463:\n        /* \"#utility.yul\":17689:17726   */\n      swap1\n      pop\n        /* \"#utility.yul\":17781:17785   */\n      0x20\n        /* \"#utility.yul\":17775:17779   */\n      dup2\n        /* \"#utility.yul\":17771:17786   */\n      add\n        /* \"#utility.yul\":17763:17786   */\n      swap1\n      pop\n        /* \"#utility.yul\":17485:17793   */\n      swap2\n      swap1\n      pop\n      jump\t// out\n        /* \"#utility.yul\":17799:17964   */\n    tag_343:\n        /* \"#utility.yul\":17899:17903   */\n      0x00\n        /* \"#utility.yul\":17922:17925   */\n      dup2\n        /* \"#utility.yul\":17914:17925   */\n      swap1\n      pop\n        /* \"#utility.yul\":17952:17956   */\n      0x20\n        /* \"#utility.yul\":17947:17950   */\n      dup3\n        /* \"#utility.yul\":17943:17957   */\n      add\n        /* \"#utility.yul\":17935:17957   */\n      swap1\n      pop\n        /* \"#utility.yul\":17799:17964   */\n      swap2\n      swap1\n      pop\n      jump\t// out\n        /* \"#utility.yul\":17970:18122   */\n    tag_357:\n        /* \"#utility.yul\":18057:18061   */\n      0x00\n        /* \"#utility.yul\":18080:18083   */\n      dup2\n        /* \"#utility.yul\":18072:18083   */\n      swap1\n      pop\n        /* \"#utility.yul\":18110:18114   */\n      0x20\n        /* \"#utility.yul\":18105:18108   */\n      dup3\n        /* \"#utility.yul\":18101:18115   */\n      add\n        /* \"#utility.yul\":18093:18115   */\n      swap1\n      pop\n        /* \"#utility.yul\":17970:18122   */\n      swap2\n      swap1\n      pop\n      jump\t// out\n        /* \"#utility.yul\":18128:18275   */\n    tag_339:\n        /* \"#utility.yul\":18228:18234   */\n      0x00\n        /* \"#utility.yul\":18262:18267   */\n      dup2\n        /* \"#utility.yul\":18256:18268   */\n      mload\n        /* \"#utility.yul\":18246:18268   */\n      swap1\n      pop\n        /* \"#utility.yul\":18128:18275   */\n      swap2\n      swap1\n      pop\n      jump\t// out\n        /* \"#utility.yul\":18281:18415   */\n    tag_353:\n        /* \"#utility.yul\":18368:18374   */\n      0x00\n        /* \"#utility.yul\":18402:18407   */\n      dup2\n        /* \"#utility.yul\":18396:18408   */\n      mload\n        /* \"#utility.yul\":18386:18408   */\n      swap1\n      pop\n        /* \"#utility.yul\":18281:18415   */\n      swap2\n      swap1\n      pop\n      jump\t// out\n        /* \"#utility.yul\":18421:18520   */\n    tag_379:\n        /* \"#utility.yul\":18473:18479   */\n      0x00\n        /* \"#utility.yul\":18507:18512   */\n      dup2\n        /* \"#utility.yul\":18501:18513   */\n      mload\n        /* \"#utility.yul\":18491:18513   */\n      swap1\n      pop\n        /* \"#utility.yul\":18421:18520   */\n      swap2\n      swap1\n      pop\n      jump\t// out\n        /* \"#utility.yul\":18526:18672   */\n    tag_349:\n        /* \"#utility.yul\":18629:18633   */\n      0x00\n        /* \"#utility.yul\":18661:18665   */\n      0x20\n        /* \"#utility.yul\":18656:18659   */\n      dup3\n        /* \"#utility.yul\":18652:18666   */\n      add\n        /* \"#utility.yul\":18644:18666   */\n      swap1\n      pop\n        /* \"#utility.yul\":18526:18672   */\n      swap2\n      swap1\n      pop\n      jump\t// out\n        /* \"#utility.yul\":18678:18811   */\n    tag_363:\n        /* \"#utility.yul\":18768:18772   */\n      0x00\n        /* \"#utility.yul\":18800:18804   */\n      0x20\n        /* \"#utility.yul\":18795:18798   */\n      dup3\n        /* \"#utility.yul\":18791:18805   */\n      add\n        /* \"#utility.yul\":18783:18805   */\n      swap1\n      pop\n        /* \"#utility.yul\":18678:18811   */\n      swap2\n      swap1\n      pop\n      jump\t// out\n        /* \"#utility.yul\":18817:19034   */\n    tag_341:\n        /* \"#utility.yul\":18949:18960   */\n      0x00\n        /* \"#utility.yul\":18983:18989   */\n      dup3\n        /* \"#utility.yul\":18978:18981   */\n      dup3\n        /* \"#utility.yul\":18971:18990   */\n      mstore\n        /* \"#utility.yul\":19023:19027   */\n      0x20\n        /* \"#utility.yul\":19018:19021   */\n      dup3\n        /* \"#utility.yul\":19014:19028   */\n      add\n        /* \"#utility.yul\":18999:19028   */\n      swap1\n      pop\n        /* \"#utility.yul\":18817:19034   */\n      swap3\n      swap2\n      pop\n      pop\n      jump\t// out\n        /* \"#utility.yul\":19040:19244   */\n    tag_355:\n        /* \"#utility.yul\":19159:19170   */\n      0x00\n        /* \"#utility.yul\":19193:19199   */\n      dup3\n        /* \"#utility.yul\":19188:19191   */\n      dup3\n        /* \"#utility.yul\":19181:19200   */\n      mstore\n        /* \"#utility.yul\":19233:19237   */\n      0x20\n        /* \"#utility.yul\":19228:19231   */\n      dup3\n        /* \"#utility.yul\":19224:19238   */\n      add\n        /* \"#utility.yul\":19209:19238   */\n      swap1\n      pop\n        /* \"#utility.yul\":19040:19244   */\n      swap3\n      swap2\n      pop\n      pop\n      jump\t// out\n        /* \"#utility.yul\":19250:19409   */\n    tag_381:\n        /* \"#utility.yul\":19324:19335   */\n      0x00\n        /* \"#utility.yul\":19358:19364   */\n      dup3\n        /* \"#utility.yul\":19353:19356   */\n      dup3\n        /* \"#utility.yul\":19346:19365   */\n      mstore\n        /* \"#utility.yul\":19398:19402   */\n      0x20\n        /* \"#utility.yul\":19393:19396   */\n      dup3\n        /* \"#utility.yul\":19389:19403   */\n      add\n        /* \"#utility.yul\":19374:19403   */\n      swap1\n      pop\n        /* \"#utility.yul\":19250:19409   */\n      swap3\n      swap2\n      pop\n      pop\n      jump\t// out\n        /* \"#utility.yul\":19415:19584   */\n    tag_390:\n        /* \"#utility.yul\":19499:19510   */\n      0x00\n        /* \"#utility.yul\":19533:19539   */\n      dup3\n        /* \"#utility.yul\":19528:19531   */\n      dup3\n        /* \"#utility.yul\":19521:19540   */\n      mstore\n        /* \"#utility.yul\":19573:19577   */\n      0x20\n        /* \"#utility.yul\":19568:19571   */\n      dup3\n        /* \"#utility.yul\":19564:19578   */\n      add\n        /* \"#utility.yul\":19549:19578   */\n      swap1\n      pop\n        /* \"#utility.yul\":19415:19584   */\n      swap3\n      swap2\n      pop\n      pop\n      jump\t// out\n        /* \"#utility.yul\":19590:19738   */\n    tag_397:\n        /* \"#utility.yul\":19692:19703   */\n      0x00\n        /* \"#utility.yul\":19729:19732   */\n      dup2\n        /* \"#utility.yul\":19714:19732   */\n      swap1\n      pop\n        /* \"#utility.yul\":19590:19738   */\n      swap3\n      swap2\n      pop\n      pop\n      jump\t// out\n        /* \"#utility.yul\":19744:20049   */\n    tag_96:\n        /* \"#utility.yul\":19784:19787   */\n      0x00\n        /* \"#utility.yul\":19803:19823   */\n      tag_477\n        /* \"#utility.yul\":19821:19822   */\n      dup3\n        /* \"#utility.yul\":19803:19823   */\n      tag_431\n      jump\t// in\n    tag_477:\n        /* \"#utility.yul\":19798:19823   */\n      swap2\n      pop\n        /* \"#utility.yul\":19837:19857   */\n      tag_478\n        /* \"#utility.yul\":19855:19856   */\n      dup4\n        /* \"#utility.yul\":19837:19857   */\n      tag_431\n      jump\t// in\n    tag_478:\n        /* \"#utility.yul\":19832:19857   */\n      swap3\n      pop\n        /* \"#utility.yul\":19991:19992   */\n      dup3\n        /* \"#utility.yul\":19923:19989   */\n      0xffffffffffffffffffffffffffffffffffffffffffffffffffffffffffffffff\n        /* \"#utility.yul\":19919:19993   */\n      sub\n        /* \"#utility.yul\":19916:19917   */\n      dup3\n        /* \"#utility.yul\":19913:19994   */\n      gt\n        /* \"#utility.yul\":19910:20017   */\n      iszero\n      tag_479\n      jumpi\n        /* \"#utility.yul\":19997:20015   */\n      tag_480\n      tag_481\n      jump\t// in\n    tag_480:\n        /* \"#utility.yul\":19910:20017   */\n    tag_479:\n        /* \"#utility.yul\":20041:20042   */\n      dup3\n        /* \"#utility.yul\":20038:20039   */\n      dup3\n        /* \"#utility.yul\":20034:20043   */\n      add\n        /* \"#utility.yul\":20027:20043   */\n      swap1\n      pop\n        /* \"#utility.yul\":19744:20049   */\n      swap3\n      swap2\n      pop\n      pop\n      jump\t// out\n        /* \"#utility.yul\":20055:20151   */\n    tag_332:\n        /* \"#utility.yul\":20092:20099   */\n      0x00\n        /* \"#utility.yul\":20121:20145   */\n      tag_483\n        /* \"#utility.yul\":20139:20144   */\n      dup3\n        /* \"#utility.yul\":20121:20145   */\n      tag_484\n      jump\t// in\n    tag_483:\n        /* \"#utility.yul\":20110:20145   */\n      swap1\n      pop\n        /* \"#utility.yul\":20055:20151   */\n      swap2\n      swap1\n      pop\n      jump\t// out\n        /* \"#utility.yul\":20157:20247   */\n    tag_367:\n        /* \"#utility.yul\":20191:20198   */\n      0x00\n        /* \"#utility.yul\":20234:20239   */\n      dup2\n        /* \"#utility.yul\":20227:20240   */\n      iszero\n        /* \"#utility.yul\":20220:20241   */\n      iszero\n        /* \"#utility.yul\":20209:20241   */\n      swap1\n      pop\n        /* \"#utility.yul\":20157:20247   */\n      swap2\n      swap1\n      pop\n      jump\t// out\n        /* \"#utility.yul\":20253:20384   */\n    tag_486:\n        /* \"#utility.yul\":20300:20307   */\n      0x00\n        /* \"#utility.yul\":20329:20334   */\n      dup2\n        /* \"#utility.yul\":20318:20334   */\n      swap1\n      pop\n        /* \"#utility.yul\":20335:20378   */\n      tag_488\n        /* \"#utility.yul\":20372:20377   */\n      dup3\n        /* \"#utility.yul\":20335:20378   */\n      tag_489\n      jump\t// in\n    tag_488:\n        /* \"#utility.yul\":20253:20384   */\n      swap2\n      swap1\n      pop\n      jump\t// out\n        /* \"#utility.yul\":20390:20525   */\n    tag_490:\n        /* \"#utility.yul\":20439:20446   */\n      0x00\n        /* \"#utility.yul\":20468:20473   */\n      dup2\n        /* \"#utility.yul\":20457:20473   */\n      swap1\n      pop\n        /* \"#utility.yul\":20474:20519   */\n      tag_492\n        /* \"#utility.yul\":20513:20518   */\n      dup3\n        /* \"#utility.yul\":20474:20519   */\n      tag_493\n      jump\t// in\n    tag_492:\n        /* \"#utility.yul\":20390:20525   */\n      swap2\n      swap1\n      pop\n      jump\t// out\n        /* \"#utility.yul\":20531:20657   */\n    tag_484:\n        /* \"#utility.yul\":20568:20575   */\n      0x00\n        /* \"#utility.yul\":20608:20650   */\n      0xffffffffffffffffffffffffffffffffffffffff\n        /* \"#utility.yul\":20601:20606   */\n      dup3\n        /* \"#utility.yul\":20597:20651   */\n      and\n        /* \"#utility.yul\":20586:20651   */\n      swap1\n      pop\n        /* \"#utility.yul\":20531:20657   */\n      swap2\n      swap1\n      pop\n      jump\t// out\n        /* \"#utility.yul\":20663:20740   */\n    tag_431:\n        /* \"#utility.yul\":20700:20707   */\n      0x00\n        /* \"#utility.yul\":20729:20734   */\n      dup2\n        /* \"#utility.yul\":20718:20734   */\n      swap1\n      pop\n        /* \"#utility.yul\":20663:20740   */\n      swap2\n      swap1\n      pop\n      jump\t// out\n        /* \"#utility.yul\":20746:20877   */\n    tag_371:\n        /* \"#utility.yul\":20804:20813   */\n      0x00\n        /* \"#utility.yul\":20837:20871   */\n      tag_497\n        /* \"#utility.yul\":20865:20870   */\n      dup3\n        /* \"#utility.yul\":20837:20871   */\n      tag_486\n      jump\t// in\n    tag_497:\n        /* \"#utility.yul\":20824:20871   */\n      swap1\n      pop\n        /* \"#utility.yul\":20746:20877   */\n      swap2\n      swap1\n      pop\n      jump\t// out\n        /* \"#utility.yul\":20883:21018   */\n    tag_375:\n        /* \"#utility.yul\":20943:20952   */\n      0x00\n        /* \"#utility.yul\":20976:21012   */\n      tag_499\n        /* \"#utility.yul\":21006:21011   */\n      dup3\n        /* \"#utility.yul\":20976:21012   */\n      tag_490\n      jump\t// in\n    tag_499:\n        /* \"#utility.yul\":20963:21012   */\n      swap1\n      pop\n        /* \"#utility.yul\":20883:21018   */\n      swap2\n      swap1\n      pop\n      jump\t// out\n        /* \"#utility.yul\":21024:21178   */\n    tag_273:\n        /* \"#utility.yul\":21108:21114   */\n      dup3\n        /* \"#utility.yul\":21103:21106   */\n      dup2\n        /* \"#utility.yul\":21098:21101   */\n      dup4\n        /* \"#utility.yul\":21085:21115   */\n      calldatacopy\n        /* \"#utility.yul\":21170:21171   */\n      0x00\n        /* \"#utility.yul\":21161:21167   */\n      dup4\n        /* \"#utility.yul\":21156:21159   */\n      dup4\n        /* \"#utility.yul\":21152:21168   */\n      add\n        /* \"#utility.yul\":21145:21172   */\n      mstore\n        /* \"#utility.yul\":21024:21178   */\n      pop\n      pop\n      pop\n      jump\t// out\n        /* \"#utility.yul\":21184:21491   */\n    tag_383:\n        /* \"#utility.yul\":21252:21253   */\n      0x00\n        /* \"#utility.yul\":21262:21375   */\n    tag_502:\n        /* \"#utility.yul\":21276:21282   */\n      dup4\n        /* \"#utility.yul\":21273:21274   */\n      dup2\n        /* \"#utility.yul\":21270:21283   */\n      lt\n        /* \"#utility.yul\":21262:21375   */\n      iszero\n      tag_504\n      jumpi\n        /* \"#utility.yul\":21361:21362   */\n      dup1\n        /* \"#utility.yul\":21356:21359   */\n      dup3\n        /* \"#utility.yul\":21352:21363   */\n      add\n        /* \"#utility.yul\":21346:21364   */\n      mload\n        /* \"#utility.yul\":21342:21343   */\n      dup2\n        /* \"#utility.yul\":21337:21340   */\n      dup5\n        /* \"#utility.yul\":21333:21344   */\n      add\n        /* \"#utility.yul\":21326:21365   */\n      mstore\n        /* \"#utility.yul\":21298:21300   */\n      0x20\n        /* \"#utility.yul\":21295:21296   */\n      dup2\n        /* \"#utility.yul\":21291:21301   */\n      add\n        /* \"#utility.yul\":21286:21301   */\n      swap1\n      pop\n        /* \"#utility.yul\":21262:21375   */\n      jump(tag_502)\n    tag_504:\n        /* \"#utility.yul\":21393:21399   */\n      dup4\n        /* \"#utility.yul\":21390:21391   */\n      dup2\n        /* \"#utility.yul\":21387:21400   */\n      gt\n        /* \"#utility.yul\":21384:21485   */\n      iszero\n      tag_505\n      jumpi\n        /* \"#utility.yul\":21473:21474   */\n      0x00\n        /* \"#utility.yul\":21464:21470   */\n      dup5\n        /* \"#utility.yul\":21459:21462   */\n      dup5\n        /* \"#utility.yul\":21455:21471   */\n      add\n        /* \"#utility.yul\":21448:21475   */\n      mstore\n        /* \"#utility.yul\":21384:21485   */\n    tag_505:\n        /* \"#utility.yul\":21233:21491   */\n      pop\n        /* \"#utility.yul\":21184:21491   */\n      pop\n      pop\n      pop\n      jump\t// out\n        /* \"#utility.yul\":21497:21817   */\n    tag_75:\n        /* \"#utility.yul\":21541:21547   */\n      0x00\n        /* \"#utility.yul\":21578:21579   */\n      0x02\n        /* \"#utility.yul\":21572:21576   */\n      dup3\n        /* \"#utility.yul\":21568:21580   */\n      div\n        /* \"#utility.yul\":21558:21580   */\n      swap1\n      pop\n        /* \"#utility.yul\":21625:21626   */\n      0x01\n        /* \"#utility.yul\":21619:21623   */\n      dup3\n        /* \"#utility.yul\":21615:21627   */\n      and\n        /* \"#utility.yul\":21646:21664   */\n      dup1\n        /* \"#utility.yul\":21636:21717   */\n      tag_507\n      jumpi\n        /* \"#utility.yul\":21702:21706   */\n      0x7f\n        /* \"#utility.yul\":21694:21700   */\n      dup3\n        /* \"#utility.yul\":21690:21707   */\n      and\n        /* \"#utility.yul\":21680:21707   */\n      swap2\n      pop\n        /* \"#utility.yul\":21636:21717   */\n    tag_507:\n        /* \"#utility.yul\":21764:21766   */\n      0x20\n        /* \"#utility.yul\":21756:21762   */\n      dup3\n        /* \"#utility.yul\":21753:21767   */\n      lt\n        /* \"#utility.yul\":21733:21751   */\n      dup2\n        /* \"#utility.yul\":21730:21768   */\n      eq\n        /* \"#utility.yul\":21727:21811   */\n      iszero\n      tag_508\n      jumpi\n        /* \"#utility.yul\":21783:21801   */\n      tag_509\n      tag_510\n      jump\t// in\n    tag_509:\n        /* \"#utility.yul\":21727:21811   */\n    tag_508:\n        /* \"#utility.yul\":21548:21817   */\n      pop\n        /* \"#utility.yul\":21497:21817   */\n      swap2\n      swap1\n      pop\n      jump\t// out\n        /* \"#utility.yul\":21823:22104   */\n    tag_458:\n        /* \"#utility.yul\":21906:21933   */\n      tag_512\n        /* \"#utility.yul\":21928:21932   */\n      dup3\n        /* \"#utility.yul\":21906:21933   */\n      tag_385\n      jump\t// in\n    tag_512:\n        /* \"#utility.yul\":21898:21904   */\n      dup2\n        /* \"#utility.yul\":21894:21934   */\n      add\n        /* \"#utility.yul\":22036:22042   */\n      dup2\n        /* \"#utility.yul\":22024:22034   */\n      dup2\n        /* \"#utility.yul\":22021:22043   */\n      lt\n        /* \"#utility.yul\":22000:22018   */\n      0xffffffffffffffff\n        /* \"#utility.yul\":21988:21998   */\n      dup3\n        /* \"#utility.yul\":21985:22019   */\n      gt\n        /* \"#utility.yul\":21982:22044   */\n      or\n        /* \"#utility.yul\":21979:22067   */\n      iszero\n      tag_513\n      jumpi\n        /* \"#utility.yul\":22047:22065   */\n      tag_514\n      tag_53\n      jump\t// in\n    tag_514:\n        /* \"#utility.yul\":21979:22067   */\n    tag_513:\n        /* \"#utility.yul\":22087:22097   */\n      dup1\n        /* \"#utility.yul\":22083:22085   */\n      0x40\n        /* \"#utility.yul\":22076:22098   */\n      mstore\n        /* \"#utility.yul\":21866:22104   */\n      pop\n        /* \"#utility.yul\":21823:22104   */\n      pop\n      pop\n      jump\t// out\n        /* \"#utility.yul\":22110:22343   */\n    tag_98:\n        /* \"#utility.yul\":22149:22152   */\n      0x00\n        /* \"#utility.yul\":22172:22196   */\n      tag_516\n        /* \"#utility.yul\":22190:22195   */\n      dup3\n        /* \"#utility.yul\":22172:22196   */\n      tag_431\n      jump\t// in\n    tag_516:\n        /* \"#utility.yul\":22163:22196   */\n      swap2\n      pop\n        /* \"#utility.yul\":22218:22284   */\n      0xffffffffffffffffffffffffffffffffffffffffffffffffffffffffffffffff\n        /* \"#utility.yul\":22211:22216   */\n      dup3\n        /* \"#utility.yul\":22208:22285   */\n      eq\n        /* \"#utility.yul\":22205:22308   */\n      iszero\n      tag_517\n      jumpi\n        /* \"#utility.yul\":22288:22306   */\n      tag_518\n      tag_481\n      jump\t// in\n    tag_518:\n        /* \"#utility.yul\":22205:22308   */\n    tag_517:\n        /* \"#utility.yul\":22335:22336   */\n      0x01\n        /* \"#utility.yul\":22328:22333   */\n      dup3\n        /* \"#utility.yul\":22324:22337   */\n      add\n        /* \"#utility.yul\":22317:22337   */\n      swap1\n      pop\n        /* \"#utility.yul\":22110:22343   */\n      swap2\n      swap1\n      pop\n      jump\t// out\n        /* \"#utility.yul\":22349:22529   */\n    tag_481:\n        /* \"#utility.yul\":22397:22474   */\n      0x4e487b7100000000000000000000000000000000000000000000000000000000\n        /* \"#utility.yul\":22394:22395   */\n      0x00\n        /* \"#utility.yul\":22387:22475   */\n      mstore\n        /* \"#utility.yul\":22494:22498   */\n      0x11\n        /* \"#utility.yul\":22491:22492   */\n      0x04\n        /* \"#utility.yul\":22484:22499   */\n      mstore\n        /* \"#utility.yul\":22518:22522   */\n      0x24\n        /* \"#utility.yul\":22515:22516   */\n      0x00\n        /* \"#utility.yul\":22508:22523   */\n      revert\n        /* \"#utility.yul\":22535:22715   */\n    tag_63:\n        /* \"#utility.yul\":22583:22660   */\n      0x4e487b7100000000000000000000000000000000000000000000000000000000\n        /* \"#utility.yul\":22580:22581   */\n      0x00\n        /* \"#utility.yul\":22573:22661   */\n      mstore\n        /* \"#utility.yul\":22680:22684   */\n      0x21\n        /* \"#utility.yul\":22677:22678   */\n      0x04\n        /* \"#utility.yul\":22670:22685   */\n      mstore\n        /* \"#utility.yul\":22704:22708   */\n      0x24\n        /* \"#utility.yul\":22701:22702   */\n      0x00\n        /* \"#utility.yul\":22694:22709   */\n      revert\n        /* \"#utility.yul\":22721:22901   */\n    tag_510:\n        /* \"#utility.yul\":22769:22846   */\n      0x4e487b7100000000000000000000000000000000000000000000000000000000\n        /* \"#utility.yul\":22766:22767   */\n      0x00\n        /* \"#utility.yul\":22759:22847   */\n      mstore\n        /* \"#utility.yul\":22866:22870   */\n      0x22\n        /* \"#utility.yul\":22863:22864   */\n      0x04\n        /* \"#utility.yul\":22856:22871   */\n      mstore\n        /* \"#utility.yul\":22890:22894   */\n      0x24\n        /* \"#utility.yul\":22887:22888   */\n      0x00\n        /* \"#utility.yul\":22880:22895   */\n      revert\n        /* \"#utility.yul\":22907:23087   */\n    tag_66:\n        /* \"#utility.yul\":22955:23032   */\n      0x4e487b7100000000000000000000000000000000000000000000000000000000\n        /* \"#utility.yul\":22952:22953   */\n      0x00\n        /* \"#utility.yul\":22945:23033   */\n      mstore\n        /* \"#utility.yul\":23052:23056   */\n      0x32\n        /* \"#utility.yul\":23049:23050   */\n      0x04\n        /* \"#utility.yul\":23042:23057   */\n      mstore\n        /* \"#utility.yul\":23076:23080   */\n      0x24\n        /* \"#utility.yul\":23073:23074   */\n      0x00\n        /* \"#utility.yul\":23066:23081   */\n      revert\n        /* \"#utility.yul\":23093:23273   */\n    tag_53:\n        /* \"#utility.yul\":23141:23218   */\n      0x4e487b7100000000000000000000000000000000000000000000000000000000\n        /* \"#utility.yul\":23138:23139   */\n      0x00\n        /* \"#utility.yul\":23131:23219   */\n      mstore\n        /* \"#utility.yul\":23238:23242   */\n      0x41\n        /* \"#utility.yul\":23235:23236   */\n      0x04\n        /* \"#utility.yul\":23228:23243   */\n      mstore\n        /* \"#utility.yul\":23262:23266   */\n      0x24\n        /* \"#utility.yul\":23259:23260   */\n      0x00\n        /* \"#utility.yul\":23252:23267   */\n      revert\n        /* \"#utility.yul\":23279:23396   */\n    tag_286:\n        /* \"#utility.yul\":23388:23389   */\n      0x00\n        /* \"#utility.yul\":23385:23386   */\n      dup1\n        /* \"#utility.yul\":23378:23390   */\n      revert\n        /* \"#utility.yul\":23402:23519   */\n    tag_271:\n        /* \"#utility.yul\":23511:23512   */\n      0x00\n        /* \"#utility.yul\":23508:23509   */\n      dup1\n        /* \"#utility.yul\":23501:23513   */\n      revert\n        /* \"#utility.yul\":23525:23642   */\n    tag_306:\n        /* \"#utility.yul\":23634:23635   */\n      0x00\n        /* \"#utility.yul\":23631:23632   */\n      dup1\n        /* \"#utility.yul\":23624:23636   */\n      revert\n        /* \"#utility.yul\":23648:23765   */\n    tag_295:\n        /* \"#utility.yul\":23757:23758   */\n      0x00\n        /* \"#utility.yul\":23754:23755   */\n      dup1\n        /* \"#utility.yul\":23747:23759   */\n      revert\n        /* \"#utility.yul\":23771:23873   */\n    tag_385:\n        /* \"#utility.yul\":23812:23818   */\n      0x00\n        /* \"#utility.yul\":23863:23865   */\n      0x1f\n        /* \"#utility.yul\":23859:23866   */\n      not\n        /* \"#utility.yul\":23854:23856   */\n      0x1f\n        /* \"#utility.yul\":23847:23852   */\n      dup4\n        /* \"#utility.yul\":23843:23857   */\n      add\n        /* \"#utility.yul\":23839:23867   */\n      and\n        /* \"#utility.yul\":23829:23867   */\n      swap1\n      pop\n        /* \"#utility.yul\":23771:23873   */\n      swap2\n      swap1\n      pop\n      jump\t// out\n        /* \"#utility.yul\":23879:23994   */\n    tag_489:\n        /* \"#utility.yul\":23962:23963   */\n      0x03\n        /* \"#utility.yul\":23955:23960   */\n      dup2\n        /* \"#utility.yul\":23952:23964   */\n      lt\n        /* \"#utility.yul\":23942:23988   */\n      tag_530\n      jumpi\n        /* \"#utility.yul\":23968:23986   */\n      tag_531\n      tag_63\n      jump\t// in\n    tag_531:\n        /* \"#utility.yul\":23942:23988   */\n    tag_530:\n        /* \"#utility.yul\":23879:23994   */\n      pop\n      jump\t// out\n        /* \"#utility.yul\":24000:24117   */\n    tag_493:\n        /* \"#utility.yul\":24085:24086   */\n      0x07\n        /* \"#utility.yul\":24078:24083   */\n      dup2\n        /* \"#utility.yul\":24075:24087   */\n      lt\n        /* \"#utility.yul\":24065:24111   */\n      tag_533\n      jumpi\n        /* \"#utility.yul\":24091:24109   */\n      tag_534\n      tag_63\n      jump\t// in\n    tag_534:\n        /* \"#utility.yul\":24065:24111   */\n    tag_533:\n        /* \"#utility.yul\":24000:24117   */\n      pop\n      jump\t// out\n        /* \"#utility.yul\":24123:24245   */\n    tag_277:\n        /* \"#utility.yul\":24196:24220   */\n      tag_536\n        /* \"#utility.yul\":24214:24219   */\n      dup2\n        /* \"#utility.yul\":24196:24220   */\n      tag_332\n      jump\t// in\n    tag_536:\n        /* \"#utility.yul\":24189:24194   */\n      dup2\n        /* \"#utility.yul\":24186:24221   */\n      eq\n        /* \"#utility.yul\":24176:24239   */\n      tag_537\n      jumpi\n        /* \"#utility.yul\":24235:24236   */\n      0x00\n        /* \"#utility.yul\":24232:24233   */\n      dup1\n        /* \"#utility.yul\":24225:24237   */\n      revert\n        /* \"#utility.yul\":24176:24239   */\n    tag_537:\n        /* \"#utility.yul\":24123:24245   */\n      pop\n      jump\t// out\n        /* \"#utility.yul\":24251:24362   */\n    tag_281:\n        /* \"#utility.yul\":24336:24337   */\n      0x07\n        /* \"#utility.yul\":24329:24334   */\n      dup2\n        /* \"#utility.yul\":24326:24338   */\n      lt\n        /* \"#utility.yul\":24316:24356   */\n      tag_539\n      jumpi\n        /* \"#utility.yul\":24352:24353   */\n      0x00\n        /* \"#utility.yul\":24349:24350   */\n      dup1\n        /* \"#utility.yul\":24342:24354   */\n      revert\n        /* \"#utility.yul\":24316:24356   */\n    tag_539:\n        /* \"#utility.yul\":24251:24362   */\n      pop\n      jump\t// out\n        /* \"#utility.yul\":24368:24490   */\n    tag_291:\n        /* \"#utility.yul\":24441:24465   */\n      tag_541\n        /* \"#utility.yul\":24459:24464   */\n      dup2\n        /* \"#utility.yul\":24441:24465   */\n      tag_431\n      jump\t// in\n    tag_541:\n        /* \"#utility.yul\":24434:24439   */\n      dup2\n        /* \"#utility.yul\":24431:24466   */\n      eq\n        /* \"#utility.yul\":24421:24484   */\n      tag_542\n      jumpi\n        /* \"#utility.yul\":24480:24481   */\n      0x00\n        /* \"#utility.yul\":24477:24478   */\n      dup1\n        /* \"#utility.yul\":24470:24482   */\n      revert\n        /* \"#utility.yul\":24421:24484   */\n    tag_542:\n        /* \"#utility.yul\":24368:24490   */\n      pop\n      jump\t// out\n\n    auxdata: 0xa2646970667358221220fc3fc123996a87dea10c5df77633518f8e8ccd4751123e7bb6ca87ce57f0b8f864736f6c63430008070033\n}\n",
				"bytecode": {
					"linkReferences": {},
					"object": "608060405234801561001057600080fd5b50612171806100206000396000f3fe608060405234801561001057600080fd5b506004361061007d5760003560e01c806399b5bbdd1161005b57806399b5bbdd14610117578063cd1720d114610147578063cdf7e73d14610177578063e9a734ff146101a75761007d565b80630f9de977146100825780631567697c146100b25780634b2d14aa146100e7575b600080fd5b61009c60048036038101906100979190611667565b6101d7565b6040516100a99190611bff565b60405180910390f35b6100cc60048036038101906100c79190611755565b610686565b6040516100de96959493929190611c3c565b60405180910390f35b61010160048036038101906100fc9190611694565b610822565b60405161010e9190611bdd565b60405180910390f35b610131600480360381019061012c919061163a565b610c5f565b60405161013e9190611bdd565b60405180910390f35b610161600480360381019061015c919061163a565b611059565b60405161016e9190611ccd565b60405180910390f35b610191600480360381019061018c9190611694565b6112b5565b60405161019e9190611cab565b60405180910390f35b6101c160048036038101906101bc91906116dd565b611410565b6040516101ce9190611c21565b60405180910390f35b60606000600180549050905060008167ffffffffffffffff8111156101ff576101fe612081565b5b60405190808252806020026020018201604052801561023857816020015b610225611469565b81526020019060019003908161021d5790505b509050600080600090505b838110156105cf5785600681111561025e5761025d611ff4565b5b6000806001848154811061027557610274612052565b5b9060005260206000200160009054906101000a900473ffffffffffffffffffffffffffffffffffffffff1673ffffffffffffffffffffffffffffffffffffffff1673ffffffffffffffffffffffffffffffffffffffff16815260200190815260200160002060020160009054906101000a900460ff1660068111156102fd576102fc611ff4565b5b14156105bc576000806001838154811061031a57610319612052565b5b9060005260206000200160009054906101000a900473ffffffffffffffffffffffffffffffffffffffff1673ffffffffffffffffffffffffffffffffffffffff1673ffffffffffffffffffffffffffffffffffffffff1681526020019081526020016000206040518060e001604052908160008201805461039a90611f19565b80601f01602080910402602001604051908101604052809291908181526020018280546103c690611f19565b80156104135780601f106103e857610100808354040283529160200191610413565b820191906000526020600020905b8154815290600101906020018083116103f657829003601f168201915b5050505050815260200160018201805461042c90611f19565b80601f016020809104026020016040519081016040528092919081815260200182805461045890611f19565b80156104a55780601f1061047a576101008083540402835291602001916104a5565b820191906000526020600020905b81548152906001019060200180831161048857829003601f168201915b505050505081526020016002820160009054906101000a900460ff1660068111156104d3576104d2611ff4565b5b60068111156104e5576104e4611ff4565b5b81526020016002820160019054906101000a900460ff16600281111561050e5761050d611ff4565b5b60028111156105205761051f611ff4565b5b815260200160038201548152602001600482015481526020016005820160009054906101000a900473ffffffffffffffffffffffffffffffffffffffff1673ffffffffffffffffffffffffffffffffffffffff1673ffffffffffffffffffffffffffffffffffffffff16815250508383815181106105a1576105a0612052565b5b60200260200101819052506001826105b99190611def565b91505b80806105c790611f7c565b915050610243565b508067ffffffffffffffff8111156105ea576105e9612081565b5b60405190808252806020026020018201604052801561062357816020015b610610611469565b8152602001906001900390816106085790505b50935060005b8181101561067d5782818151811061064457610643612052565b5b602002602001015185828151811061065f5761065e612052565b5b6020026020010181905250808061067590611f7c565b915050610629565b50505050919050565b6004818154811061069657600080fd5b90600052602060002090600602016000915090508060000180546106b990611f19565b80601f01602080910402602001604051908101604052809291908181526020018280546106e590611f19565b80156107325780601f1061070757610100808354040283529160200191610732565b820191906000526020600020905b81548152906001019060200180831161071557829003601f168201915b50505050509080600101805461074790611f19565b80601f016020809104026020016040519081016040528092919081815260200182805461077390611f19565b80156107c05780601f10610795576101008083540402835291602001916107c0565b820191906000526020600020905b8154815290600101906020018083116107a357829003601f168201915b5050505050908060020154908060030160009054906101000a900473ffffffffffffffffffffffffffffffffffffffff16908060040160009054906101000a900473ffffffffffffffffffffffffffffffffffffffff16908060050154905086565b606060008060048054905067ffffffffffffffff81111561084657610845612081565b5b60405190808252806020026020018201604052801561087f57816020015b61086c6114e0565b8152602001906001900390816108645790505b50905060005b600480549050811015610b9f57610949600482815481106108a9576108a8612052565b5b906000526020600020906006020160000180546108c590611f19565b80601f01602080910402602001604051908101604052809291908181526020018280546108f190611f19565b801561093e5780601f106109135761010080835404028352916020019161093e565b820191906000526020600020905b81548152906001019060200180831161092157829003601f168201915b505050505086611410565b15610b8c576004818154811061096257610961612052565b5b90600052602060002090600602016040518060c001604052908160008201805461098b90611f19565b80601f01602080910402602001604051908101604052809291908181526020018280546109b790611f19565b8015610a045780601f106109d957610100808354040283529160200191610a04565b820191906000526020600020905b8154815290600101906020018083116109e757829003601f168201915b50505050508152602001600182018054610a1d90611f19565b80601f0160208091040260200160405190810160405280929190818152602001828054610a4990611f19565b8015610a965780601f10610a6b57610100808354040283529160200191610a96565b820191906000526020600020905b815481529060010190602001808311610a7957829003601f168201915b50505050508152602001600282015481526020016003820160009054906101000a900473ffffffffffffffffffffffffffffffffffffffff1673ffffffffffffffffffffffffffffffffffffffff1673ffffffffffffffffffffffffffffffffffffffff1681526020016004820160009054906101000a900473ffffffffffffffffffffffffffffffffffffffff1673ffffffffffffffffffffffffffffffffffffffff1673ffffffffffffffffffffffffffffffffffffffff168152602001600582015481525050828481518110610b7257610b71612052565b5b60200260200101819052508280610b8890611f7c565b9350505b8080610b9790611f7c565b915050610885565b508167ffffffffffffffff811115610bba57610bb9612081565b5b604051908082528060200260200182016040528015610bf357816020015b610be06114e0565b815260200190600190039081610bd85790505b5092506000821115610c585760005b82811015610c5657818181518110610c1d57610c1c612052565b5b6020026020010151848281518110610c3857610c37612052565b5b60200260200101819052508080610c4e90611f7c565b915050610c02565b505b5050919050565b606060008060048054905067ffffffffffffffff811115610c8357610c82612081565b5b604051908082528060200260200182016040528015610cbc57816020015b610ca96114e0565b815260200190600190039081610ca15790505b50905060005b600480549050811015610f99578473ffffffffffffffffffffffffffffffffffffffff1660048281548110610cfa57610cf9612052565b5b906000526020600020906006020160040160009054906101000a900473ffffffffffffffffffffffffffffffffffffffff1673ffffffffffffffffffffffffffffffffffffffff161415610f865760048181548110610d5c57610d5b612052565b5b90600052602060002090600602016040518060c0016040529081600082018054610d8590611f19565b80601f0160208091040260200160405190810160405280929190818152602001828054610db190611f19565b8015610dfe5780601f10610dd357610100808354040283529160200191610dfe565b820191906000526020600020905b815481529060010190602001808311610de157829003601f168201915b50505050508152602001600182018054610e1790611f19565b80601f0160208091040260200160405190810160405280929190818152602001828054610e4390611f19565b8015610e905780601f10610e6557610100808354040283529160200191610e90565b820191906000526020600020905b815481529060010190602001808311610e7357829003601f168201915b50505050508152602001600282015481526020016003820160009054906101000a900473ffffffffffffffffffffffffffffffffffffffff1673ffffffffffffffffffffffffffffffffffffffff1673ffffffffffffffffffffffffffffffffffffffff1681526020016004820160009054906101000a900473ffffffffffffffffffffffffffffffffffffffff1673ffffffffffffffffffffffffffffffffffffffff1673ffffffffffffffffffffffffffffffffffffffff168152602001600582015481525050828481518110610f6c57610f6b612052565b5b60200260200101819052508280610f8290611f7c565b9350505b8080610f9190611f7c565b915050610cc2565b508167ffffffffffffffff811115610fb457610fb3612081565b5b604051908082528060200260200182016040528015610fed57816020015b610fda6114e0565b815260200190600190039081610fd25790505b50925060008211156110525760005b828110156110505781818151811061101757611016612052565b5b602002602001015184828151811061103257611031612052565b5b6020026020010181905250808061104890611f7c565b915050610ffc565b505b5050919050565b611061611469565b6000808373ffffffffffffffffffffffffffffffffffffffff1673ffffffffffffffffffffffffffffffffffffffff1681526020019081526020016000206040518060e00160405290816000820180546110ba90611f19565b80601f01602080910402602001604051908101604052809291908181526020018280546110e690611f19565b80156111335780601f1061110857610100808354040283529160200191611133565b820191906000526020600020905b81548152906001019060200180831161111657829003601f168201915b5050505050815260200160018201805461114c90611f19565b80601f016020809104026020016040519081016040528092919081815260200182805461117890611f19565b80156111c55780601f1061119a576101008083540402835291602001916111c5565b820191906000526020600020905b8154815290600101906020018083116111a857829003601f168201915b505050505081526020016002820160009054906101000a900460ff1660068111156111f3576111f2611ff4565b5b600681111561120557611204611ff4565b5b81526020016002820160019054906101000a900460ff16600281111561122e5761122d611ff4565b5b60028111156112405761123f611ff4565b5b815260200160038201548152602001600482015481526020016005820160009054906101000a900473ffffffffffffffffffffffffffffffffffffffff1673ffffffffffffffffffffffffffffffffffffffff1673ffffffffffffffffffffffffffffffffffffffff16815250509050919050565b6112bd611542565b6002826040516112cd9190611bc6565b90815260200160405180910390206040518060600160405290816000820180546112f690611f19565b80601f016020809104026020016040519081016040528092919081815260200182805461132290611f19565b801561136f5780601f106113445761010080835404028352916020019161136f565b820191906000526020600020905b81548152906001019060200180831161135257829003601f168201915b505050505081526020016001820160009054906101000a900473ffffffffffffffffffffffffffffffffffffffff1673ffffffffffffffffffffffffffffffffffffffff1673ffffffffffffffffffffffffffffffffffffffff1681526020016001820160149054906101000a900460ff1660028111156113f3576113f2611ff4565b5b600281111561140557611404611ff4565b5b815250509050919050565b6000816040516020016114239190611bc6565b604051602081830303815290604052805190602001208360405160200161144a9190611bc6565b6040516020818303038152906040528051906020012014905092915050565b6040518060e0016040528060608152602001606081526020016000600681111561149657611495611ff4565b5b8152602001600060028111156114af576114ae611ff4565b5b81526020016000815260200160008152602001600073ffffffffffffffffffffffffffffffffffffffff1681525090565b6040518060c00160405280606081526020016060815260200160008152602001600073ffffffffffffffffffffffffffffffffffffffff168152602001600073ffffffffffffffffffffffffffffffffffffffff168152602001600081525090565b604051806060016040528060608152602001600073ffffffffffffffffffffffffffffffffffffffff1681526020016000600281111561158557611584611ff4565b5b81525090565b600061159e61159984611d14565b611cef565b9050828152602081018484840111156115ba576115b96120b5565b5b6115c5848285611ed7565b509392505050565b6000813590506115dc816120fd565b92915050565b6000813590506115f181612114565b92915050565b600082601f83011261160c5761160b6120b0565b5b813561161c84826020860161158b565b91505092915050565b60008135905061163481612124565b92915050565b6000602082840312156116505761164f6120bf565b5b600061165e848285016115cd565b91505092915050565b60006020828403121561167d5761167c6120bf565b5b600061168b848285016115e2565b91505092915050565b6000602082840312156116aa576116a96120bf565b5b600082013567ffffffffffffffff8111156116c8576116c76120ba565b5b6116d4848285016115f7565b91505092915050565b600080604083850312156116f4576116f36120bf565b5b600083013567ffffffffffffffff811115611712576117116120ba565b5b61171e858286016115f7565b925050602083013567ffffffffffffffff81111561173f5761173e6120ba565b5b61174b858286016115f7565b9150509250929050565b60006020828403121561176b5761176a6120bf565b5b600061177984828501611625565b91505092915050565b600061178e83836119d2565b905092915050565b60006117a28383611a62565b905092915050565b6117b381611e45565b82525050565b6117c281611e45565b82525050565b60006117d382611d65565b6117dd8185611da0565b9350836020820285016117ef85611d45565b8060005b8581101561182b578484038952815161180c8582611782565b945061181783611d86565b925060208a019950506001810190506117f3565b50829750879550505050505092915050565b600061184882611d70565b6118528185611db1565b93508360208202850161186485611d55565b8060005b858110156118a057848403895281516118818582611796565b945061188c83611d93565b925060208a01995050600181019050611868565b50829750879550505050505092915050565b6118bb81611e57565b82525050565b6118ca81611eb3565b82525050565b6118d981611ec5565b82525050565b60006118ea82611d7b565b6118f48185611dc2565b9350611904818560208601611ee6565b61190d816120c4565b840191505092915050565b600061192382611d7b565b61192d8185611dd3565b935061193d818560208601611ee6565b611946816120c4565b840191505092915050565b600061195c82611d7b565b6119668185611de4565b9350611976818560208601611ee6565b80840191505092915050565b6000606083016000830151848203600086015261199f82826118df565b91505060208301516119b460208601826117aa565b5060408301516119c760408601826118c1565b508091505092915050565b600060c08301600083015184820360008601526119ef82826118df565b91505060208301518482036020860152611a0982826118df565b9150506040830151611a1e6040860182611ba8565b506060830151611a3160608601826117aa565b506080830151611a4460808601826117aa565b5060a0830151611a5760a0860182611ba8565b508091505092915050565b600060e0830160008301518482036000860152611a7f82826118df565b91505060208301518482036020860152611a9982826118df565b9150506040830151611aae60408601826118d0565b506060830151611ac160608601826118c1565b506080830151611ad46080860182611ba8565b5060a0830151611ae760a0860182611ba8565b5060c0830151611afa60c08601826117aa565b508091505092915050565b600060e0830160008301518482036000860152611b2282826118df565b91505060208301518482036020860152611b3c82826118df565b9150506040830151611b5160408601826118d0565b506060830151611b6460608601826118c1565b506080830151611b776080860182611ba8565b5060a0830151611b8a60a0860182611ba8565b5060c0830151611b9d60c08601826117aa565b508091505092915050565b611bb181611ea9565b82525050565b611bc081611ea9565b82525050565b6000611bd28284611951565b915081905092915050565b60006020820190508181036000830152611bf781846117c8565b905092915050565b60006020820190508181036000830152611c19818461183d565b905092915050565b6000602082019050611c3660008301846118b2565b92915050565b600060c0820190508181036000830152611c568189611918565b90508181036020830152611c6a8188611918565b9050611c796040830187611bb7565b611c8660608301866117b9565b611c9360808301856117b9565b611ca060a0830184611bb7565b979650505050505050565b60006020820190508181036000830152611cc58184611982565b905092915050565b60006020820190508181036000830152611ce78184611b05565b905092915050565b6000611cf9611d0a565b9050611d058282611f4b565b919050565b6000604051905090565b600067ffffffffffffffff821115611d2f57611d2e612081565b5b611d38826120c4565b9050602081019050919050565b6000819050602082019050919050565b6000819050602082019050919050565b600081519050919050565b600081519050919050565b600081519050919050565b6000602082019050919050565b6000602082019050919050565b600082825260208201905092915050565b600082825260208201905092915050565b600082825260208201905092915050565b600082825260208201905092915050565b600081905092915050565b6000611dfa82611ea9565b9150611e0583611ea9565b9250827fffffffffffffffffffffffffffffffffffffffffffffffffffffffffffffffff03821115611e3a57611e39611fc5565b5b828201905092915050565b6000611e5082611e89565b9050919050565b60008115159050919050565b6000819050611e71826120d5565b919050565b6000819050611e84826120e9565b919050565b600073ffffffffffffffffffffffffffffffffffffffff82169050919050565b6000819050919050565b6000611ebe82611e63565b9050919050565b6000611ed082611e76565b9050919050565b82818337600083830152505050565b60005b83811015611f04578082015181840152602081019050611ee9565b83811115611f13576000848401525b50505050565b60006002820490506001821680611f3157607f821691505b60208210811415611f4557611f44612023565b5b50919050565b611f54826120c4565b810181811067ffffffffffffffff82111715611f7357611f72612081565b5b80604052505050565b6000611f8782611ea9565b91507fffffffffffffffffffffffffffffffffffffffffffffffffffffffffffffffff821415611fba57611fb9611fc5565b5b600182019050919050565b7f4e487b7100000000000000000000000000000000000000000000000000000000600052601160045260246000fd5b7f4e487b7100000000000000000000000000000000000000000000000000000000600052602160045260246000fd5b7f4e487b7100000000000000000000000000000000000000000000000000000000600052602260045260246000fd5b7f4e487b7100000000000000000000000000000000000000000000000000000000600052603260045260246000fd5b7f4e487b7100000000000000000000000000000000000000000000000000000000600052604160045260246000fd5b600080fd5b600080fd5b600080fd5b600080fd5b6000601f19601f8301169050919050565b600381106120e6576120e5611ff4565b5b50565b600781106120fa576120f9611ff4565b5b50565b61210681611e45565b811461211157600080fd5b50565b6007811061212157600080fd5b50565b61212d81611ea9565b811461213857600080fd5b5056fea2646970667358221220fc3fc123996a87dea10c5df77633518f8e8ccd4751123e7bb6ca87ce57f0b8f864736f6c63430008070033",
					"opcodes": "PUSH1 0x80 PUSH1 0x40 MSTORE CALLVALUE DUP1 ISZERO PUSH2 0x10 JUMPI PUSH1 0x0 DUP1 REVERT JUMPDEST POP PUSH2 0x2171 DUP1 PUSH2 0x20 PUSH1 0x0 CODECOPY PUSH1 0x0 RETURN INVALID PUSH1 0x80 PUSH1 0x40 MSTORE CALLVALUE DUP1 ISZERO PUSH2 0x10 JUMPI PUSH1 0x0 DUP1 REVERT JUMPDEST POP PUSH1 0x4 CALLDATASIZE LT PUSH2 0x7D JUMPI PUSH1 0x0 CALLDATALOAD PUSH1 0xE0 SHR DUP1 PUSH4 0x99B5BBDD GT PUSH2 0x5B JUMPI DUP1 PUSH4 0x99B5BBDD EQ PUSH2 0x117 JUMPI DUP1 PUSH4 0xCD1720D1 EQ PUSH2 0x147 JUMPI DUP1 PUSH4 0xCDF7E73D EQ PUSH2 0x177 JUMPI DUP1 PUSH4 0xE9A734FF EQ PUSH2 0x1A7 JUMPI PUSH2 0x7D JUMP JUMPDEST DUP1 PUSH4 0xF9DE977 EQ PUSH2 0x82 JUMPI DUP1 PUSH4 0x1567697C EQ PUSH2 0xB2 JUMPI DUP1 PUSH4 0x4B2D14AA EQ PUSH2 0xE7 JUMPI JUMPDEST PUSH1 0x0 DUP1 REVERT JUMPDEST PUSH2 0x9C PUSH1 0x4 DUP1 CALLDATASIZE SUB DUP2 ADD SWAP1 PUSH2 0x97 SWAP2 SWAP1 PUSH2 0x1667 JUMP JUMPDEST PUSH2 0x1D7 JUMP JUMPDEST PUSH1 0x40 MLOAD PUSH2 0xA9 SWAP2 SWAP1 PUSH2 0x1BFF JUMP JUMPDEST PUSH1 0x40 MLOAD DUP1 SWAP2 SUB SWAP1 RETURN JUMPDEST PUSH2 0xCC PUSH1 0x4 DUP1 CALLDATASIZE SUB DUP2 ADD SWAP1 PUSH2 0xC7 SWAP2 SWAP1 PUSH2 0x1755 JUMP JUMPDEST PUSH2 0x686 JUMP JUMPDEST PUSH1 0x40 MLOAD PUSH2 0xDE SWAP7 SWAP6 SWAP5 SWAP4 SWAP3 SWAP2 SWAP1 PUSH2 0x1C3C JUMP JUMPDEST PUSH1 0x40 MLOAD DUP1 SWAP2 SUB SWAP1 RETURN JUMPDEST PUSH2 0x101 PUSH1 0x4 DUP1 CALLDATASIZE SUB DUP2 ADD SWAP1 PUSH2 0xFC SWAP2 SWAP1 PUSH2 0x1694 JUMP JUMPDEST PUSH2 0x822 JUMP JUMPDEST PUSH1 0x40 MLOAD PUSH2 0x10E SWAP2 SWAP1 PUSH2 0x1BDD JUMP JUMPDEST PUSH1 0x40 MLOAD DUP1 SWAP2 SUB SWAP1 RETURN JUMPDEST PUSH2 0x131 PUSH1 0x4 DUP1 CALLDATASIZE SUB DUP2 ADD SWAP1 PUSH2 0x12C SWAP2 SWAP1 PUSH2 0x163A JUMP JUMPDEST PUSH2 0xC5F JUMP JUMPDEST PUSH1 0x40 MLOAD PUSH2 0x13E SWAP2 SWAP1 PUSH2 0x1BDD JUMP JUMPDEST PUSH1 0x40 MLOAD DUP1 SWAP2 SUB SWAP1 RETURN JUMPDEST PUSH2 0x161 PUSH1 0x4 DUP1 CALLDATASIZE SUB DUP2 ADD SWAP1 PUSH2 0x15C SWAP2 SWAP1 PUSH2 0x163A JUMP JUMPDEST PUSH2 0x1059 JUMP JUMPDEST PUSH1 0x40 MLOAD PUSH2 0x16E SWAP2 SWAP1 PUSH2 0x1CCD JUMP JUMPDEST PUSH1 0x40 MLOAD DUP1 SWAP2 SUB SWAP1 RETURN JUMPDEST PUSH2 0x191 PUSH1 0x4 DUP1 CALLDATASIZE SUB DUP2 ADD SWAP1 PUSH2 0x18C SWAP2 SWAP1 PUSH2 0x1694 JUMP JUMPDEST PUSH2 0x12B5 JUMP JUMPDEST PUSH1 0x40 MLOAD PUSH2 0x19E SWAP2 SWAP1 PUSH2 0x1CAB JUMP JUMPDEST PUSH1 0x40 MLOAD DUP1 SWAP2 SUB SWAP1 RETURN JUMPDEST PUSH2 0x1C1 PUSH1 0x4 DUP1 CALLDATASIZE SUB DUP2 ADD SWAP1 PUSH2 0x1BC SWAP2 SWAP1 PUSH2 0x16DD JUMP JUMPDEST PUSH2 0x1410 JUMP JUMPDEST PUSH1 0x40 MLOAD PUSH2 0x1CE SWAP2 SWAP1 PUSH2 0x1C21 JUMP JUMPDEST PUSH1 0x40 MLOAD DUP1 SWAP2 SUB SWAP1 RETURN JUMPDEST PUSH1 0x60 PUSH1 0x0 PUSH1 0x1 DUP1 SLOAD SWAP1 POP SWAP1 POP PUSH1 0x0 DUP2 PUSH8 0xFFFFFFFFFFFFFFFF DUP2 GT ISZERO PUSH2 0x1FF JUMPI PUSH2 0x1FE PUSH2 0x2081 JUMP JUMPDEST JUMPDEST PUSH1 0x40 MLOAD SWAP1 DUP1 DUP3 MSTORE DUP1 PUSH1 0x20 MUL PUSH1 0x20 ADD DUP3 ADD PUSH1 0x40 MSTORE DUP1 ISZERO PUSH2 0x238 JUMPI DUP2 PUSH1 0x20 ADD JUMPDEST PUSH2 0x225 PUSH2 0x1469 JUMP JUMPDEST DUP2 MSTORE PUSH1 0x20 ADD SWAP1 PUSH1 0x1 SWAP1 SUB SWAP1 DUP2 PUSH2 0x21D JUMPI SWAP1 POP JUMPDEST POP SWAP1 POP PUSH1 0x0 DUP1 PUSH1 0x0 SWAP1 POP JUMPDEST DUP4 DUP2 LT ISZERO PUSH2 0x5CF JUMPI DUP6 PUSH1 0x6 DUP2 GT ISZERO PUSH2 0x25E JUMPI PUSH2 0x25D PUSH2 0x1FF4 JUMP JUMPDEST JUMPDEST PUSH1 0x0 DUP1 PUSH1 0x1 DUP5 DUP2 SLOAD DUP2 LT PUSH2 0x275 JUMPI PUSH2 0x274 PUSH2 0x2052 JUMP JUMPDEST JUMPDEST SWAP1 PUSH1 0x0 MSTORE PUSH1 0x20 PUSH1 0x0 KECCAK256 ADD PUSH1 0x0 SWAP1 SLOAD SWAP1 PUSH2 0x100 EXP SWAP1 DIV PUSH20 0xFFFFFFFFFFFFFFFFFFFFFFFFFFFFFFFFFFFFFFFF AND PUSH20 0xFFFFFFFFFFFFFFFFFFFFFFFFFFFFFFFFFFFFFFFF AND PUSH20 0xFFFFFFFFFFFFFFFFFFFFFFFFFFFFFFFFFFFFFFFF AND DUP2 MSTORE PUSH1 0x20 ADD SWAP1 DUP2 MSTORE PUSH1 0x20 ADD PUSH1 0x0 KECCAK256 PUSH1 0x2 ADD PUSH1 0x0 SWAP1 SLOAD SWAP1 PUSH2 0x100 EXP SWAP1 DIV PUSH1 0xFF AND PUSH1 0x6 DUP2 GT ISZERO PUSH2 0x2FD JUMPI PUSH2 0x2FC PUSH2 0x1FF4 JUMP JUMPDEST JUMPDEST EQ ISZERO PUSH2 0x5BC JUMPI PUSH1 0x0 DUP1 PUSH1 0x1 DUP4 DUP2 SLOAD DUP2 LT PUSH2 0x31A JUMPI PUSH2 0x319 PUSH2 0x2052 JUMP JUMPDEST JUMPDEST SWAP1 PUSH1 0x0 MSTORE PUSH1 0x20 PUSH1 0x0 KECCAK256 ADD PUSH1 0x0 SWAP1 SLOAD SWAP1 PUSH2 0x100 EXP SWAP1 DIV PUSH20 0xFFFFFFFFFFFFFFFFFFFFFFFFFFFFFFFFFFFFFFFF AND PUSH20 0xFFFFFFFFFFFFFFFFFFFFFFFFFFFFFFFFFFFFFFFF AND PUSH20 0xFFFFFFFFFFFFFFFFFFFFFFFFFFFFFFFFFFFFFFFF AND DUP2 MSTORE PUSH1 0x20 ADD SWAP1 DUP2 MSTORE PUSH1 0x20 ADD PUSH1 0x0 KECCAK256 PUSH1 0x40 MLOAD DUP1 PUSH1 0xE0 ADD PUSH1 0x40 MSTORE SWAP1 DUP2 PUSH1 0x0 DUP3 ADD DUP1 SLOAD PUSH2 0x39A SWAP1 PUSH2 0x1F19 JUMP JUMPDEST DUP1 PUSH1 0x1F ADD PUSH1 0x20 DUP1 SWAP2 DIV MUL PUSH1 0x20 ADD PUSH1 0x40 MLOAD SWAP1 DUP2 ADD PUSH1 0x40 MSTORE DUP1 SWAP3 SWAP2 SWAP1 DUP2 DUP2 MSTORE PUSH1 0x20 ADD DUP3 DUP1 SLOAD PUSH2 0x3C6 SWAP1 PUSH2 0x1F19 JUMP JUMPDEST DUP1 ISZERO PUSH2 0x413 JUMPI DUP1 PUSH1 0x1F LT PUSH2 0x3E8 JUMPI PUSH2 0x100 DUP1 DUP4 SLOAD DIV MUL DUP4 MSTORE SWAP2 PUSH1 0x20 ADD SWAP2 PUSH2 0x413 JUMP JUMPDEST DUP3 ADD SWAP2 SWAP1 PUSH1 0x0 MSTORE PUSH1 0x20 PUSH1 0x0 KECCAK256 SWAP1 JUMPDEST DUP2 SLOAD DUP2 MSTORE SWAP1 PUSH1 0x1 ADD SWAP1 PUSH1 0x20 ADD DUP1 DUP4 GT PUSH2 0x3F6 JUMPI DUP3 SWAP1 SUB PUSH1 0x1F AND DUP3 ADD SWAP2 JUMPDEST POP POP POP POP POP DUP2 MSTORE PUSH1 0x20 ADD PUSH1 0x1 DUP3 ADD DUP1 SLOAD PUSH2 0x42C SWAP1 PUSH2 0x1F19 JUMP JUMPDEST DUP1 PUSH1 0x1F ADD PUSH1 0x20 DUP1 SWAP2 DIV MUL PUSH1 0x20 ADD PUSH1 0x40 MLOAD SWAP1 DUP2 ADD PUSH1 0x40 MSTORE DUP1 SWAP3 SWAP2 SWAP1 DUP2 DUP2 MSTORE PUSH1 0x20 ADD DUP3 DUP1 SLOAD PUSH2 0x458 SWAP1 PUSH2 0x1F19 JUMP JUMPDEST DUP1 ISZERO PUSH2 0x4A5 JUMPI DUP1 PUSH1 0x1F LT PUSH2 0x47A JUMPI PUSH2 0x100 DUP1 DUP4 SLOAD DIV MUL DUP4 MSTORE SWAP2 PUSH1 0x20 ADD SWAP2 PUSH2 0x4A5 JUMP JUMPDEST DUP3 ADD SWAP2 SWAP1 PUSH1 0x0 MSTORE PUSH1 0x20 PUSH1 0x0 KECCAK256 SWAP1 JUMPDEST DUP2 SLOAD DUP2 MSTORE SWAP1 PUSH1 0x1 ADD SWAP1 PUSH1 0x20 ADD DUP1 DUP4 GT PUSH2 0x488 JUMPI DUP3 SWAP1 SUB PUSH1 0x1F AND DUP3 ADD SWAP2 JUMPDEST POP POP POP POP POP DUP2 MSTORE PUSH1 0x20 ADD PUSH1 0x2 DUP3 ADD PUSH1 0x0 SWAP1 SLOAD SWAP1 PUSH2 0x100 EXP SWAP1 DIV PUSH1 0xFF AND PUSH1 0x6 DUP2 GT ISZERO PUSH2 0x4D3 JUMPI PUSH2 0x4D2 PUSH2 0x1FF4 JUMP JUMPDEST JUMPDEST PUSH1 0x6 DUP2 GT ISZERO PUSH2 0x4E5 JUMPI PUSH2 0x4E4 PUSH2 0x1FF4 JUMP JUMPDEST JUMPDEST DUP2 MSTORE PUSH1 0x20 ADD PUSH1 0x2 DUP3 ADD PUSH1 0x1 SWAP1 SLOAD SWAP1 PUSH2 0x100 EXP SWAP1 DIV PUSH1 0xFF AND PUSH1 0x2 DUP2 GT ISZERO PUSH2 0x50E JUMPI PUSH2 0x50D PUSH2 0x1FF4 JUMP JUMPDEST JUMPDEST PUSH1 0x2 DUP2 GT ISZERO PUSH2 0x520 JUMPI PUSH2 0x51F PUSH2 0x1FF4 JUMP JUMPDEST JUMPDEST DUP2 MSTORE PUSH1 0x20 ADD PUSH1 0x3 DUP3 ADD SLOAD DUP2 MSTORE PUSH1 0x20 ADD PUSH1 0x4 DUP3 ADD SLOAD DUP2 MSTORE PUSH1 0x20 ADD PUSH1 0x5 DUP3 ADD PUSH1 0x0 SWAP1 SLOAD SWAP1 PUSH2 0x100 EXP SWAP1 DIV PUSH20 0xFFFFFFFFFFFFFFFFFFFFFFFFFFFFFFFFFFFFFFFF AND PUSH20 0xFFFFFFFFFFFFFFFFFFFFFFFFFFFFFFFFFFFFFFFF AND PUSH20 0xFFFFFFFFFFFFFFFFFFFFFFFFFFFFFFFFFFFFFFFF AND DUP2 MSTORE POP POP DUP4 DUP4 DUP2 MLOAD DUP2 LT PUSH2 0x5A1 JUMPI PUSH2 0x5A0 PUSH2 0x2052 JUMP JUMPDEST JUMPDEST PUSH1 0x20 MUL PUSH1 0x20 ADD ADD DUP2 SWAP1 MSTORE POP PUSH1 0x1 DUP3 PUSH2 0x5B9 SWAP2 SWAP1 PUSH2 0x1DEF JUMP JUMPDEST SWAP2 POP JUMPDEST DUP1 DUP1 PUSH2 0x5C7 SWAP1 PUSH2 0x1F7C JUMP JUMPDEST SWAP2 POP POP PUSH2 0x243 JUMP JUMPDEST POP DUP1 PUSH8 0xFFFFFFFFFFFFFFFF DUP2 GT ISZERO PUSH2 0x5EA JUMPI PUSH2 0x5E9 PUSH2 0x2081 JUMP JUMPDEST JUMPDEST PUSH1 0x40 MLOAD SWAP1 DUP1 DUP3 MSTORE DUP1 PUSH1 0x20 MUL PUSH1 0x20 ADD DUP3 ADD PUSH1 0x40 MSTORE DUP1 ISZERO PUSH2 0x623 JUMPI DUP2 PUSH1 0x20 ADD JUMPDEST PUSH2 0x610 PUSH2 0x1469 JUMP JUMPDEST DUP2 MSTORE PUSH1 0x20 ADD SWAP1 PUSH1 0x1 SWAP1 SUB SWAP1 DUP2 PUSH2 0x608 JUMPI SWAP1 POP JUMPDEST POP SWAP4 POP PUSH1 0x0 JUMPDEST DUP2 DUP2 LT ISZERO PUSH2 0x67D JUMPI DUP3 DUP2 DUP2 MLOAD DUP2 LT PUSH2 0x644 JUMPI PUSH2 0x643 PUSH2 0x2052 JUMP JUMPDEST JUMPDEST PUSH1 0x20 MUL PUSH1 0x20 ADD ADD MLOAD DUP6 DUP3 DUP2 MLOAD DUP2 LT PUSH2 0x65F JUMPI PUSH2 0x65E PUSH2 0x2052 JUMP JUMPDEST JUMPDEST PUSH1 0x20 MUL PUSH1 0x20 ADD ADD DUP2 SWAP1 MSTORE POP DUP1 DUP1 PUSH2 0x675 SWAP1 PUSH2 0x1F7C JUMP JUMPDEST SWAP2 POP POP PUSH2 0x629 JUMP JUMPDEST POP POP POP POP SWAP2 SWAP1 POP JUMP JUMPDEST PUSH1 0x4 DUP2 DUP2 SLOAD DUP2 LT PUSH2 0x696 JUMPI PUSH1 0x0 DUP1 REVERT JUMPDEST SWAP1 PUSH1 0x0 MSTORE PUSH1 0x20 PUSH1 0x0 KECCAK256 SWAP1 PUSH1 0x6 MUL ADD PUSH1 0x0 SWAP2 POP SWAP1 POP DUP1 PUSH1 0x0 ADD DUP1 SLOAD PUSH2 0x6B9 SWAP1 PUSH2 0x1F19 JUMP JUMPDEST DUP1 PUSH1 0x1F ADD PUSH1 0x20 DUP1 SWAP2 DIV MUL PUSH1 0x20 ADD PUSH1 0x40 MLOAD SWAP1 DUP2 ADD PUSH1 0x40 MSTORE DUP1 SWAP3 SWAP2 SWAP1 DUP2 DUP2 MSTORE PUSH1 0x20 ADD DUP3 DUP1 SLOAD PUSH2 0x6E5 SWAP1 PUSH2 0x1F19 JUMP JUMPDEST DUP1 ISZERO PUSH2 0x732 JUMPI DUP1 PUSH1 0x1F LT PUSH2 0x707 JUMPI PUSH2 0x100 DUP1 DUP4 SLOAD DIV MUL DUP4 MSTORE SWAP2 PUSH1 0x20 ADD SWAP2 PUSH2 0x732 JUMP JUMPDEST DUP3 ADD SWAP2 SWAP1 PUSH1 0x0 MSTORE PUSH1 0x20 PUSH1 0x0 KECCAK256 SWAP1 JUMPDEST DUP2 SLOAD DUP2 MSTORE SWAP1 PUSH1 0x1 ADD SWAP1 PUSH1 0x20 ADD DUP1 DUP4 GT PUSH2 0x715 JUMPI DUP3 SWAP1 SUB PUSH1 0x1F AND DUP3 ADD SWAP2 JUMPDEST POP POP POP POP POP SWAP1 DUP1 PUSH1 0x1 ADD DUP1 SLOAD PUSH2 0x747 SWAP1 PUSH2 0x1F19 JUMP JUMPDEST DUP1 PUSH1 0x1F ADD PUSH1 0x20 DUP1 SWAP2 DIV MUL PUSH1 0x20 ADD PUSH1 0x40 MLOAD SWAP1 DUP2 ADD PUSH1 0x40 MSTORE DUP1 SWAP3 SWAP2 SWAP1 DUP2 DUP2 MSTORE PUSH1 0x20 ADD DUP3 DUP1 SLOAD PUSH2 0x773 SWAP1 PUSH2 0x1F19 JUMP JUMPDEST DUP1 ISZERO PUSH2 0x7C0 JUMPI DUP1 PUSH1 0x1F LT PUSH2 0x795 JUMPI PUSH2 0x100 DUP1 DUP4 SLOAD DIV MUL DUP4 MSTORE SWAP2 PUSH1 0x20 ADD SWAP2 PUSH2 0x7C0 JUMP JUMPDEST DUP3 ADD SWAP2 SWAP1 PUSH1 0x0 MSTORE PUSH1 0x20 PUSH1 0x0 KECCAK256 SWAP1 JUMPDEST DUP2 SLOAD DUP2 MSTORE SWAP1 PUSH1 0x1 ADD SWAP1 PUSH1 0x20 ADD DUP1 DUP4 GT PUSH2 0x7A3 JUMPI DUP3 SWAP1 SUB PUSH1 0x1F AND DUP3 ADD SWAP2 JUMPDEST POP POP POP POP POP SWAP1 DUP1 PUSH1 0x2 ADD SLOAD SWAP1 DUP1 PUSH1 0x3 ADD PUSH1 0x0 SWAP1 SLOAD SWAP1 PUSH2 0x100 EXP SWAP1 DIV PUSH20 0xFFFFFFFFFFFFFFFFFFFFFFFFFFFFFFFFFFFFFFFF AND SWAP1 DUP1 PUSH1 0x4 ADD PUSH1 0x0 SWAP1 SLOAD SWAP1 PUSH2 0x100 EXP SWAP1 DIV PUSH20 0xFFFFFFFFFFFFFFFFFFFFFFFFFFFFFFFFFFFFFFFF AND SWAP1 DUP1 PUSH1 0x5 ADD SLOAD SWAP1 POP DUP7 JUMP JUMPDEST PUSH1 0x60 PUSH1 0x0 DUP1 PUSH1 0x4 DUP1 SLOAD SWAP1 POP PUSH8 0xFFFFFFFFFFFFFFFF DUP2 GT ISZERO PUSH2 0x846 JUMPI PUSH2 0x845 PUSH2 0x2081 JUMP JUMPDEST JUMPDEST PUSH1 0x40 MLOAD SWAP1 DUP1 DUP3 MSTORE DUP1 PUSH1 0x20 MUL PUSH1 0x20 ADD DUP3 ADD PUSH1 0x40 MSTORE DUP1 ISZERO PUSH2 0x87F JUMPI DUP2 PUSH1 0x20 ADD JUMPDEST PUSH2 0x86C PUSH2 0x14E0 JUMP JUMPDEST DUP2 MSTORE PUSH1 0x20 ADD SWAP1 PUSH1 0x1 SWAP1 SUB SWAP1 DUP2 PUSH2 0x864 JUMPI SWAP1 POP JUMPDEST POP SWAP1 POP PUSH1 0x0 JUMPDEST PUSH1 0x4 DUP1 SLOAD SWAP1 POP DUP2 LT ISZERO PUSH2 0xB9F JUMPI PUSH2 0x949 PUSH1 0x4 DUP3 DUP2 SLOAD DUP2 LT PUSH2 0x8A9 JUMPI PUSH2 0x8A8 PUSH2 0x2052 JUMP JUMPDEST JUMPDEST SWAP1 PUSH1 0x0 MSTORE PUSH1 0x20 PUSH1 0x0 KECCAK256 SWAP1 PUSH1 0x6 MUL ADD PUSH1 0x0 ADD DUP1 SLOAD PUSH2 0x8C5 SWAP1 PUSH2 0x1F19 JUMP JUMPDEST DUP1 PUSH1 0x1F ADD PUSH1 0x20 DUP1 SWAP2 DIV MUL PUSH1 0x20 ADD PUSH1 0x40 MLOAD SWAP1 DUP2 ADD PUSH1 0x40 MSTORE DUP1 SWAP3 SWAP2 SWAP1 DUP2 DUP2 MSTORE PUSH1 0x20 ADD DUP3 DUP1 SLOAD PUSH2 0x8F1 SWAP1 PUSH2 0x1F19 JUMP JUMPDEST DUP1 ISZERO PUSH2 0x93E JUMPI DUP1 PUSH1 0x1F LT PUSH2 0x913 JUMPI PUSH2 0x100 DUP1 DUP4 SLOAD DIV MUL DUP4 MSTORE SWAP2 PUSH1 0x20 ADD SWAP2 PUSH2 0x93E JUMP JUMPDEST DUP3 ADD SWAP2 SWAP1 PUSH1 0x0 MSTORE PUSH1 0x20 PUSH1 0x0 KECCAK256 SWAP1 JUMPDEST DUP2 SLOAD DUP2 MSTORE SWAP1 PUSH1 0x1 ADD SWAP1 PUSH1 0x20 ADD DUP1 DUP4 GT PUSH2 0x921 JUMPI DUP3 SWAP1 SUB PUSH1 0x1F AND DUP3 ADD SWAP2 JUMPDEST POP POP POP POP POP DUP7 PUSH2 0x1410 JUMP JUMPDEST ISZERO PUSH2 0xB8C JUMPI PUSH1 0x4 DUP2 DUP2 SLOAD DUP2 LT PUSH2 0x962 JUMPI PUSH2 0x961 PUSH2 0x2052 JUMP JUMPDEST JUMPDEST SWAP1 PUSH1 0x0 MSTORE PUSH1 0x20 PUSH1 0x0 KECCAK256 SWAP1 PUSH1 0x6 MUL ADD PUSH1 0x40 MLOAD DUP1 PUSH1 0xC0 ADD PUSH1 0x40 MSTORE SWAP1 DUP2 PUSH1 0x0 DUP3 ADD DUP1 SLOAD PUSH2 0x98B SWAP1 PUSH2 0x1F19 JUMP JUMPDEST DUP1 PUSH1 0x1F ADD PUSH1 0x20 DUP1 SWAP2 DIV MUL PUSH1 0x20 ADD PUSH1 0x40 MLOAD SWAP1 DUP2 ADD PUSH1 0x40 MSTORE DUP1 SWAP3 SWAP2 SWAP1 DUP2 DUP2 MSTORE PUSH1 0x20 ADD DUP3 DUP1 SLOAD PUSH2 0x9B7 SWAP1 PUSH2 0x1F19 JUMP JUMPDEST DUP1 ISZERO PUSH2 0xA04 JUMPI DUP1 PUSH1 0x1F LT PUSH2 0x9D9 JUMPI PUSH2 0x100 DUP1 DUP4 SLOAD DIV MUL DUP4 MSTORE SWAP2 PUSH1 0x20 ADD SWAP2 PUSH2 0xA04 JUMP JUMPDEST DUP3 ADD SWAP2 SWAP1 PUSH1 0x0 MSTORE PUSH1 0x20 PUSH1 0x0 KECCAK256 SWAP1 JUMPDEST DUP2 SLOAD DUP2 MSTORE SWAP1 PUSH1 0x1 ADD SWAP1 PUSH1 0x20 ADD DUP1 DUP4 GT PUSH2 0x9E7 JUMPI DUP3 SWAP1 SUB PUSH1 0x1F AND DUP3 ADD SWAP2 JUMPDEST POP POP POP POP POP DUP2 MSTORE PUSH1 0x20 ADD PUSH1 0x1 DUP3 ADD DUP1 SLOAD PUSH2 0xA1D SWAP1 PUSH2 0x1F19 JUMP JUMPDEST DUP1 PUSH1 0x1F ADD PUSH1 0x20 DUP1 SWAP2 DIV MUL PUSH1 0x20 ADD PUSH1 0x40 MLOAD SWAP1 DUP2 ADD PUSH1 0x40 MSTORE DUP1 SWAP3 SWAP2 SWAP1 DUP2 DUP2 MSTORE PUSH1 0x20 ADD DUP3 DUP1 SLOAD PUSH2 0xA49 SWAP1 PUSH2 0x1F19 JUMP JUMPDEST DUP1 ISZERO PUSH2 0xA96 JUMPI DUP1 PUSH1 0x1F LT PUSH2 0xA6B JUMPI PUSH2 0x100 DUP1 DUP4 SLOAD DIV MUL DUP4 MSTORE SWAP2 PUSH1 0x20 ADD SWAP2 PUSH2 0xA96 JUMP JUMPDEST DUP3 ADD SWAP2 SWAP1 PUSH1 0x0 MSTORE PUSH1 0x20 PUSH1 0x0 KECCAK256 SWAP1 JUMPDEST DUP2 SLOAD DUP2 MSTORE SWAP1 PUSH1 0x1 ADD SWAP1 PUSH1 0x20 ADD DUP1 DUP4 GT PUSH2 0xA79 JUMPI DUP3 SWAP1 SUB PUSH1 0x1F AND DUP3 ADD SWAP2 JUMPDEST POP POP POP POP POP DUP2 MSTORE PUSH1 0x20 ADD PUSH1 0x2 DUP3 ADD SLOAD DUP2 MSTORE PUSH1 0x20 ADD PUSH1 0x3 DUP3 ADD PUSH1 0x0 SWAP1 SLOAD SWAP1 PUSH2 0x100 EXP SWAP1 DIV PUSH20 0xFFFFFFFFFFFFFFFFFFFFFFFFFFFFFFFFFFFFFFFF AND PUSH20 0xFFFFFFFFFFFFFFFFFFFFFFFFFFFFFFFFFFFFFFFF AND PUSH20 0xFFFFFFFFFFFFFFFFFFFFFFFFFFFFFFFFFFFFFFFF AND DUP2 MSTORE PUSH1 0x20 ADD PUSH1 0x4 DUP3 ADD PUSH1 0x0 SWAP1 SLOAD SWAP1 PUSH2 0x100 EXP SWAP1 DIV PUSH20 0xFFFFFFFFFFFFFFFFFFFFFFFFFFFFFFFFFFFFFFFF AND PUSH20 0xFFFFFFFFFFFFFFFFFFFFFFFFFFFFFFFFFFFFFFFF AND PUSH20 0xFFFFFFFFFFFFFFFFFFFFFFFFFFFFFFFFFFFFFFFF AND DUP2 MSTORE PUSH1 0x20 ADD PUSH1 0x5 DUP3 ADD SLOAD DUP2 MSTORE POP POP DUP3 DUP5 DUP2 MLOAD DUP2 LT PUSH2 0xB72 JUMPI PUSH2 0xB71 PUSH2 0x2052 JUMP JUMPDEST JUMPDEST PUSH1 0x20 MUL PUSH1 0x20 ADD ADD DUP2 SWAP1 MSTORE POP DUP3 DUP1 PUSH2 0xB88 SWAP1 PUSH2 0x1F7C JUMP JUMPDEST SWAP4 POP POP JUMPDEST DUP1 DUP1 PUSH2 0xB97 SWAP1 PUSH2 0x1F7C JUMP JUMPDEST SWAP2 POP POP PUSH2 0x885 JUMP JUMPDEST POP DUP2 PUSH8 0xFFFFFFFFFFFFFFFF DUP2 GT ISZERO PUSH2 0xBBA JUMPI PUSH2 0xBB9 PUSH2 0x2081 JUMP JUMPDEST JUMPDEST PUSH1 0x40 MLOAD SWAP1 DUP1 DUP3 MSTORE DUP1 PUSH1 0x20 MUL PUSH1 0x20 ADD DUP3 ADD PUSH1 0x40 MSTORE DUP1 ISZERO PUSH2 0xBF3 JUMPI DUP2 PUSH1 0x20 ADD JUMPDEST PUSH2 0xBE0 PUSH2 0x14E0 JUMP JUMPDEST DUP2 MSTORE PUSH1 0x20 ADD SWAP1 PUSH1 0x1 SWAP1 SUB SWAP1 DUP2 PUSH2 0xBD8 JUMPI SWAP1 POP JUMPDEST POP SWAP3 POP PUSH1 0x0 DUP3 GT ISZERO PUSH2 0xC58 JUMPI PUSH1 0x0 JUMPDEST DUP3 DUP2 LT ISZERO PUSH2 0xC56 JUMPI DUP2 DUP2 DUP2 MLOAD DUP2 LT PUSH2 0xC1D JUMPI PUSH2 0xC1C PUSH2 0x2052 JUMP JUMPDEST JUMPDEST PUSH1 0x20 MUL PUSH1 0x20 ADD ADD MLOAD DUP5 DUP3 DUP2 MLOAD DUP2 LT PUSH2 0xC38 JUMPI PUSH2 0xC37 PUSH2 0x2052 JUMP JUMPDEST JUMPDEST PUSH1 0x20 MUL PUSH1 0x20 ADD ADD DUP2 SWAP1 MSTORE POP DUP1 DUP1 PUSH2 0xC4E SWAP1 PUSH2 0x1F7C JUMP JUMPDEST SWAP2 POP POP PUSH2 0xC02 JUMP JUMPDEST POP JUMPDEST POP POP SWAP2 SWAP1 POP JUMP JUMPDEST PUSH1 0x60 PUSH1 0x0 DUP1 PUSH1 0x4 DUP1 SLOAD SWAP1 POP PUSH8 0xFFFFFFFFFFFFFFFF DUP2 GT ISZERO PUSH2 0xC83 JUMPI PUSH2 0xC82 PUSH2 0x2081 JUMP JUMPDEST JUMPDEST PUSH1 0x40 MLOAD SWAP1 DUP1 DUP3 MSTORE DUP1 PUSH1 0x20 MUL PUSH1 0x20 ADD DUP3 ADD PUSH1 0x40 MSTORE DUP1 ISZERO PUSH2 0xCBC JUMPI DUP2 PUSH1 0x20 ADD JUMPDEST PUSH2 0xCA9 PUSH2 0x14E0 JUMP JUMPDEST DUP2 MSTORE PUSH1 0x20 ADD SWAP1 PUSH1 0x1 SWAP1 SUB SWAP1 DUP2 PUSH2 0xCA1 JUMPI SWAP1 POP JUMPDEST POP SWAP1 POP PUSH1 0x0 JUMPDEST PUSH1 0x4 DUP1 SLOAD SWAP1 POP DUP2 LT ISZERO PUSH2 0xF99 JUMPI DUP5 PUSH20 0xFFFFFFFFFFFFFFFFFFFFFFFFFFFFFFFFFFFFFFFF AND PUSH1 0x4 DUP3 DUP2 SLOAD DUP2 LT PUSH2 0xCFA JUMPI PUSH2 0xCF9 PUSH2 0x2052 JUMP JUMPDEST JUMPDEST SWAP1 PUSH1 0x0 MSTORE PUSH1 0x20 PUSH1 0x0 KECCAK256 SWAP1 PUSH1 0x6 MUL ADD PUSH1 0x4 ADD PUSH1 0x0 SWAP1 SLOAD SWAP1 PUSH2 0x100 EXP SWAP1 DIV PUSH20 0xFFFFFFFFFFFFFFFFFFFFFFFFFFFFFFFFFFFFFFFF AND PUSH20 0xFFFFFFFFFFFFFFFFFFFFFFFFFFFFFFFFFFFFFFFF AND EQ ISZERO PUSH2 0xF86 JUMPI PUSH1 0x4 DUP2 DUP2 SLOAD DUP2 LT PUSH2 0xD5C JUMPI PUSH2 0xD5B PUSH2 0x2052 JUMP JUMPDEST JUMPDEST SWAP1 PUSH1 0x0 MSTORE PUSH1 0x20 PUSH1 0x0 KECCAK256 SWAP1 PUSH1 0x6 MUL ADD PUSH1 0x40 MLOAD DUP1 PUSH1 0xC0 ADD PUSH1 0x40 MSTORE SWAP1 DUP2 PUSH1 0x0 DUP3 ADD DUP1 SLOAD PUSH2 0xD85 SWAP1 PUSH2 0x1F19 JUMP JUMPDEST DUP1 PUSH1 0x1F ADD PUSH1 0x20 DUP1 SWAP2 DIV MUL PUSH1 0x20 ADD PUSH1 0x40 MLOAD SWAP1 DUP2 ADD PUSH1 0x40 MSTORE DUP1 SWAP3 SWAP2 SWAP1 DUP2 DUP2 MSTORE PUSH1 0x20 ADD DUP3 DUP1 SLOAD PUSH2 0xDB1 SWAP1 PUSH2 0x1F19 JUMP JUMPDEST DUP1 ISZERO PUSH2 0xDFE JUMPI DUP1 PUSH1 0x1F LT PUSH2 0xDD3 JUMPI PUSH2 0x100 DUP1 DUP4 SLOAD DIV MUL DUP4 MSTORE SWAP2 PUSH1 0x20 ADD SWAP2 PUSH2 0xDFE JUMP JUMPDEST DUP3 ADD SWAP2 SWAP1 PUSH1 0x0 MSTORE PUSH1 0x20 PUSH1 0x0 KECCAK256 SWAP1 JUMPDEST DUP2 SLOAD DUP2 MSTORE SWAP1 PUSH1 0x1 ADD SWAP1 PUSH1 0x20 ADD DUP1 DUP4 GT PUSH2 0xDE1 JUMPI DUP3 SWAP1 SUB PUSH1 0x1F AND DUP3 ADD SWAP2 JUMPDEST POP POP POP POP POP DUP2 MSTORE PUSH1 0x20 ADD PUSH1 0x1 DUP3 ADD DUP1 SLOAD PUSH2 0xE17 SWAP1 PUSH2 0x1F19 JUMP JUMPDEST DUP1 PUSH1 0x1F ADD PUSH1 0x20 DUP1 SWAP2 DIV MUL PUSH1 0x20 ADD PUSH1 0x40 MLOAD SWAP1 DUP2 ADD PUSH1 0x40 MSTORE DUP1 SWAP3 SWAP2 SWAP1 DUP2 DUP2 MSTORE PUSH1 0x20 ADD DUP3 DUP1 SLOAD PUSH2 0xE43 SWAP1 PUSH2 0x1F19 JUMP JUMPDEST DUP1 ISZERO PUSH2 0xE90 JUMPI DUP1 PUSH1 0x1F LT PUSH2 0xE65 JUMPI PUSH2 0x100 DUP1 DUP4 SLOAD DIV MUL DUP4 MSTORE SWAP2 PUSH1 0x20 ADD SWAP2 PUSH2 0xE90 JUMP JUMPDEST DUP3 ADD SWAP2 SWAP1 PUSH1 0x0 MSTORE PUSH1 0x20 PUSH1 0x0 KECCAK256 SWAP1 JUMPDEST DUP2 SLOAD DUP2 MSTORE SWAP1 PUSH1 0x1 ADD SWAP1 PUSH1 0x20 ADD DUP1 DUP4 GT PUSH2 0xE73 JUMPI DUP3 SWAP1 SUB PUSH1 0x1F AND DUP3 ADD SWAP2 JUMPDEST POP POP POP POP POP DUP2 MSTORE PUSH1 0x20 ADD PUSH1 0x2 DUP3 ADD SLOAD DUP2 MSTORE PUSH1 0x20 ADD PUSH1 0x3 DUP3 ADD PUSH1 0x0 SWAP1 SLOAD SWAP1 PUSH2 0x100 EXP SWAP1 DIV PUSH20 0xFFFFFFFFFFFFFFFFFFFFFFFFFFFFFFFFFFFFFFFF AND PUSH20 0xFFFFFFFFFFFFFFFFFFFFFFFFFFFFFFFFFFFFFFFF AND PUSH20 0xFFFFFFFFFFFFFFFFFFFFFFFFFFFFFFFFFFFFFFFF AND DUP2 MSTORE PUSH1 0x20 ADD PUSH1 0x4 DUP3 ADD PUSH1 0x0 SWAP1 SLOAD SWAP1 PUSH2 0x100 EXP SWAP1 DIV PUSH20 0xFFFFFFFFFFFFFFFFFFFFFFFFFFFFFFFFFFFFFFFF AND PUSH20 0xFFFFFFFFFFFFFFFFFFFFFFFFFFFFFFFFFFFFFFFF AND PUSH20 0xFFFFFFFFFFFFFFFFFFFFFFFFFFFFFFFFFFFFFFFF AND DUP2 MSTORE PUSH1 0x20 ADD PUSH1 0x5 DUP3 ADD SLOAD DUP2 MSTORE POP POP DUP3 DUP5 DUP2 MLOAD DUP2 LT PUSH2 0xF6C JUMPI PUSH2 0xF6B PUSH2 0x2052 JUMP JUMPDEST JUMPDEST PUSH1 0x20 MUL PUSH1 0x20 ADD ADD DUP2 SWAP1 MSTORE POP DUP3 DUP1 PUSH2 0xF82 SWAP1 PUSH2 0x1F7C JUMP JUMPDEST SWAP4 POP POP JUMPDEST DUP1 DUP1 PUSH2 0xF91 SWAP1 PUSH2 0x1F7C JUMP JUMPDEST SWAP2 POP POP PUSH2 0xCC2 JUMP JUMPDEST POP DUP2 PUSH8 0xFFFFFFFFFFFFFFFF DUP2 GT ISZERO PUSH2 0xFB4 JUMPI PUSH2 0xFB3 PUSH2 0x2081 JUMP JUMPDEST JUMPDEST PUSH1 0x40 MLOAD SWAP1 DUP1 DUP3 MSTORE DUP1 PUSH1 0x20 MUL PUSH1 0x20 ADD DUP3 ADD PUSH1 0x40 MSTORE DUP1 ISZERO PUSH2 0xFED JUMPI DUP2 PUSH1 0x20 ADD JUMPDEST PUSH2 0xFDA PUSH2 0x14E0 JUMP JUMPDEST DUP2 MSTORE PUSH1 0x20 ADD SWAP1 PUSH1 0x1 SWAP1 SUB SWAP1 DUP2 PUSH2 0xFD2 JUMPI SWAP1 POP JUMPDEST POP SWAP3 POP PUSH1 0x0 DUP3 GT ISZERO PUSH2 0x1052 JUMPI PUSH1 0x0 JUMPDEST DUP3 DUP2 LT ISZERO PUSH2 0x1050 JUMPI DUP2 DUP2 DUP2 MLOAD DUP2 LT PUSH2 0x1017 JUMPI PUSH2 0x1016 PUSH2 0x2052 JUMP JUMPDEST JUMPDEST PUSH1 0x20 MUL PUSH1 0x20 ADD ADD MLOAD DUP5 DUP3 DUP2 MLOAD DUP2 LT PUSH2 0x1032 JUMPI PUSH2 0x1031 PUSH2 0x2052 JUMP JUMPDEST JUMPDEST PUSH1 0x20 MUL PUSH1 0x20 ADD ADD DUP2 SWAP1 MSTORE POP DUP1 DUP1 PUSH2 0x1048 SWAP1 PUSH2 0x1F7C JUMP JUMPDEST SWAP2 POP POP PUSH2 0xFFC JUMP JUMPDEST POP JUMPDEST POP POP SWAP2 SWAP1 POP JUMP JUMPDEST PUSH2 0x1061 PUSH2 0x1469 JUMP JUMPDEST PUSH1 0x0 DUP1 DUP4 PUSH20 0xFFFFFFFFFFFFFFFFFFFFFFFFFFFFFFFFFFFFFFFF AND PUSH20 0xFFFFFFFFFFFFFFFFFFFFFFFFFFFFFFFFFFFFFFFF AND DUP2 MSTORE PUSH1 0x20 ADD SWAP1 DUP2 MSTORE PUSH1 0x20 ADD PUSH1 0x0 KECCAK256 PUSH1 0x40 MLOAD DUP1 PUSH1 0xE0 ADD PUSH1 0x40 MSTORE SWAP1 DUP2 PUSH1 0x0 DUP3 ADD DUP1 SLOAD PUSH2 0x10BA SWAP1 PUSH2 0x1F19 JUMP JUMPDEST DUP1 PUSH1 0x1F ADD PUSH1 0x20 DUP1 SWAP2 DIV MUL PUSH1 0x20 ADD PUSH1 0x40 MLOAD SWAP1 DUP2 ADD PUSH1 0x40 MSTORE DUP1 SWAP3 SWAP2 SWAP1 DUP2 DUP2 MSTORE PUSH1 0x20 ADD DUP3 DUP1 SLOAD PUSH2 0x10E6 SWAP1 PUSH2 0x1F19 JUMP JUMPDEST DUP1 ISZERO PUSH2 0x1133 JUMPI DUP1 PUSH1 0x1F LT PUSH2 0x1108 JUMPI PUSH2 0x100 DUP1 DUP4 SLOAD DIV MUL DUP4 MSTORE SWAP2 PUSH1 0x20 ADD SWAP2 PUSH2 0x1133 JUMP JUMPDEST DUP3 ADD SWAP2 SWAP1 PUSH1 0x0 MSTORE PUSH1 0x20 PUSH1 0x0 KECCAK256 SWAP1 JUMPDEST DUP2 SLOAD DUP2 MSTORE SWAP1 PUSH1 0x1 ADD SWAP1 PUSH1 0x20 ADD DUP1 DUP4 GT PUSH2 0x1116 JUMPI DUP3 SWAP1 SUB PUSH1 0x1F AND DUP3 ADD SWAP2 JUMPDEST POP POP POP POP POP DUP2 MSTORE PUSH1 0x20 ADD PUSH1 0x1 DUP3 ADD DUP1 SLOAD PUSH2 0x114C SWAP1 PUSH2 0x1F19 JUMP JUMPDEST DUP1 PUSH1 0x1F ADD PUSH1 0x20 DUP1 SWAP2 DIV MUL PUSH1 0x20 ADD PUSH1 0x40 MLOAD SWAP1 DUP2 ADD PUSH1 0x40 MSTORE DUP1 SWAP3 SWAP2 SWAP1 DUP2 DUP2 MSTORE PUSH1 0x20 ADD DUP3 DUP1 SLOAD PUSH2 0x1178 SWAP1 PUSH2 0x1F19 JUMP JUMPDEST DUP1 ISZERO PUSH2 0x11C5 JUMPI DUP1 PUSH1 0x1F LT PUSH2 0x119A JUMPI PUSH2 0x100 DUP1 DUP4 SLOAD DIV MUL DUP4 MSTORE SWAP2 PUSH1 0x20 ADD SWAP2 PUSH2 0x11C5 JUMP JUMPDEST DUP3 ADD SWAP2 SWAP1 PUSH1 0x0 MSTORE PUSH1 0x20 PUSH1 0x0 KECCAK256 SWAP1 JUMPDEST DUP2 SLOAD DUP2 MSTORE SWAP1 PUSH1 0x1 ADD SWAP1 PUSH1 0x20 ADD DUP1 DUP4 GT PUSH2 0x11A8 JUMPI DUP3 SWAP1 SUB PUSH1 0x1F AND DUP3 ADD SWAP2 JUMPDEST POP POP POP POP POP DUP2 MSTORE PUSH1 0x20 ADD PUSH1 0x2 DUP3 ADD PUSH1 0x0 SWAP1 SLOAD SWAP1 PUSH2 0x100 EXP SWAP1 DIV PUSH1 0xFF AND PUSH1 0x6 DUP2 GT ISZERO PUSH2 0x11F3 JUMPI PUSH2 0x11F2 PUSH2 0x1FF4 JUMP JUMPDEST JUMPDEST PUSH1 0x6 DUP2 GT ISZERO PUSH2 0x1205 JUMPI PUSH2 0x1204 PUSH2 0x1FF4 JUMP JUMPDEST JUMPDEST DUP2 MSTORE PUSH1 0x20 ADD PUSH1 0x2 DUP3 ADD PUSH1 0x1 SWAP1 SLOAD SWAP1 PUSH2 0x100 EXP SWAP1 DIV PUSH1 0xFF AND PUSH1 0x2 DUP2 GT ISZERO PUSH2 0x122E JUMPI PUSH2 0x122D PUSH2 0x1FF4 JUMP JUMPDEST JUMPDEST PUSH1 0x2 DUP2 GT ISZERO PUSH2 0x1240 JUMPI PUSH2 0x123F PUSH2 0x1FF4 JUMP JUMPDEST JUMPDEST DUP2 MSTORE PUSH1 0x20 ADD PUSH1 0x3 DUP3 ADD SLOAD DUP2 MSTORE PUSH1 0x20 ADD PUSH1 0x4 DUP3 ADD SLOAD DUP2 MSTORE PUSH1 0x20 ADD PUSH1 0x5 DUP3 ADD PUSH1 0x0 SWAP1 SLOAD SWAP1 PUSH2 0x100 EXP SWAP1 DIV PUSH20 0xFFFFFFFFFFFFFFFFFFFFFFFFFFFFFFFFFFFFFFFF AND PUSH20 0xFFFFFFFFFFFFFFFFFFFFFFFFFFFFFFFFFFFFFFFF AND PUSH20 0xFFFFFFFFFFFFFFFFFFFFFFFFFFFFFFFFFFFFFFFF AND DUP2 MSTORE POP POP SWAP1 POP SWAP2 SWAP1 POP JUMP JUMPDEST PUSH2 0x12BD PUSH2 0x1542 JUMP JUMPDEST PUSH1 0x2 DUP3 PUSH1 0x40 MLOAD PUSH2 0x12CD SWAP2 SWAP1 PUSH2 0x1BC6 JUMP JUMPDEST SWAP1 DUP2 MSTORE PUSH1 0x20 ADD PUSH1 0x40 MLOAD DUP1 SWAP2 SUB SWAP1 KECCAK256 PUSH1 0x40 MLOAD DUP1 PUSH1 0x60 ADD PUSH1 0x40 MSTORE SWAP1 DUP2 PUSH1 0x0 DUP3 ADD DUP1 SLOAD PUSH2 0x12F6 SWAP1 PUSH2 0x1F19 JUMP JUMPDEST DUP1 PUSH1 0x1F ADD PUSH1 0x20 DUP1 SWAP2 DIV MUL PUSH1 0x20 ADD PUSH1 0x40 MLOAD SWAP1 DUP2 ADD PUSH1 0x40 MSTORE DUP1 SWAP3 SWAP2 SWAP1 DUP2 DUP2 MSTORE PUSH1 0x20 ADD DUP3 DUP1 SLOAD PUSH2 0x1322 SWAP1 PUSH2 0x1F19 JUMP JUMPDEST DUP1 ISZERO PUSH2 0x136F JUMPI DUP1 PUSH1 0x1F LT PUSH2 0x1344 JUMPI PUSH2 0x100 DUP1 DUP4 SLOAD DIV MUL DUP4 MSTORE SWAP2 PUSH1 0x20 ADD SWAP2 PUSH2 0x136F JUMP JUMPDEST DUP3 ADD SWAP2 SWAP1 PUSH1 0x0 MSTORE PUSH1 0x20 PUSH1 0x0 KECCAK256 SWAP1 JUMPDEST DUP2 SLOAD DUP2 MSTORE SWAP1 PUSH1 0x1 ADD SWAP1 PUSH1 0x20 ADD DUP1 DUP4 GT PUSH2 0x1352 JUMPI DUP3 SWAP1 SUB PUSH1 0x1F AND DUP3 ADD SWAP2 JUMPDEST POP POP POP POP POP DUP2 MSTORE PUSH1 0x20 ADD PUSH1 0x1 DUP3 ADD PUSH1 0x0 SWAP1 SLOAD SWAP1 PUSH2 0x100 EXP SWAP1 DIV PUSH20 0xFFFFFFFFFFFFFFFFFFFFFFFFFFFFFFFFFFFFFFFF AND PUSH20 0xFFFFFFFFFFFFFFFFFFFFFFFFFFFFFFFFFFFFFFFF AND PUSH20 0xFFFFFFFFFFFFFFFFFFFFFFFFFFFFFFFFFFFFFFFF AND DUP2 MSTORE PUSH1 0x20 ADD PUSH1 0x1 DUP3 ADD PUSH1 0x14 SWAP1 SLOAD SWAP1 PUSH2 0x100 EXP SWAP1 DIV PUSH1 0xFF AND PUSH1 0x2 DUP2 GT ISZERO PUSH2 0x13F3 JUMPI PUSH2 0x13F2 PUSH2 0x1FF4 JUMP JUMPDEST JUMPDEST PUSH1 0x2 DUP2 GT ISZERO PUSH2 0x1405 JUMPI PUSH2 0x1404 PUSH2 0x1FF4 JUMP JUMPDEST JUMPDEST DUP2 MSTORE POP POP SWAP1 POP SWAP2 SWAP1 POP JUMP JUMPDEST PUSH1 0x0 DUP2 PUSH1 0x40 MLOAD PUSH1 0x20 ADD PUSH2 0x1423 SWAP2 SWAP1 PUSH2 0x1BC6 JUMP JUMPDEST PUSH1 0x40 MLOAD PUSH1 0x20 DUP2 DUP4 SUB SUB DUP2 MSTORE SWAP1 PUSH1 0x40 MSTORE DUP1 MLOAD SWAP1 PUSH1 0x20 ADD KECCAK256 DUP4 PUSH1 0x40 MLOAD PUSH1 0x20 ADD PUSH2 0x144A SWAP2 SWAP1 PUSH2 0x1BC6 JUMP JUMPDEST PUSH1 0x40 MLOAD PUSH1 0x20 DUP2 DUP4 SUB SUB DUP2 MSTORE SWAP1 PUSH1 0x40 MSTORE DUP1 MLOAD SWAP1 PUSH1 0x20 ADD KECCAK256 EQ SWAP1 POP SWAP3 SWAP2 POP POP JUMP JUMPDEST PUSH1 0x40 MLOAD DUP1 PUSH1 0xE0 ADD PUSH1 0x40 MSTORE DUP1 PUSH1 0x60 DUP2 MSTORE PUSH1 0x20 ADD PUSH1 0x60 DUP2 MSTORE PUSH1 0x20 ADD PUSH1 0x0 PUSH1 0x6 DUP2 GT ISZERO PUSH2 0x1496 JUMPI PUSH2 0x1495 PUSH2 0x1FF4 JUMP JUMPDEST JUMPDEST DUP2 MSTORE PUSH1 0x20 ADD PUSH1 0x0 PUSH1 0x2 DUP2 GT ISZERO PUSH2 0x14AF JUMPI PUSH2 0x14AE PUSH2 0x1FF4 JUMP JUMPDEST JUMPDEST DUP2 MSTORE PUSH1 0x20 ADD PUSH1 0x0 DUP2 MSTORE PUSH1 0x20 ADD PUSH1 0x0 DUP2 MSTORE PUSH1 0x20 ADD PUSH1 0x0 PUSH20 0xFFFFFFFFFFFFFFFFFFFFFFFFFFFFFFFFFFFFFFFF AND DUP2 MSTORE POP SWAP1 JUMP JUMPDEST PUSH1 0x40 MLOAD DUP1 PUSH1 0xC0 ADD PUSH1 0x40 MSTORE DUP1 PUSH1 0x60 DUP2 MSTORE PUSH1 0x20 ADD PUSH1 0x60 DUP2 MSTORE PUSH1 0x20 ADD PUSH1 0x0 DUP2 MSTORE PUSH1 0x20 ADD PUSH1 0x0 PUSH20 0xFFFFFFFFFFFFFFFFFFFFFFFFFFFFFFFFFFFFFFFF AND DUP2 MSTORE PUSH1 0x20 ADD PUSH1 0x0 PUSH20 0xFFFFFFFFFFFFFFFFFFFFFFFFFFFFFFFFFFFFFFFF AND DUP2 MSTORE PUSH1 0x20 ADD PUSH1 0x0 DUP2 MSTORE POP SWAP1 JUMP JUMPDEST PUSH1 0x40 MLOAD DUP1 PUSH1 0x60 ADD PUSH1 0x40 MSTORE DUP1 PUSH1 0x60 DUP2 MSTORE PUSH1 0x20 ADD PUSH1 0x0 PUSH20 0xFFFFFFFFFFFFFFFFFFFFFFFFFFFFFFFFFFFFFFFF AND DUP2 MSTORE PUSH1 0x20 ADD PUSH1 0x0 PUSH1 0x2 DUP2 GT ISZERO PUSH2 0x1585 JUMPI PUSH2 0x1584 PUSH2 0x1FF4 JUMP JUMPDEST JUMPDEST DUP2 MSTORE POP SWAP1 JUMP JUMPDEST PUSH1 0x0 PUSH2 0x159E PUSH2 0x1599 DUP5 PUSH2 0x1D14 JUMP JUMPDEST PUSH2 0x1CEF JUMP JUMPDEST SWAP1 POP DUP3 DUP2 MSTORE PUSH1 0x20 DUP2 ADD DUP5 DUP5 DUP5 ADD GT ISZERO PUSH2 0x15BA JUMPI PUSH2 0x15B9 PUSH2 0x20B5 JUMP JUMPDEST JUMPDEST PUSH2 0x15C5 DUP5 DUP3 DUP6 PUSH2 0x1ED7 JUMP JUMPDEST POP SWAP4 SWAP3 POP POP POP JUMP JUMPDEST PUSH1 0x0 DUP2 CALLDATALOAD SWAP1 POP PUSH2 0x15DC DUP2 PUSH2 0x20FD JUMP JUMPDEST SWAP3 SWAP2 POP POP JUMP JUMPDEST PUSH1 0x0 DUP2 CALLDATALOAD SWAP1 POP PUSH2 0x15F1 DUP2 PUSH2 0x2114 JUMP JUMPDEST SWAP3 SWAP2 POP POP JUMP JUMPDEST PUSH1 0x0 DUP3 PUSH1 0x1F DUP4 ADD SLT PUSH2 0x160C JUMPI PUSH2 0x160B PUSH2 0x20B0 JUMP JUMPDEST JUMPDEST DUP2 CALLDATALOAD PUSH2 0x161C DUP5 DUP3 PUSH1 0x20 DUP7 ADD PUSH2 0x158B JUMP JUMPDEST SWAP2 POP POP SWAP3 SWAP2 POP POP JUMP JUMPDEST PUSH1 0x0 DUP2 CALLDATALOAD SWAP1 POP PUSH2 0x1634 DUP2 PUSH2 0x2124 JUMP JUMPDEST SWAP3 SWAP2 POP POP JUMP JUMPDEST PUSH1 0x0 PUSH1 0x20 DUP3 DUP5 SUB SLT ISZERO PUSH2 0x1650 JUMPI PUSH2 0x164F PUSH2 0x20BF JUMP JUMPDEST JUMPDEST PUSH1 0x0 PUSH2 0x165E DUP5 DUP3 DUP6 ADD PUSH2 0x15CD JUMP JUMPDEST SWAP2 POP POP SWAP3 SWAP2 POP POP JUMP JUMPDEST PUSH1 0x0 PUSH1 0x20 DUP3 DUP5 SUB SLT ISZERO PUSH2 0x167D JUMPI PUSH2 0x167C PUSH2 0x20BF JUMP JUMPDEST JUMPDEST PUSH1 0x0 PUSH2 0x168B DUP5 DUP3 DUP6 ADD PUSH2 0x15E2 JUMP JUMPDEST SWAP2 POP POP SWAP3 SWAP2 POP POP JUMP JUMPDEST PUSH1 0x0 PUSH1 0x20 DUP3 DUP5 SUB SLT ISZERO PUSH2 0x16AA JUMPI PUSH2 0x16A9 PUSH2 0x20BF JUMP JUMPDEST JUMPDEST PUSH1 0x0 DUP3 ADD CALLDATALOAD PUSH8 0xFFFFFFFFFFFFFFFF DUP2 GT ISZERO PUSH2 0x16C8 JUMPI PUSH2 0x16C7 PUSH2 0x20BA JUMP JUMPDEST JUMPDEST PUSH2 0x16D4 DUP5 DUP3 DUP6 ADD PUSH2 0x15F7 JUMP JUMPDEST SWAP2 POP POP SWAP3 SWAP2 POP POP JUMP JUMPDEST PUSH1 0x0 DUP1 PUSH1 0x40 DUP4 DUP6 SUB SLT ISZERO PUSH2 0x16F4 JUMPI PUSH2 0x16F3 PUSH2 0x20BF JUMP JUMPDEST JUMPDEST PUSH1 0x0 DUP4 ADD CALLDATALOAD PUSH8 0xFFFFFFFFFFFFFFFF DUP2 GT ISZERO PUSH2 0x1712 JUMPI PUSH2 0x1711 PUSH2 0x20BA JUMP JUMPDEST JUMPDEST PUSH2 0x171E DUP6 DUP3 DUP7 ADD PUSH2 0x15F7 JUMP JUMPDEST SWAP3 POP POP PUSH1 0x20 DUP4 ADD CALLDATALOAD PUSH8 0xFFFFFFFFFFFFFFFF DUP2 GT ISZERO PUSH2 0x173F JUMPI PUSH2 0x173E PUSH2 0x20BA JUMP JUMPDEST JUMPDEST PUSH2 0x174B DUP6 DUP3 DUP7 ADD PUSH2 0x15F7 JUMP JUMPDEST SWAP2 POP POP SWAP3 POP SWAP3 SWAP1 POP JUMP JUMPDEST PUSH1 0x0 PUSH1 0x20 DUP3 DUP5 SUB SLT ISZERO PUSH2 0x176B JUMPI PUSH2 0x176A PUSH2 0x20BF JUMP JUMPDEST JUMPDEST PUSH1 0x0 PUSH2 0x1779 DUP5 DUP3 DUP6 ADD PUSH2 0x1625 JUMP JUMPDEST SWAP2 POP POP SWAP3 SWAP2 POP POP JUMP JUMPDEST PUSH1 0x0 PUSH2 0x178E DUP4 DUP4 PUSH2 0x19D2 JUMP JUMPDEST SWAP1 POP SWAP3 SWAP2 POP POP JUMP JUMPDEST PUSH1 0x0 PUSH2 0x17A2 DUP4 DUP4 PUSH2 0x1A62 JUMP JUMPDEST SWAP1 POP SWAP3 SWAP2 POP POP JUMP JUMPDEST PUSH2 0x17B3 DUP2 PUSH2 0x1E45 JUMP JUMPDEST DUP3 MSTORE POP POP JUMP JUMPDEST PUSH2 0x17C2 DUP2 PUSH2 0x1E45 JUMP JUMPDEST DUP3 MSTORE POP POP JUMP JUMPDEST PUSH1 0x0 PUSH2 0x17D3 DUP3 PUSH2 0x1D65 JUMP JUMPDEST PUSH2 0x17DD DUP2 DUP6 PUSH2 0x1DA0 JUMP JUMPDEST SWAP4 POP DUP4 PUSH1 0x20 DUP3 MUL DUP6 ADD PUSH2 0x17EF DUP6 PUSH2 0x1D45 JUMP JUMPDEST DUP1 PUSH1 0x0 JUMPDEST DUP6 DUP2 LT ISZERO PUSH2 0x182B JUMPI DUP5 DUP5 SUB DUP10 MSTORE DUP2 MLOAD PUSH2 0x180C DUP6 DUP3 PUSH2 0x1782 JUMP JUMPDEST SWAP5 POP PUSH2 0x1817 DUP4 PUSH2 0x1D86 JUMP JUMPDEST SWAP3 POP PUSH1 0x20 DUP11 ADD SWAP10 POP POP PUSH1 0x1 DUP2 ADD SWAP1 POP PUSH2 0x17F3 JUMP JUMPDEST POP DUP3 SWAP8 POP DUP8 SWAP6 POP POP POP POP POP POP SWAP3 SWAP2 POP POP JUMP JUMPDEST PUSH1 0x0 PUSH2 0x1848 DUP3 PUSH2 0x1D70 JUMP JUMPDEST PUSH2 0x1852 DUP2 DUP6 PUSH2 0x1DB1 JUMP JUMPDEST SWAP4 POP DUP4 PUSH1 0x20 DUP3 MUL DUP6 ADD PUSH2 0x1864 DUP6 PUSH2 0x1D55 JUMP JUMPDEST DUP1 PUSH1 0x0 JUMPDEST DUP6 DUP2 LT ISZERO PUSH2 0x18A0 JUMPI DUP5 DUP5 SUB DUP10 MSTORE DUP2 MLOAD PUSH2 0x1881 DUP6 DUP3 PUSH2 0x1796 JUMP JUMPDEST SWAP5 POP PUSH2 0x188C DUP4 PUSH2 0x1D93 JUMP JUMPDEST SWAP3 POP PUSH1 0x20 DUP11 ADD SWAP10 POP POP PUSH1 0x1 DUP2 ADD SWAP1 POP PUSH2 0x1868 JUMP JUMPDEST POP DUP3 SWAP8 POP DUP8 SWAP6 POP POP POP POP POP POP SWAP3 SWAP2 POP POP JUMP JUMPDEST PUSH2 0x18BB DUP2 PUSH2 0x1E57 JUMP JUMPDEST DUP3 MSTORE POP POP JUMP JUMPDEST PUSH2 0x18CA DUP2 PUSH2 0x1EB3 JUMP JUMPDEST DUP3 MSTORE POP POP JUMP JUMPDEST PUSH2 0x18D9 DUP2 PUSH2 0x1EC5 JUMP JUMPDEST DUP3 MSTORE POP POP JUMP JUMPDEST PUSH1 0x0 PUSH2 0x18EA DUP3 PUSH2 0x1D7B JUMP JUMPDEST PUSH2 0x18F4 DUP2 DUP6 PUSH2 0x1DC2 JUMP JUMPDEST SWAP4 POP PUSH2 0x1904 DUP2 DUP6 PUSH1 0x20 DUP7 ADD PUSH2 0x1EE6 JUMP JUMPDEST PUSH2 0x190D DUP2 PUSH2 0x20C4 JUMP JUMPDEST DUP5 ADD SWAP2 POP POP SWAP3 SWAP2 POP POP JUMP JUMPDEST PUSH1 0x0 PUSH2 0x1923 DUP3 PUSH2 0x1D7B JUMP JUMPDEST PUSH2 0x192D DUP2 DUP6 PUSH2 0x1DD3 JUMP JUMPDEST SWAP4 POP PUSH2 0x193D DUP2 DUP6 PUSH1 0x20 DUP7 ADD PUSH2 0x1EE6 JUMP JUMPDEST PUSH2 0x1946 DUP2 PUSH2 0x20C4 JUMP JUMPDEST DUP5 ADD SWAP2 POP POP SWAP3 SWAP2 POP POP JUMP JUMPDEST PUSH1 0x0 PUSH2 0x195C DUP3 PUSH2 0x1D7B JUMP JUMPDEST PUSH2 0x1966 DUP2 DUP6 PUSH2 0x1DE4 JUMP JUMPDEST SWAP4 POP PUSH2 0x1976 DUP2 DUP6 PUSH1 0x20 DUP7 ADD PUSH2 0x1EE6 JUMP JUMPDEST DUP1 DUP5 ADD SWAP2 POP POP SWAP3 SWAP2 POP POP JUMP JUMPDEST PUSH1 0x0 PUSH1 0x60 DUP4 ADD PUSH1 0x0 DUP4 ADD MLOAD DUP5 DUP3 SUB PUSH1 0x0 DUP7 ADD MSTORE PUSH2 0x199F DUP3 DUP3 PUSH2 0x18DF JUMP JUMPDEST SWAP2 POP POP PUSH1 0x20 DUP4 ADD MLOAD PUSH2 0x19B4 PUSH1 0x20 DUP7 ADD DUP3 PUSH2 0x17AA JUMP JUMPDEST POP PUSH1 0x40 DUP4 ADD MLOAD PUSH2 0x19C7 PUSH1 0x40 DUP7 ADD DUP3 PUSH2 0x18C1 JUMP JUMPDEST POP DUP1 SWAP2 POP POP SWAP3 SWAP2 POP POP JUMP JUMPDEST PUSH1 0x0 PUSH1 0xC0 DUP4 ADD PUSH1 0x0 DUP4 ADD MLOAD DUP5 DUP3 SUB PUSH1 0x0 DUP7 ADD MSTORE PUSH2 0x19EF DUP3 DUP3 PUSH2 0x18DF JUMP JUMPDEST SWAP2 POP POP PUSH1 0x20 DUP4 ADD MLOAD DUP5 DUP3 SUB PUSH1 0x20 DUP7 ADD MSTORE PUSH2 0x1A09 DUP3 DUP3 PUSH2 0x18DF JUMP JUMPDEST SWAP2 POP POP PUSH1 0x40 DUP4 ADD MLOAD PUSH2 0x1A1E PUSH1 0x40 DUP7 ADD DUP3 PUSH2 0x1BA8 JUMP JUMPDEST POP PUSH1 0x60 DUP4 ADD MLOAD PUSH2 0x1A31 PUSH1 0x60 DUP7 ADD DUP3 PUSH2 0x17AA JUMP JUMPDEST POP PUSH1 0x80 DUP4 ADD MLOAD PUSH2 0x1A44 PUSH1 0x80 DUP7 ADD DUP3 PUSH2 0x17AA JUMP JUMPDEST POP PUSH1 0xA0 DUP4 ADD MLOAD PUSH2 0x1A57 PUSH1 0xA0 DUP7 ADD DUP3 PUSH2 0x1BA8 JUMP JUMPDEST POP DUP1 SWAP2 POP POP SWAP3 SWAP2 POP POP JUMP JUMPDEST PUSH1 0x0 PUSH1 0xE0 DUP4 ADD PUSH1 0x0 DUP4 ADD MLOAD DUP5 DUP3 SUB PUSH1 0x0 DUP7 ADD MSTORE PUSH2 0x1A7F DUP3 DUP3 PUSH2 0x18DF JUMP JUMPDEST SWAP2 POP POP PUSH1 0x20 DUP4 ADD MLOAD DUP5 DUP3 SUB PUSH1 0x20 DUP7 ADD MSTORE PUSH2 0x1A99 DUP3 DUP3 PUSH2 0x18DF JUMP JUMPDEST SWAP2 POP POP PUSH1 0x40 DUP4 ADD MLOAD PUSH2 0x1AAE PUSH1 0x40 DUP7 ADD DUP3 PUSH2 0x18D0 JUMP JUMPDEST POP PUSH1 0x60 DUP4 ADD MLOAD PUSH2 0x1AC1 PUSH1 0x60 DUP7 ADD DUP3 PUSH2 0x18C1 JUMP JUMPDEST POP PUSH1 0x80 DUP4 ADD MLOAD PUSH2 0x1AD4 PUSH1 0x80 DUP7 ADD DUP3 PUSH2 0x1BA8 JUMP JUMPDEST POP PUSH1 0xA0 DUP4 ADD MLOAD PUSH2 0x1AE7 PUSH1 0xA0 DUP7 ADD DUP3 PUSH2 0x1BA8 JUMP JUMPDEST POP PUSH1 0xC0 DUP4 ADD MLOAD PUSH2 0x1AFA PUSH1 0xC0 DUP7 ADD DUP3 PUSH2 0x17AA JUMP JUMPDEST POP DUP1 SWAP2 POP POP SWAP3 SWAP2 POP POP JUMP JUMPDEST PUSH1 0x0 PUSH1 0xE0 DUP4 ADD PUSH1 0x0 DUP4 ADD MLOAD DUP5 DUP3 SUB PUSH1 0x0 DUP7 ADD MSTORE PUSH2 0x1B22 DUP3 DUP3 PUSH2 0x18DF JUMP JUMPDEST SWAP2 POP POP PUSH1 0x20 DUP4 ADD MLOAD DUP5 DUP3 SUB PUSH1 0x20 DUP7 ADD MSTORE PUSH2 0x1B3C DUP3 DUP3 PUSH2 0x18DF JUMP JUMPDEST SWAP2 POP POP PUSH1 0x40 DUP4 ADD MLOAD PUSH2 0x1B51 PUSH1 0x40 DUP7 ADD DUP3 PUSH2 0x18D0 JUMP JUMPDEST POP PUSH1 0x60 DUP4 ADD MLOAD PUSH2 0x1B64 PUSH1 0x60 DUP7 ADD DUP3 PUSH2 0x18C1 JUMP JUMPDEST POP PUSH1 0x80 DUP4 ADD MLOAD PUSH2 0x1B77 PUSH1 0x80 DUP7 ADD DUP3 PUSH2 0x1BA8 JUMP JUMPDEST POP PUSH1 0xA0 DUP4 ADD MLOAD PUSH2 0x1B8A PUSH1 0xA0 DUP7 ADD DUP3 PUSH2 0x1BA8 JUMP JUMPDEST POP PUSH1 0xC0 DUP4 ADD MLOAD PUSH2 0x1B9D PUSH1 0xC0 DUP7 ADD DUP3 PUSH2 0x17AA JUMP JUMPDEST POP DUP1 SWAP2 POP POP SWAP3 SWAP2 POP POP JUMP JUMPDEST PUSH2 0x1BB1 DUP2 PUSH2 0x1EA9 JUMP JUMPDEST DUP3 MSTORE POP POP JUMP JUMPDEST PUSH2 0x1BC0 DUP2 PUSH2 0x1EA9 JUMP JUMPDEST DUP3 MSTORE POP POP JUMP JUMPDEST PUSH1 0x0 PUSH2 0x1BD2 DUP3 DUP5 PUSH2 0x1951 JUMP JUMPDEST SWAP2 POP DUP2 SWAP1 POP SWAP3 SWAP2 POP POP JUMP JUMPDEST PUSH1 0x0 PUSH1 0x20 DUP3 ADD SWAP1 POP DUP2 DUP2 SUB PUSH1 0x0 DUP4 ADD MSTORE PUSH2 0x1BF7 DUP2 DUP5 PUSH2 0x17C8 JUMP JUMPDEST SWAP1 POP SWAP3 SWAP2 POP POP JUMP JUMPDEST PUSH1 0x0 PUSH1 0x20 DUP3 ADD SWAP1 POP DUP2 DUP2 SUB PUSH1 0x0 DUP4 ADD MSTORE PUSH2 0x1C19 DUP2 DUP5 PUSH2 0x183D JUMP JUMPDEST SWAP1 POP SWAP3 SWAP2 POP POP JUMP JUMPDEST PUSH1 0x0 PUSH1 0x20 DUP3 ADD SWAP1 POP PUSH2 0x1C36 PUSH1 0x0 DUP4 ADD DUP5 PUSH2 0x18B2 JUMP JUMPDEST SWAP3 SWAP2 POP POP JUMP JUMPDEST PUSH1 0x0 PUSH1 0xC0 DUP3 ADD SWAP1 POP DUP2 DUP2 SUB PUSH1 0x0 DUP4 ADD MSTORE PUSH2 0x1C56 DUP2 DUP10 PUSH2 0x1918 JUMP JUMPDEST SWAP1 POP DUP2 DUP2 SUB PUSH1 0x20 DUP4 ADD MSTORE PUSH2 0x1C6A DUP2 DUP9 PUSH2 0x1918 JUMP JUMPDEST SWAP1 POP PUSH2 0x1C79 PUSH1 0x40 DUP4 ADD DUP8 PUSH2 0x1BB7 JUMP JUMPDEST PUSH2 0x1C86 PUSH1 0x60 DUP4 ADD DUP7 PUSH2 0x17B9 JUMP JUMPDEST PUSH2 0x1C93 PUSH1 0x80 DUP4 ADD DUP6 PUSH2 0x17B9 JUMP JUMPDEST PUSH2 0x1CA0 PUSH1 0xA0 DUP4 ADD DUP5 PUSH2 0x1BB7 JUMP JUMPDEST SWAP8 SWAP7 POP POP POP POP POP POP POP JUMP JUMPDEST PUSH1 0x0 PUSH1 0x20 DUP3 ADD SWAP1 POP DUP2 DUP2 SUB PUSH1 0x0 DUP4 ADD MSTORE PUSH2 0x1CC5 DUP2 DUP5 PUSH2 0x1982 JUMP JUMPDEST SWAP1 POP SWAP3 SWAP2 POP POP JUMP JUMPDEST PUSH1 0x0 PUSH1 0x20 DUP3 ADD SWAP1 POP DUP2 DUP2 SUB PUSH1 0x0 DUP4 ADD MSTORE PUSH2 0x1CE7 DUP2 DUP5 PUSH2 0x1B05 JUMP JUMPDEST SWAP1 POP SWAP3 SWAP2 POP POP JUMP JUMPDEST PUSH1 0x0 PUSH2 0x1CF9 PUSH2 0x1D0A JUMP JUMPDEST SWAP1 POP PUSH2 0x1D05 DUP3 DUP3 PUSH2 0x1F4B JUMP JUMPDEST SWAP2 SWAP1 POP JUMP JUMPDEST PUSH1 0x0 PUSH1 0x40 MLOAD SWAP1 POP SWAP1 JUMP JUMPDEST PUSH1 0x0 PUSH8 0xFFFFFFFFFFFFFFFF DUP3 GT ISZERO PUSH2 0x1D2F JUMPI PUSH2 0x1D2E PUSH2 0x2081 JUMP JUMPDEST JUMPDEST PUSH2 0x1D38 DUP3 PUSH2 0x20C4 JUMP JUMPDEST SWAP1 POP PUSH1 0x20 DUP2 ADD SWAP1 POP SWAP2 SWAP1 POP JUMP JUMPDEST PUSH1 0x0 DUP2 SWAP1 POP PUSH1 0x20 DUP3 ADD SWAP1 POP SWAP2 SWAP1 POP JUMP JUMPDEST PUSH1 0x0 DUP2 SWAP1 POP PUSH1 0x20 DUP3 ADD SWAP1 POP SWAP2 SWAP1 POP JUMP JUMPDEST PUSH1 0x0 DUP2 MLOAD SWAP1 POP SWAP2 SWAP1 POP JUMP JUMPDEST PUSH1 0x0 DUP2 MLOAD SWAP1 POP SWAP2 SWAP1 POP JUMP JUMPDEST PUSH1 0x0 DUP2 MLOAD SWAP1 POP SWAP2 SWAP1 POP JUMP JUMPDEST PUSH1 0x0 PUSH1 0x20 DUP3 ADD SWAP1 POP SWAP2 SWAP1 POP JUMP JUMPDEST PUSH1 0x0 PUSH1 0x20 DUP3 ADD SWAP1 POP SWAP2 SWAP1 POP JUMP JUMPDEST PUSH1 0x0 DUP3 DUP3 MSTORE PUSH1 0x20 DUP3 ADD SWAP1 POP SWAP3 SWAP2 POP POP JUMP JUMPDEST PUSH1 0x0 DUP3 DUP3 MSTORE PUSH1 0x20 DUP3 ADD SWAP1 POP SWAP3 SWAP2 POP POP JUMP JUMPDEST PUSH1 0x0 DUP3 DUP3 MSTORE PUSH1 0x20 DUP3 ADD SWAP1 POP SWAP3 SWAP2 POP POP JUMP JUMPDEST PUSH1 0x0 DUP3 DUP3 MSTORE PUSH1 0x20 DUP3 ADD SWAP1 POP SWAP3 SWAP2 POP POP JUMP JUMPDEST PUSH1 0x0 DUP2 SWAP1 POP SWAP3 SWAP2 POP POP JUMP JUMPDEST PUSH1 0x0 PUSH2 0x1DFA DUP3 PUSH2 0x1EA9 JUMP JUMPDEST SWAP2 POP PUSH2 0x1E05 DUP4 PUSH2 0x1EA9 JUMP JUMPDEST SWAP3 POP DUP3 PUSH32 0xFFFFFFFFFFFFFFFFFFFFFFFFFFFFFFFFFFFFFFFFFFFFFFFFFFFFFFFFFFFFFFFF SUB DUP3 GT ISZERO PUSH2 0x1E3A JUMPI PUSH2 0x1E39 PUSH2 0x1FC5 JUMP JUMPDEST JUMPDEST DUP3 DUP3 ADD SWAP1 POP SWAP3 SWAP2 POP POP JUMP JUMPDEST PUSH1 0x0 PUSH2 0x1E50 DUP3 PUSH2 0x1E89 JUMP JUMPDEST SWAP1 POP SWAP2 SWAP1 POP JUMP JUMPDEST PUSH1 0x0 DUP2 ISZERO ISZERO SWAP1 POP SWAP2 SWAP1 POP JUMP JUMPDEST PUSH1 0x0 DUP2 SWAP1 POP PUSH2 0x1E71 DUP3 PUSH2 0x20D5 JUMP JUMPDEST SWAP2 SWAP1 POP JUMP JUMPDEST PUSH1 0x0 DUP2 SWAP1 POP PUSH2 0x1E84 DUP3 PUSH2 0x20E9 JUMP JUMPDEST SWAP2 SWAP1 POP JUMP JUMPDEST PUSH1 0x0 PUSH20 0xFFFFFFFFFFFFFFFFFFFFFFFFFFFFFFFFFFFFFFFF DUP3 AND SWAP1 POP SWAP2 SWAP1 POP JUMP JUMPDEST PUSH1 0x0 DUP2 SWAP1 POP SWAP2 SWAP1 POP JUMP JUMPDEST PUSH1 0x0 PUSH2 0x1EBE DUP3 PUSH2 0x1E63 JUMP JUMPDEST SWAP1 POP SWAP2 SWAP1 POP JUMP JUMPDEST PUSH1 0x0 PUSH2 0x1ED0 DUP3 PUSH2 0x1E76 JUMP JUMPDEST SWAP1 POP SWAP2 SWAP1 POP JUMP JUMPDEST DUP3 DUP2 DUP4 CALLDATACOPY PUSH1 0x0 DUP4 DUP4 ADD MSTORE POP POP POP JUMP JUMPDEST PUSH1 0x0 JUMPDEST DUP4 DUP2 LT ISZERO PUSH2 0x1F04 JUMPI DUP1 DUP3 ADD MLOAD DUP2 DUP5 ADD MSTORE PUSH1 0x20 DUP2 ADD SWAP1 POP PUSH2 0x1EE9 JUMP JUMPDEST DUP4 DUP2 GT ISZERO PUSH2 0x1F13 JUMPI PUSH1 0x0 DUP5 DUP5 ADD MSTORE JUMPDEST POP POP POP POP JUMP JUMPDEST PUSH1 0x0 PUSH1 0x2 DUP3 DIV SWAP1 POP PUSH1 0x1 DUP3 AND DUP1 PUSH2 0x1F31 JUMPI PUSH1 0x7F DUP3 AND SWAP2 POP JUMPDEST PUSH1 0x20 DUP3 LT DUP2 EQ ISZERO PUSH2 0x1F45 JUMPI PUSH2 0x1F44 PUSH2 0x2023 JUMP JUMPDEST JUMPDEST POP SWAP2 SWAP1 POP JUMP JUMPDEST PUSH2 0x1F54 DUP3 PUSH2 0x20C4 JUMP JUMPDEST DUP2 ADD DUP2 DUP2 LT PUSH8 0xFFFFFFFFFFFFFFFF DUP3 GT OR ISZERO PUSH2 0x1F73 JUMPI PUSH2 0x1F72 PUSH2 0x2081 JUMP JUMPDEST JUMPDEST DUP1 PUSH1 0x40 MSTORE POP POP POP JUMP JUMPDEST PUSH1 0x0 PUSH2 0x1F87 DUP3 PUSH2 0x1EA9 JUMP JUMPDEST SWAP2 POP PUSH32 0xFFFFFFFFFFFFFFFFFFFFFFFFFFFFFFFFFFFFFFFFFFFFFFFFFFFFFFFFFFFFFFFF DUP3 EQ ISZERO PUSH2 0x1FBA JUMPI PUSH2 0x1FB9 PUSH2 0x1FC5 JUMP JUMPDEST JUMPDEST PUSH1 0x1 DUP3 ADD SWAP1 POP SWAP2 SWAP1 POP JUMP JUMPDEST PUSH32 0x4E487B7100000000000000000000000000000000000000000000000000000000 PUSH1 0x0 MSTORE PUSH1 0x11 PUSH1 0x4 MSTORE PUSH1 0x24 PUSH1 0x0 REVERT JUMPDEST PUSH32 0x4E487B7100000000000000000000000000000000000000000000000000000000 PUSH1 0x0 MSTORE PUSH1 0x21 PUSH1 0x4 MSTORE PUSH1 0x24 PUSH1 0x0 REVERT JUMPDEST PUSH32 0x4E487B7100000000000000000000000000000000000000000000000000000000 PUSH1 0x0 MSTORE PUSH1 0x22 PUSH1 0x4 MSTORE PUSH1 0x24 PUSH1 0x0 REVERT JUMPDEST PUSH32 0x4E487B7100000000000000000000000000000000000000000000000000000000 PUSH1 0x0 MSTORE PUSH1 0x32 PUSH1 0x4 MSTORE PUSH1 0x24 PUSH1 0x0 REVERT JUMPDEST PUSH32 0x4E487B7100000000000000000000000000000000000000000000000000000000 PUSH1 0x0 MSTORE PUSH1 0x41 PUSH1 0x4 MSTORE PUSH1 0x24 PUSH1 0x0 REVERT JUMPDEST PUSH1 0x0 DUP1 REVERT JUMPDEST PUSH1 0x0 DUP1 REVERT JUMPDEST PUSH1 0x0 DUP1 REVERT JUMPDEST PUSH1 0x0 DUP1 REVERT JUMPDEST PUSH1 0x0 PUSH1 0x1F NOT PUSH1 0x1F DUP4 ADD AND SWAP1 POP SWAP2 SWAP1 POP JUMP JUMPDEST PUSH1 0x3 DUP2 LT PUSH2 0x20E6 JUMPI PUSH2 0x20E5 PUSH2 0x1FF4 JUMP JUMPDEST JUMPDEST POP JUMP JUMPDEST PUSH1 0x7 DUP2 LT PUSH2 0x20FA JUMPI PUSH2 0x20F9 PUSH2 0x1FF4 JUMP JUMPDEST JUMPDEST POP JUMP JUMPDEST PUSH2 0x2106 DUP2 PUSH2 0x1E45 JUMP JUMPDEST DUP2 EQ PUSH2 0x2111 JUMPI PUSH1 0x0 DUP1 REVERT JUMPDEST POP JUMP JUMPDEST PUSH1 0x7 DUP2 LT PUSH2 0x2121 JUMPI PUSH1 0x0 DUP1 REVERT JUMPDEST POP JUMP JUMPDEST PUSH2 0x212D DUP2 PUSH2 0x1EA9 JUMP JUMPDEST DUP2 EQ PUSH2 0x2138 JUMPI PUSH1 0x0 DUP1 REVERT JUMPDEST POP JUMP INVALID LOG2 PUSH5 0x6970667358 0x22 SLT KECCAK256 0xFC EXTCODEHASH 0xC1 0x23 SWAP10 PUSH11 0x87DEA10C5DF77633518F8E DUP13 0xCD SELFBALANCE MLOAD SLT RETURNDATACOPY PUSH28 0xB6CA87CE57F0B8F864736F6C63430008070033000000000000000000 "
				},
				"gasEstimates": {
					"creation": {
						"codeDepositCost": "1712200",
						"executionCost": "1799",
						"totalCost": "1713999"
					},
					"external": {
						"GetUsersByType(uint8)": "infinite",
						"PatchTrannsactions(uint256)": "infinite",
						"ReadDrug(string)": "infinite",
						"ReadTransactionsByDrug(string)": "infinite",
						"ReadTransactionsByUser(address)": "infinite",
						"ReadUser(address)": "infinite",
						"compareStringsbyBytes(string,string)": "infinite"
					}
				},
				"methodIdentifiers": {
					"GetUsersByType(uint8)": "0f9de977",
					"PatchTrannsactions(uint256)": "1567697c",
					"ReadDrug(string)": "cdf7e73d",
					"ReadTransactionsByDrug(string)": "4b2d14aa",
					"ReadTransactionsByUser(address)": "99b5bbdd",
					"ReadUser(address)": "cd1720d1",
					"compareStringsbyBytes(string,string)": "e9a734ff"
				}
			},
			"storageLayout": {
				"storage": [
					{
						"astId": 60,
						"contract": "contracts/Utils.sol:Utils",
						"label": "UserAddressMapping",
						"offset": 0,
						"slot": "0",
						"type": "t_mapping(t_address,t_struct(User)55_storage)"
					},
					{
						"astId": 63,
						"contract": "contracts/Utils.sol:Utils",
						"label": "UsersAddresses",
						"offset": 0,
						"slot": "1",
						"type": "t_array(t_address)dyn_storage"
					},
					{
						"astId": 193,
						"contract": "contracts/Utils.sol:Utils",
						"label": "DrugRegNoMapping",
						"offset": 0,
						"slot": "2",
						"type": "t_mapping(t_string_memory_ptr,t_struct(Drug)180_storage)"
					},
					{
						"astId": 196,
						"contract": "contracts/Utils.sol:Utils",
						"label": "DrugsRegNos",
						"offset": 0,
						"slot": "3",
						"type": "t_array(t_string_storage)dyn_storage"
					},
					{
						"astId": 226,
						"contract": "contracts/Utils.sol:Utils",
						"label": "PatchTrannsactions",
						"offset": 0,
						"slot": "4",
						"type": "t_array(t_struct(PatchTransaction)222_storage)dyn_storage"
					}
				],
				"types": {
					"t_address": {
						"encoding": "inplace",
						"label": "address",
						"numberOfBytes": "20"
					},
					"t_array(t_address)dyn_storage": {
						"base": "t_address",
						"encoding": "dynamic_array",
						"label": "address[]",
						"numberOfBytes": "32"
					},
					"t_array(t_string_storage)dyn_storage": {
						"base": "t_string_storage",
						"encoding": "dynamic_array",
						"label": "string[]",
						"numberOfBytes": "32"
					},
					"t_array(t_struct(PatchTransaction)222_storage)dyn_storage": {
						"base": "t_struct(PatchTransaction)222_storage",
						"encoding": "dynamic_array",
						"label": "struct Utils.PatchTransaction[]",
						"numberOfBytes": "32"
					},
					"t_enum(Statuses)6": {
						"encoding": "inplace",
						"label": "enum Utils.Statuses",
						"numberOfBytes": "1"
					},
					"t_enum(UserRoles)38": {
						"encoding": "inplace",
						"label": "enum Utils.UserRoles",
						"numberOfBytes": "1"
					},
					"t_mapping(t_address,t_struct(User)55_storage)": {
						"encoding": "mapping",
						"key": "t_address",
						"label": "mapping(address => struct Utils.User)",
						"numberOfBytes": "32",
						"value": "t_struct(User)55_storage"
					},
					"t_mapping(t_string_memory_ptr,t_struct(Drug)180_storage)": {
						"encoding": "mapping",
						"key": "t_string_memory_ptr",
						"label": "mapping(string => struct Utils.Drug)",
						"numberOfBytes": "32",
						"value": "t_struct(Drug)180_storage"
					},
					"t_string_memory_ptr": {
						"encoding": "bytes",
						"label": "string",
						"numberOfBytes": "32"
					},
					"t_string_storage": {
						"encoding": "bytes",
						"label": "string",
						"numberOfBytes": "32"
					},
					"t_struct(Drug)180_storage": {
						"encoding": "inplace",
						"label": "struct Utils.Drug",
						"members": [
							{
								"astId": 174,
								"contract": "contracts/Utils.sol:Utils",
								"label": "DrugName",
								"offset": 0,
								"slot": "0",
								"type": "t_string_storage"
							},
							{
								"astId": 176,
								"contract": "contracts/Utils.sol:Utils",
								"label": "Manufacturer",
								"offset": 0,
								"slot": "1",
								"type": "t_address"
							},
							{
								"astId": 179,
								"contract": "contracts/Utils.sol:Utils",
								"label": "DrugStatus",
								"offset": 20,
								"slot": "1",
								"type": "t_enum(Statuses)6"
							}
						],
						"numberOfBytes": "64"
					},
					"t_struct(PatchTransaction)222_storage": {
						"encoding": "inplace",
						"label": "struct Utils.PatchTransaction",
						"members": [
							{
								"astId": 211,
								"contract": "contracts/Utils.sol:Utils",
								"label": "DrugRegNo",
								"offset": 0,
								"slot": "0",
								"type": "t_string_storage"
							},
							{
								"astId": 213,
								"contract": "contracts/Utils.sol:Utils",
								"label": "PatchNo",
								"offset": 0,
								"slot": "1",
								"type": "t_string_storage"
							},
							{
								"astId": 215,
								"contract": "contracts/Utils.sol:Utils",
								"label": "LineNo",
								"offset": 0,
								"slot": "2",
								"type": "t_uint256"
							},
							{
								"astId": 217,
								"contract": "contracts/Utils.sol:Utils",
								"label": "FromID",
								"offset": 0,
								"slot": "3",
								"type": "t_address"
							},
							{
								"astId": 219,
								"contract": "contracts/Utils.sol:Utils",
								"label": "ToID",
								"offset": 0,
								"slot": "4",
								"type": "t_address"
							},
							{
								"astId": 221,
								"contract": "contracts/Utils.sol:Utils",
								"label": "Amount",
								"offset": 0,
								"slot": "5",
								"type": "t_uint256"
							}
						],
						"numberOfBytes": "192"
					},
					"t_struct(User)55_storage": {
						"encoding": "inplace",
						"label": "struct Utils.User",
						"members": [
							{
								"astId": 40,
								"contract": "contracts/Utils.sol:Utils",
								"label": "UserID",
								"offset": 0,
								"slot": "0",
								"type": "t_string_storage"
							},
							{
								"astId": 42,
								"contract": "contracts/Utils.sol:Utils",
								"label": "UserName",
								"offset": 0,
								"slot": "1",
								"type": "t_string_storage"
							},
							{
								"astId": 45,
								"contract": "contracts/Utils.sol:Utils",
								"label": "UserRole",
								"offset": 0,
								"slot": "2",
								"type": "t_enum(UserRoles)38"
							},
							{
								"astId": 48,
								"contract": "contracts/Utils.sol:Utils",
								"label": "UserStatus",
								"offset": 1,
								"slot": "2",
								"type": "t_enum(Statuses)6"
							},
							{
								"astId": 50,
								"contract": "contracts/Utils.sol:Utils",
								"label": "Latitude",
								"offset": 0,
								"slot": "3",
								"type": "t_uint256"
							},
							{
								"astId": 52,
								"contract": "contracts/Utils.sol:Utils",
								"label": "Longitude",
								"offset": 0,
								"slot": "4",
								"type": "t_uint256"
							},
							{
								"astId": 54,
								"contract": "contracts/Utils.sol:Utils",
								"label": "UserAddress",
								"offset": 0,
								"slot": "5",
								"type": "t_address"
							}
						],
						"numberOfBytes": "192"
					},
					"t_uint256": {
						"encoding": "inplace",
						"label": "uint256",
						"numberOfBytes": "32"
					}
				}
			},
			"userdoc": {
				"kind": "user",
				"methods": {},
				"version": 1
			}
		}
	}
}