{
	"contracts/Transaction.sol": {
		"Transactions": {
			"abi": [
				{
					"inputs": [],
					"stateMutability": "nonpayable",
					"type": "constructor"
				},
				{
					"inputs": [
						{
							"internalType": "uint256",
							"name": "_drugid",
							"type": "uint256"
						},
						{
							"internalType": "uint256",
							"name": "_patchno",
							"type": "uint256"
						},
						{
							"internalType": "uint256",
							"name": "_currentowner",
							"type": "uint256"
						},
						{
							"internalType": "uint256",
							"name": "_fromowner",
							"type": "uint256"
						},
						{
							"internalType": "uint256",
							"name": "_transamount",
							"type": "uint256"
						},
						{
							"internalType": "uint256",
							"name": "_transdate",
							"type": "uint256"
						}
					],
					"name": "addTransaction",
					"outputs": [],
					"stateMutability": "nonpayable",
					"type": "function"
				},
				{
					"inputs": [
						{
							"internalType": "uint256",
							"name": "_transid",
							"type": "uint256"
						}
					],
					"name": "get",
					"outputs": [
						{
							"components": [
								{
									"internalType": "uint256",
									"name": "TransactionID",
									"type": "uint256"
								},
								{
									"internalType": "uint256",
									"name": "DrugID",
									"type": "uint256"
								},
								{
									"internalType": "uint256",
									"name": "PatchNo",
									"type": "uint256"
								},
								{
									"internalType": "uint256",
									"name": "CurrentOwner",
									"type": "uint256"
								},
								{
									"internalType": "uint256",
									"name": "FromOwner",
									"type": "uint256"
								},
								{
									"internalType": "uint256",
									"name": "TransferedAmount",
									"type": "uint256"
								},
								{
									"internalType": "uint256",
									"name": "TransactionDate",
									"type": "uint256"
								}
							],
							"internalType": "struct Transactions.Transaction",
							"name": "",
							"type": "tuple"
						}
					],
					"stateMutability": "view",
					"type": "function"
				},
				{
					"inputs": [],
					"name": "getTransaction",
					"outputs": [
						{
							"internalType": "uint256[]",
							"name": "",
							"type": "uint256[]"
						},
						{
							"internalType": "uint256[]",
							"name": "",
							"type": "uint256[]"
						},
						{
							"internalType": "uint256[]",
							"name": "",
							"type": "uint256[]"
						},
						{
							"internalType": "uint256[]",
							"name": "",
							"type": "uint256[]"
						},
						{
							"internalType": "uint256[]",
							"name": "",
							"type": "uint256[]"
						},
						{
							"internalType": "uint256[]",
							"name": "",
							"type": "uint256[]"
						}
					],
					"stateMutability": "view",
					"type": "function"
				},
				{
					"inputs": [],
					"name": "getTransactions",
					"outputs": [
						{
							"components": [
								{
									"internalType": "uint256",
									"name": "TransactionID",
									"type": "uint256"
								},
								{
									"internalType": "uint256",
									"name": "DrugID",
									"type": "uint256"
								},
								{
									"internalType": "uint256",
									"name": "PatchNo",
									"type": "uint256"
								},
								{
									"internalType": "uint256",
									"name": "CurrentOwner",
									"type": "uint256"
								},
								{
									"internalType": "uint256",
									"name": "FromOwner",
									"type": "uint256"
								},
								{
									"internalType": "uint256",
									"name": "TransferedAmount",
									"type": "uint256"
								},
								{
									"internalType": "uint256",
									"name": "TransactionDate",
									"type": "uint256"
								}
							],
							"internalType": "struct Transactions.Transaction[]",
							"name": "",
							"type": "tuple[]"
						}
					],
					"stateMutability": "view",
					"type": "function"
				},
				{
					"inputs": [
						{
							"internalType": "uint256",
							"name": "",
							"type": "uint256"
						}
					],
					"name": "transactions",
					"outputs": [
						{
							"internalType": "uint256",
							"name": "TransactionID",
							"type": "uint256"
						},
						{
							"internalType": "uint256",
							"name": "DrugID",
							"type": "uint256"
						},
						{
							"internalType": "uint256",
							"name": "PatchNo",
							"type": "uint256"
						},
						{
							"internalType": "uint256",
							"name": "CurrentOwner",
							"type": "uint256"
						},
						{
							"internalType": "uint256",
							"name": "FromOwner",
							"type": "uint256"
						},
						{
							"internalType": "uint256",
							"name": "TransferedAmount",
							"type": "uint256"
						},
						{
							"internalType": "uint256",
							"name": "TransactionDate",
							"type": "uint256"
						}
					],
					"stateMutability": "view",
					"type": "function"
				},
				{
					"inputs": [],
					"name": "transactionsCount",
					"outputs": [
						{
							"internalType": "uint256",
							"name": "",
							"type": "uint256"
						}
					],
					"stateMutability": "view",
					"type": "function"
				}
			],
			"devdoc": {
				"kind": "dev",
				"methods": {},
				"version": 1
			},
			"evm": {
				"assembly": "    /* \"contracts/Transaction.sol\":62:2445  contract Transactions{\r... */\n  mstore(0x40, 0x80)\n    /* \"contracts/Transaction.sol\":456:511  constructor()  {\r... */\n  callvalue\n  dup1\n  iszero\n  tag_1\n  jumpi\n  0x00\n  dup1\n  revert\ntag_1:\n  pop\n    /* \"contracts/Transaction.sol\":502:503  0 */\n  0x00\n    /* \"contracts/Transaction.sol\":482:499  transactionsCount */\n  0x01\n    /* \"contracts/Transaction.sol\":482:503  transactionsCount = 0 */\n  dup2\n  swap1\n  sstore\n  pop\n    /* \"contracts/Transaction.sol\":62:2445  contract Transactions{\r... */\n  dataSize(sub_0)\n  dup1\n  dataOffset(sub_0)\n  0x00\n  codecopy\n  0x00\n  return\nstop\n\nsub_0: assembly {\n        /* \"contracts/Transaction.sol\":62:2445  contract Transactions{\r... */\n      mstore(0x40, 0x80)\n      callvalue\n      dup1\n      iszero\n      tag_1\n      jumpi\n      0x00\n      dup1\n      revert\n    tag_1:\n      pop\n      jumpi(tag_2, lt(calldatasize, 0x04))\n      shr(0xe0, calldataload(0x00))\n      dup1\n      0x0a6486c1\n      eq\n      tag_3\n      jumpi\n      dup1\n      0x59705f81\n      eq\n      tag_4\n      jumpi\n      dup1\n      0x83920e90\n      eq\n      tag_5\n      jumpi\n      dup1\n      0x9507d39a\n      eq\n      tag_6\n      jumpi\n      dup1\n      0x9ace38c2\n      eq\n      tag_7\n      jumpi\n      dup1\n      0xfd99a746\n      eq\n      tag_8\n      jumpi\n    tag_2:\n      0x00\n      dup1\n      revert\n        /* \"contracts/Transaction.sol\":519:836  function addTransaction(uint _drugid, uint _patchno, uint _currentowner, uint _fromowner, uint _transamount, uint _transdate) public {\r... */\n    tag_3:\n      tag_9\n      0x04\n      dup1\n      calldatasize\n      sub\n      dup2\n      add\n      swap1\n      tag_10\n      swap2\n      swap1\n      tag_11\n      jump\t// in\n    tag_10:\n      tag_12\n      jump\t// in\n    tag_9:\n      stop\n        /* \"contracts/Transaction.sol\":1005:2079  function getTransaction() public view returns (uint[] memory, uint[] memory, uint[] memory, uint[] memory, uint[] memory, uint[] memory){\r... */\n    tag_4:\n      tag_13\n      tag_14\n      jump\t// in\n    tag_13:\n      mload(0x40)\n      tag_15\n      swap7\n      swap6\n      swap5\n      swap4\n      swap3\n      swap2\n      swap1\n      tag_16\n      jump\t// in\n    tag_15:\n      mload(0x40)\n      dup1\n      swap2\n      sub\n      swap1\n      return\n        /* \"contracts/Transaction.sol\":2116:2440  function getTransactions() public view returns (Transaction[] memory){\r... */\n    tag_5:\n      tag_17\n      tag_18\n      jump\t// in\n    tag_17:\n      mload(0x40)\n      tag_19\n      swap2\n      swap1\n      tag_20\n      jump\t// in\n    tag_19:\n      mload(0x40)\n      dup1\n      swap2\n      sub\n      swap1\n      return\n        /* \"contracts/Transaction.sol\":844:960  function get(uint _transid) public view returns(Transaction memory) {\r... */\n    tag_6:\n      tag_21\n      0x04\n      dup1\n      calldatasize\n      sub\n      dup2\n      add\n      swap1\n      tag_22\n      swap2\n      swap1\n      tag_23\n      jump\t// in\n    tag_22:\n      tag_24\n      jump\t// in\n    tag_21:\n      mload(0x40)\n      tag_25\n      swap2\n      swap1\n      tag_26\n      jump\t// in\n    tag_25:\n      mload(0x40)\n      dup1\n      swap2\n      sub\n      swap1\n      return\n        /* \"contracts/Transaction.sol\":314:363  mapping (uint => Transaction) public transactions */\n    tag_7:\n      tag_27\n      0x04\n      dup1\n      calldatasize\n      sub\n      dup2\n      add\n      swap1\n      tag_28\n      swap2\n      swap1\n      tag_23\n      jump\t// in\n    tag_28:\n      tag_29\n      jump\t// in\n    tag_27:\n      mload(0x40)\n      tag_30\n      swap8\n      swap7\n      swap6\n      swap5\n      swap4\n      swap3\n      swap2\n      swap1\n      tag_31\n      jump\t// in\n    tag_30:\n      mload(0x40)\n      dup1\n      swap2\n      sub\n      swap1\n      return\n        /* \"contracts/Transaction.sol\":420:449  uint public transactionsCount */\n    tag_8:\n      tag_32\n      tag_33\n      jump\t// in\n    tag_32:\n      mload(0x40)\n      tag_34\n      swap2\n      swap1\n      tag_35\n      jump\t// in\n    tag_34:\n      mload(0x40)\n      dup1\n      swap2\n      sub\n      swap1\n      return\n        /* \"contracts/Transaction.sol\":519:836  function addTransaction(uint _drugid, uint _patchno, uint _currentowner, uint _fromowner, uint _transamount, uint _transdate) public {\r... */\n    tag_12:\n        /* \"contracts/Transaction.sol\":697:798  Transaction(transactionsCount,_drugid, _patchno, _currentowner, _fromowner, _transamount, _transdate) */\n      mload(0x40)\n      dup1\n      0xe0\n      add\n      0x40\n      mstore\n      dup1\n        /* \"contracts/Transaction.sol\":709:726  transactionsCount */\n      sload(0x01)\n        /* \"contracts/Transaction.sol\":697:798  Transaction(transactionsCount,_drugid, _patchno, _currentowner, _fromowner, _transamount, _transdate) */\n      dup2\n      mstore\n      0x20\n      add\n        /* \"contracts/Transaction.sol\":727:734  _drugid */\n      dup8\n        /* \"contracts/Transaction.sol\":697:798  Transaction(transactionsCount,_drugid, _patchno, _currentowner, _fromowner, _transamount, _transdate) */\n      dup2\n      mstore\n      0x20\n      add\n        /* \"contracts/Transaction.sol\":736:744  _patchno */\n      dup7\n        /* \"contracts/Transaction.sol\":697:798  Transaction(transactionsCount,_drugid, _patchno, _currentowner, _fromowner, _transamount, _transdate) */\n      dup2\n      mstore\n      0x20\n      add\n        /* \"contracts/Transaction.sol\":746:759  _currentowner */\n      dup6\n        /* \"contracts/Transaction.sol\":697:798  Transaction(transactionsCount,_drugid, _patchno, _currentowner, _fromowner, _transamount, _transdate) */\n      dup2\n      mstore\n      0x20\n      add\n        /* \"contracts/Transaction.sol\":761:771  _fromowner */\n      dup5\n        /* \"contracts/Transaction.sol\":697:798  Transaction(transactionsCount,_drugid, _patchno, _currentowner, _fromowner, _transamount, _transdate) */\n      dup2\n      mstore\n      0x20\n      add\n        /* \"contracts/Transaction.sol\":773:785  _transamount */\n      dup4\n        /* \"contracts/Transaction.sol\":697:798  Transaction(transactionsCount,_drugid, _patchno, _currentowner, _fromowner, _transamount, _transdate) */\n      dup2\n      mstore\n      0x20\n      add\n        /* \"contracts/Transaction.sol\":787:797  _transdate */\n      dup3\n        /* \"contracts/Transaction.sol\":697:798  Transaction(transactionsCount,_drugid, _patchno, _currentowner, _fromowner, _transamount, _transdate) */\n      dup2\n      mstore\n      pop\n        /* \"contracts/Transaction.sol\":663:675  transactions */\n      0x00\n        /* \"contracts/Transaction.sol\":663:694  transactions[transactionsCount] */\n      dup1\n        /* \"contracts/Transaction.sol\":676:693  transactionsCount */\n      sload(0x01)\n        /* \"contracts/Transaction.sol\":663:694  transactions[transactionsCount] */\n      dup2\n      mstore\n      0x20\n      add\n      swap1\n      dup2\n      mstore\n      0x20\n      add\n      0x00\n      keccak256\n        /* \"contracts/Transaction.sol\":663:798  transactions[transactionsCount] = Transaction(transactionsCount,_drugid, _patchno, _currentowner, _fromowner, _transamount, _transdate) */\n      0x00\n      dup3\n      add\n      mload\n      dup2\n      0x00\n      add\n      sstore\n      0x20\n      dup3\n      add\n      mload\n      dup2\n      0x01\n      add\n      sstore\n      0x40\n      dup3\n      add\n      mload\n      dup2\n      0x02\n      add\n      sstore\n      0x60\n      dup3\n      add\n      mload\n      dup2\n      0x03\n      add\n      sstore\n      0x80\n      dup3\n      add\n      mload\n      dup2\n      0x04\n      add\n      sstore\n      0xa0\n      dup3\n      add\n      mload\n      dup2\n      0x05\n      add\n      sstore\n      0xc0\n      dup3\n      add\n      mload\n      dup2\n      0x06\n      add\n      sstore\n      swap1\n      pop\n      pop\n        /* \"contracts/Transaction.sol\":809:826  transactionsCount */\n      0x01\n      0x00\n        /* \"contracts/Transaction.sol\":809:828  transactionsCount++ */\n      dup2\n      sload\n      dup1\n      swap3\n      swap2\n      swap1\n      tag_37\n      swap1\n      tag_38\n      jump\t// in\n    tag_37:\n      swap2\n      swap1\n      pop\n      sstore\n      pop\n        /* \"contracts/Transaction.sol\":519:836  function addTransaction(uint _drugid, uint _patchno, uint _currentowner, uint _fromowner, uint _transamount, uint _transdate) public {\r... */\n      pop\n      pop\n      pop\n      pop\n      pop\n      pop\n      jump\t// out\n        /* \"contracts/Transaction.sol\":1005:2079  function getTransaction() public view returns (uint[] memory, uint[] memory, uint[] memory, uint[] memory, uint[] memory, uint[] memory){\r... */\n    tag_14:\n        /* \"contracts/Transaction.sol\":1052:1065  uint[] memory */\n      0x60\n        /* \"contracts/Transaction.sol\":1067:1080  uint[] memory */\n      dup1\n        /* \"contracts/Transaction.sol\":1082:1095  uint[] memory */\n      0x60\n        /* \"contracts/Transaction.sol\":1097:1110  uint[] memory */\n      dup1\n        /* \"contracts/Transaction.sol\":1112:1125  uint[] memory */\n      0x60\n        /* \"contracts/Transaction.sol\":1127:1140  uint[] memory */\n      dup1\n        /* \"contracts/Transaction.sol\":1158:1180  uint[]  memory transid */\n      0x00\n        /* \"contracts/Transaction.sol\":1194:1211  transactionsCount */\n      sload(0x01)\n        /* \"contracts/Transaction.sol\":1183:1212  new uint[](transactionsCount) */\n      0xffffffffffffffff\n      dup2\n      gt\n      iszero\n      tag_40\n      jumpi\n      tag_41\n      tag_42\n      jump\t// in\n    tag_41:\n    tag_40:\n      mload(0x40)\n      swap1\n      dup1\n      dup3\n      mstore\n      dup1\n      0x20\n      mul\n      0x20\n      add\n      dup3\n      add\n      0x40\n      mstore\n      dup1\n      iszero\n      tag_43\n      jumpi\n      dup2\n      0x20\n      add\n      0x20\n      dup3\n      mul\n      dup1\n      calldatasize\n      dup4\n      calldatacopy\n      dup1\n      dup3\n      add\n      swap2\n      pop\n      pop\n      swap1\n      pop\n    tag_43:\n      pop\n        /* \"contracts/Transaction.sol\":1158:1212  uint[]  memory transid = new uint[](transactionsCount) */\n      swap1\n      pop\n        /* \"contracts/Transaction.sol\":1221:1243  uint[]  memory patchno */\n      0x00\n        /* \"contracts/Transaction.sol\":1257:1274  transactionsCount */\n      sload(0x01)\n        /* \"contracts/Transaction.sol\":1246:1275  new uint[](transactionsCount) */\n      0xffffffffffffffff\n      dup2\n      gt\n      iszero\n      tag_44\n      jumpi\n      tag_45\n      tag_42\n      jump\t// in\n    tag_45:\n    tag_44:\n      mload(0x40)\n      swap1\n      dup1\n      dup3\n      mstore\n      dup1\n      0x20\n      mul\n      0x20\n      add\n      dup3\n      add\n      0x40\n      mstore\n      dup1\n      iszero\n      tag_46\n      jumpi\n      dup2\n      0x20\n      add\n      0x20\n      dup3\n      mul\n      dup1\n      calldatasize\n      dup4\n      calldatacopy\n      dup1\n      dup3\n      add\n      swap2\n      pop\n      pop\n      swap1\n      pop\n    tag_46:\n      pop\n        /* \"contracts/Transaction.sol\":1221:1275  uint[]  memory patchno = new uint[](transactionsCount) */\n      swap1\n      pop\n        /* \"contracts/Transaction.sol\":1284:1311  uint[]  memory currentowner */\n      0x00\n        /* \"contracts/Transaction.sol\":1325:1342  transactionsCount */\n      sload(0x01)\n        /* \"contracts/Transaction.sol\":1314:1343  new uint[](transactionsCount) */\n      0xffffffffffffffff\n      dup2\n      gt\n      iszero\n      tag_47\n      jumpi\n      tag_48\n      tag_42\n      jump\t// in\n    tag_48:\n    tag_47:\n      mload(0x40)\n      swap1\n      dup1\n      dup3\n      mstore\n      dup1\n      0x20\n      mul\n      0x20\n      add\n      dup3\n      add\n      0x40\n      mstore\n      dup1\n      iszero\n      tag_49\n      jumpi\n      dup2\n      0x20\n      add\n      0x20\n      dup3\n      mul\n      dup1\n      calldatasize\n      dup4\n      calldatacopy\n      dup1\n      dup3\n      add\n      swap2\n      pop\n      pop\n      swap1\n      pop\n    tag_49:\n      pop\n        /* \"contracts/Transaction.sol\":1284:1343  uint[]  memory currentowner = new uint[](transactionsCount) */\n      swap1\n      pop\n        /* \"contracts/Transaction.sol\":1352:1376  uint[]  memory fromowner */\n      0x00\n        /* \"contracts/Transaction.sol\":1390:1407  transactionsCount */\n      sload(0x01)\n        /* \"contracts/Transaction.sol\":1379:1408  new uint[](transactionsCount) */\n      0xffffffffffffffff\n      dup2\n      gt\n      iszero\n      tag_50\n      jumpi\n      tag_51\n      tag_42\n      jump\t// in\n    tag_51:\n    tag_50:\n      mload(0x40)\n      swap1\n      dup1\n      dup3\n      mstore\n      dup1\n      0x20\n      mul\n      0x20\n      add\n      dup3\n      add\n      0x40\n      mstore\n      dup1\n      iszero\n      tag_52\n      jumpi\n      dup2\n      0x20\n      add\n      0x20\n      dup3\n      mul\n      dup1\n      calldatasize\n      dup4\n      calldatacopy\n      dup1\n      dup3\n      add\n      swap2\n      pop\n      pop\n      swap1\n      pop\n    tag_52:\n      pop\n        /* \"contracts/Transaction.sol\":1352:1408  uint[]  memory fromowner = new uint[](transactionsCount) */\n      swap1\n      pop\n        /* \"contracts/Transaction.sol\":1417:1443  uint[]  memory transamount */\n      0x00\n        /* \"contracts/Transaction.sol\":1457:1474  transactionsCount */\n      sload(0x01)\n        /* \"contracts/Transaction.sol\":1446:1475  new uint[](transactionsCount) */\n      0xffffffffffffffff\n      dup2\n      gt\n      iszero\n      tag_53\n      jumpi\n      tag_54\n      tag_42\n      jump\t// in\n    tag_54:\n    tag_53:\n      mload(0x40)\n      swap1\n      dup1\n      dup3\n      mstore\n      dup1\n      0x20\n      mul\n      0x20\n      add\n      dup3\n      add\n      0x40\n      mstore\n      dup1\n      iszero\n      tag_55\n      jumpi\n      dup2\n      0x20\n      add\n      0x20\n      dup3\n      mul\n      dup1\n      calldatasize\n      dup4\n      calldatacopy\n      dup1\n      dup3\n      add\n      swap2\n      pop\n      pop\n      swap1\n      pop\n    tag_55:\n      pop\n        /* \"contracts/Transaction.sol\":1417:1475  uint[]  memory transamount = new uint[](transactionsCount) */\n      swap1\n      pop\n        /* \"contracts/Transaction.sol\":1484:1508  uint[]  memory transdate */\n      0x00\n        /* \"contracts/Transaction.sol\":1522:1539  transactionsCount */\n      sload(0x01)\n        /* \"contracts/Transaction.sol\":1511:1540  new uint[](transactionsCount) */\n      0xffffffffffffffff\n      dup2\n      gt\n      iszero\n      tag_56\n      jumpi\n      tag_57\n      tag_42\n      jump\t// in\n    tag_57:\n    tag_56:\n      mload(0x40)\n      swap1\n      dup1\n      dup3\n      mstore\n      dup1\n      0x20\n      mul\n      0x20\n      add\n      dup3\n      add\n      0x40\n      mstore\n      dup1\n      iszero\n      tag_58\n      jumpi\n      dup2\n      0x20\n      add\n      0x20\n      dup3\n      mul\n      dup1\n      calldatasize\n      dup4\n      calldatacopy\n      dup1\n      dup3\n      add\n      swap2\n      pop\n      pop\n      swap1\n      pop\n    tag_58:\n      pop\n        /* \"contracts/Transaction.sol\":1484:1540  uint[]  memory transdate = new uint[](transactionsCount) */\n      swap1\n      pop\n        /* \"contracts/Transaction.sol\":1562:1568  uint i */\n      0x00\n        /* \"contracts/Transaction.sol\":1557:1987  for (uint i = 0; i < transactionsCount; i++) {\r... */\n    tag_59:\n        /* \"contracts/Transaction.sol\":1578:1595  transactionsCount */\n      sload(0x01)\n        /* \"contracts/Transaction.sol\":1574:1575  i */\n      dup2\n        /* \"contracts/Transaction.sol\":1574:1595  i < transactionsCount */\n      lt\n        /* \"contracts/Transaction.sol\":1557:1987  for (uint i = 0; i < transactionsCount; i++) {\r... */\n      iszero\n      tag_60\n      jumpi\n        /* \"contracts/Transaction.sol\":1615:1646  Transaction storage transaction */\n      0x00\n        /* \"contracts/Transaction.sol\":1649:1661  transactions */\n      dup1\n        /* \"contracts/Transaction.sol\":1649:1664  transactions[i] */\n      0x00\n        /* \"contracts/Transaction.sol\":1662:1663  i */\n      dup4\n        /* \"contracts/Transaction.sol\":1649:1664  transactions[i] */\n      dup2\n      mstore\n      0x20\n      add\n      swap1\n      dup2\n      mstore\n      0x20\n      add\n      0x00\n      keccak256\n        /* \"contracts/Transaction.sol\":1615:1664  Transaction storage transaction = transactions[i] */\n      swap1\n      pop\n        /* \"contracts/Transaction.sol\":1690:1701  transaction */\n      dup1\n        /* \"contracts/Transaction.sol\":1690:1709  transaction.PatchNo */\n      0x02\n      add\n      sload\n        /* \"contracts/Transaction.sol\":1677:1684  patchno */\n      dup8\n        /* \"contracts/Transaction.sol\":1685:1686  i */\n      dup4\n        /* \"contracts/Transaction.sol\":1677:1687  patchno[i] */\n      dup2\n      mload\n      dup2\n      lt\n      tag_62\n      jumpi\n      tag_63\n      tag_64\n      jump\t// in\n    tag_63:\n    tag_62:\n      0x20\n      mul\n      0x20\n      add\n      add\n        /* \"contracts/Transaction.sol\":1677:1709  patchno[i] = transaction.PatchNo */\n      dup2\n      dup2\n      mstore\n      pop\n      pop\n        /* \"contracts/Transaction.sol\":1735:1746  transaction */\n      dup1\n        /* \"contracts/Transaction.sol\":1735:1760  transaction.TransactionID */\n      0x00\n      add\n      sload\n        /* \"contracts/Transaction.sol\":1722:1729  transid */\n      dup9\n        /* \"contracts/Transaction.sol\":1730:1731  i */\n      dup4\n        /* \"contracts/Transaction.sol\":1722:1732  transid[i] */\n      dup2\n      mload\n      dup2\n      lt\n      tag_65\n      jumpi\n      tag_66\n      tag_64\n      jump\t// in\n    tag_66:\n    tag_65:\n      0x20\n      mul\n      0x20\n      add\n      add\n        /* \"contracts/Transaction.sol\":1722:1760  transid[i] = transaction.TransactionID */\n      dup2\n      dup2\n      mstore\n      pop\n      pop\n        /* \"contracts/Transaction.sol\":1790:1801  transaction */\n      dup1\n        /* \"contracts/Transaction.sol\":1790:1818  transaction.TransferedAmount */\n      0x05\n      add\n      sload\n        /* \"contracts/Transaction.sol\":1773:1784  transamount */\n      dup5\n        /* \"contracts/Transaction.sol\":1785:1786  i */\n      dup4\n        /* \"contracts/Transaction.sol\":1773:1787  transamount[i] */\n      dup2\n      mload\n      dup2\n      lt\n      tag_67\n      jumpi\n      tag_68\n      tag_64\n      jump\t// in\n    tag_68:\n    tag_67:\n      0x20\n      mul\n      0x20\n      add\n      add\n        /* \"contracts/Transaction.sol\":1773:1818  transamount[i] = transaction.TransferedAmount */\n      dup2\n      dup2\n      mstore\n      pop\n      pop\n        /* \"contracts/Transaction.sol\":1846:1857  transaction */\n      dup1\n        /* \"contracts/Transaction.sol\":1846:1873  transaction.TransactionDate */\n      0x06\n      add\n      sload\n        /* \"contracts/Transaction.sol\":1831:1840  transdate */\n      dup4\n        /* \"contracts/Transaction.sol\":1841:1842  i */\n      dup4\n        /* \"contracts/Transaction.sol\":1831:1843  transdate[i] */\n      dup2\n      mload\n      dup2\n      lt\n      tag_69\n      jumpi\n      tag_70\n      tag_64\n      jump\t// in\n    tag_70:\n    tag_69:\n      0x20\n      mul\n      0x20\n      add\n      add\n        /* \"contracts/Transaction.sol\":1831:1873  transdate[i] = transaction.TransactionDate */\n      dup2\n      dup2\n      mstore\n      pop\n      pop\n        /* \"contracts/Transaction.sol\":1904:1915  transaction */\n      dup1\n        /* \"contracts/Transaction.sol\":1904:1928  transaction.CurrentOwner */\n      0x03\n      add\n      sload\n        /* \"contracts/Transaction.sol\":1886:1898  currentowner */\n      dup7\n        /* \"contracts/Transaction.sol\":1899:1900  i */\n      dup4\n        /* \"contracts/Transaction.sol\":1886:1901  currentowner[i] */\n      dup2\n      mload\n      dup2\n      lt\n      tag_71\n      jumpi\n      tag_72\n      tag_64\n      jump\t// in\n    tag_72:\n    tag_71:\n      0x20\n      mul\n      0x20\n      add\n      add\n        /* \"contracts/Transaction.sol\":1886:1928  currentowner[i] = transaction.CurrentOwner */\n      dup2\n      dup2\n      mstore\n      pop\n      pop\n        /* \"contracts/Transaction.sol\":1956:1967  transaction */\n      dup1\n        /* \"contracts/Transaction.sol\":1956:1977  transaction.FromOwner */\n      0x04\n      add\n      sload\n        /* \"contracts/Transaction.sol\":1941:1950  fromowner */\n      dup6\n        /* \"contracts/Transaction.sol\":1951:1952  i */\n      dup4\n        /* \"contracts/Transaction.sol\":1941:1953  fromowner[i] */\n      dup2\n      mload\n      dup2\n      lt\n      tag_73\n      jumpi\n      tag_74\n      tag_64\n      jump\t// in\n    tag_74:\n    tag_73:\n      0x20\n      mul\n      0x20\n      add\n      add\n        /* \"contracts/Transaction.sol\":1941:1977  fromowner[i] = transaction.FromOwner */\n      dup2\n      dup2\n      mstore\n      pop\n      pop\n        /* \"contracts/Transaction.sol\":1602:1987  {\r... */\n      pop\n        /* \"contracts/Transaction.sol\":1597:1600  i++ */\n      dup1\n      dup1\n      tag_75\n      swap1\n      tag_38\n      jump\t// in\n    tag_75:\n      swap2\n      pop\n      pop\n        /* \"contracts/Transaction.sol\":1557:1987  for (uint i = 0; i < transactionsCount; i++) {\r... */\n      jump(tag_59)\n    tag_60:\n      pop\n        /* \"contracts/Transaction.sol\":2005:2012  patchno */\n      dup5\n        /* \"contracts/Transaction.sol\":2014:2021  transid */\n      dup7\n        /* \"contracts/Transaction.sol\":2023:2034  transamount */\n      dup4\n        /* \"contracts/Transaction.sol\":2036:2045  transdate */\n      dup4\n        /* \"contracts/Transaction.sol\":2047:2059  currentowner */\n      dup8\n        /* \"contracts/Transaction.sol\":2061:2070  fromowner */\n      dup8\n        /* \"contracts/Transaction.sol\":1997:2071  return (patchno, transid, transamount, transdate, currentowner, fromowner) */\n      swap12\n      pop\n      swap12\n      pop\n      swap12\n      pop\n      swap12\n      pop\n      swap12\n      pop\n      swap12\n      pop\n      pop\n      pop\n      pop\n      pop\n      pop\n      pop\n        /* \"contracts/Transaction.sol\":1005:2079  function getTransaction() public view returns (uint[] memory, uint[] memory, uint[] memory, uint[] memory, uint[] memory, uint[] memory){\r... */\n      swap1\n      swap2\n      swap3\n      swap4\n      swap5\n      swap6\n      jump\t// out\n        /* \"contracts/Transaction.sol\":2116:2440  function getTransactions() public view returns (Transaction[] memory){\r... */\n    tag_18:\n        /* \"contracts/Transaction.sol\":2164:2184  Transaction[] memory */\n      0x60\n        /* \"contracts/Transaction.sol\":2194:2220  Transaction[]    memory id */\n      0x00\n        /* \"contracts/Transaction.sol\":2241:2258  transactionsCount */\n      sload(0x01)\n        /* \"contracts/Transaction.sol\":2223:2259  new Transaction[](transactionsCount) */\n      0xffffffffffffffff\n      dup2\n      gt\n      iszero\n      tag_77\n      jumpi\n      tag_78\n      tag_42\n      jump\t// in\n    tag_78:\n    tag_77:\n      mload(0x40)\n      swap1\n      dup1\n      dup3\n      mstore\n      dup1\n      0x20\n      mul\n      0x20\n      add\n      dup3\n      add\n      0x40\n      mstore\n      dup1\n      iszero\n      tag_79\n      jumpi\n      dup2\n      0x20\n      add\n    tag_80:\n      tag_81\n      tag_82\n      jump\t// in\n    tag_81:\n      dup2\n      mstore\n      0x20\n      add\n      swap1\n      0x01\n      swap1\n      sub\n      swap1\n      dup2\n      tag_80\n      jumpi\n      swap1\n      pop\n    tag_79:\n      pop\n        /* \"contracts/Transaction.sol\":2194:2259  Transaction[]    memory id = new Transaction[](transactionsCount) */\n      swap1\n      pop\n        /* \"contracts/Transaction.sol\":2273:2279  uint i */\n      0x00\n        /* \"contracts/Transaction.sol\":2268:2417  for (uint i = 0; i < transactionsCount; i++) {\r... */\n    tag_83:\n        /* \"contracts/Transaction.sol\":2289:2306  transactionsCount */\n      sload(0x01)\n        /* \"contracts/Transaction.sol\":2285:2286  i */\n      dup2\n        /* \"contracts/Transaction.sol\":2285:2306  i < transactionsCount */\n      lt\n        /* \"contracts/Transaction.sol\":2268:2417  for (uint i = 0; i < transactionsCount; i++) {\r... */\n      iszero\n      tag_84\n      jumpi\n        /* \"contracts/Transaction.sol\":2326:2357  Transaction storage transaction */\n      0x00\n        /* \"contracts/Transaction.sol\":2360:2372  transactions */\n      dup1\n        /* \"contracts/Transaction.sol\":2360:2375  transactions[i] */\n      0x00\n        /* \"contracts/Transaction.sol\":2373:2374  i */\n      dup4\n        /* \"contracts/Transaction.sol\":2360:2375  transactions[i] */\n      dup2\n      mstore\n      0x20\n      add\n      swap1\n      dup2\n      mstore\n      0x20\n      add\n      0x00\n      keccak256\n        /* \"contracts/Transaction.sol\":2326:2375  Transaction storage transaction = transactions[i] */\n      swap1\n      pop\n        /* \"contracts/Transaction.sol\":2396:2407  transaction */\n      dup1\n        /* \"contracts/Transaction.sol\":2388:2407  id[i] = transaction */\n      mload(0x40)\n      dup1\n      0xe0\n      add\n      0x40\n      mstore\n      swap1\n      dup2\n      0x00\n      dup3\n      add\n      sload\n      dup2\n      mstore\n      0x20\n      add\n      0x01\n      dup3\n      add\n      sload\n      dup2\n      mstore\n      0x20\n      add\n      0x02\n      dup3\n      add\n      sload\n      dup2\n      mstore\n      0x20\n      add\n      0x03\n      dup3\n      add\n      sload\n      dup2\n      mstore\n      0x20\n      add\n      0x04\n      dup3\n      add\n      sload\n      dup2\n      mstore\n      0x20\n      add\n      0x05\n      dup3\n      add\n      sload\n      dup2\n      mstore\n      0x20\n      add\n      0x06\n      dup3\n      add\n      sload\n      dup2\n      mstore\n      pop\n      pop\n        /* \"contracts/Transaction.sol\":2388:2390  id */\n      dup4\n        /* \"contracts/Transaction.sol\":2391:2392  i */\n      dup4\n        /* \"contracts/Transaction.sol\":2388:2393  id[i] */\n      dup2\n      mload\n      dup2\n      lt\n      tag_86\n      jumpi\n      tag_87\n      tag_64\n      jump\t// in\n    tag_87:\n    tag_86:\n      0x20\n      mul\n      0x20\n      add\n      add\n        /* \"contracts/Transaction.sol\":2388:2407  id[i] = transaction */\n      dup2\n      swap1\n      mstore\n      pop\n        /* \"contracts/Transaction.sol\":2313:2417  {\r... */\n      pop\n        /* \"contracts/Transaction.sol\":2308:2311  i++ */\n      dup1\n      dup1\n      tag_88\n      swap1\n      tag_38\n      jump\t// in\n    tag_88:\n      swap2\n      pop\n      pop\n        /* \"contracts/Transaction.sol\":2268:2417  for (uint i = 0; i < transactionsCount; i++) {\r... */\n      jump(tag_83)\n    tag_84:\n      pop\n        /* \"contracts/Transaction.sol\":2432:2434  id */\n      dup1\n        /* \"contracts/Transaction.sol\":2425:2434  return id */\n      swap2\n      pop\n      pop\n        /* \"contracts/Transaction.sol\":2116:2440  function getTransactions() public view returns (Transaction[] memory){\r... */\n      swap1\n      jump\t// out\n        /* \"contracts/Transaction.sol\":844:960  function get(uint _transid) public view returns(Transaction memory) {\r... */\n    tag_24:\n        /* \"contracts/Transaction.sol\":892:910  Transaction memory */\n      tag_89\n      tag_82\n      jump\t// in\n    tag_89:\n        /* \"contracts/Transaction.sol\":930:942  transactions */\n      0x00\n        /* \"contracts/Transaction.sol\":930:952  transactions[_transid] */\n      dup1\n        /* \"contracts/Transaction.sol\":943:951  _transid */\n      dup4\n        /* \"contracts/Transaction.sol\":930:952  transactions[_transid] */\n      dup2\n      mstore\n      0x20\n      add\n      swap1\n      dup2\n      mstore\n      0x20\n      add\n      0x00\n      keccak256\n        /* \"contracts/Transaction.sol\":923:952  return transactions[_transid] */\n      mload(0x40)\n      dup1\n      0xe0\n      add\n      0x40\n      mstore\n      swap1\n      dup2\n      0x00\n      dup3\n      add\n      sload\n      dup2\n      mstore\n      0x20\n      add\n      0x01\n      dup3\n      add\n      sload\n      dup2\n      mstore\n      0x20\n      add\n      0x02\n      dup3\n      add\n      sload\n      dup2\n      mstore\n      0x20\n      add\n      0x03\n      dup3\n      add\n      sload\n      dup2\n      mstore\n      0x20\n      add\n      0x04\n      dup3\n      add\n      sload\n      dup2\n      mstore\n      0x20\n      add\n      0x05\n      dup3\n      add\n      sload\n      dup2\n      mstore\n      0x20\n      add\n      0x06\n      dup3\n      add\n      sload\n      dup2\n      mstore\n      pop\n      pop\n      swap1\n      pop\n        /* \"contracts/Transaction.sol\":844:960  function get(uint _transid) public view returns(Transaction memory) {\r... */\n      swap2\n      swap1\n      pop\n      jump\t// out\n        /* \"contracts/Transaction.sol\":314:363  mapping (uint => Transaction) public transactions */\n    tag_29:\n      mstore(0x20, 0x00)\n      dup1\n      0x00\n      mstore\n      keccak256(0x00, 0x40)\n      0x00\n      swap2\n      pop\n      swap1\n      pop\n      dup1\n      0x00\n      add\n      sload\n      swap1\n      dup1\n      0x01\n      add\n      sload\n      swap1\n      dup1\n      0x02\n      add\n      sload\n      swap1\n      dup1\n      0x03\n      add\n      sload\n      swap1\n      dup1\n      0x04\n      add\n      sload\n      swap1\n      dup1\n      0x05\n      add\n      sload\n      swap1\n      dup1\n      0x06\n      add\n      sload\n      swap1\n      pop\n      dup8\n      jump\t// out\n        /* \"contracts/Transaction.sol\":420:449  uint public transactionsCount */\n    tag_33:\n      sload(0x01)\n      dup2\n      jump\t// out\n    tag_82:\n      mload(0x40)\n      dup1\n      0xe0\n      add\n      0x40\n      mstore\n      dup1\n      0x00\n      dup2\n      mstore\n      0x20\n      add\n      0x00\n      dup2\n      mstore\n      0x20\n      add\n      0x00\n      dup2\n      mstore\n      0x20\n      add\n      0x00\n      dup2\n      mstore\n      0x20\n      add\n      0x00\n      dup2\n      mstore\n      0x20\n      add\n      0x00\n      dup2\n      mstore\n      0x20\n      add\n      0x00\n      dup2\n      mstore\n      pop\n      swap1\n      jump\t// out\n        /* \"#utility.yul\":7:146   */\n    tag_92:\n        /* \"#utility.yul\":53:58   */\n      0x00\n        /* \"#utility.yul\":91:97   */\n      dup2\n        /* \"#utility.yul\":78:98   */\n      calldataload\n        /* \"#utility.yul\":69:98   */\n      swap1\n      pop\n        /* \"#utility.yul\":107:140   */\n      tag_94\n        /* \"#utility.yul\":134:139   */\n      dup2\n        /* \"#utility.yul\":107:140   */\n      tag_95\n      jump\t// in\n    tag_94:\n        /* \"#utility.yul\":7:146   */\n      swap3\n      swap2\n      pop\n      pop\n      jump\t// out\n        /* \"#utility.yul\":152:481   */\n    tag_23:\n        /* \"#utility.yul\":211:217   */\n      0x00\n        /* \"#utility.yul\":260:262   */\n      0x20\n        /* \"#utility.yul\":248:257   */\n      dup3\n        /* \"#utility.yul\":239:246   */\n      dup5\n        /* \"#utility.yul\":235:258   */\n      sub\n        /* \"#utility.yul\":231:263   */\n      slt\n        /* \"#utility.yul\":228:347   */\n      iszero\n      tag_97\n      jumpi\n        /* \"#utility.yul\":266:345   */\n      tag_98\n      tag_99\n      jump\t// in\n    tag_98:\n        /* \"#utility.yul\":228:347   */\n    tag_97:\n        /* \"#utility.yul\":386:387   */\n      0x00\n        /* \"#utility.yul\":411:464   */\n      tag_100\n        /* \"#utility.yul\":456:463   */\n      dup5\n        /* \"#utility.yul\":447:453   */\n      dup3\n        /* \"#utility.yul\":436:445   */\n      dup6\n        /* \"#utility.yul\":432:454   */\n      add\n        /* \"#utility.yul\":411:464   */\n      tag_92\n      jump\t// in\n    tag_100:\n        /* \"#utility.yul\":401:464   */\n      swap2\n      pop\n        /* \"#utility.yul\":357:474   */\n      pop\n        /* \"#utility.yul\":152:481   */\n      swap3\n      swap2\n      pop\n      pop\n      jump\t// out\n        /* \"#utility.yul\":487:1544   */\n    tag_11:\n        /* \"#utility.yul\":591:597   */\n      0x00\n        /* \"#utility.yul\":599:605   */\n      dup1\n        /* \"#utility.yul\":607:613   */\n      0x00\n        /* \"#utility.yul\":615:621   */\n      dup1\n        /* \"#utility.yul\":623:629   */\n      0x00\n        /* \"#utility.yul\":631:637   */\n      dup1\n        /* \"#utility.yul\":680:683   */\n      0xc0\n        /* \"#utility.yul\":668:677   */\n      dup8\n        /* \"#utility.yul\":659:666   */\n      dup10\n        /* \"#utility.yul\":655:678   */\n      sub\n        /* \"#utility.yul\":651:684   */\n      slt\n        /* \"#utility.yul\":648:768   */\n      iszero\n      tag_102\n      jumpi\n        /* \"#utility.yul\":687:766   */\n      tag_103\n      tag_99\n      jump\t// in\n    tag_103:\n        /* \"#utility.yul\":648:768   */\n    tag_102:\n        /* \"#utility.yul\":807:808   */\n      0x00\n        /* \"#utility.yul\":832:885   */\n      tag_104\n        /* \"#utility.yul\":877:884   */\n      dup10\n        /* \"#utility.yul\":868:874   */\n      dup3\n        /* \"#utility.yul\":857:866   */\n      dup11\n        /* \"#utility.yul\":853:875   */\n      add\n        /* \"#utility.yul\":832:885   */\n      tag_92\n      jump\t// in\n    tag_104:\n        /* \"#utility.yul\":822:885   */\n      swap7\n      pop\n        /* \"#utility.yul\":778:895   */\n      pop\n        /* \"#utility.yul\":934:936   */\n      0x20\n        /* \"#utility.yul\":960:1013   */\n      tag_105\n        /* \"#utility.yul\":1005:1012   */\n      dup10\n        /* \"#utility.yul\":996:1002   */\n      dup3\n        /* \"#utility.yul\":985:994   */\n      dup11\n        /* \"#utility.yul\":981:1003   */\n      add\n        /* \"#utility.yul\":960:1013   */\n      tag_92\n      jump\t// in\n    tag_105:\n        /* \"#utility.yul\":950:1013   */\n      swap6\n      pop\n        /* \"#utility.yul\":905:1023   */\n      pop\n        /* \"#utility.yul\":1062:1064   */\n      0x40\n        /* \"#utility.yul\":1088:1141   */\n      tag_106\n        /* \"#utility.yul\":1133:1140   */\n      dup10\n        /* \"#utility.yul\":1124:1130   */\n      dup3\n        /* \"#utility.yul\":1113:1122   */\n      dup11\n        /* \"#utility.yul\":1109:1131   */\n      add\n        /* \"#utility.yul\":1088:1141   */\n      tag_92\n      jump\t// in\n    tag_106:\n        /* \"#utility.yul\":1078:1141   */\n      swap5\n      pop\n        /* \"#utility.yul\":1033:1151   */\n      pop\n        /* \"#utility.yul\":1190:1192   */\n      0x60\n        /* \"#utility.yul\":1216:1269   */\n      tag_107\n        /* \"#utility.yul\":1261:1268   */\n      dup10\n        /* \"#utility.yul\":1252:1258   */\n      dup3\n        /* \"#utility.yul\":1241:1250   */\n      dup11\n        /* \"#utility.yul\":1237:1259   */\n      add\n        /* \"#utility.yul\":1216:1269   */\n      tag_92\n      jump\t// in\n    tag_107:\n        /* \"#utility.yul\":1206:1269   */\n      swap4\n      pop\n        /* \"#utility.yul\":1161:1279   */\n      pop\n        /* \"#utility.yul\":1318:1321   */\n      0x80\n        /* \"#utility.yul\":1345:1398   */\n      tag_108\n        /* \"#utility.yul\":1390:1397   */\n      dup10\n        /* \"#utility.yul\":1381:1387   */\n      dup3\n        /* \"#utility.yul\":1370:1379   */\n      dup11\n        /* \"#utility.yul\":1366:1388   */\n      add\n        /* \"#utility.yul\":1345:1398   */\n      tag_92\n      jump\t// in\n    tag_108:\n        /* \"#utility.yul\":1335:1398   */\n      swap3\n      pop\n        /* \"#utility.yul\":1289:1408   */\n      pop\n        /* \"#utility.yul\":1447:1450   */\n      0xa0\n        /* \"#utility.yul\":1474:1527   */\n      tag_109\n        /* \"#utility.yul\":1519:1526   */\n      dup10\n        /* \"#utility.yul\":1510:1516   */\n      dup3\n        /* \"#utility.yul\":1499:1508   */\n      dup11\n        /* \"#utility.yul\":1495:1517   */\n      add\n        /* \"#utility.yul\":1474:1527   */\n      tag_92\n      jump\t// in\n    tag_109:\n        /* \"#utility.yul\":1464:1527   */\n      swap2\n      pop\n        /* \"#utility.yul\":1418:1537   */\n      pop\n        /* \"#utility.yul\":487:1544   */\n      swap3\n      swap6\n      pop\n      swap3\n      swap6\n      pop\n      swap3\n      swap6\n      jump\t// out\n        /* \"#utility.yul\":1550:1837   */\n    tag_110:\n        /* \"#utility.yul\":1673:1683   */\n      0x00\n        /* \"#utility.yul\":1694:1794   */\n      tag_112\n        /* \"#utility.yul\":1790:1793   */\n      dup4\n        /* \"#utility.yul\":1782:1788   */\n      dup4\n        /* \"#utility.yul\":1694:1794   */\n      tag_113\n      jump\t// in\n    tag_112:\n        /* \"#utility.yul\":1826:1830   */\n      0xe0\n        /* \"#utility.yul\":1821:1824   */\n      dup4\n        /* \"#utility.yul\":1817:1831   */\n      add\n        /* \"#utility.yul\":1803:1831   */\n      swap1\n      pop\n        /* \"#utility.yul\":1550:1837   */\n      swap3\n      swap2\n      pop\n      pop\n      jump\t// out\n        /* \"#utility.yul\":1843:2022   */\n    tag_114:\n        /* \"#utility.yul\":1912:1922   */\n      0x00\n        /* \"#utility.yul\":1933:1979   */\n      tag_116\n        /* \"#utility.yul\":1975:1978   */\n      dup4\n        /* \"#utility.yul\":1967:1973   */\n      dup4\n        /* \"#utility.yul\":1933:1979   */\n      tag_117\n      jump\t// in\n    tag_116:\n        /* \"#utility.yul\":2011:2015   */\n      0x20\n        /* \"#utility.yul\":2006:2009   */\n      dup4\n        /* \"#utility.yul\":2002:2016   */\n      add\n        /* \"#utility.yul\":1988:2016   */\n      swap1\n      pop\n        /* \"#utility.yul\":1843:2022   */\n      swap3\n      swap2\n      pop\n      pop\n      jump\t// out\n        /* \"#utility.yul\":2106:3054   */\n    tag_118:\n        /* \"#utility.yul\":2279:2282   */\n      0x00\n        /* \"#utility.yul\":2308:2389   */\n      tag_120\n        /* \"#utility.yul\":2383:2388   */\n      dup3\n        /* \"#utility.yul\":2308:2389   */\n      tag_121\n      jump\t// in\n    tag_120:\n        /* \"#utility.yul\":2405:2518   */\n      tag_122\n        /* \"#utility.yul\":2511:2517   */\n      dup2\n        /* \"#utility.yul\":2506:2509   */\n      dup6\n        /* \"#utility.yul\":2405:2518   */\n      tag_123\n      jump\t// in\n    tag_122:\n        /* \"#utility.yul\":2398:2518   */\n      swap4\n      pop\n        /* \"#utility.yul\":2542:2625   */\n      tag_124\n        /* \"#utility.yul\":2619:2624   */\n      dup4\n        /* \"#utility.yul\":2542:2625   */\n      tag_125\n      jump\t// in\n    tag_124:\n        /* \"#utility.yul\":2648:2655   */\n      dup1\n        /* \"#utility.yul\":2679:2680   */\n      0x00\n        /* \"#utility.yul\":2664:3029   */\n    tag_126:\n        /* \"#utility.yul\":2689:2695   */\n      dup4\n        /* \"#utility.yul\":2686:2687   */\n      dup2\n        /* \"#utility.yul\":2683:2696   */\n      lt\n        /* \"#utility.yul\":2664:3029   */\n      iszero\n      tag_128\n      jumpi\n        /* \"#utility.yul\":2765:2771   */\n      dup2\n        /* \"#utility.yul\":2759:2772   */\n      mload\n        /* \"#utility.yul\":2792:2909   */\n      tag_129\n        /* \"#utility.yul\":2905:2908   */\n      dup9\n        /* \"#utility.yul\":2890:2903   */\n      dup3\n        /* \"#utility.yul\":2792:2909   */\n      tag_110\n      jump\t// in\n    tag_129:\n        /* \"#utility.yul\":2785:2909   */\n      swap8\n      pop\n        /* \"#utility.yul\":2932:3019   */\n      tag_130\n        /* \"#utility.yul\":3012:3018   */\n      dup4\n        /* \"#utility.yul\":2932:3019   */\n      tag_131\n      jump\t// in\n    tag_130:\n        /* \"#utility.yul\":2922:3019   */\n      swap3\n      pop\n        /* \"#utility.yul\":2724:3029   */\n      pop\n        /* \"#utility.yul\":2711:2712   */\n      0x01\n        /* \"#utility.yul\":2708:2709   */\n      dup2\n        /* \"#utility.yul\":2704:2713   */\n      add\n        /* \"#utility.yul\":2699:2713   */\n      swap1\n      pop\n        /* \"#utility.yul\":2664:3029   */\n      jump(tag_126)\n    tag_128:\n        /* \"#utility.yul\":2668:2682   */\n      pop\n        /* \"#utility.yul\":3045:3048   */\n      dup6\n        /* \"#utility.yul\":3038:3048   */\n      swap4\n      pop\n        /* \"#utility.yul\":2284:3054   */\n      pop\n      pop\n      pop\n        /* \"#utility.yul\":2106:3054   */\n      swap3\n      swap2\n      pop\n      pop\n      jump\t// out\n        /* \"#utility.yul\":3090:3822   */\n    tag_132:\n        /* \"#utility.yul\":3209:3212   */\n      0x00\n        /* \"#utility.yul\":3238:3292   */\n      tag_134\n        /* \"#utility.yul\":3286:3291   */\n      dup3\n        /* \"#utility.yul\":3238:3292   */\n      tag_135\n      jump\t// in\n    tag_134:\n        /* \"#utility.yul\":3308:3394   */\n      tag_136\n        /* \"#utility.yul\":3387:3393   */\n      dup2\n        /* \"#utility.yul\":3382:3385   */\n      dup6\n        /* \"#utility.yul\":3308:3394   */\n      tag_137\n      jump\t// in\n    tag_136:\n        /* \"#utility.yul\":3301:3394   */\n      swap4\n      pop\n        /* \"#utility.yul\":3418:3474   */\n      tag_138\n        /* \"#utility.yul\":3468:3473   */\n      dup4\n        /* \"#utility.yul\":3418:3474   */\n      tag_139\n      jump\t// in\n    tag_138:\n        /* \"#utility.yul\":3497:3504   */\n      dup1\n        /* \"#utility.yul\":3528:3529   */\n      0x00\n        /* \"#utility.yul\":3513:3797   */\n    tag_140:\n        /* \"#utility.yul\":3538:3544   */\n      dup4\n        /* \"#utility.yul\":3535:3536   */\n      dup2\n        /* \"#utility.yul\":3532:3545   */\n      lt\n        /* \"#utility.yul\":3513:3797   */\n      iszero\n      tag_142\n      jumpi\n        /* \"#utility.yul\":3614:3620   */\n      dup2\n        /* \"#utility.yul\":3608:3621   */\n      mload\n        /* \"#utility.yul\":3641:3704   */\n      tag_143\n        /* \"#utility.yul\":3700:3703   */\n      dup9\n        /* \"#utility.yul\":3685:3698   */\n      dup3\n        /* \"#utility.yul\":3641:3704   */\n      tag_114\n      jump\t// in\n    tag_143:\n        /* \"#utility.yul\":3634:3704   */\n      swap8\n      pop\n        /* \"#utility.yul\":3727:3787   */\n      tag_144\n        /* \"#utility.yul\":3780:3786   */\n      dup4\n        /* \"#utility.yul\":3727:3787   */\n      tag_145\n      jump\t// in\n    tag_144:\n        /* \"#utility.yul\":3717:3787   */\n      swap3\n      pop\n        /* \"#utility.yul\":3573:3797   */\n      pop\n        /* \"#utility.yul\":3560:3561   */\n      0x01\n        /* \"#utility.yul\":3557:3558   */\n      dup2\n        /* \"#utility.yul\":3553:3562   */\n      add\n        /* \"#utility.yul\":3548:3562   */\n      swap1\n      pop\n        /* \"#utility.yul\":3513:3797   */\n      jump(tag_140)\n    tag_142:\n        /* \"#utility.yul\":3517:3531   */\n      pop\n        /* \"#utility.yul\":3813:3816   */\n      dup6\n        /* \"#utility.yul\":3806:3816   */\n      swap4\n      pop\n        /* \"#utility.yul\":3214:3822   */\n      pop\n      pop\n      pop\n        /* \"#utility.yul\":3090:3822   */\n      swap3\n      swap2\n      pop\n      pop\n      jump\t// out\n        /* \"#utility.yul\":3902:5323   */\n    tag_113:\n        /* \"#utility.yul\":4043:4047   */\n      0xe0\n        /* \"#utility.yul\":4038:4041   */\n      dup3\n        /* \"#utility.yul\":4034:4048   */\n      add\n        /* \"#utility.yul\":4139:4143   */\n      0x00\n        /* \"#utility.yul\":4132:4137   */\n      dup3\n        /* \"#utility.yul\":4128:4144   */\n      add\n        /* \"#utility.yul\":4122:4145   */\n      mload\n        /* \"#utility.yul\":4158:4221   */\n      tag_147\n        /* \"#utility.yul\":4215:4219   */\n      0x00\n        /* \"#utility.yul\":4210:4213   */\n      dup6\n        /* \"#utility.yul\":4206:4220   */\n      add\n        /* \"#utility.yul\":4192:4204   */\n      dup3\n        /* \"#utility.yul\":4158:4221   */\n      tag_117\n      jump\t// in\n    tag_147:\n        /* \"#utility.yul\":4058:4231   */\n      pop\n        /* \"#utility.yul\":4315:4319   */\n      0x20\n        /* \"#utility.yul\":4308:4313   */\n      dup3\n        /* \"#utility.yul\":4304:4320   */\n      add\n        /* \"#utility.yul\":4298:4321   */\n      mload\n        /* \"#utility.yul\":4334:4397   */\n      tag_148\n        /* \"#utility.yul\":4391:4395   */\n      0x20\n        /* \"#utility.yul\":4386:4389   */\n      dup6\n        /* \"#utility.yul\":4382:4396   */\n      add\n        /* \"#utility.yul\":4368:4380   */\n      dup3\n        /* \"#utility.yul\":4334:4397   */\n      tag_117\n      jump\t// in\n    tag_148:\n        /* \"#utility.yul\":4241:4407   */\n      pop\n        /* \"#utility.yul\":4492:4496   */\n      0x40\n        /* \"#utility.yul\":4485:4490   */\n      dup3\n        /* \"#utility.yul\":4481:4497   */\n      add\n        /* \"#utility.yul\":4475:4498   */\n      mload\n        /* \"#utility.yul\":4511:4574   */\n      tag_149\n        /* \"#utility.yul\":4568:4572   */\n      0x40\n        /* \"#utility.yul\":4563:4566   */\n      dup6\n        /* \"#utility.yul\":4559:4573   */\n      add\n        /* \"#utility.yul\":4545:4557   */\n      dup3\n        /* \"#utility.yul\":4511:4574   */\n      tag_117\n      jump\t// in\n    tag_149:\n        /* \"#utility.yul\":4417:4584   */\n      pop\n        /* \"#utility.yul\":4674:4678   */\n      0x60\n        /* \"#utility.yul\":4667:4672   */\n      dup3\n        /* \"#utility.yul\":4663:4679   */\n      add\n        /* \"#utility.yul\":4657:4680   */\n      mload\n        /* \"#utility.yul\":4693:4756   */\n      tag_150\n        /* \"#utility.yul\":4750:4754   */\n      0x60\n        /* \"#utility.yul\":4745:4748   */\n      dup6\n        /* \"#utility.yul\":4741:4755   */\n      add\n        /* \"#utility.yul\":4727:4739   */\n      dup3\n        /* \"#utility.yul\":4693:4756   */\n      tag_117\n      jump\t// in\n    tag_150:\n        /* \"#utility.yul\":4594:4766   */\n      pop\n        /* \"#utility.yul\":4853:4857   */\n      0x80\n        /* \"#utility.yul\":4846:4851   */\n      dup3\n        /* \"#utility.yul\":4842:4858   */\n      add\n        /* \"#utility.yul\":4836:4859   */\n      mload\n        /* \"#utility.yul\":4872:4935   */\n      tag_151\n        /* \"#utility.yul\":4929:4933   */\n      0x80\n        /* \"#utility.yul\":4924:4927   */\n      dup6\n        /* \"#utility.yul\":4920:4934   */\n      add\n        /* \"#utility.yul\":4906:4918   */\n      dup3\n        /* \"#utility.yul\":4872:4935   */\n      tag_117\n      jump\t// in\n    tag_151:\n        /* \"#utility.yul\":4776:4945   */\n      pop\n        /* \"#utility.yul\":5039:5043   */\n      0xa0\n        /* \"#utility.yul\":5032:5037   */\n      dup3\n        /* \"#utility.yul\":5028:5044   */\n      add\n        /* \"#utility.yul\":5022:5045   */\n      mload\n        /* \"#utility.yul\":5058:5121   */\n      tag_152\n        /* \"#utility.yul\":5115:5119   */\n      0xa0\n        /* \"#utility.yul\":5110:5113   */\n      dup6\n        /* \"#utility.yul\":5106:5120   */\n      add\n        /* \"#utility.yul\":5092:5104   */\n      dup3\n        /* \"#utility.yul\":5058:5121   */\n      tag_117\n      jump\t// in\n    tag_152:\n        /* \"#utility.yul\":4955:5131   */\n      pop\n        /* \"#utility.yul\":5224:5228   */\n      0xc0\n        /* \"#utility.yul\":5217:5222   */\n      dup3\n        /* \"#utility.yul\":5213:5229   */\n      add\n        /* \"#utility.yul\":5207:5230   */\n      mload\n        /* \"#utility.yul\":5243:5306   */\n      tag_153\n        /* \"#utility.yul\":5300:5304   */\n      0xc0\n        /* \"#utility.yul\":5295:5298   */\n      dup6\n        /* \"#utility.yul\":5291:5305   */\n      add\n        /* \"#utility.yul\":5277:5289   */\n      dup3\n        /* \"#utility.yul\":5243:5306   */\n      tag_117\n      jump\t// in\n    tag_153:\n        /* \"#utility.yul\":5141:5316   */\n      pop\n        /* \"#utility.yul\":4012:5323   */\n      pop\n        /* \"#utility.yul\":3902:5323   */\n      pop\n      pop\n      jump\t// out\n        /* \"#utility.yul\":5403:6834   */\n    tag_154:\n        /* \"#utility.yul\":5554:5558   */\n      0xe0\n        /* \"#utility.yul\":5549:5552   */\n      dup3\n        /* \"#utility.yul\":5545:5559   */\n      add\n        /* \"#utility.yul\":5650:5654   */\n      0x00\n        /* \"#utility.yul\":5643:5648   */\n      dup3\n        /* \"#utility.yul\":5639:5655   */\n      add\n        /* \"#utility.yul\":5633:5656   */\n      mload\n        /* \"#utility.yul\":5669:5732   */\n      tag_156\n        /* \"#utility.yul\":5726:5730   */\n      0x00\n        /* \"#utility.yul\":5721:5724   */\n      dup6\n        /* \"#utility.yul\":5717:5731   */\n      add\n        /* \"#utility.yul\":5703:5715   */\n      dup3\n        /* \"#utility.yul\":5669:5732   */\n      tag_117\n      jump\t// in\n    tag_156:\n        /* \"#utility.yul\":5569:5742   */\n      pop\n        /* \"#utility.yul\":5826:5830   */\n      0x20\n        /* \"#utility.yul\":5819:5824   */\n      dup3\n        /* \"#utility.yul\":5815:5831   */\n      add\n        /* \"#utility.yul\":5809:5832   */\n      mload\n        /* \"#utility.yul\":5845:5908   */\n      tag_157\n        /* \"#utility.yul\":5902:5906   */\n      0x20\n        /* \"#utility.yul\":5897:5900   */\n      dup6\n        /* \"#utility.yul\":5893:5907   */\n      add\n        /* \"#utility.yul\":5879:5891   */\n      dup3\n        /* \"#utility.yul\":5845:5908   */\n      tag_117\n      jump\t// in\n    tag_157:\n        /* \"#utility.yul\":5752:5918   */\n      pop\n        /* \"#utility.yul\":6003:6007   */\n      0x40\n        /* \"#utility.yul\":5996:6001   */\n      dup3\n        /* \"#utility.yul\":5992:6008   */\n      add\n        /* \"#utility.yul\":5986:6009   */\n      mload\n        /* \"#utility.yul\":6022:6085   */\n      tag_158\n        /* \"#utility.yul\":6079:6083   */\n      0x40\n        /* \"#utility.yul\":6074:6077   */\n      dup6\n        /* \"#utility.yul\":6070:6084   */\n      add\n        /* \"#utility.yul\":6056:6068   */\n      dup3\n        /* \"#utility.yul\":6022:6085   */\n      tag_117\n      jump\t// in\n    tag_158:\n        /* \"#utility.yul\":5928:6095   */\n      pop\n        /* \"#utility.yul\":6185:6189   */\n      0x60\n        /* \"#utility.yul\":6178:6183   */\n      dup3\n        /* \"#utility.yul\":6174:6190   */\n      add\n        /* \"#utility.yul\":6168:6191   */\n      mload\n        /* \"#utility.yul\":6204:6267   */\n      tag_159\n        /* \"#utility.yul\":6261:6265   */\n      0x60\n        /* \"#utility.yul\":6256:6259   */\n      dup6\n        /* \"#utility.yul\":6252:6266   */\n      add\n        /* \"#utility.yul\":6238:6250   */\n      dup3\n        /* \"#utility.yul\":6204:6267   */\n      tag_117\n      jump\t// in\n    tag_159:\n        /* \"#utility.yul\":6105:6277   */\n      pop\n        /* \"#utility.yul\":6364:6368   */\n      0x80\n        /* \"#utility.yul\":6357:6362   */\n      dup3\n        /* \"#utility.yul\":6353:6369   */\n      add\n        /* \"#utility.yul\":6347:6370   */\n      mload\n        /* \"#utility.yul\":6383:6446   */\n      tag_160\n        /* \"#utility.yul\":6440:6444   */\n      0x80\n        /* \"#utility.yul\":6435:6438   */\n      dup6\n        /* \"#utility.yul\":6431:6445   */\n      add\n        /* \"#utility.yul\":6417:6429   */\n      dup3\n        /* \"#utility.yul\":6383:6446   */\n      tag_117\n      jump\t// in\n    tag_160:\n        /* \"#utility.yul\":6287:6456   */\n      pop\n        /* \"#utility.yul\":6550:6554   */\n      0xa0\n        /* \"#utility.yul\":6543:6548   */\n      dup3\n        /* \"#utility.yul\":6539:6555   */\n      add\n        /* \"#utility.yul\":6533:6556   */\n      mload\n        /* \"#utility.yul\":6569:6632   */\n      tag_161\n        /* \"#utility.yul\":6626:6630   */\n      0xa0\n        /* \"#utility.yul\":6621:6624   */\n      dup6\n        /* \"#utility.yul\":6617:6631   */\n      add\n        /* \"#utility.yul\":6603:6615   */\n      dup3\n        /* \"#utility.yul\":6569:6632   */\n      tag_117\n      jump\t// in\n    tag_161:\n        /* \"#utility.yul\":6466:6642   */\n      pop\n        /* \"#utility.yul\":6735:6739   */\n      0xc0\n        /* \"#utility.yul\":6728:6733   */\n      dup3\n        /* \"#utility.yul\":6724:6740   */\n      add\n        /* \"#utility.yul\":6718:6741   */\n      mload\n        /* \"#utility.yul\":6754:6817   */\n      tag_162\n        /* \"#utility.yul\":6811:6815   */\n      0xc0\n        /* \"#utility.yul\":6806:6809   */\n      dup6\n        /* \"#utility.yul\":6802:6816   */\n      add\n        /* \"#utility.yul\":6788:6800   */\n      dup3\n        /* \"#utility.yul\":6754:6817   */\n      tag_117\n      jump\t// in\n    tag_162:\n        /* \"#utility.yul\":6652:6827   */\n      pop\n        /* \"#utility.yul\":5523:6834   */\n      pop\n        /* \"#utility.yul\":5403:6834   */\n      pop\n      pop\n      jump\t// out\n        /* \"#utility.yul\":6840:6948   */\n    tag_117:\n        /* \"#utility.yul\":6917:6941   */\n      tag_164\n        /* \"#utility.yul\":6935:6940   */\n      dup2\n        /* \"#utility.yul\":6917:6941   */\n      tag_165\n      jump\t// in\n    tag_164:\n        /* \"#utility.yul\":6912:6915   */\n      dup3\n        /* \"#utility.yul\":6905:6942   */\n      mstore\n        /* \"#utility.yul\":6840:6948   */\n      pop\n      pop\n      jump\t// out\n        /* \"#utility.yul\":6954:7072   */\n    tag_166:\n        /* \"#utility.yul\":7041:7065   */\n      tag_168\n        /* \"#utility.yul\":7059:7064   */\n      dup2\n        /* \"#utility.yul\":7041:7065   */\n      tag_165\n      jump\t// in\n    tag_168:\n        /* \"#utility.yul\":7036:7039   */\n      dup3\n        /* \"#utility.yul\":7029:7066   */\n      mstore\n        /* \"#utility.yul\":6954:7072   */\n      pop\n      pop\n      jump\t// out\n        /* \"#utility.yul\":7078:7559   */\n    tag_20:\n        /* \"#utility.yul\":7275:7279   */\n      0x00\n        /* \"#utility.yul\":7313:7315   */\n      0x20\n        /* \"#utility.yul\":7302:7311   */\n      dup3\n        /* \"#utility.yul\":7298:7316   */\n      add\n        /* \"#utility.yul\":7290:7316   */\n      swap1\n      pop\n        /* \"#utility.yul\":7362:7371   */\n      dup2\n        /* \"#utility.yul\":7356:7360   */\n      dup2\n        /* \"#utility.yul\":7352:7372   */\n      sub\n        /* \"#utility.yul\":7348:7349   */\n      0x00\n        /* \"#utility.yul\":7337:7346   */\n      dup4\n        /* \"#utility.yul\":7333:7350   */\n      add\n        /* \"#utility.yul\":7326:7373   */\n      mstore\n        /* \"#utility.yul\":7390:7552   */\n      tag_170\n        /* \"#utility.yul\":7547:7551   */\n      dup2\n        /* \"#utility.yul\":7538:7544   */\n      dup5\n        /* \"#utility.yul\":7390:7552   */\n      tag_118\n      jump\t// in\n    tag_170:\n        /* \"#utility.yul\":7382:7552   */\n      swap1\n      pop\n        /* \"#utility.yul\":7078:7559   */\n      swap3\n      swap2\n      pop\n      pop\n      jump\t// out\n        /* \"#utility.yul\":7565:9246   */\n    tag_16:\n        /* \"#utility.yul\":8098:8102   */\n      0x00\n        /* \"#utility.yul\":8136:8139   */\n      0xc0\n        /* \"#utility.yul\":8125:8134   */\n      dup3\n        /* \"#utility.yul\":8121:8140   */\n      add\n        /* \"#utility.yul\":8113:8140   */\n      swap1\n      pop\n        /* \"#utility.yul\":8186:8195   */\n      dup2\n        /* \"#utility.yul\":8180:8184   */\n      dup2\n        /* \"#utility.yul\":8176:8196   */\n      sub\n        /* \"#utility.yul\":8172:8173   */\n      0x00\n        /* \"#utility.yul\":8161:8170   */\n      dup4\n        /* \"#utility.yul\":8157:8174   */\n      add\n        /* \"#utility.yul\":8150:8197   */\n      mstore\n        /* \"#utility.yul\":8214:8322   */\n      tag_172\n        /* \"#utility.yul\":8317:8321   */\n      dup2\n        /* \"#utility.yul\":8308:8314   */\n      dup10\n        /* \"#utility.yul\":8214:8322   */\n      tag_132\n      jump\t// in\n    tag_172:\n        /* \"#utility.yul\":8206:8322   */\n      swap1\n      pop\n        /* \"#utility.yul\":8369:8378   */\n      dup2\n        /* \"#utility.yul\":8363:8367   */\n      dup2\n        /* \"#utility.yul\":8359:8379   */\n      sub\n        /* \"#utility.yul\":8354:8356   */\n      0x20\n        /* \"#utility.yul\":8343:8352   */\n      dup4\n        /* \"#utility.yul\":8339:8357   */\n      add\n        /* \"#utility.yul\":8332:8380   */\n      mstore\n        /* \"#utility.yul\":8397:8505   */\n      tag_173\n        /* \"#utility.yul\":8500:8504   */\n      dup2\n        /* \"#utility.yul\":8491:8497   */\n      dup9\n        /* \"#utility.yul\":8397:8505   */\n      tag_132\n      jump\t// in\n    tag_173:\n        /* \"#utility.yul\":8389:8505   */\n      swap1\n      pop\n        /* \"#utility.yul\":8552:8561   */\n      dup2\n        /* \"#utility.yul\":8546:8550   */\n      dup2\n        /* \"#utility.yul\":8542:8562   */\n      sub\n        /* \"#utility.yul\":8537:8539   */\n      0x40\n        /* \"#utility.yul\":8526:8535   */\n      dup4\n        /* \"#utility.yul\":8522:8540   */\n      add\n        /* \"#utility.yul\":8515:8563   */\n      mstore\n        /* \"#utility.yul\":8580:8688   */\n      tag_174\n        /* \"#utility.yul\":8683:8687   */\n      dup2\n        /* \"#utility.yul\":8674:8680   */\n      dup8\n        /* \"#utility.yul\":8580:8688   */\n      tag_132\n      jump\t// in\n    tag_174:\n        /* \"#utility.yul\":8572:8688   */\n      swap1\n      pop\n        /* \"#utility.yul\":8735:8744   */\n      dup2\n        /* \"#utility.yul\":8729:8733   */\n      dup2\n        /* \"#utility.yul\":8725:8745   */\n      sub\n        /* \"#utility.yul\":8720:8722   */\n      0x60\n        /* \"#utility.yul\":8709:8718   */\n      dup4\n        /* \"#utility.yul\":8705:8723   */\n      add\n        /* \"#utility.yul\":8698:8746   */\n      mstore\n        /* \"#utility.yul\":8763:8871   */\n      tag_175\n        /* \"#utility.yul\":8866:8870   */\n      dup2\n        /* \"#utility.yul\":8857:8863   */\n      dup7\n        /* \"#utility.yul\":8763:8871   */\n      tag_132\n      jump\t// in\n    tag_175:\n        /* \"#utility.yul\":8755:8871   */\n      swap1\n      pop\n        /* \"#utility.yul\":8919:8928   */\n      dup2\n        /* \"#utility.yul\":8913:8917   */\n      dup2\n        /* \"#utility.yul\":8909:8929   */\n      sub\n        /* \"#utility.yul\":8903:8906   */\n      0x80\n        /* \"#utility.yul\":8892:8901   */\n      dup4\n        /* \"#utility.yul\":8888:8907   */\n      add\n        /* \"#utility.yul\":8881:8930   */\n      mstore\n        /* \"#utility.yul\":8947:9055   */\n      tag_176\n        /* \"#utility.yul\":9050:9054   */\n      dup2\n        /* \"#utility.yul\":9041:9047   */\n      dup6\n        /* \"#utility.yul\":8947:9055   */\n      tag_132\n      jump\t// in\n    tag_176:\n        /* \"#utility.yul\":8939:9055   */\n      swap1\n      pop\n        /* \"#utility.yul\":9103:9112   */\n      dup2\n        /* \"#utility.yul\":9097:9101   */\n      dup2\n        /* \"#utility.yul\":9093:9113   */\n      sub\n        /* \"#utility.yul\":9087:9090   */\n      0xa0\n        /* \"#utility.yul\":9076:9085   */\n      dup4\n        /* \"#utility.yul\":9072:9091   */\n      add\n        /* \"#utility.yul\":9065:9114   */\n      mstore\n        /* \"#utility.yul\":9131:9239   */\n      tag_177\n        /* \"#utility.yul\":9234:9238   */\n      dup2\n        /* \"#utility.yul\":9225:9231   */\n      dup5\n        /* \"#utility.yul\":9131:9239   */\n      tag_132\n      jump\t// in\n    tag_177:\n        /* \"#utility.yul\":9123:9239   */\n      swap1\n      pop\n        /* \"#utility.yul\":7565:9246   */\n      swap8\n      swap7\n      pop\n      pop\n      pop\n      pop\n      pop\n      pop\n      pop\n      jump\t// out\n        /* \"#utility.yul\":9252:9583   */\n    tag_26:\n        /* \"#utility.yul\":9399:9403   */\n      0x00\n        /* \"#utility.yul\":9437:9440   */\n      0xe0\n        /* \"#utility.yul\":9426:9435   */\n      dup3\n        /* \"#utility.yul\":9422:9441   */\n      add\n        /* \"#utility.yul\":9414:9441   */\n      swap1\n      pop\n        /* \"#utility.yul\":9451:9576   */\n      tag_179\n        /* \"#utility.yul\":9573:9574   */\n      0x00\n        /* \"#utility.yul\":9562:9571   */\n      dup4\n        /* \"#utility.yul\":9558:9575   */\n      add\n        /* \"#utility.yul\":9549:9555   */\n      dup5\n        /* \"#utility.yul\":9451:9576   */\n      tag_154\n      jump\t// in\n    tag_179:\n        /* \"#utility.yul\":9252:9583   */\n      swap3\n      swap2\n      pop\n      pop\n      jump\t// out\n        /* \"#utility.yul\":9589:9811   */\n    tag_35:\n        /* \"#utility.yul\":9682:9686   */\n      0x00\n        /* \"#utility.yul\":9720:9722   */\n      0x20\n        /* \"#utility.yul\":9709:9718   */\n      dup3\n        /* \"#utility.yul\":9705:9723   */\n      add\n        /* \"#utility.yul\":9697:9723   */\n      swap1\n      pop\n        /* \"#utility.yul\":9733:9804   */\n      tag_181\n        /* \"#utility.yul\":9801:9802   */\n      0x00\n        /* \"#utility.yul\":9790:9799   */\n      dup4\n        /* \"#utility.yul\":9786:9803   */\n      add\n        /* \"#utility.yul\":9777:9783   */\n      dup5\n        /* \"#utility.yul\":9733:9804   */\n      tag_166\n      jump\t// in\n    tag_181:\n        /* \"#utility.yul\":9589:9811   */\n      swap3\n      swap2\n      pop\n      pop\n      jump\t// out\n        /* \"#utility.yul\":9817:10703   */\n    tag_31:\n        /* \"#utility.yul\":10078:10082   */\n      0x00\n        /* \"#utility.yul\":10116:10119   */\n      0xe0\n        /* \"#utility.yul\":10105:10114   */\n      dup3\n        /* \"#utility.yul\":10101:10120   */\n      add\n        /* \"#utility.yul\":10093:10120   */\n      swap1\n      pop\n        /* \"#utility.yul\":10130:10201   */\n      tag_183\n        /* \"#utility.yul\":10198:10199   */\n      0x00\n        /* \"#utility.yul\":10187:10196   */\n      dup4\n        /* \"#utility.yul\":10183:10200   */\n      add\n        /* \"#utility.yul\":10174:10180   */\n      dup11\n        /* \"#utility.yul\":10130:10201   */\n      tag_166\n      jump\t// in\n    tag_183:\n        /* \"#utility.yul\":10211:10283   */\n      tag_184\n        /* \"#utility.yul\":10279:10281   */\n      0x20\n        /* \"#utility.yul\":10268:10277   */\n      dup4\n        /* \"#utility.yul\":10264:10282   */\n      add\n        /* \"#utility.yul\":10255:10261   */\n      dup10\n        /* \"#utility.yul\":10211:10283   */\n      tag_166\n      jump\t// in\n    tag_184:\n        /* \"#utility.yul\":10293:10365   */\n      tag_185\n        /* \"#utility.yul\":10361:10363   */\n      0x40\n        /* \"#utility.yul\":10350:10359   */\n      dup4\n        /* \"#utility.yul\":10346:10364   */\n      add\n        /* \"#utility.yul\":10337:10343   */\n      dup9\n        /* \"#utility.yul\":10293:10365   */\n      tag_166\n      jump\t// in\n    tag_185:\n        /* \"#utility.yul\":10375:10447   */\n      tag_186\n        /* \"#utility.yul\":10443:10445   */\n      0x60\n        /* \"#utility.yul\":10432:10441   */\n      dup4\n        /* \"#utility.yul\":10428:10446   */\n      add\n        /* \"#utility.yul\":10419:10425   */\n      dup8\n        /* \"#utility.yul\":10375:10447   */\n      tag_166\n      jump\t// in\n    tag_186:\n        /* \"#utility.yul\":10457:10530   */\n      tag_187\n        /* \"#utility.yul\":10525:10528   */\n      0x80\n        /* \"#utility.yul\":10514:10523   */\n      dup4\n        /* \"#utility.yul\":10510:10529   */\n      add\n        /* \"#utility.yul\":10501:10507   */\n      dup7\n        /* \"#utility.yul\":10457:10530   */\n      tag_166\n      jump\t// in\n    tag_187:\n        /* \"#utility.yul\":10540:10613   */\n      tag_188\n        /* \"#utility.yul\":10608:10611   */\n      0xa0\n        /* \"#utility.yul\":10597:10606   */\n      dup4\n        /* \"#utility.yul\":10593:10612   */\n      add\n        /* \"#utility.yul\":10584:10590   */\n      dup6\n        /* \"#utility.yul\":10540:10613   */\n      tag_166\n      jump\t// in\n    tag_188:\n        /* \"#utility.yul\":10623:10696   */\n      tag_189\n        /* \"#utility.yul\":10691:10694   */\n      0xc0\n        /* \"#utility.yul\":10680:10689   */\n      dup4\n        /* \"#utility.yul\":10676:10695   */\n      add\n        /* \"#utility.yul\":10667:10673   */\n      dup5\n        /* \"#utility.yul\":10623:10696   */\n      tag_166\n      jump\t// in\n    tag_189:\n        /* \"#utility.yul\":9817:10703   */\n      swap9\n      swap8\n      pop\n      pop\n      pop\n      pop\n      pop\n      pop\n      pop\n      pop\n      jump\t// out\n        /* \"#utility.yul\":10790:10949   */\n    tag_125:\n        /* \"#utility.yul\":10884:10888   */\n      0x00\n        /* \"#utility.yul\":10907:10910   */\n      dup2\n        /* \"#utility.yul\":10899:10910   */\n      swap1\n      pop\n        /* \"#utility.yul\":10937:10941   */\n      0x20\n        /* \"#utility.yul\":10932:10935   */\n      dup3\n        /* \"#utility.yul\":10928:10942   */\n      add\n        /* \"#utility.yul\":10920:10942   */\n      swap1\n      pop\n        /* \"#utility.yul\":10790:10949   */\n      swap2\n      swap1\n      pop\n      jump\t// out\n        /* \"#utility.yul\":10955:11087   */\n    tag_139:\n        /* \"#utility.yul\":11022:11026   */\n      0x00\n        /* \"#utility.yul\":11045:11048   */\n      dup2\n        /* \"#utility.yul\":11037:11048   */\n      swap1\n      pop\n        /* \"#utility.yul\":11075:11079   */\n      0x20\n        /* \"#utility.yul\":11070:11073   */\n      dup3\n        /* \"#utility.yul\":11066:11080   */\n      add\n        /* \"#utility.yul\":11058:11080   */\n      swap1\n      pop\n        /* \"#utility.yul\":10955:11087   */\n      swap2\n      swap1\n      pop\n      jump\t// out\n        /* \"#utility.yul\":11093:11234   */\n    tag_121:\n        /* \"#utility.yul\":11187:11193   */\n      0x00\n        /* \"#utility.yul\":11221:11226   */\n      dup2\n        /* \"#utility.yul\":11215:11227   */\n      mload\n        /* \"#utility.yul\":11205:11227   */\n      swap1\n      pop\n        /* \"#utility.yul\":11093:11234   */\n      swap2\n      swap1\n      pop\n      jump\t// out\n        /* \"#utility.yul\":11240:11354   */\n    tag_135:\n        /* \"#utility.yul\":11307:11313   */\n      0x00\n        /* \"#utility.yul\":11341:11346   */\n      dup2\n        /* \"#utility.yul\":11335:11347   */\n      mload\n        /* \"#utility.yul\":11325:11347   */\n      swap1\n      pop\n        /* \"#utility.yul\":11240:11354   */\n      swap2\n      swap1\n      pop\n      jump\t// out\n        /* \"#utility.yul\":11360:11500   */\n    tag_131:\n        /* \"#utility.yul\":11457:11461   */\n      0x00\n        /* \"#utility.yul\":11489:11493   */\n      0x20\n        /* \"#utility.yul\":11484:11487   */\n      dup3\n        /* \"#utility.yul\":11480:11494   */\n      add\n        /* \"#utility.yul\":11472:11494   */\n      swap1\n      pop\n        /* \"#utility.yul\":11360:11500   */\n      swap2\n      swap1\n      pop\n      jump\t// out\n        /* \"#utility.yul\":11506:11619   */\n    tag_145:\n        /* \"#utility.yul\":11576:11580   */\n      0x00\n        /* \"#utility.yul\":11608:11612   */\n      0x20\n        /* \"#utility.yul\":11603:11606   */\n      dup3\n        /* \"#utility.yul\":11599:11613   */\n      add\n        /* \"#utility.yul\":11591:11613   */\n      swap1\n      pop\n        /* \"#utility.yul\":11506:11619   */\n      swap2\n      swap1\n      pop\n      jump\t// out\n        /* \"#utility.yul\":11625:11836   */\n    tag_123:\n        /* \"#utility.yul\":11751:11762   */\n      0x00\n        /* \"#utility.yul\":11785:11791   */\n      dup3\n        /* \"#utility.yul\":11780:11783   */\n      dup3\n        /* \"#utility.yul\":11773:11792   */\n      mstore\n        /* \"#utility.yul\":11825:11829   */\n      0x20\n        /* \"#utility.yul\":11820:11823   */\n      dup3\n        /* \"#utility.yul\":11816:11830   */\n      add\n        /* \"#utility.yul\":11801:11830   */\n      swap1\n      pop\n        /* \"#utility.yul\":11625:11836   */\n      swap3\n      swap2\n      pop\n      pop\n      jump\t// out\n        /* \"#utility.yul\":11842:12026   */\n    tag_137:\n        /* \"#utility.yul\":11941:11952   */\n      0x00\n        /* \"#utility.yul\":11975:11981   */\n      dup3\n        /* \"#utility.yul\":11970:11973   */\n      dup3\n        /* \"#utility.yul\":11963:11982   */\n      mstore\n        /* \"#utility.yul\":12015:12019   */\n      0x20\n        /* \"#utility.yul\":12010:12013   */\n      dup3\n        /* \"#utility.yul\":12006:12020   */\n      add\n        /* \"#utility.yul\":11991:12020   */\n      swap1\n      pop\n        /* \"#utility.yul\":11842:12026   */\n      swap3\n      swap2\n      pop\n      pop\n      jump\t// out\n        /* \"#utility.yul\":12032:12109   */\n    tag_165:\n        /* \"#utility.yul\":12069:12076   */\n      0x00\n        /* \"#utility.yul\":12098:12103   */\n      dup2\n        /* \"#utility.yul\":12087:12103   */\n      swap1\n      pop\n        /* \"#utility.yul\":12032:12109   */\n      swap2\n      swap1\n      pop\n      jump\t// out\n        /* \"#utility.yul\":12115:12348   */\n    tag_38:\n        /* \"#utility.yul\":12154:12157   */\n      0x00\n        /* \"#utility.yul\":12177:12201   */\n      tag_202\n        /* \"#utility.yul\":12195:12200   */\n      dup3\n        /* \"#utility.yul\":12177:12201   */\n      tag_165\n      jump\t// in\n    tag_202:\n        /* \"#utility.yul\":12168:12201   */\n      swap2\n      pop\n        /* \"#utility.yul\":12223:12289   */\n      0xffffffffffffffffffffffffffffffffffffffffffffffffffffffffffffffff\n        /* \"#utility.yul\":12216:12221   */\n      dup3\n        /* \"#utility.yul\":12213:12290   */\n      eq\n        /* \"#utility.yul\":12210:12313   */\n      iszero\n      tag_203\n      jumpi\n        /* \"#utility.yul\":12293:12311   */\n      tag_204\n      tag_205\n      jump\t// in\n    tag_204:\n        /* \"#utility.yul\":12210:12313   */\n    tag_203:\n        /* \"#utility.yul\":12340:12341   */\n      0x01\n        /* \"#utility.yul\":12333:12338   */\n      dup3\n        /* \"#utility.yul\":12329:12342   */\n      add\n        /* \"#utility.yul\":12322:12342   */\n      swap1\n      pop\n        /* \"#utility.yul\":12115:12348   */\n      swap2\n      swap1\n      pop\n      jump\t// out\n        /* \"#utility.yul\":12354:12534   */\n    tag_205:\n        /* \"#utility.yul\":12402:12479   */\n      0x4e487b7100000000000000000000000000000000000000000000000000000000\n        /* \"#utility.yul\":12399:12400   */\n      0x00\n        /* \"#utility.yul\":12392:12480   */\n      mstore\n        /* \"#utility.yul\":12499:12503   */\n      0x11\n        /* \"#utility.yul\":12496:12497   */\n      0x04\n        /* \"#utility.yul\":12489:12504   */\n      mstore\n        /* \"#utility.yul\":12523:12527   */\n      0x24\n        /* \"#utility.yul\":12520:12521   */\n      0x00\n        /* \"#utility.yul\":12513:12528   */\n      revert\n        /* \"#utility.yul\":12540:12720   */\n    tag_64:\n        /* \"#utility.yul\":12588:12665   */\n      0x4e487b7100000000000000000000000000000000000000000000000000000000\n        /* \"#utility.yul\":12585:12586   */\n      0x00\n        /* \"#utility.yul\":12578:12666   */\n      mstore\n        /* \"#utility.yul\":12685:12689   */\n      0x32\n        /* \"#utility.yul\":12682:12683   */\n      0x04\n        /* \"#utility.yul\":12675:12690   */\n      mstore\n        /* \"#utility.yul\":12709:12713   */\n      0x24\n        /* \"#utility.yul\":12706:12707   */\n      0x00\n        /* \"#utility.yul\":12699:12714   */\n      revert\n        /* \"#utility.yul\":12726:12906   */\n    tag_42:\n        /* \"#utility.yul\":12774:12851   */\n      0x4e487b7100000000000000000000000000000000000000000000000000000000\n        /* \"#utility.yul\":12771:12772   */\n      0x00\n        /* \"#utility.yul\":12764:12852   */\n      mstore\n        /* \"#utility.yul\":12871:12875   */\n      0x41\n        /* \"#utility.yul\":12868:12869   */\n      0x04\n        /* \"#utility.yul\":12861:12876   */\n      mstore\n        /* \"#utility.yul\":12895:12899   */\n      0x24\n        /* \"#utility.yul\":12892:12893   */\n      0x00\n        /* \"#utility.yul\":12885:12900   */\n      revert\n        /* \"#utility.yul\":13035:13152   */\n    tag_99:\n        /* \"#utility.yul\":13144:13145   */\n      0x00\n        /* \"#utility.yul\":13141:13142   */\n      dup1\n        /* \"#utility.yul\":13134:13146   */\n      revert\n        /* \"#utility.yul\":13158:13280   */\n    tag_95:\n        /* \"#utility.yul\":13231:13255   */\n      tag_213\n        /* \"#utility.yul\":13249:13254   */\n      dup2\n        /* \"#utility.yul\":13231:13255   */\n      tag_165\n      jump\t// in\n    tag_213:\n        /* \"#utility.yul\":13224:13229   */\n      dup2\n        /* \"#utility.yul\":13221:13256   */\n      eq\n        /* \"#utility.yul\":13211:13274   */\n      tag_214\n      jumpi\n        /* \"#utility.yul\":13270:13271   */\n      0x00\n        /* \"#utility.yul\":13267:13268   */\n      dup1\n        /* \"#utility.yul\":13260:13272   */\n      revert\n        /* \"#utility.yul\":13211:13274   */\n    tag_214:\n        /* \"#utility.yul\":13158:13280   */\n      pop\n      jump\t// out\n\n    auxdata: 0xa2646970667358221220f4d894c0ebd7278e2a8ff1f6da64fb92668fa80d96f812631659c07951fb9f3264736f6c63430008070033\n}\n",
				"bytecode": {
					"linkReferences": {},
					"object": "608060405234801561001057600080fd5b506000600181905550610cfa806100286000396000f3fe608060405234801561001057600080fd5b50600436106100625760003560e01c80630a6486c11461006757806359705f811461008357806383920e90146100a65780639507d39a146100c45780639ace38c2146100f4578063fd99a7461461012a575b600080fd5b610081600480360381019061007c9190610751565b610148565b005b61008b6101fa565b60405161009d96959493929190610a26565b60405180910390f35b6100ae61050d565b6040516100bb9190610a04565b60405180910390f35b6100de60048036038101906100d99190610724565b610618565b6040516100eb9190610ab1565b60405180910390f35b61010e60048036038101906101099190610724565b61068a565b6040516101219796959493929190610ae7565b60405180910390f35b6101326106cc565b60405161013f9190610acc565b60405180910390f35b6040518060e001604052806001548152602001878152602001868152602001858152602001848152602001838152602001828152506000806001548152602001908152602001600020600082015181600001556020820151816001015560408201518160020155606082015181600301556080820151816004015560a0820151816005015560c08201518160060155905050600160008154809291906101ed90610bd2565b9190505550505050505050565b606080606080606080600060015467ffffffffffffffff81111561022157610220610c79565b5b60405190808252806020026020018201604052801561024f5781602001602082028036833780820191505090505b509050600060015467ffffffffffffffff8111156102705761026f610c79565b5b60405190808252806020026020018201604052801561029e5781602001602082028036833780820191505090505b509050600060015467ffffffffffffffff8111156102bf576102be610c79565b5b6040519080825280602002602001820160405280156102ed5781602001602082028036833780820191505090505b509050600060015467ffffffffffffffff81111561030e5761030d610c79565b5b60405190808252806020026020018201604052801561033c5781602001602082028036833780820191505090505b509050600060015467ffffffffffffffff81111561035d5761035c610c79565b5b60405190808252806020026020018201604052801561038b5781602001602082028036833780820191505090505b509050600060015467ffffffffffffffff8111156103ac576103ab610c79565b5b6040519080825280602002602001820160405280156103da5781602001602082028036833780820191505090505b50905060005b6001548110156104ec5760008060008381526020019081526020016000209050806002015487838151811061041857610417610c4a565b5b602002602001018181525050806000015488838151811061043c5761043b610c4a565b5b60200260200101818152505080600501548483815181106104605761045f610c4a565b5b602002602001018181525050806006015483838151811061048457610483610c4a565b5b60200260200101818152505080600301548683815181106104a8576104a7610c4a565b5b60200260200101818152505080600401548583815181106104cc576104cb610c4a565b5b6020026020010181815250505080806104e490610bd2565b9150506103e0565b508486838387879b509b509b509b509b509b50505050505050909192939495565b6060600060015467ffffffffffffffff81111561052d5761052c610c79565b5b60405190808252806020026020018201604052801561056657816020015b6105536106d2565b81526020019060019003908161054b5790505b50905060005b6001548110156106105760008060008381526020019081526020016000209050806040518060e00160405290816000820154815260200160018201548152602001600282015481526020016003820154815260200160048201548152602001600582015481526020016006820154815250508383815181106105f1576105f0610c4a565b5b602002602001018190525050808061060890610bd2565b91505061056c565b508091505090565b6106206106d2565b6000808381526020019081526020016000206040518060e00160405290816000820154815260200160018201548152602001600282015481526020016003820154815260200160048201548152602001600582015481526020016006820154815250509050919050565b60006020528060005260406000206000915090508060000154908060010154908060020154908060030154908060040154908060050154908060060154905087565b60015481565b6040518060e00160405280600081526020016000815260200160008152602001600081526020016000815260200160008152602001600081525090565b60008135905061071e81610cad565b92915050565b60006020828403121561073a57610739610ca8565b5b60006107488482850161070f565b91505092915050565b60008060008060008060c0878903121561076e5761076d610ca8565b5b600061077c89828a0161070f565b965050602061078d89828a0161070f565b955050604061079e89828a0161070f565b94505060606107af89828a0161070f565b93505060806107c089828a0161070f565b92505060a06107d189828a0161070f565b9150509295509295509295565b60006107ea83836108ca565b60e08301905092915050565b600061080283836109e6565b60208301905092915050565b600061081982610b76565b6108238185610ba6565b935061082e83610b56565b8060005b8381101561085f57815161084688826107de565b975061085183610b8c565b925050600181019050610832565b5085935050505092915050565b600061087782610b81565b6108818185610bb7565b935061088c83610b66565b8060005b838110156108bd5781516108a488826107f6565b97506108af83610b99565b925050600181019050610890565b5085935050505092915050565b60e0820160008201516108e060008501826109e6565b5060208201516108f360208501826109e6565b50604082015161090660408501826109e6565b50606082015161091960608501826109e6565b50608082015161092c60808501826109e6565b5060a082015161093f60a08501826109e6565b5060c082015161095260c08501826109e6565b50505050565b60e08201600082015161096e60008501826109e6565b50602082015161098160208501826109e6565b50604082015161099460408501826109e6565b5060608201516109a760608501826109e6565b5060808201516109ba60808501826109e6565b5060a08201516109cd60a08501826109e6565b5060c08201516109e060c08501826109e6565b50505050565b6109ef81610bc8565b82525050565b6109fe81610bc8565b82525050565b60006020820190508181036000830152610a1e818461080e565b905092915050565b600060c0820190508181036000830152610a40818961086c565b90508181036020830152610a54818861086c565b90508181036040830152610a68818761086c565b90508181036060830152610a7c818661086c565b90508181036080830152610a90818561086c565b905081810360a0830152610aa4818461086c565b9050979650505050505050565b600060e082019050610ac66000830184610958565b92915050565b6000602082019050610ae160008301846109f5565b92915050565b600060e082019050610afc600083018a6109f5565b610b0960208301896109f5565b610b1660408301886109f5565b610b2360608301876109f5565b610b3060808301866109f5565b610b3d60a08301856109f5565b610b4a60c08301846109f5565b98975050505050505050565b6000819050602082019050919050565b6000819050602082019050919050565b600081519050919050565b600081519050919050565b6000602082019050919050565b6000602082019050919050565b600082825260208201905092915050565b600082825260208201905092915050565b6000819050919050565b6000610bdd82610bc8565b91507fffffffffffffffffffffffffffffffffffffffffffffffffffffffffffffffff821415610c1057610c0f610c1b565b5b600182019050919050565b7f4e487b7100000000000000000000000000000000000000000000000000000000600052601160045260246000fd5b7f4e487b7100000000000000000000000000000000000000000000000000000000600052603260045260246000fd5b7f4e487b7100000000000000000000000000000000000000000000000000000000600052604160045260246000fd5b600080fd5b610cb681610bc8565b8114610cc157600080fd5b5056fea2646970667358221220f4d894c0ebd7278e2a8ff1f6da64fb92668fa80d96f812631659c07951fb9f3264736f6c63430008070033",
					"opcodes": "PUSH1 0x80 PUSH1 0x40 MSTORE CALLVALUE DUP1 ISZERO PUSH2 0x10 JUMPI PUSH1 0x0 DUP1 REVERT JUMPDEST POP PUSH1 0x0 PUSH1 0x1 DUP2 SWAP1 SSTORE POP PUSH2 0xCFA DUP1 PUSH2 0x28 PUSH1 0x0 CODECOPY PUSH1 0x0 RETURN INVALID PUSH1 0x80 PUSH1 0x40 MSTORE CALLVALUE DUP1 ISZERO PUSH2 0x10 JUMPI PUSH1 0x0 DUP1 REVERT JUMPDEST POP PUSH1 0x4 CALLDATASIZE LT PUSH2 0x62 JUMPI PUSH1 0x0 CALLDATALOAD PUSH1 0xE0 SHR DUP1 PUSH4 0xA6486C1 EQ PUSH2 0x67 JUMPI DUP1 PUSH4 0x59705F81 EQ PUSH2 0x83 JUMPI DUP1 PUSH4 0x83920E90 EQ PUSH2 0xA6 JUMPI DUP1 PUSH4 0x9507D39A EQ PUSH2 0xC4 JUMPI DUP1 PUSH4 0x9ACE38C2 EQ PUSH2 0xF4 JUMPI DUP1 PUSH4 0xFD99A746 EQ PUSH2 0x12A JUMPI JUMPDEST PUSH1 0x0 DUP1 REVERT JUMPDEST PUSH2 0x81 PUSH1 0x4 DUP1 CALLDATASIZE SUB DUP2 ADD SWAP1 PUSH2 0x7C SWAP2 SWAP1 PUSH2 0x751 JUMP JUMPDEST PUSH2 0x148 JUMP JUMPDEST STOP JUMPDEST PUSH2 0x8B PUSH2 0x1FA JUMP JUMPDEST PUSH1 0x40 MLOAD PUSH2 0x9D SWAP7 SWAP6 SWAP5 SWAP4 SWAP3 SWAP2 SWAP1 PUSH2 0xA26 JUMP JUMPDEST PUSH1 0x40 MLOAD DUP1 SWAP2 SUB SWAP1 RETURN JUMPDEST PUSH2 0xAE PUSH2 0x50D JUMP JUMPDEST PUSH1 0x40 MLOAD PUSH2 0xBB SWAP2 SWAP1 PUSH2 0xA04 JUMP JUMPDEST PUSH1 0x40 MLOAD DUP1 SWAP2 SUB SWAP1 RETURN JUMPDEST PUSH2 0xDE PUSH1 0x4 DUP1 CALLDATASIZE SUB DUP2 ADD SWAP1 PUSH2 0xD9 SWAP2 SWAP1 PUSH2 0x724 JUMP JUMPDEST PUSH2 0x618 JUMP JUMPDEST PUSH1 0x40 MLOAD PUSH2 0xEB SWAP2 SWAP1 PUSH2 0xAB1 JUMP JUMPDEST PUSH1 0x40 MLOAD DUP1 SWAP2 SUB SWAP1 RETURN JUMPDEST PUSH2 0x10E PUSH1 0x4 DUP1 CALLDATASIZE SUB DUP2 ADD SWAP1 PUSH2 0x109 SWAP2 SWAP1 PUSH2 0x724 JUMP JUMPDEST PUSH2 0x68A JUMP JUMPDEST PUSH1 0x40 MLOAD PUSH2 0x121 SWAP8 SWAP7 SWAP6 SWAP5 SWAP4 SWAP3 SWAP2 SWAP1 PUSH2 0xAE7 JUMP JUMPDEST PUSH1 0x40 MLOAD DUP1 SWAP2 SUB SWAP1 RETURN JUMPDEST PUSH2 0x132 PUSH2 0x6CC JUMP JUMPDEST PUSH1 0x40 MLOAD PUSH2 0x13F SWAP2 SWAP1 PUSH2 0xACC JUMP JUMPDEST PUSH1 0x40 MLOAD DUP1 SWAP2 SUB SWAP1 RETURN JUMPDEST PUSH1 0x40 MLOAD DUP1 PUSH1 0xE0 ADD PUSH1 0x40 MSTORE DUP1 PUSH1 0x1 SLOAD DUP2 MSTORE PUSH1 0x20 ADD DUP8 DUP2 MSTORE PUSH1 0x20 ADD DUP7 DUP2 MSTORE PUSH1 0x20 ADD DUP6 DUP2 MSTORE PUSH1 0x20 ADD DUP5 DUP2 MSTORE PUSH1 0x20 ADD DUP4 DUP2 MSTORE PUSH1 0x20 ADD DUP3 DUP2 MSTORE POP PUSH1 0x0 DUP1 PUSH1 0x1 SLOAD DUP2 MSTORE PUSH1 0x20 ADD SWAP1 DUP2 MSTORE PUSH1 0x20 ADD PUSH1 0x0 KECCAK256 PUSH1 0x0 DUP3 ADD MLOAD DUP2 PUSH1 0x0 ADD SSTORE PUSH1 0x20 DUP3 ADD MLOAD DUP2 PUSH1 0x1 ADD SSTORE PUSH1 0x40 DUP3 ADD MLOAD DUP2 PUSH1 0x2 ADD SSTORE PUSH1 0x60 DUP3 ADD MLOAD DUP2 PUSH1 0x3 ADD SSTORE PUSH1 0x80 DUP3 ADD MLOAD DUP2 PUSH1 0x4 ADD SSTORE PUSH1 0xA0 DUP3 ADD MLOAD DUP2 PUSH1 0x5 ADD SSTORE PUSH1 0xC0 DUP3 ADD MLOAD DUP2 PUSH1 0x6 ADD SSTORE SWAP1 POP POP PUSH1 0x1 PUSH1 0x0 DUP2 SLOAD DUP1 SWAP3 SWAP2 SWAP1 PUSH2 0x1ED SWAP1 PUSH2 0xBD2 JUMP JUMPDEST SWAP2 SWAP1 POP SSTORE POP POP POP POP POP POP POP JUMP JUMPDEST PUSH1 0x60 DUP1 PUSH1 0x60 DUP1 PUSH1 0x60 DUP1 PUSH1 0x0 PUSH1 0x1 SLOAD PUSH8 0xFFFFFFFFFFFFFFFF DUP2 GT ISZERO PUSH2 0x221 JUMPI PUSH2 0x220 PUSH2 0xC79 JUMP JUMPDEST JUMPDEST PUSH1 0x40 MLOAD SWAP1 DUP1 DUP3 MSTORE DUP1 PUSH1 0x20 MUL PUSH1 0x20 ADD DUP3 ADD PUSH1 0x40 MSTORE DUP1 ISZERO PUSH2 0x24F JUMPI DUP2 PUSH1 0x20 ADD PUSH1 0x20 DUP3 MUL DUP1 CALLDATASIZE DUP4 CALLDATACOPY DUP1 DUP3 ADD SWAP2 POP POP SWAP1 POP JUMPDEST POP SWAP1 POP PUSH1 0x0 PUSH1 0x1 SLOAD PUSH8 0xFFFFFFFFFFFFFFFF DUP2 GT ISZERO PUSH2 0x270 JUMPI PUSH2 0x26F PUSH2 0xC79 JUMP JUMPDEST JUMPDEST PUSH1 0x40 MLOAD SWAP1 DUP1 DUP3 MSTORE DUP1 PUSH1 0x20 MUL PUSH1 0x20 ADD DUP3 ADD PUSH1 0x40 MSTORE DUP1 ISZERO PUSH2 0x29E JUMPI DUP2 PUSH1 0x20 ADD PUSH1 0x20 DUP3 MUL DUP1 CALLDATASIZE DUP4 CALLDATACOPY DUP1 DUP3 ADD SWAP2 POP POP SWAP1 POP JUMPDEST POP SWAP1 POP PUSH1 0x0 PUSH1 0x1 SLOAD PUSH8 0xFFFFFFFFFFFFFFFF DUP2 GT ISZERO PUSH2 0x2BF JUMPI PUSH2 0x2BE PUSH2 0xC79 JUMP JUMPDEST JUMPDEST PUSH1 0x40 MLOAD SWAP1 DUP1 DUP3 MSTORE DUP1 PUSH1 0x20 MUL PUSH1 0x20 ADD DUP3 ADD PUSH1 0x40 MSTORE DUP1 ISZERO PUSH2 0x2ED JUMPI DUP2 PUSH1 0x20 ADD PUSH1 0x20 DUP3 MUL DUP1 CALLDATASIZE DUP4 CALLDATACOPY DUP1 DUP3 ADD SWAP2 POP POP SWAP1 POP JUMPDEST POP SWAP1 POP PUSH1 0x0 PUSH1 0x1 SLOAD PUSH8 0xFFFFFFFFFFFFFFFF DUP2 GT ISZERO PUSH2 0x30E JUMPI PUSH2 0x30D PUSH2 0xC79 JUMP JUMPDEST JUMPDEST PUSH1 0x40 MLOAD SWAP1 DUP1 DUP3 MSTORE DUP1 PUSH1 0x20 MUL PUSH1 0x20 ADD DUP3 ADD PUSH1 0x40 MSTORE DUP1 ISZERO PUSH2 0x33C JUMPI DUP2 PUSH1 0x20 ADD PUSH1 0x20 DUP3 MUL DUP1 CALLDATASIZE DUP4 CALLDATACOPY DUP1 DUP3 ADD SWAP2 POP POP SWAP1 POP JUMPDEST POP SWAP1 POP PUSH1 0x0 PUSH1 0x1 SLOAD PUSH8 0xFFFFFFFFFFFFFFFF DUP2 GT ISZERO PUSH2 0x35D JUMPI PUSH2 0x35C PUSH2 0xC79 JUMP JUMPDEST JUMPDEST PUSH1 0x40 MLOAD SWAP1 DUP1 DUP3 MSTORE DUP1 PUSH1 0x20 MUL PUSH1 0x20 ADD DUP3 ADD PUSH1 0x40 MSTORE DUP1 ISZERO PUSH2 0x38B JUMPI DUP2 PUSH1 0x20 ADD PUSH1 0x20 DUP3 MUL DUP1 CALLDATASIZE DUP4 CALLDATACOPY DUP1 DUP3 ADD SWAP2 POP POP SWAP1 POP JUMPDEST POP SWAP1 POP PUSH1 0x0 PUSH1 0x1 SLOAD PUSH8 0xFFFFFFFFFFFFFFFF DUP2 GT ISZERO PUSH2 0x3AC JUMPI PUSH2 0x3AB PUSH2 0xC79 JUMP JUMPDEST JUMPDEST PUSH1 0x40 MLOAD SWAP1 DUP1 DUP3 MSTORE DUP1 PUSH1 0x20 MUL PUSH1 0x20 ADD DUP3 ADD PUSH1 0x40 MSTORE DUP1 ISZERO PUSH2 0x3DA JUMPI DUP2 PUSH1 0x20 ADD PUSH1 0x20 DUP3 MUL DUP1 CALLDATASIZE DUP4 CALLDATACOPY DUP1 DUP3 ADD SWAP2 POP POP SWAP1 POP JUMPDEST POP SWAP1 POP PUSH1 0x0 JUMPDEST PUSH1 0x1 SLOAD DUP2 LT ISZERO PUSH2 0x4EC JUMPI PUSH1 0x0 DUP1 PUSH1 0x0 DUP4 DUP2 MSTORE PUSH1 0x20 ADD SWAP1 DUP2 MSTORE PUSH1 0x20 ADD PUSH1 0x0 KECCAK256 SWAP1 POP DUP1 PUSH1 0x2 ADD SLOAD DUP8 DUP4 DUP2 MLOAD DUP2 LT PUSH2 0x418 JUMPI PUSH2 0x417 PUSH2 0xC4A JUMP JUMPDEST JUMPDEST PUSH1 0x20 MUL PUSH1 0x20 ADD ADD DUP2 DUP2 MSTORE POP POP DUP1 PUSH1 0x0 ADD SLOAD DUP9 DUP4 DUP2 MLOAD DUP2 LT PUSH2 0x43C JUMPI PUSH2 0x43B PUSH2 0xC4A JUMP JUMPDEST JUMPDEST PUSH1 0x20 MUL PUSH1 0x20 ADD ADD DUP2 DUP2 MSTORE POP POP DUP1 PUSH1 0x5 ADD SLOAD DUP5 DUP4 DUP2 MLOAD DUP2 LT PUSH2 0x460 JUMPI PUSH2 0x45F PUSH2 0xC4A JUMP JUMPDEST JUMPDEST PUSH1 0x20 MUL PUSH1 0x20 ADD ADD DUP2 DUP2 MSTORE POP POP DUP1 PUSH1 0x6 ADD SLOAD DUP4 DUP4 DUP2 MLOAD DUP2 LT PUSH2 0x484 JUMPI PUSH2 0x483 PUSH2 0xC4A JUMP JUMPDEST JUMPDEST PUSH1 0x20 MUL PUSH1 0x20 ADD ADD DUP2 DUP2 MSTORE POP POP DUP1 PUSH1 0x3 ADD SLOAD DUP7 DUP4 DUP2 MLOAD DUP2 LT PUSH2 0x4A8 JUMPI PUSH2 0x4A7 PUSH2 0xC4A JUMP JUMPDEST JUMPDEST PUSH1 0x20 MUL PUSH1 0x20 ADD ADD DUP2 DUP2 MSTORE POP POP DUP1 PUSH1 0x4 ADD SLOAD DUP6 DUP4 DUP2 MLOAD DUP2 LT PUSH2 0x4CC JUMPI PUSH2 0x4CB PUSH2 0xC4A JUMP JUMPDEST JUMPDEST PUSH1 0x20 MUL PUSH1 0x20 ADD ADD DUP2 DUP2 MSTORE POP POP POP DUP1 DUP1 PUSH2 0x4E4 SWAP1 PUSH2 0xBD2 JUMP JUMPDEST SWAP2 POP POP PUSH2 0x3E0 JUMP JUMPDEST POP DUP5 DUP7 DUP4 DUP4 DUP8 DUP8 SWAP12 POP SWAP12 POP SWAP12 POP SWAP12 POP SWAP12 POP SWAP12 POP POP POP POP POP POP POP SWAP1 SWAP2 SWAP3 SWAP4 SWAP5 SWAP6 JUMP JUMPDEST PUSH1 0x60 PUSH1 0x0 PUSH1 0x1 SLOAD PUSH8 0xFFFFFFFFFFFFFFFF DUP2 GT ISZERO PUSH2 0x52D JUMPI PUSH2 0x52C PUSH2 0xC79 JUMP JUMPDEST JUMPDEST PUSH1 0x40 MLOAD SWAP1 DUP1 DUP3 MSTORE DUP1 PUSH1 0x20 MUL PUSH1 0x20 ADD DUP3 ADD PUSH1 0x40 MSTORE DUP1 ISZERO PUSH2 0x566 JUMPI DUP2 PUSH1 0x20 ADD JUMPDEST PUSH2 0x553 PUSH2 0x6D2 JUMP JUMPDEST DUP2 MSTORE PUSH1 0x20 ADD SWAP1 PUSH1 0x1 SWAP1 SUB SWAP1 DUP2 PUSH2 0x54B JUMPI SWAP1 POP JUMPDEST POP SWAP1 POP PUSH1 0x0 JUMPDEST PUSH1 0x1 SLOAD DUP2 LT ISZERO PUSH2 0x610 JUMPI PUSH1 0x0 DUP1 PUSH1 0x0 DUP4 DUP2 MSTORE PUSH1 0x20 ADD SWAP1 DUP2 MSTORE PUSH1 0x20 ADD PUSH1 0x0 KECCAK256 SWAP1 POP DUP1 PUSH1 0x40 MLOAD DUP1 PUSH1 0xE0 ADD PUSH1 0x40 MSTORE SWAP1 DUP2 PUSH1 0x0 DUP3 ADD SLOAD DUP2 MSTORE PUSH1 0x20 ADD PUSH1 0x1 DUP3 ADD SLOAD DUP2 MSTORE PUSH1 0x20 ADD PUSH1 0x2 DUP3 ADD SLOAD DUP2 MSTORE PUSH1 0x20 ADD PUSH1 0x3 DUP3 ADD SLOAD DUP2 MSTORE PUSH1 0x20 ADD PUSH1 0x4 DUP3 ADD SLOAD DUP2 MSTORE PUSH1 0x20 ADD PUSH1 0x5 DUP3 ADD SLOAD DUP2 MSTORE PUSH1 0x20 ADD PUSH1 0x6 DUP3 ADD SLOAD DUP2 MSTORE POP POP DUP4 DUP4 DUP2 MLOAD DUP2 LT PUSH2 0x5F1 JUMPI PUSH2 0x5F0 PUSH2 0xC4A JUMP JUMPDEST JUMPDEST PUSH1 0x20 MUL PUSH1 0x20 ADD ADD DUP2 SWAP1 MSTORE POP POP DUP1 DUP1 PUSH2 0x608 SWAP1 PUSH2 0xBD2 JUMP JUMPDEST SWAP2 POP POP PUSH2 0x56C JUMP JUMPDEST POP DUP1 SWAP2 POP POP SWAP1 JUMP JUMPDEST PUSH2 0x620 PUSH2 0x6D2 JUMP JUMPDEST PUSH1 0x0 DUP1 DUP4 DUP2 MSTORE PUSH1 0x20 ADD SWAP1 DUP2 MSTORE PUSH1 0x20 ADD PUSH1 0x0 KECCAK256 PUSH1 0x40 MLOAD DUP1 PUSH1 0xE0 ADD PUSH1 0x40 MSTORE SWAP1 DUP2 PUSH1 0x0 DUP3 ADD SLOAD DUP2 MSTORE PUSH1 0x20 ADD PUSH1 0x1 DUP3 ADD SLOAD DUP2 MSTORE PUSH1 0x20 ADD PUSH1 0x2 DUP3 ADD SLOAD DUP2 MSTORE PUSH1 0x20 ADD PUSH1 0x3 DUP3 ADD SLOAD DUP2 MSTORE PUSH1 0x20 ADD PUSH1 0x4 DUP3 ADD SLOAD DUP2 MSTORE PUSH1 0x20 ADD PUSH1 0x5 DUP3 ADD SLOAD DUP2 MSTORE PUSH1 0x20 ADD PUSH1 0x6 DUP3 ADD SLOAD DUP2 MSTORE POP POP SWAP1 POP SWAP2 SWAP1 POP JUMP JUMPDEST PUSH1 0x0 PUSH1 0x20 MSTORE DUP1 PUSH1 0x0 MSTORE PUSH1 0x40 PUSH1 0x0 KECCAK256 PUSH1 0x0 SWAP2 POP SWAP1 POP DUP1 PUSH1 0x0 ADD SLOAD SWAP1 DUP1 PUSH1 0x1 ADD SLOAD SWAP1 DUP1 PUSH1 0x2 ADD SLOAD SWAP1 DUP1 PUSH1 0x3 ADD SLOAD SWAP1 DUP1 PUSH1 0x4 ADD SLOAD SWAP1 DUP1 PUSH1 0x5 ADD SLOAD SWAP1 DUP1 PUSH1 0x6 ADD SLOAD SWAP1 POP DUP8 JUMP JUMPDEST PUSH1 0x1 SLOAD DUP2 JUMP JUMPDEST PUSH1 0x40 MLOAD DUP1 PUSH1 0xE0 ADD PUSH1 0x40 MSTORE DUP1 PUSH1 0x0 DUP2 MSTORE PUSH1 0x20 ADD PUSH1 0x0 DUP2 MSTORE PUSH1 0x20 ADD PUSH1 0x0 DUP2 MSTORE PUSH1 0x20 ADD PUSH1 0x0 DUP2 MSTORE PUSH1 0x20 ADD PUSH1 0x0 DUP2 MSTORE PUSH1 0x20 ADD PUSH1 0x0 DUP2 MSTORE PUSH1 0x20 ADD PUSH1 0x0 DUP2 MSTORE POP SWAP1 JUMP JUMPDEST PUSH1 0x0 DUP2 CALLDATALOAD SWAP1 POP PUSH2 0x71E DUP2 PUSH2 0xCAD JUMP JUMPDEST SWAP3 SWAP2 POP POP JUMP JUMPDEST PUSH1 0x0 PUSH1 0x20 DUP3 DUP5 SUB SLT ISZERO PUSH2 0x73A JUMPI PUSH2 0x739 PUSH2 0xCA8 JUMP JUMPDEST JUMPDEST PUSH1 0x0 PUSH2 0x748 DUP5 DUP3 DUP6 ADD PUSH2 0x70F JUMP JUMPDEST SWAP2 POP POP SWAP3 SWAP2 POP POP JUMP JUMPDEST PUSH1 0x0 DUP1 PUSH1 0x0 DUP1 PUSH1 0x0 DUP1 PUSH1 0xC0 DUP8 DUP10 SUB SLT ISZERO PUSH2 0x76E JUMPI PUSH2 0x76D PUSH2 0xCA8 JUMP JUMPDEST JUMPDEST PUSH1 0x0 PUSH2 0x77C DUP10 DUP3 DUP11 ADD PUSH2 0x70F JUMP JUMPDEST SWAP7 POP POP PUSH1 0x20 PUSH2 0x78D DUP10 DUP3 DUP11 ADD PUSH2 0x70F JUMP JUMPDEST SWAP6 POP POP PUSH1 0x40 PUSH2 0x79E DUP10 DUP3 DUP11 ADD PUSH2 0x70F JUMP JUMPDEST SWAP5 POP POP PUSH1 0x60 PUSH2 0x7AF DUP10 DUP3 DUP11 ADD PUSH2 0x70F JUMP JUMPDEST SWAP4 POP POP PUSH1 0x80 PUSH2 0x7C0 DUP10 DUP3 DUP11 ADD PUSH2 0x70F JUMP JUMPDEST SWAP3 POP POP PUSH1 0xA0 PUSH2 0x7D1 DUP10 DUP3 DUP11 ADD PUSH2 0x70F JUMP JUMPDEST SWAP2 POP POP SWAP3 SWAP6 POP SWAP3 SWAP6 POP SWAP3 SWAP6 JUMP JUMPDEST PUSH1 0x0 PUSH2 0x7EA DUP4 DUP4 PUSH2 0x8CA JUMP JUMPDEST PUSH1 0xE0 DUP4 ADD SWAP1 POP SWAP3 SWAP2 POP POP JUMP JUMPDEST PUSH1 0x0 PUSH2 0x802 DUP4 DUP4 PUSH2 0x9E6 JUMP JUMPDEST PUSH1 0x20 DUP4 ADD SWAP1 POP SWAP3 SWAP2 POP POP JUMP JUMPDEST PUSH1 0x0 PUSH2 0x819 DUP3 PUSH2 0xB76 JUMP JUMPDEST PUSH2 0x823 DUP2 DUP6 PUSH2 0xBA6 JUMP JUMPDEST SWAP4 POP PUSH2 0x82E DUP4 PUSH2 0xB56 JUMP JUMPDEST DUP1 PUSH1 0x0 JUMPDEST DUP4 DUP2 LT ISZERO PUSH2 0x85F JUMPI DUP2 MLOAD PUSH2 0x846 DUP9 DUP3 PUSH2 0x7DE JUMP JUMPDEST SWAP8 POP PUSH2 0x851 DUP4 PUSH2 0xB8C JUMP JUMPDEST SWAP3 POP POP PUSH1 0x1 DUP2 ADD SWAP1 POP PUSH2 0x832 JUMP JUMPDEST POP DUP6 SWAP4 POP POP POP POP SWAP3 SWAP2 POP POP JUMP JUMPDEST PUSH1 0x0 PUSH2 0x877 DUP3 PUSH2 0xB81 JUMP JUMPDEST PUSH2 0x881 DUP2 DUP6 PUSH2 0xBB7 JUMP JUMPDEST SWAP4 POP PUSH2 0x88C DUP4 PUSH2 0xB66 JUMP JUMPDEST DUP1 PUSH1 0x0 JUMPDEST DUP4 DUP2 LT ISZERO PUSH2 0x8BD JUMPI DUP2 MLOAD PUSH2 0x8A4 DUP9 DUP3 PUSH2 0x7F6 JUMP JUMPDEST SWAP8 POP PUSH2 0x8AF DUP4 PUSH2 0xB99 JUMP JUMPDEST SWAP3 POP POP PUSH1 0x1 DUP2 ADD SWAP1 POP PUSH2 0x890 JUMP JUMPDEST POP DUP6 SWAP4 POP POP POP POP SWAP3 SWAP2 POP POP JUMP JUMPDEST PUSH1 0xE0 DUP3 ADD PUSH1 0x0 DUP3 ADD MLOAD PUSH2 0x8E0 PUSH1 0x0 DUP6 ADD DUP3 PUSH2 0x9E6 JUMP JUMPDEST POP PUSH1 0x20 DUP3 ADD MLOAD PUSH2 0x8F3 PUSH1 0x20 DUP6 ADD DUP3 PUSH2 0x9E6 JUMP JUMPDEST POP PUSH1 0x40 DUP3 ADD MLOAD PUSH2 0x906 PUSH1 0x40 DUP6 ADD DUP3 PUSH2 0x9E6 JUMP JUMPDEST POP PUSH1 0x60 DUP3 ADD MLOAD PUSH2 0x919 PUSH1 0x60 DUP6 ADD DUP3 PUSH2 0x9E6 JUMP JUMPDEST POP PUSH1 0x80 DUP3 ADD MLOAD PUSH2 0x92C PUSH1 0x80 DUP6 ADD DUP3 PUSH2 0x9E6 JUMP JUMPDEST POP PUSH1 0xA0 DUP3 ADD MLOAD PUSH2 0x93F PUSH1 0xA0 DUP6 ADD DUP3 PUSH2 0x9E6 JUMP JUMPDEST POP PUSH1 0xC0 DUP3 ADD MLOAD PUSH2 0x952 PUSH1 0xC0 DUP6 ADD DUP3 PUSH2 0x9E6 JUMP JUMPDEST POP POP POP POP JUMP JUMPDEST PUSH1 0xE0 DUP3 ADD PUSH1 0x0 DUP3 ADD MLOAD PUSH2 0x96E PUSH1 0x0 DUP6 ADD DUP3 PUSH2 0x9E6 JUMP JUMPDEST POP PUSH1 0x20 DUP3 ADD MLOAD PUSH2 0x981 PUSH1 0x20 DUP6 ADD DUP3 PUSH2 0x9E6 JUMP JUMPDEST POP PUSH1 0x40 DUP3 ADD MLOAD PUSH2 0x994 PUSH1 0x40 DUP6 ADD DUP3 PUSH2 0x9E6 JUMP JUMPDEST POP PUSH1 0x60 DUP3 ADD MLOAD PUSH2 0x9A7 PUSH1 0x60 DUP6 ADD DUP3 PUSH2 0x9E6 JUMP JUMPDEST POP PUSH1 0x80 DUP3 ADD MLOAD PUSH2 0x9BA PUSH1 0x80 DUP6 ADD DUP3 PUSH2 0x9E6 JUMP JUMPDEST POP PUSH1 0xA0 DUP3 ADD MLOAD PUSH2 0x9CD PUSH1 0xA0 DUP6 ADD DUP3 PUSH2 0x9E6 JUMP JUMPDEST POP PUSH1 0xC0 DUP3 ADD MLOAD PUSH2 0x9E0 PUSH1 0xC0 DUP6 ADD DUP3 PUSH2 0x9E6 JUMP JUMPDEST POP POP POP POP JUMP JUMPDEST PUSH2 0x9EF DUP2 PUSH2 0xBC8 JUMP JUMPDEST DUP3 MSTORE POP POP JUMP JUMPDEST PUSH2 0x9FE DUP2 PUSH2 0xBC8 JUMP JUMPDEST DUP3 MSTORE POP POP JUMP JUMPDEST PUSH1 0x0 PUSH1 0x20 DUP3 ADD SWAP1 POP DUP2 DUP2 SUB PUSH1 0x0 DUP4 ADD MSTORE PUSH2 0xA1E DUP2 DUP5 PUSH2 0x80E JUMP JUMPDEST SWAP1 POP SWAP3 SWAP2 POP POP JUMP JUMPDEST PUSH1 0x0 PUSH1 0xC0 DUP3 ADD SWAP1 POP DUP2 DUP2 SUB PUSH1 0x0 DUP4 ADD MSTORE PUSH2 0xA40 DUP2 DUP10 PUSH2 0x86C JUMP JUMPDEST SWAP1 POP DUP2 DUP2 SUB PUSH1 0x20 DUP4 ADD MSTORE PUSH2 0xA54 DUP2 DUP9 PUSH2 0x86C JUMP JUMPDEST SWAP1 POP DUP2 DUP2 SUB PUSH1 0x40 DUP4 ADD MSTORE PUSH2 0xA68 DUP2 DUP8 PUSH2 0x86C JUMP JUMPDEST SWAP1 POP DUP2 DUP2 SUB PUSH1 0x60 DUP4 ADD MSTORE PUSH2 0xA7C DUP2 DUP7 PUSH2 0x86C JUMP JUMPDEST SWAP1 POP DUP2 DUP2 SUB PUSH1 0x80 DUP4 ADD MSTORE PUSH2 0xA90 DUP2 DUP6 PUSH2 0x86C JUMP JUMPDEST SWAP1 POP DUP2 DUP2 SUB PUSH1 0xA0 DUP4 ADD MSTORE PUSH2 0xAA4 DUP2 DUP5 PUSH2 0x86C JUMP JUMPDEST SWAP1 POP SWAP8 SWAP7 POP POP POP POP POP POP POP JUMP JUMPDEST PUSH1 0x0 PUSH1 0xE0 DUP3 ADD SWAP1 POP PUSH2 0xAC6 PUSH1 0x0 DUP4 ADD DUP5 PUSH2 0x958 JUMP JUMPDEST SWAP3 SWAP2 POP POP JUMP JUMPDEST PUSH1 0x0 PUSH1 0x20 DUP3 ADD SWAP1 POP PUSH2 0xAE1 PUSH1 0x0 DUP4 ADD DUP5 PUSH2 0x9F5 JUMP JUMPDEST SWAP3 SWAP2 POP POP JUMP JUMPDEST PUSH1 0x0 PUSH1 0xE0 DUP3 ADD SWAP1 POP PUSH2 0xAFC PUSH1 0x0 DUP4 ADD DUP11 PUSH2 0x9F5 JUMP JUMPDEST PUSH2 0xB09 PUSH1 0x20 DUP4 ADD DUP10 PUSH2 0x9F5 JUMP JUMPDEST PUSH2 0xB16 PUSH1 0x40 DUP4 ADD DUP9 PUSH2 0x9F5 JUMP JUMPDEST PUSH2 0xB23 PUSH1 0x60 DUP4 ADD DUP8 PUSH2 0x9F5 JUMP JUMPDEST PUSH2 0xB30 PUSH1 0x80 DUP4 ADD DUP7 PUSH2 0x9F5 JUMP JUMPDEST PUSH2 0xB3D PUSH1 0xA0 DUP4 ADD DUP6 PUSH2 0x9F5 JUMP JUMPDEST PUSH2 0xB4A PUSH1 0xC0 DUP4 ADD DUP5 PUSH2 0x9F5 JUMP JUMPDEST SWAP9 SWAP8 POP POP POP POP POP POP POP POP JUMP JUMPDEST PUSH1 0x0 DUP2 SWAP1 POP PUSH1 0x20 DUP3 ADD SWAP1 POP SWAP2 SWAP1 POP JUMP JUMPDEST PUSH1 0x0 DUP2 SWAP1 POP PUSH1 0x20 DUP3 ADD SWAP1 POP SWAP2 SWAP1 POP JUMP JUMPDEST PUSH1 0x0 DUP2 MLOAD SWAP1 POP SWAP2 SWAP1 POP JUMP JUMPDEST PUSH1 0x0 DUP2 MLOAD SWAP1 POP SWAP2 SWAP1 POP JUMP JUMPDEST PUSH1 0x0 PUSH1 0x20 DUP3 ADD SWAP1 POP SWAP2 SWAP1 POP JUMP JUMPDEST PUSH1 0x0 PUSH1 0x20 DUP3 ADD SWAP1 POP SWAP2 SWAP1 POP JUMP JUMPDEST PUSH1 0x0 DUP3 DUP3 MSTORE PUSH1 0x20 DUP3 ADD SWAP1 POP SWAP3 SWAP2 POP POP JUMP JUMPDEST PUSH1 0x0 DUP3 DUP3 MSTORE PUSH1 0x20 DUP3 ADD SWAP1 POP SWAP3 SWAP2 POP POP JUMP JUMPDEST PUSH1 0x0 DUP2 SWAP1 POP SWAP2 SWAP1 POP JUMP JUMPDEST PUSH1 0x0 PUSH2 0xBDD DUP3 PUSH2 0xBC8 JUMP JUMPDEST SWAP2 POP PUSH32 0xFFFFFFFFFFFFFFFFFFFFFFFFFFFFFFFFFFFFFFFFFFFFFFFFFFFFFFFFFFFFFFFF DUP3 EQ ISZERO PUSH2 0xC10 JUMPI PUSH2 0xC0F PUSH2 0xC1B JUMP JUMPDEST JUMPDEST PUSH1 0x1 DUP3 ADD SWAP1 POP SWAP2 SWAP1 POP JUMP JUMPDEST PUSH32 0x4E487B7100000000000000000000000000000000000000000000000000000000 PUSH1 0x0 MSTORE PUSH1 0x11 PUSH1 0x4 MSTORE PUSH1 0x24 PUSH1 0x0 REVERT JUMPDEST PUSH32 0x4E487B7100000000000000000000000000000000000000000000000000000000 PUSH1 0x0 MSTORE PUSH1 0x32 PUSH1 0x4 MSTORE PUSH1 0x24 PUSH1 0x0 REVERT JUMPDEST PUSH32 0x4E487B7100000000000000000000000000000000000000000000000000000000 PUSH1 0x0 MSTORE PUSH1 0x41 PUSH1 0x4 MSTORE PUSH1 0x24 PUSH1 0x0 REVERT JUMPDEST PUSH1 0x0 DUP1 REVERT JUMPDEST PUSH2 0xCB6 DUP2 PUSH2 0xBC8 JUMP JUMPDEST DUP2 EQ PUSH2 0xCC1 JUMPI PUSH1 0x0 DUP1 REVERT JUMPDEST POP JUMP INVALID LOG2 PUSH5 0x6970667358 0x22 SLT KECCAK256 DELEGATECALL 0xD8 SWAP5 0xC0 0xEB 0xD7 0x27 DUP15 0x2A DUP16 CALL 0xF6 0xDA PUSH5 0xFB92668FA8 0xD SWAP7 0xF8 SLT PUSH4 0x1659C079 MLOAD 0xFB SWAP16 ORIGIN PUSH5 0x736F6C6343 STOP ADDMOD SMOD STOP CALLER "
				},
				"gasEstimates": {
					"creation": {
						"codeDepositCost": "664400",
						"executionCost": "5710",
						"totalCost": "670110"
					},
					"external": {
						"addTransaction(uint256,uint256,uint256,uint256,uint256,uint256)": "infinite",
						"get(uint256)": "infinite",
						"getTransaction()": "infinite",
						"getTransactions()": "infinite",
						"transactions(uint256)": "infinite",
						"transactionsCount()": "2517"
					}
				},
				"methodIdentifiers": {
					"addTransaction(uint256,uint256,uint256,uint256,uint256,uint256)": "0a6486c1",
					"get(uint256)": "9507d39a",
					"getTransaction()": "59705f81",
					"getTransactions()": "83920e90",
					"transactions(uint256)": "9ace38c2",
					"transactionsCount()": "fd99a746"
				}
			},
			"storageLayout": {
				"storage": [
					{
						"astId": 21,
						"contract": "contracts/Transaction.sol:Transactions",
						"label": "transactions",
						"offset": 0,
						"slot": "0",
						"type": "t_mapping(t_uint256,t_struct(Transaction)16_storage)"
					},
					{
						"astId": 23,
						"contract": "contracts/Transaction.sol:Transactions",
						"label": "transactionsCount",
						"offset": 0,
						"slot": "1",
						"type": "t_uint256"
					}
				],
				"types": {
					"t_mapping(t_uint256,t_struct(Transaction)16_storage)": {
						"encoding": "mapping",
						"key": "t_uint256",
						"label": "mapping(uint256 => struct Transactions.Transaction)",
						"numberOfBytes": "32",
						"value": "t_struct(Transaction)16_storage"
					},
					"t_struct(Transaction)16_storage": {
						"encoding": "inplace",
						"label": "struct Transactions.Transaction",
						"members": [
							{
								"astId": 3,
								"contract": "contracts/Transaction.sol:Transactions",
								"label": "TransactionID",
								"offset": 0,
								"slot": "0",
								"type": "t_uint256"
							},
							{
								"astId": 5,
								"contract": "contracts/Transaction.sol:Transactions",
								"label": "DrugID",
								"offset": 0,
								"slot": "1",
								"type": "t_uint256"
							},
							{
								"astId": 7,
								"contract": "contracts/Transaction.sol:Transactions",
								"label": "PatchNo",
								"offset": 0,
								"slot": "2",
								"type": "t_uint256"
							},
							{
								"astId": 9,
								"contract": "contracts/Transaction.sol:Transactions",
								"label": "CurrentOwner",
								"offset": 0,
								"slot": "3",
								"type": "t_uint256"
							},
							{
								"astId": 11,
								"contract": "contracts/Transaction.sol:Transactions",
								"label": "FromOwner",
								"offset": 0,
								"slot": "4",
								"type": "t_uint256"
							},
							{
								"astId": 13,
								"contract": "contracts/Transaction.sol:Transactions",
								"label": "TransferedAmount",
								"offset": 0,
								"slot": "5",
								"type": "t_uint256"
							},
							{
								"astId": 15,
								"contract": "contracts/Transaction.sol:Transactions",
								"label": "TransactionDate",
								"offset": 0,
								"slot": "6",
								"type": "t_uint256"
							}
						],
						"numberOfBytes": "224"
					},
					"t_uint256": {
						"encoding": "inplace",
						"label": "uint256",
						"numberOfBytes": "32"
					}
				}
			},
			"userdoc": {
				"kind": "user",
				"methods": {},
				"version": 1
			}
		}
	}
}