{
	"contracts/Users.sol": {
		"Users": {
			"abi": [
				{
					"inputs": [
						{
							"internalType": "string",
							"name": "_username",
							"type": "string"
						},
						{
							"internalType": "enum Users.UserRoles",
							"name": "_userrole",
							"type": "uint8"
						},
						{
							"internalType": "uint256",
							"name": "_lat",
							"type": "uint256"
						},
						{
							"internalType": "uint256",
							"name": "_long",
							"type": "uint256"
						}
					],
					"name": "CreateUser",
					"outputs": [
						{
							"internalType": "bool",
							"name": "",
							"type": "bool"
						}
					],
					"stateMutability": "nonpayable",
					"type": "function"
				}
			],
			"devdoc": {
				"kind": "dev",
				"methods": {},
				"version": 1
			},
			"evm": {
				"assembly": "    /* \"contracts/Users.sol\":99:952  contract Users{\r... */\n  mstore(0x40, 0x80)\n  callvalue\n  dup1\n  iszero\n  tag_1\n  jumpi\n  0x00\n  dup1\n  revert\ntag_1:\n  pop\n  dataSize(sub_0)\n  dup1\n  dataOffset(sub_0)\n  0x00\n  codecopy\n  0x00\n  return\nstop\n\nsub_0: assembly {\n        /* \"contracts/Users.sol\":99:952  contract Users{\r... */\n      mstore(0x40, 0x80)\n      callvalue\n      dup1\n      iszero\n      tag_1\n      jumpi\n      0x00\n      dup1\n      revert\n    tag_1:\n      pop\n      jumpi(tag_2, lt(calldatasize, 0x04))\n      shr(0xe0, calldataload(0x00))\n      dup1\n      0x03693f00\n      eq\n      tag_3\n      jumpi\n    tag_2:\n      0x00\n      dup1\n      revert\n        /* \"contracts/Users.sol\":539:947  function CreateUser(\r... */\n    tag_3:\n      tag_4\n      0x04\n      dup1\n      calldatasize\n      sub\n      dup2\n      add\n      swap1\n      tag_5\n      swap2\n      swap1\n      tag_6\n      jump\t// in\n    tag_5:\n      tag_7\n      jump\t// in\n    tag_4:\n      mload(0x40)\n      tag_8\n      swap2\n      swap1\n      tag_9\n      jump\t// in\n    tag_8:\n      mload(0x40)\n      dup1\n      swap2\n      sub\n      swap1\n      return\n    tag_7:\n        /* \"contracts/Users.sol\":693:697  bool */\n      0x00\n        /* \"contracts/Users.sol\":743:875  User(\r... */\n      mload(0x40)\n      dup1\n      0xa0\n      add\n      0x40\n      mstore\n      dup1\n        /* \"contracts/Users.sol\":762:771  _username */\n      dup7\n        /* \"contracts/Users.sol\":743:875  User(\r... */\n      dup2\n      mstore\n      0x20\n      add\n        /* \"contracts/Users.sol\":796:805  _userrole */\n      dup6\n        /* \"contracts/Users.sol\":743:875  User(\r... */\n      0x06\n      dup2\n      gt\n      iszero\n      tag_11\n      jumpi\n      tag_12\n      tag_13\n      jump\t// in\n    tag_12:\n    tag_11:\n      dup2\n      mstore\n      0x20\n      add\n        /* \"contracts/Users.sol\":821:825  true */\n      0x01\n        /* \"contracts/Users.sol\":743:875  User(\r... */\n      iszero\n      iszero\n      dup2\n      mstore\n      0x20\n      add\n        /* \"contracts/Users.sol\":840:844  _lat */\n      dup5\n        /* \"contracts/Users.sol\":743:875  User(\r... */\n      dup2\n      mstore\n      0x20\n      add\n        /* \"contracts/Users.sol\":859:864  _long */\n      dup4\n        /* \"contracts/Users.sol\":743:875  User(\r... */\n      dup2\n      mstore\n      pop\n        /* \"contracts/Users.sol\":710:728  UserAddressMapping */\n      0x00\n        /* \"contracts/Users.sol\":710:740  UserAddressMapping[msg.sender] */\n      dup1\n        /* \"contracts/Users.sol\":729:739  msg.sender */\n      caller\n        /* \"contracts/Users.sol\":710:740  UserAddressMapping[msg.sender] */\n      0xffffffffffffffffffffffffffffffffffffffff\n      and\n      0xffffffffffffffffffffffffffffffffffffffff\n      and\n      dup2\n      mstore\n      0x20\n      add\n      swap1\n      dup2\n      mstore\n      0x20\n      add\n      0x00\n      keccak256\n        /* \"contracts/Users.sol\":710:875  UserAddressMapping[msg.sender] = User(\r... */\n      0x00\n      dup3\n      add\n      mload\n      dup2\n      0x00\n      add\n      swap1\n      dup1\n      mload\n      swap1\n      0x20\n      add\n      swap1\n      tag_14\n      swap3\n      swap2\n      swap1\n      tag_15\n      jump\t// in\n    tag_14:\n      pop\n      0x20\n      dup3\n      add\n      mload\n      dup2\n      0x01\n      add\n      exp(0x0100, 0x00)\n      dup2\n      sload\n      dup2\n      0xff\n      mul\n      not\n      and\n      swap1\n      dup4\n      0x06\n      dup2\n      gt\n      iszero\n      tag_16\n      jumpi\n      tag_17\n      tag_13\n      jump\t// in\n    tag_17:\n    tag_16:\n      mul\n      or\n      swap1\n      sstore\n      pop\n      0x40\n      dup3\n      add\n      mload\n      dup2\n      0x01\n      add\n      exp(0x0100, 0x01)\n      dup2\n      sload\n      dup2\n      0xff\n      mul\n      not\n      and\n      swap1\n      dup4\n      iszero\n      iszero\n      mul\n      or\n      swap1\n      sstore\n      pop\n      0x60\n      dup3\n      add\n      mload\n      dup2\n      0x02\n      add\n      sstore\n      0x80\n      dup3\n      add\n      mload\n      dup2\n      0x03\n      add\n      sstore\n      swap1\n      pop\n      pop\n        /* \"contracts/Users.sol\":886:900  UsersAddresses */\n      0x01\n        /* \"contracts/Users.sol\":906:916  msg.sender */\n      caller\n        /* \"contracts/Users.sol\":886:917  UsersAddresses.push(msg.sender) */\n      swap1\n      dup1\n      0x01\n      dup2\n      sload\n      add\n      dup1\n      dup3\n      sstore\n      dup1\n      swap2\n      pop\n      pop\n      0x01\n      swap1\n      sub\n      swap1\n      0x00\n      mstore\n      keccak256(0x00, 0x20)\n      add\n      0x00\n      swap1\n      swap2\n      swap1\n      swap2\n      swap1\n      swap2\n      0x0100\n      exp\n      dup2\n      sload\n      dup2\n      0xffffffffffffffffffffffffffffffffffffffff\n      mul\n      not\n      and\n      swap1\n      dup4\n      0xffffffffffffffffffffffffffffffffffffffff\n      and\n      mul\n      or\n      swap1\n      sstore\n      pop\n        /* \"contracts/Users.sol\":935:939  true */\n      0x01\n        /* \"contracts/Users.sol\":928:939  return true */\n      swap1\n      pop\n        /* \"contracts/Users.sol\":539:947  function CreateUser(\r... */\n      swap5\n      swap4\n      pop\n      pop\n      pop\n      pop\n      jump\t// out\n    tag_15:\n      dup3\n      dup1\n      sload\n      tag_19\n      swap1\n      tag_20\n      jump\t// in\n    tag_19:\n      swap1\n      0x00\n      mstore\n      keccak256(0x00, 0x20)\n      swap1\n      0x1f\n      add\n      0x20\n      swap1\n      div\n      dup2\n      add\n      swap3\n      dup3\n      tag_22\n      jumpi\n      0x00\n      dup6\n      sstore\n      jump(tag_21)\n    tag_22:\n      dup3\n      0x1f\n      lt\n      tag_23\n      jumpi\n      dup1\n      mload\n      not(0xff)\n      and\n      dup4\n      dup1\n      add\n      or\n      dup6\n      sstore\n      jump(tag_21)\n    tag_23:\n      dup3\n      dup1\n      add\n      0x01\n      add\n      dup6\n      sstore\n      dup3\n      iszero\n      tag_21\n      jumpi\n      swap2\n      dup3\n      add\n    tag_24:\n      dup3\n      dup2\n      gt\n      iszero\n      tag_25\n      jumpi\n      dup3\n      mload\n      dup3\n      sstore\n      swap2\n      0x20\n      add\n      swap2\n      swap1\n      0x01\n      add\n      swap1\n      jump(tag_24)\n    tag_25:\n    tag_21:\n      pop\n      swap1\n      pop\n      tag_26\n      swap2\n      swap1\n      tag_27\n      jump\t// in\n    tag_26:\n      pop\n      swap1\n      jump\t// out\n    tag_27:\n    tag_28:\n      dup1\n      dup3\n      gt\n      iszero\n      tag_29\n      jumpi\n      0x00\n      dup2\n      0x00\n      swap1\n      sstore\n      pop\n      0x01\n      add\n      jump(tag_28)\n    tag_29:\n      pop\n      swap1\n      jump\t// out\n        /* \"#utility.yul\":7:419   */\n    tag_31:\n        /* \"#utility.yul\":85:90   */\n      0x00\n        /* \"#utility.yul\":110:176   */\n      tag_33\n        /* \"#utility.yul\":126:175   */\n      tag_34\n        /* \"#utility.yul\":168:174   */\n      dup5\n        /* \"#utility.yul\":126:175   */\n      tag_35\n      jump\t// in\n    tag_34:\n        /* \"#utility.yul\":110:176   */\n      tag_36\n      jump\t// in\n    tag_33:\n        /* \"#utility.yul\":101:176   */\n      swap1\n      pop\n        /* \"#utility.yul\":199:205   */\n      dup3\n        /* \"#utility.yul\":192:197   */\n      dup2\n        /* \"#utility.yul\":185:206   */\n      mstore\n        /* \"#utility.yul\":237:241   */\n      0x20\n        /* \"#utility.yul\":230:235   */\n      dup2\n        /* \"#utility.yul\":226:242   */\n      add\n        /* \"#utility.yul\":275:278   */\n      dup5\n        /* \"#utility.yul\":266:272   */\n      dup5\n        /* \"#utility.yul\":261:264   */\n      dup5\n        /* \"#utility.yul\":257:273   */\n      add\n        /* \"#utility.yul\":254:279   */\n      gt\n        /* \"#utility.yul\":251:363   */\n      iszero\n      tag_37\n      jumpi\n        /* \"#utility.yul\":282:361   */\n      tag_38\n      tag_39\n      jump\t// in\n    tag_38:\n        /* \"#utility.yul\":251:363   */\n    tag_37:\n        /* \"#utility.yul\":372:413   */\n      tag_40\n        /* \"#utility.yul\":406:412   */\n      dup5\n        /* \"#utility.yul\":401:404   */\n      dup3\n        /* \"#utility.yul\":396:399   */\n      dup6\n        /* \"#utility.yul\":372:413   */\n      tag_41\n      jump\t// in\n    tag_40:\n        /* \"#utility.yul\":91:419   */\n      pop\n        /* \"#utility.yul\":7:419   */\n      swap4\n      swap3\n      pop\n      pop\n      pop\n      jump\t// out\n        /* \"#utility.yul\":425:590   */\n    tag_42:\n        /* \"#utility.yul\":484:489   */\n      0x00\n        /* \"#utility.yul\":522:528   */\n      dup2\n        /* \"#utility.yul\":509:529   */\n      calldataload\n        /* \"#utility.yul\":500:529   */\n      swap1\n      pop\n        /* \"#utility.yul\":538:584   */\n      tag_44\n        /* \"#utility.yul\":578:583   */\n      dup2\n        /* \"#utility.yul\":538:584   */\n      tag_45\n      jump\t// in\n    tag_44:\n        /* \"#utility.yul\":425:590   */\n      swap3\n      swap2\n      pop\n      pop\n      jump\t// out\n        /* \"#utility.yul\":610:950   */\n    tag_46:\n        /* \"#utility.yul\":666:671   */\n      0x00\n        /* \"#utility.yul\":715:718   */\n      dup3\n        /* \"#utility.yul\":708:712   */\n      0x1f\n        /* \"#utility.yul\":700:706   */\n      dup4\n        /* \"#utility.yul\":696:713   */\n      add\n        /* \"#utility.yul\":692:719   */\n      slt\n        /* \"#utility.yul\":682:804   */\n      tag_48\n      jumpi\n        /* \"#utility.yul\":723:802   */\n      tag_49\n      tag_50\n      jump\t// in\n    tag_49:\n        /* \"#utility.yul\":682:804   */\n    tag_48:\n        /* \"#utility.yul\":840:846   */\n      dup2\n        /* \"#utility.yul\":827:847   */\n      calldataload\n        /* \"#utility.yul\":865:944   */\n      tag_51\n        /* \"#utility.yul\":940:943   */\n      dup5\n        /* \"#utility.yul\":932:938   */\n      dup3\n        /* \"#utility.yul\":925:929   */\n      0x20\n        /* \"#utility.yul\":917:923   */\n      dup7\n        /* \"#utility.yul\":913:930   */\n      add\n        /* \"#utility.yul\":865:944   */\n      tag_31\n      jump\t// in\n    tag_51:\n        /* \"#utility.yul\":856:944   */\n      swap2\n      pop\n        /* \"#utility.yul\":672:950   */\n      pop\n        /* \"#utility.yul\":610:950   */\n      swap3\n      swap2\n      pop\n      pop\n      jump\t// out\n        /* \"#utility.yul\":956:1095   */\n    tag_52:\n        /* \"#utility.yul\":1002:1007   */\n      0x00\n        /* \"#utility.yul\":1040:1046   */\n      dup2\n        /* \"#utility.yul\":1027:1047   */\n      calldataload\n        /* \"#utility.yul\":1018:1047   */\n      swap1\n      pop\n        /* \"#utility.yul\":1056:1089   */\n      tag_54\n        /* \"#utility.yul\":1083:1088   */\n      dup2\n        /* \"#utility.yul\":1056:1089   */\n      tag_55\n      jump\t// in\n    tag_54:\n        /* \"#utility.yul\":956:1095   */\n      swap3\n      swap2\n      pop\n      pop\n      jump\t// out\n        /* \"#utility.yul\":1101:2072   */\n    tag_6:\n        /* \"#utility.yul\":1210:1216   */\n      0x00\n        /* \"#utility.yul\":1218:1224   */\n      dup1\n        /* \"#utility.yul\":1226:1232   */\n      0x00\n        /* \"#utility.yul\":1234:1240   */\n      dup1\n        /* \"#utility.yul\":1283:1286   */\n      0x80\n        /* \"#utility.yul\":1271:1280   */\n      dup6\n        /* \"#utility.yul\":1262:1269   */\n      dup8\n        /* \"#utility.yul\":1258:1281   */\n      sub\n        /* \"#utility.yul\":1254:1287   */\n      slt\n        /* \"#utility.yul\":1251:1371   */\n      iszero\n      tag_57\n      jumpi\n        /* \"#utility.yul\":1290:1369   */\n      tag_58\n      tag_59\n      jump\t// in\n    tag_58:\n        /* \"#utility.yul\":1251:1371   */\n    tag_57:\n        /* \"#utility.yul\":1438:1439   */\n      0x00\n        /* \"#utility.yul\":1427:1436   */\n      dup6\n        /* \"#utility.yul\":1423:1440   */\n      add\n        /* \"#utility.yul\":1410:1441   */\n      calldataload\n        /* \"#utility.yul\":1468:1486   */\n      0xffffffffffffffff\n        /* \"#utility.yul\":1460:1466   */\n      dup2\n        /* \"#utility.yul\":1457:1487   */\n      gt\n        /* \"#utility.yul\":1454:1571   */\n      iszero\n      tag_60\n      jumpi\n        /* \"#utility.yul\":1490:1569   */\n      tag_61\n      tag_62\n      jump\t// in\n    tag_61:\n        /* \"#utility.yul\":1454:1571   */\n    tag_60:\n        /* \"#utility.yul\":1595:1658   */\n      tag_63\n        /* \"#utility.yul\":1650:1657   */\n      dup8\n        /* \"#utility.yul\":1641:1647   */\n      dup3\n        /* \"#utility.yul\":1630:1639   */\n      dup9\n        /* \"#utility.yul\":1626:1648   */\n      add\n        /* \"#utility.yul\":1595:1658   */\n      tag_46\n      jump\t// in\n    tag_63:\n        /* \"#utility.yul\":1585:1658   */\n      swap5\n      pop\n        /* \"#utility.yul\":1381:1668   */\n      pop\n        /* \"#utility.yul\":1707:1709   */\n      0x20\n        /* \"#utility.yul\":1733:1799   */\n      tag_64\n        /* \"#utility.yul\":1791:1798   */\n      dup8\n        /* \"#utility.yul\":1782:1788   */\n      dup3\n        /* \"#utility.yul\":1771:1780   */\n      dup9\n        /* \"#utility.yul\":1767:1789   */\n      add\n        /* \"#utility.yul\":1733:1799   */\n      tag_42\n      jump\t// in\n    tag_64:\n        /* \"#utility.yul\":1723:1799   */\n      swap4\n      pop\n        /* \"#utility.yul\":1678:1809   */\n      pop\n        /* \"#utility.yul\":1848:1850   */\n      0x40\n        /* \"#utility.yul\":1874:1927   */\n      tag_65\n        /* \"#utility.yul\":1919:1926   */\n      dup8\n        /* \"#utility.yul\":1910:1916   */\n      dup3\n        /* \"#utility.yul\":1899:1908   */\n      dup9\n        /* \"#utility.yul\":1895:1917   */\n      add\n        /* \"#utility.yul\":1874:1927   */\n      tag_52\n      jump\t// in\n    tag_65:\n        /* \"#utility.yul\":1864:1927   */\n      swap3\n      pop\n        /* \"#utility.yul\":1819:1937   */\n      pop\n        /* \"#utility.yul\":1976:1978   */\n      0x60\n        /* \"#utility.yul\":2002:2055   */\n      tag_66\n        /* \"#utility.yul\":2047:2054   */\n      dup8\n        /* \"#utility.yul\":2038:2044   */\n      dup3\n        /* \"#utility.yul\":2027:2036   */\n      dup9\n        /* \"#utility.yul\":2023:2045   */\n      add\n        /* \"#utility.yul\":2002:2055   */\n      tag_52\n      jump\t// in\n    tag_66:\n        /* \"#utility.yul\":1992:2055   */\n      swap2\n      pop\n        /* \"#utility.yul\":1947:2065   */\n      pop\n        /* \"#utility.yul\":1101:2072   */\n      swap3\n      swap6\n      swap2\n      swap5\n      pop\n      swap3\n      pop\n      jump\t// out\n        /* \"#utility.yul\":2078:2187   */\n    tag_67:\n        /* \"#utility.yul\":2159:2180   */\n      tag_69\n        /* \"#utility.yul\":2174:2179   */\n      dup2\n        /* \"#utility.yul\":2159:2180   */\n      tag_70\n      jump\t// in\n    tag_69:\n        /* \"#utility.yul\":2154:2157   */\n      dup3\n        /* \"#utility.yul\":2147:2181   */\n      mstore\n        /* \"#utility.yul\":2078:2187   */\n      pop\n      pop\n      jump\t// out\n        /* \"#utility.yul\":2193:2403   */\n    tag_9:\n        /* \"#utility.yul\":2280:2284   */\n      0x00\n        /* \"#utility.yul\":2318:2320   */\n      0x20\n        /* \"#utility.yul\":2307:2316   */\n      dup3\n        /* \"#utility.yul\":2303:2321   */\n      add\n        /* \"#utility.yul\":2295:2321   */\n      swap1\n      pop\n        /* \"#utility.yul\":2331:2396   */\n      tag_72\n        /* \"#utility.yul\":2393:2394   */\n      0x00\n        /* \"#utility.yul\":2382:2391   */\n      dup4\n        /* \"#utility.yul\":2378:2395   */\n      add\n        /* \"#utility.yul\":2369:2375   */\n      dup5\n        /* \"#utility.yul\":2331:2396   */\n      tag_67\n      jump\t// in\n    tag_72:\n        /* \"#utility.yul\":2193:2403   */\n      swap3\n      swap2\n      pop\n      pop\n      jump\t// out\n        /* \"#utility.yul\":2409:2538   */\n    tag_36:\n        /* \"#utility.yul\":2443:2449   */\n      0x00\n        /* \"#utility.yul\":2470:2490   */\n      tag_74\n      tag_75\n      jump\t// in\n    tag_74:\n        /* \"#utility.yul\":2460:2490   */\n      swap1\n      pop\n        /* \"#utility.yul\":2499:2532   */\n      tag_76\n        /* \"#utility.yul\":2527:2531   */\n      dup3\n        /* \"#utility.yul\":2519:2525   */\n      dup3\n        /* \"#utility.yul\":2499:2532   */\n      tag_77\n      jump\t// in\n    tag_76:\n        /* \"#utility.yul\":2409:2538   */\n      swap2\n      swap1\n      pop\n      jump\t// out\n        /* \"#utility.yul\":2544:2619   */\n    tag_75:\n        /* \"#utility.yul\":2577:2583   */\n      0x00\n        /* \"#utility.yul\":2610:2612   */\n      0x40\n        /* \"#utility.yul\":2604:2613   */\n      mload\n        /* \"#utility.yul\":2594:2613   */\n      swap1\n      pop\n        /* \"#utility.yul\":2544:2619   */\n      swap1\n      jump\t// out\n        /* \"#utility.yul\":2625:2933   */\n    tag_35:\n        /* \"#utility.yul\":2687:2691   */\n      0x00\n        /* \"#utility.yul\":2777:2795   */\n      0xffffffffffffffff\n        /* \"#utility.yul\":2769:2775   */\n      dup3\n        /* \"#utility.yul\":2766:2796   */\n      gt\n        /* \"#utility.yul\":2763:2819   */\n      iszero\n      tag_80\n      jumpi\n        /* \"#utility.yul\":2799:2817   */\n      tag_81\n      tag_82\n      jump\t// in\n    tag_81:\n        /* \"#utility.yul\":2763:2819   */\n    tag_80:\n        /* \"#utility.yul\":2837:2866   */\n      tag_83\n        /* \"#utility.yul\":2859:2865   */\n      dup3\n        /* \"#utility.yul\":2837:2866   */\n      tag_84\n      jump\t// in\n    tag_83:\n        /* \"#utility.yul\":2829:2866   */\n      swap1\n      pop\n        /* \"#utility.yul\":2921:2925   */\n      0x20\n        /* \"#utility.yul\":2915:2919   */\n      dup2\n        /* \"#utility.yul\":2911:2926   */\n      add\n        /* \"#utility.yul\":2903:2926   */\n      swap1\n      pop\n        /* \"#utility.yul\":2625:2933   */\n      swap2\n      swap1\n      pop\n      jump\t// out\n        /* \"#utility.yul\":2939:3029   */\n    tag_70:\n        /* \"#utility.yul\":2973:2980   */\n      0x00\n        /* \"#utility.yul\":3016:3021   */\n      dup2\n        /* \"#utility.yul\":3009:3022   */\n      iszero\n        /* \"#utility.yul\":3002:3023   */\n      iszero\n        /* \"#utility.yul\":2991:3023   */\n      swap1\n      pop\n        /* \"#utility.yul\":2939:3029   */\n      swap2\n      swap1\n      pop\n      jump\t// out\n        /* \"#utility.yul\":3035:3112   */\n    tag_86:\n        /* \"#utility.yul\":3072:3079   */\n      0x00\n        /* \"#utility.yul\":3101:3106   */\n      dup2\n        /* \"#utility.yul\":3090:3106   */\n      swap1\n      pop\n        /* \"#utility.yul\":3035:3112   */\n      swap2\n      swap1\n      pop\n      jump\t// out\n        /* \"#utility.yul\":3118:3272   */\n    tag_41:\n        /* \"#utility.yul\":3202:3208   */\n      dup3\n        /* \"#utility.yul\":3197:3200   */\n      dup2\n        /* \"#utility.yul\":3192:3195   */\n      dup4\n        /* \"#utility.yul\":3179:3209   */\n      calldatacopy\n        /* \"#utility.yul\":3264:3265   */\n      0x00\n        /* \"#utility.yul\":3255:3261   */\n      dup4\n        /* \"#utility.yul\":3250:3253   */\n      dup4\n        /* \"#utility.yul\":3246:3262   */\n      add\n        /* \"#utility.yul\":3239:3266   */\n      mstore\n        /* \"#utility.yul\":3118:3272   */\n      pop\n      pop\n      pop\n      jump\t// out\n        /* \"#utility.yul\":3278:3598   */\n    tag_20:\n        /* \"#utility.yul\":3322:3328   */\n      0x00\n        /* \"#utility.yul\":3359:3360   */\n      0x02\n        /* \"#utility.yul\":3353:3357   */\n      dup3\n        /* \"#utility.yul\":3349:3361   */\n      div\n        /* \"#utility.yul\":3339:3361   */\n      swap1\n      pop\n        /* \"#utility.yul\":3406:3407   */\n      0x01\n        /* \"#utility.yul\":3400:3404   */\n      dup3\n        /* \"#utility.yul\":3396:3408   */\n      and\n        /* \"#utility.yul\":3427:3445   */\n      dup1\n        /* \"#utility.yul\":3417:3498   */\n      tag_90\n      jumpi\n        /* \"#utility.yul\":3483:3487   */\n      0x7f\n        /* \"#utility.yul\":3475:3481   */\n      dup3\n        /* \"#utility.yul\":3471:3488   */\n      and\n        /* \"#utility.yul\":3461:3488   */\n      swap2\n      pop\n        /* \"#utility.yul\":3417:3498   */\n    tag_90:\n        /* \"#utility.yul\":3545:3547   */\n      0x20\n        /* \"#utility.yul\":3537:3543   */\n      dup3\n        /* \"#utility.yul\":3534:3548   */\n      lt\n        /* \"#utility.yul\":3514:3532   */\n      dup2\n        /* \"#utility.yul\":3511:3549   */\n      eq\n        /* \"#utility.yul\":3508:3592   */\n      iszero\n      tag_91\n      jumpi\n        /* \"#utility.yul\":3564:3582   */\n      tag_92\n      tag_93\n      jump\t// in\n    tag_92:\n        /* \"#utility.yul\":3508:3592   */\n    tag_91:\n        /* \"#utility.yul\":3329:3598   */\n      pop\n        /* \"#utility.yul\":3278:3598   */\n      swap2\n      swap1\n      pop\n      jump\t// out\n        /* \"#utility.yul\":3604:3885   */\n    tag_77:\n        /* \"#utility.yul\":3687:3714   */\n      tag_95\n        /* \"#utility.yul\":3709:3713   */\n      dup3\n        /* \"#utility.yul\":3687:3714   */\n      tag_84\n      jump\t// in\n    tag_95:\n        /* \"#utility.yul\":3679:3685   */\n      dup2\n        /* \"#utility.yul\":3675:3715   */\n      add\n        /* \"#utility.yul\":3817:3823   */\n      dup2\n        /* \"#utility.yul\":3805:3815   */\n      dup2\n        /* \"#utility.yul\":3802:3824   */\n      lt\n        /* \"#utility.yul\":3781:3799   */\n      0xffffffffffffffff\n        /* \"#utility.yul\":3769:3779   */\n      dup3\n        /* \"#utility.yul\":3766:3800   */\n      gt\n        /* \"#utility.yul\":3763:3825   */\n      or\n        /* \"#utility.yul\":3760:3848   */\n      iszero\n      tag_96\n      jumpi\n        /* \"#utility.yul\":3828:3846   */\n      tag_97\n      tag_82\n      jump\t// in\n    tag_97:\n        /* \"#utility.yul\":3760:3848   */\n    tag_96:\n        /* \"#utility.yul\":3868:3878   */\n      dup1\n        /* \"#utility.yul\":3864:3866   */\n      0x40\n        /* \"#utility.yul\":3857:3879   */\n      mstore\n        /* \"#utility.yul\":3647:3885   */\n      pop\n        /* \"#utility.yul\":3604:3885   */\n      pop\n      pop\n      jump\t// out\n        /* \"#utility.yul\":3891:4071   */\n    tag_13:\n        /* \"#utility.yul\":3939:4016   */\n      0x4e487b7100000000000000000000000000000000000000000000000000000000\n        /* \"#utility.yul\":3936:3937   */\n      0x00\n        /* \"#utility.yul\":3929:4017   */\n      mstore\n        /* \"#utility.yul\":4036:4040   */\n      0x21\n        /* \"#utility.yul\":4033:4034   */\n      0x04\n        /* \"#utility.yul\":4026:4041   */\n      mstore\n        /* \"#utility.yul\":4060:4064   */\n      0x24\n        /* \"#utility.yul\":4057:4058   */\n      0x00\n        /* \"#utility.yul\":4050:4065   */\n      revert\n        /* \"#utility.yul\":4077:4257   */\n    tag_93:\n        /* \"#utility.yul\":4125:4202   */\n      0x4e487b7100000000000000000000000000000000000000000000000000000000\n        /* \"#utility.yul\":4122:4123   */\n      0x00\n        /* \"#utility.yul\":4115:4203   */\n      mstore\n        /* \"#utility.yul\":4222:4226   */\n      0x22\n        /* \"#utility.yul\":4219:4220   */\n      0x04\n        /* \"#utility.yul\":4212:4227   */\n      mstore\n        /* \"#utility.yul\":4246:4250   */\n      0x24\n        /* \"#utility.yul\":4243:4244   */\n      0x00\n        /* \"#utility.yul\":4236:4251   */\n      revert\n        /* \"#utility.yul\":4263:4443   */\n    tag_82:\n        /* \"#utility.yul\":4311:4388   */\n      0x4e487b7100000000000000000000000000000000000000000000000000000000\n        /* \"#utility.yul\":4308:4309   */\n      0x00\n        /* \"#utility.yul\":4301:4389   */\n      mstore\n        /* \"#utility.yul\":4408:4412   */\n      0x41\n        /* \"#utility.yul\":4405:4406   */\n      0x04\n        /* \"#utility.yul\":4398:4413   */\n      mstore\n        /* \"#utility.yul\":4432:4436   */\n      0x24\n        /* \"#utility.yul\":4429:4430   */\n      0x00\n        /* \"#utility.yul\":4422:4437   */\n      revert\n        /* \"#utility.yul\":4449:4566   */\n    tag_50:\n        /* \"#utility.yul\":4558:4559   */\n      0x00\n        /* \"#utility.yul\":4555:4556   */\n      dup1\n        /* \"#utility.yul\":4548:4560   */\n      revert\n        /* \"#utility.yul\":4572:4689   */\n    tag_39:\n        /* \"#utility.yul\":4681:4682   */\n      0x00\n        /* \"#utility.yul\":4678:4679   */\n      dup1\n        /* \"#utility.yul\":4671:4683   */\n      revert\n        /* \"#utility.yul\":4695:4812   */\n    tag_62:\n        /* \"#utility.yul\":4804:4805   */\n      0x00\n        /* \"#utility.yul\":4801:4802   */\n      dup1\n        /* \"#utility.yul\":4794:4806   */\n      revert\n        /* \"#utility.yul\":4818:4935   */\n    tag_59:\n        /* \"#utility.yul\":4927:4928   */\n      0x00\n        /* \"#utility.yul\":4924:4925   */\n      dup1\n        /* \"#utility.yul\":4917:4929   */\n      revert\n        /* \"#utility.yul\":4941:5043   */\n    tag_84:\n        /* \"#utility.yul\":4982:4988   */\n      0x00\n        /* \"#utility.yul\":5033:5035   */\n      0x1f\n        /* \"#utility.yul\":5029:5036   */\n      not\n        /* \"#utility.yul\":5024:5026   */\n      0x1f\n        /* \"#utility.yul\":5017:5022   */\n      dup4\n        /* \"#utility.yul\":5013:5027   */\n      add\n        /* \"#utility.yul\":5009:5037   */\n      and\n        /* \"#utility.yul\":4999:5037   */\n      swap1\n      pop\n        /* \"#utility.yul\":4941:5043   */\n      swap2\n      swap1\n      pop\n      jump\t// out\n        /* \"#utility.yul\":5049:5161   */\n    tag_45:\n        /* \"#utility.yul\":5135:5136   */\n      0x07\n        /* \"#utility.yul\":5128:5133   */\n      dup2\n        /* \"#utility.yul\":5125:5137   */\n      lt\n        /* \"#utility.yul\":5115:5155   */\n      tag_107\n      jumpi\n        /* \"#utility.yul\":5151:5152   */\n      0x00\n        /* \"#utility.yul\":5148:5149   */\n      dup1\n        /* \"#utility.yul\":5141:5153   */\n      revert\n        /* \"#utility.yul\":5115:5155   */\n    tag_107:\n        /* \"#utility.yul\":5049:5161   */\n      pop\n      jump\t// out\n        /* \"#utility.yul\":5167:5289   */\n    tag_55:\n        /* \"#utility.yul\":5240:5264   */\n      tag_109\n        /* \"#utility.yul\":5258:5263   */\n      dup2\n        /* \"#utility.yul\":5240:5264   */\n      tag_86\n      jump\t// in\n    tag_109:\n        /* \"#utility.yul\":5233:5238   */\n      dup2\n        /* \"#utility.yul\":5230:5265   */\n      eq\n        /* \"#utility.yul\":5220:5283   */\n      tag_110\n      jumpi\n        /* \"#utility.yul\":5279:5280   */\n      0x00\n        /* \"#utility.yul\":5276:5277   */\n      dup1\n        /* \"#utility.yul\":5269:5281   */\n      revert\n        /* \"#utility.yul\":5220:5283   */\n    tag_110:\n        /* \"#utility.yul\":5167:5289   */\n      pop\n      jump\t// out\n\n    auxdata: 0xa26469706673582212209d6ef773d54757b012431cc43e09d5e09a56a461f610672c2fa0a7c809832fe964736f6c63430008070033\n}\n",
				"bytecode": {
					"linkReferences": {},
					"object": "608060405234801561001057600080fd5b506105a6806100206000396000f3fe608060405234801561001057600080fd5b506004361061002b5760003560e01c806303693f0014610030575b600080fd5b61004a6004803603810190610045919061030c565b610060565b604051610057919061039e565b60405180910390f35b60006040518060a0016040528086815260200185600681111561008657610085610497565b5b8152602001600115158152602001848152602001838152506000803373ffffffffffffffffffffffffffffffffffffffff1673ffffffffffffffffffffffffffffffffffffffff16815260200190815260200160002060008201518160000190805190602001906100f89291906101cf565b5060208201518160010160006101000a81548160ff0219169083600681111561012457610123610497565b5b021790555060408201518160010160016101000a81548160ff02191690831515021790555060608201518160020155608082015181600301559050506001339080600181540180825580915050600190039060005260206000200160009091909190916101000a81548173ffffffffffffffffffffffffffffffffffffffff021916908373ffffffffffffffffffffffffffffffffffffffff16021790555060019050949350505050565b8280546101db90610434565b90600052602060002090601f0160209004810192826101fd5760008555610244565b82601f1061021657805160ff1916838001178555610244565b82800160010185558215610244579182015b82811115610243578251825591602001919060010190610228565b5b5090506102519190610255565b5090565b5b8082111561026e576000816000905550600101610256565b5090565b6000610285610280846103de565b6103b9565b9050828152602081018484840111156102a1576102a0610529565b5b6102ac848285610425565b509392505050565b6000813590506102c381610549565b92915050565b600082601f8301126102de576102dd610524565b5b81356102ee848260208601610272565b91505092915050565b60008135905061030681610559565b92915050565b6000806000806080858703121561032657610325610533565b5b600085013567ffffffffffffffff8111156103445761034361052e565b5b610350878288016102c9565b9450506020610361878288016102b4565b9350506040610372878288016102f7565b9250506060610383878288016102f7565b91505092959194509250565b6103988161040f565b82525050565b60006020820190506103b3600083018461038f565b92915050565b60006103c36103d4565b90506103cf8282610466565b919050565b6000604051905090565b600067ffffffffffffffff8211156103f9576103f86104f5565b5b61040282610538565b9050602081019050919050565b60008115159050919050565b6000819050919050565b82818337600083830152505050565b6000600282049050600182168061044c57607f821691505b602082108114156104605761045f6104c6565b5b50919050565b61046f82610538565b810181811067ffffffffffffffff8211171561048e5761048d6104f5565b5b80604052505050565b7f4e487b7100000000000000000000000000000000000000000000000000000000600052602160045260246000fd5b7f4e487b7100000000000000000000000000000000000000000000000000000000600052602260045260246000fd5b7f4e487b7100000000000000000000000000000000000000000000000000000000600052604160045260246000fd5b600080fd5b600080fd5b600080fd5b600080fd5b6000601f19601f8301169050919050565b6007811061055657600080fd5b50565b6105628161041b565b811461056d57600080fd5b5056fea26469706673582212209d6ef773d54757b012431cc43e09d5e09a56a461f610672c2fa0a7c809832fe964736f6c63430008070033",
					"opcodes": "PUSH1 0x80 PUSH1 0x40 MSTORE CALLVALUE DUP1 ISZERO PUSH2 0x10 JUMPI PUSH1 0x0 DUP1 REVERT JUMPDEST POP PUSH2 0x5A6 DUP1 PUSH2 0x20 PUSH1 0x0 CODECOPY PUSH1 0x0 RETURN INVALID PUSH1 0x80 PUSH1 0x40 MSTORE CALLVALUE DUP1 ISZERO PUSH2 0x10 JUMPI PUSH1 0x0 DUP1 REVERT JUMPDEST POP PUSH1 0x4 CALLDATASIZE LT PUSH2 0x2B JUMPI PUSH1 0x0 CALLDATALOAD PUSH1 0xE0 SHR DUP1 PUSH4 0x3693F00 EQ PUSH2 0x30 JUMPI JUMPDEST PUSH1 0x0 DUP1 REVERT JUMPDEST PUSH2 0x4A PUSH1 0x4 DUP1 CALLDATASIZE SUB DUP2 ADD SWAP1 PUSH2 0x45 SWAP2 SWAP1 PUSH2 0x30C JUMP JUMPDEST PUSH2 0x60 JUMP JUMPDEST PUSH1 0x40 MLOAD PUSH2 0x57 SWAP2 SWAP1 PUSH2 0x39E JUMP JUMPDEST PUSH1 0x40 MLOAD DUP1 SWAP2 SUB SWAP1 RETURN JUMPDEST PUSH1 0x0 PUSH1 0x40 MLOAD DUP1 PUSH1 0xA0 ADD PUSH1 0x40 MSTORE DUP1 DUP7 DUP2 MSTORE PUSH1 0x20 ADD DUP6 PUSH1 0x6 DUP2 GT ISZERO PUSH2 0x86 JUMPI PUSH2 0x85 PUSH2 0x497 JUMP JUMPDEST JUMPDEST DUP2 MSTORE PUSH1 0x20 ADD PUSH1 0x1 ISZERO ISZERO DUP2 MSTORE PUSH1 0x20 ADD DUP5 DUP2 MSTORE PUSH1 0x20 ADD DUP4 DUP2 MSTORE POP PUSH1 0x0 DUP1 CALLER PUSH20 0xFFFFFFFFFFFFFFFFFFFFFFFFFFFFFFFFFFFFFFFF AND PUSH20 0xFFFFFFFFFFFFFFFFFFFFFFFFFFFFFFFFFFFFFFFF AND DUP2 MSTORE PUSH1 0x20 ADD SWAP1 DUP2 MSTORE PUSH1 0x20 ADD PUSH1 0x0 KECCAK256 PUSH1 0x0 DUP3 ADD MLOAD DUP2 PUSH1 0x0 ADD SWAP1 DUP1 MLOAD SWAP1 PUSH1 0x20 ADD SWAP1 PUSH2 0xF8 SWAP3 SWAP2 SWAP1 PUSH2 0x1CF JUMP JUMPDEST POP PUSH1 0x20 DUP3 ADD MLOAD DUP2 PUSH1 0x1 ADD PUSH1 0x0 PUSH2 0x100 EXP DUP2 SLOAD DUP2 PUSH1 0xFF MUL NOT AND SWAP1 DUP4 PUSH1 0x6 DUP2 GT ISZERO PUSH2 0x124 JUMPI PUSH2 0x123 PUSH2 0x497 JUMP JUMPDEST JUMPDEST MUL OR SWAP1 SSTORE POP PUSH1 0x40 DUP3 ADD MLOAD DUP2 PUSH1 0x1 ADD PUSH1 0x1 PUSH2 0x100 EXP DUP2 SLOAD DUP2 PUSH1 0xFF MUL NOT AND SWAP1 DUP4 ISZERO ISZERO MUL OR SWAP1 SSTORE POP PUSH1 0x60 DUP3 ADD MLOAD DUP2 PUSH1 0x2 ADD SSTORE PUSH1 0x80 DUP3 ADD MLOAD DUP2 PUSH1 0x3 ADD SSTORE SWAP1 POP POP PUSH1 0x1 CALLER SWAP1 DUP1 PUSH1 0x1 DUP2 SLOAD ADD DUP1 DUP3 SSTORE DUP1 SWAP2 POP POP PUSH1 0x1 SWAP1 SUB SWAP1 PUSH1 0x0 MSTORE PUSH1 0x20 PUSH1 0x0 KECCAK256 ADD PUSH1 0x0 SWAP1 SWAP2 SWAP1 SWAP2 SWAP1 SWAP2 PUSH2 0x100 EXP DUP2 SLOAD DUP2 PUSH20 0xFFFFFFFFFFFFFFFFFFFFFFFFFFFFFFFFFFFFFFFF MUL NOT AND SWAP1 DUP4 PUSH20 0xFFFFFFFFFFFFFFFFFFFFFFFFFFFFFFFFFFFFFFFF AND MUL OR SWAP1 SSTORE POP PUSH1 0x1 SWAP1 POP SWAP5 SWAP4 POP POP POP POP JUMP JUMPDEST DUP3 DUP1 SLOAD PUSH2 0x1DB SWAP1 PUSH2 0x434 JUMP JUMPDEST SWAP1 PUSH1 0x0 MSTORE PUSH1 0x20 PUSH1 0x0 KECCAK256 SWAP1 PUSH1 0x1F ADD PUSH1 0x20 SWAP1 DIV DUP2 ADD SWAP3 DUP3 PUSH2 0x1FD JUMPI PUSH1 0x0 DUP6 SSTORE PUSH2 0x244 JUMP JUMPDEST DUP3 PUSH1 0x1F LT PUSH2 0x216 JUMPI DUP1 MLOAD PUSH1 0xFF NOT AND DUP4 DUP1 ADD OR DUP6 SSTORE PUSH2 0x244 JUMP JUMPDEST DUP3 DUP1 ADD PUSH1 0x1 ADD DUP6 SSTORE DUP3 ISZERO PUSH2 0x244 JUMPI SWAP2 DUP3 ADD JUMPDEST DUP3 DUP2 GT ISZERO PUSH2 0x243 JUMPI DUP3 MLOAD DUP3 SSTORE SWAP2 PUSH1 0x20 ADD SWAP2 SWAP1 PUSH1 0x1 ADD SWAP1 PUSH2 0x228 JUMP JUMPDEST JUMPDEST POP SWAP1 POP PUSH2 0x251 SWAP2 SWAP1 PUSH2 0x255 JUMP JUMPDEST POP SWAP1 JUMP JUMPDEST JUMPDEST DUP1 DUP3 GT ISZERO PUSH2 0x26E JUMPI PUSH1 0x0 DUP2 PUSH1 0x0 SWAP1 SSTORE POP PUSH1 0x1 ADD PUSH2 0x256 JUMP JUMPDEST POP SWAP1 JUMP JUMPDEST PUSH1 0x0 PUSH2 0x285 PUSH2 0x280 DUP5 PUSH2 0x3DE JUMP JUMPDEST PUSH2 0x3B9 JUMP JUMPDEST SWAP1 POP DUP3 DUP2 MSTORE PUSH1 0x20 DUP2 ADD DUP5 DUP5 DUP5 ADD GT ISZERO PUSH2 0x2A1 JUMPI PUSH2 0x2A0 PUSH2 0x529 JUMP JUMPDEST JUMPDEST PUSH2 0x2AC DUP5 DUP3 DUP6 PUSH2 0x425 JUMP JUMPDEST POP SWAP4 SWAP3 POP POP POP JUMP JUMPDEST PUSH1 0x0 DUP2 CALLDATALOAD SWAP1 POP PUSH2 0x2C3 DUP2 PUSH2 0x549 JUMP JUMPDEST SWAP3 SWAP2 POP POP JUMP JUMPDEST PUSH1 0x0 DUP3 PUSH1 0x1F DUP4 ADD SLT PUSH2 0x2DE JUMPI PUSH2 0x2DD PUSH2 0x524 JUMP JUMPDEST JUMPDEST DUP2 CALLDATALOAD PUSH2 0x2EE DUP5 DUP3 PUSH1 0x20 DUP7 ADD PUSH2 0x272 JUMP JUMPDEST SWAP2 POP POP SWAP3 SWAP2 POP POP JUMP JUMPDEST PUSH1 0x0 DUP2 CALLDATALOAD SWAP1 POP PUSH2 0x306 DUP2 PUSH2 0x559 JUMP JUMPDEST SWAP3 SWAP2 POP POP JUMP JUMPDEST PUSH1 0x0 DUP1 PUSH1 0x0 DUP1 PUSH1 0x80 DUP6 DUP8 SUB SLT ISZERO PUSH2 0x326 JUMPI PUSH2 0x325 PUSH2 0x533 JUMP JUMPDEST JUMPDEST PUSH1 0x0 DUP6 ADD CALLDATALOAD PUSH8 0xFFFFFFFFFFFFFFFF DUP2 GT ISZERO PUSH2 0x344 JUMPI PUSH2 0x343 PUSH2 0x52E JUMP JUMPDEST JUMPDEST PUSH2 0x350 DUP8 DUP3 DUP9 ADD PUSH2 0x2C9 JUMP JUMPDEST SWAP5 POP POP PUSH1 0x20 PUSH2 0x361 DUP8 DUP3 DUP9 ADD PUSH2 0x2B4 JUMP JUMPDEST SWAP4 POP POP PUSH1 0x40 PUSH2 0x372 DUP8 DUP3 DUP9 ADD PUSH2 0x2F7 JUMP JUMPDEST SWAP3 POP POP PUSH1 0x60 PUSH2 0x383 DUP8 DUP3 DUP9 ADD PUSH2 0x2F7 JUMP JUMPDEST SWAP2 POP POP SWAP3 SWAP6 SWAP2 SWAP5 POP SWAP3 POP JUMP JUMPDEST PUSH2 0x398 DUP2 PUSH2 0x40F JUMP JUMPDEST DUP3 MSTORE POP POP JUMP JUMPDEST PUSH1 0x0 PUSH1 0x20 DUP3 ADD SWAP1 POP PUSH2 0x3B3 PUSH1 0x0 DUP4 ADD DUP5 PUSH2 0x38F JUMP JUMPDEST SWAP3 SWAP2 POP POP JUMP JUMPDEST PUSH1 0x0 PUSH2 0x3C3 PUSH2 0x3D4 JUMP JUMPDEST SWAP1 POP PUSH2 0x3CF DUP3 DUP3 PUSH2 0x466 JUMP JUMPDEST SWAP2 SWAP1 POP JUMP JUMPDEST PUSH1 0x0 PUSH1 0x40 MLOAD SWAP1 POP SWAP1 JUMP JUMPDEST PUSH1 0x0 PUSH8 0xFFFFFFFFFFFFFFFF DUP3 GT ISZERO PUSH2 0x3F9 JUMPI PUSH2 0x3F8 PUSH2 0x4F5 JUMP JUMPDEST JUMPDEST PUSH2 0x402 DUP3 PUSH2 0x538 JUMP JUMPDEST SWAP1 POP PUSH1 0x20 DUP2 ADD SWAP1 POP SWAP2 SWAP1 POP JUMP JUMPDEST PUSH1 0x0 DUP2 ISZERO ISZERO SWAP1 POP SWAP2 SWAP1 POP JUMP JUMPDEST PUSH1 0x0 DUP2 SWAP1 POP SWAP2 SWAP1 POP JUMP JUMPDEST DUP3 DUP2 DUP4 CALLDATACOPY PUSH1 0x0 DUP4 DUP4 ADD MSTORE POP POP POP JUMP JUMPDEST PUSH1 0x0 PUSH1 0x2 DUP3 DIV SWAP1 POP PUSH1 0x1 DUP3 AND DUP1 PUSH2 0x44C JUMPI PUSH1 0x7F DUP3 AND SWAP2 POP JUMPDEST PUSH1 0x20 DUP3 LT DUP2 EQ ISZERO PUSH2 0x460 JUMPI PUSH2 0x45F PUSH2 0x4C6 JUMP JUMPDEST JUMPDEST POP SWAP2 SWAP1 POP JUMP JUMPDEST PUSH2 0x46F DUP3 PUSH2 0x538 JUMP JUMPDEST DUP2 ADD DUP2 DUP2 LT PUSH8 0xFFFFFFFFFFFFFFFF DUP3 GT OR ISZERO PUSH2 0x48E JUMPI PUSH2 0x48D PUSH2 0x4F5 JUMP JUMPDEST JUMPDEST DUP1 PUSH1 0x40 MSTORE POP POP POP JUMP JUMPDEST PUSH32 0x4E487B7100000000000000000000000000000000000000000000000000000000 PUSH1 0x0 MSTORE PUSH1 0x21 PUSH1 0x4 MSTORE PUSH1 0x24 PUSH1 0x0 REVERT JUMPDEST PUSH32 0x4E487B7100000000000000000000000000000000000000000000000000000000 PUSH1 0x0 MSTORE PUSH1 0x22 PUSH1 0x4 MSTORE PUSH1 0x24 PUSH1 0x0 REVERT JUMPDEST PUSH32 0x4E487B7100000000000000000000000000000000000000000000000000000000 PUSH1 0x0 MSTORE PUSH1 0x41 PUSH1 0x4 MSTORE PUSH1 0x24 PUSH1 0x0 REVERT JUMPDEST PUSH1 0x0 DUP1 REVERT JUMPDEST PUSH1 0x0 DUP1 REVERT JUMPDEST PUSH1 0x0 DUP1 REVERT JUMPDEST PUSH1 0x0 DUP1 REVERT JUMPDEST PUSH1 0x0 PUSH1 0x1F NOT PUSH1 0x1F DUP4 ADD AND SWAP1 POP SWAP2 SWAP1 POP JUMP JUMPDEST PUSH1 0x7 DUP2 LT PUSH2 0x556 JUMPI PUSH1 0x0 DUP1 REVERT JUMPDEST POP JUMP JUMPDEST PUSH2 0x562 DUP2 PUSH2 0x41B JUMP JUMPDEST DUP2 EQ PUSH2 0x56D JUMPI PUSH1 0x0 DUP1 REVERT JUMPDEST POP JUMP INVALID LOG2 PUSH5 0x6970667358 0x22 SLT KECCAK256 SWAP14 PUSH15 0xF773D54757B012431CC43E09D5E09A JUMP LOG4 PUSH2 0xF610 PUSH8 0x2C2FA0A7C809832F 0xE9 PUSH5 0x736F6C6343 STOP ADDMOD SMOD STOP CALLER "
				},
				"gasEstimates": {
					"creation": {
						"codeDepositCost": "289200",
						"executionCost": "331",
						"totalCost": "289531"
					},
					"external": {
						"CreateUser(string,uint8,uint256,uint256)": "infinite"
					}
				},
				"methodIdentifiers": {
					"CreateUser(string,uint8,uint256,uint256)": "03693f00"
				}
			},
			"storageLayout": {
				"storage": [
					{
						"astId": 186,
						"contract": "contracts/Users.sol:Users",
						"label": "UserAddressMapping",
						"offset": 0,
						"slot": "0",
						"type": "t_mapping(t_address,t_struct(User)181_storage)"
					},
					{
						"astId": 189,
						"contract": "contracts/Users.sol:Users",
						"label": "UsersAddresses",
						"offset": 0,
						"slot": "1",
						"type": "t_array(t_address)dyn_storage"
					}
				],
				"types": {
					"t_address": {
						"encoding": "inplace",
						"label": "address",
						"numberOfBytes": "20"
					},
					"t_array(t_address)dyn_storage": {
						"base": "t_address",
						"encoding": "dynamic_array",
						"label": "address[]",
						"numberOfBytes": "32"
					},
					"t_bool": {
						"encoding": "inplace",
						"label": "bool",
						"numberOfBytes": "1"
					},
					"t_enum(UserRoles)169": {
						"encoding": "inplace",
						"label": "enum Users.UserRoles",
						"numberOfBytes": "1"
					},
					"t_mapping(t_address,t_struct(User)181_storage)": {
						"encoding": "mapping",
						"key": "t_address",
						"label": "mapping(address => struct Users.User)",
						"numberOfBytes": "32",
						"value": "t_struct(User)181_storage"
					},
					"t_string_storage": {
						"encoding": "bytes",
						"label": "string",
						"numberOfBytes": "32"
					},
					"t_struct(User)181_storage": {
						"encoding": "inplace",
						"label": "struct Users.User",
						"members": [
							{
								"astId": 171,
								"contract": "contracts/Users.sol:Users",
								"label": "UserName",
								"offset": 0,
								"slot": "0",
								"type": "t_string_storage"
							},
							{
								"astId": 174,
								"contract": "contracts/Users.sol:Users",
								"label": "UserRole",
								"offset": 0,
								"slot": "1",
								"type": "t_enum(UserRoles)169"
							},
							{
								"astId": 176,
								"contract": "contracts/Users.sol:Users",
								"label": "IsActive",
								"offset": 1,
								"slot": "1",
								"type": "t_bool"
							},
							{
								"astId": 178,
								"contract": "contracts/Users.sol:Users",
								"label": "Latitude",
								"offset": 0,
								"slot": "2",
								"type": "t_uint256"
							},
							{
								"astId": 180,
								"contract": "contracts/Users.sol:Users",
								"label": "Longitude",
								"offset": 0,
								"slot": "3",
								"type": "t_uint256"
							}
						],
						"numberOfBytes": "128"
					},
					"t_uint256": {
						"encoding": "inplace",
						"label": "uint256",
						"numberOfBytes": "32"
					}
				}
			},
			"userdoc": {
				"kind": "user",
				"methods": {},
				"version": 1
			}
		}
	}
}