{
	"contracts/Test2.sol": {
		"Tickets": {
			"abi": [
				{
					"inputs": [
						{
							"internalType": "uint256",
							"name": "id",
							"type": "uint256"
						},
						{
							"internalType": "int256",
							"name": "val",
							"type": "int256"
						}
					],
					"name": "addTicket",
					"outputs": [
						{
							"internalType": "bool",
							"name": "success",
							"type": "bool"
						}
					],
					"stateMutability": "nonpayable",
					"type": "function"
				},
				{
					"inputs": [
						{
							"internalType": "int256",
							"name": "val",
							"type": "int256"
						}
					],
					"name": "findTickets",
					"outputs": [
						{
							"components": [
								{
									"internalType": "uint256",
									"name": "id",
									"type": "uint256"
								},
								{
									"internalType": "int256",
									"name": "val",
									"type": "int256"
								}
							],
							"internalType": "struct Tickets.Ticket[]",
							"name": "filteredTickets",
							"type": "tuple[]"
						}
					],
					"stateMutability": "view",
					"type": "function"
				},
				{
					"inputs": [
						{
							"internalType": "uint256",
							"name": "id",
							"type": "uint256"
						}
					],
					"name": "getTicket",
					"outputs": [
						{
							"components": [
								{
									"internalType": "uint256",
									"name": "id",
									"type": "uint256"
								},
								{
									"internalType": "int256",
									"name": "val",
									"type": "int256"
								}
							],
							"internalType": "struct Tickets.Ticket",
							"name": "",
							"type": "tuple"
						}
					],
					"stateMutability": "view",
					"type": "function"
				}
			],
			"devdoc": {
				"kind": "dev",
				"methods": {},
				"version": 1
			},
			"evm": {
				"assembly": "    /* \"contracts/Test2.sol\":99:1101  contract Tickets {\r... */\n  mstore(0x40, 0x80)\n  callvalue\n  dup1\n  iszero\n  tag_1\n  jumpi\n  0x00\n  dup1\n  revert\ntag_1:\n  pop\n  dataSize(sub_0)\n  dup1\n  dataOffset(sub_0)\n  0x00\n  codecopy\n  0x00\n  return\nstop\n\nsub_0: assembly {\n        /* \"contracts/Test2.sol\":99:1101  contract Tickets {\r... */\n      mstore(0x40, 0x80)\n      callvalue\n      dup1\n      iszero\n      tag_1\n      jumpi\n      0x00\n      dup1\n      revert\n    tag_1:\n      pop\n      jumpi(tag_2, lt(calldatasize, 0x04))\n      shr(0xe0, calldataload(0x00))\n      dup1\n      0x7dc379fa\n      eq\n      tag_3\n      jumpi\n      dup1\n      0x8de8cf80\n      eq\n      tag_4\n      jumpi\n      dup1\n      0xbd0165f7\n      eq\n      tag_5\n      jumpi\n    tag_2:\n      0x00\n      dup1\n      revert\n        /* \"contracts/Test2.sol\":443:632  function getTicket(uint id) public view returns(Ticket memory) {\r... */\n    tag_3:\n      tag_6\n      0x04\n      dup1\n      calldatasize\n      sub\n      dup2\n      add\n      swap1\n      tag_7\n      swap2\n      swap1\n      tag_8\n      jump\t// in\n    tag_7:\n      tag_9\n      jump\t// in\n    tag_6:\n      mload(0x40)\n      tag_10\n      swap2\n      swap1\n      tag_11\n      jump\t// in\n    tag_10:\n      mload(0x40)\n      dup1\n      swap2\n      sub\n      swap1\n      return\n        /* \"contracts/Test2.sol\":238:437  function addTicket(uint id, int val) public returns(bool success) {\r... */\n    tag_4:\n      tag_12\n      0x04\n      dup1\n      calldatasize\n      sub\n      dup2\n      add\n      swap1\n      tag_13\n      swap2\n      swap1\n      tag_14\n      jump\t// in\n    tag_13:\n      tag_15\n      jump\t// in\n    tag_12:\n      mload(0x40)\n      tag_16\n      swap2\n      swap1\n      tag_17\n      jump\t// in\n    tag_16:\n      mload(0x40)\n      dup1\n      swap2\n      sub\n      swap1\n      return\n        /* \"contracts/Test2.sol\":638:1098  function findTickets(int val) public view returns(Ticket[] memory filteredTickets) {\r... */\n    tag_5:\n      tag_18\n      0x04\n      dup1\n      calldatasize\n      sub\n      dup2\n      add\n      swap1\n      tag_19\n      swap2\n      swap1\n      tag_20\n      jump\t// in\n    tag_19:\n      tag_21\n      jump\t// in\n    tag_18:\n      mload(0x40)\n      tag_22\n      swap2\n      swap1\n      tag_23\n      jump\t// in\n    tag_22:\n      mload(0x40)\n      dup1\n      swap2\n      sub\n      swap1\n      return\n        /* \"contracts/Test2.sol\":443:632  function getTicket(uint id) public view returns(Ticket memory) {\r... */\n    tag_9:\n        /* \"contracts/Test2.sol\":491:504  Ticket memory */\n      tag_24\n      tag_25\n      jump\t// in\n    tag_24:\n        /* \"contracts/Test2.sol\":517:523  uint i */\n      0x00\n        /* \"contracts/Test2.sol\":513:627  for(uint i = 0; i<ticketCount; i++){\r... */\n    tag_27:\n        /* \"contracts/Test2.sol\":531:542  ticketCount */\n      sload(0x01)\n        /* \"contracts/Test2.sol\":529:530  i */\n      dup2\n        /* \"contracts/Test2.sol\":529:542  i<ticketCount */\n      lt\n        /* \"contracts/Test2.sol\":513:627  for(uint i = 0; i<ticketCount; i++){\r... */\n      iszero\n      tag_28\n      jumpi\n        /* \"contracts/Test2.sol\":578:580  id */\n      dup3\n        /* \"contracts/Test2.sol\":561:568  tickets */\n      0x00\n        /* \"contracts/Test2.sol\":561:571  tickets[i] */\n      dup1\n        /* \"contracts/Test2.sol\":569:570  i */\n      dup4\n        /* \"contracts/Test2.sol\":561:571  tickets[i] */\n      dup2\n      mstore\n      0x20\n      add\n      swap1\n      dup2\n      mstore\n      0x20\n      add\n      0x00\n      keccak256\n        /* \"contracts/Test2.sol\":561:574  tickets[i].id */\n      0x00\n      add\n      sload\n        /* \"contracts/Test2.sol\":561:580  tickets[i].id == id */\n      eq\n        /* \"contracts/Test2.sol\":557:620  if (tickets[i].id == id) {\r... */\n      iszero\n      tag_30\n      jumpi\n        /* \"contracts/Test2.sol\":600:607  tickets */\n      0x00\n        /* \"contracts/Test2.sol\":600:610  tickets[i] */\n      dup1\n        /* \"contracts/Test2.sol\":608:609  i */\n      dup3\n        /* \"contracts/Test2.sol\":600:610  tickets[i] */\n      dup2\n      mstore\n      0x20\n      add\n      swap1\n      dup2\n      mstore\n      0x20\n      add\n      0x00\n      keccak256\n        /* \"contracts/Test2.sol\":593:610  return tickets[i] */\n      mload(0x40)\n      dup1\n      0x40\n      add\n      0x40\n      mstore\n      swap1\n      dup2\n      0x00\n      dup3\n      add\n      sload\n      dup2\n      mstore\n      0x20\n      add\n      0x01\n      dup3\n      add\n      sload\n      dup2\n      mstore\n      pop\n      pop\n      swap2\n      pop\n      pop\n      jump(tag_26)\n        /* \"contracts/Test2.sol\":557:620  if (tickets[i].id == id) {\r... */\n    tag_30:\n        /* \"contracts/Test2.sol\":544:547  i++ */\n      dup1\n      dup1\n      tag_31\n      swap1\n      tag_32\n      jump\t// in\n    tag_31:\n      swap2\n      pop\n      pop\n        /* \"contracts/Test2.sol\":513:627  for(uint i = 0; i<ticketCount; i++){\r... */\n      jump(tag_27)\n    tag_28:\n      pop\n        /* \"contracts/Test2.sol\":443:632  function getTicket(uint id) public view returns(Ticket memory) {\r... */\n    tag_26:\n      swap2\n      swap1\n      pop\n      jump\t// out\n        /* \"contracts/Test2.sol\":238:437  function addTicket(uint id, int val) public returns(bool success) {\r... */\n    tag_15:\n        /* \"contracts/Test2.sol\":290:302  bool success */\n      0x00\n        /* \"contracts/Test2.sol\":334:385  Ticket({\r... */\n      mload(0x40)\n      dup1\n      0x40\n      add\n      0x40\n      mstore\n      dup1\n        /* \"contracts/Test2.sol\":356:358  id */\n      dup5\n        /* \"contracts/Test2.sol\":334:385  Ticket({\r... */\n      dup2\n      mstore\n      0x20\n      add\n        /* \"contracts/Test2.sol\":374:377  val */\n      dup4\n        /* \"contracts/Test2.sol\":334:385  Ticket({\r... */\n      dup2\n      mstore\n      pop\n        /* \"contracts/Test2.sol\":311:318  tickets */\n      0x00\n        /* \"contracts/Test2.sol\":311:331  tickets[ticketCount] */\n      dup1\n        /* \"contracts/Test2.sol\":319:330  ticketCount */\n      sload(0x01)\n        /* \"contracts/Test2.sol\":311:331  tickets[ticketCount] */\n      dup2\n      mstore\n      0x20\n      add\n      swap1\n      dup2\n      mstore\n      0x20\n      add\n      0x00\n      keccak256\n        /* \"contracts/Test2.sol\":311:385  tickets[ticketCount] = Ticket({\r... */\n      0x00\n      dup3\n      add\n      mload\n      dup2\n      0x00\n      add\n      sstore\n      0x20\n      dup3\n      add\n      mload\n      dup2\n      0x01\n      add\n      sstore\n      swap1\n      pop\n      pop\n        /* \"contracts/Test2.sol\":407:408  1 */\n      0x01\n        /* \"contracts/Test2.sol\":392:403  ticketCount */\n      dup1\n      0x00\n        /* \"contracts/Test2.sol\":392:408  ticketCount += 1 */\n      dup3\n      dup3\n      sload\n      tag_34\n      swap2\n      swap1\n      tag_35\n      jump\t// in\n    tag_34:\n      swap3\n      pop\n      pop\n      dup2\n      swap1\n      sstore\n      pop\n        /* \"contracts/Test2.sol\":427:431  true */\n      0x01\n        /* \"contracts/Test2.sol\":417:431  success = true */\n      swap1\n      pop\n        /* \"contracts/Test2.sol\":238:437  function addTicket(uint id, int val) public returns(bool success) {\r... */\n      swap3\n      swap2\n      pop\n      pop\n      jump\t// out\n        /* \"contracts/Test2.sol\":638:1098  function findTickets(int val) public view returns(Ticket[] memory filteredTickets) {\r... */\n    tag_21:\n        /* \"contracts/Test2.sol\":688:719  Ticket[] memory filteredTickets */\n      0x60\n        /* \"contracts/Test2.sol\":728:755  Ticket[] memory ticketsTemp */\n      0x00\n        /* \"contracts/Test2.sol\":771:782  ticketCount */\n      sload(0x01)\n        /* \"contracts/Test2.sol\":758:783  new Ticket[](ticketCount) */\n      0xffffffffffffffff\n      dup2\n      gt\n      iszero\n      tag_37\n      jumpi\n      tag_38\n      tag_39\n      jump\t// in\n    tag_38:\n    tag_37:\n      mload(0x40)\n      swap1\n      dup1\n      dup3\n      mstore\n      dup1\n      0x20\n      mul\n      0x20\n      add\n      dup3\n      add\n      0x40\n      mstore\n      dup1\n      iszero\n      tag_40\n      jumpi\n      dup2\n      0x20\n      add\n    tag_41:\n      tag_42\n      tag_25\n      jump\t// in\n    tag_42:\n      dup2\n      mstore\n      0x20\n      add\n      swap1\n      0x01\n      swap1\n      sub\n      swap1\n      dup2\n      tag_41\n      jumpi\n      swap1\n      pop\n    tag_40:\n      pop\n        /* \"contracts/Test2.sol\":728:783  Ticket[] memory ticketsTemp = new Ticket[](ticketCount) */\n      swap1\n      pop\n        /* \"contracts/Test2.sol\":790:800  uint count */\n      0x00\n        /* \"contracts/Test2.sol\":811:817  uint i */\n      dup1\n        /* \"contracts/Test2.sol\":820:821  0 */\n      0x00\n        /* \"contracts/Test2.sol\":811:821  uint i = 0 */\n      swap1\n      pop\n        /* \"contracts/Test2.sol\":807:958  for(uint i = 0; i<ticketCount; i++){\r... */\n    tag_43:\n        /* \"contracts/Test2.sol\":825:836  ticketCount */\n      sload(0x01)\n        /* \"contracts/Test2.sol\":823:824  i */\n      dup2\n        /* \"contracts/Test2.sol\":823:836  i<ticketCount */\n      lt\n        /* \"contracts/Test2.sol\":807:958  for(uint i = 0; i<ticketCount; i++){\r... */\n      iszero\n      tag_44\n      jumpi\n        /* \"contracts/Test2.sol\":873:876  val */\n      dup5\n        /* \"contracts/Test2.sol\":855:862  tickets */\n      0x00\n        /* \"contracts/Test2.sol\":855:865  tickets[i] */\n      dup1\n        /* \"contracts/Test2.sol\":863:864  i */\n      dup4\n        /* \"contracts/Test2.sol\":855:865  tickets[i] */\n      dup2\n      mstore\n      0x20\n      add\n      swap1\n      dup2\n      mstore\n      0x20\n      add\n      0x00\n      keccak256\n        /* \"contracts/Test2.sol\":855:869  tickets[i].val */\n      0x01\n      add\n      sload\n        /* \"contracts/Test2.sol\":855:876  tickets[i].val == val */\n      eq\n        /* \"contracts/Test2.sol\":851:951  if (tickets[i].val == val) {\r... */\n      iszero\n      tag_46\n      jumpi\n        /* \"contracts/Test2.sol\":910:917  tickets */\n      0x00\n        /* \"contracts/Test2.sol\":910:920  tickets[i] */\n      dup1\n        /* \"contracts/Test2.sol\":918:919  i */\n      dup3\n        /* \"contracts/Test2.sol\":910:920  tickets[i] */\n      dup2\n      mstore\n      0x20\n      add\n      swap1\n      dup2\n      mstore\n      0x20\n      add\n      0x00\n      keccak256\n        /* \"contracts/Test2.sol\":889:920  ticketsTemp[count] = tickets[i] */\n      mload(0x40)\n      dup1\n      0x40\n      add\n      0x40\n      mstore\n      swap1\n      dup2\n      0x00\n      dup3\n      add\n      sload\n      dup2\n      mstore\n      0x20\n      add\n      0x01\n      dup3\n      add\n      sload\n      dup2\n      mstore\n      pop\n      pop\n        /* \"contracts/Test2.sol\":889:900  ticketsTemp */\n      dup4\n        /* \"contracts/Test2.sol\":901:906  count */\n      dup4\n        /* \"contracts/Test2.sol\":889:907  ticketsTemp[count] */\n      dup2\n      mload\n      dup2\n      lt\n      tag_47\n      jumpi\n      tag_48\n      tag_49\n      jump\t// in\n    tag_48:\n    tag_47:\n      0x20\n      mul\n      0x20\n      add\n      add\n        /* \"contracts/Test2.sol\":889:920  ticketsTemp[count] = tickets[i] */\n      dup2\n      swap1\n      mstore\n      pop\n        /* \"contracts/Test2.sol\":940:941  1 */\n      0x01\n        /* \"contracts/Test2.sol\":931:941  count += 1 */\n      dup3\n      tag_50\n      swap2\n      swap1\n      tag_35\n      jump\t// in\n    tag_50:\n      swap2\n      pop\n        /* \"contracts/Test2.sol\":851:951  if (tickets[i].val == val) {\r... */\n    tag_46:\n        /* \"contracts/Test2.sol\":838:841  i++ */\n      dup1\n      dup1\n      tag_51\n      swap1\n      tag_32\n      jump\t// in\n    tag_51:\n      swap2\n      pop\n      pop\n        /* \"contracts/Test2.sol\":807:958  for(uint i = 0; i<ticketCount; i++){\r... */\n      jump(tag_43)\n    tag_44:\n      pop\n        /* \"contracts/Test2.sol\":997:1002  count */\n      dup1\n        /* \"contracts/Test2.sol\":984:1003  new Ticket[](count) */\n      0xffffffffffffffff\n      dup2\n      gt\n      iszero\n      tag_52\n      jumpi\n      tag_53\n      tag_39\n      jump\t// in\n    tag_53:\n    tag_52:\n      mload(0x40)\n      swap1\n      dup1\n      dup3\n      mstore\n      dup1\n      0x20\n      mul\n      0x20\n      add\n      dup3\n      add\n      0x40\n      mstore\n      dup1\n      iszero\n      tag_54\n      jumpi\n      dup2\n      0x20\n      add\n    tag_55:\n      tag_56\n      tag_25\n      jump\t// in\n    tag_56:\n      dup2\n      mstore\n      0x20\n      add\n      swap1\n      0x01\n      swap1\n      sub\n      swap1\n      dup2\n      tag_55\n      jumpi\n      swap1\n      pop\n    tag_54:\n      pop\n        /* \"contracts/Test2.sol\":966:1003  filteredTickets = new Ticket[](count) */\n      swap3\n      pop\n        /* \"contracts/Test2.sol\":1014:1020  uint i */\n      0x00\n        /* \"contracts/Test2.sol\":1010:1091  for(uint i = 0; i<count; i++){\r... */\n    tag_57:\n        /* \"contracts/Test2.sol\":1028:1033  count */\n      dup2\n        /* \"contracts/Test2.sol\":1026:1027  i */\n      dup2\n        /* \"contracts/Test2.sol\":1026:1033  i<count */\n      lt\n        /* \"contracts/Test2.sol\":1010:1091  for(uint i = 0; i<count; i++){\r... */\n      iszero\n      tag_58\n      jumpi\n        /* \"contracts/Test2.sol\":1069:1080  ticketsTemp */\n      dup3\n        /* \"contracts/Test2.sol\":1081:1082  i */\n      dup2\n        /* \"contracts/Test2.sol\":1069:1083  ticketsTemp[i] */\n      dup2\n      mload\n      dup2\n      lt\n      tag_60\n      jumpi\n      tag_61\n      tag_49\n      jump\t// in\n    tag_61:\n    tag_60:\n      0x20\n      mul\n      0x20\n      add\n      add\n      mload\n        /* \"contracts/Test2.sol\":1048:1063  filteredTickets */\n      dup5\n        /* \"contracts/Test2.sol\":1064:1065  i */\n      dup3\n        /* \"contracts/Test2.sol\":1048:1066  filteredTickets[i] */\n      dup2\n      mload\n      dup2\n      lt\n      tag_62\n      jumpi\n      tag_63\n      tag_49\n      jump\t// in\n    tag_63:\n    tag_62:\n      0x20\n      mul\n      0x20\n      add\n      add\n        /* \"contracts/Test2.sol\":1048:1083  filteredTickets[i] = ticketsTemp[i] */\n      dup2\n      swap1\n      mstore\n      pop\n        /* \"contracts/Test2.sol\":1035:1038  i++ */\n      dup1\n      dup1\n      tag_64\n      swap1\n      tag_32\n      jump\t// in\n    tag_64:\n      swap2\n      pop\n      pop\n        /* \"contracts/Test2.sol\":1010:1091  for(uint i = 0; i<count; i++){\r... */\n      jump(tag_57)\n    tag_58:\n      pop\n        /* \"contracts/Test2.sol\":721:1098  {\r... */\n      pop\n      pop\n        /* \"contracts/Test2.sol\":638:1098  function findTickets(int val) public view returns(Ticket[] memory filteredTickets) {\r... */\n      swap2\n      swap1\n      pop\n      jump\t// out\n    tag_25:\n      mload(0x40)\n      dup1\n      0x40\n      add\n      0x40\n      mstore\n      dup1\n      0x00\n      dup2\n      mstore\n      0x20\n      add\n      0x00\n      dup2\n      mstore\n      pop\n      swap1\n      jump\t// out\n        /* \"#utility.yul\":7:144   */\n    tag_66:\n        /* \"#utility.yul\":52:57   */\n      0x00\n        /* \"#utility.yul\":90:96   */\n      dup2\n        /* \"#utility.yul\":77:97   */\n      calldataload\n        /* \"#utility.yul\":68:97   */\n      swap1\n      pop\n        /* \"#utility.yul\":106:138   */\n      tag_68\n        /* \"#utility.yul\":132:137   */\n      dup2\n        /* \"#utility.yul\":106:138   */\n      tag_69\n      jump\t// in\n    tag_68:\n        /* \"#utility.yul\":7:144   */\n      swap3\n      swap2\n      pop\n      pop\n      jump\t// out\n        /* \"#utility.yul\":150:289   */\n    tag_70:\n        /* \"#utility.yul\":196:201   */\n      0x00\n        /* \"#utility.yul\":234:240   */\n      dup2\n        /* \"#utility.yul\":221:241   */\n      calldataload\n        /* \"#utility.yul\":212:241   */\n      swap1\n      pop\n        /* \"#utility.yul\":250:283   */\n      tag_72\n        /* \"#utility.yul\":277:282   */\n      dup2\n        /* \"#utility.yul\":250:283   */\n      tag_73\n      jump\t// in\n    tag_72:\n        /* \"#utility.yul\":150:289   */\n      swap3\n      swap2\n      pop\n      pop\n      jump\t// out\n        /* \"#utility.yul\":295:622   */\n    tag_20:\n        /* \"#utility.yul\":353:359   */\n      0x00\n        /* \"#utility.yul\":402:404   */\n      0x20\n        /* \"#utility.yul\":390:399   */\n      dup3\n        /* \"#utility.yul\":381:388   */\n      dup5\n        /* \"#utility.yul\":377:400   */\n      sub\n        /* \"#utility.yul\":373:405   */\n      slt\n        /* \"#utility.yul\":370:489   */\n      iszero\n      tag_75\n      jumpi\n        /* \"#utility.yul\":408:487   */\n      tag_76\n      tag_77\n      jump\t// in\n    tag_76:\n        /* \"#utility.yul\":370:489   */\n    tag_75:\n        /* \"#utility.yul\":528:529   */\n      0x00\n        /* \"#utility.yul\":553:605   */\n      tag_78\n        /* \"#utility.yul\":597:604   */\n      dup5\n        /* \"#utility.yul\":588:594   */\n      dup3\n        /* \"#utility.yul\":577:586   */\n      dup6\n        /* \"#utility.yul\":573:595   */\n      add\n        /* \"#utility.yul\":553:605   */\n      tag_66\n      jump\t// in\n    tag_78:\n        /* \"#utility.yul\":543:605   */\n      swap2\n      pop\n        /* \"#utility.yul\":499:615   */\n      pop\n        /* \"#utility.yul\":295:622   */\n      swap3\n      swap2\n      pop\n      pop\n      jump\t// out\n        /* \"#utility.yul\":628:957   */\n    tag_8:\n        /* \"#utility.yul\":687:693   */\n      0x00\n        /* \"#utility.yul\":736:738   */\n      0x20\n        /* \"#utility.yul\":724:733   */\n      dup3\n        /* \"#utility.yul\":715:722   */\n      dup5\n        /* \"#utility.yul\":711:734   */\n      sub\n        /* \"#utility.yul\":707:739   */\n      slt\n        /* \"#utility.yul\":704:823   */\n      iszero\n      tag_80\n      jumpi\n        /* \"#utility.yul\":742:821   */\n      tag_81\n      tag_77\n      jump\t// in\n    tag_81:\n        /* \"#utility.yul\":704:823   */\n    tag_80:\n        /* \"#utility.yul\":862:863   */\n      0x00\n        /* \"#utility.yul\":887:940   */\n      tag_82\n        /* \"#utility.yul\":932:939   */\n      dup5\n        /* \"#utility.yul\":923:929   */\n      dup3\n        /* \"#utility.yul\":912:921   */\n      dup6\n        /* \"#utility.yul\":908:930   */\n      add\n        /* \"#utility.yul\":887:940   */\n      tag_70\n      jump\t// in\n    tag_82:\n        /* \"#utility.yul\":877:940   */\n      swap2\n      pop\n        /* \"#utility.yul\":833:950   */\n      pop\n        /* \"#utility.yul\":628:957   */\n      swap3\n      swap2\n      pop\n      pop\n      jump\t// out\n        /* \"#utility.yul\":963:1435   */\n    tag_14:\n        /* \"#utility.yul\":1030:1036   */\n      0x00\n        /* \"#utility.yul\":1038:1044   */\n      dup1\n        /* \"#utility.yul\":1087:1089   */\n      0x40\n        /* \"#utility.yul\":1075:1084   */\n      dup4\n        /* \"#utility.yul\":1066:1073   */\n      dup6\n        /* \"#utility.yul\":1062:1085   */\n      sub\n        /* \"#utility.yul\":1058:1090   */\n      slt\n        /* \"#utility.yul\":1055:1174   */\n      iszero\n      tag_84\n      jumpi\n        /* \"#utility.yul\":1093:1172   */\n      tag_85\n      tag_77\n      jump\t// in\n    tag_85:\n        /* \"#utility.yul\":1055:1174   */\n    tag_84:\n        /* \"#utility.yul\":1213:1214   */\n      0x00\n        /* \"#utility.yul\":1238:1291   */\n      tag_86\n        /* \"#utility.yul\":1283:1290   */\n      dup6\n        /* \"#utility.yul\":1274:1280   */\n      dup3\n        /* \"#utility.yul\":1263:1272   */\n      dup7\n        /* \"#utility.yul\":1259:1281   */\n      add\n        /* \"#utility.yul\":1238:1291   */\n      tag_70\n      jump\t// in\n    tag_86:\n        /* \"#utility.yul\":1228:1291   */\n      swap3\n      pop\n        /* \"#utility.yul\":1184:1301   */\n      pop\n        /* \"#utility.yul\":1340:1342   */\n      0x20\n        /* \"#utility.yul\":1366:1418   */\n      tag_87\n        /* \"#utility.yul\":1410:1417   */\n      dup6\n        /* \"#utility.yul\":1401:1407   */\n      dup3\n        /* \"#utility.yul\":1390:1399   */\n      dup7\n        /* \"#utility.yul\":1386:1408   */\n      add\n        /* \"#utility.yul\":1366:1418   */\n      tag_66\n      jump\t// in\n    tag_87:\n        /* \"#utility.yul\":1356:1418   */\n      swap2\n      pop\n        /* \"#utility.yul\":1311:1428   */\n      pop\n        /* \"#utility.yul\":963:1435   */\n      swap3\n      pop\n      swap3\n      swap1\n      pop\n      jump\t// out\n        /* \"#utility.yul\":1441:1704   */\n    tag_88:\n        /* \"#utility.yul\":1552:1562   */\n      0x00\n        /* \"#utility.yul\":1573:1661   */\n      tag_90\n        /* \"#utility.yul\":1657:1660   */\n      dup4\n        /* \"#utility.yul\":1649:1655   */\n      dup4\n        /* \"#utility.yul\":1573:1661   */\n      tag_91\n      jump\t// in\n    tag_90:\n        /* \"#utility.yul\":1693:1697   */\n      0x40\n        /* \"#utility.yul\":1688:1691   */\n      dup4\n        /* \"#utility.yul\":1684:1698   */\n      add\n        /* \"#utility.yul\":1670:1698   */\n      swap1\n      pop\n        /* \"#utility.yul\":1441:1704   */\n      swap3\n      swap2\n      pop\n      pop\n      jump\t// out\n        /* \"#utility.yul\":1768:2668   */\n    tag_92:\n        /* \"#utility.yul\":1929:1932   */\n      0x00\n        /* \"#utility.yul\":1958:2033   */\n      tag_94\n        /* \"#utility.yul\":2027:2032   */\n      dup3\n        /* \"#utility.yul\":1958:2033   */\n      tag_95\n      jump\t// in\n    tag_94:\n        /* \"#utility.yul\":2049:2156   */\n      tag_96\n        /* \"#utility.yul\":2149:2155   */\n      dup2\n        /* \"#utility.yul\":2144:2147   */\n      dup6\n        /* \"#utility.yul\":2049:2156   */\n      tag_97\n      jump\t// in\n    tag_96:\n        /* \"#utility.yul\":2042:2156   */\n      swap4\n      pop\n        /* \"#utility.yul\":2180:2257   */\n      tag_98\n        /* \"#utility.yul\":2251:2256   */\n      dup4\n        /* \"#utility.yul\":2180:2257   */\n      tag_99\n      jump\t// in\n    tag_98:\n        /* \"#utility.yul\":2280:2287   */\n      dup1\n        /* \"#utility.yul\":2311:2312   */\n      0x00\n        /* \"#utility.yul\":2296:2643   */\n    tag_100:\n        /* \"#utility.yul\":2321:2327   */\n      dup4\n        /* \"#utility.yul\":2318:2319   */\n      dup2\n        /* \"#utility.yul\":2315:2328   */\n      lt\n        /* \"#utility.yul\":2296:2643   */\n      iszero\n      tag_102\n      jumpi\n        /* \"#utility.yul\":2397:2403   */\n      dup2\n        /* \"#utility.yul\":2391:2404   */\n      mload\n        /* \"#utility.yul\":2424:2529   */\n      tag_103\n        /* \"#utility.yul\":2525:2528   */\n      dup9\n        /* \"#utility.yul\":2510:2523   */\n      dup3\n        /* \"#utility.yul\":2424:2529   */\n      tag_88\n      jump\t// in\n    tag_103:\n        /* \"#utility.yul\":2417:2529   */\n      swap8\n      pop\n        /* \"#utility.yul\":2552:2633   */\n      tag_104\n        /* \"#utility.yul\":2626:2632   */\n      dup4\n        /* \"#utility.yul\":2552:2633   */\n      tag_105\n      jump\t// in\n    tag_104:\n        /* \"#utility.yul\":2542:2633   */\n      swap3\n      pop\n        /* \"#utility.yul\":2356:2643   */\n      pop\n        /* \"#utility.yul\":2343:2344   */\n      0x01\n        /* \"#utility.yul\":2340:2341   */\n      dup2\n        /* \"#utility.yul\":2336:2345   */\n      add\n        /* \"#utility.yul\":2331:2345   */\n      swap1\n      pop\n        /* \"#utility.yul\":2296:2643   */\n      jump(tag_100)\n    tag_102:\n        /* \"#utility.yul\":2300:2314   */\n      pop\n        /* \"#utility.yul\":2659:2662   */\n      dup6\n        /* \"#utility.yul\":2652:2662   */\n      swap4\n      pop\n        /* \"#utility.yul\":1934:2668   */\n      pop\n      pop\n      pop\n        /* \"#utility.yul\":1768:2668   */\n      swap3\n      swap2\n      pop\n      pop\n      jump\t// out\n        /* \"#utility.yul\":2674:2783   */\n    tag_106:\n        /* \"#utility.yul\":2755:2776   */\n      tag_108\n        /* \"#utility.yul\":2770:2775   */\n      dup2\n        /* \"#utility.yul\":2755:2776   */\n      tag_109\n      jump\t// in\n    tag_108:\n        /* \"#utility.yul\":2750:2753   */\n      dup3\n        /* \"#utility.yul\":2743:2777   */\n      mstore\n        /* \"#utility.yul\":2674:2783   */\n      pop\n      pop\n      jump\t// out\n        /* \"#utility.yul\":2789:2894   */\n    tag_110:\n        /* \"#utility.yul\":2864:2887   */\n      tag_112\n        /* \"#utility.yul\":2881:2886   */\n      dup2\n        /* \"#utility.yul\":2864:2887   */\n      tag_113\n      jump\t// in\n    tag_112:\n        /* \"#utility.yul\":2859:2862   */\n      dup3\n        /* \"#utility.yul\":2852:2888   */\n      mstore\n        /* \"#utility.yul\":2789:2894   */\n      pop\n      pop\n      jump\t// out\n        /* \"#utility.yul\":2954:3438   */\n    tag_91:\n        /* \"#utility.yul\":3083:3087   */\n      0x40\n        /* \"#utility.yul\":3078:3081   */\n      dup3\n        /* \"#utility.yul\":3074:3088   */\n      add\n        /* \"#utility.yul\":3168:3172   */\n      0x00\n        /* \"#utility.yul\":3161:3166   */\n      dup3\n        /* \"#utility.yul\":3157:3173   */\n      add\n        /* \"#utility.yul\":3151:3174   */\n      mload\n        /* \"#utility.yul\":3187:3250   */\n      tag_115\n        /* \"#utility.yul\":3244:3248   */\n      0x00\n        /* \"#utility.yul\":3239:3242   */\n      dup6\n        /* \"#utility.yul\":3235:3249   */\n      add\n        /* \"#utility.yul\":3221:3233   */\n      dup3\n        /* \"#utility.yul\":3187:3250   */\n      tag_116\n      jump\t// in\n    tag_115:\n        /* \"#utility.yul\":3098:3260   */\n      pop\n        /* \"#utility.yul\":3341:3345   */\n      0x20\n        /* \"#utility.yul\":3334:3339   */\n      dup3\n        /* \"#utility.yul\":3330:3346   */\n      add\n        /* \"#utility.yul\":3324:3347   */\n      mload\n        /* \"#utility.yul\":3360:3421   */\n      tag_117\n        /* \"#utility.yul\":3415:3419   */\n      0x20\n        /* \"#utility.yul\":3410:3413   */\n      dup6\n        /* \"#utility.yul\":3406:3420   */\n      add\n        /* \"#utility.yul\":3392:3404   */\n      dup3\n        /* \"#utility.yul\":3360:3421   */\n      tag_110\n      jump\t// in\n    tag_117:\n        /* \"#utility.yul\":3270:3431   */\n      pop\n        /* \"#utility.yul\":3052:3438   */\n      pop\n        /* \"#utility.yul\":2954:3438   */\n      pop\n      pop\n      jump\t// out\n        /* \"#utility.yul\":3498:3992   */\n    tag_118:\n        /* \"#utility.yul\":3637:3641   */\n      0x40\n        /* \"#utility.yul\":3632:3635   */\n      dup3\n        /* \"#utility.yul\":3628:3642   */\n      add\n        /* \"#utility.yul\":3722:3726   */\n      0x00\n        /* \"#utility.yul\":3715:3720   */\n      dup3\n        /* \"#utility.yul\":3711:3727   */\n      add\n        /* \"#utility.yul\":3705:3728   */\n      mload\n        /* \"#utility.yul\":3741:3804   */\n      tag_120\n        /* \"#utility.yul\":3798:3802   */\n      0x00\n        /* \"#utility.yul\":3793:3796   */\n      dup6\n        /* \"#utility.yul\":3789:3803   */\n      add\n        /* \"#utility.yul\":3775:3787   */\n      dup3\n        /* \"#utility.yul\":3741:3804   */\n      tag_116\n      jump\t// in\n    tag_120:\n        /* \"#utility.yul\":3652:3814   */\n      pop\n        /* \"#utility.yul\":3895:3899   */\n      0x20\n        /* \"#utility.yul\":3888:3893   */\n      dup3\n        /* \"#utility.yul\":3884:3900   */\n      add\n        /* \"#utility.yul\":3878:3901   */\n      mload\n        /* \"#utility.yul\":3914:3975   */\n      tag_121\n        /* \"#utility.yul\":3969:3973   */\n      0x20\n        /* \"#utility.yul\":3964:3967   */\n      dup6\n        /* \"#utility.yul\":3960:3974   */\n      add\n        /* \"#utility.yul\":3946:3958   */\n      dup3\n        /* \"#utility.yul\":3914:3975   */\n      tag_110\n      jump\t// in\n    tag_121:\n        /* \"#utility.yul\":3824:3985   */\n      pop\n        /* \"#utility.yul\":3606:3992   */\n      pop\n        /* \"#utility.yul\":3498:3992   */\n      pop\n      pop\n      jump\t// out\n        /* \"#utility.yul\":3998:4106   */\n    tag_116:\n        /* \"#utility.yul\":4075:4099   */\n      tag_123\n        /* \"#utility.yul\":4093:4098   */\n      dup2\n        /* \"#utility.yul\":4075:4099   */\n      tag_124\n      jump\t// in\n    tag_123:\n        /* \"#utility.yul\":4070:4073   */\n      dup3\n        /* \"#utility.yul\":4063:4100   */\n      mstore\n        /* \"#utility.yul\":3998:4106   */\n      pop\n      pop\n      jump\t// out\n        /* \"#utility.yul\":4112:4569   */\n    tag_23:\n        /* \"#utility.yul\":4297:4301   */\n      0x00\n        /* \"#utility.yul\":4335:4337   */\n      0x20\n        /* \"#utility.yul\":4324:4333   */\n      dup3\n        /* \"#utility.yul\":4320:4338   */\n      add\n        /* \"#utility.yul\":4312:4338   */\n      swap1\n      pop\n        /* \"#utility.yul\":4384:4393   */\n      dup2\n        /* \"#utility.yul\":4378:4382   */\n      dup2\n        /* \"#utility.yul\":4374:4394   */\n      sub\n        /* \"#utility.yul\":4370:4371   */\n      0x00\n        /* \"#utility.yul\":4359:4368   */\n      dup4\n        /* \"#utility.yul\":4355:4372   */\n      add\n        /* \"#utility.yul\":4348:4395   */\n      mstore\n        /* \"#utility.yul\":4412:4562   */\n      tag_126\n        /* \"#utility.yul\":4557:4561   */\n      dup2\n        /* \"#utility.yul\":4548:4554   */\n      dup5\n        /* \"#utility.yul\":4412:4562   */\n      tag_92\n      jump\t// in\n    tag_126:\n        /* \"#utility.yul\":4404:4562   */\n      swap1\n      pop\n        /* \"#utility.yul\":4112:4569   */\n      swap3\n      swap2\n      pop\n      pop\n      jump\t// out\n        /* \"#utility.yul\":4575:4785   */\n    tag_17:\n        /* \"#utility.yul\":4662:4666   */\n      0x00\n        /* \"#utility.yul\":4700:4702   */\n      0x20\n        /* \"#utility.yul\":4689:4698   */\n      dup3\n        /* \"#utility.yul\":4685:4703   */\n      add\n        /* \"#utility.yul\":4677:4703   */\n      swap1\n      pop\n        /* \"#utility.yul\":4713:4778   */\n      tag_128\n        /* \"#utility.yul\":4775:4776   */\n      0x00\n        /* \"#utility.yul\":4764:4773   */\n      dup4\n        /* \"#utility.yul\":4760:4777   */\n      add\n        /* \"#utility.yul\":4751:4757   */\n      dup5\n        /* \"#utility.yul\":4713:4778   */\n      tag_106\n      jump\t// in\n    tag_128:\n        /* \"#utility.yul\":4575:4785   */\n      swap3\n      swap2\n      pop\n      pop\n      jump\t// out\n        /* \"#utility.yul\":4791:5097   */\n    tag_11:\n        /* \"#utility.yul\":4926:4930   */\n      0x00\n        /* \"#utility.yul\":4964:4966   */\n      0x40\n        /* \"#utility.yul\":4953:4962   */\n      dup3\n        /* \"#utility.yul\":4949:4967   */\n      add\n        /* \"#utility.yul\":4941:4967   */\n      swap1\n      pop\n        /* \"#utility.yul\":4977:5090   */\n      tag_130\n        /* \"#utility.yul\":5087:5088   */\n      0x00\n        /* \"#utility.yul\":5076:5085   */\n      dup4\n        /* \"#utility.yul\":5072:5089   */\n      add\n        /* \"#utility.yul\":5063:5069   */\n      dup5\n        /* \"#utility.yul\":4977:5090   */\n      tag_118\n      jump\t// in\n    tag_130:\n        /* \"#utility.yul\":4791:5097   */\n      swap3\n      swap2\n      pop\n      pop\n      jump\t// out\n        /* \"#utility.yul\":5184:5337   */\n    tag_99:\n        /* \"#utility.yul\":5272:5276   */\n      0x00\n        /* \"#utility.yul\":5295:5298   */\n      dup2\n        /* \"#utility.yul\":5287:5298   */\n      swap1\n      pop\n        /* \"#utility.yul\":5325:5329   */\n      0x20\n        /* \"#utility.yul\":5320:5323   */\n      dup3\n        /* \"#utility.yul\":5316:5330   */\n      add\n        /* \"#utility.yul\":5308:5330   */\n      swap1\n      pop\n        /* \"#utility.yul\":5184:5337   */\n      swap2\n      swap1\n      pop\n      jump\t// out\n        /* \"#utility.yul\":5343:5478   */\n    tag_95:\n        /* \"#utility.yul\":5431:5437   */\n      0x00\n        /* \"#utility.yul\":5465:5470   */\n      dup2\n        /* \"#utility.yul\":5459:5471   */\n      mload\n        /* \"#utility.yul\":5449:5471   */\n      swap1\n      pop\n        /* \"#utility.yul\":5343:5478   */\n      swap2\n      swap1\n      pop\n      jump\t// out\n        /* \"#utility.yul\":5484:5618   */\n    tag_105:\n        /* \"#utility.yul\":5575:5579   */\n      0x00\n        /* \"#utility.yul\":5607:5611   */\n      0x20\n        /* \"#utility.yul\":5602:5605   */\n      dup3\n        /* \"#utility.yul\":5598:5612   */\n      add\n        /* \"#utility.yul\":5590:5612   */\n      swap1\n      pop\n        /* \"#utility.yul\":5484:5618   */\n      swap2\n      swap1\n      pop\n      jump\t// out\n        /* \"#utility.yul\":5624:5829   */\n    tag_97:\n        /* \"#utility.yul\":5744:5755   */\n      0x00\n        /* \"#utility.yul\":5778:5784   */\n      dup3\n        /* \"#utility.yul\":5773:5776   */\n      dup3\n        /* \"#utility.yul\":5766:5785   */\n      mstore\n        /* \"#utility.yul\":5818:5822   */\n      0x20\n        /* \"#utility.yul\":5813:5816   */\n      dup3\n        /* \"#utility.yul\":5809:5823   */\n      add\n        /* \"#utility.yul\":5794:5823   */\n      swap1\n      pop\n        /* \"#utility.yul\":5624:5829   */\n      swap3\n      swap2\n      pop\n      pop\n      jump\t// out\n        /* \"#utility.yul\":5835:6140   */\n    tag_35:\n        /* \"#utility.yul\":5875:5878   */\n      0x00\n        /* \"#utility.yul\":5894:5914   */\n      tag_138\n        /* \"#utility.yul\":5912:5913   */\n      dup3\n        /* \"#utility.yul\":5894:5914   */\n      tag_124\n      jump\t// in\n    tag_138:\n        /* \"#utility.yul\":5889:5914   */\n      swap2\n      pop\n        /* \"#utility.yul\":5928:5948   */\n      tag_139\n        /* \"#utility.yul\":5946:5947   */\n      dup4\n        /* \"#utility.yul\":5928:5948   */\n      tag_124\n      jump\t// in\n    tag_139:\n        /* \"#utility.yul\":5923:5948   */\n      swap3\n      pop\n        /* \"#utility.yul\":6082:6083   */\n      dup3\n        /* \"#utility.yul\":6014:6080   */\n      0xffffffffffffffffffffffffffffffffffffffffffffffffffffffffffffffff\n        /* \"#utility.yul\":6010:6084   */\n      sub\n        /* \"#utility.yul\":6007:6008   */\n      dup3\n        /* \"#utility.yul\":6004:6085   */\n      gt\n        /* \"#utility.yul\":6001:6108   */\n      iszero\n      tag_140\n      jumpi\n        /* \"#utility.yul\":6088:6106   */\n      tag_141\n      tag_142\n      jump\t// in\n    tag_141:\n        /* \"#utility.yul\":6001:6108   */\n    tag_140:\n        /* \"#utility.yul\":6132:6133   */\n      dup3\n        /* \"#utility.yul\":6129:6130   */\n      dup3\n        /* \"#utility.yul\":6125:6134   */\n      add\n        /* \"#utility.yul\":6118:6134   */\n      swap1\n      pop\n        /* \"#utility.yul\":5835:6140   */\n      swap3\n      swap2\n      pop\n      pop\n      jump\t// out\n        /* \"#utility.yul\":6146:6236   */\n    tag_109:\n        /* \"#utility.yul\":6180:6187   */\n      0x00\n        /* \"#utility.yul\":6223:6228   */\n      dup2\n        /* \"#utility.yul\":6216:6229   */\n      iszero\n        /* \"#utility.yul\":6209:6230   */\n      iszero\n        /* \"#utility.yul\":6198:6230   */\n      swap1\n      pop\n        /* \"#utility.yul\":6146:6236   */\n      swap2\n      swap1\n      pop\n      jump\t// out\n        /* \"#utility.yul\":6242:6318   */\n    tag_113:\n        /* \"#utility.yul\":6278:6285   */\n      0x00\n        /* \"#utility.yul\":6307:6312   */\n      dup2\n        /* \"#utility.yul\":6296:6312   */\n      swap1\n      pop\n        /* \"#utility.yul\":6242:6318   */\n      swap2\n      swap1\n      pop\n      jump\t// out\n        /* \"#utility.yul\":6324:6401   */\n    tag_124:\n        /* \"#utility.yul\":6361:6368   */\n      0x00\n        /* \"#utility.yul\":6390:6395   */\n      dup2\n        /* \"#utility.yul\":6379:6395   */\n      swap1\n      pop\n        /* \"#utility.yul\":6324:6401   */\n      swap2\n      swap1\n      pop\n      jump\t// out\n        /* \"#utility.yul\":6407:6640   */\n    tag_32:\n        /* \"#utility.yul\":6446:6449   */\n      0x00\n        /* \"#utility.yul\":6469:6493   */\n      tag_147\n        /* \"#utility.yul\":6487:6492   */\n      dup3\n        /* \"#utility.yul\":6469:6493   */\n      tag_124\n      jump\t// in\n    tag_147:\n        /* \"#utility.yul\":6460:6493   */\n      swap2\n      pop\n        /* \"#utility.yul\":6515:6581   */\n      0xffffffffffffffffffffffffffffffffffffffffffffffffffffffffffffffff\n        /* \"#utility.yul\":6508:6513   */\n      dup3\n        /* \"#utility.yul\":6505:6582   */\n      eq\n        /* \"#utility.yul\":6502:6605   */\n      iszero\n      tag_148\n      jumpi\n        /* \"#utility.yul\":6585:6603   */\n      tag_149\n      tag_142\n      jump\t// in\n    tag_149:\n        /* \"#utility.yul\":6502:6605   */\n    tag_148:\n        /* \"#utility.yul\":6632:6633   */\n      0x01\n        /* \"#utility.yul\":6625:6630   */\n      dup3\n        /* \"#utility.yul\":6621:6634   */\n      add\n        /* \"#utility.yul\":6614:6634   */\n      swap1\n      pop\n        /* \"#utility.yul\":6407:6640   */\n      swap2\n      swap1\n      pop\n      jump\t// out\n        /* \"#utility.yul\":6646:6826   */\n    tag_142:\n        /* \"#utility.yul\":6694:6771   */\n      0x4e487b7100000000000000000000000000000000000000000000000000000000\n        /* \"#utility.yul\":6691:6692   */\n      0x00\n        /* \"#utility.yul\":6684:6772   */\n      mstore\n        /* \"#utility.yul\":6791:6795   */\n      0x11\n        /* \"#utility.yul\":6788:6789   */\n      0x04\n        /* \"#utility.yul\":6781:6796   */\n      mstore\n        /* \"#utility.yul\":6815:6819   */\n      0x24\n        /* \"#utility.yul\":6812:6813   */\n      0x00\n        /* \"#utility.yul\":6805:6820   */\n      revert\n        /* \"#utility.yul\":6832:7012   */\n    tag_49:\n        /* \"#utility.yul\":6880:6957   */\n      0x4e487b7100000000000000000000000000000000000000000000000000000000\n        /* \"#utility.yul\":6877:6878   */\n      0x00\n        /* \"#utility.yul\":6870:6958   */\n      mstore\n        /* \"#utility.yul\":6977:6981   */\n      0x32\n        /* \"#utility.yul\":6974:6975   */\n      0x04\n        /* \"#utility.yul\":6967:6982   */\n      mstore\n        /* \"#utility.yul\":7001:7005   */\n      0x24\n        /* \"#utility.yul\":6998:6999   */\n      0x00\n        /* \"#utility.yul\":6991:7006   */\n      revert\n        /* \"#utility.yul\":7018:7198   */\n    tag_39:\n        /* \"#utility.yul\":7066:7143   */\n      0x4e487b7100000000000000000000000000000000000000000000000000000000\n        /* \"#utility.yul\":7063:7064   */\n      0x00\n        /* \"#utility.yul\":7056:7144   */\n      mstore\n        /* \"#utility.yul\":7163:7167   */\n      0x41\n        /* \"#utility.yul\":7160:7161   */\n      0x04\n        /* \"#utility.yul\":7153:7168   */\n      mstore\n        /* \"#utility.yul\":7187:7191   */\n      0x24\n        /* \"#utility.yul\":7184:7185   */\n      0x00\n        /* \"#utility.yul\":7177:7192   */\n      revert\n        /* \"#utility.yul\":7327:7444   */\n    tag_77:\n        /* \"#utility.yul\":7436:7437   */\n      0x00\n        /* \"#utility.yul\":7433:7434   */\n      dup1\n        /* \"#utility.yul\":7426:7438   */\n      revert\n        /* \"#utility.yul\":7450:7570   */\n    tag_69:\n        /* \"#utility.yul\":7522:7545   */\n      tag_157\n        /* \"#utility.yul\":7539:7544   */\n      dup2\n        /* \"#utility.yul\":7522:7545   */\n      tag_113\n      jump\t// in\n    tag_157:\n        /* \"#utility.yul\":7515:7520   */\n      dup2\n        /* \"#utility.yul\":7512:7546   */\n      eq\n        /* \"#utility.yul\":7502:7564   */\n      tag_158\n      jumpi\n        /* \"#utility.yul\":7560:7561   */\n      0x00\n        /* \"#utility.yul\":7557:7558   */\n      dup1\n        /* \"#utility.yul\":7550:7562   */\n      revert\n        /* \"#utility.yul\":7502:7564   */\n    tag_158:\n        /* \"#utility.yul\":7450:7570   */\n      pop\n      jump\t// out\n        /* \"#utility.yul\":7576:7698   */\n    tag_73:\n        /* \"#utility.yul\":7649:7673   */\n      tag_160\n        /* \"#utility.yul\":7667:7672   */\n      dup2\n        /* \"#utility.yul\":7649:7673   */\n      tag_124\n      jump\t// in\n    tag_160:\n        /* \"#utility.yul\":7642:7647   */\n      dup2\n        /* \"#utility.yul\":7639:7674   */\n      eq\n        /* \"#utility.yul\":7629:7692   */\n      tag_161\n      jumpi\n        /* \"#utility.yul\":7688:7689   */\n      0x00\n        /* \"#utility.yul\":7685:7686   */\n      dup1\n        /* \"#utility.yul\":7678:7690   */\n      revert\n        /* \"#utility.yul\":7629:7692   */\n    tag_161:\n        /* \"#utility.yul\":7576:7698   */\n      pop\n      jump\t// out\n\n    auxdata: 0xa26469706673582212202a193aa45242e255ab175dda4d7f08979d083657c3188ad84ca4b8c8246d451c64736f6c63430008070033\n}\n",
				"bytecode": {
					"linkReferences": {},
					"object": "608060405234801561001057600080fd5b50610798806100206000396000f3fe608060405234801561001057600080fd5b50600436106100415760003560e01c80637dc379fa146100465780638de8cf8014610076578063bd0165f7146100a6575b600080fd5b610060600480360381019061005b91906103e4565b6100d6565b60405161006d919061058f565b60405180910390f35b610090600480360381019061008b9190610411565b61015b565b60405161009d9190610574565b60405180910390f35b6100c060048036038101906100bb91906103b7565b6101c0565b6040516100cd9190610552565b60405180910390f35b6100de610373565b60005b60015481101561015457826000808381526020019081526020016000206000015414156101415760008082815260200190815260200160002060405180604001604052908160008201548152602001600182015481525050915050610156565b808061014c90610659565b9150506100e1565b505b919050565b60006040518060400160405280848152602001838152506000806001548152602001908152602001600020600082015181600001556020820151816001015590505060018060008282546101af91906105e3565b925050819055506001905092915050565b6060600060015467ffffffffffffffff8111156101e0576101df610700565b5b60405190808252806020026020018201604052801561021957816020015b610206610373565b8152602001906001900390816101fe5790505b509050600080600090505b6001548110156102bd57846000808381526020019081526020016000206001015414156102aa576000808281526020019081526020016000206040518060400160405290816000820154815260200160018201548152505083838151811061028f5761028e6106d1565b5b60200260200101819052506001826102a791906105e3565b91505b80806102b590610659565b915050610224565b508067ffffffffffffffff8111156102d8576102d7610700565b5b60405190808252806020026020018201604052801561031157816020015b6102fe610373565b8152602001906001900390816102f65790505b50925060005b8181101561036b57828181518110610332576103316106d1565b5b602002602001015184828151811061034d5761034c6106d1565b5b6020026020010181905250808061036390610659565b915050610317565b505050919050565b604051806040016040528060008152602001600081525090565b60008135905061039c81610734565b92915050565b6000813590506103b18161074b565b92915050565b6000602082840312156103cd576103cc61072f565b5b60006103db8482850161038d565b91505092915050565b6000602082840312156103fa576103f961072f565b5b6000610408848285016103a2565b91505092915050565b600080604083850312156104285761042761072f565b5b6000610436858286016103a2565b92505060206104478582860161038d565b9150509250929050565b600061045d83836104e5565b60408301905092915050565b6000610474826105ba565b61047e81856105d2565b9350610489836105aa565b8060005b838110156104ba5781516104a18882610451565b97506104ac836105c5565b92505060018101905061048d565b5085935050505092915050565b6104d081610639565b82525050565b6104df81610645565b82525050565b6040820160008201516104fb6000850182610543565b50602082015161050e60208501826104d6565b50505050565b60408201600082015161052a6000850182610543565b50602082015161053d60208501826104d6565b50505050565b61054c8161064f565b82525050565b6000602082019050818103600083015261056c8184610469565b905092915050565b600060208201905061058960008301846104c7565b92915050565b60006040820190506105a46000830184610514565b92915050565b6000819050602082019050919050565b600081519050919050565b6000602082019050919050565b600082825260208201905092915050565b60006105ee8261064f565b91506105f98361064f565b9250827fffffffffffffffffffffffffffffffffffffffffffffffffffffffffffffffff0382111561062e5761062d6106a2565b5b828201905092915050565b60008115159050919050565b6000819050919050565b6000819050919050565b60006106648261064f565b91507fffffffffffffffffffffffffffffffffffffffffffffffffffffffffffffffff821415610697576106966106a2565b5b600182019050919050565b7f4e487b7100000000000000000000000000000000000000000000000000000000600052601160045260246000fd5b7f4e487b7100000000000000000000000000000000000000000000000000000000600052603260045260246000fd5b7f4e487b7100000000000000000000000000000000000000000000000000000000600052604160045260246000fd5b600080fd5b61073d81610645565b811461074857600080fd5b50565b6107548161064f565b811461075f57600080fd5b5056fea26469706673582212202a193aa45242e255ab175dda4d7f08979d083657c3188ad84ca4b8c8246d451c64736f6c63430008070033",
					"opcodes": "PUSH1 0x80 PUSH1 0x40 MSTORE CALLVALUE DUP1 ISZERO PUSH2 0x10 JUMPI PUSH1 0x0 DUP1 REVERT JUMPDEST POP PUSH2 0x798 DUP1 PUSH2 0x20 PUSH1 0x0 CODECOPY PUSH1 0x0 RETURN INVALID PUSH1 0x80 PUSH1 0x40 MSTORE CALLVALUE DUP1 ISZERO PUSH2 0x10 JUMPI PUSH1 0x0 DUP1 REVERT JUMPDEST POP PUSH1 0x4 CALLDATASIZE LT PUSH2 0x41 JUMPI PUSH1 0x0 CALLDATALOAD PUSH1 0xE0 SHR DUP1 PUSH4 0x7DC379FA EQ PUSH2 0x46 JUMPI DUP1 PUSH4 0x8DE8CF80 EQ PUSH2 0x76 JUMPI DUP1 PUSH4 0xBD0165F7 EQ PUSH2 0xA6 JUMPI JUMPDEST PUSH1 0x0 DUP1 REVERT JUMPDEST PUSH2 0x60 PUSH1 0x4 DUP1 CALLDATASIZE SUB DUP2 ADD SWAP1 PUSH2 0x5B SWAP2 SWAP1 PUSH2 0x3E4 JUMP JUMPDEST PUSH2 0xD6 JUMP JUMPDEST PUSH1 0x40 MLOAD PUSH2 0x6D SWAP2 SWAP1 PUSH2 0x58F JUMP JUMPDEST PUSH1 0x40 MLOAD DUP1 SWAP2 SUB SWAP1 RETURN JUMPDEST PUSH2 0x90 PUSH1 0x4 DUP1 CALLDATASIZE SUB DUP2 ADD SWAP1 PUSH2 0x8B SWAP2 SWAP1 PUSH2 0x411 JUMP JUMPDEST PUSH2 0x15B JUMP JUMPDEST PUSH1 0x40 MLOAD PUSH2 0x9D SWAP2 SWAP1 PUSH2 0x574 JUMP JUMPDEST PUSH1 0x40 MLOAD DUP1 SWAP2 SUB SWAP1 RETURN JUMPDEST PUSH2 0xC0 PUSH1 0x4 DUP1 CALLDATASIZE SUB DUP2 ADD SWAP1 PUSH2 0xBB SWAP2 SWAP1 PUSH2 0x3B7 JUMP JUMPDEST PUSH2 0x1C0 JUMP JUMPDEST PUSH1 0x40 MLOAD PUSH2 0xCD SWAP2 SWAP1 PUSH2 0x552 JUMP JUMPDEST PUSH1 0x40 MLOAD DUP1 SWAP2 SUB SWAP1 RETURN JUMPDEST PUSH2 0xDE PUSH2 0x373 JUMP JUMPDEST PUSH1 0x0 JUMPDEST PUSH1 0x1 SLOAD DUP2 LT ISZERO PUSH2 0x154 JUMPI DUP3 PUSH1 0x0 DUP1 DUP4 DUP2 MSTORE PUSH1 0x20 ADD SWAP1 DUP2 MSTORE PUSH1 0x20 ADD PUSH1 0x0 KECCAK256 PUSH1 0x0 ADD SLOAD EQ ISZERO PUSH2 0x141 JUMPI PUSH1 0x0 DUP1 DUP3 DUP2 MSTORE PUSH1 0x20 ADD SWAP1 DUP2 MSTORE PUSH1 0x20 ADD PUSH1 0x0 KECCAK256 PUSH1 0x40 MLOAD DUP1 PUSH1 0x40 ADD PUSH1 0x40 MSTORE SWAP1 DUP2 PUSH1 0x0 DUP3 ADD SLOAD DUP2 MSTORE PUSH1 0x20 ADD PUSH1 0x1 DUP3 ADD SLOAD DUP2 MSTORE POP POP SWAP2 POP POP PUSH2 0x156 JUMP JUMPDEST DUP1 DUP1 PUSH2 0x14C SWAP1 PUSH2 0x659 JUMP JUMPDEST SWAP2 POP POP PUSH2 0xE1 JUMP JUMPDEST POP JUMPDEST SWAP2 SWAP1 POP JUMP JUMPDEST PUSH1 0x0 PUSH1 0x40 MLOAD DUP1 PUSH1 0x40 ADD PUSH1 0x40 MSTORE DUP1 DUP5 DUP2 MSTORE PUSH1 0x20 ADD DUP4 DUP2 MSTORE POP PUSH1 0x0 DUP1 PUSH1 0x1 SLOAD DUP2 MSTORE PUSH1 0x20 ADD SWAP1 DUP2 MSTORE PUSH1 0x20 ADD PUSH1 0x0 KECCAK256 PUSH1 0x0 DUP3 ADD MLOAD DUP2 PUSH1 0x0 ADD SSTORE PUSH1 0x20 DUP3 ADD MLOAD DUP2 PUSH1 0x1 ADD SSTORE SWAP1 POP POP PUSH1 0x1 DUP1 PUSH1 0x0 DUP3 DUP3 SLOAD PUSH2 0x1AF SWAP2 SWAP1 PUSH2 0x5E3 JUMP JUMPDEST SWAP3 POP POP DUP2 SWAP1 SSTORE POP PUSH1 0x1 SWAP1 POP SWAP3 SWAP2 POP POP JUMP JUMPDEST PUSH1 0x60 PUSH1 0x0 PUSH1 0x1 SLOAD PUSH8 0xFFFFFFFFFFFFFFFF DUP2 GT ISZERO PUSH2 0x1E0 JUMPI PUSH2 0x1DF PUSH2 0x700 JUMP JUMPDEST JUMPDEST PUSH1 0x40 MLOAD SWAP1 DUP1 DUP3 MSTORE DUP1 PUSH1 0x20 MUL PUSH1 0x20 ADD DUP3 ADD PUSH1 0x40 MSTORE DUP1 ISZERO PUSH2 0x219 JUMPI DUP2 PUSH1 0x20 ADD JUMPDEST PUSH2 0x206 PUSH2 0x373 JUMP JUMPDEST DUP2 MSTORE PUSH1 0x20 ADD SWAP1 PUSH1 0x1 SWAP1 SUB SWAP1 DUP2 PUSH2 0x1FE JUMPI SWAP1 POP JUMPDEST POP SWAP1 POP PUSH1 0x0 DUP1 PUSH1 0x0 SWAP1 POP JUMPDEST PUSH1 0x1 SLOAD DUP2 LT ISZERO PUSH2 0x2BD JUMPI DUP5 PUSH1 0x0 DUP1 DUP4 DUP2 MSTORE PUSH1 0x20 ADD SWAP1 DUP2 MSTORE PUSH1 0x20 ADD PUSH1 0x0 KECCAK256 PUSH1 0x1 ADD SLOAD EQ ISZERO PUSH2 0x2AA JUMPI PUSH1 0x0 DUP1 DUP3 DUP2 MSTORE PUSH1 0x20 ADD SWAP1 DUP2 MSTORE PUSH1 0x20 ADD PUSH1 0x0 KECCAK256 PUSH1 0x40 MLOAD DUP1 PUSH1 0x40 ADD PUSH1 0x40 MSTORE SWAP1 DUP2 PUSH1 0x0 DUP3 ADD SLOAD DUP2 MSTORE PUSH1 0x20 ADD PUSH1 0x1 DUP3 ADD SLOAD DUP2 MSTORE POP POP DUP4 DUP4 DUP2 MLOAD DUP2 LT PUSH2 0x28F JUMPI PUSH2 0x28E PUSH2 0x6D1 JUMP JUMPDEST JUMPDEST PUSH1 0x20 MUL PUSH1 0x20 ADD ADD DUP2 SWAP1 MSTORE POP PUSH1 0x1 DUP3 PUSH2 0x2A7 SWAP2 SWAP1 PUSH2 0x5E3 JUMP JUMPDEST SWAP2 POP JUMPDEST DUP1 DUP1 PUSH2 0x2B5 SWAP1 PUSH2 0x659 JUMP JUMPDEST SWAP2 POP POP PUSH2 0x224 JUMP JUMPDEST POP DUP1 PUSH8 0xFFFFFFFFFFFFFFFF DUP2 GT ISZERO PUSH2 0x2D8 JUMPI PUSH2 0x2D7 PUSH2 0x700 JUMP JUMPDEST JUMPDEST PUSH1 0x40 MLOAD SWAP1 DUP1 DUP3 MSTORE DUP1 PUSH1 0x20 MUL PUSH1 0x20 ADD DUP3 ADD PUSH1 0x40 MSTORE DUP1 ISZERO PUSH2 0x311 JUMPI DUP2 PUSH1 0x20 ADD JUMPDEST PUSH2 0x2FE PUSH2 0x373 JUMP JUMPDEST DUP2 MSTORE PUSH1 0x20 ADD SWAP1 PUSH1 0x1 SWAP1 SUB SWAP1 DUP2 PUSH2 0x2F6 JUMPI SWAP1 POP JUMPDEST POP SWAP3 POP PUSH1 0x0 JUMPDEST DUP2 DUP2 LT ISZERO PUSH2 0x36B JUMPI DUP3 DUP2 DUP2 MLOAD DUP2 LT PUSH2 0x332 JUMPI PUSH2 0x331 PUSH2 0x6D1 JUMP JUMPDEST JUMPDEST PUSH1 0x20 MUL PUSH1 0x20 ADD ADD MLOAD DUP5 DUP3 DUP2 MLOAD DUP2 LT PUSH2 0x34D JUMPI PUSH2 0x34C PUSH2 0x6D1 JUMP JUMPDEST JUMPDEST PUSH1 0x20 MUL PUSH1 0x20 ADD ADD DUP2 SWAP1 MSTORE POP DUP1 DUP1 PUSH2 0x363 SWAP1 PUSH2 0x659 JUMP JUMPDEST SWAP2 POP POP PUSH2 0x317 JUMP JUMPDEST POP POP POP SWAP2 SWAP1 POP JUMP JUMPDEST PUSH1 0x40 MLOAD DUP1 PUSH1 0x40 ADD PUSH1 0x40 MSTORE DUP1 PUSH1 0x0 DUP2 MSTORE PUSH1 0x20 ADD PUSH1 0x0 DUP2 MSTORE POP SWAP1 JUMP JUMPDEST PUSH1 0x0 DUP2 CALLDATALOAD SWAP1 POP PUSH2 0x39C DUP2 PUSH2 0x734 JUMP JUMPDEST SWAP3 SWAP2 POP POP JUMP JUMPDEST PUSH1 0x0 DUP2 CALLDATALOAD SWAP1 POP PUSH2 0x3B1 DUP2 PUSH2 0x74B JUMP JUMPDEST SWAP3 SWAP2 POP POP JUMP JUMPDEST PUSH1 0x0 PUSH1 0x20 DUP3 DUP5 SUB SLT ISZERO PUSH2 0x3CD JUMPI PUSH2 0x3CC PUSH2 0x72F JUMP JUMPDEST JUMPDEST PUSH1 0x0 PUSH2 0x3DB DUP5 DUP3 DUP6 ADD PUSH2 0x38D JUMP JUMPDEST SWAP2 POP POP SWAP3 SWAP2 POP POP JUMP JUMPDEST PUSH1 0x0 PUSH1 0x20 DUP3 DUP5 SUB SLT ISZERO PUSH2 0x3FA JUMPI PUSH2 0x3F9 PUSH2 0x72F JUMP JUMPDEST JUMPDEST PUSH1 0x0 PUSH2 0x408 DUP5 DUP3 DUP6 ADD PUSH2 0x3A2 JUMP JUMPDEST SWAP2 POP POP SWAP3 SWAP2 POP POP JUMP JUMPDEST PUSH1 0x0 DUP1 PUSH1 0x40 DUP4 DUP6 SUB SLT ISZERO PUSH2 0x428 JUMPI PUSH2 0x427 PUSH2 0x72F JUMP JUMPDEST JUMPDEST PUSH1 0x0 PUSH2 0x436 DUP6 DUP3 DUP7 ADD PUSH2 0x3A2 JUMP JUMPDEST SWAP3 POP POP PUSH1 0x20 PUSH2 0x447 DUP6 DUP3 DUP7 ADD PUSH2 0x38D JUMP JUMPDEST SWAP2 POP POP SWAP3 POP SWAP3 SWAP1 POP JUMP JUMPDEST PUSH1 0x0 PUSH2 0x45D DUP4 DUP4 PUSH2 0x4E5 JUMP JUMPDEST PUSH1 0x40 DUP4 ADD SWAP1 POP SWAP3 SWAP2 POP POP JUMP JUMPDEST PUSH1 0x0 PUSH2 0x474 DUP3 PUSH2 0x5BA JUMP JUMPDEST PUSH2 0x47E DUP2 DUP6 PUSH2 0x5D2 JUMP JUMPDEST SWAP4 POP PUSH2 0x489 DUP4 PUSH2 0x5AA JUMP JUMPDEST DUP1 PUSH1 0x0 JUMPDEST DUP4 DUP2 LT ISZERO PUSH2 0x4BA JUMPI DUP2 MLOAD PUSH2 0x4A1 DUP9 DUP3 PUSH2 0x451 JUMP JUMPDEST SWAP8 POP PUSH2 0x4AC DUP4 PUSH2 0x5C5 JUMP JUMPDEST SWAP3 POP POP PUSH1 0x1 DUP2 ADD SWAP1 POP PUSH2 0x48D JUMP JUMPDEST POP DUP6 SWAP4 POP POP POP POP SWAP3 SWAP2 POP POP JUMP JUMPDEST PUSH2 0x4D0 DUP2 PUSH2 0x639 JUMP JUMPDEST DUP3 MSTORE POP POP JUMP JUMPDEST PUSH2 0x4DF DUP2 PUSH2 0x645 JUMP JUMPDEST DUP3 MSTORE POP POP JUMP JUMPDEST PUSH1 0x40 DUP3 ADD PUSH1 0x0 DUP3 ADD MLOAD PUSH2 0x4FB PUSH1 0x0 DUP6 ADD DUP3 PUSH2 0x543 JUMP JUMPDEST POP PUSH1 0x20 DUP3 ADD MLOAD PUSH2 0x50E PUSH1 0x20 DUP6 ADD DUP3 PUSH2 0x4D6 JUMP JUMPDEST POP POP POP POP JUMP JUMPDEST PUSH1 0x40 DUP3 ADD PUSH1 0x0 DUP3 ADD MLOAD PUSH2 0x52A PUSH1 0x0 DUP6 ADD DUP3 PUSH2 0x543 JUMP JUMPDEST POP PUSH1 0x20 DUP3 ADD MLOAD PUSH2 0x53D PUSH1 0x20 DUP6 ADD DUP3 PUSH2 0x4D6 JUMP JUMPDEST POP POP POP POP JUMP JUMPDEST PUSH2 0x54C DUP2 PUSH2 0x64F JUMP JUMPDEST DUP3 MSTORE POP POP JUMP JUMPDEST PUSH1 0x0 PUSH1 0x20 DUP3 ADD SWAP1 POP DUP2 DUP2 SUB PUSH1 0x0 DUP4 ADD MSTORE PUSH2 0x56C DUP2 DUP5 PUSH2 0x469 JUMP JUMPDEST SWAP1 POP SWAP3 SWAP2 POP POP JUMP JUMPDEST PUSH1 0x0 PUSH1 0x20 DUP3 ADD SWAP1 POP PUSH2 0x589 PUSH1 0x0 DUP4 ADD DUP5 PUSH2 0x4C7 JUMP JUMPDEST SWAP3 SWAP2 POP POP JUMP JUMPDEST PUSH1 0x0 PUSH1 0x40 DUP3 ADD SWAP1 POP PUSH2 0x5A4 PUSH1 0x0 DUP4 ADD DUP5 PUSH2 0x514 JUMP JUMPDEST SWAP3 SWAP2 POP POP JUMP JUMPDEST PUSH1 0x0 DUP2 SWAP1 POP PUSH1 0x20 DUP3 ADD SWAP1 POP SWAP2 SWAP1 POP JUMP JUMPDEST PUSH1 0x0 DUP2 MLOAD SWAP1 POP SWAP2 SWAP1 POP JUMP JUMPDEST PUSH1 0x0 PUSH1 0x20 DUP3 ADD SWAP1 POP SWAP2 SWAP1 POP JUMP JUMPDEST PUSH1 0x0 DUP3 DUP3 MSTORE PUSH1 0x20 DUP3 ADD SWAP1 POP SWAP3 SWAP2 POP POP JUMP JUMPDEST PUSH1 0x0 PUSH2 0x5EE DUP3 PUSH2 0x64F JUMP JUMPDEST SWAP2 POP PUSH2 0x5F9 DUP4 PUSH2 0x64F JUMP JUMPDEST SWAP3 POP DUP3 PUSH32 0xFFFFFFFFFFFFFFFFFFFFFFFFFFFFFFFFFFFFFFFFFFFFFFFFFFFFFFFFFFFFFFFF SUB DUP3 GT ISZERO PUSH2 0x62E JUMPI PUSH2 0x62D PUSH2 0x6A2 JUMP JUMPDEST JUMPDEST DUP3 DUP3 ADD SWAP1 POP SWAP3 SWAP2 POP POP JUMP JUMPDEST PUSH1 0x0 DUP2 ISZERO ISZERO SWAP1 POP SWAP2 SWAP1 POP JUMP JUMPDEST PUSH1 0x0 DUP2 SWAP1 POP SWAP2 SWAP1 POP JUMP JUMPDEST PUSH1 0x0 DUP2 SWAP1 POP SWAP2 SWAP1 POP JUMP JUMPDEST PUSH1 0x0 PUSH2 0x664 DUP3 PUSH2 0x64F JUMP JUMPDEST SWAP2 POP PUSH32 0xFFFFFFFFFFFFFFFFFFFFFFFFFFFFFFFFFFFFFFFFFFFFFFFFFFFFFFFFFFFFFFFF DUP3 EQ ISZERO PUSH2 0x697 JUMPI PUSH2 0x696 PUSH2 0x6A2 JUMP JUMPDEST JUMPDEST PUSH1 0x1 DUP3 ADD SWAP1 POP SWAP2 SWAP1 POP JUMP JUMPDEST PUSH32 0x4E487B7100000000000000000000000000000000000000000000000000000000 PUSH1 0x0 MSTORE PUSH1 0x11 PUSH1 0x4 MSTORE PUSH1 0x24 PUSH1 0x0 REVERT JUMPDEST PUSH32 0x4E487B7100000000000000000000000000000000000000000000000000000000 PUSH1 0x0 MSTORE PUSH1 0x32 PUSH1 0x4 MSTORE PUSH1 0x24 PUSH1 0x0 REVERT JUMPDEST PUSH32 0x4E487B7100000000000000000000000000000000000000000000000000000000 PUSH1 0x0 MSTORE PUSH1 0x41 PUSH1 0x4 MSTORE PUSH1 0x24 PUSH1 0x0 REVERT JUMPDEST PUSH1 0x0 DUP1 REVERT JUMPDEST PUSH2 0x73D DUP2 PUSH2 0x645 JUMP JUMPDEST DUP2 EQ PUSH2 0x748 JUMPI PUSH1 0x0 DUP1 REVERT JUMPDEST POP JUMP JUMPDEST PUSH2 0x754 DUP2 PUSH2 0x64F JUMP JUMPDEST DUP2 EQ PUSH2 0x75F JUMPI PUSH1 0x0 DUP1 REVERT JUMPDEST POP JUMP INVALID LOG2 PUSH5 0x6970667358 0x22 SLT KECCAK256 0x2A NOT GASPRICE LOG4 MSTORE TIMESTAMP 0xE2 SSTORE 0xAB OR 0x5D 0xDA 0x4D PUSH32 0x8979D083657C3188AD84CA4B8C8246D451C64736F6C63430008070033000000 "
				},
				"gasEstimates": {
					"creation": {
						"codeDepositCost": "388800",
						"executionCost": "424",
						"totalCost": "389224"
					},
					"external": {
						"addTicket(uint256,int256)": "infinite",
						"findTickets(int256)": "infinite",
						"getTicket(uint256)": "infinite"
					}
				},
				"methodIdentifiers": {
					"addTicket(uint256,int256)": "8de8cf80",
					"findTickets(int256)": "bd0165f7",
					"getTicket(uint256)": "7dc379fa"
				}
			},
			"storageLayout": {
				"storage": [
					{
						"astId": 12,
						"contract": "contracts/Test2.sol:Tickets",
						"label": "tickets",
						"offset": 0,
						"slot": "0",
						"type": "t_mapping(t_uint256,t_struct(Ticket)7_storage)"
					},
					{
						"astId": 14,
						"contract": "contracts/Test2.sol:Tickets",
						"label": "ticketCount",
						"offset": 0,
						"slot": "1",
						"type": "t_uint256"
					}
				],
				"types": {
					"t_int256": {
						"encoding": "inplace",
						"label": "int256",
						"numberOfBytes": "32"
					},
					"t_mapping(t_uint256,t_struct(Ticket)7_storage)": {
						"encoding": "mapping",
						"key": "t_uint256",
						"label": "mapping(uint256 => struct Tickets.Ticket)",
						"numberOfBytes": "32",
						"value": "t_struct(Ticket)7_storage"
					},
					"t_struct(Ticket)7_storage": {
						"encoding": "inplace",
						"label": "struct Tickets.Ticket",
						"members": [
							{
								"astId": 4,
								"contract": "contracts/Test2.sol:Tickets",
								"label": "id",
								"offset": 0,
								"slot": "0",
								"type": "t_uint256"
							},
							{
								"astId": 6,
								"contract": "contracts/Test2.sol:Tickets",
								"label": "val",
								"offset": 0,
								"slot": "1",
								"type": "t_int256"
							}
						],
						"numberOfBytes": "64"
					},
					"t_uint256": {
						"encoding": "inplace",
						"label": "uint256",
						"numberOfBytes": "32"
					}
				}
			},
			"userdoc": {
				"kind": "user",
				"methods": {},
				"version": 1
			}
		}
	}
}