{
	"contracts/Test.sol": {
		"CrudApp": {
			"abi": [
				{
					"inputs": [],
					"stateMutability": "nonpayable",
					"type": "constructor"
				},
				{
					"anonymous": false,
					"inputs": [
						{
							"indexed": false,
							"internalType": "string",
							"name": "countryName",
							"type": "string"
						}
					],
					"name": "CountryDelete",
					"type": "event"
				},
				{
					"anonymous": false,
					"inputs": [
						{
							"indexed": false,
							"internalType": "string",
							"name": "countryName",
							"type": "string"
						},
						{
							"indexed": false,
							"internalType": "string",
							"name": "leader",
							"type": "string"
						},
						{
							"indexed": false,
							"internalType": "uint256",
							"name": "population",
							"type": "uint256"
						}
					],
					"name": "CountryEvent",
					"type": "event"
				},
				{
					"anonymous": false,
					"inputs": [
						{
							"indexed": false,
							"internalType": "string",
							"name": "countryName",
							"type": "string"
						},
						{
							"indexed": false,
							"internalType": "string",
							"name": "leader",
							"type": "string"
						}
					],
					"name": "LeaderUpdated",
					"type": "event"
				},
				{
					"inputs": [
						{
							"internalType": "uint256",
							"name": "",
							"type": "uint256"
						}
					],
					"name": "countries",
					"outputs": [
						{
							"internalType": "string",
							"name": "name",
							"type": "string"
						},
						{
							"internalType": "string",
							"name": "leader",
							"type": "string"
						},
						{
							"internalType": "uint256",
							"name": "population",
							"type": "uint256"
						}
					],
					"stateMutability": "view",
					"type": "function"
				},
				{
					"inputs": [
						{
							"internalType": "string",
							"name": "countryName",
							"type": "string"
						}
					],
					"name": "deleteCountry",
					"outputs": [
						{
							"internalType": "bool",
							"name": "success",
							"type": "bool"
						}
					],
					"stateMutability": "nonpayable",
					"type": "function"
				},
				{
					"inputs": [],
					"name": "getCountries",
					"outputs": [
						{
							"components": [
								{
									"internalType": "string",
									"name": "name",
									"type": "string"
								},
								{
									"internalType": "string",
									"name": "leader",
									"type": "string"
								},
								{
									"internalType": "uint256",
									"name": "population",
									"type": "uint256"
								}
							],
							"internalType": "struct CrudApp.country[]",
							"name": "allCountries",
							"type": "tuple[]"
						}
					],
					"stateMutability": "view",
					"type": "function"
				},
				{
					"inputs": [],
					"name": "getCountries2",
					"outputs": [
						{
							"components": [
								{
									"internalType": "string",
									"name": "name",
									"type": "string"
								},
								{
									"internalType": "string",
									"name": "leader",
									"type": "string"
								},
								{
									"internalType": "uint256",
									"name": "population",
									"type": "uint256"
								}
							],
							"internalType": "struct CrudApp.country[]",
							"name": "allCountries",
							"type": "tuple[]"
						}
					],
					"stateMutability": "view",
					"type": "function"
				},
				{
					"inputs": [
						{
							"internalType": "string",
							"name": "countryName",
							"type": "string"
						}
					],
					"name": "getCountry",
					"outputs": [
						{
							"internalType": "string",
							"name": "name",
							"type": "string"
						},
						{
							"internalType": "string",
							"name": "leader",
							"type": "string"
						},
						{
							"internalType": "uint256",
							"name": "population",
							"type": "uint256"
						}
					],
					"stateMutability": "view",
					"type": "function"
				},
				{
					"inputs": [],
					"name": "getTotalCountries",
					"outputs": [
						{
							"internalType": "uint256",
							"name": "length",
							"type": "uint256"
						}
					],
					"stateMutability": "view",
					"type": "function"
				},
				{
					"inputs": [
						{
							"internalType": "string",
							"name": "countryName",
							"type": "string"
						},
						{
							"internalType": "string",
							"name": "leader",
							"type": "string"
						},
						{
							"internalType": "uint256",
							"name": "population",
							"type": "uint256"
						}
					],
					"name": "insert",
					"outputs": [
						{
							"internalType": "uint256",
							"name": "_totalCountries",
							"type": "uint256"
						}
					],
					"stateMutability": "nonpayable",
					"type": "function"
				},
				{
					"inputs": [],
					"name": "totalCountries",
					"outputs": [
						{
							"internalType": "uint256",
							"name": "",
							"type": "uint256"
						}
					],
					"stateMutability": "view",
					"type": "function"
				},
				{
					"inputs": [
						{
							"internalType": "string",
							"name": "countryName",
							"type": "string"
						},
						{
							"internalType": "string",
							"name": "newLeader",
							"type": "string"
						}
					],
					"name": "updateLeader",
					"outputs": [
						{
							"internalType": "bool",
							"name": "success",
							"type": "bool"
						}
					],
					"stateMutability": "nonpayable",
					"type": "function"
				}
			],
			"devdoc": {
				"kind": "dev",
				"methods": {},
				"version": 1
			},
			"evm": {
				"assembly": "    /* \"contracts/Test.sol\":97:3599  contract CrudApp {\r... */\n  mstore(0x40, 0x80)\n    /* \"contracts/Test.sol\":304:353  constructor() {\r... */\n  callvalue\n  dup1\n  iszero\n  tag_1\n  jumpi\n  0x00\n  dup1\n  revert\ntag_1:\n  pop\n    /* \"contracts/Test.sol\":345:346  0 */\n  0x00\n    /* \"contracts/Test.sol\":328:342  totalCountries */\n  0x01\n    /* \"contracts/Test.sol\":328:346  totalCountries = 0 */\n  dup2\n  swap1\n  sstore\n  pop\n    /* \"contracts/Test.sol\":97:3599  contract CrudApp {\r... */\n  dataSize(sub_0)\n  dup1\n  dataOffset(sub_0)\n  0x00\n  codecopy\n  0x00\n  return\nstop\n\nsub_0: assembly {\n        /* \"contracts/Test.sol\":97:3599  contract CrudApp {\r... */\n      mstore(0x40, 0x80)\n      callvalue\n      dup1\n      iszero\n      tag_1\n      jumpi\n      0x00\n      dup1\n      revert\n    tag_1:\n      pop\n      jumpi(tag_2, lt(calldatasize, 0x04))\n      shr(0xe0, calldataload(0x00))\n      dup1\n      0xa176c86c\n      gt\n      tag_12\n      jumpi\n      dup1\n      0xa176c86c\n      eq\n      tag_7\n      jumpi\n      dup1\n      0xacf75458\n      eq\n      tag_8\n      jumpi\n      dup1\n      0xbeca8009\n      eq\n      tag_9\n      jumpi\n      dup1\n      0xc1356d26\n      eq\n      tag_10\n      jumpi\n      dup1\n      0xcae65058\n      eq\n      tag_11\n      jumpi\n      jump(tag_2)\n    tag_12:\n      dup1\n      0x08e9daa5\n      eq\n      tag_3\n      jumpi\n      dup1\n      0x62738129\n      eq\n      tag_4\n      jumpi\n      dup1\n      0x81ba02be\n      eq\n      tag_5\n      jumpi\n      dup1\n      0x848924cb\n      eq\n      tag_6\n      jumpi\n    tag_2:\n      0x00\n      dup1\n      revert\n        /* \"contracts/Test.sol\":225:251  country[] public countries */\n    tag_3:\n      tag_13\n      0x04\n      dup1\n      calldatasize\n      sub\n      dup2\n      add\n      swap1\n      tag_14\n      swap2\n      swap1\n      tag_15\n      jump\t// in\n    tag_14:\n      tag_16\n      jump\t// in\n    tag_13:\n      mload(0x40)\n      tag_17\n      swap4\n      swap3\n      swap2\n      swap1\n      tag_18\n      jump\t// in\n    tag_17:\n      mload(0x40)\n      dup1\n      swap2\n      sub\n      swap1\n      return\n        /* \"contracts/Test.sol\":260:289  uint256 public totalCountries */\n    tag_4:\n      tag_19\n      tag_20\n      jump\t// in\n    tag_19:\n      mload(0x40)\n      tag_21\n      swap2\n      swap1\n      tag_22\n      jump\t// in\n    tag_21:\n      mload(0x40)\n      dup1\n      swap2\n      sub\n      swap1\n      return\n        /* \"contracts/Test.sol\":968:1418  function updateLeader(string memory countryName, string memory newLeader) public returns (bool success){\r... */\n    tag_5:\n      tag_23\n      0x04\n      dup1\n      calldatasize\n      sub\n      dup2\n      add\n      swap1\n      tag_24\n      swap2\n      swap1\n      tag_25\n      jump\t// in\n    tag_24:\n      tag_26\n      jump\t// in\n    tag_23:\n      mload(0x40)\n      tag_27\n      swap2\n      swap1\n      tag_28\n      jump\t// in\n    tag_27:\n      mload(0x40)\n      dup1\n      swap2\n      sub\n      swap1\n      return\n        /* \"contracts/Test.sol\":2158:2591  function getCountry(string memory countryName) public view returns(string memory name , string memory leader , uint256 population){\r... */\n    tag_6:\n      tag_29\n      0x04\n      dup1\n      calldatasize\n      sub\n      dup2\n      add\n      swap1\n      tag_30\n      swap2\n      swap1\n      tag_31\n      jump\t// in\n    tag_30:\n      tag_32\n      jump\t// in\n    tag_29:\n      mload(0x40)\n      tag_33\n      swap4\n      swap3\n      swap2\n      swap1\n      tag_18\n      jump\t// in\n    tag_33:\n      mload(0x40)\n      dup1\n      swap2\n      sub\n      swap1\n      return\n        /* \"contracts/Test.sol\":3459:3596  function getCountries2() public view returns (country[] memory allCountries){\r... */\n    tag_7:\n      tag_34\n      tag_35\n      jump\t// in\n    tag_34:\n      mload(0x40)\n      tag_36\n      swap2\n      swap1\n      tag_37\n      jump\t// in\n    tag_36:\n      mload(0x40)\n      dup1\n      swap2\n      sub\n      swap1\n      return\n        /* \"contracts/Test.sol\":2796:2900  function getTotalCountries() public view returns (uint256 length){\r... */\n    tag_8:\n      tag_38\n      tag_39\n      jump\t// in\n    tag_38:\n      mload(0x40)\n      tag_40\n      swap2\n      swap1\n      tag_22\n      jump\t// in\n    tag_40:\n      mload(0x40)\n      dup1\n      swap2\n      sub\n      swap1\n      return\n        /* \"contracts/Test.sol\":2907:3450  function getCountries() public view returns (country[] memory allCountries){\r... */\n    tag_9:\n      tag_41\n      tag_42\n      jump\t// in\n    tag_41:\n      mload(0x40)\n      tag_43\n      swap2\n      swap1\n      tag_37\n      jump\t// in\n    tag_43:\n      mload(0x40)\n      dup1\n      swap2\n      sub\n      swap1\n      return\n        /* \"contracts/Test.sol\":561:958  function insert( string memory countryName , string memory leader , uint256 population) public returns (uint256 _totalCountries){\r... */\n    tag_10:\n      tag_44\n      0x04\n      dup1\n      calldatasize\n      sub\n      dup2\n      add\n      swap1\n      tag_45\n      swap2\n      swap1\n      tag_46\n      jump\t// in\n    tag_45:\n      tag_47\n      jump\t// in\n    tag_44:\n      mload(0x40)\n      tag_48\n      swap2\n      swap1\n      tag_22\n      jump\t// in\n    tag_48:\n      mload(0x40)\n      dup1\n      swap2\n      sub\n      swap1\n      return\n        /* \"contracts/Test.sol\":1428:2141  function deleteCountry(string memory countryName) public returns(bool success){\r... */\n    tag_11:\n      tag_49\n      0x04\n      dup1\n      calldatasize\n      sub\n      dup2\n      add\n      swap1\n      tag_50\n      swap2\n      swap1\n      tag_31\n      jump\t// in\n    tag_50:\n      tag_51\n      jump\t// in\n    tag_49:\n      mload(0x40)\n      tag_52\n      swap2\n      swap1\n      tag_28\n      jump\t// in\n    tag_52:\n      mload(0x40)\n      dup1\n      swap2\n      sub\n      swap1\n      return\n        /* \"contracts/Test.sol\":225:251  country[] public countries */\n    tag_16:\n      0x00\n      dup2\n      dup2\n      sload\n      dup2\n      lt\n      tag_53\n      jumpi\n      0x00\n      dup1\n      revert\n    tag_53:\n      swap1\n      0x00\n      mstore\n      keccak256(0x00, 0x20)\n      swap1\n      0x03\n      mul\n      add\n      0x00\n      swap2\n      pop\n      swap1\n      pop\n      dup1\n      0x00\n      add\n      dup1\n      sload\n      tag_55\n      swap1\n      tag_56\n      jump\t// in\n    tag_55:\n      dup1\n      0x1f\n      add\n      0x20\n      dup1\n      swap2\n      div\n      mul\n      0x20\n      add\n      mload(0x40)\n      swap1\n      dup2\n      add\n      0x40\n      mstore\n      dup1\n      swap3\n      swap2\n      swap1\n      dup2\n      dup2\n      mstore\n      0x20\n      add\n      dup3\n      dup1\n      sload\n      tag_57\n      swap1\n      tag_56\n      jump\t// in\n    tag_57:\n      dup1\n      iszero\n      tag_58\n      jumpi\n      dup1\n      0x1f\n      lt\n      tag_59\n      jumpi\n      0x0100\n      dup1\n      dup4\n      sload\n      div\n      mul\n      dup4\n      mstore\n      swap2\n      0x20\n      add\n      swap2\n      jump(tag_58)\n    tag_59:\n      dup3\n      add\n      swap2\n      swap1\n      0x00\n      mstore\n      keccak256(0x00, 0x20)\n      swap1\n    tag_60:\n      dup2\n      sload\n      dup2\n      mstore\n      swap1\n      0x01\n      add\n      swap1\n      0x20\n      add\n      dup1\n      dup4\n      gt\n      tag_60\n      jumpi\n      dup3\n      swap1\n      sub\n      0x1f\n      and\n      dup3\n      add\n      swap2\n    tag_58:\n      pop\n      pop\n      pop\n      pop\n      pop\n      swap1\n      dup1\n      0x01\n      add\n      dup1\n      sload\n      tag_61\n      swap1\n      tag_56\n      jump\t// in\n    tag_61:\n      dup1\n      0x1f\n      add\n      0x20\n      dup1\n      swap2\n      div\n      mul\n      0x20\n      add\n      mload(0x40)\n      swap1\n      dup2\n      add\n      0x40\n      mstore\n      dup1\n      swap3\n      swap2\n      swap1\n      dup2\n      dup2\n      mstore\n      0x20\n      add\n      dup3\n      dup1\n      sload\n      tag_62\n      swap1\n      tag_56\n      jump\t// in\n    tag_62:\n      dup1\n      iszero\n      tag_63\n      jumpi\n      dup1\n      0x1f\n      lt\n      tag_64\n      jumpi\n      0x0100\n      dup1\n      dup4\n      sload\n      div\n      mul\n      dup4\n      mstore\n      swap2\n      0x20\n      add\n      swap2\n      jump(tag_63)\n    tag_64:\n      dup3\n      add\n      swap2\n      swap1\n      0x00\n      mstore\n      keccak256(0x00, 0x20)\n      swap1\n    tag_65:\n      dup2\n      sload\n      dup2\n      mstore\n      swap1\n      0x01\n      add\n      swap1\n      0x20\n      add\n      dup1\n      dup4\n      gt\n      tag_65\n      jumpi\n      dup3\n      swap1\n      sub\n      0x1f\n      and\n      dup3\n      add\n      swap2\n    tag_63:\n      pop\n      pop\n      pop\n      pop\n      pop\n      swap1\n      dup1\n      0x02\n      add\n      sload\n      swap1\n      pop\n      dup4\n      jump\t// out\n        /* \"contracts/Test.sol\":260:289  uint256 public totalCountries */\n    tag_20:\n      sload(0x01)\n      dup2\n      jump\t// out\n        /* \"contracts/Test.sol\":968:1418  function updateLeader(string memory countryName, string memory newLeader) public returns (bool success){\r... */\n    tag_26:\n        /* \"contracts/Test.sol\":1058:1070  bool success */\n      0x00\n        /* \"contracts/Test.sol\":1127:1136  uint256 i */\n      dup1\n        /* \"contracts/Test.sol\":1138:1139  0 */\n      0x00\n        /* \"contracts/Test.sol\":1127:1139  uint256 i =0 */\n      swap1\n      pop\n        /* \"contracts/Test.sol\":1123:1390  for(uint256 i =0; i< totalCountries; i++){\r... */\n    tag_67:\n        /* \"contracts/Test.sol\":1144:1158  totalCountries */\n      sload(0x01)\n        /* \"contracts/Test.sol\":1141:1142  i */\n      dup2\n        /* \"contracts/Test.sol\":1141:1158  i< totalCountries */\n      lt\n        /* \"contracts/Test.sol\":1123:1390  for(uint256 i =0; i< totalCountries; i++){\r... */\n      iszero\n      tag_68\n      jumpi\n        /* \"contracts/Test.sol\":1181:1227  compareStrings(countries[i].name ,countryName) */\n      tag_70\n        /* \"contracts/Test.sol\":1196:1205  countries */\n      0x00\n        /* \"contracts/Test.sol\":1206:1207  i */\n      dup3\n        /* \"contracts/Test.sol\":1196:1208  countries[i] */\n      dup2\n      sload\n      dup2\n      lt\n      tag_71\n      jumpi\n      tag_72\n      tag_73\n      jump\t// in\n    tag_72:\n    tag_71:\n      swap1\n      0x00\n      mstore\n      keccak256(0x00, 0x20)\n      swap1\n      0x03\n      mul\n      add\n        /* \"contracts/Test.sol\":1196:1213  countries[i].name */\n      0x00\n      add\n        /* \"contracts/Test.sol\":1181:1227  compareStrings(countries[i].name ,countryName) */\n      dup1\n      sload\n      tag_75\n      swap1\n      tag_56\n      jump\t// in\n    tag_75:\n      dup1\n      0x1f\n      add\n      0x20\n      dup1\n      swap2\n      div\n      mul\n      0x20\n      add\n      mload(0x40)\n      swap1\n      dup2\n      add\n      0x40\n      mstore\n      dup1\n      swap3\n      swap2\n      swap1\n      dup2\n      dup2\n      mstore\n      0x20\n      add\n      dup3\n      dup1\n      sload\n      tag_76\n      swap1\n      tag_56\n      jump\t// in\n    tag_76:\n      dup1\n      iszero\n      tag_77\n      jumpi\n      dup1\n      0x1f\n      lt\n      tag_78\n      jumpi\n      0x0100\n      dup1\n      dup4\n      sload\n      div\n      mul\n      dup4\n      mstore\n      swap2\n      0x20\n      add\n      swap2\n      jump(tag_77)\n    tag_78:\n      dup3\n      add\n      swap2\n      swap1\n      0x00\n      mstore\n      keccak256(0x00, 0x20)\n      swap1\n    tag_79:\n      dup2\n      sload\n      dup2\n      mstore\n      swap1\n      0x01\n      add\n      swap1\n      0x20\n      add\n      dup1\n      dup4\n      gt\n      tag_79\n      jumpi\n      dup3\n      swap1\n      sub\n      0x1f\n      and\n      dup3\n      add\n      swap2\n    tag_77:\n      pop\n      pop\n      pop\n      pop\n      pop\n        /* \"contracts/Test.sol\":1215:1226  countryName */\n      dup6\n        /* \"contracts/Test.sol\":1181:1195  compareStrings */\n      tag_80\n        /* \"contracts/Test.sol\":1181:1227  compareStrings(countries[i].name ,countryName) */\n      jump\t// in\n    tag_70:\n        /* \"contracts/Test.sol\":1178:1380  if(compareStrings(countries[i].name ,countryName)){\r... */\n      iszero\n      tag_81\n      jumpi\n        /* \"contracts/Test.sol\":1267:1276  newLeader */\n      dup3\n        /* \"contracts/Test.sol\":1245:1254  countries */\n      0x00\n        /* \"contracts/Test.sol\":1255:1256  i */\n      dup3\n        /* \"contracts/Test.sol\":1245:1257  countries[i] */\n      dup2\n      sload\n      dup2\n      lt\n      tag_82\n      jumpi\n      tag_83\n      tag_73\n      jump\t// in\n    tag_83:\n    tag_82:\n      swap1\n      0x00\n      mstore\n      keccak256(0x00, 0x20)\n      swap1\n      0x03\n      mul\n      add\n        /* \"contracts/Test.sol\":1245:1264  countries[i].leader */\n      0x01\n      add\n        /* \"contracts/Test.sol\":1245:1276  countries[i].leader = newLeader */\n      swap1\n      dup1\n      mload\n      swap1\n      0x20\n      add\n      swap1\n      tag_85\n      swap3\n      swap2\n      swap1\n      tag_86\n      jump\t// in\n    tag_85:\n      pop\n        /* \"contracts/Test.sol\":1361:1365  true */\n      0x01\n        /* \"contracts/Test.sol\":1354:1365  return true */\n      swap2\n      pop\n      pop\n      jump(tag_66)\n        /* \"contracts/Test.sol\":1178:1380  if(compareStrings(countries[i].name ,countryName)){\r... */\n    tag_81:\n        /* \"contracts/Test.sol\":1160:1163  i++ */\n      dup1\n      dup1\n      tag_87\n      swap1\n      tag_88\n      jump\t// in\n    tag_87:\n      swap2\n      pop\n      pop\n        /* \"contracts/Test.sol\":1123:1390  for(uint256 i =0; i< totalCountries; i++){\r... */\n      jump(tag_67)\n    tag_68:\n      pop\n        /* \"contracts/Test.sol\":1406:1411  false */\n      0x00\n        /* \"contracts/Test.sol\":1399:1411  return false */\n      swap1\n      pop\n        /* \"contracts/Test.sol\":968:1418  function updateLeader(string memory countryName, string memory newLeader) public returns (bool success){\r... */\n    tag_66:\n      swap3\n      swap2\n      pop\n      pop\n      jump\t// out\n        /* \"contracts/Test.sol\":2158:2591  function getCountry(string memory countryName) public view returns(string memory name , string memory leader , uint256 population){\r... */\n    tag_32:\n        /* \"contracts/Test.sol\":2225:2243  string memory name */\n      0x60\n        /* \"contracts/Test.sol\":2246:2266  string memory leader */\n      dup1\n        /* \"contracts/Test.sol\":2269:2287  uint256 population */\n      0x00\n        /* \"contracts/Test.sol\":2303:2312  uint256 i */\n      dup1\n        /* \"contracts/Test.sol\":2314:2315  0 */\n      0x00\n        /* \"contracts/Test.sol\":2303:2315  uint256 i =0 */\n      swap1\n      pop\n        /* \"contracts/Test.sol\":2299:2548  for(uint256 i =0; i< totalCountries; i++){\r... */\n    tag_90:\n        /* \"contracts/Test.sol\":2320:2334  totalCountries */\n      sload(0x01)\n        /* \"contracts/Test.sol\":2317:2318  i */\n      dup2\n        /* \"contracts/Test.sol\":2317:2334  i< totalCountries */\n      lt\n        /* \"contracts/Test.sol\":2299:2548  for(uint256 i =0; i< totalCountries; i++){\r... */\n      iszero\n      tag_91\n      jumpi\n        /* \"contracts/Test.sol\":2357:2403  compareStrings(countries[i].name, countryName) */\n      tag_93\n        /* \"contracts/Test.sol\":2372:2381  countries */\n      0x00\n        /* \"contracts/Test.sol\":2382:2383  i */\n      dup3\n        /* \"contracts/Test.sol\":2372:2384  countries[i] */\n      dup2\n      sload\n      dup2\n      lt\n      tag_94\n      jumpi\n      tag_95\n      tag_73\n      jump\t// in\n    tag_95:\n    tag_94:\n      swap1\n      0x00\n      mstore\n      keccak256(0x00, 0x20)\n      swap1\n      0x03\n      mul\n      add\n        /* \"contracts/Test.sol\":2372:2389  countries[i].name */\n      0x00\n      add\n        /* \"contracts/Test.sol\":2357:2403  compareStrings(countries[i].name, countryName) */\n      dup1\n      sload\n      tag_97\n      swap1\n      tag_56\n      jump\t// in\n    tag_97:\n      dup1\n      0x1f\n      add\n      0x20\n      dup1\n      swap2\n      div\n      mul\n      0x20\n      add\n      mload(0x40)\n      swap1\n      dup2\n      add\n      0x40\n      mstore\n      dup1\n      swap3\n      swap2\n      swap1\n      dup2\n      dup2\n      mstore\n      0x20\n      add\n      dup3\n      dup1\n      sload\n      tag_98\n      swap1\n      tag_56\n      jump\t// in\n    tag_98:\n      dup1\n      iszero\n      tag_99\n      jumpi\n      dup1\n      0x1f\n      lt\n      tag_100\n      jumpi\n      0x0100\n      dup1\n      dup4\n      sload\n      div\n      mul\n      dup4\n      mstore\n      swap2\n      0x20\n      add\n      swap2\n      jump(tag_99)\n    tag_100:\n      dup3\n      add\n      swap2\n      swap1\n      0x00\n      mstore\n      keccak256(0x00, 0x20)\n      swap1\n    tag_101:\n      dup2\n      sload\n      dup2\n      mstore\n      swap1\n      0x01\n      add\n      swap1\n      0x20\n      add\n      dup1\n      dup4\n      gt\n      tag_101\n      jumpi\n      dup3\n      swap1\n      sub\n      0x1f\n      and\n      dup3\n      add\n      swap2\n    tag_99:\n      pop\n      pop\n      pop\n      pop\n      pop\n        /* \"contracts/Test.sol\":2391:2402  countryName */\n      dup7\n        /* \"contracts/Test.sol\":2357:2371  compareStrings */\n      tag_80\n        /* \"contracts/Test.sol\":2357:2403  compareStrings(countries[i].name, countryName) */\n      jump\t// in\n    tag_93:\n        /* \"contracts/Test.sol\":2354:2538  if(compareStrings(countries[i].name, countryName)){\r... */\n      iszero\n      tag_102\n      jumpi\n        /* \"contracts/Test.sol\":2457:2466  countries */\n      0x00\n        /* \"contracts/Test.sol\":2467:2468  i */\n      dup2\n        /* \"contracts/Test.sol\":2457:2469  countries[i] */\n      dup2\n      sload\n      dup2\n      lt\n      tag_103\n      jumpi\n      tag_104\n      tag_73\n      jump\t// in\n    tag_104:\n    tag_103:\n      swap1\n      0x00\n      mstore\n      keccak256(0x00, 0x20)\n      swap1\n      0x03\n      mul\n      add\n        /* \"contracts/Test.sol\":2457:2474  countries[i].name */\n      0x00\n      add\n        /* \"contracts/Test.sol\":2477:2486  countries */\n      0x00\n        /* \"contracts/Test.sol\":2487:2488  i */\n      dup3\n        /* \"contracts/Test.sol\":2477:2489  countries[i] */\n      dup2\n      sload\n      dup2\n      lt\n      tag_106\n      jumpi\n      tag_107\n      tag_73\n      jump\t// in\n    tag_107:\n    tag_106:\n      swap1\n      0x00\n      mstore\n      keccak256(0x00, 0x20)\n      swap1\n      0x03\n      mul\n      add\n        /* \"contracts/Test.sol\":2477:2496  countries[i].leader */\n      0x01\n      add\n        /* \"contracts/Test.sol\":2499:2508  countries */\n      0x00\n        /* \"contracts/Test.sol\":2509:2510  i */\n      dup4\n        /* \"contracts/Test.sol\":2499:2511  countries[i] */\n      dup2\n      sload\n      dup2\n      lt\n      tag_109\n      jumpi\n      tag_110\n      tag_73\n      jump\t// in\n    tag_110:\n    tag_109:\n      swap1\n      0x00\n      mstore\n      keccak256(0x00, 0x20)\n      swap1\n      0x03\n      mul\n      add\n        /* \"contracts/Test.sol\":2499:2522  countries[i].population */\n      0x02\n      add\n      sload\n        /* \"contracts/Test.sol\":2449:2523  return (countries[i].name , countries[i].leader , countries[i].population) */\n      dup3\n      dup1\n      sload\n      tag_112\n      swap1\n      tag_56\n      jump\t// in\n    tag_112:\n      dup1\n      0x1f\n      add\n      0x20\n      dup1\n      swap2\n      div\n      mul\n      0x20\n      add\n      mload(0x40)\n      swap1\n      dup2\n      add\n      0x40\n      mstore\n      dup1\n      swap3\n      swap2\n      swap1\n      dup2\n      dup2\n      mstore\n      0x20\n      add\n      dup3\n      dup1\n      sload\n      tag_113\n      swap1\n      tag_56\n      jump\t// in\n    tag_113:\n      dup1\n      iszero\n      tag_114\n      jumpi\n      dup1\n      0x1f\n      lt\n      tag_115\n      jumpi\n      0x0100\n      dup1\n      dup4\n      sload\n      div\n      mul\n      dup4\n      mstore\n      swap2\n      0x20\n      add\n      swap2\n      jump(tag_114)\n    tag_115:\n      dup3\n      add\n      swap2\n      swap1\n      0x00\n      mstore\n      keccak256(0x00, 0x20)\n      swap1\n    tag_116:\n      dup2\n      sload\n      dup2\n      mstore\n      swap1\n      0x01\n      add\n      swap1\n      0x20\n      add\n      dup1\n      dup4\n      gt\n      tag_116\n      jumpi\n      dup3\n      swap1\n      sub\n      0x1f\n      and\n      dup3\n      add\n      swap2\n    tag_114:\n      pop\n      pop\n      pop\n      pop\n      pop\n      swap3\n      pop\n      dup2\n      dup1\n      sload\n      tag_117\n      swap1\n      tag_56\n      jump\t// in\n    tag_117:\n      dup1\n      0x1f\n      add\n      0x20\n      dup1\n      swap2\n      div\n      mul\n      0x20\n      add\n      mload(0x40)\n      swap1\n      dup2\n      add\n      0x40\n      mstore\n      dup1\n      swap3\n      swap2\n      swap1\n      dup2\n      dup2\n      mstore\n      0x20\n      add\n      dup3\n      dup1\n      sload\n      tag_118\n      swap1\n      tag_56\n      jump\t// in\n    tag_118:\n      dup1\n      iszero\n      tag_119\n      jumpi\n      dup1\n      0x1f\n      lt\n      tag_120\n      jumpi\n      0x0100\n      dup1\n      dup4\n      sload\n      div\n      mul\n      dup4\n      mstore\n      swap2\n      0x20\n      add\n      swap2\n      jump(tag_119)\n    tag_120:\n      dup3\n      add\n      swap2\n      swap1\n      0x00\n      mstore\n      keccak256(0x00, 0x20)\n      swap1\n    tag_121:\n      dup2\n      sload\n      dup2\n      mstore\n      swap1\n      0x01\n      add\n      swap1\n      0x20\n      add\n      dup1\n      dup4\n      gt\n      tag_121\n      jumpi\n      dup3\n      swap1\n      sub\n      0x1f\n      and\n      dup3\n      add\n      swap2\n    tag_119:\n      pop\n      pop\n      pop\n      pop\n      pop\n      swap2\n      pop\n      swap4\n      pop\n      swap4\n      pop\n      swap4\n      pop\n      pop\n      jump(tag_89)\n        /* \"contracts/Test.sol\":2354:2538  if(compareStrings(countries[i].name, countryName)){\r... */\n    tag_102:\n        /* \"contracts/Test.sol\":2336:2339  i++ */\n      dup1\n      dup1\n      tag_122\n      swap1\n      tag_88\n      jump\t// in\n    tag_122:\n      swap2\n      pop\n      pop\n        /* \"contracts/Test.sol\":2299:2548  for(uint256 i =0; i< totalCountries; i++){\r... */\n      jump(tag_90)\n    tag_91:\n      pop\n        /* \"contracts/Test.sol\":2557:2584  revert('country not found') */\n      mload(0x40)\n      0x08c379a000000000000000000000000000000000000000000000000000000000\n      dup2\n      mstore\n      0x04\n      add\n      tag_123\n      swap1\n      tag_124\n      jump\t// in\n    tag_123:\n      mload(0x40)\n      dup1\n      swap2\n      sub\n      swap1\n      revert\n        /* \"contracts/Test.sol\":2158:2591  function getCountry(string memory countryName) public view returns(string memory name , string memory leader , uint256 population){\r... */\n    tag_89:\n      swap2\n      swap4\n      swap1\n      swap3\n      pop\n      jump\t// out\n        /* \"contracts/Test.sol\":3459:3596  function getCountries2() public view returns (country[] memory allCountries){\r... */\n    tag_35:\n        /* \"contracts/Test.sol\":3505:3534  country[] memory allCountries */\n      0x60\n        /* \"contracts/Test.sol\":3580:3589  countries */\n      0x00\n        /* \"contracts/Test.sol\":3573:3589  return countries */\n      dup1\n      sload\n      dup1\n      0x20\n      mul\n      0x20\n      add\n      mload(0x40)\n      swap1\n      dup2\n      add\n      0x40\n      mstore\n      dup1\n      swap3\n      swap2\n      swap1\n      dup2\n      dup2\n      mstore\n      0x20\n      add\n      0x00\n      swap1\n    tag_126:\n      dup3\n      dup3\n      lt\n      iszero\n      tag_127\n      jumpi\n      dup4\n      dup3\n      swap1\n      0x00\n      mstore\n      keccak256(0x00, 0x20)\n      swap1\n      0x03\n      mul\n      add\n      mload(0x40)\n      dup1\n      0x60\n      add\n      0x40\n      mstore\n      swap1\n      dup2\n      0x00\n      dup3\n      add\n      dup1\n      sload\n      tag_129\n      swap1\n      tag_56\n      jump\t// in\n    tag_129:\n      dup1\n      0x1f\n      add\n      0x20\n      dup1\n      swap2\n      div\n      mul\n      0x20\n      add\n      mload(0x40)\n      swap1\n      dup2\n      add\n      0x40\n      mstore\n      dup1\n      swap3\n      swap2\n      swap1\n      dup2\n      dup2\n      mstore\n      0x20\n      add\n      dup3\n      dup1\n      sload\n      tag_130\n      swap1\n      tag_56\n      jump\t// in\n    tag_130:\n      dup1\n      iszero\n      tag_131\n      jumpi\n      dup1\n      0x1f\n      lt\n      tag_132\n      jumpi\n      0x0100\n      dup1\n      dup4\n      sload\n      div\n      mul\n      dup4\n      mstore\n      swap2\n      0x20\n      add\n      swap2\n      jump(tag_131)\n    tag_132:\n      dup3\n      add\n      swap2\n      swap1\n      0x00\n      mstore\n      keccak256(0x00, 0x20)\n      swap1\n    tag_133:\n      dup2\n      sload\n      dup2\n      mstore\n      swap1\n      0x01\n      add\n      swap1\n      0x20\n      add\n      dup1\n      dup4\n      gt\n      tag_133\n      jumpi\n      dup3\n      swap1\n      sub\n      0x1f\n      and\n      dup3\n      add\n      swap2\n    tag_131:\n      pop\n      pop\n      pop\n      pop\n      pop\n      dup2\n      mstore\n      0x20\n      add\n      0x01\n      dup3\n      add\n      dup1\n      sload\n      tag_134\n      swap1\n      tag_56\n      jump\t// in\n    tag_134:\n      dup1\n      0x1f\n      add\n      0x20\n      dup1\n      swap2\n      div\n      mul\n      0x20\n      add\n      mload(0x40)\n      swap1\n      dup2\n      add\n      0x40\n      mstore\n      dup1\n      swap3\n      swap2\n      swap1\n      dup2\n      dup2\n      mstore\n      0x20\n      add\n      dup3\n      dup1\n      sload\n      tag_135\n      swap1\n      tag_56\n      jump\t// in\n    tag_135:\n      dup1\n      iszero\n      tag_136\n      jumpi\n      dup1\n      0x1f\n      lt\n      tag_137\n      jumpi\n      0x0100\n      dup1\n      dup4\n      sload\n      div\n      mul\n      dup4\n      mstore\n      swap2\n      0x20\n      add\n      swap2\n      jump(tag_136)\n    tag_137:\n      dup3\n      add\n      swap2\n      swap1\n      0x00\n      mstore\n      keccak256(0x00, 0x20)\n      swap1\n    tag_138:\n      dup2\n      sload\n      dup2\n      mstore\n      swap1\n      0x01\n      add\n      swap1\n      0x20\n      add\n      dup1\n      dup4\n      gt\n      tag_138\n      jumpi\n      dup3\n      swap1\n      sub\n      0x1f\n      and\n      dup3\n      add\n      swap2\n    tag_136:\n      pop\n      pop\n      pop\n      pop\n      pop\n      dup2\n      mstore\n      0x20\n      add\n      0x02\n      dup3\n      add\n      sload\n      dup2\n      mstore\n      pop\n      pop\n      dup2\n      mstore\n      0x20\n      add\n      swap1\n      0x01\n      add\n      swap1\n      jump(tag_126)\n    tag_127:\n      pop\n      pop\n      pop\n      pop\n      swap1\n      pop\n        /* \"contracts/Test.sol\":3459:3596  function getCountries2() public view returns (country[] memory allCountries){\r... */\n      swap1\n      jump\t// out\n        /* \"contracts/Test.sol\":2796:2900  function getTotalCountries() public view returns (uint256 length){\r... */\n    tag_39:\n        /* \"contracts/Test.sol\":2846:2860  uint256 length */\n      0x00\n        /* \"contracts/Test.sol\":2877:2886  countries */\n      dup1\n        /* \"contracts/Test.sol\":2877:2893  countries.length */\n      dup1\n      sload\n      swap1\n      pop\n        /* \"contracts/Test.sol\":2870:2893  return countries.length */\n      swap1\n      pop\n        /* \"contracts/Test.sol\":2796:2900  function getTotalCountries() public view returns (uint256 length){\r... */\n      swap1\n      jump\t// out\n        /* \"contracts/Test.sol\":2907:3450  function getCountries() public view returns (country[] memory allCountries){\r... */\n    tag_42:\n        /* \"contracts/Test.sol\":2952:2981  country[] memory allCountries */\n      0x60\n        /* \"contracts/Test.sol\":3017:3046  country[] memory CountriesArr */\n      0x00\n        /* \"contracts/Test.sol\":3063:3077  totalCountries */\n      sload(0x01)\n        /* \"contracts/Test.sol\":3049:3078  new country[](totalCountries) */\n      0xffffffffffffffff\n      dup2\n      gt\n      iszero\n      tag_141\n      jumpi\n      tag_142\n      tag_143\n      jump\t// in\n    tag_142:\n    tag_141:\n      mload(0x40)\n      swap1\n      dup1\n      dup3\n      mstore\n      dup1\n      0x20\n      mul\n      0x20\n      add\n      dup3\n      add\n      0x40\n      mstore\n      dup1\n      iszero\n      tag_144\n      jumpi\n      dup2\n      0x20\n      add\n    tag_145:\n      tag_146\n      tag_147\n      jump\t// in\n    tag_146:\n      dup2\n      mstore\n      0x20\n      add\n      swap1\n      0x01\n      swap1\n      sub\n      swap1\n      dup2\n      tag_145\n      jumpi\n      swap1\n      pop\n    tag_144:\n      pop\n        /* \"contracts/Test.sol\":3017:3078  country[] memory CountriesArr = new country[](totalCountries) */\n      swap1\n      pop\n        /* \"contracts/Test.sol\":3094:3100  uint i */\n      0x00\n        /* \"contracts/Test.sol\":3089:3384  for (uint i = 0; i < totalCountries; i++) {\r... */\n    tag_148:\n        /* \"contracts/Test.sol\":3110:3124  totalCountries */\n      sload(0x01)\n        /* \"contracts/Test.sol\":3106:3107  i */\n      dup2\n        /* \"contracts/Test.sol\":3106:3124  i < totalCountries */\n      lt\n        /* \"contracts/Test.sol\":3089:3384  for (uint i = 0; i < totalCountries; i++) {\r... */\n      iszero\n      tag_149\n      jumpi\n        /* \"contracts/Test.sol\":3360:3369  countries */\n      0x00\n        /* \"contracts/Test.sol\":3370:3371  i */\n      dup2\n        /* \"contracts/Test.sol\":3360:3372  countries[i] */\n      dup2\n      sload\n      dup2\n      lt\n      tag_151\n      jumpi\n      tag_152\n      tag_73\n      jump\t// in\n    tag_152:\n    tag_151:\n      swap1\n      0x00\n      mstore\n      keccak256(0x00, 0x20)\n      swap1\n      0x03\n      mul\n      add\n        /* \"contracts/Test.sol\":3342:3372  CountriesArr[i] = countries[i] */\n      mload(0x40)\n      dup1\n      0x60\n      add\n      0x40\n      mstore\n      swap1\n      dup2\n      0x00\n      dup3\n      add\n      dup1\n      sload\n      tag_154\n      swap1\n      tag_56\n      jump\t// in\n    tag_154:\n      dup1\n      0x1f\n      add\n      0x20\n      dup1\n      swap2\n      div\n      mul\n      0x20\n      add\n      mload(0x40)\n      swap1\n      dup2\n      add\n      0x40\n      mstore\n      dup1\n      swap3\n      swap2\n      swap1\n      dup2\n      dup2\n      mstore\n      0x20\n      add\n      dup3\n      dup1\n      sload\n      tag_155\n      swap1\n      tag_56\n      jump\t// in\n    tag_155:\n      dup1\n      iszero\n      tag_156\n      jumpi\n      dup1\n      0x1f\n      lt\n      tag_157\n      jumpi\n      0x0100\n      dup1\n      dup4\n      sload\n      div\n      mul\n      dup4\n      mstore\n      swap2\n      0x20\n      add\n      swap2\n      jump(tag_156)\n    tag_157:\n      dup3\n      add\n      swap2\n      swap1\n      0x00\n      mstore\n      keccak256(0x00, 0x20)\n      swap1\n    tag_158:\n      dup2\n      sload\n      dup2\n      mstore\n      swap1\n      0x01\n      add\n      swap1\n      0x20\n      add\n      dup1\n      dup4\n      gt\n      tag_158\n      jumpi\n      dup3\n      swap1\n      sub\n      0x1f\n      and\n      dup3\n      add\n      swap2\n    tag_156:\n      pop\n      pop\n      pop\n      pop\n      pop\n      dup2\n      mstore\n      0x20\n      add\n      0x01\n      dup3\n      add\n      dup1\n      sload\n      tag_159\n      swap1\n      tag_56\n      jump\t// in\n    tag_159:\n      dup1\n      0x1f\n      add\n      0x20\n      dup1\n      swap2\n      div\n      mul\n      0x20\n      add\n      mload(0x40)\n      swap1\n      dup2\n      add\n      0x40\n      mstore\n      dup1\n      swap3\n      swap2\n      swap1\n      dup2\n      dup2\n      mstore\n      0x20\n      add\n      dup3\n      dup1\n      sload\n      tag_160\n      swap1\n      tag_56\n      jump\t// in\n    tag_160:\n      dup1\n      iszero\n      tag_161\n      jumpi\n      dup1\n      0x1f\n      lt\n      tag_162\n      jumpi\n      0x0100\n      dup1\n      dup4\n      sload\n      div\n      mul\n      dup4\n      mstore\n      swap2\n      0x20\n      add\n      swap2\n      jump(tag_161)\n    tag_162:\n      dup3\n      add\n      swap2\n      swap1\n      0x00\n      mstore\n      keccak256(0x00, 0x20)\n      swap1\n    tag_163:\n      dup2\n      sload\n      dup2\n      mstore\n      swap1\n      0x01\n      add\n      swap1\n      0x20\n      add\n      dup1\n      dup4\n      gt\n      tag_163\n      jumpi\n      dup3\n      swap1\n      sub\n      0x1f\n      and\n      dup3\n      add\n      swap2\n    tag_161:\n      pop\n      pop\n      pop\n      pop\n      pop\n      dup2\n      mstore\n      0x20\n      add\n      0x02\n      dup3\n      add\n      sload\n      dup2\n      mstore\n      pop\n      pop\n        /* \"contracts/Test.sol\":3342:3354  CountriesArr */\n      dup3\n        /* \"contracts/Test.sol\":3355:3356  i */\n      dup3\n        /* \"contracts/Test.sol\":3342:3357  CountriesArr[i] */\n      dup2\n      mload\n      dup2\n      lt\n      tag_164\n      jumpi\n      tag_165\n      tag_73\n      jump\t// in\n    tag_165:\n    tag_164:\n      0x20\n      mul\n      0x20\n      add\n      add\n        /* \"contracts/Test.sol\":3342:3372  CountriesArr[i] = countries[i] */\n      dup2\n      swap1\n      mstore\n      pop\n        /* \"contracts/Test.sol\":3126:3129  i++ */\n      dup1\n      dup1\n      tag_166\n      swap1\n      tag_88\n      jump\t// in\n    tag_166:\n      swap2\n      pop\n      pop\n        /* \"contracts/Test.sol\":3089:3384  for (uint i = 0; i < totalCountries; i++) {\r... */\n      jump(tag_148)\n    tag_149:\n      pop\n        /* \"contracts/Test.sol\":3401:3413  CountriesArr */\n      dup1\n        /* \"contracts/Test.sol\":3394:3413  return CountriesArr */\n      swap2\n      pop\n      pop\n        /* \"contracts/Test.sol\":2907:3450  function getCountries() public view returns (country[] memory allCountries){\r... */\n      swap1\n      jump\t// out\n        /* \"contracts/Test.sol\":561:958  function insert( string memory countryName , string memory leader , uint256 population) public returns (uint256 _totalCountries){\r... */\n    tag_47:\n        /* \"contracts/Test.sol\":665:688  uint256 _totalCountries */\n      0x00\n        /* \"contracts/Test.sol\":700:725  country memory newCountry */\n      dup1\n        /* \"contracts/Test.sol\":728:769  country(countryName , leader, population) */\n      mload(0x40)\n      dup1\n      0x60\n      add\n      0x40\n      mstore\n      dup1\n        /* \"contracts/Test.sol\":736:747  countryName */\n      dup7\n        /* \"contracts/Test.sol\":728:769  country(countryName , leader, population) */\n      dup2\n      mstore\n      0x20\n      add\n        /* \"contracts/Test.sol\":750:756  leader */\n      dup6\n        /* \"contracts/Test.sol\":728:769  country(countryName , leader, population) */\n      dup2\n      mstore\n      0x20\n      add\n        /* \"contracts/Test.sol\":758:768  population */\n      dup5\n        /* \"contracts/Test.sol\":728:769  country(countryName , leader, population) */\n      dup2\n      mstore\n      pop\n        /* \"contracts/Test.sol\":700:769  country memory newCountry = country(countryName , leader, population) */\n      swap1\n      pop\n        /* \"contracts/Test.sol\":780:789  countries */\n      0x00\n        /* \"contracts/Test.sol\":795:805  newCountry */\n      dup2\n        /* \"contracts/Test.sol\":780:806  countries.push(newCountry) */\n      swap1\n      dup1\n      0x01\n      dup2\n      sload\n      add\n      dup1\n      dup3\n      sstore\n      dup1\n      swap2\n      pop\n      pop\n      0x01\n      swap1\n      sub\n      swap1\n      0x00\n      mstore\n      keccak256(0x00, 0x20)\n      swap1\n      0x03\n      mul\n      add\n      0x00\n      swap1\n      swap2\n      swap1\n      swap2\n      swap1\n      swap2\n      pop\n      0x00\n      dup3\n      add\n      mload\n      dup2\n      0x00\n      add\n      swap1\n      dup1\n      mload\n      swap1\n      0x20\n      add\n      swap1\n      tag_169\n      swap3\n      swap2\n      swap1\n      tag_86\n      jump\t// in\n    tag_169:\n      pop\n      0x20\n      dup3\n      add\n      mload\n      dup2\n      0x01\n      add\n      swap1\n      dup1\n      mload\n      swap1\n      0x20\n      add\n      swap1\n      tag_170\n      swap3\n      swap2\n      swap1\n      tag_86\n      jump\t// in\n    tag_170:\n      pop\n      0x40\n      dup3\n      add\n      mload\n      dup2\n      0x02\n      add\n      sstore\n      pop\n      pop\n        /* \"contracts/Test.sol\":817:831  totalCountries */\n      0x01\n      0x00\n        /* \"contracts/Test.sol\":817:833  totalCountries++ */\n      dup2\n      sload\n      dup1\n      swap3\n      swap2\n      swap1\n      tag_171\n      swap1\n      tag_88\n      jump\t// in\n    tag_171:\n      swap2\n      swap1\n      pop\n      sstore\n      pop\n        /* \"contracts/Test.sol\":937:951  totalCountries */\n      sload(0x01)\n        /* \"contracts/Test.sol\":930:951  return totalCountries */\n      swap2\n      pop\n      pop\n        /* \"contracts/Test.sol\":561:958  function insert( string memory countryName , string memory leader , uint256 population) public returns (uint256 _totalCountries){\r... */\n      swap4\n      swap3\n      pop\n      pop\n      pop\n      jump\t// out\n        /* \"contracts/Test.sol\":1428:2141  function deleteCountry(string memory countryName) public returns(bool success){\r... */\n    tag_51:\n        /* \"contracts/Test.sol\":1493:1505  bool success */\n      0x00\n        /* \"contracts/Test.sol\":1542:1543  0 */\n      dup1\n        /* \"contracts/Test.sol\":1525:1539  totalCountries */\n      sload(0x01)\n        /* \"contracts/Test.sol\":1525:1543  totalCountries > 0 */\n      gt\n        /* \"contracts/Test.sol\":1517:1544  require(totalCountries > 0) */\n      tag_173\n      jumpi\n      0x00\n      dup1\n      revert\n    tag_173:\n        /* \"contracts/Test.sol\":1559:1568  uint256 i */\n      0x00\n        /* \"contracts/Test.sol\":1555:2113  for(uint256 i =0; i< totalCountries; i++){\r... */\n    tag_174:\n        /* \"contracts/Test.sol\":1576:1590  totalCountries */\n      sload(0x01)\n        /* \"contracts/Test.sol\":1573:1574  i */\n      dup2\n        /* \"contracts/Test.sol\":1573:1590  i< totalCountries */\n      lt\n        /* \"contracts/Test.sol\":1555:2113  for(uint256 i =0; i< totalCountries; i++){\r... */\n      iszero\n      tag_175\n      jumpi\n        /* \"contracts/Test.sol\":1613:1660  compareStrings(countries[i].name , countryName) */\n      tag_177\n        /* \"contracts/Test.sol\":1628:1637  countries */\n      0x00\n        /* \"contracts/Test.sol\":1638:1639  i */\n      dup3\n        /* \"contracts/Test.sol\":1628:1640  countries[i] */\n      dup2\n      sload\n      dup2\n      lt\n      tag_178\n      jumpi\n      tag_179\n      tag_73\n      jump\t// in\n    tag_179:\n    tag_178:\n      swap1\n      0x00\n      mstore\n      keccak256(0x00, 0x20)\n      swap1\n      0x03\n      mul\n      add\n        /* \"contracts/Test.sol\":1628:1645  countries[i].name */\n      0x00\n      add\n        /* \"contracts/Test.sol\":1613:1660  compareStrings(countries[i].name , countryName) */\n      dup1\n      sload\n      tag_181\n      swap1\n      tag_56\n      jump\t// in\n    tag_181:\n      dup1\n      0x1f\n      add\n      0x20\n      dup1\n      swap2\n      div\n      mul\n      0x20\n      add\n      mload(0x40)\n      swap1\n      dup2\n      add\n      0x40\n      mstore\n      dup1\n      swap3\n      swap2\n      swap1\n      dup2\n      dup2\n      mstore\n      0x20\n      add\n      dup3\n      dup1\n      sload\n      tag_182\n      swap1\n      tag_56\n      jump\t// in\n    tag_182:\n      dup1\n      iszero\n      tag_183\n      jumpi\n      dup1\n      0x1f\n      lt\n      tag_184\n      jumpi\n      0x0100\n      dup1\n      dup4\n      sload\n      div\n      mul\n      dup4\n      mstore\n      swap2\n      0x20\n      add\n      swap2\n      jump(tag_183)\n    tag_184:\n      dup3\n      add\n      swap2\n      swap1\n      0x00\n      mstore\n      keccak256(0x00, 0x20)\n      swap1\n    tag_185:\n      dup2\n      sload\n      dup2\n      mstore\n      swap1\n      0x01\n      add\n      swap1\n      0x20\n      add\n      dup1\n      dup4\n      gt\n      tag_185\n      jumpi\n      dup3\n      swap1\n      sub\n      0x1f\n      and\n      dup3\n      add\n      swap2\n    tag_183:\n      pop\n      pop\n      pop\n      pop\n      pop\n        /* \"contracts/Test.sol\":1648:1659  countryName */\n      dup5\n        /* \"contracts/Test.sol\":1613:1627  compareStrings */\n      tag_80\n        /* \"contracts/Test.sol\":1613:1660  compareStrings(countries[i].name , countryName) */\n      jump\t// in\n    tag_177:\n        /* \"contracts/Test.sol\":1610:2103  if(compareStrings(countries[i].name , countryName)){\r... */\n      iszero\n      tag_186\n      jumpi\n        /* \"contracts/Test.sol\":1693:1702  countries */\n      0x00\n        /* \"contracts/Test.sol\":1718:1719  1 */\n      0x01\n        /* \"contracts/Test.sol\":1703:1717  totalCountries */\n      dup1\n      sload\n        /* \"contracts/Test.sol\":1703:1719  totalCountries-1 */\n      tag_187\n      swap2\n      swap1\n      tag_188\n      jump\t// in\n    tag_187:\n        /* \"contracts/Test.sol\":1693:1720  countries[totalCountries-1] */\n      dup2\n      sload\n      dup2\n      lt\n      tag_189\n      jumpi\n      tag_190\n      tag_73\n      jump\t// in\n    tag_190:\n    tag_189:\n      swap1\n      0x00\n      mstore\n      keccak256(0x00, 0x20)\n      swap1\n      0x03\n      mul\n      add\n        /* \"contracts/Test.sol\":1678:1687  countries */\n      0x00\n        /* \"contracts/Test.sol\":1688:1689  i */\n      dup3\n        /* \"contracts/Test.sol\":1678:1690  countries[i] */\n      dup2\n      sload\n      dup2\n      lt\n      tag_192\n      jumpi\n      tag_193\n      tag_73\n      jump\t// in\n    tag_193:\n    tag_192:\n      swap1\n      0x00\n      mstore\n      keccak256(0x00, 0x20)\n      swap1\n      0x03\n      mul\n      add\n        /* \"contracts/Test.sol\":1678:1720  countries[i] = countries[totalCountries-1] */\n      0x00\n      dup3\n      add\n      dup2\n      0x00\n      add\n      swap1\n      dup1\n      sload\n      tag_195\n      swap1\n      tag_56\n      jump\t// in\n    tag_195:\n      tag_196\n      swap3\n      swap2\n      swap1\n      tag_197\n      jump\t// in\n    tag_196:\n      pop\n      0x01\n      dup3\n      add\n      dup2\n      0x01\n      add\n      swap1\n      dup1\n      sload\n      tag_198\n      swap1\n      tag_56\n      jump\t// in\n    tag_198:\n      tag_199\n      swap3\n      swap2\n      swap1\n      tag_197\n      jump\t// in\n    tag_199:\n      pop\n      0x02\n      dup3\n      add\n      sload\n      dup2\n      0x02\n      add\n      sstore\n      swap1\n      pop\n      pop\n        /* \"contracts/Test.sol\":1808:1817  countries */\n      0x00\n        /* \"contracts/Test.sol\":1833:1834  1 */\n      0x01\n        /* \"contracts/Test.sol\":1818:1832  totalCountries */\n      dup1\n      sload\n        /* \"contracts/Test.sol\":1818:1834  totalCountries-1 */\n      tag_200\n      swap2\n      swap1\n      tag_188\n      jump\t// in\n    tag_200:\n        /* \"contracts/Test.sol\":1808:1835  countries[totalCountries-1] */\n      dup2\n      sload\n      dup2\n      lt\n      tag_201\n      jumpi\n      tag_202\n      tag_73\n      jump\t// in\n    tag_202:\n    tag_201:\n      swap1\n      0x00\n      mstore\n      keccak256(0x00, 0x20)\n      swap1\n      0x03\n      mul\n      add\n      0x00\n        /* \"contracts/Test.sol\":1801:1835  delete countries[totalCountries-1] */\n      dup1\n      dup3\n      add\n      0x00\n      tag_204\n      swap2\n      swap1\n      tag_205\n      jump\t// in\n    tag_204:\n      0x01\n      dup3\n      add\n      0x00\n      tag_206\n      swap2\n      swap1\n      tag_205\n      jump\t// in\n    tag_206:\n      0x02\n      dup3\n      add\n      0x00\n      swap1\n      sstore\n      pop\n      pop\n        /* \"contracts/Test.sol\":1880:1894  totalCountries */\n      0x01\n      0x00\n        /* \"contracts/Test.sol\":1880:1896  totalCountries-- */\n      dup2\n      sload\n      dup1\n      swap3\n      swap2\n      swap1\n      tag_207\n      swap1\n      tag_208\n      jump\t// in\n    tag_207:\n      swap2\n      swap1\n      pop\n      sstore\n      pop\n        /* \"contracts/Test.sol\":2084:2088  true */\n      0x01\n        /* \"contracts/Test.sol\":2077:2088  return true */\n      swap2\n      pop\n      pop\n      jump(tag_172)\n        /* \"contracts/Test.sol\":1610:2103  if(compareStrings(countries[i].name , countryName)){\r... */\n    tag_186:\n        /* \"contracts/Test.sol\":1592:1595  i++ */\n      dup1\n      dup1\n      tag_209\n      swap1\n      tag_88\n      jump\t// in\n    tag_209:\n      swap2\n      pop\n      pop\n        /* \"contracts/Test.sol\":1555:2113  for(uint256 i =0; i< totalCountries; i++){\r... */\n      jump(tag_174)\n    tag_175:\n      pop\n        /* \"contracts/Test.sol\":2129:2134  false */\n      0x00\n        /* \"contracts/Test.sol\":2122:2134  return false */\n      swap1\n      pop\n        /* \"contracts/Test.sol\":1428:2141  function deleteCountry(string memory countryName) public returns(bool success){\r... */\n    tag_172:\n      swap2\n      swap1\n      pop\n      jump\t// out\n        /* \"contracts/Test.sol\":2605:2781  function compareStrings (string memory a, string memory b)  internal pure returns (bool){\r... */\n    tag_80:\n        /* \"contracts/Test.sol\":2688:2692  bool */\n      0x00\n        /* \"contracts/Test.sol\":2771:2772  b */\n      dup2\n        /* \"contracts/Test.sol\":2754:2773  abi.encodePacked(b) */\n      add(0x20, mload(0x40))\n      tag_211\n      swap2\n      swap1\n      tag_212\n      jump\t// in\n    tag_211:\n      mload(0x40)\n      0x20\n      dup2\n      dup4\n      sub\n      sub\n      dup2\n      mstore\n      swap1\n      0x40\n      mstore\n        /* \"contracts/Test.sol\":2744:2774  keccak256(abi.encodePacked(b)) */\n      dup1\n      mload\n      swap1\n      0x20\n      add\n      keccak256\n        /* \"contracts/Test.sol\":2737:2738  a */\n      dup4\n        /* \"contracts/Test.sol\":2720:2739  abi.encodePacked(a) */\n      add(0x20, mload(0x40))\n      tag_213\n      swap2\n      swap1\n      tag_212\n      jump\t// in\n    tag_213:\n      mload(0x40)\n      0x20\n      dup2\n      dup4\n      sub\n      sub\n      dup2\n      mstore\n      swap1\n      0x40\n      mstore\n        /* \"contracts/Test.sol\":2710:2740  keccak256(abi.encodePacked(a)) */\n      dup1\n      mload\n      swap1\n      0x20\n      add\n      keccak256\n        /* \"contracts/Test.sol\":2710:2774  keccak256(abi.encodePacked(a)) == keccak256(abi.encodePacked(b)) */\n      eq\n        /* \"contracts/Test.sol\":2703:2774  return keccak256(abi.encodePacked(a)) == keccak256(abi.encodePacked(b)) */\n      swap1\n      pop\n        /* \"contracts/Test.sol\":2605:2781  function compareStrings (string memory a, string memory b)  internal pure returns (bool){\r... */\n      swap3\n      swap2\n      pop\n      pop\n      jump\t// out\n    tag_86:\n      dup3\n      dup1\n      sload\n      tag_214\n      swap1\n      tag_56\n      jump\t// in\n    tag_214:\n      swap1\n      0x00\n      mstore\n      keccak256(0x00, 0x20)\n      swap1\n      0x1f\n      add\n      0x20\n      swap1\n      div\n      dup2\n      add\n      swap3\n      dup3\n      tag_216\n      jumpi\n      0x00\n      dup6\n      sstore\n      jump(tag_215)\n    tag_216:\n      dup3\n      0x1f\n      lt\n      tag_217\n      jumpi\n      dup1\n      mload\n      not(0xff)\n      and\n      dup4\n      dup1\n      add\n      or\n      dup6\n      sstore\n      jump(tag_215)\n    tag_217:\n      dup3\n      dup1\n      add\n      0x01\n      add\n      dup6\n      sstore\n      dup3\n      iszero\n      tag_215\n      jumpi\n      swap2\n      dup3\n      add\n    tag_218:\n      dup3\n      dup2\n      gt\n      iszero\n      tag_219\n      jumpi\n      dup3\n      mload\n      dup3\n      sstore\n      swap2\n      0x20\n      add\n      swap2\n      swap1\n      0x01\n      add\n      swap1\n      jump(tag_218)\n    tag_219:\n    tag_215:\n      pop\n      swap1\n      pop\n      tag_220\n      swap2\n      swap1\n      tag_221\n      jump\t// in\n    tag_220:\n      pop\n      swap1\n      jump\t// out\n    tag_147:\n      mload(0x40)\n      dup1\n      0x60\n      add\n      0x40\n      mstore\n      dup1\n      0x60\n      dup2\n      mstore\n      0x20\n      add\n      0x60\n      dup2\n      mstore\n      0x20\n      add\n      0x00\n      dup2\n      mstore\n      pop\n      swap1\n      jump\t// out\n    tag_197:\n      dup3\n      dup1\n      sload\n      tag_222\n      swap1\n      tag_56\n      jump\t// in\n    tag_222:\n      swap1\n      0x00\n      mstore\n      keccak256(0x00, 0x20)\n      swap1\n      0x1f\n      add\n      0x20\n      swap1\n      div\n      dup2\n      add\n      swap3\n      dup3\n      tag_224\n      jumpi\n      0x00\n      dup6\n      sstore\n      jump(tag_223)\n    tag_224:\n      dup3\n      0x1f\n      lt\n      tag_225\n      jumpi\n      dup1\n      sload\n      dup6\n      sstore\n      jump(tag_223)\n    tag_225:\n      dup3\n      dup1\n      add\n      0x01\n      add\n      dup6\n      sstore\n      dup3\n      iszero\n      tag_223\n      jumpi\n      0x00\n      mstore\n      keccak256(0x00, 0x20)\n      swap2\n      0x1f\n      add\n      0x20\n      swap1\n      div\n      dup3\n      add\n    tag_226:\n      dup3\n      dup2\n      gt\n      iszero\n      tag_227\n      jumpi\n      dup3\n      sload\n      dup3\n      sstore\n      swap2\n      0x01\n      add\n      swap2\n      swap1\n      0x01\n      add\n      swap1\n      jump(tag_226)\n    tag_227:\n    tag_223:\n      pop\n      swap1\n      pop\n      tag_228\n      swap2\n      swap1\n      tag_221\n      jump\t// in\n    tag_228:\n      pop\n      swap1\n      jump\t// out\n    tag_205:\n      pop\n      dup1\n      sload\n      tag_229\n      swap1\n      tag_56\n      jump\t// in\n    tag_229:\n      0x00\n      dup3\n      sstore\n      dup1\n      0x1f\n      lt\n      tag_231\n      jumpi\n      pop\n      jump(tag_230)\n    tag_231:\n      0x1f\n      add\n      0x20\n      swap1\n      div\n      swap1\n      0x00\n      mstore\n      keccak256(0x00, 0x20)\n      swap1\n      dup2\n      add\n      swap1\n      tag_232\n      swap2\n      swap1\n      tag_221\n      jump\t// in\n    tag_232:\n    tag_230:\n      pop\n      jump\t// out\n    tag_221:\n    tag_233:\n      dup1\n      dup3\n      gt\n      iszero\n      tag_234\n      jumpi\n      0x00\n      dup2\n      0x00\n      swap1\n      sstore\n      pop\n      0x01\n      add\n      jump(tag_233)\n    tag_234:\n      pop\n      swap1\n      jump\t// out\n        /* \"#utility.yul\":7:419   */\n    tag_236:\n        /* \"#utility.yul\":85:90   */\n      0x00\n        /* \"#utility.yul\":110:176   */\n      tag_238\n        /* \"#utility.yul\":126:175   */\n      tag_239\n        /* \"#utility.yul\":168:174   */\n      dup5\n        /* \"#utility.yul\":126:175   */\n      tag_240\n      jump\t// in\n    tag_239:\n        /* \"#utility.yul\":110:176   */\n      tag_241\n      jump\t// in\n    tag_238:\n        /* \"#utility.yul\":101:176   */\n      swap1\n      pop\n        /* \"#utility.yul\":199:205   */\n      dup3\n        /* \"#utility.yul\":192:197   */\n      dup2\n        /* \"#utility.yul\":185:206   */\n      mstore\n        /* \"#utility.yul\":237:241   */\n      0x20\n        /* \"#utility.yul\":230:235   */\n      dup2\n        /* \"#utility.yul\":226:242   */\n      add\n        /* \"#utility.yul\":275:278   */\n      dup5\n        /* \"#utility.yul\":266:272   */\n      dup5\n        /* \"#utility.yul\":261:264   */\n      dup5\n        /* \"#utility.yul\":257:273   */\n      add\n        /* \"#utility.yul\":254:279   */\n      gt\n        /* \"#utility.yul\":251:363   */\n      iszero\n      tag_242\n      jumpi\n        /* \"#utility.yul\":282:361   */\n      tag_243\n      tag_244\n      jump\t// in\n    tag_243:\n        /* \"#utility.yul\":251:363   */\n    tag_242:\n        /* \"#utility.yul\":372:413   */\n      tag_245\n        /* \"#utility.yul\":406:412   */\n      dup5\n        /* \"#utility.yul\":401:404   */\n      dup3\n        /* \"#utility.yul\":396:399   */\n      dup6\n        /* \"#utility.yul\":372:413   */\n      tag_246\n      jump\t// in\n    tag_245:\n        /* \"#utility.yul\":91:419   */\n      pop\n        /* \"#utility.yul\":7:419   */\n      swap4\n      swap3\n      pop\n      pop\n      pop\n      jump\t// out\n        /* \"#utility.yul\":439:779   */\n    tag_247:\n        /* \"#utility.yul\":495:500   */\n      0x00\n        /* \"#utility.yul\":544:547   */\n      dup3\n        /* \"#utility.yul\":537:541   */\n      0x1f\n        /* \"#utility.yul\":529:535   */\n      dup4\n        /* \"#utility.yul\":525:542   */\n      add\n        /* \"#utility.yul\":521:548   */\n      slt\n        /* \"#utility.yul\":511:633   */\n      tag_249\n      jumpi\n        /* \"#utility.yul\":552:631   */\n      tag_250\n      tag_251\n      jump\t// in\n    tag_250:\n        /* \"#utility.yul\":511:633   */\n    tag_249:\n        /* \"#utility.yul\":669:675   */\n      dup2\n        /* \"#utility.yul\":656:676   */\n      calldataload\n        /* \"#utility.yul\":694:773   */\n      tag_252\n        /* \"#utility.yul\":769:772   */\n      dup5\n        /* \"#utility.yul\":761:767   */\n      dup3\n        /* \"#utility.yul\":754:758   */\n      0x20\n        /* \"#utility.yul\":746:752   */\n      dup7\n        /* \"#utility.yul\":742:759   */\n      add\n        /* \"#utility.yul\":694:773   */\n      tag_236\n      jump\t// in\n    tag_252:\n        /* \"#utility.yul\":685:773   */\n      swap2\n      pop\n        /* \"#utility.yul\":501:779   */\n      pop\n        /* \"#utility.yul\":439:779   */\n      swap3\n      swap2\n      pop\n      pop\n      jump\t// out\n        /* \"#utility.yul\":785:924   */\n    tag_253:\n        /* \"#utility.yul\":831:836   */\n      0x00\n        /* \"#utility.yul\":869:875   */\n      dup2\n        /* \"#utility.yul\":856:876   */\n      calldataload\n        /* \"#utility.yul\":847:876   */\n      swap1\n      pop\n        /* \"#utility.yul\":885:918   */\n      tag_255\n        /* \"#utility.yul\":912:917   */\n      dup2\n        /* \"#utility.yul\":885:918   */\n      tag_256\n      jump\t// in\n    tag_255:\n        /* \"#utility.yul\":785:924   */\n      swap3\n      swap2\n      pop\n      pop\n      jump\t// out\n        /* \"#utility.yul\":930:1439   */\n    tag_31:\n        /* \"#utility.yul\":999:1005   */\n      0x00\n        /* \"#utility.yul\":1048:1050   */\n      0x20\n        /* \"#utility.yul\":1036:1045   */\n      dup3\n        /* \"#utility.yul\":1027:1034   */\n      dup5\n        /* \"#utility.yul\":1023:1046   */\n      sub\n        /* \"#utility.yul\":1019:1051   */\n      slt\n        /* \"#utility.yul\":1016:1135   */\n      iszero\n      tag_258\n      jumpi\n        /* \"#utility.yul\":1054:1133   */\n      tag_259\n      tag_260\n      jump\t// in\n    tag_259:\n        /* \"#utility.yul\":1016:1135   */\n    tag_258:\n        /* \"#utility.yul\":1202:1203   */\n      0x00\n        /* \"#utility.yul\":1191:1200   */\n      dup3\n        /* \"#utility.yul\":1187:1204   */\n      add\n        /* \"#utility.yul\":1174:1205   */\n      calldataload\n        /* \"#utility.yul\":1232:1250   */\n      0xffffffffffffffff\n        /* \"#utility.yul\":1224:1230   */\n      dup2\n        /* \"#utility.yul\":1221:1251   */\n      gt\n        /* \"#utility.yul\":1218:1335   */\n      iszero\n      tag_261\n      jumpi\n        /* \"#utility.yul\":1254:1333   */\n      tag_262\n      tag_263\n      jump\t// in\n    tag_262:\n        /* \"#utility.yul\":1218:1335   */\n    tag_261:\n        /* \"#utility.yul\":1359:1422   */\n      tag_264\n        /* \"#utility.yul\":1414:1421   */\n      dup5\n        /* \"#utility.yul\":1405:1411   */\n      dup3\n        /* \"#utility.yul\":1394:1403   */\n      dup6\n        /* \"#utility.yul\":1390:1412   */\n      add\n        /* \"#utility.yul\":1359:1422   */\n      tag_247\n      jump\t// in\n    tag_264:\n        /* \"#utility.yul\":1349:1422   */\n      swap2\n      pop\n        /* \"#utility.yul\":1145:1432   */\n      pop\n        /* \"#utility.yul\":930:1439   */\n      swap3\n      swap2\n      pop\n      pop\n      jump\t// out\n        /* \"#utility.yul\":1445:2279   */\n    tag_25:\n        /* \"#utility.yul\":1533:1539   */\n      0x00\n        /* \"#utility.yul\":1541:1547   */\n      dup1\n        /* \"#utility.yul\":1590:1592   */\n      0x40\n        /* \"#utility.yul\":1578:1587   */\n      dup4\n        /* \"#utility.yul\":1569:1576   */\n      dup6\n        /* \"#utility.yul\":1565:1588   */\n      sub\n        /* \"#utility.yul\":1561:1593   */\n      slt\n        /* \"#utility.yul\":1558:1677   */\n      iszero\n      tag_266\n      jumpi\n        /* \"#utility.yul\":1596:1675   */\n      tag_267\n      tag_260\n      jump\t// in\n    tag_267:\n        /* \"#utility.yul\":1558:1677   */\n    tag_266:\n        /* \"#utility.yul\":1744:1745   */\n      0x00\n        /* \"#utility.yul\":1733:1742   */\n      dup4\n        /* \"#utility.yul\":1729:1746   */\n      add\n        /* \"#utility.yul\":1716:1747   */\n      calldataload\n        /* \"#utility.yul\":1774:1792   */\n      0xffffffffffffffff\n        /* \"#utility.yul\":1766:1772   */\n      dup2\n        /* \"#utility.yul\":1763:1793   */\n      gt\n        /* \"#utility.yul\":1760:1877   */\n      iszero\n      tag_268\n      jumpi\n        /* \"#utility.yul\":1796:1875   */\n      tag_269\n      tag_263\n      jump\t// in\n    tag_269:\n        /* \"#utility.yul\":1760:1877   */\n    tag_268:\n        /* \"#utility.yul\":1901:1964   */\n      tag_270\n        /* \"#utility.yul\":1956:1963   */\n      dup6\n        /* \"#utility.yul\":1947:1953   */\n      dup3\n        /* \"#utility.yul\":1936:1945   */\n      dup7\n        /* \"#utility.yul\":1932:1954   */\n      add\n        /* \"#utility.yul\":1901:1964   */\n      tag_247\n      jump\t// in\n    tag_270:\n        /* \"#utility.yul\":1891:1964   */\n      swap3\n      pop\n        /* \"#utility.yul\":1687:1974   */\n      pop\n        /* \"#utility.yul\":2041:2043   */\n      0x20\n        /* \"#utility.yul\":2030:2039   */\n      dup4\n        /* \"#utility.yul\":2026:2044   */\n      add\n        /* \"#utility.yul\":2013:2045   */\n      calldataload\n        /* \"#utility.yul\":2072:2090   */\n      0xffffffffffffffff\n        /* \"#utility.yul\":2064:2070   */\n      dup2\n        /* \"#utility.yul\":2061:2091   */\n      gt\n        /* \"#utility.yul\":2058:2175   */\n      iszero\n      tag_271\n      jumpi\n        /* \"#utility.yul\":2094:2173   */\n      tag_272\n      tag_263\n      jump\t// in\n    tag_272:\n        /* \"#utility.yul\":2058:2175   */\n    tag_271:\n        /* \"#utility.yul\":2199:2262   */\n      tag_273\n        /* \"#utility.yul\":2254:2261   */\n      dup6\n        /* \"#utility.yul\":2245:2251   */\n      dup3\n        /* \"#utility.yul\":2234:2243   */\n      dup7\n        /* \"#utility.yul\":2230:2252   */\n      add\n        /* \"#utility.yul\":2199:2262   */\n      tag_247\n      jump\t// in\n    tag_273:\n        /* \"#utility.yul\":2189:2262   */\n      swap2\n      pop\n        /* \"#utility.yul\":1984:2272   */\n      pop\n        /* \"#utility.yul\":1445:2279   */\n      swap3\n      pop\n      swap3\n      swap1\n      pop\n      jump\t// out\n        /* \"#utility.yul\":2285:3264   */\n    tag_46:\n        /* \"#utility.yul\":2382:2388   */\n      0x00\n        /* \"#utility.yul\":2390:2396   */\n      dup1\n        /* \"#utility.yul\":2398:2404   */\n      0x00\n        /* \"#utility.yul\":2447:2449   */\n      0x60\n        /* \"#utility.yul\":2435:2444   */\n      dup5\n        /* \"#utility.yul\":2426:2433   */\n      dup7\n        /* \"#utility.yul\":2422:2445   */\n      sub\n        /* \"#utility.yul\":2418:2450   */\n      slt\n        /* \"#utility.yul\":2415:2534   */\n      iszero\n      tag_275\n      jumpi\n        /* \"#utility.yul\":2453:2532   */\n      tag_276\n      tag_260\n      jump\t// in\n    tag_276:\n        /* \"#utility.yul\":2415:2534   */\n    tag_275:\n        /* \"#utility.yul\":2601:2602   */\n      0x00\n        /* \"#utility.yul\":2590:2599   */\n      dup5\n        /* \"#utility.yul\":2586:2603   */\n      add\n        /* \"#utility.yul\":2573:2604   */\n      calldataload\n        /* \"#utility.yul\":2631:2649   */\n      0xffffffffffffffff\n        /* \"#utility.yul\":2623:2629   */\n      dup2\n        /* \"#utility.yul\":2620:2650   */\n      gt\n        /* \"#utility.yul\":2617:2734   */\n      iszero\n      tag_277\n      jumpi\n        /* \"#utility.yul\":2653:2732   */\n      tag_278\n      tag_263\n      jump\t// in\n    tag_278:\n        /* \"#utility.yul\":2617:2734   */\n    tag_277:\n        /* \"#utility.yul\":2758:2821   */\n      tag_279\n        /* \"#utility.yul\":2813:2820   */\n      dup7\n        /* \"#utility.yul\":2804:2810   */\n      dup3\n        /* \"#utility.yul\":2793:2802   */\n      dup8\n        /* \"#utility.yul\":2789:2811   */\n      add\n        /* \"#utility.yul\":2758:2821   */\n      tag_247\n      jump\t// in\n    tag_279:\n        /* \"#utility.yul\":2748:2821   */\n      swap4\n      pop\n        /* \"#utility.yul\":2544:2831   */\n      pop\n        /* \"#utility.yul\":2898:2900   */\n      0x20\n        /* \"#utility.yul\":2887:2896   */\n      dup5\n        /* \"#utility.yul\":2883:2901   */\n      add\n        /* \"#utility.yul\":2870:2902   */\n      calldataload\n        /* \"#utility.yul\":2929:2947   */\n      0xffffffffffffffff\n        /* \"#utility.yul\":2921:2927   */\n      dup2\n        /* \"#utility.yul\":2918:2948   */\n      gt\n        /* \"#utility.yul\":2915:3032   */\n      iszero\n      tag_280\n      jumpi\n        /* \"#utility.yul\":2951:3030   */\n      tag_281\n      tag_263\n      jump\t// in\n    tag_281:\n        /* \"#utility.yul\":2915:3032   */\n    tag_280:\n        /* \"#utility.yul\":3056:3119   */\n      tag_282\n        /* \"#utility.yul\":3111:3118   */\n      dup7\n        /* \"#utility.yul\":3102:3108   */\n      dup3\n        /* \"#utility.yul\":3091:3100   */\n      dup8\n        /* \"#utility.yul\":3087:3109   */\n      add\n        /* \"#utility.yul\":3056:3119   */\n      tag_247\n      jump\t// in\n    tag_282:\n        /* \"#utility.yul\":3046:3119   */\n      swap3\n      pop\n        /* \"#utility.yul\":2841:3129   */\n      pop\n        /* \"#utility.yul\":3168:3170   */\n      0x40\n        /* \"#utility.yul\":3194:3247   */\n      tag_283\n        /* \"#utility.yul\":3239:3246   */\n      dup7\n        /* \"#utility.yul\":3230:3236   */\n      dup3\n        /* \"#utility.yul\":3219:3228   */\n      dup8\n        /* \"#utility.yul\":3215:3237   */\n      add\n        /* \"#utility.yul\":3194:3247   */\n      tag_253\n      jump\t// in\n    tag_283:\n        /* \"#utility.yul\":3184:3247   */\n      swap2\n      pop\n        /* \"#utility.yul\":3139:3257   */\n      pop\n        /* \"#utility.yul\":2285:3264   */\n      swap3\n      pop\n      swap3\n      pop\n      swap3\n      jump\t// out\n        /* \"#utility.yul\":3270:3599   */\n    tag_15:\n        /* \"#utility.yul\":3329:3335   */\n      0x00\n        /* \"#utility.yul\":3378:3380   */\n      0x20\n        /* \"#utility.yul\":3366:3375   */\n      dup3\n        /* \"#utility.yul\":3357:3364   */\n      dup5\n        /* \"#utility.yul\":3353:3376   */\n      sub\n        /* \"#utility.yul\":3349:3381   */\n      slt\n        /* \"#utility.yul\":3346:3465   */\n      iszero\n      tag_285\n      jumpi\n        /* \"#utility.yul\":3384:3463   */\n      tag_286\n      tag_260\n      jump\t// in\n    tag_286:\n        /* \"#utility.yul\":3346:3465   */\n    tag_285:\n        /* \"#utility.yul\":3504:3505   */\n      0x00\n        /* \"#utility.yul\":3529:3582   */\n      tag_287\n        /* \"#utility.yul\":3574:3581   */\n      dup5\n        /* \"#utility.yul\":3565:3571   */\n      dup3\n        /* \"#utility.yul\":3554:3563   */\n      dup6\n        /* \"#utility.yul\":3550:3572   */\n      add\n        /* \"#utility.yul\":3529:3582   */\n      tag_253\n      jump\t// in\n    tag_287:\n        /* \"#utility.yul\":3519:3582   */\n      swap2\n      pop\n        /* \"#utility.yul\":3475:3592   */\n      pop\n        /* \"#utility.yul\":3270:3599   */\n      swap3\n      swap2\n      pop\n      pop\n      jump\t// out\n        /* \"#utility.yul\":3605:3849   */\n    tag_288:\n        /* \"#utility.yul\":3718:3728   */\n      0x00\n        /* \"#utility.yul\":3753:3843   */\n      tag_290\n        /* \"#utility.yul\":3839:3842   */\n      dup4\n        /* \"#utility.yul\":3831:3837   */\n      dup4\n        /* \"#utility.yul\":3753:3843   */\n      tag_291\n      jump\t// in\n    tag_290:\n        /* \"#utility.yul\":3739:3843   */\n      swap1\n      pop\n        /* \"#utility.yul\":3605:3849   */\n      swap3\n      swap2\n      pop\n      pop\n      jump\t// out\n        /* \"#utility.yul\":3915:5002   */\n    tag_292:\n        /* \"#utility.yul\":4078:4081   */\n      0x00\n        /* \"#utility.yul\":4107:4183   */\n      tag_294\n        /* \"#utility.yul\":4177:4182   */\n      dup3\n        /* \"#utility.yul\":4107:4183   */\n      tag_295\n      jump\t// in\n    tag_294:\n        /* \"#utility.yul\":4199:4307   */\n      tag_296\n        /* \"#utility.yul\":4300:4306   */\n      dup2\n        /* \"#utility.yul\":4295:4298   */\n      dup6\n        /* \"#utility.yul\":4199:4307   */\n      tag_297\n      jump\t// in\n    tag_296:\n        /* \"#utility.yul\":4192:4307   */\n      swap4\n      pop\n        /* \"#utility.yul\":4333:4336   */\n      dup4\n        /* \"#utility.yul\":4378:4382   */\n      0x20\n        /* \"#utility.yul\":4370:4376   */\n      dup3\n        /* \"#utility.yul\":4366:4383   */\n      mul\n        /* \"#utility.yul\":4361:4364   */\n      dup6\n        /* \"#utility.yul\":4357:4384   */\n      add\n        /* \"#utility.yul\":4408:4486   */\n      tag_298\n        /* \"#utility.yul\":4480:4485   */\n      dup6\n        /* \"#utility.yul\":4408:4486   */\n      tag_299\n      jump\t// in\n    tag_298:\n        /* \"#utility.yul\":4509:4516   */\n      dup1\n        /* \"#utility.yul\":4540:4541   */\n      0x00\n        /* \"#utility.yul\":4525:4957   */\n    tag_300:\n        /* \"#utility.yul\":4550:4556   */\n      dup6\n        /* \"#utility.yul\":4547:4548   */\n      dup2\n        /* \"#utility.yul\":4544:4557   */\n      lt\n        /* \"#utility.yul\":4525:4957   */\n      iszero\n      tag_302\n      jumpi\n        /* \"#utility.yul\":4621:4630   */\n      dup5\n        /* \"#utility.yul\":4615:4619   */\n      dup5\n        /* \"#utility.yul\":4611:4631   */\n      sub\n        /* \"#utility.yul\":4606:4609   */\n      dup10\n        /* \"#utility.yul\":4599:4632   */\n      mstore\n        /* \"#utility.yul\":4672:4678   */\n      dup2\n        /* \"#utility.yul\":4666:4679   */\n      mload\n        /* \"#utility.yul\":4700:4808   */\n      tag_303\n        /* \"#utility.yul\":4803:4807   */\n      dup6\n        /* \"#utility.yul\":4788:4801   */\n      dup3\n        /* \"#utility.yul\":4700:4808   */\n      tag_288\n      jump\t// in\n    tag_303:\n        /* \"#utility.yul\":4692:4808   */\n      swap5\n      pop\n        /* \"#utility.yul\":4831:4913   */\n      tag_304\n        /* \"#utility.yul\":4906:4912   */\n      dup4\n        /* \"#utility.yul\":4831:4913   */\n      tag_305\n      jump\t// in\n    tag_304:\n        /* \"#utility.yul\":4821:4913   */\n      swap3\n      pop\n        /* \"#utility.yul\":4942:4946   */\n      0x20\n        /* \"#utility.yul\":4937:4940   */\n      dup11\n        /* \"#utility.yul\":4933:4947   */\n      add\n        /* \"#utility.yul\":4926:4947   */\n      swap10\n      pop\n        /* \"#utility.yul\":4585:4957   */\n      pop\n        /* \"#utility.yul\":4572:4573   */\n      0x01\n        /* \"#utility.yul\":4569:4570   */\n      dup2\n        /* \"#utility.yul\":4565:4574   */\n      add\n        /* \"#utility.yul\":4560:4574   */\n      swap1\n      pop\n        /* \"#utility.yul\":4525:4957   */\n      jump(tag_300)\n    tag_302:\n        /* \"#utility.yul\":4529:4543   */\n      pop\n        /* \"#utility.yul\":4973:4977   */\n      dup3\n        /* \"#utility.yul\":4966:4977   */\n      swap8\n      pop\n        /* \"#utility.yul\":4993:4996   */\n      dup8\n        /* \"#utility.yul\":4986:4996   */\n      swap6\n      pop\n        /* \"#utility.yul\":4083:5002   */\n      pop\n      pop\n      pop\n      pop\n      pop\n        /* \"#utility.yul\":3915:5002   */\n      swap3\n      swap2\n      pop\n      pop\n      jump\t// out\n        /* \"#utility.yul\":5008:5117   */\n    tag_306:\n        /* \"#utility.yul\":5089:5110   */\n      tag_308\n        /* \"#utility.yul\":5104:5109   */\n      dup2\n        /* \"#utility.yul\":5089:5110   */\n      tag_309\n      jump\t// in\n    tag_308:\n        /* \"#utility.yul\":5084:5087   */\n      dup3\n        /* \"#utility.yul\":5077:5111   */\n      mstore\n        /* \"#utility.yul\":5008:5117   */\n      pop\n      pop\n      jump\t// out\n        /* \"#utility.yul\":5123:5467   */\n    tag_310:\n        /* \"#utility.yul\":5201:5204   */\n      0x00\n        /* \"#utility.yul\":5229:5268   */\n      tag_312\n        /* \"#utility.yul\":5262:5267   */\n      dup3\n        /* \"#utility.yul\":5229:5268   */\n      tag_313\n      jump\t// in\n    tag_312:\n        /* \"#utility.yul\":5284:5345   */\n      tag_314\n        /* \"#utility.yul\":5338:5344   */\n      dup2\n        /* \"#utility.yul\":5333:5336   */\n      dup6\n        /* \"#utility.yul\":5284:5345   */\n      tag_315\n      jump\t// in\n    tag_314:\n        /* \"#utility.yul\":5277:5345   */\n      swap4\n      pop\n        /* \"#utility.yul\":5354:5406   */\n      tag_316\n        /* \"#utility.yul\":5399:5405   */\n      dup2\n        /* \"#utility.yul\":5394:5397   */\n      dup6\n        /* \"#utility.yul\":5387:5391   */\n      0x20\n        /* \"#utility.yul\":5380:5385   */\n      dup7\n        /* \"#utility.yul\":5376:5392   */\n      add\n        /* \"#utility.yul\":5354:5406   */\n      tag_317\n      jump\t// in\n    tag_316:\n        /* \"#utility.yul\":5431:5460   */\n      tag_318\n        /* \"#utility.yul\":5453:5459   */\n      dup2\n        /* \"#utility.yul\":5431:5460   */\n      tag_319\n      jump\t// in\n    tag_318:\n        /* \"#utility.yul\":5426:5429   */\n      dup5\n        /* \"#utility.yul\":5422:5461   */\n      add\n        /* \"#utility.yul\":5415:5461   */\n      swap2\n      pop\n        /* \"#utility.yul\":5205:5467   */\n      pop\n        /* \"#utility.yul\":5123:5467   */\n      swap3\n      swap2\n      pop\n      pop\n      jump\t// out\n        /* \"#utility.yul\":5473:5837   */\n    tag_320:\n        /* \"#utility.yul\":5561:5564   */\n      0x00\n        /* \"#utility.yul\":5589:5628   */\n      tag_322\n        /* \"#utility.yul\":5622:5627   */\n      dup3\n        /* \"#utility.yul\":5589:5628   */\n      tag_313\n      jump\t// in\n    tag_322:\n        /* \"#utility.yul\":5644:5715   */\n      tag_323\n        /* \"#utility.yul\":5708:5714   */\n      dup2\n        /* \"#utility.yul\":5703:5706   */\n      dup6\n        /* \"#utility.yul\":5644:5715   */\n      tag_324\n      jump\t// in\n    tag_323:\n        /* \"#utility.yul\":5637:5715   */\n      swap4\n      pop\n        /* \"#utility.yul\":5724:5776   */\n      tag_325\n        /* \"#utility.yul\":5769:5775   */\n      dup2\n        /* \"#utility.yul\":5764:5767   */\n      dup6\n        /* \"#utility.yul\":5757:5761   */\n      0x20\n        /* \"#utility.yul\":5750:5755   */\n      dup7\n        /* \"#utility.yul\":5746:5762   */\n      add\n        /* \"#utility.yul\":5724:5776   */\n      tag_317\n      jump\t// in\n    tag_325:\n        /* \"#utility.yul\":5801:5830   */\n      tag_326\n        /* \"#utility.yul\":5823:5829   */\n      dup2\n        /* \"#utility.yul\":5801:5830   */\n      tag_319\n      jump\t// in\n    tag_326:\n        /* \"#utility.yul\":5796:5799   */\n      dup5\n        /* \"#utility.yul\":5792:5831   */\n      add\n        /* \"#utility.yul\":5785:5831   */\n      swap2\n      pop\n        /* \"#utility.yul\":5565:5837   */\n      pop\n        /* \"#utility.yul\":5473:5837   */\n      swap3\n      swap2\n      pop\n      pop\n      jump\t// out\n        /* \"#utility.yul\":5843:6220   */\n    tag_327:\n        /* \"#utility.yul\":5949:5952   */\n      0x00\n        /* \"#utility.yul\":5977:6016   */\n      tag_329\n        /* \"#utility.yul\":6010:6015   */\n      dup3\n        /* \"#utility.yul\":5977:6016   */\n      tag_313\n      jump\t// in\n    tag_329:\n        /* \"#utility.yul\":6032:6121   */\n      tag_330\n        /* \"#utility.yul\":6114:6120   */\n      dup2\n        /* \"#utility.yul\":6109:6112   */\n      dup6\n        /* \"#utility.yul\":6032:6121   */\n      tag_331\n      jump\t// in\n    tag_330:\n        /* \"#utility.yul\":6025:6121   */\n      swap4\n      pop\n        /* \"#utility.yul\":6130:6182   */\n      tag_332\n        /* \"#utility.yul\":6175:6181   */\n      dup2\n        /* \"#utility.yul\":6170:6173   */\n      dup6\n        /* \"#utility.yul\":6163:6167   */\n      0x20\n        /* \"#utility.yul\":6156:6161   */\n      dup7\n        /* \"#utility.yul\":6152:6168   */\n      add\n        /* \"#utility.yul\":6130:6182   */\n      tag_317\n      jump\t// in\n    tag_332:\n        /* \"#utility.yul\":6207:6213   */\n      dup1\n        /* \"#utility.yul\":6202:6205   */\n      dup5\n        /* \"#utility.yul\":6198:6214   */\n      add\n        /* \"#utility.yul\":6191:6214   */\n      swap2\n      pop\n        /* \"#utility.yul\":5953:6220   */\n      pop\n        /* \"#utility.yul\":5843:6220   */\n      swap3\n      swap2\n      pop\n      pop\n      jump\t// out\n        /* \"#utility.yul\":6226:6592   */\n    tag_333:\n        /* \"#utility.yul\":6368:6371   */\n      0x00\n        /* \"#utility.yul\":6389:6456   */\n      tag_335\n        /* \"#utility.yul\":6453:6455   */\n      0x11\n        /* \"#utility.yul\":6448:6451   */\n      dup4\n        /* \"#utility.yul\":6389:6456   */\n      tag_324\n      jump\t// in\n    tag_335:\n        /* \"#utility.yul\":6382:6456   */\n      swap2\n      pop\n        /* \"#utility.yul\":6465:6558   */\n      tag_336\n        /* \"#utility.yul\":6554:6557   */\n      dup3\n        /* \"#utility.yul\":6465:6558   */\n      tag_337\n      jump\t// in\n    tag_336:\n        /* \"#utility.yul\":6583:6585   */\n      0x20\n        /* \"#utility.yul\":6578:6581   */\n      dup3\n        /* \"#utility.yul\":6574:6586   */\n      add\n        /* \"#utility.yul\":6567:6586   */\n      swap1\n      pop\n        /* \"#utility.yul\":6226:6592   */\n      swap2\n      swap1\n      pop\n      jump\t// out\n        /* \"#utility.yul\":6654:7497   */\n    tag_291:\n        /* \"#utility.yul\":6757:6760   */\n      0x00\n        /* \"#utility.yul\":6793:6797   */\n      0x60\n        /* \"#utility.yul\":6788:6791   */\n      dup4\n        /* \"#utility.yul\":6784:6798   */\n      add\n        /* \"#utility.yul\":6880:6884   */\n      0x00\n        /* \"#utility.yul\":6873:6878   */\n      dup4\n        /* \"#utility.yul\":6869:6885   */\n      add\n        /* \"#utility.yul\":6863:6886   */\n      mload\n        /* \"#utility.yul\":6933:6936   */\n      dup5\n        /* \"#utility.yul\":6927:6931   */\n      dup3\n        /* \"#utility.yul\":6923:6937   */\n      sub\n        /* \"#utility.yul\":6916:6920   */\n      0x00\n        /* \"#utility.yul\":6911:6914   */\n      dup7\n        /* \"#utility.yul\":6907:6921   */\n      add\n        /* \"#utility.yul\":6900:6938   */\n      mstore\n        /* \"#utility.yul\":6959:7032   */\n      tag_339\n        /* \"#utility.yul\":7027:7031   */\n      dup3\n        /* \"#utility.yul\":7013:7025   */\n      dup3\n        /* \"#utility.yul\":6959:7032   */\n      tag_310\n      jump\t// in\n    tag_339:\n        /* \"#utility.yul\":6951:7032   */\n      swap2\n      pop\n        /* \"#utility.yul\":6808:7043   */\n      pop\n        /* \"#utility.yul\":7127:7131   */\n      0x20\n        /* \"#utility.yul\":7120:7125   */\n      dup4\n        /* \"#utility.yul\":7116:7132   */\n      add\n        /* \"#utility.yul\":7110:7133   */\n      mload\n        /* \"#utility.yul\":7180:7183   */\n      dup5\n        /* \"#utility.yul\":7174:7178   */\n      dup3\n        /* \"#utility.yul\":7170:7184   */\n      sub\n        /* \"#utility.yul\":7163:7167   */\n      0x20\n        /* \"#utility.yul\":7158:7161   */\n      dup7\n        /* \"#utility.yul\":7154:7168   */\n      add\n        /* \"#utility.yul\":7147:7185   */\n      mstore\n        /* \"#utility.yul\":7206:7279   */\n      tag_340\n        /* \"#utility.yul\":7274:7278   */\n      dup3\n        /* \"#utility.yul\":7260:7272   */\n      dup3\n        /* \"#utility.yul\":7206:7279   */\n      tag_310\n      jump\t// in\n    tag_340:\n        /* \"#utility.yul\":7198:7279   */\n      swap2\n      pop\n        /* \"#utility.yul\":7053:7290   */\n      pop\n        /* \"#utility.yul\":7378:7382   */\n      0x40\n        /* \"#utility.yul\":7371:7376   */\n      dup4\n        /* \"#utility.yul\":7367:7383   */\n      add\n        /* \"#utility.yul\":7361:7384   */\n      mload\n        /* \"#utility.yul\":7397:7460   */\n      tag_341\n        /* \"#utility.yul\":7454:7458   */\n      0x40\n        /* \"#utility.yul\":7449:7452   */\n      dup7\n        /* \"#utility.yul\":7445:7459   */\n      add\n        /* \"#utility.yul\":7431:7443   */\n      dup3\n        /* \"#utility.yul\":7397:7460   */\n      tag_342\n      jump\t// in\n    tag_341:\n        /* \"#utility.yul\":7300:7470   */\n      pop\n        /* \"#utility.yul\":7487:7491   */\n      dup1\n        /* \"#utility.yul\":7480:7491   */\n      swap2\n      pop\n        /* \"#utility.yul\":6762:7497   */\n      pop\n        /* \"#utility.yul\":6654:7497   */\n      swap3\n      swap2\n      pop\n      pop\n      jump\t// out\n        /* \"#utility.yul\":7503:7611   */\n    tag_342:\n        /* \"#utility.yul\":7580:7604   */\n      tag_344\n        /* \"#utility.yul\":7598:7603   */\n      dup2\n        /* \"#utility.yul\":7580:7604   */\n      tag_345\n      jump\t// in\n    tag_344:\n        /* \"#utility.yul\":7575:7578   */\n      dup3\n        /* \"#utility.yul\":7568:7605   */\n      mstore\n        /* \"#utility.yul\":7503:7611   */\n      pop\n      pop\n      jump\t// out\n        /* \"#utility.yul\":7617:7735   */\n    tag_346:\n        /* \"#utility.yul\":7704:7728   */\n      tag_348\n        /* \"#utility.yul\":7722:7727   */\n      dup2\n        /* \"#utility.yul\":7704:7728   */\n      tag_345\n      jump\t// in\n    tag_348:\n        /* \"#utility.yul\":7699:7702   */\n      dup3\n        /* \"#utility.yul\":7692:7729   */\n      mstore\n        /* \"#utility.yul\":7617:7735   */\n      pop\n      pop\n      jump\t// out\n        /* \"#utility.yul\":7741:8016   */\n    tag_212:\n        /* \"#utility.yul\":7873:7876   */\n      0x00\n        /* \"#utility.yul\":7895:7990   */\n      tag_350\n        /* \"#utility.yul\":7986:7989   */\n      dup3\n        /* \"#utility.yul\":7977:7983   */\n      dup5\n        /* \"#utility.yul\":7895:7990   */\n      tag_327\n      jump\t// in\n    tag_350:\n        /* \"#utility.yul\":7888:7990   */\n      swap2\n      pop\n        /* \"#utility.yul\":8007:8010   */\n      dup2\n        /* \"#utility.yul\":8000:8010   */\n      swap1\n      pop\n        /* \"#utility.yul\":7741:8016   */\n      swap3\n      swap2\n      pop\n      pop\n      jump\t// out\n        /* \"#utility.yul\":8022:8483   */\n    tag_37:\n        /* \"#utility.yul\":8209:8213   */\n      0x00\n        /* \"#utility.yul\":8247:8249   */\n      0x20\n        /* \"#utility.yul\":8236:8245   */\n      dup3\n        /* \"#utility.yul\":8232:8250   */\n      add\n        /* \"#utility.yul\":8224:8250   */\n      swap1\n      pop\n        /* \"#utility.yul\":8296:8305   */\n      dup2\n        /* \"#utility.yul\":8290:8294   */\n      dup2\n        /* \"#utility.yul\":8286:8306   */\n      sub\n        /* \"#utility.yul\":8282:8283   */\n      0x00\n        /* \"#utility.yul\":8271:8280   */\n      dup4\n        /* \"#utility.yul\":8267:8284   */\n      add\n        /* \"#utility.yul\":8260:8307   */\n      mstore\n        /* \"#utility.yul\":8324:8476   */\n      tag_352\n        /* \"#utility.yul\":8471:8475   */\n      dup2\n        /* \"#utility.yul\":8462:8468   */\n      dup5\n        /* \"#utility.yul\":8324:8476   */\n      tag_292\n      jump\t// in\n    tag_352:\n        /* \"#utility.yul\":8316:8476   */\n      swap1\n      pop\n        /* \"#utility.yul\":8022:8483   */\n      swap3\n      swap2\n      pop\n      pop\n      jump\t// out\n        /* \"#utility.yul\":8489:8699   */\n    tag_28:\n        /* \"#utility.yul\":8576:8580   */\n      0x00\n        /* \"#utility.yul\":8614:8616   */\n      0x20\n        /* \"#utility.yul\":8603:8612   */\n      dup3\n        /* \"#utility.yul\":8599:8617   */\n      add\n        /* \"#utility.yul\":8591:8617   */\n      swap1\n      pop\n        /* \"#utility.yul\":8627:8692   */\n      tag_354\n        /* \"#utility.yul\":8689:8690   */\n      0x00\n        /* \"#utility.yul\":8678:8687   */\n      dup4\n        /* \"#utility.yul\":8674:8691   */\n      add\n        /* \"#utility.yul\":8665:8671   */\n      dup5\n        /* \"#utility.yul\":8627:8692   */\n      tag_306\n      jump\t// in\n    tag_354:\n        /* \"#utility.yul\":8489:8699   */\n      swap3\n      swap2\n      pop\n      pop\n      jump\t// out\n        /* \"#utility.yul\":8705:9329   */\n    tag_18:\n        /* \"#utility.yul\":8894:8898   */\n      0x00\n        /* \"#utility.yul\":8932:8934   */\n      0x60\n        /* \"#utility.yul\":8921:8930   */\n      dup3\n        /* \"#utility.yul\":8917:8935   */\n      add\n        /* \"#utility.yul\":8909:8935   */\n      swap1\n      pop\n        /* \"#utility.yul\":8981:8990   */\n      dup2\n        /* \"#utility.yul\":8975:8979   */\n      dup2\n        /* \"#utility.yul\":8971:8991   */\n      sub\n        /* \"#utility.yul\":8967:8968   */\n      0x00\n        /* \"#utility.yul\":8956:8965   */\n      dup4\n        /* \"#utility.yul\":8952:8969   */\n      add\n        /* \"#utility.yul\":8945:8992   */\n      mstore\n        /* \"#utility.yul\":9009:9087   */\n      tag_356\n        /* \"#utility.yul\":9082:9086   */\n      dup2\n        /* \"#utility.yul\":9073:9079   */\n      dup7\n        /* \"#utility.yul\":9009:9087   */\n      tag_320\n      jump\t// in\n    tag_356:\n        /* \"#utility.yul\":9001:9087   */\n      swap1\n      pop\n        /* \"#utility.yul\":9134:9143   */\n      dup2\n        /* \"#utility.yul\":9128:9132   */\n      dup2\n        /* \"#utility.yul\":9124:9144   */\n      sub\n        /* \"#utility.yul\":9119:9121   */\n      0x20\n        /* \"#utility.yul\":9108:9117   */\n      dup4\n        /* \"#utility.yul\":9104:9122   */\n      add\n        /* \"#utility.yul\":9097:9145   */\n      mstore\n        /* \"#utility.yul\":9162:9240   */\n      tag_357\n        /* \"#utility.yul\":9235:9239   */\n      dup2\n        /* \"#utility.yul\":9226:9232   */\n      dup6\n        /* \"#utility.yul\":9162:9240   */\n      tag_320\n      jump\t// in\n    tag_357:\n        /* \"#utility.yul\":9154:9240   */\n      swap1\n      pop\n        /* \"#utility.yul\":9250:9322   */\n      tag_358\n        /* \"#utility.yul\":9318:9320   */\n      0x40\n        /* \"#utility.yul\":9307:9316   */\n      dup4\n        /* \"#utility.yul\":9303:9321   */\n      add\n        /* \"#utility.yul\":9294:9300   */\n      dup5\n        /* \"#utility.yul\":9250:9322   */\n      tag_346\n      jump\t// in\n    tag_358:\n        /* \"#utility.yul\":8705:9329   */\n      swap5\n      swap4\n      pop\n      pop\n      pop\n      pop\n      jump\t// out\n        /* \"#utility.yul\":9335:9754   */\n    tag_124:\n        /* \"#utility.yul\":9501:9505   */\n      0x00\n        /* \"#utility.yul\":9539:9541   */\n      0x20\n        /* \"#utility.yul\":9528:9537   */\n      dup3\n        /* \"#utility.yul\":9524:9542   */\n      add\n        /* \"#utility.yul\":9516:9542   */\n      swap1\n      pop\n        /* \"#utility.yul\":9588:9597   */\n      dup2\n        /* \"#utility.yul\":9582:9586   */\n      dup2\n        /* \"#utility.yul\":9578:9598   */\n      sub\n        /* \"#utility.yul\":9574:9575   */\n      0x00\n        /* \"#utility.yul\":9563:9572   */\n      dup4\n        /* \"#utility.yul\":9559:9576   */\n      add\n        /* \"#utility.yul\":9552:9599   */\n      mstore\n        /* \"#utility.yul\":9616:9747   */\n      tag_360\n        /* \"#utility.yul\":9742:9746   */\n      dup2\n        /* \"#utility.yul\":9616:9747   */\n      tag_333\n      jump\t// in\n    tag_360:\n        /* \"#utility.yul\":9608:9747   */\n      swap1\n      pop\n        /* \"#utility.yul\":9335:9754   */\n      swap2\n      swap1\n      pop\n      jump\t// out\n        /* \"#utility.yul\":9760:9982   */\n    tag_22:\n        /* \"#utility.yul\":9853:9857   */\n      0x00\n        /* \"#utility.yul\":9891:9893   */\n      0x20\n        /* \"#utility.yul\":9880:9889   */\n      dup3\n        /* \"#utility.yul\":9876:9894   */\n      add\n        /* \"#utility.yul\":9868:9894   */\n      swap1\n      pop\n        /* \"#utility.yul\":9904:9975   */\n      tag_362\n        /* \"#utility.yul\":9972:9973   */\n      0x00\n        /* \"#utility.yul\":9961:9970   */\n      dup4\n        /* \"#utility.yul\":9957:9974   */\n      add\n        /* \"#utility.yul\":9948:9954   */\n      dup5\n        /* \"#utility.yul\":9904:9975   */\n      tag_346\n      jump\t// in\n    tag_362:\n        /* \"#utility.yul\":9760:9982   */\n      swap3\n      swap2\n      pop\n      pop\n      jump\t// out\n        /* \"#utility.yul\":9988:10117   */\n    tag_241:\n        /* \"#utility.yul\":10022:10028   */\n      0x00\n        /* \"#utility.yul\":10049:10069   */\n      tag_364\n      tag_365\n      jump\t// in\n    tag_364:\n        /* \"#utility.yul\":10039:10069   */\n      swap1\n      pop\n        /* \"#utility.yul\":10078:10111   */\n      tag_366\n        /* \"#utility.yul\":10106:10110   */\n      dup3\n        /* \"#utility.yul\":10098:10104   */\n      dup3\n        /* \"#utility.yul\":10078:10111   */\n      tag_367\n      jump\t// in\n    tag_366:\n        /* \"#utility.yul\":9988:10117   */\n      swap2\n      swap1\n      pop\n      jump\t// out\n        /* \"#utility.yul\":10123:10198   */\n    tag_365:\n        /* \"#utility.yul\":10156:10162   */\n      0x00\n        /* \"#utility.yul\":10189:10191   */\n      0x40\n        /* \"#utility.yul\":10183:10192   */\n      mload\n        /* \"#utility.yul\":10173:10192   */\n      swap1\n      pop\n        /* \"#utility.yul\":10123:10198   */\n      swap1\n      jump\t// out\n        /* \"#utility.yul\":10204:10512   */\n    tag_240:\n        /* \"#utility.yul\":10266:10270   */\n      0x00\n        /* \"#utility.yul\":10356:10374   */\n      0xffffffffffffffff\n        /* \"#utility.yul\":10348:10354   */\n      dup3\n        /* \"#utility.yul\":10345:10375   */\n      gt\n        /* \"#utility.yul\":10342:10398   */\n      iszero\n      tag_370\n      jumpi\n        /* \"#utility.yul\":10378:10396   */\n      tag_371\n      tag_143\n      jump\t// in\n    tag_371:\n        /* \"#utility.yul\":10342:10398   */\n    tag_370:\n        /* \"#utility.yul\":10416:10445   */\n      tag_372\n        /* \"#utility.yul\":10438:10444   */\n      dup3\n        /* \"#utility.yul\":10416:10445   */\n      tag_319\n      jump\t// in\n    tag_372:\n        /* \"#utility.yul\":10408:10445   */\n      swap1\n      pop\n        /* \"#utility.yul\":10500:10504   */\n      0x20\n        /* \"#utility.yul\":10494:10498   */\n      dup2\n        /* \"#utility.yul\":10490:10505   */\n      add\n        /* \"#utility.yul\":10482:10505   */\n      swap1\n      pop\n        /* \"#utility.yul\":10204:10512   */\n      swap2\n      swap1\n      pop\n      jump\t// out\n        /* \"#utility.yul\":10518:10672   */\n    tag_299:\n        /* \"#utility.yul\":10607:10611   */\n      0x00\n        /* \"#utility.yul\":10630:10633   */\n      dup2\n        /* \"#utility.yul\":10622:10633   */\n      swap1\n      pop\n        /* \"#utility.yul\":10660:10664   */\n      0x20\n        /* \"#utility.yul\":10655:10658   */\n      dup3\n        /* \"#utility.yul\":10651:10665   */\n      add\n        /* \"#utility.yul\":10643:10665   */\n      swap1\n      pop\n        /* \"#utility.yul\":10518:10672   */\n      swap2\n      swap1\n      pop\n      jump\t// out\n        /* \"#utility.yul\":10678:10814   */\n    tag_295:\n        /* \"#utility.yul\":10767:10773   */\n      0x00\n        /* \"#utility.yul\":10801:10806   */\n      dup2\n        /* \"#utility.yul\":10795:10807   */\n      mload\n        /* \"#utility.yul\":10785:10807   */\n      swap1\n      pop\n        /* \"#utility.yul\":10678:10814   */\n      swap2\n      swap1\n      pop\n      jump\t// out\n        /* \"#utility.yul\":10820:10919   */\n    tag_313:\n        /* \"#utility.yul\":10872:10878   */\n      0x00\n        /* \"#utility.yul\":10906:10911   */\n      dup2\n        /* \"#utility.yul\":10900:10912   */\n      mload\n        /* \"#utility.yul\":10890:10912   */\n      swap1\n      pop\n        /* \"#utility.yul\":10820:10919   */\n      swap2\n      swap1\n      pop\n      jump\t// out\n        /* \"#utility.yul\":10925:11060   */\n    tag_305:\n        /* \"#utility.yul\":11017:11021   */\n      0x00\n        /* \"#utility.yul\":11049:11053   */\n      0x20\n        /* \"#utility.yul\":11044:11047   */\n      dup3\n        /* \"#utility.yul\":11040:11054   */\n      add\n        /* \"#utility.yul\":11032:11054   */\n      swap1\n      pop\n        /* \"#utility.yul\":10925:11060   */\n      swap2\n      swap1\n      pop\n      jump\t// out\n        /* \"#utility.yul\":11066:11272   */\n    tag_297:\n        /* \"#utility.yul\":11187:11198   */\n      0x00\n        /* \"#utility.yul\":11221:11227   */\n      dup3\n        /* \"#utility.yul\":11216:11219   */\n      dup3\n        /* \"#utility.yul\":11209:11228   */\n      mstore\n        /* \"#utility.yul\":11261:11265   */\n      0x20\n        /* \"#utility.yul\":11256:11259   */\n      dup3\n        /* \"#utility.yul\":11252:11266   */\n      add\n        /* \"#utility.yul\":11237:11266   */\n      swap1\n      pop\n        /* \"#utility.yul\":11066:11272   */\n      swap3\n      swap2\n      pop\n      pop\n      jump\t// out\n        /* \"#utility.yul\":11278:11437   */\n    tag_315:\n        /* \"#utility.yul\":11352:11363   */\n      0x00\n        /* \"#utility.yul\":11386:11392   */\n      dup3\n        /* \"#utility.yul\":11381:11384   */\n      dup3\n        /* \"#utility.yul\":11374:11393   */\n      mstore\n        /* \"#utility.yul\":11426:11430   */\n      0x20\n        /* \"#utility.yul\":11421:11424   */\n      dup3\n        /* \"#utility.yul\":11417:11431   */\n      add\n        /* \"#utility.yul\":11402:11431   */\n      swap1\n      pop\n        /* \"#utility.yul\":11278:11437   */\n      swap3\n      swap2\n      pop\n      pop\n      jump\t// out\n        /* \"#utility.yul\":11443:11612   */\n    tag_324:\n        /* \"#utility.yul\":11527:11538   */\n      0x00\n        /* \"#utility.yul\":11561:11567   */\n      dup3\n        /* \"#utility.yul\":11556:11559   */\n      dup3\n        /* \"#utility.yul\":11549:11568   */\n      mstore\n        /* \"#utility.yul\":11601:11605   */\n      0x20\n        /* \"#utility.yul\":11596:11599   */\n      dup3\n        /* \"#utility.yul\":11592:11606   */\n      add\n        /* \"#utility.yul\":11577:11606   */\n      swap1\n      pop\n        /* \"#utility.yul\":11443:11612   */\n      swap3\n      swap2\n      pop\n      pop\n      jump\t// out\n        /* \"#utility.yul\":11618:11766   */\n    tag_331:\n        /* \"#utility.yul\":11720:11731   */\n      0x00\n        /* \"#utility.yul\":11757:11760   */\n      dup2\n        /* \"#utility.yul\":11742:11760   */\n      swap1\n      pop\n        /* \"#utility.yul\":11618:11766   */\n      swap3\n      swap2\n      pop\n      pop\n      jump\t// out\n        /* \"#utility.yul\":11772:11963   */\n    tag_188:\n        /* \"#utility.yul\":11812:11816   */\n      0x00\n        /* \"#utility.yul\":11832:11852   */\n      tag_382\n        /* \"#utility.yul\":11850:11851   */\n      dup3\n        /* \"#utility.yul\":11832:11852   */\n      tag_345\n      jump\t// in\n    tag_382:\n        /* \"#utility.yul\":11827:11852   */\n      swap2\n      pop\n        /* \"#utility.yul\":11866:11886   */\n      tag_383\n        /* \"#utility.yul\":11884:11885   */\n      dup4\n        /* \"#utility.yul\":11866:11886   */\n      tag_345\n      jump\t// in\n    tag_383:\n        /* \"#utility.yul\":11861:11886   */\n      swap3\n      pop\n        /* \"#utility.yul\":11905:11906   */\n      dup3\n        /* \"#utility.yul\":11902:11903   */\n      dup3\n        /* \"#utility.yul\":11899:11907   */\n      lt\n        /* \"#utility.yul\":11896:11930   */\n      iszero\n      tag_384\n      jumpi\n        /* \"#utility.yul\":11910:11928   */\n      tag_385\n      tag_386\n      jump\t// in\n    tag_385:\n        /* \"#utility.yul\":11896:11930   */\n    tag_384:\n        /* \"#utility.yul\":11955:11956   */\n      dup3\n        /* \"#utility.yul\":11952:11953   */\n      dup3\n        /* \"#utility.yul\":11948:11957   */\n      sub\n        /* \"#utility.yul\":11940:11957   */\n      swap1\n      pop\n        /* \"#utility.yul\":11772:11963   */\n      swap3\n      swap2\n      pop\n      pop\n      jump\t// out\n        /* \"#utility.yul\":11969:12059   */\n    tag_309:\n        /* \"#utility.yul\":12003:12010   */\n      0x00\n        /* \"#utility.yul\":12046:12051   */\n      dup2\n        /* \"#utility.yul\":12039:12052   */\n      iszero\n        /* \"#utility.yul\":12032:12053   */\n      iszero\n        /* \"#utility.yul\":12021:12053   */\n      swap1\n      pop\n        /* \"#utility.yul\":11969:12059   */\n      swap2\n      swap1\n      pop\n      jump\t// out\n        /* \"#utility.yul\":12065:12142   */\n    tag_345:\n        /* \"#utility.yul\":12102:12109   */\n      0x00\n        /* \"#utility.yul\":12131:12136   */\n      dup2\n        /* \"#utility.yul\":12120:12136   */\n      swap1\n      pop\n        /* \"#utility.yul\":12065:12142   */\n      swap2\n      swap1\n      pop\n      jump\t// out\n        /* \"#utility.yul\":12148:12302   */\n    tag_246:\n        /* \"#utility.yul\":12232:12238   */\n      dup3\n        /* \"#utility.yul\":12227:12230   */\n      dup2\n        /* \"#utility.yul\":12222:12225   */\n      dup4\n        /* \"#utility.yul\":12209:12239   */\n      calldatacopy\n        /* \"#utility.yul\":12294:12295   */\n      0x00\n        /* \"#utility.yul\":12285:12291   */\n      dup4\n        /* \"#utility.yul\":12280:12283   */\n      dup4\n        /* \"#utility.yul\":12276:12292   */\n      add\n        /* \"#utility.yul\":12269:12296   */\n      mstore\n        /* \"#utility.yul\":12148:12302   */\n      pop\n      pop\n      pop\n      jump\t// out\n        /* \"#utility.yul\":12308:12615   */\n    tag_317:\n        /* \"#utility.yul\":12376:12377   */\n      0x00\n        /* \"#utility.yul\":12386:12499   */\n    tag_391:\n        /* \"#utility.yul\":12400:12406   */\n      dup4\n        /* \"#utility.yul\":12397:12398   */\n      dup2\n        /* \"#utility.yul\":12394:12407   */\n      lt\n        /* \"#utility.yul\":12386:12499   */\n      iszero\n      tag_393\n      jumpi\n        /* \"#utility.yul\":12485:12486   */\n      dup1\n        /* \"#utility.yul\":12480:12483   */\n      dup3\n        /* \"#utility.yul\":12476:12487   */\n      add\n        /* \"#utility.yul\":12470:12488   */\n      mload\n        /* \"#utility.yul\":12466:12467   */\n      dup2\n        /* \"#utility.yul\":12461:12464   */\n      dup5\n        /* \"#utility.yul\":12457:12468   */\n      add\n        /* \"#utility.yul\":12450:12489   */\n      mstore\n        /* \"#utility.yul\":12422:12424   */\n      0x20\n        /* \"#utility.yul\":12419:12420   */\n      dup2\n        /* \"#utility.yul\":12415:12425   */\n      add\n        /* \"#utility.yul\":12410:12425   */\n      swap1\n      pop\n        /* \"#utility.yul\":12386:12499   */\n      jump(tag_391)\n    tag_393:\n        /* \"#utility.yul\":12517:12523   */\n      dup4\n        /* \"#utility.yul\":12514:12515   */\n      dup2\n        /* \"#utility.yul\":12511:12524   */\n      gt\n        /* \"#utility.yul\":12508:12609   */\n      iszero\n      tag_394\n      jumpi\n        /* \"#utility.yul\":12597:12598   */\n      0x00\n        /* \"#utility.yul\":12588:12594   */\n      dup5\n        /* \"#utility.yul\":12583:12586   */\n      dup5\n        /* \"#utility.yul\":12579:12595   */\n      add\n        /* \"#utility.yul\":12572:12599   */\n      mstore\n        /* \"#utility.yul\":12508:12609   */\n    tag_394:\n        /* \"#utility.yul\":12357:12615   */\n      pop\n        /* \"#utility.yul\":12308:12615   */\n      pop\n      pop\n      pop\n      jump\t// out\n        /* \"#utility.yul\":12621:12792   */\n    tag_208:\n        /* \"#utility.yul\":12660:12663   */\n      0x00\n        /* \"#utility.yul\":12683:12707   */\n      tag_396\n        /* \"#utility.yul\":12701:12706   */\n      dup3\n        /* \"#utility.yul\":12683:12707   */\n      tag_345\n      jump\t// in\n    tag_396:\n        /* \"#utility.yul\":12674:12707   */\n      swap2\n      pop\n        /* \"#utility.yul\":12729:12733   */\n      0x00\n        /* \"#utility.yul\":12722:12727   */\n      dup3\n        /* \"#utility.yul\":12719:12734   */\n      eq\n        /* \"#utility.yul\":12716:12757   */\n      iszero\n      tag_397\n      jumpi\n        /* \"#utility.yul\":12737:12755   */\n      tag_398\n      tag_386\n      jump\t// in\n    tag_398:\n        /* \"#utility.yul\":12716:12757   */\n    tag_397:\n        /* \"#utility.yul\":12784:12785   */\n      0x01\n        /* \"#utility.yul\":12777:12782   */\n      dup3\n        /* \"#utility.yul\":12773:12786   */\n      sub\n        /* \"#utility.yul\":12766:12786   */\n      swap1\n      pop\n        /* \"#utility.yul\":12621:12792   */\n      swap2\n      swap1\n      pop\n      jump\t// out\n        /* \"#utility.yul\":12798:13118   */\n    tag_56:\n        /* \"#utility.yul\":12842:12848   */\n      0x00\n        /* \"#utility.yul\":12879:12880   */\n      0x02\n        /* \"#utility.yul\":12873:12877   */\n      dup3\n        /* \"#utility.yul\":12869:12881   */\n      div\n        /* \"#utility.yul\":12859:12881   */\n      swap1\n      pop\n        /* \"#utility.yul\":12926:12927   */\n      0x01\n        /* \"#utility.yul\":12920:12924   */\n      dup3\n        /* \"#utility.yul\":12916:12928   */\n      and\n        /* \"#utility.yul\":12947:12965   */\n      dup1\n        /* \"#utility.yul\":12937:13018   */\n      tag_400\n      jumpi\n        /* \"#utility.yul\":13003:13007   */\n      0x7f\n        /* \"#utility.yul\":12995:13001   */\n      dup3\n        /* \"#utility.yul\":12991:13008   */\n      and\n        /* \"#utility.yul\":12981:13008   */\n      swap2\n      pop\n        /* \"#utility.yul\":12937:13018   */\n    tag_400:\n        /* \"#utility.yul\":13065:13067   */\n      0x20\n        /* \"#utility.yul\":13057:13063   */\n      dup3\n        /* \"#utility.yul\":13054:13068   */\n      lt\n        /* \"#utility.yul\":13034:13052   */\n      dup2\n        /* \"#utility.yul\":13031:13069   */\n      eq\n        /* \"#utility.yul\":13028:13112   */\n      iszero\n      tag_401\n      jumpi\n        /* \"#utility.yul\":13084:13102   */\n      tag_402\n      tag_403\n      jump\t// in\n    tag_402:\n        /* \"#utility.yul\":13028:13112   */\n    tag_401:\n        /* \"#utility.yul\":12849:13118   */\n      pop\n        /* \"#utility.yul\":12798:13118   */\n      swap2\n      swap1\n      pop\n      jump\t// out\n        /* \"#utility.yul\":13124:13405   */\n    tag_367:\n        /* \"#utility.yul\":13207:13234   */\n      tag_405\n        /* \"#utility.yul\":13229:13233   */\n      dup3\n        /* \"#utility.yul\":13207:13234   */\n      tag_319\n      jump\t// in\n    tag_405:\n        /* \"#utility.yul\":13199:13205   */\n      dup2\n        /* \"#utility.yul\":13195:13235   */\n      add\n        /* \"#utility.yul\":13337:13343   */\n      dup2\n        /* \"#utility.yul\":13325:13335   */\n      dup2\n        /* \"#utility.yul\":13322:13344   */\n      lt\n        /* \"#utility.yul\":13301:13319   */\n      0xffffffffffffffff\n        /* \"#utility.yul\":13289:13299   */\n      dup3\n        /* \"#utility.yul\":13286:13320   */\n      gt\n        /* \"#utility.yul\":13283:13345   */\n      or\n        /* \"#utility.yul\":13280:13368   */\n      iszero\n      tag_406\n      jumpi\n        /* \"#utility.yul\":13348:13366   */\n      tag_407\n      tag_143\n      jump\t// in\n    tag_407:\n        /* \"#utility.yul\":13280:13368   */\n    tag_406:\n        /* \"#utility.yul\":13388:13398   */\n      dup1\n        /* \"#utility.yul\":13384:13386   */\n      0x40\n        /* \"#utility.yul\":13377:13399   */\n      mstore\n        /* \"#utility.yul\":13167:13405   */\n      pop\n        /* \"#utility.yul\":13124:13405   */\n      pop\n      pop\n      jump\t// out\n        /* \"#utility.yul\":13411:13644   */\n    tag_88:\n        /* \"#utility.yul\":13450:13453   */\n      0x00\n        /* \"#utility.yul\":13473:13497   */\n      tag_409\n        /* \"#utility.yul\":13491:13496   */\n      dup3\n        /* \"#utility.yul\":13473:13497   */\n      tag_345\n      jump\t// in\n    tag_409:\n        /* \"#utility.yul\":13464:13497   */\n      swap2\n      pop\n        /* \"#utility.yul\":13519:13585   */\n      0xffffffffffffffffffffffffffffffffffffffffffffffffffffffffffffffff\n        /* \"#utility.yul\":13512:13517   */\n      dup3\n        /* \"#utility.yul\":13509:13586   */\n      eq\n        /* \"#utility.yul\":13506:13609   */\n      iszero\n      tag_410\n      jumpi\n        /* \"#utility.yul\":13589:13607   */\n      tag_411\n      tag_386\n      jump\t// in\n    tag_411:\n        /* \"#utility.yul\":13506:13609   */\n    tag_410:\n        /* \"#utility.yul\":13636:13637   */\n      0x01\n        /* \"#utility.yul\":13629:13634   */\n      dup3\n        /* \"#utility.yul\":13625:13638   */\n      add\n        /* \"#utility.yul\":13618:13638   */\n      swap1\n      pop\n        /* \"#utility.yul\":13411:13644   */\n      swap2\n      swap1\n      pop\n      jump\t// out\n        /* \"#utility.yul\":13650:13830   */\n    tag_386:\n        /* \"#utility.yul\":13698:13775   */\n      0x4e487b7100000000000000000000000000000000000000000000000000000000\n        /* \"#utility.yul\":13695:13696   */\n      0x00\n        /* \"#utility.yul\":13688:13776   */\n      mstore\n        /* \"#utility.yul\":13795:13799   */\n      0x11\n        /* \"#utility.yul\":13792:13793   */\n      0x04\n        /* \"#utility.yul\":13785:13800   */\n      mstore\n        /* \"#utility.yul\":13819:13823   */\n      0x24\n        /* \"#utility.yul\":13816:13817   */\n      0x00\n        /* \"#utility.yul\":13809:13824   */\n      revert\n        /* \"#utility.yul\":13836:14016   */\n    tag_403:\n        /* \"#utility.yul\":13884:13961   */\n      0x4e487b7100000000000000000000000000000000000000000000000000000000\n        /* \"#utility.yul\":13881:13882   */\n      0x00\n        /* \"#utility.yul\":13874:13962   */\n      mstore\n        /* \"#utility.yul\":13981:13985   */\n      0x22\n        /* \"#utility.yul\":13978:13979   */\n      0x04\n        /* \"#utility.yul\":13971:13986   */\n      mstore\n        /* \"#utility.yul\":14005:14009   */\n      0x24\n        /* \"#utility.yul\":14002:14003   */\n      0x00\n        /* \"#utility.yul\":13995:14010   */\n      revert\n        /* \"#utility.yul\":14022:14202   */\n    tag_73:\n        /* \"#utility.yul\":14070:14147   */\n      0x4e487b7100000000000000000000000000000000000000000000000000000000\n        /* \"#utility.yul\":14067:14068   */\n      0x00\n        /* \"#utility.yul\":14060:14148   */\n      mstore\n        /* \"#utility.yul\":14167:14171   */\n      0x32\n        /* \"#utility.yul\":14164:14165   */\n      0x04\n        /* \"#utility.yul\":14157:14172   */\n      mstore\n        /* \"#utility.yul\":14191:14195   */\n      0x24\n        /* \"#utility.yul\":14188:14189   */\n      0x00\n        /* \"#utility.yul\":14181:14196   */\n      revert\n        /* \"#utility.yul\":14208:14388   */\n    tag_143:\n        /* \"#utility.yul\":14256:14333   */\n      0x4e487b7100000000000000000000000000000000000000000000000000000000\n        /* \"#utility.yul\":14253:14254   */\n      0x00\n        /* \"#utility.yul\":14246:14334   */\n      mstore\n        /* \"#utility.yul\":14353:14357   */\n      0x41\n        /* \"#utility.yul\":14350:14351   */\n      0x04\n        /* \"#utility.yul\":14343:14358   */\n      mstore\n        /* \"#utility.yul\":14377:14381   */\n      0x24\n        /* \"#utility.yul\":14374:14375   */\n      0x00\n        /* \"#utility.yul\":14367:14382   */\n      revert\n        /* \"#utility.yul\":14394:14511   */\n    tag_251:\n        /* \"#utility.yul\":14503:14504   */\n      0x00\n        /* \"#utility.yul\":14500:14501   */\n      dup1\n        /* \"#utility.yul\":14493:14505   */\n      revert\n        /* \"#utility.yul\":14517:14634   */\n    tag_244:\n        /* \"#utility.yul\":14626:14627   */\n      0x00\n        /* \"#utility.yul\":14623:14624   */\n      dup1\n        /* \"#utility.yul\":14616:14628   */\n      revert\n        /* \"#utility.yul\":14640:14757   */\n    tag_263:\n        /* \"#utility.yul\":14749:14750   */\n      0x00\n        /* \"#utility.yul\":14746:14747   */\n      dup1\n        /* \"#utility.yul\":14739:14751   */\n      revert\n        /* \"#utility.yul\":14763:14880   */\n    tag_260:\n        /* \"#utility.yul\":14872:14873   */\n      0x00\n        /* \"#utility.yul\":14869:14870   */\n      dup1\n        /* \"#utility.yul\":14862:14874   */\n      revert\n        /* \"#utility.yul\":14886:14988   */\n    tag_319:\n        /* \"#utility.yul\":14927:14933   */\n      0x00\n        /* \"#utility.yul\":14978:14980   */\n      0x1f\n        /* \"#utility.yul\":14974:14981   */\n      not\n        /* \"#utility.yul\":14969:14971   */\n      0x1f\n        /* \"#utility.yul\":14962:14967   */\n      dup4\n        /* \"#utility.yul\":14958:14972   */\n      add\n        /* \"#utility.yul\":14954:14982   */\n      and\n        /* \"#utility.yul\":14944:14982   */\n      swap1\n      pop\n        /* \"#utility.yul\":14886:14988   */\n      swap2\n      swap1\n      pop\n      jump\t// out\n        /* \"#utility.yul\":14994:15161   */\n    tag_337:\n        /* \"#utility.yul\":15134:15153   */\n      0x636f756e747279206e6f7420666f756e64000000000000000000000000000000\n        /* \"#utility.yul\":15130:15131   */\n      0x00\n        /* \"#utility.yul\":15122:15128   */\n      dup3\n        /* \"#utility.yul\":15118:15132   */\n      add\n        /* \"#utility.yul\":15111:15154   */\n      mstore\n        /* \"#utility.yul\":14994:15161   */\n      pop\n      jump\t// out\n        /* \"#utility.yul\":15167:15289   */\n    tag_256:\n        /* \"#utility.yul\":15240:15264   */\n      tag_423\n        /* \"#utility.yul\":15258:15263   */\n      dup2\n        /* \"#utility.yul\":15240:15264   */\n      tag_345\n      jump\t// in\n    tag_423:\n        /* \"#utility.yul\":15233:15238   */\n      dup2\n        /* \"#utility.yul\":15230:15265   */\n      eq\n        /* \"#utility.yul\":15220:15283   */\n      tag_424\n      jumpi\n        /* \"#utility.yul\":15279:15280   */\n      0x00\n        /* \"#utility.yul\":15276:15277   */\n      dup1\n        /* \"#utility.yul\":15269:15281   */\n      revert\n        /* \"#utility.yul\":15220:15283   */\n    tag_424:\n        /* \"#utility.yul\":15167:15289   */\n      pop\n      jump\t// out\n\n    auxdata: 0xa264697066735822122099d6aeb522096d2fca995f26ecc66e21e4ea9adfc7a62cb6c987f466bfea8b8e64736f6c63430008070033\n}\n",
				"bytecode": {
					"linkReferences": {},
					"object": "608060405234801561001057600080fd5b5060006001819055506117ad806100286000396000f3fe608060405234801561001057600080fd5b50600436106100935760003560e01c8063a176c86c11610066578063a176c86c1461014a578063acf7545814610168578063beca800914610186578063c1356d26146101a4578063cae65058146101d457610093565b806308e9daa51461009857806362738129146100ca57806381ba02be146100e8578063848924cb14610118575b600080fd5b6100b260048036038101906100ad9190611159565b610204565b6040516100c1939291906113ad565b60405180910390f35b6100d261034e565b6040516100df9190611412565b60405180910390f35b61010260048036038101906100fd9190611056565b610354565b60405161010f9190611392565b60405180910390f35b610132600480360381019061012d919061100d565b610485565b604051610141939291906113ad565b60405180910390f35b610152610740565b60405161015f9190611370565b60405180910390f35b6101706108cd565b60405161017d9190611412565b60405180910390f35b61018e6108d9565b60405161019b9190611370565b60405180910390f35b6101be60048036038101906101b991906110ce565b610ad6565b6040516101cb9190611412565b60405180910390f35b6101ee60048036038101906101e9919061100d565b610b8d565b6040516101fb9190611392565b60405180910390f35b6000818154811061021457600080fd5b9060005260206000209060030201600091509050806000018054610237906115aa565b80601f0160208091040260200160405190810160405280929190818152602001828054610263906115aa565b80156102b05780601f10610285576101008083540402835291602001916102b0565b820191906000526020600020905b81548152906001019060200180831161029357829003601f168201915b5050505050908060010180546102c5906115aa565b80601f01602080910402602001604051908101604052809291908181526020018280546102f1906115aa565b801561033e5780601f106103135761010080835404028352916020019161033e565b820191906000526020600020905b81548152906001019060200180831161032157829003601f168201915b5050505050908060020154905083565b60015481565b600080600090505b6001548110156104795761041d6000828154811061037d5761037c6116b4565b5b90600052602060002090600302016000018054610399906115aa565b80601f01602080910402602001604051908101604052809291908181526020018280546103c5906115aa565b80156104125780601f106103e757610100808354040283529160200191610412565b820191906000526020600020905b8154815290600101906020018083116103f557829003601f168201915b505050505085610d9e565b15610466578260008281548110610437576104366116b4565b5b9060005260206000209060030201600101908051906020019061045b929190610df7565b50600191505061047f565b80806104719061160d565b91505061035c565b50600090505b92915050565b606080600080600090505b6001548110156106fd57610551600082815481106104b1576104b06116b4565b5b906000526020600020906003020160000180546104cd906115aa565b80601f01602080910402602001604051908101604052809291908181526020018280546104f9906115aa565b80156105465780601f1061051b57610100808354040283529160200191610546565b820191906000526020600020905b81548152906001019060200180831161052957829003601f168201915b505050505086610d9e565b156106ea576000818154811061056a576105696116b4565b5b90600052602060002090600302016000016000828154811061058f5761058e6116b4565b5b9060005260206000209060030201600101600083815481106105b4576105b36116b4565b5b9060005260206000209060030201600201548280546105d2906115aa565b80601f01602080910402602001604051908101604052809291908181526020018280546105fe906115aa565b801561064b5780601f106106205761010080835404028352916020019161064b565b820191906000526020600020905b81548152906001019060200180831161062e57829003601f168201915b5050505050925081805461065e906115aa565b80601f016020809104026020016040519081016040528092919081815260200182805461068a906115aa565b80156106d75780601f106106ac576101008083540402835291602001916106d7565b820191906000526020600020905b8154815290600101906020018083116106ba57829003601f168201915b5050505050915093509350935050610739565b80806106f59061160d565b915050610490565b506040517f08c379a0000000000000000000000000000000000000000000000000000000008152600401610730906113f2565b60405180910390fd5b9193909250565b60606000805480602002602001604051908101604052809291908181526020016000905b828210156108c45783829060005260206000209060030201604051806060016040529081600082018054610797906115aa565b80601f01602080910402602001604051908101604052809291908181526020018280546107c3906115aa565b80156108105780601f106107e557610100808354040283529160200191610810565b820191906000526020600020905b8154815290600101906020018083116107f357829003601f168201915b50505050508152602001600182018054610829906115aa565b80601f0160208091040260200160405190810160405280929190818152602001828054610855906115aa565b80156108a25780601f10610877576101008083540402835291602001916108a2565b820191906000526020600020905b81548152906001019060200180831161088557829003601f168201915b5050505050815260200160028201548152505081526020019060010190610764565b50505050905090565b60008080549050905090565b6060600060015467ffffffffffffffff8111156108f9576108f86116e3565b5b60405190808252806020026020018201604052801561093257816020015b61091f610e7d565b8152602001906001900390816109175790505b50905060005b600154811015610ace5760008181548110610956576109556116b4565b5b906000526020600020906003020160405180606001604052908160008201805461097f906115aa565b80601f01602080910402602001604051908101604052809291908181526020018280546109ab906115aa565b80156109f85780601f106109cd576101008083540402835291602001916109f8565b820191906000526020600020905b8154815290600101906020018083116109db57829003601f168201915b50505050508152602001600182018054610a11906115aa565b80601f0160208091040260200160405190810160405280929190818152602001828054610a3d906115aa565b8015610a8a5780601f10610a5f57610100808354040283529160200191610a8a565b820191906000526020600020905b815481529060010190602001808311610a6d57829003601f168201915b50505050508152602001600282015481525050828281518110610ab057610aaf6116b4565b5b60200260200101819052508080610ac69061160d565b915050610938565b508091505090565b600080604051806060016040528086815260200185815260200184815250905060008190806001815401808255809150506001900390600052602060002090600302016000909190919091506000820151816000019080519060200190610b3e929190610df7565b506020820151816001019080519060200190610b5b929190610df7565b5060408201518160020155505060016000815480929190610b7b9061160d565b91905055506001549150509392505050565b60008060015411610b9d57600080fd5b60005b600154811015610d9357610c6160008281548110610bc157610bc06116b4565b5b90600052602060002090600302016000018054610bdd906115aa565b80601f0160208091040260200160405190810160405280929190818152602001828054610c09906115aa565b8015610c565780601f10610c2b57610100808354040283529160200191610c56565b820191906000526020600020905b815481529060010190602001808311610c3957829003601f168201915b505050505084610d9e565b15610d8057600060018054610c7691906114f4565b81548110610c8757610c866116b4565b5b906000526020600020906003020160008281548110610ca957610ca86116b4565b5b90600052602060002090600302016000820181600001908054610ccb906115aa565b610cd6929190610e9e565b506001820181600101908054610ceb906115aa565b610cf6929190610e9e565b5060028201548160020155905050600060018054610d1491906114f4565b81548110610d2557610d246116b4565b5b906000526020600020906003020160008082016000610d449190610f2b565b600182016000610d549190610f2b565b6002820160009055505060016000815480929190610d7190611580565b91905055506001915050610d99565b8080610d8b9061160d565b915050610ba0565b50600090505b919050565b600081604051602001610db19190611359565b6040516020818303038152906040528051906020012083604051602001610dd89190611359565b6040516020818303038152906040528051906020012014905092915050565b828054610e03906115aa565b90600052602060002090601f016020900481019282610e255760008555610e6c565b82601f10610e3e57805160ff1916838001178555610e6c565b82800160010185558215610e6c579182015b82811115610e6b578251825591602001919060010190610e50565b5b509050610e799190610f6b565b5090565b60405180606001604052806060815260200160608152602001600081525090565b828054610eaa906115aa565b90600052602060002090601f016020900481019282610ecc5760008555610f1a565b82601f10610edd5780548555610f1a565b82800160010185558215610f1a57600052602060002091601f016020900482015b82811115610f19578254825591600101919060010190610efe565b5b509050610f279190610f6b565b5090565b508054610f37906115aa565b6000825580601f10610f495750610f68565b601f016020900490600052602060002090810190610f679190610f6b565b5b50565b5b80821115610f84576000816000905550600101610f6c565b5090565b6000610f9b610f9684611452565b61142d565b905082815260208101848484011115610fb757610fb6611717565b5b610fc284828561153e565b509392505050565b600082601f830112610fdf57610fde611712565b5b8135610fef848260208601610f88565b91505092915050565b60008135905061100781611760565b92915050565b60006020828403121561102357611022611721565b5b600082013567ffffffffffffffff8111156110415761104061171c565b5b61104d84828501610fca565b91505092915050565b6000806040838503121561106d5761106c611721565b5b600083013567ffffffffffffffff81111561108b5761108a61171c565b5b61109785828601610fca565b925050602083013567ffffffffffffffff8111156110b8576110b761171c565b5b6110c485828601610fca565b9150509250929050565b6000806000606084860312156110e7576110e6611721565b5b600084013567ffffffffffffffff8111156111055761110461171c565b5b61111186828701610fca565b935050602084013567ffffffffffffffff8111156111325761113161171c565b5b61113e86828701610fca565b925050604061114f86828701610ff8565b9150509250925092565b60006020828403121561116f5761116e611721565b5b600061117d84828501610ff8565b91505092915050565b600061119283836112e4565b905092915050565b60006111a582611493565b6111af81856114b6565b9350836020820285016111c185611483565b8060005b858110156111fd57848403895281516111de8582611186565b94506111e9836114a9565b925060208a019950506001810190506111c5565b50829750879550505050505092915050565b61121881611528565b82525050565b60006112298261149e565b61123381856114c7565b935061124381856020860161154d565b61124c81611726565b840191505092915050565b60006112628261149e565b61126c81856114d8565b935061127c81856020860161154d565b61128581611726565b840191505092915050565b600061129b8261149e565b6112a581856114e9565b93506112b581856020860161154d565b80840191505092915050565b60006112ce6011836114d8565b91506112d982611737565b602082019050919050565b60006060830160008301518482036000860152611301828261121e565b9150506020830151848203602086015261131b828261121e565b9150506040830151611330604086018261133b565b508091505092915050565b61134481611534565b82525050565b61135381611534565b82525050565b60006113658284611290565b915081905092915050565b6000602082019050818103600083015261138a818461119a565b905092915050565b60006020820190506113a7600083018461120f565b92915050565b600060608201905081810360008301526113c78186611257565b905081810360208301526113db8185611257565b90506113ea604083018461134a565b949350505050565b6000602082019050818103600083015261140b816112c1565b9050919050565b6000602082019050611427600083018461134a565b92915050565b6000611437611448565b905061144382826115dc565b919050565b6000604051905090565b600067ffffffffffffffff82111561146d5761146c6116e3565b5b61147682611726565b9050602081019050919050565b6000819050602082019050919050565b600081519050919050565b600081519050919050565b6000602082019050919050565b600082825260208201905092915050565b600082825260208201905092915050565b600082825260208201905092915050565b600081905092915050565b60006114ff82611534565b915061150a83611534565b92508282101561151d5761151c611656565b5b828203905092915050565b60008115159050919050565b6000819050919050565b82818337600083830152505050565b60005b8381101561156b578082015181840152602081019050611550565b8381111561157a576000848401525b50505050565b600061158b82611534565b9150600082141561159f5761159e611656565b5b600182039050919050565b600060028204905060018216806115c257607f821691505b602082108114156115d6576115d5611685565b5b50919050565b6115e582611726565b810181811067ffffffffffffffff82111715611604576116036116e3565b5b80604052505050565b600061161882611534565b91507fffffffffffffffffffffffffffffffffffffffffffffffffffffffffffffffff82141561164b5761164a611656565b5b600182019050919050565b7f4e487b7100000000000000000000000000000000000000000000000000000000600052601160045260246000fd5b7f4e487b7100000000000000000000000000000000000000000000000000000000600052602260045260246000fd5b7f4e487b7100000000000000000000000000000000000000000000000000000000600052603260045260246000fd5b7f4e487b7100000000000000000000000000000000000000000000000000000000600052604160045260246000fd5b600080fd5b600080fd5b600080fd5b600080fd5b6000601f19601f8301169050919050565b7f636f756e747279206e6f7420666f756e64000000000000000000000000000000600082015250565b61176981611534565b811461177457600080fd5b5056fea264697066735822122099d6aeb522096d2fca995f26ecc66e21e4ea9adfc7a62cb6c987f466bfea8b8e64736f6c63430008070033",
					"opcodes": "PUSH1 0x80 PUSH1 0x40 MSTORE CALLVALUE DUP1 ISZERO PUSH2 0x10 JUMPI PUSH1 0x0 DUP1 REVERT JUMPDEST POP PUSH1 0x0 PUSH1 0x1 DUP2 SWAP1 SSTORE POP PUSH2 0x17AD DUP1 PUSH2 0x28 PUSH1 0x0 CODECOPY PUSH1 0x0 RETURN INVALID PUSH1 0x80 PUSH1 0x40 MSTORE CALLVALUE DUP1 ISZERO PUSH2 0x10 JUMPI PUSH1 0x0 DUP1 REVERT JUMPDEST POP PUSH1 0x4 CALLDATASIZE LT PUSH2 0x93 JUMPI PUSH1 0x0 CALLDATALOAD PUSH1 0xE0 SHR DUP1 PUSH4 0xA176C86C GT PUSH2 0x66 JUMPI DUP1 PUSH4 0xA176C86C EQ PUSH2 0x14A JUMPI DUP1 PUSH4 0xACF75458 EQ PUSH2 0x168 JUMPI DUP1 PUSH4 0xBECA8009 EQ PUSH2 0x186 JUMPI DUP1 PUSH4 0xC1356D26 EQ PUSH2 0x1A4 JUMPI DUP1 PUSH4 0xCAE65058 EQ PUSH2 0x1D4 JUMPI PUSH2 0x93 JUMP JUMPDEST DUP1 PUSH4 0x8E9DAA5 EQ PUSH2 0x98 JUMPI DUP1 PUSH4 0x62738129 EQ PUSH2 0xCA JUMPI DUP1 PUSH4 0x81BA02BE EQ PUSH2 0xE8 JUMPI DUP1 PUSH4 0x848924CB EQ PUSH2 0x118 JUMPI JUMPDEST PUSH1 0x0 DUP1 REVERT JUMPDEST PUSH2 0xB2 PUSH1 0x4 DUP1 CALLDATASIZE SUB DUP2 ADD SWAP1 PUSH2 0xAD SWAP2 SWAP1 PUSH2 0x1159 JUMP JUMPDEST PUSH2 0x204 JUMP JUMPDEST PUSH1 0x40 MLOAD PUSH2 0xC1 SWAP4 SWAP3 SWAP2 SWAP1 PUSH2 0x13AD JUMP JUMPDEST PUSH1 0x40 MLOAD DUP1 SWAP2 SUB SWAP1 RETURN JUMPDEST PUSH2 0xD2 PUSH2 0x34E JUMP JUMPDEST PUSH1 0x40 MLOAD PUSH2 0xDF SWAP2 SWAP1 PUSH2 0x1412 JUMP JUMPDEST PUSH1 0x40 MLOAD DUP1 SWAP2 SUB SWAP1 RETURN JUMPDEST PUSH2 0x102 PUSH1 0x4 DUP1 CALLDATASIZE SUB DUP2 ADD SWAP1 PUSH2 0xFD SWAP2 SWAP1 PUSH2 0x1056 JUMP JUMPDEST PUSH2 0x354 JUMP JUMPDEST PUSH1 0x40 MLOAD PUSH2 0x10F SWAP2 SWAP1 PUSH2 0x1392 JUMP JUMPDEST PUSH1 0x40 MLOAD DUP1 SWAP2 SUB SWAP1 RETURN JUMPDEST PUSH2 0x132 PUSH1 0x4 DUP1 CALLDATASIZE SUB DUP2 ADD SWAP1 PUSH2 0x12D SWAP2 SWAP1 PUSH2 0x100D JUMP JUMPDEST PUSH2 0x485 JUMP JUMPDEST PUSH1 0x40 MLOAD PUSH2 0x141 SWAP4 SWAP3 SWAP2 SWAP1 PUSH2 0x13AD JUMP JUMPDEST PUSH1 0x40 MLOAD DUP1 SWAP2 SUB SWAP1 RETURN JUMPDEST PUSH2 0x152 PUSH2 0x740 JUMP JUMPDEST PUSH1 0x40 MLOAD PUSH2 0x15F SWAP2 SWAP1 PUSH2 0x1370 JUMP JUMPDEST PUSH1 0x40 MLOAD DUP1 SWAP2 SUB SWAP1 RETURN JUMPDEST PUSH2 0x170 PUSH2 0x8CD JUMP JUMPDEST PUSH1 0x40 MLOAD PUSH2 0x17D SWAP2 SWAP1 PUSH2 0x1412 JUMP JUMPDEST PUSH1 0x40 MLOAD DUP1 SWAP2 SUB SWAP1 RETURN JUMPDEST PUSH2 0x18E PUSH2 0x8D9 JUMP JUMPDEST PUSH1 0x40 MLOAD PUSH2 0x19B SWAP2 SWAP1 PUSH2 0x1370 JUMP JUMPDEST PUSH1 0x40 MLOAD DUP1 SWAP2 SUB SWAP1 RETURN JUMPDEST PUSH2 0x1BE PUSH1 0x4 DUP1 CALLDATASIZE SUB DUP2 ADD SWAP1 PUSH2 0x1B9 SWAP2 SWAP1 PUSH2 0x10CE JUMP JUMPDEST PUSH2 0xAD6 JUMP JUMPDEST PUSH1 0x40 MLOAD PUSH2 0x1CB SWAP2 SWAP1 PUSH2 0x1412 JUMP JUMPDEST PUSH1 0x40 MLOAD DUP1 SWAP2 SUB SWAP1 RETURN JUMPDEST PUSH2 0x1EE PUSH1 0x4 DUP1 CALLDATASIZE SUB DUP2 ADD SWAP1 PUSH2 0x1E9 SWAP2 SWAP1 PUSH2 0x100D JUMP JUMPDEST PUSH2 0xB8D JUMP JUMPDEST PUSH1 0x40 MLOAD PUSH2 0x1FB SWAP2 SWAP1 PUSH2 0x1392 JUMP JUMPDEST PUSH1 0x40 MLOAD DUP1 SWAP2 SUB SWAP1 RETURN JUMPDEST PUSH1 0x0 DUP2 DUP2 SLOAD DUP2 LT PUSH2 0x214 JUMPI PUSH1 0x0 DUP1 REVERT JUMPDEST SWAP1 PUSH1 0x0 MSTORE PUSH1 0x20 PUSH1 0x0 KECCAK256 SWAP1 PUSH1 0x3 MUL ADD PUSH1 0x0 SWAP2 POP SWAP1 POP DUP1 PUSH1 0x0 ADD DUP1 SLOAD PUSH2 0x237 SWAP1 PUSH2 0x15AA JUMP JUMPDEST DUP1 PUSH1 0x1F ADD PUSH1 0x20 DUP1 SWAP2 DIV MUL PUSH1 0x20 ADD PUSH1 0x40 MLOAD SWAP1 DUP2 ADD PUSH1 0x40 MSTORE DUP1 SWAP3 SWAP2 SWAP1 DUP2 DUP2 MSTORE PUSH1 0x20 ADD DUP3 DUP1 SLOAD PUSH2 0x263 SWAP1 PUSH2 0x15AA JUMP JUMPDEST DUP1 ISZERO PUSH2 0x2B0 JUMPI DUP1 PUSH1 0x1F LT PUSH2 0x285 JUMPI PUSH2 0x100 DUP1 DUP4 SLOAD DIV MUL DUP4 MSTORE SWAP2 PUSH1 0x20 ADD SWAP2 PUSH2 0x2B0 JUMP JUMPDEST DUP3 ADD SWAP2 SWAP1 PUSH1 0x0 MSTORE PUSH1 0x20 PUSH1 0x0 KECCAK256 SWAP1 JUMPDEST DUP2 SLOAD DUP2 MSTORE SWAP1 PUSH1 0x1 ADD SWAP1 PUSH1 0x20 ADD DUP1 DUP4 GT PUSH2 0x293 JUMPI DUP3 SWAP1 SUB PUSH1 0x1F AND DUP3 ADD SWAP2 JUMPDEST POP POP POP POP POP SWAP1 DUP1 PUSH1 0x1 ADD DUP1 SLOAD PUSH2 0x2C5 SWAP1 PUSH2 0x15AA JUMP JUMPDEST DUP1 PUSH1 0x1F ADD PUSH1 0x20 DUP1 SWAP2 DIV MUL PUSH1 0x20 ADD PUSH1 0x40 MLOAD SWAP1 DUP2 ADD PUSH1 0x40 MSTORE DUP1 SWAP3 SWAP2 SWAP1 DUP2 DUP2 MSTORE PUSH1 0x20 ADD DUP3 DUP1 SLOAD PUSH2 0x2F1 SWAP1 PUSH2 0x15AA JUMP JUMPDEST DUP1 ISZERO PUSH2 0x33E JUMPI DUP1 PUSH1 0x1F LT PUSH2 0x313 JUMPI PUSH2 0x100 DUP1 DUP4 SLOAD DIV MUL DUP4 MSTORE SWAP2 PUSH1 0x20 ADD SWAP2 PUSH2 0x33E JUMP JUMPDEST DUP3 ADD SWAP2 SWAP1 PUSH1 0x0 MSTORE PUSH1 0x20 PUSH1 0x0 KECCAK256 SWAP1 JUMPDEST DUP2 SLOAD DUP2 MSTORE SWAP1 PUSH1 0x1 ADD SWAP1 PUSH1 0x20 ADD DUP1 DUP4 GT PUSH2 0x321 JUMPI DUP3 SWAP1 SUB PUSH1 0x1F AND DUP3 ADD SWAP2 JUMPDEST POP POP POP POP POP SWAP1 DUP1 PUSH1 0x2 ADD SLOAD SWAP1 POP DUP4 JUMP JUMPDEST PUSH1 0x1 SLOAD DUP2 JUMP JUMPDEST PUSH1 0x0 DUP1 PUSH1 0x0 SWAP1 POP JUMPDEST PUSH1 0x1 SLOAD DUP2 LT ISZERO PUSH2 0x479 JUMPI PUSH2 0x41D PUSH1 0x0 DUP3 DUP2 SLOAD DUP2 LT PUSH2 0x37D JUMPI PUSH2 0x37C PUSH2 0x16B4 JUMP JUMPDEST JUMPDEST SWAP1 PUSH1 0x0 MSTORE PUSH1 0x20 PUSH1 0x0 KECCAK256 SWAP1 PUSH1 0x3 MUL ADD PUSH1 0x0 ADD DUP1 SLOAD PUSH2 0x399 SWAP1 PUSH2 0x15AA JUMP JUMPDEST DUP1 PUSH1 0x1F ADD PUSH1 0x20 DUP1 SWAP2 DIV MUL PUSH1 0x20 ADD PUSH1 0x40 MLOAD SWAP1 DUP2 ADD PUSH1 0x40 MSTORE DUP1 SWAP3 SWAP2 SWAP1 DUP2 DUP2 MSTORE PUSH1 0x20 ADD DUP3 DUP1 SLOAD PUSH2 0x3C5 SWAP1 PUSH2 0x15AA JUMP JUMPDEST DUP1 ISZERO PUSH2 0x412 JUMPI DUP1 PUSH1 0x1F LT PUSH2 0x3E7 JUMPI PUSH2 0x100 DUP1 DUP4 SLOAD DIV MUL DUP4 MSTORE SWAP2 PUSH1 0x20 ADD SWAP2 PUSH2 0x412 JUMP JUMPDEST DUP3 ADD SWAP2 SWAP1 PUSH1 0x0 MSTORE PUSH1 0x20 PUSH1 0x0 KECCAK256 SWAP1 JUMPDEST DUP2 SLOAD DUP2 MSTORE SWAP1 PUSH1 0x1 ADD SWAP1 PUSH1 0x20 ADD DUP1 DUP4 GT PUSH2 0x3F5 JUMPI DUP3 SWAP1 SUB PUSH1 0x1F AND DUP3 ADD SWAP2 JUMPDEST POP POP POP POP POP DUP6 PUSH2 0xD9E JUMP JUMPDEST ISZERO PUSH2 0x466 JUMPI DUP3 PUSH1 0x0 DUP3 DUP2 SLOAD DUP2 LT PUSH2 0x437 JUMPI PUSH2 0x436 PUSH2 0x16B4 JUMP JUMPDEST JUMPDEST SWAP1 PUSH1 0x0 MSTORE PUSH1 0x20 PUSH1 0x0 KECCAK256 SWAP1 PUSH1 0x3 MUL ADD PUSH1 0x1 ADD SWAP1 DUP1 MLOAD SWAP1 PUSH1 0x20 ADD SWAP1 PUSH2 0x45B SWAP3 SWAP2 SWAP1 PUSH2 0xDF7 JUMP JUMPDEST POP PUSH1 0x1 SWAP2 POP POP PUSH2 0x47F JUMP JUMPDEST DUP1 DUP1 PUSH2 0x471 SWAP1 PUSH2 0x160D JUMP JUMPDEST SWAP2 POP POP PUSH2 0x35C JUMP JUMPDEST POP PUSH1 0x0 SWAP1 POP JUMPDEST SWAP3 SWAP2 POP POP JUMP JUMPDEST PUSH1 0x60 DUP1 PUSH1 0x0 DUP1 PUSH1 0x0 SWAP1 POP JUMPDEST PUSH1 0x1 SLOAD DUP2 LT ISZERO PUSH2 0x6FD JUMPI PUSH2 0x551 PUSH1 0x0 DUP3 DUP2 SLOAD DUP2 LT PUSH2 0x4B1 JUMPI PUSH2 0x4B0 PUSH2 0x16B4 JUMP JUMPDEST JUMPDEST SWAP1 PUSH1 0x0 MSTORE PUSH1 0x20 PUSH1 0x0 KECCAK256 SWAP1 PUSH1 0x3 MUL ADD PUSH1 0x0 ADD DUP1 SLOAD PUSH2 0x4CD SWAP1 PUSH2 0x15AA JUMP JUMPDEST DUP1 PUSH1 0x1F ADD PUSH1 0x20 DUP1 SWAP2 DIV MUL PUSH1 0x20 ADD PUSH1 0x40 MLOAD SWAP1 DUP2 ADD PUSH1 0x40 MSTORE DUP1 SWAP3 SWAP2 SWAP1 DUP2 DUP2 MSTORE PUSH1 0x20 ADD DUP3 DUP1 SLOAD PUSH2 0x4F9 SWAP1 PUSH2 0x15AA JUMP JUMPDEST DUP1 ISZERO PUSH2 0x546 JUMPI DUP1 PUSH1 0x1F LT PUSH2 0x51B JUMPI PUSH2 0x100 DUP1 DUP4 SLOAD DIV MUL DUP4 MSTORE SWAP2 PUSH1 0x20 ADD SWAP2 PUSH2 0x546 JUMP JUMPDEST DUP3 ADD SWAP2 SWAP1 PUSH1 0x0 MSTORE PUSH1 0x20 PUSH1 0x0 KECCAK256 SWAP1 JUMPDEST DUP2 SLOAD DUP2 MSTORE SWAP1 PUSH1 0x1 ADD SWAP1 PUSH1 0x20 ADD DUP1 DUP4 GT PUSH2 0x529 JUMPI DUP3 SWAP1 SUB PUSH1 0x1F AND DUP3 ADD SWAP2 JUMPDEST POP POP POP POP POP DUP7 PUSH2 0xD9E JUMP JUMPDEST ISZERO PUSH2 0x6EA JUMPI PUSH1 0x0 DUP2 DUP2 SLOAD DUP2 LT PUSH2 0x56A JUMPI PUSH2 0x569 PUSH2 0x16B4 JUMP JUMPDEST JUMPDEST SWAP1 PUSH1 0x0 MSTORE PUSH1 0x20 PUSH1 0x0 KECCAK256 SWAP1 PUSH1 0x3 MUL ADD PUSH1 0x0 ADD PUSH1 0x0 DUP3 DUP2 SLOAD DUP2 LT PUSH2 0x58F JUMPI PUSH2 0x58E PUSH2 0x16B4 JUMP JUMPDEST JUMPDEST SWAP1 PUSH1 0x0 MSTORE PUSH1 0x20 PUSH1 0x0 KECCAK256 SWAP1 PUSH1 0x3 MUL ADD PUSH1 0x1 ADD PUSH1 0x0 DUP4 DUP2 SLOAD DUP2 LT PUSH2 0x5B4 JUMPI PUSH2 0x5B3 PUSH2 0x16B4 JUMP JUMPDEST JUMPDEST SWAP1 PUSH1 0x0 MSTORE PUSH1 0x20 PUSH1 0x0 KECCAK256 SWAP1 PUSH1 0x3 MUL ADD PUSH1 0x2 ADD SLOAD DUP3 DUP1 SLOAD PUSH2 0x5D2 SWAP1 PUSH2 0x15AA JUMP JUMPDEST DUP1 PUSH1 0x1F ADD PUSH1 0x20 DUP1 SWAP2 DIV MUL PUSH1 0x20 ADD PUSH1 0x40 MLOAD SWAP1 DUP2 ADD PUSH1 0x40 MSTORE DUP1 SWAP3 SWAP2 SWAP1 DUP2 DUP2 MSTORE PUSH1 0x20 ADD DUP3 DUP1 SLOAD PUSH2 0x5FE SWAP1 PUSH2 0x15AA JUMP JUMPDEST DUP1 ISZERO PUSH2 0x64B JUMPI DUP1 PUSH1 0x1F LT PUSH2 0x620 JUMPI PUSH2 0x100 DUP1 DUP4 SLOAD DIV MUL DUP4 MSTORE SWAP2 PUSH1 0x20 ADD SWAP2 PUSH2 0x64B JUMP JUMPDEST DUP3 ADD SWAP2 SWAP1 PUSH1 0x0 MSTORE PUSH1 0x20 PUSH1 0x0 KECCAK256 SWAP1 JUMPDEST DUP2 SLOAD DUP2 MSTORE SWAP1 PUSH1 0x1 ADD SWAP1 PUSH1 0x20 ADD DUP1 DUP4 GT PUSH2 0x62E JUMPI DUP3 SWAP1 SUB PUSH1 0x1F AND DUP3 ADD SWAP2 JUMPDEST POP POP POP POP POP SWAP3 POP DUP2 DUP1 SLOAD PUSH2 0x65E SWAP1 PUSH2 0x15AA JUMP JUMPDEST DUP1 PUSH1 0x1F ADD PUSH1 0x20 DUP1 SWAP2 DIV MUL PUSH1 0x20 ADD PUSH1 0x40 MLOAD SWAP1 DUP2 ADD PUSH1 0x40 MSTORE DUP1 SWAP3 SWAP2 SWAP1 DUP2 DUP2 MSTORE PUSH1 0x20 ADD DUP3 DUP1 SLOAD PUSH2 0x68A SWAP1 PUSH2 0x15AA JUMP JUMPDEST DUP1 ISZERO PUSH2 0x6D7 JUMPI DUP1 PUSH1 0x1F LT PUSH2 0x6AC JUMPI PUSH2 0x100 DUP1 DUP4 SLOAD DIV MUL DUP4 MSTORE SWAP2 PUSH1 0x20 ADD SWAP2 PUSH2 0x6D7 JUMP JUMPDEST DUP3 ADD SWAP2 SWAP1 PUSH1 0x0 MSTORE PUSH1 0x20 PUSH1 0x0 KECCAK256 SWAP1 JUMPDEST DUP2 SLOAD DUP2 MSTORE SWAP1 PUSH1 0x1 ADD SWAP1 PUSH1 0x20 ADD DUP1 DUP4 GT PUSH2 0x6BA JUMPI DUP3 SWAP1 SUB PUSH1 0x1F AND DUP3 ADD SWAP2 JUMPDEST POP POP POP POP POP SWAP2 POP SWAP4 POP SWAP4 POP SWAP4 POP POP PUSH2 0x739 JUMP JUMPDEST DUP1 DUP1 PUSH2 0x6F5 SWAP1 PUSH2 0x160D JUMP JUMPDEST SWAP2 POP POP PUSH2 0x490 JUMP JUMPDEST POP PUSH1 0x40 MLOAD PUSH32 0x8C379A000000000000000000000000000000000000000000000000000000000 DUP2 MSTORE PUSH1 0x4 ADD PUSH2 0x730 SWAP1 PUSH2 0x13F2 JUMP JUMPDEST PUSH1 0x40 MLOAD DUP1 SWAP2 SUB SWAP1 REVERT JUMPDEST SWAP2 SWAP4 SWAP1 SWAP3 POP JUMP JUMPDEST PUSH1 0x60 PUSH1 0x0 DUP1 SLOAD DUP1 PUSH1 0x20 MUL PUSH1 0x20 ADD PUSH1 0x40 MLOAD SWAP1 DUP2 ADD PUSH1 0x40 MSTORE DUP1 SWAP3 SWAP2 SWAP1 DUP2 DUP2 MSTORE PUSH1 0x20 ADD PUSH1 0x0 SWAP1 JUMPDEST DUP3 DUP3 LT ISZERO PUSH2 0x8C4 JUMPI DUP4 DUP3 SWAP1 PUSH1 0x0 MSTORE PUSH1 0x20 PUSH1 0x0 KECCAK256 SWAP1 PUSH1 0x3 MUL ADD PUSH1 0x40 MLOAD DUP1 PUSH1 0x60 ADD PUSH1 0x40 MSTORE SWAP1 DUP2 PUSH1 0x0 DUP3 ADD DUP1 SLOAD PUSH2 0x797 SWAP1 PUSH2 0x15AA JUMP JUMPDEST DUP1 PUSH1 0x1F ADD PUSH1 0x20 DUP1 SWAP2 DIV MUL PUSH1 0x20 ADD PUSH1 0x40 MLOAD SWAP1 DUP2 ADD PUSH1 0x40 MSTORE DUP1 SWAP3 SWAP2 SWAP1 DUP2 DUP2 MSTORE PUSH1 0x20 ADD DUP3 DUP1 SLOAD PUSH2 0x7C3 SWAP1 PUSH2 0x15AA JUMP JUMPDEST DUP1 ISZERO PUSH2 0x810 JUMPI DUP1 PUSH1 0x1F LT PUSH2 0x7E5 JUMPI PUSH2 0x100 DUP1 DUP4 SLOAD DIV MUL DUP4 MSTORE SWAP2 PUSH1 0x20 ADD SWAP2 PUSH2 0x810 JUMP JUMPDEST DUP3 ADD SWAP2 SWAP1 PUSH1 0x0 MSTORE PUSH1 0x20 PUSH1 0x0 KECCAK256 SWAP1 JUMPDEST DUP2 SLOAD DUP2 MSTORE SWAP1 PUSH1 0x1 ADD SWAP1 PUSH1 0x20 ADD DUP1 DUP4 GT PUSH2 0x7F3 JUMPI DUP3 SWAP1 SUB PUSH1 0x1F AND DUP3 ADD SWAP2 JUMPDEST POP POP POP POP POP DUP2 MSTORE PUSH1 0x20 ADD PUSH1 0x1 DUP3 ADD DUP1 SLOAD PUSH2 0x829 SWAP1 PUSH2 0x15AA JUMP JUMPDEST DUP1 PUSH1 0x1F ADD PUSH1 0x20 DUP1 SWAP2 DIV MUL PUSH1 0x20 ADD PUSH1 0x40 MLOAD SWAP1 DUP2 ADD PUSH1 0x40 MSTORE DUP1 SWAP3 SWAP2 SWAP1 DUP2 DUP2 MSTORE PUSH1 0x20 ADD DUP3 DUP1 SLOAD PUSH2 0x855 SWAP1 PUSH2 0x15AA JUMP JUMPDEST DUP1 ISZERO PUSH2 0x8A2 JUMPI DUP1 PUSH1 0x1F LT PUSH2 0x877 JUMPI PUSH2 0x100 DUP1 DUP4 SLOAD DIV MUL DUP4 MSTORE SWAP2 PUSH1 0x20 ADD SWAP2 PUSH2 0x8A2 JUMP JUMPDEST DUP3 ADD SWAP2 SWAP1 PUSH1 0x0 MSTORE PUSH1 0x20 PUSH1 0x0 KECCAK256 SWAP1 JUMPDEST DUP2 SLOAD DUP2 MSTORE SWAP1 PUSH1 0x1 ADD SWAP1 PUSH1 0x20 ADD DUP1 DUP4 GT PUSH2 0x885 JUMPI DUP3 SWAP1 SUB PUSH1 0x1F AND DUP3 ADD SWAP2 JUMPDEST POP POP POP POP POP DUP2 MSTORE PUSH1 0x20 ADD PUSH1 0x2 DUP3 ADD SLOAD DUP2 MSTORE POP POP DUP2 MSTORE PUSH1 0x20 ADD SWAP1 PUSH1 0x1 ADD SWAP1 PUSH2 0x764 JUMP JUMPDEST POP POP POP POP SWAP1 POP SWAP1 JUMP JUMPDEST PUSH1 0x0 DUP1 DUP1 SLOAD SWAP1 POP SWAP1 POP SWAP1 JUMP JUMPDEST PUSH1 0x60 PUSH1 0x0 PUSH1 0x1 SLOAD PUSH8 0xFFFFFFFFFFFFFFFF DUP2 GT ISZERO PUSH2 0x8F9 JUMPI PUSH2 0x8F8 PUSH2 0x16E3 JUMP JUMPDEST JUMPDEST PUSH1 0x40 MLOAD SWAP1 DUP1 DUP3 MSTORE DUP1 PUSH1 0x20 MUL PUSH1 0x20 ADD DUP3 ADD PUSH1 0x40 MSTORE DUP1 ISZERO PUSH2 0x932 JUMPI DUP2 PUSH1 0x20 ADD JUMPDEST PUSH2 0x91F PUSH2 0xE7D JUMP JUMPDEST DUP2 MSTORE PUSH1 0x20 ADD SWAP1 PUSH1 0x1 SWAP1 SUB SWAP1 DUP2 PUSH2 0x917 JUMPI SWAP1 POP JUMPDEST POP SWAP1 POP PUSH1 0x0 JUMPDEST PUSH1 0x1 SLOAD DUP2 LT ISZERO PUSH2 0xACE JUMPI PUSH1 0x0 DUP2 DUP2 SLOAD DUP2 LT PUSH2 0x956 JUMPI PUSH2 0x955 PUSH2 0x16B4 JUMP JUMPDEST JUMPDEST SWAP1 PUSH1 0x0 MSTORE PUSH1 0x20 PUSH1 0x0 KECCAK256 SWAP1 PUSH1 0x3 MUL ADD PUSH1 0x40 MLOAD DUP1 PUSH1 0x60 ADD PUSH1 0x40 MSTORE SWAP1 DUP2 PUSH1 0x0 DUP3 ADD DUP1 SLOAD PUSH2 0x97F SWAP1 PUSH2 0x15AA JUMP JUMPDEST DUP1 PUSH1 0x1F ADD PUSH1 0x20 DUP1 SWAP2 DIV MUL PUSH1 0x20 ADD PUSH1 0x40 MLOAD SWAP1 DUP2 ADD PUSH1 0x40 MSTORE DUP1 SWAP3 SWAP2 SWAP1 DUP2 DUP2 MSTORE PUSH1 0x20 ADD DUP3 DUP1 SLOAD PUSH2 0x9AB SWAP1 PUSH2 0x15AA JUMP JUMPDEST DUP1 ISZERO PUSH2 0x9F8 JUMPI DUP1 PUSH1 0x1F LT PUSH2 0x9CD JUMPI PUSH2 0x100 DUP1 DUP4 SLOAD DIV MUL DUP4 MSTORE SWAP2 PUSH1 0x20 ADD SWAP2 PUSH2 0x9F8 JUMP JUMPDEST DUP3 ADD SWAP2 SWAP1 PUSH1 0x0 MSTORE PUSH1 0x20 PUSH1 0x0 KECCAK256 SWAP1 JUMPDEST DUP2 SLOAD DUP2 MSTORE SWAP1 PUSH1 0x1 ADD SWAP1 PUSH1 0x20 ADD DUP1 DUP4 GT PUSH2 0x9DB JUMPI DUP3 SWAP1 SUB PUSH1 0x1F AND DUP3 ADD SWAP2 JUMPDEST POP POP POP POP POP DUP2 MSTORE PUSH1 0x20 ADD PUSH1 0x1 DUP3 ADD DUP1 SLOAD PUSH2 0xA11 SWAP1 PUSH2 0x15AA JUMP JUMPDEST DUP1 PUSH1 0x1F ADD PUSH1 0x20 DUP1 SWAP2 DIV MUL PUSH1 0x20 ADD PUSH1 0x40 MLOAD SWAP1 DUP2 ADD PUSH1 0x40 MSTORE DUP1 SWAP3 SWAP2 SWAP1 DUP2 DUP2 MSTORE PUSH1 0x20 ADD DUP3 DUP1 SLOAD PUSH2 0xA3D SWAP1 PUSH2 0x15AA JUMP JUMPDEST DUP1 ISZERO PUSH2 0xA8A JUMPI DUP1 PUSH1 0x1F LT PUSH2 0xA5F JUMPI PUSH2 0x100 DUP1 DUP4 SLOAD DIV MUL DUP4 MSTORE SWAP2 PUSH1 0x20 ADD SWAP2 PUSH2 0xA8A JUMP JUMPDEST DUP3 ADD SWAP2 SWAP1 PUSH1 0x0 MSTORE PUSH1 0x20 PUSH1 0x0 KECCAK256 SWAP1 JUMPDEST DUP2 SLOAD DUP2 MSTORE SWAP1 PUSH1 0x1 ADD SWAP1 PUSH1 0x20 ADD DUP1 DUP4 GT PUSH2 0xA6D JUMPI DUP3 SWAP1 SUB PUSH1 0x1F AND DUP3 ADD SWAP2 JUMPDEST POP POP POP POP POP DUP2 MSTORE PUSH1 0x20 ADD PUSH1 0x2 DUP3 ADD SLOAD DUP2 MSTORE POP POP DUP3 DUP3 DUP2 MLOAD DUP2 LT PUSH2 0xAB0 JUMPI PUSH2 0xAAF PUSH2 0x16B4 JUMP JUMPDEST JUMPDEST PUSH1 0x20 MUL PUSH1 0x20 ADD ADD DUP2 SWAP1 MSTORE POP DUP1 DUP1 PUSH2 0xAC6 SWAP1 PUSH2 0x160D JUMP JUMPDEST SWAP2 POP POP PUSH2 0x938 JUMP JUMPDEST POP DUP1 SWAP2 POP POP SWAP1 JUMP JUMPDEST PUSH1 0x0 DUP1 PUSH1 0x40 MLOAD DUP1 PUSH1 0x60 ADD PUSH1 0x40 MSTORE DUP1 DUP7 DUP2 MSTORE PUSH1 0x20 ADD DUP6 DUP2 MSTORE PUSH1 0x20 ADD DUP5 DUP2 MSTORE POP SWAP1 POP PUSH1 0x0 DUP2 SWAP1 DUP1 PUSH1 0x1 DUP2 SLOAD ADD DUP1 DUP3 SSTORE DUP1 SWAP2 POP POP PUSH1 0x1 SWAP1 SUB SWAP1 PUSH1 0x0 MSTORE PUSH1 0x20 PUSH1 0x0 KECCAK256 SWAP1 PUSH1 0x3 MUL ADD PUSH1 0x0 SWAP1 SWAP2 SWAP1 SWAP2 SWAP1 SWAP2 POP PUSH1 0x0 DUP3 ADD MLOAD DUP2 PUSH1 0x0 ADD SWAP1 DUP1 MLOAD SWAP1 PUSH1 0x20 ADD SWAP1 PUSH2 0xB3E SWAP3 SWAP2 SWAP1 PUSH2 0xDF7 JUMP JUMPDEST POP PUSH1 0x20 DUP3 ADD MLOAD DUP2 PUSH1 0x1 ADD SWAP1 DUP1 MLOAD SWAP1 PUSH1 0x20 ADD SWAP1 PUSH2 0xB5B SWAP3 SWAP2 SWAP1 PUSH2 0xDF7 JUMP JUMPDEST POP PUSH1 0x40 DUP3 ADD MLOAD DUP2 PUSH1 0x2 ADD SSTORE POP POP PUSH1 0x1 PUSH1 0x0 DUP2 SLOAD DUP1 SWAP3 SWAP2 SWAP1 PUSH2 0xB7B SWAP1 PUSH2 0x160D JUMP JUMPDEST SWAP2 SWAP1 POP SSTORE POP PUSH1 0x1 SLOAD SWAP2 POP POP SWAP4 SWAP3 POP POP POP JUMP JUMPDEST PUSH1 0x0 DUP1 PUSH1 0x1 SLOAD GT PUSH2 0xB9D JUMPI PUSH1 0x0 DUP1 REVERT JUMPDEST PUSH1 0x0 JUMPDEST PUSH1 0x1 SLOAD DUP2 LT ISZERO PUSH2 0xD93 JUMPI PUSH2 0xC61 PUSH1 0x0 DUP3 DUP2 SLOAD DUP2 LT PUSH2 0xBC1 JUMPI PUSH2 0xBC0 PUSH2 0x16B4 JUMP JUMPDEST JUMPDEST SWAP1 PUSH1 0x0 MSTORE PUSH1 0x20 PUSH1 0x0 KECCAK256 SWAP1 PUSH1 0x3 MUL ADD PUSH1 0x0 ADD DUP1 SLOAD PUSH2 0xBDD SWAP1 PUSH2 0x15AA JUMP JUMPDEST DUP1 PUSH1 0x1F ADD PUSH1 0x20 DUP1 SWAP2 DIV MUL PUSH1 0x20 ADD PUSH1 0x40 MLOAD SWAP1 DUP2 ADD PUSH1 0x40 MSTORE DUP1 SWAP3 SWAP2 SWAP1 DUP2 DUP2 MSTORE PUSH1 0x20 ADD DUP3 DUP1 SLOAD PUSH2 0xC09 SWAP1 PUSH2 0x15AA JUMP JUMPDEST DUP1 ISZERO PUSH2 0xC56 JUMPI DUP1 PUSH1 0x1F LT PUSH2 0xC2B JUMPI PUSH2 0x100 DUP1 DUP4 SLOAD DIV MUL DUP4 MSTORE SWAP2 PUSH1 0x20 ADD SWAP2 PUSH2 0xC56 JUMP JUMPDEST DUP3 ADD SWAP2 SWAP1 PUSH1 0x0 MSTORE PUSH1 0x20 PUSH1 0x0 KECCAK256 SWAP1 JUMPDEST DUP2 SLOAD DUP2 MSTORE SWAP1 PUSH1 0x1 ADD SWAP1 PUSH1 0x20 ADD DUP1 DUP4 GT PUSH2 0xC39 JUMPI DUP3 SWAP1 SUB PUSH1 0x1F AND DUP3 ADD SWAP2 JUMPDEST POP POP POP POP POP DUP5 PUSH2 0xD9E JUMP JUMPDEST ISZERO PUSH2 0xD80 JUMPI PUSH1 0x0 PUSH1 0x1 DUP1 SLOAD PUSH2 0xC76 SWAP2 SWAP1 PUSH2 0x14F4 JUMP JUMPDEST DUP2 SLOAD DUP2 LT PUSH2 0xC87 JUMPI PUSH2 0xC86 PUSH2 0x16B4 JUMP JUMPDEST JUMPDEST SWAP1 PUSH1 0x0 MSTORE PUSH1 0x20 PUSH1 0x0 KECCAK256 SWAP1 PUSH1 0x3 MUL ADD PUSH1 0x0 DUP3 DUP2 SLOAD DUP2 LT PUSH2 0xCA9 JUMPI PUSH2 0xCA8 PUSH2 0x16B4 JUMP JUMPDEST JUMPDEST SWAP1 PUSH1 0x0 MSTORE PUSH1 0x20 PUSH1 0x0 KECCAK256 SWAP1 PUSH1 0x3 MUL ADD PUSH1 0x0 DUP3 ADD DUP2 PUSH1 0x0 ADD SWAP1 DUP1 SLOAD PUSH2 0xCCB SWAP1 PUSH2 0x15AA JUMP JUMPDEST PUSH2 0xCD6 SWAP3 SWAP2 SWAP1 PUSH2 0xE9E JUMP JUMPDEST POP PUSH1 0x1 DUP3 ADD DUP2 PUSH1 0x1 ADD SWAP1 DUP1 SLOAD PUSH2 0xCEB SWAP1 PUSH2 0x15AA JUMP JUMPDEST PUSH2 0xCF6 SWAP3 SWAP2 SWAP1 PUSH2 0xE9E JUMP JUMPDEST POP PUSH1 0x2 DUP3 ADD SLOAD DUP2 PUSH1 0x2 ADD SSTORE SWAP1 POP POP PUSH1 0x0 PUSH1 0x1 DUP1 SLOAD PUSH2 0xD14 SWAP2 SWAP1 PUSH2 0x14F4 JUMP JUMPDEST DUP2 SLOAD DUP2 LT PUSH2 0xD25 JUMPI PUSH2 0xD24 PUSH2 0x16B4 JUMP JUMPDEST JUMPDEST SWAP1 PUSH1 0x0 MSTORE PUSH1 0x20 PUSH1 0x0 KECCAK256 SWAP1 PUSH1 0x3 MUL ADD PUSH1 0x0 DUP1 DUP3 ADD PUSH1 0x0 PUSH2 0xD44 SWAP2 SWAP1 PUSH2 0xF2B JUMP JUMPDEST PUSH1 0x1 DUP3 ADD PUSH1 0x0 PUSH2 0xD54 SWAP2 SWAP1 PUSH2 0xF2B JUMP JUMPDEST PUSH1 0x2 DUP3 ADD PUSH1 0x0 SWAP1 SSTORE POP POP PUSH1 0x1 PUSH1 0x0 DUP2 SLOAD DUP1 SWAP3 SWAP2 SWAP1 PUSH2 0xD71 SWAP1 PUSH2 0x1580 JUMP JUMPDEST SWAP2 SWAP1 POP SSTORE POP PUSH1 0x1 SWAP2 POP POP PUSH2 0xD99 JUMP JUMPDEST DUP1 DUP1 PUSH2 0xD8B SWAP1 PUSH2 0x160D JUMP JUMPDEST SWAP2 POP POP PUSH2 0xBA0 JUMP JUMPDEST POP PUSH1 0x0 SWAP1 POP JUMPDEST SWAP2 SWAP1 POP JUMP JUMPDEST PUSH1 0x0 DUP2 PUSH1 0x40 MLOAD PUSH1 0x20 ADD PUSH2 0xDB1 SWAP2 SWAP1 PUSH2 0x1359 JUMP JUMPDEST PUSH1 0x40 MLOAD PUSH1 0x20 DUP2 DUP4 SUB SUB DUP2 MSTORE SWAP1 PUSH1 0x40 MSTORE DUP1 MLOAD SWAP1 PUSH1 0x20 ADD KECCAK256 DUP4 PUSH1 0x40 MLOAD PUSH1 0x20 ADD PUSH2 0xDD8 SWAP2 SWAP1 PUSH2 0x1359 JUMP JUMPDEST PUSH1 0x40 MLOAD PUSH1 0x20 DUP2 DUP4 SUB SUB DUP2 MSTORE SWAP1 PUSH1 0x40 MSTORE DUP1 MLOAD SWAP1 PUSH1 0x20 ADD KECCAK256 EQ SWAP1 POP SWAP3 SWAP2 POP POP JUMP JUMPDEST DUP3 DUP1 SLOAD PUSH2 0xE03 SWAP1 PUSH2 0x15AA JUMP JUMPDEST SWAP1 PUSH1 0x0 MSTORE PUSH1 0x20 PUSH1 0x0 KECCAK256 SWAP1 PUSH1 0x1F ADD PUSH1 0x20 SWAP1 DIV DUP2 ADD SWAP3 DUP3 PUSH2 0xE25 JUMPI PUSH1 0x0 DUP6 SSTORE PUSH2 0xE6C JUMP JUMPDEST DUP3 PUSH1 0x1F LT PUSH2 0xE3E JUMPI DUP1 MLOAD PUSH1 0xFF NOT AND DUP4 DUP1 ADD OR DUP6 SSTORE PUSH2 0xE6C JUMP JUMPDEST DUP3 DUP1 ADD PUSH1 0x1 ADD DUP6 SSTORE DUP3 ISZERO PUSH2 0xE6C JUMPI SWAP2 DUP3 ADD JUMPDEST DUP3 DUP2 GT ISZERO PUSH2 0xE6B JUMPI DUP3 MLOAD DUP3 SSTORE SWAP2 PUSH1 0x20 ADD SWAP2 SWAP1 PUSH1 0x1 ADD SWAP1 PUSH2 0xE50 JUMP JUMPDEST JUMPDEST POP SWAP1 POP PUSH2 0xE79 SWAP2 SWAP1 PUSH2 0xF6B JUMP JUMPDEST POP SWAP1 JUMP JUMPDEST PUSH1 0x40 MLOAD DUP1 PUSH1 0x60 ADD PUSH1 0x40 MSTORE DUP1 PUSH1 0x60 DUP2 MSTORE PUSH1 0x20 ADD PUSH1 0x60 DUP2 MSTORE PUSH1 0x20 ADD PUSH1 0x0 DUP2 MSTORE POP SWAP1 JUMP JUMPDEST DUP3 DUP1 SLOAD PUSH2 0xEAA SWAP1 PUSH2 0x15AA JUMP JUMPDEST SWAP1 PUSH1 0x0 MSTORE PUSH1 0x20 PUSH1 0x0 KECCAK256 SWAP1 PUSH1 0x1F ADD PUSH1 0x20 SWAP1 DIV DUP2 ADD SWAP3 DUP3 PUSH2 0xECC JUMPI PUSH1 0x0 DUP6 SSTORE PUSH2 0xF1A JUMP JUMPDEST DUP3 PUSH1 0x1F LT PUSH2 0xEDD JUMPI DUP1 SLOAD DUP6 SSTORE PUSH2 0xF1A JUMP JUMPDEST DUP3 DUP1 ADD PUSH1 0x1 ADD DUP6 SSTORE DUP3 ISZERO PUSH2 0xF1A JUMPI PUSH1 0x0 MSTORE PUSH1 0x20 PUSH1 0x0 KECCAK256 SWAP2 PUSH1 0x1F ADD PUSH1 0x20 SWAP1 DIV DUP3 ADD JUMPDEST DUP3 DUP2 GT ISZERO PUSH2 0xF19 JUMPI DUP3 SLOAD DUP3 SSTORE SWAP2 PUSH1 0x1 ADD SWAP2 SWAP1 PUSH1 0x1 ADD SWAP1 PUSH2 0xEFE JUMP JUMPDEST JUMPDEST POP SWAP1 POP PUSH2 0xF27 SWAP2 SWAP1 PUSH2 0xF6B JUMP JUMPDEST POP SWAP1 JUMP JUMPDEST POP DUP1 SLOAD PUSH2 0xF37 SWAP1 PUSH2 0x15AA JUMP JUMPDEST PUSH1 0x0 DUP3 SSTORE DUP1 PUSH1 0x1F LT PUSH2 0xF49 JUMPI POP PUSH2 0xF68 JUMP JUMPDEST PUSH1 0x1F ADD PUSH1 0x20 SWAP1 DIV SWAP1 PUSH1 0x0 MSTORE PUSH1 0x20 PUSH1 0x0 KECCAK256 SWAP1 DUP2 ADD SWAP1 PUSH2 0xF67 SWAP2 SWAP1 PUSH2 0xF6B JUMP JUMPDEST JUMPDEST POP JUMP JUMPDEST JUMPDEST DUP1 DUP3 GT ISZERO PUSH2 0xF84 JUMPI PUSH1 0x0 DUP2 PUSH1 0x0 SWAP1 SSTORE POP PUSH1 0x1 ADD PUSH2 0xF6C JUMP JUMPDEST POP SWAP1 JUMP JUMPDEST PUSH1 0x0 PUSH2 0xF9B PUSH2 0xF96 DUP5 PUSH2 0x1452 JUMP JUMPDEST PUSH2 0x142D JUMP JUMPDEST SWAP1 POP DUP3 DUP2 MSTORE PUSH1 0x20 DUP2 ADD DUP5 DUP5 DUP5 ADD GT ISZERO PUSH2 0xFB7 JUMPI PUSH2 0xFB6 PUSH2 0x1717 JUMP JUMPDEST JUMPDEST PUSH2 0xFC2 DUP5 DUP3 DUP6 PUSH2 0x153E JUMP JUMPDEST POP SWAP4 SWAP3 POP POP POP JUMP JUMPDEST PUSH1 0x0 DUP3 PUSH1 0x1F DUP4 ADD SLT PUSH2 0xFDF JUMPI PUSH2 0xFDE PUSH2 0x1712 JUMP JUMPDEST JUMPDEST DUP2 CALLDATALOAD PUSH2 0xFEF DUP5 DUP3 PUSH1 0x20 DUP7 ADD PUSH2 0xF88 JUMP JUMPDEST SWAP2 POP POP SWAP3 SWAP2 POP POP JUMP JUMPDEST PUSH1 0x0 DUP2 CALLDATALOAD SWAP1 POP PUSH2 0x1007 DUP2 PUSH2 0x1760 JUMP JUMPDEST SWAP3 SWAP2 POP POP JUMP JUMPDEST PUSH1 0x0 PUSH1 0x20 DUP3 DUP5 SUB SLT ISZERO PUSH2 0x1023 JUMPI PUSH2 0x1022 PUSH2 0x1721 JUMP JUMPDEST JUMPDEST PUSH1 0x0 DUP3 ADD CALLDATALOAD PUSH8 0xFFFFFFFFFFFFFFFF DUP2 GT ISZERO PUSH2 0x1041 JUMPI PUSH2 0x1040 PUSH2 0x171C JUMP JUMPDEST JUMPDEST PUSH2 0x104D DUP5 DUP3 DUP6 ADD PUSH2 0xFCA JUMP JUMPDEST SWAP2 POP POP SWAP3 SWAP2 POP POP JUMP JUMPDEST PUSH1 0x0 DUP1 PUSH1 0x40 DUP4 DUP6 SUB SLT ISZERO PUSH2 0x106D JUMPI PUSH2 0x106C PUSH2 0x1721 JUMP JUMPDEST JUMPDEST PUSH1 0x0 DUP4 ADD CALLDATALOAD PUSH8 0xFFFFFFFFFFFFFFFF DUP2 GT ISZERO PUSH2 0x108B JUMPI PUSH2 0x108A PUSH2 0x171C JUMP JUMPDEST JUMPDEST PUSH2 0x1097 DUP6 DUP3 DUP7 ADD PUSH2 0xFCA JUMP JUMPDEST SWAP3 POP POP PUSH1 0x20 DUP4 ADD CALLDATALOAD PUSH8 0xFFFFFFFFFFFFFFFF DUP2 GT ISZERO PUSH2 0x10B8 JUMPI PUSH2 0x10B7 PUSH2 0x171C JUMP JUMPDEST JUMPDEST PUSH2 0x10C4 DUP6 DUP3 DUP7 ADD PUSH2 0xFCA JUMP JUMPDEST SWAP2 POP POP SWAP3 POP SWAP3 SWAP1 POP JUMP JUMPDEST PUSH1 0x0 DUP1 PUSH1 0x0 PUSH1 0x60 DUP5 DUP7 SUB SLT ISZERO PUSH2 0x10E7 JUMPI PUSH2 0x10E6 PUSH2 0x1721 JUMP JUMPDEST JUMPDEST PUSH1 0x0 DUP5 ADD CALLDATALOAD PUSH8 0xFFFFFFFFFFFFFFFF DUP2 GT ISZERO PUSH2 0x1105 JUMPI PUSH2 0x1104 PUSH2 0x171C JUMP JUMPDEST JUMPDEST PUSH2 0x1111 DUP7 DUP3 DUP8 ADD PUSH2 0xFCA JUMP JUMPDEST SWAP4 POP POP PUSH1 0x20 DUP5 ADD CALLDATALOAD PUSH8 0xFFFFFFFFFFFFFFFF DUP2 GT ISZERO PUSH2 0x1132 JUMPI PUSH2 0x1131 PUSH2 0x171C JUMP JUMPDEST JUMPDEST PUSH2 0x113E DUP7 DUP3 DUP8 ADD PUSH2 0xFCA JUMP JUMPDEST SWAP3 POP POP PUSH1 0x40 PUSH2 0x114F DUP7 DUP3 DUP8 ADD PUSH2 0xFF8 JUMP JUMPDEST SWAP2 POP POP SWAP3 POP SWAP3 POP SWAP3 JUMP JUMPDEST PUSH1 0x0 PUSH1 0x20 DUP3 DUP5 SUB SLT ISZERO PUSH2 0x116F JUMPI PUSH2 0x116E PUSH2 0x1721 JUMP JUMPDEST JUMPDEST PUSH1 0x0 PUSH2 0x117D DUP5 DUP3 DUP6 ADD PUSH2 0xFF8 JUMP JUMPDEST SWAP2 POP POP SWAP3 SWAP2 POP POP JUMP JUMPDEST PUSH1 0x0 PUSH2 0x1192 DUP4 DUP4 PUSH2 0x12E4 JUMP JUMPDEST SWAP1 POP SWAP3 SWAP2 POP POP JUMP JUMPDEST PUSH1 0x0 PUSH2 0x11A5 DUP3 PUSH2 0x1493 JUMP JUMPDEST PUSH2 0x11AF DUP2 DUP6 PUSH2 0x14B6 JUMP JUMPDEST SWAP4 POP DUP4 PUSH1 0x20 DUP3 MUL DUP6 ADD PUSH2 0x11C1 DUP6 PUSH2 0x1483 JUMP JUMPDEST DUP1 PUSH1 0x0 JUMPDEST DUP6 DUP2 LT ISZERO PUSH2 0x11FD JUMPI DUP5 DUP5 SUB DUP10 MSTORE DUP2 MLOAD PUSH2 0x11DE DUP6 DUP3 PUSH2 0x1186 JUMP JUMPDEST SWAP5 POP PUSH2 0x11E9 DUP4 PUSH2 0x14A9 JUMP JUMPDEST SWAP3 POP PUSH1 0x20 DUP11 ADD SWAP10 POP POP PUSH1 0x1 DUP2 ADD SWAP1 POP PUSH2 0x11C5 JUMP JUMPDEST POP DUP3 SWAP8 POP DUP8 SWAP6 POP POP POP POP POP POP SWAP3 SWAP2 POP POP JUMP JUMPDEST PUSH2 0x1218 DUP2 PUSH2 0x1528 JUMP JUMPDEST DUP3 MSTORE POP POP JUMP JUMPDEST PUSH1 0x0 PUSH2 0x1229 DUP3 PUSH2 0x149E JUMP JUMPDEST PUSH2 0x1233 DUP2 DUP6 PUSH2 0x14C7 JUMP JUMPDEST SWAP4 POP PUSH2 0x1243 DUP2 DUP6 PUSH1 0x20 DUP7 ADD PUSH2 0x154D JUMP JUMPDEST PUSH2 0x124C DUP2 PUSH2 0x1726 JUMP JUMPDEST DUP5 ADD SWAP2 POP POP SWAP3 SWAP2 POP POP JUMP JUMPDEST PUSH1 0x0 PUSH2 0x1262 DUP3 PUSH2 0x149E JUMP JUMPDEST PUSH2 0x126C DUP2 DUP6 PUSH2 0x14D8 JUMP JUMPDEST SWAP4 POP PUSH2 0x127C DUP2 DUP6 PUSH1 0x20 DUP7 ADD PUSH2 0x154D JUMP JUMPDEST PUSH2 0x1285 DUP2 PUSH2 0x1726 JUMP JUMPDEST DUP5 ADD SWAP2 POP POP SWAP3 SWAP2 POP POP JUMP JUMPDEST PUSH1 0x0 PUSH2 0x129B DUP3 PUSH2 0x149E JUMP JUMPDEST PUSH2 0x12A5 DUP2 DUP6 PUSH2 0x14E9 JUMP JUMPDEST SWAP4 POP PUSH2 0x12B5 DUP2 DUP6 PUSH1 0x20 DUP7 ADD PUSH2 0x154D JUMP JUMPDEST DUP1 DUP5 ADD SWAP2 POP POP SWAP3 SWAP2 POP POP JUMP JUMPDEST PUSH1 0x0 PUSH2 0x12CE PUSH1 0x11 DUP4 PUSH2 0x14D8 JUMP JUMPDEST SWAP2 POP PUSH2 0x12D9 DUP3 PUSH2 0x1737 JUMP JUMPDEST PUSH1 0x20 DUP3 ADD SWAP1 POP SWAP2 SWAP1 POP JUMP JUMPDEST PUSH1 0x0 PUSH1 0x60 DUP4 ADD PUSH1 0x0 DUP4 ADD MLOAD DUP5 DUP3 SUB PUSH1 0x0 DUP7 ADD MSTORE PUSH2 0x1301 DUP3 DUP3 PUSH2 0x121E JUMP JUMPDEST SWAP2 POP POP PUSH1 0x20 DUP4 ADD MLOAD DUP5 DUP3 SUB PUSH1 0x20 DUP7 ADD MSTORE PUSH2 0x131B DUP3 DUP3 PUSH2 0x121E JUMP JUMPDEST SWAP2 POP POP PUSH1 0x40 DUP4 ADD MLOAD PUSH2 0x1330 PUSH1 0x40 DUP7 ADD DUP3 PUSH2 0x133B JUMP JUMPDEST POP DUP1 SWAP2 POP POP SWAP3 SWAP2 POP POP JUMP JUMPDEST PUSH2 0x1344 DUP2 PUSH2 0x1534 JUMP JUMPDEST DUP3 MSTORE POP POP JUMP JUMPDEST PUSH2 0x1353 DUP2 PUSH2 0x1534 JUMP JUMPDEST DUP3 MSTORE POP POP JUMP JUMPDEST PUSH1 0x0 PUSH2 0x1365 DUP3 DUP5 PUSH2 0x1290 JUMP JUMPDEST SWAP2 POP DUP2 SWAP1 POP SWAP3 SWAP2 POP POP JUMP JUMPDEST PUSH1 0x0 PUSH1 0x20 DUP3 ADD SWAP1 POP DUP2 DUP2 SUB PUSH1 0x0 DUP4 ADD MSTORE PUSH2 0x138A DUP2 DUP5 PUSH2 0x119A JUMP JUMPDEST SWAP1 POP SWAP3 SWAP2 POP POP JUMP JUMPDEST PUSH1 0x0 PUSH1 0x20 DUP3 ADD SWAP1 POP PUSH2 0x13A7 PUSH1 0x0 DUP4 ADD DUP5 PUSH2 0x120F JUMP JUMPDEST SWAP3 SWAP2 POP POP JUMP JUMPDEST PUSH1 0x0 PUSH1 0x60 DUP3 ADD SWAP1 POP DUP2 DUP2 SUB PUSH1 0x0 DUP4 ADD MSTORE PUSH2 0x13C7 DUP2 DUP7 PUSH2 0x1257 JUMP JUMPDEST SWAP1 POP DUP2 DUP2 SUB PUSH1 0x20 DUP4 ADD MSTORE PUSH2 0x13DB DUP2 DUP6 PUSH2 0x1257 JUMP JUMPDEST SWAP1 POP PUSH2 0x13EA PUSH1 0x40 DUP4 ADD DUP5 PUSH2 0x134A JUMP JUMPDEST SWAP5 SWAP4 POP POP POP POP JUMP JUMPDEST PUSH1 0x0 PUSH1 0x20 DUP3 ADD SWAP1 POP DUP2 DUP2 SUB PUSH1 0x0 DUP4 ADD MSTORE PUSH2 0x140B DUP2 PUSH2 0x12C1 JUMP JUMPDEST SWAP1 POP SWAP2 SWAP1 POP JUMP JUMPDEST PUSH1 0x0 PUSH1 0x20 DUP3 ADD SWAP1 POP PUSH2 0x1427 PUSH1 0x0 DUP4 ADD DUP5 PUSH2 0x134A JUMP JUMPDEST SWAP3 SWAP2 POP POP JUMP JUMPDEST PUSH1 0x0 PUSH2 0x1437 PUSH2 0x1448 JUMP JUMPDEST SWAP1 POP PUSH2 0x1443 DUP3 DUP3 PUSH2 0x15DC JUMP JUMPDEST SWAP2 SWAP1 POP JUMP JUMPDEST PUSH1 0x0 PUSH1 0x40 MLOAD SWAP1 POP SWAP1 JUMP JUMPDEST PUSH1 0x0 PUSH8 0xFFFFFFFFFFFFFFFF DUP3 GT ISZERO PUSH2 0x146D JUMPI PUSH2 0x146C PUSH2 0x16E3 JUMP JUMPDEST JUMPDEST PUSH2 0x1476 DUP3 PUSH2 0x1726 JUMP JUMPDEST SWAP1 POP PUSH1 0x20 DUP2 ADD SWAP1 POP SWAP2 SWAP1 POP JUMP JUMPDEST PUSH1 0x0 DUP2 SWAP1 POP PUSH1 0x20 DUP3 ADD SWAP1 POP SWAP2 SWAP1 POP JUMP JUMPDEST PUSH1 0x0 DUP2 MLOAD SWAP1 POP SWAP2 SWAP1 POP JUMP JUMPDEST PUSH1 0x0 DUP2 MLOAD SWAP1 POP SWAP2 SWAP1 POP JUMP JUMPDEST PUSH1 0x0 PUSH1 0x20 DUP3 ADD SWAP1 POP SWAP2 SWAP1 POP JUMP JUMPDEST PUSH1 0x0 DUP3 DUP3 MSTORE PUSH1 0x20 DUP3 ADD SWAP1 POP SWAP3 SWAP2 POP POP JUMP JUMPDEST PUSH1 0x0 DUP3 DUP3 MSTORE PUSH1 0x20 DUP3 ADD SWAP1 POP SWAP3 SWAP2 POP POP JUMP JUMPDEST PUSH1 0x0 DUP3 DUP3 MSTORE PUSH1 0x20 DUP3 ADD SWAP1 POP SWAP3 SWAP2 POP POP JUMP JUMPDEST PUSH1 0x0 DUP2 SWAP1 POP SWAP3 SWAP2 POP POP JUMP JUMPDEST PUSH1 0x0 PUSH2 0x14FF DUP3 PUSH2 0x1534 JUMP JUMPDEST SWAP2 POP PUSH2 0x150A DUP4 PUSH2 0x1534 JUMP JUMPDEST SWAP3 POP DUP3 DUP3 LT ISZERO PUSH2 0x151D JUMPI PUSH2 0x151C PUSH2 0x1656 JUMP JUMPDEST JUMPDEST DUP3 DUP3 SUB SWAP1 POP SWAP3 SWAP2 POP POP JUMP JUMPDEST PUSH1 0x0 DUP2 ISZERO ISZERO SWAP1 POP SWAP2 SWAP1 POP JUMP JUMPDEST PUSH1 0x0 DUP2 SWAP1 POP SWAP2 SWAP1 POP JUMP JUMPDEST DUP3 DUP2 DUP4 CALLDATACOPY PUSH1 0x0 DUP4 DUP4 ADD MSTORE POP POP POP JUMP JUMPDEST PUSH1 0x0 JUMPDEST DUP4 DUP2 LT ISZERO PUSH2 0x156B JUMPI DUP1 DUP3 ADD MLOAD DUP2 DUP5 ADD MSTORE PUSH1 0x20 DUP2 ADD SWAP1 POP PUSH2 0x1550 JUMP JUMPDEST DUP4 DUP2 GT ISZERO PUSH2 0x157A JUMPI PUSH1 0x0 DUP5 DUP5 ADD MSTORE JUMPDEST POP POP POP POP JUMP JUMPDEST PUSH1 0x0 PUSH2 0x158B DUP3 PUSH2 0x1534 JUMP JUMPDEST SWAP2 POP PUSH1 0x0 DUP3 EQ ISZERO PUSH2 0x159F JUMPI PUSH2 0x159E PUSH2 0x1656 JUMP JUMPDEST JUMPDEST PUSH1 0x1 DUP3 SUB SWAP1 POP SWAP2 SWAP1 POP JUMP JUMPDEST PUSH1 0x0 PUSH1 0x2 DUP3 DIV SWAP1 POP PUSH1 0x1 DUP3 AND DUP1 PUSH2 0x15C2 JUMPI PUSH1 0x7F DUP3 AND SWAP2 POP JUMPDEST PUSH1 0x20 DUP3 LT DUP2 EQ ISZERO PUSH2 0x15D6 JUMPI PUSH2 0x15D5 PUSH2 0x1685 JUMP JUMPDEST JUMPDEST POP SWAP2 SWAP1 POP JUMP JUMPDEST PUSH2 0x15E5 DUP3 PUSH2 0x1726 JUMP JUMPDEST DUP2 ADD DUP2 DUP2 LT PUSH8 0xFFFFFFFFFFFFFFFF DUP3 GT OR ISZERO PUSH2 0x1604 JUMPI PUSH2 0x1603 PUSH2 0x16E3 JUMP JUMPDEST JUMPDEST DUP1 PUSH1 0x40 MSTORE POP POP POP JUMP JUMPDEST PUSH1 0x0 PUSH2 0x1618 DUP3 PUSH2 0x1534 JUMP JUMPDEST SWAP2 POP PUSH32 0xFFFFFFFFFFFFFFFFFFFFFFFFFFFFFFFFFFFFFFFFFFFFFFFFFFFFFFFFFFFFFFFF DUP3 EQ ISZERO PUSH2 0x164B JUMPI PUSH2 0x164A PUSH2 0x1656 JUMP JUMPDEST JUMPDEST PUSH1 0x1 DUP3 ADD SWAP1 POP SWAP2 SWAP1 POP JUMP JUMPDEST PUSH32 0x4E487B7100000000000000000000000000000000000000000000000000000000 PUSH1 0x0 MSTORE PUSH1 0x11 PUSH1 0x4 MSTORE PUSH1 0x24 PUSH1 0x0 REVERT JUMPDEST PUSH32 0x4E487B7100000000000000000000000000000000000000000000000000000000 PUSH1 0x0 MSTORE PUSH1 0x22 PUSH1 0x4 MSTORE PUSH1 0x24 PUSH1 0x0 REVERT JUMPDEST PUSH32 0x4E487B7100000000000000000000000000000000000000000000000000000000 PUSH1 0x0 MSTORE PUSH1 0x32 PUSH1 0x4 MSTORE PUSH1 0x24 PUSH1 0x0 REVERT JUMPDEST PUSH32 0x4E487B7100000000000000000000000000000000000000000000000000000000 PUSH1 0x0 MSTORE PUSH1 0x41 PUSH1 0x4 MSTORE PUSH1 0x24 PUSH1 0x0 REVERT JUMPDEST PUSH1 0x0 DUP1 REVERT JUMPDEST PUSH1 0x0 DUP1 REVERT JUMPDEST PUSH1 0x0 DUP1 REVERT JUMPDEST PUSH1 0x0 DUP1 REVERT JUMPDEST PUSH1 0x0 PUSH1 0x1F NOT PUSH1 0x1F DUP4 ADD AND SWAP1 POP SWAP2 SWAP1 POP JUMP JUMPDEST PUSH32 0x636F756E747279206E6F7420666F756E64000000000000000000000000000000 PUSH1 0x0 DUP3 ADD MSTORE POP JUMP JUMPDEST PUSH2 0x1769 DUP2 PUSH2 0x1534 JUMP JUMPDEST DUP2 EQ PUSH2 0x1774 JUMPI PUSH1 0x0 DUP1 REVERT JUMPDEST POP JUMP INVALID LOG2 PUSH5 0x6970667358 0x22 SLT KECCAK256 SWAP10 0xD6 0xAE 0xB5 0x22 MULMOD PUSH14 0x2FCA995F26ECC66E21E4EA9ADFC7 0xA6 0x2C 0xB6 0xC9 DUP8 DELEGATECALL PUSH7 0xBFEA8B8E64736F PUSH13 0x63430008070033000000000000 "
				},
				"gasEstimates": {
					"creation": {
						"codeDepositCost": "1212200",
						"executionCost": "6275",
						"totalCost": "1218475"
					},
					"external": {
						"countries(uint256)": "infinite",
						"deleteCountry(string)": "infinite",
						"getCountries()": "infinite",
						"getCountries2()": "infinite",
						"getCountry(string)": "infinite",
						"getTotalCountries()": "2467",
						"insert(string,string,uint256)": "infinite",
						"totalCountries()": "2452",
						"updateLeader(string,string)": "infinite"
					},
					"internal": {
						"compareStrings(string memory,string memory)": "infinite"
					}
				},
				"methodIdentifiers": {
					"countries(uint256)": "08e9daa5",
					"deleteCountry(string)": "cae65058",
					"getCountries()": "beca8009",
					"getCountries2()": "a176c86c",
					"getCountry(string)": "848924cb",
					"getTotalCountries()": "acf75458",
					"insert(string,string,uint256)": "c1356d26",
					"totalCountries()": "62738129",
					"updateLeader(string,string)": "81ba02be"
				}
			},
			"storageLayout": {
				"storage": [
					{
						"astId": 13,
						"contract": "contracts/Test.sol:CrudApp",
						"label": "countries",
						"offset": 0,
						"slot": "0",
						"type": "t_array(t_struct(country)9_storage)dyn_storage"
					},
					{
						"astId": 15,
						"contract": "contracts/Test.sol:CrudApp",
						"label": "totalCountries",
						"offset": 0,
						"slot": "1",
						"type": "t_uint256"
					}
				],
				"types": {
					"t_array(t_struct(country)9_storage)dyn_storage": {
						"base": "t_struct(country)9_storage",
						"encoding": "dynamic_array",
						"label": "struct CrudApp.country[]",
						"numberOfBytes": "32"
					},
					"t_string_storage": {
						"encoding": "bytes",
						"label": "string",
						"numberOfBytes": "32"
					},
					"t_struct(country)9_storage": {
						"encoding": "inplace",
						"label": "struct CrudApp.country",
						"members": [
							{
								"astId": 4,
								"contract": "contracts/Test.sol:CrudApp",
								"label": "name",
								"offset": 0,
								"slot": "0",
								"type": "t_string_storage"
							},
							{
								"astId": 6,
								"contract": "contracts/Test.sol:CrudApp",
								"label": "leader",
								"offset": 0,
								"slot": "1",
								"type": "t_string_storage"
							},
							{
								"astId": 8,
								"contract": "contracts/Test.sol:CrudApp",
								"label": "population",
								"offset": 0,
								"slot": "2",
								"type": "t_uint256"
							}
						],
						"numberOfBytes": "96"
					},
					"t_uint256": {
						"encoding": "inplace",
						"label": "uint256",
						"numberOfBytes": "32"
					}
				}
			},
			"userdoc": {
				"kind": "user",
				"methods": {},
				"version": 1
			}
		}
	}
}