{
	"contracts/Drugs.sol": {
		"Drugs": {
			"abi": [
				{
					"inputs": [],
					"stateMutability": "nonpayable",
					"type": "constructor"
				},
				{
					"inputs": [
						{
							"internalType": "address",
							"name": "_manufacturer",
							"type": "address"
						}
					],
					"name": "addDrug",
					"outputs": [],
					"stateMutability": "nonpayable",
					"type": "function"
				},
				{
					"inputs": [
						{
							"internalType": "uint256",
							"name": "",
							"type": "uint256"
						}
					],
					"name": "drugs",
					"outputs": [
						{
							"internalType": "uint256",
							"name": "DrugID",
							"type": "uint256"
						},
						{
							"internalType": "address",
							"name": "Manufacturer",
							"type": "address"
						}
					],
					"stateMutability": "view",
					"type": "function"
				},
				{
					"inputs": [],
					"name": "drugsCount",
					"outputs": [
						{
							"internalType": "uint256",
							"name": "",
							"type": "uint256"
						}
					],
					"stateMutability": "view",
					"type": "function"
				},
				{
					"inputs": [
						{
							"internalType": "uint256",
							"name": "_drugid",
							"type": "uint256"
						}
					],
					"name": "get",
					"outputs": [
						{
							"components": [
								{
									"internalType": "uint256",
									"name": "DrugID",
									"type": "uint256"
								},
								{
									"internalType": "address",
									"name": "Manufacturer",
									"type": "address"
								}
							],
							"internalType": "struct Drugs.Drug",
							"name": "",
							"type": "tuple"
						}
					],
					"stateMutability": "view",
					"type": "function"
				}
			],
			"devdoc": {
				"kind": "dev",
				"methods": {},
				"version": 1
			},
			"evm": {
				"assembly": "    /* \"contracts/Drugs.sol\":97:651  contract Drugs {\r... */\n  mstore(0x40, 0x80)\n    /* \"contracts/Drugs.sol\":318:366  constructor()  {\r... */\n  callvalue\n  dup1\n  iszero\n  tag_1\n  jumpi\n  0x00\n  dup1\n  revert\ntag_1:\n  pop\n    /* \"contracts/Drugs.sol\":357:358  0 */\n  0x00\n    /* \"contracts/Drugs.sol\":344:354  drugsCount */\n  0x01\n    /* \"contracts/Drugs.sol\":344:358  drugsCount = 0 */\n  dup2\n  swap1\n  sstore\n  pop\n    /* \"contracts/Drugs.sol\":97:651  contract Drugs {\r... */\n  dataSize(sub_0)\n  dup1\n  dataOffset(sub_0)\n  0x00\n  codecopy\n  0x00\n  return\nstop\n\nsub_0: assembly {\n        /* \"contracts/Drugs.sol\":97:651  contract Drugs {\r... */\n      mstore(0x40, 0x80)\n      callvalue\n      dup1\n      iszero\n      tag_1\n      jumpi\n      0x00\n      dup1\n      revert\n    tag_1:\n      pop\n      jumpi(tag_2, lt(calldatasize, 0x04))\n      shr(0xe0, calldataload(0x00))\n      dup1\n      0x193de85d\n      eq\n      tag_3\n      jumpi\n      dup1\n      0x92812e6f\n      eq\n      tag_4\n      jumpi\n      dup1\n      0x9507d39a\n      eq\n      tag_5\n      jumpi\n      dup1\n      0xfca5e61e\n      eq\n      tag_6\n      jumpi\n    tag_2:\n      0x00\n      dup1\n      revert\n        /* \"contracts/Drugs.sol\":372:511  function addDrug(address _manufacturer) public {\r... */\n    tag_3:\n      tag_7\n      0x04\n      dup1\n      calldatasize\n      sub\n      dup2\n      add\n      swap1\n      tag_8\n      swap2\n      swap1\n      tag_9\n      jump\t// in\n    tag_8:\n      tag_10\n      jump\t// in\n    tag_7:\n      stop\n        /* \"contracts/Drugs.sol\":289:311  uint public drugsCount */\n    tag_4:\n      tag_11\n      tag_12\n      jump\t// in\n    tag_11:\n      mload(0x40)\n      tag_13\n      swap2\n      swap1\n      tag_14\n      jump\t// in\n    tag_13:\n      mload(0x40)\n      dup1\n      swap2\n      sub\n      swap1\n      return\n        /* \"contracts/Drugs.sol\":548:648  function get(uint _drugid) public view returns(Drug memory) {\r... */\n    tag_5:\n      tag_15\n      0x04\n      dup1\n      calldatasize\n      sub\n      dup2\n      add\n      swap1\n      tag_16\n      swap2\n      swap1\n      tag_17\n      jump\t// in\n    tag_16:\n      tag_18\n      jump\t// in\n    tag_15:\n      mload(0x40)\n      tag_19\n      swap2\n      swap1\n      tag_20\n      jump\t// in\n    tag_19:\n      mload(0x40)\n      dup1\n      swap2\n      sub\n      swap1\n      return\n        /* \"contracts/Drugs.sol\":197:232  mapping (uint => Drug) public drugs */\n    tag_6:\n      tag_21\n      0x04\n      dup1\n      calldatasize\n      sub\n      dup2\n      add\n      swap1\n      tag_22\n      swap2\n      swap1\n      tag_17\n      jump\t// in\n    tag_22:\n      tag_23\n      jump\t// in\n    tag_21:\n      mload(0x40)\n      tag_24\n      swap3\n      swap2\n      swap1\n      tag_25\n      jump\t// in\n    tag_24:\n      mload(0x40)\n      dup1\n      swap2\n      sub\n      swap1\n      return\n        /* \"contracts/Drugs.sol\":372:511  function addDrug(address _manufacturer) public {\r... */\n    tag_10:\n        /* \"contracts/Drugs.sol\":450:480  Drug(drugsCount,_manufacturer) */\n      mload(0x40)\n      dup1\n      0x40\n      add\n      0x40\n      mstore\n      dup1\n        /* \"contracts/Drugs.sol\":455:465  drugsCount */\n      sload(0x01)\n        /* \"contracts/Drugs.sol\":450:480  Drug(drugsCount,_manufacturer) */\n      dup2\n      mstore\n      0x20\n      add\n        /* \"contracts/Drugs.sol\":466:479  _manufacturer */\n      dup3\n        /* \"contracts/Drugs.sol\":450:480  Drug(drugsCount,_manufacturer) */\n      0xffffffffffffffffffffffffffffffffffffffff\n      and\n      dup2\n      mstore\n      pop\n        /* \"contracts/Drugs.sol\":430:435  drugs */\n      0x00\n        /* \"contracts/Drugs.sol\":430:447  drugs[drugsCount] */\n      dup1\n        /* \"contracts/Drugs.sol\":436:446  drugsCount */\n      sload(0x01)\n        /* \"contracts/Drugs.sol\":430:447  drugs[drugsCount] */\n      dup2\n      mstore\n      0x20\n      add\n      swap1\n      dup2\n      mstore\n      0x20\n      add\n      0x00\n      keccak256\n        /* \"contracts/Drugs.sol\":430:480  drugs[drugsCount] = Drug(drugsCount,_manufacturer) */\n      0x00\n      dup3\n      add\n      mload\n      dup2\n      0x00\n      add\n      sstore\n      0x20\n      dup3\n      add\n      mload\n      dup2\n      0x01\n      add\n      exp(0x0100, 0x00)\n      dup2\n      sload\n      dup2\n      0xffffffffffffffffffffffffffffffffffffffff\n      mul\n      not\n      and\n      swap1\n      dup4\n      0xffffffffffffffffffffffffffffffffffffffff\n      and\n      mul\n      or\n      swap1\n      sstore\n      pop\n      swap1\n      pop\n      pop\n        /* \"contracts/Drugs.sol\":491:501  drugsCount */\n      0x01\n      0x00\n        /* \"contracts/Drugs.sol\":491:503  drugsCount++ */\n      dup2\n      sload\n      dup1\n      swap3\n      swap2\n      swap1\n      tag_27\n      swap1\n      tag_28\n      jump\t// in\n    tag_27:\n      swap2\n      swap1\n      pop\n      sstore\n      pop\n        /* \"contracts/Drugs.sol\":372:511  function addDrug(address _manufacturer) public {\r... */\n      pop\n      jump\t// out\n        /* \"contracts/Drugs.sol\":289:311  uint public drugsCount */\n    tag_12:\n      sload(0x01)\n      dup2\n      jump\t// out\n        /* \"contracts/Drugs.sol\":548:648  function get(uint _drugid) public view returns(Drug memory) {\r... */\n    tag_18:\n        /* \"contracts/Drugs.sol\":595:606  Drug memory */\n      tag_29\n      tag_30\n      jump\t// in\n    tag_29:\n        /* \"contracts/Drugs.sol\":626:631  drugs */\n      0x00\n        /* \"contracts/Drugs.sol\":626:640  drugs[_drugid] */\n      dup1\n        /* \"contracts/Drugs.sol\":632:639  _drugid */\n      dup4\n        /* \"contracts/Drugs.sol\":626:640  drugs[_drugid] */\n      dup2\n      mstore\n      0x20\n      add\n      swap1\n      dup2\n      mstore\n      0x20\n      add\n      0x00\n      keccak256\n        /* \"contracts/Drugs.sol\":619:640  return drugs[_drugid] */\n      mload(0x40)\n      dup1\n      0x40\n      add\n      0x40\n      mstore\n      swap1\n      dup2\n      0x00\n      dup3\n      add\n      sload\n      dup2\n      mstore\n      0x20\n      add\n      0x01\n      dup3\n      add\n      0x00\n      swap1\n      sload\n      swap1\n      0x0100\n      exp\n      swap1\n      div\n      0xffffffffffffffffffffffffffffffffffffffff\n      and\n      0xffffffffffffffffffffffffffffffffffffffff\n      and\n      0xffffffffffffffffffffffffffffffffffffffff\n      and\n      dup2\n      mstore\n      pop\n      pop\n      swap1\n      pop\n        /* \"contracts/Drugs.sol\":548:648  function get(uint _drugid) public view returns(Drug memory) {\r... */\n      swap2\n      swap1\n      pop\n      jump\t// out\n        /* \"contracts/Drugs.sol\":197:232  mapping (uint => Drug) public drugs */\n    tag_23:\n      mstore(0x20, 0x00)\n      dup1\n      0x00\n      mstore\n      keccak256(0x00, 0x40)\n      0x00\n      swap2\n      pop\n      swap1\n      pop\n      dup1\n      0x00\n      add\n      sload\n      swap1\n      dup1\n      0x01\n      add\n      0x00\n      swap1\n      sload\n      swap1\n      0x0100\n      exp\n      swap1\n      div\n      0xffffffffffffffffffffffffffffffffffffffff\n      and\n      swap1\n      pop\n      dup3\n      jump\t// out\n    tag_30:\n      mload(0x40)\n      dup1\n      0x40\n      add\n      0x40\n      mstore\n      dup1\n      0x00\n      dup2\n      mstore\n      0x20\n      add\n      and(0xffffffffffffffffffffffffffffffffffffffff, 0x00)\n      dup2\n      mstore\n      pop\n      swap1\n      jump\t// out\n        /* \"#utility.yul\":7:146   */\n    tag_33:\n        /* \"#utility.yul\":53:58   */\n      0x00\n        /* \"#utility.yul\":91:97   */\n      dup2\n        /* \"#utility.yul\":78:98   */\n      calldataload\n        /* \"#utility.yul\":69:98   */\n      swap1\n      pop\n        /* \"#utility.yul\":107:140   */\n      tag_35\n        /* \"#utility.yul\":134:139   */\n      dup2\n        /* \"#utility.yul\":107:140   */\n      tag_36\n      jump\t// in\n    tag_35:\n        /* \"#utility.yul\":7:146   */\n      swap3\n      swap2\n      pop\n      pop\n      jump\t// out\n        /* \"#utility.yul\":152:291   */\n    tag_37:\n        /* \"#utility.yul\":198:203   */\n      0x00\n        /* \"#utility.yul\":236:242   */\n      dup2\n        /* \"#utility.yul\":223:243   */\n      calldataload\n        /* \"#utility.yul\":214:243   */\n      swap1\n      pop\n        /* \"#utility.yul\":252:285   */\n      tag_39\n        /* \"#utility.yul\":279:284   */\n      dup2\n        /* \"#utility.yul\":252:285   */\n      tag_40\n      jump\t// in\n    tag_39:\n        /* \"#utility.yul\":152:291   */\n      swap3\n      swap2\n      pop\n      pop\n      jump\t// out\n        /* \"#utility.yul\":297:626   */\n    tag_9:\n        /* \"#utility.yul\":356:362   */\n      0x00\n        /* \"#utility.yul\":405:407   */\n      0x20\n        /* \"#utility.yul\":393:402   */\n      dup3\n        /* \"#utility.yul\":384:391   */\n      dup5\n        /* \"#utility.yul\":380:403   */\n      sub\n        /* \"#utility.yul\":376:408   */\n      slt\n        /* \"#utility.yul\":373:492   */\n      iszero\n      tag_42\n      jumpi\n        /* \"#utility.yul\":411:490   */\n      tag_43\n      tag_44\n      jump\t// in\n    tag_43:\n        /* \"#utility.yul\":373:492   */\n    tag_42:\n        /* \"#utility.yul\":531:532   */\n      0x00\n        /* \"#utility.yul\":556:609   */\n      tag_45\n        /* \"#utility.yul\":601:608   */\n      dup5\n        /* \"#utility.yul\":592:598   */\n      dup3\n        /* \"#utility.yul\":581:590   */\n      dup6\n        /* \"#utility.yul\":577:599   */\n      add\n        /* \"#utility.yul\":556:609   */\n      tag_33\n      jump\t// in\n    tag_45:\n        /* \"#utility.yul\":546:609   */\n      swap2\n      pop\n        /* \"#utility.yul\":502:619   */\n      pop\n        /* \"#utility.yul\":297:626   */\n      swap3\n      swap2\n      pop\n      pop\n      jump\t// out\n        /* \"#utility.yul\":632:961   */\n    tag_17:\n        /* \"#utility.yul\":691:697   */\n      0x00\n        /* \"#utility.yul\":740:742   */\n      0x20\n        /* \"#utility.yul\":728:737   */\n      dup3\n        /* \"#utility.yul\":719:726   */\n      dup5\n        /* \"#utility.yul\":715:738   */\n      sub\n        /* \"#utility.yul\":711:743   */\n      slt\n        /* \"#utility.yul\":708:827   */\n      iszero\n      tag_47\n      jumpi\n        /* \"#utility.yul\":746:825   */\n      tag_48\n      tag_44\n      jump\t// in\n    tag_48:\n        /* \"#utility.yul\":708:827   */\n    tag_47:\n        /* \"#utility.yul\":866:867   */\n      0x00\n        /* \"#utility.yul\":891:944   */\n      tag_49\n        /* \"#utility.yul\":936:943   */\n      dup5\n        /* \"#utility.yul\":927:933   */\n      dup3\n        /* \"#utility.yul\":916:925   */\n      dup6\n        /* \"#utility.yul\":912:934   */\n      add\n        /* \"#utility.yul\":891:944   */\n      tag_37\n      jump\t// in\n    tag_49:\n        /* \"#utility.yul\":881:944   */\n      swap2\n      pop\n        /* \"#utility.yul\":837:954   */\n      pop\n        /* \"#utility.yul\":632:961   */\n      swap3\n      swap2\n      pop\n      pop\n      jump\t// out\n        /* \"#utility.yul\":967:1075   */\n    tag_50:\n        /* \"#utility.yul\":1044:1068   */\n      tag_52\n        /* \"#utility.yul\":1062:1067   */\n      dup2\n        /* \"#utility.yul\":1044:1068   */\n      tag_53\n      jump\t// in\n    tag_52:\n        /* \"#utility.yul\":1039:1042   */\n      dup3\n        /* \"#utility.yul\":1032:1069   */\n      mstore\n        /* \"#utility.yul\":967:1075   */\n      pop\n      pop\n      jump\t// out\n        /* \"#utility.yul\":1081:1199   */\n    tag_54:\n        /* \"#utility.yul\":1168:1192   */\n      tag_56\n        /* \"#utility.yul\":1186:1191   */\n      dup2\n        /* \"#utility.yul\":1168:1192   */\n      tag_53\n      jump\t// in\n    tag_56:\n        /* \"#utility.yul\":1163:1166   */\n      dup3\n        /* \"#utility.yul\":1156:1193   */\n      mstore\n        /* \"#utility.yul\":1081:1199   */\n      pop\n      pop\n      jump\t// out\n        /* \"#utility.yul\":1251:1756   */\n    tag_57:\n        /* \"#utility.yul\":1386:1390   */\n      0x40\n        /* \"#utility.yul\":1381:1384   */\n      dup3\n        /* \"#utility.yul\":1377:1391   */\n      add\n        /* \"#utility.yul\":1475:1479   */\n      0x00\n        /* \"#utility.yul\":1468:1473   */\n      dup3\n        /* \"#utility.yul\":1464:1480   */\n      add\n        /* \"#utility.yul\":1458:1481   */\n      mload\n        /* \"#utility.yul\":1494:1557   */\n      tag_59\n        /* \"#utility.yul\":1551:1555   */\n      0x00\n        /* \"#utility.yul\":1546:1549   */\n      dup6\n        /* \"#utility.yul\":1542:1556   */\n      add\n        /* \"#utility.yul\":1528:1540   */\n      dup3\n        /* \"#utility.yul\":1494:1557   */\n      tag_60\n      jump\t// in\n    tag_59:\n        /* \"#utility.yul\":1401:1567   */\n      pop\n        /* \"#utility.yul\":1657:1661   */\n      0x20\n        /* \"#utility.yul\":1650:1655   */\n      dup3\n        /* \"#utility.yul\":1646:1662   */\n      add\n        /* \"#utility.yul\":1640:1663   */\n      mload\n        /* \"#utility.yul\":1676:1739   */\n      tag_61\n        /* \"#utility.yul\":1733:1737   */\n      0x20\n        /* \"#utility.yul\":1728:1731   */\n      dup6\n        /* \"#utility.yul\":1724:1738   */\n      add\n        /* \"#utility.yul\":1710:1722   */\n      dup3\n        /* \"#utility.yul\":1676:1739   */\n      tag_50\n      jump\t// in\n    tag_61:\n        /* \"#utility.yul\":1577:1749   */\n      pop\n        /* \"#utility.yul\":1355:1756   */\n      pop\n        /* \"#utility.yul\":1251:1756   */\n      pop\n      pop\n      jump\t// out\n        /* \"#utility.yul\":1762:1870   */\n    tag_60:\n        /* \"#utility.yul\":1839:1863   */\n      tag_63\n        /* \"#utility.yul\":1857:1862   */\n      dup2\n        /* \"#utility.yul\":1839:1863   */\n      tag_64\n      jump\t// in\n    tag_63:\n        /* \"#utility.yul\":1834:1837   */\n      dup3\n        /* \"#utility.yul\":1827:1864   */\n      mstore\n        /* \"#utility.yul\":1762:1870   */\n      pop\n      pop\n      jump\t// out\n        /* \"#utility.yul\":1876:1994   */\n    tag_65:\n        /* \"#utility.yul\":1963:1987   */\n      tag_67\n        /* \"#utility.yul\":1981:1986   */\n      dup2\n        /* \"#utility.yul\":1963:1987   */\n      tag_64\n      jump\t// in\n    tag_67:\n        /* \"#utility.yul\":1958:1961   */\n      dup3\n        /* \"#utility.yul\":1951:1988   */\n      mstore\n        /* \"#utility.yul\":1876:1994   */\n      pop\n      pop\n      jump\t// out\n        /* \"#utility.yul\":2000:2298   */\n    tag_20:\n        /* \"#utility.yul\":2131:2135   */\n      0x00\n        /* \"#utility.yul\":2169:2171   */\n      0x40\n        /* \"#utility.yul\":2158:2167   */\n      dup3\n        /* \"#utility.yul\":2154:2172   */\n      add\n        /* \"#utility.yul\":2146:2172   */\n      swap1\n      pop\n        /* \"#utility.yul\":2182:2291   */\n      tag_69\n        /* \"#utility.yul\":2288:2289   */\n      0x00\n        /* \"#utility.yul\":2277:2286   */\n      dup4\n        /* \"#utility.yul\":2273:2290   */\n      add\n        /* \"#utility.yul\":2264:2270   */\n      dup5\n        /* \"#utility.yul\":2182:2291   */\n      tag_57\n      jump\t// in\n    tag_69:\n        /* \"#utility.yul\":2000:2298   */\n      swap3\n      swap2\n      pop\n      pop\n      jump\t// out\n        /* \"#utility.yul\":2304:2526   */\n    tag_14:\n        /* \"#utility.yul\":2397:2401   */\n      0x00\n        /* \"#utility.yul\":2435:2437   */\n      0x20\n        /* \"#utility.yul\":2424:2433   */\n      dup3\n        /* \"#utility.yul\":2420:2438   */\n      add\n        /* \"#utility.yul\":2412:2438   */\n      swap1\n      pop\n        /* \"#utility.yul\":2448:2519   */\n      tag_71\n        /* \"#utility.yul\":2516:2517   */\n      0x00\n        /* \"#utility.yul\":2505:2514   */\n      dup4\n        /* \"#utility.yul\":2501:2518   */\n      add\n        /* \"#utility.yul\":2492:2498   */\n      dup5\n        /* \"#utility.yul\":2448:2519   */\n      tag_65\n      jump\t// in\n    tag_71:\n        /* \"#utility.yul\":2304:2526   */\n      swap3\n      swap2\n      pop\n      pop\n      jump\t// out\n        /* \"#utility.yul\":2532:2864   */\n    tag_25:\n        /* \"#utility.yul\":2653:2657   */\n      0x00\n        /* \"#utility.yul\":2691:2693   */\n      0x40\n        /* \"#utility.yul\":2680:2689   */\n      dup3\n        /* \"#utility.yul\":2676:2694   */\n      add\n        /* \"#utility.yul\":2668:2694   */\n      swap1\n      pop\n        /* \"#utility.yul\":2704:2775   */\n      tag_73\n        /* \"#utility.yul\":2772:2773   */\n      0x00\n        /* \"#utility.yul\":2761:2770   */\n      dup4\n        /* \"#utility.yul\":2757:2774   */\n      add\n        /* \"#utility.yul\":2748:2754   */\n      dup6\n        /* \"#utility.yul\":2704:2775   */\n      tag_65\n      jump\t// in\n    tag_73:\n        /* \"#utility.yul\":2785:2857   */\n      tag_74\n        /* \"#utility.yul\":2853:2855   */\n      0x20\n        /* \"#utility.yul\":2842:2851   */\n      dup4\n        /* \"#utility.yul\":2838:2856   */\n      add\n        /* \"#utility.yul\":2829:2835   */\n      dup5\n        /* \"#utility.yul\":2785:2857   */\n      tag_54\n      jump\t// in\n    tag_74:\n        /* \"#utility.yul\":2532:2864   */\n      swap4\n      swap3\n      pop\n      pop\n      pop\n      jump\t// out\n        /* \"#utility.yul\":2951:3047   */\n    tag_53:\n        /* \"#utility.yul\":2988:2995   */\n      0x00\n        /* \"#utility.yul\":3017:3041   */\n      tag_78\n        /* \"#utility.yul\":3035:3040   */\n      dup3\n        /* \"#utility.yul\":3017:3041   */\n      tag_79\n      jump\t// in\n    tag_78:\n        /* \"#utility.yul\":3006:3041   */\n      swap1\n      pop\n        /* \"#utility.yul\":2951:3047   */\n      swap2\n      swap1\n      pop\n      jump\t// out\n        /* \"#utility.yul\":3053:3179   */\n    tag_79:\n        /* \"#utility.yul\":3090:3097   */\n      0x00\n        /* \"#utility.yul\":3130:3172   */\n      0xffffffffffffffffffffffffffffffffffffffff\n        /* \"#utility.yul\":3123:3128   */\n      dup3\n        /* \"#utility.yul\":3119:3173   */\n      and\n        /* \"#utility.yul\":3108:3173   */\n      swap1\n      pop\n        /* \"#utility.yul\":3053:3179   */\n      swap2\n      swap1\n      pop\n      jump\t// out\n        /* \"#utility.yul\":3185:3262   */\n    tag_64:\n        /* \"#utility.yul\":3222:3229   */\n      0x00\n        /* \"#utility.yul\":3251:3256   */\n      dup2\n        /* \"#utility.yul\":3240:3256   */\n      swap1\n      pop\n        /* \"#utility.yul\":3185:3262   */\n      swap2\n      swap1\n      pop\n      jump\t// out\n        /* \"#utility.yul\":3268:3501   */\n    tag_28:\n        /* \"#utility.yul\":3307:3310   */\n      0x00\n        /* \"#utility.yul\":3330:3354   */\n      tag_83\n        /* \"#utility.yul\":3348:3353   */\n      dup3\n        /* \"#utility.yul\":3330:3354   */\n      tag_64\n      jump\t// in\n    tag_83:\n        /* \"#utility.yul\":3321:3354   */\n      swap2\n      pop\n        /* \"#utility.yul\":3376:3442   */\n      0xffffffffffffffffffffffffffffffffffffffffffffffffffffffffffffffff\n        /* \"#utility.yul\":3369:3374   */\n      dup3\n        /* \"#utility.yul\":3366:3443   */\n      eq\n        /* \"#utility.yul\":3363:3466   */\n      iszero\n      tag_84\n      jumpi\n        /* \"#utility.yul\":3446:3464   */\n      tag_85\n      tag_86\n      jump\t// in\n    tag_85:\n        /* \"#utility.yul\":3363:3466   */\n    tag_84:\n        /* \"#utility.yul\":3493:3494   */\n      0x01\n        /* \"#utility.yul\":3486:3491   */\n      dup3\n        /* \"#utility.yul\":3482:3495   */\n      add\n        /* \"#utility.yul\":3475:3495   */\n      swap1\n      pop\n        /* \"#utility.yul\":3268:3501   */\n      swap2\n      swap1\n      pop\n      jump\t// out\n        /* \"#utility.yul\":3507:3687   */\n    tag_86:\n        /* \"#utility.yul\":3555:3632   */\n      0x4e487b7100000000000000000000000000000000000000000000000000000000\n        /* \"#utility.yul\":3552:3553   */\n      0x00\n        /* \"#utility.yul\":3545:3633   */\n      mstore\n        /* \"#utility.yul\":3652:3656   */\n      0x11\n        /* \"#utility.yul\":3649:3650   */\n      0x04\n        /* \"#utility.yul\":3642:3657   */\n      mstore\n        /* \"#utility.yul\":3676:3680   */\n      0x24\n        /* \"#utility.yul\":3673:3674   */\n      0x00\n        /* \"#utility.yul\":3666:3681   */\n      revert\n        /* \"#utility.yul\":3816:3933   */\n    tag_44:\n        /* \"#utility.yul\":3925:3926   */\n      0x00\n        /* \"#utility.yul\":3922:3923   */\n      dup1\n        /* \"#utility.yul\":3915:3927   */\n      revert\n        /* \"#utility.yul\":3939:4061   */\n    tag_36:\n        /* \"#utility.yul\":4012:4036   */\n      tag_92\n        /* \"#utility.yul\":4030:4035   */\n      dup2\n        /* \"#utility.yul\":4012:4036   */\n      tag_53\n      jump\t// in\n    tag_92:\n        /* \"#utility.yul\":4005:4010   */\n      dup2\n        /* \"#utility.yul\":4002:4037   */\n      eq\n        /* \"#utility.yul\":3992:4055   */\n      tag_93\n      jumpi\n        /* \"#utility.yul\":4051:4052   */\n      0x00\n        /* \"#utility.yul\":4048:4049   */\n      dup1\n        /* \"#utility.yul\":4041:4053   */\n      revert\n        /* \"#utility.yul\":3992:4055   */\n    tag_93:\n        /* \"#utility.yul\":3939:4061   */\n      pop\n      jump\t// out\n        /* \"#utility.yul\":4067:4189   */\n    tag_40:\n        /* \"#utility.yul\":4140:4164   */\n      tag_95\n        /* \"#utility.yul\":4158:4163   */\n      dup2\n        /* \"#utility.yul\":4140:4164   */\n      tag_64\n      jump\t// in\n    tag_95:\n        /* \"#utility.yul\":4133:4138   */\n      dup2\n        /* \"#utility.yul\":4130:4165   */\n      eq\n        /* \"#utility.yul\":4120:4183   */\n      tag_96\n      jumpi\n        /* \"#utility.yul\":4179:4180   */\n      0x00\n        /* \"#utility.yul\":4176:4177   */\n      dup1\n        /* \"#utility.yul\":4169:4181   */\n      revert\n        /* \"#utility.yul\":4120:4183   */\n    tag_96:\n        /* \"#utility.yul\":4067:4189   */\n      pop\n      jump\t// out\n\n    auxdata: 0xa26469706673582212200cddb0fb3b45f7c160df86283cbc0b69600fa087064f67bae44fcc22134c2c8564736f6c63430008070033\n}\n",
				"bytecode": {
					"linkReferences": {},
					"object": "608060405234801561001057600080fd5b50600060018190555061050d806100286000396000f3fe608060405234801561001057600080fd5b506004361061004c5760003560e01c8063193de85d1461005157806392812e6f1461006d5780639507d39a1461008b578063fca5e61e146100bb575b600080fd5b61006b600480360381019061006691906102cc565b6100ec565b005b61007561019c565b60405161008291906103ac565b60405180910390f35b6100a560048036038101906100a091906102f9565b6101a2565b6040516100b29190610391565b60405180910390f35b6100d560048036038101906100d091906102f9565b61022e565b6040516100e39291906103c7565b60405180910390f35b604051806040016040528060015481526020018273ffffffffffffffffffffffffffffffffffffffff1681525060008060015481526020019081526020016000206000820151816000015560208201518160010160006101000a81548173ffffffffffffffffffffffffffffffffffffffff021916908373ffffffffffffffffffffffffffffffffffffffff160217905550905050600160008154809291906101949061042c565b919050555050565b60015481565b6101aa610272565b600080838152602001908152602001600020604051806040016040529081600082015481526020016001820160009054906101000a900473ffffffffffffffffffffffffffffffffffffffff1673ffffffffffffffffffffffffffffffffffffffff1673ffffffffffffffffffffffffffffffffffffffff16815250509050919050565b60006020528060005260406000206000915090508060000154908060010160009054906101000a900473ffffffffffffffffffffffffffffffffffffffff16905082565b604051806040016040528060008152602001600073ffffffffffffffffffffffffffffffffffffffff1681525090565b6000813590506102b1816104a9565b92915050565b6000813590506102c6816104c0565b92915050565b6000602082840312156102e2576102e16104a4565b5b60006102f0848285016102a2565b91505092915050565b60006020828403121561030f5761030e6104a4565b5b600061031d848285016102b7565b91505092915050565b61032f816103f0565b82525050565b61033e816103f0565b82525050565b60408201600082015161035a6000850182610373565b50602082015161036d6020850182610326565b50505050565b61037c81610422565b82525050565b61038b81610422565b82525050565b60006040820190506103a66000830184610344565b92915050565b60006020820190506103c16000830184610382565b92915050565b60006040820190506103dc6000830185610382565b6103e96020830184610335565b9392505050565b60006103fb82610402565b9050919050565b600073ffffffffffffffffffffffffffffffffffffffff82169050919050565b6000819050919050565b600061043782610422565b91507fffffffffffffffffffffffffffffffffffffffffffffffffffffffffffffffff82141561046a57610469610475565b5b600182019050919050565b7f4e487b7100000000000000000000000000000000000000000000000000000000600052601160045260246000fd5b600080fd5b6104b2816103f0565b81146104bd57600080fd5b50565b6104c981610422565b81146104d457600080fd5b5056fea26469706673582212200cddb0fb3b45f7c160df86283cbc0b69600fa087064f67bae44fcc22134c2c8564736f6c63430008070033",
					"opcodes": "PUSH1 0x80 PUSH1 0x40 MSTORE CALLVALUE DUP1 ISZERO PUSH2 0x10 JUMPI PUSH1 0x0 DUP1 REVERT JUMPDEST POP PUSH1 0x0 PUSH1 0x1 DUP2 SWAP1 SSTORE POP PUSH2 0x50D DUP1 PUSH2 0x28 PUSH1 0x0 CODECOPY PUSH1 0x0 RETURN INVALID PUSH1 0x80 PUSH1 0x40 MSTORE CALLVALUE DUP1 ISZERO PUSH2 0x10 JUMPI PUSH1 0x0 DUP1 REVERT JUMPDEST POP PUSH1 0x4 CALLDATASIZE LT PUSH2 0x4C JUMPI PUSH1 0x0 CALLDATALOAD PUSH1 0xE0 SHR DUP1 PUSH4 0x193DE85D EQ PUSH2 0x51 JUMPI DUP1 PUSH4 0x92812E6F EQ PUSH2 0x6D JUMPI DUP1 PUSH4 0x9507D39A EQ PUSH2 0x8B JUMPI DUP1 PUSH4 0xFCA5E61E EQ PUSH2 0xBB JUMPI JUMPDEST PUSH1 0x0 DUP1 REVERT JUMPDEST PUSH2 0x6B PUSH1 0x4 DUP1 CALLDATASIZE SUB DUP2 ADD SWAP1 PUSH2 0x66 SWAP2 SWAP1 PUSH2 0x2CC JUMP JUMPDEST PUSH2 0xEC JUMP JUMPDEST STOP JUMPDEST PUSH2 0x75 PUSH2 0x19C JUMP JUMPDEST PUSH1 0x40 MLOAD PUSH2 0x82 SWAP2 SWAP1 PUSH2 0x3AC JUMP JUMPDEST PUSH1 0x40 MLOAD DUP1 SWAP2 SUB SWAP1 RETURN JUMPDEST PUSH2 0xA5 PUSH1 0x4 DUP1 CALLDATASIZE SUB DUP2 ADD SWAP1 PUSH2 0xA0 SWAP2 SWAP1 PUSH2 0x2F9 JUMP JUMPDEST PUSH2 0x1A2 JUMP JUMPDEST PUSH1 0x40 MLOAD PUSH2 0xB2 SWAP2 SWAP1 PUSH2 0x391 JUMP JUMPDEST PUSH1 0x40 MLOAD DUP1 SWAP2 SUB SWAP1 RETURN JUMPDEST PUSH2 0xD5 PUSH1 0x4 DUP1 CALLDATASIZE SUB DUP2 ADD SWAP1 PUSH2 0xD0 SWAP2 SWAP1 PUSH2 0x2F9 JUMP JUMPDEST PUSH2 0x22E JUMP JUMPDEST PUSH1 0x40 MLOAD PUSH2 0xE3 SWAP3 SWAP2 SWAP1 PUSH2 0x3C7 JUMP JUMPDEST PUSH1 0x40 MLOAD DUP1 SWAP2 SUB SWAP1 RETURN JUMPDEST PUSH1 0x40 MLOAD DUP1 PUSH1 0x40 ADD PUSH1 0x40 MSTORE DUP1 PUSH1 0x1 SLOAD DUP2 MSTORE PUSH1 0x20 ADD DUP3 PUSH20 0xFFFFFFFFFFFFFFFFFFFFFFFFFFFFFFFFFFFFFFFF AND DUP2 MSTORE POP PUSH1 0x0 DUP1 PUSH1 0x1 SLOAD DUP2 MSTORE PUSH1 0x20 ADD SWAP1 DUP2 MSTORE PUSH1 0x20 ADD PUSH1 0x0 KECCAK256 PUSH1 0x0 DUP3 ADD MLOAD DUP2 PUSH1 0x0 ADD SSTORE PUSH1 0x20 DUP3 ADD MLOAD DUP2 PUSH1 0x1 ADD PUSH1 0x0 PUSH2 0x100 EXP DUP2 SLOAD DUP2 PUSH20 0xFFFFFFFFFFFFFFFFFFFFFFFFFFFFFFFFFFFFFFFF MUL NOT AND SWAP1 DUP4 PUSH20 0xFFFFFFFFFFFFFFFFFFFFFFFFFFFFFFFFFFFFFFFF AND MUL OR SWAP1 SSTORE POP SWAP1 POP POP PUSH1 0x1 PUSH1 0x0 DUP2 SLOAD DUP1 SWAP3 SWAP2 SWAP1 PUSH2 0x194 SWAP1 PUSH2 0x42C JUMP JUMPDEST SWAP2 SWAP1 POP SSTORE POP POP JUMP JUMPDEST PUSH1 0x1 SLOAD DUP2 JUMP JUMPDEST PUSH2 0x1AA PUSH2 0x272 JUMP JUMPDEST PUSH1 0x0 DUP1 DUP4 DUP2 MSTORE PUSH1 0x20 ADD SWAP1 DUP2 MSTORE PUSH1 0x20 ADD PUSH1 0x0 KECCAK256 PUSH1 0x40 MLOAD DUP1 PUSH1 0x40 ADD PUSH1 0x40 MSTORE SWAP1 DUP2 PUSH1 0x0 DUP3 ADD SLOAD DUP2 MSTORE PUSH1 0x20 ADD PUSH1 0x1 DUP3 ADD PUSH1 0x0 SWAP1 SLOAD SWAP1 PUSH2 0x100 EXP SWAP1 DIV PUSH20 0xFFFFFFFFFFFFFFFFFFFFFFFFFFFFFFFFFFFFFFFF AND PUSH20 0xFFFFFFFFFFFFFFFFFFFFFFFFFFFFFFFFFFFFFFFF AND PUSH20 0xFFFFFFFFFFFFFFFFFFFFFFFFFFFFFFFFFFFFFFFF AND DUP2 MSTORE POP POP SWAP1 POP SWAP2 SWAP1 POP JUMP JUMPDEST PUSH1 0x0 PUSH1 0x20 MSTORE DUP1 PUSH1 0x0 MSTORE PUSH1 0x40 PUSH1 0x0 KECCAK256 PUSH1 0x0 SWAP2 POP SWAP1 POP DUP1 PUSH1 0x0 ADD SLOAD SWAP1 DUP1 PUSH1 0x1 ADD PUSH1 0x0 SWAP1 SLOAD SWAP1 PUSH2 0x100 EXP SWAP1 DIV PUSH20 0xFFFFFFFFFFFFFFFFFFFFFFFFFFFFFFFFFFFFFFFF AND SWAP1 POP DUP3 JUMP JUMPDEST PUSH1 0x40 MLOAD DUP1 PUSH1 0x40 ADD PUSH1 0x40 MSTORE DUP1 PUSH1 0x0 DUP2 MSTORE PUSH1 0x20 ADD PUSH1 0x0 PUSH20 0xFFFFFFFFFFFFFFFFFFFFFFFFFFFFFFFFFFFFFFFF AND DUP2 MSTORE POP SWAP1 JUMP JUMPDEST PUSH1 0x0 DUP2 CALLDATALOAD SWAP1 POP PUSH2 0x2B1 DUP2 PUSH2 0x4A9 JUMP JUMPDEST SWAP3 SWAP2 POP POP JUMP JUMPDEST PUSH1 0x0 DUP2 CALLDATALOAD SWAP1 POP PUSH2 0x2C6 DUP2 PUSH2 0x4C0 JUMP JUMPDEST SWAP3 SWAP2 POP POP JUMP JUMPDEST PUSH1 0x0 PUSH1 0x20 DUP3 DUP5 SUB SLT ISZERO PUSH2 0x2E2 JUMPI PUSH2 0x2E1 PUSH2 0x4A4 JUMP JUMPDEST JUMPDEST PUSH1 0x0 PUSH2 0x2F0 DUP5 DUP3 DUP6 ADD PUSH2 0x2A2 JUMP JUMPDEST SWAP2 POP POP SWAP3 SWAP2 POP POP JUMP JUMPDEST PUSH1 0x0 PUSH1 0x20 DUP3 DUP5 SUB SLT ISZERO PUSH2 0x30F JUMPI PUSH2 0x30E PUSH2 0x4A4 JUMP JUMPDEST JUMPDEST PUSH1 0x0 PUSH2 0x31D DUP5 DUP3 DUP6 ADD PUSH2 0x2B7 JUMP JUMPDEST SWAP2 POP POP SWAP3 SWAP2 POP POP JUMP JUMPDEST PUSH2 0x32F DUP2 PUSH2 0x3F0 JUMP JUMPDEST DUP3 MSTORE POP POP JUMP JUMPDEST PUSH2 0x33E DUP2 PUSH2 0x3F0 JUMP JUMPDEST DUP3 MSTORE POP POP JUMP JUMPDEST PUSH1 0x40 DUP3 ADD PUSH1 0x0 DUP3 ADD MLOAD PUSH2 0x35A PUSH1 0x0 DUP6 ADD DUP3 PUSH2 0x373 JUMP JUMPDEST POP PUSH1 0x20 DUP3 ADD MLOAD PUSH2 0x36D PUSH1 0x20 DUP6 ADD DUP3 PUSH2 0x326 JUMP JUMPDEST POP POP POP POP JUMP JUMPDEST PUSH2 0x37C DUP2 PUSH2 0x422 JUMP JUMPDEST DUP3 MSTORE POP POP JUMP JUMPDEST PUSH2 0x38B DUP2 PUSH2 0x422 JUMP JUMPDEST DUP3 MSTORE POP POP JUMP JUMPDEST PUSH1 0x0 PUSH1 0x40 DUP3 ADD SWAP1 POP PUSH2 0x3A6 PUSH1 0x0 DUP4 ADD DUP5 PUSH2 0x344 JUMP JUMPDEST SWAP3 SWAP2 POP POP JUMP JUMPDEST PUSH1 0x0 PUSH1 0x20 DUP3 ADD SWAP1 POP PUSH2 0x3C1 PUSH1 0x0 DUP4 ADD DUP5 PUSH2 0x382 JUMP JUMPDEST SWAP3 SWAP2 POP POP JUMP JUMPDEST PUSH1 0x0 PUSH1 0x40 DUP3 ADD SWAP1 POP PUSH2 0x3DC PUSH1 0x0 DUP4 ADD DUP6 PUSH2 0x382 JUMP JUMPDEST PUSH2 0x3E9 PUSH1 0x20 DUP4 ADD DUP5 PUSH2 0x335 JUMP JUMPDEST SWAP4 SWAP3 POP POP POP JUMP JUMPDEST PUSH1 0x0 PUSH2 0x3FB DUP3 PUSH2 0x402 JUMP JUMPDEST SWAP1 POP SWAP2 SWAP1 POP JUMP JUMPDEST PUSH1 0x0 PUSH20 0xFFFFFFFFFFFFFFFFFFFFFFFFFFFFFFFFFFFFFFFF DUP3 AND SWAP1 POP SWAP2 SWAP1 POP JUMP JUMPDEST PUSH1 0x0 DUP2 SWAP1 POP SWAP2 SWAP1 POP JUMP JUMPDEST PUSH1 0x0 PUSH2 0x437 DUP3 PUSH2 0x422 JUMP JUMPDEST SWAP2 POP PUSH32 0xFFFFFFFFFFFFFFFFFFFFFFFFFFFFFFFFFFFFFFFFFFFFFFFFFFFFFFFFFFFFFFFF DUP3 EQ ISZERO PUSH2 0x46A JUMPI PUSH2 0x469 PUSH2 0x475 JUMP JUMPDEST JUMPDEST PUSH1 0x1 DUP3 ADD SWAP1 POP SWAP2 SWAP1 POP JUMP JUMPDEST PUSH32 0x4E487B7100000000000000000000000000000000000000000000000000000000 PUSH1 0x0 MSTORE PUSH1 0x11 PUSH1 0x4 MSTORE PUSH1 0x24 PUSH1 0x0 REVERT JUMPDEST PUSH1 0x0 DUP1 REVERT JUMPDEST PUSH2 0x4B2 DUP2 PUSH2 0x3F0 JUMP JUMPDEST DUP2 EQ PUSH2 0x4BD JUMPI PUSH1 0x0 DUP1 REVERT JUMPDEST POP JUMP JUMPDEST PUSH2 0x4C9 DUP2 PUSH2 0x422 JUMP JUMPDEST DUP2 EQ PUSH2 0x4D4 JUMPI PUSH1 0x0 DUP1 REVERT JUMPDEST POP JUMP INVALID LOG2 PUSH5 0x6970667358 0x22 SLT KECCAK256 0xC 0xDD 0xB0 0xFB EXTCODESIZE GASLIMIT 0xF7 0xC1 PUSH1 0xDF DUP7 0x28 EXTCODECOPY 0xBC SIGNEXTEND PUSH10 0x600FA087064F67BAE44F 0xCC 0x22 SGT 0x4C 0x2C DUP6 PUSH5 0x736F6C6343 STOP ADDMOD SMOD STOP CALLER "
				},
				"gasEstimates": {
					"creation": {
						"codeDepositCost": "258600",
						"executionCost": "5314",
						"totalCost": "263914"
					},
					"external": {
						"addDrug(address)": "75549",
						"drugs(uint256)": "infinite",
						"drugsCount()": "2429",
						"get(uint256)": "infinite"
					}
				},
				"methodIdentifiers": {
					"addDrug(address)": "193de85d",
					"drugs(uint256)": "fca5e61e",
					"drugsCount()": "92812e6f",
					"get(uint256)": "9507d39a"
				}
			},
			"storageLayout": {
				"storage": [
					{
						"astId": 12,
						"contract": "contracts/Drugs.sol:Drugs",
						"label": "drugs",
						"offset": 0,
						"slot": "0",
						"type": "t_mapping(t_uint256,t_struct(Drug)7_storage)"
					},
					{
						"astId": 14,
						"contract": "contracts/Drugs.sol:Drugs",
						"label": "drugsCount",
						"offset": 0,
						"slot": "1",
						"type": "t_uint256"
					}
				],
				"types": {
					"t_address": {
						"encoding": "inplace",
						"label": "address",
						"numberOfBytes": "20"
					},
					"t_mapping(t_uint256,t_struct(Drug)7_storage)": {
						"encoding": "mapping",
						"key": "t_uint256",
						"label": "mapping(uint256 => struct Drugs.Drug)",
						"numberOfBytes": "32",
						"value": "t_struct(Drug)7_storage"
					},
					"t_struct(Drug)7_storage": {
						"encoding": "inplace",
						"label": "struct Drugs.Drug",
						"members": [
							{
								"astId": 4,
								"contract": "contracts/Drugs.sol:Drugs",
								"label": "DrugID",
								"offset": 0,
								"slot": "0",
								"type": "t_uint256"
							},
							{
								"astId": 6,
								"contract": "contracts/Drugs.sol:Drugs",
								"label": "Manufacturer",
								"offset": 0,
								"slot": "1",
								"type": "t_address"
							}
						],
						"numberOfBytes": "64"
					},
					"t_uint256": {
						"encoding": "inplace",
						"label": "uint256",
						"numberOfBytes": "32"
					}
				}
			},
			"userdoc": {
				"kind": "user",
				"methods": {},
				"version": 1
			}
		}
	}
}