{
	"contracts/Drugs.sol": {
		"Drugs": {
			"abi": [
				{
					"inputs": [],
					"stateMutability": "nonpayable",
					"type": "constructor"
				},
				{
					"inputs": [
						{
							"internalType": "string",
							"name": "_regno",
							"type": "string"
						}
					],
					"name": "addDrug",
					"outputs": [],
					"stateMutability": "nonpayable",
					"type": "function"
				},
				{
					"inputs": [
						{
							"internalType": "uint256",
							"name": "_drugid",
							"type": "uint256"
						},
						{
							"internalType": "bool",
							"name": "_status",
							"type": "bool"
						}
					],
					"name": "changeDrugStatus",
					"outputs": [],
					"stateMutability": "nonpayable",
					"type": "function"
				},
				{
					"inputs": [
						{
							"internalType": "uint256",
							"name": "",
							"type": "uint256"
						}
					],
					"name": "drugs",
					"outputs": [
						{
							"internalType": "string",
							"name": "RegNo",
							"type": "string"
						},
						{
							"internalType": "address",
							"name": "Manufacturer",
							"type": "address"
						},
						{
							"internalType": "bool",
							"name": "IsActive",
							"type": "bool"
						}
					],
					"stateMutability": "view",
					"type": "function"
				},
				{
					"inputs": [],
					"name": "drugsCount",
					"outputs": [
						{
							"internalType": "uint256",
							"name": "",
							"type": "uint256"
						}
					],
					"stateMutability": "view",
					"type": "function"
				},
				{
					"inputs": [
						{
							"internalType": "string",
							"name": "_regno",
							"type": "string"
						}
					],
					"name": "get",
					"outputs": [
						{
							"components": [
								{
									"internalType": "string",
									"name": "RegNo",
									"type": "string"
								},
								{
									"internalType": "address",
									"name": "Manufacturer",
									"type": "address"
								},
								{
									"internalType": "bool",
									"name": "IsActive",
									"type": "bool"
								}
							],
							"internalType": "struct Drugs.Drug",
							"name": "",
							"type": "tuple"
						}
					],
					"stateMutability": "view",
					"type": "function"
				},
				{
					"inputs": [],
					"name": "getDrug",
					"outputs": [
						{
							"internalType": "string[]",
							"name": "",
							"type": "string[]"
						},
						{
							"internalType": "address[]",
							"name": "",
							"type": "address[]"
						},
						{
							"internalType": "bool[]",
							"name": "",
							"type": "bool[]"
						}
					],
					"stateMutability": "view",
					"type": "function"
				},
				{
					"inputs": [],
					"name": "getDrugs",
					"outputs": [
						{
							"components": [
								{
									"internalType": "string",
									"name": "RegNo",
									"type": "string"
								},
								{
									"internalType": "address",
									"name": "Manufacturer",
									"type": "address"
								},
								{
									"internalType": "bool",
									"name": "IsActive",
									"type": "bool"
								}
							],
							"internalType": "struct Drugs.Drug[]",
							"name": "",
							"type": "tuple[]"
						}
					],
					"stateMutability": "view",
					"type": "function"
				},
				{
					"inputs": [
						{
							"internalType": "string",
							"name": "",
							"type": "string"
						}
					],
					"name": "newdrugs",
					"outputs": [
						{
							"internalType": "string",
							"name": "RegNo",
							"type": "string"
						},
						{
							"internalType": "address",
							"name": "Manufacturer",
							"type": "address"
						},
						{
							"internalType": "bool",
							"name": "IsActive",
							"type": "bool"
						}
					],
					"stateMutability": "view",
					"type": "function"
				}
			],
			"devdoc": {
				"kind": "dev",
				"methods": {},
				"version": 1
			},
			"evm": {
				"assembly": "    /* \"contracts/Drugs.sol\":97:1943  contract Drugs {\r... */\n  mstore(0x40, 0x80)\n    /* \"contracts/Drugs.sol\":520:597  constructor()  {\r... */\n  callvalue\n  dup1\n  iszero\n  tag_1\n  jumpi\n  0x00\n  dup1\n  revert\ntag_1:\n  pop\n    /* \"contracts/Drugs.sol\":559:560  0 */\n  0x00\n    /* \"contracts/Drugs.sol\":546:556  drugsCount */\n  0x03\n    /* \"contracts/Drugs.sol\":546:560  drugsCount = 0 */\n  dup2\n  swap1\n  sstore\n  pop\n    /* \"contracts/Drugs.sol\":579:589  msg.sender */\n  caller\n    /* \"contracts/Drugs.sol\":571:576  owner */\n  0x00\n  dup1\n    /* \"contracts/Drugs.sol\":571:589  owner = msg.sender */\n  0x0100\n  exp\n  dup2\n  sload\n  dup2\n  0xffffffffffffffffffffffffffffffffffffffff\n  mul\n  not\n  and\n  swap1\n  dup4\n  0xffffffffffffffffffffffffffffffffffffffff\n  and\n  mul\n  or\n  swap1\n  sstore\n  pop\n    /* \"contracts/Drugs.sol\":97:1943  contract Drugs {\r... */\n  dataSize(sub_0)\n  dup1\n  dataOffset(sub_0)\n  0x00\n  codecopy\n  0x00\n  return\nstop\n\nsub_0: assembly {\n        /* \"contracts/Drugs.sol\":97:1943  contract Drugs {\r... */\n      mstore(0x40, 0x80)\n      callvalue\n      dup1\n      iszero\n      tag_1\n      jumpi\n      0x00\n      dup1\n      revert\n    tag_1:\n      pop\n      jumpi(tag_2, lt(calldatasize, 0x04))\n      shr(0xe0, calldataload(0x00))\n      dup1\n      0xb0d548df\n      gt\n      tag_11\n      jumpi\n      dup1\n      0xb0d548df\n      eq\n      tag_7\n      jumpi\n      dup1\n      0xe259effa\n      eq\n      tag_8\n      jumpi\n      dup1\n      0xf2a50281\n      eq\n      tag_9\n      jumpi\n      dup1\n      0xfca5e61e\n      eq\n      tag_10\n      jumpi\n      jump(tag_2)\n    tag_11:\n      dup1\n      0x223883de\n      eq\n      tag_3\n      jumpi\n      dup1\n      0x5fb07a62\n      eq\n      tag_4\n      jumpi\n      dup1\n      0x693ec85e\n      eq\n      tag_5\n      jumpi\n      dup1\n      0x92812e6f\n      eq\n      tag_6\n      jumpi\n    tag_2:\n      0x00\n      dup1\n      revert\n        /* \"contracts/Drugs.sol\":603:740  function addDrug(string memory _regno) public{\r... */\n    tag_3:\n      tag_12\n      0x04\n      dup1\n      calldatasize\n      sub\n      dup2\n      add\n      swap1\n      tag_13\n      swap2\n      swap1\n      tag_14\n      jump\t// in\n    tag_13:\n      tag_15\n      jump\t// in\n    tag_12:\n      stop\n        /* \"contracts/Drugs.sol\":1542:1810  function getDrugs() public view returns (Drug[] memory){\r... */\n    tag_4:\n      tag_16\n      tag_17\n      jump\t// in\n    tag_16:\n      mload(0x40)\n      tag_18\n      swap2\n      swap1\n      tag_19\n      jump\t// in\n    tag_18:\n      mload(0x40)\n      dup1\n      swap2\n      sub\n      swap1\n      return\n        /* \"contracts/Drugs.sol\":777:887  function get(string memory _regno) public view returns(Drug memory) {\r... */\n    tag_5:\n      tag_20\n      0x04\n      dup1\n      calldatasize\n      sub\n      dup2\n      add\n      swap1\n      tag_21\n      swap2\n      swap1\n      tag_14\n      jump\t// in\n    tag_21:\n      tag_22\n      jump\t// in\n    tag_20:\n      mload(0x40)\n      tag_23\n      swap2\n      swap1\n      tag_24\n      jump\t// in\n    tag_23:\n      mload(0x40)\n      dup1\n      swap2\n      sub\n      swap1\n      return\n        /* \"contracts/Drugs.sol\":491:513  uint public drugsCount */\n    tag_6:\n      tag_25\n      tag_26\n      jump\t// in\n    tag_25:\n      mload(0x40)\n      tag_27\n      swap2\n      swap1\n      tag_28\n      jump\t// in\n    tag_27:\n      mload(0x40)\n      dup1\n      swap2\n      sub\n      swap1\n      return\n        /* \"contracts/Drugs.sol\":394:434  mapping (string => Drug) public newdrugs */\n    tag_7:\n      tag_29\n      0x04\n      dup1\n      calldatasize\n      sub\n      dup2\n      add\n      swap1\n      tag_30\n      swap2\n      swap1\n      tag_14\n      jump\t// in\n    tag_30:\n      tag_31\n      jump\t// in\n    tag_29:\n      mload(0x40)\n      tag_32\n      swap4\n      swap3\n      swap2\n      swap1\n      tag_33\n      jump\t// in\n    tag_32:\n      mload(0x40)\n      dup1\n      swap2\n      sub\n      swap1\n      return\n        /* \"contracts/Drugs.sol\":1816:1938  function changeDrugStatus(uint _drugid, bool _status) public onlyOwner{\r... */\n    tag_8:\n      tag_34\n      0x04\n      dup1\n      calldatasize\n      sub\n      dup2\n      add\n      swap1\n      tag_35\n      swap2\n      swap1\n      tag_36\n      jump\t// in\n    tag_35:\n      tag_37\n      jump\t// in\n    tag_34:\n      stop\n        /* \"contracts/Drugs.sol\":932:1503  function getDrug() public view returns (string[] memory, address[] memory, bool[] memory){\r... */\n    tag_9:\n      tag_38\n      tag_39\n      jump\t// in\n    tag_38:\n      mload(0x40)\n      tag_40\n      swap4\n      swap3\n      swap2\n      swap1\n      tag_41\n      jump\t// in\n    tag_40:\n      mload(0x40)\n      dup1\n      swap2\n      sub\n      swap1\n      return\n        /* \"contracts/Drugs.sol\":352:387  mapping (uint => Drug) public drugs */\n    tag_10:\n      tag_42\n      0x04\n      dup1\n      calldatasize\n      sub\n      dup2\n      add\n      swap1\n      tag_43\n      swap2\n      swap1\n      tag_44\n      jump\t// in\n    tag_43:\n      tag_45\n      jump\t// in\n    tag_42:\n      mload(0x40)\n      tag_46\n      swap4\n      swap3\n      swap2\n      swap1\n      tag_33\n      jump\t// in\n    tag_46:\n      mload(0x40)\n      dup1\n      swap2\n      sub\n      swap1\n      return\n        /* \"contracts/Drugs.sol\":603:740  function addDrug(string memory _regno) public{\r... */\n    tag_15:\n        /* \"contracts/Drugs.sol\":679:709  Drug(_regno,msg.sender , true) */\n      mload(0x40)\n      dup1\n      0x60\n      add\n      0x40\n      mstore\n      dup1\n        /* \"contracts/Drugs.sol\":684:690  _regno */\n      dup3\n        /* \"contracts/Drugs.sol\":679:709  Drug(_regno,msg.sender , true) */\n      dup2\n      mstore\n      0x20\n      add\n        /* \"contracts/Drugs.sol\":691:701  msg.sender */\n      caller\n        /* \"contracts/Drugs.sol\":679:709  Drug(_regno,msg.sender , true) */\n      0xffffffffffffffffffffffffffffffffffffffff\n      and\n      dup2\n      mstore\n      0x20\n      add\n        /* \"contracts/Drugs.sol\":704:708  true */\n      0x01\n        /* \"contracts/Drugs.sol\":679:709  Drug(_regno,msg.sender , true) */\n      iszero\n      iszero\n      dup2\n      mstore\n      pop\n        /* \"contracts/Drugs.sol\":659:664  drugs */\n      0x01\n        /* \"contracts/Drugs.sol\":659:676  drugs[drugsCount] */\n      0x00\n        /* \"contracts/Drugs.sol\":665:675  drugsCount */\n      sload(0x03)\n        /* \"contracts/Drugs.sol\":659:676  drugs[drugsCount] */\n      dup2\n      mstore\n      0x20\n      add\n      swap1\n      dup2\n      mstore\n      0x20\n      add\n      0x00\n      keccak256\n        /* \"contracts/Drugs.sol\":659:709  drugs[drugsCount] = Drug(_regno,msg.sender , true) */\n      0x00\n      dup3\n      add\n      mload\n      dup2\n      0x00\n      add\n      swap1\n      dup1\n      mload\n      swap1\n      0x20\n      add\n      swap1\n      tag_48\n      swap3\n      swap2\n      swap1\n      tag_49\n      jump\t// in\n    tag_48:\n      pop\n      0x20\n      dup3\n      add\n      mload\n      dup2\n      0x01\n      add\n      exp(0x0100, 0x00)\n      dup2\n      sload\n      dup2\n      0xffffffffffffffffffffffffffffffffffffffff\n      mul\n      not\n      and\n      swap1\n      dup4\n      0xffffffffffffffffffffffffffffffffffffffff\n      and\n      mul\n      or\n      swap1\n      sstore\n      pop\n      0x40\n      dup3\n      add\n      mload\n      dup2\n      0x01\n      add\n      exp(0x0100, 0x14)\n      dup2\n      sload\n      dup2\n      0xff\n      mul\n      not\n      and\n      swap1\n      dup4\n      iszero\n      iszero\n      mul\n      or\n      swap1\n      sstore\n      pop\n      swap1\n      pop\n      pop\n        /* \"contracts/Drugs.sol\":720:730  drugsCount */\n      0x03\n      0x00\n        /* \"contracts/Drugs.sol\":720:732  drugsCount++ */\n      dup2\n      sload\n      dup1\n      swap3\n      swap2\n      swap1\n      tag_50\n      swap1\n      tag_51\n      jump\t// in\n    tag_50:\n      swap2\n      swap1\n      pop\n      sstore\n      pop\n        /* \"contracts/Drugs.sol\":603:740  function addDrug(string memory _regno) public{\r... */\n      pop\n      jump\t// out\n        /* \"contracts/Drugs.sol\":1542:1810  function getDrugs() public view returns (Drug[] memory){\r... */\n    tag_17:\n        /* \"contracts/Drugs.sol\":1583:1596  Drug[] memory */\n      0x60\n        /* \"contracts/Drugs.sol\":1608:1627  Drug[]    memory id */\n      0x00\n        /* \"contracts/Drugs.sol\":1641:1651  drugsCount */\n      sload(0x03)\n        /* \"contracts/Drugs.sol\":1630:1652  new Drug[](drugsCount) */\n      0xffffffffffffffff\n      dup2\n      gt\n      iszero\n      tag_53\n      jumpi\n      tag_54\n      tag_55\n      jump\t// in\n    tag_54:\n    tag_53:\n      mload(0x40)\n      swap1\n      dup1\n      dup3\n      mstore\n      dup1\n      0x20\n      mul\n      0x20\n      add\n      dup3\n      add\n      0x40\n      mstore\n      dup1\n      iszero\n      tag_56\n      jumpi\n      dup2\n      0x20\n      add\n    tag_57:\n      tag_58\n      tag_59\n      jump\t// in\n    tag_58:\n      dup2\n      mstore\n      0x20\n      add\n      swap1\n      0x01\n      swap1\n      sub\n      swap1\n      dup2\n      tag_57\n      jumpi\n      swap1\n      pop\n    tag_56:\n      pop\n        /* \"contracts/Drugs.sol\":1608:1652  Drug[]    memory id = new Drug[](drugsCount) */\n      swap1\n      pop\n        /* \"contracts/Drugs.sol\":1668:1674  uint i */\n      0x00\n        /* \"contracts/Drugs.sol\":1663:1783  for (uint i = 0; i < drugsCount; i++) {\r... */\n    tag_60:\n        /* \"contracts/Drugs.sol\":1684:1694  drugsCount */\n      sload(0x03)\n        /* \"contracts/Drugs.sol\":1680:1681  i */\n      dup2\n        /* \"contracts/Drugs.sol\":1680:1694  i < drugsCount */\n      lt\n        /* \"contracts/Drugs.sol\":1663:1783  for (uint i = 0; i < drugsCount; i++) {\r... */\n      iszero\n      tag_61\n      jumpi\n        /* \"contracts/Drugs.sol\":1716:1733  Drug storage drug */\n      0x00\n        /* \"contracts/Drugs.sol\":1736:1741  drugs */\n      0x01\n        /* \"contracts/Drugs.sol\":1736:1744  drugs[i] */\n      0x00\n        /* \"contracts/Drugs.sol\":1742:1743  i */\n      dup4\n        /* \"contracts/Drugs.sol\":1736:1744  drugs[i] */\n      dup2\n      mstore\n      0x20\n      add\n      swap1\n      dup2\n      mstore\n      0x20\n      add\n      0x00\n      keccak256\n        /* \"contracts/Drugs.sol\":1716:1744  Drug storage drug = drugs[i] */\n      swap1\n      pop\n        /* \"contracts/Drugs.sol\":1767:1771  drug */\n      dup1\n        /* \"contracts/Drugs.sol\":1759:1771  id[i] = drug */\n      mload(0x40)\n      dup1\n      0x60\n      add\n      0x40\n      mstore\n      swap1\n      dup2\n      0x00\n      dup3\n      add\n      dup1\n      sload\n      tag_63\n      swap1\n      tag_64\n      jump\t// in\n    tag_63:\n      dup1\n      0x1f\n      add\n      0x20\n      dup1\n      swap2\n      div\n      mul\n      0x20\n      add\n      mload(0x40)\n      swap1\n      dup2\n      add\n      0x40\n      mstore\n      dup1\n      swap3\n      swap2\n      swap1\n      dup2\n      dup2\n      mstore\n      0x20\n      add\n      dup3\n      dup1\n      sload\n      tag_65\n      swap1\n      tag_64\n      jump\t// in\n    tag_65:\n      dup1\n      iszero\n      tag_66\n      jumpi\n      dup1\n      0x1f\n      lt\n      tag_67\n      jumpi\n      0x0100\n      dup1\n      dup4\n      sload\n      div\n      mul\n      dup4\n      mstore\n      swap2\n      0x20\n      add\n      swap2\n      jump(tag_66)\n    tag_67:\n      dup3\n      add\n      swap2\n      swap1\n      0x00\n      mstore\n      keccak256(0x00, 0x20)\n      swap1\n    tag_68:\n      dup2\n      sload\n      dup2\n      mstore\n      swap1\n      0x01\n      add\n      swap1\n      0x20\n      add\n      dup1\n      dup4\n      gt\n      tag_68\n      jumpi\n      dup3\n      swap1\n      sub\n      0x1f\n      and\n      dup3\n      add\n      swap2\n    tag_66:\n      pop\n      pop\n      pop\n      pop\n      pop\n      dup2\n      mstore\n      0x20\n      add\n      0x01\n      dup3\n      add\n      0x00\n      swap1\n      sload\n      swap1\n      0x0100\n      exp\n      swap1\n      div\n      0xffffffffffffffffffffffffffffffffffffffff\n      and\n      0xffffffffffffffffffffffffffffffffffffffff\n      and\n      0xffffffffffffffffffffffffffffffffffffffff\n      and\n      dup2\n      mstore\n      0x20\n      add\n      0x01\n      dup3\n      add\n      0x14\n      swap1\n      sload\n      swap1\n      0x0100\n      exp\n      swap1\n      div\n      0xff\n      and\n      iszero\n      iszero\n      iszero\n      iszero\n      dup2\n      mstore\n      pop\n      pop\n        /* \"contracts/Drugs.sol\":1759:1761  id */\n      dup4\n        /* \"contracts/Drugs.sol\":1762:1763  i */\n      dup4\n        /* \"contracts/Drugs.sol\":1759:1764  id[i] */\n      dup2\n      mload\n      dup2\n      lt\n      tag_69\n      jumpi\n      tag_70\n      tag_71\n      jump\t// in\n    tag_70:\n    tag_69:\n      0x20\n      mul\n      0x20\n      add\n      add\n        /* \"contracts/Drugs.sol\":1759:1771  id[i] = drug */\n      dup2\n      swap1\n      mstore\n      pop\n        /* \"contracts/Drugs.sol\":1701:1783  {\r... */\n      pop\n        /* \"contracts/Drugs.sol\":1696:1699  i++ */\n      dup1\n      dup1\n      tag_72\n      swap1\n      tag_51\n      jump\t// in\n    tag_72:\n      swap2\n      pop\n      pop\n        /* \"contracts/Drugs.sol\":1663:1783  for (uint i = 0; i < drugsCount; i++) {\r... */\n      jump(tag_60)\n    tag_61:\n      pop\n        /* \"contracts/Drugs.sol\":1800:1802  id */\n      dup1\n        /* \"contracts/Drugs.sol\":1793:1802  return id */\n      swap2\n      pop\n      pop\n        /* \"contracts/Drugs.sol\":1542:1810  function getDrugs() public view returns (Drug[] memory){\r... */\n      swap1\n      jump\t// out\n        /* \"contracts/Drugs.sol\":777:887  function get(string memory _regno) public view returns(Drug memory) {\r... */\n    tag_22:\n        /* \"contracts/Drugs.sol\":832:843  Drug memory */\n      tag_73\n      tag_59\n      jump\t// in\n    tag_73:\n        /* \"contracts/Drugs.sol\":863:871  newdrugs */\n      0x02\n        /* \"contracts/Drugs.sol\":872:878  _regno */\n      dup3\n        /* \"contracts/Drugs.sol\":863:879  newdrugs[_regno] */\n      mload(0x40)\n      tag_75\n      swap2\n      swap1\n      tag_76\n      jump\t// in\n    tag_75:\n      swap1\n      dup2\n      mstore\n      0x20\n      add\n      mload(0x40)\n      dup1\n      swap2\n      sub\n      swap1\n      keccak256\n        /* \"contracts/Drugs.sol\":856:879  return newdrugs[_regno] */\n      mload(0x40)\n      dup1\n      0x60\n      add\n      0x40\n      mstore\n      swap1\n      dup2\n      0x00\n      dup3\n      add\n      dup1\n      sload\n      tag_77\n      swap1\n      tag_64\n      jump\t// in\n    tag_77:\n      dup1\n      0x1f\n      add\n      0x20\n      dup1\n      swap2\n      div\n      mul\n      0x20\n      add\n      mload(0x40)\n      swap1\n      dup2\n      add\n      0x40\n      mstore\n      dup1\n      swap3\n      swap2\n      swap1\n      dup2\n      dup2\n      mstore\n      0x20\n      add\n      dup3\n      dup1\n      sload\n      tag_78\n      swap1\n      tag_64\n      jump\t// in\n    tag_78:\n      dup1\n      iszero\n      tag_79\n      jumpi\n      dup1\n      0x1f\n      lt\n      tag_80\n      jumpi\n      0x0100\n      dup1\n      dup4\n      sload\n      div\n      mul\n      dup4\n      mstore\n      swap2\n      0x20\n      add\n      swap2\n      jump(tag_79)\n    tag_80:\n      dup3\n      add\n      swap2\n      swap1\n      0x00\n      mstore\n      keccak256(0x00, 0x20)\n      swap1\n    tag_81:\n      dup2\n      sload\n      dup2\n      mstore\n      swap1\n      0x01\n      add\n      swap1\n      0x20\n      add\n      dup1\n      dup4\n      gt\n      tag_81\n      jumpi\n      dup3\n      swap1\n      sub\n      0x1f\n      and\n      dup3\n      add\n      swap2\n    tag_79:\n      pop\n      pop\n      pop\n      pop\n      pop\n      dup2\n      mstore\n      0x20\n      add\n      0x01\n      dup3\n      add\n      0x00\n      swap1\n      sload\n      swap1\n      0x0100\n      exp\n      swap1\n      div\n      0xffffffffffffffffffffffffffffffffffffffff\n      and\n      0xffffffffffffffffffffffffffffffffffffffff\n      and\n      0xffffffffffffffffffffffffffffffffffffffff\n      and\n      dup2\n      mstore\n      0x20\n      add\n      0x01\n      dup3\n      add\n      0x14\n      swap1\n      sload\n      swap1\n      0x0100\n      exp\n      swap1\n      div\n      0xff\n      and\n      iszero\n      iszero\n      iszero\n      iszero\n      dup2\n      mstore\n      pop\n      pop\n      swap1\n      pop\n        /* \"contracts/Drugs.sol\":777:887  function get(string memory _regno) public view returns(Drug memory) {\r... */\n      swap2\n      swap1\n      pop\n      jump\t// out\n        /* \"contracts/Drugs.sol\":491:513  uint public drugsCount */\n    tag_26:\n      sload(0x03)\n      dup2\n      jump\t// out\n        /* \"contracts/Drugs.sol\":394:434  mapping (string => Drug) public newdrugs */\n    tag_31:\n      0x02\n      dup2\n      dup1\n      mload\n      0x20\n      dup2\n      add\n      dup3\n      add\n      dup1\n      mload\n      dup5\n      dup3\n      mstore\n      0x20\n      dup4\n      add\n      0x20\n      dup6\n      add\n      keccak256\n      dup2\n      dup4\n      mstore\n      dup1\n      swap6\n      pop\n      pop\n      pop\n      pop\n      pop\n      pop\n      0x00\n      swap2\n      pop\n      swap1\n      pop\n      dup1\n      0x00\n      add\n      dup1\n      sload\n      tag_82\n      swap1\n      tag_64\n      jump\t// in\n    tag_82:\n      dup1\n      0x1f\n      add\n      0x20\n      dup1\n      swap2\n      div\n      mul\n      0x20\n      add\n      mload(0x40)\n      swap1\n      dup2\n      add\n      0x40\n      mstore\n      dup1\n      swap3\n      swap2\n      swap1\n      dup2\n      dup2\n      mstore\n      0x20\n      add\n      dup3\n      dup1\n      sload\n      tag_83\n      swap1\n      tag_64\n      jump\t// in\n    tag_83:\n      dup1\n      iszero\n      tag_84\n      jumpi\n      dup1\n      0x1f\n      lt\n      tag_85\n      jumpi\n      0x0100\n      dup1\n      dup4\n      sload\n      div\n      mul\n      dup4\n      mstore\n      swap2\n      0x20\n      add\n      swap2\n      jump(tag_84)\n    tag_85:\n      dup3\n      add\n      swap2\n      swap1\n      0x00\n      mstore\n      keccak256(0x00, 0x20)\n      swap1\n    tag_86:\n      dup2\n      sload\n      dup2\n      mstore\n      swap1\n      0x01\n      add\n      swap1\n      0x20\n      add\n      dup1\n      dup4\n      gt\n      tag_86\n      jumpi\n      dup3\n      swap1\n      sub\n      0x1f\n      and\n      dup3\n      add\n      swap2\n    tag_84:\n      pop\n      pop\n      pop\n      pop\n      pop\n      swap1\n      dup1\n      0x01\n      add\n      0x00\n      swap1\n      sload\n      swap1\n      0x0100\n      exp\n      swap1\n      div\n      0xffffffffffffffffffffffffffffffffffffffff\n      and\n      swap1\n      dup1\n      0x01\n      add\n      0x14\n      swap1\n      sload\n      swap1\n      0x0100\n      exp\n      swap1\n      div\n      0xff\n      and\n      swap1\n      pop\n      dup4\n      jump\t// out\n        /* \"contracts/Drugs.sol\":1816:1938  function changeDrugStatus(uint _drugid, bool _status) public onlyOwner{\r... */\n    tag_37:\n        /* \"contracts/Drugs.sol\":315:325  msg.sender */\n      caller\n        /* \"contracts/Drugs.sol\":306:325  owner == msg.sender */\n      0xffffffffffffffffffffffffffffffffffffffff\n      and\n        /* \"contracts/Drugs.sol\":306:311  owner */\n      0x00\n      dup1\n      sload\n      swap1\n      0x0100\n      exp\n      swap1\n      div\n      0xffffffffffffffffffffffffffffffffffffffff\n      and\n        /* \"contracts/Drugs.sol\":306:325  owner == msg.sender */\n      0xffffffffffffffffffffffffffffffffffffffff\n      and\n      eq\n        /* \"contracts/Drugs.sol\":298:326  require(owner == msg.sender) */\n      tag_88\n      jumpi\n      0x00\n      dup1\n      revert\n    tag_88:\n        /* \"contracts/Drugs.sol\":1923:1930  _status */\n      dup1\n        /* \"contracts/Drugs.sol\":1897:1902  drugs */\n      0x01\n        /* \"contracts/Drugs.sol\":1897:1911  drugs[_drugid] */\n      0x00\n        /* \"contracts/Drugs.sol\":1903:1910  _drugid */\n      dup5\n        /* \"contracts/Drugs.sol\":1897:1911  drugs[_drugid] */\n      dup2\n      mstore\n      0x20\n      add\n      swap1\n      dup2\n      mstore\n      0x20\n      add\n      0x00\n      keccak256\n        /* \"contracts/Drugs.sol\":1897:1920  drugs[_drugid].IsActive */\n      0x01\n      add\n      0x14\n        /* \"contracts/Drugs.sol\":1897:1930  drugs[_drugid].IsActive = _status */\n      0x0100\n      exp\n      dup2\n      sload\n      dup2\n      0xff\n      mul\n      not\n      and\n      swap1\n      dup4\n      iszero\n      iszero\n      mul\n      or\n      swap1\n      sstore\n      pop\n        /* \"contracts/Drugs.sol\":1816:1938  function changeDrugStatus(uint _drugid, bool _status) public onlyOwner{\r... */\n      pop\n      pop\n      jump\t// out\n        /* \"contracts/Drugs.sol\":932:1503  function getDrug() public view returns (string[] memory, address[] memory, bool[] memory){\r... */\n    tag_39:\n        /* \"contracts/Drugs.sol\":972:987  string[] memory */\n      0x60\n        /* \"contracts/Drugs.sol\":989:1005  address[] memory */\n      dup1\n        /* \"contracts/Drugs.sol\":1007:1020  bool[] memory */\n      0x60\n        /* \"contracts/Drugs.sol\":1032:1054  string[]  memory regno */\n      0x00\n        /* \"contracts/Drugs.sol\":1070:1080  drugsCount */\n      sload(0x03)\n        /* \"contracts/Drugs.sol\":1057:1081  new string[](drugsCount) */\n      0xffffffffffffffff\n      dup2\n      gt\n      iszero\n      tag_91\n      jumpi\n      tag_92\n      tag_55\n      jump\t// in\n    tag_92:\n    tag_91:\n      mload(0x40)\n      swap1\n      dup1\n      dup3\n      mstore\n      dup1\n      0x20\n      mul\n      0x20\n      add\n      dup3\n      add\n      0x40\n      mstore\n      dup1\n      iszero\n      tag_93\n      jumpi\n      dup2\n      0x20\n      add\n    tag_94:\n      0x60\n      dup2\n      mstore\n      0x20\n      add\n      swap1\n      0x01\n      swap1\n      sub\n      swap1\n      dup2\n      tag_94\n      jumpi\n      swap1\n      pop\n    tag_93:\n      pop\n        /* \"contracts/Drugs.sol\":1032:1081  string[]  memory regno = new string[](drugsCount) */\n      swap1\n      pop\n        /* \"contracts/Drugs.sol\":1092:1122  address[]  memory manufacturer */\n      0x00\n        /* \"contracts/Drugs.sol\":1139:1149  drugsCount */\n      sload(0x03)\n        /* \"contracts/Drugs.sol\":1125:1150  new address[](drugsCount) */\n      0xffffffffffffffff\n      dup2\n      gt\n      iszero\n      tag_95\n      jumpi\n      tag_96\n      tag_55\n      jump\t// in\n    tag_96:\n    tag_95:\n      mload(0x40)\n      swap1\n      dup1\n      dup3\n      mstore\n      dup1\n      0x20\n      mul\n      0x20\n      add\n      dup3\n      add\n      0x40\n      mstore\n      dup1\n      iszero\n      tag_97\n      jumpi\n      dup2\n      0x20\n      add\n      0x20\n      dup3\n      mul\n      dup1\n      calldatasize\n      dup4\n      calldatacopy\n      dup1\n      dup3\n      add\n      swap2\n      pop\n      pop\n      swap1\n      pop\n    tag_97:\n      pop\n        /* \"contracts/Drugs.sol\":1092:1150  address[]  memory manufacturer = new address[](drugsCount) */\n      swap1\n      pop\n        /* \"contracts/Drugs.sol\":1164:1186  bool[] memory isactive */\n      0x00\n        /* \"contracts/Drugs.sol\":1200:1210  drugsCount */\n      sload(0x03)\n        /* \"contracts/Drugs.sol\":1189:1211  new bool[](drugsCount) */\n      0xffffffffffffffff\n      dup2\n      gt\n      iszero\n      tag_98\n      jumpi\n      tag_99\n      tag_55\n      jump\t// in\n    tag_99:\n    tag_98:\n      mload(0x40)\n      swap1\n      dup1\n      dup3\n      mstore\n      dup1\n      0x20\n      mul\n      0x20\n      add\n      dup3\n      add\n      0x40\n      mstore\n      dup1\n      iszero\n      tag_100\n      jumpi\n      dup2\n      0x20\n      add\n      0x20\n      dup3\n      mul\n      dup1\n      calldatasize\n      dup4\n      calldatacopy\n      dup1\n      dup3\n      add\n      swap2\n      pop\n      pop\n      swap1\n      pop\n    tag_100:\n      pop\n        /* \"contracts/Drugs.sol\":1164:1211  bool[] memory isactive = new bool[](drugsCount) */\n      swap1\n      pop\n        /* \"contracts/Drugs.sol\":1231:1237  uint i */\n      0x00\n        /* \"contracts/Drugs.sol\":1226:1447  for (uint i = 0; i < drugsCount; i++) {\r... */\n    tag_101:\n        /* \"contracts/Drugs.sol\":1247:1257  drugsCount */\n      sload(0x03)\n        /* \"contracts/Drugs.sol\":1243:1244  i */\n      dup2\n        /* \"contracts/Drugs.sol\":1243:1257  i < drugsCount */\n      lt\n        /* \"contracts/Drugs.sol\":1226:1447  for (uint i = 0; i < drugsCount; i++) {\r... */\n      iszero\n      tag_102\n      jumpi\n        /* \"contracts/Drugs.sol\":1279:1296  Drug storage drug */\n      0x00\n        /* \"contracts/Drugs.sol\":1299:1304  drugs */\n      0x01\n        /* \"contracts/Drugs.sol\":1299:1307  drugs[i] */\n      0x00\n        /* \"contracts/Drugs.sol\":1305:1306  i */\n      dup4\n        /* \"contracts/Drugs.sol\":1299:1307  drugs[i] */\n      dup2\n      mstore\n      0x20\n      add\n      swap1\n      dup2\n      mstore\n      0x20\n      add\n      0x00\n      keccak256\n        /* \"contracts/Drugs.sol\":1279:1307  Drug storage drug = drugs[i] */\n      swap1\n      pop\n        /* \"contracts/Drugs.sol\":1333:1337  drug */\n      dup1\n        /* \"contracts/Drugs.sol\":1333:1343  drug.RegNo */\n      0x00\n      add\n        /* \"contracts/Drugs.sol\":1322:1343  regno[i] = drug.RegNo */\n      dup1\n      sload\n      tag_104\n      swap1\n      tag_64\n      jump\t// in\n    tag_104:\n      dup1\n      0x1f\n      add\n      0x20\n      dup1\n      swap2\n      div\n      mul\n      0x20\n      add\n      mload(0x40)\n      swap1\n      dup2\n      add\n      0x40\n      mstore\n      dup1\n      swap3\n      swap2\n      swap1\n      dup2\n      dup2\n      mstore\n      0x20\n      add\n      dup3\n      dup1\n      sload\n      tag_105\n      swap1\n      tag_64\n      jump\t// in\n    tag_105:\n      dup1\n      iszero\n      tag_106\n      jumpi\n      dup1\n      0x1f\n      lt\n      tag_107\n      jumpi\n      0x0100\n      dup1\n      dup4\n      sload\n      div\n      mul\n      dup4\n      mstore\n      swap2\n      0x20\n      add\n      swap2\n      jump(tag_106)\n    tag_107:\n      dup3\n      add\n      swap2\n      swap1\n      0x00\n      mstore\n      keccak256(0x00, 0x20)\n      swap1\n    tag_108:\n      dup2\n      sload\n      dup2\n      mstore\n      swap1\n      0x01\n      add\n      swap1\n      0x20\n      add\n      dup1\n      dup4\n      gt\n      tag_108\n      jumpi\n      dup3\n      swap1\n      sub\n      0x1f\n      and\n      dup3\n      add\n      swap2\n    tag_106:\n      pop\n      pop\n      pop\n      pop\n      pop\n        /* \"contracts/Drugs.sol\":1322:1327  regno */\n      dup6\n        /* \"contracts/Drugs.sol\":1328:1329  i */\n      dup4\n        /* \"contracts/Drugs.sol\":1322:1330  regno[i] */\n      dup2\n      mload\n      dup2\n      lt\n      tag_109\n      jumpi\n      tag_110\n      tag_71\n      jump\t// in\n    tag_110:\n    tag_109:\n      0x20\n      mul\n      0x20\n      add\n      add\n        /* \"contracts/Drugs.sol\":1322:1343  regno[i] = drug.RegNo */\n      dup2\n      swap1\n      mstore\n      pop\n        /* \"contracts/Drugs.sol\":1376:1380  drug */\n      dup1\n        /* \"contracts/Drugs.sol\":1376:1393  drug.Manufacturer */\n      0x01\n      add\n      0x00\n      swap1\n      sload\n      swap1\n      0x0100\n      exp\n      swap1\n      div\n      0xffffffffffffffffffffffffffffffffffffffff\n      and\n        /* \"contracts/Drugs.sol\":1358:1370  manufacturer */\n      dup5\n        /* \"contracts/Drugs.sol\":1371:1372  i */\n      dup4\n        /* \"contracts/Drugs.sol\":1358:1373  manufacturer[i] */\n      dup2\n      mload\n      dup2\n      lt\n      tag_111\n      jumpi\n      tag_112\n      tag_71\n      jump\t// in\n    tag_112:\n    tag_111:\n      0x20\n      mul\n      0x20\n      add\n      add\n        /* \"contracts/Drugs.sol\":1358:1393  manufacturer[i] = drug.Manufacturer */\n      swap1\n      0xffffffffffffffffffffffffffffffffffffffff\n      and\n      swap1\n      dup2\n      0xffffffffffffffffffffffffffffffffffffffff\n      and\n      dup2\n      mstore\n      pop\n      pop\n        /* \"contracts/Drugs.sol\":1422:1426  drug */\n      dup1\n        /* \"contracts/Drugs.sol\":1422:1435  drug.IsActive */\n      0x01\n      add\n      0x14\n      swap1\n      sload\n      swap1\n      0x0100\n      exp\n      swap1\n      div\n      0xff\n      and\n        /* \"contracts/Drugs.sol\":1408:1416  isactive */\n      dup4\n        /* \"contracts/Drugs.sol\":1417:1418  i */\n      dup4\n        /* \"contracts/Drugs.sol\":1408:1419  isactive[i] */\n      dup2\n      mload\n      dup2\n      lt\n      tag_113\n      jumpi\n      tag_114\n      tag_71\n      jump\t// in\n    tag_114:\n    tag_113:\n      0x20\n      mul\n      0x20\n      add\n      add\n        /* \"contracts/Drugs.sol\":1408:1435  isactive[i] = drug.IsActive */\n      swap1\n      iszero\n      iszero\n      swap1\n      dup2\n      iszero\n      iszero\n      dup2\n      mstore\n      pop\n      pop\n        /* \"contracts/Drugs.sol\":1264:1447  {\r... */\n      pop\n        /* \"contracts/Drugs.sol\":1259:1262  i++ */\n      dup1\n      dup1\n      tag_115\n      swap1\n      tag_51\n      jump\t// in\n    tag_115:\n      swap2\n      pop\n      pop\n        /* \"contracts/Drugs.sol\":1226:1447  for (uint i = 0; i < drugsCount; i++) {\r... */\n      jump(tag_101)\n    tag_102:\n      pop\n        /* \"contracts/Drugs.sol\":1465:1470  regno */\n      dup3\n        /* \"contracts/Drugs.sol\":1472:1484  manufacturer */\n      dup3\n        /* \"contracts/Drugs.sol\":1486:1494  isactive */\n      dup3\n        /* \"contracts/Drugs.sol\":1457:1495  return (regno, manufacturer, isactive) */\n      swap6\n      pop\n      swap6\n      pop\n      swap6\n      pop\n      pop\n      pop\n      pop\n        /* \"contracts/Drugs.sol\":932:1503  function getDrug() public view returns (string[] memory, address[] memory, bool[] memory){\r... */\n      swap1\n      swap2\n      swap3\n      jump\t// out\n        /* \"contracts/Drugs.sol\":352:387  mapping (uint => Drug) public drugs */\n    tag_45:\n      mstore(0x20, 0x01)\n      dup1\n      0x00\n      mstore\n      keccak256(0x00, 0x40)\n      0x00\n      swap2\n      pop\n      swap1\n      pop\n      dup1\n      0x00\n      add\n      dup1\n      sload\n      tag_116\n      swap1\n      tag_64\n      jump\t// in\n    tag_116:\n      dup1\n      0x1f\n      add\n      0x20\n      dup1\n      swap2\n      div\n      mul\n      0x20\n      add\n      mload(0x40)\n      swap1\n      dup2\n      add\n      0x40\n      mstore\n      dup1\n      swap3\n      swap2\n      swap1\n      dup2\n      dup2\n      mstore\n      0x20\n      add\n      dup3\n      dup1\n      sload\n      tag_117\n      swap1\n      tag_64\n      jump\t// in\n    tag_117:\n      dup1\n      iszero\n      tag_118\n      jumpi\n      dup1\n      0x1f\n      lt\n      tag_119\n      jumpi\n      0x0100\n      dup1\n      dup4\n      sload\n      div\n      mul\n      dup4\n      mstore\n      swap2\n      0x20\n      add\n      swap2\n      jump(tag_118)\n    tag_119:\n      dup3\n      add\n      swap2\n      swap1\n      0x00\n      mstore\n      keccak256(0x00, 0x20)\n      swap1\n    tag_120:\n      dup2\n      sload\n      dup2\n      mstore\n      swap1\n      0x01\n      add\n      swap1\n      0x20\n      add\n      dup1\n      dup4\n      gt\n      tag_120\n      jumpi\n      dup3\n      swap1\n      sub\n      0x1f\n      and\n      dup3\n      add\n      swap2\n    tag_118:\n      pop\n      pop\n      pop\n      pop\n      pop\n      swap1\n      dup1\n      0x01\n      add\n      0x00\n      swap1\n      sload\n      swap1\n      0x0100\n      exp\n      swap1\n      div\n      0xffffffffffffffffffffffffffffffffffffffff\n      and\n      swap1\n      dup1\n      0x01\n      add\n      0x14\n      swap1\n      sload\n      swap1\n      0x0100\n      exp\n      swap1\n      div\n      0xff\n      and\n      swap1\n      pop\n      dup4\n      jump\t// out\n    tag_49:\n      dup3\n      dup1\n      sload\n      tag_121\n      swap1\n      tag_64\n      jump\t// in\n    tag_121:\n      swap1\n      0x00\n      mstore\n      keccak256(0x00, 0x20)\n      swap1\n      0x1f\n      add\n      0x20\n      swap1\n      div\n      dup2\n      add\n      swap3\n      dup3\n      tag_123\n      jumpi\n      0x00\n      dup6\n      sstore\n      jump(tag_122)\n    tag_123:\n      dup3\n      0x1f\n      lt\n      tag_124\n      jumpi\n      dup1\n      mload\n      not(0xff)\n      and\n      dup4\n      dup1\n      add\n      or\n      dup6\n      sstore\n      jump(tag_122)\n    tag_124:\n      dup3\n      dup1\n      add\n      0x01\n      add\n      dup6\n      sstore\n      dup3\n      iszero\n      tag_122\n      jumpi\n      swap2\n      dup3\n      add\n    tag_125:\n      dup3\n      dup2\n      gt\n      iszero\n      tag_126\n      jumpi\n      dup3\n      mload\n      dup3\n      sstore\n      swap2\n      0x20\n      add\n      swap2\n      swap1\n      0x01\n      add\n      swap1\n      jump(tag_125)\n    tag_126:\n    tag_122:\n      pop\n      swap1\n      pop\n      tag_127\n      swap2\n      swap1\n      tag_128\n      jump\t// in\n    tag_127:\n      pop\n      swap1\n      jump\t// out\n    tag_59:\n      mload(0x40)\n      dup1\n      0x60\n      add\n      0x40\n      mstore\n      dup1\n      0x60\n      dup2\n      mstore\n      0x20\n      add\n      and(0xffffffffffffffffffffffffffffffffffffffff, 0x00)\n      dup2\n      mstore\n      0x20\n      add\n      iszero(iszero(0x00))\n      dup2\n      mstore\n      pop\n      swap1\n      jump\t// out\n    tag_128:\n    tag_129:\n      dup1\n      dup3\n      gt\n      iszero\n      tag_130\n      jumpi\n      0x00\n      dup2\n      0x00\n      swap1\n      sstore\n      pop\n      0x01\n      add\n      jump(tag_129)\n    tag_130:\n      pop\n      swap1\n      jump\t// out\n        /* \"#utility.yul\":7:419   */\n    tag_132:\n        /* \"#utility.yul\":85:90   */\n      0x00\n        /* \"#utility.yul\":110:176   */\n      tag_134\n        /* \"#utility.yul\":126:175   */\n      tag_135\n        /* \"#utility.yul\":168:174   */\n      dup5\n        /* \"#utility.yul\":126:175   */\n      tag_136\n      jump\t// in\n    tag_135:\n        /* \"#utility.yul\":110:176   */\n      tag_137\n      jump\t// in\n    tag_134:\n        /* \"#utility.yul\":101:176   */\n      swap1\n      pop\n        /* \"#utility.yul\":199:205   */\n      dup3\n        /* \"#utility.yul\":192:197   */\n      dup2\n        /* \"#utility.yul\":185:206   */\n      mstore\n        /* \"#utility.yul\":237:241   */\n      0x20\n        /* \"#utility.yul\":230:235   */\n      dup2\n        /* \"#utility.yul\":226:242   */\n      add\n        /* \"#utility.yul\":275:278   */\n      dup5\n        /* \"#utility.yul\":266:272   */\n      dup5\n        /* \"#utility.yul\":261:264   */\n      dup5\n        /* \"#utility.yul\":257:273   */\n      add\n        /* \"#utility.yul\":254:279   */\n      gt\n        /* \"#utility.yul\":251:363   */\n      iszero\n      tag_138\n      jumpi\n        /* \"#utility.yul\":282:361   */\n      tag_139\n      tag_140\n      jump\t// in\n    tag_139:\n        /* \"#utility.yul\":251:363   */\n    tag_138:\n        /* \"#utility.yul\":372:413   */\n      tag_141\n        /* \"#utility.yul\":406:412   */\n      dup5\n        /* \"#utility.yul\":401:404   */\n      dup3\n        /* \"#utility.yul\":396:399   */\n      dup6\n        /* \"#utility.yul\":372:413   */\n      tag_142\n      jump\t// in\n    tag_141:\n        /* \"#utility.yul\":91:419   */\n      pop\n        /* \"#utility.yul\":7:419   */\n      swap4\n      swap3\n      pop\n      pop\n      pop\n      jump\t// out\n        /* \"#utility.yul\":425:558   */\n    tag_143:\n        /* \"#utility.yul\":468:473   */\n      0x00\n        /* \"#utility.yul\":506:512   */\n      dup2\n        /* \"#utility.yul\":493:513   */\n      calldataload\n        /* \"#utility.yul\":484:513   */\n      swap1\n      pop\n        /* \"#utility.yul\":522:552   */\n      tag_145\n        /* \"#utility.yul\":546:551   */\n      dup2\n        /* \"#utility.yul\":522:552   */\n      tag_146\n      jump\t// in\n    tag_145:\n        /* \"#utility.yul\":425:558   */\n      swap3\n      swap2\n      pop\n      pop\n      jump\t// out\n        /* \"#utility.yul\":578:918   */\n    tag_147:\n        /* \"#utility.yul\":634:639   */\n      0x00\n        /* \"#utility.yul\":683:686   */\n      dup3\n        /* \"#utility.yul\":676:680   */\n      0x1f\n        /* \"#utility.yul\":668:674   */\n      dup4\n        /* \"#utility.yul\":664:681   */\n      add\n        /* \"#utility.yul\":660:687   */\n      slt\n        /* \"#utility.yul\":650:772   */\n      tag_149\n      jumpi\n        /* \"#utility.yul\":691:770   */\n      tag_150\n      tag_151\n      jump\t// in\n    tag_150:\n        /* \"#utility.yul\":650:772   */\n    tag_149:\n        /* \"#utility.yul\":808:814   */\n      dup2\n        /* \"#utility.yul\":795:815   */\n      calldataload\n        /* \"#utility.yul\":833:912   */\n      tag_152\n        /* \"#utility.yul\":908:911   */\n      dup5\n        /* \"#utility.yul\":900:906   */\n      dup3\n        /* \"#utility.yul\":893:897   */\n      0x20\n        /* \"#utility.yul\":885:891   */\n      dup7\n        /* \"#utility.yul\":881:898   */\n      add\n        /* \"#utility.yul\":833:912   */\n      tag_132\n      jump\t// in\n    tag_152:\n        /* \"#utility.yul\":824:912   */\n      swap2\n      pop\n        /* \"#utility.yul\":640:918   */\n      pop\n        /* \"#utility.yul\":578:918   */\n      swap3\n      swap2\n      pop\n      pop\n      jump\t// out\n        /* \"#utility.yul\":924:1063   */\n    tag_153:\n        /* \"#utility.yul\":970:975   */\n      0x00\n        /* \"#utility.yul\":1008:1014   */\n      dup2\n        /* \"#utility.yul\":995:1015   */\n      calldataload\n        /* \"#utility.yul\":986:1015   */\n      swap1\n      pop\n        /* \"#utility.yul\":1024:1057   */\n      tag_155\n        /* \"#utility.yul\":1051:1056   */\n      dup2\n        /* \"#utility.yul\":1024:1057   */\n      tag_156\n      jump\t// in\n    tag_155:\n        /* \"#utility.yul\":924:1063   */\n      swap3\n      swap2\n      pop\n      pop\n      jump\t// out\n        /* \"#utility.yul\":1069:1578   */\n    tag_14:\n        /* \"#utility.yul\":1138:1144   */\n      0x00\n        /* \"#utility.yul\":1187:1189   */\n      0x20\n        /* \"#utility.yul\":1175:1184   */\n      dup3\n        /* \"#utility.yul\":1166:1173   */\n      dup5\n        /* \"#utility.yul\":1162:1185   */\n      sub\n        /* \"#utility.yul\":1158:1190   */\n      slt\n        /* \"#utility.yul\":1155:1274   */\n      iszero\n      tag_158\n      jumpi\n        /* \"#utility.yul\":1193:1272   */\n      tag_159\n      tag_160\n      jump\t// in\n    tag_159:\n        /* \"#utility.yul\":1155:1274   */\n    tag_158:\n        /* \"#utility.yul\":1341:1342   */\n      0x00\n        /* \"#utility.yul\":1330:1339   */\n      dup3\n        /* \"#utility.yul\":1326:1343   */\n      add\n        /* \"#utility.yul\":1313:1344   */\n      calldataload\n        /* \"#utility.yul\":1371:1389   */\n      0xffffffffffffffff\n        /* \"#utility.yul\":1363:1369   */\n      dup2\n        /* \"#utility.yul\":1360:1390   */\n      gt\n        /* \"#utility.yul\":1357:1474   */\n      iszero\n      tag_161\n      jumpi\n        /* \"#utility.yul\":1393:1472   */\n      tag_162\n      tag_163\n      jump\t// in\n    tag_162:\n        /* \"#utility.yul\":1357:1474   */\n    tag_161:\n        /* \"#utility.yul\":1498:1561   */\n      tag_164\n        /* \"#utility.yul\":1553:1560   */\n      dup5\n        /* \"#utility.yul\":1544:1550   */\n      dup3\n        /* \"#utility.yul\":1533:1542   */\n      dup6\n        /* \"#utility.yul\":1529:1551   */\n      add\n        /* \"#utility.yul\":1498:1561   */\n      tag_147\n      jump\t// in\n    tag_164:\n        /* \"#utility.yul\":1488:1561   */\n      swap2\n      pop\n        /* \"#utility.yul\":1284:1571   */\n      pop\n        /* \"#utility.yul\":1069:1578   */\n      swap3\n      swap2\n      pop\n      pop\n      jump\t// out\n        /* \"#utility.yul\":1584:1913   */\n    tag_44:\n        /* \"#utility.yul\":1643:1649   */\n      0x00\n        /* \"#utility.yul\":1692:1694   */\n      0x20\n        /* \"#utility.yul\":1680:1689   */\n      dup3\n        /* \"#utility.yul\":1671:1678   */\n      dup5\n        /* \"#utility.yul\":1667:1690   */\n      sub\n        /* \"#utility.yul\":1663:1695   */\n      slt\n        /* \"#utility.yul\":1660:1779   */\n      iszero\n      tag_166\n      jumpi\n        /* \"#utility.yul\":1698:1777   */\n      tag_167\n      tag_160\n      jump\t// in\n    tag_167:\n        /* \"#utility.yul\":1660:1779   */\n    tag_166:\n        /* \"#utility.yul\":1818:1819   */\n      0x00\n        /* \"#utility.yul\":1843:1896   */\n      tag_168\n        /* \"#utility.yul\":1888:1895   */\n      dup5\n        /* \"#utility.yul\":1879:1885   */\n      dup3\n        /* \"#utility.yul\":1868:1877   */\n      dup6\n        /* \"#utility.yul\":1864:1886   */\n      add\n        /* \"#utility.yul\":1843:1896   */\n      tag_153\n      jump\t// in\n    tag_168:\n        /* \"#utility.yul\":1833:1896   */\n      swap2\n      pop\n        /* \"#utility.yul\":1789:1906   */\n      pop\n        /* \"#utility.yul\":1584:1913   */\n      swap3\n      swap2\n      pop\n      pop\n      jump\t// out\n        /* \"#utility.yul\":1919:2387   */\n    tag_36:\n        /* \"#utility.yul\":1984:1990   */\n      0x00\n        /* \"#utility.yul\":1992:1998   */\n      dup1\n        /* \"#utility.yul\":2041:2043   */\n      0x40\n        /* \"#utility.yul\":2029:2038   */\n      dup4\n        /* \"#utility.yul\":2020:2027   */\n      dup6\n        /* \"#utility.yul\":2016:2039   */\n      sub\n        /* \"#utility.yul\":2012:2044   */\n      slt\n        /* \"#utility.yul\":2009:2128   */\n      iszero\n      tag_170\n      jumpi\n        /* \"#utility.yul\":2047:2126   */\n      tag_171\n      tag_160\n      jump\t// in\n    tag_171:\n        /* \"#utility.yul\":2009:2128   */\n    tag_170:\n        /* \"#utility.yul\":2167:2168   */\n      0x00\n        /* \"#utility.yul\":2192:2245   */\n      tag_172\n        /* \"#utility.yul\":2237:2244   */\n      dup6\n        /* \"#utility.yul\":2228:2234   */\n      dup3\n        /* \"#utility.yul\":2217:2226   */\n      dup7\n        /* \"#utility.yul\":2213:2235   */\n      add\n        /* \"#utility.yul\":2192:2245   */\n      tag_153\n      jump\t// in\n    tag_172:\n        /* \"#utility.yul\":2182:2245   */\n      swap3\n      pop\n        /* \"#utility.yul\":2138:2255   */\n      pop\n        /* \"#utility.yul\":2294:2296   */\n      0x20\n        /* \"#utility.yul\":2320:2370   */\n      tag_173\n        /* \"#utility.yul\":2362:2369   */\n      dup6\n        /* \"#utility.yul\":2353:2359   */\n      dup3\n        /* \"#utility.yul\":2342:2351   */\n      dup7\n        /* \"#utility.yul\":2338:2360   */\n      add\n        /* \"#utility.yul\":2320:2370   */\n      tag_143\n      jump\t// in\n    tag_173:\n        /* \"#utility.yul\":2310:2370   */\n      swap2\n      pop\n        /* \"#utility.yul\":2265:2380   */\n      pop\n        /* \"#utility.yul\":1919:2387   */\n      swap3\n      pop\n      swap3\n      swap1\n      pop\n      jump\t// out\n        /* \"#utility.yul\":2393:2572   */\n    tag_174:\n        /* \"#utility.yul\":2462:2472   */\n      0x00\n        /* \"#utility.yul\":2483:2529   */\n      tag_176\n        /* \"#utility.yul\":2525:2528   */\n      dup4\n        /* \"#utility.yul\":2517:2523   */\n      dup4\n        /* \"#utility.yul\":2483:2529   */\n      tag_177\n      jump\t// in\n    tag_176:\n        /* \"#utility.yul\":2561:2565   */\n      0x20\n        /* \"#utility.yul\":2556:2559   */\n      dup4\n        /* \"#utility.yul\":2552:2566   */\n      add\n        /* \"#utility.yul\":2538:2566   */\n      swap1\n      pop\n        /* \"#utility.yul\":2393:2572   */\n      swap3\n      swap2\n      pop\n      pop\n      jump\t// out\n        /* \"#utility.yul\":2578:2745   */\n    tag_178:\n        /* \"#utility.yul\":2641:2651   */\n      0x00\n        /* \"#utility.yul\":2662:2702   */\n      tag_180\n        /* \"#utility.yul\":2698:2701   */\n      dup4\n        /* \"#utility.yul\":2690:2696   */\n      dup4\n        /* \"#utility.yul\":2662:2702   */\n      tag_181\n      jump\t// in\n    tag_180:\n        /* \"#utility.yul\":2734:2738   */\n      0x20\n        /* \"#utility.yul\":2729:2732   */\n      dup4\n        /* \"#utility.yul\":2725:2739   */\n      add\n        /* \"#utility.yul\":2711:2739   */\n      swap1\n      pop\n        /* \"#utility.yul\":2578:2745   */\n      swap3\n      swap2\n      pop\n      pop\n      jump\t// out\n        /* \"#utility.yul\":2751:2947   */\n    tag_182:\n        /* \"#utility.yul\":2840:2850   */\n      0x00\n        /* \"#utility.yul\":2875:2941   */\n      tag_184\n        /* \"#utility.yul\":2937:2940   */\n      dup4\n        /* \"#utility.yul\":2929:2935   */\n      dup4\n        /* \"#utility.yul\":2875:2941   */\n      tag_185\n      jump\t// in\n    tag_184:\n        /* \"#utility.yul\":2861:2941   */\n      swap1\n      pop\n        /* \"#utility.yul\":2751:2947   */\n      swap3\n      swap2\n      pop\n      pop\n      jump\t// out\n        /* \"#utility.yul\":2953:3185   */\n    tag_186:\n        /* \"#utility.yul\":3060:3070   */\n      0x00\n        /* \"#utility.yul\":3095:3179   */\n      tag_188\n        /* \"#utility.yul\":3175:3178   */\n      dup4\n        /* \"#utility.yul\":3167:3173   */\n      dup4\n        /* \"#utility.yul\":3095:3179   */\n      tag_189\n      jump\t// in\n    tag_188:\n        /* \"#utility.yul\":3081:3179   */\n      swap1\n      pop\n        /* \"#utility.yul\":2953:3185   */\n      swap3\n      swap2\n      pop\n      pop\n      jump\t// out\n        /* \"#utility.yul\":3191:3299   */\n    tag_177:\n        /* \"#utility.yul\":3268:3292   */\n      tag_191\n        /* \"#utility.yul\":3286:3291   */\n      dup2\n        /* \"#utility.yul\":3268:3292   */\n      tag_192\n      jump\t// in\n    tag_191:\n        /* \"#utility.yul\":3263:3266   */\n      dup3\n        /* \"#utility.yul\":3256:3293   */\n      mstore\n        /* \"#utility.yul\":3191:3299   */\n      pop\n      pop\n      jump\t// out\n        /* \"#utility.yul\":3305:3423   */\n    tag_193:\n        /* \"#utility.yul\":3392:3416   */\n      tag_195\n        /* \"#utility.yul\":3410:3415   */\n      dup2\n        /* \"#utility.yul\":3392:3416   */\n      tag_192\n      jump\t// in\n    tag_195:\n        /* \"#utility.yul\":3387:3390   */\n      dup3\n        /* \"#utility.yul\":3380:3417   */\n      mstore\n        /* \"#utility.yul\":3305:3423   */\n      pop\n      pop\n      jump\t// out\n        /* \"#utility.yul\":3459:4191   */\n    tag_196:\n        /* \"#utility.yul\":3578:3581   */\n      0x00\n        /* \"#utility.yul\":3607:3661   */\n      tag_198\n        /* \"#utility.yul\":3655:3660   */\n      dup3\n        /* \"#utility.yul\":3607:3661   */\n      tag_199\n      jump\t// in\n    tag_198:\n        /* \"#utility.yul\":3677:3763   */\n      tag_200\n        /* \"#utility.yul\":3756:3762   */\n      dup2\n        /* \"#utility.yul\":3751:3754   */\n      dup6\n        /* \"#utility.yul\":3677:3763   */\n      tag_201\n      jump\t// in\n    tag_200:\n        /* \"#utility.yul\":3670:3763   */\n      swap4\n      pop\n        /* \"#utility.yul\":3787:3843   */\n      tag_202\n        /* \"#utility.yul\":3837:3842   */\n      dup4\n        /* \"#utility.yul\":3787:3843   */\n      tag_203\n      jump\t// in\n    tag_202:\n        /* \"#utility.yul\":3866:3873   */\n      dup1\n        /* \"#utility.yul\":3897:3898   */\n      0x00\n        /* \"#utility.yul\":3882:4166   */\n    tag_204:\n        /* \"#utility.yul\":3907:3913   */\n      dup4\n        /* \"#utility.yul\":3904:3905   */\n      dup2\n        /* \"#utility.yul\":3901:3914   */\n      lt\n        /* \"#utility.yul\":3882:4166   */\n      iszero\n      tag_206\n      jumpi\n        /* \"#utility.yul\":3983:3989   */\n      dup2\n        /* \"#utility.yul\":3977:3990   */\n      mload\n        /* \"#utility.yul\":4010:4073   */\n      tag_207\n        /* \"#utility.yul\":4069:4072   */\n      dup9\n        /* \"#utility.yul\":4054:4067   */\n      dup3\n        /* \"#utility.yul\":4010:4073   */\n      tag_174\n      jump\t// in\n    tag_207:\n        /* \"#utility.yul\":4003:4073   */\n      swap8\n      pop\n        /* \"#utility.yul\":4096:4156   */\n      tag_208\n        /* \"#utility.yul\":4149:4155   */\n      dup4\n        /* \"#utility.yul\":4096:4156   */\n      tag_209\n      jump\t// in\n    tag_208:\n        /* \"#utility.yul\":4086:4156   */\n      swap3\n      pop\n        /* \"#utility.yul\":3942:4166   */\n      pop\n        /* \"#utility.yul\":3929:3930   */\n      0x01\n        /* \"#utility.yul\":3926:3927   */\n      dup2\n        /* \"#utility.yul\":3922:3931   */\n      add\n        /* \"#utility.yul\":3917:3931   */\n      swap1\n      pop\n        /* \"#utility.yul\":3882:4166   */\n      jump(tag_204)\n    tag_206:\n        /* \"#utility.yul\":3886:3900   */\n      pop\n        /* \"#utility.yul\":4182:4185   */\n      dup6\n        /* \"#utility.yul\":4175:4185   */\n      swap4\n      pop\n        /* \"#utility.yul\":3583:4191   */\n      pop\n      pop\n      pop\n        /* \"#utility.yul\":3459:4191   */\n      swap3\n      swap2\n      pop\n      pop\n      jump\t// out\n        /* \"#utility.yul\":4221:4929   */\n    tag_210:\n        /* \"#utility.yul\":4334:4337   */\n      0x00\n        /* \"#utility.yul\":4363:4414   */\n      tag_212\n        /* \"#utility.yul\":4408:4413   */\n      dup3\n        /* \"#utility.yul\":4363:4414   */\n      tag_213\n      jump\t// in\n    tag_212:\n        /* \"#utility.yul\":4430:4513   */\n      tag_214\n        /* \"#utility.yul\":4506:4512   */\n      dup2\n        /* \"#utility.yul\":4501:4504   */\n      dup6\n        /* \"#utility.yul\":4430:4513   */\n      tag_215\n      jump\t// in\n    tag_214:\n        /* \"#utility.yul\":4423:4513   */\n      swap4\n      pop\n        /* \"#utility.yul\":4537:4590   */\n      tag_216\n        /* \"#utility.yul\":4584:4589   */\n      dup4\n        /* \"#utility.yul\":4537:4590   */\n      tag_217\n      jump\t// in\n    tag_216:\n        /* \"#utility.yul\":4613:4620   */\n      dup1\n        /* \"#utility.yul\":4644:4645   */\n      0x00\n        /* \"#utility.yul\":4629:4904   */\n    tag_218:\n        /* \"#utility.yul\":4654:4660   */\n      dup4\n        /* \"#utility.yul\":4651:4652   */\n      dup2\n        /* \"#utility.yul\":4648:4661   */\n      lt\n        /* \"#utility.yul\":4629:4904   */\n      iszero\n      tag_220\n      jumpi\n        /* \"#utility.yul\":4730:4736   */\n      dup2\n        /* \"#utility.yul\":4724:4737   */\n      mload\n        /* \"#utility.yul\":4757:4814   */\n      tag_221\n        /* \"#utility.yul\":4810:4813   */\n      dup9\n        /* \"#utility.yul\":4795:4808   */\n      dup3\n        /* \"#utility.yul\":4757:4814   */\n      tag_178\n      jump\t// in\n    tag_221:\n        /* \"#utility.yul\":4750:4814   */\n      swap8\n      pop\n        /* \"#utility.yul\":4837:4894   */\n      tag_222\n        /* \"#utility.yul\":4887:4893   */\n      dup4\n        /* \"#utility.yul\":4837:4894   */\n      tag_223\n      jump\t// in\n    tag_222:\n        /* \"#utility.yul\":4827:4894   */\n      swap3\n      pop\n        /* \"#utility.yul\":4689:4904   */\n      pop\n        /* \"#utility.yul\":4676:4677   */\n      0x01\n        /* \"#utility.yul\":4673:4674   */\n      dup2\n        /* \"#utility.yul\":4669:4678   */\n      add\n        /* \"#utility.yul\":4664:4678   */\n      swap1\n      pop\n        /* \"#utility.yul\":4629:4904   */\n      jump(tag_218)\n    tag_220:\n        /* \"#utility.yul\":4633:4647   */\n      pop\n        /* \"#utility.yul\":4920:4923   */\n      dup6\n        /* \"#utility.yul\":4913:4923   */\n      swap4\n      pop\n        /* \"#utility.yul\":4339:4929   */\n      pop\n      pop\n      pop\n        /* \"#utility.yul\":4221:4929   */\n      swap3\n      swap2\n      pop\n      pop\n      jump\t// out\n        /* \"#utility.yul\":4963:5954   */\n    tag_224:\n        /* \"#utility.yul\":5102:5105   */\n      0x00\n        /* \"#utility.yul\":5131:5195   */\n      tag_226\n        /* \"#utility.yul\":5189:5194   */\n      dup3\n        /* \"#utility.yul\":5131:5195   */\n      tag_227\n      jump\t// in\n    tag_226:\n        /* \"#utility.yul\":5211:5307   */\n      tag_228\n        /* \"#utility.yul\":5300:5306   */\n      dup2\n        /* \"#utility.yul\":5295:5298   */\n      dup6\n        /* \"#utility.yul\":5211:5307   */\n      tag_229\n      jump\t// in\n    tag_228:\n        /* \"#utility.yul\":5204:5307   */\n      swap4\n      pop\n        /* \"#utility.yul\":5333:5336   */\n      dup4\n        /* \"#utility.yul\":5378:5382   */\n      0x20\n        /* \"#utility.yul\":5370:5376   */\n      dup3\n        /* \"#utility.yul\":5366:5383   */\n      mul\n        /* \"#utility.yul\":5361:5364   */\n      dup6\n        /* \"#utility.yul\":5357:5384   */\n      add\n        /* \"#utility.yul\":5408:5474   */\n      tag_230\n        /* \"#utility.yul\":5468:5473   */\n      dup6\n        /* \"#utility.yul\":5408:5474   */\n      tag_231\n      jump\t// in\n    tag_230:\n        /* \"#utility.yul\":5497:5504   */\n      dup1\n        /* \"#utility.yul\":5528:5529   */\n      0x00\n        /* \"#utility.yul\":5513:5909   */\n    tag_232:\n        /* \"#utility.yul\":5538:5544   */\n      dup6\n        /* \"#utility.yul\":5535:5536   */\n      dup2\n        /* \"#utility.yul\":5532:5545   */\n      lt\n        /* \"#utility.yul\":5513:5909   */\n      iszero\n      tag_234\n      jumpi\n        /* \"#utility.yul\":5609:5618   */\n      dup5\n        /* \"#utility.yul\":5603:5607   */\n      dup5\n        /* \"#utility.yul\":5599:5619   */\n      sub\n        /* \"#utility.yul\":5594:5597   */\n      dup10\n        /* \"#utility.yul\":5587:5620   */\n      mstore\n        /* \"#utility.yul\":5660:5666   */\n      dup2\n        /* \"#utility.yul\":5654:5667   */\n      mload\n        /* \"#utility.yul\":5688:5772   */\n      tag_235\n        /* \"#utility.yul\":5767:5771   */\n      dup6\n        /* \"#utility.yul\":5752:5765   */\n      dup3\n        /* \"#utility.yul\":5688:5772   */\n      tag_182\n      jump\t// in\n    tag_235:\n        /* \"#utility.yul\":5680:5772   */\n      swap5\n      pop\n        /* \"#utility.yul\":5795:5865   */\n      tag_236\n        /* \"#utility.yul\":5858:5864   */\n      dup4\n        /* \"#utility.yul\":5795:5865   */\n      tag_237\n      jump\t// in\n    tag_236:\n        /* \"#utility.yul\":5785:5865   */\n      swap3\n      pop\n        /* \"#utility.yul\":5894:5898   */\n      0x20\n        /* \"#utility.yul\":5889:5892   */\n      dup11\n        /* \"#utility.yul\":5885:5899   */\n      add\n        /* \"#utility.yul\":5878:5899   */\n      swap10\n      pop\n        /* \"#utility.yul\":5573:5909   */\n      pop\n        /* \"#utility.yul\":5560:5561   */\n      0x01\n        /* \"#utility.yul\":5557:5558   */\n      dup2\n        /* \"#utility.yul\":5553:5562   */\n      add\n        /* \"#utility.yul\":5548:5562   */\n      swap1\n      pop\n        /* \"#utility.yul\":5513:5909   */\n      jump(tag_232)\n    tag_234:\n        /* \"#utility.yul\":5517:5531   */\n      pop\n        /* \"#utility.yul\":5925:5929   */\n      dup3\n        /* \"#utility.yul\":5918:5929   */\n      swap8\n      pop\n        /* \"#utility.yul\":5945:5948   */\n      dup8\n        /* \"#utility.yul\":5938:5948   */\n      swap6\n      pop\n        /* \"#utility.yul\":5107:5954   */\n      pop\n      pop\n      pop\n      pop\n      pop\n        /* \"#utility.yul\":4963:5954   */\n      swap3\n      swap2\n      pop\n      pop\n      jump\t// out\n        /* \"#utility.yul\":6010:7073   */\n    tag_238:\n        /* \"#utility.yul\":6167:6170   */\n      0x00\n        /* \"#utility.yul\":6196:6269   */\n      tag_240\n        /* \"#utility.yul\":6263:6268   */\n      dup3\n        /* \"#utility.yul\":6196:6269   */\n      tag_241\n      jump\t// in\n    tag_240:\n        /* \"#utility.yul\":6285:6390   */\n      tag_242\n        /* \"#utility.yul\":6383:6389   */\n      dup2\n        /* \"#utility.yul\":6378:6381   */\n      dup6\n        /* \"#utility.yul\":6285:6390   */\n      tag_243\n      jump\t// in\n    tag_242:\n        /* \"#utility.yul\":6278:6390   */\n      swap4\n      pop\n        /* \"#utility.yul\":6416:6419   */\n      dup4\n        /* \"#utility.yul\":6461:6465   */\n      0x20\n        /* \"#utility.yul\":6453:6459   */\n      dup3\n        /* \"#utility.yul\":6449:6466   */\n      mul\n        /* \"#utility.yul\":6444:6447   */\n      dup6\n        /* \"#utility.yul\":6440:6467   */\n      add\n        /* \"#utility.yul\":6491:6566   */\n      tag_244\n        /* \"#utility.yul\":6560:6565   */\n      dup6\n        /* \"#utility.yul\":6491:6566   */\n      tag_245\n      jump\t// in\n    tag_244:\n        /* \"#utility.yul\":6589:6596   */\n      dup1\n        /* \"#utility.yul\":6620:6621   */\n      0x00\n        /* \"#utility.yul\":6605:7028   */\n    tag_246:\n        /* \"#utility.yul\":6630:6636   */\n      dup6\n        /* \"#utility.yul\":6627:6628   */\n      dup2\n        /* \"#utility.yul\":6624:6637   */\n      lt\n        /* \"#utility.yul\":6605:7028   */\n      iszero\n      tag_248\n      jumpi\n        /* \"#utility.yul\":6701:6710   */\n      dup5\n        /* \"#utility.yul\":6695:6699   */\n      dup5\n        /* \"#utility.yul\":6691:6711   */\n      sub\n        /* \"#utility.yul\":6686:6689   */\n      dup10\n        /* \"#utility.yul\":6679:6712   */\n      mstore\n        /* \"#utility.yul\":6752:6758   */\n      dup2\n        /* \"#utility.yul\":6746:6759   */\n      mload\n        /* \"#utility.yul\":6780:6882   */\n      tag_249\n        /* \"#utility.yul\":6877:6881   */\n      dup6\n        /* \"#utility.yul\":6862:6875   */\n      dup3\n        /* \"#utility.yul\":6780:6882   */\n      tag_186\n      jump\t// in\n    tag_249:\n        /* \"#utility.yul\":6772:6882   */\n      swap5\n      pop\n        /* \"#utility.yul\":6905:6984   */\n      tag_250\n        /* \"#utility.yul\":6977:6983   */\n      dup4\n        /* \"#utility.yul\":6905:6984   */\n      tag_251\n      jump\t// in\n    tag_250:\n        /* \"#utility.yul\":6895:6984   */\n      swap3\n      pop\n        /* \"#utility.yul\":7013:7017   */\n      0x20\n        /* \"#utility.yul\":7008:7011   */\n      dup11\n        /* \"#utility.yul\":7004:7018   */\n      add\n        /* \"#utility.yul\":6997:7018   */\n      swap10\n      pop\n        /* \"#utility.yul\":6665:7028   */\n      pop\n        /* \"#utility.yul\":6652:6653   */\n      0x01\n        /* \"#utility.yul\":6649:6650   */\n      dup2\n        /* \"#utility.yul\":6645:6654   */\n      add\n        /* \"#utility.yul\":6640:6654   */\n      swap1\n      pop\n        /* \"#utility.yul\":6605:7028   */\n      jump(tag_246)\n    tag_248:\n        /* \"#utility.yul\":6609:6623   */\n      pop\n        /* \"#utility.yul\":7044:7048   */\n      dup3\n        /* \"#utility.yul\":7037:7048   */\n      swap8\n      pop\n        /* \"#utility.yul\":7064:7067   */\n      dup8\n        /* \"#utility.yul\":7057:7067   */\n      swap6\n      pop\n        /* \"#utility.yul\":6172:7073   */\n      pop\n      pop\n      pop\n      pop\n      pop\n        /* \"#utility.yul\":6010:7073   */\n      swap3\n      swap2\n      pop\n      pop\n      jump\t// out\n        /* \"#utility.yul\":7079:7178   */\n    tag_181:\n        /* \"#utility.yul\":7150:7171   */\n      tag_253\n        /* \"#utility.yul\":7165:7170   */\n      dup2\n        /* \"#utility.yul\":7150:7171   */\n      tag_254\n      jump\t// in\n    tag_253:\n        /* \"#utility.yul\":7145:7148   */\n      dup3\n        /* \"#utility.yul\":7138:7172   */\n      mstore\n        /* \"#utility.yul\":7079:7178   */\n      pop\n      pop\n      jump\t// out\n        /* \"#utility.yul\":7184:7293   */\n    tag_255:\n        /* \"#utility.yul\":7265:7286   */\n      tag_257\n        /* \"#utility.yul\":7280:7285   */\n      dup2\n        /* \"#utility.yul\":7265:7286   */\n      tag_254\n      jump\t// in\n    tag_257:\n        /* \"#utility.yul\":7260:7263   */\n      dup3\n        /* \"#utility.yul\":7253:7287   */\n      mstore\n        /* \"#utility.yul\":7184:7293   */\n      pop\n      pop\n      jump\t// out\n        /* \"#utility.yul\":7299:7643   */\n    tag_185:\n        /* \"#utility.yul\":7377:7380   */\n      0x00\n        /* \"#utility.yul\":7405:7444   */\n      tag_259\n        /* \"#utility.yul\":7438:7443   */\n      dup3\n        /* \"#utility.yul\":7405:7444   */\n      tag_260\n      jump\t// in\n    tag_259:\n        /* \"#utility.yul\":7460:7521   */\n      tag_261\n        /* \"#utility.yul\":7514:7520   */\n      dup2\n        /* \"#utility.yul\":7509:7512   */\n      dup6\n        /* \"#utility.yul\":7460:7521   */\n      tag_262\n      jump\t// in\n    tag_261:\n        /* \"#utility.yul\":7453:7521   */\n      swap4\n      pop\n        /* \"#utility.yul\":7530:7582   */\n      tag_263\n        /* \"#utility.yul\":7575:7581   */\n      dup2\n        /* \"#utility.yul\":7570:7573   */\n      dup6\n        /* \"#utility.yul\":7563:7567   */\n      0x20\n        /* \"#utility.yul\":7556:7561   */\n      dup7\n        /* \"#utility.yul\":7552:7568   */\n      add\n        /* \"#utility.yul\":7530:7582   */\n      tag_264\n      jump\t// in\n    tag_263:\n        /* \"#utility.yul\":7607:7636   */\n      tag_265\n        /* \"#utility.yul\":7629:7635   */\n      dup2\n        /* \"#utility.yul\":7607:7636   */\n      tag_266\n      jump\t// in\n    tag_265:\n        /* \"#utility.yul\":7602:7605   */\n      dup5\n        /* \"#utility.yul\":7598:7637   */\n      add\n        /* \"#utility.yul\":7591:7637   */\n      swap2\n      pop\n        /* \"#utility.yul\":7381:7643   */\n      pop\n        /* \"#utility.yul\":7299:7643   */\n      swap3\n      swap2\n      pop\n      pop\n      jump\t// out\n        /* \"#utility.yul\":7649:8013   */\n    tag_267:\n        /* \"#utility.yul\":7737:7740   */\n      0x00\n        /* \"#utility.yul\":7765:7804   */\n      tag_269\n        /* \"#utility.yul\":7798:7803   */\n      dup3\n        /* \"#utility.yul\":7765:7804   */\n      tag_260\n      jump\t// in\n    tag_269:\n        /* \"#utility.yul\":7820:7891   */\n      tag_270\n        /* \"#utility.yul\":7884:7890   */\n      dup2\n        /* \"#utility.yul\":7879:7882   */\n      dup6\n        /* \"#utility.yul\":7820:7891   */\n      tag_271\n      jump\t// in\n    tag_270:\n        /* \"#utility.yul\":7813:7891   */\n      swap4\n      pop\n        /* \"#utility.yul\":7900:7952   */\n      tag_272\n        /* \"#utility.yul\":7945:7951   */\n      dup2\n        /* \"#utility.yul\":7940:7943   */\n      dup6\n        /* \"#utility.yul\":7933:7937   */\n      0x20\n        /* \"#utility.yul\":7926:7931   */\n      dup7\n        /* \"#utility.yul\":7922:7938   */\n      add\n        /* \"#utility.yul\":7900:7952   */\n      tag_264\n      jump\t// in\n    tag_272:\n        /* \"#utility.yul\":7977:8006   */\n      tag_273\n        /* \"#utility.yul\":7999:8005   */\n      dup2\n        /* \"#utility.yul\":7977:8006   */\n      tag_266\n      jump\t// in\n    tag_273:\n        /* \"#utility.yul\":7972:7975   */\n      dup5\n        /* \"#utility.yul\":7968:8007   */\n      add\n        /* \"#utility.yul\":7961:8007   */\n      swap2\n      pop\n        /* \"#utility.yul\":7741:8013   */\n      pop\n        /* \"#utility.yul\":7649:8013   */\n      swap3\n      swap2\n      pop\n      pop\n      jump\t// out\n        /* \"#utility.yul\":8019:8396   */\n    tag_274:\n        /* \"#utility.yul\":8125:8128   */\n      0x00\n        /* \"#utility.yul\":8153:8192   */\n      tag_276\n        /* \"#utility.yul\":8186:8191   */\n      dup3\n        /* \"#utility.yul\":8153:8192   */\n      tag_260\n      jump\t// in\n    tag_276:\n        /* \"#utility.yul\":8208:8297   */\n      tag_277\n        /* \"#utility.yul\":8290:8296   */\n      dup2\n        /* \"#utility.yul\":8285:8288   */\n      dup6\n        /* \"#utility.yul\":8208:8297   */\n      tag_278\n      jump\t// in\n    tag_277:\n        /* \"#utility.yul\":8201:8297   */\n      swap4\n      pop\n        /* \"#utility.yul\":8306:8358   */\n      tag_279\n        /* \"#utility.yul\":8351:8357   */\n      dup2\n        /* \"#utility.yul\":8346:8349   */\n      dup6\n        /* \"#utility.yul\":8339:8343   */\n      0x20\n        /* \"#utility.yul\":8332:8337   */\n      dup7\n        /* \"#utility.yul\":8328:8344   */\n      add\n        /* \"#utility.yul\":8306:8358   */\n      tag_264\n      jump\t// in\n    tag_279:\n        /* \"#utility.yul\":8383:8389   */\n      dup1\n        /* \"#utility.yul\":8378:8381   */\n      dup5\n        /* \"#utility.yul\":8374:8390   */\n      add\n        /* \"#utility.yul\":8367:8390   */\n      swap2\n      pop\n        /* \"#utility.yul\":8129:8396   */\n      pop\n        /* \"#utility.yul\":8019:8396   */\n      swap3\n      swap2\n      pop\n      pop\n      jump\t// out\n        /* \"#utility.yul\":8448:9213   */\n    tag_189:\n        /* \"#utility.yul\":8545:8548   */\n      0x00\n        /* \"#utility.yul\":8581:8585   */\n      0x60\n        /* \"#utility.yul\":8576:8579   */\n      dup4\n        /* \"#utility.yul\":8572:8586   */\n      add\n        /* \"#utility.yul\":8669:8673   */\n      0x00\n        /* \"#utility.yul\":8662:8667   */\n      dup4\n        /* \"#utility.yul\":8658:8674   */\n      add\n        /* \"#utility.yul\":8652:8675   */\n      mload\n        /* \"#utility.yul\":8722:8725   */\n      dup5\n        /* \"#utility.yul\":8716:8720   */\n      dup3\n        /* \"#utility.yul\":8712:8726   */\n      sub\n        /* \"#utility.yul\":8705:8709   */\n      0x00\n        /* \"#utility.yul\":8700:8703   */\n      dup7\n        /* \"#utility.yul\":8696:8710   */\n      add\n        /* \"#utility.yul\":8689:8727   */\n      mstore\n        /* \"#utility.yul\":8748:8821   */\n      tag_281\n        /* \"#utility.yul\":8816:8820   */\n      dup3\n        /* \"#utility.yul\":8802:8814   */\n      dup3\n        /* \"#utility.yul\":8748:8821   */\n      tag_185\n      jump\t// in\n    tag_281:\n        /* \"#utility.yul\":8740:8821   */\n      swap2\n      pop\n        /* \"#utility.yul\":8596:8832   */\n      pop\n        /* \"#utility.yul\":8922:8926   */\n      0x20\n        /* \"#utility.yul\":8915:8920   */\n      dup4\n        /* \"#utility.yul\":8911:8927   */\n      add\n        /* \"#utility.yul\":8905:8928   */\n      mload\n        /* \"#utility.yul\":8941:9004   */\n      tag_282\n        /* \"#utility.yul\":8998:9002   */\n      0x20\n        /* \"#utility.yul\":8993:8996   */\n      dup7\n        /* \"#utility.yul\":8989:9003   */\n      add\n        /* \"#utility.yul\":8975:8987   */\n      dup3\n        /* \"#utility.yul\":8941:9004   */\n      tag_177\n      jump\t// in\n    tag_282:\n        /* \"#utility.yul\":8842:9014   */\n      pop\n        /* \"#utility.yul\":9100:9104   */\n      0x40\n        /* \"#utility.yul\":9093:9098   */\n      dup4\n        /* \"#utility.yul\":9089:9105   */\n      add\n        /* \"#utility.yul\":9083:9106   */\n      mload\n        /* \"#utility.yul\":9119:9176   */\n      tag_283\n        /* \"#utility.yul\":9170:9174   */\n      0x40\n        /* \"#utility.yul\":9165:9168   */\n      dup7\n        /* \"#utility.yul\":9161:9175   */\n      add\n        /* \"#utility.yul\":9147:9159   */\n      dup3\n        /* \"#utility.yul\":9119:9176   */\n      tag_181\n      jump\t// in\n    tag_283:\n        /* \"#utility.yul\":9024:9186   */\n      pop\n        /* \"#utility.yul\":9203:9207   */\n      dup1\n        /* \"#utility.yul\":9196:9207   */\n      swap2\n      pop\n        /* \"#utility.yul\":8550:9213   */\n      pop\n        /* \"#utility.yul\":8448:9213   */\n      swap3\n      swap2\n      pop\n      pop\n      jump\t// out\n        /* \"#utility.yul\":9265:10040   */\n    tag_284:\n        /* \"#utility.yul\":9372:9375   */\n      0x00\n        /* \"#utility.yul\":9408:9412   */\n      0x60\n        /* \"#utility.yul\":9403:9406   */\n      dup4\n        /* \"#utility.yul\":9399:9413   */\n      add\n        /* \"#utility.yul\":9496:9500   */\n      0x00\n        /* \"#utility.yul\":9489:9494   */\n      dup4\n        /* \"#utility.yul\":9485:9501   */\n      add\n        /* \"#utility.yul\":9479:9502   */\n      mload\n        /* \"#utility.yul\":9549:9552   */\n      dup5\n        /* \"#utility.yul\":9543:9547   */\n      dup3\n        /* \"#utility.yul\":9539:9553   */\n      sub\n        /* \"#utility.yul\":9532:9536   */\n      0x00\n        /* \"#utility.yul\":9527:9530   */\n      dup7\n        /* \"#utility.yul\":9523:9537   */\n      add\n        /* \"#utility.yul\":9516:9554   */\n      mstore\n        /* \"#utility.yul\":9575:9648   */\n      tag_286\n        /* \"#utility.yul\":9643:9647   */\n      dup3\n        /* \"#utility.yul\":9629:9641   */\n      dup3\n        /* \"#utility.yul\":9575:9648   */\n      tag_185\n      jump\t// in\n    tag_286:\n        /* \"#utility.yul\":9567:9648   */\n      swap2\n      pop\n        /* \"#utility.yul\":9423:9659   */\n      pop\n        /* \"#utility.yul\":9749:9753   */\n      0x20\n        /* \"#utility.yul\":9742:9747   */\n      dup4\n        /* \"#utility.yul\":9738:9754   */\n      add\n        /* \"#utility.yul\":9732:9755   */\n      mload\n        /* \"#utility.yul\":9768:9831   */\n      tag_287\n        /* \"#utility.yul\":9825:9829   */\n      0x20\n        /* \"#utility.yul\":9820:9823   */\n      dup7\n        /* \"#utility.yul\":9816:9830   */\n      add\n        /* \"#utility.yul\":9802:9814   */\n      dup3\n        /* \"#utility.yul\":9768:9831   */\n      tag_177\n      jump\t// in\n    tag_287:\n        /* \"#utility.yul\":9669:9841   */\n      pop\n        /* \"#utility.yul\":9927:9931   */\n      0x40\n        /* \"#utility.yul\":9920:9925   */\n      dup4\n        /* \"#utility.yul\":9916:9932   */\n      add\n        /* \"#utility.yul\":9910:9933   */\n      mload\n        /* \"#utility.yul\":9946:10003   */\n      tag_288\n        /* \"#utility.yul\":9997:10001   */\n      0x40\n        /* \"#utility.yul\":9992:9995   */\n      dup7\n        /* \"#utility.yul\":9988:10002   */\n      add\n        /* \"#utility.yul\":9974:9986   */\n      dup3\n        /* \"#utility.yul\":9946:10003   */\n      tag_181\n      jump\t// in\n    tag_288:\n        /* \"#utility.yul\":9851:10013   */\n      pop\n        /* \"#utility.yul\":10030:10034   */\n      dup1\n        /* \"#utility.yul\":10023:10034   */\n      swap2\n      pop\n        /* \"#utility.yul\":9377:10040   */\n      pop\n        /* \"#utility.yul\":9265:10040   */\n      swap3\n      swap2\n      pop\n      pop\n      jump\t// out\n        /* \"#utility.yul\":10046:10164   */\n    tag_289:\n        /* \"#utility.yul\":10133:10157   */\n      tag_291\n        /* \"#utility.yul\":10151:10156   */\n      dup2\n        /* \"#utility.yul\":10133:10157   */\n      tag_292\n      jump\t// in\n    tag_291:\n        /* \"#utility.yul\":10128:10131   */\n      dup3\n        /* \"#utility.yul\":10121:10158   */\n      mstore\n        /* \"#utility.yul\":10046:10164   */\n      pop\n      pop\n      jump\t// out\n        /* \"#utility.yul\":10170:10445   */\n    tag_76:\n        /* \"#utility.yul\":10302:10305   */\n      0x00\n        /* \"#utility.yul\":10324:10419   */\n      tag_294\n        /* \"#utility.yul\":10415:10418   */\n      dup3\n        /* \"#utility.yul\":10406:10412   */\n      dup5\n        /* \"#utility.yul\":10324:10419   */\n      tag_274\n      jump\t// in\n    tag_294:\n        /* \"#utility.yul\":10317:10419   */\n      swap2\n      pop\n        /* \"#utility.yul\":10436:10439   */\n      dup2\n        /* \"#utility.yul\":10429:10439   */\n      swap1\n      pop\n        /* \"#utility.yul\":10170:10445   */\n      swap3\n      swap2\n      pop\n      pop\n      jump\t// out\n        /* \"#utility.yul\":10451:11374   */\n    tag_41:\n        /* \"#utility.yul\":10764:10768   */\n      0x00\n        /* \"#utility.yul\":10802:10804   */\n      0x60\n        /* \"#utility.yul\":10791:10800   */\n      dup3\n        /* \"#utility.yul\":10787:10805   */\n      add\n        /* \"#utility.yul\":10779:10805   */\n      swap1\n      pop\n        /* \"#utility.yul\":10851:10860   */\n      dup2\n        /* \"#utility.yul\":10845:10849   */\n      dup2\n        /* \"#utility.yul\":10841:10861   */\n      sub\n        /* \"#utility.yul\":10837:10838   */\n      0x00\n        /* \"#utility.yul\":10826:10835   */\n      dup4\n        /* \"#utility.yul\":10822:10839   */\n      add\n        /* \"#utility.yul\":10815:10862   */\n      mstore\n        /* \"#utility.yul\":10879:11007   */\n      tag_296\n        /* \"#utility.yul\":11002:11006   */\n      dup2\n        /* \"#utility.yul\":10993:10999   */\n      dup7\n        /* \"#utility.yul\":10879:11007   */\n      tag_224\n      jump\t// in\n    tag_296:\n        /* \"#utility.yul\":10871:11007   */\n      swap1\n      pop\n        /* \"#utility.yul\":11054:11063   */\n      dup2\n        /* \"#utility.yul\":11048:11052   */\n      dup2\n        /* \"#utility.yul\":11044:11064   */\n      sub\n        /* \"#utility.yul\":11039:11041   */\n      0x20\n        /* \"#utility.yul\":11028:11037   */\n      dup4\n        /* \"#utility.yul\":11024:11042   */\n      add\n        /* \"#utility.yul\":11017:11065   */\n      mstore\n        /* \"#utility.yul\":11082:11190   */\n      tag_297\n        /* \"#utility.yul\":11185:11189   */\n      dup2\n        /* \"#utility.yul\":11176:11182   */\n      dup6\n        /* \"#utility.yul\":11082:11190   */\n      tag_196\n      jump\t// in\n    tag_297:\n        /* \"#utility.yul\":11074:11190   */\n      swap1\n      pop\n        /* \"#utility.yul\":11237:11246   */\n      dup2\n        /* \"#utility.yul\":11231:11235   */\n      dup2\n        /* \"#utility.yul\":11227:11247   */\n      sub\n        /* \"#utility.yul\":11222:11224   */\n      0x40\n        /* \"#utility.yul\":11211:11220   */\n      dup4\n        /* \"#utility.yul\":11207:11225   */\n      add\n        /* \"#utility.yul\":11200:11248   */\n      mstore\n        /* \"#utility.yul\":11265:11367   */\n      tag_298\n        /* \"#utility.yul\":11362:11366   */\n      dup2\n        /* \"#utility.yul\":11353:11359   */\n      dup5\n        /* \"#utility.yul\":11265:11367   */\n      tag_210\n      jump\t// in\n    tag_298:\n        /* \"#utility.yul\":11257:11367   */\n      swap1\n      pop\n        /* \"#utility.yul\":10451:11374   */\n      swap5\n      swap4\n      pop\n      pop\n      pop\n      pop\n      jump\t// out\n        /* \"#utility.yul\":11380:11829   */\n    tag_19:\n        /* \"#utility.yul\":11561:11565   */\n      0x00\n        /* \"#utility.yul\":11599:11601   */\n      0x20\n        /* \"#utility.yul\":11588:11597   */\n      dup3\n        /* \"#utility.yul\":11584:11602   */\n      add\n        /* \"#utility.yul\":11576:11602   */\n      swap1\n      pop\n        /* \"#utility.yul\":11648:11657   */\n      dup2\n        /* \"#utility.yul\":11642:11646   */\n      dup2\n        /* \"#utility.yul\":11638:11658   */\n      sub\n        /* \"#utility.yul\":11634:11635   */\n      0x00\n        /* \"#utility.yul\":11623:11632   */\n      dup4\n        /* \"#utility.yul\":11619:11636   */\n      add\n        /* \"#utility.yul\":11612:11659   */\n      mstore\n        /* \"#utility.yul\":11676:11822   */\n      tag_300\n        /* \"#utility.yul\":11817:11821   */\n      dup2\n        /* \"#utility.yul\":11808:11814   */\n      dup5\n        /* \"#utility.yul\":11676:11822   */\n      tag_238\n      jump\t// in\n    tag_300:\n        /* \"#utility.yul\":11668:11822   */\n      swap1\n      pop\n        /* \"#utility.yul\":11380:11829   */\n      swap3\n      swap2\n      pop\n      pop\n      jump\t// out\n        /* \"#utility.yul\":11835:12356   */\n    tag_33:\n        /* \"#utility.yul\":11998:12002   */\n      0x00\n        /* \"#utility.yul\":12036:12038   */\n      0x60\n        /* \"#utility.yul\":12025:12034   */\n      dup3\n        /* \"#utility.yul\":12021:12039   */\n      add\n        /* \"#utility.yul\":12013:12039   */\n      swap1\n      pop\n        /* \"#utility.yul\":12085:12094   */\n      dup2\n        /* \"#utility.yul\":12079:12083   */\n      dup2\n        /* \"#utility.yul\":12075:12095   */\n      sub\n        /* \"#utility.yul\":12071:12072   */\n      0x00\n        /* \"#utility.yul\":12060:12069   */\n      dup4\n        /* \"#utility.yul\":12056:12073   */\n      add\n        /* \"#utility.yul\":12049:12096   */\n      mstore\n        /* \"#utility.yul\":12113:12191   */\n      tag_302\n        /* \"#utility.yul\":12186:12190   */\n      dup2\n        /* \"#utility.yul\":12177:12183   */\n      dup7\n        /* \"#utility.yul\":12113:12191   */\n      tag_267\n      jump\t// in\n    tag_302:\n        /* \"#utility.yul\":12105:12191   */\n      swap1\n      pop\n        /* \"#utility.yul\":12201:12273   */\n      tag_303\n        /* \"#utility.yul\":12269:12271   */\n      0x20\n        /* \"#utility.yul\":12258:12267   */\n      dup4\n        /* \"#utility.yul\":12254:12272   */\n      add\n        /* \"#utility.yul\":12245:12251   */\n      dup6\n        /* \"#utility.yul\":12201:12273   */\n      tag_193\n      jump\t// in\n    tag_303:\n        /* \"#utility.yul\":12283:12349   */\n      tag_304\n        /* \"#utility.yul\":12345:12347   */\n      0x40\n        /* \"#utility.yul\":12334:12343   */\n      dup4\n        /* \"#utility.yul\":12330:12348   */\n      add\n        /* \"#utility.yul\":12321:12327   */\n      dup5\n        /* \"#utility.yul\":12283:12349   */\n      tag_255\n      jump\t// in\n    tag_304:\n        /* \"#utility.yul\":11835:12356   */\n      swap5\n      swap4\n      pop\n      pop\n      pop\n      pop\n      jump\t// out\n        /* \"#utility.yul\":12362:12711   */\n    tag_24:\n        /* \"#utility.yul\":12493:12497   */\n      0x00\n        /* \"#utility.yul\":12531:12533   */\n      0x20\n        /* \"#utility.yul\":12520:12529   */\n      dup3\n        /* \"#utility.yul\":12516:12534   */\n      add\n        /* \"#utility.yul\":12508:12534   */\n      swap1\n      pop\n        /* \"#utility.yul\":12580:12589   */\n      dup2\n        /* \"#utility.yul\":12574:12578   */\n      dup2\n        /* \"#utility.yul\":12570:12590   */\n      sub\n        /* \"#utility.yul\":12566:12567   */\n      0x00\n        /* \"#utility.yul\":12555:12564   */\n      dup4\n        /* \"#utility.yul\":12551:12568   */\n      add\n        /* \"#utility.yul\":12544:12591   */\n      mstore\n        /* \"#utility.yul\":12608:12704   */\n      tag_306\n        /* \"#utility.yul\":12699:12703   */\n      dup2\n        /* \"#utility.yul\":12690:12696   */\n      dup5\n        /* \"#utility.yul\":12608:12704   */\n      tag_284\n      jump\t// in\n    tag_306:\n        /* \"#utility.yul\":12600:12704   */\n      swap1\n      pop\n        /* \"#utility.yul\":12362:12711   */\n      swap3\n      swap2\n      pop\n      pop\n      jump\t// out\n        /* \"#utility.yul\":12717:12939   */\n    tag_28:\n        /* \"#utility.yul\":12810:12814   */\n      0x00\n        /* \"#utility.yul\":12848:12850   */\n      0x20\n        /* \"#utility.yul\":12837:12846   */\n      dup3\n        /* \"#utility.yul\":12833:12851   */\n      add\n        /* \"#utility.yul\":12825:12851   */\n      swap1\n      pop\n        /* \"#utility.yul\":12861:12932   */\n      tag_308\n        /* \"#utility.yul\":12929:12930   */\n      0x00\n        /* \"#utility.yul\":12918:12927   */\n      dup4\n        /* \"#utility.yul\":12914:12931   */\n      add\n        /* \"#utility.yul\":12905:12911   */\n      dup5\n        /* \"#utility.yul\":12861:12932   */\n      tag_289\n      jump\t// in\n    tag_308:\n        /* \"#utility.yul\":12717:12939   */\n      swap3\n      swap2\n      pop\n      pop\n      jump\t// out\n        /* \"#utility.yul\":12945:13074   */\n    tag_137:\n        /* \"#utility.yul\":12979:12985   */\n      0x00\n        /* \"#utility.yul\":13006:13026   */\n      tag_310\n      tag_311\n      jump\t// in\n    tag_310:\n        /* \"#utility.yul\":12996:13026   */\n      swap1\n      pop\n        /* \"#utility.yul\":13035:13068   */\n      tag_312\n        /* \"#utility.yul\":13063:13067   */\n      dup3\n        /* \"#utility.yul\":13055:13061   */\n      dup3\n        /* \"#utility.yul\":13035:13068   */\n      tag_313\n      jump\t// in\n    tag_312:\n        /* \"#utility.yul\":12945:13074   */\n      swap2\n      swap1\n      pop\n      jump\t// out\n        /* \"#utility.yul\":13080:13155   */\n    tag_311:\n        /* \"#utility.yul\":13113:13119   */\n      0x00\n        /* \"#utility.yul\":13146:13148   */\n      0x40\n        /* \"#utility.yul\":13140:13149   */\n      mload\n        /* \"#utility.yul\":13130:13149   */\n      swap1\n      pop\n        /* \"#utility.yul\":13080:13155   */\n      swap1\n      jump\t// out\n        /* \"#utility.yul\":13161:13469   */\n    tag_136:\n        /* \"#utility.yul\":13223:13227   */\n      0x00\n        /* \"#utility.yul\":13313:13331   */\n      0xffffffffffffffff\n        /* \"#utility.yul\":13305:13311   */\n      dup3\n        /* \"#utility.yul\":13302:13332   */\n      gt\n        /* \"#utility.yul\":13299:13355   */\n      iszero\n      tag_316\n      jumpi\n        /* \"#utility.yul\":13335:13353   */\n      tag_317\n      tag_55\n      jump\t// in\n    tag_317:\n        /* \"#utility.yul\":13299:13355   */\n    tag_316:\n        /* \"#utility.yul\":13373:13402   */\n      tag_318\n        /* \"#utility.yul\":13395:13401   */\n      dup3\n        /* \"#utility.yul\":13373:13402   */\n      tag_266\n      jump\t// in\n    tag_318:\n        /* \"#utility.yul\":13365:13402   */\n      swap1\n      pop\n        /* \"#utility.yul\":13457:13461   */\n      0x20\n        /* \"#utility.yul\":13451:13455   */\n      dup2\n        /* \"#utility.yul\":13447:13462   */\n      add\n        /* \"#utility.yul\":13439:13462   */\n      swap1\n      pop\n        /* \"#utility.yul\":13161:13469   */\n      swap2\n      swap1\n      pop\n      jump\t// out\n        /* \"#utility.yul\":13475:13607   */\n    tag_203:\n        /* \"#utility.yul\":13542:13546   */\n      0x00\n        /* \"#utility.yul\":13565:13568   */\n      dup2\n        /* \"#utility.yul\":13557:13568   */\n      swap1\n      pop\n        /* \"#utility.yul\":13595:13599   */\n      0x20\n        /* \"#utility.yul\":13590:13593   */\n      dup3\n        /* \"#utility.yul\":13586:13600   */\n      add\n        /* \"#utility.yul\":13578:13600   */\n      swap1\n      pop\n        /* \"#utility.yul\":13475:13607   */\n      swap2\n      swap1\n      pop\n      jump\t// out\n        /* \"#utility.yul\":13613:13742   */\n    tag_217:\n        /* \"#utility.yul\":13677:13681   */\n      0x00\n        /* \"#utility.yul\":13700:13703   */\n      dup2\n        /* \"#utility.yul\":13692:13703   */\n      swap1\n      pop\n        /* \"#utility.yul\":13730:13734   */\n      0x20\n        /* \"#utility.yul\":13725:13728   */\n      dup3\n        /* \"#utility.yul\":13721:13735   */\n      add\n        /* \"#utility.yul\":13713:13735   */\n      swap1\n      pop\n        /* \"#utility.yul\":13613:13742   */\n      swap2\n      swap1\n      pop\n      jump\t// out\n        /* \"#utility.yul\":13748:13890   */\n    tag_231:\n        /* \"#utility.yul\":13825:13829   */\n      0x00\n        /* \"#utility.yul\":13848:13851   */\n      dup2\n        /* \"#utility.yul\":13840:13851   */\n      swap1\n      pop\n        /* \"#utility.yul\":13878:13882   */\n      0x20\n        /* \"#utility.yul\":13873:13876   */\n      dup3\n        /* \"#utility.yul\":13869:13883   */\n      add\n        /* \"#utility.yul\":13861:13883   */\n      swap1\n      pop\n        /* \"#utility.yul\":13748:13890   */\n      swap2\n      swap1\n      pop\n      jump\t// out\n        /* \"#utility.yul\":13896:14047   */\n    tag_245:\n        /* \"#utility.yul\":13982:13986   */\n      0x00\n        /* \"#utility.yul\":14005:14008   */\n      dup2\n        /* \"#utility.yul\":13997:14008   */\n      swap1\n      pop\n        /* \"#utility.yul\":14035:14039   */\n      0x20\n        /* \"#utility.yul\":14030:14033   */\n      dup3\n        /* \"#utility.yul\":14026:14040   */\n      add\n        /* \"#utility.yul\":14018:14040   */\n      swap1\n      pop\n        /* \"#utility.yul\":13896:14047   */\n      swap2\n      swap1\n      pop\n      jump\t// out\n        /* \"#utility.yul\":14053:14167   */\n    tag_199:\n        /* \"#utility.yul\":14120:14126   */\n      0x00\n        /* \"#utility.yul\":14154:14159   */\n      dup2\n        /* \"#utility.yul\":14148:14160   */\n      mload\n        /* \"#utility.yul\":14138:14160   */\n      swap1\n      pop\n        /* \"#utility.yul\":14053:14167   */\n      swap2\n      swap1\n      pop\n      jump\t// out\n        /* \"#utility.yul\":14173:14284   */\n    tag_213:\n        /* \"#utility.yul\":14237:14243   */\n      0x00\n        /* \"#utility.yul\":14271:14276   */\n      dup2\n        /* \"#utility.yul\":14265:14277   */\n      mload\n        /* \"#utility.yul\":14255:14277   */\n      swap1\n      pop\n        /* \"#utility.yul\":14173:14284   */\n      swap2\n      swap1\n      pop\n      jump\t// out\n        /* \"#utility.yul\":14290:14414   */\n    tag_227:\n        /* \"#utility.yul\":14367:14373   */\n      0x00\n        /* \"#utility.yul\":14401:14406   */\n      dup2\n        /* \"#utility.yul\":14395:14407   */\n      mload\n        /* \"#utility.yul\":14385:14407   */\n      swap1\n      pop\n        /* \"#utility.yul\":14290:14414   */\n      swap2\n      swap1\n      pop\n      jump\t// out\n        /* \"#utility.yul\":14420:14553   */\n    tag_241:\n        /* \"#utility.yul\":14506:14512   */\n      0x00\n        /* \"#utility.yul\":14540:14545   */\n      dup2\n        /* \"#utility.yul\":14534:14546   */\n      mload\n        /* \"#utility.yul\":14524:14546   */\n      swap1\n      pop\n        /* \"#utility.yul\":14420:14553   */\n      swap2\n      swap1\n      pop\n      jump\t// out\n        /* \"#utility.yul\":14559:14658   */\n    tag_260:\n        /* \"#utility.yul\":14611:14617   */\n      0x00\n        /* \"#utility.yul\":14645:14650   */\n      dup2\n        /* \"#utility.yul\":14639:14651   */\n      mload\n        /* \"#utility.yul\":14629:14651   */\n      swap1\n      pop\n        /* \"#utility.yul\":14559:14658   */\n      swap2\n      swap1\n      pop\n      jump\t// out\n        /* \"#utility.yul\":14664:14777   */\n    tag_209:\n        /* \"#utility.yul\":14734:14738   */\n      0x00\n        /* \"#utility.yul\":14766:14770   */\n      0x20\n        /* \"#utility.yul\":14761:14764   */\n      dup3\n        /* \"#utility.yul\":14757:14771   */\n      add\n        /* \"#utility.yul\":14749:14771   */\n      swap1\n      pop\n        /* \"#utility.yul\":14664:14777   */\n      swap2\n      swap1\n      pop\n      jump\t// out\n        /* \"#utility.yul\":14783:14893   */\n    tag_223:\n        /* \"#utility.yul\":14850:14854   */\n      0x00\n        /* \"#utility.yul\":14882:14886   */\n      0x20\n        /* \"#utility.yul\":14877:14880   */\n      dup3\n        /* \"#utility.yul\":14873:14887   */\n      add\n        /* \"#utility.yul\":14865:14887   */\n      swap1\n      pop\n        /* \"#utility.yul\":14783:14893   */\n      swap2\n      swap1\n      pop\n      jump\t// out\n        /* \"#utility.yul\":14899:15022   */\n    tag_237:\n        /* \"#utility.yul\":14979:14983   */\n      0x00\n        /* \"#utility.yul\":15011:15015   */\n      0x20\n        /* \"#utility.yul\":15006:15009   */\n      dup3\n        /* \"#utility.yul\":15002:15016   */\n      add\n        /* \"#utility.yul\":14994:15016   */\n      swap1\n      pop\n        /* \"#utility.yul\":14899:15022   */\n      swap2\n      swap1\n      pop\n      jump\t// out\n        /* \"#utility.yul\":15028:15160   */\n    tag_251:\n        /* \"#utility.yul\":15117:15121   */\n      0x00\n        /* \"#utility.yul\":15149:15153   */\n      0x20\n        /* \"#utility.yul\":15144:15147   */\n      dup3\n        /* \"#utility.yul\":15140:15154   */\n      add\n        /* \"#utility.yul\":15132:15154   */\n      swap1\n      pop\n        /* \"#utility.yul\":15028:15160   */\n      swap2\n      swap1\n      pop\n      jump\t// out\n        /* \"#utility.yul\":15166:15350   */\n    tag_201:\n        /* \"#utility.yul\":15265:15276   */\n      0x00\n        /* \"#utility.yul\":15299:15305   */\n      dup3\n        /* \"#utility.yul\":15294:15297   */\n      dup3\n        /* \"#utility.yul\":15287:15306   */\n      mstore\n        /* \"#utility.yul\":15339:15343   */\n      0x20\n        /* \"#utility.yul\":15334:15337   */\n      dup3\n        /* \"#utility.yul\":15330:15344   */\n      add\n        /* \"#utility.yul\":15315:15344   */\n      swap1\n      pop\n        /* \"#utility.yul\":15166:15350   */\n      swap3\n      swap2\n      pop\n      pop\n      jump\t// out\n        /* \"#utility.yul\":15356:15537   */\n    tag_215:\n        /* \"#utility.yul\":15452:15463   */\n      0x00\n        /* \"#utility.yul\":15486:15492   */\n      dup3\n        /* \"#utility.yul\":15481:15484   */\n      dup3\n        /* \"#utility.yul\":15474:15493   */\n      mstore\n        /* \"#utility.yul\":15526:15530   */\n      0x20\n        /* \"#utility.yul\":15521:15524   */\n      dup3\n        /* \"#utility.yul\":15517:15531   */\n      add\n        /* \"#utility.yul\":15502:15531   */\n      swap1\n      pop\n        /* \"#utility.yul\":15356:15537   */\n      swap3\n      swap2\n      pop\n      pop\n      jump\t// out\n        /* \"#utility.yul\":15543:15737   */\n    tag_229:\n        /* \"#utility.yul\":15652:15663   */\n      0x00\n        /* \"#utility.yul\":15686:15692   */\n      dup3\n        /* \"#utility.yul\":15681:15684   */\n      dup3\n        /* \"#utility.yul\":15674:15693   */\n      mstore\n        /* \"#utility.yul\":15726:15730   */\n      0x20\n        /* \"#utility.yul\":15721:15724   */\n      dup3\n        /* \"#utility.yul\":15717:15731   */\n      add\n        /* \"#utility.yul\":15702:15731   */\n      swap1\n      pop\n        /* \"#utility.yul\":15543:15737   */\n      swap3\n      swap2\n      pop\n      pop\n      jump\t// out\n        /* \"#utility.yul\":15743:15946   */\n    tag_243:\n        /* \"#utility.yul\":15861:15872   */\n      0x00\n        /* \"#utility.yul\":15895:15901   */\n      dup3\n        /* \"#utility.yul\":15890:15893   */\n      dup3\n        /* \"#utility.yul\":15883:15902   */\n      mstore\n        /* \"#utility.yul\":15935:15939   */\n      0x20\n        /* \"#utility.yul\":15930:15933   */\n      dup3\n        /* \"#utility.yul\":15926:15940   */\n      add\n        /* \"#utility.yul\":15911:15940   */\n      swap1\n      pop\n        /* \"#utility.yul\":15743:15946   */\n      swap3\n      swap2\n      pop\n      pop\n      jump\t// out\n        /* \"#utility.yul\":15952:16111   */\n    tag_262:\n        /* \"#utility.yul\":16026:16037   */\n      0x00\n        /* \"#utility.yul\":16060:16066   */\n      dup3\n        /* \"#utility.yul\":16055:16058   */\n      dup3\n        /* \"#utility.yul\":16048:16067   */\n      mstore\n        /* \"#utility.yul\":16100:16104   */\n      0x20\n        /* \"#utility.yul\":16095:16098   */\n      dup3\n        /* \"#utility.yul\":16091:16105   */\n      add\n        /* \"#utility.yul\":16076:16105   */\n      swap1\n      pop\n        /* \"#utility.yul\":15952:16111   */\n      swap3\n      swap2\n      pop\n      pop\n      jump\t// out\n        /* \"#utility.yul\":16117:16286   */\n    tag_271:\n        /* \"#utility.yul\":16201:16212   */\n      0x00\n        /* \"#utility.yul\":16235:16241   */\n      dup3\n        /* \"#utility.yul\":16230:16233   */\n      dup3\n        /* \"#utility.yul\":16223:16242   */\n      mstore\n        /* \"#utility.yul\":16275:16279   */\n      0x20\n        /* \"#utility.yul\":16270:16273   */\n      dup3\n        /* \"#utility.yul\":16266:16280   */\n      add\n        /* \"#utility.yul\":16251:16280   */\n      swap1\n      pop\n        /* \"#utility.yul\":16117:16286   */\n      swap3\n      swap2\n      pop\n      pop\n      jump\t// out\n        /* \"#utility.yul\":16292:16440   */\n    tag_278:\n        /* \"#utility.yul\":16394:16405   */\n      0x00\n        /* \"#utility.yul\":16431:16434   */\n      dup2\n        /* \"#utility.yul\":16416:16434   */\n      swap1\n      pop\n        /* \"#utility.yul\":16292:16440   */\n      swap3\n      swap2\n      pop\n      pop\n      jump\t// out\n        /* \"#utility.yul\":16446:16542   */\n    tag_192:\n        /* \"#utility.yul\":16483:16490   */\n      0x00\n        /* \"#utility.yul\":16512:16536   */\n      tag_340\n        /* \"#utility.yul\":16530:16535   */\n      dup3\n        /* \"#utility.yul\":16512:16536   */\n      tag_341\n      jump\t// in\n    tag_340:\n        /* \"#utility.yul\":16501:16536   */\n      swap1\n      pop\n        /* \"#utility.yul\":16446:16542   */\n      swap2\n      swap1\n      pop\n      jump\t// out\n        /* \"#utility.yul\":16548:16638   */\n    tag_254:\n        /* \"#utility.yul\":16582:16589   */\n      0x00\n        /* \"#utility.yul\":16625:16630   */\n      dup2\n        /* \"#utility.yul\":16618:16631   */\n      iszero\n        /* \"#utility.yul\":16611:16632   */\n      iszero\n        /* \"#utility.yul\":16600:16632   */\n      swap1\n      pop\n        /* \"#utility.yul\":16548:16638   */\n      swap2\n      swap1\n      pop\n      jump\t// out\n        /* \"#utility.yul\":16644:16770   */\n    tag_341:\n        /* \"#utility.yul\":16681:16688   */\n      0x00\n        /* \"#utility.yul\":16721:16763   */\n      0xffffffffffffffffffffffffffffffffffffffff\n        /* \"#utility.yul\":16714:16719   */\n      dup3\n        /* \"#utility.yul\":16710:16764   */\n      and\n        /* \"#utility.yul\":16699:16764   */\n      swap1\n      pop\n        /* \"#utility.yul\":16644:16770   */\n      swap2\n      swap1\n      pop\n      jump\t// out\n        /* \"#utility.yul\":16776:16853   */\n    tag_292:\n        /* \"#utility.yul\":16813:16820   */\n      0x00\n        /* \"#utility.yul\":16842:16847   */\n      dup2\n        /* \"#utility.yul\":16831:16847   */\n      swap1\n      pop\n        /* \"#utility.yul\":16776:16853   */\n      swap2\n      swap1\n      pop\n      jump\t// out\n        /* \"#utility.yul\":16859:17013   */\n    tag_142:\n        /* \"#utility.yul\":16943:16949   */\n      dup3\n        /* \"#utility.yul\":16938:16941   */\n      dup2\n        /* \"#utility.yul\":16933:16936   */\n      dup4\n        /* \"#utility.yul\":16920:16950   */\n      calldatacopy\n        /* \"#utility.yul\":17005:17006   */\n      0x00\n        /* \"#utility.yul\":16996:17002   */\n      dup4\n        /* \"#utility.yul\":16991:16994   */\n      dup4\n        /* \"#utility.yul\":16987:17003   */\n      add\n        /* \"#utility.yul\":16980:17007   */\n      mstore\n        /* \"#utility.yul\":16859:17013   */\n      pop\n      pop\n      pop\n      jump\t// out\n        /* \"#utility.yul\":17019:17326   */\n    tag_264:\n        /* \"#utility.yul\":17087:17088   */\n      0x00\n        /* \"#utility.yul\":17097:17210   */\n    tag_347:\n        /* \"#utility.yul\":17111:17117   */\n      dup4\n        /* \"#utility.yul\":17108:17109   */\n      dup2\n        /* \"#utility.yul\":17105:17118   */\n      lt\n        /* \"#utility.yul\":17097:17210   */\n      iszero\n      tag_349\n      jumpi\n        /* \"#utility.yul\":17196:17197   */\n      dup1\n        /* \"#utility.yul\":17191:17194   */\n      dup3\n        /* \"#utility.yul\":17187:17198   */\n      add\n        /* \"#utility.yul\":17181:17199   */\n      mload\n        /* \"#utility.yul\":17177:17178   */\n      dup2\n        /* \"#utility.yul\":17172:17175   */\n      dup5\n        /* \"#utility.yul\":17168:17179   */\n      add\n        /* \"#utility.yul\":17161:17200   */\n      mstore\n        /* \"#utility.yul\":17133:17135   */\n      0x20\n        /* \"#utility.yul\":17130:17131   */\n      dup2\n        /* \"#utility.yul\":17126:17136   */\n      add\n        /* \"#utility.yul\":17121:17136   */\n      swap1\n      pop\n        /* \"#utility.yul\":17097:17210   */\n      jump(tag_347)\n    tag_349:\n        /* \"#utility.yul\":17228:17234   */\n      dup4\n        /* \"#utility.yul\":17225:17226   */\n      dup2\n        /* \"#utility.yul\":17222:17235   */\n      gt\n        /* \"#utility.yul\":17219:17320   */\n      iszero\n      tag_350\n      jumpi\n        /* \"#utility.yul\":17308:17309   */\n      0x00\n        /* \"#utility.yul\":17299:17305   */\n      dup5\n        /* \"#utility.yul\":17294:17297   */\n      dup5\n        /* \"#utility.yul\":17290:17306   */\n      add\n        /* \"#utility.yul\":17283:17310   */\n      mstore\n        /* \"#utility.yul\":17219:17320   */\n    tag_350:\n        /* \"#utility.yul\":17068:17326   */\n      pop\n        /* \"#utility.yul\":17019:17326   */\n      pop\n      pop\n      pop\n      jump\t// out\n        /* \"#utility.yul\":17332:17652   */\n    tag_64:\n        /* \"#utility.yul\":17376:17382   */\n      0x00\n        /* \"#utility.yul\":17413:17414   */\n      0x02\n        /* \"#utility.yul\":17407:17411   */\n      dup3\n        /* \"#utility.yul\":17403:17415   */\n      div\n        /* \"#utility.yul\":17393:17415   */\n      swap1\n      pop\n        /* \"#utility.yul\":17460:17461   */\n      0x01\n        /* \"#utility.yul\":17454:17458   */\n      dup3\n        /* \"#utility.yul\":17450:17462   */\n      and\n        /* \"#utility.yul\":17481:17499   */\n      dup1\n        /* \"#utility.yul\":17471:17552   */\n      tag_352\n      jumpi\n        /* \"#utility.yul\":17537:17541   */\n      0x7f\n        /* \"#utility.yul\":17529:17535   */\n      dup3\n        /* \"#utility.yul\":17525:17542   */\n      and\n        /* \"#utility.yul\":17515:17542   */\n      swap2\n      pop\n        /* \"#utility.yul\":17471:17552   */\n    tag_352:\n        /* \"#utility.yul\":17599:17601   */\n      0x20\n        /* \"#utility.yul\":17591:17597   */\n      dup3\n        /* \"#utility.yul\":17588:17602   */\n      lt\n        /* \"#utility.yul\":17568:17586   */\n      dup2\n        /* \"#utility.yul\":17565:17603   */\n      eq\n        /* \"#utility.yul\":17562:17646   */\n      iszero\n      tag_353\n      jumpi\n        /* \"#utility.yul\":17618:17636   */\n      tag_354\n      tag_355\n      jump\t// in\n    tag_354:\n        /* \"#utility.yul\":17562:17646   */\n    tag_353:\n        /* \"#utility.yul\":17383:17652   */\n      pop\n        /* \"#utility.yul\":17332:17652   */\n      swap2\n      swap1\n      pop\n      jump\t// out\n        /* \"#utility.yul\":17658:17939   */\n    tag_313:\n        /* \"#utility.yul\":17741:17768   */\n      tag_357\n        /* \"#utility.yul\":17763:17767   */\n      dup3\n        /* \"#utility.yul\":17741:17768   */\n      tag_266\n      jump\t// in\n    tag_357:\n        /* \"#utility.yul\":17733:17739   */\n      dup2\n        /* \"#utility.yul\":17729:17769   */\n      add\n        /* \"#utility.yul\":17871:17877   */\n      dup2\n        /* \"#utility.yul\":17859:17869   */\n      dup2\n        /* \"#utility.yul\":17856:17878   */\n      lt\n        /* \"#utility.yul\":17835:17853   */\n      0xffffffffffffffff\n        /* \"#utility.yul\":17823:17833   */\n      dup3\n        /* \"#utility.yul\":17820:17854   */\n      gt\n        /* \"#utility.yul\":17817:17879   */\n      or\n        /* \"#utility.yul\":17814:17902   */\n      iszero\n      tag_358\n      jumpi\n        /* \"#utility.yul\":17882:17900   */\n      tag_359\n      tag_55\n      jump\t// in\n    tag_359:\n        /* \"#utility.yul\":17814:17902   */\n    tag_358:\n        /* \"#utility.yul\":17922:17932   */\n      dup1\n        /* \"#utility.yul\":17918:17920   */\n      0x40\n        /* \"#utility.yul\":17911:17933   */\n      mstore\n        /* \"#utility.yul\":17701:17939   */\n      pop\n        /* \"#utility.yul\":17658:17939   */\n      pop\n      pop\n      jump\t// out\n        /* \"#utility.yul\":17945:18178   */\n    tag_51:\n        /* \"#utility.yul\":17984:17987   */\n      0x00\n        /* \"#utility.yul\":18007:18031   */\n      tag_361\n        /* \"#utility.yul\":18025:18030   */\n      dup3\n        /* \"#utility.yul\":18007:18031   */\n      tag_292\n      jump\t// in\n    tag_361:\n        /* \"#utility.yul\":17998:18031   */\n      swap2\n      pop\n        /* \"#utility.yul\":18053:18119   */\n      0xffffffffffffffffffffffffffffffffffffffffffffffffffffffffffffffff\n        /* \"#utility.yul\":18046:18051   */\n      dup3\n        /* \"#utility.yul\":18043:18120   */\n      eq\n        /* \"#utility.yul\":18040:18143   */\n      iszero\n      tag_362\n      jumpi\n        /* \"#utility.yul\":18123:18141   */\n      tag_363\n      tag_364\n      jump\t// in\n    tag_363:\n        /* \"#utility.yul\":18040:18143   */\n    tag_362:\n        /* \"#utility.yul\":18170:18171   */\n      0x01\n        /* \"#utility.yul\":18163:18168   */\n      dup3\n        /* \"#utility.yul\":18159:18172   */\n      add\n        /* \"#utility.yul\":18152:18172   */\n      swap1\n      pop\n        /* \"#utility.yul\":17945:18178   */\n      swap2\n      swap1\n      pop\n      jump\t// out\n        /* \"#utility.yul\":18184:18364   */\n    tag_364:\n        /* \"#utility.yul\":18232:18309   */\n      0x4e487b7100000000000000000000000000000000000000000000000000000000\n        /* \"#utility.yul\":18229:18230   */\n      0x00\n        /* \"#utility.yul\":18222:18310   */\n      mstore\n        /* \"#utility.yul\":18329:18333   */\n      0x11\n        /* \"#utility.yul\":18326:18327   */\n      0x04\n        /* \"#utility.yul\":18319:18334   */\n      mstore\n        /* \"#utility.yul\":18353:18357   */\n      0x24\n        /* \"#utility.yul\":18350:18351   */\n      0x00\n        /* \"#utility.yul\":18343:18358   */\n      revert\n        /* \"#utility.yul\":18370:18550   */\n    tag_355:\n        /* \"#utility.yul\":18418:18495   */\n      0x4e487b7100000000000000000000000000000000000000000000000000000000\n        /* \"#utility.yul\":18415:18416   */\n      0x00\n        /* \"#utility.yul\":18408:18496   */\n      mstore\n        /* \"#utility.yul\":18515:18519   */\n      0x22\n        /* \"#utility.yul\":18512:18513   */\n      0x04\n        /* \"#utility.yul\":18505:18520   */\n      mstore\n        /* \"#utility.yul\":18539:18543   */\n      0x24\n        /* \"#utility.yul\":18536:18537   */\n      0x00\n        /* \"#utility.yul\":18529:18544   */\n      revert\n        /* \"#utility.yul\":18556:18736   */\n    tag_71:\n        /* \"#utility.yul\":18604:18681   */\n      0x4e487b7100000000000000000000000000000000000000000000000000000000\n        /* \"#utility.yul\":18601:18602   */\n      0x00\n        /* \"#utility.yul\":18594:18682   */\n      mstore\n        /* \"#utility.yul\":18701:18705   */\n      0x32\n        /* \"#utility.yul\":18698:18699   */\n      0x04\n        /* \"#utility.yul\":18691:18706   */\n      mstore\n        /* \"#utility.yul\":18725:18729   */\n      0x24\n        /* \"#utility.yul\":18722:18723   */\n      0x00\n        /* \"#utility.yul\":18715:18730   */\n      revert\n        /* \"#utility.yul\":18742:18922   */\n    tag_55:\n        /* \"#utility.yul\":18790:18867   */\n      0x4e487b7100000000000000000000000000000000000000000000000000000000\n        /* \"#utility.yul\":18787:18788   */\n      0x00\n        /* \"#utility.yul\":18780:18868   */\n      mstore\n        /* \"#utility.yul\":18887:18891   */\n      0x41\n        /* \"#utility.yul\":18884:18885   */\n      0x04\n        /* \"#utility.yul\":18877:18892   */\n      mstore\n        /* \"#utility.yul\":18911:18915   */\n      0x24\n        /* \"#utility.yul\":18908:18909   */\n      0x00\n        /* \"#utility.yul\":18901:18916   */\n      revert\n        /* \"#utility.yul\":18928:19045   */\n    tag_151:\n        /* \"#utility.yul\":19037:19038   */\n      0x00\n        /* \"#utility.yul\":19034:19035   */\n      dup1\n        /* \"#utility.yul\":19027:19039   */\n      revert\n        /* \"#utility.yul\":19051:19168   */\n    tag_140:\n        /* \"#utility.yul\":19160:19161   */\n      0x00\n        /* \"#utility.yul\":19157:19158   */\n      dup1\n        /* \"#utility.yul\":19150:19162   */\n      revert\n        /* \"#utility.yul\":19174:19291   */\n    tag_163:\n        /* \"#utility.yul\":19283:19284   */\n      0x00\n        /* \"#utility.yul\":19280:19281   */\n      dup1\n        /* \"#utility.yul\":19273:19285   */\n      revert\n        /* \"#utility.yul\":19297:19414   */\n    tag_160:\n        /* \"#utility.yul\":19406:19407   */\n      0x00\n        /* \"#utility.yul\":19403:19404   */\n      dup1\n        /* \"#utility.yul\":19396:19408   */\n      revert\n        /* \"#utility.yul\":19420:19522   */\n    tag_266:\n        /* \"#utility.yul\":19461:19467   */\n      0x00\n        /* \"#utility.yul\":19512:19514   */\n      0x1f\n        /* \"#utility.yul\":19508:19515   */\n      not\n        /* \"#utility.yul\":19503:19505   */\n      0x1f\n        /* \"#utility.yul\":19496:19501   */\n      dup4\n        /* \"#utility.yul\":19492:19506   */\n      add\n        /* \"#utility.yul\":19488:19516   */\n      and\n        /* \"#utility.yul\":19478:19516   */\n      swap1\n      pop\n        /* \"#utility.yul\":19420:19522   */\n      swap2\n      swap1\n      pop\n      jump\t// out\n        /* \"#utility.yul\":19528:19644   */\n    tag_146:\n        /* \"#utility.yul\":19598:19619   */\n      tag_375\n        /* \"#utility.yul\":19613:19618   */\n      dup2\n        /* \"#utility.yul\":19598:19619   */\n      tag_254\n      jump\t// in\n    tag_375:\n        /* \"#utility.yul\":19591:19596   */\n      dup2\n        /* \"#utility.yul\":19588:19620   */\n      eq\n        /* \"#utility.yul\":19578:19638   */\n      tag_376\n      jumpi\n        /* \"#utility.yul\":19634:19635   */\n      0x00\n        /* \"#utility.yul\":19631:19632   */\n      dup1\n        /* \"#utility.yul\":19624:19636   */\n      revert\n        /* \"#utility.yul\":19578:19638   */\n    tag_376:\n        /* \"#utility.yul\":19528:19644   */\n      pop\n      jump\t// out\n        /* \"#utility.yul\":19650:19772   */\n    tag_156:\n        /* \"#utility.yul\":19723:19747   */\n      tag_378\n        /* \"#utility.yul\":19741:19746   */\n      dup2\n        /* \"#utility.yul\":19723:19747   */\n      tag_292\n      jump\t// in\n    tag_378:\n        /* \"#utility.yul\":19716:19721   */\n      dup2\n        /* \"#utility.yul\":19713:19748   */\n      eq\n        /* \"#utility.yul\":19703:19766   */\n      tag_379\n      jumpi\n        /* \"#utility.yul\":19762:19763   */\n      0x00\n        /* \"#utility.yul\":19759:19760   */\n      dup1\n        /* \"#utility.yul\":19752:19764   */\n      revert\n        /* \"#utility.yul\":19703:19766   */\n    tag_379:\n        /* \"#utility.yul\":19650:19772   */\n      pop\n      jump\t// out\n\n    auxdata: 0xa26469706673582212203e8a1fef64e7aded0d7d4be936b8b84739331b6e4c7a46f5b662b53debf3343164736f6c63430008070033\n}\n",
				"bytecode": {
					"linkReferences": {},
					"object": "608060405234801561001057600080fd5b506000600381905550336000806101000a81548173ffffffffffffffffffffffffffffffffffffffff021916908373ffffffffffffffffffffffffffffffffffffffff160217905550611542806100686000396000f3fe608060405234801561001057600080fd5b50600436106100885760003560e01c8063b0d548df1161005b578063b0d548df14610115578063e259effa14610147578063f2a5028114610163578063fca5e61e1461018357610088565b8063223883de1461008d5780635fb07a62146100a9578063693ec85e146100c757806392812e6f146100f7575b600080fd5b6100a760048036038101906100a29190610c13565b6101b5565b005b6100b16102a0565b6040516100be91906110b8565b60405180910390f35b6100e160048036038101906100dc9190610c13565b610469565b6040516100ee9190611118565b60405180910390f35b6100ff6105a4565b60405161010c919061113a565b60405180910390f35b61012f600480360381019061012a9190610c13565b6105aa565b60405161013e939291906110da565b60405180910390f35b610161600480360381019061015c9190610c89565b61069f565b005b61016b610729565b60405161017a9392919061106c565b60405180910390f35b61019d60048036038101906101989190610c5c565b6109be565b6040516101ac939291906110da565b60405180910390f35b60405180606001604052808281526020013373ffffffffffffffffffffffffffffffffffffffff16815260200160011515815250600160006003548152602001908152602001600020600082015181600001908051906020019061021a929190610a9d565b5060208201518160010160006101000a81548173ffffffffffffffffffffffffffffffffffffffff021916908373ffffffffffffffffffffffffffffffffffffffff16021790555060408201518160010160146101000a81548160ff02191690831515021790555090505060036000815480929190610298906113b4565b919050555050565b6060600060035467ffffffffffffffff8111156102c0576102bf61148a565b5b6040519080825280602002602001820160405280156102f957816020015b6102e6610b23565b8152602001906001900390816102de5790505b50905060005b6003548110156104615760006001600083815260200190815260200160002090508060405180606001604052908160008201805461033c90611351565b80601f016020809104026020016040519081016040528092919081815260200182805461036890611351565b80156103b55780601f1061038a576101008083540402835291602001916103b5565b820191906000526020600020905b81548152906001019060200180831161039857829003601f168201915b505050505081526020016001820160009054906101000a900473ffffffffffffffffffffffffffffffffffffffff1673ffffffffffffffffffffffffffffffffffffffff1673ffffffffffffffffffffffffffffffffffffffff1681526020016001820160149054906101000a900460ff1615151515815250508383815181106104425761044161145b565b5b6020026020010181905250508080610459906113b4565b9150506102ff565b508091505090565b610471610b23565b6002826040516104819190611055565b90815260200160405180910390206040518060600160405290816000820180546104aa90611351565b80601f01602080910402602001604051908101604052809291908181526020018280546104d690611351565b80156105235780601f106104f857610100808354040283529160200191610523565b820191906000526020600020905b81548152906001019060200180831161050657829003601f168201915b505050505081526020016001820160009054906101000a900473ffffffffffffffffffffffffffffffffffffffff1673ffffffffffffffffffffffffffffffffffffffff1673ffffffffffffffffffffffffffffffffffffffff1681526020016001820160149054906101000a900460ff1615151515815250509050919050565b60035481565b6002818051602081018201805184825260208301602085012081835280955050505050506000915090508060000180546105e390611351565b80601f016020809104026020016040519081016040528092919081815260200182805461060f90611351565b801561065c5780601f106106315761010080835404028352916020019161065c565b820191906000526020600020905b81548152906001019060200180831161063f57829003601f168201915b5050505050908060010160009054906101000a900473ffffffffffffffffffffffffffffffffffffffff16908060010160149054906101000a900460ff16905083565b3373ffffffffffffffffffffffffffffffffffffffff1660008054906101000a900473ffffffffffffffffffffffffffffffffffffffff1673ffffffffffffffffffffffffffffffffffffffff16146106f757600080fd5b806001600084815260200190815260200160002060010160146101000a81548160ff0219169083151502179055505050565b6060806060600060035467ffffffffffffffff81111561074c5761074b61148a565b5b60405190808252806020026020018201604052801561077f57816020015b606081526020019060019003908161076a5790505b509050600060035467ffffffffffffffff8111156107a05761079f61148a565b5b6040519080825280602002602001820160405280156107ce5781602001602082028036833780820191505090505b509050600060035467ffffffffffffffff8111156107ef576107ee61148a565b5b60405190808252806020026020018201604052801561081d5781602001602082028036833780820191505090505b50905060005b6003548110156109ac57600060016000838152602001908152602001600020905080600001805461085390611351565b80601f016020809104026020016040519081016040528092919081815260200182805461087f90611351565b80156108cc5780601f106108a1576101008083540402835291602001916108cc565b820191906000526020600020905b8154815290600101906020018083116108af57829003601f168201915b50505050508583815181106108e4576108e361145b565b5b60200260200101819052508060010160009054906101000a900473ffffffffffffffffffffffffffffffffffffffff168483815181106109275761092661145b565b5b602002602001019073ffffffffffffffffffffffffffffffffffffffff16908173ffffffffffffffffffffffffffffffffffffffff16815250508060010160149054906101000a900460ff168383815181106109865761098561145b565b5b6020026020010190151590811515815250505080806109a4906113b4565b915050610823565b50828282955095509550505050909192565b60016020528060005260406000206000915090508060000180546109e190611351565b80601f0160208091040260200160405190810160405280929190818152602001828054610a0d90611351565b8015610a5a5780601f10610a2f57610100808354040283529160200191610a5a565b820191906000526020600020905b815481529060010190602001808311610a3d57829003601f168201915b5050505050908060010160009054906101000a900473ffffffffffffffffffffffffffffffffffffffff16908060010160149054906101000a900460ff16905083565b828054610aa990611351565b90600052602060002090601f016020900481019282610acb5760008555610b12565b82601f10610ae457805160ff1916838001178555610b12565b82800160010185558215610b12579182015b82811115610b11578251825591602001919060010190610af6565b5b509050610b1f9190610b5c565b5090565b604051806060016040528060608152602001600073ffffffffffffffffffffffffffffffffffffffff1681526020016000151581525090565b5b80821115610b75576000816000905550600101610b5d565b5090565b6000610b8c610b878461117a565b611155565b905082815260208101848484011115610ba857610ba76114be565b5b610bb384828561130f565b509392505050565b600081359050610bca816114de565b92915050565b600082601f830112610be557610be46114b9565b5b8135610bf5848260208601610b79565b91505092915050565b600081359050610c0d816114f5565b92915050565b600060208284031215610c2957610c286114c8565b5b600082013567ffffffffffffffff811115610c4757610c466114c3565b5b610c5384828501610bd0565b91505092915050565b600060208284031215610c7257610c716114c8565b5b6000610c8084828501610bfe565b91505092915050565b60008060408385031215610ca057610c9f6114c8565b5b6000610cae85828601610bfe565b9250506020610cbf85828601610bbb565b9150509250929050565b6000610cd58383610d21565b60208301905092915050565b6000610ced8383610ee5565b60208301905092915050565b6000610d058383610f03565b905092915050565b6000610d198383610fa6565b905092915050565b610d2a816112c7565b82525050565b610d39816112c7565b82525050565b6000610d4a826111eb565b610d548185611256565b9350610d5f836111ab565b8060005b83811015610d90578151610d778882610cc9565b9750610d8283611222565b925050600181019050610d63565b5085935050505092915050565b6000610da8826111f6565b610db28185611267565b9350610dbd836111bb565b8060005b83811015610dee578151610dd58882610ce1565b9750610de08361122f565b925050600181019050610dc1565b5085935050505092915050565b6000610e0682611201565b610e108185611278565b935083602082028501610e22856111cb565b8060005b85811015610e5e5784840389528151610e3f8582610cf9565b9450610e4a8361123c565b925060208a01995050600181019050610e26565b50829750879550505050505092915050565b6000610e7b8261120c565b610e858185611289565b935083602082028501610e97856111db565b8060005b85811015610ed35784840389528151610eb48582610d0d565b9450610ebf83611249565b925060208a01995050600181019050610e9b565b50829750879550505050505092915050565b610eee816112d9565b82525050565b610efd816112d9565b82525050565b6000610f0e82611217565b610f18818561129a565b9350610f2881856020860161131e565b610f31816114cd565b840191505092915050565b6000610f4782611217565b610f5181856112ab565b9350610f6181856020860161131e565b610f6a816114cd565b840191505092915050565b6000610f8082611217565b610f8a81856112bc565b9350610f9a81856020860161131e565b80840191505092915050565b60006060830160008301518482036000860152610fc38282610f03565b9150506020830151610fd86020860182610d21565b506040830151610feb6040860182610ee5565b508091505092915050565b600060608301600083015184820360008601526110138282610f03565b91505060208301516110286020860182610d21565b50604083015161103b6040860182610ee5565b508091505092915050565b61104f81611305565b82525050565b60006110618284610f75565b915081905092915050565b600060608201905081810360008301526110868186610dfb565b9050818103602083015261109a8185610d3f565b905081810360408301526110ae8184610d9d565b9050949350505050565b600060208201905081810360008301526110d28184610e70565b905092915050565b600060608201905081810360008301526110f48186610f3c565b90506111036020830185610d30565b6111106040830184610ef4565b949350505050565b600060208201905081810360008301526111328184610ff6565b905092915050565b600060208201905061114f6000830184611046565b92915050565b600061115f611170565b905061116b8282611383565b919050565b6000604051905090565b600067ffffffffffffffff8211156111955761119461148a565b5b61119e826114cd565b9050602081019050919050565b6000819050602082019050919050565b6000819050602082019050919050565b6000819050602082019050919050565b6000819050602082019050919050565b600081519050919050565b600081519050919050565b600081519050919050565b600081519050919050565b600081519050919050565b6000602082019050919050565b6000602082019050919050565b6000602082019050919050565b6000602082019050919050565b600082825260208201905092915050565b600082825260208201905092915050565b600082825260208201905092915050565b600082825260208201905092915050565b600082825260208201905092915050565b600082825260208201905092915050565b600081905092915050565b60006112d2826112e5565b9050919050565b60008115159050919050565b600073ffffffffffffffffffffffffffffffffffffffff82169050919050565b6000819050919050565b82818337600083830152505050565b60005b8381101561133c578082015181840152602081019050611321565b8381111561134b576000848401525b50505050565b6000600282049050600182168061136957607f821691505b6020821081141561137d5761137c61142c565b5b50919050565b61138c826114cd565b810181811067ffffffffffffffff821117156113ab576113aa61148a565b5b80604052505050565b60006113bf82611305565b91507fffffffffffffffffffffffffffffffffffffffffffffffffffffffffffffffff8214156113f2576113f16113fd565b5b600182019050919050565b7f4e487b7100000000000000000000000000000000000000000000000000000000600052601160045260246000fd5b7f4e487b7100000000000000000000000000000000000000000000000000000000600052602260045260246000fd5b7f4e487b7100000000000000000000000000000000000000000000000000000000600052603260045260246000fd5b7f4e487b7100000000000000000000000000000000000000000000000000000000600052604160045260246000fd5b600080fd5b600080fd5b600080fd5b600080fd5b6000601f19601f8301169050919050565b6114e7816112d9565b81146114f257600080fd5b50565b6114fe81611305565b811461150957600080fd5b5056fea26469706673582212203e8a1fef64e7aded0d7d4be936b8b84739331b6e4c7a46f5b662b53debf3343164736f6c63430008070033",
					"opcodes": "PUSH1 0x80 PUSH1 0x40 MSTORE CALLVALUE DUP1 ISZERO PUSH2 0x10 JUMPI PUSH1 0x0 DUP1 REVERT JUMPDEST POP PUSH1 0x0 PUSH1 0x3 DUP2 SWAP1 SSTORE POP CALLER PUSH1 0x0 DUP1 PUSH2 0x100 EXP DUP2 SLOAD DUP2 PUSH20 0xFFFFFFFFFFFFFFFFFFFFFFFFFFFFFFFFFFFFFFFF MUL NOT AND SWAP1 DUP4 PUSH20 0xFFFFFFFFFFFFFFFFFFFFFFFFFFFFFFFFFFFFFFFF AND MUL OR SWAP1 SSTORE POP PUSH2 0x1542 DUP1 PUSH2 0x68 PUSH1 0x0 CODECOPY PUSH1 0x0 RETURN INVALID PUSH1 0x80 PUSH1 0x40 MSTORE CALLVALUE DUP1 ISZERO PUSH2 0x10 JUMPI PUSH1 0x0 DUP1 REVERT JUMPDEST POP PUSH1 0x4 CALLDATASIZE LT PUSH2 0x88 JUMPI PUSH1 0x0 CALLDATALOAD PUSH1 0xE0 SHR DUP1 PUSH4 0xB0D548DF GT PUSH2 0x5B JUMPI DUP1 PUSH4 0xB0D548DF EQ PUSH2 0x115 JUMPI DUP1 PUSH4 0xE259EFFA EQ PUSH2 0x147 JUMPI DUP1 PUSH4 0xF2A50281 EQ PUSH2 0x163 JUMPI DUP1 PUSH4 0xFCA5E61E EQ PUSH2 0x183 JUMPI PUSH2 0x88 JUMP JUMPDEST DUP1 PUSH4 0x223883DE EQ PUSH2 0x8D JUMPI DUP1 PUSH4 0x5FB07A62 EQ PUSH2 0xA9 JUMPI DUP1 PUSH4 0x693EC85E EQ PUSH2 0xC7 JUMPI DUP1 PUSH4 0x92812E6F EQ PUSH2 0xF7 JUMPI JUMPDEST PUSH1 0x0 DUP1 REVERT JUMPDEST PUSH2 0xA7 PUSH1 0x4 DUP1 CALLDATASIZE SUB DUP2 ADD SWAP1 PUSH2 0xA2 SWAP2 SWAP1 PUSH2 0xC13 JUMP JUMPDEST PUSH2 0x1B5 JUMP JUMPDEST STOP JUMPDEST PUSH2 0xB1 PUSH2 0x2A0 JUMP JUMPDEST PUSH1 0x40 MLOAD PUSH2 0xBE SWAP2 SWAP1 PUSH2 0x10B8 JUMP JUMPDEST PUSH1 0x40 MLOAD DUP1 SWAP2 SUB SWAP1 RETURN JUMPDEST PUSH2 0xE1 PUSH1 0x4 DUP1 CALLDATASIZE SUB DUP2 ADD SWAP1 PUSH2 0xDC SWAP2 SWAP1 PUSH2 0xC13 JUMP JUMPDEST PUSH2 0x469 JUMP JUMPDEST PUSH1 0x40 MLOAD PUSH2 0xEE SWAP2 SWAP1 PUSH2 0x1118 JUMP JUMPDEST PUSH1 0x40 MLOAD DUP1 SWAP2 SUB SWAP1 RETURN JUMPDEST PUSH2 0xFF PUSH2 0x5A4 JUMP JUMPDEST PUSH1 0x40 MLOAD PUSH2 0x10C SWAP2 SWAP1 PUSH2 0x113A JUMP JUMPDEST PUSH1 0x40 MLOAD DUP1 SWAP2 SUB SWAP1 RETURN JUMPDEST PUSH2 0x12F PUSH1 0x4 DUP1 CALLDATASIZE SUB DUP2 ADD SWAP1 PUSH2 0x12A SWAP2 SWAP1 PUSH2 0xC13 JUMP JUMPDEST PUSH2 0x5AA JUMP JUMPDEST PUSH1 0x40 MLOAD PUSH2 0x13E SWAP4 SWAP3 SWAP2 SWAP1 PUSH2 0x10DA JUMP JUMPDEST PUSH1 0x40 MLOAD DUP1 SWAP2 SUB SWAP1 RETURN JUMPDEST PUSH2 0x161 PUSH1 0x4 DUP1 CALLDATASIZE SUB DUP2 ADD SWAP1 PUSH2 0x15C SWAP2 SWAP1 PUSH2 0xC89 JUMP JUMPDEST PUSH2 0x69F JUMP JUMPDEST STOP JUMPDEST PUSH2 0x16B PUSH2 0x729 JUMP JUMPDEST PUSH1 0x40 MLOAD PUSH2 0x17A SWAP4 SWAP3 SWAP2 SWAP1 PUSH2 0x106C JUMP JUMPDEST PUSH1 0x40 MLOAD DUP1 SWAP2 SUB SWAP1 RETURN JUMPDEST PUSH2 0x19D PUSH1 0x4 DUP1 CALLDATASIZE SUB DUP2 ADD SWAP1 PUSH2 0x198 SWAP2 SWAP1 PUSH2 0xC5C JUMP JUMPDEST PUSH2 0x9BE JUMP JUMPDEST PUSH1 0x40 MLOAD PUSH2 0x1AC SWAP4 SWAP3 SWAP2 SWAP1 PUSH2 0x10DA JUMP JUMPDEST PUSH1 0x40 MLOAD DUP1 SWAP2 SUB SWAP1 RETURN JUMPDEST PUSH1 0x40 MLOAD DUP1 PUSH1 0x60 ADD PUSH1 0x40 MSTORE DUP1 DUP3 DUP2 MSTORE PUSH1 0x20 ADD CALLER PUSH20 0xFFFFFFFFFFFFFFFFFFFFFFFFFFFFFFFFFFFFFFFF AND DUP2 MSTORE PUSH1 0x20 ADD PUSH1 0x1 ISZERO ISZERO DUP2 MSTORE POP PUSH1 0x1 PUSH1 0x0 PUSH1 0x3 SLOAD DUP2 MSTORE PUSH1 0x20 ADD SWAP1 DUP2 MSTORE PUSH1 0x20 ADD PUSH1 0x0 KECCAK256 PUSH1 0x0 DUP3 ADD MLOAD DUP2 PUSH1 0x0 ADD SWAP1 DUP1 MLOAD SWAP1 PUSH1 0x20 ADD SWAP1 PUSH2 0x21A SWAP3 SWAP2 SWAP1 PUSH2 0xA9D JUMP JUMPDEST POP PUSH1 0x20 DUP3 ADD MLOAD DUP2 PUSH1 0x1 ADD PUSH1 0x0 PUSH2 0x100 EXP DUP2 SLOAD DUP2 PUSH20 0xFFFFFFFFFFFFFFFFFFFFFFFFFFFFFFFFFFFFFFFF MUL NOT AND SWAP1 DUP4 PUSH20 0xFFFFFFFFFFFFFFFFFFFFFFFFFFFFFFFFFFFFFFFF AND MUL OR SWAP1 SSTORE POP PUSH1 0x40 DUP3 ADD MLOAD DUP2 PUSH1 0x1 ADD PUSH1 0x14 PUSH2 0x100 EXP DUP2 SLOAD DUP2 PUSH1 0xFF MUL NOT AND SWAP1 DUP4 ISZERO ISZERO MUL OR SWAP1 SSTORE POP SWAP1 POP POP PUSH1 0x3 PUSH1 0x0 DUP2 SLOAD DUP1 SWAP3 SWAP2 SWAP1 PUSH2 0x298 SWAP1 PUSH2 0x13B4 JUMP JUMPDEST SWAP2 SWAP1 POP SSTORE POP POP JUMP JUMPDEST PUSH1 0x60 PUSH1 0x0 PUSH1 0x3 SLOAD PUSH8 0xFFFFFFFFFFFFFFFF DUP2 GT ISZERO PUSH2 0x2C0 JUMPI PUSH2 0x2BF PUSH2 0x148A JUMP JUMPDEST JUMPDEST PUSH1 0x40 MLOAD SWAP1 DUP1 DUP3 MSTORE DUP1 PUSH1 0x20 MUL PUSH1 0x20 ADD DUP3 ADD PUSH1 0x40 MSTORE DUP1 ISZERO PUSH2 0x2F9 JUMPI DUP2 PUSH1 0x20 ADD JUMPDEST PUSH2 0x2E6 PUSH2 0xB23 JUMP JUMPDEST DUP2 MSTORE PUSH1 0x20 ADD SWAP1 PUSH1 0x1 SWAP1 SUB SWAP1 DUP2 PUSH2 0x2DE JUMPI SWAP1 POP JUMPDEST POP SWAP1 POP PUSH1 0x0 JUMPDEST PUSH1 0x3 SLOAD DUP2 LT ISZERO PUSH2 0x461 JUMPI PUSH1 0x0 PUSH1 0x1 PUSH1 0x0 DUP4 DUP2 MSTORE PUSH1 0x20 ADD SWAP1 DUP2 MSTORE PUSH1 0x20 ADD PUSH1 0x0 KECCAK256 SWAP1 POP DUP1 PUSH1 0x40 MLOAD DUP1 PUSH1 0x60 ADD PUSH1 0x40 MSTORE SWAP1 DUP2 PUSH1 0x0 DUP3 ADD DUP1 SLOAD PUSH2 0x33C SWAP1 PUSH2 0x1351 JUMP JUMPDEST DUP1 PUSH1 0x1F ADD PUSH1 0x20 DUP1 SWAP2 DIV MUL PUSH1 0x20 ADD PUSH1 0x40 MLOAD SWAP1 DUP2 ADD PUSH1 0x40 MSTORE DUP1 SWAP3 SWAP2 SWAP1 DUP2 DUP2 MSTORE PUSH1 0x20 ADD DUP3 DUP1 SLOAD PUSH2 0x368 SWAP1 PUSH2 0x1351 JUMP JUMPDEST DUP1 ISZERO PUSH2 0x3B5 JUMPI DUP1 PUSH1 0x1F LT PUSH2 0x38A JUMPI PUSH2 0x100 DUP1 DUP4 SLOAD DIV MUL DUP4 MSTORE SWAP2 PUSH1 0x20 ADD SWAP2 PUSH2 0x3B5 JUMP JUMPDEST DUP3 ADD SWAP2 SWAP1 PUSH1 0x0 MSTORE PUSH1 0x20 PUSH1 0x0 KECCAK256 SWAP1 JUMPDEST DUP2 SLOAD DUP2 MSTORE SWAP1 PUSH1 0x1 ADD SWAP1 PUSH1 0x20 ADD DUP1 DUP4 GT PUSH2 0x398 JUMPI DUP3 SWAP1 SUB PUSH1 0x1F AND DUP3 ADD SWAP2 JUMPDEST POP POP POP POP POP DUP2 MSTORE PUSH1 0x20 ADD PUSH1 0x1 DUP3 ADD PUSH1 0x0 SWAP1 SLOAD SWAP1 PUSH2 0x100 EXP SWAP1 DIV PUSH20 0xFFFFFFFFFFFFFFFFFFFFFFFFFFFFFFFFFFFFFFFF AND PUSH20 0xFFFFFFFFFFFFFFFFFFFFFFFFFFFFFFFFFFFFFFFF AND PUSH20 0xFFFFFFFFFFFFFFFFFFFFFFFFFFFFFFFFFFFFFFFF AND DUP2 MSTORE PUSH1 0x20 ADD PUSH1 0x1 DUP3 ADD PUSH1 0x14 SWAP1 SLOAD SWAP1 PUSH2 0x100 EXP SWAP1 DIV PUSH1 0xFF AND ISZERO ISZERO ISZERO ISZERO DUP2 MSTORE POP POP DUP4 DUP4 DUP2 MLOAD DUP2 LT PUSH2 0x442 JUMPI PUSH2 0x441 PUSH2 0x145B JUMP JUMPDEST JUMPDEST PUSH1 0x20 MUL PUSH1 0x20 ADD ADD DUP2 SWAP1 MSTORE POP POP DUP1 DUP1 PUSH2 0x459 SWAP1 PUSH2 0x13B4 JUMP JUMPDEST SWAP2 POP POP PUSH2 0x2FF JUMP JUMPDEST POP DUP1 SWAP2 POP POP SWAP1 JUMP JUMPDEST PUSH2 0x471 PUSH2 0xB23 JUMP JUMPDEST PUSH1 0x2 DUP3 PUSH1 0x40 MLOAD PUSH2 0x481 SWAP2 SWAP1 PUSH2 0x1055 JUMP JUMPDEST SWAP1 DUP2 MSTORE PUSH1 0x20 ADD PUSH1 0x40 MLOAD DUP1 SWAP2 SUB SWAP1 KECCAK256 PUSH1 0x40 MLOAD DUP1 PUSH1 0x60 ADD PUSH1 0x40 MSTORE SWAP1 DUP2 PUSH1 0x0 DUP3 ADD DUP1 SLOAD PUSH2 0x4AA SWAP1 PUSH2 0x1351 JUMP JUMPDEST DUP1 PUSH1 0x1F ADD PUSH1 0x20 DUP1 SWAP2 DIV MUL PUSH1 0x20 ADD PUSH1 0x40 MLOAD SWAP1 DUP2 ADD PUSH1 0x40 MSTORE DUP1 SWAP3 SWAP2 SWAP1 DUP2 DUP2 MSTORE PUSH1 0x20 ADD DUP3 DUP1 SLOAD PUSH2 0x4D6 SWAP1 PUSH2 0x1351 JUMP JUMPDEST DUP1 ISZERO PUSH2 0x523 JUMPI DUP1 PUSH1 0x1F LT PUSH2 0x4F8 JUMPI PUSH2 0x100 DUP1 DUP4 SLOAD DIV MUL DUP4 MSTORE SWAP2 PUSH1 0x20 ADD SWAP2 PUSH2 0x523 JUMP JUMPDEST DUP3 ADD SWAP2 SWAP1 PUSH1 0x0 MSTORE PUSH1 0x20 PUSH1 0x0 KECCAK256 SWAP1 JUMPDEST DUP2 SLOAD DUP2 MSTORE SWAP1 PUSH1 0x1 ADD SWAP1 PUSH1 0x20 ADD DUP1 DUP4 GT PUSH2 0x506 JUMPI DUP3 SWAP1 SUB PUSH1 0x1F AND DUP3 ADD SWAP2 JUMPDEST POP POP POP POP POP DUP2 MSTORE PUSH1 0x20 ADD PUSH1 0x1 DUP3 ADD PUSH1 0x0 SWAP1 SLOAD SWAP1 PUSH2 0x100 EXP SWAP1 DIV PUSH20 0xFFFFFFFFFFFFFFFFFFFFFFFFFFFFFFFFFFFFFFFF AND PUSH20 0xFFFFFFFFFFFFFFFFFFFFFFFFFFFFFFFFFFFFFFFF AND PUSH20 0xFFFFFFFFFFFFFFFFFFFFFFFFFFFFFFFFFFFFFFFF AND DUP2 MSTORE PUSH1 0x20 ADD PUSH1 0x1 DUP3 ADD PUSH1 0x14 SWAP1 SLOAD SWAP1 PUSH2 0x100 EXP SWAP1 DIV PUSH1 0xFF AND ISZERO ISZERO ISZERO ISZERO DUP2 MSTORE POP POP SWAP1 POP SWAP2 SWAP1 POP JUMP JUMPDEST PUSH1 0x3 SLOAD DUP2 JUMP JUMPDEST PUSH1 0x2 DUP2 DUP1 MLOAD PUSH1 0x20 DUP2 ADD DUP3 ADD DUP1 MLOAD DUP5 DUP3 MSTORE PUSH1 0x20 DUP4 ADD PUSH1 0x20 DUP6 ADD KECCAK256 DUP2 DUP4 MSTORE DUP1 SWAP6 POP POP POP POP POP POP PUSH1 0x0 SWAP2 POP SWAP1 POP DUP1 PUSH1 0x0 ADD DUP1 SLOAD PUSH2 0x5E3 SWAP1 PUSH2 0x1351 JUMP JUMPDEST DUP1 PUSH1 0x1F ADD PUSH1 0x20 DUP1 SWAP2 DIV MUL PUSH1 0x20 ADD PUSH1 0x40 MLOAD SWAP1 DUP2 ADD PUSH1 0x40 MSTORE DUP1 SWAP3 SWAP2 SWAP1 DUP2 DUP2 MSTORE PUSH1 0x20 ADD DUP3 DUP1 SLOAD PUSH2 0x60F SWAP1 PUSH2 0x1351 JUMP JUMPDEST DUP1 ISZERO PUSH2 0x65C JUMPI DUP1 PUSH1 0x1F LT PUSH2 0x631 JUMPI PUSH2 0x100 DUP1 DUP4 SLOAD DIV MUL DUP4 MSTORE SWAP2 PUSH1 0x20 ADD SWAP2 PUSH2 0x65C JUMP JUMPDEST DUP3 ADD SWAP2 SWAP1 PUSH1 0x0 MSTORE PUSH1 0x20 PUSH1 0x0 KECCAK256 SWAP1 JUMPDEST DUP2 SLOAD DUP2 MSTORE SWAP1 PUSH1 0x1 ADD SWAP1 PUSH1 0x20 ADD DUP1 DUP4 GT PUSH2 0x63F JUMPI DUP3 SWAP1 SUB PUSH1 0x1F AND DUP3 ADD SWAP2 JUMPDEST POP POP POP POP POP SWAP1 DUP1 PUSH1 0x1 ADD PUSH1 0x0 SWAP1 SLOAD SWAP1 PUSH2 0x100 EXP SWAP1 DIV PUSH20 0xFFFFFFFFFFFFFFFFFFFFFFFFFFFFFFFFFFFFFFFF AND SWAP1 DUP1 PUSH1 0x1 ADD PUSH1 0x14 SWAP1 SLOAD SWAP1 PUSH2 0x100 EXP SWAP1 DIV PUSH1 0xFF AND SWAP1 POP DUP4 JUMP JUMPDEST CALLER PUSH20 0xFFFFFFFFFFFFFFFFFFFFFFFFFFFFFFFFFFFFFFFF AND PUSH1 0x0 DUP1 SLOAD SWAP1 PUSH2 0x100 EXP SWAP1 DIV PUSH20 0xFFFFFFFFFFFFFFFFFFFFFFFFFFFFFFFFFFFFFFFF AND PUSH20 0xFFFFFFFFFFFFFFFFFFFFFFFFFFFFFFFFFFFFFFFF AND EQ PUSH2 0x6F7 JUMPI PUSH1 0x0 DUP1 REVERT JUMPDEST DUP1 PUSH1 0x1 PUSH1 0x0 DUP5 DUP2 MSTORE PUSH1 0x20 ADD SWAP1 DUP2 MSTORE PUSH1 0x20 ADD PUSH1 0x0 KECCAK256 PUSH1 0x1 ADD PUSH1 0x14 PUSH2 0x100 EXP DUP2 SLOAD DUP2 PUSH1 0xFF MUL NOT AND SWAP1 DUP4 ISZERO ISZERO MUL OR SWAP1 SSTORE POP POP POP JUMP JUMPDEST PUSH1 0x60 DUP1 PUSH1 0x60 PUSH1 0x0 PUSH1 0x3 SLOAD PUSH8 0xFFFFFFFFFFFFFFFF DUP2 GT ISZERO PUSH2 0x74C JUMPI PUSH2 0x74B PUSH2 0x148A JUMP JUMPDEST JUMPDEST PUSH1 0x40 MLOAD SWAP1 DUP1 DUP3 MSTORE DUP1 PUSH1 0x20 MUL PUSH1 0x20 ADD DUP3 ADD PUSH1 0x40 MSTORE DUP1 ISZERO PUSH2 0x77F JUMPI DUP2 PUSH1 0x20 ADD JUMPDEST PUSH1 0x60 DUP2 MSTORE PUSH1 0x20 ADD SWAP1 PUSH1 0x1 SWAP1 SUB SWAP1 DUP2 PUSH2 0x76A JUMPI SWAP1 POP JUMPDEST POP SWAP1 POP PUSH1 0x0 PUSH1 0x3 SLOAD PUSH8 0xFFFFFFFFFFFFFFFF DUP2 GT ISZERO PUSH2 0x7A0 JUMPI PUSH2 0x79F PUSH2 0x148A JUMP JUMPDEST JUMPDEST PUSH1 0x40 MLOAD SWAP1 DUP1 DUP3 MSTORE DUP1 PUSH1 0x20 MUL PUSH1 0x20 ADD DUP3 ADD PUSH1 0x40 MSTORE DUP1 ISZERO PUSH2 0x7CE JUMPI DUP2 PUSH1 0x20 ADD PUSH1 0x20 DUP3 MUL DUP1 CALLDATASIZE DUP4 CALLDATACOPY DUP1 DUP3 ADD SWAP2 POP POP SWAP1 POP JUMPDEST POP SWAP1 POP PUSH1 0x0 PUSH1 0x3 SLOAD PUSH8 0xFFFFFFFFFFFFFFFF DUP2 GT ISZERO PUSH2 0x7EF JUMPI PUSH2 0x7EE PUSH2 0x148A JUMP JUMPDEST JUMPDEST PUSH1 0x40 MLOAD SWAP1 DUP1 DUP3 MSTORE DUP1 PUSH1 0x20 MUL PUSH1 0x20 ADD DUP3 ADD PUSH1 0x40 MSTORE DUP1 ISZERO PUSH2 0x81D JUMPI DUP2 PUSH1 0x20 ADD PUSH1 0x20 DUP3 MUL DUP1 CALLDATASIZE DUP4 CALLDATACOPY DUP1 DUP3 ADD SWAP2 POP POP SWAP1 POP JUMPDEST POP SWAP1 POP PUSH1 0x0 JUMPDEST PUSH1 0x3 SLOAD DUP2 LT ISZERO PUSH2 0x9AC JUMPI PUSH1 0x0 PUSH1 0x1 PUSH1 0x0 DUP4 DUP2 MSTORE PUSH1 0x20 ADD SWAP1 DUP2 MSTORE PUSH1 0x20 ADD PUSH1 0x0 KECCAK256 SWAP1 POP DUP1 PUSH1 0x0 ADD DUP1 SLOAD PUSH2 0x853 SWAP1 PUSH2 0x1351 JUMP JUMPDEST DUP1 PUSH1 0x1F ADD PUSH1 0x20 DUP1 SWAP2 DIV MUL PUSH1 0x20 ADD PUSH1 0x40 MLOAD SWAP1 DUP2 ADD PUSH1 0x40 MSTORE DUP1 SWAP3 SWAP2 SWAP1 DUP2 DUP2 MSTORE PUSH1 0x20 ADD DUP3 DUP1 SLOAD PUSH2 0x87F SWAP1 PUSH2 0x1351 JUMP JUMPDEST DUP1 ISZERO PUSH2 0x8CC JUMPI DUP1 PUSH1 0x1F LT PUSH2 0x8A1 JUMPI PUSH2 0x100 DUP1 DUP4 SLOAD DIV MUL DUP4 MSTORE SWAP2 PUSH1 0x20 ADD SWAP2 PUSH2 0x8CC JUMP JUMPDEST DUP3 ADD SWAP2 SWAP1 PUSH1 0x0 MSTORE PUSH1 0x20 PUSH1 0x0 KECCAK256 SWAP1 JUMPDEST DUP2 SLOAD DUP2 MSTORE SWAP1 PUSH1 0x1 ADD SWAP1 PUSH1 0x20 ADD DUP1 DUP4 GT PUSH2 0x8AF JUMPI DUP3 SWAP1 SUB PUSH1 0x1F AND DUP3 ADD SWAP2 JUMPDEST POP POP POP POP POP DUP6 DUP4 DUP2 MLOAD DUP2 LT PUSH2 0x8E4 JUMPI PUSH2 0x8E3 PUSH2 0x145B JUMP JUMPDEST JUMPDEST PUSH1 0x20 MUL PUSH1 0x20 ADD ADD DUP2 SWAP1 MSTORE POP DUP1 PUSH1 0x1 ADD PUSH1 0x0 SWAP1 SLOAD SWAP1 PUSH2 0x100 EXP SWAP1 DIV PUSH20 0xFFFFFFFFFFFFFFFFFFFFFFFFFFFFFFFFFFFFFFFF AND DUP5 DUP4 DUP2 MLOAD DUP2 LT PUSH2 0x927 JUMPI PUSH2 0x926 PUSH2 0x145B JUMP JUMPDEST JUMPDEST PUSH1 0x20 MUL PUSH1 0x20 ADD ADD SWAP1 PUSH20 0xFFFFFFFFFFFFFFFFFFFFFFFFFFFFFFFFFFFFFFFF AND SWAP1 DUP2 PUSH20 0xFFFFFFFFFFFFFFFFFFFFFFFFFFFFFFFFFFFFFFFF AND DUP2 MSTORE POP POP DUP1 PUSH1 0x1 ADD PUSH1 0x14 SWAP1 SLOAD SWAP1 PUSH2 0x100 EXP SWAP1 DIV PUSH1 0xFF AND DUP4 DUP4 DUP2 MLOAD DUP2 LT PUSH2 0x986 JUMPI PUSH2 0x985 PUSH2 0x145B JUMP JUMPDEST JUMPDEST PUSH1 0x20 MUL PUSH1 0x20 ADD ADD SWAP1 ISZERO ISZERO SWAP1 DUP2 ISZERO ISZERO DUP2 MSTORE POP POP POP DUP1 DUP1 PUSH2 0x9A4 SWAP1 PUSH2 0x13B4 JUMP JUMPDEST SWAP2 POP POP PUSH2 0x823 JUMP JUMPDEST POP DUP3 DUP3 DUP3 SWAP6 POP SWAP6 POP SWAP6 POP POP POP POP SWAP1 SWAP2 SWAP3 JUMP JUMPDEST PUSH1 0x1 PUSH1 0x20 MSTORE DUP1 PUSH1 0x0 MSTORE PUSH1 0x40 PUSH1 0x0 KECCAK256 PUSH1 0x0 SWAP2 POP SWAP1 POP DUP1 PUSH1 0x0 ADD DUP1 SLOAD PUSH2 0x9E1 SWAP1 PUSH2 0x1351 JUMP JUMPDEST DUP1 PUSH1 0x1F ADD PUSH1 0x20 DUP1 SWAP2 DIV MUL PUSH1 0x20 ADD PUSH1 0x40 MLOAD SWAP1 DUP2 ADD PUSH1 0x40 MSTORE DUP1 SWAP3 SWAP2 SWAP1 DUP2 DUP2 MSTORE PUSH1 0x20 ADD DUP3 DUP1 SLOAD PUSH2 0xA0D SWAP1 PUSH2 0x1351 JUMP JUMPDEST DUP1 ISZERO PUSH2 0xA5A JUMPI DUP1 PUSH1 0x1F LT PUSH2 0xA2F JUMPI PUSH2 0x100 DUP1 DUP4 SLOAD DIV MUL DUP4 MSTORE SWAP2 PUSH1 0x20 ADD SWAP2 PUSH2 0xA5A JUMP JUMPDEST DUP3 ADD SWAP2 SWAP1 PUSH1 0x0 MSTORE PUSH1 0x20 PUSH1 0x0 KECCAK256 SWAP1 JUMPDEST DUP2 SLOAD DUP2 MSTORE SWAP1 PUSH1 0x1 ADD SWAP1 PUSH1 0x20 ADD DUP1 DUP4 GT PUSH2 0xA3D JUMPI DUP3 SWAP1 SUB PUSH1 0x1F AND DUP3 ADD SWAP2 JUMPDEST POP POP POP POP POP SWAP1 DUP1 PUSH1 0x1 ADD PUSH1 0x0 SWAP1 SLOAD SWAP1 PUSH2 0x100 EXP SWAP1 DIV PUSH20 0xFFFFFFFFFFFFFFFFFFFFFFFFFFFFFFFFFFFFFFFF AND SWAP1 DUP1 PUSH1 0x1 ADD PUSH1 0x14 SWAP1 SLOAD SWAP1 PUSH2 0x100 EXP SWAP1 DIV PUSH1 0xFF AND SWAP1 POP DUP4 JUMP JUMPDEST DUP3 DUP1 SLOAD PUSH2 0xAA9 SWAP1 PUSH2 0x1351 JUMP JUMPDEST SWAP1 PUSH1 0x0 MSTORE PUSH1 0x20 PUSH1 0x0 KECCAK256 SWAP1 PUSH1 0x1F ADD PUSH1 0x20 SWAP1 DIV DUP2 ADD SWAP3 DUP3 PUSH2 0xACB JUMPI PUSH1 0x0 DUP6 SSTORE PUSH2 0xB12 JUMP JUMPDEST DUP3 PUSH1 0x1F LT PUSH2 0xAE4 JUMPI DUP1 MLOAD PUSH1 0xFF NOT AND DUP4 DUP1 ADD OR DUP6 SSTORE PUSH2 0xB12 JUMP JUMPDEST DUP3 DUP1 ADD PUSH1 0x1 ADD DUP6 SSTORE DUP3 ISZERO PUSH2 0xB12 JUMPI SWAP2 DUP3 ADD JUMPDEST DUP3 DUP2 GT ISZERO PUSH2 0xB11 JUMPI DUP3 MLOAD DUP3 SSTORE SWAP2 PUSH1 0x20 ADD SWAP2 SWAP1 PUSH1 0x1 ADD SWAP1 PUSH2 0xAF6 JUMP JUMPDEST JUMPDEST POP SWAP1 POP PUSH2 0xB1F SWAP2 SWAP1 PUSH2 0xB5C JUMP JUMPDEST POP SWAP1 JUMP JUMPDEST PUSH1 0x40 MLOAD DUP1 PUSH1 0x60 ADD PUSH1 0x40 MSTORE DUP1 PUSH1 0x60 DUP2 MSTORE PUSH1 0x20 ADD PUSH1 0x0 PUSH20 0xFFFFFFFFFFFFFFFFFFFFFFFFFFFFFFFFFFFFFFFF AND DUP2 MSTORE PUSH1 0x20 ADD PUSH1 0x0 ISZERO ISZERO DUP2 MSTORE POP SWAP1 JUMP JUMPDEST JUMPDEST DUP1 DUP3 GT ISZERO PUSH2 0xB75 JUMPI PUSH1 0x0 DUP2 PUSH1 0x0 SWAP1 SSTORE POP PUSH1 0x1 ADD PUSH2 0xB5D JUMP JUMPDEST POP SWAP1 JUMP JUMPDEST PUSH1 0x0 PUSH2 0xB8C PUSH2 0xB87 DUP5 PUSH2 0x117A JUMP JUMPDEST PUSH2 0x1155 JUMP JUMPDEST SWAP1 POP DUP3 DUP2 MSTORE PUSH1 0x20 DUP2 ADD DUP5 DUP5 DUP5 ADD GT ISZERO PUSH2 0xBA8 JUMPI PUSH2 0xBA7 PUSH2 0x14BE JUMP JUMPDEST JUMPDEST PUSH2 0xBB3 DUP5 DUP3 DUP6 PUSH2 0x130F JUMP JUMPDEST POP SWAP4 SWAP3 POP POP POP JUMP JUMPDEST PUSH1 0x0 DUP2 CALLDATALOAD SWAP1 POP PUSH2 0xBCA DUP2 PUSH2 0x14DE JUMP JUMPDEST SWAP3 SWAP2 POP POP JUMP JUMPDEST PUSH1 0x0 DUP3 PUSH1 0x1F DUP4 ADD SLT PUSH2 0xBE5 JUMPI PUSH2 0xBE4 PUSH2 0x14B9 JUMP JUMPDEST JUMPDEST DUP2 CALLDATALOAD PUSH2 0xBF5 DUP5 DUP3 PUSH1 0x20 DUP7 ADD PUSH2 0xB79 JUMP JUMPDEST SWAP2 POP POP SWAP3 SWAP2 POP POP JUMP JUMPDEST PUSH1 0x0 DUP2 CALLDATALOAD SWAP1 POP PUSH2 0xC0D DUP2 PUSH2 0x14F5 JUMP JUMPDEST SWAP3 SWAP2 POP POP JUMP JUMPDEST PUSH1 0x0 PUSH1 0x20 DUP3 DUP5 SUB SLT ISZERO PUSH2 0xC29 JUMPI PUSH2 0xC28 PUSH2 0x14C8 JUMP JUMPDEST JUMPDEST PUSH1 0x0 DUP3 ADD CALLDATALOAD PUSH8 0xFFFFFFFFFFFFFFFF DUP2 GT ISZERO PUSH2 0xC47 JUMPI PUSH2 0xC46 PUSH2 0x14C3 JUMP JUMPDEST JUMPDEST PUSH2 0xC53 DUP5 DUP3 DUP6 ADD PUSH2 0xBD0 JUMP JUMPDEST SWAP2 POP POP SWAP3 SWAP2 POP POP JUMP JUMPDEST PUSH1 0x0 PUSH1 0x20 DUP3 DUP5 SUB SLT ISZERO PUSH2 0xC72 JUMPI PUSH2 0xC71 PUSH2 0x14C8 JUMP JUMPDEST JUMPDEST PUSH1 0x0 PUSH2 0xC80 DUP5 DUP3 DUP6 ADD PUSH2 0xBFE JUMP JUMPDEST SWAP2 POP POP SWAP3 SWAP2 POP POP JUMP JUMPDEST PUSH1 0x0 DUP1 PUSH1 0x40 DUP4 DUP6 SUB SLT ISZERO PUSH2 0xCA0 JUMPI PUSH2 0xC9F PUSH2 0x14C8 JUMP JUMPDEST JUMPDEST PUSH1 0x0 PUSH2 0xCAE DUP6 DUP3 DUP7 ADD PUSH2 0xBFE JUMP JUMPDEST SWAP3 POP POP PUSH1 0x20 PUSH2 0xCBF DUP6 DUP3 DUP7 ADD PUSH2 0xBBB JUMP JUMPDEST SWAP2 POP POP SWAP3 POP SWAP3 SWAP1 POP JUMP JUMPDEST PUSH1 0x0 PUSH2 0xCD5 DUP4 DUP4 PUSH2 0xD21 JUMP JUMPDEST PUSH1 0x20 DUP4 ADD SWAP1 POP SWAP3 SWAP2 POP POP JUMP JUMPDEST PUSH1 0x0 PUSH2 0xCED DUP4 DUP4 PUSH2 0xEE5 JUMP JUMPDEST PUSH1 0x20 DUP4 ADD SWAP1 POP SWAP3 SWAP2 POP POP JUMP JUMPDEST PUSH1 0x0 PUSH2 0xD05 DUP4 DUP4 PUSH2 0xF03 JUMP JUMPDEST SWAP1 POP SWAP3 SWAP2 POP POP JUMP JUMPDEST PUSH1 0x0 PUSH2 0xD19 DUP4 DUP4 PUSH2 0xFA6 JUMP JUMPDEST SWAP1 POP SWAP3 SWAP2 POP POP JUMP JUMPDEST PUSH2 0xD2A DUP2 PUSH2 0x12C7 JUMP JUMPDEST DUP3 MSTORE POP POP JUMP JUMPDEST PUSH2 0xD39 DUP2 PUSH2 0x12C7 JUMP JUMPDEST DUP3 MSTORE POP POP JUMP JUMPDEST PUSH1 0x0 PUSH2 0xD4A DUP3 PUSH2 0x11EB JUMP JUMPDEST PUSH2 0xD54 DUP2 DUP6 PUSH2 0x1256 JUMP JUMPDEST SWAP4 POP PUSH2 0xD5F DUP4 PUSH2 0x11AB JUMP JUMPDEST DUP1 PUSH1 0x0 JUMPDEST DUP4 DUP2 LT ISZERO PUSH2 0xD90 JUMPI DUP2 MLOAD PUSH2 0xD77 DUP9 DUP3 PUSH2 0xCC9 JUMP JUMPDEST SWAP8 POP PUSH2 0xD82 DUP4 PUSH2 0x1222 JUMP JUMPDEST SWAP3 POP POP PUSH1 0x1 DUP2 ADD SWAP1 POP PUSH2 0xD63 JUMP JUMPDEST POP DUP6 SWAP4 POP POP POP POP SWAP3 SWAP2 POP POP JUMP JUMPDEST PUSH1 0x0 PUSH2 0xDA8 DUP3 PUSH2 0x11F6 JUMP JUMPDEST PUSH2 0xDB2 DUP2 DUP6 PUSH2 0x1267 JUMP JUMPDEST SWAP4 POP PUSH2 0xDBD DUP4 PUSH2 0x11BB JUMP JUMPDEST DUP1 PUSH1 0x0 JUMPDEST DUP4 DUP2 LT ISZERO PUSH2 0xDEE JUMPI DUP2 MLOAD PUSH2 0xDD5 DUP9 DUP3 PUSH2 0xCE1 JUMP JUMPDEST SWAP8 POP PUSH2 0xDE0 DUP4 PUSH2 0x122F JUMP JUMPDEST SWAP3 POP POP PUSH1 0x1 DUP2 ADD SWAP1 POP PUSH2 0xDC1 JUMP JUMPDEST POP DUP6 SWAP4 POP POP POP POP SWAP3 SWAP2 POP POP JUMP JUMPDEST PUSH1 0x0 PUSH2 0xE06 DUP3 PUSH2 0x1201 JUMP JUMPDEST PUSH2 0xE10 DUP2 DUP6 PUSH2 0x1278 JUMP JUMPDEST SWAP4 POP DUP4 PUSH1 0x20 DUP3 MUL DUP6 ADD PUSH2 0xE22 DUP6 PUSH2 0x11CB JUMP JUMPDEST DUP1 PUSH1 0x0 JUMPDEST DUP6 DUP2 LT ISZERO PUSH2 0xE5E JUMPI DUP5 DUP5 SUB DUP10 MSTORE DUP2 MLOAD PUSH2 0xE3F DUP6 DUP3 PUSH2 0xCF9 JUMP JUMPDEST SWAP5 POP PUSH2 0xE4A DUP4 PUSH2 0x123C JUMP JUMPDEST SWAP3 POP PUSH1 0x20 DUP11 ADD SWAP10 POP POP PUSH1 0x1 DUP2 ADD SWAP1 POP PUSH2 0xE26 JUMP JUMPDEST POP DUP3 SWAP8 POP DUP8 SWAP6 POP POP POP POP POP POP SWAP3 SWAP2 POP POP JUMP JUMPDEST PUSH1 0x0 PUSH2 0xE7B DUP3 PUSH2 0x120C JUMP JUMPDEST PUSH2 0xE85 DUP2 DUP6 PUSH2 0x1289 JUMP JUMPDEST SWAP4 POP DUP4 PUSH1 0x20 DUP3 MUL DUP6 ADD PUSH2 0xE97 DUP6 PUSH2 0x11DB JUMP JUMPDEST DUP1 PUSH1 0x0 JUMPDEST DUP6 DUP2 LT ISZERO PUSH2 0xED3 JUMPI DUP5 DUP5 SUB DUP10 MSTORE DUP2 MLOAD PUSH2 0xEB4 DUP6 DUP3 PUSH2 0xD0D JUMP JUMPDEST SWAP5 POP PUSH2 0xEBF DUP4 PUSH2 0x1249 JUMP JUMPDEST SWAP3 POP PUSH1 0x20 DUP11 ADD SWAP10 POP POP PUSH1 0x1 DUP2 ADD SWAP1 POP PUSH2 0xE9B JUMP JUMPDEST POP DUP3 SWAP8 POP DUP8 SWAP6 POP POP POP POP POP POP SWAP3 SWAP2 POP POP JUMP JUMPDEST PUSH2 0xEEE DUP2 PUSH2 0x12D9 JUMP JUMPDEST DUP3 MSTORE POP POP JUMP JUMPDEST PUSH2 0xEFD DUP2 PUSH2 0x12D9 JUMP JUMPDEST DUP3 MSTORE POP POP JUMP JUMPDEST PUSH1 0x0 PUSH2 0xF0E DUP3 PUSH2 0x1217 JUMP JUMPDEST PUSH2 0xF18 DUP2 DUP6 PUSH2 0x129A JUMP JUMPDEST SWAP4 POP PUSH2 0xF28 DUP2 DUP6 PUSH1 0x20 DUP7 ADD PUSH2 0x131E JUMP JUMPDEST PUSH2 0xF31 DUP2 PUSH2 0x14CD JUMP JUMPDEST DUP5 ADD SWAP2 POP POP SWAP3 SWAP2 POP POP JUMP JUMPDEST PUSH1 0x0 PUSH2 0xF47 DUP3 PUSH2 0x1217 JUMP JUMPDEST PUSH2 0xF51 DUP2 DUP6 PUSH2 0x12AB JUMP JUMPDEST SWAP4 POP PUSH2 0xF61 DUP2 DUP6 PUSH1 0x20 DUP7 ADD PUSH2 0x131E JUMP JUMPDEST PUSH2 0xF6A DUP2 PUSH2 0x14CD JUMP JUMPDEST DUP5 ADD SWAP2 POP POP SWAP3 SWAP2 POP POP JUMP JUMPDEST PUSH1 0x0 PUSH2 0xF80 DUP3 PUSH2 0x1217 JUMP JUMPDEST PUSH2 0xF8A DUP2 DUP6 PUSH2 0x12BC JUMP JUMPDEST SWAP4 POP PUSH2 0xF9A DUP2 DUP6 PUSH1 0x20 DUP7 ADD PUSH2 0x131E JUMP JUMPDEST DUP1 DUP5 ADD SWAP2 POP POP SWAP3 SWAP2 POP POP JUMP JUMPDEST PUSH1 0x0 PUSH1 0x60 DUP4 ADD PUSH1 0x0 DUP4 ADD MLOAD DUP5 DUP3 SUB PUSH1 0x0 DUP7 ADD MSTORE PUSH2 0xFC3 DUP3 DUP3 PUSH2 0xF03 JUMP JUMPDEST SWAP2 POP POP PUSH1 0x20 DUP4 ADD MLOAD PUSH2 0xFD8 PUSH1 0x20 DUP7 ADD DUP3 PUSH2 0xD21 JUMP JUMPDEST POP PUSH1 0x40 DUP4 ADD MLOAD PUSH2 0xFEB PUSH1 0x40 DUP7 ADD DUP3 PUSH2 0xEE5 JUMP JUMPDEST POP DUP1 SWAP2 POP POP SWAP3 SWAP2 POP POP JUMP JUMPDEST PUSH1 0x0 PUSH1 0x60 DUP4 ADD PUSH1 0x0 DUP4 ADD MLOAD DUP5 DUP3 SUB PUSH1 0x0 DUP7 ADD MSTORE PUSH2 0x1013 DUP3 DUP3 PUSH2 0xF03 JUMP JUMPDEST SWAP2 POP POP PUSH1 0x20 DUP4 ADD MLOAD PUSH2 0x1028 PUSH1 0x20 DUP7 ADD DUP3 PUSH2 0xD21 JUMP JUMPDEST POP PUSH1 0x40 DUP4 ADD MLOAD PUSH2 0x103B PUSH1 0x40 DUP7 ADD DUP3 PUSH2 0xEE5 JUMP JUMPDEST POP DUP1 SWAP2 POP POP SWAP3 SWAP2 POP POP JUMP JUMPDEST PUSH2 0x104F DUP2 PUSH2 0x1305 JUMP JUMPDEST DUP3 MSTORE POP POP JUMP JUMPDEST PUSH1 0x0 PUSH2 0x1061 DUP3 DUP5 PUSH2 0xF75 JUMP JUMPDEST SWAP2 POP DUP2 SWAP1 POP SWAP3 SWAP2 POP POP JUMP JUMPDEST PUSH1 0x0 PUSH1 0x60 DUP3 ADD SWAP1 POP DUP2 DUP2 SUB PUSH1 0x0 DUP4 ADD MSTORE PUSH2 0x1086 DUP2 DUP7 PUSH2 0xDFB JUMP JUMPDEST SWAP1 POP DUP2 DUP2 SUB PUSH1 0x20 DUP4 ADD MSTORE PUSH2 0x109A DUP2 DUP6 PUSH2 0xD3F JUMP JUMPDEST SWAP1 POP DUP2 DUP2 SUB PUSH1 0x40 DUP4 ADD MSTORE PUSH2 0x10AE DUP2 DUP5 PUSH2 0xD9D JUMP JUMPDEST SWAP1 POP SWAP5 SWAP4 POP POP POP POP JUMP JUMPDEST PUSH1 0x0 PUSH1 0x20 DUP3 ADD SWAP1 POP DUP2 DUP2 SUB PUSH1 0x0 DUP4 ADD MSTORE PUSH2 0x10D2 DUP2 DUP5 PUSH2 0xE70 JUMP JUMPDEST SWAP1 POP SWAP3 SWAP2 POP POP JUMP JUMPDEST PUSH1 0x0 PUSH1 0x60 DUP3 ADD SWAP1 POP DUP2 DUP2 SUB PUSH1 0x0 DUP4 ADD MSTORE PUSH2 0x10F4 DUP2 DUP7 PUSH2 0xF3C JUMP JUMPDEST SWAP1 POP PUSH2 0x1103 PUSH1 0x20 DUP4 ADD DUP6 PUSH2 0xD30 JUMP JUMPDEST PUSH2 0x1110 PUSH1 0x40 DUP4 ADD DUP5 PUSH2 0xEF4 JUMP JUMPDEST SWAP5 SWAP4 POP POP POP POP JUMP JUMPDEST PUSH1 0x0 PUSH1 0x20 DUP3 ADD SWAP1 POP DUP2 DUP2 SUB PUSH1 0x0 DUP4 ADD MSTORE PUSH2 0x1132 DUP2 DUP5 PUSH2 0xFF6 JUMP JUMPDEST SWAP1 POP SWAP3 SWAP2 POP POP JUMP JUMPDEST PUSH1 0x0 PUSH1 0x20 DUP3 ADD SWAP1 POP PUSH2 0x114F PUSH1 0x0 DUP4 ADD DUP5 PUSH2 0x1046 JUMP JUMPDEST SWAP3 SWAP2 POP POP JUMP JUMPDEST PUSH1 0x0 PUSH2 0x115F PUSH2 0x1170 JUMP JUMPDEST SWAP1 POP PUSH2 0x116B DUP3 DUP3 PUSH2 0x1383 JUMP JUMPDEST SWAP2 SWAP1 POP JUMP JUMPDEST PUSH1 0x0 PUSH1 0x40 MLOAD SWAP1 POP SWAP1 JUMP JUMPDEST PUSH1 0x0 PUSH8 0xFFFFFFFFFFFFFFFF DUP3 GT ISZERO PUSH2 0x1195 JUMPI PUSH2 0x1194 PUSH2 0x148A JUMP JUMPDEST JUMPDEST PUSH2 0x119E DUP3 PUSH2 0x14CD JUMP JUMPDEST SWAP1 POP PUSH1 0x20 DUP2 ADD SWAP1 POP SWAP2 SWAP1 POP JUMP JUMPDEST PUSH1 0x0 DUP2 SWAP1 POP PUSH1 0x20 DUP3 ADD SWAP1 POP SWAP2 SWAP1 POP JUMP JUMPDEST PUSH1 0x0 DUP2 SWAP1 POP PUSH1 0x20 DUP3 ADD SWAP1 POP SWAP2 SWAP1 POP JUMP JUMPDEST PUSH1 0x0 DUP2 SWAP1 POP PUSH1 0x20 DUP3 ADD SWAP1 POP SWAP2 SWAP1 POP JUMP JUMPDEST PUSH1 0x0 DUP2 SWAP1 POP PUSH1 0x20 DUP3 ADD SWAP1 POP SWAP2 SWAP1 POP JUMP JUMPDEST PUSH1 0x0 DUP2 MLOAD SWAP1 POP SWAP2 SWAP1 POP JUMP JUMPDEST PUSH1 0x0 DUP2 MLOAD SWAP1 POP SWAP2 SWAP1 POP JUMP JUMPDEST PUSH1 0x0 DUP2 MLOAD SWAP1 POP SWAP2 SWAP1 POP JUMP JUMPDEST PUSH1 0x0 DUP2 MLOAD SWAP1 POP SWAP2 SWAP1 POP JUMP JUMPDEST PUSH1 0x0 DUP2 MLOAD SWAP1 POP SWAP2 SWAP1 POP JUMP JUMPDEST PUSH1 0x0 PUSH1 0x20 DUP3 ADD SWAP1 POP SWAP2 SWAP1 POP JUMP JUMPDEST PUSH1 0x0 PUSH1 0x20 DUP3 ADD SWAP1 POP SWAP2 SWAP1 POP JUMP JUMPDEST PUSH1 0x0 PUSH1 0x20 DUP3 ADD SWAP1 POP SWAP2 SWAP1 POP JUMP JUMPDEST PUSH1 0x0 PUSH1 0x20 DUP3 ADD SWAP1 POP SWAP2 SWAP1 POP JUMP JUMPDEST PUSH1 0x0 DUP3 DUP3 MSTORE PUSH1 0x20 DUP3 ADD SWAP1 POP SWAP3 SWAP2 POP POP JUMP JUMPDEST PUSH1 0x0 DUP3 DUP3 MSTORE PUSH1 0x20 DUP3 ADD SWAP1 POP SWAP3 SWAP2 POP POP JUMP JUMPDEST PUSH1 0x0 DUP3 DUP3 MSTORE PUSH1 0x20 DUP3 ADD SWAP1 POP SWAP3 SWAP2 POP POP JUMP JUMPDEST PUSH1 0x0 DUP3 DUP3 MSTORE PUSH1 0x20 DUP3 ADD SWAP1 POP SWAP3 SWAP2 POP POP JUMP JUMPDEST PUSH1 0x0 DUP3 DUP3 MSTORE PUSH1 0x20 DUP3 ADD SWAP1 POP SWAP3 SWAP2 POP POP JUMP JUMPDEST PUSH1 0x0 DUP3 DUP3 MSTORE PUSH1 0x20 DUP3 ADD SWAP1 POP SWAP3 SWAP2 POP POP JUMP JUMPDEST PUSH1 0x0 DUP2 SWAP1 POP SWAP3 SWAP2 POP POP JUMP JUMPDEST PUSH1 0x0 PUSH2 0x12D2 DUP3 PUSH2 0x12E5 JUMP JUMPDEST SWAP1 POP SWAP2 SWAP1 POP JUMP JUMPDEST PUSH1 0x0 DUP2 ISZERO ISZERO SWAP1 POP SWAP2 SWAP1 POP JUMP JUMPDEST PUSH1 0x0 PUSH20 0xFFFFFFFFFFFFFFFFFFFFFFFFFFFFFFFFFFFFFFFF DUP3 AND SWAP1 POP SWAP2 SWAP1 POP JUMP JUMPDEST PUSH1 0x0 DUP2 SWAP1 POP SWAP2 SWAP1 POP JUMP JUMPDEST DUP3 DUP2 DUP4 CALLDATACOPY PUSH1 0x0 DUP4 DUP4 ADD MSTORE POP POP POP JUMP JUMPDEST PUSH1 0x0 JUMPDEST DUP4 DUP2 LT ISZERO PUSH2 0x133C JUMPI DUP1 DUP3 ADD MLOAD DUP2 DUP5 ADD MSTORE PUSH1 0x20 DUP2 ADD SWAP1 POP PUSH2 0x1321 JUMP JUMPDEST DUP4 DUP2 GT ISZERO PUSH2 0x134B JUMPI PUSH1 0x0 DUP5 DUP5 ADD MSTORE JUMPDEST POP POP POP POP JUMP JUMPDEST PUSH1 0x0 PUSH1 0x2 DUP3 DIV SWAP1 POP PUSH1 0x1 DUP3 AND DUP1 PUSH2 0x1369 JUMPI PUSH1 0x7F DUP3 AND SWAP2 POP JUMPDEST PUSH1 0x20 DUP3 LT DUP2 EQ ISZERO PUSH2 0x137D JUMPI PUSH2 0x137C PUSH2 0x142C JUMP JUMPDEST JUMPDEST POP SWAP2 SWAP1 POP JUMP JUMPDEST PUSH2 0x138C DUP3 PUSH2 0x14CD JUMP JUMPDEST DUP2 ADD DUP2 DUP2 LT PUSH8 0xFFFFFFFFFFFFFFFF DUP3 GT OR ISZERO PUSH2 0x13AB JUMPI PUSH2 0x13AA PUSH2 0x148A JUMP JUMPDEST JUMPDEST DUP1 PUSH1 0x40 MSTORE POP POP POP JUMP JUMPDEST PUSH1 0x0 PUSH2 0x13BF DUP3 PUSH2 0x1305 JUMP JUMPDEST SWAP2 POP PUSH32 0xFFFFFFFFFFFFFFFFFFFFFFFFFFFFFFFFFFFFFFFFFFFFFFFFFFFFFFFFFFFFFFFF DUP3 EQ ISZERO PUSH2 0x13F2 JUMPI PUSH2 0x13F1 PUSH2 0x13FD JUMP JUMPDEST JUMPDEST PUSH1 0x1 DUP3 ADD SWAP1 POP SWAP2 SWAP1 POP JUMP JUMPDEST PUSH32 0x4E487B7100000000000000000000000000000000000000000000000000000000 PUSH1 0x0 MSTORE PUSH1 0x11 PUSH1 0x4 MSTORE PUSH1 0x24 PUSH1 0x0 REVERT JUMPDEST PUSH32 0x4E487B7100000000000000000000000000000000000000000000000000000000 PUSH1 0x0 MSTORE PUSH1 0x22 PUSH1 0x4 MSTORE PUSH1 0x24 PUSH1 0x0 REVERT JUMPDEST PUSH32 0x4E487B7100000000000000000000000000000000000000000000000000000000 PUSH1 0x0 MSTORE PUSH1 0x32 PUSH1 0x4 MSTORE PUSH1 0x24 PUSH1 0x0 REVERT JUMPDEST PUSH32 0x4E487B7100000000000000000000000000000000000000000000000000000000 PUSH1 0x0 MSTORE PUSH1 0x41 PUSH1 0x4 MSTORE PUSH1 0x24 PUSH1 0x0 REVERT JUMPDEST PUSH1 0x0 DUP1 REVERT JUMPDEST PUSH1 0x0 DUP1 REVERT JUMPDEST PUSH1 0x0 DUP1 REVERT JUMPDEST PUSH1 0x0 DUP1 REVERT JUMPDEST PUSH1 0x0 PUSH1 0x1F NOT PUSH1 0x1F DUP4 ADD AND SWAP1 POP SWAP2 SWAP1 POP JUMP JUMPDEST PUSH2 0x14E7 DUP2 PUSH2 0x12D9 JUMP JUMPDEST DUP2 EQ PUSH2 0x14F2 JUMPI PUSH1 0x0 DUP1 REVERT JUMPDEST POP JUMP JUMPDEST PUSH2 0x14FE DUP2 PUSH2 0x1305 JUMP JUMPDEST DUP2 EQ PUSH2 0x1509 JUMPI PUSH1 0x0 DUP1 REVERT JUMPDEST POP JUMP INVALID LOG2 PUSH5 0x6970667358 0x22 SLT KECCAK256 RETURNDATACOPY DUP11 0x1F 0xEF PUSH5 0xE7ADED0D7D 0x4B 0xE9 CALLDATASIZE 0xB8 0xB8 SELFBALANCE CODECOPY CALLER SHL PUSH15 0x4C7A46F5B662B53DEBF3343164736F PUSH13 0x63430008070033000000000000 "
				},
				"gasEstimates": {
					"creation": {
						"codeDepositCost": "1088400",
						"executionCost": "30414",
						"totalCost": "1118814"
					},
					"external": {
						"addDrug(string)": "infinite",
						"changeDrugStatus(uint256,bool)": "27175",
						"drugs(uint256)": "infinite",
						"drugsCount()": "2496",
						"get(string)": "infinite",
						"getDrug()": "infinite",
						"getDrugs()": "infinite",
						"newdrugs(string)": "infinite"
					}
				},
				"methodIdentifiers": {
					"addDrug(string)": "223883de",
					"changeDrugStatus(uint256,bool)": "e259effa",
					"drugs(uint256)": "fca5e61e",
					"drugsCount()": "92812e6f",
					"get(string)": "693ec85e",
					"getDrug()": "f2a50281",
					"getDrugs()": "5fb07a62",
					"newdrugs(string)": "b0d548df"
				}
			},
			"storageLayout": {
				"storage": [
					{
						"astId": 11,
						"contract": "contracts/Drugs.sol:Drugs",
						"label": "owner",
						"offset": 0,
						"slot": "0",
						"type": "t_address"
					},
					{
						"astId": 27,
						"contract": "contracts/Drugs.sol:Drugs",
						"label": "drugs",
						"offset": 0,
						"slot": "1",
						"type": "t_mapping(t_uint256,t_struct(Drug)9_storage)"
					},
					{
						"astId": 32,
						"contract": "contracts/Drugs.sol:Drugs",
						"label": "newdrugs",
						"offset": 0,
						"slot": "2",
						"type": "t_mapping(t_string_memory_ptr,t_struct(Drug)9_storage)"
					},
					{
						"astId": 34,
						"contract": "contracts/Drugs.sol:Drugs",
						"label": "drugsCount",
						"offset": 0,
						"slot": "3",
						"type": "t_uint256"
					}
				],
				"types": {
					"t_address": {
						"encoding": "inplace",
						"label": "address",
						"numberOfBytes": "20"
					},
					"t_bool": {
						"encoding": "inplace",
						"label": "bool",
						"numberOfBytes": "1"
					},
					"t_mapping(t_string_memory_ptr,t_struct(Drug)9_storage)": {
						"encoding": "mapping",
						"key": "t_string_memory_ptr",
						"label": "mapping(string => struct Drugs.Drug)",
						"numberOfBytes": "32",
						"value": "t_struct(Drug)9_storage"
					},
					"t_mapping(t_uint256,t_struct(Drug)9_storage)": {
						"encoding": "mapping",
						"key": "t_uint256",
						"label": "mapping(uint256 => struct Drugs.Drug)",
						"numberOfBytes": "32",
						"value": "t_struct(Drug)9_storage"
					},
					"t_string_memory_ptr": {
						"encoding": "bytes",
						"label": "string",
						"numberOfBytes": "32"
					},
					"t_string_storage": {
						"encoding": "bytes",
						"label": "string",
						"numberOfBytes": "32"
					},
					"t_struct(Drug)9_storage": {
						"encoding": "inplace",
						"label": "struct Drugs.Drug",
						"members": [
							{
								"astId": 4,
								"contract": "contracts/Drugs.sol:Drugs",
								"label": "RegNo",
								"offset": 0,
								"slot": "0",
								"type": "t_string_storage"
							},
							{
								"astId": 6,
								"contract": "contracts/Drugs.sol:Drugs",
								"label": "Manufacturer",
								"offset": 0,
								"slot": "1",
								"type": "t_address"
							},
							{
								"astId": 8,
								"contract": "contracts/Drugs.sol:Drugs",
								"label": "IsActive",
								"offset": 20,
								"slot": "1",
								"type": "t_bool"
							}
						],
						"numberOfBytes": "64"
					},
					"t_uint256": {
						"encoding": "inplace",
						"label": "uint256",
						"numberOfBytes": "32"
					}
				}
			},
			"userdoc": {
				"kind": "user",
				"methods": {},
				"version": 1
			}
		}
	}
}