{
	"contracts/Accounts.sol": {
		"SavingsAccount": {
			"abi": [
				{
					"inputs": [],
					"stateMutability": "nonpayable",
					"type": "constructor"
				},
				{
					"anonymous": false,
					"inputs": [
						{
							"indexed": true,
							"internalType": "uint256",
							"name": "_memberId",
							"type": "uint256"
						}
					],
					"name": "savingsEvent",
					"type": "event"
				},
				{
					"inputs": [
						{
							"internalType": "string",
							"name": "_name",
							"type": "string"
						},
						{
							"internalType": "uint256",
							"name": "_balance",
							"type": "uint256"
						}
					],
					"name": "addMember",
					"outputs": [],
					"stateMutability": "nonpayable",
					"type": "function"
				},
				{
					"inputs": [
						{
							"internalType": "uint256",
							"name": "_memberId",
							"type": "uint256"
						}
					],
					"name": "get",
					"outputs": [
						{
							"components": [
								{
									"internalType": "uint256",
									"name": "id",
									"type": "uint256"
								},
								{
									"internalType": "string",
									"name": "name",
									"type": "string"
								},
								{
									"internalType": "uint256",
									"name": "balance",
									"type": "uint256"
								}
							],
							"internalType": "struct SavingsAccount.Member",
							"name": "",
							"type": "tuple"
						}
					],
					"stateMutability": "view",
					"type": "function"
				},
				{
					"inputs": [],
					"name": "getMember",
					"outputs": [
						{
							"internalType": "uint256[]",
							"name": "",
							"type": "uint256[]"
						},
						{
							"internalType": "string[]",
							"name": "",
							"type": "string[]"
						},
						{
							"internalType": "uint256[]",
							"name": "",
							"type": "uint256[]"
						}
					],
					"stateMutability": "view",
					"type": "function"
				},
				{
					"inputs": [],
					"name": "getMembers",
					"outputs": [
						{
							"components": [
								{
									"internalType": "uint256",
									"name": "id",
									"type": "uint256"
								},
								{
									"internalType": "string",
									"name": "name",
									"type": "string"
								},
								{
									"internalType": "uint256",
									"name": "balance",
									"type": "uint256"
								}
							],
							"internalType": "struct SavingsAccount.Member[]",
							"name": "",
							"type": "tuple[]"
						}
					],
					"stateMutability": "view",
					"type": "function"
				},
				{
					"inputs": [],
					"name": "memberCount",
					"outputs": [
						{
							"internalType": "uint256",
							"name": "",
							"type": "uint256"
						}
					],
					"stateMutability": "view",
					"type": "function"
				},
				{
					"inputs": [
						{
							"internalType": "uint256",
							"name": "",
							"type": "uint256"
						}
					],
					"name": "members",
					"outputs": [
						{
							"internalType": "uint256",
							"name": "id",
							"type": "uint256"
						},
						{
							"internalType": "string",
							"name": "name",
							"type": "string"
						},
						{
							"internalType": "uint256",
							"name": "balance",
							"type": "uint256"
						}
					],
					"stateMutability": "view",
					"type": "function"
				}
			],
			"devdoc": {
				"kind": "dev",
				"methods": {},
				"version": 1
			},
			"evm": {
				"assembly": "    /* \"contracts/Accounts.sol\":97:1582  contract SavingsAccount {\r... */\n  mstore(0x40, 0x80)\n    /* \"contracts/Accounts.sol\":321:431  constructor() public {\r... */\n  callvalue\n  dup1\n  iszero\n  tag_1\n  jumpi\n  0x00\n  dup1\n  revert\ntag_1:\n  pop\n    /* \"contracts/Accounts.sol\":363:364  0 */\n  0x00\n    /* \"contracts/Accounts.sol\":349:360  memberCount */\n  0x01\n    /* \"contracts/Accounts.sol\":349:364  memberCount = 0 */\n  dup2\n  swap1\n  sstore\n  pop\n    /* \"contracts/Accounts.sol\":371:394  addMember(\"chris\",9000) */\n  tag_4\n  mload(0x40)\n  dup1\n  0x40\n  add\n  0x40\n  mstore\n  dup1\n  0x05\n  dup2\n  mstore\n  0x20\n  add\n  0x6368726973000000000000000000000000000000000000000000000000000000\n  dup2\n  mstore\n  pop\n    /* \"contracts/Accounts.sol\":389:393  9000 */\n  0x2328\n    /* \"contracts/Accounts.sol\":371:380  addMember */\n  shl(0x20, tag_5)\n    /* \"contracts/Accounts.sol\":371:394  addMember(\"chris\",9000) */\n  0x20\n  shr\n  jump\t// in\ntag_4:\n    /* \"contracts/Accounts.sol\":401:425  addMember(\"yassin\",6000) */\n  tag_6\n  mload(0x40)\n  dup1\n  0x40\n  add\n  0x40\n  mstore\n  dup1\n  0x06\n  dup2\n  mstore\n  0x20\n  add\n  0x79617373696e0000000000000000000000000000000000000000000000000000\n  dup2\n  mstore\n  pop\n    /* \"contracts/Accounts.sol\":420:424  6000 */\n  0x1770\n    /* \"contracts/Accounts.sol\":401:410  addMember */\n  shl(0x20, tag_5)\n    /* \"contracts/Accounts.sol\":401:425  addMember(\"yassin\",6000) */\n  0x20\n  shr\n  jump\t// in\ntag_6:\n    /* \"contracts/Accounts.sol\":97:1582  contract SavingsAccount {\r... */\n  jump(tag_7)\n    /* \"contracts/Accounts.sol\":435:586  function addMember(string memory _name,uint _balance) public {\r... */\ntag_5:\n    /* \"contracts/Accounts.sol\":526:560  Member(memberCount,_name,_balance) */\n  mload(0x40)\n  dup1\n  0x60\n  add\n  0x40\n  mstore\n  dup1\n    /* \"contracts/Accounts.sol\":533:544  memberCount */\n  sload(0x01)\n    /* \"contracts/Accounts.sol\":526:560  Member(memberCount,_name,_balance) */\n  dup2\n  mstore\n  0x20\n  add\n    /* \"contracts/Accounts.sol\":545:550  _name */\n  dup4\n    /* \"contracts/Accounts.sol\":526:560  Member(memberCount,_name,_balance) */\n  dup2\n  mstore\n  0x20\n  add\n    /* \"contracts/Accounts.sol\":551:559  _balance */\n  dup3\n    /* \"contracts/Accounts.sol\":526:560  Member(memberCount,_name,_balance) */\n  dup2\n  mstore\n  pop\n    /* \"contracts/Accounts.sol\":503:510  members */\n  0x00\n    /* \"contracts/Accounts.sol\":503:523  members[memberCount] */\n  dup1\n    /* \"contracts/Accounts.sol\":511:522  memberCount */\n  sload(0x01)\n    /* \"contracts/Accounts.sol\":503:523  members[memberCount] */\n  dup2\n  mstore\n  0x20\n  add\n  swap1\n  dup2\n  mstore\n  0x20\n  add\n  0x00\n  keccak256\n    /* \"contracts/Accounts.sol\":503:560  members[memberCount] = Member(memberCount,_name,_balance) */\n  0x00\n  dup3\n  add\n  mload\n  dup2\n  0x00\n  add\n  sstore\n  0x20\n  dup3\n  add\n  mload\n  dup2\n  0x01\n  add\n  swap1\n  dup1\n  mload\n  swap1\n  0x20\n  add\n  swap1\n  tag_9\n  swap3\n  swap2\n  swap1\n  tag_10\n  jump\t// in\ntag_9:\n  pop\n  0x40\n  dup3\n  add\n  mload\n  dup2\n  0x02\n  add\n  sstore\n  swap1\n  pop\n  pop\n    /* \"contracts/Accounts.sol\":567:578  memberCount */\n  0x01\n  0x00\n    /* \"contracts/Accounts.sol\":567:580  memberCount++ */\n  dup2\n  sload\n  dup1\n  swap3\n  swap2\n  swap1\n  tag_11\n  swap1\n  tag_12\n  jump\t// in\ntag_11:\n  swap2\n  swap1\n  pop\n  sstore\n  pop\n    /* \"contracts/Accounts.sol\":435:586  function addMember(string memory _name,uint _balance) public {\r... */\n  pop\n  pop\n  jump\t// out\n    /* \"contracts/Accounts.sol\":97:1582  contract SavingsAccount {\r... */\ntag_10:\n  dup3\n  dup1\n  sload\n  tag_13\n  swap1\n  tag_14\n  jump\t// in\ntag_13:\n  swap1\n  0x00\n  mstore\n  keccak256(0x00, 0x20)\n  swap1\n  0x1f\n  add\n  0x20\n  swap1\n  div\n  dup2\n  add\n  swap3\n  dup3\n  tag_16\n  jumpi\n  0x00\n  dup6\n  sstore\n  jump(tag_15)\ntag_16:\n  dup3\n  0x1f\n  lt\n  tag_17\n  jumpi\n  dup1\n  mload\n  not(0xff)\n  and\n  dup4\n  dup1\n  add\n  or\n  dup6\n  sstore\n  jump(tag_15)\ntag_17:\n  dup3\n  dup1\n  add\n  0x01\n  add\n  dup6\n  sstore\n  dup3\n  iszero\n  tag_15\n  jumpi\n  swap2\n  dup3\n  add\ntag_18:\n  dup3\n  dup2\n  gt\n  iszero\n  tag_19\n  jumpi\n  dup3\n  mload\n  dup3\n  sstore\n  swap2\n  0x20\n  add\n  swap2\n  swap1\n  0x01\n  add\n  swap1\n  jump(tag_18)\ntag_19:\ntag_15:\n  pop\n  swap1\n  pop\n  tag_20\n  swap2\n  swap1\n  tag_21\n  jump\t// in\ntag_20:\n  pop\n  swap1\n  jump\t// out\ntag_21:\ntag_22:\n  dup1\n  dup3\n  gt\n  iszero\n  tag_23\n  jumpi\n  0x00\n  dup2\n  0x00\n  swap1\n  sstore\n  pop\n  0x01\n  add\n  jump(tag_22)\ntag_23:\n  pop\n  swap1\n  jump\t// out\n    /* \"#utility.yul\":7:84   */\ntag_25:\n    /* \"#utility.yul\":44:51   */\n  0x00\n    /* \"#utility.yul\":73:78   */\n  dup2\n    /* \"#utility.yul\":62:78   */\n  swap1\n  pop\n    /* \"#utility.yul\":7:84   */\n  swap2\n  swap1\n  pop\n  jump\t// out\n    /* \"#utility.yul\":90:410   */\ntag_14:\n    /* \"#utility.yul\":134:140   */\n  0x00\n    /* \"#utility.yul\":171:172   */\n  0x02\n    /* \"#utility.yul\":165:169   */\n  dup3\n    /* \"#utility.yul\":161:173   */\n  div\n    /* \"#utility.yul\":151:173   */\n  swap1\n  pop\n    /* \"#utility.yul\":218:219   */\n  0x01\n    /* \"#utility.yul\":212:216   */\n  dup3\n    /* \"#utility.yul\":208:220   */\n  and\n    /* \"#utility.yul\":239:257   */\n  dup1\n    /* \"#utility.yul\":229:310   */\n  tag_28\n  jumpi\n    /* \"#utility.yul\":295:299   */\n  0x7f\n    /* \"#utility.yul\":287:293   */\n  dup3\n    /* \"#utility.yul\":283:300   */\n  and\n    /* \"#utility.yul\":273:300   */\n  swap2\n  pop\n    /* \"#utility.yul\":229:310   */\ntag_28:\n    /* \"#utility.yul\":357:359   */\n  0x20\n    /* \"#utility.yul\":349:355   */\n  dup3\n    /* \"#utility.yul\":346:360   */\n  lt\n    /* \"#utility.yul\":326:344   */\n  dup2\n    /* \"#utility.yul\":323:361   */\n  eq\n    /* \"#utility.yul\":320:404   */\n  iszero\n  tag_29\n  jumpi\n    /* \"#utility.yul\":376:394   */\n  tag_30\n  tag_31\n  jump\t// in\ntag_30:\n    /* \"#utility.yul\":320:404   */\ntag_29:\n    /* \"#utility.yul\":141:410   */\n  pop\n    /* \"#utility.yul\":90:410   */\n  swap2\n  swap1\n  pop\n  jump\t// out\n    /* \"#utility.yul\":416:649   */\ntag_12:\n    /* \"#utility.yul\":455:458   */\n  0x00\n    /* \"#utility.yul\":478:502   */\n  tag_33\n    /* \"#utility.yul\":496:501   */\n  dup3\n    /* \"#utility.yul\":478:502   */\n  tag_25\n  jump\t// in\ntag_33:\n    /* \"#utility.yul\":469:502   */\n  swap2\n  pop\n    /* \"#utility.yul\":524:590   */\n  0xffffffffffffffffffffffffffffffffffffffffffffffffffffffffffffffff\n    /* \"#utility.yul\":517:522   */\n  dup3\n    /* \"#utility.yul\":514:591   */\n  eq\n    /* \"#utility.yul\":511:614   */\n  iszero\n  tag_34\n  jumpi\n    /* \"#utility.yul\":594:612   */\n  tag_35\n  tag_36\n  jump\t// in\ntag_35:\n    /* \"#utility.yul\":511:614   */\ntag_34:\n    /* \"#utility.yul\":641:642   */\n  0x01\n    /* \"#utility.yul\":634:639   */\n  dup3\n    /* \"#utility.yul\":630:643   */\n  add\n    /* \"#utility.yul\":623:643   */\n  swap1\n  pop\n    /* \"#utility.yul\":416:649   */\n  swap2\n  swap1\n  pop\n  jump\t// out\n    /* \"#utility.yul\":655:835   */\ntag_36:\n    /* \"#utility.yul\":703:780   */\n  0x4e487b7100000000000000000000000000000000000000000000000000000000\n    /* \"#utility.yul\":700:701   */\n  0x00\n    /* \"#utility.yul\":693:781   */\n  mstore\n    /* \"#utility.yul\":800:804   */\n  0x11\n    /* \"#utility.yul\":797:798   */\n  0x04\n    /* \"#utility.yul\":790:805   */\n  mstore\n    /* \"#utility.yul\":824:828   */\n  0x24\n    /* \"#utility.yul\":821:822   */\n  0x00\n    /* \"#utility.yul\":814:829   */\n  revert\n    /* \"#utility.yul\":841:1021   */\ntag_31:\n    /* \"#utility.yul\":889:966   */\n  0x4e487b7100000000000000000000000000000000000000000000000000000000\n    /* \"#utility.yul\":886:887   */\n  0x00\n    /* \"#utility.yul\":879:967   */\n  mstore\n    /* \"#utility.yul\":986:990   */\n  0x22\n    /* \"#utility.yul\":983:984   */\n  0x04\n    /* \"#utility.yul\":976:991   */\n  mstore\n    /* \"#utility.yul\":1010:1014   */\n  0x24\n    /* \"#utility.yul\":1007:1008   */\n  0x00\n    /* \"#utility.yul\":1000:1015   */\n  revert\n    /* \"contracts/Accounts.sol\":97:1582  contract SavingsAccount {\r... */\ntag_7:\n  dataSize(sub_0)\n  dup1\n  dataOffset(sub_0)\n  0x00\n  codecopy\n  0x00\n  return\nstop\n\nsub_0: assembly {\n        /* \"contracts/Accounts.sol\":97:1582  contract SavingsAccount {\r... */\n      mstore(0x40, 0x80)\n      callvalue\n      dup1\n      iszero\n      tag_1\n      jumpi\n      0x00\n      dup1\n      revert\n    tag_1:\n      pop\n      jumpi(tag_2, lt(calldatasize, 0x04))\n      shr(0xe0, calldataload(0x00))\n      dup1\n      0x0274c094\n      eq\n      tag_3\n      jumpi\n      dup1\n      0x11aee380\n      eq\n      tag_4\n      jumpi\n      dup1\n      0x16a8fc38\n      eq\n      tag_5\n      jumpi\n      dup1\n      0x5daf08ca\n      eq\n      tag_6\n      jumpi\n      dup1\n      0x9507d39a\n      eq\n      tag_7\n      jumpi\n      dup1\n      0x9eab5253\n      eq\n      tag_8\n      jumpi\n    tag_2:\n      0x00\n      dup1\n      revert\n        /* \"contracts/Accounts.sol\":762:1272  function getMember() public view returns (uint[] memory, string[] memory,uint[] memory){\r... */\n    tag_3:\n      tag_9\n      tag_10\n      jump\t// in\n    tag_9:\n      mload(0x40)\n      tag_11\n      swap4\n      swap3\n      swap2\n      swap1\n      tag_12\n      jump\t// in\n    tag_11:\n      mload(0x40)\n      dup1\n      swap2\n      sub\n      swap1\n      return\n        /* \"contracts/Accounts.sol\":291:314  uint public memberCount */\n    tag_4:\n      tag_13\n      tag_14\n      jump\t// in\n    tag_13:\n      mload(0x40)\n      tag_15\n      swap2\n      swap1\n      tag_16\n      jump\t// in\n    tag_15:\n      mload(0x40)\n      dup1\n      swap2\n      sub\n      swap1\n      return\n        /* \"contracts/Accounts.sol\":435:586  function addMember(string memory _name,uint _balance) public {\r... */\n    tag_5:\n      tag_17\n      0x04\n      dup1\n      calldatasize\n      sub\n      dup2\n      add\n      swap1\n      tag_18\n      swap2\n      swap1\n      tag_19\n      jump\t// in\n    tag_18:\n      tag_20\n      jump\t// in\n    tag_17:\n      stop\n        /* \"contracts/Accounts.sol\":200:239  mapping (uint => Member) public members */\n    tag_6:\n      tag_21\n      0x04\n      dup1\n      calldatasize\n      sub\n      dup2\n      add\n      swap1\n      tag_22\n      swap2\n      swap1\n      tag_23\n      jump\t// in\n    tag_22:\n      tag_24\n      jump\t// in\n    tag_21:\n      mload(0x40)\n      tag_25\n      swap4\n      swap3\n      swap2\n      swap1\n      tag_26\n      jump\t// in\n    tag_25:\n      mload(0x40)\n      dup1\n      swap2\n      sub\n      swap1\n      return\n        /* \"contracts/Accounts.sol\":619:721  function get(uint _memberId) public view returns(Member memory) {\r... */\n    tag_7:\n      tag_27\n      0x04\n      dup1\n      calldatasize\n      sub\n      dup2\n      add\n      swap1\n      tag_28\n      swap2\n      swap1\n      tag_23\n      jump\t// in\n    tag_28:\n      tag_29\n      jump\t// in\n    tag_27:\n      mload(0x40)\n      tag_30\n      swap2\n      swap1\n      tag_31\n      jump\t// in\n    tag_30:\n      mload(0x40)\n      dup1\n      swap2\n      sub\n      swap1\n      return\n        /* \"contracts/Accounts.sol\":1307:1579  function getMembers() public view returns (Member[] memory){\r... */\n    tag_8:\n      tag_32\n      tag_33\n      jump\t// in\n    tag_32:\n      mload(0x40)\n      tag_34\n      swap2\n      swap1\n      tag_35\n      jump\t// in\n    tag_34:\n      mload(0x40)\n      dup1\n      swap2\n      sub\n      swap1\n      return\n        /* \"contracts/Accounts.sol\":762:1272  function getMember() public view returns (uint[] memory, string[] memory,uint[] memory){\r... */\n    tag_10:\n        /* \"contracts/Accounts.sol\":804:817  uint[] memory */\n      0x60\n        /* \"contracts/Accounts.sol\":819:834  string[] memory */\n      dup1\n        /* \"contracts/Accounts.sol\":835:848  uint[] memory */\n      0x60\n        /* \"contracts/Accounts.sol\":858:877  uint[]    memory id */\n      0x00\n        /* \"contracts/Accounts.sol\":891:902  memberCount */\n      sload(0x01)\n        /* \"contracts/Accounts.sol\":880:903  new uint[](memberCount) */\n      0xffffffffffffffff\n      dup2\n      gt\n      iszero\n      tag_37\n      jumpi\n      tag_38\n      tag_39\n      jump\t// in\n    tag_38:\n    tag_37:\n      mload(0x40)\n      swap1\n      dup1\n      dup3\n      mstore\n      dup1\n      0x20\n      mul\n      0x20\n      add\n      dup3\n      add\n      0x40\n      mstore\n      dup1\n      iszero\n      tag_40\n      jumpi\n      dup2\n      0x20\n      add\n      0x20\n      dup3\n      mul\n      dup1\n      calldatasize\n      dup4\n      calldatacopy\n      dup1\n      dup3\n      add\n      swap2\n      pop\n      pop\n      swap1\n      pop\n    tag_40:\n      pop\n        /* \"contracts/Accounts.sol\":858:903  uint[]    memory id = new uint[](memberCount) */\n      swap1\n      pop\n        /* \"contracts/Accounts.sol\":912:933  string[]  memory name */\n      0x00\n        /* \"contracts/Accounts.sol\":949:960  memberCount */\n      sload(0x01)\n        /* \"contracts/Accounts.sol\":936:961  new string[](memberCount) */\n      0xffffffffffffffff\n      dup2\n      gt\n      iszero\n      tag_41\n      jumpi\n      tag_42\n      tag_39\n      jump\t// in\n    tag_42:\n    tag_41:\n      mload(0x40)\n      swap1\n      dup1\n      dup3\n      mstore\n      dup1\n      0x20\n      mul\n      0x20\n      add\n      dup3\n      add\n      0x40\n      mstore\n      dup1\n      iszero\n      tag_43\n      jumpi\n      dup2\n      0x20\n      add\n    tag_44:\n      0x60\n      dup2\n      mstore\n      0x20\n      add\n      swap1\n      0x01\n      swap1\n      sub\n      swap1\n      dup2\n      tag_44\n      jumpi\n      swap1\n      pop\n    tag_43:\n      pop\n        /* \"contracts/Accounts.sol\":912:961  string[]  memory name = new string[](memberCount) */\n      swap1\n      pop\n        /* \"contracts/Accounts.sol\":970:994  uint[]    memory balance */\n      0x00\n        /* \"contracts/Accounts.sol\":1008:1019  memberCount */\n      sload(0x01)\n        /* \"contracts/Accounts.sol\":997:1020  new uint[](memberCount) */\n      0xffffffffffffffff\n      dup2\n      gt\n      iszero\n      tag_45\n      jumpi\n      tag_46\n      tag_39\n      jump\t// in\n    tag_46:\n    tag_45:\n      mload(0x40)\n      swap1\n      dup1\n      dup3\n      mstore\n      dup1\n      0x20\n      mul\n      0x20\n      add\n      dup3\n      add\n      0x40\n      mstore\n      dup1\n      iszero\n      tag_47\n      jumpi\n      dup2\n      0x20\n      add\n      0x20\n      dup3\n      mul\n      dup1\n      calldatasize\n      dup4\n      calldatacopy\n      dup1\n      dup3\n      add\n      swap2\n      pop\n      pop\n      swap1\n      pop\n    tag_47:\n      pop\n        /* \"contracts/Accounts.sol\":970:1020  uint[]    memory balance = new uint[](memberCount) */\n      swap1\n      pop\n        /* \"contracts/Accounts.sol\":1034:1040  uint i */\n      0x00\n        /* \"contracts/Accounts.sol\":1029:1229  for (uint i = 0; i < memberCount; i++) {\r... */\n    tag_48:\n        /* \"contracts/Accounts.sol\":1050:1061  memberCount */\n      sload(0x01)\n        /* \"contracts/Accounts.sol\":1046:1047  i */\n      dup2\n        /* \"contracts/Accounts.sol\":1046:1061  i < memberCount */\n      lt\n        /* \"contracts/Accounts.sol\":1029:1229  for (uint i = 0; i < memberCount; i++) {\r... */\n      iszero\n      tag_49\n      jumpi\n        /* \"contracts/Accounts.sol\":1081:1102  Member storage member */\n      0x00\n        /* \"contracts/Accounts.sol\":1105:1112  members */\n      dup1\n        /* \"contracts/Accounts.sol\":1105:1115  members[i] */\n      0x00\n        /* \"contracts/Accounts.sol\":1113:1114  i */\n      dup4\n        /* \"contracts/Accounts.sol\":1105:1115  members[i] */\n      dup2\n      mstore\n      0x20\n      add\n      swap1\n      dup2\n      mstore\n      0x20\n      add\n      0x00\n      keccak256\n        /* \"contracts/Accounts.sol\":1081:1115  Member storage member = members[i] */\n      swap1\n      pop\n        /* \"contracts/Accounts.sol\":1136:1142  member */\n      dup1\n        /* \"contracts/Accounts.sol\":1136:1145  member.id */\n      0x00\n      add\n      sload\n        /* \"contracts/Accounts.sol\":1128:1130  id */\n      dup6\n        /* \"contracts/Accounts.sol\":1131:1132  i */\n      dup4\n        /* \"contracts/Accounts.sol\":1128:1133  id[i] */\n      dup2\n      mload\n      dup2\n      lt\n      tag_51\n      jumpi\n      tag_52\n      tag_53\n      jump\t// in\n    tag_52:\n    tag_51:\n      0x20\n      mul\n      0x20\n      add\n      add\n        /* \"contracts/Accounts.sol\":1128:1145  id[i] = member.id */\n      dup2\n      dup2\n      mstore\n      pop\n      pop\n        /* \"contracts/Accounts.sol\":1168:1174  member */\n      dup1\n        /* \"contracts/Accounts.sol\":1168:1179  member.name */\n      0x01\n      add\n        /* \"contracts/Accounts.sol\":1158:1179  name[i] = member.name */\n      dup1\n      sload\n      tag_54\n      swap1\n      tag_55\n      jump\t// in\n    tag_54:\n      dup1\n      0x1f\n      add\n      0x20\n      dup1\n      swap2\n      div\n      mul\n      0x20\n      add\n      mload(0x40)\n      swap1\n      dup2\n      add\n      0x40\n      mstore\n      dup1\n      swap3\n      swap2\n      swap1\n      dup2\n      dup2\n      mstore\n      0x20\n      add\n      dup3\n      dup1\n      sload\n      tag_56\n      swap1\n      tag_55\n      jump\t// in\n    tag_56:\n      dup1\n      iszero\n      tag_57\n      jumpi\n      dup1\n      0x1f\n      lt\n      tag_58\n      jumpi\n      0x0100\n      dup1\n      dup4\n      sload\n      div\n      mul\n      dup4\n      mstore\n      swap2\n      0x20\n      add\n      swap2\n      jump(tag_57)\n    tag_58:\n      dup3\n      add\n      swap2\n      swap1\n      0x00\n      mstore\n      keccak256(0x00, 0x20)\n      swap1\n    tag_59:\n      dup2\n      sload\n      dup2\n      mstore\n      swap1\n      0x01\n      add\n      swap1\n      0x20\n      add\n      dup1\n      dup4\n      gt\n      tag_59\n      jumpi\n      dup3\n      swap1\n      sub\n      0x1f\n      and\n      dup3\n      add\n      swap2\n    tag_57:\n      pop\n      pop\n      pop\n      pop\n      pop\n        /* \"contracts/Accounts.sol\":1158:1162  name */\n      dup5\n        /* \"contracts/Accounts.sol\":1163:1164  i */\n      dup4\n        /* \"contracts/Accounts.sol\":1158:1165  name[i] */\n      dup2\n      mload\n      dup2\n      lt\n      tag_60\n      jumpi\n      tag_61\n      tag_53\n      jump\t// in\n    tag_61:\n    tag_60:\n      0x20\n      mul\n      0x20\n      add\n      add\n        /* \"contracts/Accounts.sol\":1158:1179  name[i] = member.name */\n      dup2\n      swap1\n      mstore\n      pop\n        /* \"contracts/Accounts.sol\":1205:1211  member */\n      dup1\n        /* \"contracts/Accounts.sol\":1205:1219  member.balance */\n      0x02\n      add\n      sload\n        /* \"contracts/Accounts.sol\":1192:1199  balance */\n      dup4\n        /* \"contracts/Accounts.sol\":1200:1201  i */\n      dup4\n        /* \"contracts/Accounts.sol\":1192:1202  balance[i] */\n      dup2\n      mload\n      dup2\n      lt\n      tag_62\n      jumpi\n      tag_63\n      tag_53\n      jump\t// in\n    tag_63:\n    tag_62:\n      0x20\n      mul\n      0x20\n      add\n      add\n        /* \"contracts/Accounts.sol\":1192:1219  balance[i] = member.balance */\n      dup2\n      dup2\n      mstore\n      pop\n      pop\n        /* \"contracts/Accounts.sol\":1068:1229  {\r... */\n      pop\n        /* \"contracts/Accounts.sol\":1063:1066  i++ */\n      dup1\n      dup1\n      tag_64\n      swap1\n      tag_65\n      jump\t// in\n    tag_64:\n      swap2\n      pop\n      pop\n        /* \"contracts/Accounts.sol\":1029:1229  for (uint i = 0; i < memberCount; i++) {\r... */\n      jump(tag_48)\n    tag_49:\n      pop\n        /* \"contracts/Accounts.sol\":1247:1249  id */\n      dup3\n        /* \"contracts/Accounts.sol\":1251:1255  name */\n      dup3\n        /* \"contracts/Accounts.sol\":1256:1263  balance */\n      dup3\n        /* \"contracts/Accounts.sol\":1239:1264  return (id, name,balance) */\n      swap6\n      pop\n      swap6\n      pop\n      swap6\n      pop\n      pop\n      pop\n      pop\n        /* \"contracts/Accounts.sol\":762:1272  function getMember() public view returns (uint[] memory, string[] memory,uint[] memory){\r... */\n      swap1\n      swap2\n      swap3\n      jump\t// out\n        /* \"contracts/Accounts.sol\":291:314  uint public memberCount */\n    tag_14:\n      sload(0x01)\n      dup2\n      jump\t// out\n        /* \"contracts/Accounts.sol\":435:586  function addMember(string memory _name,uint _balance) public {\r... */\n    tag_20:\n        /* \"contracts/Accounts.sol\":526:560  Member(memberCount,_name,_balance) */\n      mload(0x40)\n      dup1\n      0x60\n      add\n      0x40\n      mstore\n      dup1\n        /* \"contracts/Accounts.sol\":533:544  memberCount */\n      sload(0x01)\n        /* \"contracts/Accounts.sol\":526:560  Member(memberCount,_name,_balance) */\n      dup2\n      mstore\n      0x20\n      add\n        /* \"contracts/Accounts.sol\":545:550  _name */\n      dup4\n        /* \"contracts/Accounts.sol\":526:560  Member(memberCount,_name,_balance) */\n      dup2\n      mstore\n      0x20\n      add\n        /* \"contracts/Accounts.sol\":551:559  _balance */\n      dup3\n        /* \"contracts/Accounts.sol\":526:560  Member(memberCount,_name,_balance) */\n      dup2\n      mstore\n      pop\n        /* \"contracts/Accounts.sol\":503:510  members */\n      0x00\n        /* \"contracts/Accounts.sol\":503:523  members[memberCount] */\n      dup1\n        /* \"contracts/Accounts.sol\":511:522  memberCount */\n      sload(0x01)\n        /* \"contracts/Accounts.sol\":503:523  members[memberCount] */\n      dup2\n      mstore\n      0x20\n      add\n      swap1\n      dup2\n      mstore\n      0x20\n      add\n      0x00\n      keccak256\n        /* \"contracts/Accounts.sol\":503:560  members[memberCount] = Member(memberCount,_name,_balance) */\n      0x00\n      dup3\n      add\n      mload\n      dup2\n      0x00\n      add\n      sstore\n      0x20\n      dup3\n      add\n      mload\n      dup2\n      0x01\n      add\n      swap1\n      dup1\n      mload\n      swap1\n      0x20\n      add\n      swap1\n      tag_67\n      swap3\n      swap2\n      swap1\n      tag_68\n      jump\t// in\n    tag_67:\n      pop\n      0x40\n      dup3\n      add\n      mload\n      dup2\n      0x02\n      add\n      sstore\n      swap1\n      pop\n      pop\n        /* \"contracts/Accounts.sol\":567:578  memberCount */\n      0x01\n      0x00\n        /* \"contracts/Accounts.sol\":567:580  memberCount++ */\n      dup2\n      sload\n      dup1\n      swap3\n      swap2\n      swap1\n      tag_69\n      swap1\n      tag_65\n      jump\t// in\n    tag_69:\n      swap2\n      swap1\n      pop\n      sstore\n      pop\n        /* \"contracts/Accounts.sol\":435:586  function addMember(string memory _name,uint _balance) public {\r... */\n      pop\n      pop\n      jump\t// out\n        /* \"contracts/Accounts.sol\":200:239  mapping (uint => Member) public members */\n    tag_24:\n      mstore(0x20, 0x00)\n      dup1\n      0x00\n      mstore\n      keccak256(0x00, 0x40)\n      0x00\n      swap2\n      pop\n      swap1\n      pop\n      dup1\n      0x00\n      add\n      sload\n      swap1\n      dup1\n      0x01\n      add\n      dup1\n      sload\n      tag_70\n      swap1\n      tag_55\n      jump\t// in\n    tag_70:\n      dup1\n      0x1f\n      add\n      0x20\n      dup1\n      swap2\n      div\n      mul\n      0x20\n      add\n      mload(0x40)\n      swap1\n      dup2\n      add\n      0x40\n      mstore\n      dup1\n      swap3\n      swap2\n      swap1\n      dup2\n      dup2\n      mstore\n      0x20\n      add\n      dup3\n      dup1\n      sload\n      tag_71\n      swap1\n      tag_55\n      jump\t// in\n    tag_71:\n      dup1\n      iszero\n      tag_72\n      jumpi\n      dup1\n      0x1f\n      lt\n      tag_73\n      jumpi\n      0x0100\n      dup1\n      dup4\n      sload\n      div\n      mul\n      dup4\n      mstore\n      swap2\n      0x20\n      add\n      swap2\n      jump(tag_72)\n    tag_73:\n      dup3\n      add\n      swap2\n      swap1\n      0x00\n      mstore\n      keccak256(0x00, 0x20)\n      swap1\n    tag_74:\n      dup2\n      sload\n      dup2\n      mstore\n      swap1\n      0x01\n      add\n      swap1\n      0x20\n      add\n      dup1\n      dup4\n      gt\n      tag_74\n      jumpi\n      dup3\n      swap1\n      sub\n      0x1f\n      and\n      dup3\n      add\n      swap2\n    tag_72:\n      pop\n      pop\n      pop\n      pop\n      pop\n      swap1\n      dup1\n      0x02\n      add\n      sload\n      swap1\n      pop\n      dup4\n      jump\t// out\n        /* \"contracts/Accounts.sol\":619:721  function get(uint _memberId) public view returns(Member memory) {\r... */\n    tag_29:\n        /* \"contracts/Accounts.sol\":668:681  Member memory */\n      tag_75\n      tag_76\n      jump\t// in\n    tag_75:\n        /* \"contracts/Accounts.sol\":697:704  members */\n      0x00\n        /* \"contracts/Accounts.sol\":697:715  members[_memberId] */\n      dup1\n        /* \"contracts/Accounts.sol\":705:714  _memberId */\n      dup4\n        /* \"contracts/Accounts.sol\":697:715  members[_memberId] */\n      dup2\n      mstore\n      0x20\n      add\n      swap1\n      dup2\n      mstore\n      0x20\n      add\n      0x00\n      keccak256\n        /* \"contracts/Accounts.sol\":690:715  return members[_memberId] */\n      mload(0x40)\n      dup1\n      0x60\n      add\n      0x40\n      mstore\n      swap1\n      dup2\n      0x00\n      dup3\n      add\n      sload\n      dup2\n      mstore\n      0x20\n      add\n      0x01\n      dup3\n      add\n      dup1\n      sload\n      tag_78\n      swap1\n      tag_55\n      jump\t// in\n    tag_78:\n      dup1\n      0x1f\n      add\n      0x20\n      dup1\n      swap2\n      div\n      mul\n      0x20\n      add\n      mload(0x40)\n      swap1\n      dup2\n      add\n      0x40\n      mstore\n      dup1\n      swap3\n      swap2\n      swap1\n      dup2\n      dup2\n      mstore\n      0x20\n      add\n      dup3\n      dup1\n      sload\n      tag_79\n      swap1\n      tag_55\n      jump\t// in\n    tag_79:\n      dup1\n      iszero\n      tag_80\n      jumpi\n      dup1\n      0x1f\n      lt\n      tag_81\n      jumpi\n      0x0100\n      dup1\n      dup4\n      sload\n      div\n      mul\n      dup4\n      mstore\n      swap2\n      0x20\n      add\n      swap2\n      jump(tag_80)\n    tag_81:\n      dup3\n      add\n      swap2\n      swap1\n      0x00\n      mstore\n      keccak256(0x00, 0x20)\n      swap1\n    tag_82:\n      dup2\n      sload\n      dup2\n      mstore\n      swap1\n      0x01\n      add\n      swap1\n      0x20\n      add\n      dup1\n      dup4\n      gt\n      tag_82\n      jumpi\n      dup3\n      swap1\n      sub\n      0x1f\n      and\n      dup3\n      add\n      swap2\n    tag_80:\n      pop\n      pop\n      pop\n      pop\n      pop\n      dup2\n      mstore\n      0x20\n      add\n      0x02\n      dup3\n      add\n      sload\n      dup2\n      mstore\n      pop\n      pop\n      swap1\n      pop\n        /* \"contracts/Accounts.sol\":619:721  function get(uint _memberId) public view returns(Member memory) {\r... */\n      swap2\n      swap1\n      pop\n      jump\t// out\n        /* \"contracts/Accounts.sol\":1307:1579  function getMembers() public view returns (Member[] memory){\r... */\n    tag_33:\n        /* \"contracts/Accounts.sol\":1350:1365  Member[] memory */\n      0x60\n        /* \"contracts/Accounts.sol\":1375:1396  Member[]    memory id */\n      0x00\n        /* \"contracts/Accounts.sol\":1412:1423  memberCount */\n      sload(0x01)\n        /* \"contracts/Accounts.sol\":1399:1424  new Member[](memberCount) */\n      0xffffffffffffffff\n      dup2\n      gt\n      iszero\n      tag_84\n      jumpi\n      tag_85\n      tag_39\n      jump\t// in\n    tag_85:\n    tag_84:\n      mload(0x40)\n      swap1\n      dup1\n      dup3\n      mstore\n      dup1\n      0x20\n      mul\n      0x20\n      add\n      dup3\n      add\n      0x40\n      mstore\n      dup1\n      iszero\n      tag_86\n      jumpi\n      dup2\n      0x20\n      add\n    tag_87:\n      tag_88\n      tag_76\n      jump\t// in\n    tag_88:\n      dup2\n      mstore\n      0x20\n      add\n      swap1\n      0x01\n      swap1\n      sub\n      swap1\n      dup2\n      tag_87\n      jumpi\n      swap1\n      pop\n    tag_86:\n      pop\n        /* \"contracts/Accounts.sol\":1375:1424  Member[]    memory id = new Member[](memberCount) */\n      swap1\n      pop\n        /* \"contracts/Accounts.sol\":1438:1444  uint i */\n      0x00\n        /* \"contracts/Accounts.sol\":1433:1556  for (uint i = 0; i < memberCount; i++) {\r... */\n    tag_89:\n        /* \"contracts/Accounts.sol\":1454:1465  memberCount */\n      sload(0x01)\n        /* \"contracts/Accounts.sol\":1450:1451  i */\n      dup2\n        /* \"contracts/Accounts.sol\":1450:1465  i < memberCount */\n      lt\n        /* \"contracts/Accounts.sol\":1433:1556  for (uint i = 0; i < memberCount; i++) {\r... */\n      iszero\n      tag_90\n      jumpi\n        /* \"contracts/Accounts.sol\":1485:1506  Member storage member */\n      0x00\n        /* \"contracts/Accounts.sol\":1509:1516  members */\n      dup1\n        /* \"contracts/Accounts.sol\":1509:1519  members[i] */\n      0x00\n        /* \"contracts/Accounts.sol\":1517:1518  i */\n      dup4\n        /* \"contracts/Accounts.sol\":1509:1519  members[i] */\n      dup2\n      mstore\n      0x20\n      add\n      swap1\n      dup2\n      mstore\n      0x20\n      add\n      0x00\n      keccak256\n        /* \"contracts/Accounts.sol\":1485:1519  Member storage member = members[i] */\n      swap1\n      pop\n        /* \"contracts/Accounts.sol\":1540:1546  member */\n      dup1\n        /* \"contracts/Accounts.sol\":1532:1546  id[i] = member */\n      mload(0x40)\n      dup1\n      0x60\n      add\n      0x40\n      mstore\n      swap1\n      dup2\n      0x00\n      dup3\n      add\n      sload\n      dup2\n      mstore\n      0x20\n      add\n      0x01\n      dup3\n      add\n      dup1\n      sload\n      tag_92\n      swap1\n      tag_55\n      jump\t// in\n    tag_92:\n      dup1\n      0x1f\n      add\n      0x20\n      dup1\n      swap2\n      div\n      mul\n      0x20\n      add\n      mload(0x40)\n      swap1\n      dup2\n      add\n      0x40\n      mstore\n      dup1\n      swap3\n      swap2\n      swap1\n      dup2\n      dup2\n      mstore\n      0x20\n      add\n      dup3\n      dup1\n      sload\n      tag_93\n      swap1\n      tag_55\n      jump\t// in\n    tag_93:\n      dup1\n      iszero\n      tag_94\n      jumpi\n      dup1\n      0x1f\n      lt\n      tag_95\n      jumpi\n      0x0100\n      dup1\n      dup4\n      sload\n      div\n      mul\n      dup4\n      mstore\n      swap2\n      0x20\n      add\n      swap2\n      jump(tag_94)\n    tag_95:\n      dup3\n      add\n      swap2\n      swap1\n      0x00\n      mstore\n      keccak256(0x00, 0x20)\n      swap1\n    tag_96:\n      dup2\n      sload\n      dup2\n      mstore\n      swap1\n      0x01\n      add\n      swap1\n      0x20\n      add\n      dup1\n      dup4\n      gt\n      tag_96\n      jumpi\n      dup3\n      swap1\n      sub\n      0x1f\n      and\n      dup3\n      add\n      swap2\n    tag_94:\n      pop\n      pop\n      pop\n      pop\n      pop\n      dup2\n      mstore\n      0x20\n      add\n      0x02\n      dup3\n      add\n      sload\n      dup2\n      mstore\n      pop\n      pop\n        /* \"contracts/Accounts.sol\":1532:1534  id */\n      dup4\n        /* \"contracts/Accounts.sol\":1535:1536  i */\n      dup4\n        /* \"contracts/Accounts.sol\":1532:1537  id[i] */\n      dup2\n      mload\n      dup2\n      lt\n      tag_97\n      jumpi\n      tag_98\n      tag_53\n      jump\t// in\n    tag_98:\n    tag_97:\n      0x20\n      mul\n      0x20\n      add\n      add\n        /* \"contracts/Accounts.sol\":1532:1546  id[i] = member */\n      dup2\n      swap1\n      mstore\n      pop\n        /* \"contracts/Accounts.sol\":1472:1556  {\r... */\n      pop\n        /* \"contracts/Accounts.sol\":1467:1470  i++ */\n      dup1\n      dup1\n      tag_99\n      swap1\n      tag_65\n      jump\t// in\n    tag_99:\n      swap2\n      pop\n      pop\n        /* \"contracts/Accounts.sol\":1433:1556  for (uint i = 0; i < memberCount; i++) {\r... */\n      jump(tag_89)\n    tag_90:\n      pop\n        /* \"contracts/Accounts.sol\":1571:1573  id */\n      dup1\n        /* \"contracts/Accounts.sol\":1564:1573  return id */\n      swap2\n      pop\n      pop\n        /* \"contracts/Accounts.sol\":1307:1579  function getMembers() public view returns (Member[] memory){\r... */\n      swap1\n      jump\t// out\n    tag_68:\n      dup3\n      dup1\n      sload\n      tag_100\n      swap1\n      tag_55\n      jump\t// in\n    tag_100:\n      swap1\n      0x00\n      mstore\n      keccak256(0x00, 0x20)\n      swap1\n      0x1f\n      add\n      0x20\n      swap1\n      div\n      dup2\n      add\n      swap3\n      dup3\n      tag_102\n      jumpi\n      0x00\n      dup6\n      sstore\n      jump(tag_101)\n    tag_102:\n      dup3\n      0x1f\n      lt\n      tag_103\n      jumpi\n      dup1\n      mload\n      not(0xff)\n      and\n      dup4\n      dup1\n      add\n      or\n      dup6\n      sstore\n      jump(tag_101)\n    tag_103:\n      dup3\n      dup1\n      add\n      0x01\n      add\n      dup6\n      sstore\n      dup3\n      iszero\n      tag_101\n      jumpi\n      swap2\n      dup3\n      add\n    tag_104:\n      dup3\n      dup2\n      gt\n      iszero\n      tag_105\n      jumpi\n      dup3\n      mload\n      dup3\n      sstore\n      swap2\n      0x20\n      add\n      swap2\n      swap1\n      0x01\n      add\n      swap1\n      jump(tag_104)\n    tag_105:\n    tag_101:\n      pop\n      swap1\n      pop\n      tag_106\n      swap2\n      swap1\n      tag_107\n      jump\t// in\n    tag_106:\n      pop\n      swap1\n      jump\t// out\n    tag_76:\n      mload(0x40)\n      dup1\n      0x60\n      add\n      0x40\n      mstore\n      dup1\n      0x00\n      dup2\n      mstore\n      0x20\n      add\n      0x60\n      dup2\n      mstore\n      0x20\n      add\n      0x00\n      dup2\n      mstore\n      pop\n      swap1\n      jump\t// out\n    tag_107:\n    tag_108:\n      dup1\n      dup3\n      gt\n      iszero\n      tag_109\n      jumpi\n      0x00\n      dup2\n      0x00\n      swap1\n      sstore\n      pop\n      0x01\n      add\n      jump(tag_108)\n    tag_109:\n      pop\n      swap1\n      jump\t// out\n        /* \"#utility.yul\":7:419   */\n    tag_111:\n        /* \"#utility.yul\":85:90   */\n      0x00\n        /* \"#utility.yul\":110:176   */\n      tag_113\n        /* \"#utility.yul\":126:175   */\n      tag_114\n        /* \"#utility.yul\":168:174   */\n      dup5\n        /* \"#utility.yul\":126:175   */\n      tag_115\n      jump\t// in\n    tag_114:\n        /* \"#utility.yul\":110:176   */\n      tag_116\n      jump\t// in\n    tag_113:\n        /* \"#utility.yul\":101:176   */\n      swap1\n      pop\n        /* \"#utility.yul\":199:205   */\n      dup3\n        /* \"#utility.yul\":192:197   */\n      dup2\n        /* \"#utility.yul\":185:206   */\n      mstore\n        /* \"#utility.yul\":237:241   */\n      0x20\n        /* \"#utility.yul\":230:235   */\n      dup2\n        /* \"#utility.yul\":226:242   */\n      add\n        /* \"#utility.yul\":275:278   */\n      dup5\n        /* \"#utility.yul\":266:272   */\n      dup5\n        /* \"#utility.yul\":261:264   */\n      dup5\n        /* \"#utility.yul\":257:273   */\n      add\n        /* \"#utility.yul\":254:279   */\n      gt\n        /* \"#utility.yul\":251:363   */\n      iszero\n      tag_117\n      jumpi\n        /* \"#utility.yul\":282:361   */\n      tag_118\n      tag_119\n      jump\t// in\n    tag_118:\n        /* \"#utility.yul\":251:363   */\n    tag_117:\n        /* \"#utility.yul\":372:413   */\n      tag_120\n        /* \"#utility.yul\":406:412   */\n      dup5\n        /* \"#utility.yul\":401:404   */\n      dup3\n        /* \"#utility.yul\":396:399   */\n      dup6\n        /* \"#utility.yul\":372:413   */\n      tag_121\n      jump\t// in\n    tag_120:\n        /* \"#utility.yul\":91:419   */\n      pop\n        /* \"#utility.yul\":7:419   */\n      swap4\n      swap3\n      pop\n      pop\n      pop\n      jump\t// out\n        /* \"#utility.yul\":439:779   */\n    tag_122:\n        /* \"#utility.yul\":495:500   */\n      0x00\n        /* \"#utility.yul\":544:547   */\n      dup3\n        /* \"#utility.yul\":537:541   */\n      0x1f\n        /* \"#utility.yul\":529:535   */\n      dup4\n        /* \"#utility.yul\":525:542   */\n      add\n        /* \"#utility.yul\":521:548   */\n      slt\n        /* \"#utility.yul\":511:633   */\n      tag_124\n      jumpi\n        /* \"#utility.yul\":552:631   */\n      tag_125\n      tag_126\n      jump\t// in\n    tag_125:\n        /* \"#utility.yul\":511:633   */\n    tag_124:\n        /* \"#utility.yul\":669:675   */\n      dup2\n        /* \"#utility.yul\":656:676   */\n      calldataload\n        /* \"#utility.yul\":694:773   */\n      tag_127\n        /* \"#utility.yul\":769:772   */\n      dup5\n        /* \"#utility.yul\":761:767   */\n      dup3\n        /* \"#utility.yul\":754:758   */\n      0x20\n        /* \"#utility.yul\":746:752   */\n      dup7\n        /* \"#utility.yul\":742:759   */\n      add\n        /* \"#utility.yul\":694:773   */\n      tag_111\n      jump\t// in\n    tag_127:\n        /* \"#utility.yul\":685:773   */\n      swap2\n      pop\n        /* \"#utility.yul\":501:779   */\n      pop\n        /* \"#utility.yul\":439:779   */\n      swap3\n      swap2\n      pop\n      pop\n      jump\t// out\n        /* \"#utility.yul\":785:924   */\n    tag_128:\n        /* \"#utility.yul\":831:836   */\n      0x00\n        /* \"#utility.yul\":869:875   */\n      dup2\n        /* \"#utility.yul\":856:876   */\n      calldataload\n        /* \"#utility.yul\":847:876   */\n      swap1\n      pop\n        /* \"#utility.yul\":885:918   */\n      tag_130\n        /* \"#utility.yul\":912:917   */\n      dup2\n        /* \"#utility.yul\":885:918   */\n      tag_131\n      jump\t// in\n    tag_130:\n        /* \"#utility.yul\":785:924   */\n      swap3\n      swap2\n      pop\n      pop\n      jump\t// out\n        /* \"#utility.yul\":930:1584   */\n    tag_19:\n        /* \"#utility.yul\":1008:1014   */\n      0x00\n        /* \"#utility.yul\":1016:1022   */\n      dup1\n        /* \"#utility.yul\":1065:1067   */\n      0x40\n        /* \"#utility.yul\":1053:1062   */\n      dup4\n        /* \"#utility.yul\":1044:1051   */\n      dup6\n        /* \"#utility.yul\":1040:1063   */\n      sub\n        /* \"#utility.yul\":1036:1068   */\n      slt\n        /* \"#utility.yul\":1033:1152   */\n      iszero\n      tag_133\n      jumpi\n        /* \"#utility.yul\":1071:1150   */\n      tag_134\n      tag_135\n      jump\t// in\n    tag_134:\n        /* \"#utility.yul\":1033:1152   */\n    tag_133:\n        /* \"#utility.yul\":1219:1220   */\n      0x00\n        /* \"#utility.yul\":1208:1217   */\n      dup4\n        /* \"#utility.yul\":1204:1221   */\n      add\n        /* \"#utility.yul\":1191:1222   */\n      calldataload\n        /* \"#utility.yul\":1249:1267   */\n      0xffffffffffffffff\n        /* \"#utility.yul\":1241:1247   */\n      dup2\n        /* \"#utility.yul\":1238:1268   */\n      gt\n        /* \"#utility.yul\":1235:1352   */\n      iszero\n      tag_136\n      jumpi\n        /* \"#utility.yul\":1271:1350   */\n      tag_137\n      tag_138\n      jump\t// in\n    tag_137:\n        /* \"#utility.yul\":1235:1352   */\n    tag_136:\n        /* \"#utility.yul\":1376:1439   */\n      tag_139\n        /* \"#utility.yul\":1431:1438   */\n      dup6\n        /* \"#utility.yul\":1422:1428   */\n      dup3\n        /* \"#utility.yul\":1411:1420   */\n      dup7\n        /* \"#utility.yul\":1407:1429   */\n      add\n        /* \"#utility.yul\":1376:1439   */\n      tag_122\n      jump\t// in\n    tag_139:\n        /* \"#utility.yul\":1366:1439   */\n      swap3\n      pop\n        /* \"#utility.yul\":1162:1449   */\n      pop\n        /* \"#utility.yul\":1488:1490   */\n      0x20\n        /* \"#utility.yul\":1514:1567   */\n      tag_140\n        /* \"#utility.yul\":1559:1566   */\n      dup6\n        /* \"#utility.yul\":1550:1556   */\n      dup3\n        /* \"#utility.yul\":1539:1548   */\n      dup7\n        /* \"#utility.yul\":1535:1557   */\n      add\n        /* \"#utility.yul\":1514:1567   */\n      tag_128\n      jump\t// in\n    tag_140:\n        /* \"#utility.yul\":1504:1567   */\n      swap2\n      pop\n        /* \"#utility.yul\":1459:1577   */\n      pop\n        /* \"#utility.yul\":930:1584   */\n      swap3\n      pop\n      swap3\n      swap1\n      pop\n      jump\t// out\n        /* \"#utility.yul\":1590:1919   */\n    tag_23:\n        /* \"#utility.yul\":1649:1655   */\n      0x00\n        /* \"#utility.yul\":1698:1700   */\n      0x20\n        /* \"#utility.yul\":1686:1695   */\n      dup3\n        /* \"#utility.yul\":1677:1684   */\n      dup5\n        /* \"#utility.yul\":1673:1696   */\n      sub\n        /* \"#utility.yul\":1669:1701   */\n      slt\n        /* \"#utility.yul\":1666:1785   */\n      iszero\n      tag_142\n      jumpi\n        /* \"#utility.yul\":1704:1783   */\n      tag_143\n      tag_135\n      jump\t// in\n    tag_143:\n        /* \"#utility.yul\":1666:1785   */\n    tag_142:\n        /* \"#utility.yul\":1824:1825   */\n      0x00\n        /* \"#utility.yul\":1849:1902   */\n      tag_144\n        /* \"#utility.yul\":1894:1901   */\n      dup5\n        /* \"#utility.yul\":1885:1891   */\n      dup3\n        /* \"#utility.yul\":1874:1883   */\n      dup6\n        /* \"#utility.yul\":1870:1892   */\n      add\n        /* \"#utility.yul\":1849:1902   */\n      tag_128\n      jump\t// in\n    tag_144:\n        /* \"#utility.yul\":1839:1902   */\n      swap2\n      pop\n        /* \"#utility.yul\":1795:1912   */\n      pop\n        /* \"#utility.yul\":1590:1919   */\n      swap3\n      swap2\n      pop\n      pop\n      jump\t// out\n        /* \"#utility.yul\":1925:2121   */\n    tag_145:\n        /* \"#utility.yul\":2014:2024   */\n      0x00\n        /* \"#utility.yul\":2049:2115   */\n      tag_147\n        /* \"#utility.yul\":2111:2114   */\n      dup4\n        /* \"#utility.yul\":2103:2109   */\n      dup4\n        /* \"#utility.yul\":2049:2115   */\n      tag_148\n      jump\t// in\n    tag_147:\n        /* \"#utility.yul\":2035:2115   */\n      swap1\n      pop\n        /* \"#utility.yul\":1925:2121   */\n      swap3\n      swap2\n      pop\n      pop\n      jump\t// out\n        /* \"#utility.yul\":2127:2367   */\n    tag_149:\n        /* \"#utility.yul\":2238:2248   */\n      0x00\n        /* \"#utility.yul\":2273:2361   */\n      tag_151\n        /* \"#utility.yul\":2357:2360   */\n      dup4\n        /* \"#utility.yul\":2349:2355   */\n      dup4\n        /* \"#utility.yul\":2273:2361   */\n      tag_152\n      jump\t// in\n    tag_151:\n        /* \"#utility.yul\":2259:2361   */\n      swap1\n      pop\n        /* \"#utility.yul\":2127:2367   */\n      swap3\n      swap2\n      pop\n      pop\n      jump\t// out\n        /* \"#utility.yul\":2373:2552   */\n    tag_153:\n        /* \"#utility.yul\":2442:2452   */\n      0x00\n        /* \"#utility.yul\":2463:2509   */\n      tag_155\n        /* \"#utility.yul\":2505:2508   */\n      dup4\n        /* \"#utility.yul\":2497:2503   */\n      dup4\n        /* \"#utility.yul\":2463:2509   */\n      tag_156\n      jump\t// in\n    tag_155:\n        /* \"#utility.yul\":2541:2545   */\n      0x20\n        /* \"#utility.yul\":2536:2539   */\n      dup4\n        /* \"#utility.yul\":2532:2546   */\n      add\n        /* \"#utility.yul\":2518:2546   */\n      swap1\n      pop\n        /* \"#utility.yul\":2373:2552   */\n      swap3\n      swap2\n      pop\n      pop\n      jump\t// out\n        /* \"#utility.yul\":2586:3577   */\n    tag_157:\n        /* \"#utility.yul\":2725:2728   */\n      0x00\n        /* \"#utility.yul\":2754:2818   */\n      tag_159\n        /* \"#utility.yul\":2812:2817   */\n      dup3\n        /* \"#utility.yul\":2754:2818   */\n      tag_160\n      jump\t// in\n    tag_159:\n        /* \"#utility.yul\":2834:2930   */\n      tag_161\n        /* \"#utility.yul\":2923:2929   */\n      dup2\n        /* \"#utility.yul\":2918:2921   */\n      dup6\n        /* \"#utility.yul\":2834:2930   */\n      tag_162\n      jump\t// in\n    tag_161:\n        /* \"#utility.yul\":2827:2930   */\n      swap4\n      pop\n        /* \"#utility.yul\":2956:2959   */\n      dup4\n        /* \"#utility.yul\":3001:3005   */\n      0x20\n        /* \"#utility.yul\":2993:2999   */\n      dup3\n        /* \"#utility.yul\":2989:3006   */\n      mul\n        /* \"#utility.yul\":2984:2987   */\n      dup6\n        /* \"#utility.yul\":2980:3007   */\n      add\n        /* \"#utility.yul\":3031:3097   */\n      tag_163\n        /* \"#utility.yul\":3091:3096   */\n      dup6\n        /* \"#utility.yul\":3031:3097   */\n      tag_164\n      jump\t// in\n    tag_163:\n        /* \"#utility.yul\":3120:3127   */\n      dup1\n        /* \"#utility.yul\":3151:3152   */\n      0x00\n        /* \"#utility.yul\":3136:3532   */\n    tag_165:\n        /* \"#utility.yul\":3161:3167   */\n      dup6\n        /* \"#utility.yul\":3158:3159   */\n      dup2\n        /* \"#utility.yul\":3155:3168   */\n      lt\n        /* \"#utility.yul\":3136:3532   */\n      iszero\n      tag_167\n      jumpi\n        /* \"#utility.yul\":3232:3241   */\n      dup5\n        /* \"#utility.yul\":3226:3230   */\n      dup5\n        /* \"#utility.yul\":3222:3242   */\n      sub\n        /* \"#utility.yul\":3217:3220   */\n      dup10\n        /* \"#utility.yul\":3210:3243   */\n      mstore\n        /* \"#utility.yul\":3283:3289   */\n      dup2\n        /* \"#utility.yul\":3277:3290   */\n      mload\n        /* \"#utility.yul\":3311:3395   */\n      tag_168\n        /* \"#utility.yul\":3390:3394   */\n      dup6\n        /* \"#utility.yul\":3375:3388   */\n      dup3\n        /* \"#utility.yul\":3311:3395   */\n      tag_145\n      jump\t// in\n    tag_168:\n        /* \"#utility.yul\":3303:3395   */\n      swap5\n      pop\n        /* \"#utility.yul\":3418:3488   */\n      tag_169\n        /* \"#utility.yul\":3481:3487   */\n      dup4\n        /* \"#utility.yul\":3418:3488   */\n      tag_170\n      jump\t// in\n    tag_169:\n        /* \"#utility.yul\":3408:3488   */\n      swap3\n      pop\n        /* \"#utility.yul\":3517:3521   */\n      0x20\n        /* \"#utility.yul\":3512:3515   */\n      dup11\n        /* \"#utility.yul\":3508:3522   */\n      add\n        /* \"#utility.yul\":3501:3522   */\n      swap10\n      pop\n        /* \"#utility.yul\":3196:3532   */\n      pop\n        /* \"#utility.yul\":3183:3184   */\n      0x01\n        /* \"#utility.yul\":3180:3181   */\n      dup2\n        /* \"#utility.yul\":3176:3185   */\n      add\n        /* \"#utility.yul\":3171:3185   */\n      swap1\n      pop\n        /* \"#utility.yul\":3136:3532   */\n      jump(tag_165)\n    tag_167:\n        /* \"#utility.yul\":3140:3154   */\n      pop\n        /* \"#utility.yul\":3548:3552   */\n      dup3\n        /* \"#utility.yul\":3541:3552   */\n      swap8\n      pop\n        /* \"#utility.yul\":3568:3571   */\n      dup8\n        /* \"#utility.yul\":3561:3571   */\n      swap6\n      pop\n        /* \"#utility.yul\":2730:3577   */\n      pop\n      pop\n      pop\n      pop\n      pop\n        /* \"#utility.yul\":2586:3577   */\n      swap3\n      swap2\n      pop\n      pop\n      jump\t// out\n        /* \"#utility.yul\":3655:4734   */\n    tag_171:\n        /* \"#utility.yul\":3816:3819   */\n      0x00\n        /* \"#utility.yul\":3845:3920   */\n      tag_173\n        /* \"#utility.yul\":3914:3919   */\n      dup3\n        /* \"#utility.yul\":3845:3920   */\n      tag_174\n      jump\t// in\n    tag_173:\n        /* \"#utility.yul\":3936:4043   */\n      tag_175\n        /* \"#utility.yul\":4036:4042   */\n      dup2\n        /* \"#utility.yul\":4031:4034   */\n      dup6\n        /* \"#utility.yul\":3936:4043   */\n      tag_176\n      jump\t// in\n    tag_175:\n        /* \"#utility.yul\":3929:4043   */\n      swap4\n      pop\n        /* \"#utility.yul\":4069:4072   */\n      dup4\n        /* \"#utility.yul\":4114:4118   */\n      0x20\n        /* \"#utility.yul\":4106:4112   */\n      dup3\n        /* \"#utility.yul\":4102:4119   */\n      mul\n        /* \"#utility.yul\":4097:4100   */\n      dup6\n        /* \"#utility.yul\":4093:4120   */\n      add\n        /* \"#utility.yul\":4144:4221   */\n      tag_177\n        /* \"#utility.yul\":4215:4220   */\n      dup6\n        /* \"#utility.yul\":4144:4221   */\n      tag_178\n      jump\t// in\n    tag_177:\n        /* \"#utility.yul\":4244:4251   */\n      dup1\n        /* \"#utility.yul\":4275:4276   */\n      0x00\n        /* \"#utility.yul\":4260:4689   */\n    tag_179:\n        /* \"#utility.yul\":4285:4291   */\n      dup6\n        /* \"#utility.yul\":4282:4283   */\n      dup2\n        /* \"#utility.yul\":4279:4292   */\n      lt\n        /* \"#utility.yul\":4260:4689   */\n      iszero\n      tag_181\n      jumpi\n        /* \"#utility.yul\":4356:4365   */\n      dup5\n        /* \"#utility.yul\":4350:4354   */\n      dup5\n        /* \"#utility.yul\":4346:4366   */\n      sub\n        /* \"#utility.yul\":4341:4344   */\n      dup10\n        /* \"#utility.yul\":4334:4367   */\n      mstore\n        /* \"#utility.yul\":4407:4413   */\n      dup2\n        /* \"#utility.yul\":4401:4414   */\n      mload\n        /* \"#utility.yul\":4435:4541   */\n      tag_182\n        /* \"#utility.yul\":4536:4540   */\n      dup6\n        /* \"#utility.yul\":4521:4534   */\n      dup3\n        /* \"#utility.yul\":4435:4541   */\n      tag_149\n      jump\t// in\n    tag_182:\n        /* \"#utility.yul\":4427:4541   */\n      swap5\n      pop\n        /* \"#utility.yul\":4564:4645   */\n      tag_183\n        /* \"#utility.yul\":4638:4644   */\n      dup4\n        /* \"#utility.yul\":4564:4645   */\n      tag_184\n      jump\t// in\n    tag_183:\n        /* \"#utility.yul\":4554:4645   */\n      swap3\n      pop\n        /* \"#utility.yul\":4674:4678   */\n      0x20\n        /* \"#utility.yul\":4669:4672   */\n      dup11\n        /* \"#utility.yul\":4665:4679   */\n      add\n        /* \"#utility.yul\":4658:4679   */\n      swap10\n      pop\n        /* \"#utility.yul\":4320:4689   */\n      pop\n        /* \"#utility.yul\":4307:4308   */\n      0x01\n        /* \"#utility.yul\":4304:4305   */\n      dup2\n        /* \"#utility.yul\":4300:4309   */\n      add\n        /* \"#utility.yul\":4295:4309   */\n      swap1\n      pop\n        /* \"#utility.yul\":4260:4689   */\n      jump(tag_179)\n    tag_181:\n        /* \"#utility.yul\":4264:4278   */\n      pop\n        /* \"#utility.yul\":4705:4709   */\n      dup3\n        /* \"#utility.yul\":4698:4709   */\n      swap8\n      pop\n        /* \"#utility.yul\":4725:4728   */\n      dup8\n        /* \"#utility.yul\":4718:4728   */\n      swap6\n      pop\n        /* \"#utility.yul\":3821:4734   */\n      pop\n      pop\n      pop\n      pop\n      pop\n        /* \"#utility.yul\":3655:4734   */\n      swap3\n      swap2\n      pop\n      pop\n      jump\t// out\n        /* \"#utility.yul\":4770:5502   */\n    tag_185:\n        /* \"#utility.yul\":4889:4892   */\n      0x00\n        /* \"#utility.yul\":4918:4972   */\n      tag_187\n        /* \"#utility.yul\":4966:4971   */\n      dup3\n        /* \"#utility.yul\":4918:4972   */\n      tag_188\n      jump\t// in\n    tag_187:\n        /* \"#utility.yul\":4988:5074   */\n      tag_189\n        /* \"#utility.yul\":5067:5073   */\n      dup2\n        /* \"#utility.yul\":5062:5065   */\n      dup6\n        /* \"#utility.yul\":4988:5074   */\n      tag_190\n      jump\t// in\n    tag_189:\n        /* \"#utility.yul\":4981:5074   */\n      swap4\n      pop\n        /* \"#utility.yul\":5098:5154   */\n      tag_191\n        /* \"#utility.yul\":5148:5153   */\n      dup4\n        /* \"#utility.yul\":5098:5154   */\n      tag_192\n      jump\t// in\n    tag_191:\n        /* \"#utility.yul\":5177:5184   */\n      dup1\n        /* \"#utility.yul\":5208:5209   */\n      0x00\n        /* \"#utility.yul\":5193:5477   */\n    tag_193:\n        /* \"#utility.yul\":5218:5224   */\n      dup4\n        /* \"#utility.yul\":5215:5216   */\n      dup2\n        /* \"#utility.yul\":5212:5225   */\n      lt\n        /* \"#utility.yul\":5193:5477   */\n      iszero\n      tag_195\n      jumpi\n        /* \"#utility.yul\":5294:5300   */\n      dup2\n        /* \"#utility.yul\":5288:5301   */\n      mload\n        /* \"#utility.yul\":5321:5384   */\n      tag_196\n        /* \"#utility.yul\":5380:5383   */\n      dup9\n        /* \"#utility.yul\":5365:5378   */\n      dup3\n        /* \"#utility.yul\":5321:5384   */\n      tag_153\n      jump\t// in\n    tag_196:\n        /* \"#utility.yul\":5314:5384   */\n      swap8\n      pop\n        /* \"#utility.yul\":5407:5467   */\n      tag_197\n        /* \"#utility.yul\":5460:5466   */\n      dup4\n        /* \"#utility.yul\":5407:5467   */\n      tag_198\n      jump\t// in\n    tag_197:\n        /* \"#utility.yul\":5397:5467   */\n      swap3\n      pop\n        /* \"#utility.yul\":5253:5477   */\n      pop\n        /* \"#utility.yul\":5240:5241   */\n      0x01\n        /* \"#utility.yul\":5237:5238   */\n      dup2\n        /* \"#utility.yul\":5233:5242   */\n      add\n        /* \"#utility.yul\":5228:5242   */\n      swap1\n      pop\n        /* \"#utility.yul\":5193:5477   */\n      jump(tag_193)\n    tag_195:\n        /* \"#utility.yul\":5197:5211   */\n      pop\n        /* \"#utility.yul\":5493:5496   */\n      dup6\n        /* \"#utility.yul\":5486:5496   */\n      swap4\n      pop\n        /* \"#utility.yul\":4894:5502   */\n      pop\n      pop\n      pop\n        /* \"#utility.yul\":4770:5502   */\n      swap3\n      swap2\n      pop\n      pop\n      jump\t// out\n        /* \"#utility.yul\":5508:5852   */\n    tag_148:\n        /* \"#utility.yul\":5586:5589   */\n      0x00\n        /* \"#utility.yul\":5614:5653   */\n      tag_200\n        /* \"#utility.yul\":5647:5652   */\n      dup3\n        /* \"#utility.yul\":5614:5653   */\n      tag_201\n      jump\t// in\n    tag_200:\n        /* \"#utility.yul\":5669:5730   */\n      tag_202\n        /* \"#utility.yul\":5723:5729   */\n      dup2\n        /* \"#utility.yul\":5718:5721   */\n      dup6\n        /* \"#utility.yul\":5669:5730   */\n      tag_203\n      jump\t// in\n    tag_202:\n        /* \"#utility.yul\":5662:5730   */\n      swap4\n      pop\n        /* \"#utility.yul\":5739:5791   */\n      tag_204\n        /* \"#utility.yul\":5784:5790   */\n      dup2\n        /* \"#utility.yul\":5779:5782   */\n      dup6\n        /* \"#utility.yul\":5772:5776   */\n      0x20\n        /* \"#utility.yul\":5765:5770   */\n      dup7\n        /* \"#utility.yul\":5761:5777   */\n      add\n        /* \"#utility.yul\":5739:5791   */\n      tag_205\n      jump\t// in\n    tag_204:\n        /* \"#utility.yul\":5816:5845   */\n      tag_206\n        /* \"#utility.yul\":5838:5844   */\n      dup2\n        /* \"#utility.yul\":5816:5845   */\n      tag_207\n      jump\t// in\n    tag_206:\n        /* \"#utility.yul\":5811:5814   */\n      dup5\n        /* \"#utility.yul\":5807:5846   */\n      add\n        /* \"#utility.yul\":5800:5846   */\n      swap2\n      pop\n        /* \"#utility.yul\":5590:5852   */\n      pop\n        /* \"#utility.yul\":5508:5852   */\n      swap3\n      swap2\n      pop\n      pop\n      jump\t// out\n        /* \"#utility.yul\":5858:6222   */\n    tag_208:\n        /* \"#utility.yul\":5946:5949   */\n      0x00\n        /* \"#utility.yul\":5974:6013   */\n      tag_210\n        /* \"#utility.yul\":6007:6012   */\n      dup3\n        /* \"#utility.yul\":5974:6013   */\n      tag_201\n      jump\t// in\n    tag_210:\n        /* \"#utility.yul\":6029:6100   */\n      tag_211\n        /* \"#utility.yul\":6093:6099   */\n      dup2\n        /* \"#utility.yul\":6088:6091   */\n      dup6\n        /* \"#utility.yul\":6029:6100   */\n      tag_212\n      jump\t// in\n    tag_211:\n        /* \"#utility.yul\":6022:6100   */\n      swap4\n      pop\n        /* \"#utility.yul\":6109:6161   */\n      tag_213\n        /* \"#utility.yul\":6154:6160   */\n      dup2\n        /* \"#utility.yul\":6149:6152   */\n      dup6\n        /* \"#utility.yul\":6142:6146   */\n      0x20\n        /* \"#utility.yul\":6135:6140   */\n      dup7\n        /* \"#utility.yul\":6131:6147   */\n      add\n        /* \"#utility.yul\":6109:6161   */\n      tag_205\n      jump\t// in\n    tag_213:\n        /* \"#utility.yul\":6186:6215   */\n      tag_214\n        /* \"#utility.yul\":6208:6214   */\n      dup2\n        /* \"#utility.yul\":6186:6215   */\n      tag_207\n      jump\t// in\n    tag_214:\n        /* \"#utility.yul\":6181:6184   */\n      dup5\n        /* \"#utility.yul\":6177:6216   */\n      add\n        /* \"#utility.yul\":6170:6216   */\n      swap2\n      pop\n        /* \"#utility.yul\":5950:6222   */\n      pop\n        /* \"#utility.yul\":5858:6222   */\n      swap3\n      swap2\n      pop\n      pop\n      jump\t// out\n        /* \"#utility.yul\":6296:7059   */\n    tag_152:\n        /* \"#utility.yul\":6397:6400   */\n      0x00\n        /* \"#utility.yul\":6433:6437   */\n      0x60\n        /* \"#utility.yul\":6428:6431   */\n      dup4\n        /* \"#utility.yul\":6424:6438   */\n      add\n        /* \"#utility.yul\":6518:6522   */\n      0x00\n        /* \"#utility.yul\":6511:6516   */\n      dup4\n        /* \"#utility.yul\":6507:6523   */\n      add\n        /* \"#utility.yul\":6501:6524   */\n      mload\n        /* \"#utility.yul\":6537:6600   */\n      tag_216\n        /* \"#utility.yul\":6594:6598   */\n      0x00\n        /* \"#utility.yul\":6589:6592   */\n      dup7\n        /* \"#utility.yul\":6585:6599   */\n      add\n        /* \"#utility.yul\":6571:6583   */\n      dup3\n        /* \"#utility.yul\":6537:6600   */\n      tag_156\n      jump\t// in\n    tag_216:\n        /* \"#utility.yul\":6448:6610   */\n      pop\n        /* \"#utility.yul\":6692:6696   */\n      0x20\n        /* \"#utility.yul\":6685:6690   */\n      dup4\n        /* \"#utility.yul\":6681:6697   */\n      add\n        /* \"#utility.yul\":6675:6698   */\n      mload\n        /* \"#utility.yul\":6745:6748   */\n      dup5\n        /* \"#utility.yul\":6739:6743   */\n      dup3\n        /* \"#utility.yul\":6735:6749   */\n      sub\n        /* \"#utility.yul\":6728:6732   */\n      0x20\n        /* \"#utility.yul\":6723:6726   */\n      dup7\n        /* \"#utility.yul\":6719:6733   */\n      add\n        /* \"#utility.yul\":6712:6750   */\n      mstore\n        /* \"#utility.yul\":6771:6844   */\n      tag_217\n        /* \"#utility.yul\":6839:6843   */\n      dup3\n        /* \"#utility.yul\":6825:6837   */\n      dup3\n        /* \"#utility.yul\":6771:6844   */\n      tag_148\n      jump\t// in\n    tag_217:\n        /* \"#utility.yul\":6763:6844   */\n      swap2\n      pop\n        /* \"#utility.yul\":6620:6855   */\n      pop\n        /* \"#utility.yul\":6940:6944   */\n      0x40\n        /* \"#utility.yul\":6933:6938   */\n      dup4\n        /* \"#utility.yul\":6929:6945   */\n      add\n        /* \"#utility.yul\":6923:6946   */\n      mload\n        /* \"#utility.yul\":6959:7022   */\n      tag_218\n        /* \"#utility.yul\":7016:7020   */\n      0x40\n        /* \"#utility.yul\":7011:7014   */\n      dup7\n        /* \"#utility.yul\":7007:7021   */\n      add\n        /* \"#utility.yul\":6993:7005   */\n      dup3\n        /* \"#utility.yul\":6959:7022   */\n      tag_156\n      jump\t// in\n    tag_218:\n        /* \"#utility.yul\":6865:7032   */\n      pop\n        /* \"#utility.yul\":7049:7053   */\n      dup1\n        /* \"#utility.yul\":7042:7053   */\n      swap2\n      pop\n        /* \"#utility.yul\":6402:7059   */\n      pop\n        /* \"#utility.yul\":6296:7059   */\n      swap3\n      swap2\n      pop\n      pop\n      jump\t// out\n        /* \"#utility.yul\":7133:7906   */\n    tag_219:\n        /* \"#utility.yul\":7244:7247   */\n      0x00\n        /* \"#utility.yul\":7280:7284   */\n      0x60\n        /* \"#utility.yul\":7275:7278   */\n      dup4\n        /* \"#utility.yul\":7271:7285   */\n      add\n        /* \"#utility.yul\":7365:7369   */\n      0x00\n        /* \"#utility.yul\":7358:7363   */\n      dup4\n        /* \"#utility.yul\":7354:7370   */\n      add\n        /* \"#utility.yul\":7348:7371   */\n      mload\n        /* \"#utility.yul\":7384:7447   */\n      tag_221\n        /* \"#utility.yul\":7441:7445   */\n      0x00\n        /* \"#utility.yul\":7436:7439   */\n      dup7\n        /* \"#utility.yul\":7432:7446   */\n      add\n        /* \"#utility.yul\":7418:7430   */\n      dup3\n        /* \"#utility.yul\":7384:7447   */\n      tag_156\n      jump\t// in\n    tag_221:\n        /* \"#utility.yul\":7295:7457   */\n      pop\n        /* \"#utility.yul\":7539:7543   */\n      0x20\n        /* \"#utility.yul\":7532:7537   */\n      dup4\n        /* \"#utility.yul\":7528:7544   */\n      add\n        /* \"#utility.yul\":7522:7545   */\n      mload\n        /* \"#utility.yul\":7592:7595   */\n      dup5\n        /* \"#utility.yul\":7586:7590   */\n      dup3\n        /* \"#utility.yul\":7582:7596   */\n      sub\n        /* \"#utility.yul\":7575:7579   */\n      0x20\n        /* \"#utility.yul\":7570:7573   */\n      dup7\n        /* \"#utility.yul\":7566:7580   */\n      add\n        /* \"#utility.yul\":7559:7597   */\n      mstore\n        /* \"#utility.yul\":7618:7691   */\n      tag_222\n        /* \"#utility.yul\":7686:7690   */\n      dup3\n        /* \"#utility.yul\":7672:7684   */\n      dup3\n        /* \"#utility.yul\":7618:7691   */\n      tag_148\n      jump\t// in\n    tag_222:\n        /* \"#utility.yul\":7610:7691   */\n      swap2\n      pop\n        /* \"#utility.yul\":7467:7702   */\n      pop\n        /* \"#utility.yul\":7787:7791   */\n      0x40\n        /* \"#utility.yul\":7780:7785   */\n      dup4\n        /* \"#utility.yul\":7776:7792   */\n      add\n        /* \"#utility.yul\":7770:7793   */\n      mload\n        /* \"#utility.yul\":7806:7869   */\n      tag_223\n        /* \"#utility.yul\":7863:7867   */\n      0x40\n        /* \"#utility.yul\":7858:7861   */\n      dup7\n        /* \"#utility.yul\":7854:7868   */\n      add\n        /* \"#utility.yul\":7840:7852   */\n      dup3\n        /* \"#utility.yul\":7806:7869   */\n      tag_156\n      jump\t// in\n    tag_223:\n        /* \"#utility.yul\":7712:7879   */\n      pop\n        /* \"#utility.yul\":7896:7900   */\n      dup1\n        /* \"#utility.yul\":7889:7900   */\n      swap2\n      pop\n        /* \"#utility.yul\":7249:7906   */\n      pop\n        /* \"#utility.yul\":7133:7906   */\n      swap3\n      swap2\n      pop\n      pop\n      jump\t// out\n        /* \"#utility.yul\":7912:8020   */\n    tag_156:\n        /* \"#utility.yul\":7989:8013   */\n      tag_225\n        /* \"#utility.yul\":8007:8012   */\n      dup2\n        /* \"#utility.yul\":7989:8013   */\n      tag_226\n      jump\t// in\n    tag_225:\n        /* \"#utility.yul\":7984:7987   */\n      dup3\n        /* \"#utility.yul\":7977:8014   */\n      mstore\n        /* \"#utility.yul\":7912:8020   */\n      pop\n      pop\n      jump\t// out\n        /* \"#utility.yul\":8026:8144   */\n    tag_227:\n        /* \"#utility.yul\":8113:8137   */\n      tag_229\n        /* \"#utility.yul\":8131:8136   */\n      dup2\n        /* \"#utility.yul\":8113:8137   */\n      tag_226\n      jump\t// in\n    tag_229:\n        /* \"#utility.yul\":8108:8111   */\n      dup3\n        /* \"#utility.yul\":8101:8138   */\n      mstore\n        /* \"#utility.yul\":8026:8144   */\n      pop\n      pop\n      jump\t// out\n        /* \"#utility.yul\":8150:8607   */\n    tag_35:\n        /* \"#utility.yul\":8335:8339   */\n      0x00\n        /* \"#utility.yul\":8373:8375   */\n      0x20\n        /* \"#utility.yul\":8362:8371   */\n      dup3\n        /* \"#utility.yul\":8358:8376   */\n      add\n        /* \"#utility.yul\":8350:8376   */\n      swap1\n      pop\n        /* \"#utility.yul\":8422:8431   */\n      dup2\n        /* \"#utility.yul\":8416:8420   */\n      dup2\n        /* \"#utility.yul\":8412:8432   */\n      sub\n        /* \"#utility.yul\":8408:8409   */\n      0x00\n        /* \"#utility.yul\":8397:8406   */\n      dup4\n        /* \"#utility.yul\":8393:8410   */\n      add\n        /* \"#utility.yul\":8386:8433   */\n      mstore\n        /* \"#utility.yul\":8450:8600   */\n      tag_231\n        /* \"#utility.yul\":8595:8599   */\n      dup2\n        /* \"#utility.yul\":8586:8592   */\n      dup5\n        /* \"#utility.yul\":8450:8600   */\n      tag_171\n      jump\t// in\n    tag_231:\n        /* \"#utility.yul\":8442:8600   */\n      swap1\n      pop\n        /* \"#utility.yul\":8150:8607   */\n      swap3\n      swap2\n      pop\n      pop\n      jump\t// out\n        /* \"#utility.yul\":8613:9548   */\n    tag_12:\n        /* \"#utility.yul\":8932:8936   */\n      0x00\n        /* \"#utility.yul\":8970:8972   */\n      0x60\n        /* \"#utility.yul\":8959:8968   */\n      dup3\n        /* \"#utility.yul\":8955:8973   */\n      add\n        /* \"#utility.yul\":8947:8973   */\n      swap1\n      pop\n        /* \"#utility.yul\":9019:9028   */\n      dup2\n        /* \"#utility.yul\":9013:9017   */\n      dup2\n        /* \"#utility.yul\":9009:9029   */\n      sub\n        /* \"#utility.yul\":9005:9006   */\n      0x00\n        /* \"#utility.yul\":8994:9003   */\n      dup4\n        /* \"#utility.yul\":8990:9007   */\n      add\n        /* \"#utility.yul\":8983:9030   */\n      mstore\n        /* \"#utility.yul\":9047:9155   */\n      tag_233\n        /* \"#utility.yul\":9150:9154   */\n      dup2\n        /* \"#utility.yul\":9141:9147   */\n      dup7\n        /* \"#utility.yul\":9047:9155   */\n      tag_185\n      jump\t// in\n    tag_233:\n        /* \"#utility.yul\":9039:9155   */\n      swap1\n      pop\n        /* \"#utility.yul\":9202:9211   */\n      dup2\n        /* \"#utility.yul\":9196:9200   */\n      dup2\n        /* \"#utility.yul\":9192:9212   */\n      sub\n        /* \"#utility.yul\":9187:9189   */\n      0x20\n        /* \"#utility.yul\":9176:9185   */\n      dup4\n        /* \"#utility.yul\":9172:9190   */\n      add\n        /* \"#utility.yul\":9165:9213   */\n      mstore\n        /* \"#utility.yul\":9230:9358   */\n      tag_234\n        /* \"#utility.yul\":9353:9357   */\n      dup2\n        /* \"#utility.yul\":9344:9350   */\n      dup6\n        /* \"#utility.yul\":9230:9358   */\n      tag_157\n      jump\t// in\n    tag_234:\n        /* \"#utility.yul\":9222:9358   */\n      swap1\n      pop\n        /* \"#utility.yul\":9405:9414   */\n      dup2\n        /* \"#utility.yul\":9399:9403   */\n      dup2\n        /* \"#utility.yul\":9395:9415   */\n      sub\n        /* \"#utility.yul\":9390:9392   */\n      0x40\n        /* \"#utility.yul\":9379:9388   */\n      dup4\n        /* \"#utility.yul\":9375:9393   */\n      add\n        /* \"#utility.yul\":9368:9416   */\n      mstore\n        /* \"#utility.yul\":9433:9541   */\n      tag_235\n        /* \"#utility.yul\":9536:9540   */\n      dup2\n        /* \"#utility.yul\":9527:9533   */\n      dup5\n        /* \"#utility.yul\":9433:9541   */\n      tag_185\n      jump\t// in\n    tag_235:\n        /* \"#utility.yul\":9425:9541   */\n      swap1\n      pop\n        /* \"#utility.yul\":8613:9548   */\n      swap5\n      swap4\n      pop\n      pop\n      pop\n      pop\n      jump\t// out\n        /* \"#utility.yul\":9554:9911   */\n    tag_31:\n        /* \"#utility.yul\":9689:9693   */\n      0x00\n        /* \"#utility.yul\":9727:9729   */\n      0x20\n        /* \"#utility.yul\":9716:9725   */\n      dup3\n        /* \"#utility.yul\":9712:9730   */\n      add\n        /* \"#utility.yul\":9704:9730   */\n      swap1\n      pop\n        /* \"#utility.yul\":9776:9785   */\n      dup2\n        /* \"#utility.yul\":9770:9774   */\n      dup2\n        /* \"#utility.yul\":9766:9786   */\n      sub\n        /* \"#utility.yul\":9762:9763   */\n      0x00\n        /* \"#utility.yul\":9751:9760   */\n      dup4\n        /* \"#utility.yul\":9747:9764   */\n      add\n        /* \"#utility.yul\":9740:9787   */\n      mstore\n        /* \"#utility.yul\":9804:9904   */\n      tag_237\n        /* \"#utility.yul\":9899:9903   */\n      dup2\n        /* \"#utility.yul\":9890:9896   */\n      dup5\n        /* \"#utility.yul\":9804:9904   */\n      tag_219\n      jump\t// in\n    tag_237:\n        /* \"#utility.yul\":9796:9904   */\n      swap1\n      pop\n        /* \"#utility.yul\":9554:9911   */\n      swap3\n      swap2\n      pop\n      pop\n      jump\t// out\n        /* \"#utility.yul\":9917:10139   */\n    tag_16:\n        /* \"#utility.yul\":10010:10014   */\n      0x00\n        /* \"#utility.yul\":10048:10050   */\n      0x20\n        /* \"#utility.yul\":10037:10046   */\n      dup3\n        /* \"#utility.yul\":10033:10051   */\n      add\n        /* \"#utility.yul\":10025:10051   */\n      swap1\n      pop\n        /* \"#utility.yul\":10061:10132   */\n      tag_239\n        /* \"#utility.yul\":10129:10130   */\n      0x00\n        /* \"#utility.yul\":10118:10127   */\n      dup4\n        /* \"#utility.yul\":10114:10131   */\n      add\n        /* \"#utility.yul\":10105:10111   */\n      dup5\n        /* \"#utility.yul\":10061:10132   */\n      tag_227\n      jump\t// in\n    tag_239:\n        /* \"#utility.yul\":9917:10139   */\n      swap3\n      swap2\n      pop\n      pop\n      jump\t// out\n        /* \"#utility.yul\":10145:10678   */\n    tag_26:\n        /* \"#utility.yul\":10314:10318   */\n      0x00\n        /* \"#utility.yul\":10352:10354   */\n      0x60\n        /* \"#utility.yul\":10341:10350   */\n      dup3\n        /* \"#utility.yul\":10337:10355   */\n      add\n        /* \"#utility.yul\":10329:10355   */\n      swap1\n      pop\n        /* \"#utility.yul\":10365:10436   */\n      tag_241\n        /* \"#utility.yul\":10433:10434   */\n      0x00\n        /* \"#utility.yul\":10422:10431   */\n      dup4\n        /* \"#utility.yul\":10418:10435   */\n      add\n        /* \"#utility.yul\":10409:10415   */\n      dup7\n        /* \"#utility.yul\":10365:10436   */\n      tag_227\n      jump\t// in\n    tag_241:\n        /* \"#utility.yul\":10483:10492   */\n      dup2\n        /* \"#utility.yul\":10477:10481   */\n      dup2\n        /* \"#utility.yul\":10473:10493   */\n      sub\n        /* \"#utility.yul\":10468:10470   */\n      0x20\n        /* \"#utility.yul\":10457:10466   */\n      dup4\n        /* \"#utility.yul\":10453:10471   */\n      add\n        /* \"#utility.yul\":10446:10494   */\n      mstore\n        /* \"#utility.yul\":10511:10589   */\n      tag_242\n        /* \"#utility.yul\":10584:10588   */\n      dup2\n        /* \"#utility.yul\":10575:10581   */\n      dup6\n        /* \"#utility.yul\":10511:10589   */\n      tag_208\n      jump\t// in\n    tag_242:\n        /* \"#utility.yul\":10503:10589   */\n      swap1\n      pop\n        /* \"#utility.yul\":10599:10671   */\n      tag_243\n        /* \"#utility.yul\":10667:10669   */\n      0x40\n        /* \"#utility.yul\":10656:10665   */\n      dup4\n        /* \"#utility.yul\":10652:10670   */\n      add\n        /* \"#utility.yul\":10643:10649   */\n      dup5\n        /* \"#utility.yul\":10599:10671   */\n      tag_227\n      jump\t// in\n    tag_243:\n        /* \"#utility.yul\":10145:10678   */\n      swap5\n      swap4\n      pop\n      pop\n      pop\n      pop\n      jump\t// out\n        /* \"#utility.yul\":10684:10813   */\n    tag_116:\n        /* \"#utility.yul\":10718:10724   */\n      0x00\n        /* \"#utility.yul\":10745:10765   */\n      tag_245\n      tag_246\n      jump\t// in\n    tag_245:\n        /* \"#utility.yul\":10735:10765   */\n      swap1\n      pop\n        /* \"#utility.yul\":10774:10807   */\n      tag_247\n        /* \"#utility.yul\":10802:10806   */\n      dup3\n        /* \"#utility.yul\":10794:10800   */\n      dup3\n        /* \"#utility.yul\":10774:10807   */\n      tag_248\n      jump\t// in\n    tag_247:\n        /* \"#utility.yul\":10684:10813   */\n      swap2\n      swap1\n      pop\n      jump\t// out\n        /* \"#utility.yul\":10819:10894   */\n    tag_246:\n        /* \"#utility.yul\":10852:10858   */\n      0x00\n        /* \"#utility.yul\":10885:10887   */\n      0x40\n        /* \"#utility.yul\":10879:10888   */\n      mload\n        /* \"#utility.yul\":10869:10888   */\n      swap1\n      pop\n        /* \"#utility.yul\":10819:10894   */\n      swap1\n      jump\t// out\n        /* \"#utility.yul\":10900:11208   */\n    tag_115:\n        /* \"#utility.yul\":10962:10966   */\n      0x00\n        /* \"#utility.yul\":11052:11070   */\n      0xffffffffffffffff\n        /* \"#utility.yul\":11044:11050   */\n      dup3\n        /* \"#utility.yul\":11041:11071   */\n      gt\n        /* \"#utility.yul\":11038:11094   */\n      iszero\n      tag_251\n      jumpi\n        /* \"#utility.yul\":11074:11092   */\n      tag_252\n      tag_39\n      jump\t// in\n    tag_252:\n        /* \"#utility.yul\":11038:11094   */\n    tag_251:\n        /* \"#utility.yul\":11112:11141   */\n      tag_253\n        /* \"#utility.yul\":11134:11140   */\n      dup3\n        /* \"#utility.yul\":11112:11141   */\n      tag_207\n      jump\t// in\n    tag_253:\n        /* \"#utility.yul\":11104:11141   */\n      swap1\n      pop\n        /* \"#utility.yul\":11196:11200   */\n      0x20\n        /* \"#utility.yul\":11190:11194   */\n      dup2\n        /* \"#utility.yul\":11186:11201   */\n      add\n        /* \"#utility.yul\":11178:11201   */\n      swap1\n      pop\n        /* \"#utility.yul\":10900:11208   */\n      swap2\n      swap1\n      pop\n      jump\t// out\n        /* \"#utility.yul\":11214:11356   */\n    tag_164:\n        /* \"#utility.yul\":11291:11295   */\n      0x00\n        /* \"#utility.yul\":11314:11317   */\n      dup2\n        /* \"#utility.yul\":11306:11317   */\n      swap1\n      pop\n        /* \"#utility.yul\":11344:11348   */\n      0x20\n        /* \"#utility.yul\":11339:11342   */\n      dup3\n        /* \"#utility.yul\":11335:11349   */\n      add\n        /* \"#utility.yul\":11327:11349   */\n      swap1\n      pop\n        /* \"#utility.yul\":11214:11356   */\n      swap2\n      swap1\n      pop\n      jump\t// out\n        /* \"#utility.yul\":11362:11515   */\n    tag_178:\n        /* \"#utility.yul\":11450:11454   */\n      0x00\n        /* \"#utility.yul\":11473:11476   */\n      dup2\n        /* \"#utility.yul\":11465:11476   */\n      swap1\n      pop\n        /* \"#utility.yul\":11503:11507   */\n      0x20\n        /* \"#utility.yul\":11498:11501   */\n      dup3\n        /* \"#utility.yul\":11494:11508   */\n      add\n        /* \"#utility.yul\":11486:11508   */\n      swap1\n      pop\n        /* \"#utility.yul\":11362:11515   */\n      swap2\n      swap1\n      pop\n      jump\t// out\n        /* \"#utility.yul\":11521:11653   */\n    tag_192:\n        /* \"#utility.yul\":11588:11592   */\n      0x00\n        /* \"#utility.yul\":11611:11614   */\n      dup2\n        /* \"#utility.yul\":11603:11614   */\n      swap1\n      pop\n        /* \"#utility.yul\":11641:11645   */\n      0x20\n        /* \"#utility.yul\":11636:11639   */\n      dup3\n        /* \"#utility.yul\":11632:11646   */\n      add\n        /* \"#utility.yul\":11624:11646   */\n      swap1\n      pop\n        /* \"#utility.yul\":11521:11653   */\n      swap2\n      swap1\n      pop\n      jump\t// out\n        /* \"#utility.yul\":11659:11783   */\n    tag_160:\n        /* \"#utility.yul\":11736:11742   */\n      0x00\n        /* \"#utility.yul\":11770:11775   */\n      dup2\n        /* \"#utility.yul\":11764:11776   */\n      mload\n        /* \"#utility.yul\":11754:11776   */\n      swap1\n      pop\n        /* \"#utility.yul\":11659:11783   */\n      swap2\n      swap1\n      pop\n      jump\t// out\n        /* \"#utility.yul\":11789:11924   */\n    tag_174:\n        /* \"#utility.yul\":11877:11883   */\n      0x00\n        /* \"#utility.yul\":11911:11916   */\n      dup2\n        /* \"#utility.yul\":11905:11917   */\n      mload\n        /* \"#utility.yul\":11895:11917   */\n      swap1\n      pop\n        /* \"#utility.yul\":11789:11924   */\n      swap2\n      swap1\n      pop\n      jump\t// out\n        /* \"#utility.yul\":11930:12044   */\n    tag_188:\n        /* \"#utility.yul\":11997:12003   */\n      0x00\n        /* \"#utility.yul\":12031:12036   */\n      dup2\n        /* \"#utility.yul\":12025:12037   */\n      mload\n        /* \"#utility.yul\":12015:12037   */\n      swap1\n      pop\n        /* \"#utility.yul\":11930:12044   */\n      swap2\n      swap1\n      pop\n      jump\t// out\n        /* \"#utility.yul\":12050:12149   */\n    tag_201:\n        /* \"#utility.yul\":12102:12108   */\n      0x00\n        /* \"#utility.yul\":12136:12141   */\n      dup2\n        /* \"#utility.yul\":12130:12142   */\n      mload\n        /* \"#utility.yul\":12120:12142   */\n      swap1\n      pop\n        /* \"#utility.yul\":12050:12149   */\n      swap2\n      swap1\n      pop\n      jump\t// out\n        /* \"#utility.yul\":12155:12278   */\n    tag_170:\n        /* \"#utility.yul\":12235:12239   */\n      0x00\n        /* \"#utility.yul\":12267:12271   */\n      0x20\n        /* \"#utility.yul\":12262:12265   */\n      dup3\n        /* \"#utility.yul\":12258:12272   */\n      add\n        /* \"#utility.yul\":12250:12272   */\n      swap1\n      pop\n        /* \"#utility.yul\":12155:12278   */\n      swap2\n      swap1\n      pop\n      jump\t// out\n        /* \"#utility.yul\":12284:12418   */\n    tag_184:\n        /* \"#utility.yul\":12375:12379   */\n      0x00\n        /* \"#utility.yul\":12407:12411   */\n      0x20\n        /* \"#utility.yul\":12402:12405   */\n      dup3\n        /* \"#utility.yul\":12398:12412   */\n      add\n        /* \"#utility.yul\":12390:12412   */\n      swap1\n      pop\n        /* \"#utility.yul\":12284:12418   */\n      swap2\n      swap1\n      pop\n      jump\t// out\n        /* \"#utility.yul\":12424:12537   */\n    tag_198:\n        /* \"#utility.yul\":12494:12498   */\n      0x00\n        /* \"#utility.yul\":12526:12530   */\n      0x20\n        /* \"#utility.yul\":12521:12524   */\n      dup3\n        /* \"#utility.yul\":12517:12531   */\n      add\n        /* \"#utility.yul\":12509:12531   */\n      swap1\n      pop\n        /* \"#utility.yul\":12424:12537   */\n      swap2\n      swap1\n      pop\n      jump\t// out\n        /* \"#utility.yul\":12543:12737   */\n    tag_162:\n        /* \"#utility.yul\":12652:12663   */\n      0x00\n        /* \"#utility.yul\":12686:12692   */\n      dup3\n        /* \"#utility.yul\":12681:12684   */\n      dup3\n        /* \"#utility.yul\":12674:12693   */\n      mstore\n        /* \"#utility.yul\":12726:12730   */\n      0x20\n        /* \"#utility.yul\":12721:12724   */\n      dup3\n        /* \"#utility.yul\":12717:12731   */\n      add\n        /* \"#utility.yul\":12702:12731   */\n      swap1\n      pop\n        /* \"#utility.yul\":12543:12737   */\n      swap3\n      swap2\n      pop\n      pop\n      jump\t// out\n        /* \"#utility.yul\":12743:12948   */\n    tag_176:\n        /* \"#utility.yul\":12863:12874   */\n      0x00\n        /* \"#utility.yul\":12897:12903   */\n      dup3\n        /* \"#utility.yul\":12892:12895   */\n      dup3\n        /* \"#utility.yul\":12885:12904   */\n      mstore\n        /* \"#utility.yul\":12937:12941   */\n      0x20\n        /* \"#utility.yul\":12932:12935   */\n      dup3\n        /* \"#utility.yul\":12928:12942   */\n      add\n        /* \"#utility.yul\":12913:12942   */\n      swap1\n      pop\n        /* \"#utility.yul\":12743:12948   */\n      swap3\n      swap2\n      pop\n      pop\n      jump\t// out\n        /* \"#utility.yul\":12954:13138   */\n    tag_190:\n        /* \"#utility.yul\":13053:13064   */\n      0x00\n        /* \"#utility.yul\":13087:13093   */\n      dup3\n        /* \"#utility.yul\":13082:13085   */\n      dup3\n        /* \"#utility.yul\":13075:13094   */\n      mstore\n        /* \"#utility.yul\":13127:13131   */\n      0x20\n        /* \"#utility.yul\":13122:13125   */\n      dup3\n        /* \"#utility.yul\":13118:13132   */\n      add\n        /* \"#utility.yul\":13103:13132   */\n      swap1\n      pop\n        /* \"#utility.yul\":12954:13138   */\n      swap3\n      swap2\n      pop\n      pop\n      jump\t// out\n        /* \"#utility.yul\":13144:13303   */\n    tag_203:\n        /* \"#utility.yul\":13218:13229   */\n      0x00\n        /* \"#utility.yul\":13252:13258   */\n      dup3\n        /* \"#utility.yul\":13247:13250   */\n      dup3\n        /* \"#utility.yul\":13240:13259   */\n      mstore\n        /* \"#utility.yul\":13292:13296   */\n      0x20\n        /* \"#utility.yul\":13287:13290   */\n      dup3\n        /* \"#utility.yul\":13283:13297   */\n      add\n        /* \"#utility.yul\":13268:13297   */\n      swap1\n      pop\n        /* \"#utility.yul\":13144:13303   */\n      swap3\n      swap2\n      pop\n      pop\n      jump\t// out\n        /* \"#utility.yul\":13309:13478   */\n    tag_212:\n        /* \"#utility.yul\":13393:13404   */\n      0x00\n        /* \"#utility.yul\":13427:13433   */\n      dup3\n        /* \"#utility.yul\":13422:13425   */\n      dup3\n        /* \"#utility.yul\":13415:13434   */\n      mstore\n        /* \"#utility.yul\":13467:13471   */\n      0x20\n        /* \"#utility.yul\":13462:13465   */\n      dup3\n        /* \"#utility.yul\":13458:13472   */\n      add\n        /* \"#utility.yul\":13443:13472   */\n      swap1\n      pop\n        /* \"#utility.yul\":13309:13478   */\n      swap3\n      swap2\n      pop\n      pop\n      jump\t// out\n        /* \"#utility.yul\":13484:13561   */\n    tag_226:\n        /* \"#utility.yul\":13521:13528   */\n      0x00\n        /* \"#utility.yul\":13550:13555   */\n      dup2\n        /* \"#utility.yul\":13539:13555   */\n      swap1\n      pop\n        /* \"#utility.yul\":13484:13561   */\n      swap2\n      swap1\n      pop\n      jump\t// out\n        /* \"#utility.yul\":13567:13721   */\n    tag_121:\n        /* \"#utility.yul\":13651:13657   */\n      dup3\n        /* \"#utility.yul\":13646:13649   */\n      dup2\n        /* \"#utility.yul\":13641:13644   */\n      dup4\n        /* \"#utility.yul\":13628:13658   */\n      calldatacopy\n        /* \"#utility.yul\":13713:13714   */\n      0x00\n        /* \"#utility.yul\":13704:13710   */\n      dup4\n        /* \"#utility.yul\":13699:13702   */\n      dup4\n        /* \"#utility.yul\":13695:13711   */\n      add\n        /* \"#utility.yul\":13688:13715   */\n      mstore\n        /* \"#utility.yul\":13567:13721   */\n      pop\n      pop\n      pop\n      jump\t// out\n        /* \"#utility.yul\":13727:14034   */\n    tag_205:\n        /* \"#utility.yul\":13795:13796   */\n      0x00\n        /* \"#utility.yul\":13805:13918   */\n    tag_272:\n        /* \"#utility.yul\":13819:13825   */\n      dup4\n        /* \"#utility.yul\":13816:13817   */\n      dup2\n        /* \"#utility.yul\":13813:13826   */\n      lt\n        /* \"#utility.yul\":13805:13918   */\n      iszero\n      tag_274\n      jumpi\n        /* \"#utility.yul\":13904:13905   */\n      dup1\n        /* \"#utility.yul\":13899:13902   */\n      dup3\n        /* \"#utility.yul\":13895:13906   */\n      add\n        /* \"#utility.yul\":13889:13907   */\n      mload\n        /* \"#utility.yul\":13885:13886   */\n      dup2\n        /* \"#utility.yul\":13880:13883   */\n      dup5\n        /* \"#utility.yul\":13876:13887   */\n      add\n        /* \"#utility.yul\":13869:13908   */\n      mstore\n        /* \"#utility.yul\":13841:13843   */\n      0x20\n        /* \"#utility.yul\":13838:13839   */\n      dup2\n        /* \"#utility.yul\":13834:13844   */\n      add\n        /* \"#utility.yul\":13829:13844   */\n      swap1\n      pop\n        /* \"#utility.yul\":13805:13918   */\n      jump(tag_272)\n    tag_274:\n        /* \"#utility.yul\":13936:13942   */\n      dup4\n        /* \"#utility.yul\":13933:13934   */\n      dup2\n        /* \"#utility.yul\":13930:13943   */\n      gt\n        /* \"#utility.yul\":13927:14028   */\n      iszero\n      tag_275\n      jumpi\n        /* \"#utility.yul\":14016:14017   */\n      0x00\n        /* \"#utility.yul\":14007:14013   */\n      dup5\n        /* \"#utility.yul\":14002:14005   */\n      dup5\n        /* \"#utility.yul\":13998:14014   */\n      add\n        /* \"#utility.yul\":13991:14018   */\n      mstore\n        /* \"#utility.yul\":13927:14028   */\n    tag_275:\n        /* \"#utility.yul\":13776:14034   */\n      pop\n        /* \"#utility.yul\":13727:14034   */\n      pop\n      pop\n      pop\n      jump\t// out\n        /* \"#utility.yul\":14040:14360   */\n    tag_55:\n        /* \"#utility.yul\":14084:14090   */\n      0x00\n        /* \"#utility.yul\":14121:14122   */\n      0x02\n        /* \"#utility.yul\":14115:14119   */\n      dup3\n        /* \"#utility.yul\":14111:14123   */\n      div\n        /* \"#utility.yul\":14101:14123   */\n      swap1\n      pop\n        /* \"#utility.yul\":14168:14169   */\n      0x01\n        /* \"#utility.yul\":14162:14166   */\n      dup3\n        /* \"#utility.yul\":14158:14170   */\n      and\n        /* \"#utility.yul\":14189:14207   */\n      dup1\n        /* \"#utility.yul\":14179:14260   */\n      tag_277\n      jumpi\n        /* \"#utility.yul\":14245:14249   */\n      0x7f\n        /* \"#utility.yul\":14237:14243   */\n      dup3\n        /* \"#utility.yul\":14233:14250   */\n      and\n        /* \"#utility.yul\":14223:14250   */\n      swap2\n      pop\n        /* \"#utility.yul\":14179:14260   */\n    tag_277:\n        /* \"#utility.yul\":14307:14309   */\n      0x20\n        /* \"#utility.yul\":14299:14305   */\n      dup3\n        /* \"#utility.yul\":14296:14310   */\n      lt\n        /* \"#utility.yul\":14276:14294   */\n      dup2\n        /* \"#utility.yul\":14273:14311   */\n      eq\n        /* \"#utility.yul\":14270:14354   */\n      iszero\n      tag_278\n      jumpi\n        /* \"#utility.yul\":14326:14344   */\n      tag_279\n      tag_280\n      jump\t// in\n    tag_279:\n        /* \"#utility.yul\":14270:14354   */\n    tag_278:\n        /* \"#utility.yul\":14091:14360   */\n      pop\n        /* \"#utility.yul\":14040:14360   */\n      swap2\n      swap1\n      pop\n      jump\t// out\n        /* \"#utility.yul\":14366:14647   */\n    tag_248:\n        /* \"#utility.yul\":14449:14476   */\n      tag_282\n        /* \"#utility.yul\":14471:14475   */\n      dup3\n        /* \"#utility.yul\":14449:14476   */\n      tag_207\n      jump\t// in\n    tag_282:\n        /* \"#utility.yul\":14441:14447   */\n      dup2\n        /* \"#utility.yul\":14437:14477   */\n      add\n        /* \"#utility.yul\":14579:14585   */\n      dup2\n        /* \"#utility.yul\":14567:14577   */\n      dup2\n        /* \"#utility.yul\":14564:14586   */\n      lt\n        /* \"#utility.yul\":14543:14561   */\n      0xffffffffffffffff\n        /* \"#utility.yul\":14531:14541   */\n      dup3\n        /* \"#utility.yul\":14528:14562   */\n      gt\n        /* \"#utility.yul\":14525:14587   */\n      or\n        /* \"#utility.yul\":14522:14610   */\n      iszero\n      tag_283\n      jumpi\n        /* \"#utility.yul\":14590:14608   */\n      tag_284\n      tag_39\n      jump\t// in\n    tag_284:\n        /* \"#utility.yul\":14522:14610   */\n    tag_283:\n        /* \"#utility.yul\":14630:14640   */\n      dup1\n        /* \"#utility.yul\":14626:14628   */\n      0x40\n        /* \"#utility.yul\":14619:14641   */\n      mstore\n        /* \"#utility.yul\":14409:14647   */\n      pop\n        /* \"#utility.yul\":14366:14647   */\n      pop\n      pop\n      jump\t// out\n        /* \"#utility.yul\":14653:14886   */\n    tag_65:\n        /* \"#utility.yul\":14692:14695   */\n      0x00\n        /* \"#utility.yul\":14715:14739   */\n      tag_286\n        /* \"#utility.yul\":14733:14738   */\n      dup3\n        /* \"#utility.yul\":14715:14739   */\n      tag_226\n      jump\t// in\n    tag_286:\n        /* \"#utility.yul\":14706:14739   */\n      swap2\n      pop\n        /* \"#utility.yul\":14761:14827   */\n      0xffffffffffffffffffffffffffffffffffffffffffffffffffffffffffffffff\n        /* \"#utility.yul\":14754:14759   */\n      dup3\n        /* \"#utility.yul\":14751:14828   */\n      eq\n        /* \"#utility.yul\":14748:14851   */\n      iszero\n      tag_287\n      jumpi\n        /* \"#utility.yul\":14831:14849   */\n      tag_288\n      tag_289\n      jump\t// in\n    tag_288:\n        /* \"#utility.yul\":14748:14851   */\n    tag_287:\n        /* \"#utility.yul\":14878:14879   */\n      0x01\n        /* \"#utility.yul\":14871:14876   */\n      dup3\n        /* \"#utility.yul\":14867:14880   */\n      add\n        /* \"#utility.yul\":14860:14880   */\n      swap1\n      pop\n        /* \"#utility.yul\":14653:14886   */\n      swap2\n      swap1\n      pop\n      jump\t// out\n        /* \"#utility.yul\":14892:15072   */\n    tag_289:\n        /* \"#utility.yul\":14940:15017   */\n      0x4e487b7100000000000000000000000000000000000000000000000000000000\n        /* \"#utility.yul\":14937:14938   */\n      0x00\n        /* \"#utility.yul\":14930:15018   */\n      mstore\n        /* \"#utility.yul\":15037:15041   */\n      0x11\n        /* \"#utility.yul\":15034:15035   */\n      0x04\n        /* \"#utility.yul\":15027:15042   */\n      mstore\n        /* \"#utility.yul\":15061:15065   */\n      0x24\n        /* \"#utility.yul\":15058:15059   */\n      0x00\n        /* \"#utility.yul\":15051:15066   */\n      revert\n        /* \"#utility.yul\":15078:15258   */\n    tag_280:\n        /* \"#utility.yul\":15126:15203   */\n      0x4e487b7100000000000000000000000000000000000000000000000000000000\n        /* \"#utility.yul\":15123:15124   */\n      0x00\n        /* \"#utility.yul\":15116:15204   */\n      mstore\n        /* \"#utility.yul\":15223:15227   */\n      0x22\n        /* \"#utility.yul\":15220:15221   */\n      0x04\n        /* \"#utility.yul\":15213:15228   */\n      mstore\n        /* \"#utility.yul\":15247:15251   */\n      0x24\n        /* \"#utility.yul\":15244:15245   */\n      0x00\n        /* \"#utility.yul\":15237:15252   */\n      revert\n        /* \"#utility.yul\":15264:15444   */\n    tag_53:\n        /* \"#utility.yul\":15312:15389   */\n      0x4e487b7100000000000000000000000000000000000000000000000000000000\n        /* \"#utility.yul\":15309:15310   */\n      0x00\n        /* \"#utility.yul\":15302:15390   */\n      mstore\n        /* \"#utility.yul\":15409:15413   */\n      0x32\n        /* \"#utility.yul\":15406:15407   */\n      0x04\n        /* \"#utility.yul\":15399:15414   */\n      mstore\n        /* \"#utility.yul\":15433:15437   */\n      0x24\n        /* \"#utility.yul\":15430:15431   */\n      0x00\n        /* \"#utility.yul\":15423:15438   */\n      revert\n        /* \"#utility.yul\":15450:15630   */\n    tag_39:\n        /* \"#utility.yul\":15498:15575   */\n      0x4e487b7100000000000000000000000000000000000000000000000000000000\n        /* \"#utility.yul\":15495:15496   */\n      0x00\n        /* \"#utility.yul\":15488:15576   */\n      mstore\n        /* \"#utility.yul\":15595:15599   */\n      0x41\n        /* \"#utility.yul\":15592:15593   */\n      0x04\n        /* \"#utility.yul\":15585:15600   */\n      mstore\n        /* \"#utility.yul\":15619:15623   */\n      0x24\n        /* \"#utility.yul\":15616:15617   */\n      0x00\n        /* \"#utility.yul\":15609:15624   */\n      revert\n        /* \"#utility.yul\":15636:15753   */\n    tag_126:\n        /* \"#utility.yul\":15745:15746   */\n      0x00\n        /* \"#utility.yul\":15742:15743   */\n      dup1\n        /* \"#utility.yul\":15735:15747   */\n      revert\n        /* \"#utility.yul\":15759:15876   */\n    tag_119:\n        /* \"#utility.yul\":15868:15869   */\n      0x00\n        /* \"#utility.yul\":15865:15866   */\n      dup1\n        /* \"#utility.yul\":15858:15870   */\n      revert\n        /* \"#utility.yul\":15882:15999   */\n    tag_138:\n        /* \"#utility.yul\":15991:15992   */\n      0x00\n        /* \"#utility.yul\":15988:15989   */\n      dup1\n        /* \"#utility.yul\":15981:15993   */\n      revert\n        /* \"#utility.yul\":16005:16122   */\n    tag_135:\n        /* \"#utility.yul\":16114:16115   */\n      0x00\n        /* \"#utility.yul\":16111:16112   */\n      dup1\n        /* \"#utility.yul\":16104:16116   */\n      revert\n        /* \"#utility.yul\":16128:16230   */\n    tag_207:\n        /* \"#utility.yul\":16169:16175   */\n      0x00\n        /* \"#utility.yul\":16220:16222   */\n      0x1f\n        /* \"#utility.yul\":16216:16223   */\n      not\n        /* \"#utility.yul\":16211:16213   */\n      0x1f\n        /* \"#utility.yul\":16204:16209   */\n      dup4\n        /* \"#utility.yul\":16200:16214   */\n      add\n        /* \"#utility.yul\":16196:16224   */\n      and\n        /* \"#utility.yul\":16186:16224   */\n      swap1\n      pop\n        /* \"#utility.yul\":16128:16230   */\n      swap2\n      swap1\n      pop\n      jump\t// out\n        /* \"#utility.yul\":16236:16358   */\n    tag_131:\n        /* \"#utility.yul\":16309:16333   */\n      tag_300\n        /* \"#utility.yul\":16327:16332   */\n      dup2\n        /* \"#utility.yul\":16309:16333   */\n      tag_226\n      jump\t// in\n    tag_300:\n        /* \"#utility.yul\":16302:16307   */\n      dup2\n        /* \"#utility.yul\":16299:16334   */\n      eq\n        /* \"#utility.yul\":16289:16352   */\n      tag_301\n      jumpi\n        /* \"#utility.yul\":16348:16349   */\n      0x00\n        /* \"#utility.yul\":16345:16346   */\n      dup1\n        /* \"#utility.yul\":16338:16350   */\n      revert\n        /* \"#utility.yul\":16289:16352   */\n    tag_301:\n        /* \"#utility.yul\":16236:16358   */\n      pop\n      jump\t// out\n\n    auxdata: 0xa264697066735822122080252246cdbda2ea79600a486d229779e10ff3614e134b4c8438f2bd572a6c1564736f6c63430008070033\n}\n",
				"bytecode": {
					"linkReferences": {},
					"object": "60806040523480156200001157600080fd5b506000600181905550620000636040518060400160405280600581526020017f6368726973000000000000000000000000000000000000000000000000000000815250612328620000b260201b60201c565b620000ac6040518060400160405280600681526020017f79617373696e0000000000000000000000000000000000000000000000000000815250611770620000b260201b60201c565b620002d3565b604051806060016040528060015481526020018381526020018281525060008060015481526020019081526020016000206000820151816000015560208201518160010190805190602001906200010b92919062000137565b5060408201518160020155905050600160008154809291906200012e9062000227565b91905055505050565b8280546200014590620001f1565b90600052602060002090601f016020900481019282620001695760008555620001b5565b82601f106200018457805160ff1916838001178555620001b5565b82800160010185558215620001b5579182015b82811115620001b457825182559160200191906001019062000197565b5b509050620001c49190620001c8565b5090565b5b80821115620001e3576000816000905550600101620001c9565b5090565b6000819050919050565b600060028204905060018216806200020a57607f821691505b60208210811415620002215762000220620002a4565b5b50919050565b60006200023482620001e7565b91507fffffffffffffffffffffffffffffffffffffffffffffffffffffffffffffffff8214156200026a576200026962000275565b5b600182019050919050565b7f4e487b7100000000000000000000000000000000000000000000000000000000600052601160045260246000fd5b7f4e487b7100000000000000000000000000000000000000000000000000000000600052602260045260246000fd5b610fb180620002e36000396000f3fe608060405234801561001057600080fd5b50600436106100625760003560e01c80630274c0941461006757806311aee3801461008757806316a8fc38146100a55780635daf08ca146100c15780639507d39a146100f35780639eab525314610123575b600080fd5b61006f610141565b60405161007e93929190610b96565b60405180910390f35b61008f610374565b60405161009c9190610c04565b60405180910390f35b6100bf60048036038101906100ba9190610833565b61037a565b005b6100db60048036038101906100d6919061088f565b6103fb565b6040516100ea93929190610c1f565b60405180910390f35b61010d6004803603810190610108919061088f565b6104ad565b60405161011a9190610be2565b60405180910390f35b61012b61057f565b6040516101389190610b74565b60405180910390f35b6060806060600060015467ffffffffffffffff81111561016457610163610f10565b5b6040519080825280602002602001820160405280156101925781602001602082028036833780820191505090505b509050600060015467ffffffffffffffff8111156101b3576101b2610f10565b5b6040519080825280602002602001820160405280156101e657816020015b60608152602001906001900390816101d15790505b509050600060015467ffffffffffffffff81111561020757610206610f10565b5b6040519080825280602002602001820160405280156102355781602001602082028036833780820191505090505b50905060005b6001548110156103625760008060008381526020019081526020016000209050806000015485838151811061027357610272610ee1565b5b60200260200101818152505080600101805461028e90610dd7565b80601f01602080910402602001604051908101604052809291908181526020018280546102ba90610dd7565b80156103075780601f106102dc57610100808354040283529160200191610307565b820191906000526020600020905b8154815290600101906020018083116102ea57829003601f168201915b505050505084838151811061031f5761031e610ee1565b5b6020026020010181905250806002015483838151811061034257610341610ee1565b5b60200260200101818152505050808061035a90610e3a565b91505061023b565b50828282955095509550505050909192565b60015481565b604051806060016040528060015481526020018381526020018281525060008060015481526020019081526020016000206000820151816000015560208201518160010190805190602001906103d19291906106ea565b5060408201518160020155905050600160008154809291906103f290610e3a565b91905055505050565b600060205280600052604060002060009150905080600001549080600101805461042490610dd7565b80601f016020809104026020016040519081016040528092919081815260200182805461045090610dd7565b801561049d5780601f106104725761010080835404028352916020019161049d565b820191906000526020600020905b81548152906001019060200180831161048057829003601f168201915b5050505050908060020154905083565b6104b5610770565b600080838152602001908152602001600020604051806060016040529081600082015481526020016001820180546104ec90610dd7565b80601f016020809104026020016040519081016040528092919081815260200182805461051890610dd7565b80156105655780601f1061053a57610100808354040283529160200191610565565b820191906000526020600020905b81548152906001019060200180831161054857829003601f168201915b505050505081526020016002820154815250509050919050565b6060600060015467ffffffffffffffff81111561059f5761059e610f10565b5b6040519080825280602002602001820160405280156105d857816020015b6105c5610770565b8152602001906001900390816105bd5790505b50905060005b6001548110156106e25760008060008381526020019081526020016000209050806040518060600160405290816000820154815260200160018201805461062490610dd7565b80601f016020809104026020016040519081016040528092919081815260200182805461065090610dd7565b801561069d5780601f106106725761010080835404028352916020019161069d565b820191906000526020600020905b81548152906001019060200180831161068057829003601f168201915b505050505081526020016002820154815250508383815181106106c3576106c2610ee1565b5b60200260200101819052505080806106da90610e3a565b9150506105de565b508091505090565b8280546106f690610dd7565b90600052602060002090601f016020900481019282610718576000855561075f565b82601f1061073157805160ff191683800117855561075f565b8280016001018555821561075f579182015b8281111561075e578251825591602001919060010190610743565b5b50905061076c9190610791565b5090565b60405180606001604052806000815260200160608152602001600081525090565b5b808211156107aa576000816000905550600101610792565b5090565b60006107c16107bc84610c82565b610c5d565b9050828152602081018484840111156107dd576107dc610f44565b5b6107e8848285610d95565b509392505050565b600082601f83011261080557610804610f3f565b5b81356108158482602086016107ae565b91505092915050565b60008135905061082d81610f64565b92915050565b6000806040838503121561084a57610849610f4e565b5b600083013567ffffffffffffffff81111561086857610867610f49565b5b610874858286016107f0565b92505060206108858582860161081e565b9150509250929050565b6000602082840312156108a5576108a4610f4e565b5b60006108b38482850161081e565b91505092915050565b60006108c88383610a44565b905092915050565b60006108dc8383610ab6565b905092915050565b60006108f08383610b56565b60208301905092915050565b600061090782610ce3565b6109118185610d36565b93508360208202850161092385610cb3565b8060005b8581101561095f578484038952815161094085826108bc565b945061094b83610d0f565b925060208a01995050600181019050610927565b50829750879550505050505092915050565b600061097c82610cee565b6109868185610d47565b93508360208202850161099885610cc3565b8060005b858110156109d457848403895281516109b585826108d0565b94506109c083610d1c565b925060208a0199505060018101905061099c565b50829750879550505050505092915050565b60006109f182610cf9565b6109fb8185610d58565b9350610a0683610cd3565b8060005b83811015610a37578151610a1e88826108e4565b9750610a2983610d29565b925050600181019050610a0a565b5085935050505092915050565b6000610a4f82610d04565b610a598185610d69565b9350610a69818560208601610da4565b610a7281610f53565b840191505092915050565b6000610a8882610d04565b610a928185610d7a565b9350610aa2818560208601610da4565b610aab81610f53565b840191505092915050565b6000606083016000830151610ace6000860182610b56565b5060208301518482036020860152610ae68282610a44565b9150506040830151610afb6040860182610b56565b508091505092915050565b6000606083016000830151610b1e6000860182610b56565b5060208301518482036020860152610b368282610a44565b9150506040830151610b4b6040860182610b56565b508091505092915050565b610b5f81610d8b565b82525050565b610b6e81610d8b565b82525050565b60006020820190508181036000830152610b8e8184610971565b905092915050565b60006060820190508181036000830152610bb081866109e6565b90508181036020830152610bc481856108fc565b90508181036040830152610bd881846109e6565b9050949350505050565b60006020820190508181036000830152610bfc8184610b06565b905092915050565b6000602082019050610c196000830184610b65565b92915050565b6000606082019050610c346000830186610b65565b8181036020830152610c468185610a7d565b9050610c556040830184610b65565b949350505050565b6000610c67610c78565b9050610c738282610e09565b919050565b6000604051905090565b600067ffffffffffffffff821115610c9d57610c9c610f10565b5b610ca682610f53565b9050602081019050919050565b6000819050602082019050919050565b6000819050602082019050919050565b6000819050602082019050919050565b600081519050919050565b600081519050919050565b600081519050919050565b600081519050919050565b6000602082019050919050565b6000602082019050919050565b6000602082019050919050565b600082825260208201905092915050565b600082825260208201905092915050565b600082825260208201905092915050565b600082825260208201905092915050565b600082825260208201905092915050565b6000819050919050565b82818337600083830152505050565b60005b83811015610dc2578082015181840152602081019050610da7565b83811115610dd1576000848401525b50505050565b60006002820490506001821680610def57607f821691505b60208210811415610e0357610e02610eb2565b5b50919050565b610e1282610f53565b810181811067ffffffffffffffff82111715610e3157610e30610f10565b5b80604052505050565b6000610e4582610d8b565b91507fffffffffffffffffffffffffffffffffffffffffffffffffffffffffffffffff821415610e7857610e77610e83565b5b600182019050919050565b7f4e487b7100000000000000000000000000000000000000000000000000000000600052601160045260246000fd5b7f4e487b7100000000000000000000000000000000000000000000000000000000600052602260045260246000fd5b7f4e487b7100000000000000000000000000000000000000000000000000000000600052603260045260246000fd5b7f4e487b7100000000000000000000000000000000000000000000000000000000600052604160045260246000fd5b600080fd5b600080fd5b600080fd5b600080fd5b6000601f19601f8301169050919050565b610f6d81610d8b565b8114610f7857600080fd5b5056fea264697066735822122080252246cdbda2ea79600a486d229779e10ff3614e134b4c8438f2bd572a6c1564736f6c63430008070033",
					"opcodes": "PUSH1 0x80 PUSH1 0x40 MSTORE CALLVALUE DUP1 ISZERO PUSH3 0x11 JUMPI PUSH1 0x0 DUP1 REVERT JUMPDEST POP PUSH1 0x0 PUSH1 0x1 DUP2 SWAP1 SSTORE POP PUSH3 0x63 PUSH1 0x40 MLOAD DUP1 PUSH1 0x40 ADD PUSH1 0x40 MSTORE DUP1 PUSH1 0x5 DUP2 MSTORE PUSH1 0x20 ADD PUSH32 0x6368726973000000000000000000000000000000000000000000000000000000 DUP2 MSTORE POP PUSH2 0x2328 PUSH3 0xB2 PUSH1 0x20 SHL PUSH1 0x20 SHR JUMP JUMPDEST PUSH3 0xAC PUSH1 0x40 MLOAD DUP1 PUSH1 0x40 ADD PUSH1 0x40 MSTORE DUP1 PUSH1 0x6 DUP2 MSTORE PUSH1 0x20 ADD PUSH32 0x79617373696E0000000000000000000000000000000000000000000000000000 DUP2 MSTORE POP PUSH2 0x1770 PUSH3 0xB2 PUSH1 0x20 SHL PUSH1 0x20 SHR JUMP JUMPDEST PUSH3 0x2D3 JUMP JUMPDEST PUSH1 0x40 MLOAD DUP1 PUSH1 0x60 ADD PUSH1 0x40 MSTORE DUP1 PUSH1 0x1 SLOAD DUP2 MSTORE PUSH1 0x20 ADD DUP4 DUP2 MSTORE PUSH1 0x20 ADD DUP3 DUP2 MSTORE POP PUSH1 0x0 DUP1 PUSH1 0x1 SLOAD DUP2 MSTORE PUSH1 0x20 ADD SWAP1 DUP2 MSTORE PUSH1 0x20 ADD PUSH1 0x0 KECCAK256 PUSH1 0x0 DUP3 ADD MLOAD DUP2 PUSH1 0x0 ADD SSTORE PUSH1 0x20 DUP3 ADD MLOAD DUP2 PUSH1 0x1 ADD SWAP1 DUP1 MLOAD SWAP1 PUSH1 0x20 ADD SWAP1 PUSH3 0x10B SWAP3 SWAP2 SWAP1 PUSH3 0x137 JUMP JUMPDEST POP PUSH1 0x40 DUP3 ADD MLOAD DUP2 PUSH1 0x2 ADD SSTORE SWAP1 POP POP PUSH1 0x1 PUSH1 0x0 DUP2 SLOAD DUP1 SWAP3 SWAP2 SWAP1 PUSH3 0x12E SWAP1 PUSH3 0x227 JUMP JUMPDEST SWAP2 SWAP1 POP SSTORE POP POP POP JUMP JUMPDEST DUP3 DUP1 SLOAD PUSH3 0x145 SWAP1 PUSH3 0x1F1 JUMP JUMPDEST SWAP1 PUSH1 0x0 MSTORE PUSH1 0x20 PUSH1 0x0 KECCAK256 SWAP1 PUSH1 0x1F ADD PUSH1 0x20 SWAP1 DIV DUP2 ADD SWAP3 DUP3 PUSH3 0x169 JUMPI PUSH1 0x0 DUP6 SSTORE PUSH3 0x1B5 JUMP JUMPDEST DUP3 PUSH1 0x1F LT PUSH3 0x184 JUMPI DUP1 MLOAD PUSH1 0xFF NOT AND DUP4 DUP1 ADD OR DUP6 SSTORE PUSH3 0x1B5 JUMP JUMPDEST DUP3 DUP1 ADD PUSH1 0x1 ADD DUP6 SSTORE DUP3 ISZERO PUSH3 0x1B5 JUMPI SWAP2 DUP3 ADD JUMPDEST DUP3 DUP2 GT ISZERO PUSH3 0x1B4 JUMPI DUP3 MLOAD DUP3 SSTORE SWAP2 PUSH1 0x20 ADD SWAP2 SWAP1 PUSH1 0x1 ADD SWAP1 PUSH3 0x197 JUMP JUMPDEST JUMPDEST POP SWAP1 POP PUSH3 0x1C4 SWAP2 SWAP1 PUSH3 0x1C8 JUMP JUMPDEST POP SWAP1 JUMP JUMPDEST JUMPDEST DUP1 DUP3 GT ISZERO PUSH3 0x1E3 JUMPI PUSH1 0x0 DUP2 PUSH1 0x0 SWAP1 SSTORE POP PUSH1 0x1 ADD PUSH3 0x1C9 JUMP JUMPDEST POP SWAP1 JUMP JUMPDEST PUSH1 0x0 DUP2 SWAP1 POP SWAP2 SWAP1 POP JUMP JUMPDEST PUSH1 0x0 PUSH1 0x2 DUP3 DIV SWAP1 POP PUSH1 0x1 DUP3 AND DUP1 PUSH3 0x20A JUMPI PUSH1 0x7F DUP3 AND SWAP2 POP JUMPDEST PUSH1 0x20 DUP3 LT DUP2 EQ ISZERO PUSH3 0x221 JUMPI PUSH3 0x220 PUSH3 0x2A4 JUMP JUMPDEST JUMPDEST POP SWAP2 SWAP1 POP JUMP JUMPDEST PUSH1 0x0 PUSH3 0x234 DUP3 PUSH3 0x1E7 JUMP JUMPDEST SWAP2 POP PUSH32 0xFFFFFFFFFFFFFFFFFFFFFFFFFFFFFFFFFFFFFFFFFFFFFFFFFFFFFFFFFFFFFFFF DUP3 EQ ISZERO PUSH3 0x26A JUMPI PUSH3 0x269 PUSH3 0x275 JUMP JUMPDEST JUMPDEST PUSH1 0x1 DUP3 ADD SWAP1 POP SWAP2 SWAP1 POP JUMP JUMPDEST PUSH32 0x4E487B7100000000000000000000000000000000000000000000000000000000 PUSH1 0x0 MSTORE PUSH1 0x11 PUSH1 0x4 MSTORE PUSH1 0x24 PUSH1 0x0 REVERT JUMPDEST PUSH32 0x4E487B7100000000000000000000000000000000000000000000000000000000 PUSH1 0x0 MSTORE PUSH1 0x22 PUSH1 0x4 MSTORE PUSH1 0x24 PUSH1 0x0 REVERT JUMPDEST PUSH2 0xFB1 DUP1 PUSH3 0x2E3 PUSH1 0x0 CODECOPY PUSH1 0x0 RETURN INVALID PUSH1 0x80 PUSH1 0x40 MSTORE CALLVALUE DUP1 ISZERO PUSH2 0x10 JUMPI PUSH1 0x0 DUP1 REVERT JUMPDEST POP PUSH1 0x4 CALLDATASIZE LT PUSH2 0x62 JUMPI PUSH1 0x0 CALLDATALOAD PUSH1 0xE0 SHR DUP1 PUSH4 0x274C094 EQ PUSH2 0x67 JUMPI DUP1 PUSH4 0x11AEE380 EQ PUSH2 0x87 JUMPI DUP1 PUSH4 0x16A8FC38 EQ PUSH2 0xA5 JUMPI DUP1 PUSH4 0x5DAF08CA EQ PUSH2 0xC1 JUMPI DUP1 PUSH4 0x9507D39A EQ PUSH2 0xF3 JUMPI DUP1 PUSH4 0x9EAB5253 EQ PUSH2 0x123 JUMPI JUMPDEST PUSH1 0x0 DUP1 REVERT JUMPDEST PUSH2 0x6F PUSH2 0x141 JUMP JUMPDEST PUSH1 0x40 MLOAD PUSH2 0x7E SWAP4 SWAP3 SWAP2 SWAP1 PUSH2 0xB96 JUMP JUMPDEST PUSH1 0x40 MLOAD DUP1 SWAP2 SUB SWAP1 RETURN JUMPDEST PUSH2 0x8F PUSH2 0x374 JUMP JUMPDEST PUSH1 0x40 MLOAD PUSH2 0x9C SWAP2 SWAP1 PUSH2 0xC04 JUMP JUMPDEST PUSH1 0x40 MLOAD DUP1 SWAP2 SUB SWAP1 RETURN JUMPDEST PUSH2 0xBF PUSH1 0x4 DUP1 CALLDATASIZE SUB DUP2 ADD SWAP1 PUSH2 0xBA SWAP2 SWAP1 PUSH2 0x833 JUMP JUMPDEST PUSH2 0x37A JUMP JUMPDEST STOP JUMPDEST PUSH2 0xDB PUSH1 0x4 DUP1 CALLDATASIZE SUB DUP2 ADD SWAP1 PUSH2 0xD6 SWAP2 SWAP1 PUSH2 0x88F JUMP JUMPDEST PUSH2 0x3FB JUMP JUMPDEST PUSH1 0x40 MLOAD PUSH2 0xEA SWAP4 SWAP3 SWAP2 SWAP1 PUSH2 0xC1F JUMP JUMPDEST PUSH1 0x40 MLOAD DUP1 SWAP2 SUB SWAP1 RETURN JUMPDEST PUSH2 0x10D PUSH1 0x4 DUP1 CALLDATASIZE SUB DUP2 ADD SWAP1 PUSH2 0x108 SWAP2 SWAP1 PUSH2 0x88F JUMP JUMPDEST PUSH2 0x4AD JUMP JUMPDEST PUSH1 0x40 MLOAD PUSH2 0x11A SWAP2 SWAP1 PUSH2 0xBE2 JUMP JUMPDEST PUSH1 0x40 MLOAD DUP1 SWAP2 SUB SWAP1 RETURN JUMPDEST PUSH2 0x12B PUSH2 0x57F JUMP JUMPDEST PUSH1 0x40 MLOAD PUSH2 0x138 SWAP2 SWAP1 PUSH2 0xB74 JUMP JUMPDEST PUSH1 0x40 MLOAD DUP1 SWAP2 SUB SWAP1 RETURN JUMPDEST PUSH1 0x60 DUP1 PUSH1 0x60 PUSH1 0x0 PUSH1 0x1 SLOAD PUSH8 0xFFFFFFFFFFFFFFFF DUP2 GT ISZERO PUSH2 0x164 JUMPI PUSH2 0x163 PUSH2 0xF10 JUMP JUMPDEST JUMPDEST PUSH1 0x40 MLOAD SWAP1 DUP1 DUP3 MSTORE DUP1 PUSH1 0x20 MUL PUSH1 0x20 ADD DUP3 ADD PUSH1 0x40 MSTORE DUP1 ISZERO PUSH2 0x192 JUMPI DUP2 PUSH1 0x20 ADD PUSH1 0x20 DUP3 MUL DUP1 CALLDATASIZE DUP4 CALLDATACOPY DUP1 DUP3 ADD SWAP2 POP POP SWAP1 POP JUMPDEST POP SWAP1 POP PUSH1 0x0 PUSH1 0x1 SLOAD PUSH8 0xFFFFFFFFFFFFFFFF DUP2 GT ISZERO PUSH2 0x1B3 JUMPI PUSH2 0x1B2 PUSH2 0xF10 JUMP JUMPDEST JUMPDEST PUSH1 0x40 MLOAD SWAP1 DUP1 DUP3 MSTORE DUP1 PUSH1 0x20 MUL PUSH1 0x20 ADD DUP3 ADD PUSH1 0x40 MSTORE DUP1 ISZERO PUSH2 0x1E6 JUMPI DUP2 PUSH1 0x20 ADD JUMPDEST PUSH1 0x60 DUP2 MSTORE PUSH1 0x20 ADD SWAP1 PUSH1 0x1 SWAP1 SUB SWAP1 DUP2 PUSH2 0x1D1 JUMPI SWAP1 POP JUMPDEST POP SWAP1 POP PUSH1 0x0 PUSH1 0x1 SLOAD PUSH8 0xFFFFFFFFFFFFFFFF DUP2 GT ISZERO PUSH2 0x207 JUMPI PUSH2 0x206 PUSH2 0xF10 JUMP JUMPDEST JUMPDEST PUSH1 0x40 MLOAD SWAP1 DUP1 DUP3 MSTORE DUP1 PUSH1 0x20 MUL PUSH1 0x20 ADD DUP3 ADD PUSH1 0x40 MSTORE DUP1 ISZERO PUSH2 0x235 JUMPI DUP2 PUSH1 0x20 ADD PUSH1 0x20 DUP3 MUL DUP1 CALLDATASIZE DUP4 CALLDATACOPY DUP1 DUP3 ADD SWAP2 POP POP SWAP1 POP JUMPDEST POP SWAP1 POP PUSH1 0x0 JUMPDEST PUSH1 0x1 SLOAD DUP2 LT ISZERO PUSH2 0x362 JUMPI PUSH1 0x0 DUP1 PUSH1 0x0 DUP4 DUP2 MSTORE PUSH1 0x20 ADD SWAP1 DUP2 MSTORE PUSH1 0x20 ADD PUSH1 0x0 KECCAK256 SWAP1 POP DUP1 PUSH1 0x0 ADD SLOAD DUP6 DUP4 DUP2 MLOAD DUP2 LT PUSH2 0x273 JUMPI PUSH2 0x272 PUSH2 0xEE1 JUMP JUMPDEST JUMPDEST PUSH1 0x20 MUL PUSH1 0x20 ADD ADD DUP2 DUP2 MSTORE POP POP DUP1 PUSH1 0x1 ADD DUP1 SLOAD PUSH2 0x28E SWAP1 PUSH2 0xDD7 JUMP JUMPDEST DUP1 PUSH1 0x1F ADD PUSH1 0x20 DUP1 SWAP2 DIV MUL PUSH1 0x20 ADD PUSH1 0x40 MLOAD SWAP1 DUP2 ADD PUSH1 0x40 MSTORE DUP1 SWAP3 SWAP2 SWAP1 DUP2 DUP2 MSTORE PUSH1 0x20 ADD DUP3 DUP1 SLOAD PUSH2 0x2BA SWAP1 PUSH2 0xDD7 JUMP JUMPDEST DUP1 ISZERO PUSH2 0x307 JUMPI DUP1 PUSH1 0x1F LT PUSH2 0x2DC JUMPI PUSH2 0x100 DUP1 DUP4 SLOAD DIV MUL DUP4 MSTORE SWAP2 PUSH1 0x20 ADD SWAP2 PUSH2 0x307 JUMP JUMPDEST DUP3 ADD SWAP2 SWAP1 PUSH1 0x0 MSTORE PUSH1 0x20 PUSH1 0x0 KECCAK256 SWAP1 JUMPDEST DUP2 SLOAD DUP2 MSTORE SWAP1 PUSH1 0x1 ADD SWAP1 PUSH1 0x20 ADD DUP1 DUP4 GT PUSH2 0x2EA JUMPI DUP3 SWAP1 SUB PUSH1 0x1F AND DUP3 ADD SWAP2 JUMPDEST POP POP POP POP POP DUP5 DUP4 DUP2 MLOAD DUP2 LT PUSH2 0x31F JUMPI PUSH2 0x31E PUSH2 0xEE1 JUMP JUMPDEST JUMPDEST PUSH1 0x20 MUL PUSH1 0x20 ADD ADD DUP2 SWAP1 MSTORE POP DUP1 PUSH1 0x2 ADD SLOAD DUP4 DUP4 DUP2 MLOAD DUP2 LT PUSH2 0x342 JUMPI PUSH2 0x341 PUSH2 0xEE1 JUMP JUMPDEST JUMPDEST PUSH1 0x20 MUL PUSH1 0x20 ADD ADD DUP2 DUP2 MSTORE POP POP POP DUP1 DUP1 PUSH2 0x35A SWAP1 PUSH2 0xE3A JUMP JUMPDEST SWAP2 POP POP PUSH2 0x23B JUMP JUMPDEST POP DUP3 DUP3 DUP3 SWAP6 POP SWAP6 POP SWAP6 POP POP POP POP SWAP1 SWAP2 SWAP3 JUMP JUMPDEST PUSH1 0x1 SLOAD DUP2 JUMP JUMPDEST PUSH1 0x40 MLOAD DUP1 PUSH1 0x60 ADD PUSH1 0x40 MSTORE DUP1 PUSH1 0x1 SLOAD DUP2 MSTORE PUSH1 0x20 ADD DUP4 DUP2 MSTORE PUSH1 0x20 ADD DUP3 DUP2 MSTORE POP PUSH1 0x0 DUP1 PUSH1 0x1 SLOAD DUP2 MSTORE PUSH1 0x20 ADD SWAP1 DUP2 MSTORE PUSH1 0x20 ADD PUSH1 0x0 KECCAK256 PUSH1 0x0 DUP3 ADD MLOAD DUP2 PUSH1 0x0 ADD SSTORE PUSH1 0x20 DUP3 ADD MLOAD DUP2 PUSH1 0x1 ADD SWAP1 DUP1 MLOAD SWAP1 PUSH1 0x20 ADD SWAP1 PUSH2 0x3D1 SWAP3 SWAP2 SWAP1 PUSH2 0x6EA JUMP JUMPDEST POP PUSH1 0x40 DUP3 ADD MLOAD DUP2 PUSH1 0x2 ADD SSTORE SWAP1 POP POP PUSH1 0x1 PUSH1 0x0 DUP2 SLOAD DUP1 SWAP3 SWAP2 SWAP1 PUSH2 0x3F2 SWAP1 PUSH2 0xE3A JUMP JUMPDEST SWAP2 SWAP1 POP SSTORE POP POP POP JUMP JUMPDEST PUSH1 0x0 PUSH1 0x20 MSTORE DUP1 PUSH1 0x0 MSTORE PUSH1 0x40 PUSH1 0x0 KECCAK256 PUSH1 0x0 SWAP2 POP SWAP1 POP DUP1 PUSH1 0x0 ADD SLOAD SWAP1 DUP1 PUSH1 0x1 ADD DUP1 SLOAD PUSH2 0x424 SWAP1 PUSH2 0xDD7 JUMP JUMPDEST DUP1 PUSH1 0x1F ADD PUSH1 0x20 DUP1 SWAP2 DIV MUL PUSH1 0x20 ADD PUSH1 0x40 MLOAD SWAP1 DUP2 ADD PUSH1 0x40 MSTORE DUP1 SWAP3 SWAP2 SWAP1 DUP2 DUP2 MSTORE PUSH1 0x20 ADD DUP3 DUP1 SLOAD PUSH2 0x450 SWAP1 PUSH2 0xDD7 JUMP JUMPDEST DUP1 ISZERO PUSH2 0x49D JUMPI DUP1 PUSH1 0x1F LT PUSH2 0x472 JUMPI PUSH2 0x100 DUP1 DUP4 SLOAD DIV MUL DUP4 MSTORE SWAP2 PUSH1 0x20 ADD SWAP2 PUSH2 0x49D JUMP JUMPDEST DUP3 ADD SWAP2 SWAP1 PUSH1 0x0 MSTORE PUSH1 0x20 PUSH1 0x0 KECCAK256 SWAP1 JUMPDEST DUP2 SLOAD DUP2 MSTORE SWAP1 PUSH1 0x1 ADD SWAP1 PUSH1 0x20 ADD DUP1 DUP4 GT PUSH2 0x480 JUMPI DUP3 SWAP1 SUB PUSH1 0x1F AND DUP3 ADD SWAP2 JUMPDEST POP POP POP POP POP SWAP1 DUP1 PUSH1 0x2 ADD SLOAD SWAP1 POP DUP4 JUMP JUMPDEST PUSH2 0x4B5 PUSH2 0x770 JUMP JUMPDEST PUSH1 0x0 DUP1 DUP4 DUP2 MSTORE PUSH1 0x20 ADD SWAP1 DUP2 MSTORE PUSH1 0x20 ADD PUSH1 0x0 KECCAK256 PUSH1 0x40 MLOAD DUP1 PUSH1 0x60 ADD PUSH1 0x40 MSTORE SWAP1 DUP2 PUSH1 0x0 DUP3 ADD SLOAD DUP2 MSTORE PUSH1 0x20 ADD PUSH1 0x1 DUP3 ADD DUP1 SLOAD PUSH2 0x4EC SWAP1 PUSH2 0xDD7 JUMP JUMPDEST DUP1 PUSH1 0x1F ADD PUSH1 0x20 DUP1 SWAP2 DIV MUL PUSH1 0x20 ADD PUSH1 0x40 MLOAD SWAP1 DUP2 ADD PUSH1 0x40 MSTORE DUP1 SWAP3 SWAP2 SWAP1 DUP2 DUP2 MSTORE PUSH1 0x20 ADD DUP3 DUP1 SLOAD PUSH2 0x518 SWAP1 PUSH2 0xDD7 JUMP JUMPDEST DUP1 ISZERO PUSH2 0x565 JUMPI DUP1 PUSH1 0x1F LT PUSH2 0x53A JUMPI PUSH2 0x100 DUP1 DUP4 SLOAD DIV MUL DUP4 MSTORE SWAP2 PUSH1 0x20 ADD SWAP2 PUSH2 0x565 JUMP JUMPDEST DUP3 ADD SWAP2 SWAP1 PUSH1 0x0 MSTORE PUSH1 0x20 PUSH1 0x0 KECCAK256 SWAP1 JUMPDEST DUP2 SLOAD DUP2 MSTORE SWAP1 PUSH1 0x1 ADD SWAP1 PUSH1 0x20 ADD DUP1 DUP4 GT PUSH2 0x548 JUMPI DUP3 SWAP1 SUB PUSH1 0x1F AND DUP3 ADD SWAP2 JUMPDEST POP POP POP POP POP DUP2 MSTORE PUSH1 0x20 ADD PUSH1 0x2 DUP3 ADD SLOAD DUP2 MSTORE POP POP SWAP1 POP SWAP2 SWAP1 POP JUMP JUMPDEST PUSH1 0x60 PUSH1 0x0 PUSH1 0x1 SLOAD PUSH8 0xFFFFFFFFFFFFFFFF DUP2 GT ISZERO PUSH2 0x59F JUMPI PUSH2 0x59E PUSH2 0xF10 JUMP JUMPDEST JUMPDEST PUSH1 0x40 MLOAD SWAP1 DUP1 DUP3 MSTORE DUP1 PUSH1 0x20 MUL PUSH1 0x20 ADD DUP3 ADD PUSH1 0x40 MSTORE DUP1 ISZERO PUSH2 0x5D8 JUMPI DUP2 PUSH1 0x20 ADD JUMPDEST PUSH2 0x5C5 PUSH2 0x770 JUMP JUMPDEST DUP2 MSTORE PUSH1 0x20 ADD SWAP1 PUSH1 0x1 SWAP1 SUB SWAP1 DUP2 PUSH2 0x5BD JUMPI SWAP1 POP JUMPDEST POP SWAP1 POP PUSH1 0x0 JUMPDEST PUSH1 0x1 SLOAD DUP2 LT ISZERO PUSH2 0x6E2 JUMPI PUSH1 0x0 DUP1 PUSH1 0x0 DUP4 DUP2 MSTORE PUSH1 0x20 ADD SWAP1 DUP2 MSTORE PUSH1 0x20 ADD PUSH1 0x0 KECCAK256 SWAP1 POP DUP1 PUSH1 0x40 MLOAD DUP1 PUSH1 0x60 ADD PUSH1 0x40 MSTORE SWAP1 DUP2 PUSH1 0x0 DUP3 ADD SLOAD DUP2 MSTORE PUSH1 0x20 ADD PUSH1 0x1 DUP3 ADD DUP1 SLOAD PUSH2 0x624 SWAP1 PUSH2 0xDD7 JUMP JUMPDEST DUP1 PUSH1 0x1F ADD PUSH1 0x20 DUP1 SWAP2 DIV MUL PUSH1 0x20 ADD PUSH1 0x40 MLOAD SWAP1 DUP2 ADD PUSH1 0x40 MSTORE DUP1 SWAP3 SWAP2 SWAP1 DUP2 DUP2 MSTORE PUSH1 0x20 ADD DUP3 DUP1 SLOAD PUSH2 0x650 SWAP1 PUSH2 0xDD7 JUMP JUMPDEST DUP1 ISZERO PUSH2 0x69D JUMPI DUP1 PUSH1 0x1F LT PUSH2 0x672 JUMPI PUSH2 0x100 DUP1 DUP4 SLOAD DIV MUL DUP4 MSTORE SWAP2 PUSH1 0x20 ADD SWAP2 PUSH2 0x69D JUMP JUMPDEST DUP3 ADD SWAP2 SWAP1 PUSH1 0x0 MSTORE PUSH1 0x20 PUSH1 0x0 KECCAK256 SWAP1 JUMPDEST DUP2 SLOAD DUP2 MSTORE SWAP1 PUSH1 0x1 ADD SWAP1 PUSH1 0x20 ADD DUP1 DUP4 GT PUSH2 0x680 JUMPI DUP3 SWAP1 SUB PUSH1 0x1F AND DUP3 ADD SWAP2 JUMPDEST POP POP POP POP POP DUP2 MSTORE PUSH1 0x20 ADD PUSH1 0x2 DUP3 ADD SLOAD DUP2 MSTORE POP POP DUP4 DUP4 DUP2 MLOAD DUP2 LT PUSH2 0x6C3 JUMPI PUSH2 0x6C2 PUSH2 0xEE1 JUMP JUMPDEST JUMPDEST PUSH1 0x20 MUL PUSH1 0x20 ADD ADD DUP2 SWAP1 MSTORE POP POP DUP1 DUP1 PUSH2 0x6DA SWAP1 PUSH2 0xE3A JUMP JUMPDEST SWAP2 POP POP PUSH2 0x5DE JUMP JUMPDEST POP DUP1 SWAP2 POP POP SWAP1 JUMP JUMPDEST DUP3 DUP1 SLOAD PUSH2 0x6F6 SWAP1 PUSH2 0xDD7 JUMP JUMPDEST SWAP1 PUSH1 0x0 MSTORE PUSH1 0x20 PUSH1 0x0 KECCAK256 SWAP1 PUSH1 0x1F ADD PUSH1 0x20 SWAP1 DIV DUP2 ADD SWAP3 DUP3 PUSH2 0x718 JUMPI PUSH1 0x0 DUP6 SSTORE PUSH2 0x75F JUMP JUMPDEST DUP3 PUSH1 0x1F LT PUSH2 0x731 JUMPI DUP1 MLOAD PUSH1 0xFF NOT AND DUP4 DUP1 ADD OR DUP6 SSTORE PUSH2 0x75F JUMP JUMPDEST DUP3 DUP1 ADD PUSH1 0x1 ADD DUP6 SSTORE DUP3 ISZERO PUSH2 0x75F JUMPI SWAP2 DUP3 ADD JUMPDEST DUP3 DUP2 GT ISZERO PUSH2 0x75E JUMPI DUP3 MLOAD DUP3 SSTORE SWAP2 PUSH1 0x20 ADD SWAP2 SWAP1 PUSH1 0x1 ADD SWAP1 PUSH2 0x743 JUMP JUMPDEST JUMPDEST POP SWAP1 POP PUSH2 0x76C SWAP2 SWAP1 PUSH2 0x791 JUMP JUMPDEST POP SWAP1 JUMP JUMPDEST PUSH1 0x40 MLOAD DUP1 PUSH1 0x60 ADD PUSH1 0x40 MSTORE DUP1 PUSH1 0x0 DUP2 MSTORE PUSH1 0x20 ADD PUSH1 0x60 DUP2 MSTORE PUSH1 0x20 ADD PUSH1 0x0 DUP2 MSTORE POP SWAP1 JUMP JUMPDEST JUMPDEST DUP1 DUP3 GT ISZERO PUSH2 0x7AA JUMPI PUSH1 0x0 DUP2 PUSH1 0x0 SWAP1 SSTORE POP PUSH1 0x1 ADD PUSH2 0x792 JUMP JUMPDEST POP SWAP1 JUMP JUMPDEST PUSH1 0x0 PUSH2 0x7C1 PUSH2 0x7BC DUP5 PUSH2 0xC82 JUMP JUMPDEST PUSH2 0xC5D JUMP JUMPDEST SWAP1 POP DUP3 DUP2 MSTORE PUSH1 0x20 DUP2 ADD DUP5 DUP5 DUP5 ADD GT ISZERO PUSH2 0x7DD JUMPI PUSH2 0x7DC PUSH2 0xF44 JUMP JUMPDEST JUMPDEST PUSH2 0x7E8 DUP5 DUP3 DUP6 PUSH2 0xD95 JUMP JUMPDEST POP SWAP4 SWAP3 POP POP POP JUMP JUMPDEST PUSH1 0x0 DUP3 PUSH1 0x1F DUP4 ADD SLT PUSH2 0x805 JUMPI PUSH2 0x804 PUSH2 0xF3F JUMP JUMPDEST JUMPDEST DUP2 CALLDATALOAD PUSH2 0x815 DUP5 DUP3 PUSH1 0x20 DUP7 ADD PUSH2 0x7AE JUMP JUMPDEST SWAP2 POP POP SWAP3 SWAP2 POP POP JUMP JUMPDEST PUSH1 0x0 DUP2 CALLDATALOAD SWAP1 POP PUSH2 0x82D DUP2 PUSH2 0xF64 JUMP JUMPDEST SWAP3 SWAP2 POP POP JUMP JUMPDEST PUSH1 0x0 DUP1 PUSH1 0x40 DUP4 DUP6 SUB SLT ISZERO PUSH2 0x84A JUMPI PUSH2 0x849 PUSH2 0xF4E JUMP JUMPDEST JUMPDEST PUSH1 0x0 DUP4 ADD CALLDATALOAD PUSH8 0xFFFFFFFFFFFFFFFF DUP2 GT ISZERO PUSH2 0x868 JUMPI PUSH2 0x867 PUSH2 0xF49 JUMP JUMPDEST JUMPDEST PUSH2 0x874 DUP6 DUP3 DUP7 ADD PUSH2 0x7F0 JUMP JUMPDEST SWAP3 POP POP PUSH1 0x20 PUSH2 0x885 DUP6 DUP3 DUP7 ADD PUSH2 0x81E JUMP JUMPDEST SWAP2 POP POP SWAP3 POP SWAP3 SWAP1 POP JUMP JUMPDEST PUSH1 0x0 PUSH1 0x20 DUP3 DUP5 SUB SLT ISZERO PUSH2 0x8A5 JUMPI PUSH2 0x8A4 PUSH2 0xF4E JUMP JUMPDEST JUMPDEST PUSH1 0x0 PUSH2 0x8B3 DUP5 DUP3 DUP6 ADD PUSH2 0x81E JUMP JUMPDEST SWAP2 POP POP SWAP3 SWAP2 POP POP JUMP JUMPDEST PUSH1 0x0 PUSH2 0x8C8 DUP4 DUP4 PUSH2 0xA44 JUMP JUMPDEST SWAP1 POP SWAP3 SWAP2 POP POP JUMP JUMPDEST PUSH1 0x0 PUSH2 0x8DC DUP4 DUP4 PUSH2 0xAB6 JUMP JUMPDEST SWAP1 POP SWAP3 SWAP2 POP POP JUMP JUMPDEST PUSH1 0x0 PUSH2 0x8F0 DUP4 DUP4 PUSH2 0xB56 JUMP JUMPDEST PUSH1 0x20 DUP4 ADD SWAP1 POP SWAP3 SWAP2 POP POP JUMP JUMPDEST PUSH1 0x0 PUSH2 0x907 DUP3 PUSH2 0xCE3 JUMP JUMPDEST PUSH2 0x911 DUP2 DUP6 PUSH2 0xD36 JUMP JUMPDEST SWAP4 POP DUP4 PUSH1 0x20 DUP3 MUL DUP6 ADD PUSH2 0x923 DUP6 PUSH2 0xCB3 JUMP JUMPDEST DUP1 PUSH1 0x0 JUMPDEST DUP6 DUP2 LT ISZERO PUSH2 0x95F JUMPI DUP5 DUP5 SUB DUP10 MSTORE DUP2 MLOAD PUSH2 0x940 DUP6 DUP3 PUSH2 0x8BC JUMP JUMPDEST SWAP5 POP PUSH2 0x94B DUP4 PUSH2 0xD0F JUMP JUMPDEST SWAP3 POP PUSH1 0x20 DUP11 ADD SWAP10 POP POP PUSH1 0x1 DUP2 ADD SWAP1 POP PUSH2 0x927 JUMP JUMPDEST POP DUP3 SWAP8 POP DUP8 SWAP6 POP POP POP POP POP POP SWAP3 SWAP2 POP POP JUMP JUMPDEST PUSH1 0x0 PUSH2 0x97C DUP3 PUSH2 0xCEE JUMP JUMPDEST PUSH2 0x986 DUP2 DUP6 PUSH2 0xD47 JUMP JUMPDEST SWAP4 POP DUP4 PUSH1 0x20 DUP3 MUL DUP6 ADD PUSH2 0x998 DUP6 PUSH2 0xCC3 JUMP JUMPDEST DUP1 PUSH1 0x0 JUMPDEST DUP6 DUP2 LT ISZERO PUSH2 0x9D4 JUMPI DUP5 DUP5 SUB DUP10 MSTORE DUP2 MLOAD PUSH2 0x9B5 DUP6 DUP3 PUSH2 0x8D0 JUMP JUMPDEST SWAP5 POP PUSH2 0x9C0 DUP4 PUSH2 0xD1C JUMP JUMPDEST SWAP3 POP PUSH1 0x20 DUP11 ADD SWAP10 POP POP PUSH1 0x1 DUP2 ADD SWAP1 POP PUSH2 0x99C JUMP JUMPDEST POP DUP3 SWAP8 POP DUP8 SWAP6 POP POP POP POP POP POP SWAP3 SWAP2 POP POP JUMP JUMPDEST PUSH1 0x0 PUSH2 0x9F1 DUP3 PUSH2 0xCF9 JUMP JUMPDEST PUSH2 0x9FB DUP2 DUP6 PUSH2 0xD58 JUMP JUMPDEST SWAP4 POP PUSH2 0xA06 DUP4 PUSH2 0xCD3 JUMP JUMPDEST DUP1 PUSH1 0x0 JUMPDEST DUP4 DUP2 LT ISZERO PUSH2 0xA37 JUMPI DUP2 MLOAD PUSH2 0xA1E DUP9 DUP3 PUSH2 0x8E4 JUMP JUMPDEST SWAP8 POP PUSH2 0xA29 DUP4 PUSH2 0xD29 JUMP JUMPDEST SWAP3 POP POP PUSH1 0x1 DUP2 ADD SWAP1 POP PUSH2 0xA0A JUMP JUMPDEST POP DUP6 SWAP4 POP POP POP POP SWAP3 SWAP2 POP POP JUMP JUMPDEST PUSH1 0x0 PUSH2 0xA4F DUP3 PUSH2 0xD04 JUMP JUMPDEST PUSH2 0xA59 DUP2 DUP6 PUSH2 0xD69 JUMP JUMPDEST SWAP4 POP PUSH2 0xA69 DUP2 DUP6 PUSH1 0x20 DUP7 ADD PUSH2 0xDA4 JUMP JUMPDEST PUSH2 0xA72 DUP2 PUSH2 0xF53 JUMP JUMPDEST DUP5 ADD SWAP2 POP POP SWAP3 SWAP2 POP POP JUMP JUMPDEST PUSH1 0x0 PUSH2 0xA88 DUP3 PUSH2 0xD04 JUMP JUMPDEST PUSH2 0xA92 DUP2 DUP6 PUSH2 0xD7A JUMP JUMPDEST SWAP4 POP PUSH2 0xAA2 DUP2 DUP6 PUSH1 0x20 DUP7 ADD PUSH2 0xDA4 JUMP JUMPDEST PUSH2 0xAAB DUP2 PUSH2 0xF53 JUMP JUMPDEST DUP5 ADD SWAP2 POP POP SWAP3 SWAP2 POP POP JUMP JUMPDEST PUSH1 0x0 PUSH1 0x60 DUP4 ADD PUSH1 0x0 DUP4 ADD MLOAD PUSH2 0xACE PUSH1 0x0 DUP7 ADD DUP3 PUSH2 0xB56 JUMP JUMPDEST POP PUSH1 0x20 DUP4 ADD MLOAD DUP5 DUP3 SUB PUSH1 0x20 DUP7 ADD MSTORE PUSH2 0xAE6 DUP3 DUP3 PUSH2 0xA44 JUMP JUMPDEST SWAP2 POP POP PUSH1 0x40 DUP4 ADD MLOAD PUSH2 0xAFB PUSH1 0x40 DUP7 ADD DUP3 PUSH2 0xB56 JUMP JUMPDEST POP DUP1 SWAP2 POP POP SWAP3 SWAP2 POP POP JUMP JUMPDEST PUSH1 0x0 PUSH1 0x60 DUP4 ADD PUSH1 0x0 DUP4 ADD MLOAD PUSH2 0xB1E PUSH1 0x0 DUP7 ADD DUP3 PUSH2 0xB56 JUMP JUMPDEST POP PUSH1 0x20 DUP4 ADD MLOAD DUP5 DUP3 SUB PUSH1 0x20 DUP7 ADD MSTORE PUSH2 0xB36 DUP3 DUP3 PUSH2 0xA44 JUMP JUMPDEST SWAP2 POP POP PUSH1 0x40 DUP4 ADD MLOAD PUSH2 0xB4B PUSH1 0x40 DUP7 ADD DUP3 PUSH2 0xB56 JUMP JUMPDEST POP DUP1 SWAP2 POP POP SWAP3 SWAP2 POP POP JUMP JUMPDEST PUSH2 0xB5F DUP2 PUSH2 0xD8B JUMP JUMPDEST DUP3 MSTORE POP POP JUMP JUMPDEST PUSH2 0xB6E DUP2 PUSH2 0xD8B JUMP JUMPDEST DUP3 MSTORE POP POP JUMP JUMPDEST PUSH1 0x0 PUSH1 0x20 DUP3 ADD SWAP1 POP DUP2 DUP2 SUB PUSH1 0x0 DUP4 ADD MSTORE PUSH2 0xB8E DUP2 DUP5 PUSH2 0x971 JUMP JUMPDEST SWAP1 POP SWAP3 SWAP2 POP POP JUMP JUMPDEST PUSH1 0x0 PUSH1 0x60 DUP3 ADD SWAP1 POP DUP2 DUP2 SUB PUSH1 0x0 DUP4 ADD MSTORE PUSH2 0xBB0 DUP2 DUP7 PUSH2 0x9E6 JUMP JUMPDEST SWAP1 POP DUP2 DUP2 SUB PUSH1 0x20 DUP4 ADD MSTORE PUSH2 0xBC4 DUP2 DUP6 PUSH2 0x8FC JUMP JUMPDEST SWAP1 POP DUP2 DUP2 SUB PUSH1 0x40 DUP4 ADD MSTORE PUSH2 0xBD8 DUP2 DUP5 PUSH2 0x9E6 JUMP JUMPDEST SWAP1 POP SWAP5 SWAP4 POP POP POP POP JUMP JUMPDEST PUSH1 0x0 PUSH1 0x20 DUP3 ADD SWAP1 POP DUP2 DUP2 SUB PUSH1 0x0 DUP4 ADD MSTORE PUSH2 0xBFC DUP2 DUP5 PUSH2 0xB06 JUMP JUMPDEST SWAP1 POP SWAP3 SWAP2 POP POP JUMP JUMPDEST PUSH1 0x0 PUSH1 0x20 DUP3 ADD SWAP1 POP PUSH2 0xC19 PUSH1 0x0 DUP4 ADD DUP5 PUSH2 0xB65 JUMP JUMPDEST SWAP3 SWAP2 POP POP JUMP JUMPDEST PUSH1 0x0 PUSH1 0x60 DUP3 ADD SWAP1 POP PUSH2 0xC34 PUSH1 0x0 DUP4 ADD DUP7 PUSH2 0xB65 JUMP JUMPDEST DUP2 DUP2 SUB PUSH1 0x20 DUP4 ADD MSTORE PUSH2 0xC46 DUP2 DUP6 PUSH2 0xA7D JUMP JUMPDEST SWAP1 POP PUSH2 0xC55 PUSH1 0x40 DUP4 ADD DUP5 PUSH2 0xB65 JUMP JUMPDEST SWAP5 SWAP4 POP POP POP POP JUMP JUMPDEST PUSH1 0x0 PUSH2 0xC67 PUSH2 0xC78 JUMP JUMPDEST SWAP1 POP PUSH2 0xC73 DUP3 DUP3 PUSH2 0xE09 JUMP JUMPDEST SWAP2 SWAP1 POP JUMP JUMPDEST PUSH1 0x0 PUSH1 0x40 MLOAD SWAP1 POP SWAP1 JUMP JUMPDEST PUSH1 0x0 PUSH8 0xFFFFFFFFFFFFFFFF DUP3 GT ISZERO PUSH2 0xC9D JUMPI PUSH2 0xC9C PUSH2 0xF10 JUMP JUMPDEST JUMPDEST PUSH2 0xCA6 DUP3 PUSH2 0xF53 JUMP JUMPDEST SWAP1 POP PUSH1 0x20 DUP2 ADD SWAP1 POP SWAP2 SWAP1 POP JUMP JUMPDEST PUSH1 0x0 DUP2 SWAP1 POP PUSH1 0x20 DUP3 ADD SWAP1 POP SWAP2 SWAP1 POP JUMP JUMPDEST PUSH1 0x0 DUP2 SWAP1 POP PUSH1 0x20 DUP3 ADD SWAP1 POP SWAP2 SWAP1 POP JUMP JUMPDEST PUSH1 0x0 DUP2 SWAP1 POP PUSH1 0x20 DUP3 ADD SWAP1 POP SWAP2 SWAP1 POP JUMP JUMPDEST PUSH1 0x0 DUP2 MLOAD SWAP1 POP SWAP2 SWAP1 POP JUMP JUMPDEST PUSH1 0x0 DUP2 MLOAD SWAP1 POP SWAP2 SWAP1 POP JUMP JUMPDEST PUSH1 0x0 DUP2 MLOAD SWAP1 POP SWAP2 SWAP1 POP JUMP JUMPDEST PUSH1 0x0 DUP2 MLOAD SWAP1 POP SWAP2 SWAP1 POP JUMP JUMPDEST PUSH1 0x0 PUSH1 0x20 DUP3 ADD SWAP1 POP SWAP2 SWAP1 POP JUMP JUMPDEST PUSH1 0x0 PUSH1 0x20 DUP3 ADD SWAP1 POP SWAP2 SWAP1 POP JUMP JUMPDEST PUSH1 0x0 PUSH1 0x20 DUP3 ADD SWAP1 POP SWAP2 SWAP1 POP JUMP JUMPDEST PUSH1 0x0 DUP3 DUP3 MSTORE PUSH1 0x20 DUP3 ADD SWAP1 POP SWAP3 SWAP2 POP POP JUMP JUMPDEST PUSH1 0x0 DUP3 DUP3 MSTORE PUSH1 0x20 DUP3 ADD SWAP1 POP SWAP3 SWAP2 POP POP JUMP JUMPDEST PUSH1 0x0 DUP3 DUP3 MSTORE PUSH1 0x20 DUP3 ADD SWAP1 POP SWAP3 SWAP2 POP POP JUMP JUMPDEST PUSH1 0x0 DUP3 DUP3 MSTORE PUSH1 0x20 DUP3 ADD SWAP1 POP SWAP3 SWAP2 POP POP JUMP JUMPDEST PUSH1 0x0 DUP3 DUP3 MSTORE PUSH1 0x20 DUP3 ADD SWAP1 POP SWAP3 SWAP2 POP POP JUMP JUMPDEST PUSH1 0x0 DUP2 SWAP1 POP SWAP2 SWAP1 POP JUMP JUMPDEST DUP3 DUP2 DUP4 CALLDATACOPY PUSH1 0x0 DUP4 DUP4 ADD MSTORE POP POP POP JUMP JUMPDEST PUSH1 0x0 JUMPDEST DUP4 DUP2 LT ISZERO PUSH2 0xDC2 JUMPI DUP1 DUP3 ADD MLOAD DUP2 DUP5 ADD MSTORE PUSH1 0x20 DUP2 ADD SWAP1 POP PUSH2 0xDA7 JUMP JUMPDEST DUP4 DUP2 GT ISZERO PUSH2 0xDD1 JUMPI PUSH1 0x0 DUP5 DUP5 ADD MSTORE JUMPDEST POP POP POP POP JUMP JUMPDEST PUSH1 0x0 PUSH1 0x2 DUP3 DIV SWAP1 POP PUSH1 0x1 DUP3 AND DUP1 PUSH2 0xDEF JUMPI PUSH1 0x7F DUP3 AND SWAP2 POP JUMPDEST PUSH1 0x20 DUP3 LT DUP2 EQ ISZERO PUSH2 0xE03 JUMPI PUSH2 0xE02 PUSH2 0xEB2 JUMP JUMPDEST JUMPDEST POP SWAP2 SWAP1 POP JUMP JUMPDEST PUSH2 0xE12 DUP3 PUSH2 0xF53 JUMP JUMPDEST DUP2 ADD DUP2 DUP2 LT PUSH8 0xFFFFFFFFFFFFFFFF DUP3 GT OR ISZERO PUSH2 0xE31 JUMPI PUSH2 0xE30 PUSH2 0xF10 JUMP JUMPDEST JUMPDEST DUP1 PUSH1 0x40 MSTORE POP POP POP JUMP JUMPDEST PUSH1 0x0 PUSH2 0xE45 DUP3 PUSH2 0xD8B JUMP JUMPDEST SWAP2 POP PUSH32 0xFFFFFFFFFFFFFFFFFFFFFFFFFFFFFFFFFFFFFFFFFFFFFFFFFFFFFFFFFFFFFFFF DUP3 EQ ISZERO PUSH2 0xE78 JUMPI PUSH2 0xE77 PUSH2 0xE83 JUMP JUMPDEST JUMPDEST PUSH1 0x1 DUP3 ADD SWAP1 POP SWAP2 SWAP1 POP JUMP JUMPDEST PUSH32 0x4E487B7100000000000000000000000000000000000000000000000000000000 PUSH1 0x0 MSTORE PUSH1 0x11 PUSH1 0x4 MSTORE PUSH1 0x24 PUSH1 0x0 REVERT JUMPDEST PUSH32 0x4E487B7100000000000000000000000000000000000000000000000000000000 PUSH1 0x0 MSTORE PUSH1 0x22 PUSH1 0x4 MSTORE PUSH1 0x24 PUSH1 0x0 REVERT JUMPDEST PUSH32 0x4E487B7100000000000000000000000000000000000000000000000000000000 PUSH1 0x0 MSTORE PUSH1 0x32 PUSH1 0x4 MSTORE PUSH1 0x24 PUSH1 0x0 REVERT JUMPDEST PUSH32 0x4E487B7100000000000000000000000000000000000000000000000000000000 PUSH1 0x0 MSTORE PUSH1 0x41 PUSH1 0x4 MSTORE PUSH1 0x24 PUSH1 0x0 REVERT JUMPDEST PUSH1 0x0 DUP1 REVERT JUMPDEST PUSH1 0x0 DUP1 REVERT JUMPDEST PUSH1 0x0 DUP1 REVERT JUMPDEST PUSH1 0x0 DUP1 REVERT JUMPDEST PUSH1 0x0 PUSH1 0x1F NOT PUSH1 0x1F DUP4 ADD AND SWAP1 POP SWAP2 SWAP1 POP JUMP JUMPDEST PUSH2 0xF6D DUP2 PUSH2 0xD8B JUMP JUMPDEST DUP2 EQ PUSH2 0xF78 JUMPI PUSH1 0x0 DUP1 REVERT JUMPDEST POP JUMP INVALID LOG2 PUSH5 0x6970667358 0x22 SLT KECCAK256 DUP1 0x25 0x22 CHAINID 0xCD 0xBD LOG2 0xEA PUSH26 0x600A486D229779E10FF3614E134B4C8438F2BD572A6C1564736F PUSH13 0x63430008070033000000000000 "
				},
				"gasEstimates": {
					"creation": {
						"codeDepositCost": "803400",
						"executionCost": "infinite",
						"totalCost": "infinite"
					},
					"external": {
						"addMember(string,uint256)": "infinite",
						"get(uint256)": "infinite",
						"getMember()": "infinite",
						"getMembers()": "infinite",
						"memberCount()": "2429",
						"members(uint256)": "infinite"
					}
				},
				"methodIdentifiers": {
					"addMember(string,uint256)": "16a8fc38",
					"get(uint256)": "9507d39a",
					"getMember()": "0274c094",
					"getMembers()": "9eab5253",
					"memberCount()": "11aee380",
					"members(uint256)": "5daf08ca"
				}
			},
			"userdoc": {
				"kind": "user",
				"methods": {},
				"version": 1
			}
		}
	}
}