{
	"contracts/Transaction.sol": {
		"Transactions": {
			"abi": [
				{
					"inputs": [],
					"stateMutability": "nonpayable",
					"type": "constructor"
				},
				{
					"inputs": [
						{
							"internalType": "uint256",
							"name": "_drugid",
							"type": "uint256"
						},
						{
							"internalType": "uint256",
							"name": "_patchno",
							"type": "uint256"
						},
						{
							"internalType": "uint256",
							"name": "_currentowner",
							"type": "uint256"
						},
						{
							"internalType": "uint256",
							"name": "_fromowner",
							"type": "uint256"
						},
						{
							"internalType": "uint256",
							"name": "_transamount",
							"type": "uint256"
						},
						{
							"internalType": "uint256",
							"name": "_transdate",
							"type": "uint256"
						}
					],
					"name": "addTransaction",
					"outputs": [],
					"stateMutability": "nonpayable",
					"type": "function"
				},
				{
					"inputs": [
						{
							"internalType": "uint256",
							"name": "_transid",
							"type": "uint256"
						}
					],
					"name": "get",
					"outputs": [
						{
							"components": [
								{
									"internalType": "uint256",
									"name": "TransactionID",
									"type": "uint256"
								},
								{
									"internalType": "uint256",
									"name": "DrugID",
									"type": "uint256"
								},
								{
									"internalType": "uint256",
									"name": "PatchNo",
									"type": "uint256"
								},
								{
									"internalType": "uint256",
									"name": "CurrentOwner",
									"type": "uint256"
								},
								{
									"internalType": "uint256",
									"name": "FromOwner",
									"type": "uint256"
								},
								{
									"internalType": "uint256",
									"name": "TransferedAmount",
									"type": "uint256"
								},
								{
									"internalType": "uint256",
									"name": "TransactionDate",
									"type": "uint256"
								}
							],
							"internalType": "struct Transactions.Transaction",
							"name": "",
							"type": "tuple"
						}
					],
					"stateMutability": "view",
					"type": "function"
				},
				{
					"inputs": [],
					"name": "getTransaction",
					"outputs": [
						{
							"internalType": "uint256[]",
							"name": "",
							"type": "uint256[]"
						},
						{
							"internalType": "uint256[]",
							"name": "",
							"type": "uint256[]"
						},
						{
							"internalType": "uint256[]",
							"name": "",
							"type": "uint256[]"
						},
						{
							"internalType": "uint256[]",
							"name": "",
							"type": "uint256[]"
						},
						{
							"internalType": "uint256[]",
							"name": "",
							"type": "uint256[]"
						},
						{
							"internalType": "uint256[]",
							"name": "",
							"type": "uint256[]"
						}
					],
					"stateMutability": "view",
					"type": "function"
				},
				{
					"inputs": [],
					"name": "getTransactions",
					"outputs": [
						{
							"components": [
								{
									"internalType": "uint256",
									"name": "TransactionID",
									"type": "uint256"
								},
								{
									"internalType": "uint256",
									"name": "DrugID",
									"type": "uint256"
								},
								{
									"internalType": "uint256",
									"name": "PatchNo",
									"type": "uint256"
								},
								{
									"internalType": "uint256",
									"name": "CurrentOwner",
									"type": "uint256"
								},
								{
									"internalType": "uint256",
									"name": "FromOwner",
									"type": "uint256"
								},
								{
									"internalType": "uint256",
									"name": "TransferedAmount",
									"type": "uint256"
								},
								{
									"internalType": "uint256",
									"name": "TransactionDate",
									"type": "uint256"
								}
							],
							"internalType": "struct Transactions.Transaction[]",
							"name": "",
							"type": "tuple[]"
						}
					],
					"stateMutability": "view",
					"type": "function"
				},
				{
					"inputs": [
						{
							"internalType": "uint256",
							"name": "",
							"type": "uint256"
						}
					],
					"name": "transactions",
					"outputs": [
						{
							"internalType": "uint256",
							"name": "TransactionID",
							"type": "uint256"
						},
						{
							"internalType": "uint256",
							"name": "DrugID",
							"type": "uint256"
						},
						{
							"internalType": "uint256",
							"name": "PatchNo",
							"type": "uint256"
						},
						{
							"internalType": "uint256",
							"name": "CurrentOwner",
							"type": "uint256"
						},
						{
							"internalType": "uint256",
							"name": "FromOwner",
							"type": "uint256"
						},
						{
							"internalType": "uint256",
							"name": "TransferedAmount",
							"type": "uint256"
						},
						{
							"internalType": "uint256",
							"name": "TransactionDate",
							"type": "uint256"
						}
					],
					"stateMutability": "view",
					"type": "function"
				},
				{
					"inputs": [],
					"name": "transactionsCount",
					"outputs": [
						{
							"internalType": "uint256",
							"name": "",
							"type": "uint256"
						}
					],
					"stateMutability": "view",
					"type": "function"
				}
			],
			"devdoc": {
				"kind": "dev",
				"methods": {},
				"version": 1
			},
			"evm": {
				"assembly": "    /* \"contracts/Transaction.sol\":62:2499  contract Transactions{\r... */\n  mstore(0x40, 0x80)\n    /* \"contracts/Transaction.sol\":456:511  constructor()  {\r... */\n  callvalue\n  dup1\n  iszero\n  tag_1\n  jumpi\n  0x00\n  dup1\n  revert\ntag_1:\n  pop\n    /* \"contracts/Transaction.sol\":502:503  0 */\n  0x00\n    /* \"contracts/Transaction.sol\":482:499  transactionsCount */\n  0x01\n    /* \"contracts/Transaction.sol\":482:503  transactionsCount = 0 */\n  dup2\n  swap1\n  sstore\n  pop\n    /* \"contracts/Transaction.sol\":62:2499  contract Transactions{\r... */\n  dataSize(sub_0)\n  dup1\n  dataOffset(sub_0)\n  0x00\n  codecopy\n  0x00\n  return\nstop\n\nsub_0: assembly {\n        /* \"contracts/Transaction.sol\":62:2499  contract Transactions{\r... */\n      mstore(0x40, 0x80)\n      callvalue\n      dup1\n      iszero\n      tag_1\n      jumpi\n      0x00\n      dup1\n      revert\n    tag_1:\n      pop\n      jumpi(tag_2, lt(calldatasize, 0x04))\n      shr(0xe0, calldataload(0x00))\n      dup1\n      0x0a6486c1\n      eq\n      tag_3\n      jumpi\n      dup1\n      0x59705f81\n      eq\n      tag_4\n      jumpi\n      dup1\n      0x83920e90\n      eq\n      tag_5\n      jumpi\n      dup1\n      0x9507d39a\n      eq\n      tag_6\n      jumpi\n      dup1\n      0x9ace38c2\n      eq\n      tag_7\n      jumpi\n      dup1\n      0xfd99a746\n      eq\n      tag_8\n      jumpi\n    tag_2:\n      0x00\n      dup1\n      revert\n        /* \"contracts/Transaction.sol\":519:836  function addTransaction(uint _drugid, uint _patchno, uint _currentowner, uint _fromowner, uint _transamount, uint _transdate) public {\r... */\n    tag_3:\n      tag_9\n      0x04\n      dup1\n      calldatasize\n      sub\n      dup2\n      add\n      swap1\n      tag_10\n      swap2\n      swap1\n      tag_11\n      jump\t// in\n    tag_10:\n      tag_12\n      jump\t// in\n    tag_9:\n      stop\n        /* \"contracts/Transaction.sol\":1005:2133  function getTransaction() public view returns (uint[] memory, uint[] memory, uint[] memory, uint[] memory, uint[] memory, uint[] memory){\r... */\n    tag_4:\n      tag_13\n      tag_14\n      jump\t// in\n    tag_13:\n      mload(0x40)\n      tag_15\n      swap7\n      swap6\n      swap5\n      swap4\n      swap3\n      swap2\n      swap1\n      tag_16\n      jump\t// in\n    tag_15:\n      mload(0x40)\n      dup1\n      swap2\n      sub\n      swap1\n      return\n        /* \"contracts/Transaction.sol\":2170:2494  function getTransactions() public view returns (Transaction[] memory){\r... */\n    tag_5:\n      tag_17\n      tag_18\n      jump\t// in\n    tag_17:\n      mload(0x40)\n      tag_19\n      swap2\n      swap1\n      tag_20\n      jump\t// in\n    tag_19:\n      mload(0x40)\n      dup1\n      swap2\n      sub\n      swap1\n      return\n        /* \"contracts/Transaction.sol\":844:960  function get(uint _transid) public view returns(Transaction memory) {\r... */\n    tag_6:\n      tag_21\n      0x04\n      dup1\n      calldatasize\n      sub\n      dup2\n      add\n      swap1\n      tag_22\n      swap2\n      swap1\n      tag_23\n      jump\t// in\n    tag_22:\n      tag_24\n      jump\t// in\n    tag_21:\n      mload(0x40)\n      tag_25\n      swap2\n      swap1\n      tag_26\n      jump\t// in\n    tag_25:\n      mload(0x40)\n      dup1\n      swap2\n      sub\n      swap1\n      return\n        /* \"contracts/Transaction.sol\":314:363  mapping (uint => Transaction) public transactions */\n    tag_7:\n      tag_27\n      0x04\n      dup1\n      calldatasize\n      sub\n      dup2\n      add\n      swap1\n      tag_28\n      swap2\n      swap1\n      tag_23\n      jump\t// in\n    tag_28:\n      tag_29\n      jump\t// in\n    tag_27:\n      mload(0x40)\n      tag_30\n      swap8\n      swap7\n      swap6\n      swap5\n      swap4\n      swap3\n      swap2\n      swap1\n      tag_31\n      jump\t// in\n    tag_30:\n      mload(0x40)\n      dup1\n      swap2\n      sub\n      swap1\n      return\n        /* \"contracts/Transaction.sol\":420:449  uint public transactionsCount */\n    tag_8:\n      tag_32\n      tag_33\n      jump\t// in\n    tag_32:\n      mload(0x40)\n      tag_34\n      swap2\n      swap1\n      tag_35\n      jump\t// in\n    tag_34:\n      mload(0x40)\n      dup1\n      swap2\n      sub\n      swap1\n      return\n        /* \"contracts/Transaction.sol\":519:836  function addTransaction(uint _drugid, uint _patchno, uint _currentowner, uint _fromowner, uint _transamount, uint _transdate) public {\r... */\n    tag_12:\n        /* \"contracts/Transaction.sol\":697:798  Transaction(transactionsCount,_drugid, _patchno, _currentowner, _fromowner, _transamount, _transdate) */\n      mload(0x40)\n      dup1\n      0xe0\n      add\n      0x40\n      mstore\n      dup1\n        /* \"contracts/Transaction.sol\":709:726  transactionsCount */\n      sload(0x01)\n        /* \"contracts/Transaction.sol\":697:798  Transaction(transactionsCount,_drugid, _patchno, _currentowner, _fromowner, _transamount, _transdate) */\n      dup2\n      mstore\n      0x20\n      add\n        /* \"contracts/Transaction.sol\":727:734  _drugid */\n      dup8\n        /* \"contracts/Transaction.sol\":697:798  Transaction(transactionsCount,_drugid, _patchno, _currentowner, _fromowner, _transamount, _transdate) */\n      dup2\n      mstore\n      0x20\n      add\n        /* \"contracts/Transaction.sol\":736:744  _patchno */\n      dup7\n        /* \"contracts/Transaction.sol\":697:798  Transaction(transactionsCount,_drugid, _patchno, _currentowner, _fromowner, _transamount, _transdate) */\n      dup2\n      mstore\n      0x20\n      add\n        /* \"contracts/Transaction.sol\":746:759  _currentowner */\n      dup6\n        /* \"contracts/Transaction.sol\":697:798  Transaction(transactionsCount,_drugid, _patchno, _currentowner, _fromowner, _transamount, _transdate) */\n      dup2\n      mstore\n      0x20\n      add\n        /* \"contracts/Transaction.sol\":761:771  _fromowner */\n      dup5\n        /* \"contracts/Transaction.sol\":697:798  Transaction(transactionsCount,_drugid, _patchno, _currentowner, _fromowner, _transamount, _transdate) */\n      dup2\n      mstore\n      0x20\n      add\n        /* \"contracts/Transaction.sol\":773:785  _transamount */\n      dup4\n        /* \"contracts/Transaction.sol\":697:798  Transaction(transactionsCount,_drugid, _patchno, _currentowner, _fromowner, _transamount, _transdate) */\n      dup2\n      mstore\n      0x20\n      add\n        /* \"contracts/Transaction.sol\":787:797  _transdate */\n      dup3\n        /* \"contracts/Transaction.sol\":697:798  Transaction(transactionsCount,_drugid, _patchno, _currentowner, _fromowner, _transamount, _transdate) */\n      dup2\n      mstore\n      pop\n        /* \"contracts/Transaction.sol\":663:675  transactions */\n      0x00\n        /* \"contracts/Transaction.sol\":663:694  transactions[transactionsCount] */\n      dup1\n        /* \"contracts/Transaction.sol\":676:693  transactionsCount */\n      sload(0x01)\n        /* \"contracts/Transaction.sol\":663:694  transactions[transactionsCount] */\n      dup2\n      mstore\n      0x20\n      add\n      swap1\n      dup2\n      mstore\n      0x20\n      add\n      0x00\n      keccak256\n        /* \"contracts/Transaction.sol\":663:798  transactions[transactionsCount] = Transaction(transactionsCount,_drugid, _patchno, _currentowner, _fromowner, _transamount, _transdate) */\n      0x00\n      dup3\n      add\n      mload\n      dup2\n      0x00\n      add\n      sstore\n      0x20\n      dup3\n      add\n      mload\n      dup2\n      0x01\n      add\n      sstore\n      0x40\n      dup3\n      add\n      mload\n      dup2\n      0x02\n      add\n      sstore\n      0x60\n      dup3\n      add\n      mload\n      dup2\n      0x03\n      add\n      sstore\n      0x80\n      dup3\n      add\n      mload\n      dup2\n      0x04\n      add\n      sstore\n      0xa0\n      dup3\n      add\n      mload\n      dup2\n      0x05\n      add\n      sstore\n      0xc0\n      dup3\n      add\n      mload\n      dup2\n      0x06\n      add\n      sstore\n      swap1\n      pop\n      pop\n        /* \"contracts/Transaction.sol\":809:826  transactionsCount */\n      0x01\n      0x00\n        /* \"contracts/Transaction.sol\":809:828  transactionsCount++ */\n      dup2\n      sload\n      dup1\n      swap3\n      swap2\n      swap1\n      tag_37\n      swap1\n      tag_38\n      jump\t// in\n    tag_37:\n      swap2\n      swap1\n      pop\n      sstore\n      pop\n        /* \"contracts/Transaction.sol\":519:836  function addTransaction(uint _drugid, uint _patchno, uint _currentowner, uint _fromowner, uint _transamount, uint _transdate) public {\r... */\n      pop\n      pop\n      pop\n      pop\n      pop\n      pop\n      jump\t// out\n        /* \"contracts/Transaction.sol\":1005:2133  function getTransaction() public view returns (uint[] memory, uint[] memory, uint[] memory, uint[] memory, uint[] memory, uint[] memory){\r... */\n    tag_14:\n        /* \"contracts/Transaction.sol\":1052:1065  uint[] memory */\n      0x60\n        /* \"contracts/Transaction.sol\":1067:1080  uint[] memory */\n      dup1\n        /* \"contracts/Transaction.sol\":1082:1095  uint[] memory */\n      0x60\n        /* \"contracts/Transaction.sol\":1097:1110  uint[] memory */\n      dup1\n        /* \"contracts/Transaction.sol\":1112:1125  uint[] memory */\n      0x60\n        /* \"contracts/Transaction.sol\":1127:1140  uint[] memory */\n      dup1\n        /* \"contracts/Transaction.sol\":1150:1172  uint[]  memory transid */\n      0x00\n        /* \"contracts/Transaction.sol\":1186:1203  transactionsCount */\n      sload(0x01)\n        /* \"contracts/Transaction.sol\":1175:1204  new uint[](transactionsCount) */\n      0xffffffffffffffff\n      dup2\n      gt\n      iszero\n      tag_40\n      jumpi\n      tag_41\n      tag_42\n      jump\t// in\n    tag_41:\n    tag_40:\n      mload(0x40)\n      swap1\n      dup1\n      dup3\n      mstore\n      dup1\n      0x20\n      mul\n      0x20\n      add\n      dup3\n      add\n      0x40\n      mstore\n      dup1\n      iszero\n      tag_43\n      jumpi\n      dup2\n      0x20\n      add\n      0x20\n      dup3\n      mul\n      dup1\n      calldatasize\n      dup4\n      calldatacopy\n      dup1\n      dup3\n      add\n      swap2\n      pop\n      pop\n      swap1\n      pop\n    tag_43:\n      pop\n        /* \"contracts/Transaction.sol\":1150:1204  uint[]  memory transid = new uint[](transactionsCount) */\n      swap1\n      pop\n        /* \"contracts/Transaction.sol\":1213:1234  uint[]  memory drugid */\n      0x00\n        /* \"contracts/Transaction.sol\":1248:1265  transactionsCount */\n      sload(0x01)\n        /* \"contracts/Transaction.sol\":1237:1266  new uint[](transactionsCount) */\n      0xffffffffffffffff\n      dup2\n      gt\n      iszero\n      tag_44\n      jumpi\n      tag_45\n      tag_42\n      jump\t// in\n    tag_45:\n    tag_44:\n      mload(0x40)\n      swap1\n      dup1\n      dup3\n      mstore\n      dup1\n      0x20\n      mul\n      0x20\n      add\n      dup3\n      add\n      0x40\n      mstore\n      dup1\n      iszero\n      tag_46\n      jumpi\n      dup2\n      0x20\n      add\n      0x20\n      dup3\n      mul\n      dup1\n      calldatasize\n      dup4\n      calldatacopy\n      dup1\n      dup3\n      add\n      swap2\n      pop\n      pop\n      swap1\n      pop\n    tag_46:\n      pop\n        /* \"contracts/Transaction.sol\":1213:1266  uint[]  memory drugid = new uint[](transactionsCount) */\n      swap1\n      pop\n        /* \"contracts/Transaction.sol\":1275:1297  uint[]  memory patchno */\n      0x00\n        /* \"contracts/Transaction.sol\":1311:1328  transactionsCount */\n      sload(0x01)\n        /* \"contracts/Transaction.sol\":1300:1329  new uint[](transactionsCount) */\n      0xffffffffffffffff\n      dup2\n      gt\n      iszero\n      tag_47\n      jumpi\n      tag_48\n      tag_42\n      jump\t// in\n    tag_48:\n    tag_47:\n      mload(0x40)\n      swap1\n      dup1\n      dup3\n      mstore\n      dup1\n      0x20\n      mul\n      0x20\n      add\n      dup3\n      add\n      0x40\n      mstore\n      dup1\n      iszero\n      tag_49\n      jumpi\n      dup2\n      0x20\n      add\n      0x20\n      dup3\n      mul\n      dup1\n      calldatasize\n      dup4\n      calldatacopy\n      dup1\n      dup3\n      add\n      swap2\n      pop\n      pop\n      swap1\n      pop\n    tag_49:\n      pop\n        /* \"contracts/Transaction.sol\":1275:1329  uint[]  memory patchno = new uint[](transactionsCount) */\n      swap1\n      pop\n        /* \"contracts/Transaction.sol\":1338:1365  uint[]  memory currentowner */\n      0x00\n        /* \"contracts/Transaction.sol\":1379:1396  transactionsCount */\n      sload(0x01)\n        /* \"contracts/Transaction.sol\":1368:1397  new uint[](transactionsCount) */\n      0xffffffffffffffff\n      dup2\n      gt\n      iszero\n      tag_50\n      jumpi\n      tag_51\n      tag_42\n      jump\t// in\n    tag_51:\n    tag_50:\n      mload(0x40)\n      swap1\n      dup1\n      dup3\n      mstore\n      dup1\n      0x20\n      mul\n      0x20\n      add\n      dup3\n      add\n      0x40\n      mstore\n      dup1\n      iszero\n      tag_52\n      jumpi\n      dup2\n      0x20\n      add\n      0x20\n      dup3\n      mul\n      dup1\n      calldatasize\n      dup4\n      calldatacopy\n      dup1\n      dup3\n      add\n      swap2\n      pop\n      pop\n      swap1\n      pop\n    tag_52:\n      pop\n        /* \"contracts/Transaction.sol\":1338:1397  uint[]  memory currentowner = new uint[](transactionsCount) */\n      swap1\n      pop\n        /* \"contracts/Transaction.sol\":1406:1430  uint[]  memory fromowner */\n      0x00\n        /* \"contracts/Transaction.sol\":1444:1461  transactionsCount */\n      sload(0x01)\n        /* \"contracts/Transaction.sol\":1433:1462  new uint[](transactionsCount) */\n      0xffffffffffffffff\n      dup2\n      gt\n      iszero\n      tag_53\n      jumpi\n      tag_54\n      tag_42\n      jump\t// in\n    tag_54:\n    tag_53:\n      mload(0x40)\n      swap1\n      dup1\n      dup3\n      mstore\n      dup1\n      0x20\n      mul\n      0x20\n      add\n      dup3\n      add\n      0x40\n      mstore\n      dup1\n      iszero\n      tag_55\n      jumpi\n      dup2\n      0x20\n      add\n      0x20\n      dup3\n      mul\n      dup1\n      calldatasize\n      dup4\n      calldatacopy\n      dup1\n      dup3\n      add\n      swap2\n      pop\n      pop\n      swap1\n      pop\n    tag_55:\n      pop\n        /* \"contracts/Transaction.sol\":1406:1462  uint[]  memory fromowner = new uint[](transactionsCount) */\n      swap1\n      pop\n        /* \"contracts/Transaction.sol\":1471:1497  uint[]  memory transamount */\n      0x00\n        /* \"contracts/Transaction.sol\":1511:1528  transactionsCount */\n      sload(0x01)\n        /* \"contracts/Transaction.sol\":1500:1529  new uint[](transactionsCount) */\n      0xffffffffffffffff\n      dup2\n      gt\n      iszero\n      tag_56\n      jumpi\n      tag_57\n      tag_42\n      jump\t// in\n    tag_57:\n    tag_56:\n      mload(0x40)\n      swap1\n      dup1\n      dup3\n      mstore\n      dup1\n      0x20\n      mul\n      0x20\n      add\n      dup3\n      add\n      0x40\n      mstore\n      dup1\n      iszero\n      tag_58\n      jumpi\n      dup2\n      0x20\n      add\n      0x20\n      dup3\n      mul\n      dup1\n      calldatasize\n      dup4\n      calldatacopy\n      dup1\n      dup3\n      add\n      swap2\n      pop\n      pop\n      swap1\n      pop\n    tag_58:\n      pop\n        /* \"contracts/Transaction.sol\":1471:1529  uint[]  memory transamount = new uint[](transactionsCount) */\n      swap1\n      pop\n        /* \"contracts/Transaction.sol\":1538:1562  uint[]  memory transdate */\n      0x00\n        /* \"contracts/Transaction.sol\":1576:1593  transactionsCount */\n      sload(0x01)\n        /* \"contracts/Transaction.sol\":1565:1594  new uint[](transactionsCount) */\n      0xffffffffffffffff\n      dup2\n      gt\n      iszero\n      tag_59\n      jumpi\n      tag_60\n      tag_42\n      jump\t// in\n    tag_60:\n    tag_59:\n      mload(0x40)\n      swap1\n      dup1\n      dup3\n      mstore\n      dup1\n      0x20\n      mul\n      0x20\n      add\n      dup3\n      add\n      0x40\n      mstore\n      dup1\n      iszero\n      tag_61\n      jumpi\n      dup2\n      0x20\n      add\n      0x20\n      dup3\n      mul\n      dup1\n      calldatasize\n      dup4\n      calldatacopy\n      dup1\n      dup3\n      add\n      swap2\n      pop\n      pop\n      swap1\n      pop\n    tag_61:\n      pop\n        /* \"contracts/Transaction.sol\":1538:1594  uint[]  memory transdate = new uint[](transactionsCount) */\n      swap1\n      pop\n        /* \"contracts/Transaction.sol\":1616:1622  uint i */\n      0x00\n        /* \"contracts/Transaction.sol\":1611:2041  for (uint i = 0; i < transactionsCount; i++) {\r... */\n    tag_62:\n        /* \"contracts/Transaction.sol\":1632:1649  transactionsCount */\n      sload(0x01)\n        /* \"contracts/Transaction.sol\":1628:1629  i */\n      dup2\n        /* \"contracts/Transaction.sol\":1628:1649  i < transactionsCount */\n      lt\n        /* \"contracts/Transaction.sol\":1611:2041  for (uint i = 0; i < transactionsCount; i++) {\r... */\n      iszero\n      tag_63\n      jumpi\n        /* \"contracts/Transaction.sol\":1669:1700  Transaction storage transaction */\n      0x00\n        /* \"contracts/Transaction.sol\":1703:1715  transactions */\n      dup1\n        /* \"contracts/Transaction.sol\":1703:1718  transactions[i] */\n      0x00\n        /* \"contracts/Transaction.sol\":1716:1717  i */\n      dup4\n        /* \"contracts/Transaction.sol\":1703:1718  transactions[i] */\n      dup2\n      mstore\n      0x20\n      add\n      swap1\n      dup2\n      mstore\n      0x20\n      add\n      0x00\n      keccak256\n        /* \"contracts/Transaction.sol\":1669:1718  Transaction storage transaction = transactions[i] */\n      swap1\n      pop\n        /* \"contracts/Transaction.sol\":1744:1755  transaction */\n      dup1\n        /* \"contracts/Transaction.sol\":1744:1763  transaction.PatchNo */\n      0x02\n      add\n      sload\n        /* \"contracts/Transaction.sol\":1731:1738  patchno */\n      dup8\n        /* \"contracts/Transaction.sol\":1739:1740  i */\n      dup4\n        /* \"contracts/Transaction.sol\":1731:1741  patchno[i] */\n      dup2\n      mload\n      dup2\n      lt\n      tag_65\n      jumpi\n      tag_66\n      tag_67\n      jump\t// in\n    tag_66:\n    tag_65:\n      0x20\n      mul\n      0x20\n      add\n      add\n        /* \"contracts/Transaction.sol\":1731:1763  patchno[i] = transaction.PatchNo */\n      dup2\n      dup2\n      mstore\n      pop\n      pop\n        /* \"contracts/Transaction.sol\":1789:1800  transaction */\n      dup1\n        /* \"contracts/Transaction.sol\":1789:1814  transaction.TransactionID */\n      0x00\n      add\n      sload\n        /* \"contracts/Transaction.sol\":1776:1783  transid */\n      dup10\n        /* \"contracts/Transaction.sol\":1784:1785  i */\n      dup4\n        /* \"contracts/Transaction.sol\":1776:1786  transid[i] */\n      dup2\n      mload\n      dup2\n      lt\n      tag_68\n      jumpi\n      tag_69\n      tag_67\n      jump\t// in\n    tag_69:\n    tag_68:\n      0x20\n      mul\n      0x20\n      add\n      add\n        /* \"contracts/Transaction.sol\":1776:1814  transid[i] = transaction.TransactionID */\n      dup2\n      dup2\n      mstore\n      pop\n      pop\n        /* \"contracts/Transaction.sol\":1844:1855  transaction */\n      dup1\n        /* \"contracts/Transaction.sol\":1844:1872  transaction.TransferedAmount */\n      0x05\n      add\n      sload\n        /* \"contracts/Transaction.sol\":1827:1838  transamount */\n      dup5\n        /* \"contracts/Transaction.sol\":1839:1840  i */\n      dup4\n        /* \"contracts/Transaction.sol\":1827:1841  transamount[i] */\n      dup2\n      mload\n      dup2\n      lt\n      tag_70\n      jumpi\n      tag_71\n      tag_67\n      jump\t// in\n    tag_71:\n    tag_70:\n      0x20\n      mul\n      0x20\n      add\n      add\n        /* \"contracts/Transaction.sol\":1827:1872  transamount[i] = transaction.TransferedAmount */\n      dup2\n      dup2\n      mstore\n      pop\n      pop\n        /* \"contracts/Transaction.sol\":1900:1911  transaction */\n      dup1\n        /* \"contracts/Transaction.sol\":1900:1927  transaction.TransactionDate */\n      0x06\n      add\n      sload\n        /* \"contracts/Transaction.sol\":1885:1894  transdate */\n      dup4\n        /* \"contracts/Transaction.sol\":1895:1896  i */\n      dup4\n        /* \"contracts/Transaction.sol\":1885:1897  transdate[i] */\n      dup2\n      mload\n      dup2\n      lt\n      tag_72\n      jumpi\n      tag_73\n      tag_67\n      jump\t// in\n    tag_73:\n    tag_72:\n      0x20\n      mul\n      0x20\n      add\n      add\n        /* \"contracts/Transaction.sol\":1885:1927  transdate[i] = transaction.TransactionDate */\n      dup2\n      dup2\n      mstore\n      pop\n      pop\n        /* \"contracts/Transaction.sol\":1958:1969  transaction */\n      dup1\n        /* \"contracts/Transaction.sol\":1958:1982  transaction.CurrentOwner */\n      0x03\n      add\n      sload\n        /* \"contracts/Transaction.sol\":1940:1952  currentowner */\n      dup7\n        /* \"contracts/Transaction.sol\":1953:1954  i */\n      dup4\n        /* \"contracts/Transaction.sol\":1940:1955  currentowner[i] */\n      dup2\n      mload\n      dup2\n      lt\n      tag_74\n      jumpi\n      tag_75\n      tag_67\n      jump\t// in\n    tag_75:\n    tag_74:\n      0x20\n      mul\n      0x20\n      add\n      add\n        /* \"contracts/Transaction.sol\":1940:1982  currentowner[i] = transaction.CurrentOwner */\n      dup2\n      dup2\n      mstore\n      pop\n      pop\n        /* \"contracts/Transaction.sol\":2010:2021  transaction */\n      dup1\n        /* \"contracts/Transaction.sol\":2010:2031  transaction.FromOwner */\n      0x04\n      add\n      sload\n        /* \"contracts/Transaction.sol\":1995:2004  fromowner */\n      dup6\n        /* \"contracts/Transaction.sol\":2005:2006  i */\n      dup4\n        /* \"contracts/Transaction.sol\":1995:2007  fromowner[i] */\n      dup2\n      mload\n      dup2\n      lt\n      tag_76\n      jumpi\n      tag_77\n      tag_67\n      jump\t// in\n    tag_77:\n    tag_76:\n      0x20\n      mul\n      0x20\n      add\n      add\n        /* \"contracts/Transaction.sol\":1995:2031  fromowner[i] = transaction.FromOwner */\n      dup2\n      dup2\n      mstore\n      pop\n      pop\n        /* \"contracts/Transaction.sol\":1656:2041  {\r... */\n      pop\n        /* \"contracts/Transaction.sol\":1651:1654  i++ */\n      dup1\n      dup1\n      tag_78\n      swap1\n      tag_38\n      jump\t// in\n    tag_78:\n      swap2\n      pop\n      pop\n        /* \"contracts/Transaction.sol\":1611:2041  for (uint i = 0; i < transactionsCount; i++) {\r... */\n      jump(tag_62)\n    tag_63:\n      pop\n        /* \"contracts/Transaction.sol\":2059:2066  patchno */\n      dup5\n        /* \"contracts/Transaction.sol\":2068:2075  transid */\n      dup8\n        /* \"contracts/Transaction.sol\":2077:2088  transamount */\n      dup4\n        /* \"contracts/Transaction.sol\":2090:2099  transdate */\n      dup4\n        /* \"contracts/Transaction.sol\":2101:2113  currentowner */\n      dup8\n        /* \"contracts/Transaction.sol\":2115:2124  fromowner */\n      dup8\n        /* \"contracts/Transaction.sol\":2051:2125  return (patchno, transid, transamount, transdate, currentowner, fromowner) */\n      swap13\n      pop\n      swap13\n      pop\n      swap13\n      pop\n      swap13\n      pop\n      swap13\n      pop\n      swap13\n      pop\n      pop\n      pop\n      pop\n      pop\n      pop\n      pop\n      pop\n        /* \"contracts/Transaction.sol\":1005:2133  function getTransaction() public view returns (uint[] memory, uint[] memory, uint[] memory, uint[] memory, uint[] memory, uint[] memory){\r... */\n      swap1\n      swap2\n      swap3\n      swap4\n      swap5\n      swap6\n      jump\t// out\n        /* \"contracts/Transaction.sol\":2170:2494  function getTransactions() public view returns (Transaction[] memory){\r... */\n    tag_18:\n        /* \"contracts/Transaction.sol\":2218:2238  Transaction[] memory */\n      0x60\n        /* \"contracts/Transaction.sol\":2248:2274  Transaction[]    memory id */\n      0x00\n        /* \"contracts/Transaction.sol\":2295:2312  transactionsCount */\n      sload(0x01)\n        /* \"contracts/Transaction.sol\":2277:2313  new Transaction[](transactionsCount) */\n      0xffffffffffffffff\n      dup2\n      gt\n      iszero\n      tag_80\n      jumpi\n      tag_81\n      tag_42\n      jump\t// in\n    tag_81:\n    tag_80:\n      mload(0x40)\n      swap1\n      dup1\n      dup3\n      mstore\n      dup1\n      0x20\n      mul\n      0x20\n      add\n      dup3\n      add\n      0x40\n      mstore\n      dup1\n      iszero\n      tag_82\n      jumpi\n      dup2\n      0x20\n      add\n    tag_83:\n      tag_84\n      tag_85\n      jump\t// in\n    tag_84:\n      dup2\n      mstore\n      0x20\n      add\n      swap1\n      0x01\n      swap1\n      sub\n      swap1\n      dup2\n      tag_83\n      jumpi\n      swap1\n      pop\n    tag_82:\n      pop\n        /* \"contracts/Transaction.sol\":2248:2313  Transaction[]    memory id = new Transaction[](transactionsCount) */\n      swap1\n      pop\n        /* \"contracts/Transaction.sol\":2327:2333  uint i */\n      0x00\n        /* \"contracts/Transaction.sol\":2322:2471  for (uint i = 0; i < transactionsCount; i++) {\r... */\n    tag_86:\n        /* \"contracts/Transaction.sol\":2343:2360  transactionsCount */\n      sload(0x01)\n        /* \"contracts/Transaction.sol\":2339:2340  i */\n      dup2\n        /* \"contracts/Transaction.sol\":2339:2360  i < transactionsCount */\n      lt\n        /* \"contracts/Transaction.sol\":2322:2471  for (uint i = 0; i < transactionsCount; i++) {\r... */\n      iszero\n      tag_87\n      jumpi\n        /* \"contracts/Transaction.sol\":2380:2411  Transaction storage transaction */\n      0x00\n        /* \"contracts/Transaction.sol\":2414:2426  transactions */\n      dup1\n        /* \"contracts/Transaction.sol\":2414:2429  transactions[i] */\n      0x00\n        /* \"contracts/Transaction.sol\":2427:2428  i */\n      dup4\n        /* \"contracts/Transaction.sol\":2414:2429  transactions[i] */\n      dup2\n      mstore\n      0x20\n      add\n      swap1\n      dup2\n      mstore\n      0x20\n      add\n      0x00\n      keccak256\n        /* \"contracts/Transaction.sol\":2380:2429  Transaction storage transaction = transactions[i] */\n      swap1\n      pop\n        /* \"contracts/Transaction.sol\":2450:2461  transaction */\n      dup1\n        /* \"contracts/Transaction.sol\":2442:2461  id[i] = transaction */\n      mload(0x40)\n      dup1\n      0xe0\n      add\n      0x40\n      mstore\n      swap1\n      dup2\n      0x00\n      dup3\n      add\n      sload\n      dup2\n      mstore\n      0x20\n      add\n      0x01\n      dup3\n      add\n      sload\n      dup2\n      mstore\n      0x20\n      add\n      0x02\n      dup3\n      add\n      sload\n      dup2\n      mstore\n      0x20\n      add\n      0x03\n      dup3\n      add\n      sload\n      dup2\n      mstore\n      0x20\n      add\n      0x04\n      dup3\n      add\n      sload\n      dup2\n      mstore\n      0x20\n      add\n      0x05\n      dup3\n      add\n      sload\n      dup2\n      mstore\n      0x20\n      add\n      0x06\n      dup3\n      add\n      sload\n      dup2\n      mstore\n      pop\n      pop\n        /* \"contracts/Transaction.sol\":2442:2444  id */\n      dup4\n        /* \"contracts/Transaction.sol\":2445:2446  i */\n      dup4\n        /* \"contracts/Transaction.sol\":2442:2447  id[i] */\n      dup2\n      mload\n      dup2\n      lt\n      tag_89\n      jumpi\n      tag_90\n      tag_67\n      jump\t// in\n    tag_90:\n    tag_89:\n      0x20\n      mul\n      0x20\n      add\n      add\n        /* \"contracts/Transaction.sol\":2442:2461  id[i] = transaction */\n      dup2\n      swap1\n      mstore\n      pop\n        /* \"contracts/Transaction.sol\":2367:2471  {\r... */\n      pop\n        /* \"contracts/Transaction.sol\":2362:2365  i++ */\n      dup1\n      dup1\n      tag_91\n      swap1\n      tag_38\n      jump\t// in\n    tag_91:\n      swap2\n      pop\n      pop\n        /* \"contracts/Transaction.sol\":2322:2471  for (uint i = 0; i < transactionsCount; i++) {\r... */\n      jump(tag_86)\n    tag_87:\n      pop\n        /* \"contracts/Transaction.sol\":2486:2488  id */\n      dup1\n        /* \"contracts/Transaction.sol\":2479:2488  return id */\n      swap2\n      pop\n      pop\n        /* \"contracts/Transaction.sol\":2170:2494  function getTransactions() public view returns (Transaction[] memory){\r... */\n      swap1\n      jump\t// out\n        /* \"contracts/Transaction.sol\":844:960  function get(uint _transid) public view returns(Transaction memory) {\r... */\n    tag_24:\n        /* \"contracts/Transaction.sol\":892:910  Transaction memory */\n      tag_92\n      tag_85\n      jump\t// in\n    tag_92:\n        /* \"contracts/Transaction.sol\":930:942  transactions */\n      0x00\n        /* \"contracts/Transaction.sol\":930:952  transactions[_transid] */\n      dup1\n        /* \"contracts/Transaction.sol\":943:951  _transid */\n      dup4\n        /* \"contracts/Transaction.sol\":930:952  transactions[_transid] */\n      dup2\n      mstore\n      0x20\n      add\n      swap1\n      dup2\n      mstore\n      0x20\n      add\n      0x00\n      keccak256\n        /* \"contracts/Transaction.sol\":923:952  return transactions[_transid] */\n      mload(0x40)\n      dup1\n      0xe0\n      add\n      0x40\n      mstore\n      swap1\n      dup2\n      0x00\n      dup3\n      add\n      sload\n      dup2\n      mstore\n      0x20\n      add\n      0x01\n      dup3\n      add\n      sload\n      dup2\n      mstore\n      0x20\n      add\n      0x02\n      dup3\n      add\n      sload\n      dup2\n      mstore\n      0x20\n      add\n      0x03\n      dup3\n      add\n      sload\n      dup2\n      mstore\n      0x20\n      add\n      0x04\n      dup3\n      add\n      sload\n      dup2\n      mstore\n      0x20\n      add\n      0x05\n      dup3\n      add\n      sload\n      dup2\n      mstore\n      0x20\n      add\n      0x06\n      dup3\n      add\n      sload\n      dup2\n      mstore\n      pop\n      pop\n      swap1\n      pop\n        /* \"contracts/Transaction.sol\":844:960  function get(uint _transid) public view returns(Transaction memory) {\r... */\n      swap2\n      swap1\n      pop\n      jump\t// out\n        /* \"contracts/Transaction.sol\":314:363  mapping (uint => Transaction) public transactions */\n    tag_29:\n      mstore(0x20, 0x00)\n      dup1\n      0x00\n      mstore\n      keccak256(0x00, 0x40)\n      0x00\n      swap2\n      pop\n      swap1\n      pop\n      dup1\n      0x00\n      add\n      sload\n      swap1\n      dup1\n      0x01\n      add\n      sload\n      swap1\n      dup1\n      0x02\n      add\n      sload\n      swap1\n      dup1\n      0x03\n      add\n      sload\n      swap1\n      dup1\n      0x04\n      add\n      sload\n      swap1\n      dup1\n      0x05\n      add\n      sload\n      swap1\n      dup1\n      0x06\n      add\n      sload\n      swap1\n      pop\n      dup8\n      jump\t// out\n        /* \"contracts/Transaction.sol\":420:449  uint public transactionsCount */\n    tag_33:\n      sload(0x01)\n      dup2\n      jump\t// out\n    tag_85:\n      mload(0x40)\n      dup1\n      0xe0\n      add\n      0x40\n      mstore\n      dup1\n      0x00\n      dup2\n      mstore\n      0x20\n      add\n      0x00\n      dup2\n      mstore\n      0x20\n      add\n      0x00\n      dup2\n      mstore\n      0x20\n      add\n      0x00\n      dup2\n      mstore\n      0x20\n      add\n      0x00\n      dup2\n      mstore\n      0x20\n      add\n      0x00\n      dup2\n      mstore\n      0x20\n      add\n      0x00\n      dup2\n      mstore\n      pop\n      swap1\n      jump\t// out\n        /* \"#utility.yul\":7:146   */\n    tag_95:\n        /* \"#utility.yul\":53:58   */\n      0x00\n        /* \"#utility.yul\":91:97   */\n      dup2\n        /* \"#utility.yul\":78:98   */\n      calldataload\n        /* \"#utility.yul\":69:98   */\n      swap1\n      pop\n        /* \"#utility.yul\":107:140   */\n      tag_97\n        /* \"#utility.yul\":134:139   */\n      dup2\n        /* \"#utility.yul\":107:140   */\n      tag_98\n      jump\t// in\n    tag_97:\n        /* \"#utility.yul\":7:146   */\n      swap3\n      swap2\n      pop\n      pop\n      jump\t// out\n        /* \"#utility.yul\":152:481   */\n    tag_23:\n        /* \"#utility.yul\":211:217   */\n      0x00\n        /* \"#utility.yul\":260:262   */\n      0x20\n        /* \"#utility.yul\":248:257   */\n      dup3\n        /* \"#utility.yul\":239:246   */\n      dup5\n        /* \"#utility.yul\":235:258   */\n      sub\n        /* \"#utility.yul\":231:263   */\n      slt\n        /* \"#utility.yul\":228:347   */\n      iszero\n      tag_100\n      jumpi\n        /* \"#utility.yul\":266:345   */\n      tag_101\n      tag_102\n      jump\t// in\n    tag_101:\n        /* \"#utility.yul\":228:347   */\n    tag_100:\n        /* \"#utility.yul\":386:387   */\n      0x00\n        /* \"#utility.yul\":411:464   */\n      tag_103\n        /* \"#utility.yul\":456:463   */\n      dup5\n        /* \"#utility.yul\":447:453   */\n      dup3\n        /* \"#utility.yul\":436:445   */\n      dup6\n        /* \"#utility.yul\":432:454   */\n      add\n        /* \"#utility.yul\":411:464   */\n      tag_95\n      jump\t// in\n    tag_103:\n        /* \"#utility.yul\":401:464   */\n      swap2\n      pop\n        /* \"#utility.yul\":357:474   */\n      pop\n        /* \"#utility.yul\":152:481   */\n      swap3\n      swap2\n      pop\n      pop\n      jump\t// out\n        /* \"#utility.yul\":487:1544   */\n    tag_11:\n        /* \"#utility.yul\":591:597   */\n      0x00\n        /* \"#utility.yul\":599:605   */\n      dup1\n        /* \"#utility.yul\":607:613   */\n      0x00\n        /* \"#utility.yul\":615:621   */\n      dup1\n        /* \"#utility.yul\":623:629   */\n      0x00\n        /* \"#utility.yul\":631:637   */\n      dup1\n        /* \"#utility.yul\":680:683   */\n      0xc0\n        /* \"#utility.yul\":668:677   */\n      dup8\n        /* \"#utility.yul\":659:666   */\n      dup10\n        /* \"#utility.yul\":655:678   */\n      sub\n        /* \"#utility.yul\":651:684   */\n      slt\n        /* \"#utility.yul\":648:768   */\n      iszero\n      tag_105\n      jumpi\n        /* \"#utility.yul\":687:766   */\n      tag_106\n      tag_102\n      jump\t// in\n    tag_106:\n        /* \"#utility.yul\":648:768   */\n    tag_105:\n        /* \"#utility.yul\":807:808   */\n      0x00\n        /* \"#utility.yul\":832:885   */\n      tag_107\n        /* \"#utility.yul\":877:884   */\n      dup10\n        /* \"#utility.yul\":868:874   */\n      dup3\n        /* \"#utility.yul\":857:866   */\n      dup11\n        /* \"#utility.yul\":853:875   */\n      add\n        /* \"#utility.yul\":832:885   */\n      tag_95\n      jump\t// in\n    tag_107:\n        /* \"#utility.yul\":822:885   */\n      swap7\n      pop\n        /* \"#utility.yul\":778:895   */\n      pop\n        /* \"#utility.yul\":934:936   */\n      0x20\n        /* \"#utility.yul\":960:1013   */\n      tag_108\n        /* \"#utility.yul\":1005:1012   */\n      dup10\n        /* \"#utility.yul\":996:1002   */\n      dup3\n        /* \"#utility.yul\":985:994   */\n      dup11\n        /* \"#utility.yul\":981:1003   */\n      add\n        /* \"#utility.yul\":960:1013   */\n      tag_95\n      jump\t// in\n    tag_108:\n        /* \"#utility.yul\":950:1013   */\n      swap6\n      pop\n        /* \"#utility.yul\":905:1023   */\n      pop\n        /* \"#utility.yul\":1062:1064   */\n      0x40\n        /* \"#utility.yul\":1088:1141   */\n      tag_109\n        /* \"#utility.yul\":1133:1140   */\n      dup10\n        /* \"#utility.yul\":1124:1130   */\n      dup3\n        /* \"#utility.yul\":1113:1122   */\n      dup11\n        /* \"#utility.yul\":1109:1131   */\n      add\n        /* \"#utility.yul\":1088:1141   */\n      tag_95\n      jump\t// in\n    tag_109:\n        /* \"#utility.yul\":1078:1141   */\n      swap5\n      pop\n        /* \"#utility.yul\":1033:1151   */\n      pop\n        /* \"#utility.yul\":1190:1192   */\n      0x60\n        /* \"#utility.yul\":1216:1269   */\n      tag_110\n        /* \"#utility.yul\":1261:1268   */\n      dup10\n        /* \"#utility.yul\":1252:1258   */\n      dup3\n        /* \"#utility.yul\":1241:1250   */\n      dup11\n        /* \"#utility.yul\":1237:1259   */\n      add\n        /* \"#utility.yul\":1216:1269   */\n      tag_95\n      jump\t// in\n    tag_110:\n        /* \"#utility.yul\":1206:1269   */\n      swap4\n      pop\n        /* \"#utility.yul\":1161:1279   */\n      pop\n        /* \"#utility.yul\":1318:1321   */\n      0x80\n        /* \"#utility.yul\":1345:1398   */\n      tag_111\n        /* \"#utility.yul\":1390:1397   */\n      dup10\n        /* \"#utility.yul\":1381:1387   */\n      dup3\n        /* \"#utility.yul\":1370:1379   */\n      dup11\n        /* \"#utility.yul\":1366:1388   */\n      add\n        /* \"#utility.yul\":1345:1398   */\n      tag_95\n      jump\t// in\n    tag_111:\n        /* \"#utility.yul\":1335:1398   */\n      swap3\n      pop\n        /* \"#utility.yul\":1289:1408   */\n      pop\n        /* \"#utility.yul\":1447:1450   */\n      0xa0\n        /* \"#utility.yul\":1474:1527   */\n      tag_112\n        /* \"#utility.yul\":1519:1526   */\n      dup10\n        /* \"#utility.yul\":1510:1516   */\n      dup3\n        /* \"#utility.yul\":1499:1508   */\n      dup11\n        /* \"#utility.yul\":1495:1517   */\n      add\n        /* \"#utility.yul\":1474:1527   */\n      tag_95\n      jump\t// in\n    tag_112:\n        /* \"#utility.yul\":1464:1527   */\n      swap2\n      pop\n        /* \"#utility.yul\":1418:1537   */\n      pop\n        /* \"#utility.yul\":487:1544   */\n      swap3\n      swap6\n      pop\n      swap3\n      swap6\n      pop\n      swap3\n      swap6\n      jump\t// out\n        /* \"#utility.yul\":1550:1837   */\n    tag_113:\n        /* \"#utility.yul\":1673:1683   */\n      0x00\n        /* \"#utility.yul\":1694:1794   */\n      tag_115\n        /* \"#utility.yul\":1790:1793   */\n      dup4\n        /* \"#utility.yul\":1782:1788   */\n      dup4\n        /* \"#utility.yul\":1694:1794   */\n      tag_116\n      jump\t// in\n    tag_115:\n        /* \"#utility.yul\":1826:1830   */\n      0xe0\n        /* \"#utility.yul\":1821:1824   */\n      dup4\n        /* \"#utility.yul\":1817:1831   */\n      add\n        /* \"#utility.yul\":1803:1831   */\n      swap1\n      pop\n        /* \"#utility.yul\":1550:1837   */\n      swap3\n      swap2\n      pop\n      pop\n      jump\t// out\n        /* \"#utility.yul\":1843:2022   */\n    tag_117:\n        /* \"#utility.yul\":1912:1922   */\n      0x00\n        /* \"#utility.yul\":1933:1979   */\n      tag_119\n        /* \"#utility.yul\":1975:1978   */\n      dup4\n        /* \"#utility.yul\":1967:1973   */\n      dup4\n        /* \"#utility.yul\":1933:1979   */\n      tag_120\n      jump\t// in\n    tag_119:\n        /* \"#utility.yul\":2011:2015   */\n      0x20\n        /* \"#utility.yul\":2006:2009   */\n      dup4\n        /* \"#utility.yul\":2002:2016   */\n      add\n        /* \"#utility.yul\":1988:2016   */\n      swap1\n      pop\n        /* \"#utility.yul\":1843:2022   */\n      swap3\n      swap2\n      pop\n      pop\n      jump\t// out\n        /* \"#utility.yul\":2106:3054   */\n    tag_121:\n        /* \"#utility.yul\":2279:2282   */\n      0x00\n        /* \"#utility.yul\":2308:2389   */\n      tag_123\n        /* \"#utility.yul\":2383:2388   */\n      dup3\n        /* \"#utility.yul\":2308:2389   */\n      tag_124\n      jump\t// in\n    tag_123:\n        /* \"#utility.yul\":2405:2518   */\n      tag_125\n        /* \"#utility.yul\":2511:2517   */\n      dup2\n        /* \"#utility.yul\":2506:2509   */\n      dup6\n        /* \"#utility.yul\":2405:2518   */\n      tag_126\n      jump\t// in\n    tag_125:\n        /* \"#utility.yul\":2398:2518   */\n      swap4\n      pop\n        /* \"#utility.yul\":2542:2625   */\n      tag_127\n        /* \"#utility.yul\":2619:2624   */\n      dup4\n        /* \"#utility.yul\":2542:2625   */\n      tag_128\n      jump\t// in\n    tag_127:\n        /* \"#utility.yul\":2648:2655   */\n      dup1\n        /* \"#utility.yul\":2679:2680   */\n      0x00\n        /* \"#utility.yul\":2664:3029   */\n    tag_129:\n        /* \"#utility.yul\":2689:2695   */\n      dup4\n        /* \"#utility.yul\":2686:2687   */\n      dup2\n        /* \"#utility.yul\":2683:2696   */\n      lt\n        /* \"#utility.yul\":2664:3029   */\n      iszero\n      tag_131\n      jumpi\n        /* \"#utility.yul\":2765:2771   */\n      dup2\n        /* \"#utility.yul\":2759:2772   */\n      mload\n        /* \"#utility.yul\":2792:2909   */\n      tag_132\n        /* \"#utility.yul\":2905:2908   */\n      dup9\n        /* \"#utility.yul\":2890:2903   */\n      dup3\n        /* \"#utility.yul\":2792:2909   */\n      tag_113\n      jump\t// in\n    tag_132:\n        /* \"#utility.yul\":2785:2909   */\n      swap8\n      pop\n        /* \"#utility.yul\":2932:3019   */\n      tag_133\n        /* \"#utility.yul\":3012:3018   */\n      dup4\n        /* \"#utility.yul\":2932:3019   */\n      tag_134\n      jump\t// in\n    tag_133:\n        /* \"#utility.yul\":2922:3019   */\n      swap3\n      pop\n        /* \"#utility.yul\":2724:3029   */\n      pop\n        /* \"#utility.yul\":2711:2712   */\n      0x01\n        /* \"#utility.yul\":2708:2709   */\n      dup2\n        /* \"#utility.yul\":2704:2713   */\n      add\n        /* \"#utility.yul\":2699:2713   */\n      swap1\n      pop\n        /* \"#utility.yul\":2664:3029   */\n      jump(tag_129)\n    tag_131:\n        /* \"#utility.yul\":2668:2682   */\n      pop\n        /* \"#utility.yul\":3045:3048   */\n      dup6\n        /* \"#utility.yul\":3038:3048   */\n      swap4\n      pop\n        /* \"#utility.yul\":2284:3054   */\n      pop\n      pop\n      pop\n        /* \"#utility.yul\":2106:3054   */\n      swap3\n      swap2\n      pop\n      pop\n      jump\t// out\n        /* \"#utility.yul\":3090:3822   */\n    tag_135:\n        /* \"#utility.yul\":3209:3212   */\n      0x00\n        /* \"#utility.yul\":3238:3292   */\n      tag_137\n        /* \"#utility.yul\":3286:3291   */\n      dup3\n        /* \"#utility.yul\":3238:3292   */\n      tag_138\n      jump\t// in\n    tag_137:\n        /* \"#utility.yul\":3308:3394   */\n      tag_139\n        /* \"#utility.yul\":3387:3393   */\n      dup2\n        /* \"#utility.yul\":3382:3385   */\n      dup6\n        /* \"#utility.yul\":3308:3394   */\n      tag_140\n      jump\t// in\n    tag_139:\n        /* \"#utility.yul\":3301:3394   */\n      swap4\n      pop\n        /* \"#utility.yul\":3418:3474   */\n      tag_141\n        /* \"#utility.yul\":3468:3473   */\n      dup4\n        /* \"#utility.yul\":3418:3474   */\n      tag_142\n      jump\t// in\n    tag_141:\n        /* \"#utility.yul\":3497:3504   */\n      dup1\n        /* \"#utility.yul\":3528:3529   */\n      0x00\n        /* \"#utility.yul\":3513:3797   */\n    tag_143:\n        /* \"#utility.yul\":3538:3544   */\n      dup4\n        /* \"#utility.yul\":3535:3536   */\n      dup2\n        /* \"#utility.yul\":3532:3545   */\n      lt\n        /* \"#utility.yul\":3513:3797   */\n      iszero\n      tag_145\n      jumpi\n        /* \"#utility.yul\":3614:3620   */\n      dup2\n        /* \"#utility.yul\":3608:3621   */\n      mload\n        /* \"#utility.yul\":3641:3704   */\n      tag_146\n        /* \"#utility.yul\":3700:3703   */\n      dup9\n        /* \"#utility.yul\":3685:3698   */\n      dup3\n        /* \"#utility.yul\":3641:3704   */\n      tag_117\n      jump\t// in\n    tag_146:\n        /* \"#utility.yul\":3634:3704   */\n      swap8\n      pop\n        /* \"#utility.yul\":3727:3787   */\n      tag_147\n        /* \"#utility.yul\":3780:3786   */\n      dup4\n        /* \"#utility.yul\":3727:3787   */\n      tag_148\n      jump\t// in\n    tag_147:\n        /* \"#utility.yul\":3717:3787   */\n      swap3\n      pop\n        /* \"#utility.yul\":3573:3797   */\n      pop\n        /* \"#utility.yul\":3560:3561   */\n      0x01\n        /* \"#utility.yul\":3557:3558   */\n      dup2\n        /* \"#utility.yul\":3553:3562   */\n      add\n        /* \"#utility.yul\":3548:3562   */\n      swap1\n      pop\n        /* \"#utility.yul\":3513:3797   */\n      jump(tag_143)\n    tag_145:\n        /* \"#utility.yul\":3517:3531   */\n      pop\n        /* \"#utility.yul\":3813:3816   */\n      dup6\n        /* \"#utility.yul\":3806:3816   */\n      swap4\n      pop\n        /* \"#utility.yul\":3214:3822   */\n      pop\n      pop\n      pop\n        /* \"#utility.yul\":3090:3822   */\n      swap3\n      swap2\n      pop\n      pop\n      jump\t// out\n        /* \"#utility.yul\":3902:5323   */\n    tag_116:\n        /* \"#utility.yul\":4043:4047   */\n      0xe0\n        /* \"#utility.yul\":4038:4041   */\n      dup3\n        /* \"#utility.yul\":4034:4048   */\n      add\n        /* \"#utility.yul\":4139:4143   */\n      0x00\n        /* \"#utility.yul\":4132:4137   */\n      dup3\n        /* \"#utility.yul\":4128:4144   */\n      add\n        /* \"#utility.yul\":4122:4145   */\n      mload\n        /* \"#utility.yul\":4158:4221   */\n      tag_150\n        /* \"#utility.yul\":4215:4219   */\n      0x00\n        /* \"#utility.yul\":4210:4213   */\n      dup6\n        /* \"#utility.yul\":4206:4220   */\n      add\n        /* \"#utility.yul\":4192:4204   */\n      dup3\n        /* \"#utility.yul\":4158:4221   */\n      tag_120\n      jump\t// in\n    tag_150:\n        /* \"#utility.yul\":4058:4231   */\n      pop\n        /* \"#utility.yul\":4315:4319   */\n      0x20\n        /* \"#utility.yul\":4308:4313   */\n      dup3\n        /* \"#utility.yul\":4304:4320   */\n      add\n        /* \"#utility.yul\":4298:4321   */\n      mload\n        /* \"#utility.yul\":4334:4397   */\n      tag_151\n        /* \"#utility.yul\":4391:4395   */\n      0x20\n        /* \"#utility.yul\":4386:4389   */\n      dup6\n        /* \"#utility.yul\":4382:4396   */\n      add\n        /* \"#utility.yul\":4368:4380   */\n      dup3\n        /* \"#utility.yul\":4334:4397   */\n      tag_120\n      jump\t// in\n    tag_151:\n        /* \"#utility.yul\":4241:4407   */\n      pop\n        /* \"#utility.yul\":4492:4496   */\n      0x40\n        /* \"#utility.yul\":4485:4490   */\n      dup3\n        /* \"#utility.yul\":4481:4497   */\n      add\n        /* \"#utility.yul\":4475:4498   */\n      mload\n        /* \"#utility.yul\":4511:4574   */\n      tag_152\n        /* \"#utility.yul\":4568:4572   */\n      0x40\n        /* \"#utility.yul\":4563:4566   */\n      dup6\n        /* \"#utility.yul\":4559:4573   */\n      add\n        /* \"#utility.yul\":4545:4557   */\n      dup3\n        /* \"#utility.yul\":4511:4574   */\n      tag_120\n      jump\t// in\n    tag_152:\n        /* \"#utility.yul\":4417:4584   */\n      pop\n        /* \"#utility.yul\":4674:4678   */\n      0x60\n        /* \"#utility.yul\":4667:4672   */\n      dup3\n        /* \"#utility.yul\":4663:4679   */\n      add\n        /* \"#utility.yul\":4657:4680   */\n      mload\n        /* \"#utility.yul\":4693:4756   */\n      tag_153\n        /* \"#utility.yul\":4750:4754   */\n      0x60\n        /* \"#utility.yul\":4745:4748   */\n      dup6\n        /* \"#utility.yul\":4741:4755   */\n      add\n        /* \"#utility.yul\":4727:4739   */\n      dup3\n        /* \"#utility.yul\":4693:4756   */\n      tag_120\n      jump\t// in\n    tag_153:\n        /* \"#utility.yul\":4594:4766   */\n      pop\n        /* \"#utility.yul\":4853:4857   */\n      0x80\n        /* \"#utility.yul\":4846:4851   */\n      dup3\n        /* \"#utility.yul\":4842:4858   */\n      add\n        /* \"#utility.yul\":4836:4859   */\n      mload\n        /* \"#utility.yul\":4872:4935   */\n      tag_154\n        /* \"#utility.yul\":4929:4933   */\n      0x80\n        /* \"#utility.yul\":4924:4927   */\n      dup6\n        /* \"#utility.yul\":4920:4934   */\n      add\n        /* \"#utility.yul\":4906:4918   */\n      dup3\n        /* \"#utility.yul\":4872:4935   */\n      tag_120\n      jump\t// in\n    tag_154:\n        /* \"#utility.yul\":4776:4945   */\n      pop\n        /* \"#utility.yul\":5039:5043   */\n      0xa0\n        /* \"#utility.yul\":5032:5037   */\n      dup3\n        /* \"#utility.yul\":5028:5044   */\n      add\n        /* \"#utility.yul\":5022:5045   */\n      mload\n        /* \"#utility.yul\":5058:5121   */\n      tag_155\n        /* \"#utility.yul\":5115:5119   */\n      0xa0\n        /* \"#utility.yul\":5110:5113   */\n      dup6\n        /* \"#utility.yul\":5106:5120   */\n      add\n        /* \"#utility.yul\":5092:5104   */\n      dup3\n        /* \"#utility.yul\":5058:5121   */\n      tag_120\n      jump\t// in\n    tag_155:\n        /* \"#utility.yul\":4955:5131   */\n      pop\n        /* \"#utility.yul\":5224:5228   */\n      0xc0\n        /* \"#utility.yul\":5217:5222   */\n      dup3\n        /* \"#utility.yul\":5213:5229   */\n      add\n        /* \"#utility.yul\":5207:5230   */\n      mload\n        /* \"#utility.yul\":5243:5306   */\n      tag_156\n        /* \"#utility.yul\":5300:5304   */\n      0xc0\n        /* \"#utility.yul\":5295:5298   */\n      dup6\n        /* \"#utility.yul\":5291:5305   */\n      add\n        /* \"#utility.yul\":5277:5289   */\n      dup3\n        /* \"#utility.yul\":5243:5306   */\n      tag_120\n      jump\t// in\n    tag_156:\n        /* \"#utility.yul\":5141:5316   */\n      pop\n        /* \"#utility.yul\":4012:5323   */\n      pop\n        /* \"#utility.yul\":3902:5323   */\n      pop\n      pop\n      jump\t// out\n        /* \"#utility.yul\":5403:6834   */\n    tag_157:\n        /* \"#utility.yul\":5554:5558   */\n      0xe0\n        /* \"#utility.yul\":5549:5552   */\n      dup3\n        /* \"#utility.yul\":5545:5559   */\n      add\n        /* \"#utility.yul\":5650:5654   */\n      0x00\n        /* \"#utility.yul\":5643:5648   */\n      dup3\n        /* \"#utility.yul\":5639:5655   */\n      add\n        /* \"#utility.yul\":5633:5656   */\n      mload\n        /* \"#utility.yul\":5669:5732   */\n      tag_159\n        /* \"#utility.yul\":5726:5730   */\n      0x00\n        /* \"#utility.yul\":5721:5724   */\n      dup6\n        /* \"#utility.yul\":5717:5731   */\n      add\n        /* \"#utility.yul\":5703:5715   */\n      dup3\n        /* \"#utility.yul\":5669:5732   */\n      tag_120\n      jump\t// in\n    tag_159:\n        /* \"#utility.yul\":5569:5742   */\n      pop\n        /* \"#utility.yul\":5826:5830   */\n      0x20\n        /* \"#utility.yul\":5819:5824   */\n      dup3\n        /* \"#utility.yul\":5815:5831   */\n      add\n        /* \"#utility.yul\":5809:5832   */\n      mload\n        /* \"#utility.yul\":5845:5908   */\n      tag_160\n        /* \"#utility.yul\":5902:5906   */\n      0x20\n        /* \"#utility.yul\":5897:5900   */\n      dup6\n        /* \"#utility.yul\":5893:5907   */\n      add\n        /* \"#utility.yul\":5879:5891   */\n      dup3\n        /* \"#utility.yul\":5845:5908   */\n      tag_120\n      jump\t// in\n    tag_160:\n        /* \"#utility.yul\":5752:5918   */\n      pop\n        /* \"#utility.yul\":6003:6007   */\n      0x40\n        /* \"#utility.yul\":5996:6001   */\n      dup3\n        /* \"#utility.yul\":5992:6008   */\n      add\n        /* \"#utility.yul\":5986:6009   */\n      mload\n        /* \"#utility.yul\":6022:6085   */\n      tag_161\n        /* \"#utility.yul\":6079:6083   */\n      0x40\n        /* \"#utility.yul\":6074:6077   */\n      dup6\n        /* \"#utility.yul\":6070:6084   */\n      add\n        /* \"#utility.yul\":6056:6068   */\n      dup3\n        /* \"#utility.yul\":6022:6085   */\n      tag_120\n      jump\t// in\n    tag_161:\n        /* \"#utility.yul\":5928:6095   */\n      pop\n        /* \"#utility.yul\":6185:6189   */\n      0x60\n        /* \"#utility.yul\":6178:6183   */\n      dup3\n        /* \"#utility.yul\":6174:6190   */\n      add\n        /* \"#utility.yul\":6168:6191   */\n      mload\n        /* \"#utility.yul\":6204:6267   */\n      tag_162\n        /* \"#utility.yul\":6261:6265   */\n      0x60\n        /* \"#utility.yul\":6256:6259   */\n      dup6\n        /* \"#utility.yul\":6252:6266   */\n      add\n        /* \"#utility.yul\":6238:6250   */\n      dup3\n        /* \"#utility.yul\":6204:6267   */\n      tag_120\n      jump\t// in\n    tag_162:\n        /* \"#utility.yul\":6105:6277   */\n      pop\n        /* \"#utility.yul\":6364:6368   */\n      0x80\n        /* \"#utility.yul\":6357:6362   */\n      dup3\n        /* \"#utility.yul\":6353:6369   */\n      add\n        /* \"#utility.yul\":6347:6370   */\n      mload\n        /* \"#utility.yul\":6383:6446   */\n      tag_163\n        /* \"#utility.yul\":6440:6444   */\n      0x80\n        /* \"#utility.yul\":6435:6438   */\n      dup6\n        /* \"#utility.yul\":6431:6445   */\n      add\n        /* \"#utility.yul\":6417:6429   */\n      dup3\n        /* \"#utility.yul\":6383:6446   */\n      tag_120\n      jump\t// in\n    tag_163:\n        /* \"#utility.yul\":6287:6456   */\n      pop\n        /* \"#utility.yul\":6550:6554   */\n      0xa0\n        /* \"#utility.yul\":6543:6548   */\n      dup3\n        /* \"#utility.yul\":6539:6555   */\n      add\n        /* \"#utility.yul\":6533:6556   */\n      mload\n        /* \"#utility.yul\":6569:6632   */\n      tag_164\n        /* \"#utility.yul\":6626:6630   */\n      0xa0\n        /* \"#utility.yul\":6621:6624   */\n      dup6\n        /* \"#utility.yul\":6617:6631   */\n      add\n        /* \"#utility.yul\":6603:6615   */\n      dup3\n        /* \"#utility.yul\":6569:6632   */\n      tag_120\n      jump\t// in\n    tag_164:\n        /* \"#utility.yul\":6466:6642   */\n      pop\n        /* \"#utility.yul\":6735:6739   */\n      0xc0\n        /* \"#utility.yul\":6728:6733   */\n      dup3\n        /* \"#utility.yul\":6724:6740   */\n      add\n        /* \"#utility.yul\":6718:6741   */\n      mload\n        /* \"#utility.yul\":6754:6817   */\n      tag_165\n        /* \"#utility.yul\":6811:6815   */\n      0xc0\n        /* \"#utility.yul\":6806:6809   */\n      dup6\n        /* \"#utility.yul\":6802:6816   */\n      add\n        /* \"#utility.yul\":6788:6800   */\n      dup3\n        /* \"#utility.yul\":6754:6817   */\n      tag_120\n      jump\t// in\n    tag_165:\n        /* \"#utility.yul\":6652:6827   */\n      pop\n        /* \"#utility.yul\":5523:6834   */\n      pop\n        /* \"#utility.yul\":5403:6834   */\n      pop\n      pop\n      jump\t// out\n        /* \"#utility.yul\":6840:6948   */\n    tag_120:\n        /* \"#utility.yul\":6917:6941   */\n      tag_167\n        /* \"#utility.yul\":6935:6940   */\n      dup2\n        /* \"#utility.yul\":6917:6941   */\n      tag_168\n      jump\t// in\n    tag_167:\n        /* \"#utility.yul\":6912:6915   */\n      dup3\n        /* \"#utility.yul\":6905:6942   */\n      mstore\n        /* \"#utility.yul\":6840:6948   */\n      pop\n      pop\n      jump\t// out\n        /* \"#utility.yul\":6954:7072   */\n    tag_169:\n        /* \"#utility.yul\":7041:7065   */\n      tag_171\n        /* \"#utility.yul\":7059:7064   */\n      dup2\n        /* \"#utility.yul\":7041:7065   */\n      tag_168\n      jump\t// in\n    tag_171:\n        /* \"#utility.yul\":7036:7039   */\n      dup3\n        /* \"#utility.yul\":7029:7066   */\n      mstore\n        /* \"#utility.yul\":6954:7072   */\n      pop\n      pop\n      jump\t// out\n        /* \"#utility.yul\":7078:7559   */\n    tag_20:\n        /* \"#utility.yul\":7275:7279   */\n      0x00\n        /* \"#utility.yul\":7313:7315   */\n      0x20\n        /* \"#utility.yul\":7302:7311   */\n      dup3\n        /* \"#utility.yul\":7298:7316   */\n      add\n        /* \"#utility.yul\":7290:7316   */\n      swap1\n      pop\n        /* \"#utility.yul\":7362:7371   */\n      dup2\n        /* \"#utility.yul\":7356:7360   */\n      dup2\n        /* \"#utility.yul\":7352:7372   */\n      sub\n        /* \"#utility.yul\":7348:7349   */\n      0x00\n        /* \"#utility.yul\":7337:7346   */\n      dup4\n        /* \"#utility.yul\":7333:7350   */\n      add\n        /* \"#utility.yul\":7326:7373   */\n      mstore\n        /* \"#utility.yul\":7390:7552   */\n      tag_173\n        /* \"#utility.yul\":7547:7551   */\n      dup2\n        /* \"#utility.yul\":7538:7544   */\n      dup5\n        /* \"#utility.yul\":7390:7552   */\n      tag_121\n      jump\t// in\n    tag_173:\n        /* \"#utility.yul\":7382:7552   */\n      swap1\n      pop\n        /* \"#utility.yul\":7078:7559   */\n      swap3\n      swap2\n      pop\n      pop\n      jump\t// out\n        /* \"#utility.yul\":7565:9246   */\n    tag_16:\n        /* \"#utility.yul\":8098:8102   */\n      0x00\n        /* \"#utility.yul\":8136:8139   */\n      0xc0\n        /* \"#utility.yul\":8125:8134   */\n      dup3\n        /* \"#utility.yul\":8121:8140   */\n      add\n        /* \"#utility.yul\":8113:8140   */\n      swap1\n      pop\n        /* \"#utility.yul\":8186:8195   */\n      dup2\n        /* \"#utility.yul\":8180:8184   */\n      dup2\n        /* \"#utility.yul\":8176:8196   */\n      sub\n        /* \"#utility.yul\":8172:8173   */\n      0x00\n        /* \"#utility.yul\":8161:8170   */\n      dup4\n        /* \"#utility.yul\":8157:8174   */\n      add\n        /* \"#utility.yul\":8150:8197   */\n      mstore\n        /* \"#utility.yul\":8214:8322   */\n      tag_175\n        /* \"#utility.yul\":8317:8321   */\n      dup2\n        /* \"#utility.yul\":8308:8314   */\n      dup10\n        /* \"#utility.yul\":8214:8322   */\n      tag_135\n      jump\t// in\n    tag_175:\n        /* \"#utility.yul\":8206:8322   */\n      swap1\n      pop\n        /* \"#utility.yul\":8369:8378   */\n      dup2\n        /* \"#utility.yul\":8363:8367   */\n      dup2\n        /* \"#utility.yul\":8359:8379   */\n      sub\n        /* \"#utility.yul\":8354:8356   */\n      0x20\n        /* \"#utility.yul\":8343:8352   */\n      dup4\n        /* \"#utility.yul\":8339:8357   */\n      add\n        /* \"#utility.yul\":8332:8380   */\n      mstore\n        /* \"#utility.yul\":8397:8505   */\n      tag_176\n        /* \"#utility.yul\":8500:8504   */\n      dup2\n        /* \"#utility.yul\":8491:8497   */\n      dup9\n        /* \"#utility.yul\":8397:8505   */\n      tag_135\n      jump\t// in\n    tag_176:\n        /* \"#utility.yul\":8389:8505   */\n      swap1\n      pop\n        /* \"#utility.yul\":8552:8561   */\n      dup2\n        /* \"#utility.yul\":8546:8550   */\n      dup2\n        /* \"#utility.yul\":8542:8562   */\n      sub\n        /* \"#utility.yul\":8537:8539   */\n      0x40\n        /* \"#utility.yul\":8526:8535   */\n      dup4\n        /* \"#utility.yul\":8522:8540   */\n      add\n        /* \"#utility.yul\":8515:8563   */\n      mstore\n        /* \"#utility.yul\":8580:8688   */\n      tag_177\n        /* \"#utility.yul\":8683:8687   */\n      dup2\n        /* \"#utility.yul\":8674:8680   */\n      dup8\n        /* \"#utility.yul\":8580:8688   */\n      tag_135\n      jump\t// in\n    tag_177:\n        /* \"#utility.yul\":8572:8688   */\n      swap1\n      pop\n        /* \"#utility.yul\":8735:8744   */\n      dup2\n        /* \"#utility.yul\":8729:8733   */\n      dup2\n        /* \"#utility.yul\":8725:8745   */\n      sub\n        /* \"#utility.yul\":8720:8722   */\n      0x60\n        /* \"#utility.yul\":8709:8718   */\n      dup4\n        /* \"#utility.yul\":8705:8723   */\n      add\n        /* \"#utility.yul\":8698:8746   */\n      mstore\n        /* \"#utility.yul\":8763:8871   */\n      tag_178\n        /* \"#utility.yul\":8866:8870   */\n      dup2\n        /* \"#utility.yul\":8857:8863   */\n      dup7\n        /* \"#utility.yul\":8763:8871   */\n      tag_135\n      jump\t// in\n    tag_178:\n        /* \"#utility.yul\":8755:8871   */\n      swap1\n      pop\n        /* \"#utility.yul\":8919:8928   */\n      dup2\n        /* \"#utility.yul\":8913:8917   */\n      dup2\n        /* \"#utility.yul\":8909:8929   */\n      sub\n        /* \"#utility.yul\":8903:8906   */\n      0x80\n        /* \"#utility.yul\":8892:8901   */\n      dup4\n        /* \"#utility.yul\":8888:8907   */\n      add\n        /* \"#utility.yul\":8881:8930   */\n      mstore\n        /* \"#utility.yul\":8947:9055   */\n      tag_179\n        /* \"#utility.yul\":9050:9054   */\n      dup2\n        /* \"#utility.yul\":9041:9047   */\n      dup6\n        /* \"#utility.yul\":8947:9055   */\n      tag_135\n      jump\t// in\n    tag_179:\n        /* \"#utility.yul\":8939:9055   */\n      swap1\n      pop\n        /* \"#utility.yul\":9103:9112   */\n      dup2\n        /* \"#utility.yul\":9097:9101   */\n      dup2\n        /* \"#utility.yul\":9093:9113   */\n      sub\n        /* \"#utility.yul\":9087:9090   */\n      0xa0\n        /* \"#utility.yul\":9076:9085   */\n      dup4\n        /* \"#utility.yul\":9072:9091   */\n      add\n        /* \"#utility.yul\":9065:9114   */\n      mstore\n        /* \"#utility.yul\":9131:9239   */\n      tag_180\n        /* \"#utility.yul\":9234:9238   */\n      dup2\n        /* \"#utility.yul\":9225:9231   */\n      dup5\n        /* \"#utility.yul\":9131:9239   */\n      tag_135\n      jump\t// in\n    tag_180:\n        /* \"#utility.yul\":9123:9239   */\n      swap1\n      pop\n        /* \"#utility.yul\":7565:9246   */\n      swap8\n      swap7\n      pop\n      pop\n      pop\n      pop\n      pop\n      pop\n      pop\n      jump\t// out\n        /* \"#utility.yul\":9252:9583   */\n    tag_26:\n        /* \"#utility.yul\":9399:9403   */\n      0x00\n        /* \"#utility.yul\":9437:9440   */\n      0xe0\n        /* \"#utility.yul\":9426:9435   */\n      dup3\n        /* \"#utility.yul\":9422:9441   */\n      add\n        /* \"#utility.yul\":9414:9441   */\n      swap1\n      pop\n        /* \"#utility.yul\":9451:9576   */\n      tag_182\n        /* \"#utility.yul\":9573:9574   */\n      0x00\n        /* \"#utility.yul\":9562:9571   */\n      dup4\n        /* \"#utility.yul\":9558:9575   */\n      add\n        /* \"#utility.yul\":9549:9555   */\n      dup5\n        /* \"#utility.yul\":9451:9576   */\n      tag_157\n      jump\t// in\n    tag_182:\n        /* \"#utility.yul\":9252:9583   */\n      swap3\n      swap2\n      pop\n      pop\n      jump\t// out\n        /* \"#utility.yul\":9589:9811   */\n    tag_35:\n        /* \"#utility.yul\":9682:9686   */\n      0x00\n        /* \"#utility.yul\":9720:9722   */\n      0x20\n        /* \"#utility.yul\":9709:9718   */\n      dup3\n        /* \"#utility.yul\":9705:9723   */\n      add\n        /* \"#utility.yul\":9697:9723   */\n      swap1\n      pop\n        /* \"#utility.yul\":9733:9804   */\n      tag_184\n        /* \"#utility.yul\":9801:9802   */\n      0x00\n        /* \"#utility.yul\":9790:9799   */\n      dup4\n        /* \"#utility.yul\":9786:9803   */\n      add\n        /* \"#utility.yul\":9777:9783   */\n      dup5\n        /* \"#utility.yul\":9733:9804   */\n      tag_169\n      jump\t// in\n    tag_184:\n        /* \"#utility.yul\":9589:9811   */\n      swap3\n      swap2\n      pop\n      pop\n      jump\t// out\n        /* \"#utility.yul\":9817:10703   */\n    tag_31:\n        /* \"#utility.yul\":10078:10082   */\n      0x00\n        /* \"#utility.yul\":10116:10119   */\n      0xe0\n        /* \"#utility.yul\":10105:10114   */\n      dup3\n        /* \"#utility.yul\":10101:10120   */\n      add\n        /* \"#utility.yul\":10093:10120   */\n      swap1\n      pop\n        /* \"#utility.yul\":10130:10201   */\n      tag_186\n        /* \"#utility.yul\":10198:10199   */\n      0x00\n        /* \"#utility.yul\":10187:10196   */\n      dup4\n        /* \"#utility.yul\":10183:10200   */\n      add\n        /* \"#utility.yul\":10174:10180   */\n      dup11\n        /* \"#utility.yul\":10130:10201   */\n      tag_169\n      jump\t// in\n    tag_186:\n        /* \"#utility.yul\":10211:10283   */\n      tag_187\n        /* \"#utility.yul\":10279:10281   */\n      0x20\n        /* \"#utility.yul\":10268:10277   */\n      dup4\n        /* \"#utility.yul\":10264:10282   */\n      add\n        /* \"#utility.yul\":10255:10261   */\n      dup10\n        /* \"#utility.yul\":10211:10283   */\n      tag_169\n      jump\t// in\n    tag_187:\n        /* \"#utility.yul\":10293:10365   */\n      tag_188\n        /* \"#utility.yul\":10361:10363   */\n      0x40\n        /* \"#utility.yul\":10350:10359   */\n      dup4\n        /* \"#utility.yul\":10346:10364   */\n      add\n        /* \"#utility.yul\":10337:10343   */\n      dup9\n        /* \"#utility.yul\":10293:10365   */\n      tag_169\n      jump\t// in\n    tag_188:\n        /* \"#utility.yul\":10375:10447   */\n      tag_189\n        /* \"#utility.yul\":10443:10445   */\n      0x60\n        /* \"#utility.yul\":10432:10441   */\n      dup4\n        /* \"#utility.yul\":10428:10446   */\n      add\n        /* \"#utility.yul\":10419:10425   */\n      dup8\n        /* \"#utility.yul\":10375:10447   */\n      tag_169\n      jump\t// in\n    tag_189:\n        /* \"#utility.yul\":10457:10530   */\n      tag_190\n        /* \"#utility.yul\":10525:10528   */\n      0x80\n        /* \"#utility.yul\":10514:10523   */\n      dup4\n        /* \"#utility.yul\":10510:10529   */\n      add\n        /* \"#utility.yul\":10501:10507   */\n      dup7\n        /* \"#utility.yul\":10457:10530   */\n      tag_169\n      jump\t// in\n    tag_190:\n        /* \"#utility.yul\":10540:10613   */\n      tag_191\n        /* \"#utility.yul\":10608:10611   */\n      0xa0\n        /* \"#utility.yul\":10597:10606   */\n      dup4\n        /* \"#utility.yul\":10593:10612   */\n      add\n        /* \"#utility.yul\":10584:10590   */\n      dup6\n        /* \"#utility.yul\":10540:10613   */\n      tag_169\n      jump\t// in\n    tag_191:\n        /* \"#utility.yul\":10623:10696   */\n      tag_192\n        /* \"#utility.yul\":10691:10694   */\n      0xc0\n        /* \"#utility.yul\":10680:10689   */\n      dup4\n        /* \"#utility.yul\":10676:10695   */\n      add\n        /* \"#utility.yul\":10667:10673   */\n      dup5\n        /* \"#utility.yul\":10623:10696   */\n      tag_169\n      jump\t// in\n    tag_192:\n        /* \"#utility.yul\":9817:10703   */\n      swap9\n      swap8\n      pop\n      pop\n      pop\n      pop\n      pop\n      pop\n      pop\n      pop\n      jump\t// out\n        /* \"#utility.yul\":10790:10949   */\n    tag_128:\n        /* \"#utility.yul\":10884:10888   */\n      0x00\n        /* \"#utility.yul\":10907:10910   */\n      dup2\n        /* \"#utility.yul\":10899:10910   */\n      swap1\n      pop\n        /* \"#utility.yul\":10937:10941   */\n      0x20\n        /* \"#utility.yul\":10932:10935   */\n      dup3\n        /* \"#utility.yul\":10928:10942   */\n      add\n        /* \"#utility.yul\":10920:10942   */\n      swap1\n      pop\n        /* \"#utility.yul\":10790:10949   */\n      swap2\n      swap1\n      pop\n      jump\t// out\n        /* \"#utility.yul\":10955:11087   */\n    tag_142:\n        /* \"#utility.yul\":11022:11026   */\n      0x00\n        /* \"#utility.yul\":11045:11048   */\n      dup2\n        /* \"#utility.yul\":11037:11048   */\n      swap1\n      pop\n        /* \"#utility.yul\":11075:11079   */\n      0x20\n        /* \"#utility.yul\":11070:11073   */\n      dup3\n        /* \"#utility.yul\":11066:11080   */\n      add\n        /* \"#utility.yul\":11058:11080   */\n      swap1\n      pop\n        /* \"#utility.yul\":10955:11087   */\n      swap2\n      swap1\n      pop\n      jump\t// out\n        /* \"#utility.yul\":11093:11234   */\n    tag_124:\n        /* \"#utility.yul\":11187:11193   */\n      0x00\n        /* \"#utility.yul\":11221:11226   */\n      dup2\n        /* \"#utility.yul\":11215:11227   */\n      mload\n        /* \"#utility.yul\":11205:11227   */\n      swap1\n      pop\n        /* \"#utility.yul\":11093:11234   */\n      swap2\n      swap1\n      pop\n      jump\t// out\n        /* \"#utility.yul\":11240:11354   */\n    tag_138:\n        /* \"#utility.yul\":11307:11313   */\n      0x00\n        /* \"#utility.yul\":11341:11346   */\n      dup2\n        /* \"#utility.yul\":11335:11347   */\n      mload\n        /* \"#utility.yul\":11325:11347   */\n      swap1\n      pop\n        /* \"#utility.yul\":11240:11354   */\n      swap2\n      swap1\n      pop\n      jump\t// out\n        /* \"#utility.yul\":11360:11500   */\n    tag_134:\n        /* \"#utility.yul\":11457:11461   */\n      0x00\n        /* \"#utility.yul\":11489:11493   */\n      0x20\n        /* \"#utility.yul\":11484:11487   */\n      dup3\n        /* \"#utility.yul\":11480:11494   */\n      add\n        /* \"#utility.yul\":11472:11494   */\n      swap1\n      pop\n        /* \"#utility.yul\":11360:11500   */\n      swap2\n      swap1\n      pop\n      jump\t// out\n        /* \"#utility.yul\":11506:11619   */\n    tag_148:\n        /* \"#utility.yul\":11576:11580   */\n      0x00\n        /* \"#utility.yul\":11608:11612   */\n      0x20\n        /* \"#utility.yul\":11603:11606   */\n      dup3\n        /* \"#utility.yul\":11599:11613   */\n      add\n        /* \"#utility.yul\":11591:11613   */\n      swap1\n      pop\n        /* \"#utility.yul\":11506:11619   */\n      swap2\n      swap1\n      pop\n      jump\t// out\n        /* \"#utility.yul\":11625:11836   */\n    tag_126:\n        /* \"#utility.yul\":11751:11762   */\n      0x00\n        /* \"#utility.yul\":11785:11791   */\n      dup3\n        /* \"#utility.yul\":11780:11783   */\n      dup3\n        /* \"#utility.yul\":11773:11792   */\n      mstore\n        /* \"#utility.yul\":11825:11829   */\n      0x20\n        /* \"#utility.yul\":11820:11823   */\n      dup3\n        /* \"#utility.yul\":11816:11830   */\n      add\n        /* \"#utility.yul\":11801:11830   */\n      swap1\n      pop\n        /* \"#utility.yul\":11625:11836   */\n      swap3\n      swap2\n      pop\n      pop\n      jump\t// out\n        /* \"#utility.yul\":11842:12026   */\n    tag_140:\n        /* \"#utility.yul\":11941:11952   */\n      0x00\n        /* \"#utility.yul\":11975:11981   */\n      dup3\n        /* \"#utility.yul\":11970:11973   */\n      dup3\n        /* \"#utility.yul\":11963:11982   */\n      mstore\n        /* \"#utility.yul\":12015:12019   */\n      0x20\n        /* \"#utility.yul\":12010:12013   */\n      dup3\n        /* \"#utility.yul\":12006:12020   */\n      add\n        /* \"#utility.yul\":11991:12020   */\n      swap1\n      pop\n        /* \"#utility.yul\":11842:12026   */\n      swap3\n      swap2\n      pop\n      pop\n      jump\t// out\n        /* \"#utility.yul\":12032:12109   */\n    tag_168:\n        /* \"#utility.yul\":12069:12076   */\n      0x00\n        /* \"#utility.yul\":12098:12103   */\n      dup2\n        /* \"#utility.yul\":12087:12103   */\n      swap1\n      pop\n        /* \"#utility.yul\":12032:12109   */\n      swap2\n      swap1\n      pop\n      jump\t// out\n        /* \"#utility.yul\":12115:12348   */\n    tag_38:\n        /* \"#utility.yul\":12154:12157   */\n      0x00\n        /* \"#utility.yul\":12177:12201   */\n      tag_205\n        /* \"#utility.yul\":12195:12200   */\n      dup3\n        /* \"#utility.yul\":12177:12201   */\n      tag_168\n      jump\t// in\n    tag_205:\n        /* \"#utility.yul\":12168:12201   */\n      swap2\n      pop\n        /* \"#utility.yul\":12223:12289   */\n      0xffffffffffffffffffffffffffffffffffffffffffffffffffffffffffffffff\n        /* \"#utility.yul\":12216:12221   */\n      dup3\n        /* \"#utility.yul\":12213:12290   */\n      eq\n        /* \"#utility.yul\":12210:12313   */\n      iszero\n      tag_206\n      jumpi\n        /* \"#utility.yul\":12293:12311   */\n      tag_207\n      tag_208\n      jump\t// in\n    tag_207:\n        /* \"#utility.yul\":12210:12313   */\n    tag_206:\n        /* \"#utility.yul\":12340:12341   */\n      0x01\n        /* \"#utility.yul\":12333:12338   */\n      dup3\n        /* \"#utility.yul\":12329:12342   */\n      add\n        /* \"#utility.yul\":12322:12342   */\n      swap1\n      pop\n        /* \"#utility.yul\":12115:12348   */\n      swap2\n      swap1\n      pop\n      jump\t// out\n        /* \"#utility.yul\":12354:12534   */\n    tag_208:\n        /* \"#utility.yul\":12402:12479   */\n      0x4e487b7100000000000000000000000000000000000000000000000000000000\n        /* \"#utility.yul\":12399:12400   */\n      0x00\n        /* \"#utility.yul\":12392:12480   */\n      mstore\n        /* \"#utility.yul\":12499:12503   */\n      0x11\n        /* \"#utility.yul\":12496:12497   */\n      0x04\n        /* \"#utility.yul\":12489:12504   */\n      mstore\n        /* \"#utility.yul\":12523:12527   */\n      0x24\n        /* \"#utility.yul\":12520:12521   */\n      0x00\n        /* \"#utility.yul\":12513:12528   */\n      revert\n        /* \"#utility.yul\":12540:12720   */\n    tag_67:\n        /* \"#utility.yul\":12588:12665   */\n      0x4e487b7100000000000000000000000000000000000000000000000000000000\n        /* \"#utility.yul\":12585:12586   */\n      0x00\n        /* \"#utility.yul\":12578:12666   */\n      mstore\n        /* \"#utility.yul\":12685:12689   */\n      0x32\n        /* \"#utility.yul\":12682:12683   */\n      0x04\n        /* \"#utility.yul\":12675:12690   */\n      mstore\n        /* \"#utility.yul\":12709:12713   */\n      0x24\n        /* \"#utility.yul\":12706:12707   */\n      0x00\n        /* \"#utility.yul\":12699:12714   */\n      revert\n        /* \"#utility.yul\":12726:12906   */\n    tag_42:\n        /* \"#utility.yul\":12774:12851   */\n      0x4e487b7100000000000000000000000000000000000000000000000000000000\n        /* \"#utility.yul\":12771:12772   */\n      0x00\n        /* \"#utility.yul\":12764:12852   */\n      mstore\n        /* \"#utility.yul\":12871:12875   */\n      0x41\n        /* \"#utility.yul\":12868:12869   */\n      0x04\n        /* \"#utility.yul\":12861:12876   */\n      mstore\n        /* \"#utility.yul\":12895:12899   */\n      0x24\n        /* \"#utility.yul\":12892:12893   */\n      0x00\n        /* \"#utility.yul\":12885:12900   */\n      revert\n        /* \"#utility.yul\":13035:13152   */\n    tag_102:\n        /* \"#utility.yul\":13144:13145   */\n      0x00\n        /* \"#utility.yul\":13141:13142   */\n      dup1\n        /* \"#utility.yul\":13134:13146   */\n      revert\n        /* \"#utility.yul\":13158:13280   */\n    tag_98:\n        /* \"#utility.yul\":13231:13255   */\n      tag_216\n        /* \"#utility.yul\":13249:13254   */\n      dup2\n        /* \"#utility.yul\":13231:13255   */\n      tag_168\n      jump\t// in\n    tag_216:\n        /* \"#utility.yul\":13224:13229   */\n      dup2\n        /* \"#utility.yul\":13221:13256   */\n      eq\n        /* \"#utility.yul\":13211:13274   */\n      tag_217\n      jumpi\n        /* \"#utility.yul\":13270:13271   */\n      0x00\n        /* \"#utility.yul\":13267:13268   */\n      dup1\n        /* \"#utility.yul\":13260:13272   */\n      revert\n        /* \"#utility.yul\":13211:13274   */\n    tag_217:\n        /* \"#utility.yul\":13158:13280   */\n      pop\n      jump\t// out\n\n    auxdata: 0xa2646970667358221220727b6fb4f8fe8e75a821d3d1352ec204a88535155cf8688557b08fb90c7647d864736f6c63430008070033\n}\n",
				"bytecode": {
					"linkReferences": {},
					"object": "608060405234801561001057600080fd5b506000600181905550610d4a806100286000396000f3fe608060405234801561001057600080fd5b50600436106100625760003560e01c80630a6486c11461006757806359705f811461008357806383920e90146100a65780639507d39a146100c45780639ace38c2146100f4578063fd99a7461461012a575b600080fd5b610081600480360381019061007c91906107a1565b610148565b005b61008b6101fa565b60405161009d96959493929190610a76565b60405180910390f35b6100ae61055d565b6040516100bb9190610a54565b60405180910390f35b6100de60048036038101906100d99190610774565b610668565b6040516100eb9190610b01565b60405180910390f35b61010e60048036038101906101099190610774565b6106da565b6040516101219796959493929190610b37565b60405180910390f35b61013261071c565b60405161013f9190610b1c565b60405180910390f35b6040518060e001604052806001548152602001878152602001868152602001858152602001848152602001838152602001828152506000806001548152602001908152602001600020600082015181600001556020820151816001015560408201518160020155606082015181600301556080820151816004015560a0820151816005015560c08201518160060155905050600160008154809291906101ed90610c22565b9190505550505050505050565b606080606080606080600060015467ffffffffffffffff81111561022157610220610cc9565b5b60405190808252806020026020018201604052801561024f5781602001602082028036833780820191505090505b509050600060015467ffffffffffffffff8111156102705761026f610cc9565b5b60405190808252806020026020018201604052801561029e5781602001602082028036833780820191505090505b509050600060015467ffffffffffffffff8111156102bf576102be610cc9565b5b6040519080825280602002602001820160405280156102ed5781602001602082028036833780820191505090505b509050600060015467ffffffffffffffff81111561030e5761030d610cc9565b5b60405190808252806020026020018201604052801561033c5781602001602082028036833780820191505090505b509050600060015467ffffffffffffffff81111561035d5761035c610cc9565b5b60405190808252806020026020018201604052801561038b5781602001602082028036833780820191505090505b509050600060015467ffffffffffffffff8111156103ac576103ab610cc9565b5b6040519080825280602002602001820160405280156103da5781602001602082028036833780820191505090505b509050600060015467ffffffffffffffff8111156103fb576103fa610cc9565b5b6040519080825280602002602001820160405280156104295781602001602082028036833780820191505090505b50905060005b60015481101561053b5760008060008381526020019081526020016000209050806002015487838151811061046757610466610c9a565b5b602002602001018181525050806000015489838151811061048b5761048a610c9a565b5b60200260200101818152505080600501548483815181106104af576104ae610c9a565b5b60200260200101818152505080600601548383815181106104d3576104d2610c9a565b5b60200260200101818152505080600301548683815181106104f7576104f6610c9a565b5b602002602001018181525050806004015485838151811061051b5761051a610c9a565b5b60200260200101818152505050808061053390610c22565b91505061042f565b508487838387879c509c509c509c509c509c5050505050505050909192939495565b6060600060015467ffffffffffffffff81111561057d5761057c610cc9565b5b6040519080825280602002602001820160405280156105b657816020015b6105a3610722565b81526020019060019003908161059b5790505b50905060005b6001548110156106605760008060008381526020019081526020016000209050806040518060e001604052908160008201548152602001600182015481526020016002820154815260200160038201548152602001600482015481526020016005820154815260200160068201548152505083838151811061064157610640610c9a565b5b602002602001018190525050808061065890610c22565b9150506105bc565b508091505090565b610670610722565b6000808381526020019081526020016000206040518060e00160405290816000820154815260200160018201548152602001600282015481526020016003820154815260200160048201548152602001600582015481526020016006820154815250509050919050565b60006020528060005260406000206000915090508060000154908060010154908060020154908060030154908060040154908060050154908060060154905087565b60015481565b6040518060e00160405280600081526020016000815260200160008152602001600081526020016000815260200160008152602001600081525090565b60008135905061076e81610cfd565b92915050565b60006020828403121561078a57610789610cf8565b5b60006107988482850161075f565b91505092915050565b60008060008060008060c087890312156107be576107bd610cf8565b5b60006107cc89828a0161075f565b96505060206107dd89828a0161075f565b95505060406107ee89828a0161075f565b94505060606107ff89828a0161075f565b935050608061081089828a0161075f565b92505060a061082189828a0161075f565b9150509295509295509295565b600061083a838361091a565b60e08301905092915050565b60006108528383610a36565b60208301905092915050565b600061086982610bc6565b6108738185610bf6565b935061087e83610ba6565b8060005b838110156108af578151610896888261082e565b97506108a183610bdc565b925050600181019050610882565b5085935050505092915050565b60006108c782610bd1565b6108d18185610c07565b93506108dc83610bb6565b8060005b8381101561090d5781516108f48882610846565b97506108ff83610be9565b9250506001810190506108e0565b5085935050505092915050565b60e0820160008201516109306000850182610a36565b5060208201516109436020850182610a36565b5060408201516109566040850182610a36565b5060608201516109696060850182610a36565b50608082015161097c6080850182610a36565b5060a082015161098f60a0850182610a36565b5060c08201516109a260c0850182610a36565b50505050565b60e0820160008201516109be6000850182610a36565b5060208201516109d16020850182610a36565b5060408201516109e46040850182610a36565b5060608201516109f76060850182610a36565b506080820151610a0a6080850182610a36565b5060a0820151610a1d60a0850182610a36565b5060c0820151610a3060c0850182610a36565b50505050565b610a3f81610c18565b82525050565b610a4e81610c18565b82525050565b60006020820190508181036000830152610a6e818461085e565b905092915050565b600060c0820190508181036000830152610a9081896108bc565b90508181036020830152610aa481886108bc565b90508181036040830152610ab881876108bc565b90508181036060830152610acc81866108bc565b90508181036080830152610ae081856108bc565b905081810360a0830152610af481846108bc565b9050979650505050505050565b600060e082019050610b1660008301846109a8565b92915050565b6000602082019050610b316000830184610a45565b92915050565b600060e082019050610b4c600083018a610a45565b610b596020830189610a45565b610b666040830188610a45565b610b736060830187610a45565b610b806080830186610a45565b610b8d60a0830185610a45565b610b9a60c0830184610a45565b98975050505050505050565b6000819050602082019050919050565b6000819050602082019050919050565b600081519050919050565b600081519050919050565b6000602082019050919050565b6000602082019050919050565b600082825260208201905092915050565b600082825260208201905092915050565b6000819050919050565b6000610c2d82610c18565b91507fffffffffffffffffffffffffffffffffffffffffffffffffffffffffffffffff821415610c6057610c5f610c6b565b5b600182019050919050565b7f4e487b7100000000000000000000000000000000000000000000000000000000600052601160045260246000fd5b7f4e487b7100000000000000000000000000000000000000000000000000000000600052603260045260246000fd5b7f4e487b7100000000000000000000000000000000000000000000000000000000600052604160045260246000fd5b600080fd5b610d0681610c18565b8114610d1157600080fd5b5056fea2646970667358221220727b6fb4f8fe8e75a821d3d1352ec204a88535155cf8688557b08fb90c7647d864736f6c63430008070033",
					"opcodes": "PUSH1 0x80 PUSH1 0x40 MSTORE CALLVALUE DUP1 ISZERO PUSH2 0x10 JUMPI PUSH1 0x0 DUP1 REVERT JUMPDEST POP PUSH1 0x0 PUSH1 0x1 DUP2 SWAP1 SSTORE POP PUSH2 0xD4A DUP1 PUSH2 0x28 PUSH1 0x0 CODECOPY PUSH1 0x0 RETURN INVALID PUSH1 0x80 PUSH1 0x40 MSTORE CALLVALUE DUP1 ISZERO PUSH2 0x10 JUMPI PUSH1 0x0 DUP1 REVERT JUMPDEST POP PUSH1 0x4 CALLDATASIZE LT PUSH2 0x62 JUMPI PUSH1 0x0 CALLDATALOAD PUSH1 0xE0 SHR DUP1 PUSH4 0xA6486C1 EQ PUSH2 0x67 JUMPI DUP1 PUSH4 0x59705F81 EQ PUSH2 0x83 JUMPI DUP1 PUSH4 0x83920E90 EQ PUSH2 0xA6 JUMPI DUP1 PUSH4 0x9507D39A EQ PUSH2 0xC4 JUMPI DUP1 PUSH4 0x9ACE38C2 EQ PUSH2 0xF4 JUMPI DUP1 PUSH4 0xFD99A746 EQ PUSH2 0x12A JUMPI JUMPDEST PUSH1 0x0 DUP1 REVERT JUMPDEST PUSH2 0x81 PUSH1 0x4 DUP1 CALLDATASIZE SUB DUP2 ADD SWAP1 PUSH2 0x7C SWAP2 SWAP1 PUSH2 0x7A1 JUMP JUMPDEST PUSH2 0x148 JUMP JUMPDEST STOP JUMPDEST PUSH2 0x8B PUSH2 0x1FA JUMP JUMPDEST PUSH1 0x40 MLOAD PUSH2 0x9D SWAP7 SWAP6 SWAP5 SWAP4 SWAP3 SWAP2 SWAP1 PUSH2 0xA76 JUMP JUMPDEST PUSH1 0x40 MLOAD DUP1 SWAP2 SUB SWAP1 RETURN JUMPDEST PUSH2 0xAE PUSH2 0x55D JUMP JUMPDEST PUSH1 0x40 MLOAD PUSH2 0xBB SWAP2 SWAP1 PUSH2 0xA54 JUMP JUMPDEST PUSH1 0x40 MLOAD DUP1 SWAP2 SUB SWAP1 RETURN JUMPDEST PUSH2 0xDE PUSH1 0x4 DUP1 CALLDATASIZE SUB DUP2 ADD SWAP1 PUSH2 0xD9 SWAP2 SWAP1 PUSH2 0x774 JUMP JUMPDEST PUSH2 0x668 JUMP JUMPDEST PUSH1 0x40 MLOAD PUSH2 0xEB SWAP2 SWAP1 PUSH2 0xB01 JUMP JUMPDEST PUSH1 0x40 MLOAD DUP1 SWAP2 SUB SWAP1 RETURN JUMPDEST PUSH2 0x10E PUSH1 0x4 DUP1 CALLDATASIZE SUB DUP2 ADD SWAP1 PUSH2 0x109 SWAP2 SWAP1 PUSH2 0x774 JUMP JUMPDEST PUSH2 0x6DA JUMP JUMPDEST PUSH1 0x40 MLOAD PUSH2 0x121 SWAP8 SWAP7 SWAP6 SWAP5 SWAP4 SWAP3 SWAP2 SWAP1 PUSH2 0xB37 JUMP JUMPDEST PUSH1 0x40 MLOAD DUP1 SWAP2 SUB SWAP1 RETURN JUMPDEST PUSH2 0x132 PUSH2 0x71C JUMP JUMPDEST PUSH1 0x40 MLOAD PUSH2 0x13F SWAP2 SWAP1 PUSH2 0xB1C JUMP JUMPDEST PUSH1 0x40 MLOAD DUP1 SWAP2 SUB SWAP1 RETURN JUMPDEST PUSH1 0x40 MLOAD DUP1 PUSH1 0xE0 ADD PUSH1 0x40 MSTORE DUP1 PUSH1 0x1 SLOAD DUP2 MSTORE PUSH1 0x20 ADD DUP8 DUP2 MSTORE PUSH1 0x20 ADD DUP7 DUP2 MSTORE PUSH1 0x20 ADD DUP6 DUP2 MSTORE PUSH1 0x20 ADD DUP5 DUP2 MSTORE PUSH1 0x20 ADD DUP4 DUP2 MSTORE PUSH1 0x20 ADD DUP3 DUP2 MSTORE POP PUSH1 0x0 DUP1 PUSH1 0x1 SLOAD DUP2 MSTORE PUSH1 0x20 ADD SWAP1 DUP2 MSTORE PUSH1 0x20 ADD PUSH1 0x0 KECCAK256 PUSH1 0x0 DUP3 ADD MLOAD DUP2 PUSH1 0x0 ADD SSTORE PUSH1 0x20 DUP3 ADD MLOAD DUP2 PUSH1 0x1 ADD SSTORE PUSH1 0x40 DUP3 ADD MLOAD DUP2 PUSH1 0x2 ADD SSTORE PUSH1 0x60 DUP3 ADD MLOAD DUP2 PUSH1 0x3 ADD SSTORE PUSH1 0x80 DUP3 ADD MLOAD DUP2 PUSH1 0x4 ADD SSTORE PUSH1 0xA0 DUP3 ADD MLOAD DUP2 PUSH1 0x5 ADD SSTORE PUSH1 0xC0 DUP3 ADD MLOAD DUP2 PUSH1 0x6 ADD SSTORE SWAP1 POP POP PUSH1 0x1 PUSH1 0x0 DUP2 SLOAD DUP1 SWAP3 SWAP2 SWAP1 PUSH2 0x1ED SWAP1 PUSH2 0xC22 JUMP JUMPDEST SWAP2 SWAP1 POP SSTORE POP POP POP POP POP POP POP JUMP JUMPDEST PUSH1 0x60 DUP1 PUSH1 0x60 DUP1 PUSH1 0x60 DUP1 PUSH1 0x0 PUSH1 0x1 SLOAD PUSH8 0xFFFFFFFFFFFFFFFF DUP2 GT ISZERO PUSH2 0x221 JUMPI PUSH2 0x220 PUSH2 0xCC9 JUMP JUMPDEST JUMPDEST PUSH1 0x40 MLOAD SWAP1 DUP1 DUP3 MSTORE DUP1 PUSH1 0x20 MUL PUSH1 0x20 ADD DUP3 ADD PUSH1 0x40 MSTORE DUP1 ISZERO PUSH2 0x24F JUMPI DUP2 PUSH1 0x20 ADD PUSH1 0x20 DUP3 MUL DUP1 CALLDATASIZE DUP4 CALLDATACOPY DUP1 DUP3 ADD SWAP2 POP POP SWAP1 POP JUMPDEST POP SWAP1 POP PUSH1 0x0 PUSH1 0x1 SLOAD PUSH8 0xFFFFFFFFFFFFFFFF DUP2 GT ISZERO PUSH2 0x270 JUMPI PUSH2 0x26F PUSH2 0xCC9 JUMP JUMPDEST JUMPDEST PUSH1 0x40 MLOAD SWAP1 DUP1 DUP3 MSTORE DUP1 PUSH1 0x20 MUL PUSH1 0x20 ADD DUP3 ADD PUSH1 0x40 MSTORE DUP1 ISZERO PUSH2 0x29E JUMPI DUP2 PUSH1 0x20 ADD PUSH1 0x20 DUP3 MUL DUP1 CALLDATASIZE DUP4 CALLDATACOPY DUP1 DUP3 ADD SWAP2 POP POP SWAP1 POP JUMPDEST POP SWAP1 POP PUSH1 0x0 PUSH1 0x1 SLOAD PUSH8 0xFFFFFFFFFFFFFFFF DUP2 GT ISZERO PUSH2 0x2BF JUMPI PUSH2 0x2BE PUSH2 0xCC9 JUMP JUMPDEST JUMPDEST PUSH1 0x40 MLOAD SWAP1 DUP1 DUP3 MSTORE DUP1 PUSH1 0x20 MUL PUSH1 0x20 ADD DUP3 ADD PUSH1 0x40 MSTORE DUP1 ISZERO PUSH2 0x2ED JUMPI DUP2 PUSH1 0x20 ADD PUSH1 0x20 DUP3 MUL DUP1 CALLDATASIZE DUP4 CALLDATACOPY DUP1 DUP3 ADD SWAP2 POP POP SWAP1 POP JUMPDEST POP SWAP1 POP PUSH1 0x0 PUSH1 0x1 SLOAD PUSH8 0xFFFFFFFFFFFFFFFF DUP2 GT ISZERO PUSH2 0x30E JUMPI PUSH2 0x30D PUSH2 0xCC9 JUMP JUMPDEST JUMPDEST PUSH1 0x40 MLOAD SWAP1 DUP1 DUP3 MSTORE DUP1 PUSH1 0x20 MUL PUSH1 0x20 ADD DUP3 ADD PUSH1 0x40 MSTORE DUP1 ISZERO PUSH2 0x33C JUMPI DUP2 PUSH1 0x20 ADD PUSH1 0x20 DUP3 MUL DUP1 CALLDATASIZE DUP4 CALLDATACOPY DUP1 DUP3 ADD SWAP2 POP POP SWAP1 POP JUMPDEST POP SWAP1 POP PUSH1 0x0 PUSH1 0x1 SLOAD PUSH8 0xFFFFFFFFFFFFFFFF DUP2 GT ISZERO PUSH2 0x35D JUMPI PUSH2 0x35C PUSH2 0xCC9 JUMP JUMPDEST JUMPDEST PUSH1 0x40 MLOAD SWAP1 DUP1 DUP3 MSTORE DUP1 PUSH1 0x20 MUL PUSH1 0x20 ADD DUP3 ADD PUSH1 0x40 MSTORE DUP1 ISZERO PUSH2 0x38B JUMPI DUP2 PUSH1 0x20 ADD PUSH1 0x20 DUP3 MUL DUP1 CALLDATASIZE DUP4 CALLDATACOPY DUP1 DUP3 ADD SWAP2 POP POP SWAP1 POP JUMPDEST POP SWAP1 POP PUSH1 0x0 PUSH1 0x1 SLOAD PUSH8 0xFFFFFFFFFFFFFFFF DUP2 GT ISZERO PUSH2 0x3AC JUMPI PUSH2 0x3AB PUSH2 0xCC9 JUMP JUMPDEST JUMPDEST PUSH1 0x40 MLOAD SWAP1 DUP1 DUP3 MSTORE DUP1 PUSH1 0x20 MUL PUSH1 0x20 ADD DUP3 ADD PUSH1 0x40 MSTORE DUP1 ISZERO PUSH2 0x3DA JUMPI DUP2 PUSH1 0x20 ADD PUSH1 0x20 DUP3 MUL DUP1 CALLDATASIZE DUP4 CALLDATACOPY DUP1 DUP3 ADD SWAP2 POP POP SWAP1 POP JUMPDEST POP SWAP1 POP PUSH1 0x0 PUSH1 0x1 SLOAD PUSH8 0xFFFFFFFFFFFFFFFF DUP2 GT ISZERO PUSH2 0x3FB JUMPI PUSH2 0x3FA PUSH2 0xCC9 JUMP JUMPDEST JUMPDEST PUSH1 0x40 MLOAD SWAP1 DUP1 DUP3 MSTORE DUP1 PUSH1 0x20 MUL PUSH1 0x20 ADD DUP3 ADD PUSH1 0x40 MSTORE DUP1 ISZERO PUSH2 0x429 JUMPI DUP2 PUSH1 0x20 ADD PUSH1 0x20 DUP3 MUL DUP1 CALLDATASIZE DUP4 CALLDATACOPY DUP1 DUP3 ADD SWAP2 POP POP SWAP1 POP JUMPDEST POP SWAP1 POP PUSH1 0x0 JUMPDEST PUSH1 0x1 SLOAD DUP2 LT ISZERO PUSH2 0x53B JUMPI PUSH1 0x0 DUP1 PUSH1 0x0 DUP4 DUP2 MSTORE PUSH1 0x20 ADD SWAP1 DUP2 MSTORE PUSH1 0x20 ADD PUSH1 0x0 KECCAK256 SWAP1 POP DUP1 PUSH1 0x2 ADD SLOAD DUP8 DUP4 DUP2 MLOAD DUP2 LT PUSH2 0x467 JUMPI PUSH2 0x466 PUSH2 0xC9A JUMP JUMPDEST JUMPDEST PUSH1 0x20 MUL PUSH1 0x20 ADD ADD DUP2 DUP2 MSTORE POP POP DUP1 PUSH1 0x0 ADD SLOAD DUP10 DUP4 DUP2 MLOAD DUP2 LT PUSH2 0x48B JUMPI PUSH2 0x48A PUSH2 0xC9A JUMP JUMPDEST JUMPDEST PUSH1 0x20 MUL PUSH1 0x20 ADD ADD DUP2 DUP2 MSTORE POP POP DUP1 PUSH1 0x5 ADD SLOAD DUP5 DUP4 DUP2 MLOAD DUP2 LT PUSH2 0x4AF JUMPI PUSH2 0x4AE PUSH2 0xC9A JUMP JUMPDEST JUMPDEST PUSH1 0x20 MUL PUSH1 0x20 ADD ADD DUP2 DUP2 MSTORE POP POP DUP1 PUSH1 0x6 ADD SLOAD DUP4 DUP4 DUP2 MLOAD DUP2 LT PUSH2 0x4D3 JUMPI PUSH2 0x4D2 PUSH2 0xC9A JUMP JUMPDEST JUMPDEST PUSH1 0x20 MUL PUSH1 0x20 ADD ADD DUP2 DUP2 MSTORE POP POP DUP1 PUSH1 0x3 ADD SLOAD DUP7 DUP4 DUP2 MLOAD DUP2 LT PUSH2 0x4F7 JUMPI PUSH2 0x4F6 PUSH2 0xC9A JUMP JUMPDEST JUMPDEST PUSH1 0x20 MUL PUSH1 0x20 ADD ADD DUP2 DUP2 MSTORE POP POP DUP1 PUSH1 0x4 ADD SLOAD DUP6 DUP4 DUP2 MLOAD DUP2 LT PUSH2 0x51B JUMPI PUSH2 0x51A PUSH2 0xC9A JUMP JUMPDEST JUMPDEST PUSH1 0x20 MUL PUSH1 0x20 ADD ADD DUP2 DUP2 MSTORE POP POP POP DUP1 DUP1 PUSH2 0x533 SWAP1 PUSH2 0xC22 JUMP JUMPDEST SWAP2 POP POP PUSH2 0x42F JUMP JUMPDEST POP DUP5 DUP8 DUP4 DUP4 DUP8 DUP8 SWAP13 POP SWAP13 POP SWAP13 POP SWAP13 POP SWAP13 POP SWAP13 POP POP POP POP POP POP POP POP SWAP1 SWAP2 SWAP3 SWAP4 SWAP5 SWAP6 JUMP JUMPDEST PUSH1 0x60 PUSH1 0x0 PUSH1 0x1 SLOAD PUSH8 0xFFFFFFFFFFFFFFFF DUP2 GT ISZERO PUSH2 0x57D JUMPI PUSH2 0x57C PUSH2 0xCC9 JUMP JUMPDEST JUMPDEST PUSH1 0x40 MLOAD SWAP1 DUP1 DUP3 MSTORE DUP1 PUSH1 0x20 MUL PUSH1 0x20 ADD DUP3 ADD PUSH1 0x40 MSTORE DUP1 ISZERO PUSH2 0x5B6 JUMPI DUP2 PUSH1 0x20 ADD JUMPDEST PUSH2 0x5A3 PUSH2 0x722 JUMP JUMPDEST DUP2 MSTORE PUSH1 0x20 ADD SWAP1 PUSH1 0x1 SWAP1 SUB SWAP1 DUP2 PUSH2 0x59B JUMPI SWAP1 POP JUMPDEST POP SWAP1 POP PUSH1 0x0 JUMPDEST PUSH1 0x1 SLOAD DUP2 LT ISZERO PUSH2 0x660 JUMPI PUSH1 0x0 DUP1 PUSH1 0x0 DUP4 DUP2 MSTORE PUSH1 0x20 ADD SWAP1 DUP2 MSTORE PUSH1 0x20 ADD PUSH1 0x0 KECCAK256 SWAP1 POP DUP1 PUSH1 0x40 MLOAD DUP1 PUSH1 0xE0 ADD PUSH1 0x40 MSTORE SWAP1 DUP2 PUSH1 0x0 DUP3 ADD SLOAD DUP2 MSTORE PUSH1 0x20 ADD PUSH1 0x1 DUP3 ADD SLOAD DUP2 MSTORE PUSH1 0x20 ADD PUSH1 0x2 DUP3 ADD SLOAD DUP2 MSTORE PUSH1 0x20 ADD PUSH1 0x3 DUP3 ADD SLOAD DUP2 MSTORE PUSH1 0x20 ADD PUSH1 0x4 DUP3 ADD SLOAD DUP2 MSTORE PUSH1 0x20 ADD PUSH1 0x5 DUP3 ADD SLOAD DUP2 MSTORE PUSH1 0x20 ADD PUSH1 0x6 DUP3 ADD SLOAD DUP2 MSTORE POP POP DUP4 DUP4 DUP2 MLOAD DUP2 LT PUSH2 0x641 JUMPI PUSH2 0x640 PUSH2 0xC9A JUMP JUMPDEST JUMPDEST PUSH1 0x20 MUL PUSH1 0x20 ADD ADD DUP2 SWAP1 MSTORE POP POP DUP1 DUP1 PUSH2 0x658 SWAP1 PUSH2 0xC22 JUMP JUMPDEST SWAP2 POP POP PUSH2 0x5BC JUMP JUMPDEST POP DUP1 SWAP2 POP POP SWAP1 JUMP JUMPDEST PUSH2 0x670 PUSH2 0x722 JUMP JUMPDEST PUSH1 0x0 DUP1 DUP4 DUP2 MSTORE PUSH1 0x20 ADD SWAP1 DUP2 MSTORE PUSH1 0x20 ADD PUSH1 0x0 KECCAK256 PUSH1 0x40 MLOAD DUP1 PUSH1 0xE0 ADD PUSH1 0x40 MSTORE SWAP1 DUP2 PUSH1 0x0 DUP3 ADD SLOAD DUP2 MSTORE PUSH1 0x20 ADD PUSH1 0x1 DUP3 ADD SLOAD DUP2 MSTORE PUSH1 0x20 ADD PUSH1 0x2 DUP3 ADD SLOAD DUP2 MSTORE PUSH1 0x20 ADD PUSH1 0x3 DUP3 ADD SLOAD DUP2 MSTORE PUSH1 0x20 ADD PUSH1 0x4 DUP3 ADD SLOAD DUP2 MSTORE PUSH1 0x20 ADD PUSH1 0x5 DUP3 ADD SLOAD DUP2 MSTORE PUSH1 0x20 ADD PUSH1 0x6 DUP3 ADD SLOAD DUP2 MSTORE POP POP SWAP1 POP SWAP2 SWAP1 POP JUMP JUMPDEST PUSH1 0x0 PUSH1 0x20 MSTORE DUP1 PUSH1 0x0 MSTORE PUSH1 0x40 PUSH1 0x0 KECCAK256 PUSH1 0x0 SWAP2 POP SWAP1 POP DUP1 PUSH1 0x0 ADD SLOAD SWAP1 DUP1 PUSH1 0x1 ADD SLOAD SWAP1 DUP1 PUSH1 0x2 ADD SLOAD SWAP1 DUP1 PUSH1 0x3 ADD SLOAD SWAP1 DUP1 PUSH1 0x4 ADD SLOAD SWAP1 DUP1 PUSH1 0x5 ADD SLOAD SWAP1 DUP1 PUSH1 0x6 ADD SLOAD SWAP1 POP DUP8 JUMP JUMPDEST PUSH1 0x1 SLOAD DUP2 JUMP JUMPDEST PUSH1 0x40 MLOAD DUP1 PUSH1 0xE0 ADD PUSH1 0x40 MSTORE DUP1 PUSH1 0x0 DUP2 MSTORE PUSH1 0x20 ADD PUSH1 0x0 DUP2 MSTORE PUSH1 0x20 ADD PUSH1 0x0 DUP2 MSTORE PUSH1 0x20 ADD PUSH1 0x0 DUP2 MSTORE PUSH1 0x20 ADD PUSH1 0x0 DUP2 MSTORE PUSH1 0x20 ADD PUSH1 0x0 DUP2 MSTORE PUSH1 0x20 ADD PUSH1 0x0 DUP2 MSTORE POP SWAP1 JUMP JUMPDEST PUSH1 0x0 DUP2 CALLDATALOAD SWAP1 POP PUSH2 0x76E DUP2 PUSH2 0xCFD JUMP JUMPDEST SWAP3 SWAP2 POP POP JUMP JUMPDEST PUSH1 0x0 PUSH1 0x20 DUP3 DUP5 SUB SLT ISZERO PUSH2 0x78A JUMPI PUSH2 0x789 PUSH2 0xCF8 JUMP JUMPDEST JUMPDEST PUSH1 0x0 PUSH2 0x798 DUP5 DUP3 DUP6 ADD PUSH2 0x75F JUMP JUMPDEST SWAP2 POP POP SWAP3 SWAP2 POP POP JUMP JUMPDEST PUSH1 0x0 DUP1 PUSH1 0x0 DUP1 PUSH1 0x0 DUP1 PUSH1 0xC0 DUP8 DUP10 SUB SLT ISZERO PUSH2 0x7BE JUMPI PUSH2 0x7BD PUSH2 0xCF8 JUMP JUMPDEST JUMPDEST PUSH1 0x0 PUSH2 0x7CC DUP10 DUP3 DUP11 ADD PUSH2 0x75F JUMP JUMPDEST SWAP7 POP POP PUSH1 0x20 PUSH2 0x7DD DUP10 DUP3 DUP11 ADD PUSH2 0x75F JUMP JUMPDEST SWAP6 POP POP PUSH1 0x40 PUSH2 0x7EE DUP10 DUP3 DUP11 ADD PUSH2 0x75F JUMP JUMPDEST SWAP5 POP POP PUSH1 0x60 PUSH2 0x7FF DUP10 DUP3 DUP11 ADD PUSH2 0x75F JUMP JUMPDEST SWAP4 POP POP PUSH1 0x80 PUSH2 0x810 DUP10 DUP3 DUP11 ADD PUSH2 0x75F JUMP JUMPDEST SWAP3 POP POP PUSH1 0xA0 PUSH2 0x821 DUP10 DUP3 DUP11 ADD PUSH2 0x75F JUMP JUMPDEST SWAP2 POP POP SWAP3 SWAP6 POP SWAP3 SWAP6 POP SWAP3 SWAP6 JUMP JUMPDEST PUSH1 0x0 PUSH2 0x83A DUP4 DUP4 PUSH2 0x91A JUMP JUMPDEST PUSH1 0xE0 DUP4 ADD SWAP1 POP SWAP3 SWAP2 POP POP JUMP JUMPDEST PUSH1 0x0 PUSH2 0x852 DUP4 DUP4 PUSH2 0xA36 JUMP JUMPDEST PUSH1 0x20 DUP4 ADD SWAP1 POP SWAP3 SWAP2 POP POP JUMP JUMPDEST PUSH1 0x0 PUSH2 0x869 DUP3 PUSH2 0xBC6 JUMP JUMPDEST PUSH2 0x873 DUP2 DUP6 PUSH2 0xBF6 JUMP JUMPDEST SWAP4 POP PUSH2 0x87E DUP4 PUSH2 0xBA6 JUMP JUMPDEST DUP1 PUSH1 0x0 JUMPDEST DUP4 DUP2 LT ISZERO PUSH2 0x8AF JUMPI DUP2 MLOAD PUSH2 0x896 DUP9 DUP3 PUSH2 0x82E JUMP JUMPDEST SWAP8 POP PUSH2 0x8A1 DUP4 PUSH2 0xBDC JUMP JUMPDEST SWAP3 POP POP PUSH1 0x1 DUP2 ADD SWAP1 POP PUSH2 0x882 JUMP JUMPDEST POP DUP6 SWAP4 POP POP POP POP SWAP3 SWAP2 POP POP JUMP JUMPDEST PUSH1 0x0 PUSH2 0x8C7 DUP3 PUSH2 0xBD1 JUMP JUMPDEST PUSH2 0x8D1 DUP2 DUP6 PUSH2 0xC07 JUMP JUMPDEST SWAP4 POP PUSH2 0x8DC DUP4 PUSH2 0xBB6 JUMP JUMPDEST DUP1 PUSH1 0x0 JUMPDEST DUP4 DUP2 LT ISZERO PUSH2 0x90D JUMPI DUP2 MLOAD PUSH2 0x8F4 DUP9 DUP3 PUSH2 0x846 JUMP JUMPDEST SWAP8 POP PUSH2 0x8FF DUP4 PUSH2 0xBE9 JUMP JUMPDEST SWAP3 POP POP PUSH1 0x1 DUP2 ADD SWAP1 POP PUSH2 0x8E0 JUMP JUMPDEST POP DUP6 SWAP4 POP POP POP POP SWAP3 SWAP2 POP POP JUMP JUMPDEST PUSH1 0xE0 DUP3 ADD PUSH1 0x0 DUP3 ADD MLOAD PUSH2 0x930 PUSH1 0x0 DUP6 ADD DUP3 PUSH2 0xA36 JUMP JUMPDEST POP PUSH1 0x20 DUP3 ADD MLOAD PUSH2 0x943 PUSH1 0x20 DUP6 ADD DUP3 PUSH2 0xA36 JUMP JUMPDEST POP PUSH1 0x40 DUP3 ADD MLOAD PUSH2 0x956 PUSH1 0x40 DUP6 ADD DUP3 PUSH2 0xA36 JUMP JUMPDEST POP PUSH1 0x60 DUP3 ADD MLOAD PUSH2 0x969 PUSH1 0x60 DUP6 ADD DUP3 PUSH2 0xA36 JUMP JUMPDEST POP PUSH1 0x80 DUP3 ADD MLOAD PUSH2 0x97C PUSH1 0x80 DUP6 ADD DUP3 PUSH2 0xA36 JUMP JUMPDEST POP PUSH1 0xA0 DUP3 ADD MLOAD PUSH2 0x98F PUSH1 0xA0 DUP6 ADD DUP3 PUSH2 0xA36 JUMP JUMPDEST POP PUSH1 0xC0 DUP3 ADD MLOAD PUSH2 0x9A2 PUSH1 0xC0 DUP6 ADD DUP3 PUSH2 0xA36 JUMP JUMPDEST POP POP POP POP JUMP JUMPDEST PUSH1 0xE0 DUP3 ADD PUSH1 0x0 DUP3 ADD MLOAD PUSH2 0x9BE PUSH1 0x0 DUP6 ADD DUP3 PUSH2 0xA36 JUMP JUMPDEST POP PUSH1 0x20 DUP3 ADD MLOAD PUSH2 0x9D1 PUSH1 0x20 DUP6 ADD DUP3 PUSH2 0xA36 JUMP JUMPDEST POP PUSH1 0x40 DUP3 ADD MLOAD PUSH2 0x9E4 PUSH1 0x40 DUP6 ADD DUP3 PUSH2 0xA36 JUMP JUMPDEST POP PUSH1 0x60 DUP3 ADD MLOAD PUSH2 0x9F7 PUSH1 0x60 DUP6 ADD DUP3 PUSH2 0xA36 JUMP JUMPDEST POP PUSH1 0x80 DUP3 ADD MLOAD PUSH2 0xA0A PUSH1 0x80 DUP6 ADD DUP3 PUSH2 0xA36 JUMP JUMPDEST POP PUSH1 0xA0 DUP3 ADD MLOAD PUSH2 0xA1D PUSH1 0xA0 DUP6 ADD DUP3 PUSH2 0xA36 JUMP JUMPDEST POP PUSH1 0xC0 DUP3 ADD MLOAD PUSH2 0xA30 PUSH1 0xC0 DUP6 ADD DUP3 PUSH2 0xA36 JUMP JUMPDEST POP POP POP POP JUMP JUMPDEST PUSH2 0xA3F DUP2 PUSH2 0xC18 JUMP JUMPDEST DUP3 MSTORE POP POP JUMP JUMPDEST PUSH2 0xA4E DUP2 PUSH2 0xC18 JUMP JUMPDEST DUP3 MSTORE POP POP JUMP JUMPDEST PUSH1 0x0 PUSH1 0x20 DUP3 ADD SWAP1 POP DUP2 DUP2 SUB PUSH1 0x0 DUP4 ADD MSTORE PUSH2 0xA6E DUP2 DUP5 PUSH2 0x85E JUMP JUMPDEST SWAP1 POP SWAP3 SWAP2 POP POP JUMP JUMPDEST PUSH1 0x0 PUSH1 0xC0 DUP3 ADD SWAP1 POP DUP2 DUP2 SUB PUSH1 0x0 DUP4 ADD MSTORE PUSH2 0xA90 DUP2 DUP10 PUSH2 0x8BC JUMP JUMPDEST SWAP1 POP DUP2 DUP2 SUB PUSH1 0x20 DUP4 ADD MSTORE PUSH2 0xAA4 DUP2 DUP9 PUSH2 0x8BC JUMP JUMPDEST SWAP1 POP DUP2 DUP2 SUB PUSH1 0x40 DUP4 ADD MSTORE PUSH2 0xAB8 DUP2 DUP8 PUSH2 0x8BC JUMP JUMPDEST SWAP1 POP DUP2 DUP2 SUB PUSH1 0x60 DUP4 ADD MSTORE PUSH2 0xACC DUP2 DUP7 PUSH2 0x8BC JUMP JUMPDEST SWAP1 POP DUP2 DUP2 SUB PUSH1 0x80 DUP4 ADD MSTORE PUSH2 0xAE0 DUP2 DUP6 PUSH2 0x8BC JUMP JUMPDEST SWAP1 POP DUP2 DUP2 SUB PUSH1 0xA0 DUP4 ADD MSTORE PUSH2 0xAF4 DUP2 DUP5 PUSH2 0x8BC JUMP JUMPDEST SWAP1 POP SWAP8 SWAP7 POP POP POP POP POP POP POP JUMP JUMPDEST PUSH1 0x0 PUSH1 0xE0 DUP3 ADD SWAP1 POP PUSH2 0xB16 PUSH1 0x0 DUP4 ADD DUP5 PUSH2 0x9A8 JUMP JUMPDEST SWAP3 SWAP2 POP POP JUMP JUMPDEST PUSH1 0x0 PUSH1 0x20 DUP3 ADD SWAP1 POP PUSH2 0xB31 PUSH1 0x0 DUP4 ADD DUP5 PUSH2 0xA45 JUMP JUMPDEST SWAP3 SWAP2 POP POP JUMP JUMPDEST PUSH1 0x0 PUSH1 0xE0 DUP3 ADD SWAP1 POP PUSH2 0xB4C PUSH1 0x0 DUP4 ADD DUP11 PUSH2 0xA45 JUMP JUMPDEST PUSH2 0xB59 PUSH1 0x20 DUP4 ADD DUP10 PUSH2 0xA45 JUMP JUMPDEST PUSH2 0xB66 PUSH1 0x40 DUP4 ADD DUP9 PUSH2 0xA45 JUMP JUMPDEST PUSH2 0xB73 PUSH1 0x60 DUP4 ADD DUP8 PUSH2 0xA45 JUMP JUMPDEST PUSH2 0xB80 PUSH1 0x80 DUP4 ADD DUP7 PUSH2 0xA45 JUMP JUMPDEST PUSH2 0xB8D PUSH1 0xA0 DUP4 ADD DUP6 PUSH2 0xA45 JUMP JUMPDEST PUSH2 0xB9A PUSH1 0xC0 DUP4 ADD DUP5 PUSH2 0xA45 JUMP JUMPDEST SWAP9 SWAP8 POP POP POP POP POP POP POP POP JUMP JUMPDEST PUSH1 0x0 DUP2 SWAP1 POP PUSH1 0x20 DUP3 ADD SWAP1 POP SWAP2 SWAP1 POP JUMP JUMPDEST PUSH1 0x0 DUP2 SWAP1 POP PUSH1 0x20 DUP3 ADD SWAP1 POP SWAP2 SWAP1 POP JUMP JUMPDEST PUSH1 0x0 DUP2 MLOAD SWAP1 POP SWAP2 SWAP1 POP JUMP JUMPDEST PUSH1 0x0 DUP2 MLOAD SWAP1 POP SWAP2 SWAP1 POP JUMP JUMPDEST PUSH1 0x0 PUSH1 0x20 DUP3 ADD SWAP1 POP SWAP2 SWAP1 POP JUMP JUMPDEST PUSH1 0x0 PUSH1 0x20 DUP3 ADD SWAP1 POP SWAP2 SWAP1 POP JUMP JUMPDEST PUSH1 0x0 DUP3 DUP3 MSTORE PUSH1 0x20 DUP3 ADD SWAP1 POP SWAP3 SWAP2 POP POP JUMP JUMPDEST PUSH1 0x0 DUP3 DUP3 MSTORE PUSH1 0x20 DUP3 ADD SWAP1 POP SWAP3 SWAP2 POP POP JUMP JUMPDEST PUSH1 0x0 DUP2 SWAP1 POP SWAP2 SWAP1 POP JUMP JUMPDEST PUSH1 0x0 PUSH2 0xC2D DUP3 PUSH2 0xC18 JUMP JUMPDEST SWAP2 POP PUSH32 0xFFFFFFFFFFFFFFFFFFFFFFFFFFFFFFFFFFFFFFFFFFFFFFFFFFFFFFFFFFFFFFFF DUP3 EQ ISZERO PUSH2 0xC60 JUMPI PUSH2 0xC5F PUSH2 0xC6B JUMP JUMPDEST JUMPDEST PUSH1 0x1 DUP3 ADD SWAP1 POP SWAP2 SWAP1 POP JUMP JUMPDEST PUSH32 0x4E487B7100000000000000000000000000000000000000000000000000000000 PUSH1 0x0 MSTORE PUSH1 0x11 PUSH1 0x4 MSTORE PUSH1 0x24 PUSH1 0x0 REVERT JUMPDEST PUSH32 0x4E487B7100000000000000000000000000000000000000000000000000000000 PUSH1 0x0 MSTORE PUSH1 0x32 PUSH1 0x4 MSTORE PUSH1 0x24 PUSH1 0x0 REVERT JUMPDEST PUSH32 0x4E487B7100000000000000000000000000000000000000000000000000000000 PUSH1 0x0 MSTORE PUSH1 0x41 PUSH1 0x4 MSTORE PUSH1 0x24 PUSH1 0x0 REVERT JUMPDEST PUSH1 0x0 DUP1 REVERT JUMPDEST PUSH2 0xD06 DUP2 PUSH2 0xC18 JUMP JUMPDEST DUP2 EQ PUSH2 0xD11 JUMPI PUSH1 0x0 DUP1 REVERT JUMPDEST POP JUMP INVALID LOG2 PUSH5 0x6970667358 0x22 SLT KECCAK256 PUSH19 0x7B6FB4F8FE8E75A821D3D1352EC204A8853515 0x5C 0xF8 PUSH9 0x8557B08FB90C7647D8 PUSH5 0x736F6C6343 STOP ADDMOD SMOD STOP CALLER "
				},
				"gasEstimates": {
					"creation": {
						"codeDepositCost": "680400",
						"executionCost": "5729",
						"totalCost": "686129"
					},
					"external": {
						"addTransaction(uint256,uint256,uint256,uint256,uint256,uint256)": "infinite",
						"get(uint256)": "infinite",
						"getTransaction()": "infinite",
						"getTransactions()": "infinite",
						"transactions(uint256)": "infinite",
						"transactionsCount()": "2517"
					}
				},
				"methodIdentifiers": {
					"addTransaction(uint256,uint256,uint256,uint256,uint256,uint256)": "0a6486c1",
					"get(uint256)": "9507d39a",
					"getTransaction()": "59705f81",
					"getTransactions()": "83920e90",
					"transactions(uint256)": "9ace38c2",
					"transactionsCount()": "fd99a746"
				}
			},
			"storageLayout": {
				"storage": [
					{
						"astId": 21,
						"contract": "contracts/Transaction.sol:Transactions",
						"label": "transactions",
						"offset": 0,
						"slot": "0",
						"type": "t_mapping(t_uint256,t_struct(Transaction)16_storage)"
					},
					{
						"astId": 23,
						"contract": "contracts/Transaction.sol:Transactions",
						"label": "transactionsCount",
						"offset": 0,
						"slot": "1",
						"type": "t_uint256"
					}
				],
				"types": {
					"t_mapping(t_uint256,t_struct(Transaction)16_storage)": {
						"encoding": "mapping",
						"key": "t_uint256",
						"label": "mapping(uint256 => struct Transactions.Transaction)",
						"numberOfBytes": "32",
						"value": "t_struct(Transaction)16_storage"
					},
					"t_struct(Transaction)16_storage": {
						"encoding": "inplace",
						"label": "struct Transactions.Transaction",
						"members": [
							{
								"astId": 3,
								"contract": "contracts/Transaction.sol:Transactions",
								"label": "TransactionID",
								"offset": 0,
								"slot": "0",
								"type": "t_uint256"
							},
							{
								"astId": 5,
								"contract": "contracts/Transaction.sol:Transactions",
								"label": "DrugID",
								"offset": 0,
								"slot": "1",
								"type": "t_uint256"
							},
							{
								"astId": 7,
								"contract": "contracts/Transaction.sol:Transactions",
								"label": "PatchNo",
								"offset": 0,
								"slot": "2",
								"type": "t_uint256"
							},
							{
								"astId": 9,
								"contract": "contracts/Transaction.sol:Transactions",
								"label": "CurrentOwner",
								"offset": 0,
								"slot": "3",
								"type": "t_uint256"
							},
							{
								"astId": 11,
								"contract": "contracts/Transaction.sol:Transactions",
								"label": "FromOwner",
								"offset": 0,
								"slot": "4",
								"type": "t_uint256"
							},
							{
								"astId": 13,
								"contract": "contracts/Transaction.sol:Transactions",
								"label": "TransferedAmount",
								"offset": 0,
								"slot": "5",
								"type": "t_uint256"
							},
							{
								"astId": 15,
								"contract": "contracts/Transaction.sol:Transactions",
								"label": "TransactionDate",
								"offset": 0,
								"slot": "6",
								"type": "t_uint256"
							}
						],
						"numberOfBytes": "224"
					},
					"t_uint256": {
						"encoding": "inplace",
						"label": "uint256",
						"numberOfBytes": "32"
					}
				}
			},
			"userdoc": {
				"kind": "user",
				"methods": {},
				"version": 1
			}
		}
	}
}