{
	"contracts/Drugs.sol": {
		"Drugs": {
			"abi": [
				{
					"inputs": [],
					"stateMutability": "nonpayable",
					"type": "constructor"
				},
				{
					"inputs": [
						{
							"internalType": "address",
							"name": "_manufacturer",
							"type": "address"
						}
					],
					"name": "addDrug",
					"outputs": [],
					"stateMutability": "nonpayable",
					"type": "function"
				},
				{
					"inputs": [
						{
							"internalType": "uint256",
							"name": "",
							"type": "uint256"
						}
					],
					"name": "drugs",
					"outputs": [
						{
							"internalType": "uint256",
							"name": "DrugID",
							"type": "uint256"
						},
						{
							"internalType": "address",
							"name": "Manufacturer",
							"type": "address"
						}
					],
					"stateMutability": "view",
					"type": "function"
				},
				{
					"inputs": [],
					"name": "drugsCount",
					"outputs": [
						{
							"internalType": "uint256",
							"name": "",
							"type": "uint256"
						}
					],
					"stateMutability": "view",
					"type": "function"
				},
				{
					"inputs": [
						{
							"internalType": "uint256",
							"name": "_drugid",
							"type": "uint256"
						}
					],
					"name": "get",
					"outputs": [
						{
							"components": [
								{
									"internalType": "uint256",
									"name": "DrugID",
									"type": "uint256"
								},
								{
									"internalType": "address",
									"name": "Manufacturer",
									"type": "address"
								}
							],
							"internalType": "struct Drugs.Drug",
							"name": "",
							"type": "tuple"
						}
					],
					"stateMutability": "view",
					"type": "function"
				},
				{
					"inputs": [],
					"name": "getDrug",
					"outputs": [
						{
							"internalType": "uint256[]",
							"name": "",
							"type": "uint256[]"
						},
						{
							"internalType": "address[]",
							"name": "",
							"type": "address[]"
						}
					],
					"stateMutability": "view",
					"type": "function"
				},
				{
					"inputs": [],
					"name": "getDrugs",
					"outputs": [
						{
							"components": [
								{
									"internalType": "uint256",
									"name": "DrugID",
									"type": "uint256"
								},
								{
									"internalType": "address",
									"name": "Manufacturer",
									"type": "address"
								}
							],
							"internalType": "struct Drugs.Drug[]",
							"name": "",
							"type": "tuple[]"
						}
					],
					"stateMutability": "view",
					"type": "function"
				}
			],
			"devdoc": {
				"kind": "dev",
				"methods": {},
				"version": 1
			},
			"evm": {
				"assembly": "    /* \"contracts/Drugs.sol\":97:1449  contract Drugs {\r... */\n  mstore(0x40, 0x80)\n    /* \"contracts/Drugs.sol\":318:366  constructor()  {\r... */\n  callvalue\n  dup1\n  iszero\n  tag_1\n  jumpi\n  0x00\n  dup1\n  revert\ntag_1:\n  pop\n    /* \"contracts/Drugs.sol\":357:358  0 */\n  0x00\n    /* \"contracts/Drugs.sol\":344:354  drugsCount */\n  0x01\n    /* \"contracts/Drugs.sol\":344:358  drugsCount = 0 */\n  dup2\n  swap1\n  sstore\n  pop\n    /* \"contracts/Drugs.sol\":97:1449  contract Drugs {\r... */\n  dataSize(sub_0)\n  dup1\n  dataOffset(sub_0)\n  0x00\n  codecopy\n  0x00\n  return\nstop\n\nsub_0: assembly {\n        /* \"contracts/Drugs.sol\":97:1449  contract Drugs {\r... */\n      mstore(0x40, 0x80)\n      callvalue\n      dup1\n      iszero\n      tag_1\n      jumpi\n      0x00\n      dup1\n      revert\n    tag_1:\n      pop\n      jumpi(tag_2, lt(calldatasize, 0x04))\n      shr(0xe0, calldataload(0x00))\n      dup1\n      0x193de85d\n      eq\n      tag_3\n      jumpi\n      dup1\n      0x5fb07a62\n      eq\n      tag_4\n      jumpi\n      dup1\n      0x92812e6f\n      eq\n      tag_5\n      jumpi\n      dup1\n      0x9507d39a\n      eq\n      tag_6\n      jumpi\n      dup1\n      0xf2a50281\n      eq\n      tag_7\n      jumpi\n      dup1\n      0xfca5e61e\n      eq\n      tag_8\n      jumpi\n    tag_2:\n      0x00\n      dup1\n      revert\n        /* \"contracts/Drugs.sol\":372:511  function addDrug(address _manufacturer) public {\r... */\n    tag_3:\n      tag_9\n      0x04\n      dup1\n      calldatasize\n      sub\n      dup2\n      add\n      swap1\n      tag_10\n      swap2\n      swap1\n      tag_11\n      jump\t// in\n    tag_10:\n      tag_12\n      jump\t// in\n    tag_9:\n      stop\n        /* \"contracts/Drugs.sol\":1176:1444  function getDrugs() public view returns (Drug[] memory){\r... */\n    tag_4:\n      tag_13\n      tag_14\n      jump\t// in\n    tag_13:\n      mload(0x40)\n      tag_15\n      swap2\n      swap1\n      tag_16\n      jump\t// in\n    tag_15:\n      mload(0x40)\n      dup1\n      swap2\n      sub\n      swap1\n      return\n        /* \"contracts/Drugs.sol\":289:311  uint public drugsCount */\n    tag_5:\n      tag_17\n      tag_18\n      jump\t// in\n    tag_17:\n      mload(0x40)\n      tag_19\n      swap2\n      swap1\n      tag_20\n      jump\t// in\n    tag_19:\n      mload(0x40)\n      dup1\n      swap2\n      sub\n      swap1\n      return\n        /* \"contracts/Drugs.sol\":548:648  function get(uint _drugid) public view returns(Drug memory) {\r... */\n    tag_6:\n      tag_21\n      0x04\n      dup1\n      calldatasize\n      sub\n      dup2\n      add\n      swap1\n      tag_22\n      swap2\n      swap1\n      tag_23\n      jump\t// in\n    tag_22:\n      tag_24\n      jump\t// in\n    tag_21:\n      mload(0x40)\n      tag_25\n      swap2\n      swap1\n      tag_26\n      jump\t// in\n    tag_25:\n      mload(0x40)\n      dup1\n      swap2\n      sub\n      swap1\n      return\n        /* \"contracts/Drugs.sol\":693:1137  function getDrug() public view returns (uint[] memory, address[] memory){\r... */\n    tag_7:\n      tag_27\n      tag_28\n      jump\t// in\n    tag_27:\n      mload(0x40)\n      tag_29\n      swap3\n      swap2\n      swap1\n      tag_30\n      jump\t// in\n    tag_29:\n      mload(0x40)\n      dup1\n      swap2\n      sub\n      swap1\n      return\n        /* \"contracts/Drugs.sol\":197:232  mapping (uint => Drug) public drugs */\n    tag_8:\n      tag_31\n      0x04\n      dup1\n      calldatasize\n      sub\n      dup2\n      add\n      swap1\n      tag_32\n      swap2\n      swap1\n      tag_23\n      jump\t// in\n    tag_32:\n      tag_33\n      jump\t// in\n    tag_31:\n      mload(0x40)\n      tag_34\n      swap3\n      swap2\n      swap1\n      tag_35\n      jump\t// in\n    tag_34:\n      mload(0x40)\n      dup1\n      swap2\n      sub\n      swap1\n      return\n        /* \"contracts/Drugs.sol\":372:511  function addDrug(address _manufacturer) public {\r... */\n    tag_12:\n        /* \"contracts/Drugs.sol\":450:480  Drug(drugsCount,_manufacturer) */\n      mload(0x40)\n      dup1\n      0x40\n      add\n      0x40\n      mstore\n      dup1\n        /* \"contracts/Drugs.sol\":455:465  drugsCount */\n      sload(0x01)\n        /* \"contracts/Drugs.sol\":450:480  Drug(drugsCount,_manufacturer) */\n      dup2\n      mstore\n      0x20\n      add\n        /* \"contracts/Drugs.sol\":466:479  _manufacturer */\n      dup3\n        /* \"contracts/Drugs.sol\":450:480  Drug(drugsCount,_manufacturer) */\n      0xffffffffffffffffffffffffffffffffffffffff\n      and\n      dup2\n      mstore\n      pop\n        /* \"contracts/Drugs.sol\":430:435  drugs */\n      0x00\n        /* \"contracts/Drugs.sol\":430:447  drugs[drugsCount] */\n      dup1\n        /* \"contracts/Drugs.sol\":436:446  drugsCount */\n      sload(0x01)\n        /* \"contracts/Drugs.sol\":430:447  drugs[drugsCount] */\n      dup2\n      mstore\n      0x20\n      add\n      swap1\n      dup2\n      mstore\n      0x20\n      add\n      0x00\n      keccak256\n        /* \"contracts/Drugs.sol\":430:480  drugs[drugsCount] = Drug(drugsCount,_manufacturer) */\n      0x00\n      dup3\n      add\n      mload\n      dup2\n      0x00\n      add\n      sstore\n      0x20\n      dup3\n      add\n      mload\n      dup2\n      0x01\n      add\n      exp(0x0100, 0x00)\n      dup2\n      sload\n      dup2\n      0xffffffffffffffffffffffffffffffffffffffff\n      mul\n      not\n      and\n      swap1\n      dup4\n      0xffffffffffffffffffffffffffffffffffffffff\n      and\n      mul\n      or\n      swap1\n      sstore\n      pop\n      swap1\n      pop\n      pop\n        /* \"contracts/Drugs.sol\":491:501  drugsCount */\n      0x01\n      0x00\n        /* \"contracts/Drugs.sol\":491:503  drugsCount++ */\n      dup2\n      sload\n      dup1\n      swap3\n      swap2\n      swap1\n      tag_37\n      swap1\n      tag_38\n      jump\t// in\n    tag_37:\n      swap2\n      swap1\n      pop\n      sstore\n      pop\n        /* \"contracts/Drugs.sol\":372:511  function addDrug(address _manufacturer) public {\r... */\n      pop\n      jump\t// out\n        /* \"contracts/Drugs.sol\":1176:1444  function getDrugs() public view returns (Drug[] memory){\r... */\n    tag_14:\n        /* \"contracts/Drugs.sol\":1217:1230  Drug[] memory */\n      0x60\n        /* \"contracts/Drugs.sol\":1242:1261  Drug[]    memory id */\n      0x00\n        /* \"contracts/Drugs.sol\":1275:1285  drugsCount */\n      sload(0x01)\n        /* \"contracts/Drugs.sol\":1264:1286  new Drug[](drugsCount) */\n      0xffffffffffffffff\n      dup2\n      gt\n      iszero\n      tag_40\n      jumpi\n      tag_41\n      tag_42\n      jump\t// in\n    tag_41:\n    tag_40:\n      mload(0x40)\n      swap1\n      dup1\n      dup3\n      mstore\n      dup1\n      0x20\n      mul\n      0x20\n      add\n      dup3\n      add\n      0x40\n      mstore\n      dup1\n      iszero\n      tag_43\n      jumpi\n      dup2\n      0x20\n      add\n    tag_44:\n      tag_45\n      tag_46\n      jump\t// in\n    tag_45:\n      dup2\n      mstore\n      0x20\n      add\n      swap1\n      0x01\n      swap1\n      sub\n      swap1\n      dup2\n      tag_44\n      jumpi\n      swap1\n      pop\n    tag_43:\n      pop\n        /* \"contracts/Drugs.sol\":1242:1286  Drug[]    memory id = new Drug[](drugsCount) */\n      swap1\n      pop\n        /* \"contracts/Drugs.sol\":1302:1308  uint i */\n      0x00\n        /* \"contracts/Drugs.sol\":1297:1417  for (uint i = 0; i < drugsCount; i++) {\r... */\n    tag_47:\n        /* \"contracts/Drugs.sol\":1318:1328  drugsCount */\n      sload(0x01)\n        /* \"contracts/Drugs.sol\":1314:1315  i */\n      dup2\n        /* \"contracts/Drugs.sol\":1314:1328  i < drugsCount */\n      lt\n        /* \"contracts/Drugs.sol\":1297:1417  for (uint i = 0; i < drugsCount; i++) {\r... */\n      iszero\n      tag_48\n      jumpi\n        /* \"contracts/Drugs.sol\":1350:1367  Drug storage drug */\n      0x00\n        /* \"contracts/Drugs.sol\":1370:1375  drugs */\n      dup1\n        /* \"contracts/Drugs.sol\":1370:1378  drugs[i] */\n      0x00\n        /* \"contracts/Drugs.sol\":1376:1377  i */\n      dup4\n        /* \"contracts/Drugs.sol\":1370:1378  drugs[i] */\n      dup2\n      mstore\n      0x20\n      add\n      swap1\n      dup2\n      mstore\n      0x20\n      add\n      0x00\n      keccak256\n        /* \"contracts/Drugs.sol\":1350:1378  Drug storage drug = drugs[i] */\n      swap1\n      pop\n        /* \"contracts/Drugs.sol\":1401:1405  drug */\n      dup1\n        /* \"contracts/Drugs.sol\":1393:1405  id[i] = drug */\n      mload(0x40)\n      dup1\n      0x40\n      add\n      0x40\n      mstore\n      swap1\n      dup2\n      0x00\n      dup3\n      add\n      sload\n      dup2\n      mstore\n      0x20\n      add\n      0x01\n      dup3\n      add\n      0x00\n      swap1\n      sload\n      swap1\n      0x0100\n      exp\n      swap1\n      div\n      0xffffffffffffffffffffffffffffffffffffffff\n      and\n      0xffffffffffffffffffffffffffffffffffffffff\n      and\n      0xffffffffffffffffffffffffffffffffffffffff\n      and\n      dup2\n      mstore\n      pop\n      pop\n        /* \"contracts/Drugs.sol\":1393:1395  id */\n      dup4\n        /* \"contracts/Drugs.sol\":1396:1397  i */\n      dup4\n        /* \"contracts/Drugs.sol\":1393:1398  id[i] */\n      dup2\n      mload\n      dup2\n      lt\n      tag_50\n      jumpi\n      tag_51\n      tag_52\n      jump\t// in\n    tag_51:\n    tag_50:\n      0x20\n      mul\n      0x20\n      add\n      add\n        /* \"contracts/Drugs.sol\":1393:1405  id[i] = drug */\n      dup2\n      swap1\n      mstore\n      pop\n        /* \"contracts/Drugs.sol\":1335:1417  {\r... */\n      pop\n        /* \"contracts/Drugs.sol\":1330:1333  i++ */\n      dup1\n      dup1\n      tag_53\n      swap1\n      tag_38\n      jump\t// in\n    tag_53:\n      swap2\n      pop\n      pop\n        /* \"contracts/Drugs.sol\":1297:1417  for (uint i = 0; i < drugsCount; i++) {\r... */\n      jump(tag_47)\n    tag_48:\n      pop\n        /* \"contracts/Drugs.sol\":1434:1436  id */\n      dup1\n        /* \"contracts/Drugs.sol\":1427:1436  return id */\n      swap2\n      pop\n      pop\n        /* \"contracts/Drugs.sol\":1176:1444  function getDrugs() public view returns (Drug[] memory){\r... */\n      swap1\n      jump\t// out\n        /* \"contracts/Drugs.sol\":289:311  uint public drugsCount */\n    tag_18:\n      sload(0x01)\n      dup2\n      jump\t// out\n        /* \"contracts/Drugs.sol\":548:648  function get(uint _drugid) public view returns(Drug memory) {\r... */\n    tag_24:\n        /* \"contracts/Drugs.sol\":595:606  Drug memory */\n      tag_54\n      tag_46\n      jump\t// in\n    tag_54:\n        /* \"contracts/Drugs.sol\":626:631  drugs */\n      0x00\n        /* \"contracts/Drugs.sol\":626:640  drugs[_drugid] */\n      dup1\n        /* \"contracts/Drugs.sol\":632:639  _drugid */\n      dup4\n        /* \"contracts/Drugs.sol\":626:640  drugs[_drugid] */\n      dup2\n      mstore\n      0x20\n      add\n      swap1\n      dup2\n      mstore\n      0x20\n      add\n      0x00\n      keccak256\n        /* \"contracts/Drugs.sol\":619:640  return drugs[_drugid] */\n      mload(0x40)\n      dup1\n      0x40\n      add\n      0x40\n      mstore\n      swap1\n      dup2\n      0x00\n      dup3\n      add\n      sload\n      dup2\n      mstore\n      0x20\n      add\n      0x01\n      dup3\n      add\n      0x00\n      swap1\n      sload\n      swap1\n      0x0100\n      exp\n      swap1\n      div\n      0xffffffffffffffffffffffffffffffffffffffff\n      and\n      0xffffffffffffffffffffffffffffffffffffffff\n      and\n      0xffffffffffffffffffffffffffffffffffffffff\n      and\n      dup2\n      mstore\n      pop\n      pop\n      swap1\n      pop\n        /* \"contracts/Drugs.sol\":548:648  function get(uint _drugid) public view returns(Drug memory) {\r... */\n      swap2\n      swap1\n      pop\n      jump\t// out\n        /* \"contracts/Drugs.sol\":693:1137  function getDrug() public view returns (uint[] memory, address[] memory){\r... */\n    tag_28:\n        /* \"contracts/Drugs.sol\":733:746  uint[] memory */\n      0x60\n        /* \"contracts/Drugs.sol\":748:764  address[] memory */\n      dup1\n        /* \"contracts/Drugs.sol\":776:797  uint[]  memory drugid */\n      0x00\n        /* \"contracts/Drugs.sol\":811:821  drugsCount */\n      sload(0x01)\n        /* \"contracts/Drugs.sol\":800:822  new uint[](drugsCount) */\n      0xffffffffffffffff\n      dup2\n      gt\n      iszero\n      tag_57\n      jumpi\n      tag_58\n      tag_42\n      jump\t// in\n    tag_58:\n    tag_57:\n      mload(0x40)\n      swap1\n      dup1\n      dup3\n      mstore\n      dup1\n      0x20\n      mul\n      0x20\n      add\n      dup3\n      add\n      0x40\n      mstore\n      dup1\n      iszero\n      tag_59\n      jumpi\n      dup2\n      0x20\n      add\n      0x20\n      dup3\n      mul\n      dup1\n      calldatasize\n      dup4\n      calldatacopy\n      dup1\n      dup3\n      add\n      swap2\n      pop\n      pop\n      swap1\n      pop\n    tag_59:\n      pop\n        /* \"contracts/Drugs.sol\":776:822  uint[]  memory drugid = new uint[](drugsCount) */\n      swap1\n      pop\n        /* \"contracts/Drugs.sol\":833:863  address[]  memory manufacturer */\n      0x00\n        /* \"contracts/Drugs.sol\":880:890  drugsCount */\n      sload(0x01)\n        /* \"contracts/Drugs.sol\":866:891  new address[](drugsCount) */\n      0xffffffffffffffff\n      dup2\n      gt\n      iszero\n      tag_60\n      jumpi\n      tag_61\n      tag_42\n      jump\t// in\n    tag_61:\n    tag_60:\n      mload(0x40)\n      swap1\n      dup1\n      dup3\n      mstore\n      dup1\n      0x20\n      mul\n      0x20\n      add\n      dup3\n      add\n      0x40\n      mstore\n      dup1\n      iszero\n      tag_62\n      jumpi\n      dup2\n      0x20\n      add\n      0x20\n      dup3\n      mul\n      dup1\n      calldatasize\n      dup4\n      calldatacopy\n      dup1\n      dup3\n      add\n      swap2\n      pop\n      pop\n      swap1\n      pop\n    tag_62:\n      pop\n        /* \"contracts/Drugs.sol\":833:891  address[]  memory manufacturer = new address[](drugsCount) */\n      swap1\n      pop\n        /* \"contracts/Drugs.sol\":914:920  uint i */\n      0x00\n        /* \"contracts/Drugs.sol\":909:1090  for (uint i = 0; i < drugsCount; i++) {\r... */\n    tag_63:\n        /* \"contracts/Drugs.sol\":930:940  drugsCount */\n      sload(0x01)\n        /* \"contracts/Drugs.sol\":926:927  i */\n      dup2\n        /* \"contracts/Drugs.sol\":926:940  i < drugsCount */\n      lt\n        /* \"contracts/Drugs.sol\":909:1090  for (uint i = 0; i < drugsCount; i++) {\r... */\n      iszero\n      tag_64\n      jumpi\n        /* \"contracts/Drugs.sol\":962:979  Drug storage drug */\n      0x00\n        /* \"contracts/Drugs.sol\":982:987  drugs */\n      dup1\n        /* \"contracts/Drugs.sol\":982:990  drugs[i] */\n      0x00\n        /* \"contracts/Drugs.sol\":988:989  i */\n      dup4\n        /* \"contracts/Drugs.sol\":982:990  drugs[i] */\n      dup2\n      mstore\n      0x20\n      add\n      swap1\n      dup2\n      mstore\n      0x20\n      add\n      0x00\n      keccak256\n        /* \"contracts/Drugs.sol\":962:990  Drug storage drug = drugs[i] */\n      swap1\n      pop\n        /* \"contracts/Drugs.sol\":1017:1021  drug */\n      dup1\n        /* \"contracts/Drugs.sol\":1017:1028  drug.DrugID */\n      0x00\n      add\n      sload\n        /* \"contracts/Drugs.sol\":1005:1011  drugid */\n      dup5\n        /* \"contracts/Drugs.sol\":1012:1013  i */\n      dup4\n        /* \"contracts/Drugs.sol\":1005:1014  drugid[i] */\n      dup2\n      mload\n      dup2\n      lt\n      tag_66\n      jumpi\n      tag_67\n      tag_52\n      jump\t// in\n    tag_67:\n    tag_66:\n      0x20\n      mul\n      0x20\n      add\n      add\n        /* \"contracts/Drugs.sol\":1005:1028  drugid[i] = drug.DrugID */\n      dup2\n      dup2\n      mstore\n      pop\n      pop\n        /* \"contracts/Drugs.sol\":1061:1065  drug */\n      dup1\n        /* \"contracts/Drugs.sol\":1061:1078  drug.Manufacturer */\n      0x01\n      add\n      0x00\n      swap1\n      sload\n      swap1\n      0x0100\n      exp\n      swap1\n      div\n      0xffffffffffffffffffffffffffffffffffffffff\n      and\n        /* \"contracts/Drugs.sol\":1043:1055  manufacturer */\n      dup4\n        /* \"contracts/Drugs.sol\":1056:1057  i */\n      dup4\n        /* \"contracts/Drugs.sol\":1043:1058  manufacturer[i] */\n      dup2\n      mload\n      dup2\n      lt\n      tag_68\n      jumpi\n      tag_69\n      tag_52\n      jump\t// in\n    tag_69:\n    tag_68:\n      0x20\n      mul\n      0x20\n      add\n      add\n        /* \"contracts/Drugs.sol\":1043:1078  manufacturer[i] = drug.Manufacturer */\n      swap1\n      0xffffffffffffffffffffffffffffffffffffffff\n      and\n      swap1\n      dup2\n      0xffffffffffffffffffffffffffffffffffffffff\n      and\n      dup2\n      mstore\n      pop\n      pop\n        /* \"contracts/Drugs.sol\":947:1090  {\r... */\n      pop\n        /* \"contracts/Drugs.sol\":942:945  i++ */\n      dup1\n      dup1\n      tag_70\n      swap1\n      tag_38\n      jump\t// in\n    tag_70:\n      swap2\n      pop\n      pop\n        /* \"contracts/Drugs.sol\":909:1090  for (uint i = 0; i < drugsCount; i++) {\r... */\n      jump(tag_63)\n    tag_64:\n      pop\n        /* \"contracts/Drugs.sol\":1108:1114  drugid */\n      dup2\n        /* \"contracts/Drugs.sol\":1116:1128  manufacturer */\n      dup2\n        /* \"contracts/Drugs.sol\":1100:1129  return (drugid, manufacturer) */\n      swap4\n      pop\n      swap4\n      pop\n      pop\n      pop\n        /* \"contracts/Drugs.sol\":693:1137  function getDrug() public view returns (uint[] memory, address[] memory){\r... */\n      swap1\n      swap2\n      jump\t// out\n        /* \"contracts/Drugs.sol\":197:232  mapping (uint => Drug) public drugs */\n    tag_33:\n      mstore(0x20, 0x00)\n      dup1\n      0x00\n      mstore\n      keccak256(0x00, 0x40)\n      0x00\n      swap2\n      pop\n      swap1\n      pop\n      dup1\n      0x00\n      add\n      sload\n      swap1\n      dup1\n      0x01\n      add\n      0x00\n      swap1\n      sload\n      swap1\n      0x0100\n      exp\n      swap1\n      div\n      0xffffffffffffffffffffffffffffffffffffffff\n      and\n      swap1\n      pop\n      dup3\n      jump\t// out\n    tag_46:\n      mload(0x40)\n      dup1\n      0x40\n      add\n      0x40\n      mstore\n      dup1\n      0x00\n      dup2\n      mstore\n      0x20\n      add\n      and(0xffffffffffffffffffffffffffffffffffffffff, 0x00)\n      dup2\n      mstore\n      pop\n      swap1\n      jump\t// out\n        /* \"#utility.yul\":7:146   */\n    tag_72:\n        /* \"#utility.yul\":53:58   */\n      0x00\n        /* \"#utility.yul\":91:97   */\n      dup2\n        /* \"#utility.yul\":78:98   */\n      calldataload\n        /* \"#utility.yul\":69:98   */\n      swap1\n      pop\n        /* \"#utility.yul\":107:140   */\n      tag_74\n        /* \"#utility.yul\":134:139   */\n      dup2\n        /* \"#utility.yul\":107:140   */\n      tag_75\n      jump\t// in\n    tag_74:\n        /* \"#utility.yul\":7:146   */\n      swap3\n      swap2\n      pop\n      pop\n      jump\t// out\n        /* \"#utility.yul\":152:291   */\n    tag_76:\n        /* \"#utility.yul\":198:203   */\n      0x00\n        /* \"#utility.yul\":236:242   */\n      dup2\n        /* \"#utility.yul\":223:243   */\n      calldataload\n        /* \"#utility.yul\":214:243   */\n      swap1\n      pop\n        /* \"#utility.yul\":252:285   */\n      tag_78\n        /* \"#utility.yul\":279:284   */\n      dup2\n        /* \"#utility.yul\":252:285   */\n      tag_79\n      jump\t// in\n    tag_78:\n        /* \"#utility.yul\":152:291   */\n      swap3\n      swap2\n      pop\n      pop\n      jump\t// out\n        /* \"#utility.yul\":297:626   */\n    tag_11:\n        /* \"#utility.yul\":356:362   */\n      0x00\n        /* \"#utility.yul\":405:407   */\n      0x20\n        /* \"#utility.yul\":393:402   */\n      dup3\n        /* \"#utility.yul\":384:391   */\n      dup5\n        /* \"#utility.yul\":380:403   */\n      sub\n        /* \"#utility.yul\":376:408   */\n      slt\n        /* \"#utility.yul\":373:492   */\n      iszero\n      tag_81\n      jumpi\n        /* \"#utility.yul\":411:490   */\n      tag_82\n      tag_83\n      jump\t// in\n    tag_82:\n        /* \"#utility.yul\":373:492   */\n    tag_81:\n        /* \"#utility.yul\":531:532   */\n      0x00\n        /* \"#utility.yul\":556:609   */\n      tag_84\n        /* \"#utility.yul\":601:608   */\n      dup5\n        /* \"#utility.yul\":592:598   */\n      dup3\n        /* \"#utility.yul\":581:590   */\n      dup6\n        /* \"#utility.yul\":577:599   */\n      add\n        /* \"#utility.yul\":556:609   */\n      tag_72\n      jump\t// in\n    tag_84:\n        /* \"#utility.yul\":546:609   */\n      swap2\n      pop\n        /* \"#utility.yul\":502:619   */\n      pop\n        /* \"#utility.yul\":297:626   */\n      swap3\n      swap2\n      pop\n      pop\n      jump\t// out\n        /* \"#utility.yul\":632:961   */\n    tag_23:\n        /* \"#utility.yul\":691:697   */\n      0x00\n        /* \"#utility.yul\":740:742   */\n      0x20\n        /* \"#utility.yul\":728:737   */\n      dup3\n        /* \"#utility.yul\":719:726   */\n      dup5\n        /* \"#utility.yul\":715:738   */\n      sub\n        /* \"#utility.yul\":711:743   */\n      slt\n        /* \"#utility.yul\":708:827   */\n      iszero\n      tag_86\n      jumpi\n        /* \"#utility.yul\":746:825   */\n      tag_87\n      tag_83\n      jump\t// in\n    tag_87:\n        /* \"#utility.yul\":708:827   */\n    tag_86:\n        /* \"#utility.yul\":866:867   */\n      0x00\n        /* \"#utility.yul\":891:944   */\n      tag_88\n        /* \"#utility.yul\":936:943   */\n      dup5\n        /* \"#utility.yul\":927:933   */\n      dup3\n        /* \"#utility.yul\":916:925   */\n      dup6\n        /* \"#utility.yul\":912:934   */\n      add\n        /* \"#utility.yul\":891:944   */\n      tag_76\n      jump\t// in\n    tag_88:\n        /* \"#utility.yul\":881:944   */\n      swap2\n      pop\n        /* \"#utility.yul\":837:954   */\n      pop\n        /* \"#utility.yul\":632:961   */\n      swap3\n      swap2\n      pop\n      pop\n      jump\t// out\n        /* \"#utility.yul\":967:1146   */\n    tag_89:\n        /* \"#utility.yul\":1036:1046   */\n      0x00\n        /* \"#utility.yul\":1057:1103   */\n      tag_91\n        /* \"#utility.yul\":1099:1102   */\n      dup4\n        /* \"#utility.yul\":1091:1097   */\n      dup4\n        /* \"#utility.yul\":1057:1103   */\n      tag_92\n      jump\t// in\n    tag_91:\n        /* \"#utility.yul\":1135:1139   */\n      0x20\n        /* \"#utility.yul\":1130:1133   */\n      dup4\n        /* \"#utility.yul\":1126:1140   */\n      add\n        /* \"#utility.yul\":1112:1140   */\n      swap1\n      pop\n        /* \"#utility.yul\":967:1146   */\n      swap3\n      swap2\n      pop\n      pop\n      jump\t// out\n        /* \"#utility.yul\":1152:1407   */\n    tag_93:\n        /* \"#utility.yul\":1259:1269   */\n      0x00\n        /* \"#utility.yul\":1280:1364   */\n      tag_95\n        /* \"#utility.yul\":1360:1363   */\n      dup4\n        /* \"#utility.yul\":1352:1358   */\n      dup4\n        /* \"#utility.yul\":1280:1364   */\n      tag_96\n      jump\t// in\n    tag_95:\n        /* \"#utility.yul\":1396:1400   */\n      0x40\n        /* \"#utility.yul\":1391:1394   */\n      dup4\n        /* \"#utility.yul\":1387:1401   */\n      add\n        /* \"#utility.yul\":1373:1401   */\n      swap1\n      pop\n        /* \"#utility.yul\":1152:1407   */\n      swap3\n      swap2\n      pop\n      pop\n      jump\t// out\n        /* \"#utility.yul\":1413:1592   */\n    tag_97:\n        /* \"#utility.yul\":1482:1492   */\n      0x00\n        /* \"#utility.yul\":1503:1549   */\n      tag_99\n        /* \"#utility.yul\":1545:1548   */\n      dup4\n        /* \"#utility.yul\":1537:1543   */\n      dup4\n        /* \"#utility.yul\":1503:1549   */\n      tag_100\n      jump\t// in\n    tag_99:\n        /* \"#utility.yul\":1581:1585   */\n      0x20\n        /* \"#utility.yul\":1576:1579   */\n      dup4\n        /* \"#utility.yul\":1572:1586   */\n      add\n        /* \"#utility.yul\":1558:1586   */\n      swap1\n      pop\n        /* \"#utility.yul\":1413:1592   */\n      swap3\n      swap2\n      pop\n      pop\n      jump\t// out\n        /* \"#utility.yul\":1598:1706   */\n    tag_92:\n        /* \"#utility.yul\":1675:1699   */\n      tag_102\n        /* \"#utility.yul\":1693:1698   */\n      dup2\n        /* \"#utility.yul\":1675:1699   */\n      tag_103\n      jump\t// in\n    tag_102:\n        /* \"#utility.yul\":1670:1673   */\n      dup3\n        /* \"#utility.yul\":1663:1700   */\n      mstore\n        /* \"#utility.yul\":1598:1706   */\n      pop\n      pop\n      jump\t// out\n        /* \"#utility.yul\":1712:1830   */\n    tag_104:\n        /* \"#utility.yul\":1799:1823   */\n      tag_106\n        /* \"#utility.yul\":1817:1822   */\n      dup2\n        /* \"#utility.yul\":1799:1823   */\n      tag_103\n      jump\t// in\n    tag_106:\n        /* \"#utility.yul\":1794:1797   */\n      dup3\n        /* \"#utility.yul\":1787:1824   */\n      mstore\n        /* \"#utility.yul\":1712:1830   */\n      pop\n      pop\n      jump\t// out\n        /* \"#utility.yul\":1866:2598   */\n    tag_107:\n        /* \"#utility.yul\":1985:1988   */\n      0x00\n        /* \"#utility.yul\":2014:2068   */\n      tag_109\n        /* \"#utility.yul\":2062:2067   */\n      dup3\n        /* \"#utility.yul\":2014:2068   */\n      tag_110\n      jump\t// in\n    tag_109:\n        /* \"#utility.yul\":2084:2170   */\n      tag_111\n        /* \"#utility.yul\":2163:2169   */\n      dup2\n        /* \"#utility.yul\":2158:2161   */\n      dup6\n        /* \"#utility.yul\":2084:2170   */\n      tag_112\n      jump\t// in\n    tag_111:\n        /* \"#utility.yul\":2077:2170   */\n      swap4\n      pop\n        /* \"#utility.yul\":2194:2250   */\n      tag_113\n        /* \"#utility.yul\":2244:2249   */\n      dup4\n        /* \"#utility.yul\":2194:2250   */\n      tag_114\n      jump\t// in\n    tag_113:\n        /* \"#utility.yul\":2273:2280   */\n      dup1\n        /* \"#utility.yul\":2304:2305   */\n      0x00\n        /* \"#utility.yul\":2289:2573   */\n    tag_115:\n        /* \"#utility.yul\":2314:2320   */\n      dup4\n        /* \"#utility.yul\":2311:2312   */\n      dup2\n        /* \"#utility.yul\":2308:2321   */\n      lt\n        /* \"#utility.yul\":2289:2573   */\n      iszero\n      tag_117\n      jumpi\n        /* \"#utility.yul\":2390:2396   */\n      dup2\n        /* \"#utility.yul\":2384:2397   */\n      mload\n        /* \"#utility.yul\":2417:2480   */\n      tag_118\n        /* \"#utility.yul\":2476:2479   */\n      dup9\n        /* \"#utility.yul\":2461:2474   */\n      dup3\n        /* \"#utility.yul\":2417:2480   */\n      tag_89\n      jump\t// in\n    tag_118:\n        /* \"#utility.yul\":2410:2480   */\n      swap8\n      pop\n        /* \"#utility.yul\":2503:2563   */\n      tag_119\n        /* \"#utility.yul\":2556:2562   */\n      dup4\n        /* \"#utility.yul\":2503:2563   */\n      tag_120\n      jump\t// in\n    tag_119:\n        /* \"#utility.yul\":2493:2563   */\n      swap3\n      pop\n        /* \"#utility.yul\":2349:2573   */\n      pop\n        /* \"#utility.yul\":2336:2337   */\n      0x01\n        /* \"#utility.yul\":2333:2334   */\n      dup2\n        /* \"#utility.yul\":2329:2338   */\n      add\n        /* \"#utility.yul\":2324:2338   */\n      swap1\n      pop\n        /* \"#utility.yul\":2289:2573   */\n      jump(tag_115)\n    tag_117:\n        /* \"#utility.yul\":2293:2307   */\n      pop\n        /* \"#utility.yul\":2589:2592   */\n      dup6\n        /* \"#utility.yul\":2582:2592   */\n      swap4\n      pop\n        /* \"#utility.yul\":1990:2598   */\n      pop\n      pop\n      pop\n        /* \"#utility.yul\":1866:2598   */\n      swap3\n      swap2\n      pop\n      pop\n      jump\t// out\n        /* \"#utility.yul\":2654:3538   */\n    tag_121:\n        /* \"#utility.yul\":2811:2814   */\n      0x00\n        /* \"#utility.yul\":2840:2913   */\n      tag_123\n        /* \"#utility.yul\":2907:2912   */\n      dup3\n        /* \"#utility.yul\":2840:2913   */\n      tag_124\n      jump\t// in\n    tag_123:\n        /* \"#utility.yul\":2929:3034   */\n      tag_125\n        /* \"#utility.yul\":3027:3033   */\n      dup2\n        /* \"#utility.yul\":3022:3025   */\n      dup6\n        /* \"#utility.yul\":2929:3034   */\n      tag_126\n      jump\t// in\n    tag_125:\n        /* \"#utility.yul\":2922:3034   */\n      swap4\n      pop\n        /* \"#utility.yul\":3058:3133   */\n      tag_127\n        /* \"#utility.yul\":3127:3132   */\n      dup4\n        /* \"#utility.yul\":3058:3133   */\n      tag_128\n      jump\t// in\n    tag_127:\n        /* \"#utility.yul\":3156:3163   */\n      dup1\n        /* \"#utility.yul\":3187:3188   */\n      0x00\n        /* \"#utility.yul\":3172:3513   */\n    tag_129:\n        /* \"#utility.yul\":3197:3203   */\n      dup4\n        /* \"#utility.yul\":3194:3195   */\n      dup2\n        /* \"#utility.yul\":3191:3204   */\n      lt\n        /* \"#utility.yul\":3172:3513   */\n      iszero\n      tag_131\n      jumpi\n        /* \"#utility.yul\":3273:3279   */\n      dup2\n        /* \"#utility.yul\":3267:3280   */\n      mload\n        /* \"#utility.yul\":3300:3401   */\n      tag_132\n        /* \"#utility.yul\":3397:3400   */\n      dup9\n        /* \"#utility.yul\":3382:3395   */\n      dup3\n        /* \"#utility.yul\":3300:3401   */\n      tag_93\n      jump\t// in\n    tag_132:\n        /* \"#utility.yul\":3293:3401   */\n      swap8\n      pop\n        /* \"#utility.yul\":3424:3503   */\n      tag_133\n        /* \"#utility.yul\":3496:3502   */\n      dup4\n        /* \"#utility.yul\":3424:3503   */\n      tag_134\n      jump\t// in\n    tag_133:\n        /* \"#utility.yul\":3414:3503   */\n      swap3\n      pop\n        /* \"#utility.yul\":3232:3513   */\n      pop\n        /* \"#utility.yul\":3219:3220   */\n      0x01\n        /* \"#utility.yul\":3216:3217   */\n      dup2\n        /* \"#utility.yul\":3212:3221   */\n      add\n        /* \"#utility.yul\":3207:3221   */\n      swap1\n      pop\n        /* \"#utility.yul\":3172:3513   */\n      jump(tag_129)\n    tag_131:\n        /* \"#utility.yul\":3176:3190   */\n      pop\n        /* \"#utility.yul\":3529:3532   */\n      dup6\n        /* \"#utility.yul\":3522:3532   */\n      swap4\n      pop\n        /* \"#utility.yul\":2816:3538   */\n      pop\n      pop\n      pop\n        /* \"#utility.yul\":2654:3538   */\n      swap3\n      swap2\n      pop\n      pop\n      jump\t// out\n        /* \"#utility.yul\":3574:4306   */\n    tag_135:\n        /* \"#utility.yul\":3693:3696   */\n      0x00\n        /* \"#utility.yul\":3722:3776   */\n      tag_137\n        /* \"#utility.yul\":3770:3775   */\n      dup3\n        /* \"#utility.yul\":3722:3776   */\n      tag_138\n      jump\t// in\n    tag_137:\n        /* \"#utility.yul\":3792:3878   */\n      tag_139\n        /* \"#utility.yul\":3871:3877   */\n      dup2\n        /* \"#utility.yul\":3866:3869   */\n      dup6\n        /* \"#utility.yul\":3792:3878   */\n      tag_140\n      jump\t// in\n    tag_139:\n        /* \"#utility.yul\":3785:3878   */\n      swap4\n      pop\n        /* \"#utility.yul\":3902:3958   */\n      tag_141\n        /* \"#utility.yul\":3952:3957   */\n      dup4\n        /* \"#utility.yul\":3902:3958   */\n      tag_142\n      jump\t// in\n    tag_141:\n        /* \"#utility.yul\":3981:3988   */\n      dup1\n        /* \"#utility.yul\":4012:4013   */\n      0x00\n        /* \"#utility.yul\":3997:4281   */\n    tag_143:\n        /* \"#utility.yul\":4022:4028   */\n      dup4\n        /* \"#utility.yul\":4019:4020   */\n      dup2\n        /* \"#utility.yul\":4016:4029   */\n      lt\n        /* \"#utility.yul\":3997:4281   */\n      iszero\n      tag_145\n      jumpi\n        /* \"#utility.yul\":4098:4104   */\n      dup2\n        /* \"#utility.yul\":4092:4105   */\n      mload\n        /* \"#utility.yul\":4125:4188   */\n      tag_146\n        /* \"#utility.yul\":4184:4187   */\n      dup9\n        /* \"#utility.yul\":4169:4182   */\n      dup3\n        /* \"#utility.yul\":4125:4188   */\n      tag_97\n      jump\t// in\n    tag_146:\n        /* \"#utility.yul\":4118:4188   */\n      swap8\n      pop\n        /* \"#utility.yul\":4211:4271   */\n      tag_147\n        /* \"#utility.yul\":4264:4270   */\n      dup4\n        /* \"#utility.yul\":4211:4271   */\n      tag_148\n      jump\t// in\n    tag_147:\n        /* \"#utility.yul\":4201:4271   */\n      swap3\n      pop\n        /* \"#utility.yul\":4057:4281   */\n      pop\n        /* \"#utility.yul\":4044:4045   */\n      0x01\n        /* \"#utility.yul\":4041:4042   */\n      dup2\n        /* \"#utility.yul\":4037:4046   */\n      add\n        /* \"#utility.yul\":4032:4046   */\n      swap1\n      pop\n        /* \"#utility.yul\":3997:4281   */\n      jump(tag_143)\n    tag_145:\n        /* \"#utility.yul\":4001:4015   */\n      pop\n        /* \"#utility.yul\":4297:4300   */\n      dup6\n        /* \"#utility.yul\":4290:4300   */\n      swap4\n      pop\n        /* \"#utility.yul\":3698:4306   */\n      pop\n      pop\n      pop\n        /* \"#utility.yul\":3574:4306   */\n      swap3\n      swap2\n      pop\n      pop\n      jump\t// out\n        /* \"#utility.yul\":4358:4853   */\n    tag_96:\n        /* \"#utility.yul\":4483:4487   */\n      0x40\n        /* \"#utility.yul\":4478:4481   */\n      dup3\n        /* \"#utility.yul\":4474:4488   */\n      add\n        /* \"#utility.yul\":4572:4576   */\n      0x00\n        /* \"#utility.yul\":4565:4570   */\n      dup3\n        /* \"#utility.yul\":4561:4577   */\n      add\n        /* \"#utility.yul\":4555:4578   */\n      mload\n        /* \"#utility.yul\":4591:4654   */\n      tag_150\n        /* \"#utility.yul\":4648:4652   */\n      0x00\n        /* \"#utility.yul\":4643:4646   */\n      dup6\n        /* \"#utility.yul\":4639:4653   */\n      add\n        /* \"#utility.yul\":4625:4637   */\n      dup3\n        /* \"#utility.yul\":4591:4654   */\n      tag_100\n      jump\t// in\n    tag_150:\n        /* \"#utility.yul\":4498:4664   */\n      pop\n        /* \"#utility.yul\":4754:4758   */\n      0x20\n        /* \"#utility.yul\":4747:4752   */\n      dup3\n        /* \"#utility.yul\":4743:4759   */\n      add\n        /* \"#utility.yul\":4737:4760   */\n      mload\n        /* \"#utility.yul\":4773:4836   */\n      tag_151\n        /* \"#utility.yul\":4830:4834   */\n      0x20\n        /* \"#utility.yul\":4825:4828   */\n      dup6\n        /* \"#utility.yul\":4821:4835   */\n      add\n        /* \"#utility.yul\":4807:4819   */\n      dup3\n        /* \"#utility.yul\":4773:4836   */\n      tag_92\n      jump\t// in\n    tag_151:\n        /* \"#utility.yul\":4674:4846   */\n      pop\n        /* \"#utility.yul\":4452:4853   */\n      pop\n        /* \"#utility.yul\":4358:4853   */\n      pop\n      pop\n      jump\t// out\n        /* \"#utility.yul\":4905:5410   */\n    tag_152:\n        /* \"#utility.yul\":5040:5044   */\n      0x40\n        /* \"#utility.yul\":5035:5038   */\n      dup3\n        /* \"#utility.yul\":5031:5045   */\n      add\n        /* \"#utility.yul\":5129:5133   */\n      0x00\n        /* \"#utility.yul\":5122:5127   */\n      dup3\n        /* \"#utility.yul\":5118:5134   */\n      add\n        /* \"#utility.yul\":5112:5135   */\n      mload\n        /* \"#utility.yul\":5148:5211   */\n      tag_154\n        /* \"#utility.yul\":5205:5209   */\n      0x00\n        /* \"#utility.yul\":5200:5203   */\n      dup6\n        /* \"#utility.yul\":5196:5210   */\n      add\n        /* \"#utility.yul\":5182:5194   */\n      dup3\n        /* \"#utility.yul\":5148:5211   */\n      tag_100\n      jump\t// in\n    tag_154:\n        /* \"#utility.yul\":5055:5221   */\n      pop\n        /* \"#utility.yul\":5311:5315   */\n      0x20\n        /* \"#utility.yul\":5304:5309   */\n      dup3\n        /* \"#utility.yul\":5300:5316   */\n      add\n        /* \"#utility.yul\":5294:5317   */\n      mload\n        /* \"#utility.yul\":5330:5393   */\n      tag_155\n        /* \"#utility.yul\":5387:5391   */\n      0x20\n        /* \"#utility.yul\":5382:5385   */\n      dup6\n        /* \"#utility.yul\":5378:5392   */\n      add\n        /* \"#utility.yul\":5364:5376   */\n      dup3\n        /* \"#utility.yul\":5330:5393   */\n      tag_92\n      jump\t// in\n    tag_155:\n        /* \"#utility.yul\":5231:5403   */\n      pop\n        /* \"#utility.yul\":5009:5410   */\n      pop\n        /* \"#utility.yul\":4905:5410   */\n      pop\n      pop\n      jump\t// out\n        /* \"#utility.yul\":5416:5524   */\n    tag_100:\n        /* \"#utility.yul\":5493:5517   */\n      tag_157\n        /* \"#utility.yul\":5511:5516   */\n      dup2\n        /* \"#utility.yul\":5493:5517   */\n      tag_158\n      jump\t// in\n    tag_157:\n        /* \"#utility.yul\":5488:5491   */\n      dup3\n        /* \"#utility.yul\":5481:5518   */\n      mstore\n        /* \"#utility.yul\":5416:5524   */\n      pop\n      pop\n      jump\t// out\n        /* \"#utility.yul\":5530:5648   */\n    tag_159:\n        /* \"#utility.yul\":5617:5641   */\n      tag_161\n        /* \"#utility.yul\":5635:5640   */\n      dup2\n        /* \"#utility.yul\":5617:5641   */\n      tag_158\n      jump\t// in\n    tag_161:\n        /* \"#utility.yul\":5612:5615   */\n      dup3\n        /* \"#utility.yul\":5605:5642   */\n      mstore\n        /* \"#utility.yul\":5530:5648   */\n      pop\n      pop\n      jump\t// out\n        /* \"#utility.yul\":5654:6103   */\n    tag_16:\n        /* \"#utility.yul\":5835:5839   */\n      0x00\n        /* \"#utility.yul\":5873:5875   */\n      0x20\n        /* \"#utility.yul\":5862:5871   */\n      dup3\n        /* \"#utility.yul\":5858:5876   */\n      add\n        /* \"#utility.yul\":5850:5876   */\n      swap1\n      pop\n        /* \"#utility.yul\":5922:5931   */\n      dup2\n        /* \"#utility.yul\":5916:5920   */\n      dup2\n        /* \"#utility.yul\":5912:5932   */\n      sub\n        /* \"#utility.yul\":5908:5909   */\n      0x00\n        /* \"#utility.yul\":5897:5906   */\n      dup4\n        /* \"#utility.yul\":5893:5910   */\n      add\n        /* \"#utility.yul\":5886:5933   */\n      mstore\n        /* \"#utility.yul\":5950:6096   */\n      tag_163\n        /* \"#utility.yul\":6091:6095   */\n      dup2\n        /* \"#utility.yul\":6082:6088   */\n      dup5\n        /* \"#utility.yul\":5950:6096   */\n      tag_121\n      jump\t// in\n    tag_163:\n        /* \"#utility.yul\":5942:6096   */\n      swap1\n      pop\n        /* \"#utility.yul\":5654:6103   */\n      swap3\n      swap2\n      pop\n      pop\n      jump\t// out\n        /* \"#utility.yul\":6109:6743   */\n    tag_30:\n        /* \"#utility.yul\":6330:6334   */\n      0x00\n        /* \"#utility.yul\":6368:6370   */\n      0x40\n        /* \"#utility.yul\":6357:6366   */\n      dup3\n        /* \"#utility.yul\":6353:6371   */\n      add\n        /* \"#utility.yul\":6345:6371   */\n      swap1\n      pop\n        /* \"#utility.yul\":6417:6426   */\n      dup2\n        /* \"#utility.yul\":6411:6415   */\n      dup2\n        /* \"#utility.yul\":6407:6427   */\n      sub\n        /* \"#utility.yul\":6403:6404   */\n      0x00\n        /* \"#utility.yul\":6392:6401   */\n      dup4\n        /* \"#utility.yul\":6388:6405   */\n      add\n        /* \"#utility.yul\":6381:6428   */\n      mstore\n        /* \"#utility.yul\":6445:6553   */\n      tag_165\n        /* \"#utility.yul\":6548:6552   */\n      dup2\n        /* \"#utility.yul\":6539:6545   */\n      dup6\n        /* \"#utility.yul\":6445:6553   */\n      tag_135\n      jump\t// in\n    tag_165:\n        /* \"#utility.yul\":6437:6553   */\n      swap1\n      pop\n        /* \"#utility.yul\":6600:6609   */\n      dup2\n        /* \"#utility.yul\":6594:6598   */\n      dup2\n        /* \"#utility.yul\":6590:6610   */\n      sub\n        /* \"#utility.yul\":6585:6587   */\n      0x20\n        /* \"#utility.yul\":6574:6583   */\n      dup4\n        /* \"#utility.yul\":6570:6588   */\n      add\n        /* \"#utility.yul\":6563:6611   */\n      mstore\n        /* \"#utility.yul\":6628:6736   */\n      tag_166\n        /* \"#utility.yul\":6731:6735   */\n      dup2\n        /* \"#utility.yul\":6722:6728   */\n      dup5\n        /* \"#utility.yul\":6628:6736   */\n      tag_107\n      jump\t// in\n    tag_166:\n        /* \"#utility.yul\":6620:6736   */\n      swap1\n      pop\n        /* \"#utility.yul\":6109:6743   */\n      swap4\n      swap3\n      pop\n      pop\n      pop\n      jump\t// out\n        /* \"#utility.yul\":6749:7047   */\n    tag_26:\n        /* \"#utility.yul\":6880:6884   */\n      0x00\n        /* \"#utility.yul\":6918:6920   */\n      0x40\n        /* \"#utility.yul\":6907:6916   */\n      dup3\n        /* \"#utility.yul\":6903:6921   */\n      add\n        /* \"#utility.yul\":6895:6921   */\n      swap1\n      pop\n        /* \"#utility.yul\":6931:7040   */\n      tag_168\n        /* \"#utility.yul\":7037:7038   */\n      0x00\n        /* \"#utility.yul\":7026:7035   */\n      dup4\n        /* \"#utility.yul\":7022:7039   */\n      add\n        /* \"#utility.yul\":7013:7019   */\n      dup5\n        /* \"#utility.yul\":6931:7040   */\n      tag_152\n      jump\t// in\n    tag_168:\n        /* \"#utility.yul\":6749:7047   */\n      swap3\n      swap2\n      pop\n      pop\n      jump\t// out\n        /* \"#utility.yul\":7053:7275   */\n    tag_20:\n        /* \"#utility.yul\":7146:7150   */\n      0x00\n        /* \"#utility.yul\":7184:7186   */\n      0x20\n        /* \"#utility.yul\":7173:7182   */\n      dup3\n        /* \"#utility.yul\":7169:7187   */\n      add\n        /* \"#utility.yul\":7161:7187   */\n      swap1\n      pop\n        /* \"#utility.yul\":7197:7268   */\n      tag_170\n        /* \"#utility.yul\":7265:7266   */\n      0x00\n        /* \"#utility.yul\":7254:7263   */\n      dup4\n        /* \"#utility.yul\":7250:7267   */\n      add\n        /* \"#utility.yul\":7241:7247   */\n      dup5\n        /* \"#utility.yul\":7197:7268   */\n      tag_159\n      jump\t// in\n    tag_170:\n        /* \"#utility.yul\":7053:7275   */\n      swap3\n      swap2\n      pop\n      pop\n      jump\t// out\n        /* \"#utility.yul\":7281:7613   */\n    tag_35:\n        /* \"#utility.yul\":7402:7406   */\n      0x00\n        /* \"#utility.yul\":7440:7442   */\n      0x40\n        /* \"#utility.yul\":7429:7438   */\n      dup3\n        /* \"#utility.yul\":7425:7443   */\n      add\n        /* \"#utility.yul\":7417:7443   */\n      swap1\n      pop\n        /* \"#utility.yul\":7453:7524   */\n      tag_172\n        /* \"#utility.yul\":7521:7522   */\n      0x00\n        /* \"#utility.yul\":7510:7519   */\n      dup4\n        /* \"#utility.yul\":7506:7523   */\n      add\n        /* \"#utility.yul\":7497:7503   */\n      dup6\n        /* \"#utility.yul\":7453:7524   */\n      tag_159\n      jump\t// in\n    tag_172:\n        /* \"#utility.yul\":7534:7606   */\n      tag_173\n        /* \"#utility.yul\":7602:7604   */\n      0x20\n        /* \"#utility.yul\":7591:7600   */\n      dup4\n        /* \"#utility.yul\":7587:7605   */\n      add\n        /* \"#utility.yul\":7578:7584   */\n      dup5\n        /* \"#utility.yul\":7534:7606   */\n      tag_104\n      jump\t// in\n    tag_173:\n        /* \"#utility.yul\":7281:7613   */\n      swap4\n      swap3\n      pop\n      pop\n      pop\n      jump\t// out\n        /* \"#utility.yul\":7700:7832   */\n    tag_114:\n        /* \"#utility.yul\":7767:7771   */\n      0x00\n        /* \"#utility.yul\":7790:7793   */\n      dup2\n        /* \"#utility.yul\":7782:7793   */\n      swap1\n      pop\n        /* \"#utility.yul\":7820:7824   */\n      0x20\n        /* \"#utility.yul\":7815:7818   */\n      dup3\n        /* \"#utility.yul\":7811:7825   */\n      add\n        /* \"#utility.yul\":7803:7825   */\n      swap1\n      pop\n        /* \"#utility.yul\":7700:7832   */\n      swap2\n      swap1\n      pop\n      jump\t// out\n        /* \"#utility.yul\":7838:7989   */\n    tag_128:\n        /* \"#utility.yul\":7924:7928   */\n      0x00\n        /* \"#utility.yul\":7947:7950   */\n      dup2\n        /* \"#utility.yul\":7939:7950   */\n      swap1\n      pop\n        /* \"#utility.yul\":7977:7981   */\n      0x20\n        /* \"#utility.yul\":7972:7975   */\n      dup3\n        /* \"#utility.yul\":7968:7982   */\n      add\n        /* \"#utility.yul\":7960:7982   */\n      swap1\n      pop\n        /* \"#utility.yul\":7838:7989   */\n      swap2\n      swap1\n      pop\n      jump\t// out\n        /* \"#utility.yul\":7995:8127   */\n    tag_142:\n        /* \"#utility.yul\":8062:8066   */\n      0x00\n        /* \"#utility.yul\":8085:8088   */\n      dup2\n        /* \"#utility.yul\":8077:8088   */\n      swap1\n      pop\n        /* \"#utility.yul\":8115:8119   */\n      0x20\n        /* \"#utility.yul\":8110:8113   */\n      dup3\n        /* \"#utility.yul\":8106:8120   */\n      add\n        /* \"#utility.yul\":8098:8120   */\n      swap1\n      pop\n        /* \"#utility.yul\":7995:8127   */\n      swap2\n      swap1\n      pop\n      jump\t// out\n        /* \"#utility.yul\":8133:8247   */\n    tag_110:\n        /* \"#utility.yul\":8200:8206   */\n      0x00\n        /* \"#utility.yul\":8234:8239   */\n      dup2\n        /* \"#utility.yul\":8228:8240   */\n      mload\n        /* \"#utility.yul\":8218:8240   */\n      swap1\n      pop\n        /* \"#utility.yul\":8133:8247   */\n      swap2\n      swap1\n      pop\n      jump\t// out\n        /* \"#utility.yul\":8253:8386   */\n    tag_124:\n        /* \"#utility.yul\":8339:8345   */\n      0x00\n        /* \"#utility.yul\":8373:8378   */\n      dup2\n        /* \"#utility.yul\":8367:8379   */\n      mload\n        /* \"#utility.yul\":8357:8379   */\n      swap1\n      pop\n        /* \"#utility.yul\":8253:8386   */\n      swap2\n      swap1\n      pop\n      jump\t// out\n        /* \"#utility.yul\":8392:8506   */\n    tag_138:\n        /* \"#utility.yul\":8459:8465   */\n      0x00\n        /* \"#utility.yul\":8493:8498   */\n      dup2\n        /* \"#utility.yul\":8487:8499   */\n      mload\n        /* \"#utility.yul\":8477:8499   */\n      swap1\n      pop\n        /* \"#utility.yul\":8392:8506   */\n      swap2\n      swap1\n      pop\n      jump\t// out\n        /* \"#utility.yul\":8512:8625   */\n    tag_120:\n        /* \"#utility.yul\":8582:8586   */\n      0x00\n        /* \"#utility.yul\":8614:8618   */\n      0x20\n        /* \"#utility.yul\":8609:8612   */\n      dup3\n        /* \"#utility.yul\":8605:8619   */\n      add\n        /* \"#utility.yul\":8597:8619   */\n      swap1\n      pop\n        /* \"#utility.yul\":8512:8625   */\n      swap2\n      swap1\n      pop\n      jump\t// out\n        /* \"#utility.yul\":8631:8763   */\n    tag_134:\n        /* \"#utility.yul\":8720:8724   */\n      0x00\n        /* \"#utility.yul\":8752:8756   */\n      0x20\n        /* \"#utility.yul\":8747:8750   */\n      dup3\n        /* \"#utility.yul\":8743:8757   */\n      add\n        /* \"#utility.yul\":8735:8757   */\n      swap1\n      pop\n        /* \"#utility.yul\":8631:8763   */\n      swap2\n      swap1\n      pop\n      jump\t// out\n        /* \"#utility.yul\":8769:8882   */\n    tag_148:\n        /* \"#utility.yul\":8839:8843   */\n      0x00\n        /* \"#utility.yul\":8871:8875   */\n      0x20\n        /* \"#utility.yul\":8866:8869   */\n      dup3\n        /* \"#utility.yul\":8862:8876   */\n      add\n        /* \"#utility.yul\":8854:8876   */\n      swap1\n      pop\n        /* \"#utility.yul\":8769:8882   */\n      swap2\n      swap1\n      pop\n      jump\t// out\n        /* \"#utility.yul\":8888:9072   */\n    tag_112:\n        /* \"#utility.yul\":8987:8998   */\n      0x00\n        /* \"#utility.yul\":9021:9027   */\n      dup3\n        /* \"#utility.yul\":9016:9019   */\n      dup3\n        /* \"#utility.yul\":9009:9028   */\n      mstore\n        /* \"#utility.yul\":9061:9065   */\n      0x20\n        /* \"#utility.yul\":9056:9059   */\n      dup3\n        /* \"#utility.yul\":9052:9066   */\n      add\n        /* \"#utility.yul\":9037:9066   */\n      swap1\n      pop\n        /* \"#utility.yul\":8888:9072   */\n      swap3\n      swap2\n      pop\n      pop\n      jump\t// out\n        /* \"#utility.yul\":9078:9281   */\n    tag_126:\n        /* \"#utility.yul\":9196:9207   */\n      0x00\n        /* \"#utility.yul\":9230:9236   */\n      dup3\n        /* \"#utility.yul\":9225:9228   */\n      dup3\n        /* \"#utility.yul\":9218:9237   */\n      mstore\n        /* \"#utility.yul\":9270:9274   */\n      0x20\n        /* \"#utility.yul\":9265:9268   */\n      dup3\n        /* \"#utility.yul\":9261:9275   */\n      add\n        /* \"#utility.yul\":9246:9275   */\n      swap1\n      pop\n        /* \"#utility.yul\":9078:9281   */\n      swap3\n      swap2\n      pop\n      pop\n      jump\t// out\n        /* \"#utility.yul\":9287:9471   */\n    tag_140:\n        /* \"#utility.yul\":9386:9397   */\n      0x00\n        /* \"#utility.yul\":9420:9426   */\n      dup3\n        /* \"#utility.yul\":9415:9418   */\n      dup3\n        /* \"#utility.yul\":9408:9427   */\n      mstore\n        /* \"#utility.yul\":9460:9464   */\n      0x20\n        /* \"#utility.yul\":9455:9458   */\n      dup3\n        /* \"#utility.yul\":9451:9465   */\n      add\n        /* \"#utility.yul\":9436:9465   */\n      swap1\n      pop\n        /* \"#utility.yul\":9287:9471   */\n      swap3\n      swap2\n      pop\n      pop\n      jump\t// out\n        /* \"#utility.yul\":9477:9573   */\n    tag_103:\n        /* \"#utility.yul\":9514:9521   */\n      0x00\n        /* \"#utility.yul\":9543:9567   */\n      tag_189\n        /* \"#utility.yul\":9561:9566   */\n      dup3\n        /* \"#utility.yul\":9543:9567   */\n      tag_190\n      jump\t// in\n    tag_189:\n        /* \"#utility.yul\":9532:9567   */\n      swap1\n      pop\n        /* \"#utility.yul\":9477:9573   */\n      swap2\n      swap1\n      pop\n      jump\t// out\n        /* \"#utility.yul\":9579:9705   */\n    tag_190:\n        /* \"#utility.yul\":9616:9623   */\n      0x00\n        /* \"#utility.yul\":9656:9698   */\n      0xffffffffffffffffffffffffffffffffffffffff\n        /* \"#utility.yul\":9649:9654   */\n      dup3\n        /* \"#utility.yul\":9645:9699   */\n      and\n        /* \"#utility.yul\":9634:9699   */\n      swap1\n      pop\n        /* \"#utility.yul\":9579:9705   */\n      swap2\n      swap1\n      pop\n      jump\t// out\n        /* \"#utility.yul\":9711:9788   */\n    tag_158:\n        /* \"#utility.yul\":9748:9755   */\n      0x00\n        /* \"#utility.yul\":9777:9782   */\n      dup2\n        /* \"#utility.yul\":9766:9782   */\n      swap1\n      pop\n        /* \"#utility.yul\":9711:9788   */\n      swap2\n      swap1\n      pop\n      jump\t// out\n        /* \"#utility.yul\":9794:10027   */\n    tag_38:\n        /* \"#utility.yul\":9833:9836   */\n      0x00\n        /* \"#utility.yul\":9856:9880   */\n      tag_194\n        /* \"#utility.yul\":9874:9879   */\n      dup3\n        /* \"#utility.yul\":9856:9880   */\n      tag_158\n      jump\t// in\n    tag_194:\n        /* \"#utility.yul\":9847:9880   */\n      swap2\n      pop\n        /* \"#utility.yul\":9902:9968   */\n      0xffffffffffffffffffffffffffffffffffffffffffffffffffffffffffffffff\n        /* \"#utility.yul\":9895:9900   */\n      dup3\n        /* \"#utility.yul\":9892:9969   */\n      eq\n        /* \"#utility.yul\":9889:9992   */\n      iszero\n      tag_195\n      jumpi\n        /* \"#utility.yul\":9972:9990   */\n      tag_196\n      tag_197\n      jump\t// in\n    tag_196:\n        /* \"#utility.yul\":9889:9992   */\n    tag_195:\n        /* \"#utility.yul\":10019:10020   */\n      0x01\n        /* \"#utility.yul\":10012:10017   */\n      dup3\n        /* \"#utility.yul\":10008:10021   */\n      add\n        /* \"#utility.yul\":10001:10021   */\n      swap1\n      pop\n        /* \"#utility.yul\":9794:10027   */\n      swap2\n      swap1\n      pop\n      jump\t// out\n        /* \"#utility.yul\":10033:10213   */\n    tag_197:\n        /* \"#utility.yul\":10081:10158   */\n      0x4e487b7100000000000000000000000000000000000000000000000000000000\n        /* \"#utility.yul\":10078:10079   */\n      0x00\n        /* \"#utility.yul\":10071:10159   */\n      mstore\n        /* \"#utility.yul\":10178:10182   */\n      0x11\n        /* \"#utility.yul\":10175:10176   */\n      0x04\n        /* \"#utility.yul\":10168:10183   */\n      mstore\n        /* \"#utility.yul\":10202:10206   */\n      0x24\n        /* \"#utility.yul\":10199:10200   */\n      0x00\n        /* \"#utility.yul\":10192:10207   */\n      revert\n        /* \"#utility.yul\":10219:10399   */\n    tag_52:\n        /* \"#utility.yul\":10267:10344   */\n      0x4e487b7100000000000000000000000000000000000000000000000000000000\n        /* \"#utility.yul\":10264:10265   */\n      0x00\n        /* \"#utility.yul\":10257:10345   */\n      mstore\n        /* \"#utility.yul\":10364:10368   */\n      0x32\n        /* \"#utility.yul\":10361:10362   */\n      0x04\n        /* \"#utility.yul\":10354:10369   */\n      mstore\n        /* \"#utility.yul\":10388:10392   */\n      0x24\n        /* \"#utility.yul\":10385:10386   */\n      0x00\n        /* \"#utility.yul\":10378:10393   */\n      revert\n        /* \"#utility.yul\":10405:10585   */\n    tag_42:\n        /* \"#utility.yul\":10453:10530   */\n      0x4e487b7100000000000000000000000000000000000000000000000000000000\n        /* \"#utility.yul\":10450:10451   */\n      0x00\n        /* \"#utility.yul\":10443:10531   */\n      mstore\n        /* \"#utility.yul\":10550:10554   */\n      0x41\n        /* \"#utility.yul\":10547:10548   */\n      0x04\n        /* \"#utility.yul\":10540:10555   */\n      mstore\n        /* \"#utility.yul\":10574:10578   */\n      0x24\n        /* \"#utility.yul\":10571:10572   */\n      0x00\n        /* \"#utility.yul\":10564:10579   */\n      revert\n        /* \"#utility.yul\":10714:10831   */\n    tag_83:\n        /* \"#utility.yul\":10823:10824   */\n      0x00\n        /* \"#utility.yul\":10820:10821   */\n      dup1\n        /* \"#utility.yul\":10813:10825   */\n      revert\n        /* \"#utility.yul\":10837:10959   */\n    tag_75:\n        /* \"#utility.yul\":10910:10934   */\n      tag_205\n        /* \"#utility.yul\":10928:10933   */\n      dup2\n        /* \"#utility.yul\":10910:10934   */\n      tag_103\n      jump\t// in\n    tag_205:\n        /* \"#utility.yul\":10903:10908   */\n      dup2\n        /* \"#utility.yul\":10900:10935   */\n      eq\n        /* \"#utility.yul\":10890:10953   */\n      tag_206\n      jumpi\n        /* \"#utility.yul\":10949:10950   */\n      0x00\n        /* \"#utility.yul\":10946:10947   */\n      dup1\n        /* \"#utility.yul\":10939:10951   */\n      revert\n        /* \"#utility.yul\":10890:10953   */\n    tag_206:\n        /* \"#utility.yul\":10837:10959   */\n      pop\n      jump\t// out\n        /* \"#utility.yul\":10965:11087   */\n    tag_79:\n        /* \"#utility.yul\":11038:11062   */\n      tag_208\n        /* \"#utility.yul\":11056:11061   */\n      dup2\n        /* \"#utility.yul\":11038:11062   */\n      tag_158\n      jump\t// in\n    tag_208:\n        /* \"#utility.yul\":11031:11036   */\n      dup2\n        /* \"#utility.yul\":11028:11063   */\n      eq\n        /* \"#utility.yul\":11018:11081   */\n      tag_209\n      jumpi\n        /* \"#utility.yul\":11077:11078   */\n      0x00\n        /* \"#utility.yul\":11074:11075   */\n      dup1\n        /* \"#utility.yul\":11067:11079   */\n      revert\n        /* \"#utility.yul\":11018:11081   */\n    tag_209:\n        /* \"#utility.yul\":10965:11087   */\n      pop\n      jump\t// out\n\n    auxdata: 0xa2646970667358221220d407782b7051e39ab0a121855403a799790f4213121cde61b59feb20fd6f572d64736f6c63430008070033\n}\n",
				"bytecode": {
					"linkReferences": {},
					"object": "608060405234801561001057600080fd5b506000600181905550610af3806100286000396000f3fe608060405234801561001057600080fd5b50600436106100625760003560e01c8063193de85d146100675780635fb07a621461008357806392812e6f146100a15780639507d39a146100bf578063f2a50281146100ef578063fca5e61e1461010e575b600080fd5b610081600480360381019061007c91906105bf565b61013f565b005b61008b6101ef565b6040516100989190610815565b60405180910390f35b6100a9610314565b6040516100b69190610889565b60405180910390f35b6100d960048036038101906100d491906105ec565b61031a565b6040516100e6919061086e565b60405180910390f35b6100f76103a6565b604051610105929190610837565b60405180910390f35b610128600480360381019061012391906105ec565b610521565b6040516101369291906108a4565b60405180910390f35b604051806040016040528060015481526020018273ffffffffffffffffffffffffffffffffffffffff1681525060008060015481526020019081526020016000206000820151816000015560208201518160010160006101000a81548173ffffffffffffffffffffffffffffffffffffffff021916908373ffffffffffffffffffffffffffffffffffffffff160217905550905050600160008154809291906101e7906109b4565b919050555050565b6060600060015467ffffffffffffffff81111561020f5761020e610a5b565b5b60405190808252806020026020018201604052801561024857816020015b610235610565565b81526020019060019003908161022d5790505b50905060005b60015481101561030c576000806000838152602001908152602001600020905080604051806040016040529081600082015481526020016001820160009054906101000a900473ffffffffffffffffffffffffffffffffffffffff1673ffffffffffffffffffffffffffffffffffffffff1673ffffffffffffffffffffffffffffffffffffffff16815250508383815181106102ed576102ec610a2c565b5b6020026020010181905250508080610304906109b4565b91505061024e565b508091505090565b60015481565b610322610565565b600080838152602001908152602001600020604051806040016040529081600082015481526020016001820160009054906101000a900473ffffffffffffffffffffffffffffffffffffffff1673ffffffffffffffffffffffffffffffffffffffff1673ffffffffffffffffffffffffffffffffffffffff16815250509050919050565b606080600060015467ffffffffffffffff8111156103c7576103c6610a5b565b5b6040519080825280602002602001820160405280156103f55781602001602082028036833780820191505090505b509050600060015467ffffffffffffffff81111561041657610415610a5b565b5b6040519080825280602002602001820160405280156104445781602001602082028036833780820191505090505b50905060005b6001548110156105145760008060008381526020019081526020016000209050806000015484838151811061048257610481610a2c565b5b6020026020010181815250508060010160009054906101000a900473ffffffffffffffffffffffffffffffffffffffff168383815181106104c6576104c5610a2c565b5b602002602001019073ffffffffffffffffffffffffffffffffffffffff16908173ffffffffffffffffffffffffffffffffffffffff168152505050808061050c906109b4565b91505061044a565b5081819350935050509091565b60006020528060005260406000206000915090508060000154908060010160009054906101000a900473ffffffffffffffffffffffffffffffffffffffff16905082565b604051806040016040528060008152602001600073ffffffffffffffffffffffffffffffffffffffff1681525090565b6000813590506105a481610a8f565b92915050565b6000813590506105b981610aa6565b92915050565b6000602082840312156105d5576105d4610a8a565b5b60006105e384828501610595565b91505092915050565b60006020828403121561060257610601610a8a565b5b6000610610848285016105aa565b91505092915050565b60006106258383610661565b60208301905092915050565b600061063d8383610799565b60408301905092915050565b600061065583836107f7565b60208301905092915050565b61066a81610978565b82525050565b61067981610978565b82525050565b600061068a826108fd565b6106948185610945565b935061069f836108cd565b8060005b838110156106d05781516106b78882610619565b97506106c28361091e565b9250506001810190506106a3565b5085935050505092915050565b60006106e882610908565b6106f28185610956565b93506106fd836108dd565b8060005b8381101561072e5781516107158882610631565b97506107208361092b565b925050600181019050610701565b5085935050505092915050565b600061074682610913565b6107508185610967565b935061075b836108ed565b8060005b8381101561078c5781516107738882610649565b975061077e83610938565b92505060018101905061075f565b5085935050505092915050565b6040820160008201516107af60008501826107f7565b5060208201516107c26020850182610661565b50505050565b6040820160008201516107de60008501826107f7565b5060208201516107f16020850182610661565b50505050565b610800816109aa565b82525050565b61080f816109aa565b82525050565b6000602082019050818103600083015261082f81846106dd565b905092915050565b60006040820190508181036000830152610851818561073b565b90508181036020830152610865818461067f565b90509392505050565b600060408201905061088360008301846107c8565b92915050565b600060208201905061089e6000830184610806565b92915050565b60006040820190506108b96000830185610806565b6108c66020830184610670565b9392505050565b6000819050602082019050919050565b6000819050602082019050919050565b6000819050602082019050919050565b600081519050919050565b600081519050919050565b600081519050919050565b6000602082019050919050565b6000602082019050919050565b6000602082019050919050565b600082825260208201905092915050565b600082825260208201905092915050565b600082825260208201905092915050565b60006109838261098a565b9050919050565b600073ffffffffffffffffffffffffffffffffffffffff82169050919050565b6000819050919050565b60006109bf826109aa565b91507fffffffffffffffffffffffffffffffffffffffffffffffffffffffffffffffff8214156109f2576109f16109fd565b5b600182019050919050565b7f4e487b7100000000000000000000000000000000000000000000000000000000600052601160045260246000fd5b7f4e487b7100000000000000000000000000000000000000000000000000000000600052603260045260246000fd5b7f4e487b7100000000000000000000000000000000000000000000000000000000600052604160045260246000fd5b600080fd5b610a9881610978565b8114610aa357600080fd5b50565b610aaf816109aa565b8114610aba57600080fd5b5056fea2646970667358221220d407782b7051e39ab0a121855403a799790f4213121cde61b59feb20fd6f572d64736f6c63430008070033",
					"opcodes": "PUSH1 0x80 PUSH1 0x40 MSTORE CALLVALUE DUP1 ISZERO PUSH2 0x10 JUMPI PUSH1 0x0 DUP1 REVERT JUMPDEST POP PUSH1 0x0 PUSH1 0x1 DUP2 SWAP1 SSTORE POP PUSH2 0xAF3 DUP1 PUSH2 0x28 PUSH1 0x0 CODECOPY PUSH1 0x0 RETURN INVALID PUSH1 0x80 PUSH1 0x40 MSTORE CALLVALUE DUP1 ISZERO PUSH2 0x10 JUMPI PUSH1 0x0 DUP1 REVERT JUMPDEST POP PUSH1 0x4 CALLDATASIZE LT PUSH2 0x62 JUMPI PUSH1 0x0 CALLDATALOAD PUSH1 0xE0 SHR DUP1 PUSH4 0x193DE85D EQ PUSH2 0x67 JUMPI DUP1 PUSH4 0x5FB07A62 EQ PUSH2 0x83 JUMPI DUP1 PUSH4 0x92812E6F EQ PUSH2 0xA1 JUMPI DUP1 PUSH4 0x9507D39A EQ PUSH2 0xBF JUMPI DUP1 PUSH4 0xF2A50281 EQ PUSH2 0xEF JUMPI DUP1 PUSH4 0xFCA5E61E EQ PUSH2 0x10E JUMPI JUMPDEST PUSH1 0x0 DUP1 REVERT JUMPDEST PUSH2 0x81 PUSH1 0x4 DUP1 CALLDATASIZE SUB DUP2 ADD SWAP1 PUSH2 0x7C SWAP2 SWAP1 PUSH2 0x5BF JUMP JUMPDEST PUSH2 0x13F JUMP JUMPDEST STOP JUMPDEST PUSH2 0x8B PUSH2 0x1EF JUMP JUMPDEST PUSH1 0x40 MLOAD PUSH2 0x98 SWAP2 SWAP1 PUSH2 0x815 JUMP JUMPDEST PUSH1 0x40 MLOAD DUP1 SWAP2 SUB SWAP1 RETURN JUMPDEST PUSH2 0xA9 PUSH2 0x314 JUMP JUMPDEST PUSH1 0x40 MLOAD PUSH2 0xB6 SWAP2 SWAP1 PUSH2 0x889 JUMP JUMPDEST PUSH1 0x40 MLOAD DUP1 SWAP2 SUB SWAP1 RETURN JUMPDEST PUSH2 0xD9 PUSH1 0x4 DUP1 CALLDATASIZE SUB DUP2 ADD SWAP1 PUSH2 0xD4 SWAP2 SWAP1 PUSH2 0x5EC JUMP JUMPDEST PUSH2 0x31A JUMP JUMPDEST PUSH1 0x40 MLOAD PUSH2 0xE6 SWAP2 SWAP1 PUSH2 0x86E JUMP JUMPDEST PUSH1 0x40 MLOAD DUP1 SWAP2 SUB SWAP1 RETURN JUMPDEST PUSH2 0xF7 PUSH2 0x3A6 JUMP JUMPDEST PUSH1 0x40 MLOAD PUSH2 0x105 SWAP3 SWAP2 SWAP1 PUSH2 0x837 JUMP JUMPDEST PUSH1 0x40 MLOAD DUP1 SWAP2 SUB SWAP1 RETURN JUMPDEST PUSH2 0x128 PUSH1 0x4 DUP1 CALLDATASIZE SUB DUP2 ADD SWAP1 PUSH2 0x123 SWAP2 SWAP1 PUSH2 0x5EC JUMP JUMPDEST PUSH2 0x521 JUMP JUMPDEST PUSH1 0x40 MLOAD PUSH2 0x136 SWAP3 SWAP2 SWAP1 PUSH2 0x8A4 JUMP JUMPDEST PUSH1 0x40 MLOAD DUP1 SWAP2 SUB SWAP1 RETURN JUMPDEST PUSH1 0x40 MLOAD DUP1 PUSH1 0x40 ADD PUSH1 0x40 MSTORE DUP1 PUSH1 0x1 SLOAD DUP2 MSTORE PUSH1 0x20 ADD DUP3 PUSH20 0xFFFFFFFFFFFFFFFFFFFFFFFFFFFFFFFFFFFFFFFF AND DUP2 MSTORE POP PUSH1 0x0 DUP1 PUSH1 0x1 SLOAD DUP2 MSTORE PUSH1 0x20 ADD SWAP1 DUP2 MSTORE PUSH1 0x20 ADD PUSH1 0x0 KECCAK256 PUSH1 0x0 DUP3 ADD MLOAD DUP2 PUSH1 0x0 ADD SSTORE PUSH1 0x20 DUP3 ADD MLOAD DUP2 PUSH1 0x1 ADD PUSH1 0x0 PUSH2 0x100 EXP DUP2 SLOAD DUP2 PUSH20 0xFFFFFFFFFFFFFFFFFFFFFFFFFFFFFFFFFFFFFFFF MUL NOT AND SWAP1 DUP4 PUSH20 0xFFFFFFFFFFFFFFFFFFFFFFFFFFFFFFFFFFFFFFFF AND MUL OR SWAP1 SSTORE POP SWAP1 POP POP PUSH1 0x1 PUSH1 0x0 DUP2 SLOAD DUP1 SWAP3 SWAP2 SWAP1 PUSH2 0x1E7 SWAP1 PUSH2 0x9B4 JUMP JUMPDEST SWAP2 SWAP1 POP SSTORE POP POP JUMP JUMPDEST PUSH1 0x60 PUSH1 0x0 PUSH1 0x1 SLOAD PUSH8 0xFFFFFFFFFFFFFFFF DUP2 GT ISZERO PUSH2 0x20F JUMPI PUSH2 0x20E PUSH2 0xA5B JUMP JUMPDEST JUMPDEST PUSH1 0x40 MLOAD SWAP1 DUP1 DUP3 MSTORE DUP1 PUSH1 0x20 MUL PUSH1 0x20 ADD DUP3 ADD PUSH1 0x40 MSTORE DUP1 ISZERO PUSH2 0x248 JUMPI DUP2 PUSH1 0x20 ADD JUMPDEST PUSH2 0x235 PUSH2 0x565 JUMP JUMPDEST DUP2 MSTORE PUSH1 0x20 ADD SWAP1 PUSH1 0x1 SWAP1 SUB SWAP1 DUP2 PUSH2 0x22D JUMPI SWAP1 POP JUMPDEST POP SWAP1 POP PUSH1 0x0 JUMPDEST PUSH1 0x1 SLOAD DUP2 LT ISZERO PUSH2 0x30C JUMPI PUSH1 0x0 DUP1 PUSH1 0x0 DUP4 DUP2 MSTORE PUSH1 0x20 ADD SWAP1 DUP2 MSTORE PUSH1 0x20 ADD PUSH1 0x0 KECCAK256 SWAP1 POP DUP1 PUSH1 0x40 MLOAD DUP1 PUSH1 0x40 ADD PUSH1 0x40 MSTORE SWAP1 DUP2 PUSH1 0x0 DUP3 ADD SLOAD DUP2 MSTORE PUSH1 0x20 ADD PUSH1 0x1 DUP3 ADD PUSH1 0x0 SWAP1 SLOAD SWAP1 PUSH2 0x100 EXP SWAP1 DIV PUSH20 0xFFFFFFFFFFFFFFFFFFFFFFFFFFFFFFFFFFFFFFFF AND PUSH20 0xFFFFFFFFFFFFFFFFFFFFFFFFFFFFFFFFFFFFFFFF AND PUSH20 0xFFFFFFFFFFFFFFFFFFFFFFFFFFFFFFFFFFFFFFFF AND DUP2 MSTORE POP POP DUP4 DUP4 DUP2 MLOAD DUP2 LT PUSH2 0x2ED JUMPI PUSH2 0x2EC PUSH2 0xA2C JUMP JUMPDEST JUMPDEST PUSH1 0x20 MUL PUSH1 0x20 ADD ADD DUP2 SWAP1 MSTORE POP POP DUP1 DUP1 PUSH2 0x304 SWAP1 PUSH2 0x9B4 JUMP JUMPDEST SWAP2 POP POP PUSH2 0x24E JUMP JUMPDEST POP DUP1 SWAP2 POP POP SWAP1 JUMP JUMPDEST PUSH1 0x1 SLOAD DUP2 JUMP JUMPDEST PUSH2 0x322 PUSH2 0x565 JUMP JUMPDEST PUSH1 0x0 DUP1 DUP4 DUP2 MSTORE PUSH1 0x20 ADD SWAP1 DUP2 MSTORE PUSH1 0x20 ADD PUSH1 0x0 KECCAK256 PUSH1 0x40 MLOAD DUP1 PUSH1 0x40 ADD PUSH1 0x40 MSTORE SWAP1 DUP2 PUSH1 0x0 DUP3 ADD SLOAD DUP2 MSTORE PUSH1 0x20 ADD PUSH1 0x1 DUP3 ADD PUSH1 0x0 SWAP1 SLOAD SWAP1 PUSH2 0x100 EXP SWAP1 DIV PUSH20 0xFFFFFFFFFFFFFFFFFFFFFFFFFFFFFFFFFFFFFFFF AND PUSH20 0xFFFFFFFFFFFFFFFFFFFFFFFFFFFFFFFFFFFFFFFF AND PUSH20 0xFFFFFFFFFFFFFFFFFFFFFFFFFFFFFFFFFFFFFFFF AND DUP2 MSTORE POP POP SWAP1 POP SWAP2 SWAP1 POP JUMP JUMPDEST PUSH1 0x60 DUP1 PUSH1 0x0 PUSH1 0x1 SLOAD PUSH8 0xFFFFFFFFFFFFFFFF DUP2 GT ISZERO PUSH2 0x3C7 JUMPI PUSH2 0x3C6 PUSH2 0xA5B JUMP JUMPDEST JUMPDEST PUSH1 0x40 MLOAD SWAP1 DUP1 DUP3 MSTORE DUP1 PUSH1 0x20 MUL PUSH1 0x20 ADD DUP3 ADD PUSH1 0x40 MSTORE DUP1 ISZERO PUSH2 0x3F5 JUMPI DUP2 PUSH1 0x20 ADD PUSH1 0x20 DUP3 MUL DUP1 CALLDATASIZE DUP4 CALLDATACOPY DUP1 DUP3 ADD SWAP2 POP POP SWAP1 POP JUMPDEST POP SWAP1 POP PUSH1 0x0 PUSH1 0x1 SLOAD PUSH8 0xFFFFFFFFFFFFFFFF DUP2 GT ISZERO PUSH2 0x416 JUMPI PUSH2 0x415 PUSH2 0xA5B JUMP JUMPDEST JUMPDEST PUSH1 0x40 MLOAD SWAP1 DUP1 DUP3 MSTORE DUP1 PUSH1 0x20 MUL PUSH1 0x20 ADD DUP3 ADD PUSH1 0x40 MSTORE DUP1 ISZERO PUSH2 0x444 JUMPI DUP2 PUSH1 0x20 ADD PUSH1 0x20 DUP3 MUL DUP1 CALLDATASIZE DUP4 CALLDATACOPY DUP1 DUP3 ADD SWAP2 POP POP SWAP1 POP JUMPDEST POP SWAP1 POP PUSH1 0x0 JUMPDEST PUSH1 0x1 SLOAD DUP2 LT ISZERO PUSH2 0x514 JUMPI PUSH1 0x0 DUP1 PUSH1 0x0 DUP4 DUP2 MSTORE PUSH1 0x20 ADD SWAP1 DUP2 MSTORE PUSH1 0x20 ADD PUSH1 0x0 KECCAK256 SWAP1 POP DUP1 PUSH1 0x0 ADD SLOAD DUP5 DUP4 DUP2 MLOAD DUP2 LT PUSH2 0x482 JUMPI PUSH2 0x481 PUSH2 0xA2C JUMP JUMPDEST JUMPDEST PUSH1 0x20 MUL PUSH1 0x20 ADD ADD DUP2 DUP2 MSTORE POP POP DUP1 PUSH1 0x1 ADD PUSH1 0x0 SWAP1 SLOAD SWAP1 PUSH2 0x100 EXP SWAP1 DIV PUSH20 0xFFFFFFFFFFFFFFFFFFFFFFFFFFFFFFFFFFFFFFFF AND DUP4 DUP4 DUP2 MLOAD DUP2 LT PUSH2 0x4C6 JUMPI PUSH2 0x4C5 PUSH2 0xA2C JUMP JUMPDEST JUMPDEST PUSH1 0x20 MUL PUSH1 0x20 ADD ADD SWAP1 PUSH20 0xFFFFFFFFFFFFFFFFFFFFFFFFFFFFFFFFFFFFFFFF AND SWAP1 DUP2 PUSH20 0xFFFFFFFFFFFFFFFFFFFFFFFFFFFFFFFFFFFFFFFF AND DUP2 MSTORE POP POP POP DUP1 DUP1 PUSH2 0x50C SWAP1 PUSH2 0x9B4 JUMP JUMPDEST SWAP2 POP POP PUSH2 0x44A JUMP JUMPDEST POP DUP2 DUP2 SWAP4 POP SWAP4 POP POP POP SWAP1 SWAP2 JUMP JUMPDEST PUSH1 0x0 PUSH1 0x20 MSTORE DUP1 PUSH1 0x0 MSTORE PUSH1 0x40 PUSH1 0x0 KECCAK256 PUSH1 0x0 SWAP2 POP SWAP1 POP DUP1 PUSH1 0x0 ADD SLOAD SWAP1 DUP1 PUSH1 0x1 ADD PUSH1 0x0 SWAP1 SLOAD SWAP1 PUSH2 0x100 EXP SWAP1 DIV PUSH20 0xFFFFFFFFFFFFFFFFFFFFFFFFFFFFFFFFFFFFFFFF AND SWAP1 POP DUP3 JUMP JUMPDEST PUSH1 0x40 MLOAD DUP1 PUSH1 0x40 ADD PUSH1 0x40 MSTORE DUP1 PUSH1 0x0 DUP2 MSTORE PUSH1 0x20 ADD PUSH1 0x0 PUSH20 0xFFFFFFFFFFFFFFFFFFFFFFFFFFFFFFFFFFFFFFFF AND DUP2 MSTORE POP SWAP1 JUMP JUMPDEST PUSH1 0x0 DUP2 CALLDATALOAD SWAP1 POP PUSH2 0x5A4 DUP2 PUSH2 0xA8F JUMP JUMPDEST SWAP3 SWAP2 POP POP JUMP JUMPDEST PUSH1 0x0 DUP2 CALLDATALOAD SWAP1 POP PUSH2 0x5B9 DUP2 PUSH2 0xAA6 JUMP JUMPDEST SWAP3 SWAP2 POP POP JUMP JUMPDEST PUSH1 0x0 PUSH1 0x20 DUP3 DUP5 SUB SLT ISZERO PUSH2 0x5D5 JUMPI PUSH2 0x5D4 PUSH2 0xA8A JUMP JUMPDEST JUMPDEST PUSH1 0x0 PUSH2 0x5E3 DUP5 DUP3 DUP6 ADD PUSH2 0x595 JUMP JUMPDEST SWAP2 POP POP SWAP3 SWAP2 POP POP JUMP JUMPDEST PUSH1 0x0 PUSH1 0x20 DUP3 DUP5 SUB SLT ISZERO PUSH2 0x602 JUMPI PUSH2 0x601 PUSH2 0xA8A JUMP JUMPDEST JUMPDEST PUSH1 0x0 PUSH2 0x610 DUP5 DUP3 DUP6 ADD PUSH2 0x5AA JUMP JUMPDEST SWAP2 POP POP SWAP3 SWAP2 POP POP JUMP JUMPDEST PUSH1 0x0 PUSH2 0x625 DUP4 DUP4 PUSH2 0x661 JUMP JUMPDEST PUSH1 0x20 DUP4 ADD SWAP1 POP SWAP3 SWAP2 POP POP JUMP JUMPDEST PUSH1 0x0 PUSH2 0x63D DUP4 DUP4 PUSH2 0x799 JUMP JUMPDEST PUSH1 0x40 DUP4 ADD SWAP1 POP SWAP3 SWAP2 POP POP JUMP JUMPDEST PUSH1 0x0 PUSH2 0x655 DUP4 DUP4 PUSH2 0x7F7 JUMP JUMPDEST PUSH1 0x20 DUP4 ADD SWAP1 POP SWAP3 SWAP2 POP POP JUMP JUMPDEST PUSH2 0x66A DUP2 PUSH2 0x978 JUMP JUMPDEST DUP3 MSTORE POP POP JUMP JUMPDEST PUSH2 0x679 DUP2 PUSH2 0x978 JUMP JUMPDEST DUP3 MSTORE POP POP JUMP JUMPDEST PUSH1 0x0 PUSH2 0x68A DUP3 PUSH2 0x8FD JUMP JUMPDEST PUSH2 0x694 DUP2 DUP6 PUSH2 0x945 JUMP JUMPDEST SWAP4 POP PUSH2 0x69F DUP4 PUSH2 0x8CD JUMP JUMPDEST DUP1 PUSH1 0x0 JUMPDEST DUP4 DUP2 LT ISZERO PUSH2 0x6D0 JUMPI DUP2 MLOAD PUSH2 0x6B7 DUP9 DUP3 PUSH2 0x619 JUMP JUMPDEST SWAP8 POP PUSH2 0x6C2 DUP4 PUSH2 0x91E JUMP JUMPDEST SWAP3 POP POP PUSH1 0x1 DUP2 ADD SWAP1 POP PUSH2 0x6A3 JUMP JUMPDEST POP DUP6 SWAP4 POP POP POP POP SWAP3 SWAP2 POP POP JUMP JUMPDEST PUSH1 0x0 PUSH2 0x6E8 DUP3 PUSH2 0x908 JUMP JUMPDEST PUSH2 0x6F2 DUP2 DUP6 PUSH2 0x956 JUMP JUMPDEST SWAP4 POP PUSH2 0x6FD DUP4 PUSH2 0x8DD JUMP JUMPDEST DUP1 PUSH1 0x0 JUMPDEST DUP4 DUP2 LT ISZERO PUSH2 0x72E JUMPI DUP2 MLOAD PUSH2 0x715 DUP9 DUP3 PUSH2 0x631 JUMP JUMPDEST SWAP8 POP PUSH2 0x720 DUP4 PUSH2 0x92B JUMP JUMPDEST SWAP3 POP POP PUSH1 0x1 DUP2 ADD SWAP1 POP PUSH2 0x701 JUMP JUMPDEST POP DUP6 SWAP4 POP POP POP POP SWAP3 SWAP2 POP POP JUMP JUMPDEST PUSH1 0x0 PUSH2 0x746 DUP3 PUSH2 0x913 JUMP JUMPDEST PUSH2 0x750 DUP2 DUP6 PUSH2 0x967 JUMP JUMPDEST SWAP4 POP PUSH2 0x75B DUP4 PUSH2 0x8ED JUMP JUMPDEST DUP1 PUSH1 0x0 JUMPDEST DUP4 DUP2 LT ISZERO PUSH2 0x78C JUMPI DUP2 MLOAD PUSH2 0x773 DUP9 DUP3 PUSH2 0x649 JUMP JUMPDEST SWAP8 POP PUSH2 0x77E DUP4 PUSH2 0x938 JUMP JUMPDEST SWAP3 POP POP PUSH1 0x1 DUP2 ADD SWAP1 POP PUSH2 0x75F JUMP JUMPDEST POP DUP6 SWAP4 POP POP POP POP SWAP3 SWAP2 POP POP JUMP JUMPDEST PUSH1 0x40 DUP3 ADD PUSH1 0x0 DUP3 ADD MLOAD PUSH2 0x7AF PUSH1 0x0 DUP6 ADD DUP3 PUSH2 0x7F7 JUMP JUMPDEST POP PUSH1 0x20 DUP3 ADD MLOAD PUSH2 0x7C2 PUSH1 0x20 DUP6 ADD DUP3 PUSH2 0x661 JUMP JUMPDEST POP POP POP POP JUMP JUMPDEST PUSH1 0x40 DUP3 ADD PUSH1 0x0 DUP3 ADD MLOAD PUSH2 0x7DE PUSH1 0x0 DUP6 ADD DUP3 PUSH2 0x7F7 JUMP JUMPDEST POP PUSH1 0x20 DUP3 ADD MLOAD PUSH2 0x7F1 PUSH1 0x20 DUP6 ADD DUP3 PUSH2 0x661 JUMP JUMPDEST POP POP POP POP JUMP JUMPDEST PUSH2 0x800 DUP2 PUSH2 0x9AA JUMP JUMPDEST DUP3 MSTORE POP POP JUMP JUMPDEST PUSH2 0x80F DUP2 PUSH2 0x9AA JUMP JUMPDEST DUP3 MSTORE POP POP JUMP JUMPDEST PUSH1 0x0 PUSH1 0x20 DUP3 ADD SWAP1 POP DUP2 DUP2 SUB PUSH1 0x0 DUP4 ADD MSTORE PUSH2 0x82F DUP2 DUP5 PUSH2 0x6DD JUMP JUMPDEST SWAP1 POP SWAP3 SWAP2 POP POP JUMP JUMPDEST PUSH1 0x0 PUSH1 0x40 DUP3 ADD SWAP1 POP DUP2 DUP2 SUB PUSH1 0x0 DUP4 ADD MSTORE PUSH2 0x851 DUP2 DUP6 PUSH2 0x73B JUMP JUMPDEST SWAP1 POP DUP2 DUP2 SUB PUSH1 0x20 DUP4 ADD MSTORE PUSH2 0x865 DUP2 DUP5 PUSH2 0x67F JUMP JUMPDEST SWAP1 POP SWAP4 SWAP3 POP POP POP JUMP JUMPDEST PUSH1 0x0 PUSH1 0x40 DUP3 ADD SWAP1 POP PUSH2 0x883 PUSH1 0x0 DUP4 ADD DUP5 PUSH2 0x7C8 JUMP JUMPDEST SWAP3 SWAP2 POP POP JUMP JUMPDEST PUSH1 0x0 PUSH1 0x20 DUP3 ADD SWAP1 POP PUSH2 0x89E PUSH1 0x0 DUP4 ADD DUP5 PUSH2 0x806 JUMP JUMPDEST SWAP3 SWAP2 POP POP JUMP JUMPDEST PUSH1 0x0 PUSH1 0x40 DUP3 ADD SWAP1 POP PUSH2 0x8B9 PUSH1 0x0 DUP4 ADD DUP6 PUSH2 0x806 JUMP JUMPDEST PUSH2 0x8C6 PUSH1 0x20 DUP4 ADD DUP5 PUSH2 0x670 JUMP JUMPDEST SWAP4 SWAP3 POP POP POP JUMP JUMPDEST PUSH1 0x0 DUP2 SWAP1 POP PUSH1 0x20 DUP3 ADD SWAP1 POP SWAP2 SWAP1 POP JUMP JUMPDEST PUSH1 0x0 DUP2 SWAP1 POP PUSH1 0x20 DUP3 ADD SWAP1 POP SWAP2 SWAP1 POP JUMP JUMPDEST PUSH1 0x0 DUP2 SWAP1 POP PUSH1 0x20 DUP3 ADD SWAP1 POP SWAP2 SWAP1 POP JUMP JUMPDEST PUSH1 0x0 DUP2 MLOAD SWAP1 POP SWAP2 SWAP1 POP JUMP JUMPDEST PUSH1 0x0 DUP2 MLOAD SWAP1 POP SWAP2 SWAP1 POP JUMP JUMPDEST PUSH1 0x0 DUP2 MLOAD SWAP1 POP SWAP2 SWAP1 POP JUMP JUMPDEST PUSH1 0x0 PUSH1 0x20 DUP3 ADD SWAP1 POP SWAP2 SWAP1 POP JUMP JUMPDEST PUSH1 0x0 PUSH1 0x20 DUP3 ADD SWAP1 POP SWAP2 SWAP1 POP JUMP JUMPDEST PUSH1 0x0 PUSH1 0x20 DUP3 ADD SWAP1 POP SWAP2 SWAP1 POP JUMP JUMPDEST PUSH1 0x0 DUP3 DUP3 MSTORE PUSH1 0x20 DUP3 ADD SWAP1 POP SWAP3 SWAP2 POP POP JUMP JUMPDEST PUSH1 0x0 DUP3 DUP3 MSTORE PUSH1 0x20 DUP3 ADD SWAP1 POP SWAP3 SWAP2 POP POP JUMP JUMPDEST PUSH1 0x0 DUP3 DUP3 MSTORE PUSH1 0x20 DUP3 ADD SWAP1 POP SWAP3 SWAP2 POP POP JUMP JUMPDEST PUSH1 0x0 PUSH2 0x983 DUP3 PUSH2 0x98A JUMP JUMPDEST SWAP1 POP SWAP2 SWAP1 POP JUMP JUMPDEST PUSH1 0x0 PUSH20 0xFFFFFFFFFFFFFFFFFFFFFFFFFFFFFFFFFFFFFFFF DUP3 AND SWAP1 POP SWAP2 SWAP1 POP JUMP JUMPDEST PUSH1 0x0 DUP2 SWAP1 POP SWAP2 SWAP1 POP JUMP JUMPDEST PUSH1 0x0 PUSH2 0x9BF DUP3 PUSH2 0x9AA JUMP JUMPDEST SWAP2 POP PUSH32 0xFFFFFFFFFFFFFFFFFFFFFFFFFFFFFFFFFFFFFFFFFFFFFFFFFFFFFFFFFFFFFFFF DUP3 EQ ISZERO PUSH2 0x9F2 JUMPI PUSH2 0x9F1 PUSH2 0x9FD JUMP JUMPDEST JUMPDEST PUSH1 0x1 DUP3 ADD SWAP1 POP SWAP2 SWAP1 POP JUMP JUMPDEST PUSH32 0x4E487B7100000000000000000000000000000000000000000000000000000000 PUSH1 0x0 MSTORE PUSH1 0x11 PUSH1 0x4 MSTORE PUSH1 0x24 PUSH1 0x0 REVERT JUMPDEST PUSH32 0x4E487B7100000000000000000000000000000000000000000000000000000000 PUSH1 0x0 MSTORE PUSH1 0x32 PUSH1 0x4 MSTORE PUSH1 0x24 PUSH1 0x0 REVERT JUMPDEST PUSH32 0x4E487B7100000000000000000000000000000000000000000000000000000000 PUSH1 0x0 MSTORE PUSH1 0x41 PUSH1 0x4 MSTORE PUSH1 0x24 PUSH1 0x0 REVERT JUMPDEST PUSH1 0x0 DUP1 REVERT JUMPDEST PUSH2 0xA98 DUP2 PUSH2 0x978 JUMP JUMPDEST DUP2 EQ PUSH2 0xAA3 JUMPI PUSH1 0x0 DUP1 REVERT JUMPDEST POP JUMP JUMPDEST PUSH2 0xAAF DUP2 PUSH2 0x9AA JUMP JUMPDEST DUP2 EQ PUSH2 0xABA JUMPI PUSH1 0x0 DUP1 REVERT JUMPDEST POP JUMP INVALID LOG2 PUSH5 0x6970667358 0x22 SLT KECCAK256 0xD4 SMOD PUSH25 0x2B7051E39AB0A121855403A799790F4213121CDE61B59FEB20 REVERT PUSH16 0x572D64736F6C63430008070033000000 "
				},
				"gasEstimates": {
					"creation": {
						"codeDepositCost": "560600",
						"executionCost": "5608",
						"totalCost": "566208"
					},
					"external": {
						"addDrug(address)": "75549",
						"drugs(uint256)": "infinite",
						"drugsCount()": "2451",
						"get(uint256)": "infinite",
						"getDrug()": "infinite",
						"getDrugs()": "infinite"
					}
				},
				"methodIdentifiers": {
					"addDrug(address)": "193de85d",
					"drugs(uint256)": "fca5e61e",
					"drugsCount()": "92812e6f",
					"get(uint256)": "9507d39a",
					"getDrug()": "f2a50281",
					"getDrugs()": "5fb07a62"
				}
			},
			"storageLayout": {
				"storage": [
					{
						"astId": 12,
						"contract": "contracts/Drugs.sol:Drugs",
						"label": "drugs",
						"offset": 0,
						"slot": "0",
						"type": "t_mapping(t_uint256,t_struct(Drug)7_storage)"
					},
					{
						"astId": 14,
						"contract": "contracts/Drugs.sol:Drugs",
						"label": "drugsCount",
						"offset": 0,
						"slot": "1",
						"type": "t_uint256"
					}
				],
				"types": {
					"t_address": {
						"encoding": "inplace",
						"label": "address",
						"numberOfBytes": "20"
					},
					"t_mapping(t_uint256,t_struct(Drug)7_storage)": {
						"encoding": "mapping",
						"key": "t_uint256",
						"label": "mapping(uint256 => struct Drugs.Drug)",
						"numberOfBytes": "32",
						"value": "t_struct(Drug)7_storage"
					},
					"t_struct(Drug)7_storage": {
						"encoding": "inplace",
						"label": "struct Drugs.Drug",
						"members": [
							{
								"astId": 4,
								"contract": "contracts/Drugs.sol:Drugs",
								"label": "DrugID",
								"offset": 0,
								"slot": "0",
								"type": "t_uint256"
							},
							{
								"astId": 6,
								"contract": "contracts/Drugs.sol:Drugs",
								"label": "Manufacturer",
								"offset": 0,
								"slot": "1",
								"type": "t_address"
							}
						],
						"numberOfBytes": "64"
					},
					"t_uint256": {
						"encoding": "inplace",
						"label": "uint256",
						"numberOfBytes": "32"
					}
				}
			},
			"userdoc": {
				"kind": "user",
				"methods": {},
				"version": 1
			}
		}
	}
}