{
	"contracts/User_Types.sol": {
		"User_Types": {
			"abi": [
				{
					"inputs": [],
					"stateMutability": "nonpayable",
					"type": "constructor"
				},
				{
					"inputs": [],
					"name": "AddUserType",
					"outputs": [],
					"stateMutability": "nonpayable",
					"type": "function"
				},
				{
					"inputs": [],
					"name": "getTypes",
					"outputs": [
						{
							"components": [
								{
									"internalType": "uint256",
									"name": "id",
									"type": "uint256"
								},
								{
									"internalType": "string",
									"name": "UserTypeName",
									"type": "string"
								}
							],
							"internalType": "struct User_Types.UserType[]",
							"name": "",
							"type": "tuple[]"
						}
					],
					"stateMutability": "view",
					"type": "function"
				},
				{
					"inputs": [
						{
							"internalType": "uint256",
							"name": "_id",
							"type": "uint256"
						}
					],
					"name": "getUserType",
					"outputs": [
						{
							"components": [
								{
									"internalType": "uint256",
									"name": "id",
									"type": "uint256"
								},
								{
									"internalType": "string",
									"name": "UserTypeName",
									"type": "string"
								}
							],
							"internalType": "struct User_Types.UserType",
							"name": "",
							"type": "tuple"
						}
					],
					"stateMutability": "view",
					"type": "function"
				},
				{
					"inputs": [],
					"name": "getUserTypeName",
					"outputs": [
						{
							"internalType": "string",
							"name": "",
							"type": "string"
						}
					],
					"stateMutability": "view",
					"type": "function"
				},
				{
					"inputs": [],
					"name": "iTypesCount",
					"outputs": [
						{
							"internalType": "uint256",
							"name": "",
							"type": "uint256"
						}
					],
					"stateMutability": "view",
					"type": "function"
				},
				{
					"inputs": [
						{
							"internalType": "uint256",
							"name": "",
							"type": "uint256"
						}
					],
					"name": "oUserTypes",
					"outputs": [
						{
							"internalType": "uint256",
							"name": "id",
							"type": "uint256"
						},
						{
							"internalType": "string",
							"name": "UserTypeName",
							"type": "string"
						}
					],
					"stateMutability": "view",
					"type": "function"
				},
				{
					"inputs": [
						{
							"internalType": "string",
							"name": "_UserTypeName",
							"type": "string"
						}
					],
					"name": "setUserTypeName",
					"outputs": [],
					"stateMutability": "nonpayable",
					"type": "function"
				}
			],
			"devdoc": {
				"kind": "dev",
				"methods": {},
				"version": 1
			},
			"evm": {
				"assembly": "    /* \"contracts/User_Types.sol\":70:1246  contract User_Types{\r... */\n  mstore(0x40, 0x80)\n    /* \"contracts/User_Types.sol\":335:374  constructor()  {\r... */\n  callvalue\n  dup1\n  iszero\n  tag_1\n  jumpi\n  0x00\n  dup1\n  revert\ntag_1:\n  pop\n    /* \"contracts/User_Types.sol\":367:368  0 */\n  0x00\n    /* \"contracts/User_Types.sol\":357:364  iUserId */\n  0x02\n    /* \"contracts/User_Types.sol\":357:368  iUserId = 0 */\n  dup2\n  swap1\n  sstore\n  pop\n    /* \"contracts/User_Types.sol\":70:1246  contract User_Types{\r... */\n  dataSize(sub_0)\n  dup1\n  dataOffset(sub_0)\n  0x00\n  codecopy\n  0x00\n  return\nstop\n\nsub_0: assembly {\n        /* \"contracts/User_Types.sol\":70:1246  contract User_Types{\r... */\n      mstore(0x40, 0x80)\n      callvalue\n      dup1\n      iszero\n      tag_1\n      jumpi\n      0x00\n      dup1\n      revert\n    tag_1:\n      pop\n      jumpi(tag_2, lt(calldatasize, 0x04))\n      shr(0xe0, calldataload(0x00))\n      dup1\n      0x45f094d2\n      gt\n      tag_10\n      jumpi\n      dup1\n      0x45f094d2\n      eq\n      tag_6\n      jumpi\n      dup1\n      0x56c926ae\n      eq\n      tag_7\n      jumpi\n      dup1\n      0xa3b6f351\n      eq\n      tag_8\n      jumpi\n      dup1\n      0xb4579d60\n      eq\n      tag_9\n      jumpi\n      jump(tag_2)\n    tag_10:\n      dup1\n      0x0d471c16\n      eq\n      tag_3\n      jumpi\n      dup1\n      0x13f58f71\n      eq\n      tag_4\n      jumpi\n      dup1\n      0x2ce842f4\n      eq\n      tag_5\n      jumpi\n    tag_2:\n      0x00\n      dup1\n      revert\n        /* \"contracts/User_Types.sol\":175:219  mapping (uint => UserType) public oUserTypes */\n    tag_3:\n      tag_11\n      0x04\n      dup1\n      calldatasize\n      sub\n      dup2\n      add\n      swap1\n      tag_12\n      swap2\n      swap1\n      tag_13\n      jump\t// in\n    tag_12:\n      tag_14\n      jump\t// in\n    tag_11:\n      mload(0x40)\n      tag_15\n      swap3\n      swap2\n      swap1\n      tag_16\n      jump\t// in\n    tag_15:\n      mload(0x40)\n      dup1\n      swap2\n      sub\n      swap1\n      return\n        /* \"contracts/User_Types.sol\":836:955  function getUserType(uint _id) public view returns (UserType memory) {       \r... */\n    tag_4:\n      tag_17\n      0x04\n      dup1\n      calldatasize\n      sub\n      dup2\n      add\n      swap1\n      tag_18\n      swap2\n      swap1\n      tag_13\n      jump\t// in\n    tag_18:\n      tag_19\n      jump\t// in\n    tag_17:\n      mload(0x40)\n      tag_20\n      swap2\n      swap1\n      tag_21\n      jump\t// in\n    tag_20:\n      mload(0x40)\n      dup1\n      swap2\n      sub\n      swap1\n      return\n        /* \"contracts/User_Types.sol\":273:296  uint public iTypesCount */\n    tag_5:\n      tag_22\n      tag_23\n      jump\t// in\n    tag_22:\n      mload(0x40)\n      tag_24\n      swap2\n      swap1\n      tag_25\n      jump\t// in\n    tag_24:\n      mload(0x40)\n      dup1\n      swap2\n      sub\n      swap1\n      return\n        /* \"contracts/User_Types.sol\":382:489  function setUserTypeName(string memory _UserTypeName) public{\r... */\n    tag_6:\n      tag_26\n      0x04\n      dup1\n      calldatasize\n      sub\n      dup2\n      add\n      swap1\n      tag_27\n      swap2\n      swap1\n      tag_28\n      jump\t// in\n    tag_27:\n      tag_29\n      jump\t// in\n    tag_26:\n      stop\n        /* \"contracts/User_Types.sol\":605:828  function AddUserType() public {\r... */\n    tag_7:\n      tag_30\n      tag_31\n      jump\t// in\n    tag_30:\n      stop\n        /* \"contracts/User_Types.sol\":497:597  function getUserTypeName() public view returns (string memory){\r... */\n    tag_8:\n      tag_32\n      tag_33\n      jump\t// in\n    tag_32:\n      mload(0x40)\n      tag_34\n      swap2\n      swap1\n      tag_35\n      jump\t// in\n    tag_34:\n      mload(0x40)\n      dup1\n      swap2\n      sub\n      swap1\n      return\n        /* \"contracts/User_Types.sol\":963:1243  function getTypes() public view returns (UserType[] memory){\r... */\n    tag_9:\n      tag_36\n      tag_37\n      jump\t// in\n    tag_36:\n      mload(0x40)\n      tag_38\n      swap2\n      swap1\n      tag_39\n      jump\t// in\n    tag_38:\n      mload(0x40)\n      dup1\n      swap2\n      sub\n      swap1\n      return\n        /* \"contracts/User_Types.sol\":175:219  mapping (uint => UserType) public oUserTypes */\n    tag_14:\n      mstore(0x20, 0x00)\n      dup1\n      0x00\n      mstore\n      keccak256(0x00, 0x40)\n      0x00\n      swap2\n      pop\n      swap1\n      pop\n      dup1\n      0x00\n      add\n      sload\n      swap1\n      dup1\n      0x01\n      add\n      dup1\n      sload\n      tag_40\n      swap1\n      tag_41\n      jump\t// in\n    tag_40:\n      dup1\n      0x1f\n      add\n      0x20\n      dup1\n      swap2\n      div\n      mul\n      0x20\n      add\n      mload(0x40)\n      swap1\n      dup2\n      add\n      0x40\n      mstore\n      dup1\n      swap3\n      swap2\n      swap1\n      dup2\n      dup2\n      mstore\n      0x20\n      add\n      dup3\n      dup1\n      sload\n      tag_42\n      swap1\n      tag_41\n      jump\t// in\n    tag_42:\n      dup1\n      iszero\n      tag_43\n      jumpi\n      dup1\n      0x1f\n      lt\n      tag_44\n      jumpi\n      0x0100\n      dup1\n      dup4\n      sload\n      div\n      mul\n      dup4\n      mstore\n      swap2\n      0x20\n      add\n      swap2\n      jump(tag_43)\n    tag_44:\n      dup3\n      add\n      swap2\n      swap1\n      0x00\n      mstore\n      keccak256(0x00, 0x20)\n      swap1\n    tag_45:\n      dup2\n      sload\n      dup2\n      mstore\n      swap1\n      0x01\n      add\n      swap1\n      0x20\n      add\n      dup1\n      dup4\n      gt\n      tag_45\n      jumpi\n      dup3\n      swap1\n      sub\n      0x1f\n      and\n      dup3\n      add\n      swap2\n    tag_43:\n      pop\n      pop\n      pop\n      pop\n      pop\n      swap1\n      pop\n      dup3\n      jump\t// out\n        /* \"contracts/User_Types.sol\":836:955  function getUserType(uint _id) public view returns (UserType memory) {       \r... */\n    tag_19:\n        /* \"contracts/User_Types.sol\":888:903  UserType memory */\n      tag_46\n      tag_47\n      jump\t// in\n    tag_46:\n        /* \"contracts/User_Types.sol\":931:941  oUserTypes */\n      0x00\n        /* \"contracts/User_Types.sol\":931:946  oUserTypes[_id] */\n      dup1\n        /* \"contracts/User_Types.sol\":942:945  _id */\n      dup4\n        /* \"contracts/User_Types.sol\":931:946  oUserTypes[_id] */\n      dup2\n      mstore\n      0x20\n      add\n      swap1\n      dup2\n      mstore\n      0x20\n      add\n      0x00\n      keccak256\n        /* \"contracts/User_Types.sol\":923:947  return (oUserTypes[_id]) */\n      mload(0x40)\n      dup1\n      0x40\n      add\n      0x40\n      mstore\n      swap1\n      dup2\n      0x00\n      dup3\n      add\n      sload\n      dup2\n      mstore\n      0x20\n      add\n      0x01\n      dup3\n      add\n      dup1\n      sload\n      tag_49\n      swap1\n      tag_41\n      jump\t// in\n    tag_49:\n      dup1\n      0x1f\n      add\n      0x20\n      dup1\n      swap2\n      div\n      mul\n      0x20\n      add\n      mload(0x40)\n      swap1\n      dup2\n      add\n      0x40\n      mstore\n      dup1\n      swap3\n      swap2\n      swap1\n      dup2\n      dup2\n      mstore\n      0x20\n      add\n      dup3\n      dup1\n      sload\n      tag_50\n      swap1\n      tag_41\n      jump\t// in\n    tag_50:\n      dup1\n      iszero\n      tag_51\n      jumpi\n      dup1\n      0x1f\n      lt\n      tag_52\n      jumpi\n      0x0100\n      dup1\n      dup4\n      sload\n      div\n      mul\n      dup4\n      mstore\n      swap2\n      0x20\n      add\n      swap2\n      jump(tag_51)\n    tag_52:\n      dup3\n      add\n      swap2\n      swap1\n      0x00\n      mstore\n      keccak256(0x00, 0x20)\n      swap1\n    tag_53:\n      dup2\n      sload\n      dup2\n      mstore\n      swap1\n      0x01\n      add\n      swap1\n      0x20\n      add\n      dup1\n      dup4\n      gt\n      tag_53\n      jumpi\n      dup3\n      swap1\n      sub\n      0x1f\n      and\n      dup3\n      add\n      swap2\n    tag_51:\n      pop\n      pop\n      pop\n      pop\n      pop\n      dup2\n      mstore\n      pop\n      pop\n      swap1\n      pop\n        /* \"contracts/User_Types.sol\":836:955  function getUserType(uint _id) public view returns (UserType memory) {       \r... */\n      swap2\n      swap1\n      pop\n      jump\t// out\n        /* \"contracts/User_Types.sol\":273:296  uint public iTypesCount */\n    tag_23:\n      sload(0x03)\n      dup2\n      jump\t// out\n        /* \"contracts/User_Types.sol\":382:489  function setUserTypeName(string memory _UserTypeName) public{\r... */\n    tag_29:\n        /* \"contracts/User_Types.sol\":468:481  _UserTypeName */\n      dup1\n        /* \"contracts/User_Types.sol\":453:465  UserTypeName */\n      0x01\n        /* \"contracts/User_Types.sol\":453:481  UserTypeName = _UserTypeName */\n      swap1\n      dup1\n      mload\n      swap1\n      0x20\n      add\n      swap1\n      tag_55\n      swap3\n      swap2\n      swap1\n      tag_56\n      jump\t// in\n    tag_55:\n      pop\n        /* \"contracts/User_Types.sol\":382:489  function setUserTypeName(string memory _UserTypeName) public{\r... */\n      pop\n      jump\t// out\n        /* \"contracts/User_Types.sol\":605:828  function AddUserType() public {\r... */\n    tag_31:\n        /* \"contracts/User_Types.sol\":646:653  iUserId */\n      0x02\n      0x00\n        /* \"contracts/User_Types.sol\":646:656  iUserId ++ */\n      dup2\n      sload\n      dup1\n      swap3\n      swap2\n      swap1\n      tag_58\n      swap1\n      tag_59\n      jump\t// in\n    tag_58:\n      swap2\n      swap1\n      pop\n      sstore\n      pop\n        /* \"contracts/User_Types.sol\":689:720  UserType(iUserId, UserTypeName) */\n      mload(0x40)\n      dup1\n      0x40\n      add\n      0x40\n      mstore\n      dup1\n        /* \"contracts/User_Types.sol\":698:705  iUserId */\n      sload(0x02)\n        /* \"contracts/User_Types.sol\":689:720  UserType(iUserId, UserTypeName) */\n      dup2\n      mstore\n      0x20\n      add\n        /* \"contracts/User_Types.sol\":707:719  UserTypeName */\n      0x01\n        /* \"contracts/User_Types.sol\":689:720  UserType(iUserId, UserTypeName) */\n      dup1\n      sload\n      tag_60\n      swap1\n      tag_41\n      jump\t// in\n    tag_60:\n      dup1\n      0x1f\n      add\n      0x20\n      dup1\n      swap2\n      div\n      mul\n      0x20\n      add\n      mload(0x40)\n      swap1\n      dup2\n      add\n      0x40\n      mstore\n      dup1\n      swap3\n      swap2\n      swap1\n      dup2\n      dup2\n      mstore\n      0x20\n      add\n      dup3\n      dup1\n      sload\n      tag_61\n      swap1\n      tag_41\n      jump\t// in\n    tag_61:\n      dup1\n      iszero\n      tag_62\n      jumpi\n      dup1\n      0x1f\n      lt\n      tag_63\n      jumpi\n      0x0100\n      dup1\n      dup4\n      sload\n      div\n      mul\n      dup4\n      mstore\n      swap2\n      0x20\n      add\n      swap2\n      jump(tag_62)\n    tag_63:\n      dup3\n      add\n      swap2\n      swap1\n      0x00\n      mstore\n      keccak256(0x00, 0x20)\n      swap1\n    tag_64:\n      dup2\n      sload\n      dup2\n      mstore\n      swap1\n      0x01\n      add\n      swap1\n      0x20\n      add\n      dup1\n      dup4\n      gt\n      tag_64\n      jumpi\n      dup3\n      swap1\n      sub\n      0x1f\n      and\n      dup3\n      add\n      swap2\n    tag_62:\n      pop\n      pop\n      pop\n      pop\n      pop\n      dup2\n      mstore\n      pop\n        /* \"contracts/User_Types.sol\":667:677  oUserTypes */\n      0x00\n        /* \"contracts/User_Types.sol\":667:686  oUserTypes[iUserId] */\n      dup1\n        /* \"contracts/User_Types.sol\":678:685  iUserId */\n      sload(0x02)\n        /* \"contracts/User_Types.sol\":667:686  oUserTypes[iUserId] */\n      dup2\n      mstore\n      0x20\n      add\n      swap1\n      dup2\n      mstore\n      0x20\n      add\n      0x00\n      keccak256\n        /* \"contracts/User_Types.sol\":667:720  oUserTypes[iUserId] = UserType(iUserId, UserTypeName) */\n      0x00\n      dup3\n      add\n      mload\n      dup2\n      0x00\n      add\n      sstore\n      0x20\n      dup3\n      add\n      mload\n      dup2\n      0x01\n      add\n      swap1\n      dup1\n      mload\n      swap1\n      0x20\n      add\n      swap1\n      tag_65\n      swap3\n      swap2\n      swap1\n      tag_56\n      jump\t// in\n    tag_65:\n      pop\n      swap1\n      pop\n      pop\n        /* \"contracts/User_Types.sol\":731:742  iTypesCount */\n      0x03\n      0x00\n        /* \"contracts/User_Types.sol\":731:745  iTypesCount ++ */\n      dup2\n      sload\n      dup1\n      swap3\n      swap2\n      swap1\n      tag_66\n      swap1\n      tag_59\n      jump\t// in\n    tag_66:\n      swap2\n      swap1\n      pop\n      sstore\n      pop\n        /* \"contracts/User_Types.sol\":605:828  function AddUserType() public {\r... */\n      jump\t// out\n        /* \"contracts/User_Types.sol\":497:597  function getUserTypeName() public view returns (string memory){\r... */\n    tag_33:\n        /* \"contracts/User_Types.sol\":545:558  string memory */\n      0x60\n        /* \"contracts/User_Types.sol\":577:589  UserTypeName */\n      0x01\n        /* \"contracts/User_Types.sol\":570:589  return UserTypeName */\n      dup1\n      sload\n      tag_68\n      swap1\n      tag_41\n      jump\t// in\n    tag_68:\n      dup1\n      0x1f\n      add\n      0x20\n      dup1\n      swap2\n      div\n      mul\n      0x20\n      add\n      mload(0x40)\n      swap1\n      dup2\n      add\n      0x40\n      mstore\n      dup1\n      swap3\n      swap2\n      swap1\n      dup2\n      dup2\n      mstore\n      0x20\n      add\n      dup3\n      dup1\n      sload\n      tag_69\n      swap1\n      tag_41\n      jump\t// in\n    tag_69:\n      dup1\n      iszero\n      tag_70\n      jumpi\n      dup1\n      0x1f\n      lt\n      tag_71\n      jumpi\n      0x0100\n      dup1\n      dup4\n      sload\n      div\n      mul\n      dup4\n      mstore\n      swap2\n      0x20\n      add\n      swap2\n      jump(tag_70)\n    tag_71:\n      dup3\n      add\n      swap2\n      swap1\n      0x00\n      mstore\n      keccak256(0x00, 0x20)\n      swap1\n    tag_72:\n      dup2\n      sload\n      dup2\n      mstore\n      swap1\n      0x01\n      add\n      swap1\n      0x20\n      add\n      dup1\n      dup4\n      gt\n      tag_72\n      jumpi\n      dup3\n      swap1\n      sub\n      0x1f\n      and\n      dup3\n      add\n      swap2\n    tag_70:\n      pop\n      pop\n      pop\n      pop\n      pop\n      swap1\n      pop\n        /* \"contracts/User_Types.sol\":497:597  function getUserTypeName() public view returns (string memory){\r... */\n      swap1\n      jump\t// out\n        /* \"contracts/User_Types.sol\":963:1243  function getTypes() public view returns (UserType[] memory){\r... */\n    tag_37:\n        /* \"contracts/User_Types.sol\":1004:1021  UserType[] memory */\n      0x60\n        /* \"contracts/User_Types.sol\":1031:1051  UserType[] memory id */\n      0x00\n        /* \"contracts/User_Types.sol\":1069:1080  iTypesCount */\n      sload(0x03)\n        /* \"contracts/User_Types.sol\":1054:1081  new UserType[](iTypesCount) */\n      0xffffffffffffffff\n      dup2\n      gt\n      iszero\n      tag_74\n      jumpi\n      tag_75\n      tag_76\n      jump\t// in\n    tag_75:\n    tag_74:\n      mload(0x40)\n      swap1\n      dup1\n      dup3\n      mstore\n      dup1\n      0x20\n      mul\n      0x20\n      add\n      dup3\n      add\n      0x40\n      mstore\n      dup1\n      iszero\n      tag_77\n      jumpi\n      dup2\n      0x20\n      add\n    tag_78:\n      tag_79\n      tag_47\n      jump\t// in\n    tag_79:\n      dup2\n      mstore\n      0x20\n      add\n      swap1\n      0x01\n      swap1\n      sub\n      swap1\n      dup2\n      tag_78\n      jumpi\n      swap1\n      pop\n    tag_77:\n      pop\n        /* \"contracts/User_Types.sol\":1031:1081  UserType[] memory id = new UserType[](iTypesCount) */\n      swap1\n      pop\n        /* \"contracts/User_Types.sol\":1095:1101  uint i */\n      0x00\n        /* \"contracts/User_Types.sol\":1104:1105  1 */\n      0x01\n        /* \"contracts/User_Types.sol\":1095:1105  uint i = 1 */\n      swap1\n      pop\n        /* \"contracts/User_Types.sol\":1090:1220  for (uint i = 1; i < iUserId; i++) {\r... */\n    tag_80:\n        /* \"contracts/User_Types.sol\":1111:1118  iUserId */\n      sload(0x02)\n        /* \"contracts/User_Types.sol\":1107:1108  i */\n      dup2\n        /* \"contracts/User_Types.sol\":1107:1118  i < iUserId */\n      lt\n        /* \"contracts/User_Types.sol\":1090:1220  for (uint i = 1; i < iUserId; i++) {\r... */\n      iszero\n      tag_81\n      jumpi\n        /* \"contracts/User_Types.sol\":1138:1164  UserType storage oUserType */\n      0x00\n        /* \"contracts/User_Types.sol\":1167:1177  oUserTypes */\n      dup1\n        /* \"contracts/User_Types.sol\":1167:1180  oUserTypes[i] */\n      0x00\n        /* \"contracts/User_Types.sol\":1178:1179  i */\n      dup4\n        /* \"contracts/User_Types.sol\":1167:1180  oUserTypes[i] */\n      dup2\n      mstore\n      0x20\n      add\n      swap1\n      dup2\n      mstore\n      0x20\n      add\n      0x00\n      keccak256\n        /* \"contracts/User_Types.sol\":1138:1180  UserType storage oUserType = oUserTypes[i] */\n      swap1\n      pop\n        /* \"contracts/User_Types.sol\":1201:1210  oUserType */\n      dup1\n        /* \"contracts/User_Types.sol\":1193:1210  id[i] = oUserType */\n      mload(0x40)\n      dup1\n      0x40\n      add\n      0x40\n      mstore\n      swap1\n      dup2\n      0x00\n      dup3\n      add\n      sload\n      dup2\n      mstore\n      0x20\n      add\n      0x01\n      dup3\n      add\n      dup1\n      sload\n      tag_83\n      swap1\n      tag_41\n      jump\t// in\n    tag_83:\n      dup1\n      0x1f\n      add\n      0x20\n      dup1\n      swap2\n      div\n      mul\n      0x20\n      add\n      mload(0x40)\n      swap1\n      dup2\n      add\n      0x40\n      mstore\n      dup1\n      swap3\n      swap2\n      swap1\n      dup2\n      dup2\n      mstore\n      0x20\n      add\n      dup3\n      dup1\n      sload\n      tag_84\n      swap1\n      tag_41\n      jump\t// in\n    tag_84:\n      dup1\n      iszero\n      tag_85\n      jumpi\n      dup1\n      0x1f\n      lt\n      tag_86\n      jumpi\n      0x0100\n      dup1\n      dup4\n      sload\n      div\n      mul\n      dup4\n      mstore\n      swap2\n      0x20\n      add\n      swap2\n      jump(tag_85)\n    tag_86:\n      dup3\n      add\n      swap2\n      swap1\n      0x00\n      mstore\n      keccak256(0x00, 0x20)\n      swap1\n    tag_87:\n      dup2\n      sload\n      dup2\n      mstore\n      swap1\n      0x01\n      add\n      swap1\n      0x20\n      add\n      dup1\n      dup4\n      gt\n      tag_87\n      jumpi\n      dup3\n      swap1\n      sub\n      0x1f\n      and\n      dup3\n      add\n      swap2\n    tag_85:\n      pop\n      pop\n      pop\n      pop\n      pop\n      dup2\n      mstore\n      pop\n      pop\n        /* \"contracts/User_Types.sol\":1193:1195  id */\n      dup4\n        /* \"contracts/User_Types.sol\":1196:1197  i */\n      dup4\n        /* \"contracts/User_Types.sol\":1193:1198  id[i] */\n      dup2\n      mload\n      dup2\n      lt\n      tag_88\n      jumpi\n      tag_89\n      tag_90\n      jump\t// in\n    tag_89:\n    tag_88:\n      0x20\n      mul\n      0x20\n      add\n      add\n        /* \"contracts/User_Types.sol\":1193:1210  id[i] = oUserType */\n      dup2\n      swap1\n      mstore\n      pop\n        /* \"contracts/User_Types.sol\":1125:1220  {\r... */\n      pop\n        /* \"contracts/User_Types.sol\":1120:1123  i++ */\n      dup1\n      dup1\n      tag_91\n      swap1\n      tag_59\n      jump\t// in\n    tag_91:\n      swap2\n      pop\n      pop\n        /* \"contracts/User_Types.sol\":1090:1220  for (uint i = 1; i < iUserId; i++) {\r... */\n      jump(tag_80)\n    tag_81:\n      pop\n        /* \"contracts/User_Types.sol\":1235:1237  id */\n      dup1\n        /* \"contracts/User_Types.sol\":1228:1237  return id */\n      swap2\n      pop\n      pop\n        /* \"contracts/User_Types.sol\":963:1243  function getTypes() public view returns (UserType[] memory){\r... */\n      swap1\n      jump\t// out\n    tag_47:\n      mload(0x40)\n      dup1\n      0x40\n      add\n      0x40\n      mstore\n      dup1\n      0x00\n      dup2\n      mstore\n      0x20\n      add\n      0x60\n      dup2\n      mstore\n      pop\n      swap1\n      jump\t// out\n    tag_56:\n      dup3\n      dup1\n      sload\n      tag_92\n      swap1\n      tag_41\n      jump\t// in\n    tag_92:\n      swap1\n      0x00\n      mstore\n      keccak256(0x00, 0x20)\n      swap1\n      0x1f\n      add\n      0x20\n      swap1\n      div\n      dup2\n      add\n      swap3\n      dup3\n      tag_94\n      jumpi\n      0x00\n      dup6\n      sstore\n      jump(tag_93)\n    tag_94:\n      dup3\n      0x1f\n      lt\n      tag_95\n      jumpi\n      dup1\n      mload\n      not(0xff)\n      and\n      dup4\n      dup1\n      add\n      or\n      dup6\n      sstore\n      jump(tag_93)\n    tag_95:\n      dup3\n      dup1\n      add\n      0x01\n      add\n      dup6\n      sstore\n      dup3\n      iszero\n      tag_93\n      jumpi\n      swap2\n      dup3\n      add\n    tag_96:\n      dup3\n      dup2\n      gt\n      iszero\n      tag_97\n      jumpi\n      dup3\n      mload\n      dup3\n      sstore\n      swap2\n      0x20\n      add\n      swap2\n      swap1\n      0x01\n      add\n      swap1\n      jump(tag_96)\n    tag_97:\n    tag_93:\n      pop\n      swap1\n      pop\n      tag_98\n      swap2\n      swap1\n      tag_99\n      jump\t// in\n    tag_98:\n      pop\n      swap1\n      jump\t// out\n    tag_99:\n    tag_100:\n      dup1\n      dup3\n      gt\n      iszero\n      tag_101\n      jumpi\n      0x00\n      dup2\n      0x00\n      swap1\n      sstore\n      pop\n      0x01\n      add\n      jump(tag_100)\n    tag_101:\n      pop\n      swap1\n      jump\t// out\n        /* \"#utility.yul\":7:419   */\n    tag_103:\n        /* \"#utility.yul\":85:90   */\n      0x00\n        /* \"#utility.yul\":110:176   */\n      tag_105\n        /* \"#utility.yul\":126:175   */\n      tag_106\n        /* \"#utility.yul\":168:174   */\n      dup5\n        /* \"#utility.yul\":126:175   */\n      tag_107\n      jump\t// in\n    tag_106:\n        /* \"#utility.yul\":110:176   */\n      tag_108\n      jump\t// in\n    tag_105:\n        /* \"#utility.yul\":101:176   */\n      swap1\n      pop\n        /* \"#utility.yul\":199:205   */\n      dup3\n        /* \"#utility.yul\":192:197   */\n      dup2\n        /* \"#utility.yul\":185:206   */\n      mstore\n        /* \"#utility.yul\":237:241   */\n      0x20\n        /* \"#utility.yul\":230:235   */\n      dup2\n        /* \"#utility.yul\":226:242   */\n      add\n        /* \"#utility.yul\":275:278   */\n      dup5\n        /* \"#utility.yul\":266:272   */\n      dup5\n        /* \"#utility.yul\":261:264   */\n      dup5\n        /* \"#utility.yul\":257:273   */\n      add\n        /* \"#utility.yul\":254:279   */\n      gt\n        /* \"#utility.yul\":251:363   */\n      iszero\n      tag_109\n      jumpi\n        /* \"#utility.yul\":282:361   */\n      tag_110\n      tag_111\n      jump\t// in\n    tag_110:\n        /* \"#utility.yul\":251:363   */\n    tag_109:\n        /* \"#utility.yul\":372:413   */\n      tag_112\n        /* \"#utility.yul\":406:412   */\n      dup5\n        /* \"#utility.yul\":401:404   */\n      dup3\n        /* \"#utility.yul\":396:399   */\n      dup6\n        /* \"#utility.yul\":372:413   */\n      tag_113\n      jump\t// in\n    tag_112:\n        /* \"#utility.yul\":91:419   */\n      pop\n        /* \"#utility.yul\":7:419   */\n      swap4\n      swap3\n      pop\n      pop\n      pop\n      jump\t// out\n        /* \"#utility.yul\":439:779   */\n    tag_114:\n        /* \"#utility.yul\":495:500   */\n      0x00\n        /* \"#utility.yul\":544:547   */\n      dup3\n        /* \"#utility.yul\":537:541   */\n      0x1f\n        /* \"#utility.yul\":529:535   */\n      dup4\n        /* \"#utility.yul\":525:542   */\n      add\n        /* \"#utility.yul\":521:548   */\n      slt\n        /* \"#utility.yul\":511:633   */\n      tag_116\n      jumpi\n        /* \"#utility.yul\":552:631   */\n      tag_117\n      tag_118\n      jump\t// in\n    tag_117:\n        /* \"#utility.yul\":511:633   */\n    tag_116:\n        /* \"#utility.yul\":669:675   */\n      dup2\n        /* \"#utility.yul\":656:676   */\n      calldataload\n        /* \"#utility.yul\":694:773   */\n      tag_119\n        /* \"#utility.yul\":769:772   */\n      dup5\n        /* \"#utility.yul\":761:767   */\n      dup3\n        /* \"#utility.yul\":754:758   */\n      0x20\n        /* \"#utility.yul\":746:752   */\n      dup7\n        /* \"#utility.yul\":742:759   */\n      add\n        /* \"#utility.yul\":694:773   */\n      tag_103\n      jump\t// in\n    tag_119:\n        /* \"#utility.yul\":685:773   */\n      swap2\n      pop\n        /* \"#utility.yul\":501:779   */\n      pop\n        /* \"#utility.yul\":439:779   */\n      swap3\n      swap2\n      pop\n      pop\n      jump\t// out\n        /* \"#utility.yul\":785:924   */\n    tag_120:\n        /* \"#utility.yul\":831:836   */\n      0x00\n        /* \"#utility.yul\":869:875   */\n      dup2\n        /* \"#utility.yul\":856:876   */\n      calldataload\n        /* \"#utility.yul\":847:876   */\n      swap1\n      pop\n        /* \"#utility.yul\":885:918   */\n      tag_122\n        /* \"#utility.yul\":912:917   */\n      dup2\n        /* \"#utility.yul\":885:918   */\n      tag_123\n      jump\t// in\n    tag_122:\n        /* \"#utility.yul\":785:924   */\n      swap3\n      swap2\n      pop\n      pop\n      jump\t// out\n        /* \"#utility.yul\":930:1439   */\n    tag_28:\n        /* \"#utility.yul\":999:1005   */\n      0x00\n        /* \"#utility.yul\":1048:1050   */\n      0x20\n        /* \"#utility.yul\":1036:1045   */\n      dup3\n        /* \"#utility.yul\":1027:1034   */\n      dup5\n        /* \"#utility.yul\":1023:1046   */\n      sub\n        /* \"#utility.yul\":1019:1051   */\n      slt\n        /* \"#utility.yul\":1016:1135   */\n      iszero\n      tag_125\n      jumpi\n        /* \"#utility.yul\":1054:1133   */\n      tag_126\n      tag_127\n      jump\t// in\n    tag_126:\n        /* \"#utility.yul\":1016:1135   */\n    tag_125:\n        /* \"#utility.yul\":1202:1203   */\n      0x00\n        /* \"#utility.yul\":1191:1200   */\n      dup3\n        /* \"#utility.yul\":1187:1204   */\n      add\n        /* \"#utility.yul\":1174:1205   */\n      calldataload\n        /* \"#utility.yul\":1232:1250   */\n      0xffffffffffffffff\n        /* \"#utility.yul\":1224:1230   */\n      dup2\n        /* \"#utility.yul\":1221:1251   */\n      gt\n        /* \"#utility.yul\":1218:1335   */\n      iszero\n      tag_128\n      jumpi\n        /* \"#utility.yul\":1254:1333   */\n      tag_129\n      tag_130\n      jump\t// in\n    tag_129:\n        /* \"#utility.yul\":1218:1335   */\n    tag_128:\n        /* \"#utility.yul\":1359:1422   */\n      tag_131\n        /* \"#utility.yul\":1414:1421   */\n      dup5\n        /* \"#utility.yul\":1405:1411   */\n      dup3\n        /* \"#utility.yul\":1394:1403   */\n      dup6\n        /* \"#utility.yul\":1390:1412   */\n      add\n        /* \"#utility.yul\":1359:1422   */\n      tag_114\n      jump\t// in\n    tag_131:\n        /* \"#utility.yul\":1349:1422   */\n      swap2\n      pop\n        /* \"#utility.yul\":1145:1432   */\n      pop\n        /* \"#utility.yul\":930:1439   */\n      swap3\n      swap2\n      pop\n      pop\n      jump\t// out\n        /* \"#utility.yul\":1445:1774   */\n    tag_13:\n        /* \"#utility.yul\":1504:1510   */\n      0x00\n        /* \"#utility.yul\":1553:1555   */\n      0x20\n        /* \"#utility.yul\":1541:1550   */\n      dup3\n        /* \"#utility.yul\":1532:1539   */\n      dup5\n        /* \"#utility.yul\":1528:1551   */\n      sub\n        /* \"#utility.yul\":1524:1556   */\n      slt\n        /* \"#utility.yul\":1521:1640   */\n      iszero\n      tag_133\n      jumpi\n        /* \"#utility.yul\":1559:1638   */\n      tag_134\n      tag_127\n      jump\t// in\n    tag_134:\n        /* \"#utility.yul\":1521:1640   */\n    tag_133:\n        /* \"#utility.yul\":1679:1680   */\n      0x00\n        /* \"#utility.yul\":1704:1757   */\n      tag_135\n        /* \"#utility.yul\":1749:1756   */\n      dup5\n        /* \"#utility.yul\":1740:1746   */\n      dup3\n        /* \"#utility.yul\":1729:1738   */\n      dup6\n        /* \"#utility.yul\":1725:1747   */\n      add\n        /* \"#utility.yul\":1704:1757   */\n      tag_120\n      jump\t// in\n    tag_135:\n        /* \"#utility.yul\":1694:1757   */\n      swap2\n      pop\n        /* \"#utility.yul\":1650:1767   */\n      pop\n        /* \"#utility.yul\":1445:1774   */\n      swap3\n      swap2\n      pop\n      pop\n      jump\t// out\n        /* \"#utility.yul\":1780:2028   */\n    tag_136:\n        /* \"#utility.yul\":1895:1905   */\n      0x00\n        /* \"#utility.yul\":1930:2022   */\n      tag_138\n        /* \"#utility.yul\":2018:2021   */\n      dup4\n        /* \"#utility.yul\":2010:2016   */\n      dup4\n        /* \"#utility.yul\":1930:2022   */\n      tag_139\n      jump\t// in\n    tag_138:\n        /* \"#utility.yul\":1916:2022   */\n      swap1\n      pop\n        /* \"#utility.yul\":1780:2028   */\n      swap3\n      swap2\n      pop\n      pop\n      jump\t// out\n        /* \"#utility.yul\":2102:3197   */\n    tag_140:\n        /* \"#utility.yul\":2267:2270   */\n      0x00\n        /* \"#utility.yul\":2296:2373   */\n      tag_142\n        /* \"#utility.yul\":2367:2372   */\n      dup3\n        /* \"#utility.yul\":2296:2373   */\n      tag_143\n      jump\t// in\n    tag_142:\n        /* \"#utility.yul\":2389:2498   */\n      tag_144\n        /* \"#utility.yul\":2491:2497   */\n      dup2\n        /* \"#utility.yul\":2486:2489   */\n      dup6\n        /* \"#utility.yul\":2389:2498   */\n      tag_145\n      jump\t// in\n    tag_144:\n        /* \"#utility.yul\":2382:2498   */\n      swap4\n      pop\n        /* \"#utility.yul\":2524:2527   */\n      dup4\n        /* \"#utility.yul\":2569:2573   */\n      0x20\n        /* \"#utility.yul\":2561:2567   */\n      dup3\n        /* \"#utility.yul\":2557:2574   */\n      mul\n        /* \"#utility.yul\":2552:2555   */\n      dup6\n        /* \"#utility.yul\":2548:2575   */\n      add\n        /* \"#utility.yul\":2599:2678   */\n      tag_146\n        /* \"#utility.yul\":2672:2677   */\n      dup6\n        /* \"#utility.yul\":2599:2678   */\n      tag_147\n      jump\t// in\n    tag_146:\n        /* \"#utility.yul\":2701:2708   */\n      dup1\n        /* \"#utility.yul\":2732:2733   */\n      0x00\n        /* \"#utility.yul\":2717:3152   */\n    tag_148:\n        /* \"#utility.yul\":2742:2748   */\n      dup6\n        /* \"#utility.yul\":2739:2740   */\n      dup2\n        /* \"#utility.yul\":2736:2749   */\n      lt\n        /* \"#utility.yul\":2717:3152   */\n      iszero\n      tag_150\n      jumpi\n        /* \"#utility.yul\":2813:2822   */\n      dup5\n        /* \"#utility.yul\":2807:2811   */\n      dup5\n        /* \"#utility.yul\":2803:2823   */\n      sub\n        /* \"#utility.yul\":2798:2801   */\n      dup10\n        /* \"#utility.yul\":2791:2824   */\n      mstore\n        /* \"#utility.yul\":2864:2870   */\n      dup2\n        /* \"#utility.yul\":2858:2871   */\n      mload\n        /* \"#utility.yul\":2892:3002   */\n      tag_151\n        /* \"#utility.yul\":2997:3001   */\n      dup6\n        /* \"#utility.yul\":2982:2995   */\n      dup3\n        /* \"#utility.yul\":2892:3002   */\n      tag_136\n      jump\t// in\n    tag_151:\n        /* \"#utility.yul\":2884:3002   */\n      swap5\n      pop\n        /* \"#utility.yul\":3025:3108   */\n      tag_152\n        /* \"#utility.yul\":3101:3107   */\n      dup4\n        /* \"#utility.yul\":3025:3108   */\n      tag_153\n      jump\t// in\n    tag_152:\n        /* \"#utility.yul\":3015:3108   */\n      swap3\n      pop\n        /* \"#utility.yul\":3137:3141   */\n      0x20\n        /* \"#utility.yul\":3132:3135   */\n      dup11\n        /* \"#utility.yul\":3128:3142   */\n      add\n        /* \"#utility.yul\":3121:3142   */\n      swap10\n      pop\n        /* \"#utility.yul\":2777:3152   */\n      pop\n        /* \"#utility.yul\":2764:2765   */\n      0x01\n        /* \"#utility.yul\":2761:2762   */\n      dup2\n        /* \"#utility.yul\":2757:2766   */\n      add\n        /* \"#utility.yul\":2752:2766   */\n      swap1\n      pop\n        /* \"#utility.yul\":2717:3152   */\n      jump(tag_148)\n    tag_150:\n        /* \"#utility.yul\":2721:2735   */\n      pop\n        /* \"#utility.yul\":3168:3172   */\n      dup3\n        /* \"#utility.yul\":3161:3172   */\n      swap8\n      pop\n        /* \"#utility.yul\":3188:3191   */\n      dup8\n        /* \"#utility.yul\":3181:3191   */\n      swap6\n      pop\n        /* \"#utility.yul\":2272:3197   */\n      pop\n      pop\n      pop\n      pop\n      pop\n        /* \"#utility.yul\":2102:3197   */\n      swap3\n      swap2\n      pop\n      pop\n      jump\t// out\n        /* \"#utility.yul\":3203:3547   */\n    tag_154:\n        /* \"#utility.yul\":3281:3284   */\n      0x00\n        /* \"#utility.yul\":3309:3348   */\n      tag_156\n        /* \"#utility.yul\":3342:3347   */\n      dup3\n        /* \"#utility.yul\":3309:3348   */\n      tag_157\n      jump\t// in\n    tag_156:\n        /* \"#utility.yul\":3364:3425   */\n      tag_158\n        /* \"#utility.yul\":3418:3424   */\n      dup2\n        /* \"#utility.yul\":3413:3416   */\n      dup6\n        /* \"#utility.yul\":3364:3425   */\n      tag_159\n      jump\t// in\n    tag_158:\n        /* \"#utility.yul\":3357:3425   */\n      swap4\n      pop\n        /* \"#utility.yul\":3434:3486   */\n      tag_160\n        /* \"#utility.yul\":3479:3485   */\n      dup2\n        /* \"#utility.yul\":3474:3477   */\n      dup6\n        /* \"#utility.yul\":3467:3471   */\n      0x20\n        /* \"#utility.yul\":3460:3465   */\n      dup7\n        /* \"#utility.yul\":3456:3472   */\n      add\n        /* \"#utility.yul\":3434:3486   */\n      tag_161\n      jump\t// in\n    tag_160:\n        /* \"#utility.yul\":3511:3540   */\n      tag_162\n        /* \"#utility.yul\":3533:3539   */\n      dup2\n        /* \"#utility.yul\":3511:3540   */\n      tag_163\n      jump\t// in\n    tag_162:\n        /* \"#utility.yul\":3506:3509   */\n      dup5\n        /* \"#utility.yul\":3502:3541   */\n      add\n        /* \"#utility.yul\":3495:3541   */\n      swap2\n      pop\n        /* \"#utility.yul\":3285:3547   */\n      pop\n        /* \"#utility.yul\":3203:3547   */\n      swap3\n      swap2\n      pop\n      pop\n      jump\t// out\n        /* \"#utility.yul\":3553:3917   */\n    tag_164:\n        /* \"#utility.yul\":3641:3644   */\n      0x00\n        /* \"#utility.yul\":3669:3708   */\n      tag_166\n        /* \"#utility.yul\":3702:3707   */\n      dup3\n        /* \"#utility.yul\":3669:3708   */\n      tag_157\n      jump\t// in\n    tag_166:\n        /* \"#utility.yul\":3724:3795   */\n      tag_167\n        /* \"#utility.yul\":3788:3794   */\n      dup2\n        /* \"#utility.yul\":3783:3786   */\n      dup6\n        /* \"#utility.yul\":3724:3795   */\n      tag_168\n      jump\t// in\n    tag_167:\n        /* \"#utility.yul\":3717:3795   */\n      swap4\n      pop\n        /* \"#utility.yul\":3804:3856   */\n      tag_169\n        /* \"#utility.yul\":3849:3855   */\n      dup2\n        /* \"#utility.yul\":3844:3847   */\n      dup6\n        /* \"#utility.yul\":3837:3841   */\n      0x20\n        /* \"#utility.yul\":3830:3835   */\n      dup7\n        /* \"#utility.yul\":3826:3842   */\n      add\n        /* \"#utility.yul\":3804:3856   */\n      tag_161\n      jump\t// in\n    tag_169:\n        /* \"#utility.yul\":3881:3910   */\n      tag_170\n        /* \"#utility.yul\":3903:3909   */\n      dup2\n        /* \"#utility.yul\":3881:3910   */\n      tag_163\n      jump\t// in\n    tag_170:\n        /* \"#utility.yul\":3876:3879   */\n      dup5\n        /* \"#utility.yul\":3872:3911   */\n      add\n        /* \"#utility.yul\":3865:3911   */\n      swap2\n      pop\n        /* \"#utility.yul\":3645:3917   */\n      pop\n        /* \"#utility.yul\":3553:3917   */\n      swap3\n      swap2\n      pop\n      pop\n      jump\t// out\n        /* \"#utility.yul\":3987:4585   */\n    tag_139:\n        /* \"#utility.yul\":4092:4095   */\n      0x00\n        /* \"#utility.yul\":4128:4132   */\n      0x40\n        /* \"#utility.yul\":4123:4126   */\n      dup4\n        /* \"#utility.yul\":4119:4133   */\n      add\n        /* \"#utility.yul\":4213:4217   */\n      0x00\n        /* \"#utility.yul\":4206:4211   */\n      dup4\n        /* \"#utility.yul\":4202:4218   */\n      add\n        /* \"#utility.yul\":4196:4219   */\n      mload\n        /* \"#utility.yul\":4232:4295   */\n      tag_172\n        /* \"#utility.yul\":4289:4293   */\n      0x00\n        /* \"#utility.yul\":4284:4287   */\n      dup7\n        /* \"#utility.yul\":4280:4294   */\n      add\n        /* \"#utility.yul\":4266:4278   */\n      dup3\n        /* \"#utility.yul\":4232:4295   */\n      tag_173\n      jump\t// in\n    tag_172:\n        /* \"#utility.yul\":4143:4305   */\n      pop\n        /* \"#utility.yul\":4395:4399   */\n      0x20\n        /* \"#utility.yul\":4388:4393   */\n      dup4\n        /* \"#utility.yul\":4384:4400   */\n      add\n        /* \"#utility.yul\":4378:4401   */\n      mload\n        /* \"#utility.yul\":4448:4451   */\n      dup5\n        /* \"#utility.yul\":4442:4446   */\n      dup3\n        /* \"#utility.yul\":4438:4452   */\n      sub\n        /* \"#utility.yul\":4431:4435   */\n      0x20\n        /* \"#utility.yul\":4426:4429   */\n      dup7\n        /* \"#utility.yul\":4422:4436   */\n      add\n        /* \"#utility.yul\":4415:4453   */\n      mstore\n        /* \"#utility.yul\":4474:4547   */\n      tag_174\n        /* \"#utility.yul\":4542:4546   */\n      dup3\n        /* \"#utility.yul\":4528:4540   */\n      dup3\n        /* \"#utility.yul\":4474:4547   */\n      tag_154\n      jump\t// in\n    tag_174:\n        /* \"#utility.yul\":4466:4547   */\n      swap2\n      pop\n        /* \"#utility.yul\":4315:4558   */\n      pop\n        /* \"#utility.yul\":4575:4579   */\n      dup1\n        /* \"#utility.yul\":4568:4579   */\n      swap2\n      pop\n        /* \"#utility.yul\":4097:4585   */\n      pop\n        /* \"#utility.yul\":3987:4585   */\n      swap3\n      swap2\n      pop\n      pop\n      jump\t// out\n        /* \"#utility.yul\":4655:5263   */\n    tag_175:\n        /* \"#utility.yul\":4770:4773   */\n      0x00\n        /* \"#utility.yul\":4806:4810   */\n      0x40\n        /* \"#utility.yul\":4801:4804   */\n      dup4\n        /* \"#utility.yul\":4797:4811   */\n      add\n        /* \"#utility.yul\":4891:4895   */\n      0x00\n        /* \"#utility.yul\":4884:4889   */\n      dup4\n        /* \"#utility.yul\":4880:4896   */\n      add\n        /* \"#utility.yul\":4874:4897   */\n      mload\n        /* \"#utility.yul\":4910:4973   */\n      tag_177\n        /* \"#utility.yul\":4967:4971   */\n      0x00\n        /* \"#utility.yul\":4962:4965   */\n      dup7\n        /* \"#utility.yul\":4958:4972   */\n      add\n        /* \"#utility.yul\":4944:4956   */\n      dup3\n        /* \"#utility.yul\":4910:4973   */\n      tag_173\n      jump\t// in\n    tag_177:\n        /* \"#utility.yul\":4821:4983   */\n      pop\n        /* \"#utility.yul\":5073:5077   */\n      0x20\n        /* \"#utility.yul\":5066:5071   */\n      dup4\n        /* \"#utility.yul\":5062:5078   */\n      add\n        /* \"#utility.yul\":5056:5079   */\n      mload\n        /* \"#utility.yul\":5126:5129   */\n      dup5\n        /* \"#utility.yul\":5120:5124   */\n      dup3\n        /* \"#utility.yul\":5116:5130   */\n      sub\n        /* \"#utility.yul\":5109:5113   */\n      0x20\n        /* \"#utility.yul\":5104:5107   */\n      dup7\n        /* \"#utility.yul\":5100:5114   */\n      add\n        /* \"#utility.yul\":5093:5131   */\n      mstore\n        /* \"#utility.yul\":5152:5225   */\n      tag_178\n        /* \"#utility.yul\":5220:5224   */\n      dup3\n        /* \"#utility.yul\":5206:5218   */\n      dup3\n        /* \"#utility.yul\":5152:5225   */\n      tag_154\n      jump\t// in\n    tag_178:\n        /* \"#utility.yul\":5144:5225   */\n      swap2\n      pop\n        /* \"#utility.yul\":4993:5236   */\n      pop\n        /* \"#utility.yul\":5253:5257   */\n      dup1\n        /* \"#utility.yul\":5246:5257   */\n      swap2\n      pop\n        /* \"#utility.yul\":4775:5263   */\n      pop\n        /* \"#utility.yul\":4655:5263   */\n      swap3\n      swap2\n      pop\n      pop\n      jump\t// out\n        /* \"#utility.yul\":5269:5377   */\n    tag_173:\n        /* \"#utility.yul\":5346:5370   */\n      tag_180\n        /* \"#utility.yul\":5364:5369   */\n      dup2\n        /* \"#utility.yul\":5346:5370   */\n      tag_181\n      jump\t// in\n    tag_180:\n        /* \"#utility.yul\":5341:5344   */\n      dup3\n        /* \"#utility.yul\":5334:5371   */\n      mstore\n        /* \"#utility.yul\":5269:5377   */\n      pop\n      pop\n      jump\t// out\n        /* \"#utility.yul\":5383:5501   */\n    tag_182:\n        /* \"#utility.yul\":5470:5494   */\n      tag_184\n        /* \"#utility.yul\":5488:5493   */\n      dup2\n        /* \"#utility.yul\":5470:5494   */\n      tag_181\n      jump\t// in\n    tag_184:\n        /* \"#utility.yul\":5465:5468   */\n      dup3\n        /* \"#utility.yul\":5458:5495   */\n      mstore\n        /* \"#utility.yul\":5383:5501   */\n      pop\n      pop\n      jump\t// out\n        /* \"#utility.yul\":5507:5972   */\n    tag_39:\n        /* \"#utility.yul\":5696:5700   */\n      0x00\n        /* \"#utility.yul\":5734:5736   */\n      0x20\n        /* \"#utility.yul\":5723:5732   */\n      dup3\n        /* \"#utility.yul\":5719:5737   */\n      add\n        /* \"#utility.yul\":5711:5737   */\n      swap1\n      pop\n        /* \"#utility.yul\":5783:5792   */\n      dup2\n        /* \"#utility.yul\":5777:5781   */\n      dup2\n        /* \"#utility.yul\":5773:5793   */\n      sub\n        /* \"#utility.yul\":5769:5770   */\n      0x00\n        /* \"#utility.yul\":5758:5767   */\n      dup4\n        /* \"#utility.yul\":5754:5771   */\n      add\n        /* \"#utility.yul\":5747:5794   */\n      mstore\n        /* \"#utility.yul\":5811:5965   */\n      tag_186\n        /* \"#utility.yul\":5960:5964   */\n      dup2\n        /* \"#utility.yul\":5951:5957   */\n      dup5\n        /* \"#utility.yul\":5811:5965   */\n      tag_140\n      jump\t// in\n    tag_186:\n        /* \"#utility.yul\":5803:5965   */\n      swap1\n      pop\n        /* \"#utility.yul\":5507:5972   */\n      swap3\n      swap2\n      pop\n      pop\n      jump\t// out\n        /* \"#utility.yul\":5978:6291   */\n    tag_35:\n        /* \"#utility.yul\":6091:6095   */\n      0x00\n        /* \"#utility.yul\":6129:6131   */\n      0x20\n        /* \"#utility.yul\":6118:6127   */\n      dup3\n        /* \"#utility.yul\":6114:6132   */\n      add\n        /* \"#utility.yul\":6106:6132   */\n      swap1\n      pop\n        /* \"#utility.yul\":6178:6187   */\n      dup2\n        /* \"#utility.yul\":6172:6176   */\n      dup2\n        /* \"#utility.yul\":6168:6188   */\n      sub\n        /* \"#utility.yul\":6164:6165   */\n      0x00\n        /* \"#utility.yul\":6153:6162   */\n      dup4\n        /* \"#utility.yul\":6149:6166   */\n      add\n        /* \"#utility.yul\":6142:6189   */\n      mstore\n        /* \"#utility.yul\":6206:6284   */\n      tag_188\n        /* \"#utility.yul\":6279:6283   */\n      dup2\n        /* \"#utility.yul\":6270:6276   */\n      dup5\n        /* \"#utility.yul\":6206:6284   */\n      tag_164\n      jump\t// in\n    tag_188:\n        /* \"#utility.yul\":6198:6284   */\n      swap1\n      pop\n        /* \"#utility.yul\":5978:6291   */\n      swap3\n      swap2\n      pop\n      pop\n      jump\t// out\n        /* \"#utility.yul\":6297:6662   */\n    tag_21:\n        /* \"#utility.yul\":6436:6440   */\n      0x00\n        /* \"#utility.yul\":6474:6476   */\n      0x20\n        /* \"#utility.yul\":6463:6472   */\n      dup3\n        /* \"#utility.yul\":6459:6477   */\n      add\n        /* \"#utility.yul\":6451:6477   */\n      swap1\n      pop\n        /* \"#utility.yul\":6523:6532   */\n      dup2\n        /* \"#utility.yul\":6517:6521   */\n      dup2\n        /* \"#utility.yul\":6513:6533   */\n      sub\n        /* \"#utility.yul\":6509:6510   */\n      0x00\n        /* \"#utility.yul\":6498:6507   */\n      dup4\n        /* \"#utility.yul\":6494:6511   */\n      add\n        /* \"#utility.yul\":6487:6534   */\n      mstore\n        /* \"#utility.yul\":6551:6655   */\n      tag_190\n        /* \"#utility.yul\":6650:6654   */\n      dup2\n        /* \"#utility.yul\":6641:6647   */\n      dup5\n        /* \"#utility.yul\":6551:6655   */\n      tag_175\n      jump\t// in\n    tag_190:\n        /* \"#utility.yul\":6543:6655   */\n      swap1\n      pop\n        /* \"#utility.yul\":6297:6662   */\n      swap3\n      swap2\n      pop\n      pop\n      jump\t// out\n        /* \"#utility.yul\":6668:6890   */\n    tag_25:\n        /* \"#utility.yul\":6761:6765   */\n      0x00\n        /* \"#utility.yul\":6799:6801   */\n      0x20\n        /* \"#utility.yul\":6788:6797   */\n      dup3\n        /* \"#utility.yul\":6784:6802   */\n      add\n        /* \"#utility.yul\":6776:6802   */\n      swap1\n      pop\n        /* \"#utility.yul\":6812:6883   */\n      tag_192\n        /* \"#utility.yul\":6880:6881   */\n      0x00\n        /* \"#utility.yul\":6869:6878   */\n      dup4\n        /* \"#utility.yul\":6865:6882   */\n      add\n        /* \"#utility.yul\":6856:6862   */\n      dup5\n        /* \"#utility.yul\":6812:6883   */\n      tag_182\n      jump\t// in\n    tag_192:\n        /* \"#utility.yul\":6668:6890   */\n      swap3\n      swap2\n      pop\n      pop\n      jump\t// out\n        /* \"#utility.yul\":6896:7319   */\n    tag_16:\n        /* \"#utility.yul\":7037:7041   */\n      0x00\n        /* \"#utility.yul\":7075:7077   */\n      0x40\n        /* \"#utility.yul\":7064:7073   */\n      dup3\n        /* \"#utility.yul\":7060:7078   */\n      add\n        /* \"#utility.yul\":7052:7078   */\n      swap1\n      pop\n        /* \"#utility.yul\":7088:7159   */\n      tag_194\n        /* \"#utility.yul\":7156:7157   */\n      0x00\n        /* \"#utility.yul\":7145:7154   */\n      dup4\n        /* \"#utility.yul\":7141:7158   */\n      add\n        /* \"#utility.yul\":7132:7138   */\n      dup6\n        /* \"#utility.yul\":7088:7159   */\n      tag_182\n      jump\t// in\n    tag_194:\n        /* \"#utility.yul\":7206:7215   */\n      dup2\n        /* \"#utility.yul\":7200:7204   */\n      dup2\n        /* \"#utility.yul\":7196:7216   */\n      sub\n        /* \"#utility.yul\":7191:7193   */\n      0x20\n        /* \"#utility.yul\":7180:7189   */\n      dup4\n        /* \"#utility.yul\":7176:7194   */\n      add\n        /* \"#utility.yul\":7169:7217   */\n      mstore\n        /* \"#utility.yul\":7234:7312   */\n      tag_195\n        /* \"#utility.yul\":7307:7311   */\n      dup2\n        /* \"#utility.yul\":7298:7304   */\n      dup5\n        /* \"#utility.yul\":7234:7312   */\n      tag_164\n      jump\t// in\n    tag_195:\n        /* \"#utility.yul\":7226:7312   */\n      swap1\n      pop\n        /* \"#utility.yul\":6896:7319   */\n      swap4\n      swap3\n      pop\n      pop\n      pop\n      jump\t// out\n        /* \"#utility.yul\":7325:7454   */\n    tag_108:\n        /* \"#utility.yul\":7359:7365   */\n      0x00\n        /* \"#utility.yul\":7386:7406   */\n      tag_197\n      tag_198\n      jump\t// in\n    tag_197:\n        /* \"#utility.yul\":7376:7406   */\n      swap1\n      pop\n        /* \"#utility.yul\":7415:7448   */\n      tag_199\n        /* \"#utility.yul\":7443:7447   */\n      dup3\n        /* \"#utility.yul\":7435:7441   */\n      dup3\n        /* \"#utility.yul\":7415:7448   */\n      tag_200\n      jump\t// in\n    tag_199:\n        /* \"#utility.yul\":7325:7454   */\n      swap2\n      swap1\n      pop\n      jump\t// out\n        /* \"#utility.yul\":7460:7535   */\n    tag_198:\n        /* \"#utility.yul\":7493:7499   */\n      0x00\n        /* \"#utility.yul\":7526:7528   */\n      0x40\n        /* \"#utility.yul\":7520:7529   */\n      mload\n        /* \"#utility.yul\":7510:7529   */\n      swap1\n      pop\n        /* \"#utility.yul\":7460:7535   */\n      swap1\n      jump\t// out\n        /* \"#utility.yul\":7541:7849   */\n    tag_107:\n        /* \"#utility.yul\":7603:7607   */\n      0x00\n        /* \"#utility.yul\":7693:7711   */\n      0xffffffffffffffff\n        /* \"#utility.yul\":7685:7691   */\n      dup3\n        /* \"#utility.yul\":7682:7712   */\n      gt\n        /* \"#utility.yul\":7679:7735   */\n      iszero\n      tag_203\n      jumpi\n        /* \"#utility.yul\":7715:7733   */\n      tag_204\n      tag_76\n      jump\t// in\n    tag_204:\n        /* \"#utility.yul\":7679:7735   */\n    tag_203:\n        /* \"#utility.yul\":7753:7782   */\n      tag_205\n        /* \"#utility.yul\":7775:7781   */\n      dup3\n        /* \"#utility.yul\":7753:7782   */\n      tag_163\n      jump\t// in\n    tag_205:\n        /* \"#utility.yul\":7745:7782   */\n      swap1\n      pop\n        /* \"#utility.yul\":7837:7841   */\n      0x20\n        /* \"#utility.yul\":7831:7835   */\n      dup2\n        /* \"#utility.yul\":7827:7842   */\n      add\n        /* \"#utility.yul\":7819:7842   */\n      swap1\n      pop\n        /* \"#utility.yul\":7541:7849   */\n      swap2\n      swap1\n      pop\n      jump\t// out\n        /* \"#utility.yul\":7855:8010   */\n    tag_147:\n        /* \"#utility.yul\":7945:7949   */\n      0x00\n        /* \"#utility.yul\":7968:7971   */\n      dup2\n        /* \"#utility.yul\":7960:7971   */\n      swap1\n      pop\n        /* \"#utility.yul\":7998:8002   */\n      0x20\n        /* \"#utility.yul\":7993:7996   */\n      dup3\n        /* \"#utility.yul\":7989:8003   */\n      add\n        /* \"#utility.yul\":7981:8003   */\n      swap1\n      pop\n        /* \"#utility.yul\":7855:8010   */\n      swap2\n      swap1\n      pop\n      jump\t// out\n        /* \"#utility.yul\":8016:8153   */\n    tag_143:\n        /* \"#utility.yul\":8106:8112   */\n      0x00\n        /* \"#utility.yul\":8140:8145   */\n      dup2\n        /* \"#utility.yul\":8134:8146   */\n      mload\n        /* \"#utility.yul\":8124:8146   */\n      swap1\n      pop\n        /* \"#utility.yul\":8016:8153   */\n      swap2\n      swap1\n      pop\n      jump\t// out\n        /* \"#utility.yul\":8159:8258   */\n    tag_157:\n        /* \"#utility.yul\":8211:8217   */\n      0x00\n        /* \"#utility.yul\":8245:8250   */\n      dup2\n        /* \"#utility.yul\":8239:8251   */\n      mload\n        /* \"#utility.yul\":8229:8251   */\n      swap1\n      pop\n        /* \"#utility.yul\":8159:8258   */\n      swap2\n      swap1\n      pop\n      jump\t// out\n        /* \"#utility.yul\":8264:8400   */\n    tag_153:\n        /* \"#utility.yul\":8357:8361   */\n      0x00\n        /* \"#utility.yul\":8389:8393   */\n      0x20\n        /* \"#utility.yul\":8384:8387   */\n      dup3\n        /* \"#utility.yul\":8380:8394   */\n      add\n        /* \"#utility.yul\":8372:8394   */\n      swap1\n      pop\n        /* \"#utility.yul\":8264:8400   */\n      swap2\n      swap1\n      pop\n      jump\t// out\n        /* \"#utility.yul\":8406:8613   */\n    tag_145:\n        /* \"#utility.yul\":8528:8539   */\n      0x00\n        /* \"#utility.yul\":8562:8568   */\n      dup3\n        /* \"#utility.yul\":8557:8560   */\n      dup3\n        /* \"#utility.yul\":8550:8569   */\n      mstore\n        /* \"#utility.yul\":8602:8606   */\n      0x20\n        /* \"#utility.yul\":8597:8600   */\n      dup3\n        /* \"#utility.yul\":8593:8607   */\n      add\n        /* \"#utility.yul\":8578:8607   */\n      swap1\n      pop\n        /* \"#utility.yul\":8406:8613   */\n      swap3\n      swap2\n      pop\n      pop\n      jump\t// out\n        /* \"#utility.yul\":8619:8778   */\n    tag_159:\n        /* \"#utility.yul\":8693:8704   */\n      0x00\n        /* \"#utility.yul\":8727:8733   */\n      dup3\n        /* \"#utility.yul\":8722:8725   */\n      dup3\n        /* \"#utility.yul\":8715:8734   */\n      mstore\n        /* \"#utility.yul\":8767:8771   */\n      0x20\n        /* \"#utility.yul\":8762:8765   */\n      dup3\n        /* \"#utility.yul\":8758:8772   */\n      add\n        /* \"#utility.yul\":8743:8772   */\n      swap1\n      pop\n        /* \"#utility.yul\":8619:8778   */\n      swap3\n      swap2\n      pop\n      pop\n      jump\t// out\n        /* \"#utility.yul\":8784:8953   */\n    tag_168:\n        /* \"#utility.yul\":8868:8879   */\n      0x00\n        /* \"#utility.yul\":8902:8908   */\n      dup3\n        /* \"#utility.yul\":8897:8900   */\n      dup3\n        /* \"#utility.yul\":8890:8909   */\n      mstore\n        /* \"#utility.yul\":8942:8946   */\n      0x20\n        /* \"#utility.yul\":8937:8940   */\n      dup3\n        /* \"#utility.yul\":8933:8947   */\n      add\n        /* \"#utility.yul\":8918:8947   */\n      swap1\n      pop\n        /* \"#utility.yul\":8784:8953   */\n      swap3\n      swap2\n      pop\n      pop\n      jump\t// out\n        /* \"#utility.yul\":8959:9036   */\n    tag_181:\n        /* \"#utility.yul\":8996:9003   */\n      0x00\n        /* \"#utility.yul\":9025:9030   */\n      dup2\n        /* \"#utility.yul\":9014:9030   */\n      swap1\n      pop\n        /* \"#utility.yul\":8959:9036   */\n      swap2\n      swap1\n      pop\n      jump\t// out\n        /* \"#utility.yul\":9042:9196   */\n    tag_113:\n        /* \"#utility.yul\":9126:9132   */\n      dup3\n        /* \"#utility.yul\":9121:9124   */\n      dup2\n        /* \"#utility.yul\":9116:9119   */\n      dup4\n        /* \"#utility.yul\":9103:9133   */\n      calldatacopy\n        /* \"#utility.yul\":9188:9189   */\n      0x00\n        /* \"#utility.yul\":9179:9185   */\n      dup4\n        /* \"#utility.yul\":9174:9177   */\n      dup4\n        /* \"#utility.yul\":9170:9186   */\n      add\n        /* \"#utility.yul\":9163:9190   */\n      mstore\n        /* \"#utility.yul\":9042:9196   */\n      pop\n      pop\n      pop\n      jump\t// out\n        /* \"#utility.yul\":9202:9509   */\n    tag_161:\n        /* \"#utility.yul\":9270:9271   */\n      0x00\n        /* \"#utility.yul\":9280:9393   */\n    tag_216:\n        /* \"#utility.yul\":9294:9300   */\n      dup4\n        /* \"#utility.yul\":9291:9292   */\n      dup2\n        /* \"#utility.yul\":9288:9301   */\n      lt\n        /* \"#utility.yul\":9280:9393   */\n      iszero\n      tag_218\n      jumpi\n        /* \"#utility.yul\":9379:9380   */\n      dup1\n        /* \"#utility.yul\":9374:9377   */\n      dup3\n        /* \"#utility.yul\":9370:9381   */\n      add\n        /* \"#utility.yul\":9364:9382   */\n      mload\n        /* \"#utility.yul\":9360:9361   */\n      dup2\n        /* \"#utility.yul\":9355:9358   */\n      dup5\n        /* \"#utility.yul\":9351:9362   */\n      add\n        /* \"#utility.yul\":9344:9383   */\n      mstore\n        /* \"#utility.yul\":9316:9318   */\n      0x20\n        /* \"#utility.yul\":9313:9314   */\n      dup2\n        /* \"#utility.yul\":9309:9319   */\n      add\n        /* \"#utility.yul\":9304:9319   */\n      swap1\n      pop\n        /* \"#utility.yul\":9280:9393   */\n      jump(tag_216)\n    tag_218:\n        /* \"#utility.yul\":9411:9417   */\n      dup4\n        /* \"#utility.yul\":9408:9409   */\n      dup2\n        /* \"#utility.yul\":9405:9418   */\n      gt\n        /* \"#utility.yul\":9402:9503   */\n      iszero\n      tag_219\n      jumpi\n        /* \"#utility.yul\":9491:9492   */\n      0x00\n        /* \"#utility.yul\":9482:9488   */\n      dup5\n        /* \"#utility.yul\":9477:9480   */\n      dup5\n        /* \"#utility.yul\":9473:9489   */\n      add\n        /* \"#utility.yul\":9466:9493   */\n      mstore\n        /* \"#utility.yul\":9402:9503   */\n    tag_219:\n        /* \"#utility.yul\":9251:9509   */\n      pop\n        /* \"#utility.yul\":9202:9509   */\n      pop\n      pop\n      pop\n      jump\t// out\n        /* \"#utility.yul\":9515:9835   */\n    tag_41:\n        /* \"#utility.yul\":9559:9565   */\n      0x00\n        /* \"#utility.yul\":9596:9597   */\n      0x02\n        /* \"#utility.yul\":9590:9594   */\n      dup3\n        /* \"#utility.yul\":9586:9598   */\n      div\n        /* \"#utility.yul\":9576:9598   */\n      swap1\n      pop\n        /* \"#utility.yul\":9643:9644   */\n      0x01\n        /* \"#utility.yul\":9637:9641   */\n      dup3\n        /* \"#utility.yul\":9633:9645   */\n      and\n        /* \"#utility.yul\":9664:9682   */\n      dup1\n        /* \"#utility.yul\":9654:9735   */\n      tag_221\n      jumpi\n        /* \"#utility.yul\":9720:9724   */\n      0x7f\n        /* \"#utility.yul\":9712:9718   */\n      dup3\n        /* \"#utility.yul\":9708:9725   */\n      and\n        /* \"#utility.yul\":9698:9725   */\n      swap2\n      pop\n        /* \"#utility.yul\":9654:9735   */\n    tag_221:\n        /* \"#utility.yul\":9782:9784   */\n      0x20\n        /* \"#utility.yul\":9774:9780   */\n      dup3\n        /* \"#utility.yul\":9771:9785   */\n      lt\n        /* \"#utility.yul\":9751:9769   */\n      dup2\n        /* \"#utility.yul\":9748:9786   */\n      eq\n        /* \"#utility.yul\":9745:9829   */\n      iszero\n      tag_222\n      jumpi\n        /* \"#utility.yul\":9801:9819   */\n      tag_223\n      tag_224\n      jump\t// in\n    tag_223:\n        /* \"#utility.yul\":9745:9829   */\n    tag_222:\n        /* \"#utility.yul\":9566:9835   */\n      pop\n        /* \"#utility.yul\":9515:9835   */\n      swap2\n      swap1\n      pop\n      jump\t// out\n        /* \"#utility.yul\":9841:10122   */\n    tag_200:\n        /* \"#utility.yul\":9924:9951   */\n      tag_226\n        /* \"#utility.yul\":9946:9950   */\n      dup3\n        /* \"#utility.yul\":9924:9951   */\n      tag_163\n      jump\t// in\n    tag_226:\n        /* \"#utility.yul\":9916:9922   */\n      dup2\n        /* \"#utility.yul\":9912:9952   */\n      add\n        /* \"#utility.yul\":10054:10060   */\n      dup2\n        /* \"#utility.yul\":10042:10052   */\n      dup2\n        /* \"#utility.yul\":10039:10061   */\n      lt\n        /* \"#utility.yul\":10018:10036   */\n      0xffffffffffffffff\n        /* \"#utility.yul\":10006:10016   */\n      dup3\n        /* \"#utility.yul\":10003:10037   */\n      gt\n        /* \"#utility.yul\":10000:10062   */\n      or\n        /* \"#utility.yul\":9997:10085   */\n      iszero\n      tag_227\n      jumpi\n        /* \"#utility.yul\":10065:10083   */\n      tag_228\n      tag_76\n      jump\t// in\n    tag_228:\n        /* \"#utility.yul\":9997:10085   */\n    tag_227:\n        /* \"#utility.yul\":10105:10115   */\n      dup1\n        /* \"#utility.yul\":10101:10103   */\n      0x40\n        /* \"#utility.yul\":10094:10116   */\n      mstore\n        /* \"#utility.yul\":9884:10122   */\n      pop\n        /* \"#utility.yul\":9841:10122   */\n      pop\n      pop\n      jump\t// out\n        /* \"#utility.yul\":10128:10361   */\n    tag_59:\n        /* \"#utility.yul\":10167:10170   */\n      0x00\n        /* \"#utility.yul\":10190:10214   */\n      tag_230\n        /* \"#utility.yul\":10208:10213   */\n      dup3\n        /* \"#utility.yul\":10190:10214   */\n      tag_181\n      jump\t// in\n    tag_230:\n        /* \"#utility.yul\":10181:10214   */\n      swap2\n      pop\n        /* \"#utility.yul\":10236:10302   */\n      0xffffffffffffffffffffffffffffffffffffffffffffffffffffffffffffffff\n        /* \"#utility.yul\":10229:10234   */\n      dup3\n        /* \"#utility.yul\":10226:10303   */\n      eq\n        /* \"#utility.yul\":10223:10326   */\n      iszero\n      tag_231\n      jumpi\n        /* \"#utility.yul\":10306:10324   */\n      tag_232\n      tag_233\n      jump\t// in\n    tag_232:\n        /* \"#utility.yul\":10223:10326   */\n    tag_231:\n        /* \"#utility.yul\":10353:10354   */\n      0x01\n        /* \"#utility.yul\":10346:10351   */\n      dup3\n        /* \"#utility.yul\":10342:10355   */\n      add\n        /* \"#utility.yul\":10335:10355   */\n      swap1\n      pop\n        /* \"#utility.yul\":10128:10361   */\n      swap2\n      swap1\n      pop\n      jump\t// out\n        /* \"#utility.yul\":10367:10547   */\n    tag_233:\n        /* \"#utility.yul\":10415:10492   */\n      0x4e487b7100000000000000000000000000000000000000000000000000000000\n        /* \"#utility.yul\":10412:10413   */\n      0x00\n        /* \"#utility.yul\":10405:10493   */\n      mstore\n        /* \"#utility.yul\":10512:10516   */\n      0x11\n        /* \"#utility.yul\":10509:10510   */\n      0x04\n        /* \"#utility.yul\":10502:10517   */\n      mstore\n        /* \"#utility.yul\":10536:10540   */\n      0x24\n        /* \"#utility.yul\":10533:10534   */\n      0x00\n        /* \"#utility.yul\":10526:10541   */\n      revert\n        /* \"#utility.yul\":10553:10733   */\n    tag_224:\n        /* \"#utility.yul\":10601:10678   */\n      0x4e487b7100000000000000000000000000000000000000000000000000000000\n        /* \"#utility.yul\":10598:10599   */\n      0x00\n        /* \"#utility.yul\":10591:10679   */\n      mstore\n        /* \"#utility.yul\":10698:10702   */\n      0x22\n        /* \"#utility.yul\":10695:10696   */\n      0x04\n        /* \"#utility.yul\":10688:10703   */\n      mstore\n        /* \"#utility.yul\":10722:10726   */\n      0x24\n        /* \"#utility.yul\":10719:10720   */\n      0x00\n        /* \"#utility.yul\":10712:10727   */\n      revert\n        /* \"#utility.yul\":10739:10919   */\n    tag_90:\n        /* \"#utility.yul\":10787:10864   */\n      0x4e487b7100000000000000000000000000000000000000000000000000000000\n        /* \"#utility.yul\":10784:10785   */\n      0x00\n        /* \"#utility.yul\":10777:10865   */\n      mstore\n        /* \"#utility.yul\":10884:10888   */\n      0x32\n        /* \"#utility.yul\":10881:10882   */\n      0x04\n        /* \"#utility.yul\":10874:10889   */\n      mstore\n        /* \"#utility.yul\":10908:10912   */\n      0x24\n        /* \"#utility.yul\":10905:10906   */\n      0x00\n        /* \"#utility.yul\":10898:10913   */\n      revert\n        /* \"#utility.yul\":10925:11105   */\n    tag_76:\n        /* \"#utility.yul\":10973:11050   */\n      0x4e487b7100000000000000000000000000000000000000000000000000000000\n        /* \"#utility.yul\":10970:10971   */\n      0x00\n        /* \"#utility.yul\":10963:11051   */\n      mstore\n        /* \"#utility.yul\":11070:11074   */\n      0x41\n        /* \"#utility.yul\":11067:11068   */\n      0x04\n        /* \"#utility.yul\":11060:11075   */\n      mstore\n        /* \"#utility.yul\":11094:11098   */\n      0x24\n        /* \"#utility.yul\":11091:11092   */\n      0x00\n        /* \"#utility.yul\":11084:11099   */\n      revert\n        /* \"#utility.yul\":11111:11228   */\n    tag_118:\n        /* \"#utility.yul\":11220:11221   */\n      0x00\n        /* \"#utility.yul\":11217:11218   */\n      dup1\n        /* \"#utility.yul\":11210:11222   */\n      revert\n        /* \"#utility.yul\":11234:11351   */\n    tag_111:\n        /* \"#utility.yul\":11343:11344   */\n      0x00\n        /* \"#utility.yul\":11340:11341   */\n      dup1\n        /* \"#utility.yul\":11333:11345   */\n      revert\n        /* \"#utility.yul\":11357:11474   */\n    tag_130:\n        /* \"#utility.yul\":11466:11467   */\n      0x00\n        /* \"#utility.yul\":11463:11464   */\n      dup1\n        /* \"#utility.yul\":11456:11468   */\n      revert\n        /* \"#utility.yul\":11480:11597   */\n    tag_127:\n        /* \"#utility.yul\":11589:11590   */\n      0x00\n        /* \"#utility.yul\":11586:11587   */\n      dup1\n        /* \"#utility.yul\":11579:11591   */\n      revert\n        /* \"#utility.yul\":11603:11705   */\n    tag_163:\n        /* \"#utility.yul\":11644:11650   */\n      0x00\n        /* \"#utility.yul\":11695:11697   */\n      0x1f\n        /* \"#utility.yul\":11691:11698   */\n      not\n        /* \"#utility.yul\":11686:11688   */\n      0x1f\n        /* \"#utility.yul\":11679:11684   */\n      dup4\n        /* \"#utility.yul\":11675:11689   */\n      add\n        /* \"#utility.yul\":11671:11699   */\n      and\n        /* \"#utility.yul\":11661:11699   */\n      swap1\n      pop\n        /* \"#utility.yul\":11603:11705   */\n      swap2\n      swap1\n      pop\n      jump\t// out\n        /* \"#utility.yul\":11711:11833   */\n    tag_123:\n        /* \"#utility.yul\":11784:11808   */\n      tag_244\n        /* \"#utility.yul\":11802:11807   */\n      dup2\n        /* \"#utility.yul\":11784:11808   */\n      tag_181\n      jump\t// in\n    tag_244:\n        /* \"#utility.yul\":11777:11782   */\n      dup2\n        /* \"#utility.yul\":11774:11809   */\n      eq\n        /* \"#utility.yul\":11764:11827   */\n      tag_245\n      jumpi\n        /* \"#utility.yul\":11823:11824   */\n      0x00\n        /* \"#utility.yul\":11820:11821   */\n      dup1\n        /* \"#utility.yul\":11813:11825   */\n      revert\n        /* \"#utility.yul\":11764:11827   */\n    tag_245:\n        /* \"#utility.yul\":11711:11833   */\n      pop\n      jump\t// out\n\n    auxdata: 0xa2646970667358221220e6d129b1847b942ddbe67dc0ecdd4ff45f7c3b10d1e3d8da15742678c710c47164736f6c63430008070033\n}\n",
				"bytecode": {
					"linkReferences": {},
					"object": "608060405234801561001057600080fd5b506000600281905550610cdd806100286000396000f3fe608060405234801561001057600080fd5b506004361061007d5760003560e01c806345f094d21161005b57806345f094d21461010157806356c926ae1461011d578063a3b6f35114610127578063b4579d60146101455761007d565b80630d471c161461008257806313f58f71146100b35780632ce842f4146100e3575b600080fd5b61009c6004803603810190610097919061078a565b610163565b6040516100aa9291906109cb565b60405180910390f35b6100cd60048036038101906100c8919061078a565b61020f565b6040516100da919061098e565b60405180910390f35b6100eb6102d7565b6040516100f891906109b0565b60405180910390f35b61011b60048036038101906101169190610741565b6102dd565b005b6101256102f7565b005b61012f610408565b60405161013c919061096c565b60405180910390f35b61014d61049a565b60405161015a919061094a565b60405180910390f35b600060205280600052604060002060009150905080600001549080600101805461018c90610b03565b80601f01602080910402602001604051908101604052809291908181526020018280546101b890610b03565b80156102055780601f106101da57610100808354040283529160200191610205565b820191906000526020600020905b8154815290600101906020018083116101e857829003601f168201915b5050505050905082565b6102176105ff565b6000808381526020019081526020016000206040518060400160405290816000820154815260200160018201805461024e90610b03565b80601f016020809104026020016040519081016040528092919081815260200182805461027a90610b03565b80156102c75780601f1061029c576101008083540402835291602001916102c7565b820191906000526020600020905b8154815290600101906020018083116102aa57829003601f168201915b5050505050815250509050919050565b60035481565b80600190805190602001906102f3929190610619565b5050565b6002600081548092919061030a90610b66565b9190505550604051806040016040528060025481526020016001805461032f90610b03565b80601f016020809104026020016040519081016040528092919081815260200182805461035b90610b03565b80156103a85780601f1061037d576101008083540402835291602001916103a8565b820191906000526020600020905b81548152906001019060200180831161038b57829003601f168201915b505050505081525060008060025481526020019081526020016000206000820151816000015560208201518160010190805190602001906103ea929190610619565b509050506003600081548092919061040190610b66565b9190505550565b60606001805461041790610b03565b80601f016020809104026020016040519081016040528092919081815260200182805461044390610b03565b80156104905780601f1061046557610100808354040283529160200191610490565b820191906000526020600020905b81548152906001019060200180831161047357829003601f168201915b5050505050905090565b6060600060035467ffffffffffffffff8111156104ba576104b9610c3c565b5b6040519080825280602002602001820160405280156104f357816020015b6104e06105ff565b8152602001906001900390816104d85790505b5090506000600190505b6002548110156105f75760008060008381526020019081526020016000209050806040518060400160405290816000820154815260200160018201805461054390610b03565b80601f016020809104026020016040519081016040528092919081815260200182805461056f90610b03565b80156105bc5780601f10610591576101008083540402835291602001916105bc565b820191906000526020600020905b81548152906001019060200180831161059f57829003601f168201915b5050505050815250508383815181106105d8576105d7610c0d565b5b60200260200101819052505080806105ef90610b66565b9150506104fd565b508091505090565b604051806040016040528060008152602001606081525090565b82805461062590610b03565b90600052602060002090601f016020900481019282610647576000855561068e565b82601f1061066057805160ff191683800117855561068e565b8280016001018555821561068e579182015b8281111561068d578251825591602001919060010190610672565b5b50905061069b919061069f565b5090565b5b808211156106b85760008160009055506001016106a0565b5090565b60006106cf6106ca84610a20565b6109fb565b9050828152602081018484840111156106eb576106ea610c70565b5b6106f6848285610ac1565b509392505050565b600082601f83011261071357610712610c6b565b5b81356107238482602086016106bc565b91505092915050565b60008135905061073b81610c90565b92915050565b60006020828403121561075757610756610c7a565b5b600082013567ffffffffffffffff81111561077557610774610c75565b5b610781848285016106fe565b91505092915050565b6000602082840312156107a05761079f610c7a565b5b60006107ae8482850161072c565b91505092915050565b60006107c383836108b2565b905092915050565b60006107d682610a61565b6107e08185610a84565b9350836020820285016107f285610a51565b8060005b8581101561082e578484038952815161080f85826107b7565b945061081a83610a77565b925060208a019950506001810190506107f6565b50829750879550505050505092915050565b600061084b82610a6c565b6108558185610a95565b9350610865818560208601610ad0565b61086e81610c7f565b840191505092915050565b600061088482610a6c565b61088e8185610aa6565b935061089e818560208601610ad0565b6108a781610c7f565b840191505092915050565b60006040830160008301516108ca600086018261092c565b50602083015184820360208601526108e28282610840565b9150508091505092915050565b6000604083016000830151610907600086018261092c565b506020830151848203602086015261091f8282610840565b9150508091505092915050565b61093581610ab7565b82525050565b61094481610ab7565b82525050565b6000602082019050818103600083015261096481846107cb565b905092915050565b600060208201905081810360008301526109868184610879565b905092915050565b600060208201905081810360008301526109a881846108ef565b905092915050565b60006020820190506109c5600083018461093b565b92915050565b60006040820190506109e0600083018561093b565b81810360208301526109f28184610879565b90509392505050565b6000610a05610a16565b9050610a118282610b35565b919050565b6000604051905090565b600067ffffffffffffffff821115610a3b57610a3a610c3c565b5b610a4482610c7f565b9050602081019050919050565b6000819050602082019050919050565b600081519050919050565b600081519050919050565b6000602082019050919050565b600082825260208201905092915050565b600082825260208201905092915050565b600082825260208201905092915050565b6000819050919050565b82818337600083830152505050565b60005b83811015610aee578082015181840152602081019050610ad3565b83811115610afd576000848401525b50505050565b60006002820490506001821680610b1b57607f821691505b60208210811415610b2f57610b2e610bde565b5b50919050565b610b3e82610c7f565b810181811067ffffffffffffffff82111715610b5d57610b5c610c3c565b5b80604052505050565b6000610b7182610ab7565b91507fffffffffffffffffffffffffffffffffffffffffffffffffffffffffffffffff821415610ba457610ba3610baf565b5b600182019050919050565b7f4e487b7100000000000000000000000000000000000000000000000000000000600052601160045260246000fd5b7f4e487b7100000000000000000000000000000000000000000000000000000000600052602260045260246000fd5b7f4e487b7100000000000000000000000000000000000000000000000000000000600052603260045260246000fd5b7f4e487b7100000000000000000000000000000000000000000000000000000000600052604160045260246000fd5b600080fd5b600080fd5b600080fd5b600080fd5b6000601f19601f8301169050919050565b610c9981610ab7565b8114610ca457600080fd5b5056fea2646970667358221220e6d129b1847b942ddbe67dc0ecdd4ff45f7c3b10d1e3d8da15742678c710c47164736f6c63430008070033",
					"opcodes": "PUSH1 0x80 PUSH1 0x40 MSTORE CALLVALUE DUP1 ISZERO PUSH2 0x10 JUMPI PUSH1 0x0 DUP1 REVERT JUMPDEST POP PUSH1 0x0 PUSH1 0x2 DUP2 SWAP1 SSTORE POP PUSH2 0xCDD DUP1 PUSH2 0x28 PUSH1 0x0 CODECOPY PUSH1 0x0 RETURN INVALID PUSH1 0x80 PUSH1 0x40 MSTORE CALLVALUE DUP1 ISZERO PUSH2 0x10 JUMPI PUSH1 0x0 DUP1 REVERT JUMPDEST POP PUSH1 0x4 CALLDATASIZE LT PUSH2 0x7D JUMPI PUSH1 0x0 CALLDATALOAD PUSH1 0xE0 SHR DUP1 PUSH4 0x45F094D2 GT PUSH2 0x5B JUMPI DUP1 PUSH4 0x45F094D2 EQ PUSH2 0x101 JUMPI DUP1 PUSH4 0x56C926AE EQ PUSH2 0x11D JUMPI DUP1 PUSH4 0xA3B6F351 EQ PUSH2 0x127 JUMPI DUP1 PUSH4 0xB4579D60 EQ PUSH2 0x145 JUMPI PUSH2 0x7D JUMP JUMPDEST DUP1 PUSH4 0xD471C16 EQ PUSH2 0x82 JUMPI DUP1 PUSH4 0x13F58F71 EQ PUSH2 0xB3 JUMPI DUP1 PUSH4 0x2CE842F4 EQ PUSH2 0xE3 JUMPI JUMPDEST PUSH1 0x0 DUP1 REVERT JUMPDEST PUSH2 0x9C PUSH1 0x4 DUP1 CALLDATASIZE SUB DUP2 ADD SWAP1 PUSH2 0x97 SWAP2 SWAP1 PUSH2 0x78A JUMP JUMPDEST PUSH2 0x163 JUMP JUMPDEST PUSH1 0x40 MLOAD PUSH2 0xAA SWAP3 SWAP2 SWAP1 PUSH2 0x9CB JUMP JUMPDEST PUSH1 0x40 MLOAD DUP1 SWAP2 SUB SWAP1 RETURN JUMPDEST PUSH2 0xCD PUSH1 0x4 DUP1 CALLDATASIZE SUB DUP2 ADD SWAP1 PUSH2 0xC8 SWAP2 SWAP1 PUSH2 0x78A JUMP JUMPDEST PUSH2 0x20F JUMP JUMPDEST PUSH1 0x40 MLOAD PUSH2 0xDA SWAP2 SWAP1 PUSH2 0x98E JUMP JUMPDEST PUSH1 0x40 MLOAD DUP1 SWAP2 SUB SWAP1 RETURN JUMPDEST PUSH2 0xEB PUSH2 0x2D7 JUMP JUMPDEST PUSH1 0x40 MLOAD PUSH2 0xF8 SWAP2 SWAP1 PUSH2 0x9B0 JUMP JUMPDEST PUSH1 0x40 MLOAD DUP1 SWAP2 SUB SWAP1 RETURN JUMPDEST PUSH2 0x11B PUSH1 0x4 DUP1 CALLDATASIZE SUB DUP2 ADD SWAP1 PUSH2 0x116 SWAP2 SWAP1 PUSH2 0x741 JUMP JUMPDEST PUSH2 0x2DD JUMP JUMPDEST STOP JUMPDEST PUSH2 0x125 PUSH2 0x2F7 JUMP JUMPDEST STOP JUMPDEST PUSH2 0x12F PUSH2 0x408 JUMP JUMPDEST PUSH1 0x40 MLOAD PUSH2 0x13C SWAP2 SWAP1 PUSH2 0x96C JUMP JUMPDEST PUSH1 0x40 MLOAD DUP1 SWAP2 SUB SWAP1 RETURN JUMPDEST PUSH2 0x14D PUSH2 0x49A JUMP JUMPDEST PUSH1 0x40 MLOAD PUSH2 0x15A SWAP2 SWAP1 PUSH2 0x94A JUMP JUMPDEST PUSH1 0x40 MLOAD DUP1 SWAP2 SUB SWAP1 RETURN JUMPDEST PUSH1 0x0 PUSH1 0x20 MSTORE DUP1 PUSH1 0x0 MSTORE PUSH1 0x40 PUSH1 0x0 KECCAK256 PUSH1 0x0 SWAP2 POP SWAP1 POP DUP1 PUSH1 0x0 ADD SLOAD SWAP1 DUP1 PUSH1 0x1 ADD DUP1 SLOAD PUSH2 0x18C SWAP1 PUSH2 0xB03 JUMP JUMPDEST DUP1 PUSH1 0x1F ADD PUSH1 0x20 DUP1 SWAP2 DIV MUL PUSH1 0x20 ADD PUSH1 0x40 MLOAD SWAP1 DUP2 ADD PUSH1 0x40 MSTORE DUP1 SWAP3 SWAP2 SWAP1 DUP2 DUP2 MSTORE PUSH1 0x20 ADD DUP3 DUP1 SLOAD PUSH2 0x1B8 SWAP1 PUSH2 0xB03 JUMP JUMPDEST DUP1 ISZERO PUSH2 0x205 JUMPI DUP1 PUSH1 0x1F LT PUSH2 0x1DA JUMPI PUSH2 0x100 DUP1 DUP4 SLOAD DIV MUL DUP4 MSTORE SWAP2 PUSH1 0x20 ADD SWAP2 PUSH2 0x205 JUMP JUMPDEST DUP3 ADD SWAP2 SWAP1 PUSH1 0x0 MSTORE PUSH1 0x20 PUSH1 0x0 KECCAK256 SWAP1 JUMPDEST DUP2 SLOAD DUP2 MSTORE SWAP1 PUSH1 0x1 ADD SWAP1 PUSH1 0x20 ADD DUP1 DUP4 GT PUSH2 0x1E8 JUMPI DUP3 SWAP1 SUB PUSH1 0x1F AND DUP3 ADD SWAP2 JUMPDEST POP POP POP POP POP SWAP1 POP DUP3 JUMP JUMPDEST PUSH2 0x217 PUSH2 0x5FF JUMP JUMPDEST PUSH1 0x0 DUP1 DUP4 DUP2 MSTORE PUSH1 0x20 ADD SWAP1 DUP2 MSTORE PUSH1 0x20 ADD PUSH1 0x0 KECCAK256 PUSH1 0x40 MLOAD DUP1 PUSH1 0x40 ADD PUSH1 0x40 MSTORE SWAP1 DUP2 PUSH1 0x0 DUP3 ADD SLOAD DUP2 MSTORE PUSH1 0x20 ADD PUSH1 0x1 DUP3 ADD DUP1 SLOAD PUSH2 0x24E SWAP1 PUSH2 0xB03 JUMP JUMPDEST DUP1 PUSH1 0x1F ADD PUSH1 0x20 DUP1 SWAP2 DIV MUL PUSH1 0x20 ADD PUSH1 0x40 MLOAD SWAP1 DUP2 ADD PUSH1 0x40 MSTORE DUP1 SWAP3 SWAP2 SWAP1 DUP2 DUP2 MSTORE PUSH1 0x20 ADD DUP3 DUP1 SLOAD PUSH2 0x27A SWAP1 PUSH2 0xB03 JUMP JUMPDEST DUP1 ISZERO PUSH2 0x2C7 JUMPI DUP1 PUSH1 0x1F LT PUSH2 0x29C JUMPI PUSH2 0x100 DUP1 DUP4 SLOAD DIV MUL DUP4 MSTORE SWAP2 PUSH1 0x20 ADD SWAP2 PUSH2 0x2C7 JUMP JUMPDEST DUP3 ADD SWAP2 SWAP1 PUSH1 0x0 MSTORE PUSH1 0x20 PUSH1 0x0 KECCAK256 SWAP1 JUMPDEST DUP2 SLOAD DUP2 MSTORE SWAP1 PUSH1 0x1 ADD SWAP1 PUSH1 0x20 ADD DUP1 DUP4 GT PUSH2 0x2AA JUMPI DUP3 SWAP1 SUB PUSH1 0x1F AND DUP3 ADD SWAP2 JUMPDEST POP POP POP POP POP DUP2 MSTORE POP POP SWAP1 POP SWAP2 SWAP1 POP JUMP JUMPDEST PUSH1 0x3 SLOAD DUP2 JUMP JUMPDEST DUP1 PUSH1 0x1 SWAP1 DUP1 MLOAD SWAP1 PUSH1 0x20 ADD SWAP1 PUSH2 0x2F3 SWAP3 SWAP2 SWAP1 PUSH2 0x619 JUMP JUMPDEST POP POP JUMP JUMPDEST PUSH1 0x2 PUSH1 0x0 DUP2 SLOAD DUP1 SWAP3 SWAP2 SWAP1 PUSH2 0x30A SWAP1 PUSH2 0xB66 JUMP JUMPDEST SWAP2 SWAP1 POP SSTORE POP PUSH1 0x40 MLOAD DUP1 PUSH1 0x40 ADD PUSH1 0x40 MSTORE DUP1 PUSH1 0x2 SLOAD DUP2 MSTORE PUSH1 0x20 ADD PUSH1 0x1 DUP1 SLOAD PUSH2 0x32F SWAP1 PUSH2 0xB03 JUMP JUMPDEST DUP1 PUSH1 0x1F ADD PUSH1 0x20 DUP1 SWAP2 DIV MUL PUSH1 0x20 ADD PUSH1 0x40 MLOAD SWAP1 DUP2 ADD PUSH1 0x40 MSTORE DUP1 SWAP3 SWAP2 SWAP1 DUP2 DUP2 MSTORE PUSH1 0x20 ADD DUP3 DUP1 SLOAD PUSH2 0x35B SWAP1 PUSH2 0xB03 JUMP JUMPDEST DUP1 ISZERO PUSH2 0x3A8 JUMPI DUP1 PUSH1 0x1F LT PUSH2 0x37D JUMPI PUSH2 0x100 DUP1 DUP4 SLOAD DIV MUL DUP4 MSTORE SWAP2 PUSH1 0x20 ADD SWAP2 PUSH2 0x3A8 JUMP JUMPDEST DUP3 ADD SWAP2 SWAP1 PUSH1 0x0 MSTORE PUSH1 0x20 PUSH1 0x0 KECCAK256 SWAP1 JUMPDEST DUP2 SLOAD DUP2 MSTORE SWAP1 PUSH1 0x1 ADD SWAP1 PUSH1 0x20 ADD DUP1 DUP4 GT PUSH2 0x38B JUMPI DUP3 SWAP1 SUB PUSH1 0x1F AND DUP3 ADD SWAP2 JUMPDEST POP POP POP POP POP DUP2 MSTORE POP PUSH1 0x0 DUP1 PUSH1 0x2 SLOAD DUP2 MSTORE PUSH1 0x20 ADD SWAP1 DUP2 MSTORE PUSH1 0x20 ADD PUSH1 0x0 KECCAK256 PUSH1 0x0 DUP3 ADD MLOAD DUP2 PUSH1 0x0 ADD SSTORE PUSH1 0x20 DUP3 ADD MLOAD DUP2 PUSH1 0x1 ADD SWAP1 DUP1 MLOAD SWAP1 PUSH1 0x20 ADD SWAP1 PUSH2 0x3EA SWAP3 SWAP2 SWAP1 PUSH2 0x619 JUMP JUMPDEST POP SWAP1 POP POP PUSH1 0x3 PUSH1 0x0 DUP2 SLOAD DUP1 SWAP3 SWAP2 SWAP1 PUSH2 0x401 SWAP1 PUSH2 0xB66 JUMP JUMPDEST SWAP2 SWAP1 POP SSTORE POP JUMP JUMPDEST PUSH1 0x60 PUSH1 0x1 DUP1 SLOAD PUSH2 0x417 SWAP1 PUSH2 0xB03 JUMP JUMPDEST DUP1 PUSH1 0x1F ADD PUSH1 0x20 DUP1 SWAP2 DIV MUL PUSH1 0x20 ADD PUSH1 0x40 MLOAD SWAP1 DUP2 ADD PUSH1 0x40 MSTORE DUP1 SWAP3 SWAP2 SWAP1 DUP2 DUP2 MSTORE PUSH1 0x20 ADD DUP3 DUP1 SLOAD PUSH2 0x443 SWAP1 PUSH2 0xB03 JUMP JUMPDEST DUP1 ISZERO PUSH2 0x490 JUMPI DUP1 PUSH1 0x1F LT PUSH2 0x465 JUMPI PUSH2 0x100 DUP1 DUP4 SLOAD DIV MUL DUP4 MSTORE SWAP2 PUSH1 0x20 ADD SWAP2 PUSH2 0x490 JUMP JUMPDEST DUP3 ADD SWAP2 SWAP1 PUSH1 0x0 MSTORE PUSH1 0x20 PUSH1 0x0 KECCAK256 SWAP1 JUMPDEST DUP2 SLOAD DUP2 MSTORE SWAP1 PUSH1 0x1 ADD SWAP1 PUSH1 0x20 ADD DUP1 DUP4 GT PUSH2 0x473 JUMPI DUP3 SWAP1 SUB PUSH1 0x1F AND DUP3 ADD SWAP2 JUMPDEST POP POP POP POP POP SWAP1 POP SWAP1 JUMP JUMPDEST PUSH1 0x60 PUSH1 0x0 PUSH1 0x3 SLOAD PUSH8 0xFFFFFFFFFFFFFFFF DUP2 GT ISZERO PUSH2 0x4BA JUMPI PUSH2 0x4B9 PUSH2 0xC3C JUMP JUMPDEST JUMPDEST PUSH1 0x40 MLOAD SWAP1 DUP1 DUP3 MSTORE DUP1 PUSH1 0x20 MUL PUSH1 0x20 ADD DUP3 ADD PUSH1 0x40 MSTORE DUP1 ISZERO PUSH2 0x4F3 JUMPI DUP2 PUSH1 0x20 ADD JUMPDEST PUSH2 0x4E0 PUSH2 0x5FF JUMP JUMPDEST DUP2 MSTORE PUSH1 0x20 ADD SWAP1 PUSH1 0x1 SWAP1 SUB SWAP1 DUP2 PUSH2 0x4D8 JUMPI SWAP1 POP JUMPDEST POP SWAP1 POP PUSH1 0x0 PUSH1 0x1 SWAP1 POP JUMPDEST PUSH1 0x2 SLOAD DUP2 LT ISZERO PUSH2 0x5F7 JUMPI PUSH1 0x0 DUP1 PUSH1 0x0 DUP4 DUP2 MSTORE PUSH1 0x20 ADD SWAP1 DUP2 MSTORE PUSH1 0x20 ADD PUSH1 0x0 KECCAK256 SWAP1 POP DUP1 PUSH1 0x40 MLOAD DUP1 PUSH1 0x40 ADD PUSH1 0x40 MSTORE SWAP1 DUP2 PUSH1 0x0 DUP3 ADD SLOAD DUP2 MSTORE PUSH1 0x20 ADD PUSH1 0x1 DUP3 ADD DUP1 SLOAD PUSH2 0x543 SWAP1 PUSH2 0xB03 JUMP JUMPDEST DUP1 PUSH1 0x1F ADD PUSH1 0x20 DUP1 SWAP2 DIV MUL PUSH1 0x20 ADD PUSH1 0x40 MLOAD SWAP1 DUP2 ADD PUSH1 0x40 MSTORE DUP1 SWAP3 SWAP2 SWAP1 DUP2 DUP2 MSTORE PUSH1 0x20 ADD DUP3 DUP1 SLOAD PUSH2 0x56F SWAP1 PUSH2 0xB03 JUMP JUMPDEST DUP1 ISZERO PUSH2 0x5BC JUMPI DUP1 PUSH1 0x1F LT PUSH2 0x591 JUMPI PUSH2 0x100 DUP1 DUP4 SLOAD DIV MUL DUP4 MSTORE SWAP2 PUSH1 0x20 ADD SWAP2 PUSH2 0x5BC JUMP JUMPDEST DUP3 ADD SWAP2 SWAP1 PUSH1 0x0 MSTORE PUSH1 0x20 PUSH1 0x0 KECCAK256 SWAP1 JUMPDEST DUP2 SLOAD DUP2 MSTORE SWAP1 PUSH1 0x1 ADD SWAP1 PUSH1 0x20 ADD DUP1 DUP4 GT PUSH2 0x59F JUMPI DUP3 SWAP1 SUB PUSH1 0x1F AND DUP3 ADD SWAP2 JUMPDEST POP POP POP POP POP DUP2 MSTORE POP POP DUP4 DUP4 DUP2 MLOAD DUP2 LT PUSH2 0x5D8 JUMPI PUSH2 0x5D7 PUSH2 0xC0D JUMP JUMPDEST JUMPDEST PUSH1 0x20 MUL PUSH1 0x20 ADD ADD DUP2 SWAP1 MSTORE POP POP DUP1 DUP1 PUSH2 0x5EF SWAP1 PUSH2 0xB66 JUMP JUMPDEST SWAP2 POP POP PUSH2 0x4FD JUMP JUMPDEST POP DUP1 SWAP2 POP POP SWAP1 JUMP JUMPDEST PUSH1 0x40 MLOAD DUP1 PUSH1 0x40 ADD PUSH1 0x40 MSTORE DUP1 PUSH1 0x0 DUP2 MSTORE PUSH1 0x20 ADD PUSH1 0x60 DUP2 MSTORE POP SWAP1 JUMP JUMPDEST DUP3 DUP1 SLOAD PUSH2 0x625 SWAP1 PUSH2 0xB03 JUMP JUMPDEST SWAP1 PUSH1 0x0 MSTORE PUSH1 0x20 PUSH1 0x0 KECCAK256 SWAP1 PUSH1 0x1F ADD PUSH1 0x20 SWAP1 DIV DUP2 ADD SWAP3 DUP3 PUSH2 0x647 JUMPI PUSH1 0x0 DUP6 SSTORE PUSH2 0x68E JUMP JUMPDEST DUP3 PUSH1 0x1F LT PUSH2 0x660 JUMPI DUP1 MLOAD PUSH1 0xFF NOT AND DUP4 DUP1 ADD OR DUP6 SSTORE PUSH2 0x68E JUMP JUMPDEST DUP3 DUP1 ADD PUSH1 0x1 ADD DUP6 SSTORE DUP3 ISZERO PUSH2 0x68E JUMPI SWAP2 DUP3 ADD JUMPDEST DUP3 DUP2 GT ISZERO PUSH2 0x68D JUMPI DUP3 MLOAD DUP3 SSTORE SWAP2 PUSH1 0x20 ADD SWAP2 SWAP1 PUSH1 0x1 ADD SWAP1 PUSH2 0x672 JUMP JUMPDEST JUMPDEST POP SWAP1 POP PUSH2 0x69B SWAP2 SWAP1 PUSH2 0x69F JUMP JUMPDEST POP SWAP1 JUMP JUMPDEST JUMPDEST DUP1 DUP3 GT ISZERO PUSH2 0x6B8 JUMPI PUSH1 0x0 DUP2 PUSH1 0x0 SWAP1 SSTORE POP PUSH1 0x1 ADD PUSH2 0x6A0 JUMP JUMPDEST POP SWAP1 JUMP JUMPDEST PUSH1 0x0 PUSH2 0x6CF PUSH2 0x6CA DUP5 PUSH2 0xA20 JUMP JUMPDEST PUSH2 0x9FB JUMP JUMPDEST SWAP1 POP DUP3 DUP2 MSTORE PUSH1 0x20 DUP2 ADD DUP5 DUP5 DUP5 ADD GT ISZERO PUSH2 0x6EB JUMPI PUSH2 0x6EA PUSH2 0xC70 JUMP JUMPDEST JUMPDEST PUSH2 0x6F6 DUP5 DUP3 DUP6 PUSH2 0xAC1 JUMP JUMPDEST POP SWAP4 SWAP3 POP POP POP JUMP JUMPDEST PUSH1 0x0 DUP3 PUSH1 0x1F DUP4 ADD SLT PUSH2 0x713 JUMPI PUSH2 0x712 PUSH2 0xC6B JUMP JUMPDEST JUMPDEST DUP2 CALLDATALOAD PUSH2 0x723 DUP5 DUP3 PUSH1 0x20 DUP7 ADD PUSH2 0x6BC JUMP JUMPDEST SWAP2 POP POP SWAP3 SWAP2 POP POP JUMP JUMPDEST PUSH1 0x0 DUP2 CALLDATALOAD SWAP1 POP PUSH2 0x73B DUP2 PUSH2 0xC90 JUMP JUMPDEST SWAP3 SWAP2 POP POP JUMP JUMPDEST PUSH1 0x0 PUSH1 0x20 DUP3 DUP5 SUB SLT ISZERO PUSH2 0x757 JUMPI PUSH2 0x756 PUSH2 0xC7A JUMP JUMPDEST JUMPDEST PUSH1 0x0 DUP3 ADD CALLDATALOAD PUSH8 0xFFFFFFFFFFFFFFFF DUP2 GT ISZERO PUSH2 0x775 JUMPI PUSH2 0x774 PUSH2 0xC75 JUMP JUMPDEST JUMPDEST PUSH2 0x781 DUP5 DUP3 DUP6 ADD PUSH2 0x6FE JUMP JUMPDEST SWAP2 POP POP SWAP3 SWAP2 POP POP JUMP JUMPDEST PUSH1 0x0 PUSH1 0x20 DUP3 DUP5 SUB SLT ISZERO PUSH2 0x7A0 JUMPI PUSH2 0x79F PUSH2 0xC7A JUMP JUMPDEST JUMPDEST PUSH1 0x0 PUSH2 0x7AE DUP5 DUP3 DUP6 ADD PUSH2 0x72C JUMP JUMPDEST SWAP2 POP POP SWAP3 SWAP2 POP POP JUMP JUMPDEST PUSH1 0x0 PUSH2 0x7C3 DUP4 DUP4 PUSH2 0x8B2 JUMP JUMPDEST SWAP1 POP SWAP3 SWAP2 POP POP JUMP JUMPDEST PUSH1 0x0 PUSH2 0x7D6 DUP3 PUSH2 0xA61 JUMP JUMPDEST PUSH2 0x7E0 DUP2 DUP6 PUSH2 0xA84 JUMP JUMPDEST SWAP4 POP DUP4 PUSH1 0x20 DUP3 MUL DUP6 ADD PUSH2 0x7F2 DUP6 PUSH2 0xA51 JUMP JUMPDEST DUP1 PUSH1 0x0 JUMPDEST DUP6 DUP2 LT ISZERO PUSH2 0x82E JUMPI DUP5 DUP5 SUB DUP10 MSTORE DUP2 MLOAD PUSH2 0x80F DUP6 DUP3 PUSH2 0x7B7 JUMP JUMPDEST SWAP5 POP PUSH2 0x81A DUP4 PUSH2 0xA77 JUMP JUMPDEST SWAP3 POP PUSH1 0x20 DUP11 ADD SWAP10 POP POP PUSH1 0x1 DUP2 ADD SWAP1 POP PUSH2 0x7F6 JUMP JUMPDEST POP DUP3 SWAP8 POP DUP8 SWAP6 POP POP POP POP POP POP SWAP3 SWAP2 POP POP JUMP JUMPDEST PUSH1 0x0 PUSH2 0x84B DUP3 PUSH2 0xA6C JUMP JUMPDEST PUSH2 0x855 DUP2 DUP6 PUSH2 0xA95 JUMP JUMPDEST SWAP4 POP PUSH2 0x865 DUP2 DUP6 PUSH1 0x20 DUP7 ADD PUSH2 0xAD0 JUMP JUMPDEST PUSH2 0x86E DUP2 PUSH2 0xC7F JUMP JUMPDEST DUP5 ADD SWAP2 POP POP SWAP3 SWAP2 POP POP JUMP JUMPDEST PUSH1 0x0 PUSH2 0x884 DUP3 PUSH2 0xA6C JUMP JUMPDEST PUSH2 0x88E DUP2 DUP6 PUSH2 0xAA6 JUMP JUMPDEST SWAP4 POP PUSH2 0x89E DUP2 DUP6 PUSH1 0x20 DUP7 ADD PUSH2 0xAD0 JUMP JUMPDEST PUSH2 0x8A7 DUP2 PUSH2 0xC7F JUMP JUMPDEST DUP5 ADD SWAP2 POP POP SWAP3 SWAP2 POP POP JUMP JUMPDEST PUSH1 0x0 PUSH1 0x40 DUP4 ADD PUSH1 0x0 DUP4 ADD MLOAD PUSH2 0x8CA PUSH1 0x0 DUP7 ADD DUP3 PUSH2 0x92C JUMP JUMPDEST POP PUSH1 0x20 DUP4 ADD MLOAD DUP5 DUP3 SUB PUSH1 0x20 DUP7 ADD MSTORE PUSH2 0x8E2 DUP3 DUP3 PUSH2 0x840 JUMP JUMPDEST SWAP2 POP POP DUP1 SWAP2 POP POP SWAP3 SWAP2 POP POP JUMP JUMPDEST PUSH1 0x0 PUSH1 0x40 DUP4 ADD PUSH1 0x0 DUP4 ADD MLOAD PUSH2 0x907 PUSH1 0x0 DUP7 ADD DUP3 PUSH2 0x92C JUMP JUMPDEST POP PUSH1 0x20 DUP4 ADD MLOAD DUP5 DUP3 SUB PUSH1 0x20 DUP7 ADD MSTORE PUSH2 0x91F DUP3 DUP3 PUSH2 0x840 JUMP JUMPDEST SWAP2 POP POP DUP1 SWAP2 POP POP SWAP3 SWAP2 POP POP JUMP JUMPDEST PUSH2 0x935 DUP2 PUSH2 0xAB7 JUMP JUMPDEST DUP3 MSTORE POP POP JUMP JUMPDEST PUSH2 0x944 DUP2 PUSH2 0xAB7 JUMP JUMPDEST DUP3 MSTORE POP POP JUMP JUMPDEST PUSH1 0x0 PUSH1 0x20 DUP3 ADD SWAP1 POP DUP2 DUP2 SUB PUSH1 0x0 DUP4 ADD MSTORE PUSH2 0x964 DUP2 DUP5 PUSH2 0x7CB JUMP JUMPDEST SWAP1 POP SWAP3 SWAP2 POP POP JUMP JUMPDEST PUSH1 0x0 PUSH1 0x20 DUP3 ADD SWAP1 POP DUP2 DUP2 SUB PUSH1 0x0 DUP4 ADD MSTORE PUSH2 0x986 DUP2 DUP5 PUSH2 0x879 JUMP JUMPDEST SWAP1 POP SWAP3 SWAP2 POP POP JUMP JUMPDEST PUSH1 0x0 PUSH1 0x20 DUP3 ADD SWAP1 POP DUP2 DUP2 SUB PUSH1 0x0 DUP4 ADD MSTORE PUSH2 0x9A8 DUP2 DUP5 PUSH2 0x8EF JUMP JUMPDEST SWAP1 POP SWAP3 SWAP2 POP POP JUMP JUMPDEST PUSH1 0x0 PUSH1 0x20 DUP3 ADD SWAP1 POP PUSH2 0x9C5 PUSH1 0x0 DUP4 ADD DUP5 PUSH2 0x93B JUMP JUMPDEST SWAP3 SWAP2 POP POP JUMP JUMPDEST PUSH1 0x0 PUSH1 0x40 DUP3 ADD SWAP1 POP PUSH2 0x9E0 PUSH1 0x0 DUP4 ADD DUP6 PUSH2 0x93B JUMP JUMPDEST DUP2 DUP2 SUB PUSH1 0x20 DUP4 ADD MSTORE PUSH2 0x9F2 DUP2 DUP5 PUSH2 0x879 JUMP JUMPDEST SWAP1 POP SWAP4 SWAP3 POP POP POP JUMP JUMPDEST PUSH1 0x0 PUSH2 0xA05 PUSH2 0xA16 JUMP JUMPDEST SWAP1 POP PUSH2 0xA11 DUP3 DUP3 PUSH2 0xB35 JUMP JUMPDEST SWAP2 SWAP1 POP JUMP JUMPDEST PUSH1 0x0 PUSH1 0x40 MLOAD SWAP1 POP SWAP1 JUMP JUMPDEST PUSH1 0x0 PUSH8 0xFFFFFFFFFFFFFFFF DUP3 GT ISZERO PUSH2 0xA3B JUMPI PUSH2 0xA3A PUSH2 0xC3C JUMP JUMPDEST JUMPDEST PUSH2 0xA44 DUP3 PUSH2 0xC7F JUMP JUMPDEST SWAP1 POP PUSH1 0x20 DUP2 ADD SWAP1 POP SWAP2 SWAP1 POP JUMP JUMPDEST PUSH1 0x0 DUP2 SWAP1 POP PUSH1 0x20 DUP3 ADD SWAP1 POP SWAP2 SWAP1 POP JUMP JUMPDEST PUSH1 0x0 DUP2 MLOAD SWAP1 POP SWAP2 SWAP1 POP JUMP JUMPDEST PUSH1 0x0 DUP2 MLOAD SWAP1 POP SWAP2 SWAP1 POP JUMP JUMPDEST PUSH1 0x0 PUSH1 0x20 DUP3 ADD SWAP1 POP SWAP2 SWAP1 POP JUMP JUMPDEST PUSH1 0x0 DUP3 DUP3 MSTORE PUSH1 0x20 DUP3 ADD SWAP1 POP SWAP3 SWAP2 POP POP JUMP JUMPDEST PUSH1 0x0 DUP3 DUP3 MSTORE PUSH1 0x20 DUP3 ADD SWAP1 POP SWAP3 SWAP2 POP POP JUMP JUMPDEST PUSH1 0x0 DUP3 DUP3 MSTORE PUSH1 0x20 DUP3 ADD SWAP1 POP SWAP3 SWAP2 POP POP JUMP JUMPDEST PUSH1 0x0 DUP2 SWAP1 POP SWAP2 SWAP1 POP JUMP JUMPDEST DUP3 DUP2 DUP4 CALLDATACOPY PUSH1 0x0 DUP4 DUP4 ADD MSTORE POP POP POP JUMP JUMPDEST PUSH1 0x0 JUMPDEST DUP4 DUP2 LT ISZERO PUSH2 0xAEE JUMPI DUP1 DUP3 ADD MLOAD DUP2 DUP5 ADD MSTORE PUSH1 0x20 DUP2 ADD SWAP1 POP PUSH2 0xAD3 JUMP JUMPDEST DUP4 DUP2 GT ISZERO PUSH2 0xAFD JUMPI PUSH1 0x0 DUP5 DUP5 ADD MSTORE JUMPDEST POP POP POP POP JUMP JUMPDEST PUSH1 0x0 PUSH1 0x2 DUP3 DIV SWAP1 POP PUSH1 0x1 DUP3 AND DUP1 PUSH2 0xB1B JUMPI PUSH1 0x7F DUP3 AND SWAP2 POP JUMPDEST PUSH1 0x20 DUP3 LT DUP2 EQ ISZERO PUSH2 0xB2F JUMPI PUSH2 0xB2E PUSH2 0xBDE JUMP JUMPDEST JUMPDEST POP SWAP2 SWAP1 POP JUMP JUMPDEST PUSH2 0xB3E DUP3 PUSH2 0xC7F JUMP JUMPDEST DUP2 ADD DUP2 DUP2 LT PUSH8 0xFFFFFFFFFFFFFFFF DUP3 GT OR ISZERO PUSH2 0xB5D JUMPI PUSH2 0xB5C PUSH2 0xC3C JUMP JUMPDEST JUMPDEST DUP1 PUSH1 0x40 MSTORE POP POP POP JUMP JUMPDEST PUSH1 0x0 PUSH2 0xB71 DUP3 PUSH2 0xAB7 JUMP JUMPDEST SWAP2 POP PUSH32 0xFFFFFFFFFFFFFFFFFFFFFFFFFFFFFFFFFFFFFFFFFFFFFFFFFFFFFFFFFFFFFFFF DUP3 EQ ISZERO PUSH2 0xBA4 JUMPI PUSH2 0xBA3 PUSH2 0xBAF JUMP JUMPDEST JUMPDEST PUSH1 0x1 DUP3 ADD SWAP1 POP SWAP2 SWAP1 POP JUMP JUMPDEST PUSH32 0x4E487B7100000000000000000000000000000000000000000000000000000000 PUSH1 0x0 MSTORE PUSH1 0x11 PUSH1 0x4 MSTORE PUSH1 0x24 PUSH1 0x0 REVERT JUMPDEST PUSH32 0x4E487B7100000000000000000000000000000000000000000000000000000000 PUSH1 0x0 MSTORE PUSH1 0x22 PUSH1 0x4 MSTORE PUSH1 0x24 PUSH1 0x0 REVERT JUMPDEST PUSH32 0x4E487B7100000000000000000000000000000000000000000000000000000000 PUSH1 0x0 MSTORE PUSH1 0x32 PUSH1 0x4 MSTORE PUSH1 0x24 PUSH1 0x0 REVERT JUMPDEST PUSH32 0x4E487B7100000000000000000000000000000000000000000000000000000000 PUSH1 0x0 MSTORE PUSH1 0x41 PUSH1 0x4 MSTORE PUSH1 0x24 PUSH1 0x0 REVERT JUMPDEST PUSH1 0x0 DUP1 REVERT JUMPDEST PUSH1 0x0 DUP1 REVERT JUMPDEST PUSH1 0x0 DUP1 REVERT JUMPDEST PUSH1 0x0 DUP1 REVERT JUMPDEST PUSH1 0x0 PUSH1 0x1F NOT PUSH1 0x1F DUP4 ADD AND SWAP1 POP SWAP2 SWAP1 POP JUMP JUMPDEST PUSH2 0xC99 DUP2 PUSH2 0xAB7 JUMP JUMPDEST DUP2 EQ PUSH2 0xCA4 JUMPI PUSH1 0x0 DUP1 REVERT JUMPDEST POP JUMP INVALID LOG2 PUSH5 0x6970667358 0x22 SLT KECCAK256 0xE6 0xD1 0x29 0xB1 DUP5 PUSH28 0x942DDBE67DC0ECDD4FF45F7C3B10D1E3D8DA15742678C710C4716473 PUSH16 0x6C634300080700330000000000000000 "
				},
				"gasEstimates": {
					"creation": {
						"codeDepositCost": "658600",
						"executionCost": "5703",
						"totalCost": "664303"
					},
					"external": {
						"AddUserType()": "infinite",
						"getTypes()": "infinite",
						"getUserType(uint256)": "infinite",
						"getUserTypeName()": "infinite",
						"iTypesCount()": "2474",
						"oUserTypes(uint256)": "infinite",
						"setUserTypeName(string)": "infinite"
					}
				},
				"methodIdentifiers": {
					"AddUserType()": "56c926ae",
					"getTypes()": "b4579d60",
					"getUserType(uint256)": "13f58f71",
					"getUserTypeName()": "a3b6f351",
					"iTypesCount()": "2ce842f4",
					"oUserTypes(uint256)": "0d471c16",
					"setUserTypeName(string)": "45f094d2"
				}
			},
			"userdoc": {
				"kind": "user",
				"methods": {},
				"version": 1
			}
		}
	}
}