{
	"contracts/Drugs.sol": {
		"Drugs": {
			"abi": [
				{
					"inputs": [],
					"stateMutability": "nonpayable",
					"type": "constructor"
				},
				{
					"inputs": [
						{
							"internalType": "address",
							"name": "_manufacturer",
							"type": "address"
						}
					],
					"name": "addDrug",
					"outputs": [],
					"stateMutability": "nonpayable",
					"type": "function"
				},
				{
					"inputs": [
						{
							"internalType": "uint256",
							"name": "",
							"type": "uint256"
						}
					],
					"name": "drugs",
					"outputs": [
						{
							"internalType": "uint256",
							"name": "DrugID",
							"type": "uint256"
						},
						{
							"internalType": "address",
							"name": "Manufacturer",
							"type": "address"
						}
					],
					"stateMutability": "view",
					"type": "function"
				},
				{
					"inputs": [],
					"name": "drugsCount",
					"outputs": [
						{
							"internalType": "uint256",
							"name": "",
							"type": "uint256"
						}
					],
					"stateMutability": "view",
					"type": "function"
				}
			],
			"devdoc": {
				"kind": "dev",
				"methods": {},
				"version": 1
			},
			"evm": {
				"assembly": "    /* \"contracts/Drugs.sol\":97:516  contract Drugs {\r... */\n  mstore(0x40, 0x80)\n    /* \"contracts/Drugs.sol\":318:366  constructor()  {\r... */\n  callvalue\n  dup1\n  iszero\n  tag_1\n  jumpi\n  0x00\n  dup1\n  revert\ntag_1:\n  pop\n    /* \"contracts/Drugs.sol\":357:358  0 */\n  0x00\n    /* \"contracts/Drugs.sol\":344:354  drugsCount */\n  0x01\n    /* \"contracts/Drugs.sol\":344:358  drugsCount = 0 */\n  dup2\n  swap1\n  sstore\n  pop\n    /* \"contracts/Drugs.sol\":97:516  contract Drugs {\r... */\n  dataSize(sub_0)\n  dup1\n  dataOffset(sub_0)\n  0x00\n  codecopy\n  0x00\n  return\nstop\n\nsub_0: assembly {\n        /* \"contracts/Drugs.sol\":97:516  contract Drugs {\r... */\n      mstore(0x40, 0x80)\n      callvalue\n      dup1\n      iszero\n      tag_1\n      jumpi\n      0x00\n      dup1\n      revert\n    tag_1:\n      pop\n      jumpi(tag_2, lt(calldatasize, 0x04))\n      shr(0xe0, calldataload(0x00))\n      dup1\n      0x193de85d\n      eq\n      tag_3\n      jumpi\n      dup1\n      0x92812e6f\n      eq\n      tag_4\n      jumpi\n      dup1\n      0xfca5e61e\n      eq\n      tag_5\n      jumpi\n    tag_2:\n      0x00\n      dup1\n      revert\n        /* \"contracts/Drugs.sol\":372:511  function addDrug(address _manufacturer) public {\r... */\n    tag_3:\n      tag_6\n      0x04\n      dup1\n      calldatasize\n      sub\n      dup2\n      add\n      swap1\n      tag_7\n      swap2\n      swap1\n      tag_8\n      jump\t// in\n    tag_7:\n      tag_9\n      jump\t// in\n    tag_6:\n      stop\n        /* \"contracts/Drugs.sol\":289:311  uint public drugsCount */\n    tag_4:\n      tag_10\n      tag_11\n      jump\t// in\n    tag_10:\n      mload(0x40)\n      tag_12\n      swap2\n      swap1\n      tag_13\n      jump\t// in\n    tag_12:\n      mload(0x40)\n      dup1\n      swap2\n      sub\n      swap1\n      return\n        /* \"contracts/Drugs.sol\":197:232  mapping (uint => Drug) public drugs */\n    tag_5:\n      tag_14\n      0x04\n      dup1\n      calldatasize\n      sub\n      dup2\n      add\n      swap1\n      tag_15\n      swap2\n      swap1\n      tag_16\n      jump\t// in\n    tag_15:\n      tag_17\n      jump\t// in\n    tag_14:\n      mload(0x40)\n      tag_18\n      swap3\n      swap2\n      swap1\n      tag_19\n      jump\t// in\n    tag_18:\n      mload(0x40)\n      dup1\n      swap2\n      sub\n      swap1\n      return\n        /* \"contracts/Drugs.sol\":372:511  function addDrug(address _manufacturer) public {\r... */\n    tag_9:\n        /* \"contracts/Drugs.sol\":450:480  Drug(drugsCount,_manufacturer) */\n      mload(0x40)\n      dup1\n      0x40\n      add\n      0x40\n      mstore\n      dup1\n        /* \"contracts/Drugs.sol\":455:465  drugsCount */\n      sload(0x01)\n        /* \"contracts/Drugs.sol\":450:480  Drug(drugsCount,_manufacturer) */\n      dup2\n      mstore\n      0x20\n      add\n        /* \"contracts/Drugs.sol\":466:479  _manufacturer */\n      dup3\n        /* \"contracts/Drugs.sol\":450:480  Drug(drugsCount,_manufacturer) */\n      0xffffffffffffffffffffffffffffffffffffffff\n      and\n      dup2\n      mstore\n      pop\n        /* \"contracts/Drugs.sol\":430:435  drugs */\n      0x00\n        /* \"contracts/Drugs.sol\":430:447  drugs[drugsCount] */\n      dup1\n        /* \"contracts/Drugs.sol\":436:446  drugsCount */\n      sload(0x01)\n        /* \"contracts/Drugs.sol\":430:447  drugs[drugsCount] */\n      dup2\n      mstore\n      0x20\n      add\n      swap1\n      dup2\n      mstore\n      0x20\n      add\n      0x00\n      keccak256\n        /* \"contracts/Drugs.sol\":430:480  drugs[drugsCount] = Drug(drugsCount,_manufacturer) */\n      0x00\n      dup3\n      add\n      mload\n      dup2\n      0x00\n      add\n      sstore\n      0x20\n      dup3\n      add\n      mload\n      dup2\n      0x01\n      add\n      exp(0x0100, 0x00)\n      dup2\n      sload\n      dup2\n      0xffffffffffffffffffffffffffffffffffffffff\n      mul\n      not\n      and\n      swap1\n      dup4\n      0xffffffffffffffffffffffffffffffffffffffff\n      and\n      mul\n      or\n      swap1\n      sstore\n      pop\n      swap1\n      pop\n      pop\n        /* \"contracts/Drugs.sol\":491:501  drugsCount */\n      0x01\n      0x00\n        /* \"contracts/Drugs.sol\":491:503  drugsCount++ */\n      dup2\n      sload\n      dup1\n      swap3\n      swap2\n      swap1\n      tag_21\n      swap1\n      tag_22\n      jump\t// in\n    tag_21:\n      swap2\n      swap1\n      pop\n      sstore\n      pop\n        /* \"contracts/Drugs.sol\":372:511  function addDrug(address _manufacturer) public {\r... */\n      pop\n      jump\t// out\n        /* \"contracts/Drugs.sol\":289:311  uint public drugsCount */\n    tag_11:\n      sload(0x01)\n      dup2\n      jump\t// out\n        /* \"contracts/Drugs.sol\":197:232  mapping (uint => Drug) public drugs */\n    tag_17:\n      mstore(0x20, 0x00)\n      dup1\n      0x00\n      mstore\n      keccak256(0x00, 0x40)\n      0x00\n      swap2\n      pop\n      swap1\n      pop\n      dup1\n      0x00\n      add\n      sload\n      swap1\n      dup1\n      0x01\n      add\n      0x00\n      swap1\n      sload\n      swap1\n      0x0100\n      exp\n      swap1\n      div\n      0xffffffffffffffffffffffffffffffffffffffff\n      and\n      swap1\n      pop\n      dup3\n      jump\t// out\n        /* \"#utility.yul\":7:146   */\n    tag_24:\n        /* \"#utility.yul\":53:58   */\n      0x00\n        /* \"#utility.yul\":91:97   */\n      dup2\n        /* \"#utility.yul\":78:98   */\n      calldataload\n        /* \"#utility.yul\":69:98   */\n      swap1\n      pop\n        /* \"#utility.yul\":107:140   */\n      tag_26\n        /* \"#utility.yul\":134:139   */\n      dup2\n        /* \"#utility.yul\":107:140   */\n      tag_27\n      jump\t// in\n    tag_26:\n        /* \"#utility.yul\":7:146   */\n      swap3\n      swap2\n      pop\n      pop\n      jump\t// out\n        /* \"#utility.yul\":152:291   */\n    tag_28:\n        /* \"#utility.yul\":198:203   */\n      0x00\n        /* \"#utility.yul\":236:242   */\n      dup2\n        /* \"#utility.yul\":223:243   */\n      calldataload\n        /* \"#utility.yul\":214:243   */\n      swap1\n      pop\n        /* \"#utility.yul\":252:285   */\n      tag_30\n        /* \"#utility.yul\":279:284   */\n      dup2\n        /* \"#utility.yul\":252:285   */\n      tag_31\n      jump\t// in\n    tag_30:\n        /* \"#utility.yul\":152:291   */\n      swap3\n      swap2\n      pop\n      pop\n      jump\t// out\n        /* \"#utility.yul\":297:626   */\n    tag_8:\n        /* \"#utility.yul\":356:362   */\n      0x00\n        /* \"#utility.yul\":405:407   */\n      0x20\n        /* \"#utility.yul\":393:402   */\n      dup3\n        /* \"#utility.yul\":384:391   */\n      dup5\n        /* \"#utility.yul\":380:403   */\n      sub\n        /* \"#utility.yul\":376:408   */\n      slt\n        /* \"#utility.yul\":373:492   */\n      iszero\n      tag_33\n      jumpi\n        /* \"#utility.yul\":411:490   */\n      tag_34\n      tag_35\n      jump\t// in\n    tag_34:\n        /* \"#utility.yul\":373:492   */\n    tag_33:\n        /* \"#utility.yul\":531:532   */\n      0x00\n        /* \"#utility.yul\":556:609   */\n      tag_36\n        /* \"#utility.yul\":601:608   */\n      dup5\n        /* \"#utility.yul\":592:598   */\n      dup3\n        /* \"#utility.yul\":581:590   */\n      dup6\n        /* \"#utility.yul\":577:599   */\n      add\n        /* \"#utility.yul\":556:609   */\n      tag_24\n      jump\t// in\n    tag_36:\n        /* \"#utility.yul\":546:609   */\n      swap2\n      pop\n        /* \"#utility.yul\":502:619   */\n      pop\n        /* \"#utility.yul\":297:626   */\n      swap3\n      swap2\n      pop\n      pop\n      jump\t// out\n        /* \"#utility.yul\":632:961   */\n    tag_16:\n        /* \"#utility.yul\":691:697   */\n      0x00\n        /* \"#utility.yul\":740:742   */\n      0x20\n        /* \"#utility.yul\":728:737   */\n      dup3\n        /* \"#utility.yul\":719:726   */\n      dup5\n        /* \"#utility.yul\":715:738   */\n      sub\n        /* \"#utility.yul\":711:743   */\n      slt\n        /* \"#utility.yul\":708:827   */\n      iszero\n      tag_38\n      jumpi\n        /* \"#utility.yul\":746:825   */\n      tag_39\n      tag_35\n      jump\t// in\n    tag_39:\n        /* \"#utility.yul\":708:827   */\n    tag_38:\n        /* \"#utility.yul\":866:867   */\n      0x00\n        /* \"#utility.yul\":891:944   */\n      tag_40\n        /* \"#utility.yul\":936:943   */\n      dup5\n        /* \"#utility.yul\":927:933   */\n      dup3\n        /* \"#utility.yul\":916:925   */\n      dup6\n        /* \"#utility.yul\":912:934   */\n      add\n        /* \"#utility.yul\":891:944   */\n      tag_28\n      jump\t// in\n    tag_40:\n        /* \"#utility.yul\":881:944   */\n      swap2\n      pop\n        /* \"#utility.yul\":837:954   */\n      pop\n        /* \"#utility.yul\":632:961   */\n      swap3\n      swap2\n      pop\n      pop\n      jump\t// out\n        /* \"#utility.yul\":967:1085   */\n    tag_41:\n        /* \"#utility.yul\":1054:1078   */\n      tag_43\n        /* \"#utility.yul\":1072:1077   */\n      dup2\n        /* \"#utility.yul\":1054:1078   */\n      tag_44\n      jump\t// in\n    tag_43:\n        /* \"#utility.yul\":1049:1052   */\n      dup3\n        /* \"#utility.yul\":1042:1079   */\n      mstore\n        /* \"#utility.yul\":967:1085   */\n      pop\n      pop\n      jump\t// out\n        /* \"#utility.yul\":1091:1209   */\n    tag_45:\n        /* \"#utility.yul\":1178:1202   */\n      tag_47\n        /* \"#utility.yul\":1196:1201   */\n      dup2\n        /* \"#utility.yul\":1178:1202   */\n      tag_48\n      jump\t// in\n    tag_47:\n        /* \"#utility.yul\":1173:1176   */\n      dup3\n        /* \"#utility.yul\":1166:1203   */\n      mstore\n        /* \"#utility.yul\":1091:1209   */\n      pop\n      pop\n      jump\t// out\n        /* \"#utility.yul\":1215:1437   */\n    tag_13:\n        /* \"#utility.yul\":1308:1312   */\n      0x00\n        /* \"#utility.yul\":1346:1348   */\n      0x20\n        /* \"#utility.yul\":1335:1344   */\n      dup3\n        /* \"#utility.yul\":1331:1349   */\n      add\n        /* \"#utility.yul\":1323:1349   */\n      swap1\n      pop\n        /* \"#utility.yul\":1359:1430   */\n      tag_50\n        /* \"#utility.yul\":1427:1428   */\n      0x00\n        /* \"#utility.yul\":1416:1425   */\n      dup4\n        /* \"#utility.yul\":1412:1429   */\n      add\n        /* \"#utility.yul\":1403:1409   */\n      dup5\n        /* \"#utility.yul\":1359:1430   */\n      tag_45\n      jump\t// in\n    tag_50:\n        /* \"#utility.yul\":1215:1437   */\n      swap3\n      swap2\n      pop\n      pop\n      jump\t// out\n        /* \"#utility.yul\":1443:1775   */\n    tag_19:\n        /* \"#utility.yul\":1564:1568   */\n      0x00\n        /* \"#utility.yul\":1602:1604   */\n      0x40\n        /* \"#utility.yul\":1591:1600   */\n      dup3\n        /* \"#utility.yul\":1587:1605   */\n      add\n        /* \"#utility.yul\":1579:1605   */\n      swap1\n      pop\n        /* \"#utility.yul\":1615:1686   */\n      tag_52\n        /* \"#utility.yul\":1683:1684   */\n      0x00\n        /* \"#utility.yul\":1672:1681   */\n      dup4\n        /* \"#utility.yul\":1668:1685   */\n      add\n        /* \"#utility.yul\":1659:1665   */\n      dup6\n        /* \"#utility.yul\":1615:1686   */\n      tag_45\n      jump\t// in\n    tag_52:\n        /* \"#utility.yul\":1696:1768   */\n      tag_53\n        /* \"#utility.yul\":1764:1766   */\n      0x20\n        /* \"#utility.yul\":1753:1762   */\n      dup4\n        /* \"#utility.yul\":1749:1767   */\n      add\n        /* \"#utility.yul\":1740:1746   */\n      dup5\n        /* \"#utility.yul\":1696:1768   */\n      tag_41\n      jump\t// in\n    tag_53:\n        /* \"#utility.yul\":1443:1775   */\n      swap4\n      swap3\n      pop\n      pop\n      pop\n      jump\t// out\n        /* \"#utility.yul\":1862:1958   */\n    tag_44:\n        /* \"#utility.yul\":1899:1906   */\n      0x00\n        /* \"#utility.yul\":1928:1952   */\n      tag_57\n        /* \"#utility.yul\":1946:1951   */\n      dup3\n        /* \"#utility.yul\":1928:1952   */\n      tag_58\n      jump\t// in\n    tag_57:\n        /* \"#utility.yul\":1917:1952   */\n      swap1\n      pop\n        /* \"#utility.yul\":1862:1958   */\n      swap2\n      swap1\n      pop\n      jump\t// out\n        /* \"#utility.yul\":1964:2090   */\n    tag_58:\n        /* \"#utility.yul\":2001:2008   */\n      0x00\n        /* \"#utility.yul\":2041:2083   */\n      0xffffffffffffffffffffffffffffffffffffffff\n        /* \"#utility.yul\":2034:2039   */\n      dup3\n        /* \"#utility.yul\":2030:2084   */\n      and\n        /* \"#utility.yul\":2019:2084   */\n      swap1\n      pop\n        /* \"#utility.yul\":1964:2090   */\n      swap2\n      swap1\n      pop\n      jump\t// out\n        /* \"#utility.yul\":2096:2173   */\n    tag_48:\n        /* \"#utility.yul\":2133:2140   */\n      0x00\n        /* \"#utility.yul\":2162:2167   */\n      dup2\n        /* \"#utility.yul\":2151:2167   */\n      swap1\n      pop\n        /* \"#utility.yul\":2096:2173   */\n      swap2\n      swap1\n      pop\n      jump\t// out\n        /* \"#utility.yul\":2179:2412   */\n    tag_22:\n        /* \"#utility.yul\":2218:2221   */\n      0x00\n        /* \"#utility.yul\":2241:2265   */\n      tag_62\n        /* \"#utility.yul\":2259:2264   */\n      dup3\n        /* \"#utility.yul\":2241:2265   */\n      tag_48\n      jump\t// in\n    tag_62:\n        /* \"#utility.yul\":2232:2265   */\n      swap2\n      pop\n        /* \"#utility.yul\":2287:2353   */\n      0xffffffffffffffffffffffffffffffffffffffffffffffffffffffffffffffff\n        /* \"#utility.yul\":2280:2285   */\n      dup3\n        /* \"#utility.yul\":2277:2354   */\n      eq\n        /* \"#utility.yul\":2274:2377   */\n      iszero\n      tag_63\n      jumpi\n        /* \"#utility.yul\":2357:2375   */\n      tag_64\n      tag_65\n      jump\t// in\n    tag_64:\n        /* \"#utility.yul\":2274:2377   */\n    tag_63:\n        /* \"#utility.yul\":2404:2405   */\n      0x01\n        /* \"#utility.yul\":2397:2402   */\n      dup3\n        /* \"#utility.yul\":2393:2406   */\n      add\n        /* \"#utility.yul\":2386:2406   */\n      swap1\n      pop\n        /* \"#utility.yul\":2179:2412   */\n      swap2\n      swap1\n      pop\n      jump\t// out\n        /* \"#utility.yul\":2418:2598   */\n    tag_65:\n        /* \"#utility.yul\":2466:2543   */\n      0x4e487b7100000000000000000000000000000000000000000000000000000000\n        /* \"#utility.yul\":2463:2464   */\n      0x00\n        /* \"#utility.yul\":2456:2544   */\n      mstore\n        /* \"#utility.yul\":2563:2567   */\n      0x11\n        /* \"#utility.yul\":2560:2561   */\n      0x04\n        /* \"#utility.yul\":2553:2568   */\n      mstore\n        /* \"#utility.yul\":2587:2591   */\n      0x24\n        /* \"#utility.yul\":2584:2585   */\n      0x00\n        /* \"#utility.yul\":2577:2592   */\n      revert\n        /* \"#utility.yul\":2727:2844   */\n    tag_35:\n        /* \"#utility.yul\":2836:2837   */\n      0x00\n        /* \"#utility.yul\":2833:2834   */\n      dup1\n        /* \"#utility.yul\":2826:2838   */\n      revert\n        /* \"#utility.yul\":2850:2972   */\n    tag_27:\n        /* \"#utility.yul\":2923:2947   */\n      tag_71\n        /* \"#utility.yul\":2941:2946   */\n      dup2\n        /* \"#utility.yul\":2923:2947   */\n      tag_44\n      jump\t// in\n    tag_71:\n        /* \"#utility.yul\":2916:2921   */\n      dup2\n        /* \"#utility.yul\":2913:2948   */\n      eq\n        /* \"#utility.yul\":2903:2966   */\n      tag_72\n      jumpi\n        /* \"#utility.yul\":2962:2963   */\n      0x00\n        /* \"#utility.yul\":2959:2960   */\n      dup1\n        /* \"#utility.yul\":2952:2964   */\n      revert\n        /* \"#utility.yul\":2903:2966   */\n    tag_72:\n        /* \"#utility.yul\":2850:2972   */\n      pop\n      jump\t// out\n        /* \"#utility.yul\":2978:3100   */\n    tag_31:\n        /* \"#utility.yul\":3051:3075   */\n      tag_74\n        /* \"#utility.yul\":3069:3074   */\n      dup2\n        /* \"#utility.yul\":3051:3075   */\n      tag_48\n      jump\t// in\n    tag_74:\n        /* \"#utility.yul\":3044:3049   */\n      dup2\n        /* \"#utility.yul\":3041:3076   */\n      eq\n        /* \"#utility.yul\":3031:3094   */\n      tag_75\n      jumpi\n        /* \"#utility.yul\":3090:3091   */\n      0x00\n        /* \"#utility.yul\":3087:3088   */\n      dup1\n        /* \"#utility.yul\":3080:3092   */\n      revert\n        /* \"#utility.yul\":3031:3094   */\n    tag_75:\n        /* \"#utility.yul\":2978:3100   */\n      pop\n      jump\t// out\n\n    auxdata: 0xa26469706673582212200c0b16656192e2914b60f43e65f2a380809ab525564634bb20712f35207587cc64736f6c63430008070033\n}\n",
				"bytecode": {
					"linkReferences": {},
					"object": "608060405234801561001057600080fd5b5060006001819055506103ae806100286000396000f3fe608060405234801561001057600080fd5b50600436106100415760003560e01c8063193de85d1461004657806392812e6f14610062578063fca5e61e14610080575b600080fd5b610060600480360381019061005b91906101d5565b6100b1565b005b61006a610161565b604051610077919061024d565b60405180910390f35b61009a60048036038101906100959190610202565b610167565b6040516100a8929190610268565b60405180910390f35b604051806040016040528060015481526020018273ffffffffffffffffffffffffffffffffffffffff1681525060008060015481526020019081526020016000206000820151816000015560208201518160010160006101000a81548173ffffffffffffffffffffffffffffffffffffffff021916908373ffffffffffffffffffffffffffffffffffffffff16021790555090505060016000815480929190610159906102cd565b919050555050565b60015481565b60006020528060005260406000206000915090508060000154908060010160009054906101000a900473ffffffffffffffffffffffffffffffffffffffff16905082565b6000813590506101ba8161034a565b92915050565b6000813590506101cf81610361565b92915050565b6000602082840312156101eb576101ea610345565b5b60006101f9848285016101ab565b91505092915050565b60006020828403121561021857610217610345565b5b6000610226848285016101c0565b91505092915050565b61023881610291565b82525050565b610247816102c3565b82525050565b6000602082019050610262600083018461023e565b92915050565b600060408201905061027d600083018561023e565b61028a602083018461022f565b9392505050565b600061029c826102a3565b9050919050565b600073ffffffffffffffffffffffffffffffffffffffff82169050919050565b6000819050919050565b60006102d8826102c3565b91507fffffffffffffffffffffffffffffffffffffffffffffffffffffffffffffffff82141561030b5761030a610316565b5b600182019050919050565b7f4e487b7100000000000000000000000000000000000000000000000000000000600052601160045260246000fd5b600080fd5b61035381610291565b811461035e57600080fd5b50565b61036a816102c3565b811461037557600080fd5b5056fea26469706673582212200c0b16656192e2914b60f43e65f2a380809ab525564634bb20712f35207587cc64736f6c63430008070033",
					"opcodes": "PUSH1 0x80 PUSH1 0x40 MSTORE CALLVALUE DUP1 ISZERO PUSH2 0x10 JUMPI PUSH1 0x0 DUP1 REVERT JUMPDEST POP PUSH1 0x0 PUSH1 0x1 DUP2 SWAP1 SSTORE POP PUSH2 0x3AE DUP1 PUSH2 0x28 PUSH1 0x0 CODECOPY PUSH1 0x0 RETURN INVALID PUSH1 0x80 PUSH1 0x40 MSTORE CALLVALUE DUP1 ISZERO PUSH2 0x10 JUMPI PUSH1 0x0 DUP1 REVERT JUMPDEST POP PUSH1 0x4 CALLDATASIZE LT PUSH2 0x41 JUMPI PUSH1 0x0 CALLDATALOAD PUSH1 0xE0 SHR DUP1 PUSH4 0x193DE85D EQ PUSH2 0x46 JUMPI DUP1 PUSH4 0x92812E6F EQ PUSH2 0x62 JUMPI DUP1 PUSH4 0xFCA5E61E EQ PUSH2 0x80 JUMPI JUMPDEST PUSH1 0x0 DUP1 REVERT JUMPDEST PUSH2 0x60 PUSH1 0x4 DUP1 CALLDATASIZE SUB DUP2 ADD SWAP1 PUSH2 0x5B SWAP2 SWAP1 PUSH2 0x1D5 JUMP JUMPDEST PUSH2 0xB1 JUMP JUMPDEST STOP JUMPDEST PUSH2 0x6A PUSH2 0x161 JUMP JUMPDEST PUSH1 0x40 MLOAD PUSH2 0x77 SWAP2 SWAP1 PUSH2 0x24D JUMP JUMPDEST PUSH1 0x40 MLOAD DUP1 SWAP2 SUB SWAP1 RETURN JUMPDEST PUSH2 0x9A PUSH1 0x4 DUP1 CALLDATASIZE SUB DUP2 ADD SWAP1 PUSH2 0x95 SWAP2 SWAP1 PUSH2 0x202 JUMP JUMPDEST PUSH2 0x167 JUMP JUMPDEST PUSH1 0x40 MLOAD PUSH2 0xA8 SWAP3 SWAP2 SWAP1 PUSH2 0x268 JUMP JUMPDEST PUSH1 0x40 MLOAD DUP1 SWAP2 SUB SWAP1 RETURN JUMPDEST PUSH1 0x40 MLOAD DUP1 PUSH1 0x40 ADD PUSH1 0x40 MSTORE DUP1 PUSH1 0x1 SLOAD DUP2 MSTORE PUSH1 0x20 ADD DUP3 PUSH20 0xFFFFFFFFFFFFFFFFFFFFFFFFFFFFFFFFFFFFFFFF AND DUP2 MSTORE POP PUSH1 0x0 DUP1 PUSH1 0x1 SLOAD DUP2 MSTORE PUSH1 0x20 ADD SWAP1 DUP2 MSTORE PUSH1 0x20 ADD PUSH1 0x0 KECCAK256 PUSH1 0x0 DUP3 ADD MLOAD DUP2 PUSH1 0x0 ADD SSTORE PUSH1 0x20 DUP3 ADD MLOAD DUP2 PUSH1 0x1 ADD PUSH1 0x0 PUSH2 0x100 EXP DUP2 SLOAD DUP2 PUSH20 0xFFFFFFFFFFFFFFFFFFFFFFFFFFFFFFFFFFFFFFFF MUL NOT AND SWAP1 DUP4 PUSH20 0xFFFFFFFFFFFFFFFFFFFFFFFFFFFFFFFFFFFFFFFF AND MUL OR SWAP1 SSTORE POP SWAP1 POP POP PUSH1 0x1 PUSH1 0x0 DUP2 SLOAD DUP1 SWAP3 SWAP2 SWAP1 PUSH2 0x159 SWAP1 PUSH2 0x2CD JUMP JUMPDEST SWAP2 SWAP1 POP SSTORE POP POP JUMP JUMPDEST PUSH1 0x1 SLOAD DUP2 JUMP JUMPDEST PUSH1 0x0 PUSH1 0x20 MSTORE DUP1 PUSH1 0x0 MSTORE PUSH1 0x40 PUSH1 0x0 KECCAK256 PUSH1 0x0 SWAP2 POP SWAP1 POP DUP1 PUSH1 0x0 ADD SLOAD SWAP1 DUP1 PUSH1 0x1 ADD PUSH1 0x0 SWAP1 SLOAD SWAP1 PUSH2 0x100 EXP SWAP1 DIV PUSH20 0xFFFFFFFFFFFFFFFFFFFFFFFFFFFFFFFFFFFFFFFF AND SWAP1 POP DUP3 JUMP JUMPDEST PUSH1 0x0 DUP2 CALLDATALOAD SWAP1 POP PUSH2 0x1BA DUP2 PUSH2 0x34A JUMP JUMPDEST SWAP3 SWAP2 POP POP JUMP JUMPDEST PUSH1 0x0 DUP2 CALLDATALOAD SWAP1 POP PUSH2 0x1CF DUP2 PUSH2 0x361 JUMP JUMPDEST SWAP3 SWAP2 POP POP JUMP JUMPDEST PUSH1 0x0 PUSH1 0x20 DUP3 DUP5 SUB SLT ISZERO PUSH2 0x1EB JUMPI PUSH2 0x1EA PUSH2 0x345 JUMP JUMPDEST JUMPDEST PUSH1 0x0 PUSH2 0x1F9 DUP5 DUP3 DUP6 ADD PUSH2 0x1AB JUMP JUMPDEST SWAP2 POP POP SWAP3 SWAP2 POP POP JUMP JUMPDEST PUSH1 0x0 PUSH1 0x20 DUP3 DUP5 SUB SLT ISZERO PUSH2 0x218 JUMPI PUSH2 0x217 PUSH2 0x345 JUMP JUMPDEST JUMPDEST PUSH1 0x0 PUSH2 0x226 DUP5 DUP3 DUP6 ADD PUSH2 0x1C0 JUMP JUMPDEST SWAP2 POP POP SWAP3 SWAP2 POP POP JUMP JUMPDEST PUSH2 0x238 DUP2 PUSH2 0x291 JUMP JUMPDEST DUP3 MSTORE POP POP JUMP JUMPDEST PUSH2 0x247 DUP2 PUSH2 0x2C3 JUMP JUMPDEST DUP3 MSTORE POP POP JUMP JUMPDEST PUSH1 0x0 PUSH1 0x20 DUP3 ADD SWAP1 POP PUSH2 0x262 PUSH1 0x0 DUP4 ADD DUP5 PUSH2 0x23E JUMP JUMPDEST SWAP3 SWAP2 POP POP JUMP JUMPDEST PUSH1 0x0 PUSH1 0x40 DUP3 ADD SWAP1 POP PUSH2 0x27D PUSH1 0x0 DUP4 ADD DUP6 PUSH2 0x23E JUMP JUMPDEST PUSH2 0x28A PUSH1 0x20 DUP4 ADD DUP5 PUSH2 0x22F JUMP JUMPDEST SWAP4 SWAP3 POP POP POP JUMP JUMPDEST PUSH1 0x0 PUSH2 0x29C DUP3 PUSH2 0x2A3 JUMP JUMPDEST SWAP1 POP SWAP2 SWAP1 POP JUMP JUMPDEST PUSH1 0x0 PUSH20 0xFFFFFFFFFFFFFFFFFFFFFFFFFFFFFFFFFFFFFFFF DUP3 AND SWAP1 POP SWAP2 SWAP1 POP JUMP JUMPDEST PUSH1 0x0 DUP2 SWAP1 POP SWAP2 SWAP1 POP JUMP JUMPDEST PUSH1 0x0 PUSH2 0x2D8 DUP3 PUSH2 0x2C3 JUMP JUMPDEST SWAP2 POP PUSH32 0xFFFFFFFFFFFFFFFFFFFFFFFFFFFFFFFFFFFFFFFFFFFFFFFFFFFFFFFFFFFFFFFF DUP3 EQ ISZERO PUSH2 0x30B JUMPI PUSH2 0x30A PUSH2 0x316 JUMP JUMPDEST JUMPDEST PUSH1 0x1 DUP3 ADD SWAP1 POP SWAP2 SWAP1 POP JUMP JUMPDEST PUSH32 0x4E487B7100000000000000000000000000000000000000000000000000000000 PUSH1 0x0 MSTORE PUSH1 0x11 PUSH1 0x4 MSTORE PUSH1 0x24 PUSH1 0x0 REVERT JUMPDEST PUSH1 0x0 DUP1 REVERT JUMPDEST PUSH2 0x353 DUP2 PUSH2 0x291 JUMP JUMPDEST DUP2 EQ PUSH2 0x35E JUMPI PUSH1 0x0 DUP1 REVERT JUMPDEST POP JUMP JUMPDEST PUSH2 0x36A DUP2 PUSH2 0x2C3 JUMP JUMPDEST DUP2 EQ PUSH2 0x375 JUMPI PUSH1 0x0 DUP1 REVERT JUMPDEST POP JUMP INVALID LOG2 PUSH5 0x6970667358 0x22 SLT KECCAK256 0xC SIGNEXTEND AND PUSH6 0x6192E2914B60 DELEGATECALL RETURNDATACOPY PUSH6 0xF2A380809AB5 0x25 JUMP CHAINID CALLVALUE 0xBB KECCAK256 PUSH18 0x2F35207587CC64736F6C6343000807003300 "
				},
				"gasEstimates": {
					"creation": {
						"codeDepositCost": "188400",
						"executionCost": "5246",
						"totalCost": "193646"
					},
					"external": {
						"addDrug(address)": "75549",
						"drugs(uint256)": "infinite",
						"drugsCount()": "2429"
					}
				},
				"methodIdentifiers": {
					"addDrug(address)": "193de85d",
					"drugs(uint256)": "fca5e61e",
					"drugsCount()": "92812e6f"
				}
			},
			"storageLayout": {
				"storage": [
					{
						"astId": 12,
						"contract": "contracts/Drugs.sol:Drugs",
						"label": "drugs",
						"offset": 0,
						"slot": "0",
						"type": "t_mapping(t_uint256,t_struct(Drug)7_storage)"
					},
					{
						"astId": 14,
						"contract": "contracts/Drugs.sol:Drugs",
						"label": "drugsCount",
						"offset": 0,
						"slot": "1",
						"type": "t_uint256"
					}
				],
				"types": {
					"t_address": {
						"encoding": "inplace",
						"label": "address",
						"numberOfBytes": "20"
					},
					"t_mapping(t_uint256,t_struct(Drug)7_storage)": {
						"encoding": "mapping",
						"key": "t_uint256",
						"label": "mapping(uint256 => struct Drugs.Drug)",
						"numberOfBytes": "32",
						"value": "t_struct(Drug)7_storage"
					},
					"t_struct(Drug)7_storage": {
						"encoding": "inplace",
						"label": "struct Drugs.Drug",
						"members": [
							{
								"astId": 4,
								"contract": "contracts/Drugs.sol:Drugs",
								"label": "DrugID",
								"offset": 0,
								"slot": "0",
								"type": "t_uint256"
							},
							{
								"astId": 6,
								"contract": "contracts/Drugs.sol:Drugs",
								"label": "Manufacturer",
								"offset": 0,
								"slot": "1",
								"type": "t_address"
							}
						],
						"numberOfBytes": "64"
					},
					"t_uint256": {
						"encoding": "inplace",
						"label": "uint256",
						"numberOfBytes": "32"
					}
				}
			},
			"userdoc": {
				"kind": "user",
				"methods": {},
				"version": 1
			}
		}
	}
}