{
	"contracts/Drugs.sol": {
		"Drugs": {
			"abi": [
				{
					"inputs": [],
					"stateMutability": "nonpayable",
					"type": "constructor"
				},
				{
					"inputs": [
						{
							"internalType": "address",
							"name": "_manufacturer",
							"type": "address"
						}
					],
					"name": "addDrug",
					"outputs": [],
					"stateMutability": "nonpayable",
					"type": "function"
				},
				{
					"inputs": [
						{
							"internalType": "uint256",
							"name": "",
							"type": "uint256"
						}
					],
					"name": "drugs",
					"outputs": [
						{
							"internalType": "uint256",
							"name": "DrugID",
							"type": "uint256"
						},
						{
							"internalType": "address",
							"name": "Manufacturer",
							"type": "address"
						}
					],
					"stateMutability": "view",
					"type": "function"
				},
				{
					"inputs": [],
					"name": "drugsCount",
					"outputs": [
						{
							"internalType": "uint256",
							"name": "",
							"type": "uint256"
						}
					],
					"stateMutability": "view",
					"type": "function"
				},
				{
					"inputs": [
						{
							"internalType": "uint256",
							"name": "_drugid",
							"type": "uint256"
						}
					],
					"name": "get",
					"outputs": [
						{
							"components": [
								{
									"internalType": "uint256",
									"name": "DrugID",
									"type": "uint256"
								},
								{
									"internalType": "address",
									"name": "Manufacturer",
									"type": "address"
								}
							],
							"internalType": "struct Drugs.Drug",
							"name": "",
							"type": "tuple"
						}
					],
					"stateMutability": "view",
					"type": "function"
				},
				{
					"inputs": [],
					"name": "getDrug",
					"outputs": [
						{
							"internalType": "uint256[]",
							"name": "",
							"type": "uint256[]"
						},
						{
							"internalType": "address[]",
							"name": "",
							"type": "address[]"
						}
					],
					"stateMutability": "view",
					"type": "function"
				}
			],
			"devdoc": {
				"kind": "dev",
				"methods": {},
				"version": 1
			},
			"evm": {
				"assembly": "    /* \"contracts/Drugs.sol\":97:1157  contract Drugs {\r... */\n  mstore(0x40, 0x80)\n    /* \"contracts/Drugs.sol\":318:366  constructor()  {\r... */\n  callvalue\n  dup1\n  iszero\n  tag_1\n  jumpi\n  0x00\n  dup1\n  revert\ntag_1:\n  pop\n    /* \"contracts/Drugs.sol\":357:358  0 */\n  0x00\n    /* \"contracts/Drugs.sol\":344:354  drugsCount */\n  0x01\n    /* \"contracts/Drugs.sol\":344:358  drugsCount = 0 */\n  dup2\n  swap1\n  sstore\n  pop\n    /* \"contracts/Drugs.sol\":97:1157  contract Drugs {\r... */\n  dataSize(sub_0)\n  dup1\n  dataOffset(sub_0)\n  0x00\n  codecopy\n  0x00\n  return\nstop\n\nsub_0: assembly {\n        /* \"contracts/Drugs.sol\":97:1157  contract Drugs {\r... */\n      mstore(0x40, 0x80)\n      callvalue\n      dup1\n      iszero\n      tag_1\n      jumpi\n      0x00\n      dup1\n      revert\n    tag_1:\n      pop\n      jumpi(tag_2, lt(calldatasize, 0x04))\n      shr(0xe0, calldataload(0x00))\n      dup1\n      0x193de85d\n      eq\n      tag_3\n      jumpi\n      dup1\n      0x92812e6f\n      eq\n      tag_4\n      jumpi\n      dup1\n      0x9507d39a\n      eq\n      tag_5\n      jumpi\n      dup1\n      0xf2a50281\n      eq\n      tag_6\n      jumpi\n      dup1\n      0xfca5e61e\n      eq\n      tag_7\n      jumpi\n    tag_2:\n      0x00\n      dup1\n      revert\n        /* \"contracts/Drugs.sol\":372:511  function addDrug(address _manufacturer) public {\r... */\n    tag_3:\n      tag_8\n      0x04\n      dup1\n      calldatasize\n      sub\n      dup2\n      add\n      swap1\n      tag_9\n      swap2\n      swap1\n      tag_10\n      jump\t// in\n    tag_9:\n      tag_11\n      jump\t// in\n    tag_8:\n      stop\n        /* \"contracts/Drugs.sol\":289:311  uint public drugsCount */\n    tag_4:\n      tag_12\n      tag_13\n      jump\t// in\n    tag_12:\n      mload(0x40)\n      tag_14\n      swap2\n      swap1\n      tag_15\n      jump\t// in\n    tag_14:\n      mload(0x40)\n      dup1\n      swap2\n      sub\n      swap1\n      return\n        /* \"contracts/Drugs.sol\":548:648  function get(uint _drugid) public view returns(Drug memory) {\r... */\n    tag_5:\n      tag_16\n      0x04\n      dup1\n      calldatasize\n      sub\n      dup2\n      add\n      swap1\n      tag_17\n      swap2\n      swap1\n      tag_18\n      jump\t// in\n    tag_17:\n      tag_19\n      jump\t// in\n    tag_16:\n      mload(0x40)\n      tag_20\n      swap2\n      swap1\n      tag_21\n      jump\t// in\n    tag_20:\n      mload(0x40)\n      dup1\n      swap2\n      sub\n      swap1\n      return\n        /* \"contracts/Drugs.sol\":693:1154  function getDrug() public view returns (uint[] memory, address[] memory){\r... */\n    tag_6:\n      tag_22\n      tag_23\n      jump\t// in\n    tag_22:\n      mload(0x40)\n      tag_24\n      swap3\n      swap2\n      swap1\n      tag_25\n      jump\t// in\n    tag_24:\n      mload(0x40)\n      dup1\n      swap2\n      sub\n      swap1\n      return\n        /* \"contracts/Drugs.sol\":197:232  mapping (uint => Drug) public drugs */\n    tag_7:\n      tag_26\n      0x04\n      dup1\n      calldatasize\n      sub\n      dup2\n      add\n      swap1\n      tag_27\n      swap2\n      swap1\n      tag_18\n      jump\t// in\n    tag_27:\n      tag_28\n      jump\t// in\n    tag_26:\n      mload(0x40)\n      tag_29\n      swap3\n      swap2\n      swap1\n      tag_30\n      jump\t// in\n    tag_29:\n      mload(0x40)\n      dup1\n      swap2\n      sub\n      swap1\n      return\n        /* \"contracts/Drugs.sol\":372:511  function addDrug(address _manufacturer) public {\r... */\n    tag_11:\n        /* \"contracts/Drugs.sol\":450:480  Drug(drugsCount,_manufacturer) */\n      mload(0x40)\n      dup1\n      0x40\n      add\n      0x40\n      mstore\n      dup1\n        /* \"contracts/Drugs.sol\":455:465  drugsCount */\n      sload(0x01)\n        /* \"contracts/Drugs.sol\":450:480  Drug(drugsCount,_manufacturer) */\n      dup2\n      mstore\n      0x20\n      add\n        /* \"contracts/Drugs.sol\":466:479  _manufacturer */\n      dup3\n        /* \"contracts/Drugs.sol\":450:480  Drug(drugsCount,_manufacturer) */\n      0xffffffffffffffffffffffffffffffffffffffff\n      and\n      dup2\n      mstore\n      pop\n        /* \"contracts/Drugs.sol\":430:435  drugs */\n      0x00\n        /* \"contracts/Drugs.sol\":430:447  drugs[drugsCount] */\n      dup1\n        /* \"contracts/Drugs.sol\":436:446  drugsCount */\n      sload(0x01)\n        /* \"contracts/Drugs.sol\":430:447  drugs[drugsCount] */\n      dup2\n      mstore\n      0x20\n      add\n      swap1\n      dup2\n      mstore\n      0x20\n      add\n      0x00\n      keccak256\n        /* \"contracts/Drugs.sol\":430:480  drugs[drugsCount] = Drug(drugsCount,_manufacturer) */\n      0x00\n      dup3\n      add\n      mload\n      dup2\n      0x00\n      add\n      sstore\n      0x20\n      dup3\n      add\n      mload\n      dup2\n      0x01\n      add\n      exp(0x0100, 0x00)\n      dup2\n      sload\n      dup2\n      0xffffffffffffffffffffffffffffffffffffffff\n      mul\n      not\n      and\n      swap1\n      dup4\n      0xffffffffffffffffffffffffffffffffffffffff\n      and\n      mul\n      or\n      swap1\n      sstore\n      pop\n      swap1\n      pop\n      pop\n        /* \"contracts/Drugs.sol\":491:501  drugsCount */\n      0x01\n      0x00\n        /* \"contracts/Drugs.sol\":491:503  drugsCount++ */\n      dup2\n      sload\n      dup1\n      swap3\n      swap2\n      swap1\n      tag_32\n      swap1\n      tag_33\n      jump\t// in\n    tag_32:\n      swap2\n      swap1\n      pop\n      sstore\n      pop\n        /* \"contracts/Drugs.sol\":372:511  function addDrug(address _manufacturer) public {\r... */\n      pop\n      jump\t// out\n        /* \"contracts/Drugs.sol\":289:311  uint public drugsCount */\n    tag_13:\n      sload(0x01)\n      dup2\n      jump\t// out\n        /* \"contracts/Drugs.sol\":548:648  function get(uint _drugid) public view returns(Drug memory) {\r... */\n    tag_19:\n        /* \"contracts/Drugs.sol\":595:606  Drug memory */\n      tag_34\n      tag_35\n      jump\t// in\n    tag_34:\n        /* \"contracts/Drugs.sol\":626:631  drugs */\n      0x00\n        /* \"contracts/Drugs.sol\":626:640  drugs[_drugid] */\n      dup1\n        /* \"contracts/Drugs.sol\":632:639  _drugid */\n      dup4\n        /* \"contracts/Drugs.sol\":626:640  drugs[_drugid] */\n      dup2\n      mstore\n      0x20\n      add\n      swap1\n      dup2\n      mstore\n      0x20\n      add\n      0x00\n      keccak256\n        /* \"contracts/Drugs.sol\":619:640  return drugs[_drugid] */\n      mload(0x40)\n      dup1\n      0x40\n      add\n      0x40\n      mstore\n      swap1\n      dup2\n      0x00\n      dup3\n      add\n      sload\n      dup2\n      mstore\n      0x20\n      add\n      0x01\n      dup3\n      add\n      0x00\n      swap1\n      sload\n      swap1\n      0x0100\n      exp\n      swap1\n      div\n      0xffffffffffffffffffffffffffffffffffffffff\n      and\n      0xffffffffffffffffffffffffffffffffffffffff\n      and\n      0xffffffffffffffffffffffffffffffffffffffff\n      and\n      dup2\n      mstore\n      pop\n      pop\n      swap1\n      pop\n        /* \"contracts/Drugs.sol\":548:648  function get(uint _drugid) public view returns(Drug memory) {\r... */\n      swap2\n      swap1\n      pop\n      jump\t// out\n        /* \"contracts/Drugs.sol\":693:1154  function getDrug() public view returns (uint[] memory, address[] memory){\r... */\n    tag_23:\n        /* \"contracts/Drugs.sol\":733:746  uint[] memory */\n      0x60\n        /* \"contracts/Drugs.sol\":748:764  address[] memory */\n      dup1\n        /* \"contracts/Drugs.sol\":776:797  uint[]  memory drugid */\n      0x00\n        /* \"contracts/Drugs.sol\":811:821  drugsCount */\n      sload(0x01)\n        /* \"contracts/Drugs.sol\":800:822  new uint[](drugsCount) */\n      0xffffffffffffffff\n      dup2\n      gt\n      iszero\n      tag_38\n      jumpi\n      tag_39\n      tag_40\n      jump\t// in\n    tag_39:\n    tag_38:\n      mload(0x40)\n      swap1\n      dup1\n      dup3\n      mstore\n      dup1\n      0x20\n      mul\n      0x20\n      add\n      dup3\n      add\n      0x40\n      mstore\n      dup1\n      iszero\n      tag_41\n      jumpi\n      dup2\n      0x20\n      add\n      0x20\n      dup3\n      mul\n      dup1\n      calldatasize\n      dup4\n      calldatacopy\n      dup1\n      dup3\n      add\n      swap2\n      pop\n      pop\n      swap1\n      pop\n    tag_41:\n      pop\n        /* \"contracts/Drugs.sol\":776:822  uint[]  memory drugid = new uint[](drugsCount) */\n      swap1\n      pop\n        /* \"contracts/Drugs.sol\":833:863  address[]  memory manufacturer */\n      0x00\n        /* \"contracts/Drugs.sol\":880:890  drugsCount */\n      sload(0x01)\n        /* \"contracts/Drugs.sol\":866:891  new address[](drugsCount) */\n      0xffffffffffffffff\n      dup2\n      gt\n      iszero\n      tag_42\n      jumpi\n      tag_43\n      tag_40\n      jump\t// in\n    tag_43:\n    tag_42:\n      mload(0x40)\n      swap1\n      dup1\n      dup3\n      mstore\n      dup1\n      0x20\n      mul\n      0x20\n      add\n      dup3\n      add\n      0x40\n      mstore\n      dup1\n      iszero\n      tag_44\n      jumpi\n      dup2\n      0x20\n      add\n      0x20\n      dup3\n      mul\n      dup1\n      calldatasize\n      dup4\n      calldatacopy\n      dup1\n      dup3\n      add\n      swap2\n      pop\n      pop\n      swap1\n      pop\n    tag_44:\n      pop\n        /* \"contracts/Drugs.sol\":833:891  address[]  memory manufacturer = new address[](drugsCount) */\n      swap1\n      pop\n        /* \"contracts/Drugs.sol\":927:933  uint i */\n      0x00\n        /* \"contracts/Drugs.sol\":922:1103  for (uint i = 0; i < drugsCount; i++) {\r... */\n    tag_45:\n        /* \"contracts/Drugs.sol\":943:953  drugsCount */\n      sload(0x01)\n        /* \"contracts/Drugs.sol\":939:940  i */\n      dup2\n        /* \"contracts/Drugs.sol\":939:953  i < drugsCount */\n      lt\n        /* \"contracts/Drugs.sol\":922:1103  for (uint i = 0; i < drugsCount; i++) {\r... */\n      iszero\n      tag_46\n      jumpi\n        /* \"contracts/Drugs.sol\":975:992  Drug storage drug */\n      0x00\n        /* \"contracts/Drugs.sol\":995:1000  drugs */\n      dup1\n        /* \"contracts/Drugs.sol\":995:1003  drugs[i] */\n      0x00\n        /* \"contracts/Drugs.sol\":1001:1002  i */\n      dup4\n        /* \"contracts/Drugs.sol\":995:1003  drugs[i] */\n      dup2\n      mstore\n      0x20\n      add\n      swap1\n      dup2\n      mstore\n      0x20\n      add\n      0x00\n      keccak256\n        /* \"contracts/Drugs.sol\":975:1003  Drug storage drug = drugs[i] */\n      swap1\n      pop\n        /* \"contracts/Drugs.sol\":1030:1034  drug */\n      dup1\n        /* \"contracts/Drugs.sol\":1030:1041  drug.DrugID */\n      0x00\n      add\n      sload\n        /* \"contracts/Drugs.sol\":1018:1024  drugid */\n      dup5\n        /* \"contracts/Drugs.sol\":1025:1026  i */\n      dup4\n        /* \"contracts/Drugs.sol\":1018:1027  drugid[i] */\n      dup2\n      mload\n      dup2\n      lt\n      tag_48\n      jumpi\n      tag_49\n      tag_50\n      jump\t// in\n    tag_49:\n    tag_48:\n      0x20\n      mul\n      0x20\n      add\n      add\n        /* \"contracts/Drugs.sol\":1018:1041  drugid[i] = drug.DrugID */\n      dup2\n      dup2\n      mstore\n      pop\n      pop\n        /* \"contracts/Drugs.sol\":1074:1078  drug */\n      dup1\n        /* \"contracts/Drugs.sol\":1074:1091  drug.Manufacturer */\n      0x01\n      add\n      0x00\n      swap1\n      sload\n      swap1\n      0x0100\n      exp\n      swap1\n      div\n      0xffffffffffffffffffffffffffffffffffffffff\n      and\n        /* \"contracts/Drugs.sol\":1056:1068  manufacturer */\n      dup4\n        /* \"contracts/Drugs.sol\":1069:1070  i */\n      dup4\n        /* \"contracts/Drugs.sol\":1056:1071  manufacturer[i] */\n      dup2\n      mload\n      dup2\n      lt\n      tag_51\n      jumpi\n      tag_52\n      tag_50\n      jump\t// in\n    tag_52:\n    tag_51:\n      0x20\n      mul\n      0x20\n      add\n      add\n        /* \"contracts/Drugs.sol\":1056:1091  manufacturer[i] = drug.Manufacturer */\n      swap1\n      0xffffffffffffffffffffffffffffffffffffffff\n      and\n      swap1\n      dup2\n      0xffffffffffffffffffffffffffffffffffffffff\n      and\n      dup2\n      mstore\n      pop\n      pop\n        /* \"contracts/Drugs.sol\":960:1103  {\r... */\n      pop\n        /* \"contracts/Drugs.sol\":955:958  i++ */\n      dup1\n      dup1\n      tag_53\n      swap1\n      tag_33\n      jump\t// in\n    tag_53:\n      swap2\n      pop\n      pop\n        /* \"contracts/Drugs.sol\":922:1103  for (uint i = 0; i < drugsCount; i++) {\r... */\n      jump(tag_45)\n    tag_46:\n      pop\n        /* \"contracts/Drugs.sol\":1123:1129  drugid */\n      dup2\n        /* \"contracts/Drugs.sol\":1131:1143  manufacturer */\n      dup2\n        /* \"contracts/Drugs.sol\":1115:1144  return (drugid, manufacturer) */\n      swap4\n      pop\n      swap4\n      pop\n      pop\n      pop\n        /* \"contracts/Drugs.sol\":693:1154  function getDrug() public view returns (uint[] memory, address[] memory){\r... */\n      swap1\n      swap2\n      jump\t// out\n        /* \"contracts/Drugs.sol\":197:232  mapping (uint => Drug) public drugs */\n    tag_28:\n      mstore(0x20, 0x00)\n      dup1\n      0x00\n      mstore\n      keccak256(0x00, 0x40)\n      0x00\n      swap2\n      pop\n      swap1\n      pop\n      dup1\n      0x00\n      add\n      sload\n      swap1\n      dup1\n      0x01\n      add\n      0x00\n      swap1\n      sload\n      swap1\n      0x0100\n      exp\n      swap1\n      div\n      0xffffffffffffffffffffffffffffffffffffffff\n      and\n      swap1\n      pop\n      dup3\n      jump\t// out\n    tag_35:\n      mload(0x40)\n      dup1\n      0x40\n      add\n      0x40\n      mstore\n      dup1\n      0x00\n      dup2\n      mstore\n      0x20\n      add\n      and(0xffffffffffffffffffffffffffffffffffffffff, 0x00)\n      dup2\n      mstore\n      pop\n      swap1\n      jump\t// out\n        /* \"#utility.yul\":7:146   */\n    tag_55:\n        /* \"#utility.yul\":53:58   */\n      0x00\n        /* \"#utility.yul\":91:97   */\n      dup2\n        /* \"#utility.yul\":78:98   */\n      calldataload\n        /* \"#utility.yul\":69:98   */\n      swap1\n      pop\n        /* \"#utility.yul\":107:140   */\n      tag_57\n        /* \"#utility.yul\":134:139   */\n      dup2\n        /* \"#utility.yul\":107:140   */\n      tag_58\n      jump\t// in\n    tag_57:\n        /* \"#utility.yul\":7:146   */\n      swap3\n      swap2\n      pop\n      pop\n      jump\t// out\n        /* \"#utility.yul\":152:291   */\n    tag_59:\n        /* \"#utility.yul\":198:203   */\n      0x00\n        /* \"#utility.yul\":236:242   */\n      dup2\n        /* \"#utility.yul\":223:243   */\n      calldataload\n        /* \"#utility.yul\":214:243   */\n      swap1\n      pop\n        /* \"#utility.yul\":252:285   */\n      tag_61\n        /* \"#utility.yul\":279:284   */\n      dup2\n        /* \"#utility.yul\":252:285   */\n      tag_62\n      jump\t// in\n    tag_61:\n        /* \"#utility.yul\":152:291   */\n      swap3\n      swap2\n      pop\n      pop\n      jump\t// out\n        /* \"#utility.yul\":297:626   */\n    tag_10:\n        /* \"#utility.yul\":356:362   */\n      0x00\n        /* \"#utility.yul\":405:407   */\n      0x20\n        /* \"#utility.yul\":393:402   */\n      dup3\n        /* \"#utility.yul\":384:391   */\n      dup5\n        /* \"#utility.yul\":380:403   */\n      sub\n        /* \"#utility.yul\":376:408   */\n      slt\n        /* \"#utility.yul\":373:492   */\n      iszero\n      tag_64\n      jumpi\n        /* \"#utility.yul\":411:490   */\n      tag_65\n      tag_66\n      jump\t// in\n    tag_65:\n        /* \"#utility.yul\":373:492   */\n    tag_64:\n        /* \"#utility.yul\":531:532   */\n      0x00\n        /* \"#utility.yul\":556:609   */\n      tag_67\n        /* \"#utility.yul\":601:608   */\n      dup5\n        /* \"#utility.yul\":592:598   */\n      dup3\n        /* \"#utility.yul\":581:590   */\n      dup6\n        /* \"#utility.yul\":577:599   */\n      add\n        /* \"#utility.yul\":556:609   */\n      tag_55\n      jump\t// in\n    tag_67:\n        /* \"#utility.yul\":546:609   */\n      swap2\n      pop\n        /* \"#utility.yul\":502:619   */\n      pop\n        /* \"#utility.yul\":297:626   */\n      swap3\n      swap2\n      pop\n      pop\n      jump\t// out\n        /* \"#utility.yul\":632:961   */\n    tag_18:\n        /* \"#utility.yul\":691:697   */\n      0x00\n        /* \"#utility.yul\":740:742   */\n      0x20\n        /* \"#utility.yul\":728:737   */\n      dup3\n        /* \"#utility.yul\":719:726   */\n      dup5\n        /* \"#utility.yul\":715:738   */\n      sub\n        /* \"#utility.yul\":711:743   */\n      slt\n        /* \"#utility.yul\":708:827   */\n      iszero\n      tag_69\n      jumpi\n        /* \"#utility.yul\":746:825   */\n      tag_70\n      tag_66\n      jump\t// in\n    tag_70:\n        /* \"#utility.yul\":708:827   */\n    tag_69:\n        /* \"#utility.yul\":866:867   */\n      0x00\n        /* \"#utility.yul\":891:944   */\n      tag_71\n        /* \"#utility.yul\":936:943   */\n      dup5\n        /* \"#utility.yul\":927:933   */\n      dup3\n        /* \"#utility.yul\":916:925   */\n      dup6\n        /* \"#utility.yul\":912:934   */\n      add\n        /* \"#utility.yul\":891:944   */\n      tag_59\n      jump\t// in\n    tag_71:\n        /* \"#utility.yul\":881:944   */\n      swap2\n      pop\n        /* \"#utility.yul\":837:954   */\n      pop\n        /* \"#utility.yul\":632:961   */\n      swap3\n      swap2\n      pop\n      pop\n      jump\t// out\n        /* \"#utility.yul\":967:1146   */\n    tag_72:\n        /* \"#utility.yul\":1036:1046   */\n      0x00\n        /* \"#utility.yul\":1057:1103   */\n      tag_74\n        /* \"#utility.yul\":1099:1102   */\n      dup4\n        /* \"#utility.yul\":1091:1097   */\n      dup4\n        /* \"#utility.yul\":1057:1103   */\n      tag_75\n      jump\t// in\n    tag_74:\n        /* \"#utility.yul\":1135:1139   */\n      0x20\n        /* \"#utility.yul\":1130:1133   */\n      dup4\n        /* \"#utility.yul\":1126:1140   */\n      add\n        /* \"#utility.yul\":1112:1140   */\n      swap1\n      pop\n        /* \"#utility.yul\":967:1146   */\n      swap3\n      swap2\n      pop\n      pop\n      jump\t// out\n        /* \"#utility.yul\":1152:1331   */\n    tag_76:\n        /* \"#utility.yul\":1221:1231   */\n      0x00\n        /* \"#utility.yul\":1242:1288   */\n      tag_78\n        /* \"#utility.yul\":1284:1287   */\n      dup4\n        /* \"#utility.yul\":1276:1282   */\n      dup4\n        /* \"#utility.yul\":1242:1288   */\n      tag_79\n      jump\t// in\n    tag_78:\n        /* \"#utility.yul\":1320:1324   */\n      0x20\n        /* \"#utility.yul\":1315:1318   */\n      dup4\n        /* \"#utility.yul\":1311:1325   */\n      add\n        /* \"#utility.yul\":1297:1325   */\n      swap1\n      pop\n        /* \"#utility.yul\":1152:1331   */\n      swap3\n      swap2\n      pop\n      pop\n      jump\t// out\n        /* \"#utility.yul\":1337:1445   */\n    tag_75:\n        /* \"#utility.yul\":1414:1438   */\n      tag_81\n        /* \"#utility.yul\":1432:1437   */\n      dup2\n        /* \"#utility.yul\":1414:1438   */\n      tag_82\n      jump\t// in\n    tag_81:\n        /* \"#utility.yul\":1409:1412   */\n      dup3\n        /* \"#utility.yul\":1402:1439   */\n      mstore\n        /* \"#utility.yul\":1337:1445   */\n      pop\n      pop\n      jump\t// out\n        /* \"#utility.yul\":1451:1569   */\n    tag_83:\n        /* \"#utility.yul\":1538:1562   */\n      tag_85\n        /* \"#utility.yul\":1556:1561   */\n      dup2\n        /* \"#utility.yul\":1538:1562   */\n      tag_82\n      jump\t// in\n    tag_85:\n        /* \"#utility.yul\":1533:1536   */\n      dup3\n        /* \"#utility.yul\":1526:1563   */\n      mstore\n        /* \"#utility.yul\":1451:1569   */\n      pop\n      pop\n      jump\t// out\n        /* \"#utility.yul\":1605:2337   */\n    tag_86:\n        /* \"#utility.yul\":1724:1727   */\n      0x00\n        /* \"#utility.yul\":1753:1807   */\n      tag_88\n        /* \"#utility.yul\":1801:1806   */\n      dup3\n        /* \"#utility.yul\":1753:1807   */\n      tag_89\n      jump\t// in\n    tag_88:\n        /* \"#utility.yul\":1823:1909   */\n      tag_90\n        /* \"#utility.yul\":1902:1908   */\n      dup2\n        /* \"#utility.yul\":1897:1900   */\n      dup6\n        /* \"#utility.yul\":1823:1909   */\n      tag_91\n      jump\t// in\n    tag_90:\n        /* \"#utility.yul\":1816:1909   */\n      swap4\n      pop\n        /* \"#utility.yul\":1933:1989   */\n      tag_92\n        /* \"#utility.yul\":1983:1988   */\n      dup4\n        /* \"#utility.yul\":1933:1989   */\n      tag_93\n      jump\t// in\n    tag_92:\n        /* \"#utility.yul\":2012:2019   */\n      dup1\n        /* \"#utility.yul\":2043:2044   */\n      0x00\n        /* \"#utility.yul\":2028:2312   */\n    tag_94:\n        /* \"#utility.yul\":2053:2059   */\n      dup4\n        /* \"#utility.yul\":2050:2051   */\n      dup2\n        /* \"#utility.yul\":2047:2060   */\n      lt\n        /* \"#utility.yul\":2028:2312   */\n      iszero\n      tag_96\n      jumpi\n        /* \"#utility.yul\":2129:2135   */\n      dup2\n        /* \"#utility.yul\":2123:2136   */\n      mload\n        /* \"#utility.yul\":2156:2219   */\n      tag_97\n        /* \"#utility.yul\":2215:2218   */\n      dup9\n        /* \"#utility.yul\":2200:2213   */\n      dup3\n        /* \"#utility.yul\":2156:2219   */\n      tag_72\n      jump\t// in\n    tag_97:\n        /* \"#utility.yul\":2149:2219   */\n      swap8\n      pop\n        /* \"#utility.yul\":2242:2302   */\n      tag_98\n        /* \"#utility.yul\":2295:2301   */\n      dup4\n        /* \"#utility.yul\":2242:2302   */\n      tag_99\n      jump\t// in\n    tag_98:\n        /* \"#utility.yul\":2232:2302   */\n      swap3\n      pop\n        /* \"#utility.yul\":2088:2312   */\n      pop\n        /* \"#utility.yul\":2075:2076   */\n      0x01\n        /* \"#utility.yul\":2072:2073   */\n      dup2\n        /* \"#utility.yul\":2068:2077   */\n      add\n        /* \"#utility.yul\":2063:2077   */\n      swap1\n      pop\n        /* \"#utility.yul\":2028:2312   */\n      jump(tag_94)\n    tag_96:\n        /* \"#utility.yul\":2032:2046   */\n      pop\n        /* \"#utility.yul\":2328:2331   */\n      dup6\n        /* \"#utility.yul\":2321:2331   */\n      swap4\n      pop\n        /* \"#utility.yul\":1729:2337   */\n      pop\n      pop\n      pop\n        /* \"#utility.yul\":1605:2337   */\n      swap3\n      swap2\n      pop\n      pop\n      jump\t// out\n        /* \"#utility.yul\":2373:3105   */\n    tag_100:\n        /* \"#utility.yul\":2492:2495   */\n      0x00\n        /* \"#utility.yul\":2521:2575   */\n      tag_102\n        /* \"#utility.yul\":2569:2574   */\n      dup3\n        /* \"#utility.yul\":2521:2575   */\n      tag_103\n      jump\t// in\n    tag_102:\n        /* \"#utility.yul\":2591:2677   */\n      tag_104\n        /* \"#utility.yul\":2670:2676   */\n      dup2\n        /* \"#utility.yul\":2665:2668   */\n      dup6\n        /* \"#utility.yul\":2591:2677   */\n      tag_105\n      jump\t// in\n    tag_104:\n        /* \"#utility.yul\":2584:2677   */\n      swap4\n      pop\n        /* \"#utility.yul\":2701:2757   */\n      tag_106\n        /* \"#utility.yul\":2751:2756   */\n      dup4\n        /* \"#utility.yul\":2701:2757   */\n      tag_107\n      jump\t// in\n    tag_106:\n        /* \"#utility.yul\":2780:2787   */\n      dup1\n        /* \"#utility.yul\":2811:2812   */\n      0x00\n        /* \"#utility.yul\":2796:3080   */\n    tag_108:\n        /* \"#utility.yul\":2821:2827   */\n      dup4\n        /* \"#utility.yul\":2818:2819   */\n      dup2\n        /* \"#utility.yul\":2815:2828   */\n      lt\n        /* \"#utility.yul\":2796:3080   */\n      iszero\n      tag_110\n      jumpi\n        /* \"#utility.yul\":2897:2903   */\n      dup2\n        /* \"#utility.yul\":2891:2904   */\n      mload\n        /* \"#utility.yul\":2924:2987   */\n      tag_111\n        /* \"#utility.yul\":2983:2986   */\n      dup9\n        /* \"#utility.yul\":2968:2981   */\n      dup3\n        /* \"#utility.yul\":2924:2987   */\n      tag_76\n      jump\t// in\n    tag_111:\n        /* \"#utility.yul\":2917:2987   */\n      swap8\n      pop\n        /* \"#utility.yul\":3010:3070   */\n      tag_112\n        /* \"#utility.yul\":3063:3069   */\n      dup4\n        /* \"#utility.yul\":3010:3070   */\n      tag_113\n      jump\t// in\n    tag_112:\n        /* \"#utility.yul\":3000:3070   */\n      swap3\n      pop\n        /* \"#utility.yul\":2856:3080   */\n      pop\n        /* \"#utility.yul\":2843:2844   */\n      0x01\n        /* \"#utility.yul\":2840:2841   */\n      dup2\n        /* \"#utility.yul\":2836:2845   */\n      add\n        /* \"#utility.yul\":2831:2845   */\n      swap1\n      pop\n        /* \"#utility.yul\":2796:3080   */\n      jump(tag_108)\n    tag_110:\n        /* \"#utility.yul\":2800:2814   */\n      pop\n        /* \"#utility.yul\":3096:3099   */\n      dup6\n        /* \"#utility.yul\":3089:3099   */\n      swap4\n      pop\n        /* \"#utility.yul\":2497:3105   */\n      pop\n      pop\n      pop\n        /* \"#utility.yul\":2373:3105   */\n      swap3\n      swap2\n      pop\n      pop\n      jump\t// out\n        /* \"#utility.yul\":3157:3662   */\n    tag_114:\n        /* \"#utility.yul\":3292:3296   */\n      0x40\n        /* \"#utility.yul\":3287:3290   */\n      dup3\n        /* \"#utility.yul\":3283:3297   */\n      add\n        /* \"#utility.yul\":3381:3385   */\n      0x00\n        /* \"#utility.yul\":3374:3379   */\n      dup3\n        /* \"#utility.yul\":3370:3386   */\n      add\n        /* \"#utility.yul\":3364:3387   */\n      mload\n        /* \"#utility.yul\":3400:3463   */\n      tag_116\n        /* \"#utility.yul\":3457:3461   */\n      0x00\n        /* \"#utility.yul\":3452:3455   */\n      dup6\n        /* \"#utility.yul\":3448:3462   */\n      add\n        /* \"#utility.yul\":3434:3446   */\n      dup3\n        /* \"#utility.yul\":3400:3463   */\n      tag_79\n      jump\t// in\n    tag_116:\n        /* \"#utility.yul\":3307:3473   */\n      pop\n        /* \"#utility.yul\":3563:3567   */\n      0x20\n        /* \"#utility.yul\":3556:3561   */\n      dup3\n        /* \"#utility.yul\":3552:3568   */\n      add\n        /* \"#utility.yul\":3546:3569   */\n      mload\n        /* \"#utility.yul\":3582:3645   */\n      tag_117\n        /* \"#utility.yul\":3639:3643   */\n      0x20\n        /* \"#utility.yul\":3634:3637   */\n      dup6\n        /* \"#utility.yul\":3630:3644   */\n      add\n        /* \"#utility.yul\":3616:3628   */\n      dup3\n        /* \"#utility.yul\":3582:3645   */\n      tag_75\n      jump\t// in\n    tag_117:\n        /* \"#utility.yul\":3483:3655   */\n      pop\n        /* \"#utility.yul\":3261:3662   */\n      pop\n        /* \"#utility.yul\":3157:3662   */\n      pop\n      pop\n      jump\t// out\n        /* \"#utility.yul\":3668:3776   */\n    tag_79:\n        /* \"#utility.yul\":3745:3769   */\n      tag_119\n        /* \"#utility.yul\":3763:3768   */\n      dup2\n        /* \"#utility.yul\":3745:3769   */\n      tag_120\n      jump\t// in\n    tag_119:\n        /* \"#utility.yul\":3740:3743   */\n      dup3\n        /* \"#utility.yul\":3733:3770   */\n      mstore\n        /* \"#utility.yul\":3668:3776   */\n      pop\n      pop\n      jump\t// out\n        /* \"#utility.yul\":3782:3900   */\n    tag_121:\n        /* \"#utility.yul\":3869:3893   */\n      tag_123\n        /* \"#utility.yul\":3887:3892   */\n      dup2\n        /* \"#utility.yul\":3869:3893   */\n      tag_120\n      jump\t// in\n    tag_123:\n        /* \"#utility.yul\":3864:3867   */\n      dup3\n        /* \"#utility.yul\":3857:3894   */\n      mstore\n        /* \"#utility.yul\":3782:3900   */\n      pop\n      pop\n      jump\t// out\n        /* \"#utility.yul\":3906:4540   */\n    tag_25:\n        /* \"#utility.yul\":4127:4131   */\n      0x00\n        /* \"#utility.yul\":4165:4167   */\n      0x40\n        /* \"#utility.yul\":4154:4163   */\n      dup3\n        /* \"#utility.yul\":4150:4168   */\n      add\n        /* \"#utility.yul\":4142:4168   */\n      swap1\n      pop\n        /* \"#utility.yul\":4214:4223   */\n      dup2\n        /* \"#utility.yul\":4208:4212   */\n      dup2\n        /* \"#utility.yul\":4204:4224   */\n      sub\n        /* \"#utility.yul\":4200:4201   */\n      0x00\n        /* \"#utility.yul\":4189:4198   */\n      dup4\n        /* \"#utility.yul\":4185:4202   */\n      add\n        /* \"#utility.yul\":4178:4225   */\n      mstore\n        /* \"#utility.yul\":4242:4350   */\n      tag_125\n        /* \"#utility.yul\":4345:4349   */\n      dup2\n        /* \"#utility.yul\":4336:4342   */\n      dup6\n        /* \"#utility.yul\":4242:4350   */\n      tag_100\n      jump\t// in\n    tag_125:\n        /* \"#utility.yul\":4234:4350   */\n      swap1\n      pop\n        /* \"#utility.yul\":4397:4406   */\n      dup2\n        /* \"#utility.yul\":4391:4395   */\n      dup2\n        /* \"#utility.yul\":4387:4407   */\n      sub\n        /* \"#utility.yul\":4382:4384   */\n      0x20\n        /* \"#utility.yul\":4371:4380   */\n      dup4\n        /* \"#utility.yul\":4367:4385   */\n      add\n        /* \"#utility.yul\":4360:4408   */\n      mstore\n        /* \"#utility.yul\":4425:4533   */\n      tag_126\n        /* \"#utility.yul\":4528:4532   */\n      dup2\n        /* \"#utility.yul\":4519:4525   */\n      dup5\n        /* \"#utility.yul\":4425:4533   */\n      tag_86\n      jump\t// in\n    tag_126:\n        /* \"#utility.yul\":4417:4533   */\n      swap1\n      pop\n        /* \"#utility.yul\":3906:4540   */\n      swap4\n      swap3\n      pop\n      pop\n      pop\n      jump\t// out\n        /* \"#utility.yul\":4546:4844   */\n    tag_21:\n        /* \"#utility.yul\":4677:4681   */\n      0x00\n        /* \"#utility.yul\":4715:4717   */\n      0x40\n        /* \"#utility.yul\":4704:4713   */\n      dup3\n        /* \"#utility.yul\":4700:4718   */\n      add\n        /* \"#utility.yul\":4692:4718   */\n      swap1\n      pop\n        /* \"#utility.yul\":4728:4837   */\n      tag_128\n        /* \"#utility.yul\":4834:4835   */\n      0x00\n        /* \"#utility.yul\":4823:4832   */\n      dup4\n        /* \"#utility.yul\":4819:4836   */\n      add\n        /* \"#utility.yul\":4810:4816   */\n      dup5\n        /* \"#utility.yul\":4728:4837   */\n      tag_114\n      jump\t// in\n    tag_128:\n        /* \"#utility.yul\":4546:4844   */\n      swap3\n      swap2\n      pop\n      pop\n      jump\t// out\n        /* \"#utility.yul\":4850:5072   */\n    tag_15:\n        /* \"#utility.yul\":4943:4947   */\n      0x00\n        /* \"#utility.yul\":4981:4983   */\n      0x20\n        /* \"#utility.yul\":4970:4979   */\n      dup3\n        /* \"#utility.yul\":4966:4984   */\n      add\n        /* \"#utility.yul\":4958:4984   */\n      swap1\n      pop\n        /* \"#utility.yul\":4994:5065   */\n      tag_130\n        /* \"#utility.yul\":5062:5063   */\n      0x00\n        /* \"#utility.yul\":5051:5060   */\n      dup4\n        /* \"#utility.yul\":5047:5064   */\n      add\n        /* \"#utility.yul\":5038:5044   */\n      dup5\n        /* \"#utility.yul\":4994:5065   */\n      tag_121\n      jump\t// in\n    tag_130:\n        /* \"#utility.yul\":4850:5072   */\n      swap3\n      swap2\n      pop\n      pop\n      jump\t// out\n        /* \"#utility.yul\":5078:5410   */\n    tag_30:\n        /* \"#utility.yul\":5199:5203   */\n      0x00\n        /* \"#utility.yul\":5237:5239   */\n      0x40\n        /* \"#utility.yul\":5226:5235   */\n      dup3\n        /* \"#utility.yul\":5222:5240   */\n      add\n        /* \"#utility.yul\":5214:5240   */\n      swap1\n      pop\n        /* \"#utility.yul\":5250:5321   */\n      tag_132\n        /* \"#utility.yul\":5318:5319   */\n      0x00\n        /* \"#utility.yul\":5307:5316   */\n      dup4\n        /* \"#utility.yul\":5303:5320   */\n      add\n        /* \"#utility.yul\":5294:5300   */\n      dup6\n        /* \"#utility.yul\":5250:5321   */\n      tag_121\n      jump\t// in\n    tag_132:\n        /* \"#utility.yul\":5331:5403   */\n      tag_133\n        /* \"#utility.yul\":5399:5401   */\n      0x20\n        /* \"#utility.yul\":5388:5397   */\n      dup4\n        /* \"#utility.yul\":5384:5402   */\n      add\n        /* \"#utility.yul\":5375:5381   */\n      dup5\n        /* \"#utility.yul\":5331:5403   */\n      tag_83\n      jump\t// in\n    tag_133:\n        /* \"#utility.yul\":5078:5410   */\n      swap4\n      swap3\n      pop\n      pop\n      pop\n      jump\t// out\n        /* \"#utility.yul\":5497:5629   */\n    tag_93:\n        /* \"#utility.yul\":5564:5568   */\n      0x00\n        /* \"#utility.yul\":5587:5590   */\n      dup2\n        /* \"#utility.yul\":5579:5590   */\n      swap1\n      pop\n        /* \"#utility.yul\":5617:5621   */\n      0x20\n        /* \"#utility.yul\":5612:5615   */\n      dup3\n        /* \"#utility.yul\":5608:5622   */\n      add\n        /* \"#utility.yul\":5600:5622   */\n      swap1\n      pop\n        /* \"#utility.yul\":5497:5629   */\n      swap2\n      swap1\n      pop\n      jump\t// out\n        /* \"#utility.yul\":5635:5767   */\n    tag_107:\n        /* \"#utility.yul\":5702:5706   */\n      0x00\n        /* \"#utility.yul\":5725:5728   */\n      dup2\n        /* \"#utility.yul\":5717:5728   */\n      swap1\n      pop\n        /* \"#utility.yul\":5755:5759   */\n      0x20\n        /* \"#utility.yul\":5750:5753   */\n      dup3\n        /* \"#utility.yul\":5746:5760   */\n      add\n        /* \"#utility.yul\":5738:5760   */\n      swap1\n      pop\n        /* \"#utility.yul\":5635:5767   */\n      swap2\n      swap1\n      pop\n      jump\t// out\n        /* \"#utility.yul\":5773:5887   */\n    tag_89:\n        /* \"#utility.yul\":5840:5846   */\n      0x00\n        /* \"#utility.yul\":5874:5879   */\n      dup2\n        /* \"#utility.yul\":5868:5880   */\n      mload\n        /* \"#utility.yul\":5858:5880   */\n      swap1\n      pop\n        /* \"#utility.yul\":5773:5887   */\n      swap2\n      swap1\n      pop\n      jump\t// out\n        /* \"#utility.yul\":5893:6007   */\n    tag_103:\n        /* \"#utility.yul\":5960:5966   */\n      0x00\n        /* \"#utility.yul\":5994:5999   */\n      dup2\n        /* \"#utility.yul\":5988:6000   */\n      mload\n        /* \"#utility.yul\":5978:6000   */\n      swap1\n      pop\n        /* \"#utility.yul\":5893:6007   */\n      swap2\n      swap1\n      pop\n      jump\t// out\n        /* \"#utility.yul\":6013:6126   */\n    tag_99:\n        /* \"#utility.yul\":6083:6087   */\n      0x00\n        /* \"#utility.yul\":6115:6119   */\n      0x20\n        /* \"#utility.yul\":6110:6113   */\n      dup3\n        /* \"#utility.yul\":6106:6120   */\n      add\n        /* \"#utility.yul\":6098:6120   */\n      swap1\n      pop\n        /* \"#utility.yul\":6013:6126   */\n      swap2\n      swap1\n      pop\n      jump\t// out\n        /* \"#utility.yul\":6132:6245   */\n    tag_113:\n        /* \"#utility.yul\":6202:6206   */\n      0x00\n        /* \"#utility.yul\":6234:6238   */\n      0x20\n        /* \"#utility.yul\":6229:6232   */\n      dup3\n        /* \"#utility.yul\":6225:6239   */\n      add\n        /* \"#utility.yul\":6217:6239   */\n      swap1\n      pop\n        /* \"#utility.yul\":6132:6245   */\n      swap2\n      swap1\n      pop\n      jump\t// out\n        /* \"#utility.yul\":6251:6435   */\n    tag_91:\n        /* \"#utility.yul\":6350:6361   */\n      0x00\n        /* \"#utility.yul\":6384:6390   */\n      dup3\n        /* \"#utility.yul\":6379:6382   */\n      dup3\n        /* \"#utility.yul\":6372:6391   */\n      mstore\n        /* \"#utility.yul\":6424:6428   */\n      0x20\n        /* \"#utility.yul\":6419:6422   */\n      dup3\n        /* \"#utility.yul\":6415:6429   */\n      add\n        /* \"#utility.yul\":6400:6429   */\n      swap1\n      pop\n        /* \"#utility.yul\":6251:6435   */\n      swap3\n      swap2\n      pop\n      pop\n      jump\t// out\n        /* \"#utility.yul\":6441:6625   */\n    tag_105:\n        /* \"#utility.yul\":6540:6551   */\n      0x00\n        /* \"#utility.yul\":6574:6580   */\n      dup3\n        /* \"#utility.yul\":6569:6572   */\n      dup3\n        /* \"#utility.yul\":6562:6581   */\n      mstore\n        /* \"#utility.yul\":6614:6618   */\n      0x20\n        /* \"#utility.yul\":6609:6612   */\n      dup3\n        /* \"#utility.yul\":6605:6619   */\n      add\n        /* \"#utility.yul\":6590:6619   */\n      swap1\n      pop\n        /* \"#utility.yul\":6441:6625   */\n      swap3\n      swap2\n      pop\n      pop\n      jump\t// out\n        /* \"#utility.yul\":6631:6727   */\n    tag_82:\n        /* \"#utility.yul\":6668:6675   */\n      0x00\n        /* \"#utility.yul\":6697:6721   */\n      tag_145\n        /* \"#utility.yul\":6715:6720   */\n      dup3\n        /* \"#utility.yul\":6697:6721   */\n      tag_146\n      jump\t// in\n    tag_145:\n        /* \"#utility.yul\":6686:6721   */\n      swap1\n      pop\n        /* \"#utility.yul\":6631:6727   */\n      swap2\n      swap1\n      pop\n      jump\t// out\n        /* \"#utility.yul\":6733:6859   */\n    tag_146:\n        /* \"#utility.yul\":6770:6777   */\n      0x00\n        /* \"#utility.yul\":6810:6852   */\n      0xffffffffffffffffffffffffffffffffffffffff\n        /* \"#utility.yul\":6803:6808   */\n      dup3\n        /* \"#utility.yul\":6799:6853   */\n      and\n        /* \"#utility.yul\":6788:6853   */\n      swap1\n      pop\n        /* \"#utility.yul\":6733:6859   */\n      swap2\n      swap1\n      pop\n      jump\t// out\n        /* \"#utility.yul\":6865:6942   */\n    tag_120:\n        /* \"#utility.yul\":6902:6909   */\n      0x00\n        /* \"#utility.yul\":6931:6936   */\n      dup2\n        /* \"#utility.yul\":6920:6936   */\n      swap1\n      pop\n        /* \"#utility.yul\":6865:6942   */\n      swap2\n      swap1\n      pop\n      jump\t// out\n        /* \"#utility.yul\":6948:7181   */\n    tag_33:\n        /* \"#utility.yul\":6987:6990   */\n      0x00\n        /* \"#utility.yul\":7010:7034   */\n      tag_150\n        /* \"#utility.yul\":7028:7033   */\n      dup3\n        /* \"#utility.yul\":7010:7034   */\n      tag_120\n      jump\t// in\n    tag_150:\n        /* \"#utility.yul\":7001:7034   */\n      swap2\n      pop\n        /* \"#utility.yul\":7056:7122   */\n      0xffffffffffffffffffffffffffffffffffffffffffffffffffffffffffffffff\n        /* \"#utility.yul\":7049:7054   */\n      dup3\n        /* \"#utility.yul\":7046:7123   */\n      eq\n        /* \"#utility.yul\":7043:7146   */\n      iszero\n      tag_151\n      jumpi\n        /* \"#utility.yul\":7126:7144   */\n      tag_152\n      tag_153\n      jump\t// in\n    tag_152:\n        /* \"#utility.yul\":7043:7146   */\n    tag_151:\n        /* \"#utility.yul\":7173:7174   */\n      0x01\n        /* \"#utility.yul\":7166:7171   */\n      dup3\n        /* \"#utility.yul\":7162:7175   */\n      add\n        /* \"#utility.yul\":7155:7175   */\n      swap1\n      pop\n        /* \"#utility.yul\":6948:7181   */\n      swap2\n      swap1\n      pop\n      jump\t// out\n        /* \"#utility.yul\":7187:7367   */\n    tag_153:\n        /* \"#utility.yul\":7235:7312   */\n      0x4e487b7100000000000000000000000000000000000000000000000000000000\n        /* \"#utility.yul\":7232:7233   */\n      0x00\n        /* \"#utility.yul\":7225:7313   */\n      mstore\n        /* \"#utility.yul\":7332:7336   */\n      0x11\n        /* \"#utility.yul\":7329:7330   */\n      0x04\n        /* \"#utility.yul\":7322:7337   */\n      mstore\n        /* \"#utility.yul\":7356:7360   */\n      0x24\n        /* \"#utility.yul\":7353:7354   */\n      0x00\n        /* \"#utility.yul\":7346:7361   */\n      revert\n        /* \"#utility.yul\":7373:7553   */\n    tag_50:\n        /* \"#utility.yul\":7421:7498   */\n      0x4e487b7100000000000000000000000000000000000000000000000000000000\n        /* \"#utility.yul\":7418:7419   */\n      0x00\n        /* \"#utility.yul\":7411:7499   */\n      mstore\n        /* \"#utility.yul\":7518:7522   */\n      0x32\n        /* \"#utility.yul\":7515:7516   */\n      0x04\n        /* \"#utility.yul\":7508:7523   */\n      mstore\n        /* \"#utility.yul\":7542:7546   */\n      0x24\n        /* \"#utility.yul\":7539:7540   */\n      0x00\n        /* \"#utility.yul\":7532:7547   */\n      revert\n        /* \"#utility.yul\":7559:7739   */\n    tag_40:\n        /* \"#utility.yul\":7607:7684   */\n      0x4e487b7100000000000000000000000000000000000000000000000000000000\n        /* \"#utility.yul\":7604:7605   */\n      0x00\n        /* \"#utility.yul\":7597:7685   */\n      mstore\n        /* \"#utility.yul\":7704:7708   */\n      0x41\n        /* \"#utility.yul\":7701:7702   */\n      0x04\n        /* \"#utility.yul\":7694:7709   */\n      mstore\n        /* \"#utility.yul\":7728:7732   */\n      0x24\n        /* \"#utility.yul\":7725:7726   */\n      0x00\n        /* \"#utility.yul\":7718:7733   */\n      revert\n        /* \"#utility.yul\":7868:7985   */\n    tag_66:\n        /* \"#utility.yul\":7977:7978   */\n      0x00\n        /* \"#utility.yul\":7974:7975   */\n      dup1\n        /* \"#utility.yul\":7967:7979   */\n      revert\n        /* \"#utility.yul\":7991:8113   */\n    tag_58:\n        /* \"#utility.yul\":8064:8088   */\n      tag_161\n        /* \"#utility.yul\":8082:8087   */\n      dup2\n        /* \"#utility.yul\":8064:8088   */\n      tag_82\n      jump\t// in\n    tag_161:\n        /* \"#utility.yul\":8057:8062   */\n      dup2\n        /* \"#utility.yul\":8054:8089   */\n      eq\n        /* \"#utility.yul\":8044:8107   */\n      tag_162\n      jumpi\n        /* \"#utility.yul\":8103:8104   */\n      0x00\n        /* \"#utility.yul\":8100:8101   */\n      dup1\n        /* \"#utility.yul\":8093:8105   */\n      revert\n        /* \"#utility.yul\":8044:8107   */\n    tag_162:\n        /* \"#utility.yul\":7991:8113   */\n      pop\n      jump\t// out\n        /* \"#utility.yul\":8119:8241   */\n    tag_62:\n        /* \"#utility.yul\":8192:8216   */\n      tag_164\n        /* \"#utility.yul\":8210:8215   */\n      dup2\n        /* \"#utility.yul\":8192:8216   */\n      tag_120\n      jump\t// in\n    tag_164:\n        /* \"#utility.yul\":8185:8190   */\n      dup2\n        /* \"#utility.yul\":8182:8217   */\n      eq\n        /* \"#utility.yul\":8172:8235   */\n      tag_165\n      jumpi\n        /* \"#utility.yul\":8231:8232   */\n      0x00\n        /* \"#utility.yul\":8228:8229   */\n      dup1\n        /* \"#utility.yul\":8221:8233   */\n      revert\n        /* \"#utility.yul\":8172:8235   */\n    tag_165:\n        /* \"#utility.yul\":8119:8241   */\n      pop\n      jump\t// out\n\n    auxdata: 0xa2646970667358221220a1ee8c5f73f27f077a6a20fcfd8a3357dcf49a5157e400ef1fc725bae1988fda64736f6c63430008070033\n}\n",
				"bytecode": {
					"linkReferences": {},
					"object": "608060405234801561001057600080fd5b5060006001819055506108a5806100286000396000f3fe608060405234801561001057600080fd5b50600436106100575760003560e01c8063193de85d1461005c57806392812e6f146100785780639507d39a14610096578063f2a50281146100c6578063fca5e61e146100e5575b600080fd5b61007660048036038101906100719190610471565b610116565b005b6100806101c6565b60405161008d9190610674565b60405180910390f35b6100b060048036038101906100ab919061049e565b6101cc565b6040516100bd9190610659565b60405180910390f35b6100ce610258565b6040516100dc929190610622565b60405180910390f35b6100ff60048036038101906100fa919061049e565b6103d3565b60405161010d92919061068f565b60405180910390f35b604051806040016040528060015481526020018273ffffffffffffffffffffffffffffffffffffffff1681525060008060015481526020019081526020016000206000820151816000015560208201518160010160006101000a81548173ffffffffffffffffffffffffffffffffffffffff021916908373ffffffffffffffffffffffffffffffffffffffff160217905550905050600160008154809291906101be90610766565b919050555050565b60015481565b6101d4610417565b600080838152602001908152602001600020604051806040016040529081600082015481526020016001820160009054906101000a900473ffffffffffffffffffffffffffffffffffffffff1673ffffffffffffffffffffffffffffffffffffffff1673ffffffffffffffffffffffffffffffffffffffff16815250509050919050565b606080600060015467ffffffffffffffff8111156102795761027861080d565b5b6040519080825280602002602001820160405280156102a75781602001602082028036833780820191505090505b509050600060015467ffffffffffffffff8111156102c8576102c761080d565b5b6040519080825280602002602001820160405280156102f65781602001602082028036833780820191505090505b50905060005b6001548110156103c657600080600083815260200190815260200160002090508060000154848381518110610334576103336107de565b5b6020026020010181815250508060010160009054906101000a900473ffffffffffffffffffffffffffffffffffffffff16838381518110610378576103776107de565b5b602002602001019073ffffffffffffffffffffffffffffffffffffffff16908173ffffffffffffffffffffffffffffffffffffffff16815250505080806103be90610766565b9150506102fc565b5081819350935050509091565b60006020528060005260406000206000915090508060000154908060010160009054906101000a900473ffffffffffffffffffffffffffffffffffffffff16905082565b604051806040016040528060008152602001600073ffffffffffffffffffffffffffffffffffffffff1681525090565b60008135905061045681610841565b92915050565b60008135905061046b81610858565b92915050565b6000602082840312156104875761048661083c565b5b600061049584828501610447565b91505092915050565b6000602082840312156104b4576104b361083c565b5b60006104c28482850161045c565b91505092915050565b60006104d783836104fb565b60208301905092915050565b60006104ef8383610604565b60208301905092915050565b6105048161072a565b82525050565b6105138161072a565b82525050565b6000610524826106d8565b61052e8185610708565b9350610539836106b8565b8060005b8381101561056a57815161055188826104cb565b975061055c836106ee565b92505060018101905061053d565b5085935050505092915050565b6000610582826106e3565b61058c8185610719565b9350610597836106c8565b8060005b838110156105c85781516105af88826104e3565b97506105ba836106fb565b92505060018101905061059b565b5085935050505092915050565b6040820160008201516105eb6000850182610604565b5060208201516105fe60208501826104fb565b50505050565b61060d8161075c565b82525050565b61061c8161075c565b82525050565b6000604082019050818103600083015261063c8185610577565b905081810360208301526106508184610519565b90509392505050565b600060408201905061066e60008301846105d5565b92915050565b60006020820190506106896000830184610613565b92915050565b60006040820190506106a46000830185610613565b6106b1602083018461050a565b9392505050565b6000819050602082019050919050565b6000819050602082019050919050565b600081519050919050565b600081519050919050565b6000602082019050919050565b6000602082019050919050565b600082825260208201905092915050565b600082825260208201905092915050565b60006107358261073c565b9050919050565b600073ffffffffffffffffffffffffffffffffffffffff82169050919050565b6000819050919050565b60006107718261075c565b91507fffffffffffffffffffffffffffffffffffffffffffffffffffffffffffffffff8214156107a4576107a36107af565b5b600182019050919050565b7f4e487b7100000000000000000000000000000000000000000000000000000000600052601160045260246000fd5b7f4e487b7100000000000000000000000000000000000000000000000000000000600052603260045260246000fd5b7f4e487b7100000000000000000000000000000000000000000000000000000000600052604160045260246000fd5b600080fd5b61084a8161072a565b811461085557600080fd5b50565b6108618161075c565b811461086c57600080fd5b5056fea2646970667358221220a1ee8c5f73f27f077a6a20fcfd8a3357dcf49a5157e400ef1fc725bae1988fda64736f6c63430008070033",
					"opcodes": "PUSH1 0x80 PUSH1 0x40 MSTORE CALLVALUE DUP1 ISZERO PUSH2 0x10 JUMPI PUSH1 0x0 DUP1 REVERT JUMPDEST POP PUSH1 0x0 PUSH1 0x1 DUP2 SWAP1 SSTORE POP PUSH2 0x8A5 DUP1 PUSH2 0x28 PUSH1 0x0 CODECOPY PUSH1 0x0 RETURN INVALID PUSH1 0x80 PUSH1 0x40 MSTORE CALLVALUE DUP1 ISZERO PUSH2 0x10 JUMPI PUSH1 0x0 DUP1 REVERT JUMPDEST POP PUSH1 0x4 CALLDATASIZE LT PUSH2 0x57 JUMPI PUSH1 0x0 CALLDATALOAD PUSH1 0xE0 SHR DUP1 PUSH4 0x193DE85D EQ PUSH2 0x5C JUMPI DUP1 PUSH4 0x92812E6F EQ PUSH2 0x78 JUMPI DUP1 PUSH4 0x9507D39A EQ PUSH2 0x96 JUMPI DUP1 PUSH4 0xF2A50281 EQ PUSH2 0xC6 JUMPI DUP1 PUSH4 0xFCA5E61E EQ PUSH2 0xE5 JUMPI JUMPDEST PUSH1 0x0 DUP1 REVERT JUMPDEST PUSH2 0x76 PUSH1 0x4 DUP1 CALLDATASIZE SUB DUP2 ADD SWAP1 PUSH2 0x71 SWAP2 SWAP1 PUSH2 0x471 JUMP JUMPDEST PUSH2 0x116 JUMP JUMPDEST STOP JUMPDEST PUSH2 0x80 PUSH2 0x1C6 JUMP JUMPDEST PUSH1 0x40 MLOAD PUSH2 0x8D SWAP2 SWAP1 PUSH2 0x674 JUMP JUMPDEST PUSH1 0x40 MLOAD DUP1 SWAP2 SUB SWAP1 RETURN JUMPDEST PUSH2 0xB0 PUSH1 0x4 DUP1 CALLDATASIZE SUB DUP2 ADD SWAP1 PUSH2 0xAB SWAP2 SWAP1 PUSH2 0x49E JUMP JUMPDEST PUSH2 0x1CC JUMP JUMPDEST PUSH1 0x40 MLOAD PUSH2 0xBD SWAP2 SWAP1 PUSH2 0x659 JUMP JUMPDEST PUSH1 0x40 MLOAD DUP1 SWAP2 SUB SWAP1 RETURN JUMPDEST PUSH2 0xCE PUSH2 0x258 JUMP JUMPDEST PUSH1 0x40 MLOAD PUSH2 0xDC SWAP3 SWAP2 SWAP1 PUSH2 0x622 JUMP JUMPDEST PUSH1 0x40 MLOAD DUP1 SWAP2 SUB SWAP1 RETURN JUMPDEST PUSH2 0xFF PUSH1 0x4 DUP1 CALLDATASIZE SUB DUP2 ADD SWAP1 PUSH2 0xFA SWAP2 SWAP1 PUSH2 0x49E JUMP JUMPDEST PUSH2 0x3D3 JUMP JUMPDEST PUSH1 0x40 MLOAD PUSH2 0x10D SWAP3 SWAP2 SWAP1 PUSH2 0x68F JUMP JUMPDEST PUSH1 0x40 MLOAD DUP1 SWAP2 SUB SWAP1 RETURN JUMPDEST PUSH1 0x40 MLOAD DUP1 PUSH1 0x40 ADD PUSH1 0x40 MSTORE DUP1 PUSH1 0x1 SLOAD DUP2 MSTORE PUSH1 0x20 ADD DUP3 PUSH20 0xFFFFFFFFFFFFFFFFFFFFFFFFFFFFFFFFFFFFFFFF AND DUP2 MSTORE POP PUSH1 0x0 DUP1 PUSH1 0x1 SLOAD DUP2 MSTORE PUSH1 0x20 ADD SWAP1 DUP2 MSTORE PUSH1 0x20 ADD PUSH1 0x0 KECCAK256 PUSH1 0x0 DUP3 ADD MLOAD DUP2 PUSH1 0x0 ADD SSTORE PUSH1 0x20 DUP3 ADD MLOAD DUP2 PUSH1 0x1 ADD PUSH1 0x0 PUSH2 0x100 EXP DUP2 SLOAD DUP2 PUSH20 0xFFFFFFFFFFFFFFFFFFFFFFFFFFFFFFFFFFFFFFFF MUL NOT AND SWAP1 DUP4 PUSH20 0xFFFFFFFFFFFFFFFFFFFFFFFFFFFFFFFFFFFFFFFF AND MUL OR SWAP1 SSTORE POP SWAP1 POP POP PUSH1 0x1 PUSH1 0x0 DUP2 SLOAD DUP1 SWAP3 SWAP2 SWAP1 PUSH2 0x1BE SWAP1 PUSH2 0x766 JUMP JUMPDEST SWAP2 SWAP1 POP SSTORE POP POP JUMP JUMPDEST PUSH1 0x1 SLOAD DUP2 JUMP JUMPDEST PUSH2 0x1D4 PUSH2 0x417 JUMP JUMPDEST PUSH1 0x0 DUP1 DUP4 DUP2 MSTORE PUSH1 0x20 ADD SWAP1 DUP2 MSTORE PUSH1 0x20 ADD PUSH1 0x0 KECCAK256 PUSH1 0x40 MLOAD DUP1 PUSH1 0x40 ADD PUSH1 0x40 MSTORE SWAP1 DUP2 PUSH1 0x0 DUP3 ADD SLOAD DUP2 MSTORE PUSH1 0x20 ADD PUSH1 0x1 DUP3 ADD PUSH1 0x0 SWAP1 SLOAD SWAP1 PUSH2 0x100 EXP SWAP1 DIV PUSH20 0xFFFFFFFFFFFFFFFFFFFFFFFFFFFFFFFFFFFFFFFF AND PUSH20 0xFFFFFFFFFFFFFFFFFFFFFFFFFFFFFFFFFFFFFFFF AND PUSH20 0xFFFFFFFFFFFFFFFFFFFFFFFFFFFFFFFFFFFFFFFF AND DUP2 MSTORE POP POP SWAP1 POP SWAP2 SWAP1 POP JUMP JUMPDEST PUSH1 0x60 DUP1 PUSH1 0x0 PUSH1 0x1 SLOAD PUSH8 0xFFFFFFFFFFFFFFFF DUP2 GT ISZERO PUSH2 0x279 JUMPI PUSH2 0x278 PUSH2 0x80D JUMP JUMPDEST JUMPDEST PUSH1 0x40 MLOAD SWAP1 DUP1 DUP3 MSTORE DUP1 PUSH1 0x20 MUL PUSH1 0x20 ADD DUP3 ADD PUSH1 0x40 MSTORE DUP1 ISZERO PUSH2 0x2A7 JUMPI DUP2 PUSH1 0x20 ADD PUSH1 0x20 DUP3 MUL DUP1 CALLDATASIZE DUP4 CALLDATACOPY DUP1 DUP3 ADD SWAP2 POP POP SWAP1 POP JUMPDEST POP SWAP1 POP PUSH1 0x0 PUSH1 0x1 SLOAD PUSH8 0xFFFFFFFFFFFFFFFF DUP2 GT ISZERO PUSH2 0x2C8 JUMPI PUSH2 0x2C7 PUSH2 0x80D JUMP JUMPDEST JUMPDEST PUSH1 0x40 MLOAD SWAP1 DUP1 DUP3 MSTORE DUP1 PUSH1 0x20 MUL PUSH1 0x20 ADD DUP3 ADD PUSH1 0x40 MSTORE DUP1 ISZERO PUSH2 0x2F6 JUMPI DUP2 PUSH1 0x20 ADD PUSH1 0x20 DUP3 MUL DUP1 CALLDATASIZE DUP4 CALLDATACOPY DUP1 DUP3 ADD SWAP2 POP POP SWAP1 POP JUMPDEST POP SWAP1 POP PUSH1 0x0 JUMPDEST PUSH1 0x1 SLOAD DUP2 LT ISZERO PUSH2 0x3C6 JUMPI PUSH1 0x0 DUP1 PUSH1 0x0 DUP4 DUP2 MSTORE PUSH1 0x20 ADD SWAP1 DUP2 MSTORE PUSH1 0x20 ADD PUSH1 0x0 KECCAK256 SWAP1 POP DUP1 PUSH1 0x0 ADD SLOAD DUP5 DUP4 DUP2 MLOAD DUP2 LT PUSH2 0x334 JUMPI PUSH2 0x333 PUSH2 0x7DE JUMP JUMPDEST JUMPDEST PUSH1 0x20 MUL PUSH1 0x20 ADD ADD DUP2 DUP2 MSTORE POP POP DUP1 PUSH1 0x1 ADD PUSH1 0x0 SWAP1 SLOAD SWAP1 PUSH2 0x100 EXP SWAP1 DIV PUSH20 0xFFFFFFFFFFFFFFFFFFFFFFFFFFFFFFFFFFFFFFFF AND DUP4 DUP4 DUP2 MLOAD DUP2 LT PUSH2 0x378 JUMPI PUSH2 0x377 PUSH2 0x7DE JUMP JUMPDEST JUMPDEST PUSH1 0x20 MUL PUSH1 0x20 ADD ADD SWAP1 PUSH20 0xFFFFFFFFFFFFFFFFFFFFFFFFFFFFFFFFFFFFFFFF AND SWAP1 DUP2 PUSH20 0xFFFFFFFFFFFFFFFFFFFFFFFFFFFFFFFFFFFFFFFF AND DUP2 MSTORE POP POP POP DUP1 DUP1 PUSH2 0x3BE SWAP1 PUSH2 0x766 JUMP JUMPDEST SWAP2 POP POP PUSH2 0x2FC JUMP JUMPDEST POP DUP2 DUP2 SWAP4 POP SWAP4 POP POP POP SWAP1 SWAP2 JUMP JUMPDEST PUSH1 0x0 PUSH1 0x20 MSTORE DUP1 PUSH1 0x0 MSTORE PUSH1 0x40 PUSH1 0x0 KECCAK256 PUSH1 0x0 SWAP2 POP SWAP1 POP DUP1 PUSH1 0x0 ADD SLOAD SWAP1 DUP1 PUSH1 0x1 ADD PUSH1 0x0 SWAP1 SLOAD SWAP1 PUSH2 0x100 EXP SWAP1 DIV PUSH20 0xFFFFFFFFFFFFFFFFFFFFFFFFFFFFFFFFFFFFFFFF AND SWAP1 POP DUP3 JUMP JUMPDEST PUSH1 0x40 MLOAD DUP1 PUSH1 0x40 ADD PUSH1 0x40 MSTORE DUP1 PUSH1 0x0 DUP2 MSTORE PUSH1 0x20 ADD PUSH1 0x0 PUSH20 0xFFFFFFFFFFFFFFFFFFFFFFFFFFFFFFFFFFFFFFFF AND DUP2 MSTORE POP SWAP1 JUMP JUMPDEST PUSH1 0x0 DUP2 CALLDATALOAD SWAP1 POP PUSH2 0x456 DUP2 PUSH2 0x841 JUMP JUMPDEST SWAP3 SWAP2 POP POP JUMP JUMPDEST PUSH1 0x0 DUP2 CALLDATALOAD SWAP1 POP PUSH2 0x46B DUP2 PUSH2 0x858 JUMP JUMPDEST SWAP3 SWAP2 POP POP JUMP JUMPDEST PUSH1 0x0 PUSH1 0x20 DUP3 DUP5 SUB SLT ISZERO PUSH2 0x487 JUMPI PUSH2 0x486 PUSH2 0x83C JUMP JUMPDEST JUMPDEST PUSH1 0x0 PUSH2 0x495 DUP5 DUP3 DUP6 ADD PUSH2 0x447 JUMP JUMPDEST SWAP2 POP POP SWAP3 SWAP2 POP POP JUMP JUMPDEST PUSH1 0x0 PUSH1 0x20 DUP3 DUP5 SUB SLT ISZERO PUSH2 0x4B4 JUMPI PUSH2 0x4B3 PUSH2 0x83C JUMP JUMPDEST JUMPDEST PUSH1 0x0 PUSH2 0x4C2 DUP5 DUP3 DUP6 ADD PUSH2 0x45C JUMP JUMPDEST SWAP2 POP POP SWAP3 SWAP2 POP POP JUMP JUMPDEST PUSH1 0x0 PUSH2 0x4D7 DUP4 DUP4 PUSH2 0x4FB JUMP JUMPDEST PUSH1 0x20 DUP4 ADD SWAP1 POP SWAP3 SWAP2 POP POP JUMP JUMPDEST PUSH1 0x0 PUSH2 0x4EF DUP4 DUP4 PUSH2 0x604 JUMP JUMPDEST PUSH1 0x20 DUP4 ADD SWAP1 POP SWAP3 SWAP2 POP POP JUMP JUMPDEST PUSH2 0x504 DUP2 PUSH2 0x72A JUMP JUMPDEST DUP3 MSTORE POP POP JUMP JUMPDEST PUSH2 0x513 DUP2 PUSH2 0x72A JUMP JUMPDEST DUP3 MSTORE POP POP JUMP JUMPDEST PUSH1 0x0 PUSH2 0x524 DUP3 PUSH2 0x6D8 JUMP JUMPDEST PUSH2 0x52E DUP2 DUP6 PUSH2 0x708 JUMP JUMPDEST SWAP4 POP PUSH2 0x539 DUP4 PUSH2 0x6B8 JUMP JUMPDEST DUP1 PUSH1 0x0 JUMPDEST DUP4 DUP2 LT ISZERO PUSH2 0x56A JUMPI DUP2 MLOAD PUSH2 0x551 DUP9 DUP3 PUSH2 0x4CB JUMP JUMPDEST SWAP8 POP PUSH2 0x55C DUP4 PUSH2 0x6EE JUMP JUMPDEST SWAP3 POP POP PUSH1 0x1 DUP2 ADD SWAP1 POP PUSH2 0x53D JUMP JUMPDEST POP DUP6 SWAP4 POP POP POP POP SWAP3 SWAP2 POP POP JUMP JUMPDEST PUSH1 0x0 PUSH2 0x582 DUP3 PUSH2 0x6E3 JUMP JUMPDEST PUSH2 0x58C DUP2 DUP6 PUSH2 0x719 JUMP JUMPDEST SWAP4 POP PUSH2 0x597 DUP4 PUSH2 0x6C8 JUMP JUMPDEST DUP1 PUSH1 0x0 JUMPDEST DUP4 DUP2 LT ISZERO PUSH2 0x5C8 JUMPI DUP2 MLOAD PUSH2 0x5AF DUP9 DUP3 PUSH2 0x4E3 JUMP JUMPDEST SWAP8 POP PUSH2 0x5BA DUP4 PUSH2 0x6FB JUMP JUMPDEST SWAP3 POP POP PUSH1 0x1 DUP2 ADD SWAP1 POP PUSH2 0x59B JUMP JUMPDEST POP DUP6 SWAP4 POP POP POP POP SWAP3 SWAP2 POP POP JUMP JUMPDEST PUSH1 0x40 DUP3 ADD PUSH1 0x0 DUP3 ADD MLOAD PUSH2 0x5EB PUSH1 0x0 DUP6 ADD DUP3 PUSH2 0x604 JUMP JUMPDEST POP PUSH1 0x20 DUP3 ADD MLOAD PUSH2 0x5FE PUSH1 0x20 DUP6 ADD DUP3 PUSH2 0x4FB JUMP JUMPDEST POP POP POP POP JUMP JUMPDEST PUSH2 0x60D DUP2 PUSH2 0x75C JUMP JUMPDEST DUP3 MSTORE POP POP JUMP JUMPDEST PUSH2 0x61C DUP2 PUSH2 0x75C JUMP JUMPDEST DUP3 MSTORE POP POP JUMP JUMPDEST PUSH1 0x0 PUSH1 0x40 DUP3 ADD SWAP1 POP DUP2 DUP2 SUB PUSH1 0x0 DUP4 ADD MSTORE PUSH2 0x63C DUP2 DUP6 PUSH2 0x577 JUMP JUMPDEST SWAP1 POP DUP2 DUP2 SUB PUSH1 0x20 DUP4 ADD MSTORE PUSH2 0x650 DUP2 DUP5 PUSH2 0x519 JUMP JUMPDEST SWAP1 POP SWAP4 SWAP3 POP POP POP JUMP JUMPDEST PUSH1 0x0 PUSH1 0x40 DUP3 ADD SWAP1 POP PUSH2 0x66E PUSH1 0x0 DUP4 ADD DUP5 PUSH2 0x5D5 JUMP JUMPDEST SWAP3 SWAP2 POP POP JUMP JUMPDEST PUSH1 0x0 PUSH1 0x20 DUP3 ADD SWAP1 POP PUSH2 0x689 PUSH1 0x0 DUP4 ADD DUP5 PUSH2 0x613 JUMP JUMPDEST SWAP3 SWAP2 POP POP JUMP JUMPDEST PUSH1 0x0 PUSH1 0x40 DUP3 ADD SWAP1 POP PUSH2 0x6A4 PUSH1 0x0 DUP4 ADD DUP6 PUSH2 0x613 JUMP JUMPDEST PUSH2 0x6B1 PUSH1 0x20 DUP4 ADD DUP5 PUSH2 0x50A JUMP JUMPDEST SWAP4 SWAP3 POP POP POP JUMP JUMPDEST PUSH1 0x0 DUP2 SWAP1 POP PUSH1 0x20 DUP3 ADD SWAP1 POP SWAP2 SWAP1 POP JUMP JUMPDEST PUSH1 0x0 DUP2 SWAP1 POP PUSH1 0x20 DUP3 ADD SWAP1 POP SWAP2 SWAP1 POP JUMP JUMPDEST PUSH1 0x0 DUP2 MLOAD SWAP1 POP SWAP2 SWAP1 POP JUMP JUMPDEST PUSH1 0x0 DUP2 MLOAD SWAP1 POP SWAP2 SWAP1 POP JUMP JUMPDEST PUSH1 0x0 PUSH1 0x20 DUP3 ADD SWAP1 POP SWAP2 SWAP1 POP JUMP JUMPDEST PUSH1 0x0 PUSH1 0x20 DUP3 ADD SWAP1 POP SWAP2 SWAP1 POP JUMP JUMPDEST PUSH1 0x0 DUP3 DUP3 MSTORE PUSH1 0x20 DUP3 ADD SWAP1 POP SWAP3 SWAP2 POP POP JUMP JUMPDEST PUSH1 0x0 DUP3 DUP3 MSTORE PUSH1 0x20 DUP3 ADD SWAP1 POP SWAP3 SWAP2 POP POP JUMP JUMPDEST PUSH1 0x0 PUSH2 0x735 DUP3 PUSH2 0x73C JUMP JUMPDEST SWAP1 POP SWAP2 SWAP1 POP JUMP JUMPDEST PUSH1 0x0 PUSH20 0xFFFFFFFFFFFFFFFFFFFFFFFFFFFFFFFFFFFFFFFF DUP3 AND SWAP1 POP SWAP2 SWAP1 POP JUMP JUMPDEST PUSH1 0x0 DUP2 SWAP1 POP SWAP2 SWAP1 POP JUMP JUMPDEST PUSH1 0x0 PUSH2 0x771 DUP3 PUSH2 0x75C JUMP JUMPDEST SWAP2 POP PUSH32 0xFFFFFFFFFFFFFFFFFFFFFFFFFFFFFFFFFFFFFFFFFFFFFFFFFFFFFFFFFFFFFFFF DUP3 EQ ISZERO PUSH2 0x7A4 JUMPI PUSH2 0x7A3 PUSH2 0x7AF JUMP JUMPDEST JUMPDEST PUSH1 0x1 DUP3 ADD SWAP1 POP SWAP2 SWAP1 POP JUMP JUMPDEST PUSH32 0x4E487B7100000000000000000000000000000000000000000000000000000000 PUSH1 0x0 MSTORE PUSH1 0x11 PUSH1 0x4 MSTORE PUSH1 0x24 PUSH1 0x0 REVERT JUMPDEST PUSH32 0x4E487B7100000000000000000000000000000000000000000000000000000000 PUSH1 0x0 MSTORE PUSH1 0x32 PUSH1 0x4 MSTORE PUSH1 0x24 PUSH1 0x0 REVERT JUMPDEST PUSH32 0x4E487B7100000000000000000000000000000000000000000000000000000000 PUSH1 0x0 MSTORE PUSH1 0x41 PUSH1 0x4 MSTORE PUSH1 0x24 PUSH1 0x0 REVERT JUMPDEST PUSH1 0x0 DUP1 REVERT JUMPDEST PUSH2 0x84A DUP2 PUSH2 0x72A JUMP JUMPDEST DUP2 EQ PUSH2 0x855 JUMPI PUSH1 0x0 DUP1 REVERT JUMPDEST POP JUMP JUMPDEST PUSH2 0x861 DUP2 PUSH2 0x75C JUMP JUMPDEST DUP2 EQ PUSH2 0x86C JUMPI PUSH1 0x0 DUP1 REVERT JUMPDEST POP JUMP INVALID LOG2 PUSH5 0x6970667358 0x22 SLT KECCAK256 LOG1 0xEE DUP13 0x5F PUSH20 0xF27F077A6A20FCFD8A3357DCF49A5157E400EF1F 0xC7 0x25 0xBA 0xE1 SWAP9 DUP16 0xDA PUSH5 0x736F6C6343 STOP ADDMOD SMOD STOP CALLER "
				},
				"gasEstimates": {
					"creation": {
						"codeDepositCost": "442600",
						"executionCost": "5494",
						"totalCost": "448094"
					},
					"external": {
						"addDrug(address)": "75549",
						"drugs(uint256)": "infinite",
						"drugsCount()": "2429",
						"get(uint256)": "infinite",
						"getDrug()": "infinite"
					}
				},
				"methodIdentifiers": {
					"addDrug(address)": "193de85d",
					"drugs(uint256)": "fca5e61e",
					"drugsCount()": "92812e6f",
					"get(uint256)": "9507d39a",
					"getDrug()": "f2a50281"
				}
			},
			"storageLayout": {
				"storage": [
					{
						"astId": 12,
						"contract": "contracts/Drugs.sol:Drugs",
						"label": "drugs",
						"offset": 0,
						"slot": "0",
						"type": "t_mapping(t_uint256,t_struct(Drug)7_storage)"
					},
					{
						"astId": 14,
						"contract": "contracts/Drugs.sol:Drugs",
						"label": "drugsCount",
						"offset": 0,
						"slot": "1",
						"type": "t_uint256"
					}
				],
				"types": {
					"t_address": {
						"encoding": "inplace",
						"label": "address",
						"numberOfBytes": "20"
					},
					"t_mapping(t_uint256,t_struct(Drug)7_storage)": {
						"encoding": "mapping",
						"key": "t_uint256",
						"label": "mapping(uint256 => struct Drugs.Drug)",
						"numberOfBytes": "32",
						"value": "t_struct(Drug)7_storage"
					},
					"t_struct(Drug)7_storage": {
						"encoding": "inplace",
						"label": "struct Drugs.Drug",
						"members": [
							{
								"astId": 4,
								"contract": "contracts/Drugs.sol:Drugs",
								"label": "DrugID",
								"offset": 0,
								"slot": "0",
								"type": "t_uint256"
							},
							{
								"astId": 6,
								"contract": "contracts/Drugs.sol:Drugs",
								"label": "Manufacturer",
								"offset": 0,
								"slot": "1",
								"type": "t_address"
							}
						],
						"numberOfBytes": "64"
					},
					"t_uint256": {
						"encoding": "inplace",
						"label": "uint256",
						"numberOfBytes": "32"
					}
				}
			},
			"userdoc": {
				"kind": "user",
				"methods": {},
				"version": 1
			}
		}
	}
}