{
	"contracts/Definitions.sol": {
		"Definitions": {
			"abi": [
				{
					"inputs": [
						{
							"internalType": "uint256",
							"name": "",
							"type": "uint256"
						}
					],
					"name": "EPRAccessList",
					"outputs": [
						{
							"internalType": "address",
							"name": "PatientAddress",
							"type": "address"
						},
						{
							"internalType": "address",
							"name": "DoctorAddress",
							"type": "address"
						},
						{
							"internalType": "bool",
							"name": "HasAccess",
							"type": "bool"
						}
					],
					"stateMutability": "view",
					"type": "function"
				},
				{
					"inputs": [],
					"name": "Owner",
					"outputs": [
						{
							"internalType": "address",
							"name": "",
							"type": "address"
						}
					],
					"stateMutability": "view",
					"type": "function"
				},
				{
					"inputs": [
						{
							"internalType": "uint256",
							"name": "",
							"type": "uint256"
						}
					],
					"name": "PatchTrannsactions",
					"outputs": [
						{
							"internalType": "string",
							"name": "DrugRegNo",
							"type": "string"
						},
						{
							"internalType": "string",
							"name": "PatchNo",
							"type": "string"
						},
						{
							"internalType": "uint256",
							"name": "LineNo",
							"type": "uint256"
						},
						{
							"internalType": "address",
							"name": "FromID",
							"type": "address"
						},
						{
							"internalType": "address",
							"name": "ToID",
							"type": "address"
						},
						{
							"internalType": "uint256",
							"name": "Amount",
							"type": "uint256"
						},
						{
							"internalType": "uint256",
							"name": "TransactionDate",
							"type": "uint256"
						}
					],
					"stateMutability": "view",
					"type": "function"
				}
			],
			"devdoc": {
				"kind": "dev",
				"methods": {},
				"version": 1
			},
			"evm": {
				"assembly": "    /* \"contracts/Definitions.sol\":95:2077  contract Definitions {... */\n  mstore(0x40, 0x80)\n  callvalue\n  dup1\n  iszero\n  tag_1\n  jumpi\n  0x00\n  dup1\n  revert\ntag_1:\n  pop\n  dataSize(sub_0)\n  dup1\n  dataOffset(sub_0)\n  0x00\n  codecopy\n  0x00\n  return\nstop\n\nsub_0: assembly {\n        /* \"contracts/Definitions.sol\":95:2077  contract Definitions {... */\n      mstore(0x40, 0x80)\n      callvalue\n      dup1\n      iszero\n      tag_1\n      jumpi\n      0x00\n      dup1\n      revert\n    tag_1:\n      pop\n      jumpi(tag_2, lt(calldatasize, 0x04))\n      shr(0xe0, calldataload(0x00))\n      dup1\n      0x1567697c\n      eq\n      tag_3\n      jumpi\n      dup1\n      0xb4a99a4e\n      eq\n      tag_4\n      jumpi\n      dup1\n      0xe7850244\n      eq\n      tag_5\n      jumpi\n    tag_2:\n      0x00\n      dup1\n      revert\n        /* \"contracts/Definitions.sol\":1697:1741  PatchTransaction[] public PatchTrannsactions */\n    tag_3:\n      tag_6\n      0x04\n      dup1\n      calldatasize\n      sub\n      dup2\n      add\n      swap1\n      tag_7\n      swap2\n      swap1\n      tag_8\n      jump\t// in\n    tag_7:\n      tag_9\n      jump\t// in\n    tag_6:\n      mload(0x40)\n      tag_10\n      swap8\n      swap7\n      swap6\n      swap5\n      swap4\n      swap3\n      swap2\n      swap1\n      tag_11\n      jump\t// in\n    tag_10:\n      mload(0x40)\n      dup1\n      swap2\n      sub\n      swap1\n      return\n        /* \"contracts/Definitions.sol\":221:241  address public Owner */\n    tag_4:\n      tag_12\n      tag_13\n      jump\t// in\n    tag_12:\n      mload(0x40)\n      tag_14\n      swap2\n      swap1\n      tag_15\n      jump\t// in\n    tag_14:\n      mload(0x40)\n      dup1\n      swap2\n      sub\n      swap1\n      return\n        /* \"contracts/Definitions.sol\":2042:2074  EPRAccess[] public EPRAccessList */\n    tag_5:\n      tag_16\n      0x04\n      dup1\n      calldatasize\n      sub\n      dup2\n      add\n      swap1\n      tag_17\n      swap2\n      swap1\n      tag_8\n      jump\t// in\n    tag_17:\n      tag_18\n      jump\t// in\n    tag_16:\n      mload(0x40)\n      tag_19\n      swap4\n      swap3\n      swap2\n      swap1\n      tag_20\n      jump\t// in\n    tag_19:\n      mload(0x40)\n      dup1\n      swap2\n      sub\n      swap1\n      return\n        /* \"contracts/Definitions.sol\":1697:1741  PatchTransaction[] public PatchTrannsactions */\n    tag_9:\n      0x05\n      dup2\n      dup2\n      sload\n      dup2\n      lt\n      tag_21\n      jumpi\n      0x00\n      dup1\n      revert\n    tag_21:\n      swap1\n      0x00\n      mstore\n      keccak256(0x00, 0x20)\n      swap1\n      0x07\n      mul\n      add\n      0x00\n      swap2\n      pop\n      swap1\n      pop\n      dup1\n      0x00\n      add\n      dup1\n      sload\n      tag_23\n      swap1\n      tag_24\n      jump\t// in\n    tag_23:\n      dup1\n      0x1f\n      add\n      0x20\n      dup1\n      swap2\n      div\n      mul\n      0x20\n      add\n      mload(0x40)\n      swap1\n      dup2\n      add\n      0x40\n      mstore\n      dup1\n      swap3\n      swap2\n      swap1\n      dup2\n      dup2\n      mstore\n      0x20\n      add\n      dup3\n      dup1\n      sload\n      tag_25\n      swap1\n      tag_24\n      jump\t// in\n    tag_25:\n      dup1\n      iszero\n      tag_26\n      jumpi\n      dup1\n      0x1f\n      lt\n      tag_27\n      jumpi\n      0x0100\n      dup1\n      dup4\n      sload\n      div\n      mul\n      dup4\n      mstore\n      swap2\n      0x20\n      add\n      swap2\n      jump(tag_26)\n    tag_27:\n      dup3\n      add\n      swap2\n      swap1\n      0x00\n      mstore\n      keccak256(0x00, 0x20)\n      swap1\n    tag_28:\n      dup2\n      sload\n      dup2\n      mstore\n      swap1\n      0x01\n      add\n      swap1\n      0x20\n      add\n      dup1\n      dup4\n      gt\n      tag_28\n      jumpi\n      dup3\n      swap1\n      sub\n      0x1f\n      and\n      dup3\n      add\n      swap2\n    tag_26:\n      pop\n      pop\n      pop\n      pop\n      pop\n      swap1\n      dup1\n      0x01\n      add\n      dup1\n      sload\n      tag_29\n      swap1\n      tag_24\n      jump\t// in\n    tag_29:\n      dup1\n      0x1f\n      add\n      0x20\n      dup1\n      swap2\n      div\n      mul\n      0x20\n      add\n      mload(0x40)\n      swap1\n      dup2\n      add\n      0x40\n      mstore\n      dup1\n      swap3\n      swap2\n      swap1\n      dup2\n      dup2\n      mstore\n      0x20\n      add\n      dup3\n      dup1\n      sload\n      tag_30\n      swap1\n      tag_24\n      jump\t// in\n    tag_30:\n      dup1\n      iszero\n      tag_31\n      jumpi\n      dup1\n      0x1f\n      lt\n      tag_32\n      jumpi\n      0x0100\n      dup1\n      dup4\n      sload\n      div\n      mul\n      dup4\n      mstore\n      swap2\n      0x20\n      add\n      swap2\n      jump(tag_31)\n    tag_32:\n      dup3\n      add\n      swap2\n      swap1\n      0x00\n      mstore\n      keccak256(0x00, 0x20)\n      swap1\n    tag_33:\n      dup2\n      sload\n      dup2\n      mstore\n      swap1\n      0x01\n      add\n      swap1\n      0x20\n      add\n      dup1\n      dup4\n      gt\n      tag_33\n      jumpi\n      dup3\n      swap1\n      sub\n      0x1f\n      and\n      dup3\n      add\n      swap2\n    tag_31:\n      pop\n      pop\n      pop\n      pop\n      pop\n      swap1\n      dup1\n      0x02\n      add\n      sload\n      swap1\n      dup1\n      0x03\n      add\n      0x00\n      swap1\n      sload\n      swap1\n      0x0100\n      exp\n      swap1\n      div\n      0xffffffffffffffffffffffffffffffffffffffff\n      and\n      swap1\n      dup1\n      0x04\n      add\n      0x00\n      swap1\n      sload\n      swap1\n      0x0100\n      exp\n      swap1\n      div\n      0xffffffffffffffffffffffffffffffffffffffff\n      and\n      swap1\n      dup1\n      0x05\n      add\n      sload\n      swap1\n      dup1\n      0x06\n      add\n      sload\n      swap1\n      pop\n      dup8\n      jump\t// out\n        /* \"contracts/Definitions.sol\":221:241  address public Owner */\n    tag_13:\n      0x00\n      dup1\n      sload\n      swap1\n      0x0100\n      exp\n      swap1\n      div\n      0xffffffffffffffffffffffffffffffffffffffff\n      and\n      dup2\n      jump\t// out\n        /* \"contracts/Definitions.sol\":2042:2074  EPRAccess[] public EPRAccessList */\n    tag_18:\n      0x06\n      dup2\n      dup2\n      sload\n      dup2\n      lt\n      tag_34\n      jumpi\n      0x00\n      dup1\n      revert\n    tag_34:\n      swap1\n      0x00\n      mstore\n      keccak256(0x00, 0x20)\n      swap1\n      0x02\n      mul\n      add\n      0x00\n      swap2\n      pop\n      swap1\n      pop\n      dup1\n      0x00\n      add\n      0x00\n      swap1\n      sload\n      swap1\n      0x0100\n      exp\n      swap1\n      div\n      0xffffffffffffffffffffffffffffffffffffffff\n      and\n      swap1\n      dup1\n      0x01\n      add\n      0x00\n      swap1\n      sload\n      swap1\n      0x0100\n      exp\n      swap1\n      div\n      0xffffffffffffffffffffffffffffffffffffffff\n      and\n      swap1\n      dup1\n      0x01\n      add\n      0x14\n      swap1\n      sload\n      swap1\n      0x0100\n      exp\n      swap1\n      div\n      0xff\n      and\n      swap1\n      pop\n      dup4\n      jump\t// out\n        /* \"#utility.yul\":7:146   */\n    tag_37:\n        /* \"#utility.yul\":53:58   */\n      0x00\n        /* \"#utility.yul\":91:97   */\n      dup2\n        /* \"#utility.yul\":78:98   */\n      calldataload\n        /* \"#utility.yul\":69:98   */\n      swap1\n      pop\n        /* \"#utility.yul\":107:140   */\n      tag_39\n        /* \"#utility.yul\":134:139   */\n      dup2\n        /* \"#utility.yul\":107:140   */\n      tag_40\n      jump\t// in\n    tag_39:\n        /* \"#utility.yul\":7:146   */\n      swap3\n      swap2\n      pop\n      pop\n      jump\t// out\n        /* \"#utility.yul\":152:481   */\n    tag_8:\n        /* \"#utility.yul\":211:217   */\n      0x00\n        /* \"#utility.yul\":260:262   */\n      0x20\n        /* \"#utility.yul\":248:257   */\n      dup3\n        /* \"#utility.yul\":239:246   */\n      dup5\n        /* \"#utility.yul\":235:258   */\n      sub\n        /* \"#utility.yul\":231:263   */\n      slt\n        /* \"#utility.yul\":228:347   */\n      iszero\n      tag_42\n      jumpi\n        /* \"#utility.yul\":266:345   */\n      tag_43\n      tag_44\n      jump\t// in\n    tag_43:\n        /* \"#utility.yul\":228:347   */\n    tag_42:\n        /* \"#utility.yul\":386:387   */\n      0x00\n        /* \"#utility.yul\":411:464   */\n      tag_45\n        /* \"#utility.yul\":456:463   */\n      dup5\n        /* \"#utility.yul\":447:453   */\n      dup3\n        /* \"#utility.yul\":436:445   */\n      dup6\n        /* \"#utility.yul\":432:454   */\n      add\n        /* \"#utility.yul\":411:464   */\n      tag_37\n      jump\t// in\n    tag_45:\n        /* \"#utility.yul\":401:464   */\n      swap2\n      pop\n        /* \"#utility.yul\":357:474   */\n      pop\n        /* \"#utility.yul\":152:481   */\n      swap3\n      swap2\n      pop\n      pop\n      jump\t// out\n        /* \"#utility.yul\":487:605   */\n    tag_46:\n        /* \"#utility.yul\":574:598   */\n      tag_48\n        /* \"#utility.yul\":592:597   */\n      dup2\n        /* \"#utility.yul\":574:598   */\n      tag_49\n      jump\t// in\n    tag_48:\n        /* \"#utility.yul\":569:572   */\n      dup3\n        /* \"#utility.yul\":562:599   */\n      mstore\n        /* \"#utility.yul\":487:605   */\n      pop\n      pop\n      jump\t// out\n        /* \"#utility.yul\":611:720   */\n    tag_50:\n        /* \"#utility.yul\":692:713   */\n      tag_52\n        /* \"#utility.yul\":707:712   */\n      dup2\n        /* \"#utility.yul\":692:713   */\n      tag_53\n      jump\t// in\n    tag_52:\n        /* \"#utility.yul\":687:690   */\n      dup3\n        /* \"#utility.yul\":680:714   */\n      mstore\n        /* \"#utility.yul\":611:720   */\n      pop\n      pop\n      jump\t// out\n        /* \"#utility.yul\":726:1090   */\n    tag_54:\n        /* \"#utility.yul\":814:817   */\n      0x00\n        /* \"#utility.yul\":842:881   */\n      tag_56\n        /* \"#utility.yul\":875:880   */\n      dup3\n        /* \"#utility.yul\":842:881   */\n      tag_57\n      jump\t// in\n    tag_56:\n        /* \"#utility.yul\":897:968   */\n      tag_58\n        /* \"#utility.yul\":961:967   */\n      dup2\n        /* \"#utility.yul\":956:959   */\n      dup6\n        /* \"#utility.yul\":897:968   */\n      tag_59\n      jump\t// in\n    tag_58:\n        /* \"#utility.yul\":890:968   */\n      swap4\n      pop\n        /* \"#utility.yul\":977:1029   */\n      tag_60\n        /* \"#utility.yul\":1022:1028   */\n      dup2\n        /* \"#utility.yul\":1017:1020   */\n      dup6\n        /* \"#utility.yul\":1010:1014   */\n      0x20\n        /* \"#utility.yul\":1003:1008   */\n      dup7\n        /* \"#utility.yul\":999:1015   */\n      add\n        /* \"#utility.yul\":977:1029   */\n      tag_61\n      jump\t// in\n    tag_60:\n        /* \"#utility.yul\":1054:1083   */\n      tag_62\n        /* \"#utility.yul\":1076:1082   */\n      dup2\n        /* \"#utility.yul\":1054:1083   */\n      tag_63\n      jump\t// in\n    tag_62:\n        /* \"#utility.yul\":1049:1052   */\n      dup5\n        /* \"#utility.yul\":1045:1084   */\n      add\n        /* \"#utility.yul\":1038:1084   */\n      swap2\n      pop\n        /* \"#utility.yul\":818:1090   */\n      pop\n        /* \"#utility.yul\":726:1090   */\n      swap3\n      swap2\n      pop\n      pop\n      jump\t// out\n        /* \"#utility.yul\":1096:1214   */\n    tag_64:\n        /* \"#utility.yul\":1183:1207   */\n      tag_66\n        /* \"#utility.yul\":1201:1206   */\n      dup2\n        /* \"#utility.yul\":1183:1207   */\n      tag_67\n      jump\t// in\n    tag_66:\n        /* \"#utility.yul\":1178:1181   */\n      dup3\n        /* \"#utility.yul\":1171:1208   */\n      mstore\n        /* \"#utility.yul\":1096:1214   */\n      pop\n      pop\n      jump\t// out\n        /* \"#utility.yul\":1220:1442   */\n    tag_15:\n        /* \"#utility.yul\":1313:1317   */\n      0x00\n        /* \"#utility.yul\":1351:1353   */\n      0x20\n        /* \"#utility.yul\":1340:1349   */\n      dup3\n        /* \"#utility.yul\":1336:1354   */\n      add\n        /* \"#utility.yul\":1328:1354   */\n      swap1\n      pop\n        /* \"#utility.yul\":1364:1435   */\n      tag_69\n        /* \"#utility.yul\":1432:1433   */\n      0x00\n        /* \"#utility.yul\":1421:1430   */\n      dup4\n        /* \"#utility.yul\":1417:1434   */\n      add\n        /* \"#utility.yul\":1408:1414   */\n      dup5\n        /* \"#utility.yul\":1364:1435   */\n      tag_46\n      jump\t// in\n    tag_69:\n        /* \"#utility.yul\":1220:1442   */\n      swap3\n      swap2\n      pop\n      pop\n      jump\t// out\n        /* \"#utility.yul\":1448:1878   */\n    tag_20:\n        /* \"#utility.yul\":1591:1595   */\n      0x00\n        /* \"#utility.yul\":1629:1631   */\n      0x60\n        /* \"#utility.yul\":1618:1627   */\n      dup3\n        /* \"#utility.yul\":1614:1632   */\n      add\n        /* \"#utility.yul\":1606:1632   */\n      swap1\n      pop\n        /* \"#utility.yul\":1642:1713   */\n      tag_71\n        /* \"#utility.yul\":1710:1711   */\n      0x00\n        /* \"#utility.yul\":1699:1708   */\n      dup4\n        /* \"#utility.yul\":1695:1712   */\n      add\n        /* \"#utility.yul\":1686:1692   */\n      dup7\n        /* \"#utility.yul\":1642:1713   */\n      tag_46\n      jump\t// in\n    tag_71:\n        /* \"#utility.yul\":1723:1795   */\n      tag_72\n        /* \"#utility.yul\":1791:1793   */\n      0x20\n        /* \"#utility.yul\":1780:1789   */\n      dup4\n        /* \"#utility.yul\":1776:1794   */\n      add\n        /* \"#utility.yul\":1767:1773   */\n      dup6\n        /* \"#utility.yul\":1723:1795   */\n      tag_46\n      jump\t// in\n    tag_72:\n        /* \"#utility.yul\":1805:1871   */\n      tag_73\n        /* \"#utility.yul\":1867:1869   */\n      0x40\n        /* \"#utility.yul\":1856:1865   */\n      dup4\n        /* \"#utility.yul\":1852:1870   */\n      add\n        /* \"#utility.yul\":1843:1849   */\n      dup5\n        /* \"#utility.yul\":1805:1871   */\n      tag_50\n      jump\t// in\n    tag_73:\n        /* \"#utility.yul\":1448:1878   */\n      swap5\n      swap4\n      pop\n      pop\n      pop\n      pop\n      jump\t// out\n        /* \"#utility.yul\":1884:2952   */\n    tag_11:\n        /* \"#utility.yul\":2185:2189   */\n      0x00\n        /* \"#utility.yul\":2223:2226   */\n      0xe0\n        /* \"#utility.yul\":2212:2221   */\n      dup3\n        /* \"#utility.yul\":2208:2227   */\n      add\n        /* \"#utility.yul\":2200:2227   */\n      swap1\n      pop\n        /* \"#utility.yul\":2273:2282   */\n      dup2\n        /* \"#utility.yul\":2267:2271   */\n      dup2\n        /* \"#utility.yul\":2263:2283   */\n      sub\n        /* \"#utility.yul\":2259:2260   */\n      0x00\n        /* \"#utility.yul\":2248:2257   */\n      dup4\n        /* \"#utility.yul\":2244:2261   */\n      add\n        /* \"#utility.yul\":2237:2284   */\n      mstore\n        /* \"#utility.yul\":2301:2379   */\n      tag_75\n        /* \"#utility.yul\":2374:2378   */\n      dup2\n        /* \"#utility.yul\":2365:2371   */\n      dup11\n        /* \"#utility.yul\":2301:2379   */\n      tag_54\n      jump\t// in\n    tag_75:\n        /* \"#utility.yul\":2293:2379   */\n      swap1\n      pop\n        /* \"#utility.yul\":2426:2435   */\n      dup2\n        /* \"#utility.yul\":2420:2424   */\n      dup2\n        /* \"#utility.yul\":2416:2436   */\n      sub\n        /* \"#utility.yul\":2411:2413   */\n      0x20\n        /* \"#utility.yul\":2400:2409   */\n      dup4\n        /* \"#utility.yul\":2396:2414   */\n      add\n        /* \"#utility.yul\":2389:2437   */\n      mstore\n        /* \"#utility.yul\":2454:2532   */\n      tag_76\n        /* \"#utility.yul\":2527:2531   */\n      dup2\n        /* \"#utility.yul\":2518:2524   */\n      dup10\n        /* \"#utility.yul\":2454:2532   */\n      tag_54\n      jump\t// in\n    tag_76:\n        /* \"#utility.yul\":2446:2532   */\n      swap1\n      pop\n        /* \"#utility.yul\":2542:2614   */\n      tag_77\n        /* \"#utility.yul\":2610:2612   */\n      0x40\n        /* \"#utility.yul\":2599:2608   */\n      dup4\n        /* \"#utility.yul\":2595:2613   */\n      add\n        /* \"#utility.yul\":2586:2592   */\n      dup9\n        /* \"#utility.yul\":2542:2614   */\n      tag_64\n      jump\t// in\n    tag_77:\n        /* \"#utility.yul\":2624:2696   */\n      tag_78\n        /* \"#utility.yul\":2692:2694   */\n      0x60\n        /* \"#utility.yul\":2681:2690   */\n      dup4\n        /* \"#utility.yul\":2677:2695   */\n      add\n        /* \"#utility.yul\":2668:2674   */\n      dup8\n        /* \"#utility.yul\":2624:2696   */\n      tag_46\n      jump\t// in\n    tag_78:\n        /* \"#utility.yul\":2706:2779   */\n      tag_79\n        /* \"#utility.yul\":2774:2777   */\n      0x80\n        /* \"#utility.yul\":2763:2772   */\n      dup4\n        /* \"#utility.yul\":2759:2778   */\n      add\n        /* \"#utility.yul\":2750:2756   */\n      dup7\n        /* \"#utility.yul\":2706:2779   */\n      tag_46\n      jump\t// in\n    tag_79:\n        /* \"#utility.yul\":2789:2862   */\n      tag_80\n        /* \"#utility.yul\":2857:2860   */\n      0xa0\n        /* \"#utility.yul\":2846:2855   */\n      dup4\n        /* \"#utility.yul\":2842:2861   */\n      add\n        /* \"#utility.yul\":2833:2839   */\n      dup6\n        /* \"#utility.yul\":2789:2862   */\n      tag_64\n      jump\t// in\n    tag_80:\n        /* \"#utility.yul\":2872:2945   */\n      tag_81\n        /* \"#utility.yul\":2940:2943   */\n      0xc0\n        /* \"#utility.yul\":2929:2938   */\n      dup4\n        /* \"#utility.yul\":2925:2944   */\n      add\n        /* \"#utility.yul\":2916:2922   */\n      dup5\n        /* \"#utility.yul\":2872:2945   */\n      tag_64\n      jump\t// in\n    tag_81:\n        /* \"#utility.yul\":1884:2952   */\n      swap9\n      swap8\n      pop\n      pop\n      pop\n      pop\n      pop\n      pop\n      pop\n      pop\n      jump\t// out\n        /* \"#utility.yul\":3039:3138   */\n    tag_57:\n        /* \"#utility.yul\":3091:3097   */\n      0x00\n        /* \"#utility.yul\":3125:3130   */\n      dup2\n        /* \"#utility.yul\":3119:3131   */\n      mload\n        /* \"#utility.yul\":3109:3131   */\n      swap1\n      pop\n        /* \"#utility.yul\":3039:3138   */\n      swap2\n      swap1\n      pop\n      jump\t// out\n        /* \"#utility.yul\":3144:3313   */\n    tag_59:\n        /* \"#utility.yul\":3228:3239   */\n      0x00\n        /* \"#utility.yul\":3262:3268   */\n      dup3\n        /* \"#utility.yul\":3257:3260   */\n      dup3\n        /* \"#utility.yul\":3250:3269   */\n      mstore\n        /* \"#utility.yul\":3302:3306   */\n      0x20\n        /* \"#utility.yul\":3297:3300   */\n      dup3\n        /* \"#utility.yul\":3293:3307   */\n      add\n        /* \"#utility.yul\":3278:3307   */\n      swap1\n      pop\n        /* \"#utility.yul\":3144:3313   */\n      swap3\n      swap2\n      pop\n      pop\n      jump\t// out\n        /* \"#utility.yul\":3319:3415   */\n    tag_49:\n        /* \"#utility.yul\":3356:3363   */\n      0x00\n        /* \"#utility.yul\":3385:3409   */\n      tag_87\n        /* \"#utility.yul\":3403:3408   */\n      dup3\n        /* \"#utility.yul\":3385:3409   */\n      tag_88\n      jump\t// in\n    tag_87:\n        /* \"#utility.yul\":3374:3409   */\n      swap1\n      pop\n        /* \"#utility.yul\":3319:3415   */\n      swap2\n      swap1\n      pop\n      jump\t// out\n        /* \"#utility.yul\":3421:3511   */\n    tag_53:\n        /* \"#utility.yul\":3455:3462   */\n      0x00\n        /* \"#utility.yul\":3498:3503   */\n      dup2\n        /* \"#utility.yul\":3491:3504   */\n      iszero\n        /* \"#utility.yul\":3484:3505   */\n      iszero\n        /* \"#utility.yul\":3473:3505   */\n      swap1\n      pop\n        /* \"#utility.yul\":3421:3511   */\n      swap2\n      swap1\n      pop\n      jump\t// out\n        /* \"#utility.yul\":3517:3643   */\n    tag_88:\n        /* \"#utility.yul\":3554:3561   */\n      0x00\n        /* \"#utility.yul\":3594:3636   */\n      0xffffffffffffffffffffffffffffffffffffffff\n        /* \"#utility.yul\":3587:3592   */\n      dup3\n        /* \"#utility.yul\":3583:3637   */\n      and\n        /* \"#utility.yul\":3572:3637   */\n      swap1\n      pop\n        /* \"#utility.yul\":3517:3643   */\n      swap2\n      swap1\n      pop\n      jump\t// out\n        /* \"#utility.yul\":3649:3726   */\n    tag_67:\n        /* \"#utility.yul\":3686:3693   */\n      0x00\n        /* \"#utility.yul\":3715:3720   */\n      dup2\n        /* \"#utility.yul\":3704:3720   */\n      swap1\n      pop\n        /* \"#utility.yul\":3649:3726   */\n      swap2\n      swap1\n      pop\n      jump\t// out\n        /* \"#utility.yul\":3732:4039   */\n    tag_61:\n        /* \"#utility.yul\":3800:3801   */\n      0x00\n        /* \"#utility.yul\":3810:3923   */\n    tag_93:\n        /* \"#utility.yul\":3824:3830   */\n      dup4\n        /* \"#utility.yul\":3821:3822   */\n      dup2\n        /* \"#utility.yul\":3818:3831   */\n      lt\n        /* \"#utility.yul\":3810:3923   */\n      iszero\n      tag_95\n      jumpi\n        /* \"#utility.yul\":3909:3910   */\n      dup1\n        /* \"#utility.yul\":3904:3907   */\n      dup3\n        /* \"#utility.yul\":3900:3911   */\n      add\n        /* \"#utility.yul\":3894:3912   */\n      mload\n        /* \"#utility.yul\":3890:3891   */\n      dup2\n        /* \"#utility.yul\":3885:3888   */\n      dup5\n        /* \"#utility.yul\":3881:3892   */\n      add\n        /* \"#utility.yul\":3874:3913   */\n      mstore\n        /* \"#utility.yul\":3846:3848   */\n      0x20\n        /* \"#utility.yul\":3843:3844   */\n      dup2\n        /* \"#utility.yul\":3839:3849   */\n      add\n        /* \"#utility.yul\":3834:3849   */\n      swap1\n      pop\n        /* \"#utility.yul\":3810:3923   */\n      jump(tag_93)\n    tag_95:\n        /* \"#utility.yul\":3941:3947   */\n      dup4\n        /* \"#utility.yul\":3938:3939   */\n      dup2\n        /* \"#utility.yul\":3935:3948   */\n      gt\n        /* \"#utility.yul\":3932:4033   */\n      iszero\n      tag_96\n      jumpi\n        /* \"#utility.yul\":4021:4022   */\n      0x00\n        /* \"#utility.yul\":4012:4018   */\n      dup5\n        /* \"#utility.yul\":4007:4010   */\n      dup5\n        /* \"#utility.yul\":4003:4019   */\n      add\n        /* \"#utility.yul\":3996:4023   */\n      mstore\n        /* \"#utility.yul\":3932:4033   */\n    tag_96:\n        /* \"#utility.yul\":3781:4039   */\n      pop\n        /* \"#utility.yul\":3732:4039   */\n      pop\n      pop\n      pop\n      jump\t// out\n        /* \"#utility.yul\":4045:4365   */\n    tag_24:\n        /* \"#utility.yul\":4089:4095   */\n      0x00\n        /* \"#utility.yul\":4126:4127   */\n      0x02\n        /* \"#utility.yul\":4120:4124   */\n      dup3\n        /* \"#utility.yul\":4116:4128   */\n      div\n        /* \"#utility.yul\":4106:4128   */\n      swap1\n      pop\n        /* \"#utility.yul\":4173:4174   */\n      0x01\n        /* \"#utility.yul\":4167:4171   */\n      dup3\n        /* \"#utility.yul\":4163:4175   */\n      and\n        /* \"#utility.yul\":4194:4212   */\n      dup1\n        /* \"#utility.yul\":4184:4265   */\n      tag_98\n      jumpi\n        /* \"#utility.yul\":4250:4254   */\n      0x7f\n        /* \"#utility.yul\":4242:4248   */\n      dup3\n        /* \"#utility.yul\":4238:4255   */\n      and\n        /* \"#utility.yul\":4228:4255   */\n      swap2\n      pop\n        /* \"#utility.yul\":4184:4265   */\n    tag_98:\n        /* \"#utility.yul\":4312:4314   */\n      0x20\n        /* \"#utility.yul\":4304:4310   */\n      dup3\n        /* \"#utility.yul\":4301:4315   */\n      lt\n        /* \"#utility.yul\":4281:4299   */\n      dup2\n        /* \"#utility.yul\":4278:4316   */\n      eq\n        /* \"#utility.yul\":4275:4359   */\n      iszero\n      tag_99\n      jumpi\n        /* \"#utility.yul\":4331:4349   */\n      tag_100\n      tag_101\n      jump\t// in\n    tag_100:\n        /* \"#utility.yul\":4275:4359   */\n    tag_99:\n        /* \"#utility.yul\":4096:4365   */\n      pop\n        /* \"#utility.yul\":4045:4365   */\n      swap2\n      swap1\n      pop\n      jump\t// out\n        /* \"#utility.yul\":4371:4551   */\n    tag_101:\n        /* \"#utility.yul\":4419:4496   */\n      0x4e487b7100000000000000000000000000000000000000000000000000000000\n        /* \"#utility.yul\":4416:4417   */\n      0x00\n        /* \"#utility.yul\":4409:4497   */\n      mstore\n        /* \"#utility.yul\":4516:4520   */\n      0x22\n        /* \"#utility.yul\":4513:4514   */\n      0x04\n        /* \"#utility.yul\":4506:4521   */\n      mstore\n        /* \"#utility.yul\":4540:4544   */\n      0x24\n        /* \"#utility.yul\":4537:4538   */\n      0x00\n        /* \"#utility.yul\":4530:4545   */\n      revert\n        /* \"#utility.yul\":4680:4797   */\n    tag_44:\n        /* \"#utility.yul\":4789:4790   */\n      0x00\n        /* \"#utility.yul\":4786:4787   */\n      dup1\n        /* \"#utility.yul\":4779:4791   */\n      revert\n        /* \"#utility.yul\":4803:4905   */\n    tag_63:\n        /* \"#utility.yul\":4844:4850   */\n      0x00\n        /* \"#utility.yul\":4895:4897   */\n      0x1f\n        /* \"#utility.yul\":4891:4898   */\n      not\n        /* \"#utility.yul\":4886:4888   */\n      0x1f\n        /* \"#utility.yul\":4879:4884   */\n      dup4\n        /* \"#utility.yul\":4875:4889   */\n      add\n        /* \"#utility.yul\":4871:4899   */\n      and\n        /* \"#utility.yul\":4861:4899   */\n      swap1\n      pop\n        /* \"#utility.yul\":4803:4905   */\n      swap2\n      swap1\n      pop\n      jump\t// out\n        /* \"#utility.yul\":4911:5033   */\n    tag_40:\n        /* \"#utility.yul\":4984:5008   */\n      tag_108\n        /* \"#utility.yul\":5002:5007   */\n      dup2\n        /* \"#utility.yul\":4984:5008   */\n      tag_67\n      jump\t// in\n    tag_108:\n        /* \"#utility.yul\":4977:4982   */\n      dup2\n        /* \"#utility.yul\":4974:5009   */\n      eq\n        /* \"#utility.yul\":4964:5027   */\n      tag_109\n      jumpi\n        /* \"#utility.yul\":5023:5024   */\n      0x00\n        /* \"#utility.yul\":5020:5021   */\n      dup1\n        /* \"#utility.yul\":5013:5025   */\n      revert\n        /* \"#utility.yul\":4964:5027   */\n    tag_109:\n        /* \"#utility.yul\":4911:5033   */\n      pop\n      jump\t// out\n\n    auxdata: 0xa2646970667358221220df434d1c635f67cd0e078cf5e9cfce54d132f3ac6ab726b760dae0bd7af1508c64736f6c63430008070033\n}\n",
				"bytecode": {
					"linkReferences": {},
					"object": "608060405234801561001057600080fd5b506105eb806100206000396000f3fe608060405234801561001057600080fd5b50600436106100415760003560e01c80631567697c14610046578063b4a99a4e1461007c578063e78502441461009a575b600080fd5b610060600480360381019061005b919061032e565b6100cc565b6040516100739796959493929190610413565b60405180910390f35b61008461026e565b60405161009191906103c1565b60405180910390f35b6100b460048036038101906100af919061032e565b610292565b6040516100c3939291906103dc565b60405180910390f35b600581815481106100dc57600080fd5b90600052602060002090600702016000915090508060000180546100ff90610527565b80601f016020809104026020016040519081016040528092919081815260200182805461012b90610527565b80156101785780601f1061014d57610100808354040283529160200191610178565b820191906000526020600020905b81548152906001019060200180831161015b57829003601f168201915b50505050509080600101805461018d90610527565b80601f01602080910402602001604051908101604052809291908181526020018280546101b990610527565b80156102065780601f106101db57610100808354040283529160200191610206565b820191906000526020600020905b8154815290600101906020018083116101e957829003601f168201915b5050505050908060020154908060030160009054906101000a900473ffffffffffffffffffffffffffffffffffffffff16908060040160009054906101000a900473ffffffffffffffffffffffffffffffffffffffff16908060050154908060060154905087565b60008054906101000a900473ffffffffffffffffffffffffffffffffffffffff1681565b600681815481106102a257600080fd5b90600052602060002090600202016000915090508060000160009054906101000a900473ffffffffffffffffffffffffffffffffffffffff16908060010160009054906101000a900473ffffffffffffffffffffffffffffffffffffffff16908060010160149054906101000a900460ff16905083565b6000813590506103288161059e565b92915050565b60006020828403121561034457610343610588565b5b600061035284828501610319565b91505092915050565b610364816104ac565b82525050565b610373816104be565b82525050565b600061038482610490565b61038e818561049b565b935061039e8185602086016104f4565b6103a78161058d565b840191505092915050565b6103bb816104ea565b82525050565b60006020820190506103d6600083018461035b565b92915050565b60006060820190506103f1600083018661035b565b6103fe602083018561035b565b61040b604083018461036a565b949350505050565b600060e082019050818103600083015261042d818a610379565b905081810360208301526104418189610379565b905061045060408301886103b2565b61045d606083018761035b565b61046a608083018661035b565b61047760a08301856103b2565b61048460c08301846103b2565b98975050505050505050565b600081519050919050565b600082825260208201905092915050565b60006104b7826104ca565b9050919050565b60008115159050919050565b600073ffffffffffffffffffffffffffffffffffffffff82169050919050565b6000819050919050565b60005b838110156105125780820151818401526020810190506104f7565b83811115610521576000848401525b50505050565b6000600282049050600182168061053f57607f821691505b6020821081141561055357610552610559565b5b50919050565b7f4e487b7100000000000000000000000000000000000000000000000000000000600052602260045260246000fd5b600080fd5b6000601f19601f8301169050919050565b6105a7816104ea565b81146105b257600080fd5b5056fea2646970667358221220df434d1c635f67cd0e078cf5e9cfce54d132f3ac6ab726b760dae0bd7af1508c64736f6c63430008070033",
					"opcodes": "PUSH1 0x80 PUSH1 0x40 MSTORE CALLVALUE DUP1 ISZERO PUSH2 0x10 JUMPI PUSH1 0x0 DUP1 REVERT JUMPDEST POP PUSH2 0x5EB DUP1 PUSH2 0x20 PUSH1 0x0 CODECOPY PUSH1 0x0 RETURN INVALID PUSH1 0x80 PUSH1 0x40 MSTORE CALLVALUE DUP1 ISZERO PUSH2 0x10 JUMPI PUSH1 0x0 DUP1 REVERT JUMPDEST POP PUSH1 0x4 CALLDATASIZE LT PUSH2 0x41 JUMPI PUSH1 0x0 CALLDATALOAD PUSH1 0xE0 SHR DUP1 PUSH4 0x1567697C EQ PUSH2 0x46 JUMPI DUP1 PUSH4 0xB4A99A4E EQ PUSH2 0x7C JUMPI DUP1 PUSH4 0xE7850244 EQ PUSH2 0x9A JUMPI JUMPDEST PUSH1 0x0 DUP1 REVERT JUMPDEST PUSH2 0x60 PUSH1 0x4 DUP1 CALLDATASIZE SUB DUP2 ADD SWAP1 PUSH2 0x5B SWAP2 SWAP1 PUSH2 0x32E JUMP JUMPDEST PUSH2 0xCC JUMP JUMPDEST PUSH1 0x40 MLOAD PUSH2 0x73 SWAP8 SWAP7 SWAP6 SWAP5 SWAP4 SWAP3 SWAP2 SWAP1 PUSH2 0x413 JUMP JUMPDEST PUSH1 0x40 MLOAD DUP1 SWAP2 SUB SWAP1 RETURN JUMPDEST PUSH2 0x84 PUSH2 0x26E JUMP JUMPDEST PUSH1 0x40 MLOAD PUSH2 0x91 SWAP2 SWAP1 PUSH2 0x3C1 JUMP JUMPDEST PUSH1 0x40 MLOAD DUP1 SWAP2 SUB SWAP1 RETURN JUMPDEST PUSH2 0xB4 PUSH1 0x4 DUP1 CALLDATASIZE SUB DUP2 ADD SWAP1 PUSH2 0xAF SWAP2 SWAP1 PUSH2 0x32E JUMP JUMPDEST PUSH2 0x292 JUMP JUMPDEST PUSH1 0x40 MLOAD PUSH2 0xC3 SWAP4 SWAP3 SWAP2 SWAP1 PUSH2 0x3DC JUMP JUMPDEST PUSH1 0x40 MLOAD DUP1 SWAP2 SUB SWAP1 RETURN JUMPDEST PUSH1 0x5 DUP2 DUP2 SLOAD DUP2 LT PUSH2 0xDC JUMPI PUSH1 0x0 DUP1 REVERT JUMPDEST SWAP1 PUSH1 0x0 MSTORE PUSH1 0x20 PUSH1 0x0 KECCAK256 SWAP1 PUSH1 0x7 MUL ADD PUSH1 0x0 SWAP2 POP SWAP1 POP DUP1 PUSH1 0x0 ADD DUP1 SLOAD PUSH2 0xFF SWAP1 PUSH2 0x527 JUMP JUMPDEST DUP1 PUSH1 0x1F ADD PUSH1 0x20 DUP1 SWAP2 DIV MUL PUSH1 0x20 ADD PUSH1 0x40 MLOAD SWAP1 DUP2 ADD PUSH1 0x40 MSTORE DUP1 SWAP3 SWAP2 SWAP1 DUP2 DUP2 MSTORE PUSH1 0x20 ADD DUP3 DUP1 SLOAD PUSH2 0x12B SWAP1 PUSH2 0x527 JUMP JUMPDEST DUP1 ISZERO PUSH2 0x178 JUMPI DUP1 PUSH1 0x1F LT PUSH2 0x14D JUMPI PUSH2 0x100 DUP1 DUP4 SLOAD DIV MUL DUP4 MSTORE SWAP2 PUSH1 0x20 ADD SWAP2 PUSH2 0x178 JUMP JUMPDEST DUP3 ADD SWAP2 SWAP1 PUSH1 0x0 MSTORE PUSH1 0x20 PUSH1 0x0 KECCAK256 SWAP1 JUMPDEST DUP2 SLOAD DUP2 MSTORE SWAP1 PUSH1 0x1 ADD SWAP1 PUSH1 0x20 ADD DUP1 DUP4 GT PUSH2 0x15B JUMPI DUP3 SWAP1 SUB PUSH1 0x1F AND DUP3 ADD SWAP2 JUMPDEST POP POP POP POP POP SWAP1 DUP1 PUSH1 0x1 ADD DUP1 SLOAD PUSH2 0x18D SWAP1 PUSH2 0x527 JUMP JUMPDEST DUP1 PUSH1 0x1F ADD PUSH1 0x20 DUP1 SWAP2 DIV MUL PUSH1 0x20 ADD PUSH1 0x40 MLOAD SWAP1 DUP2 ADD PUSH1 0x40 MSTORE DUP1 SWAP3 SWAP2 SWAP1 DUP2 DUP2 MSTORE PUSH1 0x20 ADD DUP3 DUP1 SLOAD PUSH2 0x1B9 SWAP1 PUSH2 0x527 JUMP JUMPDEST DUP1 ISZERO PUSH2 0x206 JUMPI DUP1 PUSH1 0x1F LT PUSH2 0x1DB JUMPI PUSH2 0x100 DUP1 DUP4 SLOAD DIV MUL DUP4 MSTORE SWAP2 PUSH1 0x20 ADD SWAP2 PUSH2 0x206 JUMP JUMPDEST DUP3 ADD SWAP2 SWAP1 PUSH1 0x0 MSTORE PUSH1 0x20 PUSH1 0x0 KECCAK256 SWAP1 JUMPDEST DUP2 SLOAD DUP2 MSTORE SWAP1 PUSH1 0x1 ADD SWAP1 PUSH1 0x20 ADD DUP1 DUP4 GT PUSH2 0x1E9 JUMPI DUP3 SWAP1 SUB PUSH1 0x1F AND DUP3 ADD SWAP2 JUMPDEST POP POP POP POP POP SWAP1 DUP1 PUSH1 0x2 ADD SLOAD SWAP1 DUP1 PUSH1 0x3 ADD PUSH1 0x0 SWAP1 SLOAD SWAP1 PUSH2 0x100 EXP SWAP1 DIV PUSH20 0xFFFFFFFFFFFFFFFFFFFFFFFFFFFFFFFFFFFFFFFF AND SWAP1 DUP1 PUSH1 0x4 ADD PUSH1 0x0 SWAP1 SLOAD SWAP1 PUSH2 0x100 EXP SWAP1 DIV PUSH20 0xFFFFFFFFFFFFFFFFFFFFFFFFFFFFFFFFFFFFFFFF AND SWAP1 DUP1 PUSH1 0x5 ADD SLOAD SWAP1 DUP1 PUSH1 0x6 ADD SLOAD SWAP1 POP DUP8 JUMP JUMPDEST PUSH1 0x0 DUP1 SLOAD SWAP1 PUSH2 0x100 EXP SWAP1 DIV PUSH20 0xFFFFFFFFFFFFFFFFFFFFFFFFFFFFFFFFFFFFFFFF AND DUP2 JUMP JUMPDEST PUSH1 0x6 DUP2 DUP2 SLOAD DUP2 LT PUSH2 0x2A2 JUMPI PUSH1 0x0 DUP1 REVERT JUMPDEST SWAP1 PUSH1 0x0 MSTORE PUSH1 0x20 PUSH1 0x0 KECCAK256 SWAP1 PUSH1 0x2 MUL ADD PUSH1 0x0 SWAP2 POP SWAP1 POP DUP1 PUSH1 0x0 ADD PUSH1 0x0 SWAP1 SLOAD SWAP1 PUSH2 0x100 EXP SWAP1 DIV PUSH20 0xFFFFFFFFFFFFFFFFFFFFFFFFFFFFFFFFFFFFFFFF AND SWAP1 DUP1 PUSH1 0x1 ADD PUSH1 0x0 SWAP1 SLOAD SWAP1 PUSH2 0x100 EXP SWAP1 DIV PUSH20 0xFFFFFFFFFFFFFFFFFFFFFFFFFFFFFFFFFFFFFFFF AND SWAP1 DUP1 PUSH1 0x1 ADD PUSH1 0x14 SWAP1 SLOAD SWAP1 PUSH2 0x100 EXP SWAP1 DIV PUSH1 0xFF AND SWAP1 POP DUP4 JUMP JUMPDEST PUSH1 0x0 DUP2 CALLDATALOAD SWAP1 POP PUSH2 0x328 DUP2 PUSH2 0x59E JUMP JUMPDEST SWAP3 SWAP2 POP POP JUMP JUMPDEST PUSH1 0x0 PUSH1 0x20 DUP3 DUP5 SUB SLT ISZERO PUSH2 0x344 JUMPI PUSH2 0x343 PUSH2 0x588 JUMP JUMPDEST JUMPDEST PUSH1 0x0 PUSH2 0x352 DUP5 DUP3 DUP6 ADD PUSH2 0x319 JUMP JUMPDEST SWAP2 POP POP SWAP3 SWAP2 POP POP JUMP JUMPDEST PUSH2 0x364 DUP2 PUSH2 0x4AC JUMP JUMPDEST DUP3 MSTORE POP POP JUMP JUMPDEST PUSH2 0x373 DUP2 PUSH2 0x4BE JUMP JUMPDEST DUP3 MSTORE POP POP JUMP JUMPDEST PUSH1 0x0 PUSH2 0x384 DUP3 PUSH2 0x490 JUMP JUMPDEST PUSH2 0x38E DUP2 DUP6 PUSH2 0x49B JUMP JUMPDEST SWAP4 POP PUSH2 0x39E DUP2 DUP6 PUSH1 0x20 DUP7 ADD PUSH2 0x4F4 JUMP JUMPDEST PUSH2 0x3A7 DUP2 PUSH2 0x58D JUMP JUMPDEST DUP5 ADD SWAP2 POP POP SWAP3 SWAP2 POP POP JUMP JUMPDEST PUSH2 0x3BB DUP2 PUSH2 0x4EA JUMP JUMPDEST DUP3 MSTORE POP POP JUMP JUMPDEST PUSH1 0x0 PUSH1 0x20 DUP3 ADD SWAP1 POP PUSH2 0x3D6 PUSH1 0x0 DUP4 ADD DUP5 PUSH2 0x35B JUMP JUMPDEST SWAP3 SWAP2 POP POP JUMP JUMPDEST PUSH1 0x0 PUSH1 0x60 DUP3 ADD SWAP1 POP PUSH2 0x3F1 PUSH1 0x0 DUP4 ADD DUP7 PUSH2 0x35B JUMP JUMPDEST PUSH2 0x3FE PUSH1 0x20 DUP4 ADD DUP6 PUSH2 0x35B JUMP JUMPDEST PUSH2 0x40B PUSH1 0x40 DUP4 ADD DUP5 PUSH2 0x36A JUMP JUMPDEST SWAP5 SWAP4 POP POP POP POP JUMP JUMPDEST PUSH1 0x0 PUSH1 0xE0 DUP3 ADD SWAP1 POP DUP2 DUP2 SUB PUSH1 0x0 DUP4 ADD MSTORE PUSH2 0x42D DUP2 DUP11 PUSH2 0x379 JUMP JUMPDEST SWAP1 POP DUP2 DUP2 SUB PUSH1 0x20 DUP4 ADD MSTORE PUSH2 0x441 DUP2 DUP10 PUSH2 0x379 JUMP JUMPDEST SWAP1 POP PUSH2 0x450 PUSH1 0x40 DUP4 ADD DUP9 PUSH2 0x3B2 JUMP JUMPDEST PUSH2 0x45D PUSH1 0x60 DUP4 ADD DUP8 PUSH2 0x35B JUMP JUMPDEST PUSH2 0x46A PUSH1 0x80 DUP4 ADD DUP7 PUSH2 0x35B JUMP JUMPDEST PUSH2 0x477 PUSH1 0xA0 DUP4 ADD DUP6 PUSH2 0x3B2 JUMP JUMPDEST PUSH2 0x484 PUSH1 0xC0 DUP4 ADD DUP5 PUSH2 0x3B2 JUMP JUMPDEST SWAP9 SWAP8 POP POP POP POP POP POP POP POP JUMP JUMPDEST PUSH1 0x0 DUP2 MLOAD SWAP1 POP SWAP2 SWAP1 POP JUMP JUMPDEST PUSH1 0x0 DUP3 DUP3 MSTORE PUSH1 0x20 DUP3 ADD SWAP1 POP SWAP3 SWAP2 POP POP JUMP JUMPDEST PUSH1 0x0 PUSH2 0x4B7 DUP3 PUSH2 0x4CA JUMP JUMPDEST SWAP1 POP SWAP2 SWAP1 POP JUMP JUMPDEST PUSH1 0x0 DUP2 ISZERO ISZERO SWAP1 POP SWAP2 SWAP1 POP JUMP JUMPDEST PUSH1 0x0 PUSH20 0xFFFFFFFFFFFFFFFFFFFFFFFFFFFFFFFFFFFFFFFF DUP3 AND SWAP1 POP SWAP2 SWAP1 POP JUMP JUMPDEST PUSH1 0x0 DUP2 SWAP1 POP SWAP2 SWAP1 POP JUMP JUMPDEST PUSH1 0x0 JUMPDEST DUP4 DUP2 LT ISZERO PUSH2 0x512 JUMPI DUP1 DUP3 ADD MLOAD DUP2 DUP5 ADD MSTORE PUSH1 0x20 DUP2 ADD SWAP1 POP PUSH2 0x4F7 JUMP JUMPDEST DUP4 DUP2 GT ISZERO PUSH2 0x521 JUMPI PUSH1 0x0 DUP5 DUP5 ADD MSTORE JUMPDEST POP POP POP POP JUMP JUMPDEST PUSH1 0x0 PUSH1 0x2 DUP3 DIV SWAP1 POP PUSH1 0x1 DUP3 AND DUP1 PUSH2 0x53F JUMPI PUSH1 0x7F DUP3 AND SWAP2 POP JUMPDEST PUSH1 0x20 DUP3 LT DUP2 EQ ISZERO PUSH2 0x553 JUMPI PUSH2 0x552 PUSH2 0x559 JUMP JUMPDEST JUMPDEST POP SWAP2 SWAP1 POP JUMP JUMPDEST PUSH32 0x4E487B7100000000000000000000000000000000000000000000000000000000 PUSH1 0x0 MSTORE PUSH1 0x22 PUSH1 0x4 MSTORE PUSH1 0x24 PUSH1 0x0 REVERT JUMPDEST PUSH1 0x0 DUP1 REVERT JUMPDEST PUSH1 0x0 PUSH1 0x1F NOT PUSH1 0x1F DUP4 ADD AND SWAP1 POP SWAP2 SWAP1 POP JUMP JUMPDEST PUSH2 0x5A7 DUP2 PUSH2 0x4EA JUMP JUMPDEST DUP2 EQ PUSH2 0x5B2 JUMPI PUSH1 0x0 DUP1 REVERT JUMPDEST POP JUMP INVALID LOG2 PUSH5 0x6970667358 0x22 SLT KECCAK256 0xDF NUMBER 0x4D SHR PUSH4 0x5F67CD0E SMOD DUP13 CREATE2 0xE9 0xCF 0xCE SLOAD 0xD1 ORIGIN RETURN 0xAC PUSH11 0xB726B760DAE0BD7AF1508C PUSH5 0x736F6C6343 STOP ADDMOD SMOD STOP CALLER "
				},
				"gasEstimates": {
					"creation": {
						"codeDepositCost": "303000",
						"executionCost": "343",
						"totalCost": "303343"
					},
					"external": {
						"EPRAccessList(uint256)": "infinite",
						"Owner()": "2511",
						"PatchTrannsactions(uint256)": "infinite"
					}
				},
				"methodIdentifiers": {
					"EPRAccessList(uint256)": "e7850244",
					"Owner()": "b4a99a4e",
					"PatchTrannsactions(uint256)": "1567697c"
				}
			},
			"storageLayout": {
				"storage": [
					{
						"astId": 8,
						"contract": "contracts/Definitions.sol:Definitions",
						"label": "Owner",
						"offset": 0,
						"slot": "0",
						"type": "t_address"
					},
					{
						"astId": 40,
						"contract": "contracts/Definitions.sol:Definitions",
						"label": "UserAddressMapping",
						"offset": 0,
						"slot": "1",
						"type": "t_mapping(t_address,t_struct(User)35_storage)"
					},
					{
						"astId": 43,
						"contract": "contracts/Definitions.sol:Definitions",
						"label": "UsersAddresses",
						"offset": 0,
						"slot": "2",
						"type": "t_array(t_address)dyn_storage"
					},
					{
						"astId": 70,
						"contract": "contracts/Definitions.sol:Definitions",
						"label": "DrugRegNoMapping",
						"offset": 0,
						"slot": "3",
						"type": "t_mapping(t_string_memory_ptr,t_struct(Drug)53_storage)"
					},
					{
						"astId": 73,
						"contract": "contracts/Definitions.sol:Definitions",
						"label": "DrugsRegNos",
						"offset": 0,
						"slot": "4",
						"type": "t_array(t_string_storage)dyn_storage"
					},
					{
						"astId": 117,
						"contract": "contracts/Definitions.sol:Definitions",
						"label": "PatchTrannsactions",
						"offset": 0,
						"slot": "5",
						"type": "t_array(t_struct(PatchTransaction)88_storage)dyn_storage"
					},
					{
						"astId": 139,
						"contract": "contracts/Definitions.sol:Definitions",
						"label": "EPRAccessList",
						"offset": 0,
						"slot": "6",
						"type": "t_array(t_struct(EPRAccess)124_storage)dyn_storage"
					}
				],
				"types": {
					"t_address": {
						"encoding": "inplace",
						"label": "address",
						"numberOfBytes": "20"
					},
					"t_array(t_address)dyn_storage": {
						"base": "t_address",
						"encoding": "dynamic_array",
						"label": "address[]",
						"numberOfBytes": "32"
					},
					"t_array(t_string_storage)dyn_storage": {
						"base": "t_string_storage",
						"encoding": "dynamic_array",
						"label": "string[]",
						"numberOfBytes": "32"
					},
					"t_array(t_struct(EPRAccess)124_storage)dyn_storage": {
						"base": "t_struct(EPRAccess)124_storage",
						"encoding": "dynamic_array",
						"label": "struct Definitions.EPRAccess[]",
						"numberOfBytes": "32"
					},
					"t_array(t_struct(PatchTransaction)88_storage)dyn_storage": {
						"base": "t_struct(PatchTransaction)88_storage",
						"encoding": "dynamic_array",
						"label": "struct Definitions.PatchTransaction[]",
						"numberOfBytes": "32"
					},
					"t_bool": {
						"encoding": "inplace",
						"label": "bool",
						"numberOfBytes": "1"
					},
					"t_enum(Statuses)6": {
						"encoding": "inplace",
						"label": "enum Definitions.Statuses",
						"numberOfBytes": "1"
					},
					"t_enum(UserRoles)18": {
						"encoding": "inplace",
						"label": "enum Definitions.UserRoles",
						"numberOfBytes": "1"
					},
					"t_mapping(t_address,t_struct(User)35_storage)": {
						"encoding": "mapping",
						"key": "t_address",
						"label": "mapping(address => struct Definitions.User)",
						"numberOfBytes": "32",
						"value": "t_struct(User)35_storage"
					},
					"t_mapping(t_string_memory_ptr,t_struct(Drug)53_storage)": {
						"encoding": "mapping",
						"key": "t_string_memory_ptr",
						"label": "mapping(string => struct Definitions.Drug)",
						"numberOfBytes": "32",
						"value": "t_struct(Drug)53_storage"
					},
					"t_string_memory_ptr": {
						"encoding": "bytes",
						"label": "string",
						"numberOfBytes": "32"
					},
					"t_string_storage": {
						"encoding": "bytes",
						"label": "string",
						"numberOfBytes": "32"
					},
					"t_struct(Drug)53_storage": {
						"encoding": "inplace",
						"label": "struct Definitions.Drug",
						"members": [
							{
								"astId": 45,
								"contract": "contracts/Definitions.sol:Definitions",
								"label": "DrugName",
								"offset": 0,
								"slot": "0",
								"type": "t_string_storage"
							},
							{
								"astId": 47,
								"contract": "contracts/Definitions.sol:Definitions",
								"label": "Manufacturer",
								"offset": 0,
								"slot": "1",
								"type": "t_address"
							},
							{
								"astId": 50,
								"contract": "contracts/Definitions.sol:Definitions",
								"label": "DrugStatus",
								"offset": 20,
								"slot": "1",
								"type": "t_enum(Statuses)6"
							},
							{
								"astId": 52,
								"contract": "contracts/Definitions.sol:Definitions",
								"label": "DrugRegNo",
								"offset": 0,
								"slot": "2",
								"type": "t_string_storage"
							}
						],
						"numberOfBytes": "96"
					},
					"t_struct(EPRAccess)124_storage": {
						"encoding": "inplace",
						"label": "struct Definitions.EPRAccess",
						"members": [
							{
								"astId": 119,
								"contract": "contracts/Definitions.sol:Definitions",
								"label": "PatientAddress",
								"offset": 0,
								"slot": "0",
								"type": "t_address"
							},
							{
								"astId": 121,
								"contract": "contracts/Definitions.sol:Definitions",
								"label": "DoctorAddress",
								"offset": 0,
								"slot": "1",
								"type": "t_address"
							},
							{
								"astId": 123,
								"contract": "contracts/Definitions.sol:Definitions",
								"label": "HasAccess",
								"offset": 20,
								"slot": "1",
								"type": "t_bool"
							}
						],
						"numberOfBytes": "64"
					},
					"t_struct(PatchTransaction)88_storage": {
						"encoding": "inplace",
						"label": "struct Definitions.PatchTransaction",
						"members": [
							{
								"astId": 75,
								"contract": "contracts/Definitions.sol:Definitions",
								"label": "DrugRegNo",
								"offset": 0,
								"slot": "0",
								"type": "t_string_storage"
							},
							{
								"astId": 77,
								"contract": "contracts/Definitions.sol:Definitions",
								"label": "PatchNo",
								"offset": 0,
								"slot": "1",
								"type": "t_string_storage"
							},
							{
								"astId": 79,
								"contract": "contracts/Definitions.sol:Definitions",
								"label": "LineNo",
								"offset": 0,
								"slot": "2",
								"type": "t_uint256"
							},
							{
								"astId": 81,
								"contract": "contracts/Definitions.sol:Definitions",
								"label": "FromID",
								"offset": 0,
								"slot": "3",
								"type": "t_address"
							},
							{
								"astId": 83,
								"contract": "contracts/Definitions.sol:Definitions",
								"label": "ToID",
								"offset": 0,
								"slot": "4",
								"type": "t_address"
							},
							{
								"astId": 85,
								"contract": "contracts/Definitions.sol:Definitions",
								"label": "Amount",
								"offset": 0,
								"slot": "5",
								"type": "t_uint256"
							},
							{
								"astId": 87,
								"contract": "contracts/Definitions.sol:Definitions",
								"label": "TransactionDate",
								"offset": 0,
								"slot": "6",
								"type": "t_uint256"
							}
						],
						"numberOfBytes": "224"
					},
					"t_struct(User)35_storage": {
						"encoding": "inplace",
						"label": "struct Definitions.User",
						"members": [
							{
								"astId": 20,
								"contract": "contracts/Definitions.sol:Definitions",
								"label": "UserID",
								"offset": 0,
								"slot": "0",
								"type": "t_string_storage"
							},
							{
								"astId": 22,
								"contract": "contracts/Definitions.sol:Definitions",
								"label": "UserName",
								"offset": 0,
								"slot": "1",
								"type": "t_string_storage"
							},
							{
								"astId": 25,
								"contract": "contracts/Definitions.sol:Definitions",
								"label": "UserRole",
								"offset": 0,
								"slot": "2",
								"type": "t_enum(UserRoles)18"
							},
							{
								"astId": 28,
								"contract": "contracts/Definitions.sol:Definitions",
								"label": "UserStatus",
								"offset": 1,
								"slot": "2",
								"type": "t_enum(Statuses)6"
							},
							{
								"astId": 30,
								"contract": "contracts/Definitions.sol:Definitions",
								"label": "Latitude",
								"offset": 0,
								"slot": "3",
								"type": "t_string_storage"
							},
							{
								"astId": 32,
								"contract": "contracts/Definitions.sol:Definitions",
								"label": "Longitude",
								"offset": 0,
								"slot": "4",
								"type": "t_string_storage"
							},
							{
								"astId": 34,
								"contract": "contracts/Definitions.sol:Definitions",
								"label": "UserAddress",
								"offset": 0,
								"slot": "5",
								"type": "t_address"
							}
						],
						"numberOfBytes": "192"
					},
					"t_uint256": {
						"encoding": "inplace",
						"label": "uint256",
						"numberOfBytes": "32"
					}
				}
			},
			"userdoc": {
				"kind": "user",
				"methods": {},
				"version": 1
			}
		}
	}
}