{
	"contracts/NewDrugs.sol": {
		"Drugs": {
			"abi": [
				{
					"inputs": [],
					"stateMutability": "nonpayable",
					"type": "constructor"
				},
				{
					"anonymous": false,
					"inputs": [
						{
							"indexed": false,
							"internalType": "string",
							"name": "regNo",
							"type": "string"
						}
					],
					"name": "CountryDelete",
					"type": "event"
				},
				{
					"anonymous": false,
					"inputs": [
						{
							"indexed": false,
							"internalType": "string",
							"name": "regNo",
							"type": "string"
						},
						{
							"indexed": false,
							"internalType": "string",
							"name": "leader",
							"type": "string"
						},
						{
							"indexed": false,
							"internalType": "uint256",
							"name": "population",
							"type": "uint256"
						}
					],
					"name": "CountryEvent",
					"type": "event"
				},
				{
					"anonymous": false,
					"inputs": [
						{
							"indexed": false,
							"internalType": "string",
							"name": "regNo",
							"type": "string"
						},
						{
							"indexed": false,
							"internalType": "string",
							"name": "leader",
							"type": "string"
						}
					],
					"name": "LeaderUpdated",
					"type": "event"
				},
				{
					"inputs": [
						{
							"internalType": "string",
							"name": "regNo",
							"type": "string"
						}
					],
					"name": "deleteDrug",
					"outputs": [
						{
							"internalType": "bool",
							"name": "success",
							"type": "bool"
						}
					],
					"stateMutability": "nonpayable",
					"type": "function"
				},
				{
					"inputs": [
						{
							"internalType": "uint256",
							"name": "",
							"type": "uint256"
						}
					],
					"name": "drugs",
					"outputs": [
						{
							"internalType": "string",
							"name": "regNo",
							"type": "string"
						},
						{
							"internalType": "address",
							"name": "manufacturer",
							"type": "address"
						},
						{
							"internalType": "bool",
							"name": "isActive",
							"type": "bool"
						}
					],
					"stateMutability": "view",
					"type": "function"
				},
				{
					"inputs": [
						{
							"internalType": "string",
							"name": "regNo",
							"type": "string"
						}
					],
					"name": "getDrug",
					"outputs": [
						{
							"internalType": "string",
							"name": "_regNo",
							"type": "string"
						},
						{
							"internalType": "address",
							"name": "manufacturer",
							"type": "address"
						},
						{
							"internalType": "bool",
							"name": "isActive",
							"type": "bool"
						}
					],
					"stateMutability": "view",
					"type": "function"
				},
				{
					"inputs": [],
					"name": "getDrugs2",
					"outputs": [
						{
							"components": [
								{
									"internalType": "string",
									"name": "regNo",
									"type": "string"
								},
								{
									"internalType": "address",
									"name": "manufacturer",
									"type": "address"
								},
								{
									"internalType": "bool",
									"name": "isActive",
									"type": "bool"
								}
							],
							"internalType": "struct Drugs.drug[]",
							"name": "allDrugs",
							"type": "tuple[]"
						}
					],
					"stateMutability": "view",
					"type": "function"
				},
				{
					"inputs": [],
					"name": "getDrugss",
					"outputs": [
						{
							"components": [
								{
									"internalType": "string",
									"name": "regNo",
									"type": "string"
								},
								{
									"internalType": "address",
									"name": "manufacturer",
									"type": "address"
								},
								{
									"internalType": "bool",
									"name": "isActive",
									"type": "bool"
								}
							],
							"internalType": "struct Drugs.drug[]",
							"name": "allDrugs",
							"type": "tuple[]"
						}
					],
					"stateMutability": "view",
					"type": "function"
				},
				{
					"inputs": [],
					"name": "gettotalDrugs",
					"outputs": [
						{
							"internalType": "uint256",
							"name": "length",
							"type": "uint256"
						}
					],
					"stateMutability": "view",
					"type": "function"
				},
				{
					"inputs": [
						{
							"internalType": "string",
							"name": "regNo",
							"type": "string"
						},
						{
							"internalType": "address",
							"name": "manufacturer",
							"type": "address"
						}
					],
					"name": "insert",
					"outputs": [
						{
							"internalType": "uint256",
							"name": "_totalDrugs",
							"type": "uint256"
						}
					],
					"stateMutability": "nonpayable",
					"type": "function"
				},
				{
					"inputs": [],
					"name": "totalDrugs",
					"outputs": [
						{
							"internalType": "uint256",
							"name": "",
							"type": "uint256"
						}
					],
					"stateMutability": "view",
					"type": "function"
				},
				{
					"inputs": [
						{
							"internalType": "string",
							"name": "regNo",
							"type": "string"
						},
						{
							"internalType": "bool",
							"name": "isActive",
							"type": "bool"
						}
					],
					"name": "updateDrugStatus",
					"outputs": [
						{
							"internalType": "bool",
							"name": "success",
							"type": "bool"
						}
					],
					"stateMutability": "nonpayable",
					"type": "function"
				}
			],
			"devdoc": {
				"kind": "dev",
				"methods": {},
				"version": 1
			},
			"evm": {
				"assembly": "    /* \"contracts/NewDrugs.sol\":97:3520  contract Drugs{\r... */\n  mstore(0x40, 0x80)\n    /* \"contracts/NewDrugs.sol\":499:544  constructor() {\r... */\n  callvalue\n  dup1\n  iszero\n  tag_1\n  jumpi\n  0x00\n  dup1\n  revert\ntag_1:\n  pop\n    /* \"contracts/NewDrugs.sol\":536:537  0 */\n  0x00\n    /* \"contracts/NewDrugs.sol\":523:533  totalDrugs */\n  0x02\n    /* \"contracts/NewDrugs.sol\":523:537  totalDrugs = 0 */\n  dup2\n  swap1\n  sstore\n  pop\n    /* \"contracts/NewDrugs.sol\":97:3520  contract Drugs{\r... */\n  dataSize(sub_0)\n  dup1\n  dataOffset(sub_0)\n  0x00\n  codecopy\n  0x00\n  return\nstop\n\nsub_0: assembly {\n        /* \"contracts/NewDrugs.sol\":97:3520  contract Drugs{\r... */\n      mstore(0x40, 0x80)\n      callvalue\n      dup1\n      iszero\n      tag_1\n      jumpi\n      0x00\n      dup1\n      revert\n    tag_1:\n      pop\n      jumpi(tag_2, lt(calldatasize, 0x04))\n      shr(0xe0, calldataload(0x00))\n      dup1\n      0xa548beb0\n      gt\n      tag_12\n      jumpi\n      dup1\n      0xa548beb0\n      eq\n      tag_7\n      jumpi\n      dup1\n      0xd0037831\n      eq\n      tag_8\n      jumpi\n      dup1\n      0xe657ae69\n      eq\n      tag_9\n      jumpi\n      dup1\n      0xf6724f4b\n      eq\n      tag_10\n      jumpi\n      dup1\n      0xfca5e61e\n      eq\n      tag_11\n      jumpi\n      jump(tag_2)\n    tag_12:\n      dup1\n      0x1685a5ac\n      eq\n      tag_3\n      jumpi\n      dup1\n      0x31afac36\n      eq\n      tag_4\n      jumpi\n      dup1\n      0x6a4e2b6a\n      eq\n      tag_5\n      jumpi\n      dup1\n      0x7ecd4492\n      eq\n      tag_6\n      jumpi\n    tag_2:\n      0x00\n      dup1\n      revert\n        /* \"contracts/NewDrugs.sol\":459:484  uint256 public totalDrugs */\n    tag_3:\n      tag_13\n      tag_14\n      jump\t// in\n    tag_13:\n      mload(0x40)\n      tag_15\n      swap2\n      swap1\n      tag_16\n      jump\t// in\n    tag_15:\n      mload(0x40)\n      dup1\n      swap2\n      sub\n      swap1\n      return\n        /* \"contracts/NewDrugs.sol\":734:1065  function insert( string memory regNo , address manufacturer ) public returns (uint256 _totalDrugs){\r... */\n    tag_4:\n      tag_17\n      0x04\n      dup1\n      calldatasize\n      sub\n      dup2\n      add\n      swap1\n      tag_18\n      swap2\n      swap1\n      tag_19\n      jump\t// in\n    tag_18:\n      tag_20\n      jump\t// in\n    tag_17:\n      mload(0x40)\n      tag_21\n      swap2\n      swap1\n      tag_16\n      jump\t// in\n    tag_21:\n      mload(0x40)\n      dup1\n      swap2\n      sub\n      swap1\n      return\n        /* \"contracts/NewDrugs.sol\":1501:2158  function deleteDrug(string memory regNo) public returns(bool success){\r... */\n    tag_5:\n      tag_22\n      0x04\n      dup1\n      calldatasize\n      sub\n      dup2\n      add\n      swap1\n      tag_23\n      swap2\n      swap1\n      tag_24\n      jump\t// in\n    tag_23:\n      tag_25\n      jump\t// in\n    tag_22:\n      mload(0x40)\n      tag_26\n      swap2\n      swap1\n      tag_27\n      jump\t// in\n    tag_26:\n      mload(0x40)\n      dup1\n      swap2\n      sub\n      swap1\n      return\n        /* \"contracts/NewDrugs.sol\":2175:2573  function getDrug(string memory regNo) public view returns(string memory _regNo , address manufacturer , bool isActive){\r... */\n    tag_6:\n      tag_28\n      0x04\n      dup1\n      calldatasize\n      sub\n      dup2\n      add\n      swap1\n      tag_29\n      swap2\n      swap1\n      tag_24\n      jump\t// in\n    tag_29:\n      tag_30\n      jump\t// in\n    tag_28:\n      mload(0x40)\n      tag_31\n      swap4\n      swap3\n      swap2\n      swap1\n      tag_32\n      jump\t// in\n    tag_31:\n      mload(0x40)\n      dup1\n      swap2\n      sub\n      swap1\n      return\n        /* \"contracts/NewDrugs.sol\":2881:3384  function getDrugss() public view returns (drug[] memory allDrugs){\r... */\n    tag_7:\n      tag_33\n      tag_34\n      jump\t// in\n    tag_33:\n      mload(0x40)\n      tag_35\n      swap2\n      swap1\n      tag_36\n      jump\t// in\n    tag_35:\n      mload(0x40)\n      dup1\n      swap2\n      sub\n      swap1\n      return\n        /* \"contracts/NewDrugs.sol\":2778:2874  function gettotalDrugs() public view returns (uint256 length){\r... */\n    tag_8:\n      tag_37\n      tag_38\n      jump\t// in\n    tag_37:\n      mload(0x40)\n      tag_39\n      swap2\n      swap1\n      tag_16\n      jump\t// in\n    tag_39:\n      mload(0x40)\n      dup1\n      swap2\n      sub\n      swap1\n      return\n        /* \"contracts/NewDrugs.sol\":1075:1491  function updateDrugStatus(string memory regNo, bool isActive) public returns (bool success){\r... */\n    tag_9:\n      tag_40\n      0x04\n      dup1\n      calldatasize\n      sub\n      dup2\n      add\n      swap1\n      tag_41\n      swap2\n      swap1\n      tag_42\n      jump\t// in\n    tag_41:\n      tag_43\n      jump\t// in\n    tag_40:\n      mload(0x40)\n      tag_44\n      swap2\n      swap1\n      tag_27\n      jump\t// in\n    tag_44:\n      mload(0x40)\n      dup1\n      swap2\n      sub\n      swap1\n      return\n        /* \"contracts/NewDrugs.sol\":3393:3515  function getDrugs2() public view returns (drug[] memory allDrugs){\r... */\n    tag_10:\n      tag_45\n      tag_46\n      jump\t// in\n    tag_45:\n      mload(0x40)\n      tag_47\n      swap2\n      swap1\n      tag_36\n      jump\t// in\n    tag_47:\n      mload(0x40)\n      dup1\n      swap2\n      sub\n      swap1\n      return\n        /* \"contracts/NewDrugs.sol\":431:450  drug[] public drugs */\n    tag_11:\n      tag_48\n      0x04\n      dup1\n      calldatasize\n      sub\n      dup2\n      add\n      swap1\n      tag_49\n      swap2\n      swap1\n      tag_50\n      jump\t// in\n    tag_49:\n      tag_51\n      jump\t// in\n    tag_48:\n      mload(0x40)\n      tag_52\n      swap4\n      swap3\n      swap2\n      swap1\n      tag_32\n      jump\t// in\n    tag_52:\n      mload(0x40)\n      dup1\n      swap2\n      sub\n      swap1\n      return\n        /* \"contracts/NewDrugs.sol\":459:484  uint256 public totalDrugs */\n    tag_14:\n      sload(0x02)\n      dup2\n      jump\t// out\n        /* \"contracts/NewDrugs.sol\":734:1065  function insert( string memory regNo , address manufacturer ) public returns (uint256 _totalDrugs){\r... */\n    tag_20:\n        /* \"contracts/NewDrugs.sol\":812:831  uint256 _totalDrugs */\n      0x00\n        /* \"contracts/NewDrugs.sol\":843:862  drug memory newDrug */\n      dup1\n        /* \"contracts/NewDrugs.sol\":865:897  drug(regNo , manufacturer, true) */\n      mload(0x40)\n      dup1\n      0x60\n      add\n      0x40\n      mstore\n      dup1\n        /* \"contracts/NewDrugs.sol\":870:875  regNo */\n      dup6\n        /* \"contracts/NewDrugs.sol\":865:897  drug(regNo , manufacturer, true) */\n      dup2\n      mstore\n      0x20\n      add\n        /* \"contracts/NewDrugs.sol\":878:890  manufacturer */\n      dup5\n        /* \"contracts/NewDrugs.sol\":865:897  drug(regNo , manufacturer, true) */\n      0xffffffffffffffffffffffffffffffffffffffff\n      and\n      dup2\n      mstore\n      0x20\n      add\n        /* \"contracts/NewDrugs.sol\":892:896  true */\n      0x01\n        /* \"contracts/NewDrugs.sol\":865:897  drug(regNo , manufacturer, true) */\n      iszero\n      iszero\n      dup2\n      mstore\n      pop\n        /* \"contracts/NewDrugs.sol\":843:897  drug memory newDrug = drug(regNo , manufacturer, true) */\n      swap1\n      pop\n        /* \"contracts/NewDrugs.sol\":908:913  drugs */\n      0x01\n        /* \"contracts/NewDrugs.sol\":919:926  newDrug */\n      dup2\n        /* \"contracts/NewDrugs.sol\":908:927  drugs.push(newDrug) */\n      swap1\n      dup1\n      0x01\n      dup2\n      sload\n      add\n      dup1\n      dup3\n      sstore\n      dup1\n      swap2\n      pop\n      pop\n      0x01\n      swap1\n      sub\n      swap1\n      0x00\n      mstore\n      keccak256(0x00, 0x20)\n      swap1\n      0x02\n      mul\n      add\n      0x00\n      swap1\n      swap2\n      swap1\n      swap2\n      swap1\n      swap2\n      pop\n      0x00\n      dup3\n      add\n      mload\n      dup2\n      0x00\n      add\n      swap1\n      dup1\n      mload\n      swap1\n      0x20\n      add\n      swap1\n      tag_55\n      swap3\n      swap2\n      swap1\n      tag_56\n      jump\t// in\n    tag_55:\n      pop\n      0x20\n      dup3\n      add\n      mload\n      dup2\n      0x01\n      add\n      exp(0x0100, 0x00)\n      dup2\n      sload\n      dup2\n      0xffffffffffffffffffffffffffffffffffffffff\n      mul\n      not\n      and\n      swap1\n      dup4\n      0xffffffffffffffffffffffffffffffffffffffff\n      and\n      mul\n      or\n      swap1\n      sstore\n      pop\n      0x40\n      dup3\n      add\n      mload\n      dup2\n      0x01\n      add\n      exp(0x0100, 0x14)\n      dup2\n      sload\n      dup2\n      0xff\n      mul\n      not\n      and\n      swap1\n      dup4\n      iszero\n      iszero\n      mul\n      or\n      swap1\n      sstore\n      pop\n      pop\n      pop\n        /* \"contracts/NewDrugs.sol\":938:948  totalDrugs */\n      0x02\n      0x00\n        /* \"contracts/NewDrugs.sol\":938:950  totalDrugs++ */\n      dup2\n      sload\n      dup1\n      swap3\n      swap2\n      swap1\n      tag_57\n      swap1\n      tag_58\n      jump\t// in\n    tag_57:\n      swap2\n      swap1\n      pop\n      sstore\n      pop\n        /* \"contracts/NewDrugs.sol\":1048:1058  totalDrugs */\n      sload(0x02)\n        /* \"contracts/NewDrugs.sol\":1041:1058  return totalDrugs */\n      swap2\n      pop\n      pop\n        /* \"contracts/NewDrugs.sol\":734:1065  function insert( string memory regNo , address manufacturer ) public returns (uint256 _totalDrugs){\r... */\n      swap3\n      swap2\n      pop\n      pop\n      jump\t// out\n        /* \"contracts/NewDrugs.sol\":1501:2158  function deleteDrug(string memory regNo) public returns(bool success){\r... */\n    tag_25:\n        /* \"contracts/NewDrugs.sol\":1557:1569  bool success */\n      0x00\n        /* \"contracts/NewDrugs.sol\":1602:1603  0 */\n      dup1\n        /* \"contracts/NewDrugs.sol\":1589:1599  totalDrugs */\n      sload(0x02)\n        /* \"contracts/NewDrugs.sol\":1589:1603  totalDrugs > 0 */\n      gt\n        /* \"contracts/NewDrugs.sol\":1581:1604  require(totalDrugs > 0) */\n      tag_60\n      jumpi\n      0x00\n      dup1\n      revert\n    tag_60:\n        /* \"contracts/NewDrugs.sol\":1619:1628  uint256 i */\n      0x00\n        /* \"contracts/NewDrugs.sol\":1615:2130  for(uint256 i =0; i< totalDrugs; i++){\r... */\n    tag_61:\n        /* \"contracts/NewDrugs.sol\":1636:1646  totalDrugs */\n      sload(0x02)\n        /* \"contracts/NewDrugs.sol\":1633:1634  i */\n      dup2\n        /* \"contracts/NewDrugs.sol\":1633:1646  i< totalDrugs */\n      lt\n        /* \"contracts/NewDrugs.sol\":1615:2130  for(uint256 i =0; i< totalDrugs; i++){\r... */\n      iszero\n      tag_62\n      jumpi\n        /* \"contracts/NewDrugs.sol\":1669:1707  compareStrings(drugs[i].regNo , regNo) */\n      tag_64\n        /* \"contracts/NewDrugs.sol\":1684:1689  drugs */\n      0x01\n        /* \"contracts/NewDrugs.sol\":1690:1691  i */\n      dup3\n        /* \"contracts/NewDrugs.sol\":1684:1692  drugs[i] */\n      dup2\n      sload\n      dup2\n      lt\n      tag_65\n      jumpi\n      tag_66\n      tag_67\n      jump\t// in\n    tag_66:\n    tag_65:\n      swap1\n      0x00\n      mstore\n      keccak256(0x00, 0x20)\n      swap1\n      0x02\n      mul\n      add\n        /* \"contracts/NewDrugs.sol\":1684:1698  drugs[i].regNo */\n      0x00\n      add\n        /* \"contracts/NewDrugs.sol\":1669:1707  compareStrings(drugs[i].regNo , regNo) */\n      dup1\n      sload\n      tag_69\n      swap1\n      tag_70\n      jump\t// in\n    tag_69:\n      dup1\n      0x1f\n      add\n      0x20\n      dup1\n      swap2\n      div\n      mul\n      0x20\n      add\n      mload(0x40)\n      swap1\n      dup2\n      add\n      0x40\n      mstore\n      dup1\n      swap3\n      swap2\n      swap1\n      dup2\n      dup2\n      mstore\n      0x20\n      add\n      dup3\n      dup1\n      sload\n      tag_71\n      swap1\n      tag_70\n      jump\t// in\n    tag_71:\n      dup1\n      iszero\n      tag_72\n      jumpi\n      dup1\n      0x1f\n      lt\n      tag_73\n      jumpi\n      0x0100\n      dup1\n      dup4\n      sload\n      div\n      mul\n      dup4\n      mstore\n      swap2\n      0x20\n      add\n      swap2\n      jump(tag_72)\n    tag_73:\n      dup3\n      add\n      swap2\n      swap1\n      0x00\n      mstore\n      keccak256(0x00, 0x20)\n      swap1\n    tag_74:\n      dup2\n      sload\n      dup2\n      mstore\n      swap1\n      0x01\n      add\n      swap1\n      0x20\n      add\n      dup1\n      dup4\n      gt\n      tag_74\n      jumpi\n      dup3\n      swap1\n      sub\n      0x1f\n      and\n      dup3\n      add\n      swap2\n    tag_72:\n      pop\n      pop\n      pop\n      pop\n      pop\n        /* \"contracts/NewDrugs.sol\":1701:1706  regNo */\n      dup5\n        /* \"contracts/NewDrugs.sol\":1669:1683  compareStrings */\n      tag_75\n        /* \"contracts/NewDrugs.sol\":1669:1707  compareStrings(drugs[i].regNo , regNo) */\n      jump\t// in\n    tag_64:\n        /* \"contracts/NewDrugs.sol\":1666:2120  if(compareStrings(drugs[i].regNo , regNo)){\r... */\n      iszero\n      tag_76\n      jumpi\n        /* \"contracts/NewDrugs.sol\":1736:1741  drugs */\n      0x01\n        /* \"contracts/NewDrugs.sol\":1753:1754  1 */\n      dup1\n        /* \"contracts/NewDrugs.sol\":1742:1752  totalDrugs */\n      sload(0x02)\n        /* \"contracts/NewDrugs.sol\":1742:1754  totalDrugs-1 */\n      tag_77\n      swap2\n      swap1\n      tag_78\n      jump\t// in\n    tag_77:\n        /* \"contracts/NewDrugs.sol\":1736:1755  drugs[totalDrugs-1] */\n      dup2\n      sload\n      dup2\n      lt\n      tag_79\n      jumpi\n      tag_80\n      tag_67\n      jump\t// in\n    tag_80:\n    tag_79:\n      swap1\n      0x00\n      mstore\n      keccak256(0x00, 0x20)\n      swap1\n      0x02\n      mul\n      add\n        /* \"contracts/NewDrugs.sol\":1725:1730  drugs */\n      0x01\n        /* \"contracts/NewDrugs.sol\":1731:1732  i */\n      dup3\n        /* \"contracts/NewDrugs.sol\":1725:1733  drugs[i] */\n      dup2\n      sload\n      dup2\n      lt\n      tag_82\n      jumpi\n      tag_83\n      tag_67\n      jump\t// in\n    tag_83:\n    tag_82:\n      swap1\n      0x00\n      mstore\n      keccak256(0x00, 0x20)\n      swap1\n      0x02\n      mul\n      add\n        /* \"contracts/NewDrugs.sol\":1725:1755  drugs[i] = drugs[totalDrugs-1] */\n      0x00\n      dup3\n      add\n      dup2\n      0x00\n      add\n      swap1\n      dup1\n      sload\n      tag_85\n      swap1\n      tag_70\n      jump\t// in\n    tag_85:\n      tag_86\n      swap3\n      swap2\n      swap1\n      tag_87\n      jump\t// in\n    tag_86:\n      pop\n      0x01\n      dup3\n      add\n      0x00\n      swap1\n      sload\n      swap1\n      0x0100\n      exp\n      swap1\n      div\n      0xffffffffffffffffffffffffffffffffffffffff\n      and\n      dup2\n      0x01\n      add\n      exp(0x0100, 0x00)\n      dup2\n      sload\n      dup2\n      0xffffffffffffffffffffffffffffffffffffffff\n      mul\n      not\n      and\n      swap1\n      dup4\n      0xffffffffffffffffffffffffffffffffffffffff\n      and\n      mul\n      or\n      swap1\n      sstore\n      pop\n      0x01\n      dup3\n      add\n      0x14\n      swap1\n      sload\n      swap1\n      0x0100\n      exp\n      swap1\n      div\n      0xff\n      and\n      dup2\n      0x01\n      add\n      exp(0x0100, 0x14)\n      dup2\n      sload\n      dup2\n      0xff\n      mul\n      not\n      and\n      swap1\n      dup4\n      iszero\n      iszero\n      mul\n      or\n      swap1\n      sstore\n      pop\n      swap1\n      pop\n      pop\n        /* \"contracts/NewDrugs.sol\":1843:1848  drugs */\n      0x01\n        /* \"contracts/NewDrugs.sol\":1860:1861  1 */\n      dup1\n        /* \"contracts/NewDrugs.sol\":1849:1859  totalDrugs */\n      sload(0x02)\n        /* \"contracts/NewDrugs.sol\":1849:1861  totalDrugs-1 */\n      tag_88\n      swap2\n      swap1\n      tag_78\n      jump\t// in\n    tag_88:\n        /* \"contracts/NewDrugs.sol\":1843:1862  drugs[totalDrugs-1] */\n      dup2\n      sload\n      dup2\n      lt\n      tag_89\n      jumpi\n      tag_90\n      tag_67\n      jump\t// in\n    tag_90:\n    tag_89:\n      swap1\n      0x00\n      mstore\n      keccak256(0x00, 0x20)\n      swap1\n      0x02\n      mul\n      add\n      0x00\n        /* \"contracts/NewDrugs.sol\":1836:1862  delete drugs[totalDrugs-1] */\n      dup1\n      dup3\n      add\n      0x00\n      tag_92\n      swap2\n      swap1\n      tag_93\n      jump\t// in\n    tag_92:\n      0x01\n      dup3\n      add\n      exp(0x0100, 0x00)\n      dup2\n      sload\n      swap1\n      0xffffffffffffffffffffffffffffffffffffffff\n      mul\n      not\n      and\n      swap1\n      sstore\n      0x01\n      dup3\n      add\n      exp(0x0100, 0x14)\n      dup2\n      sload\n      swap1\n      0xff\n      mul\n      not\n      and\n      swap1\n      sstore\n      pop\n      pop\n        /* \"contracts/NewDrugs.sol\":1907:1917  totalDrugs */\n      0x02\n      0x00\n        /* \"contracts/NewDrugs.sol\":1907:1919  totalDrugs-- */\n      dup2\n      sload\n      dup1\n      swap3\n      swap2\n      swap1\n      tag_94\n      swap1\n      tag_95\n      jump\t// in\n    tag_94:\n      swap2\n      swap1\n      pop\n      sstore\n      pop\n        /* \"contracts/NewDrugs.sol\":2101:2105  true */\n      0x01\n        /* \"contracts/NewDrugs.sol\":2094:2105  return true */\n      swap2\n      pop\n      pop\n      jump(tag_59)\n        /* \"contracts/NewDrugs.sol\":1666:2120  if(compareStrings(drugs[i].regNo , regNo)){\r... */\n    tag_76:\n        /* \"contracts/NewDrugs.sol\":1648:1651  i++ */\n      dup1\n      dup1\n      tag_96\n      swap1\n      tag_58\n      jump\t// in\n    tag_96:\n      swap2\n      pop\n      pop\n        /* \"contracts/NewDrugs.sol\":1615:2130  for(uint256 i =0; i< totalDrugs; i++){\r... */\n      jump(tag_61)\n    tag_62:\n      pop\n        /* \"contracts/NewDrugs.sol\":2146:2151  false */\n      0x00\n        /* \"contracts/NewDrugs.sol\":2139:2151  return false */\n      swap1\n      pop\n        /* \"contracts/NewDrugs.sol\":1501:2158  function deleteDrug(string memory regNo) public returns(bool success){\r... */\n    tag_59:\n      swap2\n      swap1\n      pop\n      jump\t// out\n        /* \"contracts/NewDrugs.sol\":2175:2573  function getDrug(string memory regNo) public view returns(string memory _regNo , address manufacturer , bool isActive){\r... */\n    tag_30:\n        /* \"contracts/NewDrugs.sol\":2233:2253  string memory _regNo */\n      0x60\n        /* \"contracts/NewDrugs.sol\":2256:2276  address manufacturer */\n      0x00\n        /* \"contracts/NewDrugs.sol\":2279:2292  bool isActive */\n      dup1\n        /* \"contracts/NewDrugs.sol\":2308:2317  uint256 i */\n      0x00\n        /* \"contracts/NewDrugs.sol\":2304:2533  for(uint256 i =0; i< totalDrugs; i++){\r... */\n    tag_98:\n        /* \"contracts/NewDrugs.sol\":2325:2335  totalDrugs */\n      sload(0x02)\n        /* \"contracts/NewDrugs.sol\":2322:2323  i */\n      dup2\n        /* \"contracts/NewDrugs.sol\":2322:2335  i< totalDrugs */\n      lt\n        /* \"contracts/NewDrugs.sol\":2304:2533  for(uint256 i =0; i< totalDrugs; i++){\r... */\n      iszero\n      tag_99\n      jumpi\n        /* \"contracts/NewDrugs.sol\":2358:2395  compareStrings(drugs[i].regNo, regNo) */\n      tag_101\n        /* \"contracts/NewDrugs.sol\":2373:2378  drugs */\n      0x01\n        /* \"contracts/NewDrugs.sol\":2379:2380  i */\n      dup3\n        /* \"contracts/NewDrugs.sol\":2373:2381  drugs[i] */\n      dup2\n      sload\n      dup2\n      lt\n      tag_102\n      jumpi\n      tag_103\n      tag_67\n      jump\t// in\n    tag_103:\n    tag_102:\n      swap1\n      0x00\n      mstore\n      keccak256(0x00, 0x20)\n      swap1\n      0x02\n      mul\n      add\n        /* \"contracts/NewDrugs.sol\":2373:2387  drugs[i].regNo */\n      0x00\n      add\n        /* \"contracts/NewDrugs.sol\":2358:2395  compareStrings(drugs[i].regNo, regNo) */\n      dup1\n      sload\n      tag_105\n      swap1\n      tag_70\n      jump\t// in\n    tag_105:\n      dup1\n      0x1f\n      add\n      0x20\n      dup1\n      swap2\n      div\n      mul\n      0x20\n      add\n      mload(0x40)\n      swap1\n      dup2\n      add\n      0x40\n      mstore\n      dup1\n      swap3\n      swap2\n      swap1\n      dup2\n      dup2\n      mstore\n      0x20\n      add\n      dup3\n      dup1\n      sload\n      tag_106\n      swap1\n      tag_70\n      jump\t// in\n    tag_106:\n      dup1\n      iszero\n      tag_107\n      jumpi\n      dup1\n      0x1f\n      lt\n      tag_108\n      jumpi\n      0x0100\n      dup1\n      dup4\n      sload\n      div\n      mul\n      dup4\n      mstore\n      swap2\n      0x20\n      add\n      swap2\n      jump(tag_107)\n    tag_108:\n      dup3\n      add\n      swap2\n      swap1\n      0x00\n      mstore\n      keccak256(0x00, 0x20)\n      swap1\n    tag_109:\n      dup2\n      sload\n      dup2\n      mstore\n      swap1\n      0x01\n      add\n      swap1\n      0x20\n      add\n      dup1\n      dup4\n      gt\n      tag_109\n      jumpi\n      dup3\n      swap1\n      sub\n      0x1f\n      and\n      dup3\n      add\n      swap2\n    tag_107:\n      pop\n      pop\n      pop\n      pop\n      pop\n        /* \"contracts/NewDrugs.sol\":2389:2394  regNo */\n      dup7\n        /* \"contracts/NewDrugs.sol\":2358:2372  compareStrings */\n      tag_75\n        /* \"contracts/NewDrugs.sol\":2358:2395  compareStrings(drugs[i].regNo, regNo) */\n      jump\t// in\n    tag_101:\n        /* \"contracts/NewDrugs.sol\":2355:2523  if(compareStrings(drugs[i].regNo, regNo)){\r... */\n      iszero\n      tag_110\n      jumpi\n        /* \"contracts/NewDrugs.sol\":2449:2454  drugs */\n      0x01\n        /* \"contracts/NewDrugs.sol\":2455:2456  i */\n      dup2\n        /* \"contracts/NewDrugs.sol\":2449:2457  drugs[i] */\n      dup2\n      sload\n      dup2\n      lt\n      tag_111\n      jumpi\n      tag_112\n      tag_67\n      jump\t// in\n    tag_112:\n    tag_111:\n      swap1\n      0x00\n      mstore\n      keccak256(0x00, 0x20)\n      swap1\n      0x02\n      mul\n      add\n        /* \"contracts/NewDrugs.sol\":2449:2463  drugs[i].regNo */\n      0x00\n      add\n        /* \"contracts/NewDrugs.sol\":2466:2471  drugs */\n      0x01\n        /* \"contracts/NewDrugs.sol\":2472:2473  i */\n      dup3\n        /* \"contracts/NewDrugs.sol\":2466:2474  drugs[i] */\n      dup2\n      sload\n      dup2\n      lt\n      tag_114\n      jumpi\n      tag_115\n      tag_67\n      jump\t// in\n    tag_115:\n    tag_114:\n      swap1\n      0x00\n      mstore\n      keccak256(0x00, 0x20)\n      swap1\n      0x02\n      mul\n      add\n        /* \"contracts/NewDrugs.sol\":2466:2487  drugs[i].manufacturer */\n      0x01\n      add\n      0x00\n      swap1\n      sload\n      swap1\n      0x0100\n      exp\n      swap1\n      div\n      0xffffffffffffffffffffffffffffffffffffffff\n      and\n        /* \"contracts/NewDrugs.sol\":2490:2495  drugs */\n      0x01\n        /* \"contracts/NewDrugs.sol\":2496:2497  i */\n      dup4\n        /* \"contracts/NewDrugs.sol\":2490:2498  drugs[i] */\n      dup2\n      sload\n      dup2\n      lt\n      tag_117\n      jumpi\n      tag_118\n      tag_67\n      jump\t// in\n    tag_118:\n    tag_117:\n      swap1\n      0x00\n      mstore\n      keccak256(0x00, 0x20)\n      swap1\n      0x02\n      mul\n      add\n        /* \"contracts/NewDrugs.sol\":2490:2507  drugs[i].isActive */\n      0x01\n      add\n      0x14\n      swap1\n      sload\n      swap1\n      0x0100\n      exp\n      swap1\n      div\n      0xff\n      and\n        /* \"contracts/NewDrugs.sol\":2441:2508  return (drugs[i].regNo , drugs[i].manufacturer , drugs[i].isActive) */\n      dup3\n      dup1\n      sload\n      tag_120\n      swap1\n      tag_70\n      jump\t// in\n    tag_120:\n      dup1\n      0x1f\n      add\n      0x20\n      dup1\n      swap2\n      div\n      mul\n      0x20\n      add\n      mload(0x40)\n      swap1\n      dup2\n      add\n      0x40\n      mstore\n      dup1\n      swap3\n      swap2\n      swap1\n      dup2\n      dup2\n      mstore\n      0x20\n      add\n      dup3\n      dup1\n      sload\n      tag_121\n      swap1\n      tag_70\n      jump\t// in\n    tag_121:\n      dup1\n      iszero\n      tag_122\n      jumpi\n      dup1\n      0x1f\n      lt\n      tag_123\n      jumpi\n      0x0100\n      dup1\n      dup4\n      sload\n      div\n      mul\n      dup4\n      mstore\n      swap2\n      0x20\n      add\n      swap2\n      jump(tag_122)\n    tag_123:\n      dup3\n      add\n      swap2\n      swap1\n      0x00\n      mstore\n      keccak256(0x00, 0x20)\n      swap1\n    tag_124:\n      dup2\n      sload\n      dup2\n      mstore\n      swap1\n      0x01\n      add\n      swap1\n      0x20\n      add\n      dup1\n      dup4\n      gt\n      tag_124\n      jumpi\n      dup3\n      swap1\n      sub\n      0x1f\n      and\n      dup3\n      add\n      swap2\n    tag_122:\n      pop\n      pop\n      pop\n      pop\n      pop\n      swap3\n      pop\n      swap4\n      pop\n      swap4\n      pop\n      swap4\n      pop\n      pop\n      jump(tag_97)\n        /* \"contracts/NewDrugs.sol\":2355:2523  if(compareStrings(drugs[i].regNo, regNo)){\r... */\n    tag_110:\n        /* \"contracts/NewDrugs.sol\":2337:2340  i++ */\n      dup1\n      dup1\n      tag_125\n      swap1\n      tag_58\n      jump\t// in\n    tag_125:\n      swap2\n      pop\n      pop\n        /* \"contracts/NewDrugs.sol\":2304:2533  for(uint256 i =0; i< totalDrugs; i++){\r... */\n      jump(tag_98)\n    tag_99:\n      pop\n        /* \"contracts/NewDrugs.sol\":2542:2566  revert('drug not found') */\n      mload(0x40)\n      0x08c379a000000000000000000000000000000000000000000000000000000000\n      dup2\n      mstore\n      0x04\n      add\n      tag_126\n      swap1\n      tag_127\n      jump\t// in\n    tag_126:\n      mload(0x40)\n      dup1\n      swap2\n      sub\n      swap1\n      revert\n        /* \"contracts/NewDrugs.sol\":2175:2573  function getDrug(string memory regNo) public view returns(string memory _regNo , address manufacturer , bool isActive){\r... */\n    tag_97:\n      swap2\n      swap4\n      swap1\n      swap3\n      pop\n      jump\t// out\n        /* \"contracts/NewDrugs.sol\":2881:3384  function getDrugss() public view returns (drug[] memory allDrugs){\r... */\n    tag_34:\n        /* \"contracts/NewDrugs.sol\":2923:2945  drug[] memory allDrugs */\n      0x60\n        /* \"contracts/NewDrugs.sol\":2981:3003  drug[] memory drugsArr */\n      0x00\n        /* \"contracts/NewDrugs.sol\":3017:3027  totalDrugs */\n      sload(0x02)\n        /* \"contracts/NewDrugs.sol\":3006:3028  new drug[](totalDrugs) */\n      0xffffffffffffffff\n      dup2\n      gt\n      iszero\n      tag_129\n      jumpi\n      tag_130\n      tag_131\n      jump\t// in\n    tag_130:\n    tag_129:\n      mload(0x40)\n      swap1\n      dup1\n      dup3\n      mstore\n      dup1\n      0x20\n      mul\n      0x20\n      add\n      dup3\n      add\n      0x40\n      mstore\n      dup1\n      iszero\n      tag_132\n      jumpi\n      dup2\n      0x20\n      add\n    tag_133:\n      tag_134\n      tag_135\n      jump\t// in\n    tag_134:\n      dup2\n      mstore\n      0x20\n      add\n      swap1\n      0x01\n      swap1\n      sub\n      swap1\n      dup2\n      tag_133\n      jumpi\n      swap1\n      pop\n    tag_132:\n      pop\n        /* \"contracts/NewDrugs.sol\":2981:3028  drug[] memory drugsArr = new drug[](totalDrugs) */\n      swap1\n      pop\n        /* \"contracts/NewDrugs.sol\":3044:3050  uint i */\n      0x00\n        /* \"contracts/NewDrugs.sol\":3039:3322  for (uint i = 0; i < totalDrugs; i++) {\r... */\n    tag_136:\n        /* \"contracts/NewDrugs.sol\":3060:3070  totalDrugs */\n      sload(0x02)\n        /* \"contracts/NewDrugs.sol\":3056:3057  i */\n      dup2\n        /* \"contracts/NewDrugs.sol\":3056:3070  i < totalDrugs */\n      lt\n        /* \"contracts/NewDrugs.sol\":3039:3322  for (uint i = 0; i < totalDrugs; i++) {\r... */\n      iszero\n      tag_137\n      jumpi\n        /* \"contracts/NewDrugs.sol\":3302:3307  drugs */\n      0x01\n        /* \"contracts/NewDrugs.sol\":3308:3309  i */\n      dup2\n        /* \"contracts/NewDrugs.sol\":3302:3310  drugs[i] */\n      dup2\n      sload\n      dup2\n      lt\n      tag_139\n      jumpi\n      tag_140\n      tag_67\n      jump\t// in\n    tag_140:\n    tag_139:\n      swap1\n      0x00\n      mstore\n      keccak256(0x00, 0x20)\n      swap1\n      0x02\n      mul\n      add\n        /* \"contracts/NewDrugs.sol\":3288:3310  drugsArr[i] = drugs[i] */\n      mload(0x40)\n      dup1\n      0x60\n      add\n      0x40\n      mstore\n      swap1\n      dup2\n      0x00\n      dup3\n      add\n      dup1\n      sload\n      tag_142\n      swap1\n      tag_70\n      jump\t// in\n    tag_142:\n      dup1\n      0x1f\n      add\n      0x20\n      dup1\n      swap2\n      div\n      mul\n      0x20\n      add\n      mload(0x40)\n      swap1\n      dup2\n      add\n      0x40\n      mstore\n      dup1\n      swap3\n      swap2\n      swap1\n      dup2\n      dup2\n      mstore\n      0x20\n      add\n      dup3\n      dup1\n      sload\n      tag_143\n      swap1\n      tag_70\n      jump\t// in\n    tag_143:\n      dup1\n      iszero\n      tag_144\n      jumpi\n      dup1\n      0x1f\n      lt\n      tag_145\n      jumpi\n      0x0100\n      dup1\n      dup4\n      sload\n      div\n      mul\n      dup4\n      mstore\n      swap2\n      0x20\n      add\n      swap2\n      jump(tag_144)\n    tag_145:\n      dup3\n      add\n      swap2\n      swap1\n      0x00\n      mstore\n      keccak256(0x00, 0x20)\n      swap1\n    tag_146:\n      dup2\n      sload\n      dup2\n      mstore\n      swap1\n      0x01\n      add\n      swap1\n      0x20\n      add\n      dup1\n      dup4\n      gt\n      tag_146\n      jumpi\n      dup3\n      swap1\n      sub\n      0x1f\n      and\n      dup3\n      add\n      swap2\n    tag_144:\n      pop\n      pop\n      pop\n      pop\n      pop\n      dup2\n      mstore\n      0x20\n      add\n      0x01\n      dup3\n      add\n      0x00\n      swap1\n      sload\n      swap1\n      0x0100\n      exp\n      swap1\n      div\n      0xffffffffffffffffffffffffffffffffffffffff\n      and\n      0xffffffffffffffffffffffffffffffffffffffff\n      and\n      0xffffffffffffffffffffffffffffffffffffffff\n      and\n      dup2\n      mstore\n      0x20\n      add\n      0x01\n      dup3\n      add\n      0x14\n      swap1\n      sload\n      swap1\n      0x0100\n      exp\n      swap1\n      div\n      0xff\n      and\n      iszero\n      iszero\n      iszero\n      iszero\n      dup2\n      mstore\n      pop\n      pop\n        /* \"contracts/NewDrugs.sol\":3288:3296  drugsArr */\n      dup3\n        /* \"contracts/NewDrugs.sol\":3297:3298  i */\n      dup3\n        /* \"contracts/NewDrugs.sol\":3288:3299  drugsArr[i] */\n      dup2\n      mload\n      dup2\n      lt\n      tag_147\n      jumpi\n      tag_148\n      tag_67\n      jump\t// in\n    tag_148:\n    tag_147:\n      0x20\n      mul\n      0x20\n      add\n      add\n        /* \"contracts/NewDrugs.sol\":3288:3310  drugsArr[i] = drugs[i] */\n      dup2\n      swap1\n      mstore\n      pop\n        /* \"contracts/NewDrugs.sol\":3072:3075  i++ */\n      dup1\n      dup1\n      tag_149\n      swap1\n      tag_58\n      jump\t// in\n    tag_149:\n      swap2\n      pop\n      pop\n        /* \"contracts/NewDrugs.sol\":3039:3322  for (uint i = 0; i < totalDrugs; i++) {\r... */\n      jump(tag_136)\n    tag_137:\n      pop\n        /* \"contracts/NewDrugs.sol\":3339:3347  drugsArr */\n      dup1\n        /* \"contracts/NewDrugs.sol\":3332:3347  return drugsArr */\n      swap2\n      pop\n      pop\n        /* \"contracts/NewDrugs.sol\":2881:3384  function getDrugss() public view returns (drug[] memory allDrugs){\r... */\n      swap1\n      jump\t// out\n        /* \"contracts/NewDrugs.sol\":2778:2874  function gettotalDrugs() public view returns (uint256 length){\r... */\n    tag_38:\n        /* \"contracts/NewDrugs.sol\":2824:2838  uint256 length */\n      0x00\n        /* \"contracts/NewDrugs.sol\":2855:2860  drugs */\n      0x01\n        /* \"contracts/NewDrugs.sol\":2855:2867  drugs.length */\n      dup1\n      sload\n      swap1\n      pop\n        /* \"contracts/NewDrugs.sol\":2848:2867  return drugs.length */\n      swap1\n      pop\n        /* \"contracts/NewDrugs.sol\":2778:2874  function gettotalDrugs() public view returns (uint256 length){\r... */\n      swap1\n      jump\t// out\n        /* \"contracts/NewDrugs.sol\":1075:1491  function updateDrugStatus(string memory regNo, bool isActive) public returns (bool success){\r... */\n    tag_43:\n        /* \"contracts/NewDrugs.sol\":1153:1165  bool success */\n      0x00\n        /* \"contracts/NewDrugs.sol\":1222:1231  uint256 i */\n      dup1\n        /* \"contracts/NewDrugs.sol\":1233:1234  0 */\n      0x00\n        /* \"contracts/NewDrugs.sol\":1222:1234  uint256 i =0 */\n      swap1\n      pop\n        /* \"contracts/NewDrugs.sol\":1218:1463  for(uint256 i =0; i< totalDrugs; i++){\r... */\n    tag_152:\n        /* \"contracts/NewDrugs.sol\":1239:1249  totalDrugs */\n      sload(0x02)\n        /* \"contracts/NewDrugs.sol\":1236:1237  i */\n      dup2\n        /* \"contracts/NewDrugs.sol\":1236:1249  i< totalDrugs */\n      lt\n        /* \"contracts/NewDrugs.sol\":1218:1463  for(uint256 i =0; i< totalDrugs; i++){\r... */\n      iszero\n      tag_153\n      jumpi\n        /* \"contracts/NewDrugs.sol\":1272:1309  compareStrings(drugs[i].regNo ,regNo) */\n      tag_155\n        /* \"contracts/NewDrugs.sol\":1287:1292  drugs */\n      0x01\n        /* \"contracts/NewDrugs.sol\":1293:1294  i */\n      dup3\n        /* \"contracts/NewDrugs.sol\":1287:1295  drugs[i] */\n      dup2\n      sload\n      dup2\n      lt\n      tag_156\n      jumpi\n      tag_157\n      tag_67\n      jump\t// in\n    tag_157:\n    tag_156:\n      swap1\n      0x00\n      mstore\n      keccak256(0x00, 0x20)\n      swap1\n      0x02\n      mul\n      add\n        /* \"contracts/NewDrugs.sol\":1287:1301  drugs[i].regNo */\n      0x00\n      add\n        /* \"contracts/NewDrugs.sol\":1272:1309  compareStrings(drugs[i].regNo ,regNo) */\n      dup1\n      sload\n      tag_159\n      swap1\n      tag_70\n      jump\t// in\n    tag_159:\n      dup1\n      0x1f\n      add\n      0x20\n      dup1\n      swap2\n      div\n      mul\n      0x20\n      add\n      mload(0x40)\n      swap1\n      dup2\n      add\n      0x40\n      mstore\n      dup1\n      swap3\n      swap2\n      swap1\n      dup2\n      dup2\n      mstore\n      0x20\n      add\n      dup3\n      dup1\n      sload\n      tag_160\n      swap1\n      tag_70\n      jump\t// in\n    tag_160:\n      dup1\n      iszero\n      tag_161\n      jumpi\n      dup1\n      0x1f\n      lt\n      tag_162\n      jumpi\n      0x0100\n      dup1\n      dup4\n      sload\n      div\n      mul\n      dup4\n      mstore\n      swap2\n      0x20\n      add\n      swap2\n      jump(tag_161)\n    tag_162:\n      dup3\n      add\n      swap2\n      swap1\n      0x00\n      mstore\n      keccak256(0x00, 0x20)\n      swap1\n    tag_163:\n      dup2\n      sload\n      dup2\n      mstore\n      swap1\n      0x01\n      add\n      swap1\n      0x20\n      add\n      dup1\n      dup4\n      gt\n      tag_163\n      jumpi\n      dup3\n      swap1\n      sub\n      0x1f\n      and\n      dup3\n      add\n      swap2\n    tag_161:\n      pop\n      pop\n      pop\n      pop\n      pop\n        /* \"contracts/NewDrugs.sol\":1303:1308  regNo */\n      dup6\n        /* \"contracts/NewDrugs.sol\":1272:1286  compareStrings */\n      tag_75\n        /* \"contracts/NewDrugs.sol\":1272:1309  compareStrings(drugs[i].regNo ,regNo) */\n      jump\t// in\n    tag_155:\n        /* \"contracts/NewDrugs.sol\":1269:1453  if(compareStrings(drugs[i].regNo ,regNo)){\r... */\n      iszero\n      tag_164\n      jumpi\n        /* \"contracts/NewDrugs.sol\":1347:1355  isActive */\n      dup3\n        /* \"contracts/NewDrugs.sol\":1327:1332  drugs */\n      0x01\n        /* \"contracts/NewDrugs.sol\":1333:1334  i */\n      dup3\n        /* \"contracts/NewDrugs.sol\":1327:1335  drugs[i] */\n      dup2\n      sload\n      dup2\n      lt\n      tag_165\n      jumpi\n      tag_166\n      tag_67\n      jump\t// in\n    tag_166:\n    tag_165:\n      swap1\n      0x00\n      mstore\n      keccak256(0x00, 0x20)\n      swap1\n      0x02\n      mul\n      add\n        /* \"contracts/NewDrugs.sol\":1327:1344  drugs[i].isActive */\n      0x01\n      add\n      0x14\n        /* \"contracts/NewDrugs.sol\":1327:1355  drugs[i].isActive = isActive */\n      0x0100\n      exp\n      dup2\n      sload\n      dup2\n      0xff\n      mul\n      not\n      and\n      swap1\n      dup4\n      iszero\n      iszero\n      mul\n      or\n      swap1\n      sstore\n      pop\n        /* \"contracts/NewDrugs.sol\":1434:1438  true */\n      0x01\n        /* \"contracts/NewDrugs.sol\":1427:1438  return true */\n      swap2\n      pop\n      pop\n      jump(tag_151)\n        /* \"contracts/NewDrugs.sol\":1269:1453  if(compareStrings(drugs[i].regNo ,regNo)){\r... */\n    tag_164:\n        /* \"contracts/NewDrugs.sol\":1251:1254  i++ */\n      dup1\n      dup1\n      tag_168\n      swap1\n      tag_58\n      jump\t// in\n    tag_168:\n      swap2\n      pop\n      pop\n        /* \"contracts/NewDrugs.sol\":1218:1463  for(uint256 i =0; i< totalDrugs; i++){\r... */\n      jump(tag_152)\n    tag_153:\n      pop\n        /* \"contracts/NewDrugs.sol\":1479:1484  false */\n      0x00\n        /* \"contracts/NewDrugs.sol\":1472:1484  return false */\n      swap1\n      pop\n        /* \"contracts/NewDrugs.sol\":1075:1491  function updateDrugStatus(string memory regNo, bool isActive) public returns (bool success){\r... */\n    tag_151:\n      swap3\n      swap2\n      pop\n      pop\n      jump\t// out\n        /* \"contracts/NewDrugs.sol\":3393:3515  function getDrugs2() public view returns (drug[] memory allDrugs){\r... */\n    tag_46:\n        /* \"contracts/NewDrugs.sol\":3435:3457  drug[] memory allDrugs */\n      0x60\n        /* \"contracts/NewDrugs.sol\":3503:3508  drugs */\n      0x01\n        /* \"contracts/NewDrugs.sol\":3496:3508  return drugs */\n      dup1\n      sload\n      dup1\n      0x20\n      mul\n      0x20\n      add\n      mload(0x40)\n      swap1\n      dup2\n      add\n      0x40\n      mstore\n      dup1\n      swap3\n      swap2\n      swap1\n      dup2\n      dup2\n      mstore\n      0x20\n      add\n      0x00\n      swap1\n    tag_170:\n      dup3\n      dup3\n      lt\n      iszero\n      tag_171\n      jumpi\n      dup4\n      dup3\n      swap1\n      0x00\n      mstore\n      keccak256(0x00, 0x20)\n      swap1\n      0x02\n      mul\n      add\n      mload(0x40)\n      dup1\n      0x60\n      add\n      0x40\n      mstore\n      swap1\n      dup2\n      0x00\n      dup3\n      add\n      dup1\n      sload\n      tag_173\n      swap1\n      tag_70\n      jump\t// in\n    tag_173:\n      dup1\n      0x1f\n      add\n      0x20\n      dup1\n      swap2\n      div\n      mul\n      0x20\n      add\n      mload(0x40)\n      swap1\n      dup2\n      add\n      0x40\n      mstore\n      dup1\n      swap3\n      swap2\n      swap1\n      dup2\n      dup2\n      mstore\n      0x20\n      add\n      dup3\n      dup1\n      sload\n      tag_174\n      swap1\n      tag_70\n      jump\t// in\n    tag_174:\n      dup1\n      iszero\n      tag_175\n      jumpi\n      dup1\n      0x1f\n      lt\n      tag_176\n      jumpi\n      0x0100\n      dup1\n      dup4\n      sload\n      div\n      mul\n      dup4\n      mstore\n      swap2\n      0x20\n      add\n      swap2\n      jump(tag_175)\n    tag_176:\n      dup3\n      add\n      swap2\n      swap1\n      0x00\n      mstore\n      keccak256(0x00, 0x20)\n      swap1\n    tag_177:\n      dup2\n      sload\n      dup2\n      mstore\n      swap1\n      0x01\n      add\n      swap1\n      0x20\n      add\n      dup1\n      dup4\n      gt\n      tag_177\n      jumpi\n      dup3\n      swap1\n      sub\n      0x1f\n      and\n      dup3\n      add\n      swap2\n    tag_175:\n      pop\n      pop\n      pop\n      pop\n      pop\n      dup2\n      mstore\n      0x20\n      add\n      0x01\n      dup3\n      add\n      0x00\n      swap1\n      sload\n      swap1\n      0x0100\n      exp\n      swap1\n      div\n      0xffffffffffffffffffffffffffffffffffffffff\n      and\n      0xffffffffffffffffffffffffffffffffffffffff\n      and\n      0xffffffffffffffffffffffffffffffffffffffff\n      and\n      dup2\n      mstore\n      0x20\n      add\n      0x01\n      dup3\n      add\n      0x14\n      swap1\n      sload\n      swap1\n      0x0100\n      exp\n      swap1\n      div\n      0xff\n      and\n      iszero\n      iszero\n      iszero\n      iszero\n      dup2\n      mstore\n      pop\n      pop\n      dup2\n      mstore\n      0x20\n      add\n      swap1\n      0x01\n      add\n      swap1\n      jump(tag_170)\n    tag_171:\n      pop\n      pop\n      pop\n      pop\n      swap1\n      pop\n        /* \"contracts/NewDrugs.sol\":3393:3515  function getDrugs2() public view returns (drug[] memory allDrugs){\r... */\n      swap1\n      jump\t// out\n        /* \"contracts/NewDrugs.sol\":431:450  drug[] public drugs */\n    tag_51:\n      0x01\n      dup2\n      dup2\n      sload\n      dup2\n      lt\n      tag_178\n      jumpi\n      0x00\n      dup1\n      revert\n    tag_178:\n      swap1\n      0x00\n      mstore\n      keccak256(0x00, 0x20)\n      swap1\n      0x02\n      mul\n      add\n      0x00\n      swap2\n      pop\n      swap1\n      pop\n      dup1\n      0x00\n      add\n      dup1\n      sload\n      tag_180\n      swap1\n      tag_70\n      jump\t// in\n    tag_180:\n      dup1\n      0x1f\n      add\n      0x20\n      dup1\n      swap2\n      div\n      mul\n      0x20\n      add\n      mload(0x40)\n      swap1\n      dup2\n      add\n      0x40\n      mstore\n      dup1\n      swap3\n      swap2\n      swap1\n      dup2\n      dup2\n      mstore\n      0x20\n      add\n      dup3\n      dup1\n      sload\n      tag_181\n      swap1\n      tag_70\n      jump\t// in\n    tag_181:\n      dup1\n      iszero\n      tag_182\n      jumpi\n      dup1\n      0x1f\n      lt\n      tag_183\n      jumpi\n      0x0100\n      dup1\n      dup4\n      sload\n      div\n      mul\n      dup4\n      mstore\n      swap2\n      0x20\n      add\n      swap2\n      jump(tag_182)\n    tag_183:\n      dup3\n      add\n      swap2\n      swap1\n      0x00\n      mstore\n      keccak256(0x00, 0x20)\n      swap1\n    tag_184:\n      dup2\n      sload\n      dup2\n      mstore\n      swap1\n      0x01\n      add\n      swap1\n      0x20\n      add\n      dup1\n      dup4\n      gt\n      tag_184\n      jumpi\n      dup3\n      swap1\n      sub\n      0x1f\n      and\n      dup3\n      add\n      swap2\n    tag_182:\n      pop\n      pop\n      pop\n      pop\n      pop\n      swap1\n      dup1\n      0x01\n      add\n      0x00\n      swap1\n      sload\n      swap1\n      0x0100\n      exp\n      swap1\n      div\n      0xffffffffffffffffffffffffffffffffffffffff\n      and\n      swap1\n      dup1\n      0x01\n      add\n      0x14\n      swap1\n      sload\n      swap1\n      0x0100\n      exp\n      swap1\n      div\n      0xff\n      and\n      swap1\n      pop\n      dup4\n      jump\t// out\n        /* \"contracts/NewDrugs.sol\":2587:2763  function compareStrings (string memory a, string memory b)  internal pure returns (bool){\r... */\n    tag_75:\n        /* \"contracts/NewDrugs.sol\":2670:2674  bool */\n      0x00\n        /* \"contracts/NewDrugs.sol\":2753:2754  b */\n      dup2\n        /* \"contracts/NewDrugs.sol\":2736:2755  abi.encodePacked(b) */\n      add(0x20, mload(0x40))\n      tag_186\n      swap2\n      swap1\n      tag_187\n      jump\t// in\n    tag_186:\n      mload(0x40)\n      0x20\n      dup2\n      dup4\n      sub\n      sub\n      dup2\n      mstore\n      swap1\n      0x40\n      mstore\n        /* \"contracts/NewDrugs.sol\":2726:2756  keccak256(abi.encodePacked(b)) */\n      dup1\n      mload\n      swap1\n      0x20\n      add\n      keccak256\n        /* \"contracts/NewDrugs.sol\":2719:2720  a */\n      dup4\n        /* \"contracts/NewDrugs.sol\":2702:2721  abi.encodePacked(a) */\n      add(0x20, mload(0x40))\n      tag_188\n      swap2\n      swap1\n      tag_187\n      jump\t// in\n    tag_188:\n      mload(0x40)\n      0x20\n      dup2\n      dup4\n      sub\n      sub\n      dup2\n      mstore\n      swap1\n      0x40\n      mstore\n        /* \"contracts/NewDrugs.sol\":2692:2722  keccak256(abi.encodePacked(a)) */\n      dup1\n      mload\n      swap1\n      0x20\n      add\n      keccak256\n        /* \"contracts/NewDrugs.sol\":2692:2756  keccak256(abi.encodePacked(a)) == keccak256(abi.encodePacked(b)) */\n      eq\n        /* \"contracts/NewDrugs.sol\":2685:2756  return keccak256(abi.encodePacked(a)) == keccak256(abi.encodePacked(b)) */\n      swap1\n      pop\n        /* \"contracts/NewDrugs.sol\":2587:2763  function compareStrings (string memory a, string memory b)  internal pure returns (bool){\r... */\n      swap3\n      swap2\n      pop\n      pop\n      jump\t// out\n    tag_56:\n      dup3\n      dup1\n      sload\n      tag_189\n      swap1\n      tag_70\n      jump\t// in\n    tag_189:\n      swap1\n      0x00\n      mstore\n      keccak256(0x00, 0x20)\n      swap1\n      0x1f\n      add\n      0x20\n      swap1\n      div\n      dup2\n      add\n      swap3\n      dup3\n      tag_191\n      jumpi\n      0x00\n      dup6\n      sstore\n      jump(tag_190)\n    tag_191:\n      dup3\n      0x1f\n      lt\n      tag_192\n      jumpi\n      dup1\n      mload\n      not(0xff)\n      and\n      dup4\n      dup1\n      add\n      or\n      dup6\n      sstore\n      jump(tag_190)\n    tag_192:\n      dup3\n      dup1\n      add\n      0x01\n      add\n      dup6\n      sstore\n      dup3\n      iszero\n      tag_190\n      jumpi\n      swap2\n      dup3\n      add\n    tag_193:\n      dup3\n      dup2\n      gt\n      iszero\n      tag_194\n      jumpi\n      dup3\n      mload\n      dup3\n      sstore\n      swap2\n      0x20\n      add\n      swap2\n      swap1\n      0x01\n      add\n      swap1\n      jump(tag_193)\n    tag_194:\n    tag_190:\n      pop\n      swap1\n      pop\n      tag_195\n      swap2\n      swap1\n      tag_196\n      jump\t// in\n    tag_195:\n      pop\n      swap1\n      jump\t// out\n    tag_87:\n      dup3\n      dup1\n      sload\n      tag_197\n      swap1\n      tag_70\n      jump\t// in\n    tag_197:\n      swap1\n      0x00\n      mstore\n      keccak256(0x00, 0x20)\n      swap1\n      0x1f\n      add\n      0x20\n      swap1\n      div\n      dup2\n      add\n      swap3\n      dup3\n      tag_199\n      jumpi\n      0x00\n      dup6\n      sstore\n      jump(tag_198)\n    tag_199:\n      dup3\n      0x1f\n      lt\n      tag_200\n      jumpi\n      dup1\n      sload\n      dup6\n      sstore\n      jump(tag_198)\n    tag_200:\n      dup3\n      dup1\n      add\n      0x01\n      add\n      dup6\n      sstore\n      dup3\n      iszero\n      tag_198\n      jumpi\n      0x00\n      mstore\n      keccak256(0x00, 0x20)\n      swap2\n      0x1f\n      add\n      0x20\n      swap1\n      div\n      dup3\n      add\n    tag_201:\n      dup3\n      dup2\n      gt\n      iszero\n      tag_202\n      jumpi\n      dup3\n      sload\n      dup3\n      sstore\n      swap2\n      0x01\n      add\n      swap2\n      swap1\n      0x01\n      add\n      swap1\n      jump(tag_201)\n    tag_202:\n    tag_198:\n      pop\n      swap1\n      pop\n      tag_203\n      swap2\n      swap1\n      tag_196\n      jump\t// in\n    tag_203:\n      pop\n      swap1\n      jump\t// out\n    tag_93:\n      pop\n      dup1\n      sload\n      tag_204\n      swap1\n      tag_70\n      jump\t// in\n    tag_204:\n      0x00\n      dup3\n      sstore\n      dup1\n      0x1f\n      lt\n      tag_206\n      jumpi\n      pop\n      jump(tag_205)\n    tag_206:\n      0x1f\n      add\n      0x20\n      swap1\n      div\n      swap1\n      0x00\n      mstore\n      keccak256(0x00, 0x20)\n      swap1\n      dup2\n      add\n      swap1\n      tag_207\n      swap2\n      swap1\n      tag_196\n      jump\t// in\n    tag_207:\n    tag_205:\n      pop\n      jump\t// out\n    tag_135:\n      mload(0x40)\n      dup1\n      0x60\n      add\n      0x40\n      mstore\n      dup1\n      0x60\n      dup2\n      mstore\n      0x20\n      add\n      and(0xffffffffffffffffffffffffffffffffffffffff, 0x00)\n      dup2\n      mstore\n      0x20\n      add\n      iszero(iszero(0x00))\n      dup2\n      mstore\n      pop\n      swap1\n      jump\t// out\n    tag_196:\n    tag_208:\n      dup1\n      dup3\n      gt\n      iszero\n      tag_209\n      jumpi\n      0x00\n      dup2\n      0x00\n      swap1\n      sstore\n      pop\n      0x01\n      add\n      jump(tag_208)\n    tag_209:\n      pop\n      swap1\n      jump\t// out\n        /* \"#utility.yul\":7:419   */\n    tag_211:\n        /* \"#utility.yul\":85:90   */\n      0x00\n        /* \"#utility.yul\":110:176   */\n      tag_213\n        /* \"#utility.yul\":126:175   */\n      tag_214\n        /* \"#utility.yul\":168:174   */\n      dup5\n        /* \"#utility.yul\":126:175   */\n      tag_215\n      jump\t// in\n    tag_214:\n        /* \"#utility.yul\":110:176   */\n      tag_216\n      jump\t// in\n    tag_213:\n        /* \"#utility.yul\":101:176   */\n      swap1\n      pop\n        /* \"#utility.yul\":199:205   */\n      dup3\n        /* \"#utility.yul\":192:197   */\n      dup2\n        /* \"#utility.yul\":185:206   */\n      mstore\n        /* \"#utility.yul\":237:241   */\n      0x20\n        /* \"#utility.yul\":230:235   */\n      dup2\n        /* \"#utility.yul\":226:242   */\n      add\n        /* \"#utility.yul\":275:278   */\n      dup5\n        /* \"#utility.yul\":266:272   */\n      dup5\n        /* \"#utility.yul\":261:264   */\n      dup5\n        /* \"#utility.yul\":257:273   */\n      add\n        /* \"#utility.yul\":254:279   */\n      gt\n        /* \"#utility.yul\":251:363   */\n      iszero\n      tag_217\n      jumpi\n        /* \"#utility.yul\":282:361   */\n      tag_218\n      tag_219\n      jump\t// in\n    tag_218:\n        /* \"#utility.yul\":251:363   */\n    tag_217:\n        /* \"#utility.yul\":372:413   */\n      tag_220\n        /* \"#utility.yul\":406:412   */\n      dup5\n        /* \"#utility.yul\":401:404   */\n      dup3\n        /* \"#utility.yul\":396:399   */\n      dup6\n        /* \"#utility.yul\":372:413   */\n      tag_221\n      jump\t// in\n    tag_220:\n        /* \"#utility.yul\":91:419   */\n      pop\n        /* \"#utility.yul\":7:419   */\n      swap4\n      swap3\n      pop\n      pop\n      pop\n      jump\t// out\n        /* \"#utility.yul\":425:564   */\n    tag_222:\n        /* \"#utility.yul\":471:476   */\n      0x00\n        /* \"#utility.yul\":509:515   */\n      dup2\n        /* \"#utility.yul\":496:516   */\n      calldataload\n        /* \"#utility.yul\":487:516   */\n      swap1\n      pop\n        /* \"#utility.yul\":525:558   */\n      tag_224\n        /* \"#utility.yul\":552:557   */\n      dup2\n        /* \"#utility.yul\":525:558   */\n      tag_225\n      jump\t// in\n    tag_224:\n        /* \"#utility.yul\":425:564   */\n      swap3\n      swap2\n      pop\n      pop\n      jump\t// out\n        /* \"#utility.yul\":570:703   */\n    tag_226:\n        /* \"#utility.yul\":613:618   */\n      0x00\n        /* \"#utility.yul\":651:657   */\n      dup2\n        /* \"#utility.yul\":638:658   */\n      calldataload\n        /* \"#utility.yul\":629:658   */\n      swap1\n      pop\n        /* \"#utility.yul\":667:697   */\n      tag_228\n        /* \"#utility.yul\":691:696   */\n      dup2\n        /* \"#utility.yul\":667:697   */\n      tag_229\n      jump\t// in\n    tag_228:\n        /* \"#utility.yul\":570:703   */\n      swap3\n      swap2\n      pop\n      pop\n      jump\t// out\n        /* \"#utility.yul\":723:1063   */\n    tag_230:\n        /* \"#utility.yul\":779:784   */\n      0x00\n        /* \"#utility.yul\":828:831   */\n      dup3\n        /* \"#utility.yul\":821:825   */\n      0x1f\n        /* \"#utility.yul\":813:819   */\n      dup4\n        /* \"#utility.yul\":809:826   */\n      add\n        /* \"#utility.yul\":805:832   */\n      slt\n        /* \"#utility.yul\":795:917   */\n      tag_232\n      jumpi\n        /* \"#utility.yul\":836:915   */\n      tag_233\n      tag_234\n      jump\t// in\n    tag_233:\n        /* \"#utility.yul\":795:917   */\n    tag_232:\n        /* \"#utility.yul\":953:959   */\n      dup2\n        /* \"#utility.yul\":940:960   */\n      calldataload\n        /* \"#utility.yul\":978:1057   */\n      tag_235\n        /* \"#utility.yul\":1053:1056   */\n      dup5\n        /* \"#utility.yul\":1045:1051   */\n      dup3\n        /* \"#utility.yul\":1038:1042   */\n      0x20\n        /* \"#utility.yul\":1030:1036   */\n      dup7\n        /* \"#utility.yul\":1026:1043   */\n      add\n        /* \"#utility.yul\":978:1057   */\n      tag_211\n      jump\t// in\n    tag_235:\n        /* \"#utility.yul\":969:1057   */\n      swap2\n      pop\n        /* \"#utility.yul\":785:1063   */\n      pop\n        /* \"#utility.yul\":723:1063   */\n      swap3\n      swap2\n      pop\n      pop\n      jump\t// out\n        /* \"#utility.yul\":1069:1208   */\n    tag_236:\n        /* \"#utility.yul\":1115:1120   */\n      0x00\n        /* \"#utility.yul\":1153:1159   */\n      dup2\n        /* \"#utility.yul\":1140:1160   */\n      calldataload\n        /* \"#utility.yul\":1131:1160   */\n      swap1\n      pop\n        /* \"#utility.yul\":1169:1202   */\n      tag_238\n        /* \"#utility.yul\":1196:1201   */\n      dup2\n        /* \"#utility.yul\":1169:1202   */\n      tag_239\n      jump\t// in\n    tag_238:\n        /* \"#utility.yul\":1069:1208   */\n      swap3\n      swap2\n      pop\n      pop\n      jump\t// out\n        /* \"#utility.yul\":1214:1723   */\n    tag_24:\n        /* \"#utility.yul\":1283:1289   */\n      0x00\n        /* \"#utility.yul\":1332:1334   */\n      0x20\n        /* \"#utility.yul\":1320:1329   */\n      dup3\n        /* \"#utility.yul\":1311:1318   */\n      dup5\n        /* \"#utility.yul\":1307:1330   */\n      sub\n        /* \"#utility.yul\":1303:1335   */\n      slt\n        /* \"#utility.yul\":1300:1419   */\n      iszero\n      tag_241\n      jumpi\n        /* \"#utility.yul\":1338:1417   */\n      tag_242\n      tag_243\n      jump\t// in\n    tag_242:\n        /* \"#utility.yul\":1300:1419   */\n    tag_241:\n        /* \"#utility.yul\":1486:1487   */\n      0x00\n        /* \"#utility.yul\":1475:1484   */\n      dup3\n        /* \"#utility.yul\":1471:1488   */\n      add\n        /* \"#utility.yul\":1458:1489   */\n      calldataload\n        /* \"#utility.yul\":1516:1534   */\n      0xffffffffffffffff\n        /* \"#utility.yul\":1508:1514   */\n      dup2\n        /* \"#utility.yul\":1505:1535   */\n      gt\n        /* \"#utility.yul\":1502:1619   */\n      iszero\n      tag_244\n      jumpi\n        /* \"#utility.yul\":1538:1617   */\n      tag_245\n      tag_246\n      jump\t// in\n    tag_245:\n        /* \"#utility.yul\":1502:1619   */\n    tag_244:\n        /* \"#utility.yul\":1643:1706   */\n      tag_247\n        /* \"#utility.yul\":1698:1705   */\n      dup5\n        /* \"#utility.yul\":1689:1695   */\n      dup3\n        /* \"#utility.yul\":1678:1687   */\n      dup6\n        /* \"#utility.yul\":1674:1696   */\n      add\n        /* \"#utility.yul\":1643:1706   */\n      tag_230\n      jump\t// in\n    tag_247:\n        /* \"#utility.yul\":1633:1706   */\n      swap2\n      pop\n        /* \"#utility.yul\":1429:1716   */\n      pop\n        /* \"#utility.yul\":1214:1723   */\n      swap3\n      swap2\n      pop\n      pop\n      jump\t// out\n        /* \"#utility.yul\":1729:2383   */\n    tag_19:\n        /* \"#utility.yul\":1807:1813   */\n      0x00\n        /* \"#utility.yul\":1815:1821   */\n      dup1\n        /* \"#utility.yul\":1864:1866   */\n      0x40\n        /* \"#utility.yul\":1852:1861   */\n      dup4\n        /* \"#utility.yul\":1843:1850   */\n      dup6\n        /* \"#utility.yul\":1839:1862   */\n      sub\n        /* \"#utility.yul\":1835:1867   */\n      slt\n        /* \"#utility.yul\":1832:1951   */\n      iszero\n      tag_249\n      jumpi\n        /* \"#utility.yul\":1870:1949   */\n      tag_250\n      tag_243\n      jump\t// in\n    tag_250:\n        /* \"#utility.yul\":1832:1951   */\n    tag_249:\n        /* \"#utility.yul\":2018:2019   */\n      0x00\n        /* \"#utility.yul\":2007:2016   */\n      dup4\n        /* \"#utility.yul\":2003:2020   */\n      add\n        /* \"#utility.yul\":1990:2021   */\n      calldataload\n        /* \"#utility.yul\":2048:2066   */\n      0xffffffffffffffff\n        /* \"#utility.yul\":2040:2046   */\n      dup2\n        /* \"#utility.yul\":2037:2067   */\n      gt\n        /* \"#utility.yul\":2034:2151   */\n      iszero\n      tag_251\n      jumpi\n        /* \"#utility.yul\":2070:2149   */\n      tag_252\n      tag_246\n      jump\t// in\n    tag_252:\n        /* \"#utility.yul\":2034:2151   */\n    tag_251:\n        /* \"#utility.yul\":2175:2238   */\n      tag_253\n        /* \"#utility.yul\":2230:2237   */\n      dup6\n        /* \"#utility.yul\":2221:2227   */\n      dup3\n        /* \"#utility.yul\":2210:2219   */\n      dup7\n        /* \"#utility.yul\":2206:2228   */\n      add\n        /* \"#utility.yul\":2175:2238   */\n      tag_230\n      jump\t// in\n    tag_253:\n        /* \"#utility.yul\":2165:2238   */\n      swap3\n      pop\n        /* \"#utility.yul\":1961:2248   */\n      pop\n        /* \"#utility.yul\":2287:2289   */\n      0x20\n        /* \"#utility.yul\":2313:2366   */\n      tag_254\n        /* \"#utility.yul\":2358:2365   */\n      dup6\n        /* \"#utility.yul\":2349:2355   */\n      dup3\n        /* \"#utility.yul\":2338:2347   */\n      dup7\n        /* \"#utility.yul\":2334:2356   */\n      add\n        /* \"#utility.yul\":2313:2366   */\n      tag_222\n      jump\t// in\n    tag_254:\n        /* \"#utility.yul\":2303:2366   */\n      swap2\n      pop\n        /* \"#utility.yul\":2258:2376   */\n      pop\n        /* \"#utility.yul\":1729:2383   */\n      swap3\n      pop\n      swap3\n      swap1\n      pop\n      jump\t// out\n        /* \"#utility.yul\":2389:3037   */\n    tag_42:\n        /* \"#utility.yul\":2464:2470   */\n      0x00\n        /* \"#utility.yul\":2472:2478   */\n      dup1\n        /* \"#utility.yul\":2521:2523   */\n      0x40\n        /* \"#utility.yul\":2509:2518   */\n      dup4\n        /* \"#utility.yul\":2500:2507   */\n      dup6\n        /* \"#utility.yul\":2496:2519   */\n      sub\n        /* \"#utility.yul\":2492:2524   */\n      slt\n        /* \"#utility.yul\":2489:2608   */\n      iszero\n      tag_256\n      jumpi\n        /* \"#utility.yul\":2527:2606   */\n      tag_257\n      tag_243\n      jump\t// in\n    tag_257:\n        /* \"#utility.yul\":2489:2608   */\n    tag_256:\n        /* \"#utility.yul\":2675:2676   */\n      0x00\n        /* \"#utility.yul\":2664:2673   */\n      dup4\n        /* \"#utility.yul\":2660:2677   */\n      add\n        /* \"#utility.yul\":2647:2678   */\n      calldataload\n        /* \"#utility.yul\":2705:2723   */\n      0xffffffffffffffff\n        /* \"#utility.yul\":2697:2703   */\n      dup2\n        /* \"#utility.yul\":2694:2724   */\n      gt\n        /* \"#utility.yul\":2691:2808   */\n      iszero\n      tag_258\n      jumpi\n        /* \"#utility.yul\":2727:2806   */\n      tag_259\n      tag_246\n      jump\t// in\n    tag_259:\n        /* \"#utility.yul\":2691:2808   */\n    tag_258:\n        /* \"#utility.yul\":2832:2895   */\n      tag_260\n        /* \"#utility.yul\":2887:2894   */\n      dup6\n        /* \"#utility.yul\":2878:2884   */\n      dup3\n        /* \"#utility.yul\":2867:2876   */\n      dup7\n        /* \"#utility.yul\":2863:2885   */\n      add\n        /* \"#utility.yul\":2832:2895   */\n      tag_230\n      jump\t// in\n    tag_260:\n        /* \"#utility.yul\":2822:2895   */\n      swap3\n      pop\n        /* \"#utility.yul\":2618:2905   */\n      pop\n        /* \"#utility.yul\":2944:2946   */\n      0x20\n        /* \"#utility.yul\":2970:3020   */\n      tag_261\n        /* \"#utility.yul\":3012:3019   */\n      dup6\n        /* \"#utility.yul\":3003:3009   */\n      dup3\n        /* \"#utility.yul\":2992:3001   */\n      dup7\n        /* \"#utility.yul\":2988:3010   */\n      add\n        /* \"#utility.yul\":2970:3020   */\n      tag_226\n      jump\t// in\n    tag_261:\n        /* \"#utility.yul\":2960:3020   */\n      swap2\n      pop\n        /* \"#utility.yul\":2915:3030   */\n      pop\n        /* \"#utility.yul\":2389:3037   */\n      swap3\n      pop\n      swap3\n      swap1\n      pop\n      jump\t// out\n        /* \"#utility.yul\":3043:3372   */\n    tag_50:\n        /* \"#utility.yul\":3102:3108   */\n      0x00\n        /* \"#utility.yul\":3151:3153   */\n      0x20\n        /* \"#utility.yul\":3139:3148   */\n      dup3\n        /* \"#utility.yul\":3130:3137   */\n      dup5\n        /* \"#utility.yul\":3126:3149   */\n      sub\n        /* \"#utility.yul\":3122:3154   */\n      slt\n        /* \"#utility.yul\":3119:3238   */\n      iszero\n      tag_263\n      jumpi\n        /* \"#utility.yul\":3157:3236   */\n      tag_264\n      tag_243\n      jump\t// in\n    tag_264:\n        /* \"#utility.yul\":3119:3238   */\n    tag_263:\n        /* \"#utility.yul\":3277:3278   */\n      0x00\n        /* \"#utility.yul\":3302:3355   */\n      tag_265\n        /* \"#utility.yul\":3347:3354   */\n      dup5\n        /* \"#utility.yul\":3338:3344   */\n      dup3\n        /* \"#utility.yul\":3327:3336   */\n      dup6\n        /* \"#utility.yul\":3323:3345   */\n      add\n        /* \"#utility.yul\":3302:3355   */\n      tag_236\n      jump\t// in\n    tag_265:\n        /* \"#utility.yul\":3292:3355   */\n      swap2\n      pop\n        /* \"#utility.yul\":3248:3365   */\n      pop\n        /* \"#utility.yul\":3043:3372   */\n      swap3\n      swap2\n      pop\n      pop\n      jump\t// out\n        /* \"#utility.yul\":3378:3610   */\n    tag_266:\n        /* \"#utility.yul\":3485:3495   */\n      0x00\n        /* \"#utility.yul\":3520:3604   */\n      tag_268\n        /* \"#utility.yul\":3600:3603   */\n      dup4\n        /* \"#utility.yul\":3592:3598   */\n      dup4\n        /* \"#utility.yul\":3520:3604   */\n      tag_269\n      jump\t// in\n    tag_268:\n        /* \"#utility.yul\":3506:3604   */\n      swap1\n      pop\n        /* \"#utility.yul\":3378:3610   */\n      swap3\n      swap2\n      pop\n      pop\n      jump\t// out\n        /* \"#utility.yul\":3616:3724   */\n    tag_270:\n        /* \"#utility.yul\":3693:3717   */\n      tag_272\n        /* \"#utility.yul\":3711:3716   */\n      dup2\n        /* \"#utility.yul\":3693:3717   */\n      tag_273\n      jump\t// in\n    tag_272:\n        /* \"#utility.yul\":3688:3691   */\n      dup3\n        /* \"#utility.yul\":3681:3718   */\n      mstore\n        /* \"#utility.yul\":3616:3724   */\n      pop\n      pop\n      jump\t// out\n        /* \"#utility.yul\":3730:3848   */\n    tag_274:\n        /* \"#utility.yul\":3817:3841   */\n      tag_276\n        /* \"#utility.yul\":3835:3840   */\n      dup2\n        /* \"#utility.yul\":3817:3841   */\n      tag_273\n      jump\t// in\n    tag_276:\n        /* \"#utility.yul\":3812:3815   */\n      dup3\n        /* \"#utility.yul\":3805:3842   */\n      mstore\n        /* \"#utility.yul\":3730:3848   */\n      pop\n      pop\n      jump\t// out\n        /* \"#utility.yul\":3904:4967   */\n    tag_277:\n        /* \"#utility.yul\":4061:4064   */\n      0x00\n        /* \"#utility.yul\":4090:4163   */\n      tag_279\n        /* \"#utility.yul\":4157:4162   */\n      dup3\n        /* \"#utility.yul\":4090:4163   */\n      tag_280\n      jump\t// in\n    tag_279:\n        /* \"#utility.yul\":4179:4284   */\n      tag_281\n        /* \"#utility.yul\":4277:4283   */\n      dup2\n        /* \"#utility.yul\":4272:4275   */\n      dup6\n        /* \"#utility.yul\":4179:4284   */\n      tag_282\n      jump\t// in\n    tag_281:\n        /* \"#utility.yul\":4172:4284   */\n      swap4\n      pop\n        /* \"#utility.yul\":4310:4313   */\n      dup4\n        /* \"#utility.yul\":4355:4359   */\n      0x20\n        /* \"#utility.yul\":4347:4353   */\n      dup3\n        /* \"#utility.yul\":4343:4360   */\n      mul\n        /* \"#utility.yul\":4338:4341   */\n      dup6\n        /* \"#utility.yul\":4334:4361   */\n      add\n        /* \"#utility.yul\":4385:4460   */\n      tag_283\n        /* \"#utility.yul\":4454:4459   */\n      dup6\n        /* \"#utility.yul\":4385:4460   */\n      tag_284\n      jump\t// in\n    tag_283:\n        /* \"#utility.yul\":4483:4490   */\n      dup1\n        /* \"#utility.yul\":4514:4515   */\n      0x00\n        /* \"#utility.yul\":4499:4922   */\n    tag_285:\n        /* \"#utility.yul\":4524:4530   */\n      dup6\n        /* \"#utility.yul\":4521:4522   */\n      dup2\n        /* \"#utility.yul\":4518:4531   */\n      lt\n        /* \"#utility.yul\":4499:4922   */\n      iszero\n      tag_287\n      jumpi\n        /* \"#utility.yul\":4595:4604   */\n      dup5\n        /* \"#utility.yul\":4589:4593   */\n      dup5\n        /* \"#utility.yul\":4585:4605   */\n      sub\n        /* \"#utility.yul\":4580:4583   */\n      dup10\n        /* \"#utility.yul\":4573:4606   */\n      mstore\n        /* \"#utility.yul\":4646:4652   */\n      dup2\n        /* \"#utility.yul\":4640:4653   */\n      mload\n        /* \"#utility.yul\":4674:4776   */\n      tag_288\n        /* \"#utility.yul\":4771:4775   */\n      dup6\n        /* \"#utility.yul\":4756:4769   */\n      dup3\n        /* \"#utility.yul\":4674:4776   */\n      tag_266\n      jump\t// in\n    tag_288:\n        /* \"#utility.yul\":4666:4776   */\n      swap5\n      pop\n        /* \"#utility.yul\":4799:4878   */\n      tag_289\n        /* \"#utility.yul\":4871:4877   */\n      dup4\n        /* \"#utility.yul\":4799:4878   */\n      tag_290\n      jump\t// in\n    tag_289:\n        /* \"#utility.yul\":4789:4878   */\n      swap3\n      pop\n        /* \"#utility.yul\":4907:4911   */\n      0x20\n        /* \"#utility.yul\":4902:4905   */\n      dup11\n        /* \"#utility.yul\":4898:4912   */\n      add\n        /* \"#utility.yul\":4891:4912   */\n      swap10\n      pop\n        /* \"#utility.yul\":4559:4922   */\n      pop\n        /* \"#utility.yul\":4546:4547   */\n      0x01\n        /* \"#utility.yul\":4543:4544   */\n      dup2\n        /* \"#utility.yul\":4539:4548   */\n      add\n        /* \"#utility.yul\":4534:4548   */\n      swap1\n      pop\n        /* \"#utility.yul\":4499:4922   */\n      jump(tag_285)\n    tag_287:\n        /* \"#utility.yul\":4503:4517   */\n      pop\n        /* \"#utility.yul\":4938:4942   */\n      dup3\n        /* \"#utility.yul\":4931:4942   */\n      swap8\n      pop\n        /* \"#utility.yul\":4958:4961   */\n      dup8\n        /* \"#utility.yul\":4951:4961   */\n      swap6\n      pop\n        /* \"#utility.yul\":4066:4967   */\n      pop\n      pop\n      pop\n      pop\n      pop\n        /* \"#utility.yul\":3904:4967   */\n      swap3\n      swap2\n      pop\n      pop\n      jump\t// out\n        /* \"#utility.yul\":4973:5072   */\n    tag_291:\n        /* \"#utility.yul\":5044:5065   */\n      tag_293\n        /* \"#utility.yul\":5059:5064   */\n      dup2\n        /* \"#utility.yul\":5044:5065   */\n      tag_294\n      jump\t// in\n    tag_293:\n        /* \"#utility.yul\":5039:5042   */\n      dup3\n        /* \"#utility.yul\":5032:5066   */\n      mstore\n        /* \"#utility.yul\":4973:5072   */\n      pop\n      pop\n      jump\t// out\n        /* \"#utility.yul\":5078:5187   */\n    tag_295:\n        /* \"#utility.yul\":5159:5180   */\n      tag_297\n        /* \"#utility.yul\":5174:5179   */\n      dup2\n        /* \"#utility.yul\":5159:5180   */\n      tag_294\n      jump\t// in\n    tag_297:\n        /* \"#utility.yul\":5154:5157   */\n      dup3\n        /* \"#utility.yul\":5147:5181   */\n      mstore\n        /* \"#utility.yul\":5078:5187   */\n      pop\n      pop\n      jump\t// out\n        /* \"#utility.yul\":5193:5537   */\n    tag_298:\n        /* \"#utility.yul\":5271:5274   */\n      0x00\n        /* \"#utility.yul\":5299:5338   */\n      tag_300\n        /* \"#utility.yul\":5332:5337   */\n      dup3\n        /* \"#utility.yul\":5299:5338   */\n      tag_301\n      jump\t// in\n    tag_300:\n        /* \"#utility.yul\":5354:5415   */\n      tag_302\n        /* \"#utility.yul\":5408:5414   */\n      dup2\n        /* \"#utility.yul\":5403:5406   */\n      dup6\n        /* \"#utility.yul\":5354:5415   */\n      tag_303\n      jump\t// in\n    tag_302:\n        /* \"#utility.yul\":5347:5415   */\n      swap4\n      pop\n        /* \"#utility.yul\":5424:5476   */\n      tag_304\n        /* \"#utility.yul\":5469:5475   */\n      dup2\n        /* \"#utility.yul\":5464:5467   */\n      dup6\n        /* \"#utility.yul\":5457:5461   */\n      0x20\n        /* \"#utility.yul\":5450:5455   */\n      dup7\n        /* \"#utility.yul\":5446:5462   */\n      add\n        /* \"#utility.yul\":5424:5476   */\n      tag_305\n      jump\t// in\n    tag_304:\n        /* \"#utility.yul\":5501:5530   */\n      tag_306\n        /* \"#utility.yul\":5523:5529   */\n      dup2\n        /* \"#utility.yul\":5501:5530   */\n      tag_307\n      jump\t// in\n    tag_306:\n        /* \"#utility.yul\":5496:5499   */\n      dup5\n        /* \"#utility.yul\":5492:5531   */\n      add\n        /* \"#utility.yul\":5485:5531   */\n      swap2\n      pop\n        /* \"#utility.yul\":5275:5537   */\n      pop\n        /* \"#utility.yul\":5193:5537   */\n      swap3\n      swap2\n      pop\n      pop\n      jump\t// out\n        /* \"#utility.yul\":5543:5907   */\n    tag_308:\n        /* \"#utility.yul\":5631:5634   */\n      0x00\n        /* \"#utility.yul\":5659:5698   */\n      tag_310\n        /* \"#utility.yul\":5692:5697   */\n      dup3\n        /* \"#utility.yul\":5659:5698   */\n      tag_301\n      jump\t// in\n    tag_310:\n        /* \"#utility.yul\":5714:5785   */\n      tag_311\n        /* \"#utility.yul\":5778:5784   */\n      dup2\n        /* \"#utility.yul\":5773:5776   */\n      dup6\n        /* \"#utility.yul\":5714:5785   */\n      tag_312\n      jump\t// in\n    tag_311:\n        /* \"#utility.yul\":5707:5785   */\n      swap4\n      pop\n        /* \"#utility.yul\":5794:5846   */\n      tag_313\n        /* \"#utility.yul\":5839:5845   */\n      dup2\n        /* \"#utility.yul\":5834:5837   */\n      dup6\n        /* \"#utility.yul\":5827:5831   */\n      0x20\n        /* \"#utility.yul\":5820:5825   */\n      dup7\n        /* \"#utility.yul\":5816:5832   */\n      add\n        /* \"#utility.yul\":5794:5846   */\n      tag_305\n      jump\t// in\n    tag_313:\n        /* \"#utility.yul\":5871:5900   */\n      tag_314\n        /* \"#utility.yul\":5893:5899   */\n      dup2\n        /* \"#utility.yul\":5871:5900   */\n      tag_307\n      jump\t// in\n    tag_314:\n        /* \"#utility.yul\":5866:5869   */\n      dup5\n        /* \"#utility.yul\":5862:5901   */\n      add\n        /* \"#utility.yul\":5855:5901   */\n      swap2\n      pop\n        /* \"#utility.yul\":5635:5907   */\n      pop\n        /* \"#utility.yul\":5543:5907   */\n      swap3\n      swap2\n      pop\n      pop\n      jump\t// out\n        /* \"#utility.yul\":5913:6290   */\n    tag_315:\n        /* \"#utility.yul\":6019:6022   */\n      0x00\n        /* \"#utility.yul\":6047:6086   */\n      tag_317\n        /* \"#utility.yul\":6080:6085   */\n      dup3\n        /* \"#utility.yul\":6047:6086   */\n      tag_301\n      jump\t// in\n    tag_317:\n        /* \"#utility.yul\":6102:6191   */\n      tag_318\n        /* \"#utility.yul\":6184:6190   */\n      dup2\n        /* \"#utility.yul\":6179:6182   */\n      dup6\n        /* \"#utility.yul\":6102:6191   */\n      tag_319\n      jump\t// in\n    tag_318:\n        /* \"#utility.yul\":6095:6191   */\n      swap4\n      pop\n        /* \"#utility.yul\":6200:6252   */\n      tag_320\n        /* \"#utility.yul\":6245:6251   */\n      dup2\n        /* \"#utility.yul\":6240:6243   */\n      dup6\n        /* \"#utility.yul\":6233:6237   */\n      0x20\n        /* \"#utility.yul\":6226:6231   */\n      dup7\n        /* \"#utility.yul\":6222:6238   */\n      add\n        /* \"#utility.yul\":6200:6252   */\n      tag_305\n      jump\t// in\n    tag_320:\n        /* \"#utility.yul\":6277:6283   */\n      dup1\n        /* \"#utility.yul\":6272:6275   */\n      dup5\n        /* \"#utility.yul\":6268:6284   */\n      add\n        /* \"#utility.yul\":6261:6284   */\n      swap2\n      pop\n        /* \"#utility.yul\":6023:6290   */\n      pop\n        /* \"#utility.yul\":5913:6290   */\n      swap3\n      swap2\n      pop\n      pop\n      jump\t// out\n        /* \"#utility.yul\":6296:6662   */\n    tag_321:\n        /* \"#utility.yul\":6438:6441   */\n      0x00\n        /* \"#utility.yul\":6459:6526   */\n      tag_323\n        /* \"#utility.yul\":6523:6525   */\n      0x0e\n        /* \"#utility.yul\":6518:6521   */\n      dup4\n        /* \"#utility.yul\":6459:6526   */\n      tag_312\n      jump\t// in\n    tag_323:\n        /* \"#utility.yul\":6452:6526   */\n      swap2\n      pop\n        /* \"#utility.yul\":6535:6628   */\n      tag_324\n        /* \"#utility.yul\":6624:6627   */\n      dup3\n        /* \"#utility.yul\":6535:6628   */\n      tag_325\n      jump\t// in\n    tag_324:\n        /* \"#utility.yul\":6653:6655   */\n      0x20\n        /* \"#utility.yul\":6648:6651   */\n      dup3\n        /* \"#utility.yul\":6644:6656   */\n      add\n        /* \"#utility.yul\":6637:6656   */\n      swap1\n      pop\n        /* \"#utility.yul\":6296:6662   */\n      swap2\n      swap1\n      pop\n      jump\t// out\n        /* \"#utility.yul\":6714:7479   */\n    tag_269:\n        /* \"#utility.yul\":6811:6814   */\n      0x00\n        /* \"#utility.yul\":6847:6851   */\n      0x60\n        /* \"#utility.yul\":6842:6845   */\n      dup4\n        /* \"#utility.yul\":6838:6852   */\n      add\n        /* \"#utility.yul\":6935:6939   */\n      0x00\n        /* \"#utility.yul\":6928:6933   */\n      dup4\n        /* \"#utility.yul\":6924:6940   */\n      add\n        /* \"#utility.yul\":6918:6941   */\n      mload\n        /* \"#utility.yul\":6988:6991   */\n      dup5\n        /* \"#utility.yul\":6982:6986   */\n      dup3\n        /* \"#utility.yul\":6978:6992   */\n      sub\n        /* \"#utility.yul\":6971:6975   */\n      0x00\n        /* \"#utility.yul\":6966:6969   */\n      dup7\n        /* \"#utility.yul\":6962:6976   */\n      add\n        /* \"#utility.yul\":6955:6993   */\n      mstore\n        /* \"#utility.yul\":7014:7087   */\n      tag_327\n        /* \"#utility.yul\":7082:7086   */\n      dup3\n        /* \"#utility.yul\":7068:7080   */\n      dup3\n        /* \"#utility.yul\":7014:7087   */\n      tag_298\n      jump\t// in\n    tag_327:\n        /* \"#utility.yul\":7006:7087   */\n      swap2\n      pop\n        /* \"#utility.yul\":6862:7098   */\n      pop\n        /* \"#utility.yul\":7188:7192   */\n      0x20\n        /* \"#utility.yul\":7181:7186   */\n      dup4\n        /* \"#utility.yul\":7177:7193   */\n      add\n        /* \"#utility.yul\":7171:7194   */\n      mload\n        /* \"#utility.yul\":7207:7270   */\n      tag_328\n        /* \"#utility.yul\":7264:7268   */\n      0x20\n        /* \"#utility.yul\":7259:7262   */\n      dup7\n        /* \"#utility.yul\":7255:7269   */\n      add\n        /* \"#utility.yul\":7241:7253   */\n      dup3\n        /* \"#utility.yul\":7207:7270   */\n      tag_270\n      jump\t// in\n    tag_328:\n        /* \"#utility.yul\":7108:7280   */\n      pop\n        /* \"#utility.yul\":7366:7370   */\n      0x40\n        /* \"#utility.yul\":7359:7364   */\n      dup4\n        /* \"#utility.yul\":7355:7371   */\n      add\n        /* \"#utility.yul\":7349:7372   */\n      mload\n        /* \"#utility.yul\":7385:7442   */\n      tag_329\n        /* \"#utility.yul\":7436:7440   */\n      0x40\n        /* \"#utility.yul\":7431:7434   */\n      dup7\n        /* \"#utility.yul\":7427:7441   */\n      add\n        /* \"#utility.yul\":7413:7425   */\n      dup3\n        /* \"#utility.yul\":7385:7442   */\n      tag_291\n      jump\t// in\n    tag_329:\n        /* \"#utility.yul\":7290:7452   */\n      pop\n        /* \"#utility.yul\":7469:7473   */\n      dup1\n        /* \"#utility.yul\":7462:7473   */\n      swap2\n      pop\n        /* \"#utility.yul\":6816:7479   */\n      pop\n        /* \"#utility.yul\":6714:7479   */\n      swap3\n      swap2\n      pop\n      pop\n      jump\t// out\n        /* \"#utility.yul\":7485:7603   */\n    tag_330:\n        /* \"#utility.yul\":7572:7596   */\n      tag_332\n        /* \"#utility.yul\":7590:7595   */\n      dup2\n        /* \"#utility.yul\":7572:7596   */\n      tag_333\n      jump\t// in\n    tag_332:\n        /* \"#utility.yul\":7567:7570   */\n      dup3\n        /* \"#utility.yul\":7560:7597   */\n      mstore\n        /* \"#utility.yul\":7485:7603   */\n      pop\n      pop\n      jump\t// out\n        /* \"#utility.yul\":7609:7884   */\n    tag_187:\n        /* \"#utility.yul\":7741:7744   */\n      0x00\n        /* \"#utility.yul\":7763:7858   */\n      tag_335\n        /* \"#utility.yul\":7854:7857   */\n      dup3\n        /* \"#utility.yul\":7845:7851   */\n      dup5\n        /* \"#utility.yul\":7763:7858   */\n      tag_315\n      jump\t// in\n    tag_335:\n        /* \"#utility.yul\":7756:7858   */\n      swap2\n      pop\n        /* \"#utility.yul\":7875:7878   */\n      dup2\n        /* \"#utility.yul\":7868:7878   */\n      swap1\n      pop\n        /* \"#utility.yul\":7609:7884   */\n      swap3\n      swap2\n      pop\n      pop\n      jump\t// out\n        /* \"#utility.yul\":7890:8339   */\n    tag_36:\n        /* \"#utility.yul\":8071:8075   */\n      0x00\n        /* \"#utility.yul\":8109:8111   */\n      0x20\n        /* \"#utility.yul\":8098:8107   */\n      dup3\n        /* \"#utility.yul\":8094:8112   */\n      add\n        /* \"#utility.yul\":8086:8112   */\n      swap1\n      pop\n        /* \"#utility.yul\":8158:8167   */\n      dup2\n        /* \"#utility.yul\":8152:8156   */\n      dup2\n        /* \"#utility.yul\":8148:8168   */\n      sub\n        /* \"#utility.yul\":8144:8145   */\n      0x00\n        /* \"#utility.yul\":8133:8142   */\n      dup4\n        /* \"#utility.yul\":8129:8146   */\n      add\n        /* \"#utility.yul\":8122:8169   */\n      mstore\n        /* \"#utility.yul\":8186:8332   */\n      tag_337\n        /* \"#utility.yul\":8327:8331   */\n      dup2\n        /* \"#utility.yul\":8318:8324   */\n      dup5\n        /* \"#utility.yul\":8186:8332   */\n      tag_277\n      jump\t// in\n    tag_337:\n        /* \"#utility.yul\":8178:8332   */\n      swap1\n      pop\n        /* \"#utility.yul\":7890:8339   */\n      swap3\n      swap2\n      pop\n      pop\n      jump\t// out\n        /* \"#utility.yul\":8345:8555   */\n    tag_27:\n        /* \"#utility.yul\":8432:8436   */\n      0x00\n        /* \"#utility.yul\":8470:8472   */\n      0x20\n        /* \"#utility.yul\":8459:8468   */\n      dup3\n        /* \"#utility.yul\":8455:8473   */\n      add\n        /* \"#utility.yul\":8447:8473   */\n      swap1\n      pop\n        /* \"#utility.yul\":8483:8548   */\n      tag_339\n        /* \"#utility.yul\":8545:8546   */\n      0x00\n        /* \"#utility.yul\":8534:8543   */\n      dup4\n        /* \"#utility.yul\":8530:8547   */\n      add\n        /* \"#utility.yul\":8521:8527   */\n      dup5\n        /* \"#utility.yul\":8483:8548   */\n      tag_295\n      jump\t// in\n    tag_339:\n        /* \"#utility.yul\":8345:8555   */\n      swap3\n      swap2\n      pop\n      pop\n      jump\t// out\n        /* \"#utility.yul\":8561:9082   */\n    tag_32:\n        /* \"#utility.yul\":8724:8728   */\n      0x00\n        /* \"#utility.yul\":8762:8764   */\n      0x60\n        /* \"#utility.yul\":8751:8760   */\n      dup3\n        /* \"#utility.yul\":8747:8765   */\n      add\n        /* \"#utility.yul\":8739:8765   */\n      swap1\n      pop\n        /* \"#utility.yul\":8811:8820   */\n      dup2\n        /* \"#utility.yul\":8805:8809   */\n      dup2\n        /* \"#utility.yul\":8801:8821   */\n      sub\n        /* \"#utility.yul\":8797:8798   */\n      0x00\n        /* \"#utility.yul\":8786:8795   */\n      dup4\n        /* \"#utility.yul\":8782:8799   */\n      add\n        /* \"#utility.yul\":8775:8822   */\n      mstore\n        /* \"#utility.yul\":8839:8917   */\n      tag_341\n        /* \"#utility.yul\":8912:8916   */\n      dup2\n        /* \"#utility.yul\":8903:8909   */\n      dup7\n        /* \"#utility.yul\":8839:8917   */\n      tag_308\n      jump\t// in\n    tag_341:\n        /* \"#utility.yul\":8831:8917   */\n      swap1\n      pop\n        /* \"#utility.yul\":8927:8999   */\n      tag_342\n        /* \"#utility.yul\":8995:8997   */\n      0x20\n        /* \"#utility.yul\":8984:8993   */\n      dup4\n        /* \"#utility.yul\":8980:8998   */\n      add\n        /* \"#utility.yul\":8971:8977   */\n      dup6\n        /* \"#utility.yul\":8927:8999   */\n      tag_274\n      jump\t// in\n    tag_342:\n        /* \"#utility.yul\":9009:9075   */\n      tag_343\n        /* \"#utility.yul\":9071:9073   */\n      0x40\n        /* \"#utility.yul\":9060:9069   */\n      dup4\n        /* \"#utility.yul\":9056:9074   */\n      add\n        /* \"#utility.yul\":9047:9053   */\n      dup5\n        /* \"#utility.yul\":9009:9075   */\n      tag_295\n      jump\t// in\n    tag_343:\n        /* \"#utility.yul\":8561:9082   */\n      swap5\n      swap4\n      pop\n      pop\n      pop\n      pop\n      jump\t// out\n        /* \"#utility.yul\":9088:9507   */\n    tag_127:\n        /* \"#utility.yul\":9254:9258   */\n      0x00\n        /* \"#utility.yul\":9292:9294   */\n      0x20\n        /* \"#utility.yul\":9281:9290   */\n      dup3\n        /* \"#utility.yul\":9277:9295   */\n      add\n        /* \"#utility.yul\":9269:9295   */\n      swap1\n      pop\n        /* \"#utility.yul\":9341:9350   */\n      dup2\n        /* \"#utility.yul\":9335:9339   */\n      dup2\n        /* \"#utility.yul\":9331:9351   */\n      sub\n        /* \"#utility.yul\":9327:9328   */\n      0x00\n        /* \"#utility.yul\":9316:9325   */\n      dup4\n        /* \"#utility.yul\":9312:9329   */\n      add\n        /* \"#utility.yul\":9305:9352   */\n      mstore\n        /* \"#utility.yul\":9369:9500   */\n      tag_345\n        /* \"#utility.yul\":9495:9499   */\n      dup2\n        /* \"#utility.yul\":9369:9500   */\n      tag_321\n      jump\t// in\n    tag_345:\n        /* \"#utility.yul\":9361:9500   */\n      swap1\n      pop\n        /* \"#utility.yul\":9088:9507   */\n      swap2\n      swap1\n      pop\n      jump\t// out\n        /* \"#utility.yul\":9513:9735   */\n    tag_16:\n        /* \"#utility.yul\":9606:9610   */\n      0x00\n        /* \"#utility.yul\":9644:9646   */\n      0x20\n        /* \"#utility.yul\":9633:9642   */\n      dup3\n        /* \"#utility.yul\":9629:9647   */\n      add\n        /* \"#utility.yul\":9621:9647   */\n      swap1\n      pop\n        /* \"#utility.yul\":9657:9728   */\n      tag_347\n        /* \"#utility.yul\":9725:9726   */\n      0x00\n        /* \"#utility.yul\":9714:9723   */\n      dup4\n        /* \"#utility.yul\":9710:9727   */\n      add\n        /* \"#utility.yul\":9701:9707   */\n      dup5\n        /* \"#utility.yul\":9657:9728   */\n      tag_330\n      jump\t// in\n    tag_347:\n        /* \"#utility.yul\":9513:9735   */\n      swap3\n      swap2\n      pop\n      pop\n      jump\t// out\n        /* \"#utility.yul\":9741:9870   */\n    tag_216:\n        /* \"#utility.yul\":9775:9781   */\n      0x00\n        /* \"#utility.yul\":9802:9822   */\n      tag_349\n      tag_350\n      jump\t// in\n    tag_349:\n        /* \"#utility.yul\":9792:9822   */\n      swap1\n      pop\n        /* \"#utility.yul\":9831:9864   */\n      tag_351\n        /* \"#utility.yul\":9859:9863   */\n      dup3\n        /* \"#utility.yul\":9851:9857   */\n      dup3\n        /* \"#utility.yul\":9831:9864   */\n      tag_352\n      jump\t// in\n    tag_351:\n        /* \"#utility.yul\":9741:9870   */\n      swap2\n      swap1\n      pop\n      jump\t// out\n        /* \"#utility.yul\":9876:9951   */\n    tag_350:\n        /* \"#utility.yul\":9909:9915   */\n      0x00\n        /* \"#utility.yul\":9942:9944   */\n      0x40\n        /* \"#utility.yul\":9936:9945   */\n      mload\n        /* \"#utility.yul\":9926:9945   */\n      swap1\n      pop\n        /* \"#utility.yul\":9876:9951   */\n      swap1\n      jump\t// out\n        /* \"#utility.yul\":9957:10265   */\n    tag_215:\n        /* \"#utility.yul\":10019:10023   */\n      0x00\n        /* \"#utility.yul\":10109:10127   */\n      0xffffffffffffffff\n        /* \"#utility.yul\":10101:10107   */\n      dup3\n        /* \"#utility.yul\":10098:10128   */\n      gt\n        /* \"#utility.yul\":10095:10151   */\n      iszero\n      tag_355\n      jumpi\n        /* \"#utility.yul\":10131:10149   */\n      tag_356\n      tag_131\n      jump\t// in\n    tag_356:\n        /* \"#utility.yul\":10095:10151   */\n    tag_355:\n        /* \"#utility.yul\":10169:10198   */\n      tag_357\n        /* \"#utility.yul\":10191:10197   */\n      dup3\n        /* \"#utility.yul\":10169:10198   */\n      tag_307\n      jump\t// in\n    tag_357:\n        /* \"#utility.yul\":10161:10198   */\n      swap1\n      pop\n        /* \"#utility.yul\":10253:10257   */\n      0x20\n        /* \"#utility.yul\":10247:10251   */\n      dup2\n        /* \"#utility.yul\":10243:10258   */\n      add\n        /* \"#utility.yul\":10235:10258   */\n      swap1\n      pop\n        /* \"#utility.yul\":9957:10265   */\n      swap2\n      swap1\n      pop\n      jump\t// out\n        /* \"#utility.yul\":10271:10422   */\n    tag_284:\n        /* \"#utility.yul\":10357:10361   */\n      0x00\n        /* \"#utility.yul\":10380:10383   */\n      dup2\n        /* \"#utility.yul\":10372:10383   */\n      swap1\n      pop\n        /* \"#utility.yul\":10410:10414   */\n      0x20\n        /* \"#utility.yul\":10405:10408   */\n      dup3\n        /* \"#utility.yul\":10401:10415   */\n      add\n        /* \"#utility.yul\":10393:10415   */\n      swap1\n      pop\n        /* \"#utility.yul\":10271:10422   */\n      swap2\n      swap1\n      pop\n      jump\t// out\n        /* \"#utility.yul\":10428:10561   */\n    tag_280:\n        /* \"#utility.yul\":10514:10520   */\n      0x00\n        /* \"#utility.yul\":10548:10553   */\n      dup2\n        /* \"#utility.yul\":10542:10554   */\n      mload\n        /* \"#utility.yul\":10532:10554   */\n      swap1\n      pop\n        /* \"#utility.yul\":10428:10561   */\n      swap2\n      swap1\n      pop\n      jump\t// out\n        /* \"#utility.yul\":10567:10666   */\n    tag_301:\n        /* \"#utility.yul\":10619:10625   */\n      0x00\n        /* \"#utility.yul\":10653:10658   */\n      dup2\n        /* \"#utility.yul\":10647:10659   */\n      mload\n        /* \"#utility.yul\":10637:10659   */\n      swap1\n      pop\n        /* \"#utility.yul\":10567:10666   */\n      swap2\n      swap1\n      pop\n      jump\t// out\n        /* \"#utility.yul\":10672:10804   */\n    tag_290:\n        /* \"#utility.yul\":10761:10765   */\n      0x00\n        /* \"#utility.yul\":10793:10797   */\n      0x20\n        /* \"#utility.yul\":10788:10791   */\n      dup3\n        /* \"#utility.yul\":10784:10798   */\n      add\n        /* \"#utility.yul\":10776:10798   */\n      swap1\n      pop\n        /* \"#utility.yul\":10672:10804   */\n      swap2\n      swap1\n      pop\n      jump\t// out\n        /* \"#utility.yul\":10810:11013   */\n    tag_282:\n        /* \"#utility.yul\":10928:10939   */\n      0x00\n        /* \"#utility.yul\":10962:10968   */\n      dup3\n        /* \"#utility.yul\":10957:10960   */\n      dup3\n        /* \"#utility.yul\":10950:10969   */\n      mstore\n        /* \"#utility.yul\":11002:11006   */\n      0x20\n        /* \"#utility.yul\":10997:11000   */\n      dup3\n        /* \"#utility.yul\":10993:11007   */\n      add\n        /* \"#utility.yul\":10978:11007   */\n      swap1\n      pop\n        /* \"#utility.yul\":10810:11013   */\n      swap3\n      swap2\n      pop\n      pop\n      jump\t// out\n        /* \"#utility.yul\":11019:11178   */\n    tag_303:\n        /* \"#utility.yul\":11093:11104   */\n      0x00\n        /* \"#utility.yul\":11127:11133   */\n      dup3\n        /* \"#utility.yul\":11122:11125   */\n      dup3\n        /* \"#utility.yul\":11115:11134   */\n      mstore\n        /* \"#utility.yul\":11167:11171   */\n      0x20\n        /* \"#utility.yul\":11162:11165   */\n      dup3\n        /* \"#utility.yul\":11158:11172   */\n      add\n        /* \"#utility.yul\":11143:11172   */\n      swap1\n      pop\n        /* \"#utility.yul\":11019:11178   */\n      swap3\n      swap2\n      pop\n      pop\n      jump\t// out\n        /* \"#utility.yul\":11184:11353   */\n    tag_312:\n        /* \"#utility.yul\":11268:11279   */\n      0x00\n        /* \"#utility.yul\":11302:11308   */\n      dup3\n        /* \"#utility.yul\":11297:11300   */\n      dup3\n        /* \"#utility.yul\":11290:11309   */\n      mstore\n        /* \"#utility.yul\":11342:11346   */\n      0x20\n        /* \"#utility.yul\":11337:11340   */\n      dup3\n        /* \"#utility.yul\":11333:11347   */\n      add\n        /* \"#utility.yul\":11318:11347   */\n      swap1\n      pop\n        /* \"#utility.yul\":11184:11353   */\n      swap3\n      swap2\n      pop\n      pop\n      jump\t// out\n        /* \"#utility.yul\":11359:11507   */\n    tag_319:\n        /* \"#utility.yul\":11461:11472   */\n      0x00\n        /* \"#utility.yul\":11498:11501   */\n      dup2\n        /* \"#utility.yul\":11483:11501   */\n      swap1\n      pop\n        /* \"#utility.yul\":11359:11507   */\n      swap3\n      swap2\n      pop\n      pop\n      jump\t// out\n        /* \"#utility.yul\":11513:11704   */\n    tag_78:\n        /* \"#utility.yul\":11553:11557   */\n      0x00\n        /* \"#utility.yul\":11573:11593   */\n      tag_367\n        /* \"#utility.yul\":11591:11592   */\n      dup3\n        /* \"#utility.yul\":11573:11593   */\n      tag_333\n      jump\t// in\n    tag_367:\n        /* \"#utility.yul\":11568:11593   */\n      swap2\n      pop\n        /* \"#utility.yul\":11607:11627   */\n      tag_368\n        /* \"#utility.yul\":11625:11626   */\n      dup4\n        /* \"#utility.yul\":11607:11627   */\n      tag_333\n      jump\t// in\n    tag_368:\n        /* \"#utility.yul\":11602:11627   */\n      swap3\n      pop\n        /* \"#utility.yul\":11646:11647   */\n      dup3\n        /* \"#utility.yul\":11643:11644   */\n      dup3\n        /* \"#utility.yul\":11640:11648   */\n      lt\n        /* \"#utility.yul\":11637:11671   */\n      iszero\n      tag_369\n      jumpi\n        /* \"#utility.yul\":11651:11669   */\n      tag_370\n      tag_371\n      jump\t// in\n    tag_370:\n        /* \"#utility.yul\":11637:11671   */\n    tag_369:\n        /* \"#utility.yul\":11696:11697   */\n      dup3\n        /* \"#utility.yul\":11693:11694   */\n      dup3\n        /* \"#utility.yul\":11689:11698   */\n      sub\n        /* \"#utility.yul\":11681:11698   */\n      swap1\n      pop\n        /* \"#utility.yul\":11513:11704   */\n      swap3\n      swap2\n      pop\n      pop\n      jump\t// out\n        /* \"#utility.yul\":11710:11806   */\n    tag_273:\n        /* \"#utility.yul\":11747:11754   */\n      0x00\n        /* \"#utility.yul\":11776:11800   */\n      tag_373\n        /* \"#utility.yul\":11794:11799   */\n      dup3\n        /* \"#utility.yul\":11776:11800   */\n      tag_374\n      jump\t// in\n    tag_373:\n        /* \"#utility.yul\":11765:11800   */\n      swap1\n      pop\n        /* \"#utility.yul\":11710:11806   */\n      swap2\n      swap1\n      pop\n      jump\t// out\n        /* \"#utility.yul\":11812:11902   */\n    tag_294:\n        /* \"#utility.yul\":11846:11853   */\n      0x00\n        /* \"#utility.yul\":11889:11894   */\n      dup2\n        /* \"#utility.yul\":11882:11895   */\n      iszero\n        /* \"#utility.yul\":11875:11896   */\n      iszero\n        /* \"#utility.yul\":11864:11896   */\n      swap1\n      pop\n        /* \"#utility.yul\":11812:11902   */\n      swap2\n      swap1\n      pop\n      jump\t// out\n        /* \"#utility.yul\":11908:12034   */\n    tag_374:\n        /* \"#utility.yul\":11945:11952   */\n      0x00\n        /* \"#utility.yul\":11985:12027   */\n      0xffffffffffffffffffffffffffffffffffffffff\n        /* \"#utility.yul\":11978:11983   */\n      dup3\n        /* \"#utility.yul\":11974:12028   */\n      and\n        /* \"#utility.yul\":11963:12028   */\n      swap1\n      pop\n        /* \"#utility.yul\":11908:12034   */\n      swap2\n      swap1\n      pop\n      jump\t// out\n        /* \"#utility.yul\":12040:12117   */\n    tag_333:\n        /* \"#utility.yul\":12077:12084   */\n      0x00\n        /* \"#utility.yul\":12106:12111   */\n      dup2\n        /* \"#utility.yul\":12095:12111   */\n      swap1\n      pop\n        /* \"#utility.yul\":12040:12117   */\n      swap2\n      swap1\n      pop\n      jump\t// out\n        /* \"#utility.yul\":12123:12277   */\n    tag_221:\n        /* \"#utility.yul\":12207:12213   */\n      dup3\n        /* \"#utility.yul\":12202:12205   */\n      dup2\n        /* \"#utility.yul\":12197:12200   */\n      dup4\n        /* \"#utility.yul\":12184:12214   */\n      calldatacopy\n        /* \"#utility.yul\":12269:12270   */\n      0x00\n        /* \"#utility.yul\":12260:12266   */\n      dup4\n        /* \"#utility.yul\":12255:12258   */\n      dup4\n        /* \"#utility.yul\":12251:12267   */\n      add\n        /* \"#utility.yul\":12244:12271   */\n      mstore\n        /* \"#utility.yul\":12123:12277   */\n      pop\n      pop\n      pop\n      jump\t// out\n        /* \"#utility.yul\":12283:12590   */\n    tag_305:\n        /* \"#utility.yul\":12351:12352   */\n      0x00\n        /* \"#utility.yul\":12361:12474   */\n    tag_380:\n        /* \"#utility.yul\":12375:12381   */\n      dup4\n        /* \"#utility.yul\":12372:12373   */\n      dup2\n        /* \"#utility.yul\":12369:12382   */\n      lt\n        /* \"#utility.yul\":12361:12474   */\n      iszero\n      tag_382\n      jumpi\n        /* \"#utility.yul\":12460:12461   */\n      dup1\n        /* \"#utility.yul\":12455:12458   */\n      dup3\n        /* \"#utility.yul\":12451:12462   */\n      add\n        /* \"#utility.yul\":12445:12463   */\n      mload\n        /* \"#utility.yul\":12441:12442   */\n      dup2\n        /* \"#utility.yul\":12436:12439   */\n      dup5\n        /* \"#utility.yul\":12432:12443   */\n      add\n        /* \"#utility.yul\":12425:12464   */\n      mstore\n        /* \"#utility.yul\":12397:12399   */\n      0x20\n        /* \"#utility.yul\":12394:12395   */\n      dup2\n        /* \"#utility.yul\":12390:12400   */\n      add\n        /* \"#utility.yul\":12385:12400   */\n      swap1\n      pop\n        /* \"#utility.yul\":12361:12474   */\n      jump(tag_380)\n    tag_382:\n        /* \"#utility.yul\":12492:12498   */\n      dup4\n        /* \"#utility.yul\":12489:12490   */\n      dup2\n        /* \"#utility.yul\":12486:12499   */\n      gt\n        /* \"#utility.yul\":12483:12584   */\n      iszero\n      tag_383\n      jumpi\n        /* \"#utility.yul\":12572:12573   */\n      0x00\n        /* \"#utility.yul\":12563:12569   */\n      dup5\n        /* \"#utility.yul\":12558:12561   */\n      dup5\n        /* \"#utility.yul\":12554:12570   */\n      add\n        /* \"#utility.yul\":12547:12574   */\n      mstore\n        /* \"#utility.yul\":12483:12584   */\n    tag_383:\n        /* \"#utility.yul\":12332:12590   */\n      pop\n        /* \"#utility.yul\":12283:12590   */\n      pop\n      pop\n      pop\n      jump\t// out\n        /* \"#utility.yul\":12596:12767   */\n    tag_95:\n        /* \"#utility.yul\":12635:12638   */\n      0x00\n        /* \"#utility.yul\":12658:12682   */\n      tag_385\n        /* \"#utility.yul\":12676:12681   */\n      dup3\n        /* \"#utility.yul\":12658:12682   */\n      tag_333\n      jump\t// in\n    tag_385:\n        /* \"#utility.yul\":12649:12682   */\n      swap2\n      pop\n        /* \"#utility.yul\":12704:12708   */\n      0x00\n        /* \"#utility.yul\":12697:12702   */\n      dup3\n        /* \"#utility.yul\":12694:12709   */\n      eq\n        /* \"#utility.yul\":12691:12732   */\n      iszero\n      tag_386\n      jumpi\n        /* \"#utility.yul\":12712:12730   */\n      tag_387\n      tag_371\n      jump\t// in\n    tag_387:\n        /* \"#utility.yul\":12691:12732   */\n    tag_386:\n        /* \"#utility.yul\":12759:12760   */\n      0x01\n        /* \"#utility.yul\":12752:12757   */\n      dup3\n        /* \"#utility.yul\":12748:12761   */\n      sub\n        /* \"#utility.yul\":12741:12761   */\n      swap1\n      pop\n        /* \"#utility.yul\":12596:12767   */\n      swap2\n      swap1\n      pop\n      jump\t// out\n        /* \"#utility.yul\":12773:13093   */\n    tag_70:\n        /* \"#utility.yul\":12817:12823   */\n      0x00\n        /* \"#utility.yul\":12854:12855   */\n      0x02\n        /* \"#utility.yul\":12848:12852   */\n      dup3\n        /* \"#utility.yul\":12844:12856   */\n      div\n        /* \"#utility.yul\":12834:12856   */\n      swap1\n      pop\n        /* \"#utility.yul\":12901:12902   */\n      0x01\n        /* \"#utility.yul\":12895:12899   */\n      dup3\n        /* \"#utility.yul\":12891:12903   */\n      and\n        /* \"#utility.yul\":12922:12940   */\n      dup1\n        /* \"#utility.yul\":12912:12993   */\n      tag_389\n      jumpi\n        /* \"#utility.yul\":12978:12982   */\n      0x7f\n        /* \"#utility.yul\":12970:12976   */\n      dup3\n        /* \"#utility.yul\":12966:12983   */\n      and\n        /* \"#utility.yul\":12956:12983   */\n      swap2\n      pop\n        /* \"#utility.yul\":12912:12993   */\n    tag_389:\n        /* \"#utility.yul\":13040:13042   */\n      0x20\n        /* \"#utility.yul\":13032:13038   */\n      dup3\n        /* \"#utility.yul\":13029:13043   */\n      lt\n        /* \"#utility.yul\":13009:13027   */\n      dup2\n        /* \"#utility.yul\":13006:13044   */\n      eq\n        /* \"#utility.yul\":13003:13087   */\n      iszero\n      tag_390\n      jumpi\n        /* \"#utility.yul\":13059:13077   */\n      tag_391\n      tag_392\n      jump\t// in\n    tag_391:\n        /* \"#utility.yul\":13003:13087   */\n    tag_390:\n        /* \"#utility.yul\":12824:13093   */\n      pop\n        /* \"#utility.yul\":12773:13093   */\n      swap2\n      swap1\n      pop\n      jump\t// out\n        /* \"#utility.yul\":13099:13380   */\n    tag_352:\n        /* \"#utility.yul\":13182:13209   */\n      tag_394\n        /* \"#utility.yul\":13204:13208   */\n      dup3\n        /* \"#utility.yul\":13182:13209   */\n      tag_307\n      jump\t// in\n    tag_394:\n        /* \"#utility.yul\":13174:13180   */\n      dup2\n        /* \"#utility.yul\":13170:13210   */\n      add\n        /* \"#utility.yul\":13312:13318   */\n      dup2\n        /* \"#utility.yul\":13300:13310   */\n      dup2\n        /* \"#utility.yul\":13297:13319   */\n      lt\n        /* \"#utility.yul\":13276:13294   */\n      0xffffffffffffffff\n        /* \"#utility.yul\":13264:13274   */\n      dup3\n        /* \"#utility.yul\":13261:13295   */\n      gt\n        /* \"#utility.yul\":13258:13320   */\n      or\n        /* \"#utility.yul\":13255:13343   */\n      iszero\n      tag_395\n      jumpi\n        /* \"#utility.yul\":13323:13341   */\n      tag_396\n      tag_131\n      jump\t// in\n    tag_396:\n        /* \"#utility.yul\":13255:13343   */\n    tag_395:\n        /* \"#utility.yul\":13363:13373   */\n      dup1\n        /* \"#utility.yul\":13359:13361   */\n      0x40\n        /* \"#utility.yul\":13352:13374   */\n      mstore\n        /* \"#utility.yul\":13142:13380   */\n      pop\n        /* \"#utility.yul\":13099:13380   */\n      pop\n      pop\n      jump\t// out\n        /* \"#utility.yul\":13386:13619   */\n    tag_58:\n        /* \"#utility.yul\":13425:13428   */\n      0x00\n        /* \"#utility.yul\":13448:13472   */\n      tag_398\n        /* \"#utility.yul\":13466:13471   */\n      dup3\n        /* \"#utility.yul\":13448:13472   */\n      tag_333\n      jump\t// in\n    tag_398:\n        /* \"#utility.yul\":13439:13472   */\n      swap2\n      pop\n        /* \"#utility.yul\":13494:13560   */\n      0xffffffffffffffffffffffffffffffffffffffffffffffffffffffffffffffff\n        /* \"#utility.yul\":13487:13492   */\n      dup3\n        /* \"#utility.yul\":13484:13561   */\n      eq\n        /* \"#utility.yul\":13481:13584   */\n      iszero\n      tag_399\n      jumpi\n        /* \"#utility.yul\":13564:13582   */\n      tag_400\n      tag_371\n      jump\t// in\n    tag_400:\n        /* \"#utility.yul\":13481:13584   */\n    tag_399:\n        /* \"#utility.yul\":13611:13612   */\n      0x01\n        /* \"#utility.yul\":13604:13609   */\n      dup3\n        /* \"#utility.yul\":13600:13613   */\n      add\n        /* \"#utility.yul\":13593:13613   */\n      swap1\n      pop\n        /* \"#utility.yul\":13386:13619   */\n      swap2\n      swap1\n      pop\n      jump\t// out\n        /* \"#utility.yul\":13625:13805   */\n    tag_371:\n        /* \"#utility.yul\":13673:13750   */\n      0x4e487b7100000000000000000000000000000000000000000000000000000000\n        /* \"#utility.yul\":13670:13671   */\n      0x00\n        /* \"#utility.yul\":13663:13751   */\n      mstore\n        /* \"#utility.yul\":13770:13774   */\n      0x11\n        /* \"#utility.yul\":13767:13768   */\n      0x04\n        /* \"#utility.yul\":13760:13775   */\n      mstore\n        /* \"#utility.yul\":13794:13798   */\n      0x24\n        /* \"#utility.yul\":13791:13792   */\n      0x00\n        /* \"#utility.yul\":13784:13799   */\n      revert\n        /* \"#utility.yul\":13811:13991   */\n    tag_392:\n        /* \"#utility.yul\":13859:13936   */\n      0x4e487b7100000000000000000000000000000000000000000000000000000000\n        /* \"#utility.yul\":13856:13857   */\n      0x00\n        /* \"#utility.yul\":13849:13937   */\n      mstore\n        /* \"#utility.yul\":13956:13960   */\n      0x22\n        /* \"#utility.yul\":13953:13954   */\n      0x04\n        /* \"#utility.yul\":13946:13961   */\n      mstore\n        /* \"#utility.yul\":13980:13984   */\n      0x24\n        /* \"#utility.yul\":13977:13978   */\n      0x00\n        /* \"#utility.yul\":13970:13985   */\n      revert\n        /* \"#utility.yul\":13997:14177   */\n    tag_67:\n        /* \"#utility.yul\":14045:14122   */\n      0x4e487b7100000000000000000000000000000000000000000000000000000000\n        /* \"#utility.yul\":14042:14043   */\n      0x00\n        /* \"#utility.yul\":14035:14123   */\n      mstore\n        /* \"#utility.yul\":14142:14146   */\n      0x32\n        /* \"#utility.yul\":14139:14140   */\n      0x04\n        /* \"#utility.yul\":14132:14147   */\n      mstore\n        /* \"#utility.yul\":14166:14170   */\n      0x24\n        /* \"#utility.yul\":14163:14164   */\n      0x00\n        /* \"#utility.yul\":14156:14171   */\n      revert\n        /* \"#utility.yul\":14183:14363   */\n    tag_131:\n        /* \"#utility.yul\":14231:14308   */\n      0x4e487b7100000000000000000000000000000000000000000000000000000000\n        /* \"#utility.yul\":14228:14229   */\n      0x00\n        /* \"#utility.yul\":14221:14309   */\n      mstore\n        /* \"#utility.yul\":14328:14332   */\n      0x41\n        /* \"#utility.yul\":14325:14326   */\n      0x04\n        /* \"#utility.yul\":14318:14333   */\n      mstore\n        /* \"#utility.yul\":14352:14356   */\n      0x24\n        /* \"#utility.yul\":14349:14350   */\n      0x00\n        /* \"#utility.yul\":14342:14357   */\n      revert\n        /* \"#utility.yul\":14369:14486   */\n    tag_234:\n        /* \"#utility.yul\":14478:14479   */\n      0x00\n        /* \"#utility.yul\":14475:14476   */\n      dup1\n        /* \"#utility.yul\":14468:14480   */\n      revert\n        /* \"#utility.yul\":14492:14609   */\n    tag_219:\n        /* \"#utility.yul\":14601:14602   */\n      0x00\n        /* \"#utility.yul\":14598:14599   */\n      dup1\n        /* \"#utility.yul\":14591:14603   */\n      revert\n        /* \"#utility.yul\":14615:14732   */\n    tag_246:\n        /* \"#utility.yul\":14724:14725   */\n      0x00\n        /* \"#utility.yul\":14721:14722   */\n      dup1\n        /* \"#utility.yul\":14714:14726   */\n      revert\n        /* \"#utility.yul\":14738:14855   */\n    tag_243:\n        /* \"#utility.yul\":14847:14848   */\n      0x00\n        /* \"#utility.yul\":14844:14845   */\n      dup1\n        /* \"#utility.yul\":14837:14849   */\n      revert\n        /* \"#utility.yul\":14861:14963   */\n    tag_307:\n        /* \"#utility.yul\":14902:14908   */\n      0x00\n        /* \"#utility.yul\":14953:14955   */\n      0x1f\n        /* \"#utility.yul\":14949:14956   */\n      not\n        /* \"#utility.yul\":14944:14946   */\n      0x1f\n        /* \"#utility.yul\":14937:14942   */\n      dup4\n        /* \"#utility.yul\":14933:14947   */\n      add\n        /* \"#utility.yul\":14929:14957   */\n      and\n        /* \"#utility.yul\":14919:14957   */\n      swap1\n      pop\n        /* \"#utility.yul\":14861:14963   */\n      swap2\n      swap1\n      pop\n      jump\t// out\n        /* \"#utility.yul\":14969:15133   */\n    tag_325:\n        /* \"#utility.yul\":15109:15125   */\n      0x64727567206e6f7420666f756e64000000000000000000000000000000000000\n        /* \"#utility.yul\":15105:15106   */\n      0x00\n        /* \"#utility.yul\":15097:15103   */\n      dup3\n        /* \"#utility.yul\":15093:15107   */\n      add\n        /* \"#utility.yul\":15086:15126   */\n      mstore\n        /* \"#utility.yul\":14969:15133   */\n      pop\n      jump\t// out\n        /* \"#utility.yul\":15139:15261   */\n    tag_225:\n        /* \"#utility.yul\":15212:15236   */\n      tag_412\n        /* \"#utility.yul\":15230:15235   */\n      dup2\n        /* \"#utility.yul\":15212:15236   */\n      tag_273\n      jump\t// in\n    tag_412:\n        /* \"#utility.yul\":15205:15210   */\n      dup2\n        /* \"#utility.yul\":15202:15237   */\n      eq\n        /* \"#utility.yul\":15192:15255   */\n      tag_413\n      jumpi\n        /* \"#utility.yul\":15251:15252   */\n      0x00\n        /* \"#utility.yul\":15248:15249   */\n      dup1\n        /* \"#utility.yul\":15241:15253   */\n      revert\n        /* \"#utility.yul\":15192:15255   */\n    tag_413:\n        /* \"#utility.yul\":15139:15261   */\n      pop\n      jump\t// out\n        /* \"#utility.yul\":15267:15383   */\n    tag_229:\n        /* \"#utility.yul\":15337:15358   */\n      tag_415\n        /* \"#utility.yul\":15352:15357   */\n      dup2\n        /* \"#utility.yul\":15337:15358   */\n      tag_294\n      jump\t// in\n    tag_415:\n        /* \"#utility.yul\":15330:15335   */\n      dup2\n        /* \"#utility.yul\":15327:15359   */\n      eq\n        /* \"#utility.yul\":15317:15377   */\n      tag_416\n      jumpi\n        /* \"#utility.yul\":15373:15374   */\n      0x00\n        /* \"#utility.yul\":15370:15371   */\n      dup1\n        /* \"#utility.yul\":15363:15375   */\n      revert\n        /* \"#utility.yul\":15317:15377   */\n    tag_416:\n        /* \"#utility.yul\":15267:15383   */\n      pop\n      jump\t// out\n        /* \"#utility.yul\":15389:15511   */\n    tag_239:\n        /* \"#utility.yul\":15462:15486   */\n      tag_418\n        /* \"#utility.yul\":15480:15485   */\n      dup2\n        /* \"#utility.yul\":15462:15486   */\n      tag_333\n      jump\t// in\n    tag_418:\n        /* \"#utility.yul\":15455:15460   */\n      dup2\n        /* \"#utility.yul\":15452:15487   */\n      eq\n        /* \"#utility.yul\":15442:15505   */\n      tag_419\n      jumpi\n        /* \"#utility.yul\":15501:15502   */\n      0x00\n        /* \"#utility.yul\":15498:15499   */\n      dup1\n        /* \"#utility.yul\":15491:15503   */\n      revert\n        /* \"#utility.yul\":15442:15505   */\n    tag_419:\n        /* \"#utility.yul\":15389:15511   */\n      pop\n      jump\t// out\n\n    auxdata: 0xa2646970667358221220d044043506dee456fb546cb6aaef6726ba43b7ec72d436ef7976fccebd36b4cd64736f6c63430008070033\n}\n",
				"bytecode": {
					"linkReferences": {},
					"object": "608060405234801561001057600080fd5b5060006002819055506117eb806100286000396000f3fe608060405234801561001057600080fd5b50600436106100935760003560e01c8063a548beb011610066578063a548beb014610148578063d003783114610166578063e657ae6914610184578063f6724f4b146101b4578063fca5e61e146101d257610093565b80631685a5ac1461009857806331afac36146100b65780636a4e2b6a146100e65780637ecd449214610116575b600080fd5b6100a0610204565b6040516100ad91906113f0565b60405180910390f35b6100d060048036038101906100cb919061106f565b61020a565b6040516100dd91906113f0565b60405180910390f35b61010060048036038101906100fb9190611026565b610319565b60405161010d9190611377565b60405180910390f35b610130600480360381019061012b9190611026565b6105b7565b60405161013f93929190611392565b60405180910390f35b610150610811565b60405161015d9190611355565b60405180910390f35b61016e6109e3565b60405161017b91906113f0565b60405180910390f35b61019e600480360381019061019991906110cb565b6109f0565b6040516101ab9190611377565b60405180910390f35b6101bc610b24565b6040516101c99190611355565b60405180910390f35b6101ec60048036038101906101e79190611127565b610c86565b6040516101fb93929190611392565b60405180910390f35b60025481565b60008060405180606001604052808581526020018473ffffffffffffffffffffffffffffffffffffffff1681526020016001151581525090506001819080600181540180825580915050600190039060005260206000209060020201600090919091909150600082015181600001908051906020019061028b929190610dce565b5060208201518160010160006101000a81548173ffffffffffffffffffffffffffffffffffffffff021916908373ffffffffffffffffffffffffffffffffffffffff16021790555060408201518160010160146101000a81548160ff0219169083151502179055505050600260008154809291906103089061161d565b919050555060025491505092915050565b6000806002541161032957600080fd5b60005b6002548110156105ac576103ed6001828154811061034d5761034c6116c4565b5b90600052602060002090600202016000018054610369906115ba565b80601f0160208091040260200160405190810160405280929190818152602001828054610395906115ba565b80156103e25780601f106103b7576101008083540402835291602001916103e2565b820191906000526020600020905b8154815290600101906020018083116103c557829003601f168201915b505050505084610d75565b156105995760018060025461040291906114d2565b81548110610413576104126116c4565b5b906000526020600020906002020160018281548110610435576104346116c4565b5b90600052602060002090600202016000820181600001908054610457906115ba565b610462929190610e54565b506001820160009054906101000a900473ffffffffffffffffffffffffffffffffffffffff168160010160006101000a81548173ffffffffffffffffffffffffffffffffffffffff021916908373ffffffffffffffffffffffffffffffffffffffff1602179055506001820160149054906101000a900460ff168160010160146101000a81548160ff02191690831515021790555090505060018060025461050a91906114d2565b8154811061051b5761051a6116c4565b5b90600052602060002090600202016000808201600061053a9190610ee1565b6001820160006101000a81549073ffffffffffffffffffffffffffffffffffffffff02191690556001820160146101000a81549060ff021916905550506002600081548092919061058a90611590565b919050555060019150506105b2565b80806105a49061161d565b91505061032c565b50600090505b919050565b606060008060005b6002548110156107ce57610680600182815481106105e0576105df6116c4565b5b906000526020600020906002020160000180546105fc906115ba565b80601f0160208091040260200160405190810160405280929190818152602001828054610628906115ba565b80156106755780601f1061064a57610100808354040283529160200191610675565b820191906000526020600020905b81548152906001019060200180831161065857829003601f168201915b505050505086610d75565b156107bb5760018181548110610699576106986116c4565b5b9060005260206000209060020201600001600182815481106106be576106bd6116c4565b5b906000526020600020906002020160010160009054906101000a900473ffffffffffffffffffffffffffffffffffffffff1660018381548110610704576107036116c4565b5b906000526020600020906002020160010160149054906101000a900460ff1682805461072f906115ba565b80601f016020809104026020016040519081016040528092919081815260200182805461075b906115ba565b80156107a85780601f1061077d576101008083540402835291602001916107a8565b820191906000526020600020905b81548152906001019060200180831161078b57829003601f168201915b505050505092509350935093505061080a565b80806107c69061161d565b9150506105bf565b506040517f08c379a0000000000000000000000000000000000000000000000000000000008152600401610801906113d0565b60405180910390fd5b9193909250565b6060600060025467ffffffffffffffff811115610831576108306116f3565b5b60405190808252806020026020018201604052801561086a57816020015b610857610f21565b81526020019060019003908161084f5790505b50905060005b6002548110156109db576001818154811061088e5761088d6116c4565b5b90600052602060002090600202016040518060600160405290816000820180546108b7906115ba565b80601f01602080910402602001604051908101604052809291908181526020018280546108e3906115ba565b80156109305780601f1061090557610100808354040283529160200191610930565b820191906000526020600020905b81548152906001019060200180831161091357829003601f168201915b505050505081526020016001820160009054906101000a900473ffffffffffffffffffffffffffffffffffffffff1673ffffffffffffffffffffffffffffffffffffffff1673ffffffffffffffffffffffffffffffffffffffff1681526020016001820160149054906101000a900460ff1615151515815250508282815181106109bd576109bc6116c4565b5b602002602001018190525080806109d39061161d565b915050610870565b508091505090565b6000600180549050905090565b600080600090505b600254811015610b1857610ab960018281548110610a1957610a186116c4565b5b90600052602060002090600202016000018054610a35906115ba565b80601f0160208091040260200160405190810160405280929190818152602001828054610a61906115ba565b8015610aae5780601f10610a8357610100808354040283529160200191610aae565b820191906000526020600020905b815481529060010190602001808311610a9157829003601f168201915b505050505085610d75565b15610b05578260018281548110610ad357610ad26116c4565b5b906000526020600020906002020160010160146101000a81548160ff0219169083151502179055506001915050610b1e565b8080610b109061161d565b9150506109f8565b50600090505b92915050565b60606001805480602002602001604051908101604052809291908181526020016000905b82821015610c7d5783829060005260206000209060020201604051806060016040529081600082018054610b7b906115ba565b80601f0160208091040260200160405190810160405280929190818152602001828054610ba7906115ba565b8015610bf45780601f10610bc957610100808354040283529160200191610bf4565b820191906000526020600020905b815481529060010190602001808311610bd757829003601f168201915b505050505081526020016001820160009054906101000a900473ffffffffffffffffffffffffffffffffffffffff1673ffffffffffffffffffffffffffffffffffffffff1673ffffffffffffffffffffffffffffffffffffffff1681526020016001820160149054906101000a900460ff16151515158152505081526020019060010190610b48565b50505050905090565b60018181548110610c9657600080fd5b9060005260206000209060020201600091509050806000018054610cb9906115ba565b80601f0160208091040260200160405190810160405280929190818152602001828054610ce5906115ba565b8015610d325780601f10610d0757610100808354040283529160200191610d32565b820191906000526020600020905b815481529060010190602001808311610d1557829003601f168201915b5050505050908060010160009054906101000a900473ffffffffffffffffffffffffffffffffffffffff16908060010160149054906101000a900460ff16905083565b600081604051602001610d88919061133e565b6040516020818303038152906040528051906020012083604051602001610daf919061133e565b6040516020818303038152906040528051906020012014905092915050565b828054610dda906115ba565b90600052602060002090601f016020900481019282610dfc5760008555610e43565b82601f10610e1557805160ff1916838001178555610e43565b82800160010185558215610e43579182015b82811115610e42578251825591602001919060010190610e27565b5b509050610e509190610f5a565b5090565b828054610e60906115ba565b90600052602060002090601f016020900481019282610e825760008555610ed0565b82601f10610e935780548555610ed0565b82800160010185558215610ed057600052602060002091601f016020900482015b82811115610ecf578254825591600101919060010190610eb4565b5b509050610edd9190610f5a565b5090565b508054610eed906115ba565b6000825580601f10610eff5750610f1e565b601f016020900490600052602060002090810190610f1d9190610f5a565b5b50565b604051806060016040528060608152602001600073ffffffffffffffffffffffffffffffffffffffff1681526020016000151581525090565b5b80821115610f73576000816000905550600101610f5b565b5090565b6000610f8a610f8584611430565b61140b565b905082815260208101848484011115610fa657610fa5611727565b5b610fb184828561154e565b509392505050565b600081359050610fc881611770565b92915050565b600081359050610fdd81611787565b92915050565b600082601f830112610ff857610ff7611722565b5b8135611008848260208601610f77565b91505092915050565b6000813590506110208161179e565b92915050565b60006020828403121561103c5761103b611731565b5b600082013567ffffffffffffffff81111561105a5761105961172c565b5b61106684828501610fe3565b91505092915050565b6000806040838503121561108657611085611731565b5b600083013567ffffffffffffffff8111156110a4576110a361172c565b5b6110b085828601610fe3565b92505060206110c185828601610fb9565b9150509250929050565b600080604083850312156110e2576110e1611731565b5b600083013567ffffffffffffffff811115611100576110ff61172c565b5b61110c85828601610fe3565b925050602061111d85828601610fce565b9150509250929050565b60006020828403121561113d5761113c611731565b5b600061114b84828501611011565b91505092915050565b600061116083836112df565b905092915050565b61117181611506565b82525050565b61118081611506565b82525050565b600061119182611471565b61119b8185611494565b9350836020820285016111ad85611461565b8060005b858110156111e957848403895281516111ca8582611154565b94506111d583611487565b925060208a019950506001810190506111b1565b50829750879550505050505092915050565b61120481611518565b82525050565b61121381611518565b82525050565b60006112248261147c565b61122e81856114a5565b935061123e81856020860161155d565b61124781611736565b840191505092915050565b600061125d8261147c565b61126781856114b6565b935061127781856020860161155d565b61128081611736565b840191505092915050565b60006112968261147c565b6112a081856114c7565b93506112b081856020860161155d565b80840191505092915050565b60006112c9600e836114b6565b91506112d482611747565b602082019050919050565b600060608301600083015184820360008601526112fc8282611219565b91505060208301516113116020860182611168565b50604083015161132460408601826111fb565b508091505092915050565b61133881611544565b82525050565b600061134a828461128b565b915081905092915050565b6000602082019050818103600083015261136f8184611186565b905092915050565b600060208201905061138c600083018461120a565b92915050565b600060608201905081810360008301526113ac8186611252565b90506113bb6020830185611177565b6113c8604083018461120a565b949350505050565b600060208201905081810360008301526113e9816112bc565b9050919050565b6000602082019050611405600083018461132f565b92915050565b6000611415611426565b905061142182826115ec565b919050565b6000604051905090565b600067ffffffffffffffff82111561144b5761144a6116f3565b5b61145482611736565b9050602081019050919050565b6000819050602082019050919050565b600081519050919050565b600081519050919050565b6000602082019050919050565b600082825260208201905092915050565b600082825260208201905092915050565b600082825260208201905092915050565b600081905092915050565b60006114dd82611544565b91506114e883611544565b9250828210156114fb576114fa611666565b5b828203905092915050565b600061151182611524565b9050919050565b60008115159050919050565b600073ffffffffffffffffffffffffffffffffffffffff82169050919050565b6000819050919050565b82818337600083830152505050565b60005b8381101561157b578082015181840152602081019050611560565b8381111561158a576000848401525b50505050565b600061159b82611544565b915060008214156115af576115ae611666565b5b600182039050919050565b600060028204905060018216806115d257607f821691505b602082108114156115e6576115e5611695565b5b50919050565b6115f582611736565b810181811067ffffffffffffffff82111715611614576116136116f3565b5b80604052505050565b600061162882611544565b91507fffffffffffffffffffffffffffffffffffffffffffffffffffffffffffffffff82141561165b5761165a611666565b5b600182019050919050565b7f4e487b7100000000000000000000000000000000000000000000000000000000600052601160045260246000fd5b7f4e487b7100000000000000000000000000000000000000000000000000000000600052602260045260246000fd5b7f4e487b7100000000000000000000000000000000000000000000000000000000600052603260045260246000fd5b7f4e487b7100000000000000000000000000000000000000000000000000000000600052604160045260246000fd5b600080fd5b600080fd5b600080fd5b600080fd5b6000601f19601f8301169050919050565b7f64727567206e6f7420666f756e64000000000000000000000000000000000000600082015250565b61177981611506565b811461178457600080fd5b50565b61179081611518565b811461179b57600080fd5b50565b6117a781611544565b81146117b257600080fd5b5056fea2646970667358221220d044043506dee456fb546cb6aaef6726ba43b7ec72d436ef7976fccebd36b4cd64736f6c63430008070033",
					"opcodes": "PUSH1 0x80 PUSH1 0x40 MSTORE CALLVALUE DUP1 ISZERO PUSH2 0x10 JUMPI PUSH1 0x0 DUP1 REVERT JUMPDEST POP PUSH1 0x0 PUSH1 0x2 DUP2 SWAP1 SSTORE POP PUSH2 0x17EB DUP1 PUSH2 0x28 PUSH1 0x0 CODECOPY PUSH1 0x0 RETURN INVALID PUSH1 0x80 PUSH1 0x40 MSTORE CALLVALUE DUP1 ISZERO PUSH2 0x10 JUMPI PUSH1 0x0 DUP1 REVERT JUMPDEST POP PUSH1 0x4 CALLDATASIZE LT PUSH2 0x93 JUMPI PUSH1 0x0 CALLDATALOAD PUSH1 0xE0 SHR DUP1 PUSH4 0xA548BEB0 GT PUSH2 0x66 JUMPI DUP1 PUSH4 0xA548BEB0 EQ PUSH2 0x148 JUMPI DUP1 PUSH4 0xD0037831 EQ PUSH2 0x166 JUMPI DUP1 PUSH4 0xE657AE69 EQ PUSH2 0x184 JUMPI DUP1 PUSH4 0xF6724F4B EQ PUSH2 0x1B4 JUMPI DUP1 PUSH4 0xFCA5E61E EQ PUSH2 0x1D2 JUMPI PUSH2 0x93 JUMP JUMPDEST DUP1 PUSH4 0x1685A5AC EQ PUSH2 0x98 JUMPI DUP1 PUSH4 0x31AFAC36 EQ PUSH2 0xB6 JUMPI DUP1 PUSH4 0x6A4E2B6A EQ PUSH2 0xE6 JUMPI DUP1 PUSH4 0x7ECD4492 EQ PUSH2 0x116 JUMPI JUMPDEST PUSH1 0x0 DUP1 REVERT JUMPDEST PUSH2 0xA0 PUSH2 0x204 JUMP JUMPDEST PUSH1 0x40 MLOAD PUSH2 0xAD SWAP2 SWAP1 PUSH2 0x13F0 JUMP JUMPDEST PUSH1 0x40 MLOAD DUP1 SWAP2 SUB SWAP1 RETURN JUMPDEST PUSH2 0xD0 PUSH1 0x4 DUP1 CALLDATASIZE SUB DUP2 ADD SWAP1 PUSH2 0xCB SWAP2 SWAP1 PUSH2 0x106F JUMP JUMPDEST PUSH2 0x20A JUMP JUMPDEST PUSH1 0x40 MLOAD PUSH2 0xDD SWAP2 SWAP1 PUSH2 0x13F0 JUMP JUMPDEST PUSH1 0x40 MLOAD DUP1 SWAP2 SUB SWAP1 RETURN JUMPDEST PUSH2 0x100 PUSH1 0x4 DUP1 CALLDATASIZE SUB DUP2 ADD SWAP1 PUSH2 0xFB SWAP2 SWAP1 PUSH2 0x1026 JUMP JUMPDEST PUSH2 0x319 JUMP JUMPDEST PUSH1 0x40 MLOAD PUSH2 0x10D SWAP2 SWAP1 PUSH2 0x1377 JUMP JUMPDEST PUSH1 0x40 MLOAD DUP1 SWAP2 SUB SWAP1 RETURN JUMPDEST PUSH2 0x130 PUSH1 0x4 DUP1 CALLDATASIZE SUB DUP2 ADD SWAP1 PUSH2 0x12B SWAP2 SWAP1 PUSH2 0x1026 JUMP JUMPDEST PUSH2 0x5B7 JUMP JUMPDEST PUSH1 0x40 MLOAD PUSH2 0x13F SWAP4 SWAP3 SWAP2 SWAP1 PUSH2 0x1392 JUMP JUMPDEST PUSH1 0x40 MLOAD DUP1 SWAP2 SUB SWAP1 RETURN JUMPDEST PUSH2 0x150 PUSH2 0x811 JUMP JUMPDEST PUSH1 0x40 MLOAD PUSH2 0x15D SWAP2 SWAP1 PUSH2 0x1355 JUMP JUMPDEST PUSH1 0x40 MLOAD DUP1 SWAP2 SUB SWAP1 RETURN JUMPDEST PUSH2 0x16E PUSH2 0x9E3 JUMP JUMPDEST PUSH1 0x40 MLOAD PUSH2 0x17B SWAP2 SWAP1 PUSH2 0x13F0 JUMP JUMPDEST PUSH1 0x40 MLOAD DUP1 SWAP2 SUB SWAP1 RETURN JUMPDEST PUSH2 0x19E PUSH1 0x4 DUP1 CALLDATASIZE SUB DUP2 ADD SWAP1 PUSH2 0x199 SWAP2 SWAP1 PUSH2 0x10CB JUMP JUMPDEST PUSH2 0x9F0 JUMP JUMPDEST PUSH1 0x40 MLOAD PUSH2 0x1AB SWAP2 SWAP1 PUSH2 0x1377 JUMP JUMPDEST PUSH1 0x40 MLOAD DUP1 SWAP2 SUB SWAP1 RETURN JUMPDEST PUSH2 0x1BC PUSH2 0xB24 JUMP JUMPDEST PUSH1 0x40 MLOAD PUSH2 0x1C9 SWAP2 SWAP1 PUSH2 0x1355 JUMP JUMPDEST PUSH1 0x40 MLOAD DUP1 SWAP2 SUB SWAP1 RETURN JUMPDEST PUSH2 0x1EC PUSH1 0x4 DUP1 CALLDATASIZE SUB DUP2 ADD SWAP1 PUSH2 0x1E7 SWAP2 SWAP1 PUSH2 0x1127 JUMP JUMPDEST PUSH2 0xC86 JUMP JUMPDEST PUSH1 0x40 MLOAD PUSH2 0x1FB SWAP4 SWAP3 SWAP2 SWAP1 PUSH2 0x1392 JUMP JUMPDEST PUSH1 0x40 MLOAD DUP1 SWAP2 SUB SWAP1 RETURN JUMPDEST PUSH1 0x2 SLOAD DUP2 JUMP JUMPDEST PUSH1 0x0 DUP1 PUSH1 0x40 MLOAD DUP1 PUSH1 0x60 ADD PUSH1 0x40 MSTORE DUP1 DUP6 DUP2 MSTORE PUSH1 0x20 ADD DUP5 PUSH20 0xFFFFFFFFFFFFFFFFFFFFFFFFFFFFFFFFFFFFFFFF AND DUP2 MSTORE PUSH1 0x20 ADD PUSH1 0x1 ISZERO ISZERO DUP2 MSTORE POP SWAP1 POP PUSH1 0x1 DUP2 SWAP1 DUP1 PUSH1 0x1 DUP2 SLOAD ADD DUP1 DUP3 SSTORE DUP1 SWAP2 POP POP PUSH1 0x1 SWAP1 SUB SWAP1 PUSH1 0x0 MSTORE PUSH1 0x20 PUSH1 0x0 KECCAK256 SWAP1 PUSH1 0x2 MUL ADD PUSH1 0x0 SWAP1 SWAP2 SWAP1 SWAP2 SWAP1 SWAP2 POP PUSH1 0x0 DUP3 ADD MLOAD DUP2 PUSH1 0x0 ADD SWAP1 DUP1 MLOAD SWAP1 PUSH1 0x20 ADD SWAP1 PUSH2 0x28B SWAP3 SWAP2 SWAP1 PUSH2 0xDCE JUMP JUMPDEST POP PUSH1 0x20 DUP3 ADD MLOAD DUP2 PUSH1 0x1 ADD PUSH1 0x0 PUSH2 0x100 EXP DUP2 SLOAD DUP2 PUSH20 0xFFFFFFFFFFFFFFFFFFFFFFFFFFFFFFFFFFFFFFFF MUL NOT AND SWAP1 DUP4 PUSH20 0xFFFFFFFFFFFFFFFFFFFFFFFFFFFFFFFFFFFFFFFF AND MUL OR SWAP1 SSTORE POP PUSH1 0x40 DUP3 ADD MLOAD DUP2 PUSH1 0x1 ADD PUSH1 0x14 PUSH2 0x100 EXP DUP2 SLOAD DUP2 PUSH1 0xFF MUL NOT AND SWAP1 DUP4 ISZERO ISZERO MUL OR SWAP1 SSTORE POP POP POP PUSH1 0x2 PUSH1 0x0 DUP2 SLOAD DUP1 SWAP3 SWAP2 SWAP1 PUSH2 0x308 SWAP1 PUSH2 0x161D JUMP JUMPDEST SWAP2 SWAP1 POP SSTORE POP PUSH1 0x2 SLOAD SWAP2 POP POP SWAP3 SWAP2 POP POP JUMP JUMPDEST PUSH1 0x0 DUP1 PUSH1 0x2 SLOAD GT PUSH2 0x329 JUMPI PUSH1 0x0 DUP1 REVERT JUMPDEST PUSH1 0x0 JUMPDEST PUSH1 0x2 SLOAD DUP2 LT ISZERO PUSH2 0x5AC JUMPI PUSH2 0x3ED PUSH1 0x1 DUP3 DUP2 SLOAD DUP2 LT PUSH2 0x34D JUMPI PUSH2 0x34C PUSH2 0x16C4 JUMP JUMPDEST JUMPDEST SWAP1 PUSH1 0x0 MSTORE PUSH1 0x20 PUSH1 0x0 KECCAK256 SWAP1 PUSH1 0x2 MUL ADD PUSH1 0x0 ADD DUP1 SLOAD PUSH2 0x369 SWAP1 PUSH2 0x15BA JUMP JUMPDEST DUP1 PUSH1 0x1F ADD PUSH1 0x20 DUP1 SWAP2 DIV MUL PUSH1 0x20 ADD PUSH1 0x40 MLOAD SWAP1 DUP2 ADD PUSH1 0x40 MSTORE DUP1 SWAP3 SWAP2 SWAP1 DUP2 DUP2 MSTORE PUSH1 0x20 ADD DUP3 DUP1 SLOAD PUSH2 0x395 SWAP1 PUSH2 0x15BA JUMP JUMPDEST DUP1 ISZERO PUSH2 0x3E2 JUMPI DUP1 PUSH1 0x1F LT PUSH2 0x3B7 JUMPI PUSH2 0x100 DUP1 DUP4 SLOAD DIV MUL DUP4 MSTORE SWAP2 PUSH1 0x20 ADD SWAP2 PUSH2 0x3E2 JUMP JUMPDEST DUP3 ADD SWAP2 SWAP1 PUSH1 0x0 MSTORE PUSH1 0x20 PUSH1 0x0 KECCAK256 SWAP1 JUMPDEST DUP2 SLOAD DUP2 MSTORE SWAP1 PUSH1 0x1 ADD SWAP1 PUSH1 0x20 ADD DUP1 DUP4 GT PUSH2 0x3C5 JUMPI DUP3 SWAP1 SUB PUSH1 0x1F AND DUP3 ADD SWAP2 JUMPDEST POP POP POP POP POP DUP5 PUSH2 0xD75 JUMP JUMPDEST ISZERO PUSH2 0x599 JUMPI PUSH1 0x1 DUP1 PUSH1 0x2 SLOAD PUSH2 0x402 SWAP2 SWAP1 PUSH2 0x14D2 JUMP JUMPDEST DUP2 SLOAD DUP2 LT PUSH2 0x413 JUMPI PUSH2 0x412 PUSH2 0x16C4 JUMP JUMPDEST JUMPDEST SWAP1 PUSH1 0x0 MSTORE PUSH1 0x20 PUSH1 0x0 KECCAK256 SWAP1 PUSH1 0x2 MUL ADD PUSH1 0x1 DUP3 DUP2 SLOAD DUP2 LT PUSH2 0x435 JUMPI PUSH2 0x434 PUSH2 0x16C4 JUMP JUMPDEST JUMPDEST SWAP1 PUSH1 0x0 MSTORE PUSH1 0x20 PUSH1 0x0 KECCAK256 SWAP1 PUSH1 0x2 MUL ADD PUSH1 0x0 DUP3 ADD DUP2 PUSH1 0x0 ADD SWAP1 DUP1 SLOAD PUSH2 0x457 SWAP1 PUSH2 0x15BA JUMP JUMPDEST PUSH2 0x462 SWAP3 SWAP2 SWAP1 PUSH2 0xE54 JUMP JUMPDEST POP PUSH1 0x1 DUP3 ADD PUSH1 0x0 SWAP1 SLOAD SWAP1 PUSH2 0x100 EXP SWAP1 DIV PUSH20 0xFFFFFFFFFFFFFFFFFFFFFFFFFFFFFFFFFFFFFFFF AND DUP2 PUSH1 0x1 ADD PUSH1 0x0 PUSH2 0x100 EXP DUP2 SLOAD DUP2 PUSH20 0xFFFFFFFFFFFFFFFFFFFFFFFFFFFFFFFFFFFFFFFF MUL NOT AND SWAP1 DUP4 PUSH20 0xFFFFFFFFFFFFFFFFFFFFFFFFFFFFFFFFFFFFFFFF AND MUL OR SWAP1 SSTORE POP PUSH1 0x1 DUP3 ADD PUSH1 0x14 SWAP1 SLOAD SWAP1 PUSH2 0x100 EXP SWAP1 DIV PUSH1 0xFF AND DUP2 PUSH1 0x1 ADD PUSH1 0x14 PUSH2 0x100 EXP DUP2 SLOAD DUP2 PUSH1 0xFF MUL NOT AND SWAP1 DUP4 ISZERO ISZERO MUL OR SWAP1 SSTORE POP SWAP1 POP POP PUSH1 0x1 DUP1 PUSH1 0x2 SLOAD PUSH2 0x50A SWAP2 SWAP1 PUSH2 0x14D2 JUMP JUMPDEST DUP2 SLOAD DUP2 LT PUSH2 0x51B JUMPI PUSH2 0x51A PUSH2 0x16C4 JUMP JUMPDEST JUMPDEST SWAP1 PUSH1 0x0 MSTORE PUSH1 0x20 PUSH1 0x0 KECCAK256 SWAP1 PUSH1 0x2 MUL ADD PUSH1 0x0 DUP1 DUP3 ADD PUSH1 0x0 PUSH2 0x53A SWAP2 SWAP1 PUSH2 0xEE1 JUMP JUMPDEST PUSH1 0x1 DUP3 ADD PUSH1 0x0 PUSH2 0x100 EXP DUP2 SLOAD SWAP1 PUSH20 0xFFFFFFFFFFFFFFFFFFFFFFFFFFFFFFFFFFFFFFFF MUL NOT AND SWAP1 SSTORE PUSH1 0x1 DUP3 ADD PUSH1 0x14 PUSH2 0x100 EXP DUP2 SLOAD SWAP1 PUSH1 0xFF MUL NOT AND SWAP1 SSTORE POP POP PUSH1 0x2 PUSH1 0x0 DUP2 SLOAD DUP1 SWAP3 SWAP2 SWAP1 PUSH2 0x58A SWAP1 PUSH2 0x1590 JUMP JUMPDEST SWAP2 SWAP1 POP SSTORE POP PUSH1 0x1 SWAP2 POP POP PUSH2 0x5B2 JUMP JUMPDEST DUP1 DUP1 PUSH2 0x5A4 SWAP1 PUSH2 0x161D JUMP JUMPDEST SWAP2 POP POP PUSH2 0x32C JUMP JUMPDEST POP PUSH1 0x0 SWAP1 POP JUMPDEST SWAP2 SWAP1 POP JUMP JUMPDEST PUSH1 0x60 PUSH1 0x0 DUP1 PUSH1 0x0 JUMPDEST PUSH1 0x2 SLOAD DUP2 LT ISZERO PUSH2 0x7CE JUMPI PUSH2 0x680 PUSH1 0x1 DUP3 DUP2 SLOAD DUP2 LT PUSH2 0x5E0 JUMPI PUSH2 0x5DF PUSH2 0x16C4 JUMP JUMPDEST JUMPDEST SWAP1 PUSH1 0x0 MSTORE PUSH1 0x20 PUSH1 0x0 KECCAK256 SWAP1 PUSH1 0x2 MUL ADD PUSH1 0x0 ADD DUP1 SLOAD PUSH2 0x5FC SWAP1 PUSH2 0x15BA JUMP JUMPDEST DUP1 PUSH1 0x1F ADD PUSH1 0x20 DUP1 SWAP2 DIV MUL PUSH1 0x20 ADD PUSH1 0x40 MLOAD SWAP1 DUP2 ADD PUSH1 0x40 MSTORE DUP1 SWAP3 SWAP2 SWAP1 DUP2 DUP2 MSTORE PUSH1 0x20 ADD DUP3 DUP1 SLOAD PUSH2 0x628 SWAP1 PUSH2 0x15BA JUMP JUMPDEST DUP1 ISZERO PUSH2 0x675 JUMPI DUP1 PUSH1 0x1F LT PUSH2 0x64A JUMPI PUSH2 0x100 DUP1 DUP4 SLOAD DIV MUL DUP4 MSTORE SWAP2 PUSH1 0x20 ADD SWAP2 PUSH2 0x675 JUMP JUMPDEST DUP3 ADD SWAP2 SWAP1 PUSH1 0x0 MSTORE PUSH1 0x20 PUSH1 0x0 KECCAK256 SWAP1 JUMPDEST DUP2 SLOAD DUP2 MSTORE SWAP1 PUSH1 0x1 ADD SWAP1 PUSH1 0x20 ADD DUP1 DUP4 GT PUSH2 0x658 JUMPI DUP3 SWAP1 SUB PUSH1 0x1F AND DUP3 ADD SWAP2 JUMPDEST POP POP POP POP POP DUP7 PUSH2 0xD75 JUMP JUMPDEST ISZERO PUSH2 0x7BB JUMPI PUSH1 0x1 DUP2 DUP2 SLOAD DUP2 LT PUSH2 0x699 JUMPI PUSH2 0x698 PUSH2 0x16C4 JUMP JUMPDEST JUMPDEST SWAP1 PUSH1 0x0 MSTORE PUSH1 0x20 PUSH1 0x0 KECCAK256 SWAP1 PUSH1 0x2 MUL ADD PUSH1 0x0 ADD PUSH1 0x1 DUP3 DUP2 SLOAD DUP2 LT PUSH2 0x6BE JUMPI PUSH2 0x6BD PUSH2 0x16C4 JUMP JUMPDEST JUMPDEST SWAP1 PUSH1 0x0 MSTORE PUSH1 0x20 PUSH1 0x0 KECCAK256 SWAP1 PUSH1 0x2 MUL ADD PUSH1 0x1 ADD PUSH1 0x0 SWAP1 SLOAD SWAP1 PUSH2 0x100 EXP SWAP1 DIV PUSH20 0xFFFFFFFFFFFFFFFFFFFFFFFFFFFFFFFFFFFFFFFF AND PUSH1 0x1 DUP4 DUP2 SLOAD DUP2 LT PUSH2 0x704 JUMPI PUSH2 0x703 PUSH2 0x16C4 JUMP JUMPDEST JUMPDEST SWAP1 PUSH1 0x0 MSTORE PUSH1 0x20 PUSH1 0x0 KECCAK256 SWAP1 PUSH1 0x2 MUL ADD PUSH1 0x1 ADD PUSH1 0x14 SWAP1 SLOAD SWAP1 PUSH2 0x100 EXP SWAP1 DIV PUSH1 0xFF AND DUP3 DUP1 SLOAD PUSH2 0x72F SWAP1 PUSH2 0x15BA JUMP JUMPDEST DUP1 PUSH1 0x1F ADD PUSH1 0x20 DUP1 SWAP2 DIV MUL PUSH1 0x20 ADD PUSH1 0x40 MLOAD SWAP1 DUP2 ADD PUSH1 0x40 MSTORE DUP1 SWAP3 SWAP2 SWAP1 DUP2 DUP2 MSTORE PUSH1 0x20 ADD DUP3 DUP1 SLOAD PUSH2 0x75B SWAP1 PUSH2 0x15BA JUMP JUMPDEST DUP1 ISZERO PUSH2 0x7A8 JUMPI DUP1 PUSH1 0x1F LT PUSH2 0x77D JUMPI PUSH2 0x100 DUP1 DUP4 SLOAD DIV MUL DUP4 MSTORE SWAP2 PUSH1 0x20 ADD SWAP2 PUSH2 0x7A8 JUMP JUMPDEST DUP3 ADD SWAP2 SWAP1 PUSH1 0x0 MSTORE PUSH1 0x20 PUSH1 0x0 KECCAK256 SWAP1 JUMPDEST DUP2 SLOAD DUP2 MSTORE SWAP1 PUSH1 0x1 ADD SWAP1 PUSH1 0x20 ADD DUP1 DUP4 GT PUSH2 0x78B JUMPI DUP3 SWAP1 SUB PUSH1 0x1F AND DUP3 ADD SWAP2 JUMPDEST POP POP POP POP POP SWAP3 POP SWAP4 POP SWAP4 POP SWAP4 POP POP PUSH2 0x80A JUMP JUMPDEST DUP1 DUP1 PUSH2 0x7C6 SWAP1 PUSH2 0x161D JUMP JUMPDEST SWAP2 POP POP PUSH2 0x5BF JUMP JUMPDEST POP PUSH1 0x40 MLOAD PUSH32 0x8C379A000000000000000000000000000000000000000000000000000000000 DUP2 MSTORE PUSH1 0x4 ADD PUSH2 0x801 SWAP1 PUSH2 0x13D0 JUMP JUMPDEST PUSH1 0x40 MLOAD DUP1 SWAP2 SUB SWAP1 REVERT JUMPDEST SWAP2 SWAP4 SWAP1 SWAP3 POP JUMP JUMPDEST PUSH1 0x60 PUSH1 0x0 PUSH1 0x2 SLOAD PUSH8 0xFFFFFFFFFFFFFFFF DUP2 GT ISZERO PUSH2 0x831 JUMPI PUSH2 0x830 PUSH2 0x16F3 JUMP JUMPDEST JUMPDEST PUSH1 0x40 MLOAD SWAP1 DUP1 DUP3 MSTORE DUP1 PUSH1 0x20 MUL PUSH1 0x20 ADD DUP3 ADD PUSH1 0x40 MSTORE DUP1 ISZERO PUSH2 0x86A JUMPI DUP2 PUSH1 0x20 ADD JUMPDEST PUSH2 0x857 PUSH2 0xF21 JUMP JUMPDEST DUP2 MSTORE PUSH1 0x20 ADD SWAP1 PUSH1 0x1 SWAP1 SUB SWAP1 DUP2 PUSH2 0x84F JUMPI SWAP1 POP JUMPDEST POP SWAP1 POP PUSH1 0x0 JUMPDEST PUSH1 0x2 SLOAD DUP2 LT ISZERO PUSH2 0x9DB JUMPI PUSH1 0x1 DUP2 DUP2 SLOAD DUP2 LT PUSH2 0x88E JUMPI PUSH2 0x88D PUSH2 0x16C4 JUMP JUMPDEST JUMPDEST SWAP1 PUSH1 0x0 MSTORE PUSH1 0x20 PUSH1 0x0 KECCAK256 SWAP1 PUSH1 0x2 MUL ADD PUSH1 0x40 MLOAD DUP1 PUSH1 0x60 ADD PUSH1 0x40 MSTORE SWAP1 DUP2 PUSH1 0x0 DUP3 ADD DUP1 SLOAD PUSH2 0x8B7 SWAP1 PUSH2 0x15BA JUMP JUMPDEST DUP1 PUSH1 0x1F ADD PUSH1 0x20 DUP1 SWAP2 DIV MUL PUSH1 0x20 ADD PUSH1 0x40 MLOAD SWAP1 DUP2 ADD PUSH1 0x40 MSTORE DUP1 SWAP3 SWAP2 SWAP1 DUP2 DUP2 MSTORE PUSH1 0x20 ADD DUP3 DUP1 SLOAD PUSH2 0x8E3 SWAP1 PUSH2 0x15BA JUMP JUMPDEST DUP1 ISZERO PUSH2 0x930 JUMPI DUP1 PUSH1 0x1F LT PUSH2 0x905 JUMPI PUSH2 0x100 DUP1 DUP4 SLOAD DIV MUL DUP4 MSTORE SWAP2 PUSH1 0x20 ADD SWAP2 PUSH2 0x930 JUMP JUMPDEST DUP3 ADD SWAP2 SWAP1 PUSH1 0x0 MSTORE PUSH1 0x20 PUSH1 0x0 KECCAK256 SWAP1 JUMPDEST DUP2 SLOAD DUP2 MSTORE SWAP1 PUSH1 0x1 ADD SWAP1 PUSH1 0x20 ADD DUP1 DUP4 GT PUSH2 0x913 JUMPI DUP3 SWAP1 SUB PUSH1 0x1F AND DUP3 ADD SWAP2 JUMPDEST POP POP POP POP POP DUP2 MSTORE PUSH1 0x20 ADD PUSH1 0x1 DUP3 ADD PUSH1 0x0 SWAP1 SLOAD SWAP1 PUSH2 0x100 EXP SWAP1 DIV PUSH20 0xFFFFFFFFFFFFFFFFFFFFFFFFFFFFFFFFFFFFFFFF AND PUSH20 0xFFFFFFFFFFFFFFFFFFFFFFFFFFFFFFFFFFFFFFFF AND PUSH20 0xFFFFFFFFFFFFFFFFFFFFFFFFFFFFFFFFFFFFFFFF AND DUP2 MSTORE PUSH1 0x20 ADD PUSH1 0x1 DUP3 ADD PUSH1 0x14 SWAP1 SLOAD SWAP1 PUSH2 0x100 EXP SWAP1 DIV PUSH1 0xFF AND ISZERO ISZERO ISZERO ISZERO DUP2 MSTORE POP POP DUP3 DUP3 DUP2 MLOAD DUP2 LT PUSH2 0x9BD JUMPI PUSH2 0x9BC PUSH2 0x16C4 JUMP JUMPDEST JUMPDEST PUSH1 0x20 MUL PUSH1 0x20 ADD ADD DUP2 SWAP1 MSTORE POP DUP1 DUP1 PUSH2 0x9D3 SWAP1 PUSH2 0x161D JUMP JUMPDEST SWAP2 POP POP PUSH2 0x870 JUMP JUMPDEST POP DUP1 SWAP2 POP POP SWAP1 JUMP JUMPDEST PUSH1 0x0 PUSH1 0x1 DUP1 SLOAD SWAP1 POP SWAP1 POP SWAP1 JUMP JUMPDEST PUSH1 0x0 DUP1 PUSH1 0x0 SWAP1 POP JUMPDEST PUSH1 0x2 SLOAD DUP2 LT ISZERO PUSH2 0xB18 JUMPI PUSH2 0xAB9 PUSH1 0x1 DUP3 DUP2 SLOAD DUP2 LT PUSH2 0xA19 JUMPI PUSH2 0xA18 PUSH2 0x16C4 JUMP JUMPDEST JUMPDEST SWAP1 PUSH1 0x0 MSTORE PUSH1 0x20 PUSH1 0x0 KECCAK256 SWAP1 PUSH1 0x2 MUL ADD PUSH1 0x0 ADD DUP1 SLOAD PUSH2 0xA35 SWAP1 PUSH2 0x15BA JUMP JUMPDEST DUP1 PUSH1 0x1F ADD PUSH1 0x20 DUP1 SWAP2 DIV MUL PUSH1 0x20 ADD PUSH1 0x40 MLOAD SWAP1 DUP2 ADD PUSH1 0x40 MSTORE DUP1 SWAP3 SWAP2 SWAP1 DUP2 DUP2 MSTORE PUSH1 0x20 ADD DUP3 DUP1 SLOAD PUSH2 0xA61 SWAP1 PUSH2 0x15BA JUMP JUMPDEST DUP1 ISZERO PUSH2 0xAAE JUMPI DUP1 PUSH1 0x1F LT PUSH2 0xA83 JUMPI PUSH2 0x100 DUP1 DUP4 SLOAD DIV MUL DUP4 MSTORE SWAP2 PUSH1 0x20 ADD SWAP2 PUSH2 0xAAE JUMP JUMPDEST DUP3 ADD SWAP2 SWAP1 PUSH1 0x0 MSTORE PUSH1 0x20 PUSH1 0x0 KECCAK256 SWAP1 JUMPDEST DUP2 SLOAD DUP2 MSTORE SWAP1 PUSH1 0x1 ADD SWAP1 PUSH1 0x20 ADD DUP1 DUP4 GT PUSH2 0xA91 JUMPI DUP3 SWAP1 SUB PUSH1 0x1F AND DUP3 ADD SWAP2 JUMPDEST POP POP POP POP POP DUP6 PUSH2 0xD75 JUMP JUMPDEST ISZERO PUSH2 0xB05 JUMPI DUP3 PUSH1 0x1 DUP3 DUP2 SLOAD DUP2 LT PUSH2 0xAD3 JUMPI PUSH2 0xAD2 PUSH2 0x16C4 JUMP JUMPDEST JUMPDEST SWAP1 PUSH1 0x0 MSTORE PUSH1 0x20 PUSH1 0x0 KECCAK256 SWAP1 PUSH1 0x2 MUL ADD PUSH1 0x1 ADD PUSH1 0x14 PUSH2 0x100 EXP DUP2 SLOAD DUP2 PUSH1 0xFF MUL NOT AND SWAP1 DUP4 ISZERO ISZERO MUL OR SWAP1 SSTORE POP PUSH1 0x1 SWAP2 POP POP PUSH2 0xB1E JUMP JUMPDEST DUP1 DUP1 PUSH2 0xB10 SWAP1 PUSH2 0x161D JUMP JUMPDEST SWAP2 POP POP PUSH2 0x9F8 JUMP JUMPDEST POP PUSH1 0x0 SWAP1 POP JUMPDEST SWAP3 SWAP2 POP POP JUMP JUMPDEST PUSH1 0x60 PUSH1 0x1 DUP1 SLOAD DUP1 PUSH1 0x20 MUL PUSH1 0x20 ADD PUSH1 0x40 MLOAD SWAP1 DUP2 ADD PUSH1 0x40 MSTORE DUP1 SWAP3 SWAP2 SWAP1 DUP2 DUP2 MSTORE PUSH1 0x20 ADD PUSH1 0x0 SWAP1 JUMPDEST DUP3 DUP3 LT ISZERO PUSH2 0xC7D JUMPI DUP4 DUP3 SWAP1 PUSH1 0x0 MSTORE PUSH1 0x20 PUSH1 0x0 KECCAK256 SWAP1 PUSH1 0x2 MUL ADD PUSH1 0x40 MLOAD DUP1 PUSH1 0x60 ADD PUSH1 0x40 MSTORE SWAP1 DUP2 PUSH1 0x0 DUP3 ADD DUP1 SLOAD PUSH2 0xB7B SWAP1 PUSH2 0x15BA JUMP JUMPDEST DUP1 PUSH1 0x1F ADD PUSH1 0x20 DUP1 SWAP2 DIV MUL PUSH1 0x20 ADD PUSH1 0x40 MLOAD SWAP1 DUP2 ADD PUSH1 0x40 MSTORE DUP1 SWAP3 SWAP2 SWAP1 DUP2 DUP2 MSTORE PUSH1 0x20 ADD DUP3 DUP1 SLOAD PUSH2 0xBA7 SWAP1 PUSH2 0x15BA JUMP JUMPDEST DUP1 ISZERO PUSH2 0xBF4 JUMPI DUP1 PUSH1 0x1F LT PUSH2 0xBC9 JUMPI PUSH2 0x100 DUP1 DUP4 SLOAD DIV MUL DUP4 MSTORE SWAP2 PUSH1 0x20 ADD SWAP2 PUSH2 0xBF4 JUMP JUMPDEST DUP3 ADD SWAP2 SWAP1 PUSH1 0x0 MSTORE PUSH1 0x20 PUSH1 0x0 KECCAK256 SWAP1 JUMPDEST DUP2 SLOAD DUP2 MSTORE SWAP1 PUSH1 0x1 ADD SWAP1 PUSH1 0x20 ADD DUP1 DUP4 GT PUSH2 0xBD7 JUMPI DUP3 SWAP1 SUB PUSH1 0x1F AND DUP3 ADD SWAP2 JUMPDEST POP POP POP POP POP DUP2 MSTORE PUSH1 0x20 ADD PUSH1 0x1 DUP3 ADD PUSH1 0x0 SWAP1 SLOAD SWAP1 PUSH2 0x100 EXP SWAP1 DIV PUSH20 0xFFFFFFFFFFFFFFFFFFFFFFFFFFFFFFFFFFFFFFFF AND PUSH20 0xFFFFFFFFFFFFFFFFFFFFFFFFFFFFFFFFFFFFFFFF AND PUSH20 0xFFFFFFFFFFFFFFFFFFFFFFFFFFFFFFFFFFFFFFFF AND DUP2 MSTORE PUSH1 0x20 ADD PUSH1 0x1 DUP3 ADD PUSH1 0x14 SWAP1 SLOAD SWAP1 PUSH2 0x100 EXP SWAP1 DIV PUSH1 0xFF AND ISZERO ISZERO ISZERO ISZERO DUP2 MSTORE POP POP DUP2 MSTORE PUSH1 0x20 ADD SWAP1 PUSH1 0x1 ADD SWAP1 PUSH2 0xB48 JUMP JUMPDEST POP POP POP POP SWAP1 POP SWAP1 JUMP JUMPDEST PUSH1 0x1 DUP2 DUP2 SLOAD DUP2 LT PUSH2 0xC96 JUMPI PUSH1 0x0 DUP1 REVERT JUMPDEST SWAP1 PUSH1 0x0 MSTORE PUSH1 0x20 PUSH1 0x0 KECCAK256 SWAP1 PUSH1 0x2 MUL ADD PUSH1 0x0 SWAP2 POP SWAP1 POP DUP1 PUSH1 0x0 ADD DUP1 SLOAD PUSH2 0xCB9 SWAP1 PUSH2 0x15BA JUMP JUMPDEST DUP1 PUSH1 0x1F ADD PUSH1 0x20 DUP1 SWAP2 DIV MUL PUSH1 0x20 ADD PUSH1 0x40 MLOAD SWAP1 DUP2 ADD PUSH1 0x40 MSTORE DUP1 SWAP3 SWAP2 SWAP1 DUP2 DUP2 MSTORE PUSH1 0x20 ADD DUP3 DUP1 SLOAD PUSH2 0xCE5 SWAP1 PUSH2 0x15BA JUMP JUMPDEST DUP1 ISZERO PUSH2 0xD32 JUMPI DUP1 PUSH1 0x1F LT PUSH2 0xD07 JUMPI PUSH2 0x100 DUP1 DUP4 SLOAD DIV MUL DUP4 MSTORE SWAP2 PUSH1 0x20 ADD SWAP2 PUSH2 0xD32 JUMP JUMPDEST DUP3 ADD SWAP2 SWAP1 PUSH1 0x0 MSTORE PUSH1 0x20 PUSH1 0x0 KECCAK256 SWAP1 JUMPDEST DUP2 SLOAD DUP2 MSTORE SWAP1 PUSH1 0x1 ADD SWAP1 PUSH1 0x20 ADD DUP1 DUP4 GT PUSH2 0xD15 JUMPI DUP3 SWAP1 SUB PUSH1 0x1F AND DUP3 ADD SWAP2 JUMPDEST POP POP POP POP POP SWAP1 DUP1 PUSH1 0x1 ADD PUSH1 0x0 SWAP1 SLOAD SWAP1 PUSH2 0x100 EXP SWAP1 DIV PUSH20 0xFFFFFFFFFFFFFFFFFFFFFFFFFFFFFFFFFFFFFFFF AND SWAP1 DUP1 PUSH1 0x1 ADD PUSH1 0x14 SWAP1 SLOAD SWAP1 PUSH2 0x100 EXP SWAP1 DIV PUSH1 0xFF AND SWAP1 POP DUP4 JUMP JUMPDEST PUSH1 0x0 DUP2 PUSH1 0x40 MLOAD PUSH1 0x20 ADD PUSH2 0xD88 SWAP2 SWAP1 PUSH2 0x133E JUMP JUMPDEST PUSH1 0x40 MLOAD PUSH1 0x20 DUP2 DUP4 SUB SUB DUP2 MSTORE SWAP1 PUSH1 0x40 MSTORE DUP1 MLOAD SWAP1 PUSH1 0x20 ADD KECCAK256 DUP4 PUSH1 0x40 MLOAD PUSH1 0x20 ADD PUSH2 0xDAF SWAP2 SWAP1 PUSH2 0x133E JUMP JUMPDEST PUSH1 0x40 MLOAD PUSH1 0x20 DUP2 DUP4 SUB SUB DUP2 MSTORE SWAP1 PUSH1 0x40 MSTORE DUP1 MLOAD SWAP1 PUSH1 0x20 ADD KECCAK256 EQ SWAP1 POP SWAP3 SWAP2 POP POP JUMP JUMPDEST DUP3 DUP1 SLOAD PUSH2 0xDDA SWAP1 PUSH2 0x15BA JUMP JUMPDEST SWAP1 PUSH1 0x0 MSTORE PUSH1 0x20 PUSH1 0x0 KECCAK256 SWAP1 PUSH1 0x1F ADD PUSH1 0x20 SWAP1 DIV DUP2 ADD SWAP3 DUP3 PUSH2 0xDFC JUMPI PUSH1 0x0 DUP6 SSTORE PUSH2 0xE43 JUMP JUMPDEST DUP3 PUSH1 0x1F LT PUSH2 0xE15 JUMPI DUP1 MLOAD PUSH1 0xFF NOT AND DUP4 DUP1 ADD OR DUP6 SSTORE PUSH2 0xE43 JUMP JUMPDEST DUP3 DUP1 ADD PUSH1 0x1 ADD DUP6 SSTORE DUP3 ISZERO PUSH2 0xE43 JUMPI SWAP2 DUP3 ADD JUMPDEST DUP3 DUP2 GT ISZERO PUSH2 0xE42 JUMPI DUP3 MLOAD DUP3 SSTORE SWAP2 PUSH1 0x20 ADD SWAP2 SWAP1 PUSH1 0x1 ADD SWAP1 PUSH2 0xE27 JUMP JUMPDEST JUMPDEST POP SWAP1 POP PUSH2 0xE50 SWAP2 SWAP1 PUSH2 0xF5A JUMP JUMPDEST POP SWAP1 JUMP JUMPDEST DUP3 DUP1 SLOAD PUSH2 0xE60 SWAP1 PUSH2 0x15BA JUMP JUMPDEST SWAP1 PUSH1 0x0 MSTORE PUSH1 0x20 PUSH1 0x0 KECCAK256 SWAP1 PUSH1 0x1F ADD PUSH1 0x20 SWAP1 DIV DUP2 ADD SWAP3 DUP3 PUSH2 0xE82 JUMPI PUSH1 0x0 DUP6 SSTORE PUSH2 0xED0 JUMP JUMPDEST DUP3 PUSH1 0x1F LT PUSH2 0xE93 JUMPI DUP1 SLOAD DUP6 SSTORE PUSH2 0xED0 JUMP JUMPDEST DUP3 DUP1 ADD PUSH1 0x1 ADD DUP6 SSTORE DUP3 ISZERO PUSH2 0xED0 JUMPI PUSH1 0x0 MSTORE PUSH1 0x20 PUSH1 0x0 KECCAK256 SWAP2 PUSH1 0x1F ADD PUSH1 0x20 SWAP1 DIV DUP3 ADD JUMPDEST DUP3 DUP2 GT ISZERO PUSH2 0xECF JUMPI DUP3 SLOAD DUP3 SSTORE SWAP2 PUSH1 0x1 ADD SWAP2 SWAP1 PUSH1 0x1 ADD SWAP1 PUSH2 0xEB4 JUMP JUMPDEST JUMPDEST POP SWAP1 POP PUSH2 0xEDD SWAP2 SWAP1 PUSH2 0xF5A JUMP JUMPDEST POP SWAP1 JUMP JUMPDEST POP DUP1 SLOAD PUSH2 0xEED SWAP1 PUSH2 0x15BA JUMP JUMPDEST PUSH1 0x0 DUP3 SSTORE DUP1 PUSH1 0x1F LT PUSH2 0xEFF JUMPI POP PUSH2 0xF1E JUMP JUMPDEST PUSH1 0x1F ADD PUSH1 0x20 SWAP1 DIV SWAP1 PUSH1 0x0 MSTORE PUSH1 0x20 PUSH1 0x0 KECCAK256 SWAP1 DUP2 ADD SWAP1 PUSH2 0xF1D SWAP2 SWAP1 PUSH2 0xF5A JUMP JUMPDEST JUMPDEST POP JUMP JUMPDEST PUSH1 0x40 MLOAD DUP1 PUSH1 0x60 ADD PUSH1 0x40 MSTORE DUP1 PUSH1 0x60 DUP2 MSTORE PUSH1 0x20 ADD PUSH1 0x0 PUSH20 0xFFFFFFFFFFFFFFFFFFFFFFFFFFFFFFFFFFFFFFFF AND DUP2 MSTORE PUSH1 0x20 ADD PUSH1 0x0 ISZERO ISZERO DUP2 MSTORE POP SWAP1 JUMP JUMPDEST JUMPDEST DUP1 DUP3 GT ISZERO PUSH2 0xF73 JUMPI PUSH1 0x0 DUP2 PUSH1 0x0 SWAP1 SSTORE POP PUSH1 0x1 ADD PUSH2 0xF5B JUMP JUMPDEST POP SWAP1 JUMP JUMPDEST PUSH1 0x0 PUSH2 0xF8A PUSH2 0xF85 DUP5 PUSH2 0x1430 JUMP JUMPDEST PUSH2 0x140B JUMP JUMPDEST SWAP1 POP DUP3 DUP2 MSTORE PUSH1 0x20 DUP2 ADD DUP5 DUP5 DUP5 ADD GT ISZERO PUSH2 0xFA6 JUMPI PUSH2 0xFA5 PUSH2 0x1727 JUMP JUMPDEST JUMPDEST PUSH2 0xFB1 DUP5 DUP3 DUP6 PUSH2 0x154E JUMP JUMPDEST POP SWAP4 SWAP3 POP POP POP JUMP JUMPDEST PUSH1 0x0 DUP2 CALLDATALOAD SWAP1 POP PUSH2 0xFC8 DUP2 PUSH2 0x1770 JUMP JUMPDEST SWAP3 SWAP2 POP POP JUMP JUMPDEST PUSH1 0x0 DUP2 CALLDATALOAD SWAP1 POP PUSH2 0xFDD DUP2 PUSH2 0x1787 JUMP JUMPDEST SWAP3 SWAP2 POP POP JUMP JUMPDEST PUSH1 0x0 DUP3 PUSH1 0x1F DUP4 ADD SLT PUSH2 0xFF8 JUMPI PUSH2 0xFF7 PUSH2 0x1722 JUMP JUMPDEST JUMPDEST DUP2 CALLDATALOAD PUSH2 0x1008 DUP5 DUP3 PUSH1 0x20 DUP7 ADD PUSH2 0xF77 JUMP JUMPDEST SWAP2 POP POP SWAP3 SWAP2 POP POP JUMP JUMPDEST PUSH1 0x0 DUP2 CALLDATALOAD SWAP1 POP PUSH2 0x1020 DUP2 PUSH2 0x179E JUMP JUMPDEST SWAP3 SWAP2 POP POP JUMP JUMPDEST PUSH1 0x0 PUSH1 0x20 DUP3 DUP5 SUB SLT ISZERO PUSH2 0x103C JUMPI PUSH2 0x103B PUSH2 0x1731 JUMP JUMPDEST JUMPDEST PUSH1 0x0 DUP3 ADD CALLDATALOAD PUSH8 0xFFFFFFFFFFFFFFFF DUP2 GT ISZERO PUSH2 0x105A JUMPI PUSH2 0x1059 PUSH2 0x172C JUMP JUMPDEST JUMPDEST PUSH2 0x1066 DUP5 DUP3 DUP6 ADD PUSH2 0xFE3 JUMP JUMPDEST SWAP2 POP POP SWAP3 SWAP2 POP POP JUMP JUMPDEST PUSH1 0x0 DUP1 PUSH1 0x40 DUP4 DUP6 SUB SLT ISZERO PUSH2 0x1086 JUMPI PUSH2 0x1085 PUSH2 0x1731 JUMP JUMPDEST JUMPDEST PUSH1 0x0 DUP4 ADD CALLDATALOAD PUSH8 0xFFFFFFFFFFFFFFFF DUP2 GT ISZERO PUSH2 0x10A4 JUMPI PUSH2 0x10A3 PUSH2 0x172C JUMP JUMPDEST JUMPDEST PUSH2 0x10B0 DUP6 DUP3 DUP7 ADD PUSH2 0xFE3 JUMP JUMPDEST SWAP3 POP POP PUSH1 0x20 PUSH2 0x10C1 DUP6 DUP3 DUP7 ADD PUSH2 0xFB9 JUMP JUMPDEST SWAP2 POP POP SWAP3 POP SWAP3 SWAP1 POP JUMP JUMPDEST PUSH1 0x0 DUP1 PUSH1 0x40 DUP4 DUP6 SUB SLT ISZERO PUSH2 0x10E2 JUMPI PUSH2 0x10E1 PUSH2 0x1731 JUMP JUMPDEST JUMPDEST PUSH1 0x0 DUP4 ADD CALLDATALOAD PUSH8 0xFFFFFFFFFFFFFFFF DUP2 GT ISZERO PUSH2 0x1100 JUMPI PUSH2 0x10FF PUSH2 0x172C JUMP JUMPDEST JUMPDEST PUSH2 0x110C DUP6 DUP3 DUP7 ADD PUSH2 0xFE3 JUMP JUMPDEST SWAP3 POP POP PUSH1 0x20 PUSH2 0x111D DUP6 DUP3 DUP7 ADD PUSH2 0xFCE JUMP JUMPDEST SWAP2 POP POP SWAP3 POP SWAP3 SWAP1 POP JUMP JUMPDEST PUSH1 0x0 PUSH1 0x20 DUP3 DUP5 SUB SLT ISZERO PUSH2 0x113D JUMPI PUSH2 0x113C PUSH2 0x1731 JUMP JUMPDEST JUMPDEST PUSH1 0x0 PUSH2 0x114B DUP5 DUP3 DUP6 ADD PUSH2 0x1011 JUMP JUMPDEST SWAP2 POP POP SWAP3 SWAP2 POP POP JUMP JUMPDEST PUSH1 0x0 PUSH2 0x1160 DUP4 DUP4 PUSH2 0x12DF JUMP JUMPDEST SWAP1 POP SWAP3 SWAP2 POP POP JUMP JUMPDEST PUSH2 0x1171 DUP2 PUSH2 0x1506 JUMP JUMPDEST DUP3 MSTORE POP POP JUMP JUMPDEST PUSH2 0x1180 DUP2 PUSH2 0x1506 JUMP JUMPDEST DUP3 MSTORE POP POP JUMP JUMPDEST PUSH1 0x0 PUSH2 0x1191 DUP3 PUSH2 0x1471 JUMP JUMPDEST PUSH2 0x119B DUP2 DUP6 PUSH2 0x1494 JUMP JUMPDEST SWAP4 POP DUP4 PUSH1 0x20 DUP3 MUL DUP6 ADD PUSH2 0x11AD DUP6 PUSH2 0x1461 JUMP JUMPDEST DUP1 PUSH1 0x0 JUMPDEST DUP6 DUP2 LT ISZERO PUSH2 0x11E9 JUMPI DUP5 DUP5 SUB DUP10 MSTORE DUP2 MLOAD PUSH2 0x11CA DUP6 DUP3 PUSH2 0x1154 JUMP JUMPDEST SWAP5 POP PUSH2 0x11D5 DUP4 PUSH2 0x1487 JUMP JUMPDEST SWAP3 POP PUSH1 0x20 DUP11 ADD SWAP10 POP POP PUSH1 0x1 DUP2 ADD SWAP1 POP PUSH2 0x11B1 JUMP JUMPDEST POP DUP3 SWAP8 POP DUP8 SWAP6 POP POP POP POP POP POP SWAP3 SWAP2 POP POP JUMP JUMPDEST PUSH2 0x1204 DUP2 PUSH2 0x1518 JUMP JUMPDEST DUP3 MSTORE POP POP JUMP JUMPDEST PUSH2 0x1213 DUP2 PUSH2 0x1518 JUMP JUMPDEST DUP3 MSTORE POP POP JUMP JUMPDEST PUSH1 0x0 PUSH2 0x1224 DUP3 PUSH2 0x147C JUMP JUMPDEST PUSH2 0x122E DUP2 DUP6 PUSH2 0x14A5 JUMP JUMPDEST SWAP4 POP PUSH2 0x123E DUP2 DUP6 PUSH1 0x20 DUP7 ADD PUSH2 0x155D JUMP JUMPDEST PUSH2 0x1247 DUP2 PUSH2 0x1736 JUMP JUMPDEST DUP5 ADD SWAP2 POP POP SWAP3 SWAP2 POP POP JUMP JUMPDEST PUSH1 0x0 PUSH2 0x125D DUP3 PUSH2 0x147C JUMP JUMPDEST PUSH2 0x1267 DUP2 DUP6 PUSH2 0x14B6 JUMP JUMPDEST SWAP4 POP PUSH2 0x1277 DUP2 DUP6 PUSH1 0x20 DUP7 ADD PUSH2 0x155D JUMP JUMPDEST PUSH2 0x1280 DUP2 PUSH2 0x1736 JUMP JUMPDEST DUP5 ADD SWAP2 POP POP SWAP3 SWAP2 POP POP JUMP JUMPDEST PUSH1 0x0 PUSH2 0x1296 DUP3 PUSH2 0x147C JUMP JUMPDEST PUSH2 0x12A0 DUP2 DUP6 PUSH2 0x14C7 JUMP JUMPDEST SWAP4 POP PUSH2 0x12B0 DUP2 DUP6 PUSH1 0x20 DUP7 ADD PUSH2 0x155D JUMP JUMPDEST DUP1 DUP5 ADD SWAP2 POP POP SWAP3 SWAP2 POP POP JUMP JUMPDEST PUSH1 0x0 PUSH2 0x12C9 PUSH1 0xE DUP4 PUSH2 0x14B6 JUMP JUMPDEST SWAP2 POP PUSH2 0x12D4 DUP3 PUSH2 0x1747 JUMP JUMPDEST PUSH1 0x20 DUP3 ADD SWAP1 POP SWAP2 SWAP1 POP JUMP JUMPDEST PUSH1 0x0 PUSH1 0x60 DUP4 ADD PUSH1 0x0 DUP4 ADD MLOAD DUP5 DUP3 SUB PUSH1 0x0 DUP7 ADD MSTORE PUSH2 0x12FC DUP3 DUP3 PUSH2 0x1219 JUMP JUMPDEST SWAP2 POP POP PUSH1 0x20 DUP4 ADD MLOAD PUSH2 0x1311 PUSH1 0x20 DUP7 ADD DUP3 PUSH2 0x1168 JUMP JUMPDEST POP PUSH1 0x40 DUP4 ADD MLOAD PUSH2 0x1324 PUSH1 0x40 DUP7 ADD DUP3 PUSH2 0x11FB JUMP JUMPDEST POP DUP1 SWAP2 POP POP SWAP3 SWAP2 POP POP JUMP JUMPDEST PUSH2 0x1338 DUP2 PUSH2 0x1544 JUMP JUMPDEST DUP3 MSTORE POP POP JUMP JUMPDEST PUSH1 0x0 PUSH2 0x134A DUP3 DUP5 PUSH2 0x128B JUMP JUMPDEST SWAP2 POP DUP2 SWAP1 POP SWAP3 SWAP2 POP POP JUMP JUMPDEST PUSH1 0x0 PUSH1 0x20 DUP3 ADD SWAP1 POP DUP2 DUP2 SUB PUSH1 0x0 DUP4 ADD MSTORE PUSH2 0x136F DUP2 DUP5 PUSH2 0x1186 JUMP JUMPDEST SWAP1 POP SWAP3 SWAP2 POP POP JUMP JUMPDEST PUSH1 0x0 PUSH1 0x20 DUP3 ADD SWAP1 POP PUSH2 0x138C PUSH1 0x0 DUP4 ADD DUP5 PUSH2 0x120A JUMP JUMPDEST SWAP3 SWAP2 POP POP JUMP JUMPDEST PUSH1 0x0 PUSH1 0x60 DUP3 ADD SWAP1 POP DUP2 DUP2 SUB PUSH1 0x0 DUP4 ADD MSTORE PUSH2 0x13AC DUP2 DUP7 PUSH2 0x1252 JUMP JUMPDEST SWAP1 POP PUSH2 0x13BB PUSH1 0x20 DUP4 ADD DUP6 PUSH2 0x1177 JUMP JUMPDEST PUSH2 0x13C8 PUSH1 0x40 DUP4 ADD DUP5 PUSH2 0x120A JUMP JUMPDEST SWAP5 SWAP4 POP POP POP POP JUMP JUMPDEST PUSH1 0x0 PUSH1 0x20 DUP3 ADD SWAP1 POP DUP2 DUP2 SUB PUSH1 0x0 DUP4 ADD MSTORE PUSH2 0x13E9 DUP2 PUSH2 0x12BC JUMP JUMPDEST SWAP1 POP SWAP2 SWAP1 POP JUMP JUMPDEST PUSH1 0x0 PUSH1 0x20 DUP3 ADD SWAP1 POP PUSH2 0x1405 PUSH1 0x0 DUP4 ADD DUP5 PUSH2 0x132F JUMP JUMPDEST SWAP3 SWAP2 POP POP JUMP JUMPDEST PUSH1 0x0 PUSH2 0x1415 PUSH2 0x1426 JUMP JUMPDEST SWAP1 POP PUSH2 0x1421 DUP3 DUP3 PUSH2 0x15EC JUMP JUMPDEST SWAP2 SWAP1 POP JUMP JUMPDEST PUSH1 0x0 PUSH1 0x40 MLOAD SWAP1 POP SWAP1 JUMP JUMPDEST PUSH1 0x0 PUSH8 0xFFFFFFFFFFFFFFFF DUP3 GT ISZERO PUSH2 0x144B JUMPI PUSH2 0x144A PUSH2 0x16F3 JUMP JUMPDEST JUMPDEST PUSH2 0x1454 DUP3 PUSH2 0x1736 JUMP JUMPDEST SWAP1 POP PUSH1 0x20 DUP2 ADD SWAP1 POP SWAP2 SWAP1 POP JUMP JUMPDEST PUSH1 0x0 DUP2 SWAP1 POP PUSH1 0x20 DUP3 ADD SWAP1 POP SWAP2 SWAP1 POP JUMP JUMPDEST PUSH1 0x0 DUP2 MLOAD SWAP1 POP SWAP2 SWAP1 POP JUMP JUMPDEST PUSH1 0x0 DUP2 MLOAD SWAP1 POP SWAP2 SWAP1 POP JUMP JUMPDEST PUSH1 0x0 PUSH1 0x20 DUP3 ADD SWAP1 POP SWAP2 SWAP1 POP JUMP JUMPDEST PUSH1 0x0 DUP3 DUP3 MSTORE PUSH1 0x20 DUP3 ADD SWAP1 POP SWAP3 SWAP2 POP POP JUMP JUMPDEST PUSH1 0x0 DUP3 DUP3 MSTORE PUSH1 0x20 DUP3 ADD SWAP1 POP SWAP3 SWAP2 POP POP JUMP JUMPDEST PUSH1 0x0 DUP3 DUP3 MSTORE PUSH1 0x20 DUP3 ADD SWAP1 POP SWAP3 SWAP2 POP POP JUMP JUMPDEST PUSH1 0x0 DUP2 SWAP1 POP SWAP3 SWAP2 POP POP JUMP JUMPDEST PUSH1 0x0 PUSH2 0x14DD DUP3 PUSH2 0x1544 JUMP JUMPDEST SWAP2 POP PUSH2 0x14E8 DUP4 PUSH2 0x1544 JUMP JUMPDEST SWAP3 POP DUP3 DUP3 LT ISZERO PUSH2 0x14FB JUMPI PUSH2 0x14FA PUSH2 0x1666 JUMP JUMPDEST JUMPDEST DUP3 DUP3 SUB SWAP1 POP SWAP3 SWAP2 POP POP JUMP JUMPDEST PUSH1 0x0 PUSH2 0x1511 DUP3 PUSH2 0x1524 JUMP JUMPDEST SWAP1 POP SWAP2 SWAP1 POP JUMP JUMPDEST PUSH1 0x0 DUP2 ISZERO ISZERO SWAP1 POP SWAP2 SWAP1 POP JUMP JUMPDEST PUSH1 0x0 PUSH20 0xFFFFFFFFFFFFFFFFFFFFFFFFFFFFFFFFFFFFFFFF DUP3 AND SWAP1 POP SWAP2 SWAP1 POP JUMP JUMPDEST PUSH1 0x0 DUP2 SWAP1 POP SWAP2 SWAP1 POP JUMP JUMPDEST DUP3 DUP2 DUP4 CALLDATACOPY PUSH1 0x0 DUP4 DUP4 ADD MSTORE POP POP POP JUMP JUMPDEST PUSH1 0x0 JUMPDEST DUP4 DUP2 LT ISZERO PUSH2 0x157B JUMPI DUP1 DUP3 ADD MLOAD DUP2 DUP5 ADD MSTORE PUSH1 0x20 DUP2 ADD SWAP1 POP PUSH2 0x1560 JUMP JUMPDEST DUP4 DUP2 GT ISZERO PUSH2 0x158A JUMPI PUSH1 0x0 DUP5 DUP5 ADD MSTORE JUMPDEST POP POP POP POP JUMP JUMPDEST PUSH1 0x0 PUSH2 0x159B DUP3 PUSH2 0x1544 JUMP JUMPDEST SWAP2 POP PUSH1 0x0 DUP3 EQ ISZERO PUSH2 0x15AF JUMPI PUSH2 0x15AE PUSH2 0x1666 JUMP JUMPDEST JUMPDEST PUSH1 0x1 DUP3 SUB SWAP1 POP SWAP2 SWAP1 POP JUMP JUMPDEST PUSH1 0x0 PUSH1 0x2 DUP3 DIV SWAP1 POP PUSH1 0x1 DUP3 AND DUP1 PUSH2 0x15D2 JUMPI PUSH1 0x7F DUP3 AND SWAP2 POP JUMPDEST PUSH1 0x20 DUP3 LT DUP2 EQ ISZERO PUSH2 0x15E6 JUMPI PUSH2 0x15E5 PUSH2 0x1695 JUMP JUMPDEST JUMPDEST POP SWAP2 SWAP1 POP JUMP JUMPDEST PUSH2 0x15F5 DUP3 PUSH2 0x1736 JUMP JUMPDEST DUP2 ADD DUP2 DUP2 LT PUSH8 0xFFFFFFFFFFFFFFFF DUP3 GT OR ISZERO PUSH2 0x1614 JUMPI PUSH2 0x1613 PUSH2 0x16F3 JUMP JUMPDEST JUMPDEST DUP1 PUSH1 0x40 MSTORE POP POP POP JUMP JUMPDEST PUSH1 0x0 PUSH2 0x1628 DUP3 PUSH2 0x1544 JUMP JUMPDEST SWAP2 POP PUSH32 0xFFFFFFFFFFFFFFFFFFFFFFFFFFFFFFFFFFFFFFFFFFFFFFFFFFFFFFFFFFFFFFFF DUP3 EQ ISZERO PUSH2 0x165B JUMPI PUSH2 0x165A PUSH2 0x1666 JUMP JUMPDEST JUMPDEST PUSH1 0x1 DUP3 ADD SWAP1 POP SWAP2 SWAP1 POP JUMP JUMPDEST PUSH32 0x4E487B7100000000000000000000000000000000000000000000000000000000 PUSH1 0x0 MSTORE PUSH1 0x11 PUSH1 0x4 MSTORE PUSH1 0x24 PUSH1 0x0 REVERT JUMPDEST PUSH32 0x4E487B7100000000000000000000000000000000000000000000000000000000 PUSH1 0x0 MSTORE PUSH1 0x22 PUSH1 0x4 MSTORE PUSH1 0x24 PUSH1 0x0 REVERT JUMPDEST PUSH32 0x4E487B7100000000000000000000000000000000000000000000000000000000 PUSH1 0x0 MSTORE PUSH1 0x32 PUSH1 0x4 MSTORE PUSH1 0x24 PUSH1 0x0 REVERT JUMPDEST PUSH32 0x4E487B7100000000000000000000000000000000000000000000000000000000 PUSH1 0x0 MSTORE PUSH1 0x41 PUSH1 0x4 MSTORE PUSH1 0x24 PUSH1 0x0 REVERT JUMPDEST PUSH1 0x0 DUP1 REVERT JUMPDEST PUSH1 0x0 DUP1 REVERT JUMPDEST PUSH1 0x0 DUP1 REVERT JUMPDEST PUSH1 0x0 DUP1 REVERT JUMPDEST PUSH1 0x0 PUSH1 0x1F NOT PUSH1 0x1F DUP4 ADD AND SWAP1 POP SWAP2 SWAP1 POP JUMP JUMPDEST PUSH32 0x64727567206E6F7420666F756E64000000000000000000000000000000000000 PUSH1 0x0 DUP3 ADD MSTORE POP JUMP JUMPDEST PUSH2 0x1779 DUP2 PUSH2 0x1506 JUMP JUMPDEST DUP2 EQ PUSH2 0x1784 JUMPI PUSH1 0x0 DUP1 REVERT JUMPDEST POP JUMP JUMPDEST PUSH2 0x1790 DUP2 PUSH2 0x1518 JUMP JUMPDEST DUP2 EQ PUSH2 0x179B JUMPI PUSH1 0x0 DUP1 REVERT JUMPDEST POP JUMP JUMPDEST PUSH2 0x17A7 DUP2 PUSH2 0x1544 JUMP JUMPDEST DUP2 EQ PUSH2 0x17B2 JUMPI PUSH1 0x0 DUP1 REVERT JUMPDEST POP JUMP INVALID LOG2 PUSH5 0x6970667358 0x22 SLT KECCAK256 0xD0 DIFFICULTY DIV CALLDATALOAD MOD 0xDE 0xE4 JUMP 0xFB SLOAD PUSH13 0xB6AAEF6726BA43B7EC72D436EF PUSH26 0x76FCCEBD36B4CD64736F6C634300080700330000000000000000 "
				},
				"gasEstimates": {
					"creation": {
						"codeDepositCost": "1224600",
						"executionCost": "6289",
						"totalCost": "1230889"
					},
					"external": {
						"deleteDrug(string)": "infinite",
						"drugs(uint256)": "infinite",
						"getDrug(string)": "infinite",
						"getDrugs2()": "infinite",
						"getDrugss()": "infinite",
						"gettotalDrugs()": "2467",
						"insert(string,address)": "infinite",
						"totalDrugs()": "2430",
						"updateDrugStatus(string,bool)": "infinite"
					},
					"internal": {
						"compareStrings(string memory,string memory)": "infinite"
					}
				},
				"methodIdentifiers": {
					"deleteDrug(string)": "6a4e2b6a",
					"drugs(uint256)": "fca5e61e",
					"getDrug(string)": "7ecd4492",
					"getDrugs2()": "f6724f4b",
					"getDrugss()": "a548beb0",
					"gettotalDrugs()": "d0037831",
					"insert(string,address)": "31afac36",
					"totalDrugs()": "1685a5ac",
					"updateDrugStatus(string,bool)": "e657ae69"
				}
			},
			"storageLayout": {
				"storage": [
					{
						"astId": 11,
						"contract": "contracts/NewDrugs.sol:Drugs",
						"label": "owner",
						"offset": 0,
						"slot": "0",
						"type": "t_address"
					},
					{
						"astId": 33,
						"contract": "contracts/NewDrugs.sol:Drugs",
						"label": "drugs",
						"offset": 0,
						"slot": "1",
						"type": "t_array(t_struct(drug)9_storage)dyn_storage"
					},
					{
						"astId": 35,
						"contract": "contracts/NewDrugs.sol:Drugs",
						"label": "totalDrugs",
						"offset": 0,
						"slot": "2",
						"type": "t_uint256"
					}
				],
				"types": {
					"t_address": {
						"encoding": "inplace",
						"label": "address",
						"numberOfBytes": "20"
					},
					"t_array(t_struct(drug)9_storage)dyn_storage": {
						"base": "t_struct(drug)9_storage",
						"encoding": "dynamic_array",
						"label": "struct Drugs.drug[]",
						"numberOfBytes": "32"
					},
					"t_bool": {
						"encoding": "inplace",
						"label": "bool",
						"numberOfBytes": "1"
					},
					"t_string_storage": {
						"encoding": "bytes",
						"label": "string",
						"numberOfBytes": "32"
					},
					"t_struct(drug)9_storage": {
						"encoding": "inplace",
						"label": "struct Drugs.drug",
						"members": [
							{
								"astId": 4,
								"contract": "contracts/NewDrugs.sol:Drugs",
								"label": "regNo",
								"offset": 0,
								"slot": "0",
								"type": "t_string_storage"
							},
							{
								"astId": 6,
								"contract": "contracts/NewDrugs.sol:Drugs",
								"label": "manufacturer",
								"offset": 0,
								"slot": "1",
								"type": "t_address"
							},
							{
								"astId": 8,
								"contract": "contracts/NewDrugs.sol:Drugs",
								"label": "isActive",
								"offset": 20,
								"slot": "1",
								"type": "t_bool"
							}
						],
						"numberOfBytes": "64"
					},
					"t_uint256": {
						"encoding": "inplace",
						"label": "uint256",
						"numberOfBytes": "32"
					}
				}
			},
			"userdoc": {
				"kind": "user",
				"methods": {},
				"version": 1
			}
		}
	}
}