{
	"contracts/Transaction.sol": {
		"Transactions": {
			"abi": [
				{
					"inputs": [],
					"stateMutability": "nonpayable",
					"type": "constructor"
				},
				{
					"inputs": [
						{
							"internalType": "uint256",
							"name": "_patchno",
							"type": "uint256"
						},
						{
							"internalType": "uint256",
							"name": "_currentowner",
							"type": "uint256"
						},
						{
							"internalType": "uint256",
							"name": "_fromowner",
							"type": "uint256"
						},
						{
							"internalType": "uint256",
							"name": "_transamount",
							"type": "uint256"
						},
						{
							"internalType": "uint256",
							"name": "_transdate",
							"type": "uint256"
						}
					],
					"name": "addTransaction",
					"outputs": [],
					"stateMutability": "nonpayable",
					"type": "function"
				},
				{
					"inputs": [
						{
							"internalType": "uint256",
							"name": "_transid",
							"type": "uint256"
						}
					],
					"name": "get",
					"outputs": [
						{
							"components": [
								{
									"internalType": "uint256",
									"name": "TransactionID",
									"type": "uint256"
								},
								{
									"internalType": "uint256",
									"name": "PatchNo",
									"type": "uint256"
								},
								{
									"internalType": "uint256",
									"name": "CurrentOwner",
									"type": "uint256"
								},
								{
									"internalType": "uint256",
									"name": "FromOwner",
									"type": "uint256"
								},
								{
									"internalType": "uint256",
									"name": "TransferedAmount",
									"type": "uint256"
								},
								{
									"internalType": "uint256",
									"name": "TransactionDate",
									"type": "uint256"
								}
							],
							"internalType": "struct Transactions.Transaction",
							"name": "",
							"type": "tuple"
						}
					],
					"stateMutability": "view",
					"type": "function"
				},
				{
					"inputs": [
						{
							"internalType": "uint256",
							"name": "",
							"type": "uint256"
						}
					],
					"name": "transactions",
					"outputs": [
						{
							"internalType": "uint256",
							"name": "TransactionID",
							"type": "uint256"
						},
						{
							"internalType": "uint256",
							"name": "PatchNo",
							"type": "uint256"
						},
						{
							"internalType": "uint256",
							"name": "CurrentOwner",
							"type": "uint256"
						},
						{
							"internalType": "uint256",
							"name": "FromOwner",
							"type": "uint256"
						},
						{
							"internalType": "uint256",
							"name": "TransferedAmount",
							"type": "uint256"
						},
						{
							"internalType": "uint256",
							"name": "TransactionDate",
							"type": "uint256"
						}
					],
					"stateMutability": "view",
					"type": "function"
				},
				{
					"inputs": [],
					"name": "transactionsCount",
					"outputs": [
						{
							"internalType": "uint256",
							"name": "",
							"type": "uint256"
						}
					],
					"stateMutability": "view",
					"type": "function"
				}
			],
			"devdoc": {
				"kind": "dev",
				"methods": {},
				"version": 1
			},
			"evm": {
				"assembly": "    /* \"contracts/Transaction.sol\":62:912  contract Transactions{\r... */\n  mstore(0x40, 0x80)\n    /* \"contracts/Transaction.sol\":434:489  constructor()  {\r... */\n  callvalue\n  dup1\n  iszero\n  tag_1\n  jumpi\n  0x00\n  dup1\n  revert\ntag_1:\n  pop\n    /* \"contracts/Transaction.sol\":480:481  0 */\n  0x00\n    /* \"contracts/Transaction.sol\":460:477  transactionsCount */\n  0x01\n    /* \"contracts/Transaction.sol\":460:481  transactionsCount = 0 */\n  dup2\n  swap1\n  sstore\n  pop\n    /* \"contracts/Transaction.sol\":62:912  contract Transactions{\r... */\n  dataSize(sub_0)\n  dup1\n  dataOffset(sub_0)\n  0x00\n  codecopy\n  0x00\n  return\nstop\n\nsub_0: assembly {\n        /* \"contracts/Transaction.sol\":62:912  contract Transactions{\r... */\n      mstore(0x40, 0x80)\n      callvalue\n      dup1\n      iszero\n      tag_1\n      jumpi\n      0x00\n      dup1\n      revert\n    tag_1:\n      pop\n      jumpi(tag_2, lt(calldatasize, 0x04))\n      shr(0xe0, calldataload(0x00))\n      dup1\n      0x634e1a29\n      eq\n      tag_3\n      jumpi\n      dup1\n      0x9507d39a\n      eq\n      tag_4\n      jumpi\n      dup1\n      0x9ace38c2\n      eq\n      tag_5\n      jumpi\n      dup1\n      0xfd99a746\n      eq\n      tag_6\n      jumpi\n    tag_2:\n      0x00\n      dup1\n      revert\n        /* \"contracts/Transaction.sol\":497:791  function addTransaction(uint _patchno, uint _currentowner, uint _fromowner, uint _transamount, uint _transdate) public {\r... */\n    tag_3:\n      tag_7\n      0x04\n      dup1\n      calldatasize\n      sub\n      dup2\n      add\n      swap1\n      tag_8\n      swap2\n      swap1\n      tag_9\n      jump\t// in\n    tag_8:\n      tag_10\n      jump\t// in\n    tag_7:\n      stop\n        /* \"contracts/Transaction.sol\":799:909  function get(uint _transid) public view returns(Transaction memory) {\r... */\n    tag_4:\n      tag_11\n      0x04\n      dup1\n      calldatasize\n      sub\n      dup2\n      add\n      swap1\n      tag_12\n      swap2\n      swap1\n      tag_13\n      jump\t// in\n    tag_12:\n      tag_14\n      jump\t// in\n    tag_11:\n      mload(0x40)\n      tag_15\n      swap2\n      swap1\n      tag_16\n      jump\t// in\n    tag_15:\n      mload(0x40)\n      dup1\n      swap2\n      sub\n      swap1\n      return\n        /* \"contracts/Transaction.sol\":292:341  mapping (uint => Transaction) public transactions */\n    tag_5:\n      tag_17\n      0x04\n      dup1\n      calldatasize\n      sub\n      dup2\n      add\n      swap1\n      tag_18\n      swap2\n      swap1\n      tag_13\n      jump\t// in\n    tag_18:\n      tag_19\n      jump\t// in\n    tag_17:\n      mload(0x40)\n      tag_20\n      swap7\n      swap6\n      swap5\n      swap4\n      swap3\n      swap2\n      swap1\n      tag_21\n      jump\t// in\n    tag_20:\n      mload(0x40)\n      dup1\n      swap2\n      sub\n      swap1\n      return\n        /* \"contracts/Transaction.sol\":398:427  uint public transactionsCount */\n    tag_6:\n      tag_22\n      tag_23\n      jump\t// in\n    tag_22:\n      mload(0x40)\n      tag_24\n      swap2\n      swap1\n      tag_25\n      jump\t// in\n    tag_24:\n      mload(0x40)\n      dup1\n      swap2\n      sub\n      swap1\n      return\n        /* \"contracts/Transaction.sol\":497:791  function addTransaction(uint _patchno, uint _currentowner, uint _fromowner, uint _transamount, uint _transdate) public {\r... */\n    tag_10:\n        /* \"contracts/Transaction.sol\":661:753  Transaction(transactionsCount,_patchno, _currentowner, _fromowner, _transamount, _transdate) */\n      mload(0x40)\n      dup1\n      0xc0\n      add\n      0x40\n      mstore\n      dup1\n        /* \"contracts/Transaction.sol\":673:690  transactionsCount */\n      sload(0x01)\n        /* \"contracts/Transaction.sol\":661:753  Transaction(transactionsCount,_patchno, _currentowner, _fromowner, _transamount, _transdate) */\n      dup2\n      mstore\n      0x20\n      add\n        /* \"contracts/Transaction.sol\":691:699  _patchno */\n      dup7\n        /* \"contracts/Transaction.sol\":661:753  Transaction(transactionsCount,_patchno, _currentowner, _fromowner, _transamount, _transdate) */\n      dup2\n      mstore\n      0x20\n      add\n        /* \"contracts/Transaction.sol\":701:714  _currentowner */\n      dup6\n        /* \"contracts/Transaction.sol\":661:753  Transaction(transactionsCount,_patchno, _currentowner, _fromowner, _transamount, _transdate) */\n      dup2\n      mstore\n      0x20\n      add\n        /* \"contracts/Transaction.sol\":716:726  _fromowner */\n      dup5\n        /* \"contracts/Transaction.sol\":661:753  Transaction(transactionsCount,_patchno, _currentowner, _fromowner, _transamount, _transdate) */\n      dup2\n      mstore\n      0x20\n      add\n        /* \"contracts/Transaction.sol\":728:740  _transamount */\n      dup4\n        /* \"contracts/Transaction.sol\":661:753  Transaction(transactionsCount,_patchno, _currentowner, _fromowner, _transamount, _transdate) */\n      dup2\n      mstore\n      0x20\n      add\n        /* \"contracts/Transaction.sol\":742:752  _transdate */\n      dup3\n        /* \"contracts/Transaction.sol\":661:753  Transaction(transactionsCount,_patchno, _currentowner, _fromowner, _transamount, _transdate) */\n      dup2\n      mstore\n      pop\n        /* \"contracts/Transaction.sol\":627:639  transactions */\n      0x00\n        /* \"contracts/Transaction.sol\":627:658  transactions[transactionsCount] */\n      dup1\n        /* \"contracts/Transaction.sol\":640:657  transactionsCount */\n      sload(0x01)\n        /* \"contracts/Transaction.sol\":627:658  transactions[transactionsCount] */\n      dup2\n      mstore\n      0x20\n      add\n      swap1\n      dup2\n      mstore\n      0x20\n      add\n      0x00\n      keccak256\n        /* \"contracts/Transaction.sol\":627:753  transactions[transactionsCount] = Transaction(transactionsCount,_patchno, _currentowner, _fromowner, _transamount, _transdate) */\n      0x00\n      dup3\n      add\n      mload\n      dup2\n      0x00\n      add\n      sstore\n      0x20\n      dup3\n      add\n      mload\n      dup2\n      0x01\n      add\n      sstore\n      0x40\n      dup3\n      add\n      mload\n      dup2\n      0x02\n      add\n      sstore\n      0x60\n      dup3\n      add\n      mload\n      dup2\n      0x03\n      add\n      sstore\n      0x80\n      dup3\n      add\n      mload\n      dup2\n      0x04\n      add\n      sstore\n      0xa0\n      dup3\n      add\n      mload\n      dup2\n      0x05\n      add\n      sstore\n      swap1\n      pop\n      pop\n        /* \"contracts/Transaction.sol\":764:781  transactionsCount */\n      0x01\n      0x00\n        /* \"contracts/Transaction.sol\":764:783  transactionsCount++ */\n      dup2\n      sload\n      dup1\n      swap3\n      swap2\n      swap1\n      tag_27\n      swap1\n      tag_28\n      jump\t// in\n    tag_27:\n      swap2\n      swap1\n      pop\n      sstore\n      pop\n        /* \"contracts/Transaction.sol\":497:791  function addTransaction(uint _patchno, uint _currentowner, uint _fromowner, uint _transamount, uint _transdate) public {\r... */\n      pop\n      pop\n      pop\n      pop\n      pop\n      jump\t// out\n        /* \"contracts/Transaction.sol\":799:909  function get(uint _transid) public view returns(Transaction memory) {\r... */\n    tag_14:\n        /* \"contracts/Transaction.sol\":847:865  Transaction memory */\n      tag_29\n      tag_30\n      jump\t// in\n    tag_29:\n        /* \"contracts/Transaction.sol\":881:893  transactions */\n      0x00\n        /* \"contracts/Transaction.sol\":881:903  transactions[_transid] */\n      dup1\n        /* \"contracts/Transaction.sol\":894:902  _transid */\n      dup4\n        /* \"contracts/Transaction.sol\":881:903  transactions[_transid] */\n      dup2\n      mstore\n      0x20\n      add\n      swap1\n      dup2\n      mstore\n      0x20\n      add\n      0x00\n      keccak256\n        /* \"contracts/Transaction.sol\":874:903  return transactions[_transid] */\n      mload(0x40)\n      dup1\n      0xc0\n      add\n      0x40\n      mstore\n      swap1\n      dup2\n      0x00\n      dup3\n      add\n      sload\n      dup2\n      mstore\n      0x20\n      add\n      0x01\n      dup3\n      add\n      sload\n      dup2\n      mstore\n      0x20\n      add\n      0x02\n      dup3\n      add\n      sload\n      dup2\n      mstore\n      0x20\n      add\n      0x03\n      dup3\n      add\n      sload\n      dup2\n      mstore\n      0x20\n      add\n      0x04\n      dup3\n      add\n      sload\n      dup2\n      mstore\n      0x20\n      add\n      0x05\n      dup3\n      add\n      sload\n      dup2\n      mstore\n      pop\n      pop\n      swap1\n      pop\n        /* \"contracts/Transaction.sol\":799:909  function get(uint _transid) public view returns(Transaction memory) {\r... */\n      swap2\n      swap1\n      pop\n      jump\t// out\n        /* \"contracts/Transaction.sol\":292:341  mapping (uint => Transaction) public transactions */\n    tag_19:\n      mstore(0x20, 0x00)\n      dup1\n      0x00\n      mstore\n      keccak256(0x00, 0x40)\n      0x00\n      swap2\n      pop\n      swap1\n      pop\n      dup1\n      0x00\n      add\n      sload\n      swap1\n      dup1\n      0x01\n      add\n      sload\n      swap1\n      dup1\n      0x02\n      add\n      sload\n      swap1\n      dup1\n      0x03\n      add\n      sload\n      swap1\n      dup1\n      0x04\n      add\n      sload\n      swap1\n      dup1\n      0x05\n      add\n      sload\n      swap1\n      pop\n      dup7\n      jump\t// out\n        /* \"contracts/Transaction.sol\":398:427  uint public transactionsCount */\n    tag_23:\n      sload(0x01)\n      dup2\n      jump\t// out\n    tag_30:\n      mload(0x40)\n      dup1\n      0xc0\n      add\n      0x40\n      mstore\n      dup1\n      0x00\n      dup2\n      mstore\n      0x20\n      add\n      0x00\n      dup2\n      mstore\n      0x20\n      add\n      0x00\n      dup2\n      mstore\n      0x20\n      add\n      0x00\n      dup2\n      mstore\n      0x20\n      add\n      0x00\n      dup2\n      mstore\n      0x20\n      add\n      0x00\n      dup2\n      mstore\n      pop\n      swap1\n      jump\t// out\n        /* \"#utility.yul\":7:146   */\n    tag_33:\n        /* \"#utility.yul\":53:58   */\n      0x00\n        /* \"#utility.yul\":91:97   */\n      dup2\n        /* \"#utility.yul\":78:98   */\n      calldataload\n        /* \"#utility.yul\":69:98   */\n      swap1\n      pop\n        /* \"#utility.yul\":107:140   */\n      tag_35\n        /* \"#utility.yul\":134:139   */\n      dup2\n        /* \"#utility.yul\":107:140   */\n      tag_36\n      jump\t// in\n    tag_35:\n        /* \"#utility.yul\":7:146   */\n      swap3\n      swap2\n      pop\n      pop\n      jump\t// out\n        /* \"#utility.yul\":152:481   */\n    tag_13:\n        /* \"#utility.yul\":211:217   */\n      0x00\n        /* \"#utility.yul\":260:262   */\n      0x20\n        /* \"#utility.yul\":248:257   */\n      dup3\n        /* \"#utility.yul\":239:246   */\n      dup5\n        /* \"#utility.yul\":235:258   */\n      sub\n        /* \"#utility.yul\":231:263   */\n      slt\n        /* \"#utility.yul\":228:347   */\n      iszero\n      tag_38\n      jumpi\n        /* \"#utility.yul\":266:345   */\n      tag_39\n      tag_40\n      jump\t// in\n    tag_39:\n        /* \"#utility.yul\":228:347   */\n    tag_38:\n        /* \"#utility.yul\":386:387   */\n      0x00\n        /* \"#utility.yul\":411:464   */\n      tag_41\n        /* \"#utility.yul\":456:463   */\n      dup5\n        /* \"#utility.yul\":447:453   */\n      dup3\n        /* \"#utility.yul\":436:445   */\n      dup6\n        /* \"#utility.yul\":432:454   */\n      add\n        /* \"#utility.yul\":411:464   */\n      tag_33\n      jump\t// in\n    tag_41:\n        /* \"#utility.yul\":401:464   */\n      swap2\n      pop\n        /* \"#utility.yul\":357:474   */\n      pop\n        /* \"#utility.yul\":152:481   */\n      swap3\n      swap2\n      pop\n      pop\n      jump\t// out\n        /* \"#utility.yul\":487:1398   */\n    tag_9:\n        /* \"#utility.yul\":582:588   */\n      0x00\n        /* \"#utility.yul\":590:596   */\n      dup1\n        /* \"#utility.yul\":598:604   */\n      0x00\n        /* \"#utility.yul\":606:612   */\n      dup1\n        /* \"#utility.yul\":614:620   */\n      0x00\n        /* \"#utility.yul\":663:666   */\n      0xa0\n        /* \"#utility.yul\":651:660   */\n      dup7\n        /* \"#utility.yul\":642:649   */\n      dup9\n        /* \"#utility.yul\":638:661   */\n      sub\n        /* \"#utility.yul\":634:667   */\n      slt\n        /* \"#utility.yul\":631:751   */\n      iszero\n      tag_43\n      jumpi\n        /* \"#utility.yul\":670:749   */\n      tag_44\n      tag_40\n      jump\t// in\n    tag_44:\n        /* \"#utility.yul\":631:751   */\n    tag_43:\n        /* \"#utility.yul\":790:791   */\n      0x00\n        /* \"#utility.yul\":815:868   */\n      tag_45\n        /* \"#utility.yul\":860:867   */\n      dup9\n        /* \"#utility.yul\":851:857   */\n      dup3\n        /* \"#utility.yul\":840:849   */\n      dup10\n        /* \"#utility.yul\":836:858   */\n      add\n        /* \"#utility.yul\":815:868   */\n      tag_33\n      jump\t// in\n    tag_45:\n        /* \"#utility.yul\":805:868   */\n      swap6\n      pop\n        /* \"#utility.yul\":761:878   */\n      pop\n        /* \"#utility.yul\":917:919   */\n      0x20\n        /* \"#utility.yul\":943:996   */\n      tag_46\n        /* \"#utility.yul\":988:995   */\n      dup9\n        /* \"#utility.yul\":979:985   */\n      dup3\n        /* \"#utility.yul\":968:977   */\n      dup10\n        /* \"#utility.yul\":964:986   */\n      add\n        /* \"#utility.yul\":943:996   */\n      tag_33\n      jump\t// in\n    tag_46:\n        /* \"#utility.yul\":933:996   */\n      swap5\n      pop\n        /* \"#utility.yul\":888:1006   */\n      pop\n        /* \"#utility.yul\":1045:1047   */\n      0x40\n        /* \"#utility.yul\":1071:1124   */\n      tag_47\n        /* \"#utility.yul\":1116:1123   */\n      dup9\n        /* \"#utility.yul\":1107:1113   */\n      dup3\n        /* \"#utility.yul\":1096:1105   */\n      dup10\n        /* \"#utility.yul\":1092:1114   */\n      add\n        /* \"#utility.yul\":1071:1124   */\n      tag_33\n      jump\t// in\n    tag_47:\n        /* \"#utility.yul\":1061:1124   */\n      swap4\n      pop\n        /* \"#utility.yul\":1016:1134   */\n      pop\n        /* \"#utility.yul\":1173:1175   */\n      0x60\n        /* \"#utility.yul\":1199:1252   */\n      tag_48\n        /* \"#utility.yul\":1244:1251   */\n      dup9\n        /* \"#utility.yul\":1235:1241   */\n      dup3\n        /* \"#utility.yul\":1224:1233   */\n      dup10\n        /* \"#utility.yul\":1220:1242   */\n      add\n        /* \"#utility.yul\":1199:1252   */\n      tag_33\n      jump\t// in\n    tag_48:\n        /* \"#utility.yul\":1189:1252   */\n      swap3\n      pop\n        /* \"#utility.yul\":1144:1262   */\n      pop\n        /* \"#utility.yul\":1301:1304   */\n      0x80\n        /* \"#utility.yul\":1328:1381   */\n      tag_49\n        /* \"#utility.yul\":1373:1380   */\n      dup9\n        /* \"#utility.yul\":1364:1370   */\n      dup3\n        /* \"#utility.yul\":1353:1362   */\n      dup10\n        /* \"#utility.yul\":1349:1371   */\n      add\n        /* \"#utility.yul\":1328:1381   */\n      tag_33\n      jump\t// in\n    tag_49:\n        /* \"#utility.yul\":1318:1381   */\n      swap2\n      pop\n        /* \"#utility.yul\":1272:1391   */\n      pop\n        /* \"#utility.yul\":487:1398   */\n      swap3\n      swap6\n      pop\n      swap3\n      swap6\n      swap1\n      swap4\n      pop\n      jump\t// out\n        /* \"#utility.yul\":1478:2733   */\n    tag_50:\n        /* \"#utility.yul\":1629:1633   */\n      0xc0\n        /* \"#utility.yul\":1624:1627   */\n      dup3\n        /* \"#utility.yul\":1620:1634   */\n      add\n        /* \"#utility.yul\":1725:1729   */\n      0x00\n        /* \"#utility.yul\":1718:1723   */\n      dup3\n        /* \"#utility.yul\":1714:1730   */\n      add\n        /* \"#utility.yul\":1708:1731   */\n      mload\n        /* \"#utility.yul\":1744:1807   */\n      tag_52\n        /* \"#utility.yul\":1801:1805   */\n      0x00\n        /* \"#utility.yul\":1796:1799   */\n      dup6\n        /* \"#utility.yul\":1792:1806   */\n      add\n        /* \"#utility.yul\":1778:1790   */\n      dup3\n        /* \"#utility.yul\":1744:1807   */\n      tag_53\n      jump\t// in\n    tag_52:\n        /* \"#utility.yul\":1644:1817   */\n      pop\n        /* \"#utility.yul\":1902:1906   */\n      0x20\n        /* \"#utility.yul\":1895:1900   */\n      dup3\n        /* \"#utility.yul\":1891:1907   */\n      add\n        /* \"#utility.yul\":1885:1908   */\n      mload\n        /* \"#utility.yul\":1921:1984   */\n      tag_54\n        /* \"#utility.yul\":1978:1982   */\n      0x20\n        /* \"#utility.yul\":1973:1976   */\n      dup6\n        /* \"#utility.yul\":1969:1983   */\n      add\n        /* \"#utility.yul\":1955:1967   */\n      dup3\n        /* \"#utility.yul\":1921:1984   */\n      tag_53\n      jump\t// in\n    tag_54:\n        /* \"#utility.yul\":1827:1994   */\n      pop\n        /* \"#utility.yul\":2084:2088   */\n      0x40\n        /* \"#utility.yul\":2077:2082   */\n      dup3\n        /* \"#utility.yul\":2073:2089   */\n      add\n        /* \"#utility.yul\":2067:2090   */\n      mload\n        /* \"#utility.yul\":2103:2166   */\n      tag_55\n        /* \"#utility.yul\":2160:2164   */\n      0x40\n        /* \"#utility.yul\":2155:2158   */\n      dup6\n        /* \"#utility.yul\":2151:2165   */\n      add\n        /* \"#utility.yul\":2137:2149   */\n      dup3\n        /* \"#utility.yul\":2103:2166   */\n      tag_53\n      jump\t// in\n    tag_55:\n        /* \"#utility.yul\":2004:2176   */\n      pop\n        /* \"#utility.yul\":2263:2267   */\n      0x60\n        /* \"#utility.yul\":2256:2261   */\n      dup3\n        /* \"#utility.yul\":2252:2268   */\n      add\n        /* \"#utility.yul\":2246:2269   */\n      mload\n        /* \"#utility.yul\":2282:2345   */\n      tag_56\n        /* \"#utility.yul\":2339:2343   */\n      0x60\n        /* \"#utility.yul\":2334:2337   */\n      dup6\n        /* \"#utility.yul\":2330:2344   */\n      add\n        /* \"#utility.yul\":2316:2328   */\n      dup3\n        /* \"#utility.yul\":2282:2345   */\n      tag_53\n      jump\t// in\n    tag_56:\n        /* \"#utility.yul\":2186:2355   */\n      pop\n        /* \"#utility.yul\":2449:2453   */\n      0x80\n        /* \"#utility.yul\":2442:2447   */\n      dup3\n        /* \"#utility.yul\":2438:2454   */\n      add\n        /* \"#utility.yul\":2432:2455   */\n      mload\n        /* \"#utility.yul\":2468:2531   */\n      tag_57\n        /* \"#utility.yul\":2525:2529   */\n      0x80\n        /* \"#utility.yul\":2520:2523   */\n      dup6\n        /* \"#utility.yul\":2516:2530   */\n      add\n        /* \"#utility.yul\":2502:2514   */\n      dup3\n        /* \"#utility.yul\":2468:2531   */\n      tag_53\n      jump\t// in\n    tag_57:\n        /* \"#utility.yul\":2365:2541   */\n      pop\n        /* \"#utility.yul\":2634:2638   */\n      0xa0\n        /* \"#utility.yul\":2627:2632   */\n      dup3\n        /* \"#utility.yul\":2623:2639   */\n      add\n        /* \"#utility.yul\":2617:2640   */\n      mload\n        /* \"#utility.yul\":2653:2716   */\n      tag_58\n        /* \"#utility.yul\":2710:2714   */\n      0xa0\n        /* \"#utility.yul\":2705:2708   */\n      dup6\n        /* \"#utility.yul\":2701:2715   */\n      add\n        /* \"#utility.yul\":2687:2699   */\n      dup3\n        /* \"#utility.yul\":2653:2716   */\n      tag_53\n      jump\t// in\n    tag_58:\n        /* \"#utility.yul\":2551:2726   */\n      pop\n        /* \"#utility.yul\":1598:2733   */\n      pop\n        /* \"#utility.yul\":1478:2733   */\n      pop\n      pop\n      jump\t// out\n        /* \"#utility.yul\":2739:2847   */\n    tag_53:\n        /* \"#utility.yul\":2816:2840   */\n      tag_60\n        /* \"#utility.yul\":2834:2839   */\n      dup2\n        /* \"#utility.yul\":2816:2840   */\n      tag_61\n      jump\t// in\n    tag_60:\n        /* \"#utility.yul\":2811:2814   */\n      dup3\n        /* \"#utility.yul\":2804:2841   */\n      mstore\n        /* \"#utility.yul\":2739:2847   */\n      pop\n      pop\n      jump\t// out\n        /* \"#utility.yul\":2853:2971   */\n    tag_62:\n        /* \"#utility.yul\":2940:2964   */\n      tag_64\n        /* \"#utility.yul\":2958:2963   */\n      dup2\n        /* \"#utility.yul\":2940:2964   */\n      tag_61\n      jump\t// in\n    tag_64:\n        /* \"#utility.yul\":2935:2938   */\n      dup3\n        /* \"#utility.yul\":2928:2965   */\n      mstore\n        /* \"#utility.yul\":2853:2971   */\n      pop\n      pop\n      jump\t// out\n        /* \"#utility.yul\":2977:3308   */\n    tag_16:\n        /* \"#utility.yul\":3124:3128   */\n      0x00\n        /* \"#utility.yul\":3162:3165   */\n      0xc0\n        /* \"#utility.yul\":3151:3160   */\n      dup3\n        /* \"#utility.yul\":3147:3166   */\n      add\n        /* \"#utility.yul\":3139:3166   */\n      swap1\n      pop\n        /* \"#utility.yul\":3176:3301   */\n      tag_66\n        /* \"#utility.yul\":3298:3299   */\n      0x00\n        /* \"#utility.yul\":3287:3296   */\n      dup4\n        /* \"#utility.yul\":3283:3300   */\n      add\n        /* \"#utility.yul\":3274:3280   */\n      dup5\n        /* \"#utility.yul\":3176:3301   */\n      tag_50\n      jump\t// in\n    tag_66:\n        /* \"#utility.yul\":2977:3308   */\n      swap3\n      swap2\n      pop\n      pop\n      jump\t// out\n        /* \"#utility.yul\":3314:3536   */\n    tag_25:\n        /* \"#utility.yul\":3407:3411   */\n      0x00\n        /* \"#utility.yul\":3445:3447   */\n      0x20\n        /* \"#utility.yul\":3434:3443   */\n      dup3\n        /* \"#utility.yul\":3430:3448   */\n      add\n        /* \"#utility.yul\":3422:3448   */\n      swap1\n      pop\n        /* \"#utility.yul\":3458:3529   */\n      tag_68\n        /* \"#utility.yul\":3526:3527   */\n      0x00\n        /* \"#utility.yul\":3515:3524   */\n      dup4\n        /* \"#utility.yul\":3511:3528   */\n      add\n        /* \"#utility.yul\":3502:3508   */\n      dup5\n        /* \"#utility.yul\":3458:3529   */\n      tag_62\n      jump\t// in\n    tag_68:\n        /* \"#utility.yul\":3314:3536   */\n      swap3\n      swap2\n      pop\n      pop\n      jump\t// out\n        /* \"#utility.yul\":3542:4317   */\n    tag_21:\n        /* \"#utility.yul\":3775:3779   */\n      0x00\n        /* \"#utility.yul\":3813:3816   */\n      0xc0\n        /* \"#utility.yul\":3802:3811   */\n      dup3\n        /* \"#utility.yul\":3798:3817   */\n      add\n        /* \"#utility.yul\":3790:3817   */\n      swap1\n      pop\n        /* \"#utility.yul\":3827:3898   */\n      tag_70\n        /* \"#utility.yul\":3895:3896   */\n      0x00\n        /* \"#utility.yul\":3884:3893   */\n      dup4\n        /* \"#utility.yul\":3880:3897   */\n      add\n        /* \"#utility.yul\":3871:3877   */\n      dup10\n        /* \"#utility.yul\":3827:3898   */\n      tag_62\n      jump\t// in\n    tag_70:\n        /* \"#utility.yul\":3908:3980   */\n      tag_71\n        /* \"#utility.yul\":3976:3978   */\n      0x20\n        /* \"#utility.yul\":3965:3974   */\n      dup4\n        /* \"#utility.yul\":3961:3979   */\n      add\n        /* \"#utility.yul\":3952:3958   */\n      dup9\n        /* \"#utility.yul\":3908:3980   */\n      tag_62\n      jump\t// in\n    tag_71:\n        /* \"#utility.yul\":3990:4062   */\n      tag_72\n        /* \"#utility.yul\":4058:4060   */\n      0x40\n        /* \"#utility.yul\":4047:4056   */\n      dup4\n        /* \"#utility.yul\":4043:4061   */\n      add\n        /* \"#utility.yul\":4034:4040   */\n      dup8\n        /* \"#utility.yul\":3990:4062   */\n      tag_62\n      jump\t// in\n    tag_72:\n        /* \"#utility.yul\":4072:4144   */\n      tag_73\n        /* \"#utility.yul\":4140:4142   */\n      0x60\n        /* \"#utility.yul\":4129:4138   */\n      dup4\n        /* \"#utility.yul\":4125:4143   */\n      add\n        /* \"#utility.yul\":4116:4122   */\n      dup7\n        /* \"#utility.yul\":4072:4144   */\n      tag_62\n      jump\t// in\n    tag_73:\n        /* \"#utility.yul\":4154:4227   */\n      tag_74\n        /* \"#utility.yul\":4222:4225   */\n      0x80\n        /* \"#utility.yul\":4211:4220   */\n      dup4\n        /* \"#utility.yul\":4207:4226   */\n      add\n        /* \"#utility.yul\":4198:4204   */\n      dup6\n        /* \"#utility.yul\":4154:4227   */\n      tag_62\n      jump\t// in\n    tag_74:\n        /* \"#utility.yul\":4237:4310   */\n      tag_75\n        /* \"#utility.yul\":4305:4308   */\n      0xa0\n        /* \"#utility.yul\":4294:4303   */\n      dup4\n        /* \"#utility.yul\":4290:4309   */\n      add\n        /* \"#utility.yul\":4281:4287   */\n      dup5\n        /* \"#utility.yul\":4237:4310   */\n      tag_62\n      jump\t// in\n    tag_75:\n        /* \"#utility.yul\":3542:4317   */\n      swap8\n      swap7\n      pop\n      pop\n      pop\n      pop\n      pop\n      pop\n      pop\n      jump\t// out\n        /* \"#utility.yul\":4404:4481   */\n    tag_61:\n        /* \"#utility.yul\":4441:4448   */\n      0x00\n        /* \"#utility.yul\":4470:4475   */\n      dup2\n        /* \"#utility.yul\":4459:4475   */\n      swap1\n      pop\n        /* \"#utility.yul\":4404:4481   */\n      swap2\n      swap1\n      pop\n      jump\t// out\n        /* \"#utility.yul\":4487:4720   */\n    tag_28:\n        /* \"#utility.yul\":4526:4529   */\n      0x00\n        /* \"#utility.yul\":4549:4573   */\n      tag_80\n        /* \"#utility.yul\":4567:4572   */\n      dup3\n        /* \"#utility.yul\":4549:4573   */\n      tag_61\n      jump\t// in\n    tag_80:\n        /* \"#utility.yul\":4540:4573   */\n      swap2\n      pop\n        /* \"#utility.yul\":4595:4661   */\n      0xffffffffffffffffffffffffffffffffffffffffffffffffffffffffffffffff\n        /* \"#utility.yul\":4588:4593   */\n      dup3\n        /* \"#utility.yul\":4585:4662   */\n      eq\n        /* \"#utility.yul\":4582:4685   */\n      iszero\n      tag_81\n      jumpi\n        /* \"#utility.yul\":4665:4683   */\n      tag_82\n      tag_83\n      jump\t// in\n    tag_82:\n        /* \"#utility.yul\":4582:4685   */\n    tag_81:\n        /* \"#utility.yul\":4712:4713   */\n      0x01\n        /* \"#utility.yul\":4705:4710   */\n      dup3\n        /* \"#utility.yul\":4701:4714   */\n      add\n        /* \"#utility.yul\":4694:4714   */\n      swap1\n      pop\n        /* \"#utility.yul\":4487:4720   */\n      swap2\n      swap1\n      pop\n      jump\t// out\n        /* \"#utility.yul\":4726:4906   */\n    tag_83:\n        /* \"#utility.yul\":4774:4851   */\n      0x4e487b7100000000000000000000000000000000000000000000000000000000\n        /* \"#utility.yul\":4771:4772   */\n      0x00\n        /* \"#utility.yul\":4764:4852   */\n      mstore\n        /* \"#utility.yul\":4871:4875   */\n      0x11\n        /* \"#utility.yul\":4868:4869   */\n      0x04\n        /* \"#utility.yul\":4861:4876   */\n      mstore\n        /* \"#utility.yul\":4895:4899   */\n      0x24\n        /* \"#utility.yul\":4892:4893   */\n      0x00\n        /* \"#utility.yul\":4885:4900   */\n      revert\n        /* \"#utility.yul\":5035:5152   */\n    tag_40:\n        /* \"#utility.yul\":5144:5145   */\n      0x00\n        /* \"#utility.yul\":5141:5142   */\n      dup1\n        /* \"#utility.yul\":5134:5146   */\n      revert\n        /* \"#utility.yul\":5158:5280   */\n    tag_36:\n        /* \"#utility.yul\":5231:5255   */\n      tag_89\n        /* \"#utility.yul\":5249:5254   */\n      dup2\n        /* \"#utility.yul\":5231:5255   */\n      tag_61\n      jump\t// in\n    tag_89:\n        /* \"#utility.yul\":5224:5229   */\n      dup2\n        /* \"#utility.yul\":5221:5256   */\n      eq\n        /* \"#utility.yul\":5211:5274   */\n      tag_90\n      jumpi\n        /* \"#utility.yul\":5270:5271   */\n      0x00\n        /* \"#utility.yul\":5267:5268   */\n      dup1\n        /* \"#utility.yul\":5260:5272   */\n      revert\n        /* \"#utility.yul\":5211:5274   */\n    tag_90:\n        /* \"#utility.yul\":5158:5280   */\n      pop\n      jump\t// out\n\n    auxdata: 0xa2646970667358221220cc63917e69135794b4830a42acc338e057803f265e287238d6e35cdb4b80589d64736f6c63430008070033\n}\n",
				"bytecode": {
					"linkReferences": {},
					"object": "608060405234801561001057600080fd5b506000600181905550610532806100286000396000f3fe608060405234801561001057600080fd5b506004361061004c5760003560e01c8063634e1a29146100515780639507d39a1461006d5780639ace38c21461009d578063fd99a746146100d2575b600080fd5b61006b600480360381019061006691906102b3565b6100f0565b005b61008760048036038101906100829190610286565b610191565b60405161009491906103c7565b60405180910390f35b6100b760048036038101906100b29190610286565b6101f9565b6040516100c9969594939291906103fd565b60405180910390f35b6100da610235565b6040516100e791906103e2565b60405180910390f35b6040518060c001604052806001548152602001868152602001858152602001848152602001838152602001828152506000806001548152602001908152602001600020600082015181600001556020820151816001015560408201518160020155606082015181600301556080820151816004015560a082015181600501559050506001600081548092919061018590610468565b91905055505050505050565b61019961023b565b6000808381526020019081526020016000206040518060c001604052908160008201548152602001600182015481526020016002820154815260200160038201548152602001600482015481526020016005820154815250509050919050565b60006020528060005260406000206000915090508060000154908060010154908060020154908060030154908060040154908060050154905086565b60015481565b6040518060c001604052806000815260200160008152602001600081526020016000815260200160008152602001600081525090565b600081359050610280816104e5565b92915050565b60006020828403121561029c5761029b6104e0565b5b60006102aa84828501610271565b91505092915050565b600080600080600060a086880312156102cf576102ce6104e0565b5b60006102dd88828901610271565b95505060206102ee88828901610271565b94505060406102ff88828901610271565b935050606061031088828901610271565b925050608061032188828901610271565b9150509295509295909350565b60c08201600082015161034460008501826103a9565b50602082015161035760208501826103a9565b50604082015161036a60408501826103a9565b50606082015161037d60608501826103a9565b50608082015161039060808501826103a9565b5060a08201516103a360a08501826103a9565b50505050565b6103b28161045e565b82525050565b6103c18161045e565b82525050565b600060c0820190506103dc600083018461032e565b92915050565b60006020820190506103f760008301846103b8565b92915050565b600060c08201905061041260008301896103b8565b61041f60208301886103b8565b61042c60408301876103b8565b61043960608301866103b8565b61044660808301856103b8565b61045360a08301846103b8565b979650505050505050565b6000819050919050565b60006104738261045e565b91507fffffffffffffffffffffffffffffffffffffffffffffffffffffffffffffffff8214156104a6576104a56104b1565b5b600182019050919050565b7f4e487b7100000000000000000000000000000000000000000000000000000000600052601160045260246000fd5b600080fd5b6104ee8161045e565b81146104f957600080fd5b5056fea2646970667358221220cc63917e69135794b4830a42acc338e057803f265e287238d6e35cdb4b80589d64736f6c63430008070033",
					"opcodes": "PUSH1 0x80 PUSH1 0x40 MSTORE CALLVALUE DUP1 ISZERO PUSH2 0x10 JUMPI PUSH1 0x0 DUP1 REVERT JUMPDEST POP PUSH1 0x0 PUSH1 0x1 DUP2 SWAP1 SSTORE POP PUSH2 0x532 DUP1 PUSH2 0x28 PUSH1 0x0 CODECOPY PUSH1 0x0 RETURN INVALID PUSH1 0x80 PUSH1 0x40 MSTORE CALLVALUE DUP1 ISZERO PUSH2 0x10 JUMPI PUSH1 0x0 DUP1 REVERT JUMPDEST POP PUSH1 0x4 CALLDATASIZE LT PUSH2 0x4C JUMPI PUSH1 0x0 CALLDATALOAD PUSH1 0xE0 SHR DUP1 PUSH4 0x634E1A29 EQ PUSH2 0x51 JUMPI DUP1 PUSH4 0x9507D39A EQ PUSH2 0x6D JUMPI DUP1 PUSH4 0x9ACE38C2 EQ PUSH2 0x9D JUMPI DUP1 PUSH4 0xFD99A746 EQ PUSH2 0xD2 JUMPI JUMPDEST PUSH1 0x0 DUP1 REVERT JUMPDEST PUSH2 0x6B PUSH1 0x4 DUP1 CALLDATASIZE SUB DUP2 ADD SWAP1 PUSH2 0x66 SWAP2 SWAP1 PUSH2 0x2B3 JUMP JUMPDEST PUSH2 0xF0 JUMP JUMPDEST STOP JUMPDEST PUSH2 0x87 PUSH1 0x4 DUP1 CALLDATASIZE SUB DUP2 ADD SWAP1 PUSH2 0x82 SWAP2 SWAP1 PUSH2 0x286 JUMP JUMPDEST PUSH2 0x191 JUMP JUMPDEST PUSH1 0x40 MLOAD PUSH2 0x94 SWAP2 SWAP1 PUSH2 0x3C7 JUMP JUMPDEST PUSH1 0x40 MLOAD DUP1 SWAP2 SUB SWAP1 RETURN JUMPDEST PUSH2 0xB7 PUSH1 0x4 DUP1 CALLDATASIZE SUB DUP2 ADD SWAP1 PUSH2 0xB2 SWAP2 SWAP1 PUSH2 0x286 JUMP JUMPDEST PUSH2 0x1F9 JUMP JUMPDEST PUSH1 0x40 MLOAD PUSH2 0xC9 SWAP7 SWAP6 SWAP5 SWAP4 SWAP3 SWAP2 SWAP1 PUSH2 0x3FD JUMP JUMPDEST PUSH1 0x40 MLOAD DUP1 SWAP2 SUB SWAP1 RETURN JUMPDEST PUSH2 0xDA PUSH2 0x235 JUMP JUMPDEST PUSH1 0x40 MLOAD PUSH2 0xE7 SWAP2 SWAP1 PUSH2 0x3E2 JUMP JUMPDEST PUSH1 0x40 MLOAD DUP1 SWAP2 SUB SWAP1 RETURN JUMPDEST PUSH1 0x40 MLOAD DUP1 PUSH1 0xC0 ADD PUSH1 0x40 MSTORE DUP1 PUSH1 0x1 SLOAD DUP2 MSTORE PUSH1 0x20 ADD DUP7 DUP2 MSTORE PUSH1 0x20 ADD DUP6 DUP2 MSTORE PUSH1 0x20 ADD DUP5 DUP2 MSTORE PUSH1 0x20 ADD DUP4 DUP2 MSTORE PUSH1 0x20 ADD DUP3 DUP2 MSTORE POP PUSH1 0x0 DUP1 PUSH1 0x1 SLOAD DUP2 MSTORE PUSH1 0x20 ADD SWAP1 DUP2 MSTORE PUSH1 0x20 ADD PUSH1 0x0 KECCAK256 PUSH1 0x0 DUP3 ADD MLOAD DUP2 PUSH1 0x0 ADD SSTORE PUSH1 0x20 DUP3 ADD MLOAD DUP2 PUSH1 0x1 ADD SSTORE PUSH1 0x40 DUP3 ADD MLOAD DUP2 PUSH1 0x2 ADD SSTORE PUSH1 0x60 DUP3 ADD MLOAD DUP2 PUSH1 0x3 ADD SSTORE PUSH1 0x80 DUP3 ADD MLOAD DUP2 PUSH1 0x4 ADD SSTORE PUSH1 0xA0 DUP3 ADD MLOAD DUP2 PUSH1 0x5 ADD SSTORE SWAP1 POP POP PUSH1 0x1 PUSH1 0x0 DUP2 SLOAD DUP1 SWAP3 SWAP2 SWAP1 PUSH2 0x185 SWAP1 PUSH2 0x468 JUMP JUMPDEST SWAP2 SWAP1 POP SSTORE POP POP POP POP POP POP JUMP JUMPDEST PUSH2 0x199 PUSH2 0x23B JUMP JUMPDEST PUSH1 0x0 DUP1 DUP4 DUP2 MSTORE PUSH1 0x20 ADD SWAP1 DUP2 MSTORE PUSH1 0x20 ADD PUSH1 0x0 KECCAK256 PUSH1 0x40 MLOAD DUP1 PUSH1 0xC0 ADD PUSH1 0x40 MSTORE SWAP1 DUP2 PUSH1 0x0 DUP3 ADD SLOAD DUP2 MSTORE PUSH1 0x20 ADD PUSH1 0x1 DUP3 ADD SLOAD DUP2 MSTORE PUSH1 0x20 ADD PUSH1 0x2 DUP3 ADD SLOAD DUP2 MSTORE PUSH1 0x20 ADD PUSH1 0x3 DUP3 ADD SLOAD DUP2 MSTORE PUSH1 0x20 ADD PUSH1 0x4 DUP3 ADD SLOAD DUP2 MSTORE PUSH1 0x20 ADD PUSH1 0x5 DUP3 ADD SLOAD DUP2 MSTORE POP POP SWAP1 POP SWAP2 SWAP1 POP JUMP JUMPDEST PUSH1 0x0 PUSH1 0x20 MSTORE DUP1 PUSH1 0x0 MSTORE PUSH1 0x40 PUSH1 0x0 KECCAK256 PUSH1 0x0 SWAP2 POP SWAP1 POP DUP1 PUSH1 0x0 ADD SLOAD SWAP1 DUP1 PUSH1 0x1 ADD SLOAD SWAP1 DUP1 PUSH1 0x2 ADD SLOAD SWAP1 DUP1 PUSH1 0x3 ADD SLOAD SWAP1 DUP1 PUSH1 0x4 ADD SLOAD SWAP1 DUP1 PUSH1 0x5 ADD SLOAD SWAP1 POP DUP7 JUMP JUMPDEST PUSH1 0x1 SLOAD DUP2 JUMP JUMPDEST PUSH1 0x40 MLOAD DUP1 PUSH1 0xC0 ADD PUSH1 0x40 MSTORE DUP1 PUSH1 0x0 DUP2 MSTORE PUSH1 0x20 ADD PUSH1 0x0 DUP2 MSTORE PUSH1 0x20 ADD PUSH1 0x0 DUP2 MSTORE PUSH1 0x20 ADD PUSH1 0x0 DUP2 MSTORE PUSH1 0x20 ADD PUSH1 0x0 DUP2 MSTORE PUSH1 0x20 ADD PUSH1 0x0 DUP2 MSTORE POP SWAP1 JUMP JUMPDEST PUSH1 0x0 DUP2 CALLDATALOAD SWAP1 POP PUSH2 0x280 DUP2 PUSH2 0x4E5 JUMP JUMPDEST SWAP3 SWAP2 POP POP JUMP JUMPDEST PUSH1 0x0 PUSH1 0x20 DUP3 DUP5 SUB SLT ISZERO PUSH2 0x29C JUMPI PUSH2 0x29B PUSH2 0x4E0 JUMP JUMPDEST JUMPDEST PUSH1 0x0 PUSH2 0x2AA DUP5 DUP3 DUP6 ADD PUSH2 0x271 JUMP JUMPDEST SWAP2 POP POP SWAP3 SWAP2 POP POP JUMP JUMPDEST PUSH1 0x0 DUP1 PUSH1 0x0 DUP1 PUSH1 0x0 PUSH1 0xA0 DUP7 DUP9 SUB SLT ISZERO PUSH2 0x2CF JUMPI PUSH2 0x2CE PUSH2 0x4E0 JUMP JUMPDEST JUMPDEST PUSH1 0x0 PUSH2 0x2DD DUP9 DUP3 DUP10 ADD PUSH2 0x271 JUMP JUMPDEST SWAP6 POP POP PUSH1 0x20 PUSH2 0x2EE DUP9 DUP3 DUP10 ADD PUSH2 0x271 JUMP JUMPDEST SWAP5 POP POP PUSH1 0x40 PUSH2 0x2FF DUP9 DUP3 DUP10 ADD PUSH2 0x271 JUMP JUMPDEST SWAP4 POP POP PUSH1 0x60 PUSH2 0x310 DUP9 DUP3 DUP10 ADD PUSH2 0x271 JUMP JUMPDEST SWAP3 POP POP PUSH1 0x80 PUSH2 0x321 DUP9 DUP3 DUP10 ADD PUSH2 0x271 JUMP JUMPDEST SWAP2 POP POP SWAP3 SWAP6 POP SWAP3 SWAP6 SWAP1 SWAP4 POP JUMP JUMPDEST PUSH1 0xC0 DUP3 ADD PUSH1 0x0 DUP3 ADD MLOAD PUSH2 0x344 PUSH1 0x0 DUP6 ADD DUP3 PUSH2 0x3A9 JUMP JUMPDEST POP PUSH1 0x20 DUP3 ADD MLOAD PUSH2 0x357 PUSH1 0x20 DUP6 ADD DUP3 PUSH2 0x3A9 JUMP JUMPDEST POP PUSH1 0x40 DUP3 ADD MLOAD PUSH2 0x36A PUSH1 0x40 DUP6 ADD DUP3 PUSH2 0x3A9 JUMP JUMPDEST POP PUSH1 0x60 DUP3 ADD MLOAD PUSH2 0x37D PUSH1 0x60 DUP6 ADD DUP3 PUSH2 0x3A9 JUMP JUMPDEST POP PUSH1 0x80 DUP3 ADD MLOAD PUSH2 0x390 PUSH1 0x80 DUP6 ADD DUP3 PUSH2 0x3A9 JUMP JUMPDEST POP PUSH1 0xA0 DUP3 ADD MLOAD PUSH2 0x3A3 PUSH1 0xA0 DUP6 ADD DUP3 PUSH2 0x3A9 JUMP JUMPDEST POP POP POP POP JUMP JUMPDEST PUSH2 0x3B2 DUP2 PUSH2 0x45E JUMP JUMPDEST DUP3 MSTORE POP POP JUMP JUMPDEST PUSH2 0x3C1 DUP2 PUSH2 0x45E JUMP JUMPDEST DUP3 MSTORE POP POP JUMP JUMPDEST PUSH1 0x0 PUSH1 0xC0 DUP3 ADD SWAP1 POP PUSH2 0x3DC PUSH1 0x0 DUP4 ADD DUP5 PUSH2 0x32E JUMP JUMPDEST SWAP3 SWAP2 POP POP JUMP JUMPDEST PUSH1 0x0 PUSH1 0x20 DUP3 ADD SWAP1 POP PUSH2 0x3F7 PUSH1 0x0 DUP4 ADD DUP5 PUSH2 0x3B8 JUMP JUMPDEST SWAP3 SWAP2 POP POP JUMP JUMPDEST PUSH1 0x0 PUSH1 0xC0 DUP3 ADD SWAP1 POP PUSH2 0x412 PUSH1 0x0 DUP4 ADD DUP10 PUSH2 0x3B8 JUMP JUMPDEST PUSH2 0x41F PUSH1 0x20 DUP4 ADD DUP9 PUSH2 0x3B8 JUMP JUMPDEST PUSH2 0x42C PUSH1 0x40 DUP4 ADD DUP8 PUSH2 0x3B8 JUMP JUMPDEST PUSH2 0x439 PUSH1 0x60 DUP4 ADD DUP7 PUSH2 0x3B8 JUMP JUMPDEST PUSH2 0x446 PUSH1 0x80 DUP4 ADD DUP6 PUSH2 0x3B8 JUMP JUMPDEST PUSH2 0x453 PUSH1 0xA0 DUP4 ADD DUP5 PUSH2 0x3B8 JUMP JUMPDEST SWAP8 SWAP7 POP POP POP POP POP POP POP JUMP JUMPDEST PUSH1 0x0 DUP2 SWAP1 POP SWAP2 SWAP1 POP JUMP JUMPDEST PUSH1 0x0 PUSH2 0x473 DUP3 PUSH2 0x45E JUMP JUMPDEST SWAP2 POP PUSH32 0xFFFFFFFFFFFFFFFFFFFFFFFFFFFFFFFFFFFFFFFFFFFFFFFFFFFFFFFFFFFFFFFF DUP3 EQ ISZERO PUSH2 0x4A6 JUMPI PUSH2 0x4A5 PUSH2 0x4B1 JUMP JUMPDEST JUMPDEST PUSH1 0x1 DUP3 ADD SWAP1 POP SWAP2 SWAP1 POP JUMP JUMPDEST PUSH32 0x4E487B7100000000000000000000000000000000000000000000000000000000 PUSH1 0x0 MSTORE PUSH1 0x11 PUSH1 0x4 MSTORE PUSH1 0x24 PUSH1 0x0 REVERT JUMPDEST PUSH1 0x0 DUP1 REVERT JUMPDEST PUSH2 0x4EE DUP2 PUSH2 0x45E JUMP JUMPDEST DUP2 EQ PUSH2 0x4F9 JUMPI PUSH1 0x0 DUP1 REVERT JUMPDEST POP JUMP INVALID LOG2 PUSH5 0x6970667358 0x22 SLT KECCAK256 0xCC PUSH4 0x917E6913 JUMPI SWAP5 0xB4 DUP4 EXP TIMESTAMP 0xAC 0xC3 CODESIZE 0xE0 JUMPI DUP1 EXTCODEHASH 0x26 0x5E 0x28 PUSH19 0x38D6E35CDB4B80589D64736F6C634300080700 CALLER "
				},
				"gasEstimates": {
					"creation": {
						"codeDepositCost": "266000",
						"executionCost": "5320",
						"totalCost": "271320"
					},
					"external": {
						"addTransaction(uint256,uint256,uint256,uint256,uint256)": "infinite",
						"get(uint256)": "infinite",
						"transactions(uint256)": "infinite",
						"transactionsCount()": "2473"
					}
				},
				"methodIdentifiers": {
					"addTransaction(uint256,uint256,uint256,uint256,uint256)": "634e1a29",
					"get(uint256)": "9507d39a",
					"transactions(uint256)": "9ace38c2",
					"transactionsCount()": "fd99a746"
				}
			},
			"storageLayout": {
				"storage": [
					{
						"astId": 19,
						"contract": "contracts/Transaction.sol:Transactions",
						"label": "transactions",
						"offset": 0,
						"slot": "0",
						"type": "t_mapping(t_uint256,t_struct(Transaction)14_storage)"
					},
					{
						"astId": 21,
						"contract": "contracts/Transaction.sol:Transactions",
						"label": "transactionsCount",
						"offset": 0,
						"slot": "1",
						"type": "t_uint256"
					}
				],
				"types": {
					"t_mapping(t_uint256,t_struct(Transaction)14_storage)": {
						"encoding": "mapping",
						"key": "t_uint256",
						"label": "mapping(uint256 => struct Transactions.Transaction)",
						"numberOfBytes": "32",
						"value": "t_struct(Transaction)14_storage"
					},
					"t_struct(Transaction)14_storage": {
						"encoding": "inplace",
						"label": "struct Transactions.Transaction",
						"members": [
							{
								"astId": 3,
								"contract": "contracts/Transaction.sol:Transactions",
								"label": "TransactionID",
								"offset": 0,
								"slot": "0",
								"type": "t_uint256"
							},
							{
								"astId": 5,
								"contract": "contracts/Transaction.sol:Transactions",
								"label": "PatchNo",
								"offset": 0,
								"slot": "1",
								"type": "t_uint256"
							},
							{
								"astId": 7,
								"contract": "contracts/Transaction.sol:Transactions",
								"label": "CurrentOwner",
								"offset": 0,
								"slot": "2",
								"type": "t_uint256"
							},
							{
								"astId": 9,
								"contract": "contracts/Transaction.sol:Transactions",
								"label": "FromOwner",
								"offset": 0,
								"slot": "3",
								"type": "t_uint256"
							},
							{
								"astId": 11,
								"contract": "contracts/Transaction.sol:Transactions",
								"label": "TransferedAmount",
								"offset": 0,
								"slot": "4",
								"type": "t_uint256"
							},
							{
								"astId": 13,
								"contract": "contracts/Transaction.sol:Transactions",
								"label": "TransactionDate",
								"offset": 0,
								"slot": "5",
								"type": "t_uint256"
							}
						],
						"numberOfBytes": "192"
					},
					"t_uint256": {
						"encoding": "inplace",
						"label": "uint256",
						"numberOfBytes": "32"
					}
				}
			},
			"userdoc": {
				"kind": "user",
				"methods": {},
				"version": 1
			}
		}
	}
}