{
	"contracts/NewDrugs.sol": {
		"Drugs": {
			"abi": [
				{
					"inputs": [],
					"stateMutability": "nonpayable",
					"type": "constructor"
				},
				{
					"anonymous": false,
					"inputs": [
						{
							"indexed": false,
							"internalType": "string",
							"name": "countryName",
							"type": "string"
						}
					],
					"name": "CountryDelete",
					"type": "event"
				},
				{
					"anonymous": false,
					"inputs": [
						{
							"indexed": false,
							"internalType": "string",
							"name": "countryName",
							"type": "string"
						},
						{
							"indexed": false,
							"internalType": "string",
							"name": "leader",
							"type": "string"
						},
						{
							"indexed": false,
							"internalType": "uint256",
							"name": "population",
							"type": "uint256"
						}
					],
					"name": "CountryEvent",
					"type": "event"
				},
				{
					"anonymous": false,
					"inputs": [
						{
							"indexed": false,
							"internalType": "string",
							"name": "countryName",
							"type": "string"
						},
						{
							"indexed": false,
							"internalType": "string",
							"name": "leader",
							"type": "string"
						}
					],
					"name": "LeaderUpdated",
					"type": "event"
				},
				{
					"inputs": [
						{
							"internalType": "uint256",
							"name": "",
							"type": "uint256"
						}
					],
					"name": "countries",
					"outputs": [
						{
							"internalType": "string",
							"name": "name",
							"type": "string"
						},
						{
							"internalType": "string",
							"name": "leader",
							"type": "string"
						},
						{
							"internalType": "uint256",
							"name": "population",
							"type": "uint256"
						}
					],
					"stateMutability": "view",
					"type": "function"
				},
				{
					"inputs": [
						{
							"internalType": "string",
							"name": "countryName",
							"type": "string"
						}
					],
					"name": "deleteCountry",
					"outputs": [
						{
							"internalType": "bool",
							"name": "success",
							"type": "bool"
						}
					],
					"stateMutability": "nonpayable",
					"type": "function"
				},
				{
					"inputs": [],
					"name": "getCountries",
					"outputs": [
						{
							"components": [
								{
									"internalType": "string",
									"name": "name",
									"type": "string"
								},
								{
									"internalType": "string",
									"name": "leader",
									"type": "string"
								},
								{
									"internalType": "uint256",
									"name": "population",
									"type": "uint256"
								}
							],
							"internalType": "struct Drugs.country[]",
							"name": "allCountries",
							"type": "tuple[]"
						}
					],
					"stateMutability": "view",
					"type": "function"
				},
				{
					"inputs": [],
					"name": "getCountries2",
					"outputs": [
						{
							"components": [
								{
									"internalType": "string",
									"name": "name",
									"type": "string"
								},
								{
									"internalType": "string",
									"name": "leader",
									"type": "string"
								},
								{
									"internalType": "uint256",
									"name": "population",
									"type": "uint256"
								}
							],
							"internalType": "struct Drugs.country[]",
							"name": "allCountries",
							"type": "tuple[]"
						}
					],
					"stateMutability": "view",
					"type": "function"
				},
				{
					"inputs": [
						{
							"internalType": "string",
							"name": "countryName",
							"type": "string"
						}
					],
					"name": "getCountry",
					"outputs": [
						{
							"internalType": "string",
							"name": "name",
							"type": "string"
						},
						{
							"internalType": "string",
							"name": "leader",
							"type": "string"
						},
						{
							"internalType": "uint256",
							"name": "population",
							"type": "uint256"
						}
					],
					"stateMutability": "view",
					"type": "function"
				},
				{
					"inputs": [],
					"name": "getTotalCountries",
					"outputs": [
						{
							"internalType": "uint256",
							"name": "length",
							"type": "uint256"
						}
					],
					"stateMutability": "view",
					"type": "function"
				},
				{
					"inputs": [
						{
							"internalType": "string",
							"name": "countryName",
							"type": "string"
						},
						{
							"internalType": "string",
							"name": "leader",
							"type": "string"
						},
						{
							"internalType": "uint256",
							"name": "population",
							"type": "uint256"
						}
					],
					"name": "insert",
					"outputs": [
						{
							"internalType": "uint256",
							"name": "_totalCountries",
							"type": "uint256"
						}
					],
					"stateMutability": "nonpayable",
					"type": "function"
				},
				{
					"inputs": [],
					"name": "totalCountries",
					"outputs": [
						{
							"internalType": "uint256",
							"name": "",
							"type": "uint256"
						}
					],
					"stateMutability": "view",
					"type": "function"
				},
				{
					"inputs": [
						{
							"internalType": "string",
							"name": "countryName",
							"type": "string"
						},
						{
							"internalType": "string",
							"name": "newLeader",
							"type": "string"
						}
					],
					"name": "updateLeader",
					"outputs": [
						{
							"internalType": "bool",
							"name": "success",
							"type": "bool"
						}
					],
					"stateMutability": "nonpayable",
					"type": "function"
				}
			],
			"devdoc": {
				"kind": "dev",
				"methods": {},
				"version": 1
			},
			"evm": {
				"assembly": "    /* \"contracts/NewDrugs.sol\":97:3807  contract Drugs{\r... */\n  mstore(0x40, 0x80)\n    /* \"contracts/NewDrugs.sol\":510:559  constructor() {\r... */\n  callvalue\n  dup1\n  iszero\n  tag_1\n  jumpi\n  0x00\n  dup1\n  revert\ntag_1:\n  pop\n    /* \"contracts/NewDrugs.sol\":551:552  0 */\n  0x00\n    /* \"contracts/NewDrugs.sol\":534:548  totalCountries */\n  0x02\n    /* \"contracts/NewDrugs.sol\":534:552  totalCountries = 0 */\n  dup2\n  swap1\n  sstore\n  pop\n    /* \"contracts/NewDrugs.sol\":97:3807  contract Drugs{\r... */\n  dataSize(sub_0)\n  dup1\n  dataOffset(sub_0)\n  0x00\n  codecopy\n  0x00\n  return\nstop\n\nsub_0: assembly {\n        /* \"contracts/NewDrugs.sol\":97:3807  contract Drugs{\r... */\n      mstore(0x40, 0x80)\n      callvalue\n      dup1\n      iszero\n      tag_1\n      jumpi\n      0x00\n      dup1\n      revert\n    tag_1:\n      pop\n      jumpi(tag_2, lt(calldatasize, 0x04))\n      shr(0xe0, calldataload(0x00))\n      dup1\n      0xa176c86c\n      gt\n      tag_12\n      jumpi\n      dup1\n      0xa176c86c\n      eq\n      tag_7\n      jumpi\n      dup1\n      0xacf75458\n      eq\n      tag_8\n      jumpi\n      dup1\n      0xbeca8009\n      eq\n      tag_9\n      jumpi\n      dup1\n      0xc1356d26\n      eq\n      tag_10\n      jumpi\n      dup1\n      0xcae65058\n      eq\n      tag_11\n      jumpi\n      jump(tag_2)\n    tag_12:\n      dup1\n      0x08e9daa5\n      eq\n      tag_3\n      jumpi\n      dup1\n      0x62738129\n      eq\n      tag_4\n      jumpi\n      dup1\n      0x81ba02be\n      eq\n      tag_5\n      jumpi\n      dup1\n      0x848924cb\n      eq\n      tag_6\n      jumpi\n    tag_2:\n      0x00\n      dup1\n      revert\n        /* \"contracts/NewDrugs.sol\":431:457  country[] public countries */\n    tag_3:\n      tag_13\n      0x04\n      dup1\n      calldatasize\n      sub\n      dup2\n      add\n      swap1\n      tag_14\n      swap2\n      swap1\n      tag_15\n      jump\t// in\n    tag_14:\n      tag_16\n      jump\t// in\n    tag_13:\n      mload(0x40)\n      tag_17\n      swap4\n      swap3\n      swap2\n      swap1\n      tag_18\n      jump\t// in\n    tag_17:\n      mload(0x40)\n      dup1\n      swap2\n      sub\n      swap1\n      return\n        /* \"contracts/NewDrugs.sol\":466:495  uint256 public totalCountries */\n    tag_4:\n      tag_19\n      tag_20\n      jump\t// in\n    tag_19:\n      mload(0x40)\n      tag_21\n      swap2\n      swap1\n      tag_22\n      jump\t// in\n    tag_21:\n      mload(0x40)\n      dup1\n      swap2\n      sub\n      swap1\n      return\n        /* \"contracts/NewDrugs.sol\":1174:1624  function updateLeader(string memory countryName, string memory newLeader) public returns (bool success){\r... */\n    tag_5:\n      tag_23\n      0x04\n      dup1\n      calldatasize\n      sub\n      dup2\n      add\n      swap1\n      tag_24\n      swap2\n      swap1\n      tag_25\n      jump\t// in\n    tag_24:\n      tag_26\n      jump\t// in\n    tag_23:\n      mload(0x40)\n      tag_27\n      swap2\n      swap1\n      tag_28\n      jump\t// in\n    tag_27:\n      mload(0x40)\n      dup1\n      swap2\n      sub\n      swap1\n      return\n        /* \"contracts/NewDrugs.sol\":2364:2797  function getCountry(string memory countryName) public view returns(string memory name , string memory leader , uint256 population){\r... */\n    tag_6:\n      tag_29\n      0x04\n      dup1\n      calldatasize\n      sub\n      dup2\n      add\n      swap1\n      tag_30\n      swap2\n      swap1\n      tag_31\n      jump\t// in\n    tag_30:\n      tag_32\n      jump\t// in\n    tag_29:\n      mload(0x40)\n      tag_33\n      swap4\n      swap3\n      swap2\n      swap1\n      tag_18\n      jump\t// in\n    tag_33:\n      mload(0x40)\n      dup1\n      swap2\n      sub\n      swap1\n      return\n        /* \"contracts/NewDrugs.sol\":3665:3802  function getCountries2() public view returns (country[] memory allCountries){\r... */\n    tag_7:\n      tag_34\n      tag_35\n      jump\t// in\n    tag_34:\n      mload(0x40)\n      tag_36\n      swap2\n      swap1\n      tag_37\n      jump\t// in\n    tag_36:\n      mload(0x40)\n      dup1\n      swap2\n      sub\n      swap1\n      return\n        /* \"contracts/NewDrugs.sol\":3002:3106  function getTotalCountries() public view returns (uint256 length){\r... */\n    tag_8:\n      tag_38\n      tag_39\n      jump\t// in\n    tag_38:\n      mload(0x40)\n      tag_40\n      swap2\n      swap1\n      tag_22\n      jump\t// in\n    tag_40:\n      mload(0x40)\n      dup1\n      swap2\n      sub\n      swap1\n      return\n        /* \"contracts/NewDrugs.sol\":3113:3656  function getCountries() public view returns (country[] memory allCountries){\r... */\n    tag_9:\n      tag_41\n      tag_42\n      jump\t// in\n    tag_41:\n      mload(0x40)\n      tag_43\n      swap2\n      swap1\n      tag_37\n      jump\t// in\n    tag_43:\n      mload(0x40)\n      dup1\n      swap2\n      sub\n      swap1\n      return\n        /* \"contracts/NewDrugs.sol\":767:1164  function insert( string memory countryName , string memory leader , uint256 population) public returns (uint256 _totalCountries){\r... */\n    tag_10:\n      tag_44\n      0x04\n      dup1\n      calldatasize\n      sub\n      dup2\n      add\n      swap1\n      tag_45\n      swap2\n      swap1\n      tag_46\n      jump\t// in\n    tag_45:\n      tag_47\n      jump\t// in\n    tag_44:\n      mload(0x40)\n      tag_48\n      swap2\n      swap1\n      tag_22\n      jump\t// in\n    tag_48:\n      mload(0x40)\n      dup1\n      swap2\n      sub\n      swap1\n      return\n        /* \"contracts/NewDrugs.sol\":1634:2347  function deleteCountry(string memory countryName) public returns(bool success){\r... */\n    tag_11:\n      tag_49\n      0x04\n      dup1\n      calldatasize\n      sub\n      dup2\n      add\n      swap1\n      tag_50\n      swap2\n      swap1\n      tag_31\n      jump\t// in\n    tag_50:\n      tag_51\n      jump\t// in\n    tag_49:\n      mload(0x40)\n      tag_52\n      swap2\n      swap1\n      tag_28\n      jump\t// in\n    tag_52:\n      mload(0x40)\n      dup1\n      swap2\n      sub\n      swap1\n      return\n        /* \"contracts/NewDrugs.sol\":431:457  country[] public countries */\n    tag_16:\n      0x01\n      dup2\n      dup2\n      sload\n      dup2\n      lt\n      tag_53\n      jumpi\n      0x00\n      dup1\n      revert\n    tag_53:\n      swap1\n      0x00\n      mstore\n      keccak256(0x00, 0x20)\n      swap1\n      0x03\n      mul\n      add\n      0x00\n      swap2\n      pop\n      swap1\n      pop\n      dup1\n      0x00\n      add\n      dup1\n      sload\n      tag_55\n      swap1\n      tag_56\n      jump\t// in\n    tag_55:\n      dup1\n      0x1f\n      add\n      0x20\n      dup1\n      swap2\n      div\n      mul\n      0x20\n      add\n      mload(0x40)\n      swap1\n      dup2\n      add\n      0x40\n      mstore\n      dup1\n      swap3\n      swap2\n      swap1\n      dup2\n      dup2\n      mstore\n      0x20\n      add\n      dup3\n      dup1\n      sload\n      tag_57\n      swap1\n      tag_56\n      jump\t// in\n    tag_57:\n      dup1\n      iszero\n      tag_58\n      jumpi\n      dup1\n      0x1f\n      lt\n      tag_59\n      jumpi\n      0x0100\n      dup1\n      dup4\n      sload\n      div\n      mul\n      dup4\n      mstore\n      swap2\n      0x20\n      add\n      swap2\n      jump(tag_58)\n    tag_59:\n      dup3\n      add\n      swap2\n      swap1\n      0x00\n      mstore\n      keccak256(0x00, 0x20)\n      swap1\n    tag_60:\n      dup2\n      sload\n      dup2\n      mstore\n      swap1\n      0x01\n      add\n      swap1\n      0x20\n      add\n      dup1\n      dup4\n      gt\n      tag_60\n      jumpi\n      dup3\n      swap1\n      sub\n      0x1f\n      and\n      dup3\n      add\n      swap2\n    tag_58:\n      pop\n      pop\n      pop\n      pop\n      pop\n      swap1\n      dup1\n      0x01\n      add\n      dup1\n      sload\n      tag_61\n      swap1\n      tag_56\n      jump\t// in\n    tag_61:\n      dup1\n      0x1f\n      add\n      0x20\n      dup1\n      swap2\n      div\n      mul\n      0x20\n      add\n      mload(0x40)\n      swap1\n      dup2\n      add\n      0x40\n      mstore\n      dup1\n      swap3\n      swap2\n      swap1\n      dup2\n      dup2\n      mstore\n      0x20\n      add\n      dup3\n      dup1\n      sload\n      tag_62\n      swap1\n      tag_56\n      jump\t// in\n    tag_62:\n      dup1\n      iszero\n      tag_63\n      jumpi\n      dup1\n      0x1f\n      lt\n      tag_64\n      jumpi\n      0x0100\n      dup1\n      dup4\n      sload\n      div\n      mul\n      dup4\n      mstore\n      swap2\n      0x20\n      add\n      swap2\n      jump(tag_63)\n    tag_64:\n      dup3\n      add\n      swap2\n      swap1\n      0x00\n      mstore\n      keccak256(0x00, 0x20)\n      swap1\n    tag_65:\n      dup2\n      sload\n      dup2\n      mstore\n      swap1\n      0x01\n      add\n      swap1\n      0x20\n      add\n      dup1\n      dup4\n      gt\n      tag_65\n      jumpi\n      dup3\n      swap1\n      sub\n      0x1f\n      and\n      dup3\n      add\n      swap2\n    tag_63:\n      pop\n      pop\n      pop\n      pop\n      pop\n      swap1\n      dup1\n      0x02\n      add\n      sload\n      swap1\n      pop\n      dup4\n      jump\t// out\n        /* \"contracts/NewDrugs.sol\":466:495  uint256 public totalCountries */\n    tag_20:\n      sload(0x02)\n      dup2\n      jump\t// out\n        /* \"contracts/NewDrugs.sol\":1174:1624  function updateLeader(string memory countryName, string memory newLeader) public returns (bool success){\r... */\n    tag_26:\n        /* \"contracts/NewDrugs.sol\":1264:1276  bool success */\n      0x00\n        /* \"contracts/NewDrugs.sol\":1333:1342  uint256 i */\n      dup1\n        /* \"contracts/NewDrugs.sol\":1344:1345  0 */\n      0x00\n        /* \"contracts/NewDrugs.sol\":1333:1345  uint256 i =0 */\n      swap1\n      pop\n        /* \"contracts/NewDrugs.sol\":1329:1596  for(uint256 i =0; i< totalCountries; i++){\r... */\n    tag_67:\n        /* \"contracts/NewDrugs.sol\":1350:1364  totalCountries */\n      sload(0x02)\n        /* \"contracts/NewDrugs.sol\":1347:1348  i */\n      dup2\n        /* \"contracts/NewDrugs.sol\":1347:1364  i< totalCountries */\n      lt\n        /* \"contracts/NewDrugs.sol\":1329:1596  for(uint256 i =0; i< totalCountries; i++){\r... */\n      iszero\n      tag_68\n      jumpi\n        /* \"contracts/NewDrugs.sol\":1387:1433  compareStrings(countries[i].name ,countryName) */\n      tag_70\n        /* \"contracts/NewDrugs.sol\":1402:1411  countries */\n      0x01\n        /* \"contracts/NewDrugs.sol\":1412:1413  i */\n      dup3\n        /* \"contracts/NewDrugs.sol\":1402:1414  countries[i] */\n      dup2\n      sload\n      dup2\n      lt\n      tag_71\n      jumpi\n      tag_72\n      tag_73\n      jump\t// in\n    tag_72:\n    tag_71:\n      swap1\n      0x00\n      mstore\n      keccak256(0x00, 0x20)\n      swap1\n      0x03\n      mul\n      add\n        /* \"contracts/NewDrugs.sol\":1402:1419  countries[i].name */\n      0x00\n      add\n        /* \"contracts/NewDrugs.sol\":1387:1433  compareStrings(countries[i].name ,countryName) */\n      dup1\n      sload\n      tag_75\n      swap1\n      tag_56\n      jump\t// in\n    tag_75:\n      dup1\n      0x1f\n      add\n      0x20\n      dup1\n      swap2\n      div\n      mul\n      0x20\n      add\n      mload(0x40)\n      swap1\n      dup2\n      add\n      0x40\n      mstore\n      dup1\n      swap3\n      swap2\n      swap1\n      dup2\n      dup2\n      mstore\n      0x20\n      add\n      dup3\n      dup1\n      sload\n      tag_76\n      swap1\n      tag_56\n      jump\t// in\n    tag_76:\n      dup1\n      iszero\n      tag_77\n      jumpi\n      dup1\n      0x1f\n      lt\n      tag_78\n      jumpi\n      0x0100\n      dup1\n      dup4\n      sload\n      div\n      mul\n      dup4\n      mstore\n      swap2\n      0x20\n      add\n      swap2\n      jump(tag_77)\n    tag_78:\n      dup3\n      add\n      swap2\n      swap1\n      0x00\n      mstore\n      keccak256(0x00, 0x20)\n      swap1\n    tag_79:\n      dup2\n      sload\n      dup2\n      mstore\n      swap1\n      0x01\n      add\n      swap1\n      0x20\n      add\n      dup1\n      dup4\n      gt\n      tag_79\n      jumpi\n      dup3\n      swap1\n      sub\n      0x1f\n      and\n      dup3\n      add\n      swap2\n    tag_77:\n      pop\n      pop\n      pop\n      pop\n      pop\n        /* \"contracts/NewDrugs.sol\":1421:1432  countryName */\n      dup6\n        /* \"contracts/NewDrugs.sol\":1387:1401  compareStrings */\n      tag_80\n        /* \"contracts/NewDrugs.sol\":1387:1433  compareStrings(countries[i].name ,countryName) */\n      jump\t// in\n    tag_70:\n        /* \"contracts/NewDrugs.sol\":1384:1586  if(compareStrings(countries[i].name ,countryName)){\r... */\n      iszero\n      tag_81\n      jumpi\n        /* \"contracts/NewDrugs.sol\":1473:1482  newLeader */\n      dup3\n        /* \"contracts/NewDrugs.sol\":1451:1460  countries */\n      0x01\n        /* \"contracts/NewDrugs.sol\":1461:1462  i */\n      dup3\n        /* \"contracts/NewDrugs.sol\":1451:1463  countries[i] */\n      dup2\n      sload\n      dup2\n      lt\n      tag_82\n      jumpi\n      tag_83\n      tag_73\n      jump\t// in\n    tag_83:\n    tag_82:\n      swap1\n      0x00\n      mstore\n      keccak256(0x00, 0x20)\n      swap1\n      0x03\n      mul\n      add\n        /* \"contracts/NewDrugs.sol\":1451:1470  countries[i].leader */\n      0x01\n      add\n        /* \"contracts/NewDrugs.sol\":1451:1482  countries[i].leader = newLeader */\n      swap1\n      dup1\n      mload\n      swap1\n      0x20\n      add\n      swap1\n      tag_85\n      swap3\n      swap2\n      swap1\n      tag_86\n      jump\t// in\n    tag_85:\n      pop\n        /* \"contracts/NewDrugs.sol\":1567:1571  true */\n      0x01\n        /* \"contracts/NewDrugs.sol\":1560:1571  return true */\n      swap2\n      pop\n      pop\n      jump(tag_66)\n        /* \"contracts/NewDrugs.sol\":1384:1586  if(compareStrings(countries[i].name ,countryName)){\r... */\n    tag_81:\n        /* \"contracts/NewDrugs.sol\":1366:1369  i++ */\n      dup1\n      dup1\n      tag_87\n      swap1\n      tag_88\n      jump\t// in\n    tag_87:\n      swap2\n      pop\n      pop\n        /* \"contracts/NewDrugs.sol\":1329:1596  for(uint256 i =0; i< totalCountries; i++){\r... */\n      jump(tag_67)\n    tag_68:\n      pop\n        /* \"contracts/NewDrugs.sol\":1612:1617  false */\n      0x00\n        /* \"contracts/NewDrugs.sol\":1605:1617  return false */\n      swap1\n      pop\n        /* \"contracts/NewDrugs.sol\":1174:1624  function updateLeader(string memory countryName, string memory newLeader) public returns (bool success){\r... */\n    tag_66:\n      swap3\n      swap2\n      pop\n      pop\n      jump\t// out\n        /* \"contracts/NewDrugs.sol\":2364:2797  function getCountry(string memory countryName) public view returns(string memory name , string memory leader , uint256 population){\r... */\n    tag_32:\n        /* \"contracts/NewDrugs.sol\":2431:2449  string memory name */\n      0x60\n        /* \"contracts/NewDrugs.sol\":2452:2472  string memory leader */\n      dup1\n        /* \"contracts/NewDrugs.sol\":2475:2493  uint256 population */\n      0x00\n        /* \"contracts/NewDrugs.sol\":2509:2518  uint256 i */\n      dup1\n        /* \"contracts/NewDrugs.sol\":2520:2521  0 */\n      0x00\n        /* \"contracts/NewDrugs.sol\":2509:2521  uint256 i =0 */\n      swap1\n      pop\n        /* \"contracts/NewDrugs.sol\":2505:2754  for(uint256 i =0; i< totalCountries; i++){\r... */\n    tag_90:\n        /* \"contracts/NewDrugs.sol\":2526:2540  totalCountries */\n      sload(0x02)\n        /* \"contracts/NewDrugs.sol\":2523:2524  i */\n      dup2\n        /* \"contracts/NewDrugs.sol\":2523:2540  i< totalCountries */\n      lt\n        /* \"contracts/NewDrugs.sol\":2505:2754  for(uint256 i =0; i< totalCountries; i++){\r... */\n      iszero\n      tag_91\n      jumpi\n        /* \"contracts/NewDrugs.sol\":2563:2609  compareStrings(countries[i].name, countryName) */\n      tag_93\n        /* \"contracts/NewDrugs.sol\":2578:2587  countries */\n      0x01\n        /* \"contracts/NewDrugs.sol\":2588:2589  i */\n      dup3\n        /* \"contracts/NewDrugs.sol\":2578:2590  countries[i] */\n      dup2\n      sload\n      dup2\n      lt\n      tag_94\n      jumpi\n      tag_95\n      tag_73\n      jump\t// in\n    tag_95:\n    tag_94:\n      swap1\n      0x00\n      mstore\n      keccak256(0x00, 0x20)\n      swap1\n      0x03\n      mul\n      add\n        /* \"contracts/NewDrugs.sol\":2578:2595  countries[i].name */\n      0x00\n      add\n        /* \"contracts/NewDrugs.sol\":2563:2609  compareStrings(countries[i].name, countryName) */\n      dup1\n      sload\n      tag_97\n      swap1\n      tag_56\n      jump\t// in\n    tag_97:\n      dup1\n      0x1f\n      add\n      0x20\n      dup1\n      swap2\n      div\n      mul\n      0x20\n      add\n      mload(0x40)\n      swap1\n      dup2\n      add\n      0x40\n      mstore\n      dup1\n      swap3\n      swap2\n      swap1\n      dup2\n      dup2\n      mstore\n      0x20\n      add\n      dup3\n      dup1\n      sload\n      tag_98\n      swap1\n      tag_56\n      jump\t// in\n    tag_98:\n      dup1\n      iszero\n      tag_99\n      jumpi\n      dup1\n      0x1f\n      lt\n      tag_100\n      jumpi\n      0x0100\n      dup1\n      dup4\n      sload\n      div\n      mul\n      dup4\n      mstore\n      swap2\n      0x20\n      add\n      swap2\n      jump(tag_99)\n    tag_100:\n      dup3\n      add\n      swap2\n      swap1\n      0x00\n      mstore\n      keccak256(0x00, 0x20)\n      swap1\n    tag_101:\n      dup2\n      sload\n      dup2\n      mstore\n      swap1\n      0x01\n      add\n      swap1\n      0x20\n      add\n      dup1\n      dup4\n      gt\n      tag_101\n      jumpi\n      dup3\n      swap1\n      sub\n      0x1f\n      and\n      dup3\n      add\n      swap2\n    tag_99:\n      pop\n      pop\n      pop\n      pop\n      pop\n        /* \"contracts/NewDrugs.sol\":2597:2608  countryName */\n      dup7\n        /* \"contracts/NewDrugs.sol\":2563:2577  compareStrings */\n      tag_80\n        /* \"contracts/NewDrugs.sol\":2563:2609  compareStrings(countries[i].name, countryName) */\n      jump\t// in\n    tag_93:\n        /* \"contracts/NewDrugs.sol\":2560:2744  if(compareStrings(countries[i].name, countryName)){\r... */\n      iszero\n      tag_102\n      jumpi\n        /* \"contracts/NewDrugs.sol\":2663:2672  countries */\n      0x01\n        /* \"contracts/NewDrugs.sol\":2673:2674  i */\n      dup2\n        /* \"contracts/NewDrugs.sol\":2663:2675  countries[i] */\n      dup2\n      sload\n      dup2\n      lt\n      tag_103\n      jumpi\n      tag_104\n      tag_73\n      jump\t// in\n    tag_104:\n    tag_103:\n      swap1\n      0x00\n      mstore\n      keccak256(0x00, 0x20)\n      swap1\n      0x03\n      mul\n      add\n        /* \"contracts/NewDrugs.sol\":2663:2680  countries[i].name */\n      0x00\n      add\n        /* \"contracts/NewDrugs.sol\":2683:2692  countries */\n      0x01\n        /* \"contracts/NewDrugs.sol\":2693:2694  i */\n      dup3\n        /* \"contracts/NewDrugs.sol\":2683:2695  countries[i] */\n      dup2\n      sload\n      dup2\n      lt\n      tag_106\n      jumpi\n      tag_107\n      tag_73\n      jump\t// in\n    tag_107:\n    tag_106:\n      swap1\n      0x00\n      mstore\n      keccak256(0x00, 0x20)\n      swap1\n      0x03\n      mul\n      add\n        /* \"contracts/NewDrugs.sol\":2683:2702  countries[i].leader */\n      0x01\n      add\n        /* \"contracts/NewDrugs.sol\":2705:2714  countries */\n      0x01\n        /* \"contracts/NewDrugs.sol\":2715:2716  i */\n      dup4\n        /* \"contracts/NewDrugs.sol\":2705:2717  countries[i] */\n      dup2\n      sload\n      dup2\n      lt\n      tag_109\n      jumpi\n      tag_110\n      tag_73\n      jump\t// in\n    tag_110:\n    tag_109:\n      swap1\n      0x00\n      mstore\n      keccak256(0x00, 0x20)\n      swap1\n      0x03\n      mul\n      add\n        /* \"contracts/NewDrugs.sol\":2705:2728  countries[i].population */\n      0x02\n      add\n      sload\n        /* \"contracts/NewDrugs.sol\":2655:2729  return (countries[i].name , countries[i].leader , countries[i].population) */\n      dup3\n      dup1\n      sload\n      tag_112\n      swap1\n      tag_56\n      jump\t// in\n    tag_112:\n      dup1\n      0x1f\n      add\n      0x20\n      dup1\n      swap2\n      div\n      mul\n      0x20\n      add\n      mload(0x40)\n      swap1\n      dup2\n      add\n      0x40\n      mstore\n      dup1\n      swap3\n      swap2\n      swap1\n      dup2\n      dup2\n      mstore\n      0x20\n      add\n      dup3\n      dup1\n      sload\n      tag_113\n      swap1\n      tag_56\n      jump\t// in\n    tag_113:\n      dup1\n      iszero\n      tag_114\n      jumpi\n      dup1\n      0x1f\n      lt\n      tag_115\n      jumpi\n      0x0100\n      dup1\n      dup4\n      sload\n      div\n      mul\n      dup4\n      mstore\n      swap2\n      0x20\n      add\n      swap2\n      jump(tag_114)\n    tag_115:\n      dup3\n      add\n      swap2\n      swap1\n      0x00\n      mstore\n      keccak256(0x00, 0x20)\n      swap1\n    tag_116:\n      dup2\n      sload\n      dup2\n      mstore\n      swap1\n      0x01\n      add\n      swap1\n      0x20\n      add\n      dup1\n      dup4\n      gt\n      tag_116\n      jumpi\n      dup3\n      swap1\n      sub\n      0x1f\n      and\n      dup3\n      add\n      swap2\n    tag_114:\n      pop\n      pop\n      pop\n      pop\n      pop\n      swap3\n      pop\n      dup2\n      dup1\n      sload\n      tag_117\n      swap1\n      tag_56\n      jump\t// in\n    tag_117:\n      dup1\n      0x1f\n      add\n      0x20\n      dup1\n      swap2\n      div\n      mul\n      0x20\n      add\n      mload(0x40)\n      swap1\n      dup2\n      add\n      0x40\n      mstore\n      dup1\n      swap3\n      swap2\n      swap1\n      dup2\n      dup2\n      mstore\n      0x20\n      add\n      dup3\n      dup1\n      sload\n      tag_118\n      swap1\n      tag_56\n      jump\t// in\n    tag_118:\n      dup1\n      iszero\n      tag_119\n      jumpi\n      dup1\n      0x1f\n      lt\n      tag_120\n      jumpi\n      0x0100\n      dup1\n      dup4\n      sload\n      div\n      mul\n      dup4\n      mstore\n      swap2\n      0x20\n      add\n      swap2\n      jump(tag_119)\n    tag_120:\n      dup3\n      add\n      swap2\n      swap1\n      0x00\n      mstore\n      keccak256(0x00, 0x20)\n      swap1\n    tag_121:\n      dup2\n      sload\n      dup2\n      mstore\n      swap1\n      0x01\n      add\n      swap1\n      0x20\n      add\n      dup1\n      dup4\n      gt\n      tag_121\n      jumpi\n      dup3\n      swap1\n      sub\n      0x1f\n      and\n      dup3\n      add\n      swap2\n    tag_119:\n      pop\n      pop\n      pop\n      pop\n      pop\n      swap2\n      pop\n      swap4\n      pop\n      swap4\n      pop\n      swap4\n      pop\n      pop\n      jump(tag_89)\n        /* \"contracts/NewDrugs.sol\":2560:2744  if(compareStrings(countries[i].name, countryName)){\r... */\n    tag_102:\n        /* \"contracts/NewDrugs.sol\":2542:2545  i++ */\n      dup1\n      dup1\n      tag_122\n      swap1\n      tag_88\n      jump\t// in\n    tag_122:\n      swap2\n      pop\n      pop\n        /* \"contracts/NewDrugs.sol\":2505:2754  for(uint256 i =0; i< totalCountries; i++){\r... */\n      jump(tag_90)\n    tag_91:\n      pop\n        /* \"contracts/NewDrugs.sol\":2763:2790  revert('country not found') */\n      mload(0x40)\n      0x08c379a000000000000000000000000000000000000000000000000000000000\n      dup2\n      mstore\n      0x04\n      add\n      tag_123\n      swap1\n      tag_124\n      jump\t// in\n    tag_123:\n      mload(0x40)\n      dup1\n      swap2\n      sub\n      swap1\n      revert\n        /* \"contracts/NewDrugs.sol\":2364:2797  function getCountry(string memory countryName) public view returns(string memory name , string memory leader , uint256 population){\r... */\n    tag_89:\n      swap2\n      swap4\n      swap1\n      swap3\n      pop\n      jump\t// out\n        /* \"contracts/NewDrugs.sol\":3665:3802  function getCountries2() public view returns (country[] memory allCountries){\r... */\n    tag_35:\n        /* \"contracts/NewDrugs.sol\":3711:3740  country[] memory allCountries */\n      0x60\n        /* \"contracts/NewDrugs.sol\":3786:3795  countries */\n      0x01\n        /* \"contracts/NewDrugs.sol\":3779:3795  return countries */\n      dup1\n      sload\n      dup1\n      0x20\n      mul\n      0x20\n      add\n      mload(0x40)\n      swap1\n      dup2\n      add\n      0x40\n      mstore\n      dup1\n      swap3\n      swap2\n      swap1\n      dup2\n      dup2\n      mstore\n      0x20\n      add\n      0x00\n      swap1\n    tag_126:\n      dup3\n      dup3\n      lt\n      iszero\n      tag_127\n      jumpi\n      dup4\n      dup3\n      swap1\n      0x00\n      mstore\n      keccak256(0x00, 0x20)\n      swap1\n      0x03\n      mul\n      add\n      mload(0x40)\n      dup1\n      0x60\n      add\n      0x40\n      mstore\n      swap1\n      dup2\n      0x00\n      dup3\n      add\n      dup1\n      sload\n      tag_129\n      swap1\n      tag_56\n      jump\t// in\n    tag_129:\n      dup1\n      0x1f\n      add\n      0x20\n      dup1\n      swap2\n      div\n      mul\n      0x20\n      add\n      mload(0x40)\n      swap1\n      dup2\n      add\n      0x40\n      mstore\n      dup1\n      swap3\n      swap2\n      swap1\n      dup2\n      dup2\n      mstore\n      0x20\n      add\n      dup3\n      dup1\n      sload\n      tag_130\n      swap1\n      tag_56\n      jump\t// in\n    tag_130:\n      dup1\n      iszero\n      tag_131\n      jumpi\n      dup1\n      0x1f\n      lt\n      tag_132\n      jumpi\n      0x0100\n      dup1\n      dup4\n      sload\n      div\n      mul\n      dup4\n      mstore\n      swap2\n      0x20\n      add\n      swap2\n      jump(tag_131)\n    tag_132:\n      dup3\n      add\n      swap2\n      swap1\n      0x00\n      mstore\n      keccak256(0x00, 0x20)\n      swap1\n    tag_133:\n      dup2\n      sload\n      dup2\n      mstore\n      swap1\n      0x01\n      add\n      swap1\n      0x20\n      add\n      dup1\n      dup4\n      gt\n      tag_133\n      jumpi\n      dup3\n      swap1\n      sub\n      0x1f\n      and\n      dup3\n      add\n      swap2\n    tag_131:\n      pop\n      pop\n      pop\n      pop\n      pop\n      dup2\n      mstore\n      0x20\n      add\n      0x01\n      dup3\n      add\n      dup1\n      sload\n      tag_134\n      swap1\n      tag_56\n      jump\t// in\n    tag_134:\n      dup1\n      0x1f\n      add\n      0x20\n      dup1\n      swap2\n      div\n      mul\n      0x20\n      add\n      mload(0x40)\n      swap1\n      dup2\n      add\n      0x40\n      mstore\n      dup1\n      swap3\n      swap2\n      swap1\n      dup2\n      dup2\n      mstore\n      0x20\n      add\n      dup3\n      dup1\n      sload\n      tag_135\n      swap1\n      tag_56\n      jump\t// in\n    tag_135:\n      dup1\n      iszero\n      tag_136\n      jumpi\n      dup1\n      0x1f\n      lt\n      tag_137\n      jumpi\n      0x0100\n      dup1\n      dup4\n      sload\n      div\n      mul\n      dup4\n      mstore\n      swap2\n      0x20\n      add\n      swap2\n      jump(tag_136)\n    tag_137:\n      dup3\n      add\n      swap2\n      swap1\n      0x00\n      mstore\n      keccak256(0x00, 0x20)\n      swap1\n    tag_138:\n      dup2\n      sload\n      dup2\n      mstore\n      swap1\n      0x01\n      add\n      swap1\n      0x20\n      add\n      dup1\n      dup4\n      gt\n      tag_138\n      jumpi\n      dup3\n      swap1\n      sub\n      0x1f\n      and\n      dup3\n      add\n      swap2\n    tag_136:\n      pop\n      pop\n      pop\n      pop\n      pop\n      dup2\n      mstore\n      0x20\n      add\n      0x02\n      dup3\n      add\n      sload\n      dup2\n      mstore\n      pop\n      pop\n      dup2\n      mstore\n      0x20\n      add\n      swap1\n      0x01\n      add\n      swap1\n      jump(tag_126)\n    tag_127:\n      pop\n      pop\n      pop\n      pop\n      swap1\n      pop\n        /* \"contracts/NewDrugs.sol\":3665:3802  function getCountries2() public view returns (country[] memory allCountries){\r... */\n      swap1\n      jump\t// out\n        /* \"contracts/NewDrugs.sol\":3002:3106  function getTotalCountries() public view returns (uint256 length){\r... */\n    tag_39:\n        /* \"contracts/NewDrugs.sol\":3052:3066  uint256 length */\n      0x00\n        /* \"contracts/NewDrugs.sol\":3083:3092  countries */\n      0x01\n        /* \"contracts/NewDrugs.sol\":3083:3099  countries.length */\n      dup1\n      sload\n      swap1\n      pop\n        /* \"contracts/NewDrugs.sol\":3076:3099  return countries.length */\n      swap1\n      pop\n        /* \"contracts/NewDrugs.sol\":3002:3106  function getTotalCountries() public view returns (uint256 length){\r... */\n      swap1\n      jump\t// out\n        /* \"contracts/NewDrugs.sol\":3113:3656  function getCountries() public view returns (country[] memory allCountries){\r... */\n    tag_42:\n        /* \"contracts/NewDrugs.sol\":3158:3187  country[] memory allCountries */\n      0x60\n        /* \"contracts/NewDrugs.sol\":3223:3252  country[] memory CountriesArr */\n      0x00\n        /* \"contracts/NewDrugs.sol\":3269:3283  totalCountries */\n      sload(0x02)\n        /* \"contracts/NewDrugs.sol\":3255:3284  new country[](totalCountries) */\n      0xffffffffffffffff\n      dup2\n      gt\n      iszero\n      tag_141\n      jumpi\n      tag_142\n      tag_143\n      jump\t// in\n    tag_142:\n    tag_141:\n      mload(0x40)\n      swap1\n      dup1\n      dup3\n      mstore\n      dup1\n      0x20\n      mul\n      0x20\n      add\n      dup3\n      add\n      0x40\n      mstore\n      dup1\n      iszero\n      tag_144\n      jumpi\n      dup2\n      0x20\n      add\n    tag_145:\n      tag_146\n      tag_147\n      jump\t// in\n    tag_146:\n      dup2\n      mstore\n      0x20\n      add\n      swap1\n      0x01\n      swap1\n      sub\n      swap1\n      dup2\n      tag_145\n      jumpi\n      swap1\n      pop\n    tag_144:\n      pop\n        /* \"contracts/NewDrugs.sol\":3223:3284  country[] memory CountriesArr = new country[](totalCountries) */\n      swap1\n      pop\n        /* \"contracts/NewDrugs.sol\":3300:3306  uint i */\n      0x00\n        /* \"contracts/NewDrugs.sol\":3295:3590  for (uint i = 0; i < totalCountries; i++) {\r... */\n    tag_148:\n        /* \"contracts/NewDrugs.sol\":3316:3330  totalCountries */\n      sload(0x02)\n        /* \"contracts/NewDrugs.sol\":3312:3313  i */\n      dup2\n        /* \"contracts/NewDrugs.sol\":3312:3330  i < totalCountries */\n      lt\n        /* \"contracts/NewDrugs.sol\":3295:3590  for (uint i = 0; i < totalCountries; i++) {\r... */\n      iszero\n      tag_149\n      jumpi\n        /* \"contracts/NewDrugs.sol\":3566:3575  countries */\n      0x01\n        /* \"contracts/NewDrugs.sol\":3576:3577  i */\n      dup2\n        /* \"contracts/NewDrugs.sol\":3566:3578  countries[i] */\n      dup2\n      sload\n      dup2\n      lt\n      tag_151\n      jumpi\n      tag_152\n      tag_73\n      jump\t// in\n    tag_152:\n    tag_151:\n      swap1\n      0x00\n      mstore\n      keccak256(0x00, 0x20)\n      swap1\n      0x03\n      mul\n      add\n        /* \"contracts/NewDrugs.sol\":3548:3578  CountriesArr[i] = countries[i] */\n      mload(0x40)\n      dup1\n      0x60\n      add\n      0x40\n      mstore\n      swap1\n      dup2\n      0x00\n      dup3\n      add\n      dup1\n      sload\n      tag_154\n      swap1\n      tag_56\n      jump\t// in\n    tag_154:\n      dup1\n      0x1f\n      add\n      0x20\n      dup1\n      swap2\n      div\n      mul\n      0x20\n      add\n      mload(0x40)\n      swap1\n      dup2\n      add\n      0x40\n      mstore\n      dup1\n      swap3\n      swap2\n      swap1\n      dup2\n      dup2\n      mstore\n      0x20\n      add\n      dup3\n      dup1\n      sload\n      tag_155\n      swap1\n      tag_56\n      jump\t// in\n    tag_155:\n      dup1\n      iszero\n      tag_156\n      jumpi\n      dup1\n      0x1f\n      lt\n      tag_157\n      jumpi\n      0x0100\n      dup1\n      dup4\n      sload\n      div\n      mul\n      dup4\n      mstore\n      swap2\n      0x20\n      add\n      swap2\n      jump(tag_156)\n    tag_157:\n      dup3\n      add\n      swap2\n      swap1\n      0x00\n      mstore\n      keccak256(0x00, 0x20)\n      swap1\n    tag_158:\n      dup2\n      sload\n      dup2\n      mstore\n      swap1\n      0x01\n      add\n      swap1\n      0x20\n      add\n      dup1\n      dup4\n      gt\n      tag_158\n      jumpi\n      dup3\n      swap1\n      sub\n      0x1f\n      and\n      dup3\n      add\n      swap2\n    tag_156:\n      pop\n      pop\n      pop\n      pop\n      pop\n      dup2\n      mstore\n      0x20\n      add\n      0x01\n      dup3\n      add\n      dup1\n      sload\n      tag_159\n      swap1\n      tag_56\n      jump\t// in\n    tag_159:\n      dup1\n      0x1f\n      add\n      0x20\n      dup1\n      swap2\n      div\n      mul\n      0x20\n      add\n      mload(0x40)\n      swap1\n      dup2\n      add\n      0x40\n      mstore\n      dup1\n      swap3\n      swap2\n      swap1\n      dup2\n      dup2\n      mstore\n      0x20\n      add\n      dup3\n      dup1\n      sload\n      tag_160\n      swap1\n      tag_56\n      jump\t// in\n    tag_160:\n      dup1\n      iszero\n      tag_161\n      jumpi\n      dup1\n      0x1f\n      lt\n      tag_162\n      jumpi\n      0x0100\n      dup1\n      dup4\n      sload\n      div\n      mul\n      dup4\n      mstore\n      swap2\n      0x20\n      add\n      swap2\n      jump(tag_161)\n    tag_162:\n      dup3\n      add\n      swap2\n      swap1\n      0x00\n      mstore\n      keccak256(0x00, 0x20)\n      swap1\n    tag_163:\n      dup2\n      sload\n      dup2\n      mstore\n      swap1\n      0x01\n      add\n      swap1\n      0x20\n      add\n      dup1\n      dup4\n      gt\n      tag_163\n      jumpi\n      dup3\n      swap1\n      sub\n      0x1f\n      and\n      dup3\n      add\n      swap2\n    tag_161:\n      pop\n      pop\n      pop\n      pop\n      pop\n      dup2\n      mstore\n      0x20\n      add\n      0x02\n      dup3\n      add\n      sload\n      dup2\n      mstore\n      pop\n      pop\n        /* \"contracts/NewDrugs.sol\":3548:3560  CountriesArr */\n      dup3\n        /* \"contracts/NewDrugs.sol\":3561:3562  i */\n      dup3\n        /* \"contracts/NewDrugs.sol\":3548:3563  CountriesArr[i] */\n      dup2\n      mload\n      dup2\n      lt\n      tag_164\n      jumpi\n      tag_165\n      tag_73\n      jump\t// in\n    tag_165:\n    tag_164:\n      0x20\n      mul\n      0x20\n      add\n      add\n        /* \"contracts/NewDrugs.sol\":3548:3578  CountriesArr[i] = countries[i] */\n      dup2\n      swap1\n      mstore\n      pop\n        /* \"contracts/NewDrugs.sol\":3332:3335  i++ */\n      dup1\n      dup1\n      tag_166\n      swap1\n      tag_88\n      jump\t// in\n    tag_166:\n      swap2\n      pop\n      pop\n        /* \"contracts/NewDrugs.sol\":3295:3590  for (uint i = 0; i < totalCountries; i++) {\r... */\n      jump(tag_148)\n    tag_149:\n      pop\n        /* \"contracts/NewDrugs.sol\":3607:3619  CountriesArr */\n      dup1\n        /* \"contracts/NewDrugs.sol\":3600:3619  return CountriesArr */\n      swap2\n      pop\n      pop\n        /* \"contracts/NewDrugs.sol\":3113:3656  function getCountries() public view returns (country[] memory allCountries){\r... */\n      swap1\n      jump\t// out\n        /* \"contracts/NewDrugs.sol\":767:1164  function insert( string memory countryName , string memory leader , uint256 population) public returns (uint256 _totalCountries){\r... */\n    tag_47:\n        /* \"contracts/NewDrugs.sol\":871:894  uint256 _totalCountries */\n      0x00\n        /* \"contracts/NewDrugs.sol\":906:931  country memory newCountry */\n      dup1\n        /* \"contracts/NewDrugs.sol\":934:975  country(countryName , leader, population) */\n      mload(0x40)\n      dup1\n      0x60\n      add\n      0x40\n      mstore\n      dup1\n        /* \"contracts/NewDrugs.sol\":942:953  countryName */\n      dup7\n        /* \"contracts/NewDrugs.sol\":934:975  country(countryName , leader, population) */\n      dup2\n      mstore\n      0x20\n      add\n        /* \"contracts/NewDrugs.sol\":956:962  leader */\n      dup6\n        /* \"contracts/NewDrugs.sol\":934:975  country(countryName , leader, population) */\n      dup2\n      mstore\n      0x20\n      add\n        /* \"contracts/NewDrugs.sol\":964:974  population */\n      dup5\n        /* \"contracts/NewDrugs.sol\":934:975  country(countryName , leader, population) */\n      dup2\n      mstore\n      pop\n        /* \"contracts/NewDrugs.sol\":906:975  country memory newCountry = country(countryName , leader, population) */\n      swap1\n      pop\n        /* \"contracts/NewDrugs.sol\":986:995  countries */\n      0x01\n        /* \"contracts/NewDrugs.sol\":1001:1011  newCountry */\n      dup2\n        /* \"contracts/NewDrugs.sol\":986:1012  countries.push(newCountry) */\n      swap1\n      dup1\n      0x01\n      dup2\n      sload\n      add\n      dup1\n      dup3\n      sstore\n      dup1\n      swap2\n      pop\n      pop\n      0x01\n      swap1\n      sub\n      swap1\n      0x00\n      mstore\n      keccak256(0x00, 0x20)\n      swap1\n      0x03\n      mul\n      add\n      0x00\n      swap1\n      swap2\n      swap1\n      swap2\n      swap1\n      swap2\n      pop\n      0x00\n      dup3\n      add\n      mload\n      dup2\n      0x00\n      add\n      swap1\n      dup1\n      mload\n      swap1\n      0x20\n      add\n      swap1\n      tag_169\n      swap3\n      swap2\n      swap1\n      tag_86\n      jump\t// in\n    tag_169:\n      pop\n      0x20\n      dup3\n      add\n      mload\n      dup2\n      0x01\n      add\n      swap1\n      dup1\n      mload\n      swap1\n      0x20\n      add\n      swap1\n      tag_170\n      swap3\n      swap2\n      swap1\n      tag_86\n      jump\t// in\n    tag_170:\n      pop\n      0x40\n      dup3\n      add\n      mload\n      dup2\n      0x02\n      add\n      sstore\n      pop\n      pop\n        /* \"contracts/NewDrugs.sol\":1023:1037  totalCountries */\n      0x02\n      0x00\n        /* \"contracts/NewDrugs.sol\":1023:1039  totalCountries++ */\n      dup2\n      sload\n      dup1\n      swap3\n      swap2\n      swap1\n      tag_171\n      swap1\n      tag_88\n      jump\t// in\n    tag_171:\n      swap2\n      swap1\n      pop\n      sstore\n      pop\n        /* \"contracts/NewDrugs.sol\":1143:1157  totalCountries */\n      sload(0x02)\n        /* \"contracts/NewDrugs.sol\":1136:1157  return totalCountries */\n      swap2\n      pop\n      pop\n        /* \"contracts/NewDrugs.sol\":767:1164  function insert( string memory countryName , string memory leader , uint256 population) public returns (uint256 _totalCountries){\r... */\n      swap4\n      swap3\n      pop\n      pop\n      pop\n      jump\t// out\n        /* \"contracts/NewDrugs.sol\":1634:2347  function deleteCountry(string memory countryName) public returns(bool success){\r... */\n    tag_51:\n        /* \"contracts/NewDrugs.sol\":1699:1711  bool success */\n      0x00\n        /* \"contracts/NewDrugs.sol\":1748:1749  0 */\n      dup1\n        /* \"contracts/NewDrugs.sol\":1731:1745  totalCountries */\n      sload(0x02)\n        /* \"contracts/NewDrugs.sol\":1731:1749  totalCountries > 0 */\n      gt\n        /* \"contracts/NewDrugs.sol\":1723:1750  require(totalCountries > 0) */\n      tag_173\n      jumpi\n      0x00\n      dup1\n      revert\n    tag_173:\n        /* \"contracts/NewDrugs.sol\":1765:1774  uint256 i */\n      0x00\n        /* \"contracts/NewDrugs.sol\":1761:2319  for(uint256 i =0; i< totalCountries; i++){\r... */\n    tag_174:\n        /* \"contracts/NewDrugs.sol\":1782:1796  totalCountries */\n      sload(0x02)\n        /* \"contracts/NewDrugs.sol\":1779:1780  i */\n      dup2\n        /* \"contracts/NewDrugs.sol\":1779:1796  i< totalCountries */\n      lt\n        /* \"contracts/NewDrugs.sol\":1761:2319  for(uint256 i =0; i< totalCountries; i++){\r... */\n      iszero\n      tag_175\n      jumpi\n        /* \"contracts/NewDrugs.sol\":1819:1866  compareStrings(countries[i].name , countryName) */\n      tag_177\n        /* \"contracts/NewDrugs.sol\":1834:1843  countries */\n      0x01\n        /* \"contracts/NewDrugs.sol\":1844:1845  i */\n      dup3\n        /* \"contracts/NewDrugs.sol\":1834:1846  countries[i] */\n      dup2\n      sload\n      dup2\n      lt\n      tag_178\n      jumpi\n      tag_179\n      tag_73\n      jump\t// in\n    tag_179:\n    tag_178:\n      swap1\n      0x00\n      mstore\n      keccak256(0x00, 0x20)\n      swap1\n      0x03\n      mul\n      add\n        /* \"contracts/NewDrugs.sol\":1834:1851  countries[i].name */\n      0x00\n      add\n        /* \"contracts/NewDrugs.sol\":1819:1866  compareStrings(countries[i].name , countryName) */\n      dup1\n      sload\n      tag_181\n      swap1\n      tag_56\n      jump\t// in\n    tag_181:\n      dup1\n      0x1f\n      add\n      0x20\n      dup1\n      swap2\n      div\n      mul\n      0x20\n      add\n      mload(0x40)\n      swap1\n      dup2\n      add\n      0x40\n      mstore\n      dup1\n      swap3\n      swap2\n      swap1\n      dup2\n      dup2\n      mstore\n      0x20\n      add\n      dup3\n      dup1\n      sload\n      tag_182\n      swap1\n      tag_56\n      jump\t// in\n    tag_182:\n      dup1\n      iszero\n      tag_183\n      jumpi\n      dup1\n      0x1f\n      lt\n      tag_184\n      jumpi\n      0x0100\n      dup1\n      dup4\n      sload\n      div\n      mul\n      dup4\n      mstore\n      swap2\n      0x20\n      add\n      swap2\n      jump(tag_183)\n    tag_184:\n      dup3\n      add\n      swap2\n      swap1\n      0x00\n      mstore\n      keccak256(0x00, 0x20)\n      swap1\n    tag_185:\n      dup2\n      sload\n      dup2\n      mstore\n      swap1\n      0x01\n      add\n      swap1\n      0x20\n      add\n      dup1\n      dup4\n      gt\n      tag_185\n      jumpi\n      dup3\n      swap1\n      sub\n      0x1f\n      and\n      dup3\n      add\n      swap2\n    tag_183:\n      pop\n      pop\n      pop\n      pop\n      pop\n        /* \"contracts/NewDrugs.sol\":1854:1865  countryName */\n      dup5\n        /* \"contracts/NewDrugs.sol\":1819:1833  compareStrings */\n      tag_80\n        /* \"contracts/NewDrugs.sol\":1819:1866  compareStrings(countries[i].name , countryName) */\n      jump\t// in\n    tag_177:\n        /* \"contracts/NewDrugs.sol\":1816:2309  if(compareStrings(countries[i].name , countryName)){\r... */\n      iszero\n      tag_186\n      jumpi\n        /* \"contracts/NewDrugs.sol\":1899:1908  countries */\n      0x01\n        /* \"contracts/NewDrugs.sol\":1924:1925  1 */\n      dup1\n        /* \"contracts/NewDrugs.sol\":1909:1923  totalCountries */\n      sload(0x02)\n        /* \"contracts/NewDrugs.sol\":1909:1925  totalCountries-1 */\n      tag_187\n      swap2\n      swap1\n      tag_188\n      jump\t// in\n    tag_187:\n        /* \"contracts/NewDrugs.sol\":1899:1926  countries[totalCountries-1] */\n      dup2\n      sload\n      dup2\n      lt\n      tag_189\n      jumpi\n      tag_190\n      tag_73\n      jump\t// in\n    tag_190:\n    tag_189:\n      swap1\n      0x00\n      mstore\n      keccak256(0x00, 0x20)\n      swap1\n      0x03\n      mul\n      add\n        /* \"contracts/NewDrugs.sol\":1884:1893  countries */\n      0x01\n        /* \"contracts/NewDrugs.sol\":1894:1895  i */\n      dup3\n        /* \"contracts/NewDrugs.sol\":1884:1896  countries[i] */\n      dup2\n      sload\n      dup2\n      lt\n      tag_192\n      jumpi\n      tag_193\n      tag_73\n      jump\t// in\n    tag_193:\n    tag_192:\n      swap1\n      0x00\n      mstore\n      keccak256(0x00, 0x20)\n      swap1\n      0x03\n      mul\n      add\n        /* \"contracts/NewDrugs.sol\":1884:1926  countries[i] = countries[totalCountries-1] */\n      0x00\n      dup3\n      add\n      dup2\n      0x00\n      add\n      swap1\n      dup1\n      sload\n      tag_195\n      swap1\n      tag_56\n      jump\t// in\n    tag_195:\n      tag_196\n      swap3\n      swap2\n      swap1\n      tag_197\n      jump\t// in\n    tag_196:\n      pop\n      0x01\n      dup3\n      add\n      dup2\n      0x01\n      add\n      swap1\n      dup1\n      sload\n      tag_198\n      swap1\n      tag_56\n      jump\t// in\n    tag_198:\n      tag_199\n      swap3\n      swap2\n      swap1\n      tag_197\n      jump\t// in\n    tag_199:\n      pop\n      0x02\n      dup3\n      add\n      sload\n      dup2\n      0x02\n      add\n      sstore\n      swap1\n      pop\n      pop\n        /* \"contracts/NewDrugs.sol\":2014:2023  countries */\n      0x01\n        /* \"contracts/NewDrugs.sol\":2039:2040  1 */\n      dup1\n        /* \"contracts/NewDrugs.sol\":2024:2038  totalCountries */\n      sload(0x02)\n        /* \"contracts/NewDrugs.sol\":2024:2040  totalCountries-1 */\n      tag_200\n      swap2\n      swap1\n      tag_188\n      jump\t// in\n    tag_200:\n        /* \"contracts/NewDrugs.sol\":2014:2041  countries[totalCountries-1] */\n      dup2\n      sload\n      dup2\n      lt\n      tag_201\n      jumpi\n      tag_202\n      tag_73\n      jump\t// in\n    tag_202:\n    tag_201:\n      swap1\n      0x00\n      mstore\n      keccak256(0x00, 0x20)\n      swap1\n      0x03\n      mul\n      add\n      0x00\n        /* \"contracts/NewDrugs.sol\":2007:2041  delete countries[totalCountries-1] */\n      dup1\n      dup3\n      add\n      0x00\n      tag_204\n      swap2\n      swap1\n      tag_205\n      jump\t// in\n    tag_204:\n      0x01\n      dup3\n      add\n      0x00\n      tag_206\n      swap2\n      swap1\n      tag_205\n      jump\t// in\n    tag_206:\n      0x02\n      dup3\n      add\n      0x00\n      swap1\n      sstore\n      pop\n      pop\n        /* \"contracts/NewDrugs.sol\":2086:2100  totalCountries */\n      0x02\n      0x00\n        /* \"contracts/NewDrugs.sol\":2086:2102  totalCountries-- */\n      dup2\n      sload\n      dup1\n      swap3\n      swap2\n      swap1\n      tag_207\n      swap1\n      tag_208\n      jump\t// in\n    tag_207:\n      swap2\n      swap1\n      pop\n      sstore\n      pop\n        /* \"contracts/NewDrugs.sol\":2290:2294  true */\n      0x01\n        /* \"contracts/NewDrugs.sol\":2283:2294  return true */\n      swap2\n      pop\n      pop\n      jump(tag_172)\n        /* \"contracts/NewDrugs.sol\":1816:2309  if(compareStrings(countries[i].name , countryName)){\r... */\n    tag_186:\n        /* \"contracts/NewDrugs.sol\":1798:1801  i++ */\n      dup1\n      dup1\n      tag_209\n      swap1\n      tag_88\n      jump\t// in\n    tag_209:\n      swap2\n      pop\n      pop\n        /* \"contracts/NewDrugs.sol\":1761:2319  for(uint256 i =0; i< totalCountries; i++){\r... */\n      jump(tag_174)\n    tag_175:\n      pop\n        /* \"contracts/NewDrugs.sol\":2335:2340  false */\n      0x00\n        /* \"contracts/NewDrugs.sol\":2328:2340  return false */\n      swap1\n      pop\n        /* \"contracts/NewDrugs.sol\":1634:2347  function deleteCountry(string memory countryName) public returns(bool success){\r... */\n    tag_172:\n      swap2\n      swap1\n      pop\n      jump\t// out\n        /* \"contracts/NewDrugs.sol\":2811:2987  function compareStrings (string memory a, string memory b)  internal pure returns (bool){\r... */\n    tag_80:\n        /* \"contracts/NewDrugs.sol\":2894:2898  bool */\n      0x00\n        /* \"contracts/NewDrugs.sol\":2977:2978  b */\n      dup2\n        /* \"contracts/NewDrugs.sol\":2960:2979  abi.encodePacked(b) */\n      add(0x20, mload(0x40))\n      tag_211\n      swap2\n      swap1\n      tag_212\n      jump\t// in\n    tag_211:\n      mload(0x40)\n      0x20\n      dup2\n      dup4\n      sub\n      sub\n      dup2\n      mstore\n      swap1\n      0x40\n      mstore\n        /* \"contracts/NewDrugs.sol\":2950:2980  keccak256(abi.encodePacked(b)) */\n      dup1\n      mload\n      swap1\n      0x20\n      add\n      keccak256\n        /* \"contracts/NewDrugs.sol\":2943:2944  a */\n      dup4\n        /* \"contracts/NewDrugs.sol\":2926:2945  abi.encodePacked(a) */\n      add(0x20, mload(0x40))\n      tag_213\n      swap2\n      swap1\n      tag_212\n      jump\t// in\n    tag_213:\n      mload(0x40)\n      0x20\n      dup2\n      dup4\n      sub\n      sub\n      dup2\n      mstore\n      swap1\n      0x40\n      mstore\n        /* \"contracts/NewDrugs.sol\":2916:2946  keccak256(abi.encodePacked(a)) */\n      dup1\n      mload\n      swap1\n      0x20\n      add\n      keccak256\n        /* \"contracts/NewDrugs.sol\":2916:2980  keccak256(abi.encodePacked(a)) == keccak256(abi.encodePacked(b)) */\n      eq\n        /* \"contracts/NewDrugs.sol\":2909:2980  return keccak256(abi.encodePacked(a)) == keccak256(abi.encodePacked(b)) */\n      swap1\n      pop\n        /* \"contracts/NewDrugs.sol\":2811:2987  function compareStrings (string memory a, string memory b)  internal pure returns (bool){\r... */\n      swap3\n      swap2\n      pop\n      pop\n      jump\t// out\n    tag_86:\n      dup3\n      dup1\n      sload\n      tag_214\n      swap1\n      tag_56\n      jump\t// in\n    tag_214:\n      swap1\n      0x00\n      mstore\n      keccak256(0x00, 0x20)\n      swap1\n      0x1f\n      add\n      0x20\n      swap1\n      div\n      dup2\n      add\n      swap3\n      dup3\n      tag_216\n      jumpi\n      0x00\n      dup6\n      sstore\n      jump(tag_215)\n    tag_216:\n      dup3\n      0x1f\n      lt\n      tag_217\n      jumpi\n      dup1\n      mload\n      not(0xff)\n      and\n      dup4\n      dup1\n      add\n      or\n      dup6\n      sstore\n      jump(tag_215)\n    tag_217:\n      dup3\n      dup1\n      add\n      0x01\n      add\n      dup6\n      sstore\n      dup3\n      iszero\n      tag_215\n      jumpi\n      swap2\n      dup3\n      add\n    tag_218:\n      dup3\n      dup2\n      gt\n      iszero\n      tag_219\n      jumpi\n      dup3\n      mload\n      dup3\n      sstore\n      swap2\n      0x20\n      add\n      swap2\n      swap1\n      0x01\n      add\n      swap1\n      jump(tag_218)\n    tag_219:\n    tag_215:\n      pop\n      swap1\n      pop\n      tag_220\n      swap2\n      swap1\n      tag_221\n      jump\t// in\n    tag_220:\n      pop\n      swap1\n      jump\t// out\n    tag_147:\n      mload(0x40)\n      dup1\n      0x60\n      add\n      0x40\n      mstore\n      dup1\n      0x60\n      dup2\n      mstore\n      0x20\n      add\n      0x60\n      dup2\n      mstore\n      0x20\n      add\n      0x00\n      dup2\n      mstore\n      pop\n      swap1\n      jump\t// out\n    tag_197:\n      dup3\n      dup1\n      sload\n      tag_222\n      swap1\n      tag_56\n      jump\t// in\n    tag_222:\n      swap1\n      0x00\n      mstore\n      keccak256(0x00, 0x20)\n      swap1\n      0x1f\n      add\n      0x20\n      swap1\n      div\n      dup2\n      add\n      swap3\n      dup3\n      tag_224\n      jumpi\n      0x00\n      dup6\n      sstore\n      jump(tag_223)\n    tag_224:\n      dup3\n      0x1f\n      lt\n      tag_225\n      jumpi\n      dup1\n      sload\n      dup6\n      sstore\n      jump(tag_223)\n    tag_225:\n      dup3\n      dup1\n      add\n      0x01\n      add\n      dup6\n      sstore\n      dup3\n      iszero\n      tag_223\n      jumpi\n      0x00\n      mstore\n      keccak256(0x00, 0x20)\n      swap2\n      0x1f\n      add\n      0x20\n      swap1\n      div\n      dup3\n      add\n    tag_226:\n      dup3\n      dup2\n      gt\n      iszero\n      tag_227\n      jumpi\n      dup3\n      sload\n      dup3\n      sstore\n      swap2\n      0x01\n      add\n      swap2\n      swap1\n      0x01\n      add\n      swap1\n      jump(tag_226)\n    tag_227:\n    tag_223:\n      pop\n      swap1\n      pop\n      tag_228\n      swap2\n      swap1\n      tag_221\n      jump\t// in\n    tag_228:\n      pop\n      swap1\n      jump\t// out\n    tag_205:\n      pop\n      dup1\n      sload\n      tag_229\n      swap1\n      tag_56\n      jump\t// in\n    tag_229:\n      0x00\n      dup3\n      sstore\n      dup1\n      0x1f\n      lt\n      tag_231\n      jumpi\n      pop\n      jump(tag_230)\n    tag_231:\n      0x1f\n      add\n      0x20\n      swap1\n      div\n      swap1\n      0x00\n      mstore\n      keccak256(0x00, 0x20)\n      swap1\n      dup2\n      add\n      swap1\n      tag_232\n      swap2\n      swap1\n      tag_221\n      jump\t// in\n    tag_232:\n    tag_230:\n      pop\n      jump\t// out\n    tag_221:\n    tag_233:\n      dup1\n      dup3\n      gt\n      iszero\n      tag_234\n      jumpi\n      0x00\n      dup2\n      0x00\n      swap1\n      sstore\n      pop\n      0x01\n      add\n      jump(tag_233)\n    tag_234:\n      pop\n      swap1\n      jump\t// out\n        /* \"#utility.yul\":7:419   */\n    tag_236:\n        /* \"#utility.yul\":85:90   */\n      0x00\n        /* \"#utility.yul\":110:176   */\n      tag_238\n        /* \"#utility.yul\":126:175   */\n      tag_239\n        /* \"#utility.yul\":168:174   */\n      dup5\n        /* \"#utility.yul\":126:175   */\n      tag_240\n      jump\t// in\n    tag_239:\n        /* \"#utility.yul\":110:176   */\n      tag_241\n      jump\t// in\n    tag_238:\n        /* \"#utility.yul\":101:176   */\n      swap1\n      pop\n        /* \"#utility.yul\":199:205   */\n      dup3\n        /* \"#utility.yul\":192:197   */\n      dup2\n        /* \"#utility.yul\":185:206   */\n      mstore\n        /* \"#utility.yul\":237:241   */\n      0x20\n        /* \"#utility.yul\":230:235   */\n      dup2\n        /* \"#utility.yul\":226:242   */\n      add\n        /* \"#utility.yul\":275:278   */\n      dup5\n        /* \"#utility.yul\":266:272   */\n      dup5\n        /* \"#utility.yul\":261:264   */\n      dup5\n        /* \"#utility.yul\":257:273   */\n      add\n        /* \"#utility.yul\":254:279   */\n      gt\n        /* \"#utility.yul\":251:363   */\n      iszero\n      tag_242\n      jumpi\n        /* \"#utility.yul\":282:361   */\n      tag_243\n      tag_244\n      jump\t// in\n    tag_243:\n        /* \"#utility.yul\":251:363   */\n    tag_242:\n        /* \"#utility.yul\":372:413   */\n      tag_245\n        /* \"#utility.yul\":406:412   */\n      dup5\n        /* \"#utility.yul\":401:404   */\n      dup3\n        /* \"#utility.yul\":396:399   */\n      dup6\n        /* \"#utility.yul\":372:413   */\n      tag_246\n      jump\t// in\n    tag_245:\n        /* \"#utility.yul\":91:419   */\n      pop\n        /* \"#utility.yul\":7:419   */\n      swap4\n      swap3\n      pop\n      pop\n      pop\n      jump\t// out\n        /* \"#utility.yul\":439:779   */\n    tag_247:\n        /* \"#utility.yul\":495:500   */\n      0x00\n        /* \"#utility.yul\":544:547   */\n      dup3\n        /* \"#utility.yul\":537:541   */\n      0x1f\n        /* \"#utility.yul\":529:535   */\n      dup4\n        /* \"#utility.yul\":525:542   */\n      add\n        /* \"#utility.yul\":521:548   */\n      slt\n        /* \"#utility.yul\":511:633   */\n      tag_249\n      jumpi\n        /* \"#utility.yul\":552:631   */\n      tag_250\n      tag_251\n      jump\t// in\n    tag_250:\n        /* \"#utility.yul\":511:633   */\n    tag_249:\n        /* \"#utility.yul\":669:675   */\n      dup2\n        /* \"#utility.yul\":656:676   */\n      calldataload\n        /* \"#utility.yul\":694:773   */\n      tag_252\n        /* \"#utility.yul\":769:772   */\n      dup5\n        /* \"#utility.yul\":761:767   */\n      dup3\n        /* \"#utility.yul\":754:758   */\n      0x20\n        /* \"#utility.yul\":746:752   */\n      dup7\n        /* \"#utility.yul\":742:759   */\n      add\n        /* \"#utility.yul\":694:773   */\n      tag_236\n      jump\t// in\n    tag_252:\n        /* \"#utility.yul\":685:773   */\n      swap2\n      pop\n        /* \"#utility.yul\":501:779   */\n      pop\n        /* \"#utility.yul\":439:779   */\n      swap3\n      swap2\n      pop\n      pop\n      jump\t// out\n        /* \"#utility.yul\":785:924   */\n    tag_253:\n        /* \"#utility.yul\":831:836   */\n      0x00\n        /* \"#utility.yul\":869:875   */\n      dup2\n        /* \"#utility.yul\":856:876   */\n      calldataload\n        /* \"#utility.yul\":847:876   */\n      swap1\n      pop\n        /* \"#utility.yul\":885:918   */\n      tag_255\n        /* \"#utility.yul\":912:917   */\n      dup2\n        /* \"#utility.yul\":885:918   */\n      tag_256\n      jump\t// in\n    tag_255:\n        /* \"#utility.yul\":785:924   */\n      swap3\n      swap2\n      pop\n      pop\n      jump\t// out\n        /* \"#utility.yul\":930:1439   */\n    tag_31:\n        /* \"#utility.yul\":999:1005   */\n      0x00\n        /* \"#utility.yul\":1048:1050   */\n      0x20\n        /* \"#utility.yul\":1036:1045   */\n      dup3\n        /* \"#utility.yul\":1027:1034   */\n      dup5\n        /* \"#utility.yul\":1023:1046   */\n      sub\n        /* \"#utility.yul\":1019:1051   */\n      slt\n        /* \"#utility.yul\":1016:1135   */\n      iszero\n      tag_258\n      jumpi\n        /* \"#utility.yul\":1054:1133   */\n      tag_259\n      tag_260\n      jump\t// in\n    tag_259:\n        /* \"#utility.yul\":1016:1135   */\n    tag_258:\n        /* \"#utility.yul\":1202:1203   */\n      0x00\n        /* \"#utility.yul\":1191:1200   */\n      dup3\n        /* \"#utility.yul\":1187:1204   */\n      add\n        /* \"#utility.yul\":1174:1205   */\n      calldataload\n        /* \"#utility.yul\":1232:1250   */\n      0xffffffffffffffff\n        /* \"#utility.yul\":1224:1230   */\n      dup2\n        /* \"#utility.yul\":1221:1251   */\n      gt\n        /* \"#utility.yul\":1218:1335   */\n      iszero\n      tag_261\n      jumpi\n        /* \"#utility.yul\":1254:1333   */\n      tag_262\n      tag_263\n      jump\t// in\n    tag_262:\n        /* \"#utility.yul\":1218:1335   */\n    tag_261:\n        /* \"#utility.yul\":1359:1422   */\n      tag_264\n        /* \"#utility.yul\":1414:1421   */\n      dup5\n        /* \"#utility.yul\":1405:1411   */\n      dup3\n        /* \"#utility.yul\":1394:1403   */\n      dup6\n        /* \"#utility.yul\":1390:1412   */\n      add\n        /* \"#utility.yul\":1359:1422   */\n      tag_247\n      jump\t// in\n    tag_264:\n        /* \"#utility.yul\":1349:1422   */\n      swap2\n      pop\n        /* \"#utility.yul\":1145:1432   */\n      pop\n        /* \"#utility.yul\":930:1439   */\n      swap3\n      swap2\n      pop\n      pop\n      jump\t// out\n        /* \"#utility.yul\":1445:2279   */\n    tag_25:\n        /* \"#utility.yul\":1533:1539   */\n      0x00\n        /* \"#utility.yul\":1541:1547   */\n      dup1\n        /* \"#utility.yul\":1590:1592   */\n      0x40\n        /* \"#utility.yul\":1578:1587   */\n      dup4\n        /* \"#utility.yul\":1569:1576   */\n      dup6\n        /* \"#utility.yul\":1565:1588   */\n      sub\n        /* \"#utility.yul\":1561:1593   */\n      slt\n        /* \"#utility.yul\":1558:1677   */\n      iszero\n      tag_266\n      jumpi\n        /* \"#utility.yul\":1596:1675   */\n      tag_267\n      tag_260\n      jump\t// in\n    tag_267:\n        /* \"#utility.yul\":1558:1677   */\n    tag_266:\n        /* \"#utility.yul\":1744:1745   */\n      0x00\n        /* \"#utility.yul\":1733:1742   */\n      dup4\n        /* \"#utility.yul\":1729:1746   */\n      add\n        /* \"#utility.yul\":1716:1747   */\n      calldataload\n        /* \"#utility.yul\":1774:1792   */\n      0xffffffffffffffff\n        /* \"#utility.yul\":1766:1772   */\n      dup2\n        /* \"#utility.yul\":1763:1793   */\n      gt\n        /* \"#utility.yul\":1760:1877   */\n      iszero\n      tag_268\n      jumpi\n        /* \"#utility.yul\":1796:1875   */\n      tag_269\n      tag_263\n      jump\t// in\n    tag_269:\n        /* \"#utility.yul\":1760:1877   */\n    tag_268:\n        /* \"#utility.yul\":1901:1964   */\n      tag_270\n        /* \"#utility.yul\":1956:1963   */\n      dup6\n        /* \"#utility.yul\":1947:1953   */\n      dup3\n        /* \"#utility.yul\":1936:1945   */\n      dup7\n        /* \"#utility.yul\":1932:1954   */\n      add\n        /* \"#utility.yul\":1901:1964   */\n      tag_247\n      jump\t// in\n    tag_270:\n        /* \"#utility.yul\":1891:1964   */\n      swap3\n      pop\n        /* \"#utility.yul\":1687:1974   */\n      pop\n        /* \"#utility.yul\":2041:2043   */\n      0x20\n        /* \"#utility.yul\":2030:2039   */\n      dup4\n        /* \"#utility.yul\":2026:2044   */\n      add\n        /* \"#utility.yul\":2013:2045   */\n      calldataload\n        /* \"#utility.yul\":2072:2090   */\n      0xffffffffffffffff\n        /* \"#utility.yul\":2064:2070   */\n      dup2\n        /* \"#utility.yul\":2061:2091   */\n      gt\n        /* \"#utility.yul\":2058:2175   */\n      iszero\n      tag_271\n      jumpi\n        /* \"#utility.yul\":2094:2173   */\n      tag_272\n      tag_263\n      jump\t// in\n    tag_272:\n        /* \"#utility.yul\":2058:2175   */\n    tag_271:\n        /* \"#utility.yul\":2199:2262   */\n      tag_273\n        /* \"#utility.yul\":2254:2261   */\n      dup6\n        /* \"#utility.yul\":2245:2251   */\n      dup3\n        /* \"#utility.yul\":2234:2243   */\n      dup7\n        /* \"#utility.yul\":2230:2252   */\n      add\n        /* \"#utility.yul\":2199:2262   */\n      tag_247\n      jump\t// in\n    tag_273:\n        /* \"#utility.yul\":2189:2262   */\n      swap2\n      pop\n        /* \"#utility.yul\":1984:2272   */\n      pop\n        /* \"#utility.yul\":1445:2279   */\n      swap3\n      pop\n      swap3\n      swap1\n      pop\n      jump\t// out\n        /* \"#utility.yul\":2285:3264   */\n    tag_46:\n        /* \"#utility.yul\":2382:2388   */\n      0x00\n        /* \"#utility.yul\":2390:2396   */\n      dup1\n        /* \"#utility.yul\":2398:2404   */\n      0x00\n        /* \"#utility.yul\":2447:2449   */\n      0x60\n        /* \"#utility.yul\":2435:2444   */\n      dup5\n        /* \"#utility.yul\":2426:2433   */\n      dup7\n        /* \"#utility.yul\":2422:2445   */\n      sub\n        /* \"#utility.yul\":2418:2450   */\n      slt\n        /* \"#utility.yul\":2415:2534   */\n      iszero\n      tag_275\n      jumpi\n        /* \"#utility.yul\":2453:2532   */\n      tag_276\n      tag_260\n      jump\t// in\n    tag_276:\n        /* \"#utility.yul\":2415:2534   */\n    tag_275:\n        /* \"#utility.yul\":2601:2602   */\n      0x00\n        /* \"#utility.yul\":2590:2599   */\n      dup5\n        /* \"#utility.yul\":2586:2603   */\n      add\n        /* \"#utility.yul\":2573:2604   */\n      calldataload\n        /* \"#utility.yul\":2631:2649   */\n      0xffffffffffffffff\n        /* \"#utility.yul\":2623:2629   */\n      dup2\n        /* \"#utility.yul\":2620:2650   */\n      gt\n        /* \"#utility.yul\":2617:2734   */\n      iszero\n      tag_277\n      jumpi\n        /* \"#utility.yul\":2653:2732   */\n      tag_278\n      tag_263\n      jump\t// in\n    tag_278:\n        /* \"#utility.yul\":2617:2734   */\n    tag_277:\n        /* \"#utility.yul\":2758:2821   */\n      tag_279\n        /* \"#utility.yul\":2813:2820   */\n      dup7\n        /* \"#utility.yul\":2804:2810   */\n      dup3\n        /* \"#utility.yul\":2793:2802   */\n      dup8\n        /* \"#utility.yul\":2789:2811   */\n      add\n        /* \"#utility.yul\":2758:2821   */\n      tag_247\n      jump\t// in\n    tag_279:\n        /* \"#utility.yul\":2748:2821   */\n      swap4\n      pop\n        /* \"#utility.yul\":2544:2831   */\n      pop\n        /* \"#utility.yul\":2898:2900   */\n      0x20\n        /* \"#utility.yul\":2887:2896   */\n      dup5\n        /* \"#utility.yul\":2883:2901   */\n      add\n        /* \"#utility.yul\":2870:2902   */\n      calldataload\n        /* \"#utility.yul\":2929:2947   */\n      0xffffffffffffffff\n        /* \"#utility.yul\":2921:2927   */\n      dup2\n        /* \"#utility.yul\":2918:2948   */\n      gt\n        /* \"#utility.yul\":2915:3032   */\n      iszero\n      tag_280\n      jumpi\n        /* \"#utility.yul\":2951:3030   */\n      tag_281\n      tag_263\n      jump\t// in\n    tag_281:\n        /* \"#utility.yul\":2915:3032   */\n    tag_280:\n        /* \"#utility.yul\":3056:3119   */\n      tag_282\n        /* \"#utility.yul\":3111:3118   */\n      dup7\n        /* \"#utility.yul\":3102:3108   */\n      dup3\n        /* \"#utility.yul\":3091:3100   */\n      dup8\n        /* \"#utility.yul\":3087:3109   */\n      add\n        /* \"#utility.yul\":3056:3119   */\n      tag_247\n      jump\t// in\n    tag_282:\n        /* \"#utility.yul\":3046:3119   */\n      swap3\n      pop\n        /* \"#utility.yul\":2841:3129   */\n      pop\n        /* \"#utility.yul\":3168:3170   */\n      0x40\n        /* \"#utility.yul\":3194:3247   */\n      tag_283\n        /* \"#utility.yul\":3239:3246   */\n      dup7\n        /* \"#utility.yul\":3230:3236   */\n      dup3\n        /* \"#utility.yul\":3219:3228   */\n      dup8\n        /* \"#utility.yul\":3215:3237   */\n      add\n        /* \"#utility.yul\":3194:3247   */\n      tag_253\n      jump\t// in\n    tag_283:\n        /* \"#utility.yul\":3184:3247   */\n      swap2\n      pop\n        /* \"#utility.yul\":3139:3257   */\n      pop\n        /* \"#utility.yul\":2285:3264   */\n      swap3\n      pop\n      swap3\n      pop\n      swap3\n      jump\t// out\n        /* \"#utility.yul\":3270:3599   */\n    tag_15:\n        /* \"#utility.yul\":3329:3335   */\n      0x00\n        /* \"#utility.yul\":3378:3380   */\n      0x20\n        /* \"#utility.yul\":3366:3375   */\n      dup3\n        /* \"#utility.yul\":3357:3364   */\n      dup5\n        /* \"#utility.yul\":3353:3376   */\n      sub\n        /* \"#utility.yul\":3349:3381   */\n      slt\n        /* \"#utility.yul\":3346:3465   */\n      iszero\n      tag_285\n      jumpi\n        /* \"#utility.yul\":3384:3463   */\n      tag_286\n      tag_260\n      jump\t// in\n    tag_286:\n        /* \"#utility.yul\":3346:3465   */\n    tag_285:\n        /* \"#utility.yul\":3504:3505   */\n      0x00\n        /* \"#utility.yul\":3529:3582   */\n      tag_287\n        /* \"#utility.yul\":3574:3581   */\n      dup5\n        /* \"#utility.yul\":3565:3571   */\n      dup3\n        /* \"#utility.yul\":3554:3563   */\n      dup6\n        /* \"#utility.yul\":3550:3572   */\n      add\n        /* \"#utility.yul\":3529:3582   */\n      tag_253\n      jump\t// in\n    tag_287:\n        /* \"#utility.yul\":3519:3582   */\n      swap2\n      pop\n        /* \"#utility.yul\":3475:3592   */\n      pop\n        /* \"#utility.yul\":3270:3599   */\n      swap3\n      swap2\n      pop\n      pop\n      jump\t// out\n        /* \"#utility.yul\":3605:3853   */\n    tag_288:\n        /* \"#utility.yul\":3720:3730   */\n      0x00\n        /* \"#utility.yul\":3755:3847   */\n      tag_290\n        /* \"#utility.yul\":3843:3846   */\n      dup4\n        /* \"#utility.yul\":3835:3841   */\n      dup4\n        /* \"#utility.yul\":3755:3847   */\n      tag_291\n      jump\t// in\n    tag_290:\n        /* \"#utility.yul\":3741:3847   */\n      swap1\n      pop\n        /* \"#utility.yul\":3605:3853   */\n      swap3\n      swap2\n      pop\n      pop\n      jump\t// out\n        /* \"#utility.yul\":3915:5010   */\n    tag_292:\n        /* \"#utility.yul\":4080:4083   */\n      0x00\n        /* \"#utility.yul\":4109:4186   */\n      tag_294\n        /* \"#utility.yul\":4180:4185   */\n      dup3\n        /* \"#utility.yul\":4109:4186   */\n      tag_295\n      jump\t// in\n    tag_294:\n        /* \"#utility.yul\":4202:4311   */\n      tag_296\n        /* \"#utility.yul\":4304:4310   */\n      dup2\n        /* \"#utility.yul\":4299:4302   */\n      dup6\n        /* \"#utility.yul\":4202:4311   */\n      tag_297\n      jump\t// in\n    tag_296:\n        /* \"#utility.yul\":4195:4311   */\n      swap4\n      pop\n        /* \"#utility.yul\":4337:4340   */\n      dup4\n        /* \"#utility.yul\":4382:4386   */\n      0x20\n        /* \"#utility.yul\":4374:4380   */\n      dup3\n        /* \"#utility.yul\":4370:4387   */\n      mul\n        /* \"#utility.yul\":4365:4368   */\n      dup6\n        /* \"#utility.yul\":4361:4388   */\n      add\n        /* \"#utility.yul\":4412:4491   */\n      tag_298\n        /* \"#utility.yul\":4485:4490   */\n      dup6\n        /* \"#utility.yul\":4412:4491   */\n      tag_299\n      jump\t// in\n    tag_298:\n        /* \"#utility.yul\":4514:4521   */\n      dup1\n        /* \"#utility.yul\":4545:4546   */\n      0x00\n        /* \"#utility.yul\":4530:4965   */\n    tag_300:\n        /* \"#utility.yul\":4555:4561   */\n      dup6\n        /* \"#utility.yul\":4552:4553   */\n      dup2\n        /* \"#utility.yul\":4549:4562   */\n      lt\n        /* \"#utility.yul\":4530:4965   */\n      iszero\n      tag_302\n      jumpi\n        /* \"#utility.yul\":4626:4635   */\n      dup5\n        /* \"#utility.yul\":4620:4624   */\n      dup5\n        /* \"#utility.yul\":4616:4636   */\n      sub\n        /* \"#utility.yul\":4611:4614   */\n      dup10\n        /* \"#utility.yul\":4604:4637   */\n      mstore\n        /* \"#utility.yul\":4677:4683   */\n      dup2\n        /* \"#utility.yul\":4671:4684   */\n      mload\n        /* \"#utility.yul\":4705:4815   */\n      tag_303\n        /* \"#utility.yul\":4810:4814   */\n      dup6\n        /* \"#utility.yul\":4795:4808   */\n      dup3\n        /* \"#utility.yul\":4705:4815   */\n      tag_288\n      jump\t// in\n    tag_303:\n        /* \"#utility.yul\":4697:4815   */\n      swap5\n      pop\n        /* \"#utility.yul\":4838:4921   */\n      tag_304\n        /* \"#utility.yul\":4914:4920   */\n      dup4\n        /* \"#utility.yul\":4838:4921   */\n      tag_305\n      jump\t// in\n    tag_304:\n        /* \"#utility.yul\":4828:4921   */\n      swap3\n      pop\n        /* \"#utility.yul\":4950:4954   */\n      0x20\n        /* \"#utility.yul\":4945:4948   */\n      dup11\n        /* \"#utility.yul\":4941:4955   */\n      add\n        /* \"#utility.yul\":4934:4955   */\n      swap10\n      pop\n        /* \"#utility.yul\":4590:4965   */\n      pop\n        /* \"#utility.yul\":4577:4578   */\n      0x01\n        /* \"#utility.yul\":4574:4575   */\n      dup2\n        /* \"#utility.yul\":4570:4579   */\n      add\n        /* \"#utility.yul\":4565:4579   */\n      swap1\n      pop\n        /* \"#utility.yul\":4530:4965   */\n      jump(tag_300)\n    tag_302:\n        /* \"#utility.yul\":4534:4548   */\n      pop\n        /* \"#utility.yul\":4981:4985   */\n      dup3\n        /* \"#utility.yul\":4974:4985   */\n      swap8\n      pop\n        /* \"#utility.yul\":5001:5004   */\n      dup8\n        /* \"#utility.yul\":4994:5004   */\n      swap6\n      pop\n        /* \"#utility.yul\":4085:5010   */\n      pop\n      pop\n      pop\n      pop\n      pop\n        /* \"#utility.yul\":3915:5010   */\n      swap3\n      swap2\n      pop\n      pop\n      jump\t// out\n        /* \"#utility.yul\":5016:5125   */\n    tag_306:\n        /* \"#utility.yul\":5097:5118   */\n      tag_308\n        /* \"#utility.yul\":5112:5117   */\n      dup2\n        /* \"#utility.yul\":5097:5118   */\n      tag_309\n      jump\t// in\n    tag_308:\n        /* \"#utility.yul\":5092:5095   */\n      dup3\n        /* \"#utility.yul\":5085:5119   */\n      mstore\n        /* \"#utility.yul\":5016:5125   */\n      pop\n      pop\n      jump\t// out\n        /* \"#utility.yul\":5131:5475   */\n    tag_310:\n        /* \"#utility.yul\":5209:5212   */\n      0x00\n        /* \"#utility.yul\":5237:5276   */\n      tag_312\n        /* \"#utility.yul\":5270:5275   */\n      dup3\n        /* \"#utility.yul\":5237:5276   */\n      tag_313\n      jump\t// in\n    tag_312:\n        /* \"#utility.yul\":5292:5353   */\n      tag_314\n        /* \"#utility.yul\":5346:5352   */\n      dup2\n        /* \"#utility.yul\":5341:5344   */\n      dup6\n        /* \"#utility.yul\":5292:5353   */\n      tag_315\n      jump\t// in\n    tag_314:\n        /* \"#utility.yul\":5285:5353   */\n      swap4\n      pop\n        /* \"#utility.yul\":5362:5414   */\n      tag_316\n        /* \"#utility.yul\":5407:5413   */\n      dup2\n        /* \"#utility.yul\":5402:5405   */\n      dup6\n        /* \"#utility.yul\":5395:5399   */\n      0x20\n        /* \"#utility.yul\":5388:5393   */\n      dup7\n        /* \"#utility.yul\":5384:5400   */\n      add\n        /* \"#utility.yul\":5362:5414   */\n      tag_317\n      jump\t// in\n    tag_316:\n        /* \"#utility.yul\":5439:5468   */\n      tag_318\n        /* \"#utility.yul\":5461:5467   */\n      dup2\n        /* \"#utility.yul\":5439:5468   */\n      tag_319\n      jump\t// in\n    tag_318:\n        /* \"#utility.yul\":5434:5437   */\n      dup5\n        /* \"#utility.yul\":5430:5469   */\n      add\n        /* \"#utility.yul\":5423:5469   */\n      swap2\n      pop\n        /* \"#utility.yul\":5213:5475   */\n      pop\n        /* \"#utility.yul\":5131:5475   */\n      swap3\n      swap2\n      pop\n      pop\n      jump\t// out\n        /* \"#utility.yul\":5481:5845   */\n    tag_320:\n        /* \"#utility.yul\":5569:5572   */\n      0x00\n        /* \"#utility.yul\":5597:5636   */\n      tag_322\n        /* \"#utility.yul\":5630:5635   */\n      dup3\n        /* \"#utility.yul\":5597:5636   */\n      tag_313\n      jump\t// in\n    tag_322:\n        /* \"#utility.yul\":5652:5723   */\n      tag_323\n        /* \"#utility.yul\":5716:5722   */\n      dup2\n        /* \"#utility.yul\":5711:5714   */\n      dup6\n        /* \"#utility.yul\":5652:5723   */\n      tag_324\n      jump\t// in\n    tag_323:\n        /* \"#utility.yul\":5645:5723   */\n      swap4\n      pop\n        /* \"#utility.yul\":5732:5784   */\n      tag_325\n        /* \"#utility.yul\":5777:5783   */\n      dup2\n        /* \"#utility.yul\":5772:5775   */\n      dup6\n        /* \"#utility.yul\":5765:5769   */\n      0x20\n        /* \"#utility.yul\":5758:5763   */\n      dup7\n        /* \"#utility.yul\":5754:5770   */\n      add\n        /* \"#utility.yul\":5732:5784   */\n      tag_317\n      jump\t// in\n    tag_325:\n        /* \"#utility.yul\":5809:5838   */\n      tag_326\n        /* \"#utility.yul\":5831:5837   */\n      dup2\n        /* \"#utility.yul\":5809:5838   */\n      tag_319\n      jump\t// in\n    tag_326:\n        /* \"#utility.yul\":5804:5807   */\n      dup5\n        /* \"#utility.yul\":5800:5839   */\n      add\n        /* \"#utility.yul\":5793:5839   */\n      swap2\n      pop\n        /* \"#utility.yul\":5573:5845   */\n      pop\n        /* \"#utility.yul\":5481:5845   */\n      swap3\n      swap2\n      pop\n      pop\n      jump\t// out\n        /* \"#utility.yul\":5851:6228   */\n    tag_327:\n        /* \"#utility.yul\":5957:5960   */\n      0x00\n        /* \"#utility.yul\":5985:6024   */\n      tag_329\n        /* \"#utility.yul\":6018:6023   */\n      dup3\n        /* \"#utility.yul\":5985:6024   */\n      tag_313\n      jump\t// in\n    tag_329:\n        /* \"#utility.yul\":6040:6129   */\n      tag_330\n        /* \"#utility.yul\":6122:6128   */\n      dup2\n        /* \"#utility.yul\":6117:6120   */\n      dup6\n        /* \"#utility.yul\":6040:6129   */\n      tag_331\n      jump\t// in\n    tag_330:\n        /* \"#utility.yul\":6033:6129   */\n      swap4\n      pop\n        /* \"#utility.yul\":6138:6190   */\n      tag_332\n        /* \"#utility.yul\":6183:6189   */\n      dup2\n        /* \"#utility.yul\":6178:6181   */\n      dup6\n        /* \"#utility.yul\":6171:6175   */\n      0x20\n        /* \"#utility.yul\":6164:6169   */\n      dup7\n        /* \"#utility.yul\":6160:6176   */\n      add\n        /* \"#utility.yul\":6138:6190   */\n      tag_317\n      jump\t// in\n    tag_332:\n        /* \"#utility.yul\":6215:6221   */\n      dup1\n        /* \"#utility.yul\":6210:6213   */\n      dup5\n        /* \"#utility.yul\":6206:6222   */\n      add\n        /* \"#utility.yul\":6199:6222   */\n      swap2\n      pop\n        /* \"#utility.yul\":5961:6228   */\n      pop\n        /* \"#utility.yul\":5851:6228   */\n      swap3\n      swap2\n      pop\n      pop\n      jump\t// out\n        /* \"#utility.yul\":6234:6600   */\n    tag_333:\n        /* \"#utility.yul\":6376:6379   */\n      0x00\n        /* \"#utility.yul\":6397:6464   */\n      tag_335\n        /* \"#utility.yul\":6461:6463   */\n      0x11\n        /* \"#utility.yul\":6456:6459   */\n      dup4\n        /* \"#utility.yul\":6397:6464   */\n      tag_324\n      jump\t// in\n    tag_335:\n        /* \"#utility.yul\":6390:6464   */\n      swap2\n      pop\n        /* \"#utility.yul\":6473:6566   */\n      tag_336\n        /* \"#utility.yul\":6562:6565   */\n      dup3\n        /* \"#utility.yul\":6473:6566   */\n      tag_337\n      jump\t// in\n    tag_336:\n        /* \"#utility.yul\":6591:6593   */\n      0x20\n        /* \"#utility.yul\":6586:6589   */\n      dup3\n        /* \"#utility.yul\":6582:6594   */\n      add\n        /* \"#utility.yul\":6575:6594   */\n      swap1\n      pop\n        /* \"#utility.yul\":6234:6600   */\n      swap2\n      swap1\n      pop\n      jump\t// out\n        /* \"#utility.yul\":6658:7503   */\n    tag_291:\n        /* \"#utility.yul\":6763:6766   */\n      0x00\n        /* \"#utility.yul\":6799:6803   */\n      0x60\n        /* \"#utility.yul\":6794:6797   */\n      dup4\n        /* \"#utility.yul\":6790:6804   */\n      add\n        /* \"#utility.yul\":6886:6890   */\n      0x00\n        /* \"#utility.yul\":6879:6884   */\n      dup4\n        /* \"#utility.yul\":6875:6891   */\n      add\n        /* \"#utility.yul\":6869:6892   */\n      mload\n        /* \"#utility.yul\":6939:6942   */\n      dup5\n        /* \"#utility.yul\":6933:6937   */\n      dup3\n        /* \"#utility.yul\":6929:6943   */\n      sub\n        /* \"#utility.yul\":6922:6926   */\n      0x00\n        /* \"#utility.yul\":6917:6920   */\n      dup7\n        /* \"#utility.yul\":6913:6927   */\n      add\n        /* \"#utility.yul\":6906:6944   */\n      mstore\n        /* \"#utility.yul\":6965:7038   */\n      tag_339\n        /* \"#utility.yul\":7033:7037   */\n      dup3\n        /* \"#utility.yul\":7019:7031   */\n      dup3\n        /* \"#utility.yul\":6965:7038   */\n      tag_310\n      jump\t// in\n    tag_339:\n        /* \"#utility.yul\":6957:7038   */\n      swap2\n      pop\n        /* \"#utility.yul\":6814:7049   */\n      pop\n        /* \"#utility.yul\":7133:7137   */\n      0x20\n        /* \"#utility.yul\":7126:7131   */\n      dup4\n        /* \"#utility.yul\":7122:7138   */\n      add\n        /* \"#utility.yul\":7116:7139   */\n      mload\n        /* \"#utility.yul\":7186:7189   */\n      dup5\n        /* \"#utility.yul\":7180:7184   */\n      dup3\n        /* \"#utility.yul\":7176:7190   */\n      sub\n        /* \"#utility.yul\":7169:7173   */\n      0x20\n        /* \"#utility.yul\":7164:7167   */\n      dup7\n        /* \"#utility.yul\":7160:7174   */\n      add\n        /* \"#utility.yul\":7153:7191   */\n      mstore\n        /* \"#utility.yul\":7212:7285   */\n      tag_340\n        /* \"#utility.yul\":7280:7284   */\n      dup3\n        /* \"#utility.yul\":7266:7278   */\n      dup3\n        /* \"#utility.yul\":7212:7285   */\n      tag_310\n      jump\t// in\n    tag_340:\n        /* \"#utility.yul\":7204:7285   */\n      swap2\n      pop\n        /* \"#utility.yul\":7059:7296   */\n      pop\n        /* \"#utility.yul\":7384:7388   */\n      0x40\n        /* \"#utility.yul\":7377:7382   */\n      dup4\n        /* \"#utility.yul\":7373:7389   */\n      add\n        /* \"#utility.yul\":7367:7390   */\n      mload\n        /* \"#utility.yul\":7403:7466   */\n      tag_341\n        /* \"#utility.yul\":7460:7464   */\n      0x40\n        /* \"#utility.yul\":7455:7458   */\n      dup7\n        /* \"#utility.yul\":7451:7465   */\n      add\n        /* \"#utility.yul\":7437:7449   */\n      dup3\n        /* \"#utility.yul\":7403:7466   */\n      tag_342\n      jump\t// in\n    tag_341:\n        /* \"#utility.yul\":7306:7476   */\n      pop\n        /* \"#utility.yul\":7493:7497   */\n      dup1\n        /* \"#utility.yul\":7486:7497   */\n      swap2\n      pop\n        /* \"#utility.yul\":6768:7503   */\n      pop\n        /* \"#utility.yul\":6658:7503   */\n      swap3\n      swap2\n      pop\n      pop\n      jump\t// out\n        /* \"#utility.yul\":7509:7617   */\n    tag_342:\n        /* \"#utility.yul\":7586:7610   */\n      tag_344\n        /* \"#utility.yul\":7604:7609   */\n      dup2\n        /* \"#utility.yul\":7586:7610   */\n      tag_345\n      jump\t// in\n    tag_344:\n        /* \"#utility.yul\":7581:7584   */\n      dup3\n        /* \"#utility.yul\":7574:7611   */\n      mstore\n        /* \"#utility.yul\":7509:7617   */\n      pop\n      pop\n      jump\t// out\n        /* \"#utility.yul\":7623:7741   */\n    tag_346:\n        /* \"#utility.yul\":7710:7734   */\n      tag_348\n        /* \"#utility.yul\":7728:7733   */\n      dup2\n        /* \"#utility.yul\":7710:7734   */\n      tag_345\n      jump\t// in\n    tag_348:\n        /* \"#utility.yul\":7705:7708   */\n      dup3\n        /* \"#utility.yul\":7698:7735   */\n      mstore\n        /* \"#utility.yul\":7623:7741   */\n      pop\n      pop\n      jump\t// out\n        /* \"#utility.yul\":7747:8022   */\n    tag_212:\n        /* \"#utility.yul\":7879:7882   */\n      0x00\n        /* \"#utility.yul\":7901:7996   */\n      tag_350\n        /* \"#utility.yul\":7992:7995   */\n      dup3\n        /* \"#utility.yul\":7983:7989   */\n      dup5\n        /* \"#utility.yul\":7901:7996   */\n      tag_327\n      jump\t// in\n    tag_350:\n        /* \"#utility.yul\":7894:7996   */\n      swap2\n      pop\n        /* \"#utility.yul\":8013:8016   */\n      dup2\n        /* \"#utility.yul\":8006:8016   */\n      swap1\n      pop\n        /* \"#utility.yul\":7747:8022   */\n      swap3\n      swap2\n      pop\n      pop\n      jump\t// out\n        /* \"#utility.yul\":8028:8493   */\n    tag_37:\n        /* \"#utility.yul\":8217:8221   */\n      0x00\n        /* \"#utility.yul\":8255:8257   */\n      0x20\n        /* \"#utility.yul\":8244:8253   */\n      dup3\n        /* \"#utility.yul\":8240:8258   */\n      add\n        /* \"#utility.yul\":8232:8258   */\n      swap1\n      pop\n        /* \"#utility.yul\":8304:8313   */\n      dup2\n        /* \"#utility.yul\":8298:8302   */\n      dup2\n        /* \"#utility.yul\":8294:8314   */\n      sub\n        /* \"#utility.yul\":8290:8291   */\n      0x00\n        /* \"#utility.yul\":8279:8288   */\n      dup4\n        /* \"#utility.yul\":8275:8292   */\n      add\n        /* \"#utility.yul\":8268:8315   */\n      mstore\n        /* \"#utility.yul\":8332:8486   */\n      tag_352\n        /* \"#utility.yul\":8481:8485   */\n      dup2\n        /* \"#utility.yul\":8472:8478   */\n      dup5\n        /* \"#utility.yul\":8332:8486   */\n      tag_292\n      jump\t// in\n    tag_352:\n        /* \"#utility.yul\":8324:8486   */\n      swap1\n      pop\n        /* \"#utility.yul\":8028:8493   */\n      swap3\n      swap2\n      pop\n      pop\n      jump\t// out\n        /* \"#utility.yul\":8499:8709   */\n    tag_28:\n        /* \"#utility.yul\":8586:8590   */\n      0x00\n        /* \"#utility.yul\":8624:8626   */\n      0x20\n        /* \"#utility.yul\":8613:8622   */\n      dup3\n        /* \"#utility.yul\":8609:8627   */\n      add\n        /* \"#utility.yul\":8601:8627   */\n      swap1\n      pop\n        /* \"#utility.yul\":8637:8702   */\n      tag_354\n        /* \"#utility.yul\":8699:8700   */\n      0x00\n        /* \"#utility.yul\":8688:8697   */\n      dup4\n        /* \"#utility.yul\":8684:8701   */\n      add\n        /* \"#utility.yul\":8675:8681   */\n      dup5\n        /* \"#utility.yul\":8637:8702   */\n      tag_306\n      jump\t// in\n    tag_354:\n        /* \"#utility.yul\":8499:8709   */\n      swap3\n      swap2\n      pop\n      pop\n      jump\t// out\n        /* \"#utility.yul\":8715:9339   */\n    tag_18:\n        /* \"#utility.yul\":8904:8908   */\n      0x00\n        /* \"#utility.yul\":8942:8944   */\n      0x60\n        /* \"#utility.yul\":8931:8940   */\n      dup3\n        /* \"#utility.yul\":8927:8945   */\n      add\n        /* \"#utility.yul\":8919:8945   */\n      swap1\n      pop\n        /* \"#utility.yul\":8991:9000   */\n      dup2\n        /* \"#utility.yul\":8985:8989   */\n      dup2\n        /* \"#utility.yul\":8981:9001   */\n      sub\n        /* \"#utility.yul\":8977:8978   */\n      0x00\n        /* \"#utility.yul\":8966:8975   */\n      dup4\n        /* \"#utility.yul\":8962:8979   */\n      add\n        /* \"#utility.yul\":8955:9002   */\n      mstore\n        /* \"#utility.yul\":9019:9097   */\n      tag_356\n        /* \"#utility.yul\":9092:9096   */\n      dup2\n        /* \"#utility.yul\":9083:9089   */\n      dup7\n        /* \"#utility.yul\":9019:9097   */\n      tag_320\n      jump\t// in\n    tag_356:\n        /* \"#utility.yul\":9011:9097   */\n      swap1\n      pop\n        /* \"#utility.yul\":9144:9153   */\n      dup2\n        /* \"#utility.yul\":9138:9142   */\n      dup2\n        /* \"#utility.yul\":9134:9154   */\n      sub\n        /* \"#utility.yul\":9129:9131   */\n      0x20\n        /* \"#utility.yul\":9118:9127   */\n      dup4\n        /* \"#utility.yul\":9114:9132   */\n      add\n        /* \"#utility.yul\":9107:9155   */\n      mstore\n        /* \"#utility.yul\":9172:9250   */\n      tag_357\n        /* \"#utility.yul\":9245:9249   */\n      dup2\n        /* \"#utility.yul\":9236:9242   */\n      dup6\n        /* \"#utility.yul\":9172:9250   */\n      tag_320\n      jump\t// in\n    tag_357:\n        /* \"#utility.yul\":9164:9250   */\n      swap1\n      pop\n        /* \"#utility.yul\":9260:9332   */\n      tag_358\n        /* \"#utility.yul\":9328:9330   */\n      0x40\n        /* \"#utility.yul\":9317:9326   */\n      dup4\n        /* \"#utility.yul\":9313:9331   */\n      add\n        /* \"#utility.yul\":9304:9310   */\n      dup5\n        /* \"#utility.yul\":9260:9332   */\n      tag_346\n      jump\t// in\n    tag_358:\n        /* \"#utility.yul\":8715:9339   */\n      swap5\n      swap4\n      pop\n      pop\n      pop\n      pop\n      jump\t// out\n        /* \"#utility.yul\":9345:9764   */\n    tag_124:\n        /* \"#utility.yul\":9511:9515   */\n      0x00\n        /* \"#utility.yul\":9549:9551   */\n      0x20\n        /* \"#utility.yul\":9538:9547   */\n      dup3\n        /* \"#utility.yul\":9534:9552   */\n      add\n        /* \"#utility.yul\":9526:9552   */\n      swap1\n      pop\n        /* \"#utility.yul\":9598:9607   */\n      dup2\n        /* \"#utility.yul\":9592:9596   */\n      dup2\n        /* \"#utility.yul\":9588:9608   */\n      sub\n        /* \"#utility.yul\":9584:9585   */\n      0x00\n        /* \"#utility.yul\":9573:9582   */\n      dup4\n        /* \"#utility.yul\":9569:9586   */\n      add\n        /* \"#utility.yul\":9562:9609   */\n      mstore\n        /* \"#utility.yul\":9626:9757   */\n      tag_360\n        /* \"#utility.yul\":9752:9756   */\n      dup2\n        /* \"#utility.yul\":9626:9757   */\n      tag_333\n      jump\t// in\n    tag_360:\n        /* \"#utility.yul\":9618:9757   */\n      swap1\n      pop\n        /* \"#utility.yul\":9345:9764   */\n      swap2\n      swap1\n      pop\n      jump\t// out\n        /* \"#utility.yul\":9770:9992   */\n    tag_22:\n        /* \"#utility.yul\":9863:9867   */\n      0x00\n        /* \"#utility.yul\":9901:9903   */\n      0x20\n        /* \"#utility.yul\":9890:9899   */\n      dup3\n        /* \"#utility.yul\":9886:9904   */\n      add\n        /* \"#utility.yul\":9878:9904   */\n      swap1\n      pop\n        /* \"#utility.yul\":9914:9985   */\n      tag_362\n        /* \"#utility.yul\":9982:9983   */\n      0x00\n        /* \"#utility.yul\":9971:9980   */\n      dup4\n        /* \"#utility.yul\":9967:9984   */\n      add\n        /* \"#utility.yul\":9958:9964   */\n      dup5\n        /* \"#utility.yul\":9914:9985   */\n      tag_346\n      jump\t// in\n    tag_362:\n        /* \"#utility.yul\":9770:9992   */\n      swap3\n      swap2\n      pop\n      pop\n      jump\t// out\n        /* \"#utility.yul\":9998:10127   */\n    tag_241:\n        /* \"#utility.yul\":10032:10038   */\n      0x00\n        /* \"#utility.yul\":10059:10079   */\n      tag_364\n      tag_365\n      jump\t// in\n    tag_364:\n        /* \"#utility.yul\":10049:10079   */\n      swap1\n      pop\n        /* \"#utility.yul\":10088:10121   */\n      tag_366\n        /* \"#utility.yul\":10116:10120   */\n      dup3\n        /* \"#utility.yul\":10108:10114   */\n      dup3\n        /* \"#utility.yul\":10088:10121   */\n      tag_367\n      jump\t// in\n    tag_366:\n        /* \"#utility.yul\":9998:10127   */\n      swap2\n      swap1\n      pop\n      jump\t// out\n        /* \"#utility.yul\":10133:10208   */\n    tag_365:\n        /* \"#utility.yul\":10166:10172   */\n      0x00\n        /* \"#utility.yul\":10199:10201   */\n      0x40\n        /* \"#utility.yul\":10193:10202   */\n      mload\n        /* \"#utility.yul\":10183:10202   */\n      swap1\n      pop\n        /* \"#utility.yul\":10133:10208   */\n      swap1\n      jump\t// out\n        /* \"#utility.yul\":10214:10522   */\n    tag_240:\n        /* \"#utility.yul\":10276:10280   */\n      0x00\n        /* \"#utility.yul\":10366:10384   */\n      0xffffffffffffffff\n        /* \"#utility.yul\":10358:10364   */\n      dup3\n        /* \"#utility.yul\":10355:10385   */\n      gt\n        /* \"#utility.yul\":10352:10408   */\n      iszero\n      tag_370\n      jumpi\n        /* \"#utility.yul\":10388:10406   */\n      tag_371\n      tag_143\n      jump\t// in\n    tag_371:\n        /* \"#utility.yul\":10352:10408   */\n    tag_370:\n        /* \"#utility.yul\":10426:10455   */\n      tag_372\n        /* \"#utility.yul\":10448:10454   */\n      dup3\n        /* \"#utility.yul\":10426:10455   */\n      tag_319\n      jump\t// in\n    tag_372:\n        /* \"#utility.yul\":10418:10455   */\n      swap1\n      pop\n        /* \"#utility.yul\":10510:10514   */\n      0x20\n        /* \"#utility.yul\":10504:10508   */\n      dup2\n        /* \"#utility.yul\":10500:10515   */\n      add\n        /* \"#utility.yul\":10492:10515   */\n      swap1\n      pop\n        /* \"#utility.yul\":10214:10522   */\n      swap2\n      swap1\n      pop\n      jump\t// out\n        /* \"#utility.yul\":10528:10683   */\n    tag_299:\n        /* \"#utility.yul\":10618:10622   */\n      0x00\n        /* \"#utility.yul\":10641:10644   */\n      dup2\n        /* \"#utility.yul\":10633:10644   */\n      swap1\n      pop\n        /* \"#utility.yul\":10671:10675   */\n      0x20\n        /* \"#utility.yul\":10666:10669   */\n      dup3\n        /* \"#utility.yul\":10662:10676   */\n      add\n        /* \"#utility.yul\":10654:10676   */\n      swap1\n      pop\n        /* \"#utility.yul\":10528:10683   */\n      swap2\n      swap1\n      pop\n      jump\t// out\n        /* \"#utility.yul\":10689:10826   */\n    tag_295:\n        /* \"#utility.yul\":10779:10785   */\n      0x00\n        /* \"#utility.yul\":10813:10818   */\n      dup2\n        /* \"#utility.yul\":10807:10819   */\n      mload\n        /* \"#utility.yul\":10797:10819   */\n      swap1\n      pop\n        /* \"#utility.yul\":10689:10826   */\n      swap2\n      swap1\n      pop\n      jump\t// out\n        /* \"#utility.yul\":10832:10931   */\n    tag_313:\n        /* \"#utility.yul\":10884:10890   */\n      0x00\n        /* \"#utility.yul\":10918:10923   */\n      dup2\n        /* \"#utility.yul\":10912:10924   */\n      mload\n        /* \"#utility.yul\":10902:10924   */\n      swap1\n      pop\n        /* \"#utility.yul\":10832:10931   */\n      swap2\n      swap1\n      pop\n      jump\t// out\n        /* \"#utility.yul\":10937:11073   */\n    tag_305:\n        /* \"#utility.yul\":11030:11034   */\n      0x00\n        /* \"#utility.yul\":11062:11066   */\n      0x20\n        /* \"#utility.yul\":11057:11060   */\n      dup3\n        /* \"#utility.yul\":11053:11067   */\n      add\n        /* \"#utility.yul\":11045:11067   */\n      swap1\n      pop\n        /* \"#utility.yul\":10937:11073   */\n      swap2\n      swap1\n      pop\n      jump\t// out\n        /* \"#utility.yul\":11079:11286   */\n    tag_297:\n        /* \"#utility.yul\":11201:11212   */\n      0x00\n        /* \"#utility.yul\":11235:11241   */\n      dup3\n        /* \"#utility.yul\":11230:11233   */\n      dup3\n        /* \"#utility.yul\":11223:11242   */\n      mstore\n        /* \"#utility.yul\":11275:11279   */\n      0x20\n        /* \"#utility.yul\":11270:11273   */\n      dup3\n        /* \"#utility.yul\":11266:11280   */\n      add\n        /* \"#utility.yul\":11251:11280   */\n      swap1\n      pop\n        /* \"#utility.yul\":11079:11286   */\n      swap3\n      swap2\n      pop\n      pop\n      jump\t// out\n        /* \"#utility.yul\":11292:11451   */\n    tag_315:\n        /* \"#utility.yul\":11366:11377   */\n      0x00\n        /* \"#utility.yul\":11400:11406   */\n      dup3\n        /* \"#utility.yul\":11395:11398   */\n      dup3\n        /* \"#utility.yul\":11388:11407   */\n      mstore\n        /* \"#utility.yul\":11440:11444   */\n      0x20\n        /* \"#utility.yul\":11435:11438   */\n      dup3\n        /* \"#utility.yul\":11431:11445   */\n      add\n        /* \"#utility.yul\":11416:11445   */\n      swap1\n      pop\n        /* \"#utility.yul\":11292:11451   */\n      swap3\n      swap2\n      pop\n      pop\n      jump\t// out\n        /* \"#utility.yul\":11457:11626   */\n    tag_324:\n        /* \"#utility.yul\":11541:11552   */\n      0x00\n        /* \"#utility.yul\":11575:11581   */\n      dup3\n        /* \"#utility.yul\":11570:11573   */\n      dup3\n        /* \"#utility.yul\":11563:11582   */\n      mstore\n        /* \"#utility.yul\":11615:11619   */\n      0x20\n        /* \"#utility.yul\":11610:11613   */\n      dup3\n        /* \"#utility.yul\":11606:11620   */\n      add\n        /* \"#utility.yul\":11591:11620   */\n      swap1\n      pop\n        /* \"#utility.yul\":11457:11626   */\n      swap3\n      swap2\n      pop\n      pop\n      jump\t// out\n        /* \"#utility.yul\":11632:11780   */\n    tag_331:\n        /* \"#utility.yul\":11734:11745   */\n      0x00\n        /* \"#utility.yul\":11771:11774   */\n      dup2\n        /* \"#utility.yul\":11756:11774   */\n      swap1\n      pop\n        /* \"#utility.yul\":11632:11780   */\n      swap3\n      swap2\n      pop\n      pop\n      jump\t// out\n        /* \"#utility.yul\":11786:11977   */\n    tag_188:\n        /* \"#utility.yul\":11826:11830   */\n      0x00\n        /* \"#utility.yul\":11846:11866   */\n      tag_382\n        /* \"#utility.yul\":11864:11865   */\n      dup3\n        /* \"#utility.yul\":11846:11866   */\n      tag_345\n      jump\t// in\n    tag_382:\n        /* \"#utility.yul\":11841:11866   */\n      swap2\n      pop\n        /* \"#utility.yul\":11880:11900   */\n      tag_383\n        /* \"#utility.yul\":11898:11899   */\n      dup4\n        /* \"#utility.yul\":11880:11900   */\n      tag_345\n      jump\t// in\n    tag_383:\n        /* \"#utility.yul\":11875:11900   */\n      swap3\n      pop\n        /* \"#utility.yul\":11919:11920   */\n      dup3\n        /* \"#utility.yul\":11916:11917   */\n      dup3\n        /* \"#utility.yul\":11913:11921   */\n      lt\n        /* \"#utility.yul\":11910:11944   */\n      iszero\n      tag_384\n      jumpi\n        /* \"#utility.yul\":11924:11942   */\n      tag_385\n      tag_386\n      jump\t// in\n    tag_385:\n        /* \"#utility.yul\":11910:11944   */\n    tag_384:\n        /* \"#utility.yul\":11969:11970   */\n      dup3\n        /* \"#utility.yul\":11966:11967   */\n      dup3\n        /* \"#utility.yul\":11962:11971   */\n      sub\n        /* \"#utility.yul\":11954:11971   */\n      swap1\n      pop\n        /* \"#utility.yul\":11786:11977   */\n      swap3\n      swap2\n      pop\n      pop\n      jump\t// out\n        /* \"#utility.yul\":11983:12073   */\n    tag_309:\n        /* \"#utility.yul\":12017:12024   */\n      0x00\n        /* \"#utility.yul\":12060:12065   */\n      dup2\n        /* \"#utility.yul\":12053:12066   */\n      iszero\n        /* \"#utility.yul\":12046:12067   */\n      iszero\n        /* \"#utility.yul\":12035:12067   */\n      swap1\n      pop\n        /* \"#utility.yul\":11983:12073   */\n      swap2\n      swap1\n      pop\n      jump\t// out\n        /* \"#utility.yul\":12079:12156   */\n    tag_345:\n        /* \"#utility.yul\":12116:12123   */\n      0x00\n        /* \"#utility.yul\":12145:12150   */\n      dup2\n        /* \"#utility.yul\":12134:12150   */\n      swap1\n      pop\n        /* \"#utility.yul\":12079:12156   */\n      swap2\n      swap1\n      pop\n      jump\t// out\n        /* \"#utility.yul\":12162:12316   */\n    tag_246:\n        /* \"#utility.yul\":12246:12252   */\n      dup3\n        /* \"#utility.yul\":12241:12244   */\n      dup2\n        /* \"#utility.yul\":12236:12239   */\n      dup4\n        /* \"#utility.yul\":12223:12253   */\n      calldatacopy\n        /* \"#utility.yul\":12308:12309   */\n      0x00\n        /* \"#utility.yul\":12299:12305   */\n      dup4\n        /* \"#utility.yul\":12294:12297   */\n      dup4\n        /* \"#utility.yul\":12290:12306   */\n      add\n        /* \"#utility.yul\":12283:12310   */\n      mstore\n        /* \"#utility.yul\":12162:12316   */\n      pop\n      pop\n      pop\n      jump\t// out\n        /* \"#utility.yul\":12322:12629   */\n    tag_317:\n        /* \"#utility.yul\":12390:12391   */\n      0x00\n        /* \"#utility.yul\":12400:12513   */\n    tag_391:\n        /* \"#utility.yul\":12414:12420   */\n      dup4\n        /* \"#utility.yul\":12411:12412   */\n      dup2\n        /* \"#utility.yul\":12408:12421   */\n      lt\n        /* \"#utility.yul\":12400:12513   */\n      iszero\n      tag_393\n      jumpi\n        /* \"#utility.yul\":12499:12500   */\n      dup1\n        /* \"#utility.yul\":12494:12497   */\n      dup3\n        /* \"#utility.yul\":12490:12501   */\n      add\n        /* \"#utility.yul\":12484:12502   */\n      mload\n        /* \"#utility.yul\":12480:12481   */\n      dup2\n        /* \"#utility.yul\":12475:12478   */\n      dup5\n        /* \"#utility.yul\":12471:12482   */\n      add\n        /* \"#utility.yul\":12464:12503   */\n      mstore\n        /* \"#utility.yul\":12436:12438   */\n      0x20\n        /* \"#utility.yul\":12433:12434   */\n      dup2\n        /* \"#utility.yul\":12429:12439   */\n      add\n        /* \"#utility.yul\":12424:12439   */\n      swap1\n      pop\n        /* \"#utility.yul\":12400:12513   */\n      jump(tag_391)\n    tag_393:\n        /* \"#utility.yul\":12531:12537   */\n      dup4\n        /* \"#utility.yul\":12528:12529   */\n      dup2\n        /* \"#utility.yul\":12525:12538   */\n      gt\n        /* \"#utility.yul\":12522:12623   */\n      iszero\n      tag_394\n      jumpi\n        /* \"#utility.yul\":12611:12612   */\n      0x00\n        /* \"#utility.yul\":12602:12608   */\n      dup5\n        /* \"#utility.yul\":12597:12600   */\n      dup5\n        /* \"#utility.yul\":12593:12609   */\n      add\n        /* \"#utility.yul\":12586:12613   */\n      mstore\n        /* \"#utility.yul\":12522:12623   */\n    tag_394:\n        /* \"#utility.yul\":12371:12629   */\n      pop\n        /* \"#utility.yul\":12322:12629   */\n      pop\n      pop\n      pop\n      jump\t// out\n        /* \"#utility.yul\":12635:12806   */\n    tag_208:\n        /* \"#utility.yul\":12674:12677   */\n      0x00\n        /* \"#utility.yul\":12697:12721   */\n      tag_396\n        /* \"#utility.yul\":12715:12720   */\n      dup3\n        /* \"#utility.yul\":12697:12721   */\n      tag_345\n      jump\t// in\n    tag_396:\n        /* \"#utility.yul\":12688:12721   */\n      swap2\n      pop\n        /* \"#utility.yul\":12743:12747   */\n      0x00\n        /* \"#utility.yul\":12736:12741   */\n      dup3\n        /* \"#utility.yul\":12733:12748   */\n      eq\n        /* \"#utility.yul\":12730:12771   */\n      iszero\n      tag_397\n      jumpi\n        /* \"#utility.yul\":12751:12769   */\n      tag_398\n      tag_386\n      jump\t// in\n    tag_398:\n        /* \"#utility.yul\":12730:12771   */\n    tag_397:\n        /* \"#utility.yul\":12798:12799   */\n      0x01\n        /* \"#utility.yul\":12791:12796   */\n      dup3\n        /* \"#utility.yul\":12787:12800   */\n      sub\n        /* \"#utility.yul\":12780:12800   */\n      swap1\n      pop\n        /* \"#utility.yul\":12635:12806   */\n      swap2\n      swap1\n      pop\n      jump\t// out\n        /* \"#utility.yul\":12812:13132   */\n    tag_56:\n        /* \"#utility.yul\":12856:12862   */\n      0x00\n        /* \"#utility.yul\":12893:12894   */\n      0x02\n        /* \"#utility.yul\":12887:12891   */\n      dup3\n        /* \"#utility.yul\":12883:12895   */\n      div\n        /* \"#utility.yul\":12873:12895   */\n      swap1\n      pop\n        /* \"#utility.yul\":12940:12941   */\n      0x01\n        /* \"#utility.yul\":12934:12938   */\n      dup3\n        /* \"#utility.yul\":12930:12942   */\n      and\n        /* \"#utility.yul\":12961:12979   */\n      dup1\n        /* \"#utility.yul\":12951:13032   */\n      tag_400\n      jumpi\n        /* \"#utility.yul\":13017:13021   */\n      0x7f\n        /* \"#utility.yul\":13009:13015   */\n      dup3\n        /* \"#utility.yul\":13005:13022   */\n      and\n        /* \"#utility.yul\":12995:13022   */\n      swap2\n      pop\n        /* \"#utility.yul\":12951:13032   */\n    tag_400:\n        /* \"#utility.yul\":13079:13081   */\n      0x20\n        /* \"#utility.yul\":13071:13077   */\n      dup3\n        /* \"#utility.yul\":13068:13082   */\n      lt\n        /* \"#utility.yul\":13048:13066   */\n      dup2\n        /* \"#utility.yul\":13045:13083   */\n      eq\n        /* \"#utility.yul\":13042:13126   */\n      iszero\n      tag_401\n      jumpi\n        /* \"#utility.yul\":13098:13116   */\n      tag_402\n      tag_403\n      jump\t// in\n    tag_402:\n        /* \"#utility.yul\":13042:13126   */\n    tag_401:\n        /* \"#utility.yul\":12863:13132   */\n      pop\n        /* \"#utility.yul\":12812:13132   */\n      swap2\n      swap1\n      pop\n      jump\t// out\n        /* \"#utility.yul\":13138:13419   */\n    tag_367:\n        /* \"#utility.yul\":13221:13248   */\n      tag_405\n        /* \"#utility.yul\":13243:13247   */\n      dup3\n        /* \"#utility.yul\":13221:13248   */\n      tag_319\n      jump\t// in\n    tag_405:\n        /* \"#utility.yul\":13213:13219   */\n      dup2\n        /* \"#utility.yul\":13209:13249   */\n      add\n        /* \"#utility.yul\":13351:13357   */\n      dup2\n        /* \"#utility.yul\":13339:13349   */\n      dup2\n        /* \"#utility.yul\":13336:13358   */\n      lt\n        /* \"#utility.yul\":13315:13333   */\n      0xffffffffffffffff\n        /* \"#utility.yul\":13303:13313   */\n      dup3\n        /* \"#utility.yul\":13300:13334   */\n      gt\n        /* \"#utility.yul\":13297:13359   */\n      or\n        /* \"#utility.yul\":13294:13382   */\n      iszero\n      tag_406\n      jumpi\n        /* \"#utility.yul\":13362:13380   */\n      tag_407\n      tag_143\n      jump\t// in\n    tag_407:\n        /* \"#utility.yul\":13294:13382   */\n    tag_406:\n        /* \"#utility.yul\":13402:13412   */\n      dup1\n        /* \"#utility.yul\":13398:13400   */\n      0x40\n        /* \"#utility.yul\":13391:13413   */\n      mstore\n        /* \"#utility.yul\":13181:13419   */\n      pop\n        /* \"#utility.yul\":13138:13419   */\n      pop\n      pop\n      jump\t// out\n        /* \"#utility.yul\":13425:13658   */\n    tag_88:\n        /* \"#utility.yul\":13464:13467   */\n      0x00\n        /* \"#utility.yul\":13487:13511   */\n      tag_409\n        /* \"#utility.yul\":13505:13510   */\n      dup3\n        /* \"#utility.yul\":13487:13511   */\n      tag_345\n      jump\t// in\n    tag_409:\n        /* \"#utility.yul\":13478:13511   */\n      swap2\n      pop\n        /* \"#utility.yul\":13533:13599   */\n      0xffffffffffffffffffffffffffffffffffffffffffffffffffffffffffffffff\n        /* \"#utility.yul\":13526:13531   */\n      dup3\n        /* \"#utility.yul\":13523:13600   */\n      eq\n        /* \"#utility.yul\":13520:13623   */\n      iszero\n      tag_410\n      jumpi\n        /* \"#utility.yul\":13603:13621   */\n      tag_411\n      tag_386\n      jump\t// in\n    tag_411:\n        /* \"#utility.yul\":13520:13623   */\n    tag_410:\n        /* \"#utility.yul\":13650:13651   */\n      0x01\n        /* \"#utility.yul\":13643:13648   */\n      dup3\n        /* \"#utility.yul\":13639:13652   */\n      add\n        /* \"#utility.yul\":13632:13652   */\n      swap1\n      pop\n        /* \"#utility.yul\":13425:13658   */\n      swap2\n      swap1\n      pop\n      jump\t// out\n        /* \"#utility.yul\":13664:13844   */\n    tag_386:\n        /* \"#utility.yul\":13712:13789   */\n      0x4e487b7100000000000000000000000000000000000000000000000000000000\n        /* \"#utility.yul\":13709:13710   */\n      0x00\n        /* \"#utility.yul\":13702:13790   */\n      mstore\n        /* \"#utility.yul\":13809:13813   */\n      0x11\n        /* \"#utility.yul\":13806:13807   */\n      0x04\n        /* \"#utility.yul\":13799:13814   */\n      mstore\n        /* \"#utility.yul\":13833:13837   */\n      0x24\n        /* \"#utility.yul\":13830:13831   */\n      0x00\n        /* \"#utility.yul\":13823:13838   */\n      revert\n        /* \"#utility.yul\":13850:14030   */\n    tag_403:\n        /* \"#utility.yul\":13898:13975   */\n      0x4e487b7100000000000000000000000000000000000000000000000000000000\n        /* \"#utility.yul\":13895:13896   */\n      0x00\n        /* \"#utility.yul\":13888:13976   */\n      mstore\n        /* \"#utility.yul\":13995:13999   */\n      0x22\n        /* \"#utility.yul\":13992:13993   */\n      0x04\n        /* \"#utility.yul\":13985:14000   */\n      mstore\n        /* \"#utility.yul\":14019:14023   */\n      0x24\n        /* \"#utility.yul\":14016:14017   */\n      0x00\n        /* \"#utility.yul\":14009:14024   */\n      revert\n        /* \"#utility.yul\":14036:14216   */\n    tag_73:\n        /* \"#utility.yul\":14084:14161   */\n      0x4e487b7100000000000000000000000000000000000000000000000000000000\n        /* \"#utility.yul\":14081:14082   */\n      0x00\n        /* \"#utility.yul\":14074:14162   */\n      mstore\n        /* \"#utility.yul\":14181:14185   */\n      0x32\n        /* \"#utility.yul\":14178:14179   */\n      0x04\n        /* \"#utility.yul\":14171:14186   */\n      mstore\n        /* \"#utility.yul\":14205:14209   */\n      0x24\n        /* \"#utility.yul\":14202:14203   */\n      0x00\n        /* \"#utility.yul\":14195:14210   */\n      revert\n        /* \"#utility.yul\":14222:14402   */\n    tag_143:\n        /* \"#utility.yul\":14270:14347   */\n      0x4e487b7100000000000000000000000000000000000000000000000000000000\n        /* \"#utility.yul\":14267:14268   */\n      0x00\n        /* \"#utility.yul\":14260:14348   */\n      mstore\n        /* \"#utility.yul\":14367:14371   */\n      0x41\n        /* \"#utility.yul\":14364:14365   */\n      0x04\n        /* \"#utility.yul\":14357:14372   */\n      mstore\n        /* \"#utility.yul\":14391:14395   */\n      0x24\n        /* \"#utility.yul\":14388:14389   */\n      0x00\n        /* \"#utility.yul\":14381:14396   */\n      revert\n        /* \"#utility.yul\":14408:14525   */\n    tag_251:\n        /* \"#utility.yul\":14517:14518   */\n      0x00\n        /* \"#utility.yul\":14514:14515   */\n      dup1\n        /* \"#utility.yul\":14507:14519   */\n      revert\n        /* \"#utility.yul\":14531:14648   */\n    tag_244:\n        /* \"#utility.yul\":14640:14641   */\n      0x00\n        /* \"#utility.yul\":14637:14638   */\n      dup1\n        /* \"#utility.yul\":14630:14642   */\n      revert\n        /* \"#utility.yul\":14654:14771   */\n    tag_263:\n        /* \"#utility.yul\":14763:14764   */\n      0x00\n        /* \"#utility.yul\":14760:14761   */\n      dup1\n        /* \"#utility.yul\":14753:14765   */\n      revert\n        /* \"#utility.yul\":14777:14894   */\n    tag_260:\n        /* \"#utility.yul\":14886:14887   */\n      0x00\n        /* \"#utility.yul\":14883:14884   */\n      dup1\n        /* \"#utility.yul\":14876:14888   */\n      revert\n        /* \"#utility.yul\":14900:15002   */\n    tag_319:\n        /* \"#utility.yul\":14941:14947   */\n      0x00\n        /* \"#utility.yul\":14992:14994   */\n      0x1f\n        /* \"#utility.yul\":14988:14995   */\n      not\n        /* \"#utility.yul\":14983:14985   */\n      0x1f\n        /* \"#utility.yul\":14976:14981   */\n      dup4\n        /* \"#utility.yul\":14972:14986   */\n      add\n        /* \"#utility.yul\":14968:14996   */\n      and\n        /* \"#utility.yul\":14958:14996   */\n      swap1\n      pop\n        /* \"#utility.yul\":14900:15002   */\n      swap2\n      swap1\n      pop\n      jump\t// out\n        /* \"#utility.yul\":15008:15175   */\n    tag_337:\n        /* \"#utility.yul\":15148:15167   */\n      0x636f756e747279206e6f7420666f756e64000000000000000000000000000000\n        /* \"#utility.yul\":15144:15145   */\n      0x00\n        /* \"#utility.yul\":15136:15142   */\n      dup3\n        /* \"#utility.yul\":15132:15146   */\n      add\n        /* \"#utility.yul\":15125:15168   */\n      mstore\n        /* \"#utility.yul\":15008:15175   */\n      pop\n      jump\t// out\n        /* \"#utility.yul\":15181:15303   */\n    tag_256:\n        /* \"#utility.yul\":15254:15278   */\n      tag_423\n        /* \"#utility.yul\":15272:15277   */\n      dup2\n        /* \"#utility.yul\":15254:15278   */\n      tag_345\n      jump\t// in\n    tag_423:\n        /* \"#utility.yul\":15247:15252   */\n      dup2\n        /* \"#utility.yul\":15244:15279   */\n      eq\n        /* \"#utility.yul\":15234:15297   */\n      tag_424\n      jumpi\n        /* \"#utility.yul\":15293:15294   */\n      0x00\n        /* \"#utility.yul\":15290:15291   */\n      dup1\n        /* \"#utility.yul\":15283:15295   */\n      revert\n        /* \"#utility.yul\":15234:15297   */\n    tag_424:\n        /* \"#utility.yul\":15181:15303   */\n      pop\n      jump\t// out\n\n    auxdata: 0xa26469706673582212204b9d0c9fb4555995973f903d17984ae015106d6efdbdf9009fef6e70a3231f4e64736f6c63430008070033\n}\n",
				"bytecode": {
					"linkReferences": {},
					"object": "608060405234801561001057600080fd5b5060006002819055506117ae806100286000396000f3fe608060405234801561001057600080fd5b50600436106100935760003560e01c8063a176c86c11610066578063a176c86c1461014a578063acf7545814610168578063beca800914610186578063c1356d26146101a4578063cae65058146101d457610093565b806308e9daa51461009857806362738129146100ca57806381ba02be146100e8578063848924cb14610118575b600080fd5b6100b260048036038101906100ad919061115a565b610204565b6040516100c1939291906113ae565b60405180910390f35b6100d261034e565b6040516100df9190611413565b60405180910390f35b61010260048036038101906100fd9190611057565b610354565b60405161010f9190611393565b60405180910390f35b610132600480360381019061012d919061100e565b610485565b604051610141939291906113ae565b60405180910390f35b610152610740565b60405161015f9190611371565b60405180910390f35b6101706108cd565b60405161017d9190611413565b60405180910390f35b61018e6108da565b60405161019b9190611371565b60405180910390f35b6101be60048036038101906101b991906110cf565b610ad7565b6040516101cb9190611413565b60405180910390f35b6101ee60048036038101906101e9919061100e565b610b8e565b6040516101fb9190611393565b60405180910390f35b6001818154811061021457600080fd5b9060005260206000209060030201600091509050806000018054610237906115ab565b80601f0160208091040260200160405190810160405280929190818152602001828054610263906115ab565b80156102b05780601f10610285576101008083540402835291602001916102b0565b820191906000526020600020905b81548152906001019060200180831161029357829003601f168201915b5050505050908060010180546102c5906115ab565b80601f01602080910402602001604051908101604052809291908181526020018280546102f1906115ab565b801561033e5780601f106103135761010080835404028352916020019161033e565b820191906000526020600020905b81548152906001019060200180831161032157829003601f168201915b5050505050908060020154905083565b60025481565b600080600090505b6002548110156104795761041d6001828154811061037d5761037c6116b5565b5b90600052602060002090600302016000018054610399906115ab565b80601f01602080910402602001604051908101604052809291908181526020018280546103c5906115ab565b80156104125780601f106103e757610100808354040283529160200191610412565b820191906000526020600020905b8154815290600101906020018083116103f557829003601f168201915b505050505085610d9f565b15610466578260018281548110610437576104366116b5565b5b9060005260206000209060030201600101908051906020019061045b929190610df8565b50600191505061047f565b80806104719061160e565b91505061035c565b50600090505b92915050565b606080600080600090505b6002548110156106fd57610551600182815481106104b1576104b06116b5565b5b906000526020600020906003020160000180546104cd906115ab565b80601f01602080910402602001604051908101604052809291908181526020018280546104f9906115ab565b80156105465780601f1061051b57610100808354040283529160200191610546565b820191906000526020600020905b81548152906001019060200180831161052957829003601f168201915b505050505086610d9f565b156106ea576001818154811061056a576105696116b5565b5b90600052602060002090600302016000016001828154811061058f5761058e6116b5565b5b9060005260206000209060030201600101600183815481106105b4576105b36116b5565b5b9060005260206000209060030201600201548280546105d2906115ab565b80601f01602080910402602001604051908101604052809291908181526020018280546105fe906115ab565b801561064b5780601f106106205761010080835404028352916020019161064b565b820191906000526020600020905b81548152906001019060200180831161062e57829003601f168201915b5050505050925081805461065e906115ab565b80601f016020809104026020016040519081016040528092919081815260200182805461068a906115ab565b80156106d75780601f106106ac576101008083540402835291602001916106d7565b820191906000526020600020905b8154815290600101906020018083116106ba57829003601f168201915b5050505050915093509350935050610739565b80806106f59061160e565b915050610490565b506040517f08c379a0000000000000000000000000000000000000000000000000000000008152600401610730906113f3565b60405180910390fd5b9193909250565b60606001805480602002602001604051908101604052809291908181526020016000905b828210156108c45783829060005260206000209060030201604051806060016040529081600082018054610797906115ab565b80601f01602080910402602001604051908101604052809291908181526020018280546107c3906115ab565b80156108105780601f106107e557610100808354040283529160200191610810565b820191906000526020600020905b8154815290600101906020018083116107f357829003601f168201915b50505050508152602001600182018054610829906115ab565b80601f0160208091040260200160405190810160405280929190818152602001828054610855906115ab565b80156108a25780601f10610877576101008083540402835291602001916108a2565b820191906000526020600020905b81548152906001019060200180831161088557829003601f168201915b5050505050815260200160028201548152505081526020019060010190610764565b50505050905090565b6000600180549050905090565b6060600060025467ffffffffffffffff8111156108fa576108f96116e4565b5b60405190808252806020026020018201604052801561093357816020015b610920610e7e565b8152602001906001900390816109185790505b50905060005b600254811015610acf5760018181548110610957576109566116b5565b5b9060005260206000209060030201604051806060016040529081600082018054610980906115ab565b80601f01602080910402602001604051908101604052809291908181526020018280546109ac906115ab565b80156109f95780601f106109ce576101008083540402835291602001916109f9565b820191906000526020600020905b8154815290600101906020018083116109dc57829003601f168201915b50505050508152602001600182018054610a12906115ab565b80601f0160208091040260200160405190810160405280929190818152602001828054610a3e906115ab565b8015610a8b5780601f10610a6057610100808354040283529160200191610a8b565b820191906000526020600020905b815481529060010190602001808311610a6e57829003601f168201915b50505050508152602001600282015481525050828281518110610ab157610ab06116b5565b5b60200260200101819052508080610ac79061160e565b915050610939565b508091505090565b600080604051806060016040528086815260200185815260200184815250905060018190806001815401808255809150506001900390600052602060002090600302016000909190919091506000820151816000019080519060200190610b3f929190610df8565b506020820151816001019080519060200190610b5c929190610df8565b5060408201518160020155505060026000815480929190610b7c9061160e565b91905055506002549150509392505050565b60008060025411610b9e57600080fd5b60005b600254811015610d9457610c6260018281548110610bc257610bc16116b5565b5b90600052602060002090600302016000018054610bde906115ab565b80601f0160208091040260200160405190810160405280929190818152602001828054610c0a906115ab565b8015610c575780601f10610c2c57610100808354040283529160200191610c57565b820191906000526020600020905b815481529060010190602001808311610c3a57829003601f168201915b505050505084610d9f565b15610d8157600180600254610c7791906114f5565b81548110610c8857610c876116b5565b5b906000526020600020906003020160018281548110610caa57610ca96116b5565b5b90600052602060002090600302016000820181600001908054610ccc906115ab565b610cd7929190610e9f565b506001820181600101908054610cec906115ab565b610cf7929190610e9f565b5060028201548160020155905050600180600254610d1591906114f5565b81548110610d2657610d256116b5565b5b906000526020600020906003020160008082016000610d459190610f2c565b600182016000610d559190610f2c565b6002820160009055505060026000815480929190610d7290611581565b91905055506001915050610d9a565b8080610d8c9061160e565b915050610ba1565b50600090505b919050565b600081604051602001610db2919061135a565b6040516020818303038152906040528051906020012083604051602001610dd9919061135a565b6040516020818303038152906040528051906020012014905092915050565b828054610e04906115ab565b90600052602060002090601f016020900481019282610e265760008555610e6d565b82601f10610e3f57805160ff1916838001178555610e6d565b82800160010185558215610e6d579182015b82811115610e6c578251825591602001919060010190610e51565b5b509050610e7a9190610f6c565b5090565b60405180606001604052806060815260200160608152602001600081525090565b828054610eab906115ab565b90600052602060002090601f016020900481019282610ecd5760008555610f1b565b82601f10610ede5780548555610f1b565b82800160010185558215610f1b57600052602060002091601f016020900482015b82811115610f1a578254825591600101919060010190610eff565b5b509050610f289190610f6c565b5090565b508054610f38906115ab565b6000825580601f10610f4a5750610f69565b601f016020900490600052602060002090810190610f689190610f6c565b5b50565b5b80821115610f85576000816000905550600101610f6d565b5090565b6000610f9c610f9784611453565b61142e565b905082815260208101848484011115610fb857610fb7611718565b5b610fc384828561153f565b509392505050565b600082601f830112610fe057610fdf611713565b5b8135610ff0848260208601610f89565b91505092915050565b60008135905061100881611761565b92915050565b60006020828403121561102457611023611722565b5b600082013567ffffffffffffffff8111156110425761104161171d565b5b61104e84828501610fcb565b91505092915050565b6000806040838503121561106e5761106d611722565b5b600083013567ffffffffffffffff81111561108c5761108b61171d565b5b61109885828601610fcb565b925050602083013567ffffffffffffffff8111156110b9576110b861171d565b5b6110c585828601610fcb565b9150509250929050565b6000806000606084860312156110e8576110e7611722565b5b600084013567ffffffffffffffff8111156111065761110561171d565b5b61111286828701610fcb565b935050602084013567ffffffffffffffff8111156111335761113261171d565b5b61113f86828701610fcb565b925050604061115086828701610ff9565b9150509250925092565b6000602082840312156111705761116f611722565b5b600061117e84828501610ff9565b91505092915050565b600061119383836112e5565b905092915050565b60006111a682611494565b6111b081856114b7565b9350836020820285016111c285611484565b8060005b858110156111fe57848403895281516111df8582611187565b94506111ea836114aa565b925060208a019950506001810190506111c6565b50829750879550505050505092915050565b61121981611529565b82525050565b600061122a8261149f565b61123481856114c8565b935061124481856020860161154e565b61124d81611727565b840191505092915050565b60006112638261149f565b61126d81856114d9565b935061127d81856020860161154e565b61128681611727565b840191505092915050565b600061129c8261149f565b6112a681856114ea565b93506112b681856020860161154e565b80840191505092915050565b60006112cf6011836114d9565b91506112da82611738565b602082019050919050565b60006060830160008301518482036000860152611302828261121f565b9150506020830151848203602086015261131c828261121f565b9150506040830151611331604086018261133c565b508091505092915050565b61134581611535565b82525050565b61135481611535565b82525050565b60006113668284611291565b915081905092915050565b6000602082019050818103600083015261138b818461119b565b905092915050565b60006020820190506113a86000830184611210565b92915050565b600060608201905081810360008301526113c88186611258565b905081810360208301526113dc8185611258565b90506113eb604083018461134b565b949350505050565b6000602082019050818103600083015261140c816112c2565b9050919050565b6000602082019050611428600083018461134b565b92915050565b6000611438611449565b905061144482826115dd565b919050565b6000604051905090565b600067ffffffffffffffff82111561146e5761146d6116e4565b5b61147782611727565b9050602081019050919050565b6000819050602082019050919050565b600081519050919050565b600081519050919050565b6000602082019050919050565b600082825260208201905092915050565b600082825260208201905092915050565b600082825260208201905092915050565b600081905092915050565b600061150082611535565b915061150b83611535565b92508282101561151e5761151d611657565b5b828203905092915050565b60008115159050919050565b6000819050919050565b82818337600083830152505050565b60005b8381101561156c578082015181840152602081019050611551565b8381111561157b576000848401525b50505050565b600061158c82611535565b915060008214156115a05761159f611657565b5b600182039050919050565b600060028204905060018216806115c357607f821691505b602082108114156115d7576115d6611686565b5b50919050565b6115e682611727565b810181811067ffffffffffffffff82111715611605576116046116e4565b5b80604052505050565b600061161982611535565b91507fffffffffffffffffffffffffffffffffffffffffffffffffffffffffffffffff82141561164c5761164b611657565b5b600182019050919050565b7f4e487b7100000000000000000000000000000000000000000000000000000000600052601160045260246000fd5b7f4e487b7100000000000000000000000000000000000000000000000000000000600052602260045260246000fd5b7f4e487b7100000000000000000000000000000000000000000000000000000000600052603260045260246000fd5b7f4e487b7100000000000000000000000000000000000000000000000000000000600052604160045260246000fd5b600080fd5b600080fd5b600080fd5b600080fd5b6000601f19601f8301169050919050565b7f636f756e747279206e6f7420666f756e64000000000000000000000000000000600082015250565b61176a81611535565b811461177557600080fd5b5056fea26469706673582212204b9d0c9fb4555995973f903d17984ae015106d6efdbdf9009fef6e70a3231f4e64736f6c63430008070033",
					"opcodes": "PUSH1 0x80 PUSH1 0x40 MSTORE CALLVALUE DUP1 ISZERO PUSH2 0x10 JUMPI PUSH1 0x0 DUP1 REVERT JUMPDEST POP PUSH1 0x0 PUSH1 0x2 DUP2 SWAP1 SSTORE POP PUSH2 0x17AE DUP1 PUSH2 0x28 PUSH1 0x0 CODECOPY PUSH1 0x0 RETURN INVALID PUSH1 0x80 PUSH1 0x40 MSTORE CALLVALUE DUP1 ISZERO PUSH2 0x10 JUMPI PUSH1 0x0 DUP1 REVERT JUMPDEST POP PUSH1 0x4 CALLDATASIZE LT PUSH2 0x93 JUMPI PUSH1 0x0 CALLDATALOAD PUSH1 0xE0 SHR DUP1 PUSH4 0xA176C86C GT PUSH2 0x66 JUMPI DUP1 PUSH4 0xA176C86C EQ PUSH2 0x14A JUMPI DUP1 PUSH4 0xACF75458 EQ PUSH2 0x168 JUMPI DUP1 PUSH4 0xBECA8009 EQ PUSH2 0x186 JUMPI DUP1 PUSH4 0xC1356D26 EQ PUSH2 0x1A4 JUMPI DUP1 PUSH4 0xCAE65058 EQ PUSH2 0x1D4 JUMPI PUSH2 0x93 JUMP JUMPDEST DUP1 PUSH4 0x8E9DAA5 EQ PUSH2 0x98 JUMPI DUP1 PUSH4 0x62738129 EQ PUSH2 0xCA JUMPI DUP1 PUSH4 0x81BA02BE EQ PUSH2 0xE8 JUMPI DUP1 PUSH4 0x848924CB EQ PUSH2 0x118 JUMPI JUMPDEST PUSH1 0x0 DUP1 REVERT JUMPDEST PUSH2 0xB2 PUSH1 0x4 DUP1 CALLDATASIZE SUB DUP2 ADD SWAP1 PUSH2 0xAD SWAP2 SWAP1 PUSH2 0x115A JUMP JUMPDEST PUSH2 0x204 JUMP JUMPDEST PUSH1 0x40 MLOAD PUSH2 0xC1 SWAP4 SWAP3 SWAP2 SWAP1 PUSH2 0x13AE JUMP JUMPDEST PUSH1 0x40 MLOAD DUP1 SWAP2 SUB SWAP1 RETURN JUMPDEST PUSH2 0xD2 PUSH2 0x34E JUMP JUMPDEST PUSH1 0x40 MLOAD PUSH2 0xDF SWAP2 SWAP1 PUSH2 0x1413 JUMP JUMPDEST PUSH1 0x40 MLOAD DUP1 SWAP2 SUB SWAP1 RETURN JUMPDEST PUSH2 0x102 PUSH1 0x4 DUP1 CALLDATASIZE SUB DUP2 ADD SWAP1 PUSH2 0xFD SWAP2 SWAP1 PUSH2 0x1057 JUMP JUMPDEST PUSH2 0x354 JUMP JUMPDEST PUSH1 0x40 MLOAD PUSH2 0x10F SWAP2 SWAP1 PUSH2 0x1393 JUMP JUMPDEST PUSH1 0x40 MLOAD DUP1 SWAP2 SUB SWAP1 RETURN JUMPDEST PUSH2 0x132 PUSH1 0x4 DUP1 CALLDATASIZE SUB DUP2 ADD SWAP1 PUSH2 0x12D SWAP2 SWAP1 PUSH2 0x100E JUMP JUMPDEST PUSH2 0x485 JUMP JUMPDEST PUSH1 0x40 MLOAD PUSH2 0x141 SWAP4 SWAP3 SWAP2 SWAP1 PUSH2 0x13AE JUMP JUMPDEST PUSH1 0x40 MLOAD DUP1 SWAP2 SUB SWAP1 RETURN JUMPDEST PUSH2 0x152 PUSH2 0x740 JUMP JUMPDEST PUSH1 0x40 MLOAD PUSH2 0x15F SWAP2 SWAP1 PUSH2 0x1371 JUMP JUMPDEST PUSH1 0x40 MLOAD DUP1 SWAP2 SUB SWAP1 RETURN JUMPDEST PUSH2 0x170 PUSH2 0x8CD JUMP JUMPDEST PUSH1 0x40 MLOAD PUSH2 0x17D SWAP2 SWAP1 PUSH2 0x1413 JUMP JUMPDEST PUSH1 0x40 MLOAD DUP1 SWAP2 SUB SWAP1 RETURN JUMPDEST PUSH2 0x18E PUSH2 0x8DA JUMP JUMPDEST PUSH1 0x40 MLOAD PUSH2 0x19B SWAP2 SWAP1 PUSH2 0x1371 JUMP JUMPDEST PUSH1 0x40 MLOAD DUP1 SWAP2 SUB SWAP1 RETURN JUMPDEST PUSH2 0x1BE PUSH1 0x4 DUP1 CALLDATASIZE SUB DUP2 ADD SWAP1 PUSH2 0x1B9 SWAP2 SWAP1 PUSH2 0x10CF JUMP JUMPDEST PUSH2 0xAD7 JUMP JUMPDEST PUSH1 0x40 MLOAD PUSH2 0x1CB SWAP2 SWAP1 PUSH2 0x1413 JUMP JUMPDEST PUSH1 0x40 MLOAD DUP1 SWAP2 SUB SWAP1 RETURN JUMPDEST PUSH2 0x1EE PUSH1 0x4 DUP1 CALLDATASIZE SUB DUP2 ADD SWAP1 PUSH2 0x1E9 SWAP2 SWAP1 PUSH2 0x100E JUMP JUMPDEST PUSH2 0xB8E JUMP JUMPDEST PUSH1 0x40 MLOAD PUSH2 0x1FB SWAP2 SWAP1 PUSH2 0x1393 JUMP JUMPDEST PUSH1 0x40 MLOAD DUP1 SWAP2 SUB SWAP1 RETURN JUMPDEST PUSH1 0x1 DUP2 DUP2 SLOAD DUP2 LT PUSH2 0x214 JUMPI PUSH1 0x0 DUP1 REVERT JUMPDEST SWAP1 PUSH1 0x0 MSTORE PUSH1 0x20 PUSH1 0x0 KECCAK256 SWAP1 PUSH1 0x3 MUL ADD PUSH1 0x0 SWAP2 POP SWAP1 POP DUP1 PUSH1 0x0 ADD DUP1 SLOAD PUSH2 0x237 SWAP1 PUSH2 0x15AB JUMP JUMPDEST DUP1 PUSH1 0x1F ADD PUSH1 0x20 DUP1 SWAP2 DIV MUL PUSH1 0x20 ADD PUSH1 0x40 MLOAD SWAP1 DUP2 ADD PUSH1 0x40 MSTORE DUP1 SWAP3 SWAP2 SWAP1 DUP2 DUP2 MSTORE PUSH1 0x20 ADD DUP3 DUP1 SLOAD PUSH2 0x263 SWAP1 PUSH2 0x15AB JUMP JUMPDEST DUP1 ISZERO PUSH2 0x2B0 JUMPI DUP1 PUSH1 0x1F LT PUSH2 0x285 JUMPI PUSH2 0x100 DUP1 DUP4 SLOAD DIV MUL DUP4 MSTORE SWAP2 PUSH1 0x20 ADD SWAP2 PUSH2 0x2B0 JUMP JUMPDEST DUP3 ADD SWAP2 SWAP1 PUSH1 0x0 MSTORE PUSH1 0x20 PUSH1 0x0 KECCAK256 SWAP1 JUMPDEST DUP2 SLOAD DUP2 MSTORE SWAP1 PUSH1 0x1 ADD SWAP1 PUSH1 0x20 ADD DUP1 DUP4 GT PUSH2 0x293 JUMPI DUP3 SWAP1 SUB PUSH1 0x1F AND DUP3 ADD SWAP2 JUMPDEST POP POP POP POP POP SWAP1 DUP1 PUSH1 0x1 ADD DUP1 SLOAD PUSH2 0x2C5 SWAP1 PUSH2 0x15AB JUMP JUMPDEST DUP1 PUSH1 0x1F ADD PUSH1 0x20 DUP1 SWAP2 DIV MUL PUSH1 0x20 ADD PUSH1 0x40 MLOAD SWAP1 DUP2 ADD PUSH1 0x40 MSTORE DUP1 SWAP3 SWAP2 SWAP1 DUP2 DUP2 MSTORE PUSH1 0x20 ADD DUP3 DUP1 SLOAD PUSH2 0x2F1 SWAP1 PUSH2 0x15AB JUMP JUMPDEST DUP1 ISZERO PUSH2 0x33E JUMPI DUP1 PUSH1 0x1F LT PUSH2 0x313 JUMPI PUSH2 0x100 DUP1 DUP4 SLOAD DIV MUL DUP4 MSTORE SWAP2 PUSH1 0x20 ADD SWAP2 PUSH2 0x33E JUMP JUMPDEST DUP3 ADD SWAP2 SWAP1 PUSH1 0x0 MSTORE PUSH1 0x20 PUSH1 0x0 KECCAK256 SWAP1 JUMPDEST DUP2 SLOAD DUP2 MSTORE SWAP1 PUSH1 0x1 ADD SWAP1 PUSH1 0x20 ADD DUP1 DUP4 GT PUSH2 0x321 JUMPI DUP3 SWAP1 SUB PUSH1 0x1F AND DUP3 ADD SWAP2 JUMPDEST POP POP POP POP POP SWAP1 DUP1 PUSH1 0x2 ADD SLOAD SWAP1 POP DUP4 JUMP JUMPDEST PUSH1 0x2 SLOAD DUP2 JUMP JUMPDEST PUSH1 0x0 DUP1 PUSH1 0x0 SWAP1 POP JUMPDEST PUSH1 0x2 SLOAD DUP2 LT ISZERO PUSH2 0x479 JUMPI PUSH2 0x41D PUSH1 0x1 DUP3 DUP2 SLOAD DUP2 LT PUSH2 0x37D JUMPI PUSH2 0x37C PUSH2 0x16B5 JUMP JUMPDEST JUMPDEST SWAP1 PUSH1 0x0 MSTORE PUSH1 0x20 PUSH1 0x0 KECCAK256 SWAP1 PUSH1 0x3 MUL ADD PUSH1 0x0 ADD DUP1 SLOAD PUSH2 0x399 SWAP1 PUSH2 0x15AB JUMP JUMPDEST DUP1 PUSH1 0x1F ADD PUSH1 0x20 DUP1 SWAP2 DIV MUL PUSH1 0x20 ADD PUSH1 0x40 MLOAD SWAP1 DUP2 ADD PUSH1 0x40 MSTORE DUP1 SWAP3 SWAP2 SWAP1 DUP2 DUP2 MSTORE PUSH1 0x20 ADD DUP3 DUP1 SLOAD PUSH2 0x3C5 SWAP1 PUSH2 0x15AB JUMP JUMPDEST DUP1 ISZERO PUSH2 0x412 JUMPI DUP1 PUSH1 0x1F LT PUSH2 0x3E7 JUMPI PUSH2 0x100 DUP1 DUP4 SLOAD DIV MUL DUP4 MSTORE SWAP2 PUSH1 0x20 ADD SWAP2 PUSH2 0x412 JUMP JUMPDEST DUP3 ADD SWAP2 SWAP1 PUSH1 0x0 MSTORE PUSH1 0x20 PUSH1 0x0 KECCAK256 SWAP1 JUMPDEST DUP2 SLOAD DUP2 MSTORE SWAP1 PUSH1 0x1 ADD SWAP1 PUSH1 0x20 ADD DUP1 DUP4 GT PUSH2 0x3F5 JUMPI DUP3 SWAP1 SUB PUSH1 0x1F AND DUP3 ADD SWAP2 JUMPDEST POP POP POP POP POP DUP6 PUSH2 0xD9F JUMP JUMPDEST ISZERO PUSH2 0x466 JUMPI DUP3 PUSH1 0x1 DUP3 DUP2 SLOAD DUP2 LT PUSH2 0x437 JUMPI PUSH2 0x436 PUSH2 0x16B5 JUMP JUMPDEST JUMPDEST SWAP1 PUSH1 0x0 MSTORE PUSH1 0x20 PUSH1 0x0 KECCAK256 SWAP1 PUSH1 0x3 MUL ADD PUSH1 0x1 ADD SWAP1 DUP1 MLOAD SWAP1 PUSH1 0x20 ADD SWAP1 PUSH2 0x45B SWAP3 SWAP2 SWAP1 PUSH2 0xDF8 JUMP JUMPDEST POP PUSH1 0x1 SWAP2 POP POP PUSH2 0x47F JUMP JUMPDEST DUP1 DUP1 PUSH2 0x471 SWAP1 PUSH2 0x160E JUMP JUMPDEST SWAP2 POP POP PUSH2 0x35C JUMP JUMPDEST POP PUSH1 0x0 SWAP1 POP JUMPDEST SWAP3 SWAP2 POP POP JUMP JUMPDEST PUSH1 0x60 DUP1 PUSH1 0x0 DUP1 PUSH1 0x0 SWAP1 POP JUMPDEST PUSH1 0x2 SLOAD DUP2 LT ISZERO PUSH2 0x6FD JUMPI PUSH2 0x551 PUSH1 0x1 DUP3 DUP2 SLOAD DUP2 LT PUSH2 0x4B1 JUMPI PUSH2 0x4B0 PUSH2 0x16B5 JUMP JUMPDEST JUMPDEST SWAP1 PUSH1 0x0 MSTORE PUSH1 0x20 PUSH1 0x0 KECCAK256 SWAP1 PUSH1 0x3 MUL ADD PUSH1 0x0 ADD DUP1 SLOAD PUSH2 0x4CD SWAP1 PUSH2 0x15AB JUMP JUMPDEST DUP1 PUSH1 0x1F ADD PUSH1 0x20 DUP1 SWAP2 DIV MUL PUSH1 0x20 ADD PUSH1 0x40 MLOAD SWAP1 DUP2 ADD PUSH1 0x40 MSTORE DUP1 SWAP3 SWAP2 SWAP1 DUP2 DUP2 MSTORE PUSH1 0x20 ADD DUP3 DUP1 SLOAD PUSH2 0x4F9 SWAP1 PUSH2 0x15AB JUMP JUMPDEST DUP1 ISZERO PUSH2 0x546 JUMPI DUP1 PUSH1 0x1F LT PUSH2 0x51B JUMPI PUSH2 0x100 DUP1 DUP4 SLOAD DIV MUL DUP4 MSTORE SWAP2 PUSH1 0x20 ADD SWAP2 PUSH2 0x546 JUMP JUMPDEST DUP3 ADD SWAP2 SWAP1 PUSH1 0x0 MSTORE PUSH1 0x20 PUSH1 0x0 KECCAK256 SWAP1 JUMPDEST DUP2 SLOAD DUP2 MSTORE SWAP1 PUSH1 0x1 ADD SWAP1 PUSH1 0x20 ADD DUP1 DUP4 GT PUSH2 0x529 JUMPI DUP3 SWAP1 SUB PUSH1 0x1F AND DUP3 ADD SWAP2 JUMPDEST POP POP POP POP POP DUP7 PUSH2 0xD9F JUMP JUMPDEST ISZERO PUSH2 0x6EA JUMPI PUSH1 0x1 DUP2 DUP2 SLOAD DUP2 LT PUSH2 0x56A JUMPI PUSH2 0x569 PUSH2 0x16B5 JUMP JUMPDEST JUMPDEST SWAP1 PUSH1 0x0 MSTORE PUSH1 0x20 PUSH1 0x0 KECCAK256 SWAP1 PUSH1 0x3 MUL ADD PUSH1 0x0 ADD PUSH1 0x1 DUP3 DUP2 SLOAD DUP2 LT PUSH2 0x58F JUMPI PUSH2 0x58E PUSH2 0x16B5 JUMP JUMPDEST JUMPDEST SWAP1 PUSH1 0x0 MSTORE PUSH1 0x20 PUSH1 0x0 KECCAK256 SWAP1 PUSH1 0x3 MUL ADD PUSH1 0x1 ADD PUSH1 0x1 DUP4 DUP2 SLOAD DUP2 LT PUSH2 0x5B4 JUMPI PUSH2 0x5B3 PUSH2 0x16B5 JUMP JUMPDEST JUMPDEST SWAP1 PUSH1 0x0 MSTORE PUSH1 0x20 PUSH1 0x0 KECCAK256 SWAP1 PUSH1 0x3 MUL ADD PUSH1 0x2 ADD SLOAD DUP3 DUP1 SLOAD PUSH2 0x5D2 SWAP1 PUSH2 0x15AB JUMP JUMPDEST DUP1 PUSH1 0x1F ADD PUSH1 0x20 DUP1 SWAP2 DIV MUL PUSH1 0x20 ADD PUSH1 0x40 MLOAD SWAP1 DUP2 ADD PUSH1 0x40 MSTORE DUP1 SWAP3 SWAP2 SWAP1 DUP2 DUP2 MSTORE PUSH1 0x20 ADD DUP3 DUP1 SLOAD PUSH2 0x5FE SWAP1 PUSH2 0x15AB JUMP JUMPDEST DUP1 ISZERO PUSH2 0x64B JUMPI DUP1 PUSH1 0x1F LT PUSH2 0x620 JUMPI PUSH2 0x100 DUP1 DUP4 SLOAD DIV MUL DUP4 MSTORE SWAP2 PUSH1 0x20 ADD SWAP2 PUSH2 0x64B JUMP JUMPDEST DUP3 ADD SWAP2 SWAP1 PUSH1 0x0 MSTORE PUSH1 0x20 PUSH1 0x0 KECCAK256 SWAP1 JUMPDEST DUP2 SLOAD DUP2 MSTORE SWAP1 PUSH1 0x1 ADD SWAP1 PUSH1 0x20 ADD DUP1 DUP4 GT PUSH2 0x62E JUMPI DUP3 SWAP1 SUB PUSH1 0x1F AND DUP3 ADD SWAP2 JUMPDEST POP POP POP POP POP SWAP3 POP DUP2 DUP1 SLOAD PUSH2 0x65E SWAP1 PUSH2 0x15AB JUMP JUMPDEST DUP1 PUSH1 0x1F ADD PUSH1 0x20 DUP1 SWAP2 DIV MUL PUSH1 0x20 ADD PUSH1 0x40 MLOAD SWAP1 DUP2 ADD PUSH1 0x40 MSTORE DUP1 SWAP3 SWAP2 SWAP1 DUP2 DUP2 MSTORE PUSH1 0x20 ADD DUP3 DUP1 SLOAD PUSH2 0x68A SWAP1 PUSH2 0x15AB JUMP JUMPDEST DUP1 ISZERO PUSH2 0x6D7 JUMPI DUP1 PUSH1 0x1F LT PUSH2 0x6AC JUMPI PUSH2 0x100 DUP1 DUP4 SLOAD DIV MUL DUP4 MSTORE SWAP2 PUSH1 0x20 ADD SWAP2 PUSH2 0x6D7 JUMP JUMPDEST DUP3 ADD SWAP2 SWAP1 PUSH1 0x0 MSTORE PUSH1 0x20 PUSH1 0x0 KECCAK256 SWAP1 JUMPDEST DUP2 SLOAD DUP2 MSTORE SWAP1 PUSH1 0x1 ADD SWAP1 PUSH1 0x20 ADD DUP1 DUP4 GT PUSH2 0x6BA JUMPI DUP3 SWAP1 SUB PUSH1 0x1F AND DUP3 ADD SWAP2 JUMPDEST POP POP POP POP POP SWAP2 POP SWAP4 POP SWAP4 POP SWAP4 POP POP PUSH2 0x739 JUMP JUMPDEST DUP1 DUP1 PUSH2 0x6F5 SWAP1 PUSH2 0x160E JUMP JUMPDEST SWAP2 POP POP PUSH2 0x490 JUMP JUMPDEST POP PUSH1 0x40 MLOAD PUSH32 0x8C379A000000000000000000000000000000000000000000000000000000000 DUP2 MSTORE PUSH1 0x4 ADD PUSH2 0x730 SWAP1 PUSH2 0x13F3 JUMP JUMPDEST PUSH1 0x40 MLOAD DUP1 SWAP2 SUB SWAP1 REVERT JUMPDEST SWAP2 SWAP4 SWAP1 SWAP3 POP JUMP JUMPDEST PUSH1 0x60 PUSH1 0x1 DUP1 SLOAD DUP1 PUSH1 0x20 MUL PUSH1 0x20 ADD PUSH1 0x40 MLOAD SWAP1 DUP2 ADD PUSH1 0x40 MSTORE DUP1 SWAP3 SWAP2 SWAP1 DUP2 DUP2 MSTORE PUSH1 0x20 ADD PUSH1 0x0 SWAP1 JUMPDEST DUP3 DUP3 LT ISZERO PUSH2 0x8C4 JUMPI DUP4 DUP3 SWAP1 PUSH1 0x0 MSTORE PUSH1 0x20 PUSH1 0x0 KECCAK256 SWAP1 PUSH1 0x3 MUL ADD PUSH1 0x40 MLOAD DUP1 PUSH1 0x60 ADD PUSH1 0x40 MSTORE SWAP1 DUP2 PUSH1 0x0 DUP3 ADD DUP1 SLOAD PUSH2 0x797 SWAP1 PUSH2 0x15AB JUMP JUMPDEST DUP1 PUSH1 0x1F ADD PUSH1 0x20 DUP1 SWAP2 DIV MUL PUSH1 0x20 ADD PUSH1 0x40 MLOAD SWAP1 DUP2 ADD PUSH1 0x40 MSTORE DUP1 SWAP3 SWAP2 SWAP1 DUP2 DUP2 MSTORE PUSH1 0x20 ADD DUP3 DUP1 SLOAD PUSH2 0x7C3 SWAP1 PUSH2 0x15AB JUMP JUMPDEST DUP1 ISZERO PUSH2 0x810 JUMPI DUP1 PUSH1 0x1F LT PUSH2 0x7E5 JUMPI PUSH2 0x100 DUP1 DUP4 SLOAD DIV MUL DUP4 MSTORE SWAP2 PUSH1 0x20 ADD SWAP2 PUSH2 0x810 JUMP JUMPDEST DUP3 ADD SWAP2 SWAP1 PUSH1 0x0 MSTORE PUSH1 0x20 PUSH1 0x0 KECCAK256 SWAP1 JUMPDEST DUP2 SLOAD DUP2 MSTORE SWAP1 PUSH1 0x1 ADD SWAP1 PUSH1 0x20 ADD DUP1 DUP4 GT PUSH2 0x7F3 JUMPI DUP3 SWAP1 SUB PUSH1 0x1F AND DUP3 ADD SWAP2 JUMPDEST POP POP POP POP POP DUP2 MSTORE PUSH1 0x20 ADD PUSH1 0x1 DUP3 ADD DUP1 SLOAD PUSH2 0x829 SWAP1 PUSH2 0x15AB JUMP JUMPDEST DUP1 PUSH1 0x1F ADD PUSH1 0x20 DUP1 SWAP2 DIV MUL PUSH1 0x20 ADD PUSH1 0x40 MLOAD SWAP1 DUP2 ADD PUSH1 0x40 MSTORE DUP1 SWAP3 SWAP2 SWAP1 DUP2 DUP2 MSTORE PUSH1 0x20 ADD DUP3 DUP1 SLOAD PUSH2 0x855 SWAP1 PUSH2 0x15AB JUMP JUMPDEST DUP1 ISZERO PUSH2 0x8A2 JUMPI DUP1 PUSH1 0x1F LT PUSH2 0x877 JUMPI PUSH2 0x100 DUP1 DUP4 SLOAD DIV MUL DUP4 MSTORE SWAP2 PUSH1 0x20 ADD SWAP2 PUSH2 0x8A2 JUMP JUMPDEST DUP3 ADD SWAP2 SWAP1 PUSH1 0x0 MSTORE PUSH1 0x20 PUSH1 0x0 KECCAK256 SWAP1 JUMPDEST DUP2 SLOAD DUP2 MSTORE SWAP1 PUSH1 0x1 ADD SWAP1 PUSH1 0x20 ADD DUP1 DUP4 GT PUSH2 0x885 JUMPI DUP3 SWAP1 SUB PUSH1 0x1F AND DUP3 ADD SWAP2 JUMPDEST POP POP POP POP POP DUP2 MSTORE PUSH1 0x20 ADD PUSH1 0x2 DUP3 ADD SLOAD DUP2 MSTORE POP POP DUP2 MSTORE PUSH1 0x20 ADD SWAP1 PUSH1 0x1 ADD SWAP1 PUSH2 0x764 JUMP JUMPDEST POP POP POP POP SWAP1 POP SWAP1 JUMP JUMPDEST PUSH1 0x0 PUSH1 0x1 DUP1 SLOAD SWAP1 POP SWAP1 POP SWAP1 JUMP JUMPDEST PUSH1 0x60 PUSH1 0x0 PUSH1 0x2 SLOAD PUSH8 0xFFFFFFFFFFFFFFFF DUP2 GT ISZERO PUSH2 0x8FA JUMPI PUSH2 0x8F9 PUSH2 0x16E4 JUMP JUMPDEST JUMPDEST PUSH1 0x40 MLOAD SWAP1 DUP1 DUP3 MSTORE DUP1 PUSH1 0x20 MUL PUSH1 0x20 ADD DUP3 ADD PUSH1 0x40 MSTORE DUP1 ISZERO PUSH2 0x933 JUMPI DUP2 PUSH1 0x20 ADD JUMPDEST PUSH2 0x920 PUSH2 0xE7E JUMP JUMPDEST DUP2 MSTORE PUSH1 0x20 ADD SWAP1 PUSH1 0x1 SWAP1 SUB SWAP1 DUP2 PUSH2 0x918 JUMPI SWAP1 POP JUMPDEST POP SWAP1 POP PUSH1 0x0 JUMPDEST PUSH1 0x2 SLOAD DUP2 LT ISZERO PUSH2 0xACF JUMPI PUSH1 0x1 DUP2 DUP2 SLOAD DUP2 LT PUSH2 0x957 JUMPI PUSH2 0x956 PUSH2 0x16B5 JUMP JUMPDEST JUMPDEST SWAP1 PUSH1 0x0 MSTORE PUSH1 0x20 PUSH1 0x0 KECCAK256 SWAP1 PUSH1 0x3 MUL ADD PUSH1 0x40 MLOAD DUP1 PUSH1 0x60 ADD PUSH1 0x40 MSTORE SWAP1 DUP2 PUSH1 0x0 DUP3 ADD DUP1 SLOAD PUSH2 0x980 SWAP1 PUSH2 0x15AB JUMP JUMPDEST DUP1 PUSH1 0x1F ADD PUSH1 0x20 DUP1 SWAP2 DIV MUL PUSH1 0x20 ADD PUSH1 0x40 MLOAD SWAP1 DUP2 ADD PUSH1 0x40 MSTORE DUP1 SWAP3 SWAP2 SWAP1 DUP2 DUP2 MSTORE PUSH1 0x20 ADD DUP3 DUP1 SLOAD PUSH2 0x9AC SWAP1 PUSH2 0x15AB JUMP JUMPDEST DUP1 ISZERO PUSH2 0x9F9 JUMPI DUP1 PUSH1 0x1F LT PUSH2 0x9CE JUMPI PUSH2 0x100 DUP1 DUP4 SLOAD DIV MUL DUP4 MSTORE SWAP2 PUSH1 0x20 ADD SWAP2 PUSH2 0x9F9 JUMP JUMPDEST DUP3 ADD SWAP2 SWAP1 PUSH1 0x0 MSTORE PUSH1 0x20 PUSH1 0x0 KECCAK256 SWAP1 JUMPDEST DUP2 SLOAD DUP2 MSTORE SWAP1 PUSH1 0x1 ADD SWAP1 PUSH1 0x20 ADD DUP1 DUP4 GT PUSH2 0x9DC JUMPI DUP3 SWAP1 SUB PUSH1 0x1F AND DUP3 ADD SWAP2 JUMPDEST POP POP POP POP POP DUP2 MSTORE PUSH1 0x20 ADD PUSH1 0x1 DUP3 ADD DUP1 SLOAD PUSH2 0xA12 SWAP1 PUSH2 0x15AB JUMP JUMPDEST DUP1 PUSH1 0x1F ADD PUSH1 0x20 DUP1 SWAP2 DIV MUL PUSH1 0x20 ADD PUSH1 0x40 MLOAD SWAP1 DUP2 ADD PUSH1 0x40 MSTORE DUP1 SWAP3 SWAP2 SWAP1 DUP2 DUP2 MSTORE PUSH1 0x20 ADD DUP3 DUP1 SLOAD PUSH2 0xA3E SWAP1 PUSH2 0x15AB JUMP JUMPDEST DUP1 ISZERO PUSH2 0xA8B JUMPI DUP1 PUSH1 0x1F LT PUSH2 0xA60 JUMPI PUSH2 0x100 DUP1 DUP4 SLOAD DIV MUL DUP4 MSTORE SWAP2 PUSH1 0x20 ADD SWAP2 PUSH2 0xA8B JUMP JUMPDEST DUP3 ADD SWAP2 SWAP1 PUSH1 0x0 MSTORE PUSH1 0x20 PUSH1 0x0 KECCAK256 SWAP1 JUMPDEST DUP2 SLOAD DUP2 MSTORE SWAP1 PUSH1 0x1 ADD SWAP1 PUSH1 0x20 ADD DUP1 DUP4 GT PUSH2 0xA6E JUMPI DUP3 SWAP1 SUB PUSH1 0x1F AND DUP3 ADD SWAP2 JUMPDEST POP POP POP POP POP DUP2 MSTORE PUSH1 0x20 ADD PUSH1 0x2 DUP3 ADD SLOAD DUP2 MSTORE POP POP DUP3 DUP3 DUP2 MLOAD DUP2 LT PUSH2 0xAB1 JUMPI PUSH2 0xAB0 PUSH2 0x16B5 JUMP JUMPDEST JUMPDEST PUSH1 0x20 MUL PUSH1 0x20 ADD ADD DUP2 SWAP1 MSTORE POP DUP1 DUP1 PUSH2 0xAC7 SWAP1 PUSH2 0x160E JUMP JUMPDEST SWAP2 POP POP PUSH2 0x939 JUMP JUMPDEST POP DUP1 SWAP2 POP POP SWAP1 JUMP JUMPDEST PUSH1 0x0 DUP1 PUSH1 0x40 MLOAD DUP1 PUSH1 0x60 ADD PUSH1 0x40 MSTORE DUP1 DUP7 DUP2 MSTORE PUSH1 0x20 ADD DUP6 DUP2 MSTORE PUSH1 0x20 ADD DUP5 DUP2 MSTORE POP SWAP1 POP PUSH1 0x1 DUP2 SWAP1 DUP1 PUSH1 0x1 DUP2 SLOAD ADD DUP1 DUP3 SSTORE DUP1 SWAP2 POP POP PUSH1 0x1 SWAP1 SUB SWAP1 PUSH1 0x0 MSTORE PUSH1 0x20 PUSH1 0x0 KECCAK256 SWAP1 PUSH1 0x3 MUL ADD PUSH1 0x0 SWAP1 SWAP2 SWAP1 SWAP2 SWAP1 SWAP2 POP PUSH1 0x0 DUP3 ADD MLOAD DUP2 PUSH1 0x0 ADD SWAP1 DUP1 MLOAD SWAP1 PUSH1 0x20 ADD SWAP1 PUSH2 0xB3F SWAP3 SWAP2 SWAP1 PUSH2 0xDF8 JUMP JUMPDEST POP PUSH1 0x20 DUP3 ADD MLOAD DUP2 PUSH1 0x1 ADD SWAP1 DUP1 MLOAD SWAP1 PUSH1 0x20 ADD SWAP1 PUSH2 0xB5C SWAP3 SWAP2 SWAP1 PUSH2 0xDF8 JUMP JUMPDEST POP PUSH1 0x40 DUP3 ADD MLOAD DUP2 PUSH1 0x2 ADD SSTORE POP POP PUSH1 0x2 PUSH1 0x0 DUP2 SLOAD DUP1 SWAP3 SWAP2 SWAP1 PUSH2 0xB7C SWAP1 PUSH2 0x160E JUMP JUMPDEST SWAP2 SWAP1 POP SSTORE POP PUSH1 0x2 SLOAD SWAP2 POP POP SWAP4 SWAP3 POP POP POP JUMP JUMPDEST PUSH1 0x0 DUP1 PUSH1 0x2 SLOAD GT PUSH2 0xB9E JUMPI PUSH1 0x0 DUP1 REVERT JUMPDEST PUSH1 0x0 JUMPDEST PUSH1 0x2 SLOAD DUP2 LT ISZERO PUSH2 0xD94 JUMPI PUSH2 0xC62 PUSH1 0x1 DUP3 DUP2 SLOAD DUP2 LT PUSH2 0xBC2 JUMPI PUSH2 0xBC1 PUSH2 0x16B5 JUMP JUMPDEST JUMPDEST SWAP1 PUSH1 0x0 MSTORE PUSH1 0x20 PUSH1 0x0 KECCAK256 SWAP1 PUSH1 0x3 MUL ADD PUSH1 0x0 ADD DUP1 SLOAD PUSH2 0xBDE SWAP1 PUSH2 0x15AB JUMP JUMPDEST DUP1 PUSH1 0x1F ADD PUSH1 0x20 DUP1 SWAP2 DIV MUL PUSH1 0x20 ADD PUSH1 0x40 MLOAD SWAP1 DUP2 ADD PUSH1 0x40 MSTORE DUP1 SWAP3 SWAP2 SWAP1 DUP2 DUP2 MSTORE PUSH1 0x20 ADD DUP3 DUP1 SLOAD PUSH2 0xC0A SWAP1 PUSH2 0x15AB JUMP JUMPDEST DUP1 ISZERO PUSH2 0xC57 JUMPI DUP1 PUSH1 0x1F LT PUSH2 0xC2C JUMPI PUSH2 0x100 DUP1 DUP4 SLOAD DIV MUL DUP4 MSTORE SWAP2 PUSH1 0x20 ADD SWAP2 PUSH2 0xC57 JUMP JUMPDEST DUP3 ADD SWAP2 SWAP1 PUSH1 0x0 MSTORE PUSH1 0x20 PUSH1 0x0 KECCAK256 SWAP1 JUMPDEST DUP2 SLOAD DUP2 MSTORE SWAP1 PUSH1 0x1 ADD SWAP1 PUSH1 0x20 ADD DUP1 DUP4 GT PUSH2 0xC3A JUMPI DUP3 SWAP1 SUB PUSH1 0x1F AND DUP3 ADD SWAP2 JUMPDEST POP POP POP POP POP DUP5 PUSH2 0xD9F JUMP JUMPDEST ISZERO PUSH2 0xD81 JUMPI PUSH1 0x1 DUP1 PUSH1 0x2 SLOAD PUSH2 0xC77 SWAP2 SWAP1 PUSH2 0x14F5 JUMP JUMPDEST DUP2 SLOAD DUP2 LT PUSH2 0xC88 JUMPI PUSH2 0xC87 PUSH2 0x16B5 JUMP JUMPDEST JUMPDEST SWAP1 PUSH1 0x0 MSTORE PUSH1 0x20 PUSH1 0x0 KECCAK256 SWAP1 PUSH1 0x3 MUL ADD PUSH1 0x1 DUP3 DUP2 SLOAD DUP2 LT PUSH2 0xCAA JUMPI PUSH2 0xCA9 PUSH2 0x16B5 JUMP JUMPDEST JUMPDEST SWAP1 PUSH1 0x0 MSTORE PUSH1 0x20 PUSH1 0x0 KECCAK256 SWAP1 PUSH1 0x3 MUL ADD PUSH1 0x0 DUP3 ADD DUP2 PUSH1 0x0 ADD SWAP1 DUP1 SLOAD PUSH2 0xCCC SWAP1 PUSH2 0x15AB JUMP JUMPDEST PUSH2 0xCD7 SWAP3 SWAP2 SWAP1 PUSH2 0xE9F JUMP JUMPDEST POP PUSH1 0x1 DUP3 ADD DUP2 PUSH1 0x1 ADD SWAP1 DUP1 SLOAD PUSH2 0xCEC SWAP1 PUSH2 0x15AB JUMP JUMPDEST PUSH2 0xCF7 SWAP3 SWAP2 SWAP1 PUSH2 0xE9F JUMP JUMPDEST POP PUSH1 0x2 DUP3 ADD SLOAD DUP2 PUSH1 0x2 ADD SSTORE SWAP1 POP POP PUSH1 0x1 DUP1 PUSH1 0x2 SLOAD PUSH2 0xD15 SWAP2 SWAP1 PUSH2 0x14F5 JUMP JUMPDEST DUP2 SLOAD DUP2 LT PUSH2 0xD26 JUMPI PUSH2 0xD25 PUSH2 0x16B5 JUMP JUMPDEST JUMPDEST SWAP1 PUSH1 0x0 MSTORE PUSH1 0x20 PUSH1 0x0 KECCAK256 SWAP1 PUSH1 0x3 MUL ADD PUSH1 0x0 DUP1 DUP3 ADD PUSH1 0x0 PUSH2 0xD45 SWAP2 SWAP1 PUSH2 0xF2C JUMP JUMPDEST PUSH1 0x1 DUP3 ADD PUSH1 0x0 PUSH2 0xD55 SWAP2 SWAP1 PUSH2 0xF2C JUMP JUMPDEST PUSH1 0x2 DUP3 ADD PUSH1 0x0 SWAP1 SSTORE POP POP PUSH1 0x2 PUSH1 0x0 DUP2 SLOAD DUP1 SWAP3 SWAP2 SWAP1 PUSH2 0xD72 SWAP1 PUSH2 0x1581 JUMP JUMPDEST SWAP2 SWAP1 POP SSTORE POP PUSH1 0x1 SWAP2 POP POP PUSH2 0xD9A JUMP JUMPDEST DUP1 DUP1 PUSH2 0xD8C SWAP1 PUSH2 0x160E JUMP JUMPDEST SWAP2 POP POP PUSH2 0xBA1 JUMP JUMPDEST POP PUSH1 0x0 SWAP1 POP JUMPDEST SWAP2 SWAP1 POP JUMP JUMPDEST PUSH1 0x0 DUP2 PUSH1 0x40 MLOAD PUSH1 0x20 ADD PUSH2 0xDB2 SWAP2 SWAP1 PUSH2 0x135A JUMP JUMPDEST PUSH1 0x40 MLOAD PUSH1 0x20 DUP2 DUP4 SUB SUB DUP2 MSTORE SWAP1 PUSH1 0x40 MSTORE DUP1 MLOAD SWAP1 PUSH1 0x20 ADD KECCAK256 DUP4 PUSH1 0x40 MLOAD PUSH1 0x20 ADD PUSH2 0xDD9 SWAP2 SWAP1 PUSH2 0x135A JUMP JUMPDEST PUSH1 0x40 MLOAD PUSH1 0x20 DUP2 DUP4 SUB SUB DUP2 MSTORE SWAP1 PUSH1 0x40 MSTORE DUP1 MLOAD SWAP1 PUSH1 0x20 ADD KECCAK256 EQ SWAP1 POP SWAP3 SWAP2 POP POP JUMP JUMPDEST DUP3 DUP1 SLOAD PUSH2 0xE04 SWAP1 PUSH2 0x15AB JUMP JUMPDEST SWAP1 PUSH1 0x0 MSTORE PUSH1 0x20 PUSH1 0x0 KECCAK256 SWAP1 PUSH1 0x1F ADD PUSH1 0x20 SWAP1 DIV DUP2 ADD SWAP3 DUP3 PUSH2 0xE26 JUMPI PUSH1 0x0 DUP6 SSTORE PUSH2 0xE6D JUMP JUMPDEST DUP3 PUSH1 0x1F LT PUSH2 0xE3F JUMPI DUP1 MLOAD PUSH1 0xFF NOT AND DUP4 DUP1 ADD OR DUP6 SSTORE PUSH2 0xE6D JUMP JUMPDEST DUP3 DUP1 ADD PUSH1 0x1 ADD DUP6 SSTORE DUP3 ISZERO PUSH2 0xE6D JUMPI SWAP2 DUP3 ADD JUMPDEST DUP3 DUP2 GT ISZERO PUSH2 0xE6C JUMPI DUP3 MLOAD DUP3 SSTORE SWAP2 PUSH1 0x20 ADD SWAP2 SWAP1 PUSH1 0x1 ADD SWAP1 PUSH2 0xE51 JUMP JUMPDEST JUMPDEST POP SWAP1 POP PUSH2 0xE7A SWAP2 SWAP1 PUSH2 0xF6C JUMP JUMPDEST POP SWAP1 JUMP JUMPDEST PUSH1 0x40 MLOAD DUP1 PUSH1 0x60 ADD PUSH1 0x40 MSTORE DUP1 PUSH1 0x60 DUP2 MSTORE PUSH1 0x20 ADD PUSH1 0x60 DUP2 MSTORE PUSH1 0x20 ADD PUSH1 0x0 DUP2 MSTORE POP SWAP1 JUMP JUMPDEST DUP3 DUP1 SLOAD PUSH2 0xEAB SWAP1 PUSH2 0x15AB JUMP JUMPDEST SWAP1 PUSH1 0x0 MSTORE PUSH1 0x20 PUSH1 0x0 KECCAK256 SWAP1 PUSH1 0x1F ADD PUSH1 0x20 SWAP1 DIV DUP2 ADD SWAP3 DUP3 PUSH2 0xECD JUMPI PUSH1 0x0 DUP6 SSTORE PUSH2 0xF1B JUMP JUMPDEST DUP3 PUSH1 0x1F LT PUSH2 0xEDE JUMPI DUP1 SLOAD DUP6 SSTORE PUSH2 0xF1B JUMP JUMPDEST DUP3 DUP1 ADD PUSH1 0x1 ADD DUP6 SSTORE DUP3 ISZERO PUSH2 0xF1B JUMPI PUSH1 0x0 MSTORE PUSH1 0x20 PUSH1 0x0 KECCAK256 SWAP2 PUSH1 0x1F ADD PUSH1 0x20 SWAP1 DIV DUP3 ADD JUMPDEST DUP3 DUP2 GT ISZERO PUSH2 0xF1A JUMPI DUP3 SLOAD DUP3 SSTORE SWAP2 PUSH1 0x1 ADD SWAP2 SWAP1 PUSH1 0x1 ADD SWAP1 PUSH2 0xEFF JUMP JUMPDEST JUMPDEST POP SWAP1 POP PUSH2 0xF28 SWAP2 SWAP1 PUSH2 0xF6C JUMP JUMPDEST POP SWAP1 JUMP JUMPDEST POP DUP1 SLOAD PUSH2 0xF38 SWAP1 PUSH2 0x15AB JUMP JUMPDEST PUSH1 0x0 DUP3 SSTORE DUP1 PUSH1 0x1F LT PUSH2 0xF4A JUMPI POP PUSH2 0xF69 JUMP JUMPDEST PUSH1 0x1F ADD PUSH1 0x20 SWAP1 DIV SWAP1 PUSH1 0x0 MSTORE PUSH1 0x20 PUSH1 0x0 KECCAK256 SWAP1 DUP2 ADD SWAP1 PUSH2 0xF68 SWAP2 SWAP1 PUSH2 0xF6C JUMP JUMPDEST JUMPDEST POP JUMP JUMPDEST JUMPDEST DUP1 DUP3 GT ISZERO PUSH2 0xF85 JUMPI PUSH1 0x0 DUP2 PUSH1 0x0 SWAP1 SSTORE POP PUSH1 0x1 ADD PUSH2 0xF6D JUMP JUMPDEST POP SWAP1 JUMP JUMPDEST PUSH1 0x0 PUSH2 0xF9C PUSH2 0xF97 DUP5 PUSH2 0x1453 JUMP JUMPDEST PUSH2 0x142E JUMP JUMPDEST SWAP1 POP DUP3 DUP2 MSTORE PUSH1 0x20 DUP2 ADD DUP5 DUP5 DUP5 ADD GT ISZERO PUSH2 0xFB8 JUMPI PUSH2 0xFB7 PUSH2 0x1718 JUMP JUMPDEST JUMPDEST PUSH2 0xFC3 DUP5 DUP3 DUP6 PUSH2 0x153F JUMP JUMPDEST POP SWAP4 SWAP3 POP POP POP JUMP JUMPDEST PUSH1 0x0 DUP3 PUSH1 0x1F DUP4 ADD SLT PUSH2 0xFE0 JUMPI PUSH2 0xFDF PUSH2 0x1713 JUMP JUMPDEST JUMPDEST DUP2 CALLDATALOAD PUSH2 0xFF0 DUP5 DUP3 PUSH1 0x20 DUP7 ADD PUSH2 0xF89 JUMP JUMPDEST SWAP2 POP POP SWAP3 SWAP2 POP POP JUMP JUMPDEST PUSH1 0x0 DUP2 CALLDATALOAD SWAP1 POP PUSH2 0x1008 DUP2 PUSH2 0x1761 JUMP JUMPDEST SWAP3 SWAP2 POP POP JUMP JUMPDEST PUSH1 0x0 PUSH1 0x20 DUP3 DUP5 SUB SLT ISZERO PUSH2 0x1024 JUMPI PUSH2 0x1023 PUSH2 0x1722 JUMP JUMPDEST JUMPDEST PUSH1 0x0 DUP3 ADD CALLDATALOAD PUSH8 0xFFFFFFFFFFFFFFFF DUP2 GT ISZERO PUSH2 0x1042 JUMPI PUSH2 0x1041 PUSH2 0x171D JUMP JUMPDEST JUMPDEST PUSH2 0x104E DUP5 DUP3 DUP6 ADD PUSH2 0xFCB JUMP JUMPDEST SWAP2 POP POP SWAP3 SWAP2 POP POP JUMP JUMPDEST PUSH1 0x0 DUP1 PUSH1 0x40 DUP4 DUP6 SUB SLT ISZERO PUSH2 0x106E JUMPI PUSH2 0x106D PUSH2 0x1722 JUMP JUMPDEST JUMPDEST PUSH1 0x0 DUP4 ADD CALLDATALOAD PUSH8 0xFFFFFFFFFFFFFFFF DUP2 GT ISZERO PUSH2 0x108C JUMPI PUSH2 0x108B PUSH2 0x171D JUMP JUMPDEST JUMPDEST PUSH2 0x1098 DUP6 DUP3 DUP7 ADD PUSH2 0xFCB JUMP JUMPDEST SWAP3 POP POP PUSH1 0x20 DUP4 ADD CALLDATALOAD PUSH8 0xFFFFFFFFFFFFFFFF DUP2 GT ISZERO PUSH2 0x10B9 JUMPI PUSH2 0x10B8 PUSH2 0x171D JUMP JUMPDEST JUMPDEST PUSH2 0x10C5 DUP6 DUP3 DUP7 ADD PUSH2 0xFCB JUMP JUMPDEST SWAP2 POP POP SWAP3 POP SWAP3 SWAP1 POP JUMP JUMPDEST PUSH1 0x0 DUP1 PUSH1 0x0 PUSH1 0x60 DUP5 DUP7 SUB SLT ISZERO PUSH2 0x10E8 JUMPI PUSH2 0x10E7 PUSH2 0x1722 JUMP JUMPDEST JUMPDEST PUSH1 0x0 DUP5 ADD CALLDATALOAD PUSH8 0xFFFFFFFFFFFFFFFF DUP2 GT ISZERO PUSH2 0x1106 JUMPI PUSH2 0x1105 PUSH2 0x171D JUMP JUMPDEST JUMPDEST PUSH2 0x1112 DUP7 DUP3 DUP8 ADD PUSH2 0xFCB JUMP JUMPDEST SWAP4 POP POP PUSH1 0x20 DUP5 ADD CALLDATALOAD PUSH8 0xFFFFFFFFFFFFFFFF DUP2 GT ISZERO PUSH2 0x1133 JUMPI PUSH2 0x1132 PUSH2 0x171D JUMP JUMPDEST JUMPDEST PUSH2 0x113F DUP7 DUP3 DUP8 ADD PUSH2 0xFCB JUMP JUMPDEST SWAP3 POP POP PUSH1 0x40 PUSH2 0x1150 DUP7 DUP3 DUP8 ADD PUSH2 0xFF9 JUMP JUMPDEST SWAP2 POP POP SWAP3 POP SWAP3 POP SWAP3 JUMP JUMPDEST PUSH1 0x0 PUSH1 0x20 DUP3 DUP5 SUB SLT ISZERO PUSH2 0x1170 JUMPI PUSH2 0x116F PUSH2 0x1722 JUMP JUMPDEST JUMPDEST PUSH1 0x0 PUSH2 0x117E DUP5 DUP3 DUP6 ADD PUSH2 0xFF9 JUMP JUMPDEST SWAP2 POP POP SWAP3 SWAP2 POP POP JUMP JUMPDEST PUSH1 0x0 PUSH2 0x1193 DUP4 DUP4 PUSH2 0x12E5 JUMP JUMPDEST SWAP1 POP SWAP3 SWAP2 POP POP JUMP JUMPDEST PUSH1 0x0 PUSH2 0x11A6 DUP3 PUSH2 0x1494 JUMP JUMPDEST PUSH2 0x11B0 DUP2 DUP6 PUSH2 0x14B7 JUMP JUMPDEST SWAP4 POP DUP4 PUSH1 0x20 DUP3 MUL DUP6 ADD PUSH2 0x11C2 DUP6 PUSH2 0x1484 JUMP JUMPDEST DUP1 PUSH1 0x0 JUMPDEST DUP6 DUP2 LT ISZERO PUSH2 0x11FE JUMPI DUP5 DUP5 SUB DUP10 MSTORE DUP2 MLOAD PUSH2 0x11DF DUP6 DUP3 PUSH2 0x1187 JUMP JUMPDEST SWAP5 POP PUSH2 0x11EA DUP4 PUSH2 0x14AA JUMP JUMPDEST SWAP3 POP PUSH1 0x20 DUP11 ADD SWAP10 POP POP PUSH1 0x1 DUP2 ADD SWAP1 POP PUSH2 0x11C6 JUMP JUMPDEST POP DUP3 SWAP8 POP DUP8 SWAP6 POP POP POP POP POP POP SWAP3 SWAP2 POP POP JUMP JUMPDEST PUSH2 0x1219 DUP2 PUSH2 0x1529 JUMP JUMPDEST DUP3 MSTORE POP POP JUMP JUMPDEST PUSH1 0x0 PUSH2 0x122A DUP3 PUSH2 0x149F JUMP JUMPDEST PUSH2 0x1234 DUP2 DUP6 PUSH2 0x14C8 JUMP JUMPDEST SWAP4 POP PUSH2 0x1244 DUP2 DUP6 PUSH1 0x20 DUP7 ADD PUSH2 0x154E JUMP JUMPDEST PUSH2 0x124D DUP2 PUSH2 0x1727 JUMP JUMPDEST DUP5 ADD SWAP2 POP POP SWAP3 SWAP2 POP POP JUMP JUMPDEST PUSH1 0x0 PUSH2 0x1263 DUP3 PUSH2 0x149F JUMP JUMPDEST PUSH2 0x126D DUP2 DUP6 PUSH2 0x14D9 JUMP JUMPDEST SWAP4 POP PUSH2 0x127D DUP2 DUP6 PUSH1 0x20 DUP7 ADD PUSH2 0x154E JUMP JUMPDEST PUSH2 0x1286 DUP2 PUSH2 0x1727 JUMP JUMPDEST DUP5 ADD SWAP2 POP POP SWAP3 SWAP2 POP POP JUMP JUMPDEST PUSH1 0x0 PUSH2 0x129C DUP3 PUSH2 0x149F JUMP JUMPDEST PUSH2 0x12A6 DUP2 DUP6 PUSH2 0x14EA JUMP JUMPDEST SWAP4 POP PUSH2 0x12B6 DUP2 DUP6 PUSH1 0x20 DUP7 ADD PUSH2 0x154E JUMP JUMPDEST DUP1 DUP5 ADD SWAP2 POP POP SWAP3 SWAP2 POP POP JUMP JUMPDEST PUSH1 0x0 PUSH2 0x12CF PUSH1 0x11 DUP4 PUSH2 0x14D9 JUMP JUMPDEST SWAP2 POP PUSH2 0x12DA DUP3 PUSH2 0x1738 JUMP JUMPDEST PUSH1 0x20 DUP3 ADD SWAP1 POP SWAP2 SWAP1 POP JUMP JUMPDEST PUSH1 0x0 PUSH1 0x60 DUP4 ADD PUSH1 0x0 DUP4 ADD MLOAD DUP5 DUP3 SUB PUSH1 0x0 DUP7 ADD MSTORE PUSH2 0x1302 DUP3 DUP3 PUSH2 0x121F JUMP JUMPDEST SWAP2 POP POP PUSH1 0x20 DUP4 ADD MLOAD DUP5 DUP3 SUB PUSH1 0x20 DUP7 ADD MSTORE PUSH2 0x131C DUP3 DUP3 PUSH2 0x121F JUMP JUMPDEST SWAP2 POP POP PUSH1 0x40 DUP4 ADD MLOAD PUSH2 0x1331 PUSH1 0x40 DUP7 ADD DUP3 PUSH2 0x133C JUMP JUMPDEST POP DUP1 SWAP2 POP POP SWAP3 SWAP2 POP POP JUMP JUMPDEST PUSH2 0x1345 DUP2 PUSH2 0x1535 JUMP JUMPDEST DUP3 MSTORE POP POP JUMP JUMPDEST PUSH2 0x1354 DUP2 PUSH2 0x1535 JUMP JUMPDEST DUP3 MSTORE POP POP JUMP JUMPDEST PUSH1 0x0 PUSH2 0x1366 DUP3 DUP5 PUSH2 0x1291 JUMP JUMPDEST SWAP2 POP DUP2 SWAP1 POP SWAP3 SWAP2 POP POP JUMP JUMPDEST PUSH1 0x0 PUSH1 0x20 DUP3 ADD SWAP1 POP DUP2 DUP2 SUB PUSH1 0x0 DUP4 ADD MSTORE PUSH2 0x138B DUP2 DUP5 PUSH2 0x119B JUMP JUMPDEST SWAP1 POP SWAP3 SWAP2 POP POP JUMP JUMPDEST PUSH1 0x0 PUSH1 0x20 DUP3 ADD SWAP1 POP PUSH2 0x13A8 PUSH1 0x0 DUP4 ADD DUP5 PUSH2 0x1210 JUMP JUMPDEST SWAP3 SWAP2 POP POP JUMP JUMPDEST PUSH1 0x0 PUSH1 0x60 DUP3 ADD SWAP1 POP DUP2 DUP2 SUB PUSH1 0x0 DUP4 ADD MSTORE PUSH2 0x13C8 DUP2 DUP7 PUSH2 0x1258 JUMP JUMPDEST SWAP1 POP DUP2 DUP2 SUB PUSH1 0x20 DUP4 ADD MSTORE PUSH2 0x13DC DUP2 DUP6 PUSH2 0x1258 JUMP JUMPDEST SWAP1 POP PUSH2 0x13EB PUSH1 0x40 DUP4 ADD DUP5 PUSH2 0x134B JUMP JUMPDEST SWAP5 SWAP4 POP POP POP POP JUMP JUMPDEST PUSH1 0x0 PUSH1 0x20 DUP3 ADD SWAP1 POP DUP2 DUP2 SUB PUSH1 0x0 DUP4 ADD MSTORE PUSH2 0x140C DUP2 PUSH2 0x12C2 JUMP JUMPDEST SWAP1 POP SWAP2 SWAP1 POP JUMP JUMPDEST PUSH1 0x0 PUSH1 0x20 DUP3 ADD SWAP1 POP PUSH2 0x1428 PUSH1 0x0 DUP4 ADD DUP5 PUSH2 0x134B JUMP JUMPDEST SWAP3 SWAP2 POP POP JUMP JUMPDEST PUSH1 0x0 PUSH2 0x1438 PUSH2 0x1449 JUMP JUMPDEST SWAP1 POP PUSH2 0x1444 DUP3 DUP3 PUSH2 0x15DD JUMP JUMPDEST SWAP2 SWAP1 POP JUMP JUMPDEST PUSH1 0x0 PUSH1 0x40 MLOAD SWAP1 POP SWAP1 JUMP JUMPDEST PUSH1 0x0 PUSH8 0xFFFFFFFFFFFFFFFF DUP3 GT ISZERO PUSH2 0x146E JUMPI PUSH2 0x146D PUSH2 0x16E4 JUMP JUMPDEST JUMPDEST PUSH2 0x1477 DUP3 PUSH2 0x1727 JUMP JUMPDEST SWAP1 POP PUSH1 0x20 DUP2 ADD SWAP1 POP SWAP2 SWAP1 POP JUMP JUMPDEST PUSH1 0x0 DUP2 SWAP1 POP PUSH1 0x20 DUP3 ADD SWAP1 POP SWAP2 SWAP1 POP JUMP JUMPDEST PUSH1 0x0 DUP2 MLOAD SWAP1 POP SWAP2 SWAP1 POP JUMP JUMPDEST PUSH1 0x0 DUP2 MLOAD SWAP1 POP SWAP2 SWAP1 POP JUMP JUMPDEST PUSH1 0x0 PUSH1 0x20 DUP3 ADD SWAP1 POP SWAP2 SWAP1 POP JUMP JUMPDEST PUSH1 0x0 DUP3 DUP3 MSTORE PUSH1 0x20 DUP3 ADD SWAP1 POP SWAP3 SWAP2 POP POP JUMP JUMPDEST PUSH1 0x0 DUP3 DUP3 MSTORE PUSH1 0x20 DUP3 ADD SWAP1 POP SWAP3 SWAP2 POP POP JUMP JUMPDEST PUSH1 0x0 DUP3 DUP3 MSTORE PUSH1 0x20 DUP3 ADD SWAP1 POP SWAP3 SWAP2 POP POP JUMP JUMPDEST PUSH1 0x0 DUP2 SWAP1 POP SWAP3 SWAP2 POP POP JUMP JUMPDEST PUSH1 0x0 PUSH2 0x1500 DUP3 PUSH2 0x1535 JUMP JUMPDEST SWAP2 POP PUSH2 0x150B DUP4 PUSH2 0x1535 JUMP JUMPDEST SWAP3 POP DUP3 DUP3 LT ISZERO PUSH2 0x151E JUMPI PUSH2 0x151D PUSH2 0x1657 JUMP JUMPDEST JUMPDEST DUP3 DUP3 SUB SWAP1 POP SWAP3 SWAP2 POP POP JUMP JUMPDEST PUSH1 0x0 DUP2 ISZERO ISZERO SWAP1 POP SWAP2 SWAP1 POP JUMP JUMPDEST PUSH1 0x0 DUP2 SWAP1 POP SWAP2 SWAP1 POP JUMP JUMPDEST DUP3 DUP2 DUP4 CALLDATACOPY PUSH1 0x0 DUP4 DUP4 ADD MSTORE POP POP POP JUMP JUMPDEST PUSH1 0x0 JUMPDEST DUP4 DUP2 LT ISZERO PUSH2 0x156C JUMPI DUP1 DUP3 ADD MLOAD DUP2 DUP5 ADD MSTORE PUSH1 0x20 DUP2 ADD SWAP1 POP PUSH2 0x1551 JUMP JUMPDEST DUP4 DUP2 GT ISZERO PUSH2 0x157B JUMPI PUSH1 0x0 DUP5 DUP5 ADD MSTORE JUMPDEST POP POP POP POP JUMP JUMPDEST PUSH1 0x0 PUSH2 0x158C DUP3 PUSH2 0x1535 JUMP JUMPDEST SWAP2 POP PUSH1 0x0 DUP3 EQ ISZERO PUSH2 0x15A0 JUMPI PUSH2 0x159F PUSH2 0x1657 JUMP JUMPDEST JUMPDEST PUSH1 0x1 DUP3 SUB SWAP1 POP SWAP2 SWAP1 POP JUMP JUMPDEST PUSH1 0x0 PUSH1 0x2 DUP3 DIV SWAP1 POP PUSH1 0x1 DUP3 AND DUP1 PUSH2 0x15C3 JUMPI PUSH1 0x7F DUP3 AND SWAP2 POP JUMPDEST PUSH1 0x20 DUP3 LT DUP2 EQ ISZERO PUSH2 0x15D7 JUMPI PUSH2 0x15D6 PUSH2 0x1686 JUMP JUMPDEST JUMPDEST POP SWAP2 SWAP1 POP JUMP JUMPDEST PUSH2 0x15E6 DUP3 PUSH2 0x1727 JUMP JUMPDEST DUP2 ADD DUP2 DUP2 LT PUSH8 0xFFFFFFFFFFFFFFFF DUP3 GT OR ISZERO PUSH2 0x1605 JUMPI PUSH2 0x1604 PUSH2 0x16E4 JUMP JUMPDEST JUMPDEST DUP1 PUSH1 0x40 MSTORE POP POP POP JUMP JUMPDEST PUSH1 0x0 PUSH2 0x1619 DUP3 PUSH2 0x1535 JUMP JUMPDEST SWAP2 POP PUSH32 0xFFFFFFFFFFFFFFFFFFFFFFFFFFFFFFFFFFFFFFFFFFFFFFFFFFFFFFFFFFFFFFFF DUP3 EQ ISZERO PUSH2 0x164C JUMPI PUSH2 0x164B PUSH2 0x1657 JUMP JUMPDEST JUMPDEST PUSH1 0x1 DUP3 ADD SWAP1 POP SWAP2 SWAP1 POP JUMP JUMPDEST PUSH32 0x4E487B7100000000000000000000000000000000000000000000000000000000 PUSH1 0x0 MSTORE PUSH1 0x11 PUSH1 0x4 MSTORE PUSH1 0x24 PUSH1 0x0 REVERT JUMPDEST PUSH32 0x4E487B7100000000000000000000000000000000000000000000000000000000 PUSH1 0x0 MSTORE PUSH1 0x22 PUSH1 0x4 MSTORE PUSH1 0x24 PUSH1 0x0 REVERT JUMPDEST PUSH32 0x4E487B7100000000000000000000000000000000000000000000000000000000 PUSH1 0x0 MSTORE PUSH1 0x32 PUSH1 0x4 MSTORE PUSH1 0x24 PUSH1 0x0 REVERT JUMPDEST PUSH32 0x4E487B7100000000000000000000000000000000000000000000000000000000 PUSH1 0x0 MSTORE PUSH1 0x41 PUSH1 0x4 MSTORE PUSH1 0x24 PUSH1 0x0 REVERT JUMPDEST PUSH1 0x0 DUP1 REVERT JUMPDEST PUSH1 0x0 DUP1 REVERT JUMPDEST PUSH1 0x0 DUP1 REVERT JUMPDEST PUSH1 0x0 DUP1 REVERT JUMPDEST PUSH1 0x0 PUSH1 0x1F NOT PUSH1 0x1F DUP4 ADD AND SWAP1 POP SWAP2 SWAP1 POP JUMP JUMPDEST PUSH32 0x636F756E747279206E6F7420666F756E64000000000000000000000000000000 PUSH1 0x0 DUP3 ADD MSTORE POP JUMP JUMPDEST PUSH2 0x176A DUP2 PUSH2 0x1535 JUMP JUMPDEST DUP2 EQ PUSH2 0x1775 JUMPI PUSH1 0x0 DUP1 REVERT JUMPDEST POP JUMP INVALID LOG2 PUSH5 0x6970667358 0x22 SLT KECCAK256 0x4B SWAP14 0xC SWAP16 0xB4 SSTORE MSIZE SWAP6 SWAP8 EXTCODEHASH SWAP1 RETURNDATASIZE OR SWAP9 0x4A 0xE0 ISZERO LT PUSH14 0x6EFDBDF9009FEF6E70A3231F4E64 PUSH20 0x6F6C634300080700330000000000000000000000 "
				},
				"gasEstimates": {
					"creation": {
						"codeDepositCost": "1212400",
						"executionCost": "6275",
						"totalCost": "1218675"
					},
					"external": {
						"countries(uint256)": "infinite",
						"deleteCountry(string)": "infinite",
						"getCountries()": "infinite",
						"getCountries2()": "infinite",
						"getCountry(string)": "infinite",
						"getTotalCountries()": "2467",
						"insert(string,string,uint256)": "infinite",
						"totalCountries()": "2452",
						"updateLeader(string,string)": "infinite"
					},
					"internal": {
						"compareStrings(string memory,string memory)": "infinite"
					}
				},
				"methodIdentifiers": {
					"countries(uint256)": "08e9daa5",
					"deleteCountry(string)": "cae65058",
					"getCountries()": "beca8009",
					"getCountries2()": "a176c86c",
					"getCountry(string)": "848924cb",
					"getTotalCountries()": "acf75458",
					"insert(string,string,uint256)": "c1356d26",
					"totalCountries()": "62738129",
					"updateLeader(string,string)": "81ba02be"
				}
			},
			"storageLayout": {
				"storage": [
					{
						"astId": 11,
						"contract": "contracts/NewDrugs.sol:Drugs",
						"label": "owner",
						"offset": 0,
						"slot": "0",
						"type": "t_address"
					},
					{
						"astId": 33,
						"contract": "contracts/NewDrugs.sol:Drugs",
						"label": "countries",
						"offset": 0,
						"slot": "1",
						"type": "t_array(t_struct(country)29_storage)dyn_storage"
					},
					{
						"astId": 35,
						"contract": "contracts/NewDrugs.sol:Drugs",
						"label": "totalCountries",
						"offset": 0,
						"slot": "2",
						"type": "t_uint256"
					}
				],
				"types": {
					"t_address": {
						"encoding": "inplace",
						"label": "address",
						"numberOfBytes": "20"
					},
					"t_array(t_struct(country)29_storage)dyn_storage": {
						"base": "t_struct(country)29_storage",
						"encoding": "dynamic_array",
						"label": "struct Drugs.country[]",
						"numberOfBytes": "32"
					},
					"t_string_storage": {
						"encoding": "bytes",
						"label": "string",
						"numberOfBytes": "32"
					},
					"t_struct(country)29_storage": {
						"encoding": "inplace",
						"label": "struct Drugs.country",
						"members": [
							{
								"astId": 24,
								"contract": "contracts/NewDrugs.sol:Drugs",
								"label": "name",
								"offset": 0,
								"slot": "0",
								"type": "t_string_storage"
							},
							{
								"astId": 26,
								"contract": "contracts/NewDrugs.sol:Drugs",
								"label": "leader",
								"offset": 0,
								"slot": "1",
								"type": "t_string_storage"
							},
							{
								"astId": 28,
								"contract": "contracts/NewDrugs.sol:Drugs",
								"label": "population",
								"offset": 0,
								"slot": "2",
								"type": "t_uint256"
							}
						],
						"numberOfBytes": "96"
					},
					"t_uint256": {
						"encoding": "inplace",
						"label": "uint256",
						"numberOfBytes": "32"
					}
				}
			},
			"userdoc": {
				"kind": "user",
				"methods": {},
				"version": 1
			}
		}
	}
}