{
	"contracts/Utils.sol": {
		"Utils": {
			"abi": [
				{
					"inputs": [
						{
							"internalType": "enum Utils.UserRoles",
							"name": "_role",
							"type": "uint8"
						}
					],
					"name": "GetUsersByType",
					"outputs": [
						{
							"components": [
								{
									"internalType": "string",
									"name": "UserID",
									"type": "string"
								},
								{
									"internalType": "string",
									"name": "UserName",
									"type": "string"
								},
								{
									"internalType": "enum Utils.UserRoles",
									"name": "UserRole",
									"type": "uint8"
								},
								{
									"internalType": "enum Utils.Statuses",
									"name": "UserStatus",
									"type": "uint8"
								},
								{
									"internalType": "uint256",
									"name": "Latitude",
									"type": "uint256"
								},
								{
									"internalType": "uint256",
									"name": "Longitude",
									"type": "uint256"
								},
								{
									"internalType": "address",
									"name": "UserAddress",
									"type": "address"
								}
							],
							"internalType": "struct Utils.User[]",
							"name": "filteredUsers",
							"type": "tuple[]"
						}
					],
					"stateMutability": "view",
					"type": "function"
				},
				{
					"inputs": [],
					"name": "Owner",
					"outputs": [
						{
							"internalType": "address",
							"name": "",
							"type": "address"
						}
					],
					"stateMutability": "view",
					"type": "function"
				},
				{
					"inputs": [
						{
							"internalType": "uint256",
							"name": "",
							"type": "uint256"
						}
					],
					"name": "PatchTrannsactions",
					"outputs": [
						{
							"internalType": "string",
							"name": "DrugRegNo",
							"type": "string"
						},
						{
							"internalType": "string",
							"name": "PatchNo",
							"type": "string"
						},
						{
							"internalType": "uint256",
							"name": "LineNo",
							"type": "uint256"
						},
						{
							"internalType": "address",
							"name": "FromID",
							"type": "address"
						},
						{
							"internalType": "address",
							"name": "ToID",
							"type": "address"
						},
						{
							"internalType": "uint256",
							"name": "Amount",
							"type": "uint256"
						},
						{
							"internalType": "uint256",
							"name": "TransactionDate",
							"type": "uint256"
						}
					],
					"stateMutability": "view",
					"type": "function"
				},
				{
					"inputs": [
						{
							"internalType": "string",
							"name": "_regno",
							"type": "string"
						}
					],
					"name": "ReadDrug",
					"outputs": [
						{
							"components": [
								{
									"internalType": "string",
									"name": "DrugName",
									"type": "string"
								},
								{
									"internalType": "address",
									"name": "Manufacturer",
									"type": "address"
								},
								{
									"internalType": "enum Utils.Statuses",
									"name": "DrugStatus",
									"type": "uint8"
								}
							],
							"internalType": "struct Utils.Drug",
							"name": "",
							"type": "tuple"
						}
					],
					"stateMutability": "view",
					"type": "function"
				},
				{
					"inputs": [
						{
							"internalType": "string",
							"name": "_patchno",
							"type": "string"
						},
						{
							"internalType": "string",
							"name": "_drugno",
							"type": "string"
						},
						{
							"internalType": "address",
							"name": "_fromaddress",
							"type": "address"
						}
					],
					"name": "ReadParentAndSiblingsTransactions",
					"outputs": [
						{
							"components": [
								{
									"internalType": "string",
									"name": "DrugRegNo",
									"type": "string"
								},
								{
									"internalType": "string",
									"name": "PatchNo",
									"type": "string"
								},
								{
									"internalType": "uint256",
									"name": "LineNo",
									"type": "uint256"
								},
								{
									"internalType": "address",
									"name": "FromID",
									"type": "address"
								},
								{
									"internalType": "address",
									"name": "ToID",
									"type": "address"
								},
								{
									"internalType": "uint256",
									"name": "Amount",
									"type": "uint256"
								},
								{
									"internalType": "uint256",
									"name": "TransactionDate",
									"type": "uint256"
								}
							],
							"internalType": "struct Utils.PatchTransaction[]",
							"name": "UserTransaction",
							"type": "tuple[]"
						}
					],
					"stateMutability": "view",
					"type": "function"
				},
				{
					"inputs": [],
					"name": "ReadRoleByUser",
					"outputs": [
						{
							"internalType": "enum Utils.UserRoles",
							"name": "_userrole",
							"type": "uint8"
						}
					],
					"stateMutability": "view",
					"type": "function"
				},
				{
					"inputs": [
						{
							"internalType": "string",
							"name": "_drugno",
							"type": "string"
						}
					],
					"name": "ReadTransactionsByDrug",
					"outputs": [
						{
							"components": [
								{
									"internalType": "string",
									"name": "DrugRegNo",
									"type": "string"
								},
								{
									"internalType": "string",
									"name": "PatchNo",
									"type": "string"
								},
								{
									"internalType": "uint256",
									"name": "LineNo",
									"type": "uint256"
								},
								{
									"internalType": "address",
									"name": "FromID",
									"type": "address"
								},
								{
									"internalType": "address",
									"name": "ToID",
									"type": "address"
								},
								{
									"internalType": "uint256",
									"name": "Amount",
									"type": "uint256"
								},
								{
									"internalType": "uint256",
									"name": "TransactionDate",
									"type": "uint256"
								}
							],
							"internalType": "struct Utils.PatchTransaction[]",
							"name": "UserTransaction",
							"type": "tuple[]"
						}
					],
					"stateMutability": "view",
					"type": "function"
				},
				{
					"inputs": [
						{
							"internalType": "string",
							"name": "_patchno",
							"type": "string"
						},
						{
							"internalType": "string",
							"name": "_drugno",
							"type": "string"
						}
					],
					"name": "ReadTransactionsByPatchNo",
					"outputs": [
						{
							"components": [
								{
									"internalType": "string",
									"name": "DrugRegNo",
									"type": "string"
								},
								{
									"internalType": "string",
									"name": "PatchNo",
									"type": "string"
								},
								{
									"internalType": "uint256",
									"name": "LineNo",
									"type": "uint256"
								},
								{
									"internalType": "address",
									"name": "FromID",
									"type": "address"
								},
								{
									"internalType": "address",
									"name": "ToID",
									"type": "address"
								},
								{
									"internalType": "uint256",
									"name": "Amount",
									"type": "uint256"
								},
								{
									"internalType": "uint256",
									"name": "TransactionDate",
									"type": "uint256"
								}
							],
							"internalType": "struct Utils.PatchTransaction[]",
							"name": "UserTransaction",
							"type": "tuple[]"
						}
					],
					"stateMutability": "view",
					"type": "function"
				},
				{
					"inputs": [
						{
							"internalType": "address",
							"name": "_useraddress",
							"type": "address"
						}
					],
					"name": "ReadTransactionsByUser",
					"outputs": [
						{
							"components": [
								{
									"internalType": "string",
									"name": "DrugRegNo",
									"type": "string"
								},
								{
									"internalType": "string",
									"name": "PatchNo",
									"type": "string"
								},
								{
									"internalType": "uint256",
									"name": "LineNo",
									"type": "uint256"
								},
								{
									"internalType": "address",
									"name": "FromID",
									"type": "address"
								},
								{
									"internalType": "address",
									"name": "ToID",
									"type": "address"
								},
								{
									"internalType": "uint256",
									"name": "Amount",
									"type": "uint256"
								},
								{
									"internalType": "uint256",
									"name": "TransactionDate",
									"type": "uint256"
								}
							],
							"internalType": "struct Utils.PatchTransaction[]",
							"name": "UserTransaction",
							"type": "tuple[]"
						}
					],
					"stateMutability": "view",
					"type": "function"
				},
				{
					"inputs": [
						{
							"internalType": "address",
							"name": "_address",
							"type": "address"
						}
					],
					"name": "ReadUser",
					"outputs": [
						{
							"components": [
								{
									"internalType": "string",
									"name": "UserID",
									"type": "string"
								},
								{
									"internalType": "string",
									"name": "UserName",
									"type": "string"
								},
								{
									"internalType": "enum Utils.UserRoles",
									"name": "UserRole",
									"type": "uint8"
								},
								{
									"internalType": "enum Utils.Statuses",
									"name": "UserStatus",
									"type": "uint8"
								},
								{
									"internalType": "uint256",
									"name": "Latitude",
									"type": "uint256"
								},
								{
									"internalType": "uint256",
									"name": "Longitude",
									"type": "uint256"
								},
								{
									"internalType": "address",
									"name": "UserAddress",
									"type": "address"
								}
							],
							"internalType": "struct Utils.User",
							"name": "",
							"type": "tuple"
						}
					],
					"stateMutability": "view",
					"type": "function"
				},
				{
					"inputs": [
						{
							"internalType": "string",
							"name": "_patchno",
							"type": "string"
						},
						{
							"internalType": "string",
							"name": "_drugno",
							"type": "string"
						},
						{
							"internalType": "address",
							"name": "_fromaddress",
							"type": "address"
						}
					],
					"name": "ReturnRemainingAmount",
					"outputs": [
						{
							"internalType": "uint256",
							"name": "_remainamount",
							"type": "uint256"
						}
					],
					"stateMutability": "view",
					"type": "function"
				},
				{
					"inputs": [
						{
							"internalType": "string",
							"name": "s1",
							"type": "string"
						},
						{
							"internalType": "string",
							"name": "s2",
							"type": "string"
						}
					],
					"name": "compareStringsbyBytes",
					"outputs": [
						{
							"internalType": "bool",
							"name": "",
							"type": "bool"
						}
					],
					"stateMutability": "pure",
					"type": "function"
				}
			],
			"devdoc": {
				"kind": "dev",
				"methods": {},
				"version": 1
			},
			"evm": {
				"assembly": "    /* \"contracts/Utils.sol\":95:7718  contract Utils {... */\n  mstore(0x40, 0x80)\n  callvalue\n  dup1\n  iszero\n  tag_1\n  jumpi\n  0x00\n  dup1\n  revert\ntag_1:\n  pop\n  dataSize(sub_0)\n  dup1\n  dataOffset(sub_0)\n  0x00\n  codecopy\n  0x00\n  return\nstop\n\nsub_0: assembly {\n        /* \"contracts/Utils.sol\":95:7718  contract Utils {... */\n      mstore(0x40, 0x80)\n      callvalue\n      dup1\n      iszero\n      tag_1\n      jumpi\n      0x00\n      dup1\n      revert\n    tag_1:\n      pop\n      jumpi(tag_2, lt(calldatasize, 0x04))\n      shr(0xe0, calldataload(0x00))\n      dup1\n      0x798d2122\n      gt\n      tag_15\n      jumpi\n      dup1\n      0x798d2122\n      eq\n      tag_9\n      jumpi\n      dup1\n      0x99b5bbdd\n      eq\n      tag_10\n      jumpi\n      dup1\n      0xb4a99a4e\n      eq\n      tag_11\n      jumpi\n      dup1\n      0xcd1720d1\n      eq\n      tag_12\n      jumpi\n      dup1\n      0xcdf7e73d\n      eq\n      tag_13\n      jumpi\n      dup1\n      0xe9a734ff\n      eq\n      tag_14\n      jumpi\n      jump(tag_2)\n    tag_15:\n      dup1\n      0x0f9de977\n      eq\n      tag_3\n      jumpi\n      dup1\n      0x1567697c\n      eq\n      tag_4\n      jumpi\n      dup1\n      0x31a6db4d\n      eq\n      tag_5\n      jumpi\n      dup1\n      0x40d37caf\n      eq\n      tag_6\n      jumpi\n      dup1\n      0x4b2d14aa\n      eq\n      tag_7\n      jumpi\n      dup1\n      0x783a7895\n      eq\n      tag_8\n      jumpi\n    tag_2:\n      0x00\n      dup1\n      revert\n        /* \"contracts/Utils.sol\":1091:1747  function GetUsersByType(UserRoles _role)... */\n    tag_3:\n      tag_16\n      0x04\n      dup1\n      calldatasize\n      sub\n      dup2\n      add\n      swap1\n      tag_17\n      swap2\n      swap1\n      tag_18\n      jump\t// in\n    tag_17:\n      tag_19\n      jump\t// in\n    tag_16:\n      mload(0x40)\n      tag_20\n      swap2\n      swap1\n      tag_21\n      jump\t// in\n    tag_20:\n      mload(0x40)\n      dup1\n      swap2\n      sub\n      swap1\n      return\n        /* \"contracts/Utils.sol\":2905:2949  PatchTransaction[] public PatchTrannsactions */\n    tag_4:\n      tag_22\n      0x04\n      dup1\n      calldatasize\n      sub\n      dup2\n      add\n      swap1\n      tag_23\n      swap2\n      swap1\n      tag_24\n      jump\t// in\n    tag_23:\n      tag_25\n      jump\t// in\n    tag_22:\n      mload(0x40)\n      tag_26\n      swap8\n      swap7\n      swap6\n      swap5\n      swap4\n      swap3\n      swap2\n      swap1\n      tag_27\n      jump\t// in\n    tag_26:\n      mload(0x40)\n      dup1\n      swap2\n      sub\n      swap1\n      return\n        /* \"contracts/Utils.sol\":5696:6956  function ReadParentAndSiblingsTransactions(... */\n    tag_5:\n      tag_28\n      0x04\n      dup1\n      calldatasize\n      sub\n      dup2\n      add\n      swap1\n      tag_29\n      swap2\n      swap1\n      tag_30\n      jump\t// in\n    tag_29:\n      tag_31\n      jump\t// in\n    tag_28:\n      mload(0x40)\n      tag_32\n      swap2\n      swap1\n      tag_33\n      jump\t// in\n    tag_32:\n      mload(0x40)\n      dup1\n      swap2\n      sub\n      swap1\n      return\n        /* \"contracts/Utils.sol\":4658:5690  function ReadTransactionsByPatchNo(... */\n    tag_6:\n      tag_34\n      0x04\n      dup1\n      calldatasize\n      sub\n      dup2\n      add\n      swap1\n      tag_35\n      swap2\n      swap1\n      tag_36\n      jump\t// in\n    tag_35:\n      tag_37\n      jump\t// in\n    tag_34:\n      mload(0x40)\n      tag_38\n      swap2\n      swap1\n      tag_33\n      jump\t// in\n    tag_38:\n      mload(0x40)\n      dup1\n      swap2\n      sub\n      swap1\n      return\n        /* \"contracts/Utils.sol\":3781:4652  function ReadTransactionsByDrug(string memory _drugno)... */\n    tag_7:\n      tag_39\n      0x04\n      dup1\n      calldatasize\n      sub\n      dup2\n      add\n      swap1\n      tag_40\n      swap2\n      swap1\n      tag_41\n      jump\t// in\n    tag_40:\n      tag_42\n      jump\t// in\n    tag_39:\n      mload(0x40)\n      tag_43\n      swap2\n      swap1\n      tag_33\n      jump\t// in\n    tag_43:\n      mload(0x40)\n      dup1\n      swap2\n      sub\n      swap1\n      return\n        /* \"contracts/Utils.sol\":1753:2162  function ReadRoleByUser()... */\n    tag_8:\n      tag_44\n      tag_45\n      jump\t// in\n    tag_44:\n      mload(0x40)\n      tag_46\n      swap2\n      swap1\n      tag_47\n      jump\t// in\n    tag_46:\n      mload(0x40)\n      dup1\n      swap2\n      sub\n      swap1\n      return\n        /* \"contracts/Utils.sol\":6962:7716  function ReturnRemainingAmount(... */\n    tag_9:\n      tag_48\n      0x04\n      dup1\n      calldatasize\n      sub\n      dup2\n      add\n      swap1\n      tag_49\n      swap2\n      swap1\n      tag_30\n      jump\t// in\n    tag_49:\n      tag_50\n      jump\t// in\n    tag_48:\n      mload(0x40)\n      tag_51\n      swap2\n      swap1\n      tag_52\n      jump\t// in\n    tag_51:\n      mload(0x40)\n      dup1\n      swap2\n      sub\n      swap1\n      return\n        /* \"contracts/Utils.sol\":2956:3775  function ReadTransactionsByUser(address _useraddress)... */\n    tag_10:\n      tag_53\n      0x04\n      dup1\n      calldatasize\n      sub\n      dup2\n      add\n      swap1\n      tag_54\n      swap2\n      swap1\n      tag_55\n      jump\t// in\n    tag_54:\n      tag_56\n      jump\t// in\n    tag_53:\n      mload(0x40)\n      tag_57\n      swap2\n      swap1\n      tag_33\n      jump\t// in\n    tag_57:\n      mload(0x40)\n      dup1\n      swap2\n      sub\n      swap1\n      return\n        /* \"contracts/Utils.sol\":445:465  address public Owner */\n    tag_11:\n      tag_58\n      tag_59\n      jump\t// in\n    tag_58:\n      mload(0x40)\n      tag_60\n      swap2\n      swap1\n      tag_61\n      jump\t// in\n    tag_60:\n      mload(0x40)\n      dup1\n      swap2\n      sub\n      swap1\n      return\n        /* \"contracts/Utils.sol\":963:1085  function ReadUser(address _address) public view returns (User memory) {... */\n    tag_12:\n      tag_62\n      0x04\n      dup1\n      calldatasize\n      sub\n      dup2\n      add\n      swap1\n      tag_63\n      swap2\n      swap1\n      tag_55\n      jump\t// in\n    tag_63:\n      tag_64\n      jump\t// in\n    tag_62:\n      mload(0x40)\n      tag_65\n      swap2\n      swap1\n      tag_66\n      jump\t// in\n    tag_65:\n      mload(0x40)\n      dup1\n      swap2\n      sub\n      swap1\n      return\n        /* \"contracts/Utils.sol\":2544:2666  function ReadDrug(string memory _regno) public view returns (Drug memory) {... */\n    tag_13:\n      tag_67\n      0x04\n      dup1\n      calldatasize\n      sub\n      dup2\n      add\n      swap1\n      tag_68\n      swap2\n      swap1\n      tag_41\n      jump\t// in\n    tag_68:\n      tag_69\n      jump\t// in\n    tag_67:\n      mload(0x40)\n      tag_70\n      swap2\n      swap1\n      tag_71\n      jump\t// in\n    tag_70:\n      mload(0x40)\n      dup1\n      swap2\n      sub\n      swap1\n      return\n        /* \"contracts/Utils.sol\":203:427  function compareStringsbyBytes(string memory s1, string memory s2)... */\n    tag_14:\n      tag_72\n      0x04\n      dup1\n      calldatasize\n      sub\n      dup2\n      add\n      swap1\n      tag_73\n      swap2\n      swap1\n      tag_36\n      jump\t// in\n    tag_73:\n      tag_74\n      jump\t// in\n    tag_72:\n      mload(0x40)\n      tag_75\n      swap2\n      swap1\n      tag_76\n      jump\t// in\n    tag_75:\n      mload(0x40)\n      dup1\n      swap2\n      sub\n      swap1\n      return\n        /* \"contracts/Utils.sol\":1091:1747  function GetUsersByType(UserRoles _role)... */\n    tag_19:\n        /* \"contracts/Utils.sol\":1177:1204  User[] memory filteredUsers */\n      0x60\n        /* \"contracts/Utils.sol\":1220:1238  uint256 usersCount */\n      0x00\n        /* \"contracts/Utils.sol\":1241:1255  UsersAddresses */\n      0x02\n        /* \"contracts/Utils.sol\":1241:1262  UsersAddresses.length */\n      dup1\n      sload\n      swap1\n      pop\n        /* \"contracts/Utils.sol\":1220:1262  uint256 usersCount = UsersAddresses.length */\n      swap1\n      pop\n        /* \"contracts/Utils.sol\":1272:1295  User[] memory usersTemp */\n      0x00\n        /* \"contracts/Utils.sol\":1309:1319  usersCount */\n      dup2\n        /* \"contracts/Utils.sol\":1298:1320  new User[](usersCount) */\n      0xffffffffffffffff\n      dup2\n      gt\n      iszero\n      tag_78\n      jumpi\n      tag_79\n      tag_80\n      jump\t// in\n    tag_79:\n    tag_78:\n      mload(0x40)\n      swap1\n      dup1\n      dup3\n      mstore\n      dup1\n      0x20\n      mul\n      0x20\n      add\n      dup3\n      add\n      0x40\n      mstore\n      dup1\n      iszero\n      tag_81\n      jumpi\n      dup2\n      0x20\n      add\n    tag_82:\n      tag_83\n      tag_84\n      jump\t// in\n    tag_83:\n      dup2\n      mstore\n      0x20\n      add\n      swap1\n      0x01\n      swap1\n      sub\n      swap1\n      dup2\n      tag_82\n      jumpi\n      swap1\n      pop\n    tag_81:\n      pop\n        /* \"contracts/Utils.sol\":1272:1320  User[] memory usersTemp = new User[](usersCount) */\n      swap1\n      pop\n        /* \"contracts/Utils.sol\":1330:1343  uint256 count */\n      0x00\n        /* \"contracts/Utils.sol\":1358:1367  uint256 i */\n      dup1\n        /* \"contracts/Utils.sol\":1370:1371  0 */\n      0x00\n        /* \"contracts/Utils.sol\":1358:1371  uint256 i = 0 */\n      swap1\n      pop\n        /* \"contracts/Utils.sol\":1353:1596  for (uint256 i = 0; i < usersCount; i++) {... */\n    tag_85:\n        /* \"contracts/Utils.sol\":1377:1387  usersCount */\n      dup4\n        /* \"contracts/Utils.sol\":1373:1374  i */\n      dup2\n        /* \"contracts/Utils.sol\":1373:1387  i < usersCount */\n      lt\n        /* \"contracts/Utils.sol\":1353:1596  for (uint256 i = 0; i < usersCount; i++) {... */\n      iszero\n      tag_86\n      jumpi\n        /* \"contracts/Utils.sol\":1462:1467  _role */\n      dup6\n        /* \"contracts/Utils.sol\":1412:1467  UserAddressMapping[UsersAddresses[i]].UserRole == _role */\n      0x08\n      dup2\n      gt\n      iszero\n      tag_88\n      jumpi\n      tag_89\n      tag_90\n      jump\t// in\n    tag_89:\n    tag_88:\n        /* \"contracts/Utils.sol\":1412:1430  UserAddressMapping */\n      0x01\n        /* \"contracts/Utils.sol\":1412:1449  UserAddressMapping[UsersAddresses[i]] */\n      0x00\n        /* \"contracts/Utils.sol\":1431:1445  UsersAddresses */\n      0x02\n        /* \"contracts/Utils.sol\":1446:1447  i */\n      dup5\n        /* \"contracts/Utils.sol\":1431:1448  UsersAddresses[i] */\n      dup2\n      sload\n      dup2\n      lt\n      tag_91\n      jumpi\n      tag_92\n      tag_93\n      jump\t// in\n    tag_92:\n    tag_91:\n      swap1\n      0x00\n      mstore\n      keccak256(0x00, 0x20)\n      add\n      0x00\n      swap1\n      sload\n      swap1\n      0x0100\n      exp\n      swap1\n      div\n      0xffffffffffffffffffffffffffffffffffffffff\n      and\n        /* \"contracts/Utils.sol\":1412:1449  UserAddressMapping[UsersAddresses[i]] */\n      0xffffffffffffffffffffffffffffffffffffffff\n      and\n      0xffffffffffffffffffffffffffffffffffffffff\n      and\n      dup2\n      mstore\n      0x20\n      add\n      swap1\n      dup2\n      mstore\n      0x20\n      add\n      0x00\n      keccak256\n        /* \"contracts/Utils.sol\":1412:1458  UserAddressMapping[UsersAddresses[i]].UserRole */\n      0x02\n      add\n      0x00\n      swap1\n      sload\n      swap1\n      0x0100\n      exp\n      swap1\n      div\n      0xff\n      and\n        /* \"contracts/Utils.sol\":1412:1467  UserAddressMapping[UsersAddresses[i]].UserRole == _role */\n      0x08\n      dup2\n      gt\n      iszero\n      tag_95\n      jumpi\n      tag_96\n      tag_90\n      jump\t// in\n    tag_96:\n    tag_95:\n      eq\n        /* \"contracts/Utils.sol\":1408:1586  if (UserAddressMapping[UsersAddresses[i]].UserRole == _role) {... */\n      iszero\n      tag_97\n      jumpi\n        /* \"contracts/Utils.sol\":1506:1524  UserAddressMapping */\n      0x01\n        /* \"contracts/Utils.sol\":1506:1543  UserAddressMapping[UsersAddresses[i]] */\n      0x00\n        /* \"contracts/Utils.sol\":1525:1539  UsersAddresses */\n      0x02\n        /* \"contracts/Utils.sol\":1540:1541  i */\n      dup4\n        /* \"contracts/Utils.sol\":1525:1542  UsersAddresses[i] */\n      dup2\n      sload\n      dup2\n      lt\n      tag_98\n      jumpi\n      tag_99\n      tag_93\n      jump\t// in\n    tag_99:\n    tag_98:\n      swap1\n      0x00\n      mstore\n      keccak256(0x00, 0x20)\n      add\n      0x00\n      swap1\n      sload\n      swap1\n      0x0100\n      exp\n      swap1\n      div\n      0xffffffffffffffffffffffffffffffffffffffff\n      and\n        /* \"contracts/Utils.sol\":1506:1543  UserAddressMapping[UsersAddresses[i]] */\n      0xffffffffffffffffffffffffffffffffffffffff\n      and\n      0xffffffffffffffffffffffffffffffffffffffff\n      and\n      dup2\n      mstore\n      0x20\n      add\n      swap1\n      dup2\n      mstore\n      0x20\n      add\n      0x00\n      keccak256\n        /* \"contracts/Utils.sol\":1487:1543  usersTemp[count] = UserAddressMapping[UsersAddresses[i]] */\n      mload(0x40)\n      dup1\n      0xe0\n      add\n      0x40\n      mstore\n      swap1\n      dup2\n      0x00\n      dup3\n      add\n      dup1\n      sload\n      tag_101\n      swap1\n      tag_102\n      jump\t// in\n    tag_101:\n      dup1\n      0x1f\n      add\n      0x20\n      dup1\n      swap2\n      div\n      mul\n      0x20\n      add\n      mload(0x40)\n      swap1\n      dup2\n      add\n      0x40\n      mstore\n      dup1\n      swap3\n      swap2\n      swap1\n      dup2\n      dup2\n      mstore\n      0x20\n      add\n      dup3\n      dup1\n      sload\n      tag_103\n      swap1\n      tag_102\n      jump\t// in\n    tag_103:\n      dup1\n      iszero\n      tag_104\n      jumpi\n      dup1\n      0x1f\n      lt\n      tag_105\n      jumpi\n      0x0100\n      dup1\n      dup4\n      sload\n      div\n      mul\n      dup4\n      mstore\n      swap2\n      0x20\n      add\n      swap2\n      jump(tag_104)\n    tag_105:\n      dup3\n      add\n      swap2\n      swap1\n      0x00\n      mstore\n      keccak256(0x00, 0x20)\n      swap1\n    tag_106:\n      dup2\n      sload\n      dup2\n      mstore\n      swap1\n      0x01\n      add\n      swap1\n      0x20\n      add\n      dup1\n      dup4\n      gt\n      tag_106\n      jumpi\n      dup3\n      swap1\n      sub\n      0x1f\n      and\n      dup3\n      add\n      swap2\n    tag_104:\n      pop\n      pop\n      pop\n      pop\n      pop\n      dup2\n      mstore\n      0x20\n      add\n      0x01\n      dup3\n      add\n      dup1\n      sload\n      tag_107\n      swap1\n      tag_102\n      jump\t// in\n    tag_107:\n      dup1\n      0x1f\n      add\n      0x20\n      dup1\n      swap2\n      div\n      mul\n      0x20\n      add\n      mload(0x40)\n      swap1\n      dup2\n      add\n      0x40\n      mstore\n      dup1\n      swap3\n      swap2\n      swap1\n      dup2\n      dup2\n      mstore\n      0x20\n      add\n      dup3\n      dup1\n      sload\n      tag_108\n      swap1\n      tag_102\n      jump\t// in\n    tag_108:\n      dup1\n      iszero\n      tag_109\n      jumpi\n      dup1\n      0x1f\n      lt\n      tag_110\n      jumpi\n      0x0100\n      dup1\n      dup4\n      sload\n      div\n      mul\n      dup4\n      mstore\n      swap2\n      0x20\n      add\n      swap2\n      jump(tag_109)\n    tag_110:\n      dup3\n      add\n      swap2\n      swap1\n      0x00\n      mstore\n      keccak256(0x00, 0x20)\n      swap1\n    tag_111:\n      dup2\n      sload\n      dup2\n      mstore\n      swap1\n      0x01\n      add\n      swap1\n      0x20\n      add\n      dup1\n      dup4\n      gt\n      tag_111\n      jumpi\n      dup3\n      swap1\n      sub\n      0x1f\n      and\n      dup3\n      add\n      swap2\n    tag_109:\n      pop\n      pop\n      pop\n      pop\n      pop\n      dup2\n      mstore\n      0x20\n      add\n      0x02\n      dup3\n      add\n      0x00\n      swap1\n      sload\n      swap1\n      0x0100\n      exp\n      swap1\n      div\n      0xff\n      and\n      0x08\n      dup2\n      gt\n      iszero\n      tag_112\n      jumpi\n      tag_113\n      tag_90\n      jump\t// in\n    tag_113:\n    tag_112:\n      0x08\n      dup2\n      gt\n      iszero\n      tag_114\n      jumpi\n      tag_115\n      tag_90\n      jump\t// in\n    tag_115:\n    tag_114:\n      dup2\n      mstore\n      0x20\n      add\n      0x02\n      dup3\n      add\n      0x01\n      swap1\n      sload\n      swap1\n      0x0100\n      exp\n      swap1\n      div\n      0xff\n      and\n      0x02\n      dup2\n      gt\n      iszero\n      tag_116\n      jumpi\n      tag_117\n      tag_90\n      jump\t// in\n    tag_117:\n    tag_116:\n      0x02\n      dup2\n      gt\n      iszero\n      tag_118\n      jumpi\n      tag_119\n      tag_90\n      jump\t// in\n    tag_119:\n    tag_118:\n      dup2\n      mstore\n      0x20\n      add\n      0x03\n      dup3\n      add\n      sload\n      dup2\n      mstore\n      0x20\n      add\n      0x04\n      dup3\n      add\n      sload\n      dup2\n      mstore\n      0x20\n      add\n      0x05\n      dup3\n      add\n      0x00\n      swap1\n      sload\n      swap1\n      0x0100\n      exp\n      swap1\n      div\n      0xffffffffffffffffffffffffffffffffffffffff\n      and\n      0xffffffffffffffffffffffffffffffffffffffff\n      and\n      0xffffffffffffffffffffffffffffffffffffffff\n      and\n      dup2\n      mstore\n      pop\n      pop\n        /* \"contracts/Utils.sol\":1487:1496  usersTemp */\n      dup4\n        /* \"contracts/Utils.sol\":1497:1502  count */\n      dup4\n        /* \"contracts/Utils.sol\":1487:1503  usersTemp[count] */\n      dup2\n      mload\n      dup2\n      lt\n      tag_120\n      jumpi\n      tag_121\n      tag_93\n      jump\t// in\n    tag_121:\n    tag_120:\n      0x20\n      mul\n      0x20\n      add\n      add\n        /* \"contracts/Utils.sol\":1487:1543  usersTemp[count] = UserAddressMapping[UsersAddresses[i]] */\n      dup2\n      swap1\n      mstore\n      pop\n        /* \"contracts/Utils.sol\":1570:1571  1 */\n      0x01\n        /* \"contracts/Utils.sol\":1561:1571  count += 1 */\n      dup3\n      tag_122\n      swap2\n      swap1\n      tag_123\n      jump\t// in\n    tag_122:\n      swap2\n      pop\n        /* \"contracts/Utils.sol\":1408:1586  if (UserAddressMapping[UsersAddresses[i]].UserRole == _role) {... */\n    tag_97:\n        /* \"contracts/Utils.sol\":1389:1392  i++ */\n      dup1\n      dup1\n      tag_124\n      swap1\n      tag_125\n      jump\t// in\n    tag_124:\n      swap2\n      pop\n      pop\n        /* \"contracts/Utils.sol\":1353:1596  for (uint256 i = 0; i < usersCount; i++) {... */\n      jump(tag_85)\n    tag_86:\n      pop\n        /* \"contracts/Utils.sol\":1633:1638  count */\n      dup1\n        /* \"contracts/Utils.sol\":1622:1639  new User[](count) */\n      0xffffffffffffffff\n      dup2\n      gt\n      iszero\n      tag_126\n      jumpi\n      tag_127\n      tag_80\n      jump\t// in\n    tag_127:\n    tag_126:\n      mload(0x40)\n      swap1\n      dup1\n      dup3\n      mstore\n      dup1\n      0x20\n      mul\n      0x20\n      add\n      dup3\n      add\n      0x40\n      mstore\n      dup1\n      iszero\n      tag_128\n      jumpi\n      dup2\n      0x20\n      add\n    tag_129:\n      tag_130\n      tag_84\n      jump\t// in\n    tag_130:\n      dup2\n      mstore\n      0x20\n      add\n      swap1\n      0x01\n      swap1\n      sub\n      swap1\n      dup2\n      tag_129\n      jumpi\n      swap1\n      pop\n    tag_128:\n      pop\n        /* \"contracts/Utils.sol\":1606:1639  filteredUsers = new User[](count) */\n      swap4\n      pop\n        /* \"contracts/Utils.sol\":1654:1663  uint256 i */\n      0x00\n        /* \"contracts/Utils.sol\":1649:1741  for (uint256 i = 0; i < count; i++) {... */\n    tag_131:\n        /* \"contracts/Utils.sol\":1673:1678  count */\n      dup2\n        /* \"contracts/Utils.sol\":1669:1670  i */\n      dup2\n        /* \"contracts/Utils.sol\":1669:1678  i < count */\n      lt\n        /* \"contracts/Utils.sol\":1649:1741  for (uint256 i = 0; i < count; i++) {... */\n      iszero\n      tag_132\n      jumpi\n        /* \"contracts/Utils.sol\":1718:1727  usersTemp */\n      dup3\n        /* \"contracts/Utils.sol\":1728:1729  i */\n      dup2\n        /* \"contracts/Utils.sol\":1718:1730  usersTemp[i] */\n      dup2\n      mload\n      dup2\n      lt\n      tag_134\n      jumpi\n      tag_135\n      tag_93\n      jump\t// in\n    tag_135:\n    tag_134:\n      0x20\n      mul\n      0x20\n      add\n      add\n      mload\n        /* \"contracts/Utils.sol\":1699:1712  filteredUsers */\n      dup6\n        /* \"contracts/Utils.sol\":1713:1714  i */\n      dup3\n        /* \"contracts/Utils.sol\":1699:1715  filteredUsers[i] */\n      dup2\n      mload\n      dup2\n      lt\n      tag_136\n      jumpi\n      tag_137\n      tag_93\n      jump\t// in\n    tag_137:\n    tag_136:\n      0x20\n      mul\n      0x20\n      add\n      add\n        /* \"contracts/Utils.sol\":1699:1730  filteredUsers[i] = usersTemp[i] */\n      dup2\n      swap1\n      mstore\n      pop\n        /* \"contracts/Utils.sol\":1680:1683  i++ */\n      dup1\n      dup1\n      tag_138\n      swap1\n      tag_125\n      jump\t// in\n    tag_138:\n      swap2\n      pop\n      pop\n        /* \"contracts/Utils.sol\":1649:1741  for (uint256 i = 0; i < count; i++) {... */\n      jump(tag_131)\n    tag_132:\n      pop\n        /* \"contracts/Utils.sol\":1210:1747  {... */\n      pop\n      pop\n      pop\n        /* \"contracts/Utils.sol\":1091:1747  function GetUsersByType(UserRoles _role)... */\n      swap2\n      swap1\n      pop\n      jump\t// out\n        /* \"contracts/Utils.sol\":2905:2949  PatchTransaction[] public PatchTrannsactions */\n    tag_25:\n      0x05\n      dup2\n      dup2\n      sload\n      dup2\n      lt\n      tag_139\n      jumpi\n      0x00\n      dup1\n      revert\n    tag_139:\n      swap1\n      0x00\n      mstore\n      keccak256(0x00, 0x20)\n      swap1\n      0x07\n      mul\n      add\n      0x00\n      swap2\n      pop\n      swap1\n      pop\n      dup1\n      0x00\n      add\n      dup1\n      sload\n      tag_141\n      swap1\n      tag_102\n      jump\t// in\n    tag_141:\n      dup1\n      0x1f\n      add\n      0x20\n      dup1\n      swap2\n      div\n      mul\n      0x20\n      add\n      mload(0x40)\n      swap1\n      dup2\n      add\n      0x40\n      mstore\n      dup1\n      swap3\n      swap2\n      swap1\n      dup2\n      dup2\n      mstore\n      0x20\n      add\n      dup3\n      dup1\n      sload\n      tag_142\n      swap1\n      tag_102\n      jump\t// in\n    tag_142:\n      dup1\n      iszero\n      tag_143\n      jumpi\n      dup1\n      0x1f\n      lt\n      tag_144\n      jumpi\n      0x0100\n      dup1\n      dup4\n      sload\n      div\n      mul\n      dup4\n      mstore\n      swap2\n      0x20\n      add\n      swap2\n      jump(tag_143)\n    tag_144:\n      dup3\n      add\n      swap2\n      swap1\n      0x00\n      mstore\n      keccak256(0x00, 0x20)\n      swap1\n    tag_145:\n      dup2\n      sload\n      dup2\n      mstore\n      swap1\n      0x01\n      add\n      swap1\n      0x20\n      add\n      dup1\n      dup4\n      gt\n      tag_145\n      jumpi\n      dup3\n      swap1\n      sub\n      0x1f\n      and\n      dup3\n      add\n      swap2\n    tag_143:\n      pop\n      pop\n      pop\n      pop\n      pop\n      swap1\n      dup1\n      0x01\n      add\n      dup1\n      sload\n      tag_146\n      swap1\n      tag_102\n      jump\t// in\n    tag_146:\n      dup1\n      0x1f\n      add\n      0x20\n      dup1\n      swap2\n      div\n      mul\n      0x20\n      add\n      mload(0x40)\n      swap1\n      dup2\n      add\n      0x40\n      mstore\n      dup1\n      swap3\n      swap2\n      swap1\n      dup2\n      dup2\n      mstore\n      0x20\n      add\n      dup3\n      dup1\n      sload\n      tag_147\n      swap1\n      tag_102\n      jump\t// in\n    tag_147:\n      dup1\n      iszero\n      tag_148\n      jumpi\n      dup1\n      0x1f\n      lt\n      tag_149\n      jumpi\n      0x0100\n      dup1\n      dup4\n      sload\n      div\n      mul\n      dup4\n      mstore\n      swap2\n      0x20\n      add\n      swap2\n      jump(tag_148)\n    tag_149:\n      dup3\n      add\n      swap2\n      swap1\n      0x00\n      mstore\n      keccak256(0x00, 0x20)\n      swap1\n    tag_150:\n      dup2\n      sload\n      dup2\n      mstore\n      swap1\n      0x01\n      add\n      swap1\n      0x20\n      add\n      dup1\n      dup4\n      gt\n      tag_150\n      jumpi\n      dup3\n      swap1\n      sub\n      0x1f\n      and\n      dup3\n      add\n      swap2\n    tag_148:\n      pop\n      pop\n      pop\n      pop\n      pop\n      swap1\n      dup1\n      0x02\n      add\n      sload\n      swap1\n      dup1\n      0x03\n      add\n      0x00\n      swap1\n      sload\n      swap1\n      0x0100\n      exp\n      swap1\n      div\n      0xffffffffffffffffffffffffffffffffffffffff\n      and\n      swap1\n      dup1\n      0x04\n      add\n      0x00\n      swap1\n      sload\n      swap1\n      0x0100\n      exp\n      swap1\n      div\n      0xffffffffffffffffffffffffffffffffffffffff\n      and\n      swap1\n      dup1\n      0x05\n      add\n      sload\n      swap1\n      dup1\n      0x06\n      add\n      sload\n      swap1\n      pop\n      dup8\n      jump\t// out\n        /* \"contracts/Utils.sol\":5696:6956  function ReadParentAndSiblingsTransactions(... */\n    tag_31:\n        /* \"contracts/Utils.sol\":5859:5900  PatchTransaction[] memory UserTransaction */\n      0x60\n        /* \"contracts/Utils.sol\":5912:5931  uint256 MatchedRows */\n      0x00\n        /* \"contracts/Utils.sol\":5941:5975  PatchTransaction[] memory TempTran */\n      dup1\n        /* \"contracts/Utils.sol\":6014:6032  PatchTrannsactions */\n      0x05\n        /* \"contracts/Utils.sol\":6014:6039  PatchTrannsactions.length */\n      dup1\n      sload\n      swap1\n      pop\n        /* \"contracts/Utils.sol\":5978:6049  new PatchTransaction[](... */\n      0xffffffffffffffff\n      dup2\n      gt\n      iszero\n      tag_152\n      jumpi\n      tag_153\n      tag_80\n      jump\t// in\n    tag_153:\n    tag_152:\n      mload(0x40)\n      swap1\n      dup1\n      dup3\n      mstore\n      dup1\n      0x20\n      mul\n      0x20\n      add\n      dup3\n      add\n      0x40\n      mstore\n      dup1\n      iszero\n      tag_154\n      jumpi\n      dup2\n      0x20\n      add\n    tag_155:\n      tag_156\n      tag_157\n      jump\t// in\n    tag_156:\n      dup2\n      mstore\n      0x20\n      add\n      swap1\n      0x01\n      swap1\n      sub\n      swap1\n      dup2\n      tag_155\n      jumpi\n      swap1\n      pop\n    tag_154:\n      pop\n        /* \"contracts/Utils.sol\":5941:6049  PatchTransaction[] memory TempTran = new PatchTransaction[](... */\n      swap1\n      pop\n        /* \"contracts/Utils.sol\":6064:6073  uint256 i */\n      0x00\n        /* \"contracts/Utils.sol\":6059:6726  for (uint256 i = 0; i < PatchTrannsactions.length; i++) {... */\n    tag_158:\n        /* \"contracts/Utils.sol\":6083:6101  PatchTrannsactions */\n      0x05\n        /* \"contracts/Utils.sol\":6083:6108  PatchTrannsactions.length */\n      dup1\n      sload\n      swap1\n      pop\n        /* \"contracts/Utils.sol\":6079:6080  i */\n      dup2\n        /* \"contracts/Utils.sol\":6079:6108  i < PatchTrannsactions.length */\n      lt\n        /* \"contracts/Utils.sol\":6059:6726  for (uint256 i = 0; i < PatchTrannsactions.length; i++) {... */\n      iszero\n      tag_159\n      jumpi\n        /* \"contracts/Utils.sol\":6199:6319  compareStringsbyBytes(... */\n      tag_161\n        /* \"contracts/Utils.sol\":6242:6260  PatchTrannsactions */\n      0x05\n        /* \"contracts/Utils.sol\":6261:6262  i */\n      dup3\n        /* \"contracts/Utils.sol\":6242:6263  PatchTrannsactions[i] */\n      dup2\n      sload\n      dup2\n      lt\n      tag_162\n      jumpi\n      tag_163\n      tag_93\n      jump\t// in\n    tag_163:\n    tag_162:\n      swap1\n      0x00\n      mstore\n      keccak256(0x00, 0x20)\n      swap1\n      0x07\n      mul\n      add\n        /* \"contracts/Utils.sol\":6242:6271  PatchTrannsactions[i].PatchNo */\n      0x01\n      add\n        /* \"contracts/Utils.sol\":6199:6319  compareStringsbyBytes(... */\n      dup1\n      sload\n      tag_165\n      swap1\n      tag_102\n      jump\t// in\n    tag_165:\n      dup1\n      0x1f\n      add\n      0x20\n      dup1\n      swap2\n      div\n      mul\n      0x20\n      add\n      mload(0x40)\n      swap1\n      dup2\n      add\n      0x40\n      mstore\n      dup1\n      swap3\n      swap2\n      swap1\n      dup2\n      dup2\n      mstore\n      0x20\n      add\n      dup3\n      dup1\n      sload\n      tag_166\n      swap1\n      tag_102\n      jump\t// in\n    tag_166:\n      dup1\n      iszero\n      tag_167\n      jumpi\n      dup1\n      0x1f\n      lt\n      tag_168\n      jumpi\n      0x0100\n      dup1\n      dup4\n      sload\n      div\n      mul\n      dup4\n      mstore\n      swap2\n      0x20\n      add\n      swap2\n      jump(tag_167)\n    tag_168:\n      dup3\n      add\n      swap2\n      swap1\n      0x00\n      mstore\n      keccak256(0x00, 0x20)\n      swap1\n    tag_169:\n      dup2\n      sload\n      dup2\n      mstore\n      swap1\n      0x01\n      add\n      swap1\n      0x20\n      add\n      dup1\n      dup4\n      gt\n      tag_169\n      jumpi\n      dup3\n      swap1\n      sub\n      0x1f\n      and\n      dup3\n      add\n      swap2\n    tag_167:\n      pop\n      pop\n      pop\n      pop\n      pop\n        /* \"contracts/Utils.sol\":6293:6301  _patchno */\n      dup9\n        /* \"contracts/Utils.sol\":6199:6220  compareStringsbyBytes */\n      tag_74\n        /* \"contracts/Utils.sol\":6199:6319  compareStringsbyBytes(... */\n      jump\t// in\n    tag_161:\n        /* \"contracts/Utils.sol\":6199:6460  compareStringsbyBytes(... */\n      dup1\n      iszero\n      tag_170\n      jumpi\n      pop\n        /* \"contracts/Utils.sol\":6339:6460  compareStringsbyBytes(... */\n      tag_171\n        /* \"contracts/Utils.sol\":6382:6400  PatchTrannsactions */\n      0x05\n        /* \"contracts/Utils.sol\":6401:6402  i */\n      dup3\n        /* \"contracts/Utils.sol\":6382:6403  PatchTrannsactions[i] */\n      dup2\n      sload\n      dup2\n      lt\n      tag_172\n      jumpi\n      tag_173\n      tag_93\n      jump\t// in\n    tag_173:\n    tag_172:\n      swap1\n      0x00\n      mstore\n      keccak256(0x00, 0x20)\n      swap1\n      0x07\n      mul\n      add\n        /* \"contracts/Utils.sol\":6382:6413  PatchTrannsactions[i].DrugRegNo */\n      0x00\n      add\n        /* \"contracts/Utils.sol\":6339:6460  compareStringsbyBytes(... */\n      dup1\n      sload\n      tag_175\n      swap1\n      tag_102\n      jump\t// in\n    tag_175:\n      dup1\n      0x1f\n      add\n      0x20\n      dup1\n      swap2\n      div\n      mul\n      0x20\n      add\n      mload(0x40)\n      swap1\n      dup2\n      add\n      0x40\n      mstore\n      dup1\n      swap3\n      swap2\n      swap1\n      dup2\n      dup2\n      mstore\n      0x20\n      add\n      dup3\n      dup1\n      sload\n      tag_176\n      swap1\n      tag_102\n      jump\t// in\n    tag_176:\n      dup1\n      iszero\n      tag_177\n      jumpi\n      dup1\n      0x1f\n      lt\n      tag_178\n      jumpi\n      0x0100\n      dup1\n      dup4\n      sload\n      div\n      mul\n      dup4\n      mstore\n      swap2\n      0x20\n      add\n      swap2\n      jump(tag_177)\n    tag_178:\n      dup3\n      add\n      swap2\n      swap1\n      0x00\n      mstore\n      keccak256(0x00, 0x20)\n      swap1\n    tag_179:\n      dup2\n      sload\n      dup2\n      mstore\n      swap1\n      0x01\n      add\n      swap1\n      0x20\n      add\n      dup1\n      dup4\n      gt\n      tag_179\n      jumpi\n      dup3\n      swap1\n      sub\n      0x1f\n      and\n      dup3\n      add\n      swap2\n    tag_177:\n      pop\n      pop\n      pop\n      pop\n      pop\n        /* \"contracts/Utils.sol\":6435:6442  _drugno */\n      dup8\n        /* \"contracts/Utils.sol\":6339:6360  compareStringsbyBytes */\n      tag_74\n        /* \"contracts/Utils.sol\":6339:6460  compareStringsbyBytes(... */\n      jump\t// in\n    tag_171:\n        /* \"contracts/Utils.sol\":6199:6460  compareStringsbyBytes(... */\n    tag_170:\n        /* \"contracts/Utils.sol\":6199:6592  compareStringsbyBytes(... */\n      dup1\n      iszero\n      tag_180\n      jumpi\n      pop\n        /* \"contracts/Utils.sol\":6511:6523  _fromaddress */\n      dup5\n        /* \"contracts/Utils.sol\":6481:6523  PatchTrannsactions[i].ToID == _fromaddress */\n      0xffffffffffffffffffffffffffffffffffffffff\n      and\n        /* \"contracts/Utils.sol\":6481:6499  PatchTrannsactions */\n      0x05\n        /* \"contracts/Utils.sol\":6500:6501  i */\n      dup3\n        /* \"contracts/Utils.sol\":6481:6502  PatchTrannsactions[i] */\n      dup2\n      sload\n      dup2\n      lt\n      tag_181\n      jumpi\n      tag_182\n      tag_93\n      jump\t// in\n    tag_182:\n    tag_181:\n      swap1\n      0x00\n      mstore\n      keccak256(0x00, 0x20)\n      swap1\n      0x07\n      mul\n      add\n        /* \"contracts/Utils.sol\":6481:6507  PatchTrannsactions[i].ToID */\n      0x04\n      add\n      0x00\n      swap1\n      sload\n      swap1\n      0x0100\n      exp\n      swap1\n      div\n      0xffffffffffffffffffffffffffffffffffffffff\n      and\n        /* \"contracts/Utils.sol\":6481:6523  PatchTrannsactions[i].ToID == _fromaddress */\n      0xffffffffffffffffffffffffffffffffffffffff\n      and\n      eq\n        /* \"contracts/Utils.sol\":6481:6591  PatchTrannsactions[i].ToID == _fromaddress ||... */\n      dup1\n      tag_184\n      jumpi\n      pop\n        /* \"contracts/Utils.sol\":6579:6591  _fromaddress */\n      dup5\n        /* \"contracts/Utils.sol\":6547:6591  PatchTrannsactions[i].FromID == _fromaddress */\n      0xffffffffffffffffffffffffffffffffffffffff\n      and\n        /* \"contracts/Utils.sol\":6547:6565  PatchTrannsactions */\n      0x05\n        /* \"contracts/Utils.sol\":6566:6567  i */\n      dup3\n        /* \"contracts/Utils.sol\":6547:6568  PatchTrannsactions[i] */\n      dup2\n      sload\n      dup2\n      lt\n      tag_185\n      jumpi\n      tag_186\n      tag_93\n      jump\t// in\n    tag_186:\n    tag_185:\n      swap1\n      0x00\n      mstore\n      keccak256(0x00, 0x20)\n      swap1\n      0x07\n      mul\n      add\n        /* \"contracts/Utils.sol\":6547:6575  PatchTrannsactions[i].FromID */\n      0x03\n      add\n      0x00\n      swap1\n      sload\n      swap1\n      0x0100\n      exp\n      swap1\n      div\n      0xffffffffffffffffffffffffffffffffffffffff\n      and\n        /* \"contracts/Utils.sol\":6547:6591  PatchTrannsactions[i].FromID == _fromaddress */\n      0xffffffffffffffffffffffffffffffffffffffff\n      and\n      eq\n        /* \"contracts/Utils.sol\":6481:6591  PatchTrannsactions[i].ToID == _fromaddress ||... */\n    tag_184:\n        /* \"contracts/Utils.sol\":6199:6592  compareStringsbyBytes(... */\n    tag_180:\n        /* \"contracts/Utils.sol\":6178:6716  if (... */\n      iszero\n      tag_188\n      jumpi\n        /* \"contracts/Utils.sol\":6649:6667  PatchTrannsactions */\n      0x05\n        /* \"contracts/Utils.sol\":6668:6669  i */\n      dup2\n        /* \"contracts/Utils.sol\":6649:6670  PatchTrannsactions[i] */\n      dup2\n      sload\n      dup2\n      lt\n      tag_189\n      jumpi\n      tag_190\n      tag_93\n      jump\t// in\n    tag_190:\n    tag_189:\n      swap1\n      0x00\n      mstore\n      keccak256(0x00, 0x20)\n      swap1\n      0x07\n      mul\n      add\n        /* \"contracts/Utils.sol\":6625:6670  TempTran[MatchedRows] = PatchTrannsactions[i] */\n      mload(0x40)\n      dup1\n      0xe0\n      add\n      0x40\n      mstore\n      swap1\n      dup2\n      0x00\n      dup3\n      add\n      dup1\n      sload\n      tag_192\n      swap1\n      tag_102\n      jump\t// in\n    tag_192:\n      dup1\n      0x1f\n      add\n      0x20\n      dup1\n      swap2\n      div\n      mul\n      0x20\n      add\n      mload(0x40)\n      swap1\n      dup2\n      add\n      0x40\n      mstore\n      dup1\n      swap3\n      swap2\n      swap1\n      dup2\n      dup2\n      mstore\n      0x20\n      add\n      dup3\n      dup1\n      sload\n      tag_193\n      swap1\n      tag_102\n      jump\t// in\n    tag_193:\n      dup1\n      iszero\n      tag_194\n      jumpi\n      dup1\n      0x1f\n      lt\n      tag_195\n      jumpi\n      0x0100\n      dup1\n      dup4\n      sload\n      div\n      mul\n      dup4\n      mstore\n      swap2\n      0x20\n      add\n      swap2\n      jump(tag_194)\n    tag_195:\n      dup3\n      add\n      swap2\n      swap1\n      0x00\n      mstore\n      keccak256(0x00, 0x20)\n      swap1\n    tag_196:\n      dup2\n      sload\n      dup2\n      mstore\n      swap1\n      0x01\n      add\n      swap1\n      0x20\n      add\n      dup1\n      dup4\n      gt\n      tag_196\n      jumpi\n      dup3\n      swap1\n      sub\n      0x1f\n      and\n      dup3\n      add\n      swap2\n    tag_194:\n      pop\n      pop\n      pop\n      pop\n      pop\n      dup2\n      mstore\n      0x20\n      add\n      0x01\n      dup3\n      add\n      dup1\n      sload\n      tag_197\n      swap1\n      tag_102\n      jump\t// in\n    tag_197:\n      dup1\n      0x1f\n      add\n      0x20\n      dup1\n      swap2\n      div\n      mul\n      0x20\n      add\n      mload(0x40)\n      swap1\n      dup2\n      add\n      0x40\n      mstore\n      dup1\n      swap3\n      swap2\n      swap1\n      dup2\n      dup2\n      mstore\n      0x20\n      add\n      dup3\n      dup1\n      sload\n      tag_198\n      swap1\n      tag_102\n      jump\t// in\n    tag_198:\n      dup1\n      iszero\n      tag_199\n      jumpi\n      dup1\n      0x1f\n      lt\n      tag_200\n      jumpi\n      0x0100\n      dup1\n      dup4\n      sload\n      div\n      mul\n      dup4\n      mstore\n      swap2\n      0x20\n      add\n      swap2\n      jump(tag_199)\n    tag_200:\n      dup3\n      add\n      swap2\n      swap1\n      0x00\n      mstore\n      keccak256(0x00, 0x20)\n      swap1\n    tag_201:\n      dup2\n      sload\n      dup2\n      mstore\n      swap1\n      0x01\n      add\n      swap1\n      0x20\n      add\n      dup1\n      dup4\n      gt\n      tag_201\n      jumpi\n      dup3\n      swap1\n      sub\n      0x1f\n      and\n      dup3\n      add\n      swap2\n    tag_199:\n      pop\n      pop\n      pop\n      pop\n      pop\n      dup2\n      mstore\n      0x20\n      add\n      0x02\n      dup3\n      add\n      sload\n      dup2\n      mstore\n      0x20\n      add\n      0x03\n      dup3\n      add\n      0x00\n      swap1\n      sload\n      swap1\n      0x0100\n      exp\n      swap1\n      div\n      0xffffffffffffffffffffffffffffffffffffffff\n      and\n      0xffffffffffffffffffffffffffffffffffffffff\n      and\n      0xffffffffffffffffffffffffffffffffffffffff\n      and\n      dup2\n      mstore\n      0x20\n      add\n      0x04\n      dup3\n      add\n      0x00\n      swap1\n      sload\n      swap1\n      0x0100\n      exp\n      swap1\n      div\n      0xffffffffffffffffffffffffffffffffffffffff\n      and\n      0xffffffffffffffffffffffffffffffffffffffff\n      and\n      0xffffffffffffffffffffffffffffffffffffffff\n      and\n      dup2\n      mstore\n      0x20\n      add\n      0x05\n      dup3\n      add\n      sload\n      dup2\n      mstore\n      0x20\n      add\n      0x06\n      dup3\n      add\n      sload\n      dup2\n      mstore\n      pop\n      pop\n        /* \"contracts/Utils.sol\":6625:6633  TempTran */\n      dup3\n        /* \"contracts/Utils.sol\":6634:6645  MatchedRows */\n      dup5\n        /* \"contracts/Utils.sol\":6625:6646  TempTran[MatchedRows] */\n      dup2\n      mload\n      dup2\n      lt\n      tag_202\n      jumpi\n      tag_203\n      tag_93\n      jump\t// in\n    tag_203:\n    tag_202:\n      0x20\n      mul\n      0x20\n      add\n      add\n        /* \"contracts/Utils.sol\":6625:6670  TempTran[MatchedRows] = PatchTrannsactions[i] */\n      dup2\n      swap1\n      mstore\n      pop\n        /* \"contracts/Utils.sol\":6688:6701  MatchedRows++ */\n      dup3\n      dup1\n      tag_204\n      swap1\n      tag_125\n      jump\t// in\n    tag_204:\n      swap4\n      pop\n      pop\n        /* \"contracts/Utils.sol\":6178:6716  if (... */\n    tag_188:\n        /* \"contracts/Utils.sol\":6110:6113  i++ */\n      dup1\n      dup1\n      tag_205\n      swap1\n      tag_125\n      jump\t// in\n    tag_205:\n      swap2\n      pop\n      pop\n        /* \"contracts/Utils.sol\":6059:6726  for (uint256 i = 0; i < PatchTrannsactions.length; i++) {... */\n      jump(tag_158)\n    tag_159:\n      pop\n        /* \"contracts/Utils.sol\":6776:6787  MatchedRows */\n      dup2\n        /* \"contracts/Utils.sol\":6753:6788  new PatchTransaction[](MatchedRows) */\n      0xffffffffffffffff\n      dup2\n      gt\n      iszero\n      tag_206\n      jumpi\n      tag_207\n      tag_80\n      jump\t// in\n    tag_207:\n    tag_206:\n      mload(0x40)\n      swap1\n      dup1\n      dup3\n      mstore\n      dup1\n      0x20\n      mul\n      0x20\n      add\n      dup3\n      add\n      0x40\n      mstore\n      dup1\n      iszero\n      tag_208\n      jumpi\n      dup2\n      0x20\n      add\n    tag_209:\n      tag_210\n      tag_157\n      jump\t// in\n    tag_210:\n      dup2\n      mstore\n      0x20\n      add\n      swap1\n      0x01\n      swap1\n      sub\n      swap1\n      dup2\n      tag_209\n      jumpi\n      swap1\n      pop\n    tag_208:\n      pop\n        /* \"contracts/Utils.sol\":6735:6788  UserTransaction = new PatchTransaction[](MatchedRows) */\n      swap3\n      pop\n        /* \"contracts/Utils.sol\":6816:6817  0 */\n      0x00\n        /* \"contracts/Utils.sol\":6802:6813  MatchedRows */\n      dup3\n        /* \"contracts/Utils.sol\":6802:6817  MatchedRows > 0 */\n      gt\n        /* \"contracts/Utils.sol\":6798:6950  if (MatchedRows > 0) {... */\n      iszero\n      tag_211\n      jumpi\n        /* \"contracts/Utils.sol\":6838:6847  uint256 i */\n      0x00\n        /* \"contracts/Utils.sol\":6833:6940  for (uint256 i = 0; i < MatchedRows; i++) {... */\n    tag_212:\n        /* \"contracts/Utils.sol\":6857:6868  MatchedRows */\n      dup3\n        /* \"contracts/Utils.sol\":6853:6854  i */\n      dup2\n        /* \"contracts/Utils.sol\":6853:6868  i < MatchedRows */\n      lt\n        /* \"contracts/Utils.sol\":6833:6940  for (uint256 i = 0; i < MatchedRows; i++) {... */\n      iszero\n      tag_213\n      jumpi\n        /* \"contracts/Utils.sol\":6914:6922  TempTran */\n      dup2\n        /* \"contracts/Utils.sol\":6923:6924  i */\n      dup2\n        /* \"contracts/Utils.sol\":6914:6925  TempTran[i] */\n      dup2\n      mload\n      dup2\n      lt\n      tag_215\n      jumpi\n      tag_216\n      tag_93\n      jump\t// in\n    tag_216:\n    tag_215:\n      0x20\n      mul\n      0x20\n      add\n      add\n      mload\n        /* \"contracts/Utils.sol\":6893:6908  UserTransaction */\n      dup5\n        /* \"contracts/Utils.sol\":6909:6910  i */\n      dup3\n        /* \"contracts/Utils.sol\":6893:6911  UserTransaction[i] */\n      dup2\n      mload\n      dup2\n      lt\n      tag_217\n      jumpi\n      tag_218\n      tag_93\n      jump\t// in\n    tag_218:\n    tag_217:\n      0x20\n      mul\n      0x20\n      add\n      add\n        /* \"contracts/Utils.sol\":6893:6925  UserTransaction[i] = TempTran[i] */\n      dup2\n      swap1\n      mstore\n      pop\n        /* \"contracts/Utils.sol\":6870:6873  i++ */\n      dup1\n      dup1\n      tag_219\n      swap1\n      tag_125\n      jump\t// in\n    tag_219:\n      swap2\n      pop\n      pop\n        /* \"contracts/Utils.sol\":6833:6940  for (uint256 i = 0; i < MatchedRows; i++) {... */\n      jump(tag_212)\n    tag_213:\n      pop\n        /* \"contracts/Utils.sol\":6798:6950  if (MatchedRows > 0) {... */\n    tag_211:\n        /* \"contracts/Utils.sol\":5902:6956  {... */\n      pop\n      pop\n        /* \"contracts/Utils.sol\":5696:6956  function ReadParentAndSiblingsTransactions(... */\n      swap4\n      swap3\n      pop\n      pop\n      pop\n      jump\t// out\n        /* \"contracts/Utils.sol\":4658:5690  function ReadTransactionsByPatchNo(... */\n    tag_37:\n        /* \"contracts/Utils.sol\":4783:4824  PatchTransaction[] memory UserTransaction */\n      0x60\n        /* \"contracts/Utils.sol\":4836:4855  uint256 MatchedRows */\n      0x00\n        /* \"contracts/Utils.sol\":4865:4899  PatchTransaction[] memory TempTran */\n      dup1\n        /* \"contracts/Utils.sol\":4938:4956  PatchTrannsactions */\n      0x05\n        /* \"contracts/Utils.sol\":4938:4963  PatchTrannsactions.length */\n      dup1\n      sload\n      swap1\n      pop\n        /* \"contracts/Utils.sol\":4902:4973  new PatchTransaction[](... */\n      0xffffffffffffffff\n      dup2\n      gt\n      iszero\n      tag_221\n      jumpi\n      tag_222\n      tag_80\n      jump\t// in\n    tag_222:\n    tag_221:\n      mload(0x40)\n      swap1\n      dup1\n      dup3\n      mstore\n      dup1\n      0x20\n      mul\n      0x20\n      add\n      dup3\n      add\n      0x40\n      mstore\n      dup1\n      iszero\n      tag_223\n      jumpi\n      dup2\n      0x20\n      add\n    tag_224:\n      tag_225\n      tag_157\n      jump\t// in\n    tag_225:\n      dup2\n      mstore\n      0x20\n      add\n      swap1\n      0x01\n      swap1\n      sub\n      swap1\n      dup2\n      tag_224\n      jumpi\n      swap1\n      pop\n    tag_223:\n      pop\n        /* \"contracts/Utils.sol\":4865:4973  PatchTransaction[] memory TempTran = new PatchTransaction[](... */\n      swap1\n      pop\n        /* \"contracts/Utils.sol\":4988:4997  uint256 i */\n      0x00\n        /* \"contracts/Utils.sol\":4983:5460  for (uint256 i = 0; i < PatchTrannsactions.length; i++) {... */\n    tag_226:\n        /* \"contracts/Utils.sol\":5007:5025  PatchTrannsactions */\n      0x05\n        /* \"contracts/Utils.sol\":5007:5032  PatchTrannsactions.length */\n      dup1\n      sload\n      swap1\n      pop\n        /* \"contracts/Utils.sol\":5003:5004  i */\n      dup2\n        /* \"contracts/Utils.sol\":5003:5032  i < PatchTrannsactions.length */\n      lt\n        /* \"contracts/Utils.sol\":4983:5460  for (uint256 i = 0; i < PatchTrannsactions.length; i++) {... */\n      iszero\n      tag_227\n      jumpi\n        /* \"contracts/Utils.sol\":5123:5243  compareStringsbyBytes(... */\n      tag_229\n        /* \"contracts/Utils.sol\":5166:5184  PatchTrannsactions */\n      0x05\n        /* \"contracts/Utils.sol\":5185:5186  i */\n      dup3\n        /* \"contracts/Utils.sol\":5166:5187  PatchTrannsactions[i] */\n      dup2\n      sload\n      dup2\n      lt\n      tag_230\n      jumpi\n      tag_231\n      tag_93\n      jump\t// in\n    tag_231:\n    tag_230:\n      swap1\n      0x00\n      mstore\n      keccak256(0x00, 0x20)\n      swap1\n      0x07\n      mul\n      add\n        /* \"contracts/Utils.sol\":5166:5195  PatchTrannsactions[i].PatchNo */\n      0x01\n      add\n        /* \"contracts/Utils.sol\":5123:5243  compareStringsbyBytes(... */\n      dup1\n      sload\n      tag_233\n      swap1\n      tag_102\n      jump\t// in\n    tag_233:\n      dup1\n      0x1f\n      add\n      0x20\n      dup1\n      swap2\n      div\n      mul\n      0x20\n      add\n      mload(0x40)\n      swap1\n      dup2\n      add\n      0x40\n      mstore\n      dup1\n      swap3\n      swap2\n      swap1\n      dup2\n      dup2\n      mstore\n      0x20\n      add\n      dup3\n      dup1\n      sload\n      tag_234\n      swap1\n      tag_102\n      jump\t// in\n    tag_234:\n      dup1\n      iszero\n      tag_235\n      jumpi\n      dup1\n      0x1f\n      lt\n      tag_236\n      jumpi\n      0x0100\n      dup1\n      dup4\n      sload\n      div\n      mul\n      dup4\n      mstore\n      swap2\n      0x20\n      add\n      swap2\n      jump(tag_235)\n    tag_236:\n      dup3\n      add\n      swap2\n      swap1\n      0x00\n      mstore\n      keccak256(0x00, 0x20)\n      swap1\n    tag_237:\n      dup2\n      sload\n      dup2\n      mstore\n      swap1\n      0x01\n      add\n      swap1\n      0x20\n      add\n      dup1\n      dup4\n      gt\n      tag_237\n      jumpi\n      dup3\n      swap1\n      sub\n      0x1f\n      and\n      dup3\n      add\n      swap2\n    tag_235:\n      pop\n      pop\n      pop\n      pop\n      pop\n        /* \"contracts/Utils.sol\":5217:5225  _patchno */\n      dup8\n        /* \"contracts/Utils.sol\":5123:5144  compareStringsbyBytes */\n      tag_74\n        /* \"contracts/Utils.sol\":5123:5243  compareStringsbyBytes(... */\n      jump\t// in\n    tag_229:\n        /* \"contracts/Utils.sol\":5123:5326  compareStringsbyBytes(... */\n      dup1\n      iszero\n      tag_238\n      jumpi\n      pop\n        /* \"contracts/Utils.sol\":5263:5326  compareStringsbyBytes(PatchTrannsactions[i].DrugRegNo, _drugno) */\n      tag_239\n        /* \"contracts/Utils.sol\":5285:5303  PatchTrannsactions */\n      0x05\n        /* \"contracts/Utils.sol\":5304:5305  i */\n      dup3\n        /* \"contracts/Utils.sol\":5285:5306  PatchTrannsactions[i] */\n      dup2\n      sload\n      dup2\n      lt\n      tag_240\n      jumpi\n      tag_241\n      tag_93\n      jump\t// in\n    tag_241:\n    tag_240:\n      swap1\n      0x00\n      mstore\n      keccak256(0x00, 0x20)\n      swap1\n      0x07\n      mul\n      add\n        /* \"contracts/Utils.sol\":5285:5316  PatchTrannsactions[i].DrugRegNo */\n      0x00\n      add\n        /* \"contracts/Utils.sol\":5263:5326  compareStringsbyBytes(PatchTrannsactions[i].DrugRegNo, _drugno) */\n      dup1\n      sload\n      tag_243\n      swap1\n      tag_102\n      jump\t// in\n    tag_243:\n      dup1\n      0x1f\n      add\n      0x20\n      dup1\n      swap2\n      div\n      mul\n      0x20\n      add\n      mload(0x40)\n      swap1\n      dup2\n      add\n      0x40\n      mstore\n      dup1\n      swap3\n      swap2\n      swap1\n      dup2\n      dup2\n      mstore\n      0x20\n      add\n      dup3\n      dup1\n      sload\n      tag_244\n      swap1\n      tag_102\n      jump\t// in\n    tag_244:\n      dup1\n      iszero\n      tag_245\n      jumpi\n      dup1\n      0x1f\n      lt\n      tag_246\n      jumpi\n      0x0100\n      dup1\n      dup4\n      sload\n      div\n      mul\n      dup4\n      mstore\n      swap2\n      0x20\n      add\n      swap2\n      jump(tag_245)\n    tag_246:\n      dup3\n      add\n      swap2\n      swap1\n      0x00\n      mstore\n      keccak256(0x00, 0x20)\n      swap1\n    tag_247:\n      dup2\n      sload\n      dup2\n      mstore\n      swap1\n      0x01\n      add\n      swap1\n      0x20\n      add\n      dup1\n      dup4\n      gt\n      tag_247\n      jumpi\n      dup3\n      swap1\n      sub\n      0x1f\n      and\n      dup3\n      add\n      swap2\n    tag_245:\n      pop\n      pop\n      pop\n      pop\n      pop\n        /* \"contracts/Utils.sol\":5318:5325  _drugno */\n      dup7\n        /* \"contracts/Utils.sol\":5263:5284  compareStringsbyBytes */\n      tag_74\n        /* \"contracts/Utils.sol\":5263:5326  compareStringsbyBytes(PatchTrannsactions[i].DrugRegNo, _drugno) */\n      jump\t// in\n    tag_239:\n        /* \"contracts/Utils.sol\":5123:5326  compareStringsbyBytes(... */\n    tag_238:\n        /* \"contracts/Utils.sol\":5102:5450  if (... */\n      iszero\n      tag_248\n      jumpi\n        /* \"contracts/Utils.sol\":5383:5401  PatchTrannsactions */\n      0x05\n        /* \"contracts/Utils.sol\":5402:5403  i */\n      dup2\n        /* \"contracts/Utils.sol\":5383:5404  PatchTrannsactions[i] */\n      dup2\n      sload\n      dup2\n      lt\n      tag_249\n      jumpi\n      tag_250\n      tag_93\n      jump\t// in\n    tag_250:\n    tag_249:\n      swap1\n      0x00\n      mstore\n      keccak256(0x00, 0x20)\n      swap1\n      0x07\n      mul\n      add\n        /* \"contracts/Utils.sol\":5359:5404  TempTran[MatchedRows] = PatchTrannsactions[i] */\n      mload(0x40)\n      dup1\n      0xe0\n      add\n      0x40\n      mstore\n      swap1\n      dup2\n      0x00\n      dup3\n      add\n      dup1\n      sload\n      tag_252\n      swap1\n      tag_102\n      jump\t// in\n    tag_252:\n      dup1\n      0x1f\n      add\n      0x20\n      dup1\n      swap2\n      div\n      mul\n      0x20\n      add\n      mload(0x40)\n      swap1\n      dup2\n      add\n      0x40\n      mstore\n      dup1\n      swap3\n      swap2\n      swap1\n      dup2\n      dup2\n      mstore\n      0x20\n      add\n      dup3\n      dup1\n      sload\n      tag_253\n      swap1\n      tag_102\n      jump\t// in\n    tag_253:\n      dup1\n      iszero\n      tag_254\n      jumpi\n      dup1\n      0x1f\n      lt\n      tag_255\n      jumpi\n      0x0100\n      dup1\n      dup4\n      sload\n      div\n      mul\n      dup4\n      mstore\n      swap2\n      0x20\n      add\n      swap2\n      jump(tag_254)\n    tag_255:\n      dup3\n      add\n      swap2\n      swap1\n      0x00\n      mstore\n      keccak256(0x00, 0x20)\n      swap1\n    tag_256:\n      dup2\n      sload\n      dup2\n      mstore\n      swap1\n      0x01\n      add\n      swap1\n      0x20\n      add\n      dup1\n      dup4\n      gt\n      tag_256\n      jumpi\n      dup3\n      swap1\n      sub\n      0x1f\n      and\n      dup3\n      add\n      swap2\n    tag_254:\n      pop\n      pop\n      pop\n      pop\n      pop\n      dup2\n      mstore\n      0x20\n      add\n      0x01\n      dup3\n      add\n      dup1\n      sload\n      tag_257\n      swap1\n      tag_102\n      jump\t// in\n    tag_257:\n      dup1\n      0x1f\n      add\n      0x20\n      dup1\n      swap2\n      div\n      mul\n      0x20\n      add\n      mload(0x40)\n      swap1\n      dup2\n      add\n      0x40\n      mstore\n      dup1\n      swap3\n      swap2\n      swap1\n      dup2\n      dup2\n      mstore\n      0x20\n      add\n      dup3\n      dup1\n      sload\n      tag_258\n      swap1\n      tag_102\n      jump\t// in\n    tag_258:\n      dup1\n      iszero\n      tag_259\n      jumpi\n      dup1\n      0x1f\n      lt\n      tag_260\n      jumpi\n      0x0100\n      dup1\n      dup4\n      sload\n      div\n      mul\n      dup4\n      mstore\n      swap2\n      0x20\n      add\n      swap2\n      jump(tag_259)\n    tag_260:\n      dup3\n      add\n      swap2\n      swap1\n      0x00\n      mstore\n      keccak256(0x00, 0x20)\n      swap1\n    tag_261:\n      dup2\n      sload\n      dup2\n      mstore\n      swap1\n      0x01\n      add\n      swap1\n      0x20\n      add\n      dup1\n      dup4\n      gt\n      tag_261\n      jumpi\n      dup3\n      swap1\n      sub\n      0x1f\n      and\n      dup3\n      add\n      swap2\n    tag_259:\n      pop\n      pop\n      pop\n      pop\n      pop\n      dup2\n      mstore\n      0x20\n      add\n      0x02\n      dup3\n      add\n      sload\n      dup2\n      mstore\n      0x20\n      add\n      0x03\n      dup3\n      add\n      0x00\n      swap1\n      sload\n      swap1\n      0x0100\n      exp\n      swap1\n      div\n      0xffffffffffffffffffffffffffffffffffffffff\n      and\n      0xffffffffffffffffffffffffffffffffffffffff\n      and\n      0xffffffffffffffffffffffffffffffffffffffff\n      and\n      dup2\n      mstore\n      0x20\n      add\n      0x04\n      dup3\n      add\n      0x00\n      swap1\n      sload\n      swap1\n      0x0100\n      exp\n      swap1\n      div\n      0xffffffffffffffffffffffffffffffffffffffff\n      and\n      0xffffffffffffffffffffffffffffffffffffffff\n      and\n      0xffffffffffffffffffffffffffffffffffffffff\n      and\n      dup2\n      mstore\n      0x20\n      add\n      0x05\n      dup3\n      add\n      sload\n      dup2\n      mstore\n      0x20\n      add\n      0x06\n      dup3\n      add\n      sload\n      dup2\n      mstore\n      pop\n      pop\n        /* \"contracts/Utils.sol\":5359:5367  TempTran */\n      dup3\n        /* \"contracts/Utils.sol\":5368:5379  MatchedRows */\n      dup5\n        /* \"contracts/Utils.sol\":5359:5380  TempTran[MatchedRows] */\n      dup2\n      mload\n      dup2\n      lt\n      tag_262\n      jumpi\n      tag_263\n      tag_93\n      jump\t// in\n    tag_263:\n    tag_262:\n      0x20\n      mul\n      0x20\n      add\n      add\n        /* \"contracts/Utils.sol\":5359:5404  TempTran[MatchedRows] = PatchTrannsactions[i] */\n      dup2\n      swap1\n      mstore\n      pop\n        /* \"contracts/Utils.sol\":5422:5435  MatchedRows++ */\n      dup3\n      dup1\n      tag_264\n      swap1\n      tag_125\n      jump\t// in\n    tag_264:\n      swap4\n      pop\n      pop\n        /* \"contracts/Utils.sol\":5102:5450  if (... */\n    tag_248:\n        /* \"contracts/Utils.sol\":5034:5037  i++ */\n      dup1\n      dup1\n      tag_265\n      swap1\n      tag_125\n      jump\t// in\n    tag_265:\n      swap2\n      pop\n      pop\n        /* \"contracts/Utils.sol\":4983:5460  for (uint256 i = 0; i < PatchTrannsactions.length; i++) {... */\n      jump(tag_226)\n    tag_227:\n      pop\n        /* \"contracts/Utils.sol\":5510:5521  MatchedRows */\n      dup2\n        /* \"contracts/Utils.sol\":5487:5522  new PatchTransaction[](MatchedRows) */\n      0xffffffffffffffff\n      dup2\n      gt\n      iszero\n      tag_266\n      jumpi\n      tag_267\n      tag_80\n      jump\t// in\n    tag_267:\n    tag_266:\n      mload(0x40)\n      swap1\n      dup1\n      dup3\n      mstore\n      dup1\n      0x20\n      mul\n      0x20\n      add\n      dup3\n      add\n      0x40\n      mstore\n      dup1\n      iszero\n      tag_268\n      jumpi\n      dup2\n      0x20\n      add\n    tag_269:\n      tag_270\n      tag_157\n      jump\t// in\n    tag_270:\n      dup2\n      mstore\n      0x20\n      add\n      swap1\n      0x01\n      swap1\n      sub\n      swap1\n      dup2\n      tag_269\n      jumpi\n      swap1\n      pop\n    tag_268:\n      pop\n        /* \"contracts/Utils.sol\":5469:5522  UserTransaction = new PatchTransaction[](MatchedRows) */\n      swap3\n      pop\n        /* \"contracts/Utils.sol\":5550:5551  0 */\n      0x00\n        /* \"contracts/Utils.sol\":5536:5547  MatchedRows */\n      dup3\n        /* \"contracts/Utils.sol\":5536:5551  MatchedRows > 0 */\n      gt\n        /* \"contracts/Utils.sol\":5532:5684  if (MatchedRows > 0) {... */\n      iszero\n      tag_271\n      jumpi\n        /* \"contracts/Utils.sol\":5572:5581  uint256 i */\n      0x00\n        /* \"contracts/Utils.sol\":5567:5674  for (uint256 i = 0; i < MatchedRows; i++) {... */\n    tag_272:\n        /* \"contracts/Utils.sol\":5591:5602  MatchedRows */\n      dup3\n        /* \"contracts/Utils.sol\":5587:5588  i */\n      dup2\n        /* \"contracts/Utils.sol\":5587:5602  i < MatchedRows */\n      lt\n        /* \"contracts/Utils.sol\":5567:5674  for (uint256 i = 0; i < MatchedRows; i++) {... */\n      iszero\n      tag_273\n      jumpi\n        /* \"contracts/Utils.sol\":5648:5656  TempTran */\n      dup2\n        /* \"contracts/Utils.sol\":5657:5658  i */\n      dup2\n        /* \"contracts/Utils.sol\":5648:5659  TempTran[i] */\n      dup2\n      mload\n      dup2\n      lt\n      tag_275\n      jumpi\n      tag_276\n      tag_93\n      jump\t// in\n    tag_276:\n    tag_275:\n      0x20\n      mul\n      0x20\n      add\n      add\n      mload\n        /* \"contracts/Utils.sol\":5627:5642  UserTransaction */\n      dup5\n        /* \"contracts/Utils.sol\":5643:5644  i */\n      dup3\n        /* \"contracts/Utils.sol\":5627:5645  UserTransaction[i] */\n      dup2\n      mload\n      dup2\n      lt\n      tag_277\n      jumpi\n      tag_278\n      tag_93\n      jump\t// in\n    tag_278:\n    tag_277:\n      0x20\n      mul\n      0x20\n      add\n      add\n        /* \"contracts/Utils.sol\":5627:5659  UserTransaction[i] = TempTran[i] */\n      dup2\n      swap1\n      mstore\n      pop\n        /* \"contracts/Utils.sol\":5604:5607  i++ */\n      dup1\n      dup1\n      tag_279\n      swap1\n      tag_125\n      jump\t// in\n    tag_279:\n      swap2\n      pop\n      pop\n        /* \"contracts/Utils.sol\":5567:5674  for (uint256 i = 0; i < MatchedRows; i++) {... */\n      jump(tag_272)\n    tag_273:\n      pop\n        /* \"contracts/Utils.sol\":5532:5684  if (MatchedRows > 0) {... */\n    tag_271:\n        /* \"contracts/Utils.sol\":4826:5690  {... */\n      pop\n      pop\n        /* \"contracts/Utils.sol\":4658:5690  function ReadTransactionsByPatchNo(... */\n      swap3\n      swap2\n      pop\n      pop\n      jump\t// out\n        /* \"contracts/Utils.sol\":3781:4652  function ReadTransactionsByDrug(string memory _drugno)... */\n    tag_42:\n        /* \"contracts/Utils.sol\":3881:3922  PatchTransaction[] memory UserTransaction */\n      0x60\n        /* \"contracts/Utils.sol\":3938:3957  uint256 MatchedRows */\n      0x00\n        /* \"contracts/Utils.sol\":3967:4001  PatchTransaction[] memory TempTran */\n      dup1\n        /* \"contracts/Utils.sol\":4040:4058  PatchTrannsactions */\n      0x05\n        /* \"contracts/Utils.sol\":4040:4065  PatchTrannsactions.length */\n      dup1\n      sload\n      swap1\n      pop\n        /* \"contracts/Utils.sol\":4004:4075  new PatchTransaction[](... */\n      0xffffffffffffffff\n      dup2\n      gt\n      iszero\n      tag_281\n      jumpi\n      tag_282\n      tag_80\n      jump\t// in\n    tag_282:\n    tag_281:\n      mload(0x40)\n      swap1\n      dup1\n      dup3\n      mstore\n      dup1\n      0x20\n      mul\n      0x20\n      add\n      dup3\n      add\n      0x40\n      mstore\n      dup1\n      iszero\n      tag_283\n      jumpi\n      dup2\n      0x20\n      add\n    tag_284:\n      tag_285\n      tag_157\n      jump\t// in\n    tag_285:\n      dup2\n      mstore\n      0x20\n      add\n      swap1\n      0x01\n      swap1\n      sub\n      swap1\n      dup2\n      tag_284\n      jumpi\n      swap1\n      pop\n    tag_283:\n      pop\n        /* \"contracts/Utils.sol\":3967:4075  PatchTransaction[] memory TempTran = new PatchTransaction[](... */\n      swap1\n      pop\n        /* \"contracts/Utils.sol\":4090:4099  uint256 i */\n      0x00\n        /* \"contracts/Utils.sol\":4085:4422  for (uint256 i = 0; i < PatchTrannsactions.length; i++) {... */\n    tag_286:\n        /* \"contracts/Utils.sol\":4109:4127  PatchTrannsactions */\n      0x05\n        /* \"contracts/Utils.sol\":4109:4134  PatchTrannsactions.length */\n      dup1\n      sload\n      swap1\n      pop\n        /* \"contracts/Utils.sol\":4105:4106  i */\n      dup2\n        /* \"contracts/Utils.sol\":4105:4134  i < PatchTrannsactions.length */\n      lt\n        /* \"contracts/Utils.sol\":4085:4422  for (uint256 i = 0; i < PatchTrannsactions.length; i++) {... */\n      iszero\n      tag_287\n      jumpi\n        /* \"contracts/Utils.sol\":4225:4288  compareStringsbyBytes(PatchTrannsactions[i].DrugRegNo, _drugno) */\n      tag_289\n        /* \"contracts/Utils.sol\":4247:4265  PatchTrannsactions */\n      0x05\n        /* \"contracts/Utils.sol\":4266:4267  i */\n      dup3\n        /* \"contracts/Utils.sol\":4247:4268  PatchTrannsactions[i] */\n      dup2\n      sload\n      dup2\n      lt\n      tag_290\n      jumpi\n      tag_291\n      tag_93\n      jump\t// in\n    tag_291:\n    tag_290:\n      swap1\n      0x00\n      mstore\n      keccak256(0x00, 0x20)\n      swap1\n      0x07\n      mul\n      add\n        /* \"contracts/Utils.sol\":4247:4278  PatchTrannsactions[i].DrugRegNo */\n      0x00\n      add\n        /* \"contracts/Utils.sol\":4225:4288  compareStringsbyBytes(PatchTrannsactions[i].DrugRegNo, _drugno) */\n      dup1\n      sload\n      tag_293\n      swap1\n      tag_102\n      jump\t// in\n    tag_293:\n      dup1\n      0x1f\n      add\n      0x20\n      dup1\n      swap2\n      div\n      mul\n      0x20\n      add\n      mload(0x40)\n      swap1\n      dup2\n      add\n      0x40\n      mstore\n      dup1\n      swap3\n      swap2\n      swap1\n      dup2\n      dup2\n      mstore\n      0x20\n      add\n      dup3\n      dup1\n      sload\n      tag_294\n      swap1\n      tag_102\n      jump\t// in\n    tag_294:\n      dup1\n      iszero\n      tag_295\n      jumpi\n      dup1\n      0x1f\n      lt\n      tag_296\n      jumpi\n      0x0100\n      dup1\n      dup4\n      sload\n      div\n      mul\n      dup4\n      mstore\n      swap2\n      0x20\n      add\n      swap2\n      jump(tag_295)\n    tag_296:\n      dup3\n      add\n      swap2\n      swap1\n      0x00\n      mstore\n      keccak256(0x00, 0x20)\n      swap1\n    tag_297:\n      dup2\n      sload\n      dup2\n      mstore\n      swap1\n      0x01\n      add\n      swap1\n      0x20\n      add\n      dup1\n      dup4\n      gt\n      tag_297\n      jumpi\n      dup3\n      swap1\n      sub\n      0x1f\n      and\n      dup3\n      add\n      swap2\n    tag_295:\n      pop\n      pop\n      pop\n      pop\n      pop\n        /* \"contracts/Utils.sol\":4280:4287  _drugno */\n      dup7\n        /* \"contracts/Utils.sol\":4225:4246  compareStringsbyBytes */\n      tag_74\n        /* \"contracts/Utils.sol\":4225:4288  compareStringsbyBytes(PatchTrannsactions[i].DrugRegNo, _drugno) */\n      jump\t// in\n    tag_289:\n        /* \"contracts/Utils.sol\":4204:4412  if (... */\n      iszero\n      tag_298\n      jumpi\n        /* \"contracts/Utils.sol\":4345:4363  PatchTrannsactions */\n      0x05\n        /* \"contracts/Utils.sol\":4364:4365  i */\n      dup2\n        /* \"contracts/Utils.sol\":4345:4366  PatchTrannsactions[i] */\n      dup2\n      sload\n      dup2\n      lt\n      tag_299\n      jumpi\n      tag_300\n      tag_93\n      jump\t// in\n    tag_300:\n    tag_299:\n      swap1\n      0x00\n      mstore\n      keccak256(0x00, 0x20)\n      swap1\n      0x07\n      mul\n      add\n        /* \"contracts/Utils.sol\":4321:4366  TempTran[MatchedRows] = PatchTrannsactions[i] */\n      mload(0x40)\n      dup1\n      0xe0\n      add\n      0x40\n      mstore\n      swap1\n      dup2\n      0x00\n      dup3\n      add\n      dup1\n      sload\n      tag_302\n      swap1\n      tag_102\n      jump\t// in\n    tag_302:\n      dup1\n      0x1f\n      add\n      0x20\n      dup1\n      swap2\n      div\n      mul\n      0x20\n      add\n      mload(0x40)\n      swap1\n      dup2\n      add\n      0x40\n      mstore\n      dup1\n      swap3\n      swap2\n      swap1\n      dup2\n      dup2\n      mstore\n      0x20\n      add\n      dup3\n      dup1\n      sload\n      tag_303\n      swap1\n      tag_102\n      jump\t// in\n    tag_303:\n      dup1\n      iszero\n      tag_304\n      jumpi\n      dup1\n      0x1f\n      lt\n      tag_305\n      jumpi\n      0x0100\n      dup1\n      dup4\n      sload\n      div\n      mul\n      dup4\n      mstore\n      swap2\n      0x20\n      add\n      swap2\n      jump(tag_304)\n    tag_305:\n      dup3\n      add\n      swap2\n      swap1\n      0x00\n      mstore\n      keccak256(0x00, 0x20)\n      swap1\n    tag_306:\n      dup2\n      sload\n      dup2\n      mstore\n      swap1\n      0x01\n      add\n      swap1\n      0x20\n      add\n      dup1\n      dup4\n      gt\n      tag_306\n      jumpi\n      dup3\n      swap1\n      sub\n      0x1f\n      and\n      dup3\n      add\n      swap2\n    tag_304:\n      pop\n      pop\n      pop\n      pop\n      pop\n      dup2\n      mstore\n      0x20\n      add\n      0x01\n      dup3\n      add\n      dup1\n      sload\n      tag_307\n      swap1\n      tag_102\n      jump\t// in\n    tag_307:\n      dup1\n      0x1f\n      add\n      0x20\n      dup1\n      swap2\n      div\n      mul\n      0x20\n      add\n      mload(0x40)\n      swap1\n      dup2\n      add\n      0x40\n      mstore\n      dup1\n      swap3\n      swap2\n      swap1\n      dup2\n      dup2\n      mstore\n      0x20\n      add\n      dup3\n      dup1\n      sload\n      tag_308\n      swap1\n      tag_102\n      jump\t// in\n    tag_308:\n      dup1\n      iszero\n      tag_309\n      jumpi\n      dup1\n      0x1f\n      lt\n      tag_310\n      jumpi\n      0x0100\n      dup1\n      dup4\n      sload\n      div\n      mul\n      dup4\n      mstore\n      swap2\n      0x20\n      add\n      swap2\n      jump(tag_309)\n    tag_310:\n      dup3\n      add\n      swap2\n      swap1\n      0x00\n      mstore\n      keccak256(0x00, 0x20)\n      swap1\n    tag_311:\n      dup2\n      sload\n      dup2\n      mstore\n      swap1\n      0x01\n      add\n      swap1\n      0x20\n      add\n      dup1\n      dup4\n      gt\n      tag_311\n      jumpi\n      dup3\n      swap1\n      sub\n      0x1f\n      and\n      dup3\n      add\n      swap2\n    tag_309:\n      pop\n      pop\n      pop\n      pop\n      pop\n      dup2\n      mstore\n      0x20\n      add\n      0x02\n      dup3\n      add\n      sload\n      dup2\n      mstore\n      0x20\n      add\n      0x03\n      dup3\n      add\n      0x00\n      swap1\n      sload\n      swap1\n      0x0100\n      exp\n      swap1\n      div\n      0xffffffffffffffffffffffffffffffffffffffff\n      and\n      0xffffffffffffffffffffffffffffffffffffffff\n      and\n      0xffffffffffffffffffffffffffffffffffffffff\n      and\n      dup2\n      mstore\n      0x20\n      add\n      0x04\n      dup3\n      add\n      0x00\n      swap1\n      sload\n      swap1\n      0x0100\n      exp\n      swap1\n      div\n      0xffffffffffffffffffffffffffffffffffffffff\n      and\n      0xffffffffffffffffffffffffffffffffffffffff\n      and\n      0xffffffffffffffffffffffffffffffffffffffff\n      and\n      dup2\n      mstore\n      0x20\n      add\n      0x05\n      dup3\n      add\n      sload\n      dup2\n      mstore\n      0x20\n      add\n      0x06\n      dup3\n      add\n      sload\n      dup2\n      mstore\n      pop\n      pop\n        /* \"contracts/Utils.sol\":4321:4329  TempTran */\n      dup3\n        /* \"contracts/Utils.sol\":4330:4341  MatchedRows */\n      dup5\n        /* \"contracts/Utils.sol\":4321:4342  TempTran[MatchedRows] */\n      dup2\n      mload\n      dup2\n      lt\n      tag_312\n      jumpi\n      tag_313\n      tag_93\n      jump\t// in\n    tag_313:\n    tag_312:\n      0x20\n      mul\n      0x20\n      add\n      add\n        /* \"contracts/Utils.sol\":4321:4366  TempTran[MatchedRows] = PatchTrannsactions[i] */\n      dup2\n      swap1\n      mstore\n      pop\n        /* \"contracts/Utils.sol\":4384:4397  MatchedRows++ */\n      dup3\n      dup1\n      tag_314\n      swap1\n      tag_125\n      jump\t// in\n    tag_314:\n      swap4\n      pop\n      pop\n        /* \"contracts/Utils.sol\":4204:4412  if (... */\n    tag_298:\n        /* \"contracts/Utils.sol\":4136:4139  i++ */\n      dup1\n      dup1\n      tag_315\n      swap1\n      tag_125\n      jump\t// in\n    tag_315:\n      swap2\n      pop\n      pop\n        /* \"contracts/Utils.sol\":4085:4422  for (uint256 i = 0; i < PatchTrannsactions.length; i++) {... */\n      jump(tag_286)\n    tag_287:\n      pop\n        /* \"contracts/Utils.sol\":4472:4483  MatchedRows */\n      dup2\n        /* \"contracts/Utils.sol\":4449:4484  new PatchTransaction[](MatchedRows) */\n      0xffffffffffffffff\n      dup2\n      gt\n      iszero\n      tag_316\n      jumpi\n      tag_317\n      tag_80\n      jump\t// in\n    tag_317:\n    tag_316:\n      mload(0x40)\n      swap1\n      dup1\n      dup3\n      mstore\n      dup1\n      0x20\n      mul\n      0x20\n      add\n      dup3\n      add\n      0x40\n      mstore\n      dup1\n      iszero\n      tag_318\n      jumpi\n      dup2\n      0x20\n      add\n    tag_319:\n      tag_320\n      tag_157\n      jump\t// in\n    tag_320:\n      dup2\n      mstore\n      0x20\n      add\n      swap1\n      0x01\n      swap1\n      sub\n      swap1\n      dup2\n      tag_319\n      jumpi\n      swap1\n      pop\n    tag_318:\n      pop\n        /* \"contracts/Utils.sol\":4431:4484  UserTransaction = new PatchTransaction[](MatchedRows) */\n      swap3\n      pop\n        /* \"contracts/Utils.sol\":4512:4513  0 */\n      0x00\n        /* \"contracts/Utils.sol\":4498:4509  MatchedRows */\n      dup3\n        /* \"contracts/Utils.sol\":4498:4513  MatchedRows > 0 */\n      gt\n        /* \"contracts/Utils.sol\":4494:4646  if (MatchedRows > 0) {... */\n      iszero\n      tag_321\n      jumpi\n        /* \"contracts/Utils.sol\":4534:4543  uint256 i */\n      0x00\n        /* \"contracts/Utils.sol\":4529:4636  for (uint256 i = 0; i < MatchedRows; i++) {... */\n    tag_322:\n        /* \"contracts/Utils.sol\":4553:4564  MatchedRows */\n      dup3\n        /* \"contracts/Utils.sol\":4549:4550  i */\n      dup2\n        /* \"contracts/Utils.sol\":4549:4564  i < MatchedRows */\n      lt\n        /* \"contracts/Utils.sol\":4529:4636  for (uint256 i = 0; i < MatchedRows; i++) {... */\n      iszero\n      tag_323\n      jumpi\n        /* \"contracts/Utils.sol\":4610:4618  TempTran */\n      dup2\n        /* \"contracts/Utils.sol\":4619:4620  i */\n      dup2\n        /* \"contracts/Utils.sol\":4610:4621  TempTran[i] */\n      dup2\n      mload\n      dup2\n      lt\n      tag_325\n      jumpi\n      tag_326\n      tag_93\n      jump\t// in\n    tag_326:\n    tag_325:\n      0x20\n      mul\n      0x20\n      add\n      add\n      mload\n        /* \"contracts/Utils.sol\":4589:4604  UserTransaction */\n      dup5\n        /* \"contracts/Utils.sol\":4605:4606  i */\n      dup3\n        /* \"contracts/Utils.sol\":4589:4607  UserTransaction[i] */\n      dup2\n      mload\n      dup2\n      lt\n      tag_327\n      jumpi\n      tag_328\n      tag_93\n      jump\t// in\n    tag_328:\n    tag_327:\n      0x20\n      mul\n      0x20\n      add\n      add\n        /* \"contracts/Utils.sol\":4589:4621  UserTransaction[i] = TempTran[i] */\n      dup2\n      swap1\n      mstore\n      pop\n        /* \"contracts/Utils.sol\":4566:4569  i++ */\n      dup1\n      dup1\n      tag_329\n      swap1\n      tag_125\n      jump\t// in\n    tag_329:\n      swap2\n      pop\n      pop\n        /* \"contracts/Utils.sol\":4529:4636  for (uint256 i = 0; i < MatchedRows; i++) {... */\n      jump(tag_322)\n    tag_323:\n      pop\n        /* \"contracts/Utils.sol\":4494:4646  if (MatchedRows > 0) {... */\n    tag_321:\n        /* \"contracts/Utils.sol\":3928:4652  {... */\n      pop\n      pop\n        /* \"contracts/Utils.sol\":3781:4652  function ReadTransactionsByDrug(string memory _drugno)... */\n      swap2\n      swap1\n      pop\n      jump\t// out\n        /* \"contracts/Utils.sol\":1753:2162  function ReadRoleByUser()... */\n    tag_45:\n        /* \"contracts/Utils.sol\":1824:1843  UserRoles _userrole */\n      0x00\n        /* \"contracts/Utils.sol\":1877:1882  Owner */\n      dup1\n      0x00\n      swap1\n      sload\n      swap1\n      0x0100\n      exp\n      swap1\n      div\n      0xffffffffffffffffffffffffffffffffffffffff\n      and\n        /* \"contracts/Utils.sol\":1863:1882  msg.sender == Owner */\n      0xffffffffffffffffffffffffffffffffffffffff\n      and\n        /* \"contracts/Utils.sol\":1863:1873  msg.sender */\n      caller\n        /* \"contracts/Utils.sol\":1863:1882  msg.sender == Owner */\n      0xffffffffffffffffffffffffffffffffffffffff\n      and\n      eq\n        /* \"contracts/Utils.sol\":1859:2156  if (msg.sender == Owner) {... */\n      iszero\n      tag_331\n      jumpi\n        /* \"contracts/Utils.sol\":1910:1929  UserRoles.Regulator */\n      0x00\n        /* \"contracts/Utils.sol\":1898:1929  _userrole = UserRoles.Regulator */\n      swap1\n      pop\n        /* \"contracts/Utils.sol\":1859:2156  if (msg.sender == Owner) {... */\n      jump(tag_332)\n    tag_331:\n        /* \"contracts/Utils.sol\":2003:2004  0 */\n      0x00\n        /* \"contracts/Utils.sol\":1949:2005  UserAddressMapping[msg.sender].UserAddress == address(0) */\n      0xffffffffffffffffffffffffffffffffffffffff\n      and\n        /* \"contracts/Utils.sol\":1949:1967  UserAddressMapping */\n      0x01\n        /* \"contracts/Utils.sol\":1949:1979  UserAddressMapping[msg.sender] */\n      0x00\n        /* \"contracts/Utils.sol\":1968:1978  msg.sender */\n      caller\n        /* \"contracts/Utils.sol\":1949:1979  UserAddressMapping[msg.sender] */\n      0xffffffffffffffffffffffffffffffffffffffff\n      and\n      0xffffffffffffffffffffffffffffffffffffffff\n      and\n      dup2\n      mstore\n      0x20\n      add\n      swap1\n      dup2\n      mstore\n      0x20\n      add\n      0x00\n      keccak256\n        /* \"contracts/Utils.sol\":1949:1991  UserAddressMapping[msg.sender].UserAddress */\n      0x05\n      add\n      0x00\n      swap1\n      sload\n      swap1\n      0x0100\n      exp\n      swap1\n      div\n      0xffffffffffffffffffffffffffffffffffffffff\n      and\n        /* \"contracts/Utils.sol\":1949:2005  UserAddressMapping[msg.sender].UserAddress == address(0) */\n      0xffffffffffffffffffffffffffffffffffffffff\n      and\n      eq\n        /* \"contracts/Utils.sol\":1945:2156  if (UserAddressMapping[msg.sender].UserAddress == address(0)){... */\n      iszero\n      tag_333\n      jumpi\n        /* \"contracts/Utils.sol\":2032:2054  UserRoles.Unregistered */\n      0x08\n        /* \"contracts/Utils.sol\":2020:2054  _userrole = UserRoles.Unregistered */\n      swap1\n      pop\n        /* \"contracts/Utils.sol\":1945:2156  if (UserAddressMapping[msg.sender].UserAddress == address(0)){... */\n      jump(tag_334)\n    tag_333:\n        /* \"contracts/Utils.sol\":2106:2124  UserAddressMapping */\n      0x01\n        /* \"contracts/Utils.sol\":2106:2136  UserAddressMapping[msg.sender] */\n      0x00\n        /* \"contracts/Utils.sol\":2125:2135  msg.sender */\n      caller\n        /* \"contracts/Utils.sol\":2106:2136  UserAddressMapping[msg.sender] */\n      0xffffffffffffffffffffffffffffffffffffffff\n      and\n      0xffffffffffffffffffffffffffffffffffffffff\n      and\n      dup2\n      mstore\n      0x20\n      add\n      swap1\n      dup2\n      mstore\n      0x20\n      add\n      0x00\n      keccak256\n        /* \"contracts/Utils.sol\":2106:2145  UserAddressMapping[msg.sender].UserRole */\n      0x02\n      add\n      0x00\n      swap1\n      sload\n      swap1\n      0x0100\n      exp\n      swap1\n      div\n      0xff\n      and\n        /* \"contracts/Utils.sol\":2094:2145  _userrole = UserAddressMapping[msg.sender].UserRole */\n      swap1\n      pop\n        /* \"contracts/Utils.sol\":1945:2156  if (UserAddressMapping[msg.sender].UserAddress == address(0)){... */\n    tag_334:\n        /* \"contracts/Utils.sol\":1859:2156  if (msg.sender == Owner) {... */\n    tag_332:\n        /* \"contracts/Utils.sol\":1753:2162  function ReadRoleByUser()... */\n      swap1\n      jump\t// out\n        /* \"contracts/Utils.sol\":6962:7716  function ReturnRemainingAmount(... */\n    tag_50:\n        /* \"contracts/Utils.sol\":7113:7134  uint256 _remainamount */\n      0x00\n        /* \"contracts/Utils.sol\":7146:7199  PatchTransaction[]... */\n      dup1\n        /* \"contracts/Utils.sol\":7202:7330  ReadParentAndSiblingsTransactions(... */\n      tag_336\n        /* \"contracts/Utils.sol\":7253:7261  _patchno */\n      dup6\n        /* \"contracts/Utils.sol\":7279:7286  _drugno */\n      dup6\n        /* \"contracts/Utils.sol\":7304:7316  _fromaddress */\n      dup6\n        /* \"contracts/Utils.sol\":7202:7235  ReadParentAndSiblingsTransactions */\n      tag_31\n        /* \"contracts/Utils.sol\":7202:7330  ReadParentAndSiblingsTransactions(... */\n      jump\t// in\n    tag_336:\n        /* \"contracts/Utils.sol\":7146:7330  PatchTransaction[]... */\n      swap1\n      pop\n        /* \"contracts/Utils.sol\":7340:7358  uint256 mainAmount */\n      0x00\n        /* \"contracts/Utils.sol\":7368:7384  uint256 toAmount */\n      dup1\n        /* \"contracts/Utils.sol\":7399:7408  uint256 i */\n      0x00\n        /* \"contracts/Utils.sol\":7394:7663  for (uint256 i = 0; i < UserTransaction.length; i++) {... */\n    tag_337:\n        /* \"contracts/Utils.sol\":7418:7433  UserTransaction */\n      dup4\n        /* \"contracts/Utils.sol\":7418:7440  UserTransaction.length */\n      mload\n        /* \"contracts/Utils.sol\":7414:7415  i */\n      dup2\n        /* \"contracts/Utils.sol\":7414:7440  i < UserTransaction.length */\n      lt\n        /* \"contracts/Utils.sol\":7394:7663  for (uint256 i = 0; i < UserTransaction.length; i++) {... */\n      iszero\n      tag_338\n      jumpi\n        /* \"contracts/Utils.sol\":7492:7504  _fromaddress */\n      dup6\n        /* \"contracts/Utils.sol\":7465:7504  UserTransaction[i].ToID == _fromaddress */\n      0xffffffffffffffffffffffffffffffffffffffff\n      and\n        /* \"contracts/Utils.sol\":7465:7480  UserTransaction */\n      dup5\n        /* \"contracts/Utils.sol\":7481:7482  i */\n      dup3\n        /* \"contracts/Utils.sol\":7465:7483  UserTransaction[i] */\n      dup2\n      mload\n      dup2\n      lt\n      tag_340\n      jumpi\n      tag_341\n      tag_93\n      jump\t// in\n    tag_341:\n    tag_340:\n      0x20\n      mul\n      0x20\n      add\n      add\n      mload\n        /* \"contracts/Utils.sol\":7465:7488  UserTransaction[i].ToID */\n      0x80\n      add\n      mload\n        /* \"contracts/Utils.sol\":7465:7504  UserTransaction[i].ToID == _fromaddress */\n      0xffffffffffffffffffffffffffffffffffffffff\n      and\n      eq\n        /* \"contracts/Utils.sol\":7461:7653  if (UserTransaction[i].ToID == _fromaddress) {... */\n      iszero\n      tag_342\n      jumpi\n        /* \"contracts/Utils.sol\":7537:7552  UserTransaction */\n      dup4\n        /* \"contracts/Utils.sol\":7553:7554  i */\n      dup2\n        /* \"contracts/Utils.sol\":7537:7555  UserTransaction[i] */\n      dup2\n      mload\n      dup2\n      lt\n      tag_343\n      jumpi\n      tag_344\n      tag_93\n      jump\t// in\n    tag_344:\n    tag_343:\n      0x20\n      mul\n      0x20\n      add\n      add\n      mload\n        /* \"contracts/Utils.sol\":7537:7562  UserTransaction[i].Amount */\n      0xa0\n      add\n      mload\n        /* \"contracts/Utils.sol\":7524:7562  mainAmount = UserTransaction[i].Amount */\n      swap3\n      pop\n        /* \"contracts/Utils.sol\":7461:7653  if (UserTransaction[i].ToID == _fromaddress) {... */\n      jump(tag_345)\n    tag_342:\n        /* \"contracts/Utils.sol\":7613:7628  UserTransaction */\n      dup4\n        /* \"contracts/Utils.sol\":7629:7630  i */\n      dup2\n        /* \"contracts/Utils.sol\":7613:7631  UserTransaction[i] */\n      dup2\n      mload\n      dup2\n      lt\n      tag_346\n      jumpi\n      tag_347\n      tag_93\n      jump\t// in\n    tag_347:\n    tag_346:\n      0x20\n      mul\n      0x20\n      add\n      add\n      mload\n        /* \"contracts/Utils.sol\":7613:7638  UserTransaction[i].Amount */\n      0xa0\n      add\n      mload\n        /* \"contracts/Utils.sol\":7601:7638  toAmount += UserTransaction[i].Amount */\n      dup3\n      tag_348\n      swap2\n      swap1\n      tag_123\n      jump\t// in\n    tag_348:\n      swap2\n      pop\n        /* \"contracts/Utils.sol\":7461:7653  if (UserTransaction[i].ToID == _fromaddress) {... */\n    tag_345:\n        /* \"contracts/Utils.sol\":7442:7445  i++ */\n      dup1\n      dup1\n      tag_349\n      swap1\n      tag_125\n      jump\t// in\n    tag_349:\n      swap2\n      pop\n      pop\n        /* \"contracts/Utils.sol\":7394:7663  for (uint256 i = 0; i < UserTransaction.length; i++) {... */\n      jump(tag_337)\n    tag_338:\n      pop\n        /* \"contracts/Utils.sol\":7701:7709  toAmount */\n      dup1\n        /* \"contracts/Utils.sol\":7688:7698  mainAmount */\n      dup3\n        /* \"contracts/Utils.sol\":7688:7709  mainAmount - toAmount */\n      tag_350\n      swap2\n      swap1\n      tag_351\n      jump\t// in\n    tag_350:\n        /* \"contracts/Utils.sol\":7672:7709  _remainamount = mainAmount - toAmount */\n      swap4\n      pop\n        /* \"contracts/Utils.sol\":7136:7716  {... */\n      pop\n      pop\n      pop\n        /* \"contracts/Utils.sol\":6962:7716  function ReturnRemainingAmount(... */\n      swap4\n      swap3\n      pop\n      pop\n      pop\n      jump\t// out\n        /* \"contracts/Utils.sol\":2956:3775  function ReadTransactionsByUser(address _useraddress)... */\n    tag_56:\n        /* \"contracts/Utils.sol\":3055:3096  PatchTransaction[] memory UserTransaction */\n      0x60\n        /* \"contracts/Utils.sol\":3112:3131  uint256 MatchedRows */\n      0x00\n        /* \"contracts/Utils.sol\":3141:3175  PatchTransaction[] memory TempTran */\n      dup1\n        /* \"contracts/Utils.sol\":3214:3232  PatchTrannsactions */\n      0x05\n        /* \"contracts/Utils.sol\":3214:3239  PatchTrannsactions.length */\n      dup1\n      sload\n      swap1\n      pop\n        /* \"contracts/Utils.sol\":3178:3249  new PatchTransaction[](... */\n      0xffffffffffffffff\n      dup2\n      gt\n      iszero\n      tag_353\n      jumpi\n      tag_354\n      tag_80\n      jump\t// in\n    tag_354:\n    tag_353:\n      mload(0x40)\n      swap1\n      dup1\n      dup3\n      mstore\n      dup1\n      0x20\n      mul\n      0x20\n      add\n      dup3\n      add\n      0x40\n      mstore\n      dup1\n      iszero\n      tag_355\n      jumpi\n      dup2\n      0x20\n      add\n    tag_356:\n      tag_357\n      tag_157\n      jump\t// in\n    tag_357:\n      dup2\n      mstore\n      0x20\n      add\n      swap1\n      0x01\n      swap1\n      sub\n      swap1\n      dup2\n      tag_356\n      jumpi\n      swap1\n      pop\n    tag_355:\n      pop\n        /* \"contracts/Utils.sol\":3141:3249  PatchTransaction[] memory TempTran = new PatchTransaction[](... */\n      swap1\n      pop\n        /* \"contracts/Utils.sol\":3264:3273  uint256 i */\n      0x00\n        /* \"contracts/Utils.sol\":3259:3545  for (uint256 i = 0; i < PatchTrannsactions.length; i++) {... */\n    tag_358:\n        /* \"contracts/Utils.sol\":3283:3301  PatchTrannsactions */\n      0x05\n        /* \"contracts/Utils.sol\":3283:3308  PatchTrannsactions.length */\n      dup1\n      sload\n      swap1\n      pop\n        /* \"contracts/Utils.sol\":3279:3280  i */\n      dup2\n        /* \"contracts/Utils.sol\":3279:3308  i < PatchTrannsactions.length */\n      lt\n        /* \"contracts/Utils.sol\":3259:3545  for (uint256 i = 0; i < PatchTrannsactions.length; i++) {... */\n      iszero\n      tag_359\n      jumpi\n        /* \"contracts/Utils.sol\":3412:3424  _useraddress */\n      dup5\n        /* \"contracts/Utils.sol\":3382:3424  PatchTrannsactions[i].ToID == _useraddress */\n      0xffffffffffffffffffffffffffffffffffffffff\n      and\n        /* \"contracts/Utils.sol\":3382:3400  PatchTrannsactions */\n      0x05\n        /* \"contracts/Utils.sol\":3401:3402  i */\n      dup3\n        /* \"contracts/Utils.sol\":3382:3403  PatchTrannsactions[i] */\n      dup2\n      sload\n      dup2\n      lt\n      tag_361\n      jumpi\n      tag_362\n      tag_93\n      jump\t// in\n    tag_362:\n    tag_361:\n      swap1\n      0x00\n      mstore\n      keccak256(0x00, 0x20)\n      swap1\n      0x07\n      mul\n      add\n        /* \"contracts/Utils.sol\":3382:3408  PatchTrannsactions[i].ToID */\n      0x04\n      add\n      0x00\n      swap1\n      sload\n      swap1\n      0x0100\n      exp\n      swap1\n      div\n      0xffffffffffffffffffffffffffffffffffffffff\n      and\n        /* \"contracts/Utils.sol\":3382:3424  PatchTrannsactions[i].ToID == _useraddress */\n      0xffffffffffffffffffffffffffffffffffffffff\n      and\n      eq\n        /* \"contracts/Utils.sol\":3378:3535  if (PatchTrannsactions[i].ToID == _useraddress) {... */\n      iszero\n      tag_364\n      jumpi\n        /* \"contracts/Utils.sol\":3468:3486  PatchTrannsactions */\n      0x05\n        /* \"contracts/Utils.sol\":3487:3488  i */\n      dup2\n        /* \"contracts/Utils.sol\":3468:3489  PatchTrannsactions[i] */\n      dup2\n      sload\n      dup2\n      lt\n      tag_365\n      jumpi\n      tag_366\n      tag_93\n      jump\t// in\n    tag_366:\n    tag_365:\n      swap1\n      0x00\n      mstore\n      keccak256(0x00, 0x20)\n      swap1\n      0x07\n      mul\n      add\n        /* \"contracts/Utils.sol\":3444:3489  TempTran[MatchedRows] = PatchTrannsactions[i] */\n      mload(0x40)\n      dup1\n      0xe0\n      add\n      0x40\n      mstore\n      swap1\n      dup2\n      0x00\n      dup3\n      add\n      dup1\n      sload\n      tag_368\n      swap1\n      tag_102\n      jump\t// in\n    tag_368:\n      dup1\n      0x1f\n      add\n      0x20\n      dup1\n      swap2\n      div\n      mul\n      0x20\n      add\n      mload(0x40)\n      swap1\n      dup2\n      add\n      0x40\n      mstore\n      dup1\n      swap3\n      swap2\n      swap1\n      dup2\n      dup2\n      mstore\n      0x20\n      add\n      dup3\n      dup1\n      sload\n      tag_369\n      swap1\n      tag_102\n      jump\t// in\n    tag_369:\n      dup1\n      iszero\n      tag_370\n      jumpi\n      dup1\n      0x1f\n      lt\n      tag_371\n      jumpi\n      0x0100\n      dup1\n      dup4\n      sload\n      div\n      mul\n      dup4\n      mstore\n      swap2\n      0x20\n      add\n      swap2\n      jump(tag_370)\n    tag_371:\n      dup3\n      add\n      swap2\n      swap1\n      0x00\n      mstore\n      keccak256(0x00, 0x20)\n      swap1\n    tag_372:\n      dup2\n      sload\n      dup2\n      mstore\n      swap1\n      0x01\n      add\n      swap1\n      0x20\n      add\n      dup1\n      dup4\n      gt\n      tag_372\n      jumpi\n      dup3\n      swap1\n      sub\n      0x1f\n      and\n      dup3\n      add\n      swap2\n    tag_370:\n      pop\n      pop\n      pop\n      pop\n      pop\n      dup2\n      mstore\n      0x20\n      add\n      0x01\n      dup3\n      add\n      dup1\n      sload\n      tag_373\n      swap1\n      tag_102\n      jump\t// in\n    tag_373:\n      dup1\n      0x1f\n      add\n      0x20\n      dup1\n      swap2\n      div\n      mul\n      0x20\n      add\n      mload(0x40)\n      swap1\n      dup2\n      add\n      0x40\n      mstore\n      dup1\n      swap3\n      swap2\n      swap1\n      dup2\n      dup2\n      mstore\n      0x20\n      add\n      dup3\n      dup1\n      sload\n      tag_374\n      swap1\n      tag_102\n      jump\t// in\n    tag_374:\n      dup1\n      iszero\n      tag_375\n      jumpi\n      dup1\n      0x1f\n      lt\n      tag_376\n      jumpi\n      0x0100\n      dup1\n      dup4\n      sload\n      div\n      mul\n      dup4\n      mstore\n      swap2\n      0x20\n      add\n      swap2\n      jump(tag_375)\n    tag_376:\n      dup3\n      add\n      swap2\n      swap1\n      0x00\n      mstore\n      keccak256(0x00, 0x20)\n      swap1\n    tag_377:\n      dup2\n      sload\n      dup2\n      mstore\n      swap1\n      0x01\n      add\n      swap1\n      0x20\n      add\n      dup1\n      dup4\n      gt\n      tag_377\n      jumpi\n      dup3\n      swap1\n      sub\n      0x1f\n      and\n      dup3\n      add\n      swap2\n    tag_375:\n      pop\n      pop\n      pop\n      pop\n      pop\n      dup2\n      mstore\n      0x20\n      add\n      0x02\n      dup3\n      add\n      sload\n      dup2\n      mstore\n      0x20\n      add\n      0x03\n      dup3\n      add\n      0x00\n      swap1\n      sload\n      swap1\n      0x0100\n      exp\n      swap1\n      div\n      0xffffffffffffffffffffffffffffffffffffffff\n      and\n      0xffffffffffffffffffffffffffffffffffffffff\n      and\n      0xffffffffffffffffffffffffffffffffffffffff\n      and\n      dup2\n      mstore\n      0x20\n      add\n      0x04\n      dup3\n      add\n      0x00\n      swap1\n      sload\n      swap1\n      0x0100\n      exp\n      swap1\n      div\n      0xffffffffffffffffffffffffffffffffffffffff\n      and\n      0xffffffffffffffffffffffffffffffffffffffff\n      and\n      0xffffffffffffffffffffffffffffffffffffffff\n      and\n      dup2\n      mstore\n      0x20\n      add\n      0x05\n      dup3\n      add\n      sload\n      dup2\n      mstore\n      0x20\n      add\n      0x06\n      dup3\n      add\n      sload\n      dup2\n      mstore\n      pop\n      pop\n        /* \"contracts/Utils.sol\":3444:3452  TempTran */\n      dup3\n        /* \"contracts/Utils.sol\":3453:3464  MatchedRows */\n      dup5\n        /* \"contracts/Utils.sol\":3444:3465  TempTran[MatchedRows] */\n      dup2\n      mload\n      dup2\n      lt\n      tag_378\n      jumpi\n      tag_379\n      tag_93\n      jump\t// in\n    tag_379:\n    tag_378:\n      0x20\n      mul\n      0x20\n      add\n      add\n        /* \"contracts/Utils.sol\":3444:3489  TempTran[MatchedRows] = PatchTrannsactions[i] */\n      dup2\n      swap1\n      mstore\n      pop\n        /* \"contracts/Utils.sol\":3507:3520  MatchedRows++ */\n      dup3\n      dup1\n      tag_380\n      swap1\n      tag_125\n      jump\t// in\n    tag_380:\n      swap4\n      pop\n      pop\n        /* \"contracts/Utils.sol\":3378:3535  if (PatchTrannsactions[i].ToID == _useraddress) {... */\n    tag_364:\n        /* \"contracts/Utils.sol\":3310:3313  i++ */\n      dup1\n      dup1\n      tag_381\n      swap1\n      tag_125\n      jump\t// in\n    tag_381:\n      swap2\n      pop\n      pop\n        /* \"contracts/Utils.sol\":3259:3545  for (uint256 i = 0; i < PatchTrannsactions.length; i++) {... */\n      jump(tag_358)\n    tag_359:\n      pop\n        /* \"contracts/Utils.sol\":3595:3606  MatchedRows */\n      dup2\n        /* \"contracts/Utils.sol\":3572:3607  new PatchTransaction[](MatchedRows) */\n      0xffffffffffffffff\n      dup2\n      gt\n      iszero\n      tag_382\n      jumpi\n      tag_383\n      tag_80\n      jump\t// in\n    tag_383:\n    tag_382:\n      mload(0x40)\n      swap1\n      dup1\n      dup3\n      mstore\n      dup1\n      0x20\n      mul\n      0x20\n      add\n      dup3\n      add\n      0x40\n      mstore\n      dup1\n      iszero\n      tag_384\n      jumpi\n      dup2\n      0x20\n      add\n    tag_385:\n      tag_386\n      tag_157\n      jump\t// in\n    tag_386:\n      dup2\n      mstore\n      0x20\n      add\n      swap1\n      0x01\n      swap1\n      sub\n      swap1\n      dup2\n      tag_385\n      jumpi\n      swap1\n      pop\n    tag_384:\n      pop\n        /* \"contracts/Utils.sol\":3554:3607  UserTransaction = new PatchTransaction[](MatchedRows) */\n      swap3\n      pop\n        /* \"contracts/Utils.sol\":3635:3636  0 */\n      0x00\n        /* \"contracts/Utils.sol\":3621:3632  MatchedRows */\n      dup3\n        /* \"contracts/Utils.sol\":3621:3636  MatchedRows > 0 */\n      gt\n        /* \"contracts/Utils.sol\":3617:3769  if (MatchedRows > 0) {... */\n      iszero\n      tag_387\n      jumpi\n        /* \"contracts/Utils.sol\":3657:3666  uint256 i */\n      0x00\n        /* \"contracts/Utils.sol\":3652:3759  for (uint256 i = 0; i < MatchedRows; i++) {... */\n    tag_388:\n        /* \"contracts/Utils.sol\":3676:3687  MatchedRows */\n      dup3\n        /* \"contracts/Utils.sol\":3672:3673  i */\n      dup2\n        /* \"contracts/Utils.sol\":3672:3687  i < MatchedRows */\n      lt\n        /* \"contracts/Utils.sol\":3652:3759  for (uint256 i = 0; i < MatchedRows; i++) {... */\n      iszero\n      tag_389\n      jumpi\n        /* \"contracts/Utils.sol\":3733:3741  TempTran */\n      dup2\n        /* \"contracts/Utils.sol\":3742:3743  i */\n      dup2\n        /* \"contracts/Utils.sol\":3733:3744  TempTran[i] */\n      dup2\n      mload\n      dup2\n      lt\n      tag_391\n      jumpi\n      tag_392\n      tag_93\n      jump\t// in\n    tag_392:\n    tag_391:\n      0x20\n      mul\n      0x20\n      add\n      add\n      mload\n        /* \"contracts/Utils.sol\":3712:3727  UserTransaction */\n      dup5\n        /* \"contracts/Utils.sol\":3728:3729  i */\n      dup3\n        /* \"contracts/Utils.sol\":3712:3730  UserTransaction[i] */\n      dup2\n      mload\n      dup2\n      lt\n      tag_393\n      jumpi\n      tag_394\n      tag_93\n      jump\t// in\n    tag_394:\n    tag_393:\n      0x20\n      mul\n      0x20\n      add\n      add\n        /* \"contracts/Utils.sol\":3712:3744  UserTransaction[i] = TempTran[i] */\n      dup2\n      swap1\n      mstore\n      pop\n        /* \"contracts/Utils.sol\":3689:3692  i++ */\n      dup1\n      dup1\n      tag_395\n      swap1\n      tag_125\n      jump\t// in\n    tag_395:\n      swap2\n      pop\n      pop\n        /* \"contracts/Utils.sol\":3652:3759  for (uint256 i = 0; i < MatchedRows; i++) {... */\n      jump(tag_388)\n    tag_389:\n      pop\n        /* \"contracts/Utils.sol\":3617:3769  if (MatchedRows > 0) {... */\n    tag_387:\n        /* \"contracts/Utils.sol\":3102:3775  {... */\n      pop\n      pop\n        /* \"contracts/Utils.sol\":2956:3775  function ReadTransactionsByUser(address _useraddress)... */\n      swap2\n      swap1\n      pop\n      jump\t// out\n        /* \"contracts/Utils.sol\":445:465  address public Owner */\n    tag_59:\n      0x00\n      dup1\n      sload\n      swap1\n      0x0100\n      exp\n      swap1\n      div\n      0xffffffffffffffffffffffffffffffffffffffff\n      and\n      dup2\n      jump\t// out\n        /* \"contracts/Utils.sol\":963:1085  function ReadUser(address _address) public view returns (User memory) {... */\n    tag_64:\n        /* \"contracts/Utils.sol\":1020:1031  User memory */\n      tag_396\n      tag_84\n      jump\t// in\n    tag_396:\n        /* \"contracts/Utils.sol\":1050:1068  UserAddressMapping */\n      0x01\n        /* \"contracts/Utils.sol\":1050:1078  UserAddressMapping[_address] */\n      0x00\n        /* \"contracts/Utils.sol\":1069:1077  _address */\n      dup4\n        /* \"contracts/Utils.sol\":1050:1078  UserAddressMapping[_address] */\n      0xffffffffffffffffffffffffffffffffffffffff\n      and\n      0xffffffffffffffffffffffffffffffffffffffff\n      and\n      dup2\n      mstore\n      0x20\n      add\n      swap1\n      dup2\n      mstore\n      0x20\n      add\n      0x00\n      keccak256\n        /* \"contracts/Utils.sol\":1043:1078  return UserAddressMapping[_address] */\n      mload(0x40)\n      dup1\n      0xe0\n      add\n      0x40\n      mstore\n      swap1\n      dup2\n      0x00\n      dup3\n      add\n      dup1\n      sload\n      tag_398\n      swap1\n      tag_102\n      jump\t// in\n    tag_398:\n      dup1\n      0x1f\n      add\n      0x20\n      dup1\n      swap2\n      div\n      mul\n      0x20\n      add\n      mload(0x40)\n      swap1\n      dup2\n      add\n      0x40\n      mstore\n      dup1\n      swap3\n      swap2\n      swap1\n      dup2\n      dup2\n      mstore\n      0x20\n      add\n      dup3\n      dup1\n      sload\n      tag_399\n      swap1\n      tag_102\n      jump\t// in\n    tag_399:\n      dup1\n      iszero\n      tag_400\n      jumpi\n      dup1\n      0x1f\n      lt\n      tag_401\n      jumpi\n      0x0100\n      dup1\n      dup4\n      sload\n      div\n      mul\n      dup4\n      mstore\n      swap2\n      0x20\n      add\n      swap2\n      jump(tag_400)\n    tag_401:\n      dup3\n      add\n      swap2\n      swap1\n      0x00\n      mstore\n      keccak256(0x00, 0x20)\n      swap1\n    tag_402:\n      dup2\n      sload\n      dup2\n      mstore\n      swap1\n      0x01\n      add\n      swap1\n      0x20\n      add\n      dup1\n      dup4\n      gt\n      tag_402\n      jumpi\n      dup3\n      swap1\n      sub\n      0x1f\n      and\n      dup3\n      add\n      swap2\n    tag_400:\n      pop\n      pop\n      pop\n      pop\n      pop\n      dup2\n      mstore\n      0x20\n      add\n      0x01\n      dup3\n      add\n      dup1\n      sload\n      tag_403\n      swap1\n      tag_102\n      jump\t// in\n    tag_403:\n      dup1\n      0x1f\n      add\n      0x20\n      dup1\n      swap2\n      div\n      mul\n      0x20\n      add\n      mload(0x40)\n      swap1\n      dup2\n      add\n      0x40\n      mstore\n      dup1\n      swap3\n      swap2\n      swap1\n      dup2\n      dup2\n      mstore\n      0x20\n      add\n      dup3\n      dup1\n      sload\n      tag_404\n      swap1\n      tag_102\n      jump\t// in\n    tag_404:\n      dup1\n      iszero\n      tag_405\n      jumpi\n      dup1\n      0x1f\n      lt\n      tag_406\n      jumpi\n      0x0100\n      dup1\n      dup4\n      sload\n      div\n      mul\n      dup4\n      mstore\n      swap2\n      0x20\n      add\n      swap2\n      jump(tag_405)\n    tag_406:\n      dup3\n      add\n      swap2\n      swap1\n      0x00\n      mstore\n      keccak256(0x00, 0x20)\n      swap1\n    tag_407:\n      dup2\n      sload\n      dup2\n      mstore\n      swap1\n      0x01\n      add\n      swap1\n      0x20\n      add\n      dup1\n      dup4\n      gt\n      tag_407\n      jumpi\n      dup3\n      swap1\n      sub\n      0x1f\n      and\n      dup3\n      add\n      swap2\n    tag_405:\n      pop\n      pop\n      pop\n      pop\n      pop\n      dup2\n      mstore\n      0x20\n      add\n      0x02\n      dup3\n      add\n      0x00\n      swap1\n      sload\n      swap1\n      0x0100\n      exp\n      swap1\n      div\n      0xff\n      and\n      0x08\n      dup2\n      gt\n      iszero\n      tag_408\n      jumpi\n      tag_409\n      tag_90\n      jump\t// in\n    tag_409:\n    tag_408:\n      0x08\n      dup2\n      gt\n      iszero\n      tag_410\n      jumpi\n      tag_411\n      tag_90\n      jump\t// in\n    tag_411:\n    tag_410:\n      dup2\n      mstore\n      0x20\n      add\n      0x02\n      dup3\n      add\n      0x01\n      swap1\n      sload\n      swap1\n      0x0100\n      exp\n      swap1\n      div\n      0xff\n      and\n      0x02\n      dup2\n      gt\n      iszero\n      tag_412\n      jumpi\n      tag_413\n      tag_90\n      jump\t// in\n    tag_413:\n    tag_412:\n      0x02\n      dup2\n      gt\n      iszero\n      tag_414\n      jumpi\n      tag_415\n      tag_90\n      jump\t// in\n    tag_415:\n    tag_414:\n      dup2\n      mstore\n      0x20\n      add\n      0x03\n      dup3\n      add\n      sload\n      dup2\n      mstore\n      0x20\n      add\n      0x04\n      dup3\n      add\n      sload\n      dup2\n      mstore\n      0x20\n      add\n      0x05\n      dup3\n      add\n      0x00\n      swap1\n      sload\n      swap1\n      0x0100\n      exp\n      swap1\n      div\n      0xffffffffffffffffffffffffffffffffffffffff\n      and\n      0xffffffffffffffffffffffffffffffffffffffff\n      and\n      0xffffffffffffffffffffffffffffffffffffffff\n      and\n      dup2\n      mstore\n      pop\n      pop\n      swap1\n      pop\n        /* \"contracts/Utils.sol\":963:1085  function ReadUser(address _address) public view returns (User memory) {... */\n      swap2\n      swap1\n      pop\n      jump\t// out\n        /* \"contracts/Utils.sol\":2544:2666  function ReadDrug(string memory _regno) public view returns (Drug memory) {... */\n    tag_69:\n        /* \"contracts/Utils.sol\":2605:2616  Drug memory */\n      tag_416\n      tag_417\n      jump\t// in\n    tag_416:\n        /* \"contracts/Utils.sol\":2635:2651  DrugRegNoMapping */\n      0x03\n        /* \"contracts/Utils.sol\":2652:2658  _regno */\n      dup3\n        /* \"contracts/Utils.sol\":2635:2659  DrugRegNoMapping[_regno] */\n      mload(0x40)\n      tag_419\n      swap2\n      swap1\n      tag_420\n      jump\t// in\n    tag_419:\n      swap1\n      dup2\n      mstore\n      0x20\n      add\n      mload(0x40)\n      dup1\n      swap2\n      sub\n      swap1\n      keccak256\n        /* \"contracts/Utils.sol\":2628:2659  return DrugRegNoMapping[_regno] */\n      mload(0x40)\n      dup1\n      0x60\n      add\n      0x40\n      mstore\n      swap1\n      dup2\n      0x00\n      dup3\n      add\n      dup1\n      sload\n      tag_421\n      swap1\n      tag_102\n      jump\t// in\n    tag_421:\n      dup1\n      0x1f\n      add\n      0x20\n      dup1\n      swap2\n      div\n      mul\n      0x20\n      add\n      mload(0x40)\n      swap1\n      dup2\n      add\n      0x40\n      mstore\n      dup1\n      swap3\n      swap2\n      swap1\n      dup2\n      dup2\n      mstore\n      0x20\n      add\n      dup3\n      dup1\n      sload\n      tag_422\n      swap1\n      tag_102\n      jump\t// in\n    tag_422:\n      dup1\n      iszero\n      tag_423\n      jumpi\n      dup1\n      0x1f\n      lt\n      tag_424\n      jumpi\n      0x0100\n      dup1\n      dup4\n      sload\n      div\n      mul\n      dup4\n      mstore\n      swap2\n      0x20\n      add\n      swap2\n      jump(tag_423)\n    tag_424:\n      dup3\n      add\n      swap2\n      swap1\n      0x00\n      mstore\n      keccak256(0x00, 0x20)\n      swap1\n    tag_425:\n      dup2\n      sload\n      dup2\n      mstore\n      swap1\n      0x01\n      add\n      swap1\n      0x20\n      add\n      dup1\n      dup4\n      gt\n      tag_425\n      jumpi\n      dup3\n      swap1\n      sub\n      0x1f\n      and\n      dup3\n      add\n      swap2\n    tag_423:\n      pop\n      pop\n      pop\n      pop\n      pop\n      dup2\n      mstore\n      0x20\n      add\n      0x01\n      dup3\n      add\n      0x00\n      swap1\n      sload\n      swap1\n      0x0100\n      exp\n      swap1\n      div\n      0xffffffffffffffffffffffffffffffffffffffff\n      and\n      0xffffffffffffffffffffffffffffffffffffffff\n      and\n      0xffffffffffffffffffffffffffffffffffffffff\n      and\n      dup2\n      mstore\n      0x20\n      add\n      0x01\n      dup3\n      add\n      0x14\n      swap1\n      sload\n      swap1\n      0x0100\n      exp\n      swap1\n      div\n      0xff\n      and\n      0x02\n      dup2\n      gt\n      iszero\n      tag_426\n      jumpi\n      tag_427\n      tag_90\n      jump\t// in\n    tag_427:\n    tag_426:\n      0x02\n      dup2\n      gt\n      iszero\n      tag_428\n      jumpi\n      tag_429\n      tag_90\n      jump\t// in\n    tag_429:\n    tag_428:\n      dup2\n      mstore\n      pop\n      pop\n      swap1\n      pop\n        /* \"contracts/Utils.sol\":2544:2666  function ReadDrug(string memory _regno) public view returns (Drug memory) {... */\n      swap2\n      swap1\n      pop\n      jump\t// out\n        /* \"contracts/Utils.sol\":203:427  function compareStringsbyBytes(string memory s1, string memory s2)... */\n    tag_74:\n        /* \"contracts/Utils.sol\":315:319  bool */\n      0x00\n        /* \"contracts/Utils.sol\":416:418  s2 */\n      dup2\n        /* \"contracts/Utils.sol\":399:419  abi.encodePacked(s2) */\n      add(0x20, mload(0x40))\n      tag_431\n      swap2\n      swap1\n      tag_420\n      jump\t// in\n    tag_431:\n      mload(0x40)\n      0x20\n      dup2\n      dup4\n      sub\n      sub\n      dup2\n      mstore\n      swap1\n      0x40\n      mstore\n        /* \"contracts/Utils.sol\":389:420  keccak256(abi.encodePacked(s2)) */\n      dup1\n      mload\n      swap1\n      0x20\n      add\n      keccak256\n        /* \"contracts/Utils.sol\":381:383  s1 */\n      dup4\n        /* \"contracts/Utils.sol\":364:384  abi.encodePacked(s1) */\n      add(0x20, mload(0x40))\n      tag_432\n      swap2\n      swap1\n      tag_420\n      jump\t// in\n    tag_432:\n      mload(0x40)\n      0x20\n      dup2\n      dup4\n      sub\n      sub\n      dup2\n      mstore\n      swap1\n      0x40\n      mstore\n        /* \"contracts/Utils.sol\":354:385  keccak256(abi.encodePacked(s1)) */\n      dup1\n      mload\n      swap1\n      0x20\n      add\n      keccak256\n        /* \"contracts/Utils.sol\":354:420  keccak256(abi.encodePacked(s1)) == keccak256(abi.encodePacked(s2)) */\n      eq\n        /* \"contracts/Utils.sol\":335:420  return... */\n      swap1\n      pop\n        /* \"contracts/Utils.sol\":203:427  function compareStringsbyBytes(string memory s1, string memory s2)... */\n      swap3\n      swap2\n      pop\n      pop\n      jump\t// out\n    tag_84:\n      mload(0x40)\n      dup1\n      0xe0\n      add\n      0x40\n      mstore\n      dup1\n      0x60\n      dup2\n      mstore\n      0x20\n      add\n      0x60\n      dup2\n      mstore\n      0x20\n      add\n      0x00\n      0x08\n      dup2\n      gt\n      iszero\n      tag_433\n      jumpi\n      tag_434\n      tag_90\n      jump\t// in\n    tag_434:\n    tag_433:\n      dup2\n      mstore\n      0x20\n      add\n      0x00\n      0x02\n      dup2\n      gt\n      iszero\n      tag_435\n      jumpi\n      tag_436\n      tag_90\n      jump\t// in\n    tag_436:\n    tag_435:\n      dup2\n      mstore\n      0x20\n      add\n      0x00\n      dup2\n      mstore\n      0x20\n      add\n      0x00\n      dup2\n      mstore\n      0x20\n      add\n      and(0xffffffffffffffffffffffffffffffffffffffff, 0x00)\n      dup2\n      mstore\n      pop\n      swap1\n      jump\t// out\n    tag_157:\n      mload(0x40)\n      dup1\n      0xe0\n      add\n      0x40\n      mstore\n      dup1\n      0x60\n      dup2\n      mstore\n      0x20\n      add\n      0x60\n      dup2\n      mstore\n      0x20\n      add\n      0x00\n      dup2\n      mstore\n      0x20\n      add\n      and(0xffffffffffffffffffffffffffffffffffffffff, 0x00)\n      dup2\n      mstore\n      0x20\n      add\n      and(0xffffffffffffffffffffffffffffffffffffffff, 0x00)\n      dup2\n      mstore\n      0x20\n      add\n      0x00\n      dup2\n      mstore\n      0x20\n      add\n      0x00\n      dup2\n      mstore\n      pop\n      swap1\n      jump\t// out\n    tag_417:\n      mload(0x40)\n      dup1\n      0x60\n      add\n      0x40\n      mstore\n      dup1\n      0x60\n      dup2\n      mstore\n      0x20\n      add\n      and(0xffffffffffffffffffffffffffffffffffffffff, 0x00)\n      dup2\n      mstore\n      0x20\n      add\n      0x00\n      0x02\n      dup2\n      gt\n      iszero\n      tag_437\n      jumpi\n      tag_438\n      tag_90\n      jump\t// in\n    tag_438:\n    tag_437:\n      dup2\n      mstore\n      pop\n      swap1\n      jump\t// out\n        /* \"#utility.yul\":7:419   */\n    tag_440:\n        /* \"#utility.yul\":85:90   */\n      0x00\n        /* \"#utility.yul\":110:176   */\n      tag_442\n        /* \"#utility.yul\":126:175   */\n      tag_443\n        /* \"#utility.yul\":168:174   */\n      dup5\n        /* \"#utility.yul\":126:175   */\n      tag_444\n      jump\t// in\n    tag_443:\n        /* \"#utility.yul\":110:176   */\n      tag_445\n      jump\t// in\n    tag_442:\n        /* \"#utility.yul\":101:176   */\n      swap1\n      pop\n        /* \"#utility.yul\":199:205   */\n      dup3\n        /* \"#utility.yul\":192:197   */\n      dup2\n        /* \"#utility.yul\":185:206   */\n      mstore\n        /* \"#utility.yul\":237:241   */\n      0x20\n        /* \"#utility.yul\":230:235   */\n      dup2\n        /* \"#utility.yul\":226:242   */\n      add\n        /* \"#utility.yul\":275:278   */\n      dup5\n        /* \"#utility.yul\":266:272   */\n      dup5\n        /* \"#utility.yul\":261:264   */\n      dup5\n        /* \"#utility.yul\":257:273   */\n      add\n        /* \"#utility.yul\":254:279   */\n      gt\n        /* \"#utility.yul\":251:363   */\n      iszero\n      tag_446\n      jumpi\n        /* \"#utility.yul\":282:361   */\n      tag_447\n      tag_448\n      jump\t// in\n    tag_447:\n        /* \"#utility.yul\":251:363   */\n    tag_446:\n        /* \"#utility.yul\":372:413   */\n      tag_449\n        /* \"#utility.yul\":406:412   */\n      dup5\n        /* \"#utility.yul\":401:404   */\n      dup3\n        /* \"#utility.yul\":396:399   */\n      dup6\n        /* \"#utility.yul\":372:413   */\n      tag_450\n      jump\t// in\n    tag_449:\n        /* \"#utility.yul\":91:419   */\n      pop\n        /* \"#utility.yul\":7:419   */\n      swap4\n      swap3\n      pop\n      pop\n      pop\n      jump\t// out\n        /* \"#utility.yul\":425:564   */\n    tag_451:\n        /* \"#utility.yul\":471:476   */\n      0x00\n        /* \"#utility.yul\":509:515   */\n      dup2\n        /* \"#utility.yul\":496:516   */\n      calldataload\n        /* \"#utility.yul\":487:516   */\n      swap1\n      pop\n        /* \"#utility.yul\":525:558   */\n      tag_453\n        /* \"#utility.yul\":552:557   */\n      dup2\n        /* \"#utility.yul\":525:558   */\n      tag_454\n      jump\t// in\n    tag_453:\n        /* \"#utility.yul\":425:564   */\n      swap3\n      swap2\n      pop\n      pop\n      jump\t// out\n        /* \"#utility.yul\":570:733   */\n    tag_455:\n        /* \"#utility.yul\":628:633   */\n      0x00\n        /* \"#utility.yul\":666:672   */\n      dup2\n        /* \"#utility.yul\":653:673   */\n      calldataload\n        /* \"#utility.yul\":644:673   */\n      swap1\n      pop\n        /* \"#utility.yul\":682:727   */\n      tag_457\n        /* \"#utility.yul\":721:726   */\n      dup2\n        /* \"#utility.yul\":682:727   */\n      tag_458\n      jump\t// in\n    tag_457:\n        /* \"#utility.yul\":570:733   */\n      swap3\n      swap2\n      pop\n      pop\n      jump\t// out\n        /* \"#utility.yul\":753:1093   */\n    tag_459:\n        /* \"#utility.yul\":809:814   */\n      0x00\n        /* \"#utility.yul\":858:861   */\n      dup3\n        /* \"#utility.yul\":851:855   */\n      0x1f\n        /* \"#utility.yul\":843:849   */\n      dup4\n        /* \"#utility.yul\":839:856   */\n      add\n        /* \"#utility.yul\":835:862   */\n      slt\n        /* \"#utility.yul\":825:947   */\n      tag_461\n      jumpi\n        /* \"#utility.yul\":866:945   */\n      tag_462\n      tag_463\n      jump\t// in\n    tag_462:\n        /* \"#utility.yul\":825:947   */\n    tag_461:\n        /* \"#utility.yul\":983:989   */\n      dup2\n        /* \"#utility.yul\":970:990   */\n      calldataload\n        /* \"#utility.yul\":1008:1087   */\n      tag_464\n        /* \"#utility.yul\":1083:1086   */\n      dup5\n        /* \"#utility.yul\":1075:1081   */\n      dup3\n        /* \"#utility.yul\":1068:1072   */\n      0x20\n        /* \"#utility.yul\":1060:1066   */\n      dup7\n        /* \"#utility.yul\":1056:1073   */\n      add\n        /* \"#utility.yul\":1008:1087   */\n      tag_440\n      jump\t// in\n    tag_464:\n        /* \"#utility.yul\":999:1087   */\n      swap2\n      pop\n        /* \"#utility.yul\":815:1093   */\n      pop\n        /* \"#utility.yul\":753:1093   */\n      swap3\n      swap2\n      pop\n      pop\n      jump\t// out\n        /* \"#utility.yul\":1099:1238   */\n    tag_465:\n        /* \"#utility.yul\":1145:1150   */\n      0x00\n        /* \"#utility.yul\":1183:1189   */\n      dup2\n        /* \"#utility.yul\":1170:1190   */\n      calldataload\n        /* \"#utility.yul\":1161:1190   */\n      swap1\n      pop\n        /* \"#utility.yul\":1199:1232   */\n      tag_467\n        /* \"#utility.yul\":1226:1231   */\n      dup2\n        /* \"#utility.yul\":1199:1232   */\n      tag_468\n      jump\t// in\n    tag_467:\n        /* \"#utility.yul\":1099:1238   */\n      swap3\n      swap2\n      pop\n      pop\n      jump\t// out\n        /* \"#utility.yul\":1244:1573   */\n    tag_55:\n        /* \"#utility.yul\":1303:1309   */\n      0x00\n        /* \"#utility.yul\":1352:1354   */\n      0x20\n        /* \"#utility.yul\":1340:1349   */\n      dup3\n        /* \"#utility.yul\":1331:1338   */\n      dup5\n        /* \"#utility.yul\":1327:1350   */\n      sub\n        /* \"#utility.yul\":1323:1355   */\n      slt\n        /* \"#utility.yul\":1320:1439   */\n      iszero\n      tag_470\n      jumpi\n        /* \"#utility.yul\":1358:1437   */\n      tag_471\n      tag_472\n      jump\t// in\n    tag_471:\n        /* \"#utility.yul\":1320:1439   */\n    tag_470:\n        /* \"#utility.yul\":1478:1479   */\n      0x00\n        /* \"#utility.yul\":1503:1556   */\n      tag_473\n        /* \"#utility.yul\":1548:1555   */\n      dup5\n        /* \"#utility.yul\":1539:1545   */\n      dup3\n        /* \"#utility.yul\":1528:1537   */\n      dup6\n        /* \"#utility.yul\":1524:1546   */\n      add\n        /* \"#utility.yul\":1503:1556   */\n      tag_451\n      jump\t// in\n    tag_473:\n        /* \"#utility.yul\":1493:1556   */\n      swap2\n      pop\n        /* \"#utility.yul\":1449:1566   */\n      pop\n        /* \"#utility.yul\":1244:1573   */\n      swap3\n      swap2\n      pop\n      pop\n      jump\t// out\n        /* \"#utility.yul\":1579:1932   */\n    tag_18:\n        /* \"#utility.yul\":1650:1656   */\n      0x00\n        /* \"#utility.yul\":1699:1701   */\n      0x20\n        /* \"#utility.yul\":1687:1696   */\n      dup3\n        /* \"#utility.yul\":1678:1685   */\n      dup5\n        /* \"#utility.yul\":1674:1697   */\n      sub\n        /* \"#utility.yul\":1670:1702   */\n      slt\n        /* \"#utility.yul\":1667:1786   */\n      iszero\n      tag_475\n      jumpi\n        /* \"#utility.yul\":1705:1784   */\n      tag_476\n      tag_472\n      jump\t// in\n    tag_476:\n        /* \"#utility.yul\":1667:1786   */\n    tag_475:\n        /* \"#utility.yul\":1825:1826   */\n      0x00\n        /* \"#utility.yul\":1850:1915   */\n      tag_477\n        /* \"#utility.yul\":1907:1914   */\n      dup5\n        /* \"#utility.yul\":1898:1904   */\n      dup3\n        /* \"#utility.yul\":1887:1896   */\n      dup6\n        /* \"#utility.yul\":1883:1905   */\n      add\n        /* \"#utility.yul\":1850:1915   */\n      tag_455\n      jump\t// in\n    tag_477:\n        /* \"#utility.yul\":1840:1915   */\n      swap2\n      pop\n        /* \"#utility.yul\":1796:1925   */\n      pop\n        /* \"#utility.yul\":1579:1932   */\n      swap3\n      swap2\n      pop\n      pop\n      jump\t// out\n        /* \"#utility.yul\":1938:2447   */\n    tag_41:\n        /* \"#utility.yul\":2007:2013   */\n      0x00\n        /* \"#utility.yul\":2056:2058   */\n      0x20\n        /* \"#utility.yul\":2044:2053   */\n      dup3\n        /* \"#utility.yul\":2035:2042   */\n      dup5\n        /* \"#utility.yul\":2031:2054   */\n      sub\n        /* \"#utility.yul\":2027:2059   */\n      slt\n        /* \"#utility.yul\":2024:2143   */\n      iszero\n      tag_479\n      jumpi\n        /* \"#utility.yul\":2062:2141   */\n      tag_480\n      tag_472\n      jump\t// in\n    tag_480:\n        /* \"#utility.yul\":2024:2143   */\n    tag_479:\n        /* \"#utility.yul\":2210:2211   */\n      0x00\n        /* \"#utility.yul\":2199:2208   */\n      dup3\n        /* \"#utility.yul\":2195:2212   */\n      add\n        /* \"#utility.yul\":2182:2213   */\n      calldataload\n        /* \"#utility.yul\":2240:2258   */\n      0xffffffffffffffff\n        /* \"#utility.yul\":2232:2238   */\n      dup2\n        /* \"#utility.yul\":2229:2259   */\n      gt\n        /* \"#utility.yul\":2226:2343   */\n      iszero\n      tag_481\n      jumpi\n        /* \"#utility.yul\":2262:2341   */\n      tag_482\n      tag_483\n      jump\t// in\n    tag_482:\n        /* \"#utility.yul\":2226:2343   */\n    tag_481:\n        /* \"#utility.yul\":2367:2430   */\n      tag_484\n        /* \"#utility.yul\":2422:2429   */\n      dup5\n        /* \"#utility.yul\":2413:2419   */\n      dup3\n        /* \"#utility.yul\":2402:2411   */\n      dup6\n        /* \"#utility.yul\":2398:2420   */\n      add\n        /* \"#utility.yul\":2367:2430   */\n      tag_459\n      jump\t// in\n    tag_484:\n        /* \"#utility.yul\":2357:2430   */\n      swap2\n      pop\n        /* \"#utility.yul\":2153:2440   */\n      pop\n        /* \"#utility.yul\":1938:2447   */\n      swap3\n      swap2\n      pop\n      pop\n      jump\t// out\n        /* \"#utility.yul\":2453:3287   */\n    tag_36:\n        /* \"#utility.yul\":2541:2547   */\n      0x00\n        /* \"#utility.yul\":2549:2555   */\n      dup1\n        /* \"#utility.yul\":2598:2600   */\n      0x40\n        /* \"#utility.yul\":2586:2595   */\n      dup4\n        /* \"#utility.yul\":2577:2584   */\n      dup6\n        /* \"#utility.yul\":2573:2596   */\n      sub\n        /* \"#utility.yul\":2569:2601   */\n      slt\n        /* \"#utility.yul\":2566:2685   */\n      iszero\n      tag_486\n      jumpi\n        /* \"#utility.yul\":2604:2683   */\n      tag_487\n      tag_472\n      jump\t// in\n    tag_487:\n        /* \"#utility.yul\":2566:2685   */\n    tag_486:\n        /* \"#utility.yul\":2752:2753   */\n      0x00\n        /* \"#utility.yul\":2741:2750   */\n      dup4\n        /* \"#utility.yul\":2737:2754   */\n      add\n        /* \"#utility.yul\":2724:2755   */\n      calldataload\n        /* \"#utility.yul\":2782:2800   */\n      0xffffffffffffffff\n        /* \"#utility.yul\":2774:2780   */\n      dup2\n        /* \"#utility.yul\":2771:2801   */\n      gt\n        /* \"#utility.yul\":2768:2885   */\n      iszero\n      tag_488\n      jumpi\n        /* \"#utility.yul\":2804:2883   */\n      tag_489\n      tag_483\n      jump\t// in\n    tag_489:\n        /* \"#utility.yul\":2768:2885   */\n    tag_488:\n        /* \"#utility.yul\":2909:2972   */\n      tag_490\n        /* \"#utility.yul\":2964:2971   */\n      dup6\n        /* \"#utility.yul\":2955:2961   */\n      dup3\n        /* \"#utility.yul\":2944:2953   */\n      dup7\n        /* \"#utility.yul\":2940:2962   */\n      add\n        /* \"#utility.yul\":2909:2972   */\n      tag_459\n      jump\t// in\n    tag_490:\n        /* \"#utility.yul\":2899:2972   */\n      swap3\n      pop\n        /* \"#utility.yul\":2695:2982   */\n      pop\n        /* \"#utility.yul\":3049:3051   */\n      0x20\n        /* \"#utility.yul\":3038:3047   */\n      dup4\n        /* \"#utility.yul\":3034:3052   */\n      add\n        /* \"#utility.yul\":3021:3053   */\n      calldataload\n        /* \"#utility.yul\":3080:3098   */\n      0xffffffffffffffff\n        /* \"#utility.yul\":3072:3078   */\n      dup2\n        /* \"#utility.yul\":3069:3099   */\n      gt\n        /* \"#utility.yul\":3066:3183   */\n      iszero\n      tag_491\n      jumpi\n        /* \"#utility.yul\":3102:3181   */\n      tag_492\n      tag_483\n      jump\t// in\n    tag_492:\n        /* \"#utility.yul\":3066:3183   */\n    tag_491:\n        /* \"#utility.yul\":3207:3270   */\n      tag_493\n        /* \"#utility.yul\":3262:3269   */\n      dup6\n        /* \"#utility.yul\":3253:3259   */\n      dup3\n        /* \"#utility.yul\":3242:3251   */\n      dup7\n        /* \"#utility.yul\":3238:3260   */\n      add\n        /* \"#utility.yul\":3207:3270   */\n      tag_459\n      jump\t// in\n    tag_493:\n        /* \"#utility.yul\":3197:3270   */\n      swap2\n      pop\n        /* \"#utility.yul\":2992:3280   */\n      pop\n        /* \"#utility.yul\":2453:3287   */\n      swap3\n      pop\n      swap3\n      swap1\n      pop\n      jump\t// out\n        /* \"#utility.yul\":3293:4272   */\n    tag_30:\n        /* \"#utility.yul\":3390:3396   */\n      0x00\n        /* \"#utility.yul\":3398:3404   */\n      dup1\n        /* \"#utility.yul\":3406:3412   */\n      0x00\n        /* \"#utility.yul\":3455:3457   */\n      0x60\n        /* \"#utility.yul\":3443:3452   */\n      dup5\n        /* \"#utility.yul\":3434:3441   */\n      dup7\n        /* \"#utility.yul\":3430:3453   */\n      sub\n        /* \"#utility.yul\":3426:3458   */\n      slt\n        /* \"#utility.yul\":3423:3542   */\n      iszero\n      tag_495\n      jumpi\n        /* \"#utility.yul\":3461:3540   */\n      tag_496\n      tag_472\n      jump\t// in\n    tag_496:\n        /* \"#utility.yul\":3423:3542   */\n    tag_495:\n        /* \"#utility.yul\":3609:3610   */\n      0x00\n        /* \"#utility.yul\":3598:3607   */\n      dup5\n        /* \"#utility.yul\":3594:3611   */\n      add\n        /* \"#utility.yul\":3581:3612   */\n      calldataload\n        /* \"#utility.yul\":3639:3657   */\n      0xffffffffffffffff\n        /* \"#utility.yul\":3631:3637   */\n      dup2\n        /* \"#utility.yul\":3628:3658   */\n      gt\n        /* \"#utility.yul\":3625:3742   */\n      iszero\n      tag_497\n      jumpi\n        /* \"#utility.yul\":3661:3740   */\n      tag_498\n      tag_483\n      jump\t// in\n    tag_498:\n        /* \"#utility.yul\":3625:3742   */\n    tag_497:\n        /* \"#utility.yul\":3766:3829   */\n      tag_499\n        /* \"#utility.yul\":3821:3828   */\n      dup7\n        /* \"#utility.yul\":3812:3818   */\n      dup3\n        /* \"#utility.yul\":3801:3810   */\n      dup8\n        /* \"#utility.yul\":3797:3819   */\n      add\n        /* \"#utility.yul\":3766:3829   */\n      tag_459\n      jump\t// in\n    tag_499:\n        /* \"#utility.yul\":3756:3829   */\n      swap4\n      pop\n        /* \"#utility.yul\":3552:3839   */\n      pop\n        /* \"#utility.yul\":3906:3908   */\n      0x20\n        /* \"#utility.yul\":3895:3904   */\n      dup5\n        /* \"#utility.yul\":3891:3909   */\n      add\n        /* \"#utility.yul\":3878:3910   */\n      calldataload\n        /* \"#utility.yul\":3937:3955   */\n      0xffffffffffffffff\n        /* \"#utility.yul\":3929:3935   */\n      dup2\n        /* \"#utility.yul\":3926:3956   */\n      gt\n        /* \"#utility.yul\":3923:4040   */\n      iszero\n      tag_500\n      jumpi\n        /* \"#utility.yul\":3959:4038   */\n      tag_501\n      tag_483\n      jump\t// in\n    tag_501:\n        /* \"#utility.yul\":3923:4040   */\n    tag_500:\n        /* \"#utility.yul\":4064:4127   */\n      tag_502\n        /* \"#utility.yul\":4119:4126   */\n      dup7\n        /* \"#utility.yul\":4110:4116   */\n      dup3\n        /* \"#utility.yul\":4099:4108   */\n      dup8\n        /* \"#utility.yul\":4095:4117   */\n      add\n        /* \"#utility.yul\":4064:4127   */\n      tag_459\n      jump\t// in\n    tag_502:\n        /* \"#utility.yul\":4054:4127   */\n      swap3\n      pop\n        /* \"#utility.yul\":3849:4137   */\n      pop\n        /* \"#utility.yul\":4176:4178   */\n      0x40\n        /* \"#utility.yul\":4202:4255   */\n      tag_503\n        /* \"#utility.yul\":4247:4254   */\n      dup7\n        /* \"#utility.yul\":4238:4244   */\n      dup3\n        /* \"#utility.yul\":4227:4236   */\n      dup8\n        /* \"#utility.yul\":4223:4245   */\n      add\n        /* \"#utility.yul\":4202:4255   */\n      tag_451\n      jump\t// in\n    tag_503:\n        /* \"#utility.yul\":4192:4255   */\n      swap2\n      pop\n        /* \"#utility.yul\":4147:4265   */\n      pop\n        /* \"#utility.yul\":3293:4272   */\n      swap3\n      pop\n      swap3\n      pop\n      swap3\n      jump\t// out\n        /* \"#utility.yul\":4278:4607   */\n    tag_24:\n        /* \"#utility.yul\":4337:4343   */\n      0x00\n        /* \"#utility.yul\":4386:4388   */\n      0x20\n        /* \"#utility.yul\":4374:4383   */\n      dup3\n        /* \"#utility.yul\":4365:4372   */\n      dup5\n        /* \"#utility.yul\":4361:4384   */\n      sub\n        /* \"#utility.yul\":4357:4389   */\n      slt\n        /* \"#utility.yul\":4354:4473   */\n      iszero\n      tag_505\n      jumpi\n        /* \"#utility.yul\":4392:4471   */\n      tag_506\n      tag_472\n      jump\t// in\n    tag_506:\n        /* \"#utility.yul\":4354:4473   */\n    tag_505:\n        /* \"#utility.yul\":4512:4513   */\n      0x00\n        /* \"#utility.yul\":4537:4590   */\n      tag_507\n        /* \"#utility.yul\":4582:4589   */\n      dup5\n        /* \"#utility.yul\":4573:4579   */\n      dup3\n        /* \"#utility.yul\":4562:4571   */\n      dup6\n        /* \"#utility.yul\":4558:4580   */\n      add\n        /* \"#utility.yul\":4537:4590   */\n      tag_465\n      jump\t// in\n    tag_507:\n        /* \"#utility.yul\":4527:4590   */\n      swap2\n      pop\n        /* \"#utility.yul\":4483:4600   */\n      pop\n        /* \"#utility.yul\":4278:4607   */\n      swap3\n      swap2\n      pop\n      pop\n      jump\t// out\n        /* \"#utility.yul\":4613:4901   */\n    tag_508:\n        /* \"#utility.yul\":4748:4758   */\n      0x00\n        /* \"#utility.yul\":4783:4895   */\n      tag_510\n        /* \"#utility.yul\":4891:4894   */\n      dup4\n        /* \"#utility.yul\":4883:4889   */\n      dup4\n        /* \"#utility.yul\":4783:4895   */\n      tag_511\n      jump\t// in\n    tag_510:\n        /* \"#utility.yul\":4769:4895   */\n      swap1\n      pop\n        /* \"#utility.yul\":4613:4901   */\n      swap3\n      swap2\n      pop\n      pop\n      jump\t// out\n        /* \"#utility.yul\":4907:5143   */\n    tag_512:\n        /* \"#utility.yul\":5016:5026   */\n      0x00\n        /* \"#utility.yul\":5051:5137   */\n      tag_514\n        /* \"#utility.yul\":5133:5136   */\n      dup4\n        /* \"#utility.yul\":5125:5131   */\n      dup4\n        /* \"#utility.yul\":5051:5137   */\n      tag_515\n      jump\t// in\n    tag_514:\n        /* \"#utility.yul\":5037:5137   */\n      swap1\n      pop\n        /* \"#utility.yul\":4907:5143   */\n      swap3\n      swap2\n      pop\n      pop\n      jump\t// out\n        /* \"#utility.yul\":5149:5257   */\n    tag_516:\n        /* \"#utility.yul\":5226:5250   */\n      tag_518\n        /* \"#utility.yul\":5244:5249   */\n      dup2\n        /* \"#utility.yul\":5226:5250   */\n      tag_519\n      jump\t// in\n    tag_518:\n        /* \"#utility.yul\":5221:5224   */\n      dup3\n        /* \"#utility.yul\":5214:5251   */\n      mstore\n        /* \"#utility.yul\":5149:5257   */\n      pop\n      pop\n      jump\t// out\n        /* \"#utility.yul\":5263:5381   */\n    tag_520:\n        /* \"#utility.yul\":5350:5374   */\n      tag_522\n        /* \"#utility.yul\":5368:5373   */\n      dup2\n        /* \"#utility.yul\":5350:5374   */\n      tag_519\n      jump\t// in\n    tag_522:\n        /* \"#utility.yul\":5345:5348   */\n      dup3\n        /* \"#utility.yul\":5338:5375   */\n      mstore\n        /* \"#utility.yul\":5263:5381   */\n      pop\n      pop\n      jump\t// out\n        /* \"#utility.yul\":5461:6636   */\n    tag_523:\n        /* \"#utility.yul\":5646:5649   */\n      0x00\n        /* \"#utility.yul\":5675:5762   */\n      tag_525\n        /* \"#utility.yul\":5756:5761   */\n      dup3\n        /* \"#utility.yul\":5675:5762   */\n      tag_526\n      jump\t// in\n    tag_525:\n        /* \"#utility.yul\":5778:5897   */\n      tag_527\n        /* \"#utility.yul\":5890:5896   */\n      dup2\n        /* \"#utility.yul\":5885:5888   */\n      dup6\n        /* \"#utility.yul\":5778:5897   */\n      tag_528\n      jump\t// in\n    tag_527:\n        /* \"#utility.yul\":5771:5897   */\n      swap4\n      pop\n        /* \"#utility.yul\":5923:5926   */\n      dup4\n        /* \"#utility.yul\":5968:5972   */\n      0x20\n        /* \"#utility.yul\":5960:5966   */\n      dup3\n        /* \"#utility.yul\":5956:5973   */\n      mul\n        /* \"#utility.yul\":5951:5954   */\n      dup6\n        /* \"#utility.yul\":5947:5974   */\n      add\n        /* \"#utility.yul\":5998:6087   */\n      tag_529\n        /* \"#utility.yul\":6081:6086   */\n      dup6\n        /* \"#utility.yul\":5998:6087   */\n      tag_530\n      jump\t// in\n    tag_529:\n        /* \"#utility.yul\":6110:6117   */\n      dup1\n        /* \"#utility.yul\":6141:6142   */\n      0x00\n        /* \"#utility.yul\":6126:6591   */\n    tag_531:\n        /* \"#utility.yul\":6151:6157   */\n      dup6\n        /* \"#utility.yul\":6148:6149   */\n      dup2\n        /* \"#utility.yul\":6145:6158   */\n      lt\n        /* \"#utility.yul\":6126:6591   */\n      iszero\n      tag_533\n      jumpi\n        /* \"#utility.yul\":6222:6231   */\n      dup5\n        /* \"#utility.yul\":6216:6220   */\n      dup5\n        /* \"#utility.yul\":6212:6232   */\n      sub\n        /* \"#utility.yul\":6207:6210   */\n      dup10\n        /* \"#utility.yul\":6200:6233   */\n      mstore\n        /* \"#utility.yul\":6273:6279   */\n      dup2\n        /* \"#utility.yul\":6267:6280   */\n      mload\n        /* \"#utility.yul\":6301:6431   */\n      tag_534\n        /* \"#utility.yul\":6426:6430   */\n      dup6\n        /* \"#utility.yul\":6411:6424   */\n      dup3\n        /* \"#utility.yul\":6301:6431   */\n      tag_508\n      jump\t// in\n    tag_534:\n        /* \"#utility.yul\":6293:6431   */\n      swap5\n      pop\n        /* \"#utility.yul\":6454:6547   */\n      tag_535\n        /* \"#utility.yul\":6540:6546   */\n      dup4\n        /* \"#utility.yul\":6454:6547   */\n      tag_536\n      jump\t// in\n    tag_535:\n        /* \"#utility.yul\":6444:6547   */\n      swap3\n      pop\n        /* \"#utility.yul\":6576:6580   */\n      0x20\n        /* \"#utility.yul\":6571:6574   */\n      dup11\n        /* \"#utility.yul\":6567:6581   */\n      add\n        /* \"#utility.yul\":6560:6581   */\n      swap10\n      pop\n        /* \"#utility.yul\":6186:6591   */\n      pop\n        /* \"#utility.yul\":6173:6174   */\n      0x01\n        /* \"#utility.yul\":6170:6171   */\n      dup2\n        /* \"#utility.yul\":6166:6175   */\n      add\n        /* \"#utility.yul\":6161:6175   */\n      swap1\n      pop\n        /* \"#utility.yul\":6126:6591   */\n      jump(tag_531)\n    tag_533:\n        /* \"#utility.yul\":6130:6144   */\n      pop\n        /* \"#utility.yul\":6607:6611   */\n      dup3\n        /* \"#utility.yul\":6600:6611   */\n      swap8\n      pop\n        /* \"#utility.yul\":6627:6630   */\n      dup8\n        /* \"#utility.yul\":6620:6630   */\n      swap6\n      pop\n        /* \"#utility.yul\":5651:6636   */\n      pop\n      pop\n      pop\n      pop\n      pop\n        /* \"#utility.yul\":5461:6636   */\n      swap3\n      swap2\n      pop\n      pop\n      jump\t// out\n        /* \"#utility.yul\":6692:7763   */\n    tag_537:\n        /* \"#utility.yul\":6851:6854   */\n      0x00\n        /* \"#utility.yul\":6880:6954   */\n      tag_539\n        /* \"#utility.yul\":6948:6953   */\n      dup3\n        /* \"#utility.yul\":6880:6954   */\n      tag_540\n      jump\t// in\n    tag_539:\n        /* \"#utility.yul\":6970:7076   */\n      tag_541\n        /* \"#utility.yul\":7069:7075   */\n      dup2\n        /* \"#utility.yul\":7064:7067   */\n      dup6\n        /* \"#utility.yul\":6970:7076   */\n      tag_542\n      jump\t// in\n    tag_541:\n        /* \"#utility.yul\":6963:7076   */\n      swap4\n      pop\n        /* \"#utility.yul\":7102:7105   */\n      dup4\n        /* \"#utility.yul\":7147:7151   */\n      0x20\n        /* \"#utility.yul\":7139:7145   */\n      dup3\n        /* \"#utility.yul\":7135:7152   */\n      mul\n        /* \"#utility.yul\":7130:7133   */\n      dup6\n        /* \"#utility.yul\":7126:7153   */\n      add\n        /* \"#utility.yul\":7177:7253   */\n      tag_543\n        /* \"#utility.yul\":7247:7252   */\n      dup6\n        /* \"#utility.yul\":7177:7253   */\n      tag_544\n      jump\t// in\n    tag_543:\n        /* \"#utility.yul\":7276:7283   */\n      dup1\n        /* \"#utility.yul\":7307:7308   */\n      0x00\n        /* \"#utility.yul\":7292:7718   */\n    tag_545:\n        /* \"#utility.yul\":7317:7323   */\n      dup6\n        /* \"#utility.yul\":7314:7315   */\n      dup2\n        /* \"#utility.yul\":7311:7324   */\n      lt\n        /* \"#utility.yul\":7292:7718   */\n      iszero\n      tag_547\n      jumpi\n        /* \"#utility.yul\":7388:7397   */\n      dup5\n        /* \"#utility.yul\":7382:7386   */\n      dup5\n        /* \"#utility.yul\":7378:7398   */\n      sub\n        /* \"#utility.yul\":7373:7376   */\n      dup10\n        /* \"#utility.yul\":7366:7399   */\n      mstore\n        /* \"#utility.yul\":7439:7445   */\n      dup2\n        /* \"#utility.yul\":7433:7446   */\n      mload\n        /* \"#utility.yul\":7467:7571   */\n      tag_548\n        /* \"#utility.yul\":7566:7570   */\n      dup6\n        /* \"#utility.yul\":7551:7564   */\n      dup3\n        /* \"#utility.yul\":7467:7571   */\n      tag_512\n      jump\t// in\n    tag_548:\n        /* \"#utility.yul\":7459:7571   */\n      swap5\n      pop\n        /* \"#utility.yul\":7594:7674   */\n      tag_549\n        /* \"#utility.yul\":7667:7673   */\n      dup4\n        /* \"#utility.yul\":7594:7674   */\n      tag_550\n      jump\t// in\n    tag_549:\n        /* \"#utility.yul\":7584:7674   */\n      swap3\n      pop\n        /* \"#utility.yul\":7703:7707   */\n      0x20\n        /* \"#utility.yul\":7698:7701   */\n      dup11\n        /* \"#utility.yul\":7694:7708   */\n      add\n        /* \"#utility.yul\":7687:7708   */\n      swap10\n      pop\n        /* \"#utility.yul\":7352:7718   */\n      pop\n        /* \"#utility.yul\":7339:7340   */\n      0x01\n        /* \"#utility.yul\":7336:7337   */\n      dup2\n        /* \"#utility.yul\":7332:7341   */\n      add\n        /* \"#utility.yul\":7327:7341   */\n      swap1\n      pop\n        /* \"#utility.yul\":7292:7718   */\n      jump(tag_545)\n    tag_547:\n        /* \"#utility.yul\":7296:7310   */\n      pop\n        /* \"#utility.yul\":7734:7738   */\n      dup3\n        /* \"#utility.yul\":7727:7738   */\n      swap8\n      pop\n        /* \"#utility.yul\":7754:7757   */\n      dup8\n        /* \"#utility.yul\":7747:7757   */\n      swap6\n      pop\n        /* \"#utility.yul\":6856:7763   */\n      pop\n      pop\n      pop\n      pop\n      pop\n        /* \"#utility.yul\":6692:7763   */\n      swap3\n      swap2\n      pop\n      pop\n      jump\t// out\n        /* \"#utility.yul\":7769:7878   */\n    tag_551:\n        /* \"#utility.yul\":7850:7871   */\n      tag_553\n        /* \"#utility.yul\":7865:7870   */\n      dup2\n        /* \"#utility.yul\":7850:7871   */\n      tag_554\n      jump\t// in\n    tag_553:\n        /* \"#utility.yul\":7845:7848   */\n      dup3\n        /* \"#utility.yul\":7838:7872   */\n      mstore\n        /* \"#utility.yul\":7769:7878   */\n      pop\n      pop\n      jump\t// out\n        /* \"#utility.yul\":7884:8021   */\n    tag_555:\n        /* \"#utility.yul\":7969:8014   */\n      tag_557\n        /* \"#utility.yul\":8008:8013   */\n      dup2\n        /* \"#utility.yul\":7969:8014   */\n      tag_558\n      jump\t// in\n    tag_557:\n        /* \"#utility.yul\":7964:7967   */\n      dup3\n        /* \"#utility.yul\":7957:8015   */\n      mstore\n        /* \"#utility.yul\":7884:8021   */\n      pop\n      pop\n      jump\t// out\n        /* \"#utility.yul\":8027:8168   */\n    tag_559:\n        /* \"#utility.yul\":8114:8161   */\n      tag_561\n        /* \"#utility.yul\":8155:8160   */\n      dup2\n        /* \"#utility.yul\":8114:8161   */\n      tag_562\n      jump\t// in\n    tag_561:\n        /* \"#utility.yul\":8109:8112   */\n      dup3\n        /* \"#utility.yul\":8102:8162   */\n      mstore\n        /* \"#utility.yul\":8027:8168   */\n      pop\n      pop\n      jump\t// out\n        /* \"#utility.yul\":8174:8325   */\n    tag_563:\n        /* \"#utility.yul\":8271:8318   */\n      tag_565\n        /* \"#utility.yul\":8312:8317   */\n      dup2\n        /* \"#utility.yul\":8271:8318   */\n      tag_562\n      jump\t// in\n    tag_565:\n        /* \"#utility.yul\":8266:8269   */\n      dup3\n        /* \"#utility.yul\":8259:8319   */\n      mstore\n        /* \"#utility.yul\":8174:8325   */\n      pop\n      pop\n      jump\t// out\n        /* \"#utility.yul\":8331:8675   */\n    tag_566:\n        /* \"#utility.yul\":8409:8412   */\n      0x00\n        /* \"#utility.yul\":8437:8476   */\n      tag_568\n        /* \"#utility.yul\":8470:8475   */\n      dup3\n        /* \"#utility.yul\":8437:8476   */\n      tag_569\n      jump\t// in\n    tag_568:\n        /* \"#utility.yul\":8492:8553   */\n      tag_570\n        /* \"#utility.yul\":8546:8552   */\n      dup2\n        /* \"#utility.yul\":8541:8544   */\n      dup6\n        /* \"#utility.yul\":8492:8553   */\n      tag_571\n      jump\t// in\n    tag_570:\n        /* \"#utility.yul\":8485:8553   */\n      swap4\n      pop\n        /* \"#utility.yul\":8562:8614   */\n      tag_572\n        /* \"#utility.yul\":8607:8613   */\n      dup2\n        /* \"#utility.yul\":8602:8605   */\n      dup6\n        /* \"#utility.yul\":8595:8599   */\n      0x20\n        /* \"#utility.yul\":8588:8593   */\n      dup7\n        /* \"#utility.yul\":8584:8600   */\n      add\n        /* \"#utility.yul\":8562:8614   */\n      tag_573\n      jump\t// in\n    tag_572:\n        /* \"#utility.yul\":8639:8668   */\n      tag_574\n        /* \"#utility.yul\":8661:8667   */\n      dup2\n        /* \"#utility.yul\":8639:8668   */\n      tag_575\n      jump\t// in\n    tag_574:\n        /* \"#utility.yul\":8634:8637   */\n      dup5\n        /* \"#utility.yul\":8630:8669   */\n      add\n        /* \"#utility.yul\":8623:8669   */\n      swap2\n      pop\n        /* \"#utility.yul\":8413:8675   */\n      pop\n        /* \"#utility.yul\":8331:8675   */\n      swap3\n      swap2\n      pop\n      pop\n      jump\t// out\n        /* \"#utility.yul\":8681:9045   */\n    tag_576:\n        /* \"#utility.yul\":8769:8772   */\n      0x00\n        /* \"#utility.yul\":8797:8836   */\n      tag_578\n        /* \"#utility.yul\":8830:8835   */\n      dup3\n        /* \"#utility.yul\":8797:8836   */\n      tag_569\n      jump\t// in\n    tag_578:\n        /* \"#utility.yul\":8852:8923   */\n      tag_579\n        /* \"#utility.yul\":8916:8922   */\n      dup2\n        /* \"#utility.yul\":8911:8914   */\n      dup6\n        /* \"#utility.yul\":8852:8923   */\n      tag_580\n      jump\t// in\n    tag_579:\n        /* \"#utility.yul\":8845:8923   */\n      swap4\n      pop\n        /* \"#utility.yul\":8932:8984   */\n      tag_581\n        /* \"#utility.yul\":8977:8983   */\n      dup2\n        /* \"#utility.yul\":8972:8975   */\n      dup6\n        /* \"#utility.yul\":8965:8969   */\n      0x20\n        /* \"#utility.yul\":8958:8963   */\n      dup7\n        /* \"#utility.yul\":8954:8970   */\n      add\n        /* \"#utility.yul\":8932:8984   */\n      tag_573\n      jump\t// in\n    tag_581:\n        /* \"#utility.yul\":9009:9038   */\n      tag_582\n        /* \"#utility.yul\":9031:9037   */\n      dup2\n        /* \"#utility.yul\":9009:9038   */\n      tag_575\n      jump\t// in\n    tag_582:\n        /* \"#utility.yul\":9004:9007   */\n      dup5\n        /* \"#utility.yul\":9000:9039   */\n      add\n        /* \"#utility.yul\":8993:9039   */\n      swap2\n      pop\n        /* \"#utility.yul\":8773:9045   */\n      pop\n        /* \"#utility.yul\":8681:9045   */\n      swap3\n      swap2\n      pop\n      pop\n      jump\t// out\n        /* \"#utility.yul\":9051:9428   */\n    tag_583:\n        /* \"#utility.yul\":9157:9160   */\n      0x00\n        /* \"#utility.yul\":9185:9224   */\n      tag_585\n        /* \"#utility.yul\":9218:9223   */\n      dup3\n        /* \"#utility.yul\":9185:9224   */\n      tag_569\n      jump\t// in\n    tag_585:\n        /* \"#utility.yul\":9240:9329   */\n      tag_586\n        /* \"#utility.yul\":9322:9328   */\n      dup2\n        /* \"#utility.yul\":9317:9320   */\n      dup6\n        /* \"#utility.yul\":9240:9329   */\n      tag_587\n      jump\t// in\n    tag_586:\n        /* \"#utility.yul\":9233:9329   */\n      swap4\n      pop\n        /* \"#utility.yul\":9338:9390   */\n      tag_588\n        /* \"#utility.yul\":9383:9389   */\n      dup2\n        /* \"#utility.yul\":9378:9381   */\n      dup6\n        /* \"#utility.yul\":9371:9375   */\n      0x20\n        /* \"#utility.yul\":9364:9369   */\n      dup7\n        /* \"#utility.yul\":9360:9376   */\n      add\n        /* \"#utility.yul\":9338:9390   */\n      tag_573\n      jump\t// in\n    tag_588:\n        /* \"#utility.yul\":9415:9421   */\n      dup1\n        /* \"#utility.yul\":9410:9413   */\n      dup5\n        /* \"#utility.yul\":9406:9422   */\n      add\n        /* \"#utility.yul\":9399:9422   */\n      swap2\n      pop\n        /* \"#utility.yul\":9161:9428   */\n      pop\n        /* \"#utility.yul\":9051:9428   */\n      swap3\n      swap2\n      pop\n      pop\n      jump\t// out\n        /* \"#utility.yul\":9480:10278   */\n    tag_589:\n        /* \"#utility.yul\":9591:9594   */\n      0x00\n        /* \"#utility.yul\":9627:9631   */\n      0x60\n        /* \"#utility.yul\":9622:9625   */\n      dup4\n        /* \"#utility.yul\":9618:9632   */\n      add\n        /* \"#utility.yul\":9718:9722   */\n      0x00\n        /* \"#utility.yul\":9711:9716   */\n      dup4\n        /* \"#utility.yul\":9707:9723   */\n      add\n        /* \"#utility.yul\":9701:9724   */\n      mload\n        /* \"#utility.yul\":9771:9774   */\n      dup5\n        /* \"#utility.yul\":9765:9769   */\n      dup3\n        /* \"#utility.yul\":9761:9775   */\n      sub\n        /* \"#utility.yul\":9754:9758   */\n      0x00\n        /* \"#utility.yul\":9749:9752   */\n      dup7\n        /* \"#utility.yul\":9745:9759   */\n      add\n        /* \"#utility.yul\":9738:9776   */\n      mstore\n        /* \"#utility.yul\":9797:9870   */\n      tag_591\n        /* \"#utility.yul\":9865:9869   */\n      dup3\n        /* \"#utility.yul\":9851:9863   */\n      dup3\n        /* \"#utility.yul\":9797:9870   */\n      tag_566\n      jump\t// in\n    tag_591:\n        /* \"#utility.yul\":9789:9870   */\n      swap2\n      pop\n        /* \"#utility.yul\":9642:9881   */\n      pop\n        /* \"#utility.yul\":9971:9975   */\n      0x20\n        /* \"#utility.yul\":9964:9969   */\n      dup4\n        /* \"#utility.yul\":9960:9976   */\n      add\n        /* \"#utility.yul\":9954:9977   */\n      mload\n        /* \"#utility.yul\":9990:10053   */\n      tag_592\n        /* \"#utility.yul\":10047:10051   */\n      0x20\n        /* \"#utility.yul\":10042:10045   */\n      dup7\n        /* \"#utility.yul\":10038:10052   */\n      add\n        /* \"#utility.yul\":10024:10036   */\n      dup3\n        /* \"#utility.yul\":9990:10053   */\n      tag_516\n      jump\t// in\n    tag_592:\n        /* \"#utility.yul\":9891:10063   */\n      pop\n        /* \"#utility.yul\":10151:10155   */\n      0x40\n        /* \"#utility.yul\":10144:10149   */\n      dup4\n        /* \"#utility.yul\":10140:10156   */\n      add\n        /* \"#utility.yul\":10134:10157   */\n      mload\n        /* \"#utility.yul\":10170:10241   */\n      tag_593\n        /* \"#utility.yul\":10235:10239   */\n      0x40\n        /* \"#utility.yul\":10230:10233   */\n      dup7\n        /* \"#utility.yul\":10226:10240   */\n      add\n        /* \"#utility.yul\":10212:10224   */\n      dup3\n        /* \"#utility.yul\":10170:10241   */\n      tag_555\n      jump\t// in\n    tag_593:\n        /* \"#utility.yul\":10073:10251   */\n      pop\n        /* \"#utility.yul\":10268:10272   */\n      dup1\n        /* \"#utility.yul\":10261:10272   */\n      swap2\n      pop\n        /* \"#utility.yul\":9596:10278   */\n      pop\n        /* \"#utility.yul\":9480:10278   */\n      swap3\n      swap2\n      pop\n      pop\n      jump\t// out\n        /* \"#utility.yul\":10354:11932   */\n    tag_511:\n        /* \"#utility.yul\":10479:10482   */\n      0x00\n        /* \"#utility.yul\":10515:10519   */\n      0xe0\n        /* \"#utility.yul\":10510:10513   */\n      dup4\n        /* \"#utility.yul\":10506:10520   */\n      add\n        /* \"#utility.yul\":10607:10611   */\n      0x00\n        /* \"#utility.yul\":10600:10605   */\n      dup4\n        /* \"#utility.yul\":10596:10612   */\n      add\n        /* \"#utility.yul\":10590:10613   */\n      mload\n        /* \"#utility.yul\":10660:10663   */\n      dup5\n        /* \"#utility.yul\":10654:10658   */\n      dup3\n        /* \"#utility.yul\":10650:10664   */\n      sub\n        /* \"#utility.yul\":10643:10647   */\n      0x00\n        /* \"#utility.yul\":10638:10641   */\n      dup7\n        /* \"#utility.yul\":10634:10648   */\n      add\n        /* \"#utility.yul\":10627:10665   */\n      mstore\n        /* \"#utility.yul\":10686:10759   */\n      tag_595\n        /* \"#utility.yul\":10754:10758   */\n      dup3\n        /* \"#utility.yul\":10740:10752   */\n      dup3\n        /* \"#utility.yul\":10686:10759   */\n      tag_566\n      jump\t// in\n    tag_595:\n        /* \"#utility.yul\":10678:10759   */\n      swap2\n      pop\n        /* \"#utility.yul\":10530:10770   */\n      pop\n        /* \"#utility.yul\":10855:10859   */\n      0x20\n        /* \"#utility.yul\":10848:10853   */\n      dup4\n        /* \"#utility.yul\":10844:10860   */\n      add\n        /* \"#utility.yul\":10838:10861   */\n      mload\n        /* \"#utility.yul\":10908:10911   */\n      dup5\n        /* \"#utility.yul\":10902:10906   */\n      dup3\n        /* \"#utility.yul\":10898:10912   */\n      sub\n        /* \"#utility.yul\":10891:10895   */\n      0x20\n        /* \"#utility.yul\":10886:10889   */\n      dup7\n        /* \"#utility.yul\":10882:10896   */\n      add\n        /* \"#utility.yul\":10875:10913   */\n      mstore\n        /* \"#utility.yul\":10934:11007   */\n      tag_596\n        /* \"#utility.yul\":11002:11006   */\n      dup3\n        /* \"#utility.yul\":10988:11000   */\n      dup3\n        /* \"#utility.yul\":10934:11007   */\n      tag_566\n      jump\t// in\n    tag_596:\n        /* \"#utility.yul\":10926:11007   */\n      swap2\n      pop\n        /* \"#utility.yul\":10780:11018   */\n      pop\n        /* \"#utility.yul\":11102:11106   */\n      0x40\n        /* \"#utility.yul\":11095:11100   */\n      dup4\n        /* \"#utility.yul\":11091:11107   */\n      add\n        /* \"#utility.yul\":11085:11108   */\n      mload\n        /* \"#utility.yul\":11121:11184   */\n      tag_597\n        /* \"#utility.yul\":11178:11182   */\n      0x40\n        /* \"#utility.yul\":11173:11176   */\n      dup7\n        /* \"#utility.yul\":11169:11183   */\n      add\n        /* \"#utility.yul\":11155:11167   */\n      dup3\n        /* \"#utility.yul\":11121:11184   */\n      tag_598\n      jump\t// in\n    tag_597:\n        /* \"#utility.yul\":11028:11194   */\n      pop\n        /* \"#utility.yul\":11278:11282   */\n      0x60\n        /* \"#utility.yul\":11271:11276   */\n      dup4\n        /* \"#utility.yul\":11267:11283   */\n      add\n        /* \"#utility.yul\":11261:11284   */\n      mload\n        /* \"#utility.yul\":11297:11360   */\n      tag_599\n        /* \"#utility.yul\":11354:11358   */\n      0x60\n        /* \"#utility.yul\":11349:11352   */\n      dup7\n        /* \"#utility.yul\":11345:11359   */\n      add\n        /* \"#utility.yul\":11331:11343   */\n      dup3\n        /* \"#utility.yul\":11297:11360   */\n      tag_516\n      jump\t// in\n    tag_599:\n        /* \"#utility.yul\":11204:11370   */\n      pop\n        /* \"#utility.yul\":11452:11456   */\n      0x80\n        /* \"#utility.yul\":11445:11450   */\n      dup4\n        /* \"#utility.yul\":11441:11457   */\n      add\n        /* \"#utility.yul\":11435:11458   */\n      mload\n        /* \"#utility.yul\":11471:11534   */\n      tag_600\n        /* \"#utility.yul\":11528:11532   */\n      0x80\n        /* \"#utility.yul\":11523:11526   */\n      dup7\n        /* \"#utility.yul\":11519:11533   */\n      add\n        /* \"#utility.yul\":11505:11517   */\n      dup3\n        /* \"#utility.yul\":11471:11534   */\n      tag_516\n      jump\t// in\n    tag_600:\n        /* \"#utility.yul\":11380:11544   */\n      pop\n        /* \"#utility.yul\":11628:11632   */\n      0xa0\n        /* \"#utility.yul\":11621:11626   */\n      dup4\n        /* \"#utility.yul\":11617:11633   */\n      add\n        /* \"#utility.yul\":11611:11634   */\n      mload\n        /* \"#utility.yul\":11647:11710   */\n      tag_601\n        /* \"#utility.yul\":11704:11708   */\n      0xa0\n        /* \"#utility.yul\":11699:11702   */\n      dup7\n        /* \"#utility.yul\":11695:11709   */\n      add\n        /* \"#utility.yul\":11681:11693   */\n      dup3\n        /* \"#utility.yul\":11647:11710   */\n      tag_598\n      jump\t// in\n    tag_601:\n        /* \"#utility.yul\":11554:11720   */\n      pop\n        /* \"#utility.yul\":11813:11817   */\n      0xc0\n        /* \"#utility.yul\":11806:11811   */\n      dup4\n        /* \"#utility.yul\":11802:11818   */\n      add\n        /* \"#utility.yul\":11796:11819   */\n      mload\n        /* \"#utility.yul\":11832:11895   */\n      tag_602\n        /* \"#utility.yul\":11889:11893   */\n      0xc0\n        /* \"#utility.yul\":11884:11887   */\n      dup7\n        /* \"#utility.yul\":11880:11894   */\n      add\n        /* \"#utility.yul\":11866:11878   */\n      dup3\n        /* \"#utility.yul\":11832:11895   */\n      tag_598\n      jump\t// in\n    tag_602:\n        /* \"#utility.yul\":11730:11905   */\n      pop\n        /* \"#utility.yul\":11922:11926   */\n      dup1\n        /* \"#utility.yul\":11915:11926   */\n      swap2\n      pop\n        /* \"#utility.yul\":10484:11932   */\n      pop\n        /* \"#utility.yul\":10354:11932   */\n      swap3\n      swap2\n      pop\n      pop\n      jump\t// out\n        /* \"#utility.yul\":11984:13561   */\n    tag_515:\n        /* \"#utility.yul\":12083:12086   */\n      0x00\n        /* \"#utility.yul\":12119:12123   */\n      0xe0\n        /* \"#utility.yul\":12114:12117   */\n      dup4\n        /* \"#utility.yul\":12110:12124   */\n      add\n        /* \"#utility.yul\":12208:12212   */\n      0x00\n        /* \"#utility.yul\":12201:12206   */\n      dup4\n        /* \"#utility.yul\":12197:12213   */\n      add\n        /* \"#utility.yul\":12191:12214   */\n      mload\n        /* \"#utility.yul\":12261:12264   */\n      dup5\n        /* \"#utility.yul\":12255:12259   */\n      dup3\n        /* \"#utility.yul\":12251:12265   */\n      sub\n        /* \"#utility.yul\":12244:12248   */\n      0x00\n        /* \"#utility.yul\":12239:12242   */\n      dup7\n        /* \"#utility.yul\":12235:12249   */\n      add\n        /* \"#utility.yul\":12228:12266   */\n      mstore\n        /* \"#utility.yul\":12287:12360   */\n      tag_604\n        /* \"#utility.yul\":12355:12359   */\n      dup3\n        /* \"#utility.yul\":12341:12353   */\n      dup3\n        /* \"#utility.yul\":12287:12360   */\n      tag_566\n      jump\t// in\n    tag_604:\n        /* \"#utility.yul\":12279:12360   */\n      swap2\n      pop\n        /* \"#utility.yul\":12134:12371   */\n      pop\n        /* \"#utility.yul\":12457:12461   */\n      0x20\n        /* \"#utility.yul\":12450:12455   */\n      dup4\n        /* \"#utility.yul\":12446:12462   */\n      add\n        /* \"#utility.yul\":12440:12463   */\n      mload\n        /* \"#utility.yul\":12510:12513   */\n      dup5\n        /* \"#utility.yul\":12504:12508   */\n      dup3\n        /* \"#utility.yul\":12500:12514   */\n      sub\n        /* \"#utility.yul\":12493:12497   */\n      0x20\n        /* \"#utility.yul\":12488:12491   */\n      dup7\n        /* \"#utility.yul\":12484:12498   */\n      add\n        /* \"#utility.yul\":12477:12515   */\n      mstore\n        /* \"#utility.yul\":12536:12609   */\n      tag_605\n        /* \"#utility.yul\":12604:12608   */\n      dup3\n        /* \"#utility.yul\":12590:12602   */\n      dup3\n        /* \"#utility.yul\":12536:12609   */\n      tag_566\n      jump\t// in\n    tag_605:\n        /* \"#utility.yul\":12528:12609   */\n      swap2\n      pop\n        /* \"#utility.yul\":12381:12620   */\n      pop\n        /* \"#utility.yul\":12706:12710   */\n      0x40\n        /* \"#utility.yul\":12699:12704   */\n      dup4\n        /* \"#utility.yul\":12695:12711   */\n      add\n        /* \"#utility.yul\":12689:12712   */\n      mload\n        /* \"#utility.yul\":12725:12798   */\n      tag_606\n        /* \"#utility.yul\":12792:12796   */\n      0x40\n        /* \"#utility.yul\":12787:12790   */\n      dup7\n        /* \"#utility.yul\":12783:12797   */\n      add\n        /* \"#utility.yul\":12769:12781   */\n      dup3\n        /* \"#utility.yul\":12725:12798   */\n      tag_559\n      jump\t// in\n    tag_606:\n        /* \"#utility.yul\":12630:12808   */\n      pop\n        /* \"#utility.yul\":12896:12900   */\n      0x60\n        /* \"#utility.yul\":12889:12894   */\n      dup4\n        /* \"#utility.yul\":12885:12901   */\n      add\n        /* \"#utility.yul\":12879:12902   */\n      mload\n        /* \"#utility.yul\":12915:12986   */\n      tag_607\n        /* \"#utility.yul\":12980:12984   */\n      0x60\n        /* \"#utility.yul\":12975:12978   */\n      dup7\n        /* \"#utility.yul\":12971:12985   */\n      add\n        /* \"#utility.yul\":12957:12969   */\n      dup3\n        /* \"#utility.yul\":12915:12986   */\n      tag_555\n      jump\t// in\n    tag_607:\n        /* \"#utility.yul\":12818:12996   */\n      pop\n        /* \"#utility.yul\":13082:13086   */\n      0x80\n        /* \"#utility.yul\":13075:13080   */\n      dup4\n        /* \"#utility.yul\":13071:13087   */\n      add\n        /* \"#utility.yul\":13065:13088   */\n      mload\n        /* \"#utility.yul\":13101:13164   */\n      tag_608\n        /* \"#utility.yul\":13158:13162   */\n      0x80\n        /* \"#utility.yul\":13153:13156   */\n      dup7\n        /* \"#utility.yul\":13149:13163   */\n      add\n        /* \"#utility.yul\":13135:13147   */\n      dup3\n        /* \"#utility.yul\":13101:13164   */\n      tag_598\n      jump\t// in\n    tag_608:\n        /* \"#utility.yul\":13006:13174   */\n      pop\n        /* \"#utility.yul\":13261:13265   */\n      0xa0\n        /* \"#utility.yul\":13254:13259   */\n      dup4\n        /* \"#utility.yul\":13250:13266   */\n      add\n        /* \"#utility.yul\":13244:13267   */\n      mload\n        /* \"#utility.yul\":13280:13343   */\n      tag_609\n        /* \"#utility.yul\":13337:13341   */\n      0xa0\n        /* \"#utility.yul\":13332:13335   */\n      dup7\n        /* \"#utility.yul\":13328:13342   */\n      add\n        /* \"#utility.yul\":13314:13326   */\n      dup3\n        /* \"#utility.yul\":13280:13343   */\n      tag_598\n      jump\t// in\n    tag_609:\n        /* \"#utility.yul\":13184:13353   */\n      pop\n        /* \"#utility.yul\":13442:13446   */\n      0xc0\n        /* \"#utility.yul\":13435:13440   */\n      dup4\n        /* \"#utility.yul\":13431:13447   */\n      add\n        /* \"#utility.yul\":13425:13448   */\n      mload\n        /* \"#utility.yul\":13461:13524   */\n      tag_610\n        /* \"#utility.yul\":13518:13522   */\n      0xc0\n        /* \"#utility.yul\":13513:13516   */\n      dup7\n        /* \"#utility.yul\":13509:13523   */\n      add\n        /* \"#utility.yul\":13495:13507   */\n      dup3\n        /* \"#utility.yul\":13461:13524   */\n      tag_516\n      jump\t// in\n    tag_610:\n        /* \"#utility.yul\":13363:13534   */\n      pop\n        /* \"#utility.yul\":13551:13555   */\n      dup1\n        /* \"#utility.yul\":13544:13555   */\n      swap2\n      pop\n        /* \"#utility.yul\":12088:13561   */\n      pop\n        /* \"#utility.yul\":11984:13561   */\n      swap3\n      swap2\n      pop\n      pop\n      jump\t// out\n        /* \"#utility.yul\":13613:15200   */\n    tag_611:\n        /* \"#utility.yul\":13722:13725   */\n      0x00\n        /* \"#utility.yul\":13758:13762   */\n      0xe0\n        /* \"#utility.yul\":13753:13756   */\n      dup4\n        /* \"#utility.yul\":13749:13763   */\n      add\n        /* \"#utility.yul\":13847:13851   */\n      0x00\n        /* \"#utility.yul\":13840:13845   */\n      dup4\n        /* \"#utility.yul\":13836:13852   */\n      add\n        /* \"#utility.yul\":13830:13853   */\n      mload\n        /* \"#utility.yul\":13900:13903   */\n      dup5\n        /* \"#utility.yul\":13894:13898   */\n      dup3\n        /* \"#utility.yul\":13890:13904   */\n      sub\n        /* \"#utility.yul\":13883:13887   */\n      0x00\n        /* \"#utility.yul\":13878:13881   */\n      dup7\n        /* \"#utility.yul\":13874:13888   */\n      add\n        /* \"#utility.yul\":13867:13905   */\n      mstore\n        /* \"#utility.yul\":13926:13999   */\n      tag_613\n        /* \"#utility.yul\":13994:13998   */\n      dup3\n        /* \"#utility.yul\":13980:13992   */\n      dup3\n        /* \"#utility.yul\":13926:13999   */\n      tag_566\n      jump\t// in\n    tag_613:\n        /* \"#utility.yul\":13918:13999   */\n      swap2\n      pop\n        /* \"#utility.yul\":13773:14010   */\n      pop\n        /* \"#utility.yul\":14096:14100   */\n      0x20\n        /* \"#utility.yul\":14089:14094   */\n      dup4\n        /* \"#utility.yul\":14085:14101   */\n      add\n        /* \"#utility.yul\":14079:14102   */\n      mload\n        /* \"#utility.yul\":14149:14152   */\n      dup5\n        /* \"#utility.yul\":14143:14147   */\n      dup3\n        /* \"#utility.yul\":14139:14153   */\n      sub\n        /* \"#utility.yul\":14132:14136   */\n      0x20\n        /* \"#utility.yul\":14127:14130   */\n      dup7\n        /* \"#utility.yul\":14123:14137   */\n      add\n        /* \"#utility.yul\":14116:14154   */\n      mstore\n        /* \"#utility.yul\":14175:14248   */\n      tag_614\n        /* \"#utility.yul\":14243:14247   */\n      dup3\n        /* \"#utility.yul\":14229:14241   */\n      dup3\n        /* \"#utility.yul\":14175:14248   */\n      tag_566\n      jump\t// in\n    tag_614:\n        /* \"#utility.yul\":14167:14248   */\n      swap2\n      pop\n        /* \"#utility.yul\":14020:14259   */\n      pop\n        /* \"#utility.yul\":14345:14349   */\n      0x40\n        /* \"#utility.yul\":14338:14343   */\n      dup4\n        /* \"#utility.yul\":14334:14350   */\n      add\n        /* \"#utility.yul\":14328:14351   */\n      mload\n        /* \"#utility.yul\":14364:14437   */\n      tag_615\n        /* \"#utility.yul\":14431:14435   */\n      0x40\n        /* \"#utility.yul\":14426:14429   */\n      dup7\n        /* \"#utility.yul\":14422:14436   */\n      add\n        /* \"#utility.yul\":14408:14420   */\n      dup3\n        /* \"#utility.yul\":14364:14437   */\n      tag_559\n      jump\t// in\n    tag_615:\n        /* \"#utility.yul\":14269:14447   */\n      pop\n        /* \"#utility.yul\":14535:14539   */\n      0x60\n        /* \"#utility.yul\":14528:14533   */\n      dup4\n        /* \"#utility.yul\":14524:14540   */\n      add\n        /* \"#utility.yul\":14518:14541   */\n      mload\n        /* \"#utility.yul\":14554:14625   */\n      tag_616\n        /* \"#utility.yul\":14619:14623   */\n      0x60\n        /* \"#utility.yul\":14614:14617   */\n      dup7\n        /* \"#utility.yul\":14610:14624   */\n      add\n        /* \"#utility.yul\":14596:14608   */\n      dup3\n        /* \"#utility.yul\":14554:14625   */\n      tag_555\n      jump\t// in\n    tag_616:\n        /* \"#utility.yul\":14457:14635   */\n      pop\n        /* \"#utility.yul\":14721:14725   */\n      0x80\n        /* \"#utility.yul\":14714:14719   */\n      dup4\n        /* \"#utility.yul\":14710:14726   */\n      add\n        /* \"#utility.yul\":14704:14727   */\n      mload\n        /* \"#utility.yul\":14740:14803   */\n      tag_617\n        /* \"#utility.yul\":14797:14801   */\n      0x80\n        /* \"#utility.yul\":14792:14795   */\n      dup7\n        /* \"#utility.yul\":14788:14802   */\n      add\n        /* \"#utility.yul\":14774:14786   */\n      dup3\n        /* \"#utility.yul\":14740:14803   */\n      tag_598\n      jump\t// in\n    tag_617:\n        /* \"#utility.yul\":14645:14813   */\n      pop\n        /* \"#utility.yul\":14900:14904   */\n      0xa0\n        /* \"#utility.yul\":14893:14898   */\n      dup4\n        /* \"#utility.yul\":14889:14905   */\n      add\n        /* \"#utility.yul\":14883:14906   */\n      mload\n        /* \"#utility.yul\":14919:14982   */\n      tag_618\n        /* \"#utility.yul\":14976:14980   */\n      0xa0\n        /* \"#utility.yul\":14971:14974   */\n      dup7\n        /* \"#utility.yul\":14967:14981   */\n      add\n        /* \"#utility.yul\":14953:14965   */\n      dup3\n        /* \"#utility.yul\":14919:14982   */\n      tag_598\n      jump\t// in\n    tag_618:\n        /* \"#utility.yul\":14823:14992   */\n      pop\n        /* \"#utility.yul\":15081:15085   */\n      0xc0\n        /* \"#utility.yul\":15074:15079   */\n      dup4\n        /* \"#utility.yul\":15070:15086   */\n      add\n        /* \"#utility.yul\":15064:15087   */\n      mload\n        /* \"#utility.yul\":15100:15163   */\n      tag_619\n        /* \"#utility.yul\":15157:15161   */\n      0xc0\n        /* \"#utility.yul\":15152:15155   */\n      dup7\n        /* \"#utility.yul\":15148:15162   */\n      add\n        /* \"#utility.yul\":15134:15146   */\n      dup3\n        /* \"#utility.yul\":15100:15163   */\n      tag_516\n      jump\t// in\n    tag_619:\n        /* \"#utility.yul\":15002:15173   */\n      pop\n        /* \"#utility.yul\":15190:15194   */\n      dup1\n        /* \"#utility.yul\":15183:15194   */\n      swap2\n      pop\n        /* \"#utility.yul\":13727:15200   */\n      pop\n        /* \"#utility.yul\":13613:15200   */\n      swap3\n      swap2\n      pop\n      pop\n      jump\t// out\n        /* \"#utility.yul\":15206:15314   */\n    tag_598:\n        /* \"#utility.yul\":15283:15307   */\n      tag_621\n        /* \"#utility.yul\":15301:15306   */\n      dup2\n        /* \"#utility.yul\":15283:15307   */\n      tag_622\n      jump\t// in\n    tag_621:\n        /* \"#utility.yul\":15278:15281   */\n      dup3\n        /* \"#utility.yul\":15271:15308   */\n      mstore\n        /* \"#utility.yul\":15206:15314   */\n      pop\n      pop\n      jump\t// out\n        /* \"#utility.yul\":15320:15438   */\n    tag_623:\n        /* \"#utility.yul\":15407:15431   */\n      tag_625\n        /* \"#utility.yul\":15425:15430   */\n      dup2\n        /* \"#utility.yul\":15407:15431   */\n      tag_622\n      jump\t// in\n    tag_625:\n        /* \"#utility.yul\":15402:15405   */\n      dup3\n        /* \"#utility.yul\":15395:15432   */\n      mstore\n        /* \"#utility.yul\":15320:15438   */\n      pop\n      pop\n      jump\t// out\n        /* \"#utility.yul\":15444:15719   */\n    tag_420:\n        /* \"#utility.yul\":15576:15579   */\n      0x00\n        /* \"#utility.yul\":15598:15693   */\n      tag_627\n        /* \"#utility.yul\":15689:15692   */\n      dup3\n        /* \"#utility.yul\":15680:15686   */\n      dup5\n        /* \"#utility.yul\":15598:15693   */\n      tag_583\n      jump\t// in\n    tag_627:\n        /* \"#utility.yul\":15591:15693   */\n      swap2\n      pop\n        /* \"#utility.yul\":15710:15713   */\n      dup2\n        /* \"#utility.yul\":15703:15713   */\n      swap1\n      pop\n        /* \"#utility.yul\":15444:15719   */\n      swap3\n      swap2\n      pop\n      pop\n      jump\t// out\n        /* \"#utility.yul\":15725:15947   */\n    tag_61:\n        /* \"#utility.yul\":15818:15822   */\n      0x00\n        /* \"#utility.yul\":15856:15858   */\n      0x20\n        /* \"#utility.yul\":15845:15854   */\n      dup3\n        /* \"#utility.yul\":15841:15859   */\n      add\n        /* \"#utility.yul\":15833:15859   */\n      swap1\n      pop\n        /* \"#utility.yul\":15869:15940   */\n      tag_629\n        /* \"#utility.yul\":15937:15938   */\n      0x00\n        /* \"#utility.yul\":15926:15935   */\n      dup4\n        /* \"#utility.yul\":15922:15939   */\n      add\n        /* \"#utility.yul\":15913:15919   */\n      dup5\n        /* \"#utility.yul\":15869:15940   */\n      tag_520\n      jump\t// in\n    tag_629:\n        /* \"#utility.yul\":15725:15947   */\n      swap3\n      swap2\n      pop\n      pop\n      jump\t// out\n        /* \"#utility.yul\":15953:16458   */\n    tag_33:\n        /* \"#utility.yul\":16162:16166   */\n      0x00\n        /* \"#utility.yul\":16200:16202   */\n      0x20\n        /* \"#utility.yul\":16189:16198   */\n      dup3\n        /* \"#utility.yul\":16185:16203   */\n      add\n        /* \"#utility.yul\":16177:16203   */\n      swap1\n      pop\n        /* \"#utility.yul\":16249:16258   */\n      dup2\n        /* \"#utility.yul\":16243:16247   */\n      dup2\n        /* \"#utility.yul\":16239:16259   */\n      sub\n        /* \"#utility.yul\":16235:16236   */\n      0x00\n        /* \"#utility.yul\":16224:16233   */\n      dup4\n        /* \"#utility.yul\":16220:16237   */\n      add\n        /* \"#utility.yul\":16213:16260   */\n      mstore\n        /* \"#utility.yul\":16277:16451   */\n      tag_631\n        /* \"#utility.yul\":16446:16450   */\n      dup2\n        /* \"#utility.yul\":16437:16443   */\n      dup5\n        /* \"#utility.yul\":16277:16451   */\n      tag_523\n      jump\t// in\n    tag_631:\n        /* \"#utility.yul\":16269:16451   */\n      swap1\n      pop\n        /* \"#utility.yul\":15953:16458   */\n      swap3\n      swap2\n      pop\n      pop\n      jump\t// out\n        /* \"#utility.yul\":16464:16917   */\n    tag_21:\n        /* \"#utility.yul\":16647:16651   */\n      0x00\n        /* \"#utility.yul\":16685:16687   */\n      0x20\n        /* \"#utility.yul\":16674:16683   */\n      dup3\n        /* \"#utility.yul\":16670:16688   */\n      add\n        /* \"#utility.yul\":16662:16688   */\n      swap1\n      pop\n        /* \"#utility.yul\":16734:16743   */\n      dup2\n        /* \"#utility.yul\":16728:16732   */\n      dup2\n        /* \"#utility.yul\":16724:16744   */\n      sub\n        /* \"#utility.yul\":16720:16721   */\n      0x00\n        /* \"#utility.yul\":16709:16718   */\n      dup4\n        /* \"#utility.yul\":16705:16722   */\n      add\n        /* \"#utility.yul\":16698:16745   */\n      mstore\n        /* \"#utility.yul\":16762:16910   */\n      tag_633\n        /* \"#utility.yul\":16905:16909   */\n      dup2\n        /* \"#utility.yul\":16896:16902   */\n      dup5\n        /* \"#utility.yul\":16762:16910   */\n      tag_537\n      jump\t// in\n    tag_633:\n        /* \"#utility.yul\":16754:16910   */\n      swap1\n      pop\n        /* \"#utility.yul\":16464:16917   */\n      swap3\n      swap2\n      pop\n      pop\n      jump\t// out\n        /* \"#utility.yul\":16923:17133   */\n    tag_76:\n        /* \"#utility.yul\":17010:17014   */\n      0x00\n        /* \"#utility.yul\":17048:17050   */\n      0x20\n        /* \"#utility.yul\":17037:17046   */\n      dup3\n        /* \"#utility.yul\":17033:17051   */\n      add\n        /* \"#utility.yul\":17025:17051   */\n      swap1\n      pop\n        /* \"#utility.yul\":17061:17126   */\n      tag_635\n        /* \"#utility.yul\":17123:17124   */\n      0x00\n        /* \"#utility.yul\":17112:17121   */\n      dup4\n        /* \"#utility.yul\":17108:17125   */\n      add\n        /* \"#utility.yul\":17099:17105   */\n      dup5\n        /* \"#utility.yul\":17061:17126   */\n      tag_551\n      jump\t// in\n    tag_635:\n        /* \"#utility.yul\":16923:17133   */\n      swap3\n      swap2\n      pop\n      pop\n      jump\t// out\n        /* \"#utility.yul\":17139:17381   */\n    tag_47:\n        /* \"#utility.yul\":17242:17246   */\n      0x00\n        /* \"#utility.yul\":17280:17282   */\n      0x20\n        /* \"#utility.yul\":17269:17278   */\n      dup3\n        /* \"#utility.yul\":17265:17283   */\n      add\n        /* \"#utility.yul\":17257:17283   */\n      swap1\n      pop\n        /* \"#utility.yul\":17293:17374   */\n      tag_637\n        /* \"#utility.yul\":17371:17372   */\n      0x00\n        /* \"#utility.yul\":17360:17369   */\n      dup4\n        /* \"#utility.yul\":17356:17373   */\n      add\n        /* \"#utility.yul\":17347:17353   */\n      dup5\n        /* \"#utility.yul\":17293:17374   */\n      tag_563\n      jump\t// in\n    tag_637:\n        /* \"#utility.yul\":17139:17381   */\n      swap3\n      swap2\n      pop\n      pop\n      jump\t// out\n        /* \"#utility.yul\":17387:18455   */\n    tag_27:\n        /* \"#utility.yul\":17688:17692   */\n      0x00\n        /* \"#utility.yul\":17726:17729   */\n      0xe0\n        /* \"#utility.yul\":17715:17724   */\n      dup3\n        /* \"#utility.yul\":17711:17730   */\n      add\n        /* \"#utility.yul\":17703:17730   */\n      swap1\n      pop\n        /* \"#utility.yul\":17776:17785   */\n      dup2\n        /* \"#utility.yul\":17770:17774   */\n      dup2\n        /* \"#utility.yul\":17766:17786   */\n      sub\n        /* \"#utility.yul\":17762:17763   */\n      0x00\n        /* \"#utility.yul\":17751:17760   */\n      dup4\n        /* \"#utility.yul\":17747:17764   */\n      add\n        /* \"#utility.yul\":17740:17787   */\n      mstore\n        /* \"#utility.yul\":17804:17882   */\n      tag_639\n        /* \"#utility.yul\":17877:17881   */\n      dup2\n        /* \"#utility.yul\":17868:17874   */\n      dup11\n        /* \"#utility.yul\":17804:17882   */\n      tag_576\n      jump\t// in\n    tag_639:\n        /* \"#utility.yul\":17796:17882   */\n      swap1\n      pop\n        /* \"#utility.yul\":17929:17938   */\n      dup2\n        /* \"#utility.yul\":17923:17927   */\n      dup2\n        /* \"#utility.yul\":17919:17939   */\n      sub\n        /* \"#utility.yul\":17914:17916   */\n      0x20\n        /* \"#utility.yul\":17903:17912   */\n      dup4\n        /* \"#utility.yul\":17899:17917   */\n      add\n        /* \"#utility.yul\":17892:17940   */\n      mstore\n        /* \"#utility.yul\":17957:18035   */\n      tag_640\n        /* \"#utility.yul\":18030:18034   */\n      dup2\n        /* \"#utility.yul\":18021:18027   */\n      dup10\n        /* \"#utility.yul\":17957:18035   */\n      tag_576\n      jump\t// in\n    tag_640:\n        /* \"#utility.yul\":17949:18035   */\n      swap1\n      pop\n        /* \"#utility.yul\":18045:18117   */\n      tag_641\n        /* \"#utility.yul\":18113:18115   */\n      0x40\n        /* \"#utility.yul\":18102:18111   */\n      dup4\n        /* \"#utility.yul\":18098:18116   */\n      add\n        /* \"#utility.yul\":18089:18095   */\n      dup9\n        /* \"#utility.yul\":18045:18117   */\n      tag_623\n      jump\t// in\n    tag_641:\n        /* \"#utility.yul\":18127:18199   */\n      tag_642\n        /* \"#utility.yul\":18195:18197   */\n      0x60\n        /* \"#utility.yul\":18184:18193   */\n      dup4\n        /* \"#utility.yul\":18180:18198   */\n      add\n        /* \"#utility.yul\":18171:18177   */\n      dup8\n        /* \"#utility.yul\":18127:18199   */\n      tag_520\n      jump\t// in\n    tag_642:\n        /* \"#utility.yul\":18209:18282   */\n      tag_643\n        /* \"#utility.yul\":18277:18280   */\n      0x80\n        /* \"#utility.yul\":18266:18275   */\n      dup4\n        /* \"#utility.yul\":18262:18281   */\n      add\n        /* \"#utility.yul\":18253:18259   */\n      dup7\n        /* \"#utility.yul\":18209:18282   */\n      tag_520\n      jump\t// in\n    tag_643:\n        /* \"#utility.yul\":18292:18365   */\n      tag_644\n        /* \"#utility.yul\":18360:18363   */\n      0xa0\n        /* \"#utility.yul\":18349:18358   */\n      dup4\n        /* \"#utility.yul\":18345:18364   */\n      add\n        /* \"#utility.yul\":18336:18342   */\n      dup6\n        /* \"#utility.yul\":18292:18365   */\n      tag_623\n      jump\t// in\n    tag_644:\n        /* \"#utility.yul\":18375:18448   */\n      tag_645\n        /* \"#utility.yul\":18443:18446   */\n      0xc0\n        /* \"#utility.yul\":18432:18441   */\n      dup4\n        /* \"#utility.yul\":18428:18447   */\n      add\n        /* \"#utility.yul\":18419:18425   */\n      dup5\n        /* \"#utility.yul\":18375:18448   */\n      tag_623\n      jump\t// in\n    tag_645:\n        /* \"#utility.yul\":17387:18455   */\n      swap9\n      swap8\n      pop\n      pop\n      pop\n      pop\n      pop\n      pop\n      pop\n      pop\n      jump\t// out\n        /* \"#utility.yul\":18461:18818   */\n    tag_71:\n        /* \"#utility.yul\":18596:18600   */\n      0x00\n        /* \"#utility.yul\":18634:18636   */\n      0x20\n        /* \"#utility.yul\":18623:18632   */\n      dup3\n        /* \"#utility.yul\":18619:18637   */\n      add\n        /* \"#utility.yul\":18611:18637   */\n      swap1\n      pop\n        /* \"#utility.yul\":18683:18692   */\n      dup2\n        /* \"#utility.yul\":18677:18681   */\n      dup2\n        /* \"#utility.yul\":18673:18693   */\n      sub\n        /* \"#utility.yul\":18669:18670   */\n      0x00\n        /* \"#utility.yul\":18658:18667   */\n      dup4\n        /* \"#utility.yul\":18654:18671   */\n      add\n        /* \"#utility.yul\":18647:18694   */\n      mstore\n        /* \"#utility.yul\":18711:18811   */\n      tag_647\n        /* \"#utility.yul\":18806:18810   */\n      dup2\n        /* \"#utility.yul\":18797:18803   */\n      dup5\n        /* \"#utility.yul\":18711:18811   */\n      tag_589\n      jump\t// in\n    tag_647:\n        /* \"#utility.yul\":18703:18811   */\n      swap1\n      pop\n        /* \"#utility.yul\":18461:18818   */\n      swap3\n      swap2\n      pop\n      pop\n      jump\t// out\n        /* \"#utility.yul\":18824:19177   */\n    tag_66:\n        /* \"#utility.yul\":18957:18961   */\n      0x00\n        /* \"#utility.yul\":18995:18997   */\n      0x20\n        /* \"#utility.yul\":18984:18993   */\n      dup3\n        /* \"#utility.yul\":18980:18998   */\n      add\n        /* \"#utility.yul\":18972:18998   */\n      swap1\n      pop\n        /* \"#utility.yul\":19044:19053   */\n      dup2\n        /* \"#utility.yul\":19038:19042   */\n      dup2\n        /* \"#utility.yul\":19034:19054   */\n      sub\n        /* \"#utility.yul\":19030:19031   */\n      0x00\n        /* \"#utility.yul\":19019:19028   */\n      dup4\n        /* \"#utility.yul\":19015:19032   */\n      add\n        /* \"#utility.yul\":19008:19055   */\n      mstore\n        /* \"#utility.yul\":19072:19170   */\n      tag_649\n        /* \"#utility.yul\":19165:19169   */\n      dup2\n        /* \"#utility.yul\":19156:19162   */\n      dup5\n        /* \"#utility.yul\":19072:19170   */\n      tag_611\n      jump\t// in\n    tag_649:\n        /* \"#utility.yul\":19064:19170   */\n      swap1\n      pop\n        /* \"#utility.yul\":18824:19177   */\n      swap3\n      swap2\n      pop\n      pop\n      jump\t// out\n        /* \"#utility.yul\":19183:19405   */\n    tag_52:\n        /* \"#utility.yul\":19276:19280   */\n      0x00\n        /* \"#utility.yul\":19314:19316   */\n      0x20\n        /* \"#utility.yul\":19303:19312   */\n      dup3\n        /* \"#utility.yul\":19299:19317   */\n      add\n        /* \"#utility.yul\":19291:19317   */\n      swap1\n      pop\n        /* \"#utility.yul\":19327:19398   */\n      tag_651\n        /* \"#utility.yul\":19395:19396   */\n      0x00\n        /* \"#utility.yul\":19384:19393   */\n      dup4\n        /* \"#utility.yul\":19380:19397   */\n      add\n        /* \"#utility.yul\":19371:19377   */\n      dup5\n        /* \"#utility.yul\":19327:19398   */\n      tag_623\n      jump\t// in\n    tag_651:\n        /* \"#utility.yul\":19183:19405   */\n      swap3\n      swap2\n      pop\n      pop\n      jump\t// out\n        /* \"#utility.yul\":19411:19540   */\n    tag_445:\n        /* \"#utility.yul\":19445:19451   */\n      0x00\n        /* \"#utility.yul\":19472:19492   */\n      tag_653\n      tag_654\n      jump\t// in\n    tag_653:\n        /* \"#utility.yul\":19462:19492   */\n      swap1\n      pop\n        /* \"#utility.yul\":19501:19534   */\n      tag_655\n        /* \"#utility.yul\":19529:19533   */\n      dup3\n        /* \"#utility.yul\":19521:19527   */\n      dup3\n        /* \"#utility.yul\":19501:19534   */\n      tag_656\n      jump\t// in\n    tag_655:\n        /* \"#utility.yul\":19411:19540   */\n      swap2\n      swap1\n      pop\n      jump\t// out\n        /* \"#utility.yul\":19546:19621   */\n    tag_654:\n        /* \"#utility.yul\":19579:19585   */\n      0x00\n        /* \"#utility.yul\":19612:19614   */\n      0x40\n        /* \"#utility.yul\":19606:19615   */\n      mload\n        /* \"#utility.yul\":19596:19615   */\n      swap1\n      pop\n        /* \"#utility.yul\":19546:19621   */\n      swap1\n      jump\t// out\n        /* \"#utility.yul\":19627:19935   */\n    tag_444:\n        /* \"#utility.yul\":19689:19693   */\n      0x00\n        /* \"#utility.yul\":19779:19797   */\n      0xffffffffffffffff\n        /* \"#utility.yul\":19771:19777   */\n      dup3\n        /* \"#utility.yul\":19768:19798   */\n      gt\n        /* \"#utility.yul\":19765:19821   */\n      iszero\n      tag_659\n      jumpi\n        /* \"#utility.yul\":19801:19819   */\n      tag_660\n      tag_80\n      jump\t// in\n    tag_660:\n        /* \"#utility.yul\":19765:19821   */\n    tag_659:\n        /* \"#utility.yul\":19839:19868   */\n      tag_661\n        /* \"#utility.yul\":19861:19867   */\n      dup3\n        /* \"#utility.yul\":19839:19868   */\n      tag_575\n      jump\t// in\n    tag_661:\n        /* \"#utility.yul\":19831:19868   */\n      swap1\n      pop\n        /* \"#utility.yul\":19923:19927   */\n      0x20\n        /* \"#utility.yul\":19917:19921   */\n      dup2\n        /* \"#utility.yul\":19913:19928   */\n      add\n        /* \"#utility.yul\":19905:19928   */\n      swap1\n      pop\n        /* \"#utility.yul\":19627:19935   */\n      swap2\n      swap1\n      pop\n      jump\t// out\n        /* \"#utility.yul\":19941:20106   */\n    tag_530:\n        /* \"#utility.yul\":20041:20045   */\n      0x00\n        /* \"#utility.yul\":20064:20067   */\n      dup2\n        /* \"#utility.yul\":20056:20067   */\n      swap1\n      pop\n        /* \"#utility.yul\":20094:20098   */\n      0x20\n        /* \"#utility.yul\":20089:20092   */\n      dup3\n        /* \"#utility.yul\":20085:20099   */\n      add\n        /* \"#utility.yul\":20077:20099   */\n      swap1\n      pop\n        /* \"#utility.yul\":19941:20106   */\n      swap2\n      swap1\n      pop\n      jump\t// out\n        /* \"#utility.yul\":20112:20264   */\n    tag_544:\n        /* \"#utility.yul\":20199:20203   */\n      0x00\n        /* \"#utility.yul\":20222:20225   */\n      dup2\n        /* \"#utility.yul\":20214:20225   */\n      swap1\n      pop\n        /* \"#utility.yul\":20252:20256   */\n      0x20\n        /* \"#utility.yul\":20247:20250   */\n      dup3\n        /* \"#utility.yul\":20243:20257   */\n      add\n        /* \"#utility.yul\":20235:20257   */\n      swap1\n      pop\n        /* \"#utility.yul\":20112:20264   */\n      swap2\n      swap1\n      pop\n      jump\t// out\n        /* \"#utility.yul\":20270:20417   */\n    tag_526:\n        /* \"#utility.yul\":20370:20376   */\n      0x00\n        /* \"#utility.yul\":20404:20409   */\n      dup2\n        /* \"#utility.yul\":20398:20410   */\n      mload\n        /* \"#utility.yul\":20388:20410   */\n      swap1\n      pop\n        /* \"#utility.yul\":20270:20417   */\n      swap2\n      swap1\n      pop\n      jump\t// out\n        /* \"#utility.yul\":20423:20557   */\n    tag_540:\n        /* \"#utility.yul\":20510:20516   */\n      0x00\n        /* \"#utility.yul\":20544:20549   */\n      dup2\n        /* \"#utility.yul\":20538:20550   */\n      mload\n        /* \"#utility.yul\":20528:20550   */\n      swap1\n      pop\n        /* \"#utility.yul\":20423:20557   */\n      swap2\n      swap1\n      pop\n      jump\t// out\n        /* \"#utility.yul\":20563:20662   */\n    tag_569:\n        /* \"#utility.yul\":20615:20621   */\n      0x00\n        /* \"#utility.yul\":20649:20654   */\n      dup2\n        /* \"#utility.yul\":20643:20655   */\n      mload\n        /* \"#utility.yul\":20633:20655   */\n      swap1\n      pop\n        /* \"#utility.yul\":20563:20662   */\n      swap2\n      swap1\n      pop\n      jump\t// out\n        /* \"#utility.yul\":20668:20814   */\n    tag_536:\n        /* \"#utility.yul\":20771:20775   */\n      0x00\n        /* \"#utility.yul\":20803:20807   */\n      0x20\n        /* \"#utility.yul\":20798:20801   */\n      dup3\n        /* \"#utility.yul\":20794:20808   */\n      add\n        /* \"#utility.yul\":20786:20808   */\n      swap1\n      pop\n        /* \"#utility.yul\":20668:20814   */\n      swap2\n      swap1\n      pop\n      jump\t// out\n        /* \"#utility.yul\":20820:20953   */\n    tag_550:\n        /* \"#utility.yul\":20910:20914   */\n      0x00\n        /* \"#utility.yul\":20942:20946   */\n      0x20\n        /* \"#utility.yul\":20937:20940   */\n      dup3\n        /* \"#utility.yul\":20933:20947   */\n      add\n        /* \"#utility.yul\":20925:20947   */\n      swap1\n      pop\n        /* \"#utility.yul\":20820:20953   */\n      swap2\n      swap1\n      pop\n      jump\t// out\n        /* \"#utility.yul\":20959:21176   */\n    tag_528:\n        /* \"#utility.yul\":21091:21102   */\n      0x00\n        /* \"#utility.yul\":21125:21131   */\n      dup3\n        /* \"#utility.yul\":21120:21123   */\n      dup3\n        /* \"#utility.yul\":21113:21132   */\n      mstore\n        /* \"#utility.yul\":21165:21169   */\n      0x20\n        /* \"#utility.yul\":21160:21163   */\n      dup3\n        /* \"#utility.yul\":21156:21170   */\n      add\n        /* \"#utility.yul\":21141:21170   */\n      swap1\n      pop\n        /* \"#utility.yul\":20959:21176   */\n      swap3\n      swap2\n      pop\n      pop\n      jump\t// out\n        /* \"#utility.yul\":21182:21386   */\n    tag_542:\n        /* \"#utility.yul\":21301:21312   */\n      0x00\n        /* \"#utility.yul\":21335:21341   */\n      dup3\n        /* \"#utility.yul\":21330:21333   */\n      dup3\n        /* \"#utility.yul\":21323:21342   */\n      mstore\n        /* \"#utility.yul\":21375:21379   */\n      0x20\n        /* \"#utility.yul\":21370:21373   */\n      dup3\n        /* \"#utility.yul\":21366:21380   */\n      add\n        /* \"#utility.yul\":21351:21380   */\n      swap1\n      pop\n        /* \"#utility.yul\":21182:21386   */\n      swap3\n      swap2\n      pop\n      pop\n      jump\t// out\n        /* \"#utility.yul\":21392:21551   */\n    tag_571:\n        /* \"#utility.yul\":21466:21477   */\n      0x00\n        /* \"#utility.yul\":21500:21506   */\n      dup3\n        /* \"#utility.yul\":21495:21498   */\n      dup3\n        /* \"#utility.yul\":21488:21507   */\n      mstore\n        /* \"#utility.yul\":21540:21544   */\n      0x20\n        /* \"#utility.yul\":21535:21538   */\n      dup3\n        /* \"#utility.yul\":21531:21545   */\n      add\n        /* \"#utility.yul\":21516:21545   */\n      swap1\n      pop\n        /* \"#utility.yul\":21392:21551   */\n      swap3\n      swap2\n      pop\n      pop\n      jump\t// out\n        /* \"#utility.yul\":21557:21726   */\n    tag_580:\n        /* \"#utility.yul\":21641:21652   */\n      0x00\n        /* \"#utility.yul\":21675:21681   */\n      dup3\n        /* \"#utility.yul\":21670:21673   */\n      dup3\n        /* \"#utility.yul\":21663:21682   */\n      mstore\n        /* \"#utility.yul\":21715:21719   */\n      0x20\n        /* \"#utility.yul\":21710:21713   */\n      dup3\n        /* \"#utility.yul\":21706:21720   */\n      add\n        /* \"#utility.yul\":21691:21720   */\n      swap1\n      pop\n        /* \"#utility.yul\":21557:21726   */\n      swap3\n      swap2\n      pop\n      pop\n      jump\t// out\n        /* \"#utility.yul\":21732:21880   */\n    tag_587:\n        /* \"#utility.yul\":21834:21845   */\n      0x00\n        /* \"#utility.yul\":21871:21874   */\n      dup2\n        /* \"#utility.yul\":21856:21874   */\n      swap1\n      pop\n        /* \"#utility.yul\":21732:21880   */\n      swap3\n      swap2\n      pop\n      pop\n      jump\t// out\n        /* \"#utility.yul\":21886:22191   */\n    tag_123:\n        /* \"#utility.yul\":21926:21929   */\n      0x00\n        /* \"#utility.yul\":21945:21965   */\n      tag_675\n        /* \"#utility.yul\":21963:21964   */\n      dup3\n        /* \"#utility.yul\":21945:21965   */\n      tag_622\n      jump\t// in\n    tag_675:\n        /* \"#utility.yul\":21940:21965   */\n      swap2\n      pop\n        /* \"#utility.yul\":21979:21999   */\n      tag_676\n        /* \"#utility.yul\":21997:21998   */\n      dup4\n        /* \"#utility.yul\":21979:21999   */\n      tag_622\n      jump\t// in\n    tag_676:\n        /* \"#utility.yul\":21974:21999   */\n      swap3\n      pop\n        /* \"#utility.yul\":22133:22134   */\n      dup3\n        /* \"#utility.yul\":22065:22131   */\n      0xffffffffffffffffffffffffffffffffffffffffffffffffffffffffffffffff\n        /* \"#utility.yul\":22061:22135   */\n      sub\n        /* \"#utility.yul\":22058:22059   */\n      dup3\n        /* \"#utility.yul\":22055:22136   */\n      gt\n        /* \"#utility.yul\":22052:22159   */\n      iszero\n      tag_677\n      jumpi\n        /* \"#utility.yul\":22139:22157   */\n      tag_678\n      tag_679\n      jump\t// in\n    tag_678:\n        /* \"#utility.yul\":22052:22159   */\n    tag_677:\n        /* \"#utility.yul\":22183:22184   */\n      dup3\n        /* \"#utility.yul\":22180:22181   */\n      dup3\n        /* \"#utility.yul\":22176:22185   */\n      add\n        /* \"#utility.yul\":22169:22185   */\n      swap1\n      pop\n        /* \"#utility.yul\":21886:22191   */\n      swap3\n      swap2\n      pop\n      pop\n      jump\t// out\n        /* \"#utility.yul\":22197:22388   */\n    tag_351:\n        /* \"#utility.yul\":22237:22241   */\n      0x00\n        /* \"#utility.yul\":22257:22277   */\n      tag_681\n        /* \"#utility.yul\":22275:22276   */\n      dup3\n        /* \"#utility.yul\":22257:22277   */\n      tag_622\n      jump\t// in\n    tag_681:\n        /* \"#utility.yul\":22252:22277   */\n      swap2\n      pop\n        /* \"#utility.yul\":22291:22311   */\n      tag_682\n        /* \"#utility.yul\":22309:22310   */\n      dup4\n        /* \"#utility.yul\":22291:22311   */\n      tag_622\n      jump\t// in\n    tag_682:\n        /* \"#utility.yul\":22286:22311   */\n      swap3\n      pop\n        /* \"#utility.yul\":22330:22331   */\n      dup3\n        /* \"#utility.yul\":22327:22328   */\n      dup3\n        /* \"#utility.yul\":22324:22332   */\n      lt\n        /* \"#utility.yul\":22321:22355   */\n      iszero\n      tag_683\n      jumpi\n        /* \"#utility.yul\":22335:22353   */\n      tag_684\n      tag_679\n      jump\t// in\n    tag_684:\n        /* \"#utility.yul\":22321:22355   */\n    tag_683:\n        /* \"#utility.yul\":22380:22381   */\n      dup3\n        /* \"#utility.yul\":22377:22378   */\n      dup3\n        /* \"#utility.yul\":22373:22382   */\n      sub\n        /* \"#utility.yul\":22365:22382   */\n      swap1\n      pop\n        /* \"#utility.yul\":22197:22388   */\n      swap3\n      swap2\n      pop\n      pop\n      jump\t// out\n        /* \"#utility.yul\":22394:22490   */\n    tag_519:\n        /* \"#utility.yul\":22431:22438   */\n      0x00\n        /* \"#utility.yul\":22460:22484   */\n      tag_686\n        /* \"#utility.yul\":22478:22483   */\n      dup3\n        /* \"#utility.yul\":22460:22484   */\n      tag_687\n      jump\t// in\n    tag_686:\n        /* \"#utility.yul\":22449:22484   */\n      swap1\n      pop\n        /* \"#utility.yul\":22394:22490   */\n      swap2\n      swap1\n      pop\n      jump\t// out\n        /* \"#utility.yul\":22496:22586   */\n    tag_554:\n        /* \"#utility.yul\":22530:22537   */\n      0x00\n        /* \"#utility.yul\":22573:22578   */\n      dup2\n        /* \"#utility.yul\":22566:22579   */\n      iszero\n        /* \"#utility.yul\":22559:22580   */\n      iszero\n        /* \"#utility.yul\":22548:22580   */\n      swap1\n      pop\n        /* \"#utility.yul\":22496:22586   */\n      swap2\n      swap1\n      pop\n      jump\t// out\n        /* \"#utility.yul\":22592:22723   */\n    tag_689:\n        /* \"#utility.yul\":22639:22646   */\n      0x00\n        /* \"#utility.yul\":22668:22673   */\n      dup2\n        /* \"#utility.yul\":22657:22673   */\n      swap1\n      pop\n        /* \"#utility.yul\":22674:22717   */\n      tag_691\n        /* \"#utility.yul\":22711:22716   */\n      dup3\n        /* \"#utility.yul\":22674:22717   */\n      tag_692\n      jump\t// in\n    tag_691:\n        /* \"#utility.yul\":22592:22723   */\n      swap2\n      swap1\n      pop\n      jump\t// out\n        /* \"#utility.yul\":22729:22864   */\n    tag_693:\n        /* \"#utility.yul\":22778:22785   */\n      0x00\n        /* \"#utility.yul\":22807:22812   */\n      dup2\n        /* \"#utility.yul\":22796:22812   */\n      swap1\n      pop\n        /* \"#utility.yul\":22813:22858   */\n      tag_695\n        /* \"#utility.yul\":22852:22857   */\n      dup3\n        /* \"#utility.yul\":22813:22858   */\n      tag_696\n      jump\t// in\n    tag_695:\n        /* \"#utility.yul\":22729:22864   */\n      swap2\n      swap1\n      pop\n      jump\t// out\n        /* \"#utility.yul\":22870:22996   */\n    tag_687:\n        /* \"#utility.yul\":22907:22914   */\n      0x00\n        /* \"#utility.yul\":22947:22989   */\n      0xffffffffffffffffffffffffffffffffffffffff\n        /* \"#utility.yul\":22940:22945   */\n      dup3\n        /* \"#utility.yul\":22936:22990   */\n      and\n        /* \"#utility.yul\":22925:22990   */\n      swap1\n      pop\n        /* \"#utility.yul\":22870:22996   */\n      swap2\n      swap1\n      pop\n      jump\t// out\n        /* \"#utility.yul\":23002:23079   */\n    tag_622:\n        /* \"#utility.yul\":23039:23046   */\n      0x00\n        /* \"#utility.yul\":23068:23073   */\n      dup2\n        /* \"#utility.yul\":23057:23073   */\n      swap1\n      pop\n        /* \"#utility.yul\":23002:23079   */\n      swap2\n      swap1\n      pop\n      jump\t// out\n        /* \"#utility.yul\":23085:23216   */\n    tag_558:\n        /* \"#utility.yul\":23143:23152   */\n      0x00\n        /* \"#utility.yul\":23176:23210   */\n      tag_700\n        /* \"#utility.yul\":23204:23209   */\n      dup3\n        /* \"#utility.yul\":23176:23210   */\n      tag_689\n      jump\t// in\n    tag_700:\n        /* \"#utility.yul\":23163:23210   */\n      swap1\n      pop\n        /* \"#utility.yul\":23085:23216   */\n      swap2\n      swap1\n      pop\n      jump\t// out\n        /* \"#utility.yul\":23222:23357   */\n    tag_562:\n        /* \"#utility.yul\":23282:23291   */\n      0x00\n        /* \"#utility.yul\":23315:23351   */\n      tag_702\n        /* \"#utility.yul\":23345:23350   */\n      dup3\n        /* \"#utility.yul\":23315:23351   */\n      tag_693\n      jump\t// in\n    tag_702:\n        /* \"#utility.yul\":23302:23351   */\n      swap1\n      pop\n        /* \"#utility.yul\":23222:23357   */\n      swap2\n      swap1\n      pop\n      jump\t// out\n        /* \"#utility.yul\":23363:23517   */\n    tag_450:\n        /* \"#utility.yul\":23447:23453   */\n      dup3\n        /* \"#utility.yul\":23442:23445   */\n      dup2\n        /* \"#utility.yul\":23437:23440   */\n      dup4\n        /* \"#utility.yul\":23424:23454   */\n      calldatacopy\n        /* \"#utility.yul\":23509:23510   */\n      0x00\n        /* \"#utility.yul\":23500:23506   */\n      dup4\n        /* \"#utility.yul\":23495:23498   */\n      dup4\n        /* \"#utility.yul\":23491:23507   */\n      add\n        /* \"#utility.yul\":23484:23511   */\n      mstore\n        /* \"#utility.yul\":23363:23517   */\n      pop\n      pop\n      pop\n      jump\t// out\n        /* \"#utility.yul\":23523:23830   */\n    tag_573:\n        /* \"#utility.yul\":23591:23592   */\n      0x00\n        /* \"#utility.yul\":23601:23714   */\n    tag_705:\n        /* \"#utility.yul\":23615:23621   */\n      dup4\n        /* \"#utility.yul\":23612:23613   */\n      dup2\n        /* \"#utility.yul\":23609:23622   */\n      lt\n        /* \"#utility.yul\":23601:23714   */\n      iszero\n      tag_707\n      jumpi\n        /* \"#utility.yul\":23700:23701   */\n      dup1\n        /* \"#utility.yul\":23695:23698   */\n      dup3\n        /* \"#utility.yul\":23691:23702   */\n      add\n        /* \"#utility.yul\":23685:23703   */\n      mload\n        /* \"#utility.yul\":23681:23682   */\n      dup2\n        /* \"#utility.yul\":23676:23679   */\n      dup5\n        /* \"#utility.yul\":23672:23683   */\n      add\n        /* \"#utility.yul\":23665:23704   */\n      mstore\n        /* \"#utility.yul\":23637:23639   */\n      0x20\n        /* \"#utility.yul\":23634:23635   */\n      dup2\n        /* \"#utility.yul\":23630:23640   */\n      add\n        /* \"#utility.yul\":23625:23640   */\n      swap1\n      pop\n        /* \"#utility.yul\":23601:23714   */\n      jump(tag_705)\n    tag_707:\n        /* \"#utility.yul\":23732:23738   */\n      dup4\n        /* \"#utility.yul\":23729:23730   */\n      dup2\n        /* \"#utility.yul\":23726:23739   */\n      gt\n        /* \"#utility.yul\":23723:23824   */\n      iszero\n      tag_708\n      jumpi\n        /* \"#utility.yul\":23812:23813   */\n      0x00\n        /* \"#utility.yul\":23803:23809   */\n      dup5\n        /* \"#utility.yul\":23798:23801   */\n      dup5\n        /* \"#utility.yul\":23794:23810   */\n      add\n        /* \"#utility.yul\":23787:23814   */\n      mstore\n        /* \"#utility.yul\":23723:23824   */\n    tag_708:\n        /* \"#utility.yul\":23572:23830   */\n      pop\n        /* \"#utility.yul\":23523:23830   */\n      pop\n      pop\n      pop\n      jump\t// out\n        /* \"#utility.yul\":23836:24156   */\n    tag_102:\n        /* \"#utility.yul\":23880:23886   */\n      0x00\n        /* \"#utility.yul\":23917:23918   */\n      0x02\n        /* \"#utility.yul\":23911:23915   */\n      dup3\n        /* \"#utility.yul\":23907:23919   */\n      div\n        /* \"#utility.yul\":23897:23919   */\n      swap1\n      pop\n        /* \"#utility.yul\":23964:23965   */\n      0x01\n        /* \"#utility.yul\":23958:23962   */\n      dup3\n        /* \"#utility.yul\":23954:23966   */\n      and\n        /* \"#utility.yul\":23985:24003   */\n      dup1\n        /* \"#utility.yul\":23975:24056   */\n      tag_710\n      jumpi\n        /* \"#utility.yul\":24041:24045   */\n      0x7f\n        /* \"#utility.yul\":24033:24039   */\n      dup3\n        /* \"#utility.yul\":24029:24046   */\n      and\n        /* \"#utility.yul\":24019:24046   */\n      swap2\n      pop\n        /* \"#utility.yul\":23975:24056   */\n    tag_710:\n        /* \"#utility.yul\":24103:24105   */\n      0x20\n        /* \"#utility.yul\":24095:24101   */\n      dup3\n        /* \"#utility.yul\":24092:24106   */\n      lt\n        /* \"#utility.yul\":24072:24090   */\n      dup2\n        /* \"#utility.yul\":24069:24107   */\n      eq\n        /* \"#utility.yul\":24066:24150   */\n      iszero\n      tag_711\n      jumpi\n        /* \"#utility.yul\":24122:24140   */\n      tag_712\n      tag_713\n      jump\t// in\n    tag_712:\n        /* \"#utility.yul\":24066:24150   */\n    tag_711:\n        /* \"#utility.yul\":23887:24156   */\n      pop\n        /* \"#utility.yul\":23836:24156   */\n      swap2\n      swap1\n      pop\n      jump\t// out\n        /* \"#utility.yul\":24162:24443   */\n    tag_656:\n        /* \"#utility.yul\":24245:24272   */\n      tag_715\n        /* \"#utility.yul\":24267:24271   */\n      dup3\n        /* \"#utility.yul\":24245:24272   */\n      tag_575\n      jump\t// in\n    tag_715:\n        /* \"#utility.yul\":24237:24243   */\n      dup2\n        /* \"#utility.yul\":24233:24273   */\n      add\n        /* \"#utility.yul\":24375:24381   */\n      dup2\n        /* \"#utility.yul\":24363:24373   */\n      dup2\n        /* \"#utility.yul\":24360:24382   */\n      lt\n        /* \"#utility.yul\":24339:24357   */\n      0xffffffffffffffff\n        /* \"#utility.yul\":24327:24337   */\n      dup3\n        /* \"#utility.yul\":24324:24358   */\n      gt\n        /* \"#utility.yul\":24321:24383   */\n      or\n        /* \"#utility.yul\":24318:24406   */\n      iszero\n      tag_716\n      jumpi\n        /* \"#utility.yul\":24386:24404   */\n      tag_717\n      tag_80\n      jump\t// in\n    tag_717:\n        /* \"#utility.yul\":24318:24406   */\n    tag_716:\n        /* \"#utility.yul\":24426:24436   */\n      dup1\n        /* \"#utility.yul\":24422:24424   */\n      0x40\n        /* \"#utility.yul\":24415:24437   */\n      mstore\n        /* \"#utility.yul\":24205:24443   */\n      pop\n        /* \"#utility.yul\":24162:24443   */\n      pop\n      pop\n      jump\t// out\n        /* \"#utility.yul\":24449:24682   */\n    tag_125:\n        /* \"#utility.yul\":24488:24491   */\n      0x00\n        /* \"#utility.yul\":24511:24535   */\n      tag_719\n        /* \"#utility.yul\":24529:24534   */\n      dup3\n        /* \"#utility.yul\":24511:24535   */\n      tag_622\n      jump\t// in\n    tag_719:\n        /* \"#utility.yul\":24502:24535   */\n      swap2\n      pop\n        /* \"#utility.yul\":24557:24623   */\n      0xffffffffffffffffffffffffffffffffffffffffffffffffffffffffffffffff\n        /* \"#utility.yul\":24550:24555   */\n      dup3\n        /* \"#utility.yul\":24547:24624   */\n      eq\n        /* \"#utility.yul\":24544:24647   */\n      iszero\n      tag_720\n      jumpi\n        /* \"#utility.yul\":24627:24645   */\n      tag_721\n      tag_679\n      jump\t// in\n    tag_721:\n        /* \"#utility.yul\":24544:24647   */\n    tag_720:\n        /* \"#utility.yul\":24674:24675   */\n      0x01\n        /* \"#utility.yul\":24667:24672   */\n      dup3\n        /* \"#utility.yul\":24663:24676   */\n      add\n        /* \"#utility.yul\":24656:24676   */\n      swap1\n      pop\n        /* \"#utility.yul\":24449:24682   */\n      swap2\n      swap1\n      pop\n      jump\t// out\n        /* \"#utility.yul\":24688:24868   */\n    tag_679:\n        /* \"#utility.yul\":24736:24813   */\n      0x4e487b7100000000000000000000000000000000000000000000000000000000\n        /* \"#utility.yul\":24733:24734   */\n      0x00\n        /* \"#utility.yul\":24726:24814   */\n      mstore\n        /* \"#utility.yul\":24833:24837   */\n      0x11\n        /* \"#utility.yul\":24830:24831   */\n      0x04\n        /* \"#utility.yul\":24823:24838   */\n      mstore\n        /* \"#utility.yul\":24857:24861   */\n      0x24\n        /* \"#utility.yul\":24854:24855   */\n      0x00\n        /* \"#utility.yul\":24847:24862   */\n      revert\n        /* \"#utility.yul\":24874:25054   */\n    tag_90:\n        /* \"#utility.yul\":24922:24999   */\n      0x4e487b7100000000000000000000000000000000000000000000000000000000\n        /* \"#utility.yul\":24919:24920   */\n      0x00\n        /* \"#utility.yul\":24912:25000   */\n      mstore\n        /* \"#utility.yul\":25019:25023   */\n      0x21\n        /* \"#utility.yul\":25016:25017   */\n      0x04\n        /* \"#utility.yul\":25009:25024   */\n      mstore\n        /* \"#utility.yul\":25043:25047   */\n      0x24\n        /* \"#utility.yul\":25040:25041   */\n      0x00\n        /* \"#utility.yul\":25033:25048   */\n      revert\n        /* \"#utility.yul\":25060:25240   */\n    tag_713:\n        /* \"#utility.yul\":25108:25185   */\n      0x4e487b7100000000000000000000000000000000000000000000000000000000\n        /* \"#utility.yul\":25105:25106   */\n      0x00\n        /* \"#utility.yul\":25098:25186   */\n      mstore\n        /* \"#utility.yul\":25205:25209   */\n      0x22\n        /* \"#utility.yul\":25202:25203   */\n      0x04\n        /* \"#utility.yul\":25195:25210   */\n      mstore\n        /* \"#utility.yul\":25229:25233   */\n      0x24\n        /* \"#utility.yul\":25226:25227   */\n      0x00\n        /* \"#utility.yul\":25219:25234   */\n      revert\n        /* \"#utility.yul\":25246:25426   */\n    tag_93:\n        /* \"#utility.yul\":25294:25371   */\n      0x4e487b7100000000000000000000000000000000000000000000000000000000\n        /* \"#utility.yul\":25291:25292   */\n      0x00\n        /* \"#utility.yul\":25284:25372   */\n      mstore\n        /* \"#utility.yul\":25391:25395   */\n      0x32\n        /* \"#utility.yul\":25388:25389   */\n      0x04\n        /* \"#utility.yul\":25381:25396   */\n      mstore\n        /* \"#utility.yul\":25415:25419   */\n      0x24\n        /* \"#utility.yul\":25412:25413   */\n      0x00\n        /* \"#utility.yul\":25405:25420   */\n      revert\n        /* \"#utility.yul\":25432:25612   */\n    tag_80:\n        /* \"#utility.yul\":25480:25557   */\n      0x4e487b7100000000000000000000000000000000000000000000000000000000\n        /* \"#utility.yul\":25477:25478   */\n      0x00\n        /* \"#utility.yul\":25470:25558   */\n      mstore\n        /* \"#utility.yul\":25577:25581   */\n      0x41\n        /* \"#utility.yul\":25574:25575   */\n      0x04\n        /* \"#utility.yul\":25567:25582   */\n      mstore\n        /* \"#utility.yul\":25601:25605   */\n      0x24\n        /* \"#utility.yul\":25598:25599   */\n      0x00\n        /* \"#utility.yul\":25591:25606   */\n      revert\n        /* \"#utility.yul\":25618:25735   */\n    tag_463:\n        /* \"#utility.yul\":25727:25728   */\n      0x00\n        /* \"#utility.yul\":25724:25725   */\n      dup1\n        /* \"#utility.yul\":25717:25729   */\n      revert\n        /* \"#utility.yul\":25741:25858   */\n    tag_448:\n        /* \"#utility.yul\":25850:25851   */\n      0x00\n        /* \"#utility.yul\":25847:25848   */\n      dup1\n        /* \"#utility.yul\":25840:25852   */\n      revert\n        /* \"#utility.yul\":25864:25981   */\n    tag_483:\n        /* \"#utility.yul\":25973:25974   */\n      0x00\n        /* \"#utility.yul\":25970:25971   */\n      dup1\n        /* \"#utility.yul\":25963:25975   */\n      revert\n        /* \"#utility.yul\":25987:26104   */\n    tag_472:\n        /* \"#utility.yul\":26096:26097   */\n      0x00\n        /* \"#utility.yul\":26093:26094   */\n      dup1\n        /* \"#utility.yul\":26086:26098   */\n      revert\n        /* \"#utility.yul\":26110:26212   */\n    tag_575:\n        /* \"#utility.yul\":26151:26157   */\n      0x00\n        /* \"#utility.yul\":26202:26204   */\n      0x1f\n        /* \"#utility.yul\":26198:26205   */\n      not\n        /* \"#utility.yul\":26193:26195   */\n      0x1f\n        /* \"#utility.yul\":26186:26191   */\n      dup4\n        /* \"#utility.yul\":26182:26196   */\n      add\n        /* \"#utility.yul\":26178:26206   */\n      and\n        /* \"#utility.yul\":26168:26206   */\n      swap1\n      pop\n        /* \"#utility.yul\":26110:26212   */\n      swap2\n      swap1\n      pop\n      jump\t// out\n        /* \"#utility.yul\":26218:26333   */\n    tag_692:\n        /* \"#utility.yul\":26301:26302   */\n      0x03\n        /* \"#utility.yul\":26294:26299   */\n      dup2\n        /* \"#utility.yul\":26291:26303   */\n      lt\n        /* \"#utility.yul\":26281:26327   */\n      tag_733\n      jumpi\n        /* \"#utility.yul\":26307:26325   */\n      tag_734\n      tag_90\n      jump\t// in\n    tag_734:\n        /* \"#utility.yul\":26281:26327   */\n    tag_733:\n        /* \"#utility.yul\":26218:26333   */\n      pop\n      jump\t// out\n        /* \"#utility.yul\":26339:26456   */\n    tag_696:\n        /* \"#utility.yul\":26424:26425   */\n      0x09\n        /* \"#utility.yul\":26417:26422   */\n      dup2\n        /* \"#utility.yul\":26414:26426   */\n      lt\n        /* \"#utility.yul\":26404:26450   */\n      tag_736\n      jumpi\n        /* \"#utility.yul\":26430:26448   */\n      tag_737\n      tag_90\n      jump\t// in\n    tag_737:\n        /* \"#utility.yul\":26404:26450   */\n    tag_736:\n        /* \"#utility.yul\":26339:26456   */\n      pop\n      jump\t// out\n        /* \"#utility.yul\":26462:26584   */\n    tag_454:\n        /* \"#utility.yul\":26535:26559   */\n      tag_739\n        /* \"#utility.yul\":26553:26558   */\n      dup2\n        /* \"#utility.yul\":26535:26559   */\n      tag_519\n      jump\t// in\n    tag_739:\n        /* \"#utility.yul\":26528:26533   */\n      dup2\n        /* \"#utility.yul\":26525:26560   */\n      eq\n        /* \"#utility.yul\":26515:26578   */\n      tag_740\n      jumpi\n        /* \"#utility.yul\":26574:26575   */\n      0x00\n        /* \"#utility.yul\":26571:26572   */\n      dup1\n        /* \"#utility.yul\":26564:26576   */\n      revert\n        /* \"#utility.yul\":26515:26578   */\n    tag_740:\n        /* \"#utility.yul\":26462:26584   */\n      pop\n      jump\t// out\n        /* \"#utility.yul\":26590:26701   */\n    tag_458:\n        /* \"#utility.yul\":26675:26676   */\n      0x09\n        /* \"#utility.yul\":26668:26673   */\n      dup2\n        /* \"#utility.yul\":26665:26677   */\n      lt\n        /* \"#utility.yul\":26655:26695   */\n      tag_742\n      jumpi\n        /* \"#utility.yul\":26691:26692   */\n      0x00\n        /* \"#utility.yul\":26688:26689   */\n      dup1\n        /* \"#utility.yul\":26681:26693   */\n      revert\n        /* \"#utility.yul\":26655:26695   */\n    tag_742:\n        /* \"#utility.yul\":26590:26701   */\n      pop\n      jump\t// out\n        /* \"#utility.yul\":26707:26829   */\n    tag_468:\n        /* \"#utility.yul\":26780:26804   */\n      tag_744\n        /* \"#utility.yul\":26798:26803   */\n      dup2\n        /* \"#utility.yul\":26780:26804   */\n      tag_622\n      jump\t// in\n    tag_744:\n        /* \"#utility.yul\":26773:26778   */\n      dup2\n        /* \"#utility.yul\":26770:26805   */\n      eq\n        /* \"#utility.yul\":26760:26823   */\n      tag_745\n      jumpi\n        /* \"#utility.yul\":26819:26820   */\n      0x00\n        /* \"#utility.yul\":26816:26817   */\n      dup1\n        /* \"#utility.yul\":26809:26821   */\n      revert\n        /* \"#utility.yul\":26760:26823   */\n    tag_745:\n        /* \"#utility.yul\":26707:26829   */\n      pop\n      jump\t// out\n\n    auxdata: 0xa26469706673582212208a6d819cce262c4c68a0aa72bbe9fd9d25035fac4a86f9e50e73580aaf5c138664736f6c63430008070033\n}\n",
				"bytecode": {
					"linkReferences": {},
					"object": "608060405234801561001057600080fd5b5061314a806100206000396000f3fe608060405234801561001057600080fd5b50600436106100b45760003560e01c8063798d212211610071578063798d2122146101cd57806399b5bbdd146101fd578063b4a99a4e1461022d578063cd1720d11461024b578063cdf7e73d1461027b578063e9a734ff146102ab576100b4565b80630f9de977146100b95780631567697c146100e957806331a6db4d1461011f57806340d37caf1461014f5780634b2d14aa1461017f578063783a7895146101af575b600080fd5b6100d360048036038101906100ce9190612500565b6102db565b6040516100e09190612b60565b60405180910390f35b61010360048036038101906100fe9190612679565b61078c565b6040516101169796959493929190612bb8565b60405180910390f35b610139600480360381019061013491906125ee565b61092e565b6040516101469190612b3e565b60405180910390f35b61016960048036038101906101649190612576565b610f2d565b6040516101769190612b3e565b60405180910390f35b6101996004803603810190610194919061252d565b611434565b6040516101a69190612b3e565b60405180910390f35b6101b761187b565b6040516101c49190612b9d565b60405180910390f35b6101e760048036038101906101e291906125ee565b6119d2565b6040516101f49190612c79565b60405180910390f35b610217600480360381019061021291906124d3565b611ac2565b6040516102249190612b3e565b60405180910390f35b610235611ec6565b6040516102429190612b23565b60405180910390f35b610265600480360381019061026091906124d3565b611eea565b6040516102729190612c57565b60405180910390f35b6102956004803603810190610290919061252d565b612147565b6040516102a29190612c35565b60405180910390f35b6102c560048036038101906102c09190612576565b6122a2565b6040516102d29190612b82565b60405180910390f35b60606000600280549050905060008167ffffffffffffffff8111156103035761030261305a565b5b60405190808252806020026020018201604052801561033c57816020015b6103296122fb565b8152602001906001900390816103215790505b509050600080600090505b838110156106d55785600881111561036257610361612fcd565b5b600160006002848154811061037a5761037961302b565b5b9060005260206000200160009054906101000a900473ffffffffffffffffffffffffffffffffffffffff1673ffffffffffffffffffffffffffffffffffffffff1673ffffffffffffffffffffffffffffffffffffffff16815260200190815260200160002060020160009054906101000a900460ff16600881111561040257610401612fcd565b5b14156106c25760016000600283815481106104205761041f61302b565b5b9060005260206000200160009054906101000a900473ffffffffffffffffffffffffffffffffffffffff1673ffffffffffffffffffffffffffffffffffffffff1673ffffffffffffffffffffffffffffffffffffffff1681526020019081526020016000206040518060e00160405290816000820180546104a090612ef2565b80601f01602080910402602001604051908101604052809291908181526020018280546104cc90612ef2565b80156105195780601f106104ee57610100808354040283529160200191610519565b820191906000526020600020905b8154815290600101906020018083116104fc57829003601f168201915b5050505050815260200160018201805461053290612ef2565b80601f016020809104026020016040519081016040528092919081815260200182805461055e90612ef2565b80156105ab5780601f10610580576101008083540402835291602001916105ab565b820191906000526020600020905b81548152906001019060200180831161058e57829003601f168201915b505050505081526020016002820160009054906101000a900460ff1660088111156105d9576105d8612fcd565b5b60088111156105eb576105ea612fcd565b5b81526020016002820160019054906101000a900460ff16600281111561061457610613612fcd565b5b600281111561062657610625612fcd565b5b815260200160038201548152602001600482015481526020016005820160009054906101000a900473ffffffffffffffffffffffffffffffffffffffff1673ffffffffffffffffffffffffffffffffffffffff1673ffffffffffffffffffffffffffffffffffffffff16815250508383815181106106a7576106a661302b565b5b60200260200101819052506001826106bf9190612d94565b91505b80806106cd90612f55565b915050610347565b508067ffffffffffffffff8111156106f0576106ef61305a565b5b60405190808252806020026020018201604052801561072957816020015b6107166122fb565b81526020019060019003908161070e5790505b50935060005b818110156107835782818151811061074a5761074961302b565b5b60200260200101518582815181106107655761076461302b565b5b6020026020010181905250808061077b90612f55565b91505061072f565b50505050919050565b6005818154811061079c57600080fd5b90600052602060002090600702016000915090508060000180546107bf90612ef2565b80601f01602080910402602001604051908101604052809291908181526020018280546107eb90612ef2565b80156108385780601f1061080d57610100808354040283529160200191610838565b820191906000526020600020905b81548152906001019060200180831161081b57829003601f168201915b50505050509080600101805461084d90612ef2565b80601f016020809104026020016040519081016040528092919081815260200182805461087990612ef2565b80156108c65780601f1061089b576101008083540402835291602001916108c6565b820191906000526020600020905b8154815290600101906020018083116108a957829003601f168201915b5050505050908060020154908060030160009054906101000a900473ffffffffffffffffffffffffffffffffffffffff16908060040160009054906101000a900473ffffffffffffffffffffffffffffffffffffffff16908060050154908060060154905087565b606060008060058054905067ffffffffffffffff8111156109525761095161305a565b5b60405190808252806020026020018201604052801561098b57816020015b610978612372565b8152602001906001900390816109705790505b50905060005b600580549050811015610e6b57610a55600582815481106109b5576109b461302b565b5b906000526020600020906007020160010180546109d190612ef2565b80601f01602080910402602001604051908101604052809291908181526020018280546109fd90612ef2565b8015610a4a5780601f10610a1f57610100808354040283529160200191610a4a565b820191906000526020600020905b815481529060010190602001808311610a2d57829003601f168201915b5050505050886122a2565b8015610b145750610b1360058281548110610a7357610a7261302b565b5b90600052602060002090600702016000018054610a8f90612ef2565b80601f0160208091040260200160405190810160405280929190818152602001828054610abb90612ef2565b8015610b085780601f10610add57610100808354040283529160200191610b08565b820191906000526020600020905b815481529060010190602001808311610aeb57829003601f168201915b5050505050876122a2565b5b8015610c0b57508473ffffffffffffffffffffffffffffffffffffffff1660058281548110610b4657610b4561302b565b5b906000526020600020906007020160040160009054906101000a900473ffffffffffffffffffffffffffffffffffffffff1673ffffffffffffffffffffffffffffffffffffffff161480610c0a57508473ffffffffffffffffffffffffffffffffffffffff1660058281548110610bc057610bbf61302b565b5b906000526020600020906007020160030160009054906101000a900473ffffffffffffffffffffffffffffffffffffffff1673ffffffffffffffffffffffffffffffffffffffff16145b5b15610e585760058181548110610c2457610c2361302b565b5b90600052602060002090600702016040518060e0016040529081600082018054610c4d90612ef2565b80601f0160208091040260200160405190810160405280929190818152602001828054610c7990612ef2565b8015610cc65780601f10610c9b57610100808354040283529160200191610cc6565b820191906000526020600020905b815481529060010190602001808311610ca957829003601f168201915b50505050508152602001600182018054610cdf90612ef2565b80601f0160208091040260200160405190810160405280929190818152602001828054610d0b90612ef2565b8015610d585780601f10610d2d57610100808354040283529160200191610d58565b820191906000526020600020905b815481529060010190602001808311610d3b57829003601f168201915b50505050508152602001600282015481526020016003820160009054906101000a900473ffffffffffffffffffffffffffffffffffffffff1673ffffffffffffffffffffffffffffffffffffffff1673ffffffffffffffffffffffffffffffffffffffff1681526020016004820160009054906101000a900473ffffffffffffffffffffffffffffffffffffffff1673ffffffffffffffffffffffffffffffffffffffff1673ffffffffffffffffffffffffffffffffffffffff16815260200160058201548152602001600682015481525050828481518110610e3e57610e3d61302b565b5b60200260200101819052508280610e5490612f55565b9350505b8080610e6390612f55565b915050610991565b508167ffffffffffffffff811115610e8657610e8561305a565b5b604051908082528060200260200182016040528015610ebf57816020015b610eac612372565b815260200190600190039081610ea45790505b5092506000821115610f245760005b82811015610f2257818181518110610ee957610ee861302b565b5b6020026020010151848281518110610f0457610f0361302b565b5b60200260200101819052508080610f1a90612f55565b915050610ece565b505b50509392505050565b606060008060058054905067ffffffffffffffff811115610f5157610f5061305a565b5b604051908082528060200260200182016040528015610f8a57816020015b610f77612372565b815260200190600190039081610f6f5790505b50905060005b6005805490508110156113735761105460058281548110610fb457610fb361302b565b5b90600052602060002090600702016001018054610fd090612ef2565b80601f0160208091040260200160405190810160405280929190818152602001828054610ffc90612ef2565b80156110495780601f1061101e57610100808354040283529160200191611049565b820191906000526020600020905b81548152906001019060200180831161102c57829003601f168201915b5050505050876122a2565b80156111135750611112600582815481106110725761107161302b565b5b9060005260206000209060070201600001805461108e90612ef2565b80601f01602080910402602001604051908101604052809291908181526020018280546110ba90612ef2565b80156111075780601f106110dc57610100808354040283529160200191611107565b820191906000526020600020905b8154815290600101906020018083116110ea57829003601f168201915b5050505050866122a2565b5b15611360576005818154811061112c5761112b61302b565b5b90600052602060002090600702016040518060e001604052908160008201805461115590612ef2565b80601f016020809104026020016040519081016040528092919081815260200182805461118190612ef2565b80156111ce5780601f106111a3576101008083540402835291602001916111ce565b820191906000526020600020905b8154815290600101906020018083116111b157829003601f168201915b505050505081526020016001820180546111e790612ef2565b80601f016020809104026020016040519081016040528092919081815260200182805461121390612ef2565b80156112605780601f1061123557610100808354040283529160200191611260565b820191906000526020600020905b81548152906001019060200180831161124357829003601f168201915b50505050508152602001600282015481526020016003820160009054906101000a900473ffffffffffffffffffffffffffffffffffffffff1673ffffffffffffffffffffffffffffffffffffffff1673ffffffffffffffffffffffffffffffffffffffff1681526020016004820160009054906101000a900473ffffffffffffffffffffffffffffffffffffffff1673ffffffffffffffffffffffffffffffffffffffff1673ffffffffffffffffffffffffffffffffffffffff168152602001600582015481526020016006820154815250508284815181106113465761134561302b565b5b6020026020010181905250828061135c90612f55565b9350505b808061136b90612f55565b915050610f90565b508167ffffffffffffffff81111561138e5761138d61305a565b5b6040519080825280602002602001820160405280156113c757816020015b6113b4612372565b8152602001906001900390816113ac5790505b509250600082111561142c5760005b8281101561142a578181815181106113f1576113f061302b565b5b602002602001015184828151811061140c5761140b61302b565b5b6020026020010181905250808061142290612f55565b9150506113d6565b505b505092915050565b606060008060058054905067ffffffffffffffff8111156114585761145761305a565b5b60405190808252806020026020018201604052801561149157816020015b61147e612372565b8152602001906001900390816114765790505b50905060005b6005805490508110156117bb5761155b600582815481106114bb576114ba61302b565b5b906000526020600020906007020160000180546114d790612ef2565b80601f016020809104026020016040519081016040528092919081815260200182805461150390612ef2565b80156115505780601f1061152557610100808354040283529160200191611550565b820191906000526020600020905b81548152906001019060200180831161153357829003601f168201915b5050505050866122a2565b156117a857600581815481106115745761157361302b565b5b90600052602060002090600702016040518060e001604052908160008201805461159d90612ef2565b80601f01602080910402602001604051908101604052809291908181526020018280546115c990612ef2565b80156116165780601f106115eb57610100808354040283529160200191611616565b820191906000526020600020905b8154815290600101906020018083116115f957829003601f168201915b5050505050815260200160018201805461162f90612ef2565b80601f016020809104026020016040519081016040528092919081815260200182805461165b90612ef2565b80156116a85780601f1061167d576101008083540402835291602001916116a8565b820191906000526020600020905b81548152906001019060200180831161168b57829003601f168201915b50505050508152602001600282015481526020016003820160009054906101000a900473ffffffffffffffffffffffffffffffffffffffff1673ffffffffffffffffffffffffffffffffffffffff1673ffffffffffffffffffffffffffffffffffffffff1681526020016004820160009054906101000a900473ffffffffffffffffffffffffffffffffffffffff1673ffffffffffffffffffffffffffffffffffffffff1673ffffffffffffffffffffffffffffffffffffffff1681526020016005820154815260200160068201548152505082848151811061178e5761178d61302b565b5b602002602001018190525082806117a490612f55565b9350505b80806117b390612f55565b915050611497565b508167ffffffffffffffff8111156117d6576117d561305a565b5b60405190808252806020026020018201604052801561180f57816020015b6117fc612372565b8152602001906001900390816117f45790505b50925060008211156118745760005b82811015611872578181815181106118395761183861302b565b5b60200260200101518482815181106118545761185361302b565b5b6020026020010181905250808061186a90612f55565b91505061181e565b505b5050919050565b60008060009054906101000a900473ffffffffffffffffffffffffffffffffffffffff1673ffffffffffffffffffffffffffffffffffffffff163373ffffffffffffffffffffffffffffffffffffffff1614156118db57600090506119cf565b600073ffffffffffffffffffffffffffffffffffffffff16600160003373ffffffffffffffffffffffffffffffffffffffff1673ffffffffffffffffffffffffffffffffffffffff16815260200190815260200160002060050160009054906101000a900473ffffffffffffffffffffffffffffffffffffffff1673ffffffffffffffffffffffffffffffffffffffff16141561197b57600890506119ce565b600160003373ffffffffffffffffffffffffffffffffffffffff1673ffffffffffffffffffffffffffffffffffffffff16815260200190815260200160002060020160009054906101000a900460ff1690505b5b90565b6000806119e085858561092e565b905060008060005b8351811015611aa9578573ffffffffffffffffffffffffffffffffffffffff16848281518110611a1b57611a1a61302b565b5b60200260200101516080015173ffffffffffffffffffffffffffffffffffffffff161415611a6957838181518110611a5657611a5561302b565b5b602002602001015160a001519250611a96565b838181518110611a7c57611a7b61302b565b5b602002602001015160a0015182611a939190612d94565b91505b8080611aa190612f55565b9150506119e8565b508082611ab69190612dea565b93505050509392505050565b606060008060058054905067ffffffffffffffff811115611ae657611ae561305a565b5b604051908082528060200260200182016040528015611b1f57816020015b611b0c612372565b815260200190600190039081611b045790505b50905060005b600580549050811015611e06578473ffffffffffffffffffffffffffffffffffffffff1660058281548110611b5d57611b5c61302b565b5b906000526020600020906007020160040160009054906101000a900473ffffffffffffffffffffffffffffffffffffffff1673ffffffffffffffffffffffffffffffffffffffff161415611df35760058181548110611bbf57611bbe61302b565b5b90600052602060002090600702016040518060e0016040529081600082018054611be890612ef2565b80601f0160208091040260200160405190810160405280929190818152602001828054611c1490612ef2565b8015611c615780601f10611c3657610100808354040283529160200191611c61565b820191906000526020600020905b815481529060010190602001808311611c4457829003601f168201915b50505050508152602001600182018054611c7a90612ef2565b80601f0160208091040260200160405190810160405280929190818152602001828054611ca690612ef2565b8015611cf35780601f10611cc857610100808354040283529160200191611cf3565b820191906000526020600020905b815481529060010190602001808311611cd657829003601f168201915b50505050508152602001600282015481526020016003820160009054906101000a900473ffffffffffffffffffffffffffffffffffffffff1673ffffffffffffffffffffffffffffffffffffffff1673ffffffffffffffffffffffffffffffffffffffff1681526020016004820160009054906101000a900473ffffffffffffffffffffffffffffffffffffffff1673ffffffffffffffffffffffffffffffffffffffff1673ffffffffffffffffffffffffffffffffffffffff16815260200160058201548152602001600682015481525050828481518110611dd957611dd861302b565b5b60200260200101819052508280611def90612f55565b9350505b8080611dfe90612f55565b915050611b25565b508167ffffffffffffffff811115611e2157611e2061305a565b5b604051908082528060200260200182016040528015611e5a57816020015b611e47612372565b815260200190600190039081611e3f5790505b5092506000821115611ebf5760005b82811015611ebd57818181518110611e8457611e8361302b565b5b6020026020010151848281518110611e9f57611e9e61302b565b5b60200260200101819052508080611eb590612f55565b915050611e69565b505b5050919050565b60008054906101000a900473ffffffffffffffffffffffffffffffffffffffff1681565b611ef26122fb565b600160008373ffffffffffffffffffffffffffffffffffffffff1673ffffffffffffffffffffffffffffffffffffffff1681526020019081526020016000206040518060e0016040529081600082018054611f4c90612ef2565b80601f0160208091040260200160405190810160405280929190818152602001828054611f7890612ef2565b8015611fc55780601f10611f9a57610100808354040283529160200191611fc5565b820191906000526020600020905b815481529060010190602001808311611fa857829003601f168201915b50505050508152602001600182018054611fde90612ef2565b80601f016020809104026020016040519081016040528092919081815260200182805461200a90612ef2565b80156120575780601f1061202c57610100808354040283529160200191612057565b820191906000526020600020905b81548152906001019060200180831161203a57829003601f168201915b505050505081526020016002820160009054906101000a900460ff16600881111561208557612084612fcd565b5b600881111561209757612096612fcd565b5b81526020016002820160019054906101000a900460ff1660028111156120c0576120bf612fcd565b5b60028111156120d2576120d1612fcd565b5b815260200160038201548152602001600482015481526020016005820160009054906101000a900473ffffffffffffffffffffffffffffffffffffffff1673ffffffffffffffffffffffffffffffffffffffff1673ffffffffffffffffffffffffffffffffffffffff16815250509050919050565b61214f6123db565b60038260405161215f9190612b0c565b908152602001604051809103902060405180606001604052908160008201805461218890612ef2565b80601f01602080910402602001604051908101604052809291908181526020018280546121b490612ef2565b80156122015780601f106121d657610100808354040283529160200191612201565b820191906000526020600020905b8154815290600101906020018083116121e457829003601f168201915b505050505081526020016001820160009054906101000a900473ffffffffffffffffffffffffffffffffffffffff1673ffffffffffffffffffffffffffffffffffffffff1673ffffffffffffffffffffffffffffffffffffffff1681526020016001820160149054906101000a900460ff16600281111561228557612284612fcd565b5b600281111561229757612296612fcd565b5b815250509050919050565b6000816040516020016122b59190612b0c565b60405160208183030381529060405280519060200120836040516020016122dc9190612b0c565b6040516020818303038152906040528051906020012014905092915050565b6040518060e0016040528060608152602001606081526020016000600881111561232857612327612fcd565b5b81526020016000600281111561234157612340612fcd565b5b81526020016000815260200160008152602001600073ffffffffffffffffffffffffffffffffffffffff1681525090565b6040518060e00160405280606081526020016060815260200160008152602001600073ffffffffffffffffffffffffffffffffffffffff168152602001600073ffffffffffffffffffffffffffffffffffffffff16815260200160008152602001600081525090565b604051806060016040528060608152602001600073ffffffffffffffffffffffffffffffffffffffff1681526020016000600281111561241e5761241d612fcd565b5b81525090565b600061243761243284612cb9565b612c94565b9050828152602081018484840111156124535761245261308e565b5b61245e848285612eb0565b509392505050565b600081359050612475816130d6565b92915050565b60008135905061248a816130ed565b92915050565b600082601f8301126124a5576124a4613089565b5b81356124b5848260208601612424565b91505092915050565b6000813590506124cd816130fd565b92915050565b6000602082840312156124e9576124e8613098565b5b60006124f784828501612466565b91505092915050565b60006020828403121561251657612515613098565b5b60006125248482850161247b565b91505092915050565b60006020828403121561254357612542613098565b5b600082013567ffffffffffffffff81111561256157612560613093565b5b61256d84828501612490565b91505092915050565b6000806040838503121561258d5761258c613098565b5b600083013567ffffffffffffffff8111156125ab576125aa613093565b5b6125b785828601612490565b925050602083013567ffffffffffffffff8111156125d8576125d7613093565b5b6125e485828601612490565b9150509250929050565b60008060006060848603121561260757612606613098565b5b600084013567ffffffffffffffff81111561262557612624613093565b5b61263186828701612490565b935050602084013567ffffffffffffffff81111561265257612651613093565b5b61265e86828701612490565b925050604061266f86828701612466565b9150509250925092565b60006020828403121561268f5761268e613098565b5b600061269d848285016124be565b91505092915050565b60006126b28383612905565b905092915050565b60006126c683836129a8565b905092915050565b6126d781612e1e565b82525050565b6126e681612e1e565b82525050565b60006126f782612d0a565b6127018185612d45565b93508360208202850161271385612cea565b8060005b8581101561274f578484038952815161273085826126a6565b945061273b83612d2b565b925060208a01995050600181019050612717565b50829750879550505050505092915050565b600061276c82612d15565b6127768185612d56565b93508360208202850161278885612cfa565b8060005b858110156127c457848403895281516127a585826126ba565b94506127b083612d38565b925060208a0199505060018101905061278c565b50829750879550505050505092915050565b6127df81612e30565b82525050565b6127ee81612e8c565b82525050565b6127fd81612e9e565b82525050565b61280c81612e9e565b82525050565b600061281d82612d20565b6128278185612d67565b9350612837818560208601612ebf565b6128408161309d565b840191505092915050565b600061285682612d20565b6128608185612d78565b9350612870818560208601612ebf565b6128798161309d565b840191505092915050565b600061288f82612d20565b6128998185612d89565b93506128a9818560208601612ebf565b80840191505092915050565b600060608301600083015184820360008601526128d28282612812565b91505060208301516128e760208601826126ce565b5060408301516128fa60408601826127e5565b508091505092915050565b600060e08301600083015184820360008601526129228282612812565b9150506020830151848203602086015261293c8282612812565b91505060408301516129516040860182612aee565b50606083015161296460608601826126ce565b50608083015161297760808601826126ce565b5060a083015161298a60a0860182612aee565b5060c083015161299d60c0860182612aee565b508091505092915050565b600060e08301600083015184820360008601526129c58282612812565b915050602083015184820360208601526129df8282612812565b91505060408301516129f460408601826127f4565b506060830151612a0760608601826127e5565b506080830151612a1a6080860182612aee565b5060a0830151612a2d60a0860182612aee565b5060c0830151612a4060c08601826126ce565b508091505092915050565b600060e0830160008301518482036000860152612a688282612812565b91505060208301518482036020860152612a828282612812565b9150506040830151612a9760408601826127f4565b506060830151612aaa60608601826127e5565b506080830151612abd6080860182612aee565b5060a0830151612ad060a0860182612aee565b5060c0830151612ae360c08601826126ce565b508091505092915050565b612af781612e82565b82525050565b612b0681612e82565b82525050565b6000612b188284612884565b915081905092915050565b6000602082019050612b3860008301846126dd565b92915050565b60006020820190508181036000830152612b5881846126ec565b905092915050565b60006020820190508181036000830152612b7a8184612761565b905092915050565b6000602082019050612b9760008301846127d6565b92915050565b6000602082019050612bb26000830184612803565b92915050565b600060e0820190508181036000830152612bd2818a61284b565b90508181036020830152612be6818961284b565b9050612bf56040830188612afd565b612c0260608301876126dd565b612c0f60808301866126dd565b612c1c60a0830185612afd565b612c2960c0830184612afd565b98975050505050505050565b60006020820190508181036000830152612c4f81846128b5565b905092915050565b60006020820190508181036000830152612c718184612a4b565b905092915050565b6000602082019050612c8e6000830184612afd565b92915050565b6000612c9e612caf565b9050612caa8282612f24565b919050565b6000604051905090565b600067ffffffffffffffff821115612cd457612cd361305a565b5b612cdd8261309d565b9050602081019050919050565b6000819050602082019050919050565b6000819050602082019050919050565b600081519050919050565b600081519050919050565b600081519050919050565b6000602082019050919050565b6000602082019050919050565b600082825260208201905092915050565b600082825260208201905092915050565b600082825260208201905092915050565b600082825260208201905092915050565b600081905092915050565b6000612d9f82612e82565b9150612daa83612e82565b9250827fffffffffffffffffffffffffffffffffffffffffffffffffffffffffffffffff03821115612ddf57612dde612f9e565b5b828201905092915050565b6000612df582612e82565b9150612e0083612e82565b925082821015612e1357612e12612f9e565b5b828203905092915050565b6000612e2982612e62565b9050919050565b60008115159050919050565b6000819050612e4a826130ae565b919050565b6000819050612e5d826130c2565b919050565b600073ffffffffffffffffffffffffffffffffffffffff82169050919050565b6000819050919050565b6000612e9782612e3c565b9050919050565b6000612ea982612e4f565b9050919050565b82818337600083830152505050565b60005b83811015612edd578082015181840152602081019050612ec2565b83811115612eec576000848401525b50505050565b60006002820490506001821680612f0a57607f821691505b60208210811415612f1e57612f1d612ffc565b5b50919050565b612f2d8261309d565b810181811067ffffffffffffffff82111715612f4c57612f4b61305a565b5b80604052505050565b6000612f6082612e82565b91507fffffffffffffffffffffffffffffffffffffffffffffffffffffffffffffffff821415612f9357612f92612f9e565b5b600182019050919050565b7f4e487b7100000000000000000000000000000000000000000000000000000000600052601160045260246000fd5b7f4e487b7100000000000000000000000000000000000000000000000000000000600052602160045260246000fd5b7f4e487b7100000000000000000000000000000000000000000000000000000000600052602260045260246000fd5b7f4e487b7100000000000000000000000000000000000000000000000000000000600052603260045260246000fd5b7f4e487b7100000000000000000000000000000000000000000000000000000000600052604160045260246000fd5b600080fd5b600080fd5b600080fd5b600080fd5b6000601f19601f8301169050919050565b600381106130bf576130be612fcd565b5b50565b600981106130d3576130d2612fcd565b5b50565b6130df81612e1e565b81146130ea57600080fd5b50565b600981106130fa57600080fd5b50565b61310681612e82565b811461311157600080fd5b5056fea26469706673582212208a6d819cce262c4c68a0aa72bbe9fd9d25035fac4a86f9e50e73580aaf5c138664736f6c63430008070033",
					"opcodes": "PUSH1 0x80 PUSH1 0x40 MSTORE CALLVALUE DUP1 ISZERO PUSH2 0x10 JUMPI PUSH1 0x0 DUP1 REVERT JUMPDEST POP PUSH2 0x314A DUP1 PUSH2 0x20 PUSH1 0x0 CODECOPY PUSH1 0x0 RETURN INVALID PUSH1 0x80 PUSH1 0x40 MSTORE CALLVALUE DUP1 ISZERO PUSH2 0x10 JUMPI PUSH1 0x0 DUP1 REVERT JUMPDEST POP PUSH1 0x4 CALLDATASIZE LT PUSH2 0xB4 JUMPI PUSH1 0x0 CALLDATALOAD PUSH1 0xE0 SHR DUP1 PUSH4 0x798D2122 GT PUSH2 0x71 JUMPI DUP1 PUSH4 0x798D2122 EQ PUSH2 0x1CD JUMPI DUP1 PUSH4 0x99B5BBDD EQ PUSH2 0x1FD JUMPI DUP1 PUSH4 0xB4A99A4E EQ PUSH2 0x22D JUMPI DUP1 PUSH4 0xCD1720D1 EQ PUSH2 0x24B JUMPI DUP1 PUSH4 0xCDF7E73D EQ PUSH2 0x27B JUMPI DUP1 PUSH4 0xE9A734FF EQ PUSH2 0x2AB JUMPI PUSH2 0xB4 JUMP JUMPDEST DUP1 PUSH4 0xF9DE977 EQ PUSH2 0xB9 JUMPI DUP1 PUSH4 0x1567697C EQ PUSH2 0xE9 JUMPI DUP1 PUSH4 0x31A6DB4D EQ PUSH2 0x11F JUMPI DUP1 PUSH4 0x40D37CAF EQ PUSH2 0x14F JUMPI DUP1 PUSH4 0x4B2D14AA EQ PUSH2 0x17F JUMPI DUP1 PUSH4 0x783A7895 EQ PUSH2 0x1AF JUMPI JUMPDEST PUSH1 0x0 DUP1 REVERT JUMPDEST PUSH2 0xD3 PUSH1 0x4 DUP1 CALLDATASIZE SUB DUP2 ADD SWAP1 PUSH2 0xCE SWAP2 SWAP1 PUSH2 0x2500 JUMP JUMPDEST PUSH2 0x2DB JUMP JUMPDEST PUSH1 0x40 MLOAD PUSH2 0xE0 SWAP2 SWAP1 PUSH2 0x2B60 JUMP JUMPDEST PUSH1 0x40 MLOAD DUP1 SWAP2 SUB SWAP1 RETURN JUMPDEST PUSH2 0x103 PUSH1 0x4 DUP1 CALLDATASIZE SUB DUP2 ADD SWAP1 PUSH2 0xFE SWAP2 SWAP1 PUSH2 0x2679 JUMP JUMPDEST PUSH2 0x78C JUMP JUMPDEST PUSH1 0x40 MLOAD PUSH2 0x116 SWAP8 SWAP7 SWAP6 SWAP5 SWAP4 SWAP3 SWAP2 SWAP1 PUSH2 0x2BB8 JUMP JUMPDEST PUSH1 0x40 MLOAD DUP1 SWAP2 SUB SWAP1 RETURN JUMPDEST PUSH2 0x139 PUSH1 0x4 DUP1 CALLDATASIZE SUB DUP2 ADD SWAP1 PUSH2 0x134 SWAP2 SWAP1 PUSH2 0x25EE JUMP JUMPDEST PUSH2 0x92E JUMP JUMPDEST PUSH1 0x40 MLOAD PUSH2 0x146 SWAP2 SWAP1 PUSH2 0x2B3E JUMP JUMPDEST PUSH1 0x40 MLOAD DUP1 SWAP2 SUB SWAP1 RETURN JUMPDEST PUSH2 0x169 PUSH1 0x4 DUP1 CALLDATASIZE SUB DUP2 ADD SWAP1 PUSH2 0x164 SWAP2 SWAP1 PUSH2 0x2576 JUMP JUMPDEST PUSH2 0xF2D JUMP JUMPDEST PUSH1 0x40 MLOAD PUSH2 0x176 SWAP2 SWAP1 PUSH2 0x2B3E JUMP JUMPDEST PUSH1 0x40 MLOAD DUP1 SWAP2 SUB SWAP1 RETURN JUMPDEST PUSH2 0x199 PUSH1 0x4 DUP1 CALLDATASIZE SUB DUP2 ADD SWAP1 PUSH2 0x194 SWAP2 SWAP1 PUSH2 0x252D JUMP JUMPDEST PUSH2 0x1434 JUMP JUMPDEST PUSH1 0x40 MLOAD PUSH2 0x1A6 SWAP2 SWAP1 PUSH2 0x2B3E JUMP JUMPDEST PUSH1 0x40 MLOAD DUP1 SWAP2 SUB SWAP1 RETURN JUMPDEST PUSH2 0x1B7 PUSH2 0x187B JUMP JUMPDEST PUSH1 0x40 MLOAD PUSH2 0x1C4 SWAP2 SWAP1 PUSH2 0x2B9D JUMP JUMPDEST PUSH1 0x40 MLOAD DUP1 SWAP2 SUB SWAP1 RETURN JUMPDEST PUSH2 0x1E7 PUSH1 0x4 DUP1 CALLDATASIZE SUB DUP2 ADD SWAP1 PUSH2 0x1E2 SWAP2 SWAP1 PUSH2 0x25EE JUMP JUMPDEST PUSH2 0x19D2 JUMP JUMPDEST PUSH1 0x40 MLOAD PUSH2 0x1F4 SWAP2 SWAP1 PUSH2 0x2C79 JUMP JUMPDEST PUSH1 0x40 MLOAD DUP1 SWAP2 SUB SWAP1 RETURN JUMPDEST PUSH2 0x217 PUSH1 0x4 DUP1 CALLDATASIZE SUB DUP2 ADD SWAP1 PUSH2 0x212 SWAP2 SWAP1 PUSH2 0x24D3 JUMP JUMPDEST PUSH2 0x1AC2 JUMP JUMPDEST PUSH1 0x40 MLOAD PUSH2 0x224 SWAP2 SWAP1 PUSH2 0x2B3E JUMP JUMPDEST PUSH1 0x40 MLOAD DUP1 SWAP2 SUB SWAP1 RETURN JUMPDEST PUSH2 0x235 PUSH2 0x1EC6 JUMP JUMPDEST PUSH1 0x40 MLOAD PUSH2 0x242 SWAP2 SWAP1 PUSH2 0x2B23 JUMP JUMPDEST PUSH1 0x40 MLOAD DUP1 SWAP2 SUB SWAP1 RETURN JUMPDEST PUSH2 0x265 PUSH1 0x4 DUP1 CALLDATASIZE SUB DUP2 ADD SWAP1 PUSH2 0x260 SWAP2 SWAP1 PUSH2 0x24D3 JUMP JUMPDEST PUSH2 0x1EEA JUMP JUMPDEST PUSH1 0x40 MLOAD PUSH2 0x272 SWAP2 SWAP1 PUSH2 0x2C57 JUMP JUMPDEST PUSH1 0x40 MLOAD DUP1 SWAP2 SUB SWAP1 RETURN JUMPDEST PUSH2 0x295 PUSH1 0x4 DUP1 CALLDATASIZE SUB DUP2 ADD SWAP1 PUSH2 0x290 SWAP2 SWAP1 PUSH2 0x252D JUMP JUMPDEST PUSH2 0x2147 JUMP JUMPDEST PUSH1 0x40 MLOAD PUSH2 0x2A2 SWAP2 SWAP1 PUSH2 0x2C35 JUMP JUMPDEST PUSH1 0x40 MLOAD DUP1 SWAP2 SUB SWAP1 RETURN JUMPDEST PUSH2 0x2C5 PUSH1 0x4 DUP1 CALLDATASIZE SUB DUP2 ADD SWAP1 PUSH2 0x2C0 SWAP2 SWAP1 PUSH2 0x2576 JUMP JUMPDEST PUSH2 0x22A2 JUMP JUMPDEST PUSH1 0x40 MLOAD PUSH2 0x2D2 SWAP2 SWAP1 PUSH2 0x2B82 JUMP JUMPDEST PUSH1 0x40 MLOAD DUP1 SWAP2 SUB SWAP1 RETURN JUMPDEST PUSH1 0x60 PUSH1 0x0 PUSH1 0x2 DUP1 SLOAD SWAP1 POP SWAP1 POP PUSH1 0x0 DUP2 PUSH8 0xFFFFFFFFFFFFFFFF DUP2 GT ISZERO PUSH2 0x303 JUMPI PUSH2 0x302 PUSH2 0x305A JUMP JUMPDEST JUMPDEST PUSH1 0x40 MLOAD SWAP1 DUP1 DUP3 MSTORE DUP1 PUSH1 0x20 MUL PUSH1 0x20 ADD DUP3 ADD PUSH1 0x40 MSTORE DUP1 ISZERO PUSH2 0x33C JUMPI DUP2 PUSH1 0x20 ADD JUMPDEST PUSH2 0x329 PUSH2 0x22FB JUMP JUMPDEST DUP2 MSTORE PUSH1 0x20 ADD SWAP1 PUSH1 0x1 SWAP1 SUB SWAP1 DUP2 PUSH2 0x321 JUMPI SWAP1 POP JUMPDEST POP SWAP1 POP PUSH1 0x0 DUP1 PUSH1 0x0 SWAP1 POP JUMPDEST DUP4 DUP2 LT ISZERO PUSH2 0x6D5 JUMPI DUP6 PUSH1 0x8 DUP2 GT ISZERO PUSH2 0x362 JUMPI PUSH2 0x361 PUSH2 0x2FCD JUMP JUMPDEST JUMPDEST PUSH1 0x1 PUSH1 0x0 PUSH1 0x2 DUP5 DUP2 SLOAD DUP2 LT PUSH2 0x37A JUMPI PUSH2 0x379 PUSH2 0x302B JUMP JUMPDEST JUMPDEST SWAP1 PUSH1 0x0 MSTORE PUSH1 0x20 PUSH1 0x0 KECCAK256 ADD PUSH1 0x0 SWAP1 SLOAD SWAP1 PUSH2 0x100 EXP SWAP1 DIV PUSH20 0xFFFFFFFFFFFFFFFFFFFFFFFFFFFFFFFFFFFFFFFF AND PUSH20 0xFFFFFFFFFFFFFFFFFFFFFFFFFFFFFFFFFFFFFFFF AND PUSH20 0xFFFFFFFFFFFFFFFFFFFFFFFFFFFFFFFFFFFFFFFF AND DUP2 MSTORE PUSH1 0x20 ADD SWAP1 DUP2 MSTORE PUSH1 0x20 ADD PUSH1 0x0 KECCAK256 PUSH1 0x2 ADD PUSH1 0x0 SWAP1 SLOAD SWAP1 PUSH2 0x100 EXP SWAP1 DIV PUSH1 0xFF AND PUSH1 0x8 DUP2 GT ISZERO PUSH2 0x402 JUMPI PUSH2 0x401 PUSH2 0x2FCD JUMP JUMPDEST JUMPDEST EQ ISZERO PUSH2 0x6C2 JUMPI PUSH1 0x1 PUSH1 0x0 PUSH1 0x2 DUP4 DUP2 SLOAD DUP2 LT PUSH2 0x420 JUMPI PUSH2 0x41F PUSH2 0x302B JUMP JUMPDEST JUMPDEST SWAP1 PUSH1 0x0 MSTORE PUSH1 0x20 PUSH1 0x0 KECCAK256 ADD PUSH1 0x0 SWAP1 SLOAD SWAP1 PUSH2 0x100 EXP SWAP1 DIV PUSH20 0xFFFFFFFFFFFFFFFFFFFFFFFFFFFFFFFFFFFFFFFF AND PUSH20 0xFFFFFFFFFFFFFFFFFFFFFFFFFFFFFFFFFFFFFFFF AND PUSH20 0xFFFFFFFFFFFFFFFFFFFFFFFFFFFFFFFFFFFFFFFF AND DUP2 MSTORE PUSH1 0x20 ADD SWAP1 DUP2 MSTORE PUSH1 0x20 ADD PUSH1 0x0 KECCAK256 PUSH1 0x40 MLOAD DUP1 PUSH1 0xE0 ADD PUSH1 0x40 MSTORE SWAP1 DUP2 PUSH1 0x0 DUP3 ADD DUP1 SLOAD PUSH2 0x4A0 SWAP1 PUSH2 0x2EF2 JUMP JUMPDEST DUP1 PUSH1 0x1F ADD PUSH1 0x20 DUP1 SWAP2 DIV MUL PUSH1 0x20 ADD PUSH1 0x40 MLOAD SWAP1 DUP2 ADD PUSH1 0x40 MSTORE DUP1 SWAP3 SWAP2 SWAP1 DUP2 DUP2 MSTORE PUSH1 0x20 ADD DUP3 DUP1 SLOAD PUSH2 0x4CC SWAP1 PUSH2 0x2EF2 JUMP JUMPDEST DUP1 ISZERO PUSH2 0x519 JUMPI DUP1 PUSH1 0x1F LT PUSH2 0x4EE JUMPI PUSH2 0x100 DUP1 DUP4 SLOAD DIV MUL DUP4 MSTORE SWAP2 PUSH1 0x20 ADD SWAP2 PUSH2 0x519 JUMP JUMPDEST DUP3 ADD SWAP2 SWAP1 PUSH1 0x0 MSTORE PUSH1 0x20 PUSH1 0x0 KECCAK256 SWAP1 JUMPDEST DUP2 SLOAD DUP2 MSTORE SWAP1 PUSH1 0x1 ADD SWAP1 PUSH1 0x20 ADD DUP1 DUP4 GT PUSH2 0x4FC JUMPI DUP3 SWAP1 SUB PUSH1 0x1F AND DUP3 ADD SWAP2 JUMPDEST POP POP POP POP POP DUP2 MSTORE PUSH1 0x20 ADD PUSH1 0x1 DUP3 ADD DUP1 SLOAD PUSH2 0x532 SWAP1 PUSH2 0x2EF2 JUMP JUMPDEST DUP1 PUSH1 0x1F ADD PUSH1 0x20 DUP1 SWAP2 DIV MUL PUSH1 0x20 ADD PUSH1 0x40 MLOAD SWAP1 DUP2 ADD PUSH1 0x40 MSTORE DUP1 SWAP3 SWAP2 SWAP1 DUP2 DUP2 MSTORE PUSH1 0x20 ADD DUP3 DUP1 SLOAD PUSH2 0x55E SWAP1 PUSH2 0x2EF2 JUMP JUMPDEST DUP1 ISZERO PUSH2 0x5AB JUMPI DUP1 PUSH1 0x1F LT PUSH2 0x580 JUMPI PUSH2 0x100 DUP1 DUP4 SLOAD DIV MUL DUP4 MSTORE SWAP2 PUSH1 0x20 ADD SWAP2 PUSH2 0x5AB JUMP JUMPDEST DUP3 ADD SWAP2 SWAP1 PUSH1 0x0 MSTORE PUSH1 0x20 PUSH1 0x0 KECCAK256 SWAP1 JUMPDEST DUP2 SLOAD DUP2 MSTORE SWAP1 PUSH1 0x1 ADD SWAP1 PUSH1 0x20 ADD DUP1 DUP4 GT PUSH2 0x58E JUMPI DUP3 SWAP1 SUB PUSH1 0x1F AND DUP3 ADD SWAP2 JUMPDEST POP POP POP POP POP DUP2 MSTORE PUSH1 0x20 ADD PUSH1 0x2 DUP3 ADD PUSH1 0x0 SWAP1 SLOAD SWAP1 PUSH2 0x100 EXP SWAP1 DIV PUSH1 0xFF AND PUSH1 0x8 DUP2 GT ISZERO PUSH2 0x5D9 JUMPI PUSH2 0x5D8 PUSH2 0x2FCD JUMP JUMPDEST JUMPDEST PUSH1 0x8 DUP2 GT ISZERO PUSH2 0x5EB JUMPI PUSH2 0x5EA PUSH2 0x2FCD JUMP JUMPDEST JUMPDEST DUP2 MSTORE PUSH1 0x20 ADD PUSH1 0x2 DUP3 ADD PUSH1 0x1 SWAP1 SLOAD SWAP1 PUSH2 0x100 EXP SWAP1 DIV PUSH1 0xFF AND PUSH1 0x2 DUP2 GT ISZERO PUSH2 0x614 JUMPI PUSH2 0x613 PUSH2 0x2FCD JUMP JUMPDEST JUMPDEST PUSH1 0x2 DUP2 GT ISZERO PUSH2 0x626 JUMPI PUSH2 0x625 PUSH2 0x2FCD JUMP JUMPDEST JUMPDEST DUP2 MSTORE PUSH1 0x20 ADD PUSH1 0x3 DUP3 ADD SLOAD DUP2 MSTORE PUSH1 0x20 ADD PUSH1 0x4 DUP3 ADD SLOAD DUP2 MSTORE PUSH1 0x20 ADD PUSH1 0x5 DUP3 ADD PUSH1 0x0 SWAP1 SLOAD SWAP1 PUSH2 0x100 EXP SWAP1 DIV PUSH20 0xFFFFFFFFFFFFFFFFFFFFFFFFFFFFFFFFFFFFFFFF AND PUSH20 0xFFFFFFFFFFFFFFFFFFFFFFFFFFFFFFFFFFFFFFFF AND PUSH20 0xFFFFFFFFFFFFFFFFFFFFFFFFFFFFFFFFFFFFFFFF AND DUP2 MSTORE POP POP DUP4 DUP4 DUP2 MLOAD DUP2 LT PUSH2 0x6A7 JUMPI PUSH2 0x6A6 PUSH2 0x302B JUMP JUMPDEST JUMPDEST PUSH1 0x20 MUL PUSH1 0x20 ADD ADD DUP2 SWAP1 MSTORE POP PUSH1 0x1 DUP3 PUSH2 0x6BF SWAP2 SWAP1 PUSH2 0x2D94 JUMP JUMPDEST SWAP2 POP JUMPDEST DUP1 DUP1 PUSH2 0x6CD SWAP1 PUSH2 0x2F55 JUMP JUMPDEST SWAP2 POP POP PUSH2 0x347 JUMP JUMPDEST POP DUP1 PUSH8 0xFFFFFFFFFFFFFFFF DUP2 GT ISZERO PUSH2 0x6F0 JUMPI PUSH2 0x6EF PUSH2 0x305A JUMP JUMPDEST JUMPDEST PUSH1 0x40 MLOAD SWAP1 DUP1 DUP3 MSTORE DUP1 PUSH1 0x20 MUL PUSH1 0x20 ADD DUP3 ADD PUSH1 0x40 MSTORE DUP1 ISZERO PUSH2 0x729 JUMPI DUP2 PUSH1 0x20 ADD JUMPDEST PUSH2 0x716 PUSH2 0x22FB JUMP JUMPDEST DUP2 MSTORE PUSH1 0x20 ADD SWAP1 PUSH1 0x1 SWAP1 SUB SWAP1 DUP2 PUSH2 0x70E JUMPI SWAP1 POP JUMPDEST POP SWAP4 POP PUSH1 0x0 JUMPDEST DUP2 DUP2 LT ISZERO PUSH2 0x783 JUMPI DUP3 DUP2 DUP2 MLOAD DUP2 LT PUSH2 0x74A JUMPI PUSH2 0x749 PUSH2 0x302B JUMP JUMPDEST JUMPDEST PUSH1 0x20 MUL PUSH1 0x20 ADD ADD MLOAD DUP6 DUP3 DUP2 MLOAD DUP2 LT PUSH2 0x765 JUMPI PUSH2 0x764 PUSH2 0x302B JUMP JUMPDEST JUMPDEST PUSH1 0x20 MUL PUSH1 0x20 ADD ADD DUP2 SWAP1 MSTORE POP DUP1 DUP1 PUSH2 0x77B SWAP1 PUSH2 0x2F55 JUMP JUMPDEST SWAP2 POP POP PUSH2 0x72F JUMP JUMPDEST POP POP POP POP SWAP2 SWAP1 POP JUMP JUMPDEST PUSH1 0x5 DUP2 DUP2 SLOAD DUP2 LT PUSH2 0x79C JUMPI PUSH1 0x0 DUP1 REVERT JUMPDEST SWAP1 PUSH1 0x0 MSTORE PUSH1 0x20 PUSH1 0x0 KECCAK256 SWAP1 PUSH1 0x7 MUL ADD PUSH1 0x0 SWAP2 POP SWAP1 POP DUP1 PUSH1 0x0 ADD DUP1 SLOAD PUSH2 0x7BF SWAP1 PUSH2 0x2EF2 JUMP JUMPDEST DUP1 PUSH1 0x1F ADD PUSH1 0x20 DUP1 SWAP2 DIV MUL PUSH1 0x20 ADD PUSH1 0x40 MLOAD SWAP1 DUP2 ADD PUSH1 0x40 MSTORE DUP1 SWAP3 SWAP2 SWAP1 DUP2 DUP2 MSTORE PUSH1 0x20 ADD DUP3 DUP1 SLOAD PUSH2 0x7EB SWAP1 PUSH2 0x2EF2 JUMP JUMPDEST DUP1 ISZERO PUSH2 0x838 JUMPI DUP1 PUSH1 0x1F LT PUSH2 0x80D JUMPI PUSH2 0x100 DUP1 DUP4 SLOAD DIV MUL DUP4 MSTORE SWAP2 PUSH1 0x20 ADD SWAP2 PUSH2 0x838 JUMP JUMPDEST DUP3 ADD SWAP2 SWAP1 PUSH1 0x0 MSTORE PUSH1 0x20 PUSH1 0x0 KECCAK256 SWAP1 JUMPDEST DUP2 SLOAD DUP2 MSTORE SWAP1 PUSH1 0x1 ADD SWAP1 PUSH1 0x20 ADD DUP1 DUP4 GT PUSH2 0x81B JUMPI DUP3 SWAP1 SUB PUSH1 0x1F AND DUP3 ADD SWAP2 JUMPDEST POP POP POP POP POP SWAP1 DUP1 PUSH1 0x1 ADD DUP1 SLOAD PUSH2 0x84D SWAP1 PUSH2 0x2EF2 JUMP JUMPDEST DUP1 PUSH1 0x1F ADD PUSH1 0x20 DUP1 SWAP2 DIV MUL PUSH1 0x20 ADD PUSH1 0x40 MLOAD SWAP1 DUP2 ADD PUSH1 0x40 MSTORE DUP1 SWAP3 SWAP2 SWAP1 DUP2 DUP2 MSTORE PUSH1 0x20 ADD DUP3 DUP1 SLOAD PUSH2 0x879 SWAP1 PUSH2 0x2EF2 JUMP JUMPDEST DUP1 ISZERO PUSH2 0x8C6 JUMPI DUP1 PUSH1 0x1F LT PUSH2 0x89B JUMPI PUSH2 0x100 DUP1 DUP4 SLOAD DIV MUL DUP4 MSTORE SWAP2 PUSH1 0x20 ADD SWAP2 PUSH2 0x8C6 JUMP JUMPDEST DUP3 ADD SWAP2 SWAP1 PUSH1 0x0 MSTORE PUSH1 0x20 PUSH1 0x0 KECCAK256 SWAP1 JUMPDEST DUP2 SLOAD DUP2 MSTORE SWAP1 PUSH1 0x1 ADD SWAP1 PUSH1 0x20 ADD DUP1 DUP4 GT PUSH2 0x8A9 JUMPI DUP3 SWAP1 SUB PUSH1 0x1F AND DUP3 ADD SWAP2 JUMPDEST POP POP POP POP POP SWAP1 DUP1 PUSH1 0x2 ADD SLOAD SWAP1 DUP1 PUSH1 0x3 ADD PUSH1 0x0 SWAP1 SLOAD SWAP1 PUSH2 0x100 EXP SWAP1 DIV PUSH20 0xFFFFFFFFFFFFFFFFFFFFFFFFFFFFFFFFFFFFFFFF AND SWAP1 DUP1 PUSH1 0x4 ADD PUSH1 0x0 SWAP1 SLOAD SWAP1 PUSH2 0x100 EXP SWAP1 DIV PUSH20 0xFFFFFFFFFFFFFFFFFFFFFFFFFFFFFFFFFFFFFFFF AND SWAP1 DUP1 PUSH1 0x5 ADD SLOAD SWAP1 DUP1 PUSH1 0x6 ADD SLOAD SWAP1 POP DUP8 JUMP JUMPDEST PUSH1 0x60 PUSH1 0x0 DUP1 PUSH1 0x5 DUP1 SLOAD SWAP1 POP PUSH8 0xFFFFFFFFFFFFFFFF DUP2 GT ISZERO PUSH2 0x952 JUMPI PUSH2 0x951 PUSH2 0x305A JUMP JUMPDEST JUMPDEST PUSH1 0x40 MLOAD SWAP1 DUP1 DUP3 MSTORE DUP1 PUSH1 0x20 MUL PUSH1 0x20 ADD DUP3 ADD PUSH1 0x40 MSTORE DUP1 ISZERO PUSH2 0x98B JUMPI DUP2 PUSH1 0x20 ADD JUMPDEST PUSH2 0x978 PUSH2 0x2372 JUMP JUMPDEST DUP2 MSTORE PUSH1 0x20 ADD SWAP1 PUSH1 0x1 SWAP1 SUB SWAP1 DUP2 PUSH2 0x970 JUMPI SWAP1 POP JUMPDEST POP SWAP1 POP PUSH1 0x0 JUMPDEST PUSH1 0x5 DUP1 SLOAD SWAP1 POP DUP2 LT ISZERO PUSH2 0xE6B JUMPI PUSH2 0xA55 PUSH1 0x5 DUP3 DUP2 SLOAD DUP2 LT PUSH2 0x9B5 JUMPI PUSH2 0x9B4 PUSH2 0x302B JUMP JUMPDEST JUMPDEST SWAP1 PUSH1 0x0 MSTORE PUSH1 0x20 PUSH1 0x0 KECCAK256 SWAP1 PUSH1 0x7 MUL ADD PUSH1 0x1 ADD DUP1 SLOAD PUSH2 0x9D1 SWAP1 PUSH2 0x2EF2 JUMP JUMPDEST DUP1 PUSH1 0x1F ADD PUSH1 0x20 DUP1 SWAP2 DIV MUL PUSH1 0x20 ADD PUSH1 0x40 MLOAD SWAP1 DUP2 ADD PUSH1 0x40 MSTORE DUP1 SWAP3 SWAP2 SWAP1 DUP2 DUP2 MSTORE PUSH1 0x20 ADD DUP3 DUP1 SLOAD PUSH2 0x9FD SWAP1 PUSH2 0x2EF2 JUMP JUMPDEST DUP1 ISZERO PUSH2 0xA4A JUMPI DUP1 PUSH1 0x1F LT PUSH2 0xA1F JUMPI PUSH2 0x100 DUP1 DUP4 SLOAD DIV MUL DUP4 MSTORE SWAP2 PUSH1 0x20 ADD SWAP2 PUSH2 0xA4A JUMP JUMPDEST DUP3 ADD SWAP2 SWAP1 PUSH1 0x0 MSTORE PUSH1 0x20 PUSH1 0x0 KECCAK256 SWAP1 JUMPDEST DUP2 SLOAD DUP2 MSTORE SWAP1 PUSH1 0x1 ADD SWAP1 PUSH1 0x20 ADD DUP1 DUP4 GT PUSH2 0xA2D JUMPI DUP3 SWAP1 SUB PUSH1 0x1F AND DUP3 ADD SWAP2 JUMPDEST POP POP POP POP POP DUP9 PUSH2 0x22A2 JUMP JUMPDEST DUP1 ISZERO PUSH2 0xB14 JUMPI POP PUSH2 0xB13 PUSH1 0x5 DUP3 DUP2 SLOAD DUP2 LT PUSH2 0xA73 JUMPI PUSH2 0xA72 PUSH2 0x302B JUMP JUMPDEST JUMPDEST SWAP1 PUSH1 0x0 MSTORE PUSH1 0x20 PUSH1 0x0 KECCAK256 SWAP1 PUSH1 0x7 MUL ADD PUSH1 0x0 ADD DUP1 SLOAD PUSH2 0xA8F SWAP1 PUSH2 0x2EF2 JUMP JUMPDEST DUP1 PUSH1 0x1F ADD PUSH1 0x20 DUP1 SWAP2 DIV MUL PUSH1 0x20 ADD PUSH1 0x40 MLOAD SWAP1 DUP2 ADD PUSH1 0x40 MSTORE DUP1 SWAP3 SWAP2 SWAP1 DUP2 DUP2 MSTORE PUSH1 0x20 ADD DUP3 DUP1 SLOAD PUSH2 0xABB SWAP1 PUSH2 0x2EF2 JUMP JUMPDEST DUP1 ISZERO PUSH2 0xB08 JUMPI DUP1 PUSH1 0x1F LT PUSH2 0xADD JUMPI PUSH2 0x100 DUP1 DUP4 SLOAD DIV MUL DUP4 MSTORE SWAP2 PUSH1 0x20 ADD SWAP2 PUSH2 0xB08 JUMP JUMPDEST DUP3 ADD SWAP2 SWAP1 PUSH1 0x0 MSTORE PUSH1 0x20 PUSH1 0x0 KECCAK256 SWAP1 JUMPDEST DUP2 SLOAD DUP2 MSTORE SWAP1 PUSH1 0x1 ADD SWAP1 PUSH1 0x20 ADD DUP1 DUP4 GT PUSH2 0xAEB JUMPI DUP3 SWAP1 SUB PUSH1 0x1F AND DUP3 ADD SWAP2 JUMPDEST POP POP POP POP POP DUP8 PUSH2 0x22A2 JUMP JUMPDEST JUMPDEST DUP1 ISZERO PUSH2 0xC0B JUMPI POP DUP5 PUSH20 0xFFFFFFFFFFFFFFFFFFFFFFFFFFFFFFFFFFFFFFFF AND PUSH1 0x5 DUP3 DUP2 SLOAD DUP2 LT PUSH2 0xB46 JUMPI PUSH2 0xB45 PUSH2 0x302B JUMP JUMPDEST JUMPDEST SWAP1 PUSH1 0x0 MSTORE PUSH1 0x20 PUSH1 0x0 KECCAK256 SWAP1 PUSH1 0x7 MUL ADD PUSH1 0x4 ADD PUSH1 0x0 SWAP1 SLOAD SWAP1 PUSH2 0x100 EXP SWAP1 DIV PUSH20 0xFFFFFFFFFFFFFFFFFFFFFFFFFFFFFFFFFFFFFFFF AND PUSH20 0xFFFFFFFFFFFFFFFFFFFFFFFFFFFFFFFFFFFFFFFF AND EQ DUP1 PUSH2 0xC0A JUMPI POP DUP5 PUSH20 0xFFFFFFFFFFFFFFFFFFFFFFFFFFFFFFFFFFFFFFFF AND PUSH1 0x5 DUP3 DUP2 SLOAD DUP2 LT PUSH2 0xBC0 JUMPI PUSH2 0xBBF PUSH2 0x302B JUMP JUMPDEST JUMPDEST SWAP1 PUSH1 0x0 MSTORE PUSH1 0x20 PUSH1 0x0 KECCAK256 SWAP1 PUSH1 0x7 MUL ADD PUSH1 0x3 ADD PUSH1 0x0 SWAP1 SLOAD SWAP1 PUSH2 0x100 EXP SWAP1 DIV PUSH20 0xFFFFFFFFFFFFFFFFFFFFFFFFFFFFFFFFFFFFFFFF AND PUSH20 0xFFFFFFFFFFFFFFFFFFFFFFFFFFFFFFFFFFFFFFFF AND EQ JUMPDEST JUMPDEST ISZERO PUSH2 0xE58 JUMPI PUSH1 0x5 DUP2 DUP2 SLOAD DUP2 LT PUSH2 0xC24 JUMPI PUSH2 0xC23 PUSH2 0x302B JUMP JUMPDEST JUMPDEST SWAP1 PUSH1 0x0 MSTORE PUSH1 0x20 PUSH1 0x0 KECCAK256 SWAP1 PUSH1 0x7 MUL ADD PUSH1 0x40 MLOAD DUP1 PUSH1 0xE0 ADD PUSH1 0x40 MSTORE SWAP1 DUP2 PUSH1 0x0 DUP3 ADD DUP1 SLOAD PUSH2 0xC4D SWAP1 PUSH2 0x2EF2 JUMP JUMPDEST DUP1 PUSH1 0x1F ADD PUSH1 0x20 DUP1 SWAP2 DIV MUL PUSH1 0x20 ADD PUSH1 0x40 MLOAD SWAP1 DUP2 ADD PUSH1 0x40 MSTORE DUP1 SWAP3 SWAP2 SWAP1 DUP2 DUP2 MSTORE PUSH1 0x20 ADD DUP3 DUP1 SLOAD PUSH2 0xC79 SWAP1 PUSH2 0x2EF2 JUMP JUMPDEST DUP1 ISZERO PUSH2 0xCC6 JUMPI DUP1 PUSH1 0x1F LT PUSH2 0xC9B JUMPI PUSH2 0x100 DUP1 DUP4 SLOAD DIV MUL DUP4 MSTORE SWAP2 PUSH1 0x20 ADD SWAP2 PUSH2 0xCC6 JUMP JUMPDEST DUP3 ADD SWAP2 SWAP1 PUSH1 0x0 MSTORE PUSH1 0x20 PUSH1 0x0 KECCAK256 SWAP1 JUMPDEST DUP2 SLOAD DUP2 MSTORE SWAP1 PUSH1 0x1 ADD SWAP1 PUSH1 0x20 ADD DUP1 DUP4 GT PUSH2 0xCA9 JUMPI DUP3 SWAP1 SUB PUSH1 0x1F AND DUP3 ADD SWAP2 JUMPDEST POP POP POP POP POP DUP2 MSTORE PUSH1 0x20 ADD PUSH1 0x1 DUP3 ADD DUP1 SLOAD PUSH2 0xCDF SWAP1 PUSH2 0x2EF2 JUMP JUMPDEST DUP1 PUSH1 0x1F ADD PUSH1 0x20 DUP1 SWAP2 DIV MUL PUSH1 0x20 ADD PUSH1 0x40 MLOAD SWAP1 DUP2 ADD PUSH1 0x40 MSTORE DUP1 SWAP3 SWAP2 SWAP1 DUP2 DUP2 MSTORE PUSH1 0x20 ADD DUP3 DUP1 SLOAD PUSH2 0xD0B SWAP1 PUSH2 0x2EF2 JUMP JUMPDEST DUP1 ISZERO PUSH2 0xD58 JUMPI DUP1 PUSH1 0x1F LT PUSH2 0xD2D JUMPI PUSH2 0x100 DUP1 DUP4 SLOAD DIV MUL DUP4 MSTORE SWAP2 PUSH1 0x20 ADD SWAP2 PUSH2 0xD58 JUMP JUMPDEST DUP3 ADD SWAP2 SWAP1 PUSH1 0x0 MSTORE PUSH1 0x20 PUSH1 0x0 KECCAK256 SWAP1 JUMPDEST DUP2 SLOAD DUP2 MSTORE SWAP1 PUSH1 0x1 ADD SWAP1 PUSH1 0x20 ADD DUP1 DUP4 GT PUSH2 0xD3B JUMPI DUP3 SWAP1 SUB PUSH1 0x1F AND DUP3 ADD SWAP2 JUMPDEST POP POP POP POP POP DUP2 MSTORE PUSH1 0x20 ADD PUSH1 0x2 DUP3 ADD SLOAD DUP2 MSTORE PUSH1 0x20 ADD PUSH1 0x3 DUP3 ADD PUSH1 0x0 SWAP1 SLOAD SWAP1 PUSH2 0x100 EXP SWAP1 DIV PUSH20 0xFFFFFFFFFFFFFFFFFFFFFFFFFFFFFFFFFFFFFFFF AND PUSH20 0xFFFFFFFFFFFFFFFFFFFFFFFFFFFFFFFFFFFFFFFF AND PUSH20 0xFFFFFFFFFFFFFFFFFFFFFFFFFFFFFFFFFFFFFFFF AND DUP2 MSTORE PUSH1 0x20 ADD PUSH1 0x4 DUP3 ADD PUSH1 0x0 SWAP1 SLOAD SWAP1 PUSH2 0x100 EXP SWAP1 DIV PUSH20 0xFFFFFFFFFFFFFFFFFFFFFFFFFFFFFFFFFFFFFFFF AND PUSH20 0xFFFFFFFFFFFFFFFFFFFFFFFFFFFFFFFFFFFFFFFF AND PUSH20 0xFFFFFFFFFFFFFFFFFFFFFFFFFFFFFFFFFFFFFFFF AND DUP2 MSTORE PUSH1 0x20 ADD PUSH1 0x5 DUP3 ADD SLOAD DUP2 MSTORE PUSH1 0x20 ADD PUSH1 0x6 DUP3 ADD SLOAD DUP2 MSTORE POP POP DUP3 DUP5 DUP2 MLOAD DUP2 LT PUSH2 0xE3E JUMPI PUSH2 0xE3D PUSH2 0x302B JUMP JUMPDEST JUMPDEST PUSH1 0x20 MUL PUSH1 0x20 ADD ADD DUP2 SWAP1 MSTORE POP DUP3 DUP1 PUSH2 0xE54 SWAP1 PUSH2 0x2F55 JUMP JUMPDEST SWAP4 POP POP JUMPDEST DUP1 DUP1 PUSH2 0xE63 SWAP1 PUSH2 0x2F55 JUMP JUMPDEST SWAP2 POP POP PUSH2 0x991 JUMP JUMPDEST POP DUP2 PUSH8 0xFFFFFFFFFFFFFFFF DUP2 GT ISZERO PUSH2 0xE86 JUMPI PUSH2 0xE85 PUSH2 0x305A JUMP JUMPDEST JUMPDEST PUSH1 0x40 MLOAD SWAP1 DUP1 DUP3 MSTORE DUP1 PUSH1 0x20 MUL PUSH1 0x20 ADD DUP3 ADD PUSH1 0x40 MSTORE DUP1 ISZERO PUSH2 0xEBF JUMPI DUP2 PUSH1 0x20 ADD JUMPDEST PUSH2 0xEAC PUSH2 0x2372 JUMP JUMPDEST DUP2 MSTORE PUSH1 0x20 ADD SWAP1 PUSH1 0x1 SWAP1 SUB SWAP1 DUP2 PUSH2 0xEA4 JUMPI SWAP1 POP JUMPDEST POP SWAP3 POP PUSH1 0x0 DUP3 GT ISZERO PUSH2 0xF24 JUMPI PUSH1 0x0 JUMPDEST DUP3 DUP2 LT ISZERO PUSH2 0xF22 JUMPI DUP2 DUP2 DUP2 MLOAD DUP2 LT PUSH2 0xEE9 JUMPI PUSH2 0xEE8 PUSH2 0x302B JUMP JUMPDEST JUMPDEST PUSH1 0x20 MUL PUSH1 0x20 ADD ADD MLOAD DUP5 DUP3 DUP2 MLOAD DUP2 LT PUSH2 0xF04 JUMPI PUSH2 0xF03 PUSH2 0x302B JUMP JUMPDEST JUMPDEST PUSH1 0x20 MUL PUSH1 0x20 ADD ADD DUP2 SWAP1 MSTORE POP DUP1 DUP1 PUSH2 0xF1A SWAP1 PUSH2 0x2F55 JUMP JUMPDEST SWAP2 POP POP PUSH2 0xECE JUMP JUMPDEST POP JUMPDEST POP POP SWAP4 SWAP3 POP POP POP JUMP JUMPDEST PUSH1 0x60 PUSH1 0x0 DUP1 PUSH1 0x5 DUP1 SLOAD SWAP1 POP PUSH8 0xFFFFFFFFFFFFFFFF DUP2 GT ISZERO PUSH2 0xF51 JUMPI PUSH2 0xF50 PUSH2 0x305A JUMP JUMPDEST JUMPDEST PUSH1 0x40 MLOAD SWAP1 DUP1 DUP3 MSTORE DUP1 PUSH1 0x20 MUL PUSH1 0x20 ADD DUP3 ADD PUSH1 0x40 MSTORE DUP1 ISZERO PUSH2 0xF8A JUMPI DUP2 PUSH1 0x20 ADD JUMPDEST PUSH2 0xF77 PUSH2 0x2372 JUMP JUMPDEST DUP2 MSTORE PUSH1 0x20 ADD SWAP1 PUSH1 0x1 SWAP1 SUB SWAP1 DUP2 PUSH2 0xF6F JUMPI SWAP1 POP JUMPDEST POP SWAP1 POP PUSH1 0x0 JUMPDEST PUSH1 0x5 DUP1 SLOAD SWAP1 POP DUP2 LT ISZERO PUSH2 0x1373 JUMPI PUSH2 0x1054 PUSH1 0x5 DUP3 DUP2 SLOAD DUP2 LT PUSH2 0xFB4 JUMPI PUSH2 0xFB3 PUSH2 0x302B JUMP JUMPDEST JUMPDEST SWAP1 PUSH1 0x0 MSTORE PUSH1 0x20 PUSH1 0x0 KECCAK256 SWAP1 PUSH1 0x7 MUL ADD PUSH1 0x1 ADD DUP1 SLOAD PUSH2 0xFD0 SWAP1 PUSH2 0x2EF2 JUMP JUMPDEST DUP1 PUSH1 0x1F ADD PUSH1 0x20 DUP1 SWAP2 DIV MUL PUSH1 0x20 ADD PUSH1 0x40 MLOAD SWAP1 DUP2 ADD PUSH1 0x40 MSTORE DUP1 SWAP3 SWAP2 SWAP1 DUP2 DUP2 MSTORE PUSH1 0x20 ADD DUP3 DUP1 SLOAD PUSH2 0xFFC SWAP1 PUSH2 0x2EF2 JUMP JUMPDEST DUP1 ISZERO PUSH2 0x1049 JUMPI DUP1 PUSH1 0x1F LT PUSH2 0x101E JUMPI PUSH2 0x100 DUP1 DUP4 SLOAD DIV MUL DUP4 MSTORE SWAP2 PUSH1 0x20 ADD SWAP2 PUSH2 0x1049 JUMP JUMPDEST DUP3 ADD SWAP2 SWAP1 PUSH1 0x0 MSTORE PUSH1 0x20 PUSH1 0x0 KECCAK256 SWAP1 JUMPDEST DUP2 SLOAD DUP2 MSTORE SWAP1 PUSH1 0x1 ADD SWAP1 PUSH1 0x20 ADD DUP1 DUP4 GT PUSH2 0x102C JUMPI DUP3 SWAP1 SUB PUSH1 0x1F AND DUP3 ADD SWAP2 JUMPDEST POP POP POP POP POP DUP8 PUSH2 0x22A2 JUMP JUMPDEST DUP1 ISZERO PUSH2 0x1113 JUMPI POP PUSH2 0x1112 PUSH1 0x5 DUP3 DUP2 SLOAD DUP2 LT PUSH2 0x1072 JUMPI PUSH2 0x1071 PUSH2 0x302B JUMP JUMPDEST JUMPDEST SWAP1 PUSH1 0x0 MSTORE PUSH1 0x20 PUSH1 0x0 KECCAK256 SWAP1 PUSH1 0x7 MUL ADD PUSH1 0x0 ADD DUP1 SLOAD PUSH2 0x108E SWAP1 PUSH2 0x2EF2 JUMP JUMPDEST DUP1 PUSH1 0x1F ADD PUSH1 0x20 DUP1 SWAP2 DIV MUL PUSH1 0x20 ADD PUSH1 0x40 MLOAD SWAP1 DUP2 ADD PUSH1 0x40 MSTORE DUP1 SWAP3 SWAP2 SWAP1 DUP2 DUP2 MSTORE PUSH1 0x20 ADD DUP3 DUP1 SLOAD PUSH2 0x10BA SWAP1 PUSH2 0x2EF2 JUMP JUMPDEST DUP1 ISZERO PUSH2 0x1107 JUMPI DUP1 PUSH1 0x1F LT PUSH2 0x10DC JUMPI PUSH2 0x100 DUP1 DUP4 SLOAD DIV MUL DUP4 MSTORE SWAP2 PUSH1 0x20 ADD SWAP2 PUSH2 0x1107 JUMP JUMPDEST DUP3 ADD SWAP2 SWAP1 PUSH1 0x0 MSTORE PUSH1 0x20 PUSH1 0x0 KECCAK256 SWAP1 JUMPDEST DUP2 SLOAD DUP2 MSTORE SWAP1 PUSH1 0x1 ADD SWAP1 PUSH1 0x20 ADD DUP1 DUP4 GT PUSH2 0x10EA JUMPI DUP3 SWAP1 SUB PUSH1 0x1F AND DUP3 ADD SWAP2 JUMPDEST POP POP POP POP POP DUP7 PUSH2 0x22A2 JUMP JUMPDEST JUMPDEST ISZERO PUSH2 0x1360 JUMPI PUSH1 0x5 DUP2 DUP2 SLOAD DUP2 LT PUSH2 0x112C JUMPI PUSH2 0x112B PUSH2 0x302B JUMP JUMPDEST JUMPDEST SWAP1 PUSH1 0x0 MSTORE PUSH1 0x20 PUSH1 0x0 KECCAK256 SWAP1 PUSH1 0x7 MUL ADD PUSH1 0x40 MLOAD DUP1 PUSH1 0xE0 ADD PUSH1 0x40 MSTORE SWAP1 DUP2 PUSH1 0x0 DUP3 ADD DUP1 SLOAD PUSH2 0x1155 SWAP1 PUSH2 0x2EF2 JUMP JUMPDEST DUP1 PUSH1 0x1F ADD PUSH1 0x20 DUP1 SWAP2 DIV MUL PUSH1 0x20 ADD PUSH1 0x40 MLOAD SWAP1 DUP2 ADD PUSH1 0x40 MSTORE DUP1 SWAP3 SWAP2 SWAP1 DUP2 DUP2 MSTORE PUSH1 0x20 ADD DUP3 DUP1 SLOAD PUSH2 0x1181 SWAP1 PUSH2 0x2EF2 JUMP JUMPDEST DUP1 ISZERO PUSH2 0x11CE JUMPI DUP1 PUSH1 0x1F LT PUSH2 0x11A3 JUMPI PUSH2 0x100 DUP1 DUP4 SLOAD DIV MUL DUP4 MSTORE SWAP2 PUSH1 0x20 ADD SWAP2 PUSH2 0x11CE JUMP JUMPDEST DUP3 ADD SWAP2 SWAP1 PUSH1 0x0 MSTORE PUSH1 0x20 PUSH1 0x0 KECCAK256 SWAP1 JUMPDEST DUP2 SLOAD DUP2 MSTORE SWAP1 PUSH1 0x1 ADD SWAP1 PUSH1 0x20 ADD DUP1 DUP4 GT PUSH2 0x11B1 JUMPI DUP3 SWAP1 SUB PUSH1 0x1F AND DUP3 ADD SWAP2 JUMPDEST POP POP POP POP POP DUP2 MSTORE PUSH1 0x20 ADD PUSH1 0x1 DUP3 ADD DUP1 SLOAD PUSH2 0x11E7 SWAP1 PUSH2 0x2EF2 JUMP JUMPDEST DUP1 PUSH1 0x1F ADD PUSH1 0x20 DUP1 SWAP2 DIV MUL PUSH1 0x20 ADD PUSH1 0x40 MLOAD SWAP1 DUP2 ADD PUSH1 0x40 MSTORE DUP1 SWAP3 SWAP2 SWAP1 DUP2 DUP2 MSTORE PUSH1 0x20 ADD DUP3 DUP1 SLOAD PUSH2 0x1213 SWAP1 PUSH2 0x2EF2 JUMP JUMPDEST DUP1 ISZERO PUSH2 0x1260 JUMPI DUP1 PUSH1 0x1F LT PUSH2 0x1235 JUMPI PUSH2 0x100 DUP1 DUP4 SLOAD DIV MUL DUP4 MSTORE SWAP2 PUSH1 0x20 ADD SWAP2 PUSH2 0x1260 JUMP JUMPDEST DUP3 ADD SWAP2 SWAP1 PUSH1 0x0 MSTORE PUSH1 0x20 PUSH1 0x0 KECCAK256 SWAP1 JUMPDEST DUP2 SLOAD DUP2 MSTORE SWAP1 PUSH1 0x1 ADD SWAP1 PUSH1 0x20 ADD DUP1 DUP4 GT PUSH2 0x1243 JUMPI DUP3 SWAP1 SUB PUSH1 0x1F AND DUP3 ADD SWAP2 JUMPDEST POP POP POP POP POP DUP2 MSTORE PUSH1 0x20 ADD PUSH1 0x2 DUP3 ADD SLOAD DUP2 MSTORE PUSH1 0x20 ADD PUSH1 0x3 DUP3 ADD PUSH1 0x0 SWAP1 SLOAD SWAP1 PUSH2 0x100 EXP SWAP1 DIV PUSH20 0xFFFFFFFFFFFFFFFFFFFFFFFFFFFFFFFFFFFFFFFF AND PUSH20 0xFFFFFFFFFFFFFFFFFFFFFFFFFFFFFFFFFFFFFFFF AND PUSH20 0xFFFFFFFFFFFFFFFFFFFFFFFFFFFFFFFFFFFFFFFF AND DUP2 MSTORE PUSH1 0x20 ADD PUSH1 0x4 DUP3 ADD PUSH1 0x0 SWAP1 SLOAD SWAP1 PUSH2 0x100 EXP SWAP1 DIV PUSH20 0xFFFFFFFFFFFFFFFFFFFFFFFFFFFFFFFFFFFFFFFF AND PUSH20 0xFFFFFFFFFFFFFFFFFFFFFFFFFFFFFFFFFFFFFFFF AND PUSH20 0xFFFFFFFFFFFFFFFFFFFFFFFFFFFFFFFFFFFFFFFF AND DUP2 MSTORE PUSH1 0x20 ADD PUSH1 0x5 DUP3 ADD SLOAD DUP2 MSTORE PUSH1 0x20 ADD PUSH1 0x6 DUP3 ADD SLOAD DUP2 MSTORE POP POP DUP3 DUP5 DUP2 MLOAD DUP2 LT PUSH2 0x1346 JUMPI PUSH2 0x1345 PUSH2 0x302B JUMP JUMPDEST JUMPDEST PUSH1 0x20 MUL PUSH1 0x20 ADD ADD DUP2 SWAP1 MSTORE POP DUP3 DUP1 PUSH2 0x135C SWAP1 PUSH2 0x2F55 JUMP JUMPDEST SWAP4 POP POP JUMPDEST DUP1 DUP1 PUSH2 0x136B SWAP1 PUSH2 0x2F55 JUMP JUMPDEST SWAP2 POP POP PUSH2 0xF90 JUMP JUMPDEST POP DUP2 PUSH8 0xFFFFFFFFFFFFFFFF DUP2 GT ISZERO PUSH2 0x138E JUMPI PUSH2 0x138D PUSH2 0x305A JUMP JUMPDEST JUMPDEST PUSH1 0x40 MLOAD SWAP1 DUP1 DUP3 MSTORE DUP1 PUSH1 0x20 MUL PUSH1 0x20 ADD DUP3 ADD PUSH1 0x40 MSTORE DUP1 ISZERO PUSH2 0x13C7 JUMPI DUP2 PUSH1 0x20 ADD JUMPDEST PUSH2 0x13B4 PUSH2 0x2372 JUMP JUMPDEST DUP2 MSTORE PUSH1 0x20 ADD SWAP1 PUSH1 0x1 SWAP1 SUB SWAP1 DUP2 PUSH2 0x13AC JUMPI SWAP1 POP JUMPDEST POP SWAP3 POP PUSH1 0x0 DUP3 GT ISZERO PUSH2 0x142C JUMPI PUSH1 0x0 JUMPDEST DUP3 DUP2 LT ISZERO PUSH2 0x142A JUMPI DUP2 DUP2 DUP2 MLOAD DUP2 LT PUSH2 0x13F1 JUMPI PUSH2 0x13F0 PUSH2 0x302B JUMP JUMPDEST JUMPDEST PUSH1 0x20 MUL PUSH1 0x20 ADD ADD MLOAD DUP5 DUP3 DUP2 MLOAD DUP2 LT PUSH2 0x140C JUMPI PUSH2 0x140B PUSH2 0x302B JUMP JUMPDEST JUMPDEST PUSH1 0x20 MUL PUSH1 0x20 ADD ADD DUP2 SWAP1 MSTORE POP DUP1 DUP1 PUSH2 0x1422 SWAP1 PUSH2 0x2F55 JUMP JUMPDEST SWAP2 POP POP PUSH2 0x13D6 JUMP JUMPDEST POP JUMPDEST POP POP SWAP3 SWAP2 POP POP JUMP JUMPDEST PUSH1 0x60 PUSH1 0x0 DUP1 PUSH1 0x5 DUP1 SLOAD SWAP1 POP PUSH8 0xFFFFFFFFFFFFFFFF DUP2 GT ISZERO PUSH2 0x1458 JUMPI PUSH2 0x1457 PUSH2 0x305A JUMP JUMPDEST JUMPDEST PUSH1 0x40 MLOAD SWAP1 DUP1 DUP3 MSTORE DUP1 PUSH1 0x20 MUL PUSH1 0x20 ADD DUP3 ADD PUSH1 0x40 MSTORE DUP1 ISZERO PUSH2 0x1491 JUMPI DUP2 PUSH1 0x20 ADD JUMPDEST PUSH2 0x147E PUSH2 0x2372 JUMP JUMPDEST DUP2 MSTORE PUSH1 0x20 ADD SWAP1 PUSH1 0x1 SWAP1 SUB SWAP1 DUP2 PUSH2 0x1476 JUMPI SWAP1 POP JUMPDEST POP SWAP1 POP PUSH1 0x0 JUMPDEST PUSH1 0x5 DUP1 SLOAD SWAP1 POP DUP2 LT ISZERO PUSH2 0x17BB JUMPI PUSH2 0x155B PUSH1 0x5 DUP3 DUP2 SLOAD DUP2 LT PUSH2 0x14BB JUMPI PUSH2 0x14BA PUSH2 0x302B JUMP JUMPDEST JUMPDEST SWAP1 PUSH1 0x0 MSTORE PUSH1 0x20 PUSH1 0x0 KECCAK256 SWAP1 PUSH1 0x7 MUL ADD PUSH1 0x0 ADD DUP1 SLOAD PUSH2 0x14D7 SWAP1 PUSH2 0x2EF2 JUMP JUMPDEST DUP1 PUSH1 0x1F ADD PUSH1 0x20 DUP1 SWAP2 DIV MUL PUSH1 0x20 ADD PUSH1 0x40 MLOAD SWAP1 DUP2 ADD PUSH1 0x40 MSTORE DUP1 SWAP3 SWAP2 SWAP1 DUP2 DUP2 MSTORE PUSH1 0x20 ADD DUP3 DUP1 SLOAD PUSH2 0x1503 SWAP1 PUSH2 0x2EF2 JUMP JUMPDEST DUP1 ISZERO PUSH2 0x1550 JUMPI DUP1 PUSH1 0x1F LT PUSH2 0x1525 JUMPI PUSH2 0x100 DUP1 DUP4 SLOAD DIV MUL DUP4 MSTORE SWAP2 PUSH1 0x20 ADD SWAP2 PUSH2 0x1550 JUMP JUMPDEST DUP3 ADD SWAP2 SWAP1 PUSH1 0x0 MSTORE PUSH1 0x20 PUSH1 0x0 KECCAK256 SWAP1 JUMPDEST DUP2 SLOAD DUP2 MSTORE SWAP1 PUSH1 0x1 ADD SWAP1 PUSH1 0x20 ADD DUP1 DUP4 GT PUSH2 0x1533 JUMPI DUP3 SWAP1 SUB PUSH1 0x1F AND DUP3 ADD SWAP2 JUMPDEST POP POP POP POP POP DUP7 PUSH2 0x22A2 JUMP JUMPDEST ISZERO PUSH2 0x17A8 JUMPI PUSH1 0x5 DUP2 DUP2 SLOAD DUP2 LT PUSH2 0x1574 JUMPI PUSH2 0x1573 PUSH2 0x302B JUMP JUMPDEST JUMPDEST SWAP1 PUSH1 0x0 MSTORE PUSH1 0x20 PUSH1 0x0 KECCAK256 SWAP1 PUSH1 0x7 MUL ADD PUSH1 0x40 MLOAD DUP1 PUSH1 0xE0 ADD PUSH1 0x40 MSTORE SWAP1 DUP2 PUSH1 0x0 DUP3 ADD DUP1 SLOAD PUSH2 0x159D SWAP1 PUSH2 0x2EF2 JUMP JUMPDEST DUP1 PUSH1 0x1F ADD PUSH1 0x20 DUP1 SWAP2 DIV MUL PUSH1 0x20 ADD PUSH1 0x40 MLOAD SWAP1 DUP2 ADD PUSH1 0x40 MSTORE DUP1 SWAP3 SWAP2 SWAP1 DUP2 DUP2 MSTORE PUSH1 0x20 ADD DUP3 DUP1 SLOAD PUSH2 0x15C9 SWAP1 PUSH2 0x2EF2 JUMP JUMPDEST DUP1 ISZERO PUSH2 0x1616 JUMPI DUP1 PUSH1 0x1F LT PUSH2 0x15EB JUMPI PUSH2 0x100 DUP1 DUP4 SLOAD DIV MUL DUP4 MSTORE SWAP2 PUSH1 0x20 ADD SWAP2 PUSH2 0x1616 JUMP JUMPDEST DUP3 ADD SWAP2 SWAP1 PUSH1 0x0 MSTORE PUSH1 0x20 PUSH1 0x0 KECCAK256 SWAP1 JUMPDEST DUP2 SLOAD DUP2 MSTORE SWAP1 PUSH1 0x1 ADD SWAP1 PUSH1 0x20 ADD DUP1 DUP4 GT PUSH2 0x15F9 JUMPI DUP3 SWAP1 SUB PUSH1 0x1F AND DUP3 ADD SWAP2 JUMPDEST POP POP POP POP POP DUP2 MSTORE PUSH1 0x20 ADD PUSH1 0x1 DUP3 ADD DUP1 SLOAD PUSH2 0x162F SWAP1 PUSH2 0x2EF2 JUMP JUMPDEST DUP1 PUSH1 0x1F ADD PUSH1 0x20 DUP1 SWAP2 DIV MUL PUSH1 0x20 ADD PUSH1 0x40 MLOAD SWAP1 DUP2 ADD PUSH1 0x40 MSTORE DUP1 SWAP3 SWAP2 SWAP1 DUP2 DUP2 MSTORE PUSH1 0x20 ADD DUP3 DUP1 SLOAD PUSH2 0x165B SWAP1 PUSH2 0x2EF2 JUMP JUMPDEST DUP1 ISZERO PUSH2 0x16A8 JUMPI DUP1 PUSH1 0x1F LT PUSH2 0x167D JUMPI PUSH2 0x100 DUP1 DUP4 SLOAD DIV MUL DUP4 MSTORE SWAP2 PUSH1 0x20 ADD SWAP2 PUSH2 0x16A8 JUMP JUMPDEST DUP3 ADD SWAP2 SWAP1 PUSH1 0x0 MSTORE PUSH1 0x20 PUSH1 0x0 KECCAK256 SWAP1 JUMPDEST DUP2 SLOAD DUP2 MSTORE SWAP1 PUSH1 0x1 ADD SWAP1 PUSH1 0x20 ADD DUP1 DUP4 GT PUSH2 0x168B JUMPI DUP3 SWAP1 SUB PUSH1 0x1F AND DUP3 ADD SWAP2 JUMPDEST POP POP POP POP POP DUP2 MSTORE PUSH1 0x20 ADD PUSH1 0x2 DUP3 ADD SLOAD DUP2 MSTORE PUSH1 0x20 ADD PUSH1 0x3 DUP3 ADD PUSH1 0x0 SWAP1 SLOAD SWAP1 PUSH2 0x100 EXP SWAP1 DIV PUSH20 0xFFFFFFFFFFFFFFFFFFFFFFFFFFFFFFFFFFFFFFFF AND PUSH20 0xFFFFFFFFFFFFFFFFFFFFFFFFFFFFFFFFFFFFFFFF AND PUSH20 0xFFFFFFFFFFFFFFFFFFFFFFFFFFFFFFFFFFFFFFFF AND DUP2 MSTORE PUSH1 0x20 ADD PUSH1 0x4 DUP3 ADD PUSH1 0x0 SWAP1 SLOAD SWAP1 PUSH2 0x100 EXP SWAP1 DIV PUSH20 0xFFFFFFFFFFFFFFFFFFFFFFFFFFFFFFFFFFFFFFFF AND PUSH20 0xFFFFFFFFFFFFFFFFFFFFFFFFFFFFFFFFFFFFFFFF AND PUSH20 0xFFFFFFFFFFFFFFFFFFFFFFFFFFFFFFFFFFFFFFFF AND DUP2 MSTORE PUSH1 0x20 ADD PUSH1 0x5 DUP3 ADD SLOAD DUP2 MSTORE PUSH1 0x20 ADD PUSH1 0x6 DUP3 ADD SLOAD DUP2 MSTORE POP POP DUP3 DUP5 DUP2 MLOAD DUP2 LT PUSH2 0x178E JUMPI PUSH2 0x178D PUSH2 0x302B JUMP JUMPDEST JUMPDEST PUSH1 0x20 MUL PUSH1 0x20 ADD ADD DUP2 SWAP1 MSTORE POP DUP3 DUP1 PUSH2 0x17A4 SWAP1 PUSH2 0x2F55 JUMP JUMPDEST SWAP4 POP POP JUMPDEST DUP1 DUP1 PUSH2 0x17B3 SWAP1 PUSH2 0x2F55 JUMP JUMPDEST SWAP2 POP POP PUSH2 0x1497 JUMP JUMPDEST POP DUP2 PUSH8 0xFFFFFFFFFFFFFFFF DUP2 GT ISZERO PUSH2 0x17D6 JUMPI PUSH2 0x17D5 PUSH2 0x305A JUMP JUMPDEST JUMPDEST PUSH1 0x40 MLOAD SWAP1 DUP1 DUP3 MSTORE DUP1 PUSH1 0x20 MUL PUSH1 0x20 ADD DUP3 ADD PUSH1 0x40 MSTORE DUP1 ISZERO PUSH2 0x180F JUMPI DUP2 PUSH1 0x20 ADD JUMPDEST PUSH2 0x17FC PUSH2 0x2372 JUMP JUMPDEST DUP2 MSTORE PUSH1 0x20 ADD SWAP1 PUSH1 0x1 SWAP1 SUB SWAP1 DUP2 PUSH2 0x17F4 JUMPI SWAP1 POP JUMPDEST POP SWAP3 POP PUSH1 0x0 DUP3 GT ISZERO PUSH2 0x1874 JUMPI PUSH1 0x0 JUMPDEST DUP3 DUP2 LT ISZERO PUSH2 0x1872 JUMPI DUP2 DUP2 DUP2 MLOAD DUP2 LT PUSH2 0x1839 JUMPI PUSH2 0x1838 PUSH2 0x302B JUMP JUMPDEST JUMPDEST PUSH1 0x20 MUL PUSH1 0x20 ADD ADD MLOAD DUP5 DUP3 DUP2 MLOAD DUP2 LT PUSH2 0x1854 JUMPI PUSH2 0x1853 PUSH2 0x302B JUMP JUMPDEST JUMPDEST PUSH1 0x20 MUL PUSH1 0x20 ADD ADD DUP2 SWAP1 MSTORE POP DUP1 DUP1 PUSH2 0x186A SWAP1 PUSH2 0x2F55 JUMP JUMPDEST SWAP2 POP POP PUSH2 0x181E JUMP JUMPDEST POP JUMPDEST POP POP SWAP2 SWAP1 POP JUMP JUMPDEST PUSH1 0x0 DUP1 PUSH1 0x0 SWAP1 SLOAD SWAP1 PUSH2 0x100 EXP SWAP1 DIV PUSH20 0xFFFFFFFFFFFFFFFFFFFFFFFFFFFFFFFFFFFFFFFF AND PUSH20 0xFFFFFFFFFFFFFFFFFFFFFFFFFFFFFFFFFFFFFFFF AND CALLER PUSH20 0xFFFFFFFFFFFFFFFFFFFFFFFFFFFFFFFFFFFFFFFF AND EQ ISZERO PUSH2 0x18DB JUMPI PUSH1 0x0 SWAP1 POP PUSH2 0x19CF JUMP JUMPDEST PUSH1 0x0 PUSH20 0xFFFFFFFFFFFFFFFFFFFFFFFFFFFFFFFFFFFFFFFF AND PUSH1 0x1 PUSH1 0x0 CALLER PUSH20 0xFFFFFFFFFFFFFFFFFFFFFFFFFFFFFFFFFFFFFFFF AND PUSH20 0xFFFFFFFFFFFFFFFFFFFFFFFFFFFFFFFFFFFFFFFF AND DUP2 MSTORE PUSH1 0x20 ADD SWAP1 DUP2 MSTORE PUSH1 0x20 ADD PUSH1 0x0 KECCAK256 PUSH1 0x5 ADD PUSH1 0x0 SWAP1 SLOAD SWAP1 PUSH2 0x100 EXP SWAP1 DIV PUSH20 0xFFFFFFFFFFFFFFFFFFFFFFFFFFFFFFFFFFFFFFFF AND PUSH20 0xFFFFFFFFFFFFFFFFFFFFFFFFFFFFFFFFFFFFFFFF AND EQ ISZERO PUSH2 0x197B JUMPI PUSH1 0x8 SWAP1 POP PUSH2 0x19CE JUMP JUMPDEST PUSH1 0x1 PUSH1 0x0 CALLER PUSH20 0xFFFFFFFFFFFFFFFFFFFFFFFFFFFFFFFFFFFFFFFF AND PUSH20 0xFFFFFFFFFFFFFFFFFFFFFFFFFFFFFFFFFFFFFFFF AND DUP2 MSTORE PUSH1 0x20 ADD SWAP1 DUP2 MSTORE PUSH1 0x20 ADD PUSH1 0x0 KECCAK256 PUSH1 0x2 ADD PUSH1 0x0 SWAP1 SLOAD SWAP1 PUSH2 0x100 EXP SWAP1 DIV PUSH1 0xFF AND SWAP1 POP JUMPDEST JUMPDEST SWAP1 JUMP JUMPDEST PUSH1 0x0 DUP1 PUSH2 0x19E0 DUP6 DUP6 DUP6 PUSH2 0x92E JUMP JUMPDEST SWAP1 POP PUSH1 0x0 DUP1 PUSH1 0x0 JUMPDEST DUP4 MLOAD DUP2 LT ISZERO PUSH2 0x1AA9 JUMPI DUP6 PUSH20 0xFFFFFFFFFFFFFFFFFFFFFFFFFFFFFFFFFFFFFFFF AND DUP5 DUP3 DUP2 MLOAD DUP2 LT PUSH2 0x1A1B JUMPI PUSH2 0x1A1A PUSH2 0x302B JUMP JUMPDEST JUMPDEST PUSH1 0x20 MUL PUSH1 0x20 ADD ADD MLOAD PUSH1 0x80 ADD MLOAD PUSH20 0xFFFFFFFFFFFFFFFFFFFFFFFFFFFFFFFFFFFFFFFF AND EQ ISZERO PUSH2 0x1A69 JUMPI DUP4 DUP2 DUP2 MLOAD DUP2 LT PUSH2 0x1A56 JUMPI PUSH2 0x1A55 PUSH2 0x302B JUMP JUMPDEST JUMPDEST PUSH1 0x20 MUL PUSH1 0x20 ADD ADD MLOAD PUSH1 0xA0 ADD MLOAD SWAP3 POP PUSH2 0x1A96 JUMP JUMPDEST DUP4 DUP2 DUP2 MLOAD DUP2 LT PUSH2 0x1A7C JUMPI PUSH2 0x1A7B PUSH2 0x302B JUMP JUMPDEST JUMPDEST PUSH1 0x20 MUL PUSH1 0x20 ADD ADD MLOAD PUSH1 0xA0 ADD MLOAD DUP3 PUSH2 0x1A93 SWAP2 SWAP1 PUSH2 0x2D94 JUMP JUMPDEST SWAP2 POP JUMPDEST DUP1 DUP1 PUSH2 0x1AA1 SWAP1 PUSH2 0x2F55 JUMP JUMPDEST SWAP2 POP POP PUSH2 0x19E8 JUMP JUMPDEST POP DUP1 DUP3 PUSH2 0x1AB6 SWAP2 SWAP1 PUSH2 0x2DEA JUMP JUMPDEST SWAP4 POP POP POP POP SWAP4 SWAP3 POP POP POP JUMP JUMPDEST PUSH1 0x60 PUSH1 0x0 DUP1 PUSH1 0x5 DUP1 SLOAD SWAP1 POP PUSH8 0xFFFFFFFFFFFFFFFF DUP2 GT ISZERO PUSH2 0x1AE6 JUMPI PUSH2 0x1AE5 PUSH2 0x305A JUMP JUMPDEST JUMPDEST PUSH1 0x40 MLOAD SWAP1 DUP1 DUP3 MSTORE DUP1 PUSH1 0x20 MUL PUSH1 0x20 ADD DUP3 ADD PUSH1 0x40 MSTORE DUP1 ISZERO PUSH2 0x1B1F JUMPI DUP2 PUSH1 0x20 ADD JUMPDEST PUSH2 0x1B0C PUSH2 0x2372 JUMP JUMPDEST DUP2 MSTORE PUSH1 0x20 ADD SWAP1 PUSH1 0x1 SWAP1 SUB SWAP1 DUP2 PUSH2 0x1B04 JUMPI SWAP1 POP JUMPDEST POP SWAP1 POP PUSH1 0x0 JUMPDEST PUSH1 0x5 DUP1 SLOAD SWAP1 POP DUP2 LT ISZERO PUSH2 0x1E06 JUMPI DUP5 PUSH20 0xFFFFFFFFFFFFFFFFFFFFFFFFFFFFFFFFFFFFFFFF AND PUSH1 0x5 DUP3 DUP2 SLOAD DUP2 LT PUSH2 0x1B5D JUMPI PUSH2 0x1B5C PUSH2 0x302B JUMP JUMPDEST JUMPDEST SWAP1 PUSH1 0x0 MSTORE PUSH1 0x20 PUSH1 0x0 KECCAK256 SWAP1 PUSH1 0x7 MUL ADD PUSH1 0x4 ADD PUSH1 0x0 SWAP1 SLOAD SWAP1 PUSH2 0x100 EXP SWAP1 DIV PUSH20 0xFFFFFFFFFFFFFFFFFFFFFFFFFFFFFFFFFFFFFFFF AND PUSH20 0xFFFFFFFFFFFFFFFFFFFFFFFFFFFFFFFFFFFFFFFF AND EQ ISZERO PUSH2 0x1DF3 JUMPI PUSH1 0x5 DUP2 DUP2 SLOAD DUP2 LT PUSH2 0x1BBF JUMPI PUSH2 0x1BBE PUSH2 0x302B JUMP JUMPDEST JUMPDEST SWAP1 PUSH1 0x0 MSTORE PUSH1 0x20 PUSH1 0x0 KECCAK256 SWAP1 PUSH1 0x7 MUL ADD PUSH1 0x40 MLOAD DUP1 PUSH1 0xE0 ADD PUSH1 0x40 MSTORE SWAP1 DUP2 PUSH1 0x0 DUP3 ADD DUP1 SLOAD PUSH2 0x1BE8 SWAP1 PUSH2 0x2EF2 JUMP JUMPDEST DUP1 PUSH1 0x1F ADD PUSH1 0x20 DUP1 SWAP2 DIV MUL PUSH1 0x20 ADD PUSH1 0x40 MLOAD SWAP1 DUP2 ADD PUSH1 0x40 MSTORE DUP1 SWAP3 SWAP2 SWAP1 DUP2 DUP2 MSTORE PUSH1 0x20 ADD DUP3 DUP1 SLOAD PUSH2 0x1C14 SWAP1 PUSH2 0x2EF2 JUMP JUMPDEST DUP1 ISZERO PUSH2 0x1C61 JUMPI DUP1 PUSH1 0x1F LT PUSH2 0x1C36 JUMPI PUSH2 0x100 DUP1 DUP4 SLOAD DIV MUL DUP4 MSTORE SWAP2 PUSH1 0x20 ADD SWAP2 PUSH2 0x1C61 JUMP JUMPDEST DUP3 ADD SWAP2 SWAP1 PUSH1 0x0 MSTORE PUSH1 0x20 PUSH1 0x0 KECCAK256 SWAP1 JUMPDEST DUP2 SLOAD DUP2 MSTORE SWAP1 PUSH1 0x1 ADD SWAP1 PUSH1 0x20 ADD DUP1 DUP4 GT PUSH2 0x1C44 JUMPI DUP3 SWAP1 SUB PUSH1 0x1F AND DUP3 ADD SWAP2 JUMPDEST POP POP POP POP POP DUP2 MSTORE PUSH1 0x20 ADD PUSH1 0x1 DUP3 ADD DUP1 SLOAD PUSH2 0x1C7A SWAP1 PUSH2 0x2EF2 JUMP JUMPDEST DUP1 PUSH1 0x1F ADD PUSH1 0x20 DUP1 SWAP2 DIV MUL PUSH1 0x20 ADD PUSH1 0x40 MLOAD SWAP1 DUP2 ADD PUSH1 0x40 MSTORE DUP1 SWAP3 SWAP2 SWAP1 DUP2 DUP2 MSTORE PUSH1 0x20 ADD DUP3 DUP1 SLOAD PUSH2 0x1CA6 SWAP1 PUSH2 0x2EF2 JUMP JUMPDEST DUP1 ISZERO PUSH2 0x1CF3 JUMPI DUP1 PUSH1 0x1F LT PUSH2 0x1CC8 JUMPI PUSH2 0x100 DUP1 DUP4 SLOAD DIV MUL DUP4 MSTORE SWAP2 PUSH1 0x20 ADD SWAP2 PUSH2 0x1CF3 JUMP JUMPDEST DUP3 ADD SWAP2 SWAP1 PUSH1 0x0 MSTORE PUSH1 0x20 PUSH1 0x0 KECCAK256 SWAP1 JUMPDEST DUP2 SLOAD DUP2 MSTORE SWAP1 PUSH1 0x1 ADD SWAP1 PUSH1 0x20 ADD DUP1 DUP4 GT PUSH2 0x1CD6 JUMPI DUP3 SWAP1 SUB PUSH1 0x1F AND DUP3 ADD SWAP2 JUMPDEST POP POP POP POP POP DUP2 MSTORE PUSH1 0x20 ADD PUSH1 0x2 DUP3 ADD SLOAD DUP2 MSTORE PUSH1 0x20 ADD PUSH1 0x3 DUP3 ADD PUSH1 0x0 SWAP1 SLOAD SWAP1 PUSH2 0x100 EXP SWAP1 DIV PUSH20 0xFFFFFFFFFFFFFFFFFFFFFFFFFFFFFFFFFFFFFFFF AND PUSH20 0xFFFFFFFFFFFFFFFFFFFFFFFFFFFFFFFFFFFFFFFF AND PUSH20 0xFFFFFFFFFFFFFFFFFFFFFFFFFFFFFFFFFFFFFFFF AND DUP2 MSTORE PUSH1 0x20 ADD PUSH1 0x4 DUP3 ADD PUSH1 0x0 SWAP1 SLOAD SWAP1 PUSH2 0x100 EXP SWAP1 DIV PUSH20 0xFFFFFFFFFFFFFFFFFFFFFFFFFFFFFFFFFFFFFFFF AND PUSH20 0xFFFFFFFFFFFFFFFFFFFFFFFFFFFFFFFFFFFFFFFF AND PUSH20 0xFFFFFFFFFFFFFFFFFFFFFFFFFFFFFFFFFFFFFFFF AND DUP2 MSTORE PUSH1 0x20 ADD PUSH1 0x5 DUP3 ADD SLOAD DUP2 MSTORE PUSH1 0x20 ADD PUSH1 0x6 DUP3 ADD SLOAD DUP2 MSTORE POP POP DUP3 DUP5 DUP2 MLOAD DUP2 LT PUSH2 0x1DD9 JUMPI PUSH2 0x1DD8 PUSH2 0x302B JUMP JUMPDEST JUMPDEST PUSH1 0x20 MUL PUSH1 0x20 ADD ADD DUP2 SWAP1 MSTORE POP DUP3 DUP1 PUSH2 0x1DEF SWAP1 PUSH2 0x2F55 JUMP JUMPDEST SWAP4 POP POP JUMPDEST DUP1 DUP1 PUSH2 0x1DFE SWAP1 PUSH2 0x2F55 JUMP JUMPDEST SWAP2 POP POP PUSH2 0x1B25 JUMP JUMPDEST POP DUP2 PUSH8 0xFFFFFFFFFFFFFFFF DUP2 GT ISZERO PUSH2 0x1E21 JUMPI PUSH2 0x1E20 PUSH2 0x305A JUMP JUMPDEST JUMPDEST PUSH1 0x40 MLOAD SWAP1 DUP1 DUP3 MSTORE DUP1 PUSH1 0x20 MUL PUSH1 0x20 ADD DUP3 ADD PUSH1 0x40 MSTORE DUP1 ISZERO PUSH2 0x1E5A JUMPI DUP2 PUSH1 0x20 ADD JUMPDEST PUSH2 0x1E47 PUSH2 0x2372 JUMP JUMPDEST DUP2 MSTORE PUSH1 0x20 ADD SWAP1 PUSH1 0x1 SWAP1 SUB SWAP1 DUP2 PUSH2 0x1E3F JUMPI SWAP1 POP JUMPDEST POP SWAP3 POP PUSH1 0x0 DUP3 GT ISZERO PUSH2 0x1EBF JUMPI PUSH1 0x0 JUMPDEST DUP3 DUP2 LT ISZERO PUSH2 0x1EBD JUMPI DUP2 DUP2 DUP2 MLOAD DUP2 LT PUSH2 0x1E84 JUMPI PUSH2 0x1E83 PUSH2 0x302B JUMP JUMPDEST JUMPDEST PUSH1 0x20 MUL PUSH1 0x20 ADD ADD MLOAD DUP5 DUP3 DUP2 MLOAD DUP2 LT PUSH2 0x1E9F JUMPI PUSH2 0x1E9E PUSH2 0x302B JUMP JUMPDEST JUMPDEST PUSH1 0x20 MUL PUSH1 0x20 ADD ADD DUP2 SWAP1 MSTORE POP DUP1 DUP1 PUSH2 0x1EB5 SWAP1 PUSH2 0x2F55 JUMP JUMPDEST SWAP2 POP POP PUSH2 0x1E69 JUMP JUMPDEST POP JUMPDEST POP POP SWAP2 SWAP1 POP JUMP JUMPDEST PUSH1 0x0 DUP1 SLOAD SWAP1 PUSH2 0x100 EXP SWAP1 DIV PUSH20 0xFFFFFFFFFFFFFFFFFFFFFFFFFFFFFFFFFFFFFFFF AND DUP2 JUMP JUMPDEST PUSH2 0x1EF2 PUSH2 0x22FB JUMP JUMPDEST PUSH1 0x1 PUSH1 0x0 DUP4 PUSH20 0xFFFFFFFFFFFFFFFFFFFFFFFFFFFFFFFFFFFFFFFF AND PUSH20 0xFFFFFFFFFFFFFFFFFFFFFFFFFFFFFFFFFFFFFFFF AND DUP2 MSTORE PUSH1 0x20 ADD SWAP1 DUP2 MSTORE PUSH1 0x20 ADD PUSH1 0x0 KECCAK256 PUSH1 0x40 MLOAD DUP1 PUSH1 0xE0 ADD PUSH1 0x40 MSTORE SWAP1 DUP2 PUSH1 0x0 DUP3 ADD DUP1 SLOAD PUSH2 0x1F4C SWAP1 PUSH2 0x2EF2 JUMP JUMPDEST DUP1 PUSH1 0x1F ADD PUSH1 0x20 DUP1 SWAP2 DIV MUL PUSH1 0x20 ADD PUSH1 0x40 MLOAD SWAP1 DUP2 ADD PUSH1 0x40 MSTORE DUP1 SWAP3 SWAP2 SWAP1 DUP2 DUP2 MSTORE PUSH1 0x20 ADD DUP3 DUP1 SLOAD PUSH2 0x1F78 SWAP1 PUSH2 0x2EF2 JUMP JUMPDEST DUP1 ISZERO PUSH2 0x1FC5 JUMPI DUP1 PUSH1 0x1F LT PUSH2 0x1F9A JUMPI PUSH2 0x100 DUP1 DUP4 SLOAD DIV MUL DUP4 MSTORE SWAP2 PUSH1 0x20 ADD SWAP2 PUSH2 0x1FC5 JUMP JUMPDEST DUP3 ADD SWAP2 SWAP1 PUSH1 0x0 MSTORE PUSH1 0x20 PUSH1 0x0 KECCAK256 SWAP1 JUMPDEST DUP2 SLOAD DUP2 MSTORE SWAP1 PUSH1 0x1 ADD SWAP1 PUSH1 0x20 ADD DUP1 DUP4 GT PUSH2 0x1FA8 JUMPI DUP3 SWAP1 SUB PUSH1 0x1F AND DUP3 ADD SWAP2 JUMPDEST POP POP POP POP POP DUP2 MSTORE PUSH1 0x20 ADD PUSH1 0x1 DUP3 ADD DUP1 SLOAD PUSH2 0x1FDE SWAP1 PUSH2 0x2EF2 JUMP JUMPDEST DUP1 PUSH1 0x1F ADD PUSH1 0x20 DUP1 SWAP2 DIV MUL PUSH1 0x20 ADD PUSH1 0x40 MLOAD SWAP1 DUP2 ADD PUSH1 0x40 MSTORE DUP1 SWAP3 SWAP2 SWAP1 DUP2 DUP2 MSTORE PUSH1 0x20 ADD DUP3 DUP1 SLOAD PUSH2 0x200A SWAP1 PUSH2 0x2EF2 JUMP JUMPDEST DUP1 ISZERO PUSH2 0x2057 JUMPI DUP1 PUSH1 0x1F LT PUSH2 0x202C JUMPI PUSH2 0x100 DUP1 DUP4 SLOAD DIV MUL DUP4 MSTORE SWAP2 PUSH1 0x20 ADD SWAP2 PUSH2 0x2057 JUMP JUMPDEST DUP3 ADD SWAP2 SWAP1 PUSH1 0x0 MSTORE PUSH1 0x20 PUSH1 0x0 KECCAK256 SWAP1 JUMPDEST DUP2 SLOAD DUP2 MSTORE SWAP1 PUSH1 0x1 ADD SWAP1 PUSH1 0x20 ADD DUP1 DUP4 GT PUSH2 0x203A JUMPI DUP3 SWAP1 SUB PUSH1 0x1F AND DUP3 ADD SWAP2 JUMPDEST POP POP POP POP POP DUP2 MSTORE PUSH1 0x20 ADD PUSH1 0x2 DUP3 ADD PUSH1 0x0 SWAP1 SLOAD SWAP1 PUSH2 0x100 EXP SWAP1 DIV PUSH1 0xFF AND PUSH1 0x8 DUP2 GT ISZERO PUSH2 0x2085 JUMPI PUSH2 0x2084 PUSH2 0x2FCD JUMP JUMPDEST JUMPDEST PUSH1 0x8 DUP2 GT ISZERO PUSH2 0x2097 JUMPI PUSH2 0x2096 PUSH2 0x2FCD JUMP JUMPDEST JUMPDEST DUP2 MSTORE PUSH1 0x20 ADD PUSH1 0x2 DUP3 ADD PUSH1 0x1 SWAP1 SLOAD SWAP1 PUSH2 0x100 EXP SWAP1 DIV PUSH1 0xFF AND PUSH1 0x2 DUP2 GT ISZERO PUSH2 0x20C0 JUMPI PUSH2 0x20BF PUSH2 0x2FCD JUMP JUMPDEST JUMPDEST PUSH1 0x2 DUP2 GT ISZERO PUSH2 0x20D2 JUMPI PUSH2 0x20D1 PUSH2 0x2FCD JUMP JUMPDEST JUMPDEST DUP2 MSTORE PUSH1 0x20 ADD PUSH1 0x3 DUP3 ADD SLOAD DUP2 MSTORE PUSH1 0x20 ADD PUSH1 0x4 DUP3 ADD SLOAD DUP2 MSTORE PUSH1 0x20 ADD PUSH1 0x5 DUP3 ADD PUSH1 0x0 SWAP1 SLOAD SWAP1 PUSH2 0x100 EXP SWAP1 DIV PUSH20 0xFFFFFFFFFFFFFFFFFFFFFFFFFFFFFFFFFFFFFFFF AND PUSH20 0xFFFFFFFFFFFFFFFFFFFFFFFFFFFFFFFFFFFFFFFF AND PUSH20 0xFFFFFFFFFFFFFFFFFFFFFFFFFFFFFFFFFFFFFFFF AND DUP2 MSTORE POP POP SWAP1 POP SWAP2 SWAP1 POP JUMP JUMPDEST PUSH2 0x214F PUSH2 0x23DB JUMP JUMPDEST PUSH1 0x3 DUP3 PUSH1 0x40 MLOAD PUSH2 0x215F SWAP2 SWAP1 PUSH2 0x2B0C JUMP JUMPDEST SWAP1 DUP2 MSTORE PUSH1 0x20 ADD PUSH1 0x40 MLOAD DUP1 SWAP2 SUB SWAP1 KECCAK256 PUSH1 0x40 MLOAD DUP1 PUSH1 0x60 ADD PUSH1 0x40 MSTORE SWAP1 DUP2 PUSH1 0x0 DUP3 ADD DUP1 SLOAD PUSH2 0x2188 SWAP1 PUSH2 0x2EF2 JUMP JUMPDEST DUP1 PUSH1 0x1F ADD PUSH1 0x20 DUP1 SWAP2 DIV MUL PUSH1 0x20 ADD PUSH1 0x40 MLOAD SWAP1 DUP2 ADD PUSH1 0x40 MSTORE DUP1 SWAP3 SWAP2 SWAP1 DUP2 DUP2 MSTORE PUSH1 0x20 ADD DUP3 DUP1 SLOAD PUSH2 0x21B4 SWAP1 PUSH2 0x2EF2 JUMP JUMPDEST DUP1 ISZERO PUSH2 0x2201 JUMPI DUP1 PUSH1 0x1F LT PUSH2 0x21D6 JUMPI PUSH2 0x100 DUP1 DUP4 SLOAD DIV MUL DUP4 MSTORE SWAP2 PUSH1 0x20 ADD SWAP2 PUSH2 0x2201 JUMP JUMPDEST DUP3 ADD SWAP2 SWAP1 PUSH1 0x0 MSTORE PUSH1 0x20 PUSH1 0x0 KECCAK256 SWAP1 JUMPDEST DUP2 SLOAD DUP2 MSTORE SWAP1 PUSH1 0x1 ADD SWAP1 PUSH1 0x20 ADD DUP1 DUP4 GT PUSH2 0x21E4 JUMPI DUP3 SWAP1 SUB PUSH1 0x1F AND DUP3 ADD SWAP2 JUMPDEST POP POP POP POP POP DUP2 MSTORE PUSH1 0x20 ADD PUSH1 0x1 DUP3 ADD PUSH1 0x0 SWAP1 SLOAD SWAP1 PUSH2 0x100 EXP SWAP1 DIV PUSH20 0xFFFFFFFFFFFFFFFFFFFFFFFFFFFFFFFFFFFFFFFF AND PUSH20 0xFFFFFFFFFFFFFFFFFFFFFFFFFFFFFFFFFFFFFFFF AND PUSH20 0xFFFFFFFFFFFFFFFFFFFFFFFFFFFFFFFFFFFFFFFF AND DUP2 MSTORE PUSH1 0x20 ADD PUSH1 0x1 DUP3 ADD PUSH1 0x14 SWAP1 SLOAD SWAP1 PUSH2 0x100 EXP SWAP1 DIV PUSH1 0xFF AND PUSH1 0x2 DUP2 GT ISZERO PUSH2 0x2285 JUMPI PUSH2 0x2284 PUSH2 0x2FCD JUMP JUMPDEST JUMPDEST PUSH1 0x2 DUP2 GT ISZERO PUSH2 0x2297 JUMPI PUSH2 0x2296 PUSH2 0x2FCD JUMP JUMPDEST JUMPDEST DUP2 MSTORE POP POP SWAP1 POP SWAP2 SWAP1 POP JUMP JUMPDEST PUSH1 0x0 DUP2 PUSH1 0x40 MLOAD PUSH1 0x20 ADD PUSH2 0x22B5 SWAP2 SWAP1 PUSH2 0x2B0C JUMP JUMPDEST PUSH1 0x40 MLOAD PUSH1 0x20 DUP2 DUP4 SUB SUB DUP2 MSTORE SWAP1 PUSH1 0x40 MSTORE DUP1 MLOAD SWAP1 PUSH1 0x20 ADD KECCAK256 DUP4 PUSH1 0x40 MLOAD PUSH1 0x20 ADD PUSH2 0x22DC SWAP2 SWAP1 PUSH2 0x2B0C JUMP JUMPDEST PUSH1 0x40 MLOAD PUSH1 0x20 DUP2 DUP4 SUB SUB DUP2 MSTORE SWAP1 PUSH1 0x40 MSTORE DUP1 MLOAD SWAP1 PUSH1 0x20 ADD KECCAK256 EQ SWAP1 POP SWAP3 SWAP2 POP POP JUMP JUMPDEST PUSH1 0x40 MLOAD DUP1 PUSH1 0xE0 ADD PUSH1 0x40 MSTORE DUP1 PUSH1 0x60 DUP2 MSTORE PUSH1 0x20 ADD PUSH1 0x60 DUP2 MSTORE PUSH1 0x20 ADD PUSH1 0x0 PUSH1 0x8 DUP2 GT ISZERO PUSH2 0x2328 JUMPI PUSH2 0x2327 PUSH2 0x2FCD JUMP JUMPDEST JUMPDEST DUP2 MSTORE PUSH1 0x20 ADD PUSH1 0x0 PUSH1 0x2 DUP2 GT ISZERO PUSH2 0x2341 JUMPI PUSH2 0x2340 PUSH2 0x2FCD JUMP JUMPDEST JUMPDEST DUP2 MSTORE PUSH1 0x20 ADD PUSH1 0x0 DUP2 MSTORE PUSH1 0x20 ADD PUSH1 0x0 DUP2 MSTORE PUSH1 0x20 ADD PUSH1 0x0 PUSH20 0xFFFFFFFFFFFFFFFFFFFFFFFFFFFFFFFFFFFFFFFF AND DUP2 MSTORE POP SWAP1 JUMP JUMPDEST PUSH1 0x40 MLOAD DUP1 PUSH1 0xE0 ADD PUSH1 0x40 MSTORE DUP1 PUSH1 0x60 DUP2 MSTORE PUSH1 0x20 ADD PUSH1 0x60 DUP2 MSTORE PUSH1 0x20 ADD PUSH1 0x0 DUP2 MSTORE PUSH1 0x20 ADD PUSH1 0x0 PUSH20 0xFFFFFFFFFFFFFFFFFFFFFFFFFFFFFFFFFFFFFFFF AND DUP2 MSTORE PUSH1 0x20 ADD PUSH1 0x0 PUSH20 0xFFFFFFFFFFFFFFFFFFFFFFFFFFFFFFFFFFFFFFFF AND DUP2 MSTORE PUSH1 0x20 ADD PUSH1 0x0 DUP2 MSTORE PUSH1 0x20 ADD PUSH1 0x0 DUP2 MSTORE POP SWAP1 JUMP JUMPDEST PUSH1 0x40 MLOAD DUP1 PUSH1 0x60 ADD PUSH1 0x40 MSTORE DUP1 PUSH1 0x60 DUP2 MSTORE PUSH1 0x20 ADD PUSH1 0x0 PUSH20 0xFFFFFFFFFFFFFFFFFFFFFFFFFFFFFFFFFFFFFFFF AND DUP2 MSTORE PUSH1 0x20 ADD PUSH1 0x0 PUSH1 0x2 DUP2 GT ISZERO PUSH2 0x241E JUMPI PUSH2 0x241D PUSH2 0x2FCD JUMP JUMPDEST JUMPDEST DUP2 MSTORE POP SWAP1 JUMP JUMPDEST PUSH1 0x0 PUSH2 0x2437 PUSH2 0x2432 DUP5 PUSH2 0x2CB9 JUMP JUMPDEST PUSH2 0x2C94 JUMP JUMPDEST SWAP1 POP DUP3 DUP2 MSTORE PUSH1 0x20 DUP2 ADD DUP5 DUP5 DUP5 ADD GT ISZERO PUSH2 0x2453 JUMPI PUSH2 0x2452 PUSH2 0x308E JUMP JUMPDEST JUMPDEST PUSH2 0x245E DUP5 DUP3 DUP6 PUSH2 0x2EB0 JUMP JUMPDEST POP SWAP4 SWAP3 POP POP POP JUMP JUMPDEST PUSH1 0x0 DUP2 CALLDATALOAD SWAP1 POP PUSH2 0x2475 DUP2 PUSH2 0x30D6 JUMP JUMPDEST SWAP3 SWAP2 POP POP JUMP JUMPDEST PUSH1 0x0 DUP2 CALLDATALOAD SWAP1 POP PUSH2 0x248A DUP2 PUSH2 0x30ED JUMP JUMPDEST SWAP3 SWAP2 POP POP JUMP JUMPDEST PUSH1 0x0 DUP3 PUSH1 0x1F DUP4 ADD SLT PUSH2 0x24A5 JUMPI PUSH2 0x24A4 PUSH2 0x3089 JUMP JUMPDEST JUMPDEST DUP2 CALLDATALOAD PUSH2 0x24B5 DUP5 DUP3 PUSH1 0x20 DUP7 ADD PUSH2 0x2424 JUMP JUMPDEST SWAP2 POP POP SWAP3 SWAP2 POP POP JUMP JUMPDEST PUSH1 0x0 DUP2 CALLDATALOAD SWAP1 POP PUSH2 0x24CD DUP2 PUSH2 0x30FD JUMP JUMPDEST SWAP3 SWAP2 POP POP JUMP JUMPDEST PUSH1 0x0 PUSH1 0x20 DUP3 DUP5 SUB SLT ISZERO PUSH2 0x24E9 JUMPI PUSH2 0x24E8 PUSH2 0x3098 JUMP JUMPDEST JUMPDEST PUSH1 0x0 PUSH2 0x24F7 DUP5 DUP3 DUP6 ADD PUSH2 0x2466 JUMP JUMPDEST SWAP2 POP POP SWAP3 SWAP2 POP POP JUMP JUMPDEST PUSH1 0x0 PUSH1 0x20 DUP3 DUP5 SUB SLT ISZERO PUSH2 0x2516 JUMPI PUSH2 0x2515 PUSH2 0x3098 JUMP JUMPDEST JUMPDEST PUSH1 0x0 PUSH2 0x2524 DUP5 DUP3 DUP6 ADD PUSH2 0x247B JUMP JUMPDEST SWAP2 POP POP SWAP3 SWAP2 POP POP JUMP JUMPDEST PUSH1 0x0 PUSH1 0x20 DUP3 DUP5 SUB SLT ISZERO PUSH2 0x2543 JUMPI PUSH2 0x2542 PUSH2 0x3098 JUMP JUMPDEST JUMPDEST PUSH1 0x0 DUP3 ADD CALLDATALOAD PUSH8 0xFFFFFFFFFFFFFFFF DUP2 GT ISZERO PUSH2 0x2561 JUMPI PUSH2 0x2560 PUSH2 0x3093 JUMP JUMPDEST JUMPDEST PUSH2 0x256D DUP5 DUP3 DUP6 ADD PUSH2 0x2490 JUMP JUMPDEST SWAP2 POP POP SWAP3 SWAP2 POP POP JUMP JUMPDEST PUSH1 0x0 DUP1 PUSH1 0x40 DUP4 DUP6 SUB SLT ISZERO PUSH2 0x258D JUMPI PUSH2 0x258C PUSH2 0x3098 JUMP JUMPDEST JUMPDEST PUSH1 0x0 DUP4 ADD CALLDATALOAD PUSH8 0xFFFFFFFFFFFFFFFF DUP2 GT ISZERO PUSH2 0x25AB JUMPI PUSH2 0x25AA PUSH2 0x3093 JUMP JUMPDEST JUMPDEST PUSH2 0x25B7 DUP6 DUP3 DUP7 ADD PUSH2 0x2490 JUMP JUMPDEST SWAP3 POP POP PUSH1 0x20 DUP4 ADD CALLDATALOAD PUSH8 0xFFFFFFFFFFFFFFFF DUP2 GT ISZERO PUSH2 0x25D8 JUMPI PUSH2 0x25D7 PUSH2 0x3093 JUMP JUMPDEST JUMPDEST PUSH2 0x25E4 DUP6 DUP3 DUP7 ADD PUSH2 0x2490 JUMP JUMPDEST SWAP2 POP POP SWAP3 POP SWAP3 SWAP1 POP JUMP JUMPDEST PUSH1 0x0 DUP1 PUSH1 0x0 PUSH1 0x60 DUP5 DUP7 SUB SLT ISZERO PUSH2 0x2607 JUMPI PUSH2 0x2606 PUSH2 0x3098 JUMP JUMPDEST JUMPDEST PUSH1 0x0 DUP5 ADD CALLDATALOAD PUSH8 0xFFFFFFFFFFFFFFFF DUP2 GT ISZERO PUSH2 0x2625 JUMPI PUSH2 0x2624 PUSH2 0x3093 JUMP JUMPDEST JUMPDEST PUSH2 0x2631 DUP7 DUP3 DUP8 ADD PUSH2 0x2490 JUMP JUMPDEST SWAP4 POP POP PUSH1 0x20 DUP5 ADD CALLDATALOAD PUSH8 0xFFFFFFFFFFFFFFFF DUP2 GT ISZERO PUSH2 0x2652 JUMPI PUSH2 0x2651 PUSH2 0x3093 JUMP JUMPDEST JUMPDEST PUSH2 0x265E DUP7 DUP3 DUP8 ADD PUSH2 0x2490 JUMP JUMPDEST SWAP3 POP POP PUSH1 0x40 PUSH2 0x266F DUP7 DUP3 DUP8 ADD PUSH2 0x2466 JUMP JUMPDEST SWAP2 POP POP SWAP3 POP SWAP3 POP SWAP3 JUMP JUMPDEST PUSH1 0x0 PUSH1 0x20 DUP3 DUP5 SUB SLT ISZERO PUSH2 0x268F JUMPI PUSH2 0x268E PUSH2 0x3098 JUMP JUMPDEST JUMPDEST PUSH1 0x0 PUSH2 0x269D DUP5 DUP3 DUP6 ADD PUSH2 0x24BE JUMP JUMPDEST SWAP2 POP POP SWAP3 SWAP2 POP POP JUMP JUMPDEST PUSH1 0x0 PUSH2 0x26B2 DUP4 DUP4 PUSH2 0x2905 JUMP JUMPDEST SWAP1 POP SWAP3 SWAP2 POP POP JUMP JUMPDEST PUSH1 0x0 PUSH2 0x26C6 DUP4 DUP4 PUSH2 0x29A8 JUMP JUMPDEST SWAP1 POP SWAP3 SWAP2 POP POP JUMP JUMPDEST PUSH2 0x26D7 DUP2 PUSH2 0x2E1E JUMP JUMPDEST DUP3 MSTORE POP POP JUMP JUMPDEST PUSH2 0x26E6 DUP2 PUSH2 0x2E1E JUMP JUMPDEST DUP3 MSTORE POP POP JUMP JUMPDEST PUSH1 0x0 PUSH2 0x26F7 DUP3 PUSH2 0x2D0A JUMP JUMPDEST PUSH2 0x2701 DUP2 DUP6 PUSH2 0x2D45 JUMP JUMPDEST SWAP4 POP DUP4 PUSH1 0x20 DUP3 MUL DUP6 ADD PUSH2 0x2713 DUP6 PUSH2 0x2CEA JUMP JUMPDEST DUP1 PUSH1 0x0 JUMPDEST DUP6 DUP2 LT ISZERO PUSH2 0x274F JUMPI DUP5 DUP5 SUB DUP10 MSTORE DUP2 MLOAD PUSH2 0x2730 DUP6 DUP3 PUSH2 0x26A6 JUMP JUMPDEST SWAP5 POP PUSH2 0x273B DUP4 PUSH2 0x2D2B JUMP JUMPDEST SWAP3 POP PUSH1 0x20 DUP11 ADD SWAP10 POP POP PUSH1 0x1 DUP2 ADD SWAP1 POP PUSH2 0x2717 JUMP JUMPDEST POP DUP3 SWAP8 POP DUP8 SWAP6 POP POP POP POP POP POP SWAP3 SWAP2 POP POP JUMP JUMPDEST PUSH1 0x0 PUSH2 0x276C DUP3 PUSH2 0x2D15 JUMP JUMPDEST PUSH2 0x2776 DUP2 DUP6 PUSH2 0x2D56 JUMP JUMPDEST SWAP4 POP DUP4 PUSH1 0x20 DUP3 MUL DUP6 ADD PUSH2 0x2788 DUP6 PUSH2 0x2CFA JUMP JUMPDEST DUP1 PUSH1 0x0 JUMPDEST DUP6 DUP2 LT ISZERO PUSH2 0x27C4 JUMPI DUP5 DUP5 SUB DUP10 MSTORE DUP2 MLOAD PUSH2 0x27A5 DUP6 DUP3 PUSH2 0x26BA JUMP JUMPDEST SWAP5 POP PUSH2 0x27B0 DUP4 PUSH2 0x2D38 JUMP JUMPDEST SWAP3 POP PUSH1 0x20 DUP11 ADD SWAP10 POP POP PUSH1 0x1 DUP2 ADD SWAP1 POP PUSH2 0x278C JUMP JUMPDEST POP DUP3 SWAP8 POP DUP8 SWAP6 POP POP POP POP POP POP SWAP3 SWAP2 POP POP JUMP JUMPDEST PUSH2 0x27DF DUP2 PUSH2 0x2E30 JUMP JUMPDEST DUP3 MSTORE POP POP JUMP JUMPDEST PUSH2 0x27EE DUP2 PUSH2 0x2E8C JUMP JUMPDEST DUP3 MSTORE POP POP JUMP JUMPDEST PUSH2 0x27FD DUP2 PUSH2 0x2E9E JUMP JUMPDEST DUP3 MSTORE POP POP JUMP JUMPDEST PUSH2 0x280C DUP2 PUSH2 0x2E9E JUMP JUMPDEST DUP3 MSTORE POP POP JUMP JUMPDEST PUSH1 0x0 PUSH2 0x281D DUP3 PUSH2 0x2D20 JUMP JUMPDEST PUSH2 0x2827 DUP2 DUP6 PUSH2 0x2D67 JUMP JUMPDEST SWAP4 POP PUSH2 0x2837 DUP2 DUP6 PUSH1 0x20 DUP7 ADD PUSH2 0x2EBF JUMP JUMPDEST PUSH2 0x2840 DUP2 PUSH2 0x309D JUMP JUMPDEST DUP5 ADD SWAP2 POP POP SWAP3 SWAP2 POP POP JUMP JUMPDEST PUSH1 0x0 PUSH2 0x2856 DUP3 PUSH2 0x2D20 JUMP JUMPDEST PUSH2 0x2860 DUP2 DUP6 PUSH2 0x2D78 JUMP JUMPDEST SWAP4 POP PUSH2 0x2870 DUP2 DUP6 PUSH1 0x20 DUP7 ADD PUSH2 0x2EBF JUMP JUMPDEST PUSH2 0x2879 DUP2 PUSH2 0x309D JUMP JUMPDEST DUP5 ADD SWAP2 POP POP SWAP3 SWAP2 POP POP JUMP JUMPDEST PUSH1 0x0 PUSH2 0x288F DUP3 PUSH2 0x2D20 JUMP JUMPDEST PUSH2 0x2899 DUP2 DUP6 PUSH2 0x2D89 JUMP JUMPDEST SWAP4 POP PUSH2 0x28A9 DUP2 DUP6 PUSH1 0x20 DUP7 ADD PUSH2 0x2EBF JUMP JUMPDEST DUP1 DUP5 ADD SWAP2 POP POP SWAP3 SWAP2 POP POP JUMP JUMPDEST PUSH1 0x0 PUSH1 0x60 DUP4 ADD PUSH1 0x0 DUP4 ADD MLOAD DUP5 DUP3 SUB PUSH1 0x0 DUP7 ADD MSTORE PUSH2 0x28D2 DUP3 DUP3 PUSH2 0x2812 JUMP JUMPDEST SWAP2 POP POP PUSH1 0x20 DUP4 ADD MLOAD PUSH2 0x28E7 PUSH1 0x20 DUP7 ADD DUP3 PUSH2 0x26CE JUMP JUMPDEST POP PUSH1 0x40 DUP4 ADD MLOAD PUSH2 0x28FA PUSH1 0x40 DUP7 ADD DUP3 PUSH2 0x27E5 JUMP JUMPDEST POP DUP1 SWAP2 POP POP SWAP3 SWAP2 POP POP JUMP JUMPDEST PUSH1 0x0 PUSH1 0xE0 DUP4 ADD PUSH1 0x0 DUP4 ADD MLOAD DUP5 DUP3 SUB PUSH1 0x0 DUP7 ADD MSTORE PUSH2 0x2922 DUP3 DUP3 PUSH2 0x2812 JUMP JUMPDEST SWAP2 POP POP PUSH1 0x20 DUP4 ADD MLOAD DUP5 DUP3 SUB PUSH1 0x20 DUP7 ADD MSTORE PUSH2 0x293C DUP3 DUP3 PUSH2 0x2812 JUMP JUMPDEST SWAP2 POP POP PUSH1 0x40 DUP4 ADD MLOAD PUSH2 0x2951 PUSH1 0x40 DUP7 ADD DUP3 PUSH2 0x2AEE JUMP JUMPDEST POP PUSH1 0x60 DUP4 ADD MLOAD PUSH2 0x2964 PUSH1 0x60 DUP7 ADD DUP3 PUSH2 0x26CE JUMP JUMPDEST POP PUSH1 0x80 DUP4 ADD MLOAD PUSH2 0x2977 PUSH1 0x80 DUP7 ADD DUP3 PUSH2 0x26CE JUMP JUMPDEST POP PUSH1 0xA0 DUP4 ADD MLOAD PUSH2 0x298A PUSH1 0xA0 DUP7 ADD DUP3 PUSH2 0x2AEE JUMP JUMPDEST POP PUSH1 0xC0 DUP4 ADD MLOAD PUSH2 0x299D PUSH1 0xC0 DUP7 ADD DUP3 PUSH2 0x2AEE JUMP JUMPDEST POP DUP1 SWAP2 POP POP SWAP3 SWAP2 POP POP JUMP JUMPDEST PUSH1 0x0 PUSH1 0xE0 DUP4 ADD PUSH1 0x0 DUP4 ADD MLOAD DUP5 DUP3 SUB PUSH1 0x0 DUP7 ADD MSTORE PUSH2 0x29C5 DUP3 DUP3 PUSH2 0x2812 JUMP JUMPDEST SWAP2 POP POP PUSH1 0x20 DUP4 ADD MLOAD DUP5 DUP3 SUB PUSH1 0x20 DUP7 ADD MSTORE PUSH2 0x29DF DUP3 DUP3 PUSH2 0x2812 JUMP JUMPDEST SWAP2 POP POP PUSH1 0x40 DUP4 ADD MLOAD PUSH2 0x29F4 PUSH1 0x40 DUP7 ADD DUP3 PUSH2 0x27F4 JUMP JUMPDEST POP PUSH1 0x60 DUP4 ADD MLOAD PUSH2 0x2A07 PUSH1 0x60 DUP7 ADD DUP3 PUSH2 0x27E5 JUMP JUMPDEST POP PUSH1 0x80 DUP4 ADD MLOAD PUSH2 0x2A1A PUSH1 0x80 DUP7 ADD DUP3 PUSH2 0x2AEE JUMP JUMPDEST POP PUSH1 0xA0 DUP4 ADD MLOAD PUSH2 0x2A2D PUSH1 0xA0 DUP7 ADD DUP3 PUSH2 0x2AEE JUMP JUMPDEST POP PUSH1 0xC0 DUP4 ADD MLOAD PUSH2 0x2A40 PUSH1 0xC0 DUP7 ADD DUP3 PUSH2 0x26CE JUMP JUMPDEST POP DUP1 SWAP2 POP POP SWAP3 SWAP2 POP POP JUMP JUMPDEST PUSH1 0x0 PUSH1 0xE0 DUP4 ADD PUSH1 0x0 DUP4 ADD MLOAD DUP5 DUP3 SUB PUSH1 0x0 DUP7 ADD MSTORE PUSH2 0x2A68 DUP3 DUP3 PUSH2 0x2812 JUMP JUMPDEST SWAP2 POP POP PUSH1 0x20 DUP4 ADD MLOAD DUP5 DUP3 SUB PUSH1 0x20 DUP7 ADD MSTORE PUSH2 0x2A82 DUP3 DUP3 PUSH2 0x2812 JUMP JUMPDEST SWAP2 POP POP PUSH1 0x40 DUP4 ADD MLOAD PUSH2 0x2A97 PUSH1 0x40 DUP7 ADD DUP3 PUSH2 0x27F4 JUMP JUMPDEST POP PUSH1 0x60 DUP4 ADD MLOAD PUSH2 0x2AAA PUSH1 0x60 DUP7 ADD DUP3 PUSH2 0x27E5 JUMP JUMPDEST POP PUSH1 0x80 DUP4 ADD MLOAD PUSH2 0x2ABD PUSH1 0x80 DUP7 ADD DUP3 PUSH2 0x2AEE JUMP JUMPDEST POP PUSH1 0xA0 DUP4 ADD MLOAD PUSH2 0x2AD0 PUSH1 0xA0 DUP7 ADD DUP3 PUSH2 0x2AEE JUMP JUMPDEST POP PUSH1 0xC0 DUP4 ADD MLOAD PUSH2 0x2AE3 PUSH1 0xC0 DUP7 ADD DUP3 PUSH2 0x26CE JUMP JUMPDEST POP DUP1 SWAP2 POP POP SWAP3 SWAP2 POP POP JUMP JUMPDEST PUSH2 0x2AF7 DUP2 PUSH2 0x2E82 JUMP JUMPDEST DUP3 MSTORE POP POP JUMP JUMPDEST PUSH2 0x2B06 DUP2 PUSH2 0x2E82 JUMP JUMPDEST DUP3 MSTORE POP POP JUMP JUMPDEST PUSH1 0x0 PUSH2 0x2B18 DUP3 DUP5 PUSH2 0x2884 JUMP JUMPDEST SWAP2 POP DUP2 SWAP1 POP SWAP3 SWAP2 POP POP JUMP JUMPDEST PUSH1 0x0 PUSH1 0x20 DUP3 ADD SWAP1 POP PUSH2 0x2B38 PUSH1 0x0 DUP4 ADD DUP5 PUSH2 0x26DD JUMP JUMPDEST SWAP3 SWAP2 POP POP JUMP JUMPDEST PUSH1 0x0 PUSH1 0x20 DUP3 ADD SWAP1 POP DUP2 DUP2 SUB PUSH1 0x0 DUP4 ADD MSTORE PUSH2 0x2B58 DUP2 DUP5 PUSH2 0x26EC JUMP JUMPDEST SWAP1 POP SWAP3 SWAP2 POP POP JUMP JUMPDEST PUSH1 0x0 PUSH1 0x20 DUP3 ADD SWAP1 POP DUP2 DUP2 SUB PUSH1 0x0 DUP4 ADD MSTORE PUSH2 0x2B7A DUP2 DUP5 PUSH2 0x2761 JUMP JUMPDEST SWAP1 POP SWAP3 SWAP2 POP POP JUMP JUMPDEST PUSH1 0x0 PUSH1 0x20 DUP3 ADD SWAP1 POP PUSH2 0x2B97 PUSH1 0x0 DUP4 ADD DUP5 PUSH2 0x27D6 JUMP JUMPDEST SWAP3 SWAP2 POP POP JUMP JUMPDEST PUSH1 0x0 PUSH1 0x20 DUP3 ADD SWAP1 POP PUSH2 0x2BB2 PUSH1 0x0 DUP4 ADD DUP5 PUSH2 0x2803 JUMP JUMPDEST SWAP3 SWAP2 POP POP JUMP JUMPDEST PUSH1 0x0 PUSH1 0xE0 DUP3 ADD SWAP1 POP DUP2 DUP2 SUB PUSH1 0x0 DUP4 ADD MSTORE PUSH2 0x2BD2 DUP2 DUP11 PUSH2 0x284B JUMP JUMPDEST SWAP1 POP DUP2 DUP2 SUB PUSH1 0x20 DUP4 ADD MSTORE PUSH2 0x2BE6 DUP2 DUP10 PUSH2 0x284B JUMP JUMPDEST SWAP1 POP PUSH2 0x2BF5 PUSH1 0x40 DUP4 ADD DUP9 PUSH2 0x2AFD JUMP JUMPDEST PUSH2 0x2C02 PUSH1 0x60 DUP4 ADD DUP8 PUSH2 0x26DD JUMP JUMPDEST PUSH2 0x2C0F PUSH1 0x80 DUP4 ADD DUP7 PUSH2 0x26DD JUMP JUMPDEST PUSH2 0x2C1C PUSH1 0xA0 DUP4 ADD DUP6 PUSH2 0x2AFD JUMP JUMPDEST PUSH2 0x2C29 PUSH1 0xC0 DUP4 ADD DUP5 PUSH2 0x2AFD JUMP JUMPDEST SWAP9 SWAP8 POP POP POP POP POP POP POP POP JUMP JUMPDEST PUSH1 0x0 PUSH1 0x20 DUP3 ADD SWAP1 POP DUP2 DUP2 SUB PUSH1 0x0 DUP4 ADD MSTORE PUSH2 0x2C4F DUP2 DUP5 PUSH2 0x28B5 JUMP JUMPDEST SWAP1 POP SWAP3 SWAP2 POP POP JUMP JUMPDEST PUSH1 0x0 PUSH1 0x20 DUP3 ADD SWAP1 POP DUP2 DUP2 SUB PUSH1 0x0 DUP4 ADD MSTORE PUSH2 0x2C71 DUP2 DUP5 PUSH2 0x2A4B JUMP JUMPDEST SWAP1 POP SWAP3 SWAP2 POP POP JUMP JUMPDEST PUSH1 0x0 PUSH1 0x20 DUP3 ADD SWAP1 POP PUSH2 0x2C8E PUSH1 0x0 DUP4 ADD DUP5 PUSH2 0x2AFD JUMP JUMPDEST SWAP3 SWAP2 POP POP JUMP JUMPDEST PUSH1 0x0 PUSH2 0x2C9E PUSH2 0x2CAF JUMP JUMPDEST SWAP1 POP PUSH2 0x2CAA DUP3 DUP3 PUSH2 0x2F24 JUMP JUMPDEST SWAP2 SWAP1 POP JUMP JUMPDEST PUSH1 0x0 PUSH1 0x40 MLOAD SWAP1 POP SWAP1 JUMP JUMPDEST PUSH1 0x0 PUSH8 0xFFFFFFFFFFFFFFFF DUP3 GT ISZERO PUSH2 0x2CD4 JUMPI PUSH2 0x2CD3 PUSH2 0x305A JUMP JUMPDEST JUMPDEST PUSH2 0x2CDD DUP3 PUSH2 0x309D JUMP JUMPDEST SWAP1 POP PUSH1 0x20 DUP2 ADD SWAP1 POP SWAP2 SWAP1 POP JUMP JUMPDEST PUSH1 0x0 DUP2 SWAP1 POP PUSH1 0x20 DUP3 ADD SWAP1 POP SWAP2 SWAP1 POP JUMP JUMPDEST PUSH1 0x0 DUP2 SWAP1 POP PUSH1 0x20 DUP3 ADD SWAP1 POP SWAP2 SWAP1 POP JUMP JUMPDEST PUSH1 0x0 DUP2 MLOAD SWAP1 POP SWAP2 SWAP1 POP JUMP JUMPDEST PUSH1 0x0 DUP2 MLOAD SWAP1 POP SWAP2 SWAP1 POP JUMP JUMPDEST PUSH1 0x0 DUP2 MLOAD SWAP1 POP SWAP2 SWAP1 POP JUMP JUMPDEST PUSH1 0x0 PUSH1 0x20 DUP3 ADD SWAP1 POP SWAP2 SWAP1 POP JUMP JUMPDEST PUSH1 0x0 PUSH1 0x20 DUP3 ADD SWAP1 POP SWAP2 SWAP1 POP JUMP JUMPDEST PUSH1 0x0 DUP3 DUP3 MSTORE PUSH1 0x20 DUP3 ADD SWAP1 POP SWAP3 SWAP2 POP POP JUMP JUMPDEST PUSH1 0x0 DUP3 DUP3 MSTORE PUSH1 0x20 DUP3 ADD SWAP1 POP SWAP3 SWAP2 POP POP JUMP JUMPDEST PUSH1 0x0 DUP3 DUP3 MSTORE PUSH1 0x20 DUP3 ADD SWAP1 POP SWAP3 SWAP2 POP POP JUMP JUMPDEST PUSH1 0x0 DUP3 DUP3 MSTORE PUSH1 0x20 DUP3 ADD SWAP1 POP SWAP3 SWAP2 POP POP JUMP JUMPDEST PUSH1 0x0 DUP2 SWAP1 POP SWAP3 SWAP2 POP POP JUMP JUMPDEST PUSH1 0x0 PUSH2 0x2D9F DUP3 PUSH2 0x2E82 JUMP JUMPDEST SWAP2 POP PUSH2 0x2DAA DUP4 PUSH2 0x2E82 JUMP JUMPDEST SWAP3 POP DUP3 PUSH32 0xFFFFFFFFFFFFFFFFFFFFFFFFFFFFFFFFFFFFFFFFFFFFFFFFFFFFFFFFFFFFFFFF SUB DUP3 GT ISZERO PUSH2 0x2DDF JUMPI PUSH2 0x2DDE PUSH2 0x2F9E JUMP JUMPDEST JUMPDEST DUP3 DUP3 ADD SWAP1 POP SWAP3 SWAP2 POP POP JUMP JUMPDEST PUSH1 0x0 PUSH2 0x2DF5 DUP3 PUSH2 0x2E82 JUMP JUMPDEST SWAP2 POP PUSH2 0x2E00 DUP4 PUSH2 0x2E82 JUMP JUMPDEST SWAP3 POP DUP3 DUP3 LT ISZERO PUSH2 0x2E13 JUMPI PUSH2 0x2E12 PUSH2 0x2F9E JUMP JUMPDEST JUMPDEST DUP3 DUP3 SUB SWAP1 POP SWAP3 SWAP2 POP POP JUMP JUMPDEST PUSH1 0x0 PUSH2 0x2E29 DUP3 PUSH2 0x2E62 JUMP JUMPDEST SWAP1 POP SWAP2 SWAP1 POP JUMP JUMPDEST PUSH1 0x0 DUP2 ISZERO ISZERO SWAP1 POP SWAP2 SWAP1 POP JUMP JUMPDEST PUSH1 0x0 DUP2 SWAP1 POP PUSH2 0x2E4A DUP3 PUSH2 0x30AE JUMP JUMPDEST SWAP2 SWAP1 POP JUMP JUMPDEST PUSH1 0x0 DUP2 SWAP1 POP PUSH2 0x2E5D DUP3 PUSH2 0x30C2 JUMP JUMPDEST SWAP2 SWAP1 POP JUMP JUMPDEST PUSH1 0x0 PUSH20 0xFFFFFFFFFFFFFFFFFFFFFFFFFFFFFFFFFFFFFFFF DUP3 AND SWAP1 POP SWAP2 SWAP1 POP JUMP JUMPDEST PUSH1 0x0 DUP2 SWAP1 POP SWAP2 SWAP1 POP JUMP JUMPDEST PUSH1 0x0 PUSH2 0x2E97 DUP3 PUSH2 0x2E3C JUMP JUMPDEST SWAP1 POP SWAP2 SWAP1 POP JUMP JUMPDEST PUSH1 0x0 PUSH2 0x2EA9 DUP3 PUSH2 0x2E4F JUMP JUMPDEST SWAP1 POP SWAP2 SWAP1 POP JUMP JUMPDEST DUP3 DUP2 DUP4 CALLDATACOPY PUSH1 0x0 DUP4 DUP4 ADD MSTORE POP POP POP JUMP JUMPDEST PUSH1 0x0 JUMPDEST DUP4 DUP2 LT ISZERO PUSH2 0x2EDD JUMPI DUP1 DUP3 ADD MLOAD DUP2 DUP5 ADD MSTORE PUSH1 0x20 DUP2 ADD SWAP1 POP PUSH2 0x2EC2 JUMP JUMPDEST DUP4 DUP2 GT ISZERO PUSH2 0x2EEC JUMPI PUSH1 0x0 DUP5 DUP5 ADD MSTORE JUMPDEST POP POP POP POP JUMP JUMPDEST PUSH1 0x0 PUSH1 0x2 DUP3 DIV SWAP1 POP PUSH1 0x1 DUP3 AND DUP1 PUSH2 0x2F0A JUMPI PUSH1 0x7F DUP3 AND SWAP2 POP JUMPDEST PUSH1 0x20 DUP3 LT DUP2 EQ ISZERO PUSH2 0x2F1E JUMPI PUSH2 0x2F1D PUSH2 0x2FFC JUMP JUMPDEST JUMPDEST POP SWAP2 SWAP1 POP JUMP JUMPDEST PUSH2 0x2F2D DUP3 PUSH2 0x309D JUMP JUMPDEST DUP2 ADD DUP2 DUP2 LT PUSH8 0xFFFFFFFFFFFFFFFF DUP3 GT OR ISZERO PUSH2 0x2F4C JUMPI PUSH2 0x2F4B PUSH2 0x305A JUMP JUMPDEST JUMPDEST DUP1 PUSH1 0x40 MSTORE POP POP POP JUMP JUMPDEST PUSH1 0x0 PUSH2 0x2F60 DUP3 PUSH2 0x2E82 JUMP JUMPDEST SWAP2 POP PUSH32 0xFFFFFFFFFFFFFFFFFFFFFFFFFFFFFFFFFFFFFFFFFFFFFFFFFFFFFFFFFFFFFFFF DUP3 EQ ISZERO PUSH2 0x2F93 JUMPI PUSH2 0x2F92 PUSH2 0x2F9E JUMP JUMPDEST JUMPDEST PUSH1 0x1 DUP3 ADD SWAP1 POP SWAP2 SWAP1 POP JUMP JUMPDEST PUSH32 0x4E487B7100000000000000000000000000000000000000000000000000000000 PUSH1 0x0 MSTORE PUSH1 0x11 PUSH1 0x4 MSTORE PUSH1 0x24 PUSH1 0x0 REVERT JUMPDEST PUSH32 0x4E487B7100000000000000000000000000000000000000000000000000000000 PUSH1 0x0 MSTORE PUSH1 0x21 PUSH1 0x4 MSTORE PUSH1 0x24 PUSH1 0x0 REVERT JUMPDEST PUSH32 0x4E487B7100000000000000000000000000000000000000000000000000000000 PUSH1 0x0 MSTORE PUSH1 0x22 PUSH1 0x4 MSTORE PUSH1 0x24 PUSH1 0x0 REVERT JUMPDEST PUSH32 0x4E487B7100000000000000000000000000000000000000000000000000000000 PUSH1 0x0 MSTORE PUSH1 0x32 PUSH1 0x4 MSTORE PUSH1 0x24 PUSH1 0x0 REVERT JUMPDEST PUSH32 0x4E487B7100000000000000000000000000000000000000000000000000000000 PUSH1 0x0 MSTORE PUSH1 0x41 PUSH1 0x4 MSTORE PUSH1 0x24 PUSH1 0x0 REVERT JUMPDEST PUSH1 0x0 DUP1 REVERT JUMPDEST PUSH1 0x0 DUP1 REVERT JUMPDEST PUSH1 0x0 DUP1 REVERT JUMPDEST PUSH1 0x0 DUP1 REVERT JUMPDEST PUSH1 0x0 PUSH1 0x1F NOT PUSH1 0x1F DUP4 ADD AND SWAP1 POP SWAP2 SWAP1 POP JUMP JUMPDEST PUSH1 0x3 DUP2 LT PUSH2 0x30BF JUMPI PUSH2 0x30BE PUSH2 0x2FCD JUMP JUMPDEST JUMPDEST POP JUMP JUMPDEST PUSH1 0x9 DUP2 LT PUSH2 0x30D3 JUMPI PUSH2 0x30D2 PUSH2 0x2FCD JUMP JUMPDEST JUMPDEST POP JUMP JUMPDEST PUSH2 0x30DF DUP2 PUSH2 0x2E1E JUMP JUMPDEST DUP2 EQ PUSH2 0x30EA JUMPI PUSH1 0x0 DUP1 REVERT JUMPDEST POP JUMP JUMPDEST PUSH1 0x9 DUP2 LT PUSH2 0x30FA JUMPI PUSH1 0x0 DUP1 REVERT JUMPDEST POP JUMP JUMPDEST PUSH2 0x3106 DUP2 PUSH2 0x2E82 JUMP JUMPDEST DUP2 EQ PUSH2 0x3111 JUMPI PUSH1 0x0 DUP1 REVERT JUMPDEST POP JUMP INVALID LOG2 PUSH5 0x6970667358 0x22 SLT KECCAK256 DUP11 PUSH14 0x819CCE262C4C68A0AA72BBE9FD9D 0x25 SUB 0x5F 0xAC 0x4A DUP7 0xF9 0xE5 0xE PUSH20 0x580AAF5C138664736F6C63430008070033000000 "
				},
				"gasEstimates": {
					"creation": {
						"codeDepositCost": "2523600",
						"executionCost": "2725",
						"totalCost": "2526325"
					},
					"external": {
						"GetUsersByType(uint8)": "infinite",
						"Owner()": "2555",
						"PatchTrannsactions(uint256)": "infinite",
						"ReadDrug(string)": "infinite",
						"ReadParentAndSiblingsTransactions(string,string,address)": "infinite",
						"ReadRoleByUser()": "7218",
						"ReadTransactionsByDrug(string)": "infinite",
						"ReadTransactionsByPatchNo(string,string)": "infinite",
						"ReadTransactionsByUser(address)": "infinite",
						"ReadUser(address)": "infinite",
						"ReturnRemainingAmount(string,string,address)": "infinite",
						"compareStringsbyBytes(string,string)": "infinite"
					}
				},
				"methodIdentifiers": {
					"GetUsersByType(uint8)": "0f9de977",
					"Owner()": "b4a99a4e",
					"PatchTrannsactions(uint256)": "1567697c",
					"ReadDrug(string)": "cdf7e73d",
					"ReadParentAndSiblingsTransactions(string,string,address)": "31a6db4d",
					"ReadRoleByUser()": "783a7895",
					"ReadTransactionsByDrug(string)": "4b2d14aa",
					"ReadTransactionsByPatchNo(string,string)": "40d37caf",
					"ReadTransactionsByUser(address)": "99b5bbdd",
					"ReadUser(address)": "cd1720d1",
					"ReturnRemainingAmount(string,string,address)": "798d2122",
					"compareStringsbyBytes(string,string)": "e9a734ff"
				}
			},
			"storageLayout": {
				"storage": [
					{
						"astId": 32,
						"contract": "contracts/Utils.sol:Utils",
						"label": "Owner",
						"offset": 0,
						"slot": "0",
						"type": "t_address"
					},
					{
						"astId": 64,
						"contract": "contracts/Utils.sol:Utils",
						"label": "UserAddressMapping",
						"offset": 0,
						"slot": "1",
						"type": "t_mapping(t_address,t_struct(User)59_storage)"
					},
					{
						"astId": 67,
						"contract": "contracts/Utils.sol:Utils",
						"label": "UsersAddresses",
						"offset": 0,
						"slot": "2",
						"type": "t_array(t_address)dyn_storage"
					},
					{
						"astId": 241,
						"contract": "contracts/Utils.sol:Utils",
						"label": "DrugRegNoMapping",
						"offset": 0,
						"slot": "3",
						"type": "t_mapping(t_string_memory_ptr,t_struct(Drug)228_storage)"
					},
					{
						"astId": 244,
						"contract": "contracts/Utils.sol:Utils",
						"label": "DrugsRegNos",
						"offset": 0,
						"slot": "4",
						"type": "t_array(t_string_storage)dyn_storage"
					},
					{
						"astId": 276,
						"contract": "contracts/Utils.sol:Utils",
						"label": "PatchTrannsactions",
						"offset": 0,
						"slot": "5",
						"type": "t_array(t_struct(PatchTransaction)272_storage)dyn_storage"
					}
				],
				"types": {
					"t_address": {
						"encoding": "inplace",
						"label": "address",
						"numberOfBytes": "20"
					},
					"t_array(t_address)dyn_storage": {
						"base": "t_address",
						"encoding": "dynamic_array",
						"label": "address[]",
						"numberOfBytes": "32"
					},
					"t_array(t_string_storage)dyn_storage": {
						"base": "t_string_storage",
						"encoding": "dynamic_array",
						"label": "string[]",
						"numberOfBytes": "32"
					},
					"t_array(t_struct(PatchTransaction)272_storage)dyn_storage": {
						"base": "t_struct(PatchTransaction)272_storage",
						"encoding": "dynamic_array",
						"label": "struct Utils.PatchTransaction[]",
						"numberOfBytes": "32"
					},
					"t_enum(Statuses)6": {
						"encoding": "inplace",
						"label": "enum Utils.Statuses",
						"numberOfBytes": "1"
					},
					"t_enum(UserRoles)42": {
						"encoding": "inplace",
						"label": "enum Utils.UserRoles",
						"numberOfBytes": "1"
					},
					"t_mapping(t_address,t_struct(User)59_storage)": {
						"encoding": "mapping",
						"key": "t_address",
						"label": "mapping(address => struct Utils.User)",
						"numberOfBytes": "32",
						"value": "t_struct(User)59_storage"
					},
					"t_mapping(t_string_memory_ptr,t_struct(Drug)228_storage)": {
						"encoding": "mapping",
						"key": "t_string_memory_ptr",
						"label": "mapping(string => struct Utils.Drug)",
						"numberOfBytes": "32",
						"value": "t_struct(Drug)228_storage"
					},
					"t_string_memory_ptr": {
						"encoding": "bytes",
						"label": "string",
						"numberOfBytes": "32"
					},
					"t_string_storage": {
						"encoding": "bytes",
						"label": "string",
						"numberOfBytes": "32"
					},
					"t_struct(Drug)228_storage": {
						"encoding": "inplace",
						"label": "struct Utils.Drug",
						"members": [
							{
								"astId": 222,
								"contract": "contracts/Utils.sol:Utils",
								"label": "DrugName",
								"offset": 0,
								"slot": "0",
								"type": "t_string_storage"
							},
							{
								"astId": 224,
								"contract": "contracts/Utils.sol:Utils",
								"label": "Manufacturer",
								"offset": 0,
								"slot": "1",
								"type": "t_address"
							},
							{
								"astId": 227,
								"contract": "contracts/Utils.sol:Utils",
								"label": "DrugStatus",
								"offset": 20,
								"slot": "1",
								"type": "t_enum(Statuses)6"
							}
						],
						"numberOfBytes": "64"
					},
					"t_struct(PatchTransaction)272_storage": {
						"encoding": "inplace",
						"label": "struct Utils.PatchTransaction",
						"members": [
							{
								"astId": 259,
								"contract": "contracts/Utils.sol:Utils",
								"label": "DrugRegNo",
								"offset": 0,
								"slot": "0",
								"type": "t_string_storage"
							},
							{
								"astId": 261,
								"contract": "contracts/Utils.sol:Utils",
								"label": "PatchNo",
								"offset": 0,
								"slot": "1",
								"type": "t_string_storage"
							},
							{
								"astId": 263,
								"contract": "contracts/Utils.sol:Utils",
								"label": "LineNo",
								"offset": 0,
								"slot": "2",
								"type": "t_uint256"
							},
							{
								"astId": 265,
								"contract": "contracts/Utils.sol:Utils",
								"label": "FromID",
								"offset": 0,
								"slot": "3",
								"type": "t_address"
							},
							{
								"astId": 267,
								"contract": "contracts/Utils.sol:Utils",
								"label": "ToID",
								"offset": 0,
								"slot": "4",
								"type": "t_address"
							},
							{
								"astId": 269,
								"contract": "contracts/Utils.sol:Utils",
								"label": "Amount",
								"offset": 0,
								"slot": "5",
								"type": "t_uint256"
							},
							{
								"astId": 271,
								"contract": "contracts/Utils.sol:Utils",
								"label": "TransactionDate",
								"offset": 0,
								"slot": "6",
								"type": "t_uint256"
							}
						],
						"numberOfBytes": "224"
					},
					"t_struct(User)59_storage": {
						"encoding": "inplace",
						"label": "struct Utils.User",
						"members": [
							{
								"astId": 44,
								"contract": "contracts/Utils.sol:Utils",
								"label": "UserID",
								"offset": 0,
								"slot": "0",
								"type": "t_string_storage"
							},
							{
								"astId": 46,
								"contract": "contracts/Utils.sol:Utils",
								"label": "UserName",
								"offset": 0,
								"slot": "1",
								"type": "t_string_storage"
							},
							{
								"astId": 49,
								"contract": "contracts/Utils.sol:Utils",
								"label": "UserRole",
								"offset": 0,
								"slot": "2",
								"type": "t_enum(UserRoles)42"
							},
							{
								"astId": 52,
								"contract": "contracts/Utils.sol:Utils",
								"label": "UserStatus",
								"offset": 1,
								"slot": "2",
								"type": "t_enum(Statuses)6"
							},
							{
								"astId": 54,
								"contract": "contracts/Utils.sol:Utils",
								"label": "Latitude",
								"offset": 0,
								"slot": "3",
								"type": "t_uint256"
							},
							{
								"astId": 56,
								"contract": "contracts/Utils.sol:Utils",
								"label": "Longitude",
								"offset": 0,
								"slot": "4",
								"type": "t_uint256"
							},
							{
								"astId": 58,
								"contract": "contracts/Utils.sol:Utils",
								"label": "UserAddress",
								"offset": 0,
								"slot": "5",
								"type": "t_address"
							}
						],
						"numberOfBytes": "192"
					},
					"t_uint256": {
						"encoding": "inplace",
						"label": "uint256",
						"numberOfBytes": "32"
					}
				}
			},
			"userdoc": {
				"kind": "user",
				"methods": {},
				"version": 1
			}
		}
	}
}