{
	"contracts/Transaction.sol": {
		"Transactions": {
			"abi": [
				{
					"inputs": [],
					"stateMutability": "nonpayable",
					"type": "constructor"
				},
				{
					"inputs": [
						{
							"internalType": "uint256",
							"name": "_patchno",
							"type": "uint256"
						},
						{
							"internalType": "uint256",
							"name": "_currentowner",
							"type": "uint256"
						},
						{
							"internalType": "uint256",
							"name": "_fromowner",
							"type": "uint256"
						},
						{
							"internalType": "uint256",
							"name": "_transamount",
							"type": "uint256"
						},
						{
							"internalType": "uint256",
							"name": "_transdate",
							"type": "uint256"
						}
					],
					"name": "addPatch",
					"outputs": [],
					"stateMutability": "nonpayable",
					"type": "function"
				},
				{
					"inputs": [
						{
							"internalType": "uint256",
							"name": "",
							"type": "uint256"
						}
					],
					"name": "transactions",
					"outputs": [
						{
							"internalType": "uint256",
							"name": "TransactionID",
							"type": "uint256"
						},
						{
							"internalType": "uint256",
							"name": "PatchNo",
							"type": "uint256"
						},
						{
							"internalType": "uint256",
							"name": "CurrentOwner",
							"type": "uint256"
						},
						{
							"internalType": "uint256",
							"name": "FromOwner",
							"type": "uint256"
						},
						{
							"internalType": "uint256",
							"name": "TransferedAmount",
							"type": "uint256"
						},
						{
							"internalType": "uint256",
							"name": "TransactionDate",
							"type": "uint256"
						}
					],
					"stateMutability": "view",
					"type": "function"
				},
				{
					"inputs": [],
					"name": "transactionsCount",
					"outputs": [
						{
							"internalType": "uint256",
							"name": "",
							"type": "uint256"
						}
					],
					"stateMutability": "view",
					"type": "function"
				}
			],
			"devdoc": {
				"kind": "dev",
				"methods": {},
				"version": 1
			},
			"evm": {
				"assembly": "    /* \"contracts/Transaction.sol\":62:778  contract Transactions{\r... */\n  mstore(0x40, 0x80)\n    /* \"contracts/Transaction.sol\":434:489  constructor()  {\r... */\n  callvalue\n  dup1\n  iszero\n  tag_1\n  jumpi\n  0x00\n  dup1\n  revert\ntag_1:\n  pop\n    /* \"contracts/Transaction.sol\":480:481  0 */\n  0x00\n    /* \"contracts/Transaction.sol\":460:477  transactionsCount */\n  0x01\n    /* \"contracts/Transaction.sol\":460:481  transactionsCount = 0 */\n  dup2\n  swap1\n  sstore\n  pop\n    /* \"contracts/Transaction.sol\":62:778  contract Transactions{\r... */\n  dataSize(sub_0)\n  dup1\n  dataOffset(sub_0)\n  0x00\n  codecopy\n  0x00\n  return\nstop\n\nsub_0: assembly {\n        /* \"contracts/Transaction.sol\":62:778  contract Transactions{\r... */\n      mstore(0x40, 0x80)\n      callvalue\n      dup1\n      iszero\n      tag_1\n      jumpi\n      0x00\n      dup1\n      revert\n    tag_1:\n      pop\n      jumpi(tag_2, lt(calldatasize, 0x04))\n      shr(0xe0, calldataload(0x00))\n      dup1\n      0x6c59a29d\n      eq\n      tag_3\n      jumpi\n      dup1\n      0x9ace38c2\n      eq\n      tag_4\n      jumpi\n      dup1\n      0xfd99a746\n      eq\n      tag_5\n      jumpi\n    tag_2:\n      0x00\n      dup1\n      revert\n        /* \"contracts/Transaction.sol\":497:775  function addPatch(uint _patchno, uint _currentowner, uint _fromowner, uint _transamount, uint _transdate) public {\r... */\n    tag_3:\n      tag_6\n      0x04\n      dup1\n      calldatasize\n      sub\n      dup2\n      add\n      swap1\n      tag_7\n      swap2\n      swap1\n      tag_8\n      jump\t// in\n    tag_7:\n      tag_9\n      jump\t// in\n    tag_6:\n      stop\n        /* \"contracts/Transaction.sol\":292:341  mapping (uint => Transaction) public transactions */\n    tag_4:\n      tag_10\n      0x04\n      dup1\n      calldatasize\n      sub\n      dup2\n      add\n      swap1\n      tag_11\n      swap2\n      swap1\n      tag_12\n      jump\t// in\n    tag_11:\n      tag_13\n      jump\t// in\n    tag_10:\n      mload(0x40)\n      tag_14\n      swap7\n      swap6\n      swap5\n      swap4\n      swap3\n      swap2\n      swap1\n      tag_15\n      jump\t// in\n    tag_14:\n      mload(0x40)\n      dup1\n      swap2\n      sub\n      swap1\n      return\n        /* \"contracts/Transaction.sol\":398:427  uint public transactionsCount */\n    tag_5:\n      tag_16\n      tag_17\n      jump\t// in\n    tag_16:\n      mload(0x40)\n      tag_18\n      swap2\n      swap1\n      tag_19\n      jump\t// in\n    tag_18:\n      mload(0x40)\n      dup1\n      swap2\n      sub\n      swap1\n      return\n        /* \"contracts/Transaction.sol\":497:775  function addPatch(uint _patchno, uint _currentowner, uint _fromowner, uint _transamount, uint _transdate) public {\r... */\n    tag_9:\n        /* \"contracts/Transaction.sol\":651:743  Transaction(transactionsCount,_patchno, _currentowner, _fromowner, _transamount, _transdate) */\n      mload(0x40)\n      dup1\n      0xc0\n      add\n      0x40\n      mstore\n      dup1\n        /* \"contracts/Transaction.sol\":663:680  transactionsCount */\n      sload(0x01)\n        /* \"contracts/Transaction.sol\":651:743  Transaction(transactionsCount,_patchno, _currentowner, _fromowner, _transamount, _transdate) */\n      dup2\n      mstore\n      0x20\n      add\n        /* \"contracts/Transaction.sol\":681:689  _patchno */\n      dup7\n        /* \"contracts/Transaction.sol\":651:743  Transaction(transactionsCount,_patchno, _currentowner, _fromowner, _transamount, _transdate) */\n      dup2\n      mstore\n      0x20\n      add\n        /* \"contracts/Transaction.sol\":691:704  _currentowner */\n      dup6\n        /* \"contracts/Transaction.sol\":651:743  Transaction(transactionsCount,_patchno, _currentowner, _fromowner, _transamount, _transdate) */\n      dup2\n      mstore\n      0x20\n      add\n        /* \"contracts/Transaction.sol\":706:716  _fromowner */\n      dup5\n        /* \"contracts/Transaction.sol\":651:743  Transaction(transactionsCount,_patchno, _currentowner, _fromowner, _transamount, _transdate) */\n      dup2\n      mstore\n      0x20\n      add\n        /* \"contracts/Transaction.sol\":718:730  _transamount */\n      dup4\n        /* \"contracts/Transaction.sol\":651:743  Transaction(transactionsCount,_patchno, _currentowner, _fromowner, _transamount, _transdate) */\n      dup2\n      mstore\n      0x20\n      add\n        /* \"contracts/Transaction.sol\":732:742  _transdate */\n      dup3\n        /* \"contracts/Transaction.sol\":651:743  Transaction(transactionsCount,_patchno, _currentowner, _fromowner, _transamount, _transdate) */\n      dup2\n      mstore\n      pop\n        /* \"contracts/Transaction.sol\":617:629  transactions */\n      0x00\n        /* \"contracts/Transaction.sol\":617:648  transactions[transactionsCount] */\n      dup1\n        /* \"contracts/Transaction.sol\":630:647  transactionsCount */\n      sload(0x01)\n        /* \"contracts/Transaction.sol\":617:648  transactions[transactionsCount] */\n      dup2\n      mstore\n      0x20\n      add\n      swap1\n      dup2\n      mstore\n      0x20\n      add\n      0x00\n      keccak256\n        /* \"contracts/Transaction.sol\":617:743  transactions[transactionsCount] = Transaction(transactionsCount,_patchno, _currentowner, _fromowner, _transamount, _transdate) */\n      0x00\n      dup3\n      add\n      mload\n      dup2\n      0x00\n      add\n      sstore\n      0x20\n      dup3\n      add\n      mload\n      dup2\n      0x01\n      add\n      sstore\n      0x40\n      dup3\n      add\n      mload\n      dup2\n      0x02\n      add\n      sstore\n      0x60\n      dup3\n      add\n      mload\n      dup2\n      0x03\n      add\n      sstore\n      0x80\n      dup3\n      add\n      mload\n      dup2\n      0x04\n      add\n      sstore\n      0xa0\n      dup3\n      add\n      mload\n      dup2\n      0x05\n      add\n      sstore\n      swap1\n      pop\n      pop\n        /* \"contracts/Transaction.sol\":750:767  transactionsCount */\n      0x01\n      0x00\n        /* \"contracts/Transaction.sol\":750:769  transactionsCount++ */\n      dup2\n      sload\n      dup1\n      swap3\n      swap2\n      swap1\n      tag_21\n      swap1\n      tag_22\n      jump\t// in\n    tag_21:\n      swap2\n      swap1\n      pop\n      sstore\n      pop\n        /* \"contracts/Transaction.sol\":497:775  function addPatch(uint _patchno, uint _currentowner, uint _fromowner, uint _transamount, uint _transdate) public {\r... */\n      pop\n      pop\n      pop\n      pop\n      pop\n      jump\t// out\n        /* \"contracts/Transaction.sol\":292:341  mapping (uint => Transaction) public transactions */\n    tag_13:\n      mstore(0x20, 0x00)\n      dup1\n      0x00\n      mstore\n      keccak256(0x00, 0x40)\n      0x00\n      swap2\n      pop\n      swap1\n      pop\n      dup1\n      0x00\n      add\n      sload\n      swap1\n      dup1\n      0x01\n      add\n      sload\n      swap1\n      dup1\n      0x02\n      add\n      sload\n      swap1\n      dup1\n      0x03\n      add\n      sload\n      swap1\n      dup1\n      0x04\n      add\n      sload\n      swap1\n      dup1\n      0x05\n      add\n      sload\n      swap1\n      pop\n      dup7\n      jump\t// out\n        /* \"contracts/Transaction.sol\":398:427  uint public transactionsCount */\n    tag_17:\n      sload(0x01)\n      dup2\n      jump\t// out\n        /* \"#utility.yul\":7:146   */\n    tag_24:\n        /* \"#utility.yul\":53:58   */\n      0x00\n        /* \"#utility.yul\":91:97   */\n      dup2\n        /* \"#utility.yul\":78:98   */\n      calldataload\n        /* \"#utility.yul\":69:98   */\n      swap1\n      pop\n        /* \"#utility.yul\":107:140   */\n      tag_26\n        /* \"#utility.yul\":134:139   */\n      dup2\n        /* \"#utility.yul\":107:140   */\n      tag_27\n      jump\t// in\n    tag_26:\n        /* \"#utility.yul\":7:146   */\n      swap3\n      swap2\n      pop\n      pop\n      jump\t// out\n        /* \"#utility.yul\":152:481   */\n    tag_12:\n        /* \"#utility.yul\":211:217   */\n      0x00\n        /* \"#utility.yul\":260:262   */\n      0x20\n        /* \"#utility.yul\":248:257   */\n      dup3\n        /* \"#utility.yul\":239:246   */\n      dup5\n        /* \"#utility.yul\":235:258   */\n      sub\n        /* \"#utility.yul\":231:263   */\n      slt\n        /* \"#utility.yul\":228:347   */\n      iszero\n      tag_29\n      jumpi\n        /* \"#utility.yul\":266:345   */\n      tag_30\n      tag_31\n      jump\t// in\n    tag_30:\n        /* \"#utility.yul\":228:347   */\n    tag_29:\n        /* \"#utility.yul\":386:387   */\n      0x00\n        /* \"#utility.yul\":411:464   */\n      tag_32\n        /* \"#utility.yul\":456:463   */\n      dup5\n        /* \"#utility.yul\":447:453   */\n      dup3\n        /* \"#utility.yul\":436:445   */\n      dup6\n        /* \"#utility.yul\":432:454   */\n      add\n        /* \"#utility.yul\":411:464   */\n      tag_24\n      jump\t// in\n    tag_32:\n        /* \"#utility.yul\":401:464   */\n      swap2\n      pop\n        /* \"#utility.yul\":357:474   */\n      pop\n        /* \"#utility.yul\":152:481   */\n      swap3\n      swap2\n      pop\n      pop\n      jump\t// out\n        /* \"#utility.yul\":487:1398   */\n    tag_8:\n        /* \"#utility.yul\":582:588   */\n      0x00\n        /* \"#utility.yul\":590:596   */\n      dup1\n        /* \"#utility.yul\":598:604   */\n      0x00\n        /* \"#utility.yul\":606:612   */\n      dup1\n        /* \"#utility.yul\":614:620   */\n      0x00\n        /* \"#utility.yul\":663:666   */\n      0xa0\n        /* \"#utility.yul\":651:660   */\n      dup7\n        /* \"#utility.yul\":642:649   */\n      dup9\n        /* \"#utility.yul\":638:661   */\n      sub\n        /* \"#utility.yul\":634:667   */\n      slt\n        /* \"#utility.yul\":631:751   */\n      iszero\n      tag_34\n      jumpi\n        /* \"#utility.yul\":670:749   */\n      tag_35\n      tag_31\n      jump\t// in\n    tag_35:\n        /* \"#utility.yul\":631:751   */\n    tag_34:\n        /* \"#utility.yul\":790:791   */\n      0x00\n        /* \"#utility.yul\":815:868   */\n      tag_36\n        /* \"#utility.yul\":860:867   */\n      dup9\n        /* \"#utility.yul\":851:857   */\n      dup3\n        /* \"#utility.yul\":840:849   */\n      dup10\n        /* \"#utility.yul\":836:858   */\n      add\n        /* \"#utility.yul\":815:868   */\n      tag_24\n      jump\t// in\n    tag_36:\n        /* \"#utility.yul\":805:868   */\n      swap6\n      pop\n        /* \"#utility.yul\":761:878   */\n      pop\n        /* \"#utility.yul\":917:919   */\n      0x20\n        /* \"#utility.yul\":943:996   */\n      tag_37\n        /* \"#utility.yul\":988:995   */\n      dup9\n        /* \"#utility.yul\":979:985   */\n      dup3\n        /* \"#utility.yul\":968:977   */\n      dup10\n        /* \"#utility.yul\":964:986   */\n      add\n        /* \"#utility.yul\":943:996   */\n      tag_24\n      jump\t// in\n    tag_37:\n        /* \"#utility.yul\":933:996   */\n      swap5\n      pop\n        /* \"#utility.yul\":888:1006   */\n      pop\n        /* \"#utility.yul\":1045:1047   */\n      0x40\n        /* \"#utility.yul\":1071:1124   */\n      tag_38\n        /* \"#utility.yul\":1116:1123   */\n      dup9\n        /* \"#utility.yul\":1107:1113   */\n      dup3\n        /* \"#utility.yul\":1096:1105   */\n      dup10\n        /* \"#utility.yul\":1092:1114   */\n      add\n        /* \"#utility.yul\":1071:1124   */\n      tag_24\n      jump\t// in\n    tag_38:\n        /* \"#utility.yul\":1061:1124   */\n      swap4\n      pop\n        /* \"#utility.yul\":1016:1134   */\n      pop\n        /* \"#utility.yul\":1173:1175   */\n      0x60\n        /* \"#utility.yul\":1199:1252   */\n      tag_39\n        /* \"#utility.yul\":1244:1251   */\n      dup9\n        /* \"#utility.yul\":1235:1241   */\n      dup3\n        /* \"#utility.yul\":1224:1233   */\n      dup10\n        /* \"#utility.yul\":1220:1242   */\n      add\n        /* \"#utility.yul\":1199:1252   */\n      tag_24\n      jump\t// in\n    tag_39:\n        /* \"#utility.yul\":1189:1252   */\n      swap3\n      pop\n        /* \"#utility.yul\":1144:1262   */\n      pop\n        /* \"#utility.yul\":1301:1304   */\n      0x80\n        /* \"#utility.yul\":1328:1381   */\n      tag_40\n        /* \"#utility.yul\":1373:1380   */\n      dup9\n        /* \"#utility.yul\":1364:1370   */\n      dup3\n        /* \"#utility.yul\":1353:1362   */\n      dup10\n        /* \"#utility.yul\":1349:1371   */\n      add\n        /* \"#utility.yul\":1328:1381   */\n      tag_24\n      jump\t// in\n    tag_40:\n        /* \"#utility.yul\":1318:1381   */\n      swap2\n      pop\n        /* \"#utility.yul\":1272:1391   */\n      pop\n        /* \"#utility.yul\":487:1398   */\n      swap3\n      swap6\n      pop\n      swap3\n      swap6\n      swap1\n      swap4\n      pop\n      jump\t// out\n        /* \"#utility.yul\":1404:1522   */\n    tag_41:\n        /* \"#utility.yul\":1491:1515   */\n      tag_43\n        /* \"#utility.yul\":1509:1514   */\n      dup2\n        /* \"#utility.yul\":1491:1515   */\n      tag_44\n      jump\t// in\n    tag_43:\n        /* \"#utility.yul\":1486:1489   */\n      dup3\n        /* \"#utility.yul\":1479:1516   */\n      mstore\n        /* \"#utility.yul\":1404:1522   */\n      pop\n      pop\n      jump\t// out\n        /* \"#utility.yul\":1528:1750   */\n    tag_19:\n        /* \"#utility.yul\":1621:1625   */\n      0x00\n        /* \"#utility.yul\":1659:1661   */\n      0x20\n        /* \"#utility.yul\":1648:1657   */\n      dup3\n        /* \"#utility.yul\":1644:1662   */\n      add\n        /* \"#utility.yul\":1636:1662   */\n      swap1\n      pop\n        /* \"#utility.yul\":1672:1743   */\n      tag_46\n        /* \"#utility.yul\":1740:1741   */\n      0x00\n        /* \"#utility.yul\":1729:1738   */\n      dup4\n        /* \"#utility.yul\":1725:1742   */\n      add\n        /* \"#utility.yul\":1716:1722   */\n      dup5\n        /* \"#utility.yul\":1672:1743   */\n      tag_41\n      jump\t// in\n    tag_46:\n        /* \"#utility.yul\":1528:1750   */\n      swap3\n      swap2\n      pop\n      pop\n      jump\t// out\n        /* \"#utility.yul\":1756:2531   */\n    tag_15:\n        /* \"#utility.yul\":1989:1993   */\n      0x00\n        /* \"#utility.yul\":2027:2030   */\n      0xc0\n        /* \"#utility.yul\":2016:2025   */\n      dup3\n        /* \"#utility.yul\":2012:2031   */\n      add\n        /* \"#utility.yul\":2004:2031   */\n      swap1\n      pop\n        /* \"#utility.yul\":2041:2112   */\n      tag_48\n        /* \"#utility.yul\":2109:2110   */\n      0x00\n        /* \"#utility.yul\":2098:2107   */\n      dup4\n        /* \"#utility.yul\":2094:2111   */\n      add\n        /* \"#utility.yul\":2085:2091   */\n      dup10\n        /* \"#utility.yul\":2041:2112   */\n      tag_41\n      jump\t// in\n    tag_48:\n        /* \"#utility.yul\":2122:2194   */\n      tag_49\n        /* \"#utility.yul\":2190:2192   */\n      0x20\n        /* \"#utility.yul\":2179:2188   */\n      dup4\n        /* \"#utility.yul\":2175:2193   */\n      add\n        /* \"#utility.yul\":2166:2172   */\n      dup9\n        /* \"#utility.yul\":2122:2194   */\n      tag_41\n      jump\t// in\n    tag_49:\n        /* \"#utility.yul\":2204:2276   */\n      tag_50\n        /* \"#utility.yul\":2272:2274   */\n      0x40\n        /* \"#utility.yul\":2261:2270   */\n      dup4\n        /* \"#utility.yul\":2257:2275   */\n      add\n        /* \"#utility.yul\":2248:2254   */\n      dup8\n        /* \"#utility.yul\":2204:2276   */\n      tag_41\n      jump\t// in\n    tag_50:\n        /* \"#utility.yul\":2286:2358   */\n      tag_51\n        /* \"#utility.yul\":2354:2356   */\n      0x60\n        /* \"#utility.yul\":2343:2352   */\n      dup4\n        /* \"#utility.yul\":2339:2357   */\n      add\n        /* \"#utility.yul\":2330:2336   */\n      dup7\n        /* \"#utility.yul\":2286:2358   */\n      tag_41\n      jump\t// in\n    tag_51:\n        /* \"#utility.yul\":2368:2441   */\n      tag_52\n        /* \"#utility.yul\":2436:2439   */\n      0x80\n        /* \"#utility.yul\":2425:2434   */\n      dup4\n        /* \"#utility.yul\":2421:2440   */\n      add\n        /* \"#utility.yul\":2412:2418   */\n      dup6\n        /* \"#utility.yul\":2368:2441   */\n      tag_41\n      jump\t// in\n    tag_52:\n        /* \"#utility.yul\":2451:2524   */\n      tag_53\n        /* \"#utility.yul\":2519:2522   */\n      0xa0\n        /* \"#utility.yul\":2508:2517   */\n      dup4\n        /* \"#utility.yul\":2504:2523   */\n      add\n        /* \"#utility.yul\":2495:2501   */\n      dup5\n        /* \"#utility.yul\":2451:2524   */\n      tag_41\n      jump\t// in\n    tag_53:\n        /* \"#utility.yul\":1756:2531   */\n      swap8\n      swap7\n      pop\n      pop\n      pop\n      pop\n      pop\n      pop\n      pop\n      jump\t// out\n        /* \"#utility.yul\":2618:2695   */\n    tag_44:\n        /* \"#utility.yul\":2655:2662   */\n      0x00\n        /* \"#utility.yul\":2684:2689   */\n      dup2\n        /* \"#utility.yul\":2673:2689   */\n      swap1\n      pop\n        /* \"#utility.yul\":2618:2695   */\n      swap2\n      swap1\n      pop\n      jump\t// out\n        /* \"#utility.yul\":2701:2934   */\n    tag_22:\n        /* \"#utility.yul\":2740:2743   */\n      0x00\n        /* \"#utility.yul\":2763:2787   */\n      tag_58\n        /* \"#utility.yul\":2781:2786   */\n      dup3\n        /* \"#utility.yul\":2763:2787   */\n      tag_44\n      jump\t// in\n    tag_58:\n        /* \"#utility.yul\":2754:2787   */\n      swap2\n      pop\n        /* \"#utility.yul\":2809:2875   */\n      0xffffffffffffffffffffffffffffffffffffffffffffffffffffffffffffffff\n        /* \"#utility.yul\":2802:2807   */\n      dup3\n        /* \"#utility.yul\":2799:2876   */\n      eq\n        /* \"#utility.yul\":2796:2899   */\n      iszero\n      tag_59\n      jumpi\n        /* \"#utility.yul\":2879:2897   */\n      tag_60\n      tag_61\n      jump\t// in\n    tag_60:\n        /* \"#utility.yul\":2796:2899   */\n    tag_59:\n        /* \"#utility.yul\":2926:2927   */\n      0x01\n        /* \"#utility.yul\":2919:2924   */\n      dup3\n        /* \"#utility.yul\":2915:2928   */\n      add\n        /* \"#utility.yul\":2908:2928   */\n      swap1\n      pop\n        /* \"#utility.yul\":2701:2934   */\n      swap2\n      swap1\n      pop\n      jump\t// out\n        /* \"#utility.yul\":2940:3120   */\n    tag_61:\n        /* \"#utility.yul\":2988:3065   */\n      0x4e487b7100000000000000000000000000000000000000000000000000000000\n        /* \"#utility.yul\":2985:2986   */\n      0x00\n        /* \"#utility.yul\":2978:3066   */\n      mstore\n        /* \"#utility.yul\":3085:3089   */\n      0x11\n        /* \"#utility.yul\":3082:3083   */\n      0x04\n        /* \"#utility.yul\":3075:3090   */\n      mstore\n        /* \"#utility.yul\":3109:3113   */\n      0x24\n        /* \"#utility.yul\":3106:3107   */\n      0x00\n        /* \"#utility.yul\":3099:3114   */\n      revert\n        /* \"#utility.yul\":3249:3366   */\n    tag_31:\n        /* \"#utility.yul\":3358:3359   */\n      0x00\n        /* \"#utility.yul\":3355:3356   */\n      dup1\n        /* \"#utility.yul\":3348:3360   */\n      revert\n        /* \"#utility.yul\":3372:3494   */\n    tag_27:\n        /* \"#utility.yul\":3445:3469   */\n      tag_67\n        /* \"#utility.yul\":3463:3468   */\n      dup2\n        /* \"#utility.yul\":3445:3469   */\n      tag_44\n      jump\t// in\n    tag_67:\n        /* \"#utility.yul\":3438:3443   */\n      dup2\n        /* \"#utility.yul\":3435:3470   */\n      eq\n        /* \"#utility.yul\":3425:3488   */\n      tag_68\n      jumpi\n        /* \"#utility.yul\":3484:3485   */\n      0x00\n        /* \"#utility.yul\":3481:3482   */\n      dup1\n        /* \"#utility.yul\":3474:3486   */\n      revert\n        /* \"#utility.yul\":3425:3488   */\n    tag_68:\n        /* \"#utility.yul\":3372:3494   */\n      pop\n      jump\t// out\n\n    auxdata: 0xa26469706673582212206e5d89d2f85bbb10d2c75d706dde9f174ad87896a613783391af7f5275a00f7064736f6c63430008070033\n}\n",
				"bytecode": {
					"linkReferences": {},
					"object": "608060405234801561001057600080fd5b5060006001819055506103b4806100286000396000f3fe608060405234801561001057600080fd5b50600436106100415760003560e01c80636c59a29d146100465780639ace38c214610062578063fd99a74614610097575b600080fd5b610060600480360381019061005b91906101da565b6100b5565b005b61007c600480360381019061007791906101ad565b610156565b60405161008e9695949392919061027f565b60405180910390f35b61009f610192565b6040516100ac9190610264565b60405180910390f35b6040518060c001604052806001548152602001868152602001858152602001848152602001838152602001828152506000806001548152602001908152602001600020600082015181600001556020820151816001015560408201518160020155606082015181600301556080820151816004015560a082015181600501559050506001600081548092919061014a906102ea565b91905055505050505050565b60006020528060005260406000206000915090508060000154908060010154908060020154908060030154908060040154908060050154905086565b60015481565b6000813590506101a781610367565b92915050565b6000602082840312156101c3576101c2610362565b5b60006101d184828501610198565b91505092915050565b600080600080600060a086880312156101f6576101f5610362565b5b600061020488828901610198565b955050602061021588828901610198565b945050604061022688828901610198565b935050606061023788828901610198565b925050608061024888828901610198565b9150509295509295909350565b61025e816102e0565b82525050565b60006020820190506102796000830184610255565b92915050565b600060c0820190506102946000830189610255565b6102a16020830188610255565b6102ae6040830187610255565b6102bb6060830186610255565b6102c86080830185610255565b6102d560a0830184610255565b979650505050505050565b6000819050919050565b60006102f5826102e0565b91507fffffffffffffffffffffffffffffffffffffffffffffffffffffffffffffffff82141561032857610327610333565b5b600182019050919050565b7f4e487b7100000000000000000000000000000000000000000000000000000000600052601160045260246000fd5b600080fd5b610370816102e0565b811461037b57600080fd5b5056fea26469706673582212206e5d89d2f85bbb10d2c75d706dde9f174ad87896a613783391af7f5275a00f7064736f6c63430008070033",
					"opcodes": "PUSH1 0x80 PUSH1 0x40 MSTORE CALLVALUE DUP1 ISZERO PUSH2 0x10 JUMPI PUSH1 0x0 DUP1 REVERT JUMPDEST POP PUSH1 0x0 PUSH1 0x1 DUP2 SWAP1 SSTORE POP PUSH2 0x3B4 DUP1 PUSH2 0x28 PUSH1 0x0 CODECOPY PUSH1 0x0 RETURN INVALID PUSH1 0x80 PUSH1 0x40 MSTORE CALLVALUE DUP1 ISZERO PUSH2 0x10 JUMPI PUSH1 0x0 DUP1 REVERT JUMPDEST POP PUSH1 0x4 CALLDATASIZE LT PUSH2 0x41 JUMPI PUSH1 0x0 CALLDATALOAD PUSH1 0xE0 SHR DUP1 PUSH4 0x6C59A29D EQ PUSH2 0x46 JUMPI DUP1 PUSH4 0x9ACE38C2 EQ PUSH2 0x62 JUMPI DUP1 PUSH4 0xFD99A746 EQ PUSH2 0x97 JUMPI JUMPDEST PUSH1 0x0 DUP1 REVERT JUMPDEST PUSH2 0x60 PUSH1 0x4 DUP1 CALLDATASIZE SUB DUP2 ADD SWAP1 PUSH2 0x5B SWAP2 SWAP1 PUSH2 0x1DA JUMP JUMPDEST PUSH2 0xB5 JUMP JUMPDEST STOP JUMPDEST PUSH2 0x7C PUSH1 0x4 DUP1 CALLDATASIZE SUB DUP2 ADD SWAP1 PUSH2 0x77 SWAP2 SWAP1 PUSH2 0x1AD JUMP JUMPDEST PUSH2 0x156 JUMP JUMPDEST PUSH1 0x40 MLOAD PUSH2 0x8E SWAP7 SWAP6 SWAP5 SWAP4 SWAP3 SWAP2 SWAP1 PUSH2 0x27F JUMP JUMPDEST PUSH1 0x40 MLOAD DUP1 SWAP2 SUB SWAP1 RETURN JUMPDEST PUSH2 0x9F PUSH2 0x192 JUMP JUMPDEST PUSH1 0x40 MLOAD PUSH2 0xAC SWAP2 SWAP1 PUSH2 0x264 JUMP JUMPDEST PUSH1 0x40 MLOAD DUP1 SWAP2 SUB SWAP1 RETURN JUMPDEST PUSH1 0x40 MLOAD DUP1 PUSH1 0xC0 ADD PUSH1 0x40 MSTORE DUP1 PUSH1 0x1 SLOAD DUP2 MSTORE PUSH1 0x20 ADD DUP7 DUP2 MSTORE PUSH1 0x20 ADD DUP6 DUP2 MSTORE PUSH1 0x20 ADD DUP5 DUP2 MSTORE PUSH1 0x20 ADD DUP4 DUP2 MSTORE PUSH1 0x20 ADD DUP3 DUP2 MSTORE POP PUSH1 0x0 DUP1 PUSH1 0x1 SLOAD DUP2 MSTORE PUSH1 0x20 ADD SWAP1 DUP2 MSTORE PUSH1 0x20 ADD PUSH1 0x0 KECCAK256 PUSH1 0x0 DUP3 ADD MLOAD DUP2 PUSH1 0x0 ADD SSTORE PUSH1 0x20 DUP3 ADD MLOAD DUP2 PUSH1 0x1 ADD SSTORE PUSH1 0x40 DUP3 ADD MLOAD DUP2 PUSH1 0x2 ADD SSTORE PUSH1 0x60 DUP3 ADD MLOAD DUP2 PUSH1 0x3 ADD SSTORE PUSH1 0x80 DUP3 ADD MLOAD DUP2 PUSH1 0x4 ADD SSTORE PUSH1 0xA0 DUP3 ADD MLOAD DUP2 PUSH1 0x5 ADD SSTORE SWAP1 POP POP PUSH1 0x1 PUSH1 0x0 DUP2 SLOAD DUP1 SWAP3 SWAP2 SWAP1 PUSH2 0x14A SWAP1 PUSH2 0x2EA JUMP JUMPDEST SWAP2 SWAP1 POP SSTORE POP POP POP POP POP POP JUMP JUMPDEST PUSH1 0x0 PUSH1 0x20 MSTORE DUP1 PUSH1 0x0 MSTORE PUSH1 0x40 PUSH1 0x0 KECCAK256 PUSH1 0x0 SWAP2 POP SWAP1 POP DUP1 PUSH1 0x0 ADD SLOAD SWAP1 DUP1 PUSH1 0x1 ADD SLOAD SWAP1 DUP1 PUSH1 0x2 ADD SLOAD SWAP1 DUP1 PUSH1 0x3 ADD SLOAD SWAP1 DUP1 PUSH1 0x4 ADD SLOAD SWAP1 DUP1 PUSH1 0x5 ADD SLOAD SWAP1 POP DUP7 JUMP JUMPDEST PUSH1 0x1 SLOAD DUP2 JUMP JUMPDEST PUSH1 0x0 DUP2 CALLDATALOAD SWAP1 POP PUSH2 0x1A7 DUP2 PUSH2 0x367 JUMP JUMPDEST SWAP3 SWAP2 POP POP JUMP JUMPDEST PUSH1 0x0 PUSH1 0x20 DUP3 DUP5 SUB SLT ISZERO PUSH2 0x1C3 JUMPI PUSH2 0x1C2 PUSH2 0x362 JUMP JUMPDEST JUMPDEST PUSH1 0x0 PUSH2 0x1D1 DUP5 DUP3 DUP6 ADD PUSH2 0x198 JUMP JUMPDEST SWAP2 POP POP SWAP3 SWAP2 POP POP JUMP JUMPDEST PUSH1 0x0 DUP1 PUSH1 0x0 DUP1 PUSH1 0x0 PUSH1 0xA0 DUP7 DUP9 SUB SLT ISZERO PUSH2 0x1F6 JUMPI PUSH2 0x1F5 PUSH2 0x362 JUMP JUMPDEST JUMPDEST PUSH1 0x0 PUSH2 0x204 DUP9 DUP3 DUP10 ADD PUSH2 0x198 JUMP JUMPDEST SWAP6 POP POP PUSH1 0x20 PUSH2 0x215 DUP9 DUP3 DUP10 ADD PUSH2 0x198 JUMP JUMPDEST SWAP5 POP POP PUSH1 0x40 PUSH2 0x226 DUP9 DUP3 DUP10 ADD PUSH2 0x198 JUMP JUMPDEST SWAP4 POP POP PUSH1 0x60 PUSH2 0x237 DUP9 DUP3 DUP10 ADD PUSH2 0x198 JUMP JUMPDEST SWAP3 POP POP PUSH1 0x80 PUSH2 0x248 DUP9 DUP3 DUP10 ADD PUSH2 0x198 JUMP JUMPDEST SWAP2 POP POP SWAP3 SWAP6 POP SWAP3 SWAP6 SWAP1 SWAP4 POP JUMP JUMPDEST PUSH2 0x25E DUP2 PUSH2 0x2E0 JUMP JUMPDEST DUP3 MSTORE POP POP JUMP JUMPDEST PUSH1 0x0 PUSH1 0x20 DUP3 ADD SWAP1 POP PUSH2 0x279 PUSH1 0x0 DUP4 ADD DUP5 PUSH2 0x255 JUMP JUMPDEST SWAP3 SWAP2 POP POP JUMP JUMPDEST PUSH1 0x0 PUSH1 0xC0 DUP3 ADD SWAP1 POP PUSH2 0x294 PUSH1 0x0 DUP4 ADD DUP10 PUSH2 0x255 JUMP JUMPDEST PUSH2 0x2A1 PUSH1 0x20 DUP4 ADD DUP9 PUSH2 0x255 JUMP JUMPDEST PUSH2 0x2AE PUSH1 0x40 DUP4 ADD DUP8 PUSH2 0x255 JUMP JUMPDEST PUSH2 0x2BB PUSH1 0x60 DUP4 ADD DUP7 PUSH2 0x255 JUMP JUMPDEST PUSH2 0x2C8 PUSH1 0x80 DUP4 ADD DUP6 PUSH2 0x255 JUMP JUMPDEST PUSH2 0x2D5 PUSH1 0xA0 DUP4 ADD DUP5 PUSH2 0x255 JUMP JUMPDEST SWAP8 SWAP7 POP POP POP POP POP POP POP JUMP JUMPDEST PUSH1 0x0 DUP2 SWAP1 POP SWAP2 SWAP1 POP JUMP JUMPDEST PUSH1 0x0 PUSH2 0x2F5 DUP3 PUSH2 0x2E0 JUMP JUMPDEST SWAP2 POP PUSH32 0xFFFFFFFFFFFFFFFFFFFFFFFFFFFFFFFFFFFFFFFFFFFFFFFFFFFFFFFFFFFFFFFF DUP3 EQ ISZERO PUSH2 0x328 JUMPI PUSH2 0x327 PUSH2 0x333 JUMP JUMPDEST JUMPDEST PUSH1 0x1 DUP3 ADD SWAP1 POP SWAP2 SWAP1 POP JUMP JUMPDEST PUSH32 0x4E487B7100000000000000000000000000000000000000000000000000000000 PUSH1 0x0 MSTORE PUSH1 0x11 PUSH1 0x4 MSTORE PUSH1 0x24 PUSH1 0x0 REVERT JUMPDEST PUSH1 0x0 DUP1 REVERT JUMPDEST PUSH2 0x370 DUP2 PUSH2 0x2E0 JUMP JUMPDEST DUP2 EQ PUSH2 0x37B JUMPI PUSH1 0x0 DUP1 REVERT JUMPDEST POP JUMP INVALID LOG2 PUSH5 0x6970667358 0x22 SLT KECCAK256 PUSH15 0x5D89D2F85BBB10D2C75D706DDE9F17 0x4A 0xD8 PUSH25 0x96A613783391AF7F5275A00F7064736F6C6343000807003300 "
				},
				"gasEstimates": {
					"creation": {
						"codeDepositCost": "189600",
						"executionCost": "5246",
						"totalCost": "194846"
					},
					"external": {
						"addPatch(uint256,uint256,uint256,uint256,uint256)": "infinite",
						"transactions(uint256)": "infinite",
						"transactionsCount()": "2451"
					}
				},
				"methodIdentifiers": {
					"addPatch(uint256,uint256,uint256,uint256,uint256)": "6c59a29d",
					"transactions(uint256)": "9ace38c2",
					"transactionsCount()": "fd99a746"
				}
			},
			"storageLayout": {
				"storage": [
					{
						"astId": 19,
						"contract": "contracts/Transaction.sol:Transactions",
						"label": "transactions",
						"offset": 0,
						"slot": "0",
						"type": "t_mapping(t_uint256,t_struct(Transaction)14_storage)"
					},
					{
						"astId": 21,
						"contract": "contracts/Transaction.sol:Transactions",
						"label": "transactionsCount",
						"offset": 0,
						"slot": "1",
						"type": "t_uint256"
					}
				],
				"types": {
					"t_mapping(t_uint256,t_struct(Transaction)14_storage)": {
						"encoding": "mapping",
						"key": "t_uint256",
						"label": "mapping(uint256 => struct Transactions.Transaction)",
						"numberOfBytes": "32",
						"value": "t_struct(Transaction)14_storage"
					},
					"t_struct(Transaction)14_storage": {
						"encoding": "inplace",
						"label": "struct Transactions.Transaction",
						"members": [
							{
								"astId": 3,
								"contract": "contracts/Transaction.sol:Transactions",
								"label": "TransactionID",
								"offset": 0,
								"slot": "0",
								"type": "t_uint256"
							},
							{
								"astId": 5,
								"contract": "contracts/Transaction.sol:Transactions",
								"label": "PatchNo",
								"offset": 0,
								"slot": "1",
								"type": "t_uint256"
							},
							{
								"astId": 7,
								"contract": "contracts/Transaction.sol:Transactions",
								"label": "CurrentOwner",
								"offset": 0,
								"slot": "2",
								"type": "t_uint256"
							},
							{
								"astId": 9,
								"contract": "contracts/Transaction.sol:Transactions",
								"label": "FromOwner",
								"offset": 0,
								"slot": "3",
								"type": "t_uint256"
							},
							{
								"astId": 11,
								"contract": "contracts/Transaction.sol:Transactions",
								"label": "TransferedAmount",
								"offset": 0,
								"slot": "4",
								"type": "t_uint256"
							},
							{
								"astId": 13,
								"contract": "contracts/Transaction.sol:Transactions",
								"label": "TransactionDate",
								"offset": 0,
								"slot": "5",
								"type": "t_uint256"
							}
						],
						"numberOfBytes": "192"
					},
					"t_uint256": {
						"encoding": "inplace",
						"label": "uint256",
						"numberOfBytes": "32"
					}
				}
			},
			"userdoc": {
				"kind": "user",
				"methods": {},
				"version": 1
			}
		}
	}
}