{
	"contracts/Drugs.sol": {
		"Drugs": {
			"abi": [
				{
					"inputs": [],
					"stateMutability": "nonpayable",
					"type": "constructor"
				},
				{
					"inputs": [
						{
							"internalType": "address",
							"name": "_manufacturer",
							"type": "address"
						}
					],
					"name": "addDrug",
					"outputs": [],
					"stateMutability": "nonpayable",
					"type": "function"
				},
				{
					"inputs": [
						{
							"internalType": "uint256",
							"name": "",
							"type": "uint256"
						}
					],
					"name": "drugs",
					"outputs": [
						{
							"internalType": "uint256",
							"name": "DrugID",
							"type": "uint256"
						},
						{
							"internalType": "address",
							"name": "Manufacturer",
							"type": "address"
						},
						{
							"internalType": "bool",
							"name": "IsActive",
							"type": "bool"
						}
					],
					"stateMutability": "view",
					"type": "function"
				},
				{
					"inputs": [],
					"name": "drugsCount",
					"outputs": [
						{
							"internalType": "uint256",
							"name": "",
							"type": "uint256"
						}
					],
					"stateMutability": "view",
					"type": "function"
				},
				{
					"inputs": [
						{
							"internalType": "uint256",
							"name": "_drugid",
							"type": "uint256"
						}
					],
					"name": "get",
					"outputs": [
						{
							"components": [
								{
									"internalType": "uint256",
									"name": "DrugID",
									"type": "uint256"
								},
								{
									"internalType": "address",
									"name": "Manufacturer",
									"type": "address"
								},
								{
									"internalType": "bool",
									"name": "IsActive",
									"type": "bool"
								}
							],
							"internalType": "struct Drugs.Drug",
							"name": "",
							"type": "tuple"
						}
					],
					"stateMutability": "view",
					"type": "function"
				},
				{
					"inputs": [],
					"name": "getDrug",
					"outputs": [
						{
							"internalType": "uint256[]",
							"name": "",
							"type": "uint256[]"
						},
						{
							"internalType": "address[]",
							"name": "",
							"type": "address[]"
						}
					],
					"stateMutability": "view",
					"type": "function"
				},
				{
					"inputs": [],
					"name": "getDrugs",
					"outputs": [
						{
							"components": [
								{
									"internalType": "uint256",
									"name": "DrugID",
									"type": "uint256"
								},
								{
									"internalType": "address",
									"name": "Manufacturer",
									"type": "address"
								},
								{
									"internalType": "bool",
									"name": "IsActive",
									"type": "bool"
								}
							],
							"internalType": "struct Drugs.Drug[]",
							"name": "",
							"type": "tuple[]"
						}
					],
					"stateMutability": "view",
					"type": "function"
				}
			],
			"devdoc": {
				"kind": "dev",
				"methods": {},
				"version": 1
			},
			"evm": {
				"assembly": "    /* \"contracts/Drugs.sol\":97:1479  contract Drugs {\r... */\n  mstore(0x40, 0x80)\n    /* \"contracts/Drugs.sol\":342:390  constructor()  {\r... */\n  callvalue\n  dup1\n  iszero\n  tag_1\n  jumpi\n  0x00\n  dup1\n  revert\ntag_1:\n  pop\n    /* \"contracts/Drugs.sol\":381:382  0 */\n  0x00\n    /* \"contracts/Drugs.sol\":368:378  drugsCount */\n  0x01\n    /* \"contracts/Drugs.sol\":368:382  drugsCount = 0 */\n  dup2\n  swap1\n  sstore\n  pop\n    /* \"contracts/Drugs.sol\":97:1479  contract Drugs {\r... */\n  dataSize(sub_0)\n  dup1\n  dataOffset(sub_0)\n  0x00\n  codecopy\n  0x00\n  return\nstop\n\nsub_0: assembly {\n        /* \"contracts/Drugs.sol\":97:1479  contract Drugs {\r... */\n      mstore(0x40, 0x80)\n      callvalue\n      dup1\n      iszero\n      tag_1\n      jumpi\n      0x00\n      dup1\n      revert\n    tag_1:\n      pop\n      jumpi(tag_2, lt(calldatasize, 0x04))\n      shr(0xe0, calldataload(0x00))\n      dup1\n      0x193de85d\n      eq\n      tag_3\n      jumpi\n      dup1\n      0x5fb07a62\n      eq\n      tag_4\n      jumpi\n      dup1\n      0x92812e6f\n      eq\n      tag_5\n      jumpi\n      dup1\n      0x9507d39a\n      eq\n      tag_6\n      jumpi\n      dup1\n      0xf2a50281\n      eq\n      tag_7\n      jumpi\n      dup1\n      0xfca5e61e\n      eq\n      tag_8\n      jumpi\n    tag_2:\n      0x00\n      dup1\n      revert\n        /* \"contracts/Drugs.sol\":396:541  function addDrug(address _manufacturer) public {\r... */\n    tag_3:\n      tag_9\n      0x04\n      dup1\n      calldatasize\n      sub\n      dup2\n      add\n      swap1\n      tag_10\n      swap2\n      swap1\n      tag_11\n      jump\t// in\n    tag_10:\n      tag_12\n      jump\t// in\n    tag_9:\n      stop\n        /* \"contracts/Drugs.sol\":1206:1474  function getDrugs() public view returns (Drug[] memory){\r... */\n    tag_4:\n      tag_13\n      tag_14\n      jump\t// in\n    tag_13:\n      mload(0x40)\n      tag_15\n      swap2\n      swap1\n      tag_16\n      jump\t// in\n    tag_15:\n      mload(0x40)\n      dup1\n      swap2\n      sub\n      swap1\n      return\n        /* \"contracts/Drugs.sol\":313:335  uint public drugsCount */\n    tag_5:\n      tag_17\n      tag_18\n      jump\t// in\n    tag_17:\n      mload(0x40)\n      tag_19\n      swap2\n      swap1\n      tag_20\n      jump\t// in\n    tag_19:\n      mload(0x40)\n      dup1\n      swap2\n      sub\n      swap1\n      return\n        /* \"contracts/Drugs.sol\":578:678  function get(uint _drugid) public view returns(Drug memory) {\r... */\n    tag_6:\n      tag_21\n      0x04\n      dup1\n      calldatasize\n      sub\n      dup2\n      add\n      swap1\n      tag_22\n      swap2\n      swap1\n      tag_23\n      jump\t// in\n    tag_22:\n      tag_24\n      jump\t// in\n    tag_21:\n      mload(0x40)\n      tag_25\n      swap2\n      swap1\n      tag_26\n      jump\t// in\n    tag_25:\n      mload(0x40)\n      dup1\n      swap2\n      sub\n      swap1\n      return\n        /* \"contracts/Drugs.sol\":723:1167  function getDrug() public view returns (uint[] memory, address[] memory){\r... */\n    tag_7:\n      tag_27\n      tag_28\n      jump\t// in\n    tag_27:\n      mload(0x40)\n      tag_29\n      swap3\n      swap2\n      swap1\n      tag_30\n      jump\t// in\n    tag_29:\n      mload(0x40)\n      dup1\n      swap2\n      sub\n      swap1\n      return\n        /* \"contracts/Drugs.sol\":221:256  mapping (uint => Drug) public drugs */\n    tag_8:\n      tag_31\n      0x04\n      dup1\n      calldatasize\n      sub\n      dup2\n      add\n      swap1\n      tag_32\n      swap2\n      swap1\n      tag_23\n      jump\t// in\n    tag_32:\n      tag_33\n      jump\t// in\n    tag_31:\n      mload(0x40)\n      tag_34\n      swap4\n      swap3\n      swap2\n      swap1\n      tag_35\n      jump\t// in\n    tag_34:\n      mload(0x40)\n      dup1\n      swap2\n      sub\n      swap1\n      return\n        /* \"contracts/Drugs.sol\":396:541  function addDrug(address _manufacturer) public {\r... */\n    tag_12:\n        /* \"contracts/Drugs.sol\":474:510  Drug(drugsCount,_manufacturer, true) */\n      mload(0x40)\n      dup1\n      0x60\n      add\n      0x40\n      mstore\n      dup1\n        /* \"contracts/Drugs.sol\":479:489  drugsCount */\n      sload(0x01)\n        /* \"contracts/Drugs.sol\":474:510  Drug(drugsCount,_manufacturer, true) */\n      dup2\n      mstore\n      0x20\n      add\n        /* \"contracts/Drugs.sol\":490:503  _manufacturer */\n      dup3\n        /* \"contracts/Drugs.sol\":474:510  Drug(drugsCount,_manufacturer, true) */\n      0xffffffffffffffffffffffffffffffffffffffff\n      and\n      dup2\n      mstore\n      0x20\n      add\n        /* \"contracts/Drugs.sol\":505:509  true */\n      0x01\n        /* \"contracts/Drugs.sol\":474:510  Drug(drugsCount,_manufacturer, true) */\n      iszero\n      iszero\n      dup2\n      mstore\n      pop\n        /* \"contracts/Drugs.sol\":454:459  drugs */\n      0x00\n        /* \"contracts/Drugs.sol\":454:471  drugs[drugsCount] */\n      dup1\n        /* \"contracts/Drugs.sol\":460:470  drugsCount */\n      sload(0x01)\n        /* \"contracts/Drugs.sol\":454:471  drugs[drugsCount] */\n      dup2\n      mstore\n      0x20\n      add\n      swap1\n      dup2\n      mstore\n      0x20\n      add\n      0x00\n      keccak256\n        /* \"contracts/Drugs.sol\":454:510  drugs[drugsCount] = Drug(drugsCount,_manufacturer, true) */\n      0x00\n      dup3\n      add\n      mload\n      dup2\n      0x00\n      add\n      sstore\n      0x20\n      dup3\n      add\n      mload\n      dup2\n      0x01\n      add\n      exp(0x0100, 0x00)\n      dup2\n      sload\n      dup2\n      0xffffffffffffffffffffffffffffffffffffffff\n      mul\n      not\n      and\n      swap1\n      dup4\n      0xffffffffffffffffffffffffffffffffffffffff\n      and\n      mul\n      or\n      swap1\n      sstore\n      pop\n      0x40\n      dup3\n      add\n      mload\n      dup2\n      0x01\n      add\n      exp(0x0100, 0x14)\n      dup2\n      sload\n      dup2\n      0xff\n      mul\n      not\n      and\n      swap1\n      dup4\n      iszero\n      iszero\n      mul\n      or\n      swap1\n      sstore\n      pop\n      swap1\n      pop\n      pop\n        /* \"contracts/Drugs.sol\":521:531  drugsCount */\n      0x01\n      0x00\n        /* \"contracts/Drugs.sol\":521:533  drugsCount++ */\n      dup2\n      sload\n      dup1\n      swap3\n      swap2\n      swap1\n      tag_37\n      swap1\n      tag_38\n      jump\t// in\n    tag_37:\n      swap2\n      swap1\n      pop\n      sstore\n      pop\n        /* \"contracts/Drugs.sol\":396:541  function addDrug(address _manufacturer) public {\r... */\n      pop\n      jump\t// out\n        /* \"contracts/Drugs.sol\":1206:1474  function getDrugs() public view returns (Drug[] memory){\r... */\n    tag_14:\n        /* \"contracts/Drugs.sol\":1247:1260  Drug[] memory */\n      0x60\n        /* \"contracts/Drugs.sol\":1272:1291  Drug[]    memory id */\n      0x00\n        /* \"contracts/Drugs.sol\":1305:1315  drugsCount */\n      sload(0x01)\n        /* \"contracts/Drugs.sol\":1294:1316  new Drug[](drugsCount) */\n      0xffffffffffffffff\n      dup2\n      gt\n      iszero\n      tag_40\n      jumpi\n      tag_41\n      tag_42\n      jump\t// in\n    tag_41:\n    tag_40:\n      mload(0x40)\n      swap1\n      dup1\n      dup3\n      mstore\n      dup1\n      0x20\n      mul\n      0x20\n      add\n      dup3\n      add\n      0x40\n      mstore\n      dup1\n      iszero\n      tag_43\n      jumpi\n      dup2\n      0x20\n      add\n    tag_44:\n      tag_45\n      tag_46\n      jump\t// in\n    tag_45:\n      dup2\n      mstore\n      0x20\n      add\n      swap1\n      0x01\n      swap1\n      sub\n      swap1\n      dup2\n      tag_44\n      jumpi\n      swap1\n      pop\n    tag_43:\n      pop\n        /* \"contracts/Drugs.sol\":1272:1316  Drug[]    memory id = new Drug[](drugsCount) */\n      swap1\n      pop\n        /* \"contracts/Drugs.sol\":1332:1338  uint i */\n      0x00\n        /* \"contracts/Drugs.sol\":1327:1447  for (uint i = 0; i < drugsCount; i++) {\r... */\n    tag_47:\n        /* \"contracts/Drugs.sol\":1348:1358  drugsCount */\n      sload(0x01)\n        /* \"contracts/Drugs.sol\":1344:1345  i */\n      dup2\n        /* \"contracts/Drugs.sol\":1344:1358  i < drugsCount */\n      lt\n        /* \"contracts/Drugs.sol\":1327:1447  for (uint i = 0; i < drugsCount; i++) {\r... */\n      iszero\n      tag_48\n      jumpi\n        /* \"contracts/Drugs.sol\":1380:1397  Drug storage drug */\n      0x00\n        /* \"contracts/Drugs.sol\":1400:1405  drugs */\n      dup1\n        /* \"contracts/Drugs.sol\":1400:1408  drugs[i] */\n      0x00\n        /* \"contracts/Drugs.sol\":1406:1407  i */\n      dup4\n        /* \"contracts/Drugs.sol\":1400:1408  drugs[i] */\n      dup2\n      mstore\n      0x20\n      add\n      swap1\n      dup2\n      mstore\n      0x20\n      add\n      0x00\n      keccak256\n        /* \"contracts/Drugs.sol\":1380:1408  Drug storage drug = drugs[i] */\n      swap1\n      pop\n        /* \"contracts/Drugs.sol\":1431:1435  drug */\n      dup1\n        /* \"contracts/Drugs.sol\":1423:1435  id[i] = drug */\n      mload(0x40)\n      dup1\n      0x60\n      add\n      0x40\n      mstore\n      swap1\n      dup2\n      0x00\n      dup3\n      add\n      sload\n      dup2\n      mstore\n      0x20\n      add\n      0x01\n      dup3\n      add\n      0x00\n      swap1\n      sload\n      swap1\n      0x0100\n      exp\n      swap1\n      div\n      0xffffffffffffffffffffffffffffffffffffffff\n      and\n      0xffffffffffffffffffffffffffffffffffffffff\n      and\n      0xffffffffffffffffffffffffffffffffffffffff\n      and\n      dup2\n      mstore\n      0x20\n      add\n      0x01\n      dup3\n      add\n      0x14\n      swap1\n      sload\n      swap1\n      0x0100\n      exp\n      swap1\n      div\n      0xff\n      and\n      iszero\n      iszero\n      iszero\n      iszero\n      dup2\n      mstore\n      pop\n      pop\n        /* \"contracts/Drugs.sol\":1423:1425  id */\n      dup4\n        /* \"contracts/Drugs.sol\":1426:1427  i */\n      dup4\n        /* \"contracts/Drugs.sol\":1423:1428  id[i] */\n      dup2\n      mload\n      dup2\n      lt\n      tag_50\n      jumpi\n      tag_51\n      tag_52\n      jump\t// in\n    tag_51:\n    tag_50:\n      0x20\n      mul\n      0x20\n      add\n      add\n        /* \"contracts/Drugs.sol\":1423:1435  id[i] = drug */\n      dup2\n      swap1\n      mstore\n      pop\n        /* \"contracts/Drugs.sol\":1365:1447  {\r... */\n      pop\n        /* \"contracts/Drugs.sol\":1360:1363  i++ */\n      dup1\n      dup1\n      tag_53\n      swap1\n      tag_38\n      jump\t// in\n    tag_53:\n      swap2\n      pop\n      pop\n        /* \"contracts/Drugs.sol\":1327:1447  for (uint i = 0; i < drugsCount; i++) {\r... */\n      jump(tag_47)\n    tag_48:\n      pop\n        /* \"contracts/Drugs.sol\":1464:1466  id */\n      dup1\n        /* \"contracts/Drugs.sol\":1457:1466  return id */\n      swap2\n      pop\n      pop\n        /* \"contracts/Drugs.sol\":1206:1474  function getDrugs() public view returns (Drug[] memory){\r... */\n      swap1\n      jump\t// out\n        /* \"contracts/Drugs.sol\":313:335  uint public drugsCount */\n    tag_18:\n      sload(0x01)\n      dup2\n      jump\t// out\n        /* \"contracts/Drugs.sol\":578:678  function get(uint _drugid) public view returns(Drug memory) {\r... */\n    tag_24:\n        /* \"contracts/Drugs.sol\":625:636  Drug memory */\n      tag_54\n      tag_46\n      jump\t// in\n    tag_54:\n        /* \"contracts/Drugs.sol\":656:661  drugs */\n      0x00\n        /* \"contracts/Drugs.sol\":656:670  drugs[_drugid] */\n      dup1\n        /* \"contracts/Drugs.sol\":662:669  _drugid */\n      dup4\n        /* \"contracts/Drugs.sol\":656:670  drugs[_drugid] */\n      dup2\n      mstore\n      0x20\n      add\n      swap1\n      dup2\n      mstore\n      0x20\n      add\n      0x00\n      keccak256\n        /* \"contracts/Drugs.sol\":649:670  return drugs[_drugid] */\n      mload(0x40)\n      dup1\n      0x60\n      add\n      0x40\n      mstore\n      swap1\n      dup2\n      0x00\n      dup3\n      add\n      sload\n      dup2\n      mstore\n      0x20\n      add\n      0x01\n      dup3\n      add\n      0x00\n      swap1\n      sload\n      swap1\n      0x0100\n      exp\n      swap1\n      div\n      0xffffffffffffffffffffffffffffffffffffffff\n      and\n      0xffffffffffffffffffffffffffffffffffffffff\n      and\n      0xffffffffffffffffffffffffffffffffffffffff\n      and\n      dup2\n      mstore\n      0x20\n      add\n      0x01\n      dup3\n      add\n      0x14\n      swap1\n      sload\n      swap1\n      0x0100\n      exp\n      swap1\n      div\n      0xff\n      and\n      iszero\n      iszero\n      iszero\n      iszero\n      dup2\n      mstore\n      pop\n      pop\n      swap1\n      pop\n        /* \"contracts/Drugs.sol\":578:678  function get(uint _drugid) public view returns(Drug memory) {\r... */\n      swap2\n      swap1\n      pop\n      jump\t// out\n        /* \"contracts/Drugs.sol\":723:1167  function getDrug() public view returns (uint[] memory, address[] memory){\r... */\n    tag_28:\n        /* \"contracts/Drugs.sol\":763:776  uint[] memory */\n      0x60\n        /* \"contracts/Drugs.sol\":778:794  address[] memory */\n      dup1\n        /* \"contracts/Drugs.sol\":806:827  uint[]  memory drugid */\n      0x00\n        /* \"contracts/Drugs.sol\":841:851  drugsCount */\n      sload(0x01)\n        /* \"contracts/Drugs.sol\":830:852  new uint[](drugsCount) */\n      0xffffffffffffffff\n      dup2\n      gt\n      iszero\n      tag_57\n      jumpi\n      tag_58\n      tag_42\n      jump\t// in\n    tag_58:\n    tag_57:\n      mload(0x40)\n      swap1\n      dup1\n      dup3\n      mstore\n      dup1\n      0x20\n      mul\n      0x20\n      add\n      dup3\n      add\n      0x40\n      mstore\n      dup1\n      iszero\n      tag_59\n      jumpi\n      dup2\n      0x20\n      add\n      0x20\n      dup3\n      mul\n      dup1\n      calldatasize\n      dup4\n      calldatacopy\n      dup1\n      dup3\n      add\n      swap2\n      pop\n      pop\n      swap1\n      pop\n    tag_59:\n      pop\n        /* \"contracts/Drugs.sol\":806:852  uint[]  memory drugid = new uint[](drugsCount) */\n      swap1\n      pop\n        /* \"contracts/Drugs.sol\":863:893  address[]  memory manufacturer */\n      0x00\n        /* \"contracts/Drugs.sol\":910:920  drugsCount */\n      sload(0x01)\n        /* \"contracts/Drugs.sol\":896:921  new address[](drugsCount) */\n      0xffffffffffffffff\n      dup2\n      gt\n      iszero\n      tag_60\n      jumpi\n      tag_61\n      tag_42\n      jump\t// in\n    tag_61:\n    tag_60:\n      mload(0x40)\n      swap1\n      dup1\n      dup3\n      mstore\n      dup1\n      0x20\n      mul\n      0x20\n      add\n      dup3\n      add\n      0x40\n      mstore\n      dup1\n      iszero\n      tag_62\n      jumpi\n      dup2\n      0x20\n      add\n      0x20\n      dup3\n      mul\n      dup1\n      calldatasize\n      dup4\n      calldatacopy\n      dup1\n      dup3\n      add\n      swap2\n      pop\n      pop\n      swap1\n      pop\n    tag_62:\n      pop\n        /* \"contracts/Drugs.sol\":863:921  address[]  memory manufacturer = new address[](drugsCount) */\n      swap1\n      pop\n        /* \"contracts/Drugs.sol\":944:950  uint i */\n      0x00\n        /* \"contracts/Drugs.sol\":939:1120  for (uint i = 0; i < drugsCount; i++) {\r... */\n    tag_63:\n        /* \"contracts/Drugs.sol\":960:970  drugsCount */\n      sload(0x01)\n        /* \"contracts/Drugs.sol\":956:957  i */\n      dup2\n        /* \"contracts/Drugs.sol\":956:970  i < drugsCount */\n      lt\n        /* \"contracts/Drugs.sol\":939:1120  for (uint i = 0; i < drugsCount; i++) {\r... */\n      iszero\n      tag_64\n      jumpi\n        /* \"contracts/Drugs.sol\":992:1009  Drug storage drug */\n      0x00\n        /* \"contracts/Drugs.sol\":1012:1017  drugs */\n      dup1\n        /* \"contracts/Drugs.sol\":1012:1020  drugs[i] */\n      0x00\n        /* \"contracts/Drugs.sol\":1018:1019  i */\n      dup4\n        /* \"contracts/Drugs.sol\":1012:1020  drugs[i] */\n      dup2\n      mstore\n      0x20\n      add\n      swap1\n      dup2\n      mstore\n      0x20\n      add\n      0x00\n      keccak256\n        /* \"contracts/Drugs.sol\":992:1020  Drug storage drug = drugs[i] */\n      swap1\n      pop\n        /* \"contracts/Drugs.sol\":1047:1051  drug */\n      dup1\n        /* \"contracts/Drugs.sol\":1047:1058  drug.DrugID */\n      0x00\n      add\n      sload\n        /* \"contracts/Drugs.sol\":1035:1041  drugid */\n      dup5\n        /* \"contracts/Drugs.sol\":1042:1043  i */\n      dup4\n        /* \"contracts/Drugs.sol\":1035:1044  drugid[i] */\n      dup2\n      mload\n      dup2\n      lt\n      tag_66\n      jumpi\n      tag_67\n      tag_52\n      jump\t// in\n    tag_67:\n    tag_66:\n      0x20\n      mul\n      0x20\n      add\n      add\n        /* \"contracts/Drugs.sol\":1035:1058  drugid[i] = drug.DrugID */\n      dup2\n      dup2\n      mstore\n      pop\n      pop\n        /* \"contracts/Drugs.sol\":1091:1095  drug */\n      dup1\n        /* \"contracts/Drugs.sol\":1091:1108  drug.Manufacturer */\n      0x01\n      add\n      0x00\n      swap1\n      sload\n      swap1\n      0x0100\n      exp\n      swap1\n      div\n      0xffffffffffffffffffffffffffffffffffffffff\n      and\n        /* \"contracts/Drugs.sol\":1073:1085  manufacturer */\n      dup4\n        /* \"contracts/Drugs.sol\":1086:1087  i */\n      dup4\n        /* \"contracts/Drugs.sol\":1073:1088  manufacturer[i] */\n      dup2\n      mload\n      dup2\n      lt\n      tag_68\n      jumpi\n      tag_69\n      tag_52\n      jump\t// in\n    tag_69:\n    tag_68:\n      0x20\n      mul\n      0x20\n      add\n      add\n        /* \"contracts/Drugs.sol\":1073:1108  manufacturer[i] = drug.Manufacturer */\n      swap1\n      0xffffffffffffffffffffffffffffffffffffffff\n      and\n      swap1\n      dup2\n      0xffffffffffffffffffffffffffffffffffffffff\n      and\n      dup2\n      mstore\n      pop\n      pop\n        /* \"contracts/Drugs.sol\":977:1120  {\r... */\n      pop\n        /* \"contracts/Drugs.sol\":972:975  i++ */\n      dup1\n      dup1\n      tag_70\n      swap1\n      tag_38\n      jump\t// in\n    tag_70:\n      swap2\n      pop\n      pop\n        /* \"contracts/Drugs.sol\":939:1120  for (uint i = 0; i < drugsCount; i++) {\r... */\n      jump(tag_63)\n    tag_64:\n      pop\n        /* \"contracts/Drugs.sol\":1138:1144  drugid */\n      dup2\n        /* \"contracts/Drugs.sol\":1146:1158  manufacturer */\n      dup2\n        /* \"contracts/Drugs.sol\":1130:1159  return (drugid, manufacturer) */\n      swap4\n      pop\n      swap4\n      pop\n      pop\n      pop\n        /* \"contracts/Drugs.sol\":723:1167  function getDrug() public view returns (uint[] memory, address[] memory){\r... */\n      swap1\n      swap2\n      jump\t// out\n        /* \"contracts/Drugs.sol\":221:256  mapping (uint => Drug) public drugs */\n    tag_33:\n      mstore(0x20, 0x00)\n      dup1\n      0x00\n      mstore\n      keccak256(0x00, 0x40)\n      0x00\n      swap2\n      pop\n      swap1\n      pop\n      dup1\n      0x00\n      add\n      sload\n      swap1\n      dup1\n      0x01\n      add\n      0x00\n      swap1\n      sload\n      swap1\n      0x0100\n      exp\n      swap1\n      div\n      0xffffffffffffffffffffffffffffffffffffffff\n      and\n      swap1\n      dup1\n      0x01\n      add\n      0x14\n      swap1\n      sload\n      swap1\n      0x0100\n      exp\n      swap1\n      div\n      0xff\n      and\n      swap1\n      pop\n      dup4\n      jump\t// out\n    tag_46:\n      mload(0x40)\n      dup1\n      0x60\n      add\n      0x40\n      mstore\n      dup1\n      0x00\n      dup2\n      mstore\n      0x20\n      add\n      and(0xffffffffffffffffffffffffffffffffffffffff, 0x00)\n      dup2\n      mstore\n      0x20\n      add\n      iszero(iszero(0x00))\n      dup2\n      mstore\n      pop\n      swap1\n      jump\t// out\n        /* \"#utility.yul\":7:146   */\n    tag_72:\n        /* \"#utility.yul\":53:58   */\n      0x00\n        /* \"#utility.yul\":91:97   */\n      dup2\n        /* \"#utility.yul\":78:98   */\n      calldataload\n        /* \"#utility.yul\":69:98   */\n      swap1\n      pop\n        /* \"#utility.yul\":107:140   */\n      tag_74\n        /* \"#utility.yul\":134:139   */\n      dup2\n        /* \"#utility.yul\":107:140   */\n      tag_75\n      jump\t// in\n    tag_74:\n        /* \"#utility.yul\":7:146   */\n      swap3\n      swap2\n      pop\n      pop\n      jump\t// out\n        /* \"#utility.yul\":152:291   */\n    tag_76:\n        /* \"#utility.yul\":198:203   */\n      0x00\n        /* \"#utility.yul\":236:242   */\n      dup2\n        /* \"#utility.yul\":223:243   */\n      calldataload\n        /* \"#utility.yul\":214:243   */\n      swap1\n      pop\n        /* \"#utility.yul\":252:285   */\n      tag_78\n        /* \"#utility.yul\":279:284   */\n      dup2\n        /* \"#utility.yul\":252:285   */\n      tag_79\n      jump\t// in\n    tag_78:\n        /* \"#utility.yul\":152:291   */\n      swap3\n      swap2\n      pop\n      pop\n      jump\t// out\n        /* \"#utility.yul\":297:626   */\n    tag_11:\n        /* \"#utility.yul\":356:362   */\n      0x00\n        /* \"#utility.yul\":405:407   */\n      0x20\n        /* \"#utility.yul\":393:402   */\n      dup3\n        /* \"#utility.yul\":384:391   */\n      dup5\n        /* \"#utility.yul\":380:403   */\n      sub\n        /* \"#utility.yul\":376:408   */\n      slt\n        /* \"#utility.yul\":373:492   */\n      iszero\n      tag_81\n      jumpi\n        /* \"#utility.yul\":411:490   */\n      tag_82\n      tag_83\n      jump\t// in\n    tag_82:\n        /* \"#utility.yul\":373:492   */\n    tag_81:\n        /* \"#utility.yul\":531:532   */\n      0x00\n        /* \"#utility.yul\":556:609   */\n      tag_84\n        /* \"#utility.yul\":601:608   */\n      dup5\n        /* \"#utility.yul\":592:598   */\n      dup3\n        /* \"#utility.yul\":581:590   */\n      dup6\n        /* \"#utility.yul\":577:599   */\n      add\n        /* \"#utility.yul\":556:609   */\n      tag_72\n      jump\t// in\n    tag_84:\n        /* \"#utility.yul\":546:609   */\n      swap2\n      pop\n        /* \"#utility.yul\":502:619   */\n      pop\n        /* \"#utility.yul\":297:626   */\n      swap3\n      swap2\n      pop\n      pop\n      jump\t// out\n        /* \"#utility.yul\":632:961   */\n    tag_23:\n        /* \"#utility.yul\":691:697   */\n      0x00\n        /* \"#utility.yul\":740:742   */\n      0x20\n        /* \"#utility.yul\":728:737   */\n      dup3\n        /* \"#utility.yul\":719:726   */\n      dup5\n        /* \"#utility.yul\":715:738   */\n      sub\n        /* \"#utility.yul\":711:743   */\n      slt\n        /* \"#utility.yul\":708:827   */\n      iszero\n      tag_86\n      jumpi\n        /* \"#utility.yul\":746:825   */\n      tag_87\n      tag_83\n      jump\t// in\n    tag_87:\n        /* \"#utility.yul\":708:827   */\n    tag_86:\n        /* \"#utility.yul\":866:867   */\n      0x00\n        /* \"#utility.yul\":891:944   */\n      tag_88\n        /* \"#utility.yul\":936:943   */\n      dup5\n        /* \"#utility.yul\":927:933   */\n      dup3\n        /* \"#utility.yul\":916:925   */\n      dup6\n        /* \"#utility.yul\":912:934   */\n      add\n        /* \"#utility.yul\":891:944   */\n      tag_76\n      jump\t// in\n    tag_88:\n        /* \"#utility.yul\":881:944   */\n      swap2\n      pop\n        /* \"#utility.yul\":837:954   */\n      pop\n        /* \"#utility.yul\":632:961   */\n      swap3\n      swap2\n      pop\n      pop\n      jump\t// out\n        /* \"#utility.yul\":967:1146   */\n    tag_89:\n        /* \"#utility.yul\":1036:1046   */\n      0x00\n        /* \"#utility.yul\":1057:1103   */\n      tag_91\n        /* \"#utility.yul\":1099:1102   */\n      dup4\n        /* \"#utility.yul\":1091:1097   */\n      dup4\n        /* \"#utility.yul\":1057:1103   */\n      tag_92\n      jump\t// in\n    tag_91:\n        /* \"#utility.yul\":1135:1139   */\n      0x20\n        /* \"#utility.yul\":1130:1133   */\n      dup4\n        /* \"#utility.yul\":1126:1140   */\n      add\n        /* \"#utility.yul\":1112:1140   */\n      swap1\n      pop\n        /* \"#utility.yul\":967:1146   */\n      swap3\n      swap2\n      pop\n      pop\n      jump\t// out\n        /* \"#utility.yul\":1152:1407   */\n    tag_93:\n        /* \"#utility.yul\":1259:1269   */\n      0x00\n        /* \"#utility.yul\":1280:1364   */\n      tag_95\n        /* \"#utility.yul\":1360:1363   */\n      dup4\n        /* \"#utility.yul\":1352:1358   */\n      dup4\n        /* \"#utility.yul\":1280:1364   */\n      tag_96\n      jump\t// in\n    tag_95:\n        /* \"#utility.yul\":1396:1400   */\n      0x60\n        /* \"#utility.yul\":1391:1394   */\n      dup4\n        /* \"#utility.yul\":1387:1401   */\n      add\n        /* \"#utility.yul\":1373:1401   */\n      swap1\n      pop\n        /* \"#utility.yul\":1152:1407   */\n      swap3\n      swap2\n      pop\n      pop\n      jump\t// out\n        /* \"#utility.yul\":1413:1592   */\n    tag_97:\n        /* \"#utility.yul\":1482:1492   */\n      0x00\n        /* \"#utility.yul\":1503:1549   */\n      tag_99\n        /* \"#utility.yul\":1545:1548   */\n      dup4\n        /* \"#utility.yul\":1537:1543   */\n      dup4\n        /* \"#utility.yul\":1503:1549   */\n      tag_100\n      jump\t// in\n    tag_99:\n        /* \"#utility.yul\":1581:1585   */\n      0x20\n        /* \"#utility.yul\":1576:1579   */\n      dup4\n        /* \"#utility.yul\":1572:1586   */\n      add\n        /* \"#utility.yul\":1558:1586   */\n      swap1\n      pop\n        /* \"#utility.yul\":1413:1592   */\n      swap3\n      swap2\n      pop\n      pop\n      jump\t// out\n        /* \"#utility.yul\":1598:1706   */\n    tag_92:\n        /* \"#utility.yul\":1675:1699   */\n      tag_102\n        /* \"#utility.yul\":1693:1698   */\n      dup2\n        /* \"#utility.yul\":1675:1699   */\n      tag_103\n      jump\t// in\n    tag_102:\n        /* \"#utility.yul\":1670:1673   */\n      dup3\n        /* \"#utility.yul\":1663:1700   */\n      mstore\n        /* \"#utility.yul\":1598:1706   */\n      pop\n      pop\n      jump\t// out\n        /* \"#utility.yul\":1712:1830   */\n    tag_104:\n        /* \"#utility.yul\":1799:1823   */\n      tag_106\n        /* \"#utility.yul\":1817:1822   */\n      dup2\n        /* \"#utility.yul\":1799:1823   */\n      tag_103\n      jump\t// in\n    tag_106:\n        /* \"#utility.yul\":1794:1797   */\n      dup3\n        /* \"#utility.yul\":1787:1824   */\n      mstore\n        /* \"#utility.yul\":1712:1830   */\n      pop\n      pop\n      jump\t// out\n        /* \"#utility.yul\":1866:2598   */\n    tag_107:\n        /* \"#utility.yul\":1985:1988   */\n      0x00\n        /* \"#utility.yul\":2014:2068   */\n      tag_109\n        /* \"#utility.yul\":2062:2067   */\n      dup3\n        /* \"#utility.yul\":2014:2068   */\n      tag_110\n      jump\t// in\n    tag_109:\n        /* \"#utility.yul\":2084:2170   */\n      tag_111\n        /* \"#utility.yul\":2163:2169   */\n      dup2\n        /* \"#utility.yul\":2158:2161   */\n      dup6\n        /* \"#utility.yul\":2084:2170   */\n      tag_112\n      jump\t// in\n    tag_111:\n        /* \"#utility.yul\":2077:2170   */\n      swap4\n      pop\n        /* \"#utility.yul\":2194:2250   */\n      tag_113\n        /* \"#utility.yul\":2244:2249   */\n      dup4\n        /* \"#utility.yul\":2194:2250   */\n      tag_114\n      jump\t// in\n    tag_113:\n        /* \"#utility.yul\":2273:2280   */\n      dup1\n        /* \"#utility.yul\":2304:2305   */\n      0x00\n        /* \"#utility.yul\":2289:2573   */\n    tag_115:\n        /* \"#utility.yul\":2314:2320   */\n      dup4\n        /* \"#utility.yul\":2311:2312   */\n      dup2\n        /* \"#utility.yul\":2308:2321   */\n      lt\n        /* \"#utility.yul\":2289:2573   */\n      iszero\n      tag_117\n      jumpi\n        /* \"#utility.yul\":2390:2396   */\n      dup2\n        /* \"#utility.yul\":2384:2397   */\n      mload\n        /* \"#utility.yul\":2417:2480   */\n      tag_118\n        /* \"#utility.yul\":2476:2479   */\n      dup9\n        /* \"#utility.yul\":2461:2474   */\n      dup3\n        /* \"#utility.yul\":2417:2480   */\n      tag_89\n      jump\t// in\n    tag_118:\n        /* \"#utility.yul\":2410:2480   */\n      swap8\n      pop\n        /* \"#utility.yul\":2503:2563   */\n      tag_119\n        /* \"#utility.yul\":2556:2562   */\n      dup4\n        /* \"#utility.yul\":2503:2563   */\n      tag_120\n      jump\t// in\n    tag_119:\n        /* \"#utility.yul\":2493:2563   */\n      swap3\n      pop\n        /* \"#utility.yul\":2349:2573   */\n      pop\n        /* \"#utility.yul\":2336:2337   */\n      0x01\n        /* \"#utility.yul\":2333:2334   */\n      dup2\n        /* \"#utility.yul\":2329:2338   */\n      add\n        /* \"#utility.yul\":2324:2338   */\n      swap1\n      pop\n        /* \"#utility.yul\":2289:2573   */\n      jump(tag_115)\n    tag_117:\n        /* \"#utility.yul\":2293:2307   */\n      pop\n        /* \"#utility.yul\":2589:2592   */\n      dup6\n        /* \"#utility.yul\":2582:2592   */\n      swap4\n      pop\n        /* \"#utility.yul\":1990:2598   */\n      pop\n      pop\n      pop\n        /* \"#utility.yul\":1866:2598   */\n      swap3\n      swap2\n      pop\n      pop\n      jump\t// out\n        /* \"#utility.yul\":2654:3538   */\n    tag_121:\n        /* \"#utility.yul\":2811:2814   */\n      0x00\n        /* \"#utility.yul\":2840:2913   */\n      tag_123\n        /* \"#utility.yul\":2907:2912   */\n      dup3\n        /* \"#utility.yul\":2840:2913   */\n      tag_124\n      jump\t// in\n    tag_123:\n        /* \"#utility.yul\":2929:3034   */\n      tag_125\n        /* \"#utility.yul\":3027:3033   */\n      dup2\n        /* \"#utility.yul\":3022:3025   */\n      dup6\n        /* \"#utility.yul\":2929:3034   */\n      tag_126\n      jump\t// in\n    tag_125:\n        /* \"#utility.yul\":2922:3034   */\n      swap4\n      pop\n        /* \"#utility.yul\":3058:3133   */\n      tag_127\n        /* \"#utility.yul\":3127:3132   */\n      dup4\n        /* \"#utility.yul\":3058:3133   */\n      tag_128\n      jump\t// in\n    tag_127:\n        /* \"#utility.yul\":3156:3163   */\n      dup1\n        /* \"#utility.yul\":3187:3188   */\n      0x00\n        /* \"#utility.yul\":3172:3513   */\n    tag_129:\n        /* \"#utility.yul\":3197:3203   */\n      dup4\n        /* \"#utility.yul\":3194:3195   */\n      dup2\n        /* \"#utility.yul\":3191:3204   */\n      lt\n        /* \"#utility.yul\":3172:3513   */\n      iszero\n      tag_131\n      jumpi\n        /* \"#utility.yul\":3273:3279   */\n      dup2\n        /* \"#utility.yul\":3267:3280   */\n      mload\n        /* \"#utility.yul\":3300:3401   */\n      tag_132\n        /* \"#utility.yul\":3397:3400   */\n      dup9\n        /* \"#utility.yul\":3382:3395   */\n      dup3\n        /* \"#utility.yul\":3300:3401   */\n      tag_93\n      jump\t// in\n    tag_132:\n        /* \"#utility.yul\":3293:3401   */\n      swap8\n      pop\n        /* \"#utility.yul\":3424:3503   */\n      tag_133\n        /* \"#utility.yul\":3496:3502   */\n      dup4\n        /* \"#utility.yul\":3424:3503   */\n      tag_134\n      jump\t// in\n    tag_133:\n        /* \"#utility.yul\":3414:3503   */\n      swap3\n      pop\n        /* \"#utility.yul\":3232:3513   */\n      pop\n        /* \"#utility.yul\":3219:3220   */\n      0x01\n        /* \"#utility.yul\":3216:3217   */\n      dup2\n        /* \"#utility.yul\":3212:3221   */\n      add\n        /* \"#utility.yul\":3207:3221   */\n      swap1\n      pop\n        /* \"#utility.yul\":3172:3513   */\n      jump(tag_129)\n    tag_131:\n        /* \"#utility.yul\":3176:3190   */\n      pop\n        /* \"#utility.yul\":3529:3532   */\n      dup6\n        /* \"#utility.yul\":3522:3532   */\n      swap4\n      pop\n        /* \"#utility.yul\":2816:3538   */\n      pop\n      pop\n      pop\n        /* \"#utility.yul\":2654:3538   */\n      swap3\n      swap2\n      pop\n      pop\n      jump\t// out\n        /* \"#utility.yul\":3574:4306   */\n    tag_135:\n        /* \"#utility.yul\":3693:3696   */\n      0x00\n        /* \"#utility.yul\":3722:3776   */\n      tag_137\n        /* \"#utility.yul\":3770:3775   */\n      dup3\n        /* \"#utility.yul\":3722:3776   */\n      tag_138\n      jump\t// in\n    tag_137:\n        /* \"#utility.yul\":3792:3878   */\n      tag_139\n        /* \"#utility.yul\":3871:3877   */\n      dup2\n        /* \"#utility.yul\":3866:3869   */\n      dup6\n        /* \"#utility.yul\":3792:3878   */\n      tag_140\n      jump\t// in\n    tag_139:\n        /* \"#utility.yul\":3785:3878   */\n      swap4\n      pop\n        /* \"#utility.yul\":3902:3958   */\n      tag_141\n        /* \"#utility.yul\":3952:3957   */\n      dup4\n        /* \"#utility.yul\":3902:3958   */\n      tag_142\n      jump\t// in\n    tag_141:\n        /* \"#utility.yul\":3981:3988   */\n      dup1\n        /* \"#utility.yul\":4012:4013   */\n      0x00\n        /* \"#utility.yul\":3997:4281   */\n    tag_143:\n        /* \"#utility.yul\":4022:4028   */\n      dup4\n        /* \"#utility.yul\":4019:4020   */\n      dup2\n        /* \"#utility.yul\":4016:4029   */\n      lt\n        /* \"#utility.yul\":3997:4281   */\n      iszero\n      tag_145\n      jumpi\n        /* \"#utility.yul\":4098:4104   */\n      dup2\n        /* \"#utility.yul\":4092:4105   */\n      mload\n        /* \"#utility.yul\":4125:4188   */\n      tag_146\n        /* \"#utility.yul\":4184:4187   */\n      dup9\n        /* \"#utility.yul\":4169:4182   */\n      dup3\n        /* \"#utility.yul\":4125:4188   */\n      tag_97\n      jump\t// in\n    tag_146:\n        /* \"#utility.yul\":4118:4188   */\n      swap8\n      pop\n        /* \"#utility.yul\":4211:4271   */\n      tag_147\n        /* \"#utility.yul\":4264:4270   */\n      dup4\n        /* \"#utility.yul\":4211:4271   */\n      tag_148\n      jump\t// in\n    tag_147:\n        /* \"#utility.yul\":4201:4271   */\n      swap3\n      pop\n        /* \"#utility.yul\":4057:4281   */\n      pop\n        /* \"#utility.yul\":4044:4045   */\n      0x01\n        /* \"#utility.yul\":4041:4042   */\n      dup2\n        /* \"#utility.yul\":4037:4046   */\n      add\n        /* \"#utility.yul\":4032:4046   */\n      swap1\n      pop\n        /* \"#utility.yul\":3997:4281   */\n      jump(tag_143)\n    tag_145:\n        /* \"#utility.yul\":4001:4015   */\n      pop\n        /* \"#utility.yul\":4297:4300   */\n      dup6\n        /* \"#utility.yul\":4290:4300   */\n      swap4\n      pop\n        /* \"#utility.yul\":3698:4306   */\n      pop\n      pop\n      pop\n        /* \"#utility.yul\":3574:4306   */\n      swap3\n      swap2\n      pop\n      pop\n      jump\t// out\n        /* \"#utility.yul\":4312:4411   */\n    tag_149:\n        /* \"#utility.yul\":4383:4404   */\n      tag_151\n        /* \"#utility.yul\":4398:4403   */\n      dup2\n        /* \"#utility.yul\":4383:4404   */\n      tag_152\n      jump\t// in\n    tag_151:\n        /* \"#utility.yul\":4378:4381   */\n      dup3\n        /* \"#utility.yul\":4371:4405   */\n      mstore\n        /* \"#utility.yul\":4312:4411   */\n      pop\n      pop\n      jump\t// out\n        /* \"#utility.yul\":4417:4526   */\n    tag_153:\n        /* \"#utility.yul\":4498:4519   */\n      tag_155\n        /* \"#utility.yul\":4513:4518   */\n      dup2\n        /* \"#utility.yul\":4498:4519   */\n      tag_152\n      jump\t// in\n    tag_155:\n        /* \"#utility.yul\":4493:4496   */\n      dup3\n        /* \"#utility.yul\":4486:4520   */\n      mstore\n        /* \"#utility.yul\":4417:4526   */\n      pop\n      pop\n      jump\t// out\n        /* \"#utility.yul\":4578:5245   */\n    tag_96:\n        /* \"#utility.yul\":4703:4707   */\n      0x60\n        /* \"#utility.yul\":4698:4701   */\n      dup3\n        /* \"#utility.yul\":4694:4708   */\n      add\n        /* \"#utility.yul\":4792:4796   */\n      0x00\n        /* \"#utility.yul\":4785:4790   */\n      dup3\n        /* \"#utility.yul\":4781:4797   */\n      add\n        /* \"#utility.yul\":4775:4798   */\n      mload\n        /* \"#utility.yul\":4811:4874   */\n      tag_157\n        /* \"#utility.yul\":4868:4872   */\n      0x00\n        /* \"#utility.yul\":4863:4866   */\n      dup6\n        /* \"#utility.yul\":4859:4873   */\n      add\n        /* \"#utility.yul\":4845:4857   */\n      dup3\n        /* \"#utility.yul\":4811:4874   */\n      tag_100\n      jump\t// in\n    tag_157:\n        /* \"#utility.yul\":4718:4884   */\n      pop\n        /* \"#utility.yul\":4974:4978   */\n      0x20\n        /* \"#utility.yul\":4967:4972   */\n      dup3\n        /* \"#utility.yul\":4963:4979   */\n      add\n        /* \"#utility.yul\":4957:4980   */\n      mload\n        /* \"#utility.yul\":4993:5056   */\n      tag_158\n        /* \"#utility.yul\":5050:5054   */\n      0x20\n        /* \"#utility.yul\":5045:5048   */\n      dup6\n        /* \"#utility.yul\":5041:5055   */\n      add\n        /* \"#utility.yul\":5027:5039   */\n      dup3\n        /* \"#utility.yul\":4993:5056   */\n      tag_92\n      jump\t// in\n    tag_158:\n        /* \"#utility.yul\":4894:5066   */\n      pop\n        /* \"#utility.yul\":5152:5156   */\n      0x40\n        /* \"#utility.yul\":5145:5150   */\n      dup3\n        /* \"#utility.yul\":5141:5157   */\n      add\n        /* \"#utility.yul\":5135:5158   */\n      mload\n        /* \"#utility.yul\":5171:5228   */\n      tag_159\n        /* \"#utility.yul\":5222:5226   */\n      0x40\n        /* \"#utility.yul\":5217:5220   */\n      dup6\n        /* \"#utility.yul\":5213:5227   */\n      add\n        /* \"#utility.yul\":5199:5211   */\n      dup3\n        /* \"#utility.yul\":5171:5228   */\n      tag_149\n      jump\t// in\n    tag_159:\n        /* \"#utility.yul\":5076:5238   */\n      pop\n        /* \"#utility.yul\":4672:5245   */\n      pop\n        /* \"#utility.yul\":4578:5245   */\n      pop\n      pop\n      jump\t// out\n        /* \"#utility.yul\":5297:5974   */\n    tag_160:\n        /* \"#utility.yul\":5432:5436   */\n      0x60\n        /* \"#utility.yul\":5427:5430   */\n      dup3\n        /* \"#utility.yul\":5423:5437   */\n      add\n        /* \"#utility.yul\":5521:5525   */\n      0x00\n        /* \"#utility.yul\":5514:5519   */\n      dup3\n        /* \"#utility.yul\":5510:5526   */\n      add\n        /* \"#utility.yul\":5504:5527   */\n      mload\n        /* \"#utility.yul\":5540:5603   */\n      tag_162\n        /* \"#utility.yul\":5597:5601   */\n      0x00\n        /* \"#utility.yul\":5592:5595   */\n      dup6\n        /* \"#utility.yul\":5588:5602   */\n      add\n        /* \"#utility.yul\":5574:5586   */\n      dup3\n        /* \"#utility.yul\":5540:5603   */\n      tag_100\n      jump\t// in\n    tag_162:\n        /* \"#utility.yul\":5447:5613   */\n      pop\n        /* \"#utility.yul\":5703:5707   */\n      0x20\n        /* \"#utility.yul\":5696:5701   */\n      dup3\n        /* \"#utility.yul\":5692:5708   */\n      add\n        /* \"#utility.yul\":5686:5709   */\n      mload\n        /* \"#utility.yul\":5722:5785   */\n      tag_163\n        /* \"#utility.yul\":5779:5783   */\n      0x20\n        /* \"#utility.yul\":5774:5777   */\n      dup6\n        /* \"#utility.yul\":5770:5784   */\n      add\n        /* \"#utility.yul\":5756:5768   */\n      dup3\n        /* \"#utility.yul\":5722:5785   */\n      tag_92\n      jump\t// in\n    tag_163:\n        /* \"#utility.yul\":5623:5795   */\n      pop\n        /* \"#utility.yul\":5881:5885   */\n      0x40\n        /* \"#utility.yul\":5874:5879   */\n      dup3\n        /* \"#utility.yul\":5870:5886   */\n      add\n        /* \"#utility.yul\":5864:5887   */\n      mload\n        /* \"#utility.yul\":5900:5957   */\n      tag_164\n        /* \"#utility.yul\":5951:5955   */\n      0x40\n        /* \"#utility.yul\":5946:5949   */\n      dup6\n        /* \"#utility.yul\":5942:5956   */\n      add\n        /* \"#utility.yul\":5928:5940   */\n      dup3\n        /* \"#utility.yul\":5900:5957   */\n      tag_149\n      jump\t// in\n    tag_164:\n        /* \"#utility.yul\":5805:5967   */\n      pop\n        /* \"#utility.yul\":5401:5974   */\n      pop\n        /* \"#utility.yul\":5297:5974   */\n      pop\n      pop\n      jump\t// out\n        /* \"#utility.yul\":5980:6088   */\n    tag_100:\n        /* \"#utility.yul\":6057:6081   */\n      tag_166\n        /* \"#utility.yul\":6075:6080   */\n      dup2\n        /* \"#utility.yul\":6057:6081   */\n      tag_167\n      jump\t// in\n    tag_166:\n        /* \"#utility.yul\":6052:6055   */\n      dup3\n        /* \"#utility.yul\":6045:6082   */\n      mstore\n        /* \"#utility.yul\":5980:6088   */\n      pop\n      pop\n      jump\t// out\n        /* \"#utility.yul\":6094:6212   */\n    tag_168:\n        /* \"#utility.yul\":6181:6205   */\n      tag_170\n        /* \"#utility.yul\":6199:6204   */\n      dup2\n        /* \"#utility.yul\":6181:6205   */\n      tag_167\n      jump\t// in\n    tag_170:\n        /* \"#utility.yul\":6176:6179   */\n      dup3\n        /* \"#utility.yul\":6169:6206   */\n      mstore\n        /* \"#utility.yul\":6094:6212   */\n      pop\n      pop\n      jump\t// out\n        /* \"#utility.yul\":6218:6667   */\n    tag_16:\n        /* \"#utility.yul\":6399:6403   */\n      0x00\n        /* \"#utility.yul\":6437:6439   */\n      0x20\n        /* \"#utility.yul\":6426:6435   */\n      dup3\n        /* \"#utility.yul\":6422:6440   */\n      add\n        /* \"#utility.yul\":6414:6440   */\n      swap1\n      pop\n        /* \"#utility.yul\":6486:6495   */\n      dup2\n        /* \"#utility.yul\":6480:6484   */\n      dup2\n        /* \"#utility.yul\":6476:6496   */\n      sub\n        /* \"#utility.yul\":6472:6473   */\n      0x00\n        /* \"#utility.yul\":6461:6470   */\n      dup4\n        /* \"#utility.yul\":6457:6474   */\n      add\n        /* \"#utility.yul\":6450:6497   */\n      mstore\n        /* \"#utility.yul\":6514:6660   */\n      tag_172\n        /* \"#utility.yul\":6655:6659   */\n      dup2\n        /* \"#utility.yul\":6646:6652   */\n      dup5\n        /* \"#utility.yul\":6514:6660   */\n      tag_121\n      jump\t// in\n    tag_172:\n        /* \"#utility.yul\":6506:6660   */\n      swap1\n      pop\n        /* \"#utility.yul\":6218:6667   */\n      swap3\n      swap2\n      pop\n      pop\n      jump\t// out\n        /* \"#utility.yul\":6673:7307   */\n    tag_30:\n        /* \"#utility.yul\":6894:6898   */\n      0x00\n        /* \"#utility.yul\":6932:6934   */\n      0x40\n        /* \"#utility.yul\":6921:6930   */\n      dup3\n        /* \"#utility.yul\":6917:6935   */\n      add\n        /* \"#utility.yul\":6909:6935   */\n      swap1\n      pop\n        /* \"#utility.yul\":6981:6990   */\n      dup2\n        /* \"#utility.yul\":6975:6979   */\n      dup2\n        /* \"#utility.yul\":6971:6991   */\n      sub\n        /* \"#utility.yul\":6967:6968   */\n      0x00\n        /* \"#utility.yul\":6956:6965   */\n      dup4\n        /* \"#utility.yul\":6952:6969   */\n      add\n        /* \"#utility.yul\":6945:6992   */\n      mstore\n        /* \"#utility.yul\":7009:7117   */\n      tag_174\n        /* \"#utility.yul\":7112:7116   */\n      dup2\n        /* \"#utility.yul\":7103:7109   */\n      dup6\n        /* \"#utility.yul\":7009:7117   */\n      tag_135\n      jump\t// in\n    tag_174:\n        /* \"#utility.yul\":7001:7117   */\n      swap1\n      pop\n        /* \"#utility.yul\":7164:7173   */\n      dup2\n        /* \"#utility.yul\":7158:7162   */\n      dup2\n        /* \"#utility.yul\":7154:7174   */\n      sub\n        /* \"#utility.yul\":7149:7151   */\n      0x20\n        /* \"#utility.yul\":7138:7147   */\n      dup4\n        /* \"#utility.yul\":7134:7152   */\n      add\n        /* \"#utility.yul\":7127:7175   */\n      mstore\n        /* \"#utility.yul\":7192:7300   */\n      tag_175\n        /* \"#utility.yul\":7295:7299   */\n      dup2\n        /* \"#utility.yul\":7286:7292   */\n      dup5\n        /* \"#utility.yul\":7192:7300   */\n      tag_107\n      jump\t// in\n    tag_175:\n        /* \"#utility.yul\":7184:7300   */\n      swap1\n      pop\n        /* \"#utility.yul\":6673:7307   */\n      swap4\n      swap3\n      pop\n      pop\n      pop\n      jump\t// out\n        /* \"#utility.yul\":7313:7611   */\n    tag_26:\n        /* \"#utility.yul\":7444:7448   */\n      0x00\n        /* \"#utility.yul\":7482:7484   */\n      0x60\n        /* \"#utility.yul\":7471:7480   */\n      dup3\n        /* \"#utility.yul\":7467:7485   */\n      add\n        /* \"#utility.yul\":7459:7485   */\n      swap1\n      pop\n        /* \"#utility.yul\":7495:7604   */\n      tag_177\n        /* \"#utility.yul\":7601:7602   */\n      0x00\n        /* \"#utility.yul\":7590:7599   */\n      dup4\n        /* \"#utility.yul\":7586:7603   */\n      add\n        /* \"#utility.yul\":7577:7583   */\n      dup5\n        /* \"#utility.yul\":7495:7604   */\n      tag_160\n      jump\t// in\n    tag_177:\n        /* \"#utility.yul\":7313:7611   */\n      swap3\n      swap2\n      pop\n      pop\n      jump\t// out\n        /* \"#utility.yul\":7617:7839   */\n    tag_20:\n        /* \"#utility.yul\":7710:7714   */\n      0x00\n        /* \"#utility.yul\":7748:7750   */\n      0x20\n        /* \"#utility.yul\":7737:7746   */\n      dup3\n        /* \"#utility.yul\":7733:7751   */\n      add\n        /* \"#utility.yul\":7725:7751   */\n      swap1\n      pop\n        /* \"#utility.yul\":7761:7832   */\n      tag_179\n        /* \"#utility.yul\":7829:7830   */\n      0x00\n        /* \"#utility.yul\":7818:7827   */\n      dup4\n        /* \"#utility.yul\":7814:7831   */\n      add\n        /* \"#utility.yul\":7805:7811   */\n      dup5\n        /* \"#utility.yul\":7761:7832   */\n      tag_168\n      jump\t// in\n    tag_179:\n        /* \"#utility.yul\":7617:7839   */\n      swap3\n      swap2\n      pop\n      pop\n      jump\t// out\n        /* \"#utility.yul\":7845:8275   */\n    tag_35:\n        /* \"#utility.yul\":7988:7992   */\n      0x00\n        /* \"#utility.yul\":8026:8028   */\n      0x60\n        /* \"#utility.yul\":8015:8024   */\n      dup3\n        /* \"#utility.yul\":8011:8029   */\n      add\n        /* \"#utility.yul\":8003:8029   */\n      swap1\n      pop\n        /* \"#utility.yul\":8039:8110   */\n      tag_181\n        /* \"#utility.yul\":8107:8108   */\n      0x00\n        /* \"#utility.yul\":8096:8105   */\n      dup4\n        /* \"#utility.yul\":8092:8109   */\n      add\n        /* \"#utility.yul\":8083:8089   */\n      dup7\n        /* \"#utility.yul\":8039:8110   */\n      tag_168\n      jump\t// in\n    tag_181:\n        /* \"#utility.yul\":8120:8192   */\n      tag_182\n        /* \"#utility.yul\":8188:8190   */\n      0x20\n        /* \"#utility.yul\":8177:8186   */\n      dup4\n        /* \"#utility.yul\":8173:8191   */\n      add\n        /* \"#utility.yul\":8164:8170   */\n      dup6\n        /* \"#utility.yul\":8120:8192   */\n      tag_104\n      jump\t// in\n    tag_182:\n        /* \"#utility.yul\":8202:8268   */\n      tag_183\n        /* \"#utility.yul\":8264:8266   */\n      0x40\n        /* \"#utility.yul\":8253:8262   */\n      dup4\n        /* \"#utility.yul\":8249:8267   */\n      add\n        /* \"#utility.yul\":8240:8246   */\n      dup5\n        /* \"#utility.yul\":8202:8268   */\n      tag_153\n      jump\t// in\n    tag_183:\n        /* \"#utility.yul\":7845:8275   */\n      swap5\n      swap4\n      pop\n      pop\n      pop\n      pop\n      jump\t// out\n        /* \"#utility.yul\":8362:8494   */\n    tag_114:\n        /* \"#utility.yul\":8429:8433   */\n      0x00\n        /* \"#utility.yul\":8452:8455   */\n      dup2\n        /* \"#utility.yul\":8444:8455   */\n      swap1\n      pop\n        /* \"#utility.yul\":8482:8486   */\n      0x20\n        /* \"#utility.yul\":8477:8480   */\n      dup3\n        /* \"#utility.yul\":8473:8487   */\n      add\n        /* \"#utility.yul\":8465:8487   */\n      swap1\n      pop\n        /* \"#utility.yul\":8362:8494   */\n      swap2\n      swap1\n      pop\n      jump\t// out\n        /* \"#utility.yul\":8500:8651   */\n    tag_128:\n        /* \"#utility.yul\":8586:8590   */\n      0x00\n        /* \"#utility.yul\":8609:8612   */\n      dup2\n        /* \"#utility.yul\":8601:8612   */\n      swap1\n      pop\n        /* \"#utility.yul\":8639:8643   */\n      0x20\n        /* \"#utility.yul\":8634:8637   */\n      dup3\n        /* \"#utility.yul\":8630:8644   */\n      add\n        /* \"#utility.yul\":8622:8644   */\n      swap1\n      pop\n        /* \"#utility.yul\":8500:8651   */\n      swap2\n      swap1\n      pop\n      jump\t// out\n        /* \"#utility.yul\":8657:8789   */\n    tag_142:\n        /* \"#utility.yul\":8724:8728   */\n      0x00\n        /* \"#utility.yul\":8747:8750   */\n      dup2\n        /* \"#utility.yul\":8739:8750   */\n      swap1\n      pop\n        /* \"#utility.yul\":8777:8781   */\n      0x20\n        /* \"#utility.yul\":8772:8775   */\n      dup3\n        /* \"#utility.yul\":8768:8782   */\n      add\n        /* \"#utility.yul\":8760:8782   */\n      swap1\n      pop\n        /* \"#utility.yul\":8657:8789   */\n      swap2\n      swap1\n      pop\n      jump\t// out\n        /* \"#utility.yul\":8795:8909   */\n    tag_110:\n        /* \"#utility.yul\":8862:8868   */\n      0x00\n        /* \"#utility.yul\":8896:8901   */\n      dup2\n        /* \"#utility.yul\":8890:8902   */\n      mload\n        /* \"#utility.yul\":8880:8902   */\n      swap1\n      pop\n        /* \"#utility.yul\":8795:8909   */\n      swap2\n      swap1\n      pop\n      jump\t// out\n        /* \"#utility.yul\":8915:9048   */\n    tag_124:\n        /* \"#utility.yul\":9001:9007   */\n      0x00\n        /* \"#utility.yul\":9035:9040   */\n      dup2\n        /* \"#utility.yul\":9029:9041   */\n      mload\n        /* \"#utility.yul\":9019:9041   */\n      swap1\n      pop\n        /* \"#utility.yul\":8915:9048   */\n      swap2\n      swap1\n      pop\n      jump\t// out\n        /* \"#utility.yul\":9054:9168   */\n    tag_138:\n        /* \"#utility.yul\":9121:9127   */\n      0x00\n        /* \"#utility.yul\":9155:9160   */\n      dup2\n        /* \"#utility.yul\":9149:9161   */\n      mload\n        /* \"#utility.yul\":9139:9161   */\n      swap1\n      pop\n        /* \"#utility.yul\":9054:9168   */\n      swap2\n      swap1\n      pop\n      jump\t// out\n        /* \"#utility.yul\":9174:9287   */\n    tag_120:\n        /* \"#utility.yul\":9244:9248   */\n      0x00\n        /* \"#utility.yul\":9276:9280   */\n      0x20\n        /* \"#utility.yul\":9271:9274   */\n      dup3\n        /* \"#utility.yul\":9267:9281   */\n      add\n        /* \"#utility.yul\":9259:9281   */\n      swap1\n      pop\n        /* \"#utility.yul\":9174:9287   */\n      swap2\n      swap1\n      pop\n      jump\t// out\n        /* \"#utility.yul\":9293:9425   */\n    tag_134:\n        /* \"#utility.yul\":9382:9386   */\n      0x00\n        /* \"#utility.yul\":9414:9418   */\n      0x20\n        /* \"#utility.yul\":9409:9412   */\n      dup3\n        /* \"#utility.yul\":9405:9419   */\n      add\n        /* \"#utility.yul\":9397:9419   */\n      swap1\n      pop\n        /* \"#utility.yul\":9293:9425   */\n      swap2\n      swap1\n      pop\n      jump\t// out\n        /* \"#utility.yul\":9431:9544   */\n    tag_148:\n        /* \"#utility.yul\":9501:9505   */\n      0x00\n        /* \"#utility.yul\":9533:9537   */\n      0x20\n        /* \"#utility.yul\":9528:9531   */\n      dup3\n        /* \"#utility.yul\":9524:9538   */\n      add\n        /* \"#utility.yul\":9516:9538   */\n      swap1\n      pop\n        /* \"#utility.yul\":9431:9544   */\n      swap2\n      swap1\n      pop\n      jump\t// out\n        /* \"#utility.yul\":9550:9734   */\n    tag_112:\n        /* \"#utility.yul\":9649:9660   */\n      0x00\n        /* \"#utility.yul\":9683:9689   */\n      dup3\n        /* \"#utility.yul\":9678:9681   */\n      dup3\n        /* \"#utility.yul\":9671:9690   */\n      mstore\n        /* \"#utility.yul\":9723:9727   */\n      0x20\n        /* \"#utility.yul\":9718:9721   */\n      dup3\n        /* \"#utility.yul\":9714:9728   */\n      add\n        /* \"#utility.yul\":9699:9728   */\n      swap1\n      pop\n        /* \"#utility.yul\":9550:9734   */\n      swap3\n      swap2\n      pop\n      pop\n      jump\t// out\n        /* \"#utility.yul\":9740:9943   */\n    tag_126:\n        /* \"#utility.yul\":9858:9869   */\n      0x00\n        /* \"#utility.yul\":9892:9898   */\n      dup3\n        /* \"#utility.yul\":9887:9890   */\n      dup3\n        /* \"#utility.yul\":9880:9899   */\n      mstore\n        /* \"#utility.yul\":9932:9936   */\n      0x20\n        /* \"#utility.yul\":9927:9930   */\n      dup3\n        /* \"#utility.yul\":9923:9937   */\n      add\n        /* \"#utility.yul\":9908:9937   */\n      swap1\n      pop\n        /* \"#utility.yul\":9740:9943   */\n      swap3\n      swap2\n      pop\n      pop\n      jump\t// out\n        /* \"#utility.yul\":9949:10133   */\n    tag_140:\n        /* \"#utility.yul\":10048:10059   */\n      0x00\n        /* \"#utility.yul\":10082:10088   */\n      dup3\n        /* \"#utility.yul\":10077:10080   */\n      dup3\n        /* \"#utility.yul\":10070:10089   */\n      mstore\n        /* \"#utility.yul\":10122:10126   */\n      0x20\n        /* \"#utility.yul\":10117:10120   */\n      dup3\n        /* \"#utility.yul\":10113:10127   */\n      add\n        /* \"#utility.yul\":10098:10127   */\n      swap1\n      pop\n        /* \"#utility.yul\":9949:10133   */\n      swap3\n      swap2\n      pop\n      pop\n      jump\t// out\n        /* \"#utility.yul\":10139:10235   */\n    tag_103:\n        /* \"#utility.yul\":10176:10183   */\n      0x00\n        /* \"#utility.yul\":10205:10229   */\n      tag_199\n        /* \"#utility.yul\":10223:10228   */\n      dup3\n        /* \"#utility.yul\":10205:10229   */\n      tag_200\n      jump\t// in\n    tag_199:\n        /* \"#utility.yul\":10194:10229   */\n      swap1\n      pop\n        /* \"#utility.yul\":10139:10235   */\n      swap2\n      swap1\n      pop\n      jump\t// out\n        /* \"#utility.yul\":10241:10331   */\n    tag_152:\n        /* \"#utility.yul\":10275:10282   */\n      0x00\n        /* \"#utility.yul\":10318:10323   */\n      dup2\n        /* \"#utility.yul\":10311:10324   */\n      iszero\n        /* \"#utility.yul\":10304:10325   */\n      iszero\n        /* \"#utility.yul\":10293:10325   */\n      swap1\n      pop\n        /* \"#utility.yul\":10241:10331   */\n      swap2\n      swap1\n      pop\n      jump\t// out\n        /* \"#utility.yul\":10337:10463   */\n    tag_200:\n        /* \"#utility.yul\":10374:10381   */\n      0x00\n        /* \"#utility.yul\":10414:10456   */\n      0xffffffffffffffffffffffffffffffffffffffff\n        /* \"#utility.yul\":10407:10412   */\n      dup3\n        /* \"#utility.yul\":10403:10457   */\n      and\n        /* \"#utility.yul\":10392:10457   */\n      swap1\n      pop\n        /* \"#utility.yul\":10337:10463   */\n      swap2\n      swap1\n      pop\n      jump\t// out\n        /* \"#utility.yul\":10469:10546   */\n    tag_167:\n        /* \"#utility.yul\":10506:10513   */\n      0x00\n        /* \"#utility.yul\":10535:10540   */\n      dup2\n        /* \"#utility.yul\":10524:10540   */\n      swap1\n      pop\n        /* \"#utility.yul\":10469:10546   */\n      swap2\n      swap1\n      pop\n      jump\t// out\n        /* \"#utility.yul\":10552:10785   */\n    tag_38:\n        /* \"#utility.yul\":10591:10594   */\n      0x00\n        /* \"#utility.yul\":10614:10638   */\n      tag_205\n        /* \"#utility.yul\":10632:10637   */\n      dup3\n        /* \"#utility.yul\":10614:10638   */\n      tag_167\n      jump\t// in\n    tag_205:\n        /* \"#utility.yul\":10605:10638   */\n      swap2\n      pop\n        /* \"#utility.yul\":10660:10726   */\n      0xffffffffffffffffffffffffffffffffffffffffffffffffffffffffffffffff\n        /* \"#utility.yul\":10653:10658   */\n      dup3\n        /* \"#utility.yul\":10650:10727   */\n      eq\n        /* \"#utility.yul\":10647:10750   */\n      iszero\n      tag_206\n      jumpi\n        /* \"#utility.yul\":10730:10748   */\n      tag_207\n      tag_208\n      jump\t// in\n    tag_207:\n        /* \"#utility.yul\":10647:10750   */\n    tag_206:\n        /* \"#utility.yul\":10777:10778   */\n      0x01\n        /* \"#utility.yul\":10770:10775   */\n      dup3\n        /* \"#utility.yul\":10766:10779   */\n      add\n        /* \"#utility.yul\":10759:10779   */\n      swap1\n      pop\n        /* \"#utility.yul\":10552:10785   */\n      swap2\n      swap1\n      pop\n      jump\t// out\n        /* \"#utility.yul\":10791:10971   */\n    tag_208:\n        /* \"#utility.yul\":10839:10916   */\n      0x4e487b7100000000000000000000000000000000000000000000000000000000\n        /* \"#utility.yul\":10836:10837   */\n      0x00\n        /* \"#utility.yul\":10829:10917   */\n      mstore\n        /* \"#utility.yul\":10936:10940   */\n      0x11\n        /* \"#utility.yul\":10933:10934   */\n      0x04\n        /* \"#utility.yul\":10926:10941   */\n      mstore\n        /* \"#utility.yul\":10960:10964   */\n      0x24\n        /* \"#utility.yul\":10957:10958   */\n      0x00\n        /* \"#utility.yul\":10950:10965   */\n      revert\n        /* \"#utility.yul\":10977:11157   */\n    tag_52:\n        /* \"#utility.yul\":11025:11102   */\n      0x4e487b7100000000000000000000000000000000000000000000000000000000\n        /* \"#utility.yul\":11022:11023   */\n      0x00\n        /* \"#utility.yul\":11015:11103   */\n      mstore\n        /* \"#utility.yul\":11122:11126   */\n      0x32\n        /* \"#utility.yul\":11119:11120   */\n      0x04\n        /* \"#utility.yul\":11112:11127   */\n      mstore\n        /* \"#utility.yul\":11146:11150   */\n      0x24\n        /* \"#utility.yul\":11143:11144   */\n      0x00\n        /* \"#utility.yul\":11136:11151   */\n      revert\n        /* \"#utility.yul\":11163:11343   */\n    tag_42:\n        /* \"#utility.yul\":11211:11288   */\n      0x4e487b7100000000000000000000000000000000000000000000000000000000\n        /* \"#utility.yul\":11208:11209   */\n      0x00\n        /* \"#utility.yul\":11201:11289   */\n      mstore\n        /* \"#utility.yul\":11308:11312   */\n      0x41\n        /* \"#utility.yul\":11305:11306   */\n      0x04\n        /* \"#utility.yul\":11298:11313   */\n      mstore\n        /* \"#utility.yul\":11332:11336   */\n      0x24\n        /* \"#utility.yul\":11329:11330   */\n      0x00\n        /* \"#utility.yul\":11322:11337   */\n      revert\n        /* \"#utility.yul\":11472:11589   */\n    tag_83:\n        /* \"#utility.yul\":11581:11582   */\n      0x00\n        /* \"#utility.yul\":11578:11579   */\n      dup1\n        /* \"#utility.yul\":11571:11583   */\n      revert\n        /* \"#utility.yul\":11595:11717   */\n    tag_75:\n        /* \"#utility.yul\":11668:11692   */\n      tag_216\n        /* \"#utility.yul\":11686:11691   */\n      dup2\n        /* \"#utility.yul\":11668:11692   */\n      tag_103\n      jump\t// in\n    tag_216:\n        /* \"#utility.yul\":11661:11666   */\n      dup2\n        /* \"#utility.yul\":11658:11693   */\n      eq\n        /* \"#utility.yul\":11648:11711   */\n      tag_217\n      jumpi\n        /* \"#utility.yul\":11707:11708   */\n      0x00\n        /* \"#utility.yul\":11704:11705   */\n      dup1\n        /* \"#utility.yul\":11697:11709   */\n      revert\n        /* \"#utility.yul\":11648:11711   */\n    tag_217:\n        /* \"#utility.yul\":11595:11717   */\n      pop\n      jump\t// out\n        /* \"#utility.yul\":11723:11845   */\n    tag_79:\n        /* \"#utility.yul\":11796:11820   */\n      tag_219\n        /* \"#utility.yul\":11814:11819   */\n      dup2\n        /* \"#utility.yul\":11796:11820   */\n      tag_167\n      jump\t// in\n    tag_219:\n        /* \"#utility.yul\":11789:11794   */\n      dup2\n        /* \"#utility.yul\":11786:11821   */\n      eq\n        /* \"#utility.yul\":11776:11839   */\n      tag_220\n      jumpi\n        /* \"#utility.yul\":11835:11836   */\n      0x00\n        /* \"#utility.yul\":11832:11833   */\n      dup1\n        /* \"#utility.yul\":11825:11837   */\n      revert\n        /* \"#utility.yul\":11776:11839   */\n    tag_220:\n        /* \"#utility.yul\":11723:11845   */\n      pop\n      jump\t// out\n\n    auxdata: 0xa2646970667358221220f2e15d77930072e21e14a360b41ab12abf082c1a21af67c361c67d01abf9501e64736f6c63430008070033\n}\n",
				"bytecode": {
					"linkReferences": {},
					"object": "608060405234801561001057600080fd5b506000600181905550610bcd806100286000396000f3fe608060405234801561001057600080fd5b50600436106100625760003560e01c8063193de85d146100675780635fb07a621461008357806392812e6f146100a15780639507d39a146100bf578063f2a50281146100ef578063fca5e61e1461010e575b600080fd5b610081600480360381019061007c919061063b565b610140565b005b61008b610219565b60405161009891906108d5565b60405180910390f35b6100a9610359565b6040516100b69190610949565b60405180910390f35b6100d960048036038101906100d49190610668565b61035f565b6040516100e6919061092e565b60405180910390f35b6100f7610406565b6040516101059291906108f7565b60405180910390f35b61012860048036038101906101239190610668565b610581565b60405161013793929190610964565b60405180910390f35b604051806060016040528060015481526020018273ffffffffffffffffffffffffffffffffffffffff1681526020016001151581525060008060015481526020019081526020016000206000820151816000015560208201518160010160006101000a81548173ffffffffffffffffffffffffffffffffffffffff021916908373ffffffffffffffffffffffffffffffffffffffff16021790555060408201518160010160146101000a81548160ff0219169083151502179055509050506001600081548092919061021190610a8e565b919050555050565b6060600060015467ffffffffffffffff81111561023957610238610b35565b5b60405190808252806020026020018201604052801561027257816020015b61025f6105d8565b8152602001906001900390816102575790505b50905060005b600154811015610351576000806000838152602001908152602001600020905080604051806060016040529081600082015481526020016001820160009054906101000a900473ffffffffffffffffffffffffffffffffffffffff1673ffffffffffffffffffffffffffffffffffffffff1673ffffffffffffffffffffffffffffffffffffffff1681526020016001820160149054906101000a900460ff16151515158152505083838151811061033257610331610b06565b5b602002602001018190525050808061034990610a8e565b915050610278565b508091505090565b60015481565b6103676105d8565b600080838152602001908152602001600020604051806060016040529081600082015481526020016001820160009054906101000a900473ffffffffffffffffffffffffffffffffffffffff1673ffffffffffffffffffffffffffffffffffffffff1673ffffffffffffffffffffffffffffffffffffffff1681526020016001820160149054906101000a900460ff1615151515815250509050919050565b606080600060015467ffffffffffffffff81111561042757610426610b35565b5b6040519080825280602002602001820160405280156104555781602001602082028036833780820191505090505b509050600060015467ffffffffffffffff81111561047657610475610b35565b5b6040519080825280602002602001820160405280156104a45781602001602082028036833780820191505090505b50905060005b600154811015610574576000806000838152602001908152602001600020905080600001548483815181106104e2576104e1610b06565b5b6020026020010181815250508060010160009054906101000a900473ffffffffffffffffffffffffffffffffffffffff1683838151811061052657610525610b06565b5b602002602001019073ffffffffffffffffffffffffffffffffffffffff16908173ffffffffffffffffffffffffffffffffffffffff168152505050808061056c90610a8e565b9150506104aa565b5081819350935050509091565b60006020528060005260406000206000915090508060000154908060010160009054906101000a900473ffffffffffffffffffffffffffffffffffffffff16908060010160149054906101000a900460ff16905083565b604051806060016040528060008152602001600073ffffffffffffffffffffffffffffffffffffffff1681526020016000151581525090565b60008135905061062081610b69565b92915050565b60008135905061063581610b80565b92915050565b60006020828403121561065157610650610b64565b5b600061065f84828501610611565b91505092915050565b60006020828403121561067e5761067d610b64565b5b600061068c84828501610626565b91505092915050565b60006106a183836106dd565b60208301905092915050565b60006106b98383610833565b60608301905092915050565b60006106d183836108b7565b60208301905092915050565b6106e681610a46565b82525050565b6106f581610a46565b82525050565b6000610706826109cb565b6107108185610a13565b935061071b8361099b565b8060005b8381101561074c5781516107338882610695565b975061073e836109ec565b92505060018101905061071f565b5085935050505092915050565b6000610764826109d6565b61076e8185610a24565b9350610779836109ab565b8060005b838110156107aa57815161079188826106ad565b975061079c836109f9565b92505060018101905061077d565b5085935050505092915050565b60006107c2826109e1565b6107cc8185610a35565b93506107d7836109bb565b8060005b838110156108085781516107ef88826106c5565b97506107fa83610a06565b9250506001810190506107db565b5085935050505092915050565b61081e81610a58565b82525050565b61082d81610a58565b82525050565b60608201600082015161084960008501826108b7565b50602082015161085c60208501826106dd565b50604082015161086f6040850182610815565b50505050565b60608201600082015161088b60008501826108b7565b50602082015161089e60208501826106dd565b5060408201516108b16040850182610815565b50505050565b6108c081610a84565b82525050565b6108cf81610a84565b82525050565b600060208201905081810360008301526108ef8184610759565b905092915050565b6000604082019050818103600083015261091181856107b7565b9050818103602083015261092581846106fb565b90509392505050565b60006060820190506109436000830184610875565b92915050565b600060208201905061095e60008301846108c6565b92915050565b600060608201905061097960008301866108c6565b61098660208301856106ec565b6109936040830184610824565b949350505050565b6000819050602082019050919050565b6000819050602082019050919050565b6000819050602082019050919050565b600081519050919050565b600081519050919050565b600081519050919050565b6000602082019050919050565b6000602082019050919050565b6000602082019050919050565b600082825260208201905092915050565b600082825260208201905092915050565b600082825260208201905092915050565b6000610a5182610a64565b9050919050565b60008115159050919050565b600073ffffffffffffffffffffffffffffffffffffffff82169050919050565b6000819050919050565b6000610a9982610a84565b91507fffffffffffffffffffffffffffffffffffffffffffffffffffffffffffffffff821415610acc57610acb610ad7565b5b600182019050919050565b7f4e487b7100000000000000000000000000000000000000000000000000000000600052601160045260246000fd5b7f4e487b7100000000000000000000000000000000000000000000000000000000600052603260045260246000fd5b7f4e487b7100000000000000000000000000000000000000000000000000000000600052604160045260246000fd5b600080fd5b610b7281610a46565b8114610b7d57600080fd5b50565b610b8981610a84565b8114610b9457600080fd5b5056fea2646970667358221220f2e15d77930072e21e14a360b41ab12abf082c1a21af67c361c67d01abf9501e64736f6c63430008070033",
					"opcodes": "PUSH1 0x80 PUSH1 0x40 MSTORE CALLVALUE DUP1 ISZERO PUSH2 0x10 JUMPI PUSH1 0x0 DUP1 REVERT JUMPDEST POP PUSH1 0x0 PUSH1 0x1 DUP2 SWAP1 SSTORE POP PUSH2 0xBCD DUP1 PUSH2 0x28 PUSH1 0x0 CODECOPY PUSH1 0x0 RETURN INVALID PUSH1 0x80 PUSH1 0x40 MSTORE CALLVALUE DUP1 ISZERO PUSH2 0x10 JUMPI PUSH1 0x0 DUP1 REVERT JUMPDEST POP PUSH1 0x4 CALLDATASIZE LT PUSH2 0x62 JUMPI PUSH1 0x0 CALLDATALOAD PUSH1 0xE0 SHR DUP1 PUSH4 0x193DE85D EQ PUSH2 0x67 JUMPI DUP1 PUSH4 0x5FB07A62 EQ PUSH2 0x83 JUMPI DUP1 PUSH4 0x92812E6F EQ PUSH2 0xA1 JUMPI DUP1 PUSH4 0x9507D39A EQ PUSH2 0xBF JUMPI DUP1 PUSH4 0xF2A50281 EQ PUSH2 0xEF JUMPI DUP1 PUSH4 0xFCA5E61E EQ PUSH2 0x10E JUMPI JUMPDEST PUSH1 0x0 DUP1 REVERT JUMPDEST PUSH2 0x81 PUSH1 0x4 DUP1 CALLDATASIZE SUB DUP2 ADD SWAP1 PUSH2 0x7C SWAP2 SWAP1 PUSH2 0x63B JUMP JUMPDEST PUSH2 0x140 JUMP JUMPDEST STOP JUMPDEST PUSH2 0x8B PUSH2 0x219 JUMP JUMPDEST PUSH1 0x40 MLOAD PUSH2 0x98 SWAP2 SWAP1 PUSH2 0x8D5 JUMP JUMPDEST PUSH1 0x40 MLOAD DUP1 SWAP2 SUB SWAP1 RETURN JUMPDEST PUSH2 0xA9 PUSH2 0x359 JUMP JUMPDEST PUSH1 0x40 MLOAD PUSH2 0xB6 SWAP2 SWAP1 PUSH2 0x949 JUMP JUMPDEST PUSH1 0x40 MLOAD DUP1 SWAP2 SUB SWAP1 RETURN JUMPDEST PUSH2 0xD9 PUSH1 0x4 DUP1 CALLDATASIZE SUB DUP2 ADD SWAP1 PUSH2 0xD4 SWAP2 SWAP1 PUSH2 0x668 JUMP JUMPDEST PUSH2 0x35F JUMP JUMPDEST PUSH1 0x40 MLOAD PUSH2 0xE6 SWAP2 SWAP1 PUSH2 0x92E JUMP JUMPDEST PUSH1 0x40 MLOAD DUP1 SWAP2 SUB SWAP1 RETURN JUMPDEST PUSH2 0xF7 PUSH2 0x406 JUMP JUMPDEST PUSH1 0x40 MLOAD PUSH2 0x105 SWAP3 SWAP2 SWAP1 PUSH2 0x8F7 JUMP JUMPDEST PUSH1 0x40 MLOAD DUP1 SWAP2 SUB SWAP1 RETURN JUMPDEST PUSH2 0x128 PUSH1 0x4 DUP1 CALLDATASIZE SUB DUP2 ADD SWAP1 PUSH2 0x123 SWAP2 SWAP1 PUSH2 0x668 JUMP JUMPDEST PUSH2 0x581 JUMP JUMPDEST PUSH1 0x40 MLOAD PUSH2 0x137 SWAP4 SWAP3 SWAP2 SWAP1 PUSH2 0x964 JUMP JUMPDEST PUSH1 0x40 MLOAD DUP1 SWAP2 SUB SWAP1 RETURN JUMPDEST PUSH1 0x40 MLOAD DUP1 PUSH1 0x60 ADD PUSH1 0x40 MSTORE DUP1 PUSH1 0x1 SLOAD DUP2 MSTORE PUSH1 0x20 ADD DUP3 PUSH20 0xFFFFFFFFFFFFFFFFFFFFFFFFFFFFFFFFFFFFFFFF AND DUP2 MSTORE PUSH1 0x20 ADD PUSH1 0x1 ISZERO ISZERO DUP2 MSTORE POP PUSH1 0x0 DUP1 PUSH1 0x1 SLOAD DUP2 MSTORE PUSH1 0x20 ADD SWAP1 DUP2 MSTORE PUSH1 0x20 ADD PUSH1 0x0 KECCAK256 PUSH1 0x0 DUP3 ADD MLOAD DUP2 PUSH1 0x0 ADD SSTORE PUSH1 0x20 DUP3 ADD MLOAD DUP2 PUSH1 0x1 ADD PUSH1 0x0 PUSH2 0x100 EXP DUP2 SLOAD DUP2 PUSH20 0xFFFFFFFFFFFFFFFFFFFFFFFFFFFFFFFFFFFFFFFF MUL NOT AND SWAP1 DUP4 PUSH20 0xFFFFFFFFFFFFFFFFFFFFFFFFFFFFFFFFFFFFFFFF AND MUL OR SWAP1 SSTORE POP PUSH1 0x40 DUP3 ADD MLOAD DUP2 PUSH1 0x1 ADD PUSH1 0x14 PUSH2 0x100 EXP DUP2 SLOAD DUP2 PUSH1 0xFF MUL NOT AND SWAP1 DUP4 ISZERO ISZERO MUL OR SWAP1 SSTORE POP SWAP1 POP POP PUSH1 0x1 PUSH1 0x0 DUP2 SLOAD DUP1 SWAP3 SWAP2 SWAP1 PUSH2 0x211 SWAP1 PUSH2 0xA8E JUMP JUMPDEST SWAP2 SWAP1 POP SSTORE POP POP JUMP JUMPDEST PUSH1 0x60 PUSH1 0x0 PUSH1 0x1 SLOAD PUSH8 0xFFFFFFFFFFFFFFFF DUP2 GT ISZERO PUSH2 0x239 JUMPI PUSH2 0x238 PUSH2 0xB35 JUMP JUMPDEST JUMPDEST PUSH1 0x40 MLOAD SWAP1 DUP1 DUP3 MSTORE DUP1 PUSH1 0x20 MUL PUSH1 0x20 ADD DUP3 ADD PUSH1 0x40 MSTORE DUP1 ISZERO PUSH2 0x272 JUMPI DUP2 PUSH1 0x20 ADD JUMPDEST PUSH2 0x25F PUSH2 0x5D8 JUMP JUMPDEST DUP2 MSTORE PUSH1 0x20 ADD SWAP1 PUSH1 0x1 SWAP1 SUB SWAP1 DUP2 PUSH2 0x257 JUMPI SWAP1 POP JUMPDEST POP SWAP1 POP PUSH1 0x0 JUMPDEST PUSH1 0x1 SLOAD DUP2 LT ISZERO PUSH2 0x351 JUMPI PUSH1 0x0 DUP1 PUSH1 0x0 DUP4 DUP2 MSTORE PUSH1 0x20 ADD SWAP1 DUP2 MSTORE PUSH1 0x20 ADD PUSH1 0x0 KECCAK256 SWAP1 POP DUP1 PUSH1 0x40 MLOAD DUP1 PUSH1 0x60 ADD PUSH1 0x40 MSTORE SWAP1 DUP2 PUSH1 0x0 DUP3 ADD SLOAD DUP2 MSTORE PUSH1 0x20 ADD PUSH1 0x1 DUP3 ADD PUSH1 0x0 SWAP1 SLOAD SWAP1 PUSH2 0x100 EXP SWAP1 DIV PUSH20 0xFFFFFFFFFFFFFFFFFFFFFFFFFFFFFFFFFFFFFFFF AND PUSH20 0xFFFFFFFFFFFFFFFFFFFFFFFFFFFFFFFFFFFFFFFF AND PUSH20 0xFFFFFFFFFFFFFFFFFFFFFFFFFFFFFFFFFFFFFFFF AND DUP2 MSTORE PUSH1 0x20 ADD PUSH1 0x1 DUP3 ADD PUSH1 0x14 SWAP1 SLOAD SWAP1 PUSH2 0x100 EXP SWAP1 DIV PUSH1 0xFF AND ISZERO ISZERO ISZERO ISZERO DUP2 MSTORE POP POP DUP4 DUP4 DUP2 MLOAD DUP2 LT PUSH2 0x332 JUMPI PUSH2 0x331 PUSH2 0xB06 JUMP JUMPDEST JUMPDEST PUSH1 0x20 MUL PUSH1 0x20 ADD ADD DUP2 SWAP1 MSTORE POP POP DUP1 DUP1 PUSH2 0x349 SWAP1 PUSH2 0xA8E JUMP JUMPDEST SWAP2 POP POP PUSH2 0x278 JUMP JUMPDEST POP DUP1 SWAP2 POP POP SWAP1 JUMP JUMPDEST PUSH1 0x1 SLOAD DUP2 JUMP JUMPDEST PUSH2 0x367 PUSH2 0x5D8 JUMP JUMPDEST PUSH1 0x0 DUP1 DUP4 DUP2 MSTORE PUSH1 0x20 ADD SWAP1 DUP2 MSTORE PUSH1 0x20 ADD PUSH1 0x0 KECCAK256 PUSH1 0x40 MLOAD DUP1 PUSH1 0x60 ADD PUSH1 0x40 MSTORE SWAP1 DUP2 PUSH1 0x0 DUP3 ADD SLOAD DUP2 MSTORE PUSH1 0x20 ADD PUSH1 0x1 DUP3 ADD PUSH1 0x0 SWAP1 SLOAD SWAP1 PUSH2 0x100 EXP SWAP1 DIV PUSH20 0xFFFFFFFFFFFFFFFFFFFFFFFFFFFFFFFFFFFFFFFF AND PUSH20 0xFFFFFFFFFFFFFFFFFFFFFFFFFFFFFFFFFFFFFFFF AND PUSH20 0xFFFFFFFFFFFFFFFFFFFFFFFFFFFFFFFFFFFFFFFF AND DUP2 MSTORE PUSH1 0x20 ADD PUSH1 0x1 DUP3 ADD PUSH1 0x14 SWAP1 SLOAD SWAP1 PUSH2 0x100 EXP SWAP1 DIV PUSH1 0xFF AND ISZERO ISZERO ISZERO ISZERO DUP2 MSTORE POP POP SWAP1 POP SWAP2 SWAP1 POP JUMP JUMPDEST PUSH1 0x60 DUP1 PUSH1 0x0 PUSH1 0x1 SLOAD PUSH8 0xFFFFFFFFFFFFFFFF DUP2 GT ISZERO PUSH2 0x427 JUMPI PUSH2 0x426 PUSH2 0xB35 JUMP JUMPDEST JUMPDEST PUSH1 0x40 MLOAD SWAP1 DUP1 DUP3 MSTORE DUP1 PUSH1 0x20 MUL PUSH1 0x20 ADD DUP3 ADD PUSH1 0x40 MSTORE DUP1 ISZERO PUSH2 0x455 JUMPI DUP2 PUSH1 0x20 ADD PUSH1 0x20 DUP3 MUL DUP1 CALLDATASIZE DUP4 CALLDATACOPY DUP1 DUP3 ADD SWAP2 POP POP SWAP1 POP JUMPDEST POP SWAP1 POP PUSH1 0x0 PUSH1 0x1 SLOAD PUSH8 0xFFFFFFFFFFFFFFFF DUP2 GT ISZERO PUSH2 0x476 JUMPI PUSH2 0x475 PUSH2 0xB35 JUMP JUMPDEST JUMPDEST PUSH1 0x40 MLOAD SWAP1 DUP1 DUP3 MSTORE DUP1 PUSH1 0x20 MUL PUSH1 0x20 ADD DUP3 ADD PUSH1 0x40 MSTORE DUP1 ISZERO PUSH2 0x4A4 JUMPI DUP2 PUSH1 0x20 ADD PUSH1 0x20 DUP3 MUL DUP1 CALLDATASIZE DUP4 CALLDATACOPY DUP1 DUP3 ADD SWAP2 POP POP SWAP1 POP JUMPDEST POP SWAP1 POP PUSH1 0x0 JUMPDEST PUSH1 0x1 SLOAD DUP2 LT ISZERO PUSH2 0x574 JUMPI PUSH1 0x0 DUP1 PUSH1 0x0 DUP4 DUP2 MSTORE PUSH1 0x20 ADD SWAP1 DUP2 MSTORE PUSH1 0x20 ADD PUSH1 0x0 KECCAK256 SWAP1 POP DUP1 PUSH1 0x0 ADD SLOAD DUP5 DUP4 DUP2 MLOAD DUP2 LT PUSH2 0x4E2 JUMPI PUSH2 0x4E1 PUSH2 0xB06 JUMP JUMPDEST JUMPDEST PUSH1 0x20 MUL PUSH1 0x20 ADD ADD DUP2 DUP2 MSTORE POP POP DUP1 PUSH1 0x1 ADD PUSH1 0x0 SWAP1 SLOAD SWAP1 PUSH2 0x100 EXP SWAP1 DIV PUSH20 0xFFFFFFFFFFFFFFFFFFFFFFFFFFFFFFFFFFFFFFFF AND DUP4 DUP4 DUP2 MLOAD DUP2 LT PUSH2 0x526 JUMPI PUSH2 0x525 PUSH2 0xB06 JUMP JUMPDEST JUMPDEST PUSH1 0x20 MUL PUSH1 0x20 ADD ADD SWAP1 PUSH20 0xFFFFFFFFFFFFFFFFFFFFFFFFFFFFFFFFFFFFFFFF AND SWAP1 DUP2 PUSH20 0xFFFFFFFFFFFFFFFFFFFFFFFFFFFFFFFFFFFFFFFF AND DUP2 MSTORE POP POP POP DUP1 DUP1 PUSH2 0x56C SWAP1 PUSH2 0xA8E JUMP JUMPDEST SWAP2 POP POP PUSH2 0x4AA JUMP JUMPDEST POP DUP2 DUP2 SWAP4 POP SWAP4 POP POP POP SWAP1 SWAP2 JUMP JUMPDEST PUSH1 0x0 PUSH1 0x20 MSTORE DUP1 PUSH1 0x0 MSTORE PUSH1 0x40 PUSH1 0x0 KECCAK256 PUSH1 0x0 SWAP2 POP SWAP1 POP DUP1 PUSH1 0x0 ADD SLOAD SWAP1 DUP1 PUSH1 0x1 ADD PUSH1 0x0 SWAP1 SLOAD SWAP1 PUSH2 0x100 EXP SWAP1 DIV PUSH20 0xFFFFFFFFFFFFFFFFFFFFFFFFFFFFFFFFFFFFFFFF AND SWAP1 DUP1 PUSH1 0x1 ADD PUSH1 0x14 SWAP1 SLOAD SWAP1 PUSH2 0x100 EXP SWAP1 DIV PUSH1 0xFF AND SWAP1 POP DUP4 JUMP JUMPDEST PUSH1 0x40 MLOAD DUP1 PUSH1 0x60 ADD PUSH1 0x40 MSTORE DUP1 PUSH1 0x0 DUP2 MSTORE PUSH1 0x20 ADD PUSH1 0x0 PUSH20 0xFFFFFFFFFFFFFFFFFFFFFFFFFFFFFFFFFFFFFFFF AND DUP2 MSTORE PUSH1 0x20 ADD PUSH1 0x0 ISZERO ISZERO DUP2 MSTORE POP SWAP1 JUMP JUMPDEST PUSH1 0x0 DUP2 CALLDATALOAD SWAP1 POP PUSH2 0x620 DUP2 PUSH2 0xB69 JUMP JUMPDEST SWAP3 SWAP2 POP POP JUMP JUMPDEST PUSH1 0x0 DUP2 CALLDATALOAD SWAP1 POP PUSH2 0x635 DUP2 PUSH2 0xB80 JUMP JUMPDEST SWAP3 SWAP2 POP POP JUMP JUMPDEST PUSH1 0x0 PUSH1 0x20 DUP3 DUP5 SUB SLT ISZERO PUSH2 0x651 JUMPI PUSH2 0x650 PUSH2 0xB64 JUMP JUMPDEST JUMPDEST PUSH1 0x0 PUSH2 0x65F DUP5 DUP3 DUP6 ADD PUSH2 0x611 JUMP JUMPDEST SWAP2 POP POP SWAP3 SWAP2 POP POP JUMP JUMPDEST PUSH1 0x0 PUSH1 0x20 DUP3 DUP5 SUB SLT ISZERO PUSH2 0x67E JUMPI PUSH2 0x67D PUSH2 0xB64 JUMP JUMPDEST JUMPDEST PUSH1 0x0 PUSH2 0x68C DUP5 DUP3 DUP6 ADD PUSH2 0x626 JUMP JUMPDEST SWAP2 POP POP SWAP3 SWAP2 POP POP JUMP JUMPDEST PUSH1 0x0 PUSH2 0x6A1 DUP4 DUP4 PUSH2 0x6DD JUMP JUMPDEST PUSH1 0x20 DUP4 ADD SWAP1 POP SWAP3 SWAP2 POP POP JUMP JUMPDEST PUSH1 0x0 PUSH2 0x6B9 DUP4 DUP4 PUSH2 0x833 JUMP JUMPDEST PUSH1 0x60 DUP4 ADD SWAP1 POP SWAP3 SWAP2 POP POP JUMP JUMPDEST PUSH1 0x0 PUSH2 0x6D1 DUP4 DUP4 PUSH2 0x8B7 JUMP JUMPDEST PUSH1 0x20 DUP4 ADD SWAP1 POP SWAP3 SWAP2 POP POP JUMP JUMPDEST PUSH2 0x6E6 DUP2 PUSH2 0xA46 JUMP JUMPDEST DUP3 MSTORE POP POP JUMP JUMPDEST PUSH2 0x6F5 DUP2 PUSH2 0xA46 JUMP JUMPDEST DUP3 MSTORE POP POP JUMP JUMPDEST PUSH1 0x0 PUSH2 0x706 DUP3 PUSH2 0x9CB JUMP JUMPDEST PUSH2 0x710 DUP2 DUP6 PUSH2 0xA13 JUMP JUMPDEST SWAP4 POP PUSH2 0x71B DUP4 PUSH2 0x99B JUMP JUMPDEST DUP1 PUSH1 0x0 JUMPDEST DUP4 DUP2 LT ISZERO PUSH2 0x74C JUMPI DUP2 MLOAD PUSH2 0x733 DUP9 DUP3 PUSH2 0x695 JUMP JUMPDEST SWAP8 POP PUSH2 0x73E DUP4 PUSH2 0x9EC JUMP JUMPDEST SWAP3 POP POP PUSH1 0x1 DUP2 ADD SWAP1 POP PUSH2 0x71F JUMP JUMPDEST POP DUP6 SWAP4 POP POP POP POP SWAP3 SWAP2 POP POP JUMP JUMPDEST PUSH1 0x0 PUSH2 0x764 DUP3 PUSH2 0x9D6 JUMP JUMPDEST PUSH2 0x76E DUP2 DUP6 PUSH2 0xA24 JUMP JUMPDEST SWAP4 POP PUSH2 0x779 DUP4 PUSH2 0x9AB JUMP JUMPDEST DUP1 PUSH1 0x0 JUMPDEST DUP4 DUP2 LT ISZERO PUSH2 0x7AA JUMPI DUP2 MLOAD PUSH2 0x791 DUP9 DUP3 PUSH2 0x6AD JUMP JUMPDEST SWAP8 POP PUSH2 0x79C DUP4 PUSH2 0x9F9 JUMP JUMPDEST SWAP3 POP POP PUSH1 0x1 DUP2 ADD SWAP1 POP PUSH2 0x77D JUMP JUMPDEST POP DUP6 SWAP4 POP POP POP POP SWAP3 SWAP2 POP POP JUMP JUMPDEST PUSH1 0x0 PUSH2 0x7C2 DUP3 PUSH2 0x9E1 JUMP JUMPDEST PUSH2 0x7CC DUP2 DUP6 PUSH2 0xA35 JUMP JUMPDEST SWAP4 POP PUSH2 0x7D7 DUP4 PUSH2 0x9BB JUMP JUMPDEST DUP1 PUSH1 0x0 JUMPDEST DUP4 DUP2 LT ISZERO PUSH2 0x808 JUMPI DUP2 MLOAD PUSH2 0x7EF DUP9 DUP3 PUSH2 0x6C5 JUMP JUMPDEST SWAP8 POP PUSH2 0x7FA DUP4 PUSH2 0xA06 JUMP JUMPDEST SWAP3 POP POP PUSH1 0x1 DUP2 ADD SWAP1 POP PUSH2 0x7DB JUMP JUMPDEST POP DUP6 SWAP4 POP POP POP POP SWAP3 SWAP2 POP POP JUMP JUMPDEST PUSH2 0x81E DUP2 PUSH2 0xA58 JUMP JUMPDEST DUP3 MSTORE POP POP JUMP JUMPDEST PUSH2 0x82D DUP2 PUSH2 0xA58 JUMP JUMPDEST DUP3 MSTORE POP POP JUMP JUMPDEST PUSH1 0x60 DUP3 ADD PUSH1 0x0 DUP3 ADD MLOAD PUSH2 0x849 PUSH1 0x0 DUP6 ADD DUP3 PUSH2 0x8B7 JUMP JUMPDEST POP PUSH1 0x20 DUP3 ADD MLOAD PUSH2 0x85C PUSH1 0x20 DUP6 ADD DUP3 PUSH2 0x6DD JUMP JUMPDEST POP PUSH1 0x40 DUP3 ADD MLOAD PUSH2 0x86F PUSH1 0x40 DUP6 ADD DUP3 PUSH2 0x815 JUMP JUMPDEST POP POP POP POP JUMP JUMPDEST PUSH1 0x60 DUP3 ADD PUSH1 0x0 DUP3 ADD MLOAD PUSH2 0x88B PUSH1 0x0 DUP6 ADD DUP3 PUSH2 0x8B7 JUMP JUMPDEST POP PUSH1 0x20 DUP3 ADD MLOAD PUSH2 0x89E PUSH1 0x20 DUP6 ADD DUP3 PUSH2 0x6DD JUMP JUMPDEST POP PUSH1 0x40 DUP3 ADD MLOAD PUSH2 0x8B1 PUSH1 0x40 DUP6 ADD DUP3 PUSH2 0x815 JUMP JUMPDEST POP POP POP POP JUMP JUMPDEST PUSH2 0x8C0 DUP2 PUSH2 0xA84 JUMP JUMPDEST DUP3 MSTORE POP POP JUMP JUMPDEST PUSH2 0x8CF DUP2 PUSH2 0xA84 JUMP JUMPDEST DUP3 MSTORE POP POP JUMP JUMPDEST PUSH1 0x0 PUSH1 0x20 DUP3 ADD SWAP1 POP DUP2 DUP2 SUB PUSH1 0x0 DUP4 ADD MSTORE PUSH2 0x8EF DUP2 DUP5 PUSH2 0x759 JUMP JUMPDEST SWAP1 POP SWAP3 SWAP2 POP POP JUMP JUMPDEST PUSH1 0x0 PUSH1 0x40 DUP3 ADD SWAP1 POP DUP2 DUP2 SUB PUSH1 0x0 DUP4 ADD MSTORE PUSH2 0x911 DUP2 DUP6 PUSH2 0x7B7 JUMP JUMPDEST SWAP1 POP DUP2 DUP2 SUB PUSH1 0x20 DUP4 ADD MSTORE PUSH2 0x925 DUP2 DUP5 PUSH2 0x6FB JUMP JUMPDEST SWAP1 POP SWAP4 SWAP3 POP POP POP JUMP JUMPDEST PUSH1 0x0 PUSH1 0x60 DUP3 ADD SWAP1 POP PUSH2 0x943 PUSH1 0x0 DUP4 ADD DUP5 PUSH2 0x875 JUMP JUMPDEST SWAP3 SWAP2 POP POP JUMP JUMPDEST PUSH1 0x0 PUSH1 0x20 DUP3 ADD SWAP1 POP PUSH2 0x95E PUSH1 0x0 DUP4 ADD DUP5 PUSH2 0x8C6 JUMP JUMPDEST SWAP3 SWAP2 POP POP JUMP JUMPDEST PUSH1 0x0 PUSH1 0x60 DUP3 ADD SWAP1 POP PUSH2 0x979 PUSH1 0x0 DUP4 ADD DUP7 PUSH2 0x8C6 JUMP JUMPDEST PUSH2 0x986 PUSH1 0x20 DUP4 ADD DUP6 PUSH2 0x6EC JUMP JUMPDEST PUSH2 0x993 PUSH1 0x40 DUP4 ADD DUP5 PUSH2 0x824 JUMP JUMPDEST SWAP5 SWAP4 POP POP POP POP JUMP JUMPDEST PUSH1 0x0 DUP2 SWAP1 POP PUSH1 0x20 DUP3 ADD SWAP1 POP SWAP2 SWAP1 POP JUMP JUMPDEST PUSH1 0x0 DUP2 SWAP1 POP PUSH1 0x20 DUP3 ADD SWAP1 POP SWAP2 SWAP1 POP JUMP JUMPDEST PUSH1 0x0 DUP2 SWAP1 POP PUSH1 0x20 DUP3 ADD SWAP1 POP SWAP2 SWAP1 POP JUMP JUMPDEST PUSH1 0x0 DUP2 MLOAD SWAP1 POP SWAP2 SWAP1 POP JUMP JUMPDEST PUSH1 0x0 DUP2 MLOAD SWAP1 POP SWAP2 SWAP1 POP JUMP JUMPDEST PUSH1 0x0 DUP2 MLOAD SWAP1 POP SWAP2 SWAP1 POP JUMP JUMPDEST PUSH1 0x0 PUSH1 0x20 DUP3 ADD SWAP1 POP SWAP2 SWAP1 POP JUMP JUMPDEST PUSH1 0x0 PUSH1 0x20 DUP3 ADD SWAP1 POP SWAP2 SWAP1 POP JUMP JUMPDEST PUSH1 0x0 PUSH1 0x20 DUP3 ADD SWAP1 POP SWAP2 SWAP1 POP JUMP JUMPDEST PUSH1 0x0 DUP3 DUP3 MSTORE PUSH1 0x20 DUP3 ADD SWAP1 POP SWAP3 SWAP2 POP POP JUMP JUMPDEST PUSH1 0x0 DUP3 DUP3 MSTORE PUSH1 0x20 DUP3 ADD SWAP1 POP SWAP3 SWAP2 POP POP JUMP JUMPDEST PUSH1 0x0 DUP3 DUP3 MSTORE PUSH1 0x20 DUP3 ADD SWAP1 POP SWAP3 SWAP2 POP POP JUMP JUMPDEST PUSH1 0x0 PUSH2 0xA51 DUP3 PUSH2 0xA64 JUMP JUMPDEST SWAP1 POP SWAP2 SWAP1 POP JUMP JUMPDEST PUSH1 0x0 DUP2 ISZERO ISZERO SWAP1 POP SWAP2 SWAP1 POP JUMP JUMPDEST PUSH1 0x0 PUSH20 0xFFFFFFFFFFFFFFFFFFFFFFFFFFFFFFFFFFFFFFFF DUP3 AND SWAP1 POP SWAP2 SWAP1 POP JUMP JUMPDEST PUSH1 0x0 DUP2 SWAP1 POP SWAP2 SWAP1 POP JUMP JUMPDEST PUSH1 0x0 PUSH2 0xA99 DUP3 PUSH2 0xA84 JUMP JUMPDEST SWAP2 POP PUSH32 0xFFFFFFFFFFFFFFFFFFFFFFFFFFFFFFFFFFFFFFFFFFFFFFFFFFFFFFFFFFFFFFFF DUP3 EQ ISZERO PUSH2 0xACC JUMPI PUSH2 0xACB PUSH2 0xAD7 JUMP JUMPDEST JUMPDEST PUSH1 0x1 DUP3 ADD SWAP1 POP SWAP2 SWAP1 POP JUMP JUMPDEST PUSH32 0x4E487B7100000000000000000000000000000000000000000000000000000000 PUSH1 0x0 MSTORE PUSH1 0x11 PUSH1 0x4 MSTORE PUSH1 0x24 PUSH1 0x0 REVERT JUMPDEST PUSH32 0x4E487B7100000000000000000000000000000000000000000000000000000000 PUSH1 0x0 MSTORE PUSH1 0x32 PUSH1 0x4 MSTORE PUSH1 0x24 PUSH1 0x0 REVERT JUMPDEST PUSH32 0x4E487B7100000000000000000000000000000000000000000000000000000000 PUSH1 0x0 MSTORE PUSH1 0x41 PUSH1 0x4 MSTORE PUSH1 0x24 PUSH1 0x0 REVERT JUMPDEST PUSH1 0x0 DUP1 REVERT JUMPDEST PUSH2 0xB72 DUP2 PUSH2 0xA46 JUMP JUMPDEST DUP2 EQ PUSH2 0xB7D JUMPI PUSH1 0x0 DUP1 REVERT JUMPDEST POP JUMP JUMPDEST PUSH2 0xB89 DUP2 PUSH2 0xA84 JUMP JUMPDEST DUP2 EQ PUSH2 0xB94 JUMPI PUSH1 0x0 DUP1 REVERT JUMPDEST POP JUMP INVALID LOG2 PUSH5 0x6970667358 0x22 SLT KECCAK256 CALLCODE 0xE1 0x5D PUSH24 0x930072E21E14A360B41AB12ABF082C1A21AF67C361C67D01 0xAB 0xF9 POP 0x1E PUSH5 0x736F6C6343 STOP ADDMOD SMOD STOP CALLER "
				},
				"gasEstimates": {
					"creation": {
						"codeDepositCost": "604200",
						"executionCost": "5652",
						"totalCost": "609852"
					},
					"external": {
						"addDrug(address)": "99905",
						"drugs(uint256)": "infinite",
						"drugsCount()": "2451",
						"get(uint256)": "infinite",
						"getDrug()": "infinite",
						"getDrugs()": "infinite"
					}
				},
				"methodIdentifiers": {
					"addDrug(address)": "193de85d",
					"drugs(uint256)": "fca5e61e",
					"drugsCount()": "92812e6f",
					"get(uint256)": "9507d39a",
					"getDrug()": "f2a50281",
					"getDrugs()": "5fb07a62"
				}
			},
			"storageLayout": {
				"storage": [
					{
						"astId": 14,
						"contract": "contracts/Drugs.sol:Drugs",
						"label": "drugs",
						"offset": 0,
						"slot": "0",
						"type": "t_mapping(t_uint256,t_struct(Drug)9_storage)"
					},
					{
						"astId": 16,
						"contract": "contracts/Drugs.sol:Drugs",
						"label": "drugsCount",
						"offset": 0,
						"slot": "1",
						"type": "t_uint256"
					}
				],
				"types": {
					"t_address": {
						"encoding": "inplace",
						"label": "address",
						"numberOfBytes": "20"
					},
					"t_bool": {
						"encoding": "inplace",
						"label": "bool",
						"numberOfBytes": "1"
					},
					"t_mapping(t_uint256,t_struct(Drug)9_storage)": {
						"encoding": "mapping",
						"key": "t_uint256",
						"label": "mapping(uint256 => struct Drugs.Drug)",
						"numberOfBytes": "32",
						"value": "t_struct(Drug)9_storage"
					},
					"t_struct(Drug)9_storage": {
						"encoding": "inplace",
						"label": "struct Drugs.Drug",
						"members": [
							{
								"astId": 4,
								"contract": "contracts/Drugs.sol:Drugs",
								"label": "DrugID",
								"offset": 0,
								"slot": "0",
								"type": "t_uint256"
							},
							{
								"astId": 6,
								"contract": "contracts/Drugs.sol:Drugs",
								"label": "Manufacturer",
								"offset": 0,
								"slot": "1",
								"type": "t_address"
							},
							{
								"astId": 8,
								"contract": "contracts/Drugs.sol:Drugs",
								"label": "IsActive",
								"offset": 20,
								"slot": "1",
								"type": "t_bool"
							}
						],
						"numberOfBytes": "64"
					},
					"t_uint256": {
						"encoding": "inplace",
						"label": "uint256",
						"numberOfBytes": "32"
					}
				}
			},
			"userdoc": {
				"kind": "user",
				"methods": {},
				"version": 1
			}
		}
	}
}