{
	"contracts/Drugs.sol": {
		"Drugs": {
			"abi": [
				{
					"inputs": [],
					"stateMutability": "nonpayable",
					"type": "constructor"
				},
				{
					"inputs": [
						{
							"internalType": "address",
							"name": "_manufacturer",
							"type": "address"
						}
					],
					"name": "addDrug",
					"outputs": [],
					"stateMutability": "nonpayable",
					"type": "function"
				},
				{
					"inputs": [
						{
							"internalType": "uint256",
							"name": "_drugid",
							"type": "uint256"
						},
						{
							"internalType": "bool",
							"name": "_status",
							"type": "bool"
						}
					],
					"name": "changeDrugStatus",
					"outputs": [],
					"stateMutability": "nonpayable",
					"type": "function"
				},
				{
					"inputs": [
						{
							"internalType": "uint256",
							"name": "",
							"type": "uint256"
						}
					],
					"name": "drugs",
					"outputs": [
						{
							"internalType": "uint256",
							"name": "DrugID",
							"type": "uint256"
						},
						{
							"internalType": "address",
							"name": "Manufacturer",
							"type": "address"
						},
						{
							"internalType": "bool",
							"name": "IsActive",
							"type": "bool"
						}
					],
					"stateMutability": "view",
					"type": "function"
				},
				{
					"inputs": [],
					"name": "drugsCount",
					"outputs": [
						{
							"internalType": "uint256",
							"name": "",
							"type": "uint256"
						}
					],
					"stateMutability": "view",
					"type": "function"
				},
				{
					"inputs": [
						{
							"internalType": "uint256",
							"name": "_drugid",
							"type": "uint256"
						}
					],
					"name": "get",
					"outputs": [
						{
							"components": [
								{
									"internalType": "uint256",
									"name": "DrugID",
									"type": "uint256"
								},
								{
									"internalType": "address",
									"name": "Manufacturer",
									"type": "address"
								},
								{
									"internalType": "bool",
									"name": "IsActive",
									"type": "bool"
								}
							],
							"internalType": "struct Drugs.Drug",
							"name": "",
							"type": "tuple"
						}
					],
					"stateMutability": "view",
					"type": "function"
				},
				{
					"inputs": [],
					"name": "getDrug",
					"outputs": [
						{
							"internalType": "uint256[]",
							"name": "",
							"type": "uint256[]"
						},
						{
							"internalType": "address[]",
							"name": "",
							"type": "address[]"
						},
						{
							"internalType": "bool[]",
							"name": "",
							"type": "bool[]"
						}
					],
					"stateMutability": "view",
					"type": "function"
				},
				{
					"inputs": [],
					"name": "getDrugs",
					"outputs": [
						{
							"components": [
								{
									"internalType": "uint256",
									"name": "DrugID",
									"type": "uint256"
								},
								{
									"internalType": "address",
									"name": "Manufacturer",
									"type": "address"
								},
								{
									"internalType": "bool",
									"name": "IsActive",
									"type": "bool"
								}
							],
							"internalType": "struct Drugs.Drug[]",
							"name": "",
							"type": "tuple[]"
						}
					],
					"stateMutability": "view",
					"type": "function"
				}
			],
			"devdoc": {
				"kind": "dev",
				"methods": {},
				"version": 1
			},
			"evm": {
				"assembly": "    /* \"contracts/Drugs.sol\":97:1856  contract Drugs {\r... */\n  mstore(0x40, 0x80)\n    /* \"contracts/Drugs.sol\":447:524  constructor()  {\r... */\n  callvalue\n  dup1\n  iszero\n  tag_1\n  jumpi\n  0x00\n  dup1\n  revert\ntag_1:\n  pop\n    /* \"contracts/Drugs.sol\":486:487  0 */\n  0x00\n    /* \"contracts/Drugs.sol\":473:483  drugsCount */\n  0x02\n    /* \"contracts/Drugs.sol\":473:487  drugsCount = 0 */\n  dup2\n  swap1\n  sstore\n  pop\n    /* \"contracts/Drugs.sol\":506:516  msg.sender */\n  caller\n    /* \"contracts/Drugs.sol\":498:503  owner */\n  0x00\n  dup1\n    /* \"contracts/Drugs.sol\":498:516  owner = msg.sender */\n  0x0100\n  exp\n  dup2\n  sload\n  dup2\n  0xffffffffffffffffffffffffffffffffffffffff\n  mul\n  not\n  and\n  swap1\n  dup4\n  0xffffffffffffffffffffffffffffffffffffffff\n  and\n  mul\n  or\n  swap1\n  sstore\n  pop\n    /* \"contracts/Drugs.sol\":97:1856  contract Drugs {\r... */\n  dataSize(sub_0)\n  dup1\n  dataOffset(sub_0)\n  0x00\n  codecopy\n  0x00\n  return\nstop\n\nsub_0: assembly {\n        /* \"contracts/Drugs.sol\":97:1856  contract Drugs {\r... */\n      mstore(0x40, 0x80)\n      callvalue\n      dup1\n      iszero\n      tag_1\n      jumpi\n      0x00\n      dup1\n      revert\n    tag_1:\n      pop\n      jumpi(tag_2, lt(calldatasize, 0x04))\n      shr(0xe0, calldataload(0x00))\n      dup1\n      0x9507d39a\n      gt\n      tag_10\n      jumpi\n      dup1\n      0x9507d39a\n      eq\n      tag_6\n      jumpi\n      dup1\n      0xe259effa\n      eq\n      tag_7\n      jumpi\n      dup1\n      0xf2a50281\n      eq\n      tag_8\n      jumpi\n      dup1\n      0xfca5e61e\n      eq\n      tag_9\n      jumpi\n      jump(tag_2)\n    tag_10:\n      dup1\n      0x193de85d\n      eq\n      tag_3\n      jumpi\n      dup1\n      0x5fb07a62\n      eq\n      tag_4\n      jumpi\n      dup1\n      0x92812e6f\n      eq\n      tag_5\n      jumpi\n    tag_2:\n      0x00\n      dup1\n      revert\n        /* \"contracts/Drugs.sol\":530:675  function addDrug(address _manufacturer) public {\r... */\n    tag_3:\n      tag_11\n      0x04\n      dup1\n      calldatasize\n      sub\n      dup2\n      add\n      swap1\n      tag_12\n      swap2\n      swap1\n      tag_13\n      jump\t// in\n    tag_12:\n      tag_14\n      jump\t// in\n    tag_11:\n      stop\n        /* \"contracts/Drugs.sol\":1465:1733  function getDrugs() public view returns (Drug[] memory){\r... */\n    tag_4:\n      tag_15\n      tag_16\n      jump\t// in\n    tag_15:\n      mload(0x40)\n      tag_17\n      swap2\n      swap1\n      tag_18\n      jump\t// in\n    tag_17:\n      mload(0x40)\n      dup1\n      swap2\n      sub\n      swap1\n      return\n        /* \"contracts/Drugs.sol\":418:440  uint public drugsCount */\n    tag_5:\n      tag_19\n      tag_20\n      jump\t// in\n    tag_19:\n      mload(0x40)\n      tag_21\n      swap2\n      swap1\n      tag_22\n      jump\t// in\n    tag_21:\n      mload(0x40)\n      dup1\n      swap2\n      sub\n      swap1\n      return\n        /* \"contracts/Drugs.sol\":712:812  function get(uint _drugid) public view returns(Drug memory) {\r... */\n    tag_6:\n      tag_23\n      0x04\n      dup1\n      calldatasize\n      sub\n      dup2\n      add\n      swap1\n      tag_24\n      swap2\n      swap1\n      tag_25\n      jump\t// in\n    tag_24:\n      tag_26\n      jump\t// in\n    tag_23:\n      mload(0x40)\n      tag_27\n      swap2\n      swap1\n      tag_28\n      jump\t// in\n    tag_27:\n      mload(0x40)\n      dup1\n      swap2\n      sub\n      swap1\n      return\n        /* \"contracts/Drugs.sol\":1739:1851  function changeDrugStatus(uint _drugid, bool _status) public{\r... */\n    tag_7:\n      tag_29\n      0x04\n      dup1\n      calldatasize\n      sub\n      dup2\n      add\n      swap1\n      tag_30\n      swap2\n      swap1\n      tag_31\n      jump\t// in\n    tag_30:\n      tag_32\n      jump\t// in\n    tag_29:\n      stop\n        /* \"contracts/Drugs.sol\":857:1426  function getDrug() public view returns (uint[] memory, address[] memory, bool[] memory){\r... */\n    tag_8:\n      tag_33\n      tag_34\n      jump\t// in\n    tag_33:\n      mload(0x40)\n      tag_35\n      swap4\n      swap3\n      swap2\n      swap1\n      tag_36\n      jump\t// in\n    tag_35:\n      mload(0x40)\n      dup1\n      swap2\n      sub\n      swap1\n      return\n        /* \"contracts/Drugs.sol\":326:361  mapping (uint => Drug) public drugs */\n    tag_9:\n      tag_37\n      0x04\n      dup1\n      calldatasize\n      sub\n      dup2\n      add\n      swap1\n      tag_38\n      swap2\n      swap1\n      tag_25\n      jump\t// in\n    tag_38:\n      tag_39\n      jump\t// in\n    tag_37:\n      mload(0x40)\n      tag_40\n      swap4\n      swap3\n      swap2\n      swap1\n      tag_41\n      jump\t// in\n    tag_40:\n      mload(0x40)\n      dup1\n      swap2\n      sub\n      swap1\n      return\n        /* \"contracts/Drugs.sol\":530:675  function addDrug(address _manufacturer) public {\r... */\n    tag_14:\n        /* \"contracts/Drugs.sol\":608:644  Drug(drugsCount,_manufacturer, true) */\n      mload(0x40)\n      dup1\n      0x60\n      add\n      0x40\n      mstore\n      dup1\n        /* \"contracts/Drugs.sol\":613:623  drugsCount */\n      sload(0x02)\n        /* \"contracts/Drugs.sol\":608:644  Drug(drugsCount,_manufacturer, true) */\n      dup2\n      mstore\n      0x20\n      add\n        /* \"contracts/Drugs.sol\":624:637  _manufacturer */\n      dup3\n        /* \"contracts/Drugs.sol\":608:644  Drug(drugsCount,_manufacturer, true) */\n      0xffffffffffffffffffffffffffffffffffffffff\n      and\n      dup2\n      mstore\n      0x20\n      add\n        /* \"contracts/Drugs.sol\":639:643  true */\n      0x01\n        /* \"contracts/Drugs.sol\":608:644  Drug(drugsCount,_manufacturer, true) */\n      iszero\n      iszero\n      dup2\n      mstore\n      pop\n        /* \"contracts/Drugs.sol\":588:593  drugs */\n      0x01\n        /* \"contracts/Drugs.sol\":588:605  drugs[drugsCount] */\n      0x00\n        /* \"contracts/Drugs.sol\":594:604  drugsCount */\n      sload(0x02)\n        /* \"contracts/Drugs.sol\":588:605  drugs[drugsCount] */\n      dup2\n      mstore\n      0x20\n      add\n      swap1\n      dup2\n      mstore\n      0x20\n      add\n      0x00\n      keccak256\n        /* \"contracts/Drugs.sol\":588:644  drugs[drugsCount] = Drug(drugsCount,_manufacturer, true) */\n      0x00\n      dup3\n      add\n      mload\n      dup2\n      0x00\n      add\n      sstore\n      0x20\n      dup3\n      add\n      mload\n      dup2\n      0x01\n      add\n      exp(0x0100, 0x00)\n      dup2\n      sload\n      dup2\n      0xffffffffffffffffffffffffffffffffffffffff\n      mul\n      not\n      and\n      swap1\n      dup4\n      0xffffffffffffffffffffffffffffffffffffffff\n      and\n      mul\n      or\n      swap1\n      sstore\n      pop\n      0x40\n      dup3\n      add\n      mload\n      dup2\n      0x01\n      add\n      exp(0x0100, 0x14)\n      dup2\n      sload\n      dup2\n      0xff\n      mul\n      not\n      and\n      swap1\n      dup4\n      iszero\n      iszero\n      mul\n      or\n      swap1\n      sstore\n      pop\n      swap1\n      pop\n      pop\n        /* \"contracts/Drugs.sol\":655:665  drugsCount */\n      0x02\n      0x00\n        /* \"contracts/Drugs.sol\":655:667  drugsCount++ */\n      dup2\n      sload\n      dup1\n      swap3\n      swap2\n      swap1\n      tag_43\n      swap1\n      tag_44\n      jump\t// in\n    tag_43:\n      swap2\n      swap1\n      pop\n      sstore\n      pop\n        /* \"contracts/Drugs.sol\":530:675  function addDrug(address _manufacturer) public {\r... */\n      pop\n      jump\t// out\n        /* \"contracts/Drugs.sol\":1465:1733  function getDrugs() public view returns (Drug[] memory){\r... */\n    tag_16:\n        /* \"contracts/Drugs.sol\":1506:1519  Drug[] memory */\n      0x60\n        /* \"contracts/Drugs.sol\":1531:1550  Drug[]    memory id */\n      0x00\n        /* \"contracts/Drugs.sol\":1564:1574  drugsCount */\n      sload(0x02)\n        /* \"contracts/Drugs.sol\":1553:1575  new Drug[](drugsCount) */\n      0xffffffffffffffff\n      dup2\n      gt\n      iszero\n      tag_46\n      jumpi\n      tag_47\n      tag_48\n      jump\t// in\n    tag_47:\n    tag_46:\n      mload(0x40)\n      swap1\n      dup1\n      dup3\n      mstore\n      dup1\n      0x20\n      mul\n      0x20\n      add\n      dup3\n      add\n      0x40\n      mstore\n      dup1\n      iszero\n      tag_49\n      jumpi\n      dup2\n      0x20\n      add\n    tag_50:\n      tag_51\n      tag_52\n      jump\t// in\n    tag_51:\n      dup2\n      mstore\n      0x20\n      add\n      swap1\n      0x01\n      swap1\n      sub\n      swap1\n      dup2\n      tag_50\n      jumpi\n      swap1\n      pop\n    tag_49:\n      pop\n        /* \"contracts/Drugs.sol\":1531:1575  Drug[]    memory id = new Drug[](drugsCount) */\n      swap1\n      pop\n        /* \"contracts/Drugs.sol\":1591:1597  uint i */\n      0x00\n        /* \"contracts/Drugs.sol\":1586:1706  for (uint i = 0; i < drugsCount; i++) {\r... */\n    tag_53:\n        /* \"contracts/Drugs.sol\":1607:1617  drugsCount */\n      sload(0x02)\n        /* \"contracts/Drugs.sol\":1603:1604  i */\n      dup2\n        /* \"contracts/Drugs.sol\":1603:1617  i < drugsCount */\n      lt\n        /* \"contracts/Drugs.sol\":1586:1706  for (uint i = 0; i < drugsCount; i++) {\r... */\n      iszero\n      tag_54\n      jumpi\n        /* \"contracts/Drugs.sol\":1639:1656  Drug storage drug */\n      0x00\n        /* \"contracts/Drugs.sol\":1659:1664  drugs */\n      0x01\n        /* \"contracts/Drugs.sol\":1659:1667  drugs[i] */\n      0x00\n        /* \"contracts/Drugs.sol\":1665:1666  i */\n      dup4\n        /* \"contracts/Drugs.sol\":1659:1667  drugs[i] */\n      dup2\n      mstore\n      0x20\n      add\n      swap1\n      dup2\n      mstore\n      0x20\n      add\n      0x00\n      keccak256\n        /* \"contracts/Drugs.sol\":1639:1667  Drug storage drug = drugs[i] */\n      swap1\n      pop\n        /* \"contracts/Drugs.sol\":1690:1694  drug */\n      dup1\n        /* \"contracts/Drugs.sol\":1682:1694  id[i] = drug */\n      mload(0x40)\n      dup1\n      0x60\n      add\n      0x40\n      mstore\n      swap1\n      dup2\n      0x00\n      dup3\n      add\n      sload\n      dup2\n      mstore\n      0x20\n      add\n      0x01\n      dup3\n      add\n      0x00\n      swap1\n      sload\n      swap1\n      0x0100\n      exp\n      swap1\n      div\n      0xffffffffffffffffffffffffffffffffffffffff\n      and\n      0xffffffffffffffffffffffffffffffffffffffff\n      and\n      0xffffffffffffffffffffffffffffffffffffffff\n      and\n      dup2\n      mstore\n      0x20\n      add\n      0x01\n      dup3\n      add\n      0x14\n      swap1\n      sload\n      swap1\n      0x0100\n      exp\n      swap1\n      div\n      0xff\n      and\n      iszero\n      iszero\n      iszero\n      iszero\n      dup2\n      mstore\n      pop\n      pop\n        /* \"contracts/Drugs.sol\":1682:1684  id */\n      dup4\n        /* \"contracts/Drugs.sol\":1685:1686  i */\n      dup4\n        /* \"contracts/Drugs.sol\":1682:1687  id[i] */\n      dup2\n      mload\n      dup2\n      lt\n      tag_56\n      jumpi\n      tag_57\n      tag_58\n      jump\t// in\n    tag_57:\n    tag_56:\n      0x20\n      mul\n      0x20\n      add\n      add\n        /* \"contracts/Drugs.sol\":1682:1694  id[i] = drug */\n      dup2\n      swap1\n      mstore\n      pop\n        /* \"contracts/Drugs.sol\":1624:1706  {\r... */\n      pop\n        /* \"contracts/Drugs.sol\":1619:1622  i++ */\n      dup1\n      dup1\n      tag_59\n      swap1\n      tag_44\n      jump\t// in\n    tag_59:\n      swap2\n      pop\n      pop\n        /* \"contracts/Drugs.sol\":1586:1706  for (uint i = 0; i < drugsCount; i++) {\r... */\n      jump(tag_53)\n    tag_54:\n      pop\n        /* \"contracts/Drugs.sol\":1723:1725  id */\n      dup1\n        /* \"contracts/Drugs.sol\":1716:1725  return id */\n      swap2\n      pop\n      pop\n        /* \"contracts/Drugs.sol\":1465:1733  function getDrugs() public view returns (Drug[] memory){\r... */\n      swap1\n      jump\t// out\n        /* \"contracts/Drugs.sol\":418:440  uint public drugsCount */\n    tag_20:\n      sload(0x02)\n      dup2\n      jump\t// out\n        /* \"contracts/Drugs.sol\":712:812  function get(uint _drugid) public view returns(Drug memory) {\r... */\n    tag_26:\n        /* \"contracts/Drugs.sol\":759:770  Drug memory */\n      tag_60\n      tag_52\n      jump\t// in\n    tag_60:\n        /* \"contracts/Drugs.sol\":790:795  drugs */\n      0x01\n        /* \"contracts/Drugs.sol\":790:804  drugs[_drugid] */\n      0x00\n        /* \"contracts/Drugs.sol\":796:803  _drugid */\n      dup4\n        /* \"contracts/Drugs.sol\":790:804  drugs[_drugid] */\n      dup2\n      mstore\n      0x20\n      add\n      swap1\n      dup2\n      mstore\n      0x20\n      add\n      0x00\n      keccak256\n        /* \"contracts/Drugs.sol\":783:804  return drugs[_drugid] */\n      mload(0x40)\n      dup1\n      0x60\n      add\n      0x40\n      mstore\n      swap1\n      dup2\n      0x00\n      dup3\n      add\n      sload\n      dup2\n      mstore\n      0x20\n      add\n      0x01\n      dup3\n      add\n      0x00\n      swap1\n      sload\n      swap1\n      0x0100\n      exp\n      swap1\n      div\n      0xffffffffffffffffffffffffffffffffffffffff\n      and\n      0xffffffffffffffffffffffffffffffffffffffff\n      and\n      0xffffffffffffffffffffffffffffffffffffffff\n      and\n      dup2\n      mstore\n      0x20\n      add\n      0x01\n      dup3\n      add\n      0x14\n      swap1\n      sload\n      swap1\n      0x0100\n      exp\n      swap1\n      div\n      0xff\n      and\n      iszero\n      iszero\n      iszero\n      iszero\n      dup2\n      mstore\n      pop\n      pop\n      swap1\n      pop\n        /* \"contracts/Drugs.sol\":712:812  function get(uint _drugid) public view returns(Drug memory) {\r... */\n      swap2\n      swap1\n      pop\n      jump\t// out\n        /* \"contracts/Drugs.sol\":1739:1851  function changeDrugStatus(uint _drugid, bool _status) public{\r... */\n    tag_32:\n        /* \"contracts/Drugs.sol\":1836:1843  _status */\n      dup1\n        /* \"contracts/Drugs.sol\":1810:1815  drugs */\n      0x01\n        /* \"contracts/Drugs.sol\":1810:1824  drugs[_drugid] */\n      0x00\n        /* \"contracts/Drugs.sol\":1816:1823  _drugid */\n      dup5\n        /* \"contracts/Drugs.sol\":1810:1824  drugs[_drugid] */\n      dup2\n      mstore\n      0x20\n      add\n      swap1\n      dup2\n      mstore\n      0x20\n      add\n      0x00\n      keccak256\n        /* \"contracts/Drugs.sol\":1810:1833  drugs[_drugid].IsActive */\n      0x01\n      add\n      0x14\n        /* \"contracts/Drugs.sol\":1810:1843  drugs[_drugid].IsActive = _status */\n      0x0100\n      exp\n      dup2\n      sload\n      dup2\n      0xff\n      mul\n      not\n      and\n      swap1\n      dup4\n      iszero\n      iszero\n      mul\n      or\n      swap1\n      sstore\n      pop\n        /* \"contracts/Drugs.sol\":1739:1851  function changeDrugStatus(uint _drugid, bool _status) public{\r... */\n      pop\n      pop\n      jump\t// out\n        /* \"contracts/Drugs.sol\":857:1426  function getDrug() public view returns (uint[] memory, address[] memory, bool[] memory){\r... */\n    tag_34:\n        /* \"contracts/Drugs.sol\":897:910  uint[] memory */\n      0x60\n        /* \"contracts/Drugs.sol\":912:928  address[] memory */\n      dup1\n        /* \"contracts/Drugs.sol\":930:943  bool[] memory */\n      0x60\n        /* \"contracts/Drugs.sol\":955:976  uint[]  memory drugid */\n      0x00\n        /* \"contracts/Drugs.sol\":990:1000  drugsCount */\n      sload(0x02)\n        /* \"contracts/Drugs.sol\":979:1001  new uint[](drugsCount) */\n      0xffffffffffffffff\n      dup2\n      gt\n      iszero\n      tag_64\n      jumpi\n      tag_65\n      tag_48\n      jump\t// in\n    tag_65:\n    tag_64:\n      mload(0x40)\n      swap1\n      dup1\n      dup3\n      mstore\n      dup1\n      0x20\n      mul\n      0x20\n      add\n      dup3\n      add\n      0x40\n      mstore\n      dup1\n      iszero\n      tag_66\n      jumpi\n      dup2\n      0x20\n      add\n      0x20\n      dup3\n      mul\n      dup1\n      calldatasize\n      dup4\n      calldatacopy\n      dup1\n      dup3\n      add\n      swap2\n      pop\n      pop\n      swap1\n      pop\n    tag_66:\n      pop\n        /* \"contracts/Drugs.sol\":955:1001  uint[]  memory drugid = new uint[](drugsCount) */\n      swap1\n      pop\n        /* \"contracts/Drugs.sol\":1012:1042  address[]  memory manufacturer */\n      0x00\n        /* \"contracts/Drugs.sol\":1059:1069  drugsCount */\n      sload(0x02)\n        /* \"contracts/Drugs.sol\":1045:1070  new address[](drugsCount) */\n      0xffffffffffffffff\n      dup2\n      gt\n      iszero\n      tag_67\n      jumpi\n      tag_68\n      tag_48\n      jump\t// in\n    tag_68:\n    tag_67:\n      mload(0x40)\n      swap1\n      dup1\n      dup3\n      mstore\n      dup1\n      0x20\n      mul\n      0x20\n      add\n      dup3\n      add\n      0x40\n      mstore\n      dup1\n      iszero\n      tag_69\n      jumpi\n      dup2\n      0x20\n      add\n      0x20\n      dup3\n      mul\n      dup1\n      calldatasize\n      dup4\n      calldatacopy\n      dup1\n      dup3\n      add\n      swap2\n      pop\n      pop\n      swap1\n      pop\n    tag_69:\n      pop\n        /* \"contracts/Drugs.sol\":1012:1070  address[]  memory manufacturer = new address[](drugsCount) */\n      swap1\n      pop\n        /* \"contracts/Drugs.sol\":1084:1106  bool[] memory isactive */\n      0x00\n        /* \"contracts/Drugs.sol\":1120:1130  drugsCount */\n      sload(0x02)\n        /* \"contracts/Drugs.sol\":1109:1131  new bool[](drugsCount) */\n      0xffffffffffffffff\n      dup2\n      gt\n      iszero\n      tag_70\n      jumpi\n      tag_71\n      tag_48\n      jump\t// in\n    tag_71:\n    tag_70:\n      mload(0x40)\n      swap1\n      dup1\n      dup3\n      mstore\n      dup1\n      0x20\n      mul\n      0x20\n      add\n      dup3\n      add\n      0x40\n      mstore\n      dup1\n      iszero\n      tag_72\n      jumpi\n      dup2\n      0x20\n      add\n      0x20\n      dup3\n      mul\n      dup1\n      calldatasize\n      dup4\n      calldatacopy\n      dup1\n      dup3\n      add\n      swap2\n      pop\n      pop\n      swap1\n      pop\n    tag_72:\n      pop\n        /* \"contracts/Drugs.sol\":1084:1131  bool[] memory isactive = new bool[](drugsCount) */\n      swap1\n      pop\n        /* \"contracts/Drugs.sol\":1151:1157  uint i */\n      0x00\n        /* \"contracts/Drugs.sol\":1146:1369  for (uint i = 0; i < drugsCount; i++) {\r... */\n    tag_73:\n        /* \"contracts/Drugs.sol\":1167:1177  drugsCount */\n      sload(0x02)\n        /* \"contracts/Drugs.sol\":1163:1164  i */\n      dup2\n        /* \"contracts/Drugs.sol\":1163:1177  i < drugsCount */\n      lt\n        /* \"contracts/Drugs.sol\":1146:1369  for (uint i = 0; i < drugsCount; i++) {\r... */\n      iszero\n      tag_74\n      jumpi\n        /* \"contracts/Drugs.sol\":1199:1216  Drug storage drug */\n      0x00\n        /* \"contracts/Drugs.sol\":1219:1224  drugs */\n      0x01\n        /* \"contracts/Drugs.sol\":1219:1227  drugs[i] */\n      0x00\n        /* \"contracts/Drugs.sol\":1225:1226  i */\n      dup4\n        /* \"contracts/Drugs.sol\":1219:1227  drugs[i] */\n      dup2\n      mstore\n      0x20\n      add\n      swap1\n      dup2\n      mstore\n      0x20\n      add\n      0x00\n      keccak256\n        /* \"contracts/Drugs.sol\":1199:1227  Drug storage drug = drugs[i] */\n      swap1\n      pop\n        /* \"contracts/Drugs.sol\":1254:1258  drug */\n      dup1\n        /* \"contracts/Drugs.sol\":1254:1265  drug.DrugID */\n      0x00\n      add\n      sload\n        /* \"contracts/Drugs.sol\":1242:1248  drugid */\n      dup6\n        /* \"contracts/Drugs.sol\":1249:1250  i */\n      dup4\n        /* \"contracts/Drugs.sol\":1242:1251  drugid[i] */\n      dup2\n      mload\n      dup2\n      lt\n      tag_76\n      jumpi\n      tag_77\n      tag_58\n      jump\t// in\n    tag_77:\n    tag_76:\n      0x20\n      mul\n      0x20\n      add\n      add\n        /* \"contracts/Drugs.sol\":1242:1265  drugid[i] = drug.DrugID */\n      dup2\n      dup2\n      mstore\n      pop\n      pop\n        /* \"contracts/Drugs.sol\":1298:1302  drug */\n      dup1\n        /* \"contracts/Drugs.sol\":1298:1315  drug.Manufacturer */\n      0x01\n      add\n      0x00\n      swap1\n      sload\n      swap1\n      0x0100\n      exp\n      swap1\n      div\n      0xffffffffffffffffffffffffffffffffffffffff\n      and\n        /* \"contracts/Drugs.sol\":1280:1292  manufacturer */\n      dup5\n        /* \"contracts/Drugs.sol\":1293:1294  i */\n      dup4\n        /* \"contracts/Drugs.sol\":1280:1295  manufacturer[i] */\n      dup2\n      mload\n      dup2\n      lt\n      tag_78\n      jumpi\n      tag_79\n      tag_58\n      jump\t// in\n    tag_79:\n    tag_78:\n      0x20\n      mul\n      0x20\n      add\n      add\n        /* \"contracts/Drugs.sol\":1280:1315  manufacturer[i] = drug.Manufacturer */\n      swap1\n      0xffffffffffffffffffffffffffffffffffffffff\n      and\n      swap1\n      dup2\n      0xffffffffffffffffffffffffffffffffffffffff\n      and\n      dup2\n      mstore\n      pop\n      pop\n        /* \"contracts/Drugs.sol\":1344:1348  drug */\n      dup1\n        /* \"contracts/Drugs.sol\":1344:1357  drug.IsActive */\n      0x01\n      add\n      0x14\n      swap1\n      sload\n      swap1\n      0x0100\n      exp\n      swap1\n      div\n      0xff\n      and\n        /* \"contracts/Drugs.sol\":1330:1338  isactive */\n      dup4\n        /* \"contracts/Drugs.sol\":1339:1340  i */\n      dup4\n        /* \"contracts/Drugs.sol\":1330:1341  isactive[i] */\n      dup2\n      mload\n      dup2\n      lt\n      tag_80\n      jumpi\n      tag_81\n      tag_58\n      jump\t// in\n    tag_81:\n    tag_80:\n      0x20\n      mul\n      0x20\n      add\n      add\n        /* \"contracts/Drugs.sol\":1330:1357  isactive[i] = drug.IsActive */\n      swap1\n      iszero\n      iszero\n      swap1\n      dup2\n      iszero\n      iszero\n      dup2\n      mstore\n      pop\n      pop\n        /* \"contracts/Drugs.sol\":1184:1369  {\r... */\n      pop\n        /* \"contracts/Drugs.sol\":1179:1182  i++ */\n      dup1\n      dup1\n      tag_82\n      swap1\n      tag_44\n      jump\t// in\n    tag_82:\n      swap2\n      pop\n      pop\n        /* \"contracts/Drugs.sol\":1146:1369  for (uint i = 0; i < drugsCount; i++) {\r... */\n      jump(tag_73)\n    tag_74:\n      pop\n        /* \"contracts/Drugs.sol\":1387:1393  drugid */\n      dup3\n        /* \"contracts/Drugs.sol\":1395:1407  manufacturer */\n      dup3\n        /* \"contracts/Drugs.sol\":1409:1417  isactive */\n      dup3\n        /* \"contracts/Drugs.sol\":1379:1418  return (drugid, manufacturer, isactive) */\n      swap6\n      pop\n      swap6\n      pop\n      swap6\n      pop\n      pop\n      pop\n      pop\n        /* \"contracts/Drugs.sol\":857:1426  function getDrug() public view returns (uint[] memory, address[] memory, bool[] memory){\r... */\n      swap1\n      swap2\n      swap3\n      jump\t// out\n        /* \"contracts/Drugs.sol\":326:361  mapping (uint => Drug) public drugs */\n    tag_39:\n      mstore(0x20, 0x01)\n      dup1\n      0x00\n      mstore\n      keccak256(0x00, 0x40)\n      0x00\n      swap2\n      pop\n      swap1\n      pop\n      dup1\n      0x00\n      add\n      sload\n      swap1\n      dup1\n      0x01\n      add\n      0x00\n      swap1\n      sload\n      swap1\n      0x0100\n      exp\n      swap1\n      div\n      0xffffffffffffffffffffffffffffffffffffffff\n      and\n      swap1\n      dup1\n      0x01\n      add\n      0x14\n      swap1\n      sload\n      swap1\n      0x0100\n      exp\n      swap1\n      div\n      0xff\n      and\n      swap1\n      pop\n      dup4\n      jump\t// out\n    tag_52:\n      mload(0x40)\n      dup1\n      0x60\n      add\n      0x40\n      mstore\n      dup1\n      0x00\n      dup2\n      mstore\n      0x20\n      add\n      and(0xffffffffffffffffffffffffffffffffffffffff, 0x00)\n      dup2\n      mstore\n      0x20\n      add\n      iszero(iszero(0x00))\n      dup2\n      mstore\n      pop\n      swap1\n      jump\t// out\n        /* \"#utility.yul\":7:146   */\n    tag_84:\n        /* \"#utility.yul\":53:58   */\n      0x00\n        /* \"#utility.yul\":91:97   */\n      dup2\n        /* \"#utility.yul\":78:98   */\n      calldataload\n        /* \"#utility.yul\":69:98   */\n      swap1\n      pop\n        /* \"#utility.yul\":107:140   */\n      tag_86\n        /* \"#utility.yul\":134:139   */\n      dup2\n        /* \"#utility.yul\":107:140   */\n      tag_87\n      jump\t// in\n    tag_86:\n        /* \"#utility.yul\":7:146   */\n      swap3\n      swap2\n      pop\n      pop\n      jump\t// out\n        /* \"#utility.yul\":152:285   */\n    tag_88:\n        /* \"#utility.yul\":195:200   */\n      0x00\n        /* \"#utility.yul\":233:239   */\n      dup2\n        /* \"#utility.yul\":220:240   */\n      calldataload\n        /* \"#utility.yul\":211:240   */\n      swap1\n      pop\n        /* \"#utility.yul\":249:279   */\n      tag_90\n        /* \"#utility.yul\":273:278   */\n      dup2\n        /* \"#utility.yul\":249:279   */\n      tag_91\n      jump\t// in\n    tag_90:\n        /* \"#utility.yul\":152:285   */\n      swap3\n      swap2\n      pop\n      pop\n      jump\t// out\n        /* \"#utility.yul\":291:430   */\n    tag_92:\n        /* \"#utility.yul\":337:342   */\n      0x00\n        /* \"#utility.yul\":375:381   */\n      dup2\n        /* \"#utility.yul\":362:382   */\n      calldataload\n        /* \"#utility.yul\":353:382   */\n      swap1\n      pop\n        /* \"#utility.yul\":391:424   */\n      tag_94\n        /* \"#utility.yul\":418:423   */\n      dup2\n        /* \"#utility.yul\":391:424   */\n      tag_95\n      jump\t// in\n    tag_94:\n        /* \"#utility.yul\":291:430   */\n      swap3\n      swap2\n      pop\n      pop\n      jump\t// out\n        /* \"#utility.yul\":436:765   */\n    tag_13:\n        /* \"#utility.yul\":495:501   */\n      0x00\n        /* \"#utility.yul\":544:546   */\n      0x20\n        /* \"#utility.yul\":532:541   */\n      dup3\n        /* \"#utility.yul\":523:530   */\n      dup5\n        /* \"#utility.yul\":519:542   */\n      sub\n        /* \"#utility.yul\":515:547   */\n      slt\n        /* \"#utility.yul\":512:631   */\n      iszero\n      tag_97\n      jumpi\n        /* \"#utility.yul\":550:629   */\n      tag_98\n      tag_99\n      jump\t// in\n    tag_98:\n        /* \"#utility.yul\":512:631   */\n    tag_97:\n        /* \"#utility.yul\":670:671   */\n      0x00\n        /* \"#utility.yul\":695:748   */\n      tag_100\n        /* \"#utility.yul\":740:747   */\n      dup5\n        /* \"#utility.yul\":731:737   */\n      dup3\n        /* \"#utility.yul\":720:729   */\n      dup6\n        /* \"#utility.yul\":716:738   */\n      add\n        /* \"#utility.yul\":695:748   */\n      tag_84\n      jump\t// in\n    tag_100:\n        /* \"#utility.yul\":685:748   */\n      swap2\n      pop\n        /* \"#utility.yul\":641:758   */\n      pop\n        /* \"#utility.yul\":436:765   */\n      swap3\n      swap2\n      pop\n      pop\n      jump\t// out\n        /* \"#utility.yul\":771:1100   */\n    tag_25:\n        /* \"#utility.yul\":830:836   */\n      0x00\n        /* \"#utility.yul\":879:881   */\n      0x20\n        /* \"#utility.yul\":867:876   */\n      dup3\n        /* \"#utility.yul\":858:865   */\n      dup5\n        /* \"#utility.yul\":854:877   */\n      sub\n        /* \"#utility.yul\":850:882   */\n      slt\n        /* \"#utility.yul\":847:966   */\n      iszero\n      tag_102\n      jumpi\n        /* \"#utility.yul\":885:964   */\n      tag_103\n      tag_99\n      jump\t// in\n    tag_103:\n        /* \"#utility.yul\":847:966   */\n    tag_102:\n        /* \"#utility.yul\":1005:1006   */\n      0x00\n        /* \"#utility.yul\":1030:1083   */\n      tag_104\n        /* \"#utility.yul\":1075:1082   */\n      dup5\n        /* \"#utility.yul\":1066:1072   */\n      dup3\n        /* \"#utility.yul\":1055:1064   */\n      dup6\n        /* \"#utility.yul\":1051:1073   */\n      add\n        /* \"#utility.yul\":1030:1083   */\n      tag_92\n      jump\t// in\n    tag_104:\n        /* \"#utility.yul\":1020:1083   */\n      swap2\n      pop\n        /* \"#utility.yul\":976:1093   */\n      pop\n        /* \"#utility.yul\":771:1100   */\n      swap3\n      swap2\n      pop\n      pop\n      jump\t// out\n        /* \"#utility.yul\":1106:1574   */\n    tag_31:\n        /* \"#utility.yul\":1171:1177   */\n      0x00\n        /* \"#utility.yul\":1179:1185   */\n      dup1\n        /* \"#utility.yul\":1228:1230   */\n      0x40\n        /* \"#utility.yul\":1216:1225   */\n      dup4\n        /* \"#utility.yul\":1207:1214   */\n      dup6\n        /* \"#utility.yul\":1203:1226   */\n      sub\n        /* \"#utility.yul\":1199:1231   */\n      slt\n        /* \"#utility.yul\":1196:1315   */\n      iszero\n      tag_106\n      jumpi\n        /* \"#utility.yul\":1234:1313   */\n      tag_107\n      tag_99\n      jump\t// in\n    tag_107:\n        /* \"#utility.yul\":1196:1315   */\n    tag_106:\n        /* \"#utility.yul\":1354:1355   */\n      0x00\n        /* \"#utility.yul\":1379:1432   */\n      tag_108\n        /* \"#utility.yul\":1424:1431   */\n      dup6\n        /* \"#utility.yul\":1415:1421   */\n      dup3\n        /* \"#utility.yul\":1404:1413   */\n      dup7\n        /* \"#utility.yul\":1400:1422   */\n      add\n        /* \"#utility.yul\":1379:1432   */\n      tag_92\n      jump\t// in\n    tag_108:\n        /* \"#utility.yul\":1369:1432   */\n      swap3\n      pop\n        /* \"#utility.yul\":1325:1442   */\n      pop\n        /* \"#utility.yul\":1481:1483   */\n      0x20\n        /* \"#utility.yul\":1507:1557   */\n      tag_109\n        /* \"#utility.yul\":1549:1556   */\n      dup6\n        /* \"#utility.yul\":1540:1546   */\n      dup3\n        /* \"#utility.yul\":1529:1538   */\n      dup7\n        /* \"#utility.yul\":1525:1547   */\n      add\n        /* \"#utility.yul\":1507:1557   */\n      tag_88\n      jump\t// in\n    tag_109:\n        /* \"#utility.yul\":1497:1557   */\n      swap2\n      pop\n        /* \"#utility.yul\":1452:1567   */\n      pop\n        /* \"#utility.yul\":1106:1574   */\n      swap3\n      pop\n      swap3\n      swap1\n      pop\n      jump\t// out\n        /* \"#utility.yul\":1580:1759   */\n    tag_110:\n        /* \"#utility.yul\":1649:1659   */\n      0x00\n        /* \"#utility.yul\":1670:1716   */\n      tag_112\n        /* \"#utility.yul\":1712:1715   */\n      dup4\n        /* \"#utility.yul\":1704:1710   */\n      dup4\n        /* \"#utility.yul\":1670:1716   */\n      tag_113\n      jump\t// in\n    tag_112:\n        /* \"#utility.yul\":1748:1752   */\n      0x20\n        /* \"#utility.yul\":1743:1746   */\n      dup4\n        /* \"#utility.yul\":1739:1753   */\n      add\n        /* \"#utility.yul\":1725:1753   */\n      swap1\n      pop\n        /* \"#utility.yul\":1580:1759   */\n      swap3\n      swap2\n      pop\n      pop\n      jump\t// out\n        /* \"#utility.yul\":1765:1932   */\n    tag_114:\n        /* \"#utility.yul\":1828:1838   */\n      0x00\n        /* \"#utility.yul\":1849:1889   */\n      tag_116\n        /* \"#utility.yul\":1885:1888   */\n      dup4\n        /* \"#utility.yul\":1877:1883   */\n      dup4\n        /* \"#utility.yul\":1849:1889   */\n      tag_117\n      jump\t// in\n    tag_116:\n        /* \"#utility.yul\":1921:1925   */\n      0x20\n        /* \"#utility.yul\":1916:1919   */\n      dup4\n        /* \"#utility.yul\":1912:1926   */\n      add\n        /* \"#utility.yul\":1898:1926   */\n      swap1\n      pop\n        /* \"#utility.yul\":1765:1932   */\n      swap3\n      swap2\n      pop\n      pop\n      jump\t// out\n        /* \"#utility.yul\":1938:2193   */\n    tag_118:\n        /* \"#utility.yul\":2045:2055   */\n      0x00\n        /* \"#utility.yul\":2066:2150   */\n      tag_120\n        /* \"#utility.yul\":2146:2149   */\n      dup4\n        /* \"#utility.yul\":2138:2144   */\n      dup4\n        /* \"#utility.yul\":2066:2150   */\n      tag_121\n      jump\t// in\n    tag_120:\n        /* \"#utility.yul\":2182:2186   */\n      0x60\n        /* \"#utility.yul\":2177:2180   */\n      dup4\n        /* \"#utility.yul\":2173:2187   */\n      add\n        /* \"#utility.yul\":2159:2187   */\n      swap1\n      pop\n        /* \"#utility.yul\":1938:2193   */\n      swap3\n      swap2\n      pop\n      pop\n      jump\t// out\n        /* \"#utility.yul\":2199:2378   */\n    tag_122:\n        /* \"#utility.yul\":2268:2278   */\n      0x00\n        /* \"#utility.yul\":2289:2335   */\n      tag_124\n        /* \"#utility.yul\":2331:2334   */\n      dup4\n        /* \"#utility.yul\":2323:2329   */\n      dup4\n        /* \"#utility.yul\":2289:2335   */\n      tag_125\n      jump\t// in\n    tag_124:\n        /* \"#utility.yul\":2367:2371   */\n      0x20\n        /* \"#utility.yul\":2362:2365   */\n      dup4\n        /* \"#utility.yul\":2358:2372   */\n      add\n        /* \"#utility.yul\":2344:2372   */\n      swap1\n      pop\n        /* \"#utility.yul\":2199:2378   */\n      swap3\n      swap2\n      pop\n      pop\n      jump\t// out\n        /* \"#utility.yul\":2384:2492   */\n    tag_113:\n        /* \"#utility.yul\":2461:2485   */\n      tag_127\n        /* \"#utility.yul\":2479:2484   */\n      dup2\n        /* \"#utility.yul\":2461:2485   */\n      tag_128\n      jump\t// in\n    tag_127:\n        /* \"#utility.yul\":2456:2459   */\n      dup3\n        /* \"#utility.yul\":2449:2486   */\n      mstore\n        /* \"#utility.yul\":2384:2492   */\n      pop\n      pop\n      jump\t// out\n        /* \"#utility.yul\":2498:2616   */\n    tag_129:\n        /* \"#utility.yul\":2585:2609   */\n      tag_131\n        /* \"#utility.yul\":2603:2608   */\n      dup2\n        /* \"#utility.yul\":2585:2609   */\n      tag_128\n      jump\t// in\n    tag_131:\n        /* \"#utility.yul\":2580:2583   */\n      dup3\n        /* \"#utility.yul\":2573:2610   */\n      mstore\n        /* \"#utility.yul\":2498:2616   */\n      pop\n      pop\n      jump\t// out\n        /* \"#utility.yul\":2652:3384   */\n    tag_132:\n        /* \"#utility.yul\":2771:2774   */\n      0x00\n        /* \"#utility.yul\":2800:2854   */\n      tag_134\n        /* \"#utility.yul\":2848:2853   */\n      dup3\n        /* \"#utility.yul\":2800:2854   */\n      tag_135\n      jump\t// in\n    tag_134:\n        /* \"#utility.yul\":2870:2956   */\n      tag_136\n        /* \"#utility.yul\":2949:2955   */\n      dup2\n        /* \"#utility.yul\":2944:2947   */\n      dup6\n        /* \"#utility.yul\":2870:2956   */\n      tag_137\n      jump\t// in\n    tag_136:\n        /* \"#utility.yul\":2863:2956   */\n      swap4\n      pop\n        /* \"#utility.yul\":2980:3036   */\n      tag_138\n        /* \"#utility.yul\":3030:3035   */\n      dup4\n        /* \"#utility.yul\":2980:3036   */\n      tag_139\n      jump\t// in\n    tag_138:\n        /* \"#utility.yul\":3059:3066   */\n      dup1\n        /* \"#utility.yul\":3090:3091   */\n      0x00\n        /* \"#utility.yul\":3075:3359   */\n    tag_140:\n        /* \"#utility.yul\":3100:3106   */\n      dup4\n        /* \"#utility.yul\":3097:3098   */\n      dup2\n        /* \"#utility.yul\":3094:3107   */\n      lt\n        /* \"#utility.yul\":3075:3359   */\n      iszero\n      tag_142\n      jumpi\n        /* \"#utility.yul\":3176:3182   */\n      dup2\n        /* \"#utility.yul\":3170:3183   */\n      mload\n        /* \"#utility.yul\":3203:3266   */\n      tag_143\n        /* \"#utility.yul\":3262:3265   */\n      dup9\n        /* \"#utility.yul\":3247:3260   */\n      dup3\n        /* \"#utility.yul\":3203:3266   */\n      tag_110\n      jump\t// in\n    tag_143:\n        /* \"#utility.yul\":3196:3266   */\n      swap8\n      pop\n        /* \"#utility.yul\":3289:3349   */\n      tag_144\n        /* \"#utility.yul\":3342:3348   */\n      dup4\n        /* \"#utility.yul\":3289:3349   */\n      tag_145\n      jump\t// in\n    tag_144:\n        /* \"#utility.yul\":3279:3349   */\n      swap3\n      pop\n        /* \"#utility.yul\":3135:3359   */\n      pop\n        /* \"#utility.yul\":3122:3123   */\n      0x01\n        /* \"#utility.yul\":3119:3120   */\n      dup2\n        /* \"#utility.yul\":3115:3124   */\n      add\n        /* \"#utility.yul\":3110:3124   */\n      swap1\n      pop\n        /* \"#utility.yul\":3075:3359   */\n      jump(tag_140)\n    tag_142:\n        /* \"#utility.yul\":3079:3093   */\n      pop\n        /* \"#utility.yul\":3375:3378   */\n      dup6\n        /* \"#utility.yul\":3368:3378   */\n      swap4\n      pop\n        /* \"#utility.yul\":2776:3384   */\n      pop\n      pop\n      pop\n        /* \"#utility.yul\":2652:3384   */\n      swap3\n      swap2\n      pop\n      pop\n      jump\t// out\n        /* \"#utility.yul\":3414:4122   */\n    tag_146:\n        /* \"#utility.yul\":3527:3530   */\n      0x00\n        /* \"#utility.yul\":3556:3607   */\n      tag_148\n        /* \"#utility.yul\":3601:3606   */\n      dup3\n        /* \"#utility.yul\":3556:3607   */\n      tag_149\n      jump\t// in\n    tag_148:\n        /* \"#utility.yul\":3623:3706   */\n      tag_150\n        /* \"#utility.yul\":3699:3705   */\n      dup2\n        /* \"#utility.yul\":3694:3697   */\n      dup6\n        /* \"#utility.yul\":3623:3706   */\n      tag_151\n      jump\t// in\n    tag_150:\n        /* \"#utility.yul\":3616:3706   */\n      swap4\n      pop\n        /* \"#utility.yul\":3730:3783   */\n      tag_152\n        /* \"#utility.yul\":3777:3782   */\n      dup4\n        /* \"#utility.yul\":3730:3783   */\n      tag_153\n      jump\t// in\n    tag_152:\n        /* \"#utility.yul\":3806:3813   */\n      dup1\n        /* \"#utility.yul\":3837:3838   */\n      0x00\n        /* \"#utility.yul\":3822:4097   */\n    tag_154:\n        /* \"#utility.yul\":3847:3853   */\n      dup4\n        /* \"#utility.yul\":3844:3845   */\n      dup2\n        /* \"#utility.yul\":3841:3854   */\n      lt\n        /* \"#utility.yul\":3822:4097   */\n      iszero\n      tag_156\n      jumpi\n        /* \"#utility.yul\":3923:3929   */\n      dup2\n        /* \"#utility.yul\":3917:3930   */\n      mload\n        /* \"#utility.yul\":3950:4007   */\n      tag_157\n        /* \"#utility.yul\":4003:4006   */\n      dup9\n        /* \"#utility.yul\":3988:4001   */\n      dup3\n        /* \"#utility.yul\":3950:4007   */\n      tag_114\n      jump\t// in\n    tag_157:\n        /* \"#utility.yul\":3943:4007   */\n      swap8\n      pop\n        /* \"#utility.yul\":4030:4087   */\n      tag_158\n        /* \"#utility.yul\":4080:4086   */\n      dup4\n        /* \"#utility.yul\":4030:4087   */\n      tag_159\n      jump\t// in\n    tag_158:\n        /* \"#utility.yul\":4020:4087   */\n      swap3\n      pop\n        /* \"#utility.yul\":3882:4097   */\n      pop\n        /* \"#utility.yul\":3869:3870   */\n      0x01\n        /* \"#utility.yul\":3866:3867   */\n      dup2\n        /* \"#utility.yul\":3862:3871   */\n      add\n        /* \"#utility.yul\":3857:3871   */\n      swap1\n      pop\n        /* \"#utility.yul\":3822:4097   */\n      jump(tag_154)\n    tag_156:\n        /* \"#utility.yul\":3826:3840   */\n      pop\n        /* \"#utility.yul\":4113:4116   */\n      dup6\n        /* \"#utility.yul\":4106:4116   */\n      swap4\n      pop\n        /* \"#utility.yul\":3532:4122   */\n      pop\n      pop\n      pop\n        /* \"#utility.yul\":3414:4122   */\n      swap3\n      swap2\n      pop\n      pop\n      jump\t// out\n        /* \"#utility.yul\":4178:5062   */\n    tag_160:\n        /* \"#utility.yul\":4335:4338   */\n      0x00\n        /* \"#utility.yul\":4364:4437   */\n      tag_162\n        /* \"#utility.yul\":4431:4436   */\n      dup3\n        /* \"#utility.yul\":4364:4437   */\n      tag_163\n      jump\t// in\n    tag_162:\n        /* \"#utility.yul\":4453:4558   */\n      tag_164\n        /* \"#utility.yul\":4551:4557   */\n      dup2\n        /* \"#utility.yul\":4546:4549   */\n      dup6\n        /* \"#utility.yul\":4453:4558   */\n      tag_165\n      jump\t// in\n    tag_164:\n        /* \"#utility.yul\":4446:4558   */\n      swap4\n      pop\n        /* \"#utility.yul\":4582:4657   */\n      tag_166\n        /* \"#utility.yul\":4651:4656   */\n      dup4\n        /* \"#utility.yul\":4582:4657   */\n      tag_167\n      jump\t// in\n    tag_166:\n        /* \"#utility.yul\":4680:4687   */\n      dup1\n        /* \"#utility.yul\":4711:4712   */\n      0x00\n        /* \"#utility.yul\":4696:5037   */\n    tag_168:\n        /* \"#utility.yul\":4721:4727   */\n      dup4\n        /* \"#utility.yul\":4718:4719   */\n      dup2\n        /* \"#utility.yul\":4715:4728   */\n      lt\n        /* \"#utility.yul\":4696:5037   */\n      iszero\n      tag_170\n      jumpi\n        /* \"#utility.yul\":4797:4803   */\n      dup2\n        /* \"#utility.yul\":4791:4804   */\n      mload\n        /* \"#utility.yul\":4824:4925   */\n      tag_171\n        /* \"#utility.yul\":4921:4924   */\n      dup9\n        /* \"#utility.yul\":4906:4919   */\n      dup3\n        /* \"#utility.yul\":4824:4925   */\n      tag_118\n      jump\t// in\n    tag_171:\n        /* \"#utility.yul\":4817:4925   */\n      swap8\n      pop\n        /* \"#utility.yul\":4948:5027   */\n      tag_172\n        /* \"#utility.yul\":5020:5026   */\n      dup4\n        /* \"#utility.yul\":4948:5027   */\n      tag_173\n      jump\t// in\n    tag_172:\n        /* \"#utility.yul\":4938:5027   */\n      swap3\n      pop\n        /* \"#utility.yul\":4756:5037   */\n      pop\n        /* \"#utility.yul\":4743:4744   */\n      0x01\n        /* \"#utility.yul\":4740:4741   */\n      dup2\n        /* \"#utility.yul\":4736:4745   */\n      add\n        /* \"#utility.yul\":4731:4745   */\n      swap1\n      pop\n        /* \"#utility.yul\":4696:5037   */\n      jump(tag_168)\n    tag_170:\n        /* \"#utility.yul\":4700:4714   */\n      pop\n        /* \"#utility.yul\":5053:5056   */\n      dup6\n        /* \"#utility.yul\":5046:5056   */\n      swap4\n      pop\n        /* \"#utility.yul\":4340:5062   */\n      pop\n      pop\n      pop\n        /* \"#utility.yul\":4178:5062   */\n      swap3\n      swap2\n      pop\n      pop\n      jump\t// out\n        /* \"#utility.yul\":5098:5830   */\n    tag_174:\n        /* \"#utility.yul\":5217:5220   */\n      0x00\n        /* \"#utility.yul\":5246:5300   */\n      tag_176\n        /* \"#utility.yul\":5294:5299   */\n      dup3\n        /* \"#utility.yul\":5246:5300   */\n      tag_177\n      jump\t// in\n    tag_176:\n        /* \"#utility.yul\":5316:5402   */\n      tag_178\n        /* \"#utility.yul\":5395:5401   */\n      dup2\n        /* \"#utility.yul\":5390:5393   */\n      dup6\n        /* \"#utility.yul\":5316:5402   */\n      tag_179\n      jump\t// in\n    tag_178:\n        /* \"#utility.yul\":5309:5402   */\n      swap4\n      pop\n        /* \"#utility.yul\":5426:5482   */\n      tag_180\n        /* \"#utility.yul\":5476:5481   */\n      dup4\n        /* \"#utility.yul\":5426:5482   */\n      tag_181\n      jump\t// in\n    tag_180:\n        /* \"#utility.yul\":5505:5512   */\n      dup1\n        /* \"#utility.yul\":5536:5537   */\n      0x00\n        /* \"#utility.yul\":5521:5805   */\n    tag_182:\n        /* \"#utility.yul\":5546:5552   */\n      dup4\n        /* \"#utility.yul\":5543:5544   */\n      dup2\n        /* \"#utility.yul\":5540:5553   */\n      lt\n        /* \"#utility.yul\":5521:5805   */\n      iszero\n      tag_184\n      jumpi\n        /* \"#utility.yul\":5622:5628   */\n      dup2\n        /* \"#utility.yul\":5616:5629   */\n      mload\n        /* \"#utility.yul\":5649:5712   */\n      tag_185\n        /* \"#utility.yul\":5708:5711   */\n      dup9\n        /* \"#utility.yul\":5693:5706   */\n      dup3\n        /* \"#utility.yul\":5649:5712   */\n      tag_122\n      jump\t// in\n    tag_185:\n        /* \"#utility.yul\":5642:5712   */\n      swap8\n      pop\n        /* \"#utility.yul\":5735:5795   */\n      tag_186\n        /* \"#utility.yul\":5788:5794   */\n      dup4\n        /* \"#utility.yul\":5735:5795   */\n      tag_187\n      jump\t// in\n    tag_186:\n        /* \"#utility.yul\":5725:5795   */\n      swap3\n      pop\n        /* \"#utility.yul\":5581:5805   */\n      pop\n        /* \"#utility.yul\":5568:5569   */\n      0x01\n        /* \"#utility.yul\":5565:5566   */\n      dup2\n        /* \"#utility.yul\":5561:5570   */\n      add\n        /* \"#utility.yul\":5556:5570   */\n      swap1\n      pop\n        /* \"#utility.yul\":5521:5805   */\n      jump(tag_182)\n    tag_184:\n        /* \"#utility.yul\":5525:5539   */\n      pop\n        /* \"#utility.yul\":5821:5824   */\n      dup6\n        /* \"#utility.yul\":5814:5824   */\n      swap4\n      pop\n        /* \"#utility.yul\":5222:5830   */\n      pop\n      pop\n      pop\n        /* \"#utility.yul\":5098:5830   */\n      swap3\n      swap2\n      pop\n      pop\n      jump\t// out\n        /* \"#utility.yul\":5836:5935   */\n    tag_117:\n        /* \"#utility.yul\":5907:5928   */\n      tag_189\n        /* \"#utility.yul\":5922:5927   */\n      dup2\n        /* \"#utility.yul\":5907:5928   */\n      tag_190\n      jump\t// in\n    tag_189:\n        /* \"#utility.yul\":5902:5905   */\n      dup3\n        /* \"#utility.yul\":5895:5929   */\n      mstore\n        /* \"#utility.yul\":5836:5935   */\n      pop\n      pop\n      jump\t// out\n        /* \"#utility.yul\":5941:6050   */\n    tag_191:\n        /* \"#utility.yul\":6022:6043   */\n      tag_193\n        /* \"#utility.yul\":6037:6042   */\n      dup2\n        /* \"#utility.yul\":6022:6043   */\n      tag_190\n      jump\t// in\n    tag_193:\n        /* \"#utility.yul\":6017:6020   */\n      dup3\n        /* \"#utility.yul\":6010:6044   */\n      mstore\n        /* \"#utility.yul\":5941:6050   */\n      pop\n      pop\n      jump\t// out\n        /* \"#utility.yul\":6102:6769   */\n    tag_121:\n        /* \"#utility.yul\":6227:6231   */\n      0x60\n        /* \"#utility.yul\":6222:6225   */\n      dup3\n        /* \"#utility.yul\":6218:6232   */\n      add\n        /* \"#utility.yul\":6316:6320   */\n      0x00\n        /* \"#utility.yul\":6309:6314   */\n      dup3\n        /* \"#utility.yul\":6305:6321   */\n      add\n        /* \"#utility.yul\":6299:6322   */\n      mload\n        /* \"#utility.yul\":6335:6398   */\n      tag_195\n        /* \"#utility.yul\":6392:6396   */\n      0x00\n        /* \"#utility.yul\":6387:6390   */\n      dup6\n        /* \"#utility.yul\":6383:6397   */\n      add\n        /* \"#utility.yul\":6369:6381   */\n      dup3\n        /* \"#utility.yul\":6335:6398   */\n      tag_125\n      jump\t// in\n    tag_195:\n        /* \"#utility.yul\":6242:6408   */\n      pop\n        /* \"#utility.yul\":6498:6502   */\n      0x20\n        /* \"#utility.yul\":6491:6496   */\n      dup3\n        /* \"#utility.yul\":6487:6503   */\n      add\n        /* \"#utility.yul\":6481:6504   */\n      mload\n        /* \"#utility.yul\":6517:6580   */\n      tag_196\n        /* \"#utility.yul\":6574:6578   */\n      0x20\n        /* \"#utility.yul\":6569:6572   */\n      dup6\n        /* \"#utility.yul\":6565:6579   */\n      add\n        /* \"#utility.yul\":6551:6563   */\n      dup3\n        /* \"#utility.yul\":6517:6580   */\n      tag_113\n      jump\t// in\n    tag_196:\n        /* \"#utility.yul\":6418:6590   */\n      pop\n        /* \"#utility.yul\":6676:6680   */\n      0x40\n        /* \"#utility.yul\":6669:6674   */\n      dup3\n        /* \"#utility.yul\":6665:6681   */\n      add\n        /* \"#utility.yul\":6659:6682   */\n      mload\n        /* \"#utility.yul\":6695:6752   */\n      tag_197\n        /* \"#utility.yul\":6746:6750   */\n      0x40\n        /* \"#utility.yul\":6741:6744   */\n      dup6\n        /* \"#utility.yul\":6737:6751   */\n      add\n        /* \"#utility.yul\":6723:6735   */\n      dup3\n        /* \"#utility.yul\":6695:6752   */\n      tag_117\n      jump\t// in\n    tag_197:\n        /* \"#utility.yul\":6600:6762   */\n      pop\n        /* \"#utility.yul\":6196:6769   */\n      pop\n        /* \"#utility.yul\":6102:6769   */\n      pop\n      pop\n      jump\t// out\n        /* \"#utility.yul\":6821:7498   */\n    tag_198:\n        /* \"#utility.yul\":6956:6960   */\n      0x60\n        /* \"#utility.yul\":6951:6954   */\n      dup3\n        /* \"#utility.yul\":6947:6961   */\n      add\n        /* \"#utility.yul\":7045:7049   */\n      0x00\n        /* \"#utility.yul\":7038:7043   */\n      dup3\n        /* \"#utility.yul\":7034:7050   */\n      add\n        /* \"#utility.yul\":7028:7051   */\n      mload\n        /* \"#utility.yul\":7064:7127   */\n      tag_200\n        /* \"#utility.yul\":7121:7125   */\n      0x00\n        /* \"#utility.yul\":7116:7119   */\n      dup6\n        /* \"#utility.yul\":7112:7126   */\n      add\n        /* \"#utility.yul\":7098:7110   */\n      dup3\n        /* \"#utility.yul\":7064:7127   */\n      tag_125\n      jump\t// in\n    tag_200:\n        /* \"#utility.yul\":6971:7137   */\n      pop\n        /* \"#utility.yul\":7227:7231   */\n      0x20\n        /* \"#utility.yul\":7220:7225   */\n      dup3\n        /* \"#utility.yul\":7216:7232   */\n      add\n        /* \"#utility.yul\":7210:7233   */\n      mload\n        /* \"#utility.yul\":7246:7309   */\n      tag_201\n        /* \"#utility.yul\":7303:7307   */\n      0x20\n        /* \"#utility.yul\":7298:7301   */\n      dup6\n        /* \"#utility.yul\":7294:7308   */\n      add\n        /* \"#utility.yul\":7280:7292   */\n      dup3\n        /* \"#utility.yul\":7246:7309   */\n      tag_113\n      jump\t// in\n    tag_201:\n        /* \"#utility.yul\":7147:7319   */\n      pop\n        /* \"#utility.yul\":7405:7409   */\n      0x40\n        /* \"#utility.yul\":7398:7403   */\n      dup3\n        /* \"#utility.yul\":7394:7410   */\n      add\n        /* \"#utility.yul\":7388:7411   */\n      mload\n        /* \"#utility.yul\":7424:7481   */\n      tag_202\n        /* \"#utility.yul\":7475:7479   */\n      0x40\n        /* \"#utility.yul\":7470:7473   */\n      dup6\n        /* \"#utility.yul\":7466:7480   */\n      add\n        /* \"#utility.yul\":7452:7464   */\n      dup3\n        /* \"#utility.yul\":7424:7481   */\n      tag_117\n      jump\t// in\n    tag_202:\n        /* \"#utility.yul\":7329:7491   */\n      pop\n        /* \"#utility.yul\":6925:7498   */\n      pop\n        /* \"#utility.yul\":6821:7498   */\n      pop\n      pop\n      jump\t// out\n        /* \"#utility.yul\":7504:7612   */\n    tag_125:\n        /* \"#utility.yul\":7581:7605   */\n      tag_204\n        /* \"#utility.yul\":7599:7604   */\n      dup2\n        /* \"#utility.yul\":7581:7605   */\n      tag_205\n      jump\t// in\n    tag_204:\n        /* \"#utility.yul\":7576:7579   */\n      dup3\n        /* \"#utility.yul\":7569:7606   */\n      mstore\n        /* \"#utility.yul\":7504:7612   */\n      pop\n      pop\n      jump\t// out\n        /* \"#utility.yul\":7618:7736   */\n    tag_206:\n        /* \"#utility.yul\":7705:7729   */\n      tag_208\n        /* \"#utility.yul\":7723:7728   */\n      dup2\n        /* \"#utility.yul\":7705:7729   */\n      tag_205\n      jump\t// in\n    tag_208:\n        /* \"#utility.yul\":7700:7703   */\n      dup3\n        /* \"#utility.yul\":7693:7730   */\n      mstore\n        /* \"#utility.yul\":7618:7736   */\n      pop\n      pop\n      jump\t// out\n        /* \"#utility.yul\":7742:8191   */\n    tag_18:\n        /* \"#utility.yul\":7923:7927   */\n      0x00\n        /* \"#utility.yul\":7961:7963   */\n      0x20\n        /* \"#utility.yul\":7950:7959   */\n      dup3\n        /* \"#utility.yul\":7946:7964   */\n      add\n        /* \"#utility.yul\":7938:7964   */\n      swap1\n      pop\n        /* \"#utility.yul\":8010:8019   */\n      dup2\n        /* \"#utility.yul\":8004:8008   */\n      dup2\n        /* \"#utility.yul\":8000:8020   */\n      sub\n        /* \"#utility.yul\":7996:7997   */\n      0x00\n        /* \"#utility.yul\":7985:7994   */\n      dup4\n        /* \"#utility.yul\":7981:7998   */\n      add\n        /* \"#utility.yul\":7974:8021   */\n      mstore\n        /* \"#utility.yul\":8038:8184   */\n      tag_210\n        /* \"#utility.yul\":8179:8183   */\n      dup2\n        /* \"#utility.yul\":8170:8176   */\n      dup5\n        /* \"#utility.yul\":8038:8184   */\n      tag_160\n      jump\t// in\n    tag_210:\n        /* \"#utility.yul\":8030:8184   */\n      swap1\n      pop\n        /* \"#utility.yul\":7742:8191   */\n      swap3\n      swap2\n      pop\n      pop\n      jump\t// out\n        /* \"#utility.yul\":8197:9080   */\n    tag_36:\n        /* \"#utility.yul\":8490:8494   */\n      0x00\n        /* \"#utility.yul\":8528:8530   */\n      0x60\n        /* \"#utility.yul\":8517:8526   */\n      dup3\n        /* \"#utility.yul\":8513:8531   */\n      add\n        /* \"#utility.yul\":8505:8531   */\n      swap1\n      pop\n        /* \"#utility.yul\":8577:8586   */\n      dup2\n        /* \"#utility.yul\":8571:8575   */\n      dup2\n        /* \"#utility.yul\":8567:8587   */\n      sub\n        /* \"#utility.yul\":8563:8564   */\n      0x00\n        /* \"#utility.yul\":8552:8561   */\n      dup4\n        /* \"#utility.yul\":8548:8565   */\n      add\n        /* \"#utility.yul\":8541:8588   */\n      mstore\n        /* \"#utility.yul\":8605:8713   */\n      tag_212\n        /* \"#utility.yul\":8708:8712   */\n      dup2\n        /* \"#utility.yul\":8699:8705   */\n      dup7\n        /* \"#utility.yul\":8605:8713   */\n      tag_174\n      jump\t// in\n    tag_212:\n        /* \"#utility.yul\":8597:8713   */\n      swap1\n      pop\n        /* \"#utility.yul\":8760:8769   */\n      dup2\n        /* \"#utility.yul\":8754:8758   */\n      dup2\n        /* \"#utility.yul\":8750:8770   */\n      sub\n        /* \"#utility.yul\":8745:8747   */\n      0x20\n        /* \"#utility.yul\":8734:8743   */\n      dup4\n        /* \"#utility.yul\":8730:8748   */\n      add\n        /* \"#utility.yul\":8723:8771   */\n      mstore\n        /* \"#utility.yul\":8788:8896   */\n      tag_213\n        /* \"#utility.yul\":8891:8895   */\n      dup2\n        /* \"#utility.yul\":8882:8888   */\n      dup6\n        /* \"#utility.yul\":8788:8896   */\n      tag_132\n      jump\t// in\n    tag_213:\n        /* \"#utility.yul\":8780:8896   */\n      swap1\n      pop\n        /* \"#utility.yul\":8943:8952   */\n      dup2\n        /* \"#utility.yul\":8937:8941   */\n      dup2\n        /* \"#utility.yul\":8933:8953   */\n      sub\n        /* \"#utility.yul\":8928:8930   */\n      0x40\n        /* \"#utility.yul\":8917:8926   */\n      dup4\n        /* \"#utility.yul\":8913:8931   */\n      add\n        /* \"#utility.yul\":8906:8954   */\n      mstore\n        /* \"#utility.yul\":8971:9073   */\n      tag_214\n        /* \"#utility.yul\":9068:9072   */\n      dup2\n        /* \"#utility.yul\":9059:9065   */\n      dup5\n        /* \"#utility.yul\":8971:9073   */\n      tag_146\n      jump\t// in\n    tag_214:\n        /* \"#utility.yul\":8963:9073   */\n      swap1\n      pop\n        /* \"#utility.yul\":8197:9080   */\n      swap5\n      swap4\n      pop\n      pop\n      pop\n      pop\n      jump\t// out\n        /* \"#utility.yul\":9086:9384   */\n    tag_28:\n        /* \"#utility.yul\":9217:9221   */\n      0x00\n        /* \"#utility.yul\":9255:9257   */\n      0x60\n        /* \"#utility.yul\":9244:9253   */\n      dup3\n        /* \"#utility.yul\":9240:9258   */\n      add\n        /* \"#utility.yul\":9232:9258   */\n      swap1\n      pop\n        /* \"#utility.yul\":9268:9377   */\n      tag_216\n        /* \"#utility.yul\":9374:9375   */\n      0x00\n        /* \"#utility.yul\":9363:9372   */\n      dup4\n        /* \"#utility.yul\":9359:9376   */\n      add\n        /* \"#utility.yul\":9350:9356   */\n      dup5\n        /* \"#utility.yul\":9268:9377   */\n      tag_198\n      jump\t// in\n    tag_216:\n        /* \"#utility.yul\":9086:9384   */\n      swap3\n      swap2\n      pop\n      pop\n      jump\t// out\n        /* \"#utility.yul\":9390:9612   */\n    tag_22:\n        /* \"#utility.yul\":9483:9487   */\n      0x00\n        /* \"#utility.yul\":9521:9523   */\n      0x20\n        /* \"#utility.yul\":9510:9519   */\n      dup3\n        /* \"#utility.yul\":9506:9524   */\n      add\n        /* \"#utility.yul\":9498:9524   */\n      swap1\n      pop\n        /* \"#utility.yul\":9534:9605   */\n      tag_218\n        /* \"#utility.yul\":9602:9603   */\n      0x00\n        /* \"#utility.yul\":9591:9600   */\n      dup4\n        /* \"#utility.yul\":9587:9604   */\n      add\n        /* \"#utility.yul\":9578:9584   */\n      dup5\n        /* \"#utility.yul\":9534:9605   */\n      tag_206\n      jump\t// in\n    tag_218:\n        /* \"#utility.yul\":9390:9612   */\n      swap3\n      swap2\n      pop\n      pop\n      jump\t// out\n        /* \"#utility.yul\":9618:10048   */\n    tag_41:\n        /* \"#utility.yul\":9761:9765   */\n      0x00\n        /* \"#utility.yul\":9799:9801   */\n      0x60\n        /* \"#utility.yul\":9788:9797   */\n      dup3\n        /* \"#utility.yul\":9784:9802   */\n      add\n        /* \"#utility.yul\":9776:9802   */\n      swap1\n      pop\n        /* \"#utility.yul\":9812:9883   */\n      tag_220\n        /* \"#utility.yul\":9880:9881   */\n      0x00\n        /* \"#utility.yul\":9869:9878   */\n      dup4\n        /* \"#utility.yul\":9865:9882   */\n      add\n        /* \"#utility.yul\":9856:9862   */\n      dup7\n        /* \"#utility.yul\":9812:9883   */\n      tag_206\n      jump\t// in\n    tag_220:\n        /* \"#utility.yul\":9893:9965   */\n      tag_221\n        /* \"#utility.yul\":9961:9963   */\n      0x20\n        /* \"#utility.yul\":9950:9959   */\n      dup4\n        /* \"#utility.yul\":9946:9964   */\n      add\n        /* \"#utility.yul\":9937:9943   */\n      dup6\n        /* \"#utility.yul\":9893:9965   */\n      tag_129\n      jump\t// in\n    tag_221:\n        /* \"#utility.yul\":9975:10041   */\n      tag_222\n        /* \"#utility.yul\":10037:10039   */\n      0x40\n        /* \"#utility.yul\":10026:10035   */\n      dup4\n        /* \"#utility.yul\":10022:10040   */\n      add\n        /* \"#utility.yul\":10013:10019   */\n      dup5\n        /* \"#utility.yul\":9975:10041   */\n      tag_191\n      jump\t// in\n    tag_222:\n        /* \"#utility.yul\":9618:10048   */\n      swap5\n      swap4\n      pop\n      pop\n      pop\n      pop\n      jump\t// out\n        /* \"#utility.yul\":10135:10267   */\n    tag_139:\n        /* \"#utility.yul\":10202:10206   */\n      0x00\n        /* \"#utility.yul\":10225:10228   */\n      dup2\n        /* \"#utility.yul\":10217:10228   */\n      swap1\n      pop\n        /* \"#utility.yul\":10255:10259   */\n      0x20\n        /* \"#utility.yul\":10250:10253   */\n      dup3\n        /* \"#utility.yul\":10246:10260   */\n      add\n        /* \"#utility.yul\":10238:10260   */\n      swap1\n      pop\n        /* \"#utility.yul\":10135:10267   */\n      swap2\n      swap1\n      pop\n      jump\t// out\n        /* \"#utility.yul\":10273:10402   */\n    tag_153:\n        /* \"#utility.yul\":10337:10341   */\n      0x00\n        /* \"#utility.yul\":10360:10363   */\n      dup2\n        /* \"#utility.yul\":10352:10363   */\n      swap1\n      pop\n        /* \"#utility.yul\":10390:10394   */\n      0x20\n        /* \"#utility.yul\":10385:10388   */\n      dup3\n        /* \"#utility.yul\":10381:10395   */\n      add\n        /* \"#utility.yul\":10373:10395   */\n      swap1\n      pop\n        /* \"#utility.yul\":10273:10402   */\n      swap2\n      swap1\n      pop\n      jump\t// out\n        /* \"#utility.yul\":10408:10559   */\n    tag_167:\n        /* \"#utility.yul\":10494:10498   */\n      0x00\n        /* \"#utility.yul\":10517:10520   */\n      dup2\n        /* \"#utility.yul\":10509:10520   */\n      swap1\n      pop\n        /* \"#utility.yul\":10547:10551   */\n      0x20\n        /* \"#utility.yul\":10542:10545   */\n      dup3\n        /* \"#utility.yul\":10538:10552   */\n      add\n        /* \"#utility.yul\":10530:10552   */\n      swap1\n      pop\n        /* \"#utility.yul\":10408:10559   */\n      swap2\n      swap1\n      pop\n      jump\t// out\n        /* \"#utility.yul\":10565:10697   */\n    tag_181:\n        /* \"#utility.yul\":10632:10636   */\n      0x00\n        /* \"#utility.yul\":10655:10658   */\n      dup2\n        /* \"#utility.yul\":10647:10658   */\n      swap1\n      pop\n        /* \"#utility.yul\":10685:10689   */\n      0x20\n        /* \"#utility.yul\":10680:10683   */\n      dup3\n        /* \"#utility.yul\":10676:10690   */\n      add\n        /* \"#utility.yul\":10668:10690   */\n      swap1\n      pop\n        /* \"#utility.yul\":10565:10697   */\n      swap2\n      swap1\n      pop\n      jump\t// out\n        /* \"#utility.yul\":10703:10817   */\n    tag_135:\n        /* \"#utility.yul\":10770:10776   */\n      0x00\n        /* \"#utility.yul\":10804:10809   */\n      dup2\n        /* \"#utility.yul\":10798:10810   */\n      mload\n        /* \"#utility.yul\":10788:10810   */\n      swap1\n      pop\n        /* \"#utility.yul\":10703:10817   */\n      swap2\n      swap1\n      pop\n      jump\t// out\n        /* \"#utility.yul\":10823:10934   */\n    tag_149:\n        /* \"#utility.yul\":10887:10893   */\n      0x00\n        /* \"#utility.yul\":10921:10926   */\n      dup2\n        /* \"#utility.yul\":10915:10927   */\n      mload\n        /* \"#utility.yul\":10905:10927   */\n      swap1\n      pop\n        /* \"#utility.yul\":10823:10934   */\n      swap2\n      swap1\n      pop\n      jump\t// out\n        /* \"#utility.yul\":10940:11073   */\n    tag_163:\n        /* \"#utility.yul\":11026:11032   */\n      0x00\n        /* \"#utility.yul\":11060:11065   */\n      dup2\n        /* \"#utility.yul\":11054:11066   */\n      mload\n        /* \"#utility.yul\":11044:11066   */\n      swap1\n      pop\n        /* \"#utility.yul\":10940:11073   */\n      swap2\n      swap1\n      pop\n      jump\t// out\n        /* \"#utility.yul\":11079:11193   */\n    tag_177:\n        /* \"#utility.yul\":11146:11152   */\n      0x00\n        /* \"#utility.yul\":11180:11185   */\n      dup2\n        /* \"#utility.yul\":11174:11186   */\n      mload\n        /* \"#utility.yul\":11164:11186   */\n      swap1\n      pop\n        /* \"#utility.yul\":11079:11193   */\n      swap2\n      swap1\n      pop\n      jump\t// out\n        /* \"#utility.yul\":11199:11312   */\n    tag_145:\n        /* \"#utility.yul\":11269:11273   */\n      0x00\n        /* \"#utility.yul\":11301:11305   */\n      0x20\n        /* \"#utility.yul\":11296:11299   */\n      dup3\n        /* \"#utility.yul\":11292:11306   */\n      add\n        /* \"#utility.yul\":11284:11306   */\n      swap1\n      pop\n        /* \"#utility.yul\":11199:11312   */\n      swap2\n      swap1\n      pop\n      jump\t// out\n        /* \"#utility.yul\":11318:11428   */\n    tag_159:\n        /* \"#utility.yul\":11385:11389   */\n      0x00\n        /* \"#utility.yul\":11417:11421   */\n      0x20\n        /* \"#utility.yul\":11412:11415   */\n      dup3\n        /* \"#utility.yul\":11408:11422   */\n      add\n        /* \"#utility.yul\":11400:11422   */\n      swap1\n      pop\n        /* \"#utility.yul\":11318:11428   */\n      swap2\n      swap1\n      pop\n      jump\t// out\n        /* \"#utility.yul\":11434:11566   */\n    tag_173:\n        /* \"#utility.yul\":11523:11527   */\n      0x00\n        /* \"#utility.yul\":11555:11559   */\n      0x20\n        /* \"#utility.yul\":11550:11553   */\n      dup3\n        /* \"#utility.yul\":11546:11560   */\n      add\n        /* \"#utility.yul\":11538:11560   */\n      swap1\n      pop\n        /* \"#utility.yul\":11434:11566   */\n      swap2\n      swap1\n      pop\n      jump\t// out\n        /* \"#utility.yul\":11572:11685   */\n    tag_187:\n        /* \"#utility.yul\":11642:11646   */\n      0x00\n        /* \"#utility.yul\":11674:11678   */\n      0x20\n        /* \"#utility.yul\":11669:11672   */\n      dup3\n        /* \"#utility.yul\":11665:11679   */\n      add\n        /* \"#utility.yul\":11657:11679   */\n      swap1\n      pop\n        /* \"#utility.yul\":11572:11685   */\n      swap2\n      swap1\n      pop\n      jump\t// out\n        /* \"#utility.yul\":11691:11875   */\n    tag_137:\n        /* \"#utility.yul\":11790:11801   */\n      0x00\n        /* \"#utility.yul\":11824:11830   */\n      dup3\n        /* \"#utility.yul\":11819:11822   */\n      dup3\n        /* \"#utility.yul\":11812:11831   */\n      mstore\n        /* \"#utility.yul\":11864:11868   */\n      0x20\n        /* \"#utility.yul\":11859:11862   */\n      dup3\n        /* \"#utility.yul\":11855:11869   */\n      add\n        /* \"#utility.yul\":11840:11869   */\n      swap1\n      pop\n        /* \"#utility.yul\":11691:11875   */\n      swap3\n      swap2\n      pop\n      pop\n      jump\t// out\n        /* \"#utility.yul\":11881:12062   */\n    tag_151:\n        /* \"#utility.yul\":11977:11988   */\n      0x00\n        /* \"#utility.yul\":12011:12017   */\n      dup3\n        /* \"#utility.yul\":12006:12009   */\n      dup3\n        /* \"#utility.yul\":11999:12018   */\n      mstore\n        /* \"#utility.yul\":12051:12055   */\n      0x20\n        /* \"#utility.yul\":12046:12049   */\n      dup3\n        /* \"#utility.yul\":12042:12056   */\n      add\n        /* \"#utility.yul\":12027:12056   */\n      swap1\n      pop\n        /* \"#utility.yul\":11881:12062   */\n      swap3\n      swap2\n      pop\n      pop\n      jump\t// out\n        /* \"#utility.yul\":12068:12271   */\n    tag_165:\n        /* \"#utility.yul\":12186:12197   */\n      0x00\n        /* \"#utility.yul\":12220:12226   */\n      dup3\n        /* \"#utility.yul\":12215:12218   */\n      dup3\n        /* \"#utility.yul\":12208:12227   */\n      mstore\n        /* \"#utility.yul\":12260:12264   */\n      0x20\n        /* \"#utility.yul\":12255:12258   */\n      dup3\n        /* \"#utility.yul\":12251:12265   */\n      add\n        /* \"#utility.yul\":12236:12265   */\n      swap1\n      pop\n        /* \"#utility.yul\":12068:12271   */\n      swap3\n      swap2\n      pop\n      pop\n      jump\t// out\n        /* \"#utility.yul\":12277:12461   */\n    tag_179:\n        /* \"#utility.yul\":12376:12387   */\n      0x00\n        /* \"#utility.yul\":12410:12416   */\n      dup3\n        /* \"#utility.yul\":12405:12408   */\n      dup3\n        /* \"#utility.yul\":12398:12417   */\n      mstore\n        /* \"#utility.yul\":12450:12454   */\n      0x20\n        /* \"#utility.yul\":12445:12448   */\n      dup3\n        /* \"#utility.yul\":12441:12455   */\n      add\n        /* \"#utility.yul\":12426:12455   */\n      swap1\n      pop\n        /* \"#utility.yul\":12277:12461   */\n      swap3\n      swap2\n      pop\n      pop\n      jump\t// out\n        /* \"#utility.yul\":12467:12563   */\n    tag_128:\n        /* \"#utility.yul\":12504:12511   */\n      0x00\n        /* \"#utility.yul\":12533:12557   */\n      tag_242\n        /* \"#utility.yul\":12551:12556   */\n      dup3\n        /* \"#utility.yul\":12533:12557   */\n      tag_243\n      jump\t// in\n    tag_242:\n        /* \"#utility.yul\":12522:12557   */\n      swap1\n      pop\n        /* \"#utility.yul\":12467:12563   */\n      swap2\n      swap1\n      pop\n      jump\t// out\n        /* \"#utility.yul\":12569:12659   */\n    tag_190:\n        /* \"#utility.yul\":12603:12610   */\n      0x00\n        /* \"#utility.yul\":12646:12651   */\n      dup2\n        /* \"#utility.yul\":12639:12652   */\n      iszero\n        /* \"#utility.yul\":12632:12653   */\n      iszero\n        /* \"#utility.yul\":12621:12653   */\n      swap1\n      pop\n        /* \"#utility.yul\":12569:12659   */\n      swap2\n      swap1\n      pop\n      jump\t// out\n        /* \"#utility.yul\":12665:12791   */\n    tag_243:\n        /* \"#utility.yul\":12702:12709   */\n      0x00\n        /* \"#utility.yul\":12742:12784   */\n      0xffffffffffffffffffffffffffffffffffffffff\n        /* \"#utility.yul\":12735:12740   */\n      dup3\n        /* \"#utility.yul\":12731:12785   */\n      and\n        /* \"#utility.yul\":12720:12785   */\n      swap1\n      pop\n        /* \"#utility.yul\":12665:12791   */\n      swap2\n      swap1\n      pop\n      jump\t// out\n        /* \"#utility.yul\":12797:12874   */\n    tag_205:\n        /* \"#utility.yul\":12834:12841   */\n      0x00\n        /* \"#utility.yul\":12863:12868   */\n      dup2\n        /* \"#utility.yul\":12852:12868   */\n      swap1\n      pop\n        /* \"#utility.yul\":12797:12874   */\n      swap2\n      swap1\n      pop\n      jump\t// out\n        /* \"#utility.yul\":12880:13113   */\n    tag_44:\n        /* \"#utility.yul\":12919:12922   */\n      0x00\n        /* \"#utility.yul\":12942:12966   */\n      tag_248\n        /* \"#utility.yul\":12960:12965   */\n      dup3\n        /* \"#utility.yul\":12942:12966   */\n      tag_205\n      jump\t// in\n    tag_248:\n        /* \"#utility.yul\":12933:12966   */\n      swap2\n      pop\n        /* \"#utility.yul\":12988:13054   */\n      0xffffffffffffffffffffffffffffffffffffffffffffffffffffffffffffffff\n        /* \"#utility.yul\":12981:12986   */\n      dup3\n        /* \"#utility.yul\":12978:13055   */\n      eq\n        /* \"#utility.yul\":12975:13078   */\n      iszero\n      tag_249\n      jumpi\n        /* \"#utility.yul\":13058:13076   */\n      tag_250\n      tag_251\n      jump\t// in\n    tag_250:\n        /* \"#utility.yul\":12975:13078   */\n    tag_249:\n        /* \"#utility.yul\":13105:13106   */\n      0x01\n        /* \"#utility.yul\":13098:13103   */\n      dup3\n        /* \"#utility.yul\":13094:13107   */\n      add\n        /* \"#utility.yul\":13087:13107   */\n      swap1\n      pop\n        /* \"#utility.yul\":12880:13113   */\n      swap2\n      swap1\n      pop\n      jump\t// out\n        /* \"#utility.yul\":13119:13299   */\n    tag_251:\n        /* \"#utility.yul\":13167:13244   */\n      0x4e487b7100000000000000000000000000000000000000000000000000000000\n        /* \"#utility.yul\":13164:13165   */\n      0x00\n        /* \"#utility.yul\":13157:13245   */\n      mstore\n        /* \"#utility.yul\":13264:13268   */\n      0x11\n        /* \"#utility.yul\":13261:13262   */\n      0x04\n        /* \"#utility.yul\":13254:13269   */\n      mstore\n        /* \"#utility.yul\":13288:13292   */\n      0x24\n        /* \"#utility.yul\":13285:13286   */\n      0x00\n        /* \"#utility.yul\":13278:13293   */\n      revert\n        /* \"#utility.yul\":13305:13485   */\n    tag_58:\n        /* \"#utility.yul\":13353:13430   */\n      0x4e487b7100000000000000000000000000000000000000000000000000000000\n        /* \"#utility.yul\":13350:13351   */\n      0x00\n        /* \"#utility.yul\":13343:13431   */\n      mstore\n        /* \"#utility.yul\":13450:13454   */\n      0x32\n        /* \"#utility.yul\":13447:13448   */\n      0x04\n        /* \"#utility.yul\":13440:13455   */\n      mstore\n        /* \"#utility.yul\":13474:13478   */\n      0x24\n        /* \"#utility.yul\":13471:13472   */\n      0x00\n        /* \"#utility.yul\":13464:13479   */\n      revert\n        /* \"#utility.yul\":13491:13671   */\n    tag_48:\n        /* \"#utility.yul\":13539:13616   */\n      0x4e487b7100000000000000000000000000000000000000000000000000000000\n        /* \"#utility.yul\":13536:13537   */\n      0x00\n        /* \"#utility.yul\":13529:13617   */\n      mstore\n        /* \"#utility.yul\":13636:13640   */\n      0x41\n        /* \"#utility.yul\":13633:13634   */\n      0x04\n        /* \"#utility.yul\":13626:13641   */\n      mstore\n        /* \"#utility.yul\":13660:13664   */\n      0x24\n        /* \"#utility.yul\":13657:13658   */\n      0x00\n        /* \"#utility.yul\":13650:13665   */\n      revert\n        /* \"#utility.yul\":13800:13917   */\n    tag_99:\n        /* \"#utility.yul\":13909:13910   */\n      0x00\n        /* \"#utility.yul\":13906:13907   */\n      dup1\n        /* \"#utility.yul\":13899:13911   */\n      revert\n        /* \"#utility.yul\":13923:14045   */\n    tag_87:\n        /* \"#utility.yul\":13996:14020   */\n      tag_259\n        /* \"#utility.yul\":14014:14019   */\n      dup2\n        /* \"#utility.yul\":13996:14020   */\n      tag_128\n      jump\t// in\n    tag_259:\n        /* \"#utility.yul\":13989:13994   */\n      dup2\n        /* \"#utility.yul\":13986:14021   */\n      eq\n        /* \"#utility.yul\":13976:14039   */\n      tag_260\n      jumpi\n        /* \"#utility.yul\":14035:14036   */\n      0x00\n        /* \"#utility.yul\":14032:14033   */\n      dup1\n        /* \"#utility.yul\":14025:14037   */\n      revert\n        /* \"#utility.yul\":13976:14039   */\n    tag_260:\n        /* \"#utility.yul\":13923:14045   */\n      pop\n      jump\t// out\n        /* \"#utility.yul\":14051:14167   */\n    tag_91:\n        /* \"#utility.yul\":14121:14142   */\n      tag_262\n        /* \"#utility.yul\":14136:14141   */\n      dup2\n        /* \"#utility.yul\":14121:14142   */\n      tag_190\n      jump\t// in\n    tag_262:\n        /* \"#utility.yul\":14114:14119   */\n      dup2\n        /* \"#utility.yul\":14111:14143   */\n      eq\n        /* \"#utility.yul\":14101:14161   */\n      tag_263\n      jumpi\n        /* \"#utility.yul\":14157:14158   */\n      0x00\n        /* \"#utility.yul\":14154:14155   */\n      dup1\n        /* \"#utility.yul\":14147:14159   */\n      revert\n        /* \"#utility.yul\":14101:14161   */\n    tag_263:\n        /* \"#utility.yul\":14051:14167   */\n      pop\n      jump\t// out\n        /* \"#utility.yul\":14173:14295   */\n    tag_95:\n        /* \"#utility.yul\":14246:14270   */\n      tag_265\n        /* \"#utility.yul\":14264:14269   */\n      dup2\n        /* \"#utility.yul\":14246:14270   */\n      tag_205\n      jump\t// in\n    tag_265:\n        /* \"#utility.yul\":14239:14244   */\n      dup2\n        /* \"#utility.yul\":14236:14271   */\n      eq\n        /* \"#utility.yul\":14226:14289   */\n      tag_266\n      jumpi\n        /* \"#utility.yul\":14285:14286   */\n      0x00\n        /* \"#utility.yul\":14282:14283   */\n      dup1\n        /* \"#utility.yul\":14275:14287   */\n      revert\n        /* \"#utility.yul\":14226:14289   */\n    tag_266:\n        /* \"#utility.yul\":14173:14295   */\n      pop\n      jump\t// out\n\n    auxdata: 0xa2646970667358221220d14b9857d126d0cb3f7ed9a6acfa023e077da9ec18ca7a175b63ba04367427ee64736f6c63430008070033\n}\n",
				"bytecode": {
					"linkReferences": {},
					"object": "608060405234801561001057600080fd5b506000600281905550336000806101000a81548173ffffffffffffffffffffffffffffffffffffffff021916908373ffffffffffffffffffffffffffffffffffffffff160217905550610df8806100686000396000f3fe608060405234801561001057600080fd5b506004361061007d5760003560e01c80639507d39a1161005b5780639507d39a146100da578063e259effa1461010a578063f2a5028114610126578063fca5e61e146101465761007d565b8063193de85d146100825780635fb07a621461009e57806392812e6f146100bc575b600080fd5b61009c6004803603810190610097919061074b565b610178565b005b6100a6610252565b6040516100b39190610a9b565b60405180910390f35b6100c4610393565b6040516100d19190610b24565b60405180910390f35b6100f460048036038101906100ef9190610778565b610399565b6040516101019190610b09565b60405180910390f35b610124600480360381019061011f91906107a5565b610441565b005b61012e610473565b60405161013d93929190610abd565b60405180910390f35b610160600480360381019061015b9190610778565b61067c565b60405161016f93929190610b3f565b60405180910390f35b604051806060016040528060025481526020018273ffffffffffffffffffffffffffffffffffffffff168152602001600115158152506001600060025481526020019081526020016000206000820151816000015560208201518160010160006101000a81548173ffffffffffffffffffffffffffffffffffffffff021916908373ffffffffffffffffffffffffffffffffffffffff16021790555060408201518160010160146101000a81548160ff0219169083151502179055509050506002600081548092919061024a90610ca2565b919050555050565b6060600060025467ffffffffffffffff81111561027257610271610d49565b5b6040519080825280602002602001820160405280156102ab57816020015b6102986106d3565b8152602001906001900390816102905790505b50905060005b60025481101561038b57600060016000838152602001908152602001600020905080604051806060016040529081600082015481526020016001820160009054906101000a900473ffffffffffffffffffffffffffffffffffffffff1673ffffffffffffffffffffffffffffffffffffffff1673ffffffffffffffffffffffffffffffffffffffff1681526020016001820160149054906101000a900460ff16151515158152505083838151811061036c5761036b610d1a565b5b602002602001018190525050808061038390610ca2565b9150506102b1565b508091505090565b60025481565b6103a16106d3565b60016000838152602001908152602001600020604051806060016040529081600082015481526020016001820160009054906101000a900473ffffffffffffffffffffffffffffffffffffffff1673ffffffffffffffffffffffffffffffffffffffff1673ffffffffffffffffffffffffffffffffffffffff1681526020016001820160149054906101000a900460ff1615151515815250509050919050565b806001600084815260200190815260200160002060010160146101000a81548160ff0219169083151502179055505050565b6060806060600060025467ffffffffffffffff81111561049657610495610d49565b5b6040519080825280602002602001820160405280156104c45781602001602082028036833780820191505090505b509050600060025467ffffffffffffffff8111156104e5576104e4610d49565b5b6040519080825280602002602001820160405280156105135781602001602082028036833780820191505090505b509050600060025467ffffffffffffffff81111561053457610533610d49565b5b6040519080825280602002602001820160405280156105625781602001602082028036833780820191505090505b50905060005b60025481101561066a57600060016000838152602001908152602001600020905080600001548583815181106105a1576105a0610d1a565b5b6020026020010181815250508060010160009054906101000a900473ffffffffffffffffffffffffffffffffffffffff168483815181106105e5576105e4610d1a565b5b602002602001019073ffffffffffffffffffffffffffffffffffffffff16908173ffffffffffffffffffffffffffffffffffffffff16815250508060010160149054906101000a900460ff1683838151811061064457610643610d1a565b5b60200260200101901515908115158152505050808061066290610ca2565b915050610568565b50828282955095509550505050909192565b60016020528060005260406000206000915090508060000154908060010160009054906101000a900473ffffffffffffffffffffffffffffffffffffffff16908060010160149054906101000a900460ff16905083565b604051806060016040528060008152602001600073ffffffffffffffffffffffffffffffffffffffff1681526020016000151581525090565b60008135905061071b81610d7d565b92915050565b60008135905061073081610d94565b92915050565b60008135905061074581610dab565b92915050565b60006020828403121561076157610760610d78565b5b600061076f8482850161070c565b91505092915050565b60006020828403121561078e5761078d610d78565b5b600061079c84828501610736565b91505092915050565b600080604083850312156107bc576107bb610d78565b5b60006107ca85828601610736565b92505060206107db85828601610721565b9150509250929050565b60006107f18383610845565b60208301905092915050565b600061080983836109db565b60208301905092915050565b600061082183836109f9565b60608301905092915050565b60006108398383610a7d565b60208301905092915050565b61084e81610c5a565b82525050565b61085d81610c5a565b82525050565b600061086e82610bb6565b6108788185610c16565b935061088383610b76565b8060005b838110156108b457815161089b88826107e5565b97506108a683610be2565b925050600181019050610887565b5085935050505092915050565b60006108cc82610bc1565b6108d68185610c27565b93506108e183610b86565b8060005b838110156109125781516108f988826107fd565b975061090483610bef565b9250506001810190506108e5565b5085935050505092915050565b600061092a82610bcc565b6109348185610c38565b935061093f83610b96565b8060005b838110156109705781516109578882610815565b975061096283610bfc565b925050600181019050610943565b5085935050505092915050565b600061098882610bd7565b6109928185610c49565b935061099d83610ba6565b8060005b838110156109ce5781516109b5888261082d565b97506109c083610c09565b9250506001810190506109a1565b5085935050505092915050565b6109e481610c6c565b82525050565b6109f381610c6c565b82525050565b606082016000820151610a0f6000850182610a7d565b506020820151610a226020850182610845565b506040820151610a3560408501826109db565b50505050565b606082016000820151610a516000850182610a7d565b506020820151610a646020850182610845565b506040820151610a7760408501826109db565b50505050565b610a8681610c98565b82525050565b610a9581610c98565b82525050565b60006020820190508181036000830152610ab5818461091f565b905092915050565b60006060820190508181036000830152610ad7818661097d565b90508181036020830152610aeb8185610863565b90508181036040830152610aff81846108c1565b9050949350505050565b6000606082019050610b1e6000830184610a3b565b92915050565b6000602082019050610b396000830184610a8c565b92915050565b6000606082019050610b546000830186610a8c565b610b616020830185610854565b610b6e60408301846109ea565b949350505050565b6000819050602082019050919050565b6000819050602082019050919050565b6000819050602082019050919050565b6000819050602082019050919050565b600081519050919050565b600081519050919050565b600081519050919050565b600081519050919050565b6000602082019050919050565b6000602082019050919050565b6000602082019050919050565b6000602082019050919050565b600082825260208201905092915050565b600082825260208201905092915050565b600082825260208201905092915050565b600082825260208201905092915050565b6000610c6582610c78565b9050919050565b60008115159050919050565b600073ffffffffffffffffffffffffffffffffffffffff82169050919050565b6000819050919050565b6000610cad82610c98565b91507fffffffffffffffffffffffffffffffffffffffffffffffffffffffffffffffff821415610ce057610cdf610ceb565b5b600182019050919050565b7f4e487b7100000000000000000000000000000000000000000000000000000000600052601160045260246000fd5b7f4e487b7100000000000000000000000000000000000000000000000000000000600052603260045260246000fd5b7f4e487b7100000000000000000000000000000000000000000000000000000000600052604160045260246000fd5b600080fd5b610d8681610c5a565b8114610d9157600080fd5b50565b610d9d81610c6c565b8114610da857600080fd5b50565b610db481610c98565b8114610dbf57600080fd5b5056fea2646970667358221220d14b9857d126d0cb3f7ed9a6acfa023e077da9ec18ca7a175b63ba04367427ee64736f6c63430008070033",
					"opcodes": "PUSH1 0x80 PUSH1 0x40 MSTORE CALLVALUE DUP1 ISZERO PUSH2 0x10 JUMPI PUSH1 0x0 DUP1 REVERT JUMPDEST POP PUSH1 0x0 PUSH1 0x2 DUP2 SWAP1 SSTORE POP CALLER PUSH1 0x0 DUP1 PUSH2 0x100 EXP DUP2 SLOAD DUP2 PUSH20 0xFFFFFFFFFFFFFFFFFFFFFFFFFFFFFFFFFFFFFFFF MUL NOT AND SWAP1 DUP4 PUSH20 0xFFFFFFFFFFFFFFFFFFFFFFFFFFFFFFFFFFFFFFFF AND MUL OR SWAP1 SSTORE POP PUSH2 0xDF8 DUP1 PUSH2 0x68 PUSH1 0x0 CODECOPY PUSH1 0x0 RETURN INVALID PUSH1 0x80 PUSH1 0x40 MSTORE CALLVALUE DUP1 ISZERO PUSH2 0x10 JUMPI PUSH1 0x0 DUP1 REVERT JUMPDEST POP PUSH1 0x4 CALLDATASIZE LT PUSH2 0x7D JUMPI PUSH1 0x0 CALLDATALOAD PUSH1 0xE0 SHR DUP1 PUSH4 0x9507D39A GT PUSH2 0x5B JUMPI DUP1 PUSH4 0x9507D39A EQ PUSH2 0xDA JUMPI DUP1 PUSH4 0xE259EFFA EQ PUSH2 0x10A JUMPI DUP1 PUSH4 0xF2A50281 EQ PUSH2 0x126 JUMPI DUP1 PUSH4 0xFCA5E61E EQ PUSH2 0x146 JUMPI PUSH2 0x7D JUMP JUMPDEST DUP1 PUSH4 0x193DE85D EQ PUSH2 0x82 JUMPI DUP1 PUSH4 0x5FB07A62 EQ PUSH2 0x9E JUMPI DUP1 PUSH4 0x92812E6F EQ PUSH2 0xBC JUMPI JUMPDEST PUSH1 0x0 DUP1 REVERT JUMPDEST PUSH2 0x9C PUSH1 0x4 DUP1 CALLDATASIZE SUB DUP2 ADD SWAP1 PUSH2 0x97 SWAP2 SWAP1 PUSH2 0x74B JUMP JUMPDEST PUSH2 0x178 JUMP JUMPDEST STOP JUMPDEST PUSH2 0xA6 PUSH2 0x252 JUMP JUMPDEST PUSH1 0x40 MLOAD PUSH2 0xB3 SWAP2 SWAP1 PUSH2 0xA9B JUMP JUMPDEST PUSH1 0x40 MLOAD DUP1 SWAP2 SUB SWAP1 RETURN JUMPDEST PUSH2 0xC4 PUSH2 0x393 JUMP JUMPDEST PUSH1 0x40 MLOAD PUSH2 0xD1 SWAP2 SWAP1 PUSH2 0xB24 JUMP JUMPDEST PUSH1 0x40 MLOAD DUP1 SWAP2 SUB SWAP1 RETURN JUMPDEST PUSH2 0xF4 PUSH1 0x4 DUP1 CALLDATASIZE SUB DUP2 ADD SWAP1 PUSH2 0xEF SWAP2 SWAP1 PUSH2 0x778 JUMP JUMPDEST PUSH2 0x399 JUMP JUMPDEST PUSH1 0x40 MLOAD PUSH2 0x101 SWAP2 SWAP1 PUSH2 0xB09 JUMP JUMPDEST PUSH1 0x40 MLOAD DUP1 SWAP2 SUB SWAP1 RETURN JUMPDEST PUSH2 0x124 PUSH1 0x4 DUP1 CALLDATASIZE SUB DUP2 ADD SWAP1 PUSH2 0x11F SWAP2 SWAP1 PUSH2 0x7A5 JUMP JUMPDEST PUSH2 0x441 JUMP JUMPDEST STOP JUMPDEST PUSH2 0x12E PUSH2 0x473 JUMP JUMPDEST PUSH1 0x40 MLOAD PUSH2 0x13D SWAP4 SWAP3 SWAP2 SWAP1 PUSH2 0xABD JUMP JUMPDEST PUSH1 0x40 MLOAD DUP1 SWAP2 SUB SWAP1 RETURN JUMPDEST PUSH2 0x160 PUSH1 0x4 DUP1 CALLDATASIZE SUB DUP2 ADD SWAP1 PUSH2 0x15B SWAP2 SWAP1 PUSH2 0x778 JUMP JUMPDEST PUSH2 0x67C JUMP JUMPDEST PUSH1 0x40 MLOAD PUSH2 0x16F SWAP4 SWAP3 SWAP2 SWAP1 PUSH2 0xB3F JUMP JUMPDEST PUSH1 0x40 MLOAD DUP1 SWAP2 SUB SWAP1 RETURN JUMPDEST PUSH1 0x40 MLOAD DUP1 PUSH1 0x60 ADD PUSH1 0x40 MSTORE DUP1 PUSH1 0x2 SLOAD DUP2 MSTORE PUSH1 0x20 ADD DUP3 PUSH20 0xFFFFFFFFFFFFFFFFFFFFFFFFFFFFFFFFFFFFFFFF AND DUP2 MSTORE PUSH1 0x20 ADD PUSH1 0x1 ISZERO ISZERO DUP2 MSTORE POP PUSH1 0x1 PUSH1 0x0 PUSH1 0x2 SLOAD DUP2 MSTORE PUSH1 0x20 ADD SWAP1 DUP2 MSTORE PUSH1 0x20 ADD PUSH1 0x0 KECCAK256 PUSH1 0x0 DUP3 ADD MLOAD DUP2 PUSH1 0x0 ADD SSTORE PUSH1 0x20 DUP3 ADD MLOAD DUP2 PUSH1 0x1 ADD PUSH1 0x0 PUSH2 0x100 EXP DUP2 SLOAD DUP2 PUSH20 0xFFFFFFFFFFFFFFFFFFFFFFFFFFFFFFFFFFFFFFFF MUL NOT AND SWAP1 DUP4 PUSH20 0xFFFFFFFFFFFFFFFFFFFFFFFFFFFFFFFFFFFFFFFF AND MUL OR SWAP1 SSTORE POP PUSH1 0x40 DUP3 ADD MLOAD DUP2 PUSH1 0x1 ADD PUSH1 0x14 PUSH2 0x100 EXP DUP2 SLOAD DUP2 PUSH1 0xFF MUL NOT AND SWAP1 DUP4 ISZERO ISZERO MUL OR SWAP1 SSTORE POP SWAP1 POP POP PUSH1 0x2 PUSH1 0x0 DUP2 SLOAD DUP1 SWAP3 SWAP2 SWAP1 PUSH2 0x24A SWAP1 PUSH2 0xCA2 JUMP JUMPDEST SWAP2 SWAP1 POP SSTORE POP POP JUMP JUMPDEST PUSH1 0x60 PUSH1 0x0 PUSH1 0x2 SLOAD PUSH8 0xFFFFFFFFFFFFFFFF DUP2 GT ISZERO PUSH2 0x272 JUMPI PUSH2 0x271 PUSH2 0xD49 JUMP JUMPDEST JUMPDEST PUSH1 0x40 MLOAD SWAP1 DUP1 DUP3 MSTORE DUP1 PUSH1 0x20 MUL PUSH1 0x20 ADD DUP3 ADD PUSH1 0x40 MSTORE DUP1 ISZERO PUSH2 0x2AB JUMPI DUP2 PUSH1 0x20 ADD JUMPDEST PUSH2 0x298 PUSH2 0x6D3 JUMP JUMPDEST DUP2 MSTORE PUSH1 0x20 ADD SWAP1 PUSH1 0x1 SWAP1 SUB SWAP1 DUP2 PUSH2 0x290 JUMPI SWAP1 POP JUMPDEST POP SWAP1 POP PUSH1 0x0 JUMPDEST PUSH1 0x2 SLOAD DUP2 LT ISZERO PUSH2 0x38B JUMPI PUSH1 0x0 PUSH1 0x1 PUSH1 0x0 DUP4 DUP2 MSTORE PUSH1 0x20 ADD SWAP1 DUP2 MSTORE PUSH1 0x20 ADD PUSH1 0x0 KECCAK256 SWAP1 POP DUP1 PUSH1 0x40 MLOAD DUP1 PUSH1 0x60 ADD PUSH1 0x40 MSTORE SWAP1 DUP2 PUSH1 0x0 DUP3 ADD SLOAD DUP2 MSTORE PUSH1 0x20 ADD PUSH1 0x1 DUP3 ADD PUSH1 0x0 SWAP1 SLOAD SWAP1 PUSH2 0x100 EXP SWAP1 DIV PUSH20 0xFFFFFFFFFFFFFFFFFFFFFFFFFFFFFFFFFFFFFFFF AND PUSH20 0xFFFFFFFFFFFFFFFFFFFFFFFFFFFFFFFFFFFFFFFF AND PUSH20 0xFFFFFFFFFFFFFFFFFFFFFFFFFFFFFFFFFFFFFFFF AND DUP2 MSTORE PUSH1 0x20 ADD PUSH1 0x1 DUP3 ADD PUSH1 0x14 SWAP1 SLOAD SWAP1 PUSH2 0x100 EXP SWAP1 DIV PUSH1 0xFF AND ISZERO ISZERO ISZERO ISZERO DUP2 MSTORE POP POP DUP4 DUP4 DUP2 MLOAD DUP2 LT PUSH2 0x36C JUMPI PUSH2 0x36B PUSH2 0xD1A JUMP JUMPDEST JUMPDEST PUSH1 0x20 MUL PUSH1 0x20 ADD ADD DUP2 SWAP1 MSTORE POP POP DUP1 DUP1 PUSH2 0x383 SWAP1 PUSH2 0xCA2 JUMP JUMPDEST SWAP2 POP POP PUSH2 0x2B1 JUMP JUMPDEST POP DUP1 SWAP2 POP POP SWAP1 JUMP JUMPDEST PUSH1 0x2 SLOAD DUP2 JUMP JUMPDEST PUSH2 0x3A1 PUSH2 0x6D3 JUMP JUMPDEST PUSH1 0x1 PUSH1 0x0 DUP4 DUP2 MSTORE PUSH1 0x20 ADD SWAP1 DUP2 MSTORE PUSH1 0x20 ADD PUSH1 0x0 KECCAK256 PUSH1 0x40 MLOAD DUP1 PUSH1 0x60 ADD PUSH1 0x40 MSTORE SWAP1 DUP2 PUSH1 0x0 DUP3 ADD SLOAD DUP2 MSTORE PUSH1 0x20 ADD PUSH1 0x1 DUP3 ADD PUSH1 0x0 SWAP1 SLOAD SWAP1 PUSH2 0x100 EXP SWAP1 DIV PUSH20 0xFFFFFFFFFFFFFFFFFFFFFFFFFFFFFFFFFFFFFFFF AND PUSH20 0xFFFFFFFFFFFFFFFFFFFFFFFFFFFFFFFFFFFFFFFF AND PUSH20 0xFFFFFFFFFFFFFFFFFFFFFFFFFFFFFFFFFFFFFFFF AND DUP2 MSTORE PUSH1 0x20 ADD PUSH1 0x1 DUP3 ADD PUSH1 0x14 SWAP1 SLOAD SWAP1 PUSH2 0x100 EXP SWAP1 DIV PUSH1 0xFF AND ISZERO ISZERO ISZERO ISZERO DUP2 MSTORE POP POP SWAP1 POP SWAP2 SWAP1 POP JUMP JUMPDEST DUP1 PUSH1 0x1 PUSH1 0x0 DUP5 DUP2 MSTORE PUSH1 0x20 ADD SWAP1 DUP2 MSTORE PUSH1 0x20 ADD PUSH1 0x0 KECCAK256 PUSH1 0x1 ADD PUSH1 0x14 PUSH2 0x100 EXP DUP2 SLOAD DUP2 PUSH1 0xFF MUL NOT AND SWAP1 DUP4 ISZERO ISZERO MUL OR SWAP1 SSTORE POP POP POP JUMP JUMPDEST PUSH1 0x60 DUP1 PUSH1 0x60 PUSH1 0x0 PUSH1 0x2 SLOAD PUSH8 0xFFFFFFFFFFFFFFFF DUP2 GT ISZERO PUSH2 0x496 JUMPI PUSH2 0x495 PUSH2 0xD49 JUMP JUMPDEST JUMPDEST PUSH1 0x40 MLOAD SWAP1 DUP1 DUP3 MSTORE DUP1 PUSH1 0x20 MUL PUSH1 0x20 ADD DUP3 ADD PUSH1 0x40 MSTORE DUP1 ISZERO PUSH2 0x4C4 JUMPI DUP2 PUSH1 0x20 ADD PUSH1 0x20 DUP3 MUL DUP1 CALLDATASIZE DUP4 CALLDATACOPY DUP1 DUP3 ADD SWAP2 POP POP SWAP1 POP JUMPDEST POP SWAP1 POP PUSH1 0x0 PUSH1 0x2 SLOAD PUSH8 0xFFFFFFFFFFFFFFFF DUP2 GT ISZERO PUSH2 0x4E5 JUMPI PUSH2 0x4E4 PUSH2 0xD49 JUMP JUMPDEST JUMPDEST PUSH1 0x40 MLOAD SWAP1 DUP1 DUP3 MSTORE DUP1 PUSH1 0x20 MUL PUSH1 0x20 ADD DUP3 ADD PUSH1 0x40 MSTORE DUP1 ISZERO PUSH2 0x513 JUMPI DUP2 PUSH1 0x20 ADD PUSH1 0x20 DUP3 MUL DUP1 CALLDATASIZE DUP4 CALLDATACOPY DUP1 DUP3 ADD SWAP2 POP POP SWAP1 POP JUMPDEST POP SWAP1 POP PUSH1 0x0 PUSH1 0x2 SLOAD PUSH8 0xFFFFFFFFFFFFFFFF DUP2 GT ISZERO PUSH2 0x534 JUMPI PUSH2 0x533 PUSH2 0xD49 JUMP JUMPDEST JUMPDEST PUSH1 0x40 MLOAD SWAP1 DUP1 DUP3 MSTORE DUP1 PUSH1 0x20 MUL PUSH1 0x20 ADD DUP3 ADD PUSH1 0x40 MSTORE DUP1 ISZERO PUSH2 0x562 JUMPI DUP2 PUSH1 0x20 ADD PUSH1 0x20 DUP3 MUL DUP1 CALLDATASIZE DUP4 CALLDATACOPY DUP1 DUP3 ADD SWAP2 POP POP SWAP1 POP JUMPDEST POP SWAP1 POP PUSH1 0x0 JUMPDEST PUSH1 0x2 SLOAD DUP2 LT ISZERO PUSH2 0x66A JUMPI PUSH1 0x0 PUSH1 0x1 PUSH1 0x0 DUP4 DUP2 MSTORE PUSH1 0x20 ADD SWAP1 DUP2 MSTORE PUSH1 0x20 ADD PUSH1 0x0 KECCAK256 SWAP1 POP DUP1 PUSH1 0x0 ADD SLOAD DUP6 DUP4 DUP2 MLOAD DUP2 LT PUSH2 0x5A1 JUMPI PUSH2 0x5A0 PUSH2 0xD1A JUMP JUMPDEST JUMPDEST PUSH1 0x20 MUL PUSH1 0x20 ADD ADD DUP2 DUP2 MSTORE POP POP DUP1 PUSH1 0x1 ADD PUSH1 0x0 SWAP1 SLOAD SWAP1 PUSH2 0x100 EXP SWAP1 DIV PUSH20 0xFFFFFFFFFFFFFFFFFFFFFFFFFFFFFFFFFFFFFFFF AND DUP5 DUP4 DUP2 MLOAD DUP2 LT PUSH2 0x5E5 JUMPI PUSH2 0x5E4 PUSH2 0xD1A JUMP JUMPDEST JUMPDEST PUSH1 0x20 MUL PUSH1 0x20 ADD ADD SWAP1 PUSH20 0xFFFFFFFFFFFFFFFFFFFFFFFFFFFFFFFFFFFFFFFF AND SWAP1 DUP2 PUSH20 0xFFFFFFFFFFFFFFFFFFFFFFFFFFFFFFFFFFFFFFFF AND DUP2 MSTORE POP POP DUP1 PUSH1 0x1 ADD PUSH1 0x14 SWAP1 SLOAD SWAP1 PUSH2 0x100 EXP SWAP1 DIV PUSH1 0xFF AND DUP4 DUP4 DUP2 MLOAD DUP2 LT PUSH2 0x644 JUMPI PUSH2 0x643 PUSH2 0xD1A JUMP JUMPDEST JUMPDEST PUSH1 0x20 MUL PUSH1 0x20 ADD ADD SWAP1 ISZERO ISZERO SWAP1 DUP2 ISZERO ISZERO DUP2 MSTORE POP POP POP DUP1 DUP1 PUSH2 0x662 SWAP1 PUSH2 0xCA2 JUMP JUMPDEST SWAP2 POP POP PUSH2 0x568 JUMP JUMPDEST POP DUP3 DUP3 DUP3 SWAP6 POP SWAP6 POP SWAP6 POP POP POP POP SWAP1 SWAP2 SWAP3 JUMP JUMPDEST PUSH1 0x1 PUSH1 0x20 MSTORE DUP1 PUSH1 0x0 MSTORE PUSH1 0x40 PUSH1 0x0 KECCAK256 PUSH1 0x0 SWAP2 POP SWAP1 POP DUP1 PUSH1 0x0 ADD SLOAD SWAP1 DUP1 PUSH1 0x1 ADD PUSH1 0x0 SWAP1 SLOAD SWAP1 PUSH2 0x100 EXP SWAP1 DIV PUSH20 0xFFFFFFFFFFFFFFFFFFFFFFFFFFFFFFFFFFFFFFFF AND SWAP1 DUP1 PUSH1 0x1 ADD PUSH1 0x14 SWAP1 SLOAD SWAP1 PUSH2 0x100 EXP SWAP1 DIV PUSH1 0xFF AND SWAP1 POP DUP4 JUMP JUMPDEST PUSH1 0x40 MLOAD DUP1 PUSH1 0x60 ADD PUSH1 0x40 MSTORE DUP1 PUSH1 0x0 DUP2 MSTORE PUSH1 0x20 ADD PUSH1 0x0 PUSH20 0xFFFFFFFFFFFFFFFFFFFFFFFFFFFFFFFFFFFFFFFF AND DUP2 MSTORE PUSH1 0x20 ADD PUSH1 0x0 ISZERO ISZERO DUP2 MSTORE POP SWAP1 JUMP JUMPDEST PUSH1 0x0 DUP2 CALLDATALOAD SWAP1 POP PUSH2 0x71B DUP2 PUSH2 0xD7D JUMP JUMPDEST SWAP3 SWAP2 POP POP JUMP JUMPDEST PUSH1 0x0 DUP2 CALLDATALOAD SWAP1 POP PUSH2 0x730 DUP2 PUSH2 0xD94 JUMP JUMPDEST SWAP3 SWAP2 POP POP JUMP JUMPDEST PUSH1 0x0 DUP2 CALLDATALOAD SWAP1 POP PUSH2 0x745 DUP2 PUSH2 0xDAB JUMP JUMPDEST SWAP3 SWAP2 POP POP JUMP JUMPDEST PUSH1 0x0 PUSH1 0x20 DUP3 DUP5 SUB SLT ISZERO PUSH2 0x761 JUMPI PUSH2 0x760 PUSH2 0xD78 JUMP JUMPDEST JUMPDEST PUSH1 0x0 PUSH2 0x76F DUP5 DUP3 DUP6 ADD PUSH2 0x70C JUMP JUMPDEST SWAP2 POP POP SWAP3 SWAP2 POP POP JUMP JUMPDEST PUSH1 0x0 PUSH1 0x20 DUP3 DUP5 SUB SLT ISZERO PUSH2 0x78E JUMPI PUSH2 0x78D PUSH2 0xD78 JUMP JUMPDEST JUMPDEST PUSH1 0x0 PUSH2 0x79C DUP5 DUP3 DUP6 ADD PUSH2 0x736 JUMP JUMPDEST SWAP2 POP POP SWAP3 SWAP2 POP POP JUMP JUMPDEST PUSH1 0x0 DUP1 PUSH1 0x40 DUP4 DUP6 SUB SLT ISZERO PUSH2 0x7BC JUMPI PUSH2 0x7BB PUSH2 0xD78 JUMP JUMPDEST JUMPDEST PUSH1 0x0 PUSH2 0x7CA DUP6 DUP3 DUP7 ADD PUSH2 0x736 JUMP JUMPDEST SWAP3 POP POP PUSH1 0x20 PUSH2 0x7DB DUP6 DUP3 DUP7 ADD PUSH2 0x721 JUMP JUMPDEST SWAP2 POP POP SWAP3 POP SWAP3 SWAP1 POP JUMP JUMPDEST PUSH1 0x0 PUSH2 0x7F1 DUP4 DUP4 PUSH2 0x845 JUMP JUMPDEST PUSH1 0x20 DUP4 ADD SWAP1 POP SWAP3 SWAP2 POP POP JUMP JUMPDEST PUSH1 0x0 PUSH2 0x809 DUP4 DUP4 PUSH2 0x9DB JUMP JUMPDEST PUSH1 0x20 DUP4 ADD SWAP1 POP SWAP3 SWAP2 POP POP JUMP JUMPDEST PUSH1 0x0 PUSH2 0x821 DUP4 DUP4 PUSH2 0x9F9 JUMP JUMPDEST PUSH1 0x60 DUP4 ADD SWAP1 POP SWAP3 SWAP2 POP POP JUMP JUMPDEST PUSH1 0x0 PUSH2 0x839 DUP4 DUP4 PUSH2 0xA7D JUMP JUMPDEST PUSH1 0x20 DUP4 ADD SWAP1 POP SWAP3 SWAP2 POP POP JUMP JUMPDEST PUSH2 0x84E DUP2 PUSH2 0xC5A JUMP JUMPDEST DUP3 MSTORE POP POP JUMP JUMPDEST PUSH2 0x85D DUP2 PUSH2 0xC5A JUMP JUMPDEST DUP3 MSTORE POP POP JUMP JUMPDEST PUSH1 0x0 PUSH2 0x86E DUP3 PUSH2 0xBB6 JUMP JUMPDEST PUSH2 0x878 DUP2 DUP6 PUSH2 0xC16 JUMP JUMPDEST SWAP4 POP PUSH2 0x883 DUP4 PUSH2 0xB76 JUMP JUMPDEST DUP1 PUSH1 0x0 JUMPDEST DUP4 DUP2 LT ISZERO PUSH2 0x8B4 JUMPI DUP2 MLOAD PUSH2 0x89B DUP9 DUP3 PUSH2 0x7E5 JUMP JUMPDEST SWAP8 POP PUSH2 0x8A6 DUP4 PUSH2 0xBE2 JUMP JUMPDEST SWAP3 POP POP PUSH1 0x1 DUP2 ADD SWAP1 POP PUSH2 0x887 JUMP JUMPDEST POP DUP6 SWAP4 POP POP POP POP SWAP3 SWAP2 POP POP JUMP JUMPDEST PUSH1 0x0 PUSH2 0x8CC DUP3 PUSH2 0xBC1 JUMP JUMPDEST PUSH2 0x8D6 DUP2 DUP6 PUSH2 0xC27 JUMP JUMPDEST SWAP4 POP PUSH2 0x8E1 DUP4 PUSH2 0xB86 JUMP JUMPDEST DUP1 PUSH1 0x0 JUMPDEST DUP4 DUP2 LT ISZERO PUSH2 0x912 JUMPI DUP2 MLOAD PUSH2 0x8F9 DUP9 DUP3 PUSH2 0x7FD JUMP JUMPDEST SWAP8 POP PUSH2 0x904 DUP4 PUSH2 0xBEF JUMP JUMPDEST SWAP3 POP POP PUSH1 0x1 DUP2 ADD SWAP1 POP PUSH2 0x8E5 JUMP JUMPDEST POP DUP6 SWAP4 POP POP POP POP SWAP3 SWAP2 POP POP JUMP JUMPDEST PUSH1 0x0 PUSH2 0x92A DUP3 PUSH2 0xBCC JUMP JUMPDEST PUSH2 0x934 DUP2 DUP6 PUSH2 0xC38 JUMP JUMPDEST SWAP4 POP PUSH2 0x93F DUP4 PUSH2 0xB96 JUMP JUMPDEST DUP1 PUSH1 0x0 JUMPDEST DUP4 DUP2 LT ISZERO PUSH2 0x970 JUMPI DUP2 MLOAD PUSH2 0x957 DUP9 DUP3 PUSH2 0x815 JUMP JUMPDEST SWAP8 POP PUSH2 0x962 DUP4 PUSH2 0xBFC JUMP JUMPDEST SWAP3 POP POP PUSH1 0x1 DUP2 ADD SWAP1 POP PUSH2 0x943 JUMP JUMPDEST POP DUP6 SWAP4 POP POP POP POP SWAP3 SWAP2 POP POP JUMP JUMPDEST PUSH1 0x0 PUSH2 0x988 DUP3 PUSH2 0xBD7 JUMP JUMPDEST PUSH2 0x992 DUP2 DUP6 PUSH2 0xC49 JUMP JUMPDEST SWAP4 POP PUSH2 0x99D DUP4 PUSH2 0xBA6 JUMP JUMPDEST DUP1 PUSH1 0x0 JUMPDEST DUP4 DUP2 LT ISZERO PUSH2 0x9CE JUMPI DUP2 MLOAD PUSH2 0x9B5 DUP9 DUP3 PUSH2 0x82D JUMP JUMPDEST SWAP8 POP PUSH2 0x9C0 DUP4 PUSH2 0xC09 JUMP JUMPDEST SWAP3 POP POP PUSH1 0x1 DUP2 ADD SWAP1 POP PUSH2 0x9A1 JUMP JUMPDEST POP DUP6 SWAP4 POP POP POP POP SWAP3 SWAP2 POP POP JUMP JUMPDEST PUSH2 0x9E4 DUP2 PUSH2 0xC6C JUMP JUMPDEST DUP3 MSTORE POP POP JUMP JUMPDEST PUSH2 0x9F3 DUP2 PUSH2 0xC6C JUMP JUMPDEST DUP3 MSTORE POP POP JUMP JUMPDEST PUSH1 0x60 DUP3 ADD PUSH1 0x0 DUP3 ADD MLOAD PUSH2 0xA0F PUSH1 0x0 DUP6 ADD DUP3 PUSH2 0xA7D JUMP JUMPDEST POP PUSH1 0x20 DUP3 ADD MLOAD PUSH2 0xA22 PUSH1 0x20 DUP6 ADD DUP3 PUSH2 0x845 JUMP JUMPDEST POP PUSH1 0x40 DUP3 ADD MLOAD PUSH2 0xA35 PUSH1 0x40 DUP6 ADD DUP3 PUSH2 0x9DB JUMP JUMPDEST POP POP POP POP JUMP JUMPDEST PUSH1 0x60 DUP3 ADD PUSH1 0x0 DUP3 ADD MLOAD PUSH2 0xA51 PUSH1 0x0 DUP6 ADD DUP3 PUSH2 0xA7D JUMP JUMPDEST POP PUSH1 0x20 DUP3 ADD MLOAD PUSH2 0xA64 PUSH1 0x20 DUP6 ADD DUP3 PUSH2 0x845 JUMP JUMPDEST POP PUSH1 0x40 DUP3 ADD MLOAD PUSH2 0xA77 PUSH1 0x40 DUP6 ADD DUP3 PUSH2 0x9DB JUMP JUMPDEST POP POP POP POP JUMP JUMPDEST PUSH2 0xA86 DUP2 PUSH2 0xC98 JUMP JUMPDEST DUP3 MSTORE POP POP JUMP JUMPDEST PUSH2 0xA95 DUP2 PUSH2 0xC98 JUMP JUMPDEST DUP3 MSTORE POP POP JUMP JUMPDEST PUSH1 0x0 PUSH1 0x20 DUP3 ADD SWAP1 POP DUP2 DUP2 SUB PUSH1 0x0 DUP4 ADD MSTORE PUSH2 0xAB5 DUP2 DUP5 PUSH2 0x91F JUMP JUMPDEST SWAP1 POP SWAP3 SWAP2 POP POP JUMP JUMPDEST PUSH1 0x0 PUSH1 0x60 DUP3 ADD SWAP1 POP DUP2 DUP2 SUB PUSH1 0x0 DUP4 ADD MSTORE PUSH2 0xAD7 DUP2 DUP7 PUSH2 0x97D JUMP JUMPDEST SWAP1 POP DUP2 DUP2 SUB PUSH1 0x20 DUP4 ADD MSTORE PUSH2 0xAEB DUP2 DUP6 PUSH2 0x863 JUMP JUMPDEST SWAP1 POP DUP2 DUP2 SUB PUSH1 0x40 DUP4 ADD MSTORE PUSH2 0xAFF DUP2 DUP5 PUSH2 0x8C1 JUMP JUMPDEST SWAP1 POP SWAP5 SWAP4 POP POP POP POP JUMP JUMPDEST PUSH1 0x0 PUSH1 0x60 DUP3 ADD SWAP1 POP PUSH2 0xB1E PUSH1 0x0 DUP4 ADD DUP5 PUSH2 0xA3B JUMP JUMPDEST SWAP3 SWAP2 POP POP JUMP JUMPDEST PUSH1 0x0 PUSH1 0x20 DUP3 ADD SWAP1 POP PUSH2 0xB39 PUSH1 0x0 DUP4 ADD DUP5 PUSH2 0xA8C JUMP JUMPDEST SWAP3 SWAP2 POP POP JUMP JUMPDEST PUSH1 0x0 PUSH1 0x60 DUP3 ADD SWAP1 POP PUSH2 0xB54 PUSH1 0x0 DUP4 ADD DUP7 PUSH2 0xA8C JUMP JUMPDEST PUSH2 0xB61 PUSH1 0x20 DUP4 ADD DUP6 PUSH2 0x854 JUMP JUMPDEST PUSH2 0xB6E PUSH1 0x40 DUP4 ADD DUP5 PUSH2 0x9EA JUMP JUMPDEST SWAP5 SWAP4 POP POP POP POP JUMP JUMPDEST PUSH1 0x0 DUP2 SWAP1 POP PUSH1 0x20 DUP3 ADD SWAP1 POP SWAP2 SWAP1 POP JUMP JUMPDEST PUSH1 0x0 DUP2 SWAP1 POP PUSH1 0x20 DUP3 ADD SWAP1 POP SWAP2 SWAP1 POP JUMP JUMPDEST PUSH1 0x0 DUP2 SWAP1 POP PUSH1 0x20 DUP3 ADD SWAP1 POP SWAP2 SWAP1 POP JUMP JUMPDEST PUSH1 0x0 DUP2 SWAP1 POP PUSH1 0x20 DUP3 ADD SWAP1 POP SWAP2 SWAP1 POP JUMP JUMPDEST PUSH1 0x0 DUP2 MLOAD SWAP1 POP SWAP2 SWAP1 POP JUMP JUMPDEST PUSH1 0x0 DUP2 MLOAD SWAP1 POP SWAP2 SWAP1 POP JUMP JUMPDEST PUSH1 0x0 DUP2 MLOAD SWAP1 POP SWAP2 SWAP1 POP JUMP JUMPDEST PUSH1 0x0 DUP2 MLOAD SWAP1 POP SWAP2 SWAP1 POP JUMP JUMPDEST PUSH1 0x0 PUSH1 0x20 DUP3 ADD SWAP1 POP SWAP2 SWAP1 POP JUMP JUMPDEST PUSH1 0x0 PUSH1 0x20 DUP3 ADD SWAP1 POP SWAP2 SWAP1 POP JUMP JUMPDEST PUSH1 0x0 PUSH1 0x20 DUP3 ADD SWAP1 POP SWAP2 SWAP1 POP JUMP JUMPDEST PUSH1 0x0 PUSH1 0x20 DUP3 ADD SWAP1 POP SWAP2 SWAP1 POP JUMP JUMPDEST PUSH1 0x0 DUP3 DUP3 MSTORE PUSH1 0x20 DUP3 ADD SWAP1 POP SWAP3 SWAP2 POP POP JUMP JUMPDEST PUSH1 0x0 DUP3 DUP3 MSTORE PUSH1 0x20 DUP3 ADD SWAP1 POP SWAP3 SWAP2 POP POP JUMP JUMPDEST PUSH1 0x0 DUP3 DUP3 MSTORE PUSH1 0x20 DUP3 ADD SWAP1 POP SWAP3 SWAP2 POP POP JUMP JUMPDEST PUSH1 0x0 DUP3 DUP3 MSTORE PUSH1 0x20 DUP3 ADD SWAP1 POP SWAP3 SWAP2 POP POP JUMP JUMPDEST PUSH1 0x0 PUSH2 0xC65 DUP3 PUSH2 0xC78 JUMP JUMPDEST SWAP1 POP SWAP2 SWAP1 POP JUMP JUMPDEST PUSH1 0x0 DUP2 ISZERO ISZERO SWAP1 POP SWAP2 SWAP1 POP JUMP JUMPDEST PUSH1 0x0 PUSH20 0xFFFFFFFFFFFFFFFFFFFFFFFFFFFFFFFFFFFFFFFF DUP3 AND SWAP1 POP SWAP2 SWAP1 POP JUMP JUMPDEST PUSH1 0x0 DUP2 SWAP1 POP SWAP2 SWAP1 POP JUMP JUMPDEST PUSH1 0x0 PUSH2 0xCAD DUP3 PUSH2 0xC98 JUMP JUMPDEST SWAP2 POP PUSH32 0xFFFFFFFFFFFFFFFFFFFFFFFFFFFFFFFFFFFFFFFFFFFFFFFFFFFFFFFFFFFFFFFF DUP3 EQ ISZERO PUSH2 0xCE0 JUMPI PUSH2 0xCDF PUSH2 0xCEB JUMP JUMPDEST JUMPDEST PUSH1 0x1 DUP3 ADD SWAP1 POP SWAP2 SWAP1 POP JUMP JUMPDEST PUSH32 0x4E487B7100000000000000000000000000000000000000000000000000000000 PUSH1 0x0 MSTORE PUSH1 0x11 PUSH1 0x4 MSTORE PUSH1 0x24 PUSH1 0x0 REVERT JUMPDEST PUSH32 0x4E487B7100000000000000000000000000000000000000000000000000000000 PUSH1 0x0 MSTORE PUSH1 0x32 PUSH1 0x4 MSTORE PUSH1 0x24 PUSH1 0x0 REVERT JUMPDEST PUSH32 0x4E487B7100000000000000000000000000000000000000000000000000000000 PUSH1 0x0 MSTORE PUSH1 0x41 PUSH1 0x4 MSTORE PUSH1 0x24 PUSH1 0x0 REVERT JUMPDEST PUSH1 0x0 DUP1 REVERT JUMPDEST PUSH2 0xD86 DUP2 PUSH2 0xC5A JUMP JUMPDEST DUP2 EQ PUSH2 0xD91 JUMPI PUSH1 0x0 DUP1 REVERT JUMPDEST POP JUMP JUMPDEST PUSH2 0xD9D DUP2 PUSH2 0xC6C JUMP JUMPDEST DUP2 EQ PUSH2 0xDA8 JUMPI PUSH1 0x0 DUP1 REVERT JUMPDEST POP JUMP JUMPDEST PUSH2 0xDB4 DUP2 PUSH2 0xC98 JUMP JUMPDEST DUP2 EQ PUSH2 0xDBF JUMPI PUSH1 0x0 DUP1 REVERT JUMPDEST POP JUMP INVALID LOG2 PUSH5 0x6970667358 0x22 SLT KECCAK256 0xD1 0x4B SWAP9 JUMPI 0xD1 0x26 0xD0 0xCB EXTCODEHASH PUSH31 0xD9A6ACFA023E077DA9EC18CA7A175B63BA04367427EE64736F6C6343000807 STOP CALLER "
				},
				"gasEstimates": {
					"creation": {
						"codeDepositCost": "715200",
						"executionCost": "30027",
						"totalCost": "745227"
					},
					"external": {
						"addDrug(address)": "99928",
						"changeDrugStatus(uint256,bool)": "25008",
						"drugs(uint256)": "infinite",
						"drugsCount()": "2474",
						"get(uint256)": "infinite",
						"getDrug()": "infinite",
						"getDrugs()": "infinite"
					}
				},
				"methodIdentifiers": {
					"addDrug(address)": "193de85d",
					"changeDrugStatus(uint256,bool)": "e259effa",
					"drugs(uint256)": "fca5e61e",
					"drugsCount()": "92812e6f",
					"get(uint256)": "9507d39a",
					"getDrug()": "f2a50281",
					"getDrugs()": "5fb07a62"
				}
			},
			"storageLayout": {
				"storage": [
					{
						"astId": 11,
						"contract": "contracts/Drugs.sol:Drugs",
						"label": "owner",
						"offset": 0,
						"slot": "0",
						"type": "t_address"
					},
					{
						"astId": 27,
						"contract": "contracts/Drugs.sol:Drugs",
						"label": "drugs",
						"offset": 0,
						"slot": "1",
						"type": "t_mapping(t_uint256,t_struct(Drug)9_storage)"
					},
					{
						"astId": 29,
						"contract": "contracts/Drugs.sol:Drugs",
						"label": "drugsCount",
						"offset": 0,
						"slot": "2",
						"type": "t_uint256"
					}
				],
				"types": {
					"t_address": {
						"encoding": "inplace",
						"label": "address",
						"numberOfBytes": "20"
					},
					"t_bool": {
						"encoding": "inplace",
						"label": "bool",
						"numberOfBytes": "1"
					},
					"t_mapping(t_uint256,t_struct(Drug)9_storage)": {
						"encoding": "mapping",
						"key": "t_uint256",
						"label": "mapping(uint256 => struct Drugs.Drug)",
						"numberOfBytes": "32",
						"value": "t_struct(Drug)9_storage"
					},
					"t_struct(Drug)9_storage": {
						"encoding": "inplace",
						"label": "struct Drugs.Drug",
						"members": [
							{
								"astId": 4,
								"contract": "contracts/Drugs.sol:Drugs",
								"label": "DrugID",
								"offset": 0,
								"slot": "0",
								"type": "t_uint256"
							},
							{
								"astId": 6,
								"contract": "contracts/Drugs.sol:Drugs",
								"label": "Manufacturer",
								"offset": 0,
								"slot": "1",
								"type": "t_address"
							},
							{
								"astId": 8,
								"contract": "contracts/Drugs.sol:Drugs",
								"label": "IsActive",
								"offset": 20,
								"slot": "1",
								"type": "t_bool"
							}
						],
						"numberOfBytes": "64"
					},
					"t_uint256": {
						"encoding": "inplace",
						"label": "uint256",
						"numberOfBytes": "32"
					}
				}
			},
			"userdoc": {
				"kind": "user",
				"methods": {},
				"version": 1
			}
		}
	}
}