{
	"contracts/PtachsTransactions.sol": {
		"PatchsTransactions": {
			"abi": [
				{
					"inputs": [
						{
							"internalType": "string",
							"name": "_drugregno",
							"type": "string"
						},
						{
							"internalType": "string",
							"name": "_patchno",
							"type": "string"
						},
						{
							"internalType": "uint256",
							"name": "_amount",
							"type": "uint256"
						}
					],
					"name": "CreatePatch",
					"outputs": [
						{
							"internalType": "bool",
							"name": "",
							"type": "bool"
						}
					],
					"stateMutability": "nonpayable",
					"type": "function"
				},
				{
					"inputs": [
						{
							"internalType": "address",
							"name": "_partneraddress",
							"type": "address"
						}
					],
					"name": "GetUserByAddress",
					"outputs": [
						{
							"components": [
								{
									"internalType": "string",
									"name": "UserName",
									"type": "string"
								},
								{
									"internalType": "enum Utils.UserRoles",
									"name": "UserRole",
									"type": "uint8"
								},
								{
									"internalType": "enum Utils.Statuses",
									"name": "UserStatus",
									"type": "uint8"
								},
								{
									"internalType": "uint256",
									"name": "Latitude",
									"type": "uint256"
								},
								{
									"internalType": "uint256",
									"name": "Longitude",
									"type": "uint256"
								},
								{
									"internalType": "address",
									"name": "UserAddress",
									"type": "address"
								}
							],
							"internalType": "struct Utils.User",
							"name": "filteredUsers",
							"type": "tuple"
						}
					],
					"stateMutability": "view",
					"type": "function"
				},
				{
					"inputs": [
						{
							"internalType": "address",
							"name": "_partneraddress",
							"type": "address"
						}
					],
					"name": "GetUserIDByAddress",
					"outputs": [
						{
							"internalType": "string",
							"name": "",
							"type": "string"
						}
					],
					"stateMutability": "view",
					"type": "function"
				},
				{
					"inputs": [
						{
							"internalType": "uint256",
							"name": "",
							"type": "uint256"
						}
					],
					"name": "PatchTrannsactions",
					"outputs": [
						{
							"internalType": "string",
							"name": "DrugRegNo",
							"type": "string"
						},
						{
							"internalType": "string",
							"name": "PatchNo",
							"type": "string"
						},
						{
							"internalType": "uint256",
							"name": "LineNo",
							"type": "uint256"
						},
						{
							"internalType": "string",
							"name": "FromID",
							"type": "string"
						},
						{
							"internalType": "string",
							"name": "ToID",
							"type": "string"
						},
						{
							"internalType": "uint256",
							"name": "Amount",
							"type": "uint256"
						}
					],
					"stateMutability": "view",
					"type": "function"
				},
				{
					"inputs": [
						{
							"internalType": "string",
							"name": "_regno",
							"type": "string"
						}
					],
					"name": "ReadDrug",
					"outputs": [
						{
							"components": [
								{
									"internalType": "string",
									"name": "DrugName",
									"type": "string"
								},
								{
									"internalType": "address",
									"name": "Manufacturer",
									"type": "address"
								},
								{
									"internalType": "enum Utils.Statuses",
									"name": "DrugStatus",
									"type": "uint8"
								}
							],
							"internalType": "struct Utils.Drug",
							"name": "",
							"type": "tuple"
						}
					],
					"stateMutability": "view",
					"type": "function"
				}
			],
			"devdoc": {
				"kind": "dev",
				"methods": {},
				"version": 1
			},
			"evm": {
				"assembly": "    /* \"contracts/PtachsTransactions.sol\":120:1872  contract PatchsTransactions is Utils{\r... */\n  mstore(0x40, 0x80)\n  callvalue\n  dup1\n  iszero\n  tag_1\n  jumpi\n  0x00\n  dup1\n  revert\ntag_1:\n  pop\n  dataSize(sub_0)\n  dup1\n  dataOffset(sub_0)\n  0x00\n  codecopy\n  0x00\n  return\nstop\n\nsub_0: assembly {\n        /* \"contracts/PtachsTransactions.sol\":120:1872  contract PatchsTransactions is Utils{\r... */\n      mstore(0x40, 0x80)\n      callvalue\n      dup1\n      iszero\n      tag_1\n      jumpi\n      0x00\n      dup1\n      revert\n    tag_1:\n      pop\n      jumpi(tag_2, lt(calldatasize, 0x04))\n      shr(0xe0, calldataload(0x00))\n      dup1\n      0x1567697c\n      eq\n      tag_3\n      jumpi\n      dup1\n      0x1892fd78\n      eq\n      tag_4\n      jumpi\n      dup1\n      0x43db3e66\n      eq\n      tag_5\n      jumpi\n      dup1\n      0xcdf7e73d\n      eq\n      tag_6\n      jumpi\n      dup1\n      0xd9081577\n      eq\n      tag_7\n      jumpi\n    tag_2:\n      0x00\n      dup1\n      revert\n        /* \"contracts/PtachsTransactions.sol\":435:479  PatchTransaction[] public PatchTrannsactions */\n    tag_3:\n      tag_8\n      0x04\n      dup1\n      calldatasize\n      sub\n      dup2\n      add\n      swap1\n      tag_9\n      swap2\n      swap1\n      tag_10\n      jump\t// in\n    tag_9:\n      tag_11\n      jump\t// in\n    tag_8:\n      mload(0x40)\n      tag_12\n      swap7\n      swap6\n      swap5\n      swap4\n      swap3\n      swap2\n      swap1\n      tag_13\n      jump\t// in\n    tag_12:\n      mload(0x40)\n      dup1\n      swap2\n      sub\n      swap1\n      return\n        /* \"contracts/PtachsTransactions.sol\":604:1118  function GetUserByAddress(address _partneraddress)\r... */\n    tag_4:\n      tag_14\n      0x04\n      dup1\n      calldatasize\n      sub\n      dup2\n      add\n      swap1\n      tag_15\n      swap2\n      swap1\n      tag_16\n      jump\t// in\n    tag_15:\n      tag_17\n      jump\t// in\n    tag_14:\n      mload(0x40)\n      tag_18\n      swap2\n      swap1\n      tag_19\n      jump\t// in\n    tag_18:\n      mload(0x40)\n      dup1\n      swap2\n      sub\n      swap1\n      return\n        /* \"contracts/PtachsTransactions.sol\":1124:1552  function GetUserIDByAddress(address _partneraddress)\r... */\n    tag_5:\n      tag_20\n      0x04\n      dup1\n      calldatasize\n      sub\n      dup2\n      add\n      swap1\n      tag_21\n      swap2\n      swap1\n      tag_16\n      jump\t// in\n    tag_21:\n      tag_22\n      jump\t// in\n    tag_20:\n      mload(0x40)\n      tag_23\n      swap2\n      swap1\n      tag_24\n      jump\t// in\n    tag_23:\n      mload(0x40)\n      dup1\n      swap2\n      sub\n      swap1\n      return\n        /* \"contracts/Utils.sol\":1078:1202  function ReadDrug(string memory _regno) public view returns (Drug memory) {\r... */\n    tag_6:\n      tag_25\n      0x04\n      dup1\n      calldatasize\n      sub\n      dup2\n      add\n      swap1\n      tag_26\n      swap2\n      swap1\n      tag_27\n      jump\t// in\n    tag_26:\n      tag_28\n      jump\t// in\n    tag_25:\n      mload(0x40)\n      tag_29\n      swap2\n      swap1\n      tag_30\n      jump\t// in\n    tag_29:\n      mload(0x40)\n      dup1\n      swap2\n      sub\n      swap1\n      return\n        /* \"contracts/PtachsTransactions.sol\":1562:1867  function CreatePatch (string memory _drugregno,string memory _patchno, uint _amount) public returns(bool){\r... */\n    tag_7:\n      tag_31\n      0x04\n      dup1\n      calldatasize\n      sub\n      dup2\n      add\n      swap1\n      tag_32\n      swap2\n      swap1\n      tag_33\n      jump\t// in\n    tag_32:\n      tag_34\n      jump\t// in\n    tag_31:\n      mload(0x40)\n      tag_35\n      swap2\n      swap1\n      tag_36\n      jump\t// in\n    tag_35:\n      mload(0x40)\n      dup1\n      swap2\n      sub\n      swap1\n      return\n        /* \"contracts/PtachsTransactions.sol\":435:479  PatchTransaction[] public PatchTrannsactions */\n    tag_11:\n      0x04\n      dup2\n      dup2\n      sload\n      dup2\n      lt\n      tag_37\n      jumpi\n      0x00\n      dup1\n      revert\n    tag_37:\n      swap1\n      0x00\n      mstore\n      keccak256(0x00, 0x20)\n      swap1\n      0x06\n      mul\n      add\n      0x00\n      swap2\n      pop\n      swap1\n      pop\n      dup1\n      0x00\n      add\n      dup1\n      sload\n      tag_39\n      swap1\n      tag_40\n      jump\t// in\n    tag_39:\n      dup1\n      0x1f\n      add\n      0x20\n      dup1\n      swap2\n      div\n      mul\n      0x20\n      add\n      mload(0x40)\n      swap1\n      dup2\n      add\n      0x40\n      mstore\n      dup1\n      swap3\n      swap2\n      swap1\n      dup2\n      dup2\n      mstore\n      0x20\n      add\n      dup3\n      dup1\n      sload\n      tag_41\n      swap1\n      tag_40\n      jump\t// in\n    tag_41:\n      dup1\n      iszero\n      tag_42\n      jumpi\n      dup1\n      0x1f\n      lt\n      tag_43\n      jumpi\n      0x0100\n      dup1\n      dup4\n      sload\n      div\n      mul\n      dup4\n      mstore\n      swap2\n      0x20\n      add\n      swap2\n      jump(tag_42)\n    tag_43:\n      dup3\n      add\n      swap2\n      swap1\n      0x00\n      mstore\n      keccak256(0x00, 0x20)\n      swap1\n    tag_44:\n      dup2\n      sload\n      dup2\n      mstore\n      swap1\n      0x01\n      add\n      swap1\n      0x20\n      add\n      dup1\n      dup4\n      gt\n      tag_44\n      jumpi\n      dup3\n      swap1\n      sub\n      0x1f\n      and\n      dup3\n      add\n      swap2\n    tag_42:\n      pop\n      pop\n      pop\n      pop\n      pop\n      swap1\n      dup1\n      0x01\n      add\n      dup1\n      sload\n      tag_45\n      swap1\n      tag_40\n      jump\t// in\n    tag_45:\n      dup1\n      0x1f\n      add\n      0x20\n      dup1\n      swap2\n      div\n      mul\n      0x20\n      add\n      mload(0x40)\n      swap1\n      dup2\n      add\n      0x40\n      mstore\n      dup1\n      swap3\n      swap2\n      swap1\n      dup2\n      dup2\n      mstore\n      0x20\n      add\n      dup3\n      dup1\n      sload\n      tag_46\n      swap1\n      tag_40\n      jump\t// in\n    tag_46:\n      dup1\n      iszero\n      tag_47\n      jumpi\n      dup1\n      0x1f\n      lt\n      tag_48\n      jumpi\n      0x0100\n      dup1\n      dup4\n      sload\n      div\n      mul\n      dup4\n      mstore\n      swap2\n      0x20\n      add\n      swap2\n      jump(tag_47)\n    tag_48:\n      dup3\n      add\n      swap2\n      swap1\n      0x00\n      mstore\n      keccak256(0x00, 0x20)\n      swap1\n    tag_49:\n      dup2\n      sload\n      dup2\n      mstore\n      swap1\n      0x01\n      add\n      swap1\n      0x20\n      add\n      dup1\n      dup4\n      gt\n      tag_49\n      jumpi\n      dup3\n      swap1\n      sub\n      0x1f\n      and\n      dup3\n      add\n      swap2\n    tag_47:\n      pop\n      pop\n      pop\n      pop\n      pop\n      swap1\n      dup1\n      0x02\n      add\n      sload\n      swap1\n      dup1\n      0x03\n      add\n      dup1\n      sload\n      tag_50\n      swap1\n      tag_40\n      jump\t// in\n    tag_50:\n      dup1\n      0x1f\n      add\n      0x20\n      dup1\n      swap2\n      div\n      mul\n      0x20\n      add\n      mload(0x40)\n      swap1\n      dup2\n      add\n      0x40\n      mstore\n      dup1\n      swap3\n      swap2\n      swap1\n      dup2\n      dup2\n      mstore\n      0x20\n      add\n      dup3\n      dup1\n      sload\n      tag_51\n      swap1\n      tag_40\n      jump\t// in\n    tag_51:\n      dup1\n      iszero\n      tag_52\n      jumpi\n      dup1\n      0x1f\n      lt\n      tag_53\n      jumpi\n      0x0100\n      dup1\n      dup4\n      sload\n      div\n      mul\n      dup4\n      mstore\n      swap2\n      0x20\n      add\n      swap2\n      jump(tag_52)\n    tag_53:\n      dup3\n      add\n      swap2\n      swap1\n      0x00\n      mstore\n      keccak256(0x00, 0x20)\n      swap1\n    tag_54:\n      dup2\n      sload\n      dup2\n      mstore\n      swap1\n      0x01\n      add\n      swap1\n      0x20\n      add\n      dup1\n      dup4\n      gt\n      tag_54\n      jumpi\n      dup3\n      swap1\n      sub\n      0x1f\n      and\n      dup3\n      add\n      swap2\n    tag_52:\n      pop\n      pop\n      pop\n      pop\n      pop\n      swap1\n      dup1\n      0x04\n      add\n      dup1\n      sload\n      tag_55\n      swap1\n      tag_40\n      jump\t// in\n    tag_55:\n      dup1\n      0x1f\n      add\n      0x20\n      dup1\n      swap2\n      div\n      mul\n      0x20\n      add\n      mload(0x40)\n      swap1\n      dup2\n      add\n      0x40\n      mstore\n      dup1\n      swap3\n      swap2\n      swap1\n      dup2\n      dup2\n      mstore\n      0x20\n      add\n      dup3\n      dup1\n      sload\n      tag_56\n      swap1\n      tag_40\n      jump\t// in\n    tag_56:\n      dup1\n      iszero\n      tag_57\n      jumpi\n      dup1\n      0x1f\n      lt\n      tag_58\n      jumpi\n      0x0100\n      dup1\n      dup4\n      sload\n      div\n      mul\n      dup4\n      mstore\n      swap2\n      0x20\n      add\n      swap2\n      jump(tag_57)\n    tag_58:\n      dup3\n      add\n      swap2\n      swap1\n      0x00\n      mstore\n      keccak256(0x00, 0x20)\n      swap1\n    tag_59:\n      dup2\n      sload\n      dup2\n      mstore\n      swap1\n      0x01\n      add\n      swap1\n      0x20\n      add\n      dup1\n      dup4\n      gt\n      tag_59\n      jumpi\n      dup3\n      swap1\n      sub\n      0x1f\n      and\n      dup3\n      add\n      swap2\n    tag_57:\n      pop\n      pop\n      pop\n      pop\n      pop\n      swap1\n      dup1\n      0x05\n      add\n      sload\n      swap1\n      pop\n      dup7\n      jump\t// out\n        /* \"contracts/PtachsTransactions.sol\":604:1118  function GetUserByAddress(address _partneraddress)\r... */\n    tag_17:\n        /* \"contracts/PtachsTransactions.sol\":703:728  User memory filteredUsers */\n      tag_60\n      tag_61\n      jump\t// in\n    tag_60:\n        /* \"contracts/PtachsTransactions.sol\":746:764  uint256 usersCount */\n      0x00\n        /* \"contracts/PtachsTransactions.sol\":767:775  UsersIDs */\n      0x01\n        /* \"contracts/PtachsTransactions.sol\":767:782  UsersIDs.length */\n      dup1\n      sload\n      swap1\n      pop\n        /* \"contracts/PtachsTransactions.sol\":746:782  uint256 usersCount = UsersIDs.length */\n      swap1\n      pop\n        /* \"contracts/PtachsTransactions.sol\":793:814  User memory usersTemp */\n      tag_63\n      tag_61\n      jump\t// in\n    tag_63:\n        /* \"contracts/PtachsTransactions.sol\":826:839  uint256 count */\n      0x00\n        /* \"contracts/PtachsTransactions.sol\":855:864  uint256 i */\n      dup1\n        /* \"contracts/PtachsTransactions.sol\":867:868  0 */\n      0x00\n        /* \"contracts/PtachsTransactions.sol\":855:868  uint256 i = 0 */\n      swap1\n      pop\n        /* \"contracts/PtachsTransactions.sol\":850:1084  for (uint256 i = 0; i < usersCount; i++) {\r... */\n    tag_64:\n        /* \"contracts/PtachsTransactions.sol\":874:884  usersCount */\n      dup4\n        /* \"contracts/PtachsTransactions.sol\":870:871  i */\n      dup2\n        /* \"contracts/PtachsTransactions.sol\":870:884  i < usersCount */\n      lt\n        /* \"contracts/PtachsTransactions.sol\":850:1084  for (uint256 i = 0; i < usersCount; i++) {\r... */\n      iszero\n      tag_65\n      jumpi\n        /* \"contracts/PtachsTransactions.sol\":953:968  _partneraddress */\n      dup6\n        /* \"contracts/PtachsTransactions.sol\":910:968  UserIDsMapping[UsersIDs[i]].UserAddress == _partneraddress */\n      0xffffffffffffffffffffffffffffffffffffffff\n      and\n        /* \"contracts/PtachsTransactions.sol\":910:924  UserIDsMapping */\n      0x00\n        /* \"contracts/PtachsTransactions.sol\":925:933  UsersIDs */\n      0x01\n        /* \"contracts/PtachsTransactions.sol\":934:935  i */\n      dup4\n        /* \"contracts/PtachsTransactions.sol\":925:936  UsersIDs[i] */\n      dup2\n      sload\n      dup2\n      lt\n      tag_67\n      jumpi\n      tag_68\n      tag_69\n      jump\t// in\n    tag_68:\n    tag_67:\n      swap1\n      0x00\n      mstore\n      keccak256(0x00, 0x20)\n      add\n        /* \"contracts/PtachsTransactions.sol\":910:937  UserIDsMapping[UsersIDs[i]] */\n      mload(0x40)\n      tag_71\n      swap2\n      swap1\n      tag_72\n      jump\t// in\n    tag_71:\n      swap1\n      dup2\n      mstore\n      0x20\n      add\n      mload(0x40)\n      dup1\n      swap2\n      sub\n      swap1\n      keccak256\n        /* \"contracts/PtachsTransactions.sol\":910:949  UserIDsMapping[UsersIDs[i]].UserAddress */\n      0x04\n      add\n      0x00\n      swap1\n      sload\n      swap1\n      0x0100\n      exp\n      swap1\n      div\n      0xffffffffffffffffffffffffffffffffffffffff\n      and\n        /* \"contracts/PtachsTransactions.sol\":910:968  UserIDsMapping[UsersIDs[i]].UserAddress == _partneraddress */\n      0xffffffffffffffffffffffffffffffffffffffff\n      and\n      eq\n        /* \"contracts/PtachsTransactions.sol\":906:1073  if (UserIDsMapping[UsersIDs[i]].UserAddress == _partneraddress) {\r... */\n      iszero\n      tag_73\n      jumpi\n        /* \"contracts/PtachsTransactions.sol\":1001:1015  UserIDsMapping */\n      0x00\n        /* \"contracts/PtachsTransactions.sol\":1016:1024  UsersIDs */\n      0x01\n        /* \"contracts/PtachsTransactions.sol\":1025:1026  i */\n      dup3\n        /* \"contracts/PtachsTransactions.sol\":1016:1027  UsersIDs[i] */\n      dup2\n      sload\n      dup2\n      lt\n      tag_74\n      jumpi\n      tag_75\n      tag_69\n      jump\t// in\n    tag_75:\n    tag_74:\n      swap1\n      0x00\n      mstore\n      keccak256(0x00, 0x20)\n      add\n        /* \"contracts/PtachsTransactions.sol\":1001:1028  UserIDsMapping[UsersIDs[i]] */\n      mload(0x40)\n      tag_77\n      swap2\n      swap1\n      tag_72\n      jump\t// in\n    tag_77:\n      swap1\n      dup2\n      mstore\n      0x20\n      add\n      mload(0x40)\n      dup1\n      swap2\n      sub\n      swap1\n      keccak256\n        /* \"contracts/PtachsTransactions.sol\":989:1028  usersTemp = UserIDsMapping[UsersIDs[i]] */\n      mload(0x40)\n      dup1\n      0xc0\n      add\n      0x40\n      mstore\n      swap1\n      dup2\n      0x00\n      dup3\n      add\n      dup1\n      sload\n      tag_78\n      swap1\n      tag_40\n      jump\t// in\n    tag_78:\n      dup1\n      0x1f\n      add\n      0x20\n      dup1\n      swap2\n      div\n      mul\n      0x20\n      add\n      mload(0x40)\n      swap1\n      dup2\n      add\n      0x40\n      mstore\n      dup1\n      swap3\n      swap2\n      swap1\n      dup2\n      dup2\n      mstore\n      0x20\n      add\n      dup3\n      dup1\n      sload\n      tag_79\n      swap1\n      tag_40\n      jump\t// in\n    tag_79:\n      dup1\n      iszero\n      tag_80\n      jumpi\n      dup1\n      0x1f\n      lt\n      tag_81\n      jumpi\n      0x0100\n      dup1\n      dup4\n      sload\n      div\n      mul\n      dup4\n      mstore\n      swap2\n      0x20\n      add\n      swap2\n      jump(tag_80)\n    tag_81:\n      dup3\n      add\n      swap2\n      swap1\n      0x00\n      mstore\n      keccak256(0x00, 0x20)\n      swap1\n    tag_82:\n      dup2\n      sload\n      dup2\n      mstore\n      swap1\n      0x01\n      add\n      swap1\n      0x20\n      add\n      dup1\n      dup4\n      gt\n      tag_82\n      jumpi\n      dup3\n      swap1\n      sub\n      0x1f\n      and\n      dup3\n      add\n      swap2\n    tag_80:\n      pop\n      pop\n      pop\n      pop\n      pop\n      dup2\n      mstore\n      0x20\n      add\n      0x01\n      dup3\n      add\n      0x00\n      swap1\n      sload\n      swap1\n      0x0100\n      exp\n      swap1\n      div\n      0xff\n      and\n      0x06\n      dup2\n      gt\n      iszero\n      tag_83\n      jumpi\n      tag_84\n      tag_85\n      jump\t// in\n    tag_84:\n    tag_83:\n      0x06\n      dup2\n      gt\n      iszero\n      tag_86\n      jumpi\n      tag_87\n      tag_85\n      jump\t// in\n    tag_87:\n    tag_86:\n      dup2\n      mstore\n      0x20\n      add\n      0x01\n      dup3\n      add\n      0x01\n      swap1\n      sload\n      swap1\n      0x0100\n      exp\n      swap1\n      div\n      0xff\n      and\n      0x02\n      dup2\n      gt\n      iszero\n      tag_88\n      jumpi\n      tag_89\n      tag_85\n      jump\t// in\n    tag_89:\n    tag_88:\n      0x02\n      dup2\n      gt\n      iszero\n      tag_90\n      jumpi\n      tag_91\n      tag_85\n      jump\t// in\n    tag_91:\n    tag_90:\n      dup2\n      mstore\n      0x20\n      add\n      0x02\n      dup3\n      add\n      sload\n      dup2\n      mstore\n      0x20\n      add\n      0x03\n      dup3\n      add\n      sload\n      dup2\n      mstore\n      0x20\n      add\n      0x04\n      dup3\n      add\n      0x00\n      swap1\n      sload\n      swap1\n      0x0100\n      exp\n      swap1\n      div\n      0xffffffffffffffffffffffffffffffffffffffff\n      and\n      0xffffffffffffffffffffffffffffffffffffffff\n      and\n      0xffffffffffffffffffffffffffffffffffffffff\n      and\n      dup2\n      mstore\n      pop\n      pop\n      swap3\n      pop\n        /* \"contracts/PtachsTransactions.sol\":1056:1057  1 */\n      0x01\n        /* \"contracts/PtachsTransactions.sol\":1047:1057  count += 1 */\n      dup3\n      tag_92\n      swap2\n      swap1\n      tag_93\n      jump\t// in\n    tag_92:\n      swap2\n      pop\n        /* \"contracts/PtachsTransactions.sol\":906:1073  if (UserIDsMapping[UsersIDs[i]].UserAddress == _partneraddress) {\r... */\n    tag_73:\n        /* \"contracts/PtachsTransactions.sol\":886:889  i++ */\n      dup1\n      dup1\n      tag_94\n      swap1\n      tag_95\n      jump\t// in\n    tag_94:\n      swap2\n      pop\n      pop\n        /* \"contracts/PtachsTransactions.sol\":850:1084  for (uint256 i = 0; i < usersCount; i++) {\r... */\n      jump(tag_64)\n    tag_65:\n      pop\n        /* \"contracts/PtachsTransactions.sol\":1101:1110  usersTemp */\n      dup2\n        /* \"contracts/PtachsTransactions.sol\":1094:1110  return usersTemp */\n      swap4\n      pop\n      pop\n      pop\n      pop\n        /* \"contracts/PtachsTransactions.sol\":604:1118  function GetUserByAddress(address _partneraddress)\r... */\n      swap2\n      swap1\n      pop\n      jump\t// out\n        /* \"contracts/PtachsTransactions.sol\":1124:1552  function GetUserIDByAddress(address _partneraddress)\r... */\n    tag_22:\n        /* \"contracts/PtachsTransactions.sol\":1225:1238  string memory */\n      0x60\n        /* \"contracts/PtachsTransactions.sol\":1256:1274  uint256 usersCount */\n      0x00\n        /* \"contracts/PtachsTransactions.sol\":1277:1285  UsersIDs */\n      0x01\n        /* \"contracts/PtachsTransactions.sol\":1277:1292  UsersIDs.length */\n      dup1\n      sload\n      swap1\n      pop\n        /* \"contracts/PtachsTransactions.sol\":1256:1292  uint256 usersCount = UsersIDs.length */\n      swap1\n      pop\n        /* \"contracts/PtachsTransactions.sol\":1303:1323  string memory userID */\n      0x60\n        /* \"contracts/PtachsTransactions.sol\":1340:1349  uint256 i */\n      0x00\n        /* \"contracts/PtachsTransactions.sol\":1335:1521  for (uint256 i = 0; i < usersCount; i++) {\r... */\n    tag_97:\n        /* \"contracts/PtachsTransactions.sol\":1359:1369  usersCount */\n      dup3\n        /* \"contracts/PtachsTransactions.sol\":1355:1356  i */\n      dup2\n        /* \"contracts/PtachsTransactions.sol\":1355:1369  i < usersCount */\n      lt\n        /* \"contracts/PtachsTransactions.sol\":1335:1521  for (uint256 i = 0; i < usersCount; i++) {\r... */\n      iszero\n      tag_98\n      jumpi\n        /* \"contracts/PtachsTransactions.sol\":1438:1453  _partneraddress */\n      dup5\n        /* \"contracts/PtachsTransactions.sol\":1395:1453  UserIDsMapping[UsersIDs[i]].UserAddress == _partneraddress */\n      0xffffffffffffffffffffffffffffffffffffffff\n      and\n        /* \"contracts/PtachsTransactions.sol\":1395:1409  UserIDsMapping */\n      0x00\n        /* \"contracts/PtachsTransactions.sol\":1410:1418  UsersIDs */\n      0x01\n        /* \"contracts/PtachsTransactions.sol\":1419:1420  i */\n      dup4\n        /* \"contracts/PtachsTransactions.sol\":1410:1421  UsersIDs[i] */\n      dup2\n      sload\n      dup2\n      lt\n      tag_100\n      jumpi\n      tag_101\n      tag_69\n      jump\t// in\n    tag_101:\n    tag_100:\n      swap1\n      0x00\n      mstore\n      keccak256(0x00, 0x20)\n      add\n        /* \"contracts/PtachsTransactions.sol\":1395:1422  UserIDsMapping[UsersIDs[i]] */\n      mload(0x40)\n      tag_103\n      swap2\n      swap1\n      tag_72\n      jump\t// in\n    tag_103:\n      swap1\n      dup2\n      mstore\n      0x20\n      add\n      mload(0x40)\n      dup1\n      swap2\n      sub\n      swap1\n      keccak256\n        /* \"contracts/PtachsTransactions.sol\":1395:1434  UserIDsMapping[UsersIDs[i]].UserAddress */\n      0x04\n      add\n      0x00\n      swap1\n      sload\n      swap1\n      0x0100\n      exp\n      swap1\n      div\n      0xffffffffffffffffffffffffffffffffffffffff\n      and\n        /* \"contracts/PtachsTransactions.sol\":1395:1453  UserIDsMapping[UsersIDs[i]].UserAddress == _partneraddress */\n      0xffffffffffffffffffffffffffffffffffffffff\n      and\n      eq\n        /* \"contracts/PtachsTransactions.sol\":1391:1510  if (UserIDsMapping[UsersIDs[i]].UserAddress == _partneraddress) {\r... */\n      iszero\n      tag_104\n      jumpi\n        /* \"contracts/PtachsTransactions.sol\":1483:1491  UsersIDs */\n      0x01\n        /* \"contracts/PtachsTransactions.sol\":1492:1493  i */\n      dup2\n        /* \"contracts/PtachsTransactions.sol\":1483:1494  UsersIDs[i] */\n      dup2\n      sload\n      dup2\n      lt\n      tag_105\n      jumpi\n      tag_106\n      tag_69\n      jump\t// in\n    tag_106:\n    tag_105:\n      swap1\n      0x00\n      mstore\n      keccak256(0x00, 0x20)\n      add\n        /* \"contracts/PtachsTransactions.sol\":1474:1494  userID = UsersIDs[i] */\n      dup1\n      sload\n      tag_108\n      swap1\n      tag_40\n      jump\t// in\n    tag_108:\n      dup1\n      0x1f\n      add\n      0x20\n      dup1\n      swap2\n      div\n      mul\n      0x20\n      add\n      mload(0x40)\n      swap1\n      dup2\n      add\n      0x40\n      mstore\n      dup1\n      swap3\n      swap2\n      swap1\n      dup2\n      dup2\n      mstore\n      0x20\n      add\n      dup3\n      dup1\n      sload\n      tag_109\n      swap1\n      tag_40\n      jump\t// in\n    tag_109:\n      dup1\n      iszero\n      tag_110\n      jumpi\n      dup1\n      0x1f\n      lt\n      tag_111\n      jumpi\n      0x0100\n      dup1\n      dup4\n      sload\n      div\n      mul\n      dup4\n      mstore\n      swap2\n      0x20\n      add\n      swap2\n      jump(tag_110)\n    tag_111:\n      dup3\n      add\n      swap2\n      swap1\n      0x00\n      mstore\n      keccak256(0x00, 0x20)\n      swap1\n    tag_112:\n      dup2\n      sload\n      dup2\n      mstore\n      swap1\n      0x01\n      add\n      swap1\n      0x20\n      add\n      dup1\n      dup4\n      gt\n      tag_112\n      jumpi\n      dup3\n      swap1\n      sub\n      0x1f\n      and\n      dup3\n      add\n      swap2\n    tag_110:\n      pop\n      pop\n      pop\n      pop\n      pop\n      swap2\n      pop\n        /* \"contracts/PtachsTransactions.sol\":1391:1510  if (UserIDsMapping[UsersIDs[i]].UserAddress == _partneraddress) {\r... */\n    tag_104:\n        /* \"contracts/PtachsTransactions.sol\":1371:1374  i++ */\n      dup1\n      dup1\n      tag_113\n      swap1\n      tag_95\n      jump\t// in\n    tag_113:\n      swap2\n      pop\n      pop\n        /* \"contracts/PtachsTransactions.sol\":1335:1521  for (uint256 i = 0; i < usersCount; i++) {\r... */\n      jump(tag_97)\n    tag_98:\n      pop\n        /* \"contracts/PtachsTransactions.sol\":1538:1544  userID */\n      dup1\n        /* \"contracts/PtachsTransactions.sol\":1531:1544  return userID */\n      swap3\n      pop\n      pop\n      pop\n        /* \"contracts/PtachsTransactions.sol\":1124:1552  function GetUserIDByAddress(address _partneraddress)\r... */\n      swap2\n      swap1\n      pop\n      jump\t// out\n        /* \"contracts/Utils.sol\":1078:1202  function ReadDrug(string memory _regno) public view returns (Drug memory) {\r... */\n    tag_28:\n        /* \"contracts/Utils.sol\":1139:1150  Drug memory */\n      tag_114\n      tag_115\n      jump\t// in\n    tag_114:\n        /* \"contracts/Utils.sol\":1170:1186  DrugRegNoMapping */\n      0x02\n        /* \"contracts/Utils.sol\":1187:1193  _regno */\n      dup3\n        /* \"contracts/Utils.sol\":1170:1194  DrugRegNoMapping[_regno] */\n      mload(0x40)\n      tag_117\n      swap2\n      swap1\n      tag_118\n      jump\t// in\n    tag_117:\n      swap1\n      dup2\n      mstore\n      0x20\n      add\n      mload(0x40)\n      dup1\n      swap2\n      sub\n      swap1\n      keccak256\n        /* \"contracts/Utils.sol\":1163:1194  return DrugRegNoMapping[_regno] */\n      mload(0x40)\n      dup1\n      0x60\n      add\n      0x40\n      mstore\n      swap1\n      dup2\n      0x00\n      dup3\n      add\n      dup1\n      sload\n      tag_119\n      swap1\n      tag_40\n      jump\t// in\n    tag_119:\n      dup1\n      0x1f\n      add\n      0x20\n      dup1\n      swap2\n      div\n      mul\n      0x20\n      add\n      mload(0x40)\n      swap1\n      dup2\n      add\n      0x40\n      mstore\n      dup1\n      swap3\n      swap2\n      swap1\n      dup2\n      dup2\n      mstore\n      0x20\n      add\n      dup3\n      dup1\n      sload\n      tag_120\n      swap1\n      tag_40\n      jump\t// in\n    tag_120:\n      dup1\n      iszero\n      tag_121\n      jumpi\n      dup1\n      0x1f\n      lt\n      tag_122\n      jumpi\n      0x0100\n      dup1\n      dup4\n      sload\n      div\n      mul\n      dup4\n      mstore\n      swap2\n      0x20\n      add\n      swap2\n      jump(tag_121)\n    tag_122:\n      dup3\n      add\n      swap2\n      swap1\n      0x00\n      mstore\n      keccak256(0x00, 0x20)\n      swap1\n    tag_123:\n      dup2\n      sload\n      dup2\n      mstore\n      swap1\n      0x01\n      add\n      swap1\n      0x20\n      add\n      dup1\n      dup4\n      gt\n      tag_123\n      jumpi\n      dup3\n      swap1\n      sub\n      0x1f\n      and\n      dup3\n      add\n      swap2\n    tag_121:\n      pop\n      pop\n      pop\n      pop\n      pop\n      dup2\n      mstore\n      0x20\n      add\n      0x01\n      dup3\n      add\n      0x00\n      swap1\n      sload\n      swap1\n      0x0100\n      exp\n      swap1\n      div\n      0xffffffffffffffffffffffffffffffffffffffff\n      and\n      0xffffffffffffffffffffffffffffffffffffffff\n      and\n      0xffffffffffffffffffffffffffffffffffffffff\n      and\n      dup2\n      mstore\n      0x20\n      add\n      0x01\n      dup3\n      add\n      0x14\n      swap1\n      sload\n      swap1\n      0x0100\n      exp\n      swap1\n      div\n      0xff\n      and\n      0x02\n      dup2\n      gt\n      iszero\n      tag_124\n      jumpi\n      tag_125\n      tag_85\n      jump\t// in\n    tag_125:\n    tag_124:\n      0x02\n      dup2\n      gt\n      iszero\n      tag_126\n      jumpi\n      tag_127\n      tag_85\n      jump\t// in\n    tag_127:\n    tag_126:\n      dup2\n      mstore\n      pop\n      pop\n      swap1\n      pop\n        /* \"contracts/Utils.sol\":1078:1202  function ReadDrug(string memory _regno) public view returns (Drug memory) {\r... */\n      swap2\n      swap1\n      pop\n      jump\t// out\n        /* \"contracts/PtachsTransactions.sol\":1562:1867  function CreatePatch (string memory _drugregno,string memory _patchno, uint _amount) public returns(bool){\r... */\n    tag_34:\n        /* \"contracts/PtachsTransactions.sol\":1662:1666  bool */\n      0x00\n        /* \"contracts/PtachsTransactions.sol\":1678:1707  PatchTransaction memory newtx */\n      dup1\n        /* \"contracts/PtachsTransactions.sol\":1710:1796  PatchTransaction(_drugregno, _patchno, 0, \"\", GetUserIDByAddress(msg.sender), _amount) */\n      mload(0x40)\n      dup1\n      0xc0\n      add\n      0x40\n      mstore\n      dup1\n        /* \"contracts/PtachsTransactions.sol\":1727:1737  _drugregno */\n      dup7\n        /* \"contracts/PtachsTransactions.sol\":1710:1796  PatchTransaction(_drugregno, _patchno, 0, \"\", GetUserIDByAddress(msg.sender), _amount) */\n      dup2\n      mstore\n      0x20\n      add\n        /* \"contracts/PtachsTransactions.sol\":1739:1747  _patchno */\n      dup6\n        /* \"contracts/PtachsTransactions.sol\":1710:1796  PatchTransaction(_drugregno, _patchno, 0, \"\", GetUserIDByAddress(msg.sender), _amount) */\n      dup2\n      mstore\n      0x20\n      add\n        /* \"contracts/PtachsTransactions.sol\":1749:1750  0 */\n      0x00\n        /* \"contracts/PtachsTransactions.sol\":1710:1796  PatchTransaction(_drugregno, _patchno, 0, \"\", GetUserIDByAddress(msg.sender), _amount) */\n      dup2\n      mstore\n      0x20\n      add\n      mload(0x40)\n      dup1\n      0x20\n      add\n      0x40\n      mstore\n      dup1\n      0x00\n      dup2\n      mstore\n      pop\n      dup2\n      mstore\n      0x20\n      add\n        /* \"contracts/PtachsTransactions.sol\":1756:1786  GetUserIDByAddress(msg.sender) */\n      tag_129\n        /* \"contracts/PtachsTransactions.sol\":1775:1785  msg.sender */\n      caller\n        /* \"contracts/PtachsTransactions.sol\":1756:1774  GetUserIDByAddress */\n      tag_22\n        /* \"contracts/PtachsTransactions.sol\":1756:1786  GetUserIDByAddress(msg.sender) */\n      jump\t// in\n    tag_129:\n        /* \"contracts/PtachsTransactions.sol\":1710:1796  PatchTransaction(_drugregno, _patchno, 0, \"\", GetUserIDByAddress(msg.sender), _amount) */\n      dup2\n      mstore\n      0x20\n      add\n        /* \"contracts/PtachsTransactions.sol\":1788:1795  _amount */\n      dup5\n        /* \"contracts/PtachsTransactions.sol\":1710:1796  PatchTransaction(_drugregno, _patchno, 0, \"\", GetUserIDByAddress(msg.sender), _amount) */\n      dup2\n      mstore\n      pop\n        /* \"contracts/PtachsTransactions.sol\":1678:1796  PatchTransaction memory newtx = PatchTransaction(_drugregno, _patchno, 0, \"\", GetUserIDByAddress(msg.sender), _amount) */\n      swap1\n      pop\n        /* \"contracts/PtachsTransactions.sol\":1807:1825  PatchTrannsactions */\n      0x04\n        /* \"contracts/PtachsTransactions.sol\":1831:1836  newtx */\n      dup2\n        /* \"contracts/PtachsTransactions.sol\":1807:1837  PatchTrannsactions.push(newtx) */\n      swap1\n      dup1\n      0x01\n      dup2\n      sload\n      add\n      dup1\n      dup3\n      sstore\n      dup1\n      swap2\n      pop\n      pop\n      0x01\n      swap1\n      sub\n      swap1\n      0x00\n      mstore\n      keccak256(0x00, 0x20)\n      swap1\n      0x06\n      mul\n      add\n      0x00\n      swap1\n      swap2\n      swap1\n      swap2\n      swap1\n      swap2\n      pop\n      0x00\n      dup3\n      add\n      mload\n      dup2\n      0x00\n      add\n      swap1\n      dup1\n      mload\n      swap1\n      0x20\n      add\n      swap1\n      tag_131\n      swap3\n      swap2\n      swap1\n      tag_132\n      jump\t// in\n    tag_131:\n      pop\n      0x20\n      dup3\n      add\n      mload\n      dup2\n      0x01\n      add\n      swap1\n      dup1\n      mload\n      swap1\n      0x20\n      add\n      swap1\n      tag_133\n      swap3\n      swap2\n      swap1\n      tag_132\n      jump\t// in\n    tag_133:\n      pop\n      0x40\n      dup3\n      add\n      mload\n      dup2\n      0x02\n      add\n      sstore\n      0x60\n      dup3\n      add\n      mload\n      dup2\n      0x03\n      add\n      swap1\n      dup1\n      mload\n      swap1\n      0x20\n      add\n      swap1\n      tag_134\n      swap3\n      swap2\n      swap1\n      tag_132\n      jump\t// in\n    tag_134:\n      pop\n      0x80\n      dup3\n      add\n      mload\n      dup2\n      0x04\n      add\n      swap1\n      dup1\n      mload\n      swap1\n      0x20\n      add\n      swap1\n      tag_135\n      swap3\n      swap2\n      swap1\n      tag_132\n      jump\t// in\n    tag_135:\n      pop\n      0xa0\n      dup3\n      add\n      mload\n      dup2\n      0x05\n      add\n      sstore\n      pop\n      pop\n        /* \"contracts/PtachsTransactions.sol\":1855:1859  true */\n      0x01\n        /* \"contracts/PtachsTransactions.sol\":1848:1859  return true */\n      swap2\n      pop\n      pop\n        /* \"contracts/PtachsTransactions.sol\":1562:1867  function CreatePatch (string memory _drugregno,string memory _patchno, uint _amount) public returns(bool){\r... */\n      swap4\n      swap3\n      pop\n      pop\n      pop\n      jump\t// out\n    tag_61:\n      mload(0x40)\n      dup1\n      0xc0\n      add\n      0x40\n      mstore\n      dup1\n      0x60\n      dup2\n      mstore\n      0x20\n      add\n      0x00\n      0x06\n      dup2\n      gt\n      iszero\n      tag_136\n      jumpi\n      tag_137\n      tag_85\n      jump\t// in\n    tag_137:\n    tag_136:\n      dup2\n      mstore\n      0x20\n      add\n      0x00\n      0x02\n      dup2\n      gt\n      iszero\n      tag_138\n      jumpi\n      tag_139\n      tag_85\n      jump\t// in\n    tag_139:\n    tag_138:\n      dup2\n      mstore\n      0x20\n      add\n      0x00\n      dup2\n      mstore\n      0x20\n      add\n      0x00\n      dup2\n      mstore\n      0x20\n      add\n      and(0xffffffffffffffffffffffffffffffffffffffff, 0x00)\n      dup2\n      mstore\n      pop\n      swap1\n      jump\t// out\n    tag_115:\n      mload(0x40)\n      dup1\n      0x60\n      add\n      0x40\n      mstore\n      dup1\n      0x60\n      dup2\n      mstore\n      0x20\n      add\n      and(0xffffffffffffffffffffffffffffffffffffffff, 0x00)\n      dup2\n      mstore\n      0x20\n      add\n      0x00\n      0x02\n      dup2\n      gt\n      iszero\n      tag_140\n      jumpi\n      tag_141\n      tag_85\n      jump\t// in\n    tag_141:\n    tag_140:\n      dup2\n      mstore\n      pop\n      swap1\n      jump\t// out\n    tag_132:\n      dup3\n      dup1\n      sload\n      tag_142\n      swap1\n      tag_40\n      jump\t// in\n    tag_142:\n      swap1\n      0x00\n      mstore\n      keccak256(0x00, 0x20)\n      swap1\n      0x1f\n      add\n      0x20\n      swap1\n      div\n      dup2\n      add\n      swap3\n      dup3\n      tag_144\n      jumpi\n      0x00\n      dup6\n      sstore\n      jump(tag_143)\n    tag_144:\n      dup3\n      0x1f\n      lt\n      tag_145\n      jumpi\n      dup1\n      mload\n      not(0xff)\n      and\n      dup4\n      dup1\n      add\n      or\n      dup6\n      sstore\n      jump(tag_143)\n    tag_145:\n      dup3\n      dup1\n      add\n      0x01\n      add\n      dup6\n      sstore\n      dup3\n      iszero\n      tag_143\n      jumpi\n      swap2\n      dup3\n      add\n    tag_146:\n      dup3\n      dup2\n      gt\n      iszero\n      tag_147\n      jumpi\n      dup3\n      mload\n      dup3\n      sstore\n      swap2\n      0x20\n      add\n      swap2\n      swap1\n      0x01\n      add\n      swap1\n      jump(tag_146)\n    tag_147:\n    tag_143:\n      pop\n      swap1\n      pop\n      tag_148\n      swap2\n      swap1\n      tag_149\n      jump\t// in\n    tag_148:\n      pop\n      swap1\n      jump\t// out\n    tag_149:\n    tag_150:\n      dup1\n      dup3\n      gt\n      iszero\n      tag_151\n      jumpi\n      0x00\n      dup2\n      0x00\n      swap1\n      sstore\n      pop\n      0x01\n      add\n      jump(tag_150)\n    tag_151:\n      pop\n      swap1\n      jump\t// out\n        /* \"#utility.yul\":7:419   */\n    tag_153:\n        /* \"#utility.yul\":85:90   */\n      0x00\n        /* \"#utility.yul\":110:176   */\n      tag_155\n        /* \"#utility.yul\":126:175   */\n      tag_156\n        /* \"#utility.yul\":168:174   */\n      dup5\n        /* \"#utility.yul\":126:175   */\n      tag_157\n      jump\t// in\n    tag_156:\n        /* \"#utility.yul\":110:176   */\n      tag_158\n      jump\t// in\n    tag_155:\n        /* \"#utility.yul\":101:176   */\n      swap1\n      pop\n        /* \"#utility.yul\":199:205   */\n      dup3\n        /* \"#utility.yul\":192:197   */\n      dup2\n        /* \"#utility.yul\":185:206   */\n      mstore\n        /* \"#utility.yul\":237:241   */\n      0x20\n        /* \"#utility.yul\":230:235   */\n      dup2\n        /* \"#utility.yul\":226:242   */\n      add\n        /* \"#utility.yul\":275:278   */\n      dup5\n        /* \"#utility.yul\":266:272   */\n      dup5\n        /* \"#utility.yul\":261:264   */\n      dup5\n        /* \"#utility.yul\":257:273   */\n      add\n        /* \"#utility.yul\":254:279   */\n      gt\n        /* \"#utility.yul\":251:363   */\n      iszero\n      tag_159\n      jumpi\n        /* \"#utility.yul\":282:361   */\n      tag_160\n      tag_161\n      jump\t// in\n    tag_160:\n        /* \"#utility.yul\":251:363   */\n    tag_159:\n        /* \"#utility.yul\":372:413   */\n      tag_162\n        /* \"#utility.yul\":406:412   */\n      dup5\n        /* \"#utility.yul\":401:404   */\n      dup3\n        /* \"#utility.yul\":396:399   */\n      dup6\n        /* \"#utility.yul\":372:413   */\n      tag_163\n      jump\t// in\n    tag_162:\n        /* \"#utility.yul\":91:419   */\n      pop\n        /* \"#utility.yul\":7:419   */\n      swap4\n      swap3\n      pop\n      pop\n      pop\n      jump\t// out\n        /* \"#utility.yul\":425:564   */\n    tag_164:\n        /* \"#utility.yul\":471:476   */\n      0x00\n        /* \"#utility.yul\":509:515   */\n      dup2\n        /* \"#utility.yul\":496:516   */\n      calldataload\n        /* \"#utility.yul\":487:516   */\n      swap1\n      pop\n        /* \"#utility.yul\":525:558   */\n      tag_166\n        /* \"#utility.yul\":552:557   */\n      dup2\n        /* \"#utility.yul\":525:558   */\n      tag_167\n      jump\t// in\n    tag_166:\n        /* \"#utility.yul\":425:564   */\n      swap3\n      swap2\n      pop\n      pop\n      jump\t// out\n        /* \"#utility.yul\":584:924   */\n    tag_168:\n        /* \"#utility.yul\":640:645   */\n      0x00\n        /* \"#utility.yul\":689:692   */\n      dup3\n        /* \"#utility.yul\":682:686   */\n      0x1f\n        /* \"#utility.yul\":674:680   */\n      dup4\n        /* \"#utility.yul\":670:687   */\n      add\n        /* \"#utility.yul\":666:693   */\n      slt\n        /* \"#utility.yul\":656:778   */\n      tag_170\n      jumpi\n        /* \"#utility.yul\":697:776   */\n      tag_171\n      tag_172\n      jump\t// in\n    tag_171:\n        /* \"#utility.yul\":656:778   */\n    tag_170:\n        /* \"#utility.yul\":814:820   */\n      dup2\n        /* \"#utility.yul\":801:821   */\n      calldataload\n        /* \"#utility.yul\":839:918   */\n      tag_173\n        /* \"#utility.yul\":914:917   */\n      dup5\n        /* \"#utility.yul\":906:912   */\n      dup3\n        /* \"#utility.yul\":899:903   */\n      0x20\n        /* \"#utility.yul\":891:897   */\n      dup7\n        /* \"#utility.yul\":887:904   */\n      add\n        /* \"#utility.yul\":839:918   */\n      tag_153\n      jump\t// in\n    tag_173:\n        /* \"#utility.yul\":830:918   */\n      swap2\n      pop\n        /* \"#utility.yul\":646:924   */\n      pop\n        /* \"#utility.yul\":584:924   */\n      swap3\n      swap2\n      pop\n      pop\n      jump\t// out\n        /* \"#utility.yul\":930:1069   */\n    tag_174:\n        /* \"#utility.yul\":976:981   */\n      0x00\n        /* \"#utility.yul\":1014:1020   */\n      dup2\n        /* \"#utility.yul\":1001:1021   */\n      calldataload\n        /* \"#utility.yul\":992:1021   */\n      swap1\n      pop\n        /* \"#utility.yul\":1030:1063   */\n      tag_176\n        /* \"#utility.yul\":1057:1062   */\n      dup2\n        /* \"#utility.yul\":1030:1063   */\n      tag_177\n      jump\t// in\n    tag_176:\n        /* \"#utility.yul\":930:1069   */\n      swap3\n      swap2\n      pop\n      pop\n      jump\t// out\n        /* \"#utility.yul\":1075:1404   */\n    tag_16:\n        /* \"#utility.yul\":1134:1140   */\n      0x00\n        /* \"#utility.yul\":1183:1185   */\n      0x20\n        /* \"#utility.yul\":1171:1180   */\n      dup3\n        /* \"#utility.yul\":1162:1169   */\n      dup5\n        /* \"#utility.yul\":1158:1181   */\n      sub\n        /* \"#utility.yul\":1154:1186   */\n      slt\n        /* \"#utility.yul\":1151:1270   */\n      iszero\n      tag_179\n      jumpi\n        /* \"#utility.yul\":1189:1268   */\n      tag_180\n      tag_181\n      jump\t// in\n    tag_180:\n        /* \"#utility.yul\":1151:1270   */\n    tag_179:\n        /* \"#utility.yul\":1309:1310   */\n      0x00\n        /* \"#utility.yul\":1334:1387   */\n      tag_182\n        /* \"#utility.yul\":1379:1386   */\n      dup5\n        /* \"#utility.yul\":1370:1376   */\n      dup3\n        /* \"#utility.yul\":1359:1368   */\n      dup6\n        /* \"#utility.yul\":1355:1377   */\n      add\n        /* \"#utility.yul\":1334:1387   */\n      tag_164\n      jump\t// in\n    tag_182:\n        /* \"#utility.yul\":1324:1387   */\n      swap2\n      pop\n        /* \"#utility.yul\":1280:1397   */\n      pop\n        /* \"#utility.yul\":1075:1404   */\n      swap3\n      swap2\n      pop\n      pop\n      jump\t// out\n        /* \"#utility.yul\":1410:1919   */\n    tag_27:\n        /* \"#utility.yul\":1479:1485   */\n      0x00\n        /* \"#utility.yul\":1528:1530   */\n      0x20\n        /* \"#utility.yul\":1516:1525   */\n      dup3\n        /* \"#utility.yul\":1507:1514   */\n      dup5\n        /* \"#utility.yul\":1503:1526   */\n      sub\n        /* \"#utility.yul\":1499:1531   */\n      slt\n        /* \"#utility.yul\":1496:1615   */\n      iszero\n      tag_184\n      jumpi\n        /* \"#utility.yul\":1534:1613   */\n      tag_185\n      tag_181\n      jump\t// in\n    tag_185:\n        /* \"#utility.yul\":1496:1615   */\n    tag_184:\n        /* \"#utility.yul\":1682:1683   */\n      0x00\n        /* \"#utility.yul\":1671:1680   */\n      dup3\n        /* \"#utility.yul\":1667:1684   */\n      add\n        /* \"#utility.yul\":1654:1685   */\n      calldataload\n        /* \"#utility.yul\":1712:1730   */\n      0xffffffffffffffff\n        /* \"#utility.yul\":1704:1710   */\n      dup2\n        /* \"#utility.yul\":1701:1731   */\n      gt\n        /* \"#utility.yul\":1698:1815   */\n      iszero\n      tag_186\n      jumpi\n        /* \"#utility.yul\":1734:1813   */\n      tag_187\n      tag_188\n      jump\t// in\n    tag_187:\n        /* \"#utility.yul\":1698:1815   */\n    tag_186:\n        /* \"#utility.yul\":1839:1902   */\n      tag_189\n        /* \"#utility.yul\":1894:1901   */\n      dup5\n        /* \"#utility.yul\":1885:1891   */\n      dup3\n        /* \"#utility.yul\":1874:1883   */\n      dup6\n        /* \"#utility.yul\":1870:1892   */\n      add\n        /* \"#utility.yul\":1839:1902   */\n      tag_168\n      jump\t// in\n    tag_189:\n        /* \"#utility.yul\":1829:1902   */\n      swap2\n      pop\n        /* \"#utility.yul\":1625:1912   */\n      pop\n        /* \"#utility.yul\":1410:1919   */\n      swap3\n      swap2\n      pop\n      pop\n      jump\t// out\n        /* \"#utility.yul\":1925:2904   */\n    tag_33:\n        /* \"#utility.yul\":2022:2028   */\n      0x00\n        /* \"#utility.yul\":2030:2036   */\n      dup1\n        /* \"#utility.yul\":2038:2044   */\n      0x00\n        /* \"#utility.yul\":2087:2089   */\n      0x60\n        /* \"#utility.yul\":2075:2084   */\n      dup5\n        /* \"#utility.yul\":2066:2073   */\n      dup7\n        /* \"#utility.yul\":2062:2085   */\n      sub\n        /* \"#utility.yul\":2058:2090   */\n      slt\n        /* \"#utility.yul\":2055:2174   */\n      iszero\n      tag_191\n      jumpi\n        /* \"#utility.yul\":2093:2172   */\n      tag_192\n      tag_181\n      jump\t// in\n    tag_192:\n        /* \"#utility.yul\":2055:2174   */\n    tag_191:\n        /* \"#utility.yul\":2241:2242   */\n      0x00\n        /* \"#utility.yul\":2230:2239   */\n      dup5\n        /* \"#utility.yul\":2226:2243   */\n      add\n        /* \"#utility.yul\":2213:2244   */\n      calldataload\n        /* \"#utility.yul\":2271:2289   */\n      0xffffffffffffffff\n        /* \"#utility.yul\":2263:2269   */\n      dup2\n        /* \"#utility.yul\":2260:2290   */\n      gt\n        /* \"#utility.yul\":2257:2374   */\n      iszero\n      tag_193\n      jumpi\n        /* \"#utility.yul\":2293:2372   */\n      tag_194\n      tag_188\n      jump\t// in\n    tag_194:\n        /* \"#utility.yul\":2257:2374   */\n    tag_193:\n        /* \"#utility.yul\":2398:2461   */\n      tag_195\n        /* \"#utility.yul\":2453:2460   */\n      dup7\n        /* \"#utility.yul\":2444:2450   */\n      dup3\n        /* \"#utility.yul\":2433:2442   */\n      dup8\n        /* \"#utility.yul\":2429:2451   */\n      add\n        /* \"#utility.yul\":2398:2461   */\n      tag_168\n      jump\t// in\n    tag_195:\n        /* \"#utility.yul\":2388:2461   */\n      swap4\n      pop\n        /* \"#utility.yul\":2184:2471   */\n      pop\n        /* \"#utility.yul\":2538:2540   */\n      0x20\n        /* \"#utility.yul\":2527:2536   */\n      dup5\n        /* \"#utility.yul\":2523:2541   */\n      add\n        /* \"#utility.yul\":2510:2542   */\n      calldataload\n        /* \"#utility.yul\":2569:2587   */\n      0xffffffffffffffff\n        /* \"#utility.yul\":2561:2567   */\n      dup2\n        /* \"#utility.yul\":2558:2588   */\n      gt\n        /* \"#utility.yul\":2555:2672   */\n      iszero\n      tag_196\n      jumpi\n        /* \"#utility.yul\":2591:2670   */\n      tag_197\n      tag_188\n      jump\t// in\n    tag_197:\n        /* \"#utility.yul\":2555:2672   */\n    tag_196:\n        /* \"#utility.yul\":2696:2759   */\n      tag_198\n        /* \"#utility.yul\":2751:2758   */\n      dup7\n        /* \"#utility.yul\":2742:2748   */\n      dup3\n        /* \"#utility.yul\":2731:2740   */\n      dup8\n        /* \"#utility.yul\":2727:2749   */\n      add\n        /* \"#utility.yul\":2696:2759   */\n      tag_168\n      jump\t// in\n    tag_198:\n        /* \"#utility.yul\":2686:2759   */\n      swap3\n      pop\n        /* \"#utility.yul\":2481:2769   */\n      pop\n        /* \"#utility.yul\":2808:2810   */\n      0x40\n        /* \"#utility.yul\":2834:2887   */\n      tag_199\n        /* \"#utility.yul\":2879:2886   */\n      dup7\n        /* \"#utility.yul\":2870:2876   */\n      dup3\n        /* \"#utility.yul\":2859:2868   */\n      dup8\n        /* \"#utility.yul\":2855:2877   */\n      add\n        /* \"#utility.yul\":2834:2887   */\n      tag_174\n      jump\t// in\n    tag_199:\n        /* \"#utility.yul\":2824:2887   */\n      swap2\n      pop\n        /* \"#utility.yul\":2779:2897   */\n      pop\n        /* \"#utility.yul\":1925:2904   */\n      swap3\n      pop\n      swap3\n      pop\n      swap3\n      jump\t// out\n        /* \"#utility.yul\":2910:3239   */\n    tag_10:\n        /* \"#utility.yul\":2969:2975   */\n      0x00\n        /* \"#utility.yul\":3018:3020   */\n      0x20\n        /* \"#utility.yul\":3006:3015   */\n      dup3\n        /* \"#utility.yul\":2997:3004   */\n      dup5\n        /* \"#utility.yul\":2993:3016   */\n      sub\n        /* \"#utility.yul\":2989:3021   */\n      slt\n        /* \"#utility.yul\":2986:3105   */\n      iszero\n      tag_201\n      jumpi\n        /* \"#utility.yul\":3024:3103   */\n      tag_202\n      tag_181\n      jump\t// in\n    tag_202:\n        /* \"#utility.yul\":2986:3105   */\n    tag_201:\n        /* \"#utility.yul\":3144:3145   */\n      0x00\n        /* \"#utility.yul\":3169:3222   */\n      tag_203\n        /* \"#utility.yul\":3214:3221   */\n      dup5\n        /* \"#utility.yul\":3205:3211   */\n      dup3\n        /* \"#utility.yul\":3194:3203   */\n      dup6\n        /* \"#utility.yul\":3190:3212   */\n      add\n        /* \"#utility.yul\":3169:3222   */\n      tag_174\n      jump\t// in\n    tag_203:\n        /* \"#utility.yul\":3159:3222   */\n      swap2\n      pop\n        /* \"#utility.yul\":3115:3232   */\n      pop\n        /* \"#utility.yul\":2910:3239   */\n      swap3\n      swap2\n      pop\n      pop\n      jump\t// out\n        /* \"#utility.yul\":3245:3353   */\n    tag_204:\n        /* \"#utility.yul\":3322:3346   */\n      tag_206\n        /* \"#utility.yul\":3340:3345   */\n      dup2\n        /* \"#utility.yul\":3322:3346   */\n      tag_207\n      jump\t// in\n    tag_206:\n        /* \"#utility.yul\":3317:3320   */\n      dup3\n        /* \"#utility.yul\":3310:3347   */\n      mstore\n        /* \"#utility.yul\":3245:3353   */\n      pop\n      pop\n      jump\t// out\n        /* \"#utility.yul\":3359:3468   */\n    tag_208:\n        /* \"#utility.yul\":3440:3461   */\n      tag_210\n        /* \"#utility.yul\":3455:3460   */\n      dup2\n        /* \"#utility.yul\":3440:3461   */\n      tag_211\n      jump\t// in\n    tag_210:\n        /* \"#utility.yul\":3435:3438   */\n      dup3\n        /* \"#utility.yul\":3428:3462   */\n      mstore\n        /* \"#utility.yul\":3359:3468   */\n      pop\n      pop\n      jump\t// out\n        /* \"#utility.yul\":3474:3615   */\n    tag_212:\n        /* \"#utility.yul\":3561:3608   */\n      tag_214\n        /* \"#utility.yul\":3602:3607   */\n      dup2\n        /* \"#utility.yul\":3561:3608   */\n      tag_215\n      jump\t// in\n    tag_214:\n        /* \"#utility.yul\":3556:3559   */\n      dup3\n        /* \"#utility.yul\":3549:3609   */\n      mstore\n        /* \"#utility.yul\":3474:3615   */\n      pop\n      pop\n      jump\t// out\n        /* \"#utility.yul\":3621:3764   */\n    tag_216:\n        /* \"#utility.yul\":3709:3757   */\n      tag_218\n        /* \"#utility.yul\":3751:3756   */\n      dup2\n        /* \"#utility.yul\":3709:3757   */\n      tag_219\n      jump\t// in\n    tag_218:\n        /* \"#utility.yul\":3704:3707   */\n      dup3\n        /* \"#utility.yul\":3697:3758   */\n      mstore\n        /* \"#utility.yul\":3621:3764   */\n      pop\n      pop\n      jump\t// out\n        /* \"#utility.yul\":3770:4114   */\n    tag_220:\n        /* \"#utility.yul\":3848:3851   */\n      0x00\n        /* \"#utility.yul\":3876:3915   */\n      tag_222\n        /* \"#utility.yul\":3909:3914   */\n      dup3\n        /* \"#utility.yul\":3876:3915   */\n      tag_223\n      jump\t// in\n    tag_222:\n        /* \"#utility.yul\":3931:3992   */\n      tag_224\n        /* \"#utility.yul\":3985:3991   */\n      dup2\n        /* \"#utility.yul\":3980:3983   */\n      dup6\n        /* \"#utility.yul\":3931:3992   */\n      tag_225\n      jump\t// in\n    tag_224:\n        /* \"#utility.yul\":3924:3992   */\n      swap4\n      pop\n        /* \"#utility.yul\":4001:4053   */\n      tag_226\n        /* \"#utility.yul\":4046:4052   */\n      dup2\n        /* \"#utility.yul\":4041:4044   */\n      dup6\n        /* \"#utility.yul\":4034:4038   */\n      0x20\n        /* \"#utility.yul\":4027:4032   */\n      dup7\n        /* \"#utility.yul\":4023:4039   */\n      add\n        /* \"#utility.yul\":4001:4053   */\n      tag_227\n      jump\t// in\n    tag_226:\n        /* \"#utility.yul\":4078:4107   */\n      tag_228\n        /* \"#utility.yul\":4100:4106   */\n      dup2\n        /* \"#utility.yul\":4078:4107   */\n      tag_229\n      jump\t// in\n    tag_228:\n        /* \"#utility.yul\":4073:4076   */\n      dup5\n        /* \"#utility.yul\":4069:4108   */\n      add\n        /* \"#utility.yul\":4062:4108   */\n      swap2\n      pop\n        /* \"#utility.yul\":3852:4114   */\n      pop\n        /* \"#utility.yul\":3770:4114   */\n      swap3\n      swap2\n      pop\n      pop\n      jump\t// out\n        /* \"#utility.yul\":4120:4484   */\n    tag_230:\n        /* \"#utility.yul\":4208:4211   */\n      0x00\n        /* \"#utility.yul\":4236:4275   */\n      tag_232\n        /* \"#utility.yul\":4269:4274   */\n      dup3\n        /* \"#utility.yul\":4236:4275   */\n      tag_223\n      jump\t// in\n    tag_232:\n        /* \"#utility.yul\":4291:4362   */\n      tag_233\n        /* \"#utility.yul\":4355:4361   */\n      dup2\n        /* \"#utility.yul\":4350:4353   */\n      dup6\n        /* \"#utility.yul\":4291:4362   */\n      tag_234\n      jump\t// in\n    tag_233:\n        /* \"#utility.yul\":4284:4362   */\n      swap4\n      pop\n        /* \"#utility.yul\":4371:4423   */\n      tag_235\n        /* \"#utility.yul\":4416:4422   */\n      dup2\n        /* \"#utility.yul\":4411:4414   */\n      dup6\n        /* \"#utility.yul\":4404:4408   */\n      0x20\n        /* \"#utility.yul\":4397:4402   */\n      dup7\n        /* \"#utility.yul\":4393:4409   */\n      add\n        /* \"#utility.yul\":4371:4423   */\n      tag_227\n      jump\t// in\n    tag_235:\n        /* \"#utility.yul\":4448:4477   */\n      tag_236\n        /* \"#utility.yul\":4470:4476   */\n      dup2\n        /* \"#utility.yul\":4448:4477   */\n      tag_229\n      jump\t// in\n    tag_236:\n        /* \"#utility.yul\":4443:4446   */\n      dup5\n        /* \"#utility.yul\":4439:4478   */\n      add\n        /* \"#utility.yul\":4432:4478   */\n      swap2\n      pop\n        /* \"#utility.yul\":4212:4484   */\n      pop\n        /* \"#utility.yul\":4120:4484   */\n      swap3\n      swap2\n      pop\n      pop\n      jump\t// out\n        /* \"#utility.yul\":4490:4867   */\n    tag_237:\n        /* \"#utility.yul\":4596:4599   */\n      0x00\n        /* \"#utility.yul\":4624:4663   */\n      tag_239\n        /* \"#utility.yul\":4657:4662   */\n      dup3\n        /* \"#utility.yul\":4624:4663   */\n      tag_223\n      jump\t// in\n    tag_239:\n        /* \"#utility.yul\":4679:4768   */\n      tag_240\n        /* \"#utility.yul\":4761:4767   */\n      dup2\n        /* \"#utility.yul\":4756:4759   */\n      dup6\n        /* \"#utility.yul\":4679:4768   */\n      tag_241\n      jump\t// in\n    tag_240:\n        /* \"#utility.yul\":4672:4768   */\n      swap4\n      pop\n        /* \"#utility.yul\":4777:4829   */\n      tag_242\n        /* \"#utility.yul\":4822:4828   */\n      dup2\n        /* \"#utility.yul\":4817:4820   */\n      dup6\n        /* \"#utility.yul\":4810:4814   */\n      0x20\n        /* \"#utility.yul\":4803:4808   */\n      dup7\n        /* \"#utility.yul\":4799:4815   */\n      add\n        /* \"#utility.yul\":4777:4829   */\n      tag_227\n      jump\t// in\n    tag_242:\n        /* \"#utility.yul\":4854:4860   */\n      dup1\n        /* \"#utility.yul\":4849:4852   */\n      dup5\n        /* \"#utility.yul\":4845:4861   */\n      add\n        /* \"#utility.yul\":4838:4861   */\n      swap2\n      pop\n        /* \"#utility.yul\":4600:4867   */\n      pop\n        /* \"#utility.yul\":4490:4867   */\n      swap3\n      swap2\n      pop\n      pop\n      jump\t// out\n        /* \"#utility.yul\":4897:5742   */\n    tag_243:\n        /* \"#utility.yul\":5000:5003   */\n      0x00\n        /* \"#utility.yul\":5037:5042   */\n      dup2\n        /* \"#utility.yul\":5031:5043   */\n      sload\n        /* \"#utility.yul\":5066:5102   */\n      tag_245\n        /* \"#utility.yul\":5092:5101   */\n      dup2\n        /* \"#utility.yul\":5066:5102   */\n      tag_40\n      jump\t// in\n    tag_245:\n        /* \"#utility.yul\":5118:5207   */\n      tag_246\n        /* \"#utility.yul\":5200:5206   */\n      dup2\n        /* \"#utility.yul\":5195:5198   */\n      dup7\n        /* \"#utility.yul\":5118:5207   */\n      tag_241\n      jump\t// in\n    tag_246:\n        /* \"#utility.yul\":5111:5207   */\n      swap5\n      pop\n        /* \"#utility.yul\":5238:5239   */\n      0x01\n        /* \"#utility.yul\":5227:5236   */\n      dup3\n        /* \"#utility.yul\":5223:5240   */\n      and\n        /* \"#utility.yul\":5254:5255   */\n      0x00\n        /* \"#utility.yul\":5249:5386   */\n      dup2\n      eq\n      tag_248\n      jumpi\n        /* \"#utility.yul\":5400:5401   */\n      0x01\n        /* \"#utility.yul\":5395:5736   */\n      dup2\n      eq\n      tag_249\n      jumpi\n        /* \"#utility.yul\":5216:5736   */\n      jump(tag_247)\n        /* \"#utility.yul\":5249:5386   */\n    tag_248:\n        /* \"#utility.yul\":5333:5337   */\n      0xff\n        /* \"#utility.yul\":5329:5338   */\n      not\n        /* \"#utility.yul\":5318:5327   */\n      dup4\n        /* \"#utility.yul\":5314:5339   */\n      and\n        /* \"#utility.yul\":5309:5312   */\n      dup7\n        /* \"#utility.yul\":5302:5340   */\n      mstore\n        /* \"#utility.yul\":5369:5375   */\n      dup2\n        /* \"#utility.yul\":5364:5367   */\n      dup7\n        /* \"#utility.yul\":5360:5376   */\n      add\n        /* \"#utility.yul\":5353:5376   */\n      swap4\n      pop\n        /* \"#utility.yul\":5249:5386   */\n      jump(tag_247)\n        /* \"#utility.yul\":5395:5736   */\n    tag_249:\n        /* \"#utility.yul\":5462:5500   */\n      tag_250\n        /* \"#utility.yul\":5494:5499   */\n      dup6\n        /* \"#utility.yul\":5462:5500   */\n      tag_251\n      jump\t// in\n    tag_250:\n        /* \"#utility.yul\":5522:5523   */\n      0x00\n        /* \"#utility.yul\":5536:5690   */\n    tag_252:\n        /* \"#utility.yul\":5550:5556   */\n      dup4\n        /* \"#utility.yul\":5547:5548   */\n      dup2\n        /* \"#utility.yul\":5544:5557   */\n      lt\n        /* \"#utility.yul\":5536:5690   */\n      iszero\n      tag_254\n      jumpi\n        /* \"#utility.yul\":5624:5631   */\n      dup2\n        /* \"#utility.yul\":5618:5632   */\n      sload\n        /* \"#utility.yul\":5614:5615   */\n      dup2\n        /* \"#utility.yul\":5609:5612   */\n      dup10\n        /* \"#utility.yul\":5605:5616   */\n      add\n        /* \"#utility.yul\":5598:5633   */\n      mstore\n        /* \"#utility.yul\":5674:5675   */\n      0x01\n        /* \"#utility.yul\":5665:5672   */\n      dup3\n        /* \"#utility.yul\":5661:5676   */\n      add\n        /* \"#utility.yul\":5650:5676   */\n      swap2\n      pop\n        /* \"#utility.yul\":5572:5576   */\n      0x20\n        /* \"#utility.yul\":5569:5570   */\n      dup2\n        /* \"#utility.yul\":5565:5577   */\n      add\n        /* \"#utility.yul\":5560:5577   */\n      swap1\n      pop\n        /* \"#utility.yul\":5536:5690   */\n      jump(tag_252)\n    tag_254:\n        /* \"#utility.yul\":5719:5725   */\n      dup4\n        /* \"#utility.yul\":5714:5717   */\n      dup9\n        /* \"#utility.yul\":5710:5726   */\n      add\n        /* \"#utility.yul\":5703:5726   */\n      swap6\n      pop\n        /* \"#utility.yul\":5402:5736   */\n      pop\n      pop\n        /* \"#utility.yul\":5216:5736   */\n    tag_247:\n      pop\n        /* \"#utility.yul\":5004:5742   */\n      pop\n      pop\n        /* \"#utility.yul\":4897:5742   */\n      swap3\n      swap2\n      pop\n      pop\n      jump\t// out\n        /* \"#utility.yul\":5794:6594   */\n    tag_255:\n        /* \"#utility.yul\":5905:5908   */\n      0x00\n        /* \"#utility.yul\":5941:5945   */\n      0x60\n        /* \"#utility.yul\":5936:5939   */\n      dup4\n        /* \"#utility.yul\":5932:5946   */\n      add\n        /* \"#utility.yul\":6032:6036   */\n      0x00\n        /* \"#utility.yul\":6025:6030   */\n      dup4\n        /* \"#utility.yul\":6021:6037   */\n      add\n        /* \"#utility.yul\":6015:6038   */\n      mload\n        /* \"#utility.yul\":6085:6088   */\n      dup5\n        /* \"#utility.yul\":6079:6083   */\n      dup3\n        /* \"#utility.yul\":6075:6089   */\n      sub\n        /* \"#utility.yul\":6068:6072   */\n      0x00\n        /* \"#utility.yul\":6063:6066   */\n      dup7\n        /* \"#utility.yul\":6059:6073   */\n      add\n        /* \"#utility.yul\":6052:6090   */\n      mstore\n        /* \"#utility.yul\":6111:6184   */\n      tag_257\n        /* \"#utility.yul\":6179:6183   */\n      dup3\n        /* \"#utility.yul\":6165:6177   */\n      dup3\n        /* \"#utility.yul\":6111:6184   */\n      tag_220\n      jump\t// in\n    tag_257:\n        /* \"#utility.yul\":6103:6184   */\n      swap2\n      pop\n        /* \"#utility.yul\":5956:6195   */\n      pop\n        /* \"#utility.yul\":6285:6289   */\n      0x20\n        /* \"#utility.yul\":6278:6283   */\n      dup4\n        /* \"#utility.yul\":6274:6290   */\n      add\n        /* \"#utility.yul\":6268:6291   */\n      mload\n        /* \"#utility.yul\":6304:6367   */\n      tag_258\n        /* \"#utility.yul\":6361:6365   */\n      0x20\n        /* \"#utility.yul\":6356:6359   */\n      dup7\n        /* \"#utility.yul\":6352:6366   */\n      add\n        /* \"#utility.yul\":6338:6350   */\n      dup3\n        /* \"#utility.yul\":6304:6367   */\n      tag_204\n      jump\t// in\n    tag_258:\n        /* \"#utility.yul\":6205:6377   */\n      pop\n        /* \"#utility.yul\":6465:6469   */\n      0x40\n        /* \"#utility.yul\":6458:6463   */\n      dup4\n        /* \"#utility.yul\":6454:6470   */\n      add\n        /* \"#utility.yul\":6448:6471   */\n      mload\n        /* \"#utility.yul\":6484:6557   */\n      tag_259\n        /* \"#utility.yul\":6551:6555   */\n      0x40\n        /* \"#utility.yul\":6546:6549   */\n      dup7\n        /* \"#utility.yul\":6542:6556   */\n      add\n        /* \"#utility.yul\":6528:6540   */\n      dup3\n        /* \"#utility.yul\":6484:6557   */\n      tag_212\n      jump\t// in\n    tag_259:\n        /* \"#utility.yul\":6387:6567   */\n      pop\n        /* \"#utility.yul\":6584:6588   */\n      dup1\n        /* \"#utility.yul\":6577:6588   */\n      swap2\n      pop\n        /* \"#utility.yul\":5910:6594   */\n      pop\n        /* \"#utility.yul\":5794:6594   */\n      swap3\n      swap2\n      pop\n      pop\n      jump\t// out\n        /* \"#utility.yul\":6646:7991   */\n    tag_260:\n        /* \"#utility.yul\":6757:6760   */\n      0x00\n        /* \"#utility.yul\":6793:6797   */\n      0xc0\n        /* \"#utility.yul\":6788:6791   */\n      dup4\n        /* \"#utility.yul\":6784:6798   */\n      add\n        /* \"#utility.yul\":6884:6888   */\n      0x00\n        /* \"#utility.yul\":6877:6882   */\n      dup4\n        /* \"#utility.yul\":6873:6889   */\n      add\n        /* \"#utility.yul\":6867:6890   */\n      mload\n        /* \"#utility.yul\":6937:6940   */\n      dup5\n        /* \"#utility.yul\":6931:6935   */\n      dup3\n        /* \"#utility.yul\":6927:6941   */\n      sub\n        /* \"#utility.yul\":6920:6924   */\n      0x00\n        /* \"#utility.yul\":6915:6918   */\n      dup7\n        /* \"#utility.yul\":6911:6925   */\n      add\n        /* \"#utility.yul\":6904:6942   */\n      mstore\n        /* \"#utility.yul\":6963:7036   */\n      tag_262\n        /* \"#utility.yul\":7031:7035   */\n      dup3\n        /* \"#utility.yul\":7017:7029   */\n      dup3\n        /* \"#utility.yul\":6963:7036   */\n      tag_220\n      jump\t// in\n    tag_262:\n        /* \"#utility.yul\":6955:7036   */\n      swap2\n      pop\n        /* \"#utility.yul\":6808:7047   */\n      pop\n        /* \"#utility.yul\":7133:7137   */\n      0x20\n        /* \"#utility.yul\":7126:7131   */\n      dup4\n        /* \"#utility.yul\":7122:7138   */\n      add\n        /* \"#utility.yul\":7116:7139   */\n      mload\n        /* \"#utility.yul\":7152:7226   */\n      tag_263\n        /* \"#utility.yul\":7220:7224   */\n      0x20\n        /* \"#utility.yul\":7215:7218   */\n      dup7\n        /* \"#utility.yul\":7211:7225   */\n      add\n        /* \"#utility.yul\":7197:7209   */\n      dup3\n        /* \"#utility.yul\":7152:7226   */\n      tag_216\n      jump\t// in\n    tag_263:\n        /* \"#utility.yul\":7057:7236   */\n      pop\n        /* \"#utility.yul\":7324:7328   */\n      0x40\n        /* \"#utility.yul\":7317:7322   */\n      dup4\n        /* \"#utility.yul\":7313:7329   */\n      add\n        /* \"#utility.yul\":7307:7330   */\n      mload\n        /* \"#utility.yul\":7343:7416   */\n      tag_264\n        /* \"#utility.yul\":7410:7414   */\n      0x40\n        /* \"#utility.yul\":7405:7408   */\n      dup7\n        /* \"#utility.yul\":7401:7415   */\n      add\n        /* \"#utility.yul\":7387:7399   */\n      dup3\n        /* \"#utility.yul\":7343:7416   */\n      tag_212\n      jump\t// in\n    tag_264:\n        /* \"#utility.yul\":7246:7426   */\n      pop\n        /* \"#utility.yul\":7512:7516   */\n      0x60\n        /* \"#utility.yul\":7505:7510   */\n      dup4\n        /* \"#utility.yul\":7501:7517   */\n      add\n        /* \"#utility.yul\":7495:7518   */\n      mload\n        /* \"#utility.yul\":7531:7594   */\n      tag_265\n        /* \"#utility.yul\":7588:7592   */\n      0x60\n        /* \"#utility.yul\":7583:7586   */\n      dup7\n        /* \"#utility.yul\":7579:7593   */\n      add\n        /* \"#utility.yul\":7565:7577   */\n      dup3\n        /* \"#utility.yul\":7531:7594   */\n      tag_266\n      jump\t// in\n    tag_265:\n        /* \"#utility.yul\":7436:7604   */\n      pop\n        /* \"#utility.yul\":7691:7695   */\n      0x80\n        /* \"#utility.yul\":7684:7689   */\n      dup4\n        /* \"#utility.yul\":7680:7696   */\n      add\n        /* \"#utility.yul\":7674:7697   */\n      mload\n        /* \"#utility.yul\":7710:7773   */\n      tag_267\n        /* \"#utility.yul\":7767:7771   */\n      0x80\n        /* \"#utility.yul\":7762:7765   */\n      dup7\n        /* \"#utility.yul\":7758:7772   */\n      add\n        /* \"#utility.yul\":7744:7756   */\n      dup3\n        /* \"#utility.yul\":7710:7773   */\n      tag_266\n      jump\t// in\n    tag_267:\n        /* \"#utility.yul\":7614:7783   */\n      pop\n        /* \"#utility.yul\":7872:7876   */\n      0xa0\n        /* \"#utility.yul\":7865:7870   */\n      dup4\n        /* \"#utility.yul\":7861:7877   */\n      add\n        /* \"#utility.yul\":7855:7878   */\n      mload\n        /* \"#utility.yul\":7891:7954   */\n      tag_268\n        /* \"#utility.yul\":7948:7952   */\n      0xa0\n        /* \"#utility.yul\":7943:7946   */\n      dup7\n        /* \"#utility.yul\":7939:7953   */\n      add\n        /* \"#utility.yul\":7925:7937   */\n      dup3\n        /* \"#utility.yul\":7891:7954   */\n      tag_204\n      jump\t// in\n    tag_268:\n        /* \"#utility.yul\":7793:7964   */\n      pop\n        /* \"#utility.yul\":7981:7985   */\n      dup1\n        /* \"#utility.yul\":7974:7985   */\n      swap2\n      pop\n        /* \"#utility.yul\":6762:7991   */\n      pop\n        /* \"#utility.yul\":6646:7991   */\n      swap3\n      swap2\n      pop\n      pop\n      jump\t// out\n        /* \"#utility.yul\":7997:8105   */\n    tag_266:\n        /* \"#utility.yul\":8074:8098   */\n      tag_270\n        /* \"#utility.yul\":8092:8097   */\n      dup2\n        /* \"#utility.yul\":8074:8098   */\n      tag_271\n      jump\t// in\n    tag_270:\n        /* \"#utility.yul\":8069:8072   */\n      dup3\n        /* \"#utility.yul\":8062:8099   */\n      mstore\n        /* \"#utility.yul\":7997:8105   */\n      pop\n      pop\n      jump\t// out\n        /* \"#utility.yul\":8111:8229   */\n    tag_272:\n        /* \"#utility.yul\":8198:8222   */\n      tag_274\n        /* \"#utility.yul\":8216:8221   */\n      dup2\n        /* \"#utility.yul\":8198:8222   */\n      tag_271\n      jump\t// in\n    tag_274:\n        /* \"#utility.yul\":8193:8196   */\n      dup3\n        /* \"#utility.yul\":8186:8223   */\n      mstore\n        /* \"#utility.yul\":8111:8229   */\n      pop\n      pop\n      jump\t// out\n        /* \"#utility.yul\":8235:8510   */\n    tag_118:\n        /* \"#utility.yul\":8367:8370   */\n      0x00\n        /* \"#utility.yul\":8389:8484   */\n      tag_276\n        /* \"#utility.yul\":8480:8483   */\n      dup3\n        /* \"#utility.yul\":8471:8477   */\n      dup5\n        /* \"#utility.yul\":8389:8484   */\n      tag_237\n      jump\t// in\n    tag_276:\n        /* \"#utility.yul\":8382:8484   */\n      swap2\n      pop\n        /* \"#utility.yul\":8501:8504   */\n      dup2\n        /* \"#utility.yul\":8494:8504   */\n      swap1\n      pop\n        /* \"#utility.yul\":8235:8510   */\n      swap3\n      swap2\n      pop\n      pop\n      jump\t// out\n        /* \"#utility.yul\":8516:8785   */\n    tag_72:\n        /* \"#utility.yul\":8645:8648   */\n      0x00\n        /* \"#utility.yul\":8667:8759   */\n      tag_278\n        /* \"#utility.yul\":8755:8758   */\n      dup3\n        /* \"#utility.yul\":8746:8752   */\n      dup5\n        /* \"#utility.yul\":8667:8759   */\n      tag_243\n      jump\t// in\n    tag_278:\n        /* \"#utility.yul\":8660:8759   */\n      swap2\n      pop\n        /* \"#utility.yul\":8776:8779   */\n      dup2\n        /* \"#utility.yul\":8769:8779   */\n      swap1\n      pop\n        /* \"#utility.yul\":8516:8785   */\n      swap3\n      swap2\n      pop\n      pop\n      jump\t// out\n        /* \"#utility.yul\":8791:9001   */\n    tag_36:\n        /* \"#utility.yul\":8878:8882   */\n      0x00\n        /* \"#utility.yul\":8916:8918   */\n      0x20\n        /* \"#utility.yul\":8905:8914   */\n      dup3\n        /* \"#utility.yul\":8901:8919   */\n      add\n        /* \"#utility.yul\":8893:8919   */\n      swap1\n      pop\n        /* \"#utility.yul\":8929:8994   */\n      tag_280\n        /* \"#utility.yul\":8991:8992   */\n      0x00\n        /* \"#utility.yul\":8980:8989   */\n      dup4\n        /* \"#utility.yul\":8976:8993   */\n      add\n        /* \"#utility.yul\":8967:8973   */\n      dup5\n        /* \"#utility.yul\":8929:8994   */\n      tag_208\n      jump\t// in\n    tag_280:\n        /* \"#utility.yul\":8791:9001   */\n      swap3\n      swap2\n      pop\n      pop\n      jump\t// out\n        /* \"#utility.yul\":9007:9320   */\n    tag_24:\n        /* \"#utility.yul\":9120:9124   */\n      0x00\n        /* \"#utility.yul\":9158:9160   */\n      0x20\n        /* \"#utility.yul\":9147:9156   */\n      dup3\n        /* \"#utility.yul\":9143:9161   */\n      add\n        /* \"#utility.yul\":9135:9161   */\n      swap1\n      pop\n        /* \"#utility.yul\":9207:9216   */\n      dup2\n        /* \"#utility.yul\":9201:9205   */\n      dup2\n        /* \"#utility.yul\":9197:9217   */\n      sub\n        /* \"#utility.yul\":9193:9194   */\n      0x00\n        /* \"#utility.yul\":9182:9191   */\n      dup4\n        /* \"#utility.yul\":9178:9195   */\n      add\n        /* \"#utility.yul\":9171:9218   */\n      mstore\n        /* \"#utility.yul\":9235:9313   */\n      tag_282\n        /* \"#utility.yul\":9308:9312   */\n      dup2\n        /* \"#utility.yul\":9299:9305   */\n      dup5\n        /* \"#utility.yul\":9235:9313   */\n      tag_230\n      jump\t// in\n    tag_282:\n        /* \"#utility.yul\":9227:9313   */\n      swap1\n      pop\n        /* \"#utility.yul\":9007:9320   */\n      swap3\n      swap2\n      pop\n      pop\n      jump\t// out\n        /* \"#utility.yul\":9326:10465   */\n    tag_13:\n        /* \"#utility.yul\":9639:9643   */\n      0x00\n        /* \"#utility.yul\":9677:9680   */\n      0xc0\n        /* \"#utility.yul\":9666:9675   */\n      dup3\n        /* \"#utility.yul\":9662:9681   */\n      add\n        /* \"#utility.yul\":9654:9681   */\n      swap1\n      pop\n        /* \"#utility.yul\":9727:9736   */\n      dup2\n        /* \"#utility.yul\":9721:9725   */\n      dup2\n        /* \"#utility.yul\":9717:9737   */\n      sub\n        /* \"#utility.yul\":9713:9714   */\n      0x00\n        /* \"#utility.yul\":9702:9711   */\n      dup4\n        /* \"#utility.yul\":9698:9715   */\n      add\n        /* \"#utility.yul\":9691:9738   */\n      mstore\n        /* \"#utility.yul\":9755:9833   */\n      tag_284\n        /* \"#utility.yul\":9828:9832   */\n      dup2\n        /* \"#utility.yul\":9819:9825   */\n      dup10\n        /* \"#utility.yul\":9755:9833   */\n      tag_230\n      jump\t// in\n    tag_284:\n        /* \"#utility.yul\":9747:9833   */\n      swap1\n      pop\n        /* \"#utility.yul\":9880:9889   */\n      dup2\n        /* \"#utility.yul\":9874:9878   */\n      dup2\n        /* \"#utility.yul\":9870:9890   */\n      sub\n        /* \"#utility.yul\":9865:9867   */\n      0x20\n        /* \"#utility.yul\":9854:9863   */\n      dup4\n        /* \"#utility.yul\":9850:9868   */\n      add\n        /* \"#utility.yul\":9843:9891   */\n      mstore\n        /* \"#utility.yul\":9908:9986   */\n      tag_285\n        /* \"#utility.yul\":9981:9985   */\n      dup2\n        /* \"#utility.yul\":9972:9978   */\n      dup9\n        /* \"#utility.yul\":9908:9986   */\n      tag_230\n      jump\t// in\n    tag_285:\n        /* \"#utility.yul\":9900:9986   */\n      swap1\n      pop\n        /* \"#utility.yul\":9996:10068   */\n      tag_286\n        /* \"#utility.yul\":10064:10066   */\n      0x40\n        /* \"#utility.yul\":10053:10062   */\n      dup4\n        /* \"#utility.yul\":10049:10067   */\n      add\n        /* \"#utility.yul\":10040:10046   */\n      dup8\n        /* \"#utility.yul\":9996:10068   */\n      tag_272\n      jump\t// in\n    tag_286:\n        /* \"#utility.yul\":10115:10124   */\n      dup2\n        /* \"#utility.yul\":10109:10113   */\n      dup2\n        /* \"#utility.yul\":10105:10125   */\n      sub\n        /* \"#utility.yul\":10100:10102   */\n      0x60\n        /* \"#utility.yul\":10089:10098   */\n      dup4\n        /* \"#utility.yul\":10085:10103   */\n      add\n        /* \"#utility.yul\":10078:10126   */\n      mstore\n        /* \"#utility.yul\":10143:10221   */\n      tag_287\n        /* \"#utility.yul\":10216:10220   */\n      dup2\n        /* \"#utility.yul\":10207:10213   */\n      dup7\n        /* \"#utility.yul\":10143:10221   */\n      tag_230\n      jump\t// in\n    tag_287:\n        /* \"#utility.yul\":10135:10221   */\n      swap1\n      pop\n        /* \"#utility.yul\":10269:10278   */\n      dup2\n        /* \"#utility.yul\":10263:10267   */\n      dup2\n        /* \"#utility.yul\":10259:10279   */\n      sub\n        /* \"#utility.yul\":10253:10256   */\n      0x80\n        /* \"#utility.yul\":10242:10251   */\n      dup4\n        /* \"#utility.yul\":10238:10257   */\n      add\n        /* \"#utility.yul\":10231:10280   */\n      mstore\n        /* \"#utility.yul\":10297:10375   */\n      tag_288\n        /* \"#utility.yul\":10370:10374   */\n      dup2\n        /* \"#utility.yul\":10361:10367   */\n      dup6\n        /* \"#utility.yul\":10297:10375   */\n      tag_230\n      jump\t// in\n    tag_288:\n        /* \"#utility.yul\":10289:10375   */\n      swap1\n      pop\n        /* \"#utility.yul\":10385:10458   */\n      tag_289\n        /* \"#utility.yul\":10453:10456   */\n      0xa0\n        /* \"#utility.yul\":10442:10451   */\n      dup4\n        /* \"#utility.yul\":10438:10457   */\n      add\n        /* \"#utility.yul\":10429:10435   */\n      dup5\n        /* \"#utility.yul\":10385:10458   */\n      tag_272\n      jump\t// in\n    tag_289:\n        /* \"#utility.yul\":9326:10465   */\n      swap8\n      swap7\n      pop\n      pop\n      pop\n      pop\n      pop\n      pop\n      pop\n      jump\t// out\n        /* \"#utility.yul\":10471:10828   */\n    tag_30:\n        /* \"#utility.yul\":10606:10610   */\n      0x00\n        /* \"#utility.yul\":10644:10646   */\n      0x20\n        /* \"#utility.yul\":10633:10642   */\n      dup3\n        /* \"#utility.yul\":10629:10647   */\n      add\n        /* \"#utility.yul\":10621:10647   */\n      swap1\n      pop\n        /* \"#utility.yul\":10693:10702   */\n      dup2\n        /* \"#utility.yul\":10687:10691   */\n      dup2\n        /* \"#utility.yul\":10683:10703   */\n      sub\n        /* \"#utility.yul\":10679:10680   */\n      0x00\n        /* \"#utility.yul\":10668:10677   */\n      dup4\n        /* \"#utility.yul\":10664:10681   */\n      add\n        /* \"#utility.yul\":10657:10704   */\n      mstore\n        /* \"#utility.yul\":10721:10821   */\n      tag_291\n        /* \"#utility.yul\":10816:10820   */\n      dup2\n        /* \"#utility.yul\":10807:10813   */\n      dup5\n        /* \"#utility.yul\":10721:10821   */\n      tag_255\n      jump\t// in\n    tag_291:\n        /* \"#utility.yul\":10713:10821   */\n      swap1\n      pop\n        /* \"#utility.yul\":10471:10828   */\n      swap3\n      swap2\n      pop\n      pop\n      jump\t// out\n        /* \"#utility.yul\":10834:11191   */\n    tag_19:\n        /* \"#utility.yul\":10969:10973   */\n      0x00\n        /* \"#utility.yul\":11007:11009   */\n      0x20\n        /* \"#utility.yul\":10996:11005   */\n      dup3\n        /* \"#utility.yul\":10992:11010   */\n      add\n        /* \"#utility.yul\":10984:11010   */\n      swap1\n      pop\n        /* \"#utility.yul\":11056:11065   */\n      dup2\n        /* \"#utility.yul\":11050:11054   */\n      dup2\n        /* \"#utility.yul\":11046:11066   */\n      sub\n        /* \"#utility.yul\":11042:11043   */\n      0x00\n        /* \"#utility.yul\":11031:11040   */\n      dup4\n        /* \"#utility.yul\":11027:11044   */\n      add\n        /* \"#utility.yul\":11020:11067   */\n      mstore\n        /* \"#utility.yul\":11084:11184   */\n      tag_293\n        /* \"#utility.yul\":11179:11183   */\n      dup2\n        /* \"#utility.yul\":11170:11176   */\n      dup5\n        /* \"#utility.yul\":11084:11184   */\n      tag_260\n      jump\t// in\n    tag_293:\n        /* \"#utility.yul\":11076:11184   */\n      swap1\n      pop\n        /* \"#utility.yul\":10834:11191   */\n      swap3\n      swap2\n      pop\n      pop\n      jump\t// out\n        /* \"#utility.yul\":11197:11326   */\n    tag_158:\n        /* \"#utility.yul\":11231:11237   */\n      0x00\n        /* \"#utility.yul\":11258:11278   */\n      tag_295\n      tag_296\n      jump\t// in\n    tag_295:\n        /* \"#utility.yul\":11248:11278   */\n      swap1\n      pop\n        /* \"#utility.yul\":11287:11320   */\n      tag_297\n        /* \"#utility.yul\":11315:11319   */\n      dup3\n        /* \"#utility.yul\":11307:11313   */\n      dup3\n        /* \"#utility.yul\":11287:11320   */\n      tag_298\n      jump\t// in\n    tag_297:\n        /* \"#utility.yul\":11197:11326   */\n      swap2\n      swap1\n      pop\n      jump\t// out\n        /* \"#utility.yul\":11332:11407   */\n    tag_296:\n        /* \"#utility.yul\":11365:11371   */\n      0x00\n        /* \"#utility.yul\":11398:11400   */\n      0x40\n        /* \"#utility.yul\":11392:11401   */\n      mload\n        /* \"#utility.yul\":11382:11401   */\n      swap1\n      pop\n        /* \"#utility.yul\":11332:11407   */\n      swap1\n      jump\t// out\n        /* \"#utility.yul\":11413:11721   */\n    tag_157:\n        /* \"#utility.yul\":11475:11479   */\n      0x00\n        /* \"#utility.yul\":11565:11583   */\n      0xffffffffffffffff\n        /* \"#utility.yul\":11557:11563   */\n      dup3\n        /* \"#utility.yul\":11554:11584   */\n      gt\n        /* \"#utility.yul\":11551:11607   */\n      iszero\n      tag_301\n      jumpi\n        /* \"#utility.yul\":11587:11605   */\n      tag_302\n      tag_303\n      jump\t// in\n    tag_302:\n        /* \"#utility.yul\":11551:11607   */\n    tag_301:\n        /* \"#utility.yul\":11625:11654   */\n      tag_304\n        /* \"#utility.yul\":11647:11653   */\n      dup3\n        /* \"#utility.yul\":11625:11654   */\n      tag_229\n      jump\t// in\n    tag_304:\n        /* \"#utility.yul\":11617:11654   */\n      swap1\n      pop\n        /* \"#utility.yul\":11709:11713   */\n      0x20\n        /* \"#utility.yul\":11703:11707   */\n      dup2\n        /* \"#utility.yul\":11699:11714   */\n      add\n        /* \"#utility.yul\":11691:11714   */\n      swap1\n      pop\n        /* \"#utility.yul\":11413:11721   */\n      swap2\n      swap1\n      pop\n      jump\t// out\n        /* \"#utility.yul\":11727:11868   */\n    tag_251:\n        /* \"#utility.yul\":11776:11780   */\n      0x00\n        /* \"#utility.yul\":11799:11802   */\n      dup2\n        /* \"#utility.yul\":11791:11802   */\n      swap1\n      pop\n        /* \"#utility.yul\":11822:11825   */\n      dup2\n        /* \"#utility.yul\":11819:11820   */\n      0x00\n        /* \"#utility.yul\":11812:11826   */\n      mstore\n        /* \"#utility.yul\":11856:11860   */\n      0x20\n        /* \"#utility.yul\":11853:11854   */\n      0x00\n        /* \"#utility.yul\":11843:11861   */\n      keccak256\n        /* \"#utility.yul\":11835:11861   */\n      swap1\n      pop\n        /* \"#utility.yul\":11727:11868   */\n      swap2\n      swap1\n      pop\n      jump\t// out\n        /* \"#utility.yul\":11874:11973   */\n    tag_223:\n        /* \"#utility.yul\":11926:11932   */\n      0x00\n        /* \"#utility.yul\":11960:11965   */\n      dup2\n        /* \"#utility.yul\":11954:11966   */\n      mload\n        /* \"#utility.yul\":11944:11966   */\n      swap1\n      pop\n        /* \"#utility.yul\":11874:11973   */\n      swap2\n      swap1\n      pop\n      jump\t// out\n        /* \"#utility.yul\":11979:12138   */\n    tag_225:\n        /* \"#utility.yul\":12053:12064   */\n      0x00\n        /* \"#utility.yul\":12087:12093   */\n      dup3\n        /* \"#utility.yul\":12082:12085   */\n      dup3\n        /* \"#utility.yul\":12075:12094   */\n      mstore\n        /* \"#utility.yul\":12127:12131   */\n      0x20\n        /* \"#utility.yul\":12122:12125   */\n      dup3\n        /* \"#utility.yul\":12118:12132   */\n      add\n        /* \"#utility.yul\":12103:12132   */\n      swap1\n      pop\n        /* \"#utility.yul\":11979:12138   */\n      swap3\n      swap2\n      pop\n      pop\n      jump\t// out\n        /* \"#utility.yul\":12144:12313   */\n    tag_234:\n        /* \"#utility.yul\":12228:12239   */\n      0x00\n        /* \"#utility.yul\":12262:12268   */\n      dup3\n        /* \"#utility.yul\":12257:12260   */\n      dup3\n        /* \"#utility.yul\":12250:12269   */\n      mstore\n        /* \"#utility.yul\":12302:12306   */\n      0x20\n        /* \"#utility.yul\":12297:12300   */\n      dup3\n        /* \"#utility.yul\":12293:12307   */\n      add\n        /* \"#utility.yul\":12278:12307   */\n      swap1\n      pop\n        /* \"#utility.yul\":12144:12313   */\n      swap3\n      swap2\n      pop\n      pop\n      jump\t// out\n        /* \"#utility.yul\":12319:12467   */\n    tag_241:\n        /* \"#utility.yul\":12421:12432   */\n      0x00\n        /* \"#utility.yul\":12458:12461   */\n      dup2\n        /* \"#utility.yul\":12443:12461   */\n      swap1\n      pop\n        /* \"#utility.yul\":12319:12467   */\n      swap3\n      swap2\n      pop\n      pop\n      jump\t// out\n        /* \"#utility.yul\":12473:12778   */\n    tag_93:\n        /* \"#utility.yul\":12513:12516   */\n      0x00\n        /* \"#utility.yul\":12532:12552   */\n      tag_311\n        /* \"#utility.yul\":12550:12551   */\n      dup3\n        /* \"#utility.yul\":12532:12552   */\n      tag_271\n      jump\t// in\n    tag_311:\n        /* \"#utility.yul\":12527:12552   */\n      swap2\n      pop\n        /* \"#utility.yul\":12566:12586   */\n      tag_312\n        /* \"#utility.yul\":12584:12585   */\n      dup4\n        /* \"#utility.yul\":12566:12586   */\n      tag_271\n      jump\t// in\n    tag_312:\n        /* \"#utility.yul\":12561:12586   */\n      swap3\n      pop\n        /* \"#utility.yul\":12720:12721   */\n      dup3\n        /* \"#utility.yul\":12652:12718   */\n      0xffffffffffffffffffffffffffffffffffffffffffffffffffffffffffffffff\n        /* \"#utility.yul\":12648:12722   */\n      sub\n        /* \"#utility.yul\":12645:12646   */\n      dup3\n        /* \"#utility.yul\":12642:12723   */\n      gt\n        /* \"#utility.yul\":12639:12746   */\n      iszero\n      tag_313\n      jumpi\n        /* \"#utility.yul\":12726:12744   */\n      tag_314\n      tag_315\n      jump\t// in\n    tag_314:\n        /* \"#utility.yul\":12639:12746   */\n    tag_313:\n        /* \"#utility.yul\":12770:12771   */\n      dup3\n        /* \"#utility.yul\":12767:12768   */\n      dup3\n        /* \"#utility.yul\":12763:12772   */\n      add\n        /* \"#utility.yul\":12756:12772   */\n      swap1\n      pop\n        /* \"#utility.yul\":12473:12778   */\n      swap3\n      swap2\n      pop\n      pop\n      jump\t// out\n        /* \"#utility.yul\":12784:12880   */\n    tag_207:\n        /* \"#utility.yul\":12821:12828   */\n      0x00\n        /* \"#utility.yul\":12850:12874   */\n      tag_317\n        /* \"#utility.yul\":12868:12873   */\n      dup3\n        /* \"#utility.yul\":12850:12874   */\n      tag_318\n      jump\t// in\n    tag_317:\n        /* \"#utility.yul\":12839:12874   */\n      swap1\n      pop\n        /* \"#utility.yul\":12784:12880   */\n      swap2\n      swap1\n      pop\n      jump\t// out\n        /* \"#utility.yul\":12886:12976   */\n    tag_211:\n        /* \"#utility.yul\":12920:12927   */\n      0x00\n        /* \"#utility.yul\":12963:12968   */\n      dup2\n        /* \"#utility.yul\":12956:12969   */\n      iszero\n        /* \"#utility.yul\":12949:12970   */\n      iszero\n        /* \"#utility.yul\":12938:12970   */\n      swap1\n      pop\n        /* \"#utility.yul\":12886:12976   */\n      swap2\n      swap1\n      pop\n      jump\t// out\n        /* \"#utility.yul\":12982:13117   */\n    tag_320:\n        /* \"#utility.yul\":13031:13038   */\n      0x00\n        /* \"#utility.yul\":13060:13065   */\n      dup2\n        /* \"#utility.yul\":13049:13065   */\n      swap1\n      pop\n        /* \"#utility.yul\":13066:13111   */\n      tag_322\n        /* \"#utility.yul\":13105:13110   */\n      dup3\n        /* \"#utility.yul\":13066:13111   */\n      tag_323\n      jump\t// in\n    tag_322:\n        /* \"#utility.yul\":12982:13117   */\n      swap2\n      swap1\n      pop\n      jump\t// out\n        /* \"#utility.yul\":13123:13260   */\n    tag_324:\n        /* \"#utility.yul\":13173:13180   */\n      0x00\n        /* \"#utility.yul\":13202:13207   */\n      dup2\n        /* \"#utility.yul\":13191:13207   */\n      swap1\n      pop\n        /* \"#utility.yul\":13208:13254   */\n      tag_326\n        /* \"#utility.yul\":13248:13253   */\n      dup3\n        /* \"#utility.yul\":13208:13254   */\n      tag_327\n      jump\t// in\n    tag_326:\n        /* \"#utility.yul\":13123:13260   */\n      swap2\n      swap1\n      pop\n      jump\t// out\n        /* \"#utility.yul\":13266:13392   */\n    tag_318:\n        /* \"#utility.yul\":13303:13310   */\n      0x00\n        /* \"#utility.yul\":13343:13385   */\n      0xffffffffffffffffffffffffffffffffffffffff\n        /* \"#utility.yul\":13336:13341   */\n      dup3\n        /* \"#utility.yul\":13332:13386   */\n      and\n        /* \"#utility.yul\":13321:13386   */\n      swap1\n      pop\n        /* \"#utility.yul\":13266:13392   */\n      swap2\n      swap1\n      pop\n      jump\t// out\n        /* \"#utility.yul\":13398:13475   */\n    tag_271:\n        /* \"#utility.yul\":13435:13442   */\n      0x00\n        /* \"#utility.yul\":13464:13469   */\n      dup2\n        /* \"#utility.yul\":13453:13469   */\n      swap1\n      pop\n        /* \"#utility.yul\":13398:13475   */\n      swap2\n      swap1\n      pop\n      jump\t// out\n        /* \"#utility.yul\":13481:13616   */\n    tag_215:\n        /* \"#utility.yul\":13541:13550   */\n      0x00\n        /* \"#utility.yul\":13574:13610   */\n      tag_331\n        /* \"#utility.yul\":13604:13609   */\n      dup3\n        /* \"#utility.yul\":13574:13610   */\n      tag_320\n      jump\t// in\n    tag_331:\n        /* \"#utility.yul\":13561:13610   */\n      swap1\n      pop\n        /* \"#utility.yul\":13481:13616   */\n      swap2\n      swap1\n      pop\n      jump\t// out\n        /* \"#utility.yul\":13622:13759   */\n    tag_219:\n        /* \"#utility.yul\":13683:13692   */\n      0x00\n        /* \"#utility.yul\":13716:13753   */\n      tag_333\n        /* \"#utility.yul\":13747:13752   */\n      dup3\n        /* \"#utility.yul\":13716:13753   */\n      tag_324\n      jump\t// in\n    tag_333:\n        /* \"#utility.yul\":13703:13753   */\n      swap1\n      pop\n        /* \"#utility.yul\":13622:13759   */\n      swap2\n      swap1\n      pop\n      jump\t// out\n        /* \"#utility.yul\":13765:13919   */\n    tag_163:\n        /* \"#utility.yul\":13849:13855   */\n      dup3\n        /* \"#utility.yul\":13844:13847   */\n      dup2\n        /* \"#utility.yul\":13839:13842   */\n      dup4\n        /* \"#utility.yul\":13826:13856   */\n      calldatacopy\n        /* \"#utility.yul\":13911:13912   */\n      0x00\n        /* \"#utility.yul\":13902:13908   */\n      dup4\n        /* \"#utility.yul\":13897:13900   */\n      dup4\n        /* \"#utility.yul\":13893:13909   */\n      add\n        /* \"#utility.yul\":13886:13913   */\n      mstore\n        /* \"#utility.yul\":13765:13919   */\n      pop\n      pop\n      pop\n      jump\t// out\n        /* \"#utility.yul\":13925:14232   */\n    tag_227:\n        /* \"#utility.yul\":13993:13994   */\n      0x00\n        /* \"#utility.yul\":14003:14116   */\n    tag_336:\n        /* \"#utility.yul\":14017:14023   */\n      dup4\n        /* \"#utility.yul\":14014:14015   */\n      dup2\n        /* \"#utility.yul\":14011:14024   */\n      lt\n        /* \"#utility.yul\":14003:14116   */\n      iszero\n      tag_338\n      jumpi\n        /* \"#utility.yul\":14102:14103   */\n      dup1\n        /* \"#utility.yul\":14097:14100   */\n      dup3\n        /* \"#utility.yul\":14093:14104   */\n      add\n        /* \"#utility.yul\":14087:14105   */\n      mload\n        /* \"#utility.yul\":14083:14084   */\n      dup2\n        /* \"#utility.yul\":14078:14081   */\n      dup5\n        /* \"#utility.yul\":14074:14085   */\n      add\n        /* \"#utility.yul\":14067:14106   */\n      mstore\n        /* \"#utility.yul\":14039:14041   */\n      0x20\n        /* \"#utility.yul\":14036:14037   */\n      dup2\n        /* \"#utility.yul\":14032:14042   */\n      add\n        /* \"#utility.yul\":14027:14042   */\n      swap1\n      pop\n        /* \"#utility.yul\":14003:14116   */\n      jump(tag_336)\n    tag_338:\n        /* \"#utility.yul\":14134:14140   */\n      dup4\n        /* \"#utility.yul\":14131:14132   */\n      dup2\n        /* \"#utility.yul\":14128:14141   */\n      gt\n        /* \"#utility.yul\":14125:14226   */\n      iszero\n      tag_339\n      jumpi\n        /* \"#utility.yul\":14214:14215   */\n      0x00\n        /* \"#utility.yul\":14205:14211   */\n      dup5\n        /* \"#utility.yul\":14200:14203   */\n      dup5\n        /* \"#utility.yul\":14196:14212   */\n      add\n        /* \"#utility.yul\":14189:14216   */\n      mstore\n        /* \"#utility.yul\":14125:14226   */\n    tag_339:\n        /* \"#utility.yul\":13974:14232   */\n      pop\n        /* \"#utility.yul\":13925:14232   */\n      pop\n      pop\n      pop\n      jump\t// out\n        /* \"#utility.yul\":14238:14558   */\n    tag_40:\n        /* \"#utility.yul\":14282:14288   */\n      0x00\n        /* \"#utility.yul\":14319:14320   */\n      0x02\n        /* \"#utility.yul\":14313:14317   */\n      dup3\n        /* \"#utility.yul\":14309:14321   */\n      div\n        /* \"#utility.yul\":14299:14321   */\n      swap1\n      pop\n        /* \"#utility.yul\":14366:14367   */\n      0x01\n        /* \"#utility.yul\":14360:14364   */\n      dup3\n        /* \"#utility.yul\":14356:14368   */\n      and\n        /* \"#utility.yul\":14387:14405   */\n      dup1\n        /* \"#utility.yul\":14377:14458   */\n      tag_341\n      jumpi\n        /* \"#utility.yul\":14443:14447   */\n      0x7f\n        /* \"#utility.yul\":14435:14441   */\n      dup3\n        /* \"#utility.yul\":14431:14448   */\n      and\n        /* \"#utility.yul\":14421:14448   */\n      swap2\n      pop\n        /* \"#utility.yul\":14377:14458   */\n    tag_341:\n        /* \"#utility.yul\":14505:14507   */\n      0x20\n        /* \"#utility.yul\":14497:14503   */\n      dup3\n        /* \"#utility.yul\":14494:14508   */\n      lt\n        /* \"#utility.yul\":14474:14492   */\n      dup2\n        /* \"#utility.yul\":14471:14509   */\n      eq\n        /* \"#utility.yul\":14468:14552   */\n      iszero\n      tag_342\n      jumpi\n        /* \"#utility.yul\":14524:14542   */\n      tag_343\n      tag_344\n      jump\t// in\n    tag_343:\n        /* \"#utility.yul\":14468:14552   */\n    tag_342:\n        /* \"#utility.yul\":14289:14558   */\n      pop\n        /* \"#utility.yul\":14238:14558   */\n      swap2\n      swap1\n      pop\n      jump\t// out\n        /* \"#utility.yul\":14564:14845   */\n    tag_298:\n        /* \"#utility.yul\":14647:14674   */\n      tag_346\n        /* \"#utility.yul\":14669:14673   */\n      dup3\n        /* \"#utility.yul\":14647:14674   */\n      tag_229\n      jump\t// in\n    tag_346:\n        /* \"#utility.yul\":14639:14645   */\n      dup2\n        /* \"#utility.yul\":14635:14675   */\n      add\n        /* \"#utility.yul\":14777:14783   */\n      dup2\n        /* \"#utility.yul\":14765:14775   */\n      dup2\n        /* \"#utility.yul\":14762:14784   */\n      lt\n        /* \"#utility.yul\":14741:14759   */\n      0xffffffffffffffff\n        /* \"#utility.yul\":14729:14739   */\n      dup3\n        /* \"#utility.yul\":14726:14760   */\n      gt\n        /* \"#utility.yul\":14723:14785   */\n      or\n        /* \"#utility.yul\":14720:14808   */\n      iszero\n      tag_347\n      jumpi\n        /* \"#utility.yul\":14788:14806   */\n      tag_348\n      tag_303\n      jump\t// in\n    tag_348:\n        /* \"#utility.yul\":14720:14808   */\n    tag_347:\n        /* \"#utility.yul\":14828:14838   */\n      dup1\n        /* \"#utility.yul\":14824:14826   */\n      0x40\n        /* \"#utility.yul\":14817:14839   */\n      mstore\n        /* \"#utility.yul\":14607:14845   */\n      pop\n        /* \"#utility.yul\":14564:14845   */\n      pop\n      pop\n      jump\t// out\n        /* \"#utility.yul\":14851:15084   */\n    tag_95:\n        /* \"#utility.yul\":14890:14893   */\n      0x00\n        /* \"#utility.yul\":14913:14937   */\n      tag_350\n        /* \"#utility.yul\":14931:14936   */\n      dup3\n        /* \"#utility.yul\":14913:14937   */\n      tag_271\n      jump\t// in\n    tag_350:\n        /* \"#utility.yul\":14904:14937   */\n      swap2\n      pop\n        /* \"#utility.yul\":14959:15025   */\n      0xffffffffffffffffffffffffffffffffffffffffffffffffffffffffffffffff\n        /* \"#utility.yul\":14952:14957   */\n      dup3\n        /* \"#utility.yul\":14949:15026   */\n      eq\n        /* \"#utility.yul\":14946:15049   */\n      iszero\n      tag_351\n      jumpi\n        /* \"#utility.yul\":15029:15047   */\n      tag_352\n      tag_315\n      jump\t// in\n    tag_352:\n        /* \"#utility.yul\":14946:15049   */\n    tag_351:\n        /* \"#utility.yul\":15076:15077   */\n      0x01\n        /* \"#utility.yul\":15069:15074   */\n      dup3\n        /* \"#utility.yul\":15065:15078   */\n      add\n        /* \"#utility.yul\":15058:15078   */\n      swap1\n      pop\n        /* \"#utility.yul\":14851:15084   */\n      swap2\n      swap1\n      pop\n      jump\t// out\n        /* \"#utility.yul\":15090:15270   */\n    tag_315:\n        /* \"#utility.yul\":15138:15215   */\n      0x4e487b7100000000000000000000000000000000000000000000000000000000\n        /* \"#utility.yul\":15135:15136   */\n      0x00\n        /* \"#utility.yul\":15128:15216   */\n      mstore\n        /* \"#utility.yul\":15235:15239   */\n      0x11\n        /* \"#utility.yul\":15232:15233   */\n      0x04\n        /* \"#utility.yul\":15225:15240   */\n      mstore\n        /* \"#utility.yul\":15259:15263   */\n      0x24\n        /* \"#utility.yul\":15256:15257   */\n      0x00\n        /* \"#utility.yul\":15249:15264   */\n      revert\n        /* \"#utility.yul\":15276:15456   */\n    tag_85:\n        /* \"#utility.yul\":15324:15401   */\n      0x4e487b7100000000000000000000000000000000000000000000000000000000\n        /* \"#utility.yul\":15321:15322   */\n      0x00\n        /* \"#utility.yul\":15314:15402   */\n      mstore\n        /* \"#utility.yul\":15421:15425   */\n      0x21\n        /* \"#utility.yul\":15418:15419   */\n      0x04\n        /* \"#utility.yul\":15411:15426   */\n      mstore\n        /* \"#utility.yul\":15445:15449   */\n      0x24\n        /* \"#utility.yul\":15442:15443   */\n      0x00\n        /* \"#utility.yul\":15435:15450   */\n      revert\n        /* \"#utility.yul\":15462:15642   */\n    tag_344:\n        /* \"#utility.yul\":15510:15587   */\n      0x4e487b7100000000000000000000000000000000000000000000000000000000\n        /* \"#utility.yul\":15507:15508   */\n      0x00\n        /* \"#utility.yul\":15500:15588   */\n      mstore\n        /* \"#utility.yul\":15607:15611   */\n      0x22\n        /* \"#utility.yul\":15604:15605   */\n      0x04\n        /* \"#utility.yul\":15597:15612   */\n      mstore\n        /* \"#utility.yul\":15631:15635   */\n      0x24\n        /* \"#utility.yul\":15628:15629   */\n      0x00\n        /* \"#utility.yul\":15621:15636   */\n      revert\n        /* \"#utility.yul\":15648:15828   */\n    tag_69:\n        /* \"#utility.yul\":15696:15773   */\n      0x4e487b7100000000000000000000000000000000000000000000000000000000\n        /* \"#utility.yul\":15693:15694   */\n      0x00\n        /* \"#utility.yul\":15686:15774   */\n      mstore\n        /* \"#utility.yul\":15793:15797   */\n      0x32\n        /* \"#utility.yul\":15790:15791   */\n      0x04\n        /* \"#utility.yul\":15783:15798   */\n      mstore\n        /* \"#utility.yul\":15817:15821   */\n      0x24\n        /* \"#utility.yul\":15814:15815   */\n      0x00\n        /* \"#utility.yul\":15807:15822   */\n      revert\n        /* \"#utility.yul\":15834:16014   */\n    tag_303:\n        /* \"#utility.yul\":15882:15959   */\n      0x4e487b7100000000000000000000000000000000000000000000000000000000\n        /* \"#utility.yul\":15879:15880   */\n      0x00\n        /* \"#utility.yul\":15872:15960   */\n      mstore\n        /* \"#utility.yul\":15979:15983   */\n      0x41\n        /* \"#utility.yul\":15976:15977   */\n      0x04\n        /* \"#utility.yul\":15969:15984   */\n      mstore\n        /* \"#utility.yul\":16003:16007   */\n      0x24\n        /* \"#utility.yul\":16000:16001   */\n      0x00\n        /* \"#utility.yul\":15993:16008   */\n      revert\n        /* \"#utility.yul\":16020:16137   */\n    tag_172:\n        /* \"#utility.yul\":16129:16130   */\n      0x00\n        /* \"#utility.yul\":16126:16127   */\n      dup1\n        /* \"#utility.yul\":16119:16131   */\n      revert\n        /* \"#utility.yul\":16143:16260   */\n    tag_161:\n        /* \"#utility.yul\":16252:16253   */\n      0x00\n        /* \"#utility.yul\":16249:16250   */\n      dup1\n        /* \"#utility.yul\":16242:16254   */\n      revert\n        /* \"#utility.yul\":16266:16383   */\n    tag_188:\n        /* \"#utility.yul\":16375:16376   */\n      0x00\n        /* \"#utility.yul\":16372:16373   */\n      dup1\n        /* \"#utility.yul\":16365:16377   */\n      revert\n        /* \"#utility.yul\":16389:16506   */\n    tag_181:\n        /* \"#utility.yul\":16498:16499   */\n      0x00\n        /* \"#utility.yul\":16495:16496   */\n      dup1\n        /* \"#utility.yul\":16488:16500   */\n      revert\n        /* \"#utility.yul\":16512:16614   */\n    tag_229:\n        /* \"#utility.yul\":16553:16559   */\n      0x00\n        /* \"#utility.yul\":16604:16606   */\n      0x1f\n        /* \"#utility.yul\":16600:16607   */\n      not\n        /* \"#utility.yul\":16595:16597   */\n      0x1f\n        /* \"#utility.yul\":16588:16593   */\n      dup4\n        /* \"#utility.yul\":16584:16598   */\n      add\n        /* \"#utility.yul\":16580:16608   */\n      and\n        /* \"#utility.yul\":16570:16608   */\n      swap1\n      pop\n        /* \"#utility.yul\":16512:16614   */\n      swap2\n      swap1\n      pop\n      jump\t// out\n        /* \"#utility.yul\":16620:16737   */\n    tag_323:\n        /* \"#utility.yul\":16705:16706   */\n      0x03\n        /* \"#utility.yul\":16698:16703   */\n      dup2\n        /* \"#utility.yul\":16695:16707   */\n      lt\n        /* \"#utility.yul\":16685:16731   */\n      tag_364\n      jumpi\n        /* \"#utility.yul\":16711:16729   */\n      tag_365\n      tag_85\n      jump\t// in\n    tag_365:\n        /* \"#utility.yul\":16685:16731   */\n    tag_364:\n        /* \"#utility.yul\":16620:16737   */\n      pop\n      jump\t// out\n        /* \"#utility.yul\":16743:16861   */\n    tag_327:\n        /* \"#utility.yul\":16829:16830   */\n      0x07\n        /* \"#utility.yul\":16822:16827   */\n      dup2\n        /* \"#utility.yul\":16819:16831   */\n      lt\n        /* \"#utility.yul\":16809:16855   */\n      tag_367\n      jumpi\n        /* \"#utility.yul\":16835:16853   */\n      tag_368\n      tag_85\n      jump\t// in\n    tag_368:\n        /* \"#utility.yul\":16809:16855   */\n    tag_367:\n        /* \"#utility.yul\":16743:16861   */\n      pop\n      jump\t// out\n        /* \"#utility.yul\":16867:16989   */\n    tag_167:\n        /* \"#utility.yul\":16940:16964   */\n      tag_370\n        /* \"#utility.yul\":16958:16963   */\n      dup2\n        /* \"#utility.yul\":16940:16964   */\n      tag_207\n      jump\t// in\n    tag_370:\n        /* \"#utility.yul\":16933:16938   */\n      dup2\n        /* \"#utility.yul\":16930:16965   */\n      eq\n        /* \"#utility.yul\":16920:16983   */\n      tag_371\n      jumpi\n        /* \"#utility.yul\":16979:16980   */\n      0x00\n        /* \"#utility.yul\":16976:16977   */\n      dup1\n        /* \"#utility.yul\":16969:16981   */\n      revert\n        /* \"#utility.yul\":16920:16983   */\n    tag_371:\n        /* \"#utility.yul\":16867:16989   */\n      pop\n      jump\t// out\n        /* \"#utility.yul\":16995:17117   */\n    tag_177:\n        /* \"#utility.yul\":17068:17092   */\n      tag_373\n        /* \"#utility.yul\":17086:17091   */\n      dup2\n        /* \"#utility.yul\":17068:17092   */\n      tag_271\n      jump\t// in\n    tag_373:\n        /* \"#utility.yul\":17061:17066   */\n      dup2\n        /* \"#utility.yul\":17058:17093   */\n      eq\n        /* \"#utility.yul\":17048:17111   */\n      tag_374\n      jumpi\n        /* \"#utility.yul\":17107:17108   */\n      0x00\n        /* \"#utility.yul\":17104:17105   */\n      dup1\n        /* \"#utility.yul\":17097:17109   */\n      revert\n        /* \"#utility.yul\":17048:17111   */\n    tag_374:\n        /* \"#utility.yul\":16995:17117   */\n      pop\n      jump\t// out\n\n    auxdata: 0xa26469706673582212200ccb13973101e0c55d547130cade3a5ea157f0d8450e240fb5f602b81ec600e864736f6c63430008070033\n}\n",
				"bytecode": {
					"linkReferences": {},
					"object": "608060405234801561001057600080fd5b506114f6806100206000396000f3fe608060405234801561001057600080fd5b50600436106100575760003560e01c80631567697c1461005c5780631892fd781461009157806343db3e66146100c1578063cdf7e73d146100f1578063d908157714610121575b600080fd5b61007660048036038101906100719190610d33565b610151565b60405161008896959493929190611020565b60405180910390f35b6100ab60048036038101906100a69190610c32565b6103bd565b6040516100b891906110bf565b60405180910390f35b6100db60048036038101906100d69190610c32565b610662565b6040516100e89190610ffe565b60405180910390f35b61010b60048036038101906101069190610c5f565b6107d5565b604051610118919061109d565b60405180910390f35b61013b60048036038101906101369190610ca8565b610930565b6040516101489190610fe3565b60405180910390f35b6004818154811061016157600080fd5b9060005260206000209060060201600091509050806000018054610184906112ae565b80601f01602080910402602001604051908101604052809291908181526020018280546101b0906112ae565b80156101fd5780601f106101d2576101008083540402835291602001916101fd565b820191906000526020600020905b8154815290600101906020018083116101e057829003601f168201915b505050505090806001018054610212906112ae565b80601f016020809104026020016040519081016040528092919081815260200182805461023e906112ae565b801561028b5780601f106102605761010080835404028352916020019161028b565b820191906000526020600020905b81548152906001019060200180831161026e57829003601f168201915b5050505050908060020154908060030180546102a6906112ae565b80601f01602080910402602001604051908101604052809291908181526020018280546102d2906112ae565b801561031f5780601f106102f45761010080835404028352916020019161031f565b820191906000526020600020905b81548152906001019060200180831161030257829003601f168201915b505050505090806004018054610334906112ae565b80601f0160208091040260200160405190810160405280929190818152602001828054610360906112ae565b80156103ad5780601f10610382576101008083540402835291602001916103ad565b820191906000526020600020905b81548152906001019060200180831161039057829003601f168201915b5050505050908060050154905086565b6103c5610a3c565b600060018054905090506103d7610a3c565b600080600090505b83811015610656578573ffffffffffffffffffffffffffffffffffffffff16600060018381548110610414576104136113e7565b5b9060005260206000200160405161042b9190610fcc565b908152602001604051809103902060040160009054906101000a900473ffffffffffffffffffffffffffffffffffffffff1673ffffffffffffffffffffffffffffffffffffffff1614156106435760006001828154811061048f5761048e6113e7565b5b906000526020600020016040516104a69190610fcc565b90815260200160405180910390206040518060c00160405290816000820180546104cf906112ae565b80601f01602080910402602001604051908101604052809291908181526020018280546104fb906112ae565b80156105485780601f1061051d57610100808354040283529160200191610548565b820191906000526020600020905b81548152906001019060200180831161052b57829003601f168201915b505050505081526020016001820160009054906101000a900460ff16600681111561057657610575611389565b5b600681111561058857610587611389565b5b81526020016001820160019054906101000a900460ff1660028111156105b1576105b0611389565b5b60028111156105c3576105c2611389565b5b815260200160028201548152602001600382015481526020016004820160009054906101000a900473ffffffffffffffffffffffffffffffffffffffff1673ffffffffffffffffffffffffffffffffffffffff1673ffffffffffffffffffffffffffffffffffffffff168152505092506001826106409190611184565b91505b808061064e90611311565b9150506103df565b50819350505050919050565b606060006001805490509050606060005b828110156107ca578473ffffffffffffffffffffffffffffffffffffffff166000600183815481106106a8576106a76113e7565b5b906000526020600020016040516106bf9190610fcc565b908152602001604051809103902060040160009054906101000a900473ffffffffffffffffffffffffffffffffffffffff1673ffffffffffffffffffffffffffffffffffffffff1614156107b75760018181548110610721576107206113e7565b5b906000526020600020018054610736906112ae565b80601f0160208091040260200160405190810160405280929190818152602001828054610762906112ae565b80156107af5780601f10610784576101008083540402835291602001916107af565b820191906000526020600020905b81548152906001019060200180831161079257829003601f168201915b505050505091505b80806107c290611311565b915050610673565b508092505050919050565b6107dd610aac565b6002826040516107ed9190610fb5565b9081526020016040518091039020604051806060016040529081600082018054610816906112ae565b80601f0160208091040260200160405190810160405280929190818152602001828054610842906112ae565b801561088f5780601f106108645761010080835404028352916020019161088f565b820191906000526020600020905b81548152906001019060200180831161087257829003601f168201915b505050505081526020016001820160009054906101000a900473ffffffffffffffffffffffffffffffffffffffff1673ffffffffffffffffffffffffffffffffffffffff1673ffffffffffffffffffffffffffffffffffffffff1681526020016001820160149054906101000a900460ff16600281111561091357610912611389565b5b600281111561092557610924611389565b5b815250509050919050565b6000806040518060c001604052808681526020018581526020016000815260200160405180602001604052806000815250815260200161096f33610662565b8152602001848152509050600481908060018154018082558091505060019003906000526020600020906006020160009091909190915060008201518160000190805190602001906109c2929190610af5565b5060208201518160010190805190602001906109df929190610af5565b50604082015181600201556060820151816003019080519060200190610a06929190610af5565b506080820151816004019080519060200190610a23929190610af5565b5060a08201518160050155505060019150509392505050565b6040518060c001604052806060815260200160006006811115610a6257610a61611389565b5b815260200160006002811115610a7b57610a7a611389565b5b81526020016000815260200160008152602001600073ffffffffffffffffffffffffffffffffffffffff1681525090565b604051806060016040528060608152602001600073ffffffffffffffffffffffffffffffffffffffff16815260200160006002811115610aef57610aee611389565b5b81525090565b828054610b01906112ae565b90600052602060002090601f016020900481019282610b235760008555610b6a565b82601f10610b3c57805160ff1916838001178555610b6a565b82800160010185558215610b6a579182015b82811115610b69578251825591602001919060010190610b4e565b5b509050610b779190610b7b565b5090565b5b80821115610b94576000816000905550600101610b7c565b5090565b6000610bab610ba684611106565b6110e1565b905082815260208101848484011115610bc757610bc661144a565b5b610bd284828561126c565b509392505050565b600081359050610be981611492565b92915050565b600082601f830112610c0457610c03611445565b5b8135610c14848260208601610b98565b91505092915050565b600081359050610c2c816114a9565b92915050565b600060208284031215610c4857610c47611454565b5b6000610c5684828501610bda565b91505092915050565b600060208284031215610c7557610c74611454565b5b600082013567ffffffffffffffff811115610c9357610c9261144f565b5b610c9f84828501610bef565b91505092915050565b600080600060608486031215610cc157610cc0611454565b5b600084013567ffffffffffffffff811115610cdf57610cde61144f565b5b610ceb86828701610bef565b935050602084013567ffffffffffffffff811115610d0c57610d0b61144f565b5b610d1886828701610bef565b9250506040610d2986828701610c1d565b9150509250925092565b600060208284031215610d4957610d48611454565b5b6000610d5784828501610c1d565b91505092915050565b610d69816111da565b82525050565b610d78816111ec565b82525050565b610d8781611248565b82525050565b610d968161125a565b82525050565b6000610da78261114c565b610db18185611157565b9350610dc181856020860161127b565b610dca81611459565b840191505092915050565b6000610de08261114c565b610dea8185611168565b9350610dfa81856020860161127b565b610e0381611459565b840191505092915050565b6000610e198261114c565b610e238185611179565b9350610e3381856020860161127b565b80840191505092915050565b60008154610e4c816112ae565b610e568186611179565b94506001821660008114610e715760018114610e8257610eb5565b60ff19831686528186019350610eb5565b610e8b85611137565b60005b83811015610ead57815481890152600182019150602081019050610e8e565b838801955050505b50505092915050565b60006060830160008301518482036000860152610edb8282610d9c565b9150506020830151610ef06020860182610d60565b506040830151610f036040860182610d7e565b508091505092915050565b600060c0830160008301518482036000860152610f2b8282610d9c565b9150506020830151610f406020860182610d8d565b506040830151610f536040860182610d7e565b506060830151610f666060860182610f97565b506080830151610f796080860182610f97565b5060a0830151610f8c60a0860182610d60565b508091505092915050565b610fa08161123e565b82525050565b610faf8161123e565b82525050565b6000610fc18284610e0e565b915081905092915050565b6000610fd88284610e3f565b915081905092915050565b6000602082019050610ff86000830184610d6f565b92915050565b600060208201905081810360008301526110188184610dd5565b905092915050565b600060c082019050818103600083015261103a8189610dd5565b9050818103602083015261104e8188610dd5565b905061105d6040830187610fa6565b818103606083015261106f8186610dd5565b905081810360808301526110838185610dd5565b905061109260a0830184610fa6565b979650505050505050565b600060208201905081810360008301526110b78184610ebe565b905092915050565b600060208201905081810360008301526110d98184610f0e565b905092915050565b60006110eb6110fc565b90506110f782826112e0565b919050565b6000604051905090565b600067ffffffffffffffff82111561112157611120611416565b5b61112a82611459565b9050602081019050919050565b60008190508160005260206000209050919050565b600081519050919050565b600082825260208201905092915050565b600082825260208201905092915050565b600081905092915050565b600061118f8261123e565b915061119a8361123e565b9250827fffffffffffffffffffffffffffffffffffffffffffffffffffffffffffffffff038211156111cf576111ce61135a565b5b828201905092915050565b60006111e58261121e565b9050919050565b60008115159050919050565b60008190506112068261146a565b919050565b60008190506112198261147e565b919050565b600073ffffffffffffffffffffffffffffffffffffffff82169050919050565b6000819050919050565b6000611253826111f8565b9050919050565b60006112658261120b565b9050919050565b82818337600083830152505050565b60005b8381101561129957808201518184015260208101905061127e565b838111156112a8576000848401525b50505050565b600060028204905060018216806112c657607f821691505b602082108114156112da576112d96113b8565b5b50919050565b6112e982611459565b810181811067ffffffffffffffff8211171561130857611307611416565b5b80604052505050565b600061131c8261123e565b91507fffffffffffffffffffffffffffffffffffffffffffffffffffffffffffffffff82141561134f5761134e61135a565b5b600182019050919050565b7f4e487b7100000000000000000000000000000000000000000000000000000000600052601160045260246000fd5b7f4e487b7100000000000000000000000000000000000000000000000000000000600052602160045260246000fd5b7f4e487b7100000000000000000000000000000000000000000000000000000000600052602260045260246000fd5b7f4e487b7100000000000000000000000000000000000000000000000000000000600052603260045260246000fd5b7f4e487b7100000000000000000000000000000000000000000000000000000000600052604160045260246000fd5b600080fd5b600080fd5b600080fd5b600080fd5b6000601f19601f8301169050919050565b6003811061147b5761147a611389565b5b50565b6007811061148f5761148e611389565b5b50565b61149b816111da565b81146114a657600080fd5b50565b6114b28161123e565b81146114bd57600080fd5b5056fea26469706673582212200ccb13973101e0c55d547130cade3a5ea157f0d8450e240fb5f602b81ec600e864736f6c63430008070033",
					"opcodes": "PUSH1 0x80 PUSH1 0x40 MSTORE CALLVALUE DUP1 ISZERO PUSH2 0x10 JUMPI PUSH1 0x0 DUP1 REVERT JUMPDEST POP PUSH2 0x14F6 DUP1 PUSH2 0x20 PUSH1 0x0 CODECOPY PUSH1 0x0 RETURN INVALID PUSH1 0x80 PUSH1 0x40 MSTORE CALLVALUE DUP1 ISZERO PUSH2 0x10 JUMPI PUSH1 0x0 DUP1 REVERT JUMPDEST POP PUSH1 0x4 CALLDATASIZE LT PUSH2 0x57 JUMPI PUSH1 0x0 CALLDATALOAD PUSH1 0xE0 SHR DUP1 PUSH4 0x1567697C EQ PUSH2 0x5C JUMPI DUP1 PUSH4 0x1892FD78 EQ PUSH2 0x91 JUMPI DUP1 PUSH4 0x43DB3E66 EQ PUSH2 0xC1 JUMPI DUP1 PUSH4 0xCDF7E73D EQ PUSH2 0xF1 JUMPI DUP1 PUSH4 0xD9081577 EQ PUSH2 0x121 JUMPI JUMPDEST PUSH1 0x0 DUP1 REVERT JUMPDEST PUSH2 0x76 PUSH1 0x4 DUP1 CALLDATASIZE SUB DUP2 ADD SWAP1 PUSH2 0x71 SWAP2 SWAP1 PUSH2 0xD33 JUMP JUMPDEST PUSH2 0x151 JUMP JUMPDEST PUSH1 0x40 MLOAD PUSH2 0x88 SWAP7 SWAP6 SWAP5 SWAP4 SWAP3 SWAP2 SWAP1 PUSH2 0x1020 JUMP JUMPDEST PUSH1 0x40 MLOAD DUP1 SWAP2 SUB SWAP1 RETURN JUMPDEST PUSH2 0xAB PUSH1 0x4 DUP1 CALLDATASIZE SUB DUP2 ADD SWAP1 PUSH2 0xA6 SWAP2 SWAP1 PUSH2 0xC32 JUMP JUMPDEST PUSH2 0x3BD JUMP JUMPDEST PUSH1 0x40 MLOAD PUSH2 0xB8 SWAP2 SWAP1 PUSH2 0x10BF JUMP JUMPDEST PUSH1 0x40 MLOAD DUP1 SWAP2 SUB SWAP1 RETURN JUMPDEST PUSH2 0xDB PUSH1 0x4 DUP1 CALLDATASIZE SUB DUP2 ADD SWAP1 PUSH2 0xD6 SWAP2 SWAP1 PUSH2 0xC32 JUMP JUMPDEST PUSH2 0x662 JUMP JUMPDEST PUSH1 0x40 MLOAD PUSH2 0xE8 SWAP2 SWAP1 PUSH2 0xFFE JUMP JUMPDEST PUSH1 0x40 MLOAD DUP1 SWAP2 SUB SWAP1 RETURN JUMPDEST PUSH2 0x10B PUSH1 0x4 DUP1 CALLDATASIZE SUB DUP2 ADD SWAP1 PUSH2 0x106 SWAP2 SWAP1 PUSH2 0xC5F JUMP JUMPDEST PUSH2 0x7D5 JUMP JUMPDEST PUSH1 0x40 MLOAD PUSH2 0x118 SWAP2 SWAP1 PUSH2 0x109D JUMP JUMPDEST PUSH1 0x40 MLOAD DUP1 SWAP2 SUB SWAP1 RETURN JUMPDEST PUSH2 0x13B PUSH1 0x4 DUP1 CALLDATASIZE SUB DUP2 ADD SWAP1 PUSH2 0x136 SWAP2 SWAP1 PUSH2 0xCA8 JUMP JUMPDEST PUSH2 0x930 JUMP JUMPDEST PUSH1 0x40 MLOAD PUSH2 0x148 SWAP2 SWAP1 PUSH2 0xFE3 JUMP JUMPDEST PUSH1 0x40 MLOAD DUP1 SWAP2 SUB SWAP1 RETURN JUMPDEST PUSH1 0x4 DUP2 DUP2 SLOAD DUP2 LT PUSH2 0x161 JUMPI PUSH1 0x0 DUP1 REVERT JUMPDEST SWAP1 PUSH1 0x0 MSTORE PUSH1 0x20 PUSH1 0x0 KECCAK256 SWAP1 PUSH1 0x6 MUL ADD PUSH1 0x0 SWAP2 POP SWAP1 POP DUP1 PUSH1 0x0 ADD DUP1 SLOAD PUSH2 0x184 SWAP1 PUSH2 0x12AE JUMP JUMPDEST DUP1 PUSH1 0x1F ADD PUSH1 0x20 DUP1 SWAP2 DIV MUL PUSH1 0x20 ADD PUSH1 0x40 MLOAD SWAP1 DUP2 ADD PUSH1 0x40 MSTORE DUP1 SWAP3 SWAP2 SWAP1 DUP2 DUP2 MSTORE PUSH1 0x20 ADD DUP3 DUP1 SLOAD PUSH2 0x1B0 SWAP1 PUSH2 0x12AE JUMP JUMPDEST DUP1 ISZERO PUSH2 0x1FD JUMPI DUP1 PUSH1 0x1F LT PUSH2 0x1D2 JUMPI PUSH2 0x100 DUP1 DUP4 SLOAD DIV MUL DUP4 MSTORE SWAP2 PUSH1 0x20 ADD SWAP2 PUSH2 0x1FD JUMP JUMPDEST DUP3 ADD SWAP2 SWAP1 PUSH1 0x0 MSTORE PUSH1 0x20 PUSH1 0x0 KECCAK256 SWAP1 JUMPDEST DUP2 SLOAD DUP2 MSTORE SWAP1 PUSH1 0x1 ADD SWAP1 PUSH1 0x20 ADD DUP1 DUP4 GT PUSH2 0x1E0 JUMPI DUP3 SWAP1 SUB PUSH1 0x1F AND DUP3 ADD SWAP2 JUMPDEST POP POP POP POP POP SWAP1 DUP1 PUSH1 0x1 ADD DUP1 SLOAD PUSH2 0x212 SWAP1 PUSH2 0x12AE JUMP JUMPDEST DUP1 PUSH1 0x1F ADD PUSH1 0x20 DUP1 SWAP2 DIV MUL PUSH1 0x20 ADD PUSH1 0x40 MLOAD SWAP1 DUP2 ADD PUSH1 0x40 MSTORE DUP1 SWAP3 SWAP2 SWAP1 DUP2 DUP2 MSTORE PUSH1 0x20 ADD DUP3 DUP1 SLOAD PUSH2 0x23E SWAP1 PUSH2 0x12AE JUMP JUMPDEST DUP1 ISZERO PUSH2 0x28B JUMPI DUP1 PUSH1 0x1F LT PUSH2 0x260 JUMPI PUSH2 0x100 DUP1 DUP4 SLOAD DIV MUL DUP4 MSTORE SWAP2 PUSH1 0x20 ADD SWAP2 PUSH2 0x28B JUMP JUMPDEST DUP3 ADD SWAP2 SWAP1 PUSH1 0x0 MSTORE PUSH1 0x20 PUSH1 0x0 KECCAK256 SWAP1 JUMPDEST DUP2 SLOAD DUP2 MSTORE SWAP1 PUSH1 0x1 ADD SWAP1 PUSH1 0x20 ADD DUP1 DUP4 GT PUSH2 0x26E JUMPI DUP3 SWAP1 SUB PUSH1 0x1F AND DUP3 ADD SWAP2 JUMPDEST POP POP POP POP POP SWAP1 DUP1 PUSH1 0x2 ADD SLOAD SWAP1 DUP1 PUSH1 0x3 ADD DUP1 SLOAD PUSH2 0x2A6 SWAP1 PUSH2 0x12AE JUMP JUMPDEST DUP1 PUSH1 0x1F ADD PUSH1 0x20 DUP1 SWAP2 DIV MUL PUSH1 0x20 ADD PUSH1 0x40 MLOAD SWAP1 DUP2 ADD PUSH1 0x40 MSTORE DUP1 SWAP3 SWAP2 SWAP1 DUP2 DUP2 MSTORE PUSH1 0x20 ADD DUP3 DUP1 SLOAD PUSH2 0x2D2 SWAP1 PUSH2 0x12AE JUMP JUMPDEST DUP1 ISZERO PUSH2 0x31F JUMPI DUP1 PUSH1 0x1F LT PUSH2 0x2F4 JUMPI PUSH2 0x100 DUP1 DUP4 SLOAD DIV MUL DUP4 MSTORE SWAP2 PUSH1 0x20 ADD SWAP2 PUSH2 0x31F JUMP JUMPDEST DUP3 ADD SWAP2 SWAP1 PUSH1 0x0 MSTORE PUSH1 0x20 PUSH1 0x0 KECCAK256 SWAP1 JUMPDEST DUP2 SLOAD DUP2 MSTORE SWAP1 PUSH1 0x1 ADD SWAP1 PUSH1 0x20 ADD DUP1 DUP4 GT PUSH2 0x302 JUMPI DUP3 SWAP1 SUB PUSH1 0x1F AND DUP3 ADD SWAP2 JUMPDEST POP POP POP POP POP SWAP1 DUP1 PUSH1 0x4 ADD DUP1 SLOAD PUSH2 0x334 SWAP1 PUSH2 0x12AE JUMP JUMPDEST DUP1 PUSH1 0x1F ADD PUSH1 0x20 DUP1 SWAP2 DIV MUL PUSH1 0x20 ADD PUSH1 0x40 MLOAD SWAP1 DUP2 ADD PUSH1 0x40 MSTORE DUP1 SWAP3 SWAP2 SWAP1 DUP2 DUP2 MSTORE PUSH1 0x20 ADD DUP3 DUP1 SLOAD PUSH2 0x360 SWAP1 PUSH2 0x12AE JUMP JUMPDEST DUP1 ISZERO PUSH2 0x3AD JUMPI DUP1 PUSH1 0x1F LT PUSH2 0x382 JUMPI PUSH2 0x100 DUP1 DUP4 SLOAD DIV MUL DUP4 MSTORE SWAP2 PUSH1 0x20 ADD SWAP2 PUSH2 0x3AD JUMP JUMPDEST DUP3 ADD SWAP2 SWAP1 PUSH1 0x0 MSTORE PUSH1 0x20 PUSH1 0x0 KECCAK256 SWAP1 JUMPDEST DUP2 SLOAD DUP2 MSTORE SWAP1 PUSH1 0x1 ADD SWAP1 PUSH1 0x20 ADD DUP1 DUP4 GT PUSH2 0x390 JUMPI DUP3 SWAP1 SUB PUSH1 0x1F AND DUP3 ADD SWAP2 JUMPDEST POP POP POP POP POP SWAP1 DUP1 PUSH1 0x5 ADD SLOAD SWAP1 POP DUP7 JUMP JUMPDEST PUSH2 0x3C5 PUSH2 0xA3C JUMP JUMPDEST PUSH1 0x0 PUSH1 0x1 DUP1 SLOAD SWAP1 POP SWAP1 POP PUSH2 0x3D7 PUSH2 0xA3C JUMP JUMPDEST PUSH1 0x0 DUP1 PUSH1 0x0 SWAP1 POP JUMPDEST DUP4 DUP2 LT ISZERO PUSH2 0x656 JUMPI DUP6 PUSH20 0xFFFFFFFFFFFFFFFFFFFFFFFFFFFFFFFFFFFFFFFF AND PUSH1 0x0 PUSH1 0x1 DUP4 DUP2 SLOAD DUP2 LT PUSH2 0x414 JUMPI PUSH2 0x413 PUSH2 0x13E7 JUMP JUMPDEST JUMPDEST SWAP1 PUSH1 0x0 MSTORE PUSH1 0x20 PUSH1 0x0 KECCAK256 ADD PUSH1 0x40 MLOAD PUSH2 0x42B SWAP2 SWAP1 PUSH2 0xFCC JUMP JUMPDEST SWAP1 DUP2 MSTORE PUSH1 0x20 ADD PUSH1 0x40 MLOAD DUP1 SWAP2 SUB SWAP1 KECCAK256 PUSH1 0x4 ADD PUSH1 0x0 SWAP1 SLOAD SWAP1 PUSH2 0x100 EXP SWAP1 DIV PUSH20 0xFFFFFFFFFFFFFFFFFFFFFFFFFFFFFFFFFFFFFFFF AND PUSH20 0xFFFFFFFFFFFFFFFFFFFFFFFFFFFFFFFFFFFFFFFF AND EQ ISZERO PUSH2 0x643 JUMPI PUSH1 0x0 PUSH1 0x1 DUP3 DUP2 SLOAD DUP2 LT PUSH2 0x48F JUMPI PUSH2 0x48E PUSH2 0x13E7 JUMP JUMPDEST JUMPDEST SWAP1 PUSH1 0x0 MSTORE PUSH1 0x20 PUSH1 0x0 KECCAK256 ADD PUSH1 0x40 MLOAD PUSH2 0x4A6 SWAP2 SWAP1 PUSH2 0xFCC JUMP JUMPDEST SWAP1 DUP2 MSTORE PUSH1 0x20 ADD PUSH1 0x40 MLOAD DUP1 SWAP2 SUB SWAP1 KECCAK256 PUSH1 0x40 MLOAD DUP1 PUSH1 0xC0 ADD PUSH1 0x40 MSTORE SWAP1 DUP2 PUSH1 0x0 DUP3 ADD DUP1 SLOAD PUSH2 0x4CF SWAP1 PUSH2 0x12AE JUMP JUMPDEST DUP1 PUSH1 0x1F ADD PUSH1 0x20 DUP1 SWAP2 DIV MUL PUSH1 0x20 ADD PUSH1 0x40 MLOAD SWAP1 DUP2 ADD PUSH1 0x40 MSTORE DUP1 SWAP3 SWAP2 SWAP1 DUP2 DUP2 MSTORE PUSH1 0x20 ADD DUP3 DUP1 SLOAD PUSH2 0x4FB SWAP1 PUSH2 0x12AE JUMP JUMPDEST DUP1 ISZERO PUSH2 0x548 JUMPI DUP1 PUSH1 0x1F LT PUSH2 0x51D JUMPI PUSH2 0x100 DUP1 DUP4 SLOAD DIV MUL DUP4 MSTORE SWAP2 PUSH1 0x20 ADD SWAP2 PUSH2 0x548 JUMP JUMPDEST DUP3 ADD SWAP2 SWAP1 PUSH1 0x0 MSTORE PUSH1 0x20 PUSH1 0x0 KECCAK256 SWAP1 JUMPDEST DUP2 SLOAD DUP2 MSTORE SWAP1 PUSH1 0x1 ADD SWAP1 PUSH1 0x20 ADD DUP1 DUP4 GT PUSH2 0x52B JUMPI DUP3 SWAP1 SUB PUSH1 0x1F AND DUP3 ADD SWAP2 JUMPDEST POP POP POP POP POP DUP2 MSTORE PUSH1 0x20 ADD PUSH1 0x1 DUP3 ADD PUSH1 0x0 SWAP1 SLOAD SWAP1 PUSH2 0x100 EXP SWAP1 DIV PUSH1 0xFF AND PUSH1 0x6 DUP2 GT ISZERO PUSH2 0x576 JUMPI PUSH2 0x575 PUSH2 0x1389 JUMP JUMPDEST JUMPDEST PUSH1 0x6 DUP2 GT ISZERO PUSH2 0x588 JUMPI PUSH2 0x587 PUSH2 0x1389 JUMP JUMPDEST JUMPDEST DUP2 MSTORE PUSH1 0x20 ADD PUSH1 0x1 DUP3 ADD PUSH1 0x1 SWAP1 SLOAD SWAP1 PUSH2 0x100 EXP SWAP1 DIV PUSH1 0xFF AND PUSH1 0x2 DUP2 GT ISZERO PUSH2 0x5B1 JUMPI PUSH2 0x5B0 PUSH2 0x1389 JUMP JUMPDEST JUMPDEST PUSH1 0x2 DUP2 GT ISZERO PUSH2 0x5C3 JUMPI PUSH2 0x5C2 PUSH2 0x1389 JUMP JUMPDEST JUMPDEST DUP2 MSTORE PUSH1 0x20 ADD PUSH1 0x2 DUP3 ADD SLOAD DUP2 MSTORE PUSH1 0x20 ADD PUSH1 0x3 DUP3 ADD SLOAD DUP2 MSTORE PUSH1 0x20 ADD PUSH1 0x4 DUP3 ADD PUSH1 0x0 SWAP1 SLOAD SWAP1 PUSH2 0x100 EXP SWAP1 DIV PUSH20 0xFFFFFFFFFFFFFFFFFFFFFFFFFFFFFFFFFFFFFFFF AND PUSH20 0xFFFFFFFFFFFFFFFFFFFFFFFFFFFFFFFFFFFFFFFF AND PUSH20 0xFFFFFFFFFFFFFFFFFFFFFFFFFFFFFFFFFFFFFFFF AND DUP2 MSTORE POP POP SWAP3 POP PUSH1 0x1 DUP3 PUSH2 0x640 SWAP2 SWAP1 PUSH2 0x1184 JUMP JUMPDEST SWAP2 POP JUMPDEST DUP1 DUP1 PUSH2 0x64E SWAP1 PUSH2 0x1311 JUMP JUMPDEST SWAP2 POP POP PUSH2 0x3DF JUMP JUMPDEST POP DUP2 SWAP4 POP POP POP POP SWAP2 SWAP1 POP JUMP JUMPDEST PUSH1 0x60 PUSH1 0x0 PUSH1 0x1 DUP1 SLOAD SWAP1 POP SWAP1 POP PUSH1 0x60 PUSH1 0x0 JUMPDEST DUP3 DUP2 LT ISZERO PUSH2 0x7CA JUMPI DUP5 PUSH20 0xFFFFFFFFFFFFFFFFFFFFFFFFFFFFFFFFFFFFFFFF AND PUSH1 0x0 PUSH1 0x1 DUP4 DUP2 SLOAD DUP2 LT PUSH2 0x6A8 JUMPI PUSH2 0x6A7 PUSH2 0x13E7 JUMP JUMPDEST JUMPDEST SWAP1 PUSH1 0x0 MSTORE PUSH1 0x20 PUSH1 0x0 KECCAK256 ADD PUSH1 0x40 MLOAD PUSH2 0x6BF SWAP2 SWAP1 PUSH2 0xFCC JUMP JUMPDEST SWAP1 DUP2 MSTORE PUSH1 0x20 ADD PUSH1 0x40 MLOAD DUP1 SWAP2 SUB SWAP1 KECCAK256 PUSH1 0x4 ADD PUSH1 0x0 SWAP1 SLOAD SWAP1 PUSH2 0x100 EXP SWAP1 DIV PUSH20 0xFFFFFFFFFFFFFFFFFFFFFFFFFFFFFFFFFFFFFFFF AND PUSH20 0xFFFFFFFFFFFFFFFFFFFFFFFFFFFFFFFFFFFFFFFF AND EQ ISZERO PUSH2 0x7B7 JUMPI PUSH1 0x1 DUP2 DUP2 SLOAD DUP2 LT PUSH2 0x721 JUMPI PUSH2 0x720 PUSH2 0x13E7 JUMP JUMPDEST JUMPDEST SWAP1 PUSH1 0x0 MSTORE PUSH1 0x20 PUSH1 0x0 KECCAK256 ADD DUP1 SLOAD PUSH2 0x736 SWAP1 PUSH2 0x12AE JUMP JUMPDEST DUP1 PUSH1 0x1F ADD PUSH1 0x20 DUP1 SWAP2 DIV MUL PUSH1 0x20 ADD PUSH1 0x40 MLOAD SWAP1 DUP2 ADD PUSH1 0x40 MSTORE DUP1 SWAP3 SWAP2 SWAP1 DUP2 DUP2 MSTORE PUSH1 0x20 ADD DUP3 DUP1 SLOAD PUSH2 0x762 SWAP1 PUSH2 0x12AE JUMP JUMPDEST DUP1 ISZERO PUSH2 0x7AF JUMPI DUP1 PUSH1 0x1F LT PUSH2 0x784 JUMPI PUSH2 0x100 DUP1 DUP4 SLOAD DIV MUL DUP4 MSTORE SWAP2 PUSH1 0x20 ADD SWAP2 PUSH2 0x7AF JUMP JUMPDEST DUP3 ADD SWAP2 SWAP1 PUSH1 0x0 MSTORE PUSH1 0x20 PUSH1 0x0 KECCAK256 SWAP1 JUMPDEST DUP2 SLOAD DUP2 MSTORE SWAP1 PUSH1 0x1 ADD SWAP1 PUSH1 0x20 ADD DUP1 DUP4 GT PUSH2 0x792 JUMPI DUP3 SWAP1 SUB PUSH1 0x1F AND DUP3 ADD SWAP2 JUMPDEST POP POP POP POP POP SWAP2 POP JUMPDEST DUP1 DUP1 PUSH2 0x7C2 SWAP1 PUSH2 0x1311 JUMP JUMPDEST SWAP2 POP POP PUSH2 0x673 JUMP JUMPDEST POP DUP1 SWAP3 POP POP POP SWAP2 SWAP1 POP JUMP JUMPDEST PUSH2 0x7DD PUSH2 0xAAC JUMP JUMPDEST PUSH1 0x2 DUP3 PUSH1 0x40 MLOAD PUSH2 0x7ED SWAP2 SWAP1 PUSH2 0xFB5 JUMP JUMPDEST SWAP1 DUP2 MSTORE PUSH1 0x20 ADD PUSH1 0x40 MLOAD DUP1 SWAP2 SUB SWAP1 KECCAK256 PUSH1 0x40 MLOAD DUP1 PUSH1 0x60 ADD PUSH1 0x40 MSTORE SWAP1 DUP2 PUSH1 0x0 DUP3 ADD DUP1 SLOAD PUSH2 0x816 SWAP1 PUSH2 0x12AE JUMP JUMPDEST DUP1 PUSH1 0x1F ADD PUSH1 0x20 DUP1 SWAP2 DIV MUL PUSH1 0x20 ADD PUSH1 0x40 MLOAD SWAP1 DUP2 ADD PUSH1 0x40 MSTORE DUP1 SWAP3 SWAP2 SWAP1 DUP2 DUP2 MSTORE PUSH1 0x20 ADD DUP3 DUP1 SLOAD PUSH2 0x842 SWAP1 PUSH2 0x12AE JUMP JUMPDEST DUP1 ISZERO PUSH2 0x88F JUMPI DUP1 PUSH1 0x1F LT PUSH2 0x864 JUMPI PUSH2 0x100 DUP1 DUP4 SLOAD DIV MUL DUP4 MSTORE SWAP2 PUSH1 0x20 ADD SWAP2 PUSH2 0x88F JUMP JUMPDEST DUP3 ADD SWAP2 SWAP1 PUSH1 0x0 MSTORE PUSH1 0x20 PUSH1 0x0 KECCAK256 SWAP1 JUMPDEST DUP2 SLOAD DUP2 MSTORE SWAP1 PUSH1 0x1 ADD SWAP1 PUSH1 0x20 ADD DUP1 DUP4 GT PUSH2 0x872 JUMPI DUP3 SWAP1 SUB PUSH1 0x1F AND DUP3 ADD SWAP2 JUMPDEST POP POP POP POP POP DUP2 MSTORE PUSH1 0x20 ADD PUSH1 0x1 DUP3 ADD PUSH1 0x0 SWAP1 SLOAD SWAP1 PUSH2 0x100 EXP SWAP1 DIV PUSH20 0xFFFFFFFFFFFFFFFFFFFFFFFFFFFFFFFFFFFFFFFF AND PUSH20 0xFFFFFFFFFFFFFFFFFFFFFFFFFFFFFFFFFFFFFFFF AND PUSH20 0xFFFFFFFFFFFFFFFFFFFFFFFFFFFFFFFFFFFFFFFF AND DUP2 MSTORE PUSH1 0x20 ADD PUSH1 0x1 DUP3 ADD PUSH1 0x14 SWAP1 SLOAD SWAP1 PUSH2 0x100 EXP SWAP1 DIV PUSH1 0xFF AND PUSH1 0x2 DUP2 GT ISZERO PUSH2 0x913 JUMPI PUSH2 0x912 PUSH2 0x1389 JUMP JUMPDEST JUMPDEST PUSH1 0x2 DUP2 GT ISZERO PUSH2 0x925 JUMPI PUSH2 0x924 PUSH2 0x1389 JUMP JUMPDEST JUMPDEST DUP2 MSTORE POP POP SWAP1 POP SWAP2 SWAP1 POP JUMP JUMPDEST PUSH1 0x0 DUP1 PUSH1 0x40 MLOAD DUP1 PUSH1 0xC0 ADD PUSH1 0x40 MSTORE DUP1 DUP7 DUP2 MSTORE PUSH1 0x20 ADD DUP6 DUP2 MSTORE PUSH1 0x20 ADD PUSH1 0x0 DUP2 MSTORE PUSH1 0x20 ADD PUSH1 0x40 MLOAD DUP1 PUSH1 0x20 ADD PUSH1 0x40 MSTORE DUP1 PUSH1 0x0 DUP2 MSTORE POP DUP2 MSTORE PUSH1 0x20 ADD PUSH2 0x96F CALLER PUSH2 0x662 JUMP JUMPDEST DUP2 MSTORE PUSH1 0x20 ADD DUP5 DUP2 MSTORE POP SWAP1 POP PUSH1 0x4 DUP2 SWAP1 DUP1 PUSH1 0x1 DUP2 SLOAD ADD DUP1 DUP3 SSTORE DUP1 SWAP2 POP POP PUSH1 0x1 SWAP1 SUB SWAP1 PUSH1 0x0 MSTORE PUSH1 0x20 PUSH1 0x0 KECCAK256 SWAP1 PUSH1 0x6 MUL ADD PUSH1 0x0 SWAP1 SWAP2 SWAP1 SWAP2 SWAP1 SWAP2 POP PUSH1 0x0 DUP3 ADD MLOAD DUP2 PUSH1 0x0 ADD SWAP1 DUP1 MLOAD SWAP1 PUSH1 0x20 ADD SWAP1 PUSH2 0x9C2 SWAP3 SWAP2 SWAP1 PUSH2 0xAF5 JUMP JUMPDEST POP PUSH1 0x20 DUP3 ADD MLOAD DUP2 PUSH1 0x1 ADD SWAP1 DUP1 MLOAD SWAP1 PUSH1 0x20 ADD SWAP1 PUSH2 0x9DF SWAP3 SWAP2 SWAP1 PUSH2 0xAF5 JUMP JUMPDEST POP PUSH1 0x40 DUP3 ADD MLOAD DUP2 PUSH1 0x2 ADD SSTORE PUSH1 0x60 DUP3 ADD MLOAD DUP2 PUSH1 0x3 ADD SWAP1 DUP1 MLOAD SWAP1 PUSH1 0x20 ADD SWAP1 PUSH2 0xA06 SWAP3 SWAP2 SWAP1 PUSH2 0xAF5 JUMP JUMPDEST POP PUSH1 0x80 DUP3 ADD MLOAD DUP2 PUSH1 0x4 ADD SWAP1 DUP1 MLOAD SWAP1 PUSH1 0x20 ADD SWAP1 PUSH2 0xA23 SWAP3 SWAP2 SWAP1 PUSH2 0xAF5 JUMP JUMPDEST POP PUSH1 0xA0 DUP3 ADD MLOAD DUP2 PUSH1 0x5 ADD SSTORE POP POP PUSH1 0x1 SWAP2 POP POP SWAP4 SWAP3 POP POP POP JUMP JUMPDEST PUSH1 0x40 MLOAD DUP1 PUSH1 0xC0 ADD PUSH1 0x40 MSTORE DUP1 PUSH1 0x60 DUP2 MSTORE PUSH1 0x20 ADD PUSH1 0x0 PUSH1 0x6 DUP2 GT ISZERO PUSH2 0xA62 JUMPI PUSH2 0xA61 PUSH2 0x1389 JUMP JUMPDEST JUMPDEST DUP2 MSTORE PUSH1 0x20 ADD PUSH1 0x0 PUSH1 0x2 DUP2 GT ISZERO PUSH2 0xA7B JUMPI PUSH2 0xA7A PUSH2 0x1389 JUMP JUMPDEST JUMPDEST DUP2 MSTORE PUSH1 0x20 ADD PUSH1 0x0 DUP2 MSTORE PUSH1 0x20 ADD PUSH1 0x0 DUP2 MSTORE PUSH1 0x20 ADD PUSH1 0x0 PUSH20 0xFFFFFFFFFFFFFFFFFFFFFFFFFFFFFFFFFFFFFFFF AND DUP2 MSTORE POP SWAP1 JUMP JUMPDEST PUSH1 0x40 MLOAD DUP1 PUSH1 0x60 ADD PUSH1 0x40 MSTORE DUP1 PUSH1 0x60 DUP2 MSTORE PUSH1 0x20 ADD PUSH1 0x0 PUSH20 0xFFFFFFFFFFFFFFFFFFFFFFFFFFFFFFFFFFFFFFFF AND DUP2 MSTORE PUSH1 0x20 ADD PUSH1 0x0 PUSH1 0x2 DUP2 GT ISZERO PUSH2 0xAEF JUMPI PUSH2 0xAEE PUSH2 0x1389 JUMP JUMPDEST JUMPDEST DUP2 MSTORE POP SWAP1 JUMP JUMPDEST DUP3 DUP1 SLOAD PUSH2 0xB01 SWAP1 PUSH2 0x12AE JUMP JUMPDEST SWAP1 PUSH1 0x0 MSTORE PUSH1 0x20 PUSH1 0x0 KECCAK256 SWAP1 PUSH1 0x1F ADD PUSH1 0x20 SWAP1 DIV DUP2 ADD SWAP3 DUP3 PUSH2 0xB23 JUMPI PUSH1 0x0 DUP6 SSTORE PUSH2 0xB6A JUMP JUMPDEST DUP3 PUSH1 0x1F LT PUSH2 0xB3C JUMPI DUP1 MLOAD PUSH1 0xFF NOT AND DUP4 DUP1 ADD OR DUP6 SSTORE PUSH2 0xB6A JUMP JUMPDEST DUP3 DUP1 ADD PUSH1 0x1 ADD DUP6 SSTORE DUP3 ISZERO PUSH2 0xB6A JUMPI SWAP2 DUP3 ADD JUMPDEST DUP3 DUP2 GT ISZERO PUSH2 0xB69 JUMPI DUP3 MLOAD DUP3 SSTORE SWAP2 PUSH1 0x20 ADD SWAP2 SWAP1 PUSH1 0x1 ADD SWAP1 PUSH2 0xB4E JUMP JUMPDEST JUMPDEST POP SWAP1 POP PUSH2 0xB77 SWAP2 SWAP1 PUSH2 0xB7B JUMP JUMPDEST POP SWAP1 JUMP JUMPDEST JUMPDEST DUP1 DUP3 GT ISZERO PUSH2 0xB94 JUMPI PUSH1 0x0 DUP2 PUSH1 0x0 SWAP1 SSTORE POP PUSH1 0x1 ADD PUSH2 0xB7C JUMP JUMPDEST POP SWAP1 JUMP JUMPDEST PUSH1 0x0 PUSH2 0xBAB PUSH2 0xBA6 DUP5 PUSH2 0x1106 JUMP JUMPDEST PUSH2 0x10E1 JUMP JUMPDEST SWAP1 POP DUP3 DUP2 MSTORE PUSH1 0x20 DUP2 ADD DUP5 DUP5 DUP5 ADD GT ISZERO PUSH2 0xBC7 JUMPI PUSH2 0xBC6 PUSH2 0x144A JUMP JUMPDEST JUMPDEST PUSH2 0xBD2 DUP5 DUP3 DUP6 PUSH2 0x126C JUMP JUMPDEST POP SWAP4 SWAP3 POP POP POP JUMP JUMPDEST PUSH1 0x0 DUP2 CALLDATALOAD SWAP1 POP PUSH2 0xBE9 DUP2 PUSH2 0x1492 JUMP JUMPDEST SWAP3 SWAP2 POP POP JUMP JUMPDEST PUSH1 0x0 DUP3 PUSH1 0x1F DUP4 ADD SLT PUSH2 0xC04 JUMPI PUSH2 0xC03 PUSH2 0x1445 JUMP JUMPDEST JUMPDEST DUP2 CALLDATALOAD PUSH2 0xC14 DUP5 DUP3 PUSH1 0x20 DUP7 ADD PUSH2 0xB98 JUMP JUMPDEST SWAP2 POP POP SWAP3 SWAP2 POP POP JUMP JUMPDEST PUSH1 0x0 DUP2 CALLDATALOAD SWAP1 POP PUSH2 0xC2C DUP2 PUSH2 0x14A9 JUMP JUMPDEST SWAP3 SWAP2 POP POP JUMP JUMPDEST PUSH1 0x0 PUSH1 0x20 DUP3 DUP5 SUB SLT ISZERO PUSH2 0xC48 JUMPI PUSH2 0xC47 PUSH2 0x1454 JUMP JUMPDEST JUMPDEST PUSH1 0x0 PUSH2 0xC56 DUP5 DUP3 DUP6 ADD PUSH2 0xBDA JUMP JUMPDEST SWAP2 POP POP SWAP3 SWAP2 POP POP JUMP JUMPDEST PUSH1 0x0 PUSH1 0x20 DUP3 DUP5 SUB SLT ISZERO PUSH2 0xC75 JUMPI PUSH2 0xC74 PUSH2 0x1454 JUMP JUMPDEST JUMPDEST PUSH1 0x0 DUP3 ADD CALLDATALOAD PUSH8 0xFFFFFFFFFFFFFFFF DUP2 GT ISZERO PUSH2 0xC93 JUMPI PUSH2 0xC92 PUSH2 0x144F JUMP JUMPDEST JUMPDEST PUSH2 0xC9F DUP5 DUP3 DUP6 ADD PUSH2 0xBEF JUMP JUMPDEST SWAP2 POP POP SWAP3 SWAP2 POP POP JUMP JUMPDEST PUSH1 0x0 DUP1 PUSH1 0x0 PUSH1 0x60 DUP5 DUP7 SUB SLT ISZERO PUSH2 0xCC1 JUMPI PUSH2 0xCC0 PUSH2 0x1454 JUMP JUMPDEST JUMPDEST PUSH1 0x0 DUP5 ADD CALLDATALOAD PUSH8 0xFFFFFFFFFFFFFFFF DUP2 GT ISZERO PUSH2 0xCDF JUMPI PUSH2 0xCDE PUSH2 0x144F JUMP JUMPDEST JUMPDEST PUSH2 0xCEB DUP7 DUP3 DUP8 ADD PUSH2 0xBEF JUMP JUMPDEST SWAP4 POP POP PUSH1 0x20 DUP5 ADD CALLDATALOAD PUSH8 0xFFFFFFFFFFFFFFFF DUP2 GT ISZERO PUSH2 0xD0C JUMPI PUSH2 0xD0B PUSH2 0x144F JUMP JUMPDEST JUMPDEST PUSH2 0xD18 DUP7 DUP3 DUP8 ADD PUSH2 0xBEF JUMP JUMPDEST SWAP3 POP POP PUSH1 0x40 PUSH2 0xD29 DUP7 DUP3 DUP8 ADD PUSH2 0xC1D JUMP JUMPDEST SWAP2 POP POP SWAP3 POP SWAP3 POP SWAP3 JUMP JUMPDEST PUSH1 0x0 PUSH1 0x20 DUP3 DUP5 SUB SLT ISZERO PUSH2 0xD49 JUMPI PUSH2 0xD48 PUSH2 0x1454 JUMP JUMPDEST JUMPDEST PUSH1 0x0 PUSH2 0xD57 DUP5 DUP3 DUP6 ADD PUSH2 0xC1D JUMP JUMPDEST SWAP2 POP POP SWAP3 SWAP2 POP POP JUMP JUMPDEST PUSH2 0xD69 DUP2 PUSH2 0x11DA JUMP JUMPDEST DUP3 MSTORE POP POP JUMP JUMPDEST PUSH2 0xD78 DUP2 PUSH2 0x11EC JUMP JUMPDEST DUP3 MSTORE POP POP JUMP JUMPDEST PUSH2 0xD87 DUP2 PUSH2 0x1248 JUMP JUMPDEST DUP3 MSTORE POP POP JUMP JUMPDEST PUSH2 0xD96 DUP2 PUSH2 0x125A JUMP JUMPDEST DUP3 MSTORE POP POP JUMP JUMPDEST PUSH1 0x0 PUSH2 0xDA7 DUP3 PUSH2 0x114C JUMP JUMPDEST PUSH2 0xDB1 DUP2 DUP6 PUSH2 0x1157 JUMP JUMPDEST SWAP4 POP PUSH2 0xDC1 DUP2 DUP6 PUSH1 0x20 DUP7 ADD PUSH2 0x127B JUMP JUMPDEST PUSH2 0xDCA DUP2 PUSH2 0x1459 JUMP JUMPDEST DUP5 ADD SWAP2 POP POP SWAP3 SWAP2 POP POP JUMP JUMPDEST PUSH1 0x0 PUSH2 0xDE0 DUP3 PUSH2 0x114C JUMP JUMPDEST PUSH2 0xDEA DUP2 DUP6 PUSH2 0x1168 JUMP JUMPDEST SWAP4 POP PUSH2 0xDFA DUP2 DUP6 PUSH1 0x20 DUP7 ADD PUSH2 0x127B JUMP JUMPDEST PUSH2 0xE03 DUP2 PUSH2 0x1459 JUMP JUMPDEST DUP5 ADD SWAP2 POP POP SWAP3 SWAP2 POP POP JUMP JUMPDEST PUSH1 0x0 PUSH2 0xE19 DUP3 PUSH2 0x114C JUMP JUMPDEST PUSH2 0xE23 DUP2 DUP6 PUSH2 0x1179 JUMP JUMPDEST SWAP4 POP PUSH2 0xE33 DUP2 DUP6 PUSH1 0x20 DUP7 ADD PUSH2 0x127B JUMP JUMPDEST DUP1 DUP5 ADD SWAP2 POP POP SWAP3 SWAP2 POP POP JUMP JUMPDEST PUSH1 0x0 DUP2 SLOAD PUSH2 0xE4C DUP2 PUSH2 0x12AE JUMP JUMPDEST PUSH2 0xE56 DUP2 DUP7 PUSH2 0x1179 JUMP JUMPDEST SWAP5 POP PUSH1 0x1 DUP3 AND PUSH1 0x0 DUP2 EQ PUSH2 0xE71 JUMPI PUSH1 0x1 DUP2 EQ PUSH2 0xE82 JUMPI PUSH2 0xEB5 JUMP JUMPDEST PUSH1 0xFF NOT DUP4 AND DUP7 MSTORE DUP2 DUP7 ADD SWAP4 POP PUSH2 0xEB5 JUMP JUMPDEST PUSH2 0xE8B DUP6 PUSH2 0x1137 JUMP JUMPDEST PUSH1 0x0 JUMPDEST DUP4 DUP2 LT ISZERO PUSH2 0xEAD JUMPI DUP2 SLOAD DUP2 DUP10 ADD MSTORE PUSH1 0x1 DUP3 ADD SWAP2 POP PUSH1 0x20 DUP2 ADD SWAP1 POP PUSH2 0xE8E JUMP JUMPDEST DUP4 DUP9 ADD SWAP6 POP POP POP JUMPDEST POP POP POP SWAP3 SWAP2 POP POP JUMP JUMPDEST PUSH1 0x0 PUSH1 0x60 DUP4 ADD PUSH1 0x0 DUP4 ADD MLOAD DUP5 DUP3 SUB PUSH1 0x0 DUP7 ADD MSTORE PUSH2 0xEDB DUP3 DUP3 PUSH2 0xD9C JUMP JUMPDEST SWAP2 POP POP PUSH1 0x20 DUP4 ADD MLOAD PUSH2 0xEF0 PUSH1 0x20 DUP7 ADD DUP3 PUSH2 0xD60 JUMP JUMPDEST POP PUSH1 0x40 DUP4 ADD MLOAD PUSH2 0xF03 PUSH1 0x40 DUP7 ADD DUP3 PUSH2 0xD7E JUMP JUMPDEST POP DUP1 SWAP2 POP POP SWAP3 SWAP2 POP POP JUMP JUMPDEST PUSH1 0x0 PUSH1 0xC0 DUP4 ADD PUSH1 0x0 DUP4 ADD MLOAD DUP5 DUP3 SUB PUSH1 0x0 DUP7 ADD MSTORE PUSH2 0xF2B DUP3 DUP3 PUSH2 0xD9C JUMP JUMPDEST SWAP2 POP POP PUSH1 0x20 DUP4 ADD MLOAD PUSH2 0xF40 PUSH1 0x20 DUP7 ADD DUP3 PUSH2 0xD8D JUMP JUMPDEST POP PUSH1 0x40 DUP4 ADD MLOAD PUSH2 0xF53 PUSH1 0x40 DUP7 ADD DUP3 PUSH2 0xD7E JUMP JUMPDEST POP PUSH1 0x60 DUP4 ADD MLOAD PUSH2 0xF66 PUSH1 0x60 DUP7 ADD DUP3 PUSH2 0xF97 JUMP JUMPDEST POP PUSH1 0x80 DUP4 ADD MLOAD PUSH2 0xF79 PUSH1 0x80 DUP7 ADD DUP3 PUSH2 0xF97 JUMP JUMPDEST POP PUSH1 0xA0 DUP4 ADD MLOAD PUSH2 0xF8C PUSH1 0xA0 DUP7 ADD DUP3 PUSH2 0xD60 JUMP JUMPDEST POP DUP1 SWAP2 POP POP SWAP3 SWAP2 POP POP JUMP JUMPDEST PUSH2 0xFA0 DUP2 PUSH2 0x123E JUMP JUMPDEST DUP3 MSTORE POP POP JUMP JUMPDEST PUSH2 0xFAF DUP2 PUSH2 0x123E JUMP JUMPDEST DUP3 MSTORE POP POP JUMP JUMPDEST PUSH1 0x0 PUSH2 0xFC1 DUP3 DUP5 PUSH2 0xE0E JUMP JUMPDEST SWAP2 POP DUP2 SWAP1 POP SWAP3 SWAP2 POP POP JUMP JUMPDEST PUSH1 0x0 PUSH2 0xFD8 DUP3 DUP5 PUSH2 0xE3F JUMP JUMPDEST SWAP2 POP DUP2 SWAP1 POP SWAP3 SWAP2 POP POP JUMP JUMPDEST PUSH1 0x0 PUSH1 0x20 DUP3 ADD SWAP1 POP PUSH2 0xFF8 PUSH1 0x0 DUP4 ADD DUP5 PUSH2 0xD6F JUMP JUMPDEST SWAP3 SWAP2 POP POP JUMP JUMPDEST PUSH1 0x0 PUSH1 0x20 DUP3 ADD SWAP1 POP DUP2 DUP2 SUB PUSH1 0x0 DUP4 ADD MSTORE PUSH2 0x1018 DUP2 DUP5 PUSH2 0xDD5 JUMP JUMPDEST SWAP1 POP SWAP3 SWAP2 POP POP JUMP JUMPDEST PUSH1 0x0 PUSH1 0xC0 DUP3 ADD SWAP1 POP DUP2 DUP2 SUB PUSH1 0x0 DUP4 ADD MSTORE PUSH2 0x103A DUP2 DUP10 PUSH2 0xDD5 JUMP JUMPDEST SWAP1 POP DUP2 DUP2 SUB PUSH1 0x20 DUP4 ADD MSTORE PUSH2 0x104E DUP2 DUP9 PUSH2 0xDD5 JUMP JUMPDEST SWAP1 POP PUSH2 0x105D PUSH1 0x40 DUP4 ADD DUP8 PUSH2 0xFA6 JUMP JUMPDEST DUP2 DUP2 SUB PUSH1 0x60 DUP4 ADD MSTORE PUSH2 0x106F DUP2 DUP7 PUSH2 0xDD5 JUMP JUMPDEST SWAP1 POP DUP2 DUP2 SUB PUSH1 0x80 DUP4 ADD MSTORE PUSH2 0x1083 DUP2 DUP6 PUSH2 0xDD5 JUMP JUMPDEST SWAP1 POP PUSH2 0x1092 PUSH1 0xA0 DUP4 ADD DUP5 PUSH2 0xFA6 JUMP JUMPDEST SWAP8 SWAP7 POP POP POP POP POP POP POP JUMP JUMPDEST PUSH1 0x0 PUSH1 0x20 DUP3 ADD SWAP1 POP DUP2 DUP2 SUB PUSH1 0x0 DUP4 ADD MSTORE PUSH2 0x10B7 DUP2 DUP5 PUSH2 0xEBE JUMP JUMPDEST SWAP1 POP SWAP3 SWAP2 POP POP JUMP JUMPDEST PUSH1 0x0 PUSH1 0x20 DUP3 ADD SWAP1 POP DUP2 DUP2 SUB PUSH1 0x0 DUP4 ADD MSTORE PUSH2 0x10D9 DUP2 DUP5 PUSH2 0xF0E JUMP JUMPDEST SWAP1 POP SWAP3 SWAP2 POP POP JUMP JUMPDEST PUSH1 0x0 PUSH2 0x10EB PUSH2 0x10FC JUMP JUMPDEST SWAP1 POP PUSH2 0x10F7 DUP3 DUP3 PUSH2 0x12E0 JUMP JUMPDEST SWAP2 SWAP1 POP JUMP JUMPDEST PUSH1 0x0 PUSH1 0x40 MLOAD SWAP1 POP SWAP1 JUMP JUMPDEST PUSH1 0x0 PUSH8 0xFFFFFFFFFFFFFFFF DUP3 GT ISZERO PUSH2 0x1121 JUMPI PUSH2 0x1120 PUSH2 0x1416 JUMP JUMPDEST JUMPDEST PUSH2 0x112A DUP3 PUSH2 0x1459 JUMP JUMPDEST SWAP1 POP PUSH1 0x20 DUP2 ADD SWAP1 POP SWAP2 SWAP1 POP JUMP JUMPDEST PUSH1 0x0 DUP2 SWAP1 POP DUP2 PUSH1 0x0 MSTORE PUSH1 0x20 PUSH1 0x0 KECCAK256 SWAP1 POP SWAP2 SWAP1 POP JUMP JUMPDEST PUSH1 0x0 DUP2 MLOAD SWAP1 POP SWAP2 SWAP1 POP JUMP JUMPDEST PUSH1 0x0 DUP3 DUP3 MSTORE PUSH1 0x20 DUP3 ADD SWAP1 POP SWAP3 SWAP2 POP POP JUMP JUMPDEST PUSH1 0x0 DUP3 DUP3 MSTORE PUSH1 0x20 DUP3 ADD SWAP1 POP SWAP3 SWAP2 POP POP JUMP JUMPDEST PUSH1 0x0 DUP2 SWAP1 POP SWAP3 SWAP2 POP POP JUMP JUMPDEST PUSH1 0x0 PUSH2 0x118F DUP3 PUSH2 0x123E JUMP JUMPDEST SWAP2 POP PUSH2 0x119A DUP4 PUSH2 0x123E JUMP JUMPDEST SWAP3 POP DUP3 PUSH32 0xFFFFFFFFFFFFFFFFFFFFFFFFFFFFFFFFFFFFFFFFFFFFFFFFFFFFFFFFFFFFFFFF SUB DUP3 GT ISZERO PUSH2 0x11CF JUMPI PUSH2 0x11CE PUSH2 0x135A JUMP JUMPDEST JUMPDEST DUP3 DUP3 ADD SWAP1 POP SWAP3 SWAP2 POP POP JUMP JUMPDEST PUSH1 0x0 PUSH2 0x11E5 DUP3 PUSH2 0x121E JUMP JUMPDEST SWAP1 POP SWAP2 SWAP1 POP JUMP JUMPDEST PUSH1 0x0 DUP2 ISZERO ISZERO SWAP1 POP SWAP2 SWAP1 POP JUMP JUMPDEST PUSH1 0x0 DUP2 SWAP1 POP PUSH2 0x1206 DUP3 PUSH2 0x146A JUMP JUMPDEST SWAP2 SWAP1 POP JUMP JUMPDEST PUSH1 0x0 DUP2 SWAP1 POP PUSH2 0x1219 DUP3 PUSH2 0x147E JUMP JUMPDEST SWAP2 SWAP1 POP JUMP JUMPDEST PUSH1 0x0 PUSH20 0xFFFFFFFFFFFFFFFFFFFFFFFFFFFFFFFFFFFFFFFF DUP3 AND SWAP1 POP SWAP2 SWAP1 POP JUMP JUMPDEST PUSH1 0x0 DUP2 SWAP1 POP SWAP2 SWAP1 POP JUMP JUMPDEST PUSH1 0x0 PUSH2 0x1253 DUP3 PUSH2 0x11F8 JUMP JUMPDEST SWAP1 POP SWAP2 SWAP1 POP JUMP JUMPDEST PUSH1 0x0 PUSH2 0x1265 DUP3 PUSH2 0x120B JUMP JUMPDEST SWAP1 POP SWAP2 SWAP1 POP JUMP JUMPDEST DUP3 DUP2 DUP4 CALLDATACOPY PUSH1 0x0 DUP4 DUP4 ADD MSTORE POP POP POP JUMP JUMPDEST PUSH1 0x0 JUMPDEST DUP4 DUP2 LT ISZERO PUSH2 0x1299 JUMPI DUP1 DUP3 ADD MLOAD DUP2 DUP5 ADD MSTORE PUSH1 0x20 DUP2 ADD SWAP1 POP PUSH2 0x127E JUMP JUMPDEST DUP4 DUP2 GT ISZERO PUSH2 0x12A8 JUMPI PUSH1 0x0 DUP5 DUP5 ADD MSTORE JUMPDEST POP POP POP POP JUMP JUMPDEST PUSH1 0x0 PUSH1 0x2 DUP3 DIV SWAP1 POP PUSH1 0x1 DUP3 AND DUP1 PUSH2 0x12C6 JUMPI PUSH1 0x7F DUP3 AND SWAP2 POP JUMPDEST PUSH1 0x20 DUP3 LT DUP2 EQ ISZERO PUSH2 0x12DA JUMPI PUSH2 0x12D9 PUSH2 0x13B8 JUMP JUMPDEST JUMPDEST POP SWAP2 SWAP1 POP JUMP JUMPDEST PUSH2 0x12E9 DUP3 PUSH2 0x1459 JUMP JUMPDEST DUP2 ADD DUP2 DUP2 LT PUSH8 0xFFFFFFFFFFFFFFFF DUP3 GT OR ISZERO PUSH2 0x1308 JUMPI PUSH2 0x1307 PUSH2 0x1416 JUMP JUMPDEST JUMPDEST DUP1 PUSH1 0x40 MSTORE POP POP POP JUMP JUMPDEST PUSH1 0x0 PUSH2 0x131C DUP3 PUSH2 0x123E JUMP JUMPDEST SWAP2 POP PUSH32 0xFFFFFFFFFFFFFFFFFFFFFFFFFFFFFFFFFFFFFFFFFFFFFFFFFFFFFFFFFFFFFFFF DUP3 EQ ISZERO PUSH2 0x134F JUMPI PUSH2 0x134E PUSH2 0x135A JUMP JUMPDEST JUMPDEST PUSH1 0x1 DUP3 ADD SWAP1 POP SWAP2 SWAP1 POP JUMP JUMPDEST PUSH32 0x4E487B7100000000000000000000000000000000000000000000000000000000 PUSH1 0x0 MSTORE PUSH1 0x11 PUSH1 0x4 MSTORE PUSH1 0x24 PUSH1 0x0 REVERT JUMPDEST PUSH32 0x4E487B7100000000000000000000000000000000000000000000000000000000 PUSH1 0x0 MSTORE PUSH1 0x21 PUSH1 0x4 MSTORE PUSH1 0x24 PUSH1 0x0 REVERT JUMPDEST PUSH32 0x4E487B7100000000000000000000000000000000000000000000000000000000 PUSH1 0x0 MSTORE PUSH1 0x22 PUSH1 0x4 MSTORE PUSH1 0x24 PUSH1 0x0 REVERT JUMPDEST PUSH32 0x4E487B7100000000000000000000000000000000000000000000000000000000 PUSH1 0x0 MSTORE PUSH1 0x32 PUSH1 0x4 MSTORE PUSH1 0x24 PUSH1 0x0 REVERT JUMPDEST PUSH32 0x4E487B7100000000000000000000000000000000000000000000000000000000 PUSH1 0x0 MSTORE PUSH1 0x41 PUSH1 0x4 MSTORE PUSH1 0x24 PUSH1 0x0 REVERT JUMPDEST PUSH1 0x0 DUP1 REVERT JUMPDEST PUSH1 0x0 DUP1 REVERT JUMPDEST PUSH1 0x0 DUP1 REVERT JUMPDEST PUSH1 0x0 DUP1 REVERT JUMPDEST PUSH1 0x0 PUSH1 0x1F NOT PUSH1 0x1F DUP4 ADD AND SWAP1 POP SWAP2 SWAP1 POP JUMP JUMPDEST PUSH1 0x3 DUP2 LT PUSH2 0x147B JUMPI PUSH2 0x147A PUSH2 0x1389 JUMP JUMPDEST JUMPDEST POP JUMP JUMPDEST PUSH1 0x7 DUP2 LT PUSH2 0x148F JUMPI PUSH2 0x148E PUSH2 0x1389 JUMP JUMPDEST JUMPDEST POP JUMP JUMPDEST PUSH2 0x149B DUP2 PUSH2 0x11DA JUMP JUMPDEST DUP2 EQ PUSH2 0x14A6 JUMPI PUSH1 0x0 DUP1 REVERT JUMPDEST POP JUMP JUMPDEST PUSH2 0x14B2 DUP2 PUSH2 0x123E JUMP JUMPDEST DUP2 EQ PUSH2 0x14BD JUMPI PUSH1 0x0 DUP1 REVERT JUMPDEST POP JUMP INVALID LOG2 PUSH5 0x6970667358 0x22 SLT KECCAK256 0xC 0xCB SGT SWAP8 BALANCE ADD 0xE0 0xC5 0x5D SLOAD PUSH18 0x30CADE3A5EA157F0D8450E240FB5F602B81E 0xC6 STOP 0xE8 PUSH5 0x736F6C6343 STOP ADDMOD SMOD STOP CALLER "
				},
				"gasEstimates": {
					"creation": {
						"codeDepositCost": "1073200",
						"executionCost": "1114",
						"totalCost": "1074314"
					},
					"external": {
						"CreatePatch(string,string,uint256)": "infinite",
						"GetUserByAddress(address)": "infinite",
						"GetUserIDByAddress(address)": "infinite",
						"PatchTrannsactions(uint256)": "infinite",
						"ReadDrug(string)": "infinite"
					}
				},
				"methodIdentifiers": {
					"CreatePatch(string,string,uint256)": "d9081577",
					"GetUserByAddress(address)": "1892fd78",
					"GetUserIDByAddress(address)": "43db3e66",
					"PatchTrannsactions(uint256)": "1567697c",
					"ReadDrug(string)": "cdf7e73d"
				}
			},
			"storageLayout": {
				"storage": [
					{
						"astId": 196,
						"contract": "contracts/PtachsTransactions.sol:PatchsTransactions",
						"label": "UserIDsMapping",
						"offset": 0,
						"slot": "0",
						"type": "t_mapping(t_string_memory_ptr,t_struct(User)191_storage)"
					},
					{
						"astId": 199,
						"contract": "contracts/PtachsTransactions.sol:PatchsTransactions",
						"label": "UsersIDs",
						"offset": 0,
						"slot": "1",
						"type": "t_array(t_string_storage)dyn_storage"
					},
					{
						"astId": 220,
						"contract": "contracts/PtachsTransactions.sol:PatchsTransactions",
						"label": "DrugRegNoMapping",
						"offset": 0,
						"slot": "2",
						"type": "t_mapping(t_string_memory_ptr,t_struct(Drug)207_storage)"
					},
					{
						"astId": 223,
						"contract": "contracts/PtachsTransactions.sol:PatchsTransactions",
						"label": "DrugsRegNos",
						"offset": 0,
						"slot": "3",
						"type": "t_array(t_string_storage)dyn_storage"
					},
					{
						"astId": 22,
						"contract": "contracts/PtachsTransactions.sol:PatchsTransactions",
						"label": "PatchTrannsactions",
						"offset": 0,
						"slot": "4",
						"type": "t_array(t_struct(PatchTransaction)18_storage)dyn_storage"
					}
				],
				"types": {
					"t_address": {
						"encoding": "inplace",
						"label": "address",
						"numberOfBytes": "20"
					},
					"t_array(t_string_storage)dyn_storage": {
						"base": "t_string_storage",
						"encoding": "dynamic_array",
						"label": "string[]",
						"numberOfBytes": "32"
					},
					"t_array(t_struct(PatchTransaction)18_storage)dyn_storage": {
						"base": "t_struct(PatchTransaction)18_storage",
						"encoding": "dynamic_array",
						"label": "struct PatchsTransactions.PatchTransaction[]",
						"numberOfBytes": "32"
					},
					"t_enum(Statuses)168": {
						"encoding": "inplace",
						"label": "enum Utils.Statuses",
						"numberOfBytes": "1"
					},
					"t_enum(UserRoles)176": {
						"encoding": "inplace",
						"label": "enum Utils.UserRoles",
						"numberOfBytes": "1"
					},
					"t_mapping(t_string_memory_ptr,t_struct(Drug)207_storage)": {
						"encoding": "mapping",
						"key": "t_string_memory_ptr",
						"label": "mapping(string => struct Utils.Drug)",
						"numberOfBytes": "32",
						"value": "t_struct(Drug)207_storage"
					},
					"t_mapping(t_string_memory_ptr,t_struct(User)191_storage)": {
						"encoding": "mapping",
						"key": "t_string_memory_ptr",
						"label": "mapping(string => struct Utils.User)",
						"numberOfBytes": "32",
						"value": "t_struct(User)191_storage"
					},
					"t_string_memory_ptr": {
						"encoding": "bytes",
						"label": "string",
						"numberOfBytes": "32"
					},
					"t_string_storage": {
						"encoding": "bytes",
						"label": "string",
						"numberOfBytes": "32"
					},
					"t_struct(Drug)207_storage": {
						"encoding": "inplace",
						"label": "struct Utils.Drug",
						"members": [
							{
								"astId": 201,
								"contract": "contracts/PtachsTransactions.sol:PatchsTransactions",
								"label": "DrugName",
								"offset": 0,
								"slot": "0",
								"type": "t_string_storage"
							},
							{
								"astId": 203,
								"contract": "contracts/PtachsTransactions.sol:PatchsTransactions",
								"label": "Manufacturer",
								"offset": 0,
								"slot": "1",
								"type": "t_address"
							},
							{
								"astId": 206,
								"contract": "contracts/PtachsTransactions.sol:PatchsTransactions",
								"label": "DrugStatus",
								"offset": 20,
								"slot": "1",
								"type": "t_enum(Statuses)168"
							}
						],
						"numberOfBytes": "64"
					},
					"t_struct(PatchTransaction)18_storage": {
						"encoding": "inplace",
						"label": "struct PatchsTransactions.PatchTransaction",
						"members": [
							{
								"astId": 7,
								"contract": "contracts/PtachsTransactions.sol:PatchsTransactions",
								"label": "DrugRegNo",
								"offset": 0,
								"slot": "0",
								"type": "t_string_storage"
							},
							{
								"astId": 9,
								"contract": "contracts/PtachsTransactions.sol:PatchsTransactions",
								"label": "PatchNo",
								"offset": 0,
								"slot": "1",
								"type": "t_string_storage"
							},
							{
								"astId": 11,
								"contract": "contracts/PtachsTransactions.sol:PatchsTransactions",
								"label": "LineNo",
								"offset": 0,
								"slot": "2",
								"type": "t_uint256"
							},
							{
								"astId": 13,
								"contract": "contracts/PtachsTransactions.sol:PatchsTransactions",
								"label": "FromID",
								"offset": 0,
								"slot": "3",
								"type": "t_string_storage"
							},
							{
								"astId": 15,
								"contract": "contracts/PtachsTransactions.sol:PatchsTransactions",
								"label": "ToID",
								"offset": 0,
								"slot": "4",
								"type": "t_string_storage"
							},
							{
								"astId": 17,
								"contract": "contracts/PtachsTransactions.sol:PatchsTransactions",
								"label": "Amount",
								"offset": 0,
								"slot": "5",
								"type": "t_uint256"
							}
						],
						"numberOfBytes": "192"
					},
					"t_struct(User)191_storage": {
						"encoding": "inplace",
						"label": "struct Utils.User",
						"members": [
							{
								"astId": 178,
								"contract": "contracts/PtachsTransactions.sol:PatchsTransactions",
								"label": "UserName",
								"offset": 0,
								"slot": "0",
								"type": "t_string_storage"
							},
							{
								"astId": 181,
								"contract": "contracts/PtachsTransactions.sol:PatchsTransactions",
								"label": "UserRole",
								"offset": 0,
								"slot": "1",
								"type": "t_enum(UserRoles)176"
							},
							{
								"astId": 184,
								"contract": "contracts/PtachsTransactions.sol:PatchsTransactions",
								"label": "UserStatus",
								"offset": 1,
								"slot": "1",
								"type": "t_enum(Statuses)168"
							},
							{
								"astId": 186,
								"contract": "contracts/PtachsTransactions.sol:PatchsTransactions",
								"label": "Latitude",
								"offset": 0,
								"slot": "2",
								"type": "t_uint256"
							},
							{
								"astId": 188,
								"contract": "contracts/PtachsTransactions.sol:PatchsTransactions",
								"label": "Longitude",
								"offset": 0,
								"slot": "3",
								"type": "t_uint256"
							},
							{
								"astId": 190,
								"contract": "contracts/PtachsTransactions.sol:PatchsTransactions",
								"label": "UserAddress",
								"offset": 0,
								"slot": "4",
								"type": "t_address"
							}
						],
						"numberOfBytes": "160"
					},
					"t_uint256": {
						"encoding": "inplace",
						"label": "uint256",
						"numberOfBytes": "32"
					}
				}
			},
			"userdoc": {
				"kind": "user",
				"methods": {},
				"version": 1
			}
		}
	}
}