{
	"contracts/Regulator.sol": {
		"Regulator": {
			"abi": [
				{
					"inputs": [],
					"stateMutability": "nonpayable",
					"type": "constructor"
				},
				{
					"inputs": [
						{
							"internalType": "enum Utils.UserRoles",
							"name": "_role",
							"type": "uint8"
						}
					],
					"name": "GetUsersByType",
					"outputs": [
						{
							"components": [
								{
									"internalType": "string",
									"name": "UserName",
									"type": "string"
								},
								{
									"internalType": "enum Utils.UserRoles",
									"name": "UserRole",
									"type": "uint8"
								},
								{
									"internalType": "enum Utils.Statuses",
									"name": "UserStatus",
									"type": "uint8"
								},
								{
									"internalType": "uint256",
									"name": "Latitude",
									"type": "uint256"
								},
								{
									"internalType": "uint256",
									"name": "Longitude",
									"type": "uint256"
								},
								{
									"internalType": "address",
									"name": "UserAddress",
									"type": "address"
								}
							],
							"internalType": "struct Utils.User[]",
							"name": "filteredUsers",
							"type": "tuple[]"
						}
					],
					"stateMutability": "view",
					"type": "function"
				},
				{
					"inputs": [],
					"name": "Owner",
					"outputs": [
						{
							"internalType": "address",
							"name": "",
							"type": "address"
						}
					],
					"stateMutability": "view",
					"type": "function"
				},
				{
					"inputs": [
						{
							"internalType": "string",
							"name": "_regno",
							"type": "string"
						}
					],
					"name": "ReadDrug",
					"outputs": [
						{
							"components": [
								{
									"internalType": "string",
									"name": "DrugName",
									"type": "string"
								},
								{
									"internalType": "address",
									"name": "Manufacturer",
									"type": "address"
								},
								{
									"internalType": "enum Utils.Statuses",
									"name": "DrugStatus",
									"type": "uint8"
								}
							],
							"internalType": "struct Utils.Drug",
							"name": "",
							"type": "tuple"
						}
					],
					"stateMutability": "view",
					"type": "function"
				},
				{
					"inputs": [
						{
							"internalType": "string",
							"name": "_id",
							"type": "string"
						}
					],
					"name": "ReadUser",
					"outputs": [
						{
							"components": [
								{
									"internalType": "string",
									"name": "UserName",
									"type": "string"
								},
								{
									"internalType": "enum Utils.UserRoles",
									"name": "UserRole",
									"type": "uint8"
								},
								{
									"internalType": "enum Utils.Statuses",
									"name": "UserStatus",
									"type": "uint8"
								},
								{
									"internalType": "uint256",
									"name": "Latitude",
									"type": "uint256"
								},
								{
									"internalType": "uint256",
									"name": "Longitude",
									"type": "uint256"
								},
								{
									"internalType": "address",
									"name": "UserAddress",
									"type": "address"
								}
							],
							"internalType": "struct Utils.User",
							"name": "",
							"type": "tuple"
						}
					],
					"stateMutability": "view",
					"type": "function"
				},
				{
					"inputs": [
						{
							"internalType": "string",
							"name": "_regno",
							"type": "string"
						},
						{
							"internalType": "enum Utils.Statuses",
							"name": "_status",
							"type": "uint8"
						}
					],
					"name": "SetDrugStatus",
					"outputs": [
						{
							"internalType": "bool",
							"name": "",
							"type": "bool"
						}
					],
					"stateMutability": "nonpayable",
					"type": "function"
				},
				{
					"inputs": [
						{
							"internalType": "string",
							"name": "_id",
							"type": "string"
						},
						{
							"internalType": "enum Utils.Statuses",
							"name": "_status",
							"type": "uint8"
						}
					],
					"name": "SetUserStatus",
					"outputs": [
						{
							"internalType": "bool",
							"name": "",
							"type": "bool"
						}
					],
					"stateMutability": "nonpayable",
					"type": "function"
				}
			],
			"devdoc": {
				"kind": "dev",
				"methods": {},
				"version": 1
			},
			"evm": {
				"assembly": "    /* \"contracts/Regulator.sol\":122:1578  contract Regulator is Utils {\r... */\n  mstore(0x40, 0x80)\n    /* \"contracts/Regulator.sol\":196:247  constructor() {\r... */\n  callvalue\n  dup1\n  iszero\n  tag_1\n  jumpi\n  0x00\n  dup1\n  revert\ntag_1:\n  pop\n    /* \"contracts/Regulator.sol\":229:239  msg.sender */\n  caller\n    /* \"contracts/Regulator.sol\":221:226  Owner */\n  0x04\n  0x00\n    /* \"contracts/Regulator.sol\":221:239  Owner = msg.sender */\n  0x0100\n  exp\n  dup2\n  sload\n  dup2\n  0xffffffffffffffffffffffffffffffffffffffff\n  mul\n  not\n  and\n  swap1\n  dup4\n  0xffffffffffffffffffffffffffffffffffffffff\n  and\n  mul\n  or\n  swap1\n  sstore\n  pop\n    /* \"contracts/Regulator.sol\":122:1578  contract Regulator is Utils {\r... */\n  dataSize(sub_0)\n  dup1\n  dataOffset(sub_0)\n  0x00\n  codecopy\n  0x00\n  return\nstop\n\nsub_0: assembly {\n        /* \"contracts/Regulator.sol\":122:1578  contract Regulator is Utils {\r... */\n      mstore(0x40, 0x80)\n      callvalue\n      dup1\n      iszero\n      tag_1\n      jumpi\n      0x00\n      dup1\n      revert\n    tag_1:\n      pop\n      jumpi(tag_2, lt(calldatasize, 0x04))\n      shr(0xe0, calldataload(0x00))\n      dup1\n      0x0f9de977\n      eq\n      tag_3\n      jumpi\n      dup1\n      0x1a2d8624\n      eq\n      tag_4\n      jumpi\n      dup1\n      0x25dd75c9\n      eq\n      tag_5\n      jumpi\n      dup1\n      0x86a9d2ca\n      eq\n      tag_6\n      jumpi\n      dup1\n      0xb4a99a4e\n      eq\n      tag_7\n      jumpi\n      dup1\n      0xcdf7e73d\n      eq\n      tag_8\n      jumpi\n    tag_2:\n      0x00\n      dup1\n      revert\n        /* \"contracts/Regulator.sol\":698:1347  function GetUsersByType(UserRoles _role)\r... */\n    tag_3:\n      tag_9\n      0x04\n      dup1\n      calldatasize\n      sub\n      dup2\n      add\n      swap1\n      tag_10\n      swap2\n      swap1\n      tag_11\n      jump\t// in\n    tag_10:\n      tag_12\n      jump\t// in\n    tag_9:\n      mload(0x40)\n      tag_13\n      swap2\n      swap1\n      tag_14\n      jump\t// in\n    tag_13:\n      mload(0x40)\n      dup1\n      swap2\n      sub\n      swap1\n      return\n        /* \"contracts/Regulator.sol\":483:689  function SetUserStatus(string memory _id, Statuses _status)\r... */\n    tag_4:\n      tag_15\n      0x04\n      dup1\n      calldatasize\n      sub\n      dup2\n      add\n      swap1\n      tag_16\n      swap2\n      swap1\n      tag_17\n      jump\t// in\n    tag_16:\n      tag_18\n      jump\t// in\n    tag_15:\n      mload(0x40)\n      tag_19\n      swap2\n      swap1\n      tag_20\n      jump\t// in\n    tag_19:\n      mload(0x40)\n      dup1\n      swap2\n      sub\n      swap1\n      return\n        /* \"contracts/Regulator.sol\":1361:1575  function SetDrugStatus(string memory _regno, Statuses _status)\r... */\n    tag_5:\n      tag_21\n      0x04\n      dup1\n      calldatasize\n      sub\n      dup2\n      add\n      swap1\n      tag_22\n      swap2\n      swap1\n      tag_17\n      jump\t// in\n    tag_22:\n      tag_23\n      jump\t// in\n    tag_21:\n      mload(0x40)\n      tag_24\n      swap2\n      swap1\n      tag_20\n      jump\t// in\n    tag_24:\n      mload(0x40)\n      dup1\n      swap2\n      sub\n      swap1\n      return\n        /* \"contracts/Regulator.sol\":359:475  function ReadUser(string memory _id) public view returns (User memory) {\r... */\n    tag_6:\n      tag_25\n      0x04\n      dup1\n      calldatasize\n      sub\n      dup2\n      add\n      swap1\n      tag_26\n      swap2\n      swap1\n      tag_27\n      jump\t// in\n    tag_26:\n      tag_28\n      jump\t// in\n    tag_25:\n      mload(0x40)\n      tag_29\n      swap2\n      swap1\n      tag_30\n      jump\t// in\n    tag_29:\n      mload(0x40)\n      dup1\n      swap2\n      sub\n      swap1\n      return\n        /* \"contracts/Regulator.sol\":163:183  address public Owner */\n    tag_7:\n      tag_31\n      tag_32\n      jump\t// in\n    tag_31:\n      mload(0x40)\n      tag_33\n      swap2\n      swap1\n      tag_34\n      jump\t// in\n    tag_33:\n      mload(0x40)\n      dup1\n      swap2\n      sub\n      swap1\n      return\n        /* \"contracts/Utils.sol\":1072:1196  function ReadDrug(string memory _regno) public view returns (Drug memory) {\r... */\n    tag_8:\n      tag_35\n      0x04\n      dup1\n      calldatasize\n      sub\n      dup2\n      add\n      swap1\n      tag_36\n      swap2\n      swap1\n      tag_27\n      jump\t// in\n    tag_36:\n      tag_37\n      jump\t// in\n    tag_35:\n      mload(0x40)\n      tag_38\n      swap2\n      swap1\n      tag_39\n      jump\t// in\n    tag_38:\n      mload(0x40)\n      dup1\n      swap2\n      sub\n      swap1\n      return\n        /* \"contracts/Regulator.sol\":698:1347  function GetUsersByType(UserRoles _role)\r... */\n    tag_12:\n        /* \"contracts/Regulator.sol\":787:814  User[] memory filteredUsers */\n      0x60\n        /* \"contracts/Regulator.sol\":832:850  uint256 usersCount */\n      0x00\n        /* \"contracts/Regulator.sol\":853:861  UsersIDs */\n      0x01\n        /* \"contracts/Regulator.sol\":853:868  UsersIDs.length */\n      dup1\n      sload\n      swap1\n      pop\n        /* \"contracts/Regulator.sol\":832:868  uint256 usersCount = UsersIDs.length */\n      swap1\n      pop\n        /* \"contracts/Regulator.sol\":879:902  User[] memory usersTemp */\n      0x00\n        /* \"contracts/Regulator.sol\":916:926  usersCount */\n      dup2\n        /* \"contracts/Regulator.sol\":905:927  new User[](usersCount) */\n      0xffffffffffffffff\n      dup2\n      gt\n      iszero\n      tag_41\n      jumpi\n      tag_42\n      tag_43\n      jump\t// in\n    tag_42:\n    tag_41:\n      mload(0x40)\n      swap1\n      dup1\n      dup3\n      mstore\n      dup1\n      0x20\n      mul\n      0x20\n      add\n      dup3\n      add\n      0x40\n      mstore\n      dup1\n      iszero\n      tag_44\n      jumpi\n      dup2\n      0x20\n      add\n    tag_45:\n      tag_46\n      tag_47\n      jump\t// in\n    tag_46:\n      dup2\n      mstore\n      0x20\n      add\n      swap1\n      0x01\n      swap1\n      sub\n      swap1\n      dup2\n      tag_45\n      jumpi\n      swap1\n      pop\n    tag_44:\n      pop\n        /* \"contracts/Regulator.sol\":879:927  User[] memory usersTemp = new User[](usersCount) */\n      swap1\n      pop\n        /* \"contracts/Regulator.sol\":938:951  uint256 count */\n      0x00\n        /* \"contracts/Regulator.sol\":967:976  uint256 i */\n      dup1\n        /* \"contracts/Regulator.sol\":979:980  0 */\n      0x00\n        /* \"contracts/Regulator.sol\":967:980  uint256 i = 0 */\n      swap1\n      pop\n        /* \"contracts/Regulator.sol\":962:1190  for (uint256 i = 0; i < usersCount; i++) {\r... */\n    tag_48:\n        /* \"contracts/Regulator.sol\":986:996  usersCount */\n      dup4\n        /* \"contracts/Regulator.sol\":982:983  i */\n      dup2\n        /* \"contracts/Regulator.sol\":982:996  i < usersCount */\n      lt\n        /* \"contracts/Regulator.sol\":962:1190  for (uint256 i = 0; i < usersCount; i++) {\r... */\n      iszero\n      tag_49\n      jumpi\n        /* \"contracts/Regulator.sol\":1062:1067  _role */\n      dup6\n        /* \"contracts/Regulator.sol\":1022:1067  UserIDsMapping[UsersIDs[i]].UserRole == _role */\n      0x06\n      dup2\n      gt\n      iszero\n      tag_51\n      jumpi\n      tag_52\n      tag_53\n      jump\t// in\n    tag_52:\n    tag_51:\n        /* \"contracts/Regulator.sol\":1022:1036  UserIDsMapping */\n      0x00\n        /* \"contracts/Regulator.sol\":1037:1045  UsersIDs */\n      0x01\n        /* \"contracts/Regulator.sol\":1046:1047  i */\n      dup4\n        /* \"contracts/Regulator.sol\":1037:1048  UsersIDs[i] */\n      dup2\n      sload\n      dup2\n      lt\n      tag_54\n      jumpi\n      tag_55\n      tag_56\n      jump\t// in\n    tag_55:\n    tag_54:\n      swap1\n      0x00\n      mstore\n      keccak256(0x00, 0x20)\n      add\n        /* \"contracts/Regulator.sol\":1022:1049  UserIDsMapping[UsersIDs[i]] */\n      mload(0x40)\n      tag_58\n      swap2\n      swap1\n      tag_59\n      jump\t// in\n    tag_58:\n      swap1\n      dup2\n      mstore\n      0x20\n      add\n      mload(0x40)\n      dup1\n      swap2\n      sub\n      swap1\n      keccak256\n        /* \"contracts/Regulator.sol\":1022:1058  UserIDsMapping[UsersIDs[i]].UserRole */\n      0x01\n      add\n      0x00\n      swap1\n      sload\n      swap1\n      0x0100\n      exp\n      swap1\n      div\n      0xff\n      and\n        /* \"contracts/Regulator.sol\":1022:1067  UserIDsMapping[UsersIDs[i]].UserRole == _role */\n      0x06\n      dup2\n      gt\n      iszero\n      tag_60\n      jumpi\n      tag_61\n      tag_53\n      jump\t// in\n    tag_61:\n    tag_60:\n      eq\n        /* \"contracts/Regulator.sol\":1018:1179  if (UserIDsMapping[UsersIDs[i]].UserRole == _role) {\r... */\n      iszero\n      tag_62\n      jumpi\n        /* \"contracts/Regulator.sol\":1107:1121  UserIDsMapping */\n      0x00\n        /* \"contracts/Regulator.sol\":1122:1130  UsersIDs */\n      0x01\n        /* \"contracts/Regulator.sol\":1131:1132  i */\n      dup3\n        /* \"contracts/Regulator.sol\":1122:1133  UsersIDs[i] */\n      dup2\n      sload\n      dup2\n      lt\n      tag_63\n      jumpi\n      tag_64\n      tag_56\n      jump\t// in\n    tag_64:\n    tag_63:\n      swap1\n      0x00\n      mstore\n      keccak256(0x00, 0x20)\n      add\n        /* \"contracts/Regulator.sol\":1107:1134  UserIDsMapping[UsersIDs[i]] */\n      mload(0x40)\n      tag_66\n      swap2\n      swap1\n      tag_59\n      jump\t// in\n    tag_66:\n      swap1\n      dup2\n      mstore\n      0x20\n      add\n      mload(0x40)\n      dup1\n      swap2\n      sub\n      swap1\n      keccak256\n        /* \"contracts/Regulator.sol\":1088:1134  usersTemp[count] = UserIDsMapping[UsersIDs[i]] */\n      mload(0x40)\n      dup1\n      0xc0\n      add\n      0x40\n      mstore\n      swap1\n      dup2\n      0x00\n      dup3\n      add\n      dup1\n      sload\n      tag_67\n      swap1\n      tag_68\n      jump\t// in\n    tag_67:\n      dup1\n      0x1f\n      add\n      0x20\n      dup1\n      swap2\n      div\n      mul\n      0x20\n      add\n      mload(0x40)\n      swap1\n      dup2\n      add\n      0x40\n      mstore\n      dup1\n      swap3\n      swap2\n      swap1\n      dup2\n      dup2\n      mstore\n      0x20\n      add\n      dup3\n      dup1\n      sload\n      tag_69\n      swap1\n      tag_68\n      jump\t// in\n    tag_69:\n      dup1\n      iszero\n      tag_70\n      jumpi\n      dup1\n      0x1f\n      lt\n      tag_71\n      jumpi\n      0x0100\n      dup1\n      dup4\n      sload\n      div\n      mul\n      dup4\n      mstore\n      swap2\n      0x20\n      add\n      swap2\n      jump(tag_70)\n    tag_71:\n      dup3\n      add\n      swap2\n      swap1\n      0x00\n      mstore\n      keccak256(0x00, 0x20)\n      swap1\n    tag_72:\n      dup2\n      sload\n      dup2\n      mstore\n      swap1\n      0x01\n      add\n      swap1\n      0x20\n      add\n      dup1\n      dup4\n      gt\n      tag_72\n      jumpi\n      dup3\n      swap1\n      sub\n      0x1f\n      and\n      dup3\n      add\n      swap2\n    tag_70:\n      pop\n      pop\n      pop\n      pop\n      pop\n      dup2\n      mstore\n      0x20\n      add\n      0x01\n      dup3\n      add\n      0x00\n      swap1\n      sload\n      swap1\n      0x0100\n      exp\n      swap1\n      div\n      0xff\n      and\n      0x06\n      dup2\n      gt\n      iszero\n      tag_73\n      jumpi\n      tag_74\n      tag_53\n      jump\t// in\n    tag_74:\n    tag_73:\n      0x06\n      dup2\n      gt\n      iszero\n      tag_75\n      jumpi\n      tag_76\n      tag_53\n      jump\t// in\n    tag_76:\n    tag_75:\n      dup2\n      mstore\n      0x20\n      add\n      0x01\n      dup3\n      add\n      0x01\n      swap1\n      sload\n      swap1\n      0x0100\n      exp\n      swap1\n      div\n      0xff\n      and\n      0x02\n      dup2\n      gt\n      iszero\n      tag_77\n      jumpi\n      tag_78\n      tag_53\n      jump\t// in\n    tag_78:\n    tag_77:\n      0x02\n      dup2\n      gt\n      iszero\n      tag_79\n      jumpi\n      tag_80\n      tag_53\n      jump\t// in\n    tag_80:\n    tag_79:\n      dup2\n      mstore\n      0x20\n      add\n      0x02\n      dup3\n      add\n      sload\n      dup2\n      mstore\n      0x20\n      add\n      0x03\n      dup3\n      add\n      sload\n      dup2\n      mstore\n      0x20\n      add\n      0x04\n      dup3\n      add\n      0x00\n      swap1\n      sload\n      swap1\n      0x0100\n      exp\n      swap1\n      div\n      0xffffffffffffffffffffffffffffffffffffffff\n      and\n      0xffffffffffffffffffffffffffffffffffffffff\n      and\n      0xffffffffffffffffffffffffffffffffffffffff\n      and\n      dup2\n      mstore\n      pop\n      pop\n        /* \"contracts/Regulator.sol\":1088:1097  usersTemp */\n      dup4\n        /* \"contracts/Regulator.sol\":1098:1103  count */\n      dup4\n        /* \"contracts/Regulator.sol\":1088:1104  usersTemp[count] */\n      dup2\n      mload\n      dup2\n      lt\n      tag_81\n      jumpi\n      tag_82\n      tag_56\n      jump\t// in\n    tag_82:\n    tag_81:\n      0x20\n      mul\n      0x20\n      add\n      add\n        /* \"contracts/Regulator.sol\":1088:1134  usersTemp[count] = UserIDsMapping[UsersIDs[i]] */\n      dup2\n      swap1\n      mstore\n      pop\n        /* \"contracts/Regulator.sol\":1162:1163  1 */\n      0x01\n        /* \"contracts/Regulator.sol\":1153:1163  count += 1 */\n      dup3\n      tag_83\n      swap2\n      swap1\n      tag_84\n      jump\t// in\n    tag_83:\n      swap2\n      pop\n        /* \"contracts/Regulator.sol\":1018:1179  if (UserIDsMapping[UsersIDs[i]].UserRole == _role) {\r... */\n    tag_62:\n        /* \"contracts/Regulator.sol\":998:1001  i++ */\n      dup1\n      dup1\n      tag_85\n      swap1\n      tag_86\n      jump\t// in\n    tag_85:\n      swap2\n      pop\n      pop\n        /* \"contracts/Regulator.sol\":962:1190  for (uint256 i = 0; i < usersCount; i++) {\r... */\n      jump(tag_48)\n    tag_49:\n      pop\n        /* \"contracts/Regulator.sol\":1229:1234  count */\n      dup1\n        /* \"contracts/Regulator.sol\":1218:1235  new User[](count) */\n      0xffffffffffffffff\n      dup2\n      gt\n      iszero\n      tag_87\n      jumpi\n      tag_88\n      tag_43\n      jump\t// in\n    tag_88:\n    tag_87:\n      mload(0x40)\n      swap1\n      dup1\n      dup3\n      mstore\n      dup1\n      0x20\n      mul\n      0x20\n      add\n      dup3\n      add\n      0x40\n      mstore\n      dup1\n      iszero\n      tag_89\n      jumpi\n      dup2\n      0x20\n      add\n    tag_90:\n      tag_91\n      tag_47\n      jump\t// in\n    tag_91:\n      dup2\n      mstore\n      0x20\n      add\n      swap1\n      0x01\n      swap1\n      sub\n      swap1\n      dup2\n      tag_90\n      jumpi\n      swap1\n      pop\n    tag_89:\n      pop\n        /* \"contracts/Regulator.sol\":1202:1235  filteredUsers = new User[](count) */\n      swap4\n      pop\n        /* \"contracts/Regulator.sol\":1251:1260  uint256 i */\n      0x00\n        /* \"contracts/Regulator.sol\":1246:1340  for (uint256 i = 0; i < count; i++) {\r... */\n    tag_92:\n        /* \"contracts/Regulator.sol\":1270:1275  count */\n      dup2\n        /* \"contracts/Regulator.sol\":1266:1267  i */\n      dup2\n        /* \"contracts/Regulator.sol\":1266:1275  i < count */\n      lt\n        /* \"contracts/Regulator.sol\":1246:1340  for (uint256 i = 0; i < count; i++) {\r... */\n      iszero\n      tag_93\n      jumpi\n        /* \"contracts/Regulator.sol\":1316:1325  usersTemp */\n      dup3\n        /* \"contracts/Regulator.sol\":1326:1327  i */\n      dup2\n        /* \"contracts/Regulator.sol\":1316:1328  usersTemp[i] */\n      dup2\n      mload\n      dup2\n      lt\n      tag_95\n      jumpi\n      tag_96\n      tag_56\n      jump\t// in\n    tag_96:\n    tag_95:\n      0x20\n      mul\n      0x20\n      add\n      add\n      mload\n        /* \"contracts/Regulator.sol\":1297:1310  filteredUsers */\n      dup6\n        /* \"contracts/Regulator.sol\":1311:1312  i */\n      dup3\n        /* \"contracts/Regulator.sol\":1297:1313  filteredUsers[i] */\n      dup2\n      mload\n      dup2\n      lt\n      tag_97\n      jumpi\n      tag_98\n      tag_56\n      jump\t// in\n    tag_98:\n    tag_97:\n      0x20\n      mul\n      0x20\n      add\n      add\n        /* \"contracts/Regulator.sol\":1297:1328  filteredUsers[i] = usersTemp[i] */\n      dup2\n      swap1\n      mstore\n      pop\n        /* \"contracts/Regulator.sol\":1277:1280  i++ */\n      dup1\n      dup1\n      tag_99\n      swap1\n      tag_86\n      jump\t// in\n    tag_99:\n      swap2\n      pop\n      pop\n        /* \"contracts/Regulator.sol\":1246:1340  for (uint256 i = 0; i < count; i++) {\r... */\n      jump(tag_92)\n    tag_93:\n      pop\n        /* \"contracts/Regulator.sol\":821:1347  {\r... */\n      pop\n      pop\n      pop\n        /* \"contracts/Regulator.sol\":698:1347  function GetUsersByType(UserRoles _role)\r... */\n      swap2\n      swap1\n      pop\n      jump\t// out\n        /* \"contracts/Regulator.sol\":483:689  function SetUserStatus(string memory _id, Statuses _status)\r... */\n    tag_18:\n        /* \"contracts/Regulator.sol\":597:601  bool */\n      0x00\n        /* \"contracts/Regulator.sol\":308:318  msg.sender */\n      caller\n        /* \"contracts/Regulator.sol\":299:318  Owner == msg.sender */\n      0xffffffffffffffffffffffffffffffffffffffff\n      and\n        /* \"contracts/Regulator.sol\":299:304  Owner */\n      0x04\n      0x00\n      swap1\n      sload\n      swap1\n      0x0100\n      exp\n      swap1\n      div\n      0xffffffffffffffffffffffffffffffffffffffff\n      and\n        /* \"contracts/Regulator.sol\":299:318  Owner == msg.sender */\n      0xffffffffffffffffffffffffffffffffffffffff\n      and\n      eq\n        /* \"contracts/Regulator.sol\":291:319  require(Owner == msg.sender) */\n      tag_101\n      jumpi\n      0x00\n      dup1\n      revert\n    tag_101:\n        /* \"contracts/Regulator.sol\":652:659  _status */\n      dup2\n        /* \"contracts/Regulator.sol\":619:633  UserIDsMapping */\n      0x00\n        /* \"contracts/Regulator.sol\":634:637  _id */\n      dup5\n        /* \"contracts/Regulator.sol\":619:638  UserIDsMapping[_id] */\n      mload(0x40)\n      tag_103\n      swap2\n      swap1\n      tag_104\n      jump\t// in\n    tag_103:\n      swap1\n      dup2\n      mstore\n      0x20\n      add\n      mload(0x40)\n      dup1\n      swap2\n      sub\n      swap1\n      keccak256\n        /* \"contracts/Regulator.sol\":619:649  UserIDsMapping[_id].UserStatus */\n      0x01\n      add\n      0x01\n        /* \"contracts/Regulator.sol\":619:659  UserIDsMapping[_id].UserStatus = _status */\n      0x0100\n      exp\n      dup2\n      sload\n      dup2\n      0xff\n      mul\n      not\n      and\n      swap1\n      dup4\n      0x02\n      dup2\n      gt\n      iszero\n      tag_105\n      jumpi\n      tag_106\n      tag_53\n      jump\t// in\n    tag_106:\n    tag_105:\n      mul\n      or\n      swap1\n      sstore\n      pop\n        /* \"contracts/Regulator.sol\":677:681  true */\n      0x01\n        /* \"contracts/Regulator.sol\":670:681  return true */\n      swap1\n      pop\n        /* \"contracts/Regulator.sol\":483:689  function SetUserStatus(string memory _id, Statuses _status)\r... */\n      swap3\n      swap2\n      pop\n      pop\n      jump\t// out\n        /* \"contracts/Regulator.sol\":1361:1575  function SetDrugStatus(string memory _regno, Statuses _status)\r... */\n    tag_23:\n        /* \"contracts/Regulator.sol\":1478:1482  bool */\n      0x00\n        /* \"contracts/Regulator.sol\":308:318  msg.sender */\n      caller\n        /* \"contracts/Regulator.sol\":299:318  Owner == msg.sender */\n      0xffffffffffffffffffffffffffffffffffffffff\n      and\n        /* \"contracts/Regulator.sol\":299:304  Owner */\n      0x04\n      0x00\n      swap1\n      sload\n      swap1\n      0x0100\n      exp\n      swap1\n      div\n      0xffffffffffffffffffffffffffffffffffffffff\n      and\n        /* \"contracts/Regulator.sol\":299:318  Owner == msg.sender */\n      0xffffffffffffffffffffffffffffffffffffffff\n      and\n      eq\n        /* \"contracts/Regulator.sol\":291:319  require(Owner == msg.sender) */\n      tag_108\n      jumpi\n      0x00\n      dup1\n      revert\n    tag_108:\n        /* \"contracts/Regulator.sol\":1538:1545  _status */\n      dup2\n        /* \"contracts/Regulator.sol\":1500:1516  DrugRegNoMapping */\n      0x02\n        /* \"contracts/Regulator.sol\":1517:1523  _regno */\n      dup5\n        /* \"contracts/Regulator.sol\":1500:1524  DrugRegNoMapping[_regno] */\n      mload(0x40)\n      tag_110\n      swap2\n      swap1\n      tag_104\n      jump\t// in\n    tag_110:\n      swap1\n      dup2\n      mstore\n      0x20\n      add\n      mload(0x40)\n      dup1\n      swap2\n      sub\n      swap1\n      keccak256\n        /* \"contracts/Regulator.sol\":1500:1535  DrugRegNoMapping[_regno].DrugStatus */\n      0x01\n      add\n      0x14\n        /* \"contracts/Regulator.sol\":1500:1545  DrugRegNoMapping[_regno].DrugStatus = _status */\n      0x0100\n      exp\n      dup2\n      sload\n      dup2\n      0xff\n      mul\n      not\n      and\n      swap1\n      dup4\n      0x02\n      dup2\n      gt\n      iszero\n      tag_111\n      jumpi\n      tag_112\n      tag_53\n      jump\t// in\n    tag_112:\n    tag_111:\n      mul\n      or\n      swap1\n      sstore\n      pop\n        /* \"contracts/Regulator.sol\":1563:1567  true */\n      0x01\n        /* \"contracts/Regulator.sol\":1556:1567  return true */\n      swap1\n      pop\n        /* \"contracts/Regulator.sol\":1361:1575  function SetDrugStatus(string memory _regno, Statuses _status)\r... */\n      swap3\n      swap2\n      pop\n      pop\n      jump\t// out\n        /* \"contracts/Regulator.sol\":359:475  function ReadUser(string memory _id) public view returns (User memory) {\r... */\n    tag_28:\n        /* \"contracts/Regulator.sol\":417:428  User memory */\n      tag_113\n      tag_47\n      jump\t// in\n    tag_113:\n        /* \"contracts/Regulator.sol\":448:462  UserIDsMapping */\n      0x00\n        /* \"contracts/Regulator.sol\":463:466  _id */\n      dup3\n        /* \"contracts/Regulator.sol\":448:467  UserIDsMapping[_id] */\n      mload(0x40)\n      tag_115\n      swap2\n      swap1\n      tag_104\n      jump\t// in\n    tag_115:\n      swap1\n      dup2\n      mstore\n      0x20\n      add\n      mload(0x40)\n      dup1\n      swap2\n      sub\n      swap1\n      keccak256\n        /* \"contracts/Regulator.sol\":441:467  return UserIDsMapping[_id] */\n      mload(0x40)\n      dup1\n      0xc0\n      add\n      0x40\n      mstore\n      swap1\n      dup2\n      0x00\n      dup3\n      add\n      dup1\n      sload\n      tag_116\n      swap1\n      tag_68\n      jump\t// in\n    tag_116:\n      dup1\n      0x1f\n      add\n      0x20\n      dup1\n      swap2\n      div\n      mul\n      0x20\n      add\n      mload(0x40)\n      swap1\n      dup2\n      add\n      0x40\n      mstore\n      dup1\n      swap3\n      swap2\n      swap1\n      dup2\n      dup2\n      mstore\n      0x20\n      add\n      dup3\n      dup1\n      sload\n      tag_117\n      swap1\n      tag_68\n      jump\t// in\n    tag_117:\n      dup1\n      iszero\n      tag_118\n      jumpi\n      dup1\n      0x1f\n      lt\n      tag_119\n      jumpi\n      0x0100\n      dup1\n      dup4\n      sload\n      div\n      mul\n      dup4\n      mstore\n      swap2\n      0x20\n      add\n      swap2\n      jump(tag_118)\n    tag_119:\n      dup3\n      add\n      swap2\n      swap1\n      0x00\n      mstore\n      keccak256(0x00, 0x20)\n      swap1\n    tag_120:\n      dup2\n      sload\n      dup2\n      mstore\n      swap1\n      0x01\n      add\n      swap1\n      0x20\n      add\n      dup1\n      dup4\n      gt\n      tag_120\n      jumpi\n      dup3\n      swap1\n      sub\n      0x1f\n      and\n      dup3\n      add\n      swap2\n    tag_118:\n      pop\n      pop\n      pop\n      pop\n      pop\n      dup2\n      mstore\n      0x20\n      add\n      0x01\n      dup3\n      add\n      0x00\n      swap1\n      sload\n      swap1\n      0x0100\n      exp\n      swap1\n      div\n      0xff\n      and\n      0x06\n      dup2\n      gt\n      iszero\n      tag_121\n      jumpi\n      tag_122\n      tag_53\n      jump\t// in\n    tag_122:\n    tag_121:\n      0x06\n      dup2\n      gt\n      iszero\n      tag_123\n      jumpi\n      tag_124\n      tag_53\n      jump\t// in\n    tag_124:\n    tag_123:\n      dup2\n      mstore\n      0x20\n      add\n      0x01\n      dup3\n      add\n      0x01\n      swap1\n      sload\n      swap1\n      0x0100\n      exp\n      swap1\n      div\n      0xff\n      and\n      0x02\n      dup2\n      gt\n      iszero\n      tag_125\n      jumpi\n      tag_126\n      tag_53\n      jump\t// in\n    tag_126:\n    tag_125:\n      0x02\n      dup2\n      gt\n      iszero\n      tag_127\n      jumpi\n      tag_128\n      tag_53\n      jump\t// in\n    tag_128:\n    tag_127:\n      dup2\n      mstore\n      0x20\n      add\n      0x02\n      dup3\n      add\n      sload\n      dup2\n      mstore\n      0x20\n      add\n      0x03\n      dup3\n      add\n      sload\n      dup2\n      mstore\n      0x20\n      add\n      0x04\n      dup3\n      add\n      0x00\n      swap1\n      sload\n      swap1\n      0x0100\n      exp\n      swap1\n      div\n      0xffffffffffffffffffffffffffffffffffffffff\n      and\n      0xffffffffffffffffffffffffffffffffffffffff\n      and\n      0xffffffffffffffffffffffffffffffffffffffff\n      and\n      dup2\n      mstore\n      pop\n      pop\n      swap1\n      pop\n        /* \"contracts/Regulator.sol\":359:475  function ReadUser(string memory _id) public view returns (User memory) {\r... */\n      swap2\n      swap1\n      pop\n      jump\t// out\n        /* \"contracts/Regulator.sol\":163:183  address public Owner */\n    tag_32:\n      0x04\n      0x00\n      swap1\n      sload\n      swap1\n      0x0100\n      exp\n      swap1\n      div\n      0xffffffffffffffffffffffffffffffffffffffff\n      and\n      dup2\n      jump\t// out\n        /* \"contracts/Utils.sol\":1072:1196  function ReadDrug(string memory _regno) public view returns (Drug memory) {\r... */\n    tag_37:\n        /* \"contracts/Utils.sol\":1133:1144  Drug memory */\n      tag_129\n      tag_130\n      jump\t// in\n    tag_129:\n        /* \"contracts/Utils.sol\":1164:1180  DrugRegNoMapping */\n      0x02\n        /* \"contracts/Utils.sol\":1181:1187  _regno */\n      dup3\n        /* \"contracts/Utils.sol\":1164:1188  DrugRegNoMapping[_regno] */\n      mload(0x40)\n      tag_132\n      swap2\n      swap1\n      tag_104\n      jump\t// in\n    tag_132:\n      swap1\n      dup2\n      mstore\n      0x20\n      add\n      mload(0x40)\n      dup1\n      swap2\n      sub\n      swap1\n      keccak256\n        /* \"contracts/Utils.sol\":1157:1188  return DrugRegNoMapping[_regno] */\n      mload(0x40)\n      dup1\n      0x60\n      add\n      0x40\n      mstore\n      swap1\n      dup2\n      0x00\n      dup3\n      add\n      dup1\n      sload\n      tag_133\n      swap1\n      tag_68\n      jump\t// in\n    tag_133:\n      dup1\n      0x1f\n      add\n      0x20\n      dup1\n      swap2\n      div\n      mul\n      0x20\n      add\n      mload(0x40)\n      swap1\n      dup2\n      add\n      0x40\n      mstore\n      dup1\n      swap3\n      swap2\n      swap1\n      dup2\n      dup2\n      mstore\n      0x20\n      add\n      dup3\n      dup1\n      sload\n      tag_134\n      swap1\n      tag_68\n      jump\t// in\n    tag_134:\n      dup1\n      iszero\n      tag_135\n      jumpi\n      dup1\n      0x1f\n      lt\n      tag_136\n      jumpi\n      0x0100\n      dup1\n      dup4\n      sload\n      div\n      mul\n      dup4\n      mstore\n      swap2\n      0x20\n      add\n      swap2\n      jump(tag_135)\n    tag_136:\n      dup3\n      add\n      swap2\n      swap1\n      0x00\n      mstore\n      keccak256(0x00, 0x20)\n      swap1\n    tag_137:\n      dup2\n      sload\n      dup2\n      mstore\n      swap1\n      0x01\n      add\n      swap1\n      0x20\n      add\n      dup1\n      dup4\n      gt\n      tag_137\n      jumpi\n      dup3\n      swap1\n      sub\n      0x1f\n      and\n      dup3\n      add\n      swap2\n    tag_135:\n      pop\n      pop\n      pop\n      pop\n      pop\n      dup2\n      mstore\n      0x20\n      add\n      0x01\n      dup3\n      add\n      0x00\n      swap1\n      sload\n      swap1\n      0x0100\n      exp\n      swap1\n      div\n      0xffffffffffffffffffffffffffffffffffffffff\n      and\n      0xffffffffffffffffffffffffffffffffffffffff\n      and\n      0xffffffffffffffffffffffffffffffffffffffff\n      and\n      dup2\n      mstore\n      0x20\n      add\n      0x01\n      dup3\n      add\n      0x14\n      swap1\n      sload\n      swap1\n      0x0100\n      exp\n      swap1\n      div\n      0xff\n      and\n      0x02\n      dup2\n      gt\n      iszero\n      tag_138\n      jumpi\n      tag_139\n      tag_53\n      jump\t// in\n    tag_139:\n    tag_138:\n      0x02\n      dup2\n      gt\n      iszero\n      tag_140\n      jumpi\n      tag_141\n      tag_53\n      jump\t// in\n    tag_141:\n    tag_140:\n      dup2\n      mstore\n      pop\n      pop\n      swap1\n      pop\n        /* \"contracts/Utils.sol\":1072:1196  function ReadDrug(string memory _regno) public view returns (Drug memory) {\r... */\n      swap2\n      swap1\n      pop\n      jump\t// out\n    tag_47:\n      mload(0x40)\n      dup1\n      0xc0\n      add\n      0x40\n      mstore\n      dup1\n      0x60\n      dup2\n      mstore\n      0x20\n      add\n      0x00\n      0x06\n      dup2\n      gt\n      iszero\n      tag_142\n      jumpi\n      tag_143\n      tag_53\n      jump\t// in\n    tag_143:\n    tag_142:\n      dup2\n      mstore\n      0x20\n      add\n      0x00\n      0x02\n      dup2\n      gt\n      iszero\n      tag_144\n      jumpi\n      tag_145\n      tag_53\n      jump\t// in\n    tag_145:\n    tag_144:\n      dup2\n      mstore\n      0x20\n      add\n      0x00\n      dup2\n      mstore\n      0x20\n      add\n      0x00\n      dup2\n      mstore\n      0x20\n      add\n      and(0xffffffffffffffffffffffffffffffffffffffff, 0x00)\n      dup2\n      mstore\n      pop\n      swap1\n      jump\t// out\n    tag_130:\n      mload(0x40)\n      dup1\n      0x60\n      add\n      0x40\n      mstore\n      dup1\n      0x60\n      dup2\n      mstore\n      0x20\n      add\n      and(0xffffffffffffffffffffffffffffffffffffffff, 0x00)\n      dup2\n      mstore\n      0x20\n      add\n      0x00\n      0x02\n      dup2\n      gt\n      iszero\n      tag_146\n      jumpi\n      tag_147\n      tag_53\n      jump\t// in\n    tag_147:\n    tag_146:\n      dup2\n      mstore\n      pop\n      swap1\n      jump\t// out\n        /* \"#utility.yul\":7:419   */\n    tag_149:\n        /* \"#utility.yul\":85:90   */\n      0x00\n        /* \"#utility.yul\":110:176   */\n      tag_151\n        /* \"#utility.yul\":126:175   */\n      tag_152\n        /* \"#utility.yul\":168:174   */\n      dup5\n        /* \"#utility.yul\":126:175   */\n      tag_153\n      jump\t// in\n    tag_152:\n        /* \"#utility.yul\":110:176   */\n      tag_154\n      jump\t// in\n    tag_151:\n        /* \"#utility.yul\":101:176   */\n      swap1\n      pop\n        /* \"#utility.yul\":199:205   */\n      dup3\n        /* \"#utility.yul\":192:197   */\n      dup2\n        /* \"#utility.yul\":185:206   */\n      mstore\n        /* \"#utility.yul\":237:241   */\n      0x20\n        /* \"#utility.yul\":230:235   */\n      dup2\n        /* \"#utility.yul\":226:242   */\n      add\n        /* \"#utility.yul\":275:278   */\n      dup5\n        /* \"#utility.yul\":266:272   */\n      dup5\n        /* \"#utility.yul\":261:264   */\n      dup5\n        /* \"#utility.yul\":257:273   */\n      add\n        /* \"#utility.yul\":254:279   */\n      gt\n        /* \"#utility.yul\":251:363   */\n      iszero\n      tag_155\n      jumpi\n        /* \"#utility.yul\":282:361   */\n      tag_156\n      tag_157\n      jump\t// in\n    tag_156:\n        /* \"#utility.yul\":251:363   */\n    tag_155:\n        /* \"#utility.yul\":372:413   */\n      tag_158\n        /* \"#utility.yul\":406:412   */\n      dup5\n        /* \"#utility.yul\":401:404   */\n      dup3\n        /* \"#utility.yul\":396:399   */\n      dup6\n        /* \"#utility.yul\":372:413   */\n      tag_159\n      jump\t// in\n    tag_158:\n        /* \"#utility.yul\":91:419   */\n      pop\n        /* \"#utility.yul\":7:419   */\n      swap4\n      swap3\n      pop\n      pop\n      pop\n      jump\t// out\n        /* \"#utility.yul\":425:588   */\n    tag_160:\n        /* \"#utility.yul\":483:488   */\n      0x00\n        /* \"#utility.yul\":521:527   */\n      dup2\n        /* \"#utility.yul\":508:528   */\n      calldataload\n        /* \"#utility.yul\":499:528   */\n      swap1\n      pop\n        /* \"#utility.yul\":537:582   */\n      tag_162\n        /* \"#utility.yul\":576:581   */\n      dup2\n        /* \"#utility.yul\":537:582   */\n      tag_163\n      jump\t// in\n    tag_162:\n        /* \"#utility.yul\":425:588   */\n      swap3\n      swap2\n      pop\n      pop\n      jump\t// out\n        /* \"#utility.yul\":594:759   */\n    tag_164:\n        /* \"#utility.yul\":653:658   */\n      0x00\n        /* \"#utility.yul\":691:697   */\n      dup2\n        /* \"#utility.yul\":678:698   */\n      calldataload\n        /* \"#utility.yul\":669:698   */\n      swap1\n      pop\n        /* \"#utility.yul\":707:753   */\n      tag_166\n        /* \"#utility.yul\":747:752   */\n      dup2\n        /* \"#utility.yul\":707:753   */\n      tag_167\n      jump\t// in\n    tag_166:\n        /* \"#utility.yul\":594:759   */\n      swap3\n      swap2\n      pop\n      pop\n      jump\t// out\n        /* \"#utility.yul\":779:1119   */\n    tag_168:\n        /* \"#utility.yul\":835:840   */\n      0x00\n        /* \"#utility.yul\":884:887   */\n      dup3\n        /* \"#utility.yul\":877:881   */\n      0x1f\n        /* \"#utility.yul\":869:875   */\n      dup4\n        /* \"#utility.yul\":865:882   */\n      add\n        /* \"#utility.yul\":861:888   */\n      slt\n        /* \"#utility.yul\":851:973   */\n      tag_170\n      jumpi\n        /* \"#utility.yul\":892:971   */\n      tag_171\n      tag_172\n      jump\t// in\n    tag_171:\n        /* \"#utility.yul\":851:973   */\n    tag_170:\n        /* \"#utility.yul\":1009:1015   */\n      dup2\n        /* \"#utility.yul\":996:1016   */\n      calldataload\n        /* \"#utility.yul\":1034:1113   */\n      tag_173\n        /* \"#utility.yul\":1109:1112   */\n      dup5\n        /* \"#utility.yul\":1101:1107   */\n      dup3\n        /* \"#utility.yul\":1094:1098   */\n      0x20\n        /* \"#utility.yul\":1086:1092   */\n      dup7\n        /* \"#utility.yul\":1082:1099   */\n      add\n        /* \"#utility.yul\":1034:1113   */\n      tag_149\n      jump\t// in\n    tag_173:\n        /* \"#utility.yul\":1025:1113   */\n      swap2\n      pop\n        /* \"#utility.yul\":841:1119   */\n      pop\n        /* \"#utility.yul\":779:1119   */\n      swap3\n      swap2\n      pop\n      pop\n      jump\t// out\n        /* \"#utility.yul\":1125:1480   */\n    tag_11:\n        /* \"#utility.yul\":1197:1203   */\n      0x00\n        /* \"#utility.yul\":1246:1248   */\n      0x20\n        /* \"#utility.yul\":1234:1243   */\n      dup3\n        /* \"#utility.yul\":1225:1232   */\n      dup5\n        /* \"#utility.yul\":1221:1244   */\n      sub\n        /* \"#utility.yul\":1217:1249   */\n      slt\n        /* \"#utility.yul\":1214:1333   */\n      iszero\n      tag_175\n      jumpi\n        /* \"#utility.yul\":1252:1331   */\n      tag_176\n      tag_177\n      jump\t// in\n    tag_176:\n        /* \"#utility.yul\":1214:1333   */\n    tag_175:\n        /* \"#utility.yul\":1372:1373   */\n      0x00\n        /* \"#utility.yul\":1397:1463   */\n      tag_178\n        /* \"#utility.yul\":1455:1462   */\n      dup5\n        /* \"#utility.yul\":1446:1452   */\n      dup3\n        /* \"#utility.yul\":1435:1444   */\n      dup6\n        /* \"#utility.yul\":1431:1453   */\n      add\n        /* \"#utility.yul\":1397:1463   */\n      tag_164\n      jump\t// in\n    tag_178:\n        /* \"#utility.yul\":1387:1463   */\n      swap2\n      pop\n        /* \"#utility.yul\":1343:1473   */\n      pop\n        /* \"#utility.yul\":1125:1480   */\n      swap3\n      swap2\n      pop\n      pop\n      jump\t// out\n        /* \"#utility.yul\":1486:1995   */\n    tag_27:\n        /* \"#utility.yul\":1555:1561   */\n      0x00\n        /* \"#utility.yul\":1604:1606   */\n      0x20\n        /* \"#utility.yul\":1592:1601   */\n      dup3\n        /* \"#utility.yul\":1583:1590   */\n      dup5\n        /* \"#utility.yul\":1579:1602   */\n      sub\n        /* \"#utility.yul\":1575:1607   */\n      slt\n        /* \"#utility.yul\":1572:1691   */\n      iszero\n      tag_180\n      jumpi\n        /* \"#utility.yul\":1610:1689   */\n      tag_181\n      tag_177\n      jump\t// in\n    tag_181:\n        /* \"#utility.yul\":1572:1691   */\n    tag_180:\n        /* \"#utility.yul\":1758:1759   */\n      0x00\n        /* \"#utility.yul\":1747:1756   */\n      dup3\n        /* \"#utility.yul\":1743:1760   */\n      add\n        /* \"#utility.yul\":1730:1761   */\n      calldataload\n        /* \"#utility.yul\":1788:1806   */\n      0xffffffffffffffff\n        /* \"#utility.yul\":1780:1786   */\n      dup2\n        /* \"#utility.yul\":1777:1807   */\n      gt\n        /* \"#utility.yul\":1774:1891   */\n      iszero\n      tag_182\n      jumpi\n        /* \"#utility.yul\":1810:1889   */\n      tag_183\n      tag_184\n      jump\t// in\n    tag_183:\n        /* \"#utility.yul\":1774:1891   */\n    tag_182:\n        /* \"#utility.yul\":1915:1978   */\n      tag_185\n        /* \"#utility.yul\":1970:1977   */\n      dup5\n        /* \"#utility.yul\":1961:1967   */\n      dup3\n        /* \"#utility.yul\":1950:1959   */\n      dup6\n        /* \"#utility.yul\":1946:1968   */\n      add\n        /* \"#utility.yul\":1915:1978   */\n      tag_168\n      jump\t// in\n    tag_185:\n        /* \"#utility.yul\":1905:1978   */\n      swap2\n      pop\n        /* \"#utility.yul\":1701:1988   */\n      pop\n        /* \"#utility.yul\":1486:1995   */\n      swap3\n      swap2\n      pop\n      pop\n      jump\t// out\n        /* \"#utility.yul\":2001:2679   */\n    tag_17:\n        /* \"#utility.yul\":2091:2097   */\n      0x00\n        /* \"#utility.yul\":2099:2105   */\n      dup1\n        /* \"#utility.yul\":2148:2150   */\n      0x40\n        /* \"#utility.yul\":2136:2145   */\n      dup4\n        /* \"#utility.yul\":2127:2134   */\n      dup6\n        /* \"#utility.yul\":2123:2146   */\n      sub\n        /* \"#utility.yul\":2119:2151   */\n      slt\n        /* \"#utility.yul\":2116:2235   */\n      iszero\n      tag_187\n      jumpi\n        /* \"#utility.yul\":2154:2233   */\n      tag_188\n      tag_177\n      jump\t// in\n    tag_188:\n        /* \"#utility.yul\":2116:2235   */\n    tag_187:\n        /* \"#utility.yul\":2302:2303   */\n      0x00\n        /* \"#utility.yul\":2291:2300   */\n      dup4\n        /* \"#utility.yul\":2287:2304   */\n      add\n        /* \"#utility.yul\":2274:2305   */\n      calldataload\n        /* \"#utility.yul\":2332:2350   */\n      0xffffffffffffffff\n        /* \"#utility.yul\":2324:2330   */\n      dup2\n        /* \"#utility.yul\":2321:2351   */\n      gt\n        /* \"#utility.yul\":2318:2435   */\n      iszero\n      tag_189\n      jumpi\n        /* \"#utility.yul\":2354:2433   */\n      tag_190\n      tag_184\n      jump\t// in\n    tag_190:\n        /* \"#utility.yul\":2318:2435   */\n    tag_189:\n        /* \"#utility.yul\":2459:2522   */\n      tag_191\n        /* \"#utility.yul\":2514:2521   */\n      dup6\n        /* \"#utility.yul\":2505:2511   */\n      dup3\n        /* \"#utility.yul\":2494:2503   */\n      dup7\n        /* \"#utility.yul\":2490:2512   */\n      add\n        /* \"#utility.yul\":2459:2522   */\n      tag_168\n      jump\t// in\n    tag_191:\n        /* \"#utility.yul\":2449:2522   */\n      swap3\n      pop\n        /* \"#utility.yul\":2245:2532   */\n      pop\n        /* \"#utility.yul\":2571:2573   */\n      0x20\n        /* \"#utility.yul\":2597:2662   */\n      tag_192\n        /* \"#utility.yul\":2654:2661   */\n      dup6\n        /* \"#utility.yul\":2645:2651   */\n      dup3\n        /* \"#utility.yul\":2634:2643   */\n      dup7\n        /* \"#utility.yul\":2630:2652   */\n      add\n        /* \"#utility.yul\":2597:2662   */\n      tag_160\n      jump\t// in\n    tag_192:\n        /* \"#utility.yul\":2587:2662   */\n      swap2\n      pop\n        /* \"#utility.yul\":2542:2672   */\n      pop\n        /* \"#utility.yul\":2001:2679   */\n      swap3\n      pop\n      swap3\n      swap1\n      pop\n      jump\t// out\n        /* \"#utility.yul\":2685:2925   */\n    tag_193:\n        /* \"#utility.yul\":2796:2806   */\n      0x00\n        /* \"#utility.yul\":2831:2919   */\n      tag_195\n        /* \"#utility.yul\":2915:2918   */\n      dup4\n        /* \"#utility.yul\":2907:2913   */\n      dup4\n        /* \"#utility.yul\":2831:2919   */\n      tag_196\n      jump\t// in\n    tag_195:\n        /* \"#utility.yul\":2817:2919   */\n      swap1\n      pop\n        /* \"#utility.yul\":2685:2925   */\n      swap3\n      swap2\n      pop\n      pop\n      jump\t// out\n        /* \"#utility.yul\":2931:3039   */\n    tag_197:\n        /* \"#utility.yul\":3008:3032   */\n      tag_199\n        /* \"#utility.yul\":3026:3031   */\n      dup2\n        /* \"#utility.yul\":3008:3032   */\n      tag_200\n      jump\t// in\n    tag_199:\n        /* \"#utility.yul\":3003:3006   */\n      dup3\n        /* \"#utility.yul\":2996:3033   */\n      mstore\n        /* \"#utility.yul\":2931:3039   */\n      pop\n      pop\n      jump\t// out\n        /* \"#utility.yul\":3045:3163   */\n    tag_201:\n        /* \"#utility.yul\":3132:3156   */\n      tag_203\n        /* \"#utility.yul\":3150:3155   */\n      dup2\n        /* \"#utility.yul\":3132:3156   */\n      tag_200\n      jump\t// in\n    tag_203:\n        /* \"#utility.yul\":3127:3130   */\n      dup3\n        /* \"#utility.yul\":3120:3157   */\n      mstore\n        /* \"#utility.yul\":3045:3163   */\n      pop\n      pop\n      jump\t// out\n        /* \"#utility.yul\":3219:4298   */\n    tag_204:\n        /* \"#utility.yul\":3380:3383   */\n      0x00\n        /* \"#utility.yul\":3409:3484   */\n      tag_206\n        /* \"#utility.yul\":3478:3483   */\n      dup3\n        /* \"#utility.yul\":3409:3484   */\n      tag_207\n      jump\t// in\n    tag_206:\n        /* \"#utility.yul\":3500:3607   */\n      tag_208\n        /* \"#utility.yul\":3600:3606   */\n      dup2\n        /* \"#utility.yul\":3595:3598   */\n      dup6\n        /* \"#utility.yul\":3500:3607   */\n      tag_209\n      jump\t// in\n    tag_208:\n        /* \"#utility.yul\":3493:3607   */\n      swap4\n      pop\n        /* \"#utility.yul\":3633:3636   */\n      dup4\n        /* \"#utility.yul\":3678:3682   */\n      0x20\n        /* \"#utility.yul\":3670:3676   */\n      dup3\n        /* \"#utility.yul\":3666:3683   */\n      mul\n        /* \"#utility.yul\":3661:3664   */\n      dup6\n        /* \"#utility.yul\":3657:3684   */\n      add\n        /* \"#utility.yul\":3708:3785   */\n      tag_210\n        /* \"#utility.yul\":3779:3784   */\n      dup6\n        /* \"#utility.yul\":3708:3785   */\n      tag_211\n      jump\t// in\n    tag_210:\n        /* \"#utility.yul\":3808:3815   */\n      dup1\n        /* \"#utility.yul\":3839:3840   */\n      0x00\n        /* \"#utility.yul\":3824:4253   */\n    tag_212:\n        /* \"#utility.yul\":3849:3855   */\n      dup6\n        /* \"#utility.yul\":3846:3847   */\n      dup2\n        /* \"#utility.yul\":3843:3856   */\n      lt\n        /* \"#utility.yul\":3824:4253   */\n      iszero\n      tag_214\n      jumpi\n        /* \"#utility.yul\":3920:3929   */\n      dup5\n        /* \"#utility.yul\":3914:3918   */\n      dup5\n        /* \"#utility.yul\":3910:3930   */\n      sub\n        /* \"#utility.yul\":3905:3908   */\n      dup10\n        /* \"#utility.yul\":3898:3931   */\n      mstore\n        /* \"#utility.yul\":3971:3977   */\n      dup2\n        /* \"#utility.yul\":3965:3978   */\n      mload\n        /* \"#utility.yul\":3999:4105   */\n      tag_215\n        /* \"#utility.yul\":4100:4104   */\n      dup6\n        /* \"#utility.yul\":4085:4098   */\n      dup3\n        /* \"#utility.yul\":3999:4105   */\n      tag_193\n      jump\t// in\n    tag_215:\n        /* \"#utility.yul\":3991:4105   */\n      swap5\n      pop\n        /* \"#utility.yul\":4128:4209   */\n      tag_216\n        /* \"#utility.yul\":4202:4208   */\n      dup4\n        /* \"#utility.yul\":4128:4209   */\n      tag_217\n      jump\t// in\n    tag_216:\n        /* \"#utility.yul\":4118:4209   */\n      swap3\n      pop\n        /* \"#utility.yul\":4238:4242   */\n      0x20\n        /* \"#utility.yul\":4233:4236   */\n      dup11\n        /* \"#utility.yul\":4229:4243   */\n      add\n        /* \"#utility.yul\":4222:4243   */\n      swap10\n      pop\n        /* \"#utility.yul\":3884:4253   */\n      pop\n        /* \"#utility.yul\":3871:3872   */\n      0x01\n        /* \"#utility.yul\":3868:3869   */\n      dup2\n        /* \"#utility.yul\":3864:3873   */\n      add\n        /* \"#utility.yul\":3859:3873   */\n      swap1\n      pop\n        /* \"#utility.yul\":3824:4253   */\n      jump(tag_212)\n    tag_214:\n        /* \"#utility.yul\":3828:3842   */\n      pop\n        /* \"#utility.yul\":4269:4273   */\n      dup3\n        /* \"#utility.yul\":4262:4273   */\n      swap8\n      pop\n        /* \"#utility.yul\":4289:4292   */\n      dup8\n        /* \"#utility.yul\":4282:4292   */\n      swap6\n      pop\n        /* \"#utility.yul\":3385:4298   */\n      pop\n      pop\n      pop\n      pop\n      pop\n        /* \"#utility.yul\":3219:4298   */\n      swap3\n      swap2\n      pop\n      pop\n      jump\t// out\n        /* \"#utility.yul\":4304:4413   */\n    tag_218:\n        /* \"#utility.yul\":4385:4406   */\n      tag_220\n        /* \"#utility.yul\":4400:4405   */\n      dup2\n        /* \"#utility.yul\":4385:4406   */\n      tag_221\n      jump\t// in\n    tag_220:\n        /* \"#utility.yul\":4380:4383   */\n      dup3\n        /* \"#utility.yul\":4373:4407   */\n      mstore\n        /* \"#utility.yul\":4304:4413   */\n      pop\n      pop\n      jump\t// out\n        /* \"#utility.yul\":4419:4560   */\n    tag_222:\n        /* \"#utility.yul\":4506:4553   */\n      tag_224\n        /* \"#utility.yul\":4547:4552   */\n      dup2\n        /* \"#utility.yul\":4506:4553   */\n      tag_225\n      jump\t// in\n    tag_224:\n        /* \"#utility.yul\":4501:4504   */\n      dup3\n        /* \"#utility.yul\":4494:4554   */\n      mstore\n        /* \"#utility.yul\":4419:4560   */\n      pop\n      pop\n      jump\t// out\n        /* \"#utility.yul\":4566:4709   */\n    tag_226:\n        /* \"#utility.yul\":4654:4702   */\n      tag_228\n        /* \"#utility.yul\":4696:4701   */\n      dup2\n        /* \"#utility.yul\":4654:4702   */\n      tag_229\n      jump\t// in\n    tag_228:\n        /* \"#utility.yul\":4649:4652   */\n      dup3\n        /* \"#utility.yul\":4642:4703   */\n      mstore\n        /* \"#utility.yul\":4566:4709   */\n      pop\n      pop\n      jump\t// out\n        /* \"#utility.yul\":4715:5059   */\n    tag_230:\n        /* \"#utility.yul\":4793:4796   */\n      0x00\n        /* \"#utility.yul\":4821:4860   */\n      tag_232\n        /* \"#utility.yul\":4854:4859   */\n      dup3\n        /* \"#utility.yul\":4821:4860   */\n      tag_233\n      jump\t// in\n    tag_232:\n        /* \"#utility.yul\":4876:4937   */\n      tag_234\n        /* \"#utility.yul\":4930:4936   */\n      dup2\n        /* \"#utility.yul\":4925:4928   */\n      dup6\n        /* \"#utility.yul\":4876:4937   */\n      tag_235\n      jump\t// in\n    tag_234:\n        /* \"#utility.yul\":4869:4937   */\n      swap4\n      pop\n        /* \"#utility.yul\":4946:4998   */\n      tag_236\n        /* \"#utility.yul\":4991:4997   */\n      dup2\n        /* \"#utility.yul\":4986:4989   */\n      dup6\n        /* \"#utility.yul\":4979:4983   */\n      0x20\n        /* \"#utility.yul\":4972:4977   */\n      dup7\n        /* \"#utility.yul\":4968:4984   */\n      add\n        /* \"#utility.yul\":4946:4998   */\n      tag_237\n      jump\t// in\n    tag_236:\n        /* \"#utility.yul\":5023:5052   */\n      tag_238\n        /* \"#utility.yul\":5045:5051   */\n      dup2\n        /* \"#utility.yul\":5023:5052   */\n      tag_239\n      jump\t// in\n    tag_238:\n        /* \"#utility.yul\":5018:5021   */\n      dup5\n        /* \"#utility.yul\":5014:5053   */\n      add\n        /* \"#utility.yul\":5007:5053   */\n      swap2\n      pop\n        /* \"#utility.yul\":4797:5059   */\n      pop\n        /* \"#utility.yul\":4715:5059   */\n      swap3\n      swap2\n      pop\n      pop\n      jump\t// out\n        /* \"#utility.yul\":5065:5442   */\n    tag_240:\n        /* \"#utility.yul\":5171:5174   */\n      0x00\n        /* \"#utility.yul\":5199:5238   */\n      tag_242\n        /* \"#utility.yul\":5232:5237   */\n      dup3\n        /* \"#utility.yul\":5199:5238   */\n      tag_233\n      jump\t// in\n    tag_242:\n        /* \"#utility.yul\":5254:5343   */\n      tag_243\n        /* \"#utility.yul\":5336:5342   */\n      dup2\n        /* \"#utility.yul\":5331:5334   */\n      dup6\n        /* \"#utility.yul\":5254:5343   */\n      tag_244\n      jump\t// in\n    tag_243:\n        /* \"#utility.yul\":5247:5343   */\n      swap4\n      pop\n        /* \"#utility.yul\":5352:5404   */\n      tag_245\n        /* \"#utility.yul\":5397:5403   */\n      dup2\n        /* \"#utility.yul\":5392:5395   */\n      dup6\n        /* \"#utility.yul\":5385:5389   */\n      0x20\n        /* \"#utility.yul\":5378:5383   */\n      dup7\n        /* \"#utility.yul\":5374:5390   */\n      add\n        /* \"#utility.yul\":5352:5404   */\n      tag_237\n      jump\t// in\n    tag_245:\n        /* \"#utility.yul\":5429:5435   */\n      dup1\n        /* \"#utility.yul\":5424:5427   */\n      dup5\n        /* \"#utility.yul\":5420:5436   */\n      add\n        /* \"#utility.yul\":5413:5436   */\n      swap2\n      pop\n        /* \"#utility.yul\":5175:5442   */\n      pop\n        /* \"#utility.yul\":5065:5442   */\n      swap3\n      swap2\n      pop\n      pop\n      jump\t// out\n        /* \"#utility.yul\":5472:6317   */\n    tag_246:\n        /* \"#utility.yul\":5575:5578   */\n      0x00\n        /* \"#utility.yul\":5612:5617   */\n      dup2\n        /* \"#utility.yul\":5606:5618   */\n      sload\n        /* \"#utility.yul\":5641:5677   */\n      tag_248\n        /* \"#utility.yul\":5667:5676   */\n      dup2\n        /* \"#utility.yul\":5641:5677   */\n      tag_68\n      jump\t// in\n    tag_248:\n        /* \"#utility.yul\":5693:5782   */\n      tag_249\n        /* \"#utility.yul\":5775:5781   */\n      dup2\n        /* \"#utility.yul\":5770:5773   */\n      dup7\n        /* \"#utility.yul\":5693:5782   */\n      tag_244\n      jump\t// in\n    tag_249:\n        /* \"#utility.yul\":5686:5782   */\n      swap5\n      pop\n        /* \"#utility.yul\":5813:5814   */\n      0x01\n        /* \"#utility.yul\":5802:5811   */\n      dup3\n        /* \"#utility.yul\":5798:5815   */\n      and\n        /* \"#utility.yul\":5829:5830   */\n      0x00\n        /* \"#utility.yul\":5824:5961   */\n      dup2\n      eq\n      tag_251\n      jumpi\n        /* \"#utility.yul\":5975:5976   */\n      0x01\n        /* \"#utility.yul\":5970:6311   */\n      dup2\n      eq\n      tag_252\n      jumpi\n        /* \"#utility.yul\":5791:6311   */\n      jump(tag_250)\n        /* \"#utility.yul\":5824:5961   */\n    tag_251:\n        /* \"#utility.yul\":5908:5912   */\n      0xff\n        /* \"#utility.yul\":5904:5913   */\n      not\n        /* \"#utility.yul\":5893:5902   */\n      dup4\n        /* \"#utility.yul\":5889:5914   */\n      and\n        /* \"#utility.yul\":5884:5887   */\n      dup7\n        /* \"#utility.yul\":5877:5915   */\n      mstore\n        /* \"#utility.yul\":5944:5950   */\n      dup2\n        /* \"#utility.yul\":5939:5942   */\n      dup7\n        /* \"#utility.yul\":5935:5951   */\n      add\n        /* \"#utility.yul\":5928:5951   */\n      swap4\n      pop\n        /* \"#utility.yul\":5824:5961   */\n      jump(tag_250)\n        /* \"#utility.yul\":5970:6311   */\n    tag_252:\n        /* \"#utility.yul\":6037:6075   */\n      tag_253\n        /* \"#utility.yul\":6069:6074   */\n      dup6\n        /* \"#utility.yul\":6037:6075   */\n      tag_254\n      jump\t// in\n    tag_253:\n        /* \"#utility.yul\":6097:6098   */\n      0x00\n        /* \"#utility.yul\":6111:6265   */\n    tag_255:\n        /* \"#utility.yul\":6125:6131   */\n      dup4\n        /* \"#utility.yul\":6122:6123   */\n      dup2\n        /* \"#utility.yul\":6119:6132   */\n      lt\n        /* \"#utility.yul\":6111:6265   */\n      iszero\n      tag_257\n      jumpi\n        /* \"#utility.yul\":6199:6206   */\n      dup2\n        /* \"#utility.yul\":6193:6207   */\n      sload\n        /* \"#utility.yul\":6189:6190   */\n      dup2\n        /* \"#utility.yul\":6184:6187   */\n      dup10\n        /* \"#utility.yul\":6180:6191   */\n      add\n        /* \"#utility.yul\":6173:6208   */\n      mstore\n        /* \"#utility.yul\":6249:6250   */\n      0x01\n        /* \"#utility.yul\":6240:6247   */\n      dup3\n        /* \"#utility.yul\":6236:6251   */\n      add\n        /* \"#utility.yul\":6225:6251   */\n      swap2\n      pop\n        /* \"#utility.yul\":6147:6151   */\n      0x20\n        /* \"#utility.yul\":6144:6145   */\n      dup2\n        /* \"#utility.yul\":6140:6152   */\n      add\n        /* \"#utility.yul\":6135:6152   */\n      swap1\n      pop\n        /* \"#utility.yul\":6111:6265   */\n      jump(tag_255)\n    tag_257:\n        /* \"#utility.yul\":6294:6300   */\n      dup4\n        /* \"#utility.yul\":6289:6292   */\n      dup9\n        /* \"#utility.yul\":6285:6301   */\n      add\n        /* \"#utility.yul\":6278:6301   */\n      swap6\n      pop\n        /* \"#utility.yul\":5977:6311   */\n      pop\n      pop\n        /* \"#utility.yul\":5791:6311   */\n    tag_250:\n      pop\n        /* \"#utility.yul\":5579:6317   */\n      pop\n      pop\n        /* \"#utility.yul\":5472:6317   */\n      swap3\n      swap2\n      pop\n      pop\n      jump\t// out\n        /* \"#utility.yul\":6369:7169   */\n    tag_258:\n        /* \"#utility.yul\":6480:6483   */\n      0x00\n        /* \"#utility.yul\":6516:6520   */\n      0x60\n        /* \"#utility.yul\":6511:6514   */\n      dup4\n        /* \"#utility.yul\":6507:6521   */\n      add\n        /* \"#utility.yul\":6607:6611   */\n      0x00\n        /* \"#utility.yul\":6600:6605   */\n      dup4\n        /* \"#utility.yul\":6596:6612   */\n      add\n        /* \"#utility.yul\":6590:6613   */\n      mload\n        /* \"#utility.yul\":6660:6663   */\n      dup5\n        /* \"#utility.yul\":6654:6658   */\n      dup3\n        /* \"#utility.yul\":6650:6664   */\n      sub\n        /* \"#utility.yul\":6643:6647   */\n      0x00\n        /* \"#utility.yul\":6638:6641   */\n      dup7\n        /* \"#utility.yul\":6634:6648   */\n      add\n        /* \"#utility.yul\":6627:6665   */\n      mstore\n        /* \"#utility.yul\":6686:6759   */\n      tag_260\n        /* \"#utility.yul\":6754:6758   */\n      dup3\n        /* \"#utility.yul\":6740:6752   */\n      dup3\n        /* \"#utility.yul\":6686:6759   */\n      tag_230\n      jump\t// in\n    tag_260:\n        /* \"#utility.yul\":6678:6759   */\n      swap2\n      pop\n        /* \"#utility.yul\":6531:6770   */\n      pop\n        /* \"#utility.yul\":6860:6864   */\n      0x20\n        /* \"#utility.yul\":6853:6858   */\n      dup4\n        /* \"#utility.yul\":6849:6865   */\n      add\n        /* \"#utility.yul\":6843:6866   */\n      mload\n        /* \"#utility.yul\":6879:6942   */\n      tag_261\n        /* \"#utility.yul\":6936:6940   */\n      0x20\n        /* \"#utility.yul\":6931:6934   */\n      dup7\n        /* \"#utility.yul\":6927:6941   */\n      add\n        /* \"#utility.yul\":6913:6925   */\n      dup3\n        /* \"#utility.yul\":6879:6942   */\n      tag_197\n      jump\t// in\n    tag_261:\n        /* \"#utility.yul\":6780:6952   */\n      pop\n        /* \"#utility.yul\":7040:7044   */\n      0x40\n        /* \"#utility.yul\":7033:7038   */\n      dup4\n        /* \"#utility.yul\":7029:7045   */\n      add\n        /* \"#utility.yul\":7023:7046   */\n      mload\n        /* \"#utility.yul\":7059:7132   */\n      tag_262\n        /* \"#utility.yul\":7126:7130   */\n      0x40\n        /* \"#utility.yul\":7121:7124   */\n      dup7\n        /* \"#utility.yul\":7117:7131   */\n      add\n        /* \"#utility.yul\":7103:7115   */\n      dup3\n        /* \"#utility.yul\":7059:7132   */\n      tag_222\n      jump\t// in\n    tag_262:\n        /* \"#utility.yul\":6962:7142   */\n      pop\n        /* \"#utility.yul\":7159:7163   */\n      dup1\n        /* \"#utility.yul\":7152:7163   */\n      swap2\n      pop\n        /* \"#utility.yul\":6485:7169   */\n      pop\n        /* \"#utility.yul\":6369:7169   */\n      swap3\n      swap2\n      pop\n      pop\n      jump\t// out\n        /* \"#utility.yul\":7221:8556   */\n    tag_196:\n        /* \"#utility.yul\":7322:7325   */\n      0x00\n        /* \"#utility.yul\":7358:7362   */\n      0xc0\n        /* \"#utility.yul\":7353:7356   */\n      dup4\n        /* \"#utility.yul\":7349:7363   */\n      add\n        /* \"#utility.yul\":7449:7453   */\n      0x00\n        /* \"#utility.yul\":7442:7447   */\n      dup4\n        /* \"#utility.yul\":7438:7454   */\n      add\n        /* \"#utility.yul\":7432:7455   */\n      mload\n        /* \"#utility.yul\":7502:7505   */\n      dup5\n        /* \"#utility.yul\":7496:7500   */\n      dup3\n        /* \"#utility.yul\":7492:7506   */\n      sub\n        /* \"#utility.yul\":7485:7489   */\n      0x00\n        /* \"#utility.yul\":7480:7483   */\n      dup7\n        /* \"#utility.yul\":7476:7490   */\n      add\n        /* \"#utility.yul\":7469:7507   */\n      mstore\n        /* \"#utility.yul\":7528:7601   */\n      tag_264\n        /* \"#utility.yul\":7596:7600   */\n      dup3\n        /* \"#utility.yul\":7582:7594   */\n      dup3\n        /* \"#utility.yul\":7528:7601   */\n      tag_230\n      jump\t// in\n    tag_264:\n        /* \"#utility.yul\":7520:7601   */\n      swap2\n      pop\n        /* \"#utility.yul\":7373:7612   */\n      pop\n        /* \"#utility.yul\":7698:7702   */\n      0x20\n        /* \"#utility.yul\":7691:7696   */\n      dup4\n        /* \"#utility.yul\":7687:7703   */\n      add\n        /* \"#utility.yul\":7681:7704   */\n      mload\n        /* \"#utility.yul\":7717:7791   */\n      tag_265\n        /* \"#utility.yul\":7785:7789   */\n      0x20\n        /* \"#utility.yul\":7780:7783   */\n      dup7\n        /* \"#utility.yul\":7776:7790   */\n      add\n        /* \"#utility.yul\":7762:7774   */\n      dup3\n        /* \"#utility.yul\":7717:7791   */\n      tag_226\n      jump\t// in\n    tag_265:\n        /* \"#utility.yul\":7622:7801   */\n      pop\n        /* \"#utility.yul\":7889:7893   */\n      0x40\n        /* \"#utility.yul\":7882:7887   */\n      dup4\n        /* \"#utility.yul\":7878:7894   */\n      add\n        /* \"#utility.yul\":7872:7895   */\n      mload\n        /* \"#utility.yul\":7908:7981   */\n      tag_266\n        /* \"#utility.yul\":7975:7979   */\n      0x40\n        /* \"#utility.yul\":7970:7973   */\n      dup7\n        /* \"#utility.yul\":7966:7980   */\n      add\n        /* \"#utility.yul\":7952:7964   */\n      dup3\n        /* \"#utility.yul\":7908:7981   */\n      tag_222\n      jump\t// in\n    tag_266:\n        /* \"#utility.yul\":7811:7991   */\n      pop\n        /* \"#utility.yul\":8077:8081   */\n      0x60\n        /* \"#utility.yul\":8070:8075   */\n      dup4\n        /* \"#utility.yul\":8066:8082   */\n      add\n        /* \"#utility.yul\":8060:8083   */\n      mload\n        /* \"#utility.yul\":8096:8159   */\n      tag_267\n        /* \"#utility.yul\":8153:8157   */\n      0x60\n        /* \"#utility.yul\":8148:8151   */\n      dup7\n        /* \"#utility.yul\":8144:8158   */\n      add\n        /* \"#utility.yul\":8130:8142   */\n      dup3\n        /* \"#utility.yul\":8096:8159   */\n      tag_268\n      jump\t// in\n    tag_267:\n        /* \"#utility.yul\":8001:8169   */\n      pop\n        /* \"#utility.yul\":8256:8260   */\n      0x80\n        /* \"#utility.yul\":8249:8254   */\n      dup4\n        /* \"#utility.yul\":8245:8261   */\n      add\n        /* \"#utility.yul\":8239:8262   */\n      mload\n        /* \"#utility.yul\":8275:8338   */\n      tag_269\n        /* \"#utility.yul\":8332:8336   */\n      0x80\n        /* \"#utility.yul\":8327:8330   */\n      dup7\n        /* \"#utility.yul\":8323:8337   */\n      add\n        /* \"#utility.yul\":8309:8321   */\n      dup3\n        /* \"#utility.yul\":8275:8338   */\n      tag_268\n      jump\t// in\n    tag_269:\n        /* \"#utility.yul\":8179:8348   */\n      pop\n        /* \"#utility.yul\":8437:8441   */\n      0xa0\n        /* \"#utility.yul\":8430:8435   */\n      dup4\n        /* \"#utility.yul\":8426:8442   */\n      add\n        /* \"#utility.yul\":8420:8443   */\n      mload\n        /* \"#utility.yul\":8456:8519   */\n      tag_270\n        /* \"#utility.yul\":8513:8517   */\n      0xa0\n        /* \"#utility.yul\":8508:8511   */\n      dup7\n        /* \"#utility.yul\":8504:8518   */\n      add\n        /* \"#utility.yul\":8490:8502   */\n      dup3\n        /* \"#utility.yul\":8456:8519   */\n      tag_197\n      jump\t// in\n    tag_270:\n        /* \"#utility.yul\":8358:8529   */\n      pop\n        /* \"#utility.yul\":8546:8550   */\n      dup1\n        /* \"#utility.yul\":8539:8550   */\n      swap2\n      pop\n        /* \"#utility.yul\":7327:8556   */\n      pop\n        /* \"#utility.yul\":7221:8556   */\n      swap3\n      swap2\n      pop\n      pop\n      jump\t// out\n        /* \"#utility.yul\":8608:9953   */\n    tag_271:\n        /* \"#utility.yul\":8719:8722   */\n      0x00\n        /* \"#utility.yul\":8755:8759   */\n      0xc0\n        /* \"#utility.yul\":8750:8753   */\n      dup4\n        /* \"#utility.yul\":8746:8760   */\n      add\n        /* \"#utility.yul\":8846:8850   */\n      0x00\n        /* \"#utility.yul\":8839:8844   */\n      dup4\n        /* \"#utility.yul\":8835:8851   */\n      add\n        /* \"#utility.yul\":8829:8852   */\n      mload\n        /* \"#utility.yul\":8899:8902   */\n      dup5\n        /* \"#utility.yul\":8893:8897   */\n      dup3\n        /* \"#utility.yul\":8889:8903   */\n      sub\n        /* \"#utility.yul\":8882:8886   */\n      0x00\n        /* \"#utility.yul\":8877:8880   */\n      dup7\n        /* \"#utility.yul\":8873:8887   */\n      add\n        /* \"#utility.yul\":8866:8904   */\n      mstore\n        /* \"#utility.yul\":8925:8998   */\n      tag_273\n        /* \"#utility.yul\":8993:8997   */\n      dup3\n        /* \"#utility.yul\":8979:8991   */\n      dup3\n        /* \"#utility.yul\":8925:8998   */\n      tag_230\n      jump\t// in\n    tag_273:\n        /* \"#utility.yul\":8917:8998   */\n      swap2\n      pop\n        /* \"#utility.yul\":8770:9009   */\n      pop\n        /* \"#utility.yul\":9095:9099   */\n      0x20\n        /* \"#utility.yul\":9088:9093   */\n      dup4\n        /* \"#utility.yul\":9084:9100   */\n      add\n        /* \"#utility.yul\":9078:9101   */\n      mload\n        /* \"#utility.yul\":9114:9188   */\n      tag_274\n        /* \"#utility.yul\":9182:9186   */\n      0x20\n        /* \"#utility.yul\":9177:9180   */\n      dup7\n        /* \"#utility.yul\":9173:9187   */\n      add\n        /* \"#utility.yul\":9159:9171   */\n      dup3\n        /* \"#utility.yul\":9114:9188   */\n      tag_226\n      jump\t// in\n    tag_274:\n        /* \"#utility.yul\":9019:9198   */\n      pop\n        /* \"#utility.yul\":9286:9290   */\n      0x40\n        /* \"#utility.yul\":9279:9284   */\n      dup4\n        /* \"#utility.yul\":9275:9291   */\n      add\n        /* \"#utility.yul\":9269:9292   */\n      mload\n        /* \"#utility.yul\":9305:9378   */\n      tag_275\n        /* \"#utility.yul\":9372:9376   */\n      0x40\n        /* \"#utility.yul\":9367:9370   */\n      dup7\n        /* \"#utility.yul\":9363:9377   */\n      add\n        /* \"#utility.yul\":9349:9361   */\n      dup3\n        /* \"#utility.yul\":9305:9378   */\n      tag_222\n      jump\t// in\n    tag_275:\n        /* \"#utility.yul\":9208:9388   */\n      pop\n        /* \"#utility.yul\":9474:9478   */\n      0x60\n        /* \"#utility.yul\":9467:9472   */\n      dup4\n        /* \"#utility.yul\":9463:9479   */\n      add\n        /* \"#utility.yul\":9457:9480   */\n      mload\n        /* \"#utility.yul\":9493:9556   */\n      tag_276\n        /* \"#utility.yul\":9550:9554   */\n      0x60\n        /* \"#utility.yul\":9545:9548   */\n      dup7\n        /* \"#utility.yul\":9541:9555   */\n      add\n        /* \"#utility.yul\":9527:9539   */\n      dup3\n        /* \"#utility.yul\":9493:9556   */\n      tag_268\n      jump\t// in\n    tag_276:\n        /* \"#utility.yul\":9398:9566   */\n      pop\n        /* \"#utility.yul\":9653:9657   */\n      0x80\n        /* \"#utility.yul\":9646:9651   */\n      dup4\n        /* \"#utility.yul\":9642:9658   */\n      add\n        /* \"#utility.yul\":9636:9659   */\n      mload\n        /* \"#utility.yul\":9672:9735   */\n      tag_277\n        /* \"#utility.yul\":9729:9733   */\n      0x80\n        /* \"#utility.yul\":9724:9727   */\n      dup7\n        /* \"#utility.yul\":9720:9734   */\n      add\n        /* \"#utility.yul\":9706:9718   */\n      dup3\n        /* \"#utility.yul\":9672:9735   */\n      tag_268\n      jump\t// in\n    tag_277:\n        /* \"#utility.yul\":9576:9745   */\n      pop\n        /* \"#utility.yul\":9834:9838   */\n      0xa0\n        /* \"#utility.yul\":9827:9832   */\n      dup4\n        /* \"#utility.yul\":9823:9839   */\n      add\n        /* \"#utility.yul\":9817:9840   */\n      mload\n        /* \"#utility.yul\":9853:9916   */\n      tag_278\n        /* \"#utility.yul\":9910:9914   */\n      0xa0\n        /* \"#utility.yul\":9905:9908   */\n      dup7\n        /* \"#utility.yul\":9901:9915   */\n      add\n        /* \"#utility.yul\":9887:9899   */\n      dup3\n        /* \"#utility.yul\":9853:9916   */\n      tag_197\n      jump\t// in\n    tag_278:\n        /* \"#utility.yul\":9755:9926   */\n      pop\n        /* \"#utility.yul\":9943:9947   */\n      dup1\n        /* \"#utility.yul\":9936:9947   */\n      swap2\n      pop\n        /* \"#utility.yul\":8724:9953   */\n      pop\n        /* \"#utility.yul\":8608:9953   */\n      swap3\n      swap2\n      pop\n      pop\n      jump\t// out\n        /* \"#utility.yul\":9959:10067   */\n    tag_268:\n        /* \"#utility.yul\":10036:10060   */\n      tag_280\n        /* \"#utility.yul\":10054:10059   */\n      dup2\n        /* \"#utility.yul\":10036:10060   */\n      tag_281\n      jump\t// in\n    tag_280:\n        /* \"#utility.yul\":10031:10034   */\n      dup3\n        /* \"#utility.yul\":10024:10061   */\n      mstore\n        /* \"#utility.yul\":9959:10067   */\n      pop\n      pop\n      jump\t// out\n        /* \"#utility.yul\":10073:10348   */\n    tag_104:\n        /* \"#utility.yul\":10205:10208   */\n      0x00\n        /* \"#utility.yul\":10227:10322   */\n      tag_283\n        /* \"#utility.yul\":10318:10321   */\n      dup3\n        /* \"#utility.yul\":10309:10315   */\n      dup5\n        /* \"#utility.yul\":10227:10322   */\n      tag_240\n      jump\t// in\n    tag_283:\n        /* \"#utility.yul\":10220:10322   */\n      swap2\n      pop\n        /* \"#utility.yul\":10339:10342   */\n      dup2\n        /* \"#utility.yul\":10332:10342   */\n      swap1\n      pop\n        /* \"#utility.yul\":10073:10348   */\n      swap3\n      swap2\n      pop\n      pop\n      jump\t// out\n        /* \"#utility.yul\":10354:10623   */\n    tag_59:\n        /* \"#utility.yul\":10483:10486   */\n      0x00\n        /* \"#utility.yul\":10505:10597   */\n      tag_285\n        /* \"#utility.yul\":10593:10596   */\n      dup3\n        /* \"#utility.yul\":10584:10590   */\n      dup5\n        /* \"#utility.yul\":10505:10597   */\n      tag_246\n      jump\t// in\n    tag_285:\n        /* \"#utility.yul\":10498:10597   */\n      swap2\n      pop\n        /* \"#utility.yul\":10614:10617   */\n      dup2\n        /* \"#utility.yul\":10607:10617   */\n      swap1\n      pop\n        /* \"#utility.yul\":10354:10623   */\n      swap3\n      swap2\n      pop\n      pop\n      jump\t// out\n        /* \"#utility.yul\":10629:10851   */\n    tag_34:\n        /* \"#utility.yul\":10722:10726   */\n      0x00\n        /* \"#utility.yul\":10760:10762   */\n      0x20\n        /* \"#utility.yul\":10749:10758   */\n      dup3\n        /* \"#utility.yul\":10745:10763   */\n      add\n        /* \"#utility.yul\":10737:10763   */\n      swap1\n      pop\n        /* \"#utility.yul\":10773:10844   */\n      tag_287\n        /* \"#utility.yul\":10841:10842   */\n      0x00\n        /* \"#utility.yul\":10830:10839   */\n      dup4\n        /* \"#utility.yul\":10826:10843   */\n      add\n        /* \"#utility.yul\":10817:10823   */\n      dup5\n        /* \"#utility.yul\":10773:10844   */\n      tag_201\n      jump\t// in\n    tag_287:\n        /* \"#utility.yul\":10629:10851   */\n      swap3\n      swap2\n      pop\n      pop\n      jump\t// out\n        /* \"#utility.yul\":10857:11314   */\n    tag_14:\n        /* \"#utility.yul\":11042:11046   */\n      0x00\n        /* \"#utility.yul\":11080:11082   */\n      0x20\n        /* \"#utility.yul\":11069:11078   */\n      dup3\n        /* \"#utility.yul\":11065:11083   */\n      add\n        /* \"#utility.yul\":11057:11083   */\n      swap1\n      pop\n        /* \"#utility.yul\":11129:11138   */\n      dup2\n        /* \"#utility.yul\":11123:11127   */\n      dup2\n        /* \"#utility.yul\":11119:11139   */\n      sub\n        /* \"#utility.yul\":11115:11116   */\n      0x00\n        /* \"#utility.yul\":11104:11113   */\n      dup4\n        /* \"#utility.yul\":11100:11117   */\n      add\n        /* \"#utility.yul\":11093:11140   */\n      mstore\n        /* \"#utility.yul\":11157:11307   */\n      tag_289\n        /* \"#utility.yul\":11302:11306   */\n      dup2\n        /* \"#utility.yul\":11293:11299   */\n      dup5\n        /* \"#utility.yul\":11157:11307   */\n      tag_204\n      jump\t// in\n    tag_289:\n        /* \"#utility.yul\":11149:11307   */\n      swap1\n      pop\n        /* \"#utility.yul\":10857:11314   */\n      swap3\n      swap2\n      pop\n      pop\n      jump\t// out\n        /* \"#utility.yul\":11320:11530   */\n    tag_20:\n        /* \"#utility.yul\":11407:11411   */\n      0x00\n        /* \"#utility.yul\":11445:11447   */\n      0x20\n        /* \"#utility.yul\":11434:11443   */\n      dup3\n        /* \"#utility.yul\":11430:11448   */\n      add\n        /* \"#utility.yul\":11422:11448   */\n      swap1\n      pop\n        /* \"#utility.yul\":11458:11523   */\n      tag_291\n        /* \"#utility.yul\":11520:11521   */\n      0x00\n        /* \"#utility.yul\":11509:11518   */\n      dup4\n        /* \"#utility.yul\":11505:11522   */\n      add\n        /* \"#utility.yul\":11496:11502   */\n      dup5\n        /* \"#utility.yul\":11458:11523   */\n      tag_218\n      jump\t// in\n    tag_291:\n        /* \"#utility.yul\":11320:11530   */\n      swap3\n      swap2\n      pop\n      pop\n      jump\t// out\n        /* \"#utility.yul\":11536:11893   */\n    tag_39:\n        /* \"#utility.yul\":11671:11675   */\n      0x00\n        /* \"#utility.yul\":11709:11711   */\n      0x20\n        /* \"#utility.yul\":11698:11707   */\n      dup3\n        /* \"#utility.yul\":11694:11712   */\n      add\n        /* \"#utility.yul\":11686:11712   */\n      swap1\n      pop\n        /* \"#utility.yul\":11758:11767   */\n      dup2\n        /* \"#utility.yul\":11752:11756   */\n      dup2\n        /* \"#utility.yul\":11748:11768   */\n      sub\n        /* \"#utility.yul\":11744:11745   */\n      0x00\n        /* \"#utility.yul\":11733:11742   */\n      dup4\n        /* \"#utility.yul\":11729:11746   */\n      add\n        /* \"#utility.yul\":11722:11769   */\n      mstore\n        /* \"#utility.yul\":11786:11886   */\n      tag_293\n        /* \"#utility.yul\":11881:11885   */\n      dup2\n        /* \"#utility.yul\":11872:11878   */\n      dup5\n        /* \"#utility.yul\":11786:11886   */\n      tag_258\n      jump\t// in\n    tag_293:\n        /* \"#utility.yul\":11778:11886   */\n      swap1\n      pop\n        /* \"#utility.yul\":11536:11893   */\n      swap3\n      swap2\n      pop\n      pop\n      jump\t// out\n        /* \"#utility.yul\":11899:12256   */\n    tag_30:\n        /* \"#utility.yul\":12034:12038   */\n      0x00\n        /* \"#utility.yul\":12072:12074   */\n      0x20\n        /* \"#utility.yul\":12061:12070   */\n      dup3\n        /* \"#utility.yul\":12057:12075   */\n      add\n        /* \"#utility.yul\":12049:12075   */\n      swap1\n      pop\n        /* \"#utility.yul\":12121:12130   */\n      dup2\n        /* \"#utility.yul\":12115:12119   */\n      dup2\n        /* \"#utility.yul\":12111:12131   */\n      sub\n        /* \"#utility.yul\":12107:12108   */\n      0x00\n        /* \"#utility.yul\":12096:12105   */\n      dup4\n        /* \"#utility.yul\":12092:12109   */\n      add\n        /* \"#utility.yul\":12085:12132   */\n      mstore\n        /* \"#utility.yul\":12149:12249   */\n      tag_295\n        /* \"#utility.yul\":12244:12248   */\n      dup2\n        /* \"#utility.yul\":12235:12241   */\n      dup5\n        /* \"#utility.yul\":12149:12249   */\n      tag_271\n      jump\t// in\n    tag_295:\n        /* \"#utility.yul\":12141:12249   */\n      swap1\n      pop\n        /* \"#utility.yul\":11899:12256   */\n      swap3\n      swap2\n      pop\n      pop\n      jump\t// out\n        /* \"#utility.yul\":12262:12391   */\n    tag_154:\n        /* \"#utility.yul\":12296:12302   */\n      0x00\n        /* \"#utility.yul\":12323:12343   */\n      tag_297\n      tag_298\n      jump\t// in\n    tag_297:\n        /* \"#utility.yul\":12313:12343   */\n      swap1\n      pop\n        /* \"#utility.yul\":12352:12385   */\n      tag_299\n        /* \"#utility.yul\":12380:12384   */\n      dup3\n        /* \"#utility.yul\":12372:12378   */\n      dup3\n        /* \"#utility.yul\":12352:12385   */\n      tag_300\n      jump\t// in\n    tag_299:\n        /* \"#utility.yul\":12262:12391   */\n      swap2\n      swap1\n      pop\n      jump\t// out\n        /* \"#utility.yul\":12397:12472   */\n    tag_298:\n        /* \"#utility.yul\":12430:12436   */\n      0x00\n        /* \"#utility.yul\":12463:12465   */\n      0x40\n        /* \"#utility.yul\":12457:12466   */\n      mload\n        /* \"#utility.yul\":12447:12466   */\n      swap1\n      pop\n        /* \"#utility.yul\":12397:12472   */\n      swap1\n      jump\t// out\n        /* \"#utility.yul\":12478:12786   */\n    tag_153:\n        /* \"#utility.yul\":12540:12544   */\n      0x00\n        /* \"#utility.yul\":12630:12648   */\n      0xffffffffffffffff\n        /* \"#utility.yul\":12622:12628   */\n      dup3\n        /* \"#utility.yul\":12619:12649   */\n      gt\n        /* \"#utility.yul\":12616:12672   */\n      iszero\n      tag_303\n      jumpi\n        /* \"#utility.yul\":12652:12670   */\n      tag_304\n      tag_43\n      jump\t// in\n    tag_304:\n        /* \"#utility.yul\":12616:12672   */\n    tag_303:\n        /* \"#utility.yul\":12690:12719   */\n      tag_305\n        /* \"#utility.yul\":12712:12718   */\n      dup3\n        /* \"#utility.yul\":12690:12719   */\n      tag_239\n      jump\t// in\n    tag_305:\n        /* \"#utility.yul\":12682:12719   */\n      swap1\n      pop\n        /* \"#utility.yul\":12774:12778   */\n      0x20\n        /* \"#utility.yul\":12768:12772   */\n      dup2\n        /* \"#utility.yul\":12764:12779   */\n      add\n        /* \"#utility.yul\":12756:12779   */\n      swap1\n      pop\n        /* \"#utility.yul\":12478:12786   */\n      swap2\n      swap1\n      pop\n      jump\t// out\n        /* \"#utility.yul\":12792:12945   */\n    tag_211:\n        /* \"#utility.yul\":12880:12884   */\n      0x00\n        /* \"#utility.yul\":12903:12906   */\n      dup2\n        /* \"#utility.yul\":12895:12906   */\n      swap1\n      pop\n        /* \"#utility.yul\":12933:12937   */\n      0x20\n        /* \"#utility.yul\":12928:12931   */\n      dup3\n        /* \"#utility.yul\":12924:12938   */\n      add\n        /* \"#utility.yul\":12916:12938   */\n      swap1\n      pop\n        /* \"#utility.yul\":12792:12945   */\n      swap2\n      swap1\n      pop\n      jump\t// out\n        /* \"#utility.yul\":12951:13092   */\n    tag_254:\n        /* \"#utility.yul\":13000:13004   */\n      0x00\n        /* \"#utility.yul\":13023:13026   */\n      dup2\n        /* \"#utility.yul\":13015:13026   */\n      swap1\n      pop\n        /* \"#utility.yul\":13046:13049   */\n      dup2\n        /* \"#utility.yul\":13043:13044   */\n      0x00\n        /* \"#utility.yul\":13036:13050   */\n      mstore\n        /* \"#utility.yul\":13080:13084   */\n      0x20\n        /* \"#utility.yul\":13077:13078   */\n      0x00\n        /* \"#utility.yul\":13067:13085   */\n      keccak256\n        /* \"#utility.yul\":13059:13085   */\n      swap1\n      pop\n        /* \"#utility.yul\":12951:13092   */\n      swap2\n      swap1\n      pop\n      jump\t// out\n        /* \"#utility.yul\":13098:13233   */\n    tag_207:\n        /* \"#utility.yul\":13186:13192   */\n      0x00\n        /* \"#utility.yul\":13220:13225   */\n      dup2\n        /* \"#utility.yul\":13214:13226   */\n      mload\n        /* \"#utility.yul\":13204:13226   */\n      swap1\n      pop\n        /* \"#utility.yul\":13098:13233   */\n      swap2\n      swap1\n      pop\n      jump\t// out\n        /* \"#utility.yul\":13239:13338   */\n    tag_233:\n        /* \"#utility.yul\":13291:13297   */\n      0x00\n        /* \"#utility.yul\":13325:13330   */\n      dup2\n        /* \"#utility.yul\":13319:13331   */\n      mload\n        /* \"#utility.yul\":13309:13331   */\n      swap1\n      pop\n        /* \"#utility.yul\":13239:13338   */\n      swap2\n      swap1\n      pop\n      jump\t// out\n        /* \"#utility.yul\":13344:13478   */\n    tag_217:\n        /* \"#utility.yul\":13435:13439   */\n      0x00\n        /* \"#utility.yul\":13467:13471   */\n      0x20\n        /* \"#utility.yul\":13462:13465   */\n      dup3\n        /* \"#utility.yul\":13458:13472   */\n      add\n        /* \"#utility.yul\":13450:13472   */\n      swap1\n      pop\n        /* \"#utility.yul\":13344:13478   */\n      swap2\n      swap1\n      pop\n      jump\t// out\n        /* \"#utility.yul\":13484:13689   */\n    tag_209:\n        /* \"#utility.yul\":13604:13615   */\n      0x00\n        /* \"#utility.yul\":13638:13644   */\n      dup3\n        /* \"#utility.yul\":13633:13636   */\n      dup3\n        /* \"#utility.yul\":13626:13645   */\n      mstore\n        /* \"#utility.yul\":13678:13682   */\n      0x20\n        /* \"#utility.yul\":13673:13676   */\n      dup3\n        /* \"#utility.yul\":13669:13683   */\n      add\n        /* \"#utility.yul\":13654:13683   */\n      swap1\n      pop\n        /* \"#utility.yul\":13484:13689   */\n      swap3\n      swap2\n      pop\n      pop\n      jump\t// out\n        /* \"#utility.yul\":13695:13854   */\n    tag_235:\n        /* \"#utility.yul\":13769:13780   */\n      0x00\n        /* \"#utility.yul\":13803:13809   */\n      dup3\n        /* \"#utility.yul\":13798:13801   */\n      dup3\n        /* \"#utility.yul\":13791:13810   */\n      mstore\n        /* \"#utility.yul\":13843:13847   */\n      0x20\n        /* \"#utility.yul\":13838:13841   */\n      dup3\n        /* \"#utility.yul\":13834:13848   */\n      add\n        /* \"#utility.yul\":13819:13848   */\n      swap1\n      pop\n        /* \"#utility.yul\":13695:13854   */\n      swap3\n      swap2\n      pop\n      pop\n      jump\t// out\n        /* \"#utility.yul\":13860:14008   */\n    tag_244:\n        /* \"#utility.yul\":13962:13973   */\n      0x00\n        /* \"#utility.yul\":13999:14002   */\n      dup2\n        /* \"#utility.yul\":13984:14002   */\n      swap1\n      pop\n        /* \"#utility.yul\":13860:14008   */\n      swap3\n      swap2\n      pop\n      pop\n      jump\t// out\n        /* \"#utility.yul\":14014:14319   */\n    tag_84:\n        /* \"#utility.yul\":14054:14057   */\n      0x00\n        /* \"#utility.yul\":14073:14093   */\n      tag_315\n        /* \"#utility.yul\":14091:14092   */\n      dup3\n        /* \"#utility.yul\":14073:14093   */\n      tag_281\n      jump\t// in\n    tag_315:\n        /* \"#utility.yul\":14068:14093   */\n      swap2\n      pop\n        /* \"#utility.yul\":14107:14127   */\n      tag_316\n        /* \"#utility.yul\":14125:14126   */\n      dup4\n        /* \"#utility.yul\":14107:14127   */\n      tag_281\n      jump\t// in\n    tag_316:\n        /* \"#utility.yul\":14102:14127   */\n      swap3\n      pop\n        /* \"#utility.yul\":14261:14262   */\n      dup3\n        /* \"#utility.yul\":14193:14259   */\n      0xffffffffffffffffffffffffffffffffffffffffffffffffffffffffffffffff\n        /* \"#utility.yul\":14189:14263   */\n      sub\n        /* \"#utility.yul\":14186:14187   */\n      dup3\n        /* \"#utility.yul\":14183:14264   */\n      gt\n        /* \"#utility.yul\":14180:14287   */\n      iszero\n      tag_317\n      jumpi\n        /* \"#utility.yul\":14267:14285   */\n      tag_318\n      tag_319\n      jump\t// in\n    tag_318:\n        /* \"#utility.yul\":14180:14287   */\n    tag_317:\n        /* \"#utility.yul\":14311:14312   */\n      dup3\n        /* \"#utility.yul\":14308:14309   */\n      dup3\n        /* \"#utility.yul\":14304:14313   */\n      add\n        /* \"#utility.yul\":14297:14313   */\n      swap1\n      pop\n        /* \"#utility.yul\":14014:14319   */\n      swap3\n      swap2\n      pop\n      pop\n      jump\t// out\n        /* \"#utility.yul\":14325:14421   */\n    tag_200:\n        /* \"#utility.yul\":14362:14369   */\n      0x00\n        /* \"#utility.yul\":14391:14415   */\n      tag_321\n        /* \"#utility.yul\":14409:14414   */\n      dup3\n        /* \"#utility.yul\":14391:14415   */\n      tag_322\n      jump\t// in\n    tag_321:\n        /* \"#utility.yul\":14380:14415   */\n      swap1\n      pop\n        /* \"#utility.yul\":14325:14421   */\n      swap2\n      swap1\n      pop\n      jump\t// out\n        /* \"#utility.yul\":14427:14517   */\n    tag_221:\n        /* \"#utility.yul\":14461:14468   */\n      0x00\n        /* \"#utility.yul\":14504:14509   */\n      dup2\n        /* \"#utility.yul\":14497:14510   */\n      iszero\n        /* \"#utility.yul\":14490:14511   */\n      iszero\n        /* \"#utility.yul\":14479:14511   */\n      swap1\n      pop\n        /* \"#utility.yul\":14427:14517   */\n      swap2\n      swap1\n      pop\n      jump\t// out\n        /* \"#utility.yul\":14523:14658   */\n    tag_324:\n        /* \"#utility.yul\":14572:14579   */\n      0x00\n        /* \"#utility.yul\":14601:14606   */\n      dup2\n        /* \"#utility.yul\":14590:14606   */\n      swap1\n      pop\n        /* \"#utility.yul\":14607:14652   */\n      tag_326\n        /* \"#utility.yul\":14646:14651   */\n      dup3\n        /* \"#utility.yul\":14607:14652   */\n      tag_327\n      jump\t// in\n    tag_326:\n        /* \"#utility.yul\":14523:14658   */\n      swap2\n      swap1\n      pop\n      jump\t// out\n        /* \"#utility.yul\":14664:14801   */\n    tag_328:\n        /* \"#utility.yul\":14714:14721   */\n      0x00\n        /* \"#utility.yul\":14743:14748   */\n      dup2\n        /* \"#utility.yul\":14732:14748   */\n      swap1\n      pop\n        /* \"#utility.yul\":14749:14795   */\n      tag_330\n        /* \"#utility.yul\":14789:14794   */\n      dup3\n        /* \"#utility.yul\":14749:14795   */\n      tag_331\n      jump\t// in\n    tag_330:\n        /* \"#utility.yul\":14664:14801   */\n      swap2\n      swap1\n      pop\n      jump\t// out\n        /* \"#utility.yul\":14807:14933   */\n    tag_322:\n        /* \"#utility.yul\":14844:14851   */\n      0x00\n        /* \"#utility.yul\":14884:14926   */\n      0xffffffffffffffffffffffffffffffffffffffff\n        /* \"#utility.yul\":14877:14882   */\n      dup3\n        /* \"#utility.yul\":14873:14927   */\n      and\n        /* \"#utility.yul\":14862:14927   */\n      swap1\n      pop\n        /* \"#utility.yul\":14807:14933   */\n      swap2\n      swap1\n      pop\n      jump\t// out\n        /* \"#utility.yul\":14939:15016   */\n    tag_281:\n        /* \"#utility.yul\":14976:14983   */\n      0x00\n        /* \"#utility.yul\":15005:15010   */\n      dup2\n        /* \"#utility.yul\":14994:15010   */\n      swap1\n      pop\n        /* \"#utility.yul\":14939:15016   */\n      swap2\n      swap1\n      pop\n      jump\t// out\n        /* \"#utility.yul\":15022:15157   */\n    tag_225:\n        /* \"#utility.yul\":15082:15091   */\n      0x00\n        /* \"#utility.yul\":15115:15151   */\n      tag_335\n        /* \"#utility.yul\":15145:15150   */\n      dup3\n        /* \"#utility.yul\":15115:15151   */\n      tag_324\n      jump\t// in\n    tag_335:\n        /* \"#utility.yul\":15102:15151   */\n      swap1\n      pop\n        /* \"#utility.yul\":15022:15157   */\n      swap2\n      swap1\n      pop\n      jump\t// out\n        /* \"#utility.yul\":15163:15300   */\n    tag_229:\n        /* \"#utility.yul\":15224:15233   */\n      0x00\n        /* \"#utility.yul\":15257:15294   */\n      tag_337\n        /* \"#utility.yul\":15288:15293   */\n      dup3\n        /* \"#utility.yul\":15257:15294   */\n      tag_328\n      jump\t// in\n    tag_337:\n        /* \"#utility.yul\":15244:15294   */\n      swap1\n      pop\n        /* \"#utility.yul\":15163:15300   */\n      swap2\n      swap1\n      pop\n      jump\t// out\n        /* \"#utility.yul\":15306:15460   */\n    tag_159:\n        /* \"#utility.yul\":15390:15396   */\n      dup3\n        /* \"#utility.yul\":15385:15388   */\n      dup2\n        /* \"#utility.yul\":15380:15383   */\n      dup4\n        /* \"#utility.yul\":15367:15397   */\n      calldatacopy\n        /* \"#utility.yul\":15452:15453   */\n      0x00\n        /* \"#utility.yul\":15443:15449   */\n      dup4\n        /* \"#utility.yul\":15438:15441   */\n      dup4\n        /* \"#utility.yul\":15434:15450   */\n      add\n        /* \"#utility.yul\":15427:15454   */\n      mstore\n        /* \"#utility.yul\":15306:15460   */\n      pop\n      pop\n      pop\n      jump\t// out\n        /* \"#utility.yul\":15466:15773   */\n    tag_237:\n        /* \"#utility.yul\":15534:15535   */\n      0x00\n        /* \"#utility.yul\":15544:15657   */\n    tag_340:\n        /* \"#utility.yul\":15558:15564   */\n      dup4\n        /* \"#utility.yul\":15555:15556   */\n      dup2\n        /* \"#utility.yul\":15552:15565   */\n      lt\n        /* \"#utility.yul\":15544:15657   */\n      iszero\n      tag_342\n      jumpi\n        /* \"#utility.yul\":15643:15644   */\n      dup1\n        /* \"#utility.yul\":15638:15641   */\n      dup3\n        /* \"#utility.yul\":15634:15645   */\n      add\n        /* \"#utility.yul\":15628:15646   */\n      mload\n        /* \"#utility.yul\":15624:15625   */\n      dup2\n        /* \"#utility.yul\":15619:15622   */\n      dup5\n        /* \"#utility.yul\":15615:15626   */\n      add\n        /* \"#utility.yul\":15608:15647   */\n      mstore\n        /* \"#utility.yul\":15580:15582   */\n      0x20\n        /* \"#utility.yul\":15577:15578   */\n      dup2\n        /* \"#utility.yul\":15573:15583   */\n      add\n        /* \"#utility.yul\":15568:15583   */\n      swap1\n      pop\n        /* \"#utility.yul\":15544:15657   */\n      jump(tag_340)\n    tag_342:\n        /* \"#utility.yul\":15675:15681   */\n      dup4\n        /* \"#utility.yul\":15672:15673   */\n      dup2\n        /* \"#utility.yul\":15669:15682   */\n      gt\n        /* \"#utility.yul\":15666:15767   */\n      iszero\n      tag_343\n      jumpi\n        /* \"#utility.yul\":15755:15756   */\n      0x00\n        /* \"#utility.yul\":15746:15752   */\n      dup5\n        /* \"#utility.yul\":15741:15744   */\n      dup5\n        /* \"#utility.yul\":15737:15753   */\n      add\n        /* \"#utility.yul\":15730:15757   */\n      mstore\n        /* \"#utility.yul\":15666:15767   */\n    tag_343:\n        /* \"#utility.yul\":15515:15773   */\n      pop\n        /* \"#utility.yul\":15466:15773   */\n      pop\n      pop\n      pop\n      jump\t// out\n        /* \"#utility.yul\":15779:16099   */\n    tag_68:\n        /* \"#utility.yul\":15823:15829   */\n      0x00\n        /* \"#utility.yul\":15860:15861   */\n      0x02\n        /* \"#utility.yul\":15854:15858   */\n      dup3\n        /* \"#utility.yul\":15850:15862   */\n      div\n        /* \"#utility.yul\":15840:15862   */\n      swap1\n      pop\n        /* \"#utility.yul\":15907:15908   */\n      0x01\n        /* \"#utility.yul\":15901:15905   */\n      dup3\n        /* \"#utility.yul\":15897:15909   */\n      and\n        /* \"#utility.yul\":15928:15946   */\n      dup1\n        /* \"#utility.yul\":15918:15999   */\n      tag_345\n      jumpi\n        /* \"#utility.yul\":15984:15988   */\n      0x7f\n        /* \"#utility.yul\":15976:15982   */\n      dup3\n        /* \"#utility.yul\":15972:15989   */\n      and\n        /* \"#utility.yul\":15962:15989   */\n      swap2\n      pop\n        /* \"#utility.yul\":15918:15999   */\n    tag_345:\n        /* \"#utility.yul\":16046:16048   */\n      0x20\n        /* \"#utility.yul\":16038:16044   */\n      dup3\n        /* \"#utility.yul\":16035:16049   */\n      lt\n        /* \"#utility.yul\":16015:16033   */\n      dup2\n        /* \"#utility.yul\":16012:16050   */\n      eq\n        /* \"#utility.yul\":16009:16093   */\n      iszero\n      tag_346\n      jumpi\n        /* \"#utility.yul\":16065:16083   */\n      tag_347\n      tag_348\n      jump\t// in\n    tag_347:\n        /* \"#utility.yul\":16009:16093   */\n    tag_346:\n        /* \"#utility.yul\":15830:16099   */\n      pop\n        /* \"#utility.yul\":15779:16099   */\n      swap2\n      swap1\n      pop\n      jump\t// out\n        /* \"#utility.yul\":16105:16386   */\n    tag_300:\n        /* \"#utility.yul\":16188:16215   */\n      tag_350\n        /* \"#utility.yul\":16210:16214   */\n      dup3\n        /* \"#utility.yul\":16188:16215   */\n      tag_239\n      jump\t// in\n    tag_350:\n        /* \"#utility.yul\":16180:16186   */\n      dup2\n        /* \"#utility.yul\":16176:16216   */\n      add\n        /* \"#utility.yul\":16318:16324   */\n      dup2\n        /* \"#utility.yul\":16306:16316   */\n      dup2\n        /* \"#utility.yul\":16303:16325   */\n      lt\n        /* \"#utility.yul\":16282:16300   */\n      0xffffffffffffffff\n        /* \"#utility.yul\":16270:16280   */\n      dup3\n        /* \"#utility.yul\":16267:16301   */\n      gt\n        /* \"#utility.yul\":16264:16326   */\n      or\n        /* \"#utility.yul\":16261:16349   */\n      iszero\n      tag_351\n      jumpi\n        /* \"#utility.yul\":16329:16347   */\n      tag_352\n      tag_43\n      jump\t// in\n    tag_352:\n        /* \"#utility.yul\":16261:16349   */\n    tag_351:\n        /* \"#utility.yul\":16369:16379   */\n      dup1\n        /* \"#utility.yul\":16365:16367   */\n      0x40\n        /* \"#utility.yul\":16358:16380   */\n      mstore\n        /* \"#utility.yul\":16148:16386   */\n      pop\n        /* \"#utility.yul\":16105:16386   */\n      pop\n      pop\n      jump\t// out\n        /* \"#utility.yul\":16392:16625   */\n    tag_86:\n        /* \"#utility.yul\":16431:16434   */\n      0x00\n        /* \"#utility.yul\":16454:16478   */\n      tag_354\n        /* \"#utility.yul\":16472:16477   */\n      dup3\n        /* \"#utility.yul\":16454:16478   */\n      tag_281\n      jump\t// in\n    tag_354:\n        /* \"#utility.yul\":16445:16478   */\n      swap2\n      pop\n        /* \"#utility.yul\":16500:16566   */\n      0xffffffffffffffffffffffffffffffffffffffffffffffffffffffffffffffff\n        /* \"#utility.yul\":16493:16498   */\n      dup3\n        /* \"#utility.yul\":16490:16567   */\n      eq\n        /* \"#utility.yul\":16487:16590   */\n      iszero\n      tag_355\n      jumpi\n        /* \"#utility.yul\":16570:16588   */\n      tag_356\n      tag_319\n      jump\t// in\n    tag_356:\n        /* \"#utility.yul\":16487:16590   */\n    tag_355:\n        /* \"#utility.yul\":16617:16618   */\n      0x01\n        /* \"#utility.yul\":16610:16615   */\n      dup3\n        /* \"#utility.yul\":16606:16619   */\n      add\n        /* \"#utility.yul\":16599:16619   */\n      swap1\n      pop\n        /* \"#utility.yul\":16392:16625   */\n      swap2\n      swap1\n      pop\n      jump\t// out\n        /* \"#utility.yul\":16631:16811   */\n    tag_319:\n        /* \"#utility.yul\":16679:16756   */\n      0x4e487b7100000000000000000000000000000000000000000000000000000000\n        /* \"#utility.yul\":16676:16677   */\n      0x00\n        /* \"#utility.yul\":16669:16757   */\n      mstore\n        /* \"#utility.yul\":16776:16780   */\n      0x11\n        /* \"#utility.yul\":16773:16774   */\n      0x04\n        /* \"#utility.yul\":16766:16781   */\n      mstore\n        /* \"#utility.yul\":16800:16804   */\n      0x24\n        /* \"#utility.yul\":16797:16798   */\n      0x00\n        /* \"#utility.yul\":16790:16805   */\n      revert\n        /* \"#utility.yul\":16817:16997   */\n    tag_53:\n        /* \"#utility.yul\":16865:16942   */\n      0x4e487b7100000000000000000000000000000000000000000000000000000000\n        /* \"#utility.yul\":16862:16863   */\n      0x00\n        /* \"#utility.yul\":16855:16943   */\n      mstore\n        /* \"#utility.yul\":16962:16966   */\n      0x21\n        /* \"#utility.yul\":16959:16960   */\n      0x04\n        /* \"#utility.yul\":16952:16967   */\n      mstore\n        /* \"#utility.yul\":16986:16990   */\n      0x24\n        /* \"#utility.yul\":16983:16984   */\n      0x00\n        /* \"#utility.yul\":16976:16991   */\n      revert\n        /* \"#utility.yul\":17003:17183   */\n    tag_348:\n        /* \"#utility.yul\":17051:17128   */\n      0x4e487b7100000000000000000000000000000000000000000000000000000000\n        /* \"#utility.yul\":17048:17049   */\n      0x00\n        /* \"#utility.yul\":17041:17129   */\n      mstore\n        /* \"#utility.yul\":17148:17152   */\n      0x22\n        /* \"#utility.yul\":17145:17146   */\n      0x04\n        /* \"#utility.yul\":17138:17153   */\n      mstore\n        /* \"#utility.yul\":17172:17176   */\n      0x24\n        /* \"#utility.yul\":17169:17170   */\n      0x00\n        /* \"#utility.yul\":17162:17177   */\n      revert\n        /* \"#utility.yul\":17189:17369   */\n    tag_56:\n        /* \"#utility.yul\":17237:17314   */\n      0x4e487b7100000000000000000000000000000000000000000000000000000000\n        /* \"#utility.yul\":17234:17235   */\n      0x00\n        /* \"#utility.yul\":17227:17315   */\n      mstore\n        /* \"#utility.yul\":17334:17338   */\n      0x32\n        /* \"#utility.yul\":17331:17332   */\n      0x04\n        /* \"#utility.yul\":17324:17339   */\n      mstore\n        /* \"#utility.yul\":17358:17362   */\n      0x24\n        /* \"#utility.yul\":17355:17356   */\n      0x00\n        /* \"#utility.yul\":17348:17363   */\n      revert\n        /* \"#utility.yul\":17375:17555   */\n    tag_43:\n        /* \"#utility.yul\":17423:17500   */\n      0x4e487b7100000000000000000000000000000000000000000000000000000000\n        /* \"#utility.yul\":17420:17421   */\n      0x00\n        /* \"#utility.yul\":17413:17501   */\n      mstore\n        /* \"#utility.yul\":17520:17524   */\n      0x41\n        /* \"#utility.yul\":17517:17518   */\n      0x04\n        /* \"#utility.yul\":17510:17525   */\n      mstore\n        /* \"#utility.yul\":17544:17548   */\n      0x24\n        /* \"#utility.yul\":17541:17542   */\n      0x00\n        /* \"#utility.yul\":17534:17549   */\n      revert\n        /* \"#utility.yul\":17561:17678   */\n    tag_172:\n        /* \"#utility.yul\":17670:17671   */\n      0x00\n        /* \"#utility.yul\":17667:17668   */\n      dup1\n        /* \"#utility.yul\":17660:17672   */\n      revert\n        /* \"#utility.yul\":17684:17801   */\n    tag_157:\n        /* \"#utility.yul\":17793:17794   */\n      0x00\n        /* \"#utility.yul\":17790:17791   */\n      dup1\n        /* \"#utility.yul\":17783:17795   */\n      revert\n        /* \"#utility.yul\":17807:17924   */\n    tag_184:\n        /* \"#utility.yul\":17916:17917   */\n      0x00\n        /* \"#utility.yul\":17913:17914   */\n      dup1\n        /* \"#utility.yul\":17906:17918   */\n      revert\n        /* \"#utility.yul\":17930:18047   */\n    tag_177:\n        /* \"#utility.yul\":18039:18040   */\n      0x00\n        /* \"#utility.yul\":18036:18037   */\n      dup1\n        /* \"#utility.yul\":18029:18041   */\n      revert\n        /* \"#utility.yul\":18053:18155   */\n    tag_239:\n        /* \"#utility.yul\":18094:18100   */\n      0x00\n        /* \"#utility.yul\":18145:18147   */\n      0x1f\n        /* \"#utility.yul\":18141:18148   */\n      not\n        /* \"#utility.yul\":18136:18138   */\n      0x1f\n        /* \"#utility.yul\":18129:18134   */\n      dup4\n        /* \"#utility.yul\":18125:18139   */\n      add\n        /* \"#utility.yul\":18121:18149   */\n      and\n        /* \"#utility.yul\":18111:18149   */\n      swap1\n      pop\n        /* \"#utility.yul\":18053:18155   */\n      swap2\n      swap1\n      pop\n      jump\t// out\n        /* \"#utility.yul\":18161:18278   */\n    tag_327:\n        /* \"#utility.yul\":18246:18247   */\n      0x03\n        /* \"#utility.yul\":18239:18244   */\n      dup2\n        /* \"#utility.yul\":18236:18248   */\n      lt\n        /* \"#utility.yul\":18226:18272   */\n      tag_368\n      jumpi\n        /* \"#utility.yul\":18252:18270   */\n      tag_369\n      tag_53\n      jump\t// in\n    tag_369:\n        /* \"#utility.yul\":18226:18272   */\n    tag_368:\n        /* \"#utility.yul\":18161:18278   */\n      pop\n      jump\t// out\n        /* \"#utility.yul\":18284:18402   */\n    tag_331:\n        /* \"#utility.yul\":18370:18371   */\n      0x07\n        /* \"#utility.yul\":18363:18368   */\n      dup2\n        /* \"#utility.yul\":18360:18372   */\n      lt\n        /* \"#utility.yul\":18350:18396   */\n      tag_371\n      jumpi\n        /* \"#utility.yul\":18376:18394   */\n      tag_372\n      tag_53\n      jump\t// in\n    tag_372:\n        /* \"#utility.yul\":18350:18396   */\n    tag_371:\n        /* \"#utility.yul\":18284:18402   */\n      pop\n      jump\t// out\n        /* \"#utility.yul\":18408:18519   */\n    tag_163:\n        /* \"#utility.yul\":18493:18494   */\n      0x03\n        /* \"#utility.yul\":18486:18491   */\n      dup2\n        /* \"#utility.yul\":18483:18495   */\n      lt\n        /* \"#utility.yul\":18473:18513   */\n      tag_374\n      jumpi\n        /* \"#utility.yul\":18509:18510   */\n      0x00\n        /* \"#utility.yul\":18506:18507   */\n      dup1\n        /* \"#utility.yul\":18499:18511   */\n      revert\n        /* \"#utility.yul\":18473:18513   */\n    tag_374:\n        /* \"#utility.yul\":18408:18519   */\n      pop\n      jump\t// out\n        /* \"#utility.yul\":18525:18637   */\n    tag_167:\n        /* \"#utility.yul\":18611:18612   */\n      0x07\n        /* \"#utility.yul\":18604:18609   */\n      dup2\n        /* \"#utility.yul\":18601:18613   */\n      lt\n        /* \"#utility.yul\":18591:18631   */\n      tag_376\n      jumpi\n        /* \"#utility.yul\":18627:18628   */\n      0x00\n        /* \"#utility.yul\":18624:18625   */\n      dup1\n        /* \"#utility.yul\":18617:18629   */\n      revert\n        /* \"#utility.yul\":18591:18631   */\n    tag_376:\n        /* \"#utility.yul\":18525:18637   */\n      pop\n      jump\t// out\n\n    auxdata: 0xa264697066735822122076b03de146148421e340bcbfe2bc928d7ee4a6cb834607180cbc10c21e63ae2164736f6c63430008070033\n}\n",
				"bytecode": {
					"linkReferences": {},
					"object": "608060405234801561001057600080fd5b5033600460006101000a81548173ffffffffffffffffffffffffffffffffffffffff021916908373ffffffffffffffffffffffffffffffffffffffff1602179055506113e5806100616000396000f3fe608060405234801561001057600080fd5b50600436106100625760003560e01c80630f9de977146100675780631a2d86241461009757806325dd75c9146100c757806386a9d2ca146100f7578063b4a99a4e14610127578063cdf7e73d14610145575b600080fd5b610081600480360381019061007c9190610aec565b610175565b60405161008e9190610f35565b60405180910390f35b6100b160048036038101906100ac9190610b62565b610510565b6040516100be9190610f57565b60405180910390f35b6100e160048036038101906100dc9190610b62565b6105bf565b6040516100ee9190610f57565b60405180910390f35b610111600480360381019061010c9190610b19565b61066e565b60405161011e9190610f94565b60405180910390f35b61012f610818565b60405161013c9190610f1a565b60405180910390f35b61015f600480360381019061015a9190610b19565b61083e565b60405161016c9190610f72565b60405180910390f35b60606000600180549050905060008167ffffffffffffffff81111561019d5761019c611313565b5b6040519080825280602002602001820160405280156101d657816020015b6101c3610999565b8152602001906001900390816101bb5790505b509050600080600090505b83811015610459578560068111156101fc576101fb611286565b5b600060018381548110610212576102116112e4565b5b906000526020600020016040516102299190610f03565b908152602001604051809103902060010160009054906101000a900460ff16600681111561025a57610259611286565b5b141561044657600060018281548110610276576102756112e4565b5b9060005260206000200160405161028d9190610f03565b90815260200160405180910390206040518060c00160405290816000820180546102b6906111ab565b80601f01602080910402602001604051908101604052809291908181526020018280546102e2906111ab565b801561032f5780601f106103045761010080835404028352916020019161032f565b820191906000526020600020905b81548152906001019060200180831161031257829003601f168201915b505050505081526020016001820160009054906101000a900460ff16600681111561035d5761035c611286565b5b600681111561036f5761036e611286565b5b81526020016001820160019054906101000a900460ff16600281111561039857610397611286565b5b60028111156103aa576103a9611286565b5b815260200160028201548152602001600382015481526020016004820160009054906101000a900473ffffffffffffffffffffffffffffffffffffffff1673ffffffffffffffffffffffffffffffffffffffff1673ffffffffffffffffffffffffffffffffffffffff168152505083838151811061042b5761042a6112e4565b5b60200260200101819052506001826104439190611081565b91505b80806104519061120e565b9150506101e1565b508067ffffffffffffffff81111561047457610473611313565b5b6040519080825280602002602001820160405280156104ad57816020015b61049a610999565b8152602001906001900390816104925790505b50935060005b81811015610507578281815181106104ce576104cd6112e4565b5b60200260200101518582815181106104e9576104e86112e4565b5b602002602001018190525080806104ff9061120e565b9150506104b3565b50505050919050565b60003373ffffffffffffffffffffffffffffffffffffffff16600460009054906101000a900473ffffffffffffffffffffffffffffffffffffffff1673ffffffffffffffffffffffffffffffffffffffff161461056c57600080fd5b8160008460405161057d9190610eec565b908152602001604051809103902060010160016101000a81548160ff021916908360028111156105b0576105af611286565b5b02179055506001905092915050565b60003373ffffffffffffffffffffffffffffffffffffffff16600460009054906101000a900473ffffffffffffffffffffffffffffffffffffffff1673ffffffffffffffffffffffffffffffffffffffff161461061b57600080fd5b8160028460405161062c9190610eec565b908152602001604051809103902060010160146101000a81548160ff0219169083600281111561065f5761065e611286565b5b02179055506001905092915050565b610676610999565b6000826040516106869190610eec565b90815260200160405180910390206040518060c00160405290816000820180546106af906111ab565b80601f01602080910402602001604051908101604052809291908181526020018280546106db906111ab565b80156107285780601f106106fd57610100808354040283529160200191610728565b820191906000526020600020905b81548152906001019060200180831161070b57829003601f168201915b505050505081526020016001820160009054906101000a900460ff16600681111561075657610755611286565b5b600681111561076857610767611286565b5b81526020016001820160019054906101000a900460ff16600281111561079157610790611286565b5b60028111156107a3576107a2611286565b5b815260200160028201548152602001600382015481526020016004820160009054906101000a900473ffffffffffffffffffffffffffffffffffffffff1673ffffffffffffffffffffffffffffffffffffffff1673ffffffffffffffffffffffffffffffffffffffff16815250509050919050565b600460009054906101000a900473ffffffffffffffffffffffffffffffffffffffff1681565b610846610a09565b6002826040516108569190610eec565b908152602001604051809103902060405180606001604052908160008201805461087f906111ab565b80601f01602080910402602001604051908101604052809291908181526020018280546108ab906111ab565b80156108f85780601f106108cd576101008083540402835291602001916108f8565b820191906000526020600020905b8154815290600101906020018083116108db57829003601f168201915b505050505081526020016001820160009054906101000a900473ffffffffffffffffffffffffffffffffffffffff1673ffffffffffffffffffffffffffffffffffffffff1673ffffffffffffffffffffffffffffffffffffffff1681526020016001820160149054906101000a900460ff16600281111561097c5761097b611286565b5b600281111561098e5761098d611286565b5b815250509050919050565b6040518060c0016040528060608152602001600060068111156109bf576109be611286565b5b8152602001600060028111156109d8576109d7611286565b5b81526020016000815260200160008152602001600073ffffffffffffffffffffffffffffffffffffffff1681525090565b604051806060016040528060608152602001600073ffffffffffffffffffffffffffffffffffffffff16815260200160006002811115610a4c57610a4b611286565b5b81525090565b6000610a65610a6084610fdb565b610fb6565b905082815260208101848484011115610a8157610a80611347565b5b610a8c848285611169565b509392505050565b600081359050610aa38161138f565b92915050565b600081359050610ab88161139f565b92915050565b600082601f830112610ad357610ad2611342565b5b8135610ae3848260208601610a52565b91505092915050565b600060208284031215610b0257610b01611351565b5b6000610b1084828501610aa9565b91505092915050565b600060208284031215610b2f57610b2e611351565b5b600082013567ffffffffffffffff811115610b4d57610b4c61134c565b5b610b5984828501610abe565b91505092915050565b60008060408385031215610b7957610b78611351565b5b600083013567ffffffffffffffff811115610b9757610b9661134c565b5b610ba385828601610abe565b9250506020610bb485828601610a94565b9150509250929050565b6000610bca8383610dcb565b905092915050565b610bdb816110d7565b82525050565b610bea816110d7565b82525050565b6000610bfb82611031565b610c058185611054565b935083602082028501610c178561100c565b8060005b85811015610c535784840389528151610c348582610bbe565b9450610c3f83611047565b925060208a01995050600181019050610c1b565b50829750879550505050505092915050565b610c6e816110e9565b82525050565b610c7d81611145565b82525050565b610c8c81611157565b82525050565b6000610c9d8261103c565b610ca78185611065565b9350610cb7818560208601611178565b610cc081611356565b840191505092915050565b6000610cd68261103c565b610ce08185611076565b9350610cf0818560208601611178565b80840191505092915050565b60008154610d09816111ab565b610d138186611076565b94506001821660008114610d2e5760018114610d3f57610d72565b60ff19831686528186019350610d72565b610d488561101c565b60005b83811015610d6a57815481890152600182019150602081019050610d4b565b838801955050505b50505092915050565b60006060830160008301518482036000860152610d988282610c92565b9150506020830151610dad6020860182610bd2565b506040830151610dc06040860182610c74565b508091505092915050565b600060c0830160008301518482036000860152610de88282610c92565b9150506020830151610dfd6020860182610c83565b506040830151610e106040860182610c74565b506060830151610e236060860182610edd565b506080830151610e366080860182610edd565b5060a0830151610e4960a0860182610bd2565b508091505092915050565b600060c0830160008301518482036000860152610e718282610c92565b9150506020830151610e866020860182610c83565b506040830151610e996040860182610c74565b506060830151610eac6060860182610edd565b506080830151610ebf6080860182610edd565b5060a0830151610ed260a0860182610bd2565b508091505092915050565b610ee68161113b565b82525050565b6000610ef88284610ccb565b915081905092915050565b6000610f0f8284610cfc565b915081905092915050565b6000602082019050610f2f6000830184610be1565b92915050565b60006020820190508181036000830152610f4f8184610bf0565b905092915050565b6000602082019050610f6c6000830184610c65565b92915050565b60006020820190508181036000830152610f8c8184610d7b565b905092915050565b60006020820190508181036000830152610fae8184610e54565b905092915050565b6000610fc0610fd1565b9050610fcc82826111dd565b919050565b6000604051905090565b600067ffffffffffffffff821115610ff657610ff5611313565b5b610fff82611356565b9050602081019050919050565b6000819050602082019050919050565b60008190508160005260206000209050919050565b600081519050919050565b600081519050919050565b6000602082019050919050565b600082825260208201905092915050565b600082825260208201905092915050565b600081905092915050565b600061108c8261113b565b91506110978361113b565b9250827fffffffffffffffffffffffffffffffffffffffffffffffffffffffffffffffff038211156110cc576110cb611257565b5b828201905092915050565b60006110e28261111b565b9050919050565b60008115159050919050565b600081905061110382611367565b919050565b60008190506111168261137b565b919050565b600073ffffffffffffffffffffffffffffffffffffffff82169050919050565b6000819050919050565b6000611150826110f5565b9050919050565b600061116282611108565b9050919050565b82818337600083830152505050565b60005b8381101561119657808201518184015260208101905061117b565b838111156111a5576000848401525b50505050565b600060028204905060018216806111c357607f821691505b602082108114156111d7576111d66112b5565b5b50919050565b6111e682611356565b810181811067ffffffffffffffff8211171561120557611204611313565b5b80604052505050565b60006112198261113b565b91507fffffffffffffffffffffffffffffffffffffffffffffffffffffffffffffffff82141561124c5761124b611257565b5b600182019050919050565b7f4e487b7100000000000000000000000000000000000000000000000000000000600052601160045260246000fd5b7f4e487b7100000000000000000000000000000000000000000000000000000000600052602160045260246000fd5b7f4e487b7100000000000000000000000000000000000000000000000000000000600052602260045260246000fd5b7f4e487b7100000000000000000000000000000000000000000000000000000000600052603260045260246000fd5b7f4e487b7100000000000000000000000000000000000000000000000000000000600052604160045260246000fd5b600080fd5b600080fd5b600080fd5b600080fd5b6000601f19601f8301169050919050565b6003811061137857611377611286565b5b50565b6007811061138c5761138b611286565b5b50565b6003811061139c57600080fd5b50565b600781106113ac57600080fd5b5056fea264697066735822122076b03de146148421e340bcbfe2bc928d7ee4a6cb834607180cbc10c21e63ae2164736f6c63430008070033",
					"opcodes": "PUSH1 0x80 PUSH1 0x40 MSTORE CALLVALUE DUP1 ISZERO PUSH2 0x10 JUMPI PUSH1 0x0 DUP1 REVERT JUMPDEST POP CALLER PUSH1 0x4 PUSH1 0x0 PUSH2 0x100 EXP DUP2 SLOAD DUP2 PUSH20 0xFFFFFFFFFFFFFFFFFFFFFFFFFFFFFFFFFFFFFFFF MUL NOT AND SWAP1 DUP4 PUSH20 0xFFFFFFFFFFFFFFFFFFFFFFFFFFFFFFFFFFFFFFFF AND MUL OR SWAP1 SSTORE POP PUSH2 0x13E5 DUP1 PUSH2 0x61 PUSH1 0x0 CODECOPY PUSH1 0x0 RETURN INVALID PUSH1 0x80 PUSH1 0x40 MSTORE CALLVALUE DUP1 ISZERO PUSH2 0x10 JUMPI PUSH1 0x0 DUP1 REVERT JUMPDEST POP PUSH1 0x4 CALLDATASIZE LT PUSH2 0x62 JUMPI PUSH1 0x0 CALLDATALOAD PUSH1 0xE0 SHR DUP1 PUSH4 0xF9DE977 EQ PUSH2 0x67 JUMPI DUP1 PUSH4 0x1A2D8624 EQ PUSH2 0x97 JUMPI DUP1 PUSH4 0x25DD75C9 EQ PUSH2 0xC7 JUMPI DUP1 PUSH4 0x86A9D2CA EQ PUSH2 0xF7 JUMPI DUP1 PUSH4 0xB4A99A4E EQ PUSH2 0x127 JUMPI DUP1 PUSH4 0xCDF7E73D EQ PUSH2 0x145 JUMPI JUMPDEST PUSH1 0x0 DUP1 REVERT JUMPDEST PUSH2 0x81 PUSH1 0x4 DUP1 CALLDATASIZE SUB DUP2 ADD SWAP1 PUSH2 0x7C SWAP2 SWAP1 PUSH2 0xAEC JUMP JUMPDEST PUSH2 0x175 JUMP JUMPDEST PUSH1 0x40 MLOAD PUSH2 0x8E SWAP2 SWAP1 PUSH2 0xF35 JUMP JUMPDEST PUSH1 0x40 MLOAD DUP1 SWAP2 SUB SWAP1 RETURN JUMPDEST PUSH2 0xB1 PUSH1 0x4 DUP1 CALLDATASIZE SUB DUP2 ADD SWAP1 PUSH2 0xAC SWAP2 SWAP1 PUSH2 0xB62 JUMP JUMPDEST PUSH2 0x510 JUMP JUMPDEST PUSH1 0x40 MLOAD PUSH2 0xBE SWAP2 SWAP1 PUSH2 0xF57 JUMP JUMPDEST PUSH1 0x40 MLOAD DUP1 SWAP2 SUB SWAP1 RETURN JUMPDEST PUSH2 0xE1 PUSH1 0x4 DUP1 CALLDATASIZE SUB DUP2 ADD SWAP1 PUSH2 0xDC SWAP2 SWAP1 PUSH2 0xB62 JUMP JUMPDEST PUSH2 0x5BF JUMP JUMPDEST PUSH1 0x40 MLOAD PUSH2 0xEE SWAP2 SWAP1 PUSH2 0xF57 JUMP JUMPDEST PUSH1 0x40 MLOAD DUP1 SWAP2 SUB SWAP1 RETURN JUMPDEST PUSH2 0x111 PUSH1 0x4 DUP1 CALLDATASIZE SUB DUP2 ADD SWAP1 PUSH2 0x10C SWAP2 SWAP1 PUSH2 0xB19 JUMP JUMPDEST PUSH2 0x66E JUMP JUMPDEST PUSH1 0x40 MLOAD PUSH2 0x11E SWAP2 SWAP1 PUSH2 0xF94 JUMP JUMPDEST PUSH1 0x40 MLOAD DUP1 SWAP2 SUB SWAP1 RETURN JUMPDEST PUSH2 0x12F PUSH2 0x818 JUMP JUMPDEST PUSH1 0x40 MLOAD PUSH2 0x13C SWAP2 SWAP1 PUSH2 0xF1A JUMP JUMPDEST PUSH1 0x40 MLOAD DUP1 SWAP2 SUB SWAP1 RETURN JUMPDEST PUSH2 0x15F PUSH1 0x4 DUP1 CALLDATASIZE SUB DUP2 ADD SWAP1 PUSH2 0x15A SWAP2 SWAP1 PUSH2 0xB19 JUMP JUMPDEST PUSH2 0x83E JUMP JUMPDEST PUSH1 0x40 MLOAD PUSH2 0x16C SWAP2 SWAP1 PUSH2 0xF72 JUMP JUMPDEST PUSH1 0x40 MLOAD DUP1 SWAP2 SUB SWAP1 RETURN JUMPDEST PUSH1 0x60 PUSH1 0x0 PUSH1 0x1 DUP1 SLOAD SWAP1 POP SWAP1 POP PUSH1 0x0 DUP2 PUSH8 0xFFFFFFFFFFFFFFFF DUP2 GT ISZERO PUSH2 0x19D JUMPI PUSH2 0x19C PUSH2 0x1313 JUMP JUMPDEST JUMPDEST PUSH1 0x40 MLOAD SWAP1 DUP1 DUP3 MSTORE DUP1 PUSH1 0x20 MUL PUSH1 0x20 ADD DUP3 ADD PUSH1 0x40 MSTORE DUP1 ISZERO PUSH2 0x1D6 JUMPI DUP2 PUSH1 0x20 ADD JUMPDEST PUSH2 0x1C3 PUSH2 0x999 JUMP JUMPDEST DUP2 MSTORE PUSH1 0x20 ADD SWAP1 PUSH1 0x1 SWAP1 SUB SWAP1 DUP2 PUSH2 0x1BB JUMPI SWAP1 POP JUMPDEST POP SWAP1 POP PUSH1 0x0 DUP1 PUSH1 0x0 SWAP1 POP JUMPDEST DUP4 DUP2 LT ISZERO PUSH2 0x459 JUMPI DUP6 PUSH1 0x6 DUP2 GT ISZERO PUSH2 0x1FC JUMPI PUSH2 0x1FB PUSH2 0x1286 JUMP JUMPDEST JUMPDEST PUSH1 0x0 PUSH1 0x1 DUP4 DUP2 SLOAD DUP2 LT PUSH2 0x212 JUMPI PUSH2 0x211 PUSH2 0x12E4 JUMP JUMPDEST JUMPDEST SWAP1 PUSH1 0x0 MSTORE PUSH1 0x20 PUSH1 0x0 KECCAK256 ADD PUSH1 0x40 MLOAD PUSH2 0x229 SWAP2 SWAP1 PUSH2 0xF03 JUMP JUMPDEST SWAP1 DUP2 MSTORE PUSH1 0x20 ADD PUSH1 0x40 MLOAD DUP1 SWAP2 SUB SWAP1 KECCAK256 PUSH1 0x1 ADD PUSH1 0x0 SWAP1 SLOAD SWAP1 PUSH2 0x100 EXP SWAP1 DIV PUSH1 0xFF AND PUSH1 0x6 DUP2 GT ISZERO PUSH2 0x25A JUMPI PUSH2 0x259 PUSH2 0x1286 JUMP JUMPDEST JUMPDEST EQ ISZERO PUSH2 0x446 JUMPI PUSH1 0x0 PUSH1 0x1 DUP3 DUP2 SLOAD DUP2 LT PUSH2 0x276 JUMPI PUSH2 0x275 PUSH2 0x12E4 JUMP JUMPDEST JUMPDEST SWAP1 PUSH1 0x0 MSTORE PUSH1 0x20 PUSH1 0x0 KECCAK256 ADD PUSH1 0x40 MLOAD PUSH2 0x28D SWAP2 SWAP1 PUSH2 0xF03 JUMP JUMPDEST SWAP1 DUP2 MSTORE PUSH1 0x20 ADD PUSH1 0x40 MLOAD DUP1 SWAP2 SUB SWAP1 KECCAK256 PUSH1 0x40 MLOAD DUP1 PUSH1 0xC0 ADD PUSH1 0x40 MSTORE SWAP1 DUP2 PUSH1 0x0 DUP3 ADD DUP1 SLOAD PUSH2 0x2B6 SWAP1 PUSH2 0x11AB JUMP JUMPDEST DUP1 PUSH1 0x1F ADD PUSH1 0x20 DUP1 SWAP2 DIV MUL PUSH1 0x20 ADD PUSH1 0x40 MLOAD SWAP1 DUP2 ADD PUSH1 0x40 MSTORE DUP1 SWAP3 SWAP2 SWAP1 DUP2 DUP2 MSTORE PUSH1 0x20 ADD DUP3 DUP1 SLOAD PUSH2 0x2E2 SWAP1 PUSH2 0x11AB JUMP JUMPDEST DUP1 ISZERO PUSH2 0x32F JUMPI DUP1 PUSH1 0x1F LT PUSH2 0x304 JUMPI PUSH2 0x100 DUP1 DUP4 SLOAD DIV MUL DUP4 MSTORE SWAP2 PUSH1 0x20 ADD SWAP2 PUSH2 0x32F JUMP JUMPDEST DUP3 ADD SWAP2 SWAP1 PUSH1 0x0 MSTORE PUSH1 0x20 PUSH1 0x0 KECCAK256 SWAP1 JUMPDEST DUP2 SLOAD DUP2 MSTORE SWAP1 PUSH1 0x1 ADD SWAP1 PUSH1 0x20 ADD DUP1 DUP4 GT PUSH2 0x312 JUMPI DUP3 SWAP1 SUB PUSH1 0x1F AND DUP3 ADD SWAP2 JUMPDEST POP POP POP POP POP DUP2 MSTORE PUSH1 0x20 ADD PUSH1 0x1 DUP3 ADD PUSH1 0x0 SWAP1 SLOAD SWAP1 PUSH2 0x100 EXP SWAP1 DIV PUSH1 0xFF AND PUSH1 0x6 DUP2 GT ISZERO PUSH2 0x35D JUMPI PUSH2 0x35C PUSH2 0x1286 JUMP JUMPDEST JUMPDEST PUSH1 0x6 DUP2 GT ISZERO PUSH2 0x36F JUMPI PUSH2 0x36E PUSH2 0x1286 JUMP JUMPDEST JUMPDEST DUP2 MSTORE PUSH1 0x20 ADD PUSH1 0x1 DUP3 ADD PUSH1 0x1 SWAP1 SLOAD SWAP1 PUSH2 0x100 EXP SWAP1 DIV PUSH1 0xFF AND PUSH1 0x2 DUP2 GT ISZERO PUSH2 0x398 JUMPI PUSH2 0x397 PUSH2 0x1286 JUMP JUMPDEST JUMPDEST PUSH1 0x2 DUP2 GT ISZERO PUSH2 0x3AA JUMPI PUSH2 0x3A9 PUSH2 0x1286 JUMP JUMPDEST JUMPDEST DUP2 MSTORE PUSH1 0x20 ADD PUSH1 0x2 DUP3 ADD SLOAD DUP2 MSTORE PUSH1 0x20 ADD PUSH1 0x3 DUP3 ADD SLOAD DUP2 MSTORE PUSH1 0x20 ADD PUSH1 0x4 DUP3 ADD PUSH1 0x0 SWAP1 SLOAD SWAP1 PUSH2 0x100 EXP SWAP1 DIV PUSH20 0xFFFFFFFFFFFFFFFFFFFFFFFFFFFFFFFFFFFFFFFF AND PUSH20 0xFFFFFFFFFFFFFFFFFFFFFFFFFFFFFFFFFFFFFFFF AND PUSH20 0xFFFFFFFFFFFFFFFFFFFFFFFFFFFFFFFFFFFFFFFF AND DUP2 MSTORE POP POP DUP4 DUP4 DUP2 MLOAD DUP2 LT PUSH2 0x42B JUMPI PUSH2 0x42A PUSH2 0x12E4 JUMP JUMPDEST JUMPDEST PUSH1 0x20 MUL PUSH1 0x20 ADD ADD DUP2 SWAP1 MSTORE POP PUSH1 0x1 DUP3 PUSH2 0x443 SWAP2 SWAP1 PUSH2 0x1081 JUMP JUMPDEST SWAP2 POP JUMPDEST DUP1 DUP1 PUSH2 0x451 SWAP1 PUSH2 0x120E JUMP JUMPDEST SWAP2 POP POP PUSH2 0x1E1 JUMP JUMPDEST POP DUP1 PUSH8 0xFFFFFFFFFFFFFFFF DUP2 GT ISZERO PUSH2 0x474 JUMPI PUSH2 0x473 PUSH2 0x1313 JUMP JUMPDEST JUMPDEST PUSH1 0x40 MLOAD SWAP1 DUP1 DUP3 MSTORE DUP1 PUSH1 0x20 MUL PUSH1 0x20 ADD DUP3 ADD PUSH1 0x40 MSTORE DUP1 ISZERO PUSH2 0x4AD JUMPI DUP2 PUSH1 0x20 ADD JUMPDEST PUSH2 0x49A PUSH2 0x999 JUMP JUMPDEST DUP2 MSTORE PUSH1 0x20 ADD SWAP1 PUSH1 0x1 SWAP1 SUB SWAP1 DUP2 PUSH2 0x492 JUMPI SWAP1 POP JUMPDEST POP SWAP4 POP PUSH1 0x0 JUMPDEST DUP2 DUP2 LT ISZERO PUSH2 0x507 JUMPI DUP3 DUP2 DUP2 MLOAD DUP2 LT PUSH2 0x4CE JUMPI PUSH2 0x4CD PUSH2 0x12E4 JUMP JUMPDEST JUMPDEST PUSH1 0x20 MUL PUSH1 0x20 ADD ADD MLOAD DUP6 DUP3 DUP2 MLOAD DUP2 LT PUSH2 0x4E9 JUMPI PUSH2 0x4E8 PUSH2 0x12E4 JUMP JUMPDEST JUMPDEST PUSH1 0x20 MUL PUSH1 0x20 ADD ADD DUP2 SWAP1 MSTORE POP DUP1 DUP1 PUSH2 0x4FF SWAP1 PUSH2 0x120E JUMP JUMPDEST SWAP2 POP POP PUSH2 0x4B3 JUMP JUMPDEST POP POP POP POP SWAP2 SWAP1 POP JUMP JUMPDEST PUSH1 0x0 CALLER PUSH20 0xFFFFFFFFFFFFFFFFFFFFFFFFFFFFFFFFFFFFFFFF AND PUSH1 0x4 PUSH1 0x0 SWAP1 SLOAD SWAP1 PUSH2 0x100 EXP SWAP1 DIV PUSH20 0xFFFFFFFFFFFFFFFFFFFFFFFFFFFFFFFFFFFFFFFF AND PUSH20 0xFFFFFFFFFFFFFFFFFFFFFFFFFFFFFFFFFFFFFFFF AND EQ PUSH2 0x56C JUMPI PUSH1 0x0 DUP1 REVERT JUMPDEST DUP2 PUSH1 0x0 DUP5 PUSH1 0x40 MLOAD PUSH2 0x57D SWAP2 SWAP1 PUSH2 0xEEC JUMP JUMPDEST SWAP1 DUP2 MSTORE PUSH1 0x20 ADD PUSH1 0x40 MLOAD DUP1 SWAP2 SUB SWAP1 KECCAK256 PUSH1 0x1 ADD PUSH1 0x1 PUSH2 0x100 EXP DUP2 SLOAD DUP2 PUSH1 0xFF MUL NOT AND SWAP1 DUP4 PUSH1 0x2 DUP2 GT ISZERO PUSH2 0x5B0 JUMPI PUSH2 0x5AF PUSH2 0x1286 JUMP JUMPDEST JUMPDEST MUL OR SWAP1 SSTORE POP PUSH1 0x1 SWAP1 POP SWAP3 SWAP2 POP POP JUMP JUMPDEST PUSH1 0x0 CALLER PUSH20 0xFFFFFFFFFFFFFFFFFFFFFFFFFFFFFFFFFFFFFFFF AND PUSH1 0x4 PUSH1 0x0 SWAP1 SLOAD SWAP1 PUSH2 0x100 EXP SWAP1 DIV PUSH20 0xFFFFFFFFFFFFFFFFFFFFFFFFFFFFFFFFFFFFFFFF AND PUSH20 0xFFFFFFFFFFFFFFFFFFFFFFFFFFFFFFFFFFFFFFFF AND EQ PUSH2 0x61B JUMPI PUSH1 0x0 DUP1 REVERT JUMPDEST DUP2 PUSH1 0x2 DUP5 PUSH1 0x40 MLOAD PUSH2 0x62C SWAP2 SWAP1 PUSH2 0xEEC JUMP JUMPDEST SWAP1 DUP2 MSTORE PUSH1 0x20 ADD PUSH1 0x40 MLOAD DUP1 SWAP2 SUB SWAP1 KECCAK256 PUSH1 0x1 ADD PUSH1 0x14 PUSH2 0x100 EXP DUP2 SLOAD DUP2 PUSH1 0xFF MUL NOT AND SWAP1 DUP4 PUSH1 0x2 DUP2 GT ISZERO PUSH2 0x65F JUMPI PUSH2 0x65E PUSH2 0x1286 JUMP JUMPDEST JUMPDEST MUL OR SWAP1 SSTORE POP PUSH1 0x1 SWAP1 POP SWAP3 SWAP2 POP POP JUMP JUMPDEST PUSH2 0x676 PUSH2 0x999 JUMP JUMPDEST PUSH1 0x0 DUP3 PUSH1 0x40 MLOAD PUSH2 0x686 SWAP2 SWAP1 PUSH2 0xEEC JUMP JUMPDEST SWAP1 DUP2 MSTORE PUSH1 0x20 ADD PUSH1 0x40 MLOAD DUP1 SWAP2 SUB SWAP1 KECCAK256 PUSH1 0x40 MLOAD DUP1 PUSH1 0xC0 ADD PUSH1 0x40 MSTORE SWAP1 DUP2 PUSH1 0x0 DUP3 ADD DUP1 SLOAD PUSH2 0x6AF SWAP1 PUSH2 0x11AB JUMP JUMPDEST DUP1 PUSH1 0x1F ADD PUSH1 0x20 DUP1 SWAP2 DIV MUL PUSH1 0x20 ADD PUSH1 0x40 MLOAD SWAP1 DUP2 ADD PUSH1 0x40 MSTORE DUP1 SWAP3 SWAP2 SWAP1 DUP2 DUP2 MSTORE PUSH1 0x20 ADD DUP3 DUP1 SLOAD PUSH2 0x6DB SWAP1 PUSH2 0x11AB JUMP JUMPDEST DUP1 ISZERO PUSH2 0x728 JUMPI DUP1 PUSH1 0x1F LT PUSH2 0x6FD JUMPI PUSH2 0x100 DUP1 DUP4 SLOAD DIV MUL DUP4 MSTORE SWAP2 PUSH1 0x20 ADD SWAP2 PUSH2 0x728 JUMP JUMPDEST DUP3 ADD SWAP2 SWAP1 PUSH1 0x0 MSTORE PUSH1 0x20 PUSH1 0x0 KECCAK256 SWAP1 JUMPDEST DUP2 SLOAD DUP2 MSTORE SWAP1 PUSH1 0x1 ADD SWAP1 PUSH1 0x20 ADD DUP1 DUP4 GT PUSH2 0x70B JUMPI DUP3 SWAP1 SUB PUSH1 0x1F AND DUP3 ADD SWAP2 JUMPDEST POP POP POP POP POP DUP2 MSTORE PUSH1 0x20 ADD PUSH1 0x1 DUP3 ADD PUSH1 0x0 SWAP1 SLOAD SWAP1 PUSH2 0x100 EXP SWAP1 DIV PUSH1 0xFF AND PUSH1 0x6 DUP2 GT ISZERO PUSH2 0x756 JUMPI PUSH2 0x755 PUSH2 0x1286 JUMP JUMPDEST JUMPDEST PUSH1 0x6 DUP2 GT ISZERO PUSH2 0x768 JUMPI PUSH2 0x767 PUSH2 0x1286 JUMP JUMPDEST JUMPDEST DUP2 MSTORE PUSH1 0x20 ADD PUSH1 0x1 DUP3 ADD PUSH1 0x1 SWAP1 SLOAD SWAP1 PUSH2 0x100 EXP SWAP1 DIV PUSH1 0xFF AND PUSH1 0x2 DUP2 GT ISZERO PUSH2 0x791 JUMPI PUSH2 0x790 PUSH2 0x1286 JUMP JUMPDEST JUMPDEST PUSH1 0x2 DUP2 GT ISZERO PUSH2 0x7A3 JUMPI PUSH2 0x7A2 PUSH2 0x1286 JUMP JUMPDEST JUMPDEST DUP2 MSTORE PUSH1 0x20 ADD PUSH1 0x2 DUP3 ADD SLOAD DUP2 MSTORE PUSH1 0x20 ADD PUSH1 0x3 DUP3 ADD SLOAD DUP2 MSTORE PUSH1 0x20 ADD PUSH1 0x4 DUP3 ADD PUSH1 0x0 SWAP1 SLOAD SWAP1 PUSH2 0x100 EXP SWAP1 DIV PUSH20 0xFFFFFFFFFFFFFFFFFFFFFFFFFFFFFFFFFFFFFFFF AND PUSH20 0xFFFFFFFFFFFFFFFFFFFFFFFFFFFFFFFFFFFFFFFF AND PUSH20 0xFFFFFFFFFFFFFFFFFFFFFFFFFFFFFFFFFFFFFFFF AND DUP2 MSTORE POP POP SWAP1 POP SWAP2 SWAP1 POP JUMP JUMPDEST PUSH1 0x4 PUSH1 0x0 SWAP1 SLOAD SWAP1 PUSH2 0x100 EXP SWAP1 DIV PUSH20 0xFFFFFFFFFFFFFFFFFFFFFFFFFFFFFFFFFFFFFFFF AND DUP2 JUMP JUMPDEST PUSH2 0x846 PUSH2 0xA09 JUMP JUMPDEST PUSH1 0x2 DUP3 PUSH1 0x40 MLOAD PUSH2 0x856 SWAP2 SWAP1 PUSH2 0xEEC JUMP JUMPDEST SWAP1 DUP2 MSTORE PUSH1 0x20 ADD PUSH1 0x40 MLOAD DUP1 SWAP2 SUB SWAP1 KECCAK256 PUSH1 0x40 MLOAD DUP1 PUSH1 0x60 ADD PUSH1 0x40 MSTORE SWAP1 DUP2 PUSH1 0x0 DUP3 ADD DUP1 SLOAD PUSH2 0x87F SWAP1 PUSH2 0x11AB JUMP JUMPDEST DUP1 PUSH1 0x1F ADD PUSH1 0x20 DUP1 SWAP2 DIV MUL PUSH1 0x20 ADD PUSH1 0x40 MLOAD SWAP1 DUP2 ADD PUSH1 0x40 MSTORE DUP1 SWAP3 SWAP2 SWAP1 DUP2 DUP2 MSTORE PUSH1 0x20 ADD DUP3 DUP1 SLOAD PUSH2 0x8AB SWAP1 PUSH2 0x11AB JUMP JUMPDEST DUP1 ISZERO PUSH2 0x8F8 JUMPI DUP1 PUSH1 0x1F LT PUSH2 0x8CD JUMPI PUSH2 0x100 DUP1 DUP4 SLOAD DIV MUL DUP4 MSTORE SWAP2 PUSH1 0x20 ADD SWAP2 PUSH2 0x8F8 JUMP JUMPDEST DUP3 ADD SWAP2 SWAP1 PUSH1 0x0 MSTORE PUSH1 0x20 PUSH1 0x0 KECCAK256 SWAP1 JUMPDEST DUP2 SLOAD DUP2 MSTORE SWAP1 PUSH1 0x1 ADD SWAP1 PUSH1 0x20 ADD DUP1 DUP4 GT PUSH2 0x8DB JUMPI DUP3 SWAP1 SUB PUSH1 0x1F AND DUP3 ADD SWAP2 JUMPDEST POP POP POP POP POP DUP2 MSTORE PUSH1 0x20 ADD PUSH1 0x1 DUP3 ADD PUSH1 0x0 SWAP1 SLOAD SWAP1 PUSH2 0x100 EXP SWAP1 DIV PUSH20 0xFFFFFFFFFFFFFFFFFFFFFFFFFFFFFFFFFFFFFFFF AND PUSH20 0xFFFFFFFFFFFFFFFFFFFFFFFFFFFFFFFFFFFFFFFF AND PUSH20 0xFFFFFFFFFFFFFFFFFFFFFFFFFFFFFFFFFFFFFFFF AND DUP2 MSTORE PUSH1 0x20 ADD PUSH1 0x1 DUP3 ADD PUSH1 0x14 SWAP1 SLOAD SWAP1 PUSH2 0x100 EXP SWAP1 DIV PUSH1 0xFF AND PUSH1 0x2 DUP2 GT ISZERO PUSH2 0x97C JUMPI PUSH2 0x97B PUSH2 0x1286 JUMP JUMPDEST JUMPDEST PUSH1 0x2 DUP2 GT ISZERO PUSH2 0x98E JUMPI PUSH2 0x98D PUSH2 0x1286 JUMP JUMPDEST JUMPDEST DUP2 MSTORE POP POP SWAP1 POP SWAP2 SWAP1 POP JUMP JUMPDEST PUSH1 0x40 MLOAD DUP1 PUSH1 0xC0 ADD PUSH1 0x40 MSTORE DUP1 PUSH1 0x60 DUP2 MSTORE PUSH1 0x20 ADD PUSH1 0x0 PUSH1 0x6 DUP2 GT ISZERO PUSH2 0x9BF JUMPI PUSH2 0x9BE PUSH2 0x1286 JUMP JUMPDEST JUMPDEST DUP2 MSTORE PUSH1 0x20 ADD PUSH1 0x0 PUSH1 0x2 DUP2 GT ISZERO PUSH2 0x9D8 JUMPI PUSH2 0x9D7 PUSH2 0x1286 JUMP JUMPDEST JUMPDEST DUP2 MSTORE PUSH1 0x20 ADD PUSH1 0x0 DUP2 MSTORE PUSH1 0x20 ADD PUSH1 0x0 DUP2 MSTORE PUSH1 0x20 ADD PUSH1 0x0 PUSH20 0xFFFFFFFFFFFFFFFFFFFFFFFFFFFFFFFFFFFFFFFF AND DUP2 MSTORE POP SWAP1 JUMP JUMPDEST PUSH1 0x40 MLOAD DUP1 PUSH1 0x60 ADD PUSH1 0x40 MSTORE DUP1 PUSH1 0x60 DUP2 MSTORE PUSH1 0x20 ADD PUSH1 0x0 PUSH20 0xFFFFFFFFFFFFFFFFFFFFFFFFFFFFFFFFFFFFFFFF AND DUP2 MSTORE PUSH1 0x20 ADD PUSH1 0x0 PUSH1 0x2 DUP2 GT ISZERO PUSH2 0xA4C JUMPI PUSH2 0xA4B PUSH2 0x1286 JUMP JUMPDEST JUMPDEST DUP2 MSTORE POP SWAP1 JUMP JUMPDEST PUSH1 0x0 PUSH2 0xA65 PUSH2 0xA60 DUP5 PUSH2 0xFDB JUMP JUMPDEST PUSH2 0xFB6 JUMP JUMPDEST SWAP1 POP DUP3 DUP2 MSTORE PUSH1 0x20 DUP2 ADD DUP5 DUP5 DUP5 ADD GT ISZERO PUSH2 0xA81 JUMPI PUSH2 0xA80 PUSH2 0x1347 JUMP JUMPDEST JUMPDEST PUSH2 0xA8C DUP5 DUP3 DUP6 PUSH2 0x1169 JUMP JUMPDEST POP SWAP4 SWAP3 POP POP POP JUMP JUMPDEST PUSH1 0x0 DUP2 CALLDATALOAD SWAP1 POP PUSH2 0xAA3 DUP2 PUSH2 0x138F JUMP JUMPDEST SWAP3 SWAP2 POP POP JUMP JUMPDEST PUSH1 0x0 DUP2 CALLDATALOAD SWAP1 POP PUSH2 0xAB8 DUP2 PUSH2 0x139F JUMP JUMPDEST SWAP3 SWAP2 POP POP JUMP JUMPDEST PUSH1 0x0 DUP3 PUSH1 0x1F DUP4 ADD SLT PUSH2 0xAD3 JUMPI PUSH2 0xAD2 PUSH2 0x1342 JUMP JUMPDEST JUMPDEST DUP2 CALLDATALOAD PUSH2 0xAE3 DUP5 DUP3 PUSH1 0x20 DUP7 ADD PUSH2 0xA52 JUMP JUMPDEST SWAP2 POP POP SWAP3 SWAP2 POP POP JUMP JUMPDEST PUSH1 0x0 PUSH1 0x20 DUP3 DUP5 SUB SLT ISZERO PUSH2 0xB02 JUMPI PUSH2 0xB01 PUSH2 0x1351 JUMP JUMPDEST JUMPDEST PUSH1 0x0 PUSH2 0xB10 DUP5 DUP3 DUP6 ADD PUSH2 0xAA9 JUMP JUMPDEST SWAP2 POP POP SWAP3 SWAP2 POP POP JUMP JUMPDEST PUSH1 0x0 PUSH1 0x20 DUP3 DUP5 SUB SLT ISZERO PUSH2 0xB2F JUMPI PUSH2 0xB2E PUSH2 0x1351 JUMP JUMPDEST JUMPDEST PUSH1 0x0 DUP3 ADD CALLDATALOAD PUSH8 0xFFFFFFFFFFFFFFFF DUP2 GT ISZERO PUSH2 0xB4D JUMPI PUSH2 0xB4C PUSH2 0x134C JUMP JUMPDEST JUMPDEST PUSH2 0xB59 DUP5 DUP3 DUP6 ADD PUSH2 0xABE JUMP JUMPDEST SWAP2 POP POP SWAP3 SWAP2 POP POP JUMP JUMPDEST PUSH1 0x0 DUP1 PUSH1 0x40 DUP4 DUP6 SUB SLT ISZERO PUSH2 0xB79 JUMPI PUSH2 0xB78 PUSH2 0x1351 JUMP JUMPDEST JUMPDEST PUSH1 0x0 DUP4 ADD CALLDATALOAD PUSH8 0xFFFFFFFFFFFFFFFF DUP2 GT ISZERO PUSH2 0xB97 JUMPI PUSH2 0xB96 PUSH2 0x134C JUMP JUMPDEST JUMPDEST PUSH2 0xBA3 DUP6 DUP3 DUP7 ADD PUSH2 0xABE JUMP JUMPDEST SWAP3 POP POP PUSH1 0x20 PUSH2 0xBB4 DUP6 DUP3 DUP7 ADD PUSH2 0xA94 JUMP JUMPDEST SWAP2 POP POP SWAP3 POP SWAP3 SWAP1 POP JUMP JUMPDEST PUSH1 0x0 PUSH2 0xBCA DUP4 DUP4 PUSH2 0xDCB JUMP JUMPDEST SWAP1 POP SWAP3 SWAP2 POP POP JUMP JUMPDEST PUSH2 0xBDB DUP2 PUSH2 0x10D7 JUMP JUMPDEST DUP3 MSTORE POP POP JUMP JUMPDEST PUSH2 0xBEA DUP2 PUSH2 0x10D7 JUMP JUMPDEST DUP3 MSTORE POP POP JUMP JUMPDEST PUSH1 0x0 PUSH2 0xBFB DUP3 PUSH2 0x1031 JUMP JUMPDEST PUSH2 0xC05 DUP2 DUP6 PUSH2 0x1054 JUMP JUMPDEST SWAP4 POP DUP4 PUSH1 0x20 DUP3 MUL DUP6 ADD PUSH2 0xC17 DUP6 PUSH2 0x100C JUMP JUMPDEST DUP1 PUSH1 0x0 JUMPDEST DUP6 DUP2 LT ISZERO PUSH2 0xC53 JUMPI DUP5 DUP5 SUB DUP10 MSTORE DUP2 MLOAD PUSH2 0xC34 DUP6 DUP3 PUSH2 0xBBE JUMP JUMPDEST SWAP5 POP PUSH2 0xC3F DUP4 PUSH2 0x1047 JUMP JUMPDEST SWAP3 POP PUSH1 0x20 DUP11 ADD SWAP10 POP POP PUSH1 0x1 DUP2 ADD SWAP1 POP PUSH2 0xC1B JUMP JUMPDEST POP DUP3 SWAP8 POP DUP8 SWAP6 POP POP POP POP POP POP SWAP3 SWAP2 POP POP JUMP JUMPDEST PUSH2 0xC6E DUP2 PUSH2 0x10E9 JUMP JUMPDEST DUP3 MSTORE POP POP JUMP JUMPDEST PUSH2 0xC7D DUP2 PUSH2 0x1145 JUMP JUMPDEST DUP3 MSTORE POP POP JUMP JUMPDEST PUSH2 0xC8C DUP2 PUSH2 0x1157 JUMP JUMPDEST DUP3 MSTORE POP POP JUMP JUMPDEST PUSH1 0x0 PUSH2 0xC9D DUP3 PUSH2 0x103C JUMP JUMPDEST PUSH2 0xCA7 DUP2 DUP6 PUSH2 0x1065 JUMP JUMPDEST SWAP4 POP PUSH2 0xCB7 DUP2 DUP6 PUSH1 0x20 DUP7 ADD PUSH2 0x1178 JUMP JUMPDEST PUSH2 0xCC0 DUP2 PUSH2 0x1356 JUMP JUMPDEST DUP5 ADD SWAP2 POP POP SWAP3 SWAP2 POP POP JUMP JUMPDEST PUSH1 0x0 PUSH2 0xCD6 DUP3 PUSH2 0x103C JUMP JUMPDEST PUSH2 0xCE0 DUP2 DUP6 PUSH2 0x1076 JUMP JUMPDEST SWAP4 POP PUSH2 0xCF0 DUP2 DUP6 PUSH1 0x20 DUP7 ADD PUSH2 0x1178 JUMP JUMPDEST DUP1 DUP5 ADD SWAP2 POP POP SWAP3 SWAP2 POP POP JUMP JUMPDEST PUSH1 0x0 DUP2 SLOAD PUSH2 0xD09 DUP2 PUSH2 0x11AB JUMP JUMPDEST PUSH2 0xD13 DUP2 DUP7 PUSH2 0x1076 JUMP JUMPDEST SWAP5 POP PUSH1 0x1 DUP3 AND PUSH1 0x0 DUP2 EQ PUSH2 0xD2E JUMPI PUSH1 0x1 DUP2 EQ PUSH2 0xD3F JUMPI PUSH2 0xD72 JUMP JUMPDEST PUSH1 0xFF NOT DUP4 AND DUP7 MSTORE DUP2 DUP7 ADD SWAP4 POP PUSH2 0xD72 JUMP JUMPDEST PUSH2 0xD48 DUP6 PUSH2 0x101C JUMP JUMPDEST PUSH1 0x0 JUMPDEST DUP4 DUP2 LT ISZERO PUSH2 0xD6A JUMPI DUP2 SLOAD DUP2 DUP10 ADD MSTORE PUSH1 0x1 DUP3 ADD SWAP2 POP PUSH1 0x20 DUP2 ADD SWAP1 POP PUSH2 0xD4B JUMP JUMPDEST DUP4 DUP9 ADD SWAP6 POP POP POP JUMPDEST POP POP POP SWAP3 SWAP2 POP POP JUMP JUMPDEST PUSH1 0x0 PUSH1 0x60 DUP4 ADD PUSH1 0x0 DUP4 ADD MLOAD DUP5 DUP3 SUB PUSH1 0x0 DUP7 ADD MSTORE PUSH2 0xD98 DUP3 DUP3 PUSH2 0xC92 JUMP JUMPDEST SWAP2 POP POP PUSH1 0x20 DUP4 ADD MLOAD PUSH2 0xDAD PUSH1 0x20 DUP7 ADD DUP3 PUSH2 0xBD2 JUMP JUMPDEST POP PUSH1 0x40 DUP4 ADD MLOAD PUSH2 0xDC0 PUSH1 0x40 DUP7 ADD DUP3 PUSH2 0xC74 JUMP JUMPDEST POP DUP1 SWAP2 POP POP SWAP3 SWAP2 POP POP JUMP JUMPDEST PUSH1 0x0 PUSH1 0xC0 DUP4 ADD PUSH1 0x0 DUP4 ADD MLOAD DUP5 DUP3 SUB PUSH1 0x0 DUP7 ADD MSTORE PUSH2 0xDE8 DUP3 DUP3 PUSH2 0xC92 JUMP JUMPDEST SWAP2 POP POP PUSH1 0x20 DUP4 ADD MLOAD PUSH2 0xDFD PUSH1 0x20 DUP7 ADD DUP3 PUSH2 0xC83 JUMP JUMPDEST POP PUSH1 0x40 DUP4 ADD MLOAD PUSH2 0xE10 PUSH1 0x40 DUP7 ADD DUP3 PUSH2 0xC74 JUMP JUMPDEST POP PUSH1 0x60 DUP4 ADD MLOAD PUSH2 0xE23 PUSH1 0x60 DUP7 ADD DUP3 PUSH2 0xEDD JUMP JUMPDEST POP PUSH1 0x80 DUP4 ADD MLOAD PUSH2 0xE36 PUSH1 0x80 DUP7 ADD DUP3 PUSH2 0xEDD JUMP JUMPDEST POP PUSH1 0xA0 DUP4 ADD MLOAD PUSH2 0xE49 PUSH1 0xA0 DUP7 ADD DUP3 PUSH2 0xBD2 JUMP JUMPDEST POP DUP1 SWAP2 POP POP SWAP3 SWAP2 POP POP JUMP JUMPDEST PUSH1 0x0 PUSH1 0xC0 DUP4 ADD PUSH1 0x0 DUP4 ADD MLOAD DUP5 DUP3 SUB PUSH1 0x0 DUP7 ADD MSTORE PUSH2 0xE71 DUP3 DUP3 PUSH2 0xC92 JUMP JUMPDEST SWAP2 POP POP PUSH1 0x20 DUP4 ADD MLOAD PUSH2 0xE86 PUSH1 0x20 DUP7 ADD DUP3 PUSH2 0xC83 JUMP JUMPDEST POP PUSH1 0x40 DUP4 ADD MLOAD PUSH2 0xE99 PUSH1 0x40 DUP7 ADD DUP3 PUSH2 0xC74 JUMP JUMPDEST POP PUSH1 0x60 DUP4 ADD MLOAD PUSH2 0xEAC PUSH1 0x60 DUP7 ADD DUP3 PUSH2 0xEDD JUMP JUMPDEST POP PUSH1 0x80 DUP4 ADD MLOAD PUSH2 0xEBF PUSH1 0x80 DUP7 ADD DUP3 PUSH2 0xEDD JUMP JUMPDEST POP PUSH1 0xA0 DUP4 ADD MLOAD PUSH2 0xED2 PUSH1 0xA0 DUP7 ADD DUP3 PUSH2 0xBD2 JUMP JUMPDEST POP DUP1 SWAP2 POP POP SWAP3 SWAP2 POP POP JUMP JUMPDEST PUSH2 0xEE6 DUP2 PUSH2 0x113B JUMP JUMPDEST DUP3 MSTORE POP POP JUMP JUMPDEST PUSH1 0x0 PUSH2 0xEF8 DUP3 DUP5 PUSH2 0xCCB JUMP JUMPDEST SWAP2 POP DUP2 SWAP1 POP SWAP3 SWAP2 POP POP JUMP JUMPDEST PUSH1 0x0 PUSH2 0xF0F DUP3 DUP5 PUSH2 0xCFC JUMP JUMPDEST SWAP2 POP DUP2 SWAP1 POP SWAP3 SWAP2 POP POP JUMP JUMPDEST PUSH1 0x0 PUSH1 0x20 DUP3 ADD SWAP1 POP PUSH2 0xF2F PUSH1 0x0 DUP4 ADD DUP5 PUSH2 0xBE1 JUMP JUMPDEST SWAP3 SWAP2 POP POP JUMP JUMPDEST PUSH1 0x0 PUSH1 0x20 DUP3 ADD SWAP1 POP DUP2 DUP2 SUB PUSH1 0x0 DUP4 ADD MSTORE PUSH2 0xF4F DUP2 DUP5 PUSH2 0xBF0 JUMP JUMPDEST SWAP1 POP SWAP3 SWAP2 POP POP JUMP JUMPDEST PUSH1 0x0 PUSH1 0x20 DUP3 ADD SWAP1 POP PUSH2 0xF6C PUSH1 0x0 DUP4 ADD DUP5 PUSH2 0xC65 JUMP JUMPDEST SWAP3 SWAP2 POP POP JUMP JUMPDEST PUSH1 0x0 PUSH1 0x20 DUP3 ADD SWAP1 POP DUP2 DUP2 SUB PUSH1 0x0 DUP4 ADD MSTORE PUSH2 0xF8C DUP2 DUP5 PUSH2 0xD7B JUMP JUMPDEST SWAP1 POP SWAP3 SWAP2 POP POP JUMP JUMPDEST PUSH1 0x0 PUSH1 0x20 DUP3 ADD SWAP1 POP DUP2 DUP2 SUB PUSH1 0x0 DUP4 ADD MSTORE PUSH2 0xFAE DUP2 DUP5 PUSH2 0xE54 JUMP JUMPDEST SWAP1 POP SWAP3 SWAP2 POP POP JUMP JUMPDEST PUSH1 0x0 PUSH2 0xFC0 PUSH2 0xFD1 JUMP JUMPDEST SWAP1 POP PUSH2 0xFCC DUP3 DUP3 PUSH2 0x11DD JUMP JUMPDEST SWAP2 SWAP1 POP JUMP JUMPDEST PUSH1 0x0 PUSH1 0x40 MLOAD SWAP1 POP SWAP1 JUMP JUMPDEST PUSH1 0x0 PUSH8 0xFFFFFFFFFFFFFFFF DUP3 GT ISZERO PUSH2 0xFF6 JUMPI PUSH2 0xFF5 PUSH2 0x1313 JUMP JUMPDEST JUMPDEST PUSH2 0xFFF DUP3 PUSH2 0x1356 JUMP JUMPDEST SWAP1 POP PUSH1 0x20 DUP2 ADD SWAP1 POP SWAP2 SWAP1 POP JUMP JUMPDEST PUSH1 0x0 DUP2 SWAP1 POP PUSH1 0x20 DUP3 ADD SWAP1 POP SWAP2 SWAP1 POP JUMP JUMPDEST PUSH1 0x0 DUP2 SWAP1 POP DUP2 PUSH1 0x0 MSTORE PUSH1 0x20 PUSH1 0x0 KECCAK256 SWAP1 POP SWAP2 SWAP1 POP JUMP JUMPDEST PUSH1 0x0 DUP2 MLOAD SWAP1 POP SWAP2 SWAP1 POP JUMP JUMPDEST PUSH1 0x0 DUP2 MLOAD SWAP1 POP SWAP2 SWAP1 POP JUMP JUMPDEST PUSH1 0x0 PUSH1 0x20 DUP3 ADD SWAP1 POP SWAP2 SWAP1 POP JUMP JUMPDEST PUSH1 0x0 DUP3 DUP3 MSTORE PUSH1 0x20 DUP3 ADD SWAP1 POP SWAP3 SWAP2 POP POP JUMP JUMPDEST PUSH1 0x0 DUP3 DUP3 MSTORE PUSH1 0x20 DUP3 ADD SWAP1 POP SWAP3 SWAP2 POP POP JUMP JUMPDEST PUSH1 0x0 DUP2 SWAP1 POP SWAP3 SWAP2 POP POP JUMP JUMPDEST PUSH1 0x0 PUSH2 0x108C DUP3 PUSH2 0x113B JUMP JUMPDEST SWAP2 POP PUSH2 0x1097 DUP4 PUSH2 0x113B JUMP JUMPDEST SWAP3 POP DUP3 PUSH32 0xFFFFFFFFFFFFFFFFFFFFFFFFFFFFFFFFFFFFFFFFFFFFFFFFFFFFFFFFFFFFFFFF SUB DUP3 GT ISZERO PUSH2 0x10CC JUMPI PUSH2 0x10CB PUSH2 0x1257 JUMP JUMPDEST JUMPDEST DUP3 DUP3 ADD SWAP1 POP SWAP3 SWAP2 POP POP JUMP JUMPDEST PUSH1 0x0 PUSH2 0x10E2 DUP3 PUSH2 0x111B JUMP JUMPDEST SWAP1 POP SWAP2 SWAP1 POP JUMP JUMPDEST PUSH1 0x0 DUP2 ISZERO ISZERO SWAP1 POP SWAP2 SWAP1 POP JUMP JUMPDEST PUSH1 0x0 DUP2 SWAP1 POP PUSH2 0x1103 DUP3 PUSH2 0x1367 JUMP JUMPDEST SWAP2 SWAP1 POP JUMP JUMPDEST PUSH1 0x0 DUP2 SWAP1 POP PUSH2 0x1116 DUP3 PUSH2 0x137B JUMP JUMPDEST SWAP2 SWAP1 POP JUMP JUMPDEST PUSH1 0x0 PUSH20 0xFFFFFFFFFFFFFFFFFFFFFFFFFFFFFFFFFFFFFFFF DUP3 AND SWAP1 POP SWAP2 SWAP1 POP JUMP JUMPDEST PUSH1 0x0 DUP2 SWAP1 POP SWAP2 SWAP1 POP JUMP JUMPDEST PUSH1 0x0 PUSH2 0x1150 DUP3 PUSH2 0x10F5 JUMP JUMPDEST SWAP1 POP SWAP2 SWAP1 POP JUMP JUMPDEST PUSH1 0x0 PUSH2 0x1162 DUP3 PUSH2 0x1108 JUMP JUMPDEST SWAP1 POP SWAP2 SWAP1 POP JUMP JUMPDEST DUP3 DUP2 DUP4 CALLDATACOPY PUSH1 0x0 DUP4 DUP4 ADD MSTORE POP POP POP JUMP JUMPDEST PUSH1 0x0 JUMPDEST DUP4 DUP2 LT ISZERO PUSH2 0x1196 JUMPI DUP1 DUP3 ADD MLOAD DUP2 DUP5 ADD MSTORE PUSH1 0x20 DUP2 ADD SWAP1 POP PUSH2 0x117B JUMP JUMPDEST DUP4 DUP2 GT ISZERO PUSH2 0x11A5 JUMPI PUSH1 0x0 DUP5 DUP5 ADD MSTORE JUMPDEST POP POP POP POP JUMP JUMPDEST PUSH1 0x0 PUSH1 0x2 DUP3 DIV SWAP1 POP PUSH1 0x1 DUP3 AND DUP1 PUSH2 0x11C3 JUMPI PUSH1 0x7F DUP3 AND SWAP2 POP JUMPDEST PUSH1 0x20 DUP3 LT DUP2 EQ ISZERO PUSH2 0x11D7 JUMPI PUSH2 0x11D6 PUSH2 0x12B5 JUMP JUMPDEST JUMPDEST POP SWAP2 SWAP1 POP JUMP JUMPDEST PUSH2 0x11E6 DUP3 PUSH2 0x1356 JUMP JUMPDEST DUP2 ADD DUP2 DUP2 LT PUSH8 0xFFFFFFFFFFFFFFFF DUP3 GT OR ISZERO PUSH2 0x1205 JUMPI PUSH2 0x1204 PUSH2 0x1313 JUMP JUMPDEST JUMPDEST DUP1 PUSH1 0x40 MSTORE POP POP POP JUMP JUMPDEST PUSH1 0x0 PUSH2 0x1219 DUP3 PUSH2 0x113B JUMP JUMPDEST SWAP2 POP PUSH32 0xFFFFFFFFFFFFFFFFFFFFFFFFFFFFFFFFFFFFFFFFFFFFFFFFFFFFFFFFFFFFFFFF DUP3 EQ ISZERO PUSH2 0x124C JUMPI PUSH2 0x124B PUSH2 0x1257 JUMP JUMPDEST JUMPDEST PUSH1 0x1 DUP3 ADD SWAP1 POP SWAP2 SWAP1 POP JUMP JUMPDEST PUSH32 0x4E487B7100000000000000000000000000000000000000000000000000000000 PUSH1 0x0 MSTORE PUSH1 0x11 PUSH1 0x4 MSTORE PUSH1 0x24 PUSH1 0x0 REVERT JUMPDEST PUSH32 0x4E487B7100000000000000000000000000000000000000000000000000000000 PUSH1 0x0 MSTORE PUSH1 0x21 PUSH1 0x4 MSTORE PUSH1 0x24 PUSH1 0x0 REVERT JUMPDEST PUSH32 0x4E487B7100000000000000000000000000000000000000000000000000000000 PUSH1 0x0 MSTORE PUSH1 0x22 PUSH1 0x4 MSTORE PUSH1 0x24 PUSH1 0x0 REVERT JUMPDEST PUSH32 0x4E487B7100000000000000000000000000000000000000000000000000000000 PUSH1 0x0 MSTORE PUSH1 0x32 PUSH1 0x4 MSTORE PUSH1 0x24 PUSH1 0x0 REVERT JUMPDEST PUSH32 0x4E487B7100000000000000000000000000000000000000000000000000000000 PUSH1 0x0 MSTORE PUSH1 0x41 PUSH1 0x4 MSTORE PUSH1 0x24 PUSH1 0x0 REVERT JUMPDEST PUSH1 0x0 DUP1 REVERT JUMPDEST PUSH1 0x0 DUP1 REVERT JUMPDEST PUSH1 0x0 DUP1 REVERT JUMPDEST PUSH1 0x0 DUP1 REVERT JUMPDEST PUSH1 0x0 PUSH1 0x1F NOT PUSH1 0x1F DUP4 ADD AND SWAP1 POP SWAP2 SWAP1 POP JUMP JUMPDEST PUSH1 0x3 DUP2 LT PUSH2 0x1378 JUMPI PUSH2 0x1377 PUSH2 0x1286 JUMP JUMPDEST JUMPDEST POP JUMP JUMPDEST PUSH1 0x7 DUP2 LT PUSH2 0x138C JUMPI PUSH2 0x138B PUSH2 0x1286 JUMP JUMPDEST JUMPDEST POP JUMP JUMPDEST PUSH1 0x3 DUP2 LT PUSH2 0x139C JUMPI PUSH1 0x0 DUP1 REVERT JUMPDEST POP JUMP JUMPDEST PUSH1 0x7 DUP2 LT PUSH2 0x13AC JUMPI PUSH1 0x0 DUP1 REVERT JUMPDEST POP JUMP INVALID LOG2 PUSH5 0x6970667358 0x22 SLT KECCAK256 PUSH23 0xB03DE146148421E340BCBFE2BC928D7EE4A6CB83460718 0xC 0xBC LT 0xC2 0x1E PUSH4 0xAE216473 PUSH16 0x6C634300080700330000000000000000 "
				},
				"gasEstimates": {
					"creation": {
						"codeDepositCost": "1018600",
						"executionCost": "25327",
						"totalCost": "1043927"
					},
					"external": {
						"GetUsersByType(uint8)": "infinite",
						"Owner()": "2580",
						"ReadDrug(string)": "infinite",
						"ReadUser(string)": "infinite",
						"SetDrugStatus(string,uint8)": "infinite",
						"SetUserStatus(string,uint8)": "infinite"
					}
				},
				"methodIdentifiers": {
					"GetUsersByType(uint8)": "0f9de977",
					"Owner()": "b4a99a4e",
					"ReadDrug(string)": "cdf7e73d",
					"ReadUser(string)": "86a9d2ca",
					"SetDrugStatus(string,uint8)": "25dd75c9",
					"SetUserStatus(string,uint8)": "1a2d8624"
				}
			},
			"storageLayout": {
				"storage": [
					{
						"astId": 386,
						"contract": "contracts/Regulator.sol:Regulator",
						"label": "UserIDsMapping",
						"offset": 0,
						"slot": "0",
						"type": "t_mapping(t_string_memory_ptr,t_struct(User)381_storage)"
					},
					{
						"astId": 389,
						"contract": "contracts/Regulator.sol:Regulator",
						"label": "UsersIDs",
						"offset": 0,
						"slot": "1",
						"type": "t_array(t_string_storage)dyn_storage"
					},
					{
						"astId": 410,
						"contract": "contracts/Regulator.sol:Regulator",
						"label": "DrugRegNoMapping",
						"offset": 0,
						"slot": "2",
						"type": "t_mapping(t_string_memory_ptr,t_struct(Drug)397_storage)"
					},
					{
						"astId": 413,
						"contract": "contracts/Regulator.sol:Regulator",
						"label": "DrugsRegNos",
						"offset": 0,
						"slot": "3",
						"type": "t_array(t_string_storage)dyn_storage"
					},
					{
						"astId": 103,
						"contract": "contracts/Regulator.sol:Regulator",
						"label": "Owner",
						"offset": 0,
						"slot": "4",
						"type": "t_address"
					}
				],
				"types": {
					"t_address": {
						"encoding": "inplace",
						"label": "address",
						"numberOfBytes": "20"
					},
					"t_array(t_string_storage)dyn_storage": {
						"base": "t_string_storage",
						"encoding": "dynamic_array",
						"label": "string[]",
						"numberOfBytes": "32"
					},
					"t_enum(Statuses)358": {
						"encoding": "inplace",
						"label": "enum Utils.Statuses",
						"numberOfBytes": "1"
					},
					"t_enum(UserRoles)366": {
						"encoding": "inplace",
						"label": "enum Utils.UserRoles",
						"numberOfBytes": "1"
					},
					"t_mapping(t_string_memory_ptr,t_struct(Drug)397_storage)": {
						"encoding": "mapping",
						"key": "t_string_memory_ptr",
						"label": "mapping(string => struct Utils.Drug)",
						"numberOfBytes": "32",
						"value": "t_struct(Drug)397_storage"
					},
					"t_mapping(t_string_memory_ptr,t_struct(User)381_storage)": {
						"encoding": "mapping",
						"key": "t_string_memory_ptr",
						"label": "mapping(string => struct Utils.User)",
						"numberOfBytes": "32",
						"value": "t_struct(User)381_storage"
					},
					"t_string_memory_ptr": {
						"encoding": "bytes",
						"label": "string",
						"numberOfBytes": "32"
					},
					"t_string_storage": {
						"encoding": "bytes",
						"label": "string",
						"numberOfBytes": "32"
					},
					"t_struct(Drug)397_storage": {
						"encoding": "inplace",
						"label": "struct Utils.Drug",
						"members": [
							{
								"astId": 391,
								"contract": "contracts/Regulator.sol:Regulator",
								"label": "DrugName",
								"offset": 0,
								"slot": "0",
								"type": "t_string_storage"
							},
							{
								"astId": 393,
								"contract": "contracts/Regulator.sol:Regulator",
								"label": "Manufacturer",
								"offset": 0,
								"slot": "1",
								"type": "t_address"
							},
							{
								"astId": 396,
								"contract": "contracts/Regulator.sol:Regulator",
								"label": "DrugStatus",
								"offset": 20,
								"slot": "1",
								"type": "t_enum(Statuses)358"
							}
						],
						"numberOfBytes": "64"
					},
					"t_struct(User)381_storage": {
						"encoding": "inplace",
						"label": "struct Utils.User",
						"members": [
							{
								"astId": 368,
								"contract": "contracts/Regulator.sol:Regulator",
								"label": "UserName",
								"offset": 0,
								"slot": "0",
								"type": "t_string_storage"
							},
							{
								"astId": 371,
								"contract": "contracts/Regulator.sol:Regulator",
								"label": "UserRole",
								"offset": 0,
								"slot": "1",
								"type": "t_enum(UserRoles)366"
							},
							{
								"astId": 374,
								"contract": "contracts/Regulator.sol:Regulator",
								"label": "UserStatus",
								"offset": 1,
								"slot": "1",
								"type": "t_enum(Statuses)358"
							},
							{
								"astId": 376,
								"contract": "contracts/Regulator.sol:Regulator",
								"label": "Latitude",
								"offset": 0,
								"slot": "2",
								"type": "t_uint256"
							},
							{
								"astId": 378,
								"contract": "contracts/Regulator.sol:Regulator",
								"label": "Longitude",
								"offset": 0,
								"slot": "3",
								"type": "t_uint256"
							},
							{
								"astId": 380,
								"contract": "contracts/Regulator.sol:Regulator",
								"label": "UserAddress",
								"offset": 0,
								"slot": "4",
								"type": "t_address"
							}
						],
						"numberOfBytes": "160"
					},
					"t_uint256": {
						"encoding": "inplace",
						"label": "uint256",
						"numberOfBytes": "32"
					}
				}
			},
			"userdoc": {
				"kind": "user",
				"methods": {},
				"version": 1
			}
		}
	}
}