{
	"contracts/Patch.sol": {
		"Patch": {
			"abi": [
				{
					"inputs": [],
					"stateMutability": "nonpayable",
					"type": "constructor"
				},
				{
					"inputs": [
						{
							"internalType": "string",
							"name": "_name",
							"type": "string"
						}
					],
					"name": "addType",
					"outputs": [],
					"stateMutability": "nonpayable",
					"type": "function"
				},
				{
					"inputs": [
						{
							"internalType": "uint256",
							"name": "_typeId",
							"type": "uint256"
						}
					],
					"name": "get",
					"outputs": [
						{
							"components": [
								{
									"internalType": "uint256",
									"name": "id",
									"type": "uint256"
								},
								{
									"internalType": "string",
									"name": "name",
									"type": "string"
								}
							],
							"internalType": "struct Patch.Type",
							"name": "",
							"type": "tuple"
						}
					],
					"stateMutability": "view",
					"type": "function"
				},
				{
					"inputs": [],
					"name": "getType",
					"outputs": [
						{
							"internalType": "uint256[]",
							"name": "",
							"type": "uint256[]"
						},
						{
							"internalType": "string[]",
							"name": "",
							"type": "string[]"
						}
					],
					"stateMutability": "view",
					"type": "function"
				},
				{
					"inputs": [],
					"name": "getTypes",
					"outputs": [
						{
							"components": [
								{
									"internalType": "uint256",
									"name": "id",
									"type": "uint256"
								},
								{
									"internalType": "string",
									"name": "name",
									"type": "string"
								}
							],
							"internalType": "struct Patch.Type[]",
							"name": "",
							"type": "tuple[]"
						}
					],
					"stateMutability": "view",
					"type": "function"
				},
				{
					"inputs": [],
					"name": "typeCount",
					"outputs": [
						{
							"internalType": "uint256",
							"name": "",
							"type": "uint256"
						}
					],
					"stateMutability": "view",
					"type": "function"
				},
				{
					"inputs": [
						{
							"internalType": "uint256",
							"name": "",
							"type": "uint256"
						}
					],
					"name": "types",
					"outputs": [
						{
							"internalType": "uint256",
							"name": "id",
							"type": "uint256"
						},
						{
							"internalType": "string",
							"name": "name",
							"type": "string"
						}
					],
					"stateMutability": "view",
					"type": "function"
				}
			],
			"devdoc": {
				"kind": "dev",
				"methods": {},
				"version": 1
			},
			"evm": {
				"assembly": "    /* \"contracts/Patch.sol\":97:1306  contract Patch {\r... */\n  mstore(0x40, 0x80)\n    /* \"contracts/Patch.sol\":288:329  constructor()  {\r... */\n  callvalue\n  dup1\n  iszero\n  tag_1\n  jumpi\n  0x00\n  dup1\n  revert\ntag_1:\n  pop\n    /* \"contracts/Patch.sol\":322:323  0 */\n  0x00\n    /* \"contracts/Patch.sol\":310:319  typeCount */\n  0x01\n    /* \"contracts/Patch.sol\":310:323  typeCount = 0 */\n  dup2\n  swap1\n  sstore\n  pop\n    /* \"contracts/Patch.sol\":97:1306  contract Patch {\r... */\n  dataSize(sub_0)\n  dup1\n  dataOffset(sub_0)\n  0x00\n  codecopy\n  0x00\n  return\nstop\n\nsub_0: assembly {\n        /* \"contracts/Patch.sol\":97:1306  contract Patch {\r... */\n      mstore(0x40, 0x80)\n      callvalue\n      dup1\n      iszero\n      tag_1\n      jumpi\n      0x00\n      dup1\n      revert\n    tag_1:\n      pop\n      jumpi(tag_2, lt(calldatasize, 0x04))\n      shr(0xe0, calldataload(0x00))\n      dup1\n      0x15dae03e\n      eq\n      tag_3\n      jumpi\n      dup1\n      0x602d7fe6\n      eq\n      tag_4\n      jumpi\n      dup1\n      0x9507d39a\n      eq\n      tag_5\n      jumpi\n      dup1\n      0xb4579d60\n      eq\n      tag_6\n      jumpi\n      dup1\n      0xcefbfa36\n      eq\n      tag_7\n      jumpi\n      dup1\n      0xe7f08e69\n      eq\n      tag_8\n      jumpi\n    tag_2:\n      0x00\n      dup1\n      revert\n        /* \"contracts/Patch.sol\":617:1008  function getType() public view returns (uint[] memory, string[] memory){\r... */\n    tag_3:\n      tag_9\n      tag_10\n      jump\t// in\n    tag_9:\n      mload(0x40)\n      tag_11\n      swap3\n      swap2\n      swap1\n      tag_12\n      jump\t// in\n    tag_11:\n      mload(0x40)\n      dup1\n      swap2\n      sub\n      swap1\n      return\n        /* \"contracts/Patch.sol\":260:281  uint public typeCount */\n    tag_4:\n      tag_13\n      tag_14\n      jump\t// in\n    tag_13:\n      mload(0x40)\n      tag_15\n      swap2\n      swap1\n      tag_16\n      jump\t// in\n    tag_15:\n      mload(0x40)\n      dup1\n      swap2\n      sub\n      swap1\n      return\n        /* \"contracts/Patch.sol\":482:576  function get(uint _typeId) public view returns(Type memory) {\r... */\n    tag_5:\n      tag_17\n      0x04\n      dup1\n      calldatasize\n      sub\n      dup2\n      add\n      swap1\n      tag_18\n      swap2\n      swap1\n      tag_19\n      jump\t// in\n    tag_18:\n      tag_20\n      jump\t// in\n    tag_17:\n      mload(0x40)\n      tag_21\n      swap2\n      swap1\n      tag_22\n      jump\t// in\n    tag_21:\n      mload(0x40)\n      dup1\n      swap2\n      sub\n      swap1\n      return\n        /* \"contracts/Patch.sol\":1043:1303  function getTypes() public view returns (Type[] memory){\r... */\n    tag_6:\n      tag_23\n      tag_24\n      jump\t// in\n    tag_23:\n      mload(0x40)\n      tag_25\n      swap2\n      swap1\n      tag_26\n      jump\t// in\n    tag_25:\n      mload(0x40)\n      dup1\n      swap2\n      sub\n      swap1\n      return\n        /* \"contracts/Patch.sol\":170:205  mapping (uint => Type) public types */\n    tag_7:\n      tag_27\n      0x04\n      dup1\n      calldatasize\n      sub\n      dup2\n      add\n      swap1\n      tag_28\n      swap2\n      swap1\n      tag_19\n      jump\t// in\n    tag_28:\n      tag_29\n      jump\t// in\n    tag_27:\n      mload(0x40)\n      tag_30\n      swap3\n      swap2\n      swap1\n      tag_31\n      jump\t// in\n    tag_30:\n      mload(0x40)\n      dup1\n      swap2\n      sub\n      swap1\n      return\n        /* \"contracts/Patch.sol\":333:449  function addType(string memory _name) public {\r... */\n    tag_8:\n      tag_32\n      0x04\n      dup1\n      calldatasize\n      sub\n      dup2\n      add\n      swap1\n      tag_33\n      swap2\n      swap1\n      tag_34\n      jump\t// in\n    tag_33:\n      tag_35\n      jump\t// in\n    tag_32:\n      stop\n        /* \"contracts/Patch.sol\":617:1008  function getType() public view returns (uint[] memory, string[] memory){\r... */\n    tag_10:\n        /* \"contracts/Patch.sol\":657:670  uint[] memory */\n      0x60\n        /* \"contracts/Patch.sol\":672:687  string[] memory */\n      dup1\n        /* \"contracts/Patch.sol\":697:716  uint[]    memory id */\n      0x00\n        /* \"contracts/Patch.sol\":730:739  typeCount */\n      sload(0x01)\n        /* \"contracts/Patch.sol\":719:740  new uint[](typeCount) */\n      0xffffffffffffffff\n      dup2\n      gt\n      iszero\n      tag_37\n      jumpi\n      tag_38\n      tag_39\n      jump\t// in\n    tag_38:\n    tag_37:\n      mload(0x40)\n      swap1\n      dup1\n      dup3\n      mstore\n      dup1\n      0x20\n      mul\n      0x20\n      add\n      dup3\n      add\n      0x40\n      mstore\n      dup1\n      iszero\n      tag_40\n      jumpi\n      dup2\n      0x20\n      add\n      0x20\n      dup3\n      mul\n      dup1\n      calldatasize\n      dup4\n      calldatacopy\n      dup1\n      dup3\n      add\n      swap2\n      pop\n      pop\n      swap1\n      pop\n    tag_40:\n      pop\n        /* \"contracts/Patch.sol\":697:740  uint[]    memory id = new uint[](typeCount) */\n      swap1\n      pop\n        /* \"contracts/Patch.sol\":749:770  string[]  memory name */\n      0x00\n        /* \"contracts/Patch.sol\":786:795  typeCount */\n      sload(0x01)\n        /* \"contracts/Patch.sol\":773:796  new string[](typeCount) */\n      0xffffffffffffffff\n      dup2\n      gt\n      iszero\n      tag_41\n      jumpi\n      tag_42\n      tag_39\n      jump\t// in\n    tag_42:\n    tag_41:\n      mload(0x40)\n      swap1\n      dup1\n      dup3\n      mstore\n      dup1\n      0x20\n      mul\n      0x20\n      add\n      dup3\n      add\n      0x40\n      mstore\n      dup1\n      iszero\n      tag_43\n      jumpi\n      dup2\n      0x20\n      add\n    tag_44:\n      0x60\n      dup2\n      mstore\n      0x20\n      add\n      swap1\n      0x01\n      swap1\n      sub\n      swap1\n      dup2\n      tag_44\n      jumpi\n      swap1\n      pop\n    tag_43:\n      pop\n        /* \"contracts/Patch.sol\":749:796  string[]  memory name = new string[](typeCount) */\n      swap1\n      pop\n        /* \"contracts/Patch.sol\":818:824  uint i */\n      0x00\n        /* \"contracts/Patch.sol\":813:973  for (uint i = 0; i < typeCount; i++) {\r... */\n    tag_45:\n        /* \"contracts/Patch.sol\":834:843  typeCount */\n      sload(0x01)\n        /* \"contracts/Patch.sol\":830:831  i */\n      dup2\n        /* \"contracts/Patch.sol\":830:843  i < typeCount */\n      lt\n        /* \"contracts/Patch.sol\":813:973  for (uint i = 0; i < typeCount; i++) {\r... */\n      iszero\n      tag_46\n      jumpi\n        /* \"contracts/Patch.sol\":863:884  Type storage userType */\n      0x00\n        /* \"contracts/Patch.sol\":887:892  types */\n      dup1\n        /* \"contracts/Patch.sol\":887:895  types[i] */\n      0x00\n        /* \"contracts/Patch.sol\":893:894  i */\n      dup4\n        /* \"contracts/Patch.sol\":887:895  types[i] */\n      dup2\n      mstore\n      0x20\n      add\n      swap1\n      dup2\n      mstore\n      0x20\n      add\n      0x00\n      keccak256\n        /* \"contracts/Patch.sol\":863:895  Type storage userType = types[i] */\n      swap1\n      pop\n        /* \"contracts/Patch.sol\":916:924  userType */\n      dup1\n        /* \"contracts/Patch.sol\":916:927  userType.id */\n      0x00\n      add\n      sload\n        /* \"contracts/Patch.sol\":908:910  id */\n      dup5\n        /* \"contracts/Patch.sol\":911:912  i */\n      dup4\n        /* \"contracts/Patch.sol\":908:913  id[i] */\n      dup2\n      mload\n      dup2\n      lt\n      tag_48\n      jumpi\n      tag_49\n      tag_50\n      jump\t// in\n    tag_49:\n    tag_48:\n      0x20\n      mul\n      0x20\n      add\n      add\n        /* \"contracts/Patch.sol\":908:927  id[i] = userType.id */\n      dup2\n      dup2\n      mstore\n      pop\n      pop\n        /* \"contracts/Patch.sol\":950:958  userType */\n      dup1\n        /* \"contracts/Patch.sol\":950:963  userType.name */\n      0x01\n      add\n        /* \"contracts/Patch.sol\":940:963  name[i] = userType.name */\n      dup1\n      sload\n      tag_51\n      swap1\n      tag_52\n      jump\t// in\n    tag_51:\n      dup1\n      0x1f\n      add\n      0x20\n      dup1\n      swap2\n      div\n      mul\n      0x20\n      add\n      mload(0x40)\n      swap1\n      dup2\n      add\n      0x40\n      mstore\n      dup1\n      swap3\n      swap2\n      swap1\n      dup2\n      dup2\n      mstore\n      0x20\n      add\n      dup3\n      dup1\n      sload\n      tag_53\n      swap1\n      tag_52\n      jump\t// in\n    tag_53:\n      dup1\n      iszero\n      tag_54\n      jumpi\n      dup1\n      0x1f\n      lt\n      tag_55\n      jumpi\n      0x0100\n      dup1\n      dup4\n      sload\n      div\n      mul\n      dup4\n      mstore\n      swap2\n      0x20\n      add\n      swap2\n      jump(tag_54)\n    tag_55:\n      dup3\n      add\n      swap2\n      swap1\n      0x00\n      mstore\n      keccak256(0x00, 0x20)\n      swap1\n    tag_56:\n      dup2\n      sload\n      dup2\n      mstore\n      swap1\n      0x01\n      add\n      swap1\n      0x20\n      add\n      dup1\n      dup4\n      gt\n      tag_56\n      jumpi\n      dup3\n      swap1\n      sub\n      0x1f\n      and\n      dup3\n      add\n      swap2\n    tag_54:\n      pop\n      pop\n      pop\n      pop\n      pop\n        /* \"contracts/Patch.sol\":940:944  name */\n      dup4\n        /* \"contracts/Patch.sol\":945:946  i */\n      dup4\n        /* \"contracts/Patch.sol\":940:947  name[i] */\n      dup2\n      mload\n      dup2\n      lt\n      tag_57\n      jumpi\n      tag_58\n      tag_50\n      jump\t// in\n    tag_58:\n    tag_57:\n      0x20\n      mul\n      0x20\n      add\n      add\n        /* \"contracts/Patch.sol\":940:963  name[i] = userType.name */\n      dup2\n      swap1\n      mstore\n      pop\n        /* \"contracts/Patch.sol\":850:973  {\r... */\n      pop\n        /* \"contracts/Patch.sol\":845:848  i++ */\n      dup1\n      dup1\n      tag_59\n      swap1\n      tag_60\n      jump\t// in\n    tag_59:\n      swap2\n      pop\n      pop\n        /* \"contracts/Patch.sol\":813:973  for (uint i = 0; i < typeCount; i++) {\r... */\n      jump(tag_45)\n    tag_46:\n      pop\n        /* \"contracts/Patch.sol\":991:993  id */\n      dup2\n        /* \"contracts/Patch.sol\":995:999  name */\n      dup2\n        /* \"contracts/Patch.sol\":983:1000  return (id, name) */\n      swap4\n      pop\n      swap4\n      pop\n      pop\n      pop\n        /* \"contracts/Patch.sol\":617:1008  function getType() public view returns (uint[] memory, string[] memory){\r... */\n      swap1\n      swap2\n      jump\t// out\n        /* \"contracts/Patch.sol\":260:281  uint public typeCount */\n    tag_14:\n      sload(0x01)\n      dup2\n      jump\t// out\n        /* \"contracts/Patch.sol\":482:576  function get(uint _typeId) public view returns(Type memory) {\r... */\n    tag_20:\n        /* \"contracts/Patch.sol\":529:540  Type memory */\n      tag_61\n      tag_62\n      jump\t// in\n    tag_61:\n        /* \"contracts/Patch.sol\":556:561  types */\n      0x00\n        /* \"contracts/Patch.sol\":556:570  types[_typeId] */\n      dup1\n        /* \"contracts/Patch.sol\":562:569  _typeId */\n      dup4\n        /* \"contracts/Patch.sol\":556:570  types[_typeId] */\n      dup2\n      mstore\n      0x20\n      add\n      swap1\n      dup2\n      mstore\n      0x20\n      add\n      0x00\n      keccak256\n        /* \"contracts/Patch.sol\":549:570  return types[_typeId] */\n      mload(0x40)\n      dup1\n      0x40\n      add\n      0x40\n      mstore\n      swap1\n      dup2\n      0x00\n      dup3\n      add\n      sload\n      dup2\n      mstore\n      0x20\n      add\n      0x01\n      dup3\n      add\n      dup1\n      sload\n      tag_64\n      swap1\n      tag_52\n      jump\t// in\n    tag_64:\n      dup1\n      0x1f\n      add\n      0x20\n      dup1\n      swap2\n      div\n      mul\n      0x20\n      add\n      mload(0x40)\n      swap1\n      dup2\n      add\n      0x40\n      mstore\n      dup1\n      swap3\n      swap2\n      swap1\n      dup2\n      dup2\n      mstore\n      0x20\n      add\n      dup3\n      dup1\n      sload\n      tag_65\n      swap1\n      tag_52\n      jump\t// in\n    tag_65:\n      dup1\n      iszero\n      tag_66\n      jumpi\n      dup1\n      0x1f\n      lt\n      tag_67\n      jumpi\n      0x0100\n      dup1\n      dup4\n      sload\n      div\n      mul\n      dup4\n      mstore\n      swap2\n      0x20\n      add\n      swap2\n      jump(tag_66)\n    tag_67:\n      dup3\n      add\n      swap2\n      swap1\n      0x00\n      mstore\n      keccak256(0x00, 0x20)\n      swap1\n    tag_68:\n      dup2\n      sload\n      dup2\n      mstore\n      swap1\n      0x01\n      add\n      swap1\n      0x20\n      add\n      dup1\n      dup4\n      gt\n      tag_68\n      jumpi\n      dup3\n      swap1\n      sub\n      0x1f\n      and\n      dup3\n      add\n      swap2\n    tag_66:\n      pop\n      pop\n      pop\n      pop\n      pop\n      dup2\n      mstore\n      pop\n      pop\n      swap1\n      pop\n        /* \"contracts/Patch.sol\":482:576  function get(uint _typeId) public view returns(Type memory) {\r... */\n      swap2\n      swap1\n      pop\n      jump\t// out\n        /* \"contracts/Patch.sol\":1043:1303  function getTypes() public view returns (Type[] memory){\r... */\n    tag_24:\n        /* \"contracts/Patch.sol\":1084:1097  Type[] memory */\n      0x60\n        /* \"contracts/Patch.sol\":1107:1126  Type[]    memory id */\n      0x00\n        /* \"contracts/Patch.sol\":1140:1149  typeCount */\n      sload(0x01)\n        /* \"contracts/Patch.sol\":1129:1150  new Type[](typeCount) */\n      0xffffffffffffffff\n      dup2\n      gt\n      iszero\n      tag_70\n      jumpi\n      tag_71\n      tag_39\n      jump\t// in\n    tag_71:\n    tag_70:\n      mload(0x40)\n      swap1\n      dup1\n      dup3\n      mstore\n      dup1\n      0x20\n      mul\n      0x20\n      add\n      dup3\n      add\n      0x40\n      mstore\n      dup1\n      iszero\n      tag_72\n      jumpi\n      dup2\n      0x20\n      add\n    tag_73:\n      tag_74\n      tag_62\n      jump\t// in\n    tag_74:\n      dup2\n      mstore\n      0x20\n      add\n      swap1\n      0x01\n      swap1\n      sub\n      swap1\n      dup2\n      tag_73\n      jumpi\n      swap1\n      pop\n    tag_72:\n      pop\n        /* \"contracts/Patch.sol\":1107:1150  Type[]    memory id = new Type[](typeCount) */\n      swap1\n      pop\n        /* \"contracts/Patch.sol\":1164:1170  uint i */\n      0x00\n        /* \"contracts/Patch.sol\":1159:1280  for (uint i = 0; i < typeCount; i++) {\r... */\n    tag_75:\n        /* \"contracts/Patch.sol\":1180:1189  typeCount */\n      sload(0x01)\n        /* \"contracts/Patch.sol\":1176:1177  i */\n      dup2\n        /* \"contracts/Patch.sol\":1176:1189  i < typeCount */\n      lt\n        /* \"contracts/Patch.sol\":1159:1280  for (uint i = 0; i < typeCount; i++) {\r... */\n      iszero\n      tag_76\n      jumpi\n        /* \"contracts/Patch.sol\":1209:1230  Type storage userType */\n      0x00\n        /* \"contracts/Patch.sol\":1233:1238  types */\n      dup1\n        /* \"contracts/Patch.sol\":1233:1241  types[i] */\n      0x00\n        /* \"contracts/Patch.sol\":1239:1240  i */\n      dup4\n        /* \"contracts/Patch.sol\":1233:1241  types[i] */\n      dup2\n      mstore\n      0x20\n      add\n      swap1\n      dup2\n      mstore\n      0x20\n      add\n      0x00\n      keccak256\n        /* \"contracts/Patch.sol\":1209:1241  Type storage userType = types[i] */\n      swap1\n      pop\n        /* \"contracts/Patch.sol\":1262:1270  userType */\n      dup1\n        /* \"contracts/Patch.sol\":1254:1270  id[i] = userType */\n      mload(0x40)\n      dup1\n      0x40\n      add\n      0x40\n      mstore\n      swap1\n      dup2\n      0x00\n      dup3\n      add\n      sload\n      dup2\n      mstore\n      0x20\n      add\n      0x01\n      dup3\n      add\n      dup1\n      sload\n      tag_78\n      swap1\n      tag_52\n      jump\t// in\n    tag_78:\n      dup1\n      0x1f\n      add\n      0x20\n      dup1\n      swap2\n      div\n      mul\n      0x20\n      add\n      mload(0x40)\n      swap1\n      dup2\n      add\n      0x40\n      mstore\n      dup1\n      swap3\n      swap2\n      swap1\n      dup2\n      dup2\n      mstore\n      0x20\n      add\n      dup3\n      dup1\n      sload\n      tag_79\n      swap1\n      tag_52\n      jump\t// in\n    tag_79:\n      dup1\n      iszero\n      tag_80\n      jumpi\n      dup1\n      0x1f\n      lt\n      tag_81\n      jumpi\n      0x0100\n      dup1\n      dup4\n      sload\n      div\n      mul\n      dup4\n      mstore\n      swap2\n      0x20\n      add\n      swap2\n      jump(tag_80)\n    tag_81:\n      dup3\n      add\n      swap2\n      swap1\n      0x00\n      mstore\n      keccak256(0x00, 0x20)\n      swap1\n    tag_82:\n      dup2\n      sload\n      dup2\n      mstore\n      swap1\n      0x01\n      add\n      swap1\n      0x20\n      add\n      dup1\n      dup4\n      gt\n      tag_82\n      jumpi\n      dup3\n      swap1\n      sub\n      0x1f\n      and\n      dup3\n      add\n      swap2\n    tag_80:\n      pop\n      pop\n      pop\n      pop\n      pop\n      dup2\n      mstore\n      pop\n      pop\n        /* \"contracts/Patch.sol\":1254:1256  id */\n      dup4\n        /* \"contracts/Patch.sol\":1257:1258  i */\n      dup4\n        /* \"contracts/Patch.sol\":1254:1259  id[i] */\n      dup2\n      mload\n      dup2\n      lt\n      tag_83\n      jumpi\n      tag_84\n      tag_50\n      jump\t// in\n    tag_84:\n    tag_83:\n      0x20\n      mul\n      0x20\n      add\n      add\n        /* \"contracts/Patch.sol\":1254:1270  id[i] = userType */\n      dup2\n      swap1\n      mstore\n      pop\n        /* \"contracts/Patch.sol\":1196:1280  {\r... */\n      pop\n        /* \"contracts/Patch.sol\":1191:1194  i++ */\n      dup1\n      dup1\n      tag_85\n      swap1\n      tag_60\n      jump\t// in\n    tag_85:\n      swap2\n      pop\n      pop\n        /* \"contracts/Patch.sol\":1159:1280  for (uint i = 0; i < typeCount; i++) {\r... */\n      jump(tag_75)\n    tag_76:\n      pop\n        /* \"contracts/Patch.sol\":1295:1297  id */\n      dup1\n        /* \"contracts/Patch.sol\":1288:1297  return id */\n      swap2\n      pop\n      pop\n        /* \"contracts/Patch.sol\":1043:1303  function getTypes() public view returns (Type[] memory){\r... */\n      swap1\n      jump\t// out\n        /* \"contracts/Patch.sol\":170:205  mapping (uint => Type) public types */\n    tag_29:\n      mstore(0x20, 0x00)\n      dup1\n      0x00\n      mstore\n      keccak256(0x00, 0x40)\n      0x00\n      swap2\n      pop\n      swap1\n      pop\n      dup1\n      0x00\n      add\n      sload\n      swap1\n      dup1\n      0x01\n      add\n      dup1\n      sload\n      tag_86\n      swap1\n      tag_52\n      jump\t// in\n    tag_86:\n      dup1\n      0x1f\n      add\n      0x20\n      dup1\n      swap2\n      div\n      mul\n      0x20\n      add\n      mload(0x40)\n      swap1\n      dup2\n      add\n      0x40\n      mstore\n      dup1\n      swap3\n      swap2\n      swap1\n      dup2\n      dup2\n      mstore\n      0x20\n      add\n      dup3\n      dup1\n      sload\n      tag_87\n      swap1\n      tag_52\n      jump\t// in\n    tag_87:\n      dup1\n      iszero\n      tag_88\n      jumpi\n      dup1\n      0x1f\n      lt\n      tag_89\n      jumpi\n      0x0100\n      dup1\n      dup4\n      sload\n      div\n      mul\n      dup4\n      mstore\n      swap2\n      0x20\n      add\n      swap2\n      jump(tag_88)\n    tag_89:\n      dup3\n      add\n      swap2\n      swap1\n      0x00\n      mstore\n      keccak256(0x00, 0x20)\n      swap1\n    tag_90:\n      dup2\n      sload\n      dup2\n      mstore\n      swap1\n      0x01\n      add\n      swap1\n      0x20\n      add\n      dup1\n      dup4\n      gt\n      tag_90\n      jumpi\n      dup3\n      swap1\n      sub\n      0x1f\n      and\n      dup3\n      add\n      swap2\n    tag_88:\n      pop\n      pop\n      pop\n      pop\n      pop\n      swap1\n      pop\n      dup3\n      jump\t// out\n        /* \"contracts/Patch.sol\":333:449  function addType(string memory _name) public {\r... */\n    tag_35:\n        /* \"contracts/Patch.sol\":404:425  Type(typeCount,_name) */\n      mload(0x40)\n      dup1\n      0x40\n      add\n      0x40\n      mstore\n      dup1\n        /* \"contracts/Patch.sol\":409:418  typeCount */\n      sload(0x01)\n        /* \"contracts/Patch.sol\":404:425  Type(typeCount,_name) */\n      dup2\n      mstore\n      0x20\n      add\n        /* \"contracts/Patch.sol\":419:424  _name */\n      dup3\n        /* \"contracts/Patch.sol\":404:425  Type(typeCount,_name) */\n      dup2\n      mstore\n      pop\n        /* \"contracts/Patch.sol\":385:390  types */\n      0x00\n        /* \"contracts/Patch.sol\":385:401  types[typeCount] */\n      dup1\n        /* \"contracts/Patch.sol\":391:400  typeCount */\n      sload(0x01)\n        /* \"contracts/Patch.sol\":385:401  types[typeCount] */\n      dup2\n      mstore\n      0x20\n      add\n      swap1\n      dup2\n      mstore\n      0x20\n      add\n      0x00\n      keccak256\n        /* \"contracts/Patch.sol\":385:425  types[typeCount] = Type(typeCount,_name) */\n      0x00\n      dup3\n      add\n      mload\n      dup2\n      0x00\n      add\n      sstore\n      0x20\n      dup3\n      add\n      mload\n      dup2\n      0x01\n      add\n      swap1\n      dup1\n      mload\n      swap1\n      0x20\n      add\n      swap1\n      tag_92\n      swap3\n      swap2\n      swap1\n      tag_93\n      jump\t// in\n    tag_92:\n      pop\n      swap1\n      pop\n      pop\n        /* \"contracts/Patch.sol\":432:441  typeCount */\n      0x01\n      0x00\n        /* \"contracts/Patch.sol\":432:443  typeCount++ */\n      dup2\n      sload\n      dup1\n      swap3\n      swap2\n      swap1\n      tag_94\n      swap1\n      tag_60\n      jump\t// in\n    tag_94:\n      swap2\n      swap1\n      pop\n      sstore\n      pop\n        /* \"contracts/Patch.sol\":333:449  function addType(string memory _name) public {\r... */\n      pop\n      jump\t// out\n    tag_62:\n      mload(0x40)\n      dup1\n      0x40\n      add\n      0x40\n      mstore\n      dup1\n      0x00\n      dup2\n      mstore\n      0x20\n      add\n      0x60\n      dup2\n      mstore\n      pop\n      swap1\n      jump\t// out\n    tag_93:\n      dup3\n      dup1\n      sload\n      tag_95\n      swap1\n      tag_52\n      jump\t// in\n    tag_95:\n      swap1\n      0x00\n      mstore\n      keccak256(0x00, 0x20)\n      swap1\n      0x1f\n      add\n      0x20\n      swap1\n      div\n      dup2\n      add\n      swap3\n      dup3\n      tag_97\n      jumpi\n      0x00\n      dup6\n      sstore\n      jump(tag_96)\n    tag_97:\n      dup3\n      0x1f\n      lt\n      tag_98\n      jumpi\n      dup1\n      mload\n      not(0xff)\n      and\n      dup4\n      dup1\n      add\n      or\n      dup6\n      sstore\n      jump(tag_96)\n    tag_98:\n      dup3\n      dup1\n      add\n      0x01\n      add\n      dup6\n      sstore\n      dup3\n      iszero\n      tag_96\n      jumpi\n      swap2\n      dup3\n      add\n    tag_99:\n      dup3\n      dup2\n      gt\n      iszero\n      tag_100\n      jumpi\n      dup3\n      mload\n      dup3\n      sstore\n      swap2\n      0x20\n      add\n      swap2\n      swap1\n      0x01\n      add\n      swap1\n      jump(tag_99)\n    tag_100:\n    tag_96:\n      pop\n      swap1\n      pop\n      tag_101\n      swap2\n      swap1\n      tag_102\n      jump\t// in\n    tag_101:\n      pop\n      swap1\n      jump\t// out\n    tag_102:\n    tag_103:\n      dup1\n      dup3\n      gt\n      iszero\n      tag_104\n      jumpi\n      0x00\n      dup2\n      0x00\n      swap1\n      sstore\n      pop\n      0x01\n      add\n      jump(tag_103)\n    tag_104:\n      pop\n      swap1\n      jump\t// out\n        /* \"#utility.yul\":7:419   */\n    tag_106:\n        /* \"#utility.yul\":85:90   */\n      0x00\n        /* \"#utility.yul\":110:176   */\n      tag_108\n        /* \"#utility.yul\":126:175   */\n      tag_109\n        /* \"#utility.yul\":168:174   */\n      dup5\n        /* \"#utility.yul\":126:175   */\n      tag_110\n      jump\t// in\n    tag_109:\n        /* \"#utility.yul\":110:176   */\n      tag_111\n      jump\t// in\n    tag_108:\n        /* \"#utility.yul\":101:176   */\n      swap1\n      pop\n        /* \"#utility.yul\":199:205   */\n      dup3\n        /* \"#utility.yul\":192:197   */\n      dup2\n        /* \"#utility.yul\":185:206   */\n      mstore\n        /* \"#utility.yul\":237:241   */\n      0x20\n        /* \"#utility.yul\":230:235   */\n      dup2\n        /* \"#utility.yul\":226:242   */\n      add\n        /* \"#utility.yul\":275:278   */\n      dup5\n        /* \"#utility.yul\":266:272   */\n      dup5\n        /* \"#utility.yul\":261:264   */\n      dup5\n        /* \"#utility.yul\":257:273   */\n      add\n        /* \"#utility.yul\":254:279   */\n      gt\n        /* \"#utility.yul\":251:363   */\n      iszero\n      tag_112\n      jumpi\n        /* \"#utility.yul\":282:361   */\n      tag_113\n      tag_114\n      jump\t// in\n    tag_113:\n        /* \"#utility.yul\":251:363   */\n    tag_112:\n        /* \"#utility.yul\":372:413   */\n      tag_115\n        /* \"#utility.yul\":406:412   */\n      dup5\n        /* \"#utility.yul\":401:404   */\n      dup3\n        /* \"#utility.yul\":396:399   */\n      dup6\n        /* \"#utility.yul\":372:413   */\n      tag_116\n      jump\t// in\n    tag_115:\n        /* \"#utility.yul\":91:419   */\n      pop\n        /* \"#utility.yul\":7:419   */\n      swap4\n      swap3\n      pop\n      pop\n      pop\n      jump\t// out\n        /* \"#utility.yul\":439:779   */\n    tag_117:\n        /* \"#utility.yul\":495:500   */\n      0x00\n        /* \"#utility.yul\":544:547   */\n      dup3\n        /* \"#utility.yul\":537:541   */\n      0x1f\n        /* \"#utility.yul\":529:535   */\n      dup4\n        /* \"#utility.yul\":525:542   */\n      add\n        /* \"#utility.yul\":521:548   */\n      slt\n        /* \"#utility.yul\":511:633   */\n      tag_119\n      jumpi\n        /* \"#utility.yul\":552:631   */\n      tag_120\n      tag_121\n      jump\t// in\n    tag_120:\n        /* \"#utility.yul\":511:633   */\n    tag_119:\n        /* \"#utility.yul\":669:675   */\n      dup2\n        /* \"#utility.yul\":656:676   */\n      calldataload\n        /* \"#utility.yul\":694:773   */\n      tag_122\n        /* \"#utility.yul\":769:772   */\n      dup5\n        /* \"#utility.yul\":761:767   */\n      dup3\n        /* \"#utility.yul\":754:758   */\n      0x20\n        /* \"#utility.yul\":746:752   */\n      dup7\n        /* \"#utility.yul\":742:759   */\n      add\n        /* \"#utility.yul\":694:773   */\n      tag_106\n      jump\t// in\n    tag_122:\n        /* \"#utility.yul\":685:773   */\n      swap2\n      pop\n        /* \"#utility.yul\":501:779   */\n      pop\n        /* \"#utility.yul\":439:779   */\n      swap3\n      swap2\n      pop\n      pop\n      jump\t// out\n        /* \"#utility.yul\":785:924   */\n    tag_123:\n        /* \"#utility.yul\":831:836   */\n      0x00\n        /* \"#utility.yul\":869:875   */\n      dup2\n        /* \"#utility.yul\":856:876   */\n      calldataload\n        /* \"#utility.yul\":847:876   */\n      swap1\n      pop\n        /* \"#utility.yul\":885:918   */\n      tag_125\n        /* \"#utility.yul\":912:917   */\n      dup2\n        /* \"#utility.yul\":885:918   */\n      tag_126\n      jump\t// in\n    tag_125:\n        /* \"#utility.yul\":785:924   */\n      swap3\n      swap2\n      pop\n      pop\n      jump\t// out\n        /* \"#utility.yul\":930:1439   */\n    tag_34:\n        /* \"#utility.yul\":999:1005   */\n      0x00\n        /* \"#utility.yul\":1048:1050   */\n      0x20\n        /* \"#utility.yul\":1036:1045   */\n      dup3\n        /* \"#utility.yul\":1027:1034   */\n      dup5\n        /* \"#utility.yul\":1023:1046   */\n      sub\n        /* \"#utility.yul\":1019:1051   */\n      slt\n        /* \"#utility.yul\":1016:1135   */\n      iszero\n      tag_128\n      jumpi\n        /* \"#utility.yul\":1054:1133   */\n      tag_129\n      tag_130\n      jump\t// in\n    tag_129:\n        /* \"#utility.yul\":1016:1135   */\n    tag_128:\n        /* \"#utility.yul\":1202:1203   */\n      0x00\n        /* \"#utility.yul\":1191:1200   */\n      dup3\n        /* \"#utility.yul\":1187:1204   */\n      add\n        /* \"#utility.yul\":1174:1205   */\n      calldataload\n        /* \"#utility.yul\":1232:1250   */\n      0xffffffffffffffff\n        /* \"#utility.yul\":1224:1230   */\n      dup2\n        /* \"#utility.yul\":1221:1251   */\n      gt\n        /* \"#utility.yul\":1218:1335   */\n      iszero\n      tag_131\n      jumpi\n        /* \"#utility.yul\":1254:1333   */\n      tag_132\n      tag_133\n      jump\t// in\n    tag_132:\n        /* \"#utility.yul\":1218:1335   */\n    tag_131:\n        /* \"#utility.yul\":1359:1422   */\n      tag_134\n        /* \"#utility.yul\":1414:1421   */\n      dup5\n        /* \"#utility.yul\":1405:1411   */\n      dup3\n        /* \"#utility.yul\":1394:1403   */\n      dup6\n        /* \"#utility.yul\":1390:1412   */\n      add\n        /* \"#utility.yul\":1359:1422   */\n      tag_117\n      jump\t// in\n    tag_134:\n        /* \"#utility.yul\":1349:1422   */\n      swap2\n      pop\n        /* \"#utility.yul\":1145:1432   */\n      pop\n        /* \"#utility.yul\":930:1439   */\n      swap3\n      swap2\n      pop\n      pop\n      jump\t// out\n        /* \"#utility.yul\":1445:1774   */\n    tag_19:\n        /* \"#utility.yul\":1504:1510   */\n      0x00\n        /* \"#utility.yul\":1553:1555   */\n      0x20\n        /* \"#utility.yul\":1541:1550   */\n      dup3\n        /* \"#utility.yul\":1532:1539   */\n      dup5\n        /* \"#utility.yul\":1528:1551   */\n      sub\n        /* \"#utility.yul\":1524:1556   */\n      slt\n        /* \"#utility.yul\":1521:1640   */\n      iszero\n      tag_136\n      jumpi\n        /* \"#utility.yul\":1559:1638   */\n      tag_137\n      tag_130\n      jump\t// in\n    tag_137:\n        /* \"#utility.yul\":1521:1640   */\n    tag_136:\n        /* \"#utility.yul\":1679:1680   */\n      0x00\n        /* \"#utility.yul\":1704:1757   */\n      tag_138\n        /* \"#utility.yul\":1749:1756   */\n      dup5\n        /* \"#utility.yul\":1740:1746   */\n      dup3\n        /* \"#utility.yul\":1729:1738   */\n      dup6\n        /* \"#utility.yul\":1725:1747   */\n      add\n        /* \"#utility.yul\":1704:1757   */\n      tag_123\n      jump\t// in\n    tag_138:\n        /* \"#utility.yul\":1694:1757   */\n      swap2\n      pop\n        /* \"#utility.yul\":1650:1767   */\n      pop\n        /* \"#utility.yul\":1445:1774   */\n      swap3\n      swap2\n      pop\n      pop\n      jump\t// out\n        /* \"#utility.yul\":1780:1976   */\n    tag_139:\n        /* \"#utility.yul\":1869:1879   */\n      0x00\n        /* \"#utility.yul\":1904:1970   */\n      tag_141\n        /* \"#utility.yul\":1966:1969   */\n      dup4\n        /* \"#utility.yul\":1958:1964   */\n      dup4\n        /* \"#utility.yul\":1904:1970   */\n      tag_142\n      jump\t// in\n    tag_141:\n        /* \"#utility.yul\":1890:1970   */\n      swap1\n      pop\n        /* \"#utility.yul\":1780:1976   */\n      swap3\n      swap2\n      pop\n      pop\n      jump\t// out\n        /* \"#utility.yul\":1982:2214   */\n    tag_143:\n        /* \"#utility.yul\":2089:2099   */\n      0x00\n        /* \"#utility.yul\":2124:2208   */\n      tag_145\n        /* \"#utility.yul\":2204:2207   */\n      dup4\n        /* \"#utility.yul\":2196:2202   */\n      dup4\n        /* \"#utility.yul\":2124:2208   */\n      tag_146\n      jump\t// in\n    tag_145:\n        /* \"#utility.yul\":2110:2208   */\n      swap1\n      pop\n        /* \"#utility.yul\":1982:2214   */\n      swap3\n      swap2\n      pop\n      pop\n      jump\t// out\n        /* \"#utility.yul\":2220:2399   */\n    tag_147:\n        /* \"#utility.yul\":2289:2299   */\n      0x00\n        /* \"#utility.yul\":2310:2356   */\n      tag_149\n        /* \"#utility.yul\":2352:2355   */\n      dup4\n        /* \"#utility.yul\":2344:2350   */\n      dup4\n        /* \"#utility.yul\":2310:2356   */\n      tag_150\n      jump\t// in\n    tag_149:\n        /* \"#utility.yul\":2388:2392   */\n      0x20\n        /* \"#utility.yul\":2383:2386   */\n      dup4\n        /* \"#utility.yul\":2379:2393   */\n      add\n        /* \"#utility.yul\":2365:2393   */\n      swap1\n      pop\n        /* \"#utility.yul\":2220:2399   */\n      swap3\n      swap2\n      pop\n      pop\n      jump\t// out\n        /* \"#utility.yul\":2433:3424   */\n    tag_151:\n        /* \"#utility.yul\":2572:2575   */\n      0x00\n        /* \"#utility.yul\":2601:2665   */\n      tag_153\n        /* \"#utility.yul\":2659:2664   */\n      dup3\n        /* \"#utility.yul\":2601:2665   */\n      tag_154\n      jump\t// in\n    tag_153:\n        /* \"#utility.yul\":2681:2777   */\n      tag_155\n        /* \"#utility.yul\":2770:2776   */\n      dup2\n        /* \"#utility.yul\":2765:2768   */\n      dup6\n        /* \"#utility.yul\":2681:2777   */\n      tag_156\n      jump\t// in\n    tag_155:\n        /* \"#utility.yul\":2674:2777   */\n      swap4\n      pop\n        /* \"#utility.yul\":2803:2806   */\n      dup4\n        /* \"#utility.yul\":2848:2852   */\n      0x20\n        /* \"#utility.yul\":2840:2846   */\n      dup3\n        /* \"#utility.yul\":2836:2853   */\n      mul\n        /* \"#utility.yul\":2831:2834   */\n      dup6\n        /* \"#utility.yul\":2827:2854   */\n      add\n        /* \"#utility.yul\":2878:2944   */\n      tag_157\n        /* \"#utility.yul\":2938:2943   */\n      dup6\n        /* \"#utility.yul\":2878:2944   */\n      tag_158\n      jump\t// in\n    tag_157:\n        /* \"#utility.yul\":2967:2974   */\n      dup1\n        /* \"#utility.yul\":2998:2999   */\n      0x00\n        /* \"#utility.yul\":2983:3379   */\n    tag_159:\n        /* \"#utility.yul\":3008:3014   */\n      dup6\n        /* \"#utility.yul\":3005:3006   */\n      dup2\n        /* \"#utility.yul\":3002:3015   */\n      lt\n        /* \"#utility.yul\":2983:3379   */\n      iszero\n      tag_161\n      jumpi\n        /* \"#utility.yul\":3079:3088   */\n      dup5\n        /* \"#utility.yul\":3073:3077   */\n      dup5\n        /* \"#utility.yul\":3069:3089   */\n      sub\n        /* \"#utility.yul\":3064:3067   */\n      dup10\n        /* \"#utility.yul\":3057:3090   */\n      mstore\n        /* \"#utility.yul\":3130:3136   */\n      dup2\n        /* \"#utility.yul\":3124:3137   */\n      mload\n        /* \"#utility.yul\":3158:3242   */\n      tag_162\n        /* \"#utility.yul\":3237:3241   */\n      dup6\n        /* \"#utility.yul\":3222:3235   */\n      dup3\n        /* \"#utility.yul\":3158:3242   */\n      tag_139\n      jump\t// in\n    tag_162:\n        /* \"#utility.yul\":3150:3242   */\n      swap5\n      pop\n        /* \"#utility.yul\":3265:3335   */\n      tag_163\n        /* \"#utility.yul\":3328:3334   */\n      dup4\n        /* \"#utility.yul\":3265:3335   */\n      tag_164\n      jump\t// in\n    tag_163:\n        /* \"#utility.yul\":3255:3335   */\n      swap3\n      pop\n        /* \"#utility.yul\":3364:3368   */\n      0x20\n        /* \"#utility.yul\":3359:3362   */\n      dup11\n        /* \"#utility.yul\":3355:3369   */\n      add\n        /* \"#utility.yul\":3348:3369   */\n      swap10\n      pop\n        /* \"#utility.yul\":3043:3379   */\n      pop\n        /* \"#utility.yul\":3030:3031   */\n      0x01\n        /* \"#utility.yul\":3027:3028   */\n      dup2\n        /* \"#utility.yul\":3023:3032   */\n      add\n        /* \"#utility.yul\":3018:3032   */\n      swap1\n      pop\n        /* \"#utility.yul\":2983:3379   */\n      jump(tag_159)\n    tag_161:\n        /* \"#utility.yul\":2987:3001   */\n      pop\n        /* \"#utility.yul\":3395:3399   */\n      dup3\n        /* \"#utility.yul\":3388:3399   */\n      swap8\n      pop\n        /* \"#utility.yul\":3415:3418   */\n      dup8\n        /* \"#utility.yul\":3408:3418   */\n      swap6\n      pop\n        /* \"#utility.yul\":2577:3424   */\n      pop\n      pop\n      pop\n      pop\n      pop\n        /* \"#utility.yul\":2433:3424   */\n      swap3\n      swap2\n      pop\n      pop\n      jump\t// out\n        /* \"#utility.yul\":3480:4543   */\n    tag_165:\n        /* \"#utility.yul\":3637:3640   */\n      0x00\n        /* \"#utility.yul\":3666:3739   */\n      tag_167\n        /* \"#utility.yul\":3733:3738   */\n      dup3\n        /* \"#utility.yul\":3666:3739   */\n      tag_168\n      jump\t// in\n    tag_167:\n        /* \"#utility.yul\":3755:3860   */\n      tag_169\n        /* \"#utility.yul\":3853:3859   */\n      dup2\n        /* \"#utility.yul\":3848:3851   */\n      dup6\n        /* \"#utility.yul\":3755:3860   */\n      tag_170\n      jump\t// in\n    tag_169:\n        /* \"#utility.yul\":3748:3860   */\n      swap4\n      pop\n        /* \"#utility.yul\":3886:3889   */\n      dup4\n        /* \"#utility.yul\":3931:3935   */\n      0x20\n        /* \"#utility.yul\":3923:3929   */\n      dup3\n        /* \"#utility.yul\":3919:3936   */\n      mul\n        /* \"#utility.yul\":3914:3917   */\n      dup6\n        /* \"#utility.yul\":3910:3937   */\n      add\n        /* \"#utility.yul\":3961:4036   */\n      tag_171\n        /* \"#utility.yul\":4030:4035   */\n      dup6\n        /* \"#utility.yul\":3961:4036   */\n      tag_172\n      jump\t// in\n    tag_171:\n        /* \"#utility.yul\":4059:4066   */\n      dup1\n        /* \"#utility.yul\":4090:4091   */\n      0x00\n        /* \"#utility.yul\":4075:4498   */\n    tag_173:\n        /* \"#utility.yul\":4100:4106   */\n      dup6\n        /* \"#utility.yul\":4097:4098   */\n      dup2\n        /* \"#utility.yul\":4094:4107   */\n      lt\n        /* \"#utility.yul\":4075:4498   */\n      iszero\n      tag_175\n      jumpi\n        /* \"#utility.yul\":4171:4180   */\n      dup5\n        /* \"#utility.yul\":4165:4169   */\n      dup5\n        /* \"#utility.yul\":4161:4181   */\n      sub\n        /* \"#utility.yul\":4156:4159   */\n      dup10\n        /* \"#utility.yul\":4149:4182   */\n      mstore\n        /* \"#utility.yul\":4222:4228   */\n      dup2\n        /* \"#utility.yul\":4216:4229   */\n      mload\n        /* \"#utility.yul\":4250:4352   */\n      tag_176\n        /* \"#utility.yul\":4347:4351   */\n      dup6\n        /* \"#utility.yul\":4332:4345   */\n      dup3\n        /* \"#utility.yul\":4250:4352   */\n      tag_143\n      jump\t// in\n    tag_176:\n        /* \"#utility.yul\":4242:4352   */\n      swap5\n      pop\n        /* \"#utility.yul\":4375:4454   */\n      tag_177\n        /* \"#utility.yul\":4447:4453   */\n      dup4\n        /* \"#utility.yul\":4375:4454   */\n      tag_178\n      jump\t// in\n    tag_177:\n        /* \"#utility.yul\":4365:4454   */\n      swap3\n      pop\n        /* \"#utility.yul\":4483:4487   */\n      0x20\n        /* \"#utility.yul\":4478:4481   */\n      dup11\n        /* \"#utility.yul\":4474:4488   */\n      add\n        /* \"#utility.yul\":4467:4488   */\n      swap10\n      pop\n        /* \"#utility.yul\":4135:4498   */\n      pop\n        /* \"#utility.yul\":4122:4123   */\n      0x01\n        /* \"#utility.yul\":4119:4120   */\n      dup2\n        /* \"#utility.yul\":4115:4124   */\n      add\n        /* \"#utility.yul\":4110:4124   */\n      swap1\n      pop\n        /* \"#utility.yul\":4075:4498   */\n      jump(tag_173)\n    tag_175:\n        /* \"#utility.yul\":4079:4093   */\n      pop\n        /* \"#utility.yul\":4514:4518   */\n      dup3\n        /* \"#utility.yul\":4507:4518   */\n      swap8\n      pop\n        /* \"#utility.yul\":4534:4537   */\n      dup8\n        /* \"#utility.yul\":4527:4537   */\n      swap6\n      pop\n        /* \"#utility.yul\":3642:4543   */\n      pop\n      pop\n      pop\n      pop\n      pop\n        /* \"#utility.yul\":3480:4543   */\n      swap3\n      swap2\n      pop\n      pop\n      jump\t// out\n        /* \"#utility.yul\":4579:5311   */\n    tag_179:\n        /* \"#utility.yul\":4698:4701   */\n      0x00\n        /* \"#utility.yul\":4727:4781   */\n      tag_181\n        /* \"#utility.yul\":4775:4780   */\n      dup3\n        /* \"#utility.yul\":4727:4781   */\n      tag_182\n      jump\t// in\n    tag_181:\n        /* \"#utility.yul\":4797:4883   */\n      tag_183\n        /* \"#utility.yul\":4876:4882   */\n      dup2\n        /* \"#utility.yul\":4871:4874   */\n      dup6\n        /* \"#utility.yul\":4797:4883   */\n      tag_184\n      jump\t// in\n    tag_183:\n        /* \"#utility.yul\":4790:4883   */\n      swap4\n      pop\n        /* \"#utility.yul\":4907:4963   */\n      tag_185\n        /* \"#utility.yul\":4957:4962   */\n      dup4\n        /* \"#utility.yul\":4907:4963   */\n      tag_186\n      jump\t// in\n    tag_185:\n        /* \"#utility.yul\":4986:4993   */\n      dup1\n        /* \"#utility.yul\":5017:5018   */\n      0x00\n        /* \"#utility.yul\":5002:5286   */\n    tag_187:\n        /* \"#utility.yul\":5027:5033   */\n      dup4\n        /* \"#utility.yul\":5024:5025   */\n      dup2\n        /* \"#utility.yul\":5021:5034   */\n      lt\n        /* \"#utility.yul\":5002:5286   */\n      iszero\n      tag_189\n      jumpi\n        /* \"#utility.yul\":5103:5109   */\n      dup2\n        /* \"#utility.yul\":5097:5110   */\n      mload\n        /* \"#utility.yul\":5130:5193   */\n      tag_190\n        /* \"#utility.yul\":5189:5192   */\n      dup9\n        /* \"#utility.yul\":5174:5187   */\n      dup3\n        /* \"#utility.yul\":5130:5193   */\n      tag_147\n      jump\t// in\n    tag_190:\n        /* \"#utility.yul\":5123:5193   */\n      swap8\n      pop\n        /* \"#utility.yul\":5216:5276   */\n      tag_191\n        /* \"#utility.yul\":5269:5275   */\n      dup4\n        /* \"#utility.yul\":5216:5276   */\n      tag_192\n      jump\t// in\n    tag_191:\n        /* \"#utility.yul\":5206:5276   */\n      swap3\n      pop\n        /* \"#utility.yul\":5062:5286   */\n      pop\n        /* \"#utility.yul\":5049:5050   */\n      0x01\n        /* \"#utility.yul\":5046:5047   */\n      dup2\n        /* \"#utility.yul\":5042:5051   */\n      add\n        /* \"#utility.yul\":5037:5051   */\n      swap1\n      pop\n        /* \"#utility.yul\":5002:5286   */\n      jump(tag_187)\n    tag_189:\n        /* \"#utility.yul\":5006:5020   */\n      pop\n        /* \"#utility.yul\":5302:5305   */\n      dup6\n        /* \"#utility.yul\":5295:5305   */\n      swap4\n      pop\n        /* \"#utility.yul\":4703:5311   */\n      pop\n      pop\n      pop\n        /* \"#utility.yul\":4579:5311   */\n      swap3\n      swap2\n      pop\n      pop\n      jump\t// out\n        /* \"#utility.yul\":5317:5661   */\n    tag_142:\n        /* \"#utility.yul\":5395:5398   */\n      0x00\n        /* \"#utility.yul\":5423:5462   */\n      tag_194\n        /* \"#utility.yul\":5456:5461   */\n      dup3\n        /* \"#utility.yul\":5423:5462   */\n      tag_195\n      jump\t// in\n    tag_194:\n        /* \"#utility.yul\":5478:5539   */\n      tag_196\n        /* \"#utility.yul\":5532:5538   */\n      dup2\n        /* \"#utility.yul\":5527:5530   */\n      dup6\n        /* \"#utility.yul\":5478:5539   */\n      tag_197\n      jump\t// in\n    tag_196:\n        /* \"#utility.yul\":5471:5539   */\n      swap4\n      pop\n        /* \"#utility.yul\":5548:5600   */\n      tag_198\n        /* \"#utility.yul\":5593:5599   */\n      dup2\n        /* \"#utility.yul\":5588:5591   */\n      dup6\n        /* \"#utility.yul\":5581:5585   */\n      0x20\n        /* \"#utility.yul\":5574:5579   */\n      dup7\n        /* \"#utility.yul\":5570:5586   */\n      add\n        /* \"#utility.yul\":5548:5600   */\n      tag_199\n      jump\t// in\n    tag_198:\n        /* \"#utility.yul\":5625:5654   */\n      tag_200\n        /* \"#utility.yul\":5647:5653   */\n      dup2\n        /* \"#utility.yul\":5625:5654   */\n      tag_201\n      jump\t// in\n    tag_200:\n        /* \"#utility.yul\":5620:5623   */\n      dup5\n        /* \"#utility.yul\":5616:5655   */\n      add\n        /* \"#utility.yul\":5609:5655   */\n      swap2\n      pop\n        /* \"#utility.yul\":5399:5661   */\n      pop\n        /* \"#utility.yul\":5317:5661   */\n      swap3\n      swap2\n      pop\n      pop\n      jump\t// out\n        /* \"#utility.yul\":5667:6031   */\n    tag_202:\n        /* \"#utility.yul\":5755:5758   */\n      0x00\n        /* \"#utility.yul\":5783:5822   */\n      tag_204\n        /* \"#utility.yul\":5816:5821   */\n      dup3\n        /* \"#utility.yul\":5783:5822   */\n      tag_195\n      jump\t// in\n    tag_204:\n        /* \"#utility.yul\":5838:5909   */\n      tag_205\n        /* \"#utility.yul\":5902:5908   */\n      dup2\n        /* \"#utility.yul\":5897:5900   */\n      dup6\n        /* \"#utility.yul\":5838:5909   */\n      tag_206\n      jump\t// in\n    tag_205:\n        /* \"#utility.yul\":5831:5909   */\n      swap4\n      pop\n        /* \"#utility.yul\":5918:5970   */\n      tag_207\n        /* \"#utility.yul\":5963:5969   */\n      dup2\n        /* \"#utility.yul\":5958:5961   */\n      dup6\n        /* \"#utility.yul\":5951:5955   */\n      0x20\n        /* \"#utility.yul\":5944:5949   */\n      dup7\n        /* \"#utility.yul\":5940:5956   */\n      add\n        /* \"#utility.yul\":5918:5970   */\n      tag_199\n      jump\t// in\n    tag_207:\n        /* \"#utility.yul\":5995:6024   */\n      tag_208\n        /* \"#utility.yul\":6017:6023   */\n      dup2\n        /* \"#utility.yul\":5995:6024   */\n      tag_201\n      jump\t// in\n    tag_208:\n        /* \"#utility.yul\":5990:5993   */\n      dup5\n        /* \"#utility.yul\":5986:6025   */\n      add\n        /* \"#utility.yul\":5979:6025   */\n      swap2\n      pop\n        /* \"#utility.yul\":5759:6031   */\n      pop\n        /* \"#utility.yul\":5667:6031   */\n      swap3\n      swap2\n      pop\n      pop\n      jump\t// out\n        /* \"#utility.yul\":6083:6665   */\n    tag_146:\n        /* \"#utility.yul\":6180:6183   */\n      0x00\n        /* \"#utility.yul\":6216:6220   */\n      0x40\n        /* \"#utility.yul\":6211:6214   */\n      dup4\n        /* \"#utility.yul\":6207:6221   */\n      add\n        /* \"#utility.yul\":6301:6305   */\n      0x00\n        /* \"#utility.yul\":6294:6299   */\n      dup4\n        /* \"#utility.yul\":6290:6306   */\n      add\n        /* \"#utility.yul\":6284:6307   */\n      mload\n        /* \"#utility.yul\":6320:6383   */\n      tag_210\n        /* \"#utility.yul\":6377:6381   */\n      0x00\n        /* \"#utility.yul\":6372:6375   */\n      dup7\n        /* \"#utility.yul\":6368:6382   */\n      add\n        /* \"#utility.yul\":6354:6366   */\n      dup3\n        /* \"#utility.yul\":6320:6383   */\n      tag_150\n      jump\t// in\n    tag_210:\n        /* \"#utility.yul\":6231:6393   */\n      pop\n        /* \"#utility.yul\":6475:6479   */\n      0x20\n        /* \"#utility.yul\":6468:6473   */\n      dup4\n        /* \"#utility.yul\":6464:6480   */\n      add\n        /* \"#utility.yul\":6458:6481   */\n      mload\n        /* \"#utility.yul\":6528:6531   */\n      dup5\n        /* \"#utility.yul\":6522:6526   */\n      dup3\n        /* \"#utility.yul\":6518:6532   */\n      sub\n        /* \"#utility.yul\":6511:6515   */\n      0x20\n        /* \"#utility.yul\":6506:6509   */\n      dup7\n        /* \"#utility.yul\":6502:6516   */\n      add\n        /* \"#utility.yul\":6495:6533   */\n      mstore\n        /* \"#utility.yul\":6554:6627   */\n      tag_211\n        /* \"#utility.yul\":6622:6626   */\n      dup3\n        /* \"#utility.yul\":6608:6620   */\n      dup3\n        /* \"#utility.yul\":6554:6627   */\n      tag_142\n      jump\t// in\n    tag_211:\n        /* \"#utility.yul\":6546:6627   */\n      swap2\n      pop\n        /* \"#utility.yul\":6403:6638   */\n      pop\n        /* \"#utility.yul\":6655:6659   */\n      dup1\n        /* \"#utility.yul\":6648:6659   */\n      swap2\n      pop\n        /* \"#utility.yul\":6185:6665   */\n      pop\n        /* \"#utility.yul\":6083:6665   */\n      swap3\n      swap2\n      pop\n      pop\n      jump\t// out\n        /* \"#utility.yul\":6717:7309   */\n    tag_212:\n        /* \"#utility.yul\":6824:6827   */\n      0x00\n        /* \"#utility.yul\":6860:6864   */\n      0x40\n        /* \"#utility.yul\":6855:6858   */\n      dup4\n        /* \"#utility.yul\":6851:6865   */\n      add\n        /* \"#utility.yul\":6945:6949   */\n      0x00\n        /* \"#utility.yul\":6938:6943   */\n      dup4\n        /* \"#utility.yul\":6934:6950   */\n      add\n        /* \"#utility.yul\":6928:6951   */\n      mload\n        /* \"#utility.yul\":6964:7027   */\n      tag_214\n        /* \"#utility.yul\":7021:7025   */\n      0x00\n        /* \"#utility.yul\":7016:7019   */\n      dup7\n        /* \"#utility.yul\":7012:7026   */\n      add\n        /* \"#utility.yul\":6998:7010   */\n      dup3\n        /* \"#utility.yul\":6964:7027   */\n      tag_150\n      jump\t// in\n    tag_214:\n        /* \"#utility.yul\":6875:7037   */\n      pop\n        /* \"#utility.yul\":7119:7123   */\n      0x20\n        /* \"#utility.yul\":7112:7117   */\n      dup4\n        /* \"#utility.yul\":7108:7124   */\n      add\n        /* \"#utility.yul\":7102:7125   */\n      mload\n        /* \"#utility.yul\":7172:7175   */\n      dup5\n        /* \"#utility.yul\":7166:7170   */\n      dup3\n        /* \"#utility.yul\":7162:7176   */\n      sub\n        /* \"#utility.yul\":7155:7159   */\n      0x20\n        /* \"#utility.yul\":7150:7153   */\n      dup7\n        /* \"#utility.yul\":7146:7160   */\n      add\n        /* \"#utility.yul\":7139:7177   */\n      mstore\n        /* \"#utility.yul\":7198:7271   */\n      tag_215\n        /* \"#utility.yul\":7266:7270   */\n      dup3\n        /* \"#utility.yul\":7252:7264   */\n      dup3\n        /* \"#utility.yul\":7198:7271   */\n      tag_142\n      jump\t// in\n    tag_215:\n        /* \"#utility.yul\":7190:7271   */\n      swap2\n      pop\n        /* \"#utility.yul\":7047:7282   */\n      pop\n        /* \"#utility.yul\":7299:7303   */\n      dup1\n        /* \"#utility.yul\":7292:7303   */\n      swap2\n      pop\n        /* \"#utility.yul\":6829:7309   */\n      pop\n        /* \"#utility.yul\":6717:7309   */\n      swap3\n      swap2\n      pop\n      pop\n      jump\t// out\n        /* \"#utility.yul\":7315:7423   */\n    tag_150:\n        /* \"#utility.yul\":7392:7416   */\n      tag_217\n        /* \"#utility.yul\":7410:7415   */\n      dup2\n        /* \"#utility.yul\":7392:7416   */\n      tag_218\n      jump\t// in\n    tag_217:\n        /* \"#utility.yul\":7387:7390   */\n      dup3\n        /* \"#utility.yul\":7380:7417   */\n      mstore\n        /* \"#utility.yul\":7315:7423   */\n      pop\n      pop\n      jump\t// out\n        /* \"#utility.yul\":7429:7547   */\n    tag_219:\n        /* \"#utility.yul\":7516:7540   */\n      tag_221\n        /* \"#utility.yul\":7534:7539   */\n      dup2\n        /* \"#utility.yul\":7516:7540   */\n      tag_218\n      jump\t// in\n    tag_221:\n        /* \"#utility.yul\":7511:7514   */\n      dup3\n        /* \"#utility.yul\":7504:7541   */\n      mstore\n        /* \"#utility.yul\":7429:7547   */\n      pop\n      pop\n      jump\t// out\n        /* \"#utility.yul\":7553:8002   */\n    tag_26:\n        /* \"#utility.yul\":7734:7738   */\n      0x00\n        /* \"#utility.yul\":7772:7774   */\n      0x20\n        /* \"#utility.yul\":7761:7770   */\n      dup3\n        /* \"#utility.yul\":7757:7775   */\n      add\n        /* \"#utility.yul\":7749:7775   */\n      swap1\n      pop\n        /* \"#utility.yul\":7821:7830   */\n      dup2\n        /* \"#utility.yul\":7815:7819   */\n      dup2\n        /* \"#utility.yul\":7811:7831   */\n      sub\n        /* \"#utility.yul\":7807:7808   */\n      0x00\n        /* \"#utility.yul\":7796:7805   */\n      dup4\n        /* \"#utility.yul\":7792:7809   */\n      add\n        /* \"#utility.yul\":7785:7832   */\n      mstore\n        /* \"#utility.yul\":7849:7995   */\n      tag_223\n        /* \"#utility.yul\":7990:7994   */\n      dup2\n        /* \"#utility.yul\":7981:7987   */\n      dup5\n        /* \"#utility.yul\":7849:7995   */\n      tag_165\n      jump\t// in\n    tag_223:\n        /* \"#utility.yul\":7841:7995   */\n      swap1\n      pop\n        /* \"#utility.yul\":7553:8002   */\n      swap3\n      swap2\n      pop\n      pop\n      jump\t// out\n        /* \"#utility.yul\":8008:8682   */\n    tag_12:\n        /* \"#utility.yul\":8249:8253   */\n      0x00\n        /* \"#utility.yul\":8287:8289   */\n      0x40\n        /* \"#utility.yul\":8276:8285   */\n      dup3\n        /* \"#utility.yul\":8272:8290   */\n      add\n        /* \"#utility.yul\":8264:8290   */\n      swap1\n      pop\n        /* \"#utility.yul\":8336:8345   */\n      dup2\n        /* \"#utility.yul\":8330:8334   */\n      dup2\n        /* \"#utility.yul\":8326:8346   */\n      sub\n        /* \"#utility.yul\":8322:8323   */\n      0x00\n        /* \"#utility.yul\":8311:8320   */\n      dup4\n        /* \"#utility.yul\":8307:8324   */\n      add\n        /* \"#utility.yul\":8300:8347   */\n      mstore\n        /* \"#utility.yul\":8364:8472   */\n      tag_225\n        /* \"#utility.yul\":8467:8471   */\n      dup2\n        /* \"#utility.yul\":8458:8464   */\n      dup6\n        /* \"#utility.yul\":8364:8472   */\n      tag_179\n      jump\t// in\n    tag_225:\n        /* \"#utility.yul\":8356:8472   */\n      swap1\n      pop\n        /* \"#utility.yul\":8519:8528   */\n      dup2\n        /* \"#utility.yul\":8513:8517   */\n      dup2\n        /* \"#utility.yul\":8509:8529   */\n      sub\n        /* \"#utility.yul\":8504:8506   */\n      0x20\n        /* \"#utility.yul\":8493:8502   */\n      dup4\n        /* \"#utility.yul\":8489:8507   */\n      add\n        /* \"#utility.yul\":8482:8530   */\n      mstore\n        /* \"#utility.yul\":8547:8675   */\n      tag_226\n        /* \"#utility.yul\":8670:8674   */\n      dup2\n        /* \"#utility.yul\":8661:8667   */\n      dup5\n        /* \"#utility.yul\":8547:8675   */\n      tag_151\n      jump\t// in\n    tag_226:\n        /* \"#utility.yul\":8539:8675   */\n      swap1\n      pop\n        /* \"#utility.yul\":8008:8682   */\n      swap4\n      swap3\n      pop\n      pop\n      pop\n      jump\t// out\n        /* \"#utility.yul\":8688:9037   */\n    tag_22:\n        /* \"#utility.yul\":8819:8823   */\n      0x00\n        /* \"#utility.yul\":8857:8859   */\n      0x20\n        /* \"#utility.yul\":8846:8855   */\n      dup3\n        /* \"#utility.yul\":8842:8860   */\n      add\n        /* \"#utility.yul\":8834:8860   */\n      swap1\n      pop\n        /* \"#utility.yul\":8906:8915   */\n      dup2\n        /* \"#utility.yul\":8900:8904   */\n      dup2\n        /* \"#utility.yul\":8896:8916   */\n      sub\n        /* \"#utility.yul\":8892:8893   */\n      0x00\n        /* \"#utility.yul\":8881:8890   */\n      dup4\n        /* \"#utility.yul\":8877:8894   */\n      add\n        /* \"#utility.yul\":8870:8917   */\n      mstore\n        /* \"#utility.yul\":8934:9030   */\n      tag_228\n        /* \"#utility.yul\":9025:9029   */\n      dup2\n        /* \"#utility.yul\":9016:9022   */\n      dup5\n        /* \"#utility.yul\":8934:9030   */\n      tag_212\n      jump\t// in\n    tag_228:\n        /* \"#utility.yul\":8926:9030   */\n      swap1\n      pop\n        /* \"#utility.yul\":8688:9037   */\n      swap3\n      swap2\n      pop\n      pop\n      jump\t// out\n        /* \"#utility.yul\":9043:9265   */\n    tag_16:\n        /* \"#utility.yul\":9136:9140   */\n      0x00\n        /* \"#utility.yul\":9174:9176   */\n      0x20\n        /* \"#utility.yul\":9163:9172   */\n      dup3\n        /* \"#utility.yul\":9159:9177   */\n      add\n        /* \"#utility.yul\":9151:9177   */\n      swap1\n      pop\n        /* \"#utility.yul\":9187:9258   */\n      tag_230\n        /* \"#utility.yul\":9255:9256   */\n      0x00\n        /* \"#utility.yul\":9244:9253   */\n      dup4\n        /* \"#utility.yul\":9240:9257   */\n      add\n        /* \"#utility.yul\":9231:9237   */\n      dup5\n        /* \"#utility.yul\":9187:9258   */\n      tag_219\n      jump\t// in\n    tag_230:\n        /* \"#utility.yul\":9043:9265   */\n      swap3\n      swap2\n      pop\n      pop\n      jump\t// out\n        /* \"#utility.yul\":9271:9694   */\n    tag_31:\n        /* \"#utility.yul\":9412:9416   */\n      0x00\n        /* \"#utility.yul\":9450:9452   */\n      0x40\n        /* \"#utility.yul\":9439:9448   */\n      dup3\n        /* \"#utility.yul\":9435:9453   */\n      add\n        /* \"#utility.yul\":9427:9453   */\n      swap1\n      pop\n        /* \"#utility.yul\":9463:9534   */\n      tag_232\n        /* \"#utility.yul\":9531:9532   */\n      0x00\n        /* \"#utility.yul\":9520:9529   */\n      dup4\n        /* \"#utility.yul\":9516:9533   */\n      add\n        /* \"#utility.yul\":9507:9513   */\n      dup6\n        /* \"#utility.yul\":9463:9534   */\n      tag_219\n      jump\t// in\n    tag_232:\n        /* \"#utility.yul\":9581:9590   */\n      dup2\n        /* \"#utility.yul\":9575:9579   */\n      dup2\n        /* \"#utility.yul\":9571:9591   */\n      sub\n        /* \"#utility.yul\":9566:9568   */\n      0x20\n        /* \"#utility.yul\":9555:9564   */\n      dup4\n        /* \"#utility.yul\":9551:9569   */\n      add\n        /* \"#utility.yul\":9544:9592   */\n      mstore\n        /* \"#utility.yul\":9609:9687   */\n      tag_233\n        /* \"#utility.yul\":9682:9686   */\n      dup2\n        /* \"#utility.yul\":9673:9679   */\n      dup5\n        /* \"#utility.yul\":9609:9687   */\n      tag_202\n      jump\t// in\n    tag_233:\n        /* \"#utility.yul\":9601:9687   */\n      swap1\n      pop\n        /* \"#utility.yul\":9271:9694   */\n      swap4\n      swap3\n      pop\n      pop\n      pop\n      jump\t// out\n        /* \"#utility.yul\":9700:9829   */\n    tag_111:\n        /* \"#utility.yul\":9734:9740   */\n      0x00\n        /* \"#utility.yul\":9761:9781   */\n      tag_235\n      tag_236\n      jump\t// in\n    tag_235:\n        /* \"#utility.yul\":9751:9781   */\n      swap1\n      pop\n        /* \"#utility.yul\":9790:9823   */\n      tag_237\n        /* \"#utility.yul\":9818:9822   */\n      dup3\n        /* \"#utility.yul\":9810:9816   */\n      dup3\n        /* \"#utility.yul\":9790:9823   */\n      tag_238\n      jump\t// in\n    tag_237:\n        /* \"#utility.yul\":9700:9829   */\n      swap2\n      swap1\n      pop\n      jump\t// out\n        /* \"#utility.yul\":9835:9910   */\n    tag_236:\n        /* \"#utility.yul\":9868:9874   */\n      0x00\n        /* \"#utility.yul\":9901:9903   */\n      0x40\n        /* \"#utility.yul\":9895:9904   */\n      mload\n        /* \"#utility.yul\":9885:9904   */\n      swap1\n      pop\n        /* \"#utility.yul\":9835:9910   */\n      swap1\n      jump\t// out\n        /* \"#utility.yul\":9916:10224   */\n    tag_110:\n        /* \"#utility.yul\":9978:9982   */\n      0x00\n        /* \"#utility.yul\":10068:10086   */\n      0xffffffffffffffff\n        /* \"#utility.yul\":10060:10066   */\n      dup3\n        /* \"#utility.yul\":10057:10087   */\n      gt\n        /* \"#utility.yul\":10054:10110   */\n      iszero\n      tag_241\n      jumpi\n        /* \"#utility.yul\":10090:10108   */\n      tag_242\n      tag_39\n      jump\t// in\n    tag_242:\n        /* \"#utility.yul\":10054:10110   */\n    tag_241:\n        /* \"#utility.yul\":10128:10157   */\n      tag_243\n        /* \"#utility.yul\":10150:10156   */\n      dup3\n        /* \"#utility.yul\":10128:10157   */\n      tag_201\n      jump\t// in\n    tag_243:\n        /* \"#utility.yul\":10120:10157   */\n      swap1\n      pop\n        /* \"#utility.yul\":10212:10216   */\n      0x20\n        /* \"#utility.yul\":10206:10210   */\n      dup2\n        /* \"#utility.yul\":10202:10217   */\n      add\n        /* \"#utility.yul\":10194:10217   */\n      swap1\n      pop\n        /* \"#utility.yul\":9916:10224   */\n      swap2\n      swap1\n      pop\n      jump\t// out\n        /* \"#utility.yul\":10230:10372   */\n    tag_158:\n        /* \"#utility.yul\":10307:10311   */\n      0x00\n        /* \"#utility.yul\":10330:10333   */\n      dup2\n        /* \"#utility.yul\":10322:10333   */\n      swap1\n      pop\n        /* \"#utility.yul\":10360:10364   */\n      0x20\n        /* \"#utility.yul\":10355:10358   */\n      dup3\n        /* \"#utility.yul\":10351:10365   */\n      add\n        /* \"#utility.yul\":10343:10365   */\n      swap1\n      pop\n        /* \"#utility.yul\":10230:10372   */\n      swap2\n      swap1\n      pop\n      jump\t// out\n        /* \"#utility.yul\":10378:10529   */\n    tag_172:\n        /* \"#utility.yul\":10464:10468   */\n      0x00\n        /* \"#utility.yul\":10487:10490   */\n      dup2\n        /* \"#utility.yul\":10479:10490   */\n      swap1\n      pop\n        /* \"#utility.yul\":10517:10521   */\n      0x20\n        /* \"#utility.yul\":10512:10515   */\n      dup3\n        /* \"#utility.yul\":10508:10522   */\n      add\n        /* \"#utility.yul\":10500:10522   */\n      swap1\n      pop\n        /* \"#utility.yul\":10378:10529   */\n      swap2\n      swap1\n      pop\n      jump\t// out\n        /* \"#utility.yul\":10535:10667   */\n    tag_186:\n        /* \"#utility.yul\":10602:10606   */\n      0x00\n        /* \"#utility.yul\":10625:10628   */\n      dup2\n        /* \"#utility.yul\":10617:10628   */\n      swap1\n      pop\n        /* \"#utility.yul\":10655:10659   */\n      0x20\n        /* \"#utility.yul\":10650:10653   */\n      dup3\n        /* \"#utility.yul\":10646:10660   */\n      add\n        /* \"#utility.yul\":10638:10660   */\n      swap1\n      pop\n        /* \"#utility.yul\":10535:10667   */\n      swap2\n      swap1\n      pop\n      jump\t// out\n        /* \"#utility.yul\":10673:10797   */\n    tag_154:\n        /* \"#utility.yul\":10750:10756   */\n      0x00\n        /* \"#utility.yul\":10784:10789   */\n      dup2\n        /* \"#utility.yul\":10778:10790   */\n      mload\n        /* \"#utility.yul\":10768:10790   */\n      swap1\n      pop\n        /* \"#utility.yul\":10673:10797   */\n      swap2\n      swap1\n      pop\n      jump\t// out\n        /* \"#utility.yul\":10803:10936   */\n    tag_168:\n        /* \"#utility.yul\":10889:10895   */\n      0x00\n        /* \"#utility.yul\":10923:10928   */\n      dup2\n        /* \"#utility.yul\":10917:10929   */\n      mload\n        /* \"#utility.yul\":10907:10929   */\n      swap1\n      pop\n        /* \"#utility.yul\":10803:10936   */\n      swap2\n      swap1\n      pop\n      jump\t// out\n        /* \"#utility.yul\":10942:11056   */\n    tag_182:\n        /* \"#utility.yul\":11009:11015   */\n      0x00\n        /* \"#utility.yul\":11043:11048   */\n      dup2\n        /* \"#utility.yul\":11037:11049   */\n      mload\n        /* \"#utility.yul\":11027:11049   */\n      swap1\n      pop\n        /* \"#utility.yul\":10942:11056   */\n      swap2\n      swap1\n      pop\n      jump\t// out\n        /* \"#utility.yul\":11062:11161   */\n    tag_195:\n        /* \"#utility.yul\":11114:11120   */\n      0x00\n        /* \"#utility.yul\":11148:11153   */\n      dup2\n        /* \"#utility.yul\":11142:11154   */\n      mload\n        /* \"#utility.yul\":11132:11154   */\n      swap1\n      pop\n        /* \"#utility.yul\":11062:11161   */\n      swap2\n      swap1\n      pop\n      jump\t// out\n        /* \"#utility.yul\":11167:11290   */\n    tag_164:\n        /* \"#utility.yul\":11247:11251   */\n      0x00\n        /* \"#utility.yul\":11279:11283   */\n      0x20\n        /* \"#utility.yul\":11274:11277   */\n      dup3\n        /* \"#utility.yul\":11270:11284   */\n      add\n        /* \"#utility.yul\":11262:11284   */\n      swap1\n      pop\n        /* \"#utility.yul\":11167:11290   */\n      swap2\n      swap1\n      pop\n      jump\t// out\n        /* \"#utility.yul\":11296:11428   */\n    tag_178:\n        /* \"#utility.yul\":11385:11389   */\n      0x00\n        /* \"#utility.yul\":11417:11421   */\n      0x20\n        /* \"#utility.yul\":11412:11415   */\n      dup3\n        /* \"#utility.yul\":11408:11422   */\n      add\n        /* \"#utility.yul\":11400:11422   */\n      swap1\n      pop\n        /* \"#utility.yul\":11296:11428   */\n      swap2\n      swap1\n      pop\n      jump\t// out\n        /* \"#utility.yul\":11434:11547   */\n    tag_192:\n        /* \"#utility.yul\":11504:11508   */\n      0x00\n        /* \"#utility.yul\":11536:11540   */\n      0x20\n        /* \"#utility.yul\":11531:11534   */\n      dup3\n        /* \"#utility.yul\":11527:11541   */\n      add\n        /* \"#utility.yul\":11519:11541   */\n      swap1\n      pop\n        /* \"#utility.yul\":11434:11547   */\n      swap2\n      swap1\n      pop\n      jump\t// out\n        /* \"#utility.yul\":11553:11747   */\n    tag_156:\n        /* \"#utility.yul\":11662:11673   */\n      0x00\n        /* \"#utility.yul\":11696:11702   */\n      dup3\n        /* \"#utility.yul\":11691:11694   */\n      dup3\n        /* \"#utility.yul\":11684:11703   */\n      mstore\n        /* \"#utility.yul\":11736:11740   */\n      0x20\n        /* \"#utility.yul\":11731:11734   */\n      dup3\n        /* \"#utility.yul\":11727:11741   */\n      add\n        /* \"#utility.yul\":11712:11741   */\n      swap1\n      pop\n        /* \"#utility.yul\":11553:11747   */\n      swap3\n      swap2\n      pop\n      pop\n      jump\t// out\n        /* \"#utility.yul\":11753:11956   */\n    tag_170:\n        /* \"#utility.yul\":11871:11882   */\n      0x00\n        /* \"#utility.yul\":11905:11911   */\n      dup3\n        /* \"#utility.yul\":11900:11903   */\n      dup3\n        /* \"#utility.yul\":11893:11912   */\n      mstore\n        /* \"#utility.yul\":11945:11949   */\n      0x20\n        /* \"#utility.yul\":11940:11943   */\n      dup3\n        /* \"#utility.yul\":11936:11950   */\n      add\n        /* \"#utility.yul\":11921:11950   */\n      swap1\n      pop\n        /* \"#utility.yul\":11753:11956   */\n      swap3\n      swap2\n      pop\n      pop\n      jump\t// out\n        /* \"#utility.yul\":11962:12146   */\n    tag_184:\n        /* \"#utility.yul\":12061:12072   */\n      0x00\n        /* \"#utility.yul\":12095:12101   */\n      dup3\n        /* \"#utility.yul\":12090:12093   */\n      dup3\n        /* \"#utility.yul\":12083:12102   */\n      mstore\n        /* \"#utility.yul\":12135:12139   */\n      0x20\n        /* \"#utility.yul\":12130:12133   */\n      dup3\n        /* \"#utility.yul\":12126:12140   */\n      add\n        /* \"#utility.yul\":12111:12140   */\n      swap1\n      pop\n        /* \"#utility.yul\":11962:12146   */\n      swap3\n      swap2\n      pop\n      pop\n      jump\t// out\n        /* \"#utility.yul\":12152:12311   */\n    tag_197:\n        /* \"#utility.yul\":12226:12237   */\n      0x00\n        /* \"#utility.yul\":12260:12266   */\n      dup3\n        /* \"#utility.yul\":12255:12258   */\n      dup3\n        /* \"#utility.yul\":12248:12267   */\n      mstore\n        /* \"#utility.yul\":12300:12304   */\n      0x20\n        /* \"#utility.yul\":12295:12298   */\n      dup3\n        /* \"#utility.yul\":12291:12305   */\n      add\n        /* \"#utility.yul\":12276:12305   */\n      swap1\n      pop\n        /* \"#utility.yul\":12152:12311   */\n      swap3\n      swap2\n      pop\n      pop\n      jump\t// out\n        /* \"#utility.yul\":12317:12486   */\n    tag_206:\n        /* \"#utility.yul\":12401:12412   */\n      0x00\n        /* \"#utility.yul\":12435:12441   */\n      dup3\n        /* \"#utility.yul\":12430:12433   */\n      dup3\n        /* \"#utility.yul\":12423:12442   */\n      mstore\n        /* \"#utility.yul\":12475:12479   */\n      0x20\n        /* \"#utility.yul\":12470:12473   */\n      dup3\n        /* \"#utility.yul\":12466:12480   */\n      add\n        /* \"#utility.yul\":12451:12480   */\n      swap1\n      pop\n        /* \"#utility.yul\":12317:12486   */\n      swap3\n      swap2\n      pop\n      pop\n      jump\t// out\n        /* \"#utility.yul\":12492:12569   */\n    tag_218:\n        /* \"#utility.yul\":12529:12536   */\n      0x00\n        /* \"#utility.yul\":12558:12563   */\n      dup2\n        /* \"#utility.yul\":12547:12563   */\n      swap1\n      pop\n        /* \"#utility.yul\":12492:12569   */\n      swap2\n      swap1\n      pop\n      jump\t// out\n        /* \"#utility.yul\":12575:12729   */\n    tag_116:\n        /* \"#utility.yul\":12659:12665   */\n      dup3\n        /* \"#utility.yul\":12654:12657   */\n      dup2\n        /* \"#utility.yul\":12649:12652   */\n      dup4\n        /* \"#utility.yul\":12636:12666   */\n      calldatacopy\n        /* \"#utility.yul\":12721:12722   */\n      0x00\n        /* \"#utility.yul\":12712:12718   */\n      dup4\n        /* \"#utility.yul\":12707:12710   */\n      dup4\n        /* \"#utility.yul\":12703:12719   */\n      add\n        /* \"#utility.yul\":12696:12723   */\n      mstore\n        /* \"#utility.yul\":12575:12729   */\n      pop\n      pop\n      pop\n      jump\t// out\n        /* \"#utility.yul\":12735:13042   */\n    tag_199:\n        /* \"#utility.yul\":12803:12804   */\n      0x00\n        /* \"#utility.yul\":12813:12926   */\n    tag_262:\n        /* \"#utility.yul\":12827:12833   */\n      dup4\n        /* \"#utility.yul\":12824:12825   */\n      dup2\n        /* \"#utility.yul\":12821:12834   */\n      lt\n        /* \"#utility.yul\":12813:12926   */\n      iszero\n      tag_264\n      jumpi\n        /* \"#utility.yul\":12912:12913   */\n      dup1\n        /* \"#utility.yul\":12907:12910   */\n      dup3\n        /* \"#utility.yul\":12903:12914   */\n      add\n        /* \"#utility.yul\":12897:12915   */\n      mload\n        /* \"#utility.yul\":12893:12894   */\n      dup2\n        /* \"#utility.yul\":12888:12891   */\n      dup5\n        /* \"#utility.yul\":12884:12895   */\n      add\n        /* \"#utility.yul\":12877:12916   */\n      mstore\n        /* \"#utility.yul\":12849:12851   */\n      0x20\n        /* \"#utility.yul\":12846:12847   */\n      dup2\n        /* \"#utility.yul\":12842:12852   */\n      add\n        /* \"#utility.yul\":12837:12852   */\n      swap1\n      pop\n        /* \"#utility.yul\":12813:12926   */\n      jump(tag_262)\n    tag_264:\n        /* \"#utility.yul\":12944:12950   */\n      dup4\n        /* \"#utility.yul\":12941:12942   */\n      dup2\n        /* \"#utility.yul\":12938:12951   */\n      gt\n        /* \"#utility.yul\":12935:13036   */\n      iszero\n      tag_265\n      jumpi\n        /* \"#utility.yul\":13024:13025   */\n      0x00\n        /* \"#utility.yul\":13015:13021   */\n      dup5\n        /* \"#utility.yul\":13010:13013   */\n      dup5\n        /* \"#utility.yul\":13006:13022   */\n      add\n        /* \"#utility.yul\":12999:13026   */\n      mstore\n        /* \"#utility.yul\":12935:13036   */\n    tag_265:\n        /* \"#utility.yul\":12784:13042   */\n      pop\n        /* \"#utility.yul\":12735:13042   */\n      pop\n      pop\n      pop\n      jump\t// out\n        /* \"#utility.yul\":13048:13368   */\n    tag_52:\n        /* \"#utility.yul\":13092:13098   */\n      0x00\n        /* \"#utility.yul\":13129:13130   */\n      0x02\n        /* \"#utility.yul\":13123:13127   */\n      dup3\n        /* \"#utility.yul\":13119:13131   */\n      div\n        /* \"#utility.yul\":13109:13131   */\n      swap1\n      pop\n        /* \"#utility.yul\":13176:13177   */\n      0x01\n        /* \"#utility.yul\":13170:13174   */\n      dup3\n        /* \"#utility.yul\":13166:13178   */\n      and\n        /* \"#utility.yul\":13197:13215   */\n      dup1\n        /* \"#utility.yul\":13187:13268   */\n      tag_267\n      jumpi\n        /* \"#utility.yul\":13253:13257   */\n      0x7f\n        /* \"#utility.yul\":13245:13251   */\n      dup3\n        /* \"#utility.yul\":13241:13258   */\n      and\n        /* \"#utility.yul\":13231:13258   */\n      swap2\n      pop\n        /* \"#utility.yul\":13187:13268   */\n    tag_267:\n        /* \"#utility.yul\":13315:13317   */\n      0x20\n        /* \"#utility.yul\":13307:13313   */\n      dup3\n        /* \"#utility.yul\":13304:13318   */\n      lt\n        /* \"#utility.yul\":13284:13302   */\n      dup2\n        /* \"#utility.yul\":13281:13319   */\n      eq\n        /* \"#utility.yul\":13278:13362   */\n      iszero\n      tag_268\n      jumpi\n        /* \"#utility.yul\":13334:13352   */\n      tag_269\n      tag_270\n      jump\t// in\n    tag_269:\n        /* \"#utility.yul\":13278:13362   */\n    tag_268:\n        /* \"#utility.yul\":13099:13368   */\n      pop\n        /* \"#utility.yul\":13048:13368   */\n      swap2\n      swap1\n      pop\n      jump\t// out\n        /* \"#utility.yul\":13374:13655   */\n    tag_238:\n        /* \"#utility.yul\":13457:13484   */\n      tag_272\n        /* \"#utility.yul\":13479:13483   */\n      dup3\n        /* \"#utility.yul\":13457:13484   */\n      tag_201\n      jump\t// in\n    tag_272:\n        /* \"#utility.yul\":13449:13455   */\n      dup2\n        /* \"#utility.yul\":13445:13485   */\n      add\n        /* \"#utility.yul\":13587:13593   */\n      dup2\n        /* \"#utility.yul\":13575:13585   */\n      dup2\n        /* \"#utility.yul\":13572:13594   */\n      lt\n        /* \"#utility.yul\":13551:13569   */\n      0xffffffffffffffff\n        /* \"#utility.yul\":13539:13549   */\n      dup3\n        /* \"#utility.yul\":13536:13570   */\n      gt\n        /* \"#utility.yul\":13533:13595   */\n      or\n        /* \"#utility.yul\":13530:13618   */\n      iszero\n      tag_273\n      jumpi\n        /* \"#utility.yul\":13598:13616   */\n      tag_274\n      tag_39\n      jump\t// in\n    tag_274:\n        /* \"#utility.yul\":13530:13618   */\n    tag_273:\n        /* \"#utility.yul\":13638:13648   */\n      dup1\n        /* \"#utility.yul\":13634:13636   */\n      0x40\n        /* \"#utility.yul\":13627:13649   */\n      mstore\n        /* \"#utility.yul\":13417:13655   */\n      pop\n        /* \"#utility.yul\":13374:13655   */\n      pop\n      pop\n      jump\t// out\n        /* \"#utility.yul\":13661:13894   */\n    tag_60:\n        /* \"#utility.yul\":13700:13703   */\n      0x00\n        /* \"#utility.yul\":13723:13747   */\n      tag_276\n        /* \"#utility.yul\":13741:13746   */\n      dup3\n        /* \"#utility.yul\":13723:13747   */\n      tag_218\n      jump\t// in\n    tag_276:\n        /* \"#utility.yul\":13714:13747   */\n      swap2\n      pop\n        /* \"#utility.yul\":13769:13835   */\n      0xffffffffffffffffffffffffffffffffffffffffffffffffffffffffffffffff\n        /* \"#utility.yul\":13762:13767   */\n      dup3\n        /* \"#utility.yul\":13759:13836   */\n      eq\n        /* \"#utility.yul\":13756:13859   */\n      iszero\n      tag_277\n      jumpi\n        /* \"#utility.yul\":13839:13857   */\n      tag_278\n      tag_279\n      jump\t// in\n    tag_278:\n        /* \"#utility.yul\":13756:13859   */\n    tag_277:\n        /* \"#utility.yul\":13886:13887   */\n      0x01\n        /* \"#utility.yul\":13879:13884   */\n      dup3\n        /* \"#utility.yul\":13875:13888   */\n      add\n        /* \"#utility.yul\":13868:13888   */\n      swap1\n      pop\n        /* \"#utility.yul\":13661:13894   */\n      swap2\n      swap1\n      pop\n      jump\t// out\n        /* \"#utility.yul\":13900:14080   */\n    tag_279:\n        /* \"#utility.yul\":13948:14025   */\n      0x4e487b7100000000000000000000000000000000000000000000000000000000\n        /* \"#utility.yul\":13945:13946   */\n      0x00\n        /* \"#utility.yul\":13938:14026   */\n      mstore\n        /* \"#utility.yul\":14045:14049   */\n      0x11\n        /* \"#utility.yul\":14042:14043   */\n      0x04\n        /* \"#utility.yul\":14035:14050   */\n      mstore\n        /* \"#utility.yul\":14069:14073   */\n      0x24\n        /* \"#utility.yul\":14066:14067   */\n      0x00\n        /* \"#utility.yul\":14059:14074   */\n      revert\n        /* \"#utility.yul\":14086:14266   */\n    tag_270:\n        /* \"#utility.yul\":14134:14211   */\n      0x4e487b7100000000000000000000000000000000000000000000000000000000\n        /* \"#utility.yul\":14131:14132   */\n      0x00\n        /* \"#utility.yul\":14124:14212   */\n      mstore\n        /* \"#utility.yul\":14231:14235   */\n      0x22\n        /* \"#utility.yul\":14228:14229   */\n      0x04\n        /* \"#utility.yul\":14221:14236   */\n      mstore\n        /* \"#utility.yul\":14255:14259   */\n      0x24\n        /* \"#utility.yul\":14252:14253   */\n      0x00\n        /* \"#utility.yul\":14245:14260   */\n      revert\n        /* \"#utility.yul\":14272:14452   */\n    tag_50:\n        /* \"#utility.yul\":14320:14397   */\n      0x4e487b7100000000000000000000000000000000000000000000000000000000\n        /* \"#utility.yul\":14317:14318   */\n      0x00\n        /* \"#utility.yul\":14310:14398   */\n      mstore\n        /* \"#utility.yul\":14417:14421   */\n      0x32\n        /* \"#utility.yul\":14414:14415   */\n      0x04\n        /* \"#utility.yul\":14407:14422   */\n      mstore\n        /* \"#utility.yul\":14441:14445   */\n      0x24\n        /* \"#utility.yul\":14438:14439   */\n      0x00\n        /* \"#utility.yul\":14431:14446   */\n      revert\n        /* \"#utility.yul\":14458:14638   */\n    tag_39:\n        /* \"#utility.yul\":14506:14583   */\n      0x4e487b7100000000000000000000000000000000000000000000000000000000\n        /* \"#utility.yul\":14503:14504   */\n      0x00\n        /* \"#utility.yul\":14496:14584   */\n      mstore\n        /* \"#utility.yul\":14603:14607   */\n      0x41\n        /* \"#utility.yul\":14600:14601   */\n      0x04\n        /* \"#utility.yul\":14593:14608   */\n      mstore\n        /* \"#utility.yul\":14627:14631   */\n      0x24\n        /* \"#utility.yul\":14624:14625   */\n      0x00\n        /* \"#utility.yul\":14617:14632   */\n      revert\n        /* \"#utility.yul\":14644:14761   */\n    tag_121:\n        /* \"#utility.yul\":14753:14754   */\n      0x00\n        /* \"#utility.yul\":14750:14751   */\n      dup1\n        /* \"#utility.yul\":14743:14755   */\n      revert\n        /* \"#utility.yul\":14767:14884   */\n    tag_114:\n        /* \"#utility.yul\":14876:14877   */\n      0x00\n        /* \"#utility.yul\":14873:14874   */\n      dup1\n        /* \"#utility.yul\":14866:14878   */\n      revert\n        /* \"#utility.yul\":14890:15007   */\n    tag_133:\n        /* \"#utility.yul\":14999:15000   */\n      0x00\n        /* \"#utility.yul\":14996:14997   */\n      dup1\n        /* \"#utility.yul\":14989:15001   */\n      revert\n        /* \"#utility.yul\":15013:15130   */\n    tag_130:\n        /* \"#utility.yul\":15122:15123   */\n      0x00\n        /* \"#utility.yul\":15119:15120   */\n      dup1\n        /* \"#utility.yul\":15112:15124   */\n      revert\n        /* \"#utility.yul\":15136:15238   */\n    tag_201:\n        /* \"#utility.yul\":15177:15183   */\n      0x00\n        /* \"#utility.yul\":15228:15230   */\n      0x1f\n        /* \"#utility.yul\":15224:15231   */\n      not\n        /* \"#utility.yul\":15219:15221   */\n      0x1f\n        /* \"#utility.yul\":15212:15217   */\n      dup4\n        /* \"#utility.yul\":15208:15222   */\n      add\n        /* \"#utility.yul\":15204:15232   */\n      and\n        /* \"#utility.yul\":15194:15232   */\n      swap1\n      pop\n        /* \"#utility.yul\":15136:15238   */\n      swap2\n      swap1\n      pop\n      jump\t// out\n        /* \"#utility.yul\":15244:15366   */\n    tag_126:\n        /* \"#utility.yul\":15317:15341   */\n      tag_290\n        /* \"#utility.yul\":15335:15340   */\n      dup2\n        /* \"#utility.yul\":15317:15341   */\n      tag_218\n      jump\t// in\n    tag_290:\n        /* \"#utility.yul\":15310:15315   */\n      dup2\n        /* \"#utility.yul\":15307:15342   */\n      eq\n        /* \"#utility.yul\":15297:15360   */\n      tag_291\n      jumpi\n        /* \"#utility.yul\":15356:15357   */\n      0x00\n        /* \"#utility.yul\":15353:15354   */\n      dup1\n        /* \"#utility.yul\":15346:15358   */\n      revert\n        /* \"#utility.yul\":15297:15360   */\n    tag_291:\n        /* \"#utility.yul\":15244:15366   */\n      pop\n      jump\t// out\n\n    auxdata: 0xa2646970667358221220291517d2a344f912cb943525b03908c3faf2aad8de9177b342a99d9721b220d964736f6c63430008070033\n}\n",
				"bytecode": {
					"linkReferences": {},
					"object": "608060405234801561001057600080fd5b506000600181905550610ea7806100286000396000f3fe608060405234801561001057600080fd5b50600436106100625760003560e01c806315dae03e14610067578063602d7fe6146100865780639507d39a146100a4578063b4579d60146100d4578063cefbfa36146100f2578063e7f08e6914610123575b600080fd5b61006f61013f565b60405161007d929190610aaf565b60405180910390f35b61008e6102f8565b60405161009b9190610b08565b60405180910390f35b6100be60048036038101906100b991906107ce565b6102fe565b6040516100cb9190610ae6565b60405180910390f35b6100dc6103c6565b6040516100e99190610a8d565b60405180910390f35b61010c600480360381019061010791906107ce565b610527565b60405161011a929190610b23565b60405180910390f35b61013d60048036038101906101389190610785565b6105d3565b005b606080600060015467ffffffffffffffff8111156101605761015f610e06565b5b60405190808252806020026020018201604052801561018e5781602001602082028036833780820191505090505b509050600060015467ffffffffffffffff8111156101af576101ae610e06565b5b6040519080825280602002602001820160405280156101e257816020015b60608152602001906001900390816101cd5790505b50905060005b6001548110156102eb576000806000838152602001908152602001600020905080600001548483815181106102205761021f610dd7565b5b60200260200101818152505080600101805461023b90610ccd565b80601f016020809104026020016040519081016040528092919081815260200182805461026790610ccd565b80156102b45780601f10610289576101008083540402835291602001916102b4565b820191906000526020600020905b81548152906001019060200180831161029757829003601f168201915b50505050508383815181106102cc576102cb610dd7565b5b60200260200101819052505080806102e390610d30565b9150506101e8565b5081819350935050509091565b60015481565b610306610643565b6000808381526020019081526020016000206040518060400160405290816000820154815260200160018201805461033d90610ccd565b80601f016020809104026020016040519081016040528092919081815260200182805461036990610ccd565b80156103b65780601f1061038b576101008083540402835291602001916103b6565b820191906000526020600020905b81548152906001019060200180831161039957829003601f168201915b5050505050815250509050919050565b6060600060015467ffffffffffffffff8111156103e6576103e5610e06565b5b60405190808252806020026020018201604052801561041f57816020015b61040c610643565b8152602001906001900390816104045790505b50905060005b60015481101561051f5760008060008381526020019081526020016000209050806040518060400160405290816000820154815260200160018201805461046b90610ccd565b80601f016020809104026020016040519081016040528092919081815260200182805461049790610ccd565b80156104e45780601f106104b9576101008083540402835291602001916104e4565b820191906000526020600020905b8154815290600101906020018083116104c757829003601f168201915b505050505081525050838381518110610500576104ff610dd7565b5b602002602001018190525050808061051790610d30565b915050610425565b508091505090565b600060205280600052604060002060009150905080600001549080600101805461055090610ccd565b80601f016020809104026020016040519081016040528092919081815260200182805461057c90610ccd565b80156105c95780601f1061059e576101008083540402835291602001916105c9565b820191906000526020600020905b8154815290600101906020018083116105ac57829003601f168201915b5050505050905082565b6040518060400160405280600154815260200182815250600080600154815260200190815260200160002060008201518160000155602082015181600101908051906020019061062492919061065d565b509050506001600081548092919061063b90610d30565b919050555050565b604051806040016040528060008152602001606081525090565b82805461066990610ccd565b90600052602060002090601f01602090048101928261068b57600085556106d2565b82601f106106a457805160ff19168380011785556106d2565b828001600101855582156106d2579182015b828111156106d15782518255916020019190600101906106b6565b5b5090506106df91906106e3565b5090565b5b808211156106fc5760008160009055506001016106e4565b5090565b600061071361070e84610b78565b610b53565b90508281526020810184848401111561072f5761072e610e3a565b5b61073a848285610c8b565b509392505050565b600082601f83011261075757610756610e35565b5b8135610767848260208601610700565b91505092915050565b60008135905061077f81610e5a565b92915050565b60006020828403121561079b5761079a610e44565b5b600082013567ffffffffffffffff8111156107b9576107b8610e3f565b5b6107c584828501610742565b91505092915050565b6000602082840312156107e4576107e3610e44565b5b60006107f284828501610770565b91505092915050565b60006108078383610983565b905092915050565b600061081b83836109f5565b905092915050565b600061082f8383610a6f565b60208301905092915050565b600061084682610bd9565b6108508185610c2c565b93508360208202850161086285610ba9565b8060005b8581101561089e578484038952815161087f85826107fb565b945061088a83610c05565b925060208a01995050600181019050610866565b50829750879550505050505092915050565b60006108bb82610be4565b6108c58185610c3d565b9350836020820285016108d785610bb9565b8060005b8581101561091357848403895281516108f4858261080f565b94506108ff83610c12565b925060208a019950506001810190506108db565b50829750879550505050505092915050565b600061093082610bef565b61093a8185610c4e565b935061094583610bc9565b8060005b8381101561097657815161095d8882610823565b975061096883610c1f565b925050600181019050610949565b5085935050505092915050565b600061098e82610bfa565b6109988185610c5f565b93506109a8818560208601610c9a565b6109b181610e49565b840191505092915050565b60006109c782610bfa565b6109d18185610c70565b93506109e1818560208601610c9a565b6109ea81610e49565b840191505092915050565b6000604083016000830151610a0d6000860182610a6f565b5060208301518482036020860152610a258282610983565b9150508091505092915050565b6000604083016000830151610a4a6000860182610a6f565b5060208301518482036020860152610a628282610983565b9150508091505092915050565b610a7881610c81565b82525050565b610a8781610c81565b82525050565b60006020820190508181036000830152610aa781846108b0565b905092915050565b60006040820190508181036000830152610ac98185610925565b90508181036020830152610add818461083b565b90509392505050565b60006020820190508181036000830152610b008184610a32565b905092915050565b6000602082019050610b1d6000830184610a7e565b92915050565b6000604082019050610b386000830185610a7e565b8181036020830152610b4a81846109bc565b90509392505050565b6000610b5d610b6e565b9050610b698282610cff565b919050565b6000604051905090565b600067ffffffffffffffff821115610b9357610b92610e06565b5b610b9c82610e49565b9050602081019050919050565b6000819050602082019050919050565b6000819050602082019050919050565b6000819050602082019050919050565b600081519050919050565b600081519050919050565b600081519050919050565b600081519050919050565b6000602082019050919050565b6000602082019050919050565b6000602082019050919050565b600082825260208201905092915050565b600082825260208201905092915050565b600082825260208201905092915050565b600082825260208201905092915050565b600082825260208201905092915050565b6000819050919050565b82818337600083830152505050565b60005b83811015610cb8578082015181840152602081019050610c9d565b83811115610cc7576000848401525b50505050565b60006002820490506001821680610ce557607f821691505b60208210811415610cf957610cf8610da8565b5b50919050565b610d0882610e49565b810181811067ffffffffffffffff82111715610d2757610d26610e06565b5b80604052505050565b6000610d3b82610c81565b91507fffffffffffffffffffffffffffffffffffffffffffffffffffffffffffffffff821415610d6e57610d6d610d79565b5b600182019050919050565b7f4e487b7100000000000000000000000000000000000000000000000000000000600052601160045260246000fd5b7f4e487b7100000000000000000000000000000000000000000000000000000000600052602260045260246000fd5b7f4e487b7100000000000000000000000000000000000000000000000000000000600052603260045260246000fd5b7f4e487b7100000000000000000000000000000000000000000000000000000000600052604160045260246000fd5b600080fd5b600080fd5b600080fd5b600080fd5b6000601f19601f8301169050919050565b610e6381610c81565b8114610e6e57600080fd5b5056fea2646970667358221220291517d2a344f912cb943525b03908c3faf2aad8de9177b342a99d9721b220d964736f6c63430008070033",
					"opcodes": "PUSH1 0x80 PUSH1 0x40 MSTORE CALLVALUE DUP1 ISZERO PUSH2 0x10 JUMPI PUSH1 0x0 DUP1 REVERT JUMPDEST POP PUSH1 0x0 PUSH1 0x1 DUP2 SWAP1 SSTORE POP PUSH2 0xEA7 DUP1 PUSH2 0x28 PUSH1 0x0 CODECOPY PUSH1 0x0 RETURN INVALID PUSH1 0x80 PUSH1 0x40 MSTORE CALLVALUE DUP1 ISZERO PUSH2 0x10 JUMPI PUSH1 0x0 DUP1 REVERT JUMPDEST POP PUSH1 0x4 CALLDATASIZE LT PUSH2 0x62 JUMPI PUSH1 0x0 CALLDATALOAD PUSH1 0xE0 SHR DUP1 PUSH4 0x15DAE03E EQ PUSH2 0x67 JUMPI DUP1 PUSH4 0x602D7FE6 EQ PUSH2 0x86 JUMPI DUP1 PUSH4 0x9507D39A EQ PUSH2 0xA4 JUMPI DUP1 PUSH4 0xB4579D60 EQ PUSH2 0xD4 JUMPI DUP1 PUSH4 0xCEFBFA36 EQ PUSH2 0xF2 JUMPI DUP1 PUSH4 0xE7F08E69 EQ PUSH2 0x123 JUMPI JUMPDEST PUSH1 0x0 DUP1 REVERT JUMPDEST PUSH2 0x6F PUSH2 0x13F JUMP JUMPDEST PUSH1 0x40 MLOAD PUSH2 0x7D SWAP3 SWAP2 SWAP1 PUSH2 0xAAF JUMP JUMPDEST PUSH1 0x40 MLOAD DUP1 SWAP2 SUB SWAP1 RETURN JUMPDEST PUSH2 0x8E PUSH2 0x2F8 JUMP JUMPDEST PUSH1 0x40 MLOAD PUSH2 0x9B SWAP2 SWAP1 PUSH2 0xB08 JUMP JUMPDEST PUSH1 0x40 MLOAD DUP1 SWAP2 SUB SWAP1 RETURN JUMPDEST PUSH2 0xBE PUSH1 0x4 DUP1 CALLDATASIZE SUB DUP2 ADD SWAP1 PUSH2 0xB9 SWAP2 SWAP1 PUSH2 0x7CE JUMP JUMPDEST PUSH2 0x2FE JUMP JUMPDEST PUSH1 0x40 MLOAD PUSH2 0xCB SWAP2 SWAP1 PUSH2 0xAE6 JUMP JUMPDEST PUSH1 0x40 MLOAD DUP1 SWAP2 SUB SWAP1 RETURN JUMPDEST PUSH2 0xDC PUSH2 0x3C6 JUMP JUMPDEST PUSH1 0x40 MLOAD PUSH2 0xE9 SWAP2 SWAP1 PUSH2 0xA8D JUMP JUMPDEST PUSH1 0x40 MLOAD DUP1 SWAP2 SUB SWAP1 RETURN JUMPDEST PUSH2 0x10C PUSH1 0x4 DUP1 CALLDATASIZE SUB DUP2 ADD SWAP1 PUSH2 0x107 SWAP2 SWAP1 PUSH2 0x7CE JUMP JUMPDEST PUSH2 0x527 JUMP JUMPDEST PUSH1 0x40 MLOAD PUSH2 0x11A SWAP3 SWAP2 SWAP1 PUSH2 0xB23 JUMP JUMPDEST PUSH1 0x40 MLOAD DUP1 SWAP2 SUB SWAP1 RETURN JUMPDEST PUSH2 0x13D PUSH1 0x4 DUP1 CALLDATASIZE SUB DUP2 ADD SWAP1 PUSH2 0x138 SWAP2 SWAP1 PUSH2 0x785 JUMP JUMPDEST PUSH2 0x5D3 JUMP JUMPDEST STOP JUMPDEST PUSH1 0x60 DUP1 PUSH1 0x0 PUSH1 0x1 SLOAD PUSH8 0xFFFFFFFFFFFFFFFF DUP2 GT ISZERO PUSH2 0x160 JUMPI PUSH2 0x15F PUSH2 0xE06 JUMP JUMPDEST JUMPDEST PUSH1 0x40 MLOAD SWAP1 DUP1 DUP3 MSTORE DUP1 PUSH1 0x20 MUL PUSH1 0x20 ADD DUP3 ADD PUSH1 0x40 MSTORE DUP1 ISZERO PUSH2 0x18E JUMPI DUP2 PUSH1 0x20 ADD PUSH1 0x20 DUP3 MUL DUP1 CALLDATASIZE DUP4 CALLDATACOPY DUP1 DUP3 ADD SWAP2 POP POP SWAP1 POP JUMPDEST POP SWAP1 POP PUSH1 0x0 PUSH1 0x1 SLOAD PUSH8 0xFFFFFFFFFFFFFFFF DUP2 GT ISZERO PUSH2 0x1AF JUMPI PUSH2 0x1AE PUSH2 0xE06 JUMP JUMPDEST JUMPDEST PUSH1 0x40 MLOAD SWAP1 DUP1 DUP3 MSTORE DUP1 PUSH1 0x20 MUL PUSH1 0x20 ADD DUP3 ADD PUSH1 0x40 MSTORE DUP1 ISZERO PUSH2 0x1E2 JUMPI DUP2 PUSH1 0x20 ADD JUMPDEST PUSH1 0x60 DUP2 MSTORE PUSH1 0x20 ADD SWAP1 PUSH1 0x1 SWAP1 SUB SWAP1 DUP2 PUSH2 0x1CD JUMPI SWAP1 POP JUMPDEST POP SWAP1 POP PUSH1 0x0 JUMPDEST PUSH1 0x1 SLOAD DUP2 LT ISZERO PUSH2 0x2EB JUMPI PUSH1 0x0 DUP1 PUSH1 0x0 DUP4 DUP2 MSTORE PUSH1 0x20 ADD SWAP1 DUP2 MSTORE PUSH1 0x20 ADD PUSH1 0x0 KECCAK256 SWAP1 POP DUP1 PUSH1 0x0 ADD SLOAD DUP5 DUP4 DUP2 MLOAD DUP2 LT PUSH2 0x220 JUMPI PUSH2 0x21F PUSH2 0xDD7 JUMP JUMPDEST JUMPDEST PUSH1 0x20 MUL PUSH1 0x20 ADD ADD DUP2 DUP2 MSTORE POP POP DUP1 PUSH1 0x1 ADD DUP1 SLOAD PUSH2 0x23B SWAP1 PUSH2 0xCCD JUMP JUMPDEST DUP1 PUSH1 0x1F ADD PUSH1 0x20 DUP1 SWAP2 DIV MUL PUSH1 0x20 ADD PUSH1 0x40 MLOAD SWAP1 DUP2 ADD PUSH1 0x40 MSTORE DUP1 SWAP3 SWAP2 SWAP1 DUP2 DUP2 MSTORE PUSH1 0x20 ADD DUP3 DUP1 SLOAD PUSH2 0x267 SWAP1 PUSH2 0xCCD JUMP JUMPDEST DUP1 ISZERO PUSH2 0x2B4 JUMPI DUP1 PUSH1 0x1F LT PUSH2 0x289 JUMPI PUSH2 0x100 DUP1 DUP4 SLOAD DIV MUL DUP4 MSTORE SWAP2 PUSH1 0x20 ADD SWAP2 PUSH2 0x2B4 JUMP JUMPDEST DUP3 ADD SWAP2 SWAP1 PUSH1 0x0 MSTORE PUSH1 0x20 PUSH1 0x0 KECCAK256 SWAP1 JUMPDEST DUP2 SLOAD DUP2 MSTORE SWAP1 PUSH1 0x1 ADD SWAP1 PUSH1 0x20 ADD DUP1 DUP4 GT PUSH2 0x297 JUMPI DUP3 SWAP1 SUB PUSH1 0x1F AND DUP3 ADD SWAP2 JUMPDEST POP POP POP POP POP DUP4 DUP4 DUP2 MLOAD DUP2 LT PUSH2 0x2CC JUMPI PUSH2 0x2CB PUSH2 0xDD7 JUMP JUMPDEST JUMPDEST PUSH1 0x20 MUL PUSH1 0x20 ADD ADD DUP2 SWAP1 MSTORE POP POP DUP1 DUP1 PUSH2 0x2E3 SWAP1 PUSH2 0xD30 JUMP JUMPDEST SWAP2 POP POP PUSH2 0x1E8 JUMP JUMPDEST POP DUP2 DUP2 SWAP4 POP SWAP4 POP POP POP SWAP1 SWAP2 JUMP JUMPDEST PUSH1 0x1 SLOAD DUP2 JUMP JUMPDEST PUSH2 0x306 PUSH2 0x643 JUMP JUMPDEST PUSH1 0x0 DUP1 DUP4 DUP2 MSTORE PUSH1 0x20 ADD SWAP1 DUP2 MSTORE PUSH1 0x20 ADD PUSH1 0x0 KECCAK256 PUSH1 0x40 MLOAD DUP1 PUSH1 0x40 ADD PUSH1 0x40 MSTORE SWAP1 DUP2 PUSH1 0x0 DUP3 ADD SLOAD DUP2 MSTORE PUSH1 0x20 ADD PUSH1 0x1 DUP3 ADD DUP1 SLOAD PUSH2 0x33D SWAP1 PUSH2 0xCCD JUMP JUMPDEST DUP1 PUSH1 0x1F ADD PUSH1 0x20 DUP1 SWAP2 DIV MUL PUSH1 0x20 ADD PUSH1 0x40 MLOAD SWAP1 DUP2 ADD PUSH1 0x40 MSTORE DUP1 SWAP3 SWAP2 SWAP1 DUP2 DUP2 MSTORE PUSH1 0x20 ADD DUP3 DUP1 SLOAD PUSH2 0x369 SWAP1 PUSH2 0xCCD JUMP JUMPDEST DUP1 ISZERO PUSH2 0x3B6 JUMPI DUP1 PUSH1 0x1F LT PUSH2 0x38B JUMPI PUSH2 0x100 DUP1 DUP4 SLOAD DIV MUL DUP4 MSTORE SWAP2 PUSH1 0x20 ADD SWAP2 PUSH2 0x3B6 JUMP JUMPDEST DUP3 ADD SWAP2 SWAP1 PUSH1 0x0 MSTORE PUSH1 0x20 PUSH1 0x0 KECCAK256 SWAP1 JUMPDEST DUP2 SLOAD DUP2 MSTORE SWAP1 PUSH1 0x1 ADD SWAP1 PUSH1 0x20 ADD DUP1 DUP4 GT PUSH2 0x399 JUMPI DUP3 SWAP1 SUB PUSH1 0x1F AND DUP3 ADD SWAP2 JUMPDEST POP POP POP POP POP DUP2 MSTORE POP POP SWAP1 POP SWAP2 SWAP1 POP JUMP JUMPDEST PUSH1 0x60 PUSH1 0x0 PUSH1 0x1 SLOAD PUSH8 0xFFFFFFFFFFFFFFFF DUP2 GT ISZERO PUSH2 0x3E6 JUMPI PUSH2 0x3E5 PUSH2 0xE06 JUMP JUMPDEST JUMPDEST PUSH1 0x40 MLOAD SWAP1 DUP1 DUP3 MSTORE DUP1 PUSH1 0x20 MUL PUSH1 0x20 ADD DUP3 ADD PUSH1 0x40 MSTORE DUP1 ISZERO PUSH2 0x41F JUMPI DUP2 PUSH1 0x20 ADD JUMPDEST PUSH2 0x40C PUSH2 0x643 JUMP JUMPDEST DUP2 MSTORE PUSH1 0x20 ADD SWAP1 PUSH1 0x1 SWAP1 SUB SWAP1 DUP2 PUSH2 0x404 JUMPI SWAP1 POP JUMPDEST POP SWAP1 POP PUSH1 0x0 JUMPDEST PUSH1 0x1 SLOAD DUP2 LT ISZERO PUSH2 0x51F JUMPI PUSH1 0x0 DUP1 PUSH1 0x0 DUP4 DUP2 MSTORE PUSH1 0x20 ADD SWAP1 DUP2 MSTORE PUSH1 0x20 ADD PUSH1 0x0 KECCAK256 SWAP1 POP DUP1 PUSH1 0x40 MLOAD DUP1 PUSH1 0x40 ADD PUSH1 0x40 MSTORE SWAP1 DUP2 PUSH1 0x0 DUP3 ADD SLOAD DUP2 MSTORE PUSH1 0x20 ADD PUSH1 0x1 DUP3 ADD DUP1 SLOAD PUSH2 0x46B SWAP1 PUSH2 0xCCD JUMP JUMPDEST DUP1 PUSH1 0x1F ADD PUSH1 0x20 DUP1 SWAP2 DIV MUL PUSH1 0x20 ADD PUSH1 0x40 MLOAD SWAP1 DUP2 ADD PUSH1 0x40 MSTORE DUP1 SWAP3 SWAP2 SWAP1 DUP2 DUP2 MSTORE PUSH1 0x20 ADD DUP3 DUP1 SLOAD PUSH2 0x497 SWAP1 PUSH2 0xCCD JUMP JUMPDEST DUP1 ISZERO PUSH2 0x4E4 JUMPI DUP1 PUSH1 0x1F LT PUSH2 0x4B9 JUMPI PUSH2 0x100 DUP1 DUP4 SLOAD DIV MUL DUP4 MSTORE SWAP2 PUSH1 0x20 ADD SWAP2 PUSH2 0x4E4 JUMP JUMPDEST DUP3 ADD SWAP2 SWAP1 PUSH1 0x0 MSTORE PUSH1 0x20 PUSH1 0x0 KECCAK256 SWAP1 JUMPDEST DUP2 SLOAD DUP2 MSTORE SWAP1 PUSH1 0x1 ADD SWAP1 PUSH1 0x20 ADD DUP1 DUP4 GT PUSH2 0x4C7 JUMPI DUP3 SWAP1 SUB PUSH1 0x1F AND DUP3 ADD SWAP2 JUMPDEST POP POP POP POP POP DUP2 MSTORE POP POP DUP4 DUP4 DUP2 MLOAD DUP2 LT PUSH2 0x500 JUMPI PUSH2 0x4FF PUSH2 0xDD7 JUMP JUMPDEST JUMPDEST PUSH1 0x20 MUL PUSH1 0x20 ADD ADD DUP2 SWAP1 MSTORE POP POP DUP1 DUP1 PUSH2 0x517 SWAP1 PUSH2 0xD30 JUMP JUMPDEST SWAP2 POP POP PUSH2 0x425 JUMP JUMPDEST POP DUP1 SWAP2 POP POP SWAP1 JUMP JUMPDEST PUSH1 0x0 PUSH1 0x20 MSTORE DUP1 PUSH1 0x0 MSTORE PUSH1 0x40 PUSH1 0x0 KECCAK256 PUSH1 0x0 SWAP2 POP SWAP1 POP DUP1 PUSH1 0x0 ADD SLOAD SWAP1 DUP1 PUSH1 0x1 ADD DUP1 SLOAD PUSH2 0x550 SWAP1 PUSH2 0xCCD JUMP JUMPDEST DUP1 PUSH1 0x1F ADD PUSH1 0x20 DUP1 SWAP2 DIV MUL PUSH1 0x20 ADD PUSH1 0x40 MLOAD SWAP1 DUP2 ADD PUSH1 0x40 MSTORE DUP1 SWAP3 SWAP2 SWAP1 DUP2 DUP2 MSTORE PUSH1 0x20 ADD DUP3 DUP1 SLOAD PUSH2 0x57C SWAP1 PUSH2 0xCCD JUMP JUMPDEST DUP1 ISZERO PUSH2 0x5C9 JUMPI DUP1 PUSH1 0x1F LT PUSH2 0x59E JUMPI PUSH2 0x100 DUP1 DUP4 SLOAD DIV MUL DUP4 MSTORE SWAP2 PUSH1 0x20 ADD SWAP2 PUSH2 0x5C9 JUMP JUMPDEST DUP3 ADD SWAP2 SWAP1 PUSH1 0x0 MSTORE PUSH1 0x20 PUSH1 0x0 KECCAK256 SWAP1 JUMPDEST DUP2 SLOAD DUP2 MSTORE SWAP1 PUSH1 0x1 ADD SWAP1 PUSH1 0x20 ADD DUP1 DUP4 GT PUSH2 0x5AC JUMPI DUP3 SWAP1 SUB PUSH1 0x1F AND DUP3 ADD SWAP2 JUMPDEST POP POP POP POP POP SWAP1 POP DUP3 JUMP JUMPDEST PUSH1 0x40 MLOAD DUP1 PUSH1 0x40 ADD PUSH1 0x40 MSTORE DUP1 PUSH1 0x1 SLOAD DUP2 MSTORE PUSH1 0x20 ADD DUP3 DUP2 MSTORE POP PUSH1 0x0 DUP1 PUSH1 0x1 SLOAD DUP2 MSTORE PUSH1 0x20 ADD SWAP1 DUP2 MSTORE PUSH1 0x20 ADD PUSH1 0x0 KECCAK256 PUSH1 0x0 DUP3 ADD MLOAD DUP2 PUSH1 0x0 ADD SSTORE PUSH1 0x20 DUP3 ADD MLOAD DUP2 PUSH1 0x1 ADD SWAP1 DUP1 MLOAD SWAP1 PUSH1 0x20 ADD SWAP1 PUSH2 0x624 SWAP3 SWAP2 SWAP1 PUSH2 0x65D JUMP JUMPDEST POP SWAP1 POP POP PUSH1 0x1 PUSH1 0x0 DUP2 SLOAD DUP1 SWAP3 SWAP2 SWAP1 PUSH2 0x63B SWAP1 PUSH2 0xD30 JUMP JUMPDEST SWAP2 SWAP1 POP SSTORE POP POP JUMP JUMPDEST PUSH1 0x40 MLOAD DUP1 PUSH1 0x40 ADD PUSH1 0x40 MSTORE DUP1 PUSH1 0x0 DUP2 MSTORE PUSH1 0x20 ADD PUSH1 0x60 DUP2 MSTORE POP SWAP1 JUMP JUMPDEST DUP3 DUP1 SLOAD PUSH2 0x669 SWAP1 PUSH2 0xCCD JUMP JUMPDEST SWAP1 PUSH1 0x0 MSTORE PUSH1 0x20 PUSH1 0x0 KECCAK256 SWAP1 PUSH1 0x1F ADD PUSH1 0x20 SWAP1 DIV DUP2 ADD SWAP3 DUP3 PUSH2 0x68B JUMPI PUSH1 0x0 DUP6 SSTORE PUSH2 0x6D2 JUMP JUMPDEST DUP3 PUSH1 0x1F LT PUSH2 0x6A4 JUMPI DUP1 MLOAD PUSH1 0xFF NOT AND DUP4 DUP1 ADD OR DUP6 SSTORE PUSH2 0x6D2 JUMP JUMPDEST DUP3 DUP1 ADD PUSH1 0x1 ADD DUP6 SSTORE DUP3 ISZERO PUSH2 0x6D2 JUMPI SWAP2 DUP3 ADD JUMPDEST DUP3 DUP2 GT ISZERO PUSH2 0x6D1 JUMPI DUP3 MLOAD DUP3 SSTORE SWAP2 PUSH1 0x20 ADD SWAP2 SWAP1 PUSH1 0x1 ADD SWAP1 PUSH2 0x6B6 JUMP JUMPDEST JUMPDEST POP SWAP1 POP PUSH2 0x6DF SWAP2 SWAP1 PUSH2 0x6E3 JUMP JUMPDEST POP SWAP1 JUMP JUMPDEST JUMPDEST DUP1 DUP3 GT ISZERO PUSH2 0x6FC JUMPI PUSH1 0x0 DUP2 PUSH1 0x0 SWAP1 SSTORE POP PUSH1 0x1 ADD PUSH2 0x6E4 JUMP JUMPDEST POP SWAP1 JUMP JUMPDEST PUSH1 0x0 PUSH2 0x713 PUSH2 0x70E DUP5 PUSH2 0xB78 JUMP JUMPDEST PUSH2 0xB53 JUMP JUMPDEST SWAP1 POP DUP3 DUP2 MSTORE PUSH1 0x20 DUP2 ADD DUP5 DUP5 DUP5 ADD GT ISZERO PUSH2 0x72F JUMPI PUSH2 0x72E PUSH2 0xE3A JUMP JUMPDEST JUMPDEST PUSH2 0x73A DUP5 DUP3 DUP6 PUSH2 0xC8B JUMP JUMPDEST POP SWAP4 SWAP3 POP POP POP JUMP JUMPDEST PUSH1 0x0 DUP3 PUSH1 0x1F DUP4 ADD SLT PUSH2 0x757 JUMPI PUSH2 0x756 PUSH2 0xE35 JUMP JUMPDEST JUMPDEST DUP2 CALLDATALOAD PUSH2 0x767 DUP5 DUP3 PUSH1 0x20 DUP7 ADD PUSH2 0x700 JUMP JUMPDEST SWAP2 POP POP SWAP3 SWAP2 POP POP JUMP JUMPDEST PUSH1 0x0 DUP2 CALLDATALOAD SWAP1 POP PUSH2 0x77F DUP2 PUSH2 0xE5A JUMP JUMPDEST SWAP3 SWAP2 POP POP JUMP JUMPDEST PUSH1 0x0 PUSH1 0x20 DUP3 DUP5 SUB SLT ISZERO PUSH2 0x79B JUMPI PUSH2 0x79A PUSH2 0xE44 JUMP JUMPDEST JUMPDEST PUSH1 0x0 DUP3 ADD CALLDATALOAD PUSH8 0xFFFFFFFFFFFFFFFF DUP2 GT ISZERO PUSH2 0x7B9 JUMPI PUSH2 0x7B8 PUSH2 0xE3F JUMP JUMPDEST JUMPDEST PUSH2 0x7C5 DUP5 DUP3 DUP6 ADD PUSH2 0x742 JUMP JUMPDEST SWAP2 POP POP SWAP3 SWAP2 POP POP JUMP JUMPDEST PUSH1 0x0 PUSH1 0x20 DUP3 DUP5 SUB SLT ISZERO PUSH2 0x7E4 JUMPI PUSH2 0x7E3 PUSH2 0xE44 JUMP JUMPDEST JUMPDEST PUSH1 0x0 PUSH2 0x7F2 DUP5 DUP3 DUP6 ADD PUSH2 0x770 JUMP JUMPDEST SWAP2 POP POP SWAP3 SWAP2 POP POP JUMP JUMPDEST PUSH1 0x0 PUSH2 0x807 DUP4 DUP4 PUSH2 0x983 JUMP JUMPDEST SWAP1 POP SWAP3 SWAP2 POP POP JUMP JUMPDEST PUSH1 0x0 PUSH2 0x81B DUP4 DUP4 PUSH2 0x9F5 JUMP JUMPDEST SWAP1 POP SWAP3 SWAP2 POP POP JUMP JUMPDEST PUSH1 0x0 PUSH2 0x82F DUP4 DUP4 PUSH2 0xA6F JUMP JUMPDEST PUSH1 0x20 DUP4 ADD SWAP1 POP SWAP3 SWAP2 POP POP JUMP JUMPDEST PUSH1 0x0 PUSH2 0x846 DUP3 PUSH2 0xBD9 JUMP JUMPDEST PUSH2 0x850 DUP2 DUP6 PUSH2 0xC2C JUMP JUMPDEST SWAP4 POP DUP4 PUSH1 0x20 DUP3 MUL DUP6 ADD PUSH2 0x862 DUP6 PUSH2 0xBA9 JUMP JUMPDEST DUP1 PUSH1 0x0 JUMPDEST DUP6 DUP2 LT ISZERO PUSH2 0x89E JUMPI DUP5 DUP5 SUB DUP10 MSTORE DUP2 MLOAD PUSH2 0x87F DUP6 DUP3 PUSH2 0x7FB JUMP JUMPDEST SWAP5 POP PUSH2 0x88A DUP4 PUSH2 0xC05 JUMP JUMPDEST SWAP3 POP PUSH1 0x20 DUP11 ADD SWAP10 POP POP PUSH1 0x1 DUP2 ADD SWAP1 POP PUSH2 0x866 JUMP JUMPDEST POP DUP3 SWAP8 POP DUP8 SWAP6 POP POP POP POP POP POP SWAP3 SWAP2 POP POP JUMP JUMPDEST PUSH1 0x0 PUSH2 0x8BB DUP3 PUSH2 0xBE4 JUMP JUMPDEST PUSH2 0x8C5 DUP2 DUP6 PUSH2 0xC3D JUMP JUMPDEST SWAP4 POP DUP4 PUSH1 0x20 DUP3 MUL DUP6 ADD PUSH2 0x8D7 DUP6 PUSH2 0xBB9 JUMP JUMPDEST DUP1 PUSH1 0x0 JUMPDEST DUP6 DUP2 LT ISZERO PUSH2 0x913 JUMPI DUP5 DUP5 SUB DUP10 MSTORE DUP2 MLOAD PUSH2 0x8F4 DUP6 DUP3 PUSH2 0x80F JUMP JUMPDEST SWAP5 POP PUSH2 0x8FF DUP4 PUSH2 0xC12 JUMP JUMPDEST SWAP3 POP PUSH1 0x20 DUP11 ADD SWAP10 POP POP PUSH1 0x1 DUP2 ADD SWAP1 POP PUSH2 0x8DB JUMP JUMPDEST POP DUP3 SWAP8 POP DUP8 SWAP6 POP POP POP POP POP POP SWAP3 SWAP2 POP POP JUMP JUMPDEST PUSH1 0x0 PUSH2 0x930 DUP3 PUSH2 0xBEF JUMP JUMPDEST PUSH2 0x93A DUP2 DUP6 PUSH2 0xC4E JUMP JUMPDEST SWAP4 POP PUSH2 0x945 DUP4 PUSH2 0xBC9 JUMP JUMPDEST DUP1 PUSH1 0x0 JUMPDEST DUP4 DUP2 LT ISZERO PUSH2 0x976 JUMPI DUP2 MLOAD PUSH2 0x95D DUP9 DUP3 PUSH2 0x823 JUMP JUMPDEST SWAP8 POP PUSH2 0x968 DUP4 PUSH2 0xC1F JUMP JUMPDEST SWAP3 POP POP PUSH1 0x1 DUP2 ADD SWAP1 POP PUSH2 0x949 JUMP JUMPDEST POP DUP6 SWAP4 POP POP POP POP SWAP3 SWAP2 POP POP JUMP JUMPDEST PUSH1 0x0 PUSH2 0x98E DUP3 PUSH2 0xBFA JUMP JUMPDEST PUSH2 0x998 DUP2 DUP6 PUSH2 0xC5F JUMP JUMPDEST SWAP4 POP PUSH2 0x9A8 DUP2 DUP6 PUSH1 0x20 DUP7 ADD PUSH2 0xC9A JUMP JUMPDEST PUSH2 0x9B1 DUP2 PUSH2 0xE49 JUMP JUMPDEST DUP5 ADD SWAP2 POP POP SWAP3 SWAP2 POP POP JUMP JUMPDEST PUSH1 0x0 PUSH2 0x9C7 DUP3 PUSH2 0xBFA JUMP JUMPDEST PUSH2 0x9D1 DUP2 DUP6 PUSH2 0xC70 JUMP JUMPDEST SWAP4 POP PUSH2 0x9E1 DUP2 DUP6 PUSH1 0x20 DUP7 ADD PUSH2 0xC9A JUMP JUMPDEST PUSH2 0x9EA DUP2 PUSH2 0xE49 JUMP JUMPDEST DUP5 ADD SWAP2 POP POP SWAP3 SWAP2 POP POP JUMP JUMPDEST PUSH1 0x0 PUSH1 0x40 DUP4 ADD PUSH1 0x0 DUP4 ADD MLOAD PUSH2 0xA0D PUSH1 0x0 DUP7 ADD DUP3 PUSH2 0xA6F JUMP JUMPDEST POP PUSH1 0x20 DUP4 ADD MLOAD DUP5 DUP3 SUB PUSH1 0x20 DUP7 ADD MSTORE PUSH2 0xA25 DUP3 DUP3 PUSH2 0x983 JUMP JUMPDEST SWAP2 POP POP DUP1 SWAP2 POP POP SWAP3 SWAP2 POP POP JUMP JUMPDEST PUSH1 0x0 PUSH1 0x40 DUP4 ADD PUSH1 0x0 DUP4 ADD MLOAD PUSH2 0xA4A PUSH1 0x0 DUP7 ADD DUP3 PUSH2 0xA6F JUMP JUMPDEST POP PUSH1 0x20 DUP4 ADD MLOAD DUP5 DUP3 SUB PUSH1 0x20 DUP7 ADD MSTORE PUSH2 0xA62 DUP3 DUP3 PUSH2 0x983 JUMP JUMPDEST SWAP2 POP POP DUP1 SWAP2 POP POP SWAP3 SWAP2 POP POP JUMP JUMPDEST PUSH2 0xA78 DUP2 PUSH2 0xC81 JUMP JUMPDEST DUP3 MSTORE POP POP JUMP JUMPDEST PUSH2 0xA87 DUP2 PUSH2 0xC81 JUMP JUMPDEST DUP3 MSTORE POP POP JUMP JUMPDEST PUSH1 0x0 PUSH1 0x20 DUP3 ADD SWAP1 POP DUP2 DUP2 SUB PUSH1 0x0 DUP4 ADD MSTORE PUSH2 0xAA7 DUP2 DUP5 PUSH2 0x8B0 JUMP JUMPDEST SWAP1 POP SWAP3 SWAP2 POP POP JUMP JUMPDEST PUSH1 0x0 PUSH1 0x40 DUP3 ADD SWAP1 POP DUP2 DUP2 SUB PUSH1 0x0 DUP4 ADD MSTORE PUSH2 0xAC9 DUP2 DUP6 PUSH2 0x925 JUMP JUMPDEST SWAP1 POP DUP2 DUP2 SUB PUSH1 0x20 DUP4 ADD MSTORE PUSH2 0xADD DUP2 DUP5 PUSH2 0x83B JUMP JUMPDEST SWAP1 POP SWAP4 SWAP3 POP POP POP JUMP JUMPDEST PUSH1 0x0 PUSH1 0x20 DUP3 ADD SWAP1 POP DUP2 DUP2 SUB PUSH1 0x0 DUP4 ADD MSTORE PUSH2 0xB00 DUP2 DUP5 PUSH2 0xA32 JUMP JUMPDEST SWAP1 POP SWAP3 SWAP2 POP POP JUMP JUMPDEST PUSH1 0x0 PUSH1 0x20 DUP3 ADD SWAP1 POP PUSH2 0xB1D PUSH1 0x0 DUP4 ADD DUP5 PUSH2 0xA7E JUMP JUMPDEST SWAP3 SWAP2 POP POP JUMP JUMPDEST PUSH1 0x0 PUSH1 0x40 DUP3 ADD SWAP1 POP PUSH2 0xB38 PUSH1 0x0 DUP4 ADD DUP6 PUSH2 0xA7E JUMP JUMPDEST DUP2 DUP2 SUB PUSH1 0x20 DUP4 ADD MSTORE PUSH2 0xB4A DUP2 DUP5 PUSH2 0x9BC JUMP JUMPDEST SWAP1 POP SWAP4 SWAP3 POP POP POP JUMP JUMPDEST PUSH1 0x0 PUSH2 0xB5D PUSH2 0xB6E JUMP JUMPDEST SWAP1 POP PUSH2 0xB69 DUP3 DUP3 PUSH2 0xCFF JUMP JUMPDEST SWAP2 SWAP1 POP JUMP JUMPDEST PUSH1 0x0 PUSH1 0x40 MLOAD SWAP1 POP SWAP1 JUMP JUMPDEST PUSH1 0x0 PUSH8 0xFFFFFFFFFFFFFFFF DUP3 GT ISZERO PUSH2 0xB93 JUMPI PUSH2 0xB92 PUSH2 0xE06 JUMP JUMPDEST JUMPDEST PUSH2 0xB9C DUP3 PUSH2 0xE49 JUMP JUMPDEST SWAP1 POP PUSH1 0x20 DUP2 ADD SWAP1 POP SWAP2 SWAP1 POP JUMP JUMPDEST PUSH1 0x0 DUP2 SWAP1 POP PUSH1 0x20 DUP3 ADD SWAP1 POP SWAP2 SWAP1 POP JUMP JUMPDEST PUSH1 0x0 DUP2 SWAP1 POP PUSH1 0x20 DUP3 ADD SWAP1 POP SWAP2 SWAP1 POP JUMP JUMPDEST PUSH1 0x0 DUP2 SWAP1 POP PUSH1 0x20 DUP3 ADD SWAP1 POP SWAP2 SWAP1 POP JUMP JUMPDEST PUSH1 0x0 DUP2 MLOAD SWAP1 POP SWAP2 SWAP1 POP JUMP JUMPDEST PUSH1 0x0 DUP2 MLOAD SWAP1 POP SWAP2 SWAP1 POP JUMP JUMPDEST PUSH1 0x0 DUP2 MLOAD SWAP1 POP SWAP2 SWAP1 POP JUMP JUMPDEST PUSH1 0x0 DUP2 MLOAD SWAP1 POP SWAP2 SWAP1 POP JUMP JUMPDEST PUSH1 0x0 PUSH1 0x20 DUP3 ADD SWAP1 POP SWAP2 SWAP1 POP JUMP JUMPDEST PUSH1 0x0 PUSH1 0x20 DUP3 ADD SWAP1 POP SWAP2 SWAP1 POP JUMP JUMPDEST PUSH1 0x0 PUSH1 0x20 DUP3 ADD SWAP1 POP SWAP2 SWAP1 POP JUMP JUMPDEST PUSH1 0x0 DUP3 DUP3 MSTORE PUSH1 0x20 DUP3 ADD SWAP1 POP SWAP3 SWAP2 POP POP JUMP JUMPDEST PUSH1 0x0 DUP3 DUP3 MSTORE PUSH1 0x20 DUP3 ADD SWAP1 POP SWAP3 SWAP2 POP POP JUMP JUMPDEST PUSH1 0x0 DUP3 DUP3 MSTORE PUSH1 0x20 DUP3 ADD SWAP1 POP SWAP3 SWAP2 POP POP JUMP JUMPDEST PUSH1 0x0 DUP3 DUP3 MSTORE PUSH1 0x20 DUP3 ADD SWAP1 POP SWAP3 SWAP2 POP POP JUMP JUMPDEST PUSH1 0x0 DUP3 DUP3 MSTORE PUSH1 0x20 DUP3 ADD SWAP1 POP SWAP3 SWAP2 POP POP JUMP JUMPDEST PUSH1 0x0 DUP2 SWAP1 POP SWAP2 SWAP1 POP JUMP JUMPDEST DUP3 DUP2 DUP4 CALLDATACOPY PUSH1 0x0 DUP4 DUP4 ADD MSTORE POP POP POP JUMP JUMPDEST PUSH1 0x0 JUMPDEST DUP4 DUP2 LT ISZERO PUSH2 0xCB8 JUMPI DUP1 DUP3 ADD MLOAD DUP2 DUP5 ADD MSTORE PUSH1 0x20 DUP2 ADD SWAP1 POP PUSH2 0xC9D JUMP JUMPDEST DUP4 DUP2 GT ISZERO PUSH2 0xCC7 JUMPI PUSH1 0x0 DUP5 DUP5 ADD MSTORE JUMPDEST POP POP POP POP JUMP JUMPDEST PUSH1 0x0 PUSH1 0x2 DUP3 DIV SWAP1 POP PUSH1 0x1 DUP3 AND DUP1 PUSH2 0xCE5 JUMPI PUSH1 0x7F DUP3 AND SWAP2 POP JUMPDEST PUSH1 0x20 DUP3 LT DUP2 EQ ISZERO PUSH2 0xCF9 JUMPI PUSH2 0xCF8 PUSH2 0xDA8 JUMP JUMPDEST JUMPDEST POP SWAP2 SWAP1 POP JUMP JUMPDEST PUSH2 0xD08 DUP3 PUSH2 0xE49 JUMP JUMPDEST DUP2 ADD DUP2 DUP2 LT PUSH8 0xFFFFFFFFFFFFFFFF DUP3 GT OR ISZERO PUSH2 0xD27 JUMPI PUSH2 0xD26 PUSH2 0xE06 JUMP JUMPDEST JUMPDEST DUP1 PUSH1 0x40 MSTORE POP POP POP JUMP JUMPDEST PUSH1 0x0 PUSH2 0xD3B DUP3 PUSH2 0xC81 JUMP JUMPDEST SWAP2 POP PUSH32 0xFFFFFFFFFFFFFFFFFFFFFFFFFFFFFFFFFFFFFFFFFFFFFFFFFFFFFFFFFFFFFFFF DUP3 EQ ISZERO PUSH2 0xD6E JUMPI PUSH2 0xD6D PUSH2 0xD79 JUMP JUMPDEST JUMPDEST PUSH1 0x1 DUP3 ADD SWAP1 POP SWAP2 SWAP1 POP JUMP JUMPDEST PUSH32 0x4E487B7100000000000000000000000000000000000000000000000000000000 PUSH1 0x0 MSTORE PUSH1 0x11 PUSH1 0x4 MSTORE PUSH1 0x24 PUSH1 0x0 REVERT JUMPDEST PUSH32 0x4E487B7100000000000000000000000000000000000000000000000000000000 PUSH1 0x0 MSTORE PUSH1 0x22 PUSH1 0x4 MSTORE PUSH1 0x24 PUSH1 0x0 REVERT JUMPDEST PUSH32 0x4E487B7100000000000000000000000000000000000000000000000000000000 PUSH1 0x0 MSTORE PUSH1 0x32 PUSH1 0x4 MSTORE PUSH1 0x24 PUSH1 0x0 REVERT JUMPDEST PUSH32 0x4E487B7100000000000000000000000000000000000000000000000000000000 PUSH1 0x0 MSTORE PUSH1 0x41 PUSH1 0x4 MSTORE PUSH1 0x24 PUSH1 0x0 REVERT JUMPDEST PUSH1 0x0 DUP1 REVERT JUMPDEST PUSH1 0x0 DUP1 REVERT JUMPDEST PUSH1 0x0 DUP1 REVERT JUMPDEST PUSH1 0x0 DUP1 REVERT JUMPDEST PUSH1 0x0 PUSH1 0x1F NOT PUSH1 0x1F DUP4 ADD AND SWAP1 POP SWAP2 SWAP1 POP JUMP JUMPDEST PUSH2 0xE63 DUP2 PUSH2 0xC81 JUMP JUMPDEST DUP2 EQ PUSH2 0xE6E JUMPI PUSH1 0x0 DUP1 REVERT JUMPDEST POP JUMP INVALID LOG2 PUSH5 0x6970667358 0x22 SLT KECCAK256 0x29 ISZERO OR 0xD2 LOG3 DIFFICULTY 0xF9 SLT 0xCB SWAP5 CALLDATALOAD 0x25 0xB0 CODECOPY ADDMOD 0xC3 STATICCALL CALLCODE 0xAA 0xD8 0xDE SWAP2 PUSH24 0xB342A99D9721B220D964736F6C6343000807003300000000 "
				},
				"gasEstimates": {
					"creation": {
						"codeDepositCost": "750200",
						"executionCost": "5800",
						"totalCost": "756000"
					},
					"external": {
						"addType(string)": "infinite",
						"get(uint256)": "infinite",
						"getType()": "infinite",
						"getTypes()": "infinite",
						"typeCount()": "2429",
						"types(uint256)": "infinite"
					}
				},
				"methodIdentifiers": {
					"addType(string)": "e7f08e69",
					"get(uint256)": "9507d39a",
					"getType()": "15dae03e",
					"getTypes()": "b4579d60",
					"typeCount()": "602d7fe6",
					"types(uint256)": "cefbfa36"
				}
			},
			"storageLayout": {
				"storage": [
					{
						"astId": 12,
						"contract": "contracts/Patch.sol:Patch",
						"label": "types",
						"offset": 0,
						"slot": "0",
						"type": "t_mapping(t_uint256,t_struct(Type)7_storage)"
					},
					{
						"astId": 14,
						"contract": "contracts/Patch.sol:Patch",
						"label": "typeCount",
						"offset": 0,
						"slot": "1",
						"type": "t_uint256"
					}
				],
				"types": {
					"t_mapping(t_uint256,t_struct(Type)7_storage)": {
						"encoding": "mapping",
						"key": "t_uint256",
						"label": "mapping(uint256 => struct Patch.Type)",
						"numberOfBytes": "32",
						"value": "t_struct(Type)7_storage"
					},
					"t_string_storage": {
						"encoding": "bytes",
						"label": "string",
						"numberOfBytes": "32"
					},
					"t_struct(Type)7_storage": {
						"encoding": "inplace",
						"label": "struct Patch.Type",
						"members": [
							{
								"astId": 4,
								"contract": "contracts/Patch.sol:Patch",
								"label": "id",
								"offset": 0,
								"slot": "0",
								"type": "t_uint256"
							},
							{
								"astId": 6,
								"contract": "contracts/Patch.sol:Patch",
								"label": "name",
								"offset": 0,
								"slot": "1",
								"type": "t_string_storage"
							}
						],
						"numberOfBytes": "64"
					},
					"t_uint256": {
						"encoding": "inplace",
						"label": "uint256",
						"numberOfBytes": "32"
					}
				}
			},
			"userdoc": {
				"kind": "user",
				"methods": {},
				"version": 1
			}
		}
	}
}