{
	"contracts/Patch.sol": {
		"Patchs": {
			"abi": [
				{
					"inputs": [],
					"stateMutability": "nonpayable",
					"type": "constructor"
				},
				{
					"inputs": [
						{
							"internalType": "uint256",
							"name": "_drugid",
							"type": "uint256"
						},
						{
							"internalType": "uint256",
							"name": "_fullamount",
							"type": "uint256"
						},
						{
							"internalType": "uint256",
							"name": "_releasedate",
							"type": "uint256"
						}
					],
					"name": "addPatch",
					"outputs": [],
					"stateMutability": "nonpayable",
					"type": "function"
				},
				{
					"inputs": [
						{
							"internalType": "uint256",
							"name": "_patchid",
							"type": "uint256"
						}
					],
					"name": "get",
					"outputs": [
						{
							"components": [
								{
									"internalType": "uint256",
									"name": "PatchNo",
									"type": "uint256"
								},
								{
									"internalType": "uint256",
									"name": "DrugID",
									"type": "uint256"
								},
								{
									"internalType": "uint256",
									"name": "FullAmount",
									"type": "uint256"
								},
								{
									"internalType": "uint256",
									"name": "ReleaseDate",
									"type": "uint256"
								}
							],
							"internalType": "struct Patchs.Patch",
							"name": "",
							"type": "tuple"
						}
					],
					"stateMutability": "view",
					"type": "function"
				},
				{
					"inputs": [],
					"name": "getPatchs",
					"outputs": [
						{
							"components": [
								{
									"internalType": "uint256",
									"name": "PatchNo",
									"type": "uint256"
								},
								{
									"internalType": "uint256",
									"name": "DrugID",
									"type": "uint256"
								},
								{
									"internalType": "uint256",
									"name": "FullAmount",
									"type": "uint256"
								},
								{
									"internalType": "uint256",
									"name": "ReleaseDate",
									"type": "uint256"
								}
							],
							"internalType": "struct Patchs.Patch[]",
							"name": "",
							"type": "tuple[]"
						}
					],
					"stateMutability": "view",
					"type": "function"
				},
				{
					"inputs": [],
					"name": "getType",
					"outputs": [
						{
							"internalType": "uint256[]",
							"name": "",
							"type": "uint256[]"
						},
						{
							"internalType": "uint256[]",
							"name": "",
							"type": "uint256[]"
						},
						{
							"internalType": "uint256[]",
							"name": "",
							"type": "uint256[]"
						},
						{
							"internalType": "uint256[]",
							"name": "",
							"type": "uint256[]"
						}
					],
					"stateMutability": "view",
					"type": "function"
				},
				{
					"inputs": [
						{
							"internalType": "uint256",
							"name": "",
							"type": "uint256"
						}
					],
					"name": "patchs",
					"outputs": [
						{
							"internalType": "uint256",
							"name": "PatchNo",
							"type": "uint256"
						},
						{
							"internalType": "uint256",
							"name": "DrugID",
							"type": "uint256"
						},
						{
							"internalType": "uint256",
							"name": "FullAmount",
							"type": "uint256"
						},
						{
							"internalType": "uint256",
							"name": "ReleaseDate",
							"type": "uint256"
						}
					],
					"stateMutability": "view",
					"type": "function"
				},
				{
					"inputs": [],
					"name": "patchsCount",
					"outputs": [
						{
							"internalType": "uint256",
							"name": "",
							"type": "uint256"
						}
					],
					"stateMutability": "view",
					"type": "function"
				}
			],
			"devdoc": {
				"kind": "dev",
				"methods": {},
				"version": 1
			},
			"evm": {
				"assembly": "    /* \"contracts/Patch.sol\":97:1729  contract Patchs {\r... */\n  mstore(0x40, 0x80)\n    /* \"contracts/Patch.sol\":344:387  constructor()  {\r... */\n  callvalue\n  dup1\n  iszero\n  tag_1\n  jumpi\n  0x00\n  dup1\n  revert\ntag_1:\n  pop\n    /* \"contracts/Patch.sol\":380:381  0 */\n  0x00\n    /* \"contracts/Patch.sol\":366:377  patchsCount */\n  0x01\n    /* \"contracts/Patch.sol\":366:381  patchsCount = 0 */\n  dup2\n  swap1\n  sstore\n  pop\n    /* \"contracts/Patch.sol\":97:1729  contract Patchs {\r... */\n  dataSize(sub_0)\n  dup1\n  dataOffset(sub_0)\n  0x00\n  codecopy\n  0x00\n  return\nstop\n\nsub_0: assembly {\n        /* \"contracts/Patch.sol\":97:1729  contract Patchs {\r... */\n      mstore(0x40, 0x80)\n      callvalue\n      dup1\n      iszero\n      tag_1\n      jumpi\n      0x00\n      dup1\n      revert\n    tag_1:\n      pop\n      jumpi(tag_2, lt(calldatasize, 0x04))\n      shr(0xe0, calldataload(0x00))\n      dup1\n      0x15dae03e\n      eq\n      tag_3\n      jumpi\n      dup1\n      0x575dbe91\n      eq\n      tag_4\n      jumpi\n      dup1\n      0x8ff6d5d6\n      eq\n      tag_5\n      jumpi\n      dup1\n      0x9507d39a\n      eq\n      tag_6\n      jumpi\n      dup1\n      0x9e5ca46f\n      eq\n      tag_7\n      jumpi\n      dup1\n      0xdd3802f6\n      eq\n      tag_8\n      jumpi\n    tag_2:\n      0x00\n      dup1\n      revert\n        /* \"contracts/Patch.sol\":747:1427  function getType() public view returns (uint[] memory, uint[] memory, uint[] memory, uint[] memory){\r... */\n    tag_3:\n      tag_9\n      tag_10\n      jump\t// in\n    tag_9:\n      mload(0x40)\n      tag_11\n      swap5\n      swap4\n      swap3\n      swap2\n      swap1\n      tag_12\n      jump\t// in\n    tag_11:\n      mload(0x40)\n      dup1\n      swap2\n      sub\n      swap1\n      return\n        /* \"contracts/Patch.sol\":222:259  mapping (uint => Patch) public patchs */\n    tag_4:\n      tag_13\n      0x04\n      dup1\n      calldatasize\n      sub\n      dup2\n      add\n      swap1\n      tag_14\n      swap2\n      swap1\n      tag_15\n      jump\t// in\n    tag_14:\n      tag_16\n      jump\t// in\n    tag_13:\n      mload(0x40)\n      tag_17\n      swap5\n      swap4\n      swap3\n      swap2\n      swap1\n      tag_18\n      jump\t// in\n    tag_17:\n      mload(0x40)\n      dup1\n      swap2\n      sub\n      swap1\n      return\n        /* \"contracts/Patch.sol\":391:575  function addPatch(uint _drugid, uint _fullamount, uint _releasedate) public {\r... */\n    tag_5:\n      tag_19\n      0x04\n      dup1\n      calldatasize\n      sub\n      dup2\n      add\n      swap1\n      tag_20\n      swap2\n      swap1\n      tag_21\n      jump\t// in\n    tag_20:\n      tag_22\n      jump\t// in\n    tag_19:\n      stop\n        /* \"contracts/Patch.sol\":608:706  function get(uint _patchid) public view returns(Patch memory) {\r... */\n    tag_6:\n      tag_23\n      0x04\n      dup1\n      calldatasize\n      sub\n      dup2\n      add\n      swap1\n      tag_24\n      swap2\n      swap1\n      tag_15\n      jump\t// in\n    tag_24:\n      tag_25\n      jump\t// in\n    tag_23:\n      mload(0x40)\n      tag_26\n      swap2\n      swap1\n      tag_27\n      jump\t// in\n    tag_26:\n      mload(0x40)\n      dup1\n      swap2\n      sub\n      swap1\n      return\n        /* \"contracts/Patch.sol\":314:337  uint public patchsCount */\n    tag_7:\n      tag_28\n      tag_29\n      jump\t// in\n    tag_28:\n      mload(0x40)\n      tag_30\n      swap2\n      swap1\n      tag_31\n      jump\t// in\n    tag_30:\n      mload(0x40)\n      dup1\n      swap2\n      sub\n      swap1\n      return\n        /* \"contracts/Patch.sol\":1462:1726  function getPatchs() public view returns (Patch[] memory){\r... */\n    tag_8:\n      tag_32\n      tag_33\n      jump\t// in\n    tag_32:\n      mload(0x40)\n      tag_34\n      swap2\n      swap1\n      tag_35\n      jump\t// in\n    tag_34:\n      mload(0x40)\n      dup1\n      swap2\n      sub\n      swap1\n      return\n        /* \"contracts/Patch.sol\":747:1427  function getType() public view returns (uint[] memory, uint[] memory, uint[] memory, uint[] memory){\r... */\n    tag_10:\n        /* \"contracts/Patch.sol\":787:800  uint[] memory */\n      0x60\n        /* \"contracts/Patch.sol\":802:815  uint[] memory */\n      dup1\n        /* \"contracts/Patch.sol\":817:830  uint[] memory */\n      0x60\n        /* \"contracts/Patch.sol\":832:845  uint[] memory */\n      dup1\n        /* \"contracts/Patch.sol\":855:877  uint[]  memory patchno */\n      0x00\n        /* \"contracts/Patch.sol\":891:902  patchsCount */\n      sload(0x01)\n        /* \"contracts/Patch.sol\":880:903  new uint[](patchsCount) */\n      0xffffffffffffffff\n      dup2\n      gt\n      iszero\n      tag_37\n      jumpi\n      tag_38\n      tag_39\n      jump\t// in\n    tag_38:\n    tag_37:\n      mload(0x40)\n      swap1\n      dup1\n      dup3\n      mstore\n      dup1\n      0x20\n      mul\n      0x20\n      add\n      dup3\n      add\n      0x40\n      mstore\n      dup1\n      iszero\n      tag_40\n      jumpi\n      dup2\n      0x20\n      add\n      0x20\n      dup3\n      mul\n      dup1\n      calldatasize\n      dup4\n      calldatacopy\n      dup1\n      dup3\n      add\n      swap2\n      pop\n      pop\n      swap1\n      pop\n    tag_40:\n      pop\n        /* \"contracts/Patch.sol\":855:903  uint[]  memory patchno = new uint[](patchsCount) */\n      swap1\n      pop\n        /* \"contracts/Patch.sol\":912:933  uint[]  memory drugid */\n      0x00\n        /* \"contracts/Patch.sol\":947:958  patchsCount */\n      sload(0x01)\n        /* \"contracts/Patch.sol\":936:959  new uint[](patchsCount) */\n      0xffffffffffffffff\n      dup2\n      gt\n      iszero\n      tag_41\n      jumpi\n      tag_42\n      tag_39\n      jump\t// in\n    tag_42:\n    tag_41:\n      mload(0x40)\n      swap1\n      dup1\n      dup3\n      mstore\n      dup1\n      0x20\n      mul\n      0x20\n      add\n      dup3\n      add\n      0x40\n      mstore\n      dup1\n      iszero\n      tag_43\n      jumpi\n      dup2\n      0x20\n      add\n      0x20\n      dup3\n      mul\n      dup1\n      calldatasize\n      dup4\n      calldatacopy\n      dup1\n      dup3\n      add\n      swap2\n      pop\n      pop\n      swap1\n      pop\n    tag_43:\n      pop\n        /* \"contracts/Patch.sol\":912:959  uint[]  memory drugid = new uint[](patchsCount) */\n      swap1\n      pop\n        /* \"contracts/Patch.sol\":968:993  uint[]  memory fullamount */\n      0x00\n        /* \"contracts/Patch.sol\":1007:1018  patchsCount */\n      sload(0x01)\n        /* \"contracts/Patch.sol\":996:1019  new uint[](patchsCount) */\n      0xffffffffffffffff\n      dup2\n      gt\n      iszero\n      tag_44\n      jumpi\n      tag_45\n      tag_39\n      jump\t// in\n    tag_45:\n    tag_44:\n      mload(0x40)\n      swap1\n      dup1\n      dup3\n      mstore\n      dup1\n      0x20\n      mul\n      0x20\n      add\n      dup3\n      add\n      0x40\n      mstore\n      dup1\n      iszero\n      tag_46\n      jumpi\n      dup2\n      0x20\n      add\n      0x20\n      dup3\n      mul\n      dup1\n      calldatasize\n      dup4\n      calldatacopy\n      dup1\n      dup3\n      add\n      swap2\n      pop\n      pop\n      swap1\n      pop\n    tag_46:\n      pop\n        /* \"contracts/Patch.sol\":968:1019  uint[]  memory fullamount = new uint[](patchsCount) */\n      swap1\n      pop\n        /* \"contracts/Patch.sol\":1028:1054  uint[]  memory releasedate */\n      0x00\n        /* \"contracts/Patch.sol\":1068:1079  patchsCount */\n      sload(0x01)\n        /* \"contracts/Patch.sol\":1057:1080  new uint[](patchsCount) */\n      0xffffffffffffffff\n      dup2\n      gt\n      iszero\n      tag_47\n      jumpi\n      tag_48\n      tag_39\n      jump\t// in\n    tag_48:\n    tag_47:\n      mload(0x40)\n      swap1\n      dup1\n      dup3\n      mstore\n      dup1\n      0x20\n      mul\n      0x20\n      add\n      dup3\n      add\n      0x40\n      mstore\n      dup1\n      iszero\n      tag_49\n      jumpi\n      dup2\n      0x20\n      add\n      0x20\n      dup3\n      mul\n      dup1\n      calldatasize\n      dup4\n      calldatacopy\n      dup1\n      dup3\n      add\n      swap2\n      pop\n      pop\n      swap1\n      pop\n    tag_49:\n      pop\n        /* \"contracts/Patch.sol\":1028:1080  uint[]  memory releasedate = new uint[](patchsCount) */\n      swap1\n      pop\n        /* \"contracts/Patch.sol\":1102:1108  uint i */\n      0x00\n        /* \"contracts/Patch.sol\":1097:1360  for (uint i = 0; i < patchsCount; i++) {\r... */\n    tag_50:\n        /* \"contracts/Patch.sol\":1118:1129  patchsCount */\n      sload(0x01)\n        /* \"contracts/Patch.sol\":1114:1115  i */\n      dup2\n        /* \"contracts/Patch.sol\":1114:1129  i < patchsCount */\n      lt\n        /* \"contracts/Patch.sol\":1097:1360  for (uint i = 0; i < patchsCount; i++) {\r... */\n      iszero\n      tag_51\n      jumpi\n        /* \"contracts/Patch.sol\":1149:1168  Patch storage patch */\n      0x00\n        /* \"contracts/Patch.sol\":1171:1177  patchs */\n      dup1\n        /* \"contracts/Patch.sol\":1171:1180  patchs[i] */\n      0x00\n        /* \"contracts/Patch.sol\":1178:1179  i */\n      dup4\n        /* \"contracts/Patch.sol\":1171:1180  patchs[i] */\n      dup2\n      mstore\n      0x20\n      add\n      swap1\n      dup2\n      mstore\n      0x20\n      add\n      0x00\n      keccak256\n        /* \"contracts/Patch.sol\":1149:1180  Patch storage patch = patchs[i] */\n      swap1\n      pop\n        /* \"contracts/Patch.sol\":1206:1211  patch */\n      dup1\n        /* \"contracts/Patch.sol\":1206:1219  patch.PatchNo */\n      0x00\n      add\n      sload\n        /* \"contracts/Patch.sol\":1193:1200  patchno */\n      dup7\n        /* \"contracts/Patch.sol\":1201:1202  i */\n      dup4\n        /* \"contracts/Patch.sol\":1193:1203  patchno[i] */\n      dup2\n      mload\n      dup2\n      lt\n      tag_53\n      jumpi\n      tag_54\n      tag_55\n      jump\t// in\n    tag_54:\n    tag_53:\n      0x20\n      mul\n      0x20\n      add\n      add\n        /* \"contracts/Patch.sol\":1193:1219  patchno[i] = patch.PatchNo */\n      dup2\n      dup2\n      mstore\n      pop\n      pop\n        /* \"contracts/Patch.sol\":1244:1249  patch */\n      dup1\n        /* \"contracts/Patch.sol\":1244:1256  patch.DrugID */\n      0x01\n      add\n      sload\n        /* \"contracts/Patch.sol\":1232:1238  drugid */\n      dup6\n        /* \"contracts/Patch.sol\":1239:1240  i */\n      dup4\n        /* \"contracts/Patch.sol\":1232:1241  drugid[i] */\n      dup2\n      mload\n      dup2\n      lt\n      tag_56\n      jumpi\n      tag_57\n      tag_55\n      jump\t// in\n    tag_57:\n    tag_56:\n      0x20\n      mul\n      0x20\n      add\n      add\n        /* \"contracts/Patch.sol\":1232:1256  drugid[i] = patch.DrugID */\n      dup2\n      dup2\n      mstore\n      pop\n      pop\n        /* \"contracts/Patch.sol\":1285:1290  patch */\n      dup1\n        /* \"contracts/Patch.sol\":1285:1301  patch.FullAmount */\n      0x02\n      add\n      sload\n        /* \"contracts/Patch.sol\":1269:1279  fullamount */\n      dup5\n        /* \"contracts/Patch.sol\":1280:1281  i */\n      dup4\n        /* \"contracts/Patch.sol\":1269:1282  fullamount[i] */\n      dup2\n      mload\n      dup2\n      lt\n      tag_58\n      jumpi\n      tag_59\n      tag_55\n      jump\t// in\n    tag_59:\n    tag_58:\n      0x20\n      mul\n      0x20\n      add\n      add\n        /* \"contracts/Patch.sol\":1269:1301  fullamount[i] = patch.FullAmount */\n      dup2\n      dup2\n      mstore\n      pop\n      pop\n        /* \"contracts/Patch.sol\":1331:1336  patch */\n      dup1\n        /* \"contracts/Patch.sol\":1331:1348  patch.ReleaseDate */\n      0x03\n      add\n      sload\n        /* \"contracts/Patch.sol\":1314:1325  releasedate */\n      dup4\n        /* \"contracts/Patch.sol\":1326:1327  i */\n      dup4\n        /* \"contracts/Patch.sol\":1314:1328  releasedate[i] */\n      dup2\n      mload\n      dup2\n      lt\n      tag_60\n      jumpi\n      tag_61\n      tag_55\n      jump\t// in\n    tag_61:\n    tag_60:\n      0x20\n      mul\n      0x20\n      add\n      add\n        /* \"contracts/Patch.sol\":1314:1348  releasedate[i] = patch.ReleaseDate */\n      dup2\n      dup2\n      mstore\n      pop\n      pop\n        /* \"contracts/Patch.sol\":1136:1360  {\r... */\n      pop\n        /* \"contracts/Patch.sol\":1131:1134  i++ */\n      dup1\n      dup1\n      tag_62\n      swap1\n      tag_63\n      jump\t// in\n    tag_62:\n      swap2\n      pop\n      pop\n        /* \"contracts/Patch.sol\":1097:1360  for (uint i = 0; i < patchsCount; i++) {\r... */\n      jump(tag_50)\n    tag_51:\n      pop\n        /* \"contracts/Patch.sol\":1378:1385  patchno */\n      dup4\n        /* \"contracts/Patch.sol\":1387:1393  drugid */\n      dup4\n        /* \"contracts/Patch.sol\":1395:1405  fullamount */\n      dup4\n        /* \"contracts/Patch.sol\":1407:1418  releasedate */\n      dup4\n        /* \"contracts/Patch.sol\":1370:1419  return (patchno, drugid, fullamount, releasedate) */\n      swap8\n      pop\n      swap8\n      pop\n      swap8\n      pop\n      swap8\n      pop\n      pop\n      pop\n      pop\n      pop\n        /* \"contracts/Patch.sol\":747:1427  function getType() public view returns (uint[] memory, uint[] memory, uint[] memory, uint[] memory){\r... */\n      swap1\n      swap2\n      swap3\n      swap4\n      jump\t// out\n        /* \"contracts/Patch.sol\":222:259  mapping (uint => Patch) public patchs */\n    tag_16:\n      mstore(0x20, 0x00)\n      dup1\n      0x00\n      mstore\n      keccak256(0x00, 0x40)\n      0x00\n      swap2\n      pop\n      swap1\n      pop\n      dup1\n      0x00\n      add\n      sload\n      swap1\n      dup1\n      0x01\n      add\n      sload\n      swap1\n      dup1\n      0x02\n      add\n      sload\n      swap1\n      dup1\n      0x03\n      add\n      sload\n      swap1\n      pop\n      dup5\n      jump\t// out\n        /* \"contracts/Patch.sol\":391:575  function addPatch(uint _drugid, uint _fullamount, uint _releasedate) public {\r... */\n    tag_22:\n        /* \"contracts/Patch.sol\":496:549  Patch(patchsCount,_drugid, _fullamount, _releasedate) */\n      mload(0x40)\n      dup1\n      0x80\n      add\n      0x40\n      mstore\n      dup1\n        /* \"contracts/Patch.sol\":502:513  patchsCount */\n      sload(0x01)\n        /* \"contracts/Patch.sol\":496:549  Patch(patchsCount,_drugid, _fullamount, _releasedate) */\n      dup2\n      mstore\n      0x20\n      add\n        /* \"contracts/Patch.sol\":514:521  _drugid */\n      dup5\n        /* \"contracts/Patch.sol\":496:549  Patch(patchsCount,_drugid, _fullamount, _releasedate) */\n      dup2\n      mstore\n      0x20\n      add\n        /* \"contracts/Patch.sol\":523:534  _fullamount */\n      dup4\n        /* \"contracts/Patch.sol\":496:549  Patch(patchsCount,_drugid, _fullamount, _releasedate) */\n      dup2\n      mstore\n      0x20\n      add\n        /* \"contracts/Patch.sol\":536:548  _releasedate */\n      dup3\n        /* \"contracts/Patch.sol\":496:549  Patch(patchsCount,_drugid, _fullamount, _releasedate) */\n      dup2\n      mstore\n      pop\n        /* \"contracts/Patch.sol\":474:480  patchs */\n      0x00\n        /* \"contracts/Patch.sol\":474:493  patchs[patchsCount] */\n      dup1\n        /* \"contracts/Patch.sol\":481:492  patchsCount */\n      sload(0x01)\n        /* \"contracts/Patch.sol\":474:493  patchs[patchsCount] */\n      dup2\n      mstore\n      0x20\n      add\n      swap1\n      dup2\n      mstore\n      0x20\n      add\n      0x00\n      keccak256\n        /* \"contracts/Patch.sol\":474:549  patchs[patchsCount] = Patch(patchsCount,_drugid, _fullamount, _releasedate) */\n      0x00\n      dup3\n      add\n      mload\n      dup2\n      0x00\n      add\n      sstore\n      0x20\n      dup3\n      add\n      mload\n      dup2\n      0x01\n      add\n      sstore\n      0x40\n      dup3\n      add\n      mload\n      dup2\n      0x02\n      add\n      sstore\n      0x60\n      dup3\n      add\n      mload\n      dup2\n      0x03\n      add\n      sstore\n      swap1\n      pop\n      pop\n        /* \"contracts/Patch.sol\":556:567  patchsCount */\n      0x01\n      0x00\n        /* \"contracts/Patch.sol\":556:569  patchsCount++ */\n      dup2\n      sload\n      dup1\n      swap3\n      swap2\n      swap1\n      tag_65\n      swap1\n      tag_63\n      jump\t// in\n    tag_65:\n      swap2\n      swap1\n      pop\n      sstore\n      pop\n        /* \"contracts/Patch.sol\":391:575  function addPatch(uint _drugid, uint _fullamount, uint _releasedate) public {\r... */\n      pop\n      pop\n      pop\n      jump\t// out\n        /* \"contracts/Patch.sol\":608:706  function get(uint _patchid) public view returns(Patch memory) {\r... */\n    tag_25:\n        /* \"contracts/Patch.sol\":656:668  Patch memory */\n      tag_66\n      tag_67\n      jump\t// in\n    tag_66:\n        /* \"contracts/Patch.sol\":684:690  patchs */\n      0x00\n        /* \"contracts/Patch.sol\":684:700  patchs[_patchid] */\n      dup1\n        /* \"contracts/Patch.sol\":691:699  _patchid */\n      dup4\n        /* \"contracts/Patch.sol\":684:700  patchs[_patchid] */\n      dup2\n      mstore\n      0x20\n      add\n      swap1\n      dup2\n      mstore\n      0x20\n      add\n      0x00\n      keccak256\n        /* \"contracts/Patch.sol\":677:700  return patchs[_patchid] */\n      mload(0x40)\n      dup1\n      0x80\n      add\n      0x40\n      mstore\n      swap1\n      dup2\n      0x00\n      dup3\n      add\n      sload\n      dup2\n      mstore\n      0x20\n      add\n      0x01\n      dup3\n      add\n      sload\n      dup2\n      mstore\n      0x20\n      add\n      0x02\n      dup3\n      add\n      sload\n      dup2\n      mstore\n      0x20\n      add\n      0x03\n      dup3\n      add\n      sload\n      dup2\n      mstore\n      pop\n      pop\n      swap1\n      pop\n        /* \"contracts/Patch.sol\":608:706  function get(uint _patchid) public view returns(Patch memory) {\r... */\n      swap2\n      swap1\n      pop\n      jump\t// out\n        /* \"contracts/Patch.sol\":314:337  uint public patchsCount */\n    tag_29:\n      sload(0x01)\n      dup2\n      jump\t// out\n        /* \"contracts/Patch.sol\":1462:1726  function getPatchs() public view returns (Patch[] memory){\r... */\n    tag_33:\n        /* \"contracts/Patch.sol\":1504:1518  Patch[] memory */\n      0x60\n        /* \"contracts/Patch.sol\":1528:1548  Patch[]    memory id */\n      0x00\n        /* \"contracts/Patch.sol\":1563:1574  patchsCount */\n      sload(0x01)\n        /* \"contracts/Patch.sol\":1551:1575  new Patch[](patchsCount) */\n      0xffffffffffffffff\n      dup2\n      gt\n      iszero\n      tag_70\n      jumpi\n      tag_71\n      tag_39\n      jump\t// in\n    tag_71:\n    tag_70:\n      mload(0x40)\n      swap1\n      dup1\n      dup3\n      mstore\n      dup1\n      0x20\n      mul\n      0x20\n      add\n      dup3\n      add\n      0x40\n      mstore\n      dup1\n      iszero\n      tag_72\n      jumpi\n      dup2\n      0x20\n      add\n    tag_73:\n      tag_74\n      tag_67\n      jump\t// in\n    tag_74:\n      dup2\n      mstore\n      0x20\n      add\n      swap1\n      0x01\n      swap1\n      sub\n      swap1\n      dup2\n      tag_73\n      jumpi\n      swap1\n      pop\n    tag_72:\n      pop\n        /* \"contracts/Patch.sol\":1528:1575  Patch[]    memory id = new Patch[](patchsCount) */\n      swap1\n      pop\n        /* \"contracts/Patch.sol\":1589:1595  uint i */\n      0x00\n        /* \"contracts/Patch.sol\":1584:1703  for (uint i = 0; i < patchsCount; i++) {\r... */\n    tag_75:\n        /* \"contracts/Patch.sol\":1605:1616  patchsCount */\n      sload(0x01)\n        /* \"contracts/Patch.sol\":1601:1602  i */\n      dup2\n        /* \"contracts/Patch.sol\":1601:1616  i < patchsCount */\n      lt\n        /* \"contracts/Patch.sol\":1584:1703  for (uint i = 0; i < patchsCount; i++) {\r... */\n      iszero\n      tag_76\n      jumpi\n        /* \"contracts/Patch.sol\":1636:1655  Patch storage patch */\n      0x00\n        /* \"contracts/Patch.sol\":1658:1664  patchs */\n      dup1\n        /* \"contracts/Patch.sol\":1658:1667  patchs[i] */\n      0x00\n        /* \"contracts/Patch.sol\":1665:1666  i */\n      dup4\n        /* \"contracts/Patch.sol\":1658:1667  patchs[i] */\n      dup2\n      mstore\n      0x20\n      add\n      swap1\n      dup2\n      mstore\n      0x20\n      add\n      0x00\n      keccak256\n        /* \"contracts/Patch.sol\":1636:1667  Patch storage patch = patchs[i] */\n      swap1\n      pop\n        /* \"contracts/Patch.sol\":1688:1693  patch */\n      dup1\n        /* \"contracts/Patch.sol\":1680:1693  id[i] = patch */\n      mload(0x40)\n      dup1\n      0x80\n      add\n      0x40\n      mstore\n      swap1\n      dup2\n      0x00\n      dup3\n      add\n      sload\n      dup2\n      mstore\n      0x20\n      add\n      0x01\n      dup3\n      add\n      sload\n      dup2\n      mstore\n      0x20\n      add\n      0x02\n      dup3\n      add\n      sload\n      dup2\n      mstore\n      0x20\n      add\n      0x03\n      dup3\n      add\n      sload\n      dup2\n      mstore\n      pop\n      pop\n        /* \"contracts/Patch.sol\":1680:1682  id */\n      dup4\n        /* \"contracts/Patch.sol\":1683:1684  i */\n      dup4\n        /* \"contracts/Patch.sol\":1680:1685  id[i] */\n      dup2\n      mload\n      dup2\n      lt\n      tag_78\n      jumpi\n      tag_79\n      tag_55\n      jump\t// in\n    tag_79:\n    tag_78:\n      0x20\n      mul\n      0x20\n      add\n      add\n        /* \"contracts/Patch.sol\":1680:1693  id[i] = patch */\n      dup2\n      swap1\n      mstore\n      pop\n        /* \"contracts/Patch.sol\":1623:1703  {\r... */\n      pop\n        /* \"contracts/Patch.sol\":1618:1621  i++ */\n      dup1\n      dup1\n      tag_80\n      swap1\n      tag_63\n      jump\t// in\n    tag_80:\n      swap2\n      pop\n      pop\n        /* \"contracts/Patch.sol\":1584:1703  for (uint i = 0; i < patchsCount; i++) {\r... */\n      jump(tag_75)\n    tag_76:\n      pop\n        /* \"contracts/Patch.sol\":1718:1720  id */\n      dup1\n        /* \"contracts/Patch.sol\":1711:1720  return id */\n      swap2\n      pop\n      pop\n        /* \"contracts/Patch.sol\":1462:1726  function getPatchs() public view returns (Patch[] memory){\r... */\n      swap1\n      jump\t// out\n    tag_67:\n      mload(0x40)\n      dup1\n      0x80\n      add\n      0x40\n      mstore\n      dup1\n      0x00\n      dup2\n      mstore\n      0x20\n      add\n      0x00\n      dup2\n      mstore\n      0x20\n      add\n      0x00\n      dup2\n      mstore\n      0x20\n      add\n      0x00\n      dup2\n      mstore\n      pop\n      swap1\n      jump\t// out\n        /* \"#utility.yul\":7:146   */\n    tag_82:\n        /* \"#utility.yul\":53:58   */\n      0x00\n        /* \"#utility.yul\":91:97   */\n      dup2\n        /* \"#utility.yul\":78:98   */\n      calldataload\n        /* \"#utility.yul\":69:98   */\n      swap1\n      pop\n        /* \"#utility.yul\":107:140   */\n      tag_84\n        /* \"#utility.yul\":134:139   */\n      dup2\n        /* \"#utility.yul\":107:140   */\n      tag_85\n      jump\t// in\n    tag_84:\n        /* \"#utility.yul\":7:146   */\n      swap3\n      swap2\n      pop\n      pop\n      jump\t// out\n        /* \"#utility.yul\":152:481   */\n    tag_15:\n        /* \"#utility.yul\":211:217   */\n      0x00\n        /* \"#utility.yul\":260:262   */\n      0x20\n        /* \"#utility.yul\":248:257   */\n      dup3\n        /* \"#utility.yul\":239:246   */\n      dup5\n        /* \"#utility.yul\":235:258   */\n      sub\n        /* \"#utility.yul\":231:263   */\n      slt\n        /* \"#utility.yul\":228:347   */\n      iszero\n      tag_87\n      jumpi\n        /* \"#utility.yul\":266:345   */\n      tag_88\n      tag_89\n      jump\t// in\n    tag_88:\n        /* \"#utility.yul\":228:347   */\n    tag_87:\n        /* \"#utility.yul\":386:387   */\n      0x00\n        /* \"#utility.yul\":411:464   */\n      tag_90\n        /* \"#utility.yul\":456:463   */\n      dup5\n        /* \"#utility.yul\":447:453   */\n      dup3\n        /* \"#utility.yul\":436:445   */\n      dup6\n        /* \"#utility.yul\":432:454   */\n      add\n        /* \"#utility.yul\":411:464   */\n      tag_82\n      jump\t// in\n    tag_90:\n        /* \"#utility.yul\":401:464   */\n      swap2\n      pop\n        /* \"#utility.yul\":357:474   */\n      pop\n        /* \"#utility.yul\":152:481   */\n      swap3\n      swap2\n      pop\n      pop\n      jump\t// out\n        /* \"#utility.yul\":487:1106   */\n    tag_21:\n        /* \"#utility.yul\":564:570   */\n      0x00\n        /* \"#utility.yul\":572:578   */\n      dup1\n        /* \"#utility.yul\":580:586   */\n      0x00\n        /* \"#utility.yul\":629:631   */\n      0x60\n        /* \"#utility.yul\":617:626   */\n      dup5\n        /* \"#utility.yul\":608:615   */\n      dup7\n        /* \"#utility.yul\":604:627   */\n      sub\n        /* \"#utility.yul\":600:632   */\n      slt\n        /* \"#utility.yul\":597:716   */\n      iszero\n      tag_92\n      jumpi\n        /* \"#utility.yul\":635:714   */\n      tag_93\n      tag_89\n      jump\t// in\n    tag_93:\n        /* \"#utility.yul\":597:716   */\n    tag_92:\n        /* \"#utility.yul\":755:756   */\n      0x00\n        /* \"#utility.yul\":780:833   */\n      tag_94\n        /* \"#utility.yul\":825:832   */\n      dup7\n        /* \"#utility.yul\":816:822   */\n      dup3\n        /* \"#utility.yul\":805:814   */\n      dup8\n        /* \"#utility.yul\":801:823   */\n      add\n        /* \"#utility.yul\":780:833   */\n      tag_82\n      jump\t// in\n    tag_94:\n        /* \"#utility.yul\":770:833   */\n      swap4\n      pop\n        /* \"#utility.yul\":726:843   */\n      pop\n        /* \"#utility.yul\":882:884   */\n      0x20\n        /* \"#utility.yul\":908:961   */\n      tag_95\n        /* \"#utility.yul\":953:960   */\n      dup7\n        /* \"#utility.yul\":944:950   */\n      dup3\n        /* \"#utility.yul\":933:942   */\n      dup8\n        /* \"#utility.yul\":929:951   */\n      add\n        /* \"#utility.yul\":908:961   */\n      tag_82\n      jump\t// in\n    tag_95:\n        /* \"#utility.yul\":898:961   */\n      swap3\n      pop\n        /* \"#utility.yul\":853:971   */\n      pop\n        /* \"#utility.yul\":1010:1012   */\n      0x40\n        /* \"#utility.yul\":1036:1089   */\n      tag_96\n        /* \"#utility.yul\":1081:1088   */\n      dup7\n        /* \"#utility.yul\":1072:1078   */\n      dup3\n        /* \"#utility.yul\":1061:1070   */\n      dup8\n        /* \"#utility.yul\":1057:1079   */\n      add\n        /* \"#utility.yul\":1036:1089   */\n      tag_82\n      jump\t// in\n    tag_96:\n        /* \"#utility.yul\":1026:1089   */\n      swap2\n      pop\n        /* \"#utility.yul\":981:1099   */\n      pop\n        /* \"#utility.yul\":487:1106   */\n      swap3\n      pop\n      swap3\n      pop\n      swap3\n      jump\t// out\n        /* \"#utility.yul\":1112:1375   */\n    tag_97:\n        /* \"#utility.yul\":1223:1233   */\n      0x00\n        /* \"#utility.yul\":1244:1332   */\n      tag_99\n        /* \"#utility.yul\":1328:1331   */\n      dup4\n        /* \"#utility.yul\":1320:1326   */\n      dup4\n        /* \"#utility.yul\":1244:1332   */\n      tag_100\n      jump\t// in\n    tag_99:\n        /* \"#utility.yul\":1364:1368   */\n      0x80\n        /* \"#utility.yul\":1359:1362   */\n      dup4\n        /* \"#utility.yul\":1355:1369   */\n      add\n        /* \"#utility.yul\":1341:1369   */\n      swap1\n      pop\n        /* \"#utility.yul\":1112:1375   */\n      swap3\n      swap2\n      pop\n      pop\n      jump\t// out\n        /* \"#utility.yul\":1381:1560   */\n    tag_101:\n        /* \"#utility.yul\":1450:1460   */\n      0x00\n        /* \"#utility.yul\":1471:1517   */\n      tag_103\n        /* \"#utility.yul\":1513:1516   */\n      dup4\n        /* \"#utility.yul\":1505:1511   */\n      dup4\n        /* \"#utility.yul\":1471:1517   */\n      tag_104\n      jump\t// in\n    tag_103:\n        /* \"#utility.yul\":1549:1553   */\n      0x20\n        /* \"#utility.yul\":1544:1547   */\n      dup4\n        /* \"#utility.yul\":1540:1554   */\n      add\n        /* \"#utility.yul\":1526:1554   */\n      swap1\n      pop\n        /* \"#utility.yul\":1381:1560   */\n      swap3\n      swap2\n      pop\n      pop\n      jump\t// out\n        /* \"#utility.yul\":1620:2520   */\n    tag_105:\n        /* \"#utility.yul\":1781:1784   */\n      0x00\n        /* \"#utility.yul\":1810:1885   */\n      tag_107\n        /* \"#utility.yul\":1879:1884   */\n      dup3\n        /* \"#utility.yul\":1810:1885   */\n      tag_108\n      jump\t// in\n    tag_107:\n        /* \"#utility.yul\":1901:2008   */\n      tag_109\n        /* \"#utility.yul\":2001:2007   */\n      dup2\n        /* \"#utility.yul\":1996:1999   */\n      dup6\n        /* \"#utility.yul\":1901:2008   */\n      tag_110\n      jump\t// in\n    tag_109:\n        /* \"#utility.yul\":1894:2008   */\n      swap4\n      pop\n        /* \"#utility.yul\":2032:2109   */\n      tag_111\n        /* \"#utility.yul\":2103:2108   */\n      dup4\n        /* \"#utility.yul\":2032:2109   */\n      tag_112\n      jump\t// in\n    tag_111:\n        /* \"#utility.yul\":2132:2139   */\n      dup1\n        /* \"#utility.yul\":2163:2164   */\n      0x00\n        /* \"#utility.yul\":2148:2495   */\n    tag_113:\n        /* \"#utility.yul\":2173:2179   */\n      dup4\n        /* \"#utility.yul\":2170:2171   */\n      dup2\n        /* \"#utility.yul\":2167:2180   */\n      lt\n        /* \"#utility.yul\":2148:2495   */\n      iszero\n      tag_115\n      jumpi\n        /* \"#utility.yul\":2249:2255   */\n      dup2\n        /* \"#utility.yul\":2243:2256   */\n      mload\n        /* \"#utility.yul\":2276:2381   */\n      tag_116\n        /* \"#utility.yul\":2377:2380   */\n      dup9\n        /* \"#utility.yul\":2362:2375   */\n      dup3\n        /* \"#utility.yul\":2276:2381   */\n      tag_97\n      jump\t// in\n    tag_116:\n        /* \"#utility.yul\":2269:2381   */\n      swap8\n      pop\n        /* \"#utility.yul\":2404:2485   */\n      tag_117\n        /* \"#utility.yul\":2478:2484   */\n      dup4\n        /* \"#utility.yul\":2404:2485   */\n      tag_118\n      jump\t// in\n    tag_117:\n        /* \"#utility.yul\":2394:2485   */\n      swap3\n      pop\n        /* \"#utility.yul\":2208:2495   */\n      pop\n        /* \"#utility.yul\":2195:2196   */\n      0x01\n        /* \"#utility.yul\":2192:2193   */\n      dup2\n        /* \"#utility.yul\":2188:2197   */\n      add\n        /* \"#utility.yul\":2183:2197   */\n      swap1\n      pop\n        /* \"#utility.yul\":2148:2495   */\n      jump(tag_113)\n    tag_115:\n        /* \"#utility.yul\":2152:2166   */\n      pop\n        /* \"#utility.yul\":2511:2514   */\n      dup6\n        /* \"#utility.yul\":2504:2514   */\n      swap4\n      pop\n        /* \"#utility.yul\":1786:2520   */\n      pop\n      pop\n      pop\n        /* \"#utility.yul\":1620:2520   */\n      swap3\n      swap2\n      pop\n      pop\n      jump\t// out\n        /* \"#utility.yul\":2556:3288   */\n    tag_119:\n        /* \"#utility.yul\":2675:2678   */\n      0x00\n        /* \"#utility.yul\":2704:2758   */\n      tag_121\n        /* \"#utility.yul\":2752:2757   */\n      dup3\n        /* \"#utility.yul\":2704:2758   */\n      tag_122\n      jump\t// in\n    tag_121:\n        /* \"#utility.yul\":2774:2860   */\n      tag_123\n        /* \"#utility.yul\":2853:2859   */\n      dup2\n        /* \"#utility.yul\":2848:2851   */\n      dup6\n        /* \"#utility.yul\":2774:2860   */\n      tag_124\n      jump\t// in\n    tag_123:\n        /* \"#utility.yul\":2767:2860   */\n      swap4\n      pop\n        /* \"#utility.yul\":2884:2940   */\n      tag_125\n        /* \"#utility.yul\":2934:2939   */\n      dup4\n        /* \"#utility.yul\":2884:2940   */\n      tag_126\n      jump\t// in\n    tag_125:\n        /* \"#utility.yul\":2963:2970   */\n      dup1\n        /* \"#utility.yul\":2994:2995   */\n      0x00\n        /* \"#utility.yul\":2979:3263   */\n    tag_127:\n        /* \"#utility.yul\":3004:3010   */\n      dup4\n        /* \"#utility.yul\":3001:3002   */\n      dup2\n        /* \"#utility.yul\":2998:3011   */\n      lt\n        /* \"#utility.yul\":2979:3263   */\n      iszero\n      tag_129\n      jumpi\n        /* \"#utility.yul\":3080:3086   */\n      dup2\n        /* \"#utility.yul\":3074:3087   */\n      mload\n        /* \"#utility.yul\":3107:3170   */\n      tag_130\n        /* \"#utility.yul\":3166:3169   */\n      dup9\n        /* \"#utility.yul\":3151:3164   */\n      dup3\n        /* \"#utility.yul\":3107:3170   */\n      tag_101\n      jump\t// in\n    tag_130:\n        /* \"#utility.yul\":3100:3170   */\n      swap8\n      pop\n        /* \"#utility.yul\":3193:3253   */\n      tag_131\n        /* \"#utility.yul\":3246:3252   */\n      dup4\n        /* \"#utility.yul\":3193:3253   */\n      tag_132\n      jump\t// in\n    tag_131:\n        /* \"#utility.yul\":3183:3253   */\n      swap3\n      pop\n        /* \"#utility.yul\":3039:3263   */\n      pop\n        /* \"#utility.yul\":3026:3027   */\n      0x01\n        /* \"#utility.yul\":3023:3024   */\n      dup2\n        /* \"#utility.yul\":3019:3028   */\n      add\n        /* \"#utility.yul\":3014:3028   */\n      swap1\n      pop\n        /* \"#utility.yul\":2979:3263   */\n      jump(tag_127)\n    tag_129:\n        /* \"#utility.yul\":2983:2997   */\n      pop\n        /* \"#utility.yul\":3279:3282   */\n      dup6\n        /* \"#utility.yul\":3272:3282   */\n      swap4\n      pop\n        /* \"#utility.yul\":2680:3288   */\n      pop\n      pop\n      pop\n        /* \"#utility.yul\":2556:3288   */\n      swap3\n      swap2\n      pop\n      pop\n      jump\t// out\n        /* \"#utility.yul\":3344:4199   */\n    tag_100:\n        /* \"#utility.yul\":3473:3477   */\n      0x80\n        /* \"#utility.yul\":3468:3471   */\n      dup3\n        /* \"#utility.yul\":3464:3478   */\n      add\n        /* \"#utility.yul\":3563:3567   */\n      0x00\n        /* \"#utility.yul\":3556:3561   */\n      dup3\n        /* \"#utility.yul\":3552:3568   */\n      add\n        /* \"#utility.yul\":3546:3569   */\n      mload\n        /* \"#utility.yul\":3582:3645   */\n      tag_134\n        /* \"#utility.yul\":3639:3643   */\n      0x00\n        /* \"#utility.yul\":3634:3637   */\n      dup6\n        /* \"#utility.yul\":3630:3644   */\n      add\n        /* \"#utility.yul\":3616:3628   */\n      dup3\n        /* \"#utility.yul\":3582:3645   */\n      tag_104\n      jump\t// in\n    tag_134:\n        /* \"#utility.yul\":3488:3655   */\n      pop\n        /* \"#utility.yul\":3739:3743   */\n      0x20\n        /* \"#utility.yul\":3732:3737   */\n      dup3\n        /* \"#utility.yul\":3728:3744   */\n      add\n        /* \"#utility.yul\":3722:3745   */\n      mload\n        /* \"#utility.yul\":3758:3821   */\n      tag_135\n        /* \"#utility.yul\":3815:3819   */\n      0x20\n        /* \"#utility.yul\":3810:3813   */\n      dup6\n        /* \"#utility.yul\":3806:3820   */\n      add\n        /* \"#utility.yul\":3792:3804   */\n      dup3\n        /* \"#utility.yul\":3758:3821   */\n      tag_104\n      jump\t// in\n    tag_135:\n        /* \"#utility.yul\":3665:3831   */\n      pop\n        /* \"#utility.yul\":3919:3923   */\n      0x40\n        /* \"#utility.yul\":3912:3917   */\n      dup3\n        /* \"#utility.yul\":3908:3924   */\n      add\n        /* \"#utility.yul\":3902:3925   */\n      mload\n        /* \"#utility.yul\":3938:4001   */\n      tag_136\n        /* \"#utility.yul\":3995:3999   */\n      0x40\n        /* \"#utility.yul\":3990:3993   */\n      dup6\n        /* \"#utility.yul\":3986:4000   */\n      add\n        /* \"#utility.yul\":3972:3984   */\n      dup3\n        /* \"#utility.yul\":3938:4001   */\n      tag_104\n      jump\t// in\n    tag_136:\n        /* \"#utility.yul\":3841:4011   */\n      pop\n        /* \"#utility.yul\":4100:4104   */\n      0x60\n        /* \"#utility.yul\":4093:4098   */\n      dup3\n        /* \"#utility.yul\":4089:4105   */\n      add\n        /* \"#utility.yul\":4083:4106   */\n      mload\n        /* \"#utility.yul\":4119:4182   */\n      tag_137\n        /* \"#utility.yul\":4176:4180   */\n      0x60\n        /* \"#utility.yul\":4171:4174   */\n      dup6\n        /* \"#utility.yul\":4167:4181   */\n      add\n        /* \"#utility.yul\":4153:4165   */\n      dup3\n        /* \"#utility.yul\":4119:4182   */\n      tag_104\n      jump\t// in\n    tag_137:\n        /* \"#utility.yul\":4021:4192   */\n      pop\n        /* \"#utility.yul\":3442:4199   */\n      pop\n        /* \"#utility.yul\":3344:4199   */\n      pop\n      pop\n      jump\t// out\n        /* \"#utility.yul\":4255:5120   */\n    tag_138:\n        /* \"#utility.yul\":4394:4398   */\n      0x80\n        /* \"#utility.yul\":4389:4392   */\n      dup3\n        /* \"#utility.yul\":4385:4399   */\n      add\n        /* \"#utility.yul\":4484:4488   */\n      0x00\n        /* \"#utility.yul\":4477:4482   */\n      dup3\n        /* \"#utility.yul\":4473:4489   */\n      add\n        /* \"#utility.yul\":4467:4490   */\n      mload\n        /* \"#utility.yul\":4503:4566   */\n      tag_140\n        /* \"#utility.yul\":4560:4564   */\n      0x00\n        /* \"#utility.yul\":4555:4558   */\n      dup6\n        /* \"#utility.yul\":4551:4565   */\n      add\n        /* \"#utility.yul\":4537:4549   */\n      dup3\n        /* \"#utility.yul\":4503:4566   */\n      tag_104\n      jump\t// in\n    tag_140:\n        /* \"#utility.yul\":4409:4576   */\n      pop\n        /* \"#utility.yul\":4660:4664   */\n      0x20\n        /* \"#utility.yul\":4653:4658   */\n      dup3\n        /* \"#utility.yul\":4649:4665   */\n      add\n        /* \"#utility.yul\":4643:4666   */\n      mload\n        /* \"#utility.yul\":4679:4742   */\n      tag_141\n        /* \"#utility.yul\":4736:4740   */\n      0x20\n        /* \"#utility.yul\":4731:4734   */\n      dup6\n        /* \"#utility.yul\":4727:4741   */\n      add\n        /* \"#utility.yul\":4713:4725   */\n      dup3\n        /* \"#utility.yul\":4679:4742   */\n      tag_104\n      jump\t// in\n    tag_141:\n        /* \"#utility.yul\":4586:4752   */\n      pop\n        /* \"#utility.yul\":4840:4844   */\n      0x40\n        /* \"#utility.yul\":4833:4838   */\n      dup3\n        /* \"#utility.yul\":4829:4845   */\n      add\n        /* \"#utility.yul\":4823:4846   */\n      mload\n        /* \"#utility.yul\":4859:4922   */\n      tag_142\n        /* \"#utility.yul\":4916:4920   */\n      0x40\n        /* \"#utility.yul\":4911:4914   */\n      dup6\n        /* \"#utility.yul\":4907:4921   */\n      add\n        /* \"#utility.yul\":4893:4905   */\n      dup3\n        /* \"#utility.yul\":4859:4922   */\n      tag_104\n      jump\t// in\n    tag_142:\n        /* \"#utility.yul\":4762:4932   */\n      pop\n        /* \"#utility.yul\":5021:5025   */\n      0x60\n        /* \"#utility.yul\":5014:5019   */\n      dup3\n        /* \"#utility.yul\":5010:5026   */\n      add\n        /* \"#utility.yul\":5004:5027   */\n      mload\n        /* \"#utility.yul\":5040:5103   */\n      tag_143\n        /* \"#utility.yul\":5097:5101   */\n      0x60\n        /* \"#utility.yul\":5092:5095   */\n      dup6\n        /* \"#utility.yul\":5088:5102   */\n      add\n        /* \"#utility.yul\":5074:5086   */\n      dup3\n        /* \"#utility.yul\":5040:5103   */\n      tag_104\n      jump\t// in\n    tag_143:\n        /* \"#utility.yul\":4942:5113   */\n      pop\n        /* \"#utility.yul\":4363:5120   */\n      pop\n        /* \"#utility.yul\":4255:5120   */\n      pop\n      pop\n      jump\t// out\n        /* \"#utility.yul\":5126:5234   */\n    tag_104:\n        /* \"#utility.yul\":5203:5227   */\n      tag_145\n        /* \"#utility.yul\":5221:5226   */\n      dup2\n        /* \"#utility.yul\":5203:5227   */\n      tag_146\n      jump\t// in\n    tag_145:\n        /* \"#utility.yul\":5198:5201   */\n      dup3\n        /* \"#utility.yul\":5191:5228   */\n      mstore\n        /* \"#utility.yul\":5126:5234   */\n      pop\n      pop\n      jump\t// out\n        /* \"#utility.yul\":5240:5358   */\n    tag_147:\n        /* \"#utility.yul\":5327:5351   */\n      tag_149\n        /* \"#utility.yul\":5345:5350   */\n      dup2\n        /* \"#utility.yul\":5327:5351   */\n      tag_146\n      jump\t// in\n    tag_149:\n        /* \"#utility.yul\":5322:5325   */\n      dup3\n        /* \"#utility.yul\":5315:5352   */\n      mstore\n        /* \"#utility.yul\":5240:5358   */\n      pop\n      pop\n      jump\t// out\n        /* \"#utility.yul\":5364:5821   */\n    tag_35:\n        /* \"#utility.yul\":5549:5553   */\n      0x00\n        /* \"#utility.yul\":5587:5589   */\n      0x20\n        /* \"#utility.yul\":5576:5585   */\n      dup3\n        /* \"#utility.yul\":5572:5590   */\n      add\n        /* \"#utility.yul\":5564:5590   */\n      swap1\n      pop\n        /* \"#utility.yul\":5636:5645   */\n      dup2\n        /* \"#utility.yul\":5630:5634   */\n      dup2\n        /* \"#utility.yul\":5626:5646   */\n      sub\n        /* \"#utility.yul\":5622:5623   */\n      0x00\n        /* \"#utility.yul\":5611:5620   */\n      dup4\n        /* \"#utility.yul\":5607:5624   */\n      add\n        /* \"#utility.yul\":5600:5647   */\n      mstore\n        /* \"#utility.yul\":5664:5814   */\n      tag_151\n        /* \"#utility.yul\":5809:5813   */\n      dup2\n        /* \"#utility.yul\":5800:5806   */\n      dup5\n        /* \"#utility.yul\":5664:5814   */\n      tag_105\n      jump\t// in\n    tag_151:\n        /* \"#utility.yul\":5656:5814   */\n      swap1\n      pop\n        /* \"#utility.yul\":5364:5821   */\n      swap3\n      swap2\n      pop\n      pop\n      jump\t// out\n        /* \"#utility.yul\":5827:6984   */\n    tag_12:\n        /* \"#utility.yul\":6204:6208   */\n      0x00\n        /* \"#utility.yul\":6242:6245   */\n      0x80\n        /* \"#utility.yul\":6231:6240   */\n      dup3\n        /* \"#utility.yul\":6227:6246   */\n      add\n        /* \"#utility.yul\":6219:6246   */\n      swap1\n      pop\n        /* \"#utility.yul\":6292:6301   */\n      dup2\n        /* \"#utility.yul\":6286:6290   */\n      dup2\n        /* \"#utility.yul\":6282:6302   */\n      sub\n        /* \"#utility.yul\":6278:6279   */\n      0x00\n        /* \"#utility.yul\":6267:6276   */\n      dup4\n        /* \"#utility.yul\":6263:6280   */\n      add\n        /* \"#utility.yul\":6256:6303   */\n      mstore\n        /* \"#utility.yul\":6320:6428   */\n      tag_153\n        /* \"#utility.yul\":6423:6427   */\n      dup2\n        /* \"#utility.yul\":6414:6420   */\n      dup8\n        /* \"#utility.yul\":6320:6428   */\n      tag_119\n      jump\t// in\n    tag_153:\n        /* \"#utility.yul\":6312:6428   */\n      swap1\n      pop\n        /* \"#utility.yul\":6475:6484   */\n      dup2\n        /* \"#utility.yul\":6469:6473   */\n      dup2\n        /* \"#utility.yul\":6465:6485   */\n      sub\n        /* \"#utility.yul\":6460:6462   */\n      0x20\n        /* \"#utility.yul\":6449:6458   */\n      dup4\n        /* \"#utility.yul\":6445:6463   */\n      add\n        /* \"#utility.yul\":6438:6486   */\n      mstore\n        /* \"#utility.yul\":6503:6611   */\n      tag_154\n        /* \"#utility.yul\":6606:6610   */\n      dup2\n        /* \"#utility.yul\":6597:6603   */\n      dup7\n        /* \"#utility.yul\":6503:6611   */\n      tag_119\n      jump\t// in\n    tag_154:\n        /* \"#utility.yul\":6495:6611   */\n      swap1\n      pop\n        /* \"#utility.yul\":6658:6667   */\n      dup2\n        /* \"#utility.yul\":6652:6656   */\n      dup2\n        /* \"#utility.yul\":6648:6668   */\n      sub\n        /* \"#utility.yul\":6643:6645   */\n      0x40\n        /* \"#utility.yul\":6632:6641   */\n      dup4\n        /* \"#utility.yul\":6628:6646   */\n      add\n        /* \"#utility.yul\":6621:6669   */\n      mstore\n        /* \"#utility.yul\":6686:6794   */\n      tag_155\n        /* \"#utility.yul\":6789:6793   */\n      dup2\n        /* \"#utility.yul\":6780:6786   */\n      dup6\n        /* \"#utility.yul\":6686:6794   */\n      tag_119\n      jump\t// in\n    tag_155:\n        /* \"#utility.yul\":6678:6794   */\n      swap1\n      pop\n        /* \"#utility.yul\":6841:6850   */\n      dup2\n        /* \"#utility.yul\":6835:6839   */\n      dup2\n        /* \"#utility.yul\":6831:6851   */\n      sub\n        /* \"#utility.yul\":6826:6828   */\n      0x60\n        /* \"#utility.yul\":6815:6824   */\n      dup4\n        /* \"#utility.yul\":6811:6829   */\n      add\n        /* \"#utility.yul\":6804:6852   */\n      mstore\n        /* \"#utility.yul\":6869:6977   */\n      tag_156\n        /* \"#utility.yul\":6972:6976   */\n      dup2\n        /* \"#utility.yul\":6963:6969   */\n      dup5\n        /* \"#utility.yul\":6869:6977   */\n      tag_119\n      jump\t// in\n    tag_156:\n        /* \"#utility.yul\":6861:6977   */\n      swap1\n      pop\n        /* \"#utility.yul\":5827:6984   */\n      swap6\n      swap5\n      pop\n      pop\n      pop\n      pop\n      pop\n      jump\t// out\n        /* \"#utility.yul\":6990:7297   */\n    tag_27:\n        /* \"#utility.yul\":7125:7129   */\n      0x00\n        /* \"#utility.yul\":7163:7166   */\n      0x80\n        /* \"#utility.yul\":7152:7161   */\n      dup3\n        /* \"#utility.yul\":7148:7167   */\n      add\n        /* \"#utility.yul\":7140:7167   */\n      swap1\n      pop\n        /* \"#utility.yul\":7177:7290   */\n      tag_158\n        /* \"#utility.yul\":7287:7288   */\n      0x00\n        /* \"#utility.yul\":7276:7285   */\n      dup4\n        /* \"#utility.yul\":7272:7289   */\n      add\n        /* \"#utility.yul\":7263:7269   */\n      dup5\n        /* \"#utility.yul\":7177:7290   */\n      tag_138\n      jump\t// in\n    tag_158:\n        /* \"#utility.yul\":6990:7297   */\n      swap3\n      swap2\n      pop\n      pop\n      jump\t// out\n        /* \"#utility.yul\":7303:7525   */\n    tag_31:\n        /* \"#utility.yul\":7396:7400   */\n      0x00\n        /* \"#utility.yul\":7434:7436   */\n      0x20\n        /* \"#utility.yul\":7423:7432   */\n      dup3\n        /* \"#utility.yul\":7419:7437   */\n      add\n        /* \"#utility.yul\":7411:7437   */\n      swap1\n      pop\n        /* \"#utility.yul\":7447:7518   */\n      tag_160\n        /* \"#utility.yul\":7515:7516   */\n      0x00\n        /* \"#utility.yul\":7504:7513   */\n      dup4\n        /* \"#utility.yul\":7500:7517   */\n      add\n        /* \"#utility.yul\":7491:7497   */\n      dup5\n        /* \"#utility.yul\":7447:7518   */\n      tag_147\n      jump\t// in\n    tag_160:\n        /* \"#utility.yul\":7303:7525   */\n      swap3\n      swap2\n      pop\n      pop\n      jump\t// out\n        /* \"#utility.yul\":7531:8084   */\n    tag_18:\n        /* \"#utility.yul\":7708:7712   */\n      0x00\n        /* \"#utility.yul\":7746:7749   */\n      0x80\n        /* \"#utility.yul\":7735:7744   */\n      dup3\n        /* \"#utility.yul\":7731:7750   */\n      add\n        /* \"#utility.yul\":7723:7750   */\n      swap1\n      pop\n        /* \"#utility.yul\":7760:7831   */\n      tag_162\n        /* \"#utility.yul\":7828:7829   */\n      0x00\n        /* \"#utility.yul\":7817:7826   */\n      dup4\n        /* \"#utility.yul\":7813:7830   */\n      add\n        /* \"#utility.yul\":7804:7810   */\n      dup8\n        /* \"#utility.yul\":7760:7831   */\n      tag_147\n      jump\t// in\n    tag_162:\n        /* \"#utility.yul\":7841:7913   */\n      tag_163\n        /* \"#utility.yul\":7909:7911   */\n      0x20\n        /* \"#utility.yul\":7898:7907   */\n      dup4\n        /* \"#utility.yul\":7894:7912   */\n      add\n        /* \"#utility.yul\":7885:7891   */\n      dup7\n        /* \"#utility.yul\":7841:7913   */\n      tag_147\n      jump\t// in\n    tag_163:\n        /* \"#utility.yul\":7923:7995   */\n      tag_164\n        /* \"#utility.yul\":7991:7993   */\n      0x40\n        /* \"#utility.yul\":7980:7989   */\n      dup4\n        /* \"#utility.yul\":7976:7994   */\n      add\n        /* \"#utility.yul\":7967:7973   */\n      dup6\n        /* \"#utility.yul\":7923:7995   */\n      tag_147\n      jump\t// in\n    tag_164:\n        /* \"#utility.yul\":8005:8077   */\n      tag_165\n        /* \"#utility.yul\":8073:8075   */\n      0x60\n        /* \"#utility.yul\":8062:8071   */\n      dup4\n        /* \"#utility.yul\":8058:8076   */\n      add\n        /* \"#utility.yul\":8049:8055   */\n      dup5\n        /* \"#utility.yul\":8005:8077   */\n      tag_147\n      jump\t// in\n    tag_165:\n        /* \"#utility.yul\":7531:8084   */\n      swap6\n      swap5\n      pop\n      pop\n      pop\n      pop\n      pop\n      jump\t// out\n        /* \"#utility.yul\":8171:8324   */\n    tag_112:\n        /* \"#utility.yul\":8259:8263   */\n      0x00\n        /* \"#utility.yul\":8282:8285   */\n      dup2\n        /* \"#utility.yul\":8274:8285   */\n      swap1\n      pop\n        /* \"#utility.yul\":8312:8316   */\n      0x20\n        /* \"#utility.yul\":8307:8310   */\n      dup3\n        /* \"#utility.yul\":8303:8317   */\n      add\n        /* \"#utility.yul\":8295:8317   */\n      swap1\n      pop\n        /* \"#utility.yul\":8171:8324   */\n      swap2\n      swap1\n      pop\n      jump\t// out\n        /* \"#utility.yul\":8330:8462   */\n    tag_126:\n        /* \"#utility.yul\":8397:8401   */\n      0x00\n        /* \"#utility.yul\":8420:8423   */\n      dup2\n        /* \"#utility.yul\":8412:8423   */\n      swap1\n      pop\n        /* \"#utility.yul\":8450:8454   */\n      0x20\n        /* \"#utility.yul\":8445:8448   */\n      dup3\n        /* \"#utility.yul\":8441:8455   */\n      add\n        /* \"#utility.yul\":8433:8455   */\n      swap1\n      pop\n        /* \"#utility.yul\":8330:8462   */\n      swap2\n      swap1\n      pop\n      jump\t// out\n        /* \"#utility.yul\":8468:8603   */\n    tag_108:\n        /* \"#utility.yul\":8556:8562   */\n      0x00\n        /* \"#utility.yul\":8590:8595   */\n      dup2\n        /* \"#utility.yul\":8584:8596   */\n      mload\n        /* \"#utility.yul\":8574:8596   */\n      swap1\n      pop\n        /* \"#utility.yul\":8468:8603   */\n      swap2\n      swap1\n      pop\n      jump\t// out\n        /* \"#utility.yul\":8609:8723   */\n    tag_122:\n        /* \"#utility.yul\":8676:8682   */\n      0x00\n        /* \"#utility.yul\":8710:8715   */\n      dup2\n        /* \"#utility.yul\":8704:8716   */\n      mload\n        /* \"#utility.yul\":8694:8716   */\n      swap1\n      pop\n        /* \"#utility.yul\":8609:8723   */\n      swap2\n      swap1\n      pop\n      jump\t// out\n        /* \"#utility.yul\":8729:8863   */\n    tag_118:\n        /* \"#utility.yul\":8820:8824   */\n      0x00\n        /* \"#utility.yul\":8852:8856   */\n      0x20\n        /* \"#utility.yul\":8847:8850   */\n      dup3\n        /* \"#utility.yul\":8843:8857   */\n      add\n        /* \"#utility.yul\":8835:8857   */\n      swap1\n      pop\n        /* \"#utility.yul\":8729:8863   */\n      swap2\n      swap1\n      pop\n      jump\t// out\n        /* \"#utility.yul\":8869:8982   */\n    tag_132:\n        /* \"#utility.yul\":8939:8943   */\n      0x00\n        /* \"#utility.yul\":8971:8975   */\n      0x20\n        /* \"#utility.yul\":8966:8969   */\n      dup3\n        /* \"#utility.yul\":8962:8976   */\n      add\n        /* \"#utility.yul\":8954:8976   */\n      swap1\n      pop\n        /* \"#utility.yul\":8869:8982   */\n      swap2\n      swap1\n      pop\n      jump\t// out\n        /* \"#utility.yul\":8988:9193   */\n    tag_110:\n        /* \"#utility.yul\":9108:9119   */\n      0x00\n        /* \"#utility.yul\":9142:9148   */\n      dup3\n        /* \"#utility.yul\":9137:9140   */\n      dup3\n        /* \"#utility.yul\":9130:9149   */\n      mstore\n        /* \"#utility.yul\":9182:9186   */\n      0x20\n        /* \"#utility.yul\":9177:9180   */\n      dup3\n        /* \"#utility.yul\":9173:9187   */\n      add\n        /* \"#utility.yul\":9158:9187   */\n      swap1\n      pop\n        /* \"#utility.yul\":8988:9193   */\n      swap3\n      swap2\n      pop\n      pop\n      jump\t// out\n        /* \"#utility.yul\":9199:9383   */\n    tag_124:\n        /* \"#utility.yul\":9298:9309   */\n      0x00\n        /* \"#utility.yul\":9332:9338   */\n      dup3\n        /* \"#utility.yul\":9327:9330   */\n      dup3\n        /* \"#utility.yul\":9320:9339   */\n      mstore\n        /* \"#utility.yul\":9372:9376   */\n      0x20\n        /* \"#utility.yul\":9367:9370   */\n      dup3\n        /* \"#utility.yul\":9363:9377   */\n      add\n        /* \"#utility.yul\":9348:9377   */\n      swap1\n      pop\n        /* \"#utility.yul\":9199:9383   */\n      swap3\n      swap2\n      pop\n      pop\n      jump\t// out\n        /* \"#utility.yul\":9389:9466   */\n    tag_146:\n        /* \"#utility.yul\":9426:9433   */\n      0x00\n        /* \"#utility.yul\":9455:9460   */\n      dup2\n        /* \"#utility.yul\":9444:9460   */\n      swap1\n      pop\n        /* \"#utility.yul\":9389:9466   */\n      swap2\n      swap1\n      pop\n      jump\t// out\n        /* \"#utility.yul\":9472:9705   */\n    tag_63:\n        /* \"#utility.yul\":9511:9514   */\n      0x00\n        /* \"#utility.yul\":9534:9558   */\n      tag_178\n        /* \"#utility.yul\":9552:9557   */\n      dup3\n        /* \"#utility.yul\":9534:9558   */\n      tag_146\n      jump\t// in\n    tag_178:\n        /* \"#utility.yul\":9525:9558   */\n      swap2\n      pop\n        /* \"#utility.yul\":9580:9646   */\n      0xffffffffffffffffffffffffffffffffffffffffffffffffffffffffffffffff\n        /* \"#utility.yul\":9573:9578   */\n      dup3\n        /* \"#utility.yul\":9570:9647   */\n      eq\n        /* \"#utility.yul\":9567:9670   */\n      iszero\n      tag_179\n      jumpi\n        /* \"#utility.yul\":9650:9668   */\n      tag_180\n      tag_181\n      jump\t// in\n    tag_180:\n        /* \"#utility.yul\":9567:9670   */\n    tag_179:\n        /* \"#utility.yul\":9697:9698   */\n      0x01\n        /* \"#utility.yul\":9690:9695   */\n      dup3\n        /* \"#utility.yul\":9686:9699   */\n      add\n        /* \"#utility.yul\":9679:9699   */\n      swap1\n      pop\n        /* \"#utility.yul\":9472:9705   */\n      swap2\n      swap1\n      pop\n      jump\t// out\n        /* \"#utility.yul\":9711:9891   */\n    tag_181:\n        /* \"#utility.yul\":9759:9836   */\n      0x4e487b7100000000000000000000000000000000000000000000000000000000\n        /* \"#utility.yul\":9756:9757   */\n      0x00\n        /* \"#utility.yul\":9749:9837   */\n      mstore\n        /* \"#utility.yul\":9856:9860   */\n      0x11\n        /* \"#utility.yul\":9853:9854   */\n      0x04\n        /* \"#utility.yul\":9846:9861   */\n      mstore\n        /* \"#utility.yul\":9880:9884   */\n      0x24\n        /* \"#utility.yul\":9877:9878   */\n      0x00\n        /* \"#utility.yul\":9870:9885   */\n      revert\n        /* \"#utility.yul\":9897:10077   */\n    tag_55:\n        /* \"#utility.yul\":9945:10022   */\n      0x4e487b7100000000000000000000000000000000000000000000000000000000\n        /* \"#utility.yul\":9942:9943   */\n      0x00\n        /* \"#utility.yul\":9935:10023   */\n      mstore\n        /* \"#utility.yul\":10042:10046   */\n      0x32\n        /* \"#utility.yul\":10039:10040   */\n      0x04\n        /* \"#utility.yul\":10032:10047   */\n      mstore\n        /* \"#utility.yul\":10066:10070   */\n      0x24\n        /* \"#utility.yul\":10063:10064   */\n      0x00\n        /* \"#utility.yul\":10056:10071   */\n      revert\n        /* \"#utility.yul\":10083:10263   */\n    tag_39:\n        /* \"#utility.yul\":10131:10208   */\n      0x4e487b7100000000000000000000000000000000000000000000000000000000\n        /* \"#utility.yul\":10128:10129   */\n      0x00\n        /* \"#utility.yul\":10121:10209   */\n      mstore\n        /* \"#utility.yul\":10228:10232   */\n      0x41\n        /* \"#utility.yul\":10225:10226   */\n      0x04\n        /* \"#utility.yul\":10218:10233   */\n      mstore\n        /* \"#utility.yul\":10252:10256   */\n      0x24\n        /* \"#utility.yul\":10249:10250   */\n      0x00\n        /* \"#utility.yul\":10242:10257   */\n      revert\n        /* \"#utility.yul\":10392:10509   */\n    tag_89:\n        /* \"#utility.yul\":10501:10502   */\n      0x00\n        /* \"#utility.yul\":10498:10499   */\n      dup1\n        /* \"#utility.yul\":10491:10503   */\n      revert\n        /* \"#utility.yul\":10515:10637   */\n    tag_85:\n        /* \"#utility.yul\":10588:10612   */\n      tag_189\n        /* \"#utility.yul\":10606:10611   */\n      dup2\n        /* \"#utility.yul\":10588:10612   */\n      tag_146\n      jump\t// in\n    tag_189:\n        /* \"#utility.yul\":10581:10586   */\n      dup2\n        /* \"#utility.yul\":10578:10613   */\n      eq\n        /* \"#utility.yul\":10568:10631   */\n      tag_190\n      jumpi\n        /* \"#utility.yul\":10627:10628   */\n      0x00\n        /* \"#utility.yul\":10624:10625   */\n      dup1\n        /* \"#utility.yul\":10617:10629   */\n      revert\n        /* \"#utility.yul\":10568:10631   */\n    tag_190:\n        /* \"#utility.yul\":10515:10637   */\n      pop\n      jump\t// out\n\n    auxdata: 0xa264697066735822122013cabeacbf0f0b5c070fe6aac96874ee7d73bef148234d25e6177100131fcf8c64736f6c63430008070033\n}\n",
				"bytecode": {
					"linkReferences": {},
					"object": "608060405234801561001057600080fd5b506000600181905550610a6c806100286000396000f3fe608060405234801561001057600080fd5b50600436106100625760003560e01c806315dae03e14610067578063575dbe91146100885780638ff6d5d6146100bb5780639507d39a146100d75780639e5ca46f14610107578063dd3802f614610125575b600080fd5b61006f610143565b60405161007f94939291906107ec565b60405180910390f35b6100a2600480360381019061009d9190610596565b610363565b6040516100b29493929190610883565b60405180910390f35b6100d560048036038101906100d091906105c3565b610393565b005b6100f160048036038101906100ec9190610596565b610412565b6040516100fe919061084d565b60405180910390f35b61010f610466565b60405161011c9190610868565b60405180910390f35b61012d61046c565b60405161013a91906107ca565b60405180910390f35b606080606080600060015467ffffffffffffffff811115610167576101666109eb565b5b6040519080825280602002602001820160405280156101955781602001602082028036833780820191505090505b509050600060015467ffffffffffffffff8111156101b6576101b56109eb565b5b6040519080825280602002602001820160405280156101e45781602001602082028036833780820191505090505b509050600060015467ffffffffffffffff811115610205576102046109eb565b5b6040519080825280602002602001820160405280156102335781602001602082028036833780820191505090505b509050600060015467ffffffffffffffff811115610254576102536109eb565b5b6040519080825280602002602001820160405280156102825781602001602082028036833780820191505090505b50905060005b60015481101561034c576000806000838152602001908152602001600020905080600001548683815181106102c0576102bf6109bc565b5b60200260200101818152505080600101548583815181106102e4576102e36109bc565b5b6020026020010181815250508060020154848381518110610308576103076109bc565b5b602002602001018181525050806003015483838151811061032c5761032b6109bc565b5b60200260200101818152505050808061034490610944565b915050610288565b508383838397509750975097505050505090919293565b60006020528060005260406000206000915090508060000154908060010154908060020154908060030154905084565b60405180608001604052806001548152602001848152602001838152602001828152506000806001548152602001908152602001600020600082015181600001556020820151816001015560408201518160020155606082015181600301559050506001600081548092919061040890610944565b9190505550505050565b61041a610559565b6000808381526020019081526020016000206040518060800160405290816000820154815260200160018201548152602001600282015481526020016003820154815250509050919050565b60015481565b6060600060015467ffffffffffffffff81111561048c5761048b6109eb565b5b6040519080825280602002602001820160405280156104c557816020015b6104b2610559565b8152602001906001900390816104aa5790505b50905060005b600154811015610551576000806000838152602001908152602001600020905080604051806080016040529081600082015481526020016001820154815260200160028201548152602001600382015481525050838381518110610532576105316109bc565b5b602002602001018190525050808061054990610944565b9150506104cb565b508091505090565b6040518060800160405280600081526020016000815260200160008152602001600081525090565b60008135905061059081610a1f565b92915050565b6000602082840312156105ac576105ab610a1a565b5b60006105ba84828501610581565b91505092915050565b6000806000606084860312156105dc576105db610a1a565b5b60006105ea86828701610581565b93505060206105fb86828701610581565b925050604061060c86828701610581565b9150509250925092565b60006106228383610702565b60808301905092915050565b600061063a83836107ac565b60208301905092915050565b6000610651826108e8565b61065b8185610918565b9350610666836108c8565b8060005b8381101561069757815161067e8882610616565b9750610689836108fe565b92505060018101905061066a565b5085935050505092915050565b60006106af826108f3565b6106b98185610929565b93506106c4836108d8565b8060005b838110156106f55781516106dc888261062e565b97506106e78361090b565b9250506001810190506106c8565b5085935050505092915050565b60808201600082015161071860008501826107ac565b50602082015161072b60208501826107ac565b50604082015161073e60408501826107ac565b50606082015161075160608501826107ac565b50505050565b60808201600082015161076d60008501826107ac565b50602082015161078060208501826107ac565b50604082015161079360408501826107ac565b5060608201516107a660608501826107ac565b50505050565b6107b58161093a565b82525050565b6107c48161093a565b82525050565b600060208201905081810360008301526107e48184610646565b905092915050565b6000608082019050818103600083015261080681876106a4565b9050818103602083015261081a81866106a4565b9050818103604083015261082e81856106a4565b9050818103606083015261084281846106a4565b905095945050505050565b60006080820190506108626000830184610757565b92915050565b600060208201905061087d60008301846107bb565b92915050565b600060808201905061089860008301876107bb565b6108a560208301866107bb565b6108b260408301856107bb565b6108bf60608301846107bb565b95945050505050565b6000819050602082019050919050565b6000819050602082019050919050565b600081519050919050565b600081519050919050565b6000602082019050919050565b6000602082019050919050565b600082825260208201905092915050565b600082825260208201905092915050565b6000819050919050565b600061094f8261093a565b91507fffffffffffffffffffffffffffffffffffffffffffffffffffffffffffffffff8214156109825761098161098d565b5b600182019050919050565b7f4e487b7100000000000000000000000000000000000000000000000000000000600052601160045260246000fd5b7f4e487b7100000000000000000000000000000000000000000000000000000000600052603260045260246000fd5b7f4e487b7100000000000000000000000000000000000000000000000000000000600052604160045260246000fd5b600080fd5b610a288161093a565b8114610a3357600080fd5b5056fea264697066735822122013cabeacbf0f0b5c070fe6aac96874ee7d73bef148234d25e6177100131fcf8c64736f6c63430008070033",
					"opcodes": "PUSH1 0x80 PUSH1 0x40 MSTORE CALLVALUE DUP1 ISZERO PUSH2 0x10 JUMPI PUSH1 0x0 DUP1 REVERT JUMPDEST POP PUSH1 0x0 PUSH1 0x1 DUP2 SWAP1 SSTORE POP PUSH2 0xA6C DUP1 PUSH2 0x28 PUSH1 0x0 CODECOPY PUSH1 0x0 RETURN INVALID PUSH1 0x80 PUSH1 0x40 MSTORE CALLVALUE DUP1 ISZERO PUSH2 0x10 JUMPI PUSH1 0x0 DUP1 REVERT JUMPDEST POP PUSH1 0x4 CALLDATASIZE LT PUSH2 0x62 JUMPI PUSH1 0x0 CALLDATALOAD PUSH1 0xE0 SHR DUP1 PUSH4 0x15DAE03E EQ PUSH2 0x67 JUMPI DUP1 PUSH4 0x575DBE91 EQ PUSH2 0x88 JUMPI DUP1 PUSH4 0x8FF6D5D6 EQ PUSH2 0xBB JUMPI DUP1 PUSH4 0x9507D39A EQ PUSH2 0xD7 JUMPI DUP1 PUSH4 0x9E5CA46F EQ PUSH2 0x107 JUMPI DUP1 PUSH4 0xDD3802F6 EQ PUSH2 0x125 JUMPI JUMPDEST PUSH1 0x0 DUP1 REVERT JUMPDEST PUSH2 0x6F PUSH2 0x143 JUMP JUMPDEST PUSH1 0x40 MLOAD PUSH2 0x7F SWAP5 SWAP4 SWAP3 SWAP2 SWAP1 PUSH2 0x7EC JUMP JUMPDEST PUSH1 0x40 MLOAD DUP1 SWAP2 SUB SWAP1 RETURN JUMPDEST PUSH2 0xA2 PUSH1 0x4 DUP1 CALLDATASIZE SUB DUP2 ADD SWAP1 PUSH2 0x9D SWAP2 SWAP1 PUSH2 0x596 JUMP JUMPDEST PUSH2 0x363 JUMP JUMPDEST PUSH1 0x40 MLOAD PUSH2 0xB2 SWAP5 SWAP4 SWAP3 SWAP2 SWAP1 PUSH2 0x883 JUMP JUMPDEST PUSH1 0x40 MLOAD DUP1 SWAP2 SUB SWAP1 RETURN JUMPDEST PUSH2 0xD5 PUSH1 0x4 DUP1 CALLDATASIZE SUB DUP2 ADD SWAP1 PUSH2 0xD0 SWAP2 SWAP1 PUSH2 0x5C3 JUMP JUMPDEST PUSH2 0x393 JUMP JUMPDEST STOP JUMPDEST PUSH2 0xF1 PUSH1 0x4 DUP1 CALLDATASIZE SUB DUP2 ADD SWAP1 PUSH2 0xEC SWAP2 SWAP1 PUSH2 0x596 JUMP JUMPDEST PUSH2 0x412 JUMP JUMPDEST PUSH1 0x40 MLOAD PUSH2 0xFE SWAP2 SWAP1 PUSH2 0x84D JUMP JUMPDEST PUSH1 0x40 MLOAD DUP1 SWAP2 SUB SWAP1 RETURN JUMPDEST PUSH2 0x10F PUSH2 0x466 JUMP JUMPDEST PUSH1 0x40 MLOAD PUSH2 0x11C SWAP2 SWAP1 PUSH2 0x868 JUMP JUMPDEST PUSH1 0x40 MLOAD DUP1 SWAP2 SUB SWAP1 RETURN JUMPDEST PUSH2 0x12D PUSH2 0x46C JUMP JUMPDEST PUSH1 0x40 MLOAD PUSH2 0x13A SWAP2 SWAP1 PUSH2 0x7CA JUMP JUMPDEST PUSH1 0x40 MLOAD DUP1 SWAP2 SUB SWAP1 RETURN JUMPDEST PUSH1 0x60 DUP1 PUSH1 0x60 DUP1 PUSH1 0x0 PUSH1 0x1 SLOAD PUSH8 0xFFFFFFFFFFFFFFFF DUP2 GT ISZERO PUSH2 0x167 JUMPI PUSH2 0x166 PUSH2 0x9EB JUMP JUMPDEST JUMPDEST PUSH1 0x40 MLOAD SWAP1 DUP1 DUP3 MSTORE DUP1 PUSH1 0x20 MUL PUSH1 0x20 ADD DUP3 ADD PUSH1 0x40 MSTORE DUP1 ISZERO PUSH2 0x195 JUMPI DUP2 PUSH1 0x20 ADD PUSH1 0x20 DUP3 MUL DUP1 CALLDATASIZE DUP4 CALLDATACOPY DUP1 DUP3 ADD SWAP2 POP POP SWAP1 POP JUMPDEST POP SWAP1 POP PUSH1 0x0 PUSH1 0x1 SLOAD PUSH8 0xFFFFFFFFFFFFFFFF DUP2 GT ISZERO PUSH2 0x1B6 JUMPI PUSH2 0x1B5 PUSH2 0x9EB JUMP JUMPDEST JUMPDEST PUSH1 0x40 MLOAD SWAP1 DUP1 DUP3 MSTORE DUP1 PUSH1 0x20 MUL PUSH1 0x20 ADD DUP3 ADD PUSH1 0x40 MSTORE DUP1 ISZERO PUSH2 0x1E4 JUMPI DUP2 PUSH1 0x20 ADD PUSH1 0x20 DUP3 MUL DUP1 CALLDATASIZE DUP4 CALLDATACOPY DUP1 DUP3 ADD SWAP2 POP POP SWAP1 POP JUMPDEST POP SWAP1 POP PUSH1 0x0 PUSH1 0x1 SLOAD PUSH8 0xFFFFFFFFFFFFFFFF DUP2 GT ISZERO PUSH2 0x205 JUMPI PUSH2 0x204 PUSH2 0x9EB JUMP JUMPDEST JUMPDEST PUSH1 0x40 MLOAD SWAP1 DUP1 DUP3 MSTORE DUP1 PUSH1 0x20 MUL PUSH1 0x20 ADD DUP3 ADD PUSH1 0x40 MSTORE DUP1 ISZERO PUSH2 0x233 JUMPI DUP2 PUSH1 0x20 ADD PUSH1 0x20 DUP3 MUL DUP1 CALLDATASIZE DUP4 CALLDATACOPY DUP1 DUP3 ADD SWAP2 POP POP SWAP1 POP JUMPDEST POP SWAP1 POP PUSH1 0x0 PUSH1 0x1 SLOAD PUSH8 0xFFFFFFFFFFFFFFFF DUP2 GT ISZERO PUSH2 0x254 JUMPI PUSH2 0x253 PUSH2 0x9EB JUMP JUMPDEST JUMPDEST PUSH1 0x40 MLOAD SWAP1 DUP1 DUP3 MSTORE DUP1 PUSH1 0x20 MUL PUSH1 0x20 ADD DUP3 ADD PUSH1 0x40 MSTORE DUP1 ISZERO PUSH2 0x282 JUMPI DUP2 PUSH1 0x20 ADD PUSH1 0x20 DUP3 MUL DUP1 CALLDATASIZE DUP4 CALLDATACOPY DUP1 DUP3 ADD SWAP2 POP POP SWAP1 POP JUMPDEST POP SWAP1 POP PUSH1 0x0 JUMPDEST PUSH1 0x1 SLOAD DUP2 LT ISZERO PUSH2 0x34C JUMPI PUSH1 0x0 DUP1 PUSH1 0x0 DUP4 DUP2 MSTORE PUSH1 0x20 ADD SWAP1 DUP2 MSTORE PUSH1 0x20 ADD PUSH1 0x0 KECCAK256 SWAP1 POP DUP1 PUSH1 0x0 ADD SLOAD DUP7 DUP4 DUP2 MLOAD DUP2 LT PUSH2 0x2C0 JUMPI PUSH2 0x2BF PUSH2 0x9BC JUMP JUMPDEST JUMPDEST PUSH1 0x20 MUL PUSH1 0x20 ADD ADD DUP2 DUP2 MSTORE POP POP DUP1 PUSH1 0x1 ADD SLOAD DUP6 DUP4 DUP2 MLOAD DUP2 LT PUSH2 0x2E4 JUMPI PUSH2 0x2E3 PUSH2 0x9BC JUMP JUMPDEST JUMPDEST PUSH1 0x20 MUL PUSH1 0x20 ADD ADD DUP2 DUP2 MSTORE POP POP DUP1 PUSH1 0x2 ADD SLOAD DUP5 DUP4 DUP2 MLOAD DUP2 LT PUSH2 0x308 JUMPI PUSH2 0x307 PUSH2 0x9BC JUMP JUMPDEST JUMPDEST PUSH1 0x20 MUL PUSH1 0x20 ADD ADD DUP2 DUP2 MSTORE POP POP DUP1 PUSH1 0x3 ADD SLOAD DUP4 DUP4 DUP2 MLOAD DUP2 LT PUSH2 0x32C JUMPI PUSH2 0x32B PUSH2 0x9BC JUMP JUMPDEST JUMPDEST PUSH1 0x20 MUL PUSH1 0x20 ADD ADD DUP2 DUP2 MSTORE POP POP POP DUP1 DUP1 PUSH2 0x344 SWAP1 PUSH2 0x944 JUMP JUMPDEST SWAP2 POP POP PUSH2 0x288 JUMP JUMPDEST POP DUP4 DUP4 DUP4 DUP4 SWAP8 POP SWAP8 POP SWAP8 POP SWAP8 POP POP POP POP POP SWAP1 SWAP2 SWAP3 SWAP4 JUMP JUMPDEST PUSH1 0x0 PUSH1 0x20 MSTORE DUP1 PUSH1 0x0 MSTORE PUSH1 0x40 PUSH1 0x0 KECCAK256 PUSH1 0x0 SWAP2 POP SWAP1 POP DUP1 PUSH1 0x0 ADD SLOAD SWAP1 DUP1 PUSH1 0x1 ADD SLOAD SWAP1 DUP1 PUSH1 0x2 ADD SLOAD SWAP1 DUP1 PUSH1 0x3 ADD SLOAD SWAP1 POP DUP5 JUMP JUMPDEST PUSH1 0x40 MLOAD DUP1 PUSH1 0x80 ADD PUSH1 0x40 MSTORE DUP1 PUSH1 0x1 SLOAD DUP2 MSTORE PUSH1 0x20 ADD DUP5 DUP2 MSTORE PUSH1 0x20 ADD DUP4 DUP2 MSTORE PUSH1 0x20 ADD DUP3 DUP2 MSTORE POP PUSH1 0x0 DUP1 PUSH1 0x1 SLOAD DUP2 MSTORE PUSH1 0x20 ADD SWAP1 DUP2 MSTORE PUSH1 0x20 ADD PUSH1 0x0 KECCAK256 PUSH1 0x0 DUP3 ADD MLOAD DUP2 PUSH1 0x0 ADD SSTORE PUSH1 0x20 DUP3 ADD MLOAD DUP2 PUSH1 0x1 ADD SSTORE PUSH1 0x40 DUP3 ADD MLOAD DUP2 PUSH1 0x2 ADD SSTORE PUSH1 0x60 DUP3 ADD MLOAD DUP2 PUSH1 0x3 ADD SSTORE SWAP1 POP POP PUSH1 0x1 PUSH1 0x0 DUP2 SLOAD DUP1 SWAP3 SWAP2 SWAP1 PUSH2 0x408 SWAP1 PUSH2 0x944 JUMP JUMPDEST SWAP2 SWAP1 POP SSTORE POP POP POP POP JUMP JUMPDEST PUSH2 0x41A PUSH2 0x559 JUMP JUMPDEST PUSH1 0x0 DUP1 DUP4 DUP2 MSTORE PUSH1 0x20 ADD SWAP1 DUP2 MSTORE PUSH1 0x20 ADD PUSH1 0x0 KECCAK256 PUSH1 0x40 MLOAD DUP1 PUSH1 0x80 ADD PUSH1 0x40 MSTORE SWAP1 DUP2 PUSH1 0x0 DUP3 ADD SLOAD DUP2 MSTORE PUSH1 0x20 ADD PUSH1 0x1 DUP3 ADD SLOAD DUP2 MSTORE PUSH1 0x20 ADD PUSH1 0x2 DUP3 ADD SLOAD DUP2 MSTORE PUSH1 0x20 ADD PUSH1 0x3 DUP3 ADD SLOAD DUP2 MSTORE POP POP SWAP1 POP SWAP2 SWAP1 POP JUMP JUMPDEST PUSH1 0x1 SLOAD DUP2 JUMP JUMPDEST PUSH1 0x60 PUSH1 0x0 PUSH1 0x1 SLOAD PUSH8 0xFFFFFFFFFFFFFFFF DUP2 GT ISZERO PUSH2 0x48C JUMPI PUSH2 0x48B PUSH2 0x9EB JUMP JUMPDEST JUMPDEST PUSH1 0x40 MLOAD SWAP1 DUP1 DUP3 MSTORE DUP1 PUSH1 0x20 MUL PUSH1 0x20 ADD DUP3 ADD PUSH1 0x40 MSTORE DUP1 ISZERO PUSH2 0x4C5 JUMPI DUP2 PUSH1 0x20 ADD JUMPDEST PUSH2 0x4B2 PUSH2 0x559 JUMP JUMPDEST DUP2 MSTORE PUSH1 0x20 ADD SWAP1 PUSH1 0x1 SWAP1 SUB SWAP1 DUP2 PUSH2 0x4AA JUMPI SWAP1 POP JUMPDEST POP SWAP1 POP PUSH1 0x0 JUMPDEST PUSH1 0x1 SLOAD DUP2 LT ISZERO PUSH2 0x551 JUMPI PUSH1 0x0 DUP1 PUSH1 0x0 DUP4 DUP2 MSTORE PUSH1 0x20 ADD SWAP1 DUP2 MSTORE PUSH1 0x20 ADD PUSH1 0x0 KECCAK256 SWAP1 POP DUP1 PUSH1 0x40 MLOAD DUP1 PUSH1 0x80 ADD PUSH1 0x40 MSTORE SWAP1 DUP2 PUSH1 0x0 DUP3 ADD SLOAD DUP2 MSTORE PUSH1 0x20 ADD PUSH1 0x1 DUP3 ADD SLOAD DUP2 MSTORE PUSH1 0x20 ADD PUSH1 0x2 DUP3 ADD SLOAD DUP2 MSTORE PUSH1 0x20 ADD PUSH1 0x3 DUP3 ADD SLOAD DUP2 MSTORE POP POP DUP4 DUP4 DUP2 MLOAD DUP2 LT PUSH2 0x532 JUMPI PUSH2 0x531 PUSH2 0x9BC JUMP JUMPDEST JUMPDEST PUSH1 0x20 MUL PUSH1 0x20 ADD ADD DUP2 SWAP1 MSTORE POP POP DUP1 DUP1 PUSH2 0x549 SWAP1 PUSH2 0x944 JUMP JUMPDEST SWAP2 POP POP PUSH2 0x4CB JUMP JUMPDEST POP DUP1 SWAP2 POP POP SWAP1 JUMP JUMPDEST PUSH1 0x40 MLOAD DUP1 PUSH1 0x80 ADD PUSH1 0x40 MSTORE DUP1 PUSH1 0x0 DUP2 MSTORE PUSH1 0x20 ADD PUSH1 0x0 DUP2 MSTORE PUSH1 0x20 ADD PUSH1 0x0 DUP2 MSTORE PUSH1 0x20 ADD PUSH1 0x0 DUP2 MSTORE POP SWAP1 JUMP JUMPDEST PUSH1 0x0 DUP2 CALLDATALOAD SWAP1 POP PUSH2 0x590 DUP2 PUSH2 0xA1F JUMP JUMPDEST SWAP3 SWAP2 POP POP JUMP JUMPDEST PUSH1 0x0 PUSH1 0x20 DUP3 DUP5 SUB SLT ISZERO PUSH2 0x5AC JUMPI PUSH2 0x5AB PUSH2 0xA1A JUMP JUMPDEST JUMPDEST PUSH1 0x0 PUSH2 0x5BA DUP5 DUP3 DUP6 ADD PUSH2 0x581 JUMP JUMPDEST SWAP2 POP POP SWAP3 SWAP2 POP POP JUMP JUMPDEST PUSH1 0x0 DUP1 PUSH1 0x0 PUSH1 0x60 DUP5 DUP7 SUB SLT ISZERO PUSH2 0x5DC JUMPI PUSH2 0x5DB PUSH2 0xA1A JUMP JUMPDEST JUMPDEST PUSH1 0x0 PUSH2 0x5EA DUP7 DUP3 DUP8 ADD PUSH2 0x581 JUMP JUMPDEST SWAP4 POP POP PUSH1 0x20 PUSH2 0x5FB DUP7 DUP3 DUP8 ADD PUSH2 0x581 JUMP JUMPDEST SWAP3 POP POP PUSH1 0x40 PUSH2 0x60C DUP7 DUP3 DUP8 ADD PUSH2 0x581 JUMP JUMPDEST SWAP2 POP POP SWAP3 POP SWAP3 POP SWAP3 JUMP JUMPDEST PUSH1 0x0 PUSH2 0x622 DUP4 DUP4 PUSH2 0x702 JUMP JUMPDEST PUSH1 0x80 DUP4 ADD SWAP1 POP SWAP3 SWAP2 POP POP JUMP JUMPDEST PUSH1 0x0 PUSH2 0x63A DUP4 DUP4 PUSH2 0x7AC JUMP JUMPDEST PUSH1 0x20 DUP4 ADD SWAP1 POP SWAP3 SWAP2 POP POP JUMP JUMPDEST PUSH1 0x0 PUSH2 0x651 DUP3 PUSH2 0x8E8 JUMP JUMPDEST PUSH2 0x65B DUP2 DUP6 PUSH2 0x918 JUMP JUMPDEST SWAP4 POP PUSH2 0x666 DUP4 PUSH2 0x8C8 JUMP JUMPDEST DUP1 PUSH1 0x0 JUMPDEST DUP4 DUP2 LT ISZERO PUSH2 0x697 JUMPI DUP2 MLOAD PUSH2 0x67E DUP9 DUP3 PUSH2 0x616 JUMP JUMPDEST SWAP8 POP PUSH2 0x689 DUP4 PUSH2 0x8FE JUMP JUMPDEST SWAP3 POP POP PUSH1 0x1 DUP2 ADD SWAP1 POP PUSH2 0x66A JUMP JUMPDEST POP DUP6 SWAP4 POP POP POP POP SWAP3 SWAP2 POP POP JUMP JUMPDEST PUSH1 0x0 PUSH2 0x6AF DUP3 PUSH2 0x8F3 JUMP JUMPDEST PUSH2 0x6B9 DUP2 DUP6 PUSH2 0x929 JUMP JUMPDEST SWAP4 POP PUSH2 0x6C4 DUP4 PUSH2 0x8D8 JUMP JUMPDEST DUP1 PUSH1 0x0 JUMPDEST DUP4 DUP2 LT ISZERO PUSH2 0x6F5 JUMPI DUP2 MLOAD PUSH2 0x6DC DUP9 DUP3 PUSH2 0x62E JUMP JUMPDEST SWAP8 POP PUSH2 0x6E7 DUP4 PUSH2 0x90B JUMP JUMPDEST SWAP3 POP POP PUSH1 0x1 DUP2 ADD SWAP1 POP PUSH2 0x6C8 JUMP JUMPDEST POP DUP6 SWAP4 POP POP POP POP SWAP3 SWAP2 POP POP JUMP JUMPDEST PUSH1 0x80 DUP3 ADD PUSH1 0x0 DUP3 ADD MLOAD PUSH2 0x718 PUSH1 0x0 DUP6 ADD DUP3 PUSH2 0x7AC JUMP JUMPDEST POP PUSH1 0x20 DUP3 ADD MLOAD PUSH2 0x72B PUSH1 0x20 DUP6 ADD DUP3 PUSH2 0x7AC JUMP JUMPDEST POP PUSH1 0x40 DUP3 ADD MLOAD PUSH2 0x73E PUSH1 0x40 DUP6 ADD DUP3 PUSH2 0x7AC JUMP JUMPDEST POP PUSH1 0x60 DUP3 ADD MLOAD PUSH2 0x751 PUSH1 0x60 DUP6 ADD DUP3 PUSH2 0x7AC JUMP JUMPDEST POP POP POP POP JUMP JUMPDEST PUSH1 0x80 DUP3 ADD PUSH1 0x0 DUP3 ADD MLOAD PUSH2 0x76D PUSH1 0x0 DUP6 ADD DUP3 PUSH2 0x7AC JUMP JUMPDEST POP PUSH1 0x20 DUP3 ADD MLOAD PUSH2 0x780 PUSH1 0x20 DUP6 ADD DUP3 PUSH2 0x7AC JUMP JUMPDEST POP PUSH1 0x40 DUP3 ADD MLOAD PUSH2 0x793 PUSH1 0x40 DUP6 ADD DUP3 PUSH2 0x7AC JUMP JUMPDEST POP PUSH1 0x60 DUP3 ADD MLOAD PUSH2 0x7A6 PUSH1 0x60 DUP6 ADD DUP3 PUSH2 0x7AC JUMP JUMPDEST POP POP POP POP JUMP JUMPDEST PUSH2 0x7B5 DUP2 PUSH2 0x93A JUMP JUMPDEST DUP3 MSTORE POP POP JUMP JUMPDEST PUSH2 0x7C4 DUP2 PUSH2 0x93A JUMP JUMPDEST DUP3 MSTORE POP POP JUMP JUMPDEST PUSH1 0x0 PUSH1 0x20 DUP3 ADD SWAP1 POP DUP2 DUP2 SUB PUSH1 0x0 DUP4 ADD MSTORE PUSH2 0x7E4 DUP2 DUP5 PUSH2 0x646 JUMP JUMPDEST SWAP1 POP SWAP3 SWAP2 POP POP JUMP JUMPDEST PUSH1 0x0 PUSH1 0x80 DUP3 ADD SWAP1 POP DUP2 DUP2 SUB PUSH1 0x0 DUP4 ADD MSTORE PUSH2 0x806 DUP2 DUP8 PUSH2 0x6A4 JUMP JUMPDEST SWAP1 POP DUP2 DUP2 SUB PUSH1 0x20 DUP4 ADD MSTORE PUSH2 0x81A DUP2 DUP7 PUSH2 0x6A4 JUMP JUMPDEST SWAP1 POP DUP2 DUP2 SUB PUSH1 0x40 DUP4 ADD MSTORE PUSH2 0x82E DUP2 DUP6 PUSH2 0x6A4 JUMP JUMPDEST SWAP1 POP DUP2 DUP2 SUB PUSH1 0x60 DUP4 ADD MSTORE PUSH2 0x842 DUP2 DUP5 PUSH2 0x6A4 JUMP JUMPDEST SWAP1 POP SWAP6 SWAP5 POP POP POP POP POP JUMP JUMPDEST PUSH1 0x0 PUSH1 0x80 DUP3 ADD SWAP1 POP PUSH2 0x862 PUSH1 0x0 DUP4 ADD DUP5 PUSH2 0x757 JUMP JUMPDEST SWAP3 SWAP2 POP POP JUMP JUMPDEST PUSH1 0x0 PUSH1 0x20 DUP3 ADD SWAP1 POP PUSH2 0x87D PUSH1 0x0 DUP4 ADD DUP5 PUSH2 0x7BB JUMP JUMPDEST SWAP3 SWAP2 POP POP JUMP JUMPDEST PUSH1 0x0 PUSH1 0x80 DUP3 ADD SWAP1 POP PUSH2 0x898 PUSH1 0x0 DUP4 ADD DUP8 PUSH2 0x7BB JUMP JUMPDEST PUSH2 0x8A5 PUSH1 0x20 DUP4 ADD DUP7 PUSH2 0x7BB JUMP JUMPDEST PUSH2 0x8B2 PUSH1 0x40 DUP4 ADD DUP6 PUSH2 0x7BB JUMP JUMPDEST PUSH2 0x8BF PUSH1 0x60 DUP4 ADD DUP5 PUSH2 0x7BB JUMP JUMPDEST SWAP6 SWAP5 POP POP POP POP POP JUMP JUMPDEST PUSH1 0x0 DUP2 SWAP1 POP PUSH1 0x20 DUP3 ADD SWAP1 POP SWAP2 SWAP1 POP JUMP JUMPDEST PUSH1 0x0 DUP2 SWAP1 POP PUSH1 0x20 DUP3 ADD SWAP1 POP SWAP2 SWAP1 POP JUMP JUMPDEST PUSH1 0x0 DUP2 MLOAD SWAP1 POP SWAP2 SWAP1 POP JUMP JUMPDEST PUSH1 0x0 DUP2 MLOAD SWAP1 POP SWAP2 SWAP1 POP JUMP JUMPDEST PUSH1 0x0 PUSH1 0x20 DUP3 ADD SWAP1 POP SWAP2 SWAP1 POP JUMP JUMPDEST PUSH1 0x0 PUSH1 0x20 DUP3 ADD SWAP1 POP SWAP2 SWAP1 POP JUMP JUMPDEST PUSH1 0x0 DUP3 DUP3 MSTORE PUSH1 0x20 DUP3 ADD SWAP1 POP SWAP3 SWAP2 POP POP JUMP JUMPDEST PUSH1 0x0 DUP3 DUP3 MSTORE PUSH1 0x20 DUP3 ADD SWAP1 POP SWAP3 SWAP2 POP POP JUMP JUMPDEST PUSH1 0x0 DUP2 SWAP1 POP SWAP2 SWAP1 POP JUMP JUMPDEST PUSH1 0x0 PUSH2 0x94F DUP3 PUSH2 0x93A JUMP JUMPDEST SWAP2 POP PUSH32 0xFFFFFFFFFFFFFFFFFFFFFFFFFFFFFFFFFFFFFFFFFFFFFFFFFFFFFFFFFFFFFFFF DUP3 EQ ISZERO PUSH2 0x982 JUMPI PUSH2 0x981 PUSH2 0x98D JUMP JUMPDEST JUMPDEST PUSH1 0x1 DUP3 ADD SWAP1 POP SWAP2 SWAP1 POP JUMP JUMPDEST PUSH32 0x4E487B7100000000000000000000000000000000000000000000000000000000 PUSH1 0x0 MSTORE PUSH1 0x11 PUSH1 0x4 MSTORE PUSH1 0x24 PUSH1 0x0 REVERT JUMPDEST PUSH32 0x4E487B7100000000000000000000000000000000000000000000000000000000 PUSH1 0x0 MSTORE PUSH1 0x32 PUSH1 0x4 MSTORE PUSH1 0x24 PUSH1 0x0 REVERT JUMPDEST PUSH32 0x4E487B7100000000000000000000000000000000000000000000000000000000 PUSH1 0x0 MSTORE PUSH1 0x41 PUSH1 0x4 MSTORE PUSH1 0x24 PUSH1 0x0 REVERT JUMPDEST PUSH1 0x0 DUP1 REVERT JUMPDEST PUSH2 0xA28 DUP2 PUSH2 0x93A JUMP JUMPDEST DUP2 EQ PUSH2 0xA33 JUMPI PUSH1 0x0 DUP1 REVERT JUMPDEST POP JUMP INVALID LOG2 PUSH5 0x6970667358 0x22 SLT KECCAK256 SGT 0xCA 0xBE 0xAC 0xBF 0xF SIGNEXTEND 0x5C SMOD 0xF 0xE6 0xAA 0xC9 PUSH9 0x74EE7D73BEF148234D 0x25 0xE6 OR PUSH18 0x131FCF8C64736F6C634300080700330000 "
				},
				"gasEstimates": {
					"creation": {
						"codeDepositCost": "533600",
						"executionCost": "5582",
						"totalCost": "539182"
					},
					"external": {
						"addPatch(uint256,uint256,uint256)": "infinite",
						"get(uint256)": "infinite",
						"getPatchs()": "infinite",
						"getType()": "infinite",
						"patchs(uint256)": "infinite",
						"patchsCount()": "2495"
					}
				},
				"methodIdentifiers": {
					"addPatch(uint256,uint256,uint256)": "8ff6d5d6",
					"get(uint256)": "9507d39a",
					"getPatchs()": "dd3802f6",
					"getType()": "15dae03e",
					"patchs(uint256)": "575dbe91",
					"patchsCount()": "9e5ca46f"
				}
			},
			"storageLayout": {
				"storage": [
					{
						"astId": 16,
						"contract": "contracts/Patch.sol:Patchs",
						"label": "patchs",
						"offset": 0,
						"slot": "0",
						"type": "t_mapping(t_uint256,t_struct(Patch)11_storage)"
					},
					{
						"astId": 18,
						"contract": "contracts/Patch.sol:Patchs",
						"label": "patchsCount",
						"offset": 0,
						"slot": "1",
						"type": "t_uint256"
					}
				],
				"types": {
					"t_mapping(t_uint256,t_struct(Patch)11_storage)": {
						"encoding": "mapping",
						"key": "t_uint256",
						"label": "mapping(uint256 => struct Patchs.Patch)",
						"numberOfBytes": "32",
						"value": "t_struct(Patch)11_storage"
					},
					"t_struct(Patch)11_storage": {
						"encoding": "inplace",
						"label": "struct Patchs.Patch",
						"members": [
							{
								"astId": 4,
								"contract": "contracts/Patch.sol:Patchs",
								"label": "PatchNo",
								"offset": 0,
								"slot": "0",
								"type": "t_uint256"
							},
							{
								"astId": 6,
								"contract": "contracts/Patch.sol:Patchs",
								"label": "DrugID",
								"offset": 0,
								"slot": "1",
								"type": "t_uint256"
							},
							{
								"astId": 8,
								"contract": "contracts/Patch.sol:Patchs",
								"label": "FullAmount",
								"offset": 0,
								"slot": "2",
								"type": "t_uint256"
							},
							{
								"astId": 10,
								"contract": "contracts/Patch.sol:Patchs",
								"label": "ReleaseDate",
								"offset": 0,
								"slot": "3",
								"type": "t_uint256"
							}
						],
						"numberOfBytes": "128"
					},
					"t_uint256": {
						"encoding": "inplace",
						"label": "uint256",
						"numberOfBytes": "32"
					}
				}
			},
			"userdoc": {
				"kind": "user",
				"methods": {},
				"version": 1
			}
		}
	}
}