{
	"contracts/Definitions.sol": {
		"Definitions": {
			"abi": [
				{
					"inputs": [],
					"name": "Owner",
					"outputs": [
						{
							"internalType": "address",
							"name": "",
							"type": "address"
						}
					],
					"stateMutability": "view",
					"type": "function"
				},
				{
					"inputs": [
						{
							"internalType": "uint256",
							"name": "",
							"type": "uint256"
						}
					],
					"name": "PatchTrannsactions",
					"outputs": [
						{
							"internalType": "string",
							"name": "DrugRegNo",
							"type": "string"
						},
						{
							"internalType": "string",
							"name": "PatchNo",
							"type": "string"
						},
						{
							"internalType": "uint256",
							"name": "LineNo",
							"type": "uint256"
						},
						{
							"internalType": "address",
							"name": "FromID",
							"type": "address"
						},
						{
							"internalType": "address",
							"name": "ToID",
							"type": "address"
						},
						{
							"internalType": "uint256",
							"name": "Amount",
							"type": "uint256"
						},
						{
							"internalType": "uint256",
							"name": "TransactionDate",
							"type": "uint256"
						}
					],
					"stateMutability": "view",
					"type": "function"
				}
			],
			"devdoc": {
				"kind": "dev",
				"methods": {},
				"version": 1
			},
			"evm": {
				"assembly": "    /* \"contracts/Definitions.sol\":95:1927  contract Definitions {... */\n  mstore(0x40, 0x80)\n  callvalue\n  dup1\n  iszero\n  tag_1\n  jumpi\n  0x00\n  dup1\n  revert\ntag_1:\n  pop\n  dataSize(sub_0)\n  dup1\n  dataOffset(sub_0)\n  0x00\n  codecopy\n  0x00\n  return\nstop\n\nsub_0: assembly {\n        /* \"contracts/Definitions.sol\":95:1927  contract Definitions {... */\n      mstore(0x40, 0x80)\n      callvalue\n      dup1\n      iszero\n      tag_1\n      jumpi\n      0x00\n      dup1\n      revert\n    tag_1:\n      pop\n      jumpi(tag_2, lt(calldatasize, 0x04))\n      shr(0xe0, calldataload(0x00))\n      dup1\n      0x1567697c\n      eq\n      tag_3\n      jumpi\n      dup1\n      0xb4a99a4e\n      eq\n      tag_4\n      jumpi\n    tag_2:\n      0x00\n      dup1\n      revert\n        /* \"contracts/Definitions.sol\":1880:1924  PatchTransaction[] public PatchTrannsactions */\n    tag_3:\n      tag_5\n      0x04\n      dup1\n      calldatasize\n      sub\n      dup2\n      add\n      swap1\n      tag_6\n      swap2\n      swap1\n      tag_7\n      jump\t// in\n    tag_6:\n      tag_8\n      jump\t// in\n    tag_5:\n      mload(0x40)\n      tag_9\n      swap8\n      swap7\n      swap6\n      swap5\n      swap4\n      swap3\n      swap2\n      swap1\n      tag_10\n      jump\t// in\n    tag_9:\n      mload(0x40)\n      dup1\n      swap2\n      sub\n      swap1\n      return\n        /* \"contracts/Definitions.sol\":221:241  address public Owner */\n    tag_4:\n      tag_11\n      tag_12\n      jump\t// in\n    tag_11:\n      mload(0x40)\n      tag_13\n      swap2\n      swap1\n      tag_14\n      jump\t// in\n    tag_13:\n      mload(0x40)\n      dup1\n      swap2\n      sub\n      swap1\n      return\n        /* \"contracts/Definitions.sol\":1880:1924  PatchTransaction[] public PatchTrannsactions */\n    tag_8:\n      0x05\n      dup2\n      dup2\n      sload\n      dup2\n      lt\n      tag_15\n      jumpi\n      0x00\n      dup1\n      revert\n    tag_15:\n      swap1\n      0x00\n      mstore\n      keccak256(0x00, 0x20)\n      swap1\n      0x07\n      mul\n      add\n      0x00\n      swap2\n      pop\n      swap1\n      pop\n      dup1\n      0x00\n      add\n      dup1\n      sload\n      tag_17\n      swap1\n      tag_18\n      jump\t// in\n    tag_17:\n      dup1\n      0x1f\n      add\n      0x20\n      dup1\n      swap2\n      div\n      mul\n      0x20\n      add\n      mload(0x40)\n      swap1\n      dup2\n      add\n      0x40\n      mstore\n      dup1\n      swap3\n      swap2\n      swap1\n      dup2\n      dup2\n      mstore\n      0x20\n      add\n      dup3\n      dup1\n      sload\n      tag_19\n      swap1\n      tag_18\n      jump\t// in\n    tag_19:\n      dup1\n      iszero\n      tag_20\n      jumpi\n      dup1\n      0x1f\n      lt\n      tag_21\n      jumpi\n      0x0100\n      dup1\n      dup4\n      sload\n      div\n      mul\n      dup4\n      mstore\n      swap2\n      0x20\n      add\n      swap2\n      jump(tag_20)\n    tag_21:\n      dup3\n      add\n      swap2\n      swap1\n      0x00\n      mstore\n      keccak256(0x00, 0x20)\n      swap1\n    tag_22:\n      dup2\n      sload\n      dup2\n      mstore\n      swap1\n      0x01\n      add\n      swap1\n      0x20\n      add\n      dup1\n      dup4\n      gt\n      tag_22\n      jumpi\n      dup3\n      swap1\n      sub\n      0x1f\n      and\n      dup3\n      add\n      swap2\n    tag_20:\n      pop\n      pop\n      pop\n      pop\n      pop\n      swap1\n      dup1\n      0x01\n      add\n      dup1\n      sload\n      tag_23\n      swap1\n      tag_18\n      jump\t// in\n    tag_23:\n      dup1\n      0x1f\n      add\n      0x20\n      dup1\n      swap2\n      div\n      mul\n      0x20\n      add\n      mload(0x40)\n      swap1\n      dup2\n      add\n      0x40\n      mstore\n      dup1\n      swap3\n      swap2\n      swap1\n      dup2\n      dup2\n      mstore\n      0x20\n      add\n      dup3\n      dup1\n      sload\n      tag_24\n      swap1\n      tag_18\n      jump\t// in\n    tag_24:\n      dup1\n      iszero\n      tag_25\n      jumpi\n      dup1\n      0x1f\n      lt\n      tag_26\n      jumpi\n      0x0100\n      dup1\n      dup4\n      sload\n      div\n      mul\n      dup4\n      mstore\n      swap2\n      0x20\n      add\n      swap2\n      jump(tag_25)\n    tag_26:\n      dup3\n      add\n      swap2\n      swap1\n      0x00\n      mstore\n      keccak256(0x00, 0x20)\n      swap1\n    tag_27:\n      dup2\n      sload\n      dup2\n      mstore\n      swap1\n      0x01\n      add\n      swap1\n      0x20\n      add\n      dup1\n      dup4\n      gt\n      tag_27\n      jumpi\n      dup3\n      swap1\n      sub\n      0x1f\n      and\n      dup3\n      add\n      swap2\n    tag_25:\n      pop\n      pop\n      pop\n      pop\n      pop\n      swap1\n      dup1\n      0x02\n      add\n      sload\n      swap1\n      dup1\n      0x03\n      add\n      0x00\n      swap1\n      sload\n      swap1\n      0x0100\n      exp\n      swap1\n      div\n      0xffffffffffffffffffffffffffffffffffffffff\n      and\n      swap1\n      dup1\n      0x04\n      add\n      0x00\n      swap1\n      sload\n      swap1\n      0x0100\n      exp\n      swap1\n      div\n      0xffffffffffffffffffffffffffffffffffffffff\n      and\n      swap1\n      dup1\n      0x05\n      add\n      sload\n      swap1\n      dup1\n      0x06\n      add\n      sload\n      swap1\n      pop\n      dup8\n      jump\t// out\n        /* \"contracts/Definitions.sol\":221:241  address public Owner */\n    tag_12:\n      0x00\n      dup1\n      sload\n      swap1\n      0x0100\n      exp\n      swap1\n      div\n      0xffffffffffffffffffffffffffffffffffffffff\n      and\n      dup2\n      jump\t// out\n        /* \"#utility.yul\":7:146   */\n    tag_29:\n        /* \"#utility.yul\":53:58   */\n      0x00\n        /* \"#utility.yul\":91:97   */\n      dup2\n        /* \"#utility.yul\":78:98   */\n      calldataload\n        /* \"#utility.yul\":69:98   */\n      swap1\n      pop\n        /* \"#utility.yul\":107:140   */\n      tag_31\n        /* \"#utility.yul\":134:139   */\n      dup2\n        /* \"#utility.yul\":107:140   */\n      tag_32\n      jump\t// in\n    tag_31:\n        /* \"#utility.yul\":7:146   */\n      swap3\n      swap2\n      pop\n      pop\n      jump\t// out\n        /* \"#utility.yul\":152:481   */\n    tag_7:\n        /* \"#utility.yul\":211:217   */\n      0x00\n        /* \"#utility.yul\":260:262   */\n      0x20\n        /* \"#utility.yul\":248:257   */\n      dup3\n        /* \"#utility.yul\":239:246   */\n      dup5\n        /* \"#utility.yul\":235:258   */\n      sub\n        /* \"#utility.yul\":231:263   */\n      slt\n        /* \"#utility.yul\":228:347   */\n      iszero\n      tag_34\n      jumpi\n        /* \"#utility.yul\":266:345   */\n      tag_35\n      tag_36\n      jump\t// in\n    tag_35:\n        /* \"#utility.yul\":228:347   */\n    tag_34:\n        /* \"#utility.yul\":386:387   */\n      0x00\n        /* \"#utility.yul\":411:464   */\n      tag_37\n        /* \"#utility.yul\":456:463   */\n      dup5\n        /* \"#utility.yul\":447:453   */\n      dup3\n        /* \"#utility.yul\":436:445   */\n      dup6\n        /* \"#utility.yul\":432:454   */\n      add\n        /* \"#utility.yul\":411:464   */\n      tag_29\n      jump\t// in\n    tag_37:\n        /* \"#utility.yul\":401:464   */\n      swap2\n      pop\n        /* \"#utility.yul\":357:474   */\n      pop\n        /* \"#utility.yul\":152:481   */\n      swap3\n      swap2\n      pop\n      pop\n      jump\t// out\n        /* \"#utility.yul\":487:605   */\n    tag_38:\n        /* \"#utility.yul\":574:598   */\n      tag_40\n        /* \"#utility.yul\":592:597   */\n      dup2\n        /* \"#utility.yul\":574:598   */\n      tag_41\n      jump\t// in\n    tag_40:\n        /* \"#utility.yul\":569:572   */\n      dup3\n        /* \"#utility.yul\":562:599   */\n      mstore\n        /* \"#utility.yul\":487:605   */\n      pop\n      pop\n      jump\t// out\n        /* \"#utility.yul\":611:975   */\n    tag_42:\n        /* \"#utility.yul\":699:702   */\n      0x00\n        /* \"#utility.yul\":727:766   */\n      tag_44\n        /* \"#utility.yul\":760:765   */\n      dup3\n        /* \"#utility.yul\":727:766   */\n      tag_45\n      jump\t// in\n    tag_44:\n        /* \"#utility.yul\":782:853   */\n      tag_46\n        /* \"#utility.yul\":846:852   */\n      dup2\n        /* \"#utility.yul\":841:844   */\n      dup6\n        /* \"#utility.yul\":782:853   */\n      tag_47\n      jump\t// in\n    tag_46:\n        /* \"#utility.yul\":775:853   */\n      swap4\n      pop\n        /* \"#utility.yul\":862:914   */\n      tag_48\n        /* \"#utility.yul\":907:913   */\n      dup2\n        /* \"#utility.yul\":902:905   */\n      dup6\n        /* \"#utility.yul\":895:899   */\n      0x20\n        /* \"#utility.yul\":888:893   */\n      dup7\n        /* \"#utility.yul\":884:900   */\n      add\n        /* \"#utility.yul\":862:914   */\n      tag_49\n      jump\t// in\n    tag_48:\n        /* \"#utility.yul\":939:968   */\n      tag_50\n        /* \"#utility.yul\":961:967   */\n      dup2\n        /* \"#utility.yul\":939:968   */\n      tag_51\n      jump\t// in\n    tag_50:\n        /* \"#utility.yul\":934:937   */\n      dup5\n        /* \"#utility.yul\":930:969   */\n      add\n        /* \"#utility.yul\":923:969   */\n      swap2\n      pop\n        /* \"#utility.yul\":703:975   */\n      pop\n        /* \"#utility.yul\":611:975   */\n      swap3\n      swap2\n      pop\n      pop\n      jump\t// out\n        /* \"#utility.yul\":981:1099   */\n    tag_52:\n        /* \"#utility.yul\":1068:1092   */\n      tag_54\n        /* \"#utility.yul\":1086:1091   */\n      dup2\n        /* \"#utility.yul\":1068:1092   */\n      tag_55\n      jump\t// in\n    tag_54:\n        /* \"#utility.yul\":1063:1066   */\n      dup3\n        /* \"#utility.yul\":1056:1093   */\n      mstore\n        /* \"#utility.yul\":981:1099   */\n      pop\n      pop\n      jump\t// out\n        /* \"#utility.yul\":1105:1327   */\n    tag_14:\n        /* \"#utility.yul\":1198:1202   */\n      0x00\n        /* \"#utility.yul\":1236:1238   */\n      0x20\n        /* \"#utility.yul\":1225:1234   */\n      dup3\n        /* \"#utility.yul\":1221:1239   */\n      add\n        /* \"#utility.yul\":1213:1239   */\n      swap1\n      pop\n        /* \"#utility.yul\":1249:1320   */\n      tag_57\n        /* \"#utility.yul\":1317:1318   */\n      0x00\n        /* \"#utility.yul\":1306:1315   */\n      dup4\n        /* \"#utility.yul\":1302:1319   */\n      add\n        /* \"#utility.yul\":1293:1299   */\n      dup5\n        /* \"#utility.yul\":1249:1320   */\n      tag_38\n      jump\t// in\n    tag_57:\n        /* \"#utility.yul\":1105:1327   */\n      swap3\n      swap2\n      pop\n      pop\n      jump\t// out\n        /* \"#utility.yul\":1333:2401   */\n    tag_10:\n        /* \"#utility.yul\":1634:1638   */\n      0x00\n        /* \"#utility.yul\":1672:1675   */\n      0xe0\n        /* \"#utility.yul\":1661:1670   */\n      dup3\n        /* \"#utility.yul\":1657:1676   */\n      add\n        /* \"#utility.yul\":1649:1676   */\n      swap1\n      pop\n        /* \"#utility.yul\":1722:1731   */\n      dup2\n        /* \"#utility.yul\":1716:1720   */\n      dup2\n        /* \"#utility.yul\":1712:1732   */\n      sub\n        /* \"#utility.yul\":1708:1709   */\n      0x00\n        /* \"#utility.yul\":1697:1706   */\n      dup4\n        /* \"#utility.yul\":1693:1710   */\n      add\n        /* \"#utility.yul\":1686:1733   */\n      mstore\n        /* \"#utility.yul\":1750:1828   */\n      tag_59\n        /* \"#utility.yul\":1823:1827   */\n      dup2\n        /* \"#utility.yul\":1814:1820   */\n      dup11\n        /* \"#utility.yul\":1750:1828   */\n      tag_42\n      jump\t// in\n    tag_59:\n        /* \"#utility.yul\":1742:1828   */\n      swap1\n      pop\n        /* \"#utility.yul\":1875:1884   */\n      dup2\n        /* \"#utility.yul\":1869:1873   */\n      dup2\n        /* \"#utility.yul\":1865:1885   */\n      sub\n        /* \"#utility.yul\":1860:1862   */\n      0x20\n        /* \"#utility.yul\":1849:1858   */\n      dup4\n        /* \"#utility.yul\":1845:1863   */\n      add\n        /* \"#utility.yul\":1838:1886   */\n      mstore\n        /* \"#utility.yul\":1903:1981   */\n      tag_60\n        /* \"#utility.yul\":1976:1980   */\n      dup2\n        /* \"#utility.yul\":1967:1973   */\n      dup10\n        /* \"#utility.yul\":1903:1981   */\n      tag_42\n      jump\t// in\n    tag_60:\n        /* \"#utility.yul\":1895:1981   */\n      swap1\n      pop\n        /* \"#utility.yul\":1991:2063   */\n      tag_61\n        /* \"#utility.yul\":2059:2061   */\n      0x40\n        /* \"#utility.yul\":2048:2057   */\n      dup4\n        /* \"#utility.yul\":2044:2062   */\n      add\n        /* \"#utility.yul\":2035:2041   */\n      dup9\n        /* \"#utility.yul\":1991:2063   */\n      tag_52\n      jump\t// in\n    tag_61:\n        /* \"#utility.yul\":2073:2145   */\n      tag_62\n        /* \"#utility.yul\":2141:2143   */\n      0x60\n        /* \"#utility.yul\":2130:2139   */\n      dup4\n        /* \"#utility.yul\":2126:2144   */\n      add\n        /* \"#utility.yul\":2117:2123   */\n      dup8\n        /* \"#utility.yul\":2073:2145   */\n      tag_38\n      jump\t// in\n    tag_62:\n        /* \"#utility.yul\":2155:2228   */\n      tag_63\n        /* \"#utility.yul\":2223:2226   */\n      0x80\n        /* \"#utility.yul\":2212:2221   */\n      dup4\n        /* \"#utility.yul\":2208:2227   */\n      add\n        /* \"#utility.yul\":2199:2205   */\n      dup7\n        /* \"#utility.yul\":2155:2228   */\n      tag_38\n      jump\t// in\n    tag_63:\n        /* \"#utility.yul\":2238:2311   */\n      tag_64\n        /* \"#utility.yul\":2306:2309   */\n      0xa0\n        /* \"#utility.yul\":2295:2304   */\n      dup4\n        /* \"#utility.yul\":2291:2310   */\n      add\n        /* \"#utility.yul\":2282:2288   */\n      dup6\n        /* \"#utility.yul\":2238:2311   */\n      tag_52\n      jump\t// in\n    tag_64:\n        /* \"#utility.yul\":2321:2394   */\n      tag_65\n        /* \"#utility.yul\":2389:2392   */\n      0xc0\n        /* \"#utility.yul\":2378:2387   */\n      dup4\n        /* \"#utility.yul\":2374:2393   */\n      add\n        /* \"#utility.yul\":2365:2371   */\n      dup5\n        /* \"#utility.yul\":2321:2394   */\n      tag_52\n      jump\t// in\n    tag_65:\n        /* \"#utility.yul\":1333:2401   */\n      swap9\n      swap8\n      pop\n      pop\n      pop\n      pop\n      pop\n      pop\n      pop\n      pop\n      jump\t// out\n        /* \"#utility.yul\":2488:2587   */\n    tag_45:\n        /* \"#utility.yul\":2540:2546   */\n      0x00\n        /* \"#utility.yul\":2574:2579   */\n      dup2\n        /* \"#utility.yul\":2568:2580   */\n      mload\n        /* \"#utility.yul\":2558:2580   */\n      swap1\n      pop\n        /* \"#utility.yul\":2488:2587   */\n      swap2\n      swap1\n      pop\n      jump\t// out\n        /* \"#utility.yul\":2593:2762   */\n    tag_47:\n        /* \"#utility.yul\":2677:2688   */\n      0x00\n        /* \"#utility.yul\":2711:2717   */\n      dup3\n        /* \"#utility.yul\":2706:2709   */\n      dup3\n        /* \"#utility.yul\":2699:2718   */\n      mstore\n        /* \"#utility.yul\":2751:2755   */\n      0x20\n        /* \"#utility.yul\":2746:2749   */\n      dup3\n        /* \"#utility.yul\":2742:2756   */\n      add\n        /* \"#utility.yul\":2727:2756   */\n      swap1\n      pop\n        /* \"#utility.yul\":2593:2762   */\n      swap3\n      swap2\n      pop\n      pop\n      jump\t// out\n        /* \"#utility.yul\":2768:2864   */\n    tag_41:\n        /* \"#utility.yul\":2805:2812   */\n      0x00\n        /* \"#utility.yul\":2834:2858   */\n      tag_71\n        /* \"#utility.yul\":2852:2857   */\n      dup3\n        /* \"#utility.yul\":2834:2858   */\n      tag_72\n      jump\t// in\n    tag_71:\n        /* \"#utility.yul\":2823:2858   */\n      swap1\n      pop\n        /* \"#utility.yul\":2768:2864   */\n      swap2\n      swap1\n      pop\n      jump\t// out\n        /* \"#utility.yul\":2870:2996   */\n    tag_72:\n        /* \"#utility.yul\":2907:2914   */\n      0x00\n        /* \"#utility.yul\":2947:2989   */\n      0xffffffffffffffffffffffffffffffffffffffff\n        /* \"#utility.yul\":2940:2945   */\n      dup3\n        /* \"#utility.yul\":2936:2990   */\n      and\n        /* \"#utility.yul\":2925:2990   */\n      swap1\n      pop\n        /* \"#utility.yul\":2870:2996   */\n      swap2\n      swap1\n      pop\n      jump\t// out\n        /* \"#utility.yul\":3002:3079   */\n    tag_55:\n        /* \"#utility.yul\":3039:3046   */\n      0x00\n        /* \"#utility.yul\":3068:3073   */\n      dup2\n        /* \"#utility.yul\":3057:3073   */\n      swap1\n      pop\n        /* \"#utility.yul\":3002:3079   */\n      swap2\n      swap1\n      pop\n      jump\t// out\n        /* \"#utility.yul\":3085:3392   */\n    tag_49:\n        /* \"#utility.yul\":3153:3154   */\n      0x00\n        /* \"#utility.yul\":3163:3276   */\n    tag_76:\n        /* \"#utility.yul\":3177:3183   */\n      dup4\n        /* \"#utility.yul\":3174:3175   */\n      dup2\n        /* \"#utility.yul\":3171:3184   */\n      lt\n        /* \"#utility.yul\":3163:3276   */\n      iszero\n      tag_78\n      jumpi\n        /* \"#utility.yul\":3262:3263   */\n      dup1\n        /* \"#utility.yul\":3257:3260   */\n      dup3\n        /* \"#utility.yul\":3253:3264   */\n      add\n        /* \"#utility.yul\":3247:3265   */\n      mload\n        /* \"#utility.yul\":3243:3244   */\n      dup2\n        /* \"#utility.yul\":3238:3241   */\n      dup5\n        /* \"#utility.yul\":3234:3245   */\n      add\n        /* \"#utility.yul\":3227:3266   */\n      mstore\n        /* \"#utility.yul\":3199:3201   */\n      0x20\n        /* \"#utility.yul\":3196:3197   */\n      dup2\n        /* \"#utility.yul\":3192:3202   */\n      add\n        /* \"#utility.yul\":3187:3202   */\n      swap1\n      pop\n        /* \"#utility.yul\":3163:3276   */\n      jump(tag_76)\n    tag_78:\n        /* \"#utility.yul\":3294:3300   */\n      dup4\n        /* \"#utility.yul\":3291:3292   */\n      dup2\n        /* \"#utility.yul\":3288:3301   */\n      gt\n        /* \"#utility.yul\":3285:3386   */\n      iszero\n      tag_79\n      jumpi\n        /* \"#utility.yul\":3374:3375   */\n      0x00\n        /* \"#utility.yul\":3365:3371   */\n      dup5\n        /* \"#utility.yul\":3360:3363   */\n      dup5\n        /* \"#utility.yul\":3356:3372   */\n      add\n        /* \"#utility.yul\":3349:3376   */\n      mstore\n        /* \"#utility.yul\":3285:3386   */\n    tag_79:\n        /* \"#utility.yul\":3134:3392   */\n      pop\n        /* \"#utility.yul\":3085:3392   */\n      pop\n      pop\n      pop\n      jump\t// out\n        /* \"#utility.yul\":3398:3718   */\n    tag_18:\n        /* \"#utility.yul\":3442:3448   */\n      0x00\n        /* \"#utility.yul\":3479:3480   */\n      0x02\n        /* \"#utility.yul\":3473:3477   */\n      dup3\n        /* \"#utility.yul\":3469:3481   */\n      div\n        /* \"#utility.yul\":3459:3481   */\n      swap1\n      pop\n        /* \"#utility.yul\":3526:3527   */\n      0x01\n        /* \"#utility.yul\":3520:3524   */\n      dup3\n        /* \"#utility.yul\":3516:3528   */\n      and\n        /* \"#utility.yul\":3547:3565   */\n      dup1\n        /* \"#utility.yul\":3537:3618   */\n      tag_81\n      jumpi\n        /* \"#utility.yul\":3603:3607   */\n      0x7f\n        /* \"#utility.yul\":3595:3601   */\n      dup3\n        /* \"#utility.yul\":3591:3608   */\n      and\n        /* \"#utility.yul\":3581:3608   */\n      swap2\n      pop\n        /* \"#utility.yul\":3537:3618   */\n    tag_81:\n        /* \"#utility.yul\":3665:3667   */\n      0x20\n        /* \"#utility.yul\":3657:3663   */\n      dup3\n        /* \"#utility.yul\":3654:3668   */\n      lt\n        /* \"#utility.yul\":3634:3652   */\n      dup2\n        /* \"#utility.yul\":3631:3669   */\n      eq\n        /* \"#utility.yul\":3628:3712   */\n      iszero\n      tag_82\n      jumpi\n        /* \"#utility.yul\":3684:3702   */\n      tag_83\n      tag_84\n      jump\t// in\n    tag_83:\n        /* \"#utility.yul\":3628:3712   */\n    tag_82:\n        /* \"#utility.yul\":3449:3718   */\n      pop\n        /* \"#utility.yul\":3398:3718   */\n      swap2\n      swap1\n      pop\n      jump\t// out\n        /* \"#utility.yul\":3724:3904   */\n    tag_84:\n        /* \"#utility.yul\":3772:3849   */\n      0x4e487b7100000000000000000000000000000000000000000000000000000000\n        /* \"#utility.yul\":3769:3770   */\n      0x00\n        /* \"#utility.yul\":3762:3850   */\n      mstore\n        /* \"#utility.yul\":3869:3873   */\n      0x22\n        /* \"#utility.yul\":3866:3867   */\n      0x04\n        /* \"#utility.yul\":3859:3874   */\n      mstore\n        /* \"#utility.yul\":3893:3897   */\n      0x24\n        /* \"#utility.yul\":3890:3891   */\n      0x00\n        /* \"#utility.yul\":3883:3898   */\n      revert\n        /* \"#utility.yul\":4033:4150   */\n    tag_36:\n        /* \"#utility.yul\":4142:4143   */\n      0x00\n        /* \"#utility.yul\":4139:4140   */\n      dup1\n        /* \"#utility.yul\":4132:4144   */\n      revert\n        /* \"#utility.yul\":4156:4258   */\n    tag_51:\n        /* \"#utility.yul\":4197:4203   */\n      0x00\n        /* \"#utility.yul\":4248:4250   */\n      0x1f\n        /* \"#utility.yul\":4244:4251   */\n      not\n        /* \"#utility.yul\":4239:4241   */\n      0x1f\n        /* \"#utility.yul\":4232:4237   */\n      dup4\n        /* \"#utility.yul\":4228:4242   */\n      add\n        /* \"#utility.yul\":4224:4252   */\n      and\n        /* \"#utility.yul\":4214:4252   */\n      swap1\n      pop\n        /* \"#utility.yul\":4156:4258   */\n      swap2\n      swap1\n      pop\n      jump\t// out\n        /* \"#utility.yul\":4264:4386   */\n    tag_32:\n        /* \"#utility.yul\":4337:4361   */\n      tag_91\n        /* \"#utility.yul\":4355:4360   */\n      dup2\n        /* \"#utility.yul\":4337:4361   */\n      tag_55\n      jump\t// in\n    tag_91:\n        /* \"#utility.yul\":4330:4335   */\n      dup2\n        /* \"#utility.yul\":4327:4362   */\n      eq\n        /* \"#utility.yul\":4317:4380   */\n      tag_92\n      jumpi\n        /* \"#utility.yul\":4376:4377   */\n      0x00\n        /* \"#utility.yul\":4373:4374   */\n      dup1\n        /* \"#utility.yul\":4366:4378   */\n      revert\n        /* \"#utility.yul\":4317:4380   */\n    tag_92:\n        /* \"#utility.yul\":4264:4386   */\n      pop\n      jump\t// out\n\n    auxdata: 0xa26469706673582212201aaf4e0a0f58ed987b7545da47b2a270ff680bedc24750aea3cf1096710f288064736f6c63430008070033\n}\n",
				"bytecode": {
					"linkReferences": {},
					"object": "608060405234801561001057600080fd5b506104d5806100206000396000f3fe608060405234801561001057600080fd5b50600436106100365760003560e01c80631567697c1461003b578063b4a99a4e14610071575b600080fd5b6100556004803603810190610050919061026a565b61008f565b6040516100689796959493929190610309565b60405180910390f35b610079610231565b60405161008691906102ee565b60405180910390f35b6005818154811061009f57600080fd5b90600052602060002090600702016000915090508060000180546100c290610411565b80601f01602080910402602001604051908101604052809291908181526020018280546100ee90610411565b801561013b5780601f106101105761010080835404028352916020019161013b565b820191906000526020600020905b81548152906001019060200180831161011e57829003601f168201915b50505050509080600101805461015090610411565b80601f016020809104026020016040519081016040528092919081815260200182805461017c90610411565b80156101c95780601f1061019e576101008083540402835291602001916101c9565b820191906000526020600020905b8154815290600101906020018083116101ac57829003601f168201915b5050505050908060020154908060030160009054906101000a900473ffffffffffffffffffffffffffffffffffffffff16908060040160009054906101000a900473ffffffffffffffffffffffffffffffffffffffff16908060050154908060060154905087565b60008054906101000a900473ffffffffffffffffffffffffffffffffffffffff1681565b60008135905061026481610488565b92915050565b6000602082840312156102805761027f610472565b5b600061028e84828501610255565b91505092915050565b6102a0816103a2565b82525050565b60006102b182610386565b6102bb8185610391565b93506102cb8185602086016103de565b6102d481610477565b840191505092915050565b6102e8816103d4565b82525050565b60006020820190506103036000830184610297565b92915050565b600060e0820190508181036000830152610323818a6102a6565b9050818103602083015261033781896102a6565b905061034660408301886102df565b6103536060830187610297565b6103606080830186610297565b61036d60a08301856102df565b61037a60c08301846102df565b98975050505050505050565b600081519050919050565b600082825260208201905092915050565b60006103ad826103b4565b9050919050565b600073ffffffffffffffffffffffffffffffffffffffff82169050919050565b6000819050919050565b60005b838110156103fc5780820151818401526020810190506103e1565b8381111561040b576000848401525b50505050565b6000600282049050600182168061042957607f821691505b6020821081141561043d5761043c610443565b5b50919050565b7f4e487b7100000000000000000000000000000000000000000000000000000000600052602260045260246000fd5b600080fd5b6000601f19601f8301169050919050565b610491816103d4565b811461049c57600080fd5b5056fea26469706673582212201aaf4e0a0f58ed987b7545da47b2a270ff680bedc24750aea3cf1096710f288064736f6c63430008070033",
					"opcodes": "PUSH1 0x80 PUSH1 0x40 MSTORE CALLVALUE DUP1 ISZERO PUSH2 0x10 JUMPI PUSH1 0x0 DUP1 REVERT JUMPDEST POP PUSH2 0x4D5 DUP1 PUSH2 0x20 PUSH1 0x0 CODECOPY PUSH1 0x0 RETURN INVALID PUSH1 0x80 PUSH1 0x40 MSTORE CALLVALUE DUP1 ISZERO PUSH2 0x10 JUMPI PUSH1 0x0 DUP1 REVERT JUMPDEST POP PUSH1 0x4 CALLDATASIZE LT PUSH2 0x36 JUMPI PUSH1 0x0 CALLDATALOAD PUSH1 0xE0 SHR DUP1 PUSH4 0x1567697C EQ PUSH2 0x3B JUMPI DUP1 PUSH4 0xB4A99A4E EQ PUSH2 0x71 JUMPI JUMPDEST PUSH1 0x0 DUP1 REVERT JUMPDEST PUSH2 0x55 PUSH1 0x4 DUP1 CALLDATASIZE SUB DUP2 ADD SWAP1 PUSH2 0x50 SWAP2 SWAP1 PUSH2 0x26A JUMP JUMPDEST PUSH2 0x8F JUMP JUMPDEST PUSH1 0x40 MLOAD PUSH2 0x68 SWAP8 SWAP7 SWAP6 SWAP5 SWAP4 SWAP3 SWAP2 SWAP1 PUSH2 0x309 JUMP JUMPDEST PUSH1 0x40 MLOAD DUP1 SWAP2 SUB SWAP1 RETURN JUMPDEST PUSH2 0x79 PUSH2 0x231 JUMP JUMPDEST PUSH1 0x40 MLOAD PUSH2 0x86 SWAP2 SWAP1 PUSH2 0x2EE JUMP JUMPDEST PUSH1 0x40 MLOAD DUP1 SWAP2 SUB SWAP1 RETURN JUMPDEST PUSH1 0x5 DUP2 DUP2 SLOAD DUP2 LT PUSH2 0x9F JUMPI PUSH1 0x0 DUP1 REVERT JUMPDEST SWAP1 PUSH1 0x0 MSTORE PUSH1 0x20 PUSH1 0x0 KECCAK256 SWAP1 PUSH1 0x7 MUL ADD PUSH1 0x0 SWAP2 POP SWAP1 POP DUP1 PUSH1 0x0 ADD DUP1 SLOAD PUSH2 0xC2 SWAP1 PUSH2 0x411 JUMP JUMPDEST DUP1 PUSH1 0x1F ADD PUSH1 0x20 DUP1 SWAP2 DIV MUL PUSH1 0x20 ADD PUSH1 0x40 MLOAD SWAP1 DUP2 ADD PUSH1 0x40 MSTORE DUP1 SWAP3 SWAP2 SWAP1 DUP2 DUP2 MSTORE PUSH1 0x20 ADD DUP3 DUP1 SLOAD PUSH2 0xEE SWAP1 PUSH2 0x411 JUMP JUMPDEST DUP1 ISZERO PUSH2 0x13B JUMPI DUP1 PUSH1 0x1F LT PUSH2 0x110 JUMPI PUSH2 0x100 DUP1 DUP4 SLOAD DIV MUL DUP4 MSTORE SWAP2 PUSH1 0x20 ADD SWAP2 PUSH2 0x13B JUMP JUMPDEST DUP3 ADD SWAP2 SWAP1 PUSH1 0x0 MSTORE PUSH1 0x20 PUSH1 0x0 KECCAK256 SWAP1 JUMPDEST DUP2 SLOAD DUP2 MSTORE SWAP1 PUSH1 0x1 ADD SWAP1 PUSH1 0x20 ADD DUP1 DUP4 GT PUSH2 0x11E JUMPI DUP3 SWAP1 SUB PUSH1 0x1F AND DUP3 ADD SWAP2 JUMPDEST POP POP POP POP POP SWAP1 DUP1 PUSH1 0x1 ADD DUP1 SLOAD PUSH2 0x150 SWAP1 PUSH2 0x411 JUMP JUMPDEST DUP1 PUSH1 0x1F ADD PUSH1 0x20 DUP1 SWAP2 DIV MUL PUSH1 0x20 ADD PUSH1 0x40 MLOAD SWAP1 DUP2 ADD PUSH1 0x40 MSTORE DUP1 SWAP3 SWAP2 SWAP1 DUP2 DUP2 MSTORE PUSH1 0x20 ADD DUP3 DUP1 SLOAD PUSH2 0x17C SWAP1 PUSH2 0x411 JUMP JUMPDEST DUP1 ISZERO PUSH2 0x1C9 JUMPI DUP1 PUSH1 0x1F LT PUSH2 0x19E JUMPI PUSH2 0x100 DUP1 DUP4 SLOAD DIV MUL DUP4 MSTORE SWAP2 PUSH1 0x20 ADD SWAP2 PUSH2 0x1C9 JUMP JUMPDEST DUP3 ADD SWAP2 SWAP1 PUSH1 0x0 MSTORE PUSH1 0x20 PUSH1 0x0 KECCAK256 SWAP1 JUMPDEST DUP2 SLOAD DUP2 MSTORE SWAP1 PUSH1 0x1 ADD SWAP1 PUSH1 0x20 ADD DUP1 DUP4 GT PUSH2 0x1AC JUMPI DUP3 SWAP1 SUB PUSH1 0x1F AND DUP3 ADD SWAP2 JUMPDEST POP POP POP POP POP SWAP1 DUP1 PUSH1 0x2 ADD SLOAD SWAP1 DUP1 PUSH1 0x3 ADD PUSH1 0x0 SWAP1 SLOAD SWAP1 PUSH2 0x100 EXP SWAP1 DIV PUSH20 0xFFFFFFFFFFFFFFFFFFFFFFFFFFFFFFFFFFFFFFFF AND SWAP1 DUP1 PUSH1 0x4 ADD PUSH1 0x0 SWAP1 SLOAD SWAP1 PUSH2 0x100 EXP SWAP1 DIV PUSH20 0xFFFFFFFFFFFFFFFFFFFFFFFFFFFFFFFFFFFFFFFF AND SWAP1 DUP1 PUSH1 0x5 ADD SLOAD SWAP1 DUP1 PUSH1 0x6 ADD SLOAD SWAP1 POP DUP8 JUMP JUMPDEST PUSH1 0x0 DUP1 SLOAD SWAP1 PUSH2 0x100 EXP SWAP1 DIV PUSH20 0xFFFFFFFFFFFFFFFFFFFFFFFFFFFFFFFFFFFFFFFF AND DUP2 JUMP JUMPDEST PUSH1 0x0 DUP2 CALLDATALOAD SWAP1 POP PUSH2 0x264 DUP2 PUSH2 0x488 JUMP JUMPDEST SWAP3 SWAP2 POP POP JUMP JUMPDEST PUSH1 0x0 PUSH1 0x20 DUP3 DUP5 SUB SLT ISZERO PUSH2 0x280 JUMPI PUSH2 0x27F PUSH2 0x472 JUMP JUMPDEST JUMPDEST PUSH1 0x0 PUSH2 0x28E DUP5 DUP3 DUP6 ADD PUSH2 0x255 JUMP JUMPDEST SWAP2 POP POP SWAP3 SWAP2 POP POP JUMP JUMPDEST PUSH2 0x2A0 DUP2 PUSH2 0x3A2 JUMP JUMPDEST DUP3 MSTORE POP POP JUMP JUMPDEST PUSH1 0x0 PUSH2 0x2B1 DUP3 PUSH2 0x386 JUMP JUMPDEST PUSH2 0x2BB DUP2 DUP6 PUSH2 0x391 JUMP JUMPDEST SWAP4 POP PUSH2 0x2CB DUP2 DUP6 PUSH1 0x20 DUP7 ADD PUSH2 0x3DE JUMP JUMPDEST PUSH2 0x2D4 DUP2 PUSH2 0x477 JUMP JUMPDEST DUP5 ADD SWAP2 POP POP SWAP3 SWAP2 POP POP JUMP JUMPDEST PUSH2 0x2E8 DUP2 PUSH2 0x3D4 JUMP JUMPDEST DUP3 MSTORE POP POP JUMP JUMPDEST PUSH1 0x0 PUSH1 0x20 DUP3 ADD SWAP1 POP PUSH2 0x303 PUSH1 0x0 DUP4 ADD DUP5 PUSH2 0x297 JUMP JUMPDEST SWAP3 SWAP2 POP POP JUMP JUMPDEST PUSH1 0x0 PUSH1 0xE0 DUP3 ADD SWAP1 POP DUP2 DUP2 SUB PUSH1 0x0 DUP4 ADD MSTORE PUSH2 0x323 DUP2 DUP11 PUSH2 0x2A6 JUMP JUMPDEST SWAP1 POP DUP2 DUP2 SUB PUSH1 0x20 DUP4 ADD MSTORE PUSH2 0x337 DUP2 DUP10 PUSH2 0x2A6 JUMP JUMPDEST SWAP1 POP PUSH2 0x346 PUSH1 0x40 DUP4 ADD DUP9 PUSH2 0x2DF JUMP JUMPDEST PUSH2 0x353 PUSH1 0x60 DUP4 ADD DUP8 PUSH2 0x297 JUMP JUMPDEST PUSH2 0x360 PUSH1 0x80 DUP4 ADD DUP7 PUSH2 0x297 JUMP JUMPDEST PUSH2 0x36D PUSH1 0xA0 DUP4 ADD DUP6 PUSH2 0x2DF JUMP JUMPDEST PUSH2 0x37A PUSH1 0xC0 DUP4 ADD DUP5 PUSH2 0x2DF JUMP JUMPDEST SWAP9 SWAP8 POP POP POP POP POP POP POP POP JUMP JUMPDEST PUSH1 0x0 DUP2 MLOAD SWAP1 POP SWAP2 SWAP1 POP JUMP JUMPDEST PUSH1 0x0 DUP3 DUP3 MSTORE PUSH1 0x20 DUP3 ADD SWAP1 POP SWAP3 SWAP2 POP POP JUMP JUMPDEST PUSH1 0x0 PUSH2 0x3AD DUP3 PUSH2 0x3B4 JUMP JUMPDEST SWAP1 POP SWAP2 SWAP1 POP JUMP JUMPDEST PUSH1 0x0 PUSH20 0xFFFFFFFFFFFFFFFFFFFFFFFFFFFFFFFFFFFFFFFF DUP3 AND SWAP1 POP SWAP2 SWAP1 POP JUMP JUMPDEST PUSH1 0x0 DUP2 SWAP1 POP SWAP2 SWAP1 POP JUMP JUMPDEST PUSH1 0x0 JUMPDEST DUP4 DUP2 LT ISZERO PUSH2 0x3FC JUMPI DUP1 DUP3 ADD MLOAD DUP2 DUP5 ADD MSTORE PUSH1 0x20 DUP2 ADD SWAP1 POP PUSH2 0x3E1 JUMP JUMPDEST DUP4 DUP2 GT ISZERO PUSH2 0x40B JUMPI PUSH1 0x0 DUP5 DUP5 ADD MSTORE JUMPDEST POP POP POP POP JUMP JUMPDEST PUSH1 0x0 PUSH1 0x2 DUP3 DIV SWAP1 POP PUSH1 0x1 DUP3 AND DUP1 PUSH2 0x429 JUMPI PUSH1 0x7F DUP3 AND SWAP2 POP JUMPDEST PUSH1 0x20 DUP3 LT DUP2 EQ ISZERO PUSH2 0x43D JUMPI PUSH2 0x43C PUSH2 0x443 JUMP JUMPDEST JUMPDEST POP SWAP2 SWAP1 POP JUMP JUMPDEST PUSH32 0x4E487B7100000000000000000000000000000000000000000000000000000000 PUSH1 0x0 MSTORE PUSH1 0x22 PUSH1 0x4 MSTORE PUSH1 0x24 PUSH1 0x0 REVERT JUMPDEST PUSH1 0x0 DUP1 REVERT JUMPDEST PUSH1 0x0 PUSH1 0x1F NOT PUSH1 0x1F DUP4 ADD AND SWAP1 POP SWAP2 SWAP1 POP JUMP JUMPDEST PUSH2 0x491 DUP2 PUSH2 0x3D4 JUMP JUMPDEST DUP2 EQ PUSH2 0x49C JUMPI PUSH1 0x0 DUP1 REVERT JUMPDEST POP JUMP INVALID LOG2 PUSH5 0x6970667358 0x22 SLT KECCAK256 BYTE 0xAF 0x4E EXP 0xF PC 0xED SWAP9 PUSH28 0x7545DA47B2A270FF680BEDC24750AEA3CF1096710F288064736F6C63 NUMBER STOP ADDMOD SMOD STOP CALLER "
				},
				"gasEstimates": {
					"creation": {
						"codeDepositCost": "247400",
						"executionCost": "287",
						"totalCost": "247687"
					},
					"external": {
						"Owner()": "2511",
						"PatchTrannsactions(uint256)": "infinite"
					}
				},
				"methodIdentifiers": {
					"Owner()": "b4a99a4e",
					"PatchTrannsactions(uint256)": "1567697c"
				}
			},
			"storageLayout": {
				"storage": [
					{
						"astId": 8,
						"contract": "contracts/Definitions.sol:Definitions",
						"label": "Owner",
						"offset": 0,
						"slot": "0",
						"type": "t_address"
					},
					{
						"astId": 40,
						"contract": "contracts/Definitions.sol:Definitions",
						"label": "UserAddressMapping",
						"offset": 0,
						"slot": "1",
						"type": "t_mapping(t_address,t_struct(User)35_storage)"
					},
					{
						"astId": 43,
						"contract": "contracts/Definitions.sol:Definitions",
						"label": "UsersAddresses",
						"offset": 0,
						"slot": "2",
						"type": "t_array(t_address)dyn_storage"
					},
					{
						"astId": 78,
						"contract": "contracts/Definitions.sol:Definitions",
						"label": "DrugRegNoMapping",
						"offset": 0,
						"slot": "3",
						"type": "t_mapping(t_string_memory_ptr,t_struct(Drug)53_storage)"
					},
					{
						"astId": 81,
						"contract": "contracts/Definitions.sol:Definitions",
						"label": "DrugsRegNos",
						"offset": 0,
						"slot": "4",
						"type": "t_array(t_string_storage)dyn_storage"
					},
					{
						"astId": 125,
						"contract": "contracts/Definitions.sol:Definitions",
						"label": "PatchTrannsactions",
						"offset": 0,
						"slot": "5",
						"type": "t_array(t_struct(PatchTransaction)96_storage)dyn_storage"
					}
				],
				"types": {
					"t_address": {
						"encoding": "inplace",
						"label": "address",
						"numberOfBytes": "20"
					},
					"t_array(t_address)dyn_storage": {
						"base": "t_address",
						"encoding": "dynamic_array",
						"label": "address[]",
						"numberOfBytes": "32"
					},
					"t_array(t_string_storage)dyn_storage": {
						"base": "t_string_storage",
						"encoding": "dynamic_array",
						"label": "string[]",
						"numberOfBytes": "32"
					},
					"t_array(t_struct(PatchTransaction)96_storage)dyn_storage": {
						"base": "t_struct(PatchTransaction)96_storage",
						"encoding": "dynamic_array",
						"label": "struct Definitions.PatchTransaction[]",
						"numberOfBytes": "32"
					},
					"t_enum(Statuses)6": {
						"encoding": "inplace",
						"label": "enum Definitions.Statuses",
						"numberOfBytes": "1"
					},
					"t_enum(UserRoles)18": {
						"encoding": "inplace",
						"label": "enum Definitions.UserRoles",
						"numberOfBytes": "1"
					},
					"t_mapping(t_address,t_struct(User)35_storage)": {
						"encoding": "mapping",
						"key": "t_address",
						"label": "mapping(address => struct Definitions.User)",
						"numberOfBytes": "32",
						"value": "t_struct(User)35_storage"
					},
					"t_mapping(t_string_memory_ptr,t_struct(Drug)53_storage)": {
						"encoding": "mapping",
						"key": "t_string_memory_ptr",
						"label": "mapping(string => struct Definitions.Drug)",
						"numberOfBytes": "32",
						"value": "t_struct(Drug)53_storage"
					},
					"t_string_memory_ptr": {
						"encoding": "bytes",
						"label": "string",
						"numberOfBytes": "32"
					},
					"t_string_storage": {
						"encoding": "bytes",
						"label": "string",
						"numberOfBytes": "32"
					},
					"t_struct(Drug)53_storage": {
						"encoding": "inplace",
						"label": "struct Definitions.Drug",
						"members": [
							{
								"astId": 45,
								"contract": "contracts/Definitions.sol:Definitions",
								"label": "DrugName",
								"offset": 0,
								"slot": "0",
								"type": "t_string_storage"
							},
							{
								"astId": 47,
								"contract": "contracts/Definitions.sol:Definitions",
								"label": "Manufacturer",
								"offset": 0,
								"slot": "1",
								"type": "t_address"
							},
							{
								"astId": 50,
								"contract": "contracts/Definitions.sol:Definitions",
								"label": "DrugStatus",
								"offset": 20,
								"slot": "1",
								"type": "t_enum(Statuses)6"
							},
							{
								"astId": 52,
								"contract": "contracts/Definitions.sol:Definitions",
								"label": "DrugRegNo",
								"offset": 0,
								"slot": "2",
								"type": "t_string_storage"
							}
						],
						"numberOfBytes": "96"
					},
					"t_struct(PatchTransaction)96_storage": {
						"encoding": "inplace",
						"label": "struct Definitions.PatchTransaction",
						"members": [
							{
								"astId": 83,
								"contract": "contracts/Definitions.sol:Definitions",
								"label": "DrugRegNo",
								"offset": 0,
								"slot": "0",
								"type": "t_string_storage"
							},
							{
								"astId": 85,
								"contract": "contracts/Definitions.sol:Definitions",
								"label": "PatchNo",
								"offset": 0,
								"slot": "1",
								"type": "t_string_storage"
							},
							{
								"astId": 87,
								"contract": "contracts/Definitions.sol:Definitions",
								"label": "LineNo",
								"offset": 0,
								"slot": "2",
								"type": "t_uint256"
							},
							{
								"astId": 89,
								"contract": "contracts/Definitions.sol:Definitions",
								"label": "FromID",
								"offset": 0,
								"slot": "3",
								"type": "t_address"
							},
							{
								"astId": 91,
								"contract": "contracts/Definitions.sol:Definitions",
								"label": "ToID",
								"offset": 0,
								"slot": "4",
								"type": "t_address"
							},
							{
								"astId": 93,
								"contract": "contracts/Definitions.sol:Definitions",
								"label": "Amount",
								"offset": 0,
								"slot": "5",
								"type": "t_uint256"
							},
							{
								"astId": 95,
								"contract": "contracts/Definitions.sol:Definitions",
								"label": "TransactionDate",
								"offset": 0,
								"slot": "6",
								"type": "t_uint256"
							}
						],
						"numberOfBytes": "224"
					},
					"t_struct(User)35_storage": {
						"encoding": "inplace",
						"label": "struct Definitions.User",
						"members": [
							{
								"astId": 20,
								"contract": "contracts/Definitions.sol:Definitions",
								"label": "UserID",
								"offset": 0,
								"slot": "0",
								"type": "t_string_storage"
							},
							{
								"astId": 22,
								"contract": "contracts/Definitions.sol:Definitions",
								"label": "UserName",
								"offset": 0,
								"slot": "1",
								"type": "t_string_storage"
							},
							{
								"astId": 25,
								"contract": "contracts/Definitions.sol:Definitions",
								"label": "UserRole",
								"offset": 0,
								"slot": "2",
								"type": "t_enum(UserRoles)18"
							},
							{
								"astId": 28,
								"contract": "contracts/Definitions.sol:Definitions",
								"label": "UserStatus",
								"offset": 1,
								"slot": "2",
								"type": "t_enum(Statuses)6"
							},
							{
								"astId": 30,
								"contract": "contracts/Definitions.sol:Definitions",
								"label": "Latitude",
								"offset": 0,
								"slot": "3",
								"type": "t_string_storage"
							},
							{
								"astId": 32,
								"contract": "contracts/Definitions.sol:Definitions",
								"label": "Longitude",
								"offset": 0,
								"slot": "4",
								"type": "t_string_storage"
							},
							{
								"astId": 34,
								"contract": "contracts/Definitions.sol:Definitions",
								"label": "UserAddress",
								"offset": 0,
								"slot": "5",
								"type": "t_address"
							}
						],
						"numberOfBytes": "192"
					},
					"t_uint256": {
						"encoding": "inplace",
						"label": "uint256",
						"numberOfBytes": "32"
					}
				}
			},
			"userdoc": {
				"kind": "user",
				"methods": {},
				"version": 1
			}
		}
	}
}