{
	"contracts/Utils.sol": {
		"Utils": {
			"abi": [
				{
					"inputs": [
						{
							"internalType": "enum Definitions.Statuses",
							"name": "_status",
							"type": "uint8"
						}
					],
					"name": "GetUsersByStatus",
					"outputs": [
						{
							"components": [
								{
									"internalType": "string",
									"name": "UserID",
									"type": "string"
								},
								{
									"internalType": "string",
									"name": "UserName",
									"type": "string"
								},
								{
									"internalType": "enum Definitions.UserRoles",
									"name": "UserRole",
									"type": "uint8"
								},
								{
									"internalType": "enum Definitions.Statuses",
									"name": "UserStatus",
									"type": "uint8"
								},
								{
									"internalType": "string",
									"name": "Latitude",
									"type": "string"
								},
								{
									"internalType": "string",
									"name": "Longitude",
									"type": "string"
								},
								{
									"internalType": "address",
									"name": "UserAddress",
									"type": "address"
								}
							],
							"internalType": "struct Definitions.User[]",
							"name": "filteredUsers",
							"type": "tuple[]"
						}
					],
					"stateMutability": "view",
					"type": "function"
				},
				{
					"inputs": [
						{
							"internalType": "enum Definitions.UserRoles",
							"name": "_role",
							"type": "uint8"
						}
					],
					"name": "GetUsersByType",
					"outputs": [
						{
							"components": [
								{
									"internalType": "string",
									"name": "UserID",
									"type": "string"
								},
								{
									"internalType": "string",
									"name": "UserName",
									"type": "string"
								},
								{
									"internalType": "enum Definitions.UserRoles",
									"name": "UserRole",
									"type": "uint8"
								},
								{
									"internalType": "enum Definitions.Statuses",
									"name": "UserStatus",
									"type": "uint8"
								},
								{
									"internalType": "string",
									"name": "Latitude",
									"type": "string"
								},
								{
									"internalType": "string",
									"name": "Longitude",
									"type": "string"
								},
								{
									"internalType": "address",
									"name": "UserAddress",
									"type": "address"
								}
							],
							"internalType": "struct Definitions.User[]",
							"name": "filteredUsers",
							"type": "tuple[]"
						}
					],
					"stateMutability": "view",
					"type": "function"
				},
				{
					"inputs": [],
					"name": "Owner",
					"outputs": [
						{
							"internalType": "address",
							"name": "",
							"type": "address"
						}
					],
					"stateMutability": "view",
					"type": "function"
				},
				{
					"inputs": [
						{
							"internalType": "uint256",
							"name": "",
							"type": "uint256"
						}
					],
					"name": "PatchTrannsactions",
					"outputs": [
						{
							"internalType": "string",
							"name": "DrugRegNo",
							"type": "string"
						},
						{
							"internalType": "string",
							"name": "PatchNo",
							"type": "string"
						},
						{
							"internalType": "uint256",
							"name": "LineNo",
							"type": "uint256"
						},
						{
							"internalType": "address",
							"name": "FromID",
							"type": "address"
						},
						{
							"internalType": "address",
							"name": "ToID",
							"type": "address"
						},
						{
							"internalType": "uint256",
							"name": "Amount",
							"type": "uint256"
						},
						{
							"internalType": "uint256",
							"name": "TransactionDate",
							"type": "uint256"
						}
					],
					"stateMutability": "view",
					"type": "function"
				},
				{
					"inputs": [
						{
							"internalType": "string",
							"name": "_regno",
							"type": "string"
						}
					],
					"name": "ReadDrug",
					"outputs": [
						{
							"components": [
								{
									"internalType": "string",
									"name": "DrugName",
									"type": "string"
								},
								{
									"internalType": "address",
									"name": "Manufacturer",
									"type": "address"
								},
								{
									"internalType": "enum Definitions.Statuses",
									"name": "DrugStatus",
									"type": "uint8"
								},
								{
									"internalType": "string",
									"name": "DrugRegNo",
									"type": "string"
								}
							],
							"internalType": "struct Definitions.Drug",
							"name": "",
							"type": "tuple"
						}
					],
					"stateMutability": "view",
					"type": "function"
				},
				{
					"inputs": [
						{
							"internalType": "address",
							"name": "_useraddress",
							"type": "address"
						}
					],
					"name": "ReadDrugsByUser",
					"outputs": [
						{
							"components": [
								{
									"internalType": "string",
									"name": "DrugName",
									"type": "string"
								},
								{
									"internalType": "address",
									"name": "Manufacturer",
									"type": "address"
								},
								{
									"internalType": "enum Definitions.Statuses",
									"name": "DrugStatus",
									"type": "uint8"
								},
								{
									"internalType": "string",
									"name": "DrugRegNo",
									"type": "string"
								}
							],
							"internalType": "struct Definitions.Drug[]",
							"name": "DrugsList",
							"type": "tuple[]"
						}
					],
					"stateMutability": "view",
					"type": "function"
				},
				{
					"inputs": [
						{
							"internalType": "enum Definitions.Statuses",
							"name": "_drugstatus",
							"type": "uint8"
						}
					],
					"name": "ReadDrugsWithManufacturer",
					"outputs": [
						{
							"components": [
								{
									"internalType": "string",
									"name": "DrugName",
									"type": "string"
								},
								{
									"internalType": "address",
									"name": "Manufacturer",
									"type": "address"
								},
								{
									"internalType": "enum Definitions.Statuses",
									"name": "DrugStatus",
									"type": "uint8"
								},
								{
									"internalType": "string",
									"name": "DrugRegNo",
									"type": "string"
								},
								{
									"internalType": "string",
									"name": "ManName",
									"type": "string"
								}
							],
							"internalType": "struct Definitions.DrugMan[]",
							"name": "DrugsList",
							"type": "tuple[]"
						}
					],
					"stateMutability": "view",
					"type": "function"
				},
				{
					"inputs": [
						{
							"internalType": "string",
							"name": "_patchno",
							"type": "string"
						},
						{
							"internalType": "string",
							"name": "_drugno",
							"type": "string"
						},
						{
							"internalType": "address",
							"name": "_fromaddress",
							"type": "address"
						}
					],
					"name": "ReadParentAndSiblingsTransactions",
					"outputs": [
						{
							"components": [
								{
									"internalType": "string",
									"name": "DrugRegNo",
									"type": "string"
								},
								{
									"internalType": "string",
									"name": "PatchNo",
									"type": "string"
								},
								{
									"internalType": "uint256",
									"name": "LineNo",
									"type": "uint256"
								},
								{
									"internalType": "address",
									"name": "FromID",
									"type": "address"
								},
								{
									"internalType": "address",
									"name": "ToID",
									"type": "address"
								},
								{
									"internalType": "uint256",
									"name": "Amount",
									"type": "uint256"
								},
								{
									"internalType": "uint256",
									"name": "TransactionDate",
									"type": "uint256"
								}
							],
							"internalType": "struct Definitions.PatchTransaction[]",
							"name": "UserTransaction",
							"type": "tuple[]"
						}
					],
					"stateMutability": "view",
					"type": "function"
				},
				{
					"inputs": [],
					"name": "ReadRoleByUser",
					"outputs": [
						{
							"internalType": "enum Definitions.UserRoles",
							"name": "_userrole",
							"type": "uint8"
						}
					],
					"stateMutability": "view",
					"type": "function"
				},
				{
					"inputs": [
						{
							"internalType": "string",
							"name": "_drugno",
							"type": "string"
						}
					],
					"name": "ReadTransactionsByDrug",
					"outputs": [
						{
							"components": [
								{
									"internalType": "string",
									"name": "DrugRegNo",
									"type": "string"
								},
								{
									"internalType": "string",
									"name": "PatchNo",
									"type": "string"
								},
								{
									"internalType": "uint256",
									"name": "LineNo",
									"type": "uint256"
								},
								{
									"internalType": "address",
									"name": "FromID",
									"type": "address"
								},
								{
									"internalType": "address",
									"name": "ToID",
									"type": "address"
								},
								{
									"internalType": "uint256",
									"name": "Amount",
									"type": "uint256"
								},
								{
									"internalType": "uint256",
									"name": "TransactionDate",
									"type": "uint256"
								}
							],
							"internalType": "struct Definitions.PatchTransaction[]",
							"name": "UserTransaction",
							"type": "tuple[]"
						}
					],
					"stateMutability": "view",
					"type": "function"
				},
				{
					"inputs": [
						{
							"internalType": "string",
							"name": "_patchno",
							"type": "string"
						},
						{
							"internalType": "string",
							"name": "_drugno",
							"type": "string"
						}
					],
					"name": "ReadTransactionsByPatchNo",
					"outputs": [
						{
							"components": [
								{
									"internalType": "string",
									"name": "DrugRegNo",
									"type": "string"
								},
								{
									"internalType": "string",
									"name": "PatchNo",
									"type": "string"
								},
								{
									"internalType": "uint256",
									"name": "LineNo",
									"type": "uint256"
								},
								{
									"internalType": "address",
									"name": "FromID",
									"type": "address"
								},
								{
									"internalType": "string",
									"name": "FromName",
									"type": "string"
								},
								{
									"internalType": "enum Definitions.UserRoles",
									"name": "FromRole",
									"type": "uint8"
								},
								{
									"internalType": "address",
									"name": "ToID",
									"type": "address"
								},
								{
									"internalType": "string",
									"name": "ToName",
									"type": "string"
								},
								{
									"internalType": "enum Definitions.UserRoles",
									"name": "ToRole",
									"type": "uint8"
								},
								{
									"internalType": "uint256",
									"name": "Amount",
									"type": "uint256"
								},
								{
									"internalType": "uint256",
									"name": "TransactionDate",
									"type": "uint256"
								}
							],
							"internalType": "struct Definitions.PatchTransactionsFullData[]",
							"name": "UserTransaction",
							"type": "tuple[]"
						}
					],
					"stateMutability": "view",
					"type": "function"
				},
				{
					"inputs": [
						{
							"internalType": "address",
							"name": "_useraddress",
							"type": "address"
						}
					],
					"name": "ReadTransactionsByUser",
					"outputs": [
						{
							"components": [
								{
									"internalType": "string",
									"name": "DrugRegNo",
									"type": "string"
								},
								{
									"internalType": "string",
									"name": "PatchNo",
									"type": "string"
								},
								{
									"internalType": "uint256",
									"name": "LineNo",
									"type": "uint256"
								},
								{
									"internalType": "address",
									"name": "FromID",
									"type": "address"
								},
								{
									"internalType": "address",
									"name": "ToID",
									"type": "address"
								},
								{
									"internalType": "uint256",
									"name": "Amount",
									"type": "uint256"
								},
								{
									"internalType": "uint256",
									"name": "TransactionDate",
									"type": "uint256"
								}
							],
							"internalType": "struct Definitions.PatchTransaction[]",
							"name": "UserTransaction",
							"type": "tuple[]"
						}
					],
					"stateMutability": "view",
					"type": "function"
				},
				{
					"inputs": [
						{
							"internalType": "address",
							"name": "_address",
							"type": "address"
						}
					],
					"name": "ReadUser",
					"outputs": [
						{
							"components": [
								{
									"internalType": "string",
									"name": "UserID",
									"type": "string"
								},
								{
									"internalType": "string",
									"name": "UserName",
									"type": "string"
								},
								{
									"internalType": "enum Definitions.UserRoles",
									"name": "UserRole",
									"type": "uint8"
								},
								{
									"internalType": "enum Definitions.Statuses",
									"name": "UserStatus",
									"type": "uint8"
								},
								{
									"internalType": "string",
									"name": "Latitude",
									"type": "string"
								},
								{
									"internalType": "string",
									"name": "Longitude",
									"type": "string"
								},
								{
									"internalType": "address",
									"name": "UserAddress",
									"type": "address"
								}
							],
							"internalType": "struct Definitions.User",
							"name": "",
							"type": "tuple"
						}
					],
					"stateMutability": "view",
					"type": "function"
				},
				{
					"inputs": [
						{
							"internalType": "string",
							"name": "_patchno",
							"type": "string"
						},
						{
							"internalType": "string",
							"name": "_drugno",
							"type": "string"
						},
						{
							"internalType": "address",
							"name": "_fromaddress",
							"type": "address"
						}
					],
					"name": "ReturnRemainingAmount",
					"outputs": [
						{
							"internalType": "uint256",
							"name": "_remainamount",
							"type": "uint256"
						}
					],
					"stateMutability": "view",
					"type": "function"
				},
				{
					"inputs": [
						{
							"internalType": "string",
							"name": "s1",
							"type": "string"
						},
						{
							"internalType": "string",
							"name": "s2",
							"type": "string"
						}
					],
					"name": "compareStringsbyBytes",
					"outputs": [
						{
							"internalType": "bool",
							"name": "",
							"type": "bool"
						}
					],
					"stateMutability": "pure",
					"type": "function"
				}
			],
			"devdoc": {
				"kind": "dev",
				"methods": {},
				"version": 1
			},
			"evm": {
				"assembly": "    /* \"contracts/Utils.sol\":122:9585  contract Utils is Definitions {... */\n  mstore(0x40, 0x80)\n  callvalue\n  dup1\n  iszero\n  tag_1\n  jumpi\n  0x00\n  dup1\n  revert\ntag_1:\n  pop\n  dataSize(sub_0)\n  dup1\n  dataOffset(sub_0)\n  0x00\n  codecopy\n  0x00\n  return\nstop\n\nsub_0: assembly {\n        /* \"contracts/Utils.sol\":122:9585  contract Utils is Definitions {... */\n      mstore(0x40, 0x80)\n      callvalue\n      dup1\n      iszero\n      tag_1\n      jumpi\n      0x00\n      dup1\n      revert\n    tag_1:\n      pop\n      jumpi(tag_2, lt(calldatasize, 0x04))\n      shr(0xe0, calldataload(0x00))\n      dup1\n      0x7a53c535\n      gt\n      tag_18\n      jumpi\n      dup1\n      0xcd1720d1\n      gt\n      tag_19\n      jumpi\n      dup1\n      0xcd1720d1\n      eq\n      tag_14\n      jumpi\n      dup1\n      0xcdf7e73d\n      eq\n      tag_15\n      jumpi\n      dup1\n      0xe9a734ff\n      eq\n      tag_16\n      jumpi\n      dup1\n      0xff946c85\n      eq\n      tag_17\n      jumpi\n      jump(tag_2)\n    tag_19:\n      dup1\n      0x7a53c535\n      eq\n      tag_10\n      jumpi\n      dup1\n      0x99b5bbdd\n      eq\n      tag_11\n      jumpi\n      dup1\n      0xa7270981\n      eq\n      tag_12\n      jumpi\n      dup1\n      0xb4a99a4e\n      eq\n      tag_13\n      jumpi\n      jump(tag_2)\n    tag_18:\n      dup1\n      0x40d37caf\n      gt\n      tag_20\n      jumpi\n      dup1\n      0x40d37caf\n      eq\n      tag_6\n      jumpi\n      dup1\n      0x4b2d14aa\n      eq\n      tag_7\n      jumpi\n      dup1\n      0x783a7895\n      eq\n      tag_8\n      jumpi\n      dup1\n      0x798d2122\n      eq\n      tag_9\n      jumpi\n      jump(tag_2)\n    tag_20:\n      dup1\n      0x0f9de977\n      eq\n      tag_3\n      jumpi\n      dup1\n      0x1567697c\n      eq\n      tag_4\n      jumpi\n      dup1\n      0x31a6db4d\n      eq\n      tag_5\n      jumpi\n    tag_2:\n      0x00\n      dup1\n      revert\n        /* \"contracts/Utils.sol\":539:1195  function GetUsersByType(UserRoles _role)... */\n    tag_3:\n      tag_21\n      0x04\n      dup1\n      calldatasize\n      sub\n      dup2\n      add\n      swap1\n      tag_22\n      swap2\n      swap1\n      tag_23\n      jump\t// in\n    tag_22:\n      tag_24\n      jump\t// in\n    tag_21:\n      mload(0x40)\n      tag_25\n      swap2\n      swap1\n      tag_26\n      jump\t// in\n    tag_25:\n      mload(0x40)\n      dup1\n      swap2\n      sub\n      swap1\n      return\n        /* \"contracts/Definitions.sol\":1880:1924  PatchTransaction[] public PatchTrannsactions */\n    tag_4:\n      tag_27\n      0x04\n      dup1\n      calldatasize\n      sub\n      dup2\n      add\n      swap1\n      tag_28\n      swap2\n      swap1\n      tag_29\n      jump\t// in\n    tag_28:\n      tag_30\n      jump\t// in\n    tag_27:\n      mload(0x40)\n      tag_31\n      swap8\n      swap7\n      swap6\n      swap5\n      swap4\n      swap3\n      swap2\n      swap1\n      tag_32\n      jump\t// in\n    tag_31:\n      mload(0x40)\n      dup1\n      swap2\n      sub\n      swap1\n      return\n        /* \"contracts/Utils.sol\":7563:8823  function ReadParentAndSiblingsTransactions(... */\n    tag_5:\n      tag_33\n      0x04\n      dup1\n      calldatasize\n      sub\n      dup2\n      add\n      swap1\n      tag_34\n      swap2\n      swap1\n      tag_35\n      jump\t// in\n    tag_34:\n      tag_36\n      jump\t// in\n    tag_33:\n      mload(0x40)\n      tag_37\n      swap2\n      swap1\n      tag_38\n      jump\t// in\n    tag_37:\n      mload(0x40)\n      dup1\n      swap2\n      sub\n      swap1\n      return\n        /* \"contracts/Utils.sol\":5716:7558  function ReadTransactionsByPatchNo(... */\n    tag_6:\n      tag_39\n      0x04\n      dup1\n      calldatasize\n      sub\n      dup2\n      add\n      swap1\n      tag_40\n      swap2\n      swap1\n      tag_41\n      jump\t// in\n    tag_40:\n      tag_42\n      jump\t// in\n    tag_39:\n      mload(0x40)\n      tag_43\n      swap2\n      swap1\n      tag_44\n      jump\t// in\n    tag_43:\n      mload(0x40)\n      dup1\n      swap2\n      sub\n      swap1\n      return\n        /* \"contracts/Utils.sol\":4839:5710  function ReadTransactionsByDrug(string memory _drugno)... */\n    tag_7:\n      tag_45\n      0x04\n      dup1\n      calldatasize\n      sub\n      dup2\n      add\n      swap1\n      tag_46\n      swap2\n      swap1\n      tag_47\n      jump\t// in\n    tag_46:\n      tag_48\n      jump\t// in\n    tag_45:\n      mload(0x40)\n      tag_49\n      swap2\n      swap1\n      tag_38\n      jump\t// in\n    tag_49:\n      mload(0x40)\n      dup1\n      swap2\n      sub\n      swap1\n      return\n        /* \"contracts/Utils.sol\":1870:2244  function ReadRoleByUser() public view returns (UserRoles _userrole) {... */\n    tag_8:\n      tag_50\n      tag_51\n      jump\t// in\n    tag_50:\n      mload(0x40)\n      tag_52\n      swap2\n      swap1\n      tag_53\n      jump\t// in\n    tag_52:\n      mload(0x40)\n      dup1\n      swap2\n      sub\n      swap1\n      return\n        /* \"contracts/Utils.sol\":8829:9583  function ReturnRemainingAmount(... */\n    tag_9:\n      tag_54\n      0x04\n      dup1\n      calldatasize\n      sub\n      dup2\n      add\n      swap1\n      tag_55\n      swap2\n      swap1\n      tag_35\n      jump\t// in\n    tag_55:\n      tag_56\n      jump\t// in\n    tag_54:\n      mload(0x40)\n      tag_57\n      swap2\n      swap1\n      tag_58\n      jump\t// in\n    tag_57:\n      mload(0x40)\n      dup1\n      swap2\n      sub\n      swap1\n      return\n        /* \"contracts/Utils.sol\":1201:1864  function GetUsersByStatus(Statuses _status)... */\n    tag_10:\n      tag_59\n      0x04\n      dup1\n      calldatasize\n      sub\n      dup2\n      add\n      swap1\n      tag_60\n      swap2\n      swap1\n      tag_61\n      jump\t// in\n    tag_60:\n      tag_62\n      jump\t// in\n    tag_59:\n      mload(0x40)\n      tag_63\n      swap2\n      swap1\n      tag_26\n      jump\t// in\n    tag_63:\n      mload(0x40)\n      dup1\n      swap2\n      sub\n      swap1\n      return\n        /* \"contracts/Utils.sol\":4014:4833  function ReadTransactionsByUser(address _useraddress)... */\n    tag_11:\n      tag_64\n      0x04\n      dup1\n      calldatasize\n      sub\n      dup2\n      add\n      swap1\n      tag_65\n      swap2\n      swap1\n      tag_66\n      jump\t// in\n    tag_65:\n      tag_67\n      jump\t// in\n    tag_64:\n      mload(0x40)\n      tag_68\n      swap2\n      swap1\n      tag_38\n      jump\t// in\n    tag_68:\n      mload(0x40)\n      dup1\n      swap2\n      sub\n      swap1\n      return\n        /* \"contracts/Utils.sol\":3049:3982  function ReadDrugsWithManufacturer(Statuses _drugstatus) public view returns (DrugMan[] memory DrugsList) {... */\n    tag_12:\n      tag_69\n      0x04\n      dup1\n      calldatasize\n      sub\n      dup2\n      add\n      swap1\n      tag_70\n      swap2\n      swap1\n      tag_61\n      jump\t// in\n    tag_70:\n      tag_71\n      jump\t// in\n    tag_69:\n      mload(0x40)\n      tag_72\n      swap2\n      swap1\n      tag_73\n      jump\t// in\n    tag_72:\n      mload(0x40)\n      dup1\n      swap2\n      sub\n      swap1\n      return\n        /* \"contracts/Definitions.sol\":221:241  address public Owner */\n    tag_13:\n      tag_74\n      tag_75\n      jump\t// in\n    tag_74:\n      mload(0x40)\n      tag_76\n      swap2\n      swap1\n      tag_77\n      jump\t// in\n    tag_76:\n      mload(0x40)\n      dup1\n      swap2\n      sub\n      swap1\n      return\n        /* \"contracts/Utils.sol\":411:533  function ReadUser(address _address) public view returns (User memory) {... */\n    tag_14:\n      tag_78\n      0x04\n      dup1\n      calldatasize\n      sub\n      dup2\n      add\n      swap1\n      tag_79\n      swap2\n      swap1\n      tag_66\n      jump\t// in\n    tag_79:\n      tag_80\n      jump\t// in\n    tag_78:\n      mload(0x40)\n      tag_81\n      swap2\n      swap1\n      tag_82\n      jump\t// in\n    tag_81:\n      mload(0x40)\n      dup1\n      swap2\n      sub\n      swap1\n      return\n        /* \"contracts/Utils.sol\":2267:2389  function ReadDrug(string memory _regno) public view returns (Drug memory) {... */\n    tag_15:\n      tag_83\n      0x04\n      dup1\n      calldatasize\n      sub\n      dup2\n      add\n      swap1\n      tag_84\n      swap2\n      swap1\n      tag_47\n      jump\t// in\n    tag_84:\n      tag_85\n      jump\t// in\n    tag_83:\n      mload(0x40)\n      tag_86\n      swap2\n      swap1\n      tag_87\n      jump\t// in\n    tag_86:\n      mload(0x40)\n      dup1\n      swap2\n      sub\n      swap1\n      return\n        /* \"contracts/Utils.sol\":164:388  function compareStringsbyBytes(string memory s1, string memory s2)... */\n    tag_16:\n      tag_88\n      0x04\n      dup1\n      calldatasize\n      sub\n      dup2\n      add\n      swap1\n      tag_89\n      swap2\n      swap1\n      tag_41\n      jump\t// in\n    tag_89:\n      tag_90\n      jump\t// in\n    tag_88:\n      mload(0x40)\n      tag_91\n      swap2\n      swap1\n      tag_92\n      jump\t// in\n    tag_91:\n      mload(0x40)\n      dup1\n      swap2\n      sub\n      swap1\n      return\n        /* \"contracts/Utils.sol\":2395:3043  function ReadDrugsByUser(address _useraddress)... */\n    tag_17:\n      tag_93\n      0x04\n      dup1\n      calldatasize\n      sub\n      dup2\n      add\n      swap1\n      tag_94\n      swap2\n      swap1\n      tag_66\n      jump\t// in\n    tag_94:\n      tag_95\n      jump\t// in\n    tag_93:\n      mload(0x40)\n      tag_96\n      swap2\n      swap1\n      tag_97\n      jump\t// in\n    tag_96:\n      mload(0x40)\n      dup1\n      swap2\n      sub\n      swap1\n      return\n        /* \"contracts/Utils.sol\":539:1195  function GetUsersByType(UserRoles _role)... */\n    tag_24:\n        /* \"contracts/Utils.sol\":625:652  User[] memory filteredUsers */\n      0x60\n        /* \"contracts/Utils.sol\":668:686  uint256 usersCount */\n      0x00\n        /* \"contracts/Utils.sol\":689:703  UsersAddresses */\n      0x02\n        /* \"contracts/Utils.sol\":689:710  UsersAddresses.length */\n      dup1\n      sload\n      swap1\n      pop\n        /* \"contracts/Utils.sol\":668:710  uint256 usersCount = UsersAddresses.length */\n      swap1\n      pop\n        /* \"contracts/Utils.sol\":720:743  User[] memory usersTemp */\n      0x00\n        /* \"contracts/Utils.sol\":757:767  usersCount */\n      dup2\n        /* \"contracts/Utils.sol\":746:768  new User[](usersCount) */\n      0xffffffffffffffff\n      dup2\n      gt\n      iszero\n      tag_99\n      jumpi\n      tag_100\n      tag_101\n      jump\t// in\n    tag_100:\n    tag_99:\n      mload(0x40)\n      swap1\n      dup1\n      dup3\n      mstore\n      dup1\n      0x20\n      mul\n      0x20\n      add\n      dup3\n      add\n      0x40\n      mstore\n      dup1\n      iszero\n      tag_102\n      jumpi\n      dup2\n      0x20\n      add\n    tag_103:\n      tag_104\n      tag_105\n      jump\t// in\n    tag_104:\n      dup2\n      mstore\n      0x20\n      add\n      swap1\n      0x01\n      swap1\n      sub\n      swap1\n      dup2\n      tag_103\n      jumpi\n      swap1\n      pop\n    tag_102:\n      pop\n        /* \"contracts/Utils.sol\":720:768  User[] memory usersTemp = new User[](usersCount) */\n      swap1\n      pop\n        /* \"contracts/Utils.sol\":778:791  uint256 count */\n      0x00\n        /* \"contracts/Utils.sol\":806:815  uint256 i */\n      dup1\n        /* \"contracts/Utils.sol\":818:819  0 */\n      0x00\n        /* \"contracts/Utils.sol\":806:819  uint256 i = 0 */\n      swap1\n      pop\n        /* \"contracts/Utils.sol\":801:1044  for (uint256 i = 0; i < usersCount; i++) {... */\n    tag_106:\n        /* \"contracts/Utils.sol\":825:835  usersCount */\n      dup4\n        /* \"contracts/Utils.sol\":821:822  i */\n      dup2\n        /* \"contracts/Utils.sol\":821:835  i < usersCount */\n      lt\n        /* \"contracts/Utils.sol\":801:1044  for (uint256 i = 0; i < usersCount; i++) {... */\n      iszero\n      tag_107\n      jumpi\n        /* \"contracts/Utils.sol\":910:915  _role */\n      dup6\n        /* \"contracts/Utils.sol\":860:915  UserAddressMapping[UsersAddresses[i]].UserRole == _role */\n      0x08\n      dup2\n      gt\n      iszero\n      tag_109\n      jumpi\n      tag_110\n      tag_111\n      jump\t// in\n    tag_110:\n    tag_109:\n        /* \"contracts/Utils.sol\":860:878  UserAddressMapping */\n      0x01\n        /* \"contracts/Utils.sol\":860:897  UserAddressMapping[UsersAddresses[i]] */\n      0x00\n        /* \"contracts/Utils.sol\":879:893  UsersAddresses */\n      0x02\n        /* \"contracts/Utils.sol\":894:895  i */\n      dup5\n        /* \"contracts/Utils.sol\":879:896  UsersAddresses[i] */\n      dup2\n      sload\n      dup2\n      lt\n      tag_112\n      jumpi\n      tag_113\n      tag_114\n      jump\t// in\n    tag_113:\n    tag_112:\n      swap1\n      0x00\n      mstore\n      keccak256(0x00, 0x20)\n      add\n      0x00\n      swap1\n      sload\n      swap1\n      0x0100\n      exp\n      swap1\n      div\n      0xffffffffffffffffffffffffffffffffffffffff\n      and\n        /* \"contracts/Utils.sol\":860:897  UserAddressMapping[UsersAddresses[i]] */\n      0xffffffffffffffffffffffffffffffffffffffff\n      and\n      0xffffffffffffffffffffffffffffffffffffffff\n      and\n      dup2\n      mstore\n      0x20\n      add\n      swap1\n      dup2\n      mstore\n      0x20\n      add\n      0x00\n      keccak256\n        /* \"contracts/Utils.sol\":860:906  UserAddressMapping[UsersAddresses[i]].UserRole */\n      0x02\n      add\n      0x00\n      swap1\n      sload\n      swap1\n      0x0100\n      exp\n      swap1\n      div\n      0xff\n      and\n        /* \"contracts/Utils.sol\":860:915  UserAddressMapping[UsersAddresses[i]].UserRole == _role */\n      0x08\n      dup2\n      gt\n      iszero\n      tag_116\n      jumpi\n      tag_117\n      tag_111\n      jump\t// in\n    tag_117:\n    tag_116:\n      eq\n        /* \"contracts/Utils.sol\":856:1034  if (UserAddressMapping[UsersAddresses[i]].UserRole == _role) {... */\n      iszero\n      tag_118\n      jumpi\n        /* \"contracts/Utils.sol\":954:972  UserAddressMapping */\n      0x01\n        /* \"contracts/Utils.sol\":954:991  UserAddressMapping[UsersAddresses[i]] */\n      0x00\n        /* \"contracts/Utils.sol\":973:987  UsersAddresses */\n      0x02\n        /* \"contracts/Utils.sol\":988:989  i */\n      dup4\n        /* \"contracts/Utils.sol\":973:990  UsersAddresses[i] */\n      dup2\n      sload\n      dup2\n      lt\n      tag_119\n      jumpi\n      tag_120\n      tag_114\n      jump\t// in\n    tag_120:\n    tag_119:\n      swap1\n      0x00\n      mstore\n      keccak256(0x00, 0x20)\n      add\n      0x00\n      swap1\n      sload\n      swap1\n      0x0100\n      exp\n      swap1\n      div\n      0xffffffffffffffffffffffffffffffffffffffff\n      and\n        /* \"contracts/Utils.sol\":954:991  UserAddressMapping[UsersAddresses[i]] */\n      0xffffffffffffffffffffffffffffffffffffffff\n      and\n      0xffffffffffffffffffffffffffffffffffffffff\n      and\n      dup2\n      mstore\n      0x20\n      add\n      swap1\n      dup2\n      mstore\n      0x20\n      add\n      0x00\n      keccak256\n        /* \"contracts/Utils.sol\":935:991  usersTemp[count] = UserAddressMapping[UsersAddresses[i]] */\n      mload(0x40)\n      dup1\n      0xe0\n      add\n      0x40\n      mstore\n      swap1\n      dup2\n      0x00\n      dup3\n      add\n      dup1\n      sload\n      tag_122\n      swap1\n      tag_123\n      jump\t// in\n    tag_122:\n      dup1\n      0x1f\n      add\n      0x20\n      dup1\n      swap2\n      div\n      mul\n      0x20\n      add\n      mload(0x40)\n      swap1\n      dup2\n      add\n      0x40\n      mstore\n      dup1\n      swap3\n      swap2\n      swap1\n      dup2\n      dup2\n      mstore\n      0x20\n      add\n      dup3\n      dup1\n      sload\n      tag_124\n      swap1\n      tag_123\n      jump\t// in\n    tag_124:\n      dup1\n      iszero\n      tag_125\n      jumpi\n      dup1\n      0x1f\n      lt\n      tag_126\n      jumpi\n      0x0100\n      dup1\n      dup4\n      sload\n      div\n      mul\n      dup4\n      mstore\n      swap2\n      0x20\n      add\n      swap2\n      jump(tag_125)\n    tag_126:\n      dup3\n      add\n      swap2\n      swap1\n      0x00\n      mstore\n      keccak256(0x00, 0x20)\n      swap1\n    tag_127:\n      dup2\n      sload\n      dup2\n      mstore\n      swap1\n      0x01\n      add\n      swap1\n      0x20\n      add\n      dup1\n      dup4\n      gt\n      tag_127\n      jumpi\n      dup3\n      swap1\n      sub\n      0x1f\n      and\n      dup3\n      add\n      swap2\n    tag_125:\n      pop\n      pop\n      pop\n      pop\n      pop\n      dup2\n      mstore\n      0x20\n      add\n      0x01\n      dup3\n      add\n      dup1\n      sload\n      tag_128\n      swap1\n      tag_123\n      jump\t// in\n    tag_128:\n      dup1\n      0x1f\n      add\n      0x20\n      dup1\n      swap2\n      div\n      mul\n      0x20\n      add\n      mload(0x40)\n      swap1\n      dup2\n      add\n      0x40\n      mstore\n      dup1\n      swap3\n      swap2\n      swap1\n      dup2\n      dup2\n      mstore\n      0x20\n      add\n      dup3\n      dup1\n      sload\n      tag_129\n      swap1\n      tag_123\n      jump\t// in\n    tag_129:\n      dup1\n      iszero\n      tag_130\n      jumpi\n      dup1\n      0x1f\n      lt\n      tag_131\n      jumpi\n      0x0100\n      dup1\n      dup4\n      sload\n      div\n      mul\n      dup4\n      mstore\n      swap2\n      0x20\n      add\n      swap2\n      jump(tag_130)\n    tag_131:\n      dup3\n      add\n      swap2\n      swap1\n      0x00\n      mstore\n      keccak256(0x00, 0x20)\n      swap1\n    tag_132:\n      dup2\n      sload\n      dup2\n      mstore\n      swap1\n      0x01\n      add\n      swap1\n      0x20\n      add\n      dup1\n      dup4\n      gt\n      tag_132\n      jumpi\n      dup3\n      swap1\n      sub\n      0x1f\n      and\n      dup3\n      add\n      swap2\n    tag_130:\n      pop\n      pop\n      pop\n      pop\n      pop\n      dup2\n      mstore\n      0x20\n      add\n      0x02\n      dup3\n      add\n      0x00\n      swap1\n      sload\n      swap1\n      0x0100\n      exp\n      swap1\n      div\n      0xff\n      and\n      0x08\n      dup2\n      gt\n      iszero\n      tag_133\n      jumpi\n      tag_134\n      tag_111\n      jump\t// in\n    tag_134:\n    tag_133:\n      0x08\n      dup2\n      gt\n      iszero\n      tag_135\n      jumpi\n      tag_136\n      tag_111\n      jump\t// in\n    tag_136:\n    tag_135:\n      dup2\n      mstore\n      0x20\n      add\n      0x02\n      dup3\n      add\n      0x01\n      swap1\n      sload\n      swap1\n      0x0100\n      exp\n      swap1\n      div\n      0xff\n      and\n      0x02\n      dup2\n      gt\n      iszero\n      tag_137\n      jumpi\n      tag_138\n      tag_111\n      jump\t// in\n    tag_138:\n    tag_137:\n      0x02\n      dup2\n      gt\n      iszero\n      tag_139\n      jumpi\n      tag_140\n      tag_111\n      jump\t// in\n    tag_140:\n    tag_139:\n      dup2\n      mstore\n      0x20\n      add\n      0x03\n      dup3\n      add\n      dup1\n      sload\n      tag_141\n      swap1\n      tag_123\n      jump\t// in\n    tag_141:\n      dup1\n      0x1f\n      add\n      0x20\n      dup1\n      swap2\n      div\n      mul\n      0x20\n      add\n      mload(0x40)\n      swap1\n      dup2\n      add\n      0x40\n      mstore\n      dup1\n      swap3\n      swap2\n      swap1\n      dup2\n      dup2\n      mstore\n      0x20\n      add\n      dup3\n      dup1\n      sload\n      tag_142\n      swap1\n      tag_123\n      jump\t// in\n    tag_142:\n      dup1\n      iszero\n      tag_143\n      jumpi\n      dup1\n      0x1f\n      lt\n      tag_144\n      jumpi\n      0x0100\n      dup1\n      dup4\n      sload\n      div\n      mul\n      dup4\n      mstore\n      swap2\n      0x20\n      add\n      swap2\n      jump(tag_143)\n    tag_144:\n      dup3\n      add\n      swap2\n      swap1\n      0x00\n      mstore\n      keccak256(0x00, 0x20)\n      swap1\n    tag_145:\n      dup2\n      sload\n      dup2\n      mstore\n      swap1\n      0x01\n      add\n      swap1\n      0x20\n      add\n      dup1\n      dup4\n      gt\n      tag_145\n      jumpi\n      dup3\n      swap1\n      sub\n      0x1f\n      and\n      dup3\n      add\n      swap2\n    tag_143:\n      pop\n      pop\n      pop\n      pop\n      pop\n      dup2\n      mstore\n      0x20\n      add\n      0x04\n      dup3\n      add\n      dup1\n      sload\n      tag_146\n      swap1\n      tag_123\n      jump\t// in\n    tag_146:\n      dup1\n      0x1f\n      add\n      0x20\n      dup1\n      swap2\n      div\n      mul\n      0x20\n      add\n      mload(0x40)\n      swap1\n      dup2\n      add\n      0x40\n      mstore\n      dup1\n      swap3\n      swap2\n      swap1\n      dup2\n      dup2\n      mstore\n      0x20\n      add\n      dup3\n      dup1\n      sload\n      tag_147\n      swap1\n      tag_123\n      jump\t// in\n    tag_147:\n      dup1\n      iszero\n      tag_148\n      jumpi\n      dup1\n      0x1f\n      lt\n      tag_149\n      jumpi\n      0x0100\n      dup1\n      dup4\n      sload\n      div\n      mul\n      dup4\n      mstore\n      swap2\n      0x20\n      add\n      swap2\n      jump(tag_148)\n    tag_149:\n      dup3\n      add\n      swap2\n      swap1\n      0x00\n      mstore\n      keccak256(0x00, 0x20)\n      swap1\n    tag_150:\n      dup2\n      sload\n      dup2\n      mstore\n      swap1\n      0x01\n      add\n      swap1\n      0x20\n      add\n      dup1\n      dup4\n      gt\n      tag_150\n      jumpi\n      dup3\n      swap1\n      sub\n      0x1f\n      and\n      dup3\n      add\n      swap2\n    tag_148:\n      pop\n      pop\n      pop\n      pop\n      pop\n      dup2\n      mstore\n      0x20\n      add\n      0x05\n      dup3\n      add\n      0x00\n      swap1\n      sload\n      swap1\n      0x0100\n      exp\n      swap1\n      div\n      0xffffffffffffffffffffffffffffffffffffffff\n      and\n      0xffffffffffffffffffffffffffffffffffffffff\n      and\n      0xffffffffffffffffffffffffffffffffffffffff\n      and\n      dup2\n      mstore\n      pop\n      pop\n        /* \"contracts/Utils.sol\":935:944  usersTemp */\n      dup4\n        /* \"contracts/Utils.sol\":945:950  count */\n      dup4\n        /* \"contracts/Utils.sol\":935:951  usersTemp[count] */\n      dup2\n      mload\n      dup2\n      lt\n      tag_151\n      jumpi\n      tag_152\n      tag_114\n      jump\t// in\n    tag_152:\n    tag_151:\n      0x20\n      mul\n      0x20\n      add\n      add\n        /* \"contracts/Utils.sol\":935:991  usersTemp[count] = UserAddressMapping[UsersAddresses[i]] */\n      dup2\n      swap1\n      mstore\n      pop\n        /* \"contracts/Utils.sol\":1018:1019  1 */\n      0x01\n        /* \"contracts/Utils.sol\":1009:1019  count += 1 */\n      dup3\n      tag_153\n      swap2\n      swap1\n      tag_154\n      jump\t// in\n    tag_153:\n      swap2\n      pop\n        /* \"contracts/Utils.sol\":856:1034  if (UserAddressMapping[UsersAddresses[i]].UserRole == _role) {... */\n    tag_118:\n        /* \"contracts/Utils.sol\":837:840  i++ */\n      dup1\n      dup1\n      tag_155\n      swap1\n      tag_156\n      jump\t// in\n    tag_155:\n      swap2\n      pop\n      pop\n        /* \"contracts/Utils.sol\":801:1044  for (uint256 i = 0; i < usersCount; i++) {... */\n      jump(tag_106)\n    tag_107:\n      pop\n        /* \"contracts/Utils.sol\":1081:1086  count */\n      dup1\n        /* \"contracts/Utils.sol\":1070:1087  new User[](count) */\n      0xffffffffffffffff\n      dup2\n      gt\n      iszero\n      tag_157\n      jumpi\n      tag_158\n      tag_101\n      jump\t// in\n    tag_158:\n    tag_157:\n      mload(0x40)\n      swap1\n      dup1\n      dup3\n      mstore\n      dup1\n      0x20\n      mul\n      0x20\n      add\n      dup3\n      add\n      0x40\n      mstore\n      dup1\n      iszero\n      tag_159\n      jumpi\n      dup2\n      0x20\n      add\n    tag_160:\n      tag_161\n      tag_105\n      jump\t// in\n    tag_161:\n      dup2\n      mstore\n      0x20\n      add\n      swap1\n      0x01\n      swap1\n      sub\n      swap1\n      dup2\n      tag_160\n      jumpi\n      swap1\n      pop\n    tag_159:\n      pop\n        /* \"contracts/Utils.sol\":1054:1087  filteredUsers = new User[](count) */\n      swap4\n      pop\n        /* \"contracts/Utils.sol\":1102:1111  uint256 i */\n      0x00\n        /* \"contracts/Utils.sol\":1097:1189  for (uint256 i = 0; i < count; i++) {... */\n    tag_162:\n        /* \"contracts/Utils.sol\":1121:1126  count */\n      dup2\n        /* \"contracts/Utils.sol\":1117:1118  i */\n      dup2\n        /* \"contracts/Utils.sol\":1117:1126  i < count */\n      lt\n        /* \"contracts/Utils.sol\":1097:1189  for (uint256 i = 0; i < count; i++) {... */\n      iszero\n      tag_163\n      jumpi\n        /* \"contracts/Utils.sol\":1166:1175  usersTemp */\n      dup3\n        /* \"contracts/Utils.sol\":1176:1177  i */\n      dup2\n        /* \"contracts/Utils.sol\":1166:1178  usersTemp[i] */\n      dup2\n      mload\n      dup2\n      lt\n      tag_165\n      jumpi\n      tag_166\n      tag_114\n      jump\t// in\n    tag_166:\n    tag_165:\n      0x20\n      mul\n      0x20\n      add\n      add\n      mload\n        /* \"contracts/Utils.sol\":1147:1160  filteredUsers */\n      dup6\n        /* \"contracts/Utils.sol\":1161:1162  i */\n      dup3\n        /* \"contracts/Utils.sol\":1147:1163  filteredUsers[i] */\n      dup2\n      mload\n      dup2\n      lt\n      tag_167\n      jumpi\n      tag_168\n      tag_114\n      jump\t// in\n    tag_168:\n    tag_167:\n      0x20\n      mul\n      0x20\n      add\n      add\n        /* \"contracts/Utils.sol\":1147:1178  filteredUsers[i] = usersTemp[i] */\n      dup2\n      swap1\n      mstore\n      pop\n        /* \"contracts/Utils.sol\":1128:1131  i++ */\n      dup1\n      dup1\n      tag_169\n      swap1\n      tag_156\n      jump\t// in\n    tag_169:\n      swap2\n      pop\n      pop\n        /* \"contracts/Utils.sol\":1097:1189  for (uint256 i = 0; i < count; i++) {... */\n      jump(tag_162)\n    tag_163:\n      pop\n        /* \"contracts/Utils.sol\":658:1195  {... */\n      pop\n      pop\n      pop\n        /* \"contracts/Utils.sol\":539:1195  function GetUsersByType(UserRoles _role)... */\n      swap2\n      swap1\n      pop\n      jump\t// out\n        /* \"contracts/Definitions.sol\":1880:1924  PatchTransaction[] public PatchTrannsactions */\n    tag_30:\n      0x05\n      dup2\n      dup2\n      sload\n      dup2\n      lt\n      tag_170\n      jumpi\n      0x00\n      dup1\n      revert\n    tag_170:\n      swap1\n      0x00\n      mstore\n      keccak256(0x00, 0x20)\n      swap1\n      0x07\n      mul\n      add\n      0x00\n      swap2\n      pop\n      swap1\n      pop\n      dup1\n      0x00\n      add\n      dup1\n      sload\n      tag_172\n      swap1\n      tag_123\n      jump\t// in\n    tag_172:\n      dup1\n      0x1f\n      add\n      0x20\n      dup1\n      swap2\n      div\n      mul\n      0x20\n      add\n      mload(0x40)\n      swap1\n      dup2\n      add\n      0x40\n      mstore\n      dup1\n      swap3\n      swap2\n      swap1\n      dup2\n      dup2\n      mstore\n      0x20\n      add\n      dup3\n      dup1\n      sload\n      tag_173\n      swap1\n      tag_123\n      jump\t// in\n    tag_173:\n      dup1\n      iszero\n      tag_174\n      jumpi\n      dup1\n      0x1f\n      lt\n      tag_175\n      jumpi\n      0x0100\n      dup1\n      dup4\n      sload\n      div\n      mul\n      dup4\n      mstore\n      swap2\n      0x20\n      add\n      swap2\n      jump(tag_174)\n    tag_175:\n      dup3\n      add\n      swap2\n      swap1\n      0x00\n      mstore\n      keccak256(0x00, 0x20)\n      swap1\n    tag_176:\n      dup2\n      sload\n      dup2\n      mstore\n      swap1\n      0x01\n      add\n      swap1\n      0x20\n      add\n      dup1\n      dup4\n      gt\n      tag_176\n      jumpi\n      dup3\n      swap1\n      sub\n      0x1f\n      and\n      dup3\n      add\n      swap2\n    tag_174:\n      pop\n      pop\n      pop\n      pop\n      pop\n      swap1\n      dup1\n      0x01\n      add\n      dup1\n      sload\n      tag_177\n      swap1\n      tag_123\n      jump\t// in\n    tag_177:\n      dup1\n      0x1f\n      add\n      0x20\n      dup1\n      swap2\n      div\n      mul\n      0x20\n      add\n      mload(0x40)\n      swap1\n      dup2\n      add\n      0x40\n      mstore\n      dup1\n      swap3\n      swap2\n      swap1\n      dup2\n      dup2\n      mstore\n      0x20\n      add\n      dup3\n      dup1\n      sload\n      tag_178\n      swap1\n      tag_123\n      jump\t// in\n    tag_178:\n      dup1\n      iszero\n      tag_179\n      jumpi\n      dup1\n      0x1f\n      lt\n      tag_180\n      jumpi\n      0x0100\n      dup1\n      dup4\n      sload\n      div\n      mul\n      dup4\n      mstore\n      swap2\n      0x20\n      add\n      swap2\n      jump(tag_179)\n    tag_180:\n      dup3\n      add\n      swap2\n      swap1\n      0x00\n      mstore\n      keccak256(0x00, 0x20)\n      swap1\n    tag_181:\n      dup2\n      sload\n      dup2\n      mstore\n      swap1\n      0x01\n      add\n      swap1\n      0x20\n      add\n      dup1\n      dup4\n      gt\n      tag_181\n      jumpi\n      dup3\n      swap1\n      sub\n      0x1f\n      and\n      dup3\n      add\n      swap2\n    tag_179:\n      pop\n      pop\n      pop\n      pop\n      pop\n      swap1\n      dup1\n      0x02\n      add\n      sload\n      swap1\n      dup1\n      0x03\n      add\n      0x00\n      swap1\n      sload\n      swap1\n      0x0100\n      exp\n      swap1\n      div\n      0xffffffffffffffffffffffffffffffffffffffff\n      and\n      swap1\n      dup1\n      0x04\n      add\n      0x00\n      swap1\n      sload\n      swap1\n      0x0100\n      exp\n      swap1\n      div\n      0xffffffffffffffffffffffffffffffffffffffff\n      and\n      swap1\n      dup1\n      0x05\n      add\n      sload\n      swap1\n      dup1\n      0x06\n      add\n      sload\n      swap1\n      pop\n      dup8\n      jump\t// out\n        /* \"contracts/Utils.sol\":7563:8823  function ReadParentAndSiblingsTransactions(... */\n    tag_36:\n        /* \"contracts/Utils.sol\":7726:7767  PatchTransaction[] memory UserTransaction */\n      0x60\n        /* \"contracts/Utils.sol\":7779:7798  uint256 MatchedRows */\n      0x00\n        /* \"contracts/Utils.sol\":7808:7842  PatchTransaction[] memory TempTran */\n      dup1\n        /* \"contracts/Utils.sol\":7881:7899  PatchTrannsactions */\n      0x05\n        /* \"contracts/Utils.sol\":7881:7906  PatchTrannsactions.length */\n      dup1\n      sload\n      swap1\n      pop\n        /* \"contracts/Utils.sol\":7845:7916  new PatchTransaction[](... */\n      0xffffffffffffffff\n      dup2\n      gt\n      iszero\n      tag_183\n      jumpi\n      tag_184\n      tag_101\n      jump\t// in\n    tag_184:\n    tag_183:\n      mload(0x40)\n      swap1\n      dup1\n      dup3\n      mstore\n      dup1\n      0x20\n      mul\n      0x20\n      add\n      dup3\n      add\n      0x40\n      mstore\n      dup1\n      iszero\n      tag_185\n      jumpi\n      dup2\n      0x20\n      add\n    tag_186:\n      tag_187\n      tag_188\n      jump\t// in\n    tag_187:\n      dup2\n      mstore\n      0x20\n      add\n      swap1\n      0x01\n      swap1\n      sub\n      swap1\n      dup2\n      tag_186\n      jumpi\n      swap1\n      pop\n    tag_185:\n      pop\n        /* \"contracts/Utils.sol\":7808:7916  PatchTransaction[] memory TempTran = new PatchTransaction[](... */\n      swap1\n      pop\n        /* \"contracts/Utils.sol\":7931:7940  uint256 i */\n      0x00\n        /* \"contracts/Utils.sol\":7926:8593  for (uint256 i = 0; i < PatchTrannsactions.length; i++) {... */\n    tag_189:\n        /* \"contracts/Utils.sol\":7950:7968  PatchTrannsactions */\n      0x05\n        /* \"contracts/Utils.sol\":7950:7975  PatchTrannsactions.length */\n      dup1\n      sload\n      swap1\n      pop\n        /* \"contracts/Utils.sol\":7946:7947  i */\n      dup2\n        /* \"contracts/Utils.sol\":7946:7975  i < PatchTrannsactions.length */\n      lt\n        /* \"contracts/Utils.sol\":7926:8593  for (uint256 i = 0; i < PatchTrannsactions.length; i++) {... */\n      iszero\n      tag_190\n      jumpi\n        /* \"contracts/Utils.sol\":8066:8186  compareStringsbyBytes(... */\n      tag_192\n        /* \"contracts/Utils.sol\":8109:8127  PatchTrannsactions */\n      0x05\n        /* \"contracts/Utils.sol\":8128:8129  i */\n      dup3\n        /* \"contracts/Utils.sol\":8109:8130  PatchTrannsactions[i] */\n      dup2\n      sload\n      dup2\n      lt\n      tag_193\n      jumpi\n      tag_194\n      tag_114\n      jump\t// in\n    tag_194:\n    tag_193:\n      swap1\n      0x00\n      mstore\n      keccak256(0x00, 0x20)\n      swap1\n      0x07\n      mul\n      add\n        /* \"contracts/Utils.sol\":8109:8138  PatchTrannsactions[i].PatchNo */\n      0x01\n      add\n        /* \"contracts/Utils.sol\":8066:8186  compareStringsbyBytes(... */\n      dup1\n      sload\n      tag_196\n      swap1\n      tag_123\n      jump\t// in\n    tag_196:\n      dup1\n      0x1f\n      add\n      0x20\n      dup1\n      swap2\n      div\n      mul\n      0x20\n      add\n      mload(0x40)\n      swap1\n      dup2\n      add\n      0x40\n      mstore\n      dup1\n      swap3\n      swap2\n      swap1\n      dup2\n      dup2\n      mstore\n      0x20\n      add\n      dup3\n      dup1\n      sload\n      tag_197\n      swap1\n      tag_123\n      jump\t// in\n    tag_197:\n      dup1\n      iszero\n      tag_198\n      jumpi\n      dup1\n      0x1f\n      lt\n      tag_199\n      jumpi\n      0x0100\n      dup1\n      dup4\n      sload\n      div\n      mul\n      dup4\n      mstore\n      swap2\n      0x20\n      add\n      swap2\n      jump(tag_198)\n    tag_199:\n      dup3\n      add\n      swap2\n      swap1\n      0x00\n      mstore\n      keccak256(0x00, 0x20)\n      swap1\n    tag_200:\n      dup2\n      sload\n      dup2\n      mstore\n      swap1\n      0x01\n      add\n      swap1\n      0x20\n      add\n      dup1\n      dup4\n      gt\n      tag_200\n      jumpi\n      dup3\n      swap1\n      sub\n      0x1f\n      and\n      dup3\n      add\n      swap2\n    tag_198:\n      pop\n      pop\n      pop\n      pop\n      pop\n        /* \"contracts/Utils.sol\":8160:8168  _patchno */\n      dup9\n        /* \"contracts/Utils.sol\":8066:8087  compareStringsbyBytes */\n      tag_90\n        /* \"contracts/Utils.sol\":8066:8186  compareStringsbyBytes(... */\n      jump\t// in\n    tag_192:\n        /* \"contracts/Utils.sol\":8066:8327  compareStringsbyBytes(... */\n      dup1\n      iszero\n      tag_201\n      jumpi\n      pop\n        /* \"contracts/Utils.sol\":8206:8327  compareStringsbyBytes(... */\n      tag_202\n        /* \"contracts/Utils.sol\":8249:8267  PatchTrannsactions */\n      0x05\n        /* \"contracts/Utils.sol\":8268:8269  i */\n      dup3\n        /* \"contracts/Utils.sol\":8249:8270  PatchTrannsactions[i] */\n      dup2\n      sload\n      dup2\n      lt\n      tag_203\n      jumpi\n      tag_204\n      tag_114\n      jump\t// in\n    tag_204:\n    tag_203:\n      swap1\n      0x00\n      mstore\n      keccak256(0x00, 0x20)\n      swap1\n      0x07\n      mul\n      add\n        /* \"contracts/Utils.sol\":8249:8280  PatchTrannsactions[i].DrugRegNo */\n      0x00\n      add\n        /* \"contracts/Utils.sol\":8206:8327  compareStringsbyBytes(... */\n      dup1\n      sload\n      tag_206\n      swap1\n      tag_123\n      jump\t// in\n    tag_206:\n      dup1\n      0x1f\n      add\n      0x20\n      dup1\n      swap2\n      div\n      mul\n      0x20\n      add\n      mload(0x40)\n      swap1\n      dup2\n      add\n      0x40\n      mstore\n      dup1\n      swap3\n      swap2\n      swap1\n      dup2\n      dup2\n      mstore\n      0x20\n      add\n      dup3\n      dup1\n      sload\n      tag_207\n      swap1\n      tag_123\n      jump\t// in\n    tag_207:\n      dup1\n      iszero\n      tag_208\n      jumpi\n      dup1\n      0x1f\n      lt\n      tag_209\n      jumpi\n      0x0100\n      dup1\n      dup4\n      sload\n      div\n      mul\n      dup4\n      mstore\n      swap2\n      0x20\n      add\n      swap2\n      jump(tag_208)\n    tag_209:\n      dup3\n      add\n      swap2\n      swap1\n      0x00\n      mstore\n      keccak256(0x00, 0x20)\n      swap1\n    tag_210:\n      dup2\n      sload\n      dup2\n      mstore\n      swap1\n      0x01\n      add\n      swap1\n      0x20\n      add\n      dup1\n      dup4\n      gt\n      tag_210\n      jumpi\n      dup3\n      swap1\n      sub\n      0x1f\n      and\n      dup3\n      add\n      swap2\n    tag_208:\n      pop\n      pop\n      pop\n      pop\n      pop\n        /* \"contracts/Utils.sol\":8302:8309  _drugno */\n      dup8\n        /* \"contracts/Utils.sol\":8206:8227  compareStringsbyBytes */\n      tag_90\n        /* \"contracts/Utils.sol\":8206:8327  compareStringsbyBytes(... */\n      jump\t// in\n    tag_202:\n        /* \"contracts/Utils.sol\":8066:8327  compareStringsbyBytes(... */\n    tag_201:\n        /* \"contracts/Utils.sol\":8066:8459  compareStringsbyBytes(... */\n      dup1\n      iszero\n      tag_211\n      jumpi\n      pop\n        /* \"contracts/Utils.sol\":8378:8390  _fromaddress */\n      dup5\n        /* \"contracts/Utils.sol\":8348:8390  PatchTrannsactions[i].ToID == _fromaddress */\n      0xffffffffffffffffffffffffffffffffffffffff\n      and\n        /* \"contracts/Utils.sol\":8348:8366  PatchTrannsactions */\n      0x05\n        /* \"contracts/Utils.sol\":8367:8368  i */\n      dup3\n        /* \"contracts/Utils.sol\":8348:8369  PatchTrannsactions[i] */\n      dup2\n      sload\n      dup2\n      lt\n      tag_212\n      jumpi\n      tag_213\n      tag_114\n      jump\t// in\n    tag_213:\n    tag_212:\n      swap1\n      0x00\n      mstore\n      keccak256(0x00, 0x20)\n      swap1\n      0x07\n      mul\n      add\n        /* \"contracts/Utils.sol\":8348:8374  PatchTrannsactions[i].ToID */\n      0x04\n      add\n      0x00\n      swap1\n      sload\n      swap1\n      0x0100\n      exp\n      swap1\n      div\n      0xffffffffffffffffffffffffffffffffffffffff\n      and\n        /* \"contracts/Utils.sol\":8348:8390  PatchTrannsactions[i].ToID == _fromaddress */\n      0xffffffffffffffffffffffffffffffffffffffff\n      and\n      eq\n        /* \"contracts/Utils.sol\":8348:8458  PatchTrannsactions[i].ToID == _fromaddress ||... */\n      dup1\n      tag_215\n      jumpi\n      pop\n        /* \"contracts/Utils.sol\":8446:8458  _fromaddress */\n      dup5\n        /* \"contracts/Utils.sol\":8414:8458  PatchTrannsactions[i].FromID == _fromaddress */\n      0xffffffffffffffffffffffffffffffffffffffff\n      and\n        /* \"contracts/Utils.sol\":8414:8432  PatchTrannsactions */\n      0x05\n        /* \"contracts/Utils.sol\":8433:8434  i */\n      dup3\n        /* \"contracts/Utils.sol\":8414:8435  PatchTrannsactions[i] */\n      dup2\n      sload\n      dup2\n      lt\n      tag_216\n      jumpi\n      tag_217\n      tag_114\n      jump\t// in\n    tag_217:\n    tag_216:\n      swap1\n      0x00\n      mstore\n      keccak256(0x00, 0x20)\n      swap1\n      0x07\n      mul\n      add\n        /* \"contracts/Utils.sol\":8414:8442  PatchTrannsactions[i].FromID */\n      0x03\n      add\n      0x00\n      swap1\n      sload\n      swap1\n      0x0100\n      exp\n      swap1\n      div\n      0xffffffffffffffffffffffffffffffffffffffff\n      and\n        /* \"contracts/Utils.sol\":8414:8458  PatchTrannsactions[i].FromID == _fromaddress */\n      0xffffffffffffffffffffffffffffffffffffffff\n      and\n      eq\n        /* \"contracts/Utils.sol\":8348:8458  PatchTrannsactions[i].ToID == _fromaddress ||... */\n    tag_215:\n        /* \"contracts/Utils.sol\":8066:8459  compareStringsbyBytes(... */\n    tag_211:\n        /* \"contracts/Utils.sol\":8045:8583  if (... */\n      iszero\n      tag_219\n      jumpi\n        /* \"contracts/Utils.sol\":8516:8534  PatchTrannsactions */\n      0x05\n        /* \"contracts/Utils.sol\":8535:8536  i */\n      dup2\n        /* \"contracts/Utils.sol\":8516:8537  PatchTrannsactions[i] */\n      dup2\n      sload\n      dup2\n      lt\n      tag_220\n      jumpi\n      tag_221\n      tag_114\n      jump\t// in\n    tag_221:\n    tag_220:\n      swap1\n      0x00\n      mstore\n      keccak256(0x00, 0x20)\n      swap1\n      0x07\n      mul\n      add\n        /* \"contracts/Utils.sol\":8492:8537  TempTran[MatchedRows] = PatchTrannsactions[i] */\n      mload(0x40)\n      dup1\n      0xe0\n      add\n      0x40\n      mstore\n      swap1\n      dup2\n      0x00\n      dup3\n      add\n      dup1\n      sload\n      tag_223\n      swap1\n      tag_123\n      jump\t// in\n    tag_223:\n      dup1\n      0x1f\n      add\n      0x20\n      dup1\n      swap2\n      div\n      mul\n      0x20\n      add\n      mload(0x40)\n      swap1\n      dup2\n      add\n      0x40\n      mstore\n      dup1\n      swap3\n      swap2\n      swap1\n      dup2\n      dup2\n      mstore\n      0x20\n      add\n      dup3\n      dup1\n      sload\n      tag_224\n      swap1\n      tag_123\n      jump\t// in\n    tag_224:\n      dup1\n      iszero\n      tag_225\n      jumpi\n      dup1\n      0x1f\n      lt\n      tag_226\n      jumpi\n      0x0100\n      dup1\n      dup4\n      sload\n      div\n      mul\n      dup4\n      mstore\n      swap2\n      0x20\n      add\n      swap2\n      jump(tag_225)\n    tag_226:\n      dup3\n      add\n      swap2\n      swap1\n      0x00\n      mstore\n      keccak256(0x00, 0x20)\n      swap1\n    tag_227:\n      dup2\n      sload\n      dup2\n      mstore\n      swap1\n      0x01\n      add\n      swap1\n      0x20\n      add\n      dup1\n      dup4\n      gt\n      tag_227\n      jumpi\n      dup3\n      swap1\n      sub\n      0x1f\n      and\n      dup3\n      add\n      swap2\n    tag_225:\n      pop\n      pop\n      pop\n      pop\n      pop\n      dup2\n      mstore\n      0x20\n      add\n      0x01\n      dup3\n      add\n      dup1\n      sload\n      tag_228\n      swap1\n      tag_123\n      jump\t// in\n    tag_228:\n      dup1\n      0x1f\n      add\n      0x20\n      dup1\n      swap2\n      div\n      mul\n      0x20\n      add\n      mload(0x40)\n      swap1\n      dup2\n      add\n      0x40\n      mstore\n      dup1\n      swap3\n      swap2\n      swap1\n      dup2\n      dup2\n      mstore\n      0x20\n      add\n      dup3\n      dup1\n      sload\n      tag_229\n      swap1\n      tag_123\n      jump\t// in\n    tag_229:\n      dup1\n      iszero\n      tag_230\n      jumpi\n      dup1\n      0x1f\n      lt\n      tag_231\n      jumpi\n      0x0100\n      dup1\n      dup4\n      sload\n      div\n      mul\n      dup4\n      mstore\n      swap2\n      0x20\n      add\n      swap2\n      jump(tag_230)\n    tag_231:\n      dup3\n      add\n      swap2\n      swap1\n      0x00\n      mstore\n      keccak256(0x00, 0x20)\n      swap1\n    tag_232:\n      dup2\n      sload\n      dup2\n      mstore\n      swap1\n      0x01\n      add\n      swap1\n      0x20\n      add\n      dup1\n      dup4\n      gt\n      tag_232\n      jumpi\n      dup3\n      swap1\n      sub\n      0x1f\n      and\n      dup3\n      add\n      swap2\n    tag_230:\n      pop\n      pop\n      pop\n      pop\n      pop\n      dup2\n      mstore\n      0x20\n      add\n      0x02\n      dup3\n      add\n      sload\n      dup2\n      mstore\n      0x20\n      add\n      0x03\n      dup3\n      add\n      0x00\n      swap1\n      sload\n      swap1\n      0x0100\n      exp\n      swap1\n      div\n      0xffffffffffffffffffffffffffffffffffffffff\n      and\n      0xffffffffffffffffffffffffffffffffffffffff\n      and\n      0xffffffffffffffffffffffffffffffffffffffff\n      and\n      dup2\n      mstore\n      0x20\n      add\n      0x04\n      dup3\n      add\n      0x00\n      swap1\n      sload\n      swap1\n      0x0100\n      exp\n      swap1\n      div\n      0xffffffffffffffffffffffffffffffffffffffff\n      and\n      0xffffffffffffffffffffffffffffffffffffffff\n      and\n      0xffffffffffffffffffffffffffffffffffffffff\n      and\n      dup2\n      mstore\n      0x20\n      add\n      0x05\n      dup3\n      add\n      sload\n      dup2\n      mstore\n      0x20\n      add\n      0x06\n      dup3\n      add\n      sload\n      dup2\n      mstore\n      pop\n      pop\n        /* \"contracts/Utils.sol\":8492:8500  TempTran */\n      dup3\n        /* \"contracts/Utils.sol\":8501:8512  MatchedRows */\n      dup5\n        /* \"contracts/Utils.sol\":8492:8513  TempTran[MatchedRows] */\n      dup2\n      mload\n      dup2\n      lt\n      tag_233\n      jumpi\n      tag_234\n      tag_114\n      jump\t// in\n    tag_234:\n    tag_233:\n      0x20\n      mul\n      0x20\n      add\n      add\n        /* \"contracts/Utils.sol\":8492:8537  TempTran[MatchedRows] = PatchTrannsactions[i] */\n      dup2\n      swap1\n      mstore\n      pop\n        /* \"contracts/Utils.sol\":8555:8568  MatchedRows++ */\n      dup3\n      dup1\n      tag_235\n      swap1\n      tag_156\n      jump\t// in\n    tag_235:\n      swap4\n      pop\n      pop\n        /* \"contracts/Utils.sol\":8045:8583  if (... */\n    tag_219:\n        /* \"contracts/Utils.sol\":7977:7980  i++ */\n      dup1\n      dup1\n      tag_236\n      swap1\n      tag_156\n      jump\t// in\n    tag_236:\n      swap2\n      pop\n      pop\n        /* \"contracts/Utils.sol\":7926:8593  for (uint256 i = 0; i < PatchTrannsactions.length; i++) {... */\n      jump(tag_189)\n    tag_190:\n      pop\n        /* \"contracts/Utils.sol\":8643:8654  MatchedRows */\n      dup2\n        /* \"contracts/Utils.sol\":8620:8655  new PatchTransaction[](MatchedRows) */\n      0xffffffffffffffff\n      dup2\n      gt\n      iszero\n      tag_237\n      jumpi\n      tag_238\n      tag_101\n      jump\t// in\n    tag_238:\n    tag_237:\n      mload(0x40)\n      swap1\n      dup1\n      dup3\n      mstore\n      dup1\n      0x20\n      mul\n      0x20\n      add\n      dup3\n      add\n      0x40\n      mstore\n      dup1\n      iszero\n      tag_239\n      jumpi\n      dup2\n      0x20\n      add\n    tag_240:\n      tag_241\n      tag_188\n      jump\t// in\n    tag_241:\n      dup2\n      mstore\n      0x20\n      add\n      swap1\n      0x01\n      swap1\n      sub\n      swap1\n      dup2\n      tag_240\n      jumpi\n      swap1\n      pop\n    tag_239:\n      pop\n        /* \"contracts/Utils.sol\":8602:8655  UserTransaction = new PatchTransaction[](MatchedRows) */\n      swap3\n      pop\n        /* \"contracts/Utils.sol\":8683:8684  0 */\n      0x00\n        /* \"contracts/Utils.sol\":8669:8680  MatchedRows */\n      dup3\n        /* \"contracts/Utils.sol\":8669:8684  MatchedRows > 0 */\n      gt\n        /* \"contracts/Utils.sol\":8665:8817  if (MatchedRows > 0) {... */\n      iszero\n      tag_242\n      jumpi\n        /* \"contracts/Utils.sol\":8705:8714  uint256 i */\n      0x00\n        /* \"contracts/Utils.sol\":8700:8807  for (uint256 i = 0; i < MatchedRows; i++) {... */\n    tag_243:\n        /* \"contracts/Utils.sol\":8724:8735  MatchedRows */\n      dup3\n        /* \"contracts/Utils.sol\":8720:8721  i */\n      dup2\n        /* \"contracts/Utils.sol\":8720:8735  i < MatchedRows */\n      lt\n        /* \"contracts/Utils.sol\":8700:8807  for (uint256 i = 0; i < MatchedRows; i++) {... */\n      iszero\n      tag_244\n      jumpi\n        /* \"contracts/Utils.sol\":8781:8789  TempTran */\n      dup2\n        /* \"contracts/Utils.sol\":8790:8791  i */\n      dup2\n        /* \"contracts/Utils.sol\":8781:8792  TempTran[i] */\n      dup2\n      mload\n      dup2\n      lt\n      tag_246\n      jumpi\n      tag_247\n      tag_114\n      jump\t// in\n    tag_247:\n    tag_246:\n      0x20\n      mul\n      0x20\n      add\n      add\n      mload\n        /* \"contracts/Utils.sol\":8760:8775  UserTransaction */\n      dup5\n        /* \"contracts/Utils.sol\":8776:8777  i */\n      dup3\n        /* \"contracts/Utils.sol\":8760:8778  UserTransaction[i] */\n      dup2\n      mload\n      dup2\n      lt\n      tag_248\n      jumpi\n      tag_249\n      tag_114\n      jump\t// in\n    tag_249:\n    tag_248:\n      0x20\n      mul\n      0x20\n      add\n      add\n        /* \"contracts/Utils.sol\":8760:8792  UserTransaction[i] = TempTran[i] */\n      dup2\n      swap1\n      mstore\n      pop\n        /* \"contracts/Utils.sol\":8737:8740  i++ */\n      dup1\n      dup1\n      tag_250\n      swap1\n      tag_156\n      jump\t// in\n    tag_250:\n      swap2\n      pop\n      pop\n        /* \"contracts/Utils.sol\":8700:8807  for (uint256 i = 0; i < MatchedRows; i++) {... */\n      jump(tag_243)\n    tag_244:\n      pop\n        /* \"contracts/Utils.sol\":8665:8817  if (MatchedRows > 0) {... */\n    tag_242:\n        /* \"contracts/Utils.sol\":7769:8823  {... */\n      pop\n      pop\n        /* \"contracts/Utils.sol\":7563:8823  function ReadParentAndSiblingsTransactions(... */\n      swap4\n      swap3\n      pop\n      pop\n      pop\n      jump\t// out\n        /* \"contracts/Utils.sol\":5716:7558  function ReadTransactionsByPatchNo(... */\n    tag_42:\n        /* \"contracts/Utils.sol\":5841:5891  PatchTransactionsFullData[] memory UserTransaction */\n      0x60\n        /* \"contracts/Utils.sol\":5903:5922  uint256 MatchedRows */\n      0x00\n        /* \"contracts/Utils.sol\":5932:5966  PatchTransaction[] memory TempTran */\n      dup1\n        /* \"contracts/Utils.sol\":6005:6023  PatchTrannsactions */\n      0x05\n        /* \"contracts/Utils.sol\":6005:6030  PatchTrannsactions.length */\n      dup1\n      sload\n      swap1\n      pop\n        /* \"contracts/Utils.sol\":5969:6040  new PatchTransaction[](... */\n      0xffffffffffffffff\n      dup2\n      gt\n      iszero\n      tag_252\n      jumpi\n      tag_253\n      tag_101\n      jump\t// in\n    tag_253:\n    tag_252:\n      mload(0x40)\n      swap1\n      dup1\n      dup3\n      mstore\n      dup1\n      0x20\n      mul\n      0x20\n      add\n      dup3\n      add\n      0x40\n      mstore\n      dup1\n      iszero\n      tag_254\n      jumpi\n      dup2\n      0x20\n      add\n    tag_255:\n      tag_256\n      tag_188\n      jump\t// in\n    tag_256:\n      dup2\n      mstore\n      0x20\n      add\n      swap1\n      0x01\n      swap1\n      sub\n      swap1\n      dup2\n      tag_255\n      jumpi\n      swap1\n      pop\n    tag_254:\n      pop\n        /* \"contracts/Utils.sol\":5932:6040  PatchTransaction[] memory TempTran = new PatchTransaction[](... */\n      swap1\n      pop\n        /* \"contracts/Utils.sol\":6055:6064  uint256 i */\n      0x00\n        /* \"contracts/Utils.sol\":6050:6527  for (uint256 i = 0; i < PatchTrannsactions.length; i++) {... */\n    tag_257:\n        /* \"contracts/Utils.sol\":6074:6092  PatchTrannsactions */\n      0x05\n        /* \"contracts/Utils.sol\":6074:6099  PatchTrannsactions.length */\n      dup1\n      sload\n      swap1\n      pop\n        /* \"contracts/Utils.sol\":6070:6071  i */\n      dup2\n        /* \"contracts/Utils.sol\":6070:6099  i < PatchTrannsactions.length */\n      lt\n        /* \"contracts/Utils.sol\":6050:6527  for (uint256 i = 0; i < PatchTrannsactions.length; i++) {... */\n      iszero\n      tag_258\n      jumpi\n        /* \"contracts/Utils.sol\":6190:6310  compareStringsbyBytes(... */\n      tag_260\n        /* \"contracts/Utils.sol\":6233:6251  PatchTrannsactions */\n      0x05\n        /* \"contracts/Utils.sol\":6252:6253  i */\n      dup3\n        /* \"contracts/Utils.sol\":6233:6254  PatchTrannsactions[i] */\n      dup2\n      sload\n      dup2\n      lt\n      tag_261\n      jumpi\n      tag_262\n      tag_114\n      jump\t// in\n    tag_262:\n    tag_261:\n      swap1\n      0x00\n      mstore\n      keccak256(0x00, 0x20)\n      swap1\n      0x07\n      mul\n      add\n        /* \"contracts/Utils.sol\":6233:6262  PatchTrannsactions[i].PatchNo */\n      0x01\n      add\n        /* \"contracts/Utils.sol\":6190:6310  compareStringsbyBytes(... */\n      dup1\n      sload\n      tag_264\n      swap1\n      tag_123\n      jump\t// in\n    tag_264:\n      dup1\n      0x1f\n      add\n      0x20\n      dup1\n      swap2\n      div\n      mul\n      0x20\n      add\n      mload(0x40)\n      swap1\n      dup2\n      add\n      0x40\n      mstore\n      dup1\n      swap3\n      swap2\n      swap1\n      dup2\n      dup2\n      mstore\n      0x20\n      add\n      dup3\n      dup1\n      sload\n      tag_265\n      swap1\n      tag_123\n      jump\t// in\n    tag_265:\n      dup1\n      iszero\n      tag_266\n      jumpi\n      dup1\n      0x1f\n      lt\n      tag_267\n      jumpi\n      0x0100\n      dup1\n      dup4\n      sload\n      div\n      mul\n      dup4\n      mstore\n      swap2\n      0x20\n      add\n      swap2\n      jump(tag_266)\n    tag_267:\n      dup3\n      add\n      swap2\n      swap1\n      0x00\n      mstore\n      keccak256(0x00, 0x20)\n      swap1\n    tag_268:\n      dup2\n      sload\n      dup2\n      mstore\n      swap1\n      0x01\n      add\n      swap1\n      0x20\n      add\n      dup1\n      dup4\n      gt\n      tag_268\n      jumpi\n      dup3\n      swap1\n      sub\n      0x1f\n      and\n      dup3\n      add\n      swap2\n    tag_266:\n      pop\n      pop\n      pop\n      pop\n      pop\n        /* \"contracts/Utils.sol\":6284:6292  _patchno */\n      dup8\n        /* \"contracts/Utils.sol\":6190:6211  compareStringsbyBytes */\n      tag_90\n        /* \"contracts/Utils.sol\":6190:6310  compareStringsbyBytes(... */\n      jump\t// in\n    tag_260:\n        /* \"contracts/Utils.sol\":6190:6393  compareStringsbyBytes(... */\n      dup1\n      iszero\n      tag_269\n      jumpi\n      pop\n        /* \"contracts/Utils.sol\":6330:6393  compareStringsbyBytes(PatchTrannsactions[i].DrugRegNo, _drugno) */\n      tag_270\n        /* \"contracts/Utils.sol\":6352:6370  PatchTrannsactions */\n      0x05\n        /* \"contracts/Utils.sol\":6371:6372  i */\n      dup3\n        /* \"contracts/Utils.sol\":6352:6373  PatchTrannsactions[i] */\n      dup2\n      sload\n      dup2\n      lt\n      tag_271\n      jumpi\n      tag_272\n      tag_114\n      jump\t// in\n    tag_272:\n    tag_271:\n      swap1\n      0x00\n      mstore\n      keccak256(0x00, 0x20)\n      swap1\n      0x07\n      mul\n      add\n        /* \"contracts/Utils.sol\":6352:6383  PatchTrannsactions[i].DrugRegNo */\n      0x00\n      add\n        /* \"contracts/Utils.sol\":6330:6393  compareStringsbyBytes(PatchTrannsactions[i].DrugRegNo, _drugno) */\n      dup1\n      sload\n      tag_274\n      swap1\n      tag_123\n      jump\t// in\n    tag_274:\n      dup1\n      0x1f\n      add\n      0x20\n      dup1\n      swap2\n      div\n      mul\n      0x20\n      add\n      mload(0x40)\n      swap1\n      dup2\n      add\n      0x40\n      mstore\n      dup1\n      swap3\n      swap2\n      swap1\n      dup2\n      dup2\n      mstore\n      0x20\n      add\n      dup3\n      dup1\n      sload\n      tag_275\n      swap1\n      tag_123\n      jump\t// in\n    tag_275:\n      dup1\n      iszero\n      tag_276\n      jumpi\n      dup1\n      0x1f\n      lt\n      tag_277\n      jumpi\n      0x0100\n      dup1\n      dup4\n      sload\n      div\n      mul\n      dup4\n      mstore\n      swap2\n      0x20\n      add\n      swap2\n      jump(tag_276)\n    tag_277:\n      dup3\n      add\n      swap2\n      swap1\n      0x00\n      mstore\n      keccak256(0x00, 0x20)\n      swap1\n    tag_278:\n      dup2\n      sload\n      dup2\n      mstore\n      swap1\n      0x01\n      add\n      swap1\n      0x20\n      add\n      dup1\n      dup4\n      gt\n      tag_278\n      jumpi\n      dup3\n      swap1\n      sub\n      0x1f\n      and\n      dup3\n      add\n      swap2\n    tag_276:\n      pop\n      pop\n      pop\n      pop\n      pop\n        /* \"contracts/Utils.sol\":6385:6392  _drugno */\n      dup7\n        /* \"contracts/Utils.sol\":6330:6351  compareStringsbyBytes */\n      tag_90\n        /* \"contracts/Utils.sol\":6330:6393  compareStringsbyBytes(PatchTrannsactions[i].DrugRegNo, _drugno) */\n      jump\t// in\n    tag_270:\n        /* \"contracts/Utils.sol\":6190:6393  compareStringsbyBytes(... */\n    tag_269:\n        /* \"contracts/Utils.sol\":6169:6517  if (... */\n      iszero\n      tag_279\n      jumpi\n        /* \"contracts/Utils.sol\":6450:6468  PatchTrannsactions */\n      0x05\n        /* \"contracts/Utils.sol\":6469:6470  i */\n      dup2\n        /* \"contracts/Utils.sol\":6450:6471  PatchTrannsactions[i] */\n      dup2\n      sload\n      dup2\n      lt\n      tag_280\n      jumpi\n      tag_281\n      tag_114\n      jump\t// in\n    tag_281:\n    tag_280:\n      swap1\n      0x00\n      mstore\n      keccak256(0x00, 0x20)\n      swap1\n      0x07\n      mul\n      add\n        /* \"contracts/Utils.sol\":6426:6471  TempTran[MatchedRows] = PatchTrannsactions[i] */\n      mload(0x40)\n      dup1\n      0xe0\n      add\n      0x40\n      mstore\n      swap1\n      dup2\n      0x00\n      dup3\n      add\n      dup1\n      sload\n      tag_283\n      swap1\n      tag_123\n      jump\t// in\n    tag_283:\n      dup1\n      0x1f\n      add\n      0x20\n      dup1\n      swap2\n      div\n      mul\n      0x20\n      add\n      mload(0x40)\n      swap1\n      dup2\n      add\n      0x40\n      mstore\n      dup1\n      swap3\n      swap2\n      swap1\n      dup2\n      dup2\n      mstore\n      0x20\n      add\n      dup3\n      dup1\n      sload\n      tag_284\n      swap1\n      tag_123\n      jump\t// in\n    tag_284:\n      dup1\n      iszero\n      tag_285\n      jumpi\n      dup1\n      0x1f\n      lt\n      tag_286\n      jumpi\n      0x0100\n      dup1\n      dup4\n      sload\n      div\n      mul\n      dup4\n      mstore\n      swap2\n      0x20\n      add\n      swap2\n      jump(tag_285)\n    tag_286:\n      dup3\n      add\n      swap2\n      swap1\n      0x00\n      mstore\n      keccak256(0x00, 0x20)\n      swap1\n    tag_287:\n      dup2\n      sload\n      dup2\n      mstore\n      swap1\n      0x01\n      add\n      swap1\n      0x20\n      add\n      dup1\n      dup4\n      gt\n      tag_287\n      jumpi\n      dup3\n      swap1\n      sub\n      0x1f\n      and\n      dup3\n      add\n      swap2\n    tag_285:\n      pop\n      pop\n      pop\n      pop\n      pop\n      dup2\n      mstore\n      0x20\n      add\n      0x01\n      dup3\n      add\n      dup1\n      sload\n      tag_288\n      swap1\n      tag_123\n      jump\t// in\n    tag_288:\n      dup1\n      0x1f\n      add\n      0x20\n      dup1\n      swap2\n      div\n      mul\n      0x20\n      add\n      mload(0x40)\n      swap1\n      dup2\n      add\n      0x40\n      mstore\n      dup1\n      swap3\n      swap2\n      swap1\n      dup2\n      dup2\n      mstore\n      0x20\n      add\n      dup3\n      dup1\n      sload\n      tag_289\n      swap1\n      tag_123\n      jump\t// in\n    tag_289:\n      dup1\n      iszero\n      tag_290\n      jumpi\n      dup1\n      0x1f\n      lt\n      tag_291\n      jumpi\n      0x0100\n      dup1\n      dup4\n      sload\n      div\n      mul\n      dup4\n      mstore\n      swap2\n      0x20\n      add\n      swap2\n      jump(tag_290)\n    tag_291:\n      dup3\n      add\n      swap2\n      swap1\n      0x00\n      mstore\n      keccak256(0x00, 0x20)\n      swap1\n    tag_292:\n      dup2\n      sload\n      dup2\n      mstore\n      swap1\n      0x01\n      add\n      swap1\n      0x20\n      add\n      dup1\n      dup4\n      gt\n      tag_292\n      jumpi\n      dup3\n      swap1\n      sub\n      0x1f\n      and\n      dup3\n      add\n      swap2\n    tag_290:\n      pop\n      pop\n      pop\n      pop\n      pop\n      dup2\n      mstore\n      0x20\n      add\n      0x02\n      dup3\n      add\n      sload\n      dup2\n      mstore\n      0x20\n      add\n      0x03\n      dup3\n      add\n      0x00\n      swap1\n      sload\n      swap1\n      0x0100\n      exp\n      swap1\n      div\n      0xffffffffffffffffffffffffffffffffffffffff\n      and\n      0xffffffffffffffffffffffffffffffffffffffff\n      and\n      0xffffffffffffffffffffffffffffffffffffffff\n      and\n      dup2\n      mstore\n      0x20\n      add\n      0x04\n      dup3\n      add\n      0x00\n      swap1\n      sload\n      swap1\n      0x0100\n      exp\n      swap1\n      div\n      0xffffffffffffffffffffffffffffffffffffffff\n      and\n      0xffffffffffffffffffffffffffffffffffffffff\n      and\n      0xffffffffffffffffffffffffffffffffffffffff\n      and\n      dup2\n      mstore\n      0x20\n      add\n      0x05\n      dup3\n      add\n      sload\n      dup2\n      mstore\n      0x20\n      add\n      0x06\n      dup3\n      add\n      sload\n      dup2\n      mstore\n      pop\n      pop\n        /* \"contracts/Utils.sol\":6426:6434  TempTran */\n      dup3\n        /* \"contracts/Utils.sol\":6435:6446  MatchedRows */\n      dup5\n        /* \"contracts/Utils.sol\":6426:6447  TempTran[MatchedRows] */\n      dup2\n      mload\n      dup2\n      lt\n      tag_293\n      jumpi\n      tag_294\n      tag_114\n      jump\t// in\n    tag_294:\n    tag_293:\n      0x20\n      mul\n      0x20\n      add\n      add\n        /* \"contracts/Utils.sol\":6426:6471  TempTran[MatchedRows] = PatchTrannsactions[i] */\n      dup2\n      swap1\n      mstore\n      pop\n        /* \"contracts/Utils.sol\":6489:6502  MatchedRows++ */\n      dup3\n      dup1\n      tag_295\n      swap1\n      tag_156\n      jump\t// in\n    tag_295:\n      swap4\n      pop\n      pop\n        /* \"contracts/Utils.sol\":6169:6517  if (... */\n    tag_279:\n        /* \"contracts/Utils.sol\":6101:6104  i++ */\n      dup1\n      dup1\n      tag_296\n      swap1\n      tag_156\n      jump\t// in\n    tag_296:\n      swap2\n      pop\n      pop\n        /* \"contracts/Utils.sol\":6050:6527  for (uint256 i = 0; i < PatchTrannsactions.length; i++) {... */\n      jump(tag_257)\n    tag_258:\n      pop\n        /* \"contracts/Utils.sol\":6586:6597  MatchedRows */\n      dup2\n        /* \"contracts/Utils.sol\":6554:6598  new PatchTransactionsFullData[](MatchedRows) */\n      0xffffffffffffffff\n      dup2\n      gt\n      iszero\n      tag_297\n      jumpi\n      tag_298\n      tag_101\n      jump\t// in\n    tag_298:\n    tag_297:\n      mload(0x40)\n      swap1\n      dup1\n      dup3\n      mstore\n      dup1\n      0x20\n      mul\n      0x20\n      add\n      dup3\n      add\n      0x40\n      mstore\n      dup1\n      iszero\n      tag_299\n      jumpi\n      dup2\n      0x20\n      add\n    tag_300:\n      tag_301\n      tag_302\n      jump\t// in\n    tag_301:\n      dup2\n      mstore\n      0x20\n      add\n      swap1\n      0x01\n      swap1\n      sub\n      swap1\n      dup2\n      tag_300\n      jumpi\n      swap1\n      pop\n    tag_299:\n      pop\n        /* \"contracts/Utils.sol\":6536:6598  UserTransaction = new PatchTransactionsFullData[](MatchedRows) */\n      swap3\n      pop\n        /* \"contracts/Utils.sol\":6626:6627  0 */\n      0x00\n        /* \"contracts/Utils.sol\":6612:6623  MatchedRows */\n      dup3\n        /* \"contracts/Utils.sol\":6612:6627  MatchedRows > 0 */\n      gt\n        /* \"contracts/Utils.sol\":6608:7552  if (MatchedRows > 0) {... */\n      iszero\n      tag_303\n      jumpi\n        /* \"contracts/Utils.sol\":6648:6657  uint256 i */\n      0x00\n        /* \"contracts/Utils.sol\":6643:7542  for (uint256 i = 0; i < MatchedRows; i++) {... */\n    tag_304:\n        /* \"contracts/Utils.sol\":6667:6678  MatchedRows */\n      dup3\n        /* \"contracts/Utils.sol\":6663:6664  i */\n      dup2\n        /* \"contracts/Utils.sol\":6663:6678  i < MatchedRows */\n      lt\n        /* \"contracts/Utils.sol\":6643:7542  for (uint256 i = 0; i < MatchedRows; i++) {... */\n      iszero\n      tag_305\n      jumpi\n        /* \"contracts/Utils.sol\":6734:6742  TempTran */\n      dup2\n        /* \"contracts/Utils.sol\":6743:6744  i */\n      dup2\n        /* \"contracts/Utils.sol\":6734:6745  TempTran[i] */\n      dup2\n      mload\n      dup2\n      lt\n      tag_307\n      jumpi\n      tag_308\n      tag_114\n      jump\t// in\n    tag_308:\n    tag_307:\n      0x20\n      mul\n      0x20\n      add\n      add\n      mload\n        /* \"contracts/Utils.sol\":6734:6755  TempTran[i].DrugRegNo */\n      0x00\n      add\n      mload\n        /* \"contracts/Utils.sol\":6703:6718  UserTransaction */\n      dup5\n        /* \"contracts/Utils.sol\":6719:6720  i */\n      dup3\n        /* \"contracts/Utils.sol\":6703:6721  UserTransaction[i] */\n      dup2\n      mload\n      dup2\n      lt\n      tag_309\n      jumpi\n      tag_310\n      tag_114\n      jump\t// in\n    tag_310:\n    tag_309:\n      0x20\n      mul\n      0x20\n      add\n      add\n      mload\n        /* \"contracts/Utils.sol\":6703:6731  UserTransaction[i].DrugRegNo */\n      0x00\n      add\n        /* \"contracts/Utils.sol\":6703:6755  UserTransaction[i].DrugRegNo = TempTran[i].DrugRegNo */\n      dup2\n      swap1\n      mstore\n      pop\n        /* \"contracts/Utils.sol\":6802:6810  TempTran */\n      dup2\n        /* \"contracts/Utils.sol\":6811:6812  i */\n      dup2\n        /* \"contracts/Utils.sol\":6802:6813  TempTran[i] */\n      dup2\n      mload\n      dup2\n      lt\n      tag_311\n      jumpi\n      tag_312\n      tag_114\n      jump\t// in\n    tag_312:\n    tag_311:\n      0x20\n      mul\n      0x20\n      add\n      add\n      mload\n        /* \"contracts/Utils.sol\":6802:6821  TempTran[i].PatchNo */\n      0x20\n      add\n      mload\n        /* \"contracts/Utils.sol\":6773:6788  UserTransaction */\n      dup5\n        /* \"contracts/Utils.sol\":6789:6790  i */\n      dup3\n        /* \"contracts/Utils.sol\":6773:6791  UserTransaction[i] */\n      dup2\n      mload\n      dup2\n      lt\n      tag_313\n      jumpi\n      tag_314\n      tag_114\n      jump\t// in\n    tag_314:\n    tag_313:\n      0x20\n      mul\n      0x20\n      add\n      add\n      mload\n        /* \"contracts/Utils.sol\":6773:6799  UserTransaction[i].PatchNo */\n      0x20\n      add\n        /* \"contracts/Utils.sol\":6773:6821  UserTransaction[i].PatchNo = TempTran[i].PatchNo */\n      dup2\n      swap1\n      mstore\n      pop\n        /* \"contracts/Utils.sol\":6867:6875  TempTran */\n      dup2\n        /* \"contracts/Utils.sol\":6876:6877  i */\n      dup2\n        /* \"contracts/Utils.sol\":6867:6878  TempTran[i] */\n      dup2\n      mload\n      dup2\n      lt\n      tag_315\n      jumpi\n      tag_316\n      tag_114\n      jump\t// in\n    tag_316:\n    tag_315:\n      0x20\n      mul\n      0x20\n      add\n      add\n      mload\n        /* \"contracts/Utils.sol\":6867:6885  TempTran[i].LineNo */\n      0x40\n      add\n      mload\n        /* \"contracts/Utils.sol\":6839:6854  UserTransaction */\n      dup5\n        /* \"contracts/Utils.sol\":6855:6856  i */\n      dup3\n        /* \"contracts/Utils.sol\":6839:6857  UserTransaction[i] */\n      dup2\n      mload\n      dup2\n      lt\n      tag_317\n      jumpi\n      tag_318\n      tag_114\n      jump\t// in\n    tag_318:\n    tag_317:\n      0x20\n      mul\n      0x20\n      add\n      add\n      mload\n        /* \"contracts/Utils.sol\":6839:6864  UserTransaction[i].LineNo */\n      0x40\n      add\n        /* \"contracts/Utils.sol\":6839:6885  UserTransaction[i].LineNo = TempTran[i].LineNo */\n      dup2\n      dup2\n      mstore\n      pop\n      pop\n        /* \"contracts/Utils.sol\":6931:6939  TempTran */\n      dup2\n        /* \"contracts/Utils.sol\":6940:6941  i */\n      dup2\n        /* \"contracts/Utils.sol\":6931:6942  TempTran[i] */\n      dup2\n      mload\n      dup2\n      lt\n      tag_319\n      jumpi\n      tag_320\n      tag_114\n      jump\t// in\n    tag_320:\n    tag_319:\n      0x20\n      mul\n      0x20\n      add\n      add\n      mload\n        /* \"contracts/Utils.sol\":6931:6949  TempTran[i].FromID */\n      0x60\n      add\n      mload\n        /* \"contracts/Utils.sol\":6903:6918  UserTransaction */\n      dup5\n        /* \"contracts/Utils.sol\":6919:6920  i */\n      dup3\n        /* \"contracts/Utils.sol\":6903:6921  UserTransaction[i] */\n      dup2\n      mload\n      dup2\n      lt\n      tag_321\n      jumpi\n      tag_322\n      tag_114\n      jump\t// in\n    tag_322:\n    tag_321:\n      0x20\n      mul\n      0x20\n      add\n      add\n      mload\n        /* \"contracts/Utils.sol\":6903:6928  UserTransaction[i].FromID */\n      0x60\n      add\n        /* \"contracts/Utils.sol\":6903:6949  UserTransaction[i].FromID = TempTran[i].FromID */\n      swap1\n      0xffffffffffffffffffffffffffffffffffffffff\n      and\n      swap1\n      dup2\n      0xffffffffffffffffffffffffffffffffffffffff\n      and\n      dup2\n      mstore\n      pop\n      pop\n        /* \"contracts/Utils.sol\":6997:7015  UserAddressMapping */\n      0x01\n        /* \"contracts/Utils.sol\":6997:7035  UserAddressMapping[TempTran[i].FromID] */\n      0x00\n        /* \"contracts/Utils.sol\":7016:7024  TempTran */\n      dup4\n        /* \"contracts/Utils.sol\":7025:7026  i */\n      dup4\n        /* \"contracts/Utils.sol\":7016:7027  TempTran[i] */\n      dup2\n      mload\n      dup2\n      lt\n      tag_323\n      jumpi\n      tag_324\n      tag_114\n      jump\t// in\n    tag_324:\n    tag_323:\n      0x20\n      mul\n      0x20\n      add\n      add\n      mload\n        /* \"contracts/Utils.sol\":7016:7034  TempTran[i].FromID */\n      0x60\n      add\n      mload\n        /* \"contracts/Utils.sol\":6997:7035  UserAddressMapping[TempTran[i].FromID] */\n      0xffffffffffffffffffffffffffffffffffffffff\n      and\n      0xffffffffffffffffffffffffffffffffffffffff\n      and\n      dup2\n      mstore\n      0x20\n      add\n      swap1\n      dup2\n      mstore\n      0x20\n      add\n      0x00\n      keccak256\n        /* \"contracts/Utils.sol\":6997:7044  UserAddressMapping[TempTran[i].FromID].UserName */\n      0x01\n      add\n        /* \"contracts/Utils.sol\":6967:7044  UserTransaction[i].FromName = UserAddressMapping[TempTran[i].FromID].UserName */\n      dup1\n      sload\n      tag_325\n      swap1\n      tag_123\n      jump\t// in\n    tag_325:\n      dup1\n      0x1f\n      add\n      0x20\n      dup1\n      swap2\n      div\n      mul\n      0x20\n      add\n      mload(0x40)\n      swap1\n      dup2\n      add\n      0x40\n      mstore\n      dup1\n      swap3\n      swap2\n      swap1\n      dup2\n      dup2\n      mstore\n      0x20\n      add\n      dup3\n      dup1\n      sload\n      tag_326\n      swap1\n      tag_123\n      jump\t// in\n    tag_326:\n      dup1\n      iszero\n      tag_327\n      jumpi\n      dup1\n      0x1f\n      lt\n      tag_328\n      jumpi\n      0x0100\n      dup1\n      dup4\n      sload\n      div\n      mul\n      dup4\n      mstore\n      swap2\n      0x20\n      add\n      swap2\n      jump(tag_327)\n    tag_328:\n      dup3\n      add\n      swap2\n      swap1\n      0x00\n      mstore\n      keccak256(0x00, 0x20)\n      swap1\n    tag_329:\n      dup2\n      sload\n      dup2\n      mstore\n      swap1\n      0x01\n      add\n      swap1\n      0x20\n      add\n      dup1\n      dup4\n      gt\n      tag_329\n      jumpi\n      dup3\n      swap1\n      sub\n      0x1f\n      and\n      dup3\n      add\n      swap2\n    tag_327:\n      pop\n      pop\n      pop\n      pop\n      pop\n        /* \"contracts/Utils.sol\":6967:6982  UserTransaction */\n      dup5\n        /* \"contracts/Utils.sol\":6983:6984  i */\n      dup3\n        /* \"contracts/Utils.sol\":6967:6985  UserTransaction[i] */\n      dup2\n      mload\n      dup2\n      lt\n      tag_330\n      jumpi\n      tag_331\n      tag_114\n      jump\t// in\n    tag_331:\n    tag_330:\n      0x20\n      mul\n      0x20\n      add\n      add\n      mload\n        /* \"contracts/Utils.sol\":6967:6994  UserTransaction[i].FromName */\n      0x80\n      add\n        /* \"contracts/Utils.sol\":6967:7044  UserTransaction[i].FromName = UserAddressMapping[TempTran[i].FromID].UserName */\n      dup2\n      swap1\n      mstore\n      pop\n        /* \"contracts/Utils.sol\":7092:7110  UserAddressMapping */\n      0x01\n        /* \"contracts/Utils.sol\":7092:7130  UserAddressMapping[TempTran[i].FromID] */\n      0x00\n        /* \"contracts/Utils.sol\":7111:7119  TempTran */\n      dup4\n        /* \"contracts/Utils.sol\":7120:7121  i */\n      dup4\n        /* \"contracts/Utils.sol\":7111:7122  TempTran[i] */\n      dup2\n      mload\n      dup2\n      lt\n      tag_332\n      jumpi\n      tag_333\n      tag_114\n      jump\t// in\n    tag_333:\n    tag_332:\n      0x20\n      mul\n      0x20\n      add\n      add\n      mload\n        /* \"contracts/Utils.sol\":7111:7129  TempTran[i].FromID */\n      0x60\n      add\n      mload\n        /* \"contracts/Utils.sol\":7092:7130  UserAddressMapping[TempTran[i].FromID] */\n      0xffffffffffffffffffffffffffffffffffffffff\n      and\n      0xffffffffffffffffffffffffffffffffffffffff\n      and\n      dup2\n      mstore\n      0x20\n      add\n      swap1\n      dup2\n      mstore\n      0x20\n      add\n      0x00\n      keccak256\n        /* \"contracts/Utils.sol\":7092:7139  UserAddressMapping[TempTran[i].FromID].UserRole */\n      0x02\n      add\n      0x00\n      swap1\n      sload\n      swap1\n      0x0100\n      exp\n      swap1\n      div\n      0xff\n      and\n        /* \"contracts/Utils.sol\":7062:7077  UserTransaction */\n      dup5\n        /* \"contracts/Utils.sol\":7078:7079  i */\n      dup3\n        /* \"contracts/Utils.sol\":7062:7080  UserTransaction[i] */\n      dup2\n      mload\n      dup2\n      lt\n      tag_334\n      jumpi\n      tag_335\n      tag_114\n      jump\t// in\n    tag_335:\n    tag_334:\n      0x20\n      mul\n      0x20\n      add\n      add\n      mload\n        /* \"contracts/Utils.sol\":7062:7089  UserTransaction[i].FromRole */\n      0xa0\n      add\n        /* \"contracts/Utils.sol\":7062:7139  UserTransaction[i].FromRole = UserAddressMapping[TempTran[i].FromID].UserRole */\n      swap1\n      0x08\n      dup2\n      gt\n      iszero\n      tag_336\n      jumpi\n      tag_337\n      tag_111\n      jump\t// in\n    tag_337:\n    tag_336:\n      swap1\n      dup2\n      0x08\n      dup2\n      gt\n      iszero\n      tag_338\n      jumpi\n      tag_339\n      tag_111\n      jump\t// in\n    tag_339:\n    tag_338:\n      dup2\n      mstore\n      pop\n      pop\n        /* \"contracts/Utils.sol\":7183:7191  TempTran */\n      dup2\n        /* \"contracts/Utils.sol\":7192:7193  i */\n      dup2\n        /* \"contracts/Utils.sol\":7183:7194  TempTran[i] */\n      dup2\n      mload\n      dup2\n      lt\n      tag_340\n      jumpi\n      tag_341\n      tag_114\n      jump\t// in\n    tag_341:\n    tag_340:\n      0x20\n      mul\n      0x20\n      add\n      add\n      mload\n        /* \"contracts/Utils.sol\":7183:7199  TempTran[i].ToID */\n      0x80\n      add\n      mload\n        /* \"contracts/Utils.sol\":7157:7172  UserTransaction */\n      dup5\n        /* \"contracts/Utils.sol\":7173:7174  i */\n      dup3\n        /* \"contracts/Utils.sol\":7157:7175  UserTransaction[i] */\n      dup2\n      mload\n      dup2\n      lt\n      tag_342\n      jumpi\n      tag_343\n      tag_114\n      jump\t// in\n    tag_343:\n    tag_342:\n      0x20\n      mul\n      0x20\n      add\n      add\n      mload\n        /* \"contracts/Utils.sol\":7157:7180  UserTransaction[i].ToID */\n      0xc0\n      add\n        /* \"contracts/Utils.sol\":7157:7199  UserTransaction[i].ToID = TempTran[i].ToID */\n      swap1\n      0xffffffffffffffffffffffffffffffffffffffff\n      and\n      swap1\n      dup2\n      0xffffffffffffffffffffffffffffffffffffffff\n      and\n      dup2\n      mstore\n      pop\n      pop\n        /* \"contracts/Utils.sol\":7245:7263  UserAddressMapping */\n      0x01\n        /* \"contracts/Utils.sol\":7245:7281  UserAddressMapping[TempTran[i].ToID] */\n      0x00\n        /* \"contracts/Utils.sol\":7264:7272  TempTran */\n      dup4\n        /* \"contracts/Utils.sol\":7273:7274  i */\n      dup4\n        /* \"contracts/Utils.sol\":7264:7275  TempTran[i] */\n      dup2\n      mload\n      dup2\n      lt\n      tag_344\n      jumpi\n      tag_345\n      tag_114\n      jump\t// in\n    tag_345:\n    tag_344:\n      0x20\n      mul\n      0x20\n      add\n      add\n      mload\n        /* \"contracts/Utils.sol\":7264:7280  TempTran[i].ToID */\n      0x80\n      add\n      mload\n        /* \"contracts/Utils.sol\":7245:7281  UserAddressMapping[TempTran[i].ToID] */\n      0xffffffffffffffffffffffffffffffffffffffff\n      and\n      0xffffffffffffffffffffffffffffffffffffffff\n      and\n      dup2\n      mstore\n      0x20\n      add\n      swap1\n      dup2\n      mstore\n      0x20\n      add\n      0x00\n      keccak256\n        /* \"contracts/Utils.sol\":7245:7290  UserAddressMapping[TempTran[i].ToID].UserName */\n      0x01\n      add\n        /* \"contracts/Utils.sol\":7217:7290  UserTransaction[i].ToName = UserAddressMapping[TempTran[i].ToID].UserName */\n      dup1\n      sload\n      tag_346\n      swap1\n      tag_123\n      jump\t// in\n    tag_346:\n      dup1\n      0x1f\n      add\n      0x20\n      dup1\n      swap2\n      div\n      mul\n      0x20\n      add\n      mload(0x40)\n      swap1\n      dup2\n      add\n      0x40\n      mstore\n      dup1\n      swap3\n      swap2\n      swap1\n      dup2\n      dup2\n      mstore\n      0x20\n      add\n      dup3\n      dup1\n      sload\n      tag_347\n      swap1\n      tag_123\n      jump\t// in\n    tag_347:\n      dup1\n      iszero\n      tag_348\n      jumpi\n      dup1\n      0x1f\n      lt\n      tag_349\n      jumpi\n      0x0100\n      dup1\n      dup4\n      sload\n      div\n      mul\n      dup4\n      mstore\n      swap2\n      0x20\n      add\n      swap2\n      jump(tag_348)\n    tag_349:\n      dup3\n      add\n      swap2\n      swap1\n      0x00\n      mstore\n      keccak256(0x00, 0x20)\n      swap1\n    tag_350:\n      dup2\n      sload\n      dup2\n      mstore\n      swap1\n      0x01\n      add\n      swap1\n      0x20\n      add\n      dup1\n      dup4\n      gt\n      tag_350\n      jumpi\n      dup3\n      swap1\n      sub\n      0x1f\n      and\n      dup3\n      add\n      swap2\n    tag_348:\n      pop\n      pop\n      pop\n      pop\n      pop\n        /* \"contracts/Utils.sol\":7217:7232  UserTransaction */\n      dup5\n        /* \"contracts/Utils.sol\":7233:7234  i */\n      dup3\n        /* \"contracts/Utils.sol\":7217:7235  UserTransaction[i] */\n      dup2\n      mload\n      dup2\n      lt\n      tag_351\n      jumpi\n      tag_352\n      tag_114\n      jump\t// in\n    tag_352:\n    tag_351:\n      0x20\n      mul\n      0x20\n      add\n      add\n      mload\n        /* \"contracts/Utils.sol\":7217:7242  UserTransaction[i].ToName */\n      0xe0\n      add\n        /* \"contracts/Utils.sol\":7217:7290  UserTransaction[i].ToName = UserAddressMapping[TempTran[i].ToID].UserName */\n      dup2\n      swap1\n      mstore\n      pop\n        /* \"contracts/Utils.sol\":7336:7354  UserAddressMapping */\n      0x01\n        /* \"contracts/Utils.sol\":7336:7372  UserAddressMapping[TempTran[i].ToID] */\n      0x00\n        /* \"contracts/Utils.sol\":7355:7363  TempTran */\n      dup4\n        /* \"contracts/Utils.sol\":7364:7365  i */\n      dup4\n        /* \"contracts/Utils.sol\":7355:7366  TempTran[i] */\n      dup2\n      mload\n      dup2\n      lt\n      tag_353\n      jumpi\n      tag_354\n      tag_114\n      jump\t// in\n    tag_354:\n    tag_353:\n      0x20\n      mul\n      0x20\n      add\n      add\n      mload\n        /* \"contracts/Utils.sol\":7355:7371  TempTran[i].ToID */\n      0x80\n      add\n      mload\n        /* \"contracts/Utils.sol\":7336:7372  UserAddressMapping[TempTran[i].ToID] */\n      0xffffffffffffffffffffffffffffffffffffffff\n      and\n      0xffffffffffffffffffffffffffffffffffffffff\n      and\n      dup2\n      mstore\n      0x20\n      add\n      swap1\n      dup2\n      mstore\n      0x20\n      add\n      0x00\n      keccak256\n        /* \"contracts/Utils.sol\":7336:7381  UserAddressMapping[TempTran[i].ToID].UserRole */\n      0x02\n      add\n      0x00\n      swap1\n      sload\n      swap1\n      0x0100\n      exp\n      swap1\n      div\n      0xff\n      and\n        /* \"contracts/Utils.sol\":7308:7323  UserTransaction */\n      dup5\n        /* \"contracts/Utils.sol\":7324:7325  i */\n      dup3\n        /* \"contracts/Utils.sol\":7308:7326  UserTransaction[i] */\n      dup2\n      mload\n      dup2\n      lt\n      tag_355\n      jumpi\n      tag_356\n      tag_114\n      jump\t// in\n    tag_356:\n    tag_355:\n      0x20\n      mul\n      0x20\n      add\n      add\n      mload\n        /* \"contracts/Utils.sol\":7308:7333  UserTransaction[i].ToRole */\n      0x0100\n      add\n        /* \"contracts/Utils.sol\":7308:7381  UserTransaction[i].ToRole = UserAddressMapping[TempTran[i].ToID].UserRole */\n      swap1\n      0x08\n      dup2\n      gt\n      iszero\n      tag_357\n      jumpi\n      tag_358\n      tag_111\n      jump\t// in\n    tag_358:\n    tag_357:\n      swap1\n      dup2\n      0x08\n      dup2\n      gt\n      iszero\n      tag_359\n      jumpi\n      tag_360\n      tag_111\n      jump\t// in\n    tag_360:\n    tag_359:\n      dup2\n      mstore\n      pop\n      pop\n        /* \"contracts/Utils.sol\":7427:7435  TempTran */\n      dup2\n        /* \"contracts/Utils.sol\":7436:7437  i */\n      dup2\n        /* \"contracts/Utils.sol\":7427:7438  TempTran[i] */\n      dup2\n      mload\n      dup2\n      lt\n      tag_361\n      jumpi\n      tag_362\n      tag_114\n      jump\t// in\n    tag_362:\n    tag_361:\n      0x20\n      mul\n      0x20\n      add\n      add\n      mload\n        /* \"contracts/Utils.sol\":7427:7445  TempTran[i].Amount */\n      0xa0\n      add\n      mload\n        /* \"contracts/Utils.sol\":7399:7414  UserTransaction */\n      dup5\n        /* \"contracts/Utils.sol\":7415:7416  i */\n      dup3\n        /* \"contracts/Utils.sol\":7399:7417  UserTransaction[i] */\n      dup2\n      mload\n      dup2\n      lt\n      tag_363\n      jumpi\n      tag_364\n      tag_114\n      jump\t// in\n    tag_364:\n    tag_363:\n      0x20\n      mul\n      0x20\n      add\n      add\n      mload\n        /* \"contracts/Utils.sol\":7399:7424  UserTransaction[i].Amount */\n      0x0120\n      add\n        /* \"contracts/Utils.sol\":7399:7445  UserTransaction[i].Amount = TempTran[i].Amount */\n      dup2\n      dup2\n      mstore\n      pop\n      pop\n        /* \"contracts/Utils.sol\":7500:7508  TempTran */\n      dup2\n        /* \"contracts/Utils.sol\":7509:7510  i */\n      dup2\n        /* \"contracts/Utils.sol\":7500:7511  TempTran[i] */\n      dup2\n      mload\n      dup2\n      lt\n      tag_365\n      jumpi\n      tag_366\n      tag_114\n      jump\t// in\n    tag_366:\n    tag_365:\n      0x20\n      mul\n      0x20\n      add\n      add\n      mload\n        /* \"contracts/Utils.sol\":7500:7527  TempTran[i].TransactionDate */\n      0xc0\n      add\n      mload\n        /* \"contracts/Utils.sol\":7463:7478  UserTransaction */\n      dup5\n        /* \"contracts/Utils.sol\":7479:7480  i */\n      dup3\n        /* \"contracts/Utils.sol\":7463:7481  UserTransaction[i] */\n      dup2\n      mload\n      dup2\n      lt\n      tag_367\n      jumpi\n      tag_368\n      tag_114\n      jump\t// in\n    tag_368:\n    tag_367:\n      0x20\n      mul\n      0x20\n      add\n      add\n      mload\n        /* \"contracts/Utils.sol\":7463:7497  UserTransaction[i].TransactionDate */\n      0x0140\n      add\n        /* \"contracts/Utils.sol\":7463:7527  UserTransaction[i].TransactionDate = TempTran[i].TransactionDate */\n      dup2\n      dup2\n      mstore\n      pop\n      pop\n        /* \"contracts/Utils.sol\":6680:6683  i++ */\n      dup1\n      dup1\n      tag_369\n      swap1\n      tag_156\n      jump\t// in\n    tag_369:\n      swap2\n      pop\n      pop\n        /* \"contracts/Utils.sol\":6643:7542  for (uint256 i = 0; i < MatchedRows; i++) {... */\n      jump(tag_304)\n    tag_305:\n      pop\n        /* \"contracts/Utils.sol\":6608:7552  if (MatchedRows > 0) {... */\n    tag_303:\n        /* \"contracts/Utils.sol\":5893:7558  {... */\n      pop\n      pop\n        /* \"contracts/Utils.sol\":5716:7558  function ReadTransactionsByPatchNo(... */\n      swap3\n      swap2\n      pop\n      pop\n      jump\t// out\n        /* \"contracts/Utils.sol\":4839:5710  function ReadTransactionsByDrug(string memory _drugno)... */\n    tag_48:\n        /* \"contracts/Utils.sol\":4939:4980  PatchTransaction[] memory UserTransaction */\n      0x60\n        /* \"contracts/Utils.sol\":4996:5015  uint256 MatchedRows */\n      0x00\n        /* \"contracts/Utils.sol\":5025:5059  PatchTransaction[] memory TempTran */\n      dup1\n        /* \"contracts/Utils.sol\":5098:5116  PatchTrannsactions */\n      0x05\n        /* \"contracts/Utils.sol\":5098:5123  PatchTrannsactions.length */\n      dup1\n      sload\n      swap1\n      pop\n        /* \"contracts/Utils.sol\":5062:5133  new PatchTransaction[](... */\n      0xffffffffffffffff\n      dup2\n      gt\n      iszero\n      tag_371\n      jumpi\n      tag_372\n      tag_101\n      jump\t// in\n    tag_372:\n    tag_371:\n      mload(0x40)\n      swap1\n      dup1\n      dup3\n      mstore\n      dup1\n      0x20\n      mul\n      0x20\n      add\n      dup3\n      add\n      0x40\n      mstore\n      dup1\n      iszero\n      tag_373\n      jumpi\n      dup2\n      0x20\n      add\n    tag_374:\n      tag_375\n      tag_188\n      jump\t// in\n    tag_375:\n      dup2\n      mstore\n      0x20\n      add\n      swap1\n      0x01\n      swap1\n      sub\n      swap1\n      dup2\n      tag_374\n      jumpi\n      swap1\n      pop\n    tag_373:\n      pop\n        /* \"contracts/Utils.sol\":5025:5133  PatchTransaction[] memory TempTran = new PatchTransaction[](... */\n      swap1\n      pop\n        /* \"contracts/Utils.sol\":5148:5157  uint256 i */\n      0x00\n        /* \"contracts/Utils.sol\":5143:5480  for (uint256 i = 0; i < PatchTrannsactions.length; i++) {... */\n    tag_376:\n        /* \"contracts/Utils.sol\":5167:5185  PatchTrannsactions */\n      0x05\n        /* \"contracts/Utils.sol\":5167:5192  PatchTrannsactions.length */\n      dup1\n      sload\n      swap1\n      pop\n        /* \"contracts/Utils.sol\":5163:5164  i */\n      dup2\n        /* \"contracts/Utils.sol\":5163:5192  i < PatchTrannsactions.length */\n      lt\n        /* \"contracts/Utils.sol\":5143:5480  for (uint256 i = 0; i < PatchTrannsactions.length; i++) {... */\n      iszero\n      tag_377\n      jumpi\n        /* \"contracts/Utils.sol\":5283:5346  compareStringsbyBytes(PatchTrannsactions[i].DrugRegNo, _drugno) */\n      tag_379\n        /* \"contracts/Utils.sol\":5305:5323  PatchTrannsactions */\n      0x05\n        /* \"contracts/Utils.sol\":5324:5325  i */\n      dup3\n        /* \"contracts/Utils.sol\":5305:5326  PatchTrannsactions[i] */\n      dup2\n      sload\n      dup2\n      lt\n      tag_380\n      jumpi\n      tag_381\n      tag_114\n      jump\t// in\n    tag_381:\n    tag_380:\n      swap1\n      0x00\n      mstore\n      keccak256(0x00, 0x20)\n      swap1\n      0x07\n      mul\n      add\n        /* \"contracts/Utils.sol\":5305:5336  PatchTrannsactions[i].DrugRegNo */\n      0x00\n      add\n        /* \"contracts/Utils.sol\":5283:5346  compareStringsbyBytes(PatchTrannsactions[i].DrugRegNo, _drugno) */\n      dup1\n      sload\n      tag_383\n      swap1\n      tag_123\n      jump\t// in\n    tag_383:\n      dup1\n      0x1f\n      add\n      0x20\n      dup1\n      swap2\n      div\n      mul\n      0x20\n      add\n      mload(0x40)\n      swap1\n      dup2\n      add\n      0x40\n      mstore\n      dup1\n      swap3\n      swap2\n      swap1\n      dup2\n      dup2\n      mstore\n      0x20\n      add\n      dup3\n      dup1\n      sload\n      tag_384\n      swap1\n      tag_123\n      jump\t// in\n    tag_384:\n      dup1\n      iszero\n      tag_385\n      jumpi\n      dup1\n      0x1f\n      lt\n      tag_386\n      jumpi\n      0x0100\n      dup1\n      dup4\n      sload\n      div\n      mul\n      dup4\n      mstore\n      swap2\n      0x20\n      add\n      swap2\n      jump(tag_385)\n    tag_386:\n      dup3\n      add\n      swap2\n      swap1\n      0x00\n      mstore\n      keccak256(0x00, 0x20)\n      swap1\n    tag_387:\n      dup2\n      sload\n      dup2\n      mstore\n      swap1\n      0x01\n      add\n      swap1\n      0x20\n      add\n      dup1\n      dup4\n      gt\n      tag_387\n      jumpi\n      dup3\n      swap1\n      sub\n      0x1f\n      and\n      dup3\n      add\n      swap2\n    tag_385:\n      pop\n      pop\n      pop\n      pop\n      pop\n        /* \"contracts/Utils.sol\":5338:5345  _drugno */\n      dup7\n        /* \"contracts/Utils.sol\":5283:5304  compareStringsbyBytes */\n      tag_90\n        /* \"contracts/Utils.sol\":5283:5346  compareStringsbyBytes(PatchTrannsactions[i].DrugRegNo, _drugno) */\n      jump\t// in\n    tag_379:\n        /* \"contracts/Utils.sol\":5262:5470  if (... */\n      iszero\n      tag_388\n      jumpi\n        /* \"contracts/Utils.sol\":5403:5421  PatchTrannsactions */\n      0x05\n        /* \"contracts/Utils.sol\":5422:5423  i */\n      dup2\n        /* \"contracts/Utils.sol\":5403:5424  PatchTrannsactions[i] */\n      dup2\n      sload\n      dup2\n      lt\n      tag_389\n      jumpi\n      tag_390\n      tag_114\n      jump\t// in\n    tag_390:\n    tag_389:\n      swap1\n      0x00\n      mstore\n      keccak256(0x00, 0x20)\n      swap1\n      0x07\n      mul\n      add\n        /* \"contracts/Utils.sol\":5379:5424  TempTran[MatchedRows] = PatchTrannsactions[i] */\n      mload(0x40)\n      dup1\n      0xe0\n      add\n      0x40\n      mstore\n      swap1\n      dup2\n      0x00\n      dup3\n      add\n      dup1\n      sload\n      tag_392\n      swap1\n      tag_123\n      jump\t// in\n    tag_392:\n      dup1\n      0x1f\n      add\n      0x20\n      dup1\n      swap2\n      div\n      mul\n      0x20\n      add\n      mload(0x40)\n      swap1\n      dup2\n      add\n      0x40\n      mstore\n      dup1\n      swap3\n      swap2\n      swap1\n      dup2\n      dup2\n      mstore\n      0x20\n      add\n      dup3\n      dup1\n      sload\n      tag_393\n      swap1\n      tag_123\n      jump\t// in\n    tag_393:\n      dup1\n      iszero\n      tag_394\n      jumpi\n      dup1\n      0x1f\n      lt\n      tag_395\n      jumpi\n      0x0100\n      dup1\n      dup4\n      sload\n      div\n      mul\n      dup4\n      mstore\n      swap2\n      0x20\n      add\n      swap2\n      jump(tag_394)\n    tag_395:\n      dup3\n      add\n      swap2\n      swap1\n      0x00\n      mstore\n      keccak256(0x00, 0x20)\n      swap1\n    tag_396:\n      dup2\n      sload\n      dup2\n      mstore\n      swap1\n      0x01\n      add\n      swap1\n      0x20\n      add\n      dup1\n      dup4\n      gt\n      tag_396\n      jumpi\n      dup3\n      swap1\n      sub\n      0x1f\n      and\n      dup3\n      add\n      swap2\n    tag_394:\n      pop\n      pop\n      pop\n      pop\n      pop\n      dup2\n      mstore\n      0x20\n      add\n      0x01\n      dup3\n      add\n      dup1\n      sload\n      tag_397\n      swap1\n      tag_123\n      jump\t// in\n    tag_397:\n      dup1\n      0x1f\n      add\n      0x20\n      dup1\n      swap2\n      div\n      mul\n      0x20\n      add\n      mload(0x40)\n      swap1\n      dup2\n      add\n      0x40\n      mstore\n      dup1\n      swap3\n      swap2\n      swap1\n      dup2\n      dup2\n      mstore\n      0x20\n      add\n      dup3\n      dup1\n      sload\n      tag_398\n      swap1\n      tag_123\n      jump\t// in\n    tag_398:\n      dup1\n      iszero\n      tag_399\n      jumpi\n      dup1\n      0x1f\n      lt\n      tag_400\n      jumpi\n      0x0100\n      dup1\n      dup4\n      sload\n      div\n      mul\n      dup4\n      mstore\n      swap2\n      0x20\n      add\n      swap2\n      jump(tag_399)\n    tag_400:\n      dup3\n      add\n      swap2\n      swap1\n      0x00\n      mstore\n      keccak256(0x00, 0x20)\n      swap1\n    tag_401:\n      dup2\n      sload\n      dup2\n      mstore\n      swap1\n      0x01\n      add\n      swap1\n      0x20\n      add\n      dup1\n      dup4\n      gt\n      tag_401\n      jumpi\n      dup3\n      swap1\n      sub\n      0x1f\n      and\n      dup3\n      add\n      swap2\n    tag_399:\n      pop\n      pop\n      pop\n      pop\n      pop\n      dup2\n      mstore\n      0x20\n      add\n      0x02\n      dup3\n      add\n      sload\n      dup2\n      mstore\n      0x20\n      add\n      0x03\n      dup3\n      add\n      0x00\n      swap1\n      sload\n      swap1\n      0x0100\n      exp\n      swap1\n      div\n      0xffffffffffffffffffffffffffffffffffffffff\n      and\n      0xffffffffffffffffffffffffffffffffffffffff\n      and\n      0xffffffffffffffffffffffffffffffffffffffff\n      and\n      dup2\n      mstore\n      0x20\n      add\n      0x04\n      dup3\n      add\n      0x00\n      swap1\n      sload\n      swap1\n      0x0100\n      exp\n      swap1\n      div\n      0xffffffffffffffffffffffffffffffffffffffff\n      and\n      0xffffffffffffffffffffffffffffffffffffffff\n      and\n      0xffffffffffffffffffffffffffffffffffffffff\n      and\n      dup2\n      mstore\n      0x20\n      add\n      0x05\n      dup3\n      add\n      sload\n      dup2\n      mstore\n      0x20\n      add\n      0x06\n      dup3\n      add\n      sload\n      dup2\n      mstore\n      pop\n      pop\n        /* \"contracts/Utils.sol\":5379:5387  TempTran */\n      dup3\n        /* \"contracts/Utils.sol\":5388:5399  MatchedRows */\n      dup5\n        /* \"contracts/Utils.sol\":5379:5400  TempTran[MatchedRows] */\n      dup2\n      mload\n      dup2\n      lt\n      tag_402\n      jumpi\n      tag_403\n      tag_114\n      jump\t// in\n    tag_403:\n    tag_402:\n      0x20\n      mul\n      0x20\n      add\n      add\n        /* \"contracts/Utils.sol\":5379:5424  TempTran[MatchedRows] = PatchTrannsactions[i] */\n      dup2\n      swap1\n      mstore\n      pop\n        /* \"contracts/Utils.sol\":5442:5455  MatchedRows++ */\n      dup3\n      dup1\n      tag_404\n      swap1\n      tag_156\n      jump\t// in\n    tag_404:\n      swap4\n      pop\n      pop\n        /* \"contracts/Utils.sol\":5262:5470  if (... */\n    tag_388:\n        /* \"contracts/Utils.sol\":5194:5197  i++ */\n      dup1\n      dup1\n      tag_405\n      swap1\n      tag_156\n      jump\t// in\n    tag_405:\n      swap2\n      pop\n      pop\n        /* \"contracts/Utils.sol\":5143:5480  for (uint256 i = 0; i < PatchTrannsactions.length; i++) {... */\n      jump(tag_376)\n    tag_377:\n      pop\n        /* \"contracts/Utils.sol\":5530:5541  MatchedRows */\n      dup2\n        /* \"contracts/Utils.sol\":5507:5542  new PatchTransaction[](MatchedRows) */\n      0xffffffffffffffff\n      dup2\n      gt\n      iszero\n      tag_406\n      jumpi\n      tag_407\n      tag_101\n      jump\t// in\n    tag_407:\n    tag_406:\n      mload(0x40)\n      swap1\n      dup1\n      dup3\n      mstore\n      dup1\n      0x20\n      mul\n      0x20\n      add\n      dup3\n      add\n      0x40\n      mstore\n      dup1\n      iszero\n      tag_408\n      jumpi\n      dup2\n      0x20\n      add\n    tag_409:\n      tag_410\n      tag_188\n      jump\t// in\n    tag_410:\n      dup2\n      mstore\n      0x20\n      add\n      swap1\n      0x01\n      swap1\n      sub\n      swap1\n      dup2\n      tag_409\n      jumpi\n      swap1\n      pop\n    tag_408:\n      pop\n        /* \"contracts/Utils.sol\":5489:5542  UserTransaction = new PatchTransaction[](MatchedRows) */\n      swap3\n      pop\n        /* \"contracts/Utils.sol\":5570:5571  0 */\n      0x00\n        /* \"contracts/Utils.sol\":5556:5567  MatchedRows */\n      dup3\n        /* \"contracts/Utils.sol\":5556:5571  MatchedRows > 0 */\n      gt\n        /* \"contracts/Utils.sol\":5552:5704  if (MatchedRows > 0) {... */\n      iszero\n      tag_411\n      jumpi\n        /* \"contracts/Utils.sol\":5592:5601  uint256 i */\n      0x00\n        /* \"contracts/Utils.sol\":5587:5694  for (uint256 i = 0; i < MatchedRows; i++) {... */\n    tag_412:\n        /* \"contracts/Utils.sol\":5611:5622  MatchedRows */\n      dup3\n        /* \"contracts/Utils.sol\":5607:5608  i */\n      dup2\n        /* \"contracts/Utils.sol\":5607:5622  i < MatchedRows */\n      lt\n        /* \"contracts/Utils.sol\":5587:5694  for (uint256 i = 0; i < MatchedRows; i++) {... */\n      iszero\n      tag_413\n      jumpi\n        /* \"contracts/Utils.sol\":5668:5676  TempTran */\n      dup2\n        /* \"contracts/Utils.sol\":5677:5678  i */\n      dup2\n        /* \"contracts/Utils.sol\":5668:5679  TempTran[i] */\n      dup2\n      mload\n      dup2\n      lt\n      tag_415\n      jumpi\n      tag_416\n      tag_114\n      jump\t// in\n    tag_416:\n    tag_415:\n      0x20\n      mul\n      0x20\n      add\n      add\n      mload\n        /* \"contracts/Utils.sol\":5647:5662  UserTransaction */\n      dup5\n        /* \"contracts/Utils.sol\":5663:5664  i */\n      dup3\n        /* \"contracts/Utils.sol\":5647:5665  UserTransaction[i] */\n      dup2\n      mload\n      dup2\n      lt\n      tag_417\n      jumpi\n      tag_418\n      tag_114\n      jump\t// in\n    tag_418:\n    tag_417:\n      0x20\n      mul\n      0x20\n      add\n      add\n        /* \"contracts/Utils.sol\":5647:5679  UserTransaction[i] = TempTran[i] */\n      dup2\n      swap1\n      mstore\n      pop\n        /* \"contracts/Utils.sol\":5624:5627  i++ */\n      dup1\n      dup1\n      tag_419\n      swap1\n      tag_156\n      jump\t// in\n    tag_419:\n      swap2\n      pop\n      pop\n        /* \"contracts/Utils.sol\":5587:5694  for (uint256 i = 0; i < MatchedRows; i++) {... */\n      jump(tag_412)\n    tag_413:\n      pop\n        /* \"contracts/Utils.sol\":5552:5704  if (MatchedRows > 0) {... */\n    tag_411:\n        /* \"contracts/Utils.sol\":4986:5710  {... */\n      pop\n      pop\n        /* \"contracts/Utils.sol\":4839:5710  function ReadTransactionsByDrug(string memory _drugno)... */\n      swap2\n      swap1\n      pop\n      jump\t// out\n        /* \"contracts/Utils.sol\":1870:2244  function ReadRoleByUser() public view returns (UserRoles _userrole) {... */\n    tag_51:\n        /* \"contracts/Utils.sol\":1917:1936  UserRoles _userrole */\n      0x00\n        /* \"contracts/Utils.sol\":1966:1971  Owner */\n      dup1\n      0x00\n      swap1\n      sload\n      swap1\n      0x0100\n      exp\n      swap1\n      div\n      0xffffffffffffffffffffffffffffffffffffffff\n      and\n        /* \"contracts/Utils.sol\":1952:1971  msg.sender == Owner */\n      0xffffffffffffffffffffffffffffffffffffffff\n      and\n        /* \"contracts/Utils.sol\":1952:1962  msg.sender */\n      caller\n        /* \"contracts/Utils.sol\":1952:1971  msg.sender == Owner */\n      0xffffffffffffffffffffffffffffffffffffffff\n      and\n      eq\n        /* \"contracts/Utils.sol\":1948:2238  if (msg.sender == Owner) {... */\n      iszero\n      tag_421\n      jumpi\n        /* \"contracts/Utils.sol\":1999:2018  UserRoles.Regulator */\n      0x01\n        /* \"contracts/Utils.sol\":1987:2018  _userrole = UserRoles.Regulator */\n      swap1\n      pop\n        /* \"contracts/Utils.sol\":1948:2238  if (msg.sender == Owner) {... */\n      jump(tag_422)\n    tag_421:\n        /* \"contracts/Utils.sol\":2093:2094  0 */\n      0x00\n        /* \"contracts/Utils.sol\":2039:2095  UserAddressMapping[msg.sender].UserAddress == address(0) */\n      0xffffffffffffffffffffffffffffffffffffffff\n      and\n        /* \"contracts/Utils.sol\":2039:2057  UserAddressMapping */\n      0x01\n        /* \"contracts/Utils.sol\":2039:2069  UserAddressMapping[msg.sender] */\n      0x00\n        /* \"contracts/Utils.sol\":2058:2068  msg.sender */\n      caller\n        /* \"contracts/Utils.sol\":2039:2069  UserAddressMapping[msg.sender] */\n      0xffffffffffffffffffffffffffffffffffffffff\n      and\n      0xffffffffffffffffffffffffffffffffffffffff\n      and\n      dup2\n      mstore\n      0x20\n      add\n      swap1\n      dup2\n      mstore\n      0x20\n      add\n      0x00\n      keccak256\n        /* \"contracts/Utils.sol\":2039:2081  UserAddressMapping[msg.sender].UserAddress */\n      0x05\n      add\n      0x00\n      swap1\n      sload\n      swap1\n      0x0100\n      exp\n      swap1\n      div\n      0xffffffffffffffffffffffffffffffffffffffff\n      and\n        /* \"contracts/Utils.sol\":2039:2095  UserAddressMapping[msg.sender].UserAddress == address(0) */\n      0xffffffffffffffffffffffffffffffffffffffff\n      and\n      eq\n        /* \"contracts/Utils.sol\":2035:2238  if (UserAddressMapping[msg.sender].UserAddress == address(0)) {... */\n      iszero\n      tag_423\n      jumpi\n        /* \"contracts/Utils.sol\":2123:2145  UserRoles.Unregistered */\n      0x00\n        /* \"contracts/Utils.sol\":2111:2145  _userrole = UserRoles.Unregistered */\n      swap1\n      pop\n        /* \"contracts/Utils.sol\":2035:2238  if (UserAddressMapping[msg.sender].UserAddress == address(0)) {... */\n      jump(tag_424)\n    tag_423:\n        /* \"contracts/Utils.sol\":2188:2206  UserAddressMapping */\n      0x01\n        /* \"contracts/Utils.sol\":2188:2218  UserAddressMapping[msg.sender] */\n      0x00\n        /* \"contracts/Utils.sol\":2207:2217  msg.sender */\n      caller\n        /* \"contracts/Utils.sol\":2188:2218  UserAddressMapping[msg.sender] */\n      0xffffffffffffffffffffffffffffffffffffffff\n      and\n      0xffffffffffffffffffffffffffffffffffffffff\n      and\n      dup2\n      mstore\n      0x20\n      add\n      swap1\n      dup2\n      mstore\n      0x20\n      add\n      0x00\n      keccak256\n        /* \"contracts/Utils.sol\":2188:2227  UserAddressMapping[msg.sender].UserRole */\n      0x02\n      add\n      0x00\n      swap1\n      sload\n      swap1\n      0x0100\n      exp\n      swap1\n      div\n      0xff\n      and\n        /* \"contracts/Utils.sol\":2176:2227  _userrole = UserAddressMapping[msg.sender].UserRole */\n      swap1\n      pop\n        /* \"contracts/Utils.sol\":2035:2238  if (UserAddressMapping[msg.sender].UserAddress == address(0)) {... */\n    tag_424:\n        /* \"contracts/Utils.sol\":1948:2238  if (msg.sender == Owner) {... */\n    tag_422:\n        /* \"contracts/Utils.sol\":1870:2244  function ReadRoleByUser() public view returns (UserRoles _userrole) {... */\n      swap1\n      jump\t// out\n        /* \"contracts/Utils.sol\":8829:9583  function ReturnRemainingAmount(... */\n    tag_56:\n        /* \"contracts/Utils.sol\":8980:9001  uint256 _remainamount */\n      0x00\n        /* \"contracts/Utils.sol\":9013:9066  PatchTransaction[]... */\n      dup1\n        /* \"contracts/Utils.sol\":9069:9197  ReadParentAndSiblingsTransactions(... */\n      tag_426\n        /* \"contracts/Utils.sol\":9120:9128  _patchno */\n      dup6\n        /* \"contracts/Utils.sol\":9146:9153  _drugno */\n      dup6\n        /* \"contracts/Utils.sol\":9171:9183  _fromaddress */\n      dup6\n        /* \"contracts/Utils.sol\":9069:9102  ReadParentAndSiblingsTransactions */\n      tag_36\n        /* \"contracts/Utils.sol\":9069:9197  ReadParentAndSiblingsTransactions(... */\n      jump\t// in\n    tag_426:\n        /* \"contracts/Utils.sol\":9013:9197  PatchTransaction[]... */\n      swap1\n      pop\n        /* \"contracts/Utils.sol\":9207:9225  uint256 mainAmount */\n      0x00\n        /* \"contracts/Utils.sol\":9235:9251  uint256 toAmount */\n      dup1\n        /* \"contracts/Utils.sol\":9266:9275  uint256 i */\n      0x00\n        /* \"contracts/Utils.sol\":9261:9530  for (uint256 i = 0; i < UserTransaction.length; i++) {... */\n    tag_427:\n        /* \"contracts/Utils.sol\":9285:9300  UserTransaction */\n      dup4\n        /* \"contracts/Utils.sol\":9285:9307  UserTransaction.length */\n      mload\n        /* \"contracts/Utils.sol\":9281:9282  i */\n      dup2\n        /* \"contracts/Utils.sol\":9281:9307  i < UserTransaction.length */\n      lt\n        /* \"contracts/Utils.sol\":9261:9530  for (uint256 i = 0; i < UserTransaction.length; i++) {... */\n      iszero\n      tag_428\n      jumpi\n        /* \"contracts/Utils.sol\":9359:9371  _fromaddress */\n      dup6\n        /* \"contracts/Utils.sol\":9332:9371  UserTransaction[i].ToID == _fromaddress */\n      0xffffffffffffffffffffffffffffffffffffffff\n      and\n        /* \"contracts/Utils.sol\":9332:9347  UserTransaction */\n      dup5\n        /* \"contracts/Utils.sol\":9348:9349  i */\n      dup3\n        /* \"contracts/Utils.sol\":9332:9350  UserTransaction[i] */\n      dup2\n      mload\n      dup2\n      lt\n      tag_430\n      jumpi\n      tag_431\n      tag_114\n      jump\t// in\n    tag_431:\n    tag_430:\n      0x20\n      mul\n      0x20\n      add\n      add\n      mload\n        /* \"contracts/Utils.sol\":9332:9355  UserTransaction[i].ToID */\n      0x80\n      add\n      mload\n        /* \"contracts/Utils.sol\":9332:9371  UserTransaction[i].ToID == _fromaddress */\n      0xffffffffffffffffffffffffffffffffffffffff\n      and\n      eq\n        /* \"contracts/Utils.sol\":9328:9520  if (UserTransaction[i].ToID == _fromaddress) {... */\n      iszero\n      tag_432\n      jumpi\n        /* \"contracts/Utils.sol\":9404:9419  UserTransaction */\n      dup4\n        /* \"contracts/Utils.sol\":9420:9421  i */\n      dup2\n        /* \"contracts/Utils.sol\":9404:9422  UserTransaction[i] */\n      dup2\n      mload\n      dup2\n      lt\n      tag_433\n      jumpi\n      tag_434\n      tag_114\n      jump\t// in\n    tag_434:\n    tag_433:\n      0x20\n      mul\n      0x20\n      add\n      add\n      mload\n        /* \"contracts/Utils.sol\":9404:9429  UserTransaction[i].Amount */\n      0xa0\n      add\n      mload\n        /* \"contracts/Utils.sol\":9391:9429  mainAmount = UserTransaction[i].Amount */\n      swap3\n      pop\n        /* \"contracts/Utils.sol\":9328:9520  if (UserTransaction[i].ToID == _fromaddress) {... */\n      jump(tag_435)\n    tag_432:\n        /* \"contracts/Utils.sol\":9480:9495  UserTransaction */\n      dup4\n        /* \"contracts/Utils.sol\":9496:9497  i */\n      dup2\n        /* \"contracts/Utils.sol\":9480:9498  UserTransaction[i] */\n      dup2\n      mload\n      dup2\n      lt\n      tag_436\n      jumpi\n      tag_437\n      tag_114\n      jump\t// in\n    tag_437:\n    tag_436:\n      0x20\n      mul\n      0x20\n      add\n      add\n      mload\n        /* \"contracts/Utils.sol\":9480:9505  UserTransaction[i].Amount */\n      0xa0\n      add\n      mload\n        /* \"contracts/Utils.sol\":9468:9505  toAmount += UserTransaction[i].Amount */\n      dup3\n      tag_438\n      swap2\n      swap1\n      tag_154\n      jump\t// in\n    tag_438:\n      swap2\n      pop\n        /* \"contracts/Utils.sol\":9328:9520  if (UserTransaction[i].ToID == _fromaddress) {... */\n    tag_435:\n        /* \"contracts/Utils.sol\":9309:9312  i++ */\n      dup1\n      dup1\n      tag_439\n      swap1\n      tag_156\n      jump\t// in\n    tag_439:\n      swap2\n      pop\n      pop\n        /* \"contracts/Utils.sol\":9261:9530  for (uint256 i = 0; i < UserTransaction.length; i++) {... */\n      jump(tag_427)\n    tag_428:\n      pop\n        /* \"contracts/Utils.sol\":9568:9576  toAmount */\n      dup1\n        /* \"contracts/Utils.sol\":9555:9565  mainAmount */\n      dup3\n        /* \"contracts/Utils.sol\":9555:9576  mainAmount - toAmount */\n      tag_440\n      swap2\n      swap1\n      tag_441\n      jump\t// in\n    tag_440:\n        /* \"contracts/Utils.sol\":9539:9576  _remainamount = mainAmount - toAmount */\n      swap4\n      pop\n        /* \"contracts/Utils.sol\":9003:9583  {... */\n      pop\n      pop\n      pop\n        /* \"contracts/Utils.sol\":8829:9583  function ReturnRemainingAmount(... */\n      swap4\n      swap3\n      pop\n      pop\n      pop\n      jump\t// out\n        /* \"contracts/Utils.sol\":1201:1864  function GetUsersByStatus(Statuses _status)... */\n    tag_62:\n        /* \"contracts/Utils.sol\":1290:1317  User[] memory filteredUsers */\n      0x60\n        /* \"contracts/Utils.sol\":1333:1351  uint256 usersCount */\n      0x00\n        /* \"contracts/Utils.sol\":1354:1368  UsersAddresses */\n      0x02\n        /* \"contracts/Utils.sol\":1354:1375  UsersAddresses.length */\n      dup1\n      sload\n      swap1\n      pop\n        /* \"contracts/Utils.sol\":1333:1375  uint256 usersCount = UsersAddresses.length */\n      swap1\n      pop\n        /* \"contracts/Utils.sol\":1385:1408  User[] memory usersTemp */\n      0x00\n        /* \"contracts/Utils.sol\":1422:1432  usersCount */\n      dup2\n        /* \"contracts/Utils.sol\":1411:1433  new User[](usersCount) */\n      0xffffffffffffffff\n      dup2\n      gt\n      iszero\n      tag_443\n      jumpi\n      tag_444\n      tag_101\n      jump\t// in\n    tag_444:\n    tag_443:\n      mload(0x40)\n      swap1\n      dup1\n      dup3\n      mstore\n      dup1\n      0x20\n      mul\n      0x20\n      add\n      dup3\n      add\n      0x40\n      mstore\n      dup1\n      iszero\n      tag_445\n      jumpi\n      dup2\n      0x20\n      add\n    tag_446:\n      tag_447\n      tag_105\n      jump\t// in\n    tag_447:\n      dup2\n      mstore\n      0x20\n      add\n      swap1\n      0x01\n      swap1\n      sub\n      swap1\n      dup2\n      tag_446\n      jumpi\n      swap1\n      pop\n    tag_445:\n      pop\n        /* \"contracts/Utils.sol\":1385:1433  User[] memory usersTemp = new User[](usersCount) */\n      swap1\n      pop\n        /* \"contracts/Utils.sol\":1443:1456  uint256 count */\n      0x00\n        /* \"contracts/Utils.sol\":1471:1480  uint256 i */\n      dup1\n        /* \"contracts/Utils.sol\":1483:1484  0 */\n      0x00\n        /* \"contracts/Utils.sol\":1471:1484  uint256 i = 0 */\n      swap1\n      pop\n        /* \"contracts/Utils.sol\":1466:1713  for (uint256 i = 0; i < usersCount; i++) {... */\n    tag_448:\n        /* \"contracts/Utils.sol\":1490:1500  usersCount */\n      dup4\n        /* \"contracts/Utils.sol\":1486:1487  i */\n      dup2\n        /* \"contracts/Utils.sol\":1486:1500  i < usersCount */\n      lt\n        /* \"contracts/Utils.sol\":1466:1713  for (uint256 i = 0; i < usersCount; i++) {... */\n      iszero\n      tag_449\n      jumpi\n        /* \"contracts/Utils.sol\":1577:1584  _status */\n      dup6\n        /* \"contracts/Utils.sol\":1525:1584  UserAddressMapping[UsersAddresses[i]].UserStatus == _status */\n      0x02\n      dup2\n      gt\n      iszero\n      tag_451\n      jumpi\n      tag_452\n      tag_111\n      jump\t// in\n    tag_452:\n    tag_451:\n        /* \"contracts/Utils.sol\":1525:1543  UserAddressMapping */\n      0x01\n        /* \"contracts/Utils.sol\":1525:1562  UserAddressMapping[UsersAddresses[i]] */\n      0x00\n        /* \"contracts/Utils.sol\":1544:1558  UsersAddresses */\n      0x02\n        /* \"contracts/Utils.sol\":1559:1560  i */\n      dup5\n        /* \"contracts/Utils.sol\":1544:1561  UsersAddresses[i] */\n      dup2\n      sload\n      dup2\n      lt\n      tag_453\n      jumpi\n      tag_454\n      tag_114\n      jump\t// in\n    tag_454:\n    tag_453:\n      swap1\n      0x00\n      mstore\n      keccak256(0x00, 0x20)\n      add\n      0x00\n      swap1\n      sload\n      swap1\n      0x0100\n      exp\n      swap1\n      div\n      0xffffffffffffffffffffffffffffffffffffffff\n      and\n        /* \"contracts/Utils.sol\":1525:1562  UserAddressMapping[UsersAddresses[i]] */\n      0xffffffffffffffffffffffffffffffffffffffff\n      and\n      0xffffffffffffffffffffffffffffffffffffffff\n      and\n      dup2\n      mstore\n      0x20\n      add\n      swap1\n      dup2\n      mstore\n      0x20\n      add\n      0x00\n      keccak256\n        /* \"contracts/Utils.sol\":1525:1573  UserAddressMapping[UsersAddresses[i]].UserStatus */\n      0x02\n      add\n      0x01\n      swap1\n      sload\n      swap1\n      0x0100\n      exp\n      swap1\n      div\n      0xff\n      and\n        /* \"contracts/Utils.sol\":1525:1584  UserAddressMapping[UsersAddresses[i]].UserStatus == _status */\n      0x02\n      dup2\n      gt\n      iszero\n      tag_456\n      jumpi\n      tag_457\n      tag_111\n      jump\t// in\n    tag_457:\n    tag_456:\n      eq\n        /* \"contracts/Utils.sol\":1521:1703  if (UserAddressMapping[UsersAddresses[i]].UserStatus == _status) {... */\n      iszero\n      tag_458\n      jumpi\n        /* \"contracts/Utils.sol\":1623:1641  UserAddressMapping */\n      0x01\n        /* \"contracts/Utils.sol\":1623:1660  UserAddressMapping[UsersAddresses[i]] */\n      0x00\n        /* \"contracts/Utils.sol\":1642:1656  UsersAddresses */\n      0x02\n        /* \"contracts/Utils.sol\":1657:1658  i */\n      dup4\n        /* \"contracts/Utils.sol\":1642:1659  UsersAddresses[i] */\n      dup2\n      sload\n      dup2\n      lt\n      tag_459\n      jumpi\n      tag_460\n      tag_114\n      jump\t// in\n    tag_460:\n    tag_459:\n      swap1\n      0x00\n      mstore\n      keccak256(0x00, 0x20)\n      add\n      0x00\n      swap1\n      sload\n      swap1\n      0x0100\n      exp\n      swap1\n      div\n      0xffffffffffffffffffffffffffffffffffffffff\n      and\n        /* \"contracts/Utils.sol\":1623:1660  UserAddressMapping[UsersAddresses[i]] */\n      0xffffffffffffffffffffffffffffffffffffffff\n      and\n      0xffffffffffffffffffffffffffffffffffffffff\n      and\n      dup2\n      mstore\n      0x20\n      add\n      swap1\n      dup2\n      mstore\n      0x20\n      add\n      0x00\n      keccak256\n        /* \"contracts/Utils.sol\":1604:1660  usersTemp[count] = UserAddressMapping[UsersAddresses[i]] */\n      mload(0x40)\n      dup1\n      0xe0\n      add\n      0x40\n      mstore\n      swap1\n      dup2\n      0x00\n      dup3\n      add\n      dup1\n      sload\n      tag_462\n      swap1\n      tag_123\n      jump\t// in\n    tag_462:\n      dup1\n      0x1f\n      add\n      0x20\n      dup1\n      swap2\n      div\n      mul\n      0x20\n      add\n      mload(0x40)\n      swap1\n      dup2\n      add\n      0x40\n      mstore\n      dup1\n      swap3\n      swap2\n      swap1\n      dup2\n      dup2\n      mstore\n      0x20\n      add\n      dup3\n      dup1\n      sload\n      tag_463\n      swap1\n      tag_123\n      jump\t// in\n    tag_463:\n      dup1\n      iszero\n      tag_464\n      jumpi\n      dup1\n      0x1f\n      lt\n      tag_465\n      jumpi\n      0x0100\n      dup1\n      dup4\n      sload\n      div\n      mul\n      dup4\n      mstore\n      swap2\n      0x20\n      add\n      swap2\n      jump(tag_464)\n    tag_465:\n      dup3\n      add\n      swap2\n      swap1\n      0x00\n      mstore\n      keccak256(0x00, 0x20)\n      swap1\n    tag_466:\n      dup2\n      sload\n      dup2\n      mstore\n      swap1\n      0x01\n      add\n      swap1\n      0x20\n      add\n      dup1\n      dup4\n      gt\n      tag_466\n      jumpi\n      dup3\n      swap1\n      sub\n      0x1f\n      and\n      dup3\n      add\n      swap2\n    tag_464:\n      pop\n      pop\n      pop\n      pop\n      pop\n      dup2\n      mstore\n      0x20\n      add\n      0x01\n      dup3\n      add\n      dup1\n      sload\n      tag_467\n      swap1\n      tag_123\n      jump\t// in\n    tag_467:\n      dup1\n      0x1f\n      add\n      0x20\n      dup1\n      swap2\n      div\n      mul\n      0x20\n      add\n      mload(0x40)\n      swap1\n      dup2\n      add\n      0x40\n      mstore\n      dup1\n      swap3\n      swap2\n      swap1\n      dup2\n      dup2\n      mstore\n      0x20\n      add\n      dup3\n      dup1\n      sload\n      tag_468\n      swap1\n      tag_123\n      jump\t// in\n    tag_468:\n      dup1\n      iszero\n      tag_469\n      jumpi\n      dup1\n      0x1f\n      lt\n      tag_470\n      jumpi\n      0x0100\n      dup1\n      dup4\n      sload\n      div\n      mul\n      dup4\n      mstore\n      swap2\n      0x20\n      add\n      swap2\n      jump(tag_469)\n    tag_470:\n      dup3\n      add\n      swap2\n      swap1\n      0x00\n      mstore\n      keccak256(0x00, 0x20)\n      swap1\n    tag_471:\n      dup2\n      sload\n      dup2\n      mstore\n      swap1\n      0x01\n      add\n      swap1\n      0x20\n      add\n      dup1\n      dup4\n      gt\n      tag_471\n      jumpi\n      dup3\n      swap1\n      sub\n      0x1f\n      and\n      dup3\n      add\n      swap2\n    tag_469:\n      pop\n      pop\n      pop\n      pop\n      pop\n      dup2\n      mstore\n      0x20\n      add\n      0x02\n      dup3\n      add\n      0x00\n      swap1\n      sload\n      swap1\n      0x0100\n      exp\n      swap1\n      div\n      0xff\n      and\n      0x08\n      dup2\n      gt\n      iszero\n      tag_472\n      jumpi\n      tag_473\n      tag_111\n      jump\t// in\n    tag_473:\n    tag_472:\n      0x08\n      dup2\n      gt\n      iszero\n      tag_474\n      jumpi\n      tag_475\n      tag_111\n      jump\t// in\n    tag_475:\n    tag_474:\n      dup2\n      mstore\n      0x20\n      add\n      0x02\n      dup3\n      add\n      0x01\n      swap1\n      sload\n      swap1\n      0x0100\n      exp\n      swap1\n      div\n      0xff\n      and\n      0x02\n      dup2\n      gt\n      iszero\n      tag_476\n      jumpi\n      tag_477\n      tag_111\n      jump\t// in\n    tag_477:\n    tag_476:\n      0x02\n      dup2\n      gt\n      iszero\n      tag_478\n      jumpi\n      tag_479\n      tag_111\n      jump\t// in\n    tag_479:\n    tag_478:\n      dup2\n      mstore\n      0x20\n      add\n      0x03\n      dup3\n      add\n      dup1\n      sload\n      tag_480\n      swap1\n      tag_123\n      jump\t// in\n    tag_480:\n      dup1\n      0x1f\n      add\n      0x20\n      dup1\n      swap2\n      div\n      mul\n      0x20\n      add\n      mload(0x40)\n      swap1\n      dup2\n      add\n      0x40\n      mstore\n      dup1\n      swap3\n      swap2\n      swap1\n      dup2\n      dup2\n      mstore\n      0x20\n      add\n      dup3\n      dup1\n      sload\n      tag_481\n      swap1\n      tag_123\n      jump\t// in\n    tag_481:\n      dup1\n      iszero\n      tag_482\n      jumpi\n      dup1\n      0x1f\n      lt\n      tag_483\n      jumpi\n      0x0100\n      dup1\n      dup4\n      sload\n      div\n      mul\n      dup4\n      mstore\n      swap2\n      0x20\n      add\n      swap2\n      jump(tag_482)\n    tag_483:\n      dup3\n      add\n      swap2\n      swap1\n      0x00\n      mstore\n      keccak256(0x00, 0x20)\n      swap1\n    tag_484:\n      dup2\n      sload\n      dup2\n      mstore\n      swap1\n      0x01\n      add\n      swap1\n      0x20\n      add\n      dup1\n      dup4\n      gt\n      tag_484\n      jumpi\n      dup3\n      swap1\n      sub\n      0x1f\n      and\n      dup3\n      add\n      swap2\n    tag_482:\n      pop\n      pop\n      pop\n      pop\n      pop\n      dup2\n      mstore\n      0x20\n      add\n      0x04\n      dup3\n      add\n      dup1\n      sload\n      tag_485\n      swap1\n      tag_123\n      jump\t// in\n    tag_485:\n      dup1\n      0x1f\n      add\n      0x20\n      dup1\n      swap2\n      div\n      mul\n      0x20\n      add\n      mload(0x40)\n      swap1\n      dup2\n      add\n      0x40\n      mstore\n      dup1\n      swap3\n      swap2\n      swap1\n      dup2\n      dup2\n      mstore\n      0x20\n      add\n      dup3\n      dup1\n      sload\n      tag_486\n      swap1\n      tag_123\n      jump\t// in\n    tag_486:\n      dup1\n      iszero\n      tag_487\n      jumpi\n      dup1\n      0x1f\n      lt\n      tag_488\n      jumpi\n      0x0100\n      dup1\n      dup4\n      sload\n      div\n      mul\n      dup4\n      mstore\n      swap2\n      0x20\n      add\n      swap2\n      jump(tag_487)\n    tag_488:\n      dup3\n      add\n      swap2\n      swap1\n      0x00\n      mstore\n      keccak256(0x00, 0x20)\n      swap1\n    tag_489:\n      dup2\n      sload\n      dup2\n      mstore\n      swap1\n      0x01\n      add\n      swap1\n      0x20\n      add\n      dup1\n      dup4\n      gt\n      tag_489\n      jumpi\n      dup3\n      swap1\n      sub\n      0x1f\n      and\n      dup3\n      add\n      swap2\n    tag_487:\n      pop\n      pop\n      pop\n      pop\n      pop\n      dup2\n      mstore\n      0x20\n      add\n      0x05\n      dup3\n      add\n      0x00\n      swap1\n      sload\n      swap1\n      0x0100\n      exp\n      swap1\n      div\n      0xffffffffffffffffffffffffffffffffffffffff\n      and\n      0xffffffffffffffffffffffffffffffffffffffff\n      and\n      0xffffffffffffffffffffffffffffffffffffffff\n      and\n      dup2\n      mstore\n      pop\n      pop\n        /* \"contracts/Utils.sol\":1604:1613  usersTemp */\n      dup4\n        /* \"contracts/Utils.sol\":1614:1619  count */\n      dup4\n        /* \"contracts/Utils.sol\":1604:1620  usersTemp[count] */\n      dup2\n      mload\n      dup2\n      lt\n      tag_490\n      jumpi\n      tag_491\n      tag_114\n      jump\t// in\n    tag_491:\n    tag_490:\n      0x20\n      mul\n      0x20\n      add\n      add\n        /* \"contracts/Utils.sol\":1604:1660  usersTemp[count] = UserAddressMapping[UsersAddresses[i]] */\n      dup2\n      swap1\n      mstore\n      pop\n        /* \"contracts/Utils.sol\":1687:1688  1 */\n      0x01\n        /* \"contracts/Utils.sol\":1678:1688  count += 1 */\n      dup3\n      tag_492\n      swap2\n      swap1\n      tag_154\n      jump\t// in\n    tag_492:\n      swap2\n      pop\n        /* \"contracts/Utils.sol\":1521:1703  if (UserAddressMapping[UsersAddresses[i]].UserStatus == _status) {... */\n    tag_458:\n        /* \"contracts/Utils.sol\":1502:1505  i++ */\n      dup1\n      dup1\n      tag_493\n      swap1\n      tag_156\n      jump\t// in\n    tag_493:\n      swap2\n      pop\n      pop\n        /* \"contracts/Utils.sol\":1466:1713  for (uint256 i = 0; i < usersCount; i++) {... */\n      jump(tag_448)\n    tag_449:\n      pop\n        /* \"contracts/Utils.sol\":1750:1755  count */\n      dup1\n        /* \"contracts/Utils.sol\":1739:1756  new User[](count) */\n      0xffffffffffffffff\n      dup2\n      gt\n      iszero\n      tag_494\n      jumpi\n      tag_495\n      tag_101\n      jump\t// in\n    tag_495:\n    tag_494:\n      mload(0x40)\n      swap1\n      dup1\n      dup3\n      mstore\n      dup1\n      0x20\n      mul\n      0x20\n      add\n      dup3\n      add\n      0x40\n      mstore\n      dup1\n      iszero\n      tag_496\n      jumpi\n      dup2\n      0x20\n      add\n    tag_497:\n      tag_498\n      tag_105\n      jump\t// in\n    tag_498:\n      dup2\n      mstore\n      0x20\n      add\n      swap1\n      0x01\n      swap1\n      sub\n      swap1\n      dup2\n      tag_497\n      jumpi\n      swap1\n      pop\n    tag_496:\n      pop\n        /* \"contracts/Utils.sol\":1723:1756  filteredUsers = new User[](count) */\n      swap4\n      pop\n        /* \"contracts/Utils.sol\":1771:1780  uint256 i */\n      0x00\n        /* \"contracts/Utils.sol\":1766:1858  for (uint256 i = 0; i < count; i++) {... */\n    tag_499:\n        /* \"contracts/Utils.sol\":1790:1795  count */\n      dup2\n        /* \"contracts/Utils.sol\":1786:1787  i */\n      dup2\n        /* \"contracts/Utils.sol\":1786:1795  i < count */\n      lt\n        /* \"contracts/Utils.sol\":1766:1858  for (uint256 i = 0; i < count; i++) {... */\n      iszero\n      tag_500\n      jumpi\n        /* \"contracts/Utils.sol\":1835:1844  usersTemp */\n      dup3\n        /* \"contracts/Utils.sol\":1845:1846  i */\n      dup2\n        /* \"contracts/Utils.sol\":1835:1847  usersTemp[i] */\n      dup2\n      mload\n      dup2\n      lt\n      tag_502\n      jumpi\n      tag_503\n      tag_114\n      jump\t// in\n    tag_503:\n    tag_502:\n      0x20\n      mul\n      0x20\n      add\n      add\n      mload\n        /* \"contracts/Utils.sol\":1816:1829  filteredUsers */\n      dup6\n        /* \"contracts/Utils.sol\":1830:1831  i */\n      dup3\n        /* \"contracts/Utils.sol\":1816:1832  filteredUsers[i] */\n      dup2\n      mload\n      dup2\n      lt\n      tag_504\n      jumpi\n      tag_505\n      tag_114\n      jump\t// in\n    tag_505:\n    tag_504:\n      0x20\n      mul\n      0x20\n      add\n      add\n        /* \"contracts/Utils.sol\":1816:1847  filteredUsers[i] = usersTemp[i] */\n      dup2\n      swap1\n      mstore\n      pop\n        /* \"contracts/Utils.sol\":1797:1800  i++ */\n      dup1\n      dup1\n      tag_506\n      swap1\n      tag_156\n      jump\t// in\n    tag_506:\n      swap2\n      pop\n      pop\n        /* \"contracts/Utils.sol\":1766:1858  for (uint256 i = 0; i < count; i++) {... */\n      jump(tag_499)\n    tag_500:\n      pop\n        /* \"contracts/Utils.sol\":1323:1864  {... */\n      pop\n      pop\n      pop\n        /* \"contracts/Utils.sol\":1201:1864  function GetUsersByStatus(Statuses _status)... */\n      swap2\n      swap1\n      pop\n      jump\t// out\n        /* \"contracts/Utils.sol\":4014:4833  function ReadTransactionsByUser(address _useraddress)... */\n    tag_67:\n        /* \"contracts/Utils.sol\":4113:4154  PatchTransaction[] memory UserTransaction */\n      0x60\n        /* \"contracts/Utils.sol\":4170:4189  uint256 MatchedRows */\n      0x00\n        /* \"contracts/Utils.sol\":4199:4233  PatchTransaction[] memory TempTran */\n      dup1\n        /* \"contracts/Utils.sol\":4272:4290  PatchTrannsactions */\n      0x05\n        /* \"contracts/Utils.sol\":4272:4297  PatchTrannsactions.length */\n      dup1\n      sload\n      swap1\n      pop\n        /* \"contracts/Utils.sol\":4236:4307  new PatchTransaction[](... */\n      0xffffffffffffffff\n      dup2\n      gt\n      iszero\n      tag_508\n      jumpi\n      tag_509\n      tag_101\n      jump\t// in\n    tag_509:\n    tag_508:\n      mload(0x40)\n      swap1\n      dup1\n      dup3\n      mstore\n      dup1\n      0x20\n      mul\n      0x20\n      add\n      dup3\n      add\n      0x40\n      mstore\n      dup1\n      iszero\n      tag_510\n      jumpi\n      dup2\n      0x20\n      add\n    tag_511:\n      tag_512\n      tag_188\n      jump\t// in\n    tag_512:\n      dup2\n      mstore\n      0x20\n      add\n      swap1\n      0x01\n      swap1\n      sub\n      swap1\n      dup2\n      tag_511\n      jumpi\n      swap1\n      pop\n    tag_510:\n      pop\n        /* \"contracts/Utils.sol\":4199:4307  PatchTransaction[] memory TempTran = new PatchTransaction[](... */\n      swap1\n      pop\n        /* \"contracts/Utils.sol\":4322:4331  uint256 i */\n      0x00\n        /* \"contracts/Utils.sol\":4317:4603  for (uint256 i = 0; i < PatchTrannsactions.length; i++) {... */\n    tag_513:\n        /* \"contracts/Utils.sol\":4341:4359  PatchTrannsactions */\n      0x05\n        /* \"contracts/Utils.sol\":4341:4366  PatchTrannsactions.length */\n      dup1\n      sload\n      swap1\n      pop\n        /* \"contracts/Utils.sol\":4337:4338  i */\n      dup2\n        /* \"contracts/Utils.sol\":4337:4366  i < PatchTrannsactions.length */\n      lt\n        /* \"contracts/Utils.sol\":4317:4603  for (uint256 i = 0; i < PatchTrannsactions.length; i++) {... */\n      iszero\n      tag_514\n      jumpi\n        /* \"contracts/Utils.sol\":4470:4482  _useraddress */\n      dup5\n        /* \"contracts/Utils.sol\":4440:4482  PatchTrannsactions[i].ToID == _useraddress */\n      0xffffffffffffffffffffffffffffffffffffffff\n      and\n        /* \"contracts/Utils.sol\":4440:4458  PatchTrannsactions */\n      0x05\n        /* \"contracts/Utils.sol\":4459:4460  i */\n      dup3\n        /* \"contracts/Utils.sol\":4440:4461  PatchTrannsactions[i] */\n      dup2\n      sload\n      dup2\n      lt\n      tag_516\n      jumpi\n      tag_517\n      tag_114\n      jump\t// in\n    tag_517:\n    tag_516:\n      swap1\n      0x00\n      mstore\n      keccak256(0x00, 0x20)\n      swap1\n      0x07\n      mul\n      add\n        /* \"contracts/Utils.sol\":4440:4466  PatchTrannsactions[i].ToID */\n      0x04\n      add\n      0x00\n      swap1\n      sload\n      swap1\n      0x0100\n      exp\n      swap1\n      div\n      0xffffffffffffffffffffffffffffffffffffffff\n      and\n        /* \"contracts/Utils.sol\":4440:4482  PatchTrannsactions[i].ToID == _useraddress */\n      0xffffffffffffffffffffffffffffffffffffffff\n      and\n      eq\n        /* \"contracts/Utils.sol\":4436:4593  if (PatchTrannsactions[i].ToID == _useraddress) {... */\n      iszero\n      tag_519\n      jumpi\n        /* \"contracts/Utils.sol\":4526:4544  PatchTrannsactions */\n      0x05\n        /* \"contracts/Utils.sol\":4545:4546  i */\n      dup2\n        /* \"contracts/Utils.sol\":4526:4547  PatchTrannsactions[i] */\n      dup2\n      sload\n      dup2\n      lt\n      tag_520\n      jumpi\n      tag_521\n      tag_114\n      jump\t// in\n    tag_521:\n    tag_520:\n      swap1\n      0x00\n      mstore\n      keccak256(0x00, 0x20)\n      swap1\n      0x07\n      mul\n      add\n        /* \"contracts/Utils.sol\":4502:4547  TempTran[MatchedRows] = PatchTrannsactions[i] */\n      mload(0x40)\n      dup1\n      0xe0\n      add\n      0x40\n      mstore\n      swap1\n      dup2\n      0x00\n      dup3\n      add\n      dup1\n      sload\n      tag_523\n      swap1\n      tag_123\n      jump\t// in\n    tag_523:\n      dup1\n      0x1f\n      add\n      0x20\n      dup1\n      swap2\n      div\n      mul\n      0x20\n      add\n      mload(0x40)\n      swap1\n      dup2\n      add\n      0x40\n      mstore\n      dup1\n      swap3\n      swap2\n      swap1\n      dup2\n      dup2\n      mstore\n      0x20\n      add\n      dup3\n      dup1\n      sload\n      tag_524\n      swap1\n      tag_123\n      jump\t// in\n    tag_524:\n      dup1\n      iszero\n      tag_525\n      jumpi\n      dup1\n      0x1f\n      lt\n      tag_526\n      jumpi\n      0x0100\n      dup1\n      dup4\n      sload\n      div\n      mul\n      dup4\n      mstore\n      swap2\n      0x20\n      add\n      swap2\n      jump(tag_525)\n    tag_526:\n      dup3\n      add\n      swap2\n      swap1\n      0x00\n      mstore\n      keccak256(0x00, 0x20)\n      swap1\n    tag_527:\n      dup2\n      sload\n      dup2\n      mstore\n      swap1\n      0x01\n      add\n      swap1\n      0x20\n      add\n      dup1\n      dup4\n      gt\n      tag_527\n      jumpi\n      dup3\n      swap1\n      sub\n      0x1f\n      and\n      dup3\n      add\n      swap2\n    tag_525:\n      pop\n      pop\n      pop\n      pop\n      pop\n      dup2\n      mstore\n      0x20\n      add\n      0x01\n      dup3\n      add\n      dup1\n      sload\n      tag_528\n      swap1\n      tag_123\n      jump\t// in\n    tag_528:\n      dup1\n      0x1f\n      add\n      0x20\n      dup1\n      swap2\n      div\n      mul\n      0x20\n      add\n      mload(0x40)\n      swap1\n      dup2\n      add\n      0x40\n      mstore\n      dup1\n      swap3\n      swap2\n      swap1\n      dup2\n      dup2\n      mstore\n      0x20\n      add\n      dup3\n      dup1\n      sload\n      tag_529\n      swap1\n      tag_123\n      jump\t// in\n    tag_529:\n      dup1\n      iszero\n      tag_530\n      jumpi\n      dup1\n      0x1f\n      lt\n      tag_531\n      jumpi\n      0x0100\n      dup1\n      dup4\n      sload\n      div\n      mul\n      dup4\n      mstore\n      swap2\n      0x20\n      add\n      swap2\n      jump(tag_530)\n    tag_531:\n      dup3\n      add\n      swap2\n      swap1\n      0x00\n      mstore\n      keccak256(0x00, 0x20)\n      swap1\n    tag_532:\n      dup2\n      sload\n      dup2\n      mstore\n      swap1\n      0x01\n      add\n      swap1\n      0x20\n      add\n      dup1\n      dup4\n      gt\n      tag_532\n      jumpi\n      dup3\n      swap1\n      sub\n      0x1f\n      and\n      dup3\n      add\n      swap2\n    tag_530:\n      pop\n      pop\n      pop\n      pop\n      pop\n      dup2\n      mstore\n      0x20\n      add\n      0x02\n      dup3\n      add\n      sload\n      dup2\n      mstore\n      0x20\n      add\n      0x03\n      dup3\n      add\n      0x00\n      swap1\n      sload\n      swap1\n      0x0100\n      exp\n      swap1\n      div\n      0xffffffffffffffffffffffffffffffffffffffff\n      and\n      0xffffffffffffffffffffffffffffffffffffffff\n      and\n      0xffffffffffffffffffffffffffffffffffffffff\n      and\n      dup2\n      mstore\n      0x20\n      add\n      0x04\n      dup3\n      add\n      0x00\n      swap1\n      sload\n      swap1\n      0x0100\n      exp\n      swap1\n      div\n      0xffffffffffffffffffffffffffffffffffffffff\n      and\n      0xffffffffffffffffffffffffffffffffffffffff\n      and\n      0xffffffffffffffffffffffffffffffffffffffff\n      and\n      dup2\n      mstore\n      0x20\n      add\n      0x05\n      dup3\n      add\n      sload\n      dup2\n      mstore\n      0x20\n      add\n      0x06\n      dup3\n      add\n      sload\n      dup2\n      mstore\n      pop\n      pop\n        /* \"contracts/Utils.sol\":4502:4510  TempTran */\n      dup3\n        /* \"contracts/Utils.sol\":4511:4522  MatchedRows */\n      dup5\n        /* \"contracts/Utils.sol\":4502:4523  TempTran[MatchedRows] */\n      dup2\n      mload\n      dup2\n      lt\n      tag_533\n      jumpi\n      tag_534\n      tag_114\n      jump\t// in\n    tag_534:\n    tag_533:\n      0x20\n      mul\n      0x20\n      add\n      add\n        /* \"contracts/Utils.sol\":4502:4547  TempTran[MatchedRows] = PatchTrannsactions[i] */\n      dup2\n      swap1\n      mstore\n      pop\n        /* \"contracts/Utils.sol\":4565:4578  MatchedRows++ */\n      dup3\n      dup1\n      tag_535\n      swap1\n      tag_156\n      jump\t// in\n    tag_535:\n      swap4\n      pop\n      pop\n        /* \"contracts/Utils.sol\":4436:4593  if (PatchTrannsactions[i].ToID == _useraddress) {... */\n    tag_519:\n        /* \"contracts/Utils.sol\":4368:4371  i++ */\n      dup1\n      dup1\n      tag_536\n      swap1\n      tag_156\n      jump\t// in\n    tag_536:\n      swap2\n      pop\n      pop\n        /* \"contracts/Utils.sol\":4317:4603  for (uint256 i = 0; i < PatchTrannsactions.length; i++) {... */\n      jump(tag_513)\n    tag_514:\n      pop\n        /* \"contracts/Utils.sol\":4653:4664  MatchedRows */\n      dup2\n        /* \"contracts/Utils.sol\":4630:4665  new PatchTransaction[](MatchedRows) */\n      0xffffffffffffffff\n      dup2\n      gt\n      iszero\n      tag_537\n      jumpi\n      tag_538\n      tag_101\n      jump\t// in\n    tag_538:\n    tag_537:\n      mload(0x40)\n      swap1\n      dup1\n      dup3\n      mstore\n      dup1\n      0x20\n      mul\n      0x20\n      add\n      dup3\n      add\n      0x40\n      mstore\n      dup1\n      iszero\n      tag_539\n      jumpi\n      dup2\n      0x20\n      add\n    tag_540:\n      tag_541\n      tag_188\n      jump\t// in\n    tag_541:\n      dup2\n      mstore\n      0x20\n      add\n      swap1\n      0x01\n      swap1\n      sub\n      swap1\n      dup2\n      tag_540\n      jumpi\n      swap1\n      pop\n    tag_539:\n      pop\n        /* \"contracts/Utils.sol\":4612:4665  UserTransaction = new PatchTransaction[](MatchedRows) */\n      swap3\n      pop\n        /* \"contracts/Utils.sol\":4693:4694  0 */\n      0x00\n        /* \"contracts/Utils.sol\":4679:4690  MatchedRows */\n      dup3\n        /* \"contracts/Utils.sol\":4679:4694  MatchedRows > 0 */\n      gt\n        /* \"contracts/Utils.sol\":4675:4827  if (MatchedRows > 0) {... */\n      iszero\n      tag_542\n      jumpi\n        /* \"contracts/Utils.sol\":4715:4724  uint256 i */\n      0x00\n        /* \"contracts/Utils.sol\":4710:4817  for (uint256 i = 0; i < MatchedRows; i++) {... */\n    tag_543:\n        /* \"contracts/Utils.sol\":4734:4745  MatchedRows */\n      dup3\n        /* \"contracts/Utils.sol\":4730:4731  i */\n      dup2\n        /* \"contracts/Utils.sol\":4730:4745  i < MatchedRows */\n      lt\n        /* \"contracts/Utils.sol\":4710:4817  for (uint256 i = 0; i < MatchedRows; i++) {... */\n      iszero\n      tag_544\n      jumpi\n        /* \"contracts/Utils.sol\":4791:4799  TempTran */\n      dup2\n        /* \"contracts/Utils.sol\":4800:4801  i */\n      dup2\n        /* \"contracts/Utils.sol\":4791:4802  TempTran[i] */\n      dup2\n      mload\n      dup2\n      lt\n      tag_546\n      jumpi\n      tag_547\n      tag_114\n      jump\t// in\n    tag_547:\n    tag_546:\n      0x20\n      mul\n      0x20\n      add\n      add\n      mload\n        /* \"contracts/Utils.sol\":4770:4785  UserTransaction */\n      dup5\n        /* \"contracts/Utils.sol\":4786:4787  i */\n      dup3\n        /* \"contracts/Utils.sol\":4770:4788  UserTransaction[i] */\n      dup2\n      mload\n      dup2\n      lt\n      tag_548\n      jumpi\n      tag_549\n      tag_114\n      jump\t// in\n    tag_549:\n    tag_548:\n      0x20\n      mul\n      0x20\n      add\n      add\n        /* \"contracts/Utils.sol\":4770:4802  UserTransaction[i] = TempTran[i] */\n      dup2\n      swap1\n      mstore\n      pop\n        /* \"contracts/Utils.sol\":4747:4750  i++ */\n      dup1\n      dup1\n      tag_550\n      swap1\n      tag_156\n      jump\t// in\n    tag_550:\n      swap2\n      pop\n      pop\n        /* \"contracts/Utils.sol\":4710:4817  for (uint256 i = 0; i < MatchedRows; i++) {... */\n      jump(tag_543)\n    tag_544:\n      pop\n        /* \"contracts/Utils.sol\":4675:4827  if (MatchedRows > 0) {... */\n    tag_542:\n        /* \"contracts/Utils.sol\":4160:4833  {... */\n      pop\n      pop\n        /* \"contracts/Utils.sol\":4014:4833  function ReadTransactionsByUser(address _useraddress)... */\n      swap2\n      swap1\n      pop\n      jump\t// out\n        /* \"contracts/Utils.sol\":3049:3982  function ReadDrugsWithManufacturer(Statuses _drugstatus) public view returns (DrugMan[] memory DrugsList) {... */\n    tag_71:\n        /* \"contracts/Utils.sol\":3127:3153  DrugMan[] memory DrugsList */\n      0x60\n        /* \"contracts/Utils.sol\":3165:3183  uint256 drugsCount */\n      0x00\n        /* \"contracts/Utils.sol\":3186:3197  DrugsRegNos */\n      0x04\n        /* \"contracts/Utils.sol\":3186:3204  DrugsRegNos.length */\n      dup1\n      sload\n      swap1\n      pop\n        /* \"contracts/Utils.sol\":3165:3204  uint256 drugsCount = DrugsRegNos.length */\n      swap1\n      pop\n        /* \"contracts/Utils.sol\":3214:3237  Drug[] memory drugsTemp */\n      0x00\n        /* \"contracts/Utils.sol\":3251:3261  drugsCount */\n      dup2\n        /* \"contracts/Utils.sol\":3240:3262  new Drug[](drugsCount) */\n      0xffffffffffffffff\n      dup2\n      gt\n      iszero\n      tag_552\n      jumpi\n      tag_553\n      tag_101\n      jump\t// in\n    tag_553:\n    tag_552:\n      mload(0x40)\n      swap1\n      dup1\n      dup3\n      mstore\n      dup1\n      0x20\n      mul\n      0x20\n      add\n      dup3\n      add\n      0x40\n      mstore\n      dup1\n      iszero\n      tag_554\n      jumpi\n      dup2\n      0x20\n      add\n    tag_555:\n      tag_556\n      tag_557\n      jump\t// in\n    tag_556:\n      dup2\n      mstore\n      0x20\n      add\n      swap1\n      0x01\n      swap1\n      sub\n      swap1\n      dup2\n      tag_555\n      jumpi\n      swap1\n      pop\n    tag_554:\n      pop\n        /* \"contracts/Utils.sol\":3214:3262  Drug[] memory drugsTemp = new Drug[](drugsCount) */\n      swap1\n      pop\n        /* \"contracts/Utils.sol\":3272:3285  uint256 count */\n      0x00\n        /* \"contracts/Utils.sol\":3300:3309  uint256 i */\n      dup1\n        /* \"contracts/Utils.sol\":3312:3313  0 */\n      0x00\n        /* \"contracts/Utils.sol\":3300:3313  uint256 i = 0 */\n      swap1\n      pop\n        /* \"contracts/Utils.sol\":3295:3536  for (uint256 i = 0; i < drugsCount; i++) {... */\n    tag_558:\n        /* \"contracts/Utils.sol\":3319:3329  drugsCount */\n      dup4\n        /* \"contracts/Utils.sol\":3315:3316  i */\n      dup2\n        /* \"contracts/Utils.sol\":3315:3329  i < drugsCount */\n      lt\n        /* \"contracts/Utils.sol\":3295:3536  for (uint256 i = 0; i < drugsCount; i++) {... */\n      iszero\n      tag_559\n      jumpi\n        /* \"contracts/Utils.sol\":3401:3412  _drugstatus */\n      dup6\n        /* \"contracts/Utils.sol\":3354:3412  DrugRegNoMapping[DrugsRegNos[i]].DrugStatus == _drugstatus */\n      0x02\n      dup2\n      gt\n      iszero\n      tag_561\n      jumpi\n      tag_562\n      tag_111\n      jump\t// in\n    tag_562:\n    tag_561:\n        /* \"contracts/Utils.sol\":3354:3370  DrugRegNoMapping */\n      0x03\n        /* \"contracts/Utils.sol\":3371:3382  DrugsRegNos */\n      0x04\n        /* \"contracts/Utils.sol\":3383:3384  i */\n      dup4\n        /* \"contracts/Utils.sol\":3371:3385  DrugsRegNos[i] */\n      dup2\n      sload\n      dup2\n      lt\n      tag_563\n      jumpi\n      tag_564\n      tag_114\n      jump\t// in\n    tag_564:\n    tag_563:\n      swap1\n      0x00\n      mstore\n      keccak256(0x00, 0x20)\n      add\n        /* \"contracts/Utils.sol\":3354:3386  DrugRegNoMapping[DrugsRegNos[i]] */\n      mload(0x40)\n      tag_566\n      swap2\n      swap1\n      tag_567\n      jump\t// in\n    tag_566:\n      swap1\n      dup2\n      mstore\n      0x20\n      add\n      mload(0x40)\n      dup1\n      swap2\n      sub\n      swap1\n      keccak256\n        /* \"contracts/Utils.sol\":3354:3397  DrugRegNoMapping[DrugsRegNos[i]].DrugStatus */\n      0x01\n      add\n      0x14\n      swap1\n      sload\n      swap1\n      0x0100\n      exp\n      swap1\n      div\n      0xff\n      and\n        /* \"contracts/Utils.sol\":3354:3412  DrugRegNoMapping[DrugsRegNos[i]].DrugStatus == _drugstatus */\n      0x02\n      dup2\n      gt\n      iszero\n      tag_568\n      jumpi\n      tag_569\n      tag_111\n      jump\t// in\n    tag_569:\n    tag_568:\n      eq\n        /* \"contracts/Utils.sol\":3350:3526  if (DrugRegNoMapping[DrugsRegNos[i]].DrugStatus == _drugstatus) {... */\n      iszero\n      tag_570\n      jumpi\n        /* \"contracts/Utils.sol\":3451:3467  DrugRegNoMapping */\n      0x03\n        /* \"contracts/Utils.sol\":3468:3479  DrugsRegNos */\n      0x04\n        /* \"contracts/Utils.sol\":3480:3481  i */\n      dup3\n        /* \"contracts/Utils.sol\":3468:3482  DrugsRegNos[i] */\n      dup2\n      sload\n      dup2\n      lt\n      tag_571\n      jumpi\n      tag_572\n      tag_114\n      jump\t// in\n    tag_572:\n    tag_571:\n      swap1\n      0x00\n      mstore\n      keccak256(0x00, 0x20)\n      add\n        /* \"contracts/Utils.sol\":3451:3483  DrugRegNoMapping[DrugsRegNos[i]] */\n      mload(0x40)\n      tag_574\n      swap2\n      swap1\n      tag_567\n      jump\t// in\n    tag_574:\n      swap1\n      dup2\n      mstore\n      0x20\n      add\n      mload(0x40)\n      dup1\n      swap2\n      sub\n      swap1\n      keccak256\n        /* \"contracts/Utils.sol\":3432:3483  drugsTemp[count] = DrugRegNoMapping[DrugsRegNos[i]] */\n      mload(0x40)\n      dup1\n      0x80\n      add\n      0x40\n      mstore\n      swap1\n      dup2\n      0x00\n      dup3\n      add\n      dup1\n      sload\n      tag_575\n      swap1\n      tag_123\n      jump\t// in\n    tag_575:\n      dup1\n      0x1f\n      add\n      0x20\n      dup1\n      swap2\n      div\n      mul\n      0x20\n      add\n      mload(0x40)\n      swap1\n      dup2\n      add\n      0x40\n      mstore\n      dup1\n      swap3\n      swap2\n      swap1\n      dup2\n      dup2\n      mstore\n      0x20\n      add\n      dup3\n      dup1\n      sload\n      tag_576\n      swap1\n      tag_123\n      jump\t// in\n    tag_576:\n      dup1\n      iszero\n      tag_577\n      jumpi\n      dup1\n      0x1f\n      lt\n      tag_578\n      jumpi\n      0x0100\n      dup1\n      dup4\n      sload\n      div\n      mul\n      dup4\n      mstore\n      swap2\n      0x20\n      add\n      swap2\n      jump(tag_577)\n    tag_578:\n      dup3\n      add\n      swap2\n      swap1\n      0x00\n      mstore\n      keccak256(0x00, 0x20)\n      swap1\n    tag_579:\n      dup2\n      sload\n      dup2\n      mstore\n      swap1\n      0x01\n      add\n      swap1\n      0x20\n      add\n      dup1\n      dup4\n      gt\n      tag_579\n      jumpi\n      dup3\n      swap1\n      sub\n      0x1f\n      and\n      dup3\n      add\n      swap2\n    tag_577:\n      pop\n      pop\n      pop\n      pop\n      pop\n      dup2\n      mstore\n      0x20\n      add\n      0x01\n      dup3\n      add\n      0x00\n      swap1\n      sload\n      swap1\n      0x0100\n      exp\n      swap1\n      div\n      0xffffffffffffffffffffffffffffffffffffffff\n      and\n      0xffffffffffffffffffffffffffffffffffffffff\n      and\n      0xffffffffffffffffffffffffffffffffffffffff\n      and\n      dup2\n      mstore\n      0x20\n      add\n      0x01\n      dup3\n      add\n      0x14\n      swap1\n      sload\n      swap1\n      0x0100\n      exp\n      swap1\n      div\n      0xff\n      and\n      0x02\n      dup2\n      gt\n      iszero\n      tag_580\n      jumpi\n      tag_581\n      tag_111\n      jump\t// in\n    tag_581:\n    tag_580:\n      0x02\n      dup2\n      gt\n      iszero\n      tag_582\n      jumpi\n      tag_583\n      tag_111\n      jump\t// in\n    tag_583:\n    tag_582:\n      dup2\n      mstore\n      0x20\n      add\n      0x02\n      dup3\n      add\n      dup1\n      sload\n      tag_584\n      swap1\n      tag_123\n      jump\t// in\n    tag_584:\n      dup1\n      0x1f\n      add\n      0x20\n      dup1\n      swap2\n      div\n      mul\n      0x20\n      add\n      mload(0x40)\n      swap1\n      dup2\n      add\n      0x40\n      mstore\n      dup1\n      swap3\n      swap2\n      swap1\n      dup2\n      dup2\n      mstore\n      0x20\n      add\n      dup3\n      dup1\n      sload\n      tag_585\n      swap1\n      tag_123\n      jump\t// in\n    tag_585:\n      dup1\n      iszero\n      tag_586\n      jumpi\n      dup1\n      0x1f\n      lt\n      tag_587\n      jumpi\n      0x0100\n      dup1\n      dup4\n      sload\n      div\n      mul\n      dup4\n      mstore\n      swap2\n      0x20\n      add\n      swap2\n      jump(tag_586)\n    tag_587:\n      dup3\n      add\n      swap2\n      swap1\n      0x00\n      mstore\n      keccak256(0x00, 0x20)\n      swap1\n    tag_588:\n      dup2\n      sload\n      dup2\n      mstore\n      swap1\n      0x01\n      add\n      swap1\n      0x20\n      add\n      dup1\n      dup4\n      gt\n      tag_588\n      jumpi\n      dup3\n      swap1\n      sub\n      0x1f\n      and\n      dup3\n      add\n      swap2\n    tag_586:\n      pop\n      pop\n      pop\n      pop\n      pop\n      dup2\n      mstore\n      pop\n      pop\n        /* \"contracts/Utils.sol\":3432:3441  drugsTemp */\n      dup4\n        /* \"contracts/Utils.sol\":3442:3447  count */\n      dup4\n        /* \"contracts/Utils.sol\":3432:3448  drugsTemp[count] */\n      dup2\n      mload\n      dup2\n      lt\n      tag_589\n      jumpi\n      tag_590\n      tag_114\n      jump\t// in\n    tag_590:\n    tag_589:\n      0x20\n      mul\n      0x20\n      add\n      add\n        /* \"contracts/Utils.sol\":3432:3483  drugsTemp[count] = DrugRegNoMapping[DrugsRegNos[i]] */\n      dup2\n      swap1\n      mstore\n      pop\n        /* \"contracts/Utils.sol\":3510:3511  1 */\n      0x01\n        /* \"contracts/Utils.sol\":3501:3511  count += 1 */\n      dup3\n      tag_591\n      swap2\n      swap1\n      tag_154\n      jump\t// in\n    tag_591:\n      swap2\n      pop\n        /* \"contracts/Utils.sol\":3350:3526  if (DrugRegNoMapping[DrugsRegNos[i]].DrugStatus == _drugstatus) {... */\n    tag_570:\n        /* \"contracts/Utils.sol\":3331:3334  i++ */\n      dup1\n      dup1\n      tag_592\n      swap1\n      tag_156\n      jump\t// in\n    tag_592:\n      swap2\n      pop\n      pop\n        /* \"contracts/Utils.sol\":3295:3536  for (uint256 i = 0; i < drugsCount; i++) {... */\n      jump(tag_558)\n    tag_559:\n      pop\n        /* \"contracts/Utils.sol\":3572:3577  count */\n      dup1\n        /* \"contracts/Utils.sol\":3558:3578  new DrugMan[](count) */\n      0xffffffffffffffff\n      dup2\n      gt\n      iszero\n      tag_593\n      jumpi\n      tag_594\n      tag_101\n      jump\t// in\n    tag_594:\n    tag_593:\n      mload(0x40)\n      swap1\n      dup1\n      dup3\n      mstore\n      dup1\n      0x20\n      mul\n      0x20\n      add\n      dup3\n      add\n      0x40\n      mstore\n      dup1\n      iszero\n      tag_595\n      jumpi\n      dup2\n      0x20\n      add\n    tag_596:\n      tag_597\n      tag_598\n      jump\t// in\n    tag_597:\n      dup2\n      mstore\n      0x20\n      add\n      swap1\n      0x01\n      swap1\n      sub\n      swap1\n      dup2\n      tag_596\n      jumpi\n      swap1\n      pop\n    tag_595:\n      pop\n        /* \"contracts/Utils.sol\":3546:3578  DrugsList = new DrugMan[](count) */\n      swap4\n      pop\n        /* \"contracts/Utils.sol\":3593:3602  uint256 i */\n      0x00\n        /* \"contracts/Utils.sol\":3588:3976  for (uint256 i = 0; i < count; i++) {... */\n    tag_599:\n        /* \"contracts/Utils.sol\":3612:3617  count */\n      dup2\n        /* \"contracts/Utils.sol\":3608:3609  i */\n      dup2\n        /* \"contracts/Utils.sol\":3608:3617  i < count */\n      lt\n        /* \"contracts/Utils.sol\":3588:3976  for (uint256 i = 0; i < count; i++) {... */\n      iszero\n      tag_600\n      jumpi\n        /* \"contracts/Utils.sol\":3662:3671  drugsTemp */\n      dup3\n        /* \"contracts/Utils.sol\":3672:3673  i */\n      dup2\n        /* \"contracts/Utils.sol\":3662:3674  drugsTemp[i] */\n      dup2\n      mload\n      dup2\n      lt\n      tag_602\n      jumpi\n      tag_603\n      tag_114\n      jump\t// in\n    tag_603:\n    tag_602:\n      0x20\n      mul\n      0x20\n      add\n      add\n      mload\n        /* \"contracts/Utils.sol\":3662:3683  drugsTemp[i].DrugName */\n      0x00\n      add\n      mload\n        /* \"contracts/Utils.sol\":3638:3647  DrugsList */\n      dup6\n        /* \"contracts/Utils.sol\":3648:3649  i */\n      dup3\n        /* \"contracts/Utils.sol\":3638:3650  DrugsList[i] */\n      dup2\n      mload\n      dup2\n      lt\n      tag_604\n      jumpi\n      tag_605\n      tag_114\n      jump\t// in\n    tag_605:\n    tag_604:\n      0x20\n      mul\n      0x20\n      add\n      add\n      mload\n        /* \"contracts/Utils.sol\":3638:3659  DrugsList[i].DrugName */\n      0x00\n      add\n        /* \"contracts/Utils.sol\":3638:3683  DrugsList[i].DrugName = drugsTemp[i].DrugName */\n      dup2\n      swap1\n      mstore\n      pop\n        /* \"contracts/Utils.sol\":3725:3734  drugsTemp */\n      dup3\n        /* \"contracts/Utils.sol\":3735:3736  i */\n      dup2\n        /* \"contracts/Utils.sol\":3725:3737  drugsTemp[i] */\n      dup2\n      mload\n      dup2\n      lt\n      tag_606\n      jumpi\n      tag_607\n      tag_114\n      jump\t// in\n    tag_607:\n    tag_606:\n      0x20\n      mul\n      0x20\n      add\n      add\n      mload\n        /* \"contracts/Utils.sol\":3725:3750  drugsTemp[i].Manufacturer */\n      0x20\n      add\n      mload\n        /* \"contracts/Utils.sol\":3697:3706  DrugsList */\n      dup6\n        /* \"contracts/Utils.sol\":3707:3708  i */\n      dup3\n        /* \"contracts/Utils.sol\":3697:3709  DrugsList[i] */\n      dup2\n      mload\n      dup2\n      lt\n      tag_608\n      jumpi\n      tag_609\n      tag_114\n      jump\t// in\n    tag_609:\n    tag_608:\n      0x20\n      mul\n      0x20\n      add\n      add\n      mload\n        /* \"contracts/Utils.sol\":3697:3722  DrugsList[i].Manufacturer */\n      0x20\n      add\n        /* \"contracts/Utils.sol\":3697:3750  DrugsList[i].Manufacturer = drugsTemp[i].Manufacturer */\n      swap1\n      0xffffffffffffffffffffffffffffffffffffffff\n      and\n      swap1\n      dup2\n      0xffffffffffffffffffffffffffffffffffffffff\n      and\n      dup2\n      mstore\n      pop\n      pop\n        /* \"contracts/Utils.sol\":3790:3799  drugsTemp */\n      dup3\n        /* \"contracts/Utils.sol\":3800:3801  i */\n      dup2\n        /* \"contracts/Utils.sol\":3790:3802  drugsTemp[i] */\n      dup2\n      mload\n      dup2\n      lt\n      tag_610\n      jumpi\n      tag_611\n      tag_114\n      jump\t// in\n    tag_611:\n    tag_610:\n      0x20\n      mul\n      0x20\n      add\n      add\n      mload\n        /* \"contracts/Utils.sol\":3790:3813  drugsTemp[i].DrugStatus */\n      0x40\n      add\n      mload\n        /* \"contracts/Utils.sol\":3764:3773  DrugsList */\n      dup6\n        /* \"contracts/Utils.sol\":3774:3775  i */\n      dup3\n        /* \"contracts/Utils.sol\":3764:3776  DrugsList[i] */\n      dup2\n      mload\n      dup2\n      lt\n      tag_612\n      jumpi\n      tag_613\n      tag_114\n      jump\t// in\n    tag_613:\n    tag_612:\n      0x20\n      mul\n      0x20\n      add\n      add\n      mload\n        /* \"contracts/Utils.sol\":3764:3787  DrugsList[i].DrugStatus */\n      0x40\n      add\n        /* \"contracts/Utils.sol\":3764:3813  DrugsList[i].DrugStatus = drugsTemp[i].DrugStatus */\n      swap1\n      0x02\n      dup2\n      gt\n      iszero\n      tag_614\n      jumpi\n      tag_615\n      tag_111\n      jump\t// in\n    tag_615:\n    tag_614:\n      swap1\n      dup2\n      0x02\n      dup2\n      gt\n      iszero\n      tag_616\n      jumpi\n      tag_617\n      tag_111\n      jump\t// in\n    tag_617:\n    tag_616:\n      dup2\n      mstore\n      pop\n      pop\n        /* \"contracts/Utils.sol\":3852:3861  drugsTemp */\n      dup3\n        /* \"contracts/Utils.sol\":3862:3863  i */\n      dup2\n        /* \"contracts/Utils.sol\":3852:3864  drugsTemp[i] */\n      dup2\n      mload\n      dup2\n      lt\n      tag_618\n      jumpi\n      tag_619\n      tag_114\n      jump\t// in\n    tag_619:\n    tag_618:\n      0x20\n      mul\n      0x20\n      add\n      add\n      mload\n        /* \"contracts/Utils.sol\":3852:3874  drugsTemp[i].DrugRegNo */\n      0x60\n      add\n      mload\n        /* \"contracts/Utils.sol\":3827:3836  DrugsList */\n      dup6\n        /* \"contracts/Utils.sol\":3837:3838  i */\n      dup3\n        /* \"contracts/Utils.sol\":3827:3839  DrugsList[i] */\n      dup2\n      mload\n      dup2\n      lt\n      tag_620\n      jumpi\n      tag_621\n      tag_114\n      jump\t// in\n    tag_621:\n    tag_620:\n      0x20\n      mul\n      0x20\n      add\n      add\n      mload\n        /* \"contracts/Utils.sol\":3827:3849  DrugsList[i].DrugRegNo */\n      0x60\n      add\n        /* \"contracts/Utils.sol\":3827:3874  DrugsList[i].DrugRegNo = drugsTemp[i].DrugRegNo */\n      dup2\n      swap1\n      mstore\n      pop\n        /* \"contracts/Utils.sol\":3911:3929  UserAddressMapping */\n      0x01\n        /* \"contracts/Utils.sol\":3911:3956  UserAddressMapping[drugsTemp[i].Manufacturer] */\n      0x00\n        /* \"contracts/Utils.sol\":3930:3939  drugsTemp */\n      dup5\n        /* \"contracts/Utils.sol\":3940:3941  i */\n      dup4\n        /* \"contracts/Utils.sol\":3930:3942  drugsTemp[i] */\n      dup2\n      mload\n      dup2\n      lt\n      tag_622\n      jumpi\n      tag_623\n      tag_114\n      jump\t// in\n    tag_623:\n    tag_622:\n      0x20\n      mul\n      0x20\n      add\n      add\n      mload\n        /* \"contracts/Utils.sol\":3930:3955  drugsTemp[i].Manufacturer */\n      0x20\n      add\n      mload\n        /* \"contracts/Utils.sol\":3911:3956  UserAddressMapping[drugsTemp[i].Manufacturer] */\n      0xffffffffffffffffffffffffffffffffffffffff\n      and\n      0xffffffffffffffffffffffffffffffffffffffff\n      and\n      dup2\n      mstore\n      0x20\n      add\n      swap1\n      dup2\n      mstore\n      0x20\n      add\n      0x00\n      keccak256\n        /* \"contracts/Utils.sol\":3911:3965  UserAddressMapping[drugsTemp[i].Manufacturer].UserName */\n      0x01\n      add\n        /* \"contracts/Utils.sol\":3888:3965  DrugsList[i].ManName = UserAddressMapping[drugsTemp[i].Manufacturer].UserName */\n      dup1\n      sload\n      tag_624\n      swap1\n      tag_123\n      jump\t// in\n    tag_624:\n      dup1\n      0x1f\n      add\n      0x20\n      dup1\n      swap2\n      div\n      mul\n      0x20\n      add\n      mload(0x40)\n      swap1\n      dup2\n      add\n      0x40\n      mstore\n      dup1\n      swap3\n      swap2\n      swap1\n      dup2\n      dup2\n      mstore\n      0x20\n      add\n      dup3\n      dup1\n      sload\n      tag_625\n      swap1\n      tag_123\n      jump\t// in\n    tag_625:\n      dup1\n      iszero\n      tag_626\n      jumpi\n      dup1\n      0x1f\n      lt\n      tag_627\n      jumpi\n      0x0100\n      dup1\n      dup4\n      sload\n      div\n      mul\n      dup4\n      mstore\n      swap2\n      0x20\n      add\n      swap2\n      jump(tag_626)\n    tag_627:\n      dup3\n      add\n      swap2\n      swap1\n      0x00\n      mstore\n      keccak256(0x00, 0x20)\n      swap1\n    tag_628:\n      dup2\n      sload\n      dup2\n      mstore\n      swap1\n      0x01\n      add\n      swap1\n      0x20\n      add\n      dup1\n      dup4\n      gt\n      tag_628\n      jumpi\n      dup3\n      swap1\n      sub\n      0x1f\n      and\n      dup3\n      add\n      swap2\n    tag_626:\n      pop\n      pop\n      pop\n      pop\n      pop\n        /* \"contracts/Utils.sol\":3888:3897  DrugsList */\n      dup6\n        /* \"contracts/Utils.sol\":3898:3899  i */\n      dup3\n        /* \"contracts/Utils.sol\":3888:3900  DrugsList[i] */\n      dup2\n      mload\n      dup2\n      lt\n      tag_629\n      jumpi\n      tag_630\n      tag_114\n      jump\t// in\n    tag_630:\n    tag_629:\n      0x20\n      mul\n      0x20\n      add\n      add\n      mload\n        /* \"contracts/Utils.sol\":3888:3908  DrugsList[i].ManName */\n      0x80\n      add\n        /* \"contracts/Utils.sol\":3888:3965  DrugsList[i].ManName = UserAddressMapping[drugsTemp[i].Manufacturer].UserName */\n      dup2\n      swap1\n      mstore\n      pop\n        /* \"contracts/Utils.sol\":3619:3622  i++ */\n      dup1\n      dup1\n      tag_631\n      swap1\n      tag_156\n      jump\t// in\n    tag_631:\n      swap2\n      pop\n      pop\n        /* \"contracts/Utils.sol\":3588:3976  for (uint256 i = 0; i < count; i++) {... */\n      jump(tag_599)\n    tag_600:\n      pop\n        /* \"contracts/Utils.sol\":3155:3982  {... */\n      pop\n      pop\n      pop\n        /* \"contracts/Utils.sol\":3049:3982  function ReadDrugsWithManufacturer(Statuses _drugstatus) public view returns (DrugMan[] memory DrugsList) {... */\n      swap2\n      swap1\n      pop\n      jump\t// out\n        /* \"contracts/Definitions.sol\":221:241  address public Owner */\n    tag_75:\n      0x00\n      dup1\n      sload\n      swap1\n      0x0100\n      exp\n      swap1\n      div\n      0xffffffffffffffffffffffffffffffffffffffff\n      and\n      dup2\n      jump\t// out\n        /* \"contracts/Utils.sol\":411:533  function ReadUser(address _address) public view returns (User memory) {... */\n    tag_80:\n        /* \"contracts/Utils.sol\":468:479  User memory */\n      tag_632\n      tag_105\n      jump\t// in\n    tag_632:\n        /* \"contracts/Utils.sol\":498:516  UserAddressMapping */\n      0x01\n        /* \"contracts/Utils.sol\":498:526  UserAddressMapping[_address] */\n      0x00\n        /* \"contracts/Utils.sol\":517:525  _address */\n      dup4\n        /* \"contracts/Utils.sol\":498:526  UserAddressMapping[_address] */\n      0xffffffffffffffffffffffffffffffffffffffff\n      and\n      0xffffffffffffffffffffffffffffffffffffffff\n      and\n      dup2\n      mstore\n      0x20\n      add\n      swap1\n      dup2\n      mstore\n      0x20\n      add\n      0x00\n      keccak256\n        /* \"contracts/Utils.sol\":491:526  return UserAddressMapping[_address] */\n      mload(0x40)\n      dup1\n      0xe0\n      add\n      0x40\n      mstore\n      swap1\n      dup2\n      0x00\n      dup3\n      add\n      dup1\n      sload\n      tag_634\n      swap1\n      tag_123\n      jump\t// in\n    tag_634:\n      dup1\n      0x1f\n      add\n      0x20\n      dup1\n      swap2\n      div\n      mul\n      0x20\n      add\n      mload(0x40)\n      swap1\n      dup2\n      add\n      0x40\n      mstore\n      dup1\n      swap3\n      swap2\n      swap1\n      dup2\n      dup2\n      mstore\n      0x20\n      add\n      dup3\n      dup1\n      sload\n      tag_635\n      swap1\n      tag_123\n      jump\t// in\n    tag_635:\n      dup1\n      iszero\n      tag_636\n      jumpi\n      dup1\n      0x1f\n      lt\n      tag_637\n      jumpi\n      0x0100\n      dup1\n      dup4\n      sload\n      div\n      mul\n      dup4\n      mstore\n      swap2\n      0x20\n      add\n      swap2\n      jump(tag_636)\n    tag_637:\n      dup3\n      add\n      swap2\n      swap1\n      0x00\n      mstore\n      keccak256(0x00, 0x20)\n      swap1\n    tag_638:\n      dup2\n      sload\n      dup2\n      mstore\n      swap1\n      0x01\n      add\n      swap1\n      0x20\n      add\n      dup1\n      dup4\n      gt\n      tag_638\n      jumpi\n      dup3\n      swap1\n      sub\n      0x1f\n      and\n      dup3\n      add\n      swap2\n    tag_636:\n      pop\n      pop\n      pop\n      pop\n      pop\n      dup2\n      mstore\n      0x20\n      add\n      0x01\n      dup3\n      add\n      dup1\n      sload\n      tag_639\n      swap1\n      tag_123\n      jump\t// in\n    tag_639:\n      dup1\n      0x1f\n      add\n      0x20\n      dup1\n      swap2\n      div\n      mul\n      0x20\n      add\n      mload(0x40)\n      swap1\n      dup2\n      add\n      0x40\n      mstore\n      dup1\n      swap3\n      swap2\n      swap1\n      dup2\n      dup2\n      mstore\n      0x20\n      add\n      dup3\n      dup1\n      sload\n      tag_640\n      swap1\n      tag_123\n      jump\t// in\n    tag_640:\n      dup1\n      iszero\n      tag_641\n      jumpi\n      dup1\n      0x1f\n      lt\n      tag_642\n      jumpi\n      0x0100\n      dup1\n      dup4\n      sload\n      div\n      mul\n      dup4\n      mstore\n      swap2\n      0x20\n      add\n      swap2\n      jump(tag_641)\n    tag_642:\n      dup3\n      add\n      swap2\n      swap1\n      0x00\n      mstore\n      keccak256(0x00, 0x20)\n      swap1\n    tag_643:\n      dup2\n      sload\n      dup2\n      mstore\n      swap1\n      0x01\n      add\n      swap1\n      0x20\n      add\n      dup1\n      dup4\n      gt\n      tag_643\n      jumpi\n      dup3\n      swap1\n      sub\n      0x1f\n      and\n      dup3\n      add\n      swap2\n    tag_641:\n      pop\n      pop\n      pop\n      pop\n      pop\n      dup2\n      mstore\n      0x20\n      add\n      0x02\n      dup3\n      add\n      0x00\n      swap1\n      sload\n      swap1\n      0x0100\n      exp\n      swap1\n      div\n      0xff\n      and\n      0x08\n      dup2\n      gt\n      iszero\n      tag_644\n      jumpi\n      tag_645\n      tag_111\n      jump\t// in\n    tag_645:\n    tag_644:\n      0x08\n      dup2\n      gt\n      iszero\n      tag_646\n      jumpi\n      tag_647\n      tag_111\n      jump\t// in\n    tag_647:\n    tag_646:\n      dup2\n      mstore\n      0x20\n      add\n      0x02\n      dup3\n      add\n      0x01\n      swap1\n      sload\n      swap1\n      0x0100\n      exp\n      swap1\n      div\n      0xff\n      and\n      0x02\n      dup2\n      gt\n      iszero\n      tag_648\n      jumpi\n      tag_649\n      tag_111\n      jump\t// in\n    tag_649:\n    tag_648:\n      0x02\n      dup2\n      gt\n      iszero\n      tag_650\n      jumpi\n      tag_651\n      tag_111\n      jump\t// in\n    tag_651:\n    tag_650:\n      dup2\n      mstore\n      0x20\n      add\n      0x03\n      dup3\n      add\n      dup1\n      sload\n      tag_652\n      swap1\n      tag_123\n      jump\t// in\n    tag_652:\n      dup1\n      0x1f\n      add\n      0x20\n      dup1\n      swap2\n      div\n      mul\n      0x20\n      add\n      mload(0x40)\n      swap1\n      dup2\n      add\n      0x40\n      mstore\n      dup1\n      swap3\n      swap2\n      swap1\n      dup2\n      dup2\n      mstore\n      0x20\n      add\n      dup3\n      dup1\n      sload\n      tag_653\n      swap1\n      tag_123\n      jump\t// in\n    tag_653:\n      dup1\n      iszero\n      tag_654\n      jumpi\n      dup1\n      0x1f\n      lt\n      tag_655\n      jumpi\n      0x0100\n      dup1\n      dup4\n      sload\n      div\n      mul\n      dup4\n      mstore\n      swap2\n      0x20\n      add\n      swap2\n      jump(tag_654)\n    tag_655:\n      dup3\n      add\n      swap2\n      swap1\n      0x00\n      mstore\n      keccak256(0x00, 0x20)\n      swap1\n    tag_656:\n      dup2\n      sload\n      dup2\n      mstore\n      swap1\n      0x01\n      add\n      swap1\n      0x20\n      add\n      dup1\n      dup4\n      gt\n      tag_656\n      jumpi\n      dup3\n      swap1\n      sub\n      0x1f\n      and\n      dup3\n      add\n      swap2\n    tag_654:\n      pop\n      pop\n      pop\n      pop\n      pop\n      dup2\n      mstore\n      0x20\n      add\n      0x04\n      dup3\n      add\n      dup1\n      sload\n      tag_657\n      swap1\n      tag_123\n      jump\t// in\n    tag_657:\n      dup1\n      0x1f\n      add\n      0x20\n      dup1\n      swap2\n      div\n      mul\n      0x20\n      add\n      mload(0x40)\n      swap1\n      dup2\n      add\n      0x40\n      mstore\n      dup1\n      swap3\n      swap2\n      swap1\n      dup2\n      dup2\n      mstore\n      0x20\n      add\n      dup3\n      dup1\n      sload\n      tag_658\n      swap1\n      tag_123\n      jump\t// in\n    tag_658:\n      dup1\n      iszero\n      tag_659\n      jumpi\n      dup1\n      0x1f\n      lt\n      tag_660\n      jumpi\n      0x0100\n      dup1\n      dup4\n      sload\n      div\n      mul\n      dup4\n      mstore\n      swap2\n      0x20\n      add\n      swap2\n      jump(tag_659)\n    tag_660:\n      dup3\n      add\n      swap2\n      swap1\n      0x00\n      mstore\n      keccak256(0x00, 0x20)\n      swap1\n    tag_661:\n      dup2\n      sload\n      dup2\n      mstore\n      swap1\n      0x01\n      add\n      swap1\n      0x20\n      add\n      dup1\n      dup4\n      gt\n      tag_661\n      jumpi\n      dup3\n      swap1\n      sub\n      0x1f\n      and\n      dup3\n      add\n      swap2\n    tag_659:\n      pop\n      pop\n      pop\n      pop\n      pop\n      dup2\n      mstore\n      0x20\n      add\n      0x05\n      dup3\n      add\n      0x00\n      swap1\n      sload\n      swap1\n      0x0100\n      exp\n      swap1\n      div\n      0xffffffffffffffffffffffffffffffffffffffff\n      and\n      0xffffffffffffffffffffffffffffffffffffffff\n      and\n      0xffffffffffffffffffffffffffffffffffffffff\n      and\n      dup2\n      mstore\n      pop\n      pop\n      swap1\n      pop\n        /* \"contracts/Utils.sol\":411:533  function ReadUser(address _address) public view returns (User memory) {... */\n      swap2\n      swap1\n      pop\n      jump\t// out\n        /* \"contracts/Utils.sol\":2267:2389  function ReadDrug(string memory _regno) public view returns (Drug memory) {... */\n    tag_85:\n        /* \"contracts/Utils.sol\":2328:2339  Drug memory */\n      tag_662\n      tag_557\n      jump\t// in\n    tag_662:\n        /* \"contracts/Utils.sol\":2358:2374  DrugRegNoMapping */\n      0x03\n        /* \"contracts/Utils.sol\":2375:2381  _regno */\n      dup3\n        /* \"contracts/Utils.sol\":2358:2382  DrugRegNoMapping[_regno] */\n      mload(0x40)\n      tag_664\n      swap2\n      swap1\n      tag_665\n      jump\t// in\n    tag_664:\n      swap1\n      dup2\n      mstore\n      0x20\n      add\n      mload(0x40)\n      dup1\n      swap2\n      sub\n      swap1\n      keccak256\n        /* \"contracts/Utils.sol\":2351:2382  return DrugRegNoMapping[_regno] */\n      mload(0x40)\n      dup1\n      0x80\n      add\n      0x40\n      mstore\n      swap1\n      dup2\n      0x00\n      dup3\n      add\n      dup1\n      sload\n      tag_666\n      swap1\n      tag_123\n      jump\t// in\n    tag_666:\n      dup1\n      0x1f\n      add\n      0x20\n      dup1\n      swap2\n      div\n      mul\n      0x20\n      add\n      mload(0x40)\n      swap1\n      dup2\n      add\n      0x40\n      mstore\n      dup1\n      swap3\n      swap2\n      swap1\n      dup2\n      dup2\n      mstore\n      0x20\n      add\n      dup3\n      dup1\n      sload\n      tag_667\n      swap1\n      tag_123\n      jump\t// in\n    tag_667:\n      dup1\n      iszero\n      tag_668\n      jumpi\n      dup1\n      0x1f\n      lt\n      tag_669\n      jumpi\n      0x0100\n      dup1\n      dup4\n      sload\n      div\n      mul\n      dup4\n      mstore\n      swap2\n      0x20\n      add\n      swap2\n      jump(tag_668)\n    tag_669:\n      dup3\n      add\n      swap2\n      swap1\n      0x00\n      mstore\n      keccak256(0x00, 0x20)\n      swap1\n    tag_670:\n      dup2\n      sload\n      dup2\n      mstore\n      swap1\n      0x01\n      add\n      swap1\n      0x20\n      add\n      dup1\n      dup4\n      gt\n      tag_670\n      jumpi\n      dup3\n      swap1\n      sub\n      0x1f\n      and\n      dup3\n      add\n      swap2\n    tag_668:\n      pop\n      pop\n      pop\n      pop\n      pop\n      dup2\n      mstore\n      0x20\n      add\n      0x01\n      dup3\n      add\n      0x00\n      swap1\n      sload\n      swap1\n      0x0100\n      exp\n      swap1\n      div\n      0xffffffffffffffffffffffffffffffffffffffff\n      and\n      0xffffffffffffffffffffffffffffffffffffffff\n      and\n      0xffffffffffffffffffffffffffffffffffffffff\n      and\n      dup2\n      mstore\n      0x20\n      add\n      0x01\n      dup3\n      add\n      0x14\n      swap1\n      sload\n      swap1\n      0x0100\n      exp\n      swap1\n      div\n      0xff\n      and\n      0x02\n      dup2\n      gt\n      iszero\n      tag_671\n      jumpi\n      tag_672\n      tag_111\n      jump\t// in\n    tag_672:\n    tag_671:\n      0x02\n      dup2\n      gt\n      iszero\n      tag_673\n      jumpi\n      tag_674\n      tag_111\n      jump\t// in\n    tag_674:\n    tag_673:\n      dup2\n      mstore\n      0x20\n      add\n      0x02\n      dup3\n      add\n      dup1\n      sload\n      tag_675\n      swap1\n      tag_123\n      jump\t// in\n    tag_675:\n      dup1\n      0x1f\n      add\n      0x20\n      dup1\n      swap2\n      div\n      mul\n      0x20\n      add\n      mload(0x40)\n      swap1\n      dup2\n      add\n      0x40\n      mstore\n      dup1\n      swap3\n      swap2\n      swap1\n      dup2\n      dup2\n      mstore\n      0x20\n      add\n      dup3\n      dup1\n      sload\n      tag_676\n      swap1\n      tag_123\n      jump\t// in\n    tag_676:\n      dup1\n      iszero\n      tag_677\n      jumpi\n      dup1\n      0x1f\n      lt\n      tag_678\n      jumpi\n      0x0100\n      dup1\n      dup4\n      sload\n      div\n      mul\n      dup4\n      mstore\n      swap2\n      0x20\n      add\n      swap2\n      jump(tag_677)\n    tag_678:\n      dup3\n      add\n      swap2\n      swap1\n      0x00\n      mstore\n      keccak256(0x00, 0x20)\n      swap1\n    tag_679:\n      dup2\n      sload\n      dup2\n      mstore\n      swap1\n      0x01\n      add\n      swap1\n      0x20\n      add\n      dup1\n      dup4\n      gt\n      tag_679\n      jumpi\n      dup3\n      swap1\n      sub\n      0x1f\n      and\n      dup3\n      add\n      swap2\n    tag_677:\n      pop\n      pop\n      pop\n      pop\n      pop\n      dup2\n      mstore\n      pop\n      pop\n      swap1\n      pop\n        /* \"contracts/Utils.sol\":2267:2389  function ReadDrug(string memory _regno) public view returns (Drug memory) {... */\n      swap2\n      swap1\n      pop\n      jump\t// out\n        /* \"contracts/Utils.sol\":164:388  function compareStringsbyBytes(string memory s1, string memory s2)... */\n    tag_90:\n        /* \"contracts/Utils.sol\":276:280  bool */\n      0x00\n        /* \"contracts/Utils.sol\":377:379  s2 */\n      dup2\n        /* \"contracts/Utils.sol\":360:380  abi.encodePacked(s2) */\n      add(0x20, mload(0x40))\n      tag_681\n      swap2\n      swap1\n      tag_665\n      jump\t// in\n    tag_681:\n      mload(0x40)\n      0x20\n      dup2\n      dup4\n      sub\n      sub\n      dup2\n      mstore\n      swap1\n      0x40\n      mstore\n        /* \"contracts/Utils.sol\":350:381  keccak256(abi.encodePacked(s2)) */\n      dup1\n      mload\n      swap1\n      0x20\n      add\n      keccak256\n        /* \"contracts/Utils.sol\":342:344  s1 */\n      dup4\n        /* \"contracts/Utils.sol\":325:345  abi.encodePacked(s1) */\n      add(0x20, mload(0x40))\n      tag_682\n      swap2\n      swap1\n      tag_665\n      jump\t// in\n    tag_682:\n      mload(0x40)\n      0x20\n      dup2\n      dup4\n      sub\n      sub\n      dup2\n      mstore\n      swap1\n      0x40\n      mstore\n        /* \"contracts/Utils.sol\":315:346  keccak256(abi.encodePacked(s1)) */\n      dup1\n      mload\n      swap1\n      0x20\n      add\n      keccak256\n        /* \"contracts/Utils.sol\":315:381  keccak256(abi.encodePacked(s1)) == keccak256(abi.encodePacked(s2)) */\n      eq\n        /* \"contracts/Utils.sol\":296:381  return... */\n      swap1\n      pop\n        /* \"contracts/Utils.sol\":164:388  function compareStringsbyBytes(string memory s1, string memory s2)... */\n      swap3\n      swap2\n      pop\n      pop\n      jump\t// out\n        /* \"contracts/Utils.sol\":2395:3043  function ReadDrugsByUser(address _useraddress)... */\n    tag_95:\n        /* \"contracts/Utils.sol\":2487:2510  Drug[] memory DrugsList */\n      0x60\n        /* \"contracts/Utils.sol\":2526:2544  uint256 drugsCount */\n      0x00\n        /* \"contracts/Utils.sol\":2547:2558  DrugsRegNos */\n      0x04\n        /* \"contracts/Utils.sol\":2547:2565  DrugsRegNos.length */\n      dup1\n      sload\n      swap1\n      pop\n        /* \"contracts/Utils.sol\":2526:2565  uint256 drugsCount = DrugsRegNos.length */\n      swap1\n      pop\n        /* \"contracts/Utils.sol\":2575:2598  Drug[] memory drugsTemp */\n      0x00\n        /* \"contracts/Utils.sol\":2612:2622  drugsCount */\n      dup2\n        /* \"contracts/Utils.sol\":2601:2623  new Drug[](drugsCount) */\n      0xffffffffffffffff\n      dup2\n      gt\n      iszero\n      tag_684\n      jumpi\n      tag_685\n      tag_101\n      jump\t// in\n    tag_685:\n    tag_684:\n      mload(0x40)\n      swap1\n      dup1\n      dup3\n      mstore\n      dup1\n      0x20\n      mul\n      0x20\n      add\n      dup3\n      add\n      0x40\n      mstore\n      dup1\n      iszero\n      tag_686\n      jumpi\n      dup2\n      0x20\n      add\n    tag_687:\n      tag_688\n      tag_557\n      jump\t// in\n    tag_688:\n      dup2\n      mstore\n      0x20\n      add\n      swap1\n      0x01\n      swap1\n      sub\n      swap1\n      dup2\n      tag_687\n      jumpi\n      swap1\n      pop\n    tag_686:\n      pop\n        /* \"contracts/Utils.sol\":2575:2623  Drug[] memory drugsTemp = new Drug[](drugsCount) */\n      swap1\n      pop\n        /* \"contracts/Utils.sol\":2633:2646  uint256 count */\n      0x00\n        /* \"contracts/Utils.sol\":2661:2670  uint256 i */\n      dup1\n        /* \"contracts/Utils.sol\":2673:2674  0 */\n      0x00\n        /* \"contracts/Utils.sol\":2661:2674  uint256 i = 0 */\n      swap1\n      pop\n        /* \"contracts/Utils.sol\":2656:2900  for (uint256 i = 0; i < drugsCount; i++) {... */\n    tag_689:\n        /* \"contracts/Utils.sol\":2680:2690  drugsCount */\n      dup4\n        /* \"contracts/Utils.sol\":2676:2677  i */\n      dup2\n        /* \"contracts/Utils.sol\":2676:2690  i < drugsCount */\n      lt\n        /* \"contracts/Utils.sol\":2656:2900  for (uint256 i = 0; i < drugsCount; i++) {... */\n      iszero\n      tag_690\n      jumpi\n        /* \"contracts/Utils.sol\":2764:2776  _useraddress */\n      dup6\n        /* \"contracts/Utils.sol\":2715:2776  DrugRegNoMapping[DrugsRegNos[i]].Manufacturer == _useraddress */\n      0xffffffffffffffffffffffffffffffffffffffff\n      and\n        /* \"contracts/Utils.sol\":2715:2731  DrugRegNoMapping */\n      0x03\n        /* \"contracts/Utils.sol\":2732:2743  DrugsRegNos */\n      0x04\n        /* \"contracts/Utils.sol\":2744:2745  i */\n      dup4\n        /* \"contracts/Utils.sol\":2732:2746  DrugsRegNos[i] */\n      dup2\n      sload\n      dup2\n      lt\n      tag_692\n      jumpi\n      tag_693\n      tag_114\n      jump\t// in\n    tag_693:\n    tag_692:\n      swap1\n      0x00\n      mstore\n      keccak256(0x00, 0x20)\n      add\n        /* \"contracts/Utils.sol\":2715:2747  DrugRegNoMapping[DrugsRegNos[i]] */\n      mload(0x40)\n      tag_695\n      swap2\n      swap1\n      tag_567\n      jump\t// in\n    tag_695:\n      swap1\n      dup2\n      mstore\n      0x20\n      add\n      mload(0x40)\n      dup1\n      swap2\n      sub\n      swap1\n      keccak256\n        /* \"contracts/Utils.sol\":2715:2760  DrugRegNoMapping[DrugsRegNos[i]].Manufacturer */\n      0x01\n      add\n      0x00\n      swap1\n      sload\n      swap1\n      0x0100\n      exp\n      swap1\n      div\n      0xffffffffffffffffffffffffffffffffffffffff\n      and\n        /* \"contracts/Utils.sol\":2715:2776  DrugRegNoMapping[DrugsRegNos[i]].Manufacturer == _useraddress */\n      0xffffffffffffffffffffffffffffffffffffffff\n      and\n      eq\n        /* \"contracts/Utils.sol\":2711:2890  if (DrugRegNoMapping[DrugsRegNos[i]].Manufacturer == _useraddress) {... */\n      iszero\n      tag_696\n      jumpi\n        /* \"contracts/Utils.sol\":2815:2831  DrugRegNoMapping */\n      0x03\n        /* \"contracts/Utils.sol\":2832:2843  DrugsRegNos */\n      0x04\n        /* \"contracts/Utils.sol\":2844:2845  i */\n      dup3\n        /* \"contracts/Utils.sol\":2832:2846  DrugsRegNos[i] */\n      dup2\n      sload\n      dup2\n      lt\n      tag_697\n      jumpi\n      tag_698\n      tag_114\n      jump\t// in\n    tag_698:\n    tag_697:\n      swap1\n      0x00\n      mstore\n      keccak256(0x00, 0x20)\n      add\n        /* \"contracts/Utils.sol\":2815:2847  DrugRegNoMapping[DrugsRegNos[i]] */\n      mload(0x40)\n      tag_700\n      swap2\n      swap1\n      tag_567\n      jump\t// in\n    tag_700:\n      swap1\n      dup2\n      mstore\n      0x20\n      add\n      mload(0x40)\n      dup1\n      swap2\n      sub\n      swap1\n      keccak256\n        /* \"contracts/Utils.sol\":2796:2847  drugsTemp[count] = DrugRegNoMapping[DrugsRegNos[i]] */\n      mload(0x40)\n      dup1\n      0x80\n      add\n      0x40\n      mstore\n      swap1\n      dup2\n      0x00\n      dup3\n      add\n      dup1\n      sload\n      tag_701\n      swap1\n      tag_123\n      jump\t// in\n    tag_701:\n      dup1\n      0x1f\n      add\n      0x20\n      dup1\n      swap2\n      div\n      mul\n      0x20\n      add\n      mload(0x40)\n      swap1\n      dup2\n      add\n      0x40\n      mstore\n      dup1\n      swap3\n      swap2\n      swap1\n      dup2\n      dup2\n      mstore\n      0x20\n      add\n      dup3\n      dup1\n      sload\n      tag_702\n      swap1\n      tag_123\n      jump\t// in\n    tag_702:\n      dup1\n      iszero\n      tag_703\n      jumpi\n      dup1\n      0x1f\n      lt\n      tag_704\n      jumpi\n      0x0100\n      dup1\n      dup4\n      sload\n      div\n      mul\n      dup4\n      mstore\n      swap2\n      0x20\n      add\n      swap2\n      jump(tag_703)\n    tag_704:\n      dup3\n      add\n      swap2\n      swap1\n      0x00\n      mstore\n      keccak256(0x00, 0x20)\n      swap1\n    tag_705:\n      dup2\n      sload\n      dup2\n      mstore\n      swap1\n      0x01\n      add\n      swap1\n      0x20\n      add\n      dup1\n      dup4\n      gt\n      tag_705\n      jumpi\n      dup3\n      swap1\n      sub\n      0x1f\n      and\n      dup3\n      add\n      swap2\n    tag_703:\n      pop\n      pop\n      pop\n      pop\n      pop\n      dup2\n      mstore\n      0x20\n      add\n      0x01\n      dup3\n      add\n      0x00\n      swap1\n      sload\n      swap1\n      0x0100\n      exp\n      swap1\n      div\n      0xffffffffffffffffffffffffffffffffffffffff\n      and\n      0xffffffffffffffffffffffffffffffffffffffff\n      and\n      0xffffffffffffffffffffffffffffffffffffffff\n      and\n      dup2\n      mstore\n      0x20\n      add\n      0x01\n      dup3\n      add\n      0x14\n      swap1\n      sload\n      swap1\n      0x0100\n      exp\n      swap1\n      div\n      0xff\n      and\n      0x02\n      dup2\n      gt\n      iszero\n      tag_706\n      jumpi\n      tag_707\n      tag_111\n      jump\t// in\n    tag_707:\n    tag_706:\n      0x02\n      dup2\n      gt\n      iszero\n      tag_708\n      jumpi\n      tag_709\n      tag_111\n      jump\t// in\n    tag_709:\n    tag_708:\n      dup2\n      mstore\n      0x20\n      add\n      0x02\n      dup3\n      add\n      dup1\n      sload\n      tag_710\n      swap1\n      tag_123\n      jump\t// in\n    tag_710:\n      dup1\n      0x1f\n      add\n      0x20\n      dup1\n      swap2\n      div\n      mul\n      0x20\n      add\n      mload(0x40)\n      swap1\n      dup2\n      add\n      0x40\n      mstore\n      dup1\n      swap3\n      swap2\n      swap1\n      dup2\n      dup2\n      mstore\n      0x20\n      add\n      dup3\n      dup1\n      sload\n      tag_711\n      swap1\n      tag_123\n      jump\t// in\n    tag_711:\n      dup1\n      iszero\n      tag_712\n      jumpi\n      dup1\n      0x1f\n      lt\n      tag_713\n      jumpi\n      0x0100\n      dup1\n      dup4\n      sload\n      div\n      mul\n      dup4\n      mstore\n      swap2\n      0x20\n      add\n      swap2\n      jump(tag_712)\n    tag_713:\n      dup3\n      add\n      swap2\n      swap1\n      0x00\n      mstore\n      keccak256(0x00, 0x20)\n      swap1\n    tag_714:\n      dup2\n      sload\n      dup2\n      mstore\n      swap1\n      0x01\n      add\n      swap1\n      0x20\n      add\n      dup1\n      dup4\n      gt\n      tag_714\n      jumpi\n      dup3\n      swap1\n      sub\n      0x1f\n      and\n      dup3\n      add\n      swap2\n    tag_712:\n      pop\n      pop\n      pop\n      pop\n      pop\n      dup2\n      mstore\n      pop\n      pop\n        /* \"contracts/Utils.sol\":2796:2805  drugsTemp */\n      dup4\n        /* \"contracts/Utils.sol\":2806:2811  count */\n      dup4\n        /* \"contracts/Utils.sol\":2796:2812  drugsTemp[count] */\n      dup2\n      mload\n      dup2\n      lt\n      tag_715\n      jumpi\n      tag_716\n      tag_114\n      jump\t// in\n    tag_716:\n    tag_715:\n      0x20\n      mul\n      0x20\n      add\n      add\n        /* \"contracts/Utils.sol\":2796:2847  drugsTemp[count] = DrugRegNoMapping[DrugsRegNos[i]] */\n      dup2\n      swap1\n      mstore\n      pop\n        /* \"contracts/Utils.sol\":2874:2875  1 */\n      0x01\n        /* \"contracts/Utils.sol\":2865:2875  count += 1 */\n      dup3\n      tag_717\n      swap2\n      swap1\n      tag_154\n      jump\t// in\n    tag_717:\n      swap2\n      pop\n        /* \"contracts/Utils.sol\":2711:2890  if (DrugRegNoMapping[DrugsRegNos[i]].Manufacturer == _useraddress) {... */\n    tag_696:\n        /* \"contracts/Utils.sol\":2692:2695  i++ */\n      dup1\n      dup1\n      tag_718\n      swap1\n      tag_156\n      jump\t// in\n    tag_718:\n      swap2\n      pop\n      pop\n        /* \"contracts/Utils.sol\":2656:2900  for (uint256 i = 0; i < drugsCount; i++) {... */\n      jump(tag_689)\n    tag_690:\n      pop\n        /* \"contracts/Utils.sol\":2933:2938  count */\n      dup1\n        /* \"contracts/Utils.sol\":2922:2939  new Drug[](count) */\n      0xffffffffffffffff\n      dup2\n      gt\n      iszero\n      tag_719\n      jumpi\n      tag_720\n      tag_101\n      jump\t// in\n    tag_720:\n    tag_719:\n      mload(0x40)\n      swap1\n      dup1\n      dup3\n      mstore\n      dup1\n      0x20\n      mul\n      0x20\n      add\n      dup3\n      add\n      0x40\n      mstore\n      dup1\n      iszero\n      tag_721\n      jumpi\n      dup2\n      0x20\n      add\n    tag_722:\n      tag_723\n      tag_557\n      jump\t// in\n    tag_723:\n      dup2\n      mstore\n      0x20\n      add\n      swap1\n      0x01\n      swap1\n      sub\n      swap1\n      dup2\n      tag_722\n      jumpi\n      swap1\n      pop\n    tag_721:\n      pop\n        /* \"contracts/Utils.sol\":2910:2939  DrugsList = new Drug[](count) */\n      swap4\n      pop\n        /* \"contracts/Utils.sol\":2954:2963  uint256 i */\n      0x00\n        /* \"contracts/Utils.sol\":2949:3037  for (uint256 i = 0; i < count; i++) {... */\n    tag_724:\n        /* \"contracts/Utils.sol\":2973:2978  count */\n      dup2\n        /* \"contracts/Utils.sol\":2969:2970  i */\n      dup2\n        /* \"contracts/Utils.sol\":2969:2978  i < count */\n      lt\n        /* \"contracts/Utils.sol\":2949:3037  for (uint256 i = 0; i < count; i++) {... */\n      iszero\n      tag_725\n      jumpi\n        /* \"contracts/Utils.sol\":3014:3023  drugsTemp */\n      dup3\n        /* \"contracts/Utils.sol\":3024:3025  i */\n      dup2\n        /* \"contracts/Utils.sol\":3014:3026  drugsTemp[i] */\n      dup2\n      mload\n      dup2\n      lt\n      tag_727\n      jumpi\n      tag_728\n      tag_114\n      jump\t// in\n    tag_728:\n    tag_727:\n      0x20\n      mul\n      0x20\n      add\n      add\n      mload\n        /* \"contracts/Utils.sol\":2999:3008  DrugsList */\n      dup6\n        /* \"contracts/Utils.sol\":3009:3010  i */\n      dup3\n        /* \"contracts/Utils.sol\":2999:3011  DrugsList[i] */\n      dup2\n      mload\n      dup2\n      lt\n      tag_729\n      jumpi\n      tag_730\n      tag_114\n      jump\t// in\n    tag_730:\n    tag_729:\n      0x20\n      mul\n      0x20\n      add\n      add\n        /* \"contracts/Utils.sol\":2999:3026  DrugsList[i] = drugsTemp[i] */\n      dup2\n      swap1\n      mstore\n      pop\n        /* \"contracts/Utils.sol\":2980:2983  i++ */\n      dup1\n      dup1\n      tag_731\n      swap1\n      tag_156\n      jump\t// in\n    tag_731:\n      swap2\n      pop\n      pop\n        /* \"contracts/Utils.sol\":2949:3037  for (uint256 i = 0; i < count; i++) {... */\n      jump(tag_724)\n    tag_725:\n      pop\n        /* \"contracts/Utils.sol\":2516:3043  {... */\n      pop\n      pop\n      pop\n        /* \"contracts/Utils.sol\":2395:3043  function ReadDrugsByUser(address _useraddress)... */\n      swap2\n      swap1\n      pop\n      jump\t// out\n    tag_105:\n      mload(0x40)\n      dup1\n      0xe0\n      add\n      0x40\n      mstore\n      dup1\n      0x60\n      dup2\n      mstore\n      0x20\n      add\n      0x60\n      dup2\n      mstore\n      0x20\n      add\n      0x00\n      0x08\n      dup2\n      gt\n      iszero\n      tag_732\n      jumpi\n      tag_733\n      tag_111\n      jump\t// in\n    tag_733:\n    tag_732:\n      dup2\n      mstore\n      0x20\n      add\n      0x00\n      0x02\n      dup2\n      gt\n      iszero\n      tag_734\n      jumpi\n      tag_735\n      tag_111\n      jump\t// in\n    tag_735:\n    tag_734:\n      dup2\n      mstore\n      0x20\n      add\n      0x60\n      dup2\n      mstore\n      0x20\n      add\n      0x60\n      dup2\n      mstore\n      0x20\n      add\n      and(0xffffffffffffffffffffffffffffffffffffffff, 0x00)\n      dup2\n      mstore\n      pop\n      swap1\n      jump\t// out\n    tag_188:\n      mload(0x40)\n      dup1\n      0xe0\n      add\n      0x40\n      mstore\n      dup1\n      0x60\n      dup2\n      mstore\n      0x20\n      add\n      0x60\n      dup2\n      mstore\n      0x20\n      add\n      0x00\n      dup2\n      mstore\n      0x20\n      add\n      and(0xffffffffffffffffffffffffffffffffffffffff, 0x00)\n      dup2\n      mstore\n      0x20\n      add\n      and(0xffffffffffffffffffffffffffffffffffffffff, 0x00)\n      dup2\n      mstore\n      0x20\n      add\n      0x00\n      dup2\n      mstore\n      0x20\n      add\n      0x00\n      dup2\n      mstore\n      pop\n      swap1\n      jump\t// out\n    tag_302:\n      mload(0x40)\n      dup1\n      0x0160\n      add\n      0x40\n      mstore\n      dup1\n      0x60\n      dup2\n      mstore\n      0x20\n      add\n      0x60\n      dup2\n      mstore\n      0x20\n      add\n      0x00\n      dup2\n      mstore\n      0x20\n      add\n      and(0xffffffffffffffffffffffffffffffffffffffff, 0x00)\n      dup2\n      mstore\n      0x20\n      add\n      0x60\n      dup2\n      mstore\n      0x20\n      add\n      0x00\n      0x08\n      dup2\n      gt\n      iszero\n      tag_736\n      jumpi\n      tag_737\n      tag_111\n      jump\t// in\n    tag_737:\n    tag_736:\n      dup2\n      mstore\n      0x20\n      add\n      and(0xffffffffffffffffffffffffffffffffffffffff, 0x00)\n      dup2\n      mstore\n      0x20\n      add\n      0x60\n      dup2\n      mstore\n      0x20\n      add\n      0x00\n      0x08\n      dup2\n      gt\n      iszero\n      tag_738\n      jumpi\n      tag_739\n      tag_111\n      jump\t// in\n    tag_739:\n    tag_738:\n      dup2\n      mstore\n      0x20\n      add\n      0x00\n      dup2\n      mstore\n      0x20\n      add\n      0x00\n      dup2\n      mstore\n      pop\n      swap1\n      jump\t// out\n    tag_557:\n      mload(0x40)\n      dup1\n      0x80\n      add\n      0x40\n      mstore\n      dup1\n      0x60\n      dup2\n      mstore\n      0x20\n      add\n      and(0xffffffffffffffffffffffffffffffffffffffff, 0x00)\n      dup2\n      mstore\n      0x20\n      add\n      0x00\n      0x02\n      dup2\n      gt\n      iszero\n      tag_740\n      jumpi\n      tag_741\n      tag_111\n      jump\t// in\n    tag_741:\n    tag_740:\n      dup2\n      mstore\n      0x20\n      add\n      0x60\n      dup2\n      mstore\n      pop\n      swap1\n      jump\t// out\n    tag_598:\n      mload(0x40)\n      dup1\n      0xa0\n      add\n      0x40\n      mstore\n      dup1\n      0x60\n      dup2\n      mstore\n      0x20\n      add\n      and(0xffffffffffffffffffffffffffffffffffffffff, 0x00)\n      dup2\n      mstore\n      0x20\n      add\n      0x00\n      0x02\n      dup2\n      gt\n      iszero\n      tag_742\n      jumpi\n      tag_743\n      tag_111\n      jump\t// in\n    tag_743:\n    tag_742:\n      dup2\n      mstore\n      0x20\n      add\n      0x60\n      dup2\n      mstore\n      0x20\n      add\n      0x60\n      dup2\n      mstore\n      pop\n      swap1\n      jump\t// out\n        /* \"#utility.yul\":7:419   */\n    tag_745:\n        /* \"#utility.yul\":85:90   */\n      0x00\n        /* \"#utility.yul\":110:176   */\n      tag_747\n        /* \"#utility.yul\":126:175   */\n      tag_748\n        /* \"#utility.yul\":168:174   */\n      dup5\n        /* \"#utility.yul\":126:175   */\n      tag_749\n      jump\t// in\n    tag_748:\n        /* \"#utility.yul\":110:176   */\n      tag_750\n      jump\t// in\n    tag_747:\n        /* \"#utility.yul\":101:176   */\n      swap1\n      pop\n        /* \"#utility.yul\":199:205   */\n      dup3\n        /* \"#utility.yul\":192:197   */\n      dup2\n        /* \"#utility.yul\":185:206   */\n      mstore\n        /* \"#utility.yul\":237:241   */\n      0x20\n        /* \"#utility.yul\":230:235   */\n      dup2\n        /* \"#utility.yul\":226:242   */\n      add\n        /* \"#utility.yul\":275:278   */\n      dup5\n        /* \"#utility.yul\":266:272   */\n      dup5\n        /* \"#utility.yul\":261:264   */\n      dup5\n        /* \"#utility.yul\":257:273   */\n      add\n        /* \"#utility.yul\":254:279   */\n      gt\n        /* \"#utility.yul\":251:363   */\n      iszero\n      tag_751\n      jumpi\n        /* \"#utility.yul\":282:361   */\n      tag_752\n      tag_753\n      jump\t// in\n    tag_752:\n        /* \"#utility.yul\":251:363   */\n    tag_751:\n        /* \"#utility.yul\":372:413   */\n      tag_754\n        /* \"#utility.yul\":406:412   */\n      dup5\n        /* \"#utility.yul\":401:404   */\n      dup3\n        /* \"#utility.yul\":396:399   */\n      dup6\n        /* \"#utility.yul\":372:413   */\n      tag_755\n      jump\t// in\n    tag_754:\n        /* \"#utility.yul\":91:419   */\n      pop\n        /* \"#utility.yul\":7:419   */\n      swap4\n      swap3\n      pop\n      pop\n      pop\n      jump\t// out\n        /* \"#utility.yul\":425:564   */\n    tag_756:\n        /* \"#utility.yul\":471:476   */\n      0x00\n        /* \"#utility.yul\":509:515   */\n      dup2\n        /* \"#utility.yul\":496:516   */\n      calldataload\n        /* \"#utility.yul\":487:516   */\n      swap1\n      pop\n        /* \"#utility.yul\":525:558   */\n      tag_758\n        /* \"#utility.yul\":552:557   */\n      dup2\n        /* \"#utility.yul\":525:558   */\n      tag_759\n      jump\t// in\n    tag_758:\n        /* \"#utility.yul\":425:564   */\n      swap3\n      swap2\n      pop\n      pop\n      jump\t// out\n        /* \"#utility.yul\":570:729   */\n    tag_760:\n        /* \"#utility.yul\":626:631   */\n      0x00\n        /* \"#utility.yul\":664:670   */\n      dup2\n        /* \"#utility.yul\":651:671   */\n      calldataload\n        /* \"#utility.yul\":642:671   */\n      swap1\n      pop\n        /* \"#utility.yul\":680:723   */\n      tag_762\n        /* \"#utility.yul\":717:722   */\n      dup2\n        /* \"#utility.yul\":680:723   */\n      tag_763\n      jump\t// in\n    tag_762:\n        /* \"#utility.yul\":570:729   */\n      swap3\n      swap2\n      pop\n      pop\n      jump\t// out\n        /* \"#utility.yul\":735:898   */\n    tag_764:\n        /* \"#utility.yul\":793:798   */\n      0x00\n        /* \"#utility.yul\":831:837   */\n      dup2\n        /* \"#utility.yul\":818:838   */\n      calldataload\n        /* \"#utility.yul\":809:838   */\n      swap1\n      pop\n        /* \"#utility.yul\":847:892   */\n      tag_766\n        /* \"#utility.yul\":886:891   */\n      dup2\n        /* \"#utility.yul\":847:892   */\n      tag_767\n      jump\t// in\n    tag_766:\n        /* \"#utility.yul\":735:898   */\n      swap3\n      swap2\n      pop\n      pop\n      jump\t// out\n        /* \"#utility.yul\":918:1258   */\n    tag_768:\n        /* \"#utility.yul\":974:979   */\n      0x00\n        /* \"#utility.yul\":1023:1026   */\n      dup3\n        /* \"#utility.yul\":1016:1020   */\n      0x1f\n        /* \"#utility.yul\":1008:1014   */\n      dup4\n        /* \"#utility.yul\":1004:1021   */\n      add\n        /* \"#utility.yul\":1000:1027   */\n      slt\n        /* \"#utility.yul\":990:1112   */\n      tag_770\n      jumpi\n        /* \"#utility.yul\":1031:1110   */\n      tag_771\n      tag_772\n      jump\t// in\n    tag_771:\n        /* \"#utility.yul\":990:1112   */\n    tag_770:\n        /* \"#utility.yul\":1148:1154   */\n      dup2\n        /* \"#utility.yul\":1135:1155   */\n      calldataload\n        /* \"#utility.yul\":1173:1252   */\n      tag_773\n        /* \"#utility.yul\":1248:1251   */\n      dup5\n        /* \"#utility.yul\":1240:1246   */\n      dup3\n        /* \"#utility.yul\":1233:1237   */\n      0x20\n        /* \"#utility.yul\":1225:1231   */\n      dup7\n        /* \"#utility.yul\":1221:1238   */\n      add\n        /* \"#utility.yul\":1173:1252   */\n      tag_745\n      jump\t// in\n    tag_773:\n        /* \"#utility.yul\":1164:1252   */\n      swap2\n      pop\n        /* \"#utility.yul\":980:1258   */\n      pop\n        /* \"#utility.yul\":918:1258   */\n      swap3\n      swap2\n      pop\n      pop\n      jump\t// out\n        /* \"#utility.yul\":1264:1403   */\n    tag_774:\n        /* \"#utility.yul\":1310:1315   */\n      0x00\n        /* \"#utility.yul\":1348:1354   */\n      dup2\n        /* \"#utility.yul\":1335:1355   */\n      calldataload\n        /* \"#utility.yul\":1326:1355   */\n      swap1\n      pop\n        /* \"#utility.yul\":1364:1397   */\n      tag_776\n        /* \"#utility.yul\":1391:1396   */\n      dup2\n        /* \"#utility.yul\":1364:1397   */\n      tag_777\n      jump\t// in\n    tag_776:\n        /* \"#utility.yul\":1264:1403   */\n      swap3\n      swap2\n      pop\n      pop\n      jump\t// out\n        /* \"#utility.yul\":1409:1738   */\n    tag_66:\n        /* \"#utility.yul\":1468:1474   */\n      0x00\n        /* \"#utility.yul\":1517:1519   */\n      0x20\n        /* \"#utility.yul\":1505:1514   */\n      dup3\n        /* \"#utility.yul\":1496:1503   */\n      dup5\n        /* \"#utility.yul\":1492:1515   */\n      sub\n        /* \"#utility.yul\":1488:1520   */\n      slt\n        /* \"#utility.yul\":1485:1604   */\n      iszero\n      tag_779\n      jumpi\n        /* \"#utility.yul\":1523:1602   */\n      tag_780\n      tag_781\n      jump\t// in\n    tag_780:\n        /* \"#utility.yul\":1485:1604   */\n    tag_779:\n        /* \"#utility.yul\":1643:1644   */\n      0x00\n        /* \"#utility.yul\":1668:1721   */\n      tag_782\n        /* \"#utility.yul\":1713:1720   */\n      dup5\n        /* \"#utility.yul\":1704:1710   */\n      dup3\n        /* \"#utility.yul\":1693:1702   */\n      dup6\n        /* \"#utility.yul\":1689:1711   */\n      add\n        /* \"#utility.yul\":1668:1721   */\n      tag_756\n      jump\t// in\n    tag_782:\n        /* \"#utility.yul\":1658:1721   */\n      swap2\n      pop\n        /* \"#utility.yul\":1614:1731   */\n      pop\n        /* \"#utility.yul\":1409:1738   */\n      swap3\n      swap2\n      pop\n      pop\n      jump\t// out\n        /* \"#utility.yul\":1744:2093   */\n    tag_61:\n        /* \"#utility.yul\":1813:1819   */\n      0x00\n        /* \"#utility.yul\":1862:1864   */\n      0x20\n        /* \"#utility.yul\":1850:1859   */\n      dup3\n        /* \"#utility.yul\":1841:1848   */\n      dup5\n        /* \"#utility.yul\":1837:1860   */\n      sub\n        /* \"#utility.yul\":1833:1865   */\n      slt\n        /* \"#utility.yul\":1830:1949   */\n      iszero\n      tag_784\n      jumpi\n        /* \"#utility.yul\":1868:1947   */\n      tag_785\n      tag_781\n      jump\t// in\n    tag_785:\n        /* \"#utility.yul\":1830:1949   */\n    tag_784:\n        /* \"#utility.yul\":1988:1989   */\n      0x00\n        /* \"#utility.yul\":2013:2076   */\n      tag_786\n        /* \"#utility.yul\":2068:2075   */\n      dup5\n        /* \"#utility.yul\":2059:2065   */\n      dup3\n        /* \"#utility.yul\":2048:2057   */\n      dup6\n        /* \"#utility.yul\":2044:2066   */\n      add\n        /* \"#utility.yul\":2013:2076   */\n      tag_760\n      jump\t// in\n    tag_786:\n        /* \"#utility.yul\":2003:2076   */\n      swap2\n      pop\n        /* \"#utility.yul\":1959:2086   */\n      pop\n        /* \"#utility.yul\":1744:2093   */\n      swap3\n      swap2\n      pop\n      pop\n      jump\t// out\n        /* \"#utility.yul\":2099:2452   */\n    tag_23:\n        /* \"#utility.yul\":2170:2176   */\n      0x00\n        /* \"#utility.yul\":2219:2221   */\n      0x20\n        /* \"#utility.yul\":2207:2216   */\n      dup3\n        /* \"#utility.yul\":2198:2205   */\n      dup5\n        /* \"#utility.yul\":2194:2217   */\n      sub\n        /* \"#utility.yul\":2190:2222   */\n      slt\n        /* \"#utility.yul\":2187:2306   */\n      iszero\n      tag_788\n      jumpi\n        /* \"#utility.yul\":2225:2304   */\n      tag_789\n      tag_781\n      jump\t// in\n    tag_789:\n        /* \"#utility.yul\":2187:2306   */\n    tag_788:\n        /* \"#utility.yul\":2345:2346   */\n      0x00\n        /* \"#utility.yul\":2370:2435   */\n      tag_790\n        /* \"#utility.yul\":2427:2434   */\n      dup5\n        /* \"#utility.yul\":2418:2424   */\n      dup3\n        /* \"#utility.yul\":2407:2416   */\n      dup6\n        /* \"#utility.yul\":2403:2425   */\n      add\n        /* \"#utility.yul\":2370:2435   */\n      tag_764\n      jump\t// in\n    tag_790:\n        /* \"#utility.yul\":2360:2435   */\n      swap2\n      pop\n        /* \"#utility.yul\":2316:2445   */\n      pop\n        /* \"#utility.yul\":2099:2452   */\n      swap3\n      swap2\n      pop\n      pop\n      jump\t// out\n        /* \"#utility.yul\":2458:2967   */\n    tag_47:\n        /* \"#utility.yul\":2527:2533   */\n      0x00\n        /* \"#utility.yul\":2576:2578   */\n      0x20\n        /* \"#utility.yul\":2564:2573   */\n      dup3\n        /* \"#utility.yul\":2555:2562   */\n      dup5\n        /* \"#utility.yul\":2551:2574   */\n      sub\n        /* \"#utility.yul\":2547:2579   */\n      slt\n        /* \"#utility.yul\":2544:2663   */\n      iszero\n      tag_792\n      jumpi\n        /* \"#utility.yul\":2582:2661   */\n      tag_793\n      tag_781\n      jump\t// in\n    tag_793:\n        /* \"#utility.yul\":2544:2663   */\n    tag_792:\n        /* \"#utility.yul\":2730:2731   */\n      0x00\n        /* \"#utility.yul\":2719:2728   */\n      dup3\n        /* \"#utility.yul\":2715:2732   */\n      add\n        /* \"#utility.yul\":2702:2733   */\n      calldataload\n        /* \"#utility.yul\":2760:2778   */\n      0xffffffffffffffff\n        /* \"#utility.yul\":2752:2758   */\n      dup2\n        /* \"#utility.yul\":2749:2779   */\n      gt\n        /* \"#utility.yul\":2746:2863   */\n      iszero\n      tag_794\n      jumpi\n        /* \"#utility.yul\":2782:2861   */\n      tag_795\n      tag_796\n      jump\t// in\n    tag_795:\n        /* \"#utility.yul\":2746:2863   */\n    tag_794:\n        /* \"#utility.yul\":2887:2950   */\n      tag_797\n        /* \"#utility.yul\":2942:2949   */\n      dup5\n        /* \"#utility.yul\":2933:2939   */\n      dup3\n        /* \"#utility.yul\":2922:2931   */\n      dup6\n        /* \"#utility.yul\":2918:2940   */\n      add\n        /* \"#utility.yul\":2887:2950   */\n      tag_768\n      jump\t// in\n    tag_797:\n        /* \"#utility.yul\":2877:2950   */\n      swap2\n      pop\n        /* \"#utility.yul\":2673:2960   */\n      pop\n        /* \"#utility.yul\":2458:2967   */\n      swap3\n      swap2\n      pop\n      pop\n      jump\t// out\n        /* \"#utility.yul\":2973:3807   */\n    tag_41:\n        /* \"#utility.yul\":3061:3067   */\n      0x00\n        /* \"#utility.yul\":3069:3075   */\n      dup1\n        /* \"#utility.yul\":3118:3120   */\n      0x40\n        /* \"#utility.yul\":3106:3115   */\n      dup4\n        /* \"#utility.yul\":3097:3104   */\n      dup6\n        /* \"#utility.yul\":3093:3116   */\n      sub\n        /* \"#utility.yul\":3089:3121   */\n      slt\n        /* \"#utility.yul\":3086:3205   */\n      iszero\n      tag_799\n      jumpi\n        /* \"#utility.yul\":3124:3203   */\n      tag_800\n      tag_781\n      jump\t// in\n    tag_800:\n        /* \"#utility.yul\":3086:3205   */\n    tag_799:\n        /* \"#utility.yul\":3272:3273   */\n      0x00\n        /* \"#utility.yul\":3261:3270   */\n      dup4\n        /* \"#utility.yul\":3257:3274   */\n      add\n        /* \"#utility.yul\":3244:3275   */\n      calldataload\n        /* \"#utility.yul\":3302:3320   */\n      0xffffffffffffffff\n        /* \"#utility.yul\":3294:3300   */\n      dup2\n        /* \"#utility.yul\":3291:3321   */\n      gt\n        /* \"#utility.yul\":3288:3405   */\n      iszero\n      tag_801\n      jumpi\n        /* \"#utility.yul\":3324:3403   */\n      tag_802\n      tag_796\n      jump\t// in\n    tag_802:\n        /* \"#utility.yul\":3288:3405   */\n    tag_801:\n        /* \"#utility.yul\":3429:3492   */\n      tag_803\n        /* \"#utility.yul\":3484:3491   */\n      dup6\n        /* \"#utility.yul\":3475:3481   */\n      dup3\n        /* \"#utility.yul\":3464:3473   */\n      dup7\n        /* \"#utility.yul\":3460:3482   */\n      add\n        /* \"#utility.yul\":3429:3492   */\n      tag_768\n      jump\t// in\n    tag_803:\n        /* \"#utility.yul\":3419:3492   */\n      swap3\n      pop\n        /* \"#utility.yul\":3215:3502   */\n      pop\n        /* \"#utility.yul\":3569:3571   */\n      0x20\n        /* \"#utility.yul\":3558:3567   */\n      dup4\n        /* \"#utility.yul\":3554:3572   */\n      add\n        /* \"#utility.yul\":3541:3573   */\n      calldataload\n        /* \"#utility.yul\":3600:3618   */\n      0xffffffffffffffff\n        /* \"#utility.yul\":3592:3598   */\n      dup2\n        /* \"#utility.yul\":3589:3619   */\n      gt\n        /* \"#utility.yul\":3586:3703   */\n      iszero\n      tag_804\n      jumpi\n        /* \"#utility.yul\":3622:3701   */\n      tag_805\n      tag_796\n      jump\t// in\n    tag_805:\n        /* \"#utility.yul\":3586:3703   */\n    tag_804:\n        /* \"#utility.yul\":3727:3790   */\n      tag_806\n        /* \"#utility.yul\":3782:3789   */\n      dup6\n        /* \"#utility.yul\":3773:3779   */\n      dup3\n        /* \"#utility.yul\":3762:3771   */\n      dup7\n        /* \"#utility.yul\":3758:3780   */\n      add\n        /* \"#utility.yul\":3727:3790   */\n      tag_768\n      jump\t// in\n    tag_806:\n        /* \"#utility.yul\":3717:3790   */\n      swap2\n      pop\n        /* \"#utility.yul\":3512:3800   */\n      pop\n        /* \"#utility.yul\":2973:3807   */\n      swap3\n      pop\n      swap3\n      swap1\n      pop\n      jump\t// out\n        /* \"#utility.yul\":3813:4792   */\n    tag_35:\n        /* \"#utility.yul\":3910:3916   */\n      0x00\n        /* \"#utility.yul\":3918:3924   */\n      dup1\n        /* \"#utility.yul\":3926:3932   */\n      0x00\n        /* \"#utility.yul\":3975:3977   */\n      0x60\n        /* \"#utility.yul\":3963:3972   */\n      dup5\n        /* \"#utility.yul\":3954:3961   */\n      dup7\n        /* \"#utility.yul\":3950:3973   */\n      sub\n        /* \"#utility.yul\":3946:3978   */\n      slt\n        /* \"#utility.yul\":3943:4062   */\n      iszero\n      tag_808\n      jumpi\n        /* \"#utility.yul\":3981:4060   */\n      tag_809\n      tag_781\n      jump\t// in\n    tag_809:\n        /* \"#utility.yul\":3943:4062   */\n    tag_808:\n        /* \"#utility.yul\":4129:4130   */\n      0x00\n        /* \"#utility.yul\":4118:4127   */\n      dup5\n        /* \"#utility.yul\":4114:4131   */\n      add\n        /* \"#utility.yul\":4101:4132   */\n      calldataload\n        /* \"#utility.yul\":4159:4177   */\n      0xffffffffffffffff\n        /* \"#utility.yul\":4151:4157   */\n      dup2\n        /* \"#utility.yul\":4148:4178   */\n      gt\n        /* \"#utility.yul\":4145:4262   */\n      iszero\n      tag_810\n      jumpi\n        /* \"#utility.yul\":4181:4260   */\n      tag_811\n      tag_796\n      jump\t// in\n    tag_811:\n        /* \"#utility.yul\":4145:4262   */\n    tag_810:\n        /* \"#utility.yul\":4286:4349   */\n      tag_812\n        /* \"#utility.yul\":4341:4348   */\n      dup7\n        /* \"#utility.yul\":4332:4338   */\n      dup3\n        /* \"#utility.yul\":4321:4330   */\n      dup8\n        /* \"#utility.yul\":4317:4339   */\n      add\n        /* \"#utility.yul\":4286:4349   */\n      tag_768\n      jump\t// in\n    tag_812:\n        /* \"#utility.yul\":4276:4349   */\n      swap4\n      pop\n        /* \"#utility.yul\":4072:4359   */\n      pop\n        /* \"#utility.yul\":4426:4428   */\n      0x20\n        /* \"#utility.yul\":4415:4424   */\n      dup5\n        /* \"#utility.yul\":4411:4429   */\n      add\n        /* \"#utility.yul\":4398:4430   */\n      calldataload\n        /* \"#utility.yul\":4457:4475   */\n      0xffffffffffffffff\n        /* \"#utility.yul\":4449:4455   */\n      dup2\n        /* \"#utility.yul\":4446:4476   */\n      gt\n        /* \"#utility.yul\":4443:4560   */\n      iszero\n      tag_813\n      jumpi\n        /* \"#utility.yul\":4479:4558   */\n      tag_814\n      tag_796\n      jump\t// in\n    tag_814:\n        /* \"#utility.yul\":4443:4560   */\n    tag_813:\n        /* \"#utility.yul\":4584:4647   */\n      tag_815\n        /* \"#utility.yul\":4639:4646   */\n      dup7\n        /* \"#utility.yul\":4630:4636   */\n      dup3\n        /* \"#utility.yul\":4619:4628   */\n      dup8\n        /* \"#utility.yul\":4615:4637   */\n      add\n        /* \"#utility.yul\":4584:4647   */\n      tag_768\n      jump\t// in\n    tag_815:\n        /* \"#utility.yul\":4574:4647   */\n      swap3\n      pop\n        /* \"#utility.yul\":4369:4657   */\n      pop\n        /* \"#utility.yul\":4696:4698   */\n      0x40\n        /* \"#utility.yul\":4722:4775   */\n      tag_816\n        /* \"#utility.yul\":4767:4774   */\n      dup7\n        /* \"#utility.yul\":4758:4764   */\n      dup3\n        /* \"#utility.yul\":4747:4756   */\n      dup8\n        /* \"#utility.yul\":4743:4765   */\n      add\n        /* \"#utility.yul\":4722:4775   */\n      tag_756\n      jump\t// in\n    tag_816:\n        /* \"#utility.yul\":4712:4775   */\n      swap2\n      pop\n        /* \"#utility.yul\":4667:4785   */\n      pop\n        /* \"#utility.yul\":3813:4792   */\n      swap3\n      pop\n      swap3\n      pop\n      swap3\n      jump\t// out\n        /* \"#utility.yul\":4798:5127   */\n    tag_29:\n        /* \"#utility.yul\":4857:4863   */\n      0x00\n        /* \"#utility.yul\":4906:4908   */\n      0x20\n        /* \"#utility.yul\":4894:4903   */\n      dup3\n        /* \"#utility.yul\":4885:4892   */\n      dup5\n        /* \"#utility.yul\":4881:4904   */\n      sub\n        /* \"#utility.yul\":4877:4909   */\n      slt\n        /* \"#utility.yul\":4874:4993   */\n      iszero\n      tag_818\n      jumpi\n        /* \"#utility.yul\":4912:4991   */\n      tag_819\n      tag_781\n      jump\t// in\n    tag_819:\n        /* \"#utility.yul\":4874:4993   */\n    tag_818:\n        /* \"#utility.yul\":5032:5033   */\n      0x00\n        /* \"#utility.yul\":5057:5110   */\n      tag_820\n        /* \"#utility.yul\":5102:5109   */\n      dup5\n        /* \"#utility.yul\":5093:5099   */\n      dup3\n        /* \"#utility.yul\":5082:5091   */\n      dup6\n        /* \"#utility.yul\":5078:5100   */\n      add\n        /* \"#utility.yul\":5057:5110   */\n      tag_774\n      jump\t// in\n    tag_820:\n        /* \"#utility.yul\":5047:5110   */\n      swap2\n      pop\n        /* \"#utility.yul\":5003:5120   */\n      pop\n        /* \"#utility.yul\":4798:5127   */\n      swap3\n      swap2\n      pop\n      pop\n      jump\t// out\n        /* \"#utility.yul\":5133:5381   */\n    tag_821:\n        /* \"#utility.yul\":5248:5258   */\n      0x00\n        /* \"#utility.yul\":5283:5375   */\n      tag_823\n        /* \"#utility.yul\":5371:5374   */\n      dup4\n        /* \"#utility.yul\":5363:5369   */\n      dup4\n        /* \"#utility.yul\":5283:5375   */\n      tag_824\n      jump\t// in\n    tag_823:\n        /* \"#utility.yul\":5269:5375   */\n      swap1\n      pop\n        /* \"#utility.yul\":5133:5381   */\n      swap3\n      swap2\n      pop\n      pop\n      jump\t// out\n        /* \"#utility.yul\":5387:5623   */\n    tag_825:\n        /* \"#utility.yul\":5496:5506   */\n      0x00\n        /* \"#utility.yul\":5531:5617   */\n      tag_827\n        /* \"#utility.yul\":5613:5616   */\n      dup4\n        /* \"#utility.yul\":5605:5611   */\n      dup4\n        /* \"#utility.yul\":5531:5617   */\n      tag_828\n      jump\t// in\n    tag_827:\n        /* \"#utility.yul\":5517:5617   */\n      swap1\n      pop\n        /* \"#utility.yul\":5387:5623   */\n      swap3\n      swap2\n      pop\n      pop\n      jump\t// out\n        /* \"#utility.yul\":5629:5913   */\n    tag_829:\n        /* \"#utility.yul\":5762:5772   */\n      0x00\n        /* \"#utility.yul\":5797:5907   */\n      tag_831\n        /* \"#utility.yul\":5903:5906   */\n      dup4\n        /* \"#utility.yul\":5895:5901   */\n      dup4\n        /* \"#utility.yul\":5797:5907   */\n      tag_832\n      jump\t// in\n    tag_831:\n        /* \"#utility.yul\":5783:5907   */\n      swap1\n      pop\n        /* \"#utility.yul\":5629:5913   */\n      swap3\n      swap2\n      pop\n      pop\n      jump\t// out\n        /* \"#utility.yul\":5919:6243   */\n    tag_833:\n        /* \"#utility.yul\":6072:6082   */\n      0x00\n        /* \"#utility.yul\":6107:6237   */\n      tag_835\n        /* \"#utility.yul\":6233:6236   */\n      dup4\n        /* \"#utility.yul\":6225:6231   */\n      dup4\n        /* \"#utility.yul\":6107:6237   */\n      tag_836\n      jump\t// in\n    tag_835:\n        /* \"#utility.yul\":6093:6237   */\n      swap1\n      pop\n        /* \"#utility.yul\":5919:6243   */\n      swap3\n      swap2\n      pop\n      pop\n      jump\t// out\n        /* \"#utility.yul\":6249:6485   */\n    tag_837:\n        /* \"#utility.yul\":6358:6368   */\n      0x00\n        /* \"#utility.yul\":6393:6479   */\n      tag_839\n        /* \"#utility.yul\":6475:6478   */\n      dup4\n        /* \"#utility.yul\":6467:6473   */\n      dup4\n        /* \"#utility.yul\":6393:6479   */\n      tag_840\n      jump\t// in\n    tag_839:\n        /* \"#utility.yul\":6379:6479   */\n      swap1\n      pop\n        /* \"#utility.yul\":6249:6485   */\n      swap3\n      swap2\n      pop\n      pop\n      jump\t// out\n        /* \"#utility.yul\":6491:6599   */\n    tag_841:\n        /* \"#utility.yul\":6568:6592   */\n      tag_843\n        /* \"#utility.yul\":6586:6591   */\n      dup2\n        /* \"#utility.yul\":6568:6592   */\n      tag_844\n      jump\t// in\n    tag_843:\n        /* \"#utility.yul\":6563:6566   */\n      dup3\n        /* \"#utility.yul\":6556:6593   */\n      mstore\n        /* \"#utility.yul\":6491:6599   */\n      pop\n      pop\n      jump\t// out\n        /* \"#utility.yul\":6605:6723   */\n    tag_845:\n        /* \"#utility.yul\":6692:6716   */\n      tag_847\n        /* \"#utility.yul\":6710:6715   */\n      dup2\n        /* \"#utility.yul\":6692:6716   */\n      tag_844\n      jump\t// in\n    tag_847:\n        /* \"#utility.yul\":6687:6690   */\n      dup3\n        /* \"#utility.yul\":6680:6717   */\n      mstore\n        /* \"#utility.yul\":6605:6723   */\n      pop\n      pop\n      jump\t// out\n        /* \"#utility.yul\":6797:7892   */\n    tag_848:\n        /* \"#utility.yul\":6962:6965   */\n      0x00\n        /* \"#utility.yul\":6991:7068   */\n      tag_850\n        /* \"#utility.yul\":7062:7067   */\n      dup3\n        /* \"#utility.yul\":6991:7068   */\n      tag_851\n      jump\t// in\n    tag_850:\n        /* \"#utility.yul\":7084:7193   */\n      tag_852\n        /* \"#utility.yul\":7186:7192   */\n      dup2\n        /* \"#utility.yul\":7181:7184   */\n      dup6\n        /* \"#utility.yul\":7084:7193   */\n      tag_853\n      jump\t// in\n    tag_852:\n        /* \"#utility.yul\":7077:7193   */\n      swap4\n      pop\n        /* \"#utility.yul\":7219:7222   */\n      dup4\n        /* \"#utility.yul\":7264:7268   */\n      0x20\n        /* \"#utility.yul\":7256:7262   */\n      dup3\n        /* \"#utility.yul\":7252:7269   */\n      mul\n        /* \"#utility.yul\":7247:7250   */\n      dup6\n        /* \"#utility.yul\":7243:7270   */\n      add\n        /* \"#utility.yul\":7294:7373   */\n      tag_854\n        /* \"#utility.yul\":7367:7372   */\n      dup6\n        /* \"#utility.yul\":7294:7373   */\n      tag_855\n      jump\t// in\n    tag_854:\n        /* \"#utility.yul\":7396:7403   */\n      dup1\n        /* \"#utility.yul\":7427:7428   */\n      0x00\n        /* \"#utility.yul\":7412:7847   */\n    tag_856:\n        /* \"#utility.yul\":7437:7443   */\n      dup6\n        /* \"#utility.yul\":7434:7435   */\n      dup2\n        /* \"#utility.yul\":7431:7444   */\n      lt\n        /* \"#utility.yul\":7412:7847   */\n      iszero\n      tag_858\n      jumpi\n        /* \"#utility.yul\":7508:7517   */\n      dup5\n        /* \"#utility.yul\":7502:7506   */\n      dup5\n        /* \"#utility.yul\":7498:7518   */\n      sub\n        /* \"#utility.yul\":7493:7496   */\n      dup10\n        /* \"#utility.yul\":7486:7519   */\n      mstore\n        /* \"#utility.yul\":7559:7565   */\n      dup2\n        /* \"#utility.yul\":7553:7566   */\n      mload\n        /* \"#utility.yul\":7587:7697   */\n      tag_859\n        /* \"#utility.yul\":7692:7696   */\n      dup6\n        /* \"#utility.yul\":7677:7690   */\n      dup3\n        /* \"#utility.yul\":7587:7697   */\n      tag_821\n      jump\t// in\n    tag_859:\n        /* \"#utility.yul\":7579:7697   */\n      swap5\n      pop\n        /* \"#utility.yul\":7720:7803   */\n      tag_860\n        /* \"#utility.yul\":7796:7802   */\n      dup4\n        /* \"#utility.yul\":7720:7803   */\n      tag_861\n      jump\t// in\n    tag_860:\n        /* \"#utility.yul\":7710:7803   */\n      swap3\n      pop\n        /* \"#utility.yul\":7832:7836   */\n      0x20\n        /* \"#utility.yul\":7827:7830   */\n      dup11\n        /* \"#utility.yul\":7823:7837   */\n      add\n        /* \"#utility.yul\":7816:7837   */\n      swap10\n      pop\n        /* \"#utility.yul\":7472:7847   */\n      pop\n        /* \"#utility.yul\":7459:7460   */\n      0x01\n        /* \"#utility.yul\":7456:7457   */\n      dup2\n        /* \"#utility.yul\":7452:7461   */\n      add\n        /* \"#utility.yul\":7447:7461   */\n      swap1\n      pop\n        /* \"#utility.yul\":7412:7847   */\n      jump(tag_856)\n    tag_858:\n        /* \"#utility.yul\":7416:7430   */\n      pop\n        /* \"#utility.yul\":7863:7867   */\n      dup3\n        /* \"#utility.yul\":7856:7867   */\n      swap8\n      pop\n        /* \"#utility.yul\":7883:7886   */\n      dup8\n        /* \"#utility.yul\":7876:7886   */\n      swap6\n      pop\n        /* \"#utility.yul\":6967:7892   */\n      pop\n      pop\n      pop\n      pop\n      pop\n        /* \"#utility.yul\":6797:7892   */\n      swap3\n      swap2\n      pop\n      pop\n      jump\t// out\n        /* \"#utility.yul\":7960:9031   */\n    tag_862:\n        /* \"#utility.yul\":8119:8122   */\n      0x00\n        /* \"#utility.yul\":8148:8222   */\n      tag_864\n        /* \"#utility.yul\":8216:8221   */\n      dup3\n        /* \"#utility.yul\":8148:8222   */\n      tag_865\n      jump\t// in\n    tag_864:\n        /* \"#utility.yul\":8238:8344   */\n      tag_866\n        /* \"#utility.yul\":8337:8343   */\n      dup2\n        /* \"#utility.yul\":8332:8335   */\n      dup6\n        /* \"#utility.yul\":8238:8344   */\n      tag_867\n      jump\t// in\n    tag_866:\n        /* \"#utility.yul\":8231:8344   */\n      swap4\n      pop\n        /* \"#utility.yul\":8370:8373   */\n      dup4\n        /* \"#utility.yul\":8415:8419   */\n      0x20\n        /* \"#utility.yul\":8407:8413   */\n      dup3\n        /* \"#utility.yul\":8403:8420   */\n      mul\n        /* \"#utility.yul\":8398:8401   */\n      dup6\n        /* \"#utility.yul\":8394:8421   */\n      add\n        /* \"#utility.yul\":8445:8521   */\n      tag_868\n        /* \"#utility.yul\":8515:8520   */\n      dup6\n        /* \"#utility.yul\":8445:8521   */\n      tag_869\n      jump\t// in\n    tag_868:\n        /* \"#utility.yul\":8544:8551   */\n      dup1\n        /* \"#utility.yul\":8575:8576   */\n      0x00\n        /* \"#utility.yul\":8560:8986   */\n    tag_870:\n        /* \"#utility.yul\":8585:8591   */\n      dup6\n        /* \"#utility.yul\":8582:8583   */\n      dup2\n        /* \"#utility.yul\":8579:8592   */\n      lt\n        /* \"#utility.yul\":8560:8986   */\n      iszero\n      tag_872\n      jumpi\n        /* \"#utility.yul\":8656:8665   */\n      dup5\n        /* \"#utility.yul\":8650:8654   */\n      dup5\n        /* \"#utility.yul\":8646:8666   */\n      sub\n        /* \"#utility.yul\":8641:8644   */\n      dup10\n        /* \"#utility.yul\":8634:8667   */\n      mstore\n        /* \"#utility.yul\":8707:8713   */\n      dup2\n        /* \"#utility.yul\":8701:8714   */\n      mload\n        /* \"#utility.yul\":8735:8839   */\n      tag_873\n        /* \"#utility.yul\":8834:8838   */\n      dup6\n        /* \"#utility.yul\":8819:8832   */\n      dup3\n        /* \"#utility.yul\":8735:8839   */\n      tag_825\n      jump\t// in\n    tag_873:\n        /* \"#utility.yul\":8727:8839   */\n      swap5\n      pop\n        /* \"#utility.yul\":8862:8942   */\n      tag_874\n        /* \"#utility.yul\":8935:8941   */\n      dup4\n        /* \"#utility.yul\":8862:8942   */\n      tag_875\n      jump\t// in\n    tag_874:\n        /* \"#utility.yul\":8852:8942   */\n      swap3\n      pop\n        /* \"#utility.yul\":8971:8975   */\n      0x20\n        /* \"#utility.yul\":8966:8969   */\n      dup11\n        /* \"#utility.yul\":8962:8976   */\n      add\n        /* \"#utility.yul\":8955:8976   */\n      swap10\n      pop\n        /* \"#utility.yul\":8620:8986   */\n      pop\n        /* \"#utility.yul\":8607:8608   */\n      0x01\n        /* \"#utility.yul\":8604:8605   */\n      dup2\n        /* \"#utility.yul\":8600:8609   */\n      add\n        /* \"#utility.yul\":8595:8609   */\n      swap1\n      pop\n        /* \"#utility.yul\":8560:8986   */\n      jump(tag_870)\n    tag_872:\n        /* \"#utility.yul\":8564:8578   */\n      pop\n        /* \"#utility.yul\":9002:9006   */\n      dup3\n        /* \"#utility.yul\":8995:9006   */\n      swap8\n      pop\n        /* \"#utility.yul\":9022:9025   */\n      dup8\n        /* \"#utility.yul\":9015:9025   */\n      swap6\n      pop\n        /* \"#utility.yul\":8124:9031   */\n      pop\n      pop\n      pop\n      pop\n      pop\n        /* \"#utility.yul\":7960:9031   */\n      swap3\n      swap2\n      pop\n      pop\n      jump\t// out\n        /* \"#utility.yul\":9123:10290   */\n    tag_876:\n        /* \"#utility.yul\":9306:9309   */\n      0x00\n        /* \"#utility.yul\":9335:9421   */\n      tag_878\n        /* \"#utility.yul\":9415:9420   */\n      dup3\n        /* \"#utility.yul\":9335:9421   */\n      tag_879\n      jump\t// in\n    tag_878:\n        /* \"#utility.yul\":9437:9555   */\n      tag_880\n        /* \"#utility.yul\":9548:9554   */\n      dup2\n        /* \"#utility.yul\":9543:9546   */\n      dup6\n        /* \"#utility.yul\":9437:9555   */\n      tag_881\n      jump\t// in\n    tag_880:\n        /* \"#utility.yul\":9430:9555   */\n      swap4\n      pop\n        /* \"#utility.yul\":9581:9584   */\n      dup4\n        /* \"#utility.yul\":9626:9630   */\n      0x20\n        /* \"#utility.yul\":9618:9624   */\n      dup3\n        /* \"#utility.yul\":9614:9631   */\n      mul\n        /* \"#utility.yul\":9609:9612   */\n      dup6\n        /* \"#utility.yul\":9605:9632   */\n      add\n        /* \"#utility.yul\":9656:9744   */\n      tag_882\n        /* \"#utility.yul\":9738:9743   */\n      dup6\n        /* \"#utility.yul\":9656:9744   */\n      tag_883\n      jump\t// in\n    tag_882:\n        /* \"#utility.yul\":9767:9774   */\n      dup1\n        /* \"#utility.yul\":9798:9799   */\n      0x00\n        /* \"#utility.yul\":9783:10245   */\n    tag_884:\n        /* \"#utility.yul\":9808:9814   */\n      dup6\n        /* \"#utility.yul\":9805:9806   */\n      dup2\n        /* \"#utility.yul\":9802:9815   */\n      lt\n        /* \"#utility.yul\":9783:10245   */\n      iszero\n      tag_886\n      jumpi\n        /* \"#utility.yul\":9879:9888   */\n      dup5\n        /* \"#utility.yul\":9873:9877   */\n      dup5\n        /* \"#utility.yul\":9869:9889   */\n      sub\n        /* \"#utility.yul\":9864:9867   */\n      dup10\n        /* \"#utility.yul\":9857:9890   */\n      mstore\n        /* \"#utility.yul\":9930:9936   */\n      dup2\n        /* \"#utility.yul\":9924:9937   */\n      mload\n        /* \"#utility.yul\":9958:10086   */\n      tag_887\n        /* \"#utility.yul\":10081:10085   */\n      dup6\n        /* \"#utility.yul\":10066:10079   */\n      dup3\n        /* \"#utility.yul\":9958:10086   */\n      tag_829\n      jump\t// in\n    tag_887:\n        /* \"#utility.yul\":9950:10086   */\n      swap5\n      pop\n        /* \"#utility.yul\":10109:10201   */\n      tag_888\n        /* \"#utility.yul\":10194:10200   */\n      dup4\n        /* \"#utility.yul\":10109:10201   */\n      tag_889\n      jump\t// in\n    tag_888:\n        /* \"#utility.yul\":10099:10201   */\n      swap3\n      pop\n        /* \"#utility.yul\":10230:10234   */\n      0x20\n        /* \"#utility.yul\":10225:10228   */\n      dup11\n        /* \"#utility.yul\":10221:10235   */\n      add\n        /* \"#utility.yul\":10214:10235   */\n      swap10\n      pop\n        /* \"#utility.yul\":9843:10245   */\n      pop\n        /* \"#utility.yul\":9830:9831   */\n      0x01\n        /* \"#utility.yul\":9827:9828   */\n      dup2\n        /* \"#utility.yul\":9823:9832   */\n      add\n        /* \"#utility.yul\":9818:9832   */\n      swap1\n      pop\n        /* \"#utility.yul\":9783:10245   */\n      jump(tag_884)\n    tag_886:\n        /* \"#utility.yul\":9787:9801   */\n      pop\n        /* \"#utility.yul\":10261:10265   */\n      dup3\n        /* \"#utility.yul\":10254:10265   */\n      swap8\n      pop\n        /* \"#utility.yul\":10281:10284   */\n      dup8\n        /* \"#utility.yul\":10274:10284   */\n      swap6\n      pop\n        /* \"#utility.yul\":9311:10290   */\n      pop\n      pop\n      pop\n      pop\n      pop\n        /* \"#utility.yul\":9123:10290   */\n      swap3\n      swap2\n      pop\n      pop\n      jump\t// out\n        /* \"#utility.yul\":10400:11647   */\n    tag_890:\n        /* \"#utility.yul\":10603:10606   */\n      0x00\n        /* \"#utility.yul\":10632:10728   */\n      tag_892\n        /* \"#utility.yul\":10722:10727   */\n      dup3\n        /* \"#utility.yul\":10632:10728   */\n      tag_893\n      jump\t// in\n    tag_892:\n        /* \"#utility.yul\":10744:10872   */\n      tag_894\n        /* \"#utility.yul\":10865:10871   */\n      dup2\n        /* \"#utility.yul\":10860:10863   */\n      dup6\n        /* \"#utility.yul\":10744:10872   */\n      tag_895\n      jump\t// in\n    tag_894:\n        /* \"#utility.yul\":10737:10872   */\n      swap4\n      pop\n        /* \"#utility.yul\":10898:10901   */\n      dup4\n        /* \"#utility.yul\":10943:10947   */\n      0x20\n        /* \"#utility.yul\":10935:10941   */\n      dup3\n        /* \"#utility.yul\":10931:10948   */\n      mul\n        /* \"#utility.yul\":10926:10929   */\n      dup6\n        /* \"#utility.yul\":10922:10949   */\n      add\n        /* \"#utility.yul\":10973:11071   */\n      tag_896\n        /* \"#utility.yul\":11065:11070   */\n      dup6\n        /* \"#utility.yul\":10973:11071   */\n      tag_897\n      jump\t// in\n    tag_896:\n        /* \"#utility.yul\":11094:11101   */\n      dup1\n        /* \"#utility.yul\":11125:11126   */\n      0x00\n        /* \"#utility.yul\":11110:11602   */\n    tag_898:\n        /* \"#utility.yul\":11135:11141   */\n      dup6\n        /* \"#utility.yul\":11132:11133   */\n      dup2\n        /* \"#utility.yul\":11129:11142   */\n      lt\n        /* \"#utility.yul\":11110:11602   */\n      iszero\n      tag_900\n      jumpi\n        /* \"#utility.yul\":11206:11215   */\n      dup5\n        /* \"#utility.yul\":11200:11204   */\n      dup5\n        /* \"#utility.yul\":11196:11216   */\n      sub\n        /* \"#utility.yul\":11191:11194   */\n      dup10\n        /* \"#utility.yul\":11184:11217   */\n      mstore\n        /* \"#utility.yul\":11257:11263   */\n      dup2\n        /* \"#utility.yul\":11251:11264   */\n      mload\n        /* \"#utility.yul\":11285:11433   */\n      tag_901\n        /* \"#utility.yul\":11428:11432   */\n      dup6\n        /* \"#utility.yul\":11413:11426   */\n      dup3\n        /* \"#utility.yul\":11285:11433   */\n      tag_833\n      jump\t// in\n    tag_901:\n        /* \"#utility.yul\":11277:11433   */\n      swap5\n      pop\n        /* \"#utility.yul\":11456:11558   */\n      tag_902\n        /* \"#utility.yul\":11551:11557   */\n      dup4\n        /* \"#utility.yul\":11456:11558   */\n      tag_903\n      jump\t// in\n    tag_902:\n        /* \"#utility.yul\":11446:11558   */\n      swap3\n      pop\n        /* \"#utility.yul\":11587:11591   */\n      0x20\n        /* \"#utility.yul\":11582:11585   */\n      dup11\n        /* \"#utility.yul\":11578:11592   */\n      add\n        /* \"#utility.yul\":11571:11592   */\n      swap10\n      pop\n        /* \"#utility.yul\":11170:11602   */\n      pop\n        /* \"#utility.yul\":11157:11158   */\n      0x01\n        /* \"#utility.yul\":11154:11155   */\n      dup2\n        /* \"#utility.yul\":11150:11159   */\n      add\n        /* \"#utility.yul\":11145:11159   */\n      swap1\n      pop\n        /* \"#utility.yul\":11110:11602   */\n      jump(tag_898)\n    tag_900:\n        /* \"#utility.yul\":11114:11128   */\n      pop\n        /* \"#utility.yul\":11618:11622   */\n      dup3\n        /* \"#utility.yul\":11611:11622   */\n      swap8\n      pop\n        /* \"#utility.yul\":11638:11641   */\n      dup8\n        /* \"#utility.yul\":11631:11641   */\n      swap6\n      pop\n        /* \"#utility.yul\":10608:11647   */\n      pop\n      pop\n      pop\n      pop\n      pop\n        /* \"#utility.yul\":10400:11647   */\n      swap3\n      swap2\n      pop\n      pop\n      jump\t// out\n        /* \"#utility.yul\":11715:12786   */\n    tag_904:\n        /* \"#utility.yul\":11874:11877   */\n      0x00\n        /* \"#utility.yul\":11903:11977   */\n      tag_906\n        /* \"#utility.yul\":11971:11976   */\n      dup3\n        /* \"#utility.yul\":11903:11977   */\n      tag_907\n      jump\t// in\n    tag_906:\n        /* \"#utility.yul\":11993:12099   */\n      tag_908\n        /* \"#utility.yul\":12092:12098   */\n      dup2\n        /* \"#utility.yul\":12087:12090   */\n      dup6\n        /* \"#utility.yul\":11993:12099   */\n      tag_909\n      jump\t// in\n    tag_908:\n        /* \"#utility.yul\":11986:12099   */\n      swap4\n      pop\n        /* \"#utility.yul\":12125:12128   */\n      dup4\n        /* \"#utility.yul\":12170:12174   */\n      0x20\n        /* \"#utility.yul\":12162:12168   */\n      dup3\n        /* \"#utility.yul\":12158:12175   */\n      mul\n        /* \"#utility.yul\":12153:12156   */\n      dup6\n        /* \"#utility.yul\":12149:12176   */\n      add\n        /* \"#utility.yul\":12200:12276   */\n      tag_910\n        /* \"#utility.yul\":12270:12275   */\n      dup6\n        /* \"#utility.yul\":12200:12276   */\n      tag_911\n      jump\t// in\n    tag_910:\n        /* \"#utility.yul\":12299:12306   */\n      dup1\n        /* \"#utility.yul\":12330:12331   */\n      0x00\n        /* \"#utility.yul\":12315:12741   */\n    tag_912:\n        /* \"#utility.yul\":12340:12346   */\n      dup6\n        /* \"#utility.yul\":12337:12338   */\n      dup2\n        /* \"#utility.yul\":12334:12347   */\n      lt\n        /* \"#utility.yul\":12315:12741   */\n      iszero\n      tag_914\n      jumpi\n        /* \"#utility.yul\":12411:12420   */\n      dup5\n        /* \"#utility.yul\":12405:12409   */\n      dup5\n        /* \"#utility.yul\":12401:12421   */\n      sub\n        /* \"#utility.yul\":12396:12399   */\n      dup10\n        /* \"#utility.yul\":12389:12422   */\n      mstore\n        /* \"#utility.yul\":12462:12468   */\n      dup2\n        /* \"#utility.yul\":12456:12469   */\n      mload\n        /* \"#utility.yul\":12490:12594   */\n      tag_915\n        /* \"#utility.yul\":12589:12593   */\n      dup6\n        /* \"#utility.yul\":12574:12587   */\n      dup3\n        /* \"#utility.yul\":12490:12594   */\n      tag_837\n      jump\t// in\n    tag_915:\n        /* \"#utility.yul\":12482:12594   */\n      swap5\n      pop\n        /* \"#utility.yul\":12617:12697   */\n      tag_916\n        /* \"#utility.yul\":12690:12696   */\n      dup4\n        /* \"#utility.yul\":12617:12697   */\n      tag_917\n      jump\t// in\n    tag_916:\n        /* \"#utility.yul\":12607:12697   */\n      swap3\n      pop\n        /* \"#utility.yul\":12726:12730   */\n      0x20\n        /* \"#utility.yul\":12721:12724   */\n      dup11\n        /* \"#utility.yul\":12717:12731   */\n      add\n        /* \"#utility.yul\":12710:12731   */\n      swap10\n      pop\n        /* \"#utility.yul\":12375:12741   */\n      pop\n        /* \"#utility.yul\":12362:12363   */\n      0x01\n        /* \"#utility.yul\":12359:12360   */\n      dup2\n        /* \"#utility.yul\":12355:12364   */\n      add\n        /* \"#utility.yul\":12350:12364   */\n      swap1\n      pop\n        /* \"#utility.yul\":12315:12741   */\n      jump(tag_912)\n    tag_914:\n        /* \"#utility.yul\":12319:12333   */\n      pop\n        /* \"#utility.yul\":12757:12761   */\n      dup3\n        /* \"#utility.yul\":12750:12761   */\n      swap8\n      pop\n        /* \"#utility.yul\":12777:12780   */\n      dup8\n        /* \"#utility.yul\":12770:12780   */\n      swap6\n      pop\n        /* \"#utility.yul\":11879:12786   */\n      pop\n      pop\n      pop\n      pop\n      pop\n        /* \"#utility.yul\":11715:12786   */\n      swap3\n      swap2\n      pop\n      pop\n      jump\t// out\n        /* \"#utility.yul\":12792:12901   */\n    tag_918:\n        /* \"#utility.yul\":12873:12894   */\n      tag_920\n        /* \"#utility.yul\":12888:12893   */\n      dup2\n        /* \"#utility.yul\":12873:12894   */\n      tag_921\n      jump\t// in\n    tag_920:\n        /* \"#utility.yul\":12868:12871   */\n      dup3\n        /* \"#utility.yul\":12861:12895   */\n      mstore\n        /* \"#utility.yul\":12792:12901   */\n      pop\n      pop\n      jump\t// out\n        /* \"#utility.yul\":12907:13044   */\n    tag_922:\n        /* \"#utility.yul\":12992:13037   */\n      tag_924\n        /* \"#utility.yul\":13031:13036   */\n      dup2\n        /* \"#utility.yul\":12992:13037   */\n      tag_925\n      jump\t// in\n    tag_924:\n        /* \"#utility.yul\":12987:12990   */\n      dup3\n        /* \"#utility.yul\":12980:13038   */\n      mstore\n        /* \"#utility.yul\":12907:13044   */\n      pop\n      pop\n      jump\t// out\n        /* \"#utility.yul\":13050:13191   */\n    tag_926:\n        /* \"#utility.yul\":13137:13184   */\n      tag_928\n        /* \"#utility.yul\":13178:13183   */\n      dup2\n        /* \"#utility.yul\":13137:13184   */\n      tag_929\n      jump\t// in\n    tag_928:\n        /* \"#utility.yul\":13132:13135   */\n      dup3\n        /* \"#utility.yul\":13125:13185   */\n      mstore\n        /* \"#utility.yul\":13050:13191   */\n      pop\n      pop\n      jump\t// out\n        /* \"#utility.yul\":13197:13348   */\n    tag_930:\n        /* \"#utility.yul\":13294:13341   */\n      tag_932\n        /* \"#utility.yul\":13335:13340   */\n      dup2\n        /* \"#utility.yul\":13294:13341   */\n      tag_929\n      jump\t// in\n    tag_932:\n        /* \"#utility.yul\":13289:13292   */\n      dup3\n        /* \"#utility.yul\":13282:13342   */\n      mstore\n        /* \"#utility.yul\":13197:13348   */\n      pop\n      pop\n      jump\t// out\n        /* \"#utility.yul\":13354:13698   */\n    tag_933:\n        /* \"#utility.yul\":13432:13435   */\n      0x00\n        /* \"#utility.yul\":13460:13499   */\n      tag_935\n        /* \"#utility.yul\":13493:13498   */\n      dup3\n        /* \"#utility.yul\":13460:13499   */\n      tag_936\n      jump\t// in\n    tag_935:\n        /* \"#utility.yul\":13515:13576   */\n      tag_937\n        /* \"#utility.yul\":13569:13575   */\n      dup2\n        /* \"#utility.yul\":13564:13567   */\n      dup6\n        /* \"#utility.yul\":13515:13576   */\n      tag_938\n      jump\t// in\n    tag_937:\n        /* \"#utility.yul\":13508:13576   */\n      swap4\n      pop\n        /* \"#utility.yul\":13585:13637   */\n      tag_939\n        /* \"#utility.yul\":13630:13636   */\n      dup2\n        /* \"#utility.yul\":13625:13628   */\n      dup6\n        /* \"#utility.yul\":13618:13622   */\n      0x20\n        /* \"#utility.yul\":13611:13616   */\n      dup7\n        /* \"#utility.yul\":13607:13623   */\n      add\n        /* \"#utility.yul\":13585:13637   */\n      tag_940\n      jump\t// in\n    tag_939:\n        /* \"#utility.yul\":13662:13691   */\n      tag_941\n        /* \"#utility.yul\":13684:13690   */\n      dup2\n        /* \"#utility.yul\":13662:13691   */\n      tag_942\n      jump\t// in\n    tag_941:\n        /* \"#utility.yul\":13657:13660   */\n      dup5\n        /* \"#utility.yul\":13653:13692   */\n      add\n        /* \"#utility.yul\":13646:13692   */\n      swap2\n      pop\n        /* \"#utility.yul\":13436:13698   */\n      pop\n        /* \"#utility.yul\":13354:13698   */\n      swap3\n      swap2\n      pop\n      pop\n      jump\t// out\n        /* \"#utility.yul\":13704:14068   */\n    tag_943:\n        /* \"#utility.yul\":13792:13795   */\n      0x00\n        /* \"#utility.yul\":13820:13859   */\n      tag_945\n        /* \"#utility.yul\":13853:13858   */\n      dup3\n        /* \"#utility.yul\":13820:13859   */\n      tag_936\n      jump\t// in\n    tag_945:\n        /* \"#utility.yul\":13875:13946   */\n      tag_946\n        /* \"#utility.yul\":13939:13945   */\n      dup2\n        /* \"#utility.yul\":13934:13937   */\n      dup6\n        /* \"#utility.yul\":13875:13946   */\n      tag_947\n      jump\t// in\n    tag_946:\n        /* \"#utility.yul\":13868:13946   */\n      swap4\n      pop\n        /* \"#utility.yul\":13955:14007   */\n      tag_948\n        /* \"#utility.yul\":14000:14006   */\n      dup2\n        /* \"#utility.yul\":13995:13998   */\n      dup6\n        /* \"#utility.yul\":13988:13992   */\n      0x20\n        /* \"#utility.yul\":13981:13986   */\n      dup7\n        /* \"#utility.yul\":13977:13993   */\n      add\n        /* \"#utility.yul\":13955:14007   */\n      tag_940\n      jump\t// in\n    tag_948:\n        /* \"#utility.yul\":14032:14061   */\n      tag_949\n        /* \"#utility.yul\":14054:14060   */\n      dup2\n        /* \"#utility.yul\":14032:14061   */\n      tag_942\n      jump\t// in\n    tag_949:\n        /* \"#utility.yul\":14027:14030   */\n      dup5\n        /* \"#utility.yul\":14023:14062   */\n      add\n        /* \"#utility.yul\":14016:14062   */\n      swap2\n      pop\n        /* \"#utility.yul\":13796:14068   */\n      pop\n        /* \"#utility.yul\":13704:14068   */\n      swap3\n      swap2\n      pop\n      pop\n      jump\t// out\n        /* \"#utility.yul\":14074:14451   */\n    tag_950:\n        /* \"#utility.yul\":14180:14183   */\n      0x00\n        /* \"#utility.yul\":14208:14247   */\n      tag_952\n        /* \"#utility.yul\":14241:14246   */\n      dup3\n        /* \"#utility.yul\":14208:14247   */\n      tag_936\n      jump\t// in\n    tag_952:\n        /* \"#utility.yul\":14263:14352   */\n      tag_953\n        /* \"#utility.yul\":14345:14351   */\n      dup2\n        /* \"#utility.yul\":14340:14343   */\n      dup6\n        /* \"#utility.yul\":14263:14352   */\n      tag_954\n      jump\t// in\n    tag_953:\n        /* \"#utility.yul\":14256:14352   */\n      swap4\n      pop\n        /* \"#utility.yul\":14361:14413   */\n      tag_955\n        /* \"#utility.yul\":14406:14412   */\n      dup2\n        /* \"#utility.yul\":14401:14404   */\n      dup6\n        /* \"#utility.yul\":14394:14398   */\n      0x20\n        /* \"#utility.yul\":14387:14392   */\n      dup7\n        /* \"#utility.yul\":14383:14399   */\n      add\n        /* \"#utility.yul\":14361:14413   */\n      tag_940\n      jump\t// in\n    tag_955:\n        /* \"#utility.yul\":14438:14444   */\n      dup1\n        /* \"#utility.yul\":14433:14436   */\n      dup5\n        /* \"#utility.yul\":14429:14445   */\n      add\n        /* \"#utility.yul\":14422:14445   */\n      swap2\n      pop\n        /* \"#utility.yul\":14184:14451   */\n      pop\n        /* \"#utility.yul\":14074:14451   */\n      swap3\n      swap2\n      pop\n      pop\n      jump\t// out\n        /* \"#utility.yul\":14481:15326   */\n    tag_956:\n        /* \"#utility.yul\":14584:14587   */\n      0x00\n        /* \"#utility.yul\":14621:14626   */\n      dup2\n        /* \"#utility.yul\":14615:14627   */\n      sload\n        /* \"#utility.yul\":14650:14686   */\n      tag_958\n        /* \"#utility.yul\":14676:14685   */\n      dup2\n        /* \"#utility.yul\":14650:14686   */\n      tag_123\n      jump\t// in\n    tag_958:\n        /* \"#utility.yul\":14702:14791   */\n      tag_959\n        /* \"#utility.yul\":14784:14790   */\n      dup2\n        /* \"#utility.yul\":14779:14782   */\n      dup7\n        /* \"#utility.yul\":14702:14791   */\n      tag_954\n      jump\t// in\n    tag_959:\n        /* \"#utility.yul\":14695:14791   */\n      swap5\n      pop\n        /* \"#utility.yul\":14822:14823   */\n      0x01\n        /* \"#utility.yul\":14811:14820   */\n      dup3\n        /* \"#utility.yul\":14807:14824   */\n      and\n        /* \"#utility.yul\":14838:14839   */\n      0x00\n        /* \"#utility.yul\":14833:14970   */\n      dup2\n      eq\n      tag_961\n      jumpi\n        /* \"#utility.yul\":14984:14985   */\n      0x01\n        /* \"#utility.yul\":14979:15320   */\n      dup2\n      eq\n      tag_962\n      jumpi\n        /* \"#utility.yul\":14800:15320   */\n      jump(tag_960)\n        /* \"#utility.yul\":14833:14970   */\n    tag_961:\n        /* \"#utility.yul\":14917:14921   */\n      0xff\n        /* \"#utility.yul\":14913:14922   */\n      not\n        /* \"#utility.yul\":14902:14911   */\n      dup4\n        /* \"#utility.yul\":14898:14923   */\n      and\n        /* \"#utility.yul\":14893:14896   */\n      dup7\n        /* \"#utility.yul\":14886:14924   */\n      mstore\n        /* \"#utility.yul\":14953:14959   */\n      dup2\n        /* \"#utility.yul\":14948:14951   */\n      dup7\n        /* \"#utility.yul\":14944:14960   */\n      add\n        /* \"#utility.yul\":14937:14960   */\n      swap4\n      pop\n        /* \"#utility.yul\":14833:14970   */\n      jump(tag_960)\n        /* \"#utility.yul\":14979:15320   */\n    tag_962:\n        /* \"#utility.yul\":15046:15084   */\n      tag_963\n        /* \"#utility.yul\":15078:15083   */\n      dup6\n        /* \"#utility.yul\":15046:15084   */\n      tag_964\n      jump\t// in\n    tag_963:\n        /* \"#utility.yul\":15106:15107   */\n      0x00\n        /* \"#utility.yul\":15120:15274   */\n    tag_965:\n        /* \"#utility.yul\":15134:15140   */\n      dup4\n        /* \"#utility.yul\":15131:15132   */\n      dup2\n        /* \"#utility.yul\":15128:15141   */\n      lt\n        /* \"#utility.yul\":15120:15274   */\n      iszero\n      tag_967\n      jumpi\n        /* \"#utility.yul\":15208:15215   */\n      dup2\n        /* \"#utility.yul\":15202:15216   */\n      sload\n        /* \"#utility.yul\":15198:15199   */\n      dup2\n        /* \"#utility.yul\":15193:15196   */\n      dup10\n        /* \"#utility.yul\":15189:15200   */\n      add\n        /* \"#utility.yul\":15182:15217   */\n      mstore\n        /* \"#utility.yul\":15258:15259   */\n      0x01\n        /* \"#utility.yul\":15249:15256   */\n      dup3\n        /* \"#utility.yul\":15245:15260   */\n      add\n        /* \"#utility.yul\":15234:15260   */\n      swap2\n      pop\n        /* \"#utility.yul\":15156:15160   */\n      0x20\n        /* \"#utility.yul\":15153:15154   */\n      dup2\n        /* \"#utility.yul\":15149:15161   */\n      add\n        /* \"#utility.yul\":15144:15161   */\n      swap1\n      pop\n        /* \"#utility.yul\":15120:15274   */\n      jump(tag_965)\n    tag_967:\n        /* \"#utility.yul\":15303:15309   */\n      dup4\n        /* \"#utility.yul\":15298:15301   */\n      dup9\n        /* \"#utility.yul\":15294:15310   */\n      add\n        /* \"#utility.yul\":15287:15310   */\n      swap6\n      pop\n        /* \"#utility.yul\":14986:15320   */\n      pop\n      pop\n        /* \"#utility.yul\":14800:15320   */\n    tag_960:\n      pop\n        /* \"#utility.yul\":14588:15326   */\n      pop\n      pop\n        /* \"#utility.yul\":14481:15326   */\n      swap3\n      swap2\n      pop\n      pop\n      jump\t// out\n        /* \"#utility.yul\":15396:16686   */\n    tag_824:\n        /* \"#utility.yul\":15501:15504   */\n      0x00\n        /* \"#utility.yul\":15537:15541   */\n      0xa0\n        /* \"#utility.yul\":15532:15535   */\n      dup4\n        /* \"#utility.yul\":15528:15542   */\n      add\n        /* \"#utility.yul\":15628:15632   */\n      0x00\n        /* \"#utility.yul\":15621:15626   */\n      dup4\n        /* \"#utility.yul\":15617:15633   */\n      add\n        /* \"#utility.yul\":15611:15634   */\n      mload\n        /* \"#utility.yul\":15681:15684   */\n      dup5\n        /* \"#utility.yul\":15675:15679   */\n      dup3\n        /* \"#utility.yul\":15671:15685   */\n      sub\n        /* \"#utility.yul\":15664:15668   */\n      0x00\n        /* \"#utility.yul\":15659:15662   */\n      dup7\n        /* \"#utility.yul\":15655:15669   */\n      add\n        /* \"#utility.yul\":15648:15686   */\n      mstore\n        /* \"#utility.yul\":15707:15780   */\n      tag_969\n        /* \"#utility.yul\":15775:15779   */\n      dup3\n        /* \"#utility.yul\":15761:15773   */\n      dup3\n        /* \"#utility.yul\":15707:15780   */\n      tag_933\n      jump\t// in\n    tag_969:\n        /* \"#utility.yul\":15699:15780   */\n      swap2\n      pop\n        /* \"#utility.yul\":15552:15791   */\n      pop\n        /* \"#utility.yul\":15881:15885   */\n      0x20\n        /* \"#utility.yul\":15874:15879   */\n      dup4\n        /* \"#utility.yul\":15870:15886   */\n      add\n        /* \"#utility.yul\":15864:15887   */\n      mload\n        /* \"#utility.yul\":15900:15963   */\n      tag_970\n        /* \"#utility.yul\":15957:15961   */\n      0x20\n        /* \"#utility.yul\":15952:15955   */\n      dup7\n        /* \"#utility.yul\":15948:15962   */\n      add\n        /* \"#utility.yul\":15934:15946   */\n      dup3\n        /* \"#utility.yul\":15900:15963   */\n      tag_841\n      jump\t// in\n    tag_970:\n        /* \"#utility.yul\":15801:15973   */\n      pop\n        /* \"#utility.yul\":16061:16065   */\n      0x40\n        /* \"#utility.yul\":16054:16059   */\n      dup4\n        /* \"#utility.yul\":16050:16066   */\n      add\n        /* \"#utility.yul\":16044:16067   */\n      mload\n        /* \"#utility.yul\":16080:16151   */\n      tag_971\n        /* \"#utility.yul\":16145:16149   */\n      0x40\n        /* \"#utility.yul\":16140:16143   */\n      dup7\n        /* \"#utility.yul\":16136:16150   */\n      add\n        /* \"#utility.yul\":16122:16134   */\n      dup3\n        /* \"#utility.yul\":16080:16151   */\n      tag_922\n      jump\t// in\n    tag_971:\n        /* \"#utility.yul\":15983:16161   */\n      pop\n        /* \"#utility.yul\":16248:16252   */\n      0x60\n        /* \"#utility.yul\":16241:16246   */\n      dup4\n        /* \"#utility.yul\":16237:16253   */\n      add\n        /* \"#utility.yul\":16231:16254   */\n      mload\n        /* \"#utility.yul\":16301:16304   */\n      dup5\n        /* \"#utility.yul\":16295:16299   */\n      dup3\n        /* \"#utility.yul\":16291:16305   */\n      sub\n        /* \"#utility.yul\":16284:16288   */\n      0x60\n        /* \"#utility.yul\":16279:16282   */\n      dup7\n        /* \"#utility.yul\":16275:16289   */\n      add\n        /* \"#utility.yul\":16268:16306   */\n      mstore\n        /* \"#utility.yul\":16327:16400   */\n      tag_972\n        /* \"#utility.yul\":16395:16399   */\n      dup3\n        /* \"#utility.yul\":16381:16393   */\n      dup3\n        /* \"#utility.yul\":16327:16400   */\n      tag_933\n      jump\t// in\n    tag_972:\n        /* \"#utility.yul\":16319:16400   */\n      swap2\n      pop\n        /* \"#utility.yul\":16171:16411   */\n      pop\n        /* \"#utility.yul\":16496:16500   */\n      0x80\n        /* \"#utility.yul\":16489:16494   */\n      dup4\n        /* \"#utility.yul\":16485:16501   */\n      add\n        /* \"#utility.yul\":16479:16502   */\n      mload\n        /* \"#utility.yul\":16549:16552   */\n      dup5\n        /* \"#utility.yul\":16543:16547   */\n      dup3\n        /* \"#utility.yul\":16539:16553   */\n      sub\n        /* \"#utility.yul\":16532:16536   */\n      0x80\n        /* \"#utility.yul\":16527:16530   */\n      dup7\n        /* \"#utility.yul\":16523:16537   */\n      add\n        /* \"#utility.yul\":16516:16554   */\n      mstore\n        /* \"#utility.yul\":16575:16648   */\n      tag_973\n        /* \"#utility.yul\":16643:16647   */\n      dup3\n        /* \"#utility.yul\":16629:16641   */\n      dup3\n        /* \"#utility.yul\":16575:16648   */\n      tag_933\n      jump\t// in\n    tag_973:\n        /* \"#utility.yul\":16567:16648   */\n      swap2\n      pop\n        /* \"#utility.yul\":16421:16659   */\n      pop\n        /* \"#utility.yul\":16676:16680   */\n      dup1\n        /* \"#utility.yul\":16669:16680   */\n      swap2\n      pop\n        /* \"#utility.yul\":15506:16686   */\n      pop\n        /* \"#utility.yul\":15396:16686   */\n      swap3\n      swap2\n      pop\n      pop\n      jump\t// out\n        /* \"#utility.yul\":16750:17786   */\n    tag_828:\n        /* \"#utility.yul\":16849:16852   */\n      0x00\n        /* \"#utility.yul\":16885:16889   */\n      0x80\n        /* \"#utility.yul\":16880:16883   */\n      dup4\n        /* \"#utility.yul\":16876:16890   */\n      add\n        /* \"#utility.yul\":16976:16980   */\n      0x00\n        /* \"#utility.yul\":16969:16974   */\n      dup4\n        /* \"#utility.yul\":16965:16981   */\n      add\n        /* \"#utility.yul\":16959:16982   */\n      mload\n        /* \"#utility.yul\":17029:17032   */\n      dup5\n        /* \"#utility.yul\":17023:17027   */\n      dup3\n        /* \"#utility.yul\":17019:17033   */\n      sub\n        /* \"#utility.yul\":17012:17016   */\n      0x00\n        /* \"#utility.yul\":17007:17010   */\n      dup7\n        /* \"#utility.yul\":17003:17017   */\n      add\n        /* \"#utility.yul\":16996:17034   */\n      mstore\n        /* \"#utility.yul\":17055:17128   */\n      tag_975\n        /* \"#utility.yul\":17123:17127   */\n      dup3\n        /* \"#utility.yul\":17109:17121   */\n      dup3\n        /* \"#utility.yul\":17055:17128   */\n      tag_933\n      jump\t// in\n    tag_975:\n        /* \"#utility.yul\":17047:17128   */\n      swap2\n      pop\n        /* \"#utility.yul\":16900:17139   */\n      pop\n        /* \"#utility.yul\":17229:17233   */\n      0x20\n        /* \"#utility.yul\":17222:17227   */\n      dup4\n        /* \"#utility.yul\":17218:17234   */\n      add\n        /* \"#utility.yul\":17212:17235   */\n      mload\n        /* \"#utility.yul\":17248:17311   */\n      tag_976\n        /* \"#utility.yul\":17305:17309   */\n      0x20\n        /* \"#utility.yul\":17300:17303   */\n      dup7\n        /* \"#utility.yul\":17296:17310   */\n      add\n        /* \"#utility.yul\":17282:17294   */\n      dup3\n        /* \"#utility.yul\":17248:17311   */\n      tag_841\n      jump\t// in\n    tag_976:\n        /* \"#utility.yul\":17149:17321   */\n      pop\n        /* \"#utility.yul\":17409:17413   */\n      0x40\n        /* \"#utility.yul\":17402:17407   */\n      dup4\n        /* \"#utility.yul\":17398:17414   */\n      add\n        /* \"#utility.yul\":17392:17415   */\n      mload\n        /* \"#utility.yul\":17428:17499   */\n      tag_977\n        /* \"#utility.yul\":17493:17497   */\n      0x40\n        /* \"#utility.yul\":17488:17491   */\n      dup7\n        /* \"#utility.yul\":17484:17498   */\n      add\n        /* \"#utility.yul\":17470:17482   */\n      dup3\n        /* \"#utility.yul\":17428:17499   */\n      tag_922\n      jump\t// in\n    tag_977:\n        /* \"#utility.yul\":17331:17509   */\n      pop\n        /* \"#utility.yul\":17596:17600   */\n      0x60\n        /* \"#utility.yul\":17589:17594   */\n      dup4\n        /* \"#utility.yul\":17585:17601   */\n      add\n        /* \"#utility.yul\":17579:17602   */\n      mload\n        /* \"#utility.yul\":17649:17652   */\n      dup5\n        /* \"#utility.yul\":17643:17647   */\n      dup3\n        /* \"#utility.yul\":17639:17653   */\n      sub\n        /* \"#utility.yul\":17632:17636   */\n      0x60\n        /* \"#utility.yul\":17627:17630   */\n      dup7\n        /* \"#utility.yul\":17623:17637   */\n      add\n        /* \"#utility.yul\":17616:17654   */\n      mstore\n        /* \"#utility.yul\":17675:17748   */\n      tag_978\n        /* \"#utility.yul\":17743:17747   */\n      dup3\n        /* \"#utility.yul\":17729:17741   */\n      dup3\n        /* \"#utility.yul\":17675:17748   */\n      tag_933\n      jump\t// in\n    tag_978:\n        /* \"#utility.yul\":17667:17748   */\n      swap2\n      pop\n        /* \"#utility.yul\":17519:17759   */\n      pop\n        /* \"#utility.yul\":17776:17780   */\n      dup1\n        /* \"#utility.yul\":17769:17780   */\n      swap2\n      pop\n        /* \"#utility.yul\":16854:17786   */\n      pop\n        /* \"#utility.yul\":16750:17786   */\n      swap3\n      swap2\n      pop\n      pop\n      jump\t// out\n        /* \"#utility.yul\":17850:18896   */\n    tag_979:\n        /* \"#utility.yul\":17959:17962   */\n      0x00\n        /* \"#utility.yul\":17995:17999   */\n      0x80\n        /* \"#utility.yul\":17990:17993   */\n      dup4\n        /* \"#utility.yul\":17986:18000   */\n      add\n        /* \"#utility.yul\":18086:18090   */\n      0x00\n        /* \"#utility.yul\":18079:18084   */\n      dup4\n        /* \"#utility.yul\":18075:18091   */\n      add\n        /* \"#utility.yul\":18069:18092   */\n      mload\n        /* \"#utility.yul\":18139:18142   */\n      dup5\n        /* \"#utility.yul\":18133:18137   */\n      dup3\n        /* \"#utility.yul\":18129:18143   */\n      sub\n        /* \"#utility.yul\":18122:18126   */\n      0x00\n        /* \"#utility.yul\":18117:18120   */\n      dup7\n        /* \"#utility.yul\":18113:18127   */\n      add\n        /* \"#utility.yul\":18106:18144   */\n      mstore\n        /* \"#utility.yul\":18165:18238   */\n      tag_981\n        /* \"#utility.yul\":18233:18237   */\n      dup3\n        /* \"#utility.yul\":18219:18231   */\n      dup3\n        /* \"#utility.yul\":18165:18238   */\n      tag_933\n      jump\t// in\n    tag_981:\n        /* \"#utility.yul\":18157:18238   */\n      swap2\n      pop\n        /* \"#utility.yul\":18010:18249   */\n      pop\n        /* \"#utility.yul\":18339:18343   */\n      0x20\n        /* \"#utility.yul\":18332:18337   */\n      dup4\n        /* \"#utility.yul\":18328:18344   */\n      add\n        /* \"#utility.yul\":18322:18345   */\n      mload\n        /* \"#utility.yul\":18358:18421   */\n      tag_982\n        /* \"#utility.yul\":18415:18419   */\n      0x20\n        /* \"#utility.yul\":18410:18413   */\n      dup7\n        /* \"#utility.yul\":18406:18420   */\n      add\n        /* \"#utility.yul\":18392:18404   */\n      dup3\n        /* \"#utility.yul\":18358:18421   */\n      tag_841\n      jump\t// in\n    tag_982:\n        /* \"#utility.yul\":18259:18431   */\n      pop\n        /* \"#utility.yul\":18519:18523   */\n      0x40\n        /* \"#utility.yul\":18512:18517   */\n      dup4\n        /* \"#utility.yul\":18508:18524   */\n      add\n        /* \"#utility.yul\":18502:18525   */\n      mload\n        /* \"#utility.yul\":18538:18609   */\n      tag_983\n        /* \"#utility.yul\":18603:18607   */\n      0x40\n        /* \"#utility.yul\":18598:18601   */\n      dup7\n        /* \"#utility.yul\":18594:18608   */\n      add\n        /* \"#utility.yul\":18580:18592   */\n      dup3\n        /* \"#utility.yul\":18538:18609   */\n      tag_922\n      jump\t// in\n    tag_983:\n        /* \"#utility.yul\":18441:18619   */\n      pop\n        /* \"#utility.yul\":18706:18710   */\n      0x60\n        /* \"#utility.yul\":18699:18704   */\n      dup4\n        /* \"#utility.yul\":18695:18711   */\n      add\n        /* \"#utility.yul\":18689:18712   */\n      mload\n        /* \"#utility.yul\":18759:18762   */\n      dup5\n        /* \"#utility.yul\":18753:18757   */\n      dup3\n        /* \"#utility.yul\":18749:18763   */\n      sub\n        /* \"#utility.yul\":18742:18746   */\n      0x60\n        /* \"#utility.yul\":18737:18740   */\n      dup7\n        /* \"#utility.yul\":18733:18747   */\n      add\n        /* \"#utility.yul\":18726:18764   */\n      mstore\n        /* \"#utility.yul\":18785:18858   */\n      tag_984\n        /* \"#utility.yul\":18853:18857   */\n      dup3\n        /* \"#utility.yul\":18839:18851   */\n      dup3\n        /* \"#utility.yul\":18785:18858   */\n      tag_933\n      jump\t// in\n    tag_984:\n        /* \"#utility.yul\":18777:18858   */\n      swap2\n      pop\n        /* \"#utility.yul\":18629:18869   */\n      pop\n        /* \"#utility.yul\":18886:18890   */\n      dup1\n        /* \"#utility.yul\":18879:18890   */\n      swap2\n      pop\n        /* \"#utility.yul\":17964:18896   */\n      pop\n        /* \"#utility.yul\":17850:18896   */\n      swap3\n      swap2\n      pop\n      pop\n      jump\t// out\n        /* \"#utility.yul\":18984:20560   */\n    tag_832:\n        /* \"#utility.yul\":19107:19110   */\n      0x00\n        /* \"#utility.yul\":19143:19147   */\n      0xe0\n        /* \"#utility.yul\":19138:19141   */\n      dup4\n        /* \"#utility.yul\":19134:19148   */\n      add\n        /* \"#utility.yul\":19235:19239   */\n      0x00\n        /* \"#utility.yul\":19228:19233   */\n      dup4\n        /* \"#utility.yul\":19224:19240   */\n      add\n        /* \"#utility.yul\":19218:19241   */\n      mload\n        /* \"#utility.yul\":19288:19291   */\n      dup5\n        /* \"#utility.yul\":19282:19286   */\n      dup3\n        /* \"#utility.yul\":19278:19292   */\n      sub\n        /* \"#utility.yul\":19271:19275   */\n      0x00\n        /* \"#utility.yul\":19266:19269   */\n      dup7\n        /* \"#utility.yul\":19262:19276   */\n      add\n        /* \"#utility.yul\":19255:19293   */\n      mstore\n        /* \"#utility.yul\":19314:19387   */\n      tag_986\n        /* \"#utility.yul\":19382:19386   */\n      dup3\n        /* \"#utility.yul\":19368:19380   */\n      dup3\n        /* \"#utility.yul\":19314:19387   */\n      tag_933\n      jump\t// in\n    tag_986:\n        /* \"#utility.yul\":19306:19387   */\n      swap2\n      pop\n        /* \"#utility.yul\":19158:19398   */\n      pop\n        /* \"#utility.yul\":19483:19487   */\n      0x20\n        /* \"#utility.yul\":19476:19481   */\n      dup4\n        /* \"#utility.yul\":19472:19488   */\n      add\n        /* \"#utility.yul\":19466:19489   */\n      mload\n        /* \"#utility.yul\":19536:19539   */\n      dup5\n        /* \"#utility.yul\":19530:19534   */\n      dup3\n        /* \"#utility.yul\":19526:19540   */\n      sub\n        /* \"#utility.yul\":19519:19523   */\n      0x20\n        /* \"#utility.yul\":19514:19517   */\n      dup7\n        /* \"#utility.yul\":19510:19524   */\n      add\n        /* \"#utility.yul\":19503:19541   */\n      mstore\n        /* \"#utility.yul\":19562:19635   */\n      tag_987\n        /* \"#utility.yul\":19630:19634   */\n      dup3\n        /* \"#utility.yul\":19616:19628   */\n      dup3\n        /* \"#utility.yul\":19562:19635   */\n      tag_933\n      jump\t// in\n    tag_987:\n        /* \"#utility.yul\":19554:19635   */\n      swap2\n      pop\n        /* \"#utility.yul\":19408:19646   */\n      pop\n        /* \"#utility.yul\":19730:19734   */\n      0x40\n        /* \"#utility.yul\":19723:19728   */\n      dup4\n        /* \"#utility.yul\":19719:19735   */\n      add\n        /* \"#utility.yul\":19713:19736   */\n      mload\n        /* \"#utility.yul\":19749:19812   */\n      tag_988\n        /* \"#utility.yul\":19806:19810   */\n      0x40\n        /* \"#utility.yul\":19801:19804   */\n      dup7\n        /* \"#utility.yul\":19797:19811   */\n      add\n        /* \"#utility.yul\":19783:19795   */\n      dup3\n        /* \"#utility.yul\":19749:19812   */\n      tag_989\n      jump\t// in\n    tag_988:\n        /* \"#utility.yul\":19656:19822   */\n      pop\n        /* \"#utility.yul\":19906:19910   */\n      0x60\n        /* \"#utility.yul\":19899:19904   */\n      dup4\n        /* \"#utility.yul\":19895:19911   */\n      add\n        /* \"#utility.yul\":19889:19912   */\n      mload\n        /* \"#utility.yul\":19925:19988   */\n      tag_990\n        /* \"#utility.yul\":19982:19986   */\n      0x60\n        /* \"#utility.yul\":19977:19980   */\n      dup7\n        /* \"#utility.yul\":19973:19987   */\n      add\n        /* \"#utility.yul\":19959:19971   */\n      dup3\n        /* \"#utility.yul\":19925:19988   */\n      tag_841\n      jump\t// in\n    tag_990:\n        /* \"#utility.yul\":19832:19998   */\n      pop\n        /* \"#utility.yul\":20080:20084   */\n      0x80\n        /* \"#utility.yul\":20073:20078   */\n      dup4\n        /* \"#utility.yul\":20069:20085   */\n      add\n        /* \"#utility.yul\":20063:20086   */\n      mload\n        /* \"#utility.yul\":20099:20162   */\n      tag_991\n        /* \"#utility.yul\":20156:20160   */\n      0x80\n        /* \"#utility.yul\":20151:20154   */\n      dup7\n        /* \"#utility.yul\":20147:20161   */\n      add\n        /* \"#utility.yul\":20133:20145   */\n      dup3\n        /* \"#utility.yul\":20099:20162   */\n      tag_841\n      jump\t// in\n    tag_991:\n        /* \"#utility.yul\":20008:20172   */\n      pop\n        /* \"#utility.yul\":20256:20260   */\n      0xa0\n        /* \"#utility.yul\":20249:20254   */\n      dup4\n        /* \"#utility.yul\":20245:20261   */\n      add\n        /* \"#utility.yul\":20239:20262   */\n      mload\n        /* \"#utility.yul\":20275:20338   */\n      tag_992\n        /* \"#utility.yul\":20332:20336   */\n      0xa0\n        /* \"#utility.yul\":20327:20330   */\n      dup7\n        /* \"#utility.yul\":20323:20337   */\n      add\n        /* \"#utility.yul\":20309:20321   */\n      dup3\n        /* \"#utility.yul\":20275:20338   */\n      tag_989\n      jump\t// in\n    tag_992:\n        /* \"#utility.yul\":20182:20348   */\n      pop\n        /* \"#utility.yul\":20441:20445   */\n      0xc0\n        /* \"#utility.yul\":20434:20439   */\n      dup4\n        /* \"#utility.yul\":20430:20446   */\n      add\n        /* \"#utility.yul\":20424:20447   */\n      mload\n        /* \"#utility.yul\":20460:20523   */\n      tag_993\n        /* \"#utility.yul\":20517:20521   */\n      0xc0\n        /* \"#utility.yul\":20512:20515   */\n      dup7\n        /* \"#utility.yul\":20508:20522   */\n      add\n        /* \"#utility.yul\":20494:20506   */\n      dup3\n        /* \"#utility.yul\":20460:20523   */\n      tag_989\n      jump\t// in\n    tag_993:\n        /* \"#utility.yul\":20358:20533   */\n      pop\n        /* \"#utility.yul\":20550:20554   */\n      dup1\n        /* \"#utility.yul\":20543:20554   */\n      swap2\n      pop\n        /* \"#utility.yul\":19112:20560   */\n      pop\n        /* \"#utility.yul\":18984:20560   */\n      swap3\n      swap2\n      pop\n      pop\n      jump\t// out\n        /* \"#utility.yul\":20666:23146   */\n    tag_836:\n        /* \"#utility.yul\":20809:20812   */\n      0x00\n        /* \"#utility.yul\":20845:20851   */\n      0x0160\n        /* \"#utility.yul\":20840:20843   */\n      dup4\n        /* \"#utility.yul\":20836:20852   */\n      add\n        /* \"#utility.yul\":20939:20943   */\n      0x00\n        /* \"#utility.yul\":20932:20937   */\n      dup4\n        /* \"#utility.yul\":20928:20944   */\n      add\n        /* \"#utility.yul\":20922:20945   */\n      mload\n        /* \"#utility.yul\":20992:20995   */\n      dup5\n        /* \"#utility.yul\":20986:20990   */\n      dup3\n        /* \"#utility.yul\":20982:20996   */\n      sub\n        /* \"#utility.yul\":20975:20979   */\n      0x00\n        /* \"#utility.yul\":20970:20973   */\n      dup7\n        /* \"#utility.yul\":20966:20980   */\n      add\n        /* \"#utility.yul\":20959:20997   */\n      mstore\n        /* \"#utility.yul\":21018:21091   */\n      tag_995\n        /* \"#utility.yul\":21086:21090   */\n      dup3\n        /* \"#utility.yul\":21072:21084   */\n      dup3\n        /* \"#utility.yul\":21018:21091   */\n      tag_933\n      jump\t// in\n    tag_995:\n        /* \"#utility.yul\":21010:21091   */\n      swap2\n      pop\n        /* \"#utility.yul\":20862:21102   */\n      pop\n        /* \"#utility.yul\":21187:21191   */\n      0x20\n        /* \"#utility.yul\":21180:21185   */\n      dup4\n        /* \"#utility.yul\":21176:21192   */\n      add\n        /* \"#utility.yul\":21170:21193   */\n      mload\n        /* \"#utility.yul\":21240:21243   */\n      dup5\n        /* \"#utility.yul\":21234:21238   */\n      dup3\n        /* \"#utility.yul\":21230:21244   */\n      sub\n        /* \"#utility.yul\":21223:21227   */\n      0x20\n        /* \"#utility.yul\":21218:21221   */\n      dup7\n        /* \"#utility.yul\":21214:21228   */\n      add\n        /* \"#utility.yul\":21207:21245   */\n      mstore\n        /* \"#utility.yul\":21266:21339   */\n      tag_996\n        /* \"#utility.yul\":21334:21338   */\n      dup3\n        /* \"#utility.yul\":21320:21332   */\n      dup3\n        /* \"#utility.yul\":21266:21339   */\n      tag_933\n      jump\t// in\n    tag_996:\n        /* \"#utility.yul\":21258:21339   */\n      swap2\n      pop\n        /* \"#utility.yul\":21112:21350   */\n      pop\n        /* \"#utility.yul\":21434:21438   */\n      0x40\n        /* \"#utility.yul\":21427:21432   */\n      dup4\n        /* \"#utility.yul\":21423:21439   */\n      add\n        /* \"#utility.yul\":21417:21440   */\n      mload\n        /* \"#utility.yul\":21453:21516   */\n      tag_997\n        /* \"#utility.yul\":21510:21514   */\n      0x40\n        /* \"#utility.yul\":21505:21508   */\n      dup7\n        /* \"#utility.yul\":21501:21515   */\n      add\n        /* \"#utility.yul\":21487:21499   */\n      dup3\n        /* \"#utility.yul\":21453:21516   */\n      tag_989\n      jump\t// in\n    tag_997:\n        /* \"#utility.yul\":21360:21526   */\n      pop\n        /* \"#utility.yul\":21610:21614   */\n      0x60\n        /* \"#utility.yul\":21603:21608   */\n      dup4\n        /* \"#utility.yul\":21599:21615   */\n      add\n        /* \"#utility.yul\":21593:21616   */\n      mload\n        /* \"#utility.yul\":21629:21692   */\n      tag_998\n        /* \"#utility.yul\":21686:21690   */\n      0x60\n        /* \"#utility.yul\":21681:21684   */\n      dup7\n        /* \"#utility.yul\":21677:21691   */\n      add\n        /* \"#utility.yul\":21663:21675   */\n      dup3\n        /* \"#utility.yul\":21629:21692   */\n      tag_841\n      jump\t// in\n    tag_998:\n        /* \"#utility.yul\":21536:21702   */\n      pop\n        /* \"#utility.yul\":21788:21792   */\n      0x80\n        /* \"#utility.yul\":21781:21786   */\n      dup4\n        /* \"#utility.yul\":21777:21793   */\n      add\n        /* \"#utility.yul\":21771:21794   */\n      mload\n        /* \"#utility.yul\":21841:21844   */\n      dup5\n        /* \"#utility.yul\":21835:21839   */\n      dup3\n        /* \"#utility.yul\":21831:21845   */\n      sub\n        /* \"#utility.yul\":21824:21828   */\n      0x80\n        /* \"#utility.yul\":21819:21822   */\n      dup7\n        /* \"#utility.yul\":21815:21829   */\n      add\n        /* \"#utility.yul\":21808:21846   */\n      mstore\n        /* \"#utility.yul\":21867:21940   */\n      tag_999\n        /* \"#utility.yul\":21935:21939   */\n      dup3\n        /* \"#utility.yul\":21921:21933   */\n      dup3\n        /* \"#utility.yul\":21867:21940   */\n      tag_933\n      jump\t// in\n    tag_999:\n        /* \"#utility.yul\":21859:21940   */\n      swap2\n      pop\n        /* \"#utility.yul\":21712:21951   */\n      pop\n        /* \"#utility.yul\":22037:22041   */\n      0xa0\n        /* \"#utility.yul\":22030:22035   */\n      dup4\n        /* \"#utility.yul\":22026:22042   */\n      add\n        /* \"#utility.yul\":22020:22043   */\n      mload\n        /* \"#utility.yul\":22056:22129   */\n      tag_1000\n        /* \"#utility.yul\":22123:22127   */\n      0xa0\n        /* \"#utility.yul\":22118:22121   */\n      dup7\n        /* \"#utility.yul\":22114:22128   */\n      add\n        /* \"#utility.yul\":22100:22112   */\n      dup3\n        /* \"#utility.yul\":22056:22129   */\n      tag_926\n      jump\t// in\n    tag_1000:\n        /* \"#utility.yul\":21961:22139   */\n      pop\n        /* \"#utility.yul\":22221:22225   */\n      0xc0\n        /* \"#utility.yul\":22214:22219   */\n      dup4\n        /* \"#utility.yul\":22210:22226   */\n      add\n        /* \"#utility.yul\":22204:22227   */\n      mload\n        /* \"#utility.yul\":22240:22303   */\n      tag_1001\n        /* \"#utility.yul\":22297:22301   */\n      0xc0\n        /* \"#utility.yul\":22292:22295   */\n      dup7\n        /* \"#utility.yul\":22288:22302   */\n      add\n        /* \"#utility.yul\":22274:22286   */\n      dup3\n        /* \"#utility.yul\":22240:22303   */\n      tag_841\n      jump\t// in\n    tag_1001:\n        /* \"#utility.yul\":22149:22313   */\n      pop\n        /* \"#utility.yul\":22397:22401   */\n      0xe0\n        /* \"#utility.yul\":22390:22395   */\n      dup4\n        /* \"#utility.yul\":22386:22402   */\n      add\n        /* \"#utility.yul\":22380:22403   */\n      mload\n        /* \"#utility.yul\":22450:22453   */\n      dup5\n        /* \"#utility.yul\":22444:22448   */\n      dup3\n        /* \"#utility.yul\":22440:22454   */\n      sub\n        /* \"#utility.yul\":22433:22437   */\n      0xe0\n        /* \"#utility.yul\":22428:22431   */\n      dup7\n        /* \"#utility.yul\":22424:22438   */\n      add\n        /* \"#utility.yul\":22417:22455   */\n      mstore\n        /* \"#utility.yul\":22476:22549   */\n      tag_1002\n        /* \"#utility.yul\":22544:22548   */\n      dup3\n        /* \"#utility.yul\":22530:22542   */\n      dup3\n        /* \"#utility.yul\":22476:22549   */\n      tag_933\n      jump\t// in\n    tag_1002:\n        /* \"#utility.yul\":22468:22549   */\n      swap2\n      pop\n        /* \"#utility.yul\":22323:22560   */\n      pop\n        /* \"#utility.yul\":22644:22650   */\n      0x0100\n        /* \"#utility.yul\":22637:22642   */\n      dup4\n        /* \"#utility.yul\":22633:22651   */\n      add\n        /* \"#utility.yul\":22627:22652   */\n      mload\n        /* \"#utility.yul\":22665:22740   */\n      tag_1003\n        /* \"#utility.yul\":22732:22738   */\n      0x0100\n        /* \"#utility.yul\":22727:22730   */\n      dup7\n        /* \"#utility.yul\":22723:22739   */\n      add\n        /* \"#utility.yul\":22709:22721   */\n      dup3\n        /* \"#utility.yul\":22665:22740   */\n      tag_926\n      jump\t// in\n    tag_1003:\n        /* \"#utility.yul\":22570:22750   */\n      pop\n        /* \"#utility.yul\":22834:22840   */\n      0x0120\n        /* \"#utility.yul\":22827:22832   */\n      dup4\n        /* \"#utility.yul\":22823:22841   */\n      add\n        /* \"#utility.yul\":22817:22842   */\n      mload\n        /* \"#utility.yul\":22855:22920   */\n      tag_1004\n        /* \"#utility.yul\":22912:22918   */\n      0x0120\n        /* \"#utility.yul\":22907:22910   */\n      dup7\n        /* \"#utility.yul\":22903:22919   */\n      add\n        /* \"#utility.yul\":22889:22901   */\n      dup3\n        /* \"#utility.yul\":22855:22920   */\n      tag_989\n      jump\t// in\n    tag_1004:\n        /* \"#utility.yul\":22760:22930   */\n      pop\n        /* \"#utility.yul\":23023:23029   */\n      0x0140\n        /* \"#utility.yul\":23016:23021   */\n      dup4\n        /* \"#utility.yul\":23012:23030   */\n      add\n        /* \"#utility.yul\":23006:23031   */\n      mload\n        /* \"#utility.yul\":23044:23109   */\n      tag_1005\n        /* \"#utility.yul\":23101:23107   */\n      0x0140\n        /* \"#utility.yul\":23096:23099   */\n      dup7\n        /* \"#utility.yul\":23092:23108   */\n      add\n        /* \"#utility.yul\":23078:23090   */\n      dup3\n        /* \"#utility.yul\":23044:23109   */\n      tag_989\n      jump\t// in\n    tag_1005:\n        /* \"#utility.yul\":22940:23119   */\n      pop\n        /* \"#utility.yul\":23136:23140   */\n      dup1\n        /* \"#utility.yul\":23129:23140   */\n      swap2\n      pop\n        /* \"#utility.yul\":20814:23146   */\n      pop\n        /* \"#utility.yul\":20666:23146   */\n      swap3\n      swap2\n      pop\n      pop\n      jump\t// out\n        /* \"#utility.yul\":23210:24929   */\n    tag_840:\n        /* \"#utility.yul\":23309:23312   */\n      0x00\n        /* \"#utility.yul\":23345:23349   */\n      0xe0\n        /* \"#utility.yul\":23340:23343   */\n      dup4\n        /* \"#utility.yul\":23336:23350   */\n      add\n        /* \"#utility.yul\":23434:23438   */\n      0x00\n        /* \"#utility.yul\":23427:23432   */\n      dup4\n        /* \"#utility.yul\":23423:23439   */\n      add\n        /* \"#utility.yul\":23417:23440   */\n      mload\n        /* \"#utility.yul\":23487:23490   */\n      dup5\n        /* \"#utility.yul\":23481:23485   */\n      dup3\n        /* \"#utility.yul\":23477:23491   */\n      sub\n        /* \"#utility.yul\":23470:23474   */\n      0x00\n        /* \"#utility.yul\":23465:23468   */\n      dup7\n        /* \"#utility.yul\":23461:23475   */\n      add\n        /* \"#utility.yul\":23454:23492   */\n      mstore\n        /* \"#utility.yul\":23513:23586   */\n      tag_1007\n        /* \"#utility.yul\":23581:23585   */\n      dup3\n        /* \"#utility.yul\":23567:23579   */\n      dup3\n        /* \"#utility.yul\":23513:23586   */\n      tag_933\n      jump\t// in\n    tag_1007:\n        /* \"#utility.yul\":23505:23586   */\n      swap2\n      pop\n        /* \"#utility.yul\":23360:23597   */\n      pop\n        /* \"#utility.yul\":23683:23687   */\n      0x20\n        /* \"#utility.yul\":23676:23681   */\n      dup4\n        /* \"#utility.yul\":23672:23688   */\n      add\n        /* \"#utility.yul\":23666:23689   */\n      mload\n        /* \"#utility.yul\":23736:23739   */\n      dup5\n        /* \"#utility.yul\":23730:23734   */\n      dup3\n        /* \"#utility.yul\":23726:23740   */\n      sub\n        /* \"#utility.yul\":23719:23723   */\n      0x20\n        /* \"#utility.yul\":23714:23717   */\n      dup7\n        /* \"#utility.yul\":23710:23724   */\n      add\n        /* \"#utility.yul\":23703:23741   */\n      mstore\n        /* \"#utility.yul\":23762:23835   */\n      tag_1008\n        /* \"#utility.yul\":23830:23834   */\n      dup3\n        /* \"#utility.yul\":23816:23828   */\n      dup3\n        /* \"#utility.yul\":23762:23835   */\n      tag_933\n      jump\t// in\n    tag_1008:\n        /* \"#utility.yul\":23754:23835   */\n      swap2\n      pop\n        /* \"#utility.yul\":23607:23846   */\n      pop\n        /* \"#utility.yul\":23932:23936   */\n      0x40\n        /* \"#utility.yul\":23925:23930   */\n      dup4\n        /* \"#utility.yul\":23921:23937   */\n      add\n        /* \"#utility.yul\":23915:23938   */\n      mload\n        /* \"#utility.yul\":23951:24024   */\n      tag_1009\n        /* \"#utility.yul\":24018:24022   */\n      0x40\n        /* \"#utility.yul\":24013:24016   */\n      dup7\n        /* \"#utility.yul\":24009:24023   */\n      add\n        /* \"#utility.yul\":23995:24007   */\n      dup3\n        /* \"#utility.yul\":23951:24024   */\n      tag_926\n      jump\t// in\n    tag_1009:\n        /* \"#utility.yul\":23856:24034   */\n      pop\n        /* \"#utility.yul\":24122:24126   */\n      0x60\n        /* \"#utility.yul\":24115:24120   */\n      dup4\n        /* \"#utility.yul\":24111:24127   */\n      add\n        /* \"#utility.yul\":24105:24128   */\n      mload\n        /* \"#utility.yul\":24141:24212   */\n      tag_1010\n        /* \"#utility.yul\":24206:24210   */\n      0x60\n        /* \"#utility.yul\":24201:24204   */\n      dup7\n        /* \"#utility.yul\":24197:24211   */\n      add\n        /* \"#utility.yul\":24183:24195   */\n      dup3\n        /* \"#utility.yul\":24141:24212   */\n      tag_922\n      jump\t// in\n    tag_1010:\n        /* \"#utility.yul\":24044:24222   */\n      pop\n        /* \"#utility.yul\":24308:24312   */\n      0x80\n        /* \"#utility.yul\":24301:24306   */\n      dup4\n        /* \"#utility.yul\":24297:24313   */\n      add\n        /* \"#utility.yul\":24291:24314   */\n      mload\n        /* \"#utility.yul\":24361:24364   */\n      dup5\n        /* \"#utility.yul\":24355:24359   */\n      dup3\n        /* \"#utility.yul\":24351:24365   */\n      sub\n        /* \"#utility.yul\":24344:24348   */\n      0x80\n        /* \"#utility.yul\":24339:24342   */\n      dup7\n        /* \"#utility.yul\":24335:24349   */\n      add\n        /* \"#utility.yul\":24328:24366   */\n      mstore\n        /* \"#utility.yul\":24387:24460   */\n      tag_1011\n        /* \"#utility.yul\":24455:24459   */\n      dup3\n        /* \"#utility.yul\":24441:24453   */\n      dup3\n        /* \"#utility.yul\":24387:24460   */\n      tag_933\n      jump\t// in\n    tag_1011:\n        /* \"#utility.yul\":24379:24460   */\n      swap2\n      pop\n        /* \"#utility.yul\":24232:24471   */\n      pop\n        /* \"#utility.yul\":24558:24562   */\n      0xa0\n        /* \"#utility.yul\":24551:24556   */\n      dup4\n        /* \"#utility.yul\":24547:24563   */\n      add\n        /* \"#utility.yul\":24541:24564   */\n      mload\n        /* \"#utility.yul\":24611:24614   */\n      dup5\n        /* \"#utility.yul\":24605:24609   */\n      dup3\n        /* \"#utility.yul\":24601:24615   */\n      sub\n        /* \"#utility.yul\":24594:24598   */\n      0xa0\n        /* \"#utility.yul\":24589:24592   */\n      dup7\n        /* \"#utility.yul\":24585:24599   */\n      add\n        /* \"#utility.yul\":24578:24616   */\n      mstore\n        /* \"#utility.yul\":24637:24710   */\n      tag_1012\n        /* \"#utility.yul\":24705:24709   */\n      dup3\n        /* \"#utility.yul\":24691:24703   */\n      dup3\n        /* \"#utility.yul\":24637:24710   */\n      tag_933\n      jump\t// in\n    tag_1012:\n        /* \"#utility.yul\":24629:24710   */\n      swap2\n      pop\n        /* \"#utility.yul\":24481:24721   */\n      pop\n        /* \"#utility.yul\":24810:24814   */\n      0xc0\n        /* \"#utility.yul\":24803:24808   */\n      dup4\n        /* \"#utility.yul\":24799:24815   */\n      add\n        /* \"#utility.yul\":24793:24816   */\n      mload\n        /* \"#utility.yul\":24829:24892   */\n      tag_1013\n        /* \"#utility.yul\":24886:24890   */\n      0xc0\n        /* \"#utility.yul\":24881:24884   */\n      dup7\n        /* \"#utility.yul\":24877:24891   */\n      add\n        /* \"#utility.yul\":24863:24875   */\n      dup3\n        /* \"#utility.yul\":24829:24892   */\n      tag_841\n      jump\t// in\n    tag_1013:\n        /* \"#utility.yul\":24731:24902   */\n      pop\n        /* \"#utility.yul\":24919:24923   */\n      dup1\n        /* \"#utility.yul\":24912:24923   */\n      swap2\n      pop\n        /* \"#utility.yul\":23314:24929   */\n      pop\n        /* \"#utility.yul\":23210:24929   */\n      swap3\n      swap2\n      pop\n      pop\n      jump\t// out\n        /* \"#utility.yul\":24993:26722   */\n    tag_1014:\n        /* \"#utility.yul\":25102:25105   */\n      0x00\n        /* \"#utility.yul\":25138:25142   */\n      0xe0\n        /* \"#utility.yul\":25133:25136   */\n      dup4\n        /* \"#utility.yul\":25129:25143   */\n      add\n        /* \"#utility.yul\":25227:25231   */\n      0x00\n        /* \"#utility.yul\":25220:25225   */\n      dup4\n        /* \"#utility.yul\":25216:25232   */\n      add\n        /* \"#utility.yul\":25210:25233   */\n      mload\n        /* \"#utility.yul\":25280:25283   */\n      dup5\n        /* \"#utility.yul\":25274:25278   */\n      dup3\n        /* \"#utility.yul\":25270:25284   */\n      sub\n        /* \"#utility.yul\":25263:25267   */\n      0x00\n        /* \"#utility.yul\":25258:25261   */\n      dup7\n        /* \"#utility.yul\":25254:25268   */\n      add\n        /* \"#utility.yul\":25247:25285   */\n      mstore\n        /* \"#utility.yul\":25306:25379   */\n      tag_1016\n        /* \"#utility.yul\":25374:25378   */\n      dup3\n        /* \"#utility.yul\":25360:25372   */\n      dup3\n        /* \"#utility.yul\":25306:25379   */\n      tag_933\n      jump\t// in\n    tag_1016:\n        /* \"#utility.yul\":25298:25379   */\n      swap2\n      pop\n        /* \"#utility.yul\":25153:25390   */\n      pop\n        /* \"#utility.yul\":25476:25480   */\n      0x20\n        /* \"#utility.yul\":25469:25474   */\n      dup4\n        /* \"#utility.yul\":25465:25481   */\n      add\n        /* \"#utility.yul\":25459:25482   */\n      mload\n        /* \"#utility.yul\":25529:25532   */\n      dup5\n        /* \"#utility.yul\":25523:25527   */\n      dup3\n        /* \"#utility.yul\":25519:25533   */\n      sub\n        /* \"#utility.yul\":25512:25516   */\n      0x20\n        /* \"#utility.yul\":25507:25510   */\n      dup7\n        /* \"#utility.yul\":25503:25517   */\n      add\n        /* \"#utility.yul\":25496:25534   */\n      mstore\n        /* \"#utility.yul\":25555:25628   */\n      tag_1017\n        /* \"#utility.yul\":25623:25627   */\n      dup3\n        /* \"#utility.yul\":25609:25621   */\n      dup3\n        /* \"#utility.yul\":25555:25628   */\n      tag_933\n      jump\t// in\n    tag_1017:\n        /* \"#utility.yul\":25547:25628   */\n      swap2\n      pop\n        /* \"#utility.yul\":25400:25639   */\n      pop\n        /* \"#utility.yul\":25725:25729   */\n      0x40\n        /* \"#utility.yul\":25718:25723   */\n      dup4\n        /* \"#utility.yul\":25714:25730   */\n      add\n        /* \"#utility.yul\":25708:25731   */\n      mload\n        /* \"#utility.yul\":25744:25817   */\n      tag_1018\n        /* \"#utility.yul\":25811:25815   */\n      0x40\n        /* \"#utility.yul\":25806:25809   */\n      dup7\n        /* \"#utility.yul\":25802:25816   */\n      add\n        /* \"#utility.yul\":25788:25800   */\n      dup3\n        /* \"#utility.yul\":25744:25817   */\n      tag_926\n      jump\t// in\n    tag_1018:\n        /* \"#utility.yul\":25649:25827   */\n      pop\n        /* \"#utility.yul\":25915:25919   */\n      0x60\n        /* \"#utility.yul\":25908:25913   */\n      dup4\n        /* \"#utility.yul\":25904:25920   */\n      add\n        /* \"#utility.yul\":25898:25921   */\n      mload\n        /* \"#utility.yul\":25934:26005   */\n      tag_1019\n        /* \"#utility.yul\":25999:26003   */\n      0x60\n        /* \"#utility.yul\":25994:25997   */\n      dup7\n        /* \"#utility.yul\":25990:26004   */\n      add\n        /* \"#utility.yul\":25976:25988   */\n      dup3\n        /* \"#utility.yul\":25934:26005   */\n      tag_922\n      jump\t// in\n    tag_1019:\n        /* \"#utility.yul\":25837:26015   */\n      pop\n        /* \"#utility.yul\":26101:26105   */\n      0x80\n        /* \"#utility.yul\":26094:26099   */\n      dup4\n        /* \"#utility.yul\":26090:26106   */\n      add\n        /* \"#utility.yul\":26084:26107   */\n      mload\n        /* \"#utility.yul\":26154:26157   */\n      dup5\n        /* \"#utility.yul\":26148:26152   */\n      dup3\n        /* \"#utility.yul\":26144:26158   */\n      sub\n        /* \"#utility.yul\":26137:26141   */\n      0x80\n        /* \"#utility.yul\":26132:26135   */\n      dup7\n        /* \"#utility.yul\":26128:26142   */\n      add\n        /* \"#utility.yul\":26121:26159   */\n      mstore\n        /* \"#utility.yul\":26180:26253   */\n      tag_1020\n        /* \"#utility.yul\":26248:26252   */\n      dup3\n        /* \"#utility.yul\":26234:26246   */\n      dup3\n        /* \"#utility.yul\":26180:26253   */\n      tag_933\n      jump\t// in\n    tag_1020:\n        /* \"#utility.yul\":26172:26253   */\n      swap2\n      pop\n        /* \"#utility.yul\":26025:26264   */\n      pop\n        /* \"#utility.yul\":26351:26355   */\n      0xa0\n        /* \"#utility.yul\":26344:26349   */\n      dup4\n        /* \"#utility.yul\":26340:26356   */\n      add\n        /* \"#utility.yul\":26334:26357   */\n      mload\n        /* \"#utility.yul\":26404:26407   */\n      dup5\n        /* \"#utility.yul\":26398:26402   */\n      dup3\n        /* \"#utility.yul\":26394:26408   */\n      sub\n        /* \"#utility.yul\":26387:26391   */\n      0xa0\n        /* \"#utility.yul\":26382:26385   */\n      dup7\n        /* \"#utility.yul\":26378:26392   */\n      add\n        /* \"#utility.yul\":26371:26409   */\n      mstore\n        /* \"#utility.yul\":26430:26503   */\n      tag_1021\n        /* \"#utility.yul\":26498:26502   */\n      dup3\n        /* \"#utility.yul\":26484:26496   */\n      dup3\n        /* \"#utility.yul\":26430:26503   */\n      tag_933\n      jump\t// in\n    tag_1021:\n        /* \"#utility.yul\":26422:26503   */\n      swap2\n      pop\n        /* \"#utility.yul\":26274:26514   */\n      pop\n        /* \"#utility.yul\":26603:26607   */\n      0xc0\n        /* \"#utility.yul\":26596:26601   */\n      dup4\n        /* \"#utility.yul\":26592:26608   */\n      add\n        /* \"#utility.yul\":26586:26609   */\n      mload\n        /* \"#utility.yul\":26622:26685   */\n      tag_1022\n        /* \"#utility.yul\":26679:26683   */\n      0xc0\n        /* \"#utility.yul\":26674:26677   */\n      dup7\n        /* \"#utility.yul\":26670:26684   */\n      add\n        /* \"#utility.yul\":26656:26668   */\n      dup3\n        /* \"#utility.yul\":26622:26685   */\n      tag_841\n      jump\t// in\n    tag_1022:\n        /* \"#utility.yul\":26524:26695   */\n      pop\n        /* \"#utility.yul\":26712:26716   */\n      dup1\n        /* \"#utility.yul\":26705:26716   */\n      swap2\n      pop\n        /* \"#utility.yul\":25107:26722   */\n      pop\n        /* \"#utility.yul\":24993:26722   */\n      swap3\n      swap2\n      pop\n      pop\n      jump\t// out\n        /* \"#utility.yul\":26728:26836   */\n    tag_989:\n        /* \"#utility.yul\":26805:26829   */\n      tag_1024\n        /* \"#utility.yul\":26823:26828   */\n      dup2\n        /* \"#utility.yul\":26805:26829   */\n      tag_1025\n      jump\t// in\n    tag_1024:\n        /* \"#utility.yul\":26800:26803   */\n      dup3\n        /* \"#utility.yul\":26793:26830   */\n      mstore\n        /* \"#utility.yul\":26728:26836   */\n      pop\n      pop\n      jump\t// out\n        /* \"#utility.yul\":26842:26960   */\n    tag_1026:\n        /* \"#utility.yul\":26929:26953   */\n      tag_1028\n        /* \"#utility.yul\":26947:26952   */\n      dup2\n        /* \"#utility.yul\":26929:26953   */\n      tag_1025\n      jump\t// in\n    tag_1028:\n        /* \"#utility.yul\":26924:26927   */\n      dup3\n        /* \"#utility.yul\":26917:26954   */\n      mstore\n        /* \"#utility.yul\":26842:26960   */\n      pop\n      pop\n      jump\t// out\n        /* \"#utility.yul\":26966:27241   */\n    tag_665:\n        /* \"#utility.yul\":27098:27101   */\n      0x00\n        /* \"#utility.yul\":27120:27215   */\n      tag_1030\n        /* \"#utility.yul\":27211:27214   */\n      dup3\n        /* \"#utility.yul\":27202:27208   */\n      dup5\n        /* \"#utility.yul\":27120:27215   */\n      tag_950\n      jump\t// in\n    tag_1030:\n        /* \"#utility.yul\":27113:27215   */\n      swap2\n      pop\n        /* \"#utility.yul\":27232:27235   */\n      dup2\n        /* \"#utility.yul\":27225:27235   */\n      swap1\n      pop\n        /* \"#utility.yul\":26966:27241   */\n      swap3\n      swap2\n      pop\n      pop\n      jump\t// out\n        /* \"#utility.yul\":27247:27516   */\n    tag_567:\n        /* \"#utility.yul\":27376:27379   */\n      0x00\n        /* \"#utility.yul\":27398:27490   */\n      tag_1032\n        /* \"#utility.yul\":27486:27489   */\n      dup3\n        /* \"#utility.yul\":27477:27483   */\n      dup5\n        /* \"#utility.yul\":27398:27490   */\n      tag_956\n      jump\t// in\n    tag_1032:\n        /* \"#utility.yul\":27391:27490   */\n      swap2\n      pop\n        /* \"#utility.yul\":27507:27510   */\n      dup2\n        /* \"#utility.yul\":27500:27510   */\n      swap1\n      pop\n        /* \"#utility.yul\":27247:27516   */\n      swap3\n      swap2\n      pop\n      pop\n      jump\t// out\n        /* \"#utility.yul\":27522:27744   */\n    tag_77:\n        /* \"#utility.yul\":27615:27619   */\n      0x00\n        /* \"#utility.yul\":27653:27655   */\n      0x20\n        /* \"#utility.yul\":27642:27651   */\n      dup3\n        /* \"#utility.yul\":27638:27656   */\n      add\n        /* \"#utility.yul\":27630:27656   */\n      swap1\n      pop\n        /* \"#utility.yul\":27666:27737   */\n      tag_1034\n        /* \"#utility.yul\":27734:27735   */\n      0x00\n        /* \"#utility.yul\":27723:27732   */\n      dup4\n        /* \"#utility.yul\":27719:27736   */\n      add\n        /* \"#utility.yul\":27710:27716   */\n      dup5\n        /* \"#utility.yul\":27666:27737   */\n      tag_845\n      jump\t// in\n    tag_1034:\n        /* \"#utility.yul\":27522:27744   */\n      swap3\n      swap2\n      pop\n      pop\n      jump\t// out\n        /* \"#utility.yul\":27750:28215   */\n    tag_73:\n        /* \"#utility.yul\":27939:27943   */\n      0x00\n        /* \"#utility.yul\":27977:27979   */\n      0x20\n        /* \"#utility.yul\":27966:27975   */\n      dup3\n        /* \"#utility.yul\":27962:27980   */\n      add\n        /* \"#utility.yul\":27954:27980   */\n      swap1\n      pop\n        /* \"#utility.yul\":28026:28035   */\n      dup2\n        /* \"#utility.yul\":28020:28024   */\n      dup2\n        /* \"#utility.yul\":28016:28036   */\n      sub\n        /* \"#utility.yul\":28012:28013   */\n      0x00\n        /* \"#utility.yul\":28001:28010   */\n      dup4\n        /* \"#utility.yul\":27997:28014   */\n      add\n        /* \"#utility.yul\":27990:28037   */\n      mstore\n        /* \"#utility.yul\":28054:28208   */\n      tag_1036\n        /* \"#utility.yul\":28203:28207   */\n      dup2\n        /* \"#utility.yul\":28194:28200   */\n      dup5\n        /* \"#utility.yul\":28054:28208   */\n      tag_848\n      jump\t// in\n    tag_1036:\n        /* \"#utility.yul\":28046:28208   */\n      swap1\n      pop\n        /* \"#utility.yul\":27750:28215   */\n      swap3\n      swap2\n      pop\n      pop\n      jump\t// out\n        /* \"#utility.yul\":28221:28674   */\n    tag_97:\n        /* \"#utility.yul\":28404:28408   */\n      0x00\n        /* \"#utility.yul\":28442:28444   */\n      0x20\n        /* \"#utility.yul\":28431:28440   */\n      dup3\n        /* \"#utility.yul\":28427:28445   */\n      add\n        /* \"#utility.yul\":28419:28445   */\n      swap1\n      pop\n        /* \"#utility.yul\":28491:28500   */\n      dup2\n        /* \"#utility.yul\":28485:28489   */\n      dup2\n        /* \"#utility.yul\":28481:28501   */\n      sub\n        /* \"#utility.yul\":28477:28478   */\n      0x00\n        /* \"#utility.yul\":28466:28475   */\n      dup4\n        /* \"#utility.yul\":28462:28479   */\n      add\n        /* \"#utility.yul\":28455:28502   */\n      mstore\n        /* \"#utility.yul\":28519:28667   */\n      tag_1038\n        /* \"#utility.yul\":28662:28666   */\n      dup2\n        /* \"#utility.yul\":28653:28659   */\n      dup5\n        /* \"#utility.yul\":28519:28667   */\n      tag_862\n      jump\t// in\n    tag_1038:\n        /* \"#utility.yul\":28511:28667   */\n      swap1\n      pop\n        /* \"#utility.yul\":28221:28674   */\n      swap3\n      swap2\n      pop\n      pop\n      jump\t// out\n        /* \"#utility.yul\":28680:29181   */\n    tag_38:\n        /* \"#utility.yul\":28887:28891   */\n      0x00\n        /* \"#utility.yul\":28925:28927   */\n      0x20\n        /* \"#utility.yul\":28914:28923   */\n      dup3\n        /* \"#utility.yul\":28910:28928   */\n      add\n        /* \"#utility.yul\":28902:28928   */\n      swap1\n      pop\n        /* \"#utility.yul\":28974:28983   */\n      dup2\n        /* \"#utility.yul\":28968:28972   */\n      dup2\n        /* \"#utility.yul\":28964:28984   */\n      sub\n        /* \"#utility.yul\":28960:28961   */\n      0x00\n        /* \"#utility.yul\":28949:28958   */\n      dup4\n        /* \"#utility.yul\":28945:28962   */\n      add\n        /* \"#utility.yul\":28938:28985   */\n      mstore\n        /* \"#utility.yul\":29002:29174   */\n      tag_1040\n        /* \"#utility.yul\":29169:29173   */\n      dup2\n        /* \"#utility.yul\":29160:29166   */\n      dup5\n        /* \"#utility.yul\":29002:29174   */\n      tag_876\n      jump\t// in\n    tag_1040:\n        /* \"#utility.yul\":28994:29174   */\n      swap1\n      pop\n        /* \"#utility.yul\":28680:29181   */\n      swap3\n      swap2\n      pop\n      pop\n      jump\t// out\n        /* \"#utility.yul\":29187:29728   */\n    tag_44:\n        /* \"#utility.yul\":29414:29418   */\n      0x00\n        /* \"#utility.yul\":29452:29454   */\n      0x20\n        /* \"#utility.yul\":29441:29450   */\n      dup3\n        /* \"#utility.yul\":29437:29455   */\n      add\n        /* \"#utility.yul\":29429:29455   */\n      swap1\n      pop\n        /* \"#utility.yul\":29501:29510   */\n      dup2\n        /* \"#utility.yul\":29495:29499   */\n      dup2\n        /* \"#utility.yul\":29491:29511   */\n      sub\n        /* \"#utility.yul\":29487:29488   */\n      0x00\n        /* \"#utility.yul\":29476:29485   */\n      dup4\n        /* \"#utility.yul\":29472:29489   */\n      add\n        /* \"#utility.yul\":29465:29512   */\n      mstore\n        /* \"#utility.yul\":29529:29721   */\n      tag_1042\n        /* \"#utility.yul\":29716:29720   */\n      dup2\n        /* \"#utility.yul\":29707:29713   */\n      dup5\n        /* \"#utility.yul\":29529:29721   */\n      tag_890\n      jump\t// in\n    tag_1042:\n        /* \"#utility.yul\":29521:29721   */\n      swap1\n      pop\n        /* \"#utility.yul\":29187:29728   */\n      swap3\n      swap2\n      pop\n      pop\n      jump\t// out\n        /* \"#utility.yul\":29734:30187   */\n    tag_26:\n        /* \"#utility.yul\":29917:29921   */\n      0x00\n        /* \"#utility.yul\":29955:29957   */\n      0x20\n        /* \"#utility.yul\":29944:29953   */\n      dup3\n        /* \"#utility.yul\":29940:29958   */\n      add\n        /* \"#utility.yul\":29932:29958   */\n      swap1\n      pop\n        /* \"#utility.yul\":30004:30013   */\n      dup2\n        /* \"#utility.yul\":29998:30002   */\n      dup2\n        /* \"#utility.yul\":29994:30014   */\n      sub\n        /* \"#utility.yul\":29990:29991   */\n      0x00\n        /* \"#utility.yul\":29979:29988   */\n      dup4\n        /* \"#utility.yul\":29975:29992   */\n      add\n        /* \"#utility.yul\":29968:30015   */\n      mstore\n        /* \"#utility.yul\":30032:30180   */\n      tag_1044\n        /* \"#utility.yul\":30175:30179   */\n      dup2\n        /* \"#utility.yul\":30166:30172   */\n      dup5\n        /* \"#utility.yul\":30032:30180   */\n      tag_904\n      jump\t// in\n    tag_1044:\n        /* \"#utility.yul\":30024:30180   */\n      swap1\n      pop\n        /* \"#utility.yul\":29734:30187   */\n      swap3\n      swap2\n      pop\n      pop\n      jump\t// out\n        /* \"#utility.yul\":30193:30403   */\n    tag_92:\n        /* \"#utility.yul\":30280:30284   */\n      0x00\n        /* \"#utility.yul\":30318:30320   */\n      0x20\n        /* \"#utility.yul\":30307:30316   */\n      dup3\n        /* \"#utility.yul\":30303:30321   */\n      add\n        /* \"#utility.yul\":30295:30321   */\n      swap1\n      pop\n        /* \"#utility.yul\":30331:30396   */\n      tag_1046\n        /* \"#utility.yul\":30393:30394   */\n      0x00\n        /* \"#utility.yul\":30382:30391   */\n      dup4\n        /* \"#utility.yul\":30378:30395   */\n      add\n        /* \"#utility.yul\":30369:30375   */\n      dup5\n        /* \"#utility.yul\":30331:30396   */\n      tag_918\n      jump\t// in\n    tag_1046:\n        /* \"#utility.yul\":30193:30403   */\n      swap3\n      swap2\n      pop\n      pop\n      jump\t// out\n        /* \"#utility.yul\":30409:30651   */\n    tag_53:\n        /* \"#utility.yul\":30512:30516   */\n      0x00\n        /* \"#utility.yul\":30550:30552   */\n      0x20\n        /* \"#utility.yul\":30539:30548   */\n      dup3\n        /* \"#utility.yul\":30535:30553   */\n      add\n        /* \"#utility.yul\":30527:30553   */\n      swap1\n      pop\n        /* \"#utility.yul\":30563:30644   */\n      tag_1048\n        /* \"#utility.yul\":30641:30642   */\n      0x00\n        /* \"#utility.yul\":30630:30639   */\n      dup4\n        /* \"#utility.yul\":30626:30643   */\n      add\n        /* \"#utility.yul\":30617:30623   */\n      dup5\n        /* \"#utility.yul\":30563:30644   */\n      tag_930\n      jump\t// in\n    tag_1048:\n        /* \"#utility.yul\":30409:30651   */\n      swap3\n      swap2\n      pop\n      pop\n      jump\t// out\n        /* \"#utility.yul\":30657:31725   */\n    tag_32:\n        /* \"#utility.yul\":30958:30962   */\n      0x00\n        /* \"#utility.yul\":30996:30999   */\n      0xe0\n        /* \"#utility.yul\":30985:30994   */\n      dup3\n        /* \"#utility.yul\":30981:31000   */\n      add\n        /* \"#utility.yul\":30973:31000   */\n      swap1\n      pop\n        /* \"#utility.yul\":31046:31055   */\n      dup2\n        /* \"#utility.yul\":31040:31044   */\n      dup2\n        /* \"#utility.yul\":31036:31056   */\n      sub\n        /* \"#utility.yul\":31032:31033   */\n      0x00\n        /* \"#utility.yul\":31021:31030   */\n      dup4\n        /* \"#utility.yul\":31017:31034   */\n      add\n        /* \"#utility.yul\":31010:31057   */\n      mstore\n        /* \"#utility.yul\":31074:31152   */\n      tag_1050\n        /* \"#utility.yul\":31147:31151   */\n      dup2\n        /* \"#utility.yul\":31138:31144   */\n      dup11\n        /* \"#utility.yul\":31074:31152   */\n      tag_943\n      jump\t// in\n    tag_1050:\n        /* \"#utility.yul\":31066:31152   */\n      swap1\n      pop\n        /* \"#utility.yul\":31199:31208   */\n      dup2\n        /* \"#utility.yul\":31193:31197   */\n      dup2\n        /* \"#utility.yul\":31189:31209   */\n      sub\n        /* \"#utility.yul\":31184:31186   */\n      0x20\n        /* \"#utility.yul\":31173:31182   */\n      dup4\n        /* \"#utility.yul\":31169:31187   */\n      add\n        /* \"#utility.yul\":31162:31210   */\n      mstore\n        /* \"#utility.yul\":31227:31305   */\n      tag_1051\n        /* \"#utility.yul\":31300:31304   */\n      dup2\n        /* \"#utility.yul\":31291:31297   */\n      dup10\n        /* \"#utility.yul\":31227:31305   */\n      tag_943\n      jump\t// in\n    tag_1051:\n        /* \"#utility.yul\":31219:31305   */\n      swap1\n      pop\n        /* \"#utility.yul\":31315:31387   */\n      tag_1052\n        /* \"#utility.yul\":31383:31385   */\n      0x40\n        /* \"#utility.yul\":31372:31381   */\n      dup4\n        /* \"#utility.yul\":31368:31386   */\n      add\n        /* \"#utility.yul\":31359:31365   */\n      dup9\n        /* \"#utility.yul\":31315:31387   */\n      tag_1026\n      jump\t// in\n    tag_1052:\n        /* \"#utility.yul\":31397:31469   */\n      tag_1053\n        /* \"#utility.yul\":31465:31467   */\n      0x60\n        /* \"#utility.yul\":31454:31463   */\n      dup4\n        /* \"#utility.yul\":31450:31468   */\n      add\n        /* \"#utility.yul\":31441:31447   */\n      dup8\n        /* \"#utility.yul\":31397:31469   */\n      tag_845\n      jump\t// in\n    tag_1053:\n        /* \"#utility.yul\":31479:31552   */\n      tag_1054\n        /* \"#utility.yul\":31547:31550   */\n      0x80\n        /* \"#utility.yul\":31536:31545   */\n      dup4\n        /* \"#utility.yul\":31532:31551   */\n      add\n        /* \"#utility.yul\":31523:31529   */\n      dup7\n        /* \"#utility.yul\":31479:31552   */\n      tag_845\n      jump\t// in\n    tag_1054:\n        /* \"#utility.yul\":31562:31635   */\n      tag_1055\n        /* \"#utility.yul\":31630:31633   */\n      0xa0\n        /* \"#utility.yul\":31619:31628   */\n      dup4\n        /* \"#utility.yul\":31615:31634   */\n      add\n        /* \"#utility.yul\":31606:31612   */\n      dup6\n        /* \"#utility.yul\":31562:31635   */\n      tag_1026\n      jump\t// in\n    tag_1055:\n        /* \"#utility.yul\":31645:31718   */\n      tag_1056\n        /* \"#utility.yul\":31713:31716   */\n      0xc0\n        /* \"#utility.yul\":31702:31711   */\n      dup4\n        /* \"#utility.yul\":31698:31717   */\n      add\n        /* \"#utility.yul\":31689:31695   */\n      dup5\n        /* \"#utility.yul\":31645:31718   */\n      tag_1026\n      jump\t// in\n    tag_1056:\n        /* \"#utility.yul\":30657:31725   */\n      swap9\n      swap8\n      pop\n      pop\n      pop\n      pop\n      pop\n      pop\n      pop\n      pop\n      jump\t// out\n        /* \"#utility.yul\":31731:32084   */\n    tag_87:\n        /* \"#utility.yul\":31864:31868   */\n      0x00\n        /* \"#utility.yul\":31902:31904   */\n      0x20\n        /* \"#utility.yul\":31891:31900   */\n      dup3\n        /* \"#utility.yul\":31887:31905   */\n      add\n        /* \"#utility.yul\":31879:31905   */\n      swap1\n      pop\n        /* \"#utility.yul\":31951:31960   */\n      dup2\n        /* \"#utility.yul\":31945:31949   */\n      dup2\n        /* \"#utility.yul\":31941:31961   */\n      sub\n        /* \"#utility.yul\":31937:31938   */\n      0x00\n        /* \"#utility.yul\":31926:31935   */\n      dup4\n        /* \"#utility.yul\":31922:31939   */\n      add\n        /* \"#utility.yul\":31915:31962   */\n      mstore\n        /* \"#utility.yul\":31979:32077   */\n      tag_1058\n        /* \"#utility.yul\":32072:32076   */\n      dup2\n        /* \"#utility.yul\":32063:32069   */\n      dup5\n        /* \"#utility.yul\":31979:32077   */\n      tag_979\n      jump\t// in\n    tag_1058:\n        /* \"#utility.yul\":31971:32077   */\n      swap1\n      pop\n        /* \"#utility.yul\":31731:32084   */\n      swap3\n      swap2\n      pop\n      pop\n      jump\t// out\n        /* \"#utility.yul\":32090:32443   */\n    tag_82:\n        /* \"#utility.yul\":32223:32227   */\n      0x00\n        /* \"#utility.yul\":32261:32263   */\n      0x20\n        /* \"#utility.yul\":32250:32259   */\n      dup3\n        /* \"#utility.yul\":32246:32264   */\n      add\n        /* \"#utility.yul\":32238:32264   */\n      swap1\n      pop\n        /* \"#utility.yul\":32310:32319   */\n      dup2\n        /* \"#utility.yul\":32304:32308   */\n      dup2\n        /* \"#utility.yul\":32300:32320   */\n      sub\n        /* \"#utility.yul\":32296:32297   */\n      0x00\n        /* \"#utility.yul\":32285:32294   */\n      dup4\n        /* \"#utility.yul\":32281:32298   */\n      add\n        /* \"#utility.yul\":32274:32321   */\n      mstore\n        /* \"#utility.yul\":32338:32436   */\n      tag_1060\n        /* \"#utility.yul\":32431:32435   */\n      dup2\n        /* \"#utility.yul\":32422:32428   */\n      dup5\n        /* \"#utility.yul\":32338:32436   */\n      tag_1014\n      jump\t// in\n    tag_1060:\n        /* \"#utility.yul\":32330:32436   */\n      swap1\n      pop\n        /* \"#utility.yul\":32090:32443   */\n      swap3\n      swap2\n      pop\n      pop\n      jump\t// out\n        /* \"#utility.yul\":32449:32671   */\n    tag_58:\n        /* \"#utility.yul\":32542:32546   */\n      0x00\n        /* \"#utility.yul\":32580:32582   */\n      0x20\n        /* \"#utility.yul\":32569:32578   */\n      dup3\n        /* \"#utility.yul\":32565:32583   */\n      add\n        /* \"#utility.yul\":32557:32583   */\n      swap1\n      pop\n        /* \"#utility.yul\":32593:32664   */\n      tag_1062\n        /* \"#utility.yul\":32661:32662   */\n      0x00\n        /* \"#utility.yul\":32650:32659   */\n      dup4\n        /* \"#utility.yul\":32646:32663   */\n      add\n        /* \"#utility.yul\":32637:32643   */\n      dup5\n        /* \"#utility.yul\":32593:32664   */\n      tag_1026\n      jump\t// in\n    tag_1062:\n        /* \"#utility.yul\":32449:32671   */\n      swap3\n      swap2\n      pop\n      pop\n      jump\t// out\n        /* \"#utility.yul\":32677:32806   */\n    tag_750:\n        /* \"#utility.yul\":32711:32717   */\n      0x00\n        /* \"#utility.yul\":32738:32758   */\n      tag_1064\n      tag_1065\n      jump\t// in\n    tag_1064:\n        /* \"#utility.yul\":32728:32758   */\n      swap1\n      pop\n        /* \"#utility.yul\":32767:32800   */\n      tag_1066\n        /* \"#utility.yul\":32795:32799   */\n      dup3\n        /* \"#utility.yul\":32787:32793   */\n      dup3\n        /* \"#utility.yul\":32767:32800   */\n      tag_1067\n      jump\t// in\n    tag_1066:\n        /* \"#utility.yul\":32677:32806   */\n      swap2\n      swap1\n      pop\n      jump\t// out\n        /* \"#utility.yul\":32812:32887   */\n    tag_1065:\n        /* \"#utility.yul\":32845:32851   */\n      0x00\n        /* \"#utility.yul\":32878:32880   */\n      0x40\n        /* \"#utility.yul\":32872:32881   */\n      mload\n        /* \"#utility.yul\":32862:32881   */\n      swap1\n      pop\n        /* \"#utility.yul\":32812:32887   */\n      swap1\n      jump\t// out\n        /* \"#utility.yul\":32893:33201   */\n    tag_749:\n        /* \"#utility.yul\":32955:32959   */\n      0x00\n        /* \"#utility.yul\":33045:33063   */\n      0xffffffffffffffff\n        /* \"#utility.yul\":33037:33043   */\n      dup3\n        /* \"#utility.yul\":33034:33064   */\n      gt\n        /* \"#utility.yul\":33031:33087   */\n      iszero\n      tag_1070\n      jumpi\n        /* \"#utility.yul\":33067:33085   */\n      tag_1071\n      tag_101\n      jump\t// in\n    tag_1071:\n        /* \"#utility.yul\":33031:33087   */\n    tag_1070:\n        /* \"#utility.yul\":33105:33134   */\n      tag_1072\n        /* \"#utility.yul\":33127:33133   */\n      dup3\n        /* \"#utility.yul\":33105:33134   */\n      tag_942\n      jump\t// in\n    tag_1072:\n        /* \"#utility.yul\":33097:33134   */\n      swap1\n      pop\n        /* \"#utility.yul\":33189:33193   */\n      0x20\n        /* \"#utility.yul\":33183:33187   */\n      dup2\n        /* \"#utility.yul\":33179:33194   */\n      add\n        /* \"#utility.yul\":33171:33194   */\n      swap1\n      pop\n        /* \"#utility.yul\":32893:33201   */\n      swap2\n      swap1\n      pop\n      jump\t// out\n        /* \"#utility.yul\":33207:33362   */\n    tag_855:\n        /* \"#utility.yul\":33297:33301   */\n      0x00\n        /* \"#utility.yul\":33320:33323   */\n      dup2\n        /* \"#utility.yul\":33312:33323   */\n      swap1\n      pop\n        /* \"#utility.yul\":33350:33354   */\n      0x20\n        /* \"#utility.yul\":33345:33348   */\n      dup3\n        /* \"#utility.yul\":33341:33355   */\n      add\n        /* \"#utility.yul\":33333:33355   */\n      swap1\n      pop\n        /* \"#utility.yul\":33207:33362   */\n      swap2\n      swap1\n      pop\n      jump\t// out\n        /* \"#utility.yul\":33368:33520   */\n    tag_869:\n        /* \"#utility.yul\":33455:33459   */\n      0x00\n        /* \"#utility.yul\":33478:33481   */\n      dup2\n        /* \"#utility.yul\":33470:33481   */\n      swap1\n      pop\n        /* \"#utility.yul\":33508:33512   */\n      0x20\n        /* \"#utility.yul\":33503:33506   */\n      dup3\n        /* \"#utility.yul\":33499:33513   */\n      add\n        /* \"#utility.yul\":33491:33513   */\n      swap1\n      pop\n        /* \"#utility.yul\":33368:33520   */\n      swap2\n      swap1\n      pop\n      jump\t// out\n        /* \"#utility.yul\":33526:33690   */\n    tag_883:\n        /* \"#utility.yul\":33625:33629   */\n      0x00\n        /* \"#utility.yul\":33648:33651   */\n      dup2\n        /* \"#utility.yul\":33640:33651   */\n      swap1\n      pop\n        /* \"#utility.yul\":33678:33682   */\n      0x20\n        /* \"#utility.yul\":33673:33676   */\n      dup3\n        /* \"#utility.yul\":33669:33683   */\n      add\n        /* \"#utility.yul\":33661:33683   */\n      swap1\n      pop\n        /* \"#utility.yul\":33526:33690   */\n      swap2\n      swap1\n      pop\n      jump\t// out\n        /* \"#utility.yul\":33696:33870   */\n    tag_897:\n        /* \"#utility.yul\":33805:33809   */\n      0x00\n        /* \"#utility.yul\":33828:33831   */\n      dup2\n        /* \"#utility.yul\":33820:33831   */\n      swap1\n      pop\n        /* \"#utility.yul\":33858:33862   */\n      0x20\n        /* \"#utility.yul\":33853:33856   */\n      dup3\n        /* \"#utility.yul\":33849:33863   */\n      add\n        /* \"#utility.yul\":33841:33863   */\n      swap1\n      pop\n        /* \"#utility.yul\":33696:33870   */\n      swap2\n      swap1\n      pop\n      jump\t// out\n        /* \"#utility.yul\":33876:34028   */\n    tag_911:\n        /* \"#utility.yul\":33963:33967   */\n      0x00\n        /* \"#utility.yul\":33986:33989   */\n      dup2\n        /* \"#utility.yul\":33978:33989   */\n      swap1\n      pop\n        /* \"#utility.yul\":34016:34020   */\n      0x20\n        /* \"#utility.yul\":34011:34014   */\n      dup3\n        /* \"#utility.yul\":34007:34021   */\n      add\n        /* \"#utility.yul\":33999:34021   */\n      swap1\n      pop\n        /* \"#utility.yul\":33876:34028   */\n      swap2\n      swap1\n      pop\n      jump\t// out\n        /* \"#utility.yul\":34034:34175   */\n    tag_964:\n        /* \"#utility.yul\":34083:34087   */\n      0x00\n        /* \"#utility.yul\":34106:34109   */\n      dup2\n        /* \"#utility.yul\":34098:34109   */\n      swap1\n      pop\n        /* \"#utility.yul\":34129:34132   */\n      dup2\n        /* \"#utility.yul\":34126:34127   */\n      0x00\n        /* \"#utility.yul\":34119:34133   */\n      mstore\n        /* \"#utility.yul\":34163:34167   */\n      0x20\n        /* \"#utility.yul\":34160:34161   */\n      0x00\n        /* \"#utility.yul\":34150:34168   */\n      keccak256\n        /* \"#utility.yul\":34142:34168   */\n      swap1\n      pop\n        /* \"#utility.yul\":34034:34175   */\n      swap2\n      swap1\n      pop\n      jump\t// out\n        /* \"#utility.yul\":34181:34318   */\n    tag_851:\n        /* \"#utility.yul\":34271:34277   */\n      0x00\n        /* \"#utility.yul\":34305:34310   */\n      dup2\n        /* \"#utility.yul\":34299:34311   */\n      mload\n        /* \"#utility.yul\":34289:34311   */\n      swap1\n      pop\n        /* \"#utility.yul\":34181:34318   */\n      swap2\n      swap1\n      pop\n      jump\t// out\n        /* \"#utility.yul\":34324:34458   */\n    tag_865:\n        /* \"#utility.yul\":34411:34417   */\n      0x00\n        /* \"#utility.yul\":34445:34450   */\n      dup2\n        /* \"#utility.yul\":34439:34451   */\n      mload\n        /* \"#utility.yul\":34429:34451   */\n      swap1\n      pop\n        /* \"#utility.yul\":34324:34458   */\n      swap2\n      swap1\n      pop\n      jump\t// out\n        /* \"#utility.yul\":34464:34610   */\n    tag_879:\n        /* \"#utility.yul\":34563:34569   */\n      0x00\n        /* \"#utility.yul\":34597:34602   */\n      dup2\n        /* \"#utility.yul\":34591:34603   */\n      mload\n        /* \"#utility.yul\":34581:34603   */\n      swap1\n      pop\n        /* \"#utility.yul\":34464:34610   */\n      swap2\n      swap1\n      pop\n      jump\t// out\n        /* \"#utility.yul\":34616:34772   */\n    tag_893:\n        /* \"#utility.yul\":34725:34731   */\n      0x00\n        /* \"#utility.yul\":34759:34764   */\n      dup2\n        /* \"#utility.yul\":34753:34765   */\n      mload\n        /* \"#utility.yul\":34743:34765   */\n      swap1\n      pop\n        /* \"#utility.yul\":34616:34772   */\n      swap2\n      swap1\n      pop\n      jump\t// out\n        /* \"#utility.yul\":34778:34912   */\n    tag_907:\n        /* \"#utility.yul\":34865:34871   */\n      0x00\n        /* \"#utility.yul\":34899:34904   */\n      dup2\n        /* \"#utility.yul\":34893:34905   */\n      mload\n        /* \"#utility.yul\":34883:34905   */\n      swap1\n      pop\n        /* \"#utility.yul\":34778:34912   */\n      swap2\n      swap1\n      pop\n      jump\t// out\n        /* \"#utility.yul\":34918:35017   */\n    tag_936:\n        /* \"#utility.yul\":34970:34976   */\n      0x00\n        /* \"#utility.yul\":35004:35009   */\n      dup2\n        /* \"#utility.yul\":34998:35010   */\n      mload\n        /* \"#utility.yul\":34988:35010   */\n      swap1\n      pop\n        /* \"#utility.yul\":34918:35017   */\n      swap2\n      swap1\n      pop\n      jump\t// out\n        /* \"#utility.yul\":35023:35159   */\n    tag_861:\n        /* \"#utility.yul\":35116:35120   */\n      0x00\n        /* \"#utility.yul\":35148:35152   */\n      0x20\n        /* \"#utility.yul\":35143:35146   */\n      dup3\n        /* \"#utility.yul\":35139:35153   */\n      add\n        /* \"#utility.yul\":35131:35153   */\n      swap1\n      pop\n        /* \"#utility.yul\":35023:35159   */\n      swap2\n      swap1\n      pop\n      jump\t// out\n        /* \"#utility.yul\":35165:35298   */\n    tag_875:\n        /* \"#utility.yul\":35255:35259   */\n      0x00\n        /* \"#utility.yul\":35287:35291   */\n      0x20\n        /* \"#utility.yul\":35282:35285   */\n      dup3\n        /* \"#utility.yul\":35278:35292   */\n      add\n        /* \"#utility.yul\":35270:35292   */\n      swap1\n      pop\n        /* \"#utility.yul\":35165:35298   */\n      swap2\n      swap1\n      pop\n      jump\t// out\n        /* \"#utility.yul\":35304:35449   */\n    tag_889:\n        /* \"#utility.yul\":35406:35410   */\n      0x00\n        /* \"#utility.yul\":35438:35442   */\n      0x20\n        /* \"#utility.yul\":35433:35436   */\n      dup3\n        /* \"#utility.yul\":35429:35443   */\n      add\n        /* \"#utility.yul\":35421:35443   */\n      swap1\n      pop\n        /* \"#utility.yul\":35304:35449   */\n      swap2\n      swap1\n      pop\n      jump\t// out\n        /* \"#utility.yul\":35455:35610   */\n    tag_903:\n        /* \"#utility.yul\":35567:35571   */\n      0x00\n        /* \"#utility.yul\":35599:35603   */\n      0x20\n        /* \"#utility.yul\":35594:35597   */\n      dup3\n        /* \"#utility.yul\":35590:35604   */\n      add\n        /* \"#utility.yul\":35582:35604   */\n      swap1\n      pop\n        /* \"#utility.yul\":35455:35610   */\n      swap2\n      swap1\n      pop\n      jump\t// out\n        /* \"#utility.yul\":35616:35749   */\n    tag_917:\n        /* \"#utility.yul\":35706:35710   */\n      0x00\n        /* \"#utility.yul\":35738:35742   */\n      0x20\n        /* \"#utility.yul\":35733:35736   */\n      dup3\n        /* \"#utility.yul\":35729:35743   */\n      add\n        /* \"#utility.yul\":35721:35743   */\n      swap1\n      pop\n        /* \"#utility.yul\":35616:35749   */\n      swap2\n      swap1\n      pop\n      jump\t// out\n        /* \"#utility.yul\":35755:35962   */\n    tag_853:\n        /* \"#utility.yul\":35877:35888   */\n      0x00\n        /* \"#utility.yul\":35911:35917   */\n      dup3\n        /* \"#utility.yul\":35906:35909   */\n      dup3\n        /* \"#utility.yul\":35899:35918   */\n      mstore\n        /* \"#utility.yul\":35951:35955   */\n      0x20\n        /* \"#utility.yul\":35946:35949   */\n      dup3\n        /* \"#utility.yul\":35942:35956   */\n      add\n        /* \"#utility.yul\":35927:35956   */\n      swap1\n      pop\n        /* \"#utility.yul\":35755:35962   */\n      swap3\n      swap2\n      pop\n      pop\n      jump\t// out\n        /* \"#utility.yul\":35968:36172   */\n    tag_867:\n        /* \"#utility.yul\":36087:36098   */\n      0x00\n        /* \"#utility.yul\":36121:36127   */\n      dup3\n        /* \"#utility.yul\":36116:36119   */\n      dup3\n        /* \"#utility.yul\":36109:36128   */\n      mstore\n        /* \"#utility.yul\":36161:36165   */\n      0x20\n        /* \"#utility.yul\":36156:36159   */\n      dup3\n        /* \"#utility.yul\":36152:36166   */\n      add\n        /* \"#utility.yul\":36137:36166   */\n      swap1\n      pop\n        /* \"#utility.yul\":35968:36172   */\n      swap3\n      swap2\n      pop\n      pop\n      jump\t// out\n        /* \"#utility.yul\":36178:36394   */\n    tag_881:\n        /* \"#utility.yul\":36309:36320   */\n      0x00\n        /* \"#utility.yul\":36343:36349   */\n      dup3\n        /* \"#utility.yul\":36338:36341   */\n      dup3\n        /* \"#utility.yul\":36331:36350   */\n      mstore\n        /* \"#utility.yul\":36383:36387   */\n      0x20\n        /* \"#utility.yul\":36378:36381   */\n      dup3\n        /* \"#utility.yul\":36374:36388   */\n      add\n        /* \"#utility.yul\":36359:36388   */\n      swap1\n      pop\n        /* \"#utility.yul\":36178:36394   */\n      swap3\n      swap2\n      pop\n      pop\n      jump\t// out\n        /* \"#utility.yul\":36400:36626   */\n    tag_895:\n        /* \"#utility.yul\":36541:36552   */\n      0x00\n        /* \"#utility.yul\":36575:36581   */\n      dup3\n        /* \"#utility.yul\":36570:36573   */\n      dup3\n        /* \"#utility.yul\":36563:36582   */\n      mstore\n        /* \"#utility.yul\":36615:36619   */\n      0x20\n        /* \"#utility.yul\":36610:36613   */\n      dup3\n        /* \"#utility.yul\":36606:36620   */\n      add\n        /* \"#utility.yul\":36591:36620   */\n      swap1\n      pop\n        /* \"#utility.yul\":36400:36626   */\n      swap3\n      swap2\n      pop\n      pop\n      jump\t// out\n        /* \"#utility.yul\":36632:36836   */\n    tag_909:\n        /* \"#utility.yul\":36751:36762   */\n      0x00\n        /* \"#utility.yul\":36785:36791   */\n      dup3\n        /* \"#utility.yul\":36780:36783   */\n      dup3\n        /* \"#utility.yul\":36773:36792   */\n      mstore\n        /* \"#utility.yul\":36825:36829   */\n      0x20\n        /* \"#utility.yul\":36820:36823   */\n      dup3\n        /* \"#utility.yul\":36816:36830   */\n      add\n        /* \"#utility.yul\":36801:36830   */\n      swap1\n      pop\n        /* \"#utility.yul\":36632:36836   */\n      swap3\n      swap2\n      pop\n      pop\n      jump\t// out\n        /* \"#utility.yul\":36842:37001   */\n    tag_938:\n        /* \"#utility.yul\":36916:36927   */\n      0x00\n        /* \"#utility.yul\":36950:36956   */\n      dup3\n        /* \"#utility.yul\":36945:36948   */\n      dup3\n        /* \"#utility.yul\":36938:36957   */\n      mstore\n        /* \"#utility.yul\":36990:36994   */\n      0x20\n        /* \"#utility.yul\":36985:36988   */\n      dup3\n        /* \"#utility.yul\":36981:36995   */\n      add\n        /* \"#utility.yul\":36966:36995   */\n      swap1\n      pop\n        /* \"#utility.yul\":36842:37001   */\n      swap3\n      swap2\n      pop\n      pop\n      jump\t// out\n        /* \"#utility.yul\":37007:37176   */\n    tag_947:\n        /* \"#utility.yul\":37091:37102   */\n      0x00\n        /* \"#utility.yul\":37125:37131   */\n      dup3\n        /* \"#utility.yul\":37120:37123   */\n      dup3\n        /* \"#utility.yul\":37113:37132   */\n      mstore\n        /* \"#utility.yul\":37165:37169   */\n      0x20\n        /* \"#utility.yul\":37160:37163   */\n      dup3\n        /* \"#utility.yul\":37156:37170   */\n      add\n        /* \"#utility.yul\":37141:37170   */\n      swap1\n      pop\n        /* \"#utility.yul\":37007:37176   */\n      swap3\n      swap2\n      pop\n      pop\n      jump\t// out\n        /* \"#utility.yul\":37182:37330   */\n    tag_954:\n        /* \"#utility.yul\":37284:37295   */\n      0x00\n        /* \"#utility.yul\":37321:37324   */\n      dup2\n        /* \"#utility.yul\":37306:37324   */\n      swap1\n      pop\n        /* \"#utility.yul\":37182:37330   */\n      swap3\n      swap2\n      pop\n      pop\n      jump\t// out\n        /* \"#utility.yul\":37336:37641   */\n    tag_154:\n        /* \"#utility.yul\":37376:37379   */\n      0x00\n        /* \"#utility.yul\":37395:37415   */\n      tag_1099\n        /* \"#utility.yul\":37413:37414   */\n      dup3\n        /* \"#utility.yul\":37395:37415   */\n      tag_1025\n      jump\t// in\n    tag_1099:\n        /* \"#utility.yul\":37390:37415   */\n      swap2\n      pop\n        /* \"#utility.yul\":37429:37449   */\n      tag_1100\n        /* \"#utility.yul\":37447:37448   */\n      dup4\n        /* \"#utility.yul\":37429:37449   */\n      tag_1025\n      jump\t// in\n    tag_1100:\n        /* \"#utility.yul\":37424:37449   */\n      swap3\n      pop\n        /* \"#utility.yul\":37583:37584   */\n      dup3\n        /* \"#utility.yul\":37515:37581   */\n      0xffffffffffffffffffffffffffffffffffffffffffffffffffffffffffffffff\n        /* \"#utility.yul\":37511:37585   */\n      sub\n        /* \"#utility.yul\":37508:37509   */\n      dup3\n        /* \"#utility.yul\":37505:37586   */\n      gt\n        /* \"#utility.yul\":37502:37609   */\n      iszero\n      tag_1101\n      jumpi\n        /* \"#utility.yul\":37589:37607   */\n      tag_1102\n      tag_1103\n      jump\t// in\n    tag_1102:\n        /* \"#utility.yul\":37502:37609   */\n    tag_1101:\n        /* \"#utility.yul\":37633:37634   */\n      dup3\n        /* \"#utility.yul\":37630:37631   */\n      dup3\n        /* \"#utility.yul\":37626:37635   */\n      add\n        /* \"#utility.yul\":37619:37635   */\n      swap1\n      pop\n        /* \"#utility.yul\":37336:37641   */\n      swap3\n      swap2\n      pop\n      pop\n      jump\t// out\n        /* \"#utility.yul\":37647:37838   */\n    tag_441:\n        /* \"#utility.yul\":37687:37691   */\n      0x00\n        /* \"#utility.yul\":37707:37727   */\n      tag_1105\n        /* \"#utility.yul\":37725:37726   */\n      dup3\n        /* \"#utility.yul\":37707:37727   */\n      tag_1025\n      jump\t// in\n    tag_1105:\n        /* \"#utility.yul\":37702:37727   */\n      swap2\n      pop\n        /* \"#utility.yul\":37741:37761   */\n      tag_1106\n        /* \"#utility.yul\":37759:37760   */\n      dup4\n        /* \"#utility.yul\":37741:37761   */\n      tag_1025\n      jump\t// in\n    tag_1106:\n        /* \"#utility.yul\":37736:37761   */\n      swap3\n      pop\n        /* \"#utility.yul\":37780:37781   */\n      dup3\n        /* \"#utility.yul\":37777:37778   */\n      dup3\n        /* \"#utility.yul\":37774:37782   */\n      lt\n        /* \"#utility.yul\":37771:37805   */\n      iszero\n      tag_1107\n      jumpi\n        /* \"#utility.yul\":37785:37803   */\n      tag_1108\n      tag_1103\n      jump\t// in\n    tag_1108:\n        /* \"#utility.yul\":37771:37805   */\n    tag_1107:\n        /* \"#utility.yul\":37830:37831   */\n      dup3\n        /* \"#utility.yul\":37827:37828   */\n      dup3\n        /* \"#utility.yul\":37823:37832   */\n      sub\n        /* \"#utility.yul\":37815:37832   */\n      swap1\n      pop\n        /* \"#utility.yul\":37647:37838   */\n      swap3\n      swap2\n      pop\n      pop\n      jump\t// out\n        /* \"#utility.yul\":37844:37940   */\n    tag_844:\n        /* \"#utility.yul\":37881:37888   */\n      0x00\n        /* \"#utility.yul\":37910:37934   */\n      tag_1110\n        /* \"#utility.yul\":37928:37933   */\n      dup3\n        /* \"#utility.yul\":37910:37934   */\n      tag_1111\n      jump\t// in\n    tag_1110:\n        /* \"#utility.yul\":37899:37934   */\n      swap1\n      pop\n        /* \"#utility.yul\":37844:37940   */\n      swap2\n      swap1\n      pop\n      jump\t// out\n        /* \"#utility.yul\":37946:38036   */\n    tag_921:\n        /* \"#utility.yul\":37980:37987   */\n      0x00\n        /* \"#utility.yul\":38023:38028   */\n      dup2\n        /* \"#utility.yul\":38016:38029   */\n      iszero\n        /* \"#utility.yul\":38009:38030   */\n      iszero\n        /* \"#utility.yul\":37998:38030   */\n      swap1\n      pop\n        /* \"#utility.yul\":37946:38036   */\n      swap2\n      swap1\n      pop\n      jump\t// out\n        /* \"#utility.yul\":38042:38173   */\n    tag_1113:\n        /* \"#utility.yul\":38089:38096   */\n      0x00\n        /* \"#utility.yul\":38118:38123   */\n      dup2\n        /* \"#utility.yul\":38107:38123   */\n      swap1\n      pop\n        /* \"#utility.yul\":38124:38167   */\n      tag_1115\n        /* \"#utility.yul\":38161:38166   */\n      dup3\n        /* \"#utility.yul\":38124:38167   */\n      tag_1116\n      jump\t// in\n    tag_1115:\n        /* \"#utility.yul\":38042:38173   */\n      swap2\n      swap1\n      pop\n      jump\t// out\n        /* \"#utility.yul\":38179:38314   */\n    tag_1117:\n        /* \"#utility.yul\":38228:38235   */\n      0x00\n        /* \"#utility.yul\":38257:38262   */\n      dup2\n        /* \"#utility.yul\":38246:38262   */\n      swap1\n      pop\n        /* \"#utility.yul\":38263:38308   */\n      tag_1119\n        /* \"#utility.yul\":38302:38307   */\n      dup3\n        /* \"#utility.yul\":38263:38308   */\n      tag_1120\n      jump\t// in\n    tag_1119:\n        /* \"#utility.yul\":38179:38314   */\n      swap2\n      swap1\n      pop\n      jump\t// out\n        /* \"#utility.yul\":38320:38446   */\n    tag_1111:\n        /* \"#utility.yul\":38357:38364   */\n      0x00\n        /* \"#utility.yul\":38397:38439   */\n      0xffffffffffffffffffffffffffffffffffffffff\n        /* \"#utility.yul\":38390:38395   */\n      dup3\n        /* \"#utility.yul\":38386:38440   */\n      and\n        /* \"#utility.yul\":38375:38440   */\n      swap1\n      pop\n        /* \"#utility.yul\":38320:38446   */\n      swap2\n      swap1\n      pop\n      jump\t// out\n        /* \"#utility.yul\":38452:38529   */\n    tag_1025:\n        /* \"#utility.yul\":38489:38496   */\n      0x00\n        /* \"#utility.yul\":38518:38523   */\n      dup2\n        /* \"#utility.yul\":38507:38523   */\n      swap1\n      pop\n        /* \"#utility.yul\":38452:38529   */\n      swap2\n      swap1\n      pop\n      jump\t// out\n        /* \"#utility.yul\":38535:38666   */\n    tag_925:\n        /* \"#utility.yul\":38593:38602   */\n      0x00\n        /* \"#utility.yul\":38626:38660   */\n      tag_1124\n        /* \"#utility.yul\":38654:38659   */\n      dup3\n        /* \"#utility.yul\":38626:38660   */\n      tag_1113\n      jump\t// in\n    tag_1124:\n        /* \"#utility.yul\":38613:38660   */\n      swap1\n      pop\n        /* \"#utility.yul\":38535:38666   */\n      swap2\n      swap1\n      pop\n      jump\t// out\n        /* \"#utility.yul\":38672:38807   */\n    tag_929:\n        /* \"#utility.yul\":38732:38741   */\n      0x00\n        /* \"#utility.yul\":38765:38801   */\n      tag_1126\n        /* \"#utility.yul\":38795:38800   */\n      dup3\n        /* \"#utility.yul\":38765:38801   */\n      tag_1117\n      jump\t// in\n    tag_1126:\n        /* \"#utility.yul\":38752:38801   */\n      swap1\n      pop\n        /* \"#utility.yul\":38672:38807   */\n      swap2\n      swap1\n      pop\n      jump\t// out\n        /* \"#utility.yul\":38813:38967   */\n    tag_755:\n        /* \"#utility.yul\":38897:38903   */\n      dup3\n        /* \"#utility.yul\":38892:38895   */\n      dup2\n        /* \"#utility.yul\":38887:38890   */\n      dup4\n        /* \"#utility.yul\":38874:38904   */\n      calldatacopy\n        /* \"#utility.yul\":38959:38960   */\n      0x00\n        /* \"#utility.yul\":38950:38956   */\n      dup4\n        /* \"#utility.yul\":38945:38948   */\n      dup4\n        /* \"#utility.yul\":38941:38957   */\n      add\n        /* \"#utility.yul\":38934:38961   */\n      mstore\n        /* \"#utility.yul\":38813:38967   */\n      pop\n      pop\n      pop\n      jump\t// out\n        /* \"#utility.yul\":38973:39280   */\n    tag_940:\n        /* \"#utility.yul\":39041:39042   */\n      0x00\n        /* \"#utility.yul\":39051:39164   */\n    tag_1129:\n        /* \"#utility.yul\":39065:39071   */\n      dup4\n        /* \"#utility.yul\":39062:39063   */\n      dup2\n        /* \"#utility.yul\":39059:39072   */\n      lt\n        /* \"#utility.yul\":39051:39164   */\n      iszero\n      tag_1131\n      jumpi\n        /* \"#utility.yul\":39150:39151   */\n      dup1\n        /* \"#utility.yul\":39145:39148   */\n      dup3\n        /* \"#utility.yul\":39141:39152   */\n      add\n        /* \"#utility.yul\":39135:39153   */\n      mload\n        /* \"#utility.yul\":39131:39132   */\n      dup2\n        /* \"#utility.yul\":39126:39129   */\n      dup5\n        /* \"#utility.yul\":39122:39133   */\n      add\n        /* \"#utility.yul\":39115:39154   */\n      mstore\n        /* \"#utility.yul\":39087:39089   */\n      0x20\n        /* \"#utility.yul\":39084:39085   */\n      dup2\n        /* \"#utility.yul\":39080:39090   */\n      add\n        /* \"#utility.yul\":39075:39090   */\n      swap1\n      pop\n        /* \"#utility.yul\":39051:39164   */\n      jump(tag_1129)\n    tag_1131:\n        /* \"#utility.yul\":39182:39188   */\n      dup4\n        /* \"#utility.yul\":39179:39180   */\n      dup2\n        /* \"#utility.yul\":39176:39189   */\n      gt\n        /* \"#utility.yul\":39173:39274   */\n      iszero\n      tag_1132\n      jumpi\n        /* \"#utility.yul\":39262:39263   */\n      0x00\n        /* \"#utility.yul\":39253:39259   */\n      dup5\n        /* \"#utility.yul\":39248:39251   */\n      dup5\n        /* \"#utility.yul\":39244:39260   */\n      add\n        /* \"#utility.yul\":39237:39264   */\n      mstore\n        /* \"#utility.yul\":39173:39274   */\n    tag_1132:\n        /* \"#utility.yul\":39022:39280   */\n      pop\n        /* \"#utility.yul\":38973:39280   */\n      pop\n      pop\n      pop\n      jump\t// out\n        /* \"#utility.yul\":39286:39606   */\n    tag_123:\n        /* \"#utility.yul\":39330:39336   */\n      0x00\n        /* \"#utility.yul\":39367:39368   */\n      0x02\n        /* \"#utility.yul\":39361:39365   */\n      dup3\n        /* \"#utility.yul\":39357:39369   */\n      div\n        /* \"#utility.yul\":39347:39369   */\n      swap1\n      pop\n        /* \"#utility.yul\":39414:39415   */\n      0x01\n        /* \"#utility.yul\":39408:39412   */\n      dup3\n        /* \"#utility.yul\":39404:39416   */\n      and\n        /* \"#utility.yul\":39435:39453   */\n      dup1\n        /* \"#utility.yul\":39425:39506   */\n      tag_1134\n      jumpi\n        /* \"#utility.yul\":39491:39495   */\n      0x7f\n        /* \"#utility.yul\":39483:39489   */\n      dup3\n        /* \"#utility.yul\":39479:39496   */\n      and\n        /* \"#utility.yul\":39469:39496   */\n      swap2\n      pop\n        /* \"#utility.yul\":39425:39506   */\n    tag_1134:\n        /* \"#utility.yul\":39553:39555   */\n      0x20\n        /* \"#utility.yul\":39545:39551   */\n      dup3\n        /* \"#utility.yul\":39542:39556   */\n      lt\n        /* \"#utility.yul\":39522:39540   */\n      dup2\n        /* \"#utility.yul\":39519:39557   */\n      eq\n        /* \"#utility.yul\":39516:39600   */\n      iszero\n      tag_1135\n      jumpi\n        /* \"#utility.yul\":39572:39590   */\n      tag_1136\n      tag_1137\n      jump\t// in\n    tag_1136:\n        /* \"#utility.yul\":39516:39600   */\n    tag_1135:\n        /* \"#utility.yul\":39337:39606   */\n      pop\n        /* \"#utility.yul\":39286:39606   */\n      swap2\n      swap1\n      pop\n      jump\t// out\n        /* \"#utility.yul\":39612:39893   */\n    tag_1067:\n        /* \"#utility.yul\":39695:39722   */\n      tag_1139\n        /* \"#utility.yul\":39717:39721   */\n      dup3\n        /* \"#utility.yul\":39695:39722   */\n      tag_942\n      jump\t// in\n    tag_1139:\n        /* \"#utility.yul\":39687:39693   */\n      dup2\n        /* \"#utility.yul\":39683:39723   */\n      add\n        /* \"#utility.yul\":39825:39831   */\n      dup2\n        /* \"#utility.yul\":39813:39823   */\n      dup2\n        /* \"#utility.yul\":39810:39832   */\n      lt\n        /* \"#utility.yul\":39789:39807   */\n      0xffffffffffffffff\n        /* \"#utility.yul\":39777:39787   */\n      dup3\n        /* \"#utility.yul\":39774:39808   */\n      gt\n        /* \"#utility.yul\":39771:39833   */\n      or\n        /* \"#utility.yul\":39768:39856   */\n      iszero\n      tag_1140\n      jumpi\n        /* \"#utility.yul\":39836:39854   */\n      tag_1141\n      tag_101\n      jump\t// in\n    tag_1141:\n        /* \"#utility.yul\":39768:39856   */\n    tag_1140:\n        /* \"#utility.yul\":39876:39886   */\n      dup1\n        /* \"#utility.yul\":39872:39874   */\n      0x40\n        /* \"#utility.yul\":39865:39887   */\n      mstore\n        /* \"#utility.yul\":39655:39893   */\n      pop\n        /* \"#utility.yul\":39612:39893   */\n      pop\n      pop\n      jump\t// out\n        /* \"#utility.yul\":39899:40132   */\n    tag_156:\n        /* \"#utility.yul\":39938:39941   */\n      0x00\n        /* \"#utility.yul\":39961:39985   */\n      tag_1143\n        /* \"#utility.yul\":39979:39984   */\n      dup3\n        /* \"#utility.yul\":39961:39985   */\n      tag_1025\n      jump\t// in\n    tag_1143:\n        /* \"#utility.yul\":39952:39985   */\n      swap2\n      pop\n        /* \"#utility.yul\":40007:40073   */\n      0xffffffffffffffffffffffffffffffffffffffffffffffffffffffffffffffff\n        /* \"#utility.yul\":40000:40005   */\n      dup3\n        /* \"#utility.yul\":39997:40074   */\n      eq\n        /* \"#utility.yul\":39994:40097   */\n      iszero\n      tag_1144\n      jumpi\n        /* \"#utility.yul\":40077:40095   */\n      tag_1145\n      tag_1103\n      jump\t// in\n    tag_1145:\n        /* \"#utility.yul\":39994:40097   */\n    tag_1144:\n        /* \"#utility.yul\":40124:40125   */\n      0x01\n        /* \"#utility.yul\":40117:40122   */\n      dup3\n        /* \"#utility.yul\":40113:40126   */\n      add\n        /* \"#utility.yul\":40106:40126   */\n      swap1\n      pop\n        /* \"#utility.yul\":39899:40132   */\n      swap2\n      swap1\n      pop\n      jump\t// out\n        /* \"#utility.yul\":40138:40318   */\n    tag_1103:\n        /* \"#utility.yul\":40186:40263   */\n      0x4e487b7100000000000000000000000000000000000000000000000000000000\n        /* \"#utility.yul\":40183:40184   */\n      0x00\n        /* \"#utility.yul\":40176:40264   */\n      mstore\n        /* \"#utility.yul\":40283:40287   */\n      0x11\n        /* \"#utility.yul\":40280:40281   */\n      0x04\n        /* \"#utility.yul\":40273:40288   */\n      mstore\n        /* \"#utility.yul\":40307:40311   */\n      0x24\n        /* \"#utility.yul\":40304:40305   */\n      0x00\n        /* \"#utility.yul\":40297:40312   */\n      revert\n        /* \"#utility.yul\":40324:40504   */\n    tag_111:\n        /* \"#utility.yul\":40372:40449   */\n      0x4e487b7100000000000000000000000000000000000000000000000000000000\n        /* \"#utility.yul\":40369:40370   */\n      0x00\n        /* \"#utility.yul\":40362:40450   */\n      mstore\n        /* \"#utility.yul\":40469:40473   */\n      0x21\n        /* \"#utility.yul\":40466:40467   */\n      0x04\n        /* \"#utility.yul\":40459:40474   */\n      mstore\n        /* \"#utility.yul\":40493:40497   */\n      0x24\n        /* \"#utility.yul\":40490:40491   */\n      0x00\n        /* \"#utility.yul\":40483:40498   */\n      revert\n        /* \"#utility.yul\":40510:40690   */\n    tag_1137:\n        /* \"#utility.yul\":40558:40635   */\n      0x4e487b7100000000000000000000000000000000000000000000000000000000\n        /* \"#utility.yul\":40555:40556   */\n      0x00\n        /* \"#utility.yul\":40548:40636   */\n      mstore\n        /* \"#utility.yul\":40655:40659   */\n      0x22\n        /* \"#utility.yul\":40652:40653   */\n      0x04\n        /* \"#utility.yul\":40645:40660   */\n      mstore\n        /* \"#utility.yul\":40679:40683   */\n      0x24\n        /* \"#utility.yul\":40676:40677   */\n      0x00\n        /* \"#utility.yul\":40669:40684   */\n      revert\n        /* \"#utility.yul\":40696:40876   */\n    tag_114:\n        /* \"#utility.yul\":40744:40821   */\n      0x4e487b7100000000000000000000000000000000000000000000000000000000\n        /* \"#utility.yul\":40741:40742   */\n      0x00\n        /* \"#utility.yul\":40734:40822   */\n      mstore\n        /* \"#utility.yul\":40841:40845   */\n      0x32\n        /* \"#utility.yul\":40838:40839   */\n      0x04\n        /* \"#utility.yul\":40831:40846   */\n      mstore\n        /* \"#utility.yul\":40865:40869   */\n      0x24\n        /* \"#utility.yul\":40862:40863   */\n      0x00\n        /* \"#utility.yul\":40855:40870   */\n      revert\n        /* \"#utility.yul\":40882:41062   */\n    tag_101:\n        /* \"#utility.yul\":40930:41007   */\n      0x4e487b7100000000000000000000000000000000000000000000000000000000\n        /* \"#utility.yul\":40927:40928   */\n      0x00\n        /* \"#utility.yul\":40920:41008   */\n      mstore\n        /* \"#utility.yul\":41027:41031   */\n      0x41\n        /* \"#utility.yul\":41024:41025   */\n      0x04\n        /* \"#utility.yul\":41017:41032   */\n      mstore\n        /* \"#utility.yul\":41051:41055   */\n      0x24\n        /* \"#utility.yul\":41048:41049   */\n      0x00\n        /* \"#utility.yul\":41041:41056   */\n      revert\n        /* \"#utility.yul\":41068:41185   */\n    tag_772:\n        /* \"#utility.yul\":41177:41178   */\n      0x00\n        /* \"#utility.yul\":41174:41175   */\n      dup1\n        /* \"#utility.yul\":41167:41179   */\n      revert\n        /* \"#utility.yul\":41191:41308   */\n    tag_753:\n        /* \"#utility.yul\":41300:41301   */\n      0x00\n        /* \"#utility.yul\":41297:41298   */\n      dup1\n        /* \"#utility.yul\":41290:41302   */\n      revert\n        /* \"#utility.yul\":41314:41431   */\n    tag_796:\n        /* \"#utility.yul\":41423:41424   */\n      0x00\n        /* \"#utility.yul\":41420:41421   */\n      dup1\n        /* \"#utility.yul\":41413:41425   */\n      revert\n        /* \"#utility.yul\":41437:41554   */\n    tag_781:\n        /* \"#utility.yul\":41546:41547   */\n      0x00\n        /* \"#utility.yul\":41543:41544   */\n      dup1\n        /* \"#utility.yul\":41536:41548   */\n      revert\n        /* \"#utility.yul\":41560:41662   */\n    tag_942:\n        /* \"#utility.yul\":41601:41607   */\n      0x00\n        /* \"#utility.yul\":41652:41654   */\n      0x1f\n        /* \"#utility.yul\":41648:41655   */\n      not\n        /* \"#utility.yul\":41643:41645   */\n      0x1f\n        /* \"#utility.yul\":41636:41641   */\n      dup4\n        /* \"#utility.yul\":41632:41646   */\n      add\n        /* \"#utility.yul\":41628:41656   */\n      and\n        /* \"#utility.yul\":41618:41656   */\n      swap1\n      pop\n        /* \"#utility.yul\":41560:41662   */\n      swap2\n      swap1\n      pop\n      jump\t// out\n        /* \"#utility.yul\":41668:41783   */\n    tag_1116:\n        /* \"#utility.yul\":41751:41752   */\n      0x03\n        /* \"#utility.yul\":41744:41749   */\n      dup2\n        /* \"#utility.yul\":41741:41753   */\n      lt\n        /* \"#utility.yul\":41731:41777   */\n      tag_1157\n      jumpi\n        /* \"#utility.yul\":41757:41775   */\n      tag_1158\n      tag_111\n      jump\t// in\n    tag_1158:\n        /* \"#utility.yul\":41731:41777   */\n    tag_1157:\n        /* \"#utility.yul\":41668:41783   */\n      pop\n      jump\t// out\n        /* \"#utility.yul\":41789:41906   */\n    tag_1120:\n        /* \"#utility.yul\":41874:41875   */\n      0x09\n        /* \"#utility.yul\":41867:41872   */\n      dup2\n        /* \"#utility.yul\":41864:41876   */\n      lt\n        /* \"#utility.yul\":41854:41900   */\n      tag_1160\n      jumpi\n        /* \"#utility.yul\":41880:41898   */\n      tag_1161\n      tag_111\n      jump\t// in\n    tag_1161:\n        /* \"#utility.yul\":41854:41900   */\n    tag_1160:\n        /* \"#utility.yul\":41789:41906   */\n      pop\n      jump\t// out\n        /* \"#utility.yul\":41912:42034   */\n    tag_759:\n        /* \"#utility.yul\":41985:42009   */\n      tag_1163\n        /* \"#utility.yul\":42003:42008   */\n      dup2\n        /* \"#utility.yul\":41985:42009   */\n      tag_844\n      jump\t// in\n    tag_1163:\n        /* \"#utility.yul\":41978:41983   */\n      dup2\n        /* \"#utility.yul\":41975:42010   */\n      eq\n        /* \"#utility.yul\":41965:42028   */\n      tag_1164\n      jumpi\n        /* \"#utility.yul\":42024:42025   */\n      0x00\n        /* \"#utility.yul\":42021:42022   */\n      dup1\n        /* \"#utility.yul\":42014:42026   */\n      revert\n        /* \"#utility.yul\":41965:42028   */\n    tag_1164:\n        /* \"#utility.yul\":41912:42034   */\n      pop\n      jump\t// out\n        /* \"#utility.yul\":42040:42149   */\n    tag_763:\n        /* \"#utility.yul\":42123:42124   */\n      0x03\n        /* \"#utility.yul\":42116:42121   */\n      dup2\n        /* \"#utility.yul\":42113:42125   */\n      lt\n        /* \"#utility.yul\":42103:42143   */\n      tag_1166\n      jumpi\n        /* \"#utility.yul\":42139:42140   */\n      0x00\n        /* \"#utility.yul\":42136:42137   */\n      dup1\n        /* \"#utility.yul\":42129:42141   */\n      revert\n        /* \"#utility.yul\":42103:42143   */\n    tag_1166:\n        /* \"#utility.yul\":42040:42149   */\n      pop\n      jump\t// out\n        /* \"#utility.yul\":42155:42266   */\n    tag_767:\n        /* \"#utility.yul\":42240:42241   */\n      0x09\n        /* \"#utility.yul\":42233:42238   */\n      dup2\n        /* \"#utility.yul\":42230:42242   */\n      lt\n        /* \"#utility.yul\":42220:42260   */\n      tag_1168\n      jumpi\n        /* \"#utility.yul\":42256:42257   */\n      0x00\n        /* \"#utility.yul\":42253:42254   */\n      dup1\n        /* \"#utility.yul\":42246:42258   */\n      revert\n        /* \"#utility.yul\":42220:42260   */\n    tag_1168:\n        /* \"#utility.yul\":42155:42266   */\n      pop\n      jump\t// out\n        /* \"#utility.yul\":42272:42394   */\n    tag_777:\n        /* \"#utility.yul\":42345:42369   */\n      tag_1170\n        /* \"#utility.yul\":42363:42368   */\n      dup2\n        /* \"#utility.yul\":42345:42369   */\n      tag_1025\n      jump\t// in\n    tag_1170:\n        /* \"#utility.yul\":42338:42343   */\n      dup2\n        /* \"#utility.yul\":42335:42370   */\n      eq\n        /* \"#utility.yul\":42325:42388   */\n      tag_1171\n      jumpi\n        /* \"#utility.yul\":42384:42385   */\n      0x00\n        /* \"#utility.yul\":42381:42382   */\n      dup1\n        /* \"#utility.yul\":42374:42386   */\n      revert\n        /* \"#utility.yul\":42325:42388   */\n    tag_1171:\n        /* \"#utility.yul\":42272:42394   */\n      pop\n      jump\t// out\n\n    auxdata: 0xa2646970667358221220bb0e439db3ad4e648c4535c9e91e6aacb0a682cbfc15b0a013097b93ae8159e764736f6c63430008070033\n}\n",
				"bytecode": {
					"linkReferences": {},
					"object": "608060405234801561001057600080fd5b506150e0806100206000396000f3fe608060405234801561001057600080fd5b50600436106100f55760003560e01c80637a53c53511610097578063cd1720d111610066578063cd1720d1146102ec578063cdf7e73d1461031c578063e9a734ff1461034c578063ff946c851461037c576100f5565b80637a53c5351461023e57806399b5bbdd1461026e578063a72709811461029e578063b4a99a4e146102ce576100f5565b806340d37caf116100d357806340d37caf146101905780634b2d14aa146101c0578063783a7895146101f0578063798d21221461020e576100f5565b80630f9de977146100fa5780631567697c1461012a57806331a6db4d14610160575b600080fd5b610114600480360381019061010f9190613f07565b6103ac565b6040516101219190614a26565b60405180910390f35b610144600480360381019061013f9190614080565b61096d565b6040516101579796959493929190614a7e565b60405180910390f35b61017a60048036038101906101759190613ff5565b610b0f565b60405161018791906149e2565b60405180910390f35b6101aa60048036038101906101a59190613f7d565b61110e565b6040516101b79190614a04565b60405180910390f35b6101da60048036038101906101d59190613f34565b611b8b565b6040516101e791906149e2565b60405180910390f35b6101f8611fd2565b6040516102059190614a63565b60405180910390f35b61022860048036038101906102239190613ff5565b612129565b6040516102359190614b3f565b60405180910390f35b61025860048036038101906102539190613eda565b612219565b6040516102659190614a26565b60405180910390f35b61028860048036038101906102839190613ead565b6127da565b60405161029591906149e2565b60405180910390f35b6102b860048036038101906102b39190613eda565b612bde565b6040516102c5919061499e565b60405180910390f35b6102d66131e8565b6040516102e39190614983565b60405180910390f35b61030660048036038101906103019190613ead565b61320c565b6040516103139190614b1d565b60405180910390f35b61033660048036038101906103319190613f34565b613579565b6040516103439190614afb565b60405180910390f35b61036660048036038101906103619190613f7d565b613766565b6040516103739190614a48565b60405180910390f35b61039660048036038101906103919190613ead565b6137bf565b6040516103a391906149c0565b60405180910390f35b60606000600280549050905060008167ffffffffffffffff8111156103d4576103d3614fe0565b5b60405190808252806020026020018201604052801561040d57816020015b6103fa613bb8565b8152602001906001900390816103f25790505b509050600080600090505b838110156108b65785600881111561043357610432614f53565b5b600160006002848154811061044b5761044a614fb1565b5b9060005260206000200160009054906101000a900473ffffffffffffffffffffffffffffffffffffffff1673ffffffffffffffffffffffffffffffffffffffff1673ffffffffffffffffffffffffffffffffffffffff16815260200190815260200160002060020160009054906101000a900460ff1660088111156104d3576104d2614f53565b5b14156108a35760016000600283815481106104f1576104f0614fb1565b5b9060005260206000200160009054906101000a900473ffffffffffffffffffffffffffffffffffffffff1673ffffffffffffffffffffffffffffffffffffffff1673ffffffffffffffffffffffffffffffffffffffff1681526020019081526020016000206040518060e001604052908160008201805461057190614e78565b80601f016020809104026020016040519081016040528092919081815260200182805461059d90614e78565b80156105ea5780601f106105bf576101008083540402835291602001916105ea565b820191906000526020600020905b8154815290600101906020018083116105cd57829003601f168201915b5050505050815260200160018201805461060390614e78565b80601f016020809104026020016040519081016040528092919081815260200182805461062f90614e78565b801561067c5780601f106106515761010080835404028352916020019161067c565b820191906000526020600020905b81548152906001019060200180831161065f57829003601f168201915b505050505081526020016002820160009054906101000a900460ff1660088111156106aa576106a9614f53565b5b60088111156106bc576106bb614f53565b5b81526020016002820160019054906101000a900460ff1660028111156106e5576106e4614f53565b5b60028111156106f7576106f6614f53565b5b815260200160038201805461070b90614e78565b80601f016020809104026020016040519081016040528092919081815260200182805461073790614e78565b80156107845780601f1061075957610100808354040283529160200191610784565b820191906000526020600020905b81548152906001019060200180831161076757829003601f168201915b5050505050815260200160048201805461079d90614e78565b80601f01602080910402602001604051908101604052809291908181526020018280546107c990614e78565b80156108165780601f106107eb57610100808354040283529160200191610816565b820191906000526020600020905b8154815290600101906020018083116107f957829003601f168201915b505050505081526020016005820160009054906101000a900473ffffffffffffffffffffffffffffffffffffffff1673ffffffffffffffffffffffffffffffffffffffff1673ffffffffffffffffffffffffffffffffffffffff168152505083838151811061088857610887614fb1565b5b60200260200101819052506001826108a09190614d1a565b91505b80806108ae90614edb565b915050610418565b508067ffffffffffffffff8111156108d1576108d0614fe0565b5b60405190808252806020026020018201604052801561090a57816020015b6108f7613bb8565b8152602001906001900390816108ef5790505b50935060005b818110156109645782818151811061092b5761092a614fb1565b5b602002602001015185828151811061094657610945614fb1565b5b6020026020010181905250808061095c90614edb565b915050610910565b50505050919050565b6005818154811061097d57600080fd5b90600052602060002090600702016000915090508060000180546109a090614e78565b80601f01602080910402602001604051908101604052809291908181526020018280546109cc90614e78565b8015610a195780601f106109ee57610100808354040283529160200191610a19565b820191906000526020600020905b8154815290600101906020018083116109fc57829003601f168201915b505050505090806001018054610a2e90614e78565b80601f0160208091040260200160405190810160405280929190818152602001828054610a5a90614e78565b8015610aa75780601f10610a7c57610100808354040283529160200191610aa7565b820191906000526020600020905b815481529060010190602001808311610a8a57829003601f168201915b5050505050908060020154908060030160009054906101000a900473ffffffffffffffffffffffffffffffffffffffff16908060040160009054906101000a900473ffffffffffffffffffffffffffffffffffffffff16908060050154908060060154905087565b606060008060058054905067ffffffffffffffff811115610b3357610b32614fe0565b5b604051908082528060200260200182016040528015610b6c57816020015b610b59613c2f565b815260200190600190039081610b515790505b50905060005b60058054905081101561104c57610c3660058281548110610b9657610b95614fb1565b5b90600052602060002090600702016001018054610bb290614e78565b80601f0160208091040260200160405190810160405280929190818152602001828054610bde90614e78565b8015610c2b5780601f10610c0057610100808354040283529160200191610c2b565b820191906000526020600020905b815481529060010190602001808311610c0e57829003601f168201915b505050505088613766565b8015610cf55750610cf460058281548110610c5457610c53614fb1565b5b90600052602060002090600702016000018054610c7090614e78565b80601f0160208091040260200160405190810160405280929190818152602001828054610c9c90614e78565b8015610ce95780601f10610cbe57610100808354040283529160200191610ce9565b820191906000526020600020905b815481529060010190602001808311610ccc57829003601f168201915b505050505087613766565b5b8015610dec57508473ffffffffffffffffffffffffffffffffffffffff1660058281548110610d2757610d26614fb1565b5b906000526020600020906007020160040160009054906101000a900473ffffffffffffffffffffffffffffffffffffffff1673ffffffffffffffffffffffffffffffffffffffff161480610deb57508473ffffffffffffffffffffffffffffffffffffffff1660058281548110610da157610da0614fb1565b5b906000526020600020906007020160030160009054906101000a900473ffffffffffffffffffffffffffffffffffffffff1673ffffffffffffffffffffffffffffffffffffffff16145b5b156110395760058181548110610e0557610e04614fb1565b5b90600052602060002090600702016040518060e0016040529081600082018054610e2e90614e78565b80601f0160208091040260200160405190810160405280929190818152602001828054610e5a90614e78565b8015610ea75780601f10610e7c57610100808354040283529160200191610ea7565b820191906000526020600020905b815481529060010190602001808311610e8a57829003601f168201915b50505050508152602001600182018054610ec090614e78565b80601f0160208091040260200160405190810160405280929190818152602001828054610eec90614e78565b8015610f395780601f10610f0e57610100808354040283529160200191610f39565b820191906000526020600020905b815481529060010190602001808311610f1c57829003601f168201915b50505050508152602001600282015481526020016003820160009054906101000a900473ffffffffffffffffffffffffffffffffffffffff1673ffffffffffffffffffffffffffffffffffffffff1673ffffffffffffffffffffffffffffffffffffffff1681526020016004820160009054906101000a900473ffffffffffffffffffffffffffffffffffffffff1673ffffffffffffffffffffffffffffffffffffffff1673ffffffffffffffffffffffffffffffffffffffff1681526020016005820154815260200160068201548152505082848151811061101f5761101e614fb1565b5b6020026020010181905250828061103590614edb565b9350505b808061104490614edb565b915050610b72565b508167ffffffffffffffff81111561106757611066614fe0565b5b6040519080825280602002602001820160405280156110a057816020015b61108d613c2f565b8152602001906001900390816110855790505b50925060008211156111055760005b82811015611103578181815181106110ca576110c9614fb1565b5b60200260200101518482815181106110e5576110e4614fb1565b5b602002602001018190525080806110fb90614edb565b9150506110af565b505b50509392505050565b606060008060058054905067ffffffffffffffff81111561113257611131614fe0565b5b60405190808252806020026020018201604052801561116b57816020015b611158613c2f565b8152602001906001900390816111505790505b50905060005b600580549050811015611554576112356005828154811061119557611194614fb1565b5b906000526020600020906007020160010180546111b190614e78565b80601f01602080910402602001604051908101604052809291908181526020018280546111dd90614e78565b801561122a5780601f106111ff5761010080835404028352916020019161122a565b820191906000526020600020905b81548152906001019060200180831161120d57829003601f168201915b505050505087613766565b80156112f457506112f36005828154811061125357611252614fb1565b5b9060005260206000209060070201600001805461126f90614e78565b80601f016020809104026020016040519081016040528092919081815260200182805461129b90614e78565b80156112e85780601f106112bd576101008083540402835291602001916112e8565b820191906000526020600020905b8154815290600101906020018083116112cb57829003601f168201915b505050505086613766565b5b15611541576005818154811061130d5761130c614fb1565b5b90600052602060002090600702016040518060e001604052908160008201805461133690614e78565b80601f016020809104026020016040519081016040528092919081815260200182805461136290614e78565b80156113af5780601f10611384576101008083540402835291602001916113af565b820191906000526020600020905b81548152906001019060200180831161139257829003601f168201915b505050505081526020016001820180546113c890614e78565b80601f01602080910402602001604051908101604052809291908181526020018280546113f490614e78565b80156114415780601f1061141657610100808354040283529160200191611441565b820191906000526020600020905b81548152906001019060200180831161142457829003601f168201915b50505050508152602001600282015481526020016003820160009054906101000a900473ffffffffffffffffffffffffffffffffffffffff1673ffffffffffffffffffffffffffffffffffffffff1673ffffffffffffffffffffffffffffffffffffffff1681526020016004820160009054906101000a900473ffffffffffffffffffffffffffffffffffffffff1673ffffffffffffffffffffffffffffffffffffffff1673ffffffffffffffffffffffffffffffffffffffff1681526020016005820154815260200160068201548152505082848151811061152757611526614fb1565b5b6020026020010181905250828061153d90614edb565b9350505b808061154c90614edb565b915050611171565b508167ffffffffffffffff81111561156f5761156e614fe0565b5b6040519080825280602002602001820160405280156115a857816020015b611595613c98565b81526020019060019003908161158d5790505b5092506000821115611b835760005b82811015611b81578181815181106115d2576115d1614fb1565b5b6020026020010151600001518482815181106115f1576115f0614fb1565b5b60200260200101516000018190525081818151811061161357611612614fb1565b5b60200260200101516020015184828151811061163257611631614fb1565b5b60200260200101516020018190525081818151811061165457611653614fb1565b5b60200260200101516040015184828151811061167357611672614fb1565b5b6020026020010151604001818152505081818151811061169657611695614fb1565b5b6020026020010151606001518482815181106116b5576116b4614fb1565b5b60200260200101516060019073ffffffffffffffffffffffffffffffffffffffff16908173ffffffffffffffffffffffffffffffffffffffff16815250506001600083838151811061170a57611709614fb1565b5b60200260200101516060015173ffffffffffffffffffffffffffffffffffffffff1673ffffffffffffffffffffffffffffffffffffffff168152602001908152602001600020600101805461175e90614e78565b80601f016020809104026020016040519081016040528092919081815260200182805461178a90614e78565b80156117d75780601f106117ac576101008083540402835291602001916117d7565b820191906000526020600020905b8154815290600101906020018083116117ba57829003601f168201915b50505050508482815181106117ef576117ee614fb1565b5b6020026020010151608001819052506001600083838151811061181557611814614fb1565b5b60200260200101516060015173ffffffffffffffffffffffffffffffffffffffff1673ffffffffffffffffffffffffffffffffffffffff16815260200190815260200160002060020160009054906101000a900460ff1684828151811061187f5761187e614fb1565b5b602002602001015160a00190600881111561189d5761189c614f53565b5b908160088111156118b1576118b0614f53565b5b815250508181815181106118c8576118c7614fb1565b5b6020026020010151608001518482815181106118e7576118e6614fb1565b5b602002602001015160c0019073ffffffffffffffffffffffffffffffffffffffff16908173ffffffffffffffffffffffffffffffffffffffff16815250506001600083838151811061193c5761193b614fb1565b5b60200260200101516080015173ffffffffffffffffffffffffffffffffffffffff1673ffffffffffffffffffffffffffffffffffffffff168152602001908152602001600020600101805461199090614e78565b80601f01602080910402602001604051908101604052809291908181526020018280546119bc90614e78565b8015611a095780601f106119de57610100808354040283529160200191611a09565b820191906000526020600020905b8154815290600101906020018083116119ec57829003601f168201915b5050505050848281518110611a2157611a20614fb1565b5b602002602001015160e0018190525060016000838381518110611a4757611a46614fb1565b5b60200260200101516080015173ffffffffffffffffffffffffffffffffffffffff1673ffffffffffffffffffffffffffffffffffffffff16815260200190815260200160002060020160009054906101000a900460ff16848281518110611ab157611ab0614fb1565b5b602002602001015161010001906008811115611ad057611acf614f53565b5b90816008811115611ae457611ae3614f53565b5b81525050818181518110611afb57611afa614fb1565b5b602002602001015160a00151848281518110611b1a57611b19614fb1565b5b6020026020010151610120018181525050818181518110611b3e57611b3d614fb1565b5b602002602001015160c00151848281518110611b5d57611b5c614fb1565b5b60200260200101516101400181815250508080611b7990614edb565b9150506115b7565b505b505092915050565b606060008060058054905067ffffffffffffffff811115611baf57611bae614fe0565b5b604051908082528060200260200182016040528015611be857816020015b611bd5613c2f565b815260200190600190039081611bcd5790505b50905060005b600580549050811015611f1257611cb260058281548110611c1257611c11614fb1565b5b90600052602060002090600702016000018054611c2e90614e78565b80601f0160208091040260200160405190810160405280929190818152602001828054611c5a90614e78565b8015611ca75780601f10611c7c57610100808354040283529160200191611ca7565b820191906000526020600020905b815481529060010190602001808311611c8a57829003601f168201915b505050505086613766565b15611eff5760058181548110611ccb57611cca614fb1565b5b90600052602060002090600702016040518060e0016040529081600082018054611cf490614e78565b80601f0160208091040260200160405190810160405280929190818152602001828054611d2090614e78565b8015611d6d5780601f10611d4257610100808354040283529160200191611d6d565b820191906000526020600020905b815481529060010190602001808311611d5057829003601f168201915b50505050508152602001600182018054611d8690614e78565b80601f0160208091040260200160405190810160405280929190818152602001828054611db290614e78565b8015611dff5780601f10611dd457610100808354040283529160200191611dff565b820191906000526020600020905b815481529060010190602001808311611de257829003601f168201915b50505050508152602001600282015481526020016003820160009054906101000a900473ffffffffffffffffffffffffffffffffffffffff1673ffffffffffffffffffffffffffffffffffffffff1673ffffffffffffffffffffffffffffffffffffffff1681526020016004820160009054906101000a900473ffffffffffffffffffffffffffffffffffffffff1673ffffffffffffffffffffffffffffffffffffffff1673ffffffffffffffffffffffffffffffffffffffff16815260200160058201548152602001600682015481525050828481518110611ee557611ee4614fb1565b5b60200260200101819052508280611efb90614edb565b9350505b8080611f0a90614edb565b915050611bee565b508167ffffffffffffffff811115611f2d57611f2c614fe0565b5b604051908082528060200260200182016040528015611f6657816020015b611f53613c2f565b815260200190600190039081611f4b5790505b5092506000821115611fcb5760005b82811015611fc957818181518110611f9057611f8f614fb1565b5b6020026020010151848281518110611fab57611faa614fb1565b5b60200260200101819052508080611fc190614edb565b915050611f75565b505b5050919050565b60008060009054906101000a900473ffffffffffffffffffffffffffffffffffffffff1673ffffffffffffffffffffffffffffffffffffffff163373ffffffffffffffffffffffffffffffffffffffff1614156120325760019050612126565b600073ffffffffffffffffffffffffffffffffffffffff16600160003373ffffffffffffffffffffffffffffffffffffffff1673ffffffffffffffffffffffffffffffffffffffff16815260200190815260200160002060050160009054906101000a900473ffffffffffffffffffffffffffffffffffffffff1673ffffffffffffffffffffffffffffffffffffffff1614156120d25760009050612125565b600160003373ffffffffffffffffffffffffffffffffffffffff1673ffffffffffffffffffffffffffffffffffffffff16815260200190815260200160002060020160009054906101000a900460ff1690505b5b90565b600080612137858585610b0f565b905060008060005b8351811015612200578573ffffffffffffffffffffffffffffffffffffffff1684828151811061217257612171614fb1565b5b60200260200101516080015173ffffffffffffffffffffffffffffffffffffffff1614156121c0578381815181106121ad576121ac614fb1565b5b602002602001015160a0015192506121ed565b8381815181106121d3576121d2614fb1565b5b602002602001015160a00151826121ea9190614d1a565b91505b80806121f890614edb565b91505061213f565b50808261220d9190614d70565b93505050509392505050565b60606000600280549050905060008167ffffffffffffffff81111561224157612240614fe0565b5b60405190808252806020026020018201604052801561227a57816020015b612267613bb8565b81526020019060019003908161225f5790505b509050600080600090505b83811015612723578560028111156122a05761229f614f53565b5b60016000600284815481106122b8576122b7614fb1565b5b9060005260206000200160009054906101000a900473ffffffffffffffffffffffffffffffffffffffff1673ffffffffffffffffffffffffffffffffffffffff1673ffffffffffffffffffffffffffffffffffffffff16815260200190815260200160002060020160019054906101000a900460ff1660028111156123405761233f614f53565b5b141561271057600160006002838154811061235e5761235d614fb1565b5b9060005260206000200160009054906101000a900473ffffffffffffffffffffffffffffffffffffffff1673ffffffffffffffffffffffffffffffffffffffff1673ffffffffffffffffffffffffffffffffffffffff1681526020019081526020016000206040518060e00160405290816000820180546123de90614e78565b80601f016020809104026020016040519081016040528092919081815260200182805461240a90614e78565b80156124575780601f1061242c57610100808354040283529160200191612457565b820191906000526020600020905b81548152906001019060200180831161243a57829003601f168201915b5050505050815260200160018201805461247090614e78565b80601f016020809104026020016040519081016040528092919081815260200182805461249c90614e78565b80156124e95780601f106124be576101008083540402835291602001916124e9565b820191906000526020600020905b8154815290600101906020018083116124cc57829003601f168201915b505050505081526020016002820160009054906101000a900460ff16600881111561251757612516614f53565b5b600881111561252957612528614f53565b5b81526020016002820160019054906101000a900460ff16600281111561255257612551614f53565b5b600281111561256457612563614f53565b5b815260200160038201805461257890614e78565b80601f01602080910402602001604051908101604052809291908181526020018280546125a490614e78565b80156125f15780601f106125c6576101008083540402835291602001916125f1565b820191906000526020600020905b8154815290600101906020018083116125d457829003601f168201915b5050505050815260200160048201805461260a90614e78565b80601f016020809104026020016040519081016040528092919081815260200182805461263690614e78565b80156126835780601f1061265857610100808354040283529160200191612683565b820191906000526020600020905b81548152906001019060200180831161266657829003601f168201915b505050505081526020016005820160009054906101000a900473ffffffffffffffffffffffffffffffffffffffff1673ffffffffffffffffffffffffffffffffffffffff1673ffffffffffffffffffffffffffffffffffffffff16815250508383815181106126f5576126f4614fb1565b5b602002602001018190525060018261270d9190614d1a565b91505b808061271b90614edb565b915050612285565b508067ffffffffffffffff81111561273e5761273d614fe0565b5b60405190808252806020026020018201604052801561277757816020015b612764613bb8565b81526020019060019003908161275c5790505b50935060005b818110156127d15782818151811061279857612797614fb1565b5b60200260200101518582815181106127b3576127b2614fb1565b5b602002602001018190525080806127c990614edb565b91505061277d565b50505050919050565b606060008060058054905067ffffffffffffffff8111156127fe576127fd614fe0565b5b60405190808252806020026020018201604052801561283757816020015b612824613c2f565b81526020019060019003908161281c5790505b50905060005b600580549050811015612b1e578473ffffffffffffffffffffffffffffffffffffffff166005828154811061287557612874614fb1565b5b906000526020600020906007020160040160009054906101000a900473ffffffffffffffffffffffffffffffffffffffff1673ffffffffffffffffffffffffffffffffffffffff161415612b0b57600581815481106128d7576128d6614fb1565b5b90600052602060002090600702016040518060e001604052908160008201805461290090614e78565b80601f016020809104026020016040519081016040528092919081815260200182805461292c90614e78565b80156129795780601f1061294e57610100808354040283529160200191612979565b820191906000526020600020905b81548152906001019060200180831161295c57829003601f168201915b5050505050815260200160018201805461299290614e78565b80601f01602080910402602001604051908101604052809291908181526020018280546129be90614e78565b8015612a0b5780601f106129e057610100808354040283529160200191612a0b565b820191906000526020600020905b8154815290600101906020018083116129ee57829003601f168201915b50505050508152602001600282015481526020016003820160009054906101000a900473ffffffffffffffffffffffffffffffffffffffff1673ffffffffffffffffffffffffffffffffffffffff1673ffffffffffffffffffffffffffffffffffffffff1681526020016004820160009054906101000a900473ffffffffffffffffffffffffffffffffffffffff1673ffffffffffffffffffffffffffffffffffffffff1673ffffffffffffffffffffffffffffffffffffffff16815260200160058201548152602001600682015481525050828481518110612af157612af0614fb1565b5b60200260200101819052508280612b0790614edb565b9350505b8080612b1690614edb565b91505061283d565b508167ffffffffffffffff811115612b3957612b38614fe0565b5b604051908082528060200260200182016040528015612b7257816020015b612b5f613c2f565b815260200190600190039081612b575790505b5092506000821115612bd75760005b82811015612bd557818181518110612b9c57612b9b614fb1565b5b6020026020010151848281518110612bb757612bb6614fb1565b5b60200260200101819052508080612bcd90614edb565b915050612b81565b505b5050919050565b60606000600480549050905060008167ffffffffffffffff811115612c0657612c05614fe0565b5b604051908082528060200260200182016040528015612c3f57816020015b612c2c613d42565b815260200190600190039081612c245790505b509050600080600090505b83811015612f0557856002811115612c6557612c64614f53565b5b600360048381548110612c7b57612c7a614fb1565b5b90600052602060002001604051612c92919061496c565b908152602001604051809103902060010160149054906101000a900460ff166002811115612cc357612cc2614f53565b5b1415612ef257600360048281548110612cdf57612cde614fb1565b5b90600052602060002001604051612cf6919061496c565b9081526020016040518091039020604051806080016040529081600082018054612d1f90614e78565b80601f0160208091040260200160405190810160405280929190818152602001828054612d4b90614e78565b8015612d985780601f10612d6d57610100808354040283529160200191612d98565b820191906000526020600020905b815481529060010190602001808311612d7b57829003601f168201915b505050505081526020016001820160009054906101000a900473ffffffffffffffffffffffffffffffffffffffff1673ffffffffffffffffffffffffffffffffffffffff1673ffffffffffffffffffffffffffffffffffffffff1681526020016001820160149054906101000a900460ff166002811115612e1c57612e1b614f53565b5b6002811115612e2e57612e2d614f53565b5b8152602001600282018054612e4290614e78565b80601f0160208091040260200160405190810160405280929190818152602001828054612e6e90614e78565b8015612ebb5780601f10612e9057610100808354040283529160200191612ebb565b820191906000526020600020905b815481529060010190602001808311612e9e57829003601f168201915b505050505081525050838381518110612ed757612ed6614fb1565b5b6020026020010181905250600182612eef9190614d1a565b91505b8080612efd90614edb565b915050612c4a565b508067ffffffffffffffff811115612f2057612f1f614fe0565b5b604051908082528060200260200182016040528015612f5957816020015b612f46613d92565b815260200190600190039081612f3e5790505b50935060005b818110156131df57828181518110612f7a57612f79614fb1565b5b602002602001015160000151858281518110612f9957612f98614fb1565b5b602002602001015160000181905250828181518110612fbb57612fba614fb1565b5b602002602001015160200151858281518110612fda57612fd9614fb1565b5b60200260200101516020019073ffffffffffffffffffffffffffffffffffffffff16908173ffffffffffffffffffffffffffffffffffffffff168152505082818151811061302b5761302a614fb1565b5b60200260200101516040015185828151811061304a57613049614fb1565b5b602002602001015160400190600281111561306857613067614f53565b5b9081600281111561307c5761307b614f53565b5b8152505082818151811061309357613092614fb1565b5b6020026020010151606001518582815181106130b2576130b1614fb1565b5b602002602001015160600181905250600160008483815181106130d8576130d7614fb1565b5b60200260200101516020015173ffffffffffffffffffffffffffffffffffffffff1673ffffffffffffffffffffffffffffffffffffffff168152602001908152602001600020600101805461312c90614e78565b80601f016020809104026020016040519081016040528092919081815260200182805461315890614e78565b80156131a55780601f1061317a576101008083540402835291602001916131a5565b820191906000526020600020905b81548152906001019060200180831161318857829003601f168201915b50505050508582815181106131bd576131bc614fb1565b5b60200260200101516080018190525080806131d790614edb565b915050612f5f565b50505050919050565b60008054906101000a900473ffffffffffffffffffffffffffffffffffffffff1681565b613214613bb8565b600160008373ffffffffffffffffffffffffffffffffffffffff1673ffffffffffffffffffffffffffffffffffffffff1681526020019081526020016000206040518060e001604052908160008201805461326e90614e78565b80601f016020809104026020016040519081016040528092919081815260200182805461329a90614e78565b80156132e75780601f106132bc576101008083540402835291602001916132e7565b820191906000526020600020905b8154815290600101906020018083116132ca57829003601f168201915b5050505050815260200160018201805461330090614e78565b80601f016020809104026020016040519081016040528092919081815260200182805461332c90614e78565b80156133795780601f1061334e57610100808354040283529160200191613379565b820191906000526020600020905b81548152906001019060200180831161335c57829003601f168201915b505050505081526020016002820160009054906101000a900460ff1660088111156133a7576133a6614f53565b5b60088111156133b9576133b8614f53565b5b81526020016002820160019054906101000a900460ff1660028111156133e2576133e1614f53565b5b60028111156133f4576133f3614f53565b5b815260200160038201805461340890614e78565b80601f016020809104026020016040519081016040528092919081815260200182805461343490614e78565b80156134815780601f1061345657610100808354040283529160200191613481565b820191906000526020600020905b81548152906001019060200180831161346457829003601f168201915b5050505050815260200160048201805461349a90614e78565b80601f01602080910402602001604051908101604052809291908181526020018280546134c690614e78565b80156135135780601f106134e857610100808354040283529160200191613513565b820191906000526020600020905b8154815290600101906020018083116134f657829003601f168201915b505050505081526020016005820160009054906101000a900473ffffffffffffffffffffffffffffffffffffffff1673ffffffffffffffffffffffffffffffffffffffff1673ffffffffffffffffffffffffffffffffffffffff16815250509050919050565b613581613d42565b6003826040516135919190614955565b90815260200160405180910390206040518060800160405290816000820180546135ba90614e78565b80601f01602080910402602001604051908101604052809291908181526020018280546135e690614e78565b80156136335780601f1061360857610100808354040283529160200191613633565b820191906000526020600020905b81548152906001019060200180831161361657829003601f168201915b505050505081526020016001820160009054906101000a900473ffffffffffffffffffffffffffffffffffffffff1673ffffffffffffffffffffffffffffffffffffffff1673ffffffffffffffffffffffffffffffffffffffff1681526020016001820160149054906101000a900460ff1660028111156136b7576136b6614f53565b5b60028111156136c9576136c8614f53565b5b81526020016002820180546136dd90614e78565b80601f016020809104026020016040519081016040528092919081815260200182805461370990614e78565b80156137565780601f1061372b57610100808354040283529160200191613756565b820191906000526020600020905b81548152906001019060200180831161373957829003601f168201915b5050505050815250509050919050565b6000816040516020016137799190614955565b60405160208183030381529060405280519060200120836040516020016137a09190614955565b6040516020818303038152906040528051906020012014905092915050565b60606000600480549050905060008167ffffffffffffffff8111156137e7576137e6614fe0565b5b60405190808252806020026020018201604052801561382057816020015b61380d613d42565b8152602001906001900390816138055790505b509050600080600090505b83811015613b01578573ffffffffffffffffffffffffffffffffffffffff166003600483815481106138605761385f614fb1565b5b90600052602060002001604051613877919061496c565b908152602001604051809103902060010160009054906101000a900473ffffffffffffffffffffffffffffffffffffffff1673ffffffffffffffffffffffffffffffffffffffff161415613aee576003600482815481106138db576138da614fb1565b5b906000526020600020016040516138f2919061496c565b908152602001604051809103902060405180608001604052908160008201805461391b90614e78565b80601f016020809104026020016040519081016040528092919081815260200182805461394790614e78565b80156139945780601f1061396957610100808354040283529160200191613994565b820191906000526020600020905b81548152906001019060200180831161397757829003601f168201915b505050505081526020016001820160009054906101000a900473ffffffffffffffffffffffffffffffffffffffff1673ffffffffffffffffffffffffffffffffffffffff1673ffffffffffffffffffffffffffffffffffffffff1681526020016001820160149054906101000a900460ff166002811115613a1857613a17614f53565b5b6002811115613a2a57613a29614f53565b5b8152602001600282018054613a3e90614e78565b80601f0160208091040260200160405190810160405280929190818152602001828054613a6a90614e78565b8015613ab75780601f10613a8c57610100808354040283529160200191613ab7565b820191906000526020600020905b815481529060010190602001808311613a9a57829003601f168201915b505050505081525050838381518110613ad357613ad2614fb1565b5b6020026020010181905250600182613aeb9190614d1a565b91505b8080613af990614edb565b91505061382b565b508067ffffffffffffffff811115613b1c57613b1b614fe0565b5b604051908082528060200260200182016040528015613b5557816020015b613b42613d42565b815260200190600190039081613b3a5790505b50935060005b81811015613baf57828181518110613b7657613b75614fb1565b5b6020026020010151858281518110613b9157613b90614fb1565b5b60200260200101819052508080613ba790614edb565b915050613b5b565b50505050919050565b6040518060e00160405280606081526020016060815260200160006008811115613be557613be4614f53565b5b815260200160006002811115613bfe57613bfd614f53565b5b81526020016060815260200160608152602001600073ffffffffffffffffffffffffffffffffffffffff1681525090565b6040518060e00160405280606081526020016060815260200160008152602001600073ffffffffffffffffffffffffffffffffffffffff168152602001600073ffffffffffffffffffffffffffffffffffffffff16815260200160008152602001600081525090565b604051806101600160405280606081526020016060815260200160008152602001600073ffffffffffffffffffffffffffffffffffffffff1681526020016060815260200160006008811115613cf157613cf0614f53565b5b8152602001600073ffffffffffffffffffffffffffffffffffffffff1681526020016060815260200160006008811115613d2e57613d2d614f53565b5b815260200160008152602001600081525090565b604051806080016040528060608152602001600073ffffffffffffffffffffffffffffffffffffffff16815260200160006002811115613d8557613d84614f53565b5b8152602001606081525090565b6040518060a0016040528060608152602001600073ffffffffffffffffffffffffffffffffffffffff16815260200160006002811115613dd557613dd4614f53565b5b815260200160608152602001606081525090565b6000613dfc613df784614b7f565b614b5a565b905082815260208101848484011115613e1857613e17615014565b5b613e23848285614e36565b509392505050565b600081359050613e3a8161505c565b92915050565b600081359050613e4f81615073565b92915050565b600081359050613e6481615083565b92915050565b600082601f830112613e7f57613e7e61500f565b5b8135613e8f848260208601613de9565b91505092915050565b600081359050613ea781615093565b92915050565b600060208284031215613ec357613ec261501e565b5b6000613ed184828501613e2b565b91505092915050565b600060208284031215613ef057613eef61501e565b5b6000613efe84828501613e40565b91505092915050565b600060208284031215613f1d57613f1c61501e565b5b6000613f2b84828501613e55565b91505092915050565b600060208284031215613f4a57613f4961501e565b5b600082013567ffffffffffffffff811115613f6857613f67615019565b5b613f7484828501613e6a565b91505092915050565b60008060408385031215613f9457613f9361501e565b5b600083013567ffffffffffffffff811115613fb257613fb1615019565b5b613fbe85828601613e6a565b925050602083013567ffffffffffffffff811115613fdf57613fde615019565b5b613feb85828601613e6a565b9150509250929050565b60008060006060848603121561400e5761400d61501e565b5b600084013567ffffffffffffffff81111561402c5761402b615019565b5b61403886828701613e6a565b935050602084013567ffffffffffffffff81111561405957614058615019565b5b61406586828701613e6a565b925050604061407686828701613e2b565b9150509250925092565b6000602082840312156140965761409561501e565b5b60006140a484828501613e98565b91505092915050565b60006140b983836144d6565b905092915050565b60006140cd838361455a565b905092915050565b60006140e1838361462e565b905092915050565b60006140f583836146d1565b905092915050565b600061410983836147d5565b905092915050565b61411a81614da4565b82525050565b61412981614da4565b82525050565b600061413a82614c15565b6141448185614c98565b93508360208202850161415685614bb0565b8060005b85811015614192578484038952815161417385826140ad565b945061417e83614c57565b925060208a0199505060018101905061415a565b50829750879550505050505092915050565b60006141af82614c20565b6141b98185614ca9565b9350836020820285016141cb85614bc0565b8060005b8581101561420757848403895281516141e885826140c1565b94506141f383614c64565b925060208a019950506001810190506141cf565b50829750879550505050505092915050565b600061422482614c2b565b61422e8185614cba565b93508360208202850161424085614bd0565b8060005b8581101561427c578484038952815161425d85826140d5565b945061426883614c71565b925060208a01995050600181019050614244565b50829750879550505050505092915050565b600061429982614c36565b6142a38185614ccb565b9350836020820285016142b585614be0565b8060005b858110156142f157848403895281516142d285826140e9565b94506142dd83614c7e565b925060208a019950506001810190506142b9565b50829750879550505050505092915050565b600061430e82614c41565b6143188185614cdc565b93508360208202850161432a85614bf0565b8060005b85811015614366578484038952815161434785826140fd565b945061435283614c8b565b925060208a0199505060018101905061432e565b50829750879550505050505092915050565b61438181614db6565b82525050565b61439081614e12565b82525050565b61439f81614e24565b82525050565b6143ae81614e24565b82525050565b60006143bf82614c4c565b6143c98185614ced565b93506143d9818560208601614e45565b6143e281615023565b840191505092915050565b60006143f882614c4c565b6144028185614cfe565b9350614412818560208601614e45565b61441b81615023565b840191505092915050565b600061443182614c4c565b61443b8185614d0f565b935061444b818560208601614e45565b80840191505092915050565b6000815461446481614e78565b61446e8186614d0f565b94506001821660008114614489576001811461449a576144cd565b60ff198316865281860193506144cd565b6144a385614c00565b60005b838110156144c5578154818901526001820191506020810190506144a6565b838801955050505b50505092915050565b600060a08301600083015184820360008601526144f382826143b4565b91505060208301516145086020860182614111565b50604083015161451b6040860182614387565b506060830151848203606086015261453382826143b4565b9150506080830151848203608086015261454d82826143b4565b9150508091505092915050565b6000608083016000830151848203600086015261457782826143b4565b915050602083015161458c6020860182614111565b50604083015161459f6040860182614387565b50606083015184820360608601526145b782826143b4565b9150508091505092915050565b600060808301600083015184820360008601526145e182826143b4565b91505060208301516145f66020860182614111565b5060408301516146096040860182614387565b506060830151848203606086015261462182826143b4565b9150508091505092915050565b600060e083016000830151848203600086015261464b82826143b4565b9150506020830151848203602086015261466582826143b4565b915050604083015161467a6040860182614937565b50606083015161468d6060860182614111565b5060808301516146a06080860182614111565b5060a08301516146b360a0860182614937565b5060c08301516146c660c0860182614937565b508091505092915050565b60006101608301600083015184820360008601526146ef82826143b4565b9150506020830151848203602086015261470982826143b4565b915050604083015161471e6040860182614937565b5060608301516147316060860182614111565b506080830151848203608086015261474982826143b4565b91505060a083015161475e60a0860182614396565b5060c083015161477160c0860182614111565b5060e083015184820360e086015261478982826143b4565b9150506101008301516147a0610100860182614396565b506101208301516147b5610120860182614937565b506101408301516147ca610140860182614937565b508091505092915050565b600060e08301600083015184820360008601526147f282826143b4565b9150506020830151848203602086015261480c82826143b4565b91505060408301516148216040860182614396565b5060608301516148346060860182614387565b506080830151848203608086015261484c82826143b4565b91505060a083015184820360a086015261486682826143b4565b91505060c083015161487b60c0860182614111565b508091505092915050565b600060e08301600083015184820360008601526148a382826143b4565b915050602083015184820360208601526148bd82826143b4565b91505060408301516148d26040860182614396565b5060608301516148e56060860182614387565b50608083015184820360808601526148fd82826143b4565b91505060a083015184820360a086015261491782826143b4565b91505060c083015161492c60c0860182614111565b508091505092915050565b61494081614e08565b82525050565b61494f81614e08565b82525050565b60006149618284614426565b915081905092915050565b60006149788284614457565b915081905092915050565b60006020820190506149986000830184614120565b92915050565b600060208201905081810360008301526149b8818461412f565b905092915050565b600060208201905081810360008301526149da81846141a4565b905092915050565b600060208201905081810360008301526149fc8184614219565b905092915050565b60006020820190508181036000830152614a1e818461428e565b905092915050565b60006020820190508181036000830152614a408184614303565b905092915050565b6000602082019050614a5d6000830184614378565b92915050565b6000602082019050614a7860008301846143a5565b92915050565b600060e0820190508181036000830152614a98818a6143ed565b90508181036020830152614aac81896143ed565b9050614abb6040830188614946565b614ac86060830187614120565b614ad56080830186614120565b614ae260a0830185614946565b614aef60c0830184614946565b98975050505050505050565b60006020820190508181036000830152614b1581846145c4565b905092915050565b60006020820190508181036000830152614b378184614886565b905092915050565b6000602082019050614b546000830184614946565b92915050565b6000614b64614b75565b9050614b708282614eaa565b919050565b6000604051905090565b600067ffffffffffffffff821115614b9a57614b99614fe0565b5b614ba382615023565b9050602081019050919050565b6000819050602082019050919050565b6000819050602082019050919050565b6000819050602082019050919050565b6000819050602082019050919050565b6000819050602082019050919050565b60008190508160005260206000209050919050565b600081519050919050565b600081519050919050565b600081519050919050565b600081519050919050565b600081519050919050565b600081519050919050565b6000602082019050919050565b6000602082019050919050565b6000602082019050919050565b6000602082019050919050565b6000602082019050919050565b600082825260208201905092915050565b600082825260208201905092915050565b600082825260208201905092915050565b600082825260208201905092915050565b600082825260208201905092915050565b600082825260208201905092915050565b600082825260208201905092915050565b600081905092915050565b6000614d2582614e08565b9150614d3083614e08565b9250827fffffffffffffffffffffffffffffffffffffffffffffffffffffffffffffffff03821115614d6557614d64614f24565b5b828201905092915050565b6000614d7b82614e08565b9150614d8683614e08565b925082821015614d9957614d98614f24565b5b828203905092915050565b6000614daf82614de8565b9050919050565b60008115159050919050565b6000819050614dd082615034565b919050565b6000819050614de382615048565b919050565b600073ffffffffffffffffffffffffffffffffffffffff82169050919050565b6000819050919050565b6000614e1d82614dc2565b9050919050565b6000614e2f82614dd5565b9050919050565b82818337600083830152505050565b60005b83811015614e63578082015181840152602081019050614e48565b83811115614e72576000848401525b50505050565b60006002820490506001821680614e9057607f821691505b60208210811415614ea457614ea3614f82565b5b50919050565b614eb382615023565b810181811067ffffffffffffffff82111715614ed257614ed1614fe0565b5b80604052505050565b6000614ee682614e08565b91507fffffffffffffffffffffffffffffffffffffffffffffffffffffffffffffffff821415614f1957614f18614f24565b5b600182019050919050565b7f4e487b7100000000000000000000000000000000000000000000000000000000600052601160045260246000fd5b7f4e487b7100000000000000000000000000000000000000000000000000000000600052602160045260246000fd5b7f4e487b7100000000000000000000000000000000000000000000000000000000600052602260045260246000fd5b7f4e487b7100000000000000000000000000000000000000000000000000000000600052603260045260246000fd5b7f4e487b7100000000000000000000000000000000000000000000000000000000600052604160045260246000fd5b600080fd5b600080fd5b600080fd5b600080fd5b6000601f19601f8301169050919050565b6003811061504557615044614f53565b5b50565b6009811061505957615058614f53565b5b50565b61506581614da4565b811461507057600080fd5b50565b6003811061508057600080fd5b50565b6009811061509057600080fd5b50565b61509c81614e08565b81146150a757600080fd5b5056fea2646970667358221220bb0e439db3ad4e648c4535c9e91e6aacb0a682cbfc15b0a013097b93ae8159e764736f6c63430008070033",
					"opcodes": "PUSH1 0x80 PUSH1 0x40 MSTORE CALLVALUE DUP1 ISZERO PUSH2 0x10 JUMPI PUSH1 0x0 DUP1 REVERT JUMPDEST POP PUSH2 0x50E0 DUP1 PUSH2 0x20 PUSH1 0x0 CODECOPY PUSH1 0x0 RETURN INVALID PUSH1 0x80 PUSH1 0x40 MSTORE CALLVALUE DUP1 ISZERO PUSH2 0x10 JUMPI PUSH1 0x0 DUP1 REVERT JUMPDEST POP PUSH1 0x4 CALLDATASIZE LT PUSH2 0xF5 JUMPI PUSH1 0x0 CALLDATALOAD PUSH1 0xE0 SHR DUP1 PUSH4 0x7A53C535 GT PUSH2 0x97 JUMPI DUP1 PUSH4 0xCD1720D1 GT PUSH2 0x66 JUMPI DUP1 PUSH4 0xCD1720D1 EQ PUSH2 0x2EC JUMPI DUP1 PUSH4 0xCDF7E73D EQ PUSH2 0x31C JUMPI DUP1 PUSH4 0xE9A734FF EQ PUSH2 0x34C JUMPI DUP1 PUSH4 0xFF946C85 EQ PUSH2 0x37C JUMPI PUSH2 0xF5 JUMP JUMPDEST DUP1 PUSH4 0x7A53C535 EQ PUSH2 0x23E JUMPI DUP1 PUSH4 0x99B5BBDD EQ PUSH2 0x26E JUMPI DUP1 PUSH4 0xA7270981 EQ PUSH2 0x29E JUMPI DUP1 PUSH4 0xB4A99A4E EQ PUSH2 0x2CE JUMPI PUSH2 0xF5 JUMP JUMPDEST DUP1 PUSH4 0x40D37CAF GT PUSH2 0xD3 JUMPI DUP1 PUSH4 0x40D37CAF EQ PUSH2 0x190 JUMPI DUP1 PUSH4 0x4B2D14AA EQ PUSH2 0x1C0 JUMPI DUP1 PUSH4 0x783A7895 EQ PUSH2 0x1F0 JUMPI DUP1 PUSH4 0x798D2122 EQ PUSH2 0x20E JUMPI PUSH2 0xF5 JUMP JUMPDEST DUP1 PUSH4 0xF9DE977 EQ PUSH2 0xFA JUMPI DUP1 PUSH4 0x1567697C EQ PUSH2 0x12A JUMPI DUP1 PUSH4 0x31A6DB4D EQ PUSH2 0x160 JUMPI JUMPDEST PUSH1 0x0 DUP1 REVERT JUMPDEST PUSH2 0x114 PUSH1 0x4 DUP1 CALLDATASIZE SUB DUP2 ADD SWAP1 PUSH2 0x10F SWAP2 SWAP1 PUSH2 0x3F07 JUMP JUMPDEST PUSH2 0x3AC JUMP JUMPDEST PUSH1 0x40 MLOAD PUSH2 0x121 SWAP2 SWAP1 PUSH2 0x4A26 JUMP JUMPDEST PUSH1 0x40 MLOAD DUP1 SWAP2 SUB SWAP1 RETURN JUMPDEST PUSH2 0x144 PUSH1 0x4 DUP1 CALLDATASIZE SUB DUP2 ADD SWAP1 PUSH2 0x13F SWAP2 SWAP1 PUSH2 0x4080 JUMP JUMPDEST PUSH2 0x96D JUMP JUMPDEST PUSH1 0x40 MLOAD PUSH2 0x157 SWAP8 SWAP7 SWAP6 SWAP5 SWAP4 SWAP3 SWAP2 SWAP1 PUSH2 0x4A7E JUMP JUMPDEST PUSH1 0x40 MLOAD DUP1 SWAP2 SUB SWAP1 RETURN JUMPDEST PUSH2 0x17A PUSH1 0x4 DUP1 CALLDATASIZE SUB DUP2 ADD SWAP1 PUSH2 0x175 SWAP2 SWAP1 PUSH2 0x3FF5 JUMP JUMPDEST PUSH2 0xB0F JUMP JUMPDEST PUSH1 0x40 MLOAD PUSH2 0x187 SWAP2 SWAP1 PUSH2 0x49E2 JUMP JUMPDEST PUSH1 0x40 MLOAD DUP1 SWAP2 SUB SWAP1 RETURN JUMPDEST PUSH2 0x1AA PUSH1 0x4 DUP1 CALLDATASIZE SUB DUP2 ADD SWAP1 PUSH2 0x1A5 SWAP2 SWAP1 PUSH2 0x3F7D JUMP JUMPDEST PUSH2 0x110E JUMP JUMPDEST PUSH1 0x40 MLOAD PUSH2 0x1B7 SWAP2 SWAP1 PUSH2 0x4A04 JUMP JUMPDEST PUSH1 0x40 MLOAD DUP1 SWAP2 SUB SWAP1 RETURN JUMPDEST PUSH2 0x1DA PUSH1 0x4 DUP1 CALLDATASIZE SUB DUP2 ADD SWAP1 PUSH2 0x1D5 SWAP2 SWAP1 PUSH2 0x3F34 JUMP JUMPDEST PUSH2 0x1B8B JUMP JUMPDEST PUSH1 0x40 MLOAD PUSH2 0x1E7 SWAP2 SWAP1 PUSH2 0x49E2 JUMP JUMPDEST PUSH1 0x40 MLOAD DUP1 SWAP2 SUB SWAP1 RETURN JUMPDEST PUSH2 0x1F8 PUSH2 0x1FD2 JUMP JUMPDEST PUSH1 0x40 MLOAD PUSH2 0x205 SWAP2 SWAP1 PUSH2 0x4A63 JUMP JUMPDEST PUSH1 0x40 MLOAD DUP1 SWAP2 SUB SWAP1 RETURN JUMPDEST PUSH2 0x228 PUSH1 0x4 DUP1 CALLDATASIZE SUB DUP2 ADD SWAP1 PUSH2 0x223 SWAP2 SWAP1 PUSH2 0x3FF5 JUMP JUMPDEST PUSH2 0x2129 JUMP JUMPDEST PUSH1 0x40 MLOAD PUSH2 0x235 SWAP2 SWAP1 PUSH2 0x4B3F JUMP JUMPDEST PUSH1 0x40 MLOAD DUP1 SWAP2 SUB SWAP1 RETURN JUMPDEST PUSH2 0x258 PUSH1 0x4 DUP1 CALLDATASIZE SUB DUP2 ADD SWAP1 PUSH2 0x253 SWAP2 SWAP1 PUSH2 0x3EDA JUMP JUMPDEST PUSH2 0x2219 JUMP JUMPDEST PUSH1 0x40 MLOAD PUSH2 0x265 SWAP2 SWAP1 PUSH2 0x4A26 JUMP JUMPDEST PUSH1 0x40 MLOAD DUP1 SWAP2 SUB SWAP1 RETURN JUMPDEST PUSH2 0x288 PUSH1 0x4 DUP1 CALLDATASIZE SUB DUP2 ADD SWAP1 PUSH2 0x283 SWAP2 SWAP1 PUSH2 0x3EAD JUMP JUMPDEST PUSH2 0x27DA JUMP JUMPDEST PUSH1 0x40 MLOAD PUSH2 0x295 SWAP2 SWAP1 PUSH2 0x49E2 JUMP JUMPDEST PUSH1 0x40 MLOAD DUP1 SWAP2 SUB SWAP1 RETURN JUMPDEST PUSH2 0x2B8 PUSH1 0x4 DUP1 CALLDATASIZE SUB DUP2 ADD SWAP1 PUSH2 0x2B3 SWAP2 SWAP1 PUSH2 0x3EDA JUMP JUMPDEST PUSH2 0x2BDE JUMP JUMPDEST PUSH1 0x40 MLOAD PUSH2 0x2C5 SWAP2 SWAP1 PUSH2 0x499E JUMP JUMPDEST PUSH1 0x40 MLOAD DUP1 SWAP2 SUB SWAP1 RETURN JUMPDEST PUSH2 0x2D6 PUSH2 0x31E8 JUMP JUMPDEST PUSH1 0x40 MLOAD PUSH2 0x2E3 SWAP2 SWAP1 PUSH2 0x4983 JUMP JUMPDEST PUSH1 0x40 MLOAD DUP1 SWAP2 SUB SWAP1 RETURN JUMPDEST PUSH2 0x306 PUSH1 0x4 DUP1 CALLDATASIZE SUB DUP2 ADD SWAP1 PUSH2 0x301 SWAP2 SWAP1 PUSH2 0x3EAD JUMP JUMPDEST PUSH2 0x320C JUMP JUMPDEST PUSH1 0x40 MLOAD PUSH2 0x313 SWAP2 SWAP1 PUSH2 0x4B1D JUMP JUMPDEST PUSH1 0x40 MLOAD DUP1 SWAP2 SUB SWAP1 RETURN JUMPDEST PUSH2 0x336 PUSH1 0x4 DUP1 CALLDATASIZE SUB DUP2 ADD SWAP1 PUSH2 0x331 SWAP2 SWAP1 PUSH2 0x3F34 JUMP JUMPDEST PUSH2 0x3579 JUMP JUMPDEST PUSH1 0x40 MLOAD PUSH2 0x343 SWAP2 SWAP1 PUSH2 0x4AFB JUMP JUMPDEST PUSH1 0x40 MLOAD DUP1 SWAP2 SUB SWAP1 RETURN JUMPDEST PUSH2 0x366 PUSH1 0x4 DUP1 CALLDATASIZE SUB DUP2 ADD SWAP1 PUSH2 0x361 SWAP2 SWAP1 PUSH2 0x3F7D JUMP JUMPDEST PUSH2 0x3766 JUMP JUMPDEST PUSH1 0x40 MLOAD PUSH2 0x373 SWAP2 SWAP1 PUSH2 0x4A48 JUMP JUMPDEST PUSH1 0x40 MLOAD DUP1 SWAP2 SUB SWAP1 RETURN JUMPDEST PUSH2 0x396 PUSH1 0x4 DUP1 CALLDATASIZE SUB DUP2 ADD SWAP1 PUSH2 0x391 SWAP2 SWAP1 PUSH2 0x3EAD JUMP JUMPDEST PUSH2 0x37BF JUMP JUMPDEST PUSH1 0x40 MLOAD PUSH2 0x3A3 SWAP2 SWAP1 PUSH2 0x49C0 JUMP JUMPDEST PUSH1 0x40 MLOAD DUP1 SWAP2 SUB SWAP1 RETURN JUMPDEST PUSH1 0x60 PUSH1 0x0 PUSH1 0x2 DUP1 SLOAD SWAP1 POP SWAP1 POP PUSH1 0x0 DUP2 PUSH8 0xFFFFFFFFFFFFFFFF DUP2 GT ISZERO PUSH2 0x3D4 JUMPI PUSH2 0x3D3 PUSH2 0x4FE0 JUMP JUMPDEST JUMPDEST PUSH1 0x40 MLOAD SWAP1 DUP1 DUP3 MSTORE DUP1 PUSH1 0x20 MUL PUSH1 0x20 ADD DUP3 ADD PUSH1 0x40 MSTORE DUP1 ISZERO PUSH2 0x40D JUMPI DUP2 PUSH1 0x20 ADD JUMPDEST PUSH2 0x3FA PUSH2 0x3BB8 JUMP JUMPDEST DUP2 MSTORE PUSH1 0x20 ADD SWAP1 PUSH1 0x1 SWAP1 SUB SWAP1 DUP2 PUSH2 0x3F2 JUMPI SWAP1 POP JUMPDEST POP SWAP1 POP PUSH1 0x0 DUP1 PUSH1 0x0 SWAP1 POP JUMPDEST DUP4 DUP2 LT ISZERO PUSH2 0x8B6 JUMPI DUP6 PUSH1 0x8 DUP2 GT ISZERO PUSH2 0x433 JUMPI PUSH2 0x432 PUSH2 0x4F53 JUMP JUMPDEST JUMPDEST PUSH1 0x1 PUSH1 0x0 PUSH1 0x2 DUP5 DUP2 SLOAD DUP2 LT PUSH2 0x44B JUMPI PUSH2 0x44A PUSH2 0x4FB1 JUMP JUMPDEST JUMPDEST SWAP1 PUSH1 0x0 MSTORE PUSH1 0x20 PUSH1 0x0 KECCAK256 ADD PUSH1 0x0 SWAP1 SLOAD SWAP1 PUSH2 0x100 EXP SWAP1 DIV PUSH20 0xFFFFFFFFFFFFFFFFFFFFFFFFFFFFFFFFFFFFFFFF AND PUSH20 0xFFFFFFFFFFFFFFFFFFFFFFFFFFFFFFFFFFFFFFFF AND PUSH20 0xFFFFFFFFFFFFFFFFFFFFFFFFFFFFFFFFFFFFFFFF AND DUP2 MSTORE PUSH1 0x20 ADD SWAP1 DUP2 MSTORE PUSH1 0x20 ADD PUSH1 0x0 KECCAK256 PUSH1 0x2 ADD PUSH1 0x0 SWAP1 SLOAD SWAP1 PUSH2 0x100 EXP SWAP1 DIV PUSH1 0xFF AND PUSH1 0x8 DUP2 GT ISZERO PUSH2 0x4D3 JUMPI PUSH2 0x4D2 PUSH2 0x4F53 JUMP JUMPDEST JUMPDEST EQ ISZERO PUSH2 0x8A3 JUMPI PUSH1 0x1 PUSH1 0x0 PUSH1 0x2 DUP4 DUP2 SLOAD DUP2 LT PUSH2 0x4F1 JUMPI PUSH2 0x4F0 PUSH2 0x4FB1 JUMP JUMPDEST JUMPDEST SWAP1 PUSH1 0x0 MSTORE PUSH1 0x20 PUSH1 0x0 KECCAK256 ADD PUSH1 0x0 SWAP1 SLOAD SWAP1 PUSH2 0x100 EXP SWAP1 DIV PUSH20 0xFFFFFFFFFFFFFFFFFFFFFFFFFFFFFFFFFFFFFFFF AND PUSH20 0xFFFFFFFFFFFFFFFFFFFFFFFFFFFFFFFFFFFFFFFF AND PUSH20 0xFFFFFFFFFFFFFFFFFFFFFFFFFFFFFFFFFFFFFFFF AND DUP2 MSTORE PUSH1 0x20 ADD SWAP1 DUP2 MSTORE PUSH1 0x20 ADD PUSH1 0x0 KECCAK256 PUSH1 0x40 MLOAD DUP1 PUSH1 0xE0 ADD PUSH1 0x40 MSTORE SWAP1 DUP2 PUSH1 0x0 DUP3 ADD DUP1 SLOAD PUSH2 0x571 SWAP1 PUSH2 0x4E78 JUMP JUMPDEST DUP1 PUSH1 0x1F ADD PUSH1 0x20 DUP1 SWAP2 DIV MUL PUSH1 0x20 ADD PUSH1 0x40 MLOAD SWAP1 DUP2 ADD PUSH1 0x40 MSTORE DUP1 SWAP3 SWAP2 SWAP1 DUP2 DUP2 MSTORE PUSH1 0x20 ADD DUP3 DUP1 SLOAD PUSH2 0x59D SWAP1 PUSH2 0x4E78 JUMP JUMPDEST DUP1 ISZERO PUSH2 0x5EA JUMPI DUP1 PUSH1 0x1F LT PUSH2 0x5BF JUMPI PUSH2 0x100 DUP1 DUP4 SLOAD DIV MUL DUP4 MSTORE SWAP2 PUSH1 0x20 ADD SWAP2 PUSH2 0x5EA JUMP JUMPDEST DUP3 ADD SWAP2 SWAP1 PUSH1 0x0 MSTORE PUSH1 0x20 PUSH1 0x0 KECCAK256 SWAP1 JUMPDEST DUP2 SLOAD DUP2 MSTORE SWAP1 PUSH1 0x1 ADD SWAP1 PUSH1 0x20 ADD DUP1 DUP4 GT PUSH2 0x5CD JUMPI DUP3 SWAP1 SUB PUSH1 0x1F AND DUP3 ADD SWAP2 JUMPDEST POP POP POP POP POP DUP2 MSTORE PUSH1 0x20 ADD PUSH1 0x1 DUP3 ADD DUP1 SLOAD PUSH2 0x603 SWAP1 PUSH2 0x4E78 JUMP JUMPDEST DUP1 PUSH1 0x1F ADD PUSH1 0x20 DUP1 SWAP2 DIV MUL PUSH1 0x20 ADD PUSH1 0x40 MLOAD SWAP1 DUP2 ADD PUSH1 0x40 MSTORE DUP1 SWAP3 SWAP2 SWAP1 DUP2 DUP2 MSTORE PUSH1 0x20 ADD DUP3 DUP1 SLOAD PUSH2 0x62F SWAP1 PUSH2 0x4E78 JUMP JUMPDEST DUP1 ISZERO PUSH2 0x67C JUMPI DUP1 PUSH1 0x1F LT PUSH2 0x651 JUMPI PUSH2 0x100 DUP1 DUP4 SLOAD DIV MUL DUP4 MSTORE SWAP2 PUSH1 0x20 ADD SWAP2 PUSH2 0x67C JUMP JUMPDEST DUP3 ADD SWAP2 SWAP1 PUSH1 0x0 MSTORE PUSH1 0x20 PUSH1 0x0 KECCAK256 SWAP1 JUMPDEST DUP2 SLOAD DUP2 MSTORE SWAP1 PUSH1 0x1 ADD SWAP1 PUSH1 0x20 ADD DUP1 DUP4 GT PUSH2 0x65F JUMPI DUP3 SWAP1 SUB PUSH1 0x1F AND DUP3 ADD SWAP2 JUMPDEST POP POP POP POP POP DUP2 MSTORE PUSH1 0x20 ADD PUSH1 0x2 DUP3 ADD PUSH1 0x0 SWAP1 SLOAD SWAP1 PUSH2 0x100 EXP SWAP1 DIV PUSH1 0xFF AND PUSH1 0x8 DUP2 GT ISZERO PUSH2 0x6AA JUMPI PUSH2 0x6A9 PUSH2 0x4F53 JUMP JUMPDEST JUMPDEST PUSH1 0x8 DUP2 GT ISZERO PUSH2 0x6BC JUMPI PUSH2 0x6BB PUSH2 0x4F53 JUMP JUMPDEST JUMPDEST DUP2 MSTORE PUSH1 0x20 ADD PUSH1 0x2 DUP3 ADD PUSH1 0x1 SWAP1 SLOAD SWAP1 PUSH2 0x100 EXP SWAP1 DIV PUSH1 0xFF AND PUSH1 0x2 DUP2 GT ISZERO PUSH2 0x6E5 JUMPI PUSH2 0x6E4 PUSH2 0x4F53 JUMP JUMPDEST JUMPDEST PUSH1 0x2 DUP2 GT ISZERO PUSH2 0x6F7 JUMPI PUSH2 0x6F6 PUSH2 0x4F53 JUMP JUMPDEST JUMPDEST DUP2 MSTORE PUSH1 0x20 ADD PUSH1 0x3 DUP3 ADD DUP1 SLOAD PUSH2 0x70B SWAP1 PUSH2 0x4E78 JUMP JUMPDEST DUP1 PUSH1 0x1F ADD PUSH1 0x20 DUP1 SWAP2 DIV MUL PUSH1 0x20 ADD PUSH1 0x40 MLOAD SWAP1 DUP2 ADD PUSH1 0x40 MSTORE DUP1 SWAP3 SWAP2 SWAP1 DUP2 DUP2 MSTORE PUSH1 0x20 ADD DUP3 DUP1 SLOAD PUSH2 0x737 SWAP1 PUSH2 0x4E78 JUMP JUMPDEST DUP1 ISZERO PUSH2 0x784 JUMPI DUP1 PUSH1 0x1F LT PUSH2 0x759 JUMPI PUSH2 0x100 DUP1 DUP4 SLOAD DIV MUL DUP4 MSTORE SWAP2 PUSH1 0x20 ADD SWAP2 PUSH2 0x784 JUMP JUMPDEST DUP3 ADD SWAP2 SWAP1 PUSH1 0x0 MSTORE PUSH1 0x20 PUSH1 0x0 KECCAK256 SWAP1 JUMPDEST DUP2 SLOAD DUP2 MSTORE SWAP1 PUSH1 0x1 ADD SWAP1 PUSH1 0x20 ADD DUP1 DUP4 GT PUSH2 0x767 JUMPI DUP3 SWAP1 SUB PUSH1 0x1F AND DUP3 ADD SWAP2 JUMPDEST POP POP POP POP POP DUP2 MSTORE PUSH1 0x20 ADD PUSH1 0x4 DUP3 ADD DUP1 SLOAD PUSH2 0x79D SWAP1 PUSH2 0x4E78 JUMP JUMPDEST DUP1 PUSH1 0x1F ADD PUSH1 0x20 DUP1 SWAP2 DIV MUL PUSH1 0x20 ADD PUSH1 0x40 MLOAD SWAP1 DUP2 ADD PUSH1 0x40 MSTORE DUP1 SWAP3 SWAP2 SWAP1 DUP2 DUP2 MSTORE PUSH1 0x20 ADD DUP3 DUP1 SLOAD PUSH2 0x7C9 SWAP1 PUSH2 0x4E78 JUMP JUMPDEST DUP1 ISZERO PUSH2 0x816 JUMPI DUP1 PUSH1 0x1F LT PUSH2 0x7EB JUMPI PUSH2 0x100 DUP1 DUP4 SLOAD DIV MUL DUP4 MSTORE SWAP2 PUSH1 0x20 ADD SWAP2 PUSH2 0x816 JUMP JUMPDEST DUP3 ADD SWAP2 SWAP1 PUSH1 0x0 MSTORE PUSH1 0x20 PUSH1 0x0 KECCAK256 SWAP1 JUMPDEST DUP2 SLOAD DUP2 MSTORE SWAP1 PUSH1 0x1 ADD SWAP1 PUSH1 0x20 ADD DUP1 DUP4 GT PUSH2 0x7F9 JUMPI DUP3 SWAP1 SUB PUSH1 0x1F AND DUP3 ADD SWAP2 JUMPDEST POP POP POP POP POP DUP2 MSTORE PUSH1 0x20 ADD PUSH1 0x5 DUP3 ADD PUSH1 0x0 SWAP1 SLOAD SWAP1 PUSH2 0x100 EXP SWAP1 DIV PUSH20 0xFFFFFFFFFFFFFFFFFFFFFFFFFFFFFFFFFFFFFFFF AND PUSH20 0xFFFFFFFFFFFFFFFFFFFFFFFFFFFFFFFFFFFFFFFF AND PUSH20 0xFFFFFFFFFFFFFFFFFFFFFFFFFFFFFFFFFFFFFFFF AND DUP2 MSTORE POP POP DUP4 DUP4 DUP2 MLOAD DUP2 LT PUSH2 0x888 JUMPI PUSH2 0x887 PUSH2 0x4FB1 JUMP JUMPDEST JUMPDEST PUSH1 0x20 MUL PUSH1 0x20 ADD ADD DUP2 SWAP1 MSTORE POP PUSH1 0x1 DUP3 PUSH2 0x8A0 SWAP2 SWAP1 PUSH2 0x4D1A JUMP JUMPDEST SWAP2 POP JUMPDEST DUP1 DUP1 PUSH2 0x8AE SWAP1 PUSH2 0x4EDB JUMP JUMPDEST SWAP2 POP POP PUSH2 0x418 JUMP JUMPDEST POP DUP1 PUSH8 0xFFFFFFFFFFFFFFFF DUP2 GT ISZERO PUSH2 0x8D1 JUMPI PUSH2 0x8D0 PUSH2 0x4FE0 JUMP JUMPDEST JUMPDEST PUSH1 0x40 MLOAD SWAP1 DUP1 DUP3 MSTORE DUP1 PUSH1 0x20 MUL PUSH1 0x20 ADD DUP3 ADD PUSH1 0x40 MSTORE DUP1 ISZERO PUSH2 0x90A JUMPI DUP2 PUSH1 0x20 ADD JUMPDEST PUSH2 0x8F7 PUSH2 0x3BB8 JUMP JUMPDEST DUP2 MSTORE PUSH1 0x20 ADD SWAP1 PUSH1 0x1 SWAP1 SUB SWAP1 DUP2 PUSH2 0x8EF JUMPI SWAP1 POP JUMPDEST POP SWAP4 POP PUSH1 0x0 JUMPDEST DUP2 DUP2 LT ISZERO PUSH2 0x964 JUMPI DUP3 DUP2 DUP2 MLOAD DUP2 LT PUSH2 0x92B JUMPI PUSH2 0x92A PUSH2 0x4FB1 JUMP JUMPDEST JUMPDEST PUSH1 0x20 MUL PUSH1 0x20 ADD ADD MLOAD DUP6 DUP3 DUP2 MLOAD DUP2 LT PUSH2 0x946 JUMPI PUSH2 0x945 PUSH2 0x4FB1 JUMP JUMPDEST JUMPDEST PUSH1 0x20 MUL PUSH1 0x20 ADD ADD DUP2 SWAP1 MSTORE POP DUP1 DUP1 PUSH2 0x95C SWAP1 PUSH2 0x4EDB JUMP JUMPDEST SWAP2 POP POP PUSH2 0x910 JUMP JUMPDEST POP POP POP POP SWAP2 SWAP1 POP JUMP JUMPDEST PUSH1 0x5 DUP2 DUP2 SLOAD DUP2 LT PUSH2 0x97D JUMPI PUSH1 0x0 DUP1 REVERT JUMPDEST SWAP1 PUSH1 0x0 MSTORE PUSH1 0x20 PUSH1 0x0 KECCAK256 SWAP1 PUSH1 0x7 MUL ADD PUSH1 0x0 SWAP2 POP SWAP1 POP DUP1 PUSH1 0x0 ADD DUP1 SLOAD PUSH2 0x9A0 SWAP1 PUSH2 0x4E78 JUMP JUMPDEST DUP1 PUSH1 0x1F ADD PUSH1 0x20 DUP1 SWAP2 DIV MUL PUSH1 0x20 ADD PUSH1 0x40 MLOAD SWAP1 DUP2 ADD PUSH1 0x40 MSTORE DUP1 SWAP3 SWAP2 SWAP1 DUP2 DUP2 MSTORE PUSH1 0x20 ADD DUP3 DUP1 SLOAD PUSH2 0x9CC SWAP1 PUSH2 0x4E78 JUMP JUMPDEST DUP1 ISZERO PUSH2 0xA19 JUMPI DUP1 PUSH1 0x1F LT PUSH2 0x9EE JUMPI PUSH2 0x100 DUP1 DUP4 SLOAD DIV MUL DUP4 MSTORE SWAP2 PUSH1 0x20 ADD SWAP2 PUSH2 0xA19 JUMP JUMPDEST DUP3 ADD SWAP2 SWAP1 PUSH1 0x0 MSTORE PUSH1 0x20 PUSH1 0x0 KECCAK256 SWAP1 JUMPDEST DUP2 SLOAD DUP2 MSTORE SWAP1 PUSH1 0x1 ADD SWAP1 PUSH1 0x20 ADD DUP1 DUP4 GT PUSH2 0x9FC JUMPI DUP3 SWAP1 SUB PUSH1 0x1F AND DUP3 ADD SWAP2 JUMPDEST POP POP POP POP POP SWAP1 DUP1 PUSH1 0x1 ADD DUP1 SLOAD PUSH2 0xA2E SWAP1 PUSH2 0x4E78 JUMP JUMPDEST DUP1 PUSH1 0x1F ADD PUSH1 0x20 DUP1 SWAP2 DIV MUL PUSH1 0x20 ADD PUSH1 0x40 MLOAD SWAP1 DUP2 ADD PUSH1 0x40 MSTORE DUP1 SWAP3 SWAP2 SWAP1 DUP2 DUP2 MSTORE PUSH1 0x20 ADD DUP3 DUP1 SLOAD PUSH2 0xA5A SWAP1 PUSH2 0x4E78 JUMP JUMPDEST DUP1 ISZERO PUSH2 0xAA7 JUMPI DUP1 PUSH1 0x1F LT PUSH2 0xA7C JUMPI PUSH2 0x100 DUP1 DUP4 SLOAD DIV MUL DUP4 MSTORE SWAP2 PUSH1 0x20 ADD SWAP2 PUSH2 0xAA7 JUMP JUMPDEST DUP3 ADD SWAP2 SWAP1 PUSH1 0x0 MSTORE PUSH1 0x20 PUSH1 0x0 KECCAK256 SWAP1 JUMPDEST DUP2 SLOAD DUP2 MSTORE SWAP1 PUSH1 0x1 ADD SWAP1 PUSH1 0x20 ADD DUP1 DUP4 GT PUSH2 0xA8A JUMPI DUP3 SWAP1 SUB PUSH1 0x1F AND DUP3 ADD SWAP2 JUMPDEST POP POP POP POP POP SWAP1 DUP1 PUSH1 0x2 ADD SLOAD SWAP1 DUP1 PUSH1 0x3 ADD PUSH1 0x0 SWAP1 SLOAD SWAP1 PUSH2 0x100 EXP SWAP1 DIV PUSH20 0xFFFFFFFFFFFFFFFFFFFFFFFFFFFFFFFFFFFFFFFF AND SWAP1 DUP1 PUSH1 0x4 ADD PUSH1 0x0 SWAP1 SLOAD SWAP1 PUSH2 0x100 EXP SWAP1 DIV PUSH20 0xFFFFFFFFFFFFFFFFFFFFFFFFFFFFFFFFFFFFFFFF AND SWAP1 DUP1 PUSH1 0x5 ADD SLOAD SWAP1 DUP1 PUSH1 0x6 ADD SLOAD SWAP1 POP DUP8 JUMP JUMPDEST PUSH1 0x60 PUSH1 0x0 DUP1 PUSH1 0x5 DUP1 SLOAD SWAP1 POP PUSH8 0xFFFFFFFFFFFFFFFF DUP2 GT ISZERO PUSH2 0xB33 JUMPI PUSH2 0xB32 PUSH2 0x4FE0 JUMP JUMPDEST JUMPDEST PUSH1 0x40 MLOAD SWAP1 DUP1 DUP3 MSTORE DUP1 PUSH1 0x20 MUL PUSH1 0x20 ADD DUP3 ADD PUSH1 0x40 MSTORE DUP1 ISZERO PUSH2 0xB6C JUMPI DUP2 PUSH1 0x20 ADD JUMPDEST PUSH2 0xB59 PUSH2 0x3C2F JUMP JUMPDEST DUP2 MSTORE PUSH1 0x20 ADD SWAP1 PUSH1 0x1 SWAP1 SUB SWAP1 DUP2 PUSH2 0xB51 JUMPI SWAP1 POP JUMPDEST POP SWAP1 POP PUSH1 0x0 JUMPDEST PUSH1 0x5 DUP1 SLOAD SWAP1 POP DUP2 LT ISZERO PUSH2 0x104C JUMPI PUSH2 0xC36 PUSH1 0x5 DUP3 DUP2 SLOAD DUP2 LT PUSH2 0xB96 JUMPI PUSH2 0xB95 PUSH2 0x4FB1 JUMP JUMPDEST JUMPDEST SWAP1 PUSH1 0x0 MSTORE PUSH1 0x20 PUSH1 0x0 KECCAK256 SWAP1 PUSH1 0x7 MUL ADD PUSH1 0x1 ADD DUP1 SLOAD PUSH2 0xBB2 SWAP1 PUSH2 0x4E78 JUMP JUMPDEST DUP1 PUSH1 0x1F ADD PUSH1 0x20 DUP1 SWAP2 DIV MUL PUSH1 0x20 ADD PUSH1 0x40 MLOAD SWAP1 DUP2 ADD PUSH1 0x40 MSTORE DUP1 SWAP3 SWAP2 SWAP1 DUP2 DUP2 MSTORE PUSH1 0x20 ADD DUP3 DUP1 SLOAD PUSH2 0xBDE SWAP1 PUSH2 0x4E78 JUMP JUMPDEST DUP1 ISZERO PUSH2 0xC2B JUMPI DUP1 PUSH1 0x1F LT PUSH2 0xC00 JUMPI PUSH2 0x100 DUP1 DUP4 SLOAD DIV MUL DUP4 MSTORE SWAP2 PUSH1 0x20 ADD SWAP2 PUSH2 0xC2B JUMP JUMPDEST DUP3 ADD SWAP2 SWAP1 PUSH1 0x0 MSTORE PUSH1 0x20 PUSH1 0x0 KECCAK256 SWAP1 JUMPDEST DUP2 SLOAD DUP2 MSTORE SWAP1 PUSH1 0x1 ADD SWAP1 PUSH1 0x20 ADD DUP1 DUP4 GT PUSH2 0xC0E JUMPI DUP3 SWAP1 SUB PUSH1 0x1F AND DUP3 ADD SWAP2 JUMPDEST POP POP POP POP POP DUP9 PUSH2 0x3766 JUMP JUMPDEST DUP1 ISZERO PUSH2 0xCF5 JUMPI POP PUSH2 0xCF4 PUSH1 0x5 DUP3 DUP2 SLOAD DUP2 LT PUSH2 0xC54 JUMPI PUSH2 0xC53 PUSH2 0x4FB1 JUMP JUMPDEST JUMPDEST SWAP1 PUSH1 0x0 MSTORE PUSH1 0x20 PUSH1 0x0 KECCAK256 SWAP1 PUSH1 0x7 MUL ADD PUSH1 0x0 ADD DUP1 SLOAD PUSH2 0xC70 SWAP1 PUSH2 0x4E78 JUMP JUMPDEST DUP1 PUSH1 0x1F ADD PUSH1 0x20 DUP1 SWAP2 DIV MUL PUSH1 0x20 ADD PUSH1 0x40 MLOAD SWAP1 DUP2 ADD PUSH1 0x40 MSTORE DUP1 SWAP3 SWAP2 SWAP1 DUP2 DUP2 MSTORE PUSH1 0x20 ADD DUP3 DUP1 SLOAD PUSH2 0xC9C SWAP1 PUSH2 0x4E78 JUMP JUMPDEST DUP1 ISZERO PUSH2 0xCE9 JUMPI DUP1 PUSH1 0x1F LT PUSH2 0xCBE JUMPI PUSH2 0x100 DUP1 DUP4 SLOAD DIV MUL DUP4 MSTORE SWAP2 PUSH1 0x20 ADD SWAP2 PUSH2 0xCE9 JUMP JUMPDEST DUP3 ADD SWAP2 SWAP1 PUSH1 0x0 MSTORE PUSH1 0x20 PUSH1 0x0 KECCAK256 SWAP1 JUMPDEST DUP2 SLOAD DUP2 MSTORE SWAP1 PUSH1 0x1 ADD SWAP1 PUSH1 0x20 ADD DUP1 DUP4 GT PUSH2 0xCCC JUMPI DUP3 SWAP1 SUB PUSH1 0x1F AND DUP3 ADD SWAP2 JUMPDEST POP POP POP POP POP DUP8 PUSH2 0x3766 JUMP JUMPDEST JUMPDEST DUP1 ISZERO PUSH2 0xDEC JUMPI POP DUP5 PUSH20 0xFFFFFFFFFFFFFFFFFFFFFFFFFFFFFFFFFFFFFFFF AND PUSH1 0x5 DUP3 DUP2 SLOAD DUP2 LT PUSH2 0xD27 JUMPI PUSH2 0xD26 PUSH2 0x4FB1 JUMP JUMPDEST JUMPDEST SWAP1 PUSH1 0x0 MSTORE PUSH1 0x20 PUSH1 0x0 KECCAK256 SWAP1 PUSH1 0x7 MUL ADD PUSH1 0x4 ADD PUSH1 0x0 SWAP1 SLOAD SWAP1 PUSH2 0x100 EXP SWAP1 DIV PUSH20 0xFFFFFFFFFFFFFFFFFFFFFFFFFFFFFFFFFFFFFFFF AND PUSH20 0xFFFFFFFFFFFFFFFFFFFFFFFFFFFFFFFFFFFFFFFF AND EQ DUP1 PUSH2 0xDEB JUMPI POP DUP5 PUSH20 0xFFFFFFFFFFFFFFFFFFFFFFFFFFFFFFFFFFFFFFFF AND PUSH1 0x5 DUP3 DUP2 SLOAD DUP2 LT PUSH2 0xDA1 JUMPI PUSH2 0xDA0 PUSH2 0x4FB1 JUMP JUMPDEST JUMPDEST SWAP1 PUSH1 0x0 MSTORE PUSH1 0x20 PUSH1 0x0 KECCAK256 SWAP1 PUSH1 0x7 MUL ADD PUSH1 0x3 ADD PUSH1 0x0 SWAP1 SLOAD SWAP1 PUSH2 0x100 EXP SWAP1 DIV PUSH20 0xFFFFFFFFFFFFFFFFFFFFFFFFFFFFFFFFFFFFFFFF AND PUSH20 0xFFFFFFFFFFFFFFFFFFFFFFFFFFFFFFFFFFFFFFFF AND EQ JUMPDEST JUMPDEST ISZERO PUSH2 0x1039 JUMPI PUSH1 0x5 DUP2 DUP2 SLOAD DUP2 LT PUSH2 0xE05 JUMPI PUSH2 0xE04 PUSH2 0x4FB1 JUMP JUMPDEST JUMPDEST SWAP1 PUSH1 0x0 MSTORE PUSH1 0x20 PUSH1 0x0 KECCAK256 SWAP1 PUSH1 0x7 MUL ADD PUSH1 0x40 MLOAD DUP1 PUSH1 0xE0 ADD PUSH1 0x40 MSTORE SWAP1 DUP2 PUSH1 0x0 DUP3 ADD DUP1 SLOAD PUSH2 0xE2E SWAP1 PUSH2 0x4E78 JUMP JUMPDEST DUP1 PUSH1 0x1F ADD PUSH1 0x20 DUP1 SWAP2 DIV MUL PUSH1 0x20 ADD PUSH1 0x40 MLOAD SWAP1 DUP2 ADD PUSH1 0x40 MSTORE DUP1 SWAP3 SWAP2 SWAP1 DUP2 DUP2 MSTORE PUSH1 0x20 ADD DUP3 DUP1 SLOAD PUSH2 0xE5A SWAP1 PUSH2 0x4E78 JUMP JUMPDEST DUP1 ISZERO PUSH2 0xEA7 JUMPI DUP1 PUSH1 0x1F LT PUSH2 0xE7C JUMPI PUSH2 0x100 DUP1 DUP4 SLOAD DIV MUL DUP4 MSTORE SWAP2 PUSH1 0x20 ADD SWAP2 PUSH2 0xEA7 JUMP JUMPDEST DUP3 ADD SWAP2 SWAP1 PUSH1 0x0 MSTORE PUSH1 0x20 PUSH1 0x0 KECCAK256 SWAP1 JUMPDEST DUP2 SLOAD DUP2 MSTORE SWAP1 PUSH1 0x1 ADD SWAP1 PUSH1 0x20 ADD DUP1 DUP4 GT PUSH2 0xE8A JUMPI DUP3 SWAP1 SUB PUSH1 0x1F AND DUP3 ADD SWAP2 JUMPDEST POP POP POP POP POP DUP2 MSTORE PUSH1 0x20 ADD PUSH1 0x1 DUP3 ADD DUP1 SLOAD PUSH2 0xEC0 SWAP1 PUSH2 0x4E78 JUMP JUMPDEST DUP1 PUSH1 0x1F ADD PUSH1 0x20 DUP1 SWAP2 DIV MUL PUSH1 0x20 ADD PUSH1 0x40 MLOAD SWAP1 DUP2 ADD PUSH1 0x40 MSTORE DUP1 SWAP3 SWAP2 SWAP1 DUP2 DUP2 MSTORE PUSH1 0x20 ADD DUP3 DUP1 SLOAD PUSH2 0xEEC SWAP1 PUSH2 0x4E78 JUMP JUMPDEST DUP1 ISZERO PUSH2 0xF39 JUMPI DUP1 PUSH1 0x1F LT PUSH2 0xF0E JUMPI PUSH2 0x100 DUP1 DUP4 SLOAD DIV MUL DUP4 MSTORE SWAP2 PUSH1 0x20 ADD SWAP2 PUSH2 0xF39 JUMP JUMPDEST DUP3 ADD SWAP2 SWAP1 PUSH1 0x0 MSTORE PUSH1 0x20 PUSH1 0x0 KECCAK256 SWAP1 JUMPDEST DUP2 SLOAD DUP2 MSTORE SWAP1 PUSH1 0x1 ADD SWAP1 PUSH1 0x20 ADD DUP1 DUP4 GT PUSH2 0xF1C JUMPI DUP3 SWAP1 SUB PUSH1 0x1F AND DUP3 ADD SWAP2 JUMPDEST POP POP POP POP POP DUP2 MSTORE PUSH1 0x20 ADD PUSH1 0x2 DUP3 ADD SLOAD DUP2 MSTORE PUSH1 0x20 ADD PUSH1 0x3 DUP3 ADD PUSH1 0x0 SWAP1 SLOAD SWAP1 PUSH2 0x100 EXP SWAP1 DIV PUSH20 0xFFFFFFFFFFFFFFFFFFFFFFFFFFFFFFFFFFFFFFFF AND PUSH20 0xFFFFFFFFFFFFFFFFFFFFFFFFFFFFFFFFFFFFFFFF AND PUSH20 0xFFFFFFFFFFFFFFFFFFFFFFFFFFFFFFFFFFFFFFFF AND DUP2 MSTORE PUSH1 0x20 ADD PUSH1 0x4 DUP3 ADD PUSH1 0x0 SWAP1 SLOAD SWAP1 PUSH2 0x100 EXP SWAP1 DIV PUSH20 0xFFFFFFFFFFFFFFFFFFFFFFFFFFFFFFFFFFFFFFFF AND PUSH20 0xFFFFFFFFFFFFFFFFFFFFFFFFFFFFFFFFFFFFFFFF AND PUSH20 0xFFFFFFFFFFFFFFFFFFFFFFFFFFFFFFFFFFFFFFFF AND DUP2 MSTORE PUSH1 0x20 ADD PUSH1 0x5 DUP3 ADD SLOAD DUP2 MSTORE PUSH1 0x20 ADD PUSH1 0x6 DUP3 ADD SLOAD DUP2 MSTORE POP POP DUP3 DUP5 DUP2 MLOAD DUP2 LT PUSH2 0x101F JUMPI PUSH2 0x101E PUSH2 0x4FB1 JUMP JUMPDEST JUMPDEST PUSH1 0x20 MUL PUSH1 0x20 ADD ADD DUP2 SWAP1 MSTORE POP DUP3 DUP1 PUSH2 0x1035 SWAP1 PUSH2 0x4EDB JUMP JUMPDEST SWAP4 POP POP JUMPDEST DUP1 DUP1 PUSH2 0x1044 SWAP1 PUSH2 0x4EDB JUMP JUMPDEST SWAP2 POP POP PUSH2 0xB72 JUMP JUMPDEST POP DUP2 PUSH8 0xFFFFFFFFFFFFFFFF DUP2 GT ISZERO PUSH2 0x1067 JUMPI PUSH2 0x1066 PUSH2 0x4FE0 JUMP JUMPDEST JUMPDEST PUSH1 0x40 MLOAD SWAP1 DUP1 DUP3 MSTORE DUP1 PUSH1 0x20 MUL PUSH1 0x20 ADD DUP3 ADD PUSH1 0x40 MSTORE DUP1 ISZERO PUSH2 0x10A0 JUMPI DUP2 PUSH1 0x20 ADD JUMPDEST PUSH2 0x108D PUSH2 0x3C2F JUMP JUMPDEST DUP2 MSTORE PUSH1 0x20 ADD SWAP1 PUSH1 0x1 SWAP1 SUB SWAP1 DUP2 PUSH2 0x1085 JUMPI SWAP1 POP JUMPDEST POP SWAP3 POP PUSH1 0x0 DUP3 GT ISZERO PUSH2 0x1105 JUMPI PUSH1 0x0 JUMPDEST DUP3 DUP2 LT ISZERO PUSH2 0x1103 JUMPI DUP2 DUP2 DUP2 MLOAD DUP2 LT PUSH2 0x10CA JUMPI PUSH2 0x10C9 PUSH2 0x4FB1 JUMP JUMPDEST JUMPDEST PUSH1 0x20 MUL PUSH1 0x20 ADD ADD MLOAD DUP5 DUP3 DUP2 MLOAD DUP2 LT PUSH2 0x10E5 JUMPI PUSH2 0x10E4 PUSH2 0x4FB1 JUMP JUMPDEST JUMPDEST PUSH1 0x20 MUL PUSH1 0x20 ADD ADD DUP2 SWAP1 MSTORE POP DUP1 DUP1 PUSH2 0x10FB SWAP1 PUSH2 0x4EDB JUMP JUMPDEST SWAP2 POP POP PUSH2 0x10AF JUMP JUMPDEST POP JUMPDEST POP POP SWAP4 SWAP3 POP POP POP JUMP JUMPDEST PUSH1 0x60 PUSH1 0x0 DUP1 PUSH1 0x5 DUP1 SLOAD SWAP1 POP PUSH8 0xFFFFFFFFFFFFFFFF DUP2 GT ISZERO PUSH2 0x1132 JUMPI PUSH2 0x1131 PUSH2 0x4FE0 JUMP JUMPDEST JUMPDEST PUSH1 0x40 MLOAD SWAP1 DUP1 DUP3 MSTORE DUP1 PUSH1 0x20 MUL PUSH1 0x20 ADD DUP3 ADD PUSH1 0x40 MSTORE DUP1 ISZERO PUSH2 0x116B JUMPI DUP2 PUSH1 0x20 ADD JUMPDEST PUSH2 0x1158 PUSH2 0x3C2F JUMP JUMPDEST DUP2 MSTORE PUSH1 0x20 ADD SWAP1 PUSH1 0x1 SWAP1 SUB SWAP1 DUP2 PUSH2 0x1150 JUMPI SWAP1 POP JUMPDEST POP SWAP1 POP PUSH1 0x0 JUMPDEST PUSH1 0x5 DUP1 SLOAD SWAP1 POP DUP2 LT ISZERO PUSH2 0x1554 JUMPI PUSH2 0x1235 PUSH1 0x5 DUP3 DUP2 SLOAD DUP2 LT PUSH2 0x1195 JUMPI PUSH2 0x1194 PUSH2 0x4FB1 JUMP JUMPDEST JUMPDEST SWAP1 PUSH1 0x0 MSTORE PUSH1 0x20 PUSH1 0x0 KECCAK256 SWAP1 PUSH1 0x7 MUL ADD PUSH1 0x1 ADD DUP1 SLOAD PUSH2 0x11B1 SWAP1 PUSH2 0x4E78 JUMP JUMPDEST DUP1 PUSH1 0x1F ADD PUSH1 0x20 DUP1 SWAP2 DIV MUL PUSH1 0x20 ADD PUSH1 0x40 MLOAD SWAP1 DUP2 ADD PUSH1 0x40 MSTORE DUP1 SWAP3 SWAP2 SWAP1 DUP2 DUP2 MSTORE PUSH1 0x20 ADD DUP3 DUP1 SLOAD PUSH2 0x11DD SWAP1 PUSH2 0x4E78 JUMP JUMPDEST DUP1 ISZERO PUSH2 0x122A JUMPI DUP1 PUSH1 0x1F LT PUSH2 0x11FF JUMPI PUSH2 0x100 DUP1 DUP4 SLOAD DIV MUL DUP4 MSTORE SWAP2 PUSH1 0x20 ADD SWAP2 PUSH2 0x122A JUMP JUMPDEST DUP3 ADD SWAP2 SWAP1 PUSH1 0x0 MSTORE PUSH1 0x20 PUSH1 0x0 KECCAK256 SWAP1 JUMPDEST DUP2 SLOAD DUP2 MSTORE SWAP1 PUSH1 0x1 ADD SWAP1 PUSH1 0x20 ADD DUP1 DUP4 GT PUSH2 0x120D JUMPI DUP3 SWAP1 SUB PUSH1 0x1F AND DUP3 ADD SWAP2 JUMPDEST POP POP POP POP POP DUP8 PUSH2 0x3766 JUMP JUMPDEST DUP1 ISZERO PUSH2 0x12F4 JUMPI POP PUSH2 0x12F3 PUSH1 0x5 DUP3 DUP2 SLOAD DUP2 LT PUSH2 0x1253 JUMPI PUSH2 0x1252 PUSH2 0x4FB1 JUMP JUMPDEST JUMPDEST SWAP1 PUSH1 0x0 MSTORE PUSH1 0x20 PUSH1 0x0 KECCAK256 SWAP1 PUSH1 0x7 MUL ADD PUSH1 0x0 ADD DUP1 SLOAD PUSH2 0x126F SWAP1 PUSH2 0x4E78 JUMP JUMPDEST DUP1 PUSH1 0x1F ADD PUSH1 0x20 DUP1 SWAP2 DIV MUL PUSH1 0x20 ADD PUSH1 0x40 MLOAD SWAP1 DUP2 ADD PUSH1 0x40 MSTORE DUP1 SWAP3 SWAP2 SWAP1 DUP2 DUP2 MSTORE PUSH1 0x20 ADD DUP3 DUP1 SLOAD PUSH2 0x129B SWAP1 PUSH2 0x4E78 JUMP JUMPDEST DUP1 ISZERO PUSH2 0x12E8 JUMPI DUP1 PUSH1 0x1F LT PUSH2 0x12BD JUMPI PUSH2 0x100 DUP1 DUP4 SLOAD DIV MUL DUP4 MSTORE SWAP2 PUSH1 0x20 ADD SWAP2 PUSH2 0x12E8 JUMP JUMPDEST DUP3 ADD SWAP2 SWAP1 PUSH1 0x0 MSTORE PUSH1 0x20 PUSH1 0x0 KECCAK256 SWAP1 JUMPDEST DUP2 SLOAD DUP2 MSTORE SWAP1 PUSH1 0x1 ADD SWAP1 PUSH1 0x20 ADD DUP1 DUP4 GT PUSH2 0x12CB JUMPI DUP3 SWAP1 SUB PUSH1 0x1F AND DUP3 ADD SWAP2 JUMPDEST POP POP POP POP POP DUP7 PUSH2 0x3766 JUMP JUMPDEST JUMPDEST ISZERO PUSH2 0x1541 JUMPI PUSH1 0x5 DUP2 DUP2 SLOAD DUP2 LT PUSH2 0x130D JUMPI PUSH2 0x130C PUSH2 0x4FB1 JUMP JUMPDEST JUMPDEST SWAP1 PUSH1 0x0 MSTORE PUSH1 0x20 PUSH1 0x0 KECCAK256 SWAP1 PUSH1 0x7 MUL ADD PUSH1 0x40 MLOAD DUP1 PUSH1 0xE0 ADD PUSH1 0x40 MSTORE SWAP1 DUP2 PUSH1 0x0 DUP3 ADD DUP1 SLOAD PUSH2 0x1336 SWAP1 PUSH2 0x4E78 JUMP JUMPDEST DUP1 PUSH1 0x1F ADD PUSH1 0x20 DUP1 SWAP2 DIV MUL PUSH1 0x20 ADD PUSH1 0x40 MLOAD SWAP1 DUP2 ADD PUSH1 0x40 MSTORE DUP1 SWAP3 SWAP2 SWAP1 DUP2 DUP2 MSTORE PUSH1 0x20 ADD DUP3 DUP1 SLOAD PUSH2 0x1362 SWAP1 PUSH2 0x4E78 JUMP JUMPDEST DUP1 ISZERO PUSH2 0x13AF JUMPI DUP1 PUSH1 0x1F LT PUSH2 0x1384 JUMPI PUSH2 0x100 DUP1 DUP4 SLOAD DIV MUL DUP4 MSTORE SWAP2 PUSH1 0x20 ADD SWAP2 PUSH2 0x13AF JUMP JUMPDEST DUP3 ADD SWAP2 SWAP1 PUSH1 0x0 MSTORE PUSH1 0x20 PUSH1 0x0 KECCAK256 SWAP1 JUMPDEST DUP2 SLOAD DUP2 MSTORE SWAP1 PUSH1 0x1 ADD SWAP1 PUSH1 0x20 ADD DUP1 DUP4 GT PUSH2 0x1392 JUMPI DUP3 SWAP1 SUB PUSH1 0x1F AND DUP3 ADD SWAP2 JUMPDEST POP POP POP POP POP DUP2 MSTORE PUSH1 0x20 ADD PUSH1 0x1 DUP3 ADD DUP1 SLOAD PUSH2 0x13C8 SWAP1 PUSH2 0x4E78 JUMP JUMPDEST DUP1 PUSH1 0x1F ADD PUSH1 0x20 DUP1 SWAP2 DIV MUL PUSH1 0x20 ADD PUSH1 0x40 MLOAD SWAP1 DUP2 ADD PUSH1 0x40 MSTORE DUP1 SWAP3 SWAP2 SWAP1 DUP2 DUP2 MSTORE PUSH1 0x20 ADD DUP3 DUP1 SLOAD PUSH2 0x13F4 SWAP1 PUSH2 0x4E78 JUMP JUMPDEST DUP1 ISZERO PUSH2 0x1441 JUMPI DUP1 PUSH1 0x1F LT PUSH2 0x1416 JUMPI PUSH2 0x100 DUP1 DUP4 SLOAD DIV MUL DUP4 MSTORE SWAP2 PUSH1 0x20 ADD SWAP2 PUSH2 0x1441 JUMP JUMPDEST DUP3 ADD SWAP2 SWAP1 PUSH1 0x0 MSTORE PUSH1 0x20 PUSH1 0x0 KECCAK256 SWAP1 JUMPDEST DUP2 SLOAD DUP2 MSTORE SWAP1 PUSH1 0x1 ADD SWAP1 PUSH1 0x20 ADD DUP1 DUP4 GT PUSH2 0x1424 JUMPI DUP3 SWAP1 SUB PUSH1 0x1F AND DUP3 ADD SWAP2 JUMPDEST POP POP POP POP POP DUP2 MSTORE PUSH1 0x20 ADD PUSH1 0x2 DUP3 ADD SLOAD DUP2 MSTORE PUSH1 0x20 ADD PUSH1 0x3 DUP3 ADD PUSH1 0x0 SWAP1 SLOAD SWAP1 PUSH2 0x100 EXP SWAP1 DIV PUSH20 0xFFFFFFFFFFFFFFFFFFFFFFFFFFFFFFFFFFFFFFFF AND PUSH20 0xFFFFFFFFFFFFFFFFFFFFFFFFFFFFFFFFFFFFFFFF AND PUSH20 0xFFFFFFFFFFFFFFFFFFFFFFFFFFFFFFFFFFFFFFFF AND DUP2 MSTORE PUSH1 0x20 ADD PUSH1 0x4 DUP3 ADD PUSH1 0x0 SWAP1 SLOAD SWAP1 PUSH2 0x100 EXP SWAP1 DIV PUSH20 0xFFFFFFFFFFFFFFFFFFFFFFFFFFFFFFFFFFFFFFFF AND PUSH20 0xFFFFFFFFFFFFFFFFFFFFFFFFFFFFFFFFFFFFFFFF AND PUSH20 0xFFFFFFFFFFFFFFFFFFFFFFFFFFFFFFFFFFFFFFFF AND DUP2 MSTORE PUSH1 0x20 ADD PUSH1 0x5 DUP3 ADD SLOAD DUP2 MSTORE PUSH1 0x20 ADD PUSH1 0x6 DUP3 ADD SLOAD DUP2 MSTORE POP POP DUP3 DUP5 DUP2 MLOAD DUP2 LT PUSH2 0x1527 JUMPI PUSH2 0x1526 PUSH2 0x4FB1 JUMP JUMPDEST JUMPDEST PUSH1 0x20 MUL PUSH1 0x20 ADD ADD DUP2 SWAP1 MSTORE POP DUP3 DUP1 PUSH2 0x153D SWAP1 PUSH2 0x4EDB JUMP JUMPDEST SWAP4 POP POP JUMPDEST DUP1 DUP1 PUSH2 0x154C SWAP1 PUSH2 0x4EDB JUMP JUMPDEST SWAP2 POP POP PUSH2 0x1171 JUMP JUMPDEST POP DUP2 PUSH8 0xFFFFFFFFFFFFFFFF DUP2 GT ISZERO PUSH2 0x156F JUMPI PUSH2 0x156E PUSH2 0x4FE0 JUMP JUMPDEST JUMPDEST PUSH1 0x40 MLOAD SWAP1 DUP1 DUP3 MSTORE DUP1 PUSH1 0x20 MUL PUSH1 0x20 ADD DUP3 ADD PUSH1 0x40 MSTORE DUP1 ISZERO PUSH2 0x15A8 JUMPI DUP2 PUSH1 0x20 ADD JUMPDEST PUSH2 0x1595 PUSH2 0x3C98 JUMP JUMPDEST DUP2 MSTORE PUSH1 0x20 ADD SWAP1 PUSH1 0x1 SWAP1 SUB SWAP1 DUP2 PUSH2 0x158D JUMPI SWAP1 POP JUMPDEST POP SWAP3 POP PUSH1 0x0 DUP3 GT ISZERO PUSH2 0x1B83 JUMPI PUSH1 0x0 JUMPDEST DUP3 DUP2 LT ISZERO PUSH2 0x1B81 JUMPI DUP2 DUP2 DUP2 MLOAD DUP2 LT PUSH2 0x15D2 JUMPI PUSH2 0x15D1 PUSH2 0x4FB1 JUMP JUMPDEST JUMPDEST PUSH1 0x20 MUL PUSH1 0x20 ADD ADD MLOAD PUSH1 0x0 ADD MLOAD DUP5 DUP3 DUP2 MLOAD DUP2 LT PUSH2 0x15F1 JUMPI PUSH2 0x15F0 PUSH2 0x4FB1 JUMP JUMPDEST JUMPDEST PUSH1 0x20 MUL PUSH1 0x20 ADD ADD MLOAD PUSH1 0x0 ADD DUP2 SWAP1 MSTORE POP DUP2 DUP2 DUP2 MLOAD DUP2 LT PUSH2 0x1613 JUMPI PUSH2 0x1612 PUSH2 0x4FB1 JUMP JUMPDEST JUMPDEST PUSH1 0x20 MUL PUSH1 0x20 ADD ADD MLOAD PUSH1 0x20 ADD MLOAD DUP5 DUP3 DUP2 MLOAD DUP2 LT PUSH2 0x1632 JUMPI PUSH2 0x1631 PUSH2 0x4FB1 JUMP JUMPDEST JUMPDEST PUSH1 0x20 MUL PUSH1 0x20 ADD ADD MLOAD PUSH1 0x20 ADD DUP2 SWAP1 MSTORE POP DUP2 DUP2 DUP2 MLOAD DUP2 LT PUSH2 0x1654 JUMPI PUSH2 0x1653 PUSH2 0x4FB1 JUMP JUMPDEST JUMPDEST PUSH1 0x20 MUL PUSH1 0x20 ADD ADD MLOAD PUSH1 0x40 ADD MLOAD DUP5 DUP3 DUP2 MLOAD DUP2 LT PUSH2 0x1673 JUMPI PUSH2 0x1672 PUSH2 0x4FB1 JUMP JUMPDEST JUMPDEST PUSH1 0x20 MUL PUSH1 0x20 ADD ADD MLOAD PUSH1 0x40 ADD DUP2 DUP2 MSTORE POP POP DUP2 DUP2 DUP2 MLOAD DUP2 LT PUSH2 0x1696 JUMPI PUSH2 0x1695 PUSH2 0x4FB1 JUMP JUMPDEST JUMPDEST PUSH1 0x20 MUL PUSH1 0x20 ADD ADD MLOAD PUSH1 0x60 ADD MLOAD DUP5 DUP3 DUP2 MLOAD DUP2 LT PUSH2 0x16B5 JUMPI PUSH2 0x16B4 PUSH2 0x4FB1 JUMP JUMPDEST JUMPDEST PUSH1 0x20 MUL PUSH1 0x20 ADD ADD MLOAD PUSH1 0x60 ADD SWAP1 PUSH20 0xFFFFFFFFFFFFFFFFFFFFFFFFFFFFFFFFFFFFFFFF AND SWAP1 DUP2 PUSH20 0xFFFFFFFFFFFFFFFFFFFFFFFFFFFFFFFFFFFFFFFF AND DUP2 MSTORE POP POP PUSH1 0x1 PUSH1 0x0 DUP4 DUP4 DUP2 MLOAD DUP2 LT PUSH2 0x170A JUMPI PUSH2 0x1709 PUSH2 0x4FB1 JUMP JUMPDEST JUMPDEST PUSH1 0x20 MUL PUSH1 0x20 ADD ADD MLOAD PUSH1 0x60 ADD MLOAD PUSH20 0xFFFFFFFFFFFFFFFFFFFFFFFFFFFFFFFFFFFFFFFF AND PUSH20 0xFFFFFFFFFFFFFFFFFFFFFFFFFFFFFFFFFFFFFFFF AND DUP2 MSTORE PUSH1 0x20 ADD SWAP1 DUP2 MSTORE PUSH1 0x20 ADD PUSH1 0x0 KECCAK256 PUSH1 0x1 ADD DUP1 SLOAD PUSH2 0x175E SWAP1 PUSH2 0x4E78 JUMP JUMPDEST DUP1 PUSH1 0x1F ADD PUSH1 0x20 DUP1 SWAP2 DIV MUL PUSH1 0x20 ADD PUSH1 0x40 MLOAD SWAP1 DUP2 ADD PUSH1 0x40 MSTORE DUP1 SWAP3 SWAP2 SWAP1 DUP2 DUP2 MSTORE PUSH1 0x20 ADD DUP3 DUP1 SLOAD PUSH2 0x178A SWAP1 PUSH2 0x4E78 JUMP JUMPDEST DUP1 ISZERO PUSH2 0x17D7 JUMPI DUP1 PUSH1 0x1F LT PUSH2 0x17AC JUMPI PUSH2 0x100 DUP1 DUP4 SLOAD DIV MUL DUP4 MSTORE SWAP2 PUSH1 0x20 ADD SWAP2 PUSH2 0x17D7 JUMP JUMPDEST DUP3 ADD SWAP2 SWAP1 PUSH1 0x0 MSTORE PUSH1 0x20 PUSH1 0x0 KECCAK256 SWAP1 JUMPDEST DUP2 SLOAD DUP2 MSTORE SWAP1 PUSH1 0x1 ADD SWAP1 PUSH1 0x20 ADD DUP1 DUP4 GT PUSH2 0x17BA JUMPI DUP3 SWAP1 SUB PUSH1 0x1F AND DUP3 ADD SWAP2 JUMPDEST POP POP POP POP POP DUP5 DUP3 DUP2 MLOAD DUP2 LT PUSH2 0x17EF JUMPI PUSH2 0x17EE PUSH2 0x4FB1 JUMP JUMPDEST JUMPDEST PUSH1 0x20 MUL PUSH1 0x20 ADD ADD MLOAD PUSH1 0x80 ADD DUP2 SWAP1 MSTORE POP PUSH1 0x1 PUSH1 0x0 DUP4 DUP4 DUP2 MLOAD DUP2 LT PUSH2 0x1815 JUMPI PUSH2 0x1814 PUSH2 0x4FB1 JUMP JUMPDEST JUMPDEST PUSH1 0x20 MUL PUSH1 0x20 ADD ADD MLOAD PUSH1 0x60 ADD MLOAD PUSH20 0xFFFFFFFFFFFFFFFFFFFFFFFFFFFFFFFFFFFFFFFF AND PUSH20 0xFFFFFFFFFFFFFFFFFFFFFFFFFFFFFFFFFFFFFFFF AND DUP2 MSTORE PUSH1 0x20 ADD SWAP1 DUP2 MSTORE PUSH1 0x20 ADD PUSH1 0x0 KECCAK256 PUSH1 0x2 ADD PUSH1 0x0 SWAP1 SLOAD SWAP1 PUSH2 0x100 EXP SWAP1 DIV PUSH1 0xFF AND DUP5 DUP3 DUP2 MLOAD DUP2 LT PUSH2 0x187F JUMPI PUSH2 0x187E PUSH2 0x4FB1 JUMP JUMPDEST JUMPDEST PUSH1 0x20 MUL PUSH1 0x20 ADD ADD MLOAD PUSH1 0xA0 ADD SWAP1 PUSH1 0x8 DUP2 GT ISZERO PUSH2 0x189D JUMPI PUSH2 0x189C PUSH2 0x4F53 JUMP JUMPDEST JUMPDEST SWAP1 DUP2 PUSH1 0x8 DUP2 GT ISZERO PUSH2 0x18B1 JUMPI PUSH2 0x18B0 PUSH2 0x4F53 JUMP JUMPDEST JUMPDEST DUP2 MSTORE POP POP DUP2 DUP2 DUP2 MLOAD DUP2 LT PUSH2 0x18C8 JUMPI PUSH2 0x18C7 PUSH2 0x4FB1 JUMP JUMPDEST JUMPDEST PUSH1 0x20 MUL PUSH1 0x20 ADD ADD MLOAD PUSH1 0x80 ADD MLOAD DUP5 DUP3 DUP2 MLOAD DUP2 LT PUSH2 0x18E7 JUMPI PUSH2 0x18E6 PUSH2 0x4FB1 JUMP JUMPDEST JUMPDEST PUSH1 0x20 MUL PUSH1 0x20 ADD ADD MLOAD PUSH1 0xC0 ADD SWAP1 PUSH20 0xFFFFFFFFFFFFFFFFFFFFFFFFFFFFFFFFFFFFFFFF AND SWAP1 DUP2 PUSH20 0xFFFFFFFFFFFFFFFFFFFFFFFFFFFFFFFFFFFFFFFF AND DUP2 MSTORE POP POP PUSH1 0x1 PUSH1 0x0 DUP4 DUP4 DUP2 MLOAD DUP2 LT PUSH2 0x193C JUMPI PUSH2 0x193B PUSH2 0x4FB1 JUMP JUMPDEST JUMPDEST PUSH1 0x20 MUL PUSH1 0x20 ADD ADD MLOAD PUSH1 0x80 ADD MLOAD PUSH20 0xFFFFFFFFFFFFFFFFFFFFFFFFFFFFFFFFFFFFFFFF AND PUSH20 0xFFFFFFFFFFFFFFFFFFFFFFFFFFFFFFFFFFFFFFFF AND DUP2 MSTORE PUSH1 0x20 ADD SWAP1 DUP2 MSTORE PUSH1 0x20 ADD PUSH1 0x0 KECCAK256 PUSH1 0x1 ADD DUP1 SLOAD PUSH2 0x1990 SWAP1 PUSH2 0x4E78 JUMP JUMPDEST DUP1 PUSH1 0x1F ADD PUSH1 0x20 DUP1 SWAP2 DIV MUL PUSH1 0x20 ADD PUSH1 0x40 MLOAD SWAP1 DUP2 ADD PUSH1 0x40 MSTORE DUP1 SWAP3 SWAP2 SWAP1 DUP2 DUP2 MSTORE PUSH1 0x20 ADD DUP3 DUP1 SLOAD PUSH2 0x19BC SWAP1 PUSH2 0x4E78 JUMP JUMPDEST DUP1 ISZERO PUSH2 0x1A09 JUMPI DUP1 PUSH1 0x1F LT PUSH2 0x19DE JUMPI PUSH2 0x100 DUP1 DUP4 SLOAD DIV MUL DUP4 MSTORE SWAP2 PUSH1 0x20 ADD SWAP2 PUSH2 0x1A09 JUMP JUMPDEST DUP3 ADD SWAP2 SWAP1 PUSH1 0x0 MSTORE PUSH1 0x20 PUSH1 0x0 KECCAK256 SWAP1 JUMPDEST DUP2 SLOAD DUP2 MSTORE SWAP1 PUSH1 0x1 ADD SWAP1 PUSH1 0x20 ADD DUP1 DUP4 GT PUSH2 0x19EC JUMPI DUP3 SWAP1 SUB PUSH1 0x1F AND DUP3 ADD SWAP2 JUMPDEST POP POP POP POP POP DUP5 DUP3 DUP2 MLOAD DUP2 LT PUSH2 0x1A21 JUMPI PUSH2 0x1A20 PUSH2 0x4FB1 JUMP JUMPDEST JUMPDEST PUSH1 0x20 MUL PUSH1 0x20 ADD ADD MLOAD PUSH1 0xE0 ADD DUP2 SWAP1 MSTORE POP PUSH1 0x1 PUSH1 0x0 DUP4 DUP4 DUP2 MLOAD DUP2 LT PUSH2 0x1A47 JUMPI PUSH2 0x1A46 PUSH2 0x4FB1 JUMP JUMPDEST JUMPDEST PUSH1 0x20 MUL PUSH1 0x20 ADD ADD MLOAD PUSH1 0x80 ADD MLOAD PUSH20 0xFFFFFFFFFFFFFFFFFFFFFFFFFFFFFFFFFFFFFFFF AND PUSH20 0xFFFFFFFFFFFFFFFFFFFFFFFFFFFFFFFFFFFFFFFF AND DUP2 MSTORE PUSH1 0x20 ADD SWAP1 DUP2 MSTORE PUSH1 0x20 ADD PUSH1 0x0 KECCAK256 PUSH1 0x2 ADD PUSH1 0x0 SWAP1 SLOAD SWAP1 PUSH2 0x100 EXP SWAP1 DIV PUSH1 0xFF AND DUP5 DUP3 DUP2 MLOAD DUP2 LT PUSH2 0x1AB1 JUMPI PUSH2 0x1AB0 PUSH2 0x4FB1 JUMP JUMPDEST JUMPDEST PUSH1 0x20 MUL PUSH1 0x20 ADD ADD MLOAD PUSH2 0x100 ADD SWAP1 PUSH1 0x8 DUP2 GT ISZERO PUSH2 0x1AD0 JUMPI PUSH2 0x1ACF PUSH2 0x4F53 JUMP JUMPDEST JUMPDEST SWAP1 DUP2 PUSH1 0x8 DUP2 GT ISZERO PUSH2 0x1AE4 JUMPI PUSH2 0x1AE3 PUSH2 0x4F53 JUMP JUMPDEST JUMPDEST DUP2 MSTORE POP POP DUP2 DUP2 DUP2 MLOAD DUP2 LT PUSH2 0x1AFB JUMPI PUSH2 0x1AFA PUSH2 0x4FB1 JUMP JUMPDEST JUMPDEST PUSH1 0x20 MUL PUSH1 0x20 ADD ADD MLOAD PUSH1 0xA0 ADD MLOAD DUP5 DUP3 DUP2 MLOAD DUP2 LT PUSH2 0x1B1A JUMPI PUSH2 0x1B19 PUSH2 0x4FB1 JUMP JUMPDEST JUMPDEST PUSH1 0x20 MUL PUSH1 0x20 ADD ADD MLOAD PUSH2 0x120 ADD DUP2 DUP2 MSTORE POP POP DUP2 DUP2 DUP2 MLOAD DUP2 LT PUSH2 0x1B3E JUMPI PUSH2 0x1B3D PUSH2 0x4FB1 JUMP JUMPDEST JUMPDEST PUSH1 0x20 MUL PUSH1 0x20 ADD ADD MLOAD PUSH1 0xC0 ADD MLOAD DUP5 DUP3 DUP2 MLOAD DUP2 LT PUSH2 0x1B5D JUMPI PUSH2 0x1B5C PUSH2 0x4FB1 JUMP JUMPDEST JUMPDEST PUSH1 0x20 MUL PUSH1 0x20 ADD ADD MLOAD PUSH2 0x140 ADD DUP2 DUP2 MSTORE POP POP DUP1 DUP1 PUSH2 0x1B79 SWAP1 PUSH2 0x4EDB JUMP JUMPDEST SWAP2 POP POP PUSH2 0x15B7 JUMP JUMPDEST POP JUMPDEST POP POP SWAP3 SWAP2 POP POP JUMP JUMPDEST PUSH1 0x60 PUSH1 0x0 DUP1 PUSH1 0x5 DUP1 SLOAD SWAP1 POP PUSH8 0xFFFFFFFFFFFFFFFF DUP2 GT ISZERO PUSH2 0x1BAF JUMPI PUSH2 0x1BAE PUSH2 0x4FE0 JUMP JUMPDEST JUMPDEST PUSH1 0x40 MLOAD SWAP1 DUP1 DUP3 MSTORE DUP1 PUSH1 0x20 MUL PUSH1 0x20 ADD DUP3 ADD PUSH1 0x40 MSTORE DUP1 ISZERO PUSH2 0x1BE8 JUMPI DUP2 PUSH1 0x20 ADD JUMPDEST PUSH2 0x1BD5 PUSH2 0x3C2F JUMP JUMPDEST DUP2 MSTORE PUSH1 0x20 ADD SWAP1 PUSH1 0x1 SWAP1 SUB SWAP1 DUP2 PUSH2 0x1BCD JUMPI SWAP1 POP JUMPDEST POP SWAP1 POP PUSH1 0x0 JUMPDEST PUSH1 0x5 DUP1 SLOAD SWAP1 POP DUP2 LT ISZERO PUSH2 0x1F12 JUMPI PUSH2 0x1CB2 PUSH1 0x5 DUP3 DUP2 SLOAD DUP2 LT PUSH2 0x1C12 JUMPI PUSH2 0x1C11 PUSH2 0x4FB1 JUMP JUMPDEST JUMPDEST SWAP1 PUSH1 0x0 MSTORE PUSH1 0x20 PUSH1 0x0 KECCAK256 SWAP1 PUSH1 0x7 MUL ADD PUSH1 0x0 ADD DUP1 SLOAD PUSH2 0x1C2E SWAP1 PUSH2 0x4E78 JUMP JUMPDEST DUP1 PUSH1 0x1F ADD PUSH1 0x20 DUP1 SWAP2 DIV MUL PUSH1 0x20 ADD PUSH1 0x40 MLOAD SWAP1 DUP2 ADD PUSH1 0x40 MSTORE DUP1 SWAP3 SWAP2 SWAP1 DUP2 DUP2 MSTORE PUSH1 0x20 ADD DUP3 DUP1 SLOAD PUSH2 0x1C5A SWAP1 PUSH2 0x4E78 JUMP JUMPDEST DUP1 ISZERO PUSH2 0x1CA7 JUMPI DUP1 PUSH1 0x1F LT PUSH2 0x1C7C JUMPI PUSH2 0x100 DUP1 DUP4 SLOAD DIV MUL DUP4 MSTORE SWAP2 PUSH1 0x20 ADD SWAP2 PUSH2 0x1CA7 JUMP JUMPDEST DUP3 ADD SWAP2 SWAP1 PUSH1 0x0 MSTORE PUSH1 0x20 PUSH1 0x0 KECCAK256 SWAP1 JUMPDEST DUP2 SLOAD DUP2 MSTORE SWAP1 PUSH1 0x1 ADD SWAP1 PUSH1 0x20 ADD DUP1 DUP4 GT PUSH2 0x1C8A JUMPI DUP3 SWAP1 SUB PUSH1 0x1F AND DUP3 ADD SWAP2 JUMPDEST POP POP POP POP POP DUP7 PUSH2 0x3766 JUMP JUMPDEST ISZERO PUSH2 0x1EFF JUMPI PUSH1 0x5 DUP2 DUP2 SLOAD DUP2 LT PUSH2 0x1CCB JUMPI PUSH2 0x1CCA PUSH2 0x4FB1 JUMP JUMPDEST JUMPDEST SWAP1 PUSH1 0x0 MSTORE PUSH1 0x20 PUSH1 0x0 KECCAK256 SWAP1 PUSH1 0x7 MUL ADD PUSH1 0x40 MLOAD DUP1 PUSH1 0xE0 ADD PUSH1 0x40 MSTORE SWAP1 DUP2 PUSH1 0x0 DUP3 ADD DUP1 SLOAD PUSH2 0x1CF4 SWAP1 PUSH2 0x4E78 JUMP JUMPDEST DUP1 PUSH1 0x1F ADD PUSH1 0x20 DUP1 SWAP2 DIV MUL PUSH1 0x20 ADD PUSH1 0x40 MLOAD SWAP1 DUP2 ADD PUSH1 0x40 MSTORE DUP1 SWAP3 SWAP2 SWAP1 DUP2 DUP2 MSTORE PUSH1 0x20 ADD DUP3 DUP1 SLOAD PUSH2 0x1D20 SWAP1 PUSH2 0x4E78 JUMP JUMPDEST DUP1 ISZERO PUSH2 0x1D6D JUMPI DUP1 PUSH1 0x1F LT PUSH2 0x1D42 JUMPI PUSH2 0x100 DUP1 DUP4 SLOAD DIV MUL DUP4 MSTORE SWAP2 PUSH1 0x20 ADD SWAP2 PUSH2 0x1D6D JUMP JUMPDEST DUP3 ADD SWAP2 SWAP1 PUSH1 0x0 MSTORE PUSH1 0x20 PUSH1 0x0 KECCAK256 SWAP1 JUMPDEST DUP2 SLOAD DUP2 MSTORE SWAP1 PUSH1 0x1 ADD SWAP1 PUSH1 0x20 ADD DUP1 DUP4 GT PUSH2 0x1D50 JUMPI DUP3 SWAP1 SUB PUSH1 0x1F AND DUP3 ADD SWAP2 JUMPDEST POP POP POP POP POP DUP2 MSTORE PUSH1 0x20 ADD PUSH1 0x1 DUP3 ADD DUP1 SLOAD PUSH2 0x1D86 SWAP1 PUSH2 0x4E78 JUMP JUMPDEST DUP1 PUSH1 0x1F ADD PUSH1 0x20 DUP1 SWAP2 DIV MUL PUSH1 0x20 ADD PUSH1 0x40 MLOAD SWAP1 DUP2 ADD PUSH1 0x40 MSTORE DUP1 SWAP3 SWAP2 SWAP1 DUP2 DUP2 MSTORE PUSH1 0x20 ADD DUP3 DUP1 SLOAD PUSH2 0x1DB2 SWAP1 PUSH2 0x4E78 JUMP JUMPDEST DUP1 ISZERO PUSH2 0x1DFF JUMPI DUP1 PUSH1 0x1F LT PUSH2 0x1DD4 JUMPI PUSH2 0x100 DUP1 DUP4 SLOAD DIV MUL DUP4 MSTORE SWAP2 PUSH1 0x20 ADD SWAP2 PUSH2 0x1DFF JUMP JUMPDEST DUP3 ADD SWAP2 SWAP1 PUSH1 0x0 MSTORE PUSH1 0x20 PUSH1 0x0 KECCAK256 SWAP1 JUMPDEST DUP2 SLOAD DUP2 MSTORE SWAP1 PUSH1 0x1 ADD SWAP1 PUSH1 0x20 ADD DUP1 DUP4 GT PUSH2 0x1DE2 JUMPI DUP3 SWAP1 SUB PUSH1 0x1F AND DUP3 ADD SWAP2 JUMPDEST POP POP POP POP POP DUP2 MSTORE PUSH1 0x20 ADD PUSH1 0x2 DUP3 ADD SLOAD DUP2 MSTORE PUSH1 0x20 ADD PUSH1 0x3 DUP3 ADD PUSH1 0x0 SWAP1 SLOAD SWAP1 PUSH2 0x100 EXP SWAP1 DIV PUSH20 0xFFFFFFFFFFFFFFFFFFFFFFFFFFFFFFFFFFFFFFFF AND PUSH20 0xFFFFFFFFFFFFFFFFFFFFFFFFFFFFFFFFFFFFFFFF AND PUSH20 0xFFFFFFFFFFFFFFFFFFFFFFFFFFFFFFFFFFFFFFFF AND DUP2 MSTORE PUSH1 0x20 ADD PUSH1 0x4 DUP3 ADD PUSH1 0x0 SWAP1 SLOAD SWAP1 PUSH2 0x100 EXP SWAP1 DIV PUSH20 0xFFFFFFFFFFFFFFFFFFFFFFFFFFFFFFFFFFFFFFFF AND PUSH20 0xFFFFFFFFFFFFFFFFFFFFFFFFFFFFFFFFFFFFFFFF AND PUSH20 0xFFFFFFFFFFFFFFFFFFFFFFFFFFFFFFFFFFFFFFFF AND DUP2 MSTORE PUSH1 0x20 ADD PUSH1 0x5 DUP3 ADD SLOAD DUP2 MSTORE PUSH1 0x20 ADD PUSH1 0x6 DUP3 ADD SLOAD DUP2 MSTORE POP POP DUP3 DUP5 DUP2 MLOAD DUP2 LT PUSH2 0x1EE5 JUMPI PUSH2 0x1EE4 PUSH2 0x4FB1 JUMP JUMPDEST JUMPDEST PUSH1 0x20 MUL PUSH1 0x20 ADD ADD DUP2 SWAP1 MSTORE POP DUP3 DUP1 PUSH2 0x1EFB SWAP1 PUSH2 0x4EDB JUMP JUMPDEST SWAP4 POP POP JUMPDEST DUP1 DUP1 PUSH2 0x1F0A SWAP1 PUSH2 0x4EDB JUMP JUMPDEST SWAP2 POP POP PUSH2 0x1BEE JUMP JUMPDEST POP DUP2 PUSH8 0xFFFFFFFFFFFFFFFF DUP2 GT ISZERO PUSH2 0x1F2D JUMPI PUSH2 0x1F2C PUSH2 0x4FE0 JUMP JUMPDEST JUMPDEST PUSH1 0x40 MLOAD SWAP1 DUP1 DUP3 MSTORE DUP1 PUSH1 0x20 MUL PUSH1 0x20 ADD DUP3 ADD PUSH1 0x40 MSTORE DUP1 ISZERO PUSH2 0x1F66 JUMPI DUP2 PUSH1 0x20 ADD JUMPDEST PUSH2 0x1F53 PUSH2 0x3C2F JUMP JUMPDEST DUP2 MSTORE PUSH1 0x20 ADD SWAP1 PUSH1 0x1 SWAP1 SUB SWAP1 DUP2 PUSH2 0x1F4B JUMPI SWAP1 POP JUMPDEST POP SWAP3 POP PUSH1 0x0 DUP3 GT ISZERO PUSH2 0x1FCB JUMPI PUSH1 0x0 JUMPDEST DUP3 DUP2 LT ISZERO PUSH2 0x1FC9 JUMPI DUP2 DUP2 DUP2 MLOAD DUP2 LT PUSH2 0x1F90 JUMPI PUSH2 0x1F8F PUSH2 0x4FB1 JUMP JUMPDEST JUMPDEST PUSH1 0x20 MUL PUSH1 0x20 ADD ADD MLOAD DUP5 DUP3 DUP2 MLOAD DUP2 LT PUSH2 0x1FAB JUMPI PUSH2 0x1FAA PUSH2 0x4FB1 JUMP JUMPDEST JUMPDEST PUSH1 0x20 MUL PUSH1 0x20 ADD ADD DUP2 SWAP1 MSTORE POP DUP1 DUP1 PUSH2 0x1FC1 SWAP1 PUSH2 0x4EDB JUMP JUMPDEST SWAP2 POP POP PUSH2 0x1F75 JUMP JUMPDEST POP JUMPDEST POP POP SWAP2 SWAP1 POP JUMP JUMPDEST PUSH1 0x0 DUP1 PUSH1 0x0 SWAP1 SLOAD SWAP1 PUSH2 0x100 EXP SWAP1 DIV PUSH20 0xFFFFFFFFFFFFFFFFFFFFFFFFFFFFFFFFFFFFFFFF AND PUSH20 0xFFFFFFFFFFFFFFFFFFFFFFFFFFFFFFFFFFFFFFFF AND CALLER PUSH20 0xFFFFFFFFFFFFFFFFFFFFFFFFFFFFFFFFFFFFFFFF AND EQ ISZERO PUSH2 0x2032 JUMPI PUSH1 0x1 SWAP1 POP PUSH2 0x2126 JUMP JUMPDEST PUSH1 0x0 PUSH20 0xFFFFFFFFFFFFFFFFFFFFFFFFFFFFFFFFFFFFFFFF AND PUSH1 0x1 PUSH1 0x0 CALLER PUSH20 0xFFFFFFFFFFFFFFFFFFFFFFFFFFFFFFFFFFFFFFFF AND PUSH20 0xFFFFFFFFFFFFFFFFFFFFFFFFFFFFFFFFFFFFFFFF AND DUP2 MSTORE PUSH1 0x20 ADD SWAP1 DUP2 MSTORE PUSH1 0x20 ADD PUSH1 0x0 KECCAK256 PUSH1 0x5 ADD PUSH1 0x0 SWAP1 SLOAD SWAP1 PUSH2 0x100 EXP SWAP1 DIV PUSH20 0xFFFFFFFFFFFFFFFFFFFFFFFFFFFFFFFFFFFFFFFF AND PUSH20 0xFFFFFFFFFFFFFFFFFFFFFFFFFFFFFFFFFFFFFFFF AND EQ ISZERO PUSH2 0x20D2 JUMPI PUSH1 0x0 SWAP1 POP PUSH2 0x2125 JUMP JUMPDEST PUSH1 0x1 PUSH1 0x0 CALLER PUSH20 0xFFFFFFFFFFFFFFFFFFFFFFFFFFFFFFFFFFFFFFFF AND PUSH20 0xFFFFFFFFFFFFFFFFFFFFFFFFFFFFFFFFFFFFFFFF AND DUP2 MSTORE PUSH1 0x20 ADD SWAP1 DUP2 MSTORE PUSH1 0x20 ADD PUSH1 0x0 KECCAK256 PUSH1 0x2 ADD PUSH1 0x0 SWAP1 SLOAD SWAP1 PUSH2 0x100 EXP SWAP1 DIV PUSH1 0xFF AND SWAP1 POP JUMPDEST JUMPDEST SWAP1 JUMP JUMPDEST PUSH1 0x0 DUP1 PUSH2 0x2137 DUP6 DUP6 DUP6 PUSH2 0xB0F JUMP JUMPDEST SWAP1 POP PUSH1 0x0 DUP1 PUSH1 0x0 JUMPDEST DUP4 MLOAD DUP2 LT ISZERO PUSH2 0x2200 JUMPI DUP6 PUSH20 0xFFFFFFFFFFFFFFFFFFFFFFFFFFFFFFFFFFFFFFFF AND DUP5 DUP3 DUP2 MLOAD DUP2 LT PUSH2 0x2172 JUMPI PUSH2 0x2171 PUSH2 0x4FB1 JUMP JUMPDEST JUMPDEST PUSH1 0x20 MUL PUSH1 0x20 ADD ADD MLOAD PUSH1 0x80 ADD MLOAD PUSH20 0xFFFFFFFFFFFFFFFFFFFFFFFFFFFFFFFFFFFFFFFF AND EQ ISZERO PUSH2 0x21C0 JUMPI DUP4 DUP2 DUP2 MLOAD DUP2 LT PUSH2 0x21AD JUMPI PUSH2 0x21AC PUSH2 0x4FB1 JUMP JUMPDEST JUMPDEST PUSH1 0x20 MUL PUSH1 0x20 ADD ADD MLOAD PUSH1 0xA0 ADD MLOAD SWAP3 POP PUSH2 0x21ED JUMP JUMPDEST DUP4 DUP2 DUP2 MLOAD DUP2 LT PUSH2 0x21D3 JUMPI PUSH2 0x21D2 PUSH2 0x4FB1 JUMP JUMPDEST JUMPDEST PUSH1 0x20 MUL PUSH1 0x20 ADD ADD MLOAD PUSH1 0xA0 ADD MLOAD DUP3 PUSH2 0x21EA SWAP2 SWAP1 PUSH2 0x4D1A JUMP JUMPDEST SWAP2 POP JUMPDEST DUP1 DUP1 PUSH2 0x21F8 SWAP1 PUSH2 0x4EDB JUMP JUMPDEST SWAP2 POP POP PUSH2 0x213F JUMP JUMPDEST POP DUP1 DUP3 PUSH2 0x220D SWAP2 SWAP1 PUSH2 0x4D70 JUMP JUMPDEST SWAP4 POP POP POP POP SWAP4 SWAP3 POP POP POP JUMP JUMPDEST PUSH1 0x60 PUSH1 0x0 PUSH1 0x2 DUP1 SLOAD SWAP1 POP SWAP1 POP PUSH1 0x0 DUP2 PUSH8 0xFFFFFFFFFFFFFFFF DUP2 GT ISZERO PUSH2 0x2241 JUMPI PUSH2 0x2240 PUSH2 0x4FE0 JUMP JUMPDEST JUMPDEST PUSH1 0x40 MLOAD SWAP1 DUP1 DUP3 MSTORE DUP1 PUSH1 0x20 MUL PUSH1 0x20 ADD DUP3 ADD PUSH1 0x40 MSTORE DUP1 ISZERO PUSH2 0x227A JUMPI DUP2 PUSH1 0x20 ADD JUMPDEST PUSH2 0x2267 PUSH2 0x3BB8 JUMP JUMPDEST DUP2 MSTORE PUSH1 0x20 ADD SWAP1 PUSH1 0x1 SWAP1 SUB SWAP1 DUP2 PUSH2 0x225F JUMPI SWAP1 POP JUMPDEST POP SWAP1 POP PUSH1 0x0 DUP1 PUSH1 0x0 SWAP1 POP JUMPDEST DUP4 DUP2 LT ISZERO PUSH2 0x2723 JUMPI DUP6 PUSH1 0x2 DUP2 GT ISZERO PUSH2 0x22A0 JUMPI PUSH2 0x229F PUSH2 0x4F53 JUMP JUMPDEST JUMPDEST PUSH1 0x1 PUSH1 0x0 PUSH1 0x2 DUP5 DUP2 SLOAD DUP2 LT PUSH2 0x22B8 JUMPI PUSH2 0x22B7 PUSH2 0x4FB1 JUMP JUMPDEST JUMPDEST SWAP1 PUSH1 0x0 MSTORE PUSH1 0x20 PUSH1 0x0 KECCAK256 ADD PUSH1 0x0 SWAP1 SLOAD SWAP1 PUSH2 0x100 EXP SWAP1 DIV PUSH20 0xFFFFFFFFFFFFFFFFFFFFFFFFFFFFFFFFFFFFFFFF AND PUSH20 0xFFFFFFFFFFFFFFFFFFFFFFFFFFFFFFFFFFFFFFFF AND PUSH20 0xFFFFFFFFFFFFFFFFFFFFFFFFFFFFFFFFFFFFFFFF AND DUP2 MSTORE PUSH1 0x20 ADD SWAP1 DUP2 MSTORE PUSH1 0x20 ADD PUSH1 0x0 KECCAK256 PUSH1 0x2 ADD PUSH1 0x1 SWAP1 SLOAD SWAP1 PUSH2 0x100 EXP SWAP1 DIV PUSH1 0xFF AND PUSH1 0x2 DUP2 GT ISZERO PUSH2 0x2340 JUMPI PUSH2 0x233F PUSH2 0x4F53 JUMP JUMPDEST JUMPDEST EQ ISZERO PUSH2 0x2710 JUMPI PUSH1 0x1 PUSH1 0x0 PUSH1 0x2 DUP4 DUP2 SLOAD DUP2 LT PUSH2 0x235E JUMPI PUSH2 0x235D PUSH2 0x4FB1 JUMP JUMPDEST JUMPDEST SWAP1 PUSH1 0x0 MSTORE PUSH1 0x20 PUSH1 0x0 KECCAK256 ADD PUSH1 0x0 SWAP1 SLOAD SWAP1 PUSH2 0x100 EXP SWAP1 DIV PUSH20 0xFFFFFFFFFFFFFFFFFFFFFFFFFFFFFFFFFFFFFFFF AND PUSH20 0xFFFFFFFFFFFFFFFFFFFFFFFFFFFFFFFFFFFFFFFF AND PUSH20 0xFFFFFFFFFFFFFFFFFFFFFFFFFFFFFFFFFFFFFFFF AND DUP2 MSTORE PUSH1 0x20 ADD SWAP1 DUP2 MSTORE PUSH1 0x20 ADD PUSH1 0x0 KECCAK256 PUSH1 0x40 MLOAD DUP1 PUSH1 0xE0 ADD PUSH1 0x40 MSTORE SWAP1 DUP2 PUSH1 0x0 DUP3 ADD DUP1 SLOAD PUSH2 0x23DE SWAP1 PUSH2 0x4E78 JUMP JUMPDEST DUP1 PUSH1 0x1F ADD PUSH1 0x20 DUP1 SWAP2 DIV MUL PUSH1 0x20 ADD PUSH1 0x40 MLOAD SWAP1 DUP2 ADD PUSH1 0x40 MSTORE DUP1 SWAP3 SWAP2 SWAP1 DUP2 DUP2 MSTORE PUSH1 0x20 ADD DUP3 DUP1 SLOAD PUSH2 0x240A SWAP1 PUSH2 0x4E78 JUMP JUMPDEST DUP1 ISZERO PUSH2 0x2457 JUMPI DUP1 PUSH1 0x1F LT PUSH2 0x242C JUMPI PUSH2 0x100 DUP1 DUP4 SLOAD DIV MUL DUP4 MSTORE SWAP2 PUSH1 0x20 ADD SWAP2 PUSH2 0x2457 JUMP JUMPDEST DUP3 ADD SWAP2 SWAP1 PUSH1 0x0 MSTORE PUSH1 0x20 PUSH1 0x0 KECCAK256 SWAP1 JUMPDEST DUP2 SLOAD DUP2 MSTORE SWAP1 PUSH1 0x1 ADD SWAP1 PUSH1 0x20 ADD DUP1 DUP4 GT PUSH2 0x243A JUMPI DUP3 SWAP1 SUB PUSH1 0x1F AND DUP3 ADD SWAP2 JUMPDEST POP POP POP POP POP DUP2 MSTORE PUSH1 0x20 ADD PUSH1 0x1 DUP3 ADD DUP1 SLOAD PUSH2 0x2470 SWAP1 PUSH2 0x4E78 JUMP JUMPDEST DUP1 PUSH1 0x1F ADD PUSH1 0x20 DUP1 SWAP2 DIV MUL PUSH1 0x20 ADD PUSH1 0x40 MLOAD SWAP1 DUP2 ADD PUSH1 0x40 MSTORE DUP1 SWAP3 SWAP2 SWAP1 DUP2 DUP2 MSTORE PUSH1 0x20 ADD DUP3 DUP1 SLOAD PUSH2 0x249C SWAP1 PUSH2 0x4E78 JUMP JUMPDEST DUP1 ISZERO PUSH2 0x24E9 JUMPI DUP1 PUSH1 0x1F LT PUSH2 0x24BE JUMPI PUSH2 0x100 DUP1 DUP4 SLOAD DIV MUL DUP4 MSTORE SWAP2 PUSH1 0x20 ADD SWAP2 PUSH2 0x24E9 JUMP JUMPDEST DUP3 ADD SWAP2 SWAP1 PUSH1 0x0 MSTORE PUSH1 0x20 PUSH1 0x0 KECCAK256 SWAP1 JUMPDEST DUP2 SLOAD DUP2 MSTORE SWAP1 PUSH1 0x1 ADD SWAP1 PUSH1 0x20 ADD DUP1 DUP4 GT PUSH2 0x24CC JUMPI DUP3 SWAP1 SUB PUSH1 0x1F AND DUP3 ADD SWAP2 JUMPDEST POP POP POP POP POP DUP2 MSTORE PUSH1 0x20 ADD PUSH1 0x2 DUP3 ADD PUSH1 0x0 SWAP1 SLOAD SWAP1 PUSH2 0x100 EXP SWAP1 DIV PUSH1 0xFF AND PUSH1 0x8 DUP2 GT ISZERO PUSH2 0x2517 JUMPI PUSH2 0x2516 PUSH2 0x4F53 JUMP JUMPDEST JUMPDEST PUSH1 0x8 DUP2 GT ISZERO PUSH2 0x2529 JUMPI PUSH2 0x2528 PUSH2 0x4F53 JUMP JUMPDEST JUMPDEST DUP2 MSTORE PUSH1 0x20 ADD PUSH1 0x2 DUP3 ADD PUSH1 0x1 SWAP1 SLOAD SWAP1 PUSH2 0x100 EXP SWAP1 DIV PUSH1 0xFF AND PUSH1 0x2 DUP2 GT ISZERO PUSH2 0x2552 JUMPI PUSH2 0x2551 PUSH2 0x4F53 JUMP JUMPDEST JUMPDEST PUSH1 0x2 DUP2 GT ISZERO PUSH2 0x2564 JUMPI PUSH2 0x2563 PUSH2 0x4F53 JUMP JUMPDEST JUMPDEST DUP2 MSTORE PUSH1 0x20 ADD PUSH1 0x3 DUP3 ADD DUP1 SLOAD PUSH2 0x2578 SWAP1 PUSH2 0x4E78 JUMP JUMPDEST DUP1 PUSH1 0x1F ADD PUSH1 0x20 DUP1 SWAP2 DIV MUL PUSH1 0x20 ADD PUSH1 0x40 MLOAD SWAP1 DUP2 ADD PUSH1 0x40 MSTORE DUP1 SWAP3 SWAP2 SWAP1 DUP2 DUP2 MSTORE PUSH1 0x20 ADD DUP3 DUP1 SLOAD PUSH2 0x25A4 SWAP1 PUSH2 0x4E78 JUMP JUMPDEST DUP1 ISZERO PUSH2 0x25F1 JUMPI DUP1 PUSH1 0x1F LT PUSH2 0x25C6 JUMPI PUSH2 0x100 DUP1 DUP4 SLOAD DIV MUL DUP4 MSTORE SWAP2 PUSH1 0x20 ADD SWAP2 PUSH2 0x25F1 JUMP JUMPDEST DUP3 ADD SWAP2 SWAP1 PUSH1 0x0 MSTORE PUSH1 0x20 PUSH1 0x0 KECCAK256 SWAP1 JUMPDEST DUP2 SLOAD DUP2 MSTORE SWAP1 PUSH1 0x1 ADD SWAP1 PUSH1 0x20 ADD DUP1 DUP4 GT PUSH2 0x25D4 JUMPI DUP3 SWAP1 SUB PUSH1 0x1F AND DUP3 ADD SWAP2 JUMPDEST POP POP POP POP POP DUP2 MSTORE PUSH1 0x20 ADD PUSH1 0x4 DUP3 ADD DUP1 SLOAD PUSH2 0x260A SWAP1 PUSH2 0x4E78 JUMP JUMPDEST DUP1 PUSH1 0x1F ADD PUSH1 0x20 DUP1 SWAP2 DIV MUL PUSH1 0x20 ADD PUSH1 0x40 MLOAD SWAP1 DUP2 ADD PUSH1 0x40 MSTORE DUP1 SWAP3 SWAP2 SWAP1 DUP2 DUP2 MSTORE PUSH1 0x20 ADD DUP3 DUP1 SLOAD PUSH2 0x2636 SWAP1 PUSH2 0x4E78 JUMP JUMPDEST DUP1 ISZERO PUSH2 0x2683 JUMPI DUP1 PUSH1 0x1F LT PUSH2 0x2658 JUMPI PUSH2 0x100 DUP1 DUP4 SLOAD DIV MUL DUP4 MSTORE SWAP2 PUSH1 0x20 ADD SWAP2 PUSH2 0x2683 JUMP JUMPDEST DUP3 ADD SWAP2 SWAP1 PUSH1 0x0 MSTORE PUSH1 0x20 PUSH1 0x0 KECCAK256 SWAP1 JUMPDEST DUP2 SLOAD DUP2 MSTORE SWAP1 PUSH1 0x1 ADD SWAP1 PUSH1 0x20 ADD DUP1 DUP4 GT PUSH2 0x2666 JUMPI DUP3 SWAP1 SUB PUSH1 0x1F AND DUP3 ADD SWAP2 JUMPDEST POP POP POP POP POP DUP2 MSTORE PUSH1 0x20 ADD PUSH1 0x5 DUP3 ADD PUSH1 0x0 SWAP1 SLOAD SWAP1 PUSH2 0x100 EXP SWAP1 DIV PUSH20 0xFFFFFFFFFFFFFFFFFFFFFFFFFFFFFFFFFFFFFFFF AND PUSH20 0xFFFFFFFFFFFFFFFFFFFFFFFFFFFFFFFFFFFFFFFF AND PUSH20 0xFFFFFFFFFFFFFFFFFFFFFFFFFFFFFFFFFFFFFFFF AND DUP2 MSTORE POP POP DUP4 DUP4 DUP2 MLOAD DUP2 LT PUSH2 0x26F5 JUMPI PUSH2 0x26F4 PUSH2 0x4FB1 JUMP JUMPDEST JUMPDEST PUSH1 0x20 MUL PUSH1 0x20 ADD ADD DUP2 SWAP1 MSTORE POP PUSH1 0x1 DUP3 PUSH2 0x270D SWAP2 SWAP1 PUSH2 0x4D1A JUMP JUMPDEST SWAP2 POP JUMPDEST DUP1 DUP1 PUSH2 0x271B SWAP1 PUSH2 0x4EDB JUMP JUMPDEST SWAP2 POP POP PUSH2 0x2285 JUMP JUMPDEST POP DUP1 PUSH8 0xFFFFFFFFFFFFFFFF DUP2 GT ISZERO PUSH2 0x273E JUMPI PUSH2 0x273D PUSH2 0x4FE0 JUMP JUMPDEST JUMPDEST PUSH1 0x40 MLOAD SWAP1 DUP1 DUP3 MSTORE DUP1 PUSH1 0x20 MUL PUSH1 0x20 ADD DUP3 ADD PUSH1 0x40 MSTORE DUP1 ISZERO PUSH2 0x2777 JUMPI DUP2 PUSH1 0x20 ADD JUMPDEST PUSH2 0x2764 PUSH2 0x3BB8 JUMP JUMPDEST DUP2 MSTORE PUSH1 0x20 ADD SWAP1 PUSH1 0x1 SWAP1 SUB SWAP1 DUP2 PUSH2 0x275C JUMPI SWAP1 POP JUMPDEST POP SWAP4 POP PUSH1 0x0 JUMPDEST DUP2 DUP2 LT ISZERO PUSH2 0x27D1 JUMPI DUP3 DUP2 DUP2 MLOAD DUP2 LT PUSH2 0x2798 JUMPI PUSH2 0x2797 PUSH2 0x4FB1 JUMP JUMPDEST JUMPDEST PUSH1 0x20 MUL PUSH1 0x20 ADD ADD MLOAD DUP6 DUP3 DUP2 MLOAD DUP2 LT PUSH2 0x27B3 JUMPI PUSH2 0x27B2 PUSH2 0x4FB1 JUMP JUMPDEST JUMPDEST PUSH1 0x20 MUL PUSH1 0x20 ADD ADD DUP2 SWAP1 MSTORE POP DUP1 DUP1 PUSH2 0x27C9 SWAP1 PUSH2 0x4EDB JUMP JUMPDEST SWAP2 POP POP PUSH2 0x277D JUMP JUMPDEST POP POP POP POP SWAP2 SWAP1 POP JUMP JUMPDEST PUSH1 0x60 PUSH1 0x0 DUP1 PUSH1 0x5 DUP1 SLOAD SWAP1 POP PUSH8 0xFFFFFFFFFFFFFFFF DUP2 GT ISZERO PUSH2 0x27FE JUMPI PUSH2 0x27FD PUSH2 0x4FE0 JUMP JUMPDEST JUMPDEST PUSH1 0x40 MLOAD SWAP1 DUP1 DUP3 MSTORE DUP1 PUSH1 0x20 MUL PUSH1 0x20 ADD DUP3 ADD PUSH1 0x40 MSTORE DUP1 ISZERO PUSH2 0x2837 JUMPI DUP2 PUSH1 0x20 ADD JUMPDEST PUSH2 0x2824 PUSH2 0x3C2F JUMP JUMPDEST DUP2 MSTORE PUSH1 0x20 ADD SWAP1 PUSH1 0x1 SWAP1 SUB SWAP1 DUP2 PUSH2 0x281C JUMPI SWAP1 POP JUMPDEST POP SWAP1 POP PUSH1 0x0 JUMPDEST PUSH1 0x5 DUP1 SLOAD SWAP1 POP DUP2 LT ISZERO PUSH2 0x2B1E JUMPI DUP5 PUSH20 0xFFFFFFFFFFFFFFFFFFFFFFFFFFFFFFFFFFFFFFFF AND PUSH1 0x5 DUP3 DUP2 SLOAD DUP2 LT PUSH2 0x2875 JUMPI PUSH2 0x2874 PUSH2 0x4FB1 JUMP JUMPDEST JUMPDEST SWAP1 PUSH1 0x0 MSTORE PUSH1 0x20 PUSH1 0x0 KECCAK256 SWAP1 PUSH1 0x7 MUL ADD PUSH1 0x4 ADD PUSH1 0x0 SWAP1 SLOAD SWAP1 PUSH2 0x100 EXP SWAP1 DIV PUSH20 0xFFFFFFFFFFFFFFFFFFFFFFFFFFFFFFFFFFFFFFFF AND PUSH20 0xFFFFFFFFFFFFFFFFFFFFFFFFFFFFFFFFFFFFFFFF AND EQ ISZERO PUSH2 0x2B0B JUMPI PUSH1 0x5 DUP2 DUP2 SLOAD DUP2 LT PUSH2 0x28D7 JUMPI PUSH2 0x28D6 PUSH2 0x4FB1 JUMP JUMPDEST JUMPDEST SWAP1 PUSH1 0x0 MSTORE PUSH1 0x20 PUSH1 0x0 KECCAK256 SWAP1 PUSH1 0x7 MUL ADD PUSH1 0x40 MLOAD DUP1 PUSH1 0xE0 ADD PUSH1 0x40 MSTORE SWAP1 DUP2 PUSH1 0x0 DUP3 ADD DUP1 SLOAD PUSH2 0x2900 SWAP1 PUSH2 0x4E78 JUMP JUMPDEST DUP1 PUSH1 0x1F ADD PUSH1 0x20 DUP1 SWAP2 DIV MUL PUSH1 0x20 ADD PUSH1 0x40 MLOAD SWAP1 DUP2 ADD PUSH1 0x40 MSTORE DUP1 SWAP3 SWAP2 SWAP1 DUP2 DUP2 MSTORE PUSH1 0x20 ADD DUP3 DUP1 SLOAD PUSH2 0x292C SWAP1 PUSH2 0x4E78 JUMP JUMPDEST DUP1 ISZERO PUSH2 0x2979 JUMPI DUP1 PUSH1 0x1F LT PUSH2 0x294E JUMPI PUSH2 0x100 DUP1 DUP4 SLOAD DIV MUL DUP4 MSTORE SWAP2 PUSH1 0x20 ADD SWAP2 PUSH2 0x2979 JUMP JUMPDEST DUP3 ADD SWAP2 SWAP1 PUSH1 0x0 MSTORE PUSH1 0x20 PUSH1 0x0 KECCAK256 SWAP1 JUMPDEST DUP2 SLOAD DUP2 MSTORE SWAP1 PUSH1 0x1 ADD SWAP1 PUSH1 0x20 ADD DUP1 DUP4 GT PUSH2 0x295C JUMPI DUP3 SWAP1 SUB PUSH1 0x1F AND DUP3 ADD SWAP2 JUMPDEST POP POP POP POP POP DUP2 MSTORE PUSH1 0x20 ADD PUSH1 0x1 DUP3 ADD DUP1 SLOAD PUSH2 0x2992 SWAP1 PUSH2 0x4E78 JUMP JUMPDEST DUP1 PUSH1 0x1F ADD PUSH1 0x20 DUP1 SWAP2 DIV MUL PUSH1 0x20 ADD PUSH1 0x40 MLOAD SWAP1 DUP2 ADD PUSH1 0x40 MSTORE DUP1 SWAP3 SWAP2 SWAP1 DUP2 DUP2 MSTORE PUSH1 0x20 ADD DUP3 DUP1 SLOAD PUSH2 0x29BE SWAP1 PUSH2 0x4E78 JUMP JUMPDEST DUP1 ISZERO PUSH2 0x2A0B JUMPI DUP1 PUSH1 0x1F LT PUSH2 0x29E0 JUMPI PUSH2 0x100 DUP1 DUP4 SLOAD DIV MUL DUP4 MSTORE SWAP2 PUSH1 0x20 ADD SWAP2 PUSH2 0x2A0B JUMP JUMPDEST DUP3 ADD SWAP2 SWAP1 PUSH1 0x0 MSTORE PUSH1 0x20 PUSH1 0x0 KECCAK256 SWAP1 JUMPDEST DUP2 SLOAD DUP2 MSTORE SWAP1 PUSH1 0x1 ADD SWAP1 PUSH1 0x20 ADD DUP1 DUP4 GT PUSH2 0x29EE JUMPI DUP3 SWAP1 SUB PUSH1 0x1F AND DUP3 ADD SWAP2 JUMPDEST POP POP POP POP POP DUP2 MSTORE PUSH1 0x20 ADD PUSH1 0x2 DUP3 ADD SLOAD DUP2 MSTORE PUSH1 0x20 ADD PUSH1 0x3 DUP3 ADD PUSH1 0x0 SWAP1 SLOAD SWAP1 PUSH2 0x100 EXP SWAP1 DIV PUSH20 0xFFFFFFFFFFFFFFFFFFFFFFFFFFFFFFFFFFFFFFFF AND PUSH20 0xFFFFFFFFFFFFFFFFFFFFFFFFFFFFFFFFFFFFFFFF AND PUSH20 0xFFFFFFFFFFFFFFFFFFFFFFFFFFFFFFFFFFFFFFFF AND DUP2 MSTORE PUSH1 0x20 ADD PUSH1 0x4 DUP3 ADD PUSH1 0x0 SWAP1 SLOAD SWAP1 PUSH2 0x100 EXP SWAP1 DIV PUSH20 0xFFFFFFFFFFFFFFFFFFFFFFFFFFFFFFFFFFFFFFFF AND PUSH20 0xFFFFFFFFFFFFFFFFFFFFFFFFFFFFFFFFFFFFFFFF AND PUSH20 0xFFFFFFFFFFFFFFFFFFFFFFFFFFFFFFFFFFFFFFFF AND DUP2 MSTORE PUSH1 0x20 ADD PUSH1 0x5 DUP3 ADD SLOAD DUP2 MSTORE PUSH1 0x20 ADD PUSH1 0x6 DUP3 ADD SLOAD DUP2 MSTORE POP POP DUP3 DUP5 DUP2 MLOAD DUP2 LT PUSH2 0x2AF1 JUMPI PUSH2 0x2AF0 PUSH2 0x4FB1 JUMP JUMPDEST JUMPDEST PUSH1 0x20 MUL PUSH1 0x20 ADD ADD DUP2 SWAP1 MSTORE POP DUP3 DUP1 PUSH2 0x2B07 SWAP1 PUSH2 0x4EDB JUMP JUMPDEST SWAP4 POP POP JUMPDEST DUP1 DUP1 PUSH2 0x2B16 SWAP1 PUSH2 0x4EDB JUMP JUMPDEST SWAP2 POP POP PUSH2 0x283D JUMP JUMPDEST POP DUP2 PUSH8 0xFFFFFFFFFFFFFFFF DUP2 GT ISZERO PUSH2 0x2B39 JUMPI PUSH2 0x2B38 PUSH2 0x4FE0 JUMP JUMPDEST JUMPDEST PUSH1 0x40 MLOAD SWAP1 DUP1 DUP3 MSTORE DUP1 PUSH1 0x20 MUL PUSH1 0x20 ADD DUP3 ADD PUSH1 0x40 MSTORE DUP1 ISZERO PUSH2 0x2B72 JUMPI DUP2 PUSH1 0x20 ADD JUMPDEST PUSH2 0x2B5F PUSH2 0x3C2F JUMP JUMPDEST DUP2 MSTORE PUSH1 0x20 ADD SWAP1 PUSH1 0x1 SWAP1 SUB SWAP1 DUP2 PUSH2 0x2B57 JUMPI SWAP1 POP JUMPDEST POP SWAP3 POP PUSH1 0x0 DUP3 GT ISZERO PUSH2 0x2BD7 JUMPI PUSH1 0x0 JUMPDEST DUP3 DUP2 LT ISZERO PUSH2 0x2BD5 JUMPI DUP2 DUP2 DUP2 MLOAD DUP2 LT PUSH2 0x2B9C JUMPI PUSH2 0x2B9B PUSH2 0x4FB1 JUMP JUMPDEST JUMPDEST PUSH1 0x20 MUL PUSH1 0x20 ADD ADD MLOAD DUP5 DUP3 DUP2 MLOAD DUP2 LT PUSH2 0x2BB7 JUMPI PUSH2 0x2BB6 PUSH2 0x4FB1 JUMP JUMPDEST JUMPDEST PUSH1 0x20 MUL PUSH1 0x20 ADD ADD DUP2 SWAP1 MSTORE POP DUP1 DUP1 PUSH2 0x2BCD SWAP1 PUSH2 0x4EDB JUMP JUMPDEST SWAP2 POP POP PUSH2 0x2B81 JUMP JUMPDEST POP JUMPDEST POP POP SWAP2 SWAP1 POP JUMP JUMPDEST PUSH1 0x60 PUSH1 0x0 PUSH1 0x4 DUP1 SLOAD SWAP1 POP SWAP1 POP PUSH1 0x0 DUP2 PUSH8 0xFFFFFFFFFFFFFFFF DUP2 GT ISZERO PUSH2 0x2C06 JUMPI PUSH2 0x2C05 PUSH2 0x4FE0 JUMP JUMPDEST JUMPDEST PUSH1 0x40 MLOAD SWAP1 DUP1 DUP3 MSTORE DUP1 PUSH1 0x20 MUL PUSH1 0x20 ADD DUP3 ADD PUSH1 0x40 MSTORE DUP1 ISZERO PUSH2 0x2C3F JUMPI DUP2 PUSH1 0x20 ADD JUMPDEST PUSH2 0x2C2C PUSH2 0x3D42 JUMP JUMPDEST DUP2 MSTORE PUSH1 0x20 ADD SWAP1 PUSH1 0x1 SWAP1 SUB SWAP1 DUP2 PUSH2 0x2C24 JUMPI SWAP1 POP JUMPDEST POP SWAP1 POP PUSH1 0x0 DUP1 PUSH1 0x0 SWAP1 POP JUMPDEST DUP4 DUP2 LT ISZERO PUSH2 0x2F05 JUMPI DUP6 PUSH1 0x2 DUP2 GT ISZERO PUSH2 0x2C65 JUMPI PUSH2 0x2C64 PUSH2 0x4F53 JUMP JUMPDEST JUMPDEST PUSH1 0x3 PUSH1 0x4 DUP4 DUP2 SLOAD DUP2 LT PUSH2 0x2C7B JUMPI PUSH2 0x2C7A PUSH2 0x4FB1 JUMP JUMPDEST JUMPDEST SWAP1 PUSH1 0x0 MSTORE PUSH1 0x20 PUSH1 0x0 KECCAK256 ADD PUSH1 0x40 MLOAD PUSH2 0x2C92 SWAP2 SWAP1 PUSH2 0x496C JUMP JUMPDEST SWAP1 DUP2 MSTORE PUSH1 0x20 ADD PUSH1 0x40 MLOAD DUP1 SWAP2 SUB SWAP1 KECCAK256 PUSH1 0x1 ADD PUSH1 0x14 SWAP1 SLOAD SWAP1 PUSH2 0x100 EXP SWAP1 DIV PUSH1 0xFF AND PUSH1 0x2 DUP2 GT ISZERO PUSH2 0x2CC3 JUMPI PUSH2 0x2CC2 PUSH2 0x4F53 JUMP JUMPDEST JUMPDEST EQ ISZERO PUSH2 0x2EF2 JUMPI PUSH1 0x3 PUSH1 0x4 DUP3 DUP2 SLOAD DUP2 LT PUSH2 0x2CDF JUMPI PUSH2 0x2CDE PUSH2 0x4FB1 JUMP JUMPDEST JUMPDEST SWAP1 PUSH1 0x0 MSTORE PUSH1 0x20 PUSH1 0x0 KECCAK256 ADD PUSH1 0x40 MLOAD PUSH2 0x2CF6 SWAP2 SWAP1 PUSH2 0x496C JUMP JUMPDEST SWAP1 DUP2 MSTORE PUSH1 0x20 ADD PUSH1 0x40 MLOAD DUP1 SWAP2 SUB SWAP1 KECCAK256 PUSH1 0x40 MLOAD DUP1 PUSH1 0x80 ADD PUSH1 0x40 MSTORE SWAP1 DUP2 PUSH1 0x0 DUP3 ADD DUP1 SLOAD PUSH2 0x2D1F SWAP1 PUSH2 0x4E78 JUMP JUMPDEST DUP1 PUSH1 0x1F ADD PUSH1 0x20 DUP1 SWAP2 DIV MUL PUSH1 0x20 ADD PUSH1 0x40 MLOAD SWAP1 DUP2 ADD PUSH1 0x40 MSTORE DUP1 SWAP3 SWAP2 SWAP1 DUP2 DUP2 MSTORE PUSH1 0x20 ADD DUP3 DUP1 SLOAD PUSH2 0x2D4B SWAP1 PUSH2 0x4E78 JUMP JUMPDEST DUP1 ISZERO PUSH2 0x2D98 JUMPI DUP1 PUSH1 0x1F LT PUSH2 0x2D6D JUMPI PUSH2 0x100 DUP1 DUP4 SLOAD DIV MUL DUP4 MSTORE SWAP2 PUSH1 0x20 ADD SWAP2 PUSH2 0x2D98 JUMP JUMPDEST DUP3 ADD SWAP2 SWAP1 PUSH1 0x0 MSTORE PUSH1 0x20 PUSH1 0x0 KECCAK256 SWAP1 JUMPDEST DUP2 SLOAD DUP2 MSTORE SWAP1 PUSH1 0x1 ADD SWAP1 PUSH1 0x20 ADD DUP1 DUP4 GT PUSH2 0x2D7B JUMPI DUP3 SWAP1 SUB PUSH1 0x1F AND DUP3 ADD SWAP2 JUMPDEST POP POP POP POP POP DUP2 MSTORE PUSH1 0x20 ADD PUSH1 0x1 DUP3 ADD PUSH1 0x0 SWAP1 SLOAD SWAP1 PUSH2 0x100 EXP SWAP1 DIV PUSH20 0xFFFFFFFFFFFFFFFFFFFFFFFFFFFFFFFFFFFFFFFF AND PUSH20 0xFFFFFFFFFFFFFFFFFFFFFFFFFFFFFFFFFFFFFFFF AND PUSH20 0xFFFFFFFFFFFFFFFFFFFFFFFFFFFFFFFFFFFFFFFF AND DUP2 MSTORE PUSH1 0x20 ADD PUSH1 0x1 DUP3 ADD PUSH1 0x14 SWAP1 SLOAD SWAP1 PUSH2 0x100 EXP SWAP1 DIV PUSH1 0xFF AND PUSH1 0x2 DUP2 GT ISZERO PUSH2 0x2E1C JUMPI PUSH2 0x2E1B PUSH2 0x4F53 JUMP JUMPDEST JUMPDEST PUSH1 0x2 DUP2 GT ISZERO PUSH2 0x2E2E JUMPI PUSH2 0x2E2D PUSH2 0x4F53 JUMP JUMPDEST JUMPDEST DUP2 MSTORE PUSH1 0x20 ADD PUSH1 0x2 DUP3 ADD DUP1 SLOAD PUSH2 0x2E42 SWAP1 PUSH2 0x4E78 JUMP JUMPDEST DUP1 PUSH1 0x1F ADD PUSH1 0x20 DUP1 SWAP2 DIV MUL PUSH1 0x20 ADD PUSH1 0x40 MLOAD SWAP1 DUP2 ADD PUSH1 0x40 MSTORE DUP1 SWAP3 SWAP2 SWAP1 DUP2 DUP2 MSTORE PUSH1 0x20 ADD DUP3 DUP1 SLOAD PUSH2 0x2E6E SWAP1 PUSH2 0x4E78 JUMP JUMPDEST DUP1 ISZERO PUSH2 0x2EBB JUMPI DUP1 PUSH1 0x1F LT PUSH2 0x2E90 JUMPI PUSH2 0x100 DUP1 DUP4 SLOAD DIV MUL DUP4 MSTORE SWAP2 PUSH1 0x20 ADD SWAP2 PUSH2 0x2EBB JUMP JUMPDEST DUP3 ADD SWAP2 SWAP1 PUSH1 0x0 MSTORE PUSH1 0x20 PUSH1 0x0 KECCAK256 SWAP1 JUMPDEST DUP2 SLOAD DUP2 MSTORE SWAP1 PUSH1 0x1 ADD SWAP1 PUSH1 0x20 ADD DUP1 DUP4 GT PUSH2 0x2E9E JUMPI DUP3 SWAP1 SUB PUSH1 0x1F AND DUP3 ADD SWAP2 JUMPDEST POP POP POP POP POP DUP2 MSTORE POP POP DUP4 DUP4 DUP2 MLOAD DUP2 LT PUSH2 0x2ED7 JUMPI PUSH2 0x2ED6 PUSH2 0x4FB1 JUMP JUMPDEST JUMPDEST PUSH1 0x20 MUL PUSH1 0x20 ADD ADD DUP2 SWAP1 MSTORE POP PUSH1 0x1 DUP3 PUSH2 0x2EEF SWAP2 SWAP1 PUSH2 0x4D1A JUMP JUMPDEST SWAP2 POP JUMPDEST DUP1 DUP1 PUSH2 0x2EFD SWAP1 PUSH2 0x4EDB JUMP JUMPDEST SWAP2 POP POP PUSH2 0x2C4A JUMP JUMPDEST POP DUP1 PUSH8 0xFFFFFFFFFFFFFFFF DUP2 GT ISZERO PUSH2 0x2F20 JUMPI PUSH2 0x2F1F PUSH2 0x4FE0 JUMP JUMPDEST JUMPDEST PUSH1 0x40 MLOAD SWAP1 DUP1 DUP3 MSTORE DUP1 PUSH1 0x20 MUL PUSH1 0x20 ADD DUP3 ADD PUSH1 0x40 MSTORE DUP1 ISZERO PUSH2 0x2F59 JUMPI DUP2 PUSH1 0x20 ADD JUMPDEST PUSH2 0x2F46 PUSH2 0x3D92 JUMP JUMPDEST DUP2 MSTORE PUSH1 0x20 ADD SWAP1 PUSH1 0x1 SWAP1 SUB SWAP1 DUP2 PUSH2 0x2F3E JUMPI SWAP1 POP JUMPDEST POP SWAP4 POP PUSH1 0x0 JUMPDEST DUP2 DUP2 LT ISZERO PUSH2 0x31DF JUMPI DUP3 DUP2 DUP2 MLOAD DUP2 LT PUSH2 0x2F7A JUMPI PUSH2 0x2F79 PUSH2 0x4FB1 JUMP JUMPDEST JUMPDEST PUSH1 0x20 MUL PUSH1 0x20 ADD ADD MLOAD PUSH1 0x0 ADD MLOAD DUP6 DUP3 DUP2 MLOAD DUP2 LT PUSH2 0x2F99 JUMPI PUSH2 0x2F98 PUSH2 0x4FB1 JUMP JUMPDEST JUMPDEST PUSH1 0x20 MUL PUSH1 0x20 ADD ADD MLOAD PUSH1 0x0 ADD DUP2 SWAP1 MSTORE POP DUP3 DUP2 DUP2 MLOAD DUP2 LT PUSH2 0x2FBB JUMPI PUSH2 0x2FBA PUSH2 0x4FB1 JUMP JUMPDEST JUMPDEST PUSH1 0x20 MUL PUSH1 0x20 ADD ADD MLOAD PUSH1 0x20 ADD MLOAD DUP6 DUP3 DUP2 MLOAD DUP2 LT PUSH2 0x2FDA JUMPI PUSH2 0x2FD9 PUSH2 0x4FB1 JUMP JUMPDEST JUMPDEST PUSH1 0x20 MUL PUSH1 0x20 ADD ADD MLOAD PUSH1 0x20 ADD SWAP1 PUSH20 0xFFFFFFFFFFFFFFFFFFFFFFFFFFFFFFFFFFFFFFFF AND SWAP1 DUP2 PUSH20 0xFFFFFFFFFFFFFFFFFFFFFFFFFFFFFFFFFFFFFFFF AND DUP2 MSTORE POP POP DUP3 DUP2 DUP2 MLOAD DUP2 LT PUSH2 0x302B JUMPI PUSH2 0x302A PUSH2 0x4FB1 JUMP JUMPDEST JUMPDEST PUSH1 0x20 MUL PUSH1 0x20 ADD ADD MLOAD PUSH1 0x40 ADD MLOAD DUP6 DUP3 DUP2 MLOAD DUP2 LT PUSH2 0x304A JUMPI PUSH2 0x3049 PUSH2 0x4FB1 JUMP JUMPDEST JUMPDEST PUSH1 0x20 MUL PUSH1 0x20 ADD ADD MLOAD PUSH1 0x40 ADD SWAP1 PUSH1 0x2 DUP2 GT ISZERO PUSH2 0x3068 JUMPI PUSH2 0x3067 PUSH2 0x4F53 JUMP JUMPDEST JUMPDEST SWAP1 DUP2 PUSH1 0x2 DUP2 GT ISZERO PUSH2 0x307C JUMPI PUSH2 0x307B PUSH2 0x4F53 JUMP JUMPDEST JUMPDEST DUP2 MSTORE POP POP DUP3 DUP2 DUP2 MLOAD DUP2 LT PUSH2 0x3093 JUMPI PUSH2 0x3092 PUSH2 0x4FB1 JUMP JUMPDEST JUMPDEST PUSH1 0x20 MUL PUSH1 0x20 ADD ADD MLOAD PUSH1 0x60 ADD MLOAD DUP6 DUP3 DUP2 MLOAD DUP2 LT PUSH2 0x30B2 JUMPI PUSH2 0x30B1 PUSH2 0x4FB1 JUMP JUMPDEST JUMPDEST PUSH1 0x20 MUL PUSH1 0x20 ADD ADD MLOAD PUSH1 0x60 ADD DUP2 SWAP1 MSTORE POP PUSH1 0x1 PUSH1 0x0 DUP5 DUP4 DUP2 MLOAD DUP2 LT PUSH2 0x30D8 JUMPI PUSH2 0x30D7 PUSH2 0x4FB1 JUMP JUMPDEST JUMPDEST PUSH1 0x20 MUL PUSH1 0x20 ADD ADD MLOAD PUSH1 0x20 ADD MLOAD PUSH20 0xFFFFFFFFFFFFFFFFFFFFFFFFFFFFFFFFFFFFFFFF AND PUSH20 0xFFFFFFFFFFFFFFFFFFFFFFFFFFFFFFFFFFFFFFFF AND DUP2 MSTORE PUSH1 0x20 ADD SWAP1 DUP2 MSTORE PUSH1 0x20 ADD PUSH1 0x0 KECCAK256 PUSH1 0x1 ADD DUP1 SLOAD PUSH2 0x312C SWAP1 PUSH2 0x4E78 JUMP JUMPDEST DUP1 PUSH1 0x1F ADD PUSH1 0x20 DUP1 SWAP2 DIV MUL PUSH1 0x20 ADD PUSH1 0x40 MLOAD SWAP1 DUP2 ADD PUSH1 0x40 MSTORE DUP1 SWAP3 SWAP2 SWAP1 DUP2 DUP2 MSTORE PUSH1 0x20 ADD DUP3 DUP1 SLOAD PUSH2 0x3158 SWAP1 PUSH2 0x4E78 JUMP JUMPDEST DUP1 ISZERO PUSH2 0x31A5 JUMPI DUP1 PUSH1 0x1F LT PUSH2 0x317A JUMPI PUSH2 0x100 DUP1 DUP4 SLOAD DIV MUL DUP4 MSTORE SWAP2 PUSH1 0x20 ADD SWAP2 PUSH2 0x31A5 JUMP JUMPDEST DUP3 ADD SWAP2 SWAP1 PUSH1 0x0 MSTORE PUSH1 0x20 PUSH1 0x0 KECCAK256 SWAP1 JUMPDEST DUP2 SLOAD DUP2 MSTORE SWAP1 PUSH1 0x1 ADD SWAP1 PUSH1 0x20 ADD DUP1 DUP4 GT PUSH2 0x3188 JUMPI DUP3 SWAP1 SUB PUSH1 0x1F AND DUP3 ADD SWAP2 JUMPDEST POP POP POP POP POP DUP6 DUP3 DUP2 MLOAD DUP2 LT PUSH2 0x31BD JUMPI PUSH2 0x31BC PUSH2 0x4FB1 JUMP JUMPDEST JUMPDEST PUSH1 0x20 MUL PUSH1 0x20 ADD ADD MLOAD PUSH1 0x80 ADD DUP2 SWAP1 MSTORE POP DUP1 DUP1 PUSH2 0x31D7 SWAP1 PUSH2 0x4EDB JUMP JUMPDEST SWAP2 POP POP PUSH2 0x2F5F JUMP JUMPDEST POP POP POP POP SWAP2 SWAP1 POP JUMP JUMPDEST PUSH1 0x0 DUP1 SLOAD SWAP1 PUSH2 0x100 EXP SWAP1 DIV PUSH20 0xFFFFFFFFFFFFFFFFFFFFFFFFFFFFFFFFFFFFFFFF AND DUP2 JUMP JUMPDEST PUSH2 0x3214 PUSH2 0x3BB8 JUMP JUMPDEST PUSH1 0x1 PUSH1 0x0 DUP4 PUSH20 0xFFFFFFFFFFFFFFFFFFFFFFFFFFFFFFFFFFFFFFFF AND PUSH20 0xFFFFFFFFFFFFFFFFFFFFFFFFFFFFFFFFFFFFFFFF AND DUP2 MSTORE PUSH1 0x20 ADD SWAP1 DUP2 MSTORE PUSH1 0x20 ADD PUSH1 0x0 KECCAK256 PUSH1 0x40 MLOAD DUP1 PUSH1 0xE0 ADD PUSH1 0x40 MSTORE SWAP1 DUP2 PUSH1 0x0 DUP3 ADD DUP1 SLOAD PUSH2 0x326E SWAP1 PUSH2 0x4E78 JUMP JUMPDEST DUP1 PUSH1 0x1F ADD PUSH1 0x20 DUP1 SWAP2 DIV MUL PUSH1 0x20 ADD PUSH1 0x40 MLOAD SWAP1 DUP2 ADD PUSH1 0x40 MSTORE DUP1 SWAP3 SWAP2 SWAP1 DUP2 DUP2 MSTORE PUSH1 0x20 ADD DUP3 DUP1 SLOAD PUSH2 0x329A SWAP1 PUSH2 0x4E78 JUMP JUMPDEST DUP1 ISZERO PUSH2 0x32E7 JUMPI DUP1 PUSH1 0x1F LT PUSH2 0x32BC JUMPI PUSH2 0x100 DUP1 DUP4 SLOAD DIV MUL DUP4 MSTORE SWAP2 PUSH1 0x20 ADD SWAP2 PUSH2 0x32E7 JUMP JUMPDEST DUP3 ADD SWAP2 SWAP1 PUSH1 0x0 MSTORE PUSH1 0x20 PUSH1 0x0 KECCAK256 SWAP1 JUMPDEST DUP2 SLOAD DUP2 MSTORE SWAP1 PUSH1 0x1 ADD SWAP1 PUSH1 0x20 ADD DUP1 DUP4 GT PUSH2 0x32CA JUMPI DUP3 SWAP1 SUB PUSH1 0x1F AND DUP3 ADD SWAP2 JUMPDEST POP POP POP POP POP DUP2 MSTORE PUSH1 0x20 ADD PUSH1 0x1 DUP3 ADD DUP1 SLOAD PUSH2 0x3300 SWAP1 PUSH2 0x4E78 JUMP JUMPDEST DUP1 PUSH1 0x1F ADD PUSH1 0x20 DUP1 SWAP2 DIV MUL PUSH1 0x20 ADD PUSH1 0x40 MLOAD SWAP1 DUP2 ADD PUSH1 0x40 MSTORE DUP1 SWAP3 SWAP2 SWAP1 DUP2 DUP2 MSTORE PUSH1 0x20 ADD DUP3 DUP1 SLOAD PUSH2 0x332C SWAP1 PUSH2 0x4E78 JUMP JUMPDEST DUP1 ISZERO PUSH2 0x3379 JUMPI DUP1 PUSH1 0x1F LT PUSH2 0x334E JUMPI PUSH2 0x100 DUP1 DUP4 SLOAD DIV MUL DUP4 MSTORE SWAP2 PUSH1 0x20 ADD SWAP2 PUSH2 0x3379 JUMP JUMPDEST DUP3 ADD SWAP2 SWAP1 PUSH1 0x0 MSTORE PUSH1 0x20 PUSH1 0x0 KECCAK256 SWAP1 JUMPDEST DUP2 SLOAD DUP2 MSTORE SWAP1 PUSH1 0x1 ADD SWAP1 PUSH1 0x20 ADD DUP1 DUP4 GT PUSH2 0x335C JUMPI DUP3 SWAP1 SUB PUSH1 0x1F AND DUP3 ADD SWAP2 JUMPDEST POP POP POP POP POP DUP2 MSTORE PUSH1 0x20 ADD PUSH1 0x2 DUP3 ADD PUSH1 0x0 SWAP1 SLOAD SWAP1 PUSH2 0x100 EXP SWAP1 DIV PUSH1 0xFF AND PUSH1 0x8 DUP2 GT ISZERO PUSH2 0x33A7 JUMPI PUSH2 0x33A6 PUSH2 0x4F53 JUMP JUMPDEST JUMPDEST PUSH1 0x8 DUP2 GT ISZERO PUSH2 0x33B9 JUMPI PUSH2 0x33B8 PUSH2 0x4F53 JUMP JUMPDEST JUMPDEST DUP2 MSTORE PUSH1 0x20 ADD PUSH1 0x2 DUP3 ADD PUSH1 0x1 SWAP1 SLOAD SWAP1 PUSH2 0x100 EXP SWAP1 DIV PUSH1 0xFF AND PUSH1 0x2 DUP2 GT ISZERO PUSH2 0x33E2 JUMPI PUSH2 0x33E1 PUSH2 0x4F53 JUMP JUMPDEST JUMPDEST PUSH1 0x2 DUP2 GT ISZERO PUSH2 0x33F4 JUMPI PUSH2 0x33F3 PUSH2 0x4F53 JUMP JUMPDEST JUMPDEST DUP2 MSTORE PUSH1 0x20 ADD PUSH1 0x3 DUP3 ADD DUP1 SLOAD PUSH2 0x3408 SWAP1 PUSH2 0x4E78 JUMP JUMPDEST DUP1 PUSH1 0x1F ADD PUSH1 0x20 DUP1 SWAP2 DIV MUL PUSH1 0x20 ADD PUSH1 0x40 MLOAD SWAP1 DUP2 ADD PUSH1 0x40 MSTORE DUP1 SWAP3 SWAP2 SWAP1 DUP2 DUP2 MSTORE PUSH1 0x20 ADD DUP3 DUP1 SLOAD PUSH2 0x3434 SWAP1 PUSH2 0x4E78 JUMP JUMPDEST DUP1 ISZERO PUSH2 0x3481 JUMPI DUP1 PUSH1 0x1F LT PUSH2 0x3456 JUMPI PUSH2 0x100 DUP1 DUP4 SLOAD DIV MUL DUP4 MSTORE SWAP2 PUSH1 0x20 ADD SWAP2 PUSH2 0x3481 JUMP JUMPDEST DUP3 ADD SWAP2 SWAP1 PUSH1 0x0 MSTORE PUSH1 0x20 PUSH1 0x0 KECCAK256 SWAP1 JUMPDEST DUP2 SLOAD DUP2 MSTORE SWAP1 PUSH1 0x1 ADD SWAP1 PUSH1 0x20 ADD DUP1 DUP4 GT PUSH2 0x3464 JUMPI DUP3 SWAP1 SUB PUSH1 0x1F AND DUP3 ADD SWAP2 JUMPDEST POP POP POP POP POP DUP2 MSTORE PUSH1 0x20 ADD PUSH1 0x4 DUP3 ADD DUP1 SLOAD PUSH2 0x349A SWAP1 PUSH2 0x4E78 JUMP JUMPDEST DUP1 PUSH1 0x1F ADD PUSH1 0x20 DUP1 SWAP2 DIV MUL PUSH1 0x20 ADD PUSH1 0x40 MLOAD SWAP1 DUP2 ADD PUSH1 0x40 MSTORE DUP1 SWAP3 SWAP2 SWAP1 DUP2 DUP2 MSTORE PUSH1 0x20 ADD DUP3 DUP1 SLOAD PUSH2 0x34C6 SWAP1 PUSH2 0x4E78 JUMP JUMPDEST DUP1 ISZERO PUSH2 0x3513 JUMPI DUP1 PUSH1 0x1F LT PUSH2 0x34E8 JUMPI PUSH2 0x100 DUP1 DUP4 SLOAD DIV MUL DUP4 MSTORE SWAP2 PUSH1 0x20 ADD SWAP2 PUSH2 0x3513 JUMP JUMPDEST DUP3 ADD SWAP2 SWAP1 PUSH1 0x0 MSTORE PUSH1 0x20 PUSH1 0x0 KECCAK256 SWAP1 JUMPDEST DUP2 SLOAD DUP2 MSTORE SWAP1 PUSH1 0x1 ADD SWAP1 PUSH1 0x20 ADD DUP1 DUP4 GT PUSH2 0x34F6 JUMPI DUP3 SWAP1 SUB PUSH1 0x1F AND DUP3 ADD SWAP2 JUMPDEST POP POP POP POP POP DUP2 MSTORE PUSH1 0x20 ADD PUSH1 0x5 DUP3 ADD PUSH1 0x0 SWAP1 SLOAD SWAP1 PUSH2 0x100 EXP SWAP1 DIV PUSH20 0xFFFFFFFFFFFFFFFFFFFFFFFFFFFFFFFFFFFFFFFF AND PUSH20 0xFFFFFFFFFFFFFFFFFFFFFFFFFFFFFFFFFFFFFFFF AND PUSH20 0xFFFFFFFFFFFFFFFFFFFFFFFFFFFFFFFFFFFFFFFF AND DUP2 MSTORE POP POP SWAP1 POP SWAP2 SWAP1 POP JUMP JUMPDEST PUSH2 0x3581 PUSH2 0x3D42 JUMP JUMPDEST PUSH1 0x3 DUP3 PUSH1 0x40 MLOAD PUSH2 0x3591 SWAP2 SWAP1 PUSH2 0x4955 JUMP JUMPDEST SWAP1 DUP2 MSTORE PUSH1 0x20 ADD PUSH1 0x40 MLOAD DUP1 SWAP2 SUB SWAP1 KECCAK256 PUSH1 0x40 MLOAD DUP1 PUSH1 0x80 ADD PUSH1 0x40 MSTORE SWAP1 DUP2 PUSH1 0x0 DUP3 ADD DUP1 SLOAD PUSH2 0x35BA SWAP1 PUSH2 0x4E78 JUMP JUMPDEST DUP1 PUSH1 0x1F ADD PUSH1 0x20 DUP1 SWAP2 DIV MUL PUSH1 0x20 ADD PUSH1 0x40 MLOAD SWAP1 DUP2 ADD PUSH1 0x40 MSTORE DUP1 SWAP3 SWAP2 SWAP1 DUP2 DUP2 MSTORE PUSH1 0x20 ADD DUP3 DUP1 SLOAD PUSH2 0x35E6 SWAP1 PUSH2 0x4E78 JUMP JUMPDEST DUP1 ISZERO PUSH2 0x3633 JUMPI DUP1 PUSH1 0x1F LT PUSH2 0x3608 JUMPI PUSH2 0x100 DUP1 DUP4 SLOAD DIV MUL DUP4 MSTORE SWAP2 PUSH1 0x20 ADD SWAP2 PUSH2 0x3633 JUMP JUMPDEST DUP3 ADD SWAP2 SWAP1 PUSH1 0x0 MSTORE PUSH1 0x20 PUSH1 0x0 KECCAK256 SWAP1 JUMPDEST DUP2 SLOAD DUP2 MSTORE SWAP1 PUSH1 0x1 ADD SWAP1 PUSH1 0x20 ADD DUP1 DUP4 GT PUSH2 0x3616 JUMPI DUP3 SWAP1 SUB PUSH1 0x1F AND DUP3 ADD SWAP2 JUMPDEST POP POP POP POP POP DUP2 MSTORE PUSH1 0x20 ADD PUSH1 0x1 DUP3 ADD PUSH1 0x0 SWAP1 SLOAD SWAP1 PUSH2 0x100 EXP SWAP1 DIV PUSH20 0xFFFFFFFFFFFFFFFFFFFFFFFFFFFFFFFFFFFFFFFF AND PUSH20 0xFFFFFFFFFFFFFFFFFFFFFFFFFFFFFFFFFFFFFFFF AND PUSH20 0xFFFFFFFFFFFFFFFFFFFFFFFFFFFFFFFFFFFFFFFF AND DUP2 MSTORE PUSH1 0x20 ADD PUSH1 0x1 DUP3 ADD PUSH1 0x14 SWAP1 SLOAD SWAP1 PUSH2 0x100 EXP SWAP1 DIV PUSH1 0xFF AND PUSH1 0x2 DUP2 GT ISZERO PUSH2 0x36B7 JUMPI PUSH2 0x36B6 PUSH2 0x4F53 JUMP JUMPDEST JUMPDEST PUSH1 0x2 DUP2 GT ISZERO PUSH2 0x36C9 JUMPI PUSH2 0x36C8 PUSH2 0x4F53 JUMP JUMPDEST JUMPDEST DUP2 MSTORE PUSH1 0x20 ADD PUSH1 0x2 DUP3 ADD DUP1 SLOAD PUSH2 0x36DD SWAP1 PUSH2 0x4E78 JUMP JUMPDEST DUP1 PUSH1 0x1F ADD PUSH1 0x20 DUP1 SWAP2 DIV MUL PUSH1 0x20 ADD PUSH1 0x40 MLOAD SWAP1 DUP2 ADD PUSH1 0x40 MSTORE DUP1 SWAP3 SWAP2 SWAP1 DUP2 DUP2 MSTORE PUSH1 0x20 ADD DUP3 DUP1 SLOAD PUSH2 0x3709 SWAP1 PUSH2 0x4E78 JUMP JUMPDEST DUP1 ISZERO PUSH2 0x3756 JUMPI DUP1 PUSH1 0x1F LT PUSH2 0x372B JUMPI PUSH2 0x100 DUP1 DUP4 SLOAD DIV MUL DUP4 MSTORE SWAP2 PUSH1 0x20 ADD SWAP2 PUSH2 0x3756 JUMP JUMPDEST DUP3 ADD SWAP2 SWAP1 PUSH1 0x0 MSTORE PUSH1 0x20 PUSH1 0x0 KECCAK256 SWAP1 JUMPDEST DUP2 SLOAD DUP2 MSTORE SWAP1 PUSH1 0x1 ADD SWAP1 PUSH1 0x20 ADD DUP1 DUP4 GT PUSH2 0x3739 JUMPI DUP3 SWAP1 SUB PUSH1 0x1F AND DUP3 ADD SWAP2 JUMPDEST POP POP POP POP POP DUP2 MSTORE POP POP SWAP1 POP SWAP2 SWAP1 POP JUMP JUMPDEST PUSH1 0x0 DUP2 PUSH1 0x40 MLOAD PUSH1 0x20 ADD PUSH2 0x3779 SWAP2 SWAP1 PUSH2 0x4955 JUMP JUMPDEST PUSH1 0x40 MLOAD PUSH1 0x20 DUP2 DUP4 SUB SUB DUP2 MSTORE SWAP1 PUSH1 0x40 MSTORE DUP1 MLOAD SWAP1 PUSH1 0x20 ADD KECCAK256 DUP4 PUSH1 0x40 MLOAD PUSH1 0x20 ADD PUSH2 0x37A0 SWAP2 SWAP1 PUSH2 0x4955 JUMP JUMPDEST PUSH1 0x40 MLOAD PUSH1 0x20 DUP2 DUP4 SUB SUB DUP2 MSTORE SWAP1 PUSH1 0x40 MSTORE DUP1 MLOAD SWAP1 PUSH1 0x20 ADD KECCAK256 EQ SWAP1 POP SWAP3 SWAP2 POP POP JUMP JUMPDEST PUSH1 0x60 PUSH1 0x0 PUSH1 0x4 DUP1 SLOAD SWAP1 POP SWAP1 POP PUSH1 0x0 DUP2 PUSH8 0xFFFFFFFFFFFFFFFF DUP2 GT ISZERO PUSH2 0x37E7 JUMPI PUSH2 0x37E6 PUSH2 0x4FE0 JUMP JUMPDEST JUMPDEST PUSH1 0x40 MLOAD SWAP1 DUP1 DUP3 MSTORE DUP1 PUSH1 0x20 MUL PUSH1 0x20 ADD DUP3 ADD PUSH1 0x40 MSTORE DUP1 ISZERO PUSH2 0x3820 JUMPI DUP2 PUSH1 0x20 ADD JUMPDEST PUSH2 0x380D PUSH2 0x3D42 JUMP JUMPDEST DUP2 MSTORE PUSH1 0x20 ADD SWAP1 PUSH1 0x1 SWAP1 SUB SWAP1 DUP2 PUSH2 0x3805 JUMPI SWAP1 POP JUMPDEST POP SWAP1 POP PUSH1 0x0 DUP1 PUSH1 0x0 SWAP1 POP JUMPDEST DUP4 DUP2 LT ISZERO PUSH2 0x3B01 JUMPI DUP6 PUSH20 0xFFFFFFFFFFFFFFFFFFFFFFFFFFFFFFFFFFFFFFFF AND PUSH1 0x3 PUSH1 0x4 DUP4 DUP2 SLOAD DUP2 LT PUSH2 0x3860 JUMPI PUSH2 0x385F PUSH2 0x4FB1 JUMP JUMPDEST JUMPDEST SWAP1 PUSH1 0x0 MSTORE PUSH1 0x20 PUSH1 0x0 KECCAK256 ADD PUSH1 0x40 MLOAD PUSH2 0x3877 SWAP2 SWAP1 PUSH2 0x496C JUMP JUMPDEST SWAP1 DUP2 MSTORE PUSH1 0x20 ADD PUSH1 0x40 MLOAD DUP1 SWAP2 SUB SWAP1 KECCAK256 PUSH1 0x1 ADD PUSH1 0x0 SWAP1 SLOAD SWAP1 PUSH2 0x100 EXP SWAP1 DIV PUSH20 0xFFFFFFFFFFFFFFFFFFFFFFFFFFFFFFFFFFFFFFFF AND PUSH20 0xFFFFFFFFFFFFFFFFFFFFFFFFFFFFFFFFFFFFFFFF AND EQ ISZERO PUSH2 0x3AEE JUMPI PUSH1 0x3 PUSH1 0x4 DUP3 DUP2 SLOAD DUP2 LT PUSH2 0x38DB JUMPI PUSH2 0x38DA PUSH2 0x4FB1 JUMP JUMPDEST JUMPDEST SWAP1 PUSH1 0x0 MSTORE PUSH1 0x20 PUSH1 0x0 KECCAK256 ADD PUSH1 0x40 MLOAD PUSH2 0x38F2 SWAP2 SWAP1 PUSH2 0x496C JUMP JUMPDEST SWAP1 DUP2 MSTORE PUSH1 0x20 ADD PUSH1 0x40 MLOAD DUP1 SWAP2 SUB SWAP1 KECCAK256 PUSH1 0x40 MLOAD DUP1 PUSH1 0x80 ADD PUSH1 0x40 MSTORE SWAP1 DUP2 PUSH1 0x0 DUP3 ADD DUP1 SLOAD PUSH2 0x391B SWAP1 PUSH2 0x4E78 JUMP JUMPDEST DUP1 PUSH1 0x1F ADD PUSH1 0x20 DUP1 SWAP2 DIV MUL PUSH1 0x20 ADD PUSH1 0x40 MLOAD SWAP1 DUP2 ADD PUSH1 0x40 MSTORE DUP1 SWAP3 SWAP2 SWAP1 DUP2 DUP2 MSTORE PUSH1 0x20 ADD DUP3 DUP1 SLOAD PUSH2 0x3947 SWAP1 PUSH2 0x4E78 JUMP JUMPDEST DUP1 ISZERO PUSH2 0x3994 JUMPI DUP1 PUSH1 0x1F LT PUSH2 0x3969 JUMPI PUSH2 0x100 DUP1 DUP4 SLOAD DIV MUL DUP4 MSTORE SWAP2 PUSH1 0x20 ADD SWAP2 PUSH2 0x3994 JUMP JUMPDEST DUP3 ADD SWAP2 SWAP1 PUSH1 0x0 MSTORE PUSH1 0x20 PUSH1 0x0 KECCAK256 SWAP1 JUMPDEST DUP2 SLOAD DUP2 MSTORE SWAP1 PUSH1 0x1 ADD SWAP1 PUSH1 0x20 ADD DUP1 DUP4 GT PUSH2 0x3977 JUMPI DUP3 SWAP1 SUB PUSH1 0x1F AND DUP3 ADD SWAP2 JUMPDEST POP POP POP POP POP DUP2 MSTORE PUSH1 0x20 ADD PUSH1 0x1 DUP3 ADD PUSH1 0x0 SWAP1 SLOAD SWAP1 PUSH2 0x100 EXP SWAP1 DIV PUSH20 0xFFFFFFFFFFFFFFFFFFFFFFFFFFFFFFFFFFFFFFFF AND PUSH20 0xFFFFFFFFFFFFFFFFFFFFFFFFFFFFFFFFFFFFFFFF AND PUSH20 0xFFFFFFFFFFFFFFFFFFFFFFFFFFFFFFFFFFFFFFFF AND DUP2 MSTORE PUSH1 0x20 ADD PUSH1 0x1 DUP3 ADD PUSH1 0x14 SWAP1 SLOAD SWAP1 PUSH2 0x100 EXP SWAP1 DIV PUSH1 0xFF AND PUSH1 0x2 DUP2 GT ISZERO PUSH2 0x3A18 JUMPI PUSH2 0x3A17 PUSH2 0x4F53 JUMP JUMPDEST JUMPDEST PUSH1 0x2 DUP2 GT ISZERO PUSH2 0x3A2A JUMPI PUSH2 0x3A29 PUSH2 0x4F53 JUMP JUMPDEST JUMPDEST DUP2 MSTORE PUSH1 0x20 ADD PUSH1 0x2 DUP3 ADD DUP1 SLOAD PUSH2 0x3A3E SWAP1 PUSH2 0x4E78 JUMP JUMPDEST DUP1 PUSH1 0x1F ADD PUSH1 0x20 DUP1 SWAP2 DIV MUL PUSH1 0x20 ADD PUSH1 0x40 MLOAD SWAP1 DUP2 ADD PUSH1 0x40 MSTORE DUP1 SWAP3 SWAP2 SWAP1 DUP2 DUP2 MSTORE PUSH1 0x20 ADD DUP3 DUP1 SLOAD PUSH2 0x3A6A SWAP1 PUSH2 0x4E78 JUMP JUMPDEST DUP1 ISZERO PUSH2 0x3AB7 JUMPI DUP1 PUSH1 0x1F LT PUSH2 0x3A8C JUMPI PUSH2 0x100 DUP1 DUP4 SLOAD DIV MUL DUP4 MSTORE SWAP2 PUSH1 0x20 ADD SWAP2 PUSH2 0x3AB7 JUMP JUMPDEST DUP3 ADD SWAP2 SWAP1 PUSH1 0x0 MSTORE PUSH1 0x20 PUSH1 0x0 KECCAK256 SWAP1 JUMPDEST DUP2 SLOAD DUP2 MSTORE SWAP1 PUSH1 0x1 ADD SWAP1 PUSH1 0x20 ADD DUP1 DUP4 GT PUSH2 0x3A9A JUMPI DUP3 SWAP1 SUB PUSH1 0x1F AND DUP3 ADD SWAP2 JUMPDEST POP POP POP POP POP DUP2 MSTORE POP POP DUP4 DUP4 DUP2 MLOAD DUP2 LT PUSH2 0x3AD3 JUMPI PUSH2 0x3AD2 PUSH2 0x4FB1 JUMP JUMPDEST JUMPDEST PUSH1 0x20 MUL PUSH1 0x20 ADD ADD DUP2 SWAP1 MSTORE POP PUSH1 0x1 DUP3 PUSH2 0x3AEB SWAP2 SWAP1 PUSH2 0x4D1A JUMP JUMPDEST SWAP2 POP JUMPDEST DUP1 DUP1 PUSH2 0x3AF9 SWAP1 PUSH2 0x4EDB JUMP JUMPDEST SWAP2 POP POP PUSH2 0x382B JUMP JUMPDEST POP DUP1 PUSH8 0xFFFFFFFFFFFFFFFF DUP2 GT ISZERO PUSH2 0x3B1C JUMPI PUSH2 0x3B1B PUSH2 0x4FE0 JUMP JUMPDEST JUMPDEST PUSH1 0x40 MLOAD SWAP1 DUP1 DUP3 MSTORE DUP1 PUSH1 0x20 MUL PUSH1 0x20 ADD DUP3 ADD PUSH1 0x40 MSTORE DUP1 ISZERO PUSH2 0x3B55 JUMPI DUP2 PUSH1 0x20 ADD JUMPDEST PUSH2 0x3B42 PUSH2 0x3D42 JUMP JUMPDEST DUP2 MSTORE PUSH1 0x20 ADD SWAP1 PUSH1 0x1 SWAP1 SUB SWAP1 DUP2 PUSH2 0x3B3A JUMPI SWAP1 POP JUMPDEST POP SWAP4 POP PUSH1 0x0 JUMPDEST DUP2 DUP2 LT ISZERO PUSH2 0x3BAF JUMPI DUP3 DUP2 DUP2 MLOAD DUP2 LT PUSH2 0x3B76 JUMPI PUSH2 0x3B75 PUSH2 0x4FB1 JUMP JUMPDEST JUMPDEST PUSH1 0x20 MUL PUSH1 0x20 ADD ADD MLOAD DUP6 DUP3 DUP2 MLOAD DUP2 LT PUSH2 0x3B91 JUMPI PUSH2 0x3B90 PUSH2 0x4FB1 JUMP JUMPDEST JUMPDEST PUSH1 0x20 MUL PUSH1 0x20 ADD ADD DUP2 SWAP1 MSTORE POP DUP1 DUP1 PUSH2 0x3BA7 SWAP1 PUSH2 0x4EDB JUMP JUMPDEST SWAP2 POP POP PUSH2 0x3B5B JUMP JUMPDEST POP POP POP POP SWAP2 SWAP1 POP JUMP JUMPDEST PUSH1 0x40 MLOAD DUP1 PUSH1 0xE0 ADD PUSH1 0x40 MSTORE DUP1 PUSH1 0x60 DUP2 MSTORE PUSH1 0x20 ADD PUSH1 0x60 DUP2 MSTORE PUSH1 0x20 ADD PUSH1 0x0 PUSH1 0x8 DUP2 GT ISZERO PUSH2 0x3BE5 JUMPI PUSH2 0x3BE4 PUSH2 0x4F53 JUMP JUMPDEST JUMPDEST DUP2 MSTORE PUSH1 0x20 ADD PUSH1 0x0 PUSH1 0x2 DUP2 GT ISZERO PUSH2 0x3BFE JUMPI PUSH2 0x3BFD PUSH2 0x4F53 JUMP JUMPDEST JUMPDEST DUP2 MSTORE PUSH1 0x20 ADD PUSH1 0x60 DUP2 MSTORE PUSH1 0x20 ADD PUSH1 0x60 DUP2 MSTORE PUSH1 0x20 ADD PUSH1 0x0 PUSH20 0xFFFFFFFFFFFFFFFFFFFFFFFFFFFFFFFFFFFFFFFF AND DUP2 MSTORE POP SWAP1 JUMP JUMPDEST PUSH1 0x40 MLOAD DUP1 PUSH1 0xE0 ADD PUSH1 0x40 MSTORE DUP1 PUSH1 0x60 DUP2 MSTORE PUSH1 0x20 ADD PUSH1 0x60 DUP2 MSTORE PUSH1 0x20 ADD PUSH1 0x0 DUP2 MSTORE PUSH1 0x20 ADD PUSH1 0x0 PUSH20 0xFFFFFFFFFFFFFFFFFFFFFFFFFFFFFFFFFFFFFFFF AND DUP2 MSTORE PUSH1 0x20 ADD PUSH1 0x0 PUSH20 0xFFFFFFFFFFFFFFFFFFFFFFFFFFFFFFFFFFFFFFFF AND DUP2 MSTORE PUSH1 0x20 ADD PUSH1 0x0 DUP2 MSTORE PUSH1 0x20 ADD PUSH1 0x0 DUP2 MSTORE POP SWAP1 JUMP JUMPDEST PUSH1 0x40 MLOAD DUP1 PUSH2 0x160 ADD PUSH1 0x40 MSTORE DUP1 PUSH1 0x60 DUP2 MSTORE PUSH1 0x20 ADD PUSH1 0x60 DUP2 MSTORE PUSH1 0x20 ADD PUSH1 0x0 DUP2 MSTORE PUSH1 0x20 ADD PUSH1 0x0 PUSH20 0xFFFFFFFFFFFFFFFFFFFFFFFFFFFFFFFFFFFFFFFF AND DUP2 MSTORE PUSH1 0x20 ADD PUSH1 0x60 DUP2 MSTORE PUSH1 0x20 ADD PUSH1 0x0 PUSH1 0x8 DUP2 GT ISZERO PUSH2 0x3CF1 JUMPI PUSH2 0x3CF0 PUSH2 0x4F53 JUMP JUMPDEST JUMPDEST DUP2 MSTORE PUSH1 0x20 ADD PUSH1 0x0 PUSH20 0xFFFFFFFFFFFFFFFFFFFFFFFFFFFFFFFFFFFFFFFF AND DUP2 MSTORE PUSH1 0x20 ADD PUSH1 0x60 DUP2 MSTORE PUSH1 0x20 ADD PUSH1 0x0 PUSH1 0x8 DUP2 GT ISZERO PUSH2 0x3D2E JUMPI PUSH2 0x3D2D PUSH2 0x4F53 JUMP JUMPDEST JUMPDEST DUP2 MSTORE PUSH1 0x20 ADD PUSH1 0x0 DUP2 MSTORE PUSH1 0x20 ADD PUSH1 0x0 DUP2 MSTORE POP SWAP1 JUMP JUMPDEST PUSH1 0x40 MLOAD DUP1 PUSH1 0x80 ADD PUSH1 0x40 MSTORE DUP1 PUSH1 0x60 DUP2 MSTORE PUSH1 0x20 ADD PUSH1 0x0 PUSH20 0xFFFFFFFFFFFFFFFFFFFFFFFFFFFFFFFFFFFFFFFF AND DUP2 MSTORE PUSH1 0x20 ADD PUSH1 0x0 PUSH1 0x2 DUP2 GT ISZERO PUSH2 0x3D85 JUMPI PUSH2 0x3D84 PUSH2 0x4F53 JUMP JUMPDEST JUMPDEST DUP2 MSTORE PUSH1 0x20 ADD PUSH1 0x60 DUP2 MSTORE POP SWAP1 JUMP JUMPDEST PUSH1 0x40 MLOAD DUP1 PUSH1 0xA0 ADD PUSH1 0x40 MSTORE DUP1 PUSH1 0x60 DUP2 MSTORE PUSH1 0x20 ADD PUSH1 0x0 PUSH20 0xFFFFFFFFFFFFFFFFFFFFFFFFFFFFFFFFFFFFFFFF AND DUP2 MSTORE PUSH1 0x20 ADD PUSH1 0x0 PUSH1 0x2 DUP2 GT ISZERO PUSH2 0x3DD5 JUMPI PUSH2 0x3DD4 PUSH2 0x4F53 JUMP JUMPDEST JUMPDEST DUP2 MSTORE PUSH1 0x20 ADD PUSH1 0x60 DUP2 MSTORE PUSH1 0x20 ADD PUSH1 0x60 DUP2 MSTORE POP SWAP1 JUMP JUMPDEST PUSH1 0x0 PUSH2 0x3DFC PUSH2 0x3DF7 DUP5 PUSH2 0x4B7F JUMP JUMPDEST PUSH2 0x4B5A JUMP JUMPDEST SWAP1 POP DUP3 DUP2 MSTORE PUSH1 0x20 DUP2 ADD DUP5 DUP5 DUP5 ADD GT ISZERO PUSH2 0x3E18 JUMPI PUSH2 0x3E17 PUSH2 0x5014 JUMP JUMPDEST JUMPDEST PUSH2 0x3E23 DUP5 DUP3 DUP6 PUSH2 0x4E36 JUMP JUMPDEST POP SWAP4 SWAP3 POP POP POP JUMP JUMPDEST PUSH1 0x0 DUP2 CALLDATALOAD SWAP1 POP PUSH2 0x3E3A DUP2 PUSH2 0x505C JUMP JUMPDEST SWAP3 SWAP2 POP POP JUMP JUMPDEST PUSH1 0x0 DUP2 CALLDATALOAD SWAP1 POP PUSH2 0x3E4F DUP2 PUSH2 0x5073 JUMP JUMPDEST SWAP3 SWAP2 POP POP JUMP JUMPDEST PUSH1 0x0 DUP2 CALLDATALOAD SWAP1 POP PUSH2 0x3E64 DUP2 PUSH2 0x5083 JUMP JUMPDEST SWAP3 SWAP2 POP POP JUMP JUMPDEST PUSH1 0x0 DUP3 PUSH1 0x1F DUP4 ADD SLT PUSH2 0x3E7F JUMPI PUSH2 0x3E7E PUSH2 0x500F JUMP JUMPDEST JUMPDEST DUP2 CALLDATALOAD PUSH2 0x3E8F DUP5 DUP3 PUSH1 0x20 DUP7 ADD PUSH2 0x3DE9 JUMP JUMPDEST SWAP2 POP POP SWAP3 SWAP2 POP POP JUMP JUMPDEST PUSH1 0x0 DUP2 CALLDATALOAD SWAP1 POP PUSH2 0x3EA7 DUP2 PUSH2 0x5093 JUMP JUMPDEST SWAP3 SWAP2 POP POP JUMP JUMPDEST PUSH1 0x0 PUSH1 0x20 DUP3 DUP5 SUB SLT ISZERO PUSH2 0x3EC3 JUMPI PUSH2 0x3EC2 PUSH2 0x501E JUMP JUMPDEST JUMPDEST PUSH1 0x0 PUSH2 0x3ED1 DUP5 DUP3 DUP6 ADD PUSH2 0x3E2B JUMP JUMPDEST SWAP2 POP POP SWAP3 SWAP2 POP POP JUMP JUMPDEST PUSH1 0x0 PUSH1 0x20 DUP3 DUP5 SUB SLT ISZERO PUSH2 0x3EF0 JUMPI PUSH2 0x3EEF PUSH2 0x501E JUMP JUMPDEST JUMPDEST PUSH1 0x0 PUSH2 0x3EFE DUP5 DUP3 DUP6 ADD PUSH2 0x3E40 JUMP JUMPDEST SWAP2 POP POP SWAP3 SWAP2 POP POP JUMP JUMPDEST PUSH1 0x0 PUSH1 0x20 DUP3 DUP5 SUB SLT ISZERO PUSH2 0x3F1D JUMPI PUSH2 0x3F1C PUSH2 0x501E JUMP JUMPDEST JUMPDEST PUSH1 0x0 PUSH2 0x3F2B DUP5 DUP3 DUP6 ADD PUSH2 0x3E55 JUMP JUMPDEST SWAP2 POP POP SWAP3 SWAP2 POP POP JUMP JUMPDEST PUSH1 0x0 PUSH1 0x20 DUP3 DUP5 SUB SLT ISZERO PUSH2 0x3F4A JUMPI PUSH2 0x3F49 PUSH2 0x501E JUMP JUMPDEST JUMPDEST PUSH1 0x0 DUP3 ADD CALLDATALOAD PUSH8 0xFFFFFFFFFFFFFFFF DUP2 GT ISZERO PUSH2 0x3F68 JUMPI PUSH2 0x3F67 PUSH2 0x5019 JUMP JUMPDEST JUMPDEST PUSH2 0x3F74 DUP5 DUP3 DUP6 ADD PUSH2 0x3E6A JUMP JUMPDEST SWAP2 POP POP SWAP3 SWAP2 POP POP JUMP JUMPDEST PUSH1 0x0 DUP1 PUSH1 0x40 DUP4 DUP6 SUB SLT ISZERO PUSH2 0x3F94 JUMPI PUSH2 0x3F93 PUSH2 0x501E JUMP JUMPDEST JUMPDEST PUSH1 0x0 DUP4 ADD CALLDATALOAD PUSH8 0xFFFFFFFFFFFFFFFF DUP2 GT ISZERO PUSH2 0x3FB2 JUMPI PUSH2 0x3FB1 PUSH2 0x5019 JUMP JUMPDEST JUMPDEST PUSH2 0x3FBE DUP6 DUP3 DUP7 ADD PUSH2 0x3E6A JUMP JUMPDEST SWAP3 POP POP PUSH1 0x20 DUP4 ADD CALLDATALOAD PUSH8 0xFFFFFFFFFFFFFFFF DUP2 GT ISZERO PUSH2 0x3FDF JUMPI PUSH2 0x3FDE PUSH2 0x5019 JUMP JUMPDEST JUMPDEST PUSH2 0x3FEB DUP6 DUP3 DUP7 ADD PUSH2 0x3E6A JUMP JUMPDEST SWAP2 POP POP SWAP3 POP SWAP3 SWAP1 POP JUMP JUMPDEST PUSH1 0x0 DUP1 PUSH1 0x0 PUSH1 0x60 DUP5 DUP7 SUB SLT ISZERO PUSH2 0x400E JUMPI PUSH2 0x400D PUSH2 0x501E JUMP JUMPDEST JUMPDEST PUSH1 0x0 DUP5 ADD CALLDATALOAD PUSH8 0xFFFFFFFFFFFFFFFF DUP2 GT ISZERO PUSH2 0x402C JUMPI PUSH2 0x402B PUSH2 0x5019 JUMP JUMPDEST JUMPDEST PUSH2 0x4038 DUP7 DUP3 DUP8 ADD PUSH2 0x3E6A JUMP JUMPDEST SWAP4 POP POP PUSH1 0x20 DUP5 ADD CALLDATALOAD PUSH8 0xFFFFFFFFFFFFFFFF DUP2 GT ISZERO PUSH2 0x4059 JUMPI PUSH2 0x4058 PUSH2 0x5019 JUMP JUMPDEST JUMPDEST PUSH2 0x4065 DUP7 DUP3 DUP8 ADD PUSH2 0x3E6A JUMP JUMPDEST SWAP3 POP POP PUSH1 0x40 PUSH2 0x4076 DUP7 DUP3 DUP8 ADD PUSH2 0x3E2B JUMP JUMPDEST SWAP2 POP POP SWAP3 POP SWAP3 POP SWAP3 JUMP JUMPDEST PUSH1 0x0 PUSH1 0x20 DUP3 DUP5 SUB SLT ISZERO PUSH2 0x4096 JUMPI PUSH2 0x4095 PUSH2 0x501E JUMP JUMPDEST JUMPDEST PUSH1 0x0 PUSH2 0x40A4 DUP5 DUP3 DUP6 ADD PUSH2 0x3E98 JUMP JUMPDEST SWAP2 POP POP SWAP3 SWAP2 POP POP JUMP JUMPDEST PUSH1 0x0 PUSH2 0x40B9 DUP4 DUP4 PUSH2 0x44D6 JUMP JUMPDEST SWAP1 POP SWAP3 SWAP2 POP POP JUMP JUMPDEST PUSH1 0x0 PUSH2 0x40CD DUP4 DUP4 PUSH2 0x455A JUMP JUMPDEST SWAP1 POP SWAP3 SWAP2 POP POP JUMP JUMPDEST PUSH1 0x0 PUSH2 0x40E1 DUP4 DUP4 PUSH2 0x462E JUMP JUMPDEST SWAP1 POP SWAP3 SWAP2 POP POP JUMP JUMPDEST PUSH1 0x0 PUSH2 0x40F5 DUP4 DUP4 PUSH2 0x46D1 JUMP JUMPDEST SWAP1 POP SWAP3 SWAP2 POP POP JUMP JUMPDEST PUSH1 0x0 PUSH2 0x4109 DUP4 DUP4 PUSH2 0x47D5 JUMP JUMPDEST SWAP1 POP SWAP3 SWAP2 POP POP JUMP JUMPDEST PUSH2 0x411A DUP2 PUSH2 0x4DA4 JUMP JUMPDEST DUP3 MSTORE POP POP JUMP JUMPDEST PUSH2 0x4129 DUP2 PUSH2 0x4DA4 JUMP JUMPDEST DUP3 MSTORE POP POP JUMP JUMPDEST PUSH1 0x0 PUSH2 0x413A DUP3 PUSH2 0x4C15 JUMP JUMPDEST PUSH2 0x4144 DUP2 DUP6 PUSH2 0x4C98 JUMP JUMPDEST SWAP4 POP DUP4 PUSH1 0x20 DUP3 MUL DUP6 ADD PUSH2 0x4156 DUP6 PUSH2 0x4BB0 JUMP JUMPDEST DUP1 PUSH1 0x0 JUMPDEST DUP6 DUP2 LT ISZERO PUSH2 0x4192 JUMPI DUP5 DUP5 SUB DUP10 MSTORE DUP2 MLOAD PUSH2 0x4173 DUP6 DUP3 PUSH2 0x40AD JUMP JUMPDEST SWAP5 POP PUSH2 0x417E DUP4 PUSH2 0x4C57 JUMP JUMPDEST SWAP3 POP PUSH1 0x20 DUP11 ADD SWAP10 POP POP PUSH1 0x1 DUP2 ADD SWAP1 POP PUSH2 0x415A JUMP JUMPDEST POP DUP3 SWAP8 POP DUP8 SWAP6 POP POP POP POP POP POP SWAP3 SWAP2 POP POP JUMP JUMPDEST PUSH1 0x0 PUSH2 0x41AF DUP3 PUSH2 0x4C20 JUMP JUMPDEST PUSH2 0x41B9 DUP2 DUP6 PUSH2 0x4CA9 JUMP JUMPDEST SWAP4 POP DUP4 PUSH1 0x20 DUP3 MUL DUP6 ADD PUSH2 0x41CB DUP6 PUSH2 0x4BC0 JUMP JUMPDEST DUP1 PUSH1 0x0 JUMPDEST DUP6 DUP2 LT ISZERO PUSH2 0x4207 JUMPI DUP5 DUP5 SUB DUP10 MSTORE DUP2 MLOAD PUSH2 0x41E8 DUP6 DUP3 PUSH2 0x40C1 JUMP JUMPDEST SWAP5 POP PUSH2 0x41F3 DUP4 PUSH2 0x4C64 JUMP JUMPDEST SWAP3 POP PUSH1 0x20 DUP11 ADD SWAP10 POP POP PUSH1 0x1 DUP2 ADD SWAP1 POP PUSH2 0x41CF JUMP JUMPDEST POP DUP3 SWAP8 POP DUP8 SWAP6 POP POP POP POP POP POP SWAP3 SWAP2 POP POP JUMP JUMPDEST PUSH1 0x0 PUSH2 0x4224 DUP3 PUSH2 0x4C2B JUMP JUMPDEST PUSH2 0x422E DUP2 DUP6 PUSH2 0x4CBA JUMP JUMPDEST SWAP4 POP DUP4 PUSH1 0x20 DUP3 MUL DUP6 ADD PUSH2 0x4240 DUP6 PUSH2 0x4BD0 JUMP JUMPDEST DUP1 PUSH1 0x0 JUMPDEST DUP6 DUP2 LT ISZERO PUSH2 0x427C JUMPI DUP5 DUP5 SUB DUP10 MSTORE DUP2 MLOAD PUSH2 0x425D DUP6 DUP3 PUSH2 0x40D5 JUMP JUMPDEST SWAP5 POP PUSH2 0x4268 DUP4 PUSH2 0x4C71 JUMP JUMPDEST SWAP3 POP PUSH1 0x20 DUP11 ADD SWAP10 POP POP PUSH1 0x1 DUP2 ADD SWAP1 POP PUSH2 0x4244 JUMP JUMPDEST POP DUP3 SWAP8 POP DUP8 SWAP6 POP POP POP POP POP POP SWAP3 SWAP2 POP POP JUMP JUMPDEST PUSH1 0x0 PUSH2 0x4299 DUP3 PUSH2 0x4C36 JUMP JUMPDEST PUSH2 0x42A3 DUP2 DUP6 PUSH2 0x4CCB JUMP JUMPDEST SWAP4 POP DUP4 PUSH1 0x20 DUP3 MUL DUP6 ADD PUSH2 0x42B5 DUP6 PUSH2 0x4BE0 JUMP JUMPDEST DUP1 PUSH1 0x0 JUMPDEST DUP6 DUP2 LT ISZERO PUSH2 0x42F1 JUMPI DUP5 DUP5 SUB DUP10 MSTORE DUP2 MLOAD PUSH2 0x42D2 DUP6 DUP3 PUSH2 0x40E9 JUMP JUMPDEST SWAP5 POP PUSH2 0x42DD DUP4 PUSH2 0x4C7E JUMP JUMPDEST SWAP3 POP PUSH1 0x20 DUP11 ADD SWAP10 POP POP PUSH1 0x1 DUP2 ADD SWAP1 POP PUSH2 0x42B9 JUMP JUMPDEST POP DUP3 SWAP8 POP DUP8 SWAP6 POP POP POP POP POP POP SWAP3 SWAP2 POP POP JUMP JUMPDEST PUSH1 0x0 PUSH2 0x430E DUP3 PUSH2 0x4C41 JUMP JUMPDEST PUSH2 0x4318 DUP2 DUP6 PUSH2 0x4CDC JUMP JUMPDEST SWAP4 POP DUP4 PUSH1 0x20 DUP3 MUL DUP6 ADD PUSH2 0x432A DUP6 PUSH2 0x4BF0 JUMP JUMPDEST DUP1 PUSH1 0x0 JUMPDEST DUP6 DUP2 LT ISZERO PUSH2 0x4366 JUMPI DUP5 DUP5 SUB DUP10 MSTORE DUP2 MLOAD PUSH2 0x4347 DUP6 DUP3 PUSH2 0x40FD JUMP JUMPDEST SWAP5 POP PUSH2 0x4352 DUP4 PUSH2 0x4C8B JUMP JUMPDEST SWAP3 POP PUSH1 0x20 DUP11 ADD SWAP10 POP POP PUSH1 0x1 DUP2 ADD SWAP1 POP PUSH2 0x432E JUMP JUMPDEST POP DUP3 SWAP8 POP DUP8 SWAP6 POP POP POP POP POP POP SWAP3 SWAP2 POP POP JUMP JUMPDEST PUSH2 0x4381 DUP2 PUSH2 0x4DB6 JUMP JUMPDEST DUP3 MSTORE POP POP JUMP JUMPDEST PUSH2 0x4390 DUP2 PUSH2 0x4E12 JUMP JUMPDEST DUP3 MSTORE POP POP JUMP JUMPDEST PUSH2 0x439F DUP2 PUSH2 0x4E24 JUMP JUMPDEST DUP3 MSTORE POP POP JUMP JUMPDEST PUSH2 0x43AE DUP2 PUSH2 0x4E24 JUMP JUMPDEST DUP3 MSTORE POP POP JUMP JUMPDEST PUSH1 0x0 PUSH2 0x43BF DUP3 PUSH2 0x4C4C JUMP JUMPDEST PUSH2 0x43C9 DUP2 DUP6 PUSH2 0x4CED JUMP JUMPDEST SWAP4 POP PUSH2 0x43D9 DUP2 DUP6 PUSH1 0x20 DUP7 ADD PUSH2 0x4E45 JUMP JUMPDEST PUSH2 0x43E2 DUP2 PUSH2 0x5023 JUMP JUMPDEST DUP5 ADD SWAP2 POP POP SWAP3 SWAP2 POP POP JUMP JUMPDEST PUSH1 0x0 PUSH2 0x43F8 DUP3 PUSH2 0x4C4C JUMP JUMPDEST PUSH2 0x4402 DUP2 DUP6 PUSH2 0x4CFE JUMP JUMPDEST SWAP4 POP PUSH2 0x4412 DUP2 DUP6 PUSH1 0x20 DUP7 ADD PUSH2 0x4E45 JUMP JUMPDEST PUSH2 0x441B DUP2 PUSH2 0x5023 JUMP JUMPDEST DUP5 ADD SWAP2 POP POP SWAP3 SWAP2 POP POP JUMP JUMPDEST PUSH1 0x0 PUSH2 0x4431 DUP3 PUSH2 0x4C4C JUMP JUMPDEST PUSH2 0x443B DUP2 DUP6 PUSH2 0x4D0F JUMP JUMPDEST SWAP4 POP PUSH2 0x444B DUP2 DUP6 PUSH1 0x20 DUP7 ADD PUSH2 0x4E45 JUMP JUMPDEST DUP1 DUP5 ADD SWAP2 POP POP SWAP3 SWAP2 POP POP JUMP JUMPDEST PUSH1 0x0 DUP2 SLOAD PUSH2 0x4464 DUP2 PUSH2 0x4E78 JUMP JUMPDEST PUSH2 0x446E DUP2 DUP7 PUSH2 0x4D0F JUMP JUMPDEST SWAP5 POP PUSH1 0x1 DUP3 AND PUSH1 0x0 DUP2 EQ PUSH2 0x4489 JUMPI PUSH1 0x1 DUP2 EQ PUSH2 0x449A JUMPI PUSH2 0x44CD JUMP JUMPDEST PUSH1 0xFF NOT DUP4 AND DUP7 MSTORE DUP2 DUP7 ADD SWAP4 POP PUSH2 0x44CD JUMP JUMPDEST PUSH2 0x44A3 DUP6 PUSH2 0x4C00 JUMP JUMPDEST PUSH1 0x0 JUMPDEST DUP4 DUP2 LT ISZERO PUSH2 0x44C5 JUMPI DUP2 SLOAD DUP2 DUP10 ADD MSTORE PUSH1 0x1 DUP3 ADD SWAP2 POP PUSH1 0x20 DUP2 ADD SWAP1 POP PUSH2 0x44A6 JUMP JUMPDEST DUP4 DUP9 ADD SWAP6 POP POP POP JUMPDEST POP POP POP SWAP3 SWAP2 POP POP JUMP JUMPDEST PUSH1 0x0 PUSH1 0xA0 DUP4 ADD PUSH1 0x0 DUP4 ADD MLOAD DUP5 DUP3 SUB PUSH1 0x0 DUP7 ADD MSTORE PUSH2 0x44F3 DUP3 DUP3 PUSH2 0x43B4 JUMP JUMPDEST SWAP2 POP POP PUSH1 0x20 DUP4 ADD MLOAD PUSH2 0x4508 PUSH1 0x20 DUP7 ADD DUP3 PUSH2 0x4111 JUMP JUMPDEST POP PUSH1 0x40 DUP4 ADD MLOAD PUSH2 0x451B PUSH1 0x40 DUP7 ADD DUP3 PUSH2 0x4387 JUMP JUMPDEST POP PUSH1 0x60 DUP4 ADD MLOAD DUP5 DUP3 SUB PUSH1 0x60 DUP7 ADD MSTORE PUSH2 0x4533 DUP3 DUP3 PUSH2 0x43B4 JUMP JUMPDEST SWAP2 POP POP PUSH1 0x80 DUP4 ADD MLOAD DUP5 DUP3 SUB PUSH1 0x80 DUP7 ADD MSTORE PUSH2 0x454D DUP3 DUP3 PUSH2 0x43B4 JUMP JUMPDEST SWAP2 POP POP DUP1 SWAP2 POP POP SWAP3 SWAP2 POP POP JUMP JUMPDEST PUSH1 0x0 PUSH1 0x80 DUP4 ADD PUSH1 0x0 DUP4 ADD MLOAD DUP5 DUP3 SUB PUSH1 0x0 DUP7 ADD MSTORE PUSH2 0x4577 DUP3 DUP3 PUSH2 0x43B4 JUMP JUMPDEST SWAP2 POP POP PUSH1 0x20 DUP4 ADD MLOAD PUSH2 0x458C PUSH1 0x20 DUP7 ADD DUP3 PUSH2 0x4111 JUMP JUMPDEST POP PUSH1 0x40 DUP4 ADD MLOAD PUSH2 0x459F PUSH1 0x40 DUP7 ADD DUP3 PUSH2 0x4387 JUMP JUMPDEST POP PUSH1 0x60 DUP4 ADD MLOAD DUP5 DUP3 SUB PUSH1 0x60 DUP7 ADD MSTORE PUSH2 0x45B7 DUP3 DUP3 PUSH2 0x43B4 JUMP JUMPDEST SWAP2 POP POP DUP1 SWAP2 POP POP SWAP3 SWAP2 POP POP JUMP JUMPDEST PUSH1 0x0 PUSH1 0x80 DUP4 ADD PUSH1 0x0 DUP4 ADD MLOAD DUP5 DUP3 SUB PUSH1 0x0 DUP7 ADD MSTORE PUSH2 0x45E1 DUP3 DUP3 PUSH2 0x43B4 JUMP JUMPDEST SWAP2 POP POP PUSH1 0x20 DUP4 ADD MLOAD PUSH2 0x45F6 PUSH1 0x20 DUP7 ADD DUP3 PUSH2 0x4111 JUMP JUMPDEST POP PUSH1 0x40 DUP4 ADD MLOAD PUSH2 0x4609 PUSH1 0x40 DUP7 ADD DUP3 PUSH2 0x4387 JUMP JUMPDEST POP PUSH1 0x60 DUP4 ADD MLOAD DUP5 DUP3 SUB PUSH1 0x60 DUP7 ADD MSTORE PUSH2 0x4621 DUP3 DUP3 PUSH2 0x43B4 JUMP JUMPDEST SWAP2 POP POP DUP1 SWAP2 POP POP SWAP3 SWAP2 POP POP JUMP JUMPDEST PUSH1 0x0 PUSH1 0xE0 DUP4 ADD PUSH1 0x0 DUP4 ADD MLOAD DUP5 DUP3 SUB PUSH1 0x0 DUP7 ADD MSTORE PUSH2 0x464B DUP3 DUP3 PUSH2 0x43B4 JUMP JUMPDEST SWAP2 POP POP PUSH1 0x20 DUP4 ADD MLOAD DUP5 DUP3 SUB PUSH1 0x20 DUP7 ADD MSTORE PUSH2 0x4665 DUP3 DUP3 PUSH2 0x43B4 JUMP JUMPDEST SWAP2 POP POP PUSH1 0x40 DUP4 ADD MLOAD PUSH2 0x467A PUSH1 0x40 DUP7 ADD DUP3 PUSH2 0x4937 JUMP JUMPDEST POP PUSH1 0x60 DUP4 ADD MLOAD PUSH2 0x468D PUSH1 0x60 DUP7 ADD DUP3 PUSH2 0x4111 JUMP JUMPDEST POP PUSH1 0x80 DUP4 ADD MLOAD PUSH2 0x46A0 PUSH1 0x80 DUP7 ADD DUP3 PUSH2 0x4111 JUMP JUMPDEST POP PUSH1 0xA0 DUP4 ADD MLOAD PUSH2 0x46B3 PUSH1 0xA0 DUP7 ADD DUP3 PUSH2 0x4937 JUMP JUMPDEST POP PUSH1 0xC0 DUP4 ADD MLOAD PUSH2 0x46C6 PUSH1 0xC0 DUP7 ADD DUP3 PUSH2 0x4937 JUMP JUMPDEST POP DUP1 SWAP2 POP POP SWAP3 SWAP2 POP POP JUMP JUMPDEST PUSH1 0x0 PUSH2 0x160 DUP4 ADD PUSH1 0x0 DUP4 ADD MLOAD DUP5 DUP3 SUB PUSH1 0x0 DUP7 ADD MSTORE PUSH2 0x46EF DUP3 DUP3 PUSH2 0x43B4 JUMP JUMPDEST SWAP2 POP POP PUSH1 0x20 DUP4 ADD MLOAD DUP5 DUP3 SUB PUSH1 0x20 DUP7 ADD MSTORE PUSH2 0x4709 DUP3 DUP3 PUSH2 0x43B4 JUMP JUMPDEST SWAP2 POP POP PUSH1 0x40 DUP4 ADD MLOAD PUSH2 0x471E PUSH1 0x40 DUP7 ADD DUP3 PUSH2 0x4937 JUMP JUMPDEST POP PUSH1 0x60 DUP4 ADD MLOAD PUSH2 0x4731 PUSH1 0x60 DUP7 ADD DUP3 PUSH2 0x4111 JUMP JUMPDEST POP PUSH1 0x80 DUP4 ADD MLOAD DUP5 DUP3 SUB PUSH1 0x80 DUP7 ADD MSTORE PUSH2 0x4749 DUP3 DUP3 PUSH2 0x43B4 JUMP JUMPDEST SWAP2 POP POP PUSH1 0xA0 DUP4 ADD MLOAD PUSH2 0x475E PUSH1 0xA0 DUP7 ADD DUP3 PUSH2 0x4396 JUMP JUMPDEST POP PUSH1 0xC0 DUP4 ADD MLOAD PUSH2 0x4771 PUSH1 0xC0 DUP7 ADD DUP3 PUSH2 0x4111 JUMP JUMPDEST POP PUSH1 0xE0 DUP4 ADD MLOAD DUP5 DUP3 SUB PUSH1 0xE0 DUP7 ADD MSTORE PUSH2 0x4789 DUP3 DUP3 PUSH2 0x43B4 JUMP JUMPDEST SWAP2 POP POP PUSH2 0x100 DUP4 ADD MLOAD PUSH2 0x47A0 PUSH2 0x100 DUP7 ADD DUP3 PUSH2 0x4396 JUMP JUMPDEST POP PUSH2 0x120 DUP4 ADD MLOAD PUSH2 0x47B5 PUSH2 0x120 DUP7 ADD DUP3 PUSH2 0x4937 JUMP JUMPDEST POP PUSH2 0x140 DUP4 ADD MLOAD PUSH2 0x47CA PUSH2 0x140 DUP7 ADD DUP3 PUSH2 0x4937 JUMP JUMPDEST POP DUP1 SWAP2 POP POP SWAP3 SWAP2 POP POP JUMP JUMPDEST PUSH1 0x0 PUSH1 0xE0 DUP4 ADD PUSH1 0x0 DUP4 ADD MLOAD DUP5 DUP3 SUB PUSH1 0x0 DUP7 ADD MSTORE PUSH2 0x47F2 DUP3 DUP3 PUSH2 0x43B4 JUMP JUMPDEST SWAP2 POP POP PUSH1 0x20 DUP4 ADD MLOAD DUP5 DUP3 SUB PUSH1 0x20 DUP7 ADD MSTORE PUSH2 0x480C DUP3 DUP3 PUSH2 0x43B4 JUMP JUMPDEST SWAP2 POP POP PUSH1 0x40 DUP4 ADD MLOAD PUSH2 0x4821 PUSH1 0x40 DUP7 ADD DUP3 PUSH2 0x4396 JUMP JUMPDEST POP PUSH1 0x60 DUP4 ADD MLOAD PUSH2 0x4834 PUSH1 0x60 DUP7 ADD DUP3 PUSH2 0x4387 JUMP JUMPDEST POP PUSH1 0x80 DUP4 ADD MLOAD DUP5 DUP3 SUB PUSH1 0x80 DUP7 ADD MSTORE PUSH2 0x484C DUP3 DUP3 PUSH2 0x43B4 JUMP JUMPDEST SWAP2 POP POP PUSH1 0xA0 DUP4 ADD MLOAD DUP5 DUP3 SUB PUSH1 0xA0 DUP7 ADD MSTORE PUSH2 0x4866 DUP3 DUP3 PUSH2 0x43B4 JUMP JUMPDEST SWAP2 POP POP PUSH1 0xC0 DUP4 ADD MLOAD PUSH2 0x487B PUSH1 0xC0 DUP7 ADD DUP3 PUSH2 0x4111 JUMP JUMPDEST POP DUP1 SWAP2 POP POP SWAP3 SWAP2 POP POP JUMP JUMPDEST PUSH1 0x0 PUSH1 0xE0 DUP4 ADD PUSH1 0x0 DUP4 ADD MLOAD DUP5 DUP3 SUB PUSH1 0x0 DUP7 ADD MSTORE PUSH2 0x48A3 DUP3 DUP3 PUSH2 0x43B4 JUMP JUMPDEST SWAP2 POP POP PUSH1 0x20 DUP4 ADD MLOAD DUP5 DUP3 SUB PUSH1 0x20 DUP7 ADD MSTORE PUSH2 0x48BD DUP3 DUP3 PUSH2 0x43B4 JUMP JUMPDEST SWAP2 POP POP PUSH1 0x40 DUP4 ADD MLOAD PUSH2 0x48D2 PUSH1 0x40 DUP7 ADD DUP3 PUSH2 0x4396 JUMP JUMPDEST POP PUSH1 0x60 DUP4 ADD MLOAD PUSH2 0x48E5 PUSH1 0x60 DUP7 ADD DUP3 PUSH2 0x4387 JUMP JUMPDEST POP PUSH1 0x80 DUP4 ADD MLOAD DUP5 DUP3 SUB PUSH1 0x80 DUP7 ADD MSTORE PUSH2 0x48FD DUP3 DUP3 PUSH2 0x43B4 JUMP JUMPDEST SWAP2 POP POP PUSH1 0xA0 DUP4 ADD MLOAD DUP5 DUP3 SUB PUSH1 0xA0 DUP7 ADD MSTORE PUSH2 0x4917 DUP3 DUP3 PUSH2 0x43B4 JUMP JUMPDEST SWAP2 POP POP PUSH1 0xC0 DUP4 ADD MLOAD PUSH2 0x492C PUSH1 0xC0 DUP7 ADD DUP3 PUSH2 0x4111 JUMP JUMPDEST POP DUP1 SWAP2 POP POP SWAP3 SWAP2 POP POP JUMP JUMPDEST PUSH2 0x4940 DUP2 PUSH2 0x4E08 JUMP JUMPDEST DUP3 MSTORE POP POP JUMP JUMPDEST PUSH2 0x494F DUP2 PUSH2 0x4E08 JUMP JUMPDEST DUP3 MSTORE POP POP JUMP JUMPDEST PUSH1 0x0 PUSH2 0x4961 DUP3 DUP5 PUSH2 0x4426 JUMP JUMPDEST SWAP2 POP DUP2 SWAP1 POP SWAP3 SWAP2 POP POP JUMP JUMPDEST PUSH1 0x0 PUSH2 0x4978 DUP3 DUP5 PUSH2 0x4457 JUMP JUMPDEST SWAP2 POP DUP2 SWAP1 POP SWAP3 SWAP2 POP POP JUMP JUMPDEST PUSH1 0x0 PUSH1 0x20 DUP3 ADD SWAP1 POP PUSH2 0x4998 PUSH1 0x0 DUP4 ADD DUP5 PUSH2 0x4120 JUMP JUMPDEST SWAP3 SWAP2 POP POP JUMP JUMPDEST PUSH1 0x0 PUSH1 0x20 DUP3 ADD SWAP1 POP DUP2 DUP2 SUB PUSH1 0x0 DUP4 ADD MSTORE PUSH2 0x49B8 DUP2 DUP5 PUSH2 0x412F JUMP JUMPDEST SWAP1 POP SWAP3 SWAP2 POP POP JUMP JUMPDEST PUSH1 0x0 PUSH1 0x20 DUP3 ADD SWAP1 POP DUP2 DUP2 SUB PUSH1 0x0 DUP4 ADD MSTORE PUSH2 0x49DA DUP2 DUP5 PUSH2 0x41A4 JUMP JUMPDEST SWAP1 POP SWAP3 SWAP2 POP POP JUMP JUMPDEST PUSH1 0x0 PUSH1 0x20 DUP3 ADD SWAP1 POP DUP2 DUP2 SUB PUSH1 0x0 DUP4 ADD MSTORE PUSH2 0x49FC DUP2 DUP5 PUSH2 0x4219 JUMP JUMPDEST SWAP1 POP SWAP3 SWAP2 POP POP JUMP JUMPDEST PUSH1 0x0 PUSH1 0x20 DUP3 ADD SWAP1 POP DUP2 DUP2 SUB PUSH1 0x0 DUP4 ADD MSTORE PUSH2 0x4A1E DUP2 DUP5 PUSH2 0x428E JUMP JUMPDEST SWAP1 POP SWAP3 SWAP2 POP POP JUMP JUMPDEST PUSH1 0x0 PUSH1 0x20 DUP3 ADD SWAP1 POP DUP2 DUP2 SUB PUSH1 0x0 DUP4 ADD MSTORE PUSH2 0x4A40 DUP2 DUP5 PUSH2 0x4303 JUMP JUMPDEST SWAP1 POP SWAP3 SWAP2 POP POP JUMP JUMPDEST PUSH1 0x0 PUSH1 0x20 DUP3 ADD SWAP1 POP PUSH2 0x4A5D PUSH1 0x0 DUP4 ADD DUP5 PUSH2 0x4378 JUMP JUMPDEST SWAP3 SWAP2 POP POP JUMP JUMPDEST PUSH1 0x0 PUSH1 0x20 DUP3 ADD SWAP1 POP PUSH2 0x4A78 PUSH1 0x0 DUP4 ADD DUP5 PUSH2 0x43A5 JUMP JUMPDEST SWAP3 SWAP2 POP POP JUMP JUMPDEST PUSH1 0x0 PUSH1 0xE0 DUP3 ADD SWAP1 POP DUP2 DUP2 SUB PUSH1 0x0 DUP4 ADD MSTORE PUSH2 0x4A98 DUP2 DUP11 PUSH2 0x43ED JUMP JUMPDEST SWAP1 POP DUP2 DUP2 SUB PUSH1 0x20 DUP4 ADD MSTORE PUSH2 0x4AAC DUP2 DUP10 PUSH2 0x43ED JUMP JUMPDEST SWAP1 POP PUSH2 0x4ABB PUSH1 0x40 DUP4 ADD DUP9 PUSH2 0x4946 JUMP JUMPDEST PUSH2 0x4AC8 PUSH1 0x60 DUP4 ADD DUP8 PUSH2 0x4120 JUMP JUMPDEST PUSH2 0x4AD5 PUSH1 0x80 DUP4 ADD DUP7 PUSH2 0x4120 JUMP JUMPDEST PUSH2 0x4AE2 PUSH1 0xA0 DUP4 ADD DUP6 PUSH2 0x4946 JUMP JUMPDEST PUSH2 0x4AEF PUSH1 0xC0 DUP4 ADD DUP5 PUSH2 0x4946 JUMP JUMPDEST SWAP9 SWAP8 POP POP POP POP POP POP POP POP JUMP JUMPDEST PUSH1 0x0 PUSH1 0x20 DUP3 ADD SWAP1 POP DUP2 DUP2 SUB PUSH1 0x0 DUP4 ADD MSTORE PUSH2 0x4B15 DUP2 DUP5 PUSH2 0x45C4 JUMP JUMPDEST SWAP1 POP SWAP3 SWAP2 POP POP JUMP JUMPDEST PUSH1 0x0 PUSH1 0x20 DUP3 ADD SWAP1 POP DUP2 DUP2 SUB PUSH1 0x0 DUP4 ADD MSTORE PUSH2 0x4B37 DUP2 DUP5 PUSH2 0x4886 JUMP JUMPDEST SWAP1 POP SWAP3 SWAP2 POP POP JUMP JUMPDEST PUSH1 0x0 PUSH1 0x20 DUP3 ADD SWAP1 POP PUSH2 0x4B54 PUSH1 0x0 DUP4 ADD DUP5 PUSH2 0x4946 JUMP JUMPDEST SWAP3 SWAP2 POP POP JUMP JUMPDEST PUSH1 0x0 PUSH2 0x4B64 PUSH2 0x4B75 JUMP JUMPDEST SWAP1 POP PUSH2 0x4B70 DUP3 DUP3 PUSH2 0x4EAA JUMP JUMPDEST SWAP2 SWAP1 POP JUMP JUMPDEST PUSH1 0x0 PUSH1 0x40 MLOAD SWAP1 POP SWAP1 JUMP JUMPDEST PUSH1 0x0 PUSH8 0xFFFFFFFFFFFFFFFF DUP3 GT ISZERO PUSH2 0x4B9A JUMPI PUSH2 0x4B99 PUSH2 0x4FE0 JUMP JUMPDEST JUMPDEST PUSH2 0x4BA3 DUP3 PUSH2 0x5023 JUMP JUMPDEST SWAP1 POP PUSH1 0x20 DUP2 ADD SWAP1 POP SWAP2 SWAP1 POP JUMP JUMPDEST PUSH1 0x0 DUP2 SWAP1 POP PUSH1 0x20 DUP3 ADD SWAP1 POP SWAP2 SWAP1 POP JUMP JUMPDEST PUSH1 0x0 DUP2 SWAP1 POP PUSH1 0x20 DUP3 ADD SWAP1 POP SWAP2 SWAP1 POP JUMP JUMPDEST PUSH1 0x0 DUP2 SWAP1 POP PUSH1 0x20 DUP3 ADD SWAP1 POP SWAP2 SWAP1 POP JUMP JUMPDEST PUSH1 0x0 DUP2 SWAP1 POP PUSH1 0x20 DUP3 ADD SWAP1 POP SWAP2 SWAP1 POP JUMP JUMPDEST PUSH1 0x0 DUP2 SWAP1 POP PUSH1 0x20 DUP3 ADD SWAP1 POP SWAP2 SWAP1 POP JUMP JUMPDEST PUSH1 0x0 DUP2 SWAP1 POP DUP2 PUSH1 0x0 MSTORE PUSH1 0x20 PUSH1 0x0 KECCAK256 SWAP1 POP SWAP2 SWAP1 POP JUMP JUMPDEST PUSH1 0x0 DUP2 MLOAD SWAP1 POP SWAP2 SWAP1 POP JUMP JUMPDEST PUSH1 0x0 DUP2 MLOAD SWAP1 POP SWAP2 SWAP1 POP JUMP JUMPDEST PUSH1 0x0 DUP2 MLOAD SWAP1 POP SWAP2 SWAP1 POP JUMP JUMPDEST PUSH1 0x0 DUP2 MLOAD SWAP1 POP SWAP2 SWAP1 POP JUMP JUMPDEST PUSH1 0x0 DUP2 MLOAD SWAP1 POP SWAP2 SWAP1 POP JUMP JUMPDEST PUSH1 0x0 DUP2 MLOAD SWAP1 POP SWAP2 SWAP1 POP JUMP JUMPDEST PUSH1 0x0 PUSH1 0x20 DUP3 ADD SWAP1 POP SWAP2 SWAP1 POP JUMP JUMPDEST PUSH1 0x0 PUSH1 0x20 DUP3 ADD SWAP1 POP SWAP2 SWAP1 POP JUMP JUMPDEST PUSH1 0x0 PUSH1 0x20 DUP3 ADD SWAP1 POP SWAP2 SWAP1 POP JUMP JUMPDEST PUSH1 0x0 PUSH1 0x20 DUP3 ADD SWAP1 POP SWAP2 SWAP1 POP JUMP JUMPDEST PUSH1 0x0 PUSH1 0x20 DUP3 ADD SWAP1 POP SWAP2 SWAP1 POP JUMP JUMPDEST PUSH1 0x0 DUP3 DUP3 MSTORE PUSH1 0x20 DUP3 ADD SWAP1 POP SWAP3 SWAP2 POP POP JUMP JUMPDEST PUSH1 0x0 DUP3 DUP3 MSTORE PUSH1 0x20 DUP3 ADD SWAP1 POP SWAP3 SWAP2 POP POP JUMP JUMPDEST PUSH1 0x0 DUP3 DUP3 MSTORE PUSH1 0x20 DUP3 ADD SWAP1 POP SWAP3 SWAP2 POP POP JUMP JUMPDEST PUSH1 0x0 DUP3 DUP3 MSTORE PUSH1 0x20 DUP3 ADD SWAP1 POP SWAP3 SWAP2 POP POP JUMP JUMPDEST PUSH1 0x0 DUP3 DUP3 MSTORE PUSH1 0x20 DUP3 ADD SWAP1 POP SWAP3 SWAP2 POP POP JUMP JUMPDEST PUSH1 0x0 DUP3 DUP3 MSTORE PUSH1 0x20 DUP3 ADD SWAP1 POP SWAP3 SWAP2 POP POP JUMP JUMPDEST PUSH1 0x0 DUP3 DUP3 MSTORE PUSH1 0x20 DUP3 ADD SWAP1 POP SWAP3 SWAP2 POP POP JUMP JUMPDEST PUSH1 0x0 DUP2 SWAP1 POP SWAP3 SWAP2 POP POP JUMP JUMPDEST PUSH1 0x0 PUSH2 0x4D25 DUP3 PUSH2 0x4E08 JUMP JUMPDEST SWAP2 POP PUSH2 0x4D30 DUP4 PUSH2 0x4E08 JUMP JUMPDEST SWAP3 POP DUP3 PUSH32 0xFFFFFFFFFFFFFFFFFFFFFFFFFFFFFFFFFFFFFFFFFFFFFFFFFFFFFFFFFFFFFFFF SUB DUP3 GT ISZERO PUSH2 0x4D65 JUMPI PUSH2 0x4D64 PUSH2 0x4F24 JUMP JUMPDEST JUMPDEST DUP3 DUP3 ADD SWAP1 POP SWAP3 SWAP2 POP POP JUMP JUMPDEST PUSH1 0x0 PUSH2 0x4D7B DUP3 PUSH2 0x4E08 JUMP JUMPDEST SWAP2 POP PUSH2 0x4D86 DUP4 PUSH2 0x4E08 JUMP JUMPDEST SWAP3 POP DUP3 DUP3 LT ISZERO PUSH2 0x4D99 JUMPI PUSH2 0x4D98 PUSH2 0x4F24 JUMP JUMPDEST JUMPDEST DUP3 DUP3 SUB SWAP1 POP SWAP3 SWAP2 POP POP JUMP JUMPDEST PUSH1 0x0 PUSH2 0x4DAF DUP3 PUSH2 0x4DE8 JUMP JUMPDEST SWAP1 POP SWAP2 SWAP1 POP JUMP JUMPDEST PUSH1 0x0 DUP2 ISZERO ISZERO SWAP1 POP SWAP2 SWAP1 POP JUMP JUMPDEST PUSH1 0x0 DUP2 SWAP1 POP PUSH2 0x4DD0 DUP3 PUSH2 0x5034 JUMP JUMPDEST SWAP2 SWAP1 POP JUMP JUMPDEST PUSH1 0x0 DUP2 SWAP1 POP PUSH2 0x4DE3 DUP3 PUSH2 0x5048 JUMP JUMPDEST SWAP2 SWAP1 POP JUMP JUMPDEST PUSH1 0x0 PUSH20 0xFFFFFFFFFFFFFFFFFFFFFFFFFFFFFFFFFFFFFFFF DUP3 AND SWAP1 POP SWAP2 SWAP1 POP JUMP JUMPDEST PUSH1 0x0 DUP2 SWAP1 POP SWAP2 SWAP1 POP JUMP JUMPDEST PUSH1 0x0 PUSH2 0x4E1D DUP3 PUSH2 0x4DC2 JUMP JUMPDEST SWAP1 POP SWAP2 SWAP1 POP JUMP JUMPDEST PUSH1 0x0 PUSH2 0x4E2F DUP3 PUSH2 0x4DD5 JUMP JUMPDEST SWAP1 POP SWAP2 SWAP1 POP JUMP JUMPDEST DUP3 DUP2 DUP4 CALLDATACOPY PUSH1 0x0 DUP4 DUP4 ADD MSTORE POP POP POP JUMP JUMPDEST PUSH1 0x0 JUMPDEST DUP4 DUP2 LT ISZERO PUSH2 0x4E63 JUMPI DUP1 DUP3 ADD MLOAD DUP2 DUP5 ADD MSTORE PUSH1 0x20 DUP2 ADD SWAP1 POP PUSH2 0x4E48 JUMP JUMPDEST DUP4 DUP2 GT ISZERO PUSH2 0x4E72 JUMPI PUSH1 0x0 DUP5 DUP5 ADD MSTORE JUMPDEST POP POP POP POP JUMP JUMPDEST PUSH1 0x0 PUSH1 0x2 DUP3 DIV SWAP1 POP PUSH1 0x1 DUP3 AND DUP1 PUSH2 0x4E90 JUMPI PUSH1 0x7F DUP3 AND SWAP2 POP JUMPDEST PUSH1 0x20 DUP3 LT DUP2 EQ ISZERO PUSH2 0x4EA4 JUMPI PUSH2 0x4EA3 PUSH2 0x4F82 JUMP JUMPDEST JUMPDEST POP SWAP2 SWAP1 POP JUMP JUMPDEST PUSH2 0x4EB3 DUP3 PUSH2 0x5023 JUMP JUMPDEST DUP2 ADD DUP2 DUP2 LT PUSH8 0xFFFFFFFFFFFFFFFF DUP3 GT OR ISZERO PUSH2 0x4ED2 JUMPI PUSH2 0x4ED1 PUSH2 0x4FE0 JUMP JUMPDEST JUMPDEST DUP1 PUSH1 0x40 MSTORE POP POP POP JUMP JUMPDEST PUSH1 0x0 PUSH2 0x4EE6 DUP3 PUSH2 0x4E08 JUMP JUMPDEST SWAP2 POP PUSH32 0xFFFFFFFFFFFFFFFFFFFFFFFFFFFFFFFFFFFFFFFFFFFFFFFFFFFFFFFFFFFFFFFF DUP3 EQ ISZERO PUSH2 0x4F19 JUMPI PUSH2 0x4F18 PUSH2 0x4F24 JUMP JUMPDEST JUMPDEST PUSH1 0x1 DUP3 ADD SWAP1 POP SWAP2 SWAP1 POP JUMP JUMPDEST PUSH32 0x4E487B7100000000000000000000000000000000000000000000000000000000 PUSH1 0x0 MSTORE PUSH1 0x11 PUSH1 0x4 MSTORE PUSH1 0x24 PUSH1 0x0 REVERT JUMPDEST PUSH32 0x4E487B7100000000000000000000000000000000000000000000000000000000 PUSH1 0x0 MSTORE PUSH1 0x21 PUSH1 0x4 MSTORE PUSH1 0x24 PUSH1 0x0 REVERT JUMPDEST PUSH32 0x4E487B7100000000000000000000000000000000000000000000000000000000 PUSH1 0x0 MSTORE PUSH1 0x22 PUSH1 0x4 MSTORE PUSH1 0x24 PUSH1 0x0 REVERT JUMPDEST PUSH32 0x4E487B7100000000000000000000000000000000000000000000000000000000 PUSH1 0x0 MSTORE PUSH1 0x32 PUSH1 0x4 MSTORE PUSH1 0x24 PUSH1 0x0 REVERT JUMPDEST PUSH32 0x4E487B7100000000000000000000000000000000000000000000000000000000 PUSH1 0x0 MSTORE PUSH1 0x41 PUSH1 0x4 MSTORE PUSH1 0x24 PUSH1 0x0 REVERT JUMPDEST PUSH1 0x0 DUP1 REVERT JUMPDEST PUSH1 0x0 DUP1 REVERT JUMPDEST PUSH1 0x0 DUP1 REVERT JUMPDEST PUSH1 0x0 DUP1 REVERT JUMPDEST PUSH1 0x0 PUSH1 0x1F NOT PUSH1 0x1F DUP4 ADD AND SWAP1 POP SWAP2 SWAP1 POP JUMP JUMPDEST PUSH1 0x3 DUP2 LT PUSH2 0x5045 JUMPI PUSH2 0x5044 PUSH2 0x4F53 JUMP JUMPDEST JUMPDEST POP JUMP JUMPDEST PUSH1 0x9 DUP2 LT PUSH2 0x5059 JUMPI PUSH2 0x5058 PUSH2 0x4F53 JUMP JUMPDEST JUMPDEST POP JUMP JUMPDEST PUSH2 0x5065 DUP2 PUSH2 0x4DA4 JUMP JUMPDEST DUP2 EQ PUSH2 0x5070 JUMPI PUSH1 0x0 DUP1 REVERT JUMPDEST POP JUMP JUMPDEST PUSH1 0x3 DUP2 LT PUSH2 0x5080 JUMPI PUSH1 0x0 DUP1 REVERT JUMPDEST POP JUMP JUMPDEST PUSH1 0x9 DUP2 LT PUSH2 0x5090 JUMPI PUSH1 0x0 DUP1 REVERT JUMPDEST POP JUMP JUMPDEST PUSH2 0x509C DUP2 PUSH2 0x4E08 JUMP JUMPDEST DUP2 EQ PUSH2 0x50A7 JUMPI PUSH1 0x0 DUP1 REVERT JUMPDEST POP JUMP INVALID LOG2 PUSH5 0x6970667358 0x22 SLT KECCAK256 0xBB 0xE NUMBER SWAP14 0xB3 0xAD 0x4E PUSH5 0x8C4535C9E9 0x1E PUSH11 0xACB0A682CBFC15B0A01309 PUSH28 0x93AE8159E764736F6C63430008070033000000000000000000000000 "
				},
				"gasEstimates": {
					"creation": {
						"codeDepositCost": "4140800",
						"executionCost": "4750",
						"totalCost": "4145550"
					},
					"external": {
						"GetUsersByStatus(uint8)": "infinite",
						"GetUsersByType(uint8)": "infinite",
						"Owner()": "2600",
						"PatchTrannsactions(uint256)": "infinite",
						"ReadDrug(string)": "infinite",
						"ReadDrugsByUser(address)": "infinite",
						"ReadDrugsWithManufacturer(uint8)": "infinite",
						"ReadParentAndSiblingsTransactions(string,string,address)": "infinite",
						"ReadRoleByUser()": "7174",
						"ReadTransactionsByDrug(string)": "infinite",
						"ReadTransactionsByPatchNo(string,string)": "infinite",
						"ReadTransactionsByUser(address)": "infinite",
						"ReadUser(address)": "infinite",
						"ReturnRemainingAmount(string,string,address)": "infinite",
						"compareStringsbyBytes(string,string)": "infinite"
					}
				},
				"methodIdentifiers": {
					"GetUsersByStatus(uint8)": "7a53c535",
					"GetUsersByType(uint8)": "0f9de977",
					"Owner()": "b4a99a4e",
					"PatchTrannsactions(uint256)": "1567697c",
					"ReadDrug(string)": "cdf7e73d",
					"ReadDrugsByUser(address)": "ff946c85",
					"ReadDrugsWithManufacturer(uint8)": "a7270981",
					"ReadParentAndSiblingsTransactions(string,string,address)": "31a6db4d",
					"ReadRoleByUser()": "783a7895",
					"ReadTransactionsByDrug(string)": "4b2d14aa",
					"ReadTransactionsByPatchNo(string,string)": "40d37caf",
					"ReadTransactionsByUser(address)": "99b5bbdd",
					"ReadUser(address)": "cd1720d1",
					"ReturnRemainingAmount(string,string,address)": "798d2122",
					"compareStringsbyBytes(string,string)": "e9a734ff"
				}
			},
			"storageLayout": {
				"storage": [
					{
						"astId": 8,
						"contract": "contracts/Utils.sol:Utils",
						"label": "Owner",
						"offset": 0,
						"slot": "0",
						"type": "t_address"
					},
					{
						"astId": 40,
						"contract": "contracts/Utils.sol:Utils",
						"label": "UserAddressMapping",
						"offset": 0,
						"slot": "1",
						"type": "t_mapping(t_address,t_struct(User)35_storage)"
					},
					{
						"astId": 43,
						"contract": "contracts/Utils.sol:Utils",
						"label": "UsersAddresses",
						"offset": 0,
						"slot": "2",
						"type": "t_array(t_address)dyn_storage"
					},
					{
						"astId": 78,
						"contract": "contracts/Utils.sol:Utils",
						"label": "DrugRegNoMapping",
						"offset": 0,
						"slot": "3",
						"type": "t_mapping(t_string_memory_ptr,t_struct(Drug)53_storage)"
					},
					{
						"astId": 81,
						"contract": "contracts/Utils.sol:Utils",
						"label": "DrugsRegNos",
						"offset": 0,
						"slot": "4",
						"type": "t_array(t_string_storage)dyn_storage"
					},
					{
						"astId": 125,
						"contract": "contracts/Utils.sol:Utils",
						"label": "PatchTrannsactions",
						"offset": 0,
						"slot": "5",
						"type": "t_array(t_struct(PatchTransaction)96_storage)dyn_storage"
					}
				],
				"types": {
					"t_address": {
						"encoding": "inplace",
						"label": "address",
						"numberOfBytes": "20"
					},
					"t_array(t_address)dyn_storage": {
						"base": "t_address",
						"encoding": "dynamic_array",
						"label": "address[]",
						"numberOfBytes": "32"
					},
					"t_array(t_string_storage)dyn_storage": {
						"base": "t_string_storage",
						"encoding": "dynamic_array",
						"label": "string[]",
						"numberOfBytes": "32"
					},
					"t_array(t_struct(PatchTransaction)96_storage)dyn_storage": {
						"base": "t_struct(PatchTransaction)96_storage",
						"encoding": "dynamic_array",
						"label": "struct Definitions.PatchTransaction[]",
						"numberOfBytes": "32"
					},
					"t_enum(Statuses)6": {
						"encoding": "inplace",
						"label": "enum Definitions.Statuses",
						"numberOfBytes": "1"
					},
					"t_enum(UserRoles)18": {
						"encoding": "inplace",
						"label": "enum Definitions.UserRoles",
						"numberOfBytes": "1"
					},
					"t_mapping(t_address,t_struct(User)35_storage)": {
						"encoding": "mapping",
						"key": "t_address",
						"label": "mapping(address => struct Definitions.User)",
						"numberOfBytes": "32",
						"value": "t_struct(User)35_storage"
					},
					"t_mapping(t_string_memory_ptr,t_struct(Drug)53_storage)": {
						"encoding": "mapping",
						"key": "t_string_memory_ptr",
						"label": "mapping(string => struct Definitions.Drug)",
						"numberOfBytes": "32",
						"value": "t_struct(Drug)53_storage"
					},
					"t_string_memory_ptr": {
						"encoding": "bytes",
						"label": "string",
						"numberOfBytes": "32"
					},
					"t_string_storage": {
						"encoding": "bytes",
						"label": "string",
						"numberOfBytes": "32"
					},
					"t_struct(Drug)53_storage": {
						"encoding": "inplace",
						"label": "struct Definitions.Drug",
						"members": [
							{
								"astId": 45,
								"contract": "contracts/Utils.sol:Utils",
								"label": "DrugName",
								"offset": 0,
								"slot": "0",
								"type": "t_string_storage"
							},
							{
								"astId": 47,
								"contract": "contracts/Utils.sol:Utils",
								"label": "Manufacturer",
								"offset": 0,
								"slot": "1",
								"type": "t_address"
							},
							{
								"astId": 50,
								"contract": "contracts/Utils.sol:Utils",
								"label": "DrugStatus",
								"offset": 20,
								"slot": "1",
								"type": "t_enum(Statuses)6"
							},
							{
								"astId": 52,
								"contract": "contracts/Utils.sol:Utils",
								"label": "DrugRegNo",
								"offset": 0,
								"slot": "2",
								"type": "t_string_storage"
							}
						],
						"numberOfBytes": "96"
					},
					"t_struct(PatchTransaction)96_storage": {
						"encoding": "inplace",
						"label": "struct Definitions.PatchTransaction",
						"members": [
							{
								"astId": 83,
								"contract": "contracts/Utils.sol:Utils",
								"label": "DrugRegNo",
								"offset": 0,
								"slot": "0",
								"type": "t_string_storage"
							},
							{
								"astId": 85,
								"contract": "contracts/Utils.sol:Utils",
								"label": "PatchNo",
								"offset": 0,
								"slot": "1",
								"type": "t_string_storage"
							},
							{
								"astId": 87,
								"contract": "contracts/Utils.sol:Utils",
								"label": "LineNo",
								"offset": 0,
								"slot": "2",
								"type": "t_uint256"
							},
							{
								"astId": 89,
								"contract": "contracts/Utils.sol:Utils",
								"label": "FromID",
								"offset": 0,
								"slot": "3",
								"type": "t_address"
							},
							{
								"astId": 91,
								"contract": "contracts/Utils.sol:Utils",
								"label": "ToID",
								"offset": 0,
								"slot": "4",
								"type": "t_address"
							},
							{
								"astId": 93,
								"contract": "contracts/Utils.sol:Utils",
								"label": "Amount",
								"offset": 0,
								"slot": "5",
								"type": "t_uint256"
							},
							{
								"astId": 95,
								"contract": "contracts/Utils.sol:Utils",
								"label": "TransactionDate",
								"offset": 0,
								"slot": "6",
								"type": "t_uint256"
							}
						],
						"numberOfBytes": "224"
					},
					"t_struct(User)35_storage": {
						"encoding": "inplace",
						"label": "struct Definitions.User",
						"members": [
							{
								"astId": 20,
								"contract": "contracts/Utils.sol:Utils",
								"label": "UserID",
								"offset": 0,
								"slot": "0",
								"type": "t_string_storage"
							},
							{
								"astId": 22,
								"contract": "contracts/Utils.sol:Utils",
								"label": "UserName",
								"offset": 0,
								"slot": "1",
								"type": "t_string_storage"
							},
							{
								"astId": 25,
								"contract": "contracts/Utils.sol:Utils",
								"label": "UserRole",
								"offset": 0,
								"slot": "2",
								"type": "t_enum(UserRoles)18"
							},
							{
								"astId": 28,
								"contract": "contracts/Utils.sol:Utils",
								"label": "UserStatus",
								"offset": 1,
								"slot": "2",
								"type": "t_enum(Statuses)6"
							},
							{
								"astId": 30,
								"contract": "contracts/Utils.sol:Utils",
								"label": "Latitude",
								"offset": 0,
								"slot": "3",
								"type": "t_string_storage"
							},
							{
								"astId": 32,
								"contract": "contracts/Utils.sol:Utils",
								"label": "Longitude",
								"offset": 0,
								"slot": "4",
								"type": "t_string_storage"
							},
							{
								"astId": 34,
								"contract": "contracts/Utils.sol:Utils",
								"label": "UserAddress",
								"offset": 0,
								"slot": "5",
								"type": "t_address"
							}
						],
						"numberOfBytes": "192"
					},
					"t_uint256": {
						"encoding": "inplace",
						"label": "uint256",
						"numberOfBytes": "32"
					}
				}
			},
			"userdoc": {
				"kind": "user",
				"methods": {},
				"version": 1
			}
		}
	}
}