{
	"data": {
		"bytecode": {
			"linkReferences": {},
			"object": "608060405234801561001057600080fd5b50615ace80620000216000396000f3fe608060405234801561001057600080fd5b50600436106101165760003560e01c806399b5bbdd116100a2578063cdf7e73d11610071578063cdf7e73d1461036d578063e78502441461039d578063e7cdaa15146103cf578063e9a734ff146103ff578063ff946c851461042f57610116565b806399b5bbdd146102bf578063a7270981146102ef578063b4a99a4e1461031f578063cd1720d11461033d57610116565b806340d37caf116100e957806340d37caf146101e15780634b2d14aa14610211578063783a789514610241578063798d21221461025f5780637a53c5351461028f57610116565b80630f9de9771461011b5780631567697c1461014b57806325b10c051461018157806331a6db4d146101b1575b600080fd5b610135600480360381019061013091906148a7565b61045f565b60405161014291906153fd565b60405180910390f35b61016560048036038101906101609190614a20565b610a20565b6040516101789796959493929190615455565b60405180910390f35b61019b6004803603810190610196919061480d565b610bc2565b6040516101a8919061541f565b60405180910390f35b6101cb60048036038101906101c69190614995565b610cf7565b6040516101d891906153b9565b60405180910390f35b6101fb60048036038101906101f6919061491d565b6112f6565b60405161020891906153db565b60405180910390f35b61022b600480360381019061022691906148d4565b611d73565b60405161023891906153b9565b60405180910390f35b6102496121ba565b604051610256919061543a565b60405180910390f35b61027960048036038101906102749190614995565b612311565b6040516102869190615516565b60405180910390f35b6102a960048036038101906102a4919061487a565b612401565b6040516102b691906153fd565b60405180910390f35b6102d960048036038101906102d4919061480d565b6129c2565b6040516102e691906153db565b60405180910390f35b6103096004803603810190610304919061487a565b61333c565b6040516103169190615375565b60405180910390f35b610327613946565b6040516103349190615323565b60405180910390f35b6103576004803603810190610352919061480d565b61396a565b60405161036491906154f4565b60405180910390f35b610387600480360381019061038291906148d4565b613cd7565b60405161039491906154d2565b60405180910390f35b6103b760048036038101906103b29190614a20565b613ec4565b6040516103c69392919061533e565b60405180910390f35b6103e960048036038101906103e4919061483a565b613f4b565b6040516103f6919061541f565b60405180910390f35b6104196004803603810190610414919061491d565b6140b1565b604051610426919061541f565b60405180910390f35b6104496004803603810190610444919061480d565b61410a565b6040516104569190615397565b60405180910390f35b60606000600280549050905060008167ffffffffffffffff811115610487576104866159b7565b5b6040519080825280602002602001820160405280156104c057816020015b6104ad614503565b8152602001906001900390816104a55790505b509050600080600090505b83811015610969578560088111156104e6576104e561592a565b5b60016000600284815481106104fe576104fd615988565b5b9060005260206000200160009054906101000a900473ffffffffffffffffffffffffffffffffffffffff1673ffffffffffffffffffffffffffffffffffffffff1673ffffffffffffffffffffffffffffffffffffffff16815260200190815260200160002060020160009054906101000a900460ff1660088111156105865761058561592a565b5b14156109565760016000600283815481106105a4576105a3615988565b5b9060005260206000200160009054906101000a900473ffffffffffffffffffffffffffffffffffffffff1673ffffffffffffffffffffffffffffffffffffffff1673ffffffffffffffffffffffffffffffffffffffff1681526020019081526020016000206040518060e00160405290816000820180546106249061584f565b80601f01602080910402602001604051908101604052809291908181526020018280546106509061584f565b801561069d5780601f106106725761010080835404028352916020019161069d565b820191906000526020600020905b81548152906001019060200180831161068057829003601f168201915b505050505081526020016001820180546106b69061584f565b80601f01602080910402602001604051908101604052809291908181526020018280546106e29061584f565b801561072f5780601f106107045761010080835404028352916020019161072f565b820191906000526020600020905b81548152906001019060200180831161071257829003601f168201915b505050505081526020016002820160009054906101000a900460ff16600881111561075d5761075c61592a565b5b600881111561076f5761076e61592a565b5b81526020016002820160019054906101000a900460ff1660028111156107985761079761592a565b5b60028111156107aa576107a961592a565b5b81526020016003820180546107be9061584f565b80601f01602080910402602001604051908101604052809291908181526020018280546107ea9061584f565b80156108375780601f1061080c57610100808354040283529160200191610837565b820191906000526020600020905b81548152906001019060200180831161081a57829003601f168201915b505050505081526020016004820180546108509061584f565b80601f016020809104026020016040519081016040528092919081815260200182805461087c9061584f565b80156108c95780601f1061089e576101008083540402835291602001916108c9565b820191906000526020600020905b8154815290600101906020018083116108ac57829003601f168201915b505050505081526020016005820160009054906101000a900473ffffffffffffffffffffffffffffffffffffffff1673ffffffffffffffffffffffffffffffffffffffff1673ffffffffffffffffffffffffffffffffffffffff168152505083838151811061093b5761093a615988565b5b602002602001018190525060018261095391906156f1565b91505b8080610961906158b2565b9150506104cb565b508067ffffffffffffffff811115610984576109836159b7565b5b6040519080825280602002602001820160405280156109bd57816020015b6109aa614503565b8152602001906001900390816109a25790505b50935060005b81811015610a17578281815181106109de576109dd615988565b5b60200260200101518582815181106109f9576109f8615988565b5b60200260200101819052508080610a0f906158b2565b9150506109c3565b50505050919050565b60058181548110610a3057600080fd5b9060005260206000209060070201600091509050806000018054610a539061584f565b80601f0160208091040260200160405190810160405280929190818152602001828054610a7f9061584f565b8015610acc5780601f10610aa157610100808354040283529160200191610acc565b820191906000526020600020905b815481529060010190602001808311610aaf57829003601f168201915b505050505090806001018054610ae19061584f565b80601f0160208091040260200160405190810160405280929190818152602001828054610b0d9061584f565b8015610b5a5780601f10610b2f57610100808354040283529160200191610b5a565b820191906000526020600020905b815481529060010190602001808311610b3d57829003601f168201915b5050505050908060020154908060030160009054906101000a900473ffffffffffffffffffffffffffffffffffffffff16908060040160009054906101000a900473ffffffffffffffffffffffffffffffffffffffff16908060050154908060060154905087565b60008060405180606001604052803373ffffffffffffffffffffffffffffffffffffffff1681526020018473ffffffffffffffffffffffffffffffffffffffff168152602001600115158152509050600681908060018154018082558091505060019003906000526020600020906002020160009091909190915060008201518160000160006101000a81548173ffffffffffffffffffffffffffffffffffffffff021916908373ffffffffffffffffffffffffffffffffffffffff16021790555060208201518160010160006101000a81548173ffffffffffffffffffffffffffffffffffffffff021916908373ffffffffffffffffffffffffffffffffffffffff16021790555060408201518160010160146101000a81548160ff02191690831515021790555050506001915050919050565b606060008060058054905067ffffffffffffffff811115610d1b57610d1a6159b7565b5b604051908082528060200260200182016040528015610d5457816020015b610d4161457a565b815260200190600190039081610d395790505b50905060005b60058054905081101561123457610e1e60058281548110610d7e57610d7d615988565b5b90600052602060002090600702016001018054610d9a9061584f565b80601f0160208091040260200160405190810160405280929190818152602001828054610dc69061584f565b8015610e135780601f10610de857610100808354040283529160200191610e13565b820191906000526020600020905b815481529060010190602001808311610df657829003601f168201915b5050505050886140b1565b8015610edd5750610edc60058281548110610e3c57610e3b615988565b5b90600052602060002090600702016000018054610e589061584f565b80601f0160208091040260200160405190810160405280929190818152602001828054610e849061584f565b8015610ed15780601f10610ea657610100808354040283529160200191610ed1565b820191906000526020600020905b815481529060010190602001808311610eb457829003601f168201915b5050505050876140b1565b5b8015610fd457508473ffffffffffffffffffffffffffffffffffffffff1660058281548110610f0f57610f0e615988565b5b906000526020600020906007020160040160009054906101000a900473ffffffffffffffffffffffffffffffffffffffff1673ffffffffffffffffffffffffffffffffffffffff161480610fd357508473ffffffffffffffffffffffffffffffffffffffff1660058281548110610f8957610f88615988565b5b906000526020600020906007020160030160009054906101000a900473ffffffffffffffffffffffffffffffffffffffff1673ffffffffffffffffffffffffffffffffffffffff16145b5b156112215760058181548110610fed57610fec615988565b5b90600052602060002090600702016040518060e00160405290816000820180546110169061584f565b80601f01602080910402602001604051908101604052809291908181526020018280546110429061584f565b801561108f5780601f106110645761010080835404028352916020019161108f565b820191906000526020600020905b81548152906001019060200180831161107257829003601f168201915b505050505081526020016001820180546110a89061584f565b80601f01602080910402602001604051908101604052809291908181526020018280546110d49061584f565b80156111215780601f106110f657610100808354040283529160200191611121565b820191906000526020600020905b81548152906001019060200180831161110457829003601f168201915b50505050508152602001600282015481526020016003820160009054906101000a900473ffffffffffffffffffffffffffffffffffffffff1673ffffffffffffffffffffffffffffffffffffffff1673ffffffffffffffffffffffffffffffffffffffff1681526020016004820160009054906101000a900473ffffffffffffffffffffffffffffffffffffffff1673ffffffffffffffffffffffffffffffffffffffff1673ffffffffffffffffffffffffffffffffffffffff1681526020016005820154815260200160068201548152505082848151811061120757611206615988565b5b6020026020010181905250828061121d906158b2565b9350505b808061122c906158b2565b915050610d5a565b508167ffffffffffffffff81111561124f5761124e6159b7565b5b60405190808252806020026020018201604052801561128857816020015b61127561457a565b81526020019060019003908161126d5790505b50925060008211156112ed5760005b828110156112eb578181815181106112b2576112b1615988565b5b60200260200101518482815181106112cd576112cc615988565b5b602002602001018190525080806112e3906158b2565b915050611297565b505b50509392505050565b606060008060058054905067ffffffffffffffff81111561131a576113196159b7565b5b60405190808252806020026020018201604052801561135357816020015b61134061457a565b8152602001906001900390816113385790505b50905060005b60058054905081101561173c5761141d6005828154811061137d5761137c615988565b5b906000526020600020906007020160010180546113999061584f565b80601f01602080910402602001604051908101604052809291908181526020018280546113c59061584f565b80156114125780601f106113e757610100808354040283529160200191611412565b820191906000526020600020905b8154815290600101906020018083116113f557829003601f168201915b5050505050876140b1565b80156114dc57506114db6005828154811061143b5761143a615988565b5b906000526020600020906007020160000180546114579061584f565b80601f01602080910402602001604051908101604052809291908181526020018280546114839061584f565b80156114d05780601f106114a5576101008083540402835291602001916114d0565b820191906000526020600020905b8154815290600101906020018083116114b357829003601f168201915b5050505050866140b1565b5b1561172957600581815481106114f5576114f4615988565b5b90600052602060002090600702016040518060e001604052908160008201805461151e9061584f565b80601f016020809104026020016040519081016040528092919081815260200182805461154a9061584f565b80156115975780601f1061156c57610100808354040283529160200191611597565b820191906000526020600020905b81548152906001019060200180831161157a57829003601f168201915b505050505081526020016001820180546115b09061584f565b80601f01602080910402602001604051908101604052809291908181526020018280546115dc9061584f565b80156116295780601f106115fe57610100808354040283529160200191611629565b820191906000526020600020905b81548152906001019060200180831161160c57829003601f168201915b50505050508152602001600282015481526020016003820160009054906101000a900473ffffffffffffffffffffffffffffffffffffffff1673ffffffffffffffffffffffffffffffffffffffff1673ffffffffffffffffffffffffffffffffffffffff1681526020016004820160009054906101000a900473ffffffffffffffffffffffffffffffffffffffff1673ffffffffffffffffffffffffffffffffffffffff1673ffffffffffffffffffffffffffffffffffffffff1681526020016005820154815260200160068201548152505082848151811061170f5761170e615988565b5b60200260200101819052508280611725906158b2565b9350505b8080611734906158b2565b915050611359565b508167ffffffffffffffff811115611757576117566159b7565b5b60405190808252806020026020018201604052801561179057816020015b61177d6145e3565b8152602001906001900390816117755790505b5092506000821115611d6b5760005b82811015611d69578181815181106117ba576117b9615988565b5b6020026020010151600001518482815181106117d9576117d8615988565b5b6020026020010151600001819052508181815181106117fb576117fa615988565b5b60200260200101516020015184828151811061181a57611819615988565b5b60200260200101516020018190525081818151811061183c5761183b615988565b5b60200260200101516040015184828151811061185b5761185a615988565b5b6020026020010151604001818152505081818151811061187e5761187d615988565b5b60200260200101516060015184828151811061189d5761189c615988565b5b60200260200101516060019073ffffffffffffffffffffffffffffffffffffffff16908173ffffffffffffffffffffffffffffffffffffffff1681525050600160008383815181106118f2576118f1615988565b5b60200260200101516060015173ffffffffffffffffffffffffffffffffffffffff1673ffffffffffffffffffffffffffffffffffffffff16815260200190815260200160002060010180546119469061584f565b80601f01602080910402602001604051908101604052809291908181526020018280546119729061584f565b80156119bf5780601f10611994576101008083540402835291602001916119bf565b820191906000526020600020905b8154815290600101906020018083116119a257829003601f168201915b50505050508482815181106119d7576119d6615988565b5b602002602001015160800181905250600160008383815181106119fd576119fc615988565b5b60200260200101516060015173ffffffffffffffffffffffffffffffffffffffff1673ffffffffffffffffffffffffffffffffffffffff16815260200190815260200160002060020160009054906101000a900460ff16848281518110611a6757611a66615988565b5b602002602001015160a001906008811115611a8557611a8461592a565b5b90816008811115611a9957611a9861592a565b5b81525050818181518110611ab057611aaf615988565b5b602002602001015160800151848281518110611acf57611ace615988565b5b602002602001015160c0019073ffffffffffffffffffffffffffffffffffffffff16908173ffffffffffffffffffffffffffffffffffffffff168152505060016000838381518110611b2457611b23615988565b5b60200260200101516080015173ffffffffffffffffffffffffffffffffffffffff1673ffffffffffffffffffffffffffffffffffffffff1681526020019081526020016000206001018054611b789061584f565b80601f0160208091040260200160405190810160405280929190818152602001828054611ba49061584f565b8015611bf15780601f10611bc657610100808354040283529160200191611bf1565b820191906000526020600020905b815481529060010190602001808311611bd457829003601f168201915b5050505050848281518110611c0957611c08615988565b5b602002602001015160e0018190525060016000838381518110611c2f57611c2e615988565b5b60200260200101516080015173ffffffffffffffffffffffffffffffffffffffff1673ffffffffffffffffffffffffffffffffffffffff16815260200190815260200160002060020160009054906101000a900460ff16848281518110611c9957611c98615988565b5b602002602001015161010001906008811115611cb857611cb761592a565b5b90816008811115611ccc57611ccb61592a565b5b81525050818181518110611ce357611ce2615988565b5b602002602001015160a00151848281518110611d0257611d01615988565b5b6020026020010151610120018181525050818181518110611d2657611d25615988565b5b602002602001015160c00151848281518110611d4557611d44615988565b5b60200260200101516101400181815250508080611d61906158b2565b91505061179f565b505b505092915050565b606060008060058054905067ffffffffffffffff811115611d9757611d966159b7565b5b604051908082528060200260200182016040528015611dd057816020015b611dbd61457a565b815260200190600190039081611db55790505b50905060005b6005805490508110156120fa57611e9a60058281548110611dfa57611df9615988565b5b90600052602060002090600702016000018054611e169061584f565b80601f0160208091040260200160405190810160405280929190818152602001828054611e429061584f565b8015611e8f5780601f10611e6457610100808354040283529160200191611e8f565b820191906000526020600020905b815481529060010190602001808311611e7257829003601f168201915b5050505050866140b1565b156120e75760058181548110611eb357611eb2615988565b5b90600052602060002090600702016040518060e0016040529081600082018054611edc9061584f565b80601f0160208091040260200160405190810160405280929190818152602001828054611f089061584f565b8015611f555780601f10611f2a57610100808354040283529160200191611f55565b820191906000526020600020905b815481529060010190602001808311611f3857829003601f168201915b50505050508152602001600182018054611f6e9061584f565b80601f0160208091040260200160405190810160405280929190818152602001828054611f9a9061584f565b8015611fe75780601f10611fbc57610100808354040283529160200191611fe7565b820191906000526020600020905b815481529060010190602001808311611fca57829003601f168201915b50505050508152602001600282015481526020016003820160009054906101000a900473ffffffffffffffffffffffffffffffffffffffff1673ffffffffffffffffffffffffffffffffffffffff1673ffffffffffffffffffffffffffffffffffffffff1681526020016004820160009054906101000a900473ffffffffffffffffffffffffffffffffffffffff1673ffffffffffffffffffffffffffffffffffffffff1673ffffffffffffffffffffffffffffffffffffffff168152602001600582015481526020016006820154815250508284815181106120cd576120cc615988565b5b602002602001018190525082806120e3906158b2565b9350505b80806120f2906158b2565b915050611dd6565b508167ffffffffffffffff811115612115576121146159b7565b5b60405190808252806020026020018201604052801561214e57816020015b61213b61457a565b8152602001906001900390816121335790505b50925060008211156121b35760005b828110156121b15781818151811061217857612177615988565b5b602002602001015184828151811061219357612192615988565b5b602002602001018190525080806121a9906158b2565b91505061215d565b505b5050919050565b60008060009054906101000a900473ffffffffffffffffffffffffffffffffffffffff1673ffffffffffffffffffffffffffffffffffffffff163373ffffffffffffffffffffffffffffffffffffffff16141561221a576001905061230e565b600073ffffffffffffffffffffffffffffffffffffffff16600160003373ffffffffffffffffffffffffffffffffffffffff1673ffffffffffffffffffffffffffffffffffffffff16815260200190815260200160002060050160009054906101000a900473ffffffffffffffffffffffffffffffffffffffff1673ffffffffffffffffffffffffffffffffffffffff1614156122ba576000905061230d565b600160003373ffffffffffffffffffffffffffffffffffffffff1673ffffffffffffffffffffffffffffffffffffffff16815260200190815260200160002060020160009054906101000a900460ff1690505b5b90565b60008061231f858585610cf7565b905060008060005b83518110156123e8578573ffffffffffffffffffffffffffffffffffffffff1684828151811061235a57612359615988565b5b60200260200101516080015173ffffffffffffffffffffffffffffffffffffffff1614156123a85783818151811061239557612394615988565b5b602002602001015160a0015192506123d5565b8381815181106123bb576123ba615988565b5b602002602001015160a00151826123d291906156f1565b91505b80806123e0906158b2565b915050612327565b5080826123f59190615747565b93505050509392505050565b60606000600280549050905060008167ffffffffffffffff811115612429576124286159b7565b5b60405190808252806020026020018201604052801561246257816020015b61244f614503565b8152602001906001900390816124475790505b509050600080600090505b8381101561290b578560028111156124885761248761592a565b5b60016000600284815481106124a05761249f615988565b5b9060005260206000200160009054906101000a900473ffffffffffffffffffffffffffffffffffffffff1673ffffffffffffffffffffffffffffffffffffffff1673ffffffffffffffffffffffffffffffffffffffff16815260200190815260200160002060020160019054906101000a900460ff1660028111156125285761252761592a565b5b14156128f857600160006002838154811061254657612545615988565b5b9060005260206000200160009054906101000a900473ffffffffffffffffffffffffffffffffffffffff1673ffffffffffffffffffffffffffffffffffffffff1673ffffffffffffffffffffffffffffffffffffffff1681526020019081526020016000206040518060e00160405290816000820180546125c69061584f565b80601f01602080910402602001604051908101604052809291908181526020018280546125f29061584f565b801561263f5780601f106126145761010080835404028352916020019161263f565b820191906000526020600020905b81548152906001019060200180831161262257829003601f168201915b505050505081526020016001820180546126589061584f565b80601f01602080910402602001604051908101604052809291908181526020018280546126849061584f565b80156126d15780601f106126a6576101008083540402835291602001916126d1565b820191906000526020600020905b8154815290600101906020018083116126b457829003601f168201915b505050505081526020016002820160009054906101000a900460ff1660088111156126ff576126fe61592a565b5b60088111156127115761271061592a565b5b81526020016002820160019054906101000a900460ff16600281111561273a5761273961592a565b5b600281111561274c5761274b61592a565b5b81526020016003820180546127609061584f565b80601f016020809104026020016040519081016040528092919081815260200182805461278c9061584f565b80156127d95780601f106127ae576101008083540402835291602001916127d9565b820191906000526020600020905b8154815290600101906020018083116127bc57829003601f168201915b505050505081526020016004820180546127f29061584f565b80601f016020809104026020016040519081016040528092919081815260200182805461281e9061584f565b801561286b5780601f106128405761010080835404028352916020019161286b565b820191906000526020600020905b81548152906001019060200180831161284e57829003601f168201915b505050505081526020016005820160009054906101000a900473ffffffffffffffffffffffffffffffffffffffff1673ffffffffffffffffffffffffffffffffffffffff1673ffffffffffffffffffffffffffffffffffffffff16815250508383815181106128dd576128dc615988565b5b60200260200101819052506001826128f591906156f1565b91505b8080612903906158b2565b91505061246d565b508067ffffffffffffffff811115612926576129256159b7565b5b60405190808252806020026020018201604052801561295f57816020015b61294c614503565b8152602001906001900390816129445790505b50935060005b818110156129b9578281815181106129805761297f615988565b5b602002602001015185828151811061299b5761299a615988565b5b602002602001018190525080806129b1906158b2565b915050612965565b50505050919050565b606060008060058054905067ffffffffffffffff8111156129e6576129e56159b7565b5b604051908082528060200260200182016040528015612a1f57816020015b612a0c61457a565b815260200190600190039081612a045790505b50905060005b600580549050811015612d06578473ffffffffffffffffffffffffffffffffffffffff1660058281548110612a5d57612a5c615988565b5b906000526020600020906007020160040160009054906101000a900473ffffffffffffffffffffffffffffffffffffffff1673ffffffffffffffffffffffffffffffffffffffff161415612cf35760058181548110612abf57612abe615988565b5b90600052602060002090600702016040518060e0016040529081600082018054612ae89061584f565b80601f0160208091040260200160405190810160405280929190818152602001828054612b149061584f565b8015612b615780601f10612b3657610100808354040283529160200191612b61565b820191906000526020600020905b815481529060010190602001808311612b4457829003601f168201915b50505050508152602001600182018054612b7a9061584f565b80601f0160208091040260200160405190810160405280929190818152602001828054612ba69061584f565b8015612bf35780601f10612bc857610100808354040283529160200191612bf3565b820191906000526020600020905b815481529060010190602001808311612bd657829003601f168201915b50505050508152602001600282015481526020016003820160009054906101000a900473ffffffffffffffffffffffffffffffffffffffff1673ffffffffffffffffffffffffffffffffffffffff1673ffffffffffffffffffffffffffffffffffffffff1681526020016004820160009054906101000a900473ffffffffffffffffffffffffffffffffffffffff1673ffffffffffffffffffffffffffffffffffffffff1673ffffffffffffffffffffffffffffffffffffffff16815260200160058201548152602001600682015481525050828481518110612cd957612cd8615988565b5b60200260200101819052508280612cef906158b2565b9350505b8080612cfe906158b2565b915050612a25565b508167ffffffffffffffff811115612d2157612d206159b7565b5b604051908082528060200260200182016040528015612d5a57816020015b612d476145e3565b815260200190600190039081612d3f5790505b50925060008211156133355760005b8281101561333357818181518110612d8457612d83615988565b5b602002602001015160000151848281518110612da357612da2615988565b5b602002602001015160000181905250818181518110612dc557612dc4615988565b5b602002602001015160200151848281518110612de457612de3615988565b5b602002602001015160200181905250818181518110612e0657612e05615988565b5b602002602001015160400151848281518110612e2557612e24615988565b5b60200260200101516040018181525050818181518110612e4857612e47615988565b5b602002602001015160600151848281518110612e6757612e66615988565b5b60200260200101516060019073ffffffffffffffffffffffffffffffffffffffff16908173ffffffffffffffffffffffffffffffffffffffff168152505060016000838381518110612ebc57612ebb615988565b5b60200260200101516060015173ffffffffffffffffffffffffffffffffffffffff1673ffffffffffffffffffffffffffffffffffffffff1681526020019081526020016000206001018054612f109061584f565b80601f0160208091040260200160405190810160405280929190818152602001828054612f3c9061584f565b8015612f895780601f10612f5e57610100808354040283529160200191612f89565b820191906000526020600020905b815481529060010190602001808311612f6c57829003601f168201915b5050505050848281518110612fa157612fa0615988565b5b60200260200101516080018190525060016000838381518110612fc757612fc6615988565b5b60200260200101516060015173ffffffffffffffffffffffffffffffffffffffff1673ffffffffffffffffffffffffffffffffffffffff16815260200190815260200160002060020160009054906101000a900460ff1684828151811061303157613030615988565b5b602002602001015160a00190600881111561304f5761304e61592a565b5b908160088111156130635761306261592a565b5b8152505081818151811061307a57613079615988565b5b60200260200101516080015184828151811061309957613098615988565b5b602002602001015160c0019073ffffffffffffffffffffffffffffffffffffffff16908173ffffffffffffffffffffffffffffffffffffffff1681525050600160008383815181106130ee576130ed615988565b5b60200260200101516080015173ffffffffffffffffffffffffffffffffffffffff1673ffffffffffffffffffffffffffffffffffffffff16815260200190815260200160002060010180546131429061584f565b80601f016020809104026020016040519081016040528092919081815260200182805461316e9061584f565b80156131bb5780601f10613190576101008083540402835291602001916131bb565b820191906000526020600020905b81548152906001019060200180831161319e57829003601f168201915b50505050508482815181106131d3576131d2615988565b5b602002602001015160e00181905250600160008383815181106131f9576131f8615988565b5b60200260200101516080015173ffffffffffffffffffffffffffffffffffffffff1673ffffffffffffffffffffffffffffffffffffffff16815260200190815260200160002060020160009054906101000a900460ff1684828151811061326357613262615988565b5b6020026020010151610100019060088111156132825761328161592a565b5b908160088111156132965761329561592a565b5b815250508181815181106132ad576132ac615988565b5b602002602001015160a001518482815181106132cc576132cb615988565b5b60200260200101516101200181815250508181815181106132f0576132ef615988565b5b602002602001015160c0015184828151811061330f5761330e615988565b5b6020026020010151610140018181525050808061332b906158b2565b915050612d69565b505b5050919050565b60606000600480549050905060008167ffffffffffffffff811115613364576133636159b7565b5b60405190808252806020026020018201604052801561339d57816020015b61338a61468d565b8152602001906001900390816133825790505b509050600080600090505b83811015613663578560028111156133c3576133c261592a565b5b6003600483815481106133d9576133d8615988565b5b906000526020600020016040516133f0919061530c565b908152602001604051809103902060010160149054906101000a900460ff1660028111156134215761342061592a565b5b14156136505760036004828154811061343d5761343c615988565b5b90600052602060002001604051613454919061530c565b908152602001604051809103902060405180608001604052908160008201805461347d9061584f565b80601f01602080910402602001604051908101604052809291908181526020018280546134a99061584f565b80156134f65780601f106134cb576101008083540402835291602001916134f6565b820191906000526020600020905b8154815290600101906020018083116134d957829003601f168201915b505050505081526020016001820160009054906101000a900473ffffffffffffffffffffffffffffffffffffffff1673ffffffffffffffffffffffffffffffffffffffff1673ffffffffffffffffffffffffffffffffffffffff1681526020016001820160149054906101000a900460ff16600281111561357a5761357961592a565b5b600281111561358c5761358b61592a565b5b81526020016002820180546135a09061584f565b80601f01602080910402602001604051908101604052809291908181526020018280546135cc9061584f565b80156136195780601f106135ee57610100808354040283529160200191613619565b820191906000526020600020905b8154815290600101906020018083116135fc57829003601f168201915b50505050508152505083838151811061363557613634615988565b5b602002602001018190525060018261364d91906156f1565b91505b808061365b906158b2565b9150506133a8565b508067ffffffffffffffff81111561367e5761367d6159b7565b5b6040519080825280602002602001820160405280156136b757816020015b6136a46146dd565b81526020019060019003908161369c5790505b50935060005b8181101561393d578281815181106136d8576136d7615988565b5b6020026020010151600001518582815181106136f7576136f6615988565b5b60200260200101516000018190525082818151811061371957613718615988565b5b60200260200101516020015185828151811061373857613737615988565b5b60200260200101516020019073ffffffffffffffffffffffffffffffffffffffff16908173ffffffffffffffffffffffffffffffffffffffff168152505082818151811061378957613788615988565b5b6020026020010151604001518582815181106137a8576137a7615988565b5b60200260200101516040019060028111156137c6576137c561592a565b5b908160028111156137da576137d961592a565b5b815250508281815181106137f1576137f0615988565b5b6020026020010151606001518582815181106138105761380f615988565b5b6020026020010151606001819052506001600084838151811061383657613835615988565b5b60200260200101516020015173ffffffffffffffffffffffffffffffffffffffff1673ffffffffffffffffffffffffffffffffffffffff168152602001908152602001600020600101805461388a9061584f565b80601f01602080910402602001604051908101604052809291908181526020018280546138b69061584f565b80156139035780601f106138d857610100808354040283529160200191613903565b820191906000526020600020905b8154815290600101906020018083116138e657829003601f168201915b505050505085828151811061391b5761391a615988565b5b6020026020010151608001819052508080613935906158b2565b9150506136bd565b50505050919050565b60008054906101000a900473ffffffffffffffffffffffffffffffffffffffff1681565b613972614503565b600160008373ffffffffffffffffffffffffffffffffffffffff1673ffffffffffffffffffffffffffffffffffffffff1681526020019081526020016000206040518060e00160405290816000820180546139cc9061584f565b80601f01602080910402602001604051908101604052809291908181526020018280546139f89061584f565b8015613a455780601f10613a1a57610100808354040283529160200191613a45565b820191906000526020600020905b815481529060010190602001808311613a2857829003601f168201915b50505050508152602001600182018054613a5e9061584f565b80601f0160208091040260200160405190810160405280929190818152602001828054613a8a9061584f565b8015613ad75780601f10613aac57610100808354040283529160200191613ad7565b820191906000526020600020905b815481529060010190602001808311613aba57829003601f168201915b505050505081526020016002820160009054906101000a900460ff166008811115613b0557613b0461592a565b5b6008811115613b1757613b1661592a565b5b81526020016002820160019054906101000a900460ff166002811115613b4057613b3f61592a565b5b6002811115613b5257613b5161592a565b5b8152602001600382018054613b669061584f565b80601f0160208091040260200160405190810160405280929190818152602001828054613b929061584f565b8015613bdf5780601f10613bb457610100808354040283529160200191613bdf565b820191906000526020600020905b815481529060010190602001808311613bc257829003601f168201915b50505050508152602001600482018054613bf89061584f565b80601f0160208091040260200160405190810160405280929190818152602001828054613c249061584f565b8015613c715780601f10613c4657610100808354040283529160200191613c71565b820191906000526020600020905b815481529060010190602001808311613c5457829003601f168201915b505050505081526020016005820160009054906101000a900473ffffffffffffffffffffffffffffffffffffffff1673ffffffffffffffffffffffffffffffffffffffff1673ffffffffffffffffffffffffffffffffffffffff16815250509050919050565b613cdf61468d565b600382604051613cef91906152f5565b9081526020016040518091039020604051806080016040529081600082018054613d189061584f565b80601f0160208091040260200160405190810160405280929190818152602001828054613d449061584f565b8015613d915780601f10613d6657610100808354040283529160200191613d91565b820191906000526020600020905b815481529060010190602001808311613d7457829003601f168201915b505050505081526020016001820160009054906101000a900473ffffffffffffffffffffffffffffffffffffffff1673ffffffffffffffffffffffffffffffffffffffff1673ffffffffffffffffffffffffffffffffffffffff1681526020016001820160149054906101000a900460ff166002811115613e1557613e1461592a565b5b6002811115613e2757613e2661592a565b5b8152602001600282018054613e3b9061584f565b80601f0160208091040260200160405190810160405280929190818152602001828054613e679061584f565b8015613eb45780601f10613e8957610100808354040283529160200191613eb4565b820191906000526020600020905b815481529060010190602001808311613e9757829003601f168201915b5050505050815250509050919050565b60068181548110613ed457600080fd5b90600052602060002090600202016000915090508060000160009054906101000a900473ffffffffffffffffffffffffffffffffffffffff16908060010160009054906101000a900473ffffffffffffffffffffffffffffffffffffffff16908060010160149054906101000a900460ff16905083565b600080600090505b6006805490508110156140a6573373ffffffffffffffffffffffffffffffffffffffff1660068281548110613f8b57613f8a615988565b5b906000526020600020906002020160000160009054906101000a900473ffffffffffffffffffffffffffffffffffffffff1673ffffffffffffffffffffffffffffffffffffffff1614801561405057508373ffffffffffffffffffffffffffffffffffffffff166006828154811061400657614005615988565b5b906000526020600020906002020160010160009054906101000a900473ffffffffffffffffffffffffffffffffffffffff1673ffffffffffffffffffffffffffffffffffffffff16145b1561409357826006828154811061406a57614069615988565b5b906000526020600020906002020160010160146101000a81548160ff0219169083151502179055505b808061409e906158b2565b915050613f53565b506001905092915050565b6000816040516020016140c491906152f5565b60405160208183030381529060405280519060200120836040516020016140eb91906152f5565b6040516020818303038152906040528051906020012014905092915050565b60606000600480549050905060008167ffffffffffffffff811115614132576141316159b7565b5b60405190808252806020026020018201604052801561416b57816020015b61415861468d565b8152602001906001900390816141505790505b509050600080600090505b8381101561444c578573ffffffffffffffffffffffffffffffffffffffff166003600483815481106141ab576141aa615988565b5b906000526020600020016040516141c2919061530c565b908152602001604051809103902060010160009054906101000a900473ffffffffffffffffffffffffffffffffffffffff1673ffffffffffffffffffffffffffffffffffffffff1614156144395760036004828154811061422657614225615988565b5b9060005260206000200160405161423d919061530c565b90815260200160405180910390206040518060800160405290816000820180546142669061584f565b80601f01602080910402602001604051908101604052809291908181526020018280546142929061584f565b80156142df5780601f106142b4576101008083540402835291602001916142df565b820191906000526020600020905b8154815290600101906020018083116142c257829003601f168201915b505050505081526020016001820160009054906101000a900473ffffffffffffffffffffffffffffffffffffffff1673ffffffffffffffffffffffffffffffffffffffff1673ffffffffffffffffffffffffffffffffffffffff1681526020016001820160149054906101000a900460ff1660028111156143635761436261592a565b5b60028111156143755761437461592a565b5b81526020016002820180546143899061584f565b80601f01602080910402602001604051908101604052809291908181526020018280546143b59061584f565b80156144025780601f106143d757610100808354040283529160200191614402565b820191906000526020600020905b8154815290600101906020018083116143e557829003601f168201915b50505050508152505083838151811061441e5761441d615988565b5b602002602001018190525060018261443691906156f1565b91505b8080614444906158b2565b915050614176565b508067ffffffffffffffff811115614467576144666159b7565b5b6040519080825280602002602001820160405280156144a057816020015b61448d61468d565b8152602001906001900390816144855790505b50935060005b818110156144fa578281815181106144c1576144c0615988565b5b60200260200101518582815181106144dc576144db615988565b5b602002602001018190525080806144f2906158b2565b9150506144a6565b50505050919050565b6040518060e001604052806060815260200160608152602001600060088111156145305761452f61592a565b5b8152602001600060028111156145495761454861592a565b5b81526020016060815260200160608152602001600073ffffffffffffffffffffffffffffffffffffffff1681525090565b6040518060e00160405280606081526020016060815260200160008152602001600073ffffffffffffffffffffffffffffffffffffffff168152602001600073ffffffffffffffffffffffffffffffffffffffff16815260200160008152602001600081525090565b604051806101600160405280606081526020016060815260200160008152602001600073ffffffffffffffffffffffffffffffffffffffff168152602001606081526020016000600881111561463c5761463b61592a565b5b8152602001600073ffffffffffffffffffffffffffffffffffffffff16815260200160608152602001600060088111156146795761467861592a565b5b815260200160008152602001600081525090565b604051806080016040528060608152602001600073ffffffffffffffffffffffffffffffffffffffff168152602001600060028111156146d0576146cf61592a565b5b8152602001606081525090565b6040518060a0016040528060608152602001600073ffffffffffffffffffffffffffffffffffffffff168152602001600060028111156147205761471f61592a565b5b815260200160608152602001606081525090565b600061474761474284615556565b615531565b905082815260208101848484011115614763576147626159eb565b5b61476e84828561580d565b509392505050565b60008135905061478581615a33565b92915050565b60008135905061479a81615a4a565b92915050565b6000813590506147af81615a61565b92915050565b6000813590506147c481615a71565b92915050565b600082601f8301126147df576147de6159e6565b5b81356147ef848260208601614734565b91505092915050565b60008135905061480781615a81565b92915050565b600060208284031215614823576148226159f5565b5b600061483184828501614776565b91505092915050565b60008060408385031215614851576148506159f5565b5b600061485f85828601614776565b92505060206148708582860161478b565b9150509250929050565b6000602082840312156148905761488f6159f5565b5b600061489e848285016147a0565b91505092915050565b6000602082840312156148bd576148bc6159f5565b5b60006148cb848285016147b5565b91505092915050565b6000602082840312156148ea576148e96159f5565b5b600082013567ffffffffffffffff811115614908576149076159f0565b5b614914848285016147ca565b91505092915050565b60008060408385031215614934576149336159f5565b5b600083013567ffffffffffffffff811115614952576149516159f0565b5b61495e858286016147ca565b925050602083013567ffffffffffffffff81111561497f5761497e6159f0565b5b61498b858286016147ca565b9150509250929050565b6000806000606084860312156149ae576149ad6159f5565b5b600084013567ffffffffffffffff8111156149cc576149cb6159f0565b5b6149d8868287016147ca565b935050602084013567ffffffffffffffff8111156149f9576149f86159f0565b5b614a05868287016147ca565b9250506040614a1686828701614776565b9150509250925092565b600060208284031215614a3657614a356159f5565b5b6000614a44848285016147f8565b91505092915050565b6000614a598383614e76565b905092915050565b6000614a6d8383614efa565b905092915050565b6000614a818383614fce565b905092915050565b6000614a958383615071565b905092915050565b6000614aa98383615175565b905092915050565b614aba8161577b565b82525050565b614ac98161577b565b82525050565b6000614ada826155ec565b614ae4818561566f565b935083602082028501614af685615587565b8060005b85811015614b325784840389528151614b138582614a4d565b9450614b1e8361562e565b925060208a01995050600181019050614afa565b50829750879550505050505092915050565b6000614b4f826155f7565b614b598185615680565b935083602082028501614b6b85615597565b8060005b85811015614ba75784840389528151614b888582614a61565b9450614b938361563b565b925060208a01995050600181019050614b6f565b50829750879550505050505092915050565b6000614bc482615602565b614bce8185615691565b935083602082028501614be0856155a7565b8060005b85811015614c1c5784840389528151614bfd8582614a75565b9450614c0883615648565b925060208a01995050600181019050614be4565b50829750879550505050505092915050565b6000614c398261560d565b614c4381856156a2565b935083602082028501614c55856155b7565b8060005b85811015614c915784840389528151614c728582614a89565b9450614c7d83615655565b925060208a01995050600181019050614c59565b50829750879550505050505092915050565b6000614cae82615618565b614cb881856156b3565b935083602082028501614cca856155c7565b8060005b85811015614d065784840389528151614ce78582614a9d565b9450614cf283615662565b925060208a01995050600181019050614cce565b50829750879550505050505092915050565b614d218161578d565b82525050565b614d30816157e9565b82525050565b614d3f816157fb565b82525050565b614d4e816157fb565b82525050565b6000614d5f82615623565b614d6981856156c4565b9350614d7981856020860161581c565b614d82816159fa565b840191505092915050565b6000614d9882615623565b614da281856156d5565b9350614db281856020860161581c565b614dbb816159fa565b840191505092915050565b6000614dd182615623565b614ddb81856156e6565b9350614deb81856020860161581c565b80840191505092915050565b60008154614e048161584f565b614e0e81866156e6565b94506001821660008114614e295760018114614e3a57614e6d565b60ff19831686528186019350614e6d565b614e43856155d7565b60005b83811015614e6557815481890152600182019150602081019050614e46565b838801955050505b50505092915050565b600060a0830160008301518482036000860152614e938282614d54565b9150506020830151614ea86020860182614ab1565b506040830151614ebb6040860182614d27565b5060608301518482036060860152614ed38282614d54565b91505060808301518482036080860152614eed8282614d54565b9150508091505092915050565b60006080830160008301518482036000860152614f178282614d54565b9150506020830151614f2c6020860182614ab1565b506040830151614f3f6040860182614d27565b5060608301518482036060860152614f578282614d54565b9150508091505092915050565b60006080830160008301518482036000860152614f818282614d54565b9150506020830151614f966020860182614ab1565b506040830151614fa96040860182614d27565b5060608301518482036060860152614fc18282614d54565b9150508091505092915050565b600060e0830160008301518482036000860152614feb8282614d54565b915050602083015184820360208601526150058282614d54565b915050604083015161501a60408601826152d7565b50606083015161502d6060860182614ab1565b5060808301516150406080860182614ab1565b5060a083015161505360a08601826152d7565b5060c083015161506660c08601826152d7565b508091505092915050565b600061016083016000830151848203600086015261508f8282614d54565b915050602083015184820360208601526150a98282614d54565b91505060408301516150be60408601826152d7565b5060608301516150d16060860182614ab1565b50608083015184820360808601526150e98282614d54565b91505060a08301516150fe60a0860182614d36565b5060c083015161511160c0860182614ab1565b5060e083015184820360e08601526151298282614d54565b915050610100830151615140610100860182614d36565b506101208301516151556101208601826152d7565b5061014083015161516a6101408601826152d7565b508091505092915050565b600060e08301600083015184820360008601526151928282614d54565b915050602083015184820360208601526151ac8282614d54565b91505060408301516151c16040860182614d36565b5060608301516151d46060860182614d27565b50608083015184820360808601526151ec8282614d54565b91505060a083015184820360a08601526152068282614d54565b91505060c083015161521b60c0860182614ab1565b508091505092915050565b600060e08301600083015184820360008601526152438282614d54565b9150506020830151848203602086015261525d8282614d54565b91505060408301516152726040860182614d36565b5060608301516152856060860182614d27565b506080830151848203608086015261529d8282614d54565b91505060a083015184820360a08601526152b78282614d54565b91505060c08301516152cc60c0860182614ab1565b508091505092915050565b6152e0816157df565b82525050565b6152ef816157df565b82525050565b60006153018284614dc6565b915081905092915050565b60006153188284614df7565b915081905092915050565b60006020820190506153386000830184614ac0565b92915050565b60006060820190506153536000830186614ac0565b6153606020830185614ac0565b61536d6040830184614d18565b949350505050565b6000602082019050818103600083015261538f8184614acf565b905092915050565b600060208201905081810360008301526153b18184614b44565b905092915050565b600060208201905081810360008301526153d38184614bb9565b905092915050565b600060208201905081810360008301526153f58184614c2e565b905092915050565b600060208201905081810360008301526154178184614ca3565b905092915050565b60006020820190506154346000830184614d18565b92915050565b600060208201905061544f6000830184614d45565b92915050565b600060e082019050818103600083015261546f818a614d8d565b905081810360208301526154838189614d8d565b905061549260408301886152e6565b61549f6060830187614ac0565b6154ac6080830186614ac0565b6154b960a08301856152e6565b6154c660c08301846152e6565b98975050505050505050565b600060208201905081810360008301526154ec8184614f64565b905092915050565b6000602082019050818103600083015261550e8184615226565b905092915050565b600060208201905061552b60008301846152e6565b92915050565b600061553b61554c565b90506155478282615881565b919050565b6000604051905090565b600067ffffffffffffffff821115615571576155706159b7565b5b61557a826159fa565b9050602081019050919050565b6000819050602082019050919050565b6000819050602082019050919050565b6000819050602082019050919050565b6000819050602082019050919050565b6000819050602082019050919050565b60008190508160005260206000209050919050565b600081519050919050565b600081519050919050565b600081519050919050565b600081519050919050565b600081519050919050565b600081519050919050565b6000602082019050919050565b6000602082019050919050565b6000602082019050919050565b6000602082019050919050565b6000602082019050919050565b600082825260208201905092915050565b600082825260208201905092915050565b600082825260208201905092915050565b600082825260208201905092915050565b600082825260208201905092915050565b600082825260208201905092915050565b600082825260208201905092915050565b600081905092915050565b60006156fc826157df565b9150615707836157df565b9250827fffffffffffffffffffffffffffffffffffffffffffffffffffffffffffffffff0382111561573c5761573b6158fb565b5b828201905092915050565b6000615752826157df565b915061575d836157df565b9250828210156157705761576f6158fb565b5b828203905092915050565b6000615786826157bf565b9050919050565b60008115159050919050565b60008190506157a782615a0b565b919050565b60008190506157ba82615a1f565b919050565b600073ffffffffffffffffffffffffffffffffffffffff82169050919050565b6000819050919050565b60006157f482615799565b9050919050565b6000615806826157ac565b9050919050565b82818337600083830152505050565b60005b8381101561583a57808201518184015260208101905061581f565b83811115615849576000848401525b50505050565b6000600282049050600182168061586757607f821691505b6020821081141561587b5761587a615959565b5b50919050565b61588a826159fa565b810181811067ffffffffffffffff821117156158a9576158a86159b7565b5b80604052505050565b60006158bd826157df565b91507fffffffffffffffffffffffffffffffffffffffffffffffffffffffffffffffff8214156158f0576158ef6158fb565b5b600182019050919050565b7f4e487b7100000000000000000000000000000000000000000000000000000000600052601160045260246000fd5b7f4e487b7100000000000000000000000000000000000000000000000000000000600052602160045260246000fd5b7f4e487b7100000000000000000000000000000000000000000000000000000000600052602260045260246000fd5b7f4e487b7100000000000000000000000000000000000000000000000000000000600052603260045260246000fd5b7f4e487b7100000000000000000000000000000000000000000000000000000000600052604160045260246000fd5b600080fd5b600080fd5b600080fd5b600080fd5b6000601f19601f8301169050919050565b60038110615a1c57615a1b61592a565b5b50565b60098110615a3057615a2f61592a565b5b50565b615a3c8161577b565b8114615a4757600080fd5b50565b615a538161578d565b8114615a5e57600080fd5b50565b60038110615a6e57600080fd5b50565b60098110615a7e57600080fd5b50565b615a8a816157df565b8114615a9557600080fd5b5056fea264697066735822122036d74f73c43f192c79ac947cff8baf7bc8d2f34b02b7bbba28486a66ada1fb8764736f6c63430008070033",
			"opcodes": "PUSH1 0x80 PUSH1 0x40 MSTORE CALLVALUE DUP1 ISZERO PUSH2 0x10 JUMPI PUSH1 0x0 DUP1 REVERT JUMPDEST POP PUSH2 0x5ACE DUP1 PUSH3 0x21 PUSH1 0x0 CODECOPY PUSH1 0x0 RETURN INVALID PUSH1 0x80 PUSH1 0x40 MSTORE CALLVALUE DUP1 ISZERO PUSH2 0x10 JUMPI PUSH1 0x0 DUP1 REVERT JUMPDEST POP PUSH1 0x4 CALLDATASIZE LT PUSH2 0x116 JUMPI PUSH1 0x0 CALLDATALOAD PUSH1 0xE0 SHR DUP1 PUSH4 0x99B5BBDD GT PUSH2 0xA2 JUMPI DUP1 PUSH4 0xCDF7E73D GT PUSH2 0x71 JUMPI DUP1 PUSH4 0xCDF7E73D EQ PUSH2 0x36D JUMPI DUP1 PUSH4 0xE7850244 EQ PUSH2 0x39D JUMPI DUP1 PUSH4 0xE7CDAA15 EQ PUSH2 0x3CF JUMPI DUP1 PUSH4 0xE9A734FF EQ PUSH2 0x3FF JUMPI DUP1 PUSH4 0xFF946C85 EQ PUSH2 0x42F JUMPI PUSH2 0x116 JUMP JUMPDEST DUP1 PUSH4 0x99B5BBDD EQ PUSH2 0x2BF JUMPI DUP1 PUSH4 0xA7270981 EQ PUSH2 0x2EF JUMPI DUP1 PUSH4 0xB4A99A4E EQ PUSH2 0x31F JUMPI DUP1 PUSH4 0xCD1720D1 EQ PUSH2 0x33D JUMPI PUSH2 0x116 JUMP JUMPDEST DUP1 PUSH4 0x40D37CAF GT PUSH2 0xE9 JUMPI DUP1 PUSH4 0x40D37CAF EQ PUSH2 0x1E1 JUMPI DUP1 PUSH4 0x4B2D14AA EQ PUSH2 0x211 JUMPI DUP1 PUSH4 0x783A7895 EQ PUSH2 0x241 JUMPI DUP1 PUSH4 0x798D2122 EQ PUSH2 0x25F JUMPI DUP1 PUSH4 0x7A53C535 EQ PUSH2 0x28F JUMPI PUSH2 0x116 JUMP JUMPDEST DUP1 PUSH4 0xF9DE977 EQ PUSH2 0x11B JUMPI DUP1 PUSH4 0x1567697C EQ PUSH2 0x14B JUMPI DUP1 PUSH4 0x25B10C05 EQ PUSH2 0x181 JUMPI DUP1 PUSH4 0x31A6DB4D EQ PUSH2 0x1B1 JUMPI JUMPDEST PUSH1 0x0 DUP1 REVERT JUMPDEST PUSH2 0x135 PUSH1 0x4 DUP1 CALLDATASIZE SUB DUP2 ADD SWAP1 PUSH2 0x130 SWAP2 SWAP1 PUSH2 0x48A7 JUMP JUMPDEST PUSH2 0x45F JUMP JUMPDEST PUSH1 0x40 MLOAD PUSH2 0x142 SWAP2 SWAP1 PUSH2 0x53FD JUMP JUMPDEST PUSH1 0x40 MLOAD DUP1 SWAP2 SUB SWAP1 RETURN JUMPDEST PUSH2 0x165 PUSH1 0x4 DUP1 CALLDATASIZE SUB DUP2 ADD SWAP1 PUSH2 0x160 SWAP2 SWAP1 PUSH2 0x4A20 JUMP JUMPDEST PUSH2 0xA20 JUMP JUMPDEST PUSH1 0x40 MLOAD PUSH2 0x178 SWAP8 SWAP7 SWAP6 SWAP5 SWAP4 SWAP3 SWAP2 SWAP1 PUSH2 0x5455 JUMP JUMPDEST PUSH1 0x40 MLOAD DUP1 SWAP2 SUB SWAP1 RETURN JUMPDEST PUSH2 0x19B PUSH1 0x4 DUP1 CALLDATASIZE SUB DUP2 ADD SWAP1 PUSH2 0x196 SWAP2 SWAP1 PUSH2 0x480D JUMP JUMPDEST PUSH2 0xBC2 JUMP JUMPDEST PUSH1 0x40 MLOAD PUSH2 0x1A8 SWAP2 SWAP1 PUSH2 0x541F JUMP JUMPDEST PUSH1 0x40 MLOAD DUP1 SWAP2 SUB SWAP1 RETURN JUMPDEST PUSH2 0x1CB PUSH1 0x4 DUP1 CALLDATASIZE SUB DUP2 ADD SWAP1 PUSH2 0x1C6 SWAP2 SWAP1 PUSH2 0x4995 JUMP JUMPDEST PUSH2 0xCF7 JUMP JUMPDEST PUSH1 0x40 MLOAD PUSH2 0x1D8 SWAP2 SWAP1 PUSH2 0x53B9 JUMP JUMPDEST PUSH1 0x40 MLOAD DUP1 SWAP2 SUB SWAP1 RETURN JUMPDEST PUSH2 0x1FB PUSH1 0x4 DUP1 CALLDATASIZE SUB DUP2 ADD SWAP1 PUSH2 0x1F6 SWAP2 SWAP1 PUSH2 0x491D JUMP JUMPDEST PUSH2 0x12F6 JUMP JUMPDEST PUSH1 0x40 MLOAD PUSH2 0x208 SWAP2 SWAP1 PUSH2 0x53DB JUMP JUMPDEST PUSH1 0x40 MLOAD DUP1 SWAP2 SUB SWAP1 RETURN JUMPDEST PUSH2 0x22B PUSH1 0x4 DUP1 CALLDATASIZE SUB DUP2 ADD SWAP1 PUSH2 0x226 SWAP2 SWAP1 PUSH2 0x48D4 JUMP JUMPDEST PUSH2 0x1D73 JUMP JUMPDEST PUSH1 0x40 MLOAD PUSH2 0x238 SWAP2 SWAP1 PUSH2 0x53B9 JUMP JUMPDEST PUSH1 0x40 MLOAD DUP1 SWAP2 SUB SWAP1 RETURN JUMPDEST PUSH2 0x249 PUSH2 0x21BA JUMP JUMPDEST PUSH1 0x40 MLOAD PUSH2 0x256 SWAP2 SWAP1 PUSH2 0x543A JUMP JUMPDEST PUSH1 0x40 MLOAD DUP1 SWAP2 SUB SWAP1 RETURN JUMPDEST PUSH2 0x279 PUSH1 0x4 DUP1 CALLDATASIZE SUB DUP2 ADD SWAP1 PUSH2 0x274 SWAP2 SWAP1 PUSH2 0x4995 JUMP JUMPDEST PUSH2 0x2311 JUMP JUMPDEST PUSH1 0x40 MLOAD PUSH2 0x286 SWAP2 SWAP1 PUSH2 0x5516 JUMP JUMPDEST PUSH1 0x40 MLOAD DUP1 SWAP2 SUB SWAP1 RETURN JUMPDEST PUSH2 0x2A9 PUSH1 0x4 DUP1 CALLDATASIZE SUB DUP2 ADD SWAP1 PUSH2 0x2A4 SWAP2 SWAP1 PUSH2 0x487A JUMP JUMPDEST PUSH2 0x2401 JUMP JUMPDEST PUSH1 0x40 MLOAD PUSH2 0x2B6 SWAP2 SWAP1 PUSH2 0x53FD JUMP JUMPDEST PUSH1 0x40 MLOAD DUP1 SWAP2 SUB SWAP1 RETURN JUMPDEST PUSH2 0x2D9 PUSH1 0x4 DUP1 CALLDATASIZE SUB DUP2 ADD SWAP1 PUSH2 0x2D4 SWAP2 SWAP1 PUSH2 0x480D JUMP JUMPDEST PUSH2 0x29C2 JUMP JUMPDEST PUSH1 0x40 MLOAD PUSH2 0x2E6 SWAP2 SWAP1 PUSH2 0x53DB JUMP JUMPDEST PUSH1 0x40 MLOAD DUP1 SWAP2 SUB SWAP1 RETURN JUMPDEST PUSH2 0x309 PUSH1 0x4 DUP1 CALLDATASIZE SUB DUP2 ADD SWAP1 PUSH2 0x304 SWAP2 SWAP1 PUSH2 0x487A JUMP JUMPDEST PUSH2 0x333C JUMP JUMPDEST PUSH1 0x40 MLOAD PUSH2 0x316 SWAP2 SWAP1 PUSH2 0x5375 JUMP JUMPDEST PUSH1 0x40 MLOAD DUP1 SWAP2 SUB SWAP1 RETURN JUMPDEST PUSH2 0x327 PUSH2 0x3946 JUMP JUMPDEST PUSH1 0x40 MLOAD PUSH2 0x334 SWAP2 SWAP1 PUSH2 0x5323 JUMP JUMPDEST PUSH1 0x40 MLOAD DUP1 SWAP2 SUB SWAP1 RETURN JUMPDEST PUSH2 0x357 PUSH1 0x4 DUP1 CALLDATASIZE SUB DUP2 ADD SWAP1 PUSH2 0x352 SWAP2 SWAP1 PUSH2 0x480D JUMP JUMPDEST PUSH2 0x396A JUMP JUMPDEST PUSH1 0x40 MLOAD PUSH2 0x364 SWAP2 SWAP1 PUSH2 0x54F4 JUMP JUMPDEST PUSH1 0x40 MLOAD DUP1 SWAP2 SUB SWAP1 RETURN JUMPDEST PUSH2 0x387 PUSH1 0x4 DUP1 CALLDATASIZE SUB DUP2 ADD SWAP1 PUSH2 0x382 SWAP2 SWAP1 PUSH2 0x48D4 JUMP JUMPDEST PUSH2 0x3CD7 JUMP JUMPDEST PUSH1 0x40 MLOAD PUSH2 0x394 SWAP2 SWAP1 PUSH2 0x54D2 JUMP JUMPDEST PUSH1 0x40 MLOAD DUP1 SWAP2 SUB SWAP1 RETURN JUMPDEST PUSH2 0x3B7 PUSH1 0x4 DUP1 CALLDATASIZE SUB DUP2 ADD SWAP1 PUSH2 0x3B2 SWAP2 SWAP1 PUSH2 0x4A20 JUMP JUMPDEST PUSH2 0x3EC4 JUMP JUMPDEST PUSH1 0x40 MLOAD PUSH2 0x3C6 SWAP4 SWAP3 SWAP2 SWAP1 PUSH2 0x533E JUMP JUMPDEST PUSH1 0x40 MLOAD DUP1 SWAP2 SUB SWAP1 RETURN JUMPDEST PUSH2 0x3E9 PUSH1 0x4 DUP1 CALLDATASIZE SUB DUP2 ADD SWAP1 PUSH2 0x3E4 SWAP2 SWAP1 PUSH2 0x483A JUMP JUMPDEST PUSH2 0x3F4B JUMP JUMPDEST PUSH1 0x40 MLOAD PUSH2 0x3F6 SWAP2 SWAP1 PUSH2 0x541F JUMP JUMPDEST PUSH1 0x40 MLOAD DUP1 SWAP2 SUB SWAP1 RETURN JUMPDEST PUSH2 0x419 PUSH1 0x4 DUP1 CALLDATASIZE SUB DUP2 ADD SWAP1 PUSH2 0x414 SWAP2 SWAP1 PUSH2 0x491D JUMP JUMPDEST PUSH2 0x40B1 JUMP JUMPDEST PUSH1 0x40 MLOAD PUSH2 0x426 SWAP2 SWAP1 PUSH2 0x541F JUMP JUMPDEST PUSH1 0x40 MLOAD DUP1 SWAP2 SUB SWAP1 RETURN JUMPDEST PUSH2 0x449 PUSH1 0x4 DUP1 CALLDATASIZE SUB DUP2 ADD SWAP1 PUSH2 0x444 SWAP2 SWAP1 PUSH2 0x480D JUMP JUMPDEST PUSH2 0x410A JUMP JUMPDEST PUSH1 0x40 MLOAD PUSH2 0x456 SWAP2 SWAP1 PUSH2 0x5397 JUMP JUMPDEST PUSH1 0x40 MLOAD DUP1 SWAP2 SUB SWAP1 RETURN JUMPDEST PUSH1 0x60 PUSH1 0x0 PUSH1 0x2 DUP1 SLOAD SWAP1 POP SWAP1 POP PUSH1 0x0 DUP2 PUSH8 0xFFFFFFFFFFFFFFFF DUP2 GT ISZERO PUSH2 0x487 JUMPI PUSH2 0x486 PUSH2 0x59B7 JUMP JUMPDEST JUMPDEST PUSH1 0x40 MLOAD SWAP1 DUP1 DUP3 MSTORE DUP1 PUSH1 0x20 MUL PUSH1 0x20 ADD DUP3 ADD PUSH1 0x40 MSTORE DUP1 ISZERO PUSH2 0x4C0 JUMPI DUP2 PUSH1 0x20 ADD JUMPDEST PUSH2 0x4AD PUSH2 0x4503 JUMP JUMPDEST DUP2 MSTORE PUSH1 0x20 ADD SWAP1 PUSH1 0x1 SWAP1 SUB SWAP1 DUP2 PUSH2 0x4A5 JUMPI SWAP1 POP JUMPDEST POP SWAP1 POP PUSH1 0x0 DUP1 PUSH1 0x0 SWAP1 POP JUMPDEST DUP4 DUP2 LT ISZERO PUSH2 0x969 JUMPI DUP6 PUSH1 0x8 DUP2 GT ISZERO PUSH2 0x4E6 JUMPI PUSH2 0x4E5 PUSH2 0x592A JUMP JUMPDEST JUMPDEST PUSH1 0x1 PUSH1 0x0 PUSH1 0x2 DUP5 DUP2 SLOAD DUP2 LT PUSH2 0x4FE JUMPI PUSH2 0x4FD PUSH2 0x5988 JUMP JUMPDEST JUMPDEST SWAP1 PUSH1 0x0 MSTORE PUSH1 0x20 PUSH1 0x0 KECCAK256 ADD PUSH1 0x0 SWAP1 SLOAD SWAP1 PUSH2 0x100 EXP SWAP1 DIV PUSH20 0xFFFFFFFFFFFFFFFFFFFFFFFFFFFFFFFFFFFFFFFF AND PUSH20 0xFFFFFFFFFFFFFFFFFFFFFFFFFFFFFFFFFFFFFFFF AND PUSH20 0xFFFFFFFFFFFFFFFFFFFFFFFFFFFFFFFFFFFFFFFF AND DUP2 MSTORE PUSH1 0x20 ADD SWAP1 DUP2 MSTORE PUSH1 0x20 ADD PUSH1 0x0 KECCAK256 PUSH1 0x2 ADD PUSH1 0x0 SWAP1 SLOAD SWAP1 PUSH2 0x100 EXP SWAP1 DIV PUSH1 0xFF AND PUSH1 0x8 DUP2 GT ISZERO PUSH2 0x586 JUMPI PUSH2 0x585 PUSH2 0x592A JUMP JUMPDEST JUMPDEST EQ ISZERO PUSH2 0x956 JUMPI PUSH1 0x1 PUSH1 0x0 PUSH1 0x2 DUP4 DUP2 SLOAD DUP2 LT PUSH2 0x5A4 JUMPI PUSH2 0x5A3 PUSH2 0x5988 JUMP JUMPDEST JUMPDEST SWAP1 PUSH1 0x0 MSTORE PUSH1 0x20 PUSH1 0x0 KECCAK256 ADD PUSH1 0x0 SWAP1 SLOAD SWAP1 PUSH2 0x100 EXP SWAP1 DIV PUSH20 0xFFFFFFFFFFFFFFFFFFFFFFFFFFFFFFFFFFFFFFFF AND PUSH20 0xFFFFFFFFFFFFFFFFFFFFFFFFFFFFFFFFFFFFFFFF AND PUSH20 0xFFFFFFFFFFFFFFFFFFFFFFFFFFFFFFFFFFFFFFFF AND DUP2 MSTORE PUSH1 0x20 ADD SWAP1 DUP2 MSTORE PUSH1 0x20 ADD PUSH1 0x0 KECCAK256 PUSH1 0x40 MLOAD DUP1 PUSH1 0xE0 ADD PUSH1 0x40 MSTORE SWAP1 DUP2 PUSH1 0x0 DUP3 ADD DUP1 SLOAD PUSH2 0x624 SWAP1 PUSH2 0x584F JUMP JUMPDEST DUP1 PUSH1 0x1F ADD PUSH1 0x20 DUP1 SWAP2 DIV MUL PUSH1 0x20 ADD PUSH1 0x40 MLOAD SWAP1 DUP2 ADD PUSH1 0x40 MSTORE DUP1 SWAP3 SWAP2 SWAP1 DUP2 DUP2 MSTORE PUSH1 0x20 ADD DUP3 DUP1 SLOAD PUSH2 0x650 SWAP1 PUSH2 0x584F JUMP JUMPDEST DUP1 ISZERO PUSH2 0x69D JUMPI DUP1 PUSH1 0x1F LT PUSH2 0x672 JUMPI PUSH2 0x100 DUP1 DUP4 SLOAD DIV MUL DUP4 MSTORE SWAP2 PUSH1 0x20 ADD SWAP2 PUSH2 0x69D JUMP JUMPDEST DUP3 ADD SWAP2 SWAP1 PUSH1 0x0 MSTORE PUSH1 0x20 PUSH1 0x0 KECCAK256 SWAP1 JUMPDEST DUP2 SLOAD DUP2 MSTORE SWAP1 PUSH1 0x1 ADD SWAP1 PUSH1 0x20 ADD DUP1 DUP4 GT PUSH2 0x680 JUMPI DUP3 SWAP1 SUB PUSH1 0x1F AND DUP3 ADD SWAP2 JUMPDEST POP POP POP POP POP DUP2 MSTORE PUSH1 0x20 ADD PUSH1 0x1 DUP3 ADD DUP1 SLOAD PUSH2 0x6B6 SWAP1 PUSH2 0x584F JUMP JUMPDEST DUP1 PUSH1 0x1F ADD PUSH1 0x20 DUP1 SWAP2 DIV MUL PUSH1 0x20 ADD PUSH1 0x40 MLOAD SWAP1 DUP2 ADD PUSH1 0x40 MSTORE DUP1 SWAP3 SWAP2 SWAP1 DUP2 DUP2 MSTORE PUSH1 0x20 ADD DUP3 DUP1 SLOAD PUSH2 0x6E2 SWAP1 PUSH2 0x584F JUMP JUMPDEST DUP1 ISZERO PUSH2 0x72F JUMPI DUP1 PUSH1 0x1F LT PUSH2 0x704 JUMPI PUSH2 0x100 DUP1 DUP4 SLOAD DIV MUL DUP4 MSTORE SWAP2 PUSH1 0x20 ADD SWAP2 PUSH2 0x72F JUMP JUMPDEST DUP3 ADD SWAP2 SWAP1 PUSH1 0x0 MSTORE PUSH1 0x20 PUSH1 0x0 KECCAK256 SWAP1 JUMPDEST DUP2 SLOAD DUP2 MSTORE SWAP1 PUSH1 0x1 ADD SWAP1 PUSH1 0x20 ADD DUP1 DUP4 GT PUSH2 0x712 JUMPI DUP3 SWAP1 SUB PUSH1 0x1F AND DUP3 ADD SWAP2 JUMPDEST POP POP POP POP POP DUP2 MSTORE PUSH1 0x20 ADD PUSH1 0x2 DUP3 ADD PUSH1 0x0 SWAP1 SLOAD SWAP1 PUSH2 0x100 EXP SWAP1 DIV PUSH1 0xFF AND PUSH1 0x8 DUP2 GT ISZERO PUSH2 0x75D JUMPI PUSH2 0x75C PUSH2 0x592A JUMP JUMPDEST JUMPDEST PUSH1 0x8 DUP2 GT ISZERO PUSH2 0x76F JUMPI PUSH2 0x76E PUSH2 0x592A JUMP JUMPDEST JUMPDEST DUP2 MSTORE PUSH1 0x20 ADD PUSH1 0x2 DUP3 ADD PUSH1 0x1 SWAP1 SLOAD SWAP1 PUSH2 0x100 EXP SWAP1 DIV PUSH1 0xFF AND PUSH1 0x2 DUP2 GT ISZERO PUSH2 0x798 JUMPI PUSH2 0x797 PUSH2 0x592A JUMP JUMPDEST JUMPDEST PUSH1 0x2 DUP2 GT ISZERO PUSH2 0x7AA JUMPI PUSH2 0x7A9 PUSH2 0x592A JUMP JUMPDEST JUMPDEST DUP2 MSTORE PUSH1 0x20 ADD PUSH1 0x3 DUP3 ADD DUP1 SLOAD PUSH2 0x7BE SWAP1 PUSH2 0x584F JUMP JUMPDEST DUP1 PUSH1 0x1F ADD PUSH1 0x20 DUP1 SWAP2 DIV MUL PUSH1 0x20 ADD PUSH1 0x40 MLOAD SWAP1 DUP2 ADD PUSH1 0x40 MSTORE DUP1 SWAP3 SWAP2 SWAP1 DUP2 DUP2 MSTORE PUSH1 0x20 ADD DUP3 DUP1 SLOAD PUSH2 0x7EA SWAP1 PUSH2 0x584F JUMP JUMPDEST DUP1 ISZERO PUSH2 0x837 JUMPI DUP1 PUSH1 0x1F LT PUSH2 0x80C JUMPI PUSH2 0x100 DUP1 DUP4 SLOAD DIV MUL DUP4 MSTORE SWAP2 PUSH1 0x20 ADD SWAP2 PUSH2 0x837 JUMP JUMPDEST DUP3 ADD SWAP2 SWAP1 PUSH1 0x0 MSTORE PUSH1 0x20 PUSH1 0x0 KECCAK256 SWAP1 JUMPDEST DUP2 SLOAD DUP2 MSTORE SWAP1 PUSH1 0x1 ADD SWAP1 PUSH1 0x20 ADD DUP1 DUP4 GT PUSH2 0x81A JUMPI DUP3 SWAP1 SUB PUSH1 0x1F AND DUP3 ADD SWAP2 JUMPDEST POP POP POP POP POP DUP2 MSTORE PUSH1 0x20 ADD PUSH1 0x4 DUP3 ADD DUP1 SLOAD PUSH2 0x850 SWAP1 PUSH2 0x584F JUMP JUMPDEST DUP1 PUSH1 0x1F ADD PUSH1 0x20 DUP1 SWAP2 DIV MUL PUSH1 0x20 ADD PUSH1 0x40 MLOAD SWAP1 DUP2 ADD PUSH1 0x40 MSTORE DUP1 SWAP3 SWAP2 SWAP1 DUP2 DUP2 MSTORE PUSH1 0x20 ADD DUP3 DUP1 SLOAD PUSH2 0x87C SWAP1 PUSH2 0x584F JUMP JUMPDEST DUP1 ISZERO PUSH2 0x8C9 JUMPI DUP1 PUSH1 0x1F LT PUSH2 0x89E JUMPI PUSH2 0x100 DUP1 DUP4 SLOAD DIV MUL DUP4 MSTORE SWAP2 PUSH1 0x20 ADD SWAP2 PUSH2 0x8C9 JUMP JUMPDEST DUP3 ADD SWAP2 SWAP1 PUSH1 0x0 MSTORE PUSH1 0x20 PUSH1 0x0 KECCAK256 SWAP1 JUMPDEST DUP2 SLOAD DUP2 MSTORE SWAP1 PUSH1 0x1 ADD SWAP1 PUSH1 0x20 ADD DUP1 DUP4 GT PUSH2 0x8AC JUMPI DUP3 SWAP1 SUB PUSH1 0x1F AND DUP3 ADD SWAP2 JUMPDEST POP POP POP POP POP DUP2 MSTORE PUSH1 0x20 ADD PUSH1 0x5 DUP3 ADD PUSH1 0x0 SWAP1 SLOAD SWAP1 PUSH2 0x100 EXP SWAP1 DIV PUSH20 0xFFFFFFFFFFFFFFFFFFFFFFFFFFFFFFFFFFFFFFFF AND PUSH20 0xFFFFFFFFFFFFFFFFFFFFFFFFFFFFFFFFFFFFFFFF AND PUSH20 0xFFFFFFFFFFFFFFFFFFFFFFFFFFFFFFFFFFFFFFFF AND DUP2 MSTORE POP POP DUP4 DUP4 DUP2 MLOAD DUP2 LT PUSH2 0x93B JUMPI PUSH2 0x93A PUSH2 0x5988 JUMP JUMPDEST JUMPDEST PUSH1 0x20 MUL PUSH1 0x20 ADD ADD DUP2 SWAP1 MSTORE POP PUSH1 0x1 DUP3 PUSH2 0x953 SWAP2 SWAP1 PUSH2 0x56F1 JUMP JUMPDEST SWAP2 POP JUMPDEST DUP1 DUP1 PUSH2 0x961 SWAP1 PUSH2 0x58B2 JUMP JUMPDEST SWAP2 POP POP PUSH2 0x4CB JUMP JUMPDEST POP DUP1 PUSH8 0xFFFFFFFFFFFFFFFF DUP2 GT ISZERO PUSH2 0x984 JUMPI PUSH2 0x983 PUSH2 0x59B7 JUMP JUMPDEST JUMPDEST PUSH1 0x40 MLOAD SWAP1 DUP1 DUP3 MSTORE DUP1 PUSH1 0x20 MUL PUSH1 0x20 ADD DUP3 ADD PUSH1 0x40 MSTORE DUP1 ISZERO PUSH2 0x9BD JUMPI DUP2 PUSH1 0x20 ADD JUMPDEST PUSH2 0x9AA PUSH2 0x4503 JUMP JUMPDEST DUP2 MSTORE PUSH1 0x20 ADD SWAP1 PUSH1 0x1 SWAP1 SUB SWAP1 DUP2 PUSH2 0x9A2 JUMPI SWAP1 POP JUMPDEST POP SWAP4 POP PUSH1 0x0 JUMPDEST DUP2 DUP2 LT ISZERO PUSH2 0xA17 JUMPI DUP3 DUP2 DUP2 MLOAD DUP2 LT PUSH2 0x9DE JUMPI PUSH2 0x9DD PUSH2 0x5988 JUMP JUMPDEST JUMPDEST PUSH1 0x20 MUL PUSH1 0x20 ADD ADD MLOAD DUP6 DUP3 DUP2 MLOAD DUP2 LT PUSH2 0x9F9 JUMPI PUSH2 0x9F8 PUSH2 0x5988 JUMP JUMPDEST JUMPDEST PUSH1 0x20 MUL PUSH1 0x20 ADD ADD DUP2 SWAP1 MSTORE POP DUP1 DUP1 PUSH2 0xA0F SWAP1 PUSH2 0x58B2 JUMP JUMPDEST SWAP2 POP POP PUSH2 0x9C3 JUMP JUMPDEST POP POP POP POP SWAP2 SWAP1 POP JUMP JUMPDEST PUSH1 0x5 DUP2 DUP2 SLOAD DUP2 LT PUSH2 0xA30 JUMPI PUSH1 0x0 DUP1 REVERT JUMPDEST SWAP1 PUSH1 0x0 MSTORE PUSH1 0x20 PUSH1 0x0 KECCAK256 SWAP1 PUSH1 0x7 MUL ADD PUSH1 0x0 SWAP2 POP SWAP1 POP DUP1 PUSH1 0x0 ADD DUP1 SLOAD PUSH2 0xA53 SWAP1 PUSH2 0x584F JUMP JUMPDEST DUP1 PUSH1 0x1F ADD PUSH1 0x20 DUP1 SWAP2 DIV MUL PUSH1 0x20 ADD PUSH1 0x40 MLOAD SWAP1 DUP2 ADD PUSH1 0x40 MSTORE DUP1 SWAP3 SWAP2 SWAP1 DUP2 DUP2 MSTORE PUSH1 0x20 ADD DUP3 DUP1 SLOAD PUSH2 0xA7F SWAP1 PUSH2 0x584F JUMP JUMPDEST DUP1 ISZERO PUSH2 0xACC JUMPI DUP1 PUSH1 0x1F LT PUSH2 0xAA1 JUMPI PUSH2 0x100 DUP1 DUP4 SLOAD DIV MUL DUP4 MSTORE SWAP2 PUSH1 0x20 ADD SWAP2 PUSH2 0xACC JUMP JUMPDEST DUP3 ADD SWAP2 SWAP1 PUSH1 0x0 MSTORE PUSH1 0x20 PUSH1 0x0 KECCAK256 SWAP1 JUMPDEST DUP2 SLOAD DUP2 MSTORE SWAP1 PUSH1 0x1 ADD SWAP1 PUSH1 0x20 ADD DUP1 DUP4 GT PUSH2 0xAAF JUMPI DUP3 SWAP1 SUB PUSH1 0x1F AND DUP3 ADD SWAP2 JUMPDEST POP POP POP POP POP SWAP1 DUP1 PUSH1 0x1 ADD DUP1 SLOAD PUSH2 0xAE1 SWAP1 PUSH2 0x584F JUMP JUMPDEST DUP1 PUSH1 0x1F ADD PUSH1 0x20 DUP1 SWAP2 DIV MUL PUSH1 0x20 ADD PUSH1 0x40 MLOAD SWAP1 DUP2 ADD PUSH1 0x40 MSTORE DUP1 SWAP3 SWAP2 SWAP1 DUP2 DUP2 MSTORE PUSH1 0x20 ADD DUP3 DUP1 SLOAD PUSH2 0xB0D SWAP1 PUSH2 0x584F JUMP JUMPDEST DUP1 ISZERO PUSH2 0xB5A JUMPI DUP1 PUSH1 0x1F LT PUSH2 0xB2F JUMPI PUSH2 0x100 DUP1 DUP4 SLOAD DIV MUL DUP4 MSTORE SWAP2 PUSH1 0x20 ADD SWAP2 PUSH2 0xB5A JUMP JUMPDEST DUP3 ADD SWAP2 SWAP1 PUSH1 0x0 MSTORE PUSH1 0x20 PUSH1 0x0 KECCAK256 SWAP1 JUMPDEST DUP2 SLOAD DUP2 MSTORE SWAP1 PUSH1 0x1 ADD SWAP1 PUSH1 0x20 ADD DUP1 DUP4 GT PUSH2 0xB3D JUMPI DUP3 SWAP1 SUB PUSH1 0x1F AND DUP3 ADD SWAP2 JUMPDEST POP POP POP POP POP SWAP1 DUP1 PUSH1 0x2 ADD SLOAD SWAP1 DUP1 PUSH1 0x3 ADD PUSH1 0x0 SWAP1 SLOAD SWAP1 PUSH2 0x100 EXP SWAP1 DIV PUSH20 0xFFFFFFFFFFFFFFFFFFFFFFFFFFFFFFFFFFFFFFFF AND SWAP1 DUP1 PUSH1 0x4 ADD PUSH1 0x0 SWAP1 SLOAD SWAP1 PUSH2 0x100 EXP SWAP1 DIV PUSH20 0xFFFFFFFFFFFFFFFFFFFFFFFFFFFFFFFFFFFFFFFF AND SWAP1 DUP1 PUSH1 0x5 ADD SLOAD SWAP1 DUP1 PUSH1 0x6 ADD SLOAD SWAP1 POP DUP8 JUMP JUMPDEST PUSH1 0x0 DUP1 PUSH1 0x40 MLOAD DUP1 PUSH1 0x60 ADD PUSH1 0x40 MSTORE DUP1 CALLER PUSH20 0xFFFFFFFFFFFFFFFFFFFFFFFFFFFFFFFFFFFFFFFF AND DUP2 MSTORE PUSH1 0x20 ADD DUP5 PUSH20 0xFFFFFFFFFFFFFFFFFFFFFFFFFFFFFFFFFFFFFFFF AND DUP2 MSTORE PUSH1 0x20 ADD PUSH1 0x1 ISZERO ISZERO DUP2 MSTORE POP SWAP1 POP PUSH1 0x6 DUP2 SWAP1 DUP1 PUSH1 0x1 DUP2 SLOAD ADD DUP1 DUP3 SSTORE DUP1 SWAP2 POP POP PUSH1 0x1 SWAP1 SUB SWAP1 PUSH1 0x0 MSTORE PUSH1 0x20 PUSH1 0x0 KECCAK256 SWAP1 PUSH1 0x2 MUL ADD PUSH1 0x0 SWAP1 SWAP2 SWAP1 SWAP2 SWAP1 SWAP2 POP PUSH1 0x0 DUP3 ADD MLOAD DUP2 PUSH1 0x0 ADD PUSH1 0x0 PUSH2 0x100 EXP DUP2 SLOAD DUP2 PUSH20 0xFFFFFFFFFFFFFFFFFFFFFFFFFFFFFFFFFFFFFFFF MUL NOT AND SWAP1 DUP4 PUSH20 0xFFFFFFFFFFFFFFFFFFFFFFFFFFFFFFFFFFFFFFFF AND MUL OR SWAP1 SSTORE POP PUSH1 0x20 DUP3 ADD MLOAD DUP2 PUSH1 0x1 ADD PUSH1 0x0 PUSH2 0x100 EXP DUP2 SLOAD DUP2 PUSH20 0xFFFFFFFFFFFFFFFFFFFFFFFFFFFFFFFFFFFFFFFF MUL NOT AND SWAP1 DUP4 PUSH20 0xFFFFFFFFFFFFFFFFFFFFFFFFFFFFFFFFFFFFFFFF AND MUL OR SWAP1 SSTORE POP PUSH1 0x40 DUP3 ADD MLOAD DUP2 PUSH1 0x1 ADD PUSH1 0x14 PUSH2 0x100 EXP DUP2 SLOAD DUP2 PUSH1 0xFF MUL NOT AND SWAP1 DUP4 ISZERO ISZERO MUL OR SWAP1 SSTORE POP POP POP PUSH1 0x1 SWAP2 POP POP SWAP2 SWAP1 POP JUMP JUMPDEST PUSH1 0x60 PUSH1 0x0 DUP1 PUSH1 0x5 DUP1 SLOAD SWAP1 POP PUSH8 0xFFFFFFFFFFFFFFFF DUP2 GT ISZERO PUSH2 0xD1B JUMPI PUSH2 0xD1A PUSH2 0x59B7 JUMP JUMPDEST JUMPDEST PUSH1 0x40 MLOAD SWAP1 DUP1 DUP3 MSTORE DUP1 PUSH1 0x20 MUL PUSH1 0x20 ADD DUP3 ADD PUSH1 0x40 MSTORE DUP1 ISZERO PUSH2 0xD54 JUMPI DUP2 PUSH1 0x20 ADD JUMPDEST PUSH2 0xD41 PUSH2 0x457A JUMP JUMPDEST DUP2 MSTORE PUSH1 0x20 ADD SWAP1 PUSH1 0x1 SWAP1 SUB SWAP1 DUP2 PUSH2 0xD39 JUMPI SWAP1 POP JUMPDEST POP SWAP1 POP PUSH1 0x0 JUMPDEST PUSH1 0x5 DUP1 SLOAD SWAP1 POP DUP2 LT ISZERO PUSH2 0x1234 JUMPI PUSH2 0xE1E PUSH1 0x5 DUP3 DUP2 SLOAD DUP2 LT PUSH2 0xD7E JUMPI PUSH2 0xD7D PUSH2 0x5988 JUMP JUMPDEST JUMPDEST SWAP1 PUSH1 0x0 MSTORE PUSH1 0x20 PUSH1 0x0 KECCAK256 SWAP1 PUSH1 0x7 MUL ADD PUSH1 0x1 ADD DUP1 SLOAD PUSH2 0xD9A SWAP1 PUSH2 0x584F JUMP JUMPDEST DUP1 PUSH1 0x1F ADD PUSH1 0x20 DUP1 SWAP2 DIV MUL PUSH1 0x20 ADD PUSH1 0x40 MLOAD SWAP1 DUP2 ADD PUSH1 0x40 MSTORE DUP1 SWAP3 SWAP2 SWAP1 DUP2 DUP2 MSTORE PUSH1 0x20 ADD DUP3 DUP1 SLOAD PUSH2 0xDC6 SWAP1 PUSH2 0x584F JUMP JUMPDEST DUP1 ISZERO PUSH2 0xE13 JUMPI DUP1 PUSH1 0x1F LT PUSH2 0xDE8 JUMPI PUSH2 0x100 DUP1 DUP4 SLOAD DIV MUL DUP4 MSTORE SWAP2 PUSH1 0x20 ADD SWAP2 PUSH2 0xE13 JUMP JUMPDEST DUP3 ADD SWAP2 SWAP1 PUSH1 0x0 MSTORE PUSH1 0x20 PUSH1 0x0 KECCAK256 SWAP1 JUMPDEST DUP2 SLOAD DUP2 MSTORE SWAP1 PUSH1 0x1 ADD SWAP1 PUSH1 0x20 ADD DUP1 DUP4 GT PUSH2 0xDF6 JUMPI DUP3 SWAP1 SUB PUSH1 0x1F AND DUP3 ADD SWAP2 JUMPDEST POP POP POP POP POP DUP9 PUSH2 0x40B1 JUMP JUMPDEST DUP1 ISZERO PUSH2 0xEDD JUMPI POP PUSH2 0xEDC PUSH1 0x5 DUP3 DUP2 SLOAD DUP2 LT PUSH2 0xE3C JUMPI PUSH2 0xE3B PUSH2 0x5988 JUMP JUMPDEST JUMPDEST SWAP1 PUSH1 0x0 MSTORE PUSH1 0x20 PUSH1 0x0 KECCAK256 SWAP1 PUSH1 0x7 MUL ADD PUSH1 0x0 ADD DUP1 SLOAD PUSH2 0xE58 SWAP1 PUSH2 0x584F JUMP JUMPDEST DUP1 PUSH1 0x1F ADD PUSH1 0x20 DUP1 SWAP2 DIV MUL PUSH1 0x20 ADD PUSH1 0x40 MLOAD SWAP1 DUP2 ADD PUSH1 0x40 MSTORE DUP1 SWAP3 SWAP2 SWAP1 DUP2 DUP2 MSTORE PUSH1 0x20 ADD DUP3 DUP1 SLOAD PUSH2 0xE84 SWAP1 PUSH2 0x584F JUMP JUMPDEST DUP1 ISZERO PUSH2 0xED1 JUMPI DUP1 PUSH1 0x1F LT PUSH2 0xEA6 JUMPI PUSH2 0x100 DUP1 DUP4 SLOAD DIV MUL DUP4 MSTORE SWAP2 PUSH1 0x20 ADD SWAP2 PUSH2 0xED1 JUMP JUMPDEST DUP3 ADD SWAP2 SWAP1 PUSH1 0x0 MSTORE PUSH1 0x20 PUSH1 0x0 KECCAK256 SWAP1 JUMPDEST DUP2 SLOAD DUP2 MSTORE SWAP1 PUSH1 0x1 ADD SWAP1 PUSH1 0x20 ADD DUP1 DUP4 GT PUSH2 0xEB4 JUMPI DUP3 SWAP1 SUB PUSH1 0x1F AND DUP3 ADD SWAP2 JUMPDEST POP POP POP POP POP DUP8 PUSH2 0x40B1 JUMP JUMPDEST JUMPDEST DUP1 ISZERO PUSH2 0xFD4 JUMPI POP DUP5 PUSH20 0xFFFFFFFFFFFFFFFFFFFFFFFFFFFFFFFFFFFFFFFF AND PUSH1 0x5 DUP3 DUP2 SLOAD DUP2 LT PUSH2 0xF0F JUMPI PUSH2 0xF0E PUSH2 0x5988 JUMP JUMPDEST JUMPDEST SWAP1 PUSH1 0x0 MSTORE PUSH1 0x20 PUSH1 0x0 KECCAK256 SWAP1 PUSH1 0x7 MUL ADD PUSH1 0x4 ADD PUSH1 0x0 SWAP1 SLOAD SWAP1 PUSH2 0x100 EXP SWAP1 DIV PUSH20 0xFFFFFFFFFFFFFFFFFFFFFFFFFFFFFFFFFFFFFFFF AND PUSH20 0xFFFFFFFFFFFFFFFFFFFFFFFFFFFFFFFFFFFFFFFF AND EQ DUP1 PUSH2 0xFD3 JUMPI POP DUP5 PUSH20 0xFFFFFFFFFFFFFFFFFFFFFFFFFFFFFFFFFFFFFFFF AND PUSH1 0x5 DUP3 DUP2 SLOAD DUP2 LT PUSH2 0xF89 JUMPI PUSH2 0xF88 PUSH2 0x5988 JUMP JUMPDEST JUMPDEST SWAP1 PUSH1 0x0 MSTORE PUSH1 0x20 PUSH1 0x0 KECCAK256 SWAP1 PUSH1 0x7 MUL ADD PUSH1 0x3 ADD PUSH1 0x0 SWAP1 SLOAD SWAP1 PUSH2 0x100 EXP SWAP1 DIV PUSH20 0xFFFFFFFFFFFFFFFFFFFFFFFFFFFFFFFFFFFFFFFF AND PUSH20 0xFFFFFFFFFFFFFFFFFFFFFFFFFFFFFFFFFFFFFFFF AND EQ JUMPDEST JUMPDEST ISZERO PUSH2 0x1221 JUMPI PUSH1 0x5 DUP2 DUP2 SLOAD DUP2 LT PUSH2 0xFED JUMPI PUSH2 0xFEC PUSH2 0x5988 JUMP JUMPDEST JUMPDEST SWAP1 PUSH1 0x0 MSTORE PUSH1 0x20 PUSH1 0x0 KECCAK256 SWAP1 PUSH1 0x7 MUL ADD PUSH1 0x40 MLOAD DUP1 PUSH1 0xE0 ADD PUSH1 0x40 MSTORE SWAP1 DUP2 PUSH1 0x0 DUP3 ADD DUP1 SLOAD PUSH2 0x1016 SWAP1 PUSH2 0x584F JUMP JUMPDEST DUP1 PUSH1 0x1F ADD PUSH1 0x20 DUP1 SWAP2 DIV MUL PUSH1 0x20 ADD PUSH1 0x40 MLOAD SWAP1 DUP2 ADD PUSH1 0x40 MSTORE DUP1 SWAP3 SWAP2 SWAP1 DUP2 DUP2 MSTORE PUSH1 0x20 ADD DUP3 DUP1 SLOAD PUSH2 0x1042 SWAP1 PUSH2 0x584F JUMP JUMPDEST DUP1 ISZERO PUSH2 0x108F JUMPI DUP1 PUSH1 0x1F LT PUSH2 0x1064 JUMPI PUSH2 0x100 DUP1 DUP4 SLOAD DIV MUL DUP4 MSTORE SWAP2 PUSH1 0x20 ADD SWAP2 PUSH2 0x108F JUMP JUMPDEST DUP3 ADD SWAP2 SWAP1 PUSH1 0x0 MSTORE PUSH1 0x20 PUSH1 0x0 KECCAK256 SWAP1 JUMPDEST DUP2 SLOAD DUP2 MSTORE SWAP1 PUSH1 0x1 ADD SWAP1 PUSH1 0x20 ADD DUP1 DUP4 GT PUSH2 0x1072 JUMPI DUP3 SWAP1 SUB PUSH1 0x1F AND DUP3 ADD SWAP2 JUMPDEST POP POP POP POP POP DUP2 MSTORE PUSH1 0x20 ADD PUSH1 0x1 DUP3 ADD DUP1 SLOAD PUSH2 0x10A8 SWAP1 PUSH2 0x584F JUMP JUMPDEST DUP1 PUSH1 0x1F ADD PUSH1 0x20 DUP1 SWAP2 DIV MUL PUSH1 0x20 ADD PUSH1 0x40 MLOAD SWAP1 DUP2 ADD PUSH1 0x40 MSTORE DUP1 SWAP3 SWAP2 SWAP1 DUP2 DUP2 MSTORE PUSH1 0x20 ADD DUP3 DUP1 SLOAD PUSH2 0x10D4 SWAP1 PUSH2 0x584F JUMP JUMPDEST DUP1 ISZERO PUSH2 0x1121 JUMPI DUP1 PUSH1 0x1F LT PUSH2 0x10F6 JUMPI PUSH2 0x100 DUP1 DUP4 SLOAD DIV MUL DUP4 MSTORE SWAP2 PUSH1 0x20 ADD SWAP2 PUSH2 0x1121 JUMP JUMPDEST DUP3 ADD SWAP2 SWAP1 PUSH1 0x0 MSTORE PUSH1 0x20 PUSH1 0x0 KECCAK256 SWAP1 JUMPDEST DUP2 SLOAD DUP2 MSTORE SWAP1 PUSH1 0x1 ADD SWAP1 PUSH1 0x20 ADD DUP1 DUP4 GT PUSH2 0x1104 JUMPI DUP3 SWAP1 SUB PUSH1 0x1F AND DUP3 ADD SWAP2 JUMPDEST POP POP POP POP POP DUP2 MSTORE PUSH1 0x20 ADD PUSH1 0x2 DUP3 ADD SLOAD DUP2 MSTORE PUSH1 0x20 ADD PUSH1 0x3 DUP3 ADD PUSH1 0x0 SWAP1 SLOAD SWAP1 PUSH2 0x100 EXP SWAP1 DIV PUSH20 0xFFFFFFFFFFFFFFFFFFFFFFFFFFFFFFFFFFFFFFFF AND PUSH20 0xFFFFFFFFFFFFFFFFFFFFFFFFFFFFFFFFFFFFFFFF AND PUSH20 0xFFFFFFFFFFFFFFFFFFFFFFFFFFFFFFFFFFFFFFFF AND DUP2 MSTORE PUSH1 0x20 ADD PUSH1 0x4 DUP3 ADD PUSH1 0x0 SWAP1 SLOAD SWAP1 PUSH2 0x100 EXP SWAP1 DIV PUSH20 0xFFFFFFFFFFFFFFFFFFFFFFFFFFFFFFFFFFFFFFFF AND PUSH20 0xFFFFFFFFFFFFFFFFFFFFFFFFFFFFFFFFFFFFFFFF AND PUSH20 0xFFFFFFFFFFFFFFFFFFFFFFFFFFFFFFFFFFFFFFFF AND DUP2 MSTORE PUSH1 0x20 ADD PUSH1 0x5 DUP3 ADD SLOAD DUP2 MSTORE PUSH1 0x20 ADD PUSH1 0x6 DUP3 ADD SLOAD DUP2 MSTORE POP POP DUP3 DUP5 DUP2 MLOAD DUP2 LT PUSH2 0x1207 JUMPI PUSH2 0x1206 PUSH2 0x5988 JUMP JUMPDEST JUMPDEST PUSH1 0x20 MUL PUSH1 0x20 ADD ADD DUP2 SWAP1 MSTORE POP DUP3 DUP1 PUSH2 0x121D SWAP1 PUSH2 0x58B2 JUMP JUMPDEST SWAP4 POP POP JUMPDEST DUP1 DUP1 PUSH2 0x122C SWAP1 PUSH2 0x58B2 JUMP JUMPDEST SWAP2 POP POP PUSH2 0xD5A JUMP JUMPDEST POP DUP2 PUSH8 0xFFFFFFFFFFFFFFFF DUP2 GT ISZERO PUSH2 0x124F JUMPI PUSH2 0x124E PUSH2 0x59B7 JUMP JUMPDEST JUMPDEST PUSH1 0x40 MLOAD SWAP1 DUP1 DUP3 MSTORE DUP1 PUSH1 0x20 MUL PUSH1 0x20 ADD DUP3 ADD PUSH1 0x40 MSTORE DUP1 ISZERO PUSH2 0x1288 JUMPI DUP2 PUSH1 0x20 ADD JUMPDEST PUSH2 0x1275 PUSH2 0x457A JUMP JUMPDEST DUP2 MSTORE PUSH1 0x20 ADD SWAP1 PUSH1 0x1 SWAP1 SUB SWAP1 DUP2 PUSH2 0x126D JUMPI SWAP1 POP JUMPDEST POP SWAP3 POP PUSH1 0x0 DUP3 GT ISZERO PUSH2 0x12ED JUMPI PUSH1 0x0 JUMPDEST DUP3 DUP2 LT ISZERO PUSH2 0x12EB JUMPI DUP2 DUP2 DUP2 MLOAD DUP2 LT PUSH2 0x12B2 JUMPI PUSH2 0x12B1 PUSH2 0x5988 JUMP JUMPDEST JUMPDEST PUSH1 0x20 MUL PUSH1 0x20 ADD ADD MLOAD DUP5 DUP3 DUP2 MLOAD DUP2 LT PUSH2 0x12CD JUMPI PUSH2 0x12CC PUSH2 0x5988 JUMP JUMPDEST JUMPDEST PUSH1 0x20 MUL PUSH1 0x20 ADD ADD DUP2 SWAP1 MSTORE POP DUP1 DUP1 PUSH2 0x12E3 SWAP1 PUSH2 0x58B2 JUMP JUMPDEST SWAP2 POP POP PUSH2 0x1297 JUMP JUMPDEST POP JUMPDEST POP POP SWAP4 SWAP3 POP POP POP JUMP JUMPDEST PUSH1 0x60 PUSH1 0x0 DUP1 PUSH1 0x5 DUP1 SLOAD SWAP1 POP PUSH8 0xFFFFFFFFFFFFFFFF DUP2 GT ISZERO PUSH2 0x131A JUMPI PUSH2 0x1319 PUSH2 0x59B7 JUMP JUMPDEST JUMPDEST PUSH1 0x40 MLOAD SWAP1 DUP1 DUP3 MSTORE DUP1 PUSH1 0x20 MUL PUSH1 0x20 ADD DUP3 ADD PUSH1 0x40 MSTORE DUP1 ISZERO PUSH2 0x1353 JUMPI DUP2 PUSH1 0x20 ADD JUMPDEST PUSH2 0x1340 PUSH2 0x457A JUMP JUMPDEST DUP2 MSTORE PUSH1 0x20 ADD SWAP1 PUSH1 0x1 SWAP1 SUB SWAP1 DUP2 PUSH2 0x1338 JUMPI SWAP1 POP JUMPDEST POP SWAP1 POP PUSH1 0x0 JUMPDEST PUSH1 0x5 DUP1 SLOAD SWAP1 POP DUP2 LT ISZERO PUSH2 0x173C JUMPI PUSH2 0x141D PUSH1 0x5 DUP3 DUP2 SLOAD DUP2 LT PUSH2 0x137D JUMPI PUSH2 0x137C PUSH2 0x5988 JUMP JUMPDEST JUMPDEST SWAP1 PUSH1 0x0 MSTORE PUSH1 0x20 PUSH1 0x0 KECCAK256 SWAP1 PUSH1 0x7 MUL ADD PUSH1 0x1 ADD DUP1 SLOAD PUSH2 0x1399 SWAP1 PUSH2 0x584F JUMP JUMPDEST DUP1 PUSH1 0x1F ADD PUSH1 0x20 DUP1 SWAP2 DIV MUL PUSH1 0x20 ADD PUSH1 0x40 MLOAD SWAP1 DUP2 ADD PUSH1 0x40 MSTORE DUP1 SWAP3 SWAP2 SWAP1 DUP2 DUP2 MSTORE PUSH1 0x20 ADD DUP3 DUP1 SLOAD PUSH2 0x13C5 SWAP1 PUSH2 0x584F JUMP JUMPDEST DUP1 ISZERO PUSH2 0x1412 JUMPI DUP1 PUSH1 0x1F LT PUSH2 0x13E7 JUMPI PUSH2 0x100 DUP1 DUP4 SLOAD DIV MUL DUP4 MSTORE SWAP2 PUSH1 0x20 ADD SWAP2 PUSH2 0x1412 JUMP JUMPDEST DUP3 ADD SWAP2 SWAP1 PUSH1 0x0 MSTORE PUSH1 0x20 PUSH1 0x0 KECCAK256 SWAP1 JUMPDEST DUP2 SLOAD DUP2 MSTORE SWAP1 PUSH1 0x1 ADD SWAP1 PUSH1 0x20 ADD DUP1 DUP4 GT PUSH2 0x13F5 JUMPI DUP3 SWAP1 SUB PUSH1 0x1F AND DUP3 ADD SWAP2 JUMPDEST POP POP POP POP POP DUP8 PUSH2 0x40B1 JUMP JUMPDEST DUP1 ISZERO PUSH2 0x14DC JUMPI POP PUSH2 0x14DB PUSH1 0x5 DUP3 DUP2 SLOAD DUP2 LT PUSH2 0x143B JUMPI PUSH2 0x143A PUSH2 0x5988 JUMP JUMPDEST JUMPDEST SWAP1 PUSH1 0x0 MSTORE PUSH1 0x20 PUSH1 0x0 KECCAK256 SWAP1 PUSH1 0x7 MUL ADD PUSH1 0x0 ADD DUP1 SLOAD PUSH2 0x1457 SWAP1 PUSH2 0x584F JUMP JUMPDEST DUP1 PUSH1 0x1F ADD PUSH1 0x20 DUP1 SWAP2 DIV MUL PUSH1 0x20 ADD PUSH1 0x40 MLOAD SWAP1 DUP2 ADD PUSH1 0x40 MSTORE DUP1 SWAP3 SWAP2 SWAP1 DUP2 DUP2 MSTORE PUSH1 0x20 ADD DUP3 DUP1 SLOAD PUSH2 0x1483 SWAP1 PUSH2 0x584F JUMP JUMPDEST DUP1 ISZERO PUSH2 0x14D0 JUMPI DUP1 PUSH1 0x1F LT PUSH2 0x14A5 JUMPI PUSH2 0x100 DUP1 DUP4 SLOAD DIV MUL DUP4 MSTORE SWAP2 PUSH1 0x20 ADD SWAP2 PUSH2 0x14D0 JUMP JUMPDEST DUP3 ADD SWAP2 SWAP1 PUSH1 0x0 MSTORE PUSH1 0x20 PUSH1 0x0 KECCAK256 SWAP1 JUMPDEST DUP2 SLOAD DUP2 MSTORE SWAP1 PUSH1 0x1 ADD SWAP1 PUSH1 0x20 ADD DUP1 DUP4 GT PUSH2 0x14B3 JUMPI DUP3 SWAP1 SUB PUSH1 0x1F AND DUP3 ADD SWAP2 JUMPDEST POP POP POP POP POP DUP7 PUSH2 0x40B1 JUMP JUMPDEST JUMPDEST ISZERO PUSH2 0x1729 JUMPI PUSH1 0x5 DUP2 DUP2 SLOAD DUP2 LT PUSH2 0x14F5 JUMPI PUSH2 0x14F4 PUSH2 0x5988 JUMP JUMPDEST JUMPDEST SWAP1 PUSH1 0x0 MSTORE PUSH1 0x20 PUSH1 0x0 KECCAK256 SWAP1 PUSH1 0x7 MUL ADD PUSH1 0x40 MLOAD DUP1 PUSH1 0xE0 ADD PUSH1 0x40 MSTORE SWAP1 DUP2 PUSH1 0x0 DUP3 ADD DUP1 SLOAD PUSH2 0x151E SWAP1 PUSH2 0x584F JUMP JUMPDEST DUP1 PUSH1 0x1F ADD PUSH1 0x20 DUP1 SWAP2 DIV MUL PUSH1 0x20 ADD PUSH1 0x40 MLOAD SWAP1 DUP2 ADD PUSH1 0x40 MSTORE DUP1 SWAP3 SWAP2 SWAP1 DUP2 DUP2 MSTORE PUSH1 0x20 ADD DUP3 DUP1 SLOAD PUSH2 0x154A SWAP1 PUSH2 0x584F JUMP JUMPDEST DUP1 ISZERO PUSH2 0x1597 JUMPI DUP1 PUSH1 0x1F LT PUSH2 0x156C JUMPI PUSH2 0x100 DUP1 DUP4 SLOAD DIV MUL DUP4 MSTORE SWAP2 PUSH1 0x20 ADD SWAP2 PUSH2 0x1597 JUMP JUMPDEST DUP3 ADD SWAP2 SWAP1 PUSH1 0x0 MSTORE PUSH1 0x20 PUSH1 0x0 KECCAK256 SWAP1 JUMPDEST DUP2 SLOAD DUP2 MSTORE SWAP1 PUSH1 0x1 ADD SWAP1 PUSH1 0x20 ADD DUP1 DUP4 GT PUSH2 0x157A JUMPI DUP3 SWAP1 SUB PUSH1 0x1F AND DUP3 ADD SWAP2 JUMPDEST POP POP POP POP POP DUP2 MSTORE PUSH1 0x20 ADD PUSH1 0x1 DUP3 ADD DUP1 SLOAD PUSH2 0x15B0 SWAP1 PUSH2 0x584F JUMP JUMPDEST DUP1 PUSH1 0x1F ADD PUSH1 0x20 DUP1 SWAP2 DIV MUL PUSH1 0x20 ADD PUSH1 0x40 MLOAD SWAP1 DUP2 ADD PUSH1 0x40 MSTORE DUP1 SWAP3 SWAP2 SWAP1 DUP2 DUP2 MSTORE PUSH1 0x20 ADD DUP3 DUP1 SLOAD PUSH2 0x15DC SWAP1 PUSH2 0x584F JUMP JUMPDEST DUP1 ISZERO PUSH2 0x1629 JUMPI DUP1 PUSH1 0x1F LT PUSH2 0x15FE JUMPI PUSH2 0x100 DUP1 DUP4 SLOAD DIV MUL DUP4 MSTORE SWAP2 PUSH1 0x20 ADD SWAP2 PUSH2 0x1629 JUMP JUMPDEST DUP3 ADD SWAP2 SWAP1 PUSH1 0x0 MSTORE PUSH1 0x20 PUSH1 0x0 KECCAK256 SWAP1 JUMPDEST DUP2 SLOAD DUP2 MSTORE SWAP1 PUSH1 0x1 ADD SWAP1 PUSH1 0x20 ADD DUP1 DUP4 GT PUSH2 0x160C JUMPI DUP3 SWAP1 SUB PUSH1 0x1F AND DUP3 ADD SWAP2 JUMPDEST POP POP POP POP POP DUP2 MSTORE PUSH1 0x20 ADD PUSH1 0x2 DUP3 ADD SLOAD DUP2 MSTORE PUSH1 0x20 ADD PUSH1 0x3 DUP3 ADD PUSH1 0x0 SWAP1 SLOAD SWAP1 PUSH2 0x100 EXP SWAP1 DIV PUSH20 0xFFFFFFFFFFFFFFFFFFFFFFFFFFFFFFFFFFFFFFFF AND PUSH20 0xFFFFFFFFFFFFFFFFFFFFFFFFFFFFFFFFFFFFFFFF AND PUSH20 0xFFFFFFFFFFFFFFFFFFFFFFFFFFFFFFFFFFFFFFFF AND DUP2 MSTORE PUSH1 0x20 ADD PUSH1 0x4 DUP3 ADD PUSH1 0x0 SWAP1 SLOAD SWAP1 PUSH2 0x100 EXP SWAP1 DIV PUSH20 0xFFFFFFFFFFFFFFFFFFFFFFFFFFFFFFFFFFFFFFFF AND PUSH20 0xFFFFFFFFFFFFFFFFFFFFFFFFFFFFFFFFFFFFFFFF AND PUSH20 0xFFFFFFFFFFFFFFFFFFFFFFFFFFFFFFFFFFFFFFFF AND DUP2 MSTORE PUSH1 0x20 ADD PUSH1 0x5 DUP3 ADD SLOAD DUP2 MSTORE PUSH1 0x20 ADD PUSH1 0x6 DUP3 ADD SLOAD DUP2 MSTORE POP POP DUP3 DUP5 DUP2 MLOAD DUP2 LT PUSH2 0x170F JUMPI PUSH2 0x170E PUSH2 0x5988 JUMP JUMPDEST JUMPDEST PUSH1 0x20 MUL PUSH1 0x20 ADD ADD DUP2 SWAP1 MSTORE POP DUP3 DUP1 PUSH2 0x1725 SWAP1 PUSH2 0x58B2 JUMP JUMPDEST SWAP4 POP POP JUMPDEST DUP1 DUP1 PUSH2 0x1734 SWAP1 PUSH2 0x58B2 JUMP JUMPDEST SWAP2 POP POP PUSH2 0x1359 JUMP JUMPDEST POP DUP2 PUSH8 0xFFFFFFFFFFFFFFFF DUP2 GT ISZERO PUSH2 0x1757 JUMPI PUSH2 0x1756 PUSH2 0x59B7 JUMP JUMPDEST JUMPDEST PUSH1 0x40 MLOAD SWAP1 DUP1 DUP3 MSTORE DUP1 PUSH1 0x20 MUL PUSH1 0x20 ADD DUP3 ADD PUSH1 0x40 MSTORE DUP1 ISZERO PUSH2 0x1790 JUMPI DUP2 PUSH1 0x20 ADD JUMPDEST PUSH2 0x177D PUSH2 0x45E3 JUMP JUMPDEST DUP2 MSTORE PUSH1 0x20 ADD SWAP1 PUSH1 0x1 SWAP1 SUB SWAP1 DUP2 PUSH2 0x1775 JUMPI SWAP1 POP JUMPDEST POP SWAP3 POP PUSH1 0x0 DUP3 GT ISZERO PUSH2 0x1D6B JUMPI PUSH1 0x0 JUMPDEST DUP3 DUP2 LT ISZERO PUSH2 0x1D69 JUMPI DUP2 DUP2 DUP2 MLOAD DUP2 LT PUSH2 0x17BA JUMPI PUSH2 0x17B9 PUSH2 0x5988 JUMP JUMPDEST JUMPDEST PUSH1 0x20 MUL PUSH1 0x20 ADD ADD MLOAD PUSH1 0x0 ADD MLOAD DUP5 DUP3 DUP2 MLOAD DUP2 LT PUSH2 0x17D9 JUMPI PUSH2 0x17D8 PUSH2 0x5988 JUMP JUMPDEST JUMPDEST PUSH1 0x20 MUL PUSH1 0x20 ADD ADD MLOAD PUSH1 0x0 ADD DUP2 SWAP1 MSTORE POP DUP2 DUP2 DUP2 MLOAD DUP2 LT PUSH2 0x17FB JUMPI PUSH2 0x17FA PUSH2 0x5988 JUMP JUMPDEST JUMPDEST PUSH1 0x20 MUL PUSH1 0x20 ADD ADD MLOAD PUSH1 0x20 ADD MLOAD DUP5 DUP3 DUP2 MLOAD DUP2 LT PUSH2 0x181A JUMPI PUSH2 0x1819 PUSH2 0x5988 JUMP JUMPDEST JUMPDEST PUSH1 0x20 MUL PUSH1 0x20 ADD ADD MLOAD PUSH1 0x20 ADD DUP2 SWAP1 MSTORE POP DUP2 DUP2 DUP2 MLOAD DUP2 LT PUSH2 0x183C JUMPI PUSH2 0x183B PUSH2 0x5988 JUMP JUMPDEST JUMPDEST PUSH1 0x20 MUL PUSH1 0x20 ADD ADD MLOAD PUSH1 0x40 ADD MLOAD DUP5 DUP3 DUP2 MLOAD DUP2 LT PUSH2 0x185B JUMPI PUSH2 0x185A PUSH2 0x5988 JUMP JUMPDEST JUMPDEST PUSH1 0x20 MUL PUSH1 0x20 ADD ADD MLOAD PUSH1 0x40 ADD DUP2 DUP2 MSTORE POP POP DUP2 DUP2 DUP2 MLOAD DUP2 LT PUSH2 0x187E JUMPI PUSH2 0x187D PUSH2 0x5988 JUMP JUMPDEST JUMPDEST PUSH1 0x20 MUL PUSH1 0x20 ADD ADD MLOAD PUSH1 0x60 ADD MLOAD DUP5 DUP3 DUP2 MLOAD DUP2 LT PUSH2 0x189D JUMPI PUSH2 0x189C PUSH2 0x5988 JUMP JUMPDEST JUMPDEST PUSH1 0x20 MUL PUSH1 0x20 ADD ADD MLOAD PUSH1 0x60 ADD SWAP1 PUSH20 0xFFFFFFFFFFFFFFFFFFFFFFFFFFFFFFFFFFFFFFFF AND SWAP1 DUP2 PUSH20 0xFFFFFFFFFFFFFFFFFFFFFFFFFFFFFFFFFFFFFFFF AND DUP2 MSTORE POP POP PUSH1 0x1 PUSH1 0x0 DUP4 DUP4 DUP2 MLOAD DUP2 LT PUSH2 0x18F2 JUMPI PUSH2 0x18F1 PUSH2 0x5988 JUMP JUMPDEST JUMPDEST PUSH1 0x20 MUL PUSH1 0x20 ADD ADD MLOAD PUSH1 0x60 ADD MLOAD PUSH20 0xFFFFFFFFFFFFFFFFFFFFFFFFFFFFFFFFFFFFFFFF AND PUSH20 0xFFFFFFFFFFFFFFFFFFFFFFFFFFFFFFFFFFFFFFFF AND DUP2 MSTORE PUSH1 0x20 ADD SWAP1 DUP2 MSTORE PUSH1 0x20 ADD PUSH1 0x0 KECCAK256 PUSH1 0x1 ADD DUP1 SLOAD PUSH2 0x1946 SWAP1 PUSH2 0x584F JUMP JUMPDEST DUP1 PUSH1 0x1F ADD PUSH1 0x20 DUP1 SWAP2 DIV MUL PUSH1 0x20 ADD PUSH1 0x40 MLOAD SWAP1 DUP2 ADD PUSH1 0x40 MSTORE DUP1 SWAP3 SWAP2 SWAP1 DUP2 DUP2 MSTORE PUSH1 0x20 ADD DUP3 DUP1 SLOAD PUSH2 0x1972 SWAP1 PUSH2 0x584F JUMP JUMPDEST DUP1 ISZERO PUSH2 0x19BF JUMPI DUP1 PUSH1 0x1F LT PUSH2 0x1994 JUMPI PUSH2 0x100 DUP1 DUP4 SLOAD DIV MUL DUP4 MSTORE SWAP2 PUSH1 0x20 ADD SWAP2 PUSH2 0x19BF JUMP JUMPDEST DUP3 ADD SWAP2 SWAP1 PUSH1 0x0 MSTORE PUSH1 0x20 PUSH1 0x0 KECCAK256 SWAP1 JUMPDEST DUP2 SLOAD DUP2 MSTORE SWAP1 PUSH1 0x1 ADD SWAP1 PUSH1 0x20 ADD DUP1 DUP4 GT PUSH2 0x19A2 JUMPI DUP3 SWAP1 SUB PUSH1 0x1F AND DUP3 ADD SWAP2 JUMPDEST POP POP POP POP POP DUP5 DUP3 DUP2 MLOAD DUP2 LT PUSH2 0x19D7 JUMPI PUSH2 0x19D6 PUSH2 0x5988 JUMP JUMPDEST JUMPDEST PUSH1 0x20 MUL PUSH1 0x20 ADD ADD MLOAD PUSH1 0x80 ADD DUP2 SWAP1 MSTORE POP PUSH1 0x1 PUSH1 0x0 DUP4 DUP4 DUP2 MLOAD DUP2 LT PUSH2 0x19FD JUMPI PUSH2 0x19FC PUSH2 0x5988 JUMP JUMPDEST JUMPDEST PUSH1 0x20 MUL PUSH1 0x20 ADD ADD MLOAD PUSH1 0x60 ADD MLOAD PUSH20 0xFFFFFFFFFFFFFFFFFFFFFFFFFFFFFFFFFFFFFFFF AND PUSH20 0xFFFFFFFFFFFFFFFFFFFFFFFFFFFFFFFFFFFFFFFF AND DUP2 MSTORE PUSH1 0x20 ADD SWAP1 DUP2 MSTORE PUSH1 0x20 ADD PUSH1 0x0 KECCAK256 PUSH1 0x2 ADD PUSH1 0x0 SWAP1 SLOAD SWAP1 PUSH2 0x100 EXP SWAP1 DIV PUSH1 0xFF AND DUP5 DUP3 DUP2 MLOAD DUP2 LT PUSH2 0x1A67 JUMPI PUSH2 0x1A66 PUSH2 0x5988 JUMP JUMPDEST JUMPDEST PUSH1 0x20 MUL PUSH1 0x20 ADD ADD MLOAD PUSH1 0xA0 ADD SWAP1 PUSH1 0x8 DUP2 GT ISZERO PUSH2 0x1A85 JUMPI PUSH2 0x1A84 PUSH2 0x592A JUMP JUMPDEST JUMPDEST SWAP1 DUP2 PUSH1 0x8 DUP2 GT ISZERO PUSH2 0x1A99 JUMPI PUSH2 0x1A98 PUSH2 0x592A JUMP JUMPDEST JUMPDEST DUP2 MSTORE POP POP DUP2 DUP2 DUP2 MLOAD DUP2 LT PUSH2 0x1AB0 JUMPI PUSH2 0x1AAF PUSH2 0x5988 JUMP JUMPDEST JUMPDEST PUSH1 0x20 MUL PUSH1 0x20 ADD ADD MLOAD PUSH1 0x80 ADD MLOAD DUP5 DUP3 DUP2 MLOAD DUP2 LT PUSH2 0x1ACF JUMPI PUSH2 0x1ACE PUSH2 0x5988 JUMP JUMPDEST JUMPDEST PUSH1 0x20 MUL PUSH1 0x20 ADD ADD MLOAD PUSH1 0xC0 ADD SWAP1 PUSH20 0xFFFFFFFFFFFFFFFFFFFFFFFFFFFFFFFFFFFFFFFF AND SWAP1 DUP2 PUSH20 0xFFFFFFFFFFFFFFFFFFFFFFFFFFFFFFFFFFFFFFFF AND DUP2 MSTORE POP POP PUSH1 0x1 PUSH1 0x0 DUP4 DUP4 DUP2 MLOAD DUP2 LT PUSH2 0x1B24 JUMPI PUSH2 0x1B23 PUSH2 0x5988 JUMP JUMPDEST JUMPDEST PUSH1 0x20 MUL PUSH1 0x20 ADD ADD MLOAD PUSH1 0x80 ADD MLOAD PUSH20 0xFFFFFFFFFFFFFFFFFFFFFFFFFFFFFFFFFFFFFFFF AND PUSH20 0xFFFFFFFFFFFFFFFFFFFFFFFFFFFFFFFFFFFFFFFF AND DUP2 MSTORE PUSH1 0x20 ADD SWAP1 DUP2 MSTORE PUSH1 0x20 ADD PUSH1 0x0 KECCAK256 PUSH1 0x1 ADD DUP1 SLOAD PUSH2 0x1B78 SWAP1 PUSH2 0x584F JUMP JUMPDEST DUP1 PUSH1 0x1F ADD PUSH1 0x20 DUP1 SWAP2 DIV MUL PUSH1 0x20 ADD PUSH1 0x40 MLOAD SWAP1 DUP2 ADD PUSH1 0x40 MSTORE DUP1 SWAP3 SWAP2 SWAP1 DUP2 DUP2 MSTORE PUSH1 0x20 ADD DUP3 DUP1 SLOAD PUSH2 0x1BA4 SWAP1 PUSH2 0x584F JUMP JUMPDEST DUP1 ISZERO PUSH2 0x1BF1 JUMPI DUP1 PUSH1 0x1F LT PUSH2 0x1BC6 JUMPI PUSH2 0x100 DUP1 DUP4 SLOAD DIV MUL DUP4 MSTORE SWAP2 PUSH1 0x20 ADD SWAP2 PUSH2 0x1BF1 JUMP JUMPDEST DUP3 ADD SWAP2 SWAP1 PUSH1 0x0 MSTORE PUSH1 0x20 PUSH1 0x0 KECCAK256 SWAP1 JUMPDEST DUP2 SLOAD DUP2 MSTORE SWAP1 PUSH1 0x1 ADD SWAP1 PUSH1 0x20 ADD DUP1 DUP4 GT PUSH2 0x1BD4 JUMPI DUP3 SWAP1 SUB PUSH1 0x1F AND DUP3 ADD SWAP2 JUMPDEST POP POP POP POP POP DUP5 DUP3 DUP2 MLOAD DUP2 LT PUSH2 0x1C09 JUMPI PUSH2 0x1C08 PUSH2 0x5988 JUMP JUMPDEST JUMPDEST PUSH1 0x20 MUL PUSH1 0x20 ADD ADD MLOAD PUSH1 0xE0 ADD DUP2 SWAP1 MSTORE POP PUSH1 0x1 PUSH1 0x0 DUP4 DUP4 DUP2 MLOAD DUP2 LT PUSH2 0x1C2F JUMPI PUSH2 0x1C2E PUSH2 0x5988 JUMP JUMPDEST JUMPDEST PUSH1 0x20 MUL PUSH1 0x20 ADD ADD MLOAD PUSH1 0x80 ADD MLOAD PUSH20 0xFFFFFFFFFFFFFFFFFFFFFFFFFFFFFFFFFFFFFFFF AND PUSH20 0xFFFFFFFFFFFFFFFFFFFFFFFFFFFFFFFFFFFFFFFF AND DUP2 MSTORE PUSH1 0x20 ADD SWAP1 DUP2 MSTORE PUSH1 0x20 ADD PUSH1 0x0 KECCAK256 PUSH1 0x2 ADD PUSH1 0x0 SWAP1 SLOAD SWAP1 PUSH2 0x100 EXP SWAP1 DIV PUSH1 0xFF AND DUP5 DUP3 DUP2 MLOAD DUP2 LT PUSH2 0x1C99 JUMPI PUSH2 0x1C98 PUSH2 0x5988 JUMP JUMPDEST JUMPDEST PUSH1 0x20 MUL PUSH1 0x20 ADD ADD MLOAD PUSH2 0x100 ADD SWAP1 PUSH1 0x8 DUP2 GT ISZERO PUSH2 0x1CB8 JUMPI PUSH2 0x1CB7 PUSH2 0x592A JUMP JUMPDEST JUMPDEST SWAP1 DUP2 PUSH1 0x8 DUP2 GT ISZERO PUSH2 0x1CCC JUMPI PUSH2 0x1CCB PUSH2 0x592A JUMP JUMPDEST JUMPDEST DUP2 MSTORE POP POP DUP2 DUP2 DUP2 MLOAD DUP2 LT PUSH2 0x1CE3 JUMPI PUSH2 0x1CE2 PUSH2 0x5988 JUMP JUMPDEST JUMPDEST PUSH1 0x20 MUL PUSH1 0x20 ADD ADD MLOAD PUSH1 0xA0 ADD MLOAD DUP5 DUP3 DUP2 MLOAD DUP2 LT PUSH2 0x1D02 JUMPI PUSH2 0x1D01 PUSH2 0x5988 JUMP JUMPDEST JUMPDEST PUSH1 0x20 MUL PUSH1 0x20 ADD ADD MLOAD PUSH2 0x120 ADD DUP2 DUP2 MSTORE POP POP DUP2 DUP2 DUP2 MLOAD DUP2 LT PUSH2 0x1D26 JUMPI PUSH2 0x1D25 PUSH2 0x5988 JUMP JUMPDEST JUMPDEST PUSH1 0x20 MUL PUSH1 0x20 ADD ADD MLOAD PUSH1 0xC0 ADD MLOAD DUP5 DUP3 DUP2 MLOAD DUP2 LT PUSH2 0x1D45 JUMPI PUSH2 0x1D44 PUSH2 0x5988 JUMP JUMPDEST JUMPDEST PUSH1 0x20 MUL PUSH1 0x20 ADD ADD MLOAD PUSH2 0x140 ADD DUP2 DUP2 MSTORE POP POP DUP1 DUP1 PUSH2 0x1D61 SWAP1 PUSH2 0x58B2 JUMP JUMPDEST SWAP2 POP POP PUSH2 0x179F JUMP JUMPDEST POP JUMPDEST POP POP SWAP3 SWAP2 POP POP JUMP JUMPDEST PUSH1 0x60 PUSH1 0x0 DUP1 PUSH1 0x5 DUP1 SLOAD SWAP1 POP PUSH8 0xFFFFFFFFFFFFFFFF DUP2 GT ISZERO PUSH2 0x1D97 JUMPI PUSH2 0x1D96 PUSH2 0x59B7 JUMP JUMPDEST JUMPDEST PUSH1 0x40 MLOAD SWAP1 DUP1 DUP3 MSTORE DUP1 PUSH1 0x20 MUL PUSH1 0x20 ADD DUP3 ADD PUSH1 0x40 MSTORE DUP1 ISZERO PUSH2 0x1DD0 JUMPI DUP2 PUSH1 0x20 ADD JUMPDEST PUSH2 0x1DBD PUSH2 0x457A JUMP JUMPDEST DUP2 MSTORE PUSH1 0x20 ADD SWAP1 PUSH1 0x1 SWAP1 SUB SWAP1 DUP2 PUSH2 0x1DB5 JUMPI SWAP1 POP JUMPDEST POP SWAP1 POP PUSH1 0x0 JUMPDEST PUSH1 0x5 DUP1 SLOAD SWAP1 POP DUP2 LT ISZERO PUSH2 0x20FA JUMPI PUSH2 0x1E9A PUSH1 0x5 DUP3 DUP2 SLOAD DUP2 LT PUSH2 0x1DFA JUMPI PUSH2 0x1DF9 PUSH2 0x5988 JUMP JUMPDEST JUMPDEST SWAP1 PUSH1 0x0 MSTORE PUSH1 0x20 PUSH1 0x0 KECCAK256 SWAP1 PUSH1 0x7 MUL ADD PUSH1 0x0 ADD DUP1 SLOAD PUSH2 0x1E16 SWAP1 PUSH2 0x584F JUMP JUMPDEST DUP1 PUSH1 0x1F ADD PUSH1 0x20 DUP1 SWAP2 DIV MUL PUSH1 0x20 ADD PUSH1 0x40 MLOAD SWAP1 DUP2 ADD PUSH1 0x40 MSTORE DUP1 SWAP3 SWAP2 SWAP1 DUP2 DUP2 MSTORE PUSH1 0x20 ADD DUP3 DUP1 SLOAD PUSH2 0x1E42 SWAP1 PUSH2 0x584F JUMP JUMPDEST DUP1 ISZERO PUSH2 0x1E8F JUMPI DUP1 PUSH1 0x1F LT PUSH2 0x1E64 JUMPI PUSH2 0x100 DUP1 DUP4 SLOAD DIV MUL DUP4 MSTORE SWAP2 PUSH1 0x20 ADD SWAP2 PUSH2 0x1E8F JUMP JUMPDEST DUP3 ADD SWAP2 SWAP1 PUSH1 0x0 MSTORE PUSH1 0x20 PUSH1 0x0 KECCAK256 SWAP1 JUMPDEST DUP2 SLOAD DUP2 MSTORE SWAP1 PUSH1 0x1 ADD SWAP1 PUSH1 0x20 ADD DUP1 DUP4 GT PUSH2 0x1E72 JUMPI DUP3 SWAP1 SUB PUSH1 0x1F AND DUP3 ADD SWAP2 JUMPDEST POP POP POP POP POP DUP7 PUSH2 0x40B1 JUMP JUMPDEST ISZERO PUSH2 0x20E7 JUMPI PUSH1 0x5 DUP2 DUP2 SLOAD DUP2 LT PUSH2 0x1EB3 JUMPI PUSH2 0x1EB2 PUSH2 0x5988 JUMP JUMPDEST JUMPDEST SWAP1 PUSH1 0x0 MSTORE PUSH1 0x20 PUSH1 0x0 KECCAK256 SWAP1 PUSH1 0x7 MUL ADD PUSH1 0x40 MLOAD DUP1 PUSH1 0xE0 ADD PUSH1 0x40 MSTORE SWAP1 DUP2 PUSH1 0x0 DUP3 ADD DUP1 SLOAD PUSH2 0x1EDC SWAP1 PUSH2 0x584F JUMP JUMPDEST DUP1 PUSH1 0x1F ADD PUSH1 0x20 DUP1 SWAP2 DIV MUL PUSH1 0x20 ADD PUSH1 0x40 MLOAD SWAP1 DUP2 ADD PUSH1 0x40 MSTORE DUP1 SWAP3 SWAP2 SWAP1 DUP2 DUP2 MSTORE PUSH1 0x20 ADD DUP3 DUP1 SLOAD PUSH2 0x1F08 SWAP1 PUSH2 0x584F JUMP JUMPDEST DUP1 ISZERO PUSH2 0x1F55 JUMPI DUP1 PUSH1 0x1F LT PUSH2 0x1F2A JUMPI PUSH2 0x100 DUP1 DUP4 SLOAD DIV MUL DUP4 MSTORE SWAP2 PUSH1 0x20 ADD SWAP2 PUSH2 0x1F55 JUMP JUMPDEST DUP3 ADD SWAP2 SWAP1 PUSH1 0x0 MSTORE PUSH1 0x20 PUSH1 0x0 KECCAK256 SWAP1 JUMPDEST DUP2 SLOAD DUP2 MSTORE SWAP1 PUSH1 0x1 ADD SWAP1 PUSH1 0x20 ADD DUP1 DUP4 GT PUSH2 0x1F38 JUMPI DUP3 SWAP1 SUB PUSH1 0x1F AND DUP3 ADD SWAP2 JUMPDEST POP POP POP POP POP DUP2 MSTORE PUSH1 0x20 ADD PUSH1 0x1 DUP3 ADD DUP1 SLOAD PUSH2 0x1F6E SWAP1 PUSH2 0x584F JUMP JUMPDEST DUP1 PUSH1 0x1F ADD PUSH1 0x20 DUP1 SWAP2 DIV MUL PUSH1 0x20 ADD PUSH1 0x40 MLOAD SWAP1 DUP2 ADD PUSH1 0x40 MSTORE DUP1 SWAP3 SWAP2 SWAP1 DUP2 DUP2 MSTORE PUSH1 0x20 ADD DUP3 DUP1 SLOAD PUSH2 0x1F9A SWAP1 PUSH2 0x584F JUMP JUMPDEST DUP1 ISZERO PUSH2 0x1FE7 JUMPI DUP1 PUSH1 0x1F LT PUSH2 0x1FBC JUMPI PUSH2 0x100 DUP1 DUP4 SLOAD DIV MUL DUP4 MSTORE SWAP2 PUSH1 0x20 ADD SWAP2 PUSH2 0x1FE7 JUMP JUMPDEST DUP3 ADD SWAP2 SWAP1 PUSH1 0x0 MSTORE PUSH1 0x20 PUSH1 0x0 KECCAK256 SWAP1 JUMPDEST DUP2 SLOAD DUP2 MSTORE SWAP1 PUSH1 0x1 ADD SWAP1 PUSH1 0x20 ADD DUP1 DUP4 GT PUSH2 0x1FCA JUMPI DUP3 SWAP1 SUB PUSH1 0x1F AND DUP3 ADD SWAP2 JUMPDEST POP POP POP POP POP DUP2 MSTORE PUSH1 0x20 ADD PUSH1 0x2 DUP3 ADD SLOAD DUP2 MSTORE PUSH1 0x20 ADD PUSH1 0x3 DUP3 ADD PUSH1 0x0 SWAP1 SLOAD SWAP1 PUSH2 0x100 EXP SWAP1 DIV PUSH20 0xFFFFFFFFFFFFFFFFFFFFFFFFFFFFFFFFFFFFFFFF AND PUSH20 0xFFFFFFFFFFFFFFFFFFFFFFFFFFFFFFFFFFFFFFFF AND PUSH20 0xFFFFFFFFFFFFFFFFFFFFFFFFFFFFFFFFFFFFFFFF AND DUP2 MSTORE PUSH1 0x20 ADD PUSH1 0x4 DUP3 ADD PUSH1 0x0 SWAP1 SLOAD SWAP1 PUSH2 0x100 EXP SWAP1 DIV PUSH20 0xFFFFFFFFFFFFFFFFFFFFFFFFFFFFFFFFFFFFFFFF AND PUSH20 0xFFFFFFFFFFFFFFFFFFFFFFFFFFFFFFFFFFFFFFFF AND PUSH20 0xFFFFFFFFFFFFFFFFFFFFFFFFFFFFFFFFFFFFFFFF AND DUP2 MSTORE PUSH1 0x20 ADD PUSH1 0x5 DUP3 ADD SLOAD DUP2 MSTORE PUSH1 0x20 ADD PUSH1 0x6 DUP3 ADD SLOAD DUP2 MSTORE POP POP DUP3 DUP5 DUP2 MLOAD DUP2 LT PUSH2 0x20CD JUMPI PUSH2 0x20CC PUSH2 0x5988 JUMP JUMPDEST JUMPDEST PUSH1 0x20 MUL PUSH1 0x20 ADD ADD DUP2 SWAP1 MSTORE POP DUP3 DUP1 PUSH2 0x20E3 SWAP1 PUSH2 0x58B2 JUMP JUMPDEST SWAP4 POP POP JUMPDEST DUP1 DUP1 PUSH2 0x20F2 SWAP1 PUSH2 0x58B2 JUMP JUMPDEST SWAP2 POP POP PUSH2 0x1DD6 JUMP JUMPDEST POP DUP2 PUSH8 0xFFFFFFFFFFFFFFFF DUP2 GT ISZERO PUSH2 0x2115 JUMPI PUSH2 0x2114 PUSH2 0x59B7 JUMP JUMPDEST JUMPDEST PUSH1 0x40 MLOAD SWAP1 DUP1 DUP3 MSTORE DUP1 PUSH1 0x20 MUL PUSH1 0x20 ADD DUP3 ADD PUSH1 0x40 MSTORE DUP1 ISZERO PUSH2 0x214E JUMPI DUP2 PUSH1 0x20 ADD JUMPDEST PUSH2 0x213B PUSH2 0x457A JUMP JUMPDEST DUP2 MSTORE PUSH1 0x20 ADD SWAP1 PUSH1 0x1 SWAP1 SUB SWAP1 DUP2 PUSH2 0x2133 JUMPI SWAP1 POP JUMPDEST POP SWAP3 POP PUSH1 0x0 DUP3 GT ISZERO PUSH2 0x21B3 JUMPI PUSH1 0x0 JUMPDEST DUP3 DUP2 LT ISZERO PUSH2 0x21B1 JUMPI DUP2 DUP2 DUP2 MLOAD DUP2 LT PUSH2 0x2178 JUMPI PUSH2 0x2177 PUSH2 0x5988 JUMP JUMPDEST JUMPDEST PUSH1 0x20 MUL PUSH1 0x20 ADD ADD MLOAD DUP5 DUP3 DUP2 MLOAD DUP2 LT PUSH2 0x2193 JUMPI PUSH2 0x2192 PUSH2 0x5988 JUMP JUMPDEST JUMPDEST PUSH1 0x20 MUL PUSH1 0x20 ADD ADD DUP2 SWAP1 MSTORE POP DUP1 DUP1 PUSH2 0x21A9 SWAP1 PUSH2 0x58B2 JUMP JUMPDEST SWAP2 POP POP PUSH2 0x215D JUMP JUMPDEST POP JUMPDEST POP POP SWAP2 SWAP1 POP JUMP JUMPDEST PUSH1 0x0 DUP1 PUSH1 0x0 SWAP1 SLOAD SWAP1 PUSH2 0x100 EXP SWAP1 DIV PUSH20 0xFFFFFFFFFFFFFFFFFFFFFFFFFFFFFFFFFFFFFFFF AND PUSH20 0xFFFFFFFFFFFFFFFFFFFFFFFFFFFFFFFFFFFFFFFF AND CALLER PUSH20 0xFFFFFFFFFFFFFFFFFFFFFFFFFFFFFFFFFFFFFFFF AND EQ ISZERO PUSH2 0x221A JUMPI PUSH1 0x1 SWAP1 POP PUSH2 0x230E JUMP JUMPDEST PUSH1 0x0 PUSH20 0xFFFFFFFFFFFFFFFFFFFFFFFFFFFFFFFFFFFFFFFF AND PUSH1 0x1 PUSH1 0x0 CALLER PUSH20 0xFFFFFFFFFFFFFFFFFFFFFFFFFFFFFFFFFFFFFFFF AND PUSH20 0xFFFFFFFFFFFFFFFFFFFFFFFFFFFFFFFFFFFFFFFF AND DUP2 MSTORE PUSH1 0x20 ADD SWAP1 DUP2 MSTORE PUSH1 0x20 ADD PUSH1 0x0 KECCAK256 PUSH1 0x5 ADD PUSH1 0x0 SWAP1 SLOAD SWAP1 PUSH2 0x100 EXP SWAP1 DIV PUSH20 0xFFFFFFFFFFFFFFFFFFFFFFFFFFFFFFFFFFFFFFFF AND PUSH20 0xFFFFFFFFFFFFFFFFFFFFFFFFFFFFFFFFFFFFFFFF AND EQ ISZERO PUSH2 0x22BA JUMPI PUSH1 0x0 SWAP1 POP PUSH2 0x230D JUMP JUMPDEST PUSH1 0x1 PUSH1 0x0 CALLER PUSH20 0xFFFFFFFFFFFFFFFFFFFFFFFFFFFFFFFFFFFFFFFF AND PUSH20 0xFFFFFFFFFFFFFFFFFFFFFFFFFFFFFFFFFFFFFFFF AND DUP2 MSTORE PUSH1 0x20 ADD SWAP1 DUP2 MSTORE PUSH1 0x20 ADD PUSH1 0x0 KECCAK256 PUSH1 0x2 ADD PUSH1 0x0 SWAP1 SLOAD SWAP1 PUSH2 0x100 EXP SWAP1 DIV PUSH1 0xFF AND SWAP1 POP JUMPDEST JUMPDEST SWAP1 JUMP JUMPDEST PUSH1 0x0 DUP1 PUSH2 0x231F DUP6 DUP6 DUP6 PUSH2 0xCF7 JUMP JUMPDEST SWAP1 POP PUSH1 0x0 DUP1 PUSH1 0x0 JUMPDEST DUP4 MLOAD DUP2 LT ISZERO PUSH2 0x23E8 JUMPI DUP6 PUSH20 0xFFFFFFFFFFFFFFFFFFFFFFFFFFFFFFFFFFFFFFFF AND DUP5 DUP3 DUP2 MLOAD DUP2 LT PUSH2 0x235A JUMPI PUSH2 0x2359 PUSH2 0x5988 JUMP JUMPDEST JUMPDEST PUSH1 0x20 MUL PUSH1 0x20 ADD ADD MLOAD PUSH1 0x80 ADD MLOAD PUSH20 0xFFFFFFFFFFFFFFFFFFFFFFFFFFFFFFFFFFFFFFFF AND EQ ISZERO PUSH2 0x23A8 JUMPI DUP4 DUP2 DUP2 MLOAD DUP2 LT PUSH2 0x2395 JUMPI PUSH2 0x2394 PUSH2 0x5988 JUMP JUMPDEST JUMPDEST PUSH1 0x20 MUL PUSH1 0x20 ADD ADD MLOAD PUSH1 0xA0 ADD MLOAD SWAP3 POP PUSH2 0x23D5 JUMP JUMPDEST DUP4 DUP2 DUP2 MLOAD DUP2 LT PUSH2 0x23BB JUMPI PUSH2 0x23BA PUSH2 0x5988 JUMP JUMPDEST JUMPDEST PUSH1 0x20 MUL PUSH1 0x20 ADD ADD MLOAD PUSH1 0xA0 ADD MLOAD DUP3 PUSH2 0x23D2 SWAP2 SWAP1 PUSH2 0x56F1 JUMP JUMPDEST SWAP2 POP JUMPDEST DUP1 DUP1 PUSH2 0x23E0 SWAP1 PUSH2 0x58B2 JUMP JUMPDEST SWAP2 POP POP PUSH2 0x2327 JUMP JUMPDEST POP DUP1 DUP3 PUSH2 0x23F5 SWAP2 SWAP1 PUSH2 0x5747 JUMP JUMPDEST SWAP4 POP POP POP POP SWAP4 SWAP3 POP POP POP JUMP JUMPDEST PUSH1 0x60 PUSH1 0x0 PUSH1 0x2 DUP1 SLOAD SWAP1 POP SWAP1 POP PUSH1 0x0 DUP2 PUSH8 0xFFFFFFFFFFFFFFFF DUP2 GT ISZERO PUSH2 0x2429 JUMPI PUSH2 0x2428 PUSH2 0x59B7 JUMP JUMPDEST JUMPDEST PUSH1 0x40 MLOAD SWAP1 DUP1 DUP3 MSTORE DUP1 PUSH1 0x20 MUL PUSH1 0x20 ADD DUP3 ADD PUSH1 0x40 MSTORE DUP1 ISZERO PUSH2 0x2462 JUMPI DUP2 PUSH1 0x20 ADD JUMPDEST PUSH2 0x244F PUSH2 0x4503 JUMP JUMPDEST DUP2 MSTORE PUSH1 0x20 ADD SWAP1 PUSH1 0x1 SWAP1 SUB SWAP1 DUP2 PUSH2 0x2447 JUMPI SWAP1 POP JUMPDEST POP SWAP1 POP PUSH1 0x0 DUP1 PUSH1 0x0 SWAP1 POP JUMPDEST DUP4 DUP2 LT ISZERO PUSH2 0x290B JUMPI DUP6 PUSH1 0x2 DUP2 GT ISZERO PUSH2 0x2488 JUMPI PUSH2 0x2487 PUSH2 0x592A JUMP JUMPDEST JUMPDEST PUSH1 0x1 PUSH1 0x0 PUSH1 0x2 DUP5 DUP2 SLOAD DUP2 LT PUSH2 0x24A0 JUMPI PUSH2 0x249F PUSH2 0x5988 JUMP JUMPDEST JUMPDEST SWAP1 PUSH1 0x0 MSTORE PUSH1 0x20 PUSH1 0x0 KECCAK256 ADD PUSH1 0x0 SWAP1 SLOAD SWAP1 PUSH2 0x100 EXP SWAP1 DIV PUSH20 0xFFFFFFFFFFFFFFFFFFFFFFFFFFFFFFFFFFFFFFFF AND PUSH20 0xFFFFFFFFFFFFFFFFFFFFFFFFFFFFFFFFFFFFFFFF AND PUSH20 0xFFFFFFFFFFFFFFFFFFFFFFFFFFFFFFFFFFFFFFFF AND DUP2 MSTORE PUSH1 0x20 ADD SWAP1 DUP2 MSTORE PUSH1 0x20 ADD PUSH1 0x0 KECCAK256 PUSH1 0x2 ADD PUSH1 0x1 SWAP1 SLOAD SWAP1 PUSH2 0x100 EXP SWAP1 DIV PUSH1 0xFF AND PUSH1 0x2 DUP2 GT ISZERO PUSH2 0x2528 JUMPI PUSH2 0x2527 PUSH2 0x592A JUMP JUMPDEST JUMPDEST EQ ISZERO PUSH2 0x28F8 JUMPI PUSH1 0x1 PUSH1 0x0 PUSH1 0x2 DUP4 DUP2 SLOAD DUP2 LT PUSH2 0x2546 JUMPI PUSH2 0x2545 PUSH2 0x5988 JUMP JUMPDEST JUMPDEST SWAP1 PUSH1 0x0 MSTORE PUSH1 0x20 PUSH1 0x0 KECCAK256 ADD PUSH1 0x0 SWAP1 SLOAD SWAP1 PUSH2 0x100 EXP SWAP1 DIV PUSH20 0xFFFFFFFFFFFFFFFFFFFFFFFFFFFFFFFFFFFFFFFF AND PUSH20 0xFFFFFFFFFFFFFFFFFFFFFFFFFFFFFFFFFFFFFFFF AND PUSH20 0xFFFFFFFFFFFFFFFFFFFFFFFFFFFFFFFFFFFFFFFF AND DUP2 MSTORE PUSH1 0x20 ADD SWAP1 DUP2 MSTORE PUSH1 0x20 ADD PUSH1 0x0 KECCAK256 PUSH1 0x40 MLOAD DUP1 PUSH1 0xE0 ADD PUSH1 0x40 MSTORE SWAP1 DUP2 PUSH1 0x0 DUP3 ADD DUP1 SLOAD PUSH2 0x25C6 SWAP1 PUSH2 0x584F JUMP JUMPDEST DUP1 PUSH1 0x1F ADD PUSH1 0x20 DUP1 SWAP2 DIV MUL PUSH1 0x20 ADD PUSH1 0x40 MLOAD SWAP1 DUP2 ADD PUSH1 0x40 MSTORE DUP1 SWAP3 SWAP2 SWAP1 DUP2 DUP2 MSTORE PUSH1 0x20 ADD DUP3 DUP1 SLOAD PUSH2 0x25F2 SWAP1 PUSH2 0x584F JUMP JUMPDEST DUP1 ISZERO PUSH2 0x263F JUMPI DUP1 PUSH1 0x1F LT PUSH2 0x2614 JUMPI PUSH2 0x100 DUP1 DUP4 SLOAD DIV MUL DUP4 MSTORE SWAP2 PUSH1 0x20 ADD SWAP2 PUSH2 0x263F JUMP JUMPDEST DUP3 ADD SWAP2 SWAP1 PUSH1 0x0 MSTORE PUSH1 0x20 PUSH1 0x0 KECCAK256 SWAP1 JUMPDEST DUP2 SLOAD DUP2 MSTORE SWAP1 PUSH1 0x1 ADD SWAP1 PUSH1 0x20 ADD DUP1 DUP4 GT PUSH2 0x2622 JUMPI DUP3 SWAP1 SUB PUSH1 0x1F AND DUP3 ADD SWAP2 JUMPDEST POP POP POP POP POP DUP2 MSTORE PUSH1 0x20 ADD PUSH1 0x1 DUP3 ADD DUP1 SLOAD PUSH2 0x2658 SWAP1 PUSH2 0x584F JUMP JUMPDEST DUP1 PUSH1 0x1F ADD PUSH1 0x20 DUP1 SWAP2 DIV MUL PUSH1 0x20 ADD PUSH1 0x40 MLOAD SWAP1 DUP2 ADD PUSH1 0x40 MSTORE DUP1 SWAP3 SWAP2 SWAP1 DUP2 DUP2 MSTORE PUSH1 0x20 ADD DUP3 DUP1 SLOAD PUSH2 0x2684 SWAP1 PUSH2 0x584F JUMP JUMPDEST DUP1 ISZERO PUSH2 0x26D1 JUMPI DUP1 PUSH1 0x1F LT PUSH2 0x26A6 JUMPI PUSH2 0x100 DUP1 DUP4 SLOAD DIV MUL DUP4 MSTORE SWAP2 PUSH1 0x20 ADD SWAP2 PUSH2 0x26D1 JUMP JUMPDEST DUP3 ADD SWAP2 SWAP1 PUSH1 0x0 MSTORE PUSH1 0x20 PUSH1 0x0 KECCAK256 SWAP1 JUMPDEST DUP2 SLOAD DUP2 MSTORE SWAP1 PUSH1 0x1 ADD SWAP1 PUSH1 0x20 ADD DUP1 DUP4 GT PUSH2 0x26B4 JUMPI DUP3 SWAP1 SUB PUSH1 0x1F AND DUP3 ADD SWAP2 JUMPDEST POP POP POP POP POP DUP2 MSTORE PUSH1 0x20 ADD PUSH1 0x2 DUP3 ADD PUSH1 0x0 SWAP1 SLOAD SWAP1 PUSH2 0x100 EXP SWAP1 DIV PUSH1 0xFF AND PUSH1 0x8 DUP2 GT ISZERO PUSH2 0x26FF JUMPI PUSH2 0x26FE PUSH2 0x592A JUMP JUMPDEST JUMPDEST PUSH1 0x8 DUP2 GT ISZERO PUSH2 0x2711 JUMPI PUSH2 0x2710 PUSH2 0x592A JUMP JUMPDEST JUMPDEST DUP2 MSTORE PUSH1 0x20 ADD PUSH1 0x2 DUP3 ADD PUSH1 0x1 SWAP1 SLOAD SWAP1 PUSH2 0x100 EXP SWAP1 DIV PUSH1 0xFF AND PUSH1 0x2 DUP2 GT ISZERO PUSH2 0x273A JUMPI PUSH2 0x2739 PUSH2 0x592A JUMP JUMPDEST JUMPDEST PUSH1 0x2 DUP2 GT ISZERO PUSH2 0x274C JUMPI PUSH2 0x274B PUSH2 0x592A JUMP JUMPDEST JUMPDEST DUP2 MSTORE PUSH1 0x20 ADD PUSH1 0x3 DUP3 ADD DUP1 SLOAD PUSH2 0x2760 SWAP1 PUSH2 0x584F JUMP JUMPDEST DUP1 PUSH1 0x1F ADD PUSH1 0x20 DUP1 SWAP2 DIV MUL PUSH1 0x20 ADD PUSH1 0x40 MLOAD SWAP1 DUP2 ADD PUSH1 0x40 MSTORE DUP1 SWAP3 SWAP2 SWAP1 DUP2 DUP2 MSTORE PUSH1 0x20 ADD DUP3 DUP1 SLOAD PUSH2 0x278C SWAP1 PUSH2 0x584F JUMP JUMPDEST DUP1 ISZERO PUSH2 0x27D9 JUMPI DUP1 PUSH1 0x1F LT PUSH2 0x27AE JUMPI PUSH2 0x100 DUP1 DUP4 SLOAD DIV MUL DUP4 MSTORE SWAP2 PUSH1 0x20 ADD SWAP2 PUSH2 0x27D9 JUMP JUMPDEST DUP3 ADD SWAP2 SWAP1 PUSH1 0x0 MSTORE PUSH1 0x20 PUSH1 0x0 KECCAK256 SWAP1 JUMPDEST DUP2 SLOAD DUP2 MSTORE SWAP1 PUSH1 0x1 ADD SWAP1 PUSH1 0x20 ADD DUP1 DUP4 GT PUSH2 0x27BC JUMPI DUP3 SWAP1 SUB PUSH1 0x1F AND DUP3 ADD SWAP2 JUMPDEST POP POP POP POP POP DUP2 MSTORE PUSH1 0x20 ADD PUSH1 0x4 DUP3 ADD DUP1 SLOAD PUSH2 0x27F2 SWAP1 PUSH2 0x584F JUMP JUMPDEST DUP1 PUSH1 0x1F ADD PUSH1 0x20 DUP1 SWAP2 DIV MUL PUSH1 0x20 ADD PUSH1 0x40 MLOAD SWAP1 DUP2 ADD PUSH1 0x40 MSTORE DUP1 SWAP3 SWAP2 SWAP1 DUP2 DUP2 MSTORE PUSH1 0x20 ADD DUP3 DUP1 SLOAD PUSH2 0x281E SWAP1 PUSH2 0x584F JUMP JUMPDEST DUP1 ISZERO PUSH2 0x286B JUMPI DUP1 PUSH1 0x1F LT PUSH2 0x2840 JUMPI PUSH2 0x100 DUP1 DUP4 SLOAD DIV MUL DUP4 MSTORE SWAP2 PUSH1 0x20 ADD SWAP2 PUSH2 0x286B JUMP JUMPDEST DUP3 ADD SWAP2 SWAP1 PUSH1 0x0 MSTORE PUSH1 0x20 PUSH1 0x0 KECCAK256 SWAP1 JUMPDEST DUP2 SLOAD DUP2 MSTORE SWAP1 PUSH1 0x1 ADD SWAP1 PUSH1 0x20 ADD DUP1 DUP4 GT PUSH2 0x284E JUMPI DUP3 SWAP1 SUB PUSH1 0x1F AND DUP3 ADD SWAP2 JUMPDEST POP POP POP POP POP DUP2 MSTORE PUSH1 0x20 ADD PUSH1 0x5 DUP3 ADD PUSH1 0x0 SWAP1 SLOAD SWAP1 PUSH2 0x100 EXP SWAP1 DIV PUSH20 0xFFFFFFFFFFFFFFFFFFFFFFFFFFFFFFFFFFFFFFFF AND PUSH20 0xFFFFFFFFFFFFFFFFFFFFFFFFFFFFFFFFFFFFFFFF AND PUSH20 0xFFFFFFFFFFFFFFFFFFFFFFFFFFFFFFFFFFFFFFFF AND DUP2 MSTORE POP POP DUP4 DUP4 DUP2 MLOAD DUP2 LT PUSH2 0x28DD JUMPI PUSH2 0x28DC PUSH2 0x5988 JUMP JUMPDEST JUMPDEST PUSH1 0x20 MUL PUSH1 0x20 ADD ADD DUP2 SWAP1 MSTORE POP PUSH1 0x1 DUP3 PUSH2 0x28F5 SWAP2 SWAP1 PUSH2 0x56F1 JUMP JUMPDEST SWAP2 POP JUMPDEST DUP1 DUP1 PUSH2 0x2903 SWAP1 PUSH2 0x58B2 JUMP JUMPDEST SWAP2 POP POP PUSH2 0x246D JUMP JUMPDEST POP DUP1 PUSH8 0xFFFFFFFFFFFFFFFF DUP2 GT ISZERO PUSH2 0x2926 JUMPI PUSH2 0x2925 PUSH2 0x59B7 JUMP JUMPDEST JUMPDEST PUSH1 0x40 MLOAD SWAP1 DUP1 DUP3 MSTORE DUP1 PUSH1 0x20 MUL PUSH1 0x20 ADD DUP3 ADD PUSH1 0x40 MSTORE DUP1 ISZERO PUSH2 0x295F JUMPI DUP2 PUSH1 0x20 ADD JUMPDEST PUSH2 0x294C PUSH2 0x4503 JUMP JUMPDEST DUP2 MSTORE PUSH1 0x20 ADD SWAP1 PUSH1 0x1 SWAP1 SUB SWAP1 DUP2 PUSH2 0x2944 JUMPI SWAP1 POP JUMPDEST POP SWAP4 POP PUSH1 0x0 JUMPDEST DUP2 DUP2 LT ISZERO PUSH2 0x29B9 JUMPI DUP3 DUP2 DUP2 MLOAD DUP2 LT PUSH2 0x2980 JUMPI PUSH2 0x297F PUSH2 0x5988 JUMP JUMPDEST JUMPDEST PUSH1 0x20 MUL PUSH1 0x20 ADD ADD MLOAD DUP6 DUP3 DUP2 MLOAD DUP2 LT PUSH2 0x299B JUMPI PUSH2 0x299A PUSH2 0x5988 JUMP JUMPDEST JUMPDEST PUSH1 0x20 MUL PUSH1 0x20 ADD ADD DUP2 SWAP1 MSTORE POP DUP1 DUP1 PUSH2 0x29B1 SWAP1 PUSH2 0x58B2 JUMP JUMPDEST SWAP2 POP POP PUSH2 0x2965 JUMP JUMPDEST POP POP POP POP SWAP2 SWAP1 POP JUMP JUMPDEST PUSH1 0x60 PUSH1 0x0 DUP1 PUSH1 0x5 DUP1 SLOAD SWAP1 POP PUSH8 0xFFFFFFFFFFFFFFFF DUP2 GT ISZERO PUSH2 0x29E6 JUMPI PUSH2 0x29E5 PUSH2 0x59B7 JUMP JUMPDEST JUMPDEST PUSH1 0x40 MLOAD SWAP1 DUP1 DUP3 MSTORE DUP1 PUSH1 0x20 MUL PUSH1 0x20 ADD DUP3 ADD PUSH1 0x40 MSTORE DUP1 ISZERO PUSH2 0x2A1F JUMPI DUP2 PUSH1 0x20 ADD JUMPDEST PUSH2 0x2A0C PUSH2 0x457A JUMP JUMPDEST DUP2 MSTORE PUSH1 0x20 ADD SWAP1 PUSH1 0x1 SWAP1 SUB SWAP1 DUP2 PUSH2 0x2A04 JUMPI SWAP1 POP JUMPDEST POP SWAP1 POP PUSH1 0x0 JUMPDEST PUSH1 0x5 DUP1 SLOAD SWAP1 POP DUP2 LT ISZERO PUSH2 0x2D06 JUMPI DUP5 PUSH20 0xFFFFFFFFFFFFFFFFFFFFFFFFFFFFFFFFFFFFFFFF AND PUSH1 0x5 DUP3 DUP2 SLOAD DUP2 LT PUSH2 0x2A5D JUMPI PUSH2 0x2A5C PUSH2 0x5988 JUMP JUMPDEST JUMPDEST SWAP1 PUSH1 0x0 MSTORE PUSH1 0x20 PUSH1 0x0 KECCAK256 SWAP1 PUSH1 0x7 MUL ADD PUSH1 0x4 ADD PUSH1 0x0 SWAP1 SLOAD SWAP1 PUSH2 0x100 EXP SWAP1 DIV PUSH20 0xFFFFFFFFFFFFFFFFFFFFFFFFFFFFFFFFFFFFFFFF AND PUSH20 0xFFFFFFFFFFFFFFFFFFFFFFFFFFFFFFFFFFFFFFFF AND EQ ISZERO PUSH2 0x2CF3 JUMPI PUSH1 0x5 DUP2 DUP2 SLOAD DUP2 LT PUSH2 0x2ABF JUMPI PUSH2 0x2ABE PUSH2 0x5988 JUMP JUMPDEST JUMPDEST SWAP1 PUSH1 0x0 MSTORE PUSH1 0x20 PUSH1 0x0 KECCAK256 SWAP1 PUSH1 0x7 MUL ADD PUSH1 0x40 MLOAD DUP1 PUSH1 0xE0 ADD PUSH1 0x40 MSTORE SWAP1 DUP2 PUSH1 0x0 DUP3 ADD DUP1 SLOAD PUSH2 0x2AE8 SWAP1 PUSH2 0x584F JUMP JUMPDEST DUP1 PUSH1 0x1F ADD PUSH1 0x20 DUP1 SWAP2 DIV MUL PUSH1 0x20 ADD PUSH1 0x40 MLOAD SWAP1 DUP2 ADD PUSH1 0x40 MSTORE DUP1 SWAP3 SWAP2 SWAP1 DUP2 DUP2 MSTORE PUSH1 0x20 ADD DUP3 DUP1 SLOAD PUSH2 0x2B14 SWAP1 PUSH2 0x584F JUMP JUMPDEST DUP1 ISZERO PUSH2 0x2B61 JUMPI DUP1 PUSH1 0x1F LT PUSH2 0x2B36 JUMPI PUSH2 0x100 DUP1 DUP4 SLOAD DIV MUL DUP4 MSTORE SWAP2 PUSH1 0x20 ADD SWAP2 PUSH2 0x2B61 JUMP JUMPDEST DUP3 ADD SWAP2 SWAP1 PUSH1 0x0 MSTORE PUSH1 0x20 PUSH1 0x0 KECCAK256 SWAP1 JUMPDEST DUP2 SLOAD DUP2 MSTORE SWAP1 PUSH1 0x1 ADD SWAP1 PUSH1 0x20 ADD DUP1 DUP4 GT PUSH2 0x2B44 JUMPI DUP3 SWAP1 SUB PUSH1 0x1F AND DUP3 ADD SWAP2 JUMPDEST POP POP POP POP POP DUP2 MSTORE PUSH1 0x20 ADD PUSH1 0x1 DUP3 ADD DUP1 SLOAD PUSH2 0x2B7A SWAP1 PUSH2 0x584F JUMP JUMPDEST DUP1 PUSH1 0x1F ADD PUSH1 0x20 DUP1 SWAP2 DIV MUL PUSH1 0x20 ADD PUSH1 0x40 MLOAD SWAP1 DUP2 ADD PUSH1 0x40 MSTORE DUP1 SWAP3 SWAP2 SWAP1 DUP2 DUP2 MSTORE PUSH1 0x20 ADD DUP3 DUP1 SLOAD PUSH2 0x2BA6 SWAP1 PUSH2 0x584F JUMP JUMPDEST DUP1 ISZERO PUSH2 0x2BF3 JUMPI DUP1 PUSH1 0x1F LT PUSH2 0x2BC8 JUMPI PUSH2 0x100 DUP1 DUP4 SLOAD DIV MUL DUP4 MSTORE SWAP2 PUSH1 0x20 ADD SWAP2 PUSH2 0x2BF3 JUMP JUMPDEST DUP3 ADD SWAP2 SWAP1 PUSH1 0x0 MSTORE PUSH1 0x20 PUSH1 0x0 KECCAK256 SWAP1 JUMPDEST DUP2 SLOAD DUP2 MSTORE SWAP1 PUSH1 0x1 ADD SWAP1 PUSH1 0x20 ADD DUP1 DUP4 GT PUSH2 0x2BD6 JUMPI DUP3 SWAP1 SUB PUSH1 0x1F AND DUP3 ADD SWAP2 JUMPDEST POP POP POP POP POP DUP2 MSTORE PUSH1 0x20 ADD PUSH1 0x2 DUP3 ADD SLOAD DUP2 MSTORE PUSH1 0x20 ADD PUSH1 0x3 DUP3 ADD PUSH1 0x0 SWAP1 SLOAD SWAP1 PUSH2 0x100 EXP SWAP1 DIV PUSH20 0xFFFFFFFFFFFFFFFFFFFFFFFFFFFFFFFFFFFFFFFF AND PUSH20 0xFFFFFFFFFFFFFFFFFFFFFFFFFFFFFFFFFFFFFFFF AND PUSH20 0xFFFFFFFFFFFFFFFFFFFFFFFFFFFFFFFFFFFFFFFF AND DUP2 MSTORE PUSH1 0x20 ADD PUSH1 0x4 DUP3 ADD PUSH1 0x0 SWAP1 SLOAD SWAP1 PUSH2 0x100 EXP SWAP1 DIV PUSH20 0xFFFFFFFFFFFFFFFFFFFFFFFFFFFFFFFFFFFFFFFF AND PUSH20 0xFFFFFFFFFFFFFFFFFFFFFFFFFFFFFFFFFFFFFFFF AND PUSH20 0xFFFFFFFFFFFFFFFFFFFFFFFFFFFFFFFFFFFFFFFF AND DUP2 MSTORE PUSH1 0x20 ADD PUSH1 0x5 DUP3 ADD SLOAD DUP2 MSTORE PUSH1 0x20 ADD PUSH1 0x6 DUP3 ADD SLOAD DUP2 MSTORE POP POP DUP3 DUP5 DUP2 MLOAD DUP2 LT PUSH2 0x2CD9 JUMPI PUSH2 0x2CD8 PUSH2 0x5988 JUMP JUMPDEST JUMPDEST PUSH1 0x20 MUL PUSH1 0x20 ADD ADD DUP2 SWAP1 MSTORE POP DUP3 DUP1 PUSH2 0x2CEF SWAP1 PUSH2 0x58B2 JUMP JUMPDEST SWAP4 POP POP JUMPDEST DUP1 DUP1 PUSH2 0x2CFE SWAP1 PUSH2 0x58B2 JUMP JUMPDEST SWAP2 POP POP PUSH2 0x2A25 JUMP JUMPDEST POP DUP2 PUSH8 0xFFFFFFFFFFFFFFFF DUP2 GT ISZERO PUSH2 0x2D21 JUMPI PUSH2 0x2D20 PUSH2 0x59B7 JUMP JUMPDEST JUMPDEST PUSH1 0x40 MLOAD SWAP1 DUP1 DUP3 MSTORE DUP1 PUSH1 0x20 MUL PUSH1 0x20 ADD DUP3 ADD PUSH1 0x40 MSTORE DUP1 ISZERO PUSH2 0x2D5A JUMPI DUP2 PUSH1 0x20 ADD JUMPDEST PUSH2 0x2D47 PUSH2 0x45E3 JUMP JUMPDEST DUP2 MSTORE PUSH1 0x20 ADD SWAP1 PUSH1 0x1 SWAP1 SUB SWAP1 DUP2 PUSH2 0x2D3F JUMPI SWAP1 POP JUMPDEST POP SWAP3 POP PUSH1 0x0 DUP3 GT ISZERO PUSH2 0x3335 JUMPI PUSH1 0x0 JUMPDEST DUP3 DUP2 LT ISZERO PUSH2 0x3333 JUMPI DUP2 DUP2 DUP2 MLOAD DUP2 LT PUSH2 0x2D84 JUMPI PUSH2 0x2D83 PUSH2 0x5988 JUMP JUMPDEST JUMPDEST PUSH1 0x20 MUL PUSH1 0x20 ADD ADD MLOAD PUSH1 0x0 ADD MLOAD DUP5 DUP3 DUP2 MLOAD DUP2 LT PUSH2 0x2DA3 JUMPI PUSH2 0x2DA2 PUSH2 0x5988 JUMP JUMPDEST JUMPDEST PUSH1 0x20 MUL PUSH1 0x20 ADD ADD MLOAD PUSH1 0x0 ADD DUP2 SWAP1 MSTORE POP DUP2 DUP2 DUP2 MLOAD DUP2 LT PUSH2 0x2DC5 JUMPI PUSH2 0x2DC4 PUSH2 0x5988 JUMP JUMPDEST JUMPDEST PUSH1 0x20 MUL PUSH1 0x20 ADD ADD MLOAD PUSH1 0x20 ADD MLOAD DUP5 DUP3 DUP2 MLOAD DUP2 LT PUSH2 0x2DE4 JUMPI PUSH2 0x2DE3 PUSH2 0x5988 JUMP JUMPDEST JUMPDEST PUSH1 0x20 MUL PUSH1 0x20 ADD ADD MLOAD PUSH1 0x20 ADD DUP2 SWAP1 MSTORE POP DUP2 DUP2 DUP2 MLOAD DUP2 LT PUSH2 0x2E06 JUMPI PUSH2 0x2E05 PUSH2 0x5988 JUMP JUMPDEST JUMPDEST PUSH1 0x20 MUL PUSH1 0x20 ADD ADD MLOAD PUSH1 0x40 ADD MLOAD DUP5 DUP3 DUP2 MLOAD DUP2 LT PUSH2 0x2E25 JUMPI PUSH2 0x2E24 PUSH2 0x5988 JUMP JUMPDEST JUMPDEST PUSH1 0x20 MUL PUSH1 0x20 ADD ADD MLOAD PUSH1 0x40 ADD DUP2 DUP2 MSTORE POP POP DUP2 DUP2 DUP2 MLOAD DUP2 LT PUSH2 0x2E48 JUMPI PUSH2 0x2E47 PUSH2 0x5988 JUMP JUMPDEST JUMPDEST PUSH1 0x20 MUL PUSH1 0x20 ADD ADD MLOAD PUSH1 0x60 ADD MLOAD DUP5 DUP3 DUP2 MLOAD DUP2 LT PUSH2 0x2E67 JUMPI PUSH2 0x2E66 PUSH2 0x5988 JUMP JUMPDEST JUMPDEST PUSH1 0x20 MUL PUSH1 0x20 ADD ADD MLOAD PUSH1 0x60 ADD SWAP1 PUSH20 0xFFFFFFFFFFFFFFFFFFFFFFFFFFFFFFFFFFFFFFFF AND SWAP1 DUP2 PUSH20 0xFFFFFFFFFFFFFFFFFFFFFFFFFFFFFFFFFFFFFFFF AND DUP2 MSTORE POP POP PUSH1 0x1 PUSH1 0x0 DUP4 DUP4 DUP2 MLOAD DUP2 LT PUSH2 0x2EBC JUMPI PUSH2 0x2EBB PUSH2 0x5988 JUMP JUMPDEST JUMPDEST PUSH1 0x20 MUL PUSH1 0x20 ADD ADD MLOAD PUSH1 0x60 ADD MLOAD PUSH20 0xFFFFFFFFFFFFFFFFFFFFFFFFFFFFFFFFFFFFFFFF AND PUSH20 0xFFFFFFFFFFFFFFFFFFFFFFFFFFFFFFFFFFFFFFFF AND DUP2 MSTORE PUSH1 0x20 ADD SWAP1 DUP2 MSTORE PUSH1 0x20 ADD PUSH1 0x0 KECCAK256 PUSH1 0x1 ADD DUP1 SLOAD PUSH2 0x2F10 SWAP1 PUSH2 0x584F JUMP JUMPDEST DUP1 PUSH1 0x1F ADD PUSH1 0x20 DUP1 SWAP2 DIV MUL PUSH1 0x20 ADD PUSH1 0x40 MLOAD SWAP1 DUP2 ADD PUSH1 0x40 MSTORE DUP1 SWAP3 SWAP2 SWAP1 DUP2 DUP2 MSTORE PUSH1 0x20 ADD DUP3 DUP1 SLOAD PUSH2 0x2F3C SWAP1 PUSH2 0x584F JUMP JUMPDEST DUP1 ISZERO PUSH2 0x2F89 JUMPI DUP1 PUSH1 0x1F LT PUSH2 0x2F5E JUMPI PUSH2 0x100 DUP1 DUP4 SLOAD DIV MUL DUP4 MSTORE SWAP2 PUSH1 0x20 ADD SWAP2 PUSH2 0x2F89 JUMP JUMPDEST DUP3 ADD SWAP2 SWAP1 PUSH1 0x0 MSTORE PUSH1 0x20 PUSH1 0x0 KECCAK256 SWAP1 JUMPDEST DUP2 SLOAD DUP2 MSTORE SWAP1 PUSH1 0x1 ADD SWAP1 PUSH1 0x20 ADD DUP1 DUP4 GT PUSH2 0x2F6C JUMPI DUP3 SWAP1 SUB PUSH1 0x1F AND DUP3 ADD SWAP2 JUMPDEST POP POP POP POP POP DUP5 DUP3 DUP2 MLOAD DUP2 LT PUSH2 0x2FA1 JUMPI PUSH2 0x2FA0 PUSH2 0x5988 JUMP JUMPDEST JUMPDEST PUSH1 0x20 MUL PUSH1 0x20 ADD ADD MLOAD PUSH1 0x80 ADD DUP2 SWAP1 MSTORE POP PUSH1 0x1 PUSH1 0x0 DUP4 DUP4 DUP2 MLOAD DUP2 LT PUSH2 0x2FC7 JUMPI PUSH2 0x2FC6 PUSH2 0x5988 JUMP JUMPDEST JUMPDEST PUSH1 0x20 MUL PUSH1 0x20 ADD ADD MLOAD PUSH1 0x60 ADD MLOAD PUSH20 0xFFFFFFFFFFFFFFFFFFFFFFFFFFFFFFFFFFFFFFFF AND PUSH20 0xFFFFFFFFFFFFFFFFFFFFFFFFFFFFFFFFFFFFFFFF AND DUP2 MSTORE PUSH1 0x20 ADD SWAP1 DUP2 MSTORE PUSH1 0x20 ADD PUSH1 0x0 KECCAK256 PUSH1 0x2 ADD PUSH1 0x0 SWAP1 SLOAD SWAP1 PUSH2 0x100 EXP SWAP1 DIV PUSH1 0xFF AND DUP5 DUP3 DUP2 MLOAD DUP2 LT PUSH2 0x3031 JUMPI PUSH2 0x3030 PUSH2 0x5988 JUMP JUMPDEST JUMPDEST PUSH1 0x20 MUL PUSH1 0x20 ADD ADD MLOAD PUSH1 0xA0 ADD SWAP1 PUSH1 0x8 DUP2 GT ISZERO PUSH2 0x304F JUMPI PUSH2 0x304E PUSH2 0x592A JUMP JUMPDEST JUMPDEST SWAP1 DUP2 PUSH1 0x8 DUP2 GT ISZERO PUSH2 0x3063 JUMPI PUSH2 0x3062 PUSH2 0x592A JUMP JUMPDEST JUMPDEST DUP2 MSTORE POP POP DUP2 DUP2 DUP2 MLOAD DUP2 LT PUSH2 0x307A JUMPI PUSH2 0x3079 PUSH2 0x5988 JUMP JUMPDEST JUMPDEST PUSH1 0x20 MUL PUSH1 0x20 ADD ADD MLOAD PUSH1 0x80 ADD MLOAD DUP5 DUP3 DUP2 MLOAD DUP2 LT PUSH2 0x3099 JUMPI PUSH2 0x3098 PUSH2 0x5988 JUMP JUMPDEST JUMPDEST PUSH1 0x20 MUL PUSH1 0x20 ADD ADD MLOAD PUSH1 0xC0 ADD SWAP1 PUSH20 0xFFFFFFFFFFFFFFFFFFFFFFFFFFFFFFFFFFFFFFFF AND SWAP1 DUP2 PUSH20 0xFFFFFFFFFFFFFFFFFFFFFFFFFFFFFFFFFFFFFFFF AND DUP2 MSTORE POP POP PUSH1 0x1 PUSH1 0x0 DUP4 DUP4 DUP2 MLOAD DUP2 LT PUSH2 0x30EE JUMPI PUSH2 0x30ED PUSH2 0x5988 JUMP JUMPDEST JUMPDEST PUSH1 0x20 MUL PUSH1 0x20 ADD ADD MLOAD PUSH1 0x80 ADD MLOAD PUSH20 0xFFFFFFFFFFFFFFFFFFFFFFFFFFFFFFFFFFFFFFFF AND PUSH20 0xFFFFFFFFFFFFFFFFFFFFFFFFFFFFFFFFFFFFFFFF AND DUP2 MSTORE PUSH1 0x20 ADD SWAP1 DUP2 MSTORE PUSH1 0x20 ADD PUSH1 0x0 KECCAK256 PUSH1 0x1 ADD DUP1 SLOAD PUSH2 0x3142 SWAP1 PUSH2 0x584F JUMP JUMPDEST DUP1 PUSH1 0x1F ADD PUSH1 0x20 DUP1 SWAP2 DIV MUL PUSH1 0x20 ADD PUSH1 0x40 MLOAD SWAP1 DUP2 ADD PUSH1 0x40 MSTORE DUP1 SWAP3 SWAP2 SWAP1 DUP2 DUP2 MSTORE PUSH1 0x20 ADD DUP3 DUP1 SLOAD PUSH2 0x316E SWAP1 PUSH2 0x584F JUMP JUMPDEST DUP1 ISZERO PUSH2 0x31BB JUMPI DUP1 PUSH1 0x1F LT PUSH2 0x3190 JUMPI PUSH2 0x100 DUP1 DUP4 SLOAD DIV MUL DUP4 MSTORE SWAP2 PUSH1 0x20 ADD SWAP2 PUSH2 0x31BB JUMP JUMPDEST DUP3 ADD SWAP2 SWAP1 PUSH1 0x0 MSTORE PUSH1 0x20 PUSH1 0x0 KECCAK256 SWAP1 JUMPDEST DUP2 SLOAD DUP2 MSTORE SWAP1 PUSH1 0x1 ADD SWAP1 PUSH1 0x20 ADD DUP1 DUP4 GT PUSH2 0x319E JUMPI DUP3 SWAP1 SUB PUSH1 0x1F AND DUP3 ADD SWAP2 JUMPDEST POP POP POP POP POP DUP5 DUP3 DUP2 MLOAD DUP2 LT PUSH2 0x31D3 JUMPI PUSH2 0x31D2 PUSH2 0x5988 JUMP JUMPDEST JUMPDEST PUSH1 0x20 MUL PUSH1 0x20 ADD ADD MLOAD PUSH1 0xE0 ADD DUP2 SWAP1 MSTORE POP PUSH1 0x1 PUSH1 0x0 DUP4 DUP4 DUP2 MLOAD DUP2 LT PUSH2 0x31F9 JUMPI PUSH2 0x31F8 PUSH2 0x5988 JUMP JUMPDEST JUMPDEST PUSH1 0x20 MUL PUSH1 0x20 ADD ADD MLOAD PUSH1 0x80 ADD MLOAD PUSH20 0xFFFFFFFFFFFFFFFFFFFFFFFFFFFFFFFFFFFFFFFF AND PUSH20 0xFFFFFFFFFFFFFFFFFFFFFFFFFFFFFFFFFFFFFFFF AND DUP2 MSTORE PUSH1 0x20 ADD SWAP1 DUP2 MSTORE PUSH1 0x20 ADD PUSH1 0x0 KECCAK256 PUSH1 0x2 ADD PUSH1 0x0 SWAP1 SLOAD SWAP1 PUSH2 0x100 EXP SWAP1 DIV PUSH1 0xFF AND DUP5 DUP3 DUP2 MLOAD DUP2 LT PUSH2 0x3263 JUMPI PUSH2 0x3262 PUSH2 0x5988 JUMP JUMPDEST JUMPDEST PUSH1 0x20 MUL PUSH1 0x20 ADD ADD MLOAD PUSH2 0x100 ADD SWAP1 PUSH1 0x8 DUP2 GT ISZERO PUSH2 0x3282 JUMPI PUSH2 0x3281 PUSH2 0x592A JUMP JUMPDEST JUMPDEST SWAP1 DUP2 PUSH1 0x8 DUP2 GT ISZERO PUSH2 0x3296 JUMPI PUSH2 0x3295 PUSH2 0x592A JUMP JUMPDEST JUMPDEST DUP2 MSTORE POP POP DUP2 DUP2 DUP2 MLOAD DUP2 LT PUSH2 0x32AD JUMPI PUSH2 0x32AC PUSH2 0x5988 JUMP JUMPDEST JUMPDEST PUSH1 0x20 MUL PUSH1 0x20 ADD ADD MLOAD PUSH1 0xA0 ADD MLOAD DUP5 DUP3 DUP2 MLOAD DUP2 LT PUSH2 0x32CC JUMPI PUSH2 0x32CB PUSH2 0x5988 JUMP JUMPDEST JUMPDEST PUSH1 0x20 MUL PUSH1 0x20 ADD ADD MLOAD PUSH2 0x120 ADD DUP2 DUP2 MSTORE POP POP DUP2 DUP2 DUP2 MLOAD DUP2 LT PUSH2 0x32F0 JUMPI PUSH2 0x32EF PUSH2 0x5988 JUMP JUMPDEST JUMPDEST PUSH1 0x20 MUL PUSH1 0x20 ADD ADD MLOAD PUSH1 0xC0 ADD MLOAD DUP5 DUP3 DUP2 MLOAD DUP2 LT PUSH2 0x330F JUMPI PUSH2 0x330E PUSH2 0x5988 JUMP JUMPDEST JUMPDEST PUSH1 0x20 MUL PUSH1 0x20 ADD ADD MLOAD PUSH2 0x140 ADD DUP2 DUP2 MSTORE POP POP DUP1 DUP1 PUSH2 0x332B SWAP1 PUSH2 0x58B2 JUMP JUMPDEST SWAP2 POP POP PUSH2 0x2D69 JUMP JUMPDEST POP JUMPDEST POP POP SWAP2 SWAP1 POP JUMP JUMPDEST PUSH1 0x60 PUSH1 0x0 PUSH1 0x4 DUP1 SLOAD SWAP1 POP SWAP1 POP PUSH1 0x0 DUP2 PUSH8 0xFFFFFFFFFFFFFFFF DUP2 GT ISZERO PUSH2 0x3364 JUMPI PUSH2 0x3363 PUSH2 0x59B7 JUMP JUMPDEST JUMPDEST PUSH1 0x40 MLOAD SWAP1 DUP1 DUP3 MSTORE DUP1 PUSH1 0x20 MUL PUSH1 0x20 ADD DUP3 ADD PUSH1 0x40 MSTORE DUP1 ISZERO PUSH2 0x339D JUMPI DUP2 PUSH1 0x20 ADD JUMPDEST PUSH2 0x338A PUSH2 0x468D JUMP JUMPDEST DUP2 MSTORE PUSH1 0x20 ADD SWAP1 PUSH1 0x1 SWAP1 SUB SWAP1 DUP2 PUSH2 0x3382 JUMPI SWAP1 POP JUMPDEST POP SWAP1 POP PUSH1 0x0 DUP1 PUSH1 0x0 SWAP1 POP JUMPDEST DUP4 DUP2 LT ISZERO PUSH2 0x3663 JUMPI DUP6 PUSH1 0x2 DUP2 GT ISZERO PUSH2 0x33C3 JUMPI PUSH2 0x33C2 PUSH2 0x592A JUMP JUMPDEST JUMPDEST PUSH1 0x3 PUSH1 0x4 DUP4 DUP2 SLOAD DUP2 LT PUSH2 0x33D9 JUMPI PUSH2 0x33D8 PUSH2 0x5988 JUMP JUMPDEST JUMPDEST SWAP1 PUSH1 0x0 MSTORE PUSH1 0x20 PUSH1 0x0 KECCAK256 ADD PUSH1 0x40 MLOAD PUSH2 0x33F0 SWAP2 SWAP1 PUSH2 0x530C JUMP JUMPDEST SWAP1 DUP2 MSTORE PUSH1 0x20 ADD PUSH1 0x40 MLOAD DUP1 SWAP2 SUB SWAP1 KECCAK256 PUSH1 0x1 ADD PUSH1 0x14 SWAP1 SLOAD SWAP1 PUSH2 0x100 EXP SWAP1 DIV PUSH1 0xFF AND PUSH1 0x2 DUP2 GT ISZERO PUSH2 0x3421 JUMPI PUSH2 0x3420 PUSH2 0x592A JUMP JUMPDEST JUMPDEST EQ ISZERO PUSH2 0x3650 JUMPI PUSH1 0x3 PUSH1 0x4 DUP3 DUP2 SLOAD DUP2 LT PUSH2 0x343D JUMPI PUSH2 0x343C PUSH2 0x5988 JUMP JUMPDEST JUMPDEST SWAP1 PUSH1 0x0 MSTORE PUSH1 0x20 PUSH1 0x0 KECCAK256 ADD PUSH1 0x40 MLOAD PUSH2 0x3454 SWAP2 SWAP1 PUSH2 0x530C JUMP JUMPDEST SWAP1 DUP2 MSTORE PUSH1 0x20 ADD PUSH1 0x40 MLOAD DUP1 SWAP2 SUB SWAP1 KECCAK256 PUSH1 0x40 MLOAD DUP1 PUSH1 0x80 ADD PUSH1 0x40 MSTORE SWAP1 DUP2 PUSH1 0x0 DUP3 ADD DUP1 SLOAD PUSH2 0x347D SWAP1 PUSH2 0x584F JUMP JUMPDEST DUP1 PUSH1 0x1F ADD PUSH1 0x20 DUP1 SWAP2 DIV MUL PUSH1 0x20 ADD PUSH1 0x40 MLOAD SWAP1 DUP2 ADD PUSH1 0x40 MSTORE DUP1 SWAP3 SWAP2 SWAP1 DUP2 DUP2 MSTORE PUSH1 0x20 ADD DUP3 DUP1 SLOAD PUSH2 0x34A9 SWAP1 PUSH2 0x584F JUMP JUMPDEST DUP1 ISZERO PUSH2 0x34F6 JUMPI DUP1 PUSH1 0x1F LT PUSH2 0x34CB JUMPI PUSH2 0x100 DUP1 DUP4 SLOAD DIV MUL DUP4 MSTORE SWAP2 PUSH1 0x20 ADD SWAP2 PUSH2 0x34F6 JUMP JUMPDEST DUP3 ADD SWAP2 SWAP1 PUSH1 0x0 MSTORE PUSH1 0x20 PUSH1 0x0 KECCAK256 SWAP1 JUMPDEST DUP2 SLOAD DUP2 MSTORE SWAP1 PUSH1 0x1 ADD SWAP1 PUSH1 0x20 ADD DUP1 DUP4 GT PUSH2 0x34D9 JUMPI DUP3 SWAP1 SUB PUSH1 0x1F AND DUP3 ADD SWAP2 JUMPDEST POP POP POP POP POP DUP2 MSTORE PUSH1 0x20 ADD PUSH1 0x1 DUP3 ADD PUSH1 0x0 SWAP1 SLOAD SWAP1 PUSH2 0x100 EXP SWAP1 DIV PUSH20 0xFFFFFFFFFFFFFFFFFFFFFFFFFFFFFFFFFFFFFFFF AND PUSH20 0xFFFFFFFFFFFFFFFFFFFFFFFFFFFFFFFFFFFFFFFF AND PUSH20 0xFFFFFFFFFFFFFFFFFFFFFFFFFFFFFFFFFFFFFFFF AND DUP2 MSTORE PUSH1 0x20 ADD PUSH1 0x1 DUP3 ADD PUSH1 0x14 SWAP1 SLOAD SWAP1 PUSH2 0x100 EXP SWAP1 DIV PUSH1 0xFF AND PUSH1 0x2 DUP2 GT ISZERO PUSH2 0x357A JUMPI PUSH2 0x3579 PUSH2 0x592A JUMP JUMPDEST JUMPDEST PUSH1 0x2 DUP2 GT ISZERO PUSH2 0x358C JUMPI PUSH2 0x358B PUSH2 0x592A JUMP JUMPDEST JUMPDEST DUP2 MSTORE PUSH1 0x20 ADD PUSH1 0x2 DUP3 ADD DUP1 SLOAD PUSH2 0x35A0 SWAP1 PUSH2 0x584F JUMP JUMPDEST DUP1 PUSH1 0x1F ADD PUSH1 0x20 DUP1 SWAP2 DIV MUL PUSH1 0x20 ADD PUSH1 0x40 MLOAD SWAP1 DUP2 ADD PUSH1 0x40 MSTORE DUP1 SWAP3 SWAP2 SWAP1 DUP2 DUP2 MSTORE PUSH1 0x20 ADD DUP3 DUP1 SLOAD PUSH2 0x35CC SWAP1 PUSH2 0x584F JUMP JUMPDEST DUP1 ISZERO PUSH2 0x3619 JUMPI DUP1 PUSH1 0x1F LT PUSH2 0x35EE JUMPI PUSH2 0x100 DUP1 DUP4 SLOAD DIV MUL DUP4 MSTORE SWAP2 PUSH1 0x20 ADD SWAP2 PUSH2 0x3619 JUMP JUMPDEST DUP3 ADD SWAP2 SWAP1 PUSH1 0x0 MSTORE PUSH1 0x20 PUSH1 0x0 KECCAK256 SWAP1 JUMPDEST DUP2 SLOAD DUP2 MSTORE SWAP1 PUSH1 0x1 ADD SWAP1 PUSH1 0x20 ADD DUP1 DUP4 GT PUSH2 0x35FC JUMPI DUP3 SWAP1 SUB PUSH1 0x1F AND DUP3 ADD SWAP2 JUMPDEST POP POP POP POP POP DUP2 MSTORE POP POP DUP4 DUP4 DUP2 MLOAD DUP2 LT PUSH2 0x3635 JUMPI PUSH2 0x3634 PUSH2 0x5988 JUMP JUMPDEST JUMPDEST PUSH1 0x20 MUL PUSH1 0x20 ADD ADD DUP2 SWAP1 MSTORE POP PUSH1 0x1 DUP3 PUSH2 0x364D SWAP2 SWAP1 PUSH2 0x56F1 JUMP JUMPDEST SWAP2 POP JUMPDEST DUP1 DUP1 PUSH2 0x365B SWAP1 PUSH2 0x58B2 JUMP JUMPDEST SWAP2 POP POP PUSH2 0x33A8 JUMP JUMPDEST POP DUP1 PUSH8 0xFFFFFFFFFFFFFFFF DUP2 GT ISZERO PUSH2 0x367E JUMPI PUSH2 0x367D PUSH2 0x59B7 JUMP JUMPDEST JUMPDEST PUSH1 0x40 MLOAD SWAP1 DUP1 DUP3 MSTORE DUP1 PUSH1 0x20 MUL PUSH1 0x20 ADD DUP3 ADD PUSH1 0x40 MSTORE DUP1 ISZERO PUSH2 0x36B7 JUMPI DUP2 PUSH1 0x20 ADD JUMPDEST PUSH2 0x36A4 PUSH2 0x46DD JUMP JUMPDEST DUP2 MSTORE PUSH1 0x20 ADD SWAP1 PUSH1 0x1 SWAP1 SUB SWAP1 DUP2 PUSH2 0x369C JUMPI SWAP1 POP JUMPDEST POP SWAP4 POP PUSH1 0x0 JUMPDEST DUP2 DUP2 LT ISZERO PUSH2 0x393D JUMPI DUP3 DUP2 DUP2 MLOAD DUP2 LT PUSH2 0x36D8 JUMPI PUSH2 0x36D7 PUSH2 0x5988 JUMP JUMPDEST JUMPDEST PUSH1 0x20 MUL PUSH1 0x20 ADD ADD MLOAD PUSH1 0x0 ADD MLOAD DUP6 DUP3 DUP2 MLOAD DUP2 LT PUSH2 0x36F7 JUMPI PUSH2 0x36F6 PUSH2 0x5988 JUMP JUMPDEST JUMPDEST PUSH1 0x20 MUL PUSH1 0x20 ADD ADD MLOAD PUSH1 0x0 ADD DUP2 SWAP1 MSTORE POP DUP3 DUP2 DUP2 MLOAD DUP2 LT PUSH2 0x3719 JUMPI PUSH2 0x3718 PUSH2 0x5988 JUMP JUMPDEST JUMPDEST PUSH1 0x20 MUL PUSH1 0x20 ADD ADD MLOAD PUSH1 0x20 ADD MLOAD DUP6 DUP3 DUP2 MLOAD DUP2 LT PUSH2 0x3738 JUMPI PUSH2 0x3737 PUSH2 0x5988 JUMP JUMPDEST JUMPDEST PUSH1 0x20 MUL PUSH1 0x20 ADD ADD MLOAD PUSH1 0x20 ADD SWAP1 PUSH20 0xFFFFFFFFFFFFFFFFFFFFFFFFFFFFFFFFFFFFFFFF AND SWAP1 DUP2 PUSH20 0xFFFFFFFFFFFFFFFFFFFFFFFFFFFFFFFFFFFFFFFF AND DUP2 MSTORE POP POP DUP3 DUP2 DUP2 MLOAD DUP2 LT PUSH2 0x3789 JUMPI PUSH2 0x3788 PUSH2 0x5988 JUMP JUMPDEST JUMPDEST PUSH1 0x20 MUL PUSH1 0x20 ADD ADD MLOAD PUSH1 0x40 ADD MLOAD DUP6 DUP3 DUP2 MLOAD DUP2 LT PUSH2 0x37A8 JUMPI PUSH2 0x37A7 PUSH2 0x5988 JUMP JUMPDEST JUMPDEST PUSH1 0x20 MUL PUSH1 0x20 ADD ADD MLOAD PUSH1 0x40 ADD SWAP1 PUSH1 0x2 DUP2 GT ISZERO PUSH2 0x37C6 JUMPI PUSH2 0x37C5 PUSH2 0x592A JUMP JUMPDEST JUMPDEST SWAP1 DUP2 PUSH1 0x2 DUP2 GT ISZERO PUSH2 0x37DA JUMPI PUSH2 0x37D9 PUSH2 0x592A JUMP JUMPDEST JUMPDEST DUP2 MSTORE POP POP DUP3 DUP2 DUP2 MLOAD DUP2 LT PUSH2 0x37F1 JUMPI PUSH2 0x37F0 PUSH2 0x5988 JUMP JUMPDEST JUMPDEST PUSH1 0x20 MUL PUSH1 0x20 ADD ADD MLOAD PUSH1 0x60 ADD MLOAD DUP6 DUP3 DUP2 MLOAD DUP2 LT PUSH2 0x3810 JUMPI PUSH2 0x380F PUSH2 0x5988 JUMP JUMPDEST JUMPDEST PUSH1 0x20 MUL PUSH1 0x20 ADD ADD MLOAD PUSH1 0x60 ADD DUP2 SWAP1 MSTORE POP PUSH1 0x1 PUSH1 0x0 DUP5 DUP4 DUP2 MLOAD DUP2 LT PUSH2 0x3836 JUMPI PUSH2 0x3835 PUSH2 0x5988 JUMP JUMPDEST JUMPDEST PUSH1 0x20 MUL PUSH1 0x20 ADD ADD MLOAD PUSH1 0x20 ADD MLOAD PUSH20 0xFFFFFFFFFFFFFFFFFFFFFFFFFFFFFFFFFFFFFFFF AND PUSH20 0xFFFFFFFFFFFFFFFFFFFFFFFFFFFFFFFFFFFFFFFF AND DUP2 MSTORE PUSH1 0x20 ADD SWAP1 DUP2 MSTORE PUSH1 0x20 ADD PUSH1 0x0 KECCAK256 PUSH1 0x1 ADD DUP1 SLOAD PUSH2 0x388A SWAP1 PUSH2 0x584F JUMP JUMPDEST DUP1 PUSH1 0x1F ADD PUSH1 0x20 DUP1 SWAP2 DIV MUL PUSH1 0x20 ADD PUSH1 0x40 MLOAD SWAP1 DUP2 ADD PUSH1 0x40 MSTORE DUP1 SWAP3 SWAP2 SWAP1 DUP2 DUP2 MSTORE PUSH1 0x20 ADD DUP3 DUP1 SLOAD PUSH2 0x38B6 SWAP1 PUSH2 0x584F JUMP JUMPDEST DUP1 ISZERO PUSH2 0x3903 JUMPI DUP1 PUSH1 0x1F LT PUSH2 0x38D8 JUMPI PUSH2 0x100 DUP1 DUP4 SLOAD DIV MUL DUP4 MSTORE SWAP2 PUSH1 0x20 ADD SWAP2 PUSH2 0x3903 JUMP JUMPDEST DUP3 ADD SWAP2 SWAP1 PUSH1 0x0 MSTORE PUSH1 0x20 PUSH1 0x0 KECCAK256 SWAP1 JUMPDEST DUP2 SLOAD DUP2 MSTORE SWAP1 PUSH1 0x1 ADD SWAP1 PUSH1 0x20 ADD DUP1 DUP4 GT PUSH2 0x38E6 JUMPI DUP3 SWAP1 SUB PUSH1 0x1F AND DUP3 ADD SWAP2 JUMPDEST POP POP POP POP POP DUP6 DUP3 DUP2 MLOAD DUP2 LT PUSH2 0x391B JUMPI PUSH2 0x391A PUSH2 0x5988 JUMP JUMPDEST JUMPDEST PUSH1 0x20 MUL PUSH1 0x20 ADD ADD MLOAD PUSH1 0x80 ADD DUP2 SWAP1 MSTORE POP DUP1 DUP1 PUSH2 0x3935 SWAP1 PUSH2 0x58B2 JUMP JUMPDEST SWAP2 POP POP PUSH2 0x36BD JUMP JUMPDEST POP POP POP POP SWAP2 SWAP1 POP JUMP JUMPDEST PUSH1 0x0 DUP1 SLOAD SWAP1 PUSH2 0x100 EXP SWAP1 DIV PUSH20 0xFFFFFFFFFFFFFFFFFFFFFFFFFFFFFFFFFFFFFFFF AND DUP2 JUMP JUMPDEST PUSH2 0x3972 PUSH2 0x4503 JUMP JUMPDEST PUSH1 0x1 PUSH1 0x0 DUP4 PUSH20 0xFFFFFFFFFFFFFFFFFFFFFFFFFFFFFFFFFFFFFFFF AND PUSH20 0xFFFFFFFFFFFFFFFFFFFFFFFFFFFFFFFFFFFFFFFF AND DUP2 MSTORE PUSH1 0x20 ADD SWAP1 DUP2 MSTORE PUSH1 0x20 ADD PUSH1 0x0 KECCAK256 PUSH1 0x40 MLOAD DUP1 PUSH1 0xE0 ADD PUSH1 0x40 MSTORE SWAP1 DUP2 PUSH1 0x0 DUP3 ADD DUP1 SLOAD PUSH2 0x39CC SWAP1 PUSH2 0x584F JUMP JUMPDEST DUP1 PUSH1 0x1F ADD PUSH1 0x20 DUP1 SWAP2 DIV MUL PUSH1 0x20 ADD PUSH1 0x40 MLOAD SWAP1 DUP2 ADD PUSH1 0x40 MSTORE DUP1 SWAP3 SWAP2 SWAP1 DUP2 DUP2 MSTORE PUSH1 0x20 ADD DUP3 DUP1 SLOAD PUSH2 0x39F8 SWAP1 PUSH2 0x584F JUMP JUMPDEST DUP1 ISZERO PUSH2 0x3A45 JUMPI DUP1 PUSH1 0x1F LT PUSH2 0x3A1A JUMPI PUSH2 0x100 DUP1 DUP4 SLOAD DIV MUL DUP4 MSTORE SWAP2 PUSH1 0x20 ADD SWAP2 PUSH2 0x3A45 JUMP JUMPDEST DUP3 ADD SWAP2 SWAP1 PUSH1 0x0 MSTORE PUSH1 0x20 PUSH1 0x0 KECCAK256 SWAP1 JUMPDEST DUP2 SLOAD DUP2 MSTORE SWAP1 PUSH1 0x1 ADD SWAP1 PUSH1 0x20 ADD DUP1 DUP4 GT PUSH2 0x3A28 JUMPI DUP3 SWAP1 SUB PUSH1 0x1F AND DUP3 ADD SWAP2 JUMPDEST POP POP POP POP POP DUP2 MSTORE PUSH1 0x20 ADD PUSH1 0x1 DUP3 ADD DUP1 SLOAD PUSH2 0x3A5E SWAP1 PUSH2 0x584F JUMP JUMPDEST DUP1 PUSH1 0x1F ADD PUSH1 0x20 DUP1 SWAP2 DIV MUL PUSH1 0x20 ADD PUSH1 0x40 MLOAD SWAP1 DUP2 ADD PUSH1 0x40 MSTORE DUP1 SWAP3 SWAP2 SWAP1 DUP2 DUP2 MSTORE PUSH1 0x20 ADD DUP3 DUP1 SLOAD PUSH2 0x3A8A SWAP1 PUSH2 0x584F JUMP JUMPDEST DUP1 ISZERO PUSH2 0x3AD7 JUMPI DUP1 PUSH1 0x1F LT PUSH2 0x3AAC JUMPI PUSH2 0x100 DUP1 DUP4 SLOAD DIV MUL DUP4 MSTORE SWAP2 PUSH1 0x20 ADD SWAP2 PUSH2 0x3AD7 JUMP JUMPDEST DUP3 ADD SWAP2 SWAP1 PUSH1 0x0 MSTORE PUSH1 0x20 PUSH1 0x0 KECCAK256 SWAP1 JUMPDEST DUP2 SLOAD DUP2 MSTORE SWAP1 PUSH1 0x1 ADD SWAP1 PUSH1 0x20 ADD DUP1 DUP4 GT PUSH2 0x3ABA JUMPI DUP3 SWAP1 SUB PUSH1 0x1F AND DUP3 ADD SWAP2 JUMPDEST POP POP POP POP POP DUP2 MSTORE PUSH1 0x20 ADD PUSH1 0x2 DUP3 ADD PUSH1 0x0 SWAP1 SLOAD SWAP1 PUSH2 0x100 EXP SWAP1 DIV PUSH1 0xFF AND PUSH1 0x8 DUP2 GT ISZERO PUSH2 0x3B05 JUMPI PUSH2 0x3B04 PUSH2 0x592A JUMP JUMPDEST JUMPDEST PUSH1 0x8 DUP2 GT ISZERO PUSH2 0x3B17 JUMPI PUSH2 0x3B16 PUSH2 0x592A JUMP JUMPDEST JUMPDEST DUP2 MSTORE PUSH1 0x20 ADD PUSH1 0x2 DUP3 ADD PUSH1 0x1 SWAP1 SLOAD SWAP1 PUSH2 0x100 EXP SWAP1 DIV PUSH1 0xFF AND PUSH1 0x2 DUP2 GT ISZERO PUSH2 0x3B40 JUMPI PUSH2 0x3B3F PUSH2 0x592A JUMP JUMPDEST JUMPDEST PUSH1 0x2 DUP2 GT ISZERO PUSH2 0x3B52 JUMPI PUSH2 0x3B51 PUSH2 0x592A JUMP JUMPDEST JUMPDEST DUP2 MSTORE PUSH1 0x20 ADD PUSH1 0x3 DUP3 ADD DUP1 SLOAD PUSH2 0x3B66 SWAP1 PUSH2 0x584F JUMP JUMPDEST DUP1 PUSH1 0x1F ADD PUSH1 0x20 DUP1 SWAP2 DIV MUL PUSH1 0x20 ADD PUSH1 0x40 MLOAD SWAP1 DUP2 ADD PUSH1 0x40 MSTORE DUP1 SWAP3 SWAP2 SWAP1 DUP2 DUP2 MSTORE PUSH1 0x20 ADD DUP3 DUP1 SLOAD PUSH2 0x3B92 SWAP1 PUSH2 0x584F JUMP JUMPDEST DUP1 ISZERO PUSH2 0x3BDF JUMPI DUP1 PUSH1 0x1F LT PUSH2 0x3BB4 JUMPI PUSH2 0x100 DUP1 DUP4 SLOAD DIV MUL DUP4 MSTORE SWAP2 PUSH1 0x20 ADD SWAP2 PUSH2 0x3BDF JUMP JUMPDEST DUP3 ADD SWAP2 SWAP1 PUSH1 0x0 MSTORE PUSH1 0x20 PUSH1 0x0 KECCAK256 SWAP1 JUMPDEST DUP2 SLOAD DUP2 MSTORE SWAP1 PUSH1 0x1 ADD SWAP1 PUSH1 0x20 ADD DUP1 DUP4 GT PUSH2 0x3BC2 JUMPI DUP3 SWAP1 SUB PUSH1 0x1F AND DUP3 ADD SWAP2 JUMPDEST POP POP POP POP POP DUP2 MSTORE PUSH1 0x20 ADD PUSH1 0x4 DUP3 ADD DUP1 SLOAD PUSH2 0x3BF8 SWAP1 PUSH2 0x584F JUMP JUMPDEST DUP1 PUSH1 0x1F ADD PUSH1 0x20 DUP1 SWAP2 DIV MUL PUSH1 0x20 ADD PUSH1 0x40 MLOAD SWAP1 DUP2 ADD PUSH1 0x40 MSTORE DUP1 SWAP3 SWAP2 SWAP1 DUP2 DUP2 MSTORE PUSH1 0x20 ADD DUP3 DUP1 SLOAD PUSH2 0x3C24 SWAP1 PUSH2 0x584F JUMP JUMPDEST DUP1 ISZERO PUSH2 0x3C71 JUMPI DUP1 PUSH1 0x1F LT PUSH2 0x3C46 JUMPI PUSH2 0x100 DUP1 DUP4 SLOAD DIV MUL DUP4 MSTORE SWAP2 PUSH1 0x20 ADD SWAP2 PUSH2 0x3C71 JUMP JUMPDEST DUP3 ADD SWAP2 SWAP1 PUSH1 0x0 MSTORE PUSH1 0x20 PUSH1 0x0 KECCAK256 SWAP1 JUMPDEST DUP2 SLOAD DUP2 MSTORE SWAP1 PUSH1 0x1 ADD SWAP1 PUSH1 0x20 ADD DUP1 DUP4 GT PUSH2 0x3C54 JUMPI DUP3 SWAP1 SUB PUSH1 0x1F AND DUP3 ADD SWAP2 JUMPDEST POP POP POP POP POP DUP2 MSTORE PUSH1 0x20 ADD PUSH1 0x5 DUP3 ADD PUSH1 0x0 SWAP1 SLOAD SWAP1 PUSH2 0x100 EXP SWAP1 DIV PUSH20 0xFFFFFFFFFFFFFFFFFFFFFFFFFFFFFFFFFFFFFFFF AND PUSH20 0xFFFFFFFFFFFFFFFFFFFFFFFFFFFFFFFFFFFFFFFF AND PUSH20 0xFFFFFFFFFFFFFFFFFFFFFFFFFFFFFFFFFFFFFFFF AND DUP2 MSTORE POP POP SWAP1 POP SWAP2 SWAP1 POP JUMP JUMPDEST PUSH2 0x3CDF PUSH2 0x468D JUMP JUMPDEST PUSH1 0x3 DUP3 PUSH1 0x40 MLOAD PUSH2 0x3CEF SWAP2 SWAP1 PUSH2 0x52F5 JUMP JUMPDEST SWAP1 DUP2 MSTORE PUSH1 0x20 ADD PUSH1 0x40 MLOAD DUP1 SWAP2 SUB SWAP1 KECCAK256 PUSH1 0x40 MLOAD DUP1 PUSH1 0x80 ADD PUSH1 0x40 MSTORE SWAP1 DUP2 PUSH1 0x0 DUP3 ADD DUP1 SLOAD PUSH2 0x3D18 SWAP1 PUSH2 0x584F JUMP JUMPDEST DUP1 PUSH1 0x1F ADD PUSH1 0x20 DUP1 SWAP2 DIV MUL PUSH1 0x20 ADD PUSH1 0x40 MLOAD SWAP1 DUP2 ADD PUSH1 0x40 MSTORE DUP1 SWAP3 SWAP2 SWAP1 DUP2 DUP2 MSTORE PUSH1 0x20 ADD DUP3 DUP1 SLOAD PUSH2 0x3D44 SWAP1 PUSH2 0x584F JUMP JUMPDEST DUP1 ISZERO PUSH2 0x3D91 JUMPI DUP1 PUSH1 0x1F LT PUSH2 0x3D66 JUMPI PUSH2 0x100 DUP1 DUP4 SLOAD DIV MUL DUP4 MSTORE SWAP2 PUSH1 0x20 ADD SWAP2 PUSH2 0x3D91 JUMP JUMPDEST DUP3 ADD SWAP2 SWAP1 PUSH1 0x0 MSTORE PUSH1 0x20 PUSH1 0x0 KECCAK256 SWAP1 JUMPDEST DUP2 SLOAD DUP2 MSTORE SWAP1 PUSH1 0x1 ADD SWAP1 PUSH1 0x20 ADD DUP1 DUP4 GT PUSH2 0x3D74 JUMPI DUP3 SWAP1 SUB PUSH1 0x1F AND DUP3 ADD SWAP2 JUMPDEST POP POP POP POP POP DUP2 MSTORE PUSH1 0x20 ADD PUSH1 0x1 DUP3 ADD PUSH1 0x0 SWAP1 SLOAD SWAP1 PUSH2 0x100 EXP SWAP1 DIV PUSH20 0xFFFFFFFFFFFFFFFFFFFFFFFFFFFFFFFFFFFFFFFF AND PUSH20 0xFFFFFFFFFFFFFFFFFFFFFFFFFFFFFFFFFFFFFFFF AND PUSH20 0xFFFFFFFFFFFFFFFFFFFFFFFFFFFFFFFFFFFFFFFF AND DUP2 MSTORE PUSH1 0x20 ADD PUSH1 0x1 DUP3 ADD PUSH1 0x14 SWAP1 SLOAD SWAP1 PUSH2 0x100 EXP SWAP1 DIV PUSH1 0xFF AND PUSH1 0x2 DUP2 GT ISZERO PUSH2 0x3E15 JUMPI PUSH2 0x3E14 PUSH2 0x592A JUMP JUMPDEST JUMPDEST PUSH1 0x2 DUP2 GT ISZERO PUSH2 0x3E27 JUMPI PUSH2 0x3E26 PUSH2 0x592A JUMP JUMPDEST JUMPDEST DUP2 MSTORE PUSH1 0x20 ADD PUSH1 0x2 DUP3 ADD DUP1 SLOAD PUSH2 0x3E3B SWAP1 PUSH2 0x584F JUMP JUMPDEST DUP1 PUSH1 0x1F ADD PUSH1 0x20 DUP1 SWAP2 DIV MUL PUSH1 0x20 ADD PUSH1 0x40 MLOAD SWAP1 DUP2 ADD PUSH1 0x40 MSTORE DUP1 SWAP3 SWAP2 SWAP1 DUP2 DUP2 MSTORE PUSH1 0x20 ADD DUP3 DUP1 SLOAD PUSH2 0x3E67 SWAP1 PUSH2 0x584F JUMP JUMPDEST DUP1 ISZERO PUSH2 0x3EB4 JUMPI DUP1 PUSH1 0x1F LT PUSH2 0x3E89 JUMPI PUSH2 0x100 DUP1 DUP4 SLOAD DIV MUL DUP4 MSTORE SWAP2 PUSH1 0x20 ADD SWAP2 PUSH2 0x3EB4 JUMP JUMPDEST DUP3 ADD SWAP2 SWAP1 PUSH1 0x0 MSTORE PUSH1 0x20 PUSH1 0x0 KECCAK256 SWAP1 JUMPDEST DUP2 SLOAD DUP2 MSTORE SWAP1 PUSH1 0x1 ADD SWAP1 PUSH1 0x20 ADD DUP1 DUP4 GT PUSH2 0x3E97 JUMPI DUP3 SWAP1 SUB PUSH1 0x1F AND DUP3 ADD SWAP2 JUMPDEST POP POP POP POP POP DUP2 MSTORE POP POP SWAP1 POP SWAP2 SWAP1 POP JUMP JUMPDEST PUSH1 0x6 DUP2 DUP2 SLOAD DUP2 LT PUSH2 0x3ED4 JUMPI PUSH1 0x0 DUP1 REVERT JUMPDEST SWAP1 PUSH1 0x0 MSTORE PUSH1 0x20 PUSH1 0x0 KECCAK256 SWAP1 PUSH1 0x2 MUL ADD PUSH1 0x0 SWAP2 POP SWAP1 POP DUP1 PUSH1 0x0 ADD PUSH1 0x0 SWAP1 SLOAD SWAP1 PUSH2 0x100 EXP SWAP1 DIV PUSH20 0xFFFFFFFFFFFFFFFFFFFFFFFFFFFFFFFFFFFFFFFF AND SWAP1 DUP1 PUSH1 0x1 ADD PUSH1 0x0 SWAP1 SLOAD SWAP1 PUSH2 0x100 EXP SWAP1 DIV PUSH20 0xFFFFFFFFFFFFFFFFFFFFFFFFFFFFFFFFFFFFFFFF AND SWAP1 DUP1 PUSH1 0x1 ADD PUSH1 0x14 SWAP1 SLOAD SWAP1 PUSH2 0x100 EXP SWAP1 DIV PUSH1 0xFF AND SWAP1 POP DUP4 JUMP JUMPDEST PUSH1 0x0 DUP1 PUSH1 0x0 SWAP1 POP JUMPDEST PUSH1 0x6 DUP1 SLOAD SWAP1 POP DUP2 LT ISZERO PUSH2 0x40A6 JUMPI CALLER PUSH20 0xFFFFFFFFFFFFFFFFFFFFFFFFFFFFFFFFFFFFFFFF AND PUSH1 0x6 DUP3 DUP2 SLOAD DUP2 LT PUSH2 0x3F8B JUMPI PUSH2 0x3F8A PUSH2 0x5988 JUMP JUMPDEST JUMPDEST SWAP1 PUSH1 0x0 MSTORE PUSH1 0x20 PUSH1 0x0 KECCAK256 SWAP1 PUSH1 0x2 MUL ADD PUSH1 0x0 ADD PUSH1 0x0 SWAP1 SLOAD SWAP1 PUSH2 0x100 EXP SWAP1 DIV PUSH20 0xFFFFFFFFFFFFFFFFFFFFFFFFFFFFFFFFFFFFFFFF AND PUSH20 0xFFFFFFFFFFFFFFFFFFFFFFFFFFFFFFFFFFFFFFFF AND EQ DUP1 ISZERO PUSH2 0x4050 JUMPI POP DUP4 PUSH20 0xFFFFFFFFFFFFFFFFFFFFFFFFFFFFFFFFFFFFFFFF AND PUSH1 0x6 DUP3 DUP2 SLOAD DUP2 LT PUSH2 0x4006 JUMPI PUSH2 0x4005 PUSH2 0x5988 JUMP JUMPDEST JUMPDEST SWAP1 PUSH1 0x0 MSTORE PUSH1 0x20 PUSH1 0x0 KECCAK256 SWAP1 PUSH1 0x2 MUL ADD PUSH1 0x1 ADD PUSH1 0x0 SWAP1 SLOAD SWAP1 PUSH2 0x100 EXP SWAP1 DIV PUSH20 0xFFFFFFFFFFFFFFFFFFFFFFFFFFFFFFFFFFFFFFFF AND PUSH20 0xFFFFFFFFFFFFFFFFFFFFFFFFFFFFFFFFFFFFFFFF AND EQ JUMPDEST ISZERO PUSH2 0x4093 JUMPI DUP3 PUSH1 0x6 DUP3 DUP2 SLOAD DUP2 LT PUSH2 0x406A JUMPI PUSH2 0x4069 PUSH2 0x5988 JUMP JUMPDEST JUMPDEST SWAP1 PUSH1 0x0 MSTORE PUSH1 0x20 PUSH1 0x0 KECCAK256 SWAP1 PUSH1 0x2 MUL ADD PUSH1 0x1 ADD PUSH1 0x14 PUSH2 0x100 EXP DUP2 SLOAD DUP2 PUSH1 0xFF MUL NOT AND SWAP1 DUP4 ISZERO ISZERO MUL OR SWAP1 SSTORE POP JUMPDEST DUP1 DUP1 PUSH2 0x409E SWAP1 PUSH2 0x58B2 JUMP JUMPDEST SWAP2 POP POP PUSH2 0x3F53 JUMP JUMPDEST POP PUSH1 0x1 SWAP1 POP SWAP3 SWAP2 POP POP JUMP JUMPDEST PUSH1 0x0 DUP2 PUSH1 0x40 MLOAD PUSH1 0x20 ADD PUSH2 0x40C4 SWAP2 SWAP1 PUSH2 0x52F5 JUMP JUMPDEST PUSH1 0x40 MLOAD PUSH1 0x20 DUP2 DUP4 SUB SUB DUP2 MSTORE SWAP1 PUSH1 0x40 MSTORE DUP1 MLOAD SWAP1 PUSH1 0x20 ADD KECCAK256 DUP4 PUSH1 0x40 MLOAD PUSH1 0x20 ADD PUSH2 0x40EB SWAP2 SWAP1 PUSH2 0x52F5 JUMP JUMPDEST PUSH1 0x40 MLOAD PUSH1 0x20 DUP2 DUP4 SUB SUB DUP2 MSTORE SWAP1 PUSH1 0x40 MSTORE DUP1 MLOAD SWAP1 PUSH1 0x20 ADD KECCAK256 EQ SWAP1 POP SWAP3 SWAP2 POP POP JUMP JUMPDEST PUSH1 0x60 PUSH1 0x0 PUSH1 0x4 DUP1 SLOAD SWAP1 POP SWAP1 POP PUSH1 0x0 DUP2 PUSH8 0xFFFFFFFFFFFFFFFF DUP2 GT ISZERO PUSH2 0x4132 JUMPI PUSH2 0x4131 PUSH2 0x59B7 JUMP JUMPDEST JUMPDEST PUSH1 0x40 MLOAD SWAP1 DUP1 DUP3 MSTORE DUP1 PUSH1 0x20 MUL PUSH1 0x20 ADD DUP3 ADD PUSH1 0x40 MSTORE DUP1 ISZERO PUSH2 0x416B JUMPI DUP2 PUSH1 0x20 ADD JUMPDEST PUSH2 0x4158 PUSH2 0x468D JUMP JUMPDEST DUP2 MSTORE PUSH1 0x20 ADD SWAP1 PUSH1 0x1 SWAP1 SUB SWAP1 DUP2 PUSH2 0x4150 JUMPI SWAP1 POP JUMPDEST POP SWAP1 POP PUSH1 0x0 DUP1 PUSH1 0x0 SWAP1 POP JUMPDEST DUP4 DUP2 LT ISZERO PUSH2 0x444C JUMPI DUP6 PUSH20 0xFFFFFFFFFFFFFFFFFFFFFFFFFFFFFFFFFFFFFFFF AND PUSH1 0x3 PUSH1 0x4 DUP4 DUP2 SLOAD DUP2 LT PUSH2 0x41AB JUMPI PUSH2 0x41AA PUSH2 0x5988 JUMP JUMPDEST JUMPDEST SWAP1 PUSH1 0x0 MSTORE PUSH1 0x20 PUSH1 0x0 KECCAK256 ADD PUSH1 0x40 MLOAD PUSH2 0x41C2 SWAP2 SWAP1 PUSH2 0x530C JUMP JUMPDEST SWAP1 DUP2 MSTORE PUSH1 0x20 ADD PUSH1 0x40 MLOAD DUP1 SWAP2 SUB SWAP1 KECCAK256 PUSH1 0x1 ADD PUSH1 0x0 SWAP1 SLOAD SWAP1 PUSH2 0x100 EXP SWAP1 DIV PUSH20 0xFFFFFFFFFFFFFFFFFFFFFFFFFFFFFFFFFFFFFFFF AND PUSH20 0xFFFFFFFFFFFFFFFFFFFFFFFFFFFFFFFFFFFFFFFF AND EQ ISZERO PUSH2 0x4439 JUMPI PUSH1 0x3 PUSH1 0x4 DUP3 DUP2 SLOAD DUP2 LT PUSH2 0x4226 JUMPI PUSH2 0x4225 PUSH2 0x5988 JUMP JUMPDEST JUMPDEST SWAP1 PUSH1 0x0 MSTORE PUSH1 0x20 PUSH1 0x0 KECCAK256 ADD PUSH1 0x40 MLOAD PUSH2 0x423D SWAP2 SWAP1 PUSH2 0x530C JUMP JUMPDEST SWAP1 DUP2 MSTORE PUSH1 0x20 ADD PUSH1 0x40 MLOAD DUP1 SWAP2 SUB SWAP1 KECCAK256 PUSH1 0x40 MLOAD DUP1 PUSH1 0x80 ADD PUSH1 0x40 MSTORE SWAP1 DUP2 PUSH1 0x0 DUP3 ADD DUP1 SLOAD PUSH2 0x4266 SWAP1 PUSH2 0x584F JUMP JUMPDEST DUP1 PUSH1 0x1F ADD PUSH1 0x20 DUP1 SWAP2 DIV MUL PUSH1 0x20 ADD PUSH1 0x40 MLOAD SWAP1 DUP2 ADD PUSH1 0x40 MSTORE DUP1 SWAP3 SWAP2 SWAP1 DUP2 DUP2 MSTORE PUSH1 0x20 ADD DUP3 DUP1 SLOAD PUSH2 0x4292 SWAP1 PUSH2 0x584F JUMP JUMPDEST DUP1 ISZERO PUSH2 0x42DF JUMPI DUP1 PUSH1 0x1F LT PUSH2 0x42B4 JUMPI PUSH2 0x100 DUP1 DUP4 SLOAD DIV MUL DUP4 MSTORE SWAP2 PUSH1 0x20 ADD SWAP2 PUSH2 0x42DF JUMP JUMPDEST DUP3 ADD SWAP2 SWAP1 PUSH1 0x0 MSTORE PUSH1 0x20 PUSH1 0x0 KECCAK256 SWAP1 JUMPDEST DUP2 SLOAD DUP2 MSTORE SWAP1 PUSH1 0x1 ADD SWAP1 PUSH1 0x20 ADD DUP1 DUP4 GT PUSH2 0x42C2 JUMPI DUP3 SWAP1 SUB PUSH1 0x1F AND DUP3 ADD SWAP2 JUMPDEST POP POP POP POP POP DUP2 MSTORE PUSH1 0x20 ADD PUSH1 0x1 DUP3 ADD PUSH1 0x0 SWAP1 SLOAD SWAP1 PUSH2 0x100 EXP SWAP1 DIV PUSH20 0xFFFFFFFFFFFFFFFFFFFFFFFFFFFFFFFFFFFFFFFF AND PUSH20 0xFFFFFFFFFFFFFFFFFFFFFFFFFFFFFFFFFFFFFFFF AND PUSH20 0xFFFFFFFFFFFFFFFFFFFFFFFFFFFFFFFFFFFFFFFF AND DUP2 MSTORE PUSH1 0x20 ADD PUSH1 0x1 DUP3 ADD PUSH1 0x14 SWAP1 SLOAD SWAP1 PUSH2 0x100 EXP SWAP1 DIV PUSH1 0xFF AND PUSH1 0x2 DUP2 GT ISZERO PUSH2 0x4363 JUMPI PUSH2 0x4362 PUSH2 0x592A JUMP JUMPDEST JUMPDEST PUSH1 0x2 DUP2 GT ISZERO PUSH2 0x4375 JUMPI PUSH2 0x4374 PUSH2 0x592A JUMP JUMPDEST JUMPDEST DUP2 MSTORE PUSH1 0x20 ADD PUSH1 0x2 DUP3 ADD DUP1 SLOAD PUSH2 0x4389 SWAP1 PUSH2 0x584F JUMP JUMPDEST DUP1 PUSH1 0x1F ADD PUSH1 0x20 DUP1 SWAP2 DIV MUL PUSH1 0x20 ADD PUSH1 0x40 MLOAD SWAP1 DUP2 ADD PUSH1 0x40 MSTORE DUP1 SWAP3 SWAP2 SWAP1 DUP2 DUP2 MSTORE PUSH1 0x20 ADD DUP3 DUP1 SLOAD PUSH2 0x43B5 SWAP1 PUSH2 0x584F JUMP JUMPDEST DUP1 ISZERO PUSH2 0x4402 JUMPI DUP1 PUSH1 0x1F LT PUSH2 0x43D7 JUMPI PUSH2 0x100 DUP1 DUP4 SLOAD DIV MUL DUP4 MSTORE SWAP2 PUSH1 0x20 ADD SWAP2 PUSH2 0x4402 JUMP JUMPDEST DUP3 ADD SWAP2 SWAP1 PUSH1 0x0 MSTORE PUSH1 0x20 PUSH1 0x0 KECCAK256 SWAP1 JUMPDEST DUP2 SLOAD DUP2 MSTORE SWAP1 PUSH1 0x1 ADD SWAP1 PUSH1 0x20 ADD DUP1 DUP4 GT PUSH2 0x43E5 JUMPI DUP3 SWAP1 SUB PUSH1 0x1F AND DUP3 ADD SWAP2 JUMPDEST POP POP POP POP POP DUP2 MSTORE POP POP DUP4 DUP4 DUP2 MLOAD DUP2 LT PUSH2 0x441E JUMPI PUSH2 0x441D PUSH2 0x5988 JUMP JUMPDEST JUMPDEST PUSH1 0x20 MUL PUSH1 0x20 ADD ADD DUP2 SWAP1 MSTORE POP PUSH1 0x1 DUP3 PUSH2 0x4436 SWAP2 SWAP1 PUSH2 0x56F1 JUMP JUMPDEST SWAP2 POP JUMPDEST DUP1 DUP1 PUSH2 0x4444 SWAP1 PUSH2 0x58B2 JUMP JUMPDEST SWAP2 POP POP PUSH2 0x4176 JUMP JUMPDEST POP DUP1 PUSH8 0xFFFFFFFFFFFFFFFF DUP2 GT ISZERO PUSH2 0x4467 JUMPI PUSH2 0x4466 PUSH2 0x59B7 JUMP JUMPDEST JUMPDEST PUSH1 0x40 MLOAD SWAP1 DUP1 DUP3 MSTORE DUP1 PUSH1 0x20 MUL PUSH1 0x20 ADD DUP3 ADD PUSH1 0x40 MSTORE DUP1 ISZERO PUSH2 0x44A0 JUMPI DUP2 PUSH1 0x20 ADD JUMPDEST PUSH2 0x448D PUSH2 0x468D JUMP JUMPDEST DUP2 MSTORE PUSH1 0x20 ADD SWAP1 PUSH1 0x1 SWAP1 SUB SWAP1 DUP2 PUSH2 0x4485 JUMPI SWAP1 POP JUMPDEST POP SWAP4 POP PUSH1 0x0 JUMPDEST DUP2 DUP2 LT ISZERO PUSH2 0x44FA JUMPI DUP3 DUP2 DUP2 MLOAD DUP2 LT PUSH2 0x44C1 JUMPI PUSH2 0x44C0 PUSH2 0x5988 JUMP JUMPDEST JUMPDEST PUSH1 0x20 MUL PUSH1 0x20 ADD ADD MLOAD DUP6 DUP3 DUP2 MLOAD DUP2 LT PUSH2 0x44DC JUMPI PUSH2 0x44DB PUSH2 0x5988 JUMP JUMPDEST JUMPDEST PUSH1 0x20 MUL PUSH1 0x20 ADD ADD DUP2 SWAP1 MSTORE POP DUP1 DUP1 PUSH2 0x44F2 SWAP1 PUSH2 0x58B2 JUMP JUMPDEST SWAP2 POP POP PUSH2 0x44A6 JUMP JUMPDEST POP POP POP POP SWAP2 SWAP1 POP JUMP JUMPDEST PUSH1 0x40 MLOAD DUP1 PUSH1 0xE0 ADD PUSH1 0x40 MSTORE DUP1 PUSH1 0x60 DUP2 MSTORE PUSH1 0x20 ADD PUSH1 0x60 DUP2 MSTORE PUSH1 0x20 ADD PUSH1 0x0 PUSH1 0x8 DUP2 GT ISZERO PUSH2 0x4530 JUMPI PUSH2 0x452F PUSH2 0x592A JUMP JUMPDEST JUMPDEST DUP2 MSTORE PUSH1 0x20 ADD PUSH1 0x0 PUSH1 0x2 DUP2 GT ISZERO PUSH2 0x4549 JUMPI PUSH2 0x4548 PUSH2 0x592A JUMP JUMPDEST JUMPDEST DUP2 MSTORE PUSH1 0x20 ADD PUSH1 0x60 DUP2 MSTORE PUSH1 0x20 ADD PUSH1 0x60 DUP2 MSTORE PUSH1 0x20 ADD PUSH1 0x0 PUSH20 0xFFFFFFFFFFFFFFFFFFFFFFFFFFFFFFFFFFFFFFFF AND DUP2 MSTORE POP SWAP1 JUMP JUMPDEST PUSH1 0x40 MLOAD DUP1 PUSH1 0xE0 ADD PUSH1 0x40 MSTORE DUP1 PUSH1 0x60 DUP2 MSTORE PUSH1 0x20 ADD PUSH1 0x60 DUP2 MSTORE PUSH1 0x20 ADD PUSH1 0x0 DUP2 MSTORE PUSH1 0x20 ADD PUSH1 0x0 PUSH20 0xFFFFFFFFFFFFFFFFFFFFFFFFFFFFFFFFFFFFFFFF AND DUP2 MSTORE PUSH1 0x20 ADD PUSH1 0x0 PUSH20 0xFFFFFFFFFFFFFFFFFFFFFFFFFFFFFFFFFFFFFFFF AND DUP2 MSTORE PUSH1 0x20 ADD PUSH1 0x0 DUP2 MSTORE PUSH1 0x20 ADD PUSH1 0x0 DUP2 MSTORE POP SWAP1 JUMP JUMPDEST PUSH1 0x40 MLOAD DUP1 PUSH2 0x160 ADD PUSH1 0x40 MSTORE DUP1 PUSH1 0x60 DUP2 MSTORE PUSH1 0x20 ADD PUSH1 0x60 DUP2 MSTORE PUSH1 0x20 ADD PUSH1 0x0 DUP2 MSTORE PUSH1 0x20 ADD PUSH1 0x0 PUSH20 0xFFFFFFFFFFFFFFFFFFFFFFFFFFFFFFFFFFFFFFFF AND DUP2 MSTORE PUSH1 0x20 ADD PUSH1 0x60 DUP2 MSTORE PUSH1 0x20 ADD PUSH1 0x0 PUSH1 0x8 DUP2 GT ISZERO PUSH2 0x463C JUMPI PUSH2 0x463B PUSH2 0x592A JUMP JUMPDEST JUMPDEST DUP2 MSTORE PUSH1 0x20 ADD PUSH1 0x0 PUSH20 0xFFFFFFFFFFFFFFFFFFFFFFFFFFFFFFFFFFFFFFFF AND DUP2 MSTORE PUSH1 0x20 ADD PUSH1 0x60 DUP2 MSTORE PUSH1 0x20 ADD PUSH1 0x0 PUSH1 0x8 DUP2 GT ISZERO PUSH2 0x4679 JUMPI PUSH2 0x4678 PUSH2 0x592A JUMP JUMPDEST JUMPDEST DUP2 MSTORE PUSH1 0x20 ADD PUSH1 0x0 DUP2 MSTORE PUSH1 0x20 ADD PUSH1 0x0 DUP2 MSTORE POP SWAP1 JUMP JUMPDEST PUSH1 0x40 MLOAD DUP1 PUSH1 0x80 ADD PUSH1 0x40 MSTORE DUP1 PUSH1 0x60 DUP2 MSTORE PUSH1 0x20 ADD PUSH1 0x0 PUSH20 0xFFFFFFFFFFFFFFFFFFFFFFFFFFFFFFFFFFFFFFFF AND DUP2 MSTORE PUSH1 0x20 ADD PUSH1 0x0 PUSH1 0x2 DUP2 GT ISZERO PUSH2 0x46D0 JUMPI PUSH2 0x46CF PUSH2 0x592A JUMP JUMPDEST JUMPDEST DUP2 MSTORE PUSH1 0x20 ADD PUSH1 0x60 DUP2 MSTORE POP SWAP1 JUMP JUMPDEST PUSH1 0x40 MLOAD DUP1 PUSH1 0xA0 ADD PUSH1 0x40 MSTORE DUP1 PUSH1 0x60 DUP2 MSTORE PUSH1 0x20 ADD PUSH1 0x0 PUSH20 0xFFFFFFFFFFFFFFFFFFFFFFFFFFFFFFFFFFFFFFFF AND DUP2 MSTORE PUSH1 0x20 ADD PUSH1 0x0 PUSH1 0x2 DUP2 GT ISZERO PUSH2 0x4720 JUMPI PUSH2 0x471F PUSH2 0x592A JUMP JUMPDEST JUMPDEST DUP2 MSTORE PUSH1 0x20 ADD PUSH1 0x60 DUP2 MSTORE PUSH1 0x20 ADD PUSH1 0x60 DUP2 MSTORE POP SWAP1 JUMP JUMPDEST PUSH1 0x0 PUSH2 0x4747 PUSH2 0x4742 DUP5 PUSH2 0x5556 JUMP JUMPDEST PUSH2 0x5531 JUMP JUMPDEST SWAP1 POP DUP3 DUP2 MSTORE PUSH1 0x20 DUP2 ADD DUP5 DUP5 DUP5 ADD GT ISZERO PUSH2 0x4763 JUMPI PUSH2 0x4762 PUSH2 0x59EB JUMP JUMPDEST JUMPDEST PUSH2 0x476E DUP5 DUP3 DUP6 PUSH2 0x580D JUMP JUMPDEST POP SWAP4 SWAP3 POP POP POP JUMP JUMPDEST PUSH1 0x0 DUP2 CALLDATALOAD SWAP1 POP PUSH2 0x4785 DUP2 PUSH2 0x5A33 JUMP JUMPDEST SWAP3 SWAP2 POP POP JUMP JUMPDEST PUSH1 0x0 DUP2 CALLDATALOAD SWAP1 POP PUSH2 0x479A DUP2 PUSH2 0x5A4A JUMP JUMPDEST SWAP3 SWAP2 POP POP JUMP JUMPDEST PUSH1 0x0 DUP2 CALLDATALOAD SWAP1 POP PUSH2 0x47AF DUP2 PUSH2 0x5A61 JUMP JUMPDEST SWAP3 SWAP2 POP POP JUMP JUMPDEST PUSH1 0x0 DUP2 CALLDATALOAD SWAP1 POP PUSH2 0x47C4 DUP2 PUSH2 0x5A71 JUMP JUMPDEST SWAP3 SWAP2 POP POP JUMP JUMPDEST PUSH1 0x0 DUP3 PUSH1 0x1F DUP4 ADD SLT PUSH2 0x47DF JUMPI PUSH2 0x47DE PUSH2 0x59E6 JUMP JUMPDEST JUMPDEST DUP2 CALLDATALOAD PUSH2 0x47EF DUP5 DUP3 PUSH1 0x20 DUP7 ADD PUSH2 0x4734 JUMP JUMPDEST SWAP2 POP POP SWAP3 SWAP2 POP POP JUMP JUMPDEST PUSH1 0x0 DUP2 CALLDATALOAD SWAP1 POP PUSH2 0x4807 DUP2 PUSH2 0x5A81 JUMP JUMPDEST SWAP3 SWAP2 POP POP JUMP JUMPDEST PUSH1 0x0 PUSH1 0x20 DUP3 DUP5 SUB SLT ISZERO PUSH2 0x4823 JUMPI PUSH2 0x4822 PUSH2 0x59F5 JUMP JUMPDEST JUMPDEST PUSH1 0x0 PUSH2 0x4831 DUP5 DUP3 DUP6 ADD PUSH2 0x4776 JUMP JUMPDEST SWAP2 POP POP SWAP3 SWAP2 POP POP JUMP JUMPDEST PUSH1 0x0 DUP1 PUSH1 0x40 DUP4 DUP6 SUB SLT ISZERO PUSH2 0x4851 JUMPI PUSH2 0x4850 PUSH2 0x59F5 JUMP JUMPDEST JUMPDEST PUSH1 0x0 PUSH2 0x485F DUP6 DUP3 DUP7 ADD PUSH2 0x4776 JUMP JUMPDEST SWAP3 POP POP PUSH1 0x20 PUSH2 0x4870 DUP6 DUP3 DUP7 ADD PUSH2 0x478B JUMP JUMPDEST SWAP2 POP POP SWAP3 POP SWAP3 SWAP1 POP JUMP JUMPDEST PUSH1 0x0 PUSH1 0x20 DUP3 DUP5 SUB SLT ISZERO PUSH2 0x4890 JUMPI PUSH2 0x488F PUSH2 0x59F5 JUMP JUMPDEST JUMPDEST PUSH1 0x0 PUSH2 0x489E DUP5 DUP3 DUP6 ADD PUSH2 0x47A0 JUMP JUMPDEST SWAP2 POP POP SWAP3 SWAP2 POP POP JUMP JUMPDEST PUSH1 0x0 PUSH1 0x20 DUP3 DUP5 SUB SLT ISZERO PUSH2 0x48BD JUMPI PUSH2 0x48BC PUSH2 0x59F5 JUMP JUMPDEST JUMPDEST PUSH1 0x0 PUSH2 0x48CB DUP5 DUP3 DUP6 ADD PUSH2 0x47B5 JUMP JUMPDEST SWAP2 POP POP SWAP3 SWAP2 POP POP JUMP JUMPDEST PUSH1 0x0 PUSH1 0x20 DUP3 DUP5 SUB SLT ISZERO PUSH2 0x48EA JUMPI PUSH2 0x48E9 PUSH2 0x59F5 JUMP JUMPDEST JUMPDEST PUSH1 0x0 DUP3 ADD CALLDATALOAD PUSH8 0xFFFFFFFFFFFFFFFF DUP2 GT ISZERO PUSH2 0x4908 JUMPI PUSH2 0x4907 PUSH2 0x59F0 JUMP JUMPDEST JUMPDEST PUSH2 0x4914 DUP5 DUP3 DUP6 ADD PUSH2 0x47CA JUMP JUMPDEST SWAP2 POP POP SWAP3 SWAP2 POP POP JUMP JUMPDEST PUSH1 0x0 DUP1 PUSH1 0x40 DUP4 DUP6 SUB SLT ISZERO PUSH2 0x4934 JUMPI PUSH2 0x4933 PUSH2 0x59F5 JUMP JUMPDEST JUMPDEST PUSH1 0x0 DUP4 ADD CALLDATALOAD PUSH8 0xFFFFFFFFFFFFFFFF DUP2 GT ISZERO PUSH2 0x4952 JUMPI PUSH2 0x4951 PUSH2 0x59F0 JUMP JUMPDEST JUMPDEST PUSH2 0x495E DUP6 DUP3 DUP7 ADD PUSH2 0x47CA JUMP JUMPDEST SWAP3 POP POP PUSH1 0x20 DUP4 ADD CALLDATALOAD PUSH8 0xFFFFFFFFFFFFFFFF DUP2 GT ISZERO PUSH2 0x497F JUMPI PUSH2 0x497E PUSH2 0x59F0 JUMP JUMPDEST JUMPDEST PUSH2 0x498B DUP6 DUP3 DUP7 ADD PUSH2 0x47CA JUMP JUMPDEST SWAP2 POP POP SWAP3 POP SWAP3 SWAP1 POP JUMP JUMPDEST PUSH1 0x0 DUP1 PUSH1 0x0 PUSH1 0x60 DUP5 DUP7 SUB SLT ISZERO PUSH2 0x49AE JUMPI PUSH2 0x49AD PUSH2 0x59F5 JUMP JUMPDEST JUMPDEST PUSH1 0x0 DUP5 ADD CALLDATALOAD PUSH8 0xFFFFFFFFFFFFFFFF DUP2 GT ISZERO PUSH2 0x49CC JUMPI PUSH2 0x49CB PUSH2 0x59F0 JUMP JUMPDEST JUMPDEST PUSH2 0x49D8 DUP7 DUP3 DUP8 ADD PUSH2 0x47CA JUMP JUMPDEST SWAP4 POP POP PUSH1 0x20 DUP5 ADD CALLDATALOAD PUSH8 0xFFFFFFFFFFFFFFFF DUP2 GT ISZERO PUSH2 0x49F9 JUMPI PUSH2 0x49F8 PUSH2 0x59F0 JUMP JUMPDEST JUMPDEST PUSH2 0x4A05 DUP7 DUP3 DUP8 ADD PUSH2 0x47CA JUMP JUMPDEST SWAP3 POP POP PUSH1 0x40 PUSH2 0x4A16 DUP7 DUP3 DUP8 ADD PUSH2 0x4776 JUMP JUMPDEST SWAP2 POP POP SWAP3 POP SWAP3 POP SWAP3 JUMP JUMPDEST PUSH1 0x0 PUSH1 0x20 DUP3 DUP5 SUB SLT ISZERO PUSH2 0x4A36 JUMPI PUSH2 0x4A35 PUSH2 0x59F5 JUMP JUMPDEST JUMPDEST PUSH1 0x0 PUSH2 0x4A44 DUP5 DUP3 DUP6 ADD PUSH2 0x47F8 JUMP JUMPDEST SWAP2 POP POP SWAP3 SWAP2 POP POP JUMP JUMPDEST PUSH1 0x0 PUSH2 0x4A59 DUP4 DUP4 PUSH2 0x4E76 JUMP JUMPDEST SWAP1 POP SWAP3 SWAP2 POP POP JUMP JUMPDEST PUSH1 0x0 PUSH2 0x4A6D DUP4 DUP4 PUSH2 0x4EFA JUMP JUMPDEST SWAP1 POP SWAP3 SWAP2 POP POP JUMP JUMPDEST PUSH1 0x0 PUSH2 0x4A81 DUP4 DUP4 PUSH2 0x4FCE JUMP JUMPDEST SWAP1 POP SWAP3 SWAP2 POP POP JUMP JUMPDEST PUSH1 0x0 PUSH2 0x4A95 DUP4 DUP4 PUSH2 0x5071 JUMP JUMPDEST SWAP1 POP SWAP3 SWAP2 POP POP JUMP JUMPDEST PUSH1 0x0 PUSH2 0x4AA9 DUP4 DUP4 PUSH2 0x5175 JUMP JUMPDEST SWAP1 POP SWAP3 SWAP2 POP POP JUMP JUMPDEST PUSH2 0x4ABA DUP2 PUSH2 0x577B JUMP JUMPDEST DUP3 MSTORE POP POP JUMP JUMPDEST PUSH2 0x4AC9 DUP2 PUSH2 0x577B JUMP JUMPDEST DUP3 MSTORE POP POP JUMP JUMPDEST PUSH1 0x0 PUSH2 0x4ADA DUP3 PUSH2 0x55EC JUMP JUMPDEST PUSH2 0x4AE4 DUP2 DUP6 PUSH2 0x566F JUMP JUMPDEST SWAP4 POP DUP4 PUSH1 0x20 DUP3 MUL DUP6 ADD PUSH2 0x4AF6 DUP6 PUSH2 0x5587 JUMP JUMPDEST DUP1 PUSH1 0x0 JUMPDEST DUP6 DUP2 LT ISZERO PUSH2 0x4B32 JUMPI DUP5 DUP5 SUB DUP10 MSTORE DUP2 MLOAD PUSH2 0x4B13 DUP6 DUP3 PUSH2 0x4A4D JUMP JUMPDEST SWAP5 POP PUSH2 0x4B1E DUP4 PUSH2 0x562E JUMP JUMPDEST SWAP3 POP PUSH1 0x20 DUP11 ADD SWAP10 POP POP PUSH1 0x1 DUP2 ADD SWAP1 POP PUSH2 0x4AFA JUMP JUMPDEST POP DUP3 SWAP8 POP DUP8 SWAP6 POP POP POP POP POP POP SWAP3 SWAP2 POP POP JUMP JUMPDEST PUSH1 0x0 PUSH2 0x4B4F DUP3 PUSH2 0x55F7 JUMP JUMPDEST PUSH2 0x4B59 DUP2 DUP6 PUSH2 0x5680 JUMP JUMPDEST SWAP4 POP DUP4 PUSH1 0x20 DUP3 MUL DUP6 ADD PUSH2 0x4B6B DUP6 PUSH2 0x5597 JUMP JUMPDEST DUP1 PUSH1 0x0 JUMPDEST DUP6 DUP2 LT ISZERO PUSH2 0x4BA7 JUMPI DUP5 DUP5 SUB DUP10 MSTORE DUP2 MLOAD PUSH2 0x4B88 DUP6 DUP3 PUSH2 0x4A61 JUMP JUMPDEST SWAP5 POP PUSH2 0x4B93 DUP4 PUSH2 0x563B JUMP JUMPDEST SWAP3 POP PUSH1 0x20 DUP11 ADD SWAP10 POP POP PUSH1 0x1 DUP2 ADD SWAP1 POP PUSH2 0x4B6F JUMP JUMPDEST POP DUP3 SWAP8 POP DUP8 SWAP6 POP POP POP POP POP POP SWAP3 SWAP2 POP POP JUMP JUMPDEST PUSH1 0x0 PUSH2 0x4BC4 DUP3 PUSH2 0x5602 JUMP JUMPDEST PUSH2 0x4BCE DUP2 DUP6 PUSH2 0x5691 JUMP JUMPDEST SWAP4 POP DUP4 PUSH1 0x20 DUP3 MUL DUP6 ADD PUSH2 0x4BE0 DUP6 PUSH2 0x55A7 JUMP JUMPDEST DUP1 PUSH1 0x0 JUMPDEST DUP6 DUP2 LT ISZERO PUSH2 0x4C1C JUMPI DUP5 DUP5 SUB DUP10 MSTORE DUP2 MLOAD PUSH2 0x4BFD DUP6 DUP3 PUSH2 0x4A75 JUMP JUMPDEST SWAP5 POP PUSH2 0x4C08 DUP4 PUSH2 0x5648 JUMP JUMPDEST SWAP3 POP PUSH1 0x20 DUP11 ADD SWAP10 POP POP PUSH1 0x1 DUP2 ADD SWAP1 POP PUSH2 0x4BE4 JUMP JUMPDEST POP DUP3 SWAP8 POP DUP8 SWAP6 POP POP POP POP POP POP SWAP3 SWAP2 POP POP JUMP JUMPDEST PUSH1 0x0 PUSH2 0x4C39 DUP3 PUSH2 0x560D JUMP JUMPDEST PUSH2 0x4C43 DUP2 DUP6 PUSH2 0x56A2 JUMP JUMPDEST SWAP4 POP DUP4 PUSH1 0x20 DUP3 MUL DUP6 ADD PUSH2 0x4C55 DUP6 PUSH2 0x55B7 JUMP JUMPDEST DUP1 PUSH1 0x0 JUMPDEST DUP6 DUP2 LT ISZERO PUSH2 0x4C91 JUMPI DUP5 DUP5 SUB DUP10 MSTORE DUP2 MLOAD PUSH2 0x4C72 DUP6 DUP3 PUSH2 0x4A89 JUMP JUMPDEST SWAP5 POP PUSH2 0x4C7D DUP4 PUSH2 0x5655 JUMP JUMPDEST SWAP3 POP PUSH1 0x20 DUP11 ADD SWAP10 POP POP PUSH1 0x1 DUP2 ADD SWAP1 POP PUSH2 0x4C59 JUMP JUMPDEST POP DUP3 SWAP8 POP DUP8 SWAP6 POP POP POP POP POP POP SWAP3 SWAP2 POP POP JUMP JUMPDEST PUSH1 0x0 PUSH2 0x4CAE DUP3 PUSH2 0x5618 JUMP JUMPDEST PUSH2 0x4CB8 DUP2 DUP6 PUSH2 0x56B3 JUMP JUMPDEST SWAP4 POP DUP4 PUSH1 0x20 DUP3 MUL DUP6 ADD PUSH2 0x4CCA DUP6 PUSH2 0x55C7 JUMP JUMPDEST DUP1 PUSH1 0x0 JUMPDEST DUP6 DUP2 LT ISZERO PUSH2 0x4D06 JUMPI DUP5 DUP5 SUB DUP10 MSTORE DUP2 MLOAD PUSH2 0x4CE7 DUP6 DUP3 PUSH2 0x4A9D JUMP JUMPDEST SWAP5 POP PUSH2 0x4CF2 DUP4 PUSH2 0x5662 JUMP JUMPDEST SWAP3 POP PUSH1 0x20 DUP11 ADD SWAP10 POP POP PUSH1 0x1 DUP2 ADD SWAP1 POP PUSH2 0x4CCE JUMP JUMPDEST POP DUP3 SWAP8 POP DUP8 SWAP6 POP POP POP POP POP POP SWAP3 SWAP2 POP POP JUMP JUMPDEST PUSH2 0x4D21 DUP2 PUSH2 0x578D JUMP JUMPDEST DUP3 MSTORE POP POP JUMP JUMPDEST PUSH2 0x4D30 DUP2 PUSH2 0x57E9 JUMP JUMPDEST DUP3 MSTORE POP POP JUMP JUMPDEST PUSH2 0x4D3F DUP2 PUSH2 0x57FB JUMP JUMPDEST DUP3 MSTORE POP POP JUMP JUMPDEST PUSH2 0x4D4E DUP2 PUSH2 0x57FB JUMP JUMPDEST DUP3 MSTORE POP POP JUMP JUMPDEST PUSH1 0x0 PUSH2 0x4D5F DUP3 PUSH2 0x5623 JUMP JUMPDEST PUSH2 0x4D69 DUP2 DUP6 PUSH2 0x56C4 JUMP JUMPDEST SWAP4 POP PUSH2 0x4D79 DUP2 DUP6 PUSH1 0x20 DUP7 ADD PUSH2 0x581C JUMP JUMPDEST PUSH2 0x4D82 DUP2 PUSH2 0x59FA JUMP JUMPDEST DUP5 ADD SWAP2 POP POP SWAP3 SWAP2 POP POP JUMP JUMPDEST PUSH1 0x0 PUSH2 0x4D98 DUP3 PUSH2 0x5623 JUMP JUMPDEST PUSH2 0x4DA2 DUP2 DUP6 PUSH2 0x56D5 JUMP JUMPDEST SWAP4 POP PUSH2 0x4DB2 DUP2 DUP6 PUSH1 0x20 DUP7 ADD PUSH2 0x581C JUMP JUMPDEST PUSH2 0x4DBB DUP2 PUSH2 0x59FA JUMP JUMPDEST DUP5 ADD SWAP2 POP POP SWAP3 SWAP2 POP POP JUMP JUMPDEST PUSH1 0x0 PUSH2 0x4DD1 DUP3 PUSH2 0x5623 JUMP JUMPDEST PUSH2 0x4DDB DUP2 DUP6 PUSH2 0x56E6 JUMP JUMPDEST SWAP4 POP PUSH2 0x4DEB DUP2 DUP6 PUSH1 0x20 DUP7 ADD PUSH2 0x581C JUMP JUMPDEST DUP1 DUP5 ADD SWAP2 POP POP SWAP3 SWAP2 POP POP JUMP JUMPDEST PUSH1 0x0 DUP2 SLOAD PUSH2 0x4E04 DUP2 PUSH2 0x584F JUMP JUMPDEST PUSH2 0x4E0E DUP2 DUP7 PUSH2 0x56E6 JUMP JUMPDEST SWAP5 POP PUSH1 0x1 DUP3 AND PUSH1 0x0 DUP2 EQ PUSH2 0x4E29 JUMPI PUSH1 0x1 DUP2 EQ PUSH2 0x4E3A JUMPI PUSH2 0x4E6D JUMP JUMPDEST PUSH1 0xFF NOT DUP4 AND DUP7 MSTORE DUP2 DUP7 ADD SWAP4 POP PUSH2 0x4E6D JUMP JUMPDEST PUSH2 0x4E43 DUP6 PUSH2 0x55D7 JUMP JUMPDEST PUSH1 0x0 JUMPDEST DUP4 DUP2 LT ISZERO PUSH2 0x4E65 JUMPI DUP2 SLOAD DUP2 DUP10 ADD MSTORE PUSH1 0x1 DUP3 ADD SWAP2 POP PUSH1 0x20 DUP2 ADD SWAP1 POP PUSH2 0x4E46 JUMP JUMPDEST DUP4 DUP9 ADD SWAP6 POP POP POP JUMPDEST POP POP POP SWAP3 SWAP2 POP POP JUMP JUMPDEST PUSH1 0x0 PUSH1 0xA0 DUP4 ADD PUSH1 0x0 DUP4 ADD MLOAD DUP5 DUP3 SUB PUSH1 0x0 DUP7 ADD MSTORE PUSH2 0x4E93 DUP3 DUP3 PUSH2 0x4D54 JUMP JUMPDEST SWAP2 POP POP PUSH1 0x20 DUP4 ADD MLOAD PUSH2 0x4EA8 PUSH1 0x20 DUP7 ADD DUP3 PUSH2 0x4AB1 JUMP JUMPDEST POP PUSH1 0x40 DUP4 ADD MLOAD PUSH2 0x4EBB PUSH1 0x40 DUP7 ADD DUP3 PUSH2 0x4D27 JUMP JUMPDEST POP PUSH1 0x60 DUP4 ADD MLOAD DUP5 DUP3 SUB PUSH1 0x60 DUP7 ADD MSTORE PUSH2 0x4ED3 DUP3 DUP3 PUSH2 0x4D54 JUMP JUMPDEST SWAP2 POP POP PUSH1 0x80 DUP4 ADD MLOAD DUP5 DUP3 SUB PUSH1 0x80 DUP7 ADD MSTORE PUSH2 0x4EED DUP3 DUP3 PUSH2 0x4D54 JUMP JUMPDEST SWAP2 POP POP DUP1 SWAP2 POP POP SWAP3 SWAP2 POP POP JUMP JUMPDEST PUSH1 0x0 PUSH1 0x80 DUP4 ADD PUSH1 0x0 DUP4 ADD MLOAD DUP5 DUP3 SUB PUSH1 0x0 DUP7 ADD MSTORE PUSH2 0x4F17 DUP3 DUP3 PUSH2 0x4D54 JUMP JUMPDEST SWAP2 POP POP PUSH1 0x20 DUP4 ADD MLOAD PUSH2 0x4F2C PUSH1 0x20 DUP7 ADD DUP3 PUSH2 0x4AB1 JUMP JUMPDEST POP PUSH1 0x40 DUP4 ADD MLOAD PUSH2 0x4F3F PUSH1 0x40 DUP7 ADD DUP3 PUSH2 0x4D27 JUMP JUMPDEST POP PUSH1 0x60 DUP4 ADD MLOAD DUP5 DUP3 SUB PUSH1 0x60 DUP7 ADD MSTORE PUSH2 0x4F57 DUP3 DUP3 PUSH2 0x4D54 JUMP JUMPDEST SWAP2 POP POP DUP1 SWAP2 POP POP SWAP3 SWAP2 POP POP JUMP JUMPDEST PUSH1 0x0 PUSH1 0x80 DUP4 ADD PUSH1 0x0 DUP4 ADD MLOAD DUP5 DUP3 SUB PUSH1 0x0 DUP7 ADD MSTORE PUSH2 0x4F81 DUP3 DUP3 PUSH2 0x4D54 JUMP JUMPDEST SWAP2 POP POP PUSH1 0x20 DUP4 ADD MLOAD PUSH2 0x4F96 PUSH1 0x20 DUP7 ADD DUP3 PUSH2 0x4AB1 JUMP JUMPDEST POP PUSH1 0x40 DUP4 ADD MLOAD PUSH2 0x4FA9 PUSH1 0x40 DUP7 ADD DUP3 PUSH2 0x4D27 JUMP JUMPDEST POP PUSH1 0x60 DUP4 ADD MLOAD DUP5 DUP3 SUB PUSH1 0x60 DUP7 ADD MSTORE PUSH2 0x4FC1 DUP3 DUP3 PUSH2 0x4D54 JUMP JUMPDEST SWAP2 POP POP DUP1 SWAP2 POP POP SWAP3 SWAP2 POP POP JUMP JUMPDEST PUSH1 0x0 PUSH1 0xE0 DUP4 ADD PUSH1 0x0 DUP4 ADD MLOAD DUP5 DUP3 SUB PUSH1 0x0 DUP7 ADD MSTORE PUSH2 0x4FEB DUP3 DUP3 PUSH2 0x4D54 JUMP JUMPDEST SWAP2 POP POP PUSH1 0x20 DUP4 ADD MLOAD DUP5 DUP3 SUB PUSH1 0x20 DUP7 ADD MSTORE PUSH2 0x5005 DUP3 DUP3 PUSH2 0x4D54 JUMP JUMPDEST SWAP2 POP POP PUSH1 0x40 DUP4 ADD MLOAD PUSH2 0x501A PUSH1 0x40 DUP7 ADD DUP3 PUSH2 0x52D7 JUMP JUMPDEST POP PUSH1 0x60 DUP4 ADD MLOAD PUSH2 0x502D PUSH1 0x60 DUP7 ADD DUP3 PUSH2 0x4AB1 JUMP JUMPDEST POP PUSH1 0x80 DUP4 ADD MLOAD PUSH2 0x5040 PUSH1 0x80 DUP7 ADD DUP3 PUSH2 0x4AB1 JUMP JUMPDEST POP PUSH1 0xA0 DUP4 ADD MLOAD PUSH2 0x5053 PUSH1 0xA0 DUP7 ADD DUP3 PUSH2 0x52D7 JUMP JUMPDEST POP PUSH1 0xC0 DUP4 ADD MLOAD PUSH2 0x5066 PUSH1 0xC0 DUP7 ADD DUP3 PUSH2 0x52D7 JUMP JUMPDEST POP DUP1 SWAP2 POP POP SWAP3 SWAP2 POP POP JUMP JUMPDEST PUSH1 0x0 PUSH2 0x160 DUP4 ADD PUSH1 0x0 DUP4 ADD MLOAD DUP5 DUP3 SUB PUSH1 0x0 DUP7 ADD MSTORE PUSH2 0x508F DUP3 DUP3 PUSH2 0x4D54 JUMP JUMPDEST SWAP2 POP POP PUSH1 0x20 DUP4 ADD MLOAD DUP5 DUP3 SUB PUSH1 0x20 DUP7 ADD MSTORE PUSH2 0x50A9 DUP3 DUP3 PUSH2 0x4D54 JUMP JUMPDEST SWAP2 POP POP PUSH1 0x40 DUP4 ADD MLOAD PUSH2 0x50BE PUSH1 0x40 DUP7 ADD DUP3 PUSH2 0x52D7 JUMP JUMPDEST POP PUSH1 0x60 DUP4 ADD MLOAD PUSH2 0x50D1 PUSH1 0x60 DUP7 ADD DUP3 PUSH2 0x4AB1 JUMP JUMPDEST POP PUSH1 0x80 DUP4 ADD MLOAD DUP5 DUP3 SUB PUSH1 0x80 DUP7 ADD MSTORE PUSH2 0x50E9 DUP3 DUP3 PUSH2 0x4D54 JUMP JUMPDEST SWAP2 POP POP PUSH1 0xA0 DUP4 ADD MLOAD PUSH2 0x50FE PUSH1 0xA0 DUP7 ADD DUP3 PUSH2 0x4D36 JUMP JUMPDEST POP PUSH1 0xC0 DUP4 ADD MLOAD PUSH2 0x5111 PUSH1 0xC0 DUP7 ADD DUP3 PUSH2 0x4AB1 JUMP JUMPDEST POP PUSH1 0xE0 DUP4 ADD MLOAD DUP5 DUP3 SUB PUSH1 0xE0 DUP7 ADD MSTORE PUSH2 0x5129 DUP3 DUP3 PUSH2 0x4D54 JUMP JUMPDEST SWAP2 POP POP PUSH2 0x100 DUP4 ADD MLOAD PUSH2 0x5140 PUSH2 0x100 DUP7 ADD DUP3 PUSH2 0x4D36 JUMP JUMPDEST POP PUSH2 0x120 DUP4 ADD MLOAD PUSH2 0x5155 PUSH2 0x120 DUP7 ADD DUP3 PUSH2 0x52D7 JUMP JUMPDEST POP PUSH2 0x140 DUP4 ADD MLOAD PUSH2 0x516A PUSH2 0x140 DUP7 ADD DUP3 PUSH2 0x52D7 JUMP JUMPDEST POP DUP1 SWAP2 POP POP SWAP3 SWAP2 POP POP JUMP JUMPDEST PUSH1 0x0 PUSH1 0xE0 DUP4 ADD PUSH1 0x0 DUP4 ADD MLOAD DUP5 DUP3 SUB PUSH1 0x0 DUP7 ADD MSTORE PUSH2 0x5192 DUP3 DUP3 PUSH2 0x4D54 JUMP JUMPDEST SWAP2 POP POP PUSH1 0x20 DUP4 ADD MLOAD DUP5 DUP3 SUB PUSH1 0x20 DUP7 ADD MSTORE PUSH2 0x51AC DUP3 DUP3 PUSH2 0x4D54 JUMP JUMPDEST SWAP2 POP POP PUSH1 0x40 DUP4 ADD MLOAD PUSH2 0x51C1 PUSH1 0x40 DUP7 ADD DUP3 PUSH2 0x4D36 JUMP JUMPDEST POP PUSH1 0x60 DUP4 ADD MLOAD PUSH2 0x51D4 PUSH1 0x60 DUP7 ADD DUP3 PUSH2 0x4D27 JUMP JUMPDEST POP PUSH1 0x80 DUP4 ADD MLOAD DUP5 DUP3 SUB PUSH1 0x80 DUP7 ADD MSTORE PUSH2 0x51EC DUP3 DUP3 PUSH2 0x4D54 JUMP JUMPDEST SWAP2 POP POP PUSH1 0xA0 DUP4 ADD MLOAD DUP5 DUP3 SUB PUSH1 0xA0 DUP7 ADD MSTORE PUSH2 0x5206 DUP3 DUP3 PUSH2 0x4D54 JUMP JUMPDEST SWAP2 POP POP PUSH1 0xC0 DUP4 ADD MLOAD PUSH2 0x521B PUSH1 0xC0 DUP7 ADD DUP3 PUSH2 0x4AB1 JUMP JUMPDEST POP DUP1 SWAP2 POP POP SWAP3 SWAP2 POP POP JUMP JUMPDEST PUSH1 0x0 PUSH1 0xE0 DUP4 ADD PUSH1 0x0 DUP4 ADD MLOAD DUP5 DUP3 SUB PUSH1 0x0 DUP7 ADD MSTORE PUSH2 0x5243 DUP3 DUP3 PUSH2 0x4D54 JUMP JUMPDEST SWAP2 POP POP PUSH1 0x20 DUP4 ADD MLOAD DUP5 DUP3 SUB PUSH1 0x20 DUP7 ADD MSTORE PUSH2 0x525D DUP3 DUP3 PUSH2 0x4D54 JUMP JUMPDEST SWAP2 POP POP PUSH1 0x40 DUP4 ADD MLOAD PUSH2 0x5272 PUSH1 0x40 DUP7 ADD DUP3 PUSH2 0x4D36 JUMP JUMPDEST POP PUSH1 0x60 DUP4 ADD MLOAD PUSH2 0x5285 PUSH1 0x60 DUP7 ADD DUP3 PUSH2 0x4D27 JUMP JUMPDEST POP PUSH1 0x80 DUP4 ADD MLOAD DUP5 DUP3 SUB PUSH1 0x80 DUP7 ADD MSTORE PUSH2 0x529D DUP3 DUP3 PUSH2 0x4D54 JUMP JUMPDEST SWAP2 POP POP PUSH1 0xA0 DUP4 ADD MLOAD DUP5 DUP3 SUB PUSH1 0xA0 DUP7 ADD MSTORE PUSH2 0x52B7 DUP3 DUP3 PUSH2 0x4D54 JUMP JUMPDEST SWAP2 POP POP PUSH1 0xC0 DUP4 ADD MLOAD PUSH2 0x52CC PUSH1 0xC0 DUP7 ADD DUP3 PUSH2 0x4AB1 JUMP JUMPDEST POP DUP1 SWAP2 POP POP SWAP3 SWAP2 POP POP JUMP JUMPDEST PUSH2 0x52E0 DUP2 PUSH2 0x57DF JUMP JUMPDEST DUP3 MSTORE POP POP JUMP JUMPDEST PUSH2 0x52EF DUP2 PUSH2 0x57DF JUMP JUMPDEST DUP3 MSTORE POP POP JUMP JUMPDEST PUSH1 0x0 PUSH2 0x5301 DUP3 DUP5 PUSH2 0x4DC6 JUMP JUMPDEST SWAP2 POP DUP2 SWAP1 POP SWAP3 SWAP2 POP POP JUMP JUMPDEST PUSH1 0x0 PUSH2 0x5318 DUP3 DUP5 PUSH2 0x4DF7 JUMP JUMPDEST SWAP2 POP DUP2 SWAP1 POP SWAP3 SWAP2 POP POP JUMP JUMPDEST PUSH1 0x0 PUSH1 0x20 DUP3 ADD SWAP1 POP PUSH2 0x5338 PUSH1 0x0 DUP4 ADD DUP5 PUSH2 0x4AC0 JUMP JUMPDEST SWAP3 SWAP2 POP POP JUMP JUMPDEST PUSH1 0x0 PUSH1 0x60 DUP3 ADD SWAP1 POP PUSH2 0x5353 PUSH1 0x0 DUP4 ADD DUP7 PUSH2 0x4AC0 JUMP JUMPDEST PUSH2 0x5360 PUSH1 0x20 DUP4 ADD DUP6 PUSH2 0x4AC0 JUMP JUMPDEST PUSH2 0x536D PUSH1 0x40 DUP4 ADD DUP5 PUSH2 0x4D18 JUMP JUMPDEST SWAP5 SWAP4 POP POP POP POP JUMP JUMPDEST PUSH1 0x0 PUSH1 0x20 DUP3 ADD SWAP1 POP DUP2 DUP2 SUB PUSH1 0x0 DUP4 ADD MSTORE PUSH2 0x538F DUP2 DUP5 PUSH2 0x4ACF JUMP JUMPDEST SWAP1 POP SWAP3 SWAP2 POP POP JUMP JUMPDEST PUSH1 0x0 PUSH1 0x20 DUP3 ADD SWAP1 POP DUP2 DUP2 SUB PUSH1 0x0 DUP4 ADD MSTORE PUSH2 0x53B1 DUP2 DUP5 PUSH2 0x4B44 JUMP JUMPDEST SWAP1 POP SWAP3 SWAP2 POP POP JUMP JUMPDEST PUSH1 0x0 PUSH1 0x20 DUP3 ADD SWAP1 POP DUP2 DUP2 SUB PUSH1 0x0 DUP4 ADD MSTORE PUSH2 0x53D3 DUP2 DUP5 PUSH2 0x4BB9 JUMP JUMPDEST SWAP1 POP SWAP3 SWAP2 POP POP JUMP JUMPDEST PUSH1 0x0 PUSH1 0x20 DUP3 ADD SWAP1 POP DUP2 DUP2 SUB PUSH1 0x0 DUP4 ADD MSTORE PUSH2 0x53F5 DUP2 DUP5 PUSH2 0x4C2E JUMP JUMPDEST SWAP1 POP SWAP3 SWAP2 POP POP JUMP JUMPDEST PUSH1 0x0 PUSH1 0x20 DUP3 ADD SWAP1 POP DUP2 DUP2 SUB PUSH1 0x0 DUP4 ADD MSTORE PUSH2 0x5417 DUP2 DUP5 PUSH2 0x4CA3 JUMP JUMPDEST SWAP1 POP SWAP3 SWAP2 POP POP JUMP JUMPDEST PUSH1 0x0 PUSH1 0x20 DUP3 ADD SWAP1 POP PUSH2 0x5434 PUSH1 0x0 DUP4 ADD DUP5 PUSH2 0x4D18 JUMP JUMPDEST SWAP3 SWAP2 POP POP JUMP JUMPDEST PUSH1 0x0 PUSH1 0x20 DUP3 ADD SWAP1 POP PUSH2 0x544F PUSH1 0x0 DUP4 ADD DUP5 PUSH2 0x4D45 JUMP JUMPDEST SWAP3 SWAP2 POP POP JUMP JUMPDEST PUSH1 0x0 PUSH1 0xE0 DUP3 ADD SWAP1 POP DUP2 DUP2 SUB PUSH1 0x0 DUP4 ADD MSTORE PUSH2 0x546F DUP2 DUP11 PUSH2 0x4D8D JUMP JUMPDEST SWAP1 POP DUP2 DUP2 SUB PUSH1 0x20 DUP4 ADD MSTORE PUSH2 0x5483 DUP2 DUP10 PUSH2 0x4D8D JUMP JUMPDEST SWAP1 POP PUSH2 0x5492 PUSH1 0x40 DUP4 ADD DUP9 PUSH2 0x52E6 JUMP JUMPDEST PUSH2 0x549F PUSH1 0x60 DUP4 ADD DUP8 PUSH2 0x4AC0 JUMP JUMPDEST PUSH2 0x54AC PUSH1 0x80 DUP4 ADD DUP7 PUSH2 0x4AC0 JUMP JUMPDEST PUSH2 0x54B9 PUSH1 0xA0 DUP4 ADD DUP6 PUSH2 0x52E6 JUMP JUMPDEST PUSH2 0x54C6 PUSH1 0xC0 DUP4 ADD DUP5 PUSH2 0x52E6 JUMP JUMPDEST SWAP9 SWAP8 POP POP POP POP POP POP POP POP JUMP JUMPDEST PUSH1 0x0 PUSH1 0x20 DUP3 ADD SWAP1 POP DUP2 DUP2 SUB PUSH1 0x0 DUP4 ADD MSTORE PUSH2 0x54EC DUP2 DUP5 PUSH2 0x4F64 JUMP JUMPDEST SWAP1 POP SWAP3 SWAP2 POP POP JUMP JUMPDEST PUSH1 0x0 PUSH1 0x20 DUP3 ADD SWAP1 POP DUP2 DUP2 SUB PUSH1 0x0 DUP4 ADD MSTORE PUSH2 0x550E DUP2 DUP5 PUSH2 0x5226 JUMP JUMPDEST SWAP1 POP SWAP3 SWAP2 POP POP JUMP JUMPDEST PUSH1 0x0 PUSH1 0x20 DUP3 ADD SWAP1 POP PUSH2 0x552B PUSH1 0x0 DUP4 ADD DUP5 PUSH2 0x52E6 JUMP JUMPDEST SWAP3 SWAP2 POP POP JUMP JUMPDEST PUSH1 0x0 PUSH2 0x553B PUSH2 0x554C JUMP JUMPDEST SWAP1 POP PUSH2 0x5547 DUP3 DUP3 PUSH2 0x5881 JUMP JUMPDEST SWAP2 SWAP1 POP JUMP JUMPDEST PUSH1 0x0 PUSH1 0x40 MLOAD SWAP1 POP SWAP1 JUMP JUMPDEST PUSH1 0x0 PUSH8 0xFFFFFFFFFFFFFFFF DUP3 GT ISZERO PUSH2 0x5571 JUMPI PUSH2 0x5570 PUSH2 0x59B7 JUMP JUMPDEST JUMPDEST PUSH2 0x557A DUP3 PUSH2 0x59FA JUMP JUMPDEST SWAP1 POP PUSH1 0x20 DUP2 ADD SWAP1 POP SWAP2 SWAP1 POP JUMP JUMPDEST PUSH1 0x0 DUP2 SWAP1 POP PUSH1 0x20 DUP3 ADD SWAP1 POP SWAP2 SWAP1 POP JUMP JUMPDEST PUSH1 0x0 DUP2 SWAP1 POP PUSH1 0x20 DUP3 ADD SWAP1 POP SWAP2 SWAP1 POP JUMP JUMPDEST PUSH1 0x0 DUP2 SWAP1 POP PUSH1 0x20 DUP3 ADD SWAP1 POP SWAP2 SWAP1 POP JUMP JUMPDEST PUSH1 0x0 DUP2 SWAP1 POP PUSH1 0x20 DUP3 ADD SWAP1 POP SWAP2 SWAP1 POP JUMP JUMPDEST PUSH1 0x0 DUP2 SWAP1 POP PUSH1 0x20 DUP3 ADD SWAP1 POP SWAP2 SWAP1 POP JUMP JUMPDEST PUSH1 0x0 DUP2 SWAP1 POP DUP2 PUSH1 0x0 MSTORE PUSH1 0x20 PUSH1 0x0 KECCAK256 SWAP1 POP SWAP2 SWAP1 POP JUMP JUMPDEST PUSH1 0x0 DUP2 MLOAD SWAP1 POP SWAP2 SWAP1 POP JUMP JUMPDEST PUSH1 0x0 DUP2 MLOAD SWAP1 POP SWAP2 SWAP1 POP JUMP JUMPDEST PUSH1 0x0 DUP2 MLOAD SWAP1 POP SWAP2 SWAP1 POP JUMP JUMPDEST PUSH1 0x0 DUP2 MLOAD SWAP1 POP SWAP2 SWAP1 POP JUMP JUMPDEST PUSH1 0x0 DUP2 MLOAD SWAP1 POP SWAP2 SWAP1 POP JUMP JUMPDEST PUSH1 0x0 DUP2 MLOAD SWAP1 POP SWAP2 SWAP1 POP JUMP JUMPDEST PUSH1 0x0 PUSH1 0x20 DUP3 ADD SWAP1 POP SWAP2 SWAP1 POP JUMP JUMPDEST PUSH1 0x0 PUSH1 0x20 DUP3 ADD SWAP1 POP SWAP2 SWAP1 POP JUMP JUMPDEST PUSH1 0x0 PUSH1 0x20 DUP3 ADD SWAP1 POP SWAP2 SWAP1 POP JUMP JUMPDEST PUSH1 0x0 PUSH1 0x20 DUP3 ADD SWAP1 POP SWAP2 SWAP1 POP JUMP JUMPDEST PUSH1 0x0 PUSH1 0x20 DUP3 ADD SWAP1 POP SWAP2 SWAP1 POP JUMP JUMPDEST PUSH1 0x0 DUP3 DUP3 MSTORE PUSH1 0x20 DUP3 ADD SWAP1 POP SWAP3 SWAP2 POP POP JUMP JUMPDEST PUSH1 0x0 DUP3 DUP3 MSTORE PUSH1 0x20 DUP3 ADD SWAP1 POP SWAP3 SWAP2 POP POP JUMP JUMPDEST PUSH1 0x0 DUP3 DUP3 MSTORE PUSH1 0x20 DUP3 ADD SWAP1 POP SWAP3 SWAP2 POP POP JUMP JUMPDEST PUSH1 0x0 DUP3 DUP3 MSTORE PUSH1 0x20 DUP3 ADD SWAP1 POP SWAP3 SWAP2 POP POP JUMP JUMPDEST PUSH1 0x0 DUP3 DUP3 MSTORE PUSH1 0x20 DUP3 ADD SWAP1 POP SWAP3 SWAP2 POP POP JUMP JUMPDEST PUSH1 0x0 DUP3 DUP3 MSTORE PUSH1 0x20 DUP3 ADD SWAP1 POP SWAP3 SWAP2 POP POP JUMP JUMPDEST PUSH1 0x0 DUP3 DUP3 MSTORE PUSH1 0x20 DUP3 ADD SWAP1 POP SWAP3 SWAP2 POP POP JUMP JUMPDEST PUSH1 0x0 DUP2 SWAP1 POP SWAP3 SWAP2 POP POP JUMP JUMPDEST PUSH1 0x0 PUSH2 0x56FC DUP3 PUSH2 0x57DF JUMP JUMPDEST SWAP2 POP PUSH2 0x5707 DUP4 PUSH2 0x57DF JUMP JUMPDEST SWAP3 POP DUP3 PUSH32 0xFFFFFFFFFFFFFFFFFFFFFFFFFFFFFFFFFFFFFFFFFFFFFFFFFFFFFFFFFFFFFFFF SUB DUP3 GT ISZERO PUSH2 0x573C JUMPI PUSH2 0x573B PUSH2 0x58FB JUMP JUMPDEST JUMPDEST DUP3 DUP3 ADD SWAP1 POP SWAP3 SWAP2 POP POP JUMP JUMPDEST PUSH1 0x0 PUSH2 0x5752 DUP3 PUSH2 0x57DF JUMP JUMPDEST SWAP2 POP PUSH2 0x575D DUP4 PUSH2 0x57DF JUMP JUMPDEST SWAP3 POP DUP3 DUP3 LT ISZERO PUSH2 0x5770 JUMPI PUSH2 0x576F PUSH2 0x58FB JUMP JUMPDEST JUMPDEST DUP3 DUP3 SUB SWAP1 POP SWAP3 SWAP2 POP POP JUMP JUMPDEST PUSH1 0x0 PUSH2 0x5786 DUP3 PUSH2 0x57BF JUMP JUMPDEST SWAP1 POP SWAP2 SWAP1 POP JUMP JUMPDEST PUSH1 0x0 DUP2 ISZERO ISZERO SWAP1 POP SWAP2 SWAP1 POP JUMP JUMPDEST PUSH1 0x0 DUP2 SWAP1 POP PUSH2 0x57A7 DUP3 PUSH2 0x5A0B JUMP JUMPDEST SWAP2 SWAP1 POP JUMP JUMPDEST PUSH1 0x0 DUP2 SWAP1 POP PUSH2 0x57BA DUP3 PUSH2 0x5A1F JUMP JUMPDEST SWAP2 SWAP1 POP JUMP JUMPDEST PUSH1 0x0 PUSH20 0xFFFFFFFFFFFFFFFFFFFFFFFFFFFFFFFFFFFFFFFF DUP3 AND SWAP1 POP SWAP2 SWAP1 POP JUMP JUMPDEST PUSH1 0x0 DUP2 SWAP1 POP SWAP2 SWAP1 POP JUMP JUMPDEST PUSH1 0x0 PUSH2 0x57F4 DUP3 PUSH2 0x5799 JUMP JUMPDEST SWAP1 POP SWAP2 SWAP1 POP JUMP JUMPDEST PUSH1 0x0 PUSH2 0x5806 DUP3 PUSH2 0x57AC JUMP JUMPDEST SWAP1 POP SWAP2 SWAP1 POP JUMP JUMPDEST DUP3 DUP2 DUP4 CALLDATACOPY PUSH1 0x0 DUP4 DUP4 ADD MSTORE POP POP POP JUMP JUMPDEST PUSH1 0x0 JUMPDEST DUP4 DUP2 LT ISZERO PUSH2 0x583A JUMPI DUP1 DUP3 ADD MLOAD DUP2 DUP5 ADD MSTORE PUSH1 0x20 DUP2 ADD SWAP1 POP PUSH2 0x581F JUMP JUMPDEST DUP4 DUP2 GT ISZERO PUSH2 0x5849 JUMPI PUSH1 0x0 DUP5 DUP5 ADD MSTORE JUMPDEST POP POP POP POP JUMP JUMPDEST PUSH1 0x0 PUSH1 0x2 DUP3 DIV SWAP1 POP PUSH1 0x1 DUP3 AND DUP1 PUSH2 0x5867 JUMPI PUSH1 0x7F DUP3 AND SWAP2 POP JUMPDEST PUSH1 0x20 DUP3 LT DUP2 EQ ISZERO PUSH2 0x587B JUMPI PUSH2 0x587A PUSH2 0x5959 JUMP JUMPDEST JUMPDEST POP SWAP2 SWAP1 POP JUMP JUMPDEST PUSH2 0x588A DUP3 PUSH2 0x59FA JUMP JUMPDEST DUP2 ADD DUP2 DUP2 LT PUSH8 0xFFFFFFFFFFFFFFFF DUP3 GT OR ISZERO PUSH2 0x58A9 JUMPI PUSH2 0x58A8 PUSH2 0x59B7 JUMP JUMPDEST JUMPDEST DUP1 PUSH1 0x40 MSTORE POP POP POP JUMP JUMPDEST PUSH1 0x0 PUSH2 0x58BD DUP3 PUSH2 0x57DF JUMP JUMPDEST SWAP2 POP PUSH32 0xFFFFFFFFFFFFFFFFFFFFFFFFFFFFFFFFFFFFFFFFFFFFFFFFFFFFFFFFFFFFFFFF DUP3 EQ ISZERO PUSH2 0x58F0 JUMPI PUSH2 0x58EF PUSH2 0x58FB JUMP JUMPDEST JUMPDEST PUSH1 0x1 DUP3 ADD SWAP1 POP SWAP2 SWAP1 POP JUMP JUMPDEST PUSH32 0x4E487B7100000000000000000000000000000000000000000000000000000000 PUSH1 0x0 MSTORE PUSH1 0x11 PUSH1 0x4 MSTORE PUSH1 0x24 PUSH1 0x0 REVERT JUMPDEST PUSH32 0x4E487B7100000000000000000000000000000000000000000000000000000000 PUSH1 0x0 MSTORE PUSH1 0x21 PUSH1 0x4 MSTORE PUSH1 0x24 PUSH1 0x0 REVERT JUMPDEST PUSH32 0x4E487B7100000000000000000000000000000000000000000000000000000000 PUSH1 0x0 MSTORE PUSH1 0x22 PUSH1 0x4 MSTORE PUSH1 0x24 PUSH1 0x0 REVERT JUMPDEST PUSH32 0x4E487B7100000000000000000000000000000000000000000000000000000000 PUSH1 0x0 MSTORE PUSH1 0x32 PUSH1 0x4 MSTORE PUSH1 0x24 PUSH1 0x0 REVERT JUMPDEST PUSH32 0x4E487B7100000000000000000000000000000000000000000000000000000000 PUSH1 0x0 MSTORE PUSH1 0x41 PUSH1 0x4 MSTORE PUSH1 0x24 PUSH1 0x0 REVERT JUMPDEST PUSH1 0x0 DUP1 REVERT JUMPDEST PUSH1 0x0 DUP1 REVERT JUMPDEST PUSH1 0x0 DUP1 REVERT JUMPDEST PUSH1 0x0 DUP1 REVERT JUMPDEST PUSH1 0x0 PUSH1 0x1F NOT PUSH1 0x1F DUP4 ADD AND SWAP1 POP SWAP2 SWAP1 POP JUMP JUMPDEST PUSH1 0x3 DUP2 LT PUSH2 0x5A1C JUMPI PUSH2 0x5A1B PUSH2 0x592A JUMP JUMPDEST JUMPDEST POP JUMP JUMPDEST PUSH1 0x9 DUP2 LT PUSH2 0x5A30 JUMPI PUSH2 0x5A2F PUSH2 0x592A JUMP JUMPDEST JUMPDEST POP JUMP JUMPDEST PUSH2 0x5A3C DUP2 PUSH2 0x577B JUMP JUMPDEST DUP2 EQ PUSH2 0x5A47 JUMPI PUSH1 0x0 DUP1 REVERT JUMPDEST POP JUMP JUMPDEST PUSH2 0x5A53 DUP2 PUSH2 0x578D JUMP JUMPDEST DUP2 EQ PUSH2 0x5A5E JUMPI PUSH1 0x0 DUP1 REVERT JUMPDEST POP JUMP JUMPDEST PUSH1 0x3 DUP2 LT PUSH2 0x5A6E JUMPI PUSH1 0x0 DUP1 REVERT JUMPDEST POP JUMP JUMPDEST PUSH1 0x9 DUP2 LT PUSH2 0x5A7E JUMPI PUSH1 0x0 DUP1 REVERT JUMPDEST POP JUMP JUMPDEST PUSH2 0x5A8A DUP2 PUSH2 0x57DF JUMP JUMPDEST DUP2 EQ PUSH2 0x5A95 JUMPI PUSH1 0x0 DUP1 REVERT JUMPDEST POP JUMP INVALID LOG2 PUSH5 0x6970667358 0x22 SLT KECCAK256 CALLDATASIZE 0xD7 0x4F PUSH20 0xC43F192C79AC947CFF8BAF7BC8D2F34B02B7BBBA 0x28 BASEFEE PUSH11 0x66ADA1FB8764736F6C6343 STOP ADDMOD SMOD STOP CALLER "
		},
		"gasEstimates": {
			"creation": {
				"codeDepositCost": "4649200",
				"executionCost": "5445",
				"totalCost": "4654645"
			},
			"external": {
				"AlterAccess(address,bool)": "infinite",
				"EPRAccessList(uint256)": "infinite",
				"GetUsersByStatus(uint8)": "infinite",
				"GetUsersByType(uint8)": "infinite",
				"GrantAccess(address)": "98060",
				"Owner()": "2578",
				"PatchTrannsactions(uint256)": "infinite",
				"ReadDrug(string)": "infinite",
				"ReadDrugsByUser(address)": "infinite",
				"ReadDrugsWithManufacturer(uint8)": "infinite",
				"ReadParentAndSiblingsTransactions(string,string,address)": "infinite",
				"ReadRoleByUser()": "7174",
				"ReadTransactionsByDrug(string)": "infinite",
				"ReadTransactionsByPatchNo(string,string)": "infinite",
				"ReadTransactionsByUser(address)": "infinite",
				"ReadUser(address)": "infinite",
				"ReturnRemainingAmount(string,string,address)": "infinite",
				"compareStringsbyBytes(string,string)": "infinite"
			}
		},
		"methodIdentifiers": {
			"AlterAccess(address,bool)": "e7cdaa15",
			"EPRAccessList(uint256)": "e7850244",
			"GetUsersByStatus(uint8)": "7a53c535",
			"GetUsersByType(uint8)": "0f9de977",
			"GrantAccess(address)": "25b10c05",
			"Owner()": "b4a99a4e",
			"PatchTrannsactions(uint256)": "1567697c",
			"ReadDrug(string)": "cdf7e73d",
			"ReadDrugsByUser(address)": "ff946c85",
			"ReadDrugsWithManufacturer(uint8)": "a7270981",
			"ReadParentAndSiblingsTransactions(string,string,address)": "31a6db4d",
			"ReadRoleByUser()": "783a7895",
			"ReadTransactionsByDrug(string)": "4b2d14aa",
			"ReadTransactionsByPatchNo(string,string)": "40d37caf",
			"ReadTransactionsByUser(address)": "99b5bbdd",
			"ReadUser(address)": "cd1720d1",
			"ReturnRemainingAmount(string,string,address)": "798d2122",
			"compareStringsbyBytes(string,string)": "e9a734ff"
		}
	},
	"abi": [
		{
			"inputs": [
				{
					"internalType": "address",
					"name": "_doctor",
					"type": "address"
				},
				{
					"internalType": "bool",
					"name": "_access",
					"type": "bool"
				}
			],
			"name": "AlterAccess",
			"outputs": [
				{
					"internalType": "bool",
					"name": "",
					"type": "bool"
				}
			],
			"stateMutability": "nonpayable",
			"type": "function"
		},
		{
			"inputs": [
				{
					"internalType": "uint256",
					"name": "",
					"type": "uint256"
				}
			],
			"name": "EPRAccessList",
			"outputs": [
				{
					"internalType": "address",
					"name": "PatientAddress",
					"type": "address"
				},
				{
					"internalType": "address",
					"name": "DoctorAddress",
					"type": "address"
				},
				{
					"internalType": "bool",
					"name": "HasAccess",
					"type": "bool"
				}
			],
			"stateMutability": "view",
			"type": "function"
		},
		{
			"inputs": [
				{
					"internalType": "enum Definitions.Statuses",
					"name": "_status",
					"type": "uint8"
				}
			],
			"name": "GetUsersByStatus",
			"outputs": [
				{
					"components": [
						{
							"internalType": "string",
							"name": "UserID",
							"type": "string"
						},
						{
							"internalType": "string",
							"name": "UserName",
							"type": "string"
						},
						{
							"internalType": "enum Definitions.UserRoles",
							"name": "UserRole",
							"type": "uint8"
						},
						{
							"internalType": "enum Definitions.Statuses",
							"name": "UserStatus",
							"type": "uint8"
						},
						{
							"internalType": "string",
							"name": "Latitude",
							"type": "string"
						},
						{
							"internalType": "string",
							"name": "Longitude",
							"type": "string"
						},
						{
							"internalType": "address",
							"name": "UserAddress",
							"type": "address"
						}
					],
					"internalType": "struct Definitions.User[]",
					"name": "filteredUsers",
					"type": "tuple[]"
				}
			],
			"stateMutability": "view",
			"type": "function"
		},
		{
			"inputs": [
				{
					"internalType": "enum Definitions.UserRoles",
					"name": "_role",
					"type": "uint8"
				}
			],
			"name": "GetUsersByType",
			"outputs": [
				{
					"components": [
						{
							"internalType": "string",
							"name": "UserID",
							"type": "string"
						},
						{
							"internalType": "string",
							"name": "UserName",
							"type": "string"
						},
						{
							"internalType": "enum Definitions.UserRoles",
							"name": "UserRole",
							"type": "uint8"
						},
						{
							"internalType": "enum Definitions.Statuses",
							"name": "UserStatus",
							"type": "uint8"
						},
						{
							"internalType": "string",
							"name": "Latitude",
							"type": "string"
						},
						{
							"internalType": "string",
							"name": "Longitude",
							"type": "string"
						},
						{
							"internalType": "address",
							"name": "UserAddress",
							"type": "address"
						}
					],
					"internalType": "struct Definitions.User[]",
					"name": "filteredUsers",
					"type": "tuple[]"
				}
			],
			"stateMutability": "view",
			"type": "function"
		},
		{
			"inputs": [
				{
					"internalType": "address",
					"name": "_doctor",
					"type": "address"
				}
			],
			"name": "GrantAccess",
			"outputs": [
				{
					"internalType": "bool",
					"name": "",
					"type": "bool"
				}
			],
			"stateMutability": "nonpayable",
			"type": "function"
		},
		{
			"inputs": [],
			"name": "Owner",
			"outputs": [
				{
					"internalType": "address",
					"name": "",
					"type": "address"
				}
			],
			"stateMutability": "view",
			"type": "function"
		},
		{
			"inputs": [
				{
					"internalType": "uint256",
					"name": "",
					"type": "uint256"
				}
			],
			"name": "PatchTrannsactions",
			"outputs": [
				{
					"internalType": "string",
					"name": "DrugRegNo",
					"type": "string"
				},
				{
					"internalType": "string",
					"name": "PatchNo",
					"type": "string"
				},
				{
					"internalType": "uint256",
					"name": "LineNo",
					"type": "uint256"
				},
				{
					"internalType": "address",
					"name": "FromID",
					"type": "address"
				},
				{
					"internalType": "address",
					"name": "ToID",
					"type": "address"
				},
				{
					"internalType": "uint256",
					"name": "Amount",
					"type": "uint256"
				},
				{
					"internalType": "uint256",
					"name": "TransactionDate",
					"type": "uint256"
				}
			],
			"stateMutability": "view",
			"type": "function"
		},
		{
			"inputs": [
				{
					"internalType": "string",
					"name": "_regno",
					"type": "string"
				}
			],
			"name": "ReadDrug",
			"outputs": [
				{
					"components": [
						{
							"internalType": "string",
							"name": "DrugName",
							"type": "string"
						},
						{
							"internalType": "address",
							"name": "Manufacturer",
							"type": "address"
						},
						{
							"internalType": "enum Definitions.Statuses",
							"name": "DrugStatus",
							"type": "uint8"
						},
						{
							"internalType": "string",
							"name": "DrugRegNo",
							"type": "string"
						}
					],
					"internalType": "struct Definitions.Drug",
					"name": "",
					"type": "tuple"
				}
			],
			"stateMutability": "view",
			"type": "function"
		},
		{
			"inputs": [
				{
					"internalType": "address",
					"name": "_useraddress",
					"type": "address"
				}
			],
			"name": "ReadDrugsByUser",
			"outputs": [
				{
					"components": [
						{
							"internalType": "string",
							"name": "DrugName",
							"type": "string"
						},
						{
							"internalType": "address",
							"name": "Manufacturer",
							"type": "address"
						},
						{
							"internalType": "enum Definitions.Statuses",
							"name": "DrugStatus",
							"type": "uint8"
						},
						{
							"internalType": "string",
							"name": "DrugRegNo",
							"type": "string"
						}
					],
					"internalType": "struct Definitions.Drug[]",
					"name": "DrugsList",
					"type": "tuple[]"
				}
			],
			"stateMutability": "view",
			"type": "function"
		},
		{
			"inputs": [
				{
					"internalType": "enum Definitions.Statuses",
					"name": "_drugstatus",
					"type": "uint8"
				}
			],
			"name": "ReadDrugsWithManufacturer",
			"outputs": [
				{
					"components": [
						{
							"internalType": "string",
							"name": "DrugName",
							"type": "string"
						},
						{
							"internalType": "address",
							"name": "Manufacturer",
							"type": "address"
						},
						{
							"internalType": "enum Definitions.Statuses",
							"name": "DrugStatus",
							"type": "uint8"
						},
						{
							"internalType": "string",
							"name": "DrugRegNo",
							"type": "string"
						},
						{
							"internalType": "string",
							"name": "ManName",
							"type": "string"
						}
					],
					"internalType": "struct Definitions.DrugMan[]",
					"name": "DrugsList",
					"type": "tuple[]"
				}
			],
			"stateMutability": "view",
			"type": "function"
		},
		{
			"inputs": [
				{
					"internalType": "string",
					"name": "_patchno",
					"type": "string"
				},
				{
					"internalType": "string",
					"name": "_drugno",
					"type": "string"
				},
				{
					"internalType": "address",
					"name": "_fromaddress",
					"type": "address"
				}
			],
			"name": "ReadParentAndSiblingsTransactions",
			"outputs": [
				{
					"components": [
						{
							"internalType": "string",
							"name": "DrugRegNo",
							"type": "string"
						},
						{
							"internalType": "string",
							"name": "PatchNo",
							"type": "string"
						},
						{
							"internalType": "uint256",
							"name": "LineNo",
							"type": "uint256"
						},
						{
							"internalType": "address",
							"name": "FromID",
							"type": "address"
						},
						{
							"internalType": "address",
							"name": "ToID",
							"type": "address"
						},
						{
							"internalType": "uint256",
							"name": "Amount",
							"type": "uint256"
						},
						{
							"internalType": "uint256",
							"name": "TransactionDate",
							"type": "uint256"
						}
					],
					"internalType": "struct Definitions.PatchTransaction[]",
					"name": "UserTransaction",
					"type": "tuple[]"
				}
			],
			"stateMutability": "view",
			"type": "function"
		},
		{
			"inputs": [],
			"name": "ReadRoleByUser",
			"outputs": [
				{
					"internalType": "enum Definitions.UserRoles",
					"name": "_userrole",
					"type": "uint8"
				}
			],
			"stateMutability": "view",
			"type": "function"
		},
		{
			"inputs": [
				{
					"internalType": "string",
					"name": "_drugno",
					"type": "string"
				}
			],
			"name": "ReadTransactionsByDrug",
			"outputs": [
				{
					"components": [
						{
							"internalType": "string",
							"name": "DrugRegNo",
							"type": "string"
						},
						{
							"internalType": "string",
							"name": "PatchNo",
							"type": "string"
						},
						{
							"internalType": "uint256",
							"name": "LineNo",
							"type": "uint256"
						},
						{
							"internalType": "address",
							"name": "FromID",
							"type": "address"
						},
						{
							"internalType": "address",
							"name": "ToID",
							"type": "address"
						},
						{
							"internalType": "uint256",
							"name": "Amount",
							"type": "uint256"
						},
						{
							"internalType": "uint256",
							"name": "TransactionDate",
							"type": "uint256"
						}
					],
					"internalType": "struct Definitions.PatchTransaction[]",
					"name": "UserTransaction",
					"type": "tuple[]"
				}
			],
			"stateMutability": "view",
			"type": "function"
		},
		{
			"inputs": [
				{
					"internalType": "string",
					"name": "_patchno",
					"type": "string"
				},
				{
					"internalType": "string",
					"name": "_drugno",
					"type": "string"
				}
			],
			"name": "ReadTransactionsByPatchNo",
			"outputs": [
				{
					"components": [
						{
							"internalType": "string",
							"name": "DrugRegNo",
							"type": "string"
						},
						{
							"internalType": "string",
							"name": "PatchNo",
							"type": "string"
						},
						{
							"internalType": "uint256",
							"name": "LineNo",
							"type": "uint256"
						},
						{
							"internalType": "address",
							"name": "FromID",
							"type": "address"
						},
						{
							"internalType": "string",
							"name": "FromName",
							"type": "string"
						},
						{
							"internalType": "enum Definitions.UserRoles",
							"name": "FromRole",
							"type": "uint8"
						},
						{
							"internalType": "address",
							"name": "ToID",
							"type": "address"
						},
						{
							"internalType": "string",
							"name": "ToName",
							"type": "string"
						},
						{
							"internalType": "enum Definitions.UserRoles",
							"name": "ToRole",
							"type": "uint8"
						},
						{
							"internalType": "uint256",
							"name": "Amount",
							"type": "uint256"
						},
						{
							"internalType": "uint256",
							"name": "TransactionDate",
							"type": "uint256"
						}
					],
					"internalType": "struct Definitions.PatchTransactionsFullData[]",
					"name": "UserTransaction",
					"type": "tuple[]"
				}
			],
			"stateMutability": "view",
			"type": "function"
		},
		{
			"inputs": [
				{
					"internalType": "address",
					"name": "_useraddress",
					"type": "address"
				}
			],
			"name": "ReadTransactionsByUser",
			"outputs": [
				{
					"components": [
						{
							"internalType": "string",
							"name": "DrugRegNo",
							"type": "string"
						},
						{
							"internalType": "string",
							"name": "PatchNo",
							"type": "string"
						},
						{
							"internalType": "uint256",
							"name": "LineNo",
							"type": "uint256"
						},
						{
							"internalType": "address",
							"name": "FromID",
							"type": "address"
						},
						{
							"internalType": "string",
							"name": "FromName",
							"type": "string"
						},
						{
							"internalType": "enum Definitions.UserRoles",
							"name": "FromRole",
							"type": "uint8"
						},
						{
							"internalType": "address",
							"name": "ToID",
							"type": "address"
						},
						{
							"internalType": "string",
							"name": "ToName",
							"type": "string"
						},
						{
							"internalType": "enum Definitions.UserRoles",
							"name": "ToRole",
							"type": "uint8"
						},
						{
							"internalType": "uint256",
							"name": "Amount",
							"type": "uint256"
						},
						{
							"internalType": "uint256",
							"name": "TransactionDate",
							"type": "uint256"
						}
					],
					"internalType": "struct Definitions.PatchTransactionsFullData[]",
					"name": "UserTransaction",
					"type": "tuple[]"
				}
			],
			"stateMutability": "view",
			"type": "function"
		},
		{
			"inputs": [
				{
					"internalType": "address",
					"name": "_address",
					"type": "address"
				}
			],
			"name": "ReadUser",
			"outputs": [
				{
					"components": [
						{
							"internalType": "string",
							"name": "UserID",
							"type": "string"
						},
						{
							"internalType": "string",
							"name": "UserName",
							"type": "string"
						},
						{
							"internalType": "enum Definitions.UserRoles",
							"name": "UserRole",
							"type": "uint8"
						},
						{
							"internalType": "enum Definitions.Statuses",
							"name": "UserStatus",
							"type": "uint8"
						},
						{
							"internalType": "string",
							"name": "Latitude",
							"type": "string"
						},
						{
							"internalType": "string",
							"name": "Longitude",
							"type": "string"
						},
						{
							"internalType": "address",
							"name": "UserAddress",
							"type": "address"
						}
					],
					"internalType": "struct Definitions.User",
					"name": "",
					"type": "tuple"
				}
			],
			"stateMutability": "view",
			"type": "function"
		},
		{
			"inputs": [
				{
					"internalType": "string",
					"name": "_patchno",
					"type": "string"
				},
				{
					"internalType": "string",
					"name": "_drugno",
					"type": "string"
				},
				{
					"internalType": "address",
					"name": "_fromaddress",
					"type": "address"
				}
			],
			"name": "ReturnRemainingAmount",
			"outputs": [
				{
					"internalType": "uint256",
					"name": "_remainamount",
					"type": "uint256"
				}
			],
			"stateMutability": "view",
			"type": "function"
		},
		{
			"inputs": [
				{
					"internalType": "string",
					"name": "s1",
					"type": "string"
				},
				{
					"internalType": "string",
					"name": "s2",
					"type": "string"
				}
			],
			"name": "compareStringsbyBytes",
			"outputs": [
				{
					"internalType": "bool",
					"name": "",
					"type": "bool"
				}
			],
			"stateMutability": "pure",
			"type": "function"
		}
	]
}