{
	"data": {
		"bytecode": {
			"linkReferences": {},
			"object": "608060405234801561001057600080fd5b506000600181905550610a6c806100286000396000f3fe608060405234801561001057600080fd5b50600436106100625760003560e01c806321057a1d14610067578063575dbe91146100885780638ff6d5d6146100bb5780639507d39a146100d75780639e5ca46f14610107578063dd3802f614610125575b600080fd5b61006f610143565b60405161007f94939291906107ec565b60405180910390f35b6100a2600480360381019061009d9190610596565b610363565b6040516100b29493929190610883565b60405180910390f35b6100d560048036038101906100d091906105c3565b610393565b005b6100f160048036038101906100ec9190610596565b610412565b6040516100fe919061084d565b60405180910390f35b61010f610466565b60405161011c9190610868565b60405180910390f35b61012d61046c565b60405161013a91906107ca565b60405180910390f35b606080606080600060015467ffffffffffffffff811115610167576101666109eb565b5b6040519080825280602002602001820160405280156101955781602001602082028036833780820191505090505b509050600060015467ffffffffffffffff8111156101b6576101b56109eb565b5b6040519080825280602002602001820160405280156101e45781602001602082028036833780820191505090505b509050600060015467ffffffffffffffff811115610205576102046109eb565b5b6040519080825280602002602001820160405280156102335781602001602082028036833780820191505090505b509050600060015467ffffffffffffffff811115610254576102536109eb565b5b6040519080825280602002602001820160405280156102825781602001602082028036833780820191505090505b50905060005b60015481101561034c576000806000838152602001908152602001600020905080600001548683815181106102c0576102bf6109bc565b5b60200260200101818152505080600101548583815181106102e4576102e36109bc565b5b6020026020010181815250508060020154848381518110610308576103076109bc565b5b602002602001018181525050806003015483838151811061032c5761032b6109bc565b5b60200260200101818152505050808061034490610944565b915050610288565b508383838397509750975097505050505090919293565b60006020528060005260406000206000915090508060000154908060010154908060020154908060030154905084565b60405180608001604052806001548152602001848152602001838152602001828152506000806001548152602001908152602001600020600082015181600001556020820151816001015560408201518160020155606082015181600301559050506001600081548092919061040890610944565b9190505550505050565b61041a610559565b6000808381526020019081526020016000206040518060800160405290816000820154815260200160018201548152602001600282015481526020016003820154815250509050919050565b60015481565b6060600060015467ffffffffffffffff81111561048c5761048b6109eb565b5b6040519080825280602002602001820160405280156104c557816020015b6104b2610559565b8152602001906001900390816104aa5790505b50905060005b600154811015610551576000806000838152602001908152602001600020905080604051806080016040529081600082015481526020016001820154815260200160028201548152602001600382015481525050838381518110610532576105316109bc565b5b602002602001018190525050808061054990610944565b9150506104cb565b508091505090565b6040518060800160405280600081526020016000815260200160008152602001600081525090565b60008135905061059081610a1f565b92915050565b6000602082840312156105ac576105ab610a1a565b5b60006105ba84828501610581565b91505092915050565b6000806000606084860312156105dc576105db610a1a565b5b60006105ea86828701610581565b93505060206105fb86828701610581565b925050604061060c86828701610581565b9150509250925092565b60006106228383610702565b60808301905092915050565b600061063a83836107ac565b60208301905092915050565b6000610651826108e8565b61065b8185610918565b9350610666836108c8565b8060005b8381101561069757815161067e8882610616565b9750610689836108fe565b92505060018101905061066a565b5085935050505092915050565b60006106af826108f3565b6106b98185610929565b93506106c4836108d8565b8060005b838110156106f55781516106dc888261062e565b97506106e78361090b565b9250506001810190506106c8565b5085935050505092915050565b60808201600082015161071860008501826107ac565b50602082015161072b60208501826107ac565b50604082015161073e60408501826107ac565b50606082015161075160608501826107ac565b50505050565b60808201600082015161076d60008501826107ac565b50602082015161078060208501826107ac565b50604082015161079360408501826107ac565b5060608201516107a660608501826107ac565b50505050565b6107b58161093a565b82525050565b6107c48161093a565b82525050565b600060208201905081810360008301526107e48184610646565b905092915050565b6000608082019050818103600083015261080681876106a4565b9050818103602083015261081a81866106a4565b9050818103604083015261082e81856106a4565b9050818103606083015261084281846106a4565b905095945050505050565b60006080820190506108626000830184610757565b92915050565b600060208201905061087d60008301846107bb565b92915050565b600060808201905061089860008301876107bb565b6108a560208301866107bb565b6108b260408301856107bb565b6108bf60608301846107bb565b95945050505050565b6000819050602082019050919050565b6000819050602082019050919050565b600081519050919050565b600081519050919050565b6000602082019050919050565b6000602082019050919050565b600082825260208201905092915050565b600082825260208201905092915050565b6000819050919050565b600061094f8261093a565b91507fffffffffffffffffffffffffffffffffffffffffffffffffffffffffffffffff8214156109825761098161098d565b5b600182019050919050565b7f4e487b7100000000000000000000000000000000000000000000000000000000600052601160045260246000fd5b7f4e487b7100000000000000000000000000000000000000000000000000000000600052603260045260246000fd5b7f4e487b7100000000000000000000000000000000000000000000000000000000600052604160045260246000fd5b600080fd5b610a288161093a565b8114610a3357600080fd5b5056fea264697066735822122087be15628e1da43762282a797bb39c1f6d0073b8ed99df0b56cc9f2c4106660164736f6c63430008070033",
			"opcodes": "PUSH1 0x80 PUSH1 0x40 MSTORE CALLVALUE DUP1 ISZERO PUSH2 0x10 JUMPI PUSH1 0x0 DUP1 REVERT JUMPDEST POP PUSH1 0x0 PUSH1 0x1 DUP2 SWAP1 SSTORE POP PUSH2 0xA6C DUP1 PUSH2 0x28 PUSH1 0x0 CODECOPY PUSH1 0x0 RETURN INVALID PUSH1 0x80 PUSH1 0x40 MSTORE CALLVALUE DUP1 ISZERO PUSH2 0x10 JUMPI PUSH1 0x0 DUP1 REVERT JUMPDEST POP PUSH1 0x4 CALLDATASIZE LT PUSH2 0x62 JUMPI PUSH1 0x0 CALLDATALOAD PUSH1 0xE0 SHR DUP1 PUSH4 0x21057A1D EQ PUSH2 0x67 JUMPI DUP1 PUSH4 0x575DBE91 EQ PUSH2 0x88 JUMPI DUP1 PUSH4 0x8FF6D5D6 EQ PUSH2 0xBB JUMPI DUP1 PUSH4 0x9507D39A EQ PUSH2 0xD7 JUMPI DUP1 PUSH4 0x9E5CA46F EQ PUSH2 0x107 JUMPI DUP1 PUSH4 0xDD3802F6 EQ PUSH2 0x125 JUMPI JUMPDEST PUSH1 0x0 DUP1 REVERT JUMPDEST PUSH2 0x6F PUSH2 0x143 JUMP JUMPDEST PUSH1 0x40 MLOAD PUSH2 0x7F SWAP5 SWAP4 SWAP3 SWAP2 SWAP1 PUSH2 0x7EC JUMP JUMPDEST PUSH1 0x40 MLOAD DUP1 SWAP2 SUB SWAP1 RETURN JUMPDEST PUSH2 0xA2 PUSH1 0x4 DUP1 CALLDATASIZE SUB DUP2 ADD SWAP1 PUSH2 0x9D SWAP2 SWAP1 PUSH2 0x596 JUMP JUMPDEST PUSH2 0x363 JUMP JUMPDEST PUSH1 0x40 MLOAD PUSH2 0xB2 SWAP5 SWAP4 SWAP3 SWAP2 SWAP1 PUSH2 0x883 JUMP JUMPDEST PUSH1 0x40 MLOAD DUP1 SWAP2 SUB SWAP1 RETURN JUMPDEST PUSH2 0xD5 PUSH1 0x4 DUP1 CALLDATASIZE SUB DUP2 ADD SWAP1 PUSH2 0xD0 SWAP2 SWAP1 PUSH2 0x5C3 JUMP JUMPDEST PUSH2 0x393 JUMP JUMPDEST STOP JUMPDEST PUSH2 0xF1 PUSH1 0x4 DUP1 CALLDATASIZE SUB DUP2 ADD SWAP1 PUSH2 0xEC SWAP2 SWAP1 PUSH2 0x596 JUMP JUMPDEST PUSH2 0x412 JUMP JUMPDEST PUSH1 0x40 MLOAD PUSH2 0xFE SWAP2 SWAP1 PUSH2 0x84D JUMP JUMPDEST PUSH1 0x40 MLOAD DUP1 SWAP2 SUB SWAP1 RETURN JUMPDEST PUSH2 0x10F PUSH2 0x466 JUMP JUMPDEST PUSH1 0x40 MLOAD PUSH2 0x11C SWAP2 SWAP1 PUSH2 0x868 JUMP JUMPDEST PUSH1 0x40 MLOAD DUP1 SWAP2 SUB SWAP1 RETURN JUMPDEST PUSH2 0x12D PUSH2 0x46C JUMP JUMPDEST PUSH1 0x40 MLOAD PUSH2 0x13A SWAP2 SWAP1 PUSH2 0x7CA JUMP JUMPDEST PUSH1 0x40 MLOAD DUP1 SWAP2 SUB SWAP1 RETURN JUMPDEST PUSH1 0x60 DUP1 PUSH1 0x60 DUP1 PUSH1 0x0 PUSH1 0x1 SLOAD PUSH8 0xFFFFFFFFFFFFFFFF DUP2 GT ISZERO PUSH2 0x167 JUMPI PUSH2 0x166 PUSH2 0x9EB JUMP JUMPDEST JUMPDEST PUSH1 0x40 MLOAD SWAP1 DUP1 DUP3 MSTORE DUP1 PUSH1 0x20 MUL PUSH1 0x20 ADD DUP3 ADD PUSH1 0x40 MSTORE DUP1 ISZERO PUSH2 0x195 JUMPI DUP2 PUSH1 0x20 ADD PUSH1 0x20 DUP3 MUL DUP1 CALLDATASIZE DUP4 CALLDATACOPY DUP1 DUP3 ADD SWAP2 POP POP SWAP1 POP JUMPDEST POP SWAP1 POP PUSH1 0x0 PUSH1 0x1 SLOAD PUSH8 0xFFFFFFFFFFFFFFFF DUP2 GT ISZERO PUSH2 0x1B6 JUMPI PUSH2 0x1B5 PUSH2 0x9EB JUMP JUMPDEST JUMPDEST PUSH1 0x40 MLOAD SWAP1 DUP1 DUP3 MSTORE DUP1 PUSH1 0x20 MUL PUSH1 0x20 ADD DUP3 ADD PUSH1 0x40 MSTORE DUP1 ISZERO PUSH2 0x1E4 JUMPI DUP2 PUSH1 0x20 ADD PUSH1 0x20 DUP3 MUL DUP1 CALLDATASIZE DUP4 CALLDATACOPY DUP1 DUP3 ADD SWAP2 POP POP SWAP1 POP JUMPDEST POP SWAP1 POP PUSH1 0x0 PUSH1 0x1 SLOAD PUSH8 0xFFFFFFFFFFFFFFFF DUP2 GT ISZERO PUSH2 0x205 JUMPI PUSH2 0x204 PUSH2 0x9EB JUMP JUMPDEST JUMPDEST PUSH1 0x40 MLOAD SWAP1 DUP1 DUP3 MSTORE DUP1 PUSH1 0x20 MUL PUSH1 0x20 ADD DUP3 ADD PUSH1 0x40 MSTORE DUP1 ISZERO PUSH2 0x233 JUMPI DUP2 PUSH1 0x20 ADD PUSH1 0x20 DUP3 MUL DUP1 CALLDATASIZE DUP4 CALLDATACOPY DUP1 DUP3 ADD SWAP2 POP POP SWAP1 POP JUMPDEST POP SWAP1 POP PUSH1 0x0 PUSH1 0x1 SLOAD PUSH8 0xFFFFFFFFFFFFFFFF DUP2 GT ISZERO PUSH2 0x254 JUMPI PUSH2 0x253 PUSH2 0x9EB JUMP JUMPDEST JUMPDEST PUSH1 0x40 MLOAD SWAP1 DUP1 DUP3 MSTORE DUP1 PUSH1 0x20 MUL PUSH1 0x20 ADD DUP3 ADD PUSH1 0x40 MSTORE DUP1 ISZERO PUSH2 0x282 JUMPI DUP2 PUSH1 0x20 ADD PUSH1 0x20 DUP3 MUL DUP1 CALLDATASIZE DUP4 CALLDATACOPY DUP1 DUP3 ADD SWAP2 POP POP SWAP1 POP JUMPDEST POP SWAP1 POP PUSH1 0x0 JUMPDEST PUSH1 0x1 SLOAD DUP2 LT ISZERO PUSH2 0x34C JUMPI PUSH1 0x0 DUP1 PUSH1 0x0 DUP4 DUP2 MSTORE PUSH1 0x20 ADD SWAP1 DUP2 MSTORE PUSH1 0x20 ADD PUSH1 0x0 KECCAK256 SWAP1 POP DUP1 PUSH1 0x0 ADD SLOAD DUP7 DUP4 DUP2 MLOAD DUP2 LT PUSH2 0x2C0 JUMPI PUSH2 0x2BF PUSH2 0x9BC JUMP JUMPDEST JUMPDEST PUSH1 0x20 MUL PUSH1 0x20 ADD ADD DUP2 DUP2 MSTORE POP POP DUP1 PUSH1 0x1 ADD SLOAD DUP6 DUP4 DUP2 MLOAD DUP2 LT PUSH2 0x2E4 JUMPI PUSH2 0x2E3 PUSH2 0x9BC JUMP JUMPDEST JUMPDEST PUSH1 0x20 MUL PUSH1 0x20 ADD ADD DUP2 DUP2 MSTORE POP POP DUP1 PUSH1 0x2 ADD SLOAD DUP5 DUP4 DUP2 MLOAD DUP2 LT PUSH2 0x308 JUMPI PUSH2 0x307 PUSH2 0x9BC JUMP JUMPDEST JUMPDEST PUSH1 0x20 MUL PUSH1 0x20 ADD ADD DUP2 DUP2 MSTORE POP POP DUP1 PUSH1 0x3 ADD SLOAD DUP4 DUP4 DUP2 MLOAD DUP2 LT PUSH2 0x32C JUMPI PUSH2 0x32B PUSH2 0x9BC JUMP JUMPDEST JUMPDEST PUSH1 0x20 MUL PUSH1 0x20 ADD ADD DUP2 DUP2 MSTORE POP POP POP DUP1 DUP1 PUSH2 0x344 SWAP1 PUSH2 0x944 JUMP JUMPDEST SWAP2 POP POP PUSH2 0x288 JUMP JUMPDEST POP DUP4 DUP4 DUP4 DUP4 SWAP8 POP SWAP8 POP SWAP8 POP SWAP8 POP POP POP POP POP SWAP1 SWAP2 SWAP3 SWAP4 JUMP JUMPDEST PUSH1 0x0 PUSH1 0x20 MSTORE DUP1 PUSH1 0x0 MSTORE PUSH1 0x40 PUSH1 0x0 KECCAK256 PUSH1 0x0 SWAP2 POP SWAP1 POP DUP1 PUSH1 0x0 ADD SLOAD SWAP1 DUP1 PUSH1 0x1 ADD SLOAD SWAP1 DUP1 PUSH1 0x2 ADD SLOAD SWAP1 DUP1 PUSH1 0x3 ADD SLOAD SWAP1 POP DUP5 JUMP JUMPDEST PUSH1 0x40 MLOAD DUP1 PUSH1 0x80 ADD PUSH1 0x40 MSTORE DUP1 PUSH1 0x1 SLOAD DUP2 MSTORE PUSH1 0x20 ADD DUP5 DUP2 MSTORE PUSH1 0x20 ADD DUP4 DUP2 MSTORE PUSH1 0x20 ADD DUP3 DUP2 MSTORE POP PUSH1 0x0 DUP1 PUSH1 0x1 SLOAD DUP2 MSTORE PUSH1 0x20 ADD SWAP1 DUP2 MSTORE PUSH1 0x20 ADD PUSH1 0x0 KECCAK256 PUSH1 0x0 DUP3 ADD MLOAD DUP2 PUSH1 0x0 ADD SSTORE PUSH1 0x20 DUP3 ADD MLOAD DUP2 PUSH1 0x1 ADD SSTORE PUSH1 0x40 DUP3 ADD MLOAD DUP2 PUSH1 0x2 ADD SSTORE PUSH1 0x60 DUP3 ADD MLOAD DUP2 PUSH1 0x3 ADD SSTORE SWAP1 POP POP PUSH1 0x1 PUSH1 0x0 DUP2 SLOAD DUP1 SWAP3 SWAP2 SWAP1 PUSH2 0x408 SWAP1 PUSH2 0x944 JUMP JUMPDEST SWAP2 SWAP1 POP SSTORE POP POP POP POP JUMP JUMPDEST PUSH2 0x41A PUSH2 0x559 JUMP JUMPDEST PUSH1 0x0 DUP1 DUP4 DUP2 MSTORE PUSH1 0x20 ADD SWAP1 DUP2 MSTORE PUSH1 0x20 ADD PUSH1 0x0 KECCAK256 PUSH1 0x40 MLOAD DUP1 PUSH1 0x80 ADD PUSH1 0x40 MSTORE SWAP1 DUP2 PUSH1 0x0 DUP3 ADD SLOAD DUP2 MSTORE PUSH1 0x20 ADD PUSH1 0x1 DUP3 ADD SLOAD DUP2 MSTORE PUSH1 0x20 ADD PUSH1 0x2 DUP3 ADD SLOAD DUP2 MSTORE PUSH1 0x20 ADD PUSH1 0x3 DUP3 ADD SLOAD DUP2 MSTORE POP POP SWAP1 POP SWAP2 SWAP1 POP JUMP JUMPDEST PUSH1 0x1 SLOAD DUP2 JUMP JUMPDEST PUSH1 0x60 PUSH1 0x0 PUSH1 0x1 SLOAD PUSH8 0xFFFFFFFFFFFFFFFF DUP2 GT ISZERO PUSH2 0x48C JUMPI PUSH2 0x48B PUSH2 0x9EB JUMP JUMPDEST JUMPDEST PUSH1 0x40 MLOAD SWAP1 DUP1 DUP3 MSTORE DUP1 PUSH1 0x20 MUL PUSH1 0x20 ADD DUP3 ADD PUSH1 0x40 MSTORE DUP1 ISZERO PUSH2 0x4C5 JUMPI DUP2 PUSH1 0x20 ADD JUMPDEST PUSH2 0x4B2 PUSH2 0x559 JUMP JUMPDEST DUP2 MSTORE PUSH1 0x20 ADD SWAP1 PUSH1 0x1 SWAP1 SUB SWAP1 DUP2 PUSH2 0x4AA JUMPI SWAP1 POP JUMPDEST POP SWAP1 POP PUSH1 0x0 JUMPDEST PUSH1 0x1 SLOAD DUP2 LT ISZERO PUSH2 0x551 JUMPI PUSH1 0x0 DUP1 PUSH1 0x0 DUP4 DUP2 MSTORE PUSH1 0x20 ADD SWAP1 DUP2 MSTORE PUSH1 0x20 ADD PUSH1 0x0 KECCAK256 SWAP1 POP DUP1 PUSH1 0x40 MLOAD DUP1 PUSH1 0x80 ADD PUSH1 0x40 MSTORE SWAP1 DUP2 PUSH1 0x0 DUP3 ADD SLOAD DUP2 MSTORE PUSH1 0x20 ADD PUSH1 0x1 DUP3 ADD SLOAD DUP2 MSTORE PUSH1 0x20 ADD PUSH1 0x2 DUP3 ADD SLOAD DUP2 MSTORE PUSH1 0x20 ADD PUSH1 0x3 DUP3 ADD SLOAD DUP2 MSTORE POP POP DUP4 DUP4 DUP2 MLOAD DUP2 LT PUSH2 0x532 JUMPI PUSH2 0x531 PUSH2 0x9BC JUMP JUMPDEST JUMPDEST PUSH1 0x20 MUL PUSH1 0x20 ADD ADD DUP2 SWAP1 MSTORE POP POP DUP1 DUP1 PUSH2 0x549 SWAP1 PUSH2 0x944 JUMP JUMPDEST SWAP2 POP POP PUSH2 0x4CB JUMP JUMPDEST POP DUP1 SWAP2 POP POP SWAP1 JUMP JUMPDEST PUSH1 0x40 MLOAD DUP1 PUSH1 0x80 ADD PUSH1 0x40 MSTORE DUP1 PUSH1 0x0 DUP2 MSTORE PUSH1 0x20 ADD PUSH1 0x0 DUP2 MSTORE PUSH1 0x20 ADD PUSH1 0x0 DUP2 MSTORE PUSH1 0x20 ADD PUSH1 0x0 DUP2 MSTORE POP SWAP1 JUMP JUMPDEST PUSH1 0x0 DUP2 CALLDATALOAD SWAP1 POP PUSH2 0x590 DUP2 PUSH2 0xA1F JUMP JUMPDEST SWAP3 SWAP2 POP POP JUMP JUMPDEST PUSH1 0x0 PUSH1 0x20 DUP3 DUP5 SUB SLT ISZERO PUSH2 0x5AC JUMPI PUSH2 0x5AB PUSH2 0xA1A JUMP JUMPDEST JUMPDEST PUSH1 0x0 PUSH2 0x5BA DUP5 DUP3 DUP6 ADD PUSH2 0x581 JUMP JUMPDEST SWAP2 POP POP SWAP3 SWAP2 POP POP JUMP JUMPDEST PUSH1 0x0 DUP1 PUSH1 0x0 PUSH1 0x60 DUP5 DUP7 SUB SLT ISZERO PUSH2 0x5DC JUMPI PUSH2 0x5DB PUSH2 0xA1A JUMP JUMPDEST JUMPDEST PUSH1 0x0 PUSH2 0x5EA DUP7 DUP3 DUP8 ADD PUSH2 0x581 JUMP JUMPDEST SWAP4 POP POP PUSH1 0x20 PUSH2 0x5FB DUP7 DUP3 DUP8 ADD PUSH2 0x581 JUMP JUMPDEST SWAP3 POP POP PUSH1 0x40 PUSH2 0x60C DUP7 DUP3 DUP8 ADD PUSH2 0x581 JUMP JUMPDEST SWAP2 POP POP SWAP3 POP SWAP3 POP SWAP3 JUMP JUMPDEST PUSH1 0x0 PUSH2 0x622 DUP4 DUP4 PUSH2 0x702 JUMP JUMPDEST PUSH1 0x80 DUP4 ADD SWAP1 POP SWAP3 SWAP2 POP POP JUMP JUMPDEST PUSH1 0x0 PUSH2 0x63A DUP4 DUP4 PUSH2 0x7AC JUMP JUMPDEST PUSH1 0x20 DUP4 ADD SWAP1 POP SWAP3 SWAP2 POP POP JUMP JUMPDEST PUSH1 0x0 PUSH2 0x651 DUP3 PUSH2 0x8E8 JUMP JUMPDEST PUSH2 0x65B DUP2 DUP6 PUSH2 0x918 JUMP JUMPDEST SWAP4 POP PUSH2 0x666 DUP4 PUSH2 0x8C8 JUMP JUMPDEST DUP1 PUSH1 0x0 JUMPDEST DUP4 DUP2 LT ISZERO PUSH2 0x697 JUMPI DUP2 MLOAD PUSH2 0x67E DUP9 DUP3 PUSH2 0x616 JUMP JUMPDEST SWAP8 POP PUSH2 0x689 DUP4 PUSH2 0x8FE JUMP JUMPDEST SWAP3 POP POP PUSH1 0x1 DUP2 ADD SWAP1 POP PUSH2 0x66A JUMP JUMPDEST POP DUP6 SWAP4 POP POP POP POP SWAP3 SWAP2 POP POP JUMP JUMPDEST PUSH1 0x0 PUSH2 0x6AF DUP3 PUSH2 0x8F3 JUMP JUMPDEST PUSH2 0x6B9 DUP2 DUP6 PUSH2 0x929 JUMP JUMPDEST SWAP4 POP PUSH2 0x6C4 DUP4 PUSH2 0x8D8 JUMP JUMPDEST DUP1 PUSH1 0x0 JUMPDEST DUP4 DUP2 LT ISZERO PUSH2 0x6F5 JUMPI DUP2 MLOAD PUSH2 0x6DC DUP9 DUP3 PUSH2 0x62E JUMP JUMPDEST SWAP8 POP PUSH2 0x6E7 DUP4 PUSH2 0x90B JUMP JUMPDEST SWAP3 POP POP PUSH1 0x1 DUP2 ADD SWAP1 POP PUSH2 0x6C8 JUMP JUMPDEST POP DUP6 SWAP4 POP POP POP POP SWAP3 SWAP2 POP POP JUMP JUMPDEST PUSH1 0x80 DUP3 ADD PUSH1 0x0 DUP3 ADD MLOAD PUSH2 0x718 PUSH1 0x0 DUP6 ADD DUP3 PUSH2 0x7AC JUMP JUMPDEST POP PUSH1 0x20 DUP3 ADD MLOAD PUSH2 0x72B PUSH1 0x20 DUP6 ADD DUP3 PUSH2 0x7AC JUMP JUMPDEST POP PUSH1 0x40 DUP3 ADD MLOAD PUSH2 0x73E PUSH1 0x40 DUP6 ADD DUP3 PUSH2 0x7AC JUMP JUMPDEST POP PUSH1 0x60 DUP3 ADD MLOAD PUSH2 0x751 PUSH1 0x60 DUP6 ADD DUP3 PUSH2 0x7AC JUMP JUMPDEST POP POP POP POP JUMP JUMPDEST PUSH1 0x80 DUP3 ADD PUSH1 0x0 DUP3 ADD MLOAD PUSH2 0x76D PUSH1 0x0 DUP6 ADD DUP3 PUSH2 0x7AC JUMP JUMPDEST POP PUSH1 0x20 DUP3 ADD MLOAD PUSH2 0x780 PUSH1 0x20 DUP6 ADD DUP3 PUSH2 0x7AC JUMP JUMPDEST POP PUSH1 0x40 DUP3 ADD MLOAD PUSH2 0x793 PUSH1 0x40 DUP6 ADD DUP3 PUSH2 0x7AC JUMP JUMPDEST POP PUSH1 0x60 DUP3 ADD MLOAD PUSH2 0x7A6 PUSH1 0x60 DUP6 ADD DUP3 PUSH2 0x7AC JUMP JUMPDEST POP POP POP POP JUMP JUMPDEST PUSH2 0x7B5 DUP2 PUSH2 0x93A JUMP JUMPDEST DUP3 MSTORE POP POP JUMP JUMPDEST PUSH2 0x7C4 DUP2 PUSH2 0x93A JUMP JUMPDEST DUP3 MSTORE POP POP JUMP JUMPDEST PUSH1 0x0 PUSH1 0x20 DUP3 ADD SWAP1 POP DUP2 DUP2 SUB PUSH1 0x0 DUP4 ADD MSTORE PUSH2 0x7E4 DUP2 DUP5 PUSH2 0x646 JUMP JUMPDEST SWAP1 POP SWAP3 SWAP2 POP POP JUMP JUMPDEST PUSH1 0x0 PUSH1 0x80 DUP3 ADD SWAP1 POP DUP2 DUP2 SUB PUSH1 0x0 DUP4 ADD MSTORE PUSH2 0x806 DUP2 DUP8 PUSH2 0x6A4 JUMP JUMPDEST SWAP1 POP DUP2 DUP2 SUB PUSH1 0x20 DUP4 ADD MSTORE PUSH2 0x81A DUP2 DUP7 PUSH2 0x6A4 JUMP JUMPDEST SWAP1 POP DUP2 DUP2 SUB PUSH1 0x40 DUP4 ADD MSTORE PUSH2 0x82E DUP2 DUP6 PUSH2 0x6A4 JUMP JUMPDEST SWAP1 POP DUP2 DUP2 SUB PUSH1 0x60 DUP4 ADD MSTORE PUSH2 0x842 DUP2 DUP5 PUSH2 0x6A4 JUMP JUMPDEST SWAP1 POP SWAP6 SWAP5 POP POP POP POP POP JUMP JUMPDEST PUSH1 0x0 PUSH1 0x80 DUP3 ADD SWAP1 POP PUSH2 0x862 PUSH1 0x0 DUP4 ADD DUP5 PUSH2 0x757 JUMP JUMPDEST SWAP3 SWAP2 POP POP JUMP JUMPDEST PUSH1 0x0 PUSH1 0x20 DUP3 ADD SWAP1 POP PUSH2 0x87D PUSH1 0x0 DUP4 ADD DUP5 PUSH2 0x7BB JUMP JUMPDEST SWAP3 SWAP2 POP POP JUMP JUMPDEST PUSH1 0x0 PUSH1 0x80 DUP3 ADD SWAP1 POP PUSH2 0x898 PUSH1 0x0 DUP4 ADD DUP8 PUSH2 0x7BB JUMP JUMPDEST PUSH2 0x8A5 PUSH1 0x20 DUP4 ADD DUP7 PUSH2 0x7BB JUMP JUMPDEST PUSH2 0x8B2 PUSH1 0x40 DUP4 ADD DUP6 PUSH2 0x7BB JUMP JUMPDEST PUSH2 0x8BF PUSH1 0x60 DUP4 ADD DUP5 PUSH2 0x7BB JUMP JUMPDEST SWAP6 SWAP5 POP POP POP POP POP JUMP JUMPDEST PUSH1 0x0 DUP2 SWAP1 POP PUSH1 0x20 DUP3 ADD SWAP1 POP SWAP2 SWAP1 POP JUMP JUMPDEST PUSH1 0x0 DUP2 SWAP1 POP PUSH1 0x20 DUP3 ADD SWAP1 POP SWAP2 SWAP1 POP JUMP JUMPDEST PUSH1 0x0 DUP2 MLOAD SWAP1 POP SWAP2 SWAP1 POP JUMP JUMPDEST PUSH1 0x0 DUP2 MLOAD SWAP1 POP SWAP2 SWAP1 POP JUMP JUMPDEST PUSH1 0x0 PUSH1 0x20 DUP3 ADD SWAP1 POP SWAP2 SWAP1 POP JUMP JUMPDEST PUSH1 0x0 PUSH1 0x20 DUP3 ADD SWAP1 POP SWAP2 SWAP1 POP JUMP JUMPDEST PUSH1 0x0 DUP3 DUP3 MSTORE PUSH1 0x20 DUP3 ADD SWAP1 POP SWAP3 SWAP2 POP POP JUMP JUMPDEST PUSH1 0x0 DUP3 DUP3 MSTORE PUSH1 0x20 DUP3 ADD SWAP1 POP SWAP3 SWAP2 POP POP JUMP JUMPDEST PUSH1 0x0 DUP2 SWAP1 POP SWAP2 SWAP1 POP JUMP JUMPDEST PUSH1 0x0 PUSH2 0x94F DUP3 PUSH2 0x93A JUMP JUMPDEST SWAP2 POP PUSH32 0xFFFFFFFFFFFFFFFFFFFFFFFFFFFFFFFFFFFFFFFFFFFFFFFFFFFFFFFFFFFFFFFF DUP3 EQ ISZERO PUSH2 0x982 JUMPI PUSH2 0x981 PUSH2 0x98D JUMP JUMPDEST JUMPDEST PUSH1 0x1 DUP3 ADD SWAP1 POP SWAP2 SWAP1 POP JUMP JUMPDEST PUSH32 0x4E487B7100000000000000000000000000000000000000000000000000000000 PUSH1 0x0 MSTORE PUSH1 0x11 PUSH1 0x4 MSTORE PUSH1 0x24 PUSH1 0x0 REVERT JUMPDEST PUSH32 0x4E487B7100000000000000000000000000000000000000000000000000000000 PUSH1 0x0 MSTORE PUSH1 0x32 PUSH1 0x4 MSTORE PUSH1 0x24 PUSH1 0x0 REVERT JUMPDEST PUSH32 0x4E487B7100000000000000000000000000000000000000000000000000000000 PUSH1 0x0 MSTORE PUSH1 0x41 PUSH1 0x4 MSTORE PUSH1 0x24 PUSH1 0x0 REVERT JUMPDEST PUSH1 0x0 DUP1 REVERT JUMPDEST PUSH2 0xA28 DUP2 PUSH2 0x93A JUMP JUMPDEST DUP2 EQ PUSH2 0xA33 JUMPI PUSH1 0x0 DUP1 REVERT JUMPDEST POP JUMP INVALID LOG2 PUSH5 0x6970667358 0x22 SLT KECCAK256 DUP8 0xBE ISZERO PUSH3 0x8E1DA4 CALLDATACOPY PUSH3 0x282A79 PUSH28 0xB39C1F6D0073B8ED99DF0B56CC9F2C4106660164736F6C6343000807 STOP CALLER "
		},
		"gasEstimates": {
			"creation": {
				"codeDepositCost": "533600",
				"executionCost": "5582",
				"totalCost": "539182"
			},
			"external": {
				"addPatch(uint256,uint256,uint256)": "infinite",
				"get(uint256)": "infinite",
				"getPatch()": "infinite",
				"getPatchs()": "infinite",
				"patchs(uint256)": "infinite",
				"patchsCount()": "2495"
			}
		},
		"methodIdentifiers": {
			"addPatch(uint256,uint256,uint256)": "8ff6d5d6",
			"get(uint256)": "9507d39a",
			"getPatch()": "21057a1d",
			"getPatchs()": "dd3802f6",
			"patchs(uint256)": "575dbe91",
			"patchsCount()": "9e5ca46f"
		}
	},
	"abi": [
		{
			"inputs": [],
			"stateMutability": "nonpayable",
			"type": "constructor"
		},
		{
			"inputs": [
				{
					"internalType": "uint256",
					"name": "_drugid",
					"type": "uint256"
				},
				{
					"internalType": "uint256",
					"name": "_fullamount",
					"type": "uint256"
				},
				{
					"internalType": "uint256",
					"name": "_releasedate",
					"type": "uint256"
				}
			],
			"name": "addPatch",
			"outputs": [],
			"stateMutability": "nonpayable",
			"type": "function"
		},
		{
			"inputs": [
				{
					"internalType": "uint256",
					"name": "_patchid",
					"type": "uint256"
				}
			],
			"name": "get",
			"outputs": [
				{
					"components": [
						{
							"internalType": "uint256",
							"name": "PatchNo",
							"type": "uint256"
						},
						{
							"internalType": "uint256",
							"name": "DrugID",
							"type": "uint256"
						},
						{
							"internalType": "uint256",
							"name": "FullAmount",
							"type": "uint256"
						},
						{
							"internalType": "uint256",
							"name": "ReleaseDate",
							"type": "uint256"
						}
					],
					"internalType": "struct Patchs.Patch",
					"name": "",
					"type": "tuple"
				}
			],
			"stateMutability": "view",
			"type": "function"
		},
		{
			"inputs": [],
			"name": "getPatch",
			"outputs": [
				{
					"internalType": "uint256[]",
					"name": "",
					"type": "uint256[]"
				},
				{
					"internalType": "uint256[]",
					"name": "",
					"type": "uint256[]"
				},
				{
					"internalType": "uint256[]",
					"name": "",
					"type": "uint256[]"
				},
				{
					"internalType": "uint256[]",
					"name": "",
					"type": "uint256[]"
				}
			],
			"stateMutability": "view",
			"type": "function"
		},
		{
			"inputs": [],
			"name": "getPatchs",
			"outputs": [
				{
					"components": [
						{
							"internalType": "uint256",
							"name": "PatchNo",
							"type": "uint256"
						},
						{
							"internalType": "uint256",
							"name": "DrugID",
							"type": "uint256"
						},
						{
							"internalType": "uint256",
							"name": "FullAmount",
							"type": "uint256"
						},
						{
							"internalType": "uint256",
							"name": "ReleaseDate",
							"type": "uint256"
						}
					],
					"internalType": "struct Patchs.Patch[]",
					"name": "",
					"type": "tuple[]"
				}
			],
			"stateMutability": "view",
			"type": "function"
		},
		{
			"inputs": [
				{
					"internalType": "uint256",
					"name": "",
					"type": "uint256"
				}
			],
			"name": "patchs",
			"outputs": [
				{
					"internalType": "uint256",
					"name": "PatchNo",
					"type": "uint256"
				},
				{
					"internalType": "uint256",
					"name": "DrugID",
					"type": "uint256"
				},
				{
					"internalType": "uint256",
					"name": "FullAmount",
					"type": "uint256"
				},
				{
					"internalType": "uint256",
					"name": "ReleaseDate",
					"type": "uint256"
				}
			],
			"stateMutability": "view",
			"type": "function"
		},
		{
			"inputs": [],
			"name": "patchsCount",
			"outputs": [
				{
					"internalType": "uint256",
					"name": "",
					"type": "uint256"
				}
			],
			"stateMutability": "view",
			"type": "function"
		}
	]
}