{
	"data": {
		"bytecode": {
			"linkReferences": {},
			"object": "608060405234801561001057600080fd5b506134c3806100206000396000f3fe608060405234801561001057600080fd5b50600436106100b45760003560e01c80634b2d14aa116100715780634b2d14aa146101df578063798d21221461020f57806399b5bbdd1461023f578063cd1720d11461026f578063cdf7e73d1461029f578063e9a734ff146102cf576100b4565b8063067aae89146100b95780630f9de977146100e95780631567697c146101195780631aaf0beb1461014f57806331a6db4d1461017f57806340d37caf146101af575b600080fd5b6100d360048036038101906100ce91906128e5565b6102ff565b6040516100e09190612f16565b60405180910390f35b61010360048036038101906100fe919061276c565b61049b565b6040516101109190612ef4565b60405180910390f35b610133600480360381019061012e9190612a37565b61094a565b6040516101469796959493929190612f31565b60405180910390f35b61016960048036038101906101649190612998565b610aec565b6040516101769190612f16565b60405180910390f35b6101996004803603810190610194919061285a565b610c73565b6040516101a69190612ed2565b60405180910390f35b6101c960048036038101906101c491906127e2565b611272565b6040516101d69190612ed2565b60405180910390f35b6101f960048036038101906101f49190612799565b611779565b6040516102069190612ed2565b60405180910390f35b6102296004803603810190610224919061285a565b611bc0565b6040516102369190612ff2565b60405180910390f35b6102596004803603810190610254919061273f565b611cb0565b6040516102669190612ed2565b60405180910390f35b6102896004803603810190610284919061273f565b6120b4565b6040516102969190612fd0565b60405180910390f35b6102b960048036038101906102b49190612799565b612310565b6040516102c69190612fae565b60405180910390f35b6102e960048036038101906102e491906127e2565b61246b565b6040516102f69190612f16565b60405180910390f35b6000806040518060e0016040528088815260200187815260200160016103258a8a611272565b51610330919061310d565b81526020013373ffffffffffffffffffffffffffffffffffffffff1681526020018573ffffffffffffffffffffffffffffffffffffffff168152602001868152602001848152509050600481908060018154018082558091505060019003906000526020600020906007020160009091909190915060008201518160000190805190602001906103c19291906124c4565b5060208201518160010190805190602001906103de9291906124c4565b506040820151816002015560608201518160030160006101000a81548173ffffffffffffffffffffffffffffffffffffffff021916908373ffffffffffffffffffffffffffffffffffffffff16021790555060808201518160040160006101000a81548173ffffffffffffffffffffffffffffffffffffffff021916908373ffffffffffffffffffffffffffffffffffffffff16021790555060a0820151816005015560c082015181600601555050600191505095945050505050565b60606000600180549050905060008167ffffffffffffffff8111156104c3576104c26133d3565b5b6040519080825280602002602001820160405280156104fc57816020015b6104e961254a565b8152602001906001900390816104e15790505b509050600080600090505b838110156108935785600681111561052257610521613346565b5b60008060018481548110610539576105386133a4565b5b9060005260206000200160009054906101000a900473ffffffffffffffffffffffffffffffffffffffff1673ffffffffffffffffffffffffffffffffffffffff1673ffffffffffffffffffffffffffffffffffffffff16815260200190815260200160002060020160009054906101000a900460ff1660068111156105c1576105c0613346565b5b141561088057600080600183815481106105de576105dd6133a4565b5b9060005260206000200160009054906101000a900473ffffffffffffffffffffffffffffffffffffffff1673ffffffffffffffffffffffffffffffffffffffff1673ffffffffffffffffffffffffffffffffffffffff1681526020019081526020016000206040518060e001604052908160008201805461065e9061326b565b80601f016020809104026020016040519081016040528092919081815260200182805461068a9061326b565b80156106d75780601f106106ac576101008083540402835291602001916106d7565b820191906000526020600020905b8154815290600101906020018083116106ba57829003601f168201915b505050505081526020016001820180546106f09061326b565b80601f016020809104026020016040519081016040528092919081815260200182805461071c9061326b565b80156107695780601f1061073e57610100808354040283529160200191610769565b820191906000526020600020905b81548152906001019060200180831161074c57829003601f168201915b505050505081526020016002820160009054906101000a900460ff16600681111561079757610796613346565b5b60068111156107a9576107a8613346565b5b81526020016002820160019054906101000a900460ff1660028111156107d2576107d1613346565b5b60028111156107e4576107e3613346565b5b815260200160038201548152602001600482015481526020016005820160009054906101000a900473ffffffffffffffffffffffffffffffffffffffff1673ffffffffffffffffffffffffffffffffffffffff1673ffffffffffffffffffffffffffffffffffffffff1681525050838381518110610865576108646133a4565b5b602002602001018190525060018261087d919061310d565b91505b808061088b906132ce565b915050610507565b508067ffffffffffffffff8111156108ae576108ad6133d3565b5b6040519080825280602002602001820160405280156108e757816020015b6108d461254a565b8152602001906001900390816108cc5790505b50935060005b8181101561094157828181518110610908576109076133a4565b5b6020026020010151858281518110610923576109226133a4565b5b60200260200101819052508080610939906132ce565b9150506108ed565b50505050919050565b6004818154811061095a57600080fd5b906000526020600020906007020160009150905080600001805461097d9061326b565b80601f01602080910402602001604051908101604052809291908181526020018280546109a99061326b565b80156109f65780601f106109cb576101008083540402835291602001916109f6565b820191906000526020600020905b8154815290600101906020018083116109d957829003601f168201915b505050505090806001018054610a0b9061326b565b80601f0160208091040260200160405190810160405280929190818152602001828054610a379061326b565b8015610a845780601f10610a5957610100808354040283529160200191610a84565b820191906000526020600020905b815481529060010190602001808311610a6757829003601f168201915b5050505050908060020154908060030160009054906101000a900473ffffffffffffffffffffffffffffffffffffffff16908060040160009054906101000a900473ffffffffffffffffffffffffffffffffffffffff16908060050154908060060154905087565b6000806040518060e0016040528087815260200186815260200160008152602001600073ffffffffffffffffffffffffffffffffffffffff1681526020013373ffffffffffffffffffffffffffffffffffffffff16815260200185815260200184815250905060048190806001815401808255809150506001900390600052602060002090600702016000909190919091506000820151816000019080519060200190610b9a9291906124c4565b506020820151816001019080519060200190610bb79291906124c4565b506040820151816002015560608201518160030160006101000a81548173ffffffffffffffffffffffffffffffffffffffff021916908373ffffffffffffffffffffffffffffffffffffffff16021790555060808201518160040160006101000a81548173ffffffffffffffffffffffffffffffffffffffff021916908373ffffffffffffffffffffffffffffffffffffffff16021790555060a0820151816005015560c0820151816006015550506001915050949350505050565b606060008060048054905067ffffffffffffffff811115610c9757610c966133d3565b5b604051908082528060200260200182016040528015610cd057816020015b610cbd6125c1565b815260200190600190039081610cb55790505b50905060005b6004805490508110156111b057610d9a60048281548110610cfa57610cf96133a4565b5b90600052602060002090600702016001018054610d169061326b565b80601f0160208091040260200160405190810160405280929190818152602001828054610d429061326b565b8015610d8f5780601f10610d6457610100808354040283529160200191610d8f565b820191906000526020600020905b815481529060010190602001808311610d7257829003601f168201915b50505050508861246b565b8015610e595750610e5860048281548110610db857610db76133a4565b5b90600052602060002090600702016000018054610dd49061326b565b80601f0160208091040260200160405190810160405280929190818152602001828054610e009061326b565b8015610e4d5780601f10610e2257610100808354040283529160200191610e4d565b820191906000526020600020905b815481529060010190602001808311610e3057829003601f168201915b50505050508761246b565b5b8015610f5057508473ffffffffffffffffffffffffffffffffffffffff1660048281548110610e8b57610e8a6133a4565b5b906000526020600020906007020160040160009054906101000a900473ffffffffffffffffffffffffffffffffffffffff1673ffffffffffffffffffffffffffffffffffffffff161480610f4f57508473ffffffffffffffffffffffffffffffffffffffff1660048281548110610f0557610f046133a4565b5b906000526020600020906007020160030160009054906101000a900473ffffffffffffffffffffffffffffffffffffffff1673ffffffffffffffffffffffffffffffffffffffff16145b5b1561119d5760048181548110610f6957610f686133a4565b5b90600052602060002090600702016040518060e0016040529081600082018054610f929061326b565b80601f0160208091040260200160405190810160405280929190818152602001828054610fbe9061326b565b801561100b5780601f10610fe05761010080835404028352916020019161100b565b820191906000526020600020905b815481529060010190602001808311610fee57829003601f168201915b505050505081526020016001820180546110249061326b565b80601f01602080910402602001604051908101604052809291908181526020018280546110509061326b565b801561109d5780601f106110725761010080835404028352916020019161109d565b820191906000526020600020905b81548152906001019060200180831161108057829003601f168201915b50505050508152602001600282015481526020016003820160009054906101000a900473ffffffffffffffffffffffffffffffffffffffff1673ffffffffffffffffffffffffffffffffffffffff1673ffffffffffffffffffffffffffffffffffffffff1681526020016004820160009054906101000a900473ffffffffffffffffffffffffffffffffffffffff1673ffffffffffffffffffffffffffffffffffffffff1673ffffffffffffffffffffffffffffffffffffffff16815260200160058201548152602001600682015481525050828481518110611183576111826133a4565b5b60200260200101819052508280611199906132ce565b9350505b80806111a8906132ce565b915050610cd6565b508167ffffffffffffffff8111156111cb576111ca6133d3565b5b60405190808252806020026020018201604052801561120457816020015b6111f16125c1565b8152602001906001900390816111e95790505b50925060008211156112695760005b828110156112675781818151811061122e5761122d6133a4565b5b6020026020010151848281518110611249576112486133a4565b5b6020026020010181905250808061125f906132ce565b915050611213565b505b50509392505050565b606060008060048054905067ffffffffffffffff811115611296576112956133d3565b5b6040519080825280602002602001820160405280156112cf57816020015b6112bc6125c1565b8152602001906001900390816112b45790505b50905060005b6004805490508110156116b857611399600482815481106112f9576112f86133a4565b5b906000526020600020906007020160010180546113159061326b565b80601f01602080910402602001604051908101604052809291908181526020018280546113419061326b565b801561138e5780601f106113635761010080835404028352916020019161138e565b820191906000526020600020905b81548152906001019060200180831161137157829003601f168201915b50505050508761246b565b80156114585750611457600482815481106113b7576113b66133a4565b5b906000526020600020906007020160000180546113d39061326b565b80601f01602080910402602001604051908101604052809291908181526020018280546113ff9061326b565b801561144c5780601f106114215761010080835404028352916020019161144c565b820191906000526020600020905b81548152906001019060200180831161142f57829003601f168201915b50505050508661246b565b5b156116a55760048181548110611471576114706133a4565b5b90600052602060002090600702016040518060e001604052908160008201805461149a9061326b565b80601f01602080910402602001604051908101604052809291908181526020018280546114c69061326b565b80156115135780601f106114e857610100808354040283529160200191611513565b820191906000526020600020905b8154815290600101906020018083116114f657829003601f168201915b5050505050815260200160018201805461152c9061326b565b80601f01602080910402602001604051908101604052809291908181526020018280546115589061326b565b80156115a55780601f1061157a576101008083540402835291602001916115a5565b820191906000526020600020905b81548152906001019060200180831161158857829003601f168201915b50505050508152602001600282015481526020016003820160009054906101000a900473ffffffffffffffffffffffffffffffffffffffff1673ffffffffffffffffffffffffffffffffffffffff1673ffffffffffffffffffffffffffffffffffffffff1681526020016004820160009054906101000a900473ffffffffffffffffffffffffffffffffffffffff1673ffffffffffffffffffffffffffffffffffffffff1673ffffffffffffffffffffffffffffffffffffffff1681526020016005820154815260200160068201548152505082848151811061168b5761168a6133a4565b5b602002602001018190525082806116a1906132ce565b9350505b80806116b0906132ce565b9150506112d5565b508167ffffffffffffffff8111156116d3576116d26133d3565b5b60405190808252806020026020018201604052801561170c57816020015b6116f96125c1565b8152602001906001900390816116f15790505b50925060008211156117715760005b8281101561176f57818181518110611736576117356133a4565b5b6020026020010151848281518110611751576117506133a4565b5b60200260200101819052508080611767906132ce565b91505061171b565b505b505092915050565b606060008060048054905067ffffffffffffffff81111561179d5761179c6133d3565b5b6040519080825280602002602001820160405280156117d657816020015b6117c36125c1565b8152602001906001900390816117bb5790505b50905060005b600480549050811015611b00576118a060048281548110611800576117ff6133a4565b5b9060005260206000209060070201600001805461181c9061326b565b80601f01602080910402602001604051908101604052809291908181526020018280546118489061326b565b80156118955780601f1061186a57610100808354040283529160200191611895565b820191906000526020600020905b81548152906001019060200180831161187857829003601f168201915b50505050508661246b565b15611aed57600481815481106118b9576118b86133a4565b5b90600052602060002090600702016040518060e00160405290816000820180546118e29061326b565b80601f016020809104026020016040519081016040528092919081815260200182805461190e9061326b565b801561195b5780601f106119305761010080835404028352916020019161195b565b820191906000526020600020905b81548152906001019060200180831161193e57829003601f168201915b505050505081526020016001820180546119749061326b565b80601f01602080910402602001604051908101604052809291908181526020018280546119a09061326b565b80156119ed5780601f106119c2576101008083540402835291602001916119ed565b820191906000526020600020905b8154815290600101906020018083116119d057829003601f168201915b50505050508152602001600282015481526020016003820160009054906101000a900473ffffffffffffffffffffffffffffffffffffffff1673ffffffffffffffffffffffffffffffffffffffff1673ffffffffffffffffffffffffffffffffffffffff1681526020016004820160009054906101000a900473ffffffffffffffffffffffffffffffffffffffff1673ffffffffffffffffffffffffffffffffffffffff1673ffffffffffffffffffffffffffffffffffffffff16815260200160058201548152602001600682015481525050828481518110611ad357611ad26133a4565b5b60200260200101819052508280611ae9906132ce565b9350505b8080611af8906132ce565b9150506117dc565b508167ffffffffffffffff811115611b1b57611b1a6133d3565b5b604051908082528060200260200182016040528015611b5457816020015b611b416125c1565b815260200190600190039081611b395790505b5092506000821115611bb95760005b82811015611bb757818181518110611b7e57611b7d6133a4565b5b6020026020010151848281518110611b9957611b986133a4565b5b60200260200101819052508080611baf906132ce565b915050611b63565b505b5050919050565b600080611bce858585610c73565b905060008060005b8351811015611c97578573ffffffffffffffffffffffffffffffffffffffff16848281518110611c0957611c086133a4565b5b60200260200101516080015173ffffffffffffffffffffffffffffffffffffffff161415611c5757838181518110611c4457611c436133a4565b5b602002602001015160a001519250611c84565b838181518110611c6a57611c696133a4565b5b602002602001015160a0015182611c81919061310d565b91505b8080611c8f906132ce565b915050611bd6565b508082611ca49190613163565b93505050509392505050565b606060008060048054905067ffffffffffffffff811115611cd457611cd36133d3565b5b604051908082528060200260200182016040528015611d0d57816020015b611cfa6125c1565b815260200190600190039081611cf25790505b50905060005b600480549050811015611ff4578473ffffffffffffffffffffffffffffffffffffffff1660048281548110611d4b57611d4a6133a4565b5b906000526020600020906007020160040160009054906101000a900473ffffffffffffffffffffffffffffffffffffffff1673ffffffffffffffffffffffffffffffffffffffff161415611fe15760048181548110611dad57611dac6133a4565b5b90600052602060002090600702016040518060e0016040529081600082018054611dd69061326b565b80601f0160208091040260200160405190810160405280929190818152602001828054611e029061326b565b8015611e4f5780601f10611e2457610100808354040283529160200191611e4f565b820191906000526020600020905b815481529060010190602001808311611e3257829003601f168201915b50505050508152602001600182018054611e689061326b565b80601f0160208091040260200160405190810160405280929190818152602001828054611e949061326b565b8015611ee15780601f10611eb657610100808354040283529160200191611ee1565b820191906000526020600020905b815481529060010190602001808311611ec457829003601f168201915b50505050508152602001600282015481526020016003820160009054906101000a900473ffffffffffffffffffffffffffffffffffffffff1673ffffffffffffffffffffffffffffffffffffffff1673ffffffffffffffffffffffffffffffffffffffff1681526020016004820160009054906101000a900473ffffffffffffffffffffffffffffffffffffffff1673ffffffffffffffffffffffffffffffffffffffff1673ffffffffffffffffffffffffffffffffffffffff16815260200160058201548152602001600682015481525050828481518110611fc757611fc66133a4565b5b60200260200101819052508280611fdd906132ce565b9350505b8080611fec906132ce565b915050611d13565b508167ffffffffffffffff81111561200f5761200e6133d3565b5b60405190808252806020026020018201604052801561204857816020015b6120356125c1565b81526020019060019003908161202d5790505b50925060008211156120ad5760005b828110156120ab57818181518110612072576120716133a4565b5b602002602001015184828151811061208d5761208c6133a4565b5b602002602001018190525080806120a3906132ce565b915050612057565b505b5050919050565b6120bc61254a565b6000808373ffffffffffffffffffffffffffffffffffffffff1673ffffffffffffffffffffffffffffffffffffffff1681526020019081526020016000206040518060e00160405290816000820180546121159061326b565b80601f01602080910402602001604051908101604052809291908181526020018280546121419061326b565b801561218e5780601f106121635761010080835404028352916020019161218e565b820191906000526020600020905b81548152906001019060200180831161217157829003601f168201915b505050505081526020016001820180546121a79061326b565b80601f01602080910402602001604051908101604052809291908181526020018280546121d39061326b565b80156122205780601f106121f557610100808354040283529160200191612220565b820191906000526020600020905b81548152906001019060200180831161220357829003601f168201915b505050505081526020016002820160009054906101000a900460ff16600681111561224e5761224d613346565b5b60068111156122605761225f613346565b5b81526020016002820160019054906101000a900460ff16600281111561228957612288613346565b5b600281111561229b5761229a613346565b5b815260200160038201548152602001600482015481526020016005820160009054906101000a900473ffffffffffffffffffffffffffffffffffffffff1673ffffffffffffffffffffffffffffffffffffffff1673ffffffffffffffffffffffffffffffffffffffff16815250509050919050565b61231861262a565b6002826040516123289190612ebb565b90815260200160405180910390206040518060600160405290816000820180546123519061326b565b80601f016020809104026020016040519081016040528092919081815260200182805461237d9061326b565b80156123ca5780601f1061239f576101008083540402835291602001916123ca565b820191906000526020600020905b8154815290600101906020018083116123ad57829003601f168201915b505050505081526020016001820160009054906101000a900473ffffffffffffffffffffffffffffffffffffffff1673ffffffffffffffffffffffffffffffffffffffff1673ffffffffffffffffffffffffffffffffffffffff1681526020016001820160149054906101000a900460ff16600281111561244e5761244d613346565b5b60028111156124605761245f613346565b5b815250509050919050565b60008160405160200161247e9190612ebb565b60405160208183030381529060405280519060200120836040516020016124a59190612ebb565b6040516020818303038152906040528051906020012014905092915050565b8280546124d09061326b565b90600052602060002090601f0160209004810192826124f25760008555612539565b82601f1061250b57805160ff1916838001178555612539565b82800160010185558215612539579182015b8281111561253857825182559160200191906001019061251d565b5b5090506125469190612673565b5090565b6040518060e0016040528060608152602001606081526020016000600681111561257757612576613346565b5b8152602001600060028111156125905761258f613346565b5b81526020016000815260200160008152602001600073ffffffffffffffffffffffffffffffffffffffff1681525090565b6040518060e00160405280606081526020016060815260200160008152602001600073ffffffffffffffffffffffffffffffffffffffff168152602001600073ffffffffffffffffffffffffffffffffffffffff16815260200160008152602001600081525090565b604051806060016040528060608152602001600073ffffffffffffffffffffffffffffffffffffffff1681526020016000600281111561266d5761266c613346565b5b81525090565b5b8082111561268c576000816000905550600101612674565b5090565b60006126a361269e84613032565b61300d565b9050828152602081018484840111156126bf576126be613407565b5b6126ca848285613229565b509392505050565b6000813590506126e18161344f565b92915050565b6000813590506126f681613466565b92915050565b600082601f83011261271157612710613402565b5b8135612721848260208601612690565b91505092915050565b60008135905061273981613476565b92915050565b60006020828403121561275557612754613411565b5b6000612763848285016126d2565b91505092915050565b60006020828403121561278257612781613411565b5b6000612790848285016126e7565b91505092915050565b6000602082840312156127af576127ae613411565b5b600082013567ffffffffffffffff8111156127cd576127cc61340c565b5b6127d9848285016126fc565b91505092915050565b600080604083850312156127f9576127f8613411565b5b600083013567ffffffffffffffff8111156128175761281661340c565b5b612823858286016126fc565b925050602083013567ffffffffffffffff8111156128445761284361340c565b5b612850858286016126fc565b9150509250929050565b60008060006060848603121561287357612872613411565b5b600084013567ffffffffffffffff8111156128915761289061340c565b5b61289d868287016126fc565b935050602084013567ffffffffffffffff8111156128be576128bd61340c565b5b6128ca868287016126fc565b92505060406128db868287016126d2565b9150509250925092565b600080600080600060a0868803121561290157612900613411565b5b600086013567ffffffffffffffff81111561291f5761291e61340c565b5b61292b888289016126fc565b955050602086013567ffffffffffffffff81111561294c5761294b61340c565b5b612958888289016126fc565b94505060406129698882890161272a565b935050606061297a888289016126d2565b925050608061298b8882890161272a565b9150509295509295909350565b600080600080608085870312156129b2576129b1613411565b5b600085013567ffffffffffffffff8111156129d0576129cf61340c565b5b6129dc878288016126fc565b945050602085013567ffffffffffffffff8111156129fd576129fc61340c565b5b612a09878288016126fc565b9350506040612a1a8782880161272a565b9250506060612a2b8782880161272a565b91505092959194509250565b600060208284031215612a4d57612a4c613411565b5b6000612a5b8482850161272a565b91505092915050565b6000612a708383612cb4565b905092915050565b6000612a848383612d57565b905092915050565b612a9581613197565b82525050565b612aa481613197565b82525050565b6000612ab582613083565b612abf81856130be565b935083602082028501612ad185613063565b8060005b85811015612b0d5784840389528151612aee8582612a64565b9450612af9836130a4565b925060208a01995050600181019050612ad5565b50829750879550505050505092915050565b6000612b2a8261308e565b612b3481856130cf565b935083602082028501612b4685613073565b8060005b85811015612b825784840389528151612b638582612a78565b9450612b6e836130b1565b925060208a01995050600181019050612b4a565b50829750879550505050505092915050565b612b9d816131a9565b82525050565b612bac81613205565b82525050565b612bbb81613217565b82525050565b6000612bcc82613099565b612bd681856130e0565b9350612be6818560208601613238565b612bef81613416565b840191505092915050565b6000612c0582613099565b612c0f81856130f1565b9350612c1f818560208601613238565b612c2881613416565b840191505092915050565b6000612c3e82613099565b612c488185613102565b9350612c58818560208601613238565b80840191505092915050565b60006060830160008301518482036000860152612c818282612bc1565b9150506020830151612c966020860182612a8c565b506040830151612ca96040860182612ba3565b508091505092915050565b600060e0830160008301518482036000860152612cd18282612bc1565b91505060208301518482036020860152612ceb8282612bc1565b9150506040830151612d006040860182612e9d565b506060830151612d136060860182612a8c565b506080830151612d266080860182612a8c565b5060a0830151612d3960a0860182612e9d565b5060c0830151612d4c60c0860182612e9d565b508091505092915050565b600060e0830160008301518482036000860152612d748282612bc1565b91505060208301518482036020860152612d8e8282612bc1565b9150506040830151612da36040860182612bb2565b506060830151612db66060860182612ba3565b506080830151612dc96080860182612e9d565b5060a0830151612ddc60a0860182612e9d565b5060c0830151612def60c0860182612a8c565b508091505092915050565b600060e0830160008301518482036000860152612e178282612bc1565b91505060208301518482036020860152612e318282612bc1565b9150506040830151612e466040860182612bb2565b506060830151612e596060860182612ba3565b506080830151612e6c6080860182612e9d565b5060a0830151612e7f60a0860182612e9d565b5060c0830151612e9260c0860182612a8c565b508091505092915050565b612ea6816131fb565b82525050565b612eb5816131fb565b82525050565b6000612ec78284612c33565b915081905092915050565b60006020820190508181036000830152612eec8184612aaa565b905092915050565b60006020820190508181036000830152612f0e8184612b1f565b905092915050565b6000602082019050612f2b6000830184612b94565b92915050565b600060e0820190508181036000830152612f4b818a612bfa565b90508181036020830152612f5f8189612bfa565b9050612f6e6040830188612eac565b612f7b6060830187612a9b565b612f886080830186612a9b565b612f9560a0830185612eac565b612fa260c0830184612eac565b98975050505050505050565b60006020820190508181036000830152612fc88184612c64565b905092915050565b60006020820190508181036000830152612fea8184612dfa565b905092915050565b60006020820190506130076000830184612eac565b92915050565b6000613017613028565b9050613023828261329d565b919050565b6000604051905090565b600067ffffffffffffffff82111561304d5761304c6133d3565b5b61305682613416565b9050602081019050919050565b6000819050602082019050919050565b6000819050602082019050919050565b600081519050919050565b600081519050919050565b600081519050919050565b6000602082019050919050565b6000602082019050919050565b600082825260208201905092915050565b600082825260208201905092915050565b600082825260208201905092915050565b600082825260208201905092915050565b600081905092915050565b6000613118826131fb565b9150613123836131fb565b9250827fffffffffffffffffffffffffffffffffffffffffffffffffffffffffffffffff0382111561315857613157613317565b5b828201905092915050565b600061316e826131fb565b9150613179836131fb565b92508282101561318c5761318b613317565b5b828203905092915050565b60006131a2826131db565b9050919050565b60008115159050919050565b60008190506131c382613427565b919050565b60008190506131d68261343b565b919050565b600073ffffffffffffffffffffffffffffffffffffffff82169050919050565b6000819050919050565b6000613210826131b5565b9050919050565b6000613222826131c8565b9050919050565b82818337600083830152505050565b60005b8381101561325657808201518184015260208101905061323b565b83811115613265576000848401525b50505050565b6000600282049050600182168061328357607f821691505b6020821081141561329757613296613375565b5b50919050565b6132a682613416565b810181811067ffffffffffffffff821117156132c5576132c46133d3565b5b80604052505050565b60006132d9826131fb565b91507fffffffffffffffffffffffffffffffffffffffffffffffffffffffffffffffff82141561330c5761330b613317565b5b600182019050919050565b7f4e487b7100000000000000000000000000000000000000000000000000000000600052601160045260246000fd5b7f4e487b7100000000000000000000000000000000000000000000000000000000600052602160045260246000fd5b7f4e487b7100000000000000000000000000000000000000000000000000000000600052602260045260246000fd5b7f4e487b7100000000000000000000000000000000000000000000000000000000600052603260045260246000fd5b7f4e487b7100000000000000000000000000000000000000000000000000000000600052604160045260246000fd5b600080fd5b600080fd5b600080fd5b600080fd5b6000601f19601f8301169050919050565b6003811061343857613437613346565b5b50565b6007811061344c5761344b613346565b5b50565b61345881613197565b811461346357600080fd5b50565b6007811061347357600080fd5b50565b61347f816131fb565b811461348a57600080fd5b5056fea26469706673582212202bfc0f5a3570136599b54aae1b4309443ebefd6e7e15423963ad9c423f28414d64736f6c63430008070033",
			"opcodes": "PUSH1 0x80 PUSH1 0x40 MSTORE CALLVALUE DUP1 ISZERO PUSH2 0x10 JUMPI PUSH1 0x0 DUP1 REVERT JUMPDEST POP PUSH2 0x34C3 DUP1 PUSH2 0x20 PUSH1 0x0 CODECOPY PUSH1 0x0 RETURN INVALID PUSH1 0x80 PUSH1 0x40 MSTORE CALLVALUE DUP1 ISZERO PUSH2 0x10 JUMPI PUSH1 0x0 DUP1 REVERT JUMPDEST POP PUSH1 0x4 CALLDATASIZE LT PUSH2 0xB4 JUMPI PUSH1 0x0 CALLDATALOAD PUSH1 0xE0 SHR DUP1 PUSH4 0x4B2D14AA GT PUSH2 0x71 JUMPI DUP1 PUSH4 0x4B2D14AA EQ PUSH2 0x1DF JUMPI DUP1 PUSH4 0x798D2122 EQ PUSH2 0x20F JUMPI DUP1 PUSH4 0x99B5BBDD EQ PUSH2 0x23F JUMPI DUP1 PUSH4 0xCD1720D1 EQ PUSH2 0x26F JUMPI DUP1 PUSH4 0xCDF7E73D EQ PUSH2 0x29F JUMPI DUP1 PUSH4 0xE9A734FF EQ PUSH2 0x2CF JUMPI PUSH2 0xB4 JUMP JUMPDEST DUP1 PUSH4 0x67AAE89 EQ PUSH2 0xB9 JUMPI DUP1 PUSH4 0xF9DE977 EQ PUSH2 0xE9 JUMPI DUP1 PUSH4 0x1567697C EQ PUSH2 0x119 JUMPI DUP1 PUSH4 0x1AAF0BEB EQ PUSH2 0x14F JUMPI DUP1 PUSH4 0x31A6DB4D EQ PUSH2 0x17F JUMPI DUP1 PUSH4 0x40D37CAF EQ PUSH2 0x1AF JUMPI JUMPDEST PUSH1 0x0 DUP1 REVERT JUMPDEST PUSH2 0xD3 PUSH1 0x4 DUP1 CALLDATASIZE SUB DUP2 ADD SWAP1 PUSH2 0xCE SWAP2 SWAP1 PUSH2 0x28E5 JUMP JUMPDEST PUSH2 0x2FF JUMP JUMPDEST PUSH1 0x40 MLOAD PUSH2 0xE0 SWAP2 SWAP1 PUSH2 0x2F16 JUMP JUMPDEST PUSH1 0x40 MLOAD DUP1 SWAP2 SUB SWAP1 RETURN JUMPDEST PUSH2 0x103 PUSH1 0x4 DUP1 CALLDATASIZE SUB DUP2 ADD SWAP1 PUSH2 0xFE SWAP2 SWAP1 PUSH2 0x276C JUMP JUMPDEST PUSH2 0x49B JUMP JUMPDEST PUSH1 0x40 MLOAD PUSH2 0x110 SWAP2 SWAP1 PUSH2 0x2EF4 JUMP JUMPDEST PUSH1 0x40 MLOAD DUP1 SWAP2 SUB SWAP1 RETURN JUMPDEST PUSH2 0x133 PUSH1 0x4 DUP1 CALLDATASIZE SUB DUP2 ADD SWAP1 PUSH2 0x12E SWAP2 SWAP1 PUSH2 0x2A37 JUMP JUMPDEST PUSH2 0x94A JUMP JUMPDEST PUSH1 0x40 MLOAD PUSH2 0x146 SWAP8 SWAP7 SWAP6 SWAP5 SWAP4 SWAP3 SWAP2 SWAP1 PUSH2 0x2F31 JUMP JUMPDEST PUSH1 0x40 MLOAD DUP1 SWAP2 SUB SWAP1 RETURN JUMPDEST PUSH2 0x169 PUSH1 0x4 DUP1 CALLDATASIZE SUB DUP2 ADD SWAP1 PUSH2 0x164 SWAP2 SWAP1 PUSH2 0x2998 JUMP JUMPDEST PUSH2 0xAEC JUMP JUMPDEST PUSH1 0x40 MLOAD PUSH2 0x176 SWAP2 SWAP1 PUSH2 0x2F16 JUMP JUMPDEST PUSH1 0x40 MLOAD DUP1 SWAP2 SUB SWAP1 RETURN JUMPDEST PUSH2 0x199 PUSH1 0x4 DUP1 CALLDATASIZE SUB DUP2 ADD SWAP1 PUSH2 0x194 SWAP2 SWAP1 PUSH2 0x285A JUMP JUMPDEST PUSH2 0xC73 JUMP JUMPDEST PUSH1 0x40 MLOAD PUSH2 0x1A6 SWAP2 SWAP1 PUSH2 0x2ED2 JUMP JUMPDEST PUSH1 0x40 MLOAD DUP1 SWAP2 SUB SWAP1 RETURN JUMPDEST PUSH2 0x1C9 PUSH1 0x4 DUP1 CALLDATASIZE SUB DUP2 ADD SWAP1 PUSH2 0x1C4 SWAP2 SWAP1 PUSH2 0x27E2 JUMP JUMPDEST PUSH2 0x1272 JUMP JUMPDEST PUSH1 0x40 MLOAD PUSH2 0x1D6 SWAP2 SWAP1 PUSH2 0x2ED2 JUMP JUMPDEST PUSH1 0x40 MLOAD DUP1 SWAP2 SUB SWAP1 RETURN JUMPDEST PUSH2 0x1F9 PUSH1 0x4 DUP1 CALLDATASIZE SUB DUP2 ADD SWAP1 PUSH2 0x1F4 SWAP2 SWAP1 PUSH2 0x2799 JUMP JUMPDEST PUSH2 0x1779 JUMP JUMPDEST PUSH1 0x40 MLOAD PUSH2 0x206 SWAP2 SWAP1 PUSH2 0x2ED2 JUMP JUMPDEST PUSH1 0x40 MLOAD DUP1 SWAP2 SUB SWAP1 RETURN JUMPDEST PUSH2 0x229 PUSH1 0x4 DUP1 CALLDATASIZE SUB DUP2 ADD SWAP1 PUSH2 0x224 SWAP2 SWAP1 PUSH2 0x285A JUMP JUMPDEST PUSH2 0x1BC0 JUMP JUMPDEST PUSH1 0x40 MLOAD PUSH2 0x236 SWAP2 SWAP1 PUSH2 0x2FF2 JUMP JUMPDEST PUSH1 0x40 MLOAD DUP1 SWAP2 SUB SWAP1 RETURN JUMPDEST PUSH2 0x259 PUSH1 0x4 DUP1 CALLDATASIZE SUB DUP2 ADD SWAP1 PUSH2 0x254 SWAP2 SWAP1 PUSH2 0x273F JUMP JUMPDEST PUSH2 0x1CB0 JUMP JUMPDEST PUSH1 0x40 MLOAD PUSH2 0x266 SWAP2 SWAP1 PUSH2 0x2ED2 JUMP JUMPDEST PUSH1 0x40 MLOAD DUP1 SWAP2 SUB SWAP1 RETURN JUMPDEST PUSH2 0x289 PUSH1 0x4 DUP1 CALLDATASIZE SUB DUP2 ADD SWAP1 PUSH2 0x284 SWAP2 SWAP1 PUSH2 0x273F JUMP JUMPDEST PUSH2 0x20B4 JUMP JUMPDEST PUSH1 0x40 MLOAD PUSH2 0x296 SWAP2 SWAP1 PUSH2 0x2FD0 JUMP JUMPDEST PUSH1 0x40 MLOAD DUP1 SWAP2 SUB SWAP1 RETURN JUMPDEST PUSH2 0x2B9 PUSH1 0x4 DUP1 CALLDATASIZE SUB DUP2 ADD SWAP1 PUSH2 0x2B4 SWAP2 SWAP1 PUSH2 0x2799 JUMP JUMPDEST PUSH2 0x2310 JUMP JUMPDEST PUSH1 0x40 MLOAD PUSH2 0x2C6 SWAP2 SWAP1 PUSH2 0x2FAE JUMP JUMPDEST PUSH1 0x40 MLOAD DUP1 SWAP2 SUB SWAP1 RETURN JUMPDEST PUSH2 0x2E9 PUSH1 0x4 DUP1 CALLDATASIZE SUB DUP2 ADD SWAP1 PUSH2 0x2E4 SWAP2 SWAP1 PUSH2 0x27E2 JUMP JUMPDEST PUSH2 0x246B JUMP JUMPDEST PUSH1 0x40 MLOAD PUSH2 0x2F6 SWAP2 SWAP1 PUSH2 0x2F16 JUMP JUMPDEST PUSH1 0x40 MLOAD DUP1 SWAP2 SUB SWAP1 RETURN JUMPDEST PUSH1 0x0 DUP1 PUSH1 0x40 MLOAD DUP1 PUSH1 0xE0 ADD PUSH1 0x40 MSTORE DUP1 DUP9 DUP2 MSTORE PUSH1 0x20 ADD DUP8 DUP2 MSTORE PUSH1 0x20 ADD PUSH1 0x1 PUSH2 0x325 DUP11 DUP11 PUSH2 0x1272 JUMP JUMPDEST MLOAD PUSH2 0x330 SWAP2 SWAP1 PUSH2 0x310D JUMP JUMPDEST DUP2 MSTORE PUSH1 0x20 ADD CALLER PUSH20 0xFFFFFFFFFFFFFFFFFFFFFFFFFFFFFFFFFFFFFFFF AND DUP2 MSTORE PUSH1 0x20 ADD DUP6 PUSH20 0xFFFFFFFFFFFFFFFFFFFFFFFFFFFFFFFFFFFFFFFF AND DUP2 MSTORE PUSH1 0x20 ADD DUP7 DUP2 MSTORE PUSH1 0x20 ADD DUP5 DUP2 MSTORE POP SWAP1 POP PUSH1 0x4 DUP2 SWAP1 DUP1 PUSH1 0x1 DUP2 SLOAD ADD DUP1 DUP3 SSTORE DUP1 SWAP2 POP POP PUSH1 0x1 SWAP1 SUB SWAP1 PUSH1 0x0 MSTORE PUSH1 0x20 PUSH1 0x0 KECCAK256 SWAP1 PUSH1 0x7 MUL ADD PUSH1 0x0 SWAP1 SWAP2 SWAP1 SWAP2 SWAP1 SWAP2 POP PUSH1 0x0 DUP3 ADD MLOAD DUP2 PUSH1 0x0 ADD SWAP1 DUP1 MLOAD SWAP1 PUSH1 0x20 ADD SWAP1 PUSH2 0x3C1 SWAP3 SWAP2 SWAP1 PUSH2 0x24C4 JUMP JUMPDEST POP PUSH1 0x20 DUP3 ADD MLOAD DUP2 PUSH1 0x1 ADD SWAP1 DUP1 MLOAD SWAP1 PUSH1 0x20 ADD SWAP1 PUSH2 0x3DE SWAP3 SWAP2 SWAP1 PUSH2 0x24C4 JUMP JUMPDEST POP PUSH1 0x40 DUP3 ADD MLOAD DUP2 PUSH1 0x2 ADD SSTORE PUSH1 0x60 DUP3 ADD MLOAD DUP2 PUSH1 0x3 ADD PUSH1 0x0 PUSH2 0x100 EXP DUP2 SLOAD DUP2 PUSH20 0xFFFFFFFFFFFFFFFFFFFFFFFFFFFFFFFFFFFFFFFF MUL NOT AND SWAP1 DUP4 PUSH20 0xFFFFFFFFFFFFFFFFFFFFFFFFFFFFFFFFFFFFFFFF AND MUL OR SWAP1 SSTORE POP PUSH1 0x80 DUP3 ADD MLOAD DUP2 PUSH1 0x4 ADD PUSH1 0x0 PUSH2 0x100 EXP DUP2 SLOAD DUP2 PUSH20 0xFFFFFFFFFFFFFFFFFFFFFFFFFFFFFFFFFFFFFFFF MUL NOT AND SWAP1 DUP4 PUSH20 0xFFFFFFFFFFFFFFFFFFFFFFFFFFFFFFFFFFFFFFFF AND MUL OR SWAP1 SSTORE POP PUSH1 0xA0 DUP3 ADD MLOAD DUP2 PUSH1 0x5 ADD SSTORE PUSH1 0xC0 DUP3 ADD MLOAD DUP2 PUSH1 0x6 ADD SSTORE POP POP PUSH1 0x1 SWAP2 POP POP SWAP6 SWAP5 POP POP POP POP POP JUMP JUMPDEST PUSH1 0x60 PUSH1 0x0 PUSH1 0x1 DUP1 SLOAD SWAP1 POP SWAP1 POP PUSH1 0x0 DUP2 PUSH8 0xFFFFFFFFFFFFFFFF DUP2 GT ISZERO PUSH2 0x4C3 JUMPI PUSH2 0x4C2 PUSH2 0x33D3 JUMP JUMPDEST JUMPDEST PUSH1 0x40 MLOAD SWAP1 DUP1 DUP3 MSTORE DUP1 PUSH1 0x20 MUL PUSH1 0x20 ADD DUP3 ADD PUSH1 0x40 MSTORE DUP1 ISZERO PUSH2 0x4FC JUMPI DUP2 PUSH1 0x20 ADD JUMPDEST PUSH2 0x4E9 PUSH2 0x254A JUMP JUMPDEST DUP2 MSTORE PUSH1 0x20 ADD SWAP1 PUSH1 0x1 SWAP1 SUB SWAP1 DUP2 PUSH2 0x4E1 JUMPI SWAP1 POP JUMPDEST POP SWAP1 POP PUSH1 0x0 DUP1 PUSH1 0x0 SWAP1 POP JUMPDEST DUP4 DUP2 LT ISZERO PUSH2 0x893 JUMPI DUP6 PUSH1 0x6 DUP2 GT ISZERO PUSH2 0x522 JUMPI PUSH2 0x521 PUSH2 0x3346 JUMP JUMPDEST JUMPDEST PUSH1 0x0 DUP1 PUSH1 0x1 DUP5 DUP2 SLOAD DUP2 LT PUSH2 0x539 JUMPI PUSH2 0x538 PUSH2 0x33A4 JUMP JUMPDEST JUMPDEST SWAP1 PUSH1 0x0 MSTORE PUSH1 0x20 PUSH1 0x0 KECCAK256 ADD PUSH1 0x0 SWAP1 SLOAD SWAP1 PUSH2 0x100 EXP SWAP1 DIV PUSH20 0xFFFFFFFFFFFFFFFFFFFFFFFFFFFFFFFFFFFFFFFF AND PUSH20 0xFFFFFFFFFFFFFFFFFFFFFFFFFFFFFFFFFFFFFFFF AND PUSH20 0xFFFFFFFFFFFFFFFFFFFFFFFFFFFFFFFFFFFFFFFF AND DUP2 MSTORE PUSH1 0x20 ADD SWAP1 DUP2 MSTORE PUSH1 0x20 ADD PUSH1 0x0 KECCAK256 PUSH1 0x2 ADD PUSH1 0x0 SWAP1 SLOAD SWAP1 PUSH2 0x100 EXP SWAP1 DIV PUSH1 0xFF AND PUSH1 0x6 DUP2 GT ISZERO PUSH2 0x5C1 JUMPI PUSH2 0x5C0 PUSH2 0x3346 JUMP JUMPDEST JUMPDEST EQ ISZERO PUSH2 0x880 JUMPI PUSH1 0x0 DUP1 PUSH1 0x1 DUP4 DUP2 SLOAD DUP2 LT PUSH2 0x5DE JUMPI PUSH2 0x5DD PUSH2 0x33A4 JUMP JUMPDEST JUMPDEST SWAP1 PUSH1 0x0 MSTORE PUSH1 0x20 PUSH1 0x0 KECCAK256 ADD PUSH1 0x0 SWAP1 SLOAD SWAP1 PUSH2 0x100 EXP SWAP1 DIV PUSH20 0xFFFFFFFFFFFFFFFFFFFFFFFFFFFFFFFFFFFFFFFF AND PUSH20 0xFFFFFFFFFFFFFFFFFFFFFFFFFFFFFFFFFFFFFFFF AND PUSH20 0xFFFFFFFFFFFFFFFFFFFFFFFFFFFFFFFFFFFFFFFF AND DUP2 MSTORE PUSH1 0x20 ADD SWAP1 DUP2 MSTORE PUSH1 0x20 ADD PUSH1 0x0 KECCAK256 PUSH1 0x40 MLOAD DUP1 PUSH1 0xE0 ADD PUSH1 0x40 MSTORE SWAP1 DUP2 PUSH1 0x0 DUP3 ADD DUP1 SLOAD PUSH2 0x65E SWAP1 PUSH2 0x326B JUMP JUMPDEST DUP1 PUSH1 0x1F ADD PUSH1 0x20 DUP1 SWAP2 DIV MUL PUSH1 0x20 ADD PUSH1 0x40 MLOAD SWAP1 DUP2 ADD PUSH1 0x40 MSTORE DUP1 SWAP3 SWAP2 SWAP1 DUP2 DUP2 MSTORE PUSH1 0x20 ADD DUP3 DUP1 SLOAD PUSH2 0x68A SWAP1 PUSH2 0x326B JUMP JUMPDEST DUP1 ISZERO PUSH2 0x6D7 JUMPI DUP1 PUSH1 0x1F LT PUSH2 0x6AC JUMPI PUSH2 0x100 DUP1 DUP4 SLOAD DIV MUL DUP4 MSTORE SWAP2 PUSH1 0x20 ADD SWAP2 PUSH2 0x6D7 JUMP JUMPDEST DUP3 ADD SWAP2 SWAP1 PUSH1 0x0 MSTORE PUSH1 0x20 PUSH1 0x0 KECCAK256 SWAP1 JUMPDEST DUP2 SLOAD DUP2 MSTORE SWAP1 PUSH1 0x1 ADD SWAP1 PUSH1 0x20 ADD DUP1 DUP4 GT PUSH2 0x6BA JUMPI DUP3 SWAP1 SUB PUSH1 0x1F AND DUP3 ADD SWAP2 JUMPDEST POP POP POP POP POP DUP2 MSTORE PUSH1 0x20 ADD PUSH1 0x1 DUP3 ADD DUP1 SLOAD PUSH2 0x6F0 SWAP1 PUSH2 0x326B JUMP JUMPDEST DUP1 PUSH1 0x1F ADD PUSH1 0x20 DUP1 SWAP2 DIV MUL PUSH1 0x20 ADD PUSH1 0x40 MLOAD SWAP1 DUP2 ADD PUSH1 0x40 MSTORE DUP1 SWAP3 SWAP2 SWAP1 DUP2 DUP2 MSTORE PUSH1 0x20 ADD DUP3 DUP1 SLOAD PUSH2 0x71C SWAP1 PUSH2 0x326B JUMP JUMPDEST DUP1 ISZERO PUSH2 0x769 JUMPI DUP1 PUSH1 0x1F LT PUSH2 0x73E JUMPI PUSH2 0x100 DUP1 DUP4 SLOAD DIV MUL DUP4 MSTORE SWAP2 PUSH1 0x20 ADD SWAP2 PUSH2 0x769 JUMP JUMPDEST DUP3 ADD SWAP2 SWAP1 PUSH1 0x0 MSTORE PUSH1 0x20 PUSH1 0x0 KECCAK256 SWAP1 JUMPDEST DUP2 SLOAD DUP2 MSTORE SWAP1 PUSH1 0x1 ADD SWAP1 PUSH1 0x20 ADD DUP1 DUP4 GT PUSH2 0x74C JUMPI DUP3 SWAP1 SUB PUSH1 0x1F AND DUP3 ADD SWAP2 JUMPDEST POP POP POP POP POP DUP2 MSTORE PUSH1 0x20 ADD PUSH1 0x2 DUP3 ADD PUSH1 0x0 SWAP1 SLOAD SWAP1 PUSH2 0x100 EXP SWAP1 DIV PUSH1 0xFF AND PUSH1 0x6 DUP2 GT ISZERO PUSH2 0x797 JUMPI PUSH2 0x796 PUSH2 0x3346 JUMP JUMPDEST JUMPDEST PUSH1 0x6 DUP2 GT ISZERO PUSH2 0x7A9 JUMPI PUSH2 0x7A8 PUSH2 0x3346 JUMP JUMPDEST JUMPDEST DUP2 MSTORE PUSH1 0x20 ADD PUSH1 0x2 DUP3 ADD PUSH1 0x1 SWAP1 SLOAD SWAP1 PUSH2 0x100 EXP SWAP1 DIV PUSH1 0xFF AND PUSH1 0x2 DUP2 GT ISZERO PUSH2 0x7D2 JUMPI PUSH2 0x7D1 PUSH2 0x3346 JUMP JUMPDEST JUMPDEST PUSH1 0x2 DUP2 GT ISZERO PUSH2 0x7E4 JUMPI PUSH2 0x7E3 PUSH2 0x3346 JUMP JUMPDEST JUMPDEST DUP2 MSTORE PUSH1 0x20 ADD PUSH1 0x3 DUP3 ADD SLOAD DUP2 MSTORE PUSH1 0x20 ADD PUSH1 0x4 DUP3 ADD SLOAD DUP2 MSTORE PUSH1 0x20 ADD PUSH1 0x5 DUP3 ADD PUSH1 0x0 SWAP1 SLOAD SWAP1 PUSH2 0x100 EXP SWAP1 DIV PUSH20 0xFFFFFFFFFFFFFFFFFFFFFFFFFFFFFFFFFFFFFFFF AND PUSH20 0xFFFFFFFFFFFFFFFFFFFFFFFFFFFFFFFFFFFFFFFF AND PUSH20 0xFFFFFFFFFFFFFFFFFFFFFFFFFFFFFFFFFFFFFFFF AND DUP2 MSTORE POP POP DUP4 DUP4 DUP2 MLOAD DUP2 LT PUSH2 0x865 JUMPI PUSH2 0x864 PUSH2 0x33A4 JUMP JUMPDEST JUMPDEST PUSH1 0x20 MUL PUSH1 0x20 ADD ADD DUP2 SWAP1 MSTORE POP PUSH1 0x1 DUP3 PUSH2 0x87D SWAP2 SWAP1 PUSH2 0x310D JUMP JUMPDEST SWAP2 POP JUMPDEST DUP1 DUP1 PUSH2 0x88B SWAP1 PUSH2 0x32CE JUMP JUMPDEST SWAP2 POP POP PUSH2 0x507 JUMP JUMPDEST POP DUP1 PUSH8 0xFFFFFFFFFFFFFFFF DUP2 GT ISZERO PUSH2 0x8AE JUMPI PUSH2 0x8AD PUSH2 0x33D3 JUMP JUMPDEST JUMPDEST PUSH1 0x40 MLOAD SWAP1 DUP1 DUP3 MSTORE DUP1 PUSH1 0x20 MUL PUSH1 0x20 ADD DUP3 ADD PUSH1 0x40 MSTORE DUP1 ISZERO PUSH2 0x8E7 JUMPI DUP2 PUSH1 0x20 ADD JUMPDEST PUSH2 0x8D4 PUSH2 0x254A JUMP JUMPDEST DUP2 MSTORE PUSH1 0x20 ADD SWAP1 PUSH1 0x1 SWAP1 SUB SWAP1 DUP2 PUSH2 0x8CC JUMPI SWAP1 POP JUMPDEST POP SWAP4 POP PUSH1 0x0 JUMPDEST DUP2 DUP2 LT ISZERO PUSH2 0x941 JUMPI DUP3 DUP2 DUP2 MLOAD DUP2 LT PUSH2 0x908 JUMPI PUSH2 0x907 PUSH2 0x33A4 JUMP JUMPDEST JUMPDEST PUSH1 0x20 MUL PUSH1 0x20 ADD ADD MLOAD DUP6 DUP3 DUP2 MLOAD DUP2 LT PUSH2 0x923 JUMPI PUSH2 0x922 PUSH2 0x33A4 JUMP JUMPDEST JUMPDEST PUSH1 0x20 MUL PUSH1 0x20 ADD ADD DUP2 SWAP1 MSTORE POP DUP1 DUP1 PUSH2 0x939 SWAP1 PUSH2 0x32CE JUMP JUMPDEST SWAP2 POP POP PUSH2 0x8ED JUMP JUMPDEST POP POP POP POP SWAP2 SWAP1 POP JUMP JUMPDEST PUSH1 0x4 DUP2 DUP2 SLOAD DUP2 LT PUSH2 0x95A JUMPI PUSH1 0x0 DUP1 REVERT JUMPDEST SWAP1 PUSH1 0x0 MSTORE PUSH1 0x20 PUSH1 0x0 KECCAK256 SWAP1 PUSH1 0x7 MUL ADD PUSH1 0x0 SWAP2 POP SWAP1 POP DUP1 PUSH1 0x0 ADD DUP1 SLOAD PUSH2 0x97D SWAP1 PUSH2 0x326B JUMP JUMPDEST DUP1 PUSH1 0x1F ADD PUSH1 0x20 DUP1 SWAP2 DIV MUL PUSH1 0x20 ADD PUSH1 0x40 MLOAD SWAP1 DUP2 ADD PUSH1 0x40 MSTORE DUP1 SWAP3 SWAP2 SWAP1 DUP2 DUP2 MSTORE PUSH1 0x20 ADD DUP3 DUP1 SLOAD PUSH2 0x9A9 SWAP1 PUSH2 0x326B JUMP JUMPDEST DUP1 ISZERO PUSH2 0x9F6 JUMPI DUP1 PUSH1 0x1F LT PUSH2 0x9CB JUMPI PUSH2 0x100 DUP1 DUP4 SLOAD DIV MUL DUP4 MSTORE SWAP2 PUSH1 0x20 ADD SWAP2 PUSH2 0x9F6 JUMP JUMPDEST DUP3 ADD SWAP2 SWAP1 PUSH1 0x0 MSTORE PUSH1 0x20 PUSH1 0x0 KECCAK256 SWAP1 JUMPDEST DUP2 SLOAD DUP2 MSTORE SWAP1 PUSH1 0x1 ADD SWAP1 PUSH1 0x20 ADD DUP1 DUP4 GT PUSH2 0x9D9 JUMPI DUP3 SWAP1 SUB PUSH1 0x1F AND DUP3 ADD SWAP2 JUMPDEST POP POP POP POP POP SWAP1 DUP1 PUSH1 0x1 ADD DUP1 SLOAD PUSH2 0xA0B SWAP1 PUSH2 0x326B JUMP JUMPDEST DUP1 PUSH1 0x1F ADD PUSH1 0x20 DUP1 SWAP2 DIV MUL PUSH1 0x20 ADD PUSH1 0x40 MLOAD SWAP1 DUP2 ADD PUSH1 0x40 MSTORE DUP1 SWAP3 SWAP2 SWAP1 DUP2 DUP2 MSTORE PUSH1 0x20 ADD DUP3 DUP1 SLOAD PUSH2 0xA37 SWAP1 PUSH2 0x326B JUMP JUMPDEST DUP1 ISZERO PUSH2 0xA84 JUMPI DUP1 PUSH1 0x1F LT PUSH2 0xA59 JUMPI PUSH2 0x100 DUP1 DUP4 SLOAD DIV MUL DUP4 MSTORE SWAP2 PUSH1 0x20 ADD SWAP2 PUSH2 0xA84 JUMP JUMPDEST DUP3 ADD SWAP2 SWAP1 PUSH1 0x0 MSTORE PUSH1 0x20 PUSH1 0x0 KECCAK256 SWAP1 JUMPDEST DUP2 SLOAD DUP2 MSTORE SWAP1 PUSH1 0x1 ADD SWAP1 PUSH1 0x20 ADD DUP1 DUP4 GT PUSH2 0xA67 JUMPI DUP3 SWAP1 SUB PUSH1 0x1F AND DUP3 ADD SWAP2 JUMPDEST POP POP POP POP POP SWAP1 DUP1 PUSH1 0x2 ADD SLOAD SWAP1 DUP1 PUSH1 0x3 ADD PUSH1 0x0 SWAP1 SLOAD SWAP1 PUSH2 0x100 EXP SWAP1 DIV PUSH20 0xFFFFFFFFFFFFFFFFFFFFFFFFFFFFFFFFFFFFFFFF AND SWAP1 DUP1 PUSH1 0x4 ADD PUSH1 0x0 SWAP1 SLOAD SWAP1 PUSH2 0x100 EXP SWAP1 DIV PUSH20 0xFFFFFFFFFFFFFFFFFFFFFFFFFFFFFFFFFFFFFFFF AND SWAP1 DUP1 PUSH1 0x5 ADD SLOAD SWAP1 DUP1 PUSH1 0x6 ADD SLOAD SWAP1 POP DUP8 JUMP JUMPDEST PUSH1 0x0 DUP1 PUSH1 0x40 MLOAD DUP1 PUSH1 0xE0 ADD PUSH1 0x40 MSTORE DUP1 DUP8 DUP2 MSTORE PUSH1 0x20 ADD DUP7 DUP2 MSTORE PUSH1 0x20 ADD PUSH1 0x0 DUP2 MSTORE PUSH1 0x20 ADD PUSH1 0x0 PUSH20 0xFFFFFFFFFFFFFFFFFFFFFFFFFFFFFFFFFFFFFFFF AND DUP2 MSTORE PUSH1 0x20 ADD CALLER PUSH20 0xFFFFFFFFFFFFFFFFFFFFFFFFFFFFFFFFFFFFFFFF AND DUP2 MSTORE PUSH1 0x20 ADD DUP6 DUP2 MSTORE PUSH1 0x20 ADD DUP5 DUP2 MSTORE POP SWAP1 POP PUSH1 0x4 DUP2 SWAP1 DUP1 PUSH1 0x1 DUP2 SLOAD ADD DUP1 DUP3 SSTORE DUP1 SWAP2 POP POP PUSH1 0x1 SWAP1 SUB SWAP1 PUSH1 0x0 MSTORE PUSH1 0x20 PUSH1 0x0 KECCAK256 SWAP1 PUSH1 0x7 MUL ADD PUSH1 0x0 SWAP1 SWAP2 SWAP1 SWAP2 SWAP1 SWAP2 POP PUSH1 0x0 DUP3 ADD MLOAD DUP2 PUSH1 0x0 ADD SWAP1 DUP1 MLOAD SWAP1 PUSH1 0x20 ADD SWAP1 PUSH2 0xB9A SWAP3 SWAP2 SWAP1 PUSH2 0x24C4 JUMP JUMPDEST POP PUSH1 0x20 DUP3 ADD MLOAD DUP2 PUSH1 0x1 ADD SWAP1 DUP1 MLOAD SWAP1 PUSH1 0x20 ADD SWAP1 PUSH2 0xBB7 SWAP3 SWAP2 SWAP1 PUSH2 0x24C4 JUMP JUMPDEST POP PUSH1 0x40 DUP3 ADD MLOAD DUP2 PUSH1 0x2 ADD SSTORE PUSH1 0x60 DUP3 ADD MLOAD DUP2 PUSH1 0x3 ADD PUSH1 0x0 PUSH2 0x100 EXP DUP2 SLOAD DUP2 PUSH20 0xFFFFFFFFFFFFFFFFFFFFFFFFFFFFFFFFFFFFFFFF MUL NOT AND SWAP1 DUP4 PUSH20 0xFFFFFFFFFFFFFFFFFFFFFFFFFFFFFFFFFFFFFFFF AND MUL OR SWAP1 SSTORE POP PUSH1 0x80 DUP3 ADD MLOAD DUP2 PUSH1 0x4 ADD PUSH1 0x0 PUSH2 0x100 EXP DUP2 SLOAD DUP2 PUSH20 0xFFFFFFFFFFFFFFFFFFFFFFFFFFFFFFFFFFFFFFFF MUL NOT AND SWAP1 DUP4 PUSH20 0xFFFFFFFFFFFFFFFFFFFFFFFFFFFFFFFFFFFFFFFF AND MUL OR SWAP1 SSTORE POP PUSH1 0xA0 DUP3 ADD MLOAD DUP2 PUSH1 0x5 ADD SSTORE PUSH1 0xC0 DUP3 ADD MLOAD DUP2 PUSH1 0x6 ADD SSTORE POP POP PUSH1 0x1 SWAP2 POP POP SWAP5 SWAP4 POP POP POP POP JUMP JUMPDEST PUSH1 0x60 PUSH1 0x0 DUP1 PUSH1 0x4 DUP1 SLOAD SWAP1 POP PUSH8 0xFFFFFFFFFFFFFFFF DUP2 GT ISZERO PUSH2 0xC97 JUMPI PUSH2 0xC96 PUSH2 0x33D3 JUMP JUMPDEST JUMPDEST PUSH1 0x40 MLOAD SWAP1 DUP1 DUP3 MSTORE DUP1 PUSH1 0x20 MUL PUSH1 0x20 ADD DUP3 ADD PUSH1 0x40 MSTORE DUP1 ISZERO PUSH2 0xCD0 JUMPI DUP2 PUSH1 0x20 ADD JUMPDEST PUSH2 0xCBD PUSH2 0x25C1 JUMP JUMPDEST DUP2 MSTORE PUSH1 0x20 ADD SWAP1 PUSH1 0x1 SWAP1 SUB SWAP1 DUP2 PUSH2 0xCB5 JUMPI SWAP1 POP JUMPDEST POP SWAP1 POP PUSH1 0x0 JUMPDEST PUSH1 0x4 DUP1 SLOAD SWAP1 POP DUP2 LT ISZERO PUSH2 0x11B0 JUMPI PUSH2 0xD9A PUSH1 0x4 DUP3 DUP2 SLOAD DUP2 LT PUSH2 0xCFA JUMPI PUSH2 0xCF9 PUSH2 0x33A4 JUMP JUMPDEST JUMPDEST SWAP1 PUSH1 0x0 MSTORE PUSH1 0x20 PUSH1 0x0 KECCAK256 SWAP1 PUSH1 0x7 MUL ADD PUSH1 0x1 ADD DUP1 SLOAD PUSH2 0xD16 SWAP1 PUSH2 0x326B JUMP JUMPDEST DUP1 PUSH1 0x1F ADD PUSH1 0x20 DUP1 SWAP2 DIV MUL PUSH1 0x20 ADD PUSH1 0x40 MLOAD SWAP1 DUP2 ADD PUSH1 0x40 MSTORE DUP1 SWAP3 SWAP2 SWAP1 DUP2 DUP2 MSTORE PUSH1 0x20 ADD DUP3 DUP1 SLOAD PUSH2 0xD42 SWAP1 PUSH2 0x326B JUMP JUMPDEST DUP1 ISZERO PUSH2 0xD8F JUMPI DUP1 PUSH1 0x1F LT PUSH2 0xD64 JUMPI PUSH2 0x100 DUP1 DUP4 SLOAD DIV MUL DUP4 MSTORE SWAP2 PUSH1 0x20 ADD SWAP2 PUSH2 0xD8F JUMP JUMPDEST DUP3 ADD SWAP2 SWAP1 PUSH1 0x0 MSTORE PUSH1 0x20 PUSH1 0x0 KECCAK256 SWAP1 JUMPDEST DUP2 SLOAD DUP2 MSTORE SWAP1 PUSH1 0x1 ADD SWAP1 PUSH1 0x20 ADD DUP1 DUP4 GT PUSH2 0xD72 JUMPI DUP3 SWAP1 SUB PUSH1 0x1F AND DUP3 ADD SWAP2 JUMPDEST POP POP POP POP POP DUP9 PUSH2 0x246B JUMP JUMPDEST DUP1 ISZERO PUSH2 0xE59 JUMPI POP PUSH2 0xE58 PUSH1 0x4 DUP3 DUP2 SLOAD DUP2 LT PUSH2 0xDB8 JUMPI PUSH2 0xDB7 PUSH2 0x33A4 JUMP JUMPDEST JUMPDEST SWAP1 PUSH1 0x0 MSTORE PUSH1 0x20 PUSH1 0x0 KECCAK256 SWAP1 PUSH1 0x7 MUL ADD PUSH1 0x0 ADD DUP1 SLOAD PUSH2 0xDD4 SWAP1 PUSH2 0x326B JUMP JUMPDEST DUP1 PUSH1 0x1F ADD PUSH1 0x20 DUP1 SWAP2 DIV MUL PUSH1 0x20 ADD PUSH1 0x40 MLOAD SWAP1 DUP2 ADD PUSH1 0x40 MSTORE DUP1 SWAP3 SWAP2 SWAP1 DUP2 DUP2 MSTORE PUSH1 0x20 ADD DUP3 DUP1 SLOAD PUSH2 0xE00 SWAP1 PUSH2 0x326B JUMP JUMPDEST DUP1 ISZERO PUSH2 0xE4D JUMPI DUP1 PUSH1 0x1F LT PUSH2 0xE22 JUMPI PUSH2 0x100 DUP1 DUP4 SLOAD DIV MUL DUP4 MSTORE SWAP2 PUSH1 0x20 ADD SWAP2 PUSH2 0xE4D JUMP JUMPDEST DUP3 ADD SWAP2 SWAP1 PUSH1 0x0 MSTORE PUSH1 0x20 PUSH1 0x0 KECCAK256 SWAP1 JUMPDEST DUP2 SLOAD DUP2 MSTORE SWAP1 PUSH1 0x1 ADD SWAP1 PUSH1 0x20 ADD DUP1 DUP4 GT PUSH2 0xE30 JUMPI DUP3 SWAP1 SUB PUSH1 0x1F AND DUP3 ADD SWAP2 JUMPDEST POP POP POP POP POP DUP8 PUSH2 0x246B JUMP JUMPDEST JUMPDEST DUP1 ISZERO PUSH2 0xF50 JUMPI POP DUP5 PUSH20 0xFFFFFFFFFFFFFFFFFFFFFFFFFFFFFFFFFFFFFFFF AND PUSH1 0x4 DUP3 DUP2 SLOAD DUP2 LT PUSH2 0xE8B JUMPI PUSH2 0xE8A PUSH2 0x33A4 JUMP JUMPDEST JUMPDEST SWAP1 PUSH1 0x0 MSTORE PUSH1 0x20 PUSH1 0x0 KECCAK256 SWAP1 PUSH1 0x7 MUL ADD PUSH1 0x4 ADD PUSH1 0x0 SWAP1 SLOAD SWAP1 PUSH2 0x100 EXP SWAP1 DIV PUSH20 0xFFFFFFFFFFFFFFFFFFFFFFFFFFFFFFFFFFFFFFFF AND PUSH20 0xFFFFFFFFFFFFFFFFFFFFFFFFFFFFFFFFFFFFFFFF AND EQ DUP1 PUSH2 0xF4F JUMPI POP DUP5 PUSH20 0xFFFFFFFFFFFFFFFFFFFFFFFFFFFFFFFFFFFFFFFF AND PUSH1 0x4 DUP3 DUP2 SLOAD DUP2 LT PUSH2 0xF05 JUMPI PUSH2 0xF04 PUSH2 0x33A4 JUMP JUMPDEST JUMPDEST SWAP1 PUSH1 0x0 MSTORE PUSH1 0x20 PUSH1 0x0 KECCAK256 SWAP1 PUSH1 0x7 MUL ADD PUSH1 0x3 ADD PUSH1 0x0 SWAP1 SLOAD SWAP1 PUSH2 0x100 EXP SWAP1 DIV PUSH20 0xFFFFFFFFFFFFFFFFFFFFFFFFFFFFFFFFFFFFFFFF AND PUSH20 0xFFFFFFFFFFFFFFFFFFFFFFFFFFFFFFFFFFFFFFFF AND EQ JUMPDEST JUMPDEST ISZERO PUSH2 0x119D JUMPI PUSH1 0x4 DUP2 DUP2 SLOAD DUP2 LT PUSH2 0xF69 JUMPI PUSH2 0xF68 PUSH2 0x33A4 JUMP JUMPDEST JUMPDEST SWAP1 PUSH1 0x0 MSTORE PUSH1 0x20 PUSH1 0x0 KECCAK256 SWAP1 PUSH1 0x7 MUL ADD PUSH1 0x40 MLOAD DUP1 PUSH1 0xE0 ADD PUSH1 0x40 MSTORE SWAP1 DUP2 PUSH1 0x0 DUP3 ADD DUP1 SLOAD PUSH2 0xF92 SWAP1 PUSH2 0x326B JUMP JUMPDEST DUP1 PUSH1 0x1F ADD PUSH1 0x20 DUP1 SWAP2 DIV MUL PUSH1 0x20 ADD PUSH1 0x40 MLOAD SWAP1 DUP2 ADD PUSH1 0x40 MSTORE DUP1 SWAP3 SWAP2 SWAP1 DUP2 DUP2 MSTORE PUSH1 0x20 ADD DUP3 DUP1 SLOAD PUSH2 0xFBE SWAP1 PUSH2 0x326B JUMP JUMPDEST DUP1 ISZERO PUSH2 0x100B JUMPI DUP1 PUSH1 0x1F LT PUSH2 0xFE0 JUMPI PUSH2 0x100 DUP1 DUP4 SLOAD DIV MUL DUP4 MSTORE SWAP2 PUSH1 0x20 ADD SWAP2 PUSH2 0x100B JUMP JUMPDEST DUP3 ADD SWAP2 SWAP1 PUSH1 0x0 MSTORE PUSH1 0x20 PUSH1 0x0 KECCAK256 SWAP1 JUMPDEST DUP2 SLOAD DUP2 MSTORE SWAP1 PUSH1 0x1 ADD SWAP1 PUSH1 0x20 ADD DUP1 DUP4 GT PUSH2 0xFEE JUMPI DUP3 SWAP1 SUB PUSH1 0x1F AND DUP3 ADD SWAP2 JUMPDEST POP POP POP POP POP DUP2 MSTORE PUSH1 0x20 ADD PUSH1 0x1 DUP3 ADD DUP1 SLOAD PUSH2 0x1024 SWAP1 PUSH2 0x326B JUMP JUMPDEST DUP1 PUSH1 0x1F ADD PUSH1 0x20 DUP1 SWAP2 DIV MUL PUSH1 0x20 ADD PUSH1 0x40 MLOAD SWAP1 DUP2 ADD PUSH1 0x40 MSTORE DUP1 SWAP3 SWAP2 SWAP1 DUP2 DUP2 MSTORE PUSH1 0x20 ADD DUP3 DUP1 SLOAD PUSH2 0x1050 SWAP1 PUSH2 0x326B JUMP JUMPDEST DUP1 ISZERO PUSH2 0x109D JUMPI DUP1 PUSH1 0x1F LT PUSH2 0x1072 JUMPI PUSH2 0x100 DUP1 DUP4 SLOAD DIV MUL DUP4 MSTORE SWAP2 PUSH1 0x20 ADD SWAP2 PUSH2 0x109D JUMP JUMPDEST DUP3 ADD SWAP2 SWAP1 PUSH1 0x0 MSTORE PUSH1 0x20 PUSH1 0x0 KECCAK256 SWAP1 JUMPDEST DUP2 SLOAD DUP2 MSTORE SWAP1 PUSH1 0x1 ADD SWAP1 PUSH1 0x20 ADD DUP1 DUP4 GT PUSH2 0x1080 JUMPI DUP3 SWAP1 SUB PUSH1 0x1F AND DUP3 ADD SWAP2 JUMPDEST POP POP POP POP POP DUP2 MSTORE PUSH1 0x20 ADD PUSH1 0x2 DUP3 ADD SLOAD DUP2 MSTORE PUSH1 0x20 ADD PUSH1 0x3 DUP3 ADD PUSH1 0x0 SWAP1 SLOAD SWAP1 PUSH2 0x100 EXP SWAP1 DIV PUSH20 0xFFFFFFFFFFFFFFFFFFFFFFFFFFFFFFFFFFFFFFFF AND PUSH20 0xFFFFFFFFFFFFFFFFFFFFFFFFFFFFFFFFFFFFFFFF AND PUSH20 0xFFFFFFFFFFFFFFFFFFFFFFFFFFFFFFFFFFFFFFFF AND DUP2 MSTORE PUSH1 0x20 ADD PUSH1 0x4 DUP3 ADD PUSH1 0x0 SWAP1 SLOAD SWAP1 PUSH2 0x100 EXP SWAP1 DIV PUSH20 0xFFFFFFFFFFFFFFFFFFFFFFFFFFFFFFFFFFFFFFFF AND PUSH20 0xFFFFFFFFFFFFFFFFFFFFFFFFFFFFFFFFFFFFFFFF AND PUSH20 0xFFFFFFFFFFFFFFFFFFFFFFFFFFFFFFFFFFFFFFFF AND DUP2 MSTORE PUSH1 0x20 ADD PUSH1 0x5 DUP3 ADD SLOAD DUP2 MSTORE PUSH1 0x20 ADD PUSH1 0x6 DUP3 ADD SLOAD DUP2 MSTORE POP POP DUP3 DUP5 DUP2 MLOAD DUP2 LT PUSH2 0x1183 JUMPI PUSH2 0x1182 PUSH2 0x33A4 JUMP JUMPDEST JUMPDEST PUSH1 0x20 MUL PUSH1 0x20 ADD ADD DUP2 SWAP1 MSTORE POP DUP3 DUP1 PUSH2 0x1199 SWAP1 PUSH2 0x32CE JUMP JUMPDEST SWAP4 POP POP JUMPDEST DUP1 DUP1 PUSH2 0x11A8 SWAP1 PUSH2 0x32CE JUMP JUMPDEST SWAP2 POP POP PUSH2 0xCD6 JUMP JUMPDEST POP DUP2 PUSH8 0xFFFFFFFFFFFFFFFF DUP2 GT ISZERO PUSH2 0x11CB JUMPI PUSH2 0x11CA PUSH2 0x33D3 JUMP JUMPDEST JUMPDEST PUSH1 0x40 MLOAD SWAP1 DUP1 DUP3 MSTORE DUP1 PUSH1 0x20 MUL PUSH1 0x20 ADD DUP3 ADD PUSH1 0x40 MSTORE DUP1 ISZERO PUSH2 0x1204 JUMPI DUP2 PUSH1 0x20 ADD JUMPDEST PUSH2 0x11F1 PUSH2 0x25C1 JUMP JUMPDEST DUP2 MSTORE PUSH1 0x20 ADD SWAP1 PUSH1 0x1 SWAP1 SUB SWAP1 DUP2 PUSH2 0x11E9 JUMPI SWAP1 POP JUMPDEST POP SWAP3 POP PUSH1 0x0 DUP3 GT ISZERO PUSH2 0x1269 JUMPI PUSH1 0x0 JUMPDEST DUP3 DUP2 LT ISZERO PUSH2 0x1267 JUMPI DUP2 DUP2 DUP2 MLOAD DUP2 LT PUSH2 0x122E JUMPI PUSH2 0x122D PUSH2 0x33A4 JUMP JUMPDEST JUMPDEST PUSH1 0x20 MUL PUSH1 0x20 ADD ADD MLOAD DUP5 DUP3 DUP2 MLOAD DUP2 LT PUSH2 0x1249 JUMPI PUSH2 0x1248 PUSH2 0x33A4 JUMP JUMPDEST JUMPDEST PUSH1 0x20 MUL PUSH1 0x20 ADD ADD DUP2 SWAP1 MSTORE POP DUP1 DUP1 PUSH2 0x125F SWAP1 PUSH2 0x32CE JUMP JUMPDEST SWAP2 POP POP PUSH2 0x1213 JUMP JUMPDEST POP JUMPDEST POP POP SWAP4 SWAP3 POP POP POP JUMP JUMPDEST PUSH1 0x60 PUSH1 0x0 DUP1 PUSH1 0x4 DUP1 SLOAD SWAP1 POP PUSH8 0xFFFFFFFFFFFFFFFF DUP2 GT ISZERO PUSH2 0x1296 JUMPI PUSH2 0x1295 PUSH2 0x33D3 JUMP JUMPDEST JUMPDEST PUSH1 0x40 MLOAD SWAP1 DUP1 DUP3 MSTORE DUP1 PUSH1 0x20 MUL PUSH1 0x20 ADD DUP3 ADD PUSH1 0x40 MSTORE DUP1 ISZERO PUSH2 0x12CF JUMPI DUP2 PUSH1 0x20 ADD JUMPDEST PUSH2 0x12BC PUSH2 0x25C1 JUMP JUMPDEST DUP2 MSTORE PUSH1 0x20 ADD SWAP1 PUSH1 0x1 SWAP1 SUB SWAP1 DUP2 PUSH2 0x12B4 JUMPI SWAP1 POP JUMPDEST POP SWAP1 POP PUSH1 0x0 JUMPDEST PUSH1 0x4 DUP1 SLOAD SWAP1 POP DUP2 LT ISZERO PUSH2 0x16B8 JUMPI PUSH2 0x1399 PUSH1 0x4 DUP3 DUP2 SLOAD DUP2 LT PUSH2 0x12F9 JUMPI PUSH2 0x12F8 PUSH2 0x33A4 JUMP JUMPDEST JUMPDEST SWAP1 PUSH1 0x0 MSTORE PUSH1 0x20 PUSH1 0x0 KECCAK256 SWAP1 PUSH1 0x7 MUL ADD PUSH1 0x1 ADD DUP1 SLOAD PUSH2 0x1315 SWAP1 PUSH2 0x326B JUMP JUMPDEST DUP1 PUSH1 0x1F ADD PUSH1 0x20 DUP1 SWAP2 DIV MUL PUSH1 0x20 ADD PUSH1 0x40 MLOAD SWAP1 DUP2 ADD PUSH1 0x40 MSTORE DUP1 SWAP3 SWAP2 SWAP1 DUP2 DUP2 MSTORE PUSH1 0x20 ADD DUP3 DUP1 SLOAD PUSH2 0x1341 SWAP1 PUSH2 0x326B JUMP JUMPDEST DUP1 ISZERO PUSH2 0x138E JUMPI DUP1 PUSH1 0x1F LT PUSH2 0x1363 JUMPI PUSH2 0x100 DUP1 DUP4 SLOAD DIV MUL DUP4 MSTORE SWAP2 PUSH1 0x20 ADD SWAP2 PUSH2 0x138E JUMP JUMPDEST DUP3 ADD SWAP2 SWAP1 PUSH1 0x0 MSTORE PUSH1 0x20 PUSH1 0x0 KECCAK256 SWAP1 JUMPDEST DUP2 SLOAD DUP2 MSTORE SWAP1 PUSH1 0x1 ADD SWAP1 PUSH1 0x20 ADD DUP1 DUP4 GT PUSH2 0x1371 JUMPI DUP3 SWAP1 SUB PUSH1 0x1F AND DUP3 ADD SWAP2 JUMPDEST POP POP POP POP POP DUP8 PUSH2 0x246B JUMP JUMPDEST DUP1 ISZERO PUSH2 0x1458 JUMPI POP PUSH2 0x1457 PUSH1 0x4 DUP3 DUP2 SLOAD DUP2 LT PUSH2 0x13B7 JUMPI PUSH2 0x13B6 PUSH2 0x33A4 JUMP JUMPDEST JUMPDEST SWAP1 PUSH1 0x0 MSTORE PUSH1 0x20 PUSH1 0x0 KECCAK256 SWAP1 PUSH1 0x7 MUL ADD PUSH1 0x0 ADD DUP1 SLOAD PUSH2 0x13D3 SWAP1 PUSH2 0x326B JUMP JUMPDEST DUP1 PUSH1 0x1F ADD PUSH1 0x20 DUP1 SWAP2 DIV MUL PUSH1 0x20 ADD PUSH1 0x40 MLOAD SWAP1 DUP2 ADD PUSH1 0x40 MSTORE DUP1 SWAP3 SWAP2 SWAP1 DUP2 DUP2 MSTORE PUSH1 0x20 ADD DUP3 DUP1 SLOAD PUSH2 0x13FF SWAP1 PUSH2 0x326B JUMP JUMPDEST DUP1 ISZERO PUSH2 0x144C JUMPI DUP1 PUSH1 0x1F LT PUSH2 0x1421 JUMPI PUSH2 0x100 DUP1 DUP4 SLOAD DIV MUL DUP4 MSTORE SWAP2 PUSH1 0x20 ADD SWAP2 PUSH2 0x144C JUMP JUMPDEST DUP3 ADD SWAP2 SWAP1 PUSH1 0x0 MSTORE PUSH1 0x20 PUSH1 0x0 KECCAK256 SWAP1 JUMPDEST DUP2 SLOAD DUP2 MSTORE SWAP1 PUSH1 0x1 ADD SWAP1 PUSH1 0x20 ADD DUP1 DUP4 GT PUSH2 0x142F JUMPI DUP3 SWAP1 SUB PUSH1 0x1F AND DUP3 ADD SWAP2 JUMPDEST POP POP POP POP POP DUP7 PUSH2 0x246B JUMP JUMPDEST JUMPDEST ISZERO PUSH2 0x16A5 JUMPI PUSH1 0x4 DUP2 DUP2 SLOAD DUP2 LT PUSH2 0x1471 JUMPI PUSH2 0x1470 PUSH2 0x33A4 JUMP JUMPDEST JUMPDEST SWAP1 PUSH1 0x0 MSTORE PUSH1 0x20 PUSH1 0x0 KECCAK256 SWAP1 PUSH1 0x7 MUL ADD PUSH1 0x40 MLOAD DUP1 PUSH1 0xE0 ADD PUSH1 0x40 MSTORE SWAP1 DUP2 PUSH1 0x0 DUP3 ADD DUP1 SLOAD PUSH2 0x149A SWAP1 PUSH2 0x326B JUMP JUMPDEST DUP1 PUSH1 0x1F ADD PUSH1 0x20 DUP1 SWAP2 DIV MUL PUSH1 0x20 ADD PUSH1 0x40 MLOAD SWAP1 DUP2 ADD PUSH1 0x40 MSTORE DUP1 SWAP3 SWAP2 SWAP1 DUP2 DUP2 MSTORE PUSH1 0x20 ADD DUP3 DUP1 SLOAD PUSH2 0x14C6 SWAP1 PUSH2 0x326B JUMP JUMPDEST DUP1 ISZERO PUSH2 0x1513 JUMPI DUP1 PUSH1 0x1F LT PUSH2 0x14E8 JUMPI PUSH2 0x100 DUP1 DUP4 SLOAD DIV MUL DUP4 MSTORE SWAP2 PUSH1 0x20 ADD SWAP2 PUSH2 0x1513 JUMP JUMPDEST DUP3 ADD SWAP2 SWAP1 PUSH1 0x0 MSTORE PUSH1 0x20 PUSH1 0x0 KECCAK256 SWAP1 JUMPDEST DUP2 SLOAD DUP2 MSTORE SWAP1 PUSH1 0x1 ADD SWAP1 PUSH1 0x20 ADD DUP1 DUP4 GT PUSH2 0x14F6 JUMPI DUP3 SWAP1 SUB PUSH1 0x1F AND DUP3 ADD SWAP2 JUMPDEST POP POP POP POP POP DUP2 MSTORE PUSH1 0x20 ADD PUSH1 0x1 DUP3 ADD DUP1 SLOAD PUSH2 0x152C SWAP1 PUSH2 0x326B JUMP JUMPDEST DUP1 PUSH1 0x1F ADD PUSH1 0x20 DUP1 SWAP2 DIV MUL PUSH1 0x20 ADD PUSH1 0x40 MLOAD SWAP1 DUP2 ADD PUSH1 0x40 MSTORE DUP1 SWAP3 SWAP2 SWAP1 DUP2 DUP2 MSTORE PUSH1 0x20 ADD DUP3 DUP1 SLOAD PUSH2 0x1558 SWAP1 PUSH2 0x326B JUMP JUMPDEST DUP1 ISZERO PUSH2 0x15A5 JUMPI DUP1 PUSH1 0x1F LT PUSH2 0x157A JUMPI PUSH2 0x100 DUP1 DUP4 SLOAD DIV MUL DUP4 MSTORE SWAP2 PUSH1 0x20 ADD SWAP2 PUSH2 0x15A5 JUMP JUMPDEST DUP3 ADD SWAP2 SWAP1 PUSH1 0x0 MSTORE PUSH1 0x20 PUSH1 0x0 KECCAK256 SWAP1 JUMPDEST DUP2 SLOAD DUP2 MSTORE SWAP1 PUSH1 0x1 ADD SWAP1 PUSH1 0x20 ADD DUP1 DUP4 GT PUSH2 0x1588 JUMPI DUP3 SWAP1 SUB PUSH1 0x1F AND DUP3 ADD SWAP2 JUMPDEST POP POP POP POP POP DUP2 MSTORE PUSH1 0x20 ADD PUSH1 0x2 DUP3 ADD SLOAD DUP2 MSTORE PUSH1 0x20 ADD PUSH1 0x3 DUP3 ADD PUSH1 0x0 SWAP1 SLOAD SWAP1 PUSH2 0x100 EXP SWAP1 DIV PUSH20 0xFFFFFFFFFFFFFFFFFFFFFFFFFFFFFFFFFFFFFFFF AND PUSH20 0xFFFFFFFFFFFFFFFFFFFFFFFFFFFFFFFFFFFFFFFF AND PUSH20 0xFFFFFFFFFFFFFFFFFFFFFFFFFFFFFFFFFFFFFFFF AND DUP2 MSTORE PUSH1 0x20 ADD PUSH1 0x4 DUP3 ADD PUSH1 0x0 SWAP1 SLOAD SWAP1 PUSH2 0x100 EXP SWAP1 DIV PUSH20 0xFFFFFFFFFFFFFFFFFFFFFFFFFFFFFFFFFFFFFFFF AND PUSH20 0xFFFFFFFFFFFFFFFFFFFFFFFFFFFFFFFFFFFFFFFF AND PUSH20 0xFFFFFFFFFFFFFFFFFFFFFFFFFFFFFFFFFFFFFFFF AND DUP2 MSTORE PUSH1 0x20 ADD PUSH1 0x5 DUP3 ADD SLOAD DUP2 MSTORE PUSH1 0x20 ADD PUSH1 0x6 DUP3 ADD SLOAD DUP2 MSTORE POP POP DUP3 DUP5 DUP2 MLOAD DUP2 LT PUSH2 0x168B JUMPI PUSH2 0x168A PUSH2 0x33A4 JUMP JUMPDEST JUMPDEST PUSH1 0x20 MUL PUSH1 0x20 ADD ADD DUP2 SWAP1 MSTORE POP DUP3 DUP1 PUSH2 0x16A1 SWAP1 PUSH2 0x32CE JUMP JUMPDEST SWAP4 POP POP JUMPDEST DUP1 DUP1 PUSH2 0x16B0 SWAP1 PUSH2 0x32CE JUMP JUMPDEST SWAP2 POP POP PUSH2 0x12D5 JUMP JUMPDEST POP DUP2 PUSH8 0xFFFFFFFFFFFFFFFF DUP2 GT ISZERO PUSH2 0x16D3 JUMPI PUSH2 0x16D2 PUSH2 0x33D3 JUMP JUMPDEST JUMPDEST PUSH1 0x40 MLOAD SWAP1 DUP1 DUP3 MSTORE DUP1 PUSH1 0x20 MUL PUSH1 0x20 ADD DUP3 ADD PUSH1 0x40 MSTORE DUP1 ISZERO PUSH2 0x170C JUMPI DUP2 PUSH1 0x20 ADD JUMPDEST PUSH2 0x16F9 PUSH2 0x25C1 JUMP JUMPDEST DUP2 MSTORE PUSH1 0x20 ADD SWAP1 PUSH1 0x1 SWAP1 SUB SWAP1 DUP2 PUSH2 0x16F1 JUMPI SWAP1 POP JUMPDEST POP SWAP3 POP PUSH1 0x0 DUP3 GT ISZERO PUSH2 0x1771 JUMPI PUSH1 0x0 JUMPDEST DUP3 DUP2 LT ISZERO PUSH2 0x176F JUMPI DUP2 DUP2 DUP2 MLOAD DUP2 LT PUSH2 0x1736 JUMPI PUSH2 0x1735 PUSH2 0x33A4 JUMP JUMPDEST JUMPDEST PUSH1 0x20 MUL PUSH1 0x20 ADD ADD MLOAD DUP5 DUP3 DUP2 MLOAD DUP2 LT PUSH2 0x1751 JUMPI PUSH2 0x1750 PUSH2 0x33A4 JUMP JUMPDEST JUMPDEST PUSH1 0x20 MUL PUSH1 0x20 ADD ADD DUP2 SWAP1 MSTORE POP DUP1 DUP1 PUSH2 0x1767 SWAP1 PUSH2 0x32CE JUMP JUMPDEST SWAP2 POP POP PUSH2 0x171B JUMP JUMPDEST POP JUMPDEST POP POP SWAP3 SWAP2 POP POP JUMP JUMPDEST PUSH1 0x60 PUSH1 0x0 DUP1 PUSH1 0x4 DUP1 SLOAD SWAP1 POP PUSH8 0xFFFFFFFFFFFFFFFF DUP2 GT ISZERO PUSH2 0x179D JUMPI PUSH2 0x179C PUSH2 0x33D3 JUMP JUMPDEST JUMPDEST PUSH1 0x40 MLOAD SWAP1 DUP1 DUP3 MSTORE DUP1 PUSH1 0x20 MUL PUSH1 0x20 ADD DUP3 ADD PUSH1 0x40 MSTORE DUP1 ISZERO PUSH2 0x17D6 JUMPI DUP2 PUSH1 0x20 ADD JUMPDEST PUSH2 0x17C3 PUSH2 0x25C1 JUMP JUMPDEST DUP2 MSTORE PUSH1 0x20 ADD SWAP1 PUSH1 0x1 SWAP1 SUB SWAP1 DUP2 PUSH2 0x17BB JUMPI SWAP1 POP JUMPDEST POP SWAP1 POP PUSH1 0x0 JUMPDEST PUSH1 0x4 DUP1 SLOAD SWAP1 POP DUP2 LT ISZERO PUSH2 0x1B00 JUMPI PUSH2 0x18A0 PUSH1 0x4 DUP3 DUP2 SLOAD DUP2 LT PUSH2 0x1800 JUMPI PUSH2 0x17FF PUSH2 0x33A4 JUMP JUMPDEST JUMPDEST SWAP1 PUSH1 0x0 MSTORE PUSH1 0x20 PUSH1 0x0 KECCAK256 SWAP1 PUSH1 0x7 MUL ADD PUSH1 0x0 ADD DUP1 SLOAD PUSH2 0x181C SWAP1 PUSH2 0x326B JUMP JUMPDEST DUP1 PUSH1 0x1F ADD PUSH1 0x20 DUP1 SWAP2 DIV MUL PUSH1 0x20 ADD PUSH1 0x40 MLOAD SWAP1 DUP2 ADD PUSH1 0x40 MSTORE DUP1 SWAP3 SWAP2 SWAP1 DUP2 DUP2 MSTORE PUSH1 0x20 ADD DUP3 DUP1 SLOAD PUSH2 0x1848 SWAP1 PUSH2 0x326B JUMP JUMPDEST DUP1 ISZERO PUSH2 0x1895 JUMPI DUP1 PUSH1 0x1F LT PUSH2 0x186A JUMPI PUSH2 0x100 DUP1 DUP4 SLOAD DIV MUL DUP4 MSTORE SWAP2 PUSH1 0x20 ADD SWAP2 PUSH2 0x1895 JUMP JUMPDEST DUP3 ADD SWAP2 SWAP1 PUSH1 0x0 MSTORE PUSH1 0x20 PUSH1 0x0 KECCAK256 SWAP1 JUMPDEST DUP2 SLOAD DUP2 MSTORE SWAP1 PUSH1 0x1 ADD SWAP1 PUSH1 0x20 ADD DUP1 DUP4 GT PUSH2 0x1878 JUMPI DUP3 SWAP1 SUB PUSH1 0x1F AND DUP3 ADD SWAP2 JUMPDEST POP POP POP POP POP DUP7 PUSH2 0x246B JUMP JUMPDEST ISZERO PUSH2 0x1AED JUMPI PUSH1 0x4 DUP2 DUP2 SLOAD DUP2 LT PUSH2 0x18B9 JUMPI PUSH2 0x18B8 PUSH2 0x33A4 JUMP JUMPDEST JUMPDEST SWAP1 PUSH1 0x0 MSTORE PUSH1 0x20 PUSH1 0x0 KECCAK256 SWAP1 PUSH1 0x7 MUL ADD PUSH1 0x40 MLOAD DUP1 PUSH1 0xE0 ADD PUSH1 0x40 MSTORE SWAP1 DUP2 PUSH1 0x0 DUP3 ADD DUP1 SLOAD PUSH2 0x18E2 SWAP1 PUSH2 0x326B JUMP JUMPDEST DUP1 PUSH1 0x1F ADD PUSH1 0x20 DUP1 SWAP2 DIV MUL PUSH1 0x20 ADD PUSH1 0x40 MLOAD SWAP1 DUP2 ADD PUSH1 0x40 MSTORE DUP1 SWAP3 SWAP2 SWAP1 DUP2 DUP2 MSTORE PUSH1 0x20 ADD DUP3 DUP1 SLOAD PUSH2 0x190E SWAP1 PUSH2 0x326B JUMP JUMPDEST DUP1 ISZERO PUSH2 0x195B JUMPI DUP1 PUSH1 0x1F LT PUSH2 0x1930 JUMPI PUSH2 0x100 DUP1 DUP4 SLOAD DIV MUL DUP4 MSTORE SWAP2 PUSH1 0x20 ADD SWAP2 PUSH2 0x195B JUMP JUMPDEST DUP3 ADD SWAP2 SWAP1 PUSH1 0x0 MSTORE PUSH1 0x20 PUSH1 0x0 KECCAK256 SWAP1 JUMPDEST DUP2 SLOAD DUP2 MSTORE SWAP1 PUSH1 0x1 ADD SWAP1 PUSH1 0x20 ADD DUP1 DUP4 GT PUSH2 0x193E JUMPI DUP3 SWAP1 SUB PUSH1 0x1F AND DUP3 ADD SWAP2 JUMPDEST POP POP POP POP POP DUP2 MSTORE PUSH1 0x20 ADD PUSH1 0x1 DUP3 ADD DUP1 SLOAD PUSH2 0x1974 SWAP1 PUSH2 0x326B JUMP JUMPDEST DUP1 PUSH1 0x1F ADD PUSH1 0x20 DUP1 SWAP2 DIV MUL PUSH1 0x20 ADD PUSH1 0x40 MLOAD SWAP1 DUP2 ADD PUSH1 0x40 MSTORE DUP1 SWAP3 SWAP2 SWAP1 DUP2 DUP2 MSTORE PUSH1 0x20 ADD DUP3 DUP1 SLOAD PUSH2 0x19A0 SWAP1 PUSH2 0x326B JUMP JUMPDEST DUP1 ISZERO PUSH2 0x19ED JUMPI DUP1 PUSH1 0x1F LT PUSH2 0x19C2 JUMPI PUSH2 0x100 DUP1 DUP4 SLOAD DIV MUL DUP4 MSTORE SWAP2 PUSH1 0x20 ADD SWAP2 PUSH2 0x19ED JUMP JUMPDEST DUP3 ADD SWAP2 SWAP1 PUSH1 0x0 MSTORE PUSH1 0x20 PUSH1 0x0 KECCAK256 SWAP1 JUMPDEST DUP2 SLOAD DUP2 MSTORE SWAP1 PUSH1 0x1 ADD SWAP1 PUSH1 0x20 ADD DUP1 DUP4 GT PUSH2 0x19D0 JUMPI DUP3 SWAP1 SUB PUSH1 0x1F AND DUP3 ADD SWAP2 JUMPDEST POP POP POP POP POP DUP2 MSTORE PUSH1 0x20 ADD PUSH1 0x2 DUP3 ADD SLOAD DUP2 MSTORE PUSH1 0x20 ADD PUSH1 0x3 DUP3 ADD PUSH1 0x0 SWAP1 SLOAD SWAP1 PUSH2 0x100 EXP SWAP1 DIV PUSH20 0xFFFFFFFFFFFFFFFFFFFFFFFFFFFFFFFFFFFFFFFF AND PUSH20 0xFFFFFFFFFFFFFFFFFFFFFFFFFFFFFFFFFFFFFFFF AND PUSH20 0xFFFFFFFFFFFFFFFFFFFFFFFFFFFFFFFFFFFFFFFF AND DUP2 MSTORE PUSH1 0x20 ADD PUSH1 0x4 DUP3 ADD PUSH1 0x0 SWAP1 SLOAD SWAP1 PUSH2 0x100 EXP SWAP1 DIV PUSH20 0xFFFFFFFFFFFFFFFFFFFFFFFFFFFFFFFFFFFFFFFF AND PUSH20 0xFFFFFFFFFFFFFFFFFFFFFFFFFFFFFFFFFFFFFFFF AND PUSH20 0xFFFFFFFFFFFFFFFFFFFFFFFFFFFFFFFFFFFFFFFF AND DUP2 MSTORE PUSH1 0x20 ADD PUSH1 0x5 DUP3 ADD SLOAD DUP2 MSTORE PUSH1 0x20 ADD PUSH1 0x6 DUP3 ADD SLOAD DUP2 MSTORE POP POP DUP3 DUP5 DUP2 MLOAD DUP2 LT PUSH2 0x1AD3 JUMPI PUSH2 0x1AD2 PUSH2 0x33A4 JUMP JUMPDEST JUMPDEST PUSH1 0x20 MUL PUSH1 0x20 ADD ADD DUP2 SWAP1 MSTORE POP DUP3 DUP1 PUSH2 0x1AE9 SWAP1 PUSH2 0x32CE JUMP JUMPDEST SWAP4 POP POP JUMPDEST DUP1 DUP1 PUSH2 0x1AF8 SWAP1 PUSH2 0x32CE JUMP JUMPDEST SWAP2 POP POP PUSH2 0x17DC JUMP JUMPDEST POP DUP2 PUSH8 0xFFFFFFFFFFFFFFFF DUP2 GT ISZERO PUSH2 0x1B1B JUMPI PUSH2 0x1B1A PUSH2 0x33D3 JUMP JUMPDEST JUMPDEST PUSH1 0x40 MLOAD SWAP1 DUP1 DUP3 MSTORE DUP1 PUSH1 0x20 MUL PUSH1 0x20 ADD DUP3 ADD PUSH1 0x40 MSTORE DUP1 ISZERO PUSH2 0x1B54 JUMPI DUP2 PUSH1 0x20 ADD JUMPDEST PUSH2 0x1B41 PUSH2 0x25C1 JUMP JUMPDEST DUP2 MSTORE PUSH1 0x20 ADD SWAP1 PUSH1 0x1 SWAP1 SUB SWAP1 DUP2 PUSH2 0x1B39 JUMPI SWAP1 POP JUMPDEST POP SWAP3 POP PUSH1 0x0 DUP3 GT ISZERO PUSH2 0x1BB9 JUMPI PUSH1 0x0 JUMPDEST DUP3 DUP2 LT ISZERO PUSH2 0x1BB7 JUMPI DUP2 DUP2 DUP2 MLOAD DUP2 LT PUSH2 0x1B7E JUMPI PUSH2 0x1B7D PUSH2 0x33A4 JUMP JUMPDEST JUMPDEST PUSH1 0x20 MUL PUSH1 0x20 ADD ADD MLOAD DUP5 DUP3 DUP2 MLOAD DUP2 LT PUSH2 0x1B99 JUMPI PUSH2 0x1B98 PUSH2 0x33A4 JUMP JUMPDEST JUMPDEST PUSH1 0x20 MUL PUSH1 0x20 ADD ADD DUP2 SWAP1 MSTORE POP DUP1 DUP1 PUSH2 0x1BAF SWAP1 PUSH2 0x32CE JUMP JUMPDEST SWAP2 POP POP PUSH2 0x1B63 JUMP JUMPDEST POP JUMPDEST POP POP SWAP2 SWAP1 POP JUMP JUMPDEST PUSH1 0x0 DUP1 PUSH2 0x1BCE DUP6 DUP6 DUP6 PUSH2 0xC73 JUMP JUMPDEST SWAP1 POP PUSH1 0x0 DUP1 PUSH1 0x0 JUMPDEST DUP4 MLOAD DUP2 LT ISZERO PUSH2 0x1C97 JUMPI DUP6 PUSH20 0xFFFFFFFFFFFFFFFFFFFFFFFFFFFFFFFFFFFFFFFF AND DUP5 DUP3 DUP2 MLOAD DUP2 LT PUSH2 0x1C09 JUMPI PUSH2 0x1C08 PUSH2 0x33A4 JUMP JUMPDEST JUMPDEST PUSH1 0x20 MUL PUSH1 0x20 ADD ADD MLOAD PUSH1 0x80 ADD MLOAD PUSH20 0xFFFFFFFFFFFFFFFFFFFFFFFFFFFFFFFFFFFFFFFF AND EQ ISZERO PUSH2 0x1C57 JUMPI DUP4 DUP2 DUP2 MLOAD DUP2 LT PUSH2 0x1C44 JUMPI PUSH2 0x1C43 PUSH2 0x33A4 JUMP JUMPDEST JUMPDEST PUSH1 0x20 MUL PUSH1 0x20 ADD ADD MLOAD PUSH1 0xA0 ADD MLOAD SWAP3 POP PUSH2 0x1C84 JUMP JUMPDEST DUP4 DUP2 DUP2 MLOAD DUP2 LT PUSH2 0x1C6A JUMPI PUSH2 0x1C69 PUSH2 0x33A4 JUMP JUMPDEST JUMPDEST PUSH1 0x20 MUL PUSH1 0x20 ADD ADD MLOAD PUSH1 0xA0 ADD MLOAD DUP3 PUSH2 0x1C81 SWAP2 SWAP1 PUSH2 0x310D JUMP JUMPDEST SWAP2 POP JUMPDEST DUP1 DUP1 PUSH2 0x1C8F SWAP1 PUSH2 0x32CE JUMP JUMPDEST SWAP2 POP POP PUSH2 0x1BD6 JUMP JUMPDEST POP DUP1 DUP3 PUSH2 0x1CA4 SWAP2 SWAP1 PUSH2 0x3163 JUMP JUMPDEST SWAP4 POP POP POP POP SWAP4 SWAP3 POP POP POP JUMP JUMPDEST PUSH1 0x60 PUSH1 0x0 DUP1 PUSH1 0x4 DUP1 SLOAD SWAP1 POP PUSH8 0xFFFFFFFFFFFFFFFF DUP2 GT ISZERO PUSH2 0x1CD4 JUMPI PUSH2 0x1CD3 PUSH2 0x33D3 JUMP JUMPDEST JUMPDEST PUSH1 0x40 MLOAD SWAP1 DUP1 DUP3 MSTORE DUP1 PUSH1 0x20 MUL PUSH1 0x20 ADD DUP3 ADD PUSH1 0x40 MSTORE DUP1 ISZERO PUSH2 0x1D0D JUMPI DUP2 PUSH1 0x20 ADD JUMPDEST PUSH2 0x1CFA PUSH2 0x25C1 JUMP JUMPDEST DUP2 MSTORE PUSH1 0x20 ADD SWAP1 PUSH1 0x1 SWAP1 SUB SWAP1 DUP2 PUSH2 0x1CF2 JUMPI SWAP1 POP JUMPDEST POP SWAP1 POP PUSH1 0x0 JUMPDEST PUSH1 0x4 DUP1 SLOAD SWAP1 POP DUP2 LT ISZERO PUSH2 0x1FF4 JUMPI DUP5 PUSH20 0xFFFFFFFFFFFFFFFFFFFFFFFFFFFFFFFFFFFFFFFF AND PUSH1 0x4 DUP3 DUP2 SLOAD DUP2 LT PUSH2 0x1D4B JUMPI PUSH2 0x1D4A PUSH2 0x33A4 JUMP JUMPDEST JUMPDEST SWAP1 PUSH1 0x0 MSTORE PUSH1 0x20 PUSH1 0x0 KECCAK256 SWAP1 PUSH1 0x7 MUL ADD PUSH1 0x4 ADD PUSH1 0x0 SWAP1 SLOAD SWAP1 PUSH2 0x100 EXP SWAP1 DIV PUSH20 0xFFFFFFFFFFFFFFFFFFFFFFFFFFFFFFFFFFFFFFFF AND PUSH20 0xFFFFFFFFFFFFFFFFFFFFFFFFFFFFFFFFFFFFFFFF AND EQ ISZERO PUSH2 0x1FE1 JUMPI PUSH1 0x4 DUP2 DUP2 SLOAD DUP2 LT PUSH2 0x1DAD JUMPI PUSH2 0x1DAC PUSH2 0x33A4 JUMP JUMPDEST JUMPDEST SWAP1 PUSH1 0x0 MSTORE PUSH1 0x20 PUSH1 0x0 KECCAK256 SWAP1 PUSH1 0x7 MUL ADD PUSH1 0x40 MLOAD DUP1 PUSH1 0xE0 ADD PUSH1 0x40 MSTORE SWAP1 DUP2 PUSH1 0x0 DUP3 ADD DUP1 SLOAD PUSH2 0x1DD6 SWAP1 PUSH2 0x326B JUMP JUMPDEST DUP1 PUSH1 0x1F ADD PUSH1 0x20 DUP1 SWAP2 DIV MUL PUSH1 0x20 ADD PUSH1 0x40 MLOAD SWAP1 DUP2 ADD PUSH1 0x40 MSTORE DUP1 SWAP3 SWAP2 SWAP1 DUP2 DUP2 MSTORE PUSH1 0x20 ADD DUP3 DUP1 SLOAD PUSH2 0x1E02 SWAP1 PUSH2 0x326B JUMP JUMPDEST DUP1 ISZERO PUSH2 0x1E4F JUMPI DUP1 PUSH1 0x1F LT PUSH2 0x1E24 JUMPI PUSH2 0x100 DUP1 DUP4 SLOAD DIV MUL DUP4 MSTORE SWAP2 PUSH1 0x20 ADD SWAP2 PUSH2 0x1E4F JUMP JUMPDEST DUP3 ADD SWAP2 SWAP1 PUSH1 0x0 MSTORE PUSH1 0x20 PUSH1 0x0 KECCAK256 SWAP1 JUMPDEST DUP2 SLOAD DUP2 MSTORE SWAP1 PUSH1 0x1 ADD SWAP1 PUSH1 0x20 ADD DUP1 DUP4 GT PUSH2 0x1E32 JUMPI DUP3 SWAP1 SUB PUSH1 0x1F AND DUP3 ADD SWAP2 JUMPDEST POP POP POP POP POP DUP2 MSTORE PUSH1 0x20 ADD PUSH1 0x1 DUP3 ADD DUP1 SLOAD PUSH2 0x1E68 SWAP1 PUSH2 0x326B JUMP JUMPDEST DUP1 PUSH1 0x1F ADD PUSH1 0x20 DUP1 SWAP2 DIV MUL PUSH1 0x20 ADD PUSH1 0x40 MLOAD SWAP1 DUP2 ADD PUSH1 0x40 MSTORE DUP1 SWAP3 SWAP2 SWAP1 DUP2 DUP2 MSTORE PUSH1 0x20 ADD DUP3 DUP1 SLOAD PUSH2 0x1E94 SWAP1 PUSH2 0x326B JUMP JUMPDEST DUP1 ISZERO PUSH2 0x1EE1 JUMPI DUP1 PUSH1 0x1F LT PUSH2 0x1EB6 JUMPI PUSH2 0x100 DUP1 DUP4 SLOAD DIV MUL DUP4 MSTORE SWAP2 PUSH1 0x20 ADD SWAP2 PUSH2 0x1EE1 JUMP JUMPDEST DUP3 ADD SWAP2 SWAP1 PUSH1 0x0 MSTORE PUSH1 0x20 PUSH1 0x0 KECCAK256 SWAP1 JUMPDEST DUP2 SLOAD DUP2 MSTORE SWAP1 PUSH1 0x1 ADD SWAP1 PUSH1 0x20 ADD DUP1 DUP4 GT PUSH2 0x1EC4 JUMPI DUP3 SWAP1 SUB PUSH1 0x1F AND DUP3 ADD SWAP2 JUMPDEST POP POP POP POP POP DUP2 MSTORE PUSH1 0x20 ADD PUSH1 0x2 DUP3 ADD SLOAD DUP2 MSTORE PUSH1 0x20 ADD PUSH1 0x3 DUP3 ADD PUSH1 0x0 SWAP1 SLOAD SWAP1 PUSH2 0x100 EXP SWAP1 DIV PUSH20 0xFFFFFFFFFFFFFFFFFFFFFFFFFFFFFFFFFFFFFFFF AND PUSH20 0xFFFFFFFFFFFFFFFFFFFFFFFFFFFFFFFFFFFFFFFF AND PUSH20 0xFFFFFFFFFFFFFFFFFFFFFFFFFFFFFFFFFFFFFFFF AND DUP2 MSTORE PUSH1 0x20 ADD PUSH1 0x4 DUP3 ADD PUSH1 0x0 SWAP1 SLOAD SWAP1 PUSH2 0x100 EXP SWAP1 DIV PUSH20 0xFFFFFFFFFFFFFFFFFFFFFFFFFFFFFFFFFFFFFFFF AND PUSH20 0xFFFFFFFFFFFFFFFFFFFFFFFFFFFFFFFFFFFFFFFF AND PUSH20 0xFFFFFFFFFFFFFFFFFFFFFFFFFFFFFFFFFFFFFFFF AND DUP2 MSTORE PUSH1 0x20 ADD PUSH1 0x5 DUP3 ADD SLOAD DUP2 MSTORE PUSH1 0x20 ADD PUSH1 0x6 DUP3 ADD SLOAD DUP2 MSTORE POP POP DUP3 DUP5 DUP2 MLOAD DUP2 LT PUSH2 0x1FC7 JUMPI PUSH2 0x1FC6 PUSH2 0x33A4 JUMP JUMPDEST JUMPDEST PUSH1 0x20 MUL PUSH1 0x20 ADD ADD DUP2 SWAP1 MSTORE POP DUP3 DUP1 PUSH2 0x1FDD SWAP1 PUSH2 0x32CE JUMP JUMPDEST SWAP4 POP POP JUMPDEST DUP1 DUP1 PUSH2 0x1FEC SWAP1 PUSH2 0x32CE JUMP JUMPDEST SWAP2 POP POP PUSH2 0x1D13 JUMP JUMPDEST POP DUP2 PUSH8 0xFFFFFFFFFFFFFFFF DUP2 GT ISZERO PUSH2 0x200F JUMPI PUSH2 0x200E PUSH2 0x33D3 JUMP JUMPDEST JUMPDEST PUSH1 0x40 MLOAD SWAP1 DUP1 DUP3 MSTORE DUP1 PUSH1 0x20 MUL PUSH1 0x20 ADD DUP3 ADD PUSH1 0x40 MSTORE DUP1 ISZERO PUSH2 0x2048 JUMPI DUP2 PUSH1 0x20 ADD JUMPDEST PUSH2 0x2035 PUSH2 0x25C1 JUMP JUMPDEST DUP2 MSTORE PUSH1 0x20 ADD SWAP1 PUSH1 0x1 SWAP1 SUB SWAP1 DUP2 PUSH2 0x202D JUMPI SWAP1 POP JUMPDEST POP SWAP3 POP PUSH1 0x0 DUP3 GT ISZERO PUSH2 0x20AD JUMPI PUSH1 0x0 JUMPDEST DUP3 DUP2 LT ISZERO PUSH2 0x20AB JUMPI DUP2 DUP2 DUP2 MLOAD DUP2 LT PUSH2 0x2072 JUMPI PUSH2 0x2071 PUSH2 0x33A4 JUMP JUMPDEST JUMPDEST PUSH1 0x20 MUL PUSH1 0x20 ADD ADD MLOAD DUP5 DUP3 DUP2 MLOAD DUP2 LT PUSH2 0x208D JUMPI PUSH2 0x208C PUSH2 0x33A4 JUMP JUMPDEST JUMPDEST PUSH1 0x20 MUL PUSH1 0x20 ADD ADD DUP2 SWAP1 MSTORE POP DUP1 DUP1 PUSH2 0x20A3 SWAP1 PUSH2 0x32CE JUMP JUMPDEST SWAP2 POP POP PUSH2 0x2057 JUMP JUMPDEST POP JUMPDEST POP POP SWAP2 SWAP1 POP JUMP JUMPDEST PUSH2 0x20BC PUSH2 0x254A JUMP JUMPDEST PUSH1 0x0 DUP1 DUP4 PUSH20 0xFFFFFFFFFFFFFFFFFFFFFFFFFFFFFFFFFFFFFFFF AND PUSH20 0xFFFFFFFFFFFFFFFFFFFFFFFFFFFFFFFFFFFFFFFF AND DUP2 MSTORE PUSH1 0x20 ADD SWAP1 DUP2 MSTORE PUSH1 0x20 ADD PUSH1 0x0 KECCAK256 PUSH1 0x40 MLOAD DUP1 PUSH1 0xE0 ADD PUSH1 0x40 MSTORE SWAP1 DUP2 PUSH1 0x0 DUP3 ADD DUP1 SLOAD PUSH2 0x2115 SWAP1 PUSH2 0x326B JUMP JUMPDEST DUP1 PUSH1 0x1F ADD PUSH1 0x20 DUP1 SWAP2 DIV MUL PUSH1 0x20 ADD PUSH1 0x40 MLOAD SWAP1 DUP2 ADD PUSH1 0x40 MSTORE DUP1 SWAP3 SWAP2 SWAP1 DUP2 DUP2 MSTORE PUSH1 0x20 ADD DUP3 DUP1 SLOAD PUSH2 0x2141 SWAP1 PUSH2 0x326B JUMP JUMPDEST DUP1 ISZERO PUSH2 0x218E JUMPI DUP1 PUSH1 0x1F LT PUSH2 0x2163 JUMPI PUSH2 0x100 DUP1 DUP4 SLOAD DIV MUL DUP4 MSTORE SWAP2 PUSH1 0x20 ADD SWAP2 PUSH2 0x218E JUMP JUMPDEST DUP3 ADD SWAP2 SWAP1 PUSH1 0x0 MSTORE PUSH1 0x20 PUSH1 0x0 KECCAK256 SWAP1 JUMPDEST DUP2 SLOAD DUP2 MSTORE SWAP1 PUSH1 0x1 ADD SWAP1 PUSH1 0x20 ADD DUP1 DUP4 GT PUSH2 0x2171 JUMPI DUP3 SWAP1 SUB PUSH1 0x1F AND DUP3 ADD SWAP2 JUMPDEST POP POP POP POP POP DUP2 MSTORE PUSH1 0x20 ADD PUSH1 0x1 DUP3 ADD DUP1 SLOAD PUSH2 0x21A7 SWAP1 PUSH2 0x326B JUMP JUMPDEST DUP1 PUSH1 0x1F ADD PUSH1 0x20 DUP1 SWAP2 DIV MUL PUSH1 0x20 ADD PUSH1 0x40 MLOAD SWAP1 DUP2 ADD PUSH1 0x40 MSTORE DUP1 SWAP3 SWAP2 SWAP1 DUP2 DUP2 MSTORE PUSH1 0x20 ADD DUP3 DUP1 SLOAD PUSH2 0x21D3 SWAP1 PUSH2 0x326B JUMP JUMPDEST DUP1 ISZERO PUSH2 0x2220 JUMPI DUP1 PUSH1 0x1F LT PUSH2 0x21F5 JUMPI PUSH2 0x100 DUP1 DUP4 SLOAD DIV MUL DUP4 MSTORE SWAP2 PUSH1 0x20 ADD SWAP2 PUSH2 0x2220 JUMP JUMPDEST DUP3 ADD SWAP2 SWAP1 PUSH1 0x0 MSTORE PUSH1 0x20 PUSH1 0x0 KECCAK256 SWAP1 JUMPDEST DUP2 SLOAD DUP2 MSTORE SWAP1 PUSH1 0x1 ADD SWAP1 PUSH1 0x20 ADD DUP1 DUP4 GT PUSH2 0x2203 JUMPI DUP3 SWAP1 SUB PUSH1 0x1F AND DUP3 ADD SWAP2 JUMPDEST POP POP POP POP POP DUP2 MSTORE PUSH1 0x20 ADD PUSH1 0x2 DUP3 ADD PUSH1 0x0 SWAP1 SLOAD SWAP1 PUSH2 0x100 EXP SWAP1 DIV PUSH1 0xFF AND PUSH1 0x6 DUP2 GT ISZERO PUSH2 0x224E JUMPI PUSH2 0x224D PUSH2 0x3346 JUMP JUMPDEST JUMPDEST PUSH1 0x6 DUP2 GT ISZERO PUSH2 0x2260 JUMPI PUSH2 0x225F PUSH2 0x3346 JUMP JUMPDEST JUMPDEST DUP2 MSTORE PUSH1 0x20 ADD PUSH1 0x2 DUP3 ADD PUSH1 0x1 SWAP1 SLOAD SWAP1 PUSH2 0x100 EXP SWAP1 DIV PUSH1 0xFF AND PUSH1 0x2 DUP2 GT ISZERO PUSH2 0x2289 JUMPI PUSH2 0x2288 PUSH2 0x3346 JUMP JUMPDEST JUMPDEST PUSH1 0x2 DUP2 GT ISZERO PUSH2 0x229B JUMPI PUSH2 0x229A PUSH2 0x3346 JUMP JUMPDEST JUMPDEST DUP2 MSTORE PUSH1 0x20 ADD PUSH1 0x3 DUP3 ADD SLOAD DUP2 MSTORE PUSH1 0x20 ADD PUSH1 0x4 DUP3 ADD SLOAD DUP2 MSTORE PUSH1 0x20 ADD PUSH1 0x5 DUP3 ADD PUSH1 0x0 SWAP1 SLOAD SWAP1 PUSH2 0x100 EXP SWAP1 DIV PUSH20 0xFFFFFFFFFFFFFFFFFFFFFFFFFFFFFFFFFFFFFFFF AND PUSH20 0xFFFFFFFFFFFFFFFFFFFFFFFFFFFFFFFFFFFFFFFF AND PUSH20 0xFFFFFFFFFFFFFFFFFFFFFFFFFFFFFFFFFFFFFFFF AND DUP2 MSTORE POP POP SWAP1 POP SWAP2 SWAP1 POP JUMP JUMPDEST PUSH2 0x2318 PUSH2 0x262A JUMP JUMPDEST PUSH1 0x2 DUP3 PUSH1 0x40 MLOAD PUSH2 0x2328 SWAP2 SWAP1 PUSH2 0x2EBB JUMP JUMPDEST SWAP1 DUP2 MSTORE PUSH1 0x20 ADD PUSH1 0x40 MLOAD DUP1 SWAP2 SUB SWAP1 KECCAK256 PUSH1 0x40 MLOAD DUP1 PUSH1 0x60 ADD PUSH1 0x40 MSTORE SWAP1 DUP2 PUSH1 0x0 DUP3 ADD DUP1 SLOAD PUSH2 0x2351 SWAP1 PUSH2 0x326B JUMP JUMPDEST DUP1 PUSH1 0x1F ADD PUSH1 0x20 DUP1 SWAP2 DIV MUL PUSH1 0x20 ADD PUSH1 0x40 MLOAD SWAP1 DUP2 ADD PUSH1 0x40 MSTORE DUP1 SWAP3 SWAP2 SWAP1 DUP2 DUP2 MSTORE PUSH1 0x20 ADD DUP3 DUP1 SLOAD PUSH2 0x237D SWAP1 PUSH2 0x326B JUMP JUMPDEST DUP1 ISZERO PUSH2 0x23CA JUMPI DUP1 PUSH1 0x1F LT PUSH2 0x239F JUMPI PUSH2 0x100 DUP1 DUP4 SLOAD DIV MUL DUP4 MSTORE SWAP2 PUSH1 0x20 ADD SWAP2 PUSH2 0x23CA JUMP JUMPDEST DUP3 ADD SWAP2 SWAP1 PUSH1 0x0 MSTORE PUSH1 0x20 PUSH1 0x0 KECCAK256 SWAP1 JUMPDEST DUP2 SLOAD DUP2 MSTORE SWAP1 PUSH1 0x1 ADD SWAP1 PUSH1 0x20 ADD DUP1 DUP4 GT PUSH2 0x23AD JUMPI DUP3 SWAP1 SUB PUSH1 0x1F AND DUP3 ADD SWAP2 JUMPDEST POP POP POP POP POP DUP2 MSTORE PUSH1 0x20 ADD PUSH1 0x1 DUP3 ADD PUSH1 0x0 SWAP1 SLOAD SWAP1 PUSH2 0x100 EXP SWAP1 DIV PUSH20 0xFFFFFFFFFFFFFFFFFFFFFFFFFFFFFFFFFFFFFFFF AND PUSH20 0xFFFFFFFFFFFFFFFFFFFFFFFFFFFFFFFFFFFFFFFF AND PUSH20 0xFFFFFFFFFFFFFFFFFFFFFFFFFFFFFFFFFFFFFFFF AND DUP2 MSTORE PUSH1 0x20 ADD PUSH1 0x1 DUP3 ADD PUSH1 0x14 SWAP1 SLOAD SWAP1 PUSH2 0x100 EXP SWAP1 DIV PUSH1 0xFF AND PUSH1 0x2 DUP2 GT ISZERO PUSH2 0x244E JUMPI PUSH2 0x244D PUSH2 0x3346 JUMP JUMPDEST JUMPDEST PUSH1 0x2 DUP2 GT ISZERO PUSH2 0x2460 JUMPI PUSH2 0x245F PUSH2 0x3346 JUMP JUMPDEST JUMPDEST DUP2 MSTORE POP POP SWAP1 POP SWAP2 SWAP1 POP JUMP JUMPDEST PUSH1 0x0 DUP2 PUSH1 0x40 MLOAD PUSH1 0x20 ADD PUSH2 0x247E SWAP2 SWAP1 PUSH2 0x2EBB JUMP JUMPDEST PUSH1 0x40 MLOAD PUSH1 0x20 DUP2 DUP4 SUB SUB DUP2 MSTORE SWAP1 PUSH1 0x40 MSTORE DUP1 MLOAD SWAP1 PUSH1 0x20 ADD KECCAK256 DUP4 PUSH1 0x40 MLOAD PUSH1 0x20 ADD PUSH2 0x24A5 SWAP2 SWAP1 PUSH2 0x2EBB JUMP JUMPDEST PUSH1 0x40 MLOAD PUSH1 0x20 DUP2 DUP4 SUB SUB DUP2 MSTORE SWAP1 PUSH1 0x40 MSTORE DUP1 MLOAD SWAP1 PUSH1 0x20 ADD KECCAK256 EQ SWAP1 POP SWAP3 SWAP2 POP POP JUMP JUMPDEST DUP3 DUP1 SLOAD PUSH2 0x24D0 SWAP1 PUSH2 0x326B JUMP JUMPDEST SWAP1 PUSH1 0x0 MSTORE PUSH1 0x20 PUSH1 0x0 KECCAK256 SWAP1 PUSH1 0x1F ADD PUSH1 0x20 SWAP1 DIV DUP2 ADD SWAP3 DUP3 PUSH2 0x24F2 JUMPI PUSH1 0x0 DUP6 SSTORE PUSH2 0x2539 JUMP JUMPDEST DUP3 PUSH1 0x1F LT PUSH2 0x250B JUMPI DUP1 MLOAD PUSH1 0xFF NOT AND DUP4 DUP1 ADD OR DUP6 SSTORE PUSH2 0x2539 JUMP JUMPDEST DUP3 DUP1 ADD PUSH1 0x1 ADD DUP6 SSTORE DUP3 ISZERO PUSH2 0x2539 JUMPI SWAP2 DUP3 ADD JUMPDEST DUP3 DUP2 GT ISZERO PUSH2 0x2538 JUMPI DUP3 MLOAD DUP3 SSTORE SWAP2 PUSH1 0x20 ADD SWAP2 SWAP1 PUSH1 0x1 ADD SWAP1 PUSH2 0x251D JUMP JUMPDEST JUMPDEST POP SWAP1 POP PUSH2 0x2546 SWAP2 SWAP1 PUSH2 0x2673 JUMP JUMPDEST POP SWAP1 JUMP JUMPDEST PUSH1 0x40 MLOAD DUP1 PUSH1 0xE0 ADD PUSH1 0x40 MSTORE DUP1 PUSH1 0x60 DUP2 MSTORE PUSH1 0x20 ADD PUSH1 0x60 DUP2 MSTORE PUSH1 0x20 ADD PUSH1 0x0 PUSH1 0x6 DUP2 GT ISZERO PUSH2 0x2577 JUMPI PUSH2 0x2576 PUSH2 0x3346 JUMP JUMPDEST JUMPDEST DUP2 MSTORE PUSH1 0x20 ADD PUSH1 0x0 PUSH1 0x2 DUP2 GT ISZERO PUSH2 0x2590 JUMPI PUSH2 0x258F PUSH2 0x3346 JUMP JUMPDEST JUMPDEST DUP2 MSTORE PUSH1 0x20 ADD PUSH1 0x0 DUP2 MSTORE PUSH1 0x20 ADD PUSH1 0x0 DUP2 MSTORE PUSH1 0x20 ADD PUSH1 0x0 PUSH20 0xFFFFFFFFFFFFFFFFFFFFFFFFFFFFFFFFFFFFFFFF AND DUP2 MSTORE POP SWAP1 JUMP JUMPDEST PUSH1 0x40 MLOAD DUP1 PUSH1 0xE0 ADD PUSH1 0x40 MSTORE DUP1 PUSH1 0x60 DUP2 MSTORE PUSH1 0x20 ADD PUSH1 0x60 DUP2 MSTORE PUSH1 0x20 ADD PUSH1 0x0 DUP2 MSTORE PUSH1 0x20 ADD PUSH1 0x0 PUSH20 0xFFFFFFFFFFFFFFFFFFFFFFFFFFFFFFFFFFFFFFFF AND DUP2 MSTORE PUSH1 0x20 ADD PUSH1 0x0 PUSH20 0xFFFFFFFFFFFFFFFFFFFFFFFFFFFFFFFFFFFFFFFF AND DUP2 MSTORE PUSH1 0x20 ADD PUSH1 0x0 DUP2 MSTORE PUSH1 0x20 ADD PUSH1 0x0 DUP2 MSTORE POP SWAP1 JUMP JUMPDEST PUSH1 0x40 MLOAD DUP1 PUSH1 0x60 ADD PUSH1 0x40 MSTORE DUP1 PUSH1 0x60 DUP2 MSTORE PUSH1 0x20 ADD PUSH1 0x0 PUSH20 0xFFFFFFFFFFFFFFFFFFFFFFFFFFFFFFFFFFFFFFFF AND DUP2 MSTORE PUSH1 0x20 ADD PUSH1 0x0 PUSH1 0x2 DUP2 GT ISZERO PUSH2 0x266D JUMPI PUSH2 0x266C PUSH2 0x3346 JUMP JUMPDEST JUMPDEST DUP2 MSTORE POP SWAP1 JUMP JUMPDEST JUMPDEST DUP1 DUP3 GT ISZERO PUSH2 0x268C JUMPI PUSH1 0x0 DUP2 PUSH1 0x0 SWAP1 SSTORE POP PUSH1 0x1 ADD PUSH2 0x2674 JUMP JUMPDEST POP SWAP1 JUMP JUMPDEST PUSH1 0x0 PUSH2 0x26A3 PUSH2 0x269E DUP5 PUSH2 0x3032 JUMP JUMPDEST PUSH2 0x300D JUMP JUMPDEST SWAP1 POP DUP3 DUP2 MSTORE PUSH1 0x20 DUP2 ADD DUP5 DUP5 DUP5 ADD GT ISZERO PUSH2 0x26BF JUMPI PUSH2 0x26BE PUSH2 0x3407 JUMP JUMPDEST JUMPDEST PUSH2 0x26CA DUP5 DUP3 DUP6 PUSH2 0x3229 JUMP JUMPDEST POP SWAP4 SWAP3 POP POP POP JUMP JUMPDEST PUSH1 0x0 DUP2 CALLDATALOAD SWAP1 POP PUSH2 0x26E1 DUP2 PUSH2 0x344F JUMP JUMPDEST SWAP3 SWAP2 POP POP JUMP JUMPDEST PUSH1 0x0 DUP2 CALLDATALOAD SWAP1 POP PUSH2 0x26F6 DUP2 PUSH2 0x3466 JUMP JUMPDEST SWAP3 SWAP2 POP POP JUMP JUMPDEST PUSH1 0x0 DUP3 PUSH1 0x1F DUP4 ADD SLT PUSH2 0x2711 JUMPI PUSH2 0x2710 PUSH2 0x3402 JUMP JUMPDEST JUMPDEST DUP2 CALLDATALOAD PUSH2 0x2721 DUP5 DUP3 PUSH1 0x20 DUP7 ADD PUSH2 0x2690 JUMP JUMPDEST SWAP2 POP POP SWAP3 SWAP2 POP POP JUMP JUMPDEST PUSH1 0x0 DUP2 CALLDATALOAD SWAP1 POP PUSH2 0x2739 DUP2 PUSH2 0x3476 JUMP JUMPDEST SWAP3 SWAP2 POP POP JUMP JUMPDEST PUSH1 0x0 PUSH1 0x20 DUP3 DUP5 SUB SLT ISZERO PUSH2 0x2755 JUMPI PUSH2 0x2754 PUSH2 0x3411 JUMP JUMPDEST JUMPDEST PUSH1 0x0 PUSH2 0x2763 DUP5 DUP3 DUP6 ADD PUSH2 0x26D2 JUMP JUMPDEST SWAP2 POP POP SWAP3 SWAP2 POP POP JUMP JUMPDEST PUSH1 0x0 PUSH1 0x20 DUP3 DUP5 SUB SLT ISZERO PUSH2 0x2782 JUMPI PUSH2 0x2781 PUSH2 0x3411 JUMP JUMPDEST JUMPDEST PUSH1 0x0 PUSH2 0x2790 DUP5 DUP3 DUP6 ADD PUSH2 0x26E7 JUMP JUMPDEST SWAP2 POP POP SWAP3 SWAP2 POP POP JUMP JUMPDEST PUSH1 0x0 PUSH1 0x20 DUP3 DUP5 SUB SLT ISZERO PUSH2 0x27AF JUMPI PUSH2 0x27AE PUSH2 0x3411 JUMP JUMPDEST JUMPDEST PUSH1 0x0 DUP3 ADD CALLDATALOAD PUSH8 0xFFFFFFFFFFFFFFFF DUP2 GT ISZERO PUSH2 0x27CD JUMPI PUSH2 0x27CC PUSH2 0x340C JUMP JUMPDEST JUMPDEST PUSH2 0x27D9 DUP5 DUP3 DUP6 ADD PUSH2 0x26FC JUMP JUMPDEST SWAP2 POP POP SWAP3 SWAP2 POP POP JUMP JUMPDEST PUSH1 0x0 DUP1 PUSH1 0x40 DUP4 DUP6 SUB SLT ISZERO PUSH2 0x27F9 JUMPI PUSH2 0x27F8 PUSH2 0x3411 JUMP JUMPDEST JUMPDEST PUSH1 0x0 DUP4 ADD CALLDATALOAD PUSH8 0xFFFFFFFFFFFFFFFF DUP2 GT ISZERO PUSH2 0x2817 JUMPI PUSH2 0x2816 PUSH2 0x340C JUMP JUMPDEST JUMPDEST PUSH2 0x2823 DUP6 DUP3 DUP7 ADD PUSH2 0x26FC JUMP JUMPDEST SWAP3 POP POP PUSH1 0x20 DUP4 ADD CALLDATALOAD PUSH8 0xFFFFFFFFFFFFFFFF DUP2 GT ISZERO PUSH2 0x2844 JUMPI PUSH2 0x2843 PUSH2 0x340C JUMP JUMPDEST JUMPDEST PUSH2 0x2850 DUP6 DUP3 DUP7 ADD PUSH2 0x26FC JUMP JUMPDEST SWAP2 POP POP SWAP3 POP SWAP3 SWAP1 POP JUMP JUMPDEST PUSH1 0x0 DUP1 PUSH1 0x0 PUSH1 0x60 DUP5 DUP7 SUB SLT ISZERO PUSH2 0x2873 JUMPI PUSH2 0x2872 PUSH2 0x3411 JUMP JUMPDEST JUMPDEST PUSH1 0x0 DUP5 ADD CALLDATALOAD PUSH8 0xFFFFFFFFFFFFFFFF DUP2 GT ISZERO PUSH2 0x2891 JUMPI PUSH2 0x2890 PUSH2 0x340C JUMP JUMPDEST JUMPDEST PUSH2 0x289D DUP7 DUP3 DUP8 ADD PUSH2 0x26FC JUMP JUMPDEST SWAP4 POP POP PUSH1 0x20 DUP5 ADD CALLDATALOAD PUSH8 0xFFFFFFFFFFFFFFFF DUP2 GT ISZERO PUSH2 0x28BE JUMPI PUSH2 0x28BD PUSH2 0x340C JUMP JUMPDEST JUMPDEST PUSH2 0x28CA DUP7 DUP3 DUP8 ADD PUSH2 0x26FC JUMP JUMPDEST SWAP3 POP POP PUSH1 0x40 PUSH2 0x28DB DUP7 DUP3 DUP8 ADD PUSH2 0x26D2 JUMP JUMPDEST SWAP2 POP POP SWAP3 POP SWAP3 POP SWAP3 JUMP JUMPDEST PUSH1 0x0 DUP1 PUSH1 0x0 DUP1 PUSH1 0x0 PUSH1 0xA0 DUP7 DUP9 SUB SLT ISZERO PUSH2 0x2901 JUMPI PUSH2 0x2900 PUSH2 0x3411 JUMP JUMPDEST JUMPDEST PUSH1 0x0 DUP7 ADD CALLDATALOAD PUSH8 0xFFFFFFFFFFFFFFFF DUP2 GT ISZERO PUSH2 0x291F JUMPI PUSH2 0x291E PUSH2 0x340C JUMP JUMPDEST JUMPDEST PUSH2 0x292B DUP9 DUP3 DUP10 ADD PUSH2 0x26FC JUMP JUMPDEST SWAP6 POP POP PUSH1 0x20 DUP7 ADD CALLDATALOAD PUSH8 0xFFFFFFFFFFFFFFFF DUP2 GT ISZERO PUSH2 0x294C JUMPI PUSH2 0x294B PUSH2 0x340C JUMP JUMPDEST JUMPDEST PUSH2 0x2958 DUP9 DUP3 DUP10 ADD PUSH2 0x26FC JUMP JUMPDEST SWAP5 POP POP PUSH1 0x40 PUSH2 0x2969 DUP9 DUP3 DUP10 ADD PUSH2 0x272A JUMP JUMPDEST SWAP4 POP POP PUSH1 0x60 PUSH2 0x297A DUP9 DUP3 DUP10 ADD PUSH2 0x26D2 JUMP JUMPDEST SWAP3 POP POP PUSH1 0x80 PUSH2 0x298B DUP9 DUP3 DUP10 ADD PUSH2 0x272A JUMP JUMPDEST SWAP2 POP POP SWAP3 SWAP6 POP SWAP3 SWAP6 SWAP1 SWAP4 POP JUMP JUMPDEST PUSH1 0x0 DUP1 PUSH1 0x0 DUP1 PUSH1 0x80 DUP6 DUP8 SUB SLT ISZERO PUSH2 0x29B2 JUMPI PUSH2 0x29B1 PUSH2 0x3411 JUMP JUMPDEST JUMPDEST PUSH1 0x0 DUP6 ADD CALLDATALOAD PUSH8 0xFFFFFFFFFFFFFFFF DUP2 GT ISZERO PUSH2 0x29D0 JUMPI PUSH2 0x29CF PUSH2 0x340C JUMP JUMPDEST JUMPDEST PUSH2 0x29DC DUP8 DUP3 DUP9 ADD PUSH2 0x26FC JUMP JUMPDEST SWAP5 POP POP PUSH1 0x20 DUP6 ADD CALLDATALOAD PUSH8 0xFFFFFFFFFFFFFFFF DUP2 GT ISZERO PUSH2 0x29FD JUMPI PUSH2 0x29FC PUSH2 0x340C JUMP JUMPDEST JUMPDEST PUSH2 0x2A09 DUP8 DUP3 DUP9 ADD PUSH2 0x26FC JUMP JUMPDEST SWAP4 POP POP PUSH1 0x40 PUSH2 0x2A1A DUP8 DUP3 DUP9 ADD PUSH2 0x272A JUMP JUMPDEST SWAP3 POP POP PUSH1 0x60 PUSH2 0x2A2B DUP8 DUP3 DUP9 ADD PUSH2 0x272A JUMP JUMPDEST SWAP2 POP POP SWAP3 SWAP6 SWAP2 SWAP5 POP SWAP3 POP JUMP JUMPDEST PUSH1 0x0 PUSH1 0x20 DUP3 DUP5 SUB SLT ISZERO PUSH2 0x2A4D JUMPI PUSH2 0x2A4C PUSH2 0x3411 JUMP JUMPDEST JUMPDEST PUSH1 0x0 PUSH2 0x2A5B DUP5 DUP3 DUP6 ADD PUSH2 0x272A JUMP JUMPDEST SWAP2 POP POP SWAP3 SWAP2 POP POP JUMP JUMPDEST PUSH1 0x0 PUSH2 0x2A70 DUP4 DUP4 PUSH2 0x2CB4 JUMP JUMPDEST SWAP1 POP SWAP3 SWAP2 POP POP JUMP JUMPDEST PUSH1 0x0 PUSH2 0x2A84 DUP4 DUP4 PUSH2 0x2D57 JUMP JUMPDEST SWAP1 POP SWAP3 SWAP2 POP POP JUMP JUMPDEST PUSH2 0x2A95 DUP2 PUSH2 0x3197 JUMP JUMPDEST DUP3 MSTORE POP POP JUMP JUMPDEST PUSH2 0x2AA4 DUP2 PUSH2 0x3197 JUMP JUMPDEST DUP3 MSTORE POP POP JUMP JUMPDEST PUSH1 0x0 PUSH2 0x2AB5 DUP3 PUSH2 0x3083 JUMP JUMPDEST PUSH2 0x2ABF DUP2 DUP6 PUSH2 0x30BE JUMP JUMPDEST SWAP4 POP DUP4 PUSH1 0x20 DUP3 MUL DUP6 ADD PUSH2 0x2AD1 DUP6 PUSH2 0x3063 JUMP JUMPDEST DUP1 PUSH1 0x0 JUMPDEST DUP6 DUP2 LT ISZERO PUSH2 0x2B0D JUMPI DUP5 DUP5 SUB DUP10 MSTORE DUP2 MLOAD PUSH2 0x2AEE DUP6 DUP3 PUSH2 0x2A64 JUMP JUMPDEST SWAP5 POP PUSH2 0x2AF9 DUP4 PUSH2 0x30A4 JUMP JUMPDEST SWAP3 POP PUSH1 0x20 DUP11 ADD SWAP10 POP POP PUSH1 0x1 DUP2 ADD SWAP1 POP PUSH2 0x2AD5 JUMP JUMPDEST POP DUP3 SWAP8 POP DUP8 SWAP6 POP POP POP POP POP POP SWAP3 SWAP2 POP POP JUMP JUMPDEST PUSH1 0x0 PUSH2 0x2B2A DUP3 PUSH2 0x308E JUMP JUMPDEST PUSH2 0x2B34 DUP2 DUP6 PUSH2 0x30CF JUMP JUMPDEST SWAP4 POP DUP4 PUSH1 0x20 DUP3 MUL DUP6 ADD PUSH2 0x2B46 DUP6 PUSH2 0x3073 JUMP JUMPDEST DUP1 PUSH1 0x0 JUMPDEST DUP6 DUP2 LT ISZERO PUSH2 0x2B82 JUMPI DUP5 DUP5 SUB DUP10 MSTORE DUP2 MLOAD PUSH2 0x2B63 DUP6 DUP3 PUSH2 0x2A78 JUMP JUMPDEST SWAP5 POP PUSH2 0x2B6E DUP4 PUSH2 0x30B1 JUMP JUMPDEST SWAP3 POP PUSH1 0x20 DUP11 ADD SWAP10 POP POP PUSH1 0x1 DUP2 ADD SWAP1 POP PUSH2 0x2B4A JUMP JUMPDEST POP DUP3 SWAP8 POP DUP8 SWAP6 POP POP POP POP POP POP SWAP3 SWAP2 POP POP JUMP JUMPDEST PUSH2 0x2B9D DUP2 PUSH2 0x31A9 JUMP JUMPDEST DUP3 MSTORE POP POP JUMP JUMPDEST PUSH2 0x2BAC DUP2 PUSH2 0x3205 JUMP JUMPDEST DUP3 MSTORE POP POP JUMP JUMPDEST PUSH2 0x2BBB DUP2 PUSH2 0x3217 JUMP JUMPDEST DUP3 MSTORE POP POP JUMP JUMPDEST PUSH1 0x0 PUSH2 0x2BCC DUP3 PUSH2 0x3099 JUMP JUMPDEST PUSH2 0x2BD6 DUP2 DUP6 PUSH2 0x30E0 JUMP JUMPDEST SWAP4 POP PUSH2 0x2BE6 DUP2 DUP6 PUSH1 0x20 DUP7 ADD PUSH2 0x3238 JUMP JUMPDEST PUSH2 0x2BEF DUP2 PUSH2 0x3416 JUMP JUMPDEST DUP5 ADD SWAP2 POP POP SWAP3 SWAP2 POP POP JUMP JUMPDEST PUSH1 0x0 PUSH2 0x2C05 DUP3 PUSH2 0x3099 JUMP JUMPDEST PUSH2 0x2C0F DUP2 DUP6 PUSH2 0x30F1 JUMP JUMPDEST SWAP4 POP PUSH2 0x2C1F DUP2 DUP6 PUSH1 0x20 DUP7 ADD PUSH2 0x3238 JUMP JUMPDEST PUSH2 0x2C28 DUP2 PUSH2 0x3416 JUMP JUMPDEST DUP5 ADD SWAP2 POP POP SWAP3 SWAP2 POP POP JUMP JUMPDEST PUSH1 0x0 PUSH2 0x2C3E DUP3 PUSH2 0x3099 JUMP JUMPDEST PUSH2 0x2C48 DUP2 DUP6 PUSH2 0x3102 JUMP JUMPDEST SWAP4 POP PUSH2 0x2C58 DUP2 DUP6 PUSH1 0x20 DUP7 ADD PUSH2 0x3238 JUMP JUMPDEST DUP1 DUP5 ADD SWAP2 POP POP SWAP3 SWAP2 POP POP JUMP JUMPDEST PUSH1 0x0 PUSH1 0x60 DUP4 ADD PUSH1 0x0 DUP4 ADD MLOAD DUP5 DUP3 SUB PUSH1 0x0 DUP7 ADD MSTORE PUSH2 0x2C81 DUP3 DUP3 PUSH2 0x2BC1 JUMP JUMPDEST SWAP2 POP POP PUSH1 0x20 DUP4 ADD MLOAD PUSH2 0x2C96 PUSH1 0x20 DUP7 ADD DUP3 PUSH2 0x2A8C JUMP JUMPDEST POP PUSH1 0x40 DUP4 ADD MLOAD PUSH2 0x2CA9 PUSH1 0x40 DUP7 ADD DUP3 PUSH2 0x2BA3 JUMP JUMPDEST POP DUP1 SWAP2 POP POP SWAP3 SWAP2 POP POP JUMP JUMPDEST PUSH1 0x0 PUSH1 0xE0 DUP4 ADD PUSH1 0x0 DUP4 ADD MLOAD DUP5 DUP3 SUB PUSH1 0x0 DUP7 ADD MSTORE PUSH2 0x2CD1 DUP3 DUP3 PUSH2 0x2BC1 JUMP JUMPDEST SWAP2 POP POP PUSH1 0x20 DUP4 ADD MLOAD DUP5 DUP3 SUB PUSH1 0x20 DUP7 ADD MSTORE PUSH2 0x2CEB DUP3 DUP3 PUSH2 0x2BC1 JUMP JUMPDEST SWAP2 POP POP PUSH1 0x40 DUP4 ADD MLOAD PUSH2 0x2D00 PUSH1 0x40 DUP7 ADD DUP3 PUSH2 0x2E9D JUMP JUMPDEST POP PUSH1 0x60 DUP4 ADD MLOAD PUSH2 0x2D13 PUSH1 0x60 DUP7 ADD DUP3 PUSH2 0x2A8C JUMP JUMPDEST POP PUSH1 0x80 DUP4 ADD MLOAD PUSH2 0x2D26 PUSH1 0x80 DUP7 ADD DUP3 PUSH2 0x2A8C JUMP JUMPDEST POP PUSH1 0xA0 DUP4 ADD MLOAD PUSH2 0x2D39 PUSH1 0xA0 DUP7 ADD DUP3 PUSH2 0x2E9D JUMP JUMPDEST POP PUSH1 0xC0 DUP4 ADD MLOAD PUSH2 0x2D4C PUSH1 0xC0 DUP7 ADD DUP3 PUSH2 0x2E9D JUMP JUMPDEST POP DUP1 SWAP2 POP POP SWAP3 SWAP2 POP POP JUMP JUMPDEST PUSH1 0x0 PUSH1 0xE0 DUP4 ADD PUSH1 0x0 DUP4 ADD MLOAD DUP5 DUP3 SUB PUSH1 0x0 DUP7 ADD MSTORE PUSH2 0x2D74 DUP3 DUP3 PUSH2 0x2BC1 JUMP JUMPDEST SWAP2 POP POP PUSH1 0x20 DUP4 ADD MLOAD DUP5 DUP3 SUB PUSH1 0x20 DUP7 ADD MSTORE PUSH2 0x2D8E DUP3 DUP3 PUSH2 0x2BC1 JUMP JUMPDEST SWAP2 POP POP PUSH1 0x40 DUP4 ADD MLOAD PUSH2 0x2DA3 PUSH1 0x40 DUP7 ADD DUP3 PUSH2 0x2BB2 JUMP JUMPDEST POP PUSH1 0x60 DUP4 ADD MLOAD PUSH2 0x2DB6 PUSH1 0x60 DUP7 ADD DUP3 PUSH2 0x2BA3 JUMP JUMPDEST POP PUSH1 0x80 DUP4 ADD MLOAD PUSH2 0x2DC9 PUSH1 0x80 DUP7 ADD DUP3 PUSH2 0x2E9D JUMP JUMPDEST POP PUSH1 0xA0 DUP4 ADD MLOAD PUSH2 0x2DDC PUSH1 0xA0 DUP7 ADD DUP3 PUSH2 0x2E9D JUMP JUMPDEST POP PUSH1 0xC0 DUP4 ADD MLOAD PUSH2 0x2DEF PUSH1 0xC0 DUP7 ADD DUP3 PUSH2 0x2A8C JUMP JUMPDEST POP DUP1 SWAP2 POP POP SWAP3 SWAP2 POP POP JUMP JUMPDEST PUSH1 0x0 PUSH1 0xE0 DUP4 ADD PUSH1 0x0 DUP4 ADD MLOAD DUP5 DUP3 SUB PUSH1 0x0 DUP7 ADD MSTORE PUSH2 0x2E17 DUP3 DUP3 PUSH2 0x2BC1 JUMP JUMPDEST SWAP2 POP POP PUSH1 0x20 DUP4 ADD MLOAD DUP5 DUP3 SUB PUSH1 0x20 DUP7 ADD MSTORE PUSH2 0x2E31 DUP3 DUP3 PUSH2 0x2BC1 JUMP JUMPDEST SWAP2 POP POP PUSH1 0x40 DUP4 ADD MLOAD PUSH2 0x2E46 PUSH1 0x40 DUP7 ADD DUP3 PUSH2 0x2BB2 JUMP JUMPDEST POP PUSH1 0x60 DUP4 ADD MLOAD PUSH2 0x2E59 PUSH1 0x60 DUP7 ADD DUP3 PUSH2 0x2BA3 JUMP JUMPDEST POP PUSH1 0x80 DUP4 ADD MLOAD PUSH2 0x2E6C PUSH1 0x80 DUP7 ADD DUP3 PUSH2 0x2E9D JUMP JUMPDEST POP PUSH1 0xA0 DUP4 ADD MLOAD PUSH2 0x2E7F PUSH1 0xA0 DUP7 ADD DUP3 PUSH2 0x2E9D JUMP JUMPDEST POP PUSH1 0xC0 DUP4 ADD MLOAD PUSH2 0x2E92 PUSH1 0xC0 DUP7 ADD DUP3 PUSH2 0x2A8C JUMP JUMPDEST POP DUP1 SWAP2 POP POP SWAP3 SWAP2 POP POP JUMP JUMPDEST PUSH2 0x2EA6 DUP2 PUSH2 0x31FB JUMP JUMPDEST DUP3 MSTORE POP POP JUMP JUMPDEST PUSH2 0x2EB5 DUP2 PUSH2 0x31FB JUMP JUMPDEST DUP3 MSTORE POP POP JUMP JUMPDEST PUSH1 0x0 PUSH2 0x2EC7 DUP3 DUP5 PUSH2 0x2C33 JUMP JUMPDEST SWAP2 POP DUP2 SWAP1 POP SWAP3 SWAP2 POP POP JUMP JUMPDEST PUSH1 0x0 PUSH1 0x20 DUP3 ADD SWAP1 POP DUP2 DUP2 SUB PUSH1 0x0 DUP4 ADD MSTORE PUSH2 0x2EEC DUP2 DUP5 PUSH2 0x2AAA JUMP JUMPDEST SWAP1 POP SWAP3 SWAP2 POP POP JUMP JUMPDEST PUSH1 0x0 PUSH1 0x20 DUP3 ADD SWAP1 POP DUP2 DUP2 SUB PUSH1 0x0 DUP4 ADD MSTORE PUSH2 0x2F0E DUP2 DUP5 PUSH2 0x2B1F JUMP JUMPDEST SWAP1 POP SWAP3 SWAP2 POP POP JUMP JUMPDEST PUSH1 0x0 PUSH1 0x20 DUP3 ADD SWAP1 POP PUSH2 0x2F2B PUSH1 0x0 DUP4 ADD DUP5 PUSH2 0x2B94 JUMP JUMPDEST SWAP3 SWAP2 POP POP JUMP JUMPDEST PUSH1 0x0 PUSH1 0xE0 DUP3 ADD SWAP1 POP DUP2 DUP2 SUB PUSH1 0x0 DUP4 ADD MSTORE PUSH2 0x2F4B DUP2 DUP11 PUSH2 0x2BFA JUMP JUMPDEST SWAP1 POP DUP2 DUP2 SUB PUSH1 0x20 DUP4 ADD MSTORE PUSH2 0x2F5F DUP2 DUP10 PUSH2 0x2BFA JUMP JUMPDEST SWAP1 POP PUSH2 0x2F6E PUSH1 0x40 DUP4 ADD DUP9 PUSH2 0x2EAC JUMP JUMPDEST PUSH2 0x2F7B PUSH1 0x60 DUP4 ADD DUP8 PUSH2 0x2A9B JUMP JUMPDEST PUSH2 0x2F88 PUSH1 0x80 DUP4 ADD DUP7 PUSH2 0x2A9B JUMP JUMPDEST PUSH2 0x2F95 PUSH1 0xA0 DUP4 ADD DUP6 PUSH2 0x2EAC JUMP JUMPDEST PUSH2 0x2FA2 PUSH1 0xC0 DUP4 ADD DUP5 PUSH2 0x2EAC JUMP JUMPDEST SWAP9 SWAP8 POP POP POP POP POP POP POP POP JUMP JUMPDEST PUSH1 0x0 PUSH1 0x20 DUP3 ADD SWAP1 POP DUP2 DUP2 SUB PUSH1 0x0 DUP4 ADD MSTORE PUSH2 0x2FC8 DUP2 DUP5 PUSH2 0x2C64 JUMP JUMPDEST SWAP1 POP SWAP3 SWAP2 POP POP JUMP JUMPDEST PUSH1 0x0 PUSH1 0x20 DUP3 ADD SWAP1 POP DUP2 DUP2 SUB PUSH1 0x0 DUP4 ADD MSTORE PUSH2 0x2FEA DUP2 DUP5 PUSH2 0x2DFA JUMP JUMPDEST SWAP1 POP SWAP3 SWAP2 POP POP JUMP JUMPDEST PUSH1 0x0 PUSH1 0x20 DUP3 ADD SWAP1 POP PUSH2 0x3007 PUSH1 0x0 DUP4 ADD DUP5 PUSH2 0x2EAC JUMP JUMPDEST SWAP3 SWAP2 POP POP JUMP JUMPDEST PUSH1 0x0 PUSH2 0x3017 PUSH2 0x3028 JUMP JUMPDEST SWAP1 POP PUSH2 0x3023 DUP3 DUP3 PUSH2 0x329D JUMP JUMPDEST SWAP2 SWAP1 POP JUMP JUMPDEST PUSH1 0x0 PUSH1 0x40 MLOAD SWAP1 POP SWAP1 JUMP JUMPDEST PUSH1 0x0 PUSH8 0xFFFFFFFFFFFFFFFF DUP3 GT ISZERO PUSH2 0x304D JUMPI PUSH2 0x304C PUSH2 0x33D3 JUMP JUMPDEST JUMPDEST PUSH2 0x3056 DUP3 PUSH2 0x3416 JUMP JUMPDEST SWAP1 POP PUSH1 0x20 DUP2 ADD SWAP1 POP SWAP2 SWAP1 POP JUMP JUMPDEST PUSH1 0x0 DUP2 SWAP1 POP PUSH1 0x20 DUP3 ADD SWAP1 POP SWAP2 SWAP1 POP JUMP JUMPDEST PUSH1 0x0 DUP2 SWAP1 POP PUSH1 0x20 DUP3 ADD SWAP1 POP SWAP2 SWAP1 POP JUMP JUMPDEST PUSH1 0x0 DUP2 MLOAD SWAP1 POP SWAP2 SWAP1 POP JUMP JUMPDEST PUSH1 0x0 DUP2 MLOAD SWAP1 POP SWAP2 SWAP1 POP JUMP JUMPDEST PUSH1 0x0 DUP2 MLOAD SWAP1 POP SWAP2 SWAP1 POP JUMP JUMPDEST PUSH1 0x0 PUSH1 0x20 DUP3 ADD SWAP1 POP SWAP2 SWAP1 POP JUMP JUMPDEST PUSH1 0x0 PUSH1 0x20 DUP3 ADD SWAP1 POP SWAP2 SWAP1 POP JUMP JUMPDEST PUSH1 0x0 DUP3 DUP3 MSTORE PUSH1 0x20 DUP3 ADD SWAP1 POP SWAP3 SWAP2 POP POP JUMP JUMPDEST PUSH1 0x0 DUP3 DUP3 MSTORE PUSH1 0x20 DUP3 ADD SWAP1 POP SWAP3 SWAP2 POP POP JUMP JUMPDEST PUSH1 0x0 DUP3 DUP3 MSTORE PUSH1 0x20 DUP3 ADD SWAP1 POP SWAP3 SWAP2 POP POP JUMP JUMPDEST PUSH1 0x0 DUP3 DUP3 MSTORE PUSH1 0x20 DUP3 ADD SWAP1 POP SWAP3 SWAP2 POP POP JUMP JUMPDEST PUSH1 0x0 DUP2 SWAP1 POP SWAP3 SWAP2 POP POP JUMP JUMPDEST PUSH1 0x0 PUSH2 0x3118 DUP3 PUSH2 0x31FB JUMP JUMPDEST SWAP2 POP PUSH2 0x3123 DUP4 PUSH2 0x31FB JUMP JUMPDEST SWAP3 POP DUP3 PUSH32 0xFFFFFFFFFFFFFFFFFFFFFFFFFFFFFFFFFFFFFFFFFFFFFFFFFFFFFFFFFFFFFFFF SUB DUP3 GT ISZERO PUSH2 0x3158 JUMPI PUSH2 0x3157 PUSH2 0x3317 JUMP JUMPDEST JUMPDEST DUP3 DUP3 ADD SWAP1 POP SWAP3 SWAP2 POP POP JUMP JUMPDEST PUSH1 0x0 PUSH2 0x316E DUP3 PUSH2 0x31FB JUMP JUMPDEST SWAP2 POP PUSH2 0x3179 DUP4 PUSH2 0x31FB JUMP JUMPDEST SWAP3 POP DUP3 DUP3 LT ISZERO PUSH2 0x318C JUMPI PUSH2 0x318B PUSH2 0x3317 JUMP JUMPDEST JUMPDEST DUP3 DUP3 SUB SWAP1 POP SWAP3 SWAP2 POP POP JUMP JUMPDEST PUSH1 0x0 PUSH2 0x31A2 DUP3 PUSH2 0x31DB JUMP JUMPDEST SWAP1 POP SWAP2 SWAP1 POP JUMP JUMPDEST PUSH1 0x0 DUP2 ISZERO ISZERO SWAP1 POP SWAP2 SWAP1 POP JUMP JUMPDEST PUSH1 0x0 DUP2 SWAP1 POP PUSH2 0x31C3 DUP3 PUSH2 0x3427 JUMP JUMPDEST SWAP2 SWAP1 POP JUMP JUMPDEST PUSH1 0x0 DUP2 SWAP1 POP PUSH2 0x31D6 DUP3 PUSH2 0x343B JUMP JUMPDEST SWAP2 SWAP1 POP JUMP JUMPDEST PUSH1 0x0 PUSH20 0xFFFFFFFFFFFFFFFFFFFFFFFFFFFFFFFFFFFFFFFF DUP3 AND SWAP1 POP SWAP2 SWAP1 POP JUMP JUMPDEST PUSH1 0x0 DUP2 SWAP1 POP SWAP2 SWAP1 POP JUMP JUMPDEST PUSH1 0x0 PUSH2 0x3210 DUP3 PUSH2 0x31B5 JUMP JUMPDEST SWAP1 POP SWAP2 SWAP1 POP JUMP JUMPDEST PUSH1 0x0 PUSH2 0x3222 DUP3 PUSH2 0x31C8 JUMP JUMPDEST SWAP1 POP SWAP2 SWAP1 POP JUMP JUMPDEST DUP3 DUP2 DUP4 CALLDATACOPY PUSH1 0x0 DUP4 DUP4 ADD MSTORE POP POP POP JUMP JUMPDEST PUSH1 0x0 JUMPDEST DUP4 DUP2 LT ISZERO PUSH2 0x3256 JUMPI DUP1 DUP3 ADD MLOAD DUP2 DUP5 ADD MSTORE PUSH1 0x20 DUP2 ADD SWAP1 POP PUSH2 0x323B JUMP JUMPDEST DUP4 DUP2 GT ISZERO PUSH2 0x3265 JUMPI PUSH1 0x0 DUP5 DUP5 ADD MSTORE JUMPDEST POP POP POP POP JUMP JUMPDEST PUSH1 0x0 PUSH1 0x2 DUP3 DIV SWAP1 POP PUSH1 0x1 DUP3 AND DUP1 PUSH2 0x3283 JUMPI PUSH1 0x7F DUP3 AND SWAP2 POP JUMPDEST PUSH1 0x20 DUP3 LT DUP2 EQ ISZERO PUSH2 0x3297 JUMPI PUSH2 0x3296 PUSH2 0x3375 JUMP JUMPDEST JUMPDEST POP SWAP2 SWAP1 POP JUMP JUMPDEST PUSH2 0x32A6 DUP3 PUSH2 0x3416 JUMP JUMPDEST DUP2 ADD DUP2 DUP2 LT PUSH8 0xFFFFFFFFFFFFFFFF DUP3 GT OR ISZERO PUSH2 0x32C5 JUMPI PUSH2 0x32C4 PUSH2 0x33D3 JUMP JUMPDEST JUMPDEST DUP1 PUSH1 0x40 MSTORE POP POP POP JUMP JUMPDEST PUSH1 0x0 PUSH2 0x32D9 DUP3 PUSH2 0x31FB JUMP JUMPDEST SWAP2 POP PUSH32 0xFFFFFFFFFFFFFFFFFFFFFFFFFFFFFFFFFFFFFFFFFFFFFFFFFFFFFFFFFFFFFFFF DUP3 EQ ISZERO PUSH2 0x330C JUMPI PUSH2 0x330B PUSH2 0x3317 JUMP JUMPDEST JUMPDEST PUSH1 0x1 DUP3 ADD SWAP1 POP SWAP2 SWAP1 POP JUMP JUMPDEST PUSH32 0x4E487B7100000000000000000000000000000000000000000000000000000000 PUSH1 0x0 MSTORE PUSH1 0x11 PUSH1 0x4 MSTORE PUSH1 0x24 PUSH1 0x0 REVERT JUMPDEST PUSH32 0x4E487B7100000000000000000000000000000000000000000000000000000000 PUSH1 0x0 MSTORE PUSH1 0x21 PUSH1 0x4 MSTORE PUSH1 0x24 PUSH1 0x0 REVERT JUMPDEST PUSH32 0x4E487B7100000000000000000000000000000000000000000000000000000000 PUSH1 0x0 MSTORE PUSH1 0x22 PUSH1 0x4 MSTORE PUSH1 0x24 PUSH1 0x0 REVERT JUMPDEST PUSH32 0x4E487B7100000000000000000000000000000000000000000000000000000000 PUSH1 0x0 MSTORE PUSH1 0x32 PUSH1 0x4 MSTORE PUSH1 0x24 PUSH1 0x0 REVERT JUMPDEST PUSH32 0x4E487B7100000000000000000000000000000000000000000000000000000000 PUSH1 0x0 MSTORE PUSH1 0x41 PUSH1 0x4 MSTORE PUSH1 0x24 PUSH1 0x0 REVERT JUMPDEST PUSH1 0x0 DUP1 REVERT JUMPDEST PUSH1 0x0 DUP1 REVERT JUMPDEST PUSH1 0x0 DUP1 REVERT JUMPDEST PUSH1 0x0 DUP1 REVERT JUMPDEST PUSH1 0x0 PUSH1 0x1F NOT PUSH1 0x1F DUP4 ADD AND SWAP1 POP SWAP2 SWAP1 POP JUMP JUMPDEST PUSH1 0x3 DUP2 LT PUSH2 0x3438 JUMPI PUSH2 0x3437 PUSH2 0x3346 JUMP JUMPDEST JUMPDEST POP JUMP JUMPDEST PUSH1 0x7 DUP2 LT PUSH2 0x344C JUMPI PUSH2 0x344B PUSH2 0x3346 JUMP JUMPDEST JUMPDEST POP JUMP JUMPDEST PUSH2 0x3458 DUP2 PUSH2 0x3197 JUMP JUMPDEST DUP2 EQ PUSH2 0x3463 JUMPI PUSH1 0x0 DUP1 REVERT JUMPDEST POP JUMP JUMPDEST PUSH1 0x7 DUP2 LT PUSH2 0x3473 JUMPI PUSH1 0x0 DUP1 REVERT JUMPDEST POP JUMP JUMPDEST PUSH2 0x347F DUP2 PUSH2 0x31FB JUMP JUMPDEST DUP2 EQ PUSH2 0x348A JUMPI PUSH1 0x0 DUP1 REVERT JUMPDEST POP JUMP INVALID LOG2 PUSH5 0x6970667358 0x22 SLT KECCAK256 0x2B 0xFC 0xF GAS CALLDATALOAD PUSH17 0x136599B54AAE1B4309443EBEFD6E7E1542 CODECOPY PUSH4 0xAD9C423F 0x28 COINBASE 0x4D PUSH5 0x736F6C6343 STOP ADDMOD SMOD STOP CALLER "
		},
		"gasEstimates": {
			"creation": {
				"codeDepositCost": "2701400",
				"executionCost": "2938",
				"totalCost": "2704338"
			},
			"external": {
				"CreatePatch(string,string,uint256,uint256)": "infinite",
				"CreateTransaction(string,string,uint256,address,uint256)": "infinite",
				"GetUsersByType(uint8)": "infinite",
				"PatchTrannsactions(uint256)": "infinite",
				"ReadDrug(string)": "infinite",
				"ReadParentAndSiblingsTransactions(string,string,address)": "infinite",
				"ReadTransactionsByDrug(string)": "infinite",
				"ReadTransactionsByPatchNo(string,string)": "infinite",
				"ReadTransactionsByUser(address)": "infinite",
				"ReadUser(address)": "infinite",
				"ReturnRemainingAmount(string,string,address)": "infinite",
				"compareStringsbyBytes(string,string)": "infinite"
			}
		},
		"methodIdentifiers": {
			"CreatePatch(string,string,uint256,uint256)": "1aaf0beb",
			"CreateTransaction(string,string,uint256,address,uint256)": "067aae89",
			"GetUsersByType(uint8)": "0f9de977",
			"PatchTrannsactions(uint256)": "1567697c",
			"ReadDrug(string)": "cdf7e73d",
			"ReadParentAndSiblingsTransactions(string,string,address)": "31a6db4d",
			"ReadTransactionsByDrug(string)": "4b2d14aa",
			"ReadTransactionsByPatchNo(string,string)": "40d37caf",
			"ReadTransactionsByUser(address)": "99b5bbdd",
			"ReadUser(address)": "cd1720d1",
			"ReturnRemainingAmount(string,string,address)": "798d2122",
			"compareStringsbyBytes(string,string)": "e9a734ff"
		}
	},
	"abi": [
		{
			"inputs": [
				{
					"internalType": "string",
					"name": "_drugregno",
					"type": "string"
				},
				{
					"internalType": "string",
					"name": "_patchno",
					"type": "string"
				},
				{
					"internalType": "uint256",
					"name": "_amount",
					"type": "uint256"
				},
				{
					"internalType": "uint256",
					"name": "_txdate",
					"type": "uint256"
				}
			],
			"name": "CreatePatch",
			"outputs": [
				{
					"internalType": "bool",
					"name": "",
					"type": "bool"
				}
			],
			"stateMutability": "nonpayable",
			"type": "function"
		},
		{
			"inputs": [
				{
					"internalType": "string",
					"name": "_drugregno",
					"type": "string"
				},
				{
					"internalType": "string",
					"name": "_patchno",
					"type": "string"
				},
				{
					"internalType": "uint256",
					"name": "_amount",
					"type": "uint256"
				},
				{
					"internalType": "address",
					"name": "_toaddress",
					"type": "address"
				},
				{
					"internalType": "uint256",
					"name": "_txdate",
					"type": "uint256"
				}
			],
			"name": "CreateTransaction",
			"outputs": [
				{
					"internalType": "bool",
					"name": "",
					"type": "bool"
				}
			],
			"stateMutability": "nonpayable",
			"type": "function"
		},
		{
			"inputs": [
				{
					"internalType": "enum Utils.UserRoles",
					"name": "_role",
					"type": "uint8"
				}
			],
			"name": "GetUsersByType",
			"outputs": [
				{
					"components": [
						{
							"internalType": "string",
							"name": "UserID",
							"type": "string"
						},
						{
							"internalType": "string",
							"name": "UserName",
							"type": "string"
						},
						{
							"internalType": "enum Utils.UserRoles",
							"name": "UserRole",
							"type": "uint8"
						},
						{
							"internalType": "enum Utils.Statuses",
							"name": "UserStatus",
							"type": "uint8"
						},
						{
							"internalType": "uint256",
							"name": "Latitude",
							"type": "uint256"
						},
						{
							"internalType": "uint256",
							"name": "Longitude",
							"type": "uint256"
						},
						{
							"internalType": "address",
							"name": "UserAddress",
							"type": "address"
						}
					],
					"internalType": "struct Utils.User[]",
					"name": "filteredUsers",
					"type": "tuple[]"
				}
			],
			"stateMutability": "view",
			"type": "function"
		},
		{
			"inputs": [
				{
					"internalType": "uint256",
					"name": "",
					"type": "uint256"
				}
			],
			"name": "PatchTrannsactions",
			"outputs": [
				{
					"internalType": "string",
					"name": "DrugRegNo",
					"type": "string"
				},
				{
					"internalType": "string",
					"name": "PatchNo",
					"type": "string"
				},
				{
					"internalType": "uint256",
					"name": "LineNo",
					"type": "uint256"
				},
				{
					"internalType": "address",
					"name": "FromID",
					"type": "address"
				},
				{
					"internalType": "address",
					"name": "ToID",
					"type": "address"
				},
				{
					"internalType": "uint256",
					"name": "Amount",
					"type": "uint256"
				},
				{
					"internalType": "uint256",
					"name": "TransactionDate",
					"type": "uint256"
				}
			],
			"stateMutability": "view",
			"type": "function"
		},
		{
			"inputs": [
				{
					"internalType": "string",
					"name": "_regno",
					"type": "string"
				}
			],
			"name": "ReadDrug",
			"outputs": [
				{
					"components": [
						{
							"internalType": "string",
							"name": "DrugName",
							"type": "string"
						},
						{
							"internalType": "address",
							"name": "Manufacturer",
							"type": "address"
						},
						{
							"internalType": "enum Utils.Statuses",
							"name": "DrugStatus",
							"type": "uint8"
						}
					],
					"internalType": "struct Utils.Drug",
					"name": "",
					"type": "tuple"
				}
			],
			"stateMutability": "view",
			"type": "function"
		},
		{
			"inputs": [
				{
					"internalType": "string",
					"name": "_patchno",
					"type": "string"
				},
				{
					"internalType": "string",
					"name": "_drugno",
					"type": "string"
				},
				{
					"internalType": "address",
					"name": "_fromaddress",
					"type": "address"
				}
			],
			"name": "ReadParentAndSiblingsTransactions",
			"outputs": [
				{
					"components": [
						{
							"internalType": "string",
							"name": "DrugRegNo",
							"type": "string"
						},
						{
							"internalType": "string",
							"name": "PatchNo",
							"type": "string"
						},
						{
							"internalType": "uint256",
							"name": "LineNo",
							"type": "uint256"
						},
						{
							"internalType": "address",
							"name": "FromID",
							"type": "address"
						},
						{
							"internalType": "address",
							"name": "ToID",
							"type": "address"
						},
						{
							"internalType": "uint256",
							"name": "Amount",
							"type": "uint256"
						},
						{
							"internalType": "uint256",
							"name": "TransactionDate",
							"type": "uint256"
						}
					],
					"internalType": "struct PatchsTransactions.PatchTransaction[]",
					"name": "UserTransaction",
					"type": "tuple[]"
				}
			],
			"stateMutability": "view",
			"type": "function"
		},
		{
			"inputs": [
				{
					"internalType": "string",
					"name": "_drugno",
					"type": "string"
				}
			],
			"name": "ReadTransactionsByDrug",
			"outputs": [
				{
					"components": [
						{
							"internalType": "string",
							"name": "DrugRegNo",
							"type": "string"
						},
						{
							"internalType": "string",
							"name": "PatchNo",
							"type": "string"
						},
						{
							"internalType": "uint256",
							"name": "LineNo",
							"type": "uint256"
						},
						{
							"internalType": "address",
							"name": "FromID",
							"type": "address"
						},
						{
							"internalType": "address",
							"name": "ToID",
							"type": "address"
						},
						{
							"internalType": "uint256",
							"name": "Amount",
							"type": "uint256"
						},
						{
							"internalType": "uint256",
							"name": "TransactionDate",
							"type": "uint256"
						}
					],
					"internalType": "struct PatchsTransactions.PatchTransaction[]",
					"name": "UserTransaction",
					"type": "tuple[]"
				}
			],
			"stateMutability": "view",
			"type": "function"
		},
		{
			"inputs": [
				{
					"internalType": "string",
					"name": "_patchno",
					"type": "string"
				},
				{
					"internalType": "string",
					"name": "_drugno",
					"type": "string"
				}
			],
			"name": "ReadTransactionsByPatchNo",
			"outputs": [
				{
					"components": [
						{
							"internalType": "string",
							"name": "DrugRegNo",
							"type": "string"
						},
						{
							"internalType": "string",
							"name": "PatchNo",
							"type": "string"
						},
						{
							"internalType": "uint256",
							"name": "LineNo",
							"type": "uint256"
						},
						{
							"internalType": "address",
							"name": "FromID",
							"type": "address"
						},
						{
							"internalType": "address",
							"name": "ToID",
							"type": "address"
						},
						{
							"internalType": "uint256",
							"name": "Amount",
							"type": "uint256"
						},
						{
							"internalType": "uint256",
							"name": "TransactionDate",
							"type": "uint256"
						}
					],
					"internalType": "struct PatchsTransactions.PatchTransaction[]",
					"name": "UserTransaction",
					"type": "tuple[]"
				}
			],
			"stateMutability": "view",
			"type": "function"
		},
		{
			"inputs": [
				{
					"internalType": "address",
					"name": "_useraddress",
					"type": "address"
				}
			],
			"name": "ReadTransactionsByUser",
			"outputs": [
				{
					"components": [
						{
							"internalType": "string",
							"name": "DrugRegNo",
							"type": "string"
						},
						{
							"internalType": "string",
							"name": "PatchNo",
							"type": "string"
						},
						{
							"internalType": "uint256",
							"name": "LineNo",
							"type": "uint256"
						},
						{
							"internalType": "address",
							"name": "FromID",
							"type": "address"
						},
						{
							"internalType": "address",
							"name": "ToID",
							"type": "address"
						},
						{
							"internalType": "uint256",
							"name": "Amount",
							"type": "uint256"
						},
						{
							"internalType": "uint256",
							"name": "TransactionDate",
							"type": "uint256"
						}
					],
					"internalType": "struct PatchsTransactions.PatchTransaction[]",
					"name": "UserTransaction",
					"type": "tuple[]"
				}
			],
			"stateMutability": "view",
			"type": "function"
		},
		{
			"inputs": [
				{
					"internalType": "address",
					"name": "_address",
					"type": "address"
				}
			],
			"name": "ReadUser",
			"outputs": [
				{
					"components": [
						{
							"internalType": "string",
							"name": "UserID",
							"type": "string"
						},
						{
							"internalType": "string",
							"name": "UserName",
							"type": "string"
						},
						{
							"internalType": "enum Utils.UserRoles",
							"name": "UserRole",
							"type": "uint8"
						},
						{
							"internalType": "enum Utils.Statuses",
							"name": "UserStatus",
							"type": "uint8"
						},
						{
							"internalType": "uint256",
							"name": "Latitude",
							"type": "uint256"
						},
						{
							"internalType": "uint256",
							"name": "Longitude",
							"type": "uint256"
						},
						{
							"internalType": "address",
							"name": "UserAddress",
							"type": "address"
						}
					],
					"internalType": "struct Utils.User",
					"name": "",
					"type": "tuple"
				}
			],
			"stateMutability": "view",
			"type": "function"
		},
		{
			"inputs": [
				{
					"internalType": "string",
					"name": "_patchno",
					"type": "string"
				},
				{
					"internalType": "string",
					"name": "_drugno",
					"type": "string"
				},
				{
					"internalType": "address",
					"name": "_fromaddress",
					"type": "address"
				}
			],
			"name": "ReturnRemainingAmount",
			"outputs": [
				{
					"internalType": "uint256",
					"name": "_remainamount",
					"type": "uint256"
				}
			],
			"stateMutability": "view",
			"type": "function"
		},
		{
			"inputs": [
				{
					"internalType": "string",
					"name": "s1",
					"type": "string"
				},
				{
					"internalType": "string",
					"name": "s2",
					"type": "string"
				}
			],
			"name": "compareStringsbyBytes",
			"outputs": [
				{
					"internalType": "bool",
					"name": "",
					"type": "bool"
				}
			],
			"stateMutability": "pure",
			"type": "function"
		}
	]
}