{
	"data": {
		"bytecode": {
			"linkReferences": {},
			"object": "60806040526040518060400160405280600b81526020017f4d6e756661637475726572000000000000000000000000000000000000000000815250600490805190602001906200005192919062000066565b503480156200005f57600080fd5b506200017b565b828054620000749062000116565b90600052602060002090601f016020900481019282620000985760008555620000e4565b82601f10620000b357805160ff1916838001178555620000e4565b82800160010185558215620000e4579182015b82811115620000e3578251825591602001919060010190620000c6565b5b509050620000f39190620000f7565b5090565b5b8082111562000112576000816000905550600101620000f8565b5090565b600060028204905060018216806200012f57607f821691505b602082108114156200014657620001456200014c565b5b50919050565b7f4e487b7100000000000000000000000000000000000000000000000000000000600052602260045260246000fd5b6119a5806200018b6000396000f3fe608060405234801561001057600080fd5b50600436106100885760003560e01c80635cbfc0da1161005b5780635cbfc0da1461012557806371417e1614610155578063a0bb3ff414610185578063f03312ac146101b557610088565b80630f9de9771461008d5780631642000b146100bd578063596f5a4b146100d95780635a615fd914610109575b600080fd5b6100a760048036038101906100a29190610f8f565b6101e5565b6040516100b491906114cf565b60405180910390f35b6100d760048036038101906100d29190610f3c565b610508565b005b6100f360048036038101906100ee9190611122565b6105f1565b604051610100919061152e565b60405180910390f35b610123600480360381019061011e9190610ee0565b610770565b005b61013f600480360381019061013a919061114f565b610839565b60405161014c91906114f1565b60405180910390f35b61016f600480360381019061016a9190610fbc565b610873565b60405161017c91906114f1565b60405180910390f35b61019f600480360381019061019a9190610eb3565b6109d2565b6040516101ac91906114ad565b60405180910390f35b6101cf60048036038101906101ca9190611053565b610b1d565b6040516101dc919061150c565b60405180910390f35b60606000805467ffffffffffffffff811115610204576102036118b2565b5b60405190808252806020026020018201604052801561023d57816020015b61022a610cec565b8152602001906001900390816102225790505b509050600080600090505b6000548110156104525784600681111561026557610264611825565b5b6001600083815260200190815260200160002060010160009054906101000a900460ff16600681111561029b5761029a611825565b5b141561043f57600160008281526020019081526020016000206040518060c00160405290816000820180546102cf9061174a565b80601f01602080910402602001604051908101604052809291908181526020018280546102fb9061174a565b80156103485780601f1061031d57610100808354040283529160200191610348565b820191906000526020600020905b81548152906001019060200180831161032b57829003601f168201915b505050505081526020016001820160009054906101000a900460ff16600681111561037657610375611825565b5b600681111561038857610387611825565b5b81526020016001820160019054906101000a900460ff1615151515815260200160028201548152602001600382015481526020016004820160009054906101000a900473ffffffffffffffffffffffffffffffffffffffff1673ffffffffffffffffffffffffffffffffffffffff1673ffffffffffffffffffffffffffffffffffffffff168152505083838151811061042457610423611883565b5b602002602001018190525060018261043c9190611645565b91505b808061044a906117ad565b915050610248565b508067ffffffffffffffff81111561046d5761046c6118b2565b5b6040519080825280602002602001820160405280156104a657816020015b610493610cec565b81526020019060019003908161048b5790505b50925060005b81811015610500578281815181106104c7576104c6611883565b5b60200260200101518482815181106104e2576104e1611883565b5b602002602001018190525080806104f8906117ad565b9150506104ac565b505050919050565b60005b600260008573ffffffffffffffffffffffffffffffffffffffff1673ffffffffffffffffffffffffffffffffffffffff168152602001908152602001600020805490508110156105eb57828114156105d85781600260008673ffffffffffffffffffffffffffffffffffffffff1673ffffffffffffffffffffffffffffffffffffffff16815260200190815260200160002082815481106105af576105ae611883565b5b906000526020600020906002020160010160006101000a81548160ff0219169083151502179055505b80806105e3906117ad565b91505061050b565b50505050565b6105f9610cec565b600160008381526020019081526020016000206040518060c00160405290816000820180546106279061174a565b80601f01602080910402602001604051908101604052809291908181526020018280546106539061174a565b80156106a05780601f10610675576101008083540402835291602001916106a0565b820191906000526020600020905b81548152906001019060200180831161068357829003601f168201915b505050505081526020016001820160009054906101000a900460ff1660068111156106ce576106cd611825565b5b60068111156106e0576106df611825565b5b81526020016001820160019054906101000a900460ff1615151515815260200160028201548152602001600382015481526020016004820160009054906101000a900473ffffffffffffffffffffffffffffffffffffffff1673ffffffffffffffffffffffffffffffffffffffff1673ffffffffffffffffffffffffffffffffffffffff16815250509050919050565b60006040518060400160405280838152602001600115158152509050600260008473ffffffffffffffffffffffffffffffffffffffff1673ffffffffffffffffffffffffffffffffffffffff1681526020019081526020016000208190806001815401808255809150506001900390600052602060002090600202016000909190919091506000820151816000019080519060200190610811929190610d4c565b5060208201518160010160006101000a81548160ff0219169083151502179055505050505050565b6000816001600085815260200190815260200160002060010160016101000a81548160ff0219169083151502179055506001905092915050565b60006040518060c0016040528087815260200186600681111561089957610898611825565b5b81526020016001151581526020018581526020018481526020018373ffffffffffffffffffffffffffffffffffffffff16815250600160008054815260200190815260200160002060008201518160000190805190602001906108fd929190610d4c565b5060208201518160010160006101000a81548160ff0219169083600681111561092957610928611825565b5b021790555060408201518160010160016101000a81548160ff021916908315150217905550606082015181600201556080820151816003015560a08201518160040160006101000a81548173ffffffffffffffffffffffffffffffffffffffff021916908373ffffffffffffffffffffffffffffffffffffffff16021790555090505060016000808282546109be9190611645565b925050819055506001905095945050505050565b6060600260008373ffffffffffffffffffffffffffffffffffffffff1673ffffffffffffffffffffffffffffffffffffffff168152602001908152602001600020805480602002602001604051908101604052809291908181526020016000905b82821015610b125783829060005260206000209060020201604051806040016040529081600082018054610a669061174a565b80601f0160208091040260200160405190810160405280929190818152602001828054610a929061174a565b8015610adf5780601f10610ab457610100808354040283529160200191610adf565b820191906000526020600020905b815481529060010190602001808311610ac257829003601f168201915b505050505081526020016001820160009054906101000a900460ff16151515158152505081526020019060010190610a33565b505050509050919050565b606060006040518060e00160405280888152602001600181526020018781526020013373ffffffffffffffffffffffffffffffffffffffff1681526020018673ffffffffffffffffffffffffffffffffffffffff16815260200185815260200184815250905060038190806001815401808255809150506001900390600052602060002090600702016000909190919091506000820151816000019080519060200190610bcb929190610d4c565b50602082015181600101556040820151816002019080519060200190610bf2929190610d4c565b5060608201518160030160006101000a81548173ffffffffffffffffffffffffffffffffffffffff021916908373ffffffffffffffffffffffffffffffffffffffff16021790555060808201518160040160006101000a81548173ffffffffffffffffffffffffffffffffffffffff021916908373ffffffffffffffffffffffffffffffffffffffff16021790555060a0820151816005015560c0820151816006019080519060200190610ca7929190610d4c565b5050506040518060400160405280600d81526020017f506174636820637265617465640000000000000000000000000000000000000081525091505095945050505050565b6040518060c001604052806060815260200160006006811115610d1257610d11611825565b5b81526020016000151581526020016000815260200160008152602001600073ffffffffffffffffffffffffffffffffffffffff1681525090565b828054610d589061174a565b90600052602060002090601f016020900481019282610d7a5760008555610dc1565b82601f10610d9357805160ff1916838001178555610dc1565b82800160010185558215610dc1579182015b82811115610dc0578251825591602001919060010190610da5565b5b509050610dce9190610dd2565b5090565b5b80821115610deb576000816000905550600101610dd3565b5090565b6000610e02610dfd84611575565b611550565b905082815260208101848484011115610e1e57610e1d6118e6565b5b610e29848285611708565b509392505050565b600081359050610e408161191a565b92915050565b600081359050610e5581611931565b92915050565b600081359050610e6a81611948565b92915050565b600082601f830112610e8557610e846118e1565b5b8135610e95848260208601610def565b91505092915050565b600081359050610ead81611958565b92915050565b600060208284031215610ec957610ec86118f0565b5b6000610ed784828501610e31565b91505092915050565b60008060408385031215610ef757610ef66118f0565b5b6000610f0585828601610e31565b925050602083013567ffffffffffffffff811115610f2657610f256118eb565b5b610f3285828601610e70565b9150509250929050565b600080600060608486031215610f5557610f546118f0565b5b6000610f6386828701610e31565b9350506020610f7486828701610e9e565b9250506040610f8586828701610e46565b9150509250925092565b600060208284031215610fa557610fa46118f0565b5b6000610fb384828501610e5b565b91505092915050565b600080600080600060a08688031215610fd857610fd76118f0565b5b600086013567ffffffffffffffff811115610ff657610ff56118eb565b5b61100288828901610e70565b955050602061101388828901610e5b565b945050604061102488828901610e9e565b935050606061103588828901610e9e565b925050608061104688828901610e31565b9150509295509295909350565b600080600080600060a0868803121561106f5761106e6118f0565b5b600086013567ffffffffffffffff81111561108d5761108c6118eb565b5b61109988828901610e70565b955050602086013567ffffffffffffffff8111156110ba576110b96118eb565b5b6110c688828901610e70565b94505060406110d788828901610e31565b93505060606110e888828901610e9e565b925050608086013567ffffffffffffffff811115611109576111086118eb565b5b61111588828901610e70565b9150509295509295909350565b600060208284031215611138576111376118f0565b5b600061114684828501610e9e565b91505092915050565b60008060408385031215611166576111656118f0565b5b600061117485828601610e9e565b925050602061118585828601610e46565b9150509250929050565b600061119b838361134f565b905092915050565b60006111af838361138c565b905092915050565b6111c08161169b565b82525050565b60006111d1826115c6565b6111db8185611601565b9350836020820285016111ed856115a6565b8060005b85811015611229578484038952815161120a858261118f565b9450611215836115e7565b925060208a019950506001810190506111f1565b50829750879550505050505092915050565b6000611246826115d1565b6112508185611612565b935083602082028501611262856115b6565b8060005b8581101561129e578484038952815161127f85826111a3565b945061128a836115f4565b925060208a01995050600181019050611266565b50829750879550505050505092915050565b6112b9816116ad565b82525050565b6112c8816116ad565b82525050565b6112d7816116f6565b82525050565b60006112e8826115dc565b6112f28185611623565b9350611302818560208601611717565b61130b816118f5565b840191505092915050565b6000611321826115dc565b61132b8185611634565b935061133b818560208601611717565b611344816118f5565b840191505092915050565b6000604083016000830151848203600086015261136c82826112dd565b915050602083015161138160208601826112b0565b508091505092915050565b600060c08301600083015184820360008601526113a982826112dd565b91505060208301516113be60208601826112ce565b5060408301516113d160408601826112b0565b5060608301516113e4606086018261149e565b5060808301516113f7608086018261149e565b5060a083015161140a60a08601826111b7565b508091505092915050565b600060c083016000830151848203600086015261143282826112dd565b915050602083015161144760208601826112ce565b50604083015161145a60408601826112b0565b50606083015161146d606086018261149e565b506080830151611480608086018261149e565b5060a083015161149360a08601826111b7565b508091505092915050565b6114a7816116ec565b82525050565b600060208201905081810360008301526114c781846111c6565b905092915050565b600060208201905081810360008301526114e9818461123b565b905092915050565b600060208201905061150660008301846112bf565b92915050565b600060208201905081810360008301526115268184611316565b905092915050565b600060208201905081810360008301526115488184611415565b905092915050565b600061155a61156b565b9050611566828261177c565b919050565b6000604051905090565b600067ffffffffffffffff8211156115905761158f6118b2565b5b611599826118f5565b9050602081019050919050565b6000819050602082019050919050565b6000819050602082019050919050565b600081519050919050565b600081519050919050565b600081519050919050565b6000602082019050919050565b6000602082019050919050565b600082825260208201905092915050565b600082825260208201905092915050565b600082825260208201905092915050565b600082825260208201905092915050565b6000611650826116ec565b915061165b836116ec565b9250827fffffffffffffffffffffffffffffffffffffffffffffffffffffffffffffffff038211156116905761168f6117f6565b5b828201905092915050565b60006116a6826116cc565b9050919050565b60008115159050919050565b60008190506116c782611906565b919050565b600073ffffffffffffffffffffffffffffffffffffffff82169050919050565b6000819050919050565b6000611701826116b9565b9050919050565b82818337600083830152505050565b60005b8381101561173557808201518184015260208101905061171a565b83811115611744576000848401525b50505050565b6000600282049050600182168061176257607f821691505b6020821081141561177657611775611854565b5b50919050565b611785826118f5565b810181811067ffffffffffffffff821117156117a4576117a36118b2565b5b80604052505050565b60006117b8826116ec565b91507fffffffffffffffffffffffffffffffffffffffffffffffffffffffffffffffff8214156117eb576117ea6117f6565b5b600182019050919050565b7f4e487b7100000000000000000000000000000000000000000000000000000000600052601160045260246000fd5b7f4e487b7100000000000000000000000000000000000000000000000000000000600052602160045260246000fd5b7f4e487b7100000000000000000000000000000000000000000000000000000000600052602260045260246000fd5b7f4e487b7100000000000000000000000000000000000000000000000000000000600052603260045260246000fd5b7f4e487b7100000000000000000000000000000000000000000000000000000000600052604160045260246000fd5b600080fd5b600080fd5b600080fd5b600080fd5b6000601f19601f8301169050919050565b6007811061191757611916611825565b5b50565b6119238161169b565b811461192e57600080fd5b50565b61193a816116ad565b811461194557600080fd5b50565b6007811061195557600080fd5b50565b611961816116ec565b811461196c57600080fd5b5056fea264697066735822122001256a96d2e619bc67255e68a41316198a901c8dc49af2da1aa31a0d9f92edf164736f6c63430008070033",
			"opcodes": "PUSH1 0x80 PUSH1 0x40 MSTORE PUSH1 0x40 MLOAD DUP1 PUSH1 0x40 ADD PUSH1 0x40 MSTORE DUP1 PUSH1 0xB DUP2 MSTORE PUSH1 0x20 ADD PUSH32 0x4D6E756661637475726572000000000000000000000000000000000000000000 DUP2 MSTORE POP PUSH1 0x4 SWAP1 DUP1 MLOAD SWAP1 PUSH1 0x20 ADD SWAP1 PUSH3 0x51 SWAP3 SWAP2 SWAP1 PUSH3 0x66 JUMP JUMPDEST POP CALLVALUE DUP1 ISZERO PUSH3 0x5F JUMPI PUSH1 0x0 DUP1 REVERT JUMPDEST POP PUSH3 0x17B JUMP JUMPDEST DUP3 DUP1 SLOAD PUSH3 0x74 SWAP1 PUSH3 0x116 JUMP JUMPDEST SWAP1 PUSH1 0x0 MSTORE PUSH1 0x20 PUSH1 0x0 KECCAK256 SWAP1 PUSH1 0x1F ADD PUSH1 0x20 SWAP1 DIV DUP2 ADD SWAP3 DUP3 PUSH3 0x98 JUMPI PUSH1 0x0 DUP6 SSTORE PUSH3 0xE4 JUMP JUMPDEST DUP3 PUSH1 0x1F LT PUSH3 0xB3 JUMPI DUP1 MLOAD PUSH1 0xFF NOT AND DUP4 DUP1 ADD OR DUP6 SSTORE PUSH3 0xE4 JUMP JUMPDEST DUP3 DUP1 ADD PUSH1 0x1 ADD DUP6 SSTORE DUP3 ISZERO PUSH3 0xE4 JUMPI SWAP2 DUP3 ADD JUMPDEST DUP3 DUP2 GT ISZERO PUSH3 0xE3 JUMPI DUP3 MLOAD DUP3 SSTORE SWAP2 PUSH1 0x20 ADD SWAP2 SWAP1 PUSH1 0x1 ADD SWAP1 PUSH3 0xC6 JUMP JUMPDEST JUMPDEST POP SWAP1 POP PUSH3 0xF3 SWAP2 SWAP1 PUSH3 0xF7 JUMP JUMPDEST POP SWAP1 JUMP JUMPDEST JUMPDEST DUP1 DUP3 GT ISZERO PUSH3 0x112 JUMPI PUSH1 0x0 DUP2 PUSH1 0x0 SWAP1 SSTORE POP PUSH1 0x1 ADD PUSH3 0xF8 JUMP JUMPDEST POP SWAP1 JUMP JUMPDEST PUSH1 0x0 PUSH1 0x2 DUP3 DIV SWAP1 POP PUSH1 0x1 DUP3 AND DUP1 PUSH3 0x12F JUMPI PUSH1 0x7F DUP3 AND SWAP2 POP JUMPDEST PUSH1 0x20 DUP3 LT DUP2 EQ ISZERO PUSH3 0x146 JUMPI PUSH3 0x145 PUSH3 0x14C JUMP JUMPDEST JUMPDEST POP SWAP2 SWAP1 POP JUMP JUMPDEST PUSH32 0x4E487B7100000000000000000000000000000000000000000000000000000000 PUSH1 0x0 MSTORE PUSH1 0x22 PUSH1 0x4 MSTORE PUSH1 0x24 PUSH1 0x0 REVERT JUMPDEST PUSH2 0x19A5 DUP1 PUSH3 0x18B PUSH1 0x0 CODECOPY PUSH1 0x0 RETURN INVALID PUSH1 0x80 PUSH1 0x40 MSTORE CALLVALUE DUP1 ISZERO PUSH2 0x10 JUMPI PUSH1 0x0 DUP1 REVERT JUMPDEST POP PUSH1 0x4 CALLDATASIZE LT PUSH2 0x88 JUMPI PUSH1 0x0 CALLDATALOAD PUSH1 0xE0 SHR DUP1 PUSH4 0x5CBFC0DA GT PUSH2 0x5B JUMPI DUP1 PUSH4 0x5CBFC0DA EQ PUSH2 0x125 JUMPI DUP1 PUSH4 0x71417E16 EQ PUSH2 0x155 JUMPI DUP1 PUSH4 0xA0BB3FF4 EQ PUSH2 0x185 JUMPI DUP1 PUSH4 0xF03312AC EQ PUSH2 0x1B5 JUMPI PUSH2 0x88 JUMP JUMPDEST DUP1 PUSH4 0xF9DE977 EQ PUSH2 0x8D JUMPI DUP1 PUSH4 0x1642000B EQ PUSH2 0xBD JUMPI DUP1 PUSH4 0x596F5A4B EQ PUSH2 0xD9 JUMPI DUP1 PUSH4 0x5A615FD9 EQ PUSH2 0x109 JUMPI JUMPDEST PUSH1 0x0 DUP1 REVERT JUMPDEST PUSH2 0xA7 PUSH1 0x4 DUP1 CALLDATASIZE SUB DUP2 ADD SWAP1 PUSH2 0xA2 SWAP2 SWAP1 PUSH2 0xF8F JUMP JUMPDEST PUSH2 0x1E5 JUMP JUMPDEST PUSH1 0x40 MLOAD PUSH2 0xB4 SWAP2 SWAP1 PUSH2 0x14CF JUMP JUMPDEST PUSH1 0x40 MLOAD DUP1 SWAP2 SUB SWAP1 RETURN JUMPDEST PUSH2 0xD7 PUSH1 0x4 DUP1 CALLDATASIZE SUB DUP2 ADD SWAP1 PUSH2 0xD2 SWAP2 SWAP1 PUSH2 0xF3C JUMP JUMPDEST PUSH2 0x508 JUMP JUMPDEST STOP JUMPDEST PUSH2 0xF3 PUSH1 0x4 DUP1 CALLDATASIZE SUB DUP2 ADD SWAP1 PUSH2 0xEE SWAP2 SWAP1 PUSH2 0x1122 JUMP JUMPDEST PUSH2 0x5F1 JUMP JUMPDEST PUSH1 0x40 MLOAD PUSH2 0x100 SWAP2 SWAP1 PUSH2 0x152E JUMP JUMPDEST PUSH1 0x40 MLOAD DUP1 SWAP2 SUB SWAP1 RETURN JUMPDEST PUSH2 0x123 PUSH1 0x4 DUP1 CALLDATASIZE SUB DUP2 ADD SWAP1 PUSH2 0x11E SWAP2 SWAP1 PUSH2 0xEE0 JUMP JUMPDEST PUSH2 0x770 JUMP JUMPDEST STOP JUMPDEST PUSH2 0x13F PUSH1 0x4 DUP1 CALLDATASIZE SUB DUP2 ADD SWAP1 PUSH2 0x13A SWAP2 SWAP1 PUSH2 0x114F JUMP JUMPDEST PUSH2 0x839 JUMP JUMPDEST PUSH1 0x40 MLOAD PUSH2 0x14C SWAP2 SWAP1 PUSH2 0x14F1 JUMP JUMPDEST PUSH1 0x40 MLOAD DUP1 SWAP2 SUB SWAP1 RETURN JUMPDEST PUSH2 0x16F PUSH1 0x4 DUP1 CALLDATASIZE SUB DUP2 ADD SWAP1 PUSH2 0x16A SWAP2 SWAP1 PUSH2 0xFBC JUMP JUMPDEST PUSH2 0x873 JUMP JUMPDEST PUSH1 0x40 MLOAD PUSH2 0x17C SWAP2 SWAP1 PUSH2 0x14F1 JUMP JUMPDEST PUSH1 0x40 MLOAD DUP1 SWAP2 SUB SWAP1 RETURN JUMPDEST PUSH2 0x19F PUSH1 0x4 DUP1 CALLDATASIZE SUB DUP2 ADD SWAP1 PUSH2 0x19A SWAP2 SWAP1 PUSH2 0xEB3 JUMP JUMPDEST PUSH2 0x9D2 JUMP JUMPDEST PUSH1 0x40 MLOAD PUSH2 0x1AC SWAP2 SWAP1 PUSH2 0x14AD JUMP JUMPDEST PUSH1 0x40 MLOAD DUP1 SWAP2 SUB SWAP1 RETURN JUMPDEST PUSH2 0x1CF PUSH1 0x4 DUP1 CALLDATASIZE SUB DUP2 ADD SWAP1 PUSH2 0x1CA SWAP2 SWAP1 PUSH2 0x1053 JUMP JUMPDEST PUSH2 0xB1D JUMP JUMPDEST PUSH1 0x40 MLOAD PUSH2 0x1DC SWAP2 SWAP1 PUSH2 0x150C JUMP JUMPDEST PUSH1 0x40 MLOAD DUP1 SWAP2 SUB SWAP1 RETURN JUMPDEST PUSH1 0x60 PUSH1 0x0 DUP1 SLOAD PUSH8 0xFFFFFFFFFFFFFFFF DUP2 GT ISZERO PUSH2 0x204 JUMPI PUSH2 0x203 PUSH2 0x18B2 JUMP JUMPDEST JUMPDEST PUSH1 0x40 MLOAD SWAP1 DUP1 DUP3 MSTORE DUP1 PUSH1 0x20 MUL PUSH1 0x20 ADD DUP3 ADD PUSH1 0x40 MSTORE DUP1 ISZERO PUSH2 0x23D JUMPI DUP2 PUSH1 0x20 ADD JUMPDEST PUSH2 0x22A PUSH2 0xCEC JUMP JUMPDEST DUP2 MSTORE PUSH1 0x20 ADD SWAP1 PUSH1 0x1 SWAP1 SUB SWAP1 DUP2 PUSH2 0x222 JUMPI SWAP1 POP JUMPDEST POP SWAP1 POP PUSH1 0x0 DUP1 PUSH1 0x0 SWAP1 POP JUMPDEST PUSH1 0x0 SLOAD DUP2 LT ISZERO PUSH2 0x452 JUMPI DUP5 PUSH1 0x6 DUP2 GT ISZERO PUSH2 0x265 JUMPI PUSH2 0x264 PUSH2 0x1825 JUMP JUMPDEST JUMPDEST PUSH1 0x1 PUSH1 0x0 DUP4 DUP2 MSTORE PUSH1 0x20 ADD SWAP1 DUP2 MSTORE PUSH1 0x20 ADD PUSH1 0x0 KECCAK256 PUSH1 0x1 ADD PUSH1 0x0 SWAP1 SLOAD SWAP1 PUSH2 0x100 EXP SWAP1 DIV PUSH1 0xFF AND PUSH1 0x6 DUP2 GT ISZERO PUSH2 0x29B JUMPI PUSH2 0x29A PUSH2 0x1825 JUMP JUMPDEST JUMPDEST EQ ISZERO PUSH2 0x43F JUMPI PUSH1 0x1 PUSH1 0x0 DUP3 DUP2 MSTORE PUSH1 0x20 ADD SWAP1 DUP2 MSTORE PUSH1 0x20 ADD PUSH1 0x0 KECCAK256 PUSH1 0x40 MLOAD DUP1 PUSH1 0xC0 ADD PUSH1 0x40 MSTORE SWAP1 DUP2 PUSH1 0x0 DUP3 ADD DUP1 SLOAD PUSH2 0x2CF SWAP1 PUSH2 0x174A JUMP JUMPDEST DUP1 PUSH1 0x1F ADD PUSH1 0x20 DUP1 SWAP2 DIV MUL PUSH1 0x20 ADD PUSH1 0x40 MLOAD SWAP1 DUP2 ADD PUSH1 0x40 MSTORE DUP1 SWAP3 SWAP2 SWAP1 DUP2 DUP2 MSTORE PUSH1 0x20 ADD DUP3 DUP1 SLOAD PUSH2 0x2FB SWAP1 PUSH2 0x174A JUMP JUMPDEST DUP1 ISZERO PUSH2 0x348 JUMPI DUP1 PUSH1 0x1F LT PUSH2 0x31D JUMPI PUSH2 0x100 DUP1 DUP4 SLOAD DIV MUL DUP4 MSTORE SWAP2 PUSH1 0x20 ADD SWAP2 PUSH2 0x348 JUMP JUMPDEST DUP3 ADD SWAP2 SWAP1 PUSH1 0x0 MSTORE PUSH1 0x20 PUSH1 0x0 KECCAK256 SWAP1 JUMPDEST DUP2 SLOAD DUP2 MSTORE SWAP1 PUSH1 0x1 ADD SWAP1 PUSH1 0x20 ADD DUP1 DUP4 GT PUSH2 0x32B JUMPI DUP3 SWAP1 SUB PUSH1 0x1F AND DUP3 ADD SWAP2 JUMPDEST POP POP POP POP POP DUP2 MSTORE PUSH1 0x20 ADD PUSH1 0x1 DUP3 ADD PUSH1 0x0 SWAP1 SLOAD SWAP1 PUSH2 0x100 EXP SWAP1 DIV PUSH1 0xFF AND PUSH1 0x6 DUP2 GT ISZERO PUSH2 0x376 JUMPI PUSH2 0x375 PUSH2 0x1825 JUMP JUMPDEST JUMPDEST PUSH1 0x6 DUP2 GT ISZERO PUSH2 0x388 JUMPI PUSH2 0x387 PUSH2 0x1825 JUMP JUMPDEST JUMPDEST DUP2 MSTORE PUSH1 0x20 ADD PUSH1 0x1 DUP3 ADD PUSH1 0x1 SWAP1 SLOAD SWAP1 PUSH2 0x100 EXP SWAP1 DIV PUSH1 0xFF AND ISZERO ISZERO ISZERO ISZERO DUP2 MSTORE PUSH1 0x20 ADD PUSH1 0x2 DUP3 ADD SLOAD DUP2 MSTORE PUSH1 0x20 ADD PUSH1 0x3 DUP3 ADD SLOAD DUP2 MSTORE PUSH1 0x20 ADD PUSH1 0x4 DUP3 ADD PUSH1 0x0 SWAP1 SLOAD SWAP1 PUSH2 0x100 EXP SWAP1 DIV PUSH20 0xFFFFFFFFFFFFFFFFFFFFFFFFFFFFFFFFFFFFFFFF AND PUSH20 0xFFFFFFFFFFFFFFFFFFFFFFFFFFFFFFFFFFFFFFFF AND PUSH20 0xFFFFFFFFFFFFFFFFFFFFFFFFFFFFFFFFFFFFFFFF AND DUP2 MSTORE POP POP DUP4 DUP4 DUP2 MLOAD DUP2 LT PUSH2 0x424 JUMPI PUSH2 0x423 PUSH2 0x1883 JUMP JUMPDEST JUMPDEST PUSH1 0x20 MUL PUSH1 0x20 ADD ADD DUP2 SWAP1 MSTORE POP PUSH1 0x1 DUP3 PUSH2 0x43C SWAP2 SWAP1 PUSH2 0x1645 JUMP JUMPDEST SWAP2 POP JUMPDEST DUP1 DUP1 PUSH2 0x44A SWAP1 PUSH2 0x17AD JUMP JUMPDEST SWAP2 POP POP PUSH2 0x248 JUMP JUMPDEST POP DUP1 PUSH8 0xFFFFFFFFFFFFFFFF DUP2 GT ISZERO PUSH2 0x46D JUMPI PUSH2 0x46C PUSH2 0x18B2 JUMP JUMPDEST JUMPDEST PUSH1 0x40 MLOAD SWAP1 DUP1 DUP3 MSTORE DUP1 PUSH1 0x20 MUL PUSH1 0x20 ADD DUP3 ADD PUSH1 0x40 MSTORE DUP1 ISZERO PUSH2 0x4A6 JUMPI DUP2 PUSH1 0x20 ADD JUMPDEST PUSH2 0x493 PUSH2 0xCEC JUMP JUMPDEST DUP2 MSTORE PUSH1 0x20 ADD SWAP1 PUSH1 0x1 SWAP1 SUB SWAP1 DUP2 PUSH2 0x48B JUMPI SWAP1 POP JUMPDEST POP SWAP3 POP PUSH1 0x0 JUMPDEST DUP2 DUP2 LT ISZERO PUSH2 0x500 JUMPI DUP3 DUP2 DUP2 MLOAD DUP2 LT PUSH2 0x4C7 JUMPI PUSH2 0x4C6 PUSH2 0x1883 JUMP JUMPDEST JUMPDEST PUSH1 0x20 MUL PUSH1 0x20 ADD ADD MLOAD DUP5 DUP3 DUP2 MLOAD DUP2 LT PUSH2 0x4E2 JUMPI PUSH2 0x4E1 PUSH2 0x1883 JUMP JUMPDEST JUMPDEST PUSH1 0x20 MUL PUSH1 0x20 ADD ADD DUP2 SWAP1 MSTORE POP DUP1 DUP1 PUSH2 0x4F8 SWAP1 PUSH2 0x17AD JUMP JUMPDEST SWAP2 POP POP PUSH2 0x4AC JUMP JUMPDEST POP POP POP SWAP2 SWAP1 POP JUMP JUMPDEST PUSH1 0x0 JUMPDEST PUSH1 0x2 PUSH1 0x0 DUP6 PUSH20 0xFFFFFFFFFFFFFFFFFFFFFFFFFFFFFFFFFFFFFFFF AND PUSH20 0xFFFFFFFFFFFFFFFFFFFFFFFFFFFFFFFFFFFFFFFF AND DUP2 MSTORE PUSH1 0x20 ADD SWAP1 DUP2 MSTORE PUSH1 0x20 ADD PUSH1 0x0 KECCAK256 DUP1 SLOAD SWAP1 POP DUP2 LT ISZERO PUSH2 0x5EB JUMPI DUP3 DUP2 EQ ISZERO PUSH2 0x5D8 JUMPI DUP2 PUSH1 0x2 PUSH1 0x0 DUP7 PUSH20 0xFFFFFFFFFFFFFFFFFFFFFFFFFFFFFFFFFFFFFFFF AND PUSH20 0xFFFFFFFFFFFFFFFFFFFFFFFFFFFFFFFFFFFFFFFF AND DUP2 MSTORE PUSH1 0x20 ADD SWAP1 DUP2 MSTORE PUSH1 0x20 ADD PUSH1 0x0 KECCAK256 DUP3 DUP2 SLOAD DUP2 LT PUSH2 0x5AF JUMPI PUSH2 0x5AE PUSH2 0x1883 JUMP JUMPDEST JUMPDEST SWAP1 PUSH1 0x0 MSTORE PUSH1 0x20 PUSH1 0x0 KECCAK256 SWAP1 PUSH1 0x2 MUL ADD PUSH1 0x1 ADD PUSH1 0x0 PUSH2 0x100 EXP DUP2 SLOAD DUP2 PUSH1 0xFF MUL NOT AND SWAP1 DUP4 ISZERO ISZERO MUL OR SWAP1 SSTORE POP JUMPDEST DUP1 DUP1 PUSH2 0x5E3 SWAP1 PUSH2 0x17AD JUMP JUMPDEST SWAP2 POP POP PUSH2 0x50B JUMP JUMPDEST POP POP POP POP JUMP JUMPDEST PUSH2 0x5F9 PUSH2 0xCEC JUMP JUMPDEST PUSH1 0x1 PUSH1 0x0 DUP4 DUP2 MSTORE PUSH1 0x20 ADD SWAP1 DUP2 MSTORE PUSH1 0x20 ADD PUSH1 0x0 KECCAK256 PUSH1 0x40 MLOAD DUP1 PUSH1 0xC0 ADD PUSH1 0x40 MSTORE SWAP1 DUP2 PUSH1 0x0 DUP3 ADD DUP1 SLOAD PUSH2 0x627 SWAP1 PUSH2 0x174A JUMP JUMPDEST DUP1 PUSH1 0x1F ADD PUSH1 0x20 DUP1 SWAP2 DIV MUL PUSH1 0x20 ADD PUSH1 0x40 MLOAD SWAP1 DUP2 ADD PUSH1 0x40 MSTORE DUP1 SWAP3 SWAP2 SWAP1 DUP2 DUP2 MSTORE PUSH1 0x20 ADD DUP3 DUP1 SLOAD PUSH2 0x653 SWAP1 PUSH2 0x174A JUMP JUMPDEST DUP1 ISZERO PUSH2 0x6A0 JUMPI DUP1 PUSH1 0x1F LT PUSH2 0x675 JUMPI PUSH2 0x100 DUP1 DUP4 SLOAD DIV MUL DUP4 MSTORE SWAP2 PUSH1 0x20 ADD SWAP2 PUSH2 0x6A0 JUMP JUMPDEST DUP3 ADD SWAP2 SWAP1 PUSH1 0x0 MSTORE PUSH1 0x20 PUSH1 0x0 KECCAK256 SWAP1 JUMPDEST DUP2 SLOAD DUP2 MSTORE SWAP1 PUSH1 0x1 ADD SWAP1 PUSH1 0x20 ADD DUP1 DUP4 GT PUSH2 0x683 JUMPI DUP3 SWAP1 SUB PUSH1 0x1F AND DUP3 ADD SWAP2 JUMPDEST POP POP POP POP POP DUP2 MSTORE PUSH1 0x20 ADD PUSH1 0x1 DUP3 ADD PUSH1 0x0 SWAP1 SLOAD SWAP1 PUSH2 0x100 EXP SWAP1 DIV PUSH1 0xFF AND PUSH1 0x6 DUP2 GT ISZERO PUSH2 0x6CE JUMPI PUSH2 0x6CD PUSH2 0x1825 JUMP JUMPDEST JUMPDEST PUSH1 0x6 DUP2 GT ISZERO PUSH2 0x6E0 JUMPI PUSH2 0x6DF PUSH2 0x1825 JUMP JUMPDEST JUMPDEST DUP2 MSTORE PUSH1 0x20 ADD PUSH1 0x1 DUP3 ADD PUSH1 0x1 SWAP1 SLOAD SWAP1 PUSH2 0x100 EXP SWAP1 DIV PUSH1 0xFF AND ISZERO ISZERO ISZERO ISZERO DUP2 MSTORE PUSH1 0x20 ADD PUSH1 0x2 DUP3 ADD SLOAD DUP2 MSTORE PUSH1 0x20 ADD PUSH1 0x3 DUP3 ADD SLOAD DUP2 MSTORE PUSH1 0x20 ADD PUSH1 0x4 DUP3 ADD PUSH1 0x0 SWAP1 SLOAD SWAP1 PUSH2 0x100 EXP SWAP1 DIV PUSH20 0xFFFFFFFFFFFFFFFFFFFFFFFFFFFFFFFFFFFFFFFF AND PUSH20 0xFFFFFFFFFFFFFFFFFFFFFFFFFFFFFFFFFFFFFFFF AND PUSH20 0xFFFFFFFFFFFFFFFFFFFFFFFFFFFFFFFFFFFFFFFF AND DUP2 MSTORE POP POP SWAP1 POP SWAP2 SWAP1 POP JUMP JUMPDEST PUSH1 0x0 PUSH1 0x40 MLOAD DUP1 PUSH1 0x40 ADD PUSH1 0x40 MSTORE DUP1 DUP4 DUP2 MSTORE PUSH1 0x20 ADD PUSH1 0x1 ISZERO ISZERO DUP2 MSTORE POP SWAP1 POP PUSH1 0x2 PUSH1 0x0 DUP5 PUSH20 0xFFFFFFFFFFFFFFFFFFFFFFFFFFFFFFFFFFFFFFFF AND PUSH20 0xFFFFFFFFFFFFFFFFFFFFFFFFFFFFFFFFFFFFFFFF AND DUP2 MSTORE PUSH1 0x20 ADD SWAP1 DUP2 MSTORE PUSH1 0x20 ADD PUSH1 0x0 KECCAK256 DUP2 SWAP1 DUP1 PUSH1 0x1 DUP2 SLOAD ADD DUP1 DUP3 SSTORE DUP1 SWAP2 POP POP PUSH1 0x1 SWAP1 SUB SWAP1 PUSH1 0x0 MSTORE PUSH1 0x20 PUSH1 0x0 KECCAK256 SWAP1 PUSH1 0x2 MUL ADD PUSH1 0x0 SWAP1 SWAP2 SWAP1 SWAP2 SWAP1 SWAP2 POP PUSH1 0x0 DUP3 ADD MLOAD DUP2 PUSH1 0x0 ADD SWAP1 DUP1 MLOAD SWAP1 PUSH1 0x20 ADD SWAP1 PUSH2 0x811 SWAP3 SWAP2 SWAP1 PUSH2 0xD4C JUMP JUMPDEST POP PUSH1 0x20 DUP3 ADD MLOAD DUP2 PUSH1 0x1 ADD PUSH1 0x0 PUSH2 0x100 EXP DUP2 SLOAD DUP2 PUSH1 0xFF MUL NOT AND SWAP1 DUP4 ISZERO ISZERO MUL OR SWAP1 SSTORE POP POP POP POP POP POP JUMP JUMPDEST PUSH1 0x0 DUP2 PUSH1 0x1 PUSH1 0x0 DUP6 DUP2 MSTORE PUSH1 0x20 ADD SWAP1 DUP2 MSTORE PUSH1 0x20 ADD PUSH1 0x0 KECCAK256 PUSH1 0x1 ADD PUSH1 0x1 PUSH2 0x100 EXP DUP2 SLOAD DUP2 PUSH1 0xFF MUL NOT AND SWAP1 DUP4 ISZERO ISZERO MUL OR SWAP1 SSTORE POP PUSH1 0x1 SWAP1 POP SWAP3 SWAP2 POP POP JUMP JUMPDEST PUSH1 0x0 PUSH1 0x40 MLOAD DUP1 PUSH1 0xC0 ADD PUSH1 0x40 MSTORE DUP1 DUP8 DUP2 MSTORE PUSH1 0x20 ADD DUP7 PUSH1 0x6 DUP2 GT ISZERO PUSH2 0x899 JUMPI PUSH2 0x898 PUSH2 0x1825 JUMP JUMPDEST JUMPDEST DUP2 MSTORE PUSH1 0x20 ADD PUSH1 0x1 ISZERO ISZERO DUP2 MSTORE PUSH1 0x20 ADD DUP6 DUP2 MSTORE PUSH1 0x20 ADD DUP5 DUP2 MSTORE PUSH1 0x20 ADD DUP4 PUSH20 0xFFFFFFFFFFFFFFFFFFFFFFFFFFFFFFFFFFFFFFFF AND DUP2 MSTORE POP PUSH1 0x1 PUSH1 0x0 DUP1 SLOAD DUP2 MSTORE PUSH1 0x20 ADD SWAP1 DUP2 MSTORE PUSH1 0x20 ADD PUSH1 0x0 KECCAK256 PUSH1 0x0 DUP3 ADD MLOAD DUP2 PUSH1 0x0 ADD SWAP1 DUP1 MLOAD SWAP1 PUSH1 0x20 ADD SWAP1 PUSH2 0x8FD SWAP3 SWAP2 SWAP1 PUSH2 0xD4C JUMP JUMPDEST POP PUSH1 0x20 DUP3 ADD MLOAD DUP2 PUSH1 0x1 ADD PUSH1 0x0 PUSH2 0x100 EXP DUP2 SLOAD DUP2 PUSH1 0xFF MUL NOT AND SWAP1 DUP4 PUSH1 0x6 DUP2 GT ISZERO PUSH2 0x929 JUMPI PUSH2 0x928 PUSH2 0x1825 JUMP JUMPDEST JUMPDEST MUL OR SWAP1 SSTORE POP PUSH1 0x40 DUP3 ADD MLOAD DUP2 PUSH1 0x1 ADD PUSH1 0x1 PUSH2 0x100 EXP DUP2 SLOAD DUP2 PUSH1 0xFF MUL NOT AND SWAP1 DUP4 ISZERO ISZERO MUL OR SWAP1 SSTORE POP PUSH1 0x60 DUP3 ADD MLOAD DUP2 PUSH1 0x2 ADD SSTORE PUSH1 0x80 DUP3 ADD MLOAD DUP2 PUSH1 0x3 ADD SSTORE PUSH1 0xA0 DUP3 ADD MLOAD DUP2 PUSH1 0x4 ADD PUSH1 0x0 PUSH2 0x100 EXP DUP2 SLOAD DUP2 PUSH20 0xFFFFFFFFFFFFFFFFFFFFFFFFFFFFFFFFFFFFFFFF MUL NOT AND SWAP1 DUP4 PUSH20 0xFFFFFFFFFFFFFFFFFFFFFFFFFFFFFFFFFFFFFFFF AND MUL OR SWAP1 SSTORE POP SWAP1 POP POP PUSH1 0x1 PUSH1 0x0 DUP1 DUP3 DUP3 SLOAD PUSH2 0x9BE SWAP2 SWAP1 PUSH2 0x1645 JUMP JUMPDEST SWAP3 POP POP DUP2 SWAP1 SSTORE POP PUSH1 0x1 SWAP1 POP SWAP6 SWAP5 POP POP POP POP POP JUMP JUMPDEST PUSH1 0x60 PUSH1 0x2 PUSH1 0x0 DUP4 PUSH20 0xFFFFFFFFFFFFFFFFFFFFFFFFFFFFFFFFFFFFFFFF AND PUSH20 0xFFFFFFFFFFFFFFFFFFFFFFFFFFFFFFFFFFFFFFFF AND DUP2 MSTORE PUSH1 0x20 ADD SWAP1 DUP2 MSTORE PUSH1 0x20 ADD PUSH1 0x0 KECCAK256 DUP1 SLOAD DUP1 PUSH1 0x20 MUL PUSH1 0x20 ADD PUSH1 0x40 MLOAD SWAP1 DUP2 ADD PUSH1 0x40 MSTORE DUP1 SWAP3 SWAP2 SWAP1 DUP2 DUP2 MSTORE PUSH1 0x20 ADD PUSH1 0x0 SWAP1 JUMPDEST DUP3 DUP3 LT ISZERO PUSH2 0xB12 JUMPI DUP4 DUP3 SWAP1 PUSH1 0x0 MSTORE PUSH1 0x20 PUSH1 0x0 KECCAK256 SWAP1 PUSH1 0x2 MUL ADD PUSH1 0x40 MLOAD DUP1 PUSH1 0x40 ADD PUSH1 0x40 MSTORE SWAP1 DUP2 PUSH1 0x0 DUP3 ADD DUP1 SLOAD PUSH2 0xA66 SWAP1 PUSH2 0x174A JUMP JUMPDEST DUP1 PUSH1 0x1F ADD PUSH1 0x20 DUP1 SWAP2 DIV MUL PUSH1 0x20 ADD PUSH1 0x40 MLOAD SWAP1 DUP2 ADD PUSH1 0x40 MSTORE DUP1 SWAP3 SWAP2 SWAP1 DUP2 DUP2 MSTORE PUSH1 0x20 ADD DUP3 DUP1 SLOAD PUSH2 0xA92 SWAP1 PUSH2 0x174A JUMP JUMPDEST DUP1 ISZERO PUSH2 0xADF JUMPI DUP1 PUSH1 0x1F LT PUSH2 0xAB4 JUMPI PUSH2 0x100 DUP1 DUP4 SLOAD DIV MUL DUP4 MSTORE SWAP2 PUSH1 0x20 ADD SWAP2 PUSH2 0xADF JUMP JUMPDEST DUP3 ADD SWAP2 SWAP1 PUSH1 0x0 MSTORE PUSH1 0x20 PUSH1 0x0 KECCAK256 SWAP1 JUMPDEST DUP2 SLOAD DUP2 MSTORE SWAP1 PUSH1 0x1 ADD SWAP1 PUSH1 0x20 ADD DUP1 DUP4 GT PUSH2 0xAC2 JUMPI DUP3 SWAP1 SUB PUSH1 0x1F AND DUP3 ADD SWAP2 JUMPDEST POP POP POP POP POP DUP2 MSTORE PUSH1 0x20 ADD PUSH1 0x1 DUP3 ADD PUSH1 0x0 SWAP1 SLOAD SWAP1 PUSH2 0x100 EXP SWAP1 DIV PUSH1 0xFF AND ISZERO ISZERO ISZERO ISZERO DUP2 MSTORE POP POP DUP2 MSTORE PUSH1 0x20 ADD SWAP1 PUSH1 0x1 ADD SWAP1 PUSH2 0xA33 JUMP JUMPDEST POP POP POP POP SWAP1 POP SWAP2 SWAP1 POP JUMP JUMPDEST PUSH1 0x60 PUSH1 0x0 PUSH1 0x40 MLOAD DUP1 PUSH1 0xE0 ADD PUSH1 0x40 MSTORE DUP1 DUP9 DUP2 MSTORE PUSH1 0x20 ADD PUSH1 0x1 DUP2 MSTORE PUSH1 0x20 ADD DUP8 DUP2 MSTORE PUSH1 0x20 ADD CALLER PUSH20 0xFFFFFFFFFFFFFFFFFFFFFFFFFFFFFFFFFFFFFFFF AND DUP2 MSTORE PUSH1 0x20 ADD DUP7 PUSH20 0xFFFFFFFFFFFFFFFFFFFFFFFFFFFFFFFFFFFFFFFF AND DUP2 MSTORE PUSH1 0x20 ADD DUP6 DUP2 MSTORE PUSH1 0x20 ADD DUP5 DUP2 MSTORE POP SWAP1 POP PUSH1 0x3 DUP2 SWAP1 DUP1 PUSH1 0x1 DUP2 SLOAD ADD DUP1 DUP3 SSTORE DUP1 SWAP2 POP POP PUSH1 0x1 SWAP1 SUB SWAP1 PUSH1 0x0 MSTORE PUSH1 0x20 PUSH1 0x0 KECCAK256 SWAP1 PUSH1 0x7 MUL ADD PUSH1 0x0 SWAP1 SWAP2 SWAP1 SWAP2 SWAP1 SWAP2 POP PUSH1 0x0 DUP3 ADD MLOAD DUP2 PUSH1 0x0 ADD SWAP1 DUP1 MLOAD SWAP1 PUSH1 0x20 ADD SWAP1 PUSH2 0xBCB SWAP3 SWAP2 SWAP1 PUSH2 0xD4C JUMP JUMPDEST POP PUSH1 0x20 DUP3 ADD MLOAD DUP2 PUSH1 0x1 ADD SSTORE PUSH1 0x40 DUP3 ADD MLOAD DUP2 PUSH1 0x2 ADD SWAP1 DUP1 MLOAD SWAP1 PUSH1 0x20 ADD SWAP1 PUSH2 0xBF2 SWAP3 SWAP2 SWAP1 PUSH2 0xD4C JUMP JUMPDEST POP PUSH1 0x60 DUP3 ADD MLOAD DUP2 PUSH1 0x3 ADD PUSH1 0x0 PUSH2 0x100 EXP DUP2 SLOAD DUP2 PUSH20 0xFFFFFFFFFFFFFFFFFFFFFFFFFFFFFFFFFFFFFFFF MUL NOT AND SWAP1 DUP4 PUSH20 0xFFFFFFFFFFFFFFFFFFFFFFFFFFFFFFFFFFFFFFFF AND MUL OR SWAP1 SSTORE POP PUSH1 0x80 DUP3 ADD MLOAD DUP2 PUSH1 0x4 ADD PUSH1 0x0 PUSH2 0x100 EXP DUP2 SLOAD DUP2 PUSH20 0xFFFFFFFFFFFFFFFFFFFFFFFFFFFFFFFFFFFFFFFF MUL NOT AND SWAP1 DUP4 PUSH20 0xFFFFFFFFFFFFFFFFFFFFFFFFFFFFFFFFFFFFFFFF AND MUL OR SWAP1 SSTORE POP PUSH1 0xA0 DUP3 ADD MLOAD DUP2 PUSH1 0x5 ADD SSTORE PUSH1 0xC0 DUP3 ADD MLOAD DUP2 PUSH1 0x6 ADD SWAP1 DUP1 MLOAD SWAP1 PUSH1 0x20 ADD SWAP1 PUSH2 0xCA7 SWAP3 SWAP2 SWAP1 PUSH2 0xD4C JUMP JUMPDEST POP POP POP PUSH1 0x40 MLOAD DUP1 PUSH1 0x40 ADD PUSH1 0x40 MSTORE DUP1 PUSH1 0xD DUP2 MSTORE PUSH1 0x20 ADD PUSH32 0x5061746368206372656174656400000000000000000000000000000000000000 DUP2 MSTORE POP SWAP2 POP POP SWAP6 SWAP5 POP POP POP POP POP JUMP JUMPDEST PUSH1 0x40 MLOAD DUP1 PUSH1 0xC0 ADD PUSH1 0x40 MSTORE DUP1 PUSH1 0x60 DUP2 MSTORE PUSH1 0x20 ADD PUSH1 0x0 PUSH1 0x6 DUP2 GT ISZERO PUSH2 0xD12 JUMPI PUSH2 0xD11 PUSH2 0x1825 JUMP JUMPDEST JUMPDEST DUP2 MSTORE PUSH1 0x20 ADD PUSH1 0x0 ISZERO ISZERO DUP2 MSTORE PUSH1 0x20 ADD PUSH1 0x0 DUP2 MSTORE PUSH1 0x20 ADD PUSH1 0x0 DUP2 MSTORE PUSH1 0x20 ADD PUSH1 0x0 PUSH20 0xFFFFFFFFFFFFFFFFFFFFFFFFFFFFFFFFFFFFFFFF AND DUP2 MSTORE POP SWAP1 JUMP JUMPDEST DUP3 DUP1 SLOAD PUSH2 0xD58 SWAP1 PUSH2 0x174A JUMP JUMPDEST SWAP1 PUSH1 0x0 MSTORE PUSH1 0x20 PUSH1 0x0 KECCAK256 SWAP1 PUSH1 0x1F ADD PUSH1 0x20 SWAP1 DIV DUP2 ADD SWAP3 DUP3 PUSH2 0xD7A JUMPI PUSH1 0x0 DUP6 SSTORE PUSH2 0xDC1 JUMP JUMPDEST DUP3 PUSH1 0x1F LT PUSH2 0xD93 JUMPI DUP1 MLOAD PUSH1 0xFF NOT AND DUP4 DUP1 ADD OR DUP6 SSTORE PUSH2 0xDC1 JUMP JUMPDEST DUP3 DUP1 ADD PUSH1 0x1 ADD DUP6 SSTORE DUP3 ISZERO PUSH2 0xDC1 JUMPI SWAP2 DUP3 ADD JUMPDEST DUP3 DUP2 GT ISZERO PUSH2 0xDC0 JUMPI DUP3 MLOAD DUP3 SSTORE SWAP2 PUSH1 0x20 ADD SWAP2 SWAP1 PUSH1 0x1 ADD SWAP1 PUSH2 0xDA5 JUMP JUMPDEST JUMPDEST POP SWAP1 POP PUSH2 0xDCE SWAP2 SWAP1 PUSH2 0xDD2 JUMP JUMPDEST POP SWAP1 JUMP JUMPDEST JUMPDEST DUP1 DUP3 GT ISZERO PUSH2 0xDEB JUMPI PUSH1 0x0 DUP2 PUSH1 0x0 SWAP1 SSTORE POP PUSH1 0x1 ADD PUSH2 0xDD3 JUMP JUMPDEST POP SWAP1 JUMP JUMPDEST PUSH1 0x0 PUSH2 0xE02 PUSH2 0xDFD DUP5 PUSH2 0x1575 JUMP JUMPDEST PUSH2 0x1550 JUMP JUMPDEST SWAP1 POP DUP3 DUP2 MSTORE PUSH1 0x20 DUP2 ADD DUP5 DUP5 DUP5 ADD GT ISZERO PUSH2 0xE1E JUMPI PUSH2 0xE1D PUSH2 0x18E6 JUMP JUMPDEST JUMPDEST PUSH2 0xE29 DUP5 DUP3 DUP6 PUSH2 0x1708 JUMP JUMPDEST POP SWAP4 SWAP3 POP POP POP JUMP JUMPDEST PUSH1 0x0 DUP2 CALLDATALOAD SWAP1 POP PUSH2 0xE40 DUP2 PUSH2 0x191A JUMP JUMPDEST SWAP3 SWAP2 POP POP JUMP JUMPDEST PUSH1 0x0 DUP2 CALLDATALOAD SWAP1 POP PUSH2 0xE55 DUP2 PUSH2 0x1931 JUMP JUMPDEST SWAP3 SWAP2 POP POP JUMP JUMPDEST PUSH1 0x0 DUP2 CALLDATALOAD SWAP1 POP PUSH2 0xE6A DUP2 PUSH2 0x1948 JUMP JUMPDEST SWAP3 SWAP2 POP POP JUMP JUMPDEST PUSH1 0x0 DUP3 PUSH1 0x1F DUP4 ADD SLT PUSH2 0xE85 JUMPI PUSH2 0xE84 PUSH2 0x18E1 JUMP JUMPDEST JUMPDEST DUP2 CALLDATALOAD PUSH2 0xE95 DUP5 DUP3 PUSH1 0x20 DUP7 ADD PUSH2 0xDEF JUMP JUMPDEST SWAP2 POP POP SWAP3 SWAP2 POP POP JUMP JUMPDEST PUSH1 0x0 DUP2 CALLDATALOAD SWAP1 POP PUSH2 0xEAD DUP2 PUSH2 0x1958 JUMP JUMPDEST SWAP3 SWAP2 POP POP JUMP JUMPDEST PUSH1 0x0 PUSH1 0x20 DUP3 DUP5 SUB SLT ISZERO PUSH2 0xEC9 JUMPI PUSH2 0xEC8 PUSH2 0x18F0 JUMP JUMPDEST JUMPDEST PUSH1 0x0 PUSH2 0xED7 DUP5 DUP3 DUP6 ADD PUSH2 0xE31 JUMP JUMPDEST SWAP2 POP POP SWAP3 SWAP2 POP POP JUMP JUMPDEST PUSH1 0x0 DUP1 PUSH1 0x40 DUP4 DUP6 SUB SLT ISZERO PUSH2 0xEF7 JUMPI PUSH2 0xEF6 PUSH2 0x18F0 JUMP JUMPDEST JUMPDEST PUSH1 0x0 PUSH2 0xF05 DUP6 DUP3 DUP7 ADD PUSH2 0xE31 JUMP JUMPDEST SWAP3 POP POP PUSH1 0x20 DUP4 ADD CALLDATALOAD PUSH8 0xFFFFFFFFFFFFFFFF DUP2 GT ISZERO PUSH2 0xF26 JUMPI PUSH2 0xF25 PUSH2 0x18EB JUMP JUMPDEST JUMPDEST PUSH2 0xF32 DUP6 DUP3 DUP7 ADD PUSH2 0xE70 JUMP JUMPDEST SWAP2 POP POP SWAP3 POP SWAP3 SWAP1 POP JUMP JUMPDEST PUSH1 0x0 DUP1 PUSH1 0x0 PUSH1 0x60 DUP5 DUP7 SUB SLT ISZERO PUSH2 0xF55 JUMPI PUSH2 0xF54 PUSH2 0x18F0 JUMP JUMPDEST JUMPDEST PUSH1 0x0 PUSH2 0xF63 DUP7 DUP3 DUP8 ADD PUSH2 0xE31 JUMP JUMPDEST SWAP4 POP POP PUSH1 0x20 PUSH2 0xF74 DUP7 DUP3 DUP8 ADD PUSH2 0xE9E JUMP JUMPDEST SWAP3 POP POP PUSH1 0x40 PUSH2 0xF85 DUP7 DUP3 DUP8 ADD PUSH2 0xE46 JUMP JUMPDEST SWAP2 POP POP SWAP3 POP SWAP3 POP SWAP3 JUMP JUMPDEST PUSH1 0x0 PUSH1 0x20 DUP3 DUP5 SUB SLT ISZERO PUSH2 0xFA5 JUMPI PUSH2 0xFA4 PUSH2 0x18F0 JUMP JUMPDEST JUMPDEST PUSH1 0x0 PUSH2 0xFB3 DUP5 DUP3 DUP6 ADD PUSH2 0xE5B JUMP JUMPDEST SWAP2 POP POP SWAP3 SWAP2 POP POP JUMP JUMPDEST PUSH1 0x0 DUP1 PUSH1 0x0 DUP1 PUSH1 0x0 PUSH1 0xA0 DUP7 DUP9 SUB SLT ISZERO PUSH2 0xFD8 JUMPI PUSH2 0xFD7 PUSH2 0x18F0 JUMP JUMPDEST JUMPDEST PUSH1 0x0 DUP7 ADD CALLDATALOAD PUSH8 0xFFFFFFFFFFFFFFFF DUP2 GT ISZERO PUSH2 0xFF6 JUMPI PUSH2 0xFF5 PUSH2 0x18EB JUMP JUMPDEST JUMPDEST PUSH2 0x1002 DUP9 DUP3 DUP10 ADD PUSH2 0xE70 JUMP JUMPDEST SWAP6 POP POP PUSH1 0x20 PUSH2 0x1013 DUP9 DUP3 DUP10 ADD PUSH2 0xE5B JUMP JUMPDEST SWAP5 POP POP PUSH1 0x40 PUSH2 0x1024 DUP9 DUP3 DUP10 ADD PUSH2 0xE9E JUMP JUMPDEST SWAP4 POP POP PUSH1 0x60 PUSH2 0x1035 DUP9 DUP3 DUP10 ADD PUSH2 0xE9E JUMP JUMPDEST SWAP3 POP POP PUSH1 0x80 PUSH2 0x1046 DUP9 DUP3 DUP10 ADD PUSH2 0xE31 JUMP JUMPDEST SWAP2 POP POP SWAP3 SWAP6 POP SWAP3 SWAP6 SWAP1 SWAP4 POP JUMP JUMPDEST PUSH1 0x0 DUP1 PUSH1 0x0 DUP1 PUSH1 0x0 PUSH1 0xA0 DUP7 DUP9 SUB SLT ISZERO PUSH2 0x106F JUMPI PUSH2 0x106E PUSH2 0x18F0 JUMP JUMPDEST JUMPDEST PUSH1 0x0 DUP7 ADD CALLDATALOAD PUSH8 0xFFFFFFFFFFFFFFFF DUP2 GT ISZERO PUSH2 0x108D JUMPI PUSH2 0x108C PUSH2 0x18EB JUMP JUMPDEST JUMPDEST PUSH2 0x1099 DUP9 DUP3 DUP10 ADD PUSH2 0xE70 JUMP JUMPDEST SWAP6 POP POP PUSH1 0x20 DUP7 ADD CALLDATALOAD PUSH8 0xFFFFFFFFFFFFFFFF DUP2 GT ISZERO PUSH2 0x10BA JUMPI PUSH2 0x10B9 PUSH2 0x18EB JUMP JUMPDEST JUMPDEST PUSH2 0x10C6 DUP9 DUP3 DUP10 ADD PUSH2 0xE70 JUMP JUMPDEST SWAP5 POP POP PUSH1 0x40 PUSH2 0x10D7 DUP9 DUP3 DUP10 ADD PUSH2 0xE31 JUMP JUMPDEST SWAP4 POP POP PUSH1 0x60 PUSH2 0x10E8 DUP9 DUP3 DUP10 ADD PUSH2 0xE9E JUMP JUMPDEST SWAP3 POP POP PUSH1 0x80 DUP7 ADD CALLDATALOAD PUSH8 0xFFFFFFFFFFFFFFFF DUP2 GT ISZERO PUSH2 0x1109 JUMPI PUSH2 0x1108 PUSH2 0x18EB JUMP JUMPDEST JUMPDEST PUSH2 0x1115 DUP9 DUP3 DUP10 ADD PUSH2 0xE70 JUMP JUMPDEST SWAP2 POP POP SWAP3 SWAP6 POP SWAP3 SWAP6 SWAP1 SWAP4 POP JUMP JUMPDEST PUSH1 0x0 PUSH1 0x20 DUP3 DUP5 SUB SLT ISZERO PUSH2 0x1138 JUMPI PUSH2 0x1137 PUSH2 0x18F0 JUMP JUMPDEST JUMPDEST PUSH1 0x0 PUSH2 0x1146 DUP5 DUP3 DUP6 ADD PUSH2 0xE9E JUMP JUMPDEST SWAP2 POP POP SWAP3 SWAP2 POP POP JUMP JUMPDEST PUSH1 0x0 DUP1 PUSH1 0x40 DUP4 DUP6 SUB SLT ISZERO PUSH2 0x1166 JUMPI PUSH2 0x1165 PUSH2 0x18F0 JUMP JUMPDEST JUMPDEST PUSH1 0x0 PUSH2 0x1174 DUP6 DUP3 DUP7 ADD PUSH2 0xE9E JUMP JUMPDEST SWAP3 POP POP PUSH1 0x20 PUSH2 0x1185 DUP6 DUP3 DUP7 ADD PUSH2 0xE46 JUMP JUMPDEST SWAP2 POP POP SWAP3 POP SWAP3 SWAP1 POP JUMP JUMPDEST PUSH1 0x0 PUSH2 0x119B DUP4 DUP4 PUSH2 0x134F JUMP JUMPDEST SWAP1 POP SWAP3 SWAP2 POP POP JUMP JUMPDEST PUSH1 0x0 PUSH2 0x11AF DUP4 DUP4 PUSH2 0x138C JUMP JUMPDEST SWAP1 POP SWAP3 SWAP2 POP POP JUMP JUMPDEST PUSH2 0x11C0 DUP2 PUSH2 0x169B JUMP JUMPDEST DUP3 MSTORE POP POP JUMP JUMPDEST PUSH1 0x0 PUSH2 0x11D1 DUP3 PUSH2 0x15C6 JUMP JUMPDEST PUSH2 0x11DB DUP2 DUP6 PUSH2 0x1601 JUMP JUMPDEST SWAP4 POP DUP4 PUSH1 0x20 DUP3 MUL DUP6 ADD PUSH2 0x11ED DUP6 PUSH2 0x15A6 JUMP JUMPDEST DUP1 PUSH1 0x0 JUMPDEST DUP6 DUP2 LT ISZERO PUSH2 0x1229 JUMPI DUP5 DUP5 SUB DUP10 MSTORE DUP2 MLOAD PUSH2 0x120A DUP6 DUP3 PUSH2 0x118F JUMP JUMPDEST SWAP5 POP PUSH2 0x1215 DUP4 PUSH2 0x15E7 JUMP JUMPDEST SWAP3 POP PUSH1 0x20 DUP11 ADD SWAP10 POP POP PUSH1 0x1 DUP2 ADD SWAP1 POP PUSH2 0x11F1 JUMP JUMPDEST POP DUP3 SWAP8 POP DUP8 SWAP6 POP POP POP POP POP POP SWAP3 SWAP2 POP POP JUMP JUMPDEST PUSH1 0x0 PUSH2 0x1246 DUP3 PUSH2 0x15D1 JUMP JUMPDEST PUSH2 0x1250 DUP2 DUP6 PUSH2 0x1612 JUMP JUMPDEST SWAP4 POP DUP4 PUSH1 0x20 DUP3 MUL DUP6 ADD PUSH2 0x1262 DUP6 PUSH2 0x15B6 JUMP JUMPDEST DUP1 PUSH1 0x0 JUMPDEST DUP6 DUP2 LT ISZERO PUSH2 0x129E JUMPI DUP5 DUP5 SUB DUP10 MSTORE DUP2 MLOAD PUSH2 0x127F DUP6 DUP3 PUSH2 0x11A3 JUMP JUMPDEST SWAP5 POP PUSH2 0x128A DUP4 PUSH2 0x15F4 JUMP JUMPDEST SWAP3 POP PUSH1 0x20 DUP11 ADD SWAP10 POP POP PUSH1 0x1 DUP2 ADD SWAP1 POP PUSH2 0x1266 JUMP JUMPDEST POP DUP3 SWAP8 POP DUP8 SWAP6 POP POP POP POP POP POP SWAP3 SWAP2 POP POP JUMP JUMPDEST PUSH2 0x12B9 DUP2 PUSH2 0x16AD JUMP JUMPDEST DUP3 MSTORE POP POP JUMP JUMPDEST PUSH2 0x12C8 DUP2 PUSH2 0x16AD JUMP JUMPDEST DUP3 MSTORE POP POP JUMP JUMPDEST PUSH2 0x12D7 DUP2 PUSH2 0x16F6 JUMP JUMPDEST DUP3 MSTORE POP POP JUMP JUMPDEST PUSH1 0x0 PUSH2 0x12E8 DUP3 PUSH2 0x15DC JUMP JUMPDEST PUSH2 0x12F2 DUP2 DUP6 PUSH2 0x1623 JUMP JUMPDEST SWAP4 POP PUSH2 0x1302 DUP2 DUP6 PUSH1 0x20 DUP7 ADD PUSH2 0x1717 JUMP JUMPDEST PUSH2 0x130B DUP2 PUSH2 0x18F5 JUMP JUMPDEST DUP5 ADD SWAP2 POP POP SWAP3 SWAP2 POP POP JUMP JUMPDEST PUSH1 0x0 PUSH2 0x1321 DUP3 PUSH2 0x15DC JUMP JUMPDEST PUSH2 0x132B DUP2 DUP6 PUSH2 0x1634 JUMP JUMPDEST SWAP4 POP PUSH2 0x133B DUP2 DUP6 PUSH1 0x20 DUP7 ADD PUSH2 0x1717 JUMP JUMPDEST PUSH2 0x1344 DUP2 PUSH2 0x18F5 JUMP JUMPDEST DUP5 ADD SWAP2 POP POP SWAP3 SWAP2 POP POP JUMP JUMPDEST PUSH1 0x0 PUSH1 0x40 DUP4 ADD PUSH1 0x0 DUP4 ADD MLOAD DUP5 DUP3 SUB PUSH1 0x0 DUP7 ADD MSTORE PUSH2 0x136C DUP3 DUP3 PUSH2 0x12DD JUMP JUMPDEST SWAP2 POP POP PUSH1 0x20 DUP4 ADD MLOAD PUSH2 0x1381 PUSH1 0x20 DUP7 ADD DUP3 PUSH2 0x12B0 JUMP JUMPDEST POP DUP1 SWAP2 POP POP SWAP3 SWAP2 POP POP JUMP JUMPDEST PUSH1 0x0 PUSH1 0xC0 DUP4 ADD PUSH1 0x0 DUP4 ADD MLOAD DUP5 DUP3 SUB PUSH1 0x0 DUP7 ADD MSTORE PUSH2 0x13A9 DUP3 DUP3 PUSH2 0x12DD JUMP JUMPDEST SWAP2 POP POP PUSH1 0x20 DUP4 ADD MLOAD PUSH2 0x13BE PUSH1 0x20 DUP7 ADD DUP3 PUSH2 0x12CE JUMP JUMPDEST POP PUSH1 0x40 DUP4 ADD MLOAD PUSH2 0x13D1 PUSH1 0x40 DUP7 ADD DUP3 PUSH2 0x12B0 JUMP JUMPDEST POP PUSH1 0x60 DUP4 ADD MLOAD PUSH2 0x13E4 PUSH1 0x60 DUP7 ADD DUP3 PUSH2 0x149E JUMP JUMPDEST POP PUSH1 0x80 DUP4 ADD MLOAD PUSH2 0x13F7 PUSH1 0x80 DUP7 ADD DUP3 PUSH2 0x149E JUMP JUMPDEST POP PUSH1 0xA0 DUP4 ADD MLOAD PUSH2 0x140A PUSH1 0xA0 DUP7 ADD DUP3 PUSH2 0x11B7 JUMP JUMPDEST POP DUP1 SWAP2 POP POP SWAP3 SWAP2 POP POP JUMP JUMPDEST PUSH1 0x0 PUSH1 0xC0 DUP4 ADD PUSH1 0x0 DUP4 ADD MLOAD DUP5 DUP3 SUB PUSH1 0x0 DUP7 ADD MSTORE PUSH2 0x1432 DUP3 DUP3 PUSH2 0x12DD JUMP JUMPDEST SWAP2 POP POP PUSH1 0x20 DUP4 ADD MLOAD PUSH2 0x1447 PUSH1 0x20 DUP7 ADD DUP3 PUSH2 0x12CE JUMP JUMPDEST POP PUSH1 0x40 DUP4 ADD MLOAD PUSH2 0x145A PUSH1 0x40 DUP7 ADD DUP3 PUSH2 0x12B0 JUMP JUMPDEST POP PUSH1 0x60 DUP4 ADD MLOAD PUSH2 0x146D PUSH1 0x60 DUP7 ADD DUP3 PUSH2 0x149E JUMP JUMPDEST POP PUSH1 0x80 DUP4 ADD MLOAD PUSH2 0x1480 PUSH1 0x80 DUP7 ADD DUP3 PUSH2 0x149E JUMP JUMPDEST POP PUSH1 0xA0 DUP4 ADD MLOAD PUSH2 0x1493 PUSH1 0xA0 DUP7 ADD DUP3 PUSH2 0x11B7 JUMP JUMPDEST POP DUP1 SWAP2 POP POP SWAP3 SWAP2 POP POP JUMP JUMPDEST PUSH2 0x14A7 DUP2 PUSH2 0x16EC JUMP JUMPDEST DUP3 MSTORE POP POP JUMP JUMPDEST PUSH1 0x0 PUSH1 0x20 DUP3 ADD SWAP1 POP DUP2 DUP2 SUB PUSH1 0x0 DUP4 ADD MSTORE PUSH2 0x14C7 DUP2 DUP5 PUSH2 0x11C6 JUMP JUMPDEST SWAP1 POP SWAP3 SWAP2 POP POP JUMP JUMPDEST PUSH1 0x0 PUSH1 0x20 DUP3 ADD SWAP1 POP DUP2 DUP2 SUB PUSH1 0x0 DUP4 ADD MSTORE PUSH2 0x14E9 DUP2 DUP5 PUSH2 0x123B JUMP JUMPDEST SWAP1 POP SWAP3 SWAP2 POP POP JUMP JUMPDEST PUSH1 0x0 PUSH1 0x20 DUP3 ADD SWAP1 POP PUSH2 0x1506 PUSH1 0x0 DUP4 ADD DUP5 PUSH2 0x12BF JUMP JUMPDEST SWAP3 SWAP2 POP POP JUMP JUMPDEST PUSH1 0x0 PUSH1 0x20 DUP3 ADD SWAP1 POP DUP2 DUP2 SUB PUSH1 0x0 DUP4 ADD MSTORE PUSH2 0x1526 DUP2 DUP5 PUSH2 0x1316 JUMP JUMPDEST SWAP1 POP SWAP3 SWAP2 POP POP JUMP JUMPDEST PUSH1 0x0 PUSH1 0x20 DUP3 ADD SWAP1 POP DUP2 DUP2 SUB PUSH1 0x0 DUP4 ADD MSTORE PUSH2 0x1548 DUP2 DUP5 PUSH2 0x1415 JUMP JUMPDEST SWAP1 POP SWAP3 SWAP2 POP POP JUMP JUMPDEST PUSH1 0x0 PUSH2 0x155A PUSH2 0x156B JUMP JUMPDEST SWAP1 POP PUSH2 0x1566 DUP3 DUP3 PUSH2 0x177C JUMP JUMPDEST SWAP2 SWAP1 POP JUMP JUMPDEST PUSH1 0x0 PUSH1 0x40 MLOAD SWAP1 POP SWAP1 JUMP JUMPDEST PUSH1 0x0 PUSH8 0xFFFFFFFFFFFFFFFF DUP3 GT ISZERO PUSH2 0x1590 JUMPI PUSH2 0x158F PUSH2 0x18B2 JUMP JUMPDEST JUMPDEST PUSH2 0x1599 DUP3 PUSH2 0x18F5 JUMP JUMPDEST SWAP1 POP PUSH1 0x20 DUP2 ADD SWAP1 POP SWAP2 SWAP1 POP JUMP JUMPDEST PUSH1 0x0 DUP2 SWAP1 POP PUSH1 0x20 DUP3 ADD SWAP1 POP SWAP2 SWAP1 POP JUMP JUMPDEST PUSH1 0x0 DUP2 SWAP1 POP PUSH1 0x20 DUP3 ADD SWAP1 POP SWAP2 SWAP1 POP JUMP JUMPDEST PUSH1 0x0 DUP2 MLOAD SWAP1 POP SWAP2 SWAP1 POP JUMP JUMPDEST PUSH1 0x0 DUP2 MLOAD SWAP1 POP SWAP2 SWAP1 POP JUMP JUMPDEST PUSH1 0x0 DUP2 MLOAD SWAP1 POP SWAP2 SWAP1 POP JUMP JUMPDEST PUSH1 0x0 PUSH1 0x20 DUP3 ADD SWAP1 POP SWAP2 SWAP1 POP JUMP JUMPDEST PUSH1 0x0 PUSH1 0x20 DUP3 ADD SWAP1 POP SWAP2 SWAP1 POP JUMP JUMPDEST PUSH1 0x0 DUP3 DUP3 MSTORE PUSH1 0x20 DUP3 ADD SWAP1 POP SWAP3 SWAP2 POP POP JUMP JUMPDEST PUSH1 0x0 DUP3 DUP3 MSTORE PUSH1 0x20 DUP3 ADD SWAP1 POP SWAP3 SWAP2 POP POP JUMP JUMPDEST PUSH1 0x0 DUP3 DUP3 MSTORE PUSH1 0x20 DUP3 ADD SWAP1 POP SWAP3 SWAP2 POP POP JUMP JUMPDEST PUSH1 0x0 DUP3 DUP3 MSTORE PUSH1 0x20 DUP3 ADD SWAP1 POP SWAP3 SWAP2 POP POP JUMP JUMPDEST PUSH1 0x0 PUSH2 0x1650 DUP3 PUSH2 0x16EC JUMP JUMPDEST SWAP2 POP PUSH2 0x165B DUP4 PUSH2 0x16EC JUMP JUMPDEST SWAP3 POP DUP3 PUSH32 0xFFFFFFFFFFFFFFFFFFFFFFFFFFFFFFFFFFFFFFFFFFFFFFFFFFFFFFFFFFFFFFFF SUB DUP3 GT ISZERO PUSH2 0x1690 JUMPI PUSH2 0x168F PUSH2 0x17F6 JUMP JUMPDEST JUMPDEST DUP3 DUP3 ADD SWAP1 POP SWAP3 SWAP2 POP POP JUMP JUMPDEST PUSH1 0x0 PUSH2 0x16A6 DUP3 PUSH2 0x16CC JUMP JUMPDEST SWAP1 POP SWAP2 SWAP1 POP JUMP JUMPDEST PUSH1 0x0 DUP2 ISZERO ISZERO SWAP1 POP SWAP2 SWAP1 POP JUMP JUMPDEST PUSH1 0x0 DUP2 SWAP1 POP PUSH2 0x16C7 DUP3 PUSH2 0x1906 JUMP JUMPDEST SWAP2 SWAP1 POP JUMP JUMPDEST PUSH1 0x0 PUSH20 0xFFFFFFFFFFFFFFFFFFFFFFFFFFFFFFFFFFFFFFFF DUP3 AND SWAP1 POP SWAP2 SWAP1 POP JUMP JUMPDEST PUSH1 0x0 DUP2 SWAP1 POP SWAP2 SWAP1 POP JUMP JUMPDEST PUSH1 0x0 PUSH2 0x1701 DUP3 PUSH2 0x16B9 JUMP JUMPDEST SWAP1 POP SWAP2 SWAP1 POP JUMP JUMPDEST DUP3 DUP2 DUP4 CALLDATACOPY PUSH1 0x0 DUP4 DUP4 ADD MSTORE POP POP POP JUMP JUMPDEST PUSH1 0x0 JUMPDEST DUP4 DUP2 LT ISZERO PUSH2 0x1735 JUMPI DUP1 DUP3 ADD MLOAD DUP2 DUP5 ADD MSTORE PUSH1 0x20 DUP2 ADD SWAP1 POP PUSH2 0x171A JUMP JUMPDEST DUP4 DUP2 GT ISZERO PUSH2 0x1744 JUMPI PUSH1 0x0 DUP5 DUP5 ADD MSTORE JUMPDEST POP POP POP POP JUMP JUMPDEST PUSH1 0x0 PUSH1 0x2 DUP3 DIV SWAP1 POP PUSH1 0x1 DUP3 AND DUP1 PUSH2 0x1762 JUMPI PUSH1 0x7F DUP3 AND SWAP2 POP JUMPDEST PUSH1 0x20 DUP3 LT DUP2 EQ ISZERO PUSH2 0x1776 JUMPI PUSH2 0x1775 PUSH2 0x1854 JUMP JUMPDEST JUMPDEST POP SWAP2 SWAP1 POP JUMP JUMPDEST PUSH2 0x1785 DUP3 PUSH2 0x18F5 JUMP JUMPDEST DUP2 ADD DUP2 DUP2 LT PUSH8 0xFFFFFFFFFFFFFFFF DUP3 GT OR ISZERO PUSH2 0x17A4 JUMPI PUSH2 0x17A3 PUSH2 0x18B2 JUMP JUMPDEST JUMPDEST DUP1 PUSH1 0x40 MSTORE POP POP POP JUMP JUMPDEST PUSH1 0x0 PUSH2 0x17B8 DUP3 PUSH2 0x16EC JUMP JUMPDEST SWAP2 POP PUSH32 0xFFFFFFFFFFFFFFFFFFFFFFFFFFFFFFFFFFFFFFFFFFFFFFFFFFFFFFFFFFFFFFFF DUP3 EQ ISZERO PUSH2 0x17EB JUMPI PUSH2 0x17EA PUSH2 0x17F6 JUMP JUMPDEST JUMPDEST PUSH1 0x1 DUP3 ADD SWAP1 POP SWAP2 SWAP1 POP JUMP JUMPDEST PUSH32 0x4E487B7100000000000000000000000000000000000000000000000000000000 PUSH1 0x0 MSTORE PUSH1 0x11 PUSH1 0x4 MSTORE PUSH1 0x24 PUSH1 0x0 REVERT JUMPDEST PUSH32 0x4E487B7100000000000000000000000000000000000000000000000000000000 PUSH1 0x0 MSTORE PUSH1 0x21 PUSH1 0x4 MSTORE PUSH1 0x24 PUSH1 0x0 REVERT JUMPDEST PUSH32 0x4E487B7100000000000000000000000000000000000000000000000000000000 PUSH1 0x0 MSTORE PUSH1 0x22 PUSH1 0x4 MSTORE PUSH1 0x24 PUSH1 0x0 REVERT JUMPDEST PUSH32 0x4E487B7100000000000000000000000000000000000000000000000000000000 PUSH1 0x0 MSTORE PUSH1 0x32 PUSH1 0x4 MSTORE PUSH1 0x24 PUSH1 0x0 REVERT JUMPDEST PUSH32 0x4E487B7100000000000000000000000000000000000000000000000000000000 PUSH1 0x0 MSTORE PUSH1 0x41 PUSH1 0x4 MSTORE PUSH1 0x24 PUSH1 0x0 REVERT JUMPDEST PUSH1 0x0 DUP1 REVERT JUMPDEST PUSH1 0x0 DUP1 REVERT JUMPDEST PUSH1 0x0 DUP1 REVERT JUMPDEST PUSH1 0x0 DUP1 REVERT JUMPDEST PUSH1 0x0 PUSH1 0x1F NOT PUSH1 0x1F DUP4 ADD AND SWAP1 POP SWAP2 SWAP1 POP JUMP JUMPDEST PUSH1 0x7 DUP2 LT PUSH2 0x1917 JUMPI PUSH2 0x1916 PUSH2 0x1825 JUMP JUMPDEST JUMPDEST POP JUMP JUMPDEST PUSH2 0x1923 DUP2 PUSH2 0x169B JUMP JUMPDEST DUP2 EQ PUSH2 0x192E JUMPI PUSH1 0x0 DUP1 REVERT JUMPDEST POP JUMP JUMPDEST PUSH2 0x193A DUP2 PUSH2 0x16AD JUMP JUMPDEST DUP2 EQ PUSH2 0x1945 JUMPI PUSH1 0x0 DUP1 REVERT JUMPDEST POP JUMP JUMPDEST PUSH1 0x7 DUP2 LT PUSH2 0x1955 JUMPI PUSH1 0x0 DUP1 REVERT JUMPDEST POP JUMP JUMPDEST PUSH2 0x1961 DUP2 PUSH2 0x16EC JUMP JUMPDEST DUP2 EQ PUSH2 0x196C JUMPI PUSH1 0x0 DUP1 REVERT JUMPDEST POP JUMP INVALID LOG2 PUSH5 0x6970667358 0x22 SLT KECCAK256 ADD 0x25 PUSH11 0x96D2E619BC67255E68A413 AND NOT DUP11 SWAP1 SHR DUP14 0xC4 SWAP11 CALLCODE 0xDA BYTE LOG3 BYTE 0xD SWAP16 SWAP3 0xED CALL PUSH5 0x736F6C6343 STOP ADDMOD SMOD STOP CALLER "
		},
		"gasEstimates": {
			"creation": {
				"codeDepositCost": "1313000",
				"executionCost": "infinite",
				"totalCost": "infinite"
			},
			"external": {
				"AddDrugToManufacturer(address,string)": "infinite",
				"CreatePatch(string,string,address,uint256,string)": "infinite",
				"CreateUser(string,uint8,uint256,uint256,address)": "infinite",
				"DeActivateUser(uint256,bool)": "infinite",
				"DeactivateDrug(address,uint256,bool)": "infinite",
				"GetUsersByType(uint8)": "infinite",
				"ReadDrugsManufacturers(address)": "infinite",
				"ReadUser(uint256)": "infinite"
			}
		},
		"methodIdentifiers": {
			"AddDrugToManufacturer(address,string)": "5a615fd9",
			"CreatePatch(string,string,address,uint256,string)": "f03312ac",
			"CreateUser(string,uint8,uint256,uint256,address)": "71417e16",
			"DeActivateUser(uint256,bool)": "5cbfc0da",
			"DeactivateDrug(address,uint256,bool)": "1642000b",
			"GetUsersByType(uint8)": "0f9de977",
			"ReadDrugsManufacturers(address)": "a0bb3ff4",
			"ReadUser(uint256)": "596f5a4b"
		}
	},
	"abi": [
		{
			"inputs": [
				{
					"internalType": "address",
					"name": "_Manufaturer",
					"type": "address"
				},
				{
					"internalType": "string",
					"name": "_DrugID",
					"type": "string"
				}
			],
			"name": "AddDrugToManufacturer",
			"outputs": [],
			"stateMutability": "nonpayable",
			"type": "function"
		},
		{
			"inputs": [
				{
					"internalType": "string",
					"name": "_patch",
					"type": "string"
				},
				{
					"internalType": "string",
					"name": "_drugid",
					"type": "string"
				},
				{
					"internalType": "address",
					"name": "_toaddress",
					"type": "address"
				},
				{
					"internalType": "uint256",
					"name": "_amount",
					"type": "uint256"
				},
				{
					"internalType": "string",
					"name": "_txdate",
					"type": "string"
				}
			],
			"name": "CreatePatch",
			"outputs": [
				{
					"internalType": "string",
					"name": "",
					"type": "string"
				}
			],
			"stateMutability": "nonpayable",
			"type": "function"
		},
		{
			"inputs": [
				{
					"internalType": "string",
					"name": "_username",
					"type": "string"
				},
				{
					"internalType": "enum Regulator.UserRoles",
					"name": "_userrole",
					"type": "uint8"
				},
				{
					"internalType": "uint256",
					"name": "_lat",
					"type": "uint256"
				},
				{
					"internalType": "uint256",
					"name": "_long",
					"type": "uint256"
				},
				{
					"internalType": "address",
					"name": "_address",
					"type": "address"
				}
			],
			"name": "CreateUser",
			"outputs": [
				{
					"internalType": "bool",
					"name": "",
					"type": "bool"
				}
			],
			"stateMutability": "nonpayable",
			"type": "function"
		},
		{
			"inputs": [
				{
					"internalType": "uint256",
					"name": "_index",
					"type": "uint256"
				},
				{
					"internalType": "bool",
					"name": "_status",
					"type": "bool"
				}
			],
			"name": "DeActivateUser",
			"outputs": [
				{
					"internalType": "bool",
					"name": "",
					"type": "bool"
				}
			],
			"stateMutability": "nonpayable",
			"type": "function"
		},
		{
			"inputs": [
				{
					"internalType": "address",
					"name": "_Manufaturer",
					"type": "address"
				},
				{
					"internalType": "uint256",
					"name": "_DrugIDX",
					"type": "uint256"
				},
				{
					"internalType": "bool",
					"name": "_isActive",
					"type": "bool"
				}
			],
			"name": "DeactivateDrug",
			"outputs": [],
			"stateMutability": "nonpayable",
			"type": "function"
		},
		{
			"inputs": [
				{
					"internalType": "enum Regulator.UserRoles",
					"name": "_role",
					"type": "uint8"
				}
			],
			"name": "GetUsersByType",
			"outputs": [
				{
					"components": [
						{
							"internalType": "string",
							"name": "UserName",
							"type": "string"
						},
						{
							"internalType": "enum Regulator.UserRoles",
							"name": "UserRole",
							"type": "uint8"
						},
						{
							"internalType": "bool",
							"name": "IsActive",
							"type": "bool"
						},
						{
							"internalType": "uint256",
							"name": "Latitude",
							"type": "uint256"
						},
						{
							"internalType": "uint256",
							"name": "Longitude",
							"type": "uint256"
						},
						{
							"internalType": "address",
							"name": "UserAddress",
							"type": "address"
						}
					],
					"internalType": "struct Regulator.User[]",
					"name": "filteredUsers",
					"type": "tuple[]"
				}
			],
			"stateMutability": "view",
			"type": "function"
		},
		{
			"inputs": [
				{
					"internalType": "address",
					"name": "_Manufaturer",
					"type": "address"
				}
			],
			"name": "ReadDrugsManufacturers",
			"outputs": [
				{
					"components": [
						{
							"internalType": "string",
							"name": "DrugID",
							"type": "string"
						},
						{
							"internalType": "bool",
							"name": "IsActive",
							"type": "bool"
						}
					],
					"internalType": "struct study.Drugs[]",
					"name": "",
					"type": "tuple[]"
				}
			],
			"stateMutability": "view",
			"type": "function"
		},
		{
			"inputs": [
				{
					"internalType": "uint256",
					"name": "_index",
					"type": "uint256"
				}
			],
			"name": "ReadUser",
			"outputs": [
				{
					"components": [
						{
							"internalType": "string",
							"name": "UserName",
							"type": "string"
						},
						{
							"internalType": "enum Regulator.UserRoles",
							"name": "UserRole",
							"type": "uint8"
						},
						{
							"internalType": "bool",
							"name": "IsActive",
							"type": "bool"
						},
						{
							"internalType": "uint256",
							"name": "Latitude",
							"type": "uint256"
						},
						{
							"internalType": "uint256",
							"name": "Longitude",
							"type": "uint256"
						},
						{
							"internalType": "address",
							"name": "UserAddress",
							"type": "address"
						}
					],
					"internalType": "struct Regulator.User",
					"name": "",
					"type": "tuple"
				}
			],
			"stateMutability": "view",
			"type": "function"
		}
	]
}