{
	"data": {
		"bytecode": {
			"linkReferences": {},
			"object": "608060405234801561001057600080fd5b5061356d806100206000396000f3fe608060405234801561001057600080fd5b50600436106100cf5760003560e01c8063783a78951161008c578063b4a99a4e11610066578063b4a99a4e14610278578063cd1720d114610296578063cdf7e73d146102c6578063e9a734ff146102f6576100cf565b8063783a7895146101fa578063798d21221461021857806399b5bbdd14610248576100cf565b80630f9de977146100d45780631567697c1461010457806331a6db4d1461013a57806340d37caf1461016a5780634b2d14aa1461019a57806364819ae0146101ca575b600080fd5b6100ee60048036038101906100e99190612870565b610326565b6040516100fb9190612f83565b60405180910390f35b61011e60048036038101906101199190612a9c565b6107d7565b6040516101319796959493929190612fdb565b60405180910390f35b610154600480360381019061014f919061295e565b610979565b6040516101619190612f61565b60405180910390f35b610184600480360381019061017f91906128e6565b610f78565b6040516101919190612f61565b60405180910390f35b6101b460048036038101906101af919061289d565b61147f565b6040516101c19190612f61565b60405180910390f35b6101e460048036038101906101df91906129e9565b6118c6565b6040516101f19190612fa5565b60405180910390f35b610202611b48565b60405161020f9190612fc0565b60405180910390f35b610232600480360381019061022d919061295e565b611c9f565b60405161023f919061309c565b60405180910390f35b610262600480360381019061025d9190612843565b611d8f565b60405161026f9190612f61565b60405180910390f35b610280612193565b60405161028d9190612f46565b60405180910390f35b6102b060048036038101906102ab9190612843565b6121b7565b6040516102bd919061307a565b60405180910390f35b6102e060048036038101906102db919061289d565b612414565b6040516102ed9190613058565b60405180910390f35b610310600480360381019061030b91906128e6565b61256f565b60405161031d9190612fa5565b60405180910390f35b60606000600280549050905060008167ffffffffffffffff81111561034e5761034d61347d565b5b60405190808252806020026020018201604052801561038757816020015b6103746125c8565b81526020019060019003908161036c5790505b509050600080600090505b83811015610720578560088111156103ad576103ac6133f0565b5b60016000600284815481106103c5576103c461344e565b5b9060005260206000200160009054906101000a900473ffffffffffffffffffffffffffffffffffffffff1673ffffffffffffffffffffffffffffffffffffffff1673ffffffffffffffffffffffffffffffffffffffff16815260200190815260200160002060020160009054906101000a900460ff16600881111561044d5761044c6133f0565b5b141561070d57600160006002838154811061046b5761046a61344e565b5b9060005260206000200160009054906101000a900473ffffffffffffffffffffffffffffffffffffffff1673ffffffffffffffffffffffffffffffffffffffff1673ffffffffffffffffffffffffffffffffffffffff1681526020019081526020016000206040518060e00160405290816000820180546104eb90613315565b80601f016020809104026020016040519081016040528092919081815260200182805461051790613315565b80156105645780601f1061053957610100808354040283529160200191610564565b820191906000526020600020905b81548152906001019060200180831161054757829003601f168201915b5050505050815260200160018201805461057d90613315565b80601f01602080910402602001604051908101604052809291908181526020018280546105a990613315565b80156105f65780601f106105cb576101008083540402835291602001916105f6565b820191906000526020600020905b8154815290600101906020018083116105d957829003601f168201915b505050505081526020016002820160009054906101000a900460ff166008811115610624576106236133f0565b5b6008811115610636576106356133f0565b5b81526020016002820160019054906101000a900460ff16600281111561065f5761065e6133f0565b5b6002811115610671576106706133f0565b5b815260200160038201548152602001600482015481526020016005820160009054906101000a900473ffffffffffffffffffffffffffffffffffffffff1673ffffffffffffffffffffffffffffffffffffffff1673ffffffffffffffffffffffffffffffffffffffff16815250508383815181106106f2576106f161344e565b5b602002602001018190525060018261070a91906131b7565b91505b808061071890613378565b915050610392565b508067ffffffffffffffff81111561073b5761073a61347d565b5b60405190808252806020026020018201604052801561077457816020015b6107616125c8565b8152602001906001900390816107595790505b50935060005b818110156107ce578281815181106107955761079461344e565b5b60200260200101518582815181106107b0576107af61344e565b5b602002602001018190525080806107c690613378565b91505061077a565b50505050919050565b600581815481106107e757600080fd5b906000526020600020906007020160009150905080600001805461080a90613315565b80601f016020809104026020016040519081016040528092919081815260200182805461083690613315565b80156108835780601f1061085857610100808354040283529160200191610883565b820191906000526020600020905b81548152906001019060200180831161086657829003601f168201915b50505050509080600101805461089890613315565b80601f01602080910402602001604051908101604052809291908181526020018280546108c490613315565b80156109115780601f106108e657610100808354040283529160200191610911565b820191906000526020600020905b8154815290600101906020018083116108f457829003601f168201915b5050505050908060020154908060030160009054906101000a900473ffffffffffffffffffffffffffffffffffffffff16908060040160009054906101000a900473ffffffffffffffffffffffffffffffffffffffff16908060050154908060060154905087565b606060008060058054905067ffffffffffffffff81111561099d5761099c61347d565b5b6040519080825280602002602001820160405280156109d657816020015b6109c361263f565b8152602001906001900390816109bb5790505b50905060005b600580549050811015610eb657610aa060058281548110610a00576109ff61344e565b5b90600052602060002090600702016001018054610a1c90613315565b80601f0160208091040260200160405190810160405280929190818152602001828054610a4890613315565b8015610a955780601f10610a6a57610100808354040283529160200191610a95565b820191906000526020600020905b815481529060010190602001808311610a7857829003601f168201915b50505050508861256f565b8015610b5f5750610b5e60058281548110610abe57610abd61344e565b5b90600052602060002090600702016000018054610ada90613315565b80601f0160208091040260200160405190810160405280929190818152602001828054610b0690613315565b8015610b535780601f10610b2857610100808354040283529160200191610b53565b820191906000526020600020905b815481529060010190602001808311610b3657829003601f168201915b50505050508761256f565b5b8015610c5657508473ffffffffffffffffffffffffffffffffffffffff1660058281548110610b9157610b9061344e565b5b906000526020600020906007020160040160009054906101000a900473ffffffffffffffffffffffffffffffffffffffff1673ffffffffffffffffffffffffffffffffffffffff161480610c5557508473ffffffffffffffffffffffffffffffffffffffff1660058281548110610c0b57610c0a61344e565b5b906000526020600020906007020160030160009054906101000a900473ffffffffffffffffffffffffffffffffffffffff1673ffffffffffffffffffffffffffffffffffffffff16145b5b15610ea35760058181548110610c6f57610c6e61344e565b5b90600052602060002090600702016040518060e0016040529081600082018054610c9890613315565b80601f0160208091040260200160405190810160405280929190818152602001828054610cc490613315565b8015610d115780601f10610ce657610100808354040283529160200191610d11565b820191906000526020600020905b815481529060010190602001808311610cf457829003601f168201915b50505050508152602001600182018054610d2a90613315565b80601f0160208091040260200160405190810160405280929190818152602001828054610d5690613315565b8015610da35780601f10610d7857610100808354040283529160200191610da3565b820191906000526020600020905b815481529060010190602001808311610d8657829003601f168201915b50505050508152602001600282015481526020016003820160009054906101000a900473ffffffffffffffffffffffffffffffffffffffff1673ffffffffffffffffffffffffffffffffffffffff1673ffffffffffffffffffffffffffffffffffffffff1681526020016004820160009054906101000a900473ffffffffffffffffffffffffffffffffffffffff1673ffffffffffffffffffffffffffffffffffffffff1673ffffffffffffffffffffffffffffffffffffffff16815260200160058201548152602001600682015481525050828481518110610e8957610e8861344e565b5b60200260200101819052508280610e9f90613378565b9350505b8080610eae90613378565b9150506109dc565b508167ffffffffffffffff811115610ed157610ed061347d565b5b604051908082528060200260200182016040528015610f0a57816020015b610ef761263f565b815260200190600190039081610eef5790505b5092506000821115610f6f5760005b82811015610f6d57818181518110610f3457610f3361344e565b5b6020026020010151848281518110610f4f57610f4e61344e565b5b60200260200101819052508080610f6590613378565b915050610f19565b505b50509392505050565b606060008060058054905067ffffffffffffffff811115610f9c57610f9b61347d565b5b604051908082528060200260200182016040528015610fd557816020015b610fc261263f565b815260200190600190039081610fba5790505b50905060005b6005805490508110156113be5761109f60058281548110610fff57610ffe61344e565b5b9060005260206000209060070201600101805461101b90613315565b80601f016020809104026020016040519081016040528092919081815260200182805461104790613315565b80156110945780601f1061106957610100808354040283529160200191611094565b820191906000526020600020905b81548152906001019060200180831161107757829003601f168201915b50505050508761256f565b801561115e575061115d600582815481106110bd576110bc61344e565b5b906000526020600020906007020160000180546110d990613315565b80601f016020809104026020016040519081016040528092919081815260200182805461110590613315565b80156111525780601f1061112757610100808354040283529160200191611152565b820191906000526020600020905b81548152906001019060200180831161113557829003601f168201915b50505050508661256f565b5b156113ab57600581815481106111775761117661344e565b5b90600052602060002090600702016040518060e00160405290816000820180546111a090613315565b80601f01602080910402602001604051908101604052809291908181526020018280546111cc90613315565b80156112195780601f106111ee57610100808354040283529160200191611219565b820191906000526020600020905b8154815290600101906020018083116111fc57829003601f168201915b5050505050815260200160018201805461123290613315565b80601f016020809104026020016040519081016040528092919081815260200182805461125e90613315565b80156112ab5780601f10611280576101008083540402835291602001916112ab565b820191906000526020600020905b81548152906001019060200180831161128e57829003601f168201915b50505050508152602001600282015481526020016003820160009054906101000a900473ffffffffffffffffffffffffffffffffffffffff1673ffffffffffffffffffffffffffffffffffffffff1673ffffffffffffffffffffffffffffffffffffffff1681526020016004820160009054906101000a900473ffffffffffffffffffffffffffffffffffffffff1673ffffffffffffffffffffffffffffffffffffffff1673ffffffffffffffffffffffffffffffffffffffff168152602001600582015481526020016006820154815250508284815181106113915761139061344e565b5b602002602001018190525082806113a790613378565b9350505b80806113b690613378565b915050610fdb565b508167ffffffffffffffff8111156113d9576113d861347d565b5b60405190808252806020026020018201604052801561141257816020015b6113ff61263f565b8152602001906001900390816113f75790505b50925060008211156114775760005b828110156114755781818151811061143c5761143b61344e565b5b60200260200101518482815181106114575761145661344e565b5b6020026020010181905250808061146d90613378565b915050611421565b505b505092915050565b606060008060058054905067ffffffffffffffff8111156114a3576114a261347d565b5b6040519080825280602002602001820160405280156114dc57816020015b6114c961263f565b8152602001906001900390816114c15790505b50905060005b600580549050811015611806576115a6600582815481106115065761150561344e565b5b9060005260206000209060070201600001805461152290613315565b80601f016020809104026020016040519081016040528092919081815260200182805461154e90613315565b801561159b5780601f106115705761010080835404028352916020019161159b565b820191906000526020600020905b81548152906001019060200180831161157e57829003601f168201915b50505050508661256f565b156117f357600581815481106115bf576115be61344e565b5b90600052602060002090600702016040518060e00160405290816000820180546115e890613315565b80601f016020809104026020016040519081016040528092919081815260200182805461161490613315565b80156116615780601f1061163657610100808354040283529160200191611661565b820191906000526020600020905b81548152906001019060200180831161164457829003601f168201915b5050505050815260200160018201805461167a90613315565b80601f01602080910402602001604051908101604052809291908181526020018280546116a690613315565b80156116f35780601f106116c8576101008083540402835291602001916116f3565b820191906000526020600020905b8154815290600101906020018083116116d657829003601f168201915b50505050508152602001600282015481526020016003820160009054906101000a900473ffffffffffffffffffffffffffffffffffffffff1673ffffffffffffffffffffffffffffffffffffffff1673ffffffffffffffffffffffffffffffffffffffff1681526020016004820160009054906101000a900473ffffffffffffffffffffffffffffffffffffffff1673ffffffffffffffffffffffffffffffffffffffff1673ffffffffffffffffffffffffffffffffffffffff168152602001600582015481526020016006820154815250508284815181106117d9576117d861344e565b5b602002602001018190525082806117ef90613378565b9350505b80806117fe90613378565b9150506114e2565b508167ffffffffffffffff8111156118215761182061347d565b5b60405190808252806020026020018201604052801561185a57816020015b61184761263f565b81526020019060019003908161183f5790505b50925060008211156118bf5760005b828110156118bd578181815181106118845761188361344e565b5b602002602001015184828151811061189f5761189e61344e565b5b602002602001018190525080806118b590613378565b915050611869565b505b5050919050565b600080600660088111156118dd576118dc6133f0565b5b8560088111156118f0576118ef6133f0565b5b148061192057506007600881111561190b5761190a6133f0565b5b85600881111561191e5761191d6133f0565b5b145b1561192e5760019050611933565b600090505b6040518060e0016040528088815260200187815260200186600881111561195d5761195c6133f0565b5b8152602001826002811115611975576119746133f0565b5b81526020018581526020018481526020013373ffffffffffffffffffffffffffffffffffffffff16815250600160003373ffffffffffffffffffffffffffffffffffffffff1673ffffffffffffffffffffffffffffffffffffffff16815260200190815260200160002060008201518160000190805190602001906119fb9291906126a8565b506020820151816001019080519060200190611a189291906126a8565b5060408201518160020160006101000a81548160ff02191690836008811115611a4457611a436133f0565b5b021790555060608201518160020160016101000a81548160ff02191690836002811115611a7457611a736133f0565b5b02179055506080820151816003015560a0820151816004015560c08201518160050160006101000a81548173ffffffffffffffffffffffffffffffffffffffff021916908373ffffffffffffffffffffffffffffffffffffffff1602179055509050506002339080600181540180825580915050600190039060005260206000200160009091909190916101000a81548173ffffffffffffffffffffffffffffffffffffffff021916908373ffffffffffffffffffffffffffffffffffffffff160217905550600191505095945050505050565b60008060009054906101000a900473ffffffffffffffffffffffffffffffffffffffff1673ffffffffffffffffffffffffffffffffffffffff163373ffffffffffffffffffffffffffffffffffffffff161415611ba85760009050611c9c565b600073ffffffffffffffffffffffffffffffffffffffff16600160003373ffffffffffffffffffffffffffffffffffffffff1673ffffffffffffffffffffffffffffffffffffffff16815260200190815260200160002060050160009054906101000a900473ffffffffffffffffffffffffffffffffffffffff1673ffffffffffffffffffffffffffffffffffffffff161415611c485760089050611c9b565b600160003373ffffffffffffffffffffffffffffffffffffffff1673ffffffffffffffffffffffffffffffffffffffff16815260200190815260200160002060020160009054906101000a900460ff1690505b5b90565b600080611cad858585610979565b905060008060005b8351811015611d76578573ffffffffffffffffffffffffffffffffffffffff16848281518110611ce857611ce761344e565b5b60200260200101516080015173ffffffffffffffffffffffffffffffffffffffff161415611d3657838181518110611d2357611d2261344e565b5b602002602001015160a001519250611d63565b838181518110611d4957611d4861344e565b5b602002602001015160a0015182611d6091906131b7565b91505b8080611d6e90613378565b915050611cb5565b508082611d83919061320d565b93505050509392505050565b606060008060058054905067ffffffffffffffff811115611db357611db261347d565b5b604051908082528060200260200182016040528015611dec57816020015b611dd961263f565b815260200190600190039081611dd15790505b50905060005b6005805490508110156120d3578473ffffffffffffffffffffffffffffffffffffffff1660058281548110611e2a57611e2961344e565b5b906000526020600020906007020160040160009054906101000a900473ffffffffffffffffffffffffffffffffffffffff1673ffffffffffffffffffffffffffffffffffffffff1614156120c05760058181548110611e8c57611e8b61344e565b5b90600052602060002090600702016040518060e0016040529081600082018054611eb590613315565b80601f0160208091040260200160405190810160405280929190818152602001828054611ee190613315565b8015611f2e5780601f10611f0357610100808354040283529160200191611f2e565b820191906000526020600020905b815481529060010190602001808311611f1157829003601f168201915b50505050508152602001600182018054611f4790613315565b80601f0160208091040260200160405190810160405280929190818152602001828054611f7390613315565b8015611fc05780601f10611f9557610100808354040283529160200191611fc0565b820191906000526020600020905b815481529060010190602001808311611fa357829003601f168201915b50505050508152602001600282015481526020016003820160009054906101000a900473ffffffffffffffffffffffffffffffffffffffff1673ffffffffffffffffffffffffffffffffffffffff1673ffffffffffffffffffffffffffffffffffffffff1681526020016004820160009054906101000a900473ffffffffffffffffffffffffffffffffffffffff1673ffffffffffffffffffffffffffffffffffffffff1673ffffffffffffffffffffffffffffffffffffffff168152602001600582015481526020016006820154815250508284815181106120a6576120a561344e565b5b602002602001018190525082806120bc90613378565b9350505b80806120cb90613378565b915050611df2565b508167ffffffffffffffff8111156120ee576120ed61347d565b5b60405190808252806020026020018201604052801561212757816020015b61211461263f565b81526020019060019003908161210c5790505b509250600082111561218c5760005b8281101561218a578181815181106121515761215061344e565b5b602002602001015184828151811061216c5761216b61344e565b5b6020026020010181905250808061218290613378565b915050612136565b505b5050919050565b60008054906101000a900473ffffffffffffffffffffffffffffffffffffffff1681565b6121bf6125c8565b600160008373ffffffffffffffffffffffffffffffffffffffff1673ffffffffffffffffffffffffffffffffffffffff1681526020019081526020016000206040518060e001604052908160008201805461221990613315565b80601f016020809104026020016040519081016040528092919081815260200182805461224590613315565b80156122925780601f1061226757610100808354040283529160200191612292565b820191906000526020600020905b81548152906001019060200180831161227557829003601f168201915b505050505081526020016001820180546122ab90613315565b80601f01602080910402602001604051908101604052809291908181526020018280546122d790613315565b80156123245780601f106122f957610100808354040283529160200191612324565b820191906000526020600020905b81548152906001019060200180831161230757829003601f168201915b505050505081526020016002820160009054906101000a900460ff166008811115612352576123516133f0565b5b6008811115612364576123636133f0565b5b81526020016002820160019054906101000a900460ff16600281111561238d5761238c6133f0565b5b600281111561239f5761239e6133f0565b5b815260200160038201548152602001600482015481526020016005820160009054906101000a900473ffffffffffffffffffffffffffffffffffffffff1673ffffffffffffffffffffffffffffffffffffffff1673ffffffffffffffffffffffffffffffffffffffff16815250509050919050565b61241c61272e565b60038260405161242c9190612f2f565b908152602001604051809103902060405180606001604052908160008201805461245590613315565b80601f016020809104026020016040519081016040528092919081815260200182805461248190613315565b80156124ce5780601f106124a3576101008083540402835291602001916124ce565b820191906000526020600020905b8154815290600101906020018083116124b157829003601f168201915b505050505081526020016001820160009054906101000a900473ffffffffffffffffffffffffffffffffffffffff1673ffffffffffffffffffffffffffffffffffffffff1673ffffffffffffffffffffffffffffffffffffffff1681526020016001820160149054906101000a900460ff166002811115612552576125516133f0565b5b6002811115612564576125636133f0565b5b815250509050919050565b6000816040516020016125829190612f2f565b60405160208183030381529060405280519060200120836040516020016125a99190612f2f565b6040516020818303038152906040528051906020012014905092915050565b6040518060e001604052806060815260200160608152602001600060088111156125f5576125f46133f0565b5b81526020016000600281111561260e5761260d6133f0565b5b81526020016000815260200160008152602001600073ffffffffffffffffffffffffffffffffffffffff1681525090565b6040518060e00160405280606081526020016060815260200160008152602001600073ffffffffffffffffffffffffffffffffffffffff168152602001600073ffffffffffffffffffffffffffffffffffffffff16815260200160008152602001600081525090565b8280546126b490613315565b90600052602060002090601f0160209004810192826126d6576000855561271d565b82601f106126ef57805160ff191683800117855561271d565b8280016001018555821561271d579182015b8281111561271c578251825591602001919060010190612701565b5b50905061272a9190612777565b5090565b604051806060016040528060608152602001600073ffffffffffffffffffffffffffffffffffffffff16815260200160006002811115612771576127706133f0565b5b81525090565b5b80821115612790576000816000905550600101612778565b5090565b60006127a76127a2846130dc565b6130b7565b9050828152602081018484840111156127c3576127c26134b1565b5b6127ce8482856132d3565b509392505050565b6000813590506127e5816134f9565b92915050565b6000813590506127fa81613510565b92915050565b600082601f830112612815576128146134ac565b5b8135612825848260208601612794565b91505092915050565b60008135905061283d81613520565b92915050565b600060208284031215612859576128586134bb565b5b6000612867848285016127d6565b91505092915050565b600060208284031215612886576128856134bb565b5b6000612894848285016127eb565b91505092915050565b6000602082840312156128b3576128b26134bb565b5b600082013567ffffffffffffffff8111156128d1576128d06134b6565b5b6128dd84828501612800565b91505092915050565b600080604083850312156128fd576128fc6134bb565b5b600083013567ffffffffffffffff81111561291b5761291a6134b6565b5b61292785828601612800565b925050602083013567ffffffffffffffff811115612948576129476134b6565b5b61295485828601612800565b9150509250929050565b600080600060608486031215612977576129766134bb565b5b600084013567ffffffffffffffff811115612995576129946134b6565b5b6129a186828701612800565b935050602084013567ffffffffffffffff8111156129c2576129c16134b6565b5b6129ce86828701612800565b92505060406129df868287016127d6565b9150509250925092565b600080600080600060a08688031215612a0557612a046134bb565b5b600086013567ffffffffffffffff811115612a2357612a226134b6565b5b612a2f88828901612800565b955050602086013567ffffffffffffffff811115612a5057612a4f6134b6565b5b612a5c88828901612800565b9450506040612a6d888289016127eb565b9350506060612a7e8882890161282e565b9250506080612a8f8882890161282e565b9150509295509295909350565b600060208284031215612ab257612ab16134bb565b5b6000612ac08482850161282e565b91505092915050565b6000612ad58383612d28565b905092915050565b6000612ae98383612dcb565b905092915050565b612afa81613241565b82525050565b612b0981613241565b82525050565b6000612b1a8261312d565b612b248185613168565b935083602082028501612b368561310d565b8060005b85811015612b725784840389528151612b538582612ac9565b9450612b5e8361314e565b925060208a01995050600181019050612b3a565b50829750879550505050505092915050565b6000612b8f82613138565b612b998185613179565b935083602082028501612bab8561311d565b8060005b85811015612be75784840389528151612bc88582612add565b9450612bd38361315b565b925060208a01995050600181019050612baf565b50829750879550505050505092915050565b612c0281613253565b82525050565b612c11816132af565b82525050565b612c20816132c1565b82525050565b612c2f816132c1565b82525050565b6000612c4082613143565b612c4a818561318a565b9350612c5a8185602086016132e2565b612c63816134c0565b840191505092915050565b6000612c7982613143565b612c83818561319b565b9350612c938185602086016132e2565b612c9c816134c0565b840191505092915050565b6000612cb282613143565b612cbc81856131ac565b9350612ccc8185602086016132e2565b80840191505092915050565b60006060830160008301518482036000860152612cf58282612c35565b9150506020830151612d0a6020860182612af1565b506040830151612d1d6040860182612c08565b508091505092915050565b600060e0830160008301518482036000860152612d458282612c35565b91505060208301518482036020860152612d5f8282612c35565b9150506040830151612d746040860182612f11565b506060830151612d876060860182612af1565b506080830151612d9a6080860182612af1565b5060a0830151612dad60a0860182612f11565b5060c0830151612dc060c0860182612f11565b508091505092915050565b600060e0830160008301518482036000860152612de88282612c35565b91505060208301518482036020860152612e028282612c35565b9150506040830151612e176040860182612c17565b506060830151612e2a6060860182612c08565b506080830151612e3d6080860182612f11565b5060a0830151612e5060a0860182612f11565b5060c0830151612e6360c0860182612af1565b508091505092915050565b600060e0830160008301518482036000860152612e8b8282612c35565b91505060208301518482036020860152612ea58282612c35565b9150506040830151612eba6040860182612c17565b506060830151612ecd6060860182612c08565b506080830151612ee06080860182612f11565b5060a0830151612ef360a0860182612f11565b5060c0830151612f0660c0860182612af1565b508091505092915050565b612f1a816132a5565b82525050565b612f29816132a5565b82525050565b6000612f3b8284612ca7565b915081905092915050565b6000602082019050612f5b6000830184612b00565b92915050565b60006020820190508181036000830152612f7b8184612b0f565b905092915050565b60006020820190508181036000830152612f9d8184612b84565b905092915050565b6000602082019050612fba6000830184612bf9565b92915050565b6000602082019050612fd56000830184612c26565b92915050565b600060e0820190508181036000830152612ff5818a612c6e565b905081810360208301526130098189612c6e565b90506130186040830188612f20565b6130256060830187612b00565b6130326080830186612b00565b61303f60a0830185612f20565b61304c60c0830184612f20565b98975050505050505050565b600060208201905081810360008301526130728184612cd8565b905092915050565b600060208201905081810360008301526130948184612e6e565b905092915050565b60006020820190506130b16000830184612f20565b92915050565b60006130c16130d2565b90506130cd8282613347565b919050565b6000604051905090565b600067ffffffffffffffff8211156130f7576130f661347d565b5b613100826134c0565b9050602081019050919050565b6000819050602082019050919050565b6000819050602082019050919050565b600081519050919050565b600081519050919050565b600081519050919050565b6000602082019050919050565b6000602082019050919050565b600082825260208201905092915050565b600082825260208201905092915050565b600082825260208201905092915050565b600082825260208201905092915050565b600081905092915050565b60006131c2826132a5565b91506131cd836132a5565b9250827fffffffffffffffffffffffffffffffffffffffffffffffffffffffffffffffff03821115613202576132016133c1565b5b828201905092915050565b6000613218826132a5565b9150613223836132a5565b925082821015613236576132356133c1565b5b828203905092915050565b600061324c82613285565b9050919050565b60008115159050919050565b600081905061326d826134d1565b919050565b6000819050613280826134e5565b919050565b600073ffffffffffffffffffffffffffffffffffffffff82169050919050565b6000819050919050565b60006132ba8261325f565b9050919050565b60006132cc82613272565b9050919050565b82818337600083830152505050565b60005b838110156133005780820151818401526020810190506132e5565b8381111561330f576000848401525b50505050565b6000600282049050600182168061332d57607f821691505b602082108114156133415761334061341f565b5b50919050565b613350826134c0565b810181811067ffffffffffffffff8211171561336f5761336e61347d565b5b80604052505050565b6000613383826132a5565b91507fffffffffffffffffffffffffffffffffffffffffffffffffffffffffffffffff8214156133b6576133b56133c1565b5b600182019050919050565b7f4e487b7100000000000000000000000000000000000000000000000000000000600052601160045260246000fd5b7f4e487b7100000000000000000000000000000000000000000000000000000000600052602160045260246000fd5b7f4e487b7100000000000000000000000000000000000000000000000000000000600052602260045260246000fd5b7f4e487b7100000000000000000000000000000000000000000000000000000000600052603260045260246000fd5b7f4e487b7100000000000000000000000000000000000000000000000000000000600052604160045260246000fd5b600080fd5b600080fd5b600080fd5b600080fd5b6000601f19601f8301169050919050565b600381106134e2576134e16133f0565b5b50565b600981106134f6576134f56133f0565b5b50565b61350281613241565b811461350d57600080fd5b50565b6009811061351d57600080fd5b50565b613529816132a5565b811461353457600080fd5b5056fea2646970667358221220e4d6fabdc69179057439d1c63e8197ad245d3db5dd3c0cc57a3a03888d31edf964736f6c63430008070033",
			"opcodes": "PUSH1 0x80 PUSH1 0x40 MSTORE CALLVALUE DUP1 ISZERO PUSH2 0x10 JUMPI PUSH1 0x0 DUP1 REVERT JUMPDEST POP PUSH2 0x356D DUP1 PUSH2 0x20 PUSH1 0x0 CODECOPY PUSH1 0x0 RETURN INVALID PUSH1 0x80 PUSH1 0x40 MSTORE CALLVALUE DUP1 ISZERO PUSH2 0x10 JUMPI PUSH1 0x0 DUP1 REVERT JUMPDEST POP PUSH1 0x4 CALLDATASIZE LT PUSH2 0xCF JUMPI PUSH1 0x0 CALLDATALOAD PUSH1 0xE0 SHR DUP1 PUSH4 0x783A7895 GT PUSH2 0x8C JUMPI DUP1 PUSH4 0xB4A99A4E GT PUSH2 0x66 JUMPI DUP1 PUSH4 0xB4A99A4E EQ PUSH2 0x278 JUMPI DUP1 PUSH4 0xCD1720D1 EQ PUSH2 0x296 JUMPI DUP1 PUSH4 0xCDF7E73D EQ PUSH2 0x2C6 JUMPI DUP1 PUSH4 0xE9A734FF EQ PUSH2 0x2F6 JUMPI PUSH2 0xCF JUMP JUMPDEST DUP1 PUSH4 0x783A7895 EQ PUSH2 0x1FA JUMPI DUP1 PUSH4 0x798D2122 EQ PUSH2 0x218 JUMPI DUP1 PUSH4 0x99B5BBDD EQ PUSH2 0x248 JUMPI PUSH2 0xCF JUMP JUMPDEST DUP1 PUSH4 0xF9DE977 EQ PUSH2 0xD4 JUMPI DUP1 PUSH4 0x1567697C EQ PUSH2 0x104 JUMPI DUP1 PUSH4 0x31A6DB4D EQ PUSH2 0x13A JUMPI DUP1 PUSH4 0x40D37CAF EQ PUSH2 0x16A JUMPI DUP1 PUSH4 0x4B2D14AA EQ PUSH2 0x19A JUMPI DUP1 PUSH4 0x64819AE0 EQ PUSH2 0x1CA JUMPI JUMPDEST PUSH1 0x0 DUP1 REVERT JUMPDEST PUSH2 0xEE PUSH1 0x4 DUP1 CALLDATASIZE SUB DUP2 ADD SWAP1 PUSH2 0xE9 SWAP2 SWAP1 PUSH2 0x2870 JUMP JUMPDEST PUSH2 0x326 JUMP JUMPDEST PUSH1 0x40 MLOAD PUSH2 0xFB SWAP2 SWAP1 PUSH2 0x2F83 JUMP JUMPDEST PUSH1 0x40 MLOAD DUP1 SWAP2 SUB SWAP1 RETURN JUMPDEST PUSH2 0x11E PUSH1 0x4 DUP1 CALLDATASIZE SUB DUP2 ADD SWAP1 PUSH2 0x119 SWAP2 SWAP1 PUSH2 0x2A9C JUMP JUMPDEST PUSH2 0x7D7 JUMP JUMPDEST PUSH1 0x40 MLOAD PUSH2 0x131 SWAP8 SWAP7 SWAP6 SWAP5 SWAP4 SWAP3 SWAP2 SWAP1 PUSH2 0x2FDB JUMP JUMPDEST PUSH1 0x40 MLOAD DUP1 SWAP2 SUB SWAP1 RETURN JUMPDEST PUSH2 0x154 PUSH1 0x4 DUP1 CALLDATASIZE SUB DUP2 ADD SWAP1 PUSH2 0x14F SWAP2 SWAP1 PUSH2 0x295E JUMP JUMPDEST PUSH2 0x979 JUMP JUMPDEST PUSH1 0x40 MLOAD PUSH2 0x161 SWAP2 SWAP1 PUSH2 0x2F61 JUMP JUMPDEST PUSH1 0x40 MLOAD DUP1 SWAP2 SUB SWAP1 RETURN JUMPDEST PUSH2 0x184 PUSH1 0x4 DUP1 CALLDATASIZE SUB DUP2 ADD SWAP1 PUSH2 0x17F SWAP2 SWAP1 PUSH2 0x28E6 JUMP JUMPDEST PUSH2 0xF78 JUMP JUMPDEST PUSH1 0x40 MLOAD PUSH2 0x191 SWAP2 SWAP1 PUSH2 0x2F61 JUMP JUMPDEST PUSH1 0x40 MLOAD DUP1 SWAP2 SUB SWAP1 RETURN JUMPDEST PUSH2 0x1B4 PUSH1 0x4 DUP1 CALLDATASIZE SUB DUP2 ADD SWAP1 PUSH2 0x1AF SWAP2 SWAP1 PUSH2 0x289D JUMP JUMPDEST PUSH2 0x147F JUMP JUMPDEST PUSH1 0x40 MLOAD PUSH2 0x1C1 SWAP2 SWAP1 PUSH2 0x2F61 JUMP JUMPDEST PUSH1 0x40 MLOAD DUP1 SWAP2 SUB SWAP1 RETURN JUMPDEST PUSH2 0x1E4 PUSH1 0x4 DUP1 CALLDATASIZE SUB DUP2 ADD SWAP1 PUSH2 0x1DF SWAP2 SWAP1 PUSH2 0x29E9 JUMP JUMPDEST PUSH2 0x18C6 JUMP JUMPDEST PUSH1 0x40 MLOAD PUSH2 0x1F1 SWAP2 SWAP1 PUSH2 0x2FA5 JUMP JUMPDEST PUSH1 0x40 MLOAD DUP1 SWAP2 SUB SWAP1 RETURN JUMPDEST PUSH2 0x202 PUSH2 0x1B48 JUMP JUMPDEST PUSH1 0x40 MLOAD PUSH2 0x20F SWAP2 SWAP1 PUSH2 0x2FC0 JUMP JUMPDEST PUSH1 0x40 MLOAD DUP1 SWAP2 SUB SWAP1 RETURN JUMPDEST PUSH2 0x232 PUSH1 0x4 DUP1 CALLDATASIZE SUB DUP2 ADD SWAP1 PUSH2 0x22D SWAP2 SWAP1 PUSH2 0x295E JUMP JUMPDEST PUSH2 0x1C9F JUMP JUMPDEST PUSH1 0x40 MLOAD PUSH2 0x23F SWAP2 SWAP1 PUSH2 0x309C JUMP JUMPDEST PUSH1 0x40 MLOAD DUP1 SWAP2 SUB SWAP1 RETURN JUMPDEST PUSH2 0x262 PUSH1 0x4 DUP1 CALLDATASIZE SUB DUP2 ADD SWAP1 PUSH2 0x25D SWAP2 SWAP1 PUSH2 0x2843 JUMP JUMPDEST PUSH2 0x1D8F JUMP JUMPDEST PUSH1 0x40 MLOAD PUSH2 0x26F SWAP2 SWAP1 PUSH2 0x2F61 JUMP JUMPDEST PUSH1 0x40 MLOAD DUP1 SWAP2 SUB SWAP1 RETURN JUMPDEST PUSH2 0x280 PUSH2 0x2193 JUMP JUMPDEST PUSH1 0x40 MLOAD PUSH2 0x28D SWAP2 SWAP1 PUSH2 0x2F46 JUMP JUMPDEST PUSH1 0x40 MLOAD DUP1 SWAP2 SUB SWAP1 RETURN JUMPDEST PUSH2 0x2B0 PUSH1 0x4 DUP1 CALLDATASIZE SUB DUP2 ADD SWAP1 PUSH2 0x2AB SWAP2 SWAP1 PUSH2 0x2843 JUMP JUMPDEST PUSH2 0x21B7 JUMP JUMPDEST PUSH1 0x40 MLOAD PUSH2 0x2BD SWAP2 SWAP1 PUSH2 0x307A JUMP JUMPDEST PUSH1 0x40 MLOAD DUP1 SWAP2 SUB SWAP1 RETURN JUMPDEST PUSH2 0x2E0 PUSH1 0x4 DUP1 CALLDATASIZE SUB DUP2 ADD SWAP1 PUSH2 0x2DB SWAP2 SWAP1 PUSH2 0x289D JUMP JUMPDEST PUSH2 0x2414 JUMP JUMPDEST PUSH1 0x40 MLOAD PUSH2 0x2ED SWAP2 SWAP1 PUSH2 0x3058 JUMP JUMPDEST PUSH1 0x40 MLOAD DUP1 SWAP2 SUB SWAP1 RETURN JUMPDEST PUSH2 0x310 PUSH1 0x4 DUP1 CALLDATASIZE SUB DUP2 ADD SWAP1 PUSH2 0x30B SWAP2 SWAP1 PUSH2 0x28E6 JUMP JUMPDEST PUSH2 0x256F JUMP JUMPDEST PUSH1 0x40 MLOAD PUSH2 0x31D SWAP2 SWAP1 PUSH2 0x2FA5 JUMP JUMPDEST PUSH1 0x40 MLOAD DUP1 SWAP2 SUB SWAP1 RETURN JUMPDEST PUSH1 0x60 PUSH1 0x0 PUSH1 0x2 DUP1 SLOAD SWAP1 POP SWAP1 POP PUSH1 0x0 DUP2 PUSH8 0xFFFFFFFFFFFFFFFF DUP2 GT ISZERO PUSH2 0x34E JUMPI PUSH2 0x34D PUSH2 0x347D JUMP JUMPDEST JUMPDEST PUSH1 0x40 MLOAD SWAP1 DUP1 DUP3 MSTORE DUP1 PUSH1 0x20 MUL PUSH1 0x20 ADD DUP3 ADD PUSH1 0x40 MSTORE DUP1 ISZERO PUSH2 0x387 JUMPI DUP2 PUSH1 0x20 ADD JUMPDEST PUSH2 0x374 PUSH2 0x25C8 JUMP JUMPDEST DUP2 MSTORE PUSH1 0x20 ADD SWAP1 PUSH1 0x1 SWAP1 SUB SWAP1 DUP2 PUSH2 0x36C JUMPI SWAP1 POP JUMPDEST POP SWAP1 POP PUSH1 0x0 DUP1 PUSH1 0x0 SWAP1 POP JUMPDEST DUP4 DUP2 LT ISZERO PUSH2 0x720 JUMPI DUP6 PUSH1 0x8 DUP2 GT ISZERO PUSH2 0x3AD JUMPI PUSH2 0x3AC PUSH2 0x33F0 JUMP JUMPDEST JUMPDEST PUSH1 0x1 PUSH1 0x0 PUSH1 0x2 DUP5 DUP2 SLOAD DUP2 LT PUSH2 0x3C5 JUMPI PUSH2 0x3C4 PUSH2 0x344E JUMP JUMPDEST JUMPDEST SWAP1 PUSH1 0x0 MSTORE PUSH1 0x20 PUSH1 0x0 KECCAK256 ADD PUSH1 0x0 SWAP1 SLOAD SWAP1 PUSH2 0x100 EXP SWAP1 DIV PUSH20 0xFFFFFFFFFFFFFFFFFFFFFFFFFFFFFFFFFFFFFFFF AND PUSH20 0xFFFFFFFFFFFFFFFFFFFFFFFFFFFFFFFFFFFFFFFF AND PUSH20 0xFFFFFFFFFFFFFFFFFFFFFFFFFFFFFFFFFFFFFFFF AND DUP2 MSTORE PUSH1 0x20 ADD SWAP1 DUP2 MSTORE PUSH1 0x20 ADD PUSH1 0x0 KECCAK256 PUSH1 0x2 ADD PUSH1 0x0 SWAP1 SLOAD SWAP1 PUSH2 0x100 EXP SWAP1 DIV PUSH1 0xFF AND PUSH1 0x8 DUP2 GT ISZERO PUSH2 0x44D JUMPI PUSH2 0x44C PUSH2 0x33F0 JUMP JUMPDEST JUMPDEST EQ ISZERO PUSH2 0x70D JUMPI PUSH1 0x1 PUSH1 0x0 PUSH1 0x2 DUP4 DUP2 SLOAD DUP2 LT PUSH2 0x46B JUMPI PUSH2 0x46A PUSH2 0x344E JUMP JUMPDEST JUMPDEST SWAP1 PUSH1 0x0 MSTORE PUSH1 0x20 PUSH1 0x0 KECCAK256 ADD PUSH1 0x0 SWAP1 SLOAD SWAP1 PUSH2 0x100 EXP SWAP1 DIV PUSH20 0xFFFFFFFFFFFFFFFFFFFFFFFFFFFFFFFFFFFFFFFF AND PUSH20 0xFFFFFFFFFFFFFFFFFFFFFFFFFFFFFFFFFFFFFFFF AND PUSH20 0xFFFFFFFFFFFFFFFFFFFFFFFFFFFFFFFFFFFFFFFF AND DUP2 MSTORE PUSH1 0x20 ADD SWAP1 DUP2 MSTORE PUSH1 0x20 ADD PUSH1 0x0 KECCAK256 PUSH1 0x40 MLOAD DUP1 PUSH1 0xE0 ADD PUSH1 0x40 MSTORE SWAP1 DUP2 PUSH1 0x0 DUP3 ADD DUP1 SLOAD PUSH2 0x4EB SWAP1 PUSH2 0x3315 JUMP JUMPDEST DUP1 PUSH1 0x1F ADD PUSH1 0x20 DUP1 SWAP2 DIV MUL PUSH1 0x20 ADD PUSH1 0x40 MLOAD SWAP1 DUP2 ADD PUSH1 0x40 MSTORE DUP1 SWAP3 SWAP2 SWAP1 DUP2 DUP2 MSTORE PUSH1 0x20 ADD DUP3 DUP1 SLOAD PUSH2 0x517 SWAP1 PUSH2 0x3315 JUMP JUMPDEST DUP1 ISZERO PUSH2 0x564 JUMPI DUP1 PUSH1 0x1F LT PUSH2 0x539 JUMPI PUSH2 0x100 DUP1 DUP4 SLOAD DIV MUL DUP4 MSTORE SWAP2 PUSH1 0x20 ADD SWAP2 PUSH2 0x564 JUMP JUMPDEST DUP3 ADD SWAP2 SWAP1 PUSH1 0x0 MSTORE PUSH1 0x20 PUSH1 0x0 KECCAK256 SWAP1 JUMPDEST DUP2 SLOAD DUP2 MSTORE SWAP1 PUSH1 0x1 ADD SWAP1 PUSH1 0x20 ADD DUP1 DUP4 GT PUSH2 0x547 JUMPI DUP3 SWAP1 SUB PUSH1 0x1F AND DUP3 ADD SWAP2 JUMPDEST POP POP POP POP POP DUP2 MSTORE PUSH1 0x20 ADD PUSH1 0x1 DUP3 ADD DUP1 SLOAD PUSH2 0x57D SWAP1 PUSH2 0x3315 JUMP JUMPDEST DUP1 PUSH1 0x1F ADD PUSH1 0x20 DUP1 SWAP2 DIV MUL PUSH1 0x20 ADD PUSH1 0x40 MLOAD SWAP1 DUP2 ADD PUSH1 0x40 MSTORE DUP1 SWAP3 SWAP2 SWAP1 DUP2 DUP2 MSTORE PUSH1 0x20 ADD DUP3 DUP1 SLOAD PUSH2 0x5A9 SWAP1 PUSH2 0x3315 JUMP JUMPDEST DUP1 ISZERO PUSH2 0x5F6 JUMPI DUP1 PUSH1 0x1F LT PUSH2 0x5CB JUMPI PUSH2 0x100 DUP1 DUP4 SLOAD DIV MUL DUP4 MSTORE SWAP2 PUSH1 0x20 ADD SWAP2 PUSH2 0x5F6 JUMP JUMPDEST DUP3 ADD SWAP2 SWAP1 PUSH1 0x0 MSTORE PUSH1 0x20 PUSH1 0x0 KECCAK256 SWAP1 JUMPDEST DUP2 SLOAD DUP2 MSTORE SWAP1 PUSH1 0x1 ADD SWAP1 PUSH1 0x20 ADD DUP1 DUP4 GT PUSH2 0x5D9 JUMPI DUP3 SWAP1 SUB PUSH1 0x1F AND DUP3 ADD SWAP2 JUMPDEST POP POP POP POP POP DUP2 MSTORE PUSH1 0x20 ADD PUSH1 0x2 DUP3 ADD PUSH1 0x0 SWAP1 SLOAD SWAP1 PUSH2 0x100 EXP SWAP1 DIV PUSH1 0xFF AND PUSH1 0x8 DUP2 GT ISZERO PUSH2 0x624 JUMPI PUSH2 0x623 PUSH2 0x33F0 JUMP JUMPDEST JUMPDEST PUSH1 0x8 DUP2 GT ISZERO PUSH2 0x636 JUMPI PUSH2 0x635 PUSH2 0x33F0 JUMP JUMPDEST JUMPDEST DUP2 MSTORE PUSH1 0x20 ADD PUSH1 0x2 DUP3 ADD PUSH1 0x1 SWAP1 SLOAD SWAP1 PUSH2 0x100 EXP SWAP1 DIV PUSH1 0xFF AND PUSH1 0x2 DUP2 GT ISZERO PUSH2 0x65F JUMPI PUSH2 0x65E PUSH2 0x33F0 JUMP JUMPDEST JUMPDEST PUSH1 0x2 DUP2 GT ISZERO PUSH2 0x671 JUMPI PUSH2 0x670 PUSH2 0x33F0 JUMP JUMPDEST JUMPDEST DUP2 MSTORE PUSH1 0x20 ADD PUSH1 0x3 DUP3 ADD SLOAD DUP2 MSTORE PUSH1 0x20 ADD PUSH1 0x4 DUP3 ADD SLOAD DUP2 MSTORE PUSH1 0x20 ADD PUSH1 0x5 DUP3 ADD PUSH1 0x0 SWAP1 SLOAD SWAP1 PUSH2 0x100 EXP SWAP1 DIV PUSH20 0xFFFFFFFFFFFFFFFFFFFFFFFFFFFFFFFFFFFFFFFF AND PUSH20 0xFFFFFFFFFFFFFFFFFFFFFFFFFFFFFFFFFFFFFFFF AND PUSH20 0xFFFFFFFFFFFFFFFFFFFFFFFFFFFFFFFFFFFFFFFF AND DUP2 MSTORE POP POP DUP4 DUP4 DUP2 MLOAD DUP2 LT PUSH2 0x6F2 JUMPI PUSH2 0x6F1 PUSH2 0x344E JUMP JUMPDEST JUMPDEST PUSH1 0x20 MUL PUSH1 0x20 ADD ADD DUP2 SWAP1 MSTORE POP PUSH1 0x1 DUP3 PUSH2 0x70A SWAP2 SWAP1 PUSH2 0x31B7 JUMP JUMPDEST SWAP2 POP JUMPDEST DUP1 DUP1 PUSH2 0x718 SWAP1 PUSH2 0x3378 JUMP JUMPDEST SWAP2 POP POP PUSH2 0x392 JUMP JUMPDEST POP DUP1 PUSH8 0xFFFFFFFFFFFFFFFF DUP2 GT ISZERO PUSH2 0x73B JUMPI PUSH2 0x73A PUSH2 0x347D JUMP JUMPDEST JUMPDEST PUSH1 0x40 MLOAD SWAP1 DUP1 DUP3 MSTORE DUP1 PUSH1 0x20 MUL PUSH1 0x20 ADD DUP3 ADD PUSH1 0x40 MSTORE DUP1 ISZERO PUSH2 0x774 JUMPI DUP2 PUSH1 0x20 ADD JUMPDEST PUSH2 0x761 PUSH2 0x25C8 JUMP JUMPDEST DUP2 MSTORE PUSH1 0x20 ADD SWAP1 PUSH1 0x1 SWAP1 SUB SWAP1 DUP2 PUSH2 0x759 JUMPI SWAP1 POP JUMPDEST POP SWAP4 POP PUSH1 0x0 JUMPDEST DUP2 DUP2 LT ISZERO PUSH2 0x7CE JUMPI DUP3 DUP2 DUP2 MLOAD DUP2 LT PUSH2 0x795 JUMPI PUSH2 0x794 PUSH2 0x344E JUMP JUMPDEST JUMPDEST PUSH1 0x20 MUL PUSH1 0x20 ADD ADD MLOAD DUP6 DUP3 DUP2 MLOAD DUP2 LT PUSH2 0x7B0 JUMPI PUSH2 0x7AF PUSH2 0x344E JUMP JUMPDEST JUMPDEST PUSH1 0x20 MUL PUSH1 0x20 ADD ADD DUP2 SWAP1 MSTORE POP DUP1 DUP1 PUSH2 0x7C6 SWAP1 PUSH2 0x3378 JUMP JUMPDEST SWAP2 POP POP PUSH2 0x77A JUMP JUMPDEST POP POP POP POP SWAP2 SWAP1 POP JUMP JUMPDEST PUSH1 0x5 DUP2 DUP2 SLOAD DUP2 LT PUSH2 0x7E7 JUMPI PUSH1 0x0 DUP1 REVERT JUMPDEST SWAP1 PUSH1 0x0 MSTORE PUSH1 0x20 PUSH1 0x0 KECCAK256 SWAP1 PUSH1 0x7 MUL ADD PUSH1 0x0 SWAP2 POP SWAP1 POP DUP1 PUSH1 0x0 ADD DUP1 SLOAD PUSH2 0x80A SWAP1 PUSH2 0x3315 JUMP JUMPDEST DUP1 PUSH1 0x1F ADD PUSH1 0x20 DUP1 SWAP2 DIV MUL PUSH1 0x20 ADD PUSH1 0x40 MLOAD SWAP1 DUP2 ADD PUSH1 0x40 MSTORE DUP1 SWAP3 SWAP2 SWAP1 DUP2 DUP2 MSTORE PUSH1 0x20 ADD DUP3 DUP1 SLOAD PUSH2 0x836 SWAP1 PUSH2 0x3315 JUMP JUMPDEST DUP1 ISZERO PUSH2 0x883 JUMPI DUP1 PUSH1 0x1F LT PUSH2 0x858 JUMPI PUSH2 0x100 DUP1 DUP4 SLOAD DIV MUL DUP4 MSTORE SWAP2 PUSH1 0x20 ADD SWAP2 PUSH2 0x883 JUMP JUMPDEST DUP3 ADD SWAP2 SWAP1 PUSH1 0x0 MSTORE PUSH1 0x20 PUSH1 0x0 KECCAK256 SWAP1 JUMPDEST DUP2 SLOAD DUP2 MSTORE SWAP1 PUSH1 0x1 ADD SWAP1 PUSH1 0x20 ADD DUP1 DUP4 GT PUSH2 0x866 JUMPI DUP3 SWAP1 SUB PUSH1 0x1F AND DUP3 ADD SWAP2 JUMPDEST POP POP POP POP POP SWAP1 DUP1 PUSH1 0x1 ADD DUP1 SLOAD PUSH2 0x898 SWAP1 PUSH2 0x3315 JUMP JUMPDEST DUP1 PUSH1 0x1F ADD PUSH1 0x20 DUP1 SWAP2 DIV MUL PUSH1 0x20 ADD PUSH1 0x40 MLOAD SWAP1 DUP2 ADD PUSH1 0x40 MSTORE DUP1 SWAP3 SWAP2 SWAP1 DUP2 DUP2 MSTORE PUSH1 0x20 ADD DUP3 DUP1 SLOAD PUSH2 0x8C4 SWAP1 PUSH2 0x3315 JUMP JUMPDEST DUP1 ISZERO PUSH2 0x911 JUMPI DUP1 PUSH1 0x1F LT PUSH2 0x8E6 JUMPI PUSH2 0x100 DUP1 DUP4 SLOAD DIV MUL DUP4 MSTORE SWAP2 PUSH1 0x20 ADD SWAP2 PUSH2 0x911 JUMP JUMPDEST DUP3 ADD SWAP2 SWAP1 PUSH1 0x0 MSTORE PUSH1 0x20 PUSH1 0x0 KECCAK256 SWAP1 JUMPDEST DUP2 SLOAD DUP2 MSTORE SWAP1 PUSH1 0x1 ADD SWAP1 PUSH1 0x20 ADD DUP1 DUP4 GT PUSH2 0x8F4 JUMPI DUP3 SWAP1 SUB PUSH1 0x1F AND DUP3 ADD SWAP2 JUMPDEST POP POP POP POP POP SWAP1 DUP1 PUSH1 0x2 ADD SLOAD SWAP1 DUP1 PUSH1 0x3 ADD PUSH1 0x0 SWAP1 SLOAD SWAP1 PUSH2 0x100 EXP SWAP1 DIV PUSH20 0xFFFFFFFFFFFFFFFFFFFFFFFFFFFFFFFFFFFFFFFF AND SWAP1 DUP1 PUSH1 0x4 ADD PUSH1 0x0 SWAP1 SLOAD SWAP1 PUSH2 0x100 EXP SWAP1 DIV PUSH20 0xFFFFFFFFFFFFFFFFFFFFFFFFFFFFFFFFFFFFFFFF AND SWAP1 DUP1 PUSH1 0x5 ADD SLOAD SWAP1 DUP1 PUSH1 0x6 ADD SLOAD SWAP1 POP DUP8 JUMP JUMPDEST PUSH1 0x60 PUSH1 0x0 DUP1 PUSH1 0x5 DUP1 SLOAD SWAP1 POP PUSH8 0xFFFFFFFFFFFFFFFF DUP2 GT ISZERO PUSH2 0x99D JUMPI PUSH2 0x99C PUSH2 0x347D JUMP JUMPDEST JUMPDEST PUSH1 0x40 MLOAD SWAP1 DUP1 DUP3 MSTORE DUP1 PUSH1 0x20 MUL PUSH1 0x20 ADD DUP3 ADD PUSH1 0x40 MSTORE DUP1 ISZERO PUSH2 0x9D6 JUMPI DUP2 PUSH1 0x20 ADD JUMPDEST PUSH2 0x9C3 PUSH2 0x263F JUMP JUMPDEST DUP2 MSTORE PUSH1 0x20 ADD SWAP1 PUSH1 0x1 SWAP1 SUB SWAP1 DUP2 PUSH2 0x9BB JUMPI SWAP1 POP JUMPDEST POP SWAP1 POP PUSH1 0x0 JUMPDEST PUSH1 0x5 DUP1 SLOAD SWAP1 POP DUP2 LT ISZERO PUSH2 0xEB6 JUMPI PUSH2 0xAA0 PUSH1 0x5 DUP3 DUP2 SLOAD DUP2 LT PUSH2 0xA00 JUMPI PUSH2 0x9FF PUSH2 0x344E JUMP JUMPDEST JUMPDEST SWAP1 PUSH1 0x0 MSTORE PUSH1 0x20 PUSH1 0x0 KECCAK256 SWAP1 PUSH1 0x7 MUL ADD PUSH1 0x1 ADD DUP1 SLOAD PUSH2 0xA1C SWAP1 PUSH2 0x3315 JUMP JUMPDEST DUP1 PUSH1 0x1F ADD PUSH1 0x20 DUP1 SWAP2 DIV MUL PUSH1 0x20 ADD PUSH1 0x40 MLOAD SWAP1 DUP2 ADD PUSH1 0x40 MSTORE DUP1 SWAP3 SWAP2 SWAP1 DUP2 DUP2 MSTORE PUSH1 0x20 ADD DUP3 DUP1 SLOAD PUSH2 0xA48 SWAP1 PUSH2 0x3315 JUMP JUMPDEST DUP1 ISZERO PUSH2 0xA95 JUMPI DUP1 PUSH1 0x1F LT PUSH2 0xA6A JUMPI PUSH2 0x100 DUP1 DUP4 SLOAD DIV MUL DUP4 MSTORE SWAP2 PUSH1 0x20 ADD SWAP2 PUSH2 0xA95 JUMP JUMPDEST DUP3 ADD SWAP2 SWAP1 PUSH1 0x0 MSTORE PUSH1 0x20 PUSH1 0x0 KECCAK256 SWAP1 JUMPDEST DUP2 SLOAD DUP2 MSTORE SWAP1 PUSH1 0x1 ADD SWAP1 PUSH1 0x20 ADD DUP1 DUP4 GT PUSH2 0xA78 JUMPI DUP3 SWAP1 SUB PUSH1 0x1F AND DUP3 ADD SWAP2 JUMPDEST POP POP POP POP POP DUP9 PUSH2 0x256F JUMP JUMPDEST DUP1 ISZERO PUSH2 0xB5F JUMPI POP PUSH2 0xB5E PUSH1 0x5 DUP3 DUP2 SLOAD DUP2 LT PUSH2 0xABE JUMPI PUSH2 0xABD PUSH2 0x344E JUMP JUMPDEST JUMPDEST SWAP1 PUSH1 0x0 MSTORE PUSH1 0x20 PUSH1 0x0 KECCAK256 SWAP1 PUSH1 0x7 MUL ADD PUSH1 0x0 ADD DUP1 SLOAD PUSH2 0xADA SWAP1 PUSH2 0x3315 JUMP JUMPDEST DUP1 PUSH1 0x1F ADD PUSH1 0x20 DUP1 SWAP2 DIV MUL PUSH1 0x20 ADD PUSH1 0x40 MLOAD SWAP1 DUP2 ADD PUSH1 0x40 MSTORE DUP1 SWAP3 SWAP2 SWAP1 DUP2 DUP2 MSTORE PUSH1 0x20 ADD DUP3 DUP1 SLOAD PUSH2 0xB06 SWAP1 PUSH2 0x3315 JUMP JUMPDEST DUP1 ISZERO PUSH2 0xB53 JUMPI DUP1 PUSH1 0x1F LT PUSH2 0xB28 JUMPI PUSH2 0x100 DUP1 DUP4 SLOAD DIV MUL DUP4 MSTORE SWAP2 PUSH1 0x20 ADD SWAP2 PUSH2 0xB53 JUMP JUMPDEST DUP3 ADD SWAP2 SWAP1 PUSH1 0x0 MSTORE PUSH1 0x20 PUSH1 0x0 KECCAK256 SWAP1 JUMPDEST DUP2 SLOAD DUP2 MSTORE SWAP1 PUSH1 0x1 ADD SWAP1 PUSH1 0x20 ADD DUP1 DUP4 GT PUSH2 0xB36 JUMPI DUP3 SWAP1 SUB PUSH1 0x1F AND DUP3 ADD SWAP2 JUMPDEST POP POP POP POP POP DUP8 PUSH2 0x256F JUMP JUMPDEST JUMPDEST DUP1 ISZERO PUSH2 0xC56 JUMPI POP DUP5 PUSH20 0xFFFFFFFFFFFFFFFFFFFFFFFFFFFFFFFFFFFFFFFF AND PUSH1 0x5 DUP3 DUP2 SLOAD DUP2 LT PUSH2 0xB91 JUMPI PUSH2 0xB90 PUSH2 0x344E JUMP JUMPDEST JUMPDEST SWAP1 PUSH1 0x0 MSTORE PUSH1 0x20 PUSH1 0x0 KECCAK256 SWAP1 PUSH1 0x7 MUL ADD PUSH1 0x4 ADD PUSH1 0x0 SWAP1 SLOAD SWAP1 PUSH2 0x100 EXP SWAP1 DIV PUSH20 0xFFFFFFFFFFFFFFFFFFFFFFFFFFFFFFFFFFFFFFFF AND PUSH20 0xFFFFFFFFFFFFFFFFFFFFFFFFFFFFFFFFFFFFFFFF AND EQ DUP1 PUSH2 0xC55 JUMPI POP DUP5 PUSH20 0xFFFFFFFFFFFFFFFFFFFFFFFFFFFFFFFFFFFFFFFF AND PUSH1 0x5 DUP3 DUP2 SLOAD DUP2 LT PUSH2 0xC0B JUMPI PUSH2 0xC0A PUSH2 0x344E JUMP JUMPDEST JUMPDEST SWAP1 PUSH1 0x0 MSTORE PUSH1 0x20 PUSH1 0x0 KECCAK256 SWAP1 PUSH1 0x7 MUL ADD PUSH1 0x3 ADD PUSH1 0x0 SWAP1 SLOAD SWAP1 PUSH2 0x100 EXP SWAP1 DIV PUSH20 0xFFFFFFFFFFFFFFFFFFFFFFFFFFFFFFFFFFFFFFFF AND PUSH20 0xFFFFFFFFFFFFFFFFFFFFFFFFFFFFFFFFFFFFFFFF AND EQ JUMPDEST JUMPDEST ISZERO PUSH2 0xEA3 JUMPI PUSH1 0x5 DUP2 DUP2 SLOAD DUP2 LT PUSH2 0xC6F JUMPI PUSH2 0xC6E PUSH2 0x344E JUMP JUMPDEST JUMPDEST SWAP1 PUSH1 0x0 MSTORE PUSH1 0x20 PUSH1 0x0 KECCAK256 SWAP1 PUSH1 0x7 MUL ADD PUSH1 0x40 MLOAD DUP1 PUSH1 0xE0 ADD PUSH1 0x40 MSTORE SWAP1 DUP2 PUSH1 0x0 DUP3 ADD DUP1 SLOAD PUSH2 0xC98 SWAP1 PUSH2 0x3315 JUMP JUMPDEST DUP1 PUSH1 0x1F ADD PUSH1 0x20 DUP1 SWAP2 DIV MUL PUSH1 0x20 ADD PUSH1 0x40 MLOAD SWAP1 DUP2 ADD PUSH1 0x40 MSTORE DUP1 SWAP3 SWAP2 SWAP1 DUP2 DUP2 MSTORE PUSH1 0x20 ADD DUP3 DUP1 SLOAD PUSH2 0xCC4 SWAP1 PUSH2 0x3315 JUMP JUMPDEST DUP1 ISZERO PUSH2 0xD11 JUMPI DUP1 PUSH1 0x1F LT PUSH2 0xCE6 JUMPI PUSH2 0x100 DUP1 DUP4 SLOAD DIV MUL DUP4 MSTORE SWAP2 PUSH1 0x20 ADD SWAP2 PUSH2 0xD11 JUMP JUMPDEST DUP3 ADD SWAP2 SWAP1 PUSH1 0x0 MSTORE PUSH1 0x20 PUSH1 0x0 KECCAK256 SWAP1 JUMPDEST DUP2 SLOAD DUP2 MSTORE SWAP1 PUSH1 0x1 ADD SWAP1 PUSH1 0x20 ADD DUP1 DUP4 GT PUSH2 0xCF4 JUMPI DUP3 SWAP1 SUB PUSH1 0x1F AND DUP3 ADD SWAP2 JUMPDEST POP POP POP POP POP DUP2 MSTORE PUSH1 0x20 ADD PUSH1 0x1 DUP3 ADD DUP1 SLOAD PUSH2 0xD2A SWAP1 PUSH2 0x3315 JUMP JUMPDEST DUP1 PUSH1 0x1F ADD PUSH1 0x20 DUP1 SWAP2 DIV MUL PUSH1 0x20 ADD PUSH1 0x40 MLOAD SWAP1 DUP2 ADD PUSH1 0x40 MSTORE DUP1 SWAP3 SWAP2 SWAP1 DUP2 DUP2 MSTORE PUSH1 0x20 ADD DUP3 DUP1 SLOAD PUSH2 0xD56 SWAP1 PUSH2 0x3315 JUMP JUMPDEST DUP1 ISZERO PUSH2 0xDA3 JUMPI DUP1 PUSH1 0x1F LT PUSH2 0xD78 JUMPI PUSH2 0x100 DUP1 DUP4 SLOAD DIV MUL DUP4 MSTORE SWAP2 PUSH1 0x20 ADD SWAP2 PUSH2 0xDA3 JUMP JUMPDEST DUP3 ADD SWAP2 SWAP1 PUSH1 0x0 MSTORE PUSH1 0x20 PUSH1 0x0 KECCAK256 SWAP1 JUMPDEST DUP2 SLOAD DUP2 MSTORE SWAP1 PUSH1 0x1 ADD SWAP1 PUSH1 0x20 ADD DUP1 DUP4 GT PUSH2 0xD86 JUMPI DUP3 SWAP1 SUB PUSH1 0x1F AND DUP3 ADD SWAP2 JUMPDEST POP POP POP POP POP DUP2 MSTORE PUSH1 0x20 ADD PUSH1 0x2 DUP3 ADD SLOAD DUP2 MSTORE PUSH1 0x20 ADD PUSH1 0x3 DUP3 ADD PUSH1 0x0 SWAP1 SLOAD SWAP1 PUSH2 0x100 EXP SWAP1 DIV PUSH20 0xFFFFFFFFFFFFFFFFFFFFFFFFFFFFFFFFFFFFFFFF AND PUSH20 0xFFFFFFFFFFFFFFFFFFFFFFFFFFFFFFFFFFFFFFFF AND PUSH20 0xFFFFFFFFFFFFFFFFFFFFFFFFFFFFFFFFFFFFFFFF AND DUP2 MSTORE PUSH1 0x20 ADD PUSH1 0x4 DUP3 ADD PUSH1 0x0 SWAP1 SLOAD SWAP1 PUSH2 0x100 EXP SWAP1 DIV PUSH20 0xFFFFFFFFFFFFFFFFFFFFFFFFFFFFFFFFFFFFFFFF AND PUSH20 0xFFFFFFFFFFFFFFFFFFFFFFFFFFFFFFFFFFFFFFFF AND PUSH20 0xFFFFFFFFFFFFFFFFFFFFFFFFFFFFFFFFFFFFFFFF AND DUP2 MSTORE PUSH1 0x20 ADD PUSH1 0x5 DUP3 ADD SLOAD DUP2 MSTORE PUSH1 0x20 ADD PUSH1 0x6 DUP3 ADD SLOAD DUP2 MSTORE POP POP DUP3 DUP5 DUP2 MLOAD DUP2 LT PUSH2 0xE89 JUMPI PUSH2 0xE88 PUSH2 0x344E JUMP JUMPDEST JUMPDEST PUSH1 0x20 MUL PUSH1 0x20 ADD ADD DUP2 SWAP1 MSTORE POP DUP3 DUP1 PUSH2 0xE9F SWAP1 PUSH2 0x3378 JUMP JUMPDEST SWAP4 POP POP JUMPDEST DUP1 DUP1 PUSH2 0xEAE SWAP1 PUSH2 0x3378 JUMP JUMPDEST SWAP2 POP POP PUSH2 0x9DC JUMP JUMPDEST POP DUP2 PUSH8 0xFFFFFFFFFFFFFFFF DUP2 GT ISZERO PUSH2 0xED1 JUMPI PUSH2 0xED0 PUSH2 0x347D JUMP JUMPDEST JUMPDEST PUSH1 0x40 MLOAD SWAP1 DUP1 DUP3 MSTORE DUP1 PUSH1 0x20 MUL PUSH1 0x20 ADD DUP3 ADD PUSH1 0x40 MSTORE DUP1 ISZERO PUSH2 0xF0A JUMPI DUP2 PUSH1 0x20 ADD JUMPDEST PUSH2 0xEF7 PUSH2 0x263F JUMP JUMPDEST DUP2 MSTORE PUSH1 0x20 ADD SWAP1 PUSH1 0x1 SWAP1 SUB SWAP1 DUP2 PUSH2 0xEEF JUMPI SWAP1 POP JUMPDEST POP SWAP3 POP PUSH1 0x0 DUP3 GT ISZERO PUSH2 0xF6F JUMPI PUSH1 0x0 JUMPDEST DUP3 DUP2 LT ISZERO PUSH2 0xF6D JUMPI DUP2 DUP2 DUP2 MLOAD DUP2 LT PUSH2 0xF34 JUMPI PUSH2 0xF33 PUSH2 0x344E JUMP JUMPDEST JUMPDEST PUSH1 0x20 MUL PUSH1 0x20 ADD ADD MLOAD DUP5 DUP3 DUP2 MLOAD DUP2 LT PUSH2 0xF4F JUMPI PUSH2 0xF4E PUSH2 0x344E JUMP JUMPDEST JUMPDEST PUSH1 0x20 MUL PUSH1 0x20 ADD ADD DUP2 SWAP1 MSTORE POP DUP1 DUP1 PUSH2 0xF65 SWAP1 PUSH2 0x3378 JUMP JUMPDEST SWAP2 POP POP PUSH2 0xF19 JUMP JUMPDEST POP JUMPDEST POP POP SWAP4 SWAP3 POP POP POP JUMP JUMPDEST PUSH1 0x60 PUSH1 0x0 DUP1 PUSH1 0x5 DUP1 SLOAD SWAP1 POP PUSH8 0xFFFFFFFFFFFFFFFF DUP2 GT ISZERO PUSH2 0xF9C JUMPI PUSH2 0xF9B PUSH2 0x347D JUMP JUMPDEST JUMPDEST PUSH1 0x40 MLOAD SWAP1 DUP1 DUP3 MSTORE DUP1 PUSH1 0x20 MUL PUSH1 0x20 ADD DUP3 ADD PUSH1 0x40 MSTORE DUP1 ISZERO PUSH2 0xFD5 JUMPI DUP2 PUSH1 0x20 ADD JUMPDEST PUSH2 0xFC2 PUSH2 0x263F JUMP JUMPDEST DUP2 MSTORE PUSH1 0x20 ADD SWAP1 PUSH1 0x1 SWAP1 SUB SWAP1 DUP2 PUSH2 0xFBA JUMPI SWAP1 POP JUMPDEST POP SWAP1 POP PUSH1 0x0 JUMPDEST PUSH1 0x5 DUP1 SLOAD SWAP1 POP DUP2 LT ISZERO PUSH2 0x13BE JUMPI PUSH2 0x109F PUSH1 0x5 DUP3 DUP2 SLOAD DUP2 LT PUSH2 0xFFF JUMPI PUSH2 0xFFE PUSH2 0x344E JUMP JUMPDEST JUMPDEST SWAP1 PUSH1 0x0 MSTORE PUSH1 0x20 PUSH1 0x0 KECCAK256 SWAP1 PUSH1 0x7 MUL ADD PUSH1 0x1 ADD DUP1 SLOAD PUSH2 0x101B SWAP1 PUSH2 0x3315 JUMP JUMPDEST DUP1 PUSH1 0x1F ADD PUSH1 0x20 DUP1 SWAP2 DIV MUL PUSH1 0x20 ADD PUSH1 0x40 MLOAD SWAP1 DUP2 ADD PUSH1 0x40 MSTORE DUP1 SWAP3 SWAP2 SWAP1 DUP2 DUP2 MSTORE PUSH1 0x20 ADD DUP3 DUP1 SLOAD PUSH2 0x1047 SWAP1 PUSH2 0x3315 JUMP JUMPDEST DUP1 ISZERO PUSH2 0x1094 JUMPI DUP1 PUSH1 0x1F LT PUSH2 0x1069 JUMPI PUSH2 0x100 DUP1 DUP4 SLOAD DIV MUL DUP4 MSTORE SWAP2 PUSH1 0x20 ADD SWAP2 PUSH2 0x1094 JUMP JUMPDEST DUP3 ADD SWAP2 SWAP1 PUSH1 0x0 MSTORE PUSH1 0x20 PUSH1 0x0 KECCAK256 SWAP1 JUMPDEST DUP2 SLOAD DUP2 MSTORE SWAP1 PUSH1 0x1 ADD SWAP1 PUSH1 0x20 ADD DUP1 DUP4 GT PUSH2 0x1077 JUMPI DUP3 SWAP1 SUB PUSH1 0x1F AND DUP3 ADD SWAP2 JUMPDEST POP POP POP POP POP DUP8 PUSH2 0x256F JUMP JUMPDEST DUP1 ISZERO PUSH2 0x115E JUMPI POP PUSH2 0x115D PUSH1 0x5 DUP3 DUP2 SLOAD DUP2 LT PUSH2 0x10BD JUMPI PUSH2 0x10BC PUSH2 0x344E JUMP JUMPDEST JUMPDEST SWAP1 PUSH1 0x0 MSTORE PUSH1 0x20 PUSH1 0x0 KECCAK256 SWAP1 PUSH1 0x7 MUL ADD PUSH1 0x0 ADD DUP1 SLOAD PUSH2 0x10D9 SWAP1 PUSH2 0x3315 JUMP JUMPDEST DUP1 PUSH1 0x1F ADD PUSH1 0x20 DUP1 SWAP2 DIV MUL PUSH1 0x20 ADD PUSH1 0x40 MLOAD SWAP1 DUP2 ADD PUSH1 0x40 MSTORE DUP1 SWAP3 SWAP2 SWAP1 DUP2 DUP2 MSTORE PUSH1 0x20 ADD DUP3 DUP1 SLOAD PUSH2 0x1105 SWAP1 PUSH2 0x3315 JUMP JUMPDEST DUP1 ISZERO PUSH2 0x1152 JUMPI DUP1 PUSH1 0x1F LT PUSH2 0x1127 JUMPI PUSH2 0x100 DUP1 DUP4 SLOAD DIV MUL DUP4 MSTORE SWAP2 PUSH1 0x20 ADD SWAP2 PUSH2 0x1152 JUMP JUMPDEST DUP3 ADD SWAP2 SWAP1 PUSH1 0x0 MSTORE PUSH1 0x20 PUSH1 0x0 KECCAK256 SWAP1 JUMPDEST DUP2 SLOAD DUP2 MSTORE SWAP1 PUSH1 0x1 ADD SWAP1 PUSH1 0x20 ADD DUP1 DUP4 GT PUSH2 0x1135 JUMPI DUP3 SWAP1 SUB PUSH1 0x1F AND DUP3 ADD SWAP2 JUMPDEST POP POP POP POP POP DUP7 PUSH2 0x256F JUMP JUMPDEST JUMPDEST ISZERO PUSH2 0x13AB JUMPI PUSH1 0x5 DUP2 DUP2 SLOAD DUP2 LT PUSH2 0x1177 JUMPI PUSH2 0x1176 PUSH2 0x344E JUMP JUMPDEST JUMPDEST SWAP1 PUSH1 0x0 MSTORE PUSH1 0x20 PUSH1 0x0 KECCAK256 SWAP1 PUSH1 0x7 MUL ADD PUSH1 0x40 MLOAD DUP1 PUSH1 0xE0 ADD PUSH1 0x40 MSTORE SWAP1 DUP2 PUSH1 0x0 DUP3 ADD DUP1 SLOAD PUSH2 0x11A0 SWAP1 PUSH2 0x3315 JUMP JUMPDEST DUP1 PUSH1 0x1F ADD PUSH1 0x20 DUP1 SWAP2 DIV MUL PUSH1 0x20 ADD PUSH1 0x40 MLOAD SWAP1 DUP2 ADD PUSH1 0x40 MSTORE DUP1 SWAP3 SWAP2 SWAP1 DUP2 DUP2 MSTORE PUSH1 0x20 ADD DUP3 DUP1 SLOAD PUSH2 0x11CC SWAP1 PUSH2 0x3315 JUMP JUMPDEST DUP1 ISZERO PUSH2 0x1219 JUMPI DUP1 PUSH1 0x1F LT PUSH2 0x11EE JUMPI PUSH2 0x100 DUP1 DUP4 SLOAD DIV MUL DUP4 MSTORE SWAP2 PUSH1 0x20 ADD SWAP2 PUSH2 0x1219 JUMP JUMPDEST DUP3 ADD SWAP2 SWAP1 PUSH1 0x0 MSTORE PUSH1 0x20 PUSH1 0x0 KECCAK256 SWAP1 JUMPDEST DUP2 SLOAD DUP2 MSTORE SWAP1 PUSH1 0x1 ADD SWAP1 PUSH1 0x20 ADD DUP1 DUP4 GT PUSH2 0x11FC JUMPI DUP3 SWAP1 SUB PUSH1 0x1F AND DUP3 ADD SWAP2 JUMPDEST POP POP POP POP POP DUP2 MSTORE PUSH1 0x20 ADD PUSH1 0x1 DUP3 ADD DUP1 SLOAD PUSH2 0x1232 SWAP1 PUSH2 0x3315 JUMP JUMPDEST DUP1 PUSH1 0x1F ADD PUSH1 0x20 DUP1 SWAP2 DIV MUL PUSH1 0x20 ADD PUSH1 0x40 MLOAD SWAP1 DUP2 ADD PUSH1 0x40 MSTORE DUP1 SWAP3 SWAP2 SWAP1 DUP2 DUP2 MSTORE PUSH1 0x20 ADD DUP3 DUP1 SLOAD PUSH2 0x125E SWAP1 PUSH2 0x3315 JUMP JUMPDEST DUP1 ISZERO PUSH2 0x12AB JUMPI DUP1 PUSH1 0x1F LT PUSH2 0x1280 JUMPI PUSH2 0x100 DUP1 DUP4 SLOAD DIV MUL DUP4 MSTORE SWAP2 PUSH1 0x20 ADD SWAP2 PUSH2 0x12AB JUMP JUMPDEST DUP3 ADD SWAP2 SWAP1 PUSH1 0x0 MSTORE PUSH1 0x20 PUSH1 0x0 KECCAK256 SWAP1 JUMPDEST DUP2 SLOAD DUP2 MSTORE SWAP1 PUSH1 0x1 ADD SWAP1 PUSH1 0x20 ADD DUP1 DUP4 GT PUSH2 0x128E JUMPI DUP3 SWAP1 SUB PUSH1 0x1F AND DUP3 ADD SWAP2 JUMPDEST POP POP POP POP POP DUP2 MSTORE PUSH1 0x20 ADD PUSH1 0x2 DUP3 ADD SLOAD DUP2 MSTORE PUSH1 0x20 ADD PUSH1 0x3 DUP3 ADD PUSH1 0x0 SWAP1 SLOAD SWAP1 PUSH2 0x100 EXP SWAP1 DIV PUSH20 0xFFFFFFFFFFFFFFFFFFFFFFFFFFFFFFFFFFFFFFFF AND PUSH20 0xFFFFFFFFFFFFFFFFFFFFFFFFFFFFFFFFFFFFFFFF AND PUSH20 0xFFFFFFFFFFFFFFFFFFFFFFFFFFFFFFFFFFFFFFFF AND DUP2 MSTORE PUSH1 0x20 ADD PUSH1 0x4 DUP3 ADD PUSH1 0x0 SWAP1 SLOAD SWAP1 PUSH2 0x100 EXP SWAP1 DIV PUSH20 0xFFFFFFFFFFFFFFFFFFFFFFFFFFFFFFFFFFFFFFFF AND PUSH20 0xFFFFFFFFFFFFFFFFFFFFFFFFFFFFFFFFFFFFFFFF AND PUSH20 0xFFFFFFFFFFFFFFFFFFFFFFFFFFFFFFFFFFFFFFFF AND DUP2 MSTORE PUSH1 0x20 ADD PUSH1 0x5 DUP3 ADD SLOAD DUP2 MSTORE PUSH1 0x20 ADD PUSH1 0x6 DUP3 ADD SLOAD DUP2 MSTORE POP POP DUP3 DUP5 DUP2 MLOAD DUP2 LT PUSH2 0x1391 JUMPI PUSH2 0x1390 PUSH2 0x344E JUMP JUMPDEST JUMPDEST PUSH1 0x20 MUL PUSH1 0x20 ADD ADD DUP2 SWAP1 MSTORE POP DUP3 DUP1 PUSH2 0x13A7 SWAP1 PUSH2 0x3378 JUMP JUMPDEST SWAP4 POP POP JUMPDEST DUP1 DUP1 PUSH2 0x13B6 SWAP1 PUSH2 0x3378 JUMP JUMPDEST SWAP2 POP POP PUSH2 0xFDB JUMP JUMPDEST POP DUP2 PUSH8 0xFFFFFFFFFFFFFFFF DUP2 GT ISZERO PUSH2 0x13D9 JUMPI PUSH2 0x13D8 PUSH2 0x347D JUMP JUMPDEST JUMPDEST PUSH1 0x40 MLOAD SWAP1 DUP1 DUP3 MSTORE DUP1 PUSH1 0x20 MUL PUSH1 0x20 ADD DUP3 ADD PUSH1 0x40 MSTORE DUP1 ISZERO PUSH2 0x1412 JUMPI DUP2 PUSH1 0x20 ADD JUMPDEST PUSH2 0x13FF PUSH2 0x263F JUMP JUMPDEST DUP2 MSTORE PUSH1 0x20 ADD SWAP1 PUSH1 0x1 SWAP1 SUB SWAP1 DUP2 PUSH2 0x13F7 JUMPI SWAP1 POP JUMPDEST POP SWAP3 POP PUSH1 0x0 DUP3 GT ISZERO PUSH2 0x1477 JUMPI PUSH1 0x0 JUMPDEST DUP3 DUP2 LT ISZERO PUSH2 0x1475 JUMPI DUP2 DUP2 DUP2 MLOAD DUP2 LT PUSH2 0x143C JUMPI PUSH2 0x143B PUSH2 0x344E JUMP JUMPDEST JUMPDEST PUSH1 0x20 MUL PUSH1 0x20 ADD ADD MLOAD DUP5 DUP3 DUP2 MLOAD DUP2 LT PUSH2 0x1457 JUMPI PUSH2 0x1456 PUSH2 0x344E JUMP JUMPDEST JUMPDEST PUSH1 0x20 MUL PUSH1 0x20 ADD ADD DUP2 SWAP1 MSTORE POP DUP1 DUP1 PUSH2 0x146D SWAP1 PUSH2 0x3378 JUMP JUMPDEST SWAP2 POP POP PUSH2 0x1421 JUMP JUMPDEST POP JUMPDEST POP POP SWAP3 SWAP2 POP POP JUMP JUMPDEST PUSH1 0x60 PUSH1 0x0 DUP1 PUSH1 0x5 DUP1 SLOAD SWAP1 POP PUSH8 0xFFFFFFFFFFFFFFFF DUP2 GT ISZERO PUSH2 0x14A3 JUMPI PUSH2 0x14A2 PUSH2 0x347D JUMP JUMPDEST JUMPDEST PUSH1 0x40 MLOAD SWAP1 DUP1 DUP3 MSTORE DUP1 PUSH1 0x20 MUL PUSH1 0x20 ADD DUP3 ADD PUSH1 0x40 MSTORE DUP1 ISZERO PUSH2 0x14DC JUMPI DUP2 PUSH1 0x20 ADD JUMPDEST PUSH2 0x14C9 PUSH2 0x263F JUMP JUMPDEST DUP2 MSTORE PUSH1 0x20 ADD SWAP1 PUSH1 0x1 SWAP1 SUB SWAP1 DUP2 PUSH2 0x14C1 JUMPI SWAP1 POP JUMPDEST POP SWAP1 POP PUSH1 0x0 JUMPDEST PUSH1 0x5 DUP1 SLOAD SWAP1 POP DUP2 LT ISZERO PUSH2 0x1806 JUMPI PUSH2 0x15A6 PUSH1 0x5 DUP3 DUP2 SLOAD DUP2 LT PUSH2 0x1506 JUMPI PUSH2 0x1505 PUSH2 0x344E JUMP JUMPDEST JUMPDEST SWAP1 PUSH1 0x0 MSTORE PUSH1 0x20 PUSH1 0x0 KECCAK256 SWAP1 PUSH1 0x7 MUL ADD PUSH1 0x0 ADD DUP1 SLOAD PUSH2 0x1522 SWAP1 PUSH2 0x3315 JUMP JUMPDEST DUP1 PUSH1 0x1F ADD PUSH1 0x20 DUP1 SWAP2 DIV MUL PUSH1 0x20 ADD PUSH1 0x40 MLOAD SWAP1 DUP2 ADD PUSH1 0x40 MSTORE DUP1 SWAP3 SWAP2 SWAP1 DUP2 DUP2 MSTORE PUSH1 0x20 ADD DUP3 DUP1 SLOAD PUSH2 0x154E SWAP1 PUSH2 0x3315 JUMP JUMPDEST DUP1 ISZERO PUSH2 0x159B JUMPI DUP1 PUSH1 0x1F LT PUSH2 0x1570 JUMPI PUSH2 0x100 DUP1 DUP4 SLOAD DIV MUL DUP4 MSTORE SWAP2 PUSH1 0x20 ADD SWAP2 PUSH2 0x159B JUMP JUMPDEST DUP3 ADD SWAP2 SWAP1 PUSH1 0x0 MSTORE PUSH1 0x20 PUSH1 0x0 KECCAK256 SWAP1 JUMPDEST DUP2 SLOAD DUP2 MSTORE SWAP1 PUSH1 0x1 ADD SWAP1 PUSH1 0x20 ADD DUP1 DUP4 GT PUSH2 0x157E JUMPI DUP3 SWAP1 SUB PUSH1 0x1F AND DUP3 ADD SWAP2 JUMPDEST POP POP POP POP POP DUP7 PUSH2 0x256F JUMP JUMPDEST ISZERO PUSH2 0x17F3 JUMPI PUSH1 0x5 DUP2 DUP2 SLOAD DUP2 LT PUSH2 0x15BF JUMPI PUSH2 0x15BE PUSH2 0x344E JUMP JUMPDEST JUMPDEST SWAP1 PUSH1 0x0 MSTORE PUSH1 0x20 PUSH1 0x0 KECCAK256 SWAP1 PUSH1 0x7 MUL ADD PUSH1 0x40 MLOAD DUP1 PUSH1 0xE0 ADD PUSH1 0x40 MSTORE SWAP1 DUP2 PUSH1 0x0 DUP3 ADD DUP1 SLOAD PUSH2 0x15E8 SWAP1 PUSH2 0x3315 JUMP JUMPDEST DUP1 PUSH1 0x1F ADD PUSH1 0x20 DUP1 SWAP2 DIV MUL PUSH1 0x20 ADD PUSH1 0x40 MLOAD SWAP1 DUP2 ADD PUSH1 0x40 MSTORE DUP1 SWAP3 SWAP2 SWAP1 DUP2 DUP2 MSTORE PUSH1 0x20 ADD DUP3 DUP1 SLOAD PUSH2 0x1614 SWAP1 PUSH2 0x3315 JUMP JUMPDEST DUP1 ISZERO PUSH2 0x1661 JUMPI DUP1 PUSH1 0x1F LT PUSH2 0x1636 JUMPI PUSH2 0x100 DUP1 DUP4 SLOAD DIV MUL DUP4 MSTORE SWAP2 PUSH1 0x20 ADD SWAP2 PUSH2 0x1661 JUMP JUMPDEST DUP3 ADD SWAP2 SWAP1 PUSH1 0x0 MSTORE PUSH1 0x20 PUSH1 0x0 KECCAK256 SWAP1 JUMPDEST DUP2 SLOAD DUP2 MSTORE SWAP1 PUSH1 0x1 ADD SWAP1 PUSH1 0x20 ADD DUP1 DUP4 GT PUSH2 0x1644 JUMPI DUP3 SWAP1 SUB PUSH1 0x1F AND DUP3 ADD SWAP2 JUMPDEST POP POP POP POP POP DUP2 MSTORE PUSH1 0x20 ADD PUSH1 0x1 DUP3 ADD DUP1 SLOAD PUSH2 0x167A SWAP1 PUSH2 0x3315 JUMP JUMPDEST DUP1 PUSH1 0x1F ADD PUSH1 0x20 DUP1 SWAP2 DIV MUL PUSH1 0x20 ADD PUSH1 0x40 MLOAD SWAP1 DUP2 ADD PUSH1 0x40 MSTORE DUP1 SWAP3 SWAP2 SWAP1 DUP2 DUP2 MSTORE PUSH1 0x20 ADD DUP3 DUP1 SLOAD PUSH2 0x16A6 SWAP1 PUSH2 0x3315 JUMP JUMPDEST DUP1 ISZERO PUSH2 0x16F3 JUMPI DUP1 PUSH1 0x1F LT PUSH2 0x16C8 JUMPI PUSH2 0x100 DUP1 DUP4 SLOAD DIV MUL DUP4 MSTORE SWAP2 PUSH1 0x20 ADD SWAP2 PUSH2 0x16F3 JUMP JUMPDEST DUP3 ADD SWAP2 SWAP1 PUSH1 0x0 MSTORE PUSH1 0x20 PUSH1 0x0 KECCAK256 SWAP1 JUMPDEST DUP2 SLOAD DUP2 MSTORE SWAP1 PUSH1 0x1 ADD SWAP1 PUSH1 0x20 ADD DUP1 DUP4 GT PUSH2 0x16D6 JUMPI DUP3 SWAP1 SUB PUSH1 0x1F AND DUP3 ADD SWAP2 JUMPDEST POP POP POP POP POP DUP2 MSTORE PUSH1 0x20 ADD PUSH1 0x2 DUP3 ADD SLOAD DUP2 MSTORE PUSH1 0x20 ADD PUSH1 0x3 DUP3 ADD PUSH1 0x0 SWAP1 SLOAD SWAP1 PUSH2 0x100 EXP SWAP1 DIV PUSH20 0xFFFFFFFFFFFFFFFFFFFFFFFFFFFFFFFFFFFFFFFF AND PUSH20 0xFFFFFFFFFFFFFFFFFFFFFFFFFFFFFFFFFFFFFFFF AND PUSH20 0xFFFFFFFFFFFFFFFFFFFFFFFFFFFFFFFFFFFFFFFF AND DUP2 MSTORE PUSH1 0x20 ADD PUSH1 0x4 DUP3 ADD PUSH1 0x0 SWAP1 SLOAD SWAP1 PUSH2 0x100 EXP SWAP1 DIV PUSH20 0xFFFFFFFFFFFFFFFFFFFFFFFFFFFFFFFFFFFFFFFF AND PUSH20 0xFFFFFFFFFFFFFFFFFFFFFFFFFFFFFFFFFFFFFFFF AND PUSH20 0xFFFFFFFFFFFFFFFFFFFFFFFFFFFFFFFFFFFFFFFF AND DUP2 MSTORE PUSH1 0x20 ADD PUSH1 0x5 DUP3 ADD SLOAD DUP2 MSTORE PUSH1 0x20 ADD PUSH1 0x6 DUP3 ADD SLOAD DUP2 MSTORE POP POP DUP3 DUP5 DUP2 MLOAD DUP2 LT PUSH2 0x17D9 JUMPI PUSH2 0x17D8 PUSH2 0x344E JUMP JUMPDEST JUMPDEST PUSH1 0x20 MUL PUSH1 0x20 ADD ADD DUP2 SWAP1 MSTORE POP DUP3 DUP1 PUSH2 0x17EF SWAP1 PUSH2 0x3378 JUMP JUMPDEST SWAP4 POP POP JUMPDEST DUP1 DUP1 PUSH2 0x17FE SWAP1 PUSH2 0x3378 JUMP JUMPDEST SWAP2 POP POP PUSH2 0x14E2 JUMP JUMPDEST POP DUP2 PUSH8 0xFFFFFFFFFFFFFFFF DUP2 GT ISZERO PUSH2 0x1821 JUMPI PUSH2 0x1820 PUSH2 0x347D JUMP JUMPDEST JUMPDEST PUSH1 0x40 MLOAD SWAP1 DUP1 DUP3 MSTORE DUP1 PUSH1 0x20 MUL PUSH1 0x20 ADD DUP3 ADD PUSH1 0x40 MSTORE DUP1 ISZERO PUSH2 0x185A JUMPI DUP2 PUSH1 0x20 ADD JUMPDEST PUSH2 0x1847 PUSH2 0x263F JUMP JUMPDEST DUP2 MSTORE PUSH1 0x20 ADD SWAP1 PUSH1 0x1 SWAP1 SUB SWAP1 DUP2 PUSH2 0x183F JUMPI SWAP1 POP JUMPDEST POP SWAP3 POP PUSH1 0x0 DUP3 GT ISZERO PUSH2 0x18BF JUMPI PUSH1 0x0 JUMPDEST DUP3 DUP2 LT ISZERO PUSH2 0x18BD JUMPI DUP2 DUP2 DUP2 MLOAD DUP2 LT PUSH2 0x1884 JUMPI PUSH2 0x1883 PUSH2 0x344E JUMP JUMPDEST JUMPDEST PUSH1 0x20 MUL PUSH1 0x20 ADD ADD MLOAD DUP5 DUP3 DUP2 MLOAD DUP2 LT PUSH2 0x189F JUMPI PUSH2 0x189E PUSH2 0x344E JUMP JUMPDEST JUMPDEST PUSH1 0x20 MUL PUSH1 0x20 ADD ADD DUP2 SWAP1 MSTORE POP DUP1 DUP1 PUSH2 0x18B5 SWAP1 PUSH2 0x3378 JUMP JUMPDEST SWAP2 POP POP PUSH2 0x1869 JUMP JUMPDEST POP JUMPDEST POP POP SWAP2 SWAP1 POP JUMP JUMPDEST PUSH1 0x0 DUP1 PUSH1 0x6 PUSH1 0x8 DUP2 GT ISZERO PUSH2 0x18DD JUMPI PUSH2 0x18DC PUSH2 0x33F0 JUMP JUMPDEST JUMPDEST DUP6 PUSH1 0x8 DUP2 GT ISZERO PUSH2 0x18F0 JUMPI PUSH2 0x18EF PUSH2 0x33F0 JUMP JUMPDEST JUMPDEST EQ DUP1 PUSH2 0x1920 JUMPI POP PUSH1 0x7 PUSH1 0x8 DUP2 GT ISZERO PUSH2 0x190B JUMPI PUSH2 0x190A PUSH2 0x33F0 JUMP JUMPDEST JUMPDEST DUP6 PUSH1 0x8 DUP2 GT ISZERO PUSH2 0x191E JUMPI PUSH2 0x191D PUSH2 0x33F0 JUMP JUMPDEST JUMPDEST EQ JUMPDEST ISZERO PUSH2 0x192E JUMPI PUSH1 0x1 SWAP1 POP PUSH2 0x1933 JUMP JUMPDEST PUSH1 0x0 SWAP1 POP JUMPDEST PUSH1 0x40 MLOAD DUP1 PUSH1 0xE0 ADD PUSH1 0x40 MSTORE DUP1 DUP9 DUP2 MSTORE PUSH1 0x20 ADD DUP8 DUP2 MSTORE PUSH1 0x20 ADD DUP7 PUSH1 0x8 DUP2 GT ISZERO PUSH2 0x195D JUMPI PUSH2 0x195C PUSH2 0x33F0 JUMP JUMPDEST JUMPDEST DUP2 MSTORE PUSH1 0x20 ADD DUP3 PUSH1 0x2 DUP2 GT ISZERO PUSH2 0x1975 JUMPI PUSH2 0x1974 PUSH2 0x33F0 JUMP JUMPDEST JUMPDEST DUP2 MSTORE PUSH1 0x20 ADD DUP6 DUP2 MSTORE PUSH1 0x20 ADD DUP5 DUP2 MSTORE PUSH1 0x20 ADD CALLER PUSH20 0xFFFFFFFFFFFFFFFFFFFFFFFFFFFFFFFFFFFFFFFF AND DUP2 MSTORE POP PUSH1 0x1 PUSH1 0x0 CALLER PUSH20 0xFFFFFFFFFFFFFFFFFFFFFFFFFFFFFFFFFFFFFFFF AND PUSH20 0xFFFFFFFFFFFFFFFFFFFFFFFFFFFFFFFFFFFFFFFF AND DUP2 MSTORE PUSH1 0x20 ADD SWAP1 DUP2 MSTORE PUSH1 0x20 ADD PUSH1 0x0 KECCAK256 PUSH1 0x0 DUP3 ADD MLOAD DUP2 PUSH1 0x0 ADD SWAP1 DUP1 MLOAD SWAP1 PUSH1 0x20 ADD SWAP1 PUSH2 0x19FB SWAP3 SWAP2 SWAP1 PUSH2 0x26A8 JUMP JUMPDEST POP PUSH1 0x20 DUP3 ADD MLOAD DUP2 PUSH1 0x1 ADD SWAP1 DUP1 MLOAD SWAP1 PUSH1 0x20 ADD SWAP1 PUSH2 0x1A18 SWAP3 SWAP2 SWAP1 PUSH2 0x26A8 JUMP JUMPDEST POP PUSH1 0x40 DUP3 ADD MLOAD DUP2 PUSH1 0x2 ADD PUSH1 0x0 PUSH2 0x100 EXP DUP2 SLOAD DUP2 PUSH1 0xFF MUL NOT AND SWAP1 DUP4 PUSH1 0x8 DUP2 GT ISZERO PUSH2 0x1A44 JUMPI PUSH2 0x1A43 PUSH2 0x33F0 JUMP JUMPDEST JUMPDEST MUL OR SWAP1 SSTORE POP PUSH1 0x60 DUP3 ADD MLOAD DUP2 PUSH1 0x2 ADD PUSH1 0x1 PUSH2 0x100 EXP DUP2 SLOAD DUP2 PUSH1 0xFF MUL NOT AND SWAP1 DUP4 PUSH1 0x2 DUP2 GT ISZERO PUSH2 0x1A74 JUMPI PUSH2 0x1A73 PUSH2 0x33F0 JUMP JUMPDEST JUMPDEST MUL OR SWAP1 SSTORE POP PUSH1 0x80 DUP3 ADD MLOAD DUP2 PUSH1 0x3 ADD SSTORE PUSH1 0xA0 DUP3 ADD MLOAD DUP2 PUSH1 0x4 ADD SSTORE PUSH1 0xC0 DUP3 ADD MLOAD DUP2 PUSH1 0x5 ADD PUSH1 0x0 PUSH2 0x100 EXP DUP2 SLOAD DUP2 PUSH20 0xFFFFFFFFFFFFFFFFFFFFFFFFFFFFFFFFFFFFFFFF MUL NOT AND SWAP1 DUP4 PUSH20 0xFFFFFFFFFFFFFFFFFFFFFFFFFFFFFFFFFFFFFFFF AND MUL OR SWAP1 SSTORE POP SWAP1 POP POP PUSH1 0x2 CALLER SWAP1 DUP1 PUSH1 0x1 DUP2 SLOAD ADD DUP1 DUP3 SSTORE DUP1 SWAP2 POP POP PUSH1 0x1 SWAP1 SUB SWAP1 PUSH1 0x0 MSTORE PUSH1 0x20 PUSH1 0x0 KECCAK256 ADD PUSH1 0x0 SWAP1 SWAP2 SWAP1 SWAP2 SWAP1 SWAP2 PUSH2 0x100 EXP DUP2 SLOAD DUP2 PUSH20 0xFFFFFFFFFFFFFFFFFFFFFFFFFFFFFFFFFFFFFFFF MUL NOT AND SWAP1 DUP4 PUSH20 0xFFFFFFFFFFFFFFFFFFFFFFFFFFFFFFFFFFFFFFFF AND MUL OR SWAP1 SSTORE POP PUSH1 0x1 SWAP2 POP POP SWAP6 SWAP5 POP POP POP POP POP JUMP JUMPDEST PUSH1 0x0 DUP1 PUSH1 0x0 SWAP1 SLOAD SWAP1 PUSH2 0x100 EXP SWAP1 DIV PUSH20 0xFFFFFFFFFFFFFFFFFFFFFFFFFFFFFFFFFFFFFFFF AND PUSH20 0xFFFFFFFFFFFFFFFFFFFFFFFFFFFFFFFFFFFFFFFF AND CALLER PUSH20 0xFFFFFFFFFFFFFFFFFFFFFFFFFFFFFFFFFFFFFFFF AND EQ ISZERO PUSH2 0x1BA8 JUMPI PUSH1 0x0 SWAP1 POP PUSH2 0x1C9C JUMP JUMPDEST PUSH1 0x0 PUSH20 0xFFFFFFFFFFFFFFFFFFFFFFFFFFFFFFFFFFFFFFFF AND PUSH1 0x1 PUSH1 0x0 CALLER PUSH20 0xFFFFFFFFFFFFFFFFFFFFFFFFFFFFFFFFFFFFFFFF AND PUSH20 0xFFFFFFFFFFFFFFFFFFFFFFFFFFFFFFFFFFFFFFFF AND DUP2 MSTORE PUSH1 0x20 ADD SWAP1 DUP2 MSTORE PUSH1 0x20 ADD PUSH1 0x0 KECCAK256 PUSH1 0x5 ADD PUSH1 0x0 SWAP1 SLOAD SWAP1 PUSH2 0x100 EXP SWAP1 DIV PUSH20 0xFFFFFFFFFFFFFFFFFFFFFFFFFFFFFFFFFFFFFFFF AND PUSH20 0xFFFFFFFFFFFFFFFFFFFFFFFFFFFFFFFFFFFFFFFF AND EQ ISZERO PUSH2 0x1C48 JUMPI PUSH1 0x8 SWAP1 POP PUSH2 0x1C9B JUMP JUMPDEST PUSH1 0x1 PUSH1 0x0 CALLER PUSH20 0xFFFFFFFFFFFFFFFFFFFFFFFFFFFFFFFFFFFFFFFF AND PUSH20 0xFFFFFFFFFFFFFFFFFFFFFFFFFFFFFFFFFFFFFFFF AND DUP2 MSTORE PUSH1 0x20 ADD SWAP1 DUP2 MSTORE PUSH1 0x20 ADD PUSH1 0x0 KECCAK256 PUSH1 0x2 ADD PUSH1 0x0 SWAP1 SLOAD SWAP1 PUSH2 0x100 EXP SWAP1 DIV PUSH1 0xFF AND SWAP1 POP JUMPDEST JUMPDEST SWAP1 JUMP JUMPDEST PUSH1 0x0 DUP1 PUSH2 0x1CAD DUP6 DUP6 DUP6 PUSH2 0x979 JUMP JUMPDEST SWAP1 POP PUSH1 0x0 DUP1 PUSH1 0x0 JUMPDEST DUP4 MLOAD DUP2 LT ISZERO PUSH2 0x1D76 JUMPI DUP6 PUSH20 0xFFFFFFFFFFFFFFFFFFFFFFFFFFFFFFFFFFFFFFFF AND DUP5 DUP3 DUP2 MLOAD DUP2 LT PUSH2 0x1CE8 JUMPI PUSH2 0x1CE7 PUSH2 0x344E JUMP JUMPDEST JUMPDEST PUSH1 0x20 MUL PUSH1 0x20 ADD ADD MLOAD PUSH1 0x80 ADD MLOAD PUSH20 0xFFFFFFFFFFFFFFFFFFFFFFFFFFFFFFFFFFFFFFFF AND EQ ISZERO PUSH2 0x1D36 JUMPI DUP4 DUP2 DUP2 MLOAD DUP2 LT PUSH2 0x1D23 JUMPI PUSH2 0x1D22 PUSH2 0x344E JUMP JUMPDEST JUMPDEST PUSH1 0x20 MUL PUSH1 0x20 ADD ADD MLOAD PUSH1 0xA0 ADD MLOAD SWAP3 POP PUSH2 0x1D63 JUMP JUMPDEST DUP4 DUP2 DUP2 MLOAD DUP2 LT PUSH2 0x1D49 JUMPI PUSH2 0x1D48 PUSH2 0x344E JUMP JUMPDEST JUMPDEST PUSH1 0x20 MUL PUSH1 0x20 ADD ADD MLOAD PUSH1 0xA0 ADD MLOAD DUP3 PUSH2 0x1D60 SWAP2 SWAP1 PUSH2 0x31B7 JUMP JUMPDEST SWAP2 POP JUMPDEST DUP1 DUP1 PUSH2 0x1D6E SWAP1 PUSH2 0x3378 JUMP JUMPDEST SWAP2 POP POP PUSH2 0x1CB5 JUMP JUMPDEST POP DUP1 DUP3 PUSH2 0x1D83 SWAP2 SWAP1 PUSH2 0x320D JUMP JUMPDEST SWAP4 POP POP POP POP SWAP4 SWAP3 POP POP POP JUMP JUMPDEST PUSH1 0x60 PUSH1 0x0 DUP1 PUSH1 0x5 DUP1 SLOAD SWAP1 POP PUSH8 0xFFFFFFFFFFFFFFFF DUP2 GT ISZERO PUSH2 0x1DB3 JUMPI PUSH2 0x1DB2 PUSH2 0x347D JUMP JUMPDEST JUMPDEST PUSH1 0x40 MLOAD SWAP1 DUP1 DUP3 MSTORE DUP1 PUSH1 0x20 MUL PUSH1 0x20 ADD DUP3 ADD PUSH1 0x40 MSTORE DUP1 ISZERO PUSH2 0x1DEC JUMPI DUP2 PUSH1 0x20 ADD JUMPDEST PUSH2 0x1DD9 PUSH2 0x263F JUMP JUMPDEST DUP2 MSTORE PUSH1 0x20 ADD SWAP1 PUSH1 0x1 SWAP1 SUB SWAP1 DUP2 PUSH2 0x1DD1 JUMPI SWAP1 POP JUMPDEST POP SWAP1 POP PUSH1 0x0 JUMPDEST PUSH1 0x5 DUP1 SLOAD SWAP1 POP DUP2 LT ISZERO PUSH2 0x20D3 JUMPI DUP5 PUSH20 0xFFFFFFFFFFFFFFFFFFFFFFFFFFFFFFFFFFFFFFFF AND PUSH1 0x5 DUP3 DUP2 SLOAD DUP2 LT PUSH2 0x1E2A JUMPI PUSH2 0x1E29 PUSH2 0x344E JUMP JUMPDEST JUMPDEST SWAP1 PUSH1 0x0 MSTORE PUSH1 0x20 PUSH1 0x0 KECCAK256 SWAP1 PUSH1 0x7 MUL ADD PUSH1 0x4 ADD PUSH1 0x0 SWAP1 SLOAD SWAP1 PUSH2 0x100 EXP SWAP1 DIV PUSH20 0xFFFFFFFFFFFFFFFFFFFFFFFFFFFFFFFFFFFFFFFF AND PUSH20 0xFFFFFFFFFFFFFFFFFFFFFFFFFFFFFFFFFFFFFFFF AND EQ ISZERO PUSH2 0x20C0 JUMPI PUSH1 0x5 DUP2 DUP2 SLOAD DUP2 LT PUSH2 0x1E8C JUMPI PUSH2 0x1E8B PUSH2 0x344E JUMP JUMPDEST JUMPDEST SWAP1 PUSH1 0x0 MSTORE PUSH1 0x20 PUSH1 0x0 KECCAK256 SWAP1 PUSH1 0x7 MUL ADD PUSH1 0x40 MLOAD DUP1 PUSH1 0xE0 ADD PUSH1 0x40 MSTORE SWAP1 DUP2 PUSH1 0x0 DUP3 ADD DUP1 SLOAD PUSH2 0x1EB5 SWAP1 PUSH2 0x3315 JUMP JUMPDEST DUP1 PUSH1 0x1F ADD PUSH1 0x20 DUP1 SWAP2 DIV MUL PUSH1 0x20 ADD PUSH1 0x40 MLOAD SWAP1 DUP2 ADD PUSH1 0x40 MSTORE DUP1 SWAP3 SWAP2 SWAP1 DUP2 DUP2 MSTORE PUSH1 0x20 ADD DUP3 DUP1 SLOAD PUSH2 0x1EE1 SWAP1 PUSH2 0x3315 JUMP JUMPDEST DUP1 ISZERO PUSH2 0x1F2E JUMPI DUP1 PUSH1 0x1F LT PUSH2 0x1F03 JUMPI PUSH2 0x100 DUP1 DUP4 SLOAD DIV MUL DUP4 MSTORE SWAP2 PUSH1 0x20 ADD SWAP2 PUSH2 0x1F2E JUMP JUMPDEST DUP3 ADD SWAP2 SWAP1 PUSH1 0x0 MSTORE PUSH1 0x20 PUSH1 0x0 KECCAK256 SWAP1 JUMPDEST DUP2 SLOAD DUP2 MSTORE SWAP1 PUSH1 0x1 ADD SWAP1 PUSH1 0x20 ADD DUP1 DUP4 GT PUSH2 0x1F11 JUMPI DUP3 SWAP1 SUB PUSH1 0x1F AND DUP3 ADD SWAP2 JUMPDEST POP POP POP POP POP DUP2 MSTORE PUSH1 0x20 ADD PUSH1 0x1 DUP3 ADD DUP1 SLOAD PUSH2 0x1F47 SWAP1 PUSH2 0x3315 JUMP JUMPDEST DUP1 PUSH1 0x1F ADD PUSH1 0x20 DUP1 SWAP2 DIV MUL PUSH1 0x20 ADD PUSH1 0x40 MLOAD SWAP1 DUP2 ADD PUSH1 0x40 MSTORE DUP1 SWAP3 SWAP2 SWAP1 DUP2 DUP2 MSTORE PUSH1 0x20 ADD DUP3 DUP1 SLOAD PUSH2 0x1F73 SWAP1 PUSH2 0x3315 JUMP JUMPDEST DUP1 ISZERO PUSH2 0x1FC0 JUMPI DUP1 PUSH1 0x1F LT PUSH2 0x1F95 JUMPI PUSH2 0x100 DUP1 DUP4 SLOAD DIV MUL DUP4 MSTORE SWAP2 PUSH1 0x20 ADD SWAP2 PUSH2 0x1FC0 JUMP JUMPDEST DUP3 ADD SWAP2 SWAP1 PUSH1 0x0 MSTORE PUSH1 0x20 PUSH1 0x0 KECCAK256 SWAP1 JUMPDEST DUP2 SLOAD DUP2 MSTORE SWAP1 PUSH1 0x1 ADD SWAP1 PUSH1 0x20 ADD DUP1 DUP4 GT PUSH2 0x1FA3 JUMPI DUP3 SWAP1 SUB PUSH1 0x1F AND DUP3 ADD SWAP2 JUMPDEST POP POP POP POP POP DUP2 MSTORE PUSH1 0x20 ADD PUSH1 0x2 DUP3 ADD SLOAD DUP2 MSTORE PUSH1 0x20 ADD PUSH1 0x3 DUP3 ADD PUSH1 0x0 SWAP1 SLOAD SWAP1 PUSH2 0x100 EXP SWAP1 DIV PUSH20 0xFFFFFFFFFFFFFFFFFFFFFFFFFFFFFFFFFFFFFFFF AND PUSH20 0xFFFFFFFFFFFFFFFFFFFFFFFFFFFFFFFFFFFFFFFF AND PUSH20 0xFFFFFFFFFFFFFFFFFFFFFFFFFFFFFFFFFFFFFFFF AND DUP2 MSTORE PUSH1 0x20 ADD PUSH1 0x4 DUP3 ADD PUSH1 0x0 SWAP1 SLOAD SWAP1 PUSH2 0x100 EXP SWAP1 DIV PUSH20 0xFFFFFFFFFFFFFFFFFFFFFFFFFFFFFFFFFFFFFFFF AND PUSH20 0xFFFFFFFFFFFFFFFFFFFFFFFFFFFFFFFFFFFFFFFF AND PUSH20 0xFFFFFFFFFFFFFFFFFFFFFFFFFFFFFFFFFFFFFFFF AND DUP2 MSTORE PUSH1 0x20 ADD PUSH1 0x5 DUP3 ADD SLOAD DUP2 MSTORE PUSH1 0x20 ADD PUSH1 0x6 DUP3 ADD SLOAD DUP2 MSTORE POP POP DUP3 DUP5 DUP2 MLOAD DUP2 LT PUSH2 0x20A6 JUMPI PUSH2 0x20A5 PUSH2 0x344E JUMP JUMPDEST JUMPDEST PUSH1 0x20 MUL PUSH1 0x20 ADD ADD DUP2 SWAP1 MSTORE POP DUP3 DUP1 PUSH2 0x20BC SWAP1 PUSH2 0x3378 JUMP JUMPDEST SWAP4 POP POP JUMPDEST DUP1 DUP1 PUSH2 0x20CB SWAP1 PUSH2 0x3378 JUMP JUMPDEST SWAP2 POP POP PUSH2 0x1DF2 JUMP JUMPDEST POP DUP2 PUSH8 0xFFFFFFFFFFFFFFFF DUP2 GT ISZERO PUSH2 0x20EE JUMPI PUSH2 0x20ED PUSH2 0x347D JUMP JUMPDEST JUMPDEST PUSH1 0x40 MLOAD SWAP1 DUP1 DUP3 MSTORE DUP1 PUSH1 0x20 MUL PUSH1 0x20 ADD DUP3 ADD PUSH1 0x40 MSTORE DUP1 ISZERO PUSH2 0x2127 JUMPI DUP2 PUSH1 0x20 ADD JUMPDEST PUSH2 0x2114 PUSH2 0x263F JUMP JUMPDEST DUP2 MSTORE PUSH1 0x20 ADD SWAP1 PUSH1 0x1 SWAP1 SUB SWAP1 DUP2 PUSH2 0x210C JUMPI SWAP1 POP JUMPDEST POP SWAP3 POP PUSH1 0x0 DUP3 GT ISZERO PUSH2 0x218C JUMPI PUSH1 0x0 JUMPDEST DUP3 DUP2 LT ISZERO PUSH2 0x218A JUMPI DUP2 DUP2 DUP2 MLOAD DUP2 LT PUSH2 0x2151 JUMPI PUSH2 0x2150 PUSH2 0x344E JUMP JUMPDEST JUMPDEST PUSH1 0x20 MUL PUSH1 0x20 ADD ADD MLOAD DUP5 DUP3 DUP2 MLOAD DUP2 LT PUSH2 0x216C JUMPI PUSH2 0x216B PUSH2 0x344E JUMP JUMPDEST JUMPDEST PUSH1 0x20 MUL PUSH1 0x20 ADD ADD DUP2 SWAP1 MSTORE POP DUP1 DUP1 PUSH2 0x2182 SWAP1 PUSH2 0x3378 JUMP JUMPDEST SWAP2 POP POP PUSH2 0x2136 JUMP JUMPDEST POP JUMPDEST POP POP SWAP2 SWAP1 POP JUMP JUMPDEST PUSH1 0x0 DUP1 SLOAD SWAP1 PUSH2 0x100 EXP SWAP1 DIV PUSH20 0xFFFFFFFFFFFFFFFFFFFFFFFFFFFFFFFFFFFFFFFF AND DUP2 JUMP JUMPDEST PUSH2 0x21BF PUSH2 0x25C8 JUMP JUMPDEST PUSH1 0x1 PUSH1 0x0 DUP4 PUSH20 0xFFFFFFFFFFFFFFFFFFFFFFFFFFFFFFFFFFFFFFFF AND PUSH20 0xFFFFFFFFFFFFFFFFFFFFFFFFFFFFFFFFFFFFFFFF AND DUP2 MSTORE PUSH1 0x20 ADD SWAP1 DUP2 MSTORE PUSH1 0x20 ADD PUSH1 0x0 KECCAK256 PUSH1 0x40 MLOAD DUP1 PUSH1 0xE0 ADD PUSH1 0x40 MSTORE SWAP1 DUP2 PUSH1 0x0 DUP3 ADD DUP1 SLOAD PUSH2 0x2219 SWAP1 PUSH2 0x3315 JUMP JUMPDEST DUP1 PUSH1 0x1F ADD PUSH1 0x20 DUP1 SWAP2 DIV MUL PUSH1 0x20 ADD PUSH1 0x40 MLOAD SWAP1 DUP2 ADD PUSH1 0x40 MSTORE DUP1 SWAP3 SWAP2 SWAP1 DUP2 DUP2 MSTORE PUSH1 0x20 ADD DUP3 DUP1 SLOAD PUSH2 0x2245 SWAP1 PUSH2 0x3315 JUMP JUMPDEST DUP1 ISZERO PUSH2 0x2292 JUMPI DUP1 PUSH1 0x1F LT PUSH2 0x2267 JUMPI PUSH2 0x100 DUP1 DUP4 SLOAD DIV MUL DUP4 MSTORE SWAP2 PUSH1 0x20 ADD SWAP2 PUSH2 0x2292 JUMP JUMPDEST DUP3 ADD SWAP2 SWAP1 PUSH1 0x0 MSTORE PUSH1 0x20 PUSH1 0x0 KECCAK256 SWAP1 JUMPDEST DUP2 SLOAD DUP2 MSTORE SWAP1 PUSH1 0x1 ADD SWAP1 PUSH1 0x20 ADD DUP1 DUP4 GT PUSH2 0x2275 JUMPI DUP3 SWAP1 SUB PUSH1 0x1F AND DUP3 ADD SWAP2 JUMPDEST POP POP POP POP POP DUP2 MSTORE PUSH1 0x20 ADD PUSH1 0x1 DUP3 ADD DUP1 SLOAD PUSH2 0x22AB SWAP1 PUSH2 0x3315 JUMP JUMPDEST DUP1 PUSH1 0x1F ADD PUSH1 0x20 DUP1 SWAP2 DIV MUL PUSH1 0x20 ADD PUSH1 0x40 MLOAD SWAP1 DUP2 ADD PUSH1 0x40 MSTORE DUP1 SWAP3 SWAP2 SWAP1 DUP2 DUP2 MSTORE PUSH1 0x20 ADD DUP3 DUP1 SLOAD PUSH2 0x22D7 SWAP1 PUSH2 0x3315 JUMP JUMPDEST DUP1 ISZERO PUSH2 0x2324 JUMPI DUP1 PUSH1 0x1F LT PUSH2 0x22F9 JUMPI PUSH2 0x100 DUP1 DUP4 SLOAD DIV MUL DUP4 MSTORE SWAP2 PUSH1 0x20 ADD SWAP2 PUSH2 0x2324 JUMP JUMPDEST DUP3 ADD SWAP2 SWAP1 PUSH1 0x0 MSTORE PUSH1 0x20 PUSH1 0x0 KECCAK256 SWAP1 JUMPDEST DUP2 SLOAD DUP2 MSTORE SWAP1 PUSH1 0x1 ADD SWAP1 PUSH1 0x20 ADD DUP1 DUP4 GT PUSH2 0x2307 JUMPI DUP3 SWAP1 SUB PUSH1 0x1F AND DUP3 ADD SWAP2 JUMPDEST POP POP POP POP POP DUP2 MSTORE PUSH1 0x20 ADD PUSH1 0x2 DUP3 ADD PUSH1 0x0 SWAP1 SLOAD SWAP1 PUSH2 0x100 EXP SWAP1 DIV PUSH1 0xFF AND PUSH1 0x8 DUP2 GT ISZERO PUSH2 0x2352 JUMPI PUSH2 0x2351 PUSH2 0x33F0 JUMP JUMPDEST JUMPDEST PUSH1 0x8 DUP2 GT ISZERO PUSH2 0x2364 JUMPI PUSH2 0x2363 PUSH2 0x33F0 JUMP JUMPDEST JUMPDEST DUP2 MSTORE PUSH1 0x20 ADD PUSH1 0x2 DUP3 ADD PUSH1 0x1 SWAP1 SLOAD SWAP1 PUSH2 0x100 EXP SWAP1 DIV PUSH1 0xFF AND PUSH1 0x2 DUP2 GT ISZERO PUSH2 0x238D JUMPI PUSH2 0x238C PUSH2 0x33F0 JUMP JUMPDEST JUMPDEST PUSH1 0x2 DUP2 GT ISZERO PUSH2 0x239F JUMPI PUSH2 0x239E PUSH2 0x33F0 JUMP JUMPDEST JUMPDEST DUP2 MSTORE PUSH1 0x20 ADD PUSH1 0x3 DUP3 ADD SLOAD DUP2 MSTORE PUSH1 0x20 ADD PUSH1 0x4 DUP3 ADD SLOAD DUP2 MSTORE PUSH1 0x20 ADD PUSH1 0x5 DUP3 ADD PUSH1 0x0 SWAP1 SLOAD SWAP1 PUSH2 0x100 EXP SWAP1 DIV PUSH20 0xFFFFFFFFFFFFFFFFFFFFFFFFFFFFFFFFFFFFFFFF AND PUSH20 0xFFFFFFFFFFFFFFFFFFFFFFFFFFFFFFFFFFFFFFFF AND PUSH20 0xFFFFFFFFFFFFFFFFFFFFFFFFFFFFFFFFFFFFFFFF AND DUP2 MSTORE POP POP SWAP1 POP SWAP2 SWAP1 POP JUMP JUMPDEST PUSH2 0x241C PUSH2 0x272E JUMP JUMPDEST PUSH1 0x3 DUP3 PUSH1 0x40 MLOAD PUSH2 0x242C SWAP2 SWAP1 PUSH2 0x2F2F JUMP JUMPDEST SWAP1 DUP2 MSTORE PUSH1 0x20 ADD PUSH1 0x40 MLOAD DUP1 SWAP2 SUB SWAP1 KECCAK256 PUSH1 0x40 MLOAD DUP1 PUSH1 0x60 ADD PUSH1 0x40 MSTORE SWAP1 DUP2 PUSH1 0x0 DUP3 ADD DUP1 SLOAD PUSH2 0x2455 SWAP1 PUSH2 0x3315 JUMP JUMPDEST DUP1 PUSH1 0x1F ADD PUSH1 0x20 DUP1 SWAP2 DIV MUL PUSH1 0x20 ADD PUSH1 0x40 MLOAD SWAP1 DUP2 ADD PUSH1 0x40 MSTORE DUP1 SWAP3 SWAP2 SWAP1 DUP2 DUP2 MSTORE PUSH1 0x20 ADD DUP3 DUP1 SLOAD PUSH2 0x2481 SWAP1 PUSH2 0x3315 JUMP JUMPDEST DUP1 ISZERO PUSH2 0x24CE JUMPI DUP1 PUSH1 0x1F LT PUSH2 0x24A3 JUMPI PUSH2 0x100 DUP1 DUP4 SLOAD DIV MUL DUP4 MSTORE SWAP2 PUSH1 0x20 ADD SWAP2 PUSH2 0x24CE JUMP JUMPDEST DUP3 ADD SWAP2 SWAP1 PUSH1 0x0 MSTORE PUSH1 0x20 PUSH1 0x0 KECCAK256 SWAP1 JUMPDEST DUP2 SLOAD DUP2 MSTORE SWAP1 PUSH1 0x1 ADD SWAP1 PUSH1 0x20 ADD DUP1 DUP4 GT PUSH2 0x24B1 JUMPI DUP3 SWAP1 SUB PUSH1 0x1F AND DUP3 ADD SWAP2 JUMPDEST POP POP POP POP POP DUP2 MSTORE PUSH1 0x20 ADD PUSH1 0x1 DUP3 ADD PUSH1 0x0 SWAP1 SLOAD SWAP1 PUSH2 0x100 EXP SWAP1 DIV PUSH20 0xFFFFFFFFFFFFFFFFFFFFFFFFFFFFFFFFFFFFFFFF AND PUSH20 0xFFFFFFFFFFFFFFFFFFFFFFFFFFFFFFFFFFFFFFFF AND PUSH20 0xFFFFFFFFFFFFFFFFFFFFFFFFFFFFFFFFFFFFFFFF AND DUP2 MSTORE PUSH1 0x20 ADD PUSH1 0x1 DUP3 ADD PUSH1 0x14 SWAP1 SLOAD SWAP1 PUSH2 0x100 EXP SWAP1 DIV PUSH1 0xFF AND PUSH1 0x2 DUP2 GT ISZERO PUSH2 0x2552 JUMPI PUSH2 0x2551 PUSH2 0x33F0 JUMP JUMPDEST JUMPDEST PUSH1 0x2 DUP2 GT ISZERO PUSH2 0x2564 JUMPI PUSH2 0x2563 PUSH2 0x33F0 JUMP JUMPDEST JUMPDEST DUP2 MSTORE POP POP SWAP1 POP SWAP2 SWAP1 POP JUMP JUMPDEST PUSH1 0x0 DUP2 PUSH1 0x40 MLOAD PUSH1 0x20 ADD PUSH2 0x2582 SWAP2 SWAP1 PUSH2 0x2F2F JUMP JUMPDEST PUSH1 0x40 MLOAD PUSH1 0x20 DUP2 DUP4 SUB SUB DUP2 MSTORE SWAP1 PUSH1 0x40 MSTORE DUP1 MLOAD SWAP1 PUSH1 0x20 ADD KECCAK256 DUP4 PUSH1 0x40 MLOAD PUSH1 0x20 ADD PUSH2 0x25A9 SWAP2 SWAP1 PUSH2 0x2F2F JUMP JUMPDEST PUSH1 0x40 MLOAD PUSH1 0x20 DUP2 DUP4 SUB SUB DUP2 MSTORE SWAP1 PUSH1 0x40 MSTORE DUP1 MLOAD SWAP1 PUSH1 0x20 ADD KECCAK256 EQ SWAP1 POP SWAP3 SWAP2 POP POP JUMP JUMPDEST PUSH1 0x40 MLOAD DUP1 PUSH1 0xE0 ADD PUSH1 0x40 MSTORE DUP1 PUSH1 0x60 DUP2 MSTORE PUSH1 0x20 ADD PUSH1 0x60 DUP2 MSTORE PUSH1 0x20 ADD PUSH1 0x0 PUSH1 0x8 DUP2 GT ISZERO PUSH2 0x25F5 JUMPI PUSH2 0x25F4 PUSH2 0x33F0 JUMP JUMPDEST JUMPDEST DUP2 MSTORE PUSH1 0x20 ADD PUSH1 0x0 PUSH1 0x2 DUP2 GT ISZERO PUSH2 0x260E JUMPI PUSH2 0x260D PUSH2 0x33F0 JUMP JUMPDEST JUMPDEST DUP2 MSTORE PUSH1 0x20 ADD PUSH1 0x0 DUP2 MSTORE PUSH1 0x20 ADD PUSH1 0x0 DUP2 MSTORE PUSH1 0x20 ADD PUSH1 0x0 PUSH20 0xFFFFFFFFFFFFFFFFFFFFFFFFFFFFFFFFFFFFFFFF AND DUP2 MSTORE POP SWAP1 JUMP JUMPDEST PUSH1 0x40 MLOAD DUP1 PUSH1 0xE0 ADD PUSH1 0x40 MSTORE DUP1 PUSH1 0x60 DUP2 MSTORE PUSH1 0x20 ADD PUSH1 0x60 DUP2 MSTORE PUSH1 0x20 ADD PUSH1 0x0 DUP2 MSTORE PUSH1 0x20 ADD PUSH1 0x0 PUSH20 0xFFFFFFFFFFFFFFFFFFFFFFFFFFFFFFFFFFFFFFFF AND DUP2 MSTORE PUSH1 0x20 ADD PUSH1 0x0 PUSH20 0xFFFFFFFFFFFFFFFFFFFFFFFFFFFFFFFFFFFFFFFF AND DUP2 MSTORE PUSH1 0x20 ADD PUSH1 0x0 DUP2 MSTORE PUSH1 0x20 ADD PUSH1 0x0 DUP2 MSTORE POP SWAP1 JUMP JUMPDEST DUP3 DUP1 SLOAD PUSH2 0x26B4 SWAP1 PUSH2 0x3315 JUMP JUMPDEST SWAP1 PUSH1 0x0 MSTORE PUSH1 0x20 PUSH1 0x0 KECCAK256 SWAP1 PUSH1 0x1F ADD PUSH1 0x20 SWAP1 DIV DUP2 ADD SWAP3 DUP3 PUSH2 0x26D6 JUMPI PUSH1 0x0 DUP6 SSTORE PUSH2 0x271D JUMP JUMPDEST DUP3 PUSH1 0x1F LT PUSH2 0x26EF JUMPI DUP1 MLOAD PUSH1 0xFF NOT AND DUP4 DUP1 ADD OR DUP6 SSTORE PUSH2 0x271D JUMP JUMPDEST DUP3 DUP1 ADD PUSH1 0x1 ADD DUP6 SSTORE DUP3 ISZERO PUSH2 0x271D JUMPI SWAP2 DUP3 ADD JUMPDEST DUP3 DUP2 GT ISZERO PUSH2 0x271C JUMPI DUP3 MLOAD DUP3 SSTORE SWAP2 PUSH1 0x20 ADD SWAP2 SWAP1 PUSH1 0x1 ADD SWAP1 PUSH2 0x2701 JUMP JUMPDEST JUMPDEST POP SWAP1 POP PUSH2 0x272A SWAP2 SWAP1 PUSH2 0x2777 JUMP JUMPDEST POP SWAP1 JUMP JUMPDEST PUSH1 0x40 MLOAD DUP1 PUSH1 0x60 ADD PUSH1 0x40 MSTORE DUP1 PUSH1 0x60 DUP2 MSTORE PUSH1 0x20 ADD PUSH1 0x0 PUSH20 0xFFFFFFFFFFFFFFFFFFFFFFFFFFFFFFFFFFFFFFFF AND DUP2 MSTORE PUSH1 0x20 ADD PUSH1 0x0 PUSH1 0x2 DUP2 GT ISZERO PUSH2 0x2771 JUMPI PUSH2 0x2770 PUSH2 0x33F0 JUMP JUMPDEST JUMPDEST DUP2 MSTORE POP SWAP1 JUMP JUMPDEST JUMPDEST DUP1 DUP3 GT ISZERO PUSH2 0x2790 JUMPI PUSH1 0x0 DUP2 PUSH1 0x0 SWAP1 SSTORE POP PUSH1 0x1 ADD PUSH2 0x2778 JUMP JUMPDEST POP SWAP1 JUMP JUMPDEST PUSH1 0x0 PUSH2 0x27A7 PUSH2 0x27A2 DUP5 PUSH2 0x30DC JUMP JUMPDEST PUSH2 0x30B7 JUMP JUMPDEST SWAP1 POP DUP3 DUP2 MSTORE PUSH1 0x20 DUP2 ADD DUP5 DUP5 DUP5 ADD GT ISZERO PUSH2 0x27C3 JUMPI PUSH2 0x27C2 PUSH2 0x34B1 JUMP JUMPDEST JUMPDEST PUSH2 0x27CE DUP5 DUP3 DUP6 PUSH2 0x32D3 JUMP JUMPDEST POP SWAP4 SWAP3 POP POP POP JUMP JUMPDEST PUSH1 0x0 DUP2 CALLDATALOAD SWAP1 POP PUSH2 0x27E5 DUP2 PUSH2 0x34F9 JUMP JUMPDEST SWAP3 SWAP2 POP POP JUMP JUMPDEST PUSH1 0x0 DUP2 CALLDATALOAD SWAP1 POP PUSH2 0x27FA DUP2 PUSH2 0x3510 JUMP JUMPDEST SWAP3 SWAP2 POP POP JUMP JUMPDEST PUSH1 0x0 DUP3 PUSH1 0x1F DUP4 ADD SLT PUSH2 0x2815 JUMPI PUSH2 0x2814 PUSH2 0x34AC JUMP JUMPDEST JUMPDEST DUP2 CALLDATALOAD PUSH2 0x2825 DUP5 DUP3 PUSH1 0x20 DUP7 ADD PUSH2 0x2794 JUMP JUMPDEST SWAP2 POP POP SWAP3 SWAP2 POP POP JUMP JUMPDEST PUSH1 0x0 DUP2 CALLDATALOAD SWAP1 POP PUSH2 0x283D DUP2 PUSH2 0x3520 JUMP JUMPDEST SWAP3 SWAP2 POP POP JUMP JUMPDEST PUSH1 0x0 PUSH1 0x20 DUP3 DUP5 SUB SLT ISZERO PUSH2 0x2859 JUMPI PUSH2 0x2858 PUSH2 0x34BB JUMP JUMPDEST JUMPDEST PUSH1 0x0 PUSH2 0x2867 DUP5 DUP3 DUP6 ADD PUSH2 0x27D6 JUMP JUMPDEST SWAP2 POP POP SWAP3 SWAP2 POP POP JUMP JUMPDEST PUSH1 0x0 PUSH1 0x20 DUP3 DUP5 SUB SLT ISZERO PUSH2 0x2886 JUMPI PUSH2 0x2885 PUSH2 0x34BB JUMP JUMPDEST JUMPDEST PUSH1 0x0 PUSH2 0x2894 DUP5 DUP3 DUP6 ADD PUSH2 0x27EB JUMP JUMPDEST SWAP2 POP POP SWAP3 SWAP2 POP POP JUMP JUMPDEST PUSH1 0x0 PUSH1 0x20 DUP3 DUP5 SUB SLT ISZERO PUSH2 0x28B3 JUMPI PUSH2 0x28B2 PUSH2 0x34BB JUMP JUMPDEST JUMPDEST PUSH1 0x0 DUP3 ADD CALLDATALOAD PUSH8 0xFFFFFFFFFFFFFFFF DUP2 GT ISZERO PUSH2 0x28D1 JUMPI PUSH2 0x28D0 PUSH2 0x34B6 JUMP JUMPDEST JUMPDEST PUSH2 0x28DD DUP5 DUP3 DUP6 ADD PUSH2 0x2800 JUMP JUMPDEST SWAP2 POP POP SWAP3 SWAP2 POP POP JUMP JUMPDEST PUSH1 0x0 DUP1 PUSH1 0x40 DUP4 DUP6 SUB SLT ISZERO PUSH2 0x28FD JUMPI PUSH2 0x28FC PUSH2 0x34BB JUMP JUMPDEST JUMPDEST PUSH1 0x0 DUP4 ADD CALLDATALOAD PUSH8 0xFFFFFFFFFFFFFFFF DUP2 GT ISZERO PUSH2 0x291B JUMPI PUSH2 0x291A PUSH2 0x34B6 JUMP JUMPDEST JUMPDEST PUSH2 0x2927 DUP6 DUP3 DUP7 ADD PUSH2 0x2800 JUMP JUMPDEST SWAP3 POP POP PUSH1 0x20 DUP4 ADD CALLDATALOAD PUSH8 0xFFFFFFFFFFFFFFFF DUP2 GT ISZERO PUSH2 0x2948 JUMPI PUSH2 0x2947 PUSH2 0x34B6 JUMP JUMPDEST JUMPDEST PUSH2 0x2954 DUP6 DUP3 DUP7 ADD PUSH2 0x2800 JUMP JUMPDEST SWAP2 POP POP SWAP3 POP SWAP3 SWAP1 POP JUMP JUMPDEST PUSH1 0x0 DUP1 PUSH1 0x0 PUSH1 0x60 DUP5 DUP7 SUB SLT ISZERO PUSH2 0x2977 JUMPI PUSH2 0x2976 PUSH2 0x34BB JUMP JUMPDEST JUMPDEST PUSH1 0x0 DUP5 ADD CALLDATALOAD PUSH8 0xFFFFFFFFFFFFFFFF DUP2 GT ISZERO PUSH2 0x2995 JUMPI PUSH2 0x2994 PUSH2 0x34B6 JUMP JUMPDEST JUMPDEST PUSH2 0x29A1 DUP7 DUP3 DUP8 ADD PUSH2 0x2800 JUMP JUMPDEST SWAP4 POP POP PUSH1 0x20 DUP5 ADD CALLDATALOAD PUSH8 0xFFFFFFFFFFFFFFFF DUP2 GT ISZERO PUSH2 0x29C2 JUMPI PUSH2 0x29C1 PUSH2 0x34B6 JUMP JUMPDEST JUMPDEST PUSH2 0x29CE DUP7 DUP3 DUP8 ADD PUSH2 0x2800 JUMP JUMPDEST SWAP3 POP POP PUSH1 0x40 PUSH2 0x29DF DUP7 DUP3 DUP8 ADD PUSH2 0x27D6 JUMP JUMPDEST SWAP2 POP POP SWAP3 POP SWAP3 POP SWAP3 JUMP JUMPDEST PUSH1 0x0 DUP1 PUSH1 0x0 DUP1 PUSH1 0x0 PUSH1 0xA0 DUP7 DUP9 SUB SLT ISZERO PUSH2 0x2A05 JUMPI PUSH2 0x2A04 PUSH2 0x34BB JUMP JUMPDEST JUMPDEST PUSH1 0x0 DUP7 ADD CALLDATALOAD PUSH8 0xFFFFFFFFFFFFFFFF DUP2 GT ISZERO PUSH2 0x2A23 JUMPI PUSH2 0x2A22 PUSH2 0x34B6 JUMP JUMPDEST JUMPDEST PUSH2 0x2A2F DUP9 DUP3 DUP10 ADD PUSH2 0x2800 JUMP JUMPDEST SWAP6 POP POP PUSH1 0x20 DUP7 ADD CALLDATALOAD PUSH8 0xFFFFFFFFFFFFFFFF DUP2 GT ISZERO PUSH2 0x2A50 JUMPI PUSH2 0x2A4F PUSH2 0x34B6 JUMP JUMPDEST JUMPDEST PUSH2 0x2A5C DUP9 DUP3 DUP10 ADD PUSH2 0x2800 JUMP JUMPDEST SWAP5 POP POP PUSH1 0x40 PUSH2 0x2A6D DUP9 DUP3 DUP10 ADD PUSH2 0x27EB JUMP JUMPDEST SWAP4 POP POP PUSH1 0x60 PUSH2 0x2A7E DUP9 DUP3 DUP10 ADD PUSH2 0x282E JUMP JUMPDEST SWAP3 POP POP PUSH1 0x80 PUSH2 0x2A8F DUP9 DUP3 DUP10 ADD PUSH2 0x282E JUMP JUMPDEST SWAP2 POP POP SWAP3 SWAP6 POP SWAP3 SWAP6 SWAP1 SWAP4 POP JUMP JUMPDEST PUSH1 0x0 PUSH1 0x20 DUP3 DUP5 SUB SLT ISZERO PUSH2 0x2AB2 JUMPI PUSH2 0x2AB1 PUSH2 0x34BB JUMP JUMPDEST JUMPDEST PUSH1 0x0 PUSH2 0x2AC0 DUP5 DUP3 DUP6 ADD PUSH2 0x282E JUMP JUMPDEST SWAP2 POP POP SWAP3 SWAP2 POP POP JUMP JUMPDEST PUSH1 0x0 PUSH2 0x2AD5 DUP4 DUP4 PUSH2 0x2D28 JUMP JUMPDEST SWAP1 POP SWAP3 SWAP2 POP POP JUMP JUMPDEST PUSH1 0x0 PUSH2 0x2AE9 DUP4 DUP4 PUSH2 0x2DCB JUMP JUMPDEST SWAP1 POP SWAP3 SWAP2 POP POP JUMP JUMPDEST PUSH2 0x2AFA DUP2 PUSH2 0x3241 JUMP JUMPDEST DUP3 MSTORE POP POP JUMP JUMPDEST PUSH2 0x2B09 DUP2 PUSH2 0x3241 JUMP JUMPDEST DUP3 MSTORE POP POP JUMP JUMPDEST PUSH1 0x0 PUSH2 0x2B1A DUP3 PUSH2 0x312D JUMP JUMPDEST PUSH2 0x2B24 DUP2 DUP6 PUSH2 0x3168 JUMP JUMPDEST SWAP4 POP DUP4 PUSH1 0x20 DUP3 MUL DUP6 ADD PUSH2 0x2B36 DUP6 PUSH2 0x310D JUMP JUMPDEST DUP1 PUSH1 0x0 JUMPDEST DUP6 DUP2 LT ISZERO PUSH2 0x2B72 JUMPI DUP5 DUP5 SUB DUP10 MSTORE DUP2 MLOAD PUSH2 0x2B53 DUP6 DUP3 PUSH2 0x2AC9 JUMP JUMPDEST SWAP5 POP PUSH2 0x2B5E DUP4 PUSH2 0x314E JUMP JUMPDEST SWAP3 POP PUSH1 0x20 DUP11 ADD SWAP10 POP POP PUSH1 0x1 DUP2 ADD SWAP1 POP PUSH2 0x2B3A JUMP JUMPDEST POP DUP3 SWAP8 POP DUP8 SWAP6 POP POP POP POP POP POP SWAP3 SWAP2 POP POP JUMP JUMPDEST PUSH1 0x0 PUSH2 0x2B8F DUP3 PUSH2 0x3138 JUMP JUMPDEST PUSH2 0x2B99 DUP2 DUP6 PUSH2 0x3179 JUMP JUMPDEST SWAP4 POP DUP4 PUSH1 0x20 DUP3 MUL DUP6 ADD PUSH2 0x2BAB DUP6 PUSH2 0x311D JUMP JUMPDEST DUP1 PUSH1 0x0 JUMPDEST DUP6 DUP2 LT ISZERO PUSH2 0x2BE7 JUMPI DUP5 DUP5 SUB DUP10 MSTORE DUP2 MLOAD PUSH2 0x2BC8 DUP6 DUP3 PUSH2 0x2ADD JUMP JUMPDEST SWAP5 POP PUSH2 0x2BD3 DUP4 PUSH2 0x315B JUMP JUMPDEST SWAP3 POP PUSH1 0x20 DUP11 ADD SWAP10 POP POP PUSH1 0x1 DUP2 ADD SWAP1 POP PUSH2 0x2BAF JUMP JUMPDEST POP DUP3 SWAP8 POP DUP8 SWAP6 POP POP POP POP POP POP SWAP3 SWAP2 POP POP JUMP JUMPDEST PUSH2 0x2C02 DUP2 PUSH2 0x3253 JUMP JUMPDEST DUP3 MSTORE POP POP JUMP JUMPDEST PUSH2 0x2C11 DUP2 PUSH2 0x32AF JUMP JUMPDEST DUP3 MSTORE POP POP JUMP JUMPDEST PUSH2 0x2C20 DUP2 PUSH2 0x32C1 JUMP JUMPDEST DUP3 MSTORE POP POP JUMP JUMPDEST PUSH2 0x2C2F DUP2 PUSH2 0x32C1 JUMP JUMPDEST DUP3 MSTORE POP POP JUMP JUMPDEST PUSH1 0x0 PUSH2 0x2C40 DUP3 PUSH2 0x3143 JUMP JUMPDEST PUSH2 0x2C4A DUP2 DUP6 PUSH2 0x318A JUMP JUMPDEST SWAP4 POP PUSH2 0x2C5A DUP2 DUP6 PUSH1 0x20 DUP7 ADD PUSH2 0x32E2 JUMP JUMPDEST PUSH2 0x2C63 DUP2 PUSH2 0x34C0 JUMP JUMPDEST DUP5 ADD SWAP2 POP POP SWAP3 SWAP2 POP POP JUMP JUMPDEST PUSH1 0x0 PUSH2 0x2C79 DUP3 PUSH2 0x3143 JUMP JUMPDEST PUSH2 0x2C83 DUP2 DUP6 PUSH2 0x319B JUMP JUMPDEST SWAP4 POP PUSH2 0x2C93 DUP2 DUP6 PUSH1 0x20 DUP7 ADD PUSH2 0x32E2 JUMP JUMPDEST PUSH2 0x2C9C DUP2 PUSH2 0x34C0 JUMP JUMPDEST DUP5 ADD SWAP2 POP POP SWAP3 SWAP2 POP POP JUMP JUMPDEST PUSH1 0x0 PUSH2 0x2CB2 DUP3 PUSH2 0x3143 JUMP JUMPDEST PUSH2 0x2CBC DUP2 DUP6 PUSH2 0x31AC JUMP JUMPDEST SWAP4 POP PUSH2 0x2CCC DUP2 DUP6 PUSH1 0x20 DUP7 ADD PUSH2 0x32E2 JUMP JUMPDEST DUP1 DUP5 ADD SWAP2 POP POP SWAP3 SWAP2 POP POP JUMP JUMPDEST PUSH1 0x0 PUSH1 0x60 DUP4 ADD PUSH1 0x0 DUP4 ADD MLOAD DUP5 DUP3 SUB PUSH1 0x0 DUP7 ADD MSTORE PUSH2 0x2CF5 DUP3 DUP3 PUSH2 0x2C35 JUMP JUMPDEST SWAP2 POP POP PUSH1 0x20 DUP4 ADD MLOAD PUSH2 0x2D0A PUSH1 0x20 DUP7 ADD DUP3 PUSH2 0x2AF1 JUMP JUMPDEST POP PUSH1 0x40 DUP4 ADD MLOAD PUSH2 0x2D1D PUSH1 0x40 DUP7 ADD DUP3 PUSH2 0x2C08 JUMP JUMPDEST POP DUP1 SWAP2 POP POP SWAP3 SWAP2 POP POP JUMP JUMPDEST PUSH1 0x0 PUSH1 0xE0 DUP4 ADD PUSH1 0x0 DUP4 ADD MLOAD DUP5 DUP3 SUB PUSH1 0x0 DUP7 ADD MSTORE PUSH2 0x2D45 DUP3 DUP3 PUSH2 0x2C35 JUMP JUMPDEST SWAP2 POP POP PUSH1 0x20 DUP4 ADD MLOAD DUP5 DUP3 SUB PUSH1 0x20 DUP7 ADD MSTORE PUSH2 0x2D5F DUP3 DUP3 PUSH2 0x2C35 JUMP JUMPDEST SWAP2 POP POP PUSH1 0x40 DUP4 ADD MLOAD PUSH2 0x2D74 PUSH1 0x40 DUP7 ADD DUP3 PUSH2 0x2F11 JUMP JUMPDEST POP PUSH1 0x60 DUP4 ADD MLOAD PUSH2 0x2D87 PUSH1 0x60 DUP7 ADD DUP3 PUSH2 0x2AF1 JUMP JUMPDEST POP PUSH1 0x80 DUP4 ADD MLOAD PUSH2 0x2D9A PUSH1 0x80 DUP7 ADD DUP3 PUSH2 0x2AF1 JUMP JUMPDEST POP PUSH1 0xA0 DUP4 ADD MLOAD PUSH2 0x2DAD PUSH1 0xA0 DUP7 ADD DUP3 PUSH2 0x2F11 JUMP JUMPDEST POP PUSH1 0xC0 DUP4 ADD MLOAD PUSH2 0x2DC0 PUSH1 0xC0 DUP7 ADD DUP3 PUSH2 0x2F11 JUMP JUMPDEST POP DUP1 SWAP2 POP POP SWAP3 SWAP2 POP POP JUMP JUMPDEST PUSH1 0x0 PUSH1 0xE0 DUP4 ADD PUSH1 0x0 DUP4 ADD MLOAD DUP5 DUP3 SUB PUSH1 0x0 DUP7 ADD MSTORE PUSH2 0x2DE8 DUP3 DUP3 PUSH2 0x2C35 JUMP JUMPDEST SWAP2 POP POP PUSH1 0x20 DUP4 ADD MLOAD DUP5 DUP3 SUB PUSH1 0x20 DUP7 ADD MSTORE PUSH2 0x2E02 DUP3 DUP3 PUSH2 0x2C35 JUMP JUMPDEST SWAP2 POP POP PUSH1 0x40 DUP4 ADD MLOAD PUSH2 0x2E17 PUSH1 0x40 DUP7 ADD DUP3 PUSH2 0x2C17 JUMP JUMPDEST POP PUSH1 0x60 DUP4 ADD MLOAD PUSH2 0x2E2A PUSH1 0x60 DUP7 ADD DUP3 PUSH2 0x2C08 JUMP JUMPDEST POP PUSH1 0x80 DUP4 ADD MLOAD PUSH2 0x2E3D PUSH1 0x80 DUP7 ADD DUP3 PUSH2 0x2F11 JUMP JUMPDEST POP PUSH1 0xA0 DUP4 ADD MLOAD PUSH2 0x2E50 PUSH1 0xA0 DUP7 ADD DUP3 PUSH2 0x2F11 JUMP JUMPDEST POP PUSH1 0xC0 DUP4 ADD MLOAD PUSH2 0x2E63 PUSH1 0xC0 DUP7 ADD DUP3 PUSH2 0x2AF1 JUMP JUMPDEST POP DUP1 SWAP2 POP POP SWAP3 SWAP2 POP POP JUMP JUMPDEST PUSH1 0x0 PUSH1 0xE0 DUP4 ADD PUSH1 0x0 DUP4 ADD MLOAD DUP5 DUP3 SUB PUSH1 0x0 DUP7 ADD MSTORE PUSH2 0x2E8B DUP3 DUP3 PUSH2 0x2C35 JUMP JUMPDEST SWAP2 POP POP PUSH1 0x20 DUP4 ADD MLOAD DUP5 DUP3 SUB PUSH1 0x20 DUP7 ADD MSTORE PUSH2 0x2EA5 DUP3 DUP3 PUSH2 0x2C35 JUMP JUMPDEST SWAP2 POP POP PUSH1 0x40 DUP4 ADD MLOAD PUSH2 0x2EBA PUSH1 0x40 DUP7 ADD DUP3 PUSH2 0x2C17 JUMP JUMPDEST POP PUSH1 0x60 DUP4 ADD MLOAD PUSH2 0x2ECD PUSH1 0x60 DUP7 ADD DUP3 PUSH2 0x2C08 JUMP JUMPDEST POP PUSH1 0x80 DUP4 ADD MLOAD PUSH2 0x2EE0 PUSH1 0x80 DUP7 ADD DUP3 PUSH2 0x2F11 JUMP JUMPDEST POP PUSH1 0xA0 DUP4 ADD MLOAD PUSH2 0x2EF3 PUSH1 0xA0 DUP7 ADD DUP3 PUSH2 0x2F11 JUMP JUMPDEST POP PUSH1 0xC0 DUP4 ADD MLOAD PUSH2 0x2F06 PUSH1 0xC0 DUP7 ADD DUP3 PUSH2 0x2AF1 JUMP JUMPDEST POP DUP1 SWAP2 POP POP SWAP3 SWAP2 POP POP JUMP JUMPDEST PUSH2 0x2F1A DUP2 PUSH2 0x32A5 JUMP JUMPDEST DUP3 MSTORE POP POP JUMP JUMPDEST PUSH2 0x2F29 DUP2 PUSH2 0x32A5 JUMP JUMPDEST DUP3 MSTORE POP POP JUMP JUMPDEST PUSH1 0x0 PUSH2 0x2F3B DUP3 DUP5 PUSH2 0x2CA7 JUMP JUMPDEST SWAP2 POP DUP2 SWAP1 POP SWAP3 SWAP2 POP POP JUMP JUMPDEST PUSH1 0x0 PUSH1 0x20 DUP3 ADD SWAP1 POP PUSH2 0x2F5B PUSH1 0x0 DUP4 ADD DUP5 PUSH2 0x2B00 JUMP JUMPDEST SWAP3 SWAP2 POP POP JUMP JUMPDEST PUSH1 0x0 PUSH1 0x20 DUP3 ADD SWAP1 POP DUP2 DUP2 SUB PUSH1 0x0 DUP4 ADD MSTORE PUSH2 0x2F7B DUP2 DUP5 PUSH2 0x2B0F JUMP JUMPDEST SWAP1 POP SWAP3 SWAP2 POP POP JUMP JUMPDEST PUSH1 0x0 PUSH1 0x20 DUP3 ADD SWAP1 POP DUP2 DUP2 SUB PUSH1 0x0 DUP4 ADD MSTORE PUSH2 0x2F9D DUP2 DUP5 PUSH2 0x2B84 JUMP JUMPDEST SWAP1 POP SWAP3 SWAP2 POP POP JUMP JUMPDEST PUSH1 0x0 PUSH1 0x20 DUP3 ADD SWAP1 POP PUSH2 0x2FBA PUSH1 0x0 DUP4 ADD DUP5 PUSH2 0x2BF9 JUMP JUMPDEST SWAP3 SWAP2 POP POP JUMP JUMPDEST PUSH1 0x0 PUSH1 0x20 DUP3 ADD SWAP1 POP PUSH2 0x2FD5 PUSH1 0x0 DUP4 ADD DUP5 PUSH2 0x2C26 JUMP JUMPDEST SWAP3 SWAP2 POP POP JUMP JUMPDEST PUSH1 0x0 PUSH1 0xE0 DUP3 ADD SWAP1 POP DUP2 DUP2 SUB PUSH1 0x0 DUP4 ADD MSTORE PUSH2 0x2FF5 DUP2 DUP11 PUSH2 0x2C6E JUMP JUMPDEST SWAP1 POP DUP2 DUP2 SUB PUSH1 0x20 DUP4 ADD MSTORE PUSH2 0x3009 DUP2 DUP10 PUSH2 0x2C6E JUMP JUMPDEST SWAP1 POP PUSH2 0x3018 PUSH1 0x40 DUP4 ADD DUP9 PUSH2 0x2F20 JUMP JUMPDEST PUSH2 0x3025 PUSH1 0x60 DUP4 ADD DUP8 PUSH2 0x2B00 JUMP JUMPDEST PUSH2 0x3032 PUSH1 0x80 DUP4 ADD DUP7 PUSH2 0x2B00 JUMP JUMPDEST PUSH2 0x303F PUSH1 0xA0 DUP4 ADD DUP6 PUSH2 0x2F20 JUMP JUMPDEST PUSH2 0x304C PUSH1 0xC0 DUP4 ADD DUP5 PUSH2 0x2F20 JUMP JUMPDEST SWAP9 SWAP8 POP POP POP POP POP POP POP POP JUMP JUMPDEST PUSH1 0x0 PUSH1 0x20 DUP3 ADD SWAP1 POP DUP2 DUP2 SUB PUSH1 0x0 DUP4 ADD MSTORE PUSH2 0x3072 DUP2 DUP5 PUSH2 0x2CD8 JUMP JUMPDEST SWAP1 POP SWAP3 SWAP2 POP POP JUMP JUMPDEST PUSH1 0x0 PUSH1 0x20 DUP3 ADD SWAP1 POP DUP2 DUP2 SUB PUSH1 0x0 DUP4 ADD MSTORE PUSH2 0x3094 DUP2 DUP5 PUSH2 0x2E6E JUMP JUMPDEST SWAP1 POP SWAP3 SWAP2 POP POP JUMP JUMPDEST PUSH1 0x0 PUSH1 0x20 DUP3 ADD SWAP1 POP PUSH2 0x30B1 PUSH1 0x0 DUP4 ADD DUP5 PUSH2 0x2F20 JUMP JUMPDEST SWAP3 SWAP2 POP POP JUMP JUMPDEST PUSH1 0x0 PUSH2 0x30C1 PUSH2 0x30D2 JUMP JUMPDEST SWAP1 POP PUSH2 0x30CD DUP3 DUP3 PUSH2 0x3347 JUMP JUMPDEST SWAP2 SWAP1 POP JUMP JUMPDEST PUSH1 0x0 PUSH1 0x40 MLOAD SWAP1 POP SWAP1 JUMP JUMPDEST PUSH1 0x0 PUSH8 0xFFFFFFFFFFFFFFFF DUP3 GT ISZERO PUSH2 0x30F7 JUMPI PUSH2 0x30F6 PUSH2 0x347D JUMP JUMPDEST JUMPDEST PUSH2 0x3100 DUP3 PUSH2 0x34C0 JUMP JUMPDEST SWAP1 POP PUSH1 0x20 DUP2 ADD SWAP1 POP SWAP2 SWAP1 POP JUMP JUMPDEST PUSH1 0x0 DUP2 SWAP1 POP PUSH1 0x20 DUP3 ADD SWAP1 POP SWAP2 SWAP1 POP JUMP JUMPDEST PUSH1 0x0 DUP2 SWAP1 POP PUSH1 0x20 DUP3 ADD SWAP1 POP SWAP2 SWAP1 POP JUMP JUMPDEST PUSH1 0x0 DUP2 MLOAD SWAP1 POP SWAP2 SWAP1 POP JUMP JUMPDEST PUSH1 0x0 DUP2 MLOAD SWAP1 POP SWAP2 SWAP1 POP JUMP JUMPDEST PUSH1 0x0 DUP2 MLOAD SWAP1 POP SWAP2 SWAP1 POP JUMP JUMPDEST PUSH1 0x0 PUSH1 0x20 DUP3 ADD SWAP1 POP SWAP2 SWAP1 POP JUMP JUMPDEST PUSH1 0x0 PUSH1 0x20 DUP3 ADD SWAP1 POP SWAP2 SWAP1 POP JUMP JUMPDEST PUSH1 0x0 DUP3 DUP3 MSTORE PUSH1 0x20 DUP3 ADD SWAP1 POP SWAP3 SWAP2 POP POP JUMP JUMPDEST PUSH1 0x0 DUP3 DUP3 MSTORE PUSH1 0x20 DUP3 ADD SWAP1 POP SWAP3 SWAP2 POP POP JUMP JUMPDEST PUSH1 0x0 DUP3 DUP3 MSTORE PUSH1 0x20 DUP3 ADD SWAP1 POP SWAP3 SWAP2 POP POP JUMP JUMPDEST PUSH1 0x0 DUP3 DUP3 MSTORE PUSH1 0x20 DUP3 ADD SWAP1 POP SWAP3 SWAP2 POP POP JUMP JUMPDEST PUSH1 0x0 DUP2 SWAP1 POP SWAP3 SWAP2 POP POP JUMP JUMPDEST PUSH1 0x0 PUSH2 0x31C2 DUP3 PUSH2 0x32A5 JUMP JUMPDEST SWAP2 POP PUSH2 0x31CD DUP4 PUSH2 0x32A5 JUMP JUMPDEST SWAP3 POP DUP3 PUSH32 0xFFFFFFFFFFFFFFFFFFFFFFFFFFFFFFFFFFFFFFFFFFFFFFFFFFFFFFFFFFFFFFFF SUB DUP3 GT ISZERO PUSH2 0x3202 JUMPI PUSH2 0x3201 PUSH2 0x33C1 JUMP JUMPDEST JUMPDEST DUP3 DUP3 ADD SWAP1 POP SWAP3 SWAP2 POP POP JUMP JUMPDEST PUSH1 0x0 PUSH2 0x3218 DUP3 PUSH2 0x32A5 JUMP JUMPDEST SWAP2 POP PUSH2 0x3223 DUP4 PUSH2 0x32A5 JUMP JUMPDEST SWAP3 POP DUP3 DUP3 LT ISZERO PUSH2 0x3236 JUMPI PUSH2 0x3235 PUSH2 0x33C1 JUMP JUMPDEST JUMPDEST DUP3 DUP3 SUB SWAP1 POP SWAP3 SWAP2 POP POP JUMP JUMPDEST PUSH1 0x0 PUSH2 0x324C DUP3 PUSH2 0x3285 JUMP JUMPDEST SWAP1 POP SWAP2 SWAP1 POP JUMP JUMPDEST PUSH1 0x0 DUP2 ISZERO ISZERO SWAP1 POP SWAP2 SWAP1 POP JUMP JUMPDEST PUSH1 0x0 DUP2 SWAP1 POP PUSH2 0x326D DUP3 PUSH2 0x34D1 JUMP JUMPDEST SWAP2 SWAP1 POP JUMP JUMPDEST PUSH1 0x0 DUP2 SWAP1 POP PUSH2 0x3280 DUP3 PUSH2 0x34E5 JUMP JUMPDEST SWAP2 SWAP1 POP JUMP JUMPDEST PUSH1 0x0 PUSH20 0xFFFFFFFFFFFFFFFFFFFFFFFFFFFFFFFFFFFFFFFF DUP3 AND SWAP1 POP SWAP2 SWAP1 POP JUMP JUMPDEST PUSH1 0x0 DUP2 SWAP1 POP SWAP2 SWAP1 POP JUMP JUMPDEST PUSH1 0x0 PUSH2 0x32BA DUP3 PUSH2 0x325F JUMP JUMPDEST SWAP1 POP SWAP2 SWAP1 POP JUMP JUMPDEST PUSH1 0x0 PUSH2 0x32CC DUP3 PUSH2 0x3272 JUMP JUMPDEST SWAP1 POP SWAP2 SWAP1 POP JUMP JUMPDEST DUP3 DUP2 DUP4 CALLDATACOPY PUSH1 0x0 DUP4 DUP4 ADD MSTORE POP POP POP JUMP JUMPDEST PUSH1 0x0 JUMPDEST DUP4 DUP2 LT ISZERO PUSH2 0x3300 JUMPI DUP1 DUP3 ADD MLOAD DUP2 DUP5 ADD MSTORE PUSH1 0x20 DUP2 ADD SWAP1 POP PUSH2 0x32E5 JUMP JUMPDEST DUP4 DUP2 GT ISZERO PUSH2 0x330F JUMPI PUSH1 0x0 DUP5 DUP5 ADD MSTORE JUMPDEST POP POP POP POP JUMP JUMPDEST PUSH1 0x0 PUSH1 0x2 DUP3 DIV SWAP1 POP PUSH1 0x1 DUP3 AND DUP1 PUSH2 0x332D JUMPI PUSH1 0x7F DUP3 AND SWAP2 POP JUMPDEST PUSH1 0x20 DUP3 LT DUP2 EQ ISZERO PUSH2 0x3341 JUMPI PUSH2 0x3340 PUSH2 0x341F JUMP JUMPDEST JUMPDEST POP SWAP2 SWAP1 POP JUMP JUMPDEST PUSH2 0x3350 DUP3 PUSH2 0x34C0 JUMP JUMPDEST DUP2 ADD DUP2 DUP2 LT PUSH8 0xFFFFFFFFFFFFFFFF DUP3 GT OR ISZERO PUSH2 0x336F JUMPI PUSH2 0x336E PUSH2 0x347D JUMP JUMPDEST JUMPDEST DUP1 PUSH1 0x40 MSTORE POP POP POP JUMP JUMPDEST PUSH1 0x0 PUSH2 0x3383 DUP3 PUSH2 0x32A5 JUMP JUMPDEST SWAP2 POP PUSH32 0xFFFFFFFFFFFFFFFFFFFFFFFFFFFFFFFFFFFFFFFFFFFFFFFFFFFFFFFFFFFFFFFF DUP3 EQ ISZERO PUSH2 0x33B6 JUMPI PUSH2 0x33B5 PUSH2 0x33C1 JUMP JUMPDEST JUMPDEST PUSH1 0x1 DUP3 ADD SWAP1 POP SWAP2 SWAP1 POP JUMP JUMPDEST PUSH32 0x4E487B7100000000000000000000000000000000000000000000000000000000 PUSH1 0x0 MSTORE PUSH1 0x11 PUSH1 0x4 MSTORE PUSH1 0x24 PUSH1 0x0 REVERT JUMPDEST PUSH32 0x4E487B7100000000000000000000000000000000000000000000000000000000 PUSH1 0x0 MSTORE PUSH1 0x21 PUSH1 0x4 MSTORE PUSH1 0x24 PUSH1 0x0 REVERT JUMPDEST PUSH32 0x4E487B7100000000000000000000000000000000000000000000000000000000 PUSH1 0x0 MSTORE PUSH1 0x22 PUSH1 0x4 MSTORE PUSH1 0x24 PUSH1 0x0 REVERT JUMPDEST PUSH32 0x4E487B7100000000000000000000000000000000000000000000000000000000 PUSH1 0x0 MSTORE PUSH1 0x32 PUSH1 0x4 MSTORE PUSH1 0x24 PUSH1 0x0 REVERT JUMPDEST PUSH32 0x4E487B7100000000000000000000000000000000000000000000000000000000 PUSH1 0x0 MSTORE PUSH1 0x41 PUSH1 0x4 MSTORE PUSH1 0x24 PUSH1 0x0 REVERT JUMPDEST PUSH1 0x0 DUP1 REVERT JUMPDEST PUSH1 0x0 DUP1 REVERT JUMPDEST PUSH1 0x0 DUP1 REVERT JUMPDEST PUSH1 0x0 DUP1 REVERT JUMPDEST PUSH1 0x0 PUSH1 0x1F NOT PUSH1 0x1F DUP4 ADD AND SWAP1 POP SWAP2 SWAP1 POP JUMP JUMPDEST PUSH1 0x3 DUP2 LT PUSH2 0x34E2 JUMPI PUSH2 0x34E1 PUSH2 0x33F0 JUMP JUMPDEST JUMPDEST POP JUMP JUMPDEST PUSH1 0x9 DUP2 LT PUSH2 0x34F6 JUMPI PUSH2 0x34F5 PUSH2 0x33F0 JUMP JUMPDEST JUMPDEST POP JUMP JUMPDEST PUSH2 0x3502 DUP2 PUSH2 0x3241 JUMP JUMPDEST DUP2 EQ PUSH2 0x350D JUMPI PUSH1 0x0 DUP1 REVERT JUMPDEST POP JUMP JUMPDEST PUSH1 0x9 DUP2 LT PUSH2 0x351D JUMPI PUSH1 0x0 DUP1 REVERT JUMPDEST POP JUMP JUMPDEST PUSH2 0x3529 DUP2 PUSH2 0x32A5 JUMP JUMPDEST DUP2 EQ PUSH2 0x3534 JUMPI PUSH1 0x0 DUP1 REVERT JUMPDEST POP JUMP INVALID LOG2 PUSH5 0x6970667358 0x22 SLT KECCAK256 0xE4 0xD6 STATICCALL 0xBD 0xC6 SWAP2 PUSH26 0x57439D1C63E8197AD245D3DB5DD3C0CC57A3A03888D31EDF964 PUSH20 0x6F6C634300080700330000000000000000000000 "
		},
		"gasEstimates": {
			"creation": {
				"codeDepositCost": "2735400",
				"executionCost": "2976",
				"totalCost": "2738376"
			},
			"external": {
				"CreateUser(string,string,uint8,uint256,uint256)": "infinite",
				"GetUsersByType(uint8)": "infinite",
				"Owner()": "2533",
				"PatchTrannsactions(uint256)": "infinite",
				"ReadDrug(string)": "infinite",
				"ReadParentAndSiblingsTransactions(string,string,address)": "infinite",
				"ReadRoleByUser()": "7130",
				"ReadTransactionsByDrug(string)": "infinite",
				"ReadTransactionsByPatchNo(string,string)": "infinite",
				"ReadTransactionsByUser(address)": "infinite",
				"ReadUser(address)": "infinite",
				"ReturnRemainingAmount(string,string,address)": "infinite",
				"compareStringsbyBytes(string,string)": "infinite"
			}
		},
		"methodIdentifiers": {
			"CreateUser(string,string,uint8,uint256,uint256)": "64819ae0",
			"GetUsersByType(uint8)": "0f9de977",
			"Owner()": "b4a99a4e",
			"PatchTrannsactions(uint256)": "1567697c",
			"ReadDrug(string)": "cdf7e73d",
			"ReadParentAndSiblingsTransactions(string,string,address)": "31a6db4d",
			"ReadRoleByUser()": "783a7895",
			"ReadTransactionsByDrug(string)": "4b2d14aa",
			"ReadTransactionsByPatchNo(string,string)": "40d37caf",
			"ReadTransactionsByUser(address)": "99b5bbdd",
			"ReadUser(address)": "cd1720d1",
			"ReturnRemainingAmount(string,string,address)": "798d2122",
			"compareStringsbyBytes(string,string)": "e9a734ff"
		}
	},
	"abi": [
		{
			"inputs": [
				{
					"internalType": "string",
					"name": "_id",
					"type": "string"
				},
				{
					"internalType": "string",
					"name": "_username",
					"type": "string"
				},
				{
					"internalType": "enum Utils.UserRoles",
					"name": "_userrole",
					"type": "uint8"
				},
				{
					"internalType": "uint256",
					"name": "_lat",
					"type": "uint256"
				},
				{
					"internalType": "uint256",
					"name": "_long",
					"type": "uint256"
				}
			],
			"name": "CreateUser",
			"outputs": [
				{
					"internalType": "bool",
					"name": "",
					"type": "bool"
				}
			],
			"stateMutability": "nonpayable",
			"type": "function"
		},
		{
			"inputs": [
				{
					"internalType": "enum Utils.UserRoles",
					"name": "_role",
					"type": "uint8"
				}
			],
			"name": "GetUsersByType",
			"outputs": [
				{
					"components": [
						{
							"internalType": "string",
							"name": "UserID",
							"type": "string"
						},
						{
							"internalType": "string",
							"name": "UserName",
							"type": "string"
						},
						{
							"internalType": "enum Utils.UserRoles",
							"name": "UserRole",
							"type": "uint8"
						},
						{
							"internalType": "enum Utils.Statuses",
							"name": "UserStatus",
							"type": "uint8"
						},
						{
							"internalType": "uint256",
							"name": "Latitude",
							"type": "uint256"
						},
						{
							"internalType": "uint256",
							"name": "Longitude",
							"type": "uint256"
						},
						{
							"internalType": "address",
							"name": "UserAddress",
							"type": "address"
						}
					],
					"internalType": "struct Utils.User[]",
					"name": "filteredUsers",
					"type": "tuple[]"
				}
			],
			"stateMutability": "view",
			"type": "function"
		},
		{
			"inputs": [],
			"name": "Owner",
			"outputs": [
				{
					"internalType": "address",
					"name": "",
					"type": "address"
				}
			],
			"stateMutability": "view",
			"type": "function"
		},
		{
			"inputs": [
				{
					"internalType": "uint256",
					"name": "",
					"type": "uint256"
				}
			],
			"name": "PatchTrannsactions",
			"outputs": [
				{
					"internalType": "string",
					"name": "DrugRegNo",
					"type": "string"
				},
				{
					"internalType": "string",
					"name": "PatchNo",
					"type": "string"
				},
				{
					"internalType": "uint256",
					"name": "LineNo",
					"type": "uint256"
				},
				{
					"internalType": "address",
					"name": "FromID",
					"type": "address"
				},
				{
					"internalType": "address",
					"name": "ToID",
					"type": "address"
				},
				{
					"internalType": "uint256",
					"name": "Amount",
					"type": "uint256"
				},
				{
					"internalType": "uint256",
					"name": "TransactionDate",
					"type": "uint256"
				}
			],
			"stateMutability": "view",
			"type": "function"
		},
		{
			"inputs": [
				{
					"internalType": "string",
					"name": "_regno",
					"type": "string"
				}
			],
			"name": "ReadDrug",
			"outputs": [
				{
					"components": [
						{
							"internalType": "string",
							"name": "DrugName",
							"type": "string"
						},
						{
							"internalType": "address",
							"name": "Manufacturer",
							"type": "address"
						},
						{
							"internalType": "enum Utils.Statuses",
							"name": "DrugStatus",
							"type": "uint8"
						}
					],
					"internalType": "struct Utils.Drug",
					"name": "",
					"type": "tuple"
				}
			],
			"stateMutability": "view",
			"type": "function"
		},
		{
			"inputs": [
				{
					"internalType": "string",
					"name": "_patchno",
					"type": "string"
				},
				{
					"internalType": "string",
					"name": "_drugno",
					"type": "string"
				},
				{
					"internalType": "address",
					"name": "_fromaddress",
					"type": "address"
				}
			],
			"name": "ReadParentAndSiblingsTransactions",
			"outputs": [
				{
					"components": [
						{
							"internalType": "string",
							"name": "DrugRegNo",
							"type": "string"
						},
						{
							"internalType": "string",
							"name": "PatchNo",
							"type": "string"
						},
						{
							"internalType": "uint256",
							"name": "LineNo",
							"type": "uint256"
						},
						{
							"internalType": "address",
							"name": "FromID",
							"type": "address"
						},
						{
							"internalType": "address",
							"name": "ToID",
							"type": "address"
						},
						{
							"internalType": "uint256",
							"name": "Amount",
							"type": "uint256"
						},
						{
							"internalType": "uint256",
							"name": "TransactionDate",
							"type": "uint256"
						}
					],
					"internalType": "struct Utils.PatchTransaction[]",
					"name": "UserTransaction",
					"type": "tuple[]"
				}
			],
			"stateMutability": "view",
			"type": "function"
		},
		{
			"inputs": [],
			"name": "ReadRoleByUser",
			"outputs": [
				{
					"internalType": "enum Utils.UserRoles",
					"name": "_userrole",
					"type": "uint8"
				}
			],
			"stateMutability": "view",
			"type": "function"
		},
		{
			"inputs": [
				{
					"internalType": "string",
					"name": "_drugno",
					"type": "string"
				}
			],
			"name": "ReadTransactionsByDrug",
			"outputs": [
				{
					"components": [
						{
							"internalType": "string",
							"name": "DrugRegNo",
							"type": "string"
						},
						{
							"internalType": "string",
							"name": "PatchNo",
							"type": "string"
						},
						{
							"internalType": "uint256",
							"name": "LineNo",
							"type": "uint256"
						},
						{
							"internalType": "address",
							"name": "FromID",
							"type": "address"
						},
						{
							"internalType": "address",
							"name": "ToID",
							"type": "address"
						},
						{
							"internalType": "uint256",
							"name": "Amount",
							"type": "uint256"
						},
						{
							"internalType": "uint256",
							"name": "TransactionDate",
							"type": "uint256"
						}
					],
					"internalType": "struct Utils.PatchTransaction[]",
					"name": "UserTransaction",
					"type": "tuple[]"
				}
			],
			"stateMutability": "view",
			"type": "function"
		},
		{
			"inputs": [
				{
					"internalType": "string",
					"name": "_patchno",
					"type": "string"
				},
				{
					"internalType": "string",
					"name": "_drugno",
					"type": "string"
				}
			],
			"name": "ReadTransactionsByPatchNo",
			"outputs": [
				{
					"components": [
						{
							"internalType": "string",
							"name": "DrugRegNo",
							"type": "string"
						},
						{
							"internalType": "string",
							"name": "PatchNo",
							"type": "string"
						},
						{
							"internalType": "uint256",
							"name": "LineNo",
							"type": "uint256"
						},
						{
							"internalType": "address",
							"name": "FromID",
							"type": "address"
						},
						{
							"internalType": "address",
							"name": "ToID",
							"type": "address"
						},
						{
							"internalType": "uint256",
							"name": "Amount",
							"type": "uint256"
						},
						{
							"internalType": "uint256",
							"name": "TransactionDate",
							"type": "uint256"
						}
					],
					"internalType": "struct Utils.PatchTransaction[]",
					"name": "UserTransaction",
					"type": "tuple[]"
				}
			],
			"stateMutability": "view",
			"type": "function"
		},
		{
			"inputs": [
				{
					"internalType": "address",
					"name": "_useraddress",
					"type": "address"
				}
			],
			"name": "ReadTransactionsByUser",
			"outputs": [
				{
					"components": [
						{
							"internalType": "string",
							"name": "DrugRegNo",
							"type": "string"
						},
						{
							"internalType": "string",
							"name": "PatchNo",
							"type": "string"
						},
						{
							"internalType": "uint256",
							"name": "LineNo",
							"type": "uint256"
						},
						{
							"internalType": "address",
							"name": "FromID",
							"type": "address"
						},
						{
							"internalType": "address",
							"name": "ToID",
							"type": "address"
						},
						{
							"internalType": "uint256",
							"name": "Amount",
							"type": "uint256"
						},
						{
							"internalType": "uint256",
							"name": "TransactionDate",
							"type": "uint256"
						}
					],
					"internalType": "struct Utils.PatchTransaction[]",
					"name": "UserTransaction",
					"type": "tuple[]"
				}
			],
			"stateMutability": "view",
			"type": "function"
		},
		{
			"inputs": [
				{
					"internalType": "address",
					"name": "_address",
					"type": "address"
				}
			],
			"name": "ReadUser",
			"outputs": [
				{
					"components": [
						{
							"internalType": "string",
							"name": "UserID",
							"type": "string"
						},
						{
							"internalType": "string",
							"name": "UserName",
							"type": "string"
						},
						{
							"internalType": "enum Utils.UserRoles",
							"name": "UserRole",
							"type": "uint8"
						},
						{
							"internalType": "enum Utils.Statuses",
							"name": "UserStatus",
							"type": "uint8"
						},
						{
							"internalType": "uint256",
							"name": "Latitude",
							"type": "uint256"
						},
						{
							"internalType": "uint256",
							"name": "Longitude",
							"type": "uint256"
						},
						{
							"internalType": "address",
							"name": "UserAddress",
							"type": "address"
						}
					],
					"internalType": "struct Utils.User",
					"name": "",
					"type": "tuple"
				}
			],
			"stateMutability": "view",
			"type": "function"
		},
		{
			"inputs": [
				{
					"internalType": "string",
					"name": "_patchno",
					"type": "string"
				},
				{
					"internalType": "string",
					"name": "_drugno",
					"type": "string"
				},
				{
					"internalType": "address",
					"name": "_fromaddress",
					"type": "address"
				}
			],
			"name": "ReturnRemainingAmount",
			"outputs": [
				{
					"internalType": "uint256",
					"name": "_remainamount",
					"type": "uint256"
				}
			],
			"stateMutability": "view",
			"type": "function"
		},
		{
			"inputs": [
				{
					"internalType": "string",
					"name": "s1",
					"type": "string"
				},
				{
					"internalType": "string",
					"name": "s2",
					"type": "string"
				}
			],
			"name": "compareStringsbyBytes",
			"outputs": [
				{
					"internalType": "bool",
					"name": "",
					"type": "bool"
				}
			],
			"stateMutability": "pure",
			"type": "function"
		}
	]
}